1                        J E S 2  J O B  L O G  --  S Y S T E M  S Y S B  --  N O D E  R L G
0
 12.47.09 JOB03534 ---- MONDAY,    15 MAR 2004 ----
 12.47.09 JOB03534  ICH70001I GG$SLP   LAST ACCESS AT 12:47:02 ON MONDAY, MARCH 15, 2004
 12.47.09 JOB03534  $HASP373 WYL#JES  STARTED - INIT 6    - CLASS B - SYS SYSB
 12.47.09 JOB03534  ***  HCMD      STEP $$QUIET
 12.47.09 JOB03534  PUR * Q OUT MUL
 12.47.09 JOB03534  JOB 5397 WYL#JES  WILL BE PURGED
 12.47.10 JOB03534  WYL#JES .$$QUIET .         RC=Zero TapeIO=0000 DiskIO=0000 CPU=  .01s Elapsed=29.89s
 12.47.20 JOB03534  WYL#JES .ASM     .         RC=Zero TapeIO=0000 DiskIO=1066 CPU= 6.46s Elapsed=30.93s
 12.47.21 JOB03534  WYL#JES .EDIT    .         RC=Zero TapeIO=0000 DiskIO=0268 CPU=  .77s Elapsed=40.63s
 12.47.21 JOB03534  WYL#JES  Ended.  Name=Assemble JES                   Total CPU= 7.24s Elapsed=29.89s
 12.47.21 JOB03534
 12.47.21 JOB03534  Execution charges   Priority=Standard   Block=Day
 12.47.21 JOB03534
 12.47.21 JOB03534  CPU Usage         133.50          $82.77   Standard Processing Unit Equivalent
 12.47.21 JOB03534                                   =======
 12.47.21 JOB03534                                    $82.77   Total Job execution charge
 12.47.21 JOB03534
 12.47.21 JOB03534  See back separator page for print charges
 12.47.21 JOB03534
 12.47.21 JOB03534  $HASP395 WYL#JES  ENDED  ASM=0, EDIT=0
1        1 //WYL#JES JOB SLP$GG,'Assemble JES',TIME=4,REGION=4M                    JOB03534
           //*
           /*JOBPARM LINES=99,COPIES=1
           /*JOBPARM FORMS=3HOL,PFORMAT=LAND,CHARS=BD13,DUPLEX=YES,FLASH=BAR4
           //*
           /*JOBPARM NOTIFY=GG.SLP,HOLD=OUTPUT                                     WYLGEN
         2 //$$QUIET EXEC PGM=HCMDX,PARM='PUR * Q OUT MUL'
           //*
         3 //ASM    EXEC PGM=ASMA90,REGION=8M,
           //            PARM=('NORENT,TERM,FLAG(NOCONT),US(MAP,WARN(10)),NODECK',
           //            'LC(32767),XREF(SHORT),ESD,DXREF,NOOBJECT')
         4 //STEPLIB DD DSN=SYS3.IS.TESTASM,DISP=SHR
         5 //SYSLIB   DD  DSN=WYL.GS.WYL.WYLBUR.MACLIB,DISP=SHR
         6 //         DD  DSN=WYL.GG.SYS.MACLIB,DISP=SHR
         7 //         DD  DSN=SYS3.IS.MACLIB,DISP=SHR
         8 //         DD  DSN=SYS3.MACLIB,DISP=SHR
         9 //         DD  DSN=SYS1.MACLIB,DISP=SHR
        10 //         DD  DSN=SYS1.MODGEN,DISP=SHR
        11 //SYSUT1   DD DSN=&&SYSUT1,UNIT=VIO,DISP=(,DELETE),
           //            SPACE=(4088,(500,250),,CONTIG,ROUND)
        12 //SYSTERM  DD SYSOUT=T
        13 //SYSPRINT DD DSN=&&PRINT,UNIT=SYSDA,DISP=(,PASS),
           //            SPACE=(6650,(250,250),RLSE),
           //            DCB=(BLKSIZE=6650,LRECL=133,RECFM=FB)
        14 //SYSUDUMP DD SYSOUT=A
        15 //SYSIN    DD  DSN=WYL.GS.WYL.WYLBUR.SOURCE(JES),DISP=SHR
           //*
        16 //EDIT    EXEC PGM=ASMEDIT,TIME=2,REGION=4000K,
           //             PARM='STMT'
        17 //STEPLIB  DD  DSN=WYL.GG.SYS.LINKLIB,DISP=SHR
        18 //ASMOUT   DD  DSN=&PRINT,DISP=(OLD,DELETE)
        19 //SYSPRINT DD  SYSOUT=A
1 STMT NO. MESSAGE
 -
        11 IGD01010I STORCLAS= TEMP STORGROUP =
        11 IGD01010I STORGRP=VIO ASSIGNED.
        13 IGD01010I STORCLAS= TEMP STORGROUP =
        13 IGD01010I STORGRP=VIO ASSIGNED.
 ICH70001I GG$SLP   LAST ACCESS AT 12:47:02 ON MONDAY, MARCH 15, 2004
 IEF142I WYL#JES $$QUIET - STEP WAS EXECUTED - COND CODE 0000
 *********************************************************************************
 *   WYL#JES /$$QUIET /                    Return Code      Zero                 *
 *   Region used      260K (16K user + 244K system)                              *
 *   Extended region  9692K (4K user + 9688K system)                             *
 *                                                                               *
 *   Paging              In      Out                                             *
 *   Private <-> Aux      0        0       CPU time (TCB)   00:00:00.01          *
 *   Private <-> Exp      0        0       CPU time (SRB)   00:00:00.00          *
 *   VIO                  0        0       Elapsed time    917:40:43.07          *
 *   Common               0      ---                                             *
 *                                                                               *
 *                                                                               *
 *   CPU Usage          0.18         $0.11  Standard Processing Unit Equivalent  *
 *                                   $0.11  Total Step execution charge          *
 *                                                                               *
 *    I/O count  DDname   Type Addr           I/O count  DDname   Type Addr      *
 *                         *** No I/O for this step ***                          *
 *********************************************************************************
 IEF373I STEP/$$QUIET /START 2004075.1247
 IEF374I STEP/$$QUIET /STOP  2004075.1247 CPU    0MIN 00.01SEC SRB    0MIN 00.00SEC VIRT    16K SYS   244K EXT       4K SYS    9688K
 IEF236I ALLOC. FOR WYL#JES ASM
 IEF237I 04DC ALLOCATED TO STEPLIB
 IEF237I 04DC ALLOCATED TO SYSLIB
 IEF237I 04DC ALLOCATED TO
 IEF237I 04DC ALLOCATED TO
 IEF237I 0402 ALLOCATED TO
 IEF237I 04A0 ALLOCATED TO
 IEF237I 04A0 ALLOCATED TO
 IGD101I SMS ALLOCATED TO DDNAME (SYSUT1  )
         DSN (SYS04075.T124709.RA000.WYL#JES.SYSUT1.H01   )
         STORCLAS (TEMP) MGMTCLAS (        ) DATACLAS (        )
         VOL SER NOS= VIO
 IEF237I JES2 ALLOCATED TO SYSTERM
 IGD101I SMS ALLOCATED TO DDNAME (SYSPRINT)
         DSN (SYS04075.T124709.RA000.WYL#JES.PRINT.H01    )
         STORCLAS (TEMP) MGMTCLAS (        ) DATACLAS (        )
         VOL SER NOS= SCR101
 IEF237I JES2 ALLOCATED TO SYSUDUMP
 IEF237I 04DC ALLOCATED TO SYSIN
 IEF142I WYL#JES ASM - STEP WAS EXECUTED - COND CODE 0000
 IEF285I   SYS3.IS.TESTASM                              KEPT
 IEF285I   VOL SER NOS= SYSB05.
 IEF285I   WYL.GS.WYL.WYLBUR.MACLIB                     KEPT
 IEF285I   VOL SER NOS= SYSB05.
 IEF285I   WYL.GG.SYS.MACLIB                            KEPT
 IEF285I   VOL SER NOS= SYSB05.
 IEF285I   SYS3.IS.MACLIB                               KEPT
 IEF285I   VOL SER NOS= SYSB05.
 IEF285I   SYS3.MACLIB                                  KEPT
 IEF285I   VOL SER NOS= SYSB02.
 IEF285I   SYS1.MACLIB                                  KEPT
 IEF285I   VOL SER NOS= MVSBR9.
 IEF285I   SYS1.MODGEN                                  KEPT
 IEF285I   VOL SER NOS= MVSBR9.
 IGD105I SYS04075.T124709.RA000.WYL#JES.SYSUT1.H01    DELETED,   DDNAME=SYSUT1
 IEF285I   GG$SLP.WYL#JES.JOB03534.D0000101.?           SYSOUT
 IGD106I SYS04075.T124709.RA000.WYL#JES.PRINT.H01     PASSED,    DDNAME=SYSPRINT
 IEF285I   GG$SLP.WYL#JES.JOB03534.D0000102.?           SYSOUT
 IEF285I   WYL.GS.WYL.WYLBUR.SOURCE                     KEPT
 IEF285I   VOL SER NOS= SYSB05.
 *********************************************************************************
 *   WYL#JES /ASM     /                    Return Code      Zero                 *
 *   Region used      4376K (4096K user + 280K system)                           *
 *   Extended region  10312K (412K user + 9900K system)                          *
 *                                                                               *
 *   Paging              In      Out                                             *
 *   Private <-> Aux      0        0       CPU time (TCB)   00:00:06.36          *
 *   Private <-> Exp      0        0       CPU time (SRB)   00:00:00.10          *
 *   VIO                  0        0       Elapsed time    917:40:42.03          *
 *   Common               0      ---                                             *
 *                                                                               *
 *                                                                               *
 *   CPU Usage        119.25        $73.93  Standard Processing Unit Equivalent  *
 *                                  $73.93  Total Step execution charge          *
 *                                                                               *
 *    I/O count  DDname   Type Addr           I/O count  DDname   Type Addr      *
 *           83  STEPLIB  Disk 04DC                 381  SYSLIB   Disk 04DC      *
 *            0  SYSLIB   Disk 04DC                   0  SYSLIB   Disk 04DC      *
 *           17  SYSLIB   Disk 0402                 312  SYSLIB   Disk 04A0      *
 *            0  SYSLIB   Disk 04A0               1,113  SYSUT1   VIO  ----      *
 *            0  SYSTERM       ----                 265  SYSPRINT Disk 04E3      *
 *            0  SYSUDUMP      ----                   8  SYSIN    Disk 04DC      *
 *********************************************************************************
 IEF373I STEP/ASM     /START 2004075.1247
 IEF374I STEP/ASM     /STOP  2004075.1247 CPU    0MIN 06.36SEC SRB    0MIN 00.10SEC VIRT  4096K SYS   280K EXT     412K SYS    9900K
 IEF236I ALLOC. FOR WYL#JES EDIT
 IEF237I 0402 ALLOCATED TO STEPLIB
 IGD103I SMS ALLOCATED TO DDNAME ASMOUT
 IEF237I JES2 ALLOCATED TO SYSPRINT
 IEF142I WYL#JES EDIT - STEP WAS EXECUTED - COND CODE 0000
 IEF285I   WYL.GG.SYS.LINKLIB                           KEPT
 IEF285I   VOL SER NOS= SYSB02.
 IGD105I SYS04075.T124709.RA000.WYL#JES.PRINT.H01     DELETED,   DDNAME=ASMOUT
 IEF285I   GG$SLP.WYL#JES.JOB03534.D0000103.?           SYSOUT
 *********************************************************************************
 *   WYL#JES /EDIT    /                    Return Code      Zero                 *
 *   Region used      380K (116K user + 264K system)                             *
 *   Extended region  9812K (4K user + 9808K system)                             *
 *                                                                               *
 *   Paging              In      Out                                             *
 *   Private <-> Aux      0        0       CPU time (TCB)   00:00:00.75          *
 *   Private <-> Exp      0        0       CPU time (SRB)   00:00:00.02          *
 *   VIO                  0        0       Elapsed time    917:40:32.33          *
 *   Common               0      ---                                             *
 *                                                                               *
 *                                                                               *
 *   CPU Usage         14.06         $8.71  Standard Processing Unit Equivalent  *
 *                                   $8.71  Total Step execution charge          *
 *                                                                               *
 *    I/O count  DDname   Type Addr           I/O count  DDname   Type Addr      *
 *            2  STEPLIB  Disk 0402                 266  ASMOUT   Disk 04E3      *
 *            0  SYSPRINT      ----                                              *
 *********************************************************************************
 IEF373I STEP/EDIT    /START 2004075.1247
 IEF374I STEP/EDIT    /STOP  2004075.1247 CPU    0MIN 00.75SEC SRB    0MIN 00.02SEC VIRT   116K SYS   264K EXT       4K SYS    9808K
 *********************************************************************************
 *                                                                               *
 *                      S t a n f o r d   U n i v e r s i t y                    *
 *                                                                               *
 *                              *** Job Summary ***                              *
 *                                                                               *
 *   System Id      SYSB                   Input time     12:39:20  Mar 15, 2004 *
 *                                                                               *
 *   System Release SP6.1.0                Start time     12:47:09  Mar 15, 2004 *
 *                                                                               *
 *   Job name       WYL#JES                Stop  time     00:00:00  Mar 15, 2004 *
 *                                                                               *
 *   Account        SLP$GG                 Elapsed time  917:40:43.07            *
 *                                                                               *
 *   User Name      Assemble JES           CPU time       00:00:07.12            *
 *                                                                               *
 *   Job class      B                      SRB Time       00:00:00.12            *
 *                                                                               *
 *********************************************************************************
 IEF375I  JOB/WYL#JES /START 2004075.1247
 IEF376I  JOB/WYL#JES /STOP  2004075.1247 CPU    0MIN 07.12SEC SRB    0MIN 00.12SEC
1Assembler Done JES No Statements Flagged
1         High Level Assembler Option Summary                   (PTF P72483 )                                               Page    1
-                                                                                            HLASM R4.0  2004/03/15 12.47
0  No Overriding ASMAOPT Parameters
   Overriding Parameters-  NORENT,TERM,FLAG(NOCONT),US(MAP,WARN(10)),NODECK,LC(32767),XREF(SHORT),ESD,DXREF,NOOBJECT
   No Process Statements


   Options for this Assembly
0  NOADATA
     ALIGN
   NOASA
     BATCH
     CODEPAGE(047C)
   NOCOMPAT
   NODBCS
 3 NODECK
 3   DXREF
 3   ESD
   NOEXIT
 3   FLAG(0,ALIGN,NOCONT,NOIMPLEN,NOPAGE0,PUSH,RECORD,NOSUBSTR,USING0)
   NOFOLD
   NOGOFF
   NOINFO
     LANGUAGE(EN)
   NOLIBMAC
 3   LINECOUNT(32767)
     LIST(121)
     MXREF(SOURCE)
 3 NOOBJECT
     OPTABLE(UNI,NOLIST)
   NOPCONTROL
   NOPESTOP
   NOPROFILE
   NORA2
 3 NORENT
     RLD
     RXREF
     SIZE(MAX)
     SYSPARM()
 3   TERM(WIDE)
   NOTEST
     THREAD
   NOTRANSLATE
 3   USING(NOLIMIT,MAP,WARN(10))
 3   XREF(SHORT)

   No Overriding DD Names

1JES      External Symbol Dictionary                                                                                        Page    2
-Symbol   Type   Id     Address  Length     LD ID  Flags Alias-of                            HLASM R4.0  2004/03/15 12.47
0WYLJES    SD 00000001 00000000 000046AD             00
 JES2010   LD          00000000           00000001
 JESINIT   LD          00000016           00000001
 JESSTOP   LD          0000022C           00000001
 GETRSC    ER 00000002
 HCMRSG    ER 00000003
 SUBRSG    ER 00000004
 DQRSC     ER 00000005
 SEGB      ER 00000006
 LRTRIM    ER 00000007
 FETCH     LD          000003DC           00000001
 MTOKEN    ER 00000008
 MPLNO     ER 00000009
 MPINT     ER 0000000A
 CLRPSH    ER 0000000B
 MALL      ER 0000000C
 NOTVALID  ER 0000000D
 NSCAN     ER 0000000E
 SCANCHK   ER 0000000F
 ADDER     ER 00000010
 SEG       ER 00000011
 CLRTEXT   ER 00000012
 SEGCR     ER 00000013
 PFREEA    ER 00000014
 SQSHRTN   ER 00000015
 CVEXNO    ER 00000016
 PUTLINE   ER 00000017
 LASTLINE  ER 00000018
 JESCMD    LD          00001346           00000001
 JESSND    LD          0000146C           00000001
 SEGINIT   ER 00000019
 SEGTB     ER 0000001A
 GETDATA   ER 0000001B
 SEGT      ER 0000001C
 JESRTN    LD          00001558           00000001
 COLLPSH   ER 0000001D
 QUIETPSH  ER 0000001E
 MPARM     ER 0000001F
 TSTAT     ER 00000020
 SEGMARK   ER 00000021
 SEGWR     ER 00000022
 SETJES    LD          00002086           00000001
 NUMPSH    ER 00000023
 SHOWJES   LD          00002F7A           00000001
 JESDISP   LD          00002FB8           00000001
 JESDISP2  LD          00003332           00000001
 CHARCHKA  ER 00000024
 COLLOPTS  ER 00000025
 BTD       ER 00000026
 DESTVER   LD          000035D8           00000001
 DESTCHK   LD          0000362E           00000001
 JOBKWCHK  LD          00003714           00000001
 JESOOPN   LD          00003904           00000001
 JESIOPN   LD          00003A42           00000001
 JESODEL   LD          00003AD4           00000001
1JES      External Symbol Dictionary                                                                                        Page    3
 JESOCLS   LD          00003B10           00000001
 JESICLS   LD          00003BA4           00000001
 AMODE24   ER 00000027
 AMODE31   ER 00000028
 KWIO      ER 00000029
 CHKKW     ER 0000002A
 WAITER    ER 0000002B
 FREERSC   ER 0000002C
 JESWR     LD          00003F12           00000001
 JESCOM    LD          000042A4           00000001
 DISPATCH  ER 0000002D
 CV        ER 0000002E
 DTB       ER 0000002F

1JES      WYLBUR's JES Interface                                                                                            Page    4
0Loc    Object Code    Addr1 Addr2  Stmt Lv Lineno    Source Statement                    (Asmedit 3.3)  HLASM R4.0  2004/03/15 12.47
+___    ______ ____    _____ _____  ____ __ ______    ______ _________
0                                      2              *******************************************************************
                                       3              *                                                                 *
                                       4              *     WYLBUR/370 - Release VI - Class I - Stanford Proprietary    *
                                       5              *                                                                 *
                                       6              *******************************************************************
                                       7                       HIBAL
0000000                00000 046AD   989              WYLJES   CSECT
                                     993                       REGS  FSR,,,,,,,BR,(WAR,LSR),PAR,PBR,CPR,CVR,SPR,RAR
                                    1129              *
                                    1130              *
                                    1131              *  Modification history:
                                    1132              *
                                    1133              *     8-July-1997 - M. Durket
                                    1134              *       Changes to support 5 digit job numbers up to 65535
                                    1135              *
                                    1136              JES      IDENT 2010                10:26:04 01/10/02  (SLP)
                                    1139             +
                                    1140    01-IDENT +         ENTRY JES2010
                                    1141             +
 000000 15D1C5E2F2F0F1F0            1142    01-IDENT +JES2010  DC    AL1(21),C'JES2010,15MAR04,12:47'
                                    1143             +*
-                                   1146                       SYSDEFN
                                    1147                       GBLB  &JOBAUTH            (See SYSDEFN)
                                    1148
                                    1149                       PUSH  DSECTS
 USING  CP,R11                      1160             =         USING (CP),(CV)
 USING  CV,R12
 000016                00000 046AD  1179             =         POP   PRINT
1JES      (JES2010) (12:47) (15MAR04) DSECTS                                                                                Page    5
0Current Usings:  (CP,R11) (CV,R12)
0Loc    Object Code    Addr1 Addr2  Stmt Lv Lineno    Source Statement           (Hibal 5, Asmedit 3.3)  HLASM R4.0  2004/03/15 12.47
+___    ______ ____    _____ _____  ____ __ ______    ______ _________
0                                  10751                      $LRC   ,                   -- JES fetch buffer format --
1JES      (JES2010) (12:47) (15MAR04) HASP LOGICAL RECORD (LRC) DSECT                                                       Page    6
0Current Usings:  (CP,R11) (CV,R12)
0D-Loc  Object Code    Addr1 Addr2  Stmt Lv Lineno    Source Statement           (Hibal 5, Asmedit 3.3)  HLASM R4.0  2004/03/15 12.47
+_____  ______ ____    _____ _____  ____ __ ______    ______ _________
0000000                00000 00006 10753    01-$LRC  +LRCDSECT DSECT                     HASP LOGICAL RECORD DSECT
 000000                            10754    01-$LRC  +LRCTLENG DS    X                   LENGTH OF TEXT
 000001                            10755    01-$LRC  +LRCFLAG1 DS    B                   RECORD CHARACTERISTICS
 000002                            10756    01-$LRC  +LRCSEGL  DS    0HL2                LENGTH OF TEXT IN THIS SEGMENT
 000002                            10757    01-$LRC  +LRCLRECL DS    X                   ORIGINAL RECORD LENGTH
 000003                            10758    01-$LRC  +LRCTEXT  DS    0XL254              START OF TEXT (NO CARRIAGE CONTROL)
 000003                            10759    01-$LRC  +LRCCCTL  DS    X                   CARRIAGE CONTROL BYTE (OPTIONAL)
 000004                            10760    01-$LRC  +LRCSOUT  DS    0XL254              START OF TEXT (CARRIAGE CONTROL)
 000004                            10761    01-$LRC  +LRCSTEXT DS    0XL32767            NORMAL SPANNED RECORD START OF TEXT
 000004                            10762    01-$LRC  +LRCSRECL DS    HL2                 SPANNED RECORD LOGICAL RECORD LENGTH
 000006                            10763    01-$LRC  +LRCSFTXT DS    0XL32767            FIRST SPANNED RECORD START OF TEXT
                                   10764    01-$LRC  +LRCBFEND EQU   255                 LRCTLENG FOR END OF HASP DATA BLOCK
 000016                00000 046AD 10766    02-00037 +WYLJES $$CSECT
-
-                                  10768             +*        LRCFLAG1                                                    XX
-
                                   10770    01-$LRC  +LRC1CCTL EQU   B'10000000'         LRCCCTL CONTAINS CARRIAGE CONTROL
                                   10771    01-$LRC  +LRC1CTYP EQU   B'01100000'         CARRIAGE CONTROL TYPE
                                   10772    01-$LRC  +LRC1SPAN EQU   B'00010000'         TEXT IS SEGMENT OF A SPANNED RECORD
                                   10773    01-$LRC  +LRC1STYP EQU   B'00001110'         SPANNED RECORD TYPE
                                   10774    01-$LRC  +LRC1RSV7 EQU   B'00000001'         RESERVED
-                                  10776             +*        IF LRC1CCTL = 1 --                                          XX
0                                  10778    01-$LRC  +LRC1TYP0 EQU   B'00000000'         RESERVED
                                   10779    01-$LRC  +LRC1TMCH EQU   B'00100000'         MACHINE CARRIAGE CONTROL
                                   10780    01-$LRC  +LRC1TASA EQU   B'01000000'         ASA CARRIAGE COTNROL
                                   10781    01-$LRC  +LRC1TYP3 EQU   B'01100000'         RESERVED
0                                  10783             +*        IF LRC1CCTL = 0 --                                          XX
0                                  10785    01-$LRC  +LRC1RSV1 EQU   B'01000000'         RESERVED
                                   10786    01-$LRC  +LRC1RSV2 EQU   B'00100000'         RESERVED
-                                  10788             +*        IF LRC1SPAN = 1 --                                          XX
0                                  10790    01-$LRC  +LRC1SBGN EQU   B'00001000'         BEGINNING SEGMENT
                                   10791    01-$LRC  +LRC1SMID EQU   B'00000100'         MIDDLE SEGMENT
                                   10792    01-$LRC  +LRC1SEND EQU   B'00000010'         ENDING SEGMENT
0                                  10794             +*        IF LRC1SPAN = 0 --                                          XX
0                                  10796    01-$LRC  +LRC1INUL EQU   B'00001000'         TREAT RECORD AS NULL ON INPUT
                                   10797    01-$LRC  +LRC1ONUL EQU   B'00000100'         TREAT RECORD AS NULL ON OUTPUT
                                   10798    01-$LRC  +LRC1RSV6 EQU   B'00000010'         RESERVED
1JES      (JES2010) (12:47) (15MAR04) DSECTS                                                                                Page    7
0Current Usings:  (CP,R11) (CV,R12)
0Loc    Object Code    Addr1 Addr2  Stmt Lv Lineno    Source Statement           (Hibal 5, Asmedit 3.3)  HLASM R4.0  2004/03/15 12.47
+___    ______ ____    _____ _____  ____ __ ______    ______ _________
0000000                00000 00068 10801                       HCMRSC
 000000 00000000                   10812  1 02-RSCHD +HCM@NEXT     DC    A(0)              next resource on queue
 000004 00000000                   10813  1 02-RSCHD +HCM@PREV     DC    A(0)              previous resource on queue
 000008 00000000                   10814  1 02-RSCHD +HCM@JCB      DC    A(0)              address of owning jcb
 00000C 00000000                   10815  1 02-RSCHD +HCM$ECB      DC    A(0)              resource ecb
 000010 00000000                   10816  1 02-RSCHD +HCM#USE      DC    A(0)              no. of uses of resource
 000014 00                         10817  1          +*
 HCMFLAGS.HCM1ACTV 80 ONES
 HCMFLAGS.HCM1@ECB 40 ONES
 HCMFLAGS.HCM1ASYN 20 ONES
 000018                            10837  1 02-RSCHD +           DS    0F
 000018                            10839  1 02-PATH  +HCMPATH    DC    0F'0'
 000018                            10840  1 02-PATH  +HCMP       DC    0F'0'
 000018 00000000                   10842  1 03-DEFIN +HCMPMGC    DC    AL4(0)
 00001C 00000000                   10844  1 03-DEFIN +HCMPDJNM   DC    AL4(0)
 000020 E2E4C2E2E8E2E3D4           10846  1 03-DEFIN +HCMPMY     DC    CL8'SUBSYSTM'
 000028 C8C1E2D7C3D6D5E2           10848  1 03-DEFIN +HCMPYOU    DC    CL8'HASPCONS'
 000030 A0                         10850  1 03-DEFIN +HCMPMFL    DC    AL1(1*X'80'+0*X'40'+1*X'20')
                                   10851  1          +
                                   10852  1 02-PATH  +HCMPVER2    EQU  X'80'         CALLER IS USING VERSION 2
                                   10853  1 02-PATH  +HCMPMCTL    EQU  X'40'         CALLER ASKS TERMINATION CONTROL
                                   10854  1 02-PATH  +HCMPMNAM    EQU  X'20'         CALLER PROVIDES CALLEE NAME
                                   10855  1 02-PATH  +HCMPMDP1    EQU  X'10'         DUPLICATE TAGS FOUND: MY=PCBO, YOU=PCBA
                                   10856  1 02-PATH  +HCMPMDP2    EQU  X'08'         DUPLICATE TAGS FOUND: MY=PCBA, YOU=PCBO
                                   10857  1          +
 000031 000000                     10859  1 03-DEFIN +HCMPOECB   DC    AL3(0)
 000034 00000000                   10861  1 03-DEFIN +HCMPBUF    DC    AL4(0)
 000038 00000051                   10863  1 03-DEFIN +HCMPECBF   DC    AL4(HCMSFLG)
                                   10864  1          +
                                   10865  1 02-PATH  +HCMPFCLS    EQU   X'80'         I AM POSTED BECAUSE HE CLOSED
                                   10866  1 02-PATH  +HCMPFFQE    EQU   X'40'         I AM POSTED BECAUSE HIS FULL Q EMPTIED
                                   10867  1 02-PATH  +HCMPFNI     EQU   X'20'         I AM POSTED BECAUSE NEW INFO IN MY Q
                                   10868  1 02-PATH  +HCMPFDP     EQU   X'10'         I AM POSTED AT HIS DISCRETION
                                   10869  1 02-PATH  +HCMPFOPN    EQU   X'08'         I AM POSTED BECAUSE HE OPENED
                                   10870  1 02-PATH  +HCMPFCLC    EQU   X'04'         I AM POSTED BECAUSE MY CLOSE IS COMPLETE
                                   10871  1          +
 00003C C8E7C3C9                   10873  1 03-DEFIN +HCMPPASS   DC    CL4'HXCI'
 000040 0000000C                   10875  1 03-DEFIN +HCMPECB    DC    AL4(HCM$ECB)
 000044 00000000                   10877  1 03-DEFIN +HCMPEXIT   DC    AL4(0)
 000048 00000000                   10879  1 03-DEFIN +HCMPPINP   DC    XL4'0'
 00004C 00000000                   10881  1 03-DEFIN +HCMPRESV   DC    XL4'0'
                                   10882  1          +*
                                   10883  1          +*  VERSION 2 RETURN CODES
                                   10884  1          +*
                                   10885  1 02-PATH  +HCMPROK     EQU  0                       COMPLETE OK
                                   10886  1 02-PATH  +HCMPRIFC    EQU  4                       INVALID FUNCTION CODE
                                   10887  1 02-PATH  +HCMPRPMW    EQU  8                       INVALID PATH MAGIC WORD
                                   10888  1 02-PATH  +HCMPRBAF    EQU  12                      PARTNER'S BUFFER AREA FULL
                                   10889  1 02-PATH  +HCMPRNOP    EQU  16                      PARTNER NOT THERE
                                   10890  1 02-PATH  +HCMPRBOM    EQU  20                      BUFFER OVER PARTNER'S MAXIMUM
                                   10891  1 02-PATH  +HCMPRIBS    EQU  24                      RECEIVE BUFFER TOO SMALL
                                   10892  1 02-PATH  +HCMPRBPI    EQU  28                      INVALID BUFFER POINTER
                                   10893  1 02-PATH  +HCMPRIAD    EQU  32                      INVALID ADDRESS
                                   10894  1 02-PATH  +HCMPRES1    EQU  36                      RESERVED
1JES      (JES2010) (12:47) (15MAR04) DSECTS                                                                                Page    8
0Current Usings:  (CP,R11) (CV,R12)
0Loc    Object Code    Addr1 Addr2  Stmt Lv Lineno    Source Statement           (Hibal 5, Asmedit 3.3)  HLASM R4.0  2004/03/15 12.47
+___    ______ ____    _____ _____  ____ __ ______    ______ _________
0                                  10895  1 02-PATH  +HCMPRES2    EQU  40                      RESERVED
                                   10896  1 02-PATH  +HCMPRES3    EQU  44                      RESERVED
                                   10897  1 02-PATH  +HCMPRES4    EQU  48                      RESERVED
                                   10898  1          +
                                   10899  1 02-PATH  +HCMPSIZE    EQU  *-HCMP        LENGTH OF PATH BLOCK
 000050 00                         10900  1 01-HCMRS +HCMFLG     DC    X'00'               Local copy of Suzan flag
 000051 00                         10901  1 01-HCMRS +HCMSFLG    DC    X'00'               Flag for Suzan post info
 000052 00                         10902  1 01-HCMRS +           DC    X'00'               Zero for MVC mask
 000053 00                         10903  1          +*
 HCMWFLG.HCMFOPN   80 ONES
 HCMWFLG.HCMFPND   40 ONES
 HCMWFLG.HCMFSENT  20 ONES
                                   10923  1          +*
 000058                            10924  1 01-HCMRS +HCMPTRS    DS    0D
 000058                            10925  1 01-HCMRS +HCMLOC     DS    F          [Order]  Location of text in suzan buf
 00005C                            10926  1 01-HCMRS +HCMLEN     DS    F          [Order]  Length of text in suzan buf
 000060                            10927  1 01-HCMRS +HCMINDEX   DS    H                   Index into fetch buffer
                                   10928  1 01-HCMRS +HCMWA      EQU   HCMPTRS,*-HCMPTRS,C'X'
 000068                00068 00068 10929    01-HCMRS +         DS    0D
1JES      (JES2010) (12:47) (15MAR04) DSECTS                                                                                Page    9
0Current Usings:  (CP,R11) (CV,R12)
0Loc    Object Code    Addr1 Addr2  Stmt Lv Lineno    Source Statement           (Hibal 5, Asmedit 3.3)  HLASM R4.0  2004/03/15 12.47
+___    ______ ____    _____ _____  ____ __ ______    ______ _________
0000000                00000 0411C 10940                       SUBRSC ,
 000000                            10951  1 03-LABEL +SUB        DS    0H
 000000 00000000                   10952  1 02-RSCHD +SUB@NEXT     DC    A(0)              next resource on queue
 000004 00000000                   10953  1 02-RSCHD +SUB@PREV     DC    A(0)              previous resource on queue
 000008 00000000                   10954  1 02-RSCHD +SUB@JCB      DC    A(0)              address of owning jcb
 00000C 00000000                   10955  1 02-RSCHD +SUB$ECB      DC    A(0)              resource ecb
 000010 00000000                   10956  1 02-RSCHD +SUB#USE      DC    A(0)              no. of uses of resource
 000014 00                         10957  1          +*
 SUBFLAGS.SUB1ACTV 80 ONES
 SUBFLAGS.SUB1@ECB 40 ONES
 SUBFLAGS.SUB1ASYN 20 ONES
 000018                            10977  1 02-RSCHD +           DS    0F
                                   10978  1          +
 000018 D1C5E2D9C4D94040           10979  1 01-SUBRS +SUBNAME    DC    CL8'JESRDR'
                                   10980  1          +
 000020 00000000                   10981  1 01-SUBRS +SUBTCB     DC    A(0)                Submit subtask TCB ptr
                                   10982  1          +
 000024 00000000                   10983  1 01-SUBRS +SUBTECB    DC    A(0)                Termination ECB
 000028 00000000                   10984  1 01-SUBRS +SUBWECB    DC    A(0)                Subtask's ECB
                                   10985  1          +
 00002C 00000000                   10986  1 01-SUBRS +SUBRADDR   DC    A(0)                Address of this resource
                                   10987  1          +*                                    used as attach param list
                                   10988  1          +*
 000030                            10989  1 01-SUBRS +SUBTEMP    DS    CL8                 Work cell
 000038 00                         10990  1          +*
 SUBFLAG.SUBFEOJ   80 ONES
                                   11000  1          +*
 000039 00                                1          +
 00003A 0000                       11001  1 01-SUBRS +SUBJBNO    DC    H'0'                Jobno of job just submitted
                                   11002  1          +
 00003C                            11013  1 03-ACBVS +SUBACB     DS    0F
 00003C A0                         11014  1 03-ACBVS +           DC    X'A0' .                  ACB IDENTIFICATION
 00003D 10                         11015  1 03-ACBVS +           DC    AL1(16)                  ACB SUBTYPE             X04SVHS
 00003E 004C                       11016  1 03-ACBVS +           DC    AL2(76+0)         .      ACB LENGTH             X03004HS
 000040 00000000                   11017  1 03-ACBVS +           DC    A(0) .                   AMB LIST POINTER
 000044 00000000                   11018  1 03-ACBVS +           DC    A(0) .                   INTERFACE ROUTINE POINTER
 000048 92                         11019  1 03-ACBVS +           DC    B'10010010'              MACRF(1)                X04SVHS
 000049 00                         11020  1 03-ACBVS +           DC    B'00000000'              MACRF(2)                X04SVHS
                                   11021  1          +*                                       FOR NUMERIC IN PARENS  @YA41534
 00004A 00                         11022  1 03-ACBVS +           DC    AL1(0)       .           NO OF CONCURRENT        X04SVHS
                                   11023  1          +*                                       STRINGS FOR AIX PATH    X04SVHS
                                   11024  1          +*                                       FOR NUMERIC IN PARENS  @YA41534
 00004B 01                         11025  1 03-ACBVS +           DC    AL1(1)      .            NUMBER OF STRINGS       X04SVHS
                                   11026  1          +*                                       FOR NUMERIC IN PARENS  @YA41534
 00004C 0001                       11027  1 03-ACBVS +           DC    AL2(1)      .            NUMBER OF DATA BUFFERS
                                   11028  1          +*                                       FOR NUMERIC IN PARENS  @YA41534
 00004E 0000                       11029  1 03-ACBVS +           DC    AL2(0)      .            NUMBER OF INDEX BUFFERS
 000050 00                         11030  1 03-ACBVS +           DC    B'00000000'              MACRF(3)                X04SVHS
                                   11031  1          +*                                       FOR NUMERIC IN PARENS  @YA41534
 000051 00                         11032  1 03-ACBVS +           DC    AL1(0)                   SHARED RESOURCE POOL ID    @L1C
 000052 0000                       11033  1 03-ACBVS +           DC    AL2(0) .                 JES BUFFER POOL/NUMBER  X04SVHS
                                   11034  1          +*                                       OF JOURNAL BUFFERS
 000054 80                         11035  1 03-ACBVS +           DC    X'80' .                  RECFM=A
 000055 00                         11036  1 03-ACBVS +           DC    B'00000000'              READ INTEGRITY OPTIONS     @L2C
1JES      (JES2010) (12:47) (15MAR04) DSECTS                                                                                Page   10
0Current Usings:  (CP,R11) (CV,R12)
0Loc    Object Code    Addr1 Addr2  Stmt Lv Lineno    Source Statement           (Hibal 5, Asmedit 3.3)  HLASM R4.0  2004/03/15 12.47
+___    ______ ____    _____ _____  ____ __ ______    ______ _________
0000056 0008                       11037  1 03-ACBVS +           DC    X'0008' .                DSORG=ACB
 000058 00000000                   11038  1 03-ACBVS +           DC    A(0)                                             X04SVHS
 00005C 00000000                   11039  1 03-ACBVS +           DC    A(0)       .             PASSWORD POINTER
 000060 00000000                   11040  1 03-ACBVS +           DC    A(0)      .              EXIT LIST POINTER
 000064 D1C5E2D9C4D94040           11041  1 03-ACBVS +           DC    CL8'JESRDR'  .           DDNAME
 00006C 02                         11042  1 03-ACBVS +           DC    B'00000010'              OFLAGS                     @LPC
 00006D 00                         11043  1 03-ACBVS +           DC    AL1(0) .                 ERFLAGS
 00006E 00                         11044  1 03-ACBVS +           DC    B'00000000'              INFLGS(1)               X04SVHS
 00006F 00                         11045  1 03-ACBVS +           DC    B'00000000'              INFLGS(2)               X04SVHS
 000070 00000000                   11046  1 03-ACBVS +           DC    A(0)     .               OPENJ JFCB POINTER
 000074 00004000                   11047  1 03-ACBVS +           DC    A(16384)                 BUFFER SPACE
 000078 0000                       11048  1 03-ACBVS +           DC    AL2(0)        .          BLOCK SIZE
 00007A 0000                       11049  1 03-ACBVS +           DC    AL2(0)      .            RECORD SIZE
 00007C 00000000                   11050  1 03-ACBVS +           DC    A(0) .                   USER WORKAREA POINTER
 000080 00000000                   11051  1 03-ACBVS +           DC    A(0)                     CONTROL BLOCK MANIPULATION
                                   11052  1          +*                                       WORKAREA POINTER
 000084 00000000                   11053  1 03-ACBVS +           DC    A(0) .                   PTR TO APPLICATION NAME  X03004
                                   11054  1          +
 000088                            11057  1 03-RPLVS +SUBRPL     DS    0F
 000088 00                         11058  1 03-RPLVS +           DC    AL1(0)                   RPL IDENTIFICATION
 000089 10                         11059  1 03-RPLVS +           DC    AL1(16)                  RPL SUBTYPE             X04SVHS
 00008A 00                         11060  1 03-RPLVS +           DC    AL1(0)                   RPL REQUEST TYPE
 00008B 4C                         11061  1 03-RPLVS +           DC    AL1(76)                  RPL LENGTH               X03004
 00008C 00000000                   11087  1 03-RPLVS +           DC    A(0) .                   POINTER TO PLACEHOLDER
 000090 00000000                   11088  1 03-RPLVS +           DC    A(0) .                   ECB
 000094 00                         11089  1 03-RPLVS +           DC    BL1'0' .                 STATUS BYTE
 000095 000000                     11090  1 03-RPLVS +           DC    XL3'0'                   FEEDBACK CODES
 000098 0000                       11091  1 03-RPLVS +           DC    AL2(0)       .           KEY LENGTH
 00009A 0000                       11092  1 03-RPLVS +           DC    AL2(0)        .          TRANSID                    @LAC
 00009C 00000000                   11093  1 03-RPLVS +           DC    A(0)                     POINTER TO CONTROL CHARACTER
 0000A0 0000003C                   11094  1 03-RPLVSC+           DC    A(SUBACB)
                                          1          +                         .                POINTER TO ACB
 0000A4 00000000                   11095  1 03-RPLVS +           DC    A(0) .                   POINTER TO TCB
 0000A8 00000000                   11096  1 03-RPLVS +           DC    A(0)     .               POINTER TO RECORD AREA
 0000AC 00000000                   11097  1 03-RPLVS +           DC    A(0)    .                POINTER TO ARGUMENT
 0000B0 20                         11098  1 03-RPLVS +           DC    B'00100000'     .        OPTCD BYTE 1
 0000B1 80                         11099  1 03-RPLVSC+           DC    B'10000000'
                                          1          +                            .            OPTCD BYTE 2
 0000B2 00                         11100  1 03-RPLVS +           DC    B'00000000'              OPTCD BYTE 3               @LAC
 0000B3 00                         11101  1 03-RPLVS +           DC    B'00000000'              OPTCD BYTE 4               @EAC
 0000B4 00000000                   11102  1 03-RPLVS +           DC    A(0)       .             POINTER TO NEXT RPL
 0000B8 00000000                   11103  1 03-RPLVS +           DC    A(0) .                   RESERVED FOR LOGICAL REC LEN
 0000BC 00004000                   11104  1 03-RPLVS +           DC    A(16384)    .            BUFFER LENGTH
                                   11105  1          +*                                       OPTCD BYTES 5-8          X03004
 0000C0 00                         11106  1 03-RPLVSC+           DC    B'00000000'
                                          1          +                            .            BYTE 5                  X04SVHS
 0000C1 00                         11107  1 03-RPLVSC+           DC    B'00000000'
                                          1          +                            .            BYTE 6                  X04SVHS
 0000C2 00                         11108  1 03-RPLVSC+           DC    B'00000000'
                                          1          +                            .            BYTE 7                  X04SVHS
 0000C3 00                         11109  1 03-RPLVSC+           DC    B'00000000'
                                          1          +                            .            BYTE 8                  X04SVHS
 0000C4 0000000000000000           11110  1 03-RPLVS +           DC    XL8'0' .                 RBA
 0000CC 40                         11111  1 03-RPLVS +           DC    B'01000000'                                     @G40AKSL
1JES      (JES2010) (12:47) (15MAR04) DSECTS                                                                                Page   11
0Current Usings:  (CP,R11) (CV,R12)
0Loc    Object Code    Addr1 Addr2  Stmt Lv Lineno    Source Statement           (Hibal 5, Asmedit 3.3)  HLASM R4.0  2004/03/15 12.47
+___    ______ ____    _____ _____  ____ __ ______    ______ _________
00000CD 00                         11112  1 03-RPLVS +           DC    AL1(0)                   ACTIVE INDICATOR
 0000CE 0000                       11113  1 03-RPLVS +           DC    AL2(0)       .           MAXIMUM ERROR MSG LENGTH
 0000D0 00000000                   11114  1 03-RPLVS +           DC    A(0) .                   RESERVED FOR MESSAGE AREA PTR
                                   11115  1          +
 0000D4 000000DC                   11157  1 03-IDACB +SUBTSCBL   DC    A(*+8)                  ADDRESS OF HEADER
 0000D8 800000EC                   11158  1 03-IDACB +           DC    A(SUBTSCBL+24+X'80000000')   ADDRESS OF LAST ELEMENT
 0000DC A0                         11159  1 03-IDACB +           DC    AL1(160)                BLOCK TYPE CODE
 0000DD 04                         11160  1 03-IDACB +           DC    AL1(4)                  FUNCTION TYPE CODE
 0000DE 0000                       11161  1 03-IDACB +           DC    AL2(0)                   HEADER FIELD VALUE
 0000E0 0000003C                   11162  1 03-IDACB +           DC    AL4(SUBACB)                  HEADER FIELD VALUE
 0000E4 00000000                   11163  1 03-IDACB +           DC    AL4(0)                   HEADER FIELD VALUE
 0000E8 00000000                   11164  1 03-IDACB +           DC    AL4(0)                   HEADER FIELD VALUE
 0000EC 001D                       11165  1 03-IDACB +           DC    AL2(29)                    ELEMENT ID
 0000EE 0000                       11166  1 03-IDACB +           DC    AL2(0)                  RESERVED                    @LQC
 0000F0 80000000                   11167  1 03-IDACBC+           DC    B'10000000000000000000000000000000'
                                          1          +                                         ELEMENT VALUE
 0000F4 00000100                   11201  1 03-IDACB +SUBMDCBL   DC    A(*+12)                 ADDRESS OF HEADER
 0000F8 00000108                   11202  1 03-IDACB +           DC    A(SUBMDCBL+20)          ELEMENT ADDRESS
 0000FC 80000110                   11203  1 03-IDACB +           DC    A(SUBMDCBL+28+X'80000000')   ADDRESS OF LAST ELEMENT
 000100 C0                         11204  1 03-IDACB +           DC    AL1(192)                BLOCK TYPE CODE
 000101 02                         11205  1 03-IDACB +           DC    AL1(2)                  FUNCTION TYPE CODE
 000102 0000                       11206  1 03-IDACB +           DC    AL2(0)                   HEADER FIELD VALUE
 000104 00000088                   11207  1 03-IDACB +           DC    AL4(SUBRPL)                  HEADER FIELD VALUE
 000108 002C                       11208  1 03-IDACB +           DC    AL2(44)                    ELEMENT ID
 00010A 0000                       11209  1 03-IDACB +           DC    AL2(0)                  RESERVED                    @LQC
 00010C 00000000                   11210  1 03-IDACB +           DC    A(0)                    ELEMENT VALUE
 000110 0035                       11211  1 03-IDACB +           DC    AL2(53)                    ELEMENT ID
 000112 0000                       11212  1 03-IDACB +           DC    AL2(0)                  RESERVED                    @LQC
 000114 00000000                   11213  1 03-IDACB +           DC    A(0)                    ELEMENT VALUE
 000118 0000                       11214  1 01-SUBRS +SUBBLEN    DC    H'0'                Current buffer length
 00011A                            11215  1 01-SUBRS +SUBBUFR    DS    XL16384             Working buffer
 00411C                0411C 0411C 11216    01-SUBRS +         DS    0F
1JES      (JES2010) (12:47) (15MAR04) DSECTS                                                                                Page   12
0Current Usings:  (CP,R11) (CV,R12)
0Loc    Object Code    Addr1 Addr2  Stmt Lv Lineno    Source Statement           (Hibal 5, Asmedit 3.3)  HLASM R4.0  2004/03/15 12.47
+___    ______ ____    _____ _____  ____ __ ______    ______ _________
0000000                00000 0003C 11227              SEGCB    RECORD 'SEGCB'
 000000 00                         11237  1 03-SEGCB +$$$SEGCB42   DS  0F
 SEGCBCOD.SEGCBSEG 01 EQ
 SEGCBCOD.SEGCBWR  02 EQ
 SEGCBCOD.SEGCBCLR 03 EQ
 SEGCBCOD.SEGCBSPP 04 EQ
 SEGCBCOD.SEGCBOVF 05 EQ
 SEGCBCOD.SEGCBCR  06 EQ
 SEGCBCOD.SEGCBMAR 07 EQ
 000001 00                         11312  1 03-SEGCB +           DC    X'00'               Reserved
 000002 0000                              1          +
 000004 00000000                   11313  1 03-SEGCB +SEGCBMAXF   DC   A(0)                Maximum buffer length
 000008 00000000                   11314  1 03-SEGCB +SEGCBMRKF   DC   A(0)                Length at last mark
 00000C 00000000                   11315  1 03-SEGCB +SEGCBLENF   DC   A(0)                Current length
 000010 00000000                   11316  1 03-SEGCB +SEGCBINDF   DC   A(0)                Overflow/indent count
 000014 00000000                   11317  1 03-SEGCB +SEGCBERR   DC    A(0)                Address of error recovery routine
 000018 0000000000000000           11318  1 03-SEGCB +           DC    2F'0'               Reserved
 000020 00000000                   11319  1 03-SEGCB +SEGCBLOC   DC    A(0)                Location of buffer
 000024 00000000                   11320  1 03-SEGCB +SEGCBRTN   DC    A(0)                Processing routine
 000028 0000000000000000           11321  1 03-SEGCB +           DC    4F'0'               Reserved
 000038 00000000                   11322    03-SEGCB +SEGCBUSR DC    A(0)                USER field
1JES      (JES2010) (12:47) (15MAR04) DSECTS                                                                                Page   13
0Current Usings:  (CP,R11) (CV,R12)
0Loc    Object Code    Addr1 Addr2  Stmt Lv Lineno    Source Statement           (Hibal 5, Asmedit 3.3)  HLASM R4.0  2004/03/15 12.47
+___    ______ ____    _____ _____  ____ __ ______    ______ _________
0000000                00000 00004 11333              RDWD     RECORD 'RDW'
 000000                            11343  1 03-RDW   +RDW        DS    0F                  Start of RDW
 000000                            11344  1 03-RDW   +RDWSZ      DS    H                   Length
 000002                            11345  1 03-RDW   +RDWUFL     DS    X                   User flags
                                   11346  1 03-RDW   +RDWONLY    EQU   X'00'  [Unused]     - Only segment
                                   11347  1 03-RDW   +RDWFRST    EQU   X'01'  [Unused]     - First of >1 segments
                                   11348  1 03-RDW   +RDWLAST    EQU   X'02'  [Unused]     - Last of >1 segments
                                   11349  1 03-RDW   +RDWMIDL    EQU   X'03'  [Unused]     - Middle of >1 segments
                                   11350  1          +
 000003                            11351  1 03-RDW   +RDWSFL     DS    X                   SVC flags
                                   11352  1 03-RDW   +RDWSFREE   EQU   X'80'               - Located, cmdfreex freed it
                                   11353  1 03-RDW   +RDWSPAD    EQU   X'40'  [Unused]     - Padded to halfword multiple
                                   11354  1 03-RDW   +RDWSEOF    EQU   X'20'               - End of file, this controllee
                                   11355  1          +
 000004                00004 00004 11356    03-RDW   +RDWSIZE  EQU   *-RDW               Size of RDW
1JES      (JES2010) (12:47) (15MAR04) DSECTS                                                                                Page   14
0Current Usings:  (CP,R11) (CV,R12)
0Loc    Object Code    Addr1 Addr2  Stmt Lv Lineno    Source Statement           (Hibal 5, Asmedit 3.3)  HLASM R4.0  2004/03/15 12.47
+___    ______ ____    _____ _____  ____ __ ______    ______ _________
0000000                00000 00016 11367              HRBDSECT RECORD BEGIN
                                   11375  1                      HRB
 000000                            11376  1 01-HRB   +HRB        DS    0H                  HASP EXTERNAL RESPONSE BLOCK
                                   11377  1          +*
                                   11378  1          +*        OUTPUT HALF OF EXTERNAL COMMAND INTERFACE THROUGH SUZAN
                                   11379  1          +*        USED BY WYLBUR AND BATCH JOBS.
                                   11380  1          +*
 000000                            11381  1 01-HRB   +HRBID      DS    H                   USER ID FIELD FROM COMMAND
 000002                            11382  1 01-HRB   +HRBLEN     DS    H                   RESPONSE TEXT LENGTH
                                   11383  1          +
 000004                            11384  1 01-HRB   +HRBFLAGS   DS    X                   FLAG BYTE
                                   11385  1 01-HRB   +HRBERVRB   EQU   X'80'               UNKNOWN VERB OR SET/SHOW OPTION
                                   11386  1 01-HRB   +HRBERSYN   EQU   X'40'               SYNTAX ERROR/UNKNOWN KEYWORD
                                   11387  1 01-HRB   +HRBERSEM   EQU   X'20'               SEMANTIC ERROR DETECTED
                                   11388  1 01-HRB   +HRBBUF     EQU   X'10'               FETCH BUFFER (0 -> MSG LINE)
                                   11389  1 01-HRB   +HRBLAST    EQU   X'08'               LAST HRB FOR CURRENT COMMAND
                                   11390  1 01-HRB   +HRBINFO    EQU   X'02'               ACCT & JOBID INFO PROVIDED
                                   11391  1 01-HRB   +HRBPRINT   EQU   X'01'               BUFFER IS PRINT DATA
                                   11392  1          +
 000005                            11393  1 01-HRB   +HRBFLAG2   DS    X                   Flag byte #2
                                   11394  1 01-HRB   +HRBFOPTJ   EQU   X'80'               - Fetch lines spooled with OPT=J
                                   11395  1 01-HRB   +HRBFENDP   EQU   X'40'               - End of current print page
                                   11396  1 01-HRB   +HRBFMANL   EQU   X'20'               - End of manual feed page
                                   11397  1          +
 000006                            11398  1 01-HRB   +           DS    XL3                 Reserved
 000009                            11399  1 01-HRB   +HRBACCT    DS    CL5                 BATCH JOB ACCT FOR LOC RESPONSE
 00000E                            11400  1 01-HRB   +HRBERRID   DS    CL8                 ERROR ID
 000016                            11401  1 01-HRB   +HRBTEXT    DS    0X                  TEXT START
 000016                00016 00016 11402                       END
1JES      (JES2010) (12:47) (15MAR04) DSECTS                                                                                Page   15
0Current Usings:  (CP,R11) (CV,R12)
0Loc    Object Code    Addr1 Addr2  Stmt Lv Lineno    Source Statement           (Hibal 5, Asmedit 3.3)  HLASM R4.0  2004/03/15 12.47
+___    ______ ____    _____ _____  ____ __ ______    ______ _________
0000000                00000 00258 11412              JWA      RECORD BEGIN
                                   11420  1                      XSA   R2,R8
 000000 0000000000000000           11421  1 01-XSA   +           DC    (R8+2-(R2))A(0)
                                   11422  1
 000020                            11423  1           JWASTRT    DS    0X
 000020                            11424  1           JWAFLG     DS    X                   JWA flags
                                   11425  1           JWAATTN    EQU   X'80'               Processing break flag
                                   11426  1           * the following flags are set by "buffer" routine, and examined
                                   11427  1           *  by the "typebufr" routine:
                                   11428  1           JWAFTRNC   EQU   X'40'               Truncated response
                                   11429  1           JWAFNMPG   EQU   X'20'               Out of pages
                                   11430  1
 000021                            11431  1           JWAFLG2    DS    X                   Second JWA flag
                                   11432  1           * See HRBFLAGS definitions for JWAFLG2
                                   11433  1           *
 000022                            11434  1           JWAFLG3    DS    X                   Third JWA flag
                                   11435  1           JWA3CPAS   EQU   X'40'
                                   11436  1           *                                  command (i.e., passed)
                                   11437  1           JWAF3MC    EQU   X'20'               MC option given on fetch
                                   11438  1           JWAF3CC    EQU   X'04'               CC option on fetch
                                   11439  1           JWA3ACTF   EQU   X'02'               Cmd can clear active (fetch)
                                   11440  1
 000023 00                         11441  1           JWAFLG4    FLAG  ,                   Fourth flag byte
 JWAFLG4.JWAFSCAN  80 ONES         11445  1                      FLAG  JWAFSCAN            - Scan cmd for wyl options
 JWAFLG4.JWAFDISP  40 ONES         11450  1                      FLAG  JWAFDISP            - Fetch display option
 JWAFLG4.JWAFSQSH  20 ONES         11455  1                      FLAG  JWAFSQSH            - Squash multiple blanks
 JWAFLG4.JWAFCCTL  10 ONES         11460  1                      FLAG  JWAFCCTL            - File has CC chars (mvs only)
 JWAFLG4.JWAFTAPP  08 ONES         11465  1                      FLAG  JWAFTAPP            - Append to end of active file
 JWAFLG4.JWAFNUM   04 ONES         11470  1                      FLAG  JWAFNUM             - Number (on fetch display)
 JWAFLG4.JWAFTRUN  02 ONES         11475  1                      FLAG  JWAFTRUN            - TRUNCATE FETCHED LINES
 JWAFLG4.JWAFLPR   01 ONES         11480  1                      FLAG  JWAFLPR             - Local printer data received
                                   11485  1
 000024                            11486  1           JWAHRBF2   DS    X                   Copy of HRBFLAG2
                                   11487  1
 000025                            11488  1           JWACC      DS    C                   CC (or MC) char
 000026                            11489  1           JWAOLDMC   DS    X                   Prev MC char (for CC conversion)
                                   11490  1
 000028                            11491  1           JWAPATHP   DS    F                   JES path ptr
 00002C                            11492  1           JWANBYTE   DS    F                   No. of pressed bytes
 000030                            11493  1           JWANRPL    DS    F                   No. of lines read
 000034                            11494  1           JWASKPC    DS    F                   No. of lines to skip
 000038                            11495  1           JWATO      DS    F                   Starting line-number for fetch
 00003C                            11496  1           JWABY      DS    F                   Delta for fetch
 000040                            11497  1           JWACMD     DS    F                   Command pointer
 000044                            11498  1           JWACMDL    DS    F                   Command length
 000048                            11499  1           JWAFTLEN   DS    H                   Length of fetch truncation
 00004C                            11500  1           JWAFTNUM   DS    F                   Fet display line# start
-000050                            11502  1           JWAFTPFX   DS    F,3X                Reserved for fetch
                                   11503  1           *                                  be-blocking space
                                   11504  1           *
 000058                            11505  1                      DS    0F
                                   11506  1           JWABLKB    DS    XL(&PRESSZ)         Shadow buffer, options to blank
1JES      (JES2010) (12:47) (15MAR04) DSECTS                                                                                Page   16
0Current Usings:  (CP,R11) (CV,R12)
0Loc    Object Code    Addr1 Addr2  Stmt Lv Lineno    Source Statement           (Hibal 5, Asmedit 3.3)  HLASM R4.0  2004/03/15 12.47
+___    ______ ____    _____ _____  ____ __ ______    ______ _________
0000058                                   1          +JWABLKB    DS    XL(256)             Shadow buffer, options to blank
 000158                            11507  1           JWABUF     DS    0F                  Start of work buffer
                                   11508  1                      DS    XL(&PRESSZ)         Must be able to hold pressed line
 000158                                   1          +           DS    XL(256)             Must be able to hold pressed line
 000258                00258 00158 11509  1                      ORG   JWABUF
                                   11510  1           * the HCB is built in the JWA work buffer, the following
                                   11511  1           * fields are defined so that they can be used when the HCB
                                   11512  1           * has been built.
 000158                            11513  1           HRDWSTRT   DS    0F                  Start of suzan rdw
 000158                            11514  1           HRDWLEN    DS    H'0'                Length of transaction
 00015A                            11515  1                      DS    2X'0'               Rdw flags
                                   11516  1                      HCB   ,
 00015C                            11517  1 01-HCB   +HCB        DS    0H                  HASP EXTERNAL COMMAND BLOCK
                                   11518  1          +*
                                   11519  1          +*        INPUT HALF OF EXTERNAL COMMAND INTERFACE THROUGH SUZAN
                                   11520  1          +*        USED BY WYLBUR AND BATCH JOBS.
                                   11521  1          +*
 00015C                            11522  1 01-HCB   +HCBID      DS    H                   USER ID FIELD
 00015E                            11523  1 01-HCB   +HCBLEN     DS    H                   COMMAND TEXT LENGTH
                                   11524  1          +*
                                   11525  1          +* The following field can contain either the jobname or
                                   11526  1          +* 4 halfwords containing the last 4 job numbers submitted
                                   11527  1          +* by the user - the HCBJOBNO flag indicates which.
                                   11528  1          +*
 000160                            11529  1 01-HCB   +HCBJOBNM   DS    CL8                 SAVED OR CURRENT JOBNAME
 000168                            11530  1 01-HCB   +           DS    XL3                 ** UNUSED **
 00016B                            11531  1 01-HCB   +HCBCNTRL   DS    X                   CONTROL HCB OPERATION CODE
 00016C                            11532  1 01-HCB   +HCBFLAGS   DS    X                   FLAG BYTE
 00016D                            11533  1 01-HCB   +HCBFGBL    DS    X                   GLOBAL HASP COMMAND OPTIONS
 00016E                            11534  1 01-HCB   +HCBIFLGS   DS    X                   USER-RELATED PRIVILEGE FLAGS
 00016F                            11535  1 01-HCB   +HCBAFLGS   DS    X                   ACCOUNT-RELATED FLAGS
 000170                            11536  1 01-HCB   +HCBUSER1   DS    CL7                 USER ACCOUNT #1   (FROM SIGNON)
 000177                            11537  1 01-HCB   +HCBUSER2   DS    CL7                 USER ACCOUNT #2
 00017E                            11538  1 01-HCB   +HCBUSER3   DS    CL7                 USER ACCOUNT #3
 000185                            11539  1 01-HCB   +HCBSPARE   DS    12X                 (RESERVED)
 000191                            11540  1 01-HCB   +HCBTEXT    DS    0X                  COMMAND TEXT START
                                   11541  1 01-HCB   +HCBTEXTL   EQU   120                 MAXIMUM COMMAND LENGTH
                                   11542  1          +*
                                   11543  1          +*        HCBFLAGS DEFINITIONS
                                   11544  1          +*
                                   11545  1 01-HCB   +HCBCMD     EQU   X'80'               COMMAND HCB
                                   11546  1 01-HCB   +HCBJOBNO   EQU   X'40'               HCBJOBNM contains job numbers
                                   11547  1          +*        EQU   X'20'               ** UNUSED **
                                   11548  1 01-HCB   +HCBNRESP   EQU   X'10'               NO RESPONSE SOLICITED
                                   11549  1 01-HCB   +HCBBATCH   EQU   X'08'               BATCH JOB PROCESSING OPTION
                                   11550  1 01-HCB   +HCBFLOW    EQU   X'04'               FLOW CONTROL REQUESTED
                                   11551  1          +*
                                   11552  1          +*        HCBFGBL DEFINITIONS
                                   11553  1          +*
                                   11554  1 01-HCB   +HCBTERSE   EQU   X'80'               GLOBAL TERSE IN EFFECT
                                   11555  1          +*
                                   11556  1          +*        HCBCNTRL - CONTROL HCB OPERATION CODES
                                   11557  1          +*
                                   11558  1 01-HCB   +HCB#NEXT   EQU   1                   SEND NEXT RESPONSE
1JES      (JES2010) (12:47) (15MAR04) DSECTS                                                                                Page   17
0Current Usings:  (CP,R11) (CV,R12)
0Loc    Object Code    Addr1 Addr2  Stmt Lv Lineno    Source Statement           (Hibal 5, Asmedit 3.3)  HLASM R4.0  2004/03/15 12.47
+___    ______ ____    _____ _____  ____ __ ______    ______ _________
0                                  11559  1 01-HCB   +HCB#ABRT   EQU   2                   ABORT TRANSACTION
                                   11560  1 01-HCB   +HCB#PRNT   EQU   3                   PRINTER PROGRAM CONTROL INFO
-                                  11562  1           JWAWL      EQU   HCBTEXT-JWA         Fixed portion of JWA
 000191                            11563  1           JWATEXT    DS    XL168               Command/response buffer
 000239                00239 00258 11564  1                      ORG
                                   11565  1           JWABUFL    EQU   *-JWABUF            Length of work buffer
                                   11566  1           JWADATA    EQU   JWASTRT,*-JWASTRT,C'X'
                                   11567  1
 000258                00258 00050 11568  1                      ORG   JWAFTPFX
 000050                            11569  1           FTSTART    DS    0F
 000050                            11570  1                      DS    F,3X                Reserved for others
 000057                            11571  1           FTHMC      DS    X                   MC/CC char
 000058                            11572  1           FTHCNT     DS    X                   Count byte
 000059                            11573  1           FTHWA      DS    0X                  Edit text (if any)
 000059                00059 00050 11574  1                      ORG   FTSTART
0                                  11576  1           *  Modified for MC/CC.
 000050                            11577  1           FTMCLNO    DS    F                   Lineno
 000054                            11578  1           FTMCCNT    DS    X                   Count byte
 000055                            11579  1           FTMCCTL    DS    X                   Control byte (for dummy MC/CC char)
 000056                            11580  1           FTMCMC     DS    X                   MC/CC char
 000057                            11581  1           FTMCWA     DS    0X                  Edit text (if any)
 000057                00057 00050 11582  1                      ORG   FTSTART
0                                  11584  1           * modified for standard wylbur edit format (no MC/CC char)...
 000050                            11585  1                      DS    F                   Reserved for others
 000054                            11586  1           FTWLNO     DS    F                   Lineno
 000058                            11587  1           FTWCNT     DS    X                   Count byte
 000059                            11588  1           FTWWA      DS    0X                  Edit text (if any)
 000059                00059 00258 11589  1                      ORG
 000258                00258 00258 11590                       END
1JES      (JES2010) (12:47) (15MAR04) JES Initialization Routine                                                            Page   18
0Current Usings:  (CP,R11) (CV,R12)
0Loc    Object Code    Addr1 Addr2  Stmt Lv Lineno    Source Statement           (Hibal 5, Asmedit 3.3)  HLASM R4.0  2004/03/15 12.47
+___    ______ ____    _____ _____  ____ __ ______    ______ _________
0                                  11600
                                   11601
                                   11602                JESINIT -- This routine is called at WYLBUR initialization to
                                   11603                     perform various JES initialization tasks.  Currently,
                                   11604                     the INTRDR (for job submission) and the command path(s)
                                   11605                     (for fetch,locate,etc.) are initialized here.
                                   11606

0000016 50E0 D000/9008_      00000 11607              JESINIT  XPROC
 USING  *,R7
 000030 1B00/181D/1BFF_            11647                       HASPSERV JOBACCT,@R13     Get WYLBUR's account
 000038 12FF/4770 7014_            11664                       IF    (R15,Z),'MVC CVWYLACC,@R13'
 000044 4100 0001/181D_      00001 11684                       HASPSERV JOBINFO,@R13     Get WYLBUR's jobno
 00004E 12FF/4770 702A_            11704                       IF    (R15,Z),'MVC CVWYLJBN,@R13'
                                   11724
 00005A 5860 C73C            0073C 11725                       L     R6,CVTCBP
 00005E 5860 60B4            000B4 11726                       L     R6,@R6+180          TCBJSCBP
 000062 5860 613C            0013C 11727                       L     R6,@R6+316          JSCBSSIB  (our SSIB)
 USING  SSIB,R6                    11728                       WITH  (SSIB,R6),BEGIN
 000066 D203 C05D 6010 0005D 00010 11742  1                      MVC   CVWYLJBN,SSIBJBID+4  Job number
 00006C D203 C014 C4D8 00014 004D8 11743  1                      MVC   CVJES,CVBLANKS
 000072 D203 C014 6008 00014 00008 11744  1                      MVC   CVJES(4),SSIBSSNM   Save JES "subsys" name
 DROP   SSIB,R6                    11745                       END
                                   11753
 000078 9180 C4C6/4710_004C6       11754                       IF    CVFNOR,JINEXIT      Don't bother init'ing JES
                                   11772
                                   11773                         Allocate fewer JES command paths for test systems.
                                   11774                           The HCM resource control blocks are pre-allocated;
                                   11775                           so we take a few of them off the free queue before
                                   11776                           opening the pathes.  It could be a lot more dynamic.
                                   11777
 000080 9102 C4C5/47E0_004C5       11778                       IF    CVFTEST,BEGIN       Test system...
 000088 D505 7360 C028_00390 00028 11793  1                      IF    (CVWYLSSN,EQ,'WYLBUR'),EXIT
 000092 D506 737A C028_003AA 00028 11813  1                      IF    (CVWYLSSN,EQ,'TESTWYL'),EXIT
 00009C D506 7381 C028_003B1 00028 11833  1                      IF    (CVWYLSSN,EQ,'SERVWYL'),EXIT
 0000A6 D505 7366 C028_00396 00028 11853  1                      IF    (CVWYLSSN,EQ,'DEVWYL'),EXIT
 0000B0 5830 C1C8            001C8 11873  1                      L     R3,CVCURJCB         Get "current" JCB field (zeros)
 0000B4 D203 C1C8 C1C0 001C8 001C0 11874  1                      MVC   CVCURJCB,CVFJCB     First JCB (placate GETRSC)
                                   11875  1
 0000BA 4120 000C            0000C 11876  1                      LA    R2,12               Test systems have 12 less paths
 0000BE 1222/47D0 70AA             11877  1                      WHILE (R2,POS),BEGIN      Go through paths...
 0000C4 4110 0007/1B00_      00007 11893  2                        GETRSC HCM,WAIT=NO        Get HCMRSC
 0000D4 0620                       11910  2                        DECR  R2                  One less
 0000D6 47F0 708E            000BE 11912  1                      END
                                   11917  1
 0000DA 5030 C1C8            001C8 11918  1                      ST    R3,CVCURJCB         Restore original CVCURJCB
 0000DE                            11919                       END
                                   11923
                                   11924                         Now open all JES command paths.
                                   11925
 0000DE 5860 733C            0036C 11926                       L     R6,=V(HCMRSG)       JES path resource groups
 0000E2 4140 601C            0001C 11927                       WITH  (RSCGROUP,R6),'LA R4,RSGQFRFW-(RSC@NEXT-RESOURCE)'
 USING  RSCGROUP,R6
1JES      (JES2010) (12:47) (15MAR04) JES Initialization Routine                                                            Page   19
0Current Usings:  (*,R7) (CP,R11) (CV,R12)
0Loc    Object Code    Addr1 Addr2  Stmt Lv Lineno    Source Statement           (Hibal 5, Asmedit 3.3)  HLASM R4.0  2004/03/15 12.47
+___    ______ ____    _____ _____  ____ __ ______    ______ _________
0DROP   RSCGROUP,R6
 0000E6 1824                       11951                       LR    R2,R4               Dummy first link
 USING  RESOURCE,R2                11952                       USING RESOURCE,R2
 0000E8 5820 2000/1942_      00000 11961                       WHILE ('L R2,RSC@NEXT; CR R4,R2',NE),BEGIN
 DROP   RESOURCE,R2                11977  1                      WITH  (HCMRSC,R2)
 USING  HCMRSC,R2
 0000F2 D203 2028 C014 00028 00014 11993  1                      MVC   HCMPYOU(4),CVJES    Yourtag=<JES2>CONS
 0000F8 D207 2020 C028 00020 00028 11994  1                      MVC   HCMPMY,CVWYLSSN     Mytag=subsys  (WYLBUR)
 0000FE D203 2034 7340 00034 00370 11995  1                      MVC   HCMPBUF,=F'8192'    Buffer size
 000104 4110 2018            00018 11996  1                      LA    R1,HCMPATH          Path ptr
 000108 5010 D000            00000 11997  1                      ST    R1,@R13             Build param list
 00010C 9680 D000      00000       11998  1                      SET   @R13.X'80'          End of list
 000110 1B00/1BFF/181D_            12005  1                      SCOM  OPEN,(R13)          Open path
 000118 12FF/4780 7106_            12020  1                      FAIL  (R15,NZ),JESPERR,'JES path open error.'
 000136 9640 2053      00053       12046  1                      SET   HCMFPND             Open in pending
 00013A 47F0 70B8            000E8 12052                       END
 DROP   HCMRSC,R2
 USING  RESOURCE,R2
 DROP   RESOURCE,R2                12069                       DROP  RESOURCE
                                   12077
                                   12078                         Attach job submission subtask.
                                   12079
 00013E 5810 7344            00374 12080                       L     R1,=A(SUBMIT)       Identify submit EP
 000142 4500 711E/E2E4_      0014E 12081                       IDENTIFY EP=SUBMIT,ENTRY=(1)
 000150 5860 7348            00378 12086                       L     R6,=V(SUBRSG)       Submit resource group
 USING  RSCGROUP,R6                12087                       WITH  (RSCGROUP,R6),BEGIN
 000154 4140 601C            0001C 12101  1                      LA    R4,RSGQFRFW-(RSC@NEXT-RESOURCE)
 000158 5830 4000            00000 12102  1                      WITH  (RESOURCE,R4),'L R3,RSC@NEXT'
 USING  RESOURCE,R4
 DROP   RESOURCE,R4
 00015C D701 600C 600C 0000C 0000C 12126  1                      CLEAR RSG#FREE            Init may change free count
 000162 1934/4780 71EE             12133  1           SUBRSCLP   WHILE (R3,NE,R4),BEGIN
 000168 1823                       12151  2                        LR    R2,R3               Base for resource
 USING  SUBRSC,R2                  12152  2                        WITH  (SUBRSC,R2)
 00016A 4100 0001/4A00_      00001 12165  2                        INCR  R0,RSG#FREE         Bump free count
 000176 5830 2000            00000 12171  2                        L     R3,SUB@NEXT         Next resource pointer
                                   12172  2
 00017A 4150 203C            0003C 12173  2                        LA    R5,SUBACB           -->ACB
 00017E 0700/4510 7158_            12174  2                        OPEN  ((R5))              Open submit path
 000192 9110 5030      00030       12181  2                        TM    ACBOFLGS-IFGACB(R5),ACBOPEN   ACB open?
                                   12182  2           *  If it can't be opened, drop the resource.
 000196 4770 7182            001B2 12183  2                        IF    Z,BEGIN
 00019A 4110 2000/58E0_      00000 12194  3                          DQRSC SUB                 Delete resource
 0001A4 4800 600C/0600_      0000C 12206  3                          DECR  R0,RSG#FREE
 0001AE 47F0 7132            00162 12211  3                          NEXT  SUBRSCLP
 0001B2                            12214  2                        END
 0001B2 4150 2024            00024 12218  2                        LA    R5,SUBTECB
                                   12219  2           *  NOTE:  The address of the resource is stored in the resource.
                                   12220  2           *  This prevents synch problems between main task and subtask.
 0001B6 4110 202C/41F0_      0002C 12221  2                        ATTACH EP=SUBMIT,ECB=(R5),MF=(E,SUBRADDR)  Fire up subtask
 000216 5010 2020            00020 12258  2                        ST    R1,SUBTCB
 00021A 47F0 7132            00162 12259  1                      END   SUBRSCLP
 DROP   SUBRSC,R2
 DROP   RSCGROUP,R6                12269                       END
1JES      (JES2010) (12:47) (15MAR04) JES Initialization Routine                                                            Page   20
0Current Usings:  (CP,R11) (CV,R12)
0Loc    Object Code    Addr1 Addr2  Stmt Lv Lineno    Source Statement           (Hibal 5, Asmedit 3.3)  HLASM R4.0  2004/03/15 12.47
+___    ______ ____    _____ _____  ____ __ ______    ______ _________
000021E 18D8/9808 D004_            12277              JINEXIT  PEND  ,
 DROP   *,R7
1JES      (JES2010) (12:47) (15MAR04) JES Initialization Routine                                                            Page   21
0Current Usings:  (CP,R11) (CV,R12)
0Loc    Object Code    Addr1 Addr2  Stmt Lv Lineno    Source Statement           (Hibal 5, Asmedit 3.3)  HLASM R4.0  2004/03/15 12.47
+___    ______ ____    _____ _____  ____ __ ______    ______ _________
0                                  12299
                                   12300
                                   12301                JESSTOP -- Routine to shutdown JES communications normally.
                                   12302

000022C 50E0 D000/9008_      00000 12303              JESSTOP  XPROC ,
 USING  *,R7
 000246 5860 7132            00378 12343                       L     R6,=V(SUBRSG)       Submit resource group
 USING  RSCGROUP,R6                12344                       WITH  (RSCGROUP,R6),BEGIN
 00024A 4140 601C            0001C 12358  1                      LA    R4,RSGQFRFW-(RSC@NEXT-RESOURCE)
 00024E 5830 4000            00000 12359  1                      WITH  (RESOURCE,R4),'L R3,RSC@NEXT'
 USING  RESOURCE,R4
 DROP   RESOURCE,R4
 000252 1934/4780 7042             12383  1                      WHILE (R3,NE,R4),BEGIN
 000258 1823                       12400  2                        LR    R2,R3               Base for resource
 USING  SUBRSC,R2                  12401  2                        WITH  (SUBRSC,R2)
 00025A 5830 2000            00000 12414  2                        L     R3,SUB@NEXT         Next resource pointer
 00025E D603 2020 2020_00020 00020 12415  2                        IF    (SUBTCB,NZ),BEGIN   Shutdown the submission subtask...
 000268 4110 2020/0A3E       00020 12431  3                          DETACH SUBTCB
 00026E 4100 0001/4110_      00001 12436  3                          WAIT  ECB=SUBTECB         Wait for subtask to go away
 000278 D703 2020 2020_00020 00020 12443  3                          CLEAR SUBTCB,SUBTECB
 000284                            12455  2                        END
 000284 47F0 700C            00252 12459  1                      END
 DROP   SUBRSC,R2
 DROP   RSCGROUP,R6                12469                       END
 000288 18D8/9808 D004_            12477                       PEND  ,
 DROP   *,R7
1JES      (JES2010) (12:47) (15MAR04) JES Health Check Routine                                                              Page   22
0Current Usings:  (CP,R11) (CV,R12)
0Loc    Object Code    Addr1 Addr2  Stmt Lv Lineno    Source Statement           (Hibal 5, Asmedit 3.3)  HLASM R4.0  2004/03/15 12.47
+___    ______ ____    _____ _____  ____ __ ______    ______ _________
0                                  12498
                                   12499
                                   12500                JESOK -- Routine to check JES health and only return if
                                   12501                  everything is ok.
                                   12502

0000296 50E0 D000/9008_      00000 12503              JESOK    PROC  ,
 USING  *,R7
 0002B0 58E0 70D0/0DEE       00380 12542                       ACALL JESCHK              Well?
 0002B6 4780 7046            002F6 12546                       IF    NZ,BEGIN            No JES...
 0002BA 4110 7108/4100_      003B8 12557  1                      TSEG  'Command can not be executed because',,B
 0002CC 4110 C014/4100_      00014 12575  1                      SETMSG CVJES
 0002D4 58E0 70D8/0DEE       00388 12589  1                      VCALL LRTRIM
 0002DA 41F0 B050/58E0_      00050 12593  1                      TSEG  (R1),(R0),B
 0002E4 D207 B886 70B0_00886 00360 12617  1                      ABORT 'is not active.',,NOJES
 0002F6                            12625                       END
 0002F6 18D8/9808 D004_            12629                       PEND
 DROP   *,R7
1JES      (JES2010) (12:47) (15MAR04) JES Health Check Routine                                                              Page   23
0Current Usings:  (CP,R11) (CV,R12)
0Loc    Object Code    Addr1 Addr2  Stmt Lv Lineno    Source Statement           (Hibal 5, Asmedit 3.3)  HLASM R4.0  2004/03/15 12.47
+___    ______ ____    _____ _____  ____ __ ______    ______ _________
0                                  12650
                                   12651
                                   12652                JESCHK -- Routine to check to see if JES2 is alive and well.
                                   12653
                                   12654                  On exit, R15 (and CC):
                                   12655                    0 - ok
                                   12656                    4 - JES2 is not active
                                   12657

0000304 50E0 D000/9008_      00000 12658              JESCHK   PROC  ,
 USING  *,R7
 00031E 1BFF                       12697                       CLEAR R15                 Assume healthy
                                   12701
 000320 5860 0010            00010 12702                       L     R6,CVTPTR
 000324 5850 60CC            000CC 12703                       WITH  (CVT,R6),'L R5,CVTUSER'  SCIP CVT ptr
 USING  CVT,R6
 DROP   CVT,R6
 000328 1255/4780 702E             12727                       IF    (R5,NZ),BEGIN
 USING  USERCVT,R5                 12741  1                      WITH  (USERCVT,R5)
 00032E D503 706E 5000_0038C 00000 12754  1                      IF    (USERCVT,NE,'SCIP'),EXIT
 000338 9180 5005/47E0_00005       12774  1                      IF    ~USESYSFL.USEFJES2,EXIT  Not Stanford JES2, assume OK
 000340 9102 5004/4710_00004       12793  1                      IF    ~USEHSPFL.HSPFJES,'LA R15,4'  JES2 is down
 DROP   USERCVT,R5                 12815                       END
 00034C 18D8/9808 D004_            12824                       PEND
 DROP   *,R7
                                   12844
                                   12845                       QLTORG
1JES      (JES2010) (12:47) (15MAR04) FETCH Command                                                                         Page   24
0Current Usings:  (CP,R11) (CV,R12)
0Loc    Object Code    Addr1 Addr2  Stmt Lv Lineno    Source Statement           (Hibal 5, Asmedit 3.3)  HLASM R4.0  2004/03/15 12.47
+___    ______ ____    _____ _____  ____ __ ______    ______ _________
0                                  12875
                                   12876
                                   12877                FETCH -- FETCH command.
                                   12878

00003DC 50E0 D000/9008_      00000 12879              FETCH    XPROC JWA
 USING  *,R7
 USING  JWA-(4+36),R8
 0003F6 4160 8028            00000 12930                       LA    R6,JWA
 USING  JWA,R6                     12931                       USING JWA,R6              Set JWA ptr
 0003FA 5060 BD74            00D74 12940                       ST    R6,CPJWA
                                   12941
 0003FE 58E0 7C32/0DEE       01028 12942                       ACALL JESOK               Make sure JES is healthy
                                   12946
 000404 4110 B242/4800_      00242 12947                       SETMSG CPCMD,LH:CPCMDLEN
 00040C 58E0 7C36/0DEE       0102C 12960                       ACALL JWAINIT             Set up JES work area
 000412 D201 B240 615E 00240 0015E 12964                       MVC   CPCMDLEN,HCBLEN     Cmd len could have been adjusted
 000418 D203 6038 7C3A 00038 01030 12965                       MVC   JWATO,=F'-1'
 00041E D203 603C B738 0003C 00738 12966                       MVC   JWABY,CPDELTA
 000424 58E0 7C3E/0DEE       01034 12967                       ACALL ZEROBLKB
 00042A 5810 6040/5800_      00040 12971                       SCINIT L:JWACMD,L:JWACMDL
 000440 5810 B08C/1B00_      0008C 12993                       SCAN  ,                   (fetch)
 00048E 58E0 7C46/0DEE       0103C 13024                       SCANCHK
 000494 58E0 7C4A/0DEE       01040 13029                       ACALL MARKBLKB
 00049A 5810 B08C/1B00_      0008C 13033                       SCAN  ,                   (jobname)
 0004E8 58E0 7C46/0DEE       0103C 13064                       SCANCHK
 0004EE 1200/4780 C7F0             13069                       IF    (R0,Z),CVABSENT
 0004F4 58E0 7C4A/0DEE       01040 13086                       ACALL MARKBLKB
 0004FA 5810 B08C/1B00_      0008C 13090                       SCAN  FETPRT              Fetch options
 00054C 58E0 7C46/0DEE       0103C 13122                       SCANCHK
 000552 58E0 7C52/0DEE       01048 13127                       ACALL DOBLKB              Blank out non-JES options
 000558 5810 6038/1211       00038 13131                       LT    R1,JWATO            Start here
 00055E 47B0 71C8            005BE 13135                       IF    NEG,BEGIN           Figure it out...
 000562 9108 6023/47E0_00023       13146  1                      IF    JWAFTAPP,BEGIN      Append to end ...
 00056A 5800 B5A4            005A4 13161  2                        L     R0,CPALLNO          R0 holds last line number
 00056E 5810 603C            0003C 13162  2                        L     R1,JWABY            R1 holds delta
 000572 58E0 7C56/0DEE       0104C 13163  2                        VCALL ADDER               Compute next line number
 000578 1200/4740 718C_            13167  2                        IF    ('LTR R0,R0',NM),'LR R1,R0; CLEAR R0'
 000582                            13190  1                      END
 000582 7190/47F0 719C 00582 00568 13194  1                      ELSE  BEGIN
 000586 5810 6034            00034 13205  2                        L     R1,JWASKPC          Use skip count
 00058A 4A10 7CD0            010C6 13206  2                        AH    R1,=H'1'            ... plus one
 00058E 5C00 603C            0003C 13207  2                        M     R0,JWABY            Times delta
 000592                            13208  1                      END
 000592 1200/4770 71AA_            13212  1                      IF    ((R0,NZ),OR,(R1,LGT,CVMAXLNO)),BEGIN
 0005A0 4110 7CD2/4100_      010C8 13242  2                        TSEG  'No lines fetched, '
 0005B2 4110 7CF6/4100_      010EC 13260  2                        ERROR 'line-number too big (specify BY).'
 0005BE                            13267  1                      END
 0005BE 71CC/47F0 71F2 005BE 00560 13271                       END   ELSE,BEGIN
 0005C2 9108 6023/47E0_00023       13286  1                      IF    JWAFTAPP,BEGIN
 0005CA 4110 7D17/4100_      0110D 13301  2                        TSEG  'No lines fetched,',,B
 0005DC 4110 7C62/4100_      01058 13319  2                        ERROR '"APPEND" and "TO" operands conflict.'
 0005E8                            13326  1                      END
1JES      (JES2010) (12:47) (15MAR04) FETCH Command                                                                         Page   25
0Current Usings:  (JWA,R6) (*,R7) (JWA-(4+36),R8) (CP,R11) (CV,R12)
0Loc    Object Code    Addr1 Addr2  Stmt Lv Lineno    Source Statement           (Hibal 5, Asmedit 3.3)  HLASM R4.0  2004/03/15 12.47
+___    ______ ____    _____ _____  ____ __ ______    ______ _________
00005E8                            13330                       END
 0005E8 5010 BE14            00E14 13334                       ST    R1,CPWKPS           Save starting line-number
 0005EC 58E0 7C86/0DEE       0107C 13335                       ACALL CHKKEY              Do any kw checking
                                   13339
 0005F2 9140 6023/4710_00023       13340                       IF    (~JWAFDISP,AND,~JWAFTAPP),BEGIN
 000602 58E0 7C8A/0DEE       01080 13369  1                      VCALL CLRTEXT             Clear/Keep
 000608 D207 B588 7BA2 00588 00F98 13373  1                      MVC   CPANAME,=CL8'FETCHED'  Set Active name
 00060E D24F B5D6 7BAA 005D6 00FA0 13374  1                      MVC   CPATITL,=CL(L'CPATITL)'Fetched job output'
 000614 9620 BD54      00D54       13375  1                      SET   CPLFLG5.CPFNLST     (In case LSLNMSGA abort)
 000618                            13382                       END
                                   13386
 000618 58E0 7C8E/0DEE       01084 13387                       ACALL JESIOPN             Open command path
 00061E 58E0 7C92/0DEE       01088 13391                       ACALL JESCOM              Send command to JES
 000624 4780 7256            0064C 13395                       IF    NZ,BEGIN
 000628 4110 7BFA/4100_      00FF0 13406  1                      TSEG  'Unable to process FETCH command,',,B
 00063A D207 B886 7C1A_00886 01010 13424  1                      ABORT 'path not active.',,JESDOWN
 00064C                            13432                       END
                                   13436
 00064C 58F0 C1C8            001C8 13437              MFETLP   L     R15,CVCURJCB
 000650 9102 F062/4710_00062       13438                       WITH  (JCB,R15),'IF JCBFATTN,MFETABRT'  User hit BREAK
 USING  JCB,R15
 DROP   JCB,R15
 000658 58E0 7C96/0DEE       0108C 13479                       ACALL JESRD               Get a response line
 00065E 4720 748C            00882 13483                       BP    MFETEOF             Normal end of file
 000662 4740 7442            00838 13484                       BM    MFETABRT            Terminated by BREAK
                                   13485
 000666 9110 6021/4710_00021       13486                       IF    ~JWAFLG2.HRBBUF,BEGIN  Text response...
 00066E 41F0 B050/58E0_      00050 13502  1                      TSEG  (R1),(R0),CR
 000678 4770 7442            00838 13526  1                      BNZ   MFETABRT
 00067C 58E0 7C9E/0DEE       01094 13527  1                      PFREE PAR                 (Avoids STOW interactions)
 000682 47F0 7256            0064C 13533  1                      B     MFETLP
 000686                            13534                       END
                                   13538
 000686 4120 6158            00158 13539                       LA    R2,JWABUF
 00068A 5900 7CA2/47D0_      01098 13540                       CEIL  R0,&LINESZ          Not too much
 000696 1830                       13559                       LR    R3,R0
                                   13560
 000698 9124 6022/4780_00022       13561                       IF    JWAFLG3.JWAF3CC+JWAF3MC,BEGIN  CC or MC...
 0006A0 D200 2000 6025 00000 00025 13580  1                      MVC   @R2(1),JWACC           Add CC char
 0006A6 5900 7CA6/47D0_      0109C 13581  1                      CEIL  R0,&LINESZ-1        Max text length (excl CC/MC)
 0006B2 1830                       13600  1                      LR    R3,R0
                                   13601  1
 0006B4 9104 6022/47E0_00022       13602  1                      IF    (JWAFLG3.JWAF3CC,AND,~JWAFCCTL),BEGIN  Convert...
 0006C4 9102 6025/47E0_00025       13632  2                        IF    JWACC.X'02',BEGIN   Immediate operation...
 0006CC 9509 6026/4770_00026       13648  3                          IF    (JWAOLDMC,EQ,X'09'),BEGIN  Clean-up after QSAM...
 0006D4 950B 6025/4780_00025       13665  4                            IF    (JWACC,EQ,X'0B'),EXIT  Can't forward merge
 0006DC 9513 6025/4780_00025       13685  4                            IF    (JWACC,EQ,X'13'),EXIT
 0006E4 951B 6025/4780_00025       13705  4                            IF    (JWACC,EQ,X'1B'),EXIT
 0006EC 9200 6026      00026       13725  4                            CLEAR JWAOLDMC
 0006F0                            13732  3                          END
 0006F0 9500 6026/4770_00026       13736  3                          IF    (JWAOLDMC,Z),BEGIN
 0006F8 D200 6026 6025 00026 00025 13752  4                            MVC   JWAOLDMC,JWACC      Save MC char
 0006FE 47F0 7256            0064C 13753  4                            B     MFETLP
 000702                            13754  3                          END
1JES      (JES2010) (12:47) (15MAR04) FETCH Command                                                                         Page   26
0Current Usings:  (JWA,R6) (*,R7) (JWA-(4+36),R8) (CP,R11) (CV,R12)
0Loc    Object Code    Addr1 Addr2  Stmt Lv Lineno    Source Statement           (Hibal 5, Asmedit 3.3)  HLASM R4.0  2004/03/15 12.47
+___    ______ ____    _____ _____  ____ __ ______    ______ _________
0000702 1B00/1B33                  13758  3                          CLEAR R0,R3               No data for immediate MC
 000706                            13764  2                        END
 000706 94FD 6026      00026       13768  2                        CLEAR JWAOLDMC.X'02'      Clear immediate bit
 00070A 1FFF/43F0 6026             13776  2                        LC    R15,JWAOLDMC        Previous MC char
 000710 D200 6026 6025 00026 00025 13783  2                        MVC   JWAOLDMC,JWACC      Save this MC char for next time
 000716 1200/4770 732E_            13784  2                        IF    ((R0,Z),AND,(R15,EQ,X'01')),MFETLP  Write no space
 000724 41FF 7D76            0116C 13817  2                        LA    R15,MCTOCC(R15)
 000728 D200 2000 F000 00000 00000 13818  2                        MVC   @R2(1),@R15            CC char
 00072E                            13819  1                      END
                                   13823  1
 00072E 733C/733C/47F0_0072E 006BA 13824  1                      ELSE  BEGIN               No conversion...
 000732 9104 6022/47E0_00022       13837  2                        IF    JWAFLG3.JWAF3CC,BEGIN  Check out CC char...
 00073A 9500 2000/4770_00000       13853  3                          IF    (@R2,EQ,X'00'),'MVI @R2,C" "'  Change X'00' to blank
 000746                            13875  2                        END
 000746 9209 6026      00026       13879  2                        MVI   JWAOLDMC,X'09'
 00074A                            13880  1                      END
                                   13884  1
 00074A 4120 2001            00001 13885  1                      LA    R2,@R2+1            Skip past CC char
 00074E 4A00 7CD0            010C6 13886  1                      AH    R0,=H'1'            Kick line length
 000752                            13887                       END
                                   13891
 000752 9180 6024/47E0_00024       13892                       IF    JWAHRBF2.HRBFOPTJ,BEGIN  Data has TRC characters...
 00075A 9124 6022/4770_00022       13908  1                      IF    JWAFLG3.JWAF3CC+JWAF3MC,EXIT  Keep TRC char if CC/MC
 000762 4110 1001            00001 13930  1                      LA    R1,@R1+1            Skip past TRC char
 000766 0600                       13931  1                      DECR  R0                  ...adjust len
 000768 0630                       13933  1                      DECR  R3                  (ditto)
 00076A                            13935                       END
                                   13939
 00076A 0630/1233/4740_            13940                       MOVE  R3,@R2,@R1          Save text
 000776 4110 6158            00158 13978                       SETMSG JWABUF,(R0)        Response line
 00077A 9120 6023/47E0_00023       13991                       IF    JWAFSQSH,'VCALL SQSHRTN'  Squash multiple blanks
 000788 9102 6023/47E0_00023       14015                       IF    (JWAFTRUN,AND,(R0,GT,JWAFTLEN)),'LH R0,JWAFTLEN'
                                   14052
 00079C 9140 6023/47E0_00023       14053                       IF    JWAFDISP,BEGIN      Fetch display ...
 0007A4 9104 6023/47E0_00023       14068  1                      IF    JWAFNUM,BEGIN       Numbered fetch display
 0007AC 9001 D000/41D0_      00000 14083  2                        XPUSH R0,R1,*             Save R0,R1
 0007B4 5800 BE14            00E14 14086  2                        L     R0,CPWKPS           Load line number
 0007B8 58E0 7CB2/0DEE       010A8 14087  2                        VCALL CVEXNO              Convert it
 0007BE 5800 BE14            00E14 14091  2                        L     R0,CPWKPS           Load old line number
 0007C2 5810 603C            0003C 14092  2                        L     R1,JWABY            Load increment
 0007C6 58E0 7C56/0DEE       0104C 14093  2                        VCALL ADDER               Get next line
 0007CC 4740 7430            00826 14097  2                        BM    MFETBIG             (too high)
 0007D0 5000 BE14            00E14 14098  2                        ST    R0,CPWKPS           Save it
 0007D4 4BD0 7CE4/9801_      010DA 14099  2                        XPOP  R0,R1,*             Restore R0,R1
 0007DC D208 604C BC88 0004C 00C88 14102  2                        MVC   JWAFTNUM(9),CPDOUB  Move in
 0007E2 D201 6055 C4D8 00055 004D8 14103  2                        MVC   JWAFTNUM+9(2),CVBLANKS Line number
 0007E8 4110 604C            0004C 14104  2                        LA    R1,JWAFTNUM         R1 -> Line#/text
 0007EC 5A00 7CB6            010AC 14105  2                        A     R0,=F'11'           Add in length of line#
 0007F0                            14106  1                      END
 0007F0 41F0 B050/58E0_      00050 14110  1                      TSEG  (R1),(R0),CR        Display line
 0007FA 4770 748C            00882 14134  1                      BNZ   MFETEOF             (abort)
 0007FE 740C/47F0 742C 007FE 007A2 14135                       END   ELSE,BEGIN
 000802 58F0 BE14            00E14 14150  1                      L     R15,CPWKPS          Line-number to use
 000806 58E0 7CBA/0DEE       010B0 14151  1                      VCALL PUTLINE             Add line to Active file
1JES      (JES2010) (12:47) (15MAR04) FETCH Command                                                                         Page   27
0Current Usings:  (JWA,R6) (*,R7) (JWA-(4+36),R8) (CP,R11) (CV,R12)
0Loc    Object Code    Addr1 Addr2  Stmt Lv Lineno    Source Statement           (Hibal 5, Asmedit 3.3)  HLASM R4.0  2004/03/15 12.47
+___    ______ ____    _____ _____  ____ __ ______    ______ _________
000080C 5800 BE14            00E14 14155  1                      L     R0,CPWKPS           Get
 000810 5810 603C            0003C 14156  1                      L     R1,JWABY              next lineno
 000814 58E0 7C56/0DEE       0104C 14157  1                      VCALL ADDER                   to use
 00081A 4740 7430            00826 14161  1                      BM    MFETBIG             Lineno too high
 00081E 5000 BE14            00E14 14162  1                      ST    R0,CPWKPS           Save it
 000822                            14163                       END
 000822 47F0 7256            0064C 14167                       B     MFETLP              Go back for more
                                   14168
 000826 4110 7D28/4100_      0111E 14169              MFETBIG  SETMSG 'Line-number too big (specify BY).'
 00082E 41F0 B050/58E0_      00050 14173              MFETMSG  TSEG  (R1),(R0),CR
 000838 9140 6023/4710_00023       14198              MFETABRT IF    JWAFDISP,MFETEOF
 000840 58E0 7CBE/0DEE       010B4 14217                       ACALL JESICLS             Close path
                                   14221
 000846 D603 B05C B05C_0005C 0005C 14222                       TCCR
 000866 4110 7CE6/4100_      010DC 14284                       TSEG  'FETCH aborted.',,CR
 000878 58E0 7CC2/0DEE       010B8 14302                       VCALL LASTLINE            Write last line stowed
 00087E 47F0 C7DA            007DA 14306                       B     CVABORT
                                   14307
 000882 58E0 7CBE/0DEE       010B4 14308              MFETEOF  ACALL JESICLS             Close path
                                   14312
 000888 9160 6021/4770_00021       14313                       IF    JWAFLG2.HRBERSYN+HRBERSEM,CVERROR
 000890 47F0 C7DE            007DE 14335                       B     CVNEXT
                                   14336
 000894 18D8/9808 D004_            14337                       PEND  ,
 DROP   JWA-(4+36),R8
 DROP   *,R7
1JES      (JES2010) (12:47) (15MAR04) FETCH Command                                                                         Page   28
0Current Usings:  (JWA,R6) (CP,R11) (CV,R12)
0Loc    Object Code    Addr1 Addr2  Stmt Lv Lineno    Source Statement           (Hibal 5, Asmedit 3.3)  HLASM R4.0  2004/03/15 12.47
+___    ______ ____    _____ _____  ____ __ ______    ______ _________
0                                  14363              *
                                   14364              * ** DEBUG ** FOR ASSEMBLY                  ** FIX **
                                   14365              *
 0008A2 0D70                       14366              BASE     BASE
 USING  *,R7
 0008A4 0000                       14380                       BOMB
 DROP   *,R7                       14382                       DROP  BR
                                   14389              * ** DEBUG **
1JES      (JES2010) (12:47) (15MAR04) FETCH Command                                                                         Page   29
0Current Usings:  (JWA,R6) (CP,R11) (CV,R12)
0Loc    Object Code    Addr1 Addr2  Stmt Lv Lineno    Source Statement           (Hibal 5, Asmedit 3.3)  HLASM R4.0  2004/03/15 12.47
+___    ______ ____    _____ _____  ____ __ ______    ______ _________
00008A8 D4C3404040404040_          14391              FETPRT   SCKW  MC,FETMC
 0008D0 C3C3404040404040_          14406                       SCKW  CC,FETCC
 0008F8 C1E2C14040404040_          14421                       SCKW  ASA,FETCC
 000920 C3D6D5E3D9D6D340_          14436                       SCKW  CONTROL,FETCNTL,A
 000948 C4C9E2D7D3C1E840_          14451                       SCKW  DISPLAY,FETDISP,A
 000970 E2D8E4C1E2C84040_          14466                       SCKW  SQUASH,FETSQU,A
 000998 C3D6E4D5E3404040_          14481                       SCKW  COUNT,FETCNT,A
 0009C0 E2D2C9D740404040_          14496                       SCKW  SKIP,FETSKIP,A
 0009E8 E3D6404040404040_          14511                       SCKW  TO,FETTO,(P,LN)
 000A10 C2E8404040404040_          14526                       SCKW  BY,FETBY,(P,LN)
 000A38 C1D7D7C5D5C44040_          14541                       SCKW  APPEND,FETAPP,A
 000A60 D5E4D4C2C5D9C5C4_          14556                       SCKW  NUMBERED,FETNUM,A
 000A88 E3D9E4D5C3C1E3C5_          14571                       SCKW  TRUNCATE,FETTRUNC,(A,P,PI),32767
 000AB0 C1C3C3D6E4D5E340_          14586                       SCKW  ACCOUNT,JACCTINFO,A
 000AD8 C1C3C3E340404040_          14601                       SCKW  ACCT,JACCTINFO
 000B00 E4E2C5D940404040_          14616                       SCKW  USER,JACCTINFO,A
 000B28 E4E2D94040404040_          14631                       SCKW  USR,JACCTINFO
 000B50 C7D9D6E4D7404040_          14646                       SCKW  GROUP,JACCTINFO,A
 000B78 C7D9D74040404040_          14661                       SCKW  GRP,JACCTINFO
 000BA0 4040404040404040_          14676                       SCKW  ,V(CLRPSH),PUSH
 000BC8 4040404040404040_          14691                       SCKW  ,NOTRKW
                                   14706
 000BF0 C3D6E4D5E3404040_          14707              FETPRT2  SCKW  COUNT,FETCNT2,(A,P,PI),16777215
 000C18 E2D2C9D740404040_          14722                       SCKW  SKIP,FETSKIP2,(A,P,PI),16777215
 000C40 4040404040404040_          14737                       SCKW  ,V(NOTVALID)
                                   14752
 000C68 50E0 D000/9008_      00000 14753              FETCNTL  PROC  ,
 USING  *,R7
 000C82 4110 74BD/4100_      0113F 14792                       ERROR 'Use CC or MC option instead of CONTROL.'
 000C8E 18D8/9808 D004_            14799                       PEND
 DROP   *,R7
                                   14819
 000C9C 50E0 D000/9008_      00000 14820              FETMC    PROC  ,
 USING  *,R7
 000CB6 9620 6022      00022       14859                       SET   JWAFLG3.JWAF3MC     Set MC specified
 000CBA 18D8/9808 D004_            14866                       PEND
 DROP   *,R7
                                   14886
 000CC8 50E0 D000/9008_      00000 14887              FETCC    PROC  ,
 USING  *,R7
 000CE2 9624 6022      00022       14926                       SET   JWAFLG3.JWAF3CC+JWAF3MC  set CC specified
 000CE6 18D8/9808 D004_            14936                       PEND
 DROP   *,R7
                                   14956
 000CF4 50E0 D000/9008_      00000 14957              FETSKIP  PROC  ,
 USING  *,R7
                                   14996
                                   14997                       COMMENT                   CALC R1,R0 - LOC LEN OF
                                   14998                       COMMENT ,                 'SKIP=nnn' STRING
 000D0E 1821                       14999                       LR    R2,R1
 000D10 5810 B08C/1B00_      0008C 15000                       SCAN  ,
 000D5E 58E0 732E/0DEE       0103C 15031                       SCANCHK ,
 000D64 1A01                       15036                       AR    R0,R1
 000D66 1812                       15037                       LR    R1,R2
1JES      (JES2010) (12:47) (15MAR04) FETCH Command                                                                         Page   30
0Current Usings:  (JWA,R6) (*,R7) (CP,R11) (CV,R12)
0Loc    Object Code    Addr1 Addr2  Stmt Lv Lineno    Source Statement           (Hibal 5, Asmedit 3.3)  HLASM R4.0  2004/03/15 12.47
+___    ______ ____    _____ _____  ____ __ ______    ______ _________
0000D68 1B01                       15038                       SR    R0,R1
                                   15039
                                   15040                       COMMENT                   PASS 'SKIP=nnn' TO JES TOO
 000D6A 58E0 7332/0DEE       01040 15041                       ACALL MARKBLKB            (IE. DON'T BLANK)
                                   15045
                                   15046                       COMMENT                   SCAN IT
 000D70 58E0 B08C/D2AF_      0008C 15047                       SCPUSH
 000D7E 58E0 B08C/501E_      0008C 15053                       SCINIT (R1),(R0)
 000D8C 5810 B08C/1B00_      0008C 15073                       SCAN  FETPRT2
 000DDE 58E0 732E/0DEE       0103C 15105                       SCANCHK
 000DE4 58E0 B08C/4BD0_      0008C 15110                       SCPOP
 000DF2 1BFF                       15116                       CLEAR R15
 000DF4 18D8/9808 D004_            15120                       PEND
 DROP   *,R7
                                   15140
 000E02 50E0 D000/9008_      00000 15141              FETSKIP2 PROC  ,
 USING  *,R7
 000E1C 5000 6034            00034 15180                       ST    R0,JWASKPC          Save binary skip count
 000E20 18D8/9808 D004_            15181                       PEND  ,
 DROP   *,R7
                                   15201
 000E2E 50E0 D000/9008_      00000 15202              FETTO    PROC  ,
 USING  *,R7
 000E48 5000 6038            00038 15241                       ST    R0,JWATO
 000E4C 18D8/9808 D004_            15242                       PEND
 DROP   *,R7
                                   15262
 000E5A 50E0 D000/9008_      00000 15263              FETBY    PROC  ,
 USING  *,R7
 000E74 5000 603C            0003C 15302                       ST    R0,JWABY
 000E78 18D8/9808 D004_            15303                       PEND
 DROP   *,R7
                                   15323
 000E86 50E0 D000/9008_      00000 15324              FETAPP   PROC  ,
 USING  *,R7
 000EA0 9608 6023      00023       15363                       SET   JWAFTAPP            Set "append" flag
 000EA4 18D8/9808 D004_            15369                       PEND
 DROP   *,R7
                                   15389
 000EB2 50E0 D000/9008_      00000 15390              FETNUM   PROC
 USING  *,R7
 000ECC 9604 6023      00023       15429                       SET   JWAFNUM
 000ED0 18D8/9808 D004_            15435                       PEND
 DROP   *,R7
                                   15455
 000EDE 50E0 D000/9008_      00000 15456              FETTRUNC PROC
 USING  *,R7
 000EF8 9602 6023      00023       15495                       SET   JWAFTRUN            Set "truncate" flag
 000EFC 4000 6048            00048 15501                       STH   R0,JWAFTLEN         Save the desired length
 000F00 18D8/9808 D004_            15502                       PEND
 DROP   *,R7
                                   15522
 000F0E 50E0 D000/9008_      00000 15523              FETDISP  PROC
 USING  *,R7
1JES      (JES2010) (12:47) (15MAR04) FETCH Command                                                                         Page   31
0Current Usings:  (JWA,R6) (*,R7) (CP,R11) (CV,R12)
0Loc    Object Code    Addr1 Addr2  Stmt Lv Lineno    Source Statement           (Hibal 5, Asmedit 3.3)  HLASM R4.0  2004/03/15 12.47
+___    ______ ____    _____ _____  ____ __ ______    ______ _________
0000F28 9640 6023      00023       15562                       SET   JWAFDISP            Fetch display
 000F2C 18D8/9808 D004_            15568                       PEND
 DROP   *,R7
                                   15588
 000F3A 9620 6023      00023       15589              FETSQU   SET   JWAFSQSH            Squash multiple blanks
 000F3E 07FE                       15596                       BR    RAR
                                   15597
 000F40 50E0 D000/9008_      00000 15598              FETCNT   PROC  ,                   Pass count to JES
 USING  *,R7
 000F5A 58E0 7166/0DEE       010C0 15637                       ACALL FETSKIP             (same logic as SKIP)
 000F60 18D8/9808 D004_            15641                       PEND
 DROP   *,R7
                                   15661
 000F6E 50E0 D000/9008_      00000 15662              FETCNT2  PROC  ,
 USING  *,R7
                                   15701                       COMMENT                   JES does count, we ignore for now
 000F88 18D8/9808 D004_            15702                       PEND
 DROP   *,R7
                                   15722
 DROP   JWA,R6                     15723                       DROP  R6
                                   15730
                                   15731                       QLTORG
1JES      (JES2010) (12:47) (15MAR04) FETCH Command                                                                         Page   32
0Current Usings:  (CP,R11) (CV,R12)
0Loc    Object Code    Addr1 Addr2  Stmt Lv Lineno    Source Statement           (Hibal 5, Asmedit 3.3)  HLASM R4.0  2004/03/15 12.47
+___    ______ ____    _____ _____  ____ __ ______    ______ _________
0                                  15790
                                   15791                         MC to CC conversion table...
                                   15792
 00116C 4040404040404040           15793              MCTOCC   DC    256C' '
 00126C                0126C 0116D 15794                       ORG   MCTOCC+X'01'
 00116D 4E                         15795                       DC    C'+'
 00116E                0116E 0117D 15796                       ORG   MCTOCC+X'11'
 00117D F0                         15797                       DC    C'0'
 00117E                0117E 01185 15798                       ORG   MCTOCC+X'19'
 001185 60                         15799                       DC    C'-'
 001186                01186 011F5 15800                       ORG   MCTOCC+X'89'
 0011F5 F1                         15801                       DC    C'1'
 0011F6                011F6 011FD 15802                       ORG   MCTOCC+X'91'
 0011FD F2                         15803                       DC    C'2'
 0011FE                011FE 01205 15804                       ORG   MCTOCC+X'99'
 001205 F3                         15805                       DC    C'3'
 001206                01206 0120D 15806                       ORG   MCTOCC+X'A1'
 00120D F4                         15807                       DC    C'4'
 00120E                0120E 01215 15808                       ORG   MCTOCC+X'A9'
 001215 F5                         15809                       DC    C'5'
 001216                01216 0121D 15810                       ORG   MCTOCC+X'B1'
 00121D F6                         15811                       DC    C'6'
 00121E                0121E 01225 15812                       ORG   MCTOCC+X'B9'
 001225 F7                         15813                       DC    C'7'
 001226                01226 0122D 15814                       ORG   MCTOCC+X'C1'
 00122D F8                         15815                       DC    C'8'
 00122E                0122E 01235 15816                       ORG   MCTOCC+X'C9'
 001235 F9                         15817                       DC    C'9'
 001236                01236 0123D 15818                       ORG   MCTOCC+X'D1'
 00123D C1                         15819                       DC    C'A'
 00123E                0123E 01245 15820                       ORG   MCTOCC+X'D9'
 001245 C2                         15821                       DC    C'B'
 001246                01246 0124D 15822                       ORG   MCTOCC+X'E1'
 00124D C3                         15823                       DC    C'C'
 00124E                0124E 0126C 15824                       ORG
1JES      (JES2010) (12:47) (15MAR04) Option blanking routines                                                              Page   33
0Current Usings:  (CP,R11) (CV,R12)
0Loc    Object Code    Addr1 Addr2  Stmt Lv Lineno    Source Statement           (Hibal 5, Asmedit 3.3)  HLASM R4.0  2004/03/15 12.47
+___    ______ ____    _____ _____  ____ __ ______    ______ _________
0                                  15826

0                                  15827
                                   15828                    Routines to process blanking of WYLBUR options in
                                   15829                    JES command buffer.
                                   15830
                                   15831                    ZEROBLKB - initialize blank shadow buffer to zeros
                                   15832                    MARKBLKB - mark blank buffer to non-zeros
                                   15833                               we will not blank marked words
                                   15834                    DOBLKB - use blank shadow buffer to blank out wylbur
                                   15835                             options in JES buffer.
                                   15836
                                   15837
-
                                   15839              *
                                   15840              *  ZEROBLKB - ZERO SHADOW BUFFER
                                   15841              *
                                   15842              *  ON ENTRY:
                                   15843              *    R6 - JWA
                                   15844              *
                                   15845              *
 00126C 50E0 D000/9008_      00000 15846              ZEROBLKB PROC
 USING  *,R7
 USING  JWA,R6                     15885                       USING JWA,R6
 001286 D7FF 6058 6058 00058 00058 15894                       CLEAR JWABLKB
 00128C 18D8/9808 D004_            15901                       PEND  ,
 DROP   *,R7
 DROP   JWA,R6                     15921                       DROP  R6
1JES      (JES2010) (12:47) (15MAR04) Option blanking routines                                                              Page   34
0Current Usings:  (CP,R11) (CV,R12)
0Loc    Object Code    Addr1 Addr2  Stmt Lv Lineno    Source Statement           (Hibal 5, Asmedit 3.3)  HLASM R4.0  2004/03/15 12.47
+___    ______ ____    _____ _____  ____ __ ______    ______ _________
0                                  15929              *
                                   15930              *
                                   15931              *  MARKBLKB - MARK SHADOW BUFFER
                                   15932              *
                                   15933              *  ON ENTRY:
                                   15934              *    R1,R0 - LOC LEN (IN JES BUFFER) OF THING NOT TO BLANK
                                   15935              *    R6 - JWA
                                   15936              *    JWACMD - JES BUFFER ADDRESS
                                   15937              *    JWABLKB - JES BLANK SHADOW BUFFER
                                   15938              *
                                   15939              *  MARK SHADOW BUFFER WITH 'FF' IN CORRESPONDING LOCATION.
                                   15940              *
 00129A 50E0 D000/9008_      00000 15941              MARKBLKB PROC  ,
 USING  *,R7
 USING  JWA,R6                     15980                       USING JWA,R6
                                   15989
 0012B4 4120 6058            00058 15990                       LA    R2,JWABLKB          R2 - CALC PLACE TO MARK
 0012B8 5B10 6040            00040 15991                       S     R1,JWACMD
 0012BC 1A21                       15992                       AR    R2,R1
 0012BE 1830                       15993                       LR    R3,R0
 0012C0 5850 7084            01338 15994                       L     R5,=X'FF000000'
 0012C4 0E24                       15995                       MVCL  R2,R4
                                   15996
 0012C6 18D8/9808 D004_            15997                       PEND  ,
 DROP   *,R7
 DROP   JWA,R6                     16017                       DROP  R6
1JES      (JES2010) (12:47) (15MAR04) Option blanking routines                                                              Page   35
0Current Usings:  (CP,R11) (CV,R12)
0Loc    Object Code    Addr1 Addr2  Stmt Lv Lineno    Source Statement           (Hibal 5, Asmedit 3.3)  HLASM R4.0  2004/03/15 12.47
+___    ______ ____    _____ _____  ____ __ ______    ______ _________
0                                  16025              *
                                   16026              *
                                   16027              *  DOBLKB - PROCESS BLANK SHADOW BUFFER
                                   16028              *
                                   16029              *  ON ENTRY
                                   16030              *    R6 - JWA
                                   16031              *    JWACMD,JWACMDL - COMMAND BUFFER
                                   16032              *    JWABLKB - BLANK SHADOW BUFFER
                                   16033              *
 0012D4 50E0 D000/9008_      00000 16034              DOBLKB   PROC  ,
 USING  *,R7
 USING  JWA,R6                     16073                       USING JWA,R6
                                   16082
                                   16083                       COMMENT                   ZERO OUT NON MARKED STUFF
 0012EE 5820 6040            00040 16084                       L     R2,JWACMD
 0012F2 5830 6044            00044 16085                       L     R3,JWACMDL
 0012F6 4140 6058            00058 16086                       LA    R4,JWABLKB
 0012FA 0630/4430 7052_            16087                       DEX   R3,' NC @R2(0),@R4 '
                                   16106
                                   16107                       COMMENT                   BLANK ZEROS
 001300 5820 6040            00040 16108                       L     R2,JWACMD
 001304 5830 6044            00044 16109                       L     R3,JWACMDL
 001308 1A32                       16110                       AR    R3,R2
 00130A 1923/47B0 7036             16111                       WHILE (R2,LT,R3),BEGIN
 001310 9500 2000/4770_00000       16128  1                      IF    (@R2,EQ,0),BEGIN
 001318 9240 2000      00000       16145  2                        MVI   @R2,C' '
 00131C                            16146  1                      END
 00131C 5E20 704E            0133C 16150  1                      INCR  R2
 001320 47F0 701C            0130A 16153                       END
                                   16158
 001324 18D8/9808 D004_            16159                       PEND
 DROP   *,R7
 DROP   JWA,R6                     16179                       DROP  R6
                                   16186
                                   16187                       QLTORG
1JES      (JES2010) (12:47) (15MAR04) JES Interface Commands                                                                Page   36
0Current Usings:  (CP,R11) (CV,R12)
0Loc    Object Code    Addr1 Addr2  Stmt Lv Lineno    Source Statement           (Hibal 5, Asmedit 3.3)  HLASM R4.0  2004/03/15 12.47
+___    ______ ____    _____ _____  ____ __ ______    ______ _________
0                                  16202
                                   16203
                                   16204                JESCMD -- Ship the current command to JES.
                                   16205
                                   16206                JESSND -- Ship the command pointed to by R1, with len in R0,
                                   16207                          and if R15 is not zero the command will be scanned.
                                   16208
                                   16209                JESRTN -- Same as "JESSND", but return to caller is made.
                                   16210

0001346 50E0 D000/9008_      00000 16211              JESCMD   XPROC ,
 USING  *,R7
 001360 58E0 71A0/0DEE       01500 16251                       ACALL JESOK               Make sure JES is ok
                                   16255
                                   16256                         For JPRINT only:  add printer type.
                                   16257
 001366 D502 71E6 BD24_01546 00D24 16258                       IF    (CPCMNM,EQ,'JPR'),BEGIN  JPRINT...
 001370 D501 71C4 B240_01524 00240 16275  1                      IF    (CPCMDLEN,GE,=Y(L'CPCMD-20)),EXIT  Too long already
 00137A 184D/41D0 D0EC             16295  1                      XPUSH ,,L'CPCMD,PTR=R4
 001380 D2EA 4000 C4D8 00000 004D8 16298  1                      MVC   @R4(L'CPCMD),CVBLANKS  Pre-blank new command area
                                   16299  1
 001386 183D/41D0 D03C             16300  1                      XPUSH ,,L'SEGCB,PTR=R3
 USING  SEGCB,R3                   16303  1                      WITH  (SEGCB,R3),BEGIN
 00138C 1814/4100 00EB_            16317  2                        SEGINIT (R4),L'CPCMD,(R3)  Set up seg buffer
 00139A 4110 B242/4800_      00242 16342  2                        SEGTB CPCMD,LH:CPCMDLEN   Add old command
 0013AA 4110 7180/4100_      014E0 16367  2                        SEG   'PRINTER='          Printer=
 0013BA 181D/41D0 D0EC             16382  2                        XPUSH ,,&LINESZ,PTR=R1
 0013C0 4100 00EB            000EB 16385  2                        LA    R0,&LINESZ
 0013C4 4120 7188            014E8 16386  2                        LA    R2,=CL16'SYS.LPRINTER'
 0013C8 58E0 71B0/0DEE       01510 16387  2                        VCALL GETDATA             Get lprinter info
 0013CE 4770 708C/1200_      013EC 16391  2                        IF    (Z,AND,(R0,POS)),BEGIN  We have something...
 0013D8 18F3/58E0 71AC_            16415  3                          SEG   (R1),(R0)           Lprinter name & info
 0013E0 D201 B240 300E 00240 0000E 16436  3                          MVC   CPCMDLEN,SEGCBLENF+2  Set cmd length
 0013E6 D2EA B242 4000 00242 00000 16437  3                          MVC   CPCMD,@R4           Move in modified command
 0013EC                            16438  2                        END
 0013EC 4BD0 71C6            01526 16442  2                        XPOP  ,,&LINESZ
 DROP   SEGCB,R3                   16444  1                      END
 0013F0 4BD0 71C8            01528 16452  1                      XPOP  ,,L'SEGCB
                                   16454  1                      SEGDEF  DUMMY             (Safety)
 0013F4 4BD0 71CA            0152A 16455  1                      XPOP  ,,L'CPCMD
 0013F8                            16457                       END
                                   16461              *
                                   16462              *
 0013F8 4110 B242/4800_      00242 16463                       SETMSG CPCMD,LH:CPCMDLEN  Current command
 001400 5900 71B4/47D0_      01514 16476                       CEIL  R0,HCBTEXTL         Not too long for JES
 00140C 4000 B240            00240 16495                       STH   R0,CPCMDLEN         Save len
 001410 41F0 0008            00008 16496                       LA    R15,8               Flag command to be scanned
                                   16497
 001414 58E0 71B8/0DEE       01518 16498                       ACALL JESRTN
                                   16502
 00141A 4780 C7DE            007DE 16503                       BZ    CVNEXT              Normal
 00141E 4720 C7D6            007D6 16504                       BP    CVERROR             Error
1JES      (JES2010) (12:47) (15MAR04) JES Interface Commands                                                                Page   37
0Current Usings:  (*,R7) (CP,R11) (CV,R12)
0Loc    Object Code    Addr1 Addr2  Stmt Lv Lineno    Source Statement           (Hibal 5, Asmedit 3.3)  HLASM R4.0  2004/03/15 12.47
+___    ______ ____    _____ _____  ____ __ ______    ______ _________
0                                  16505
                                   16506                         Negative return code means JES died.
                                   16507
 001422 0D70                       16508                       BASE
 DROP   *,R7
 USING  *,R7
 001424 5870 70F8            0151C 16525                       BASE  BASE
 DROP   *,R7
 USING  BASE,R7
 001428 4110 7CA7/4100_      01549 16543                       TSEG  'Unable to send '
 00143A 4110 C014/4100_      00014 16561                       TSEG  CVJES,,T
 00144C D207 B886 7C56_00886 014F8 16589                       ABORT ' command, path not active.',,JESDOWN
 00145E 18D8/9808 D004_            16597                       PEND  ,
 DROP   BASE,R7
1JES      (JES2010) (12:47) (15MAR04) JES Interface Commands                                                                Page   38
0Current Usings:  (CP,R11) (CV,R12)
0Loc    Object Code    Addr1 Addr2  Stmt Lv Lineno    Source Statement           (Hibal 5, Asmedit 3.3)  HLASM R4.0  2004/03/15 12.47
+___    ______ ____    _____ _____  ____ __ ______    ______ _________
0                                  16618
                                   16619
                                   16620                JESCMD -- Ship the current command to JES.
                                   16621
                                   16622                JESSND -- Ship the command pointed to by R1, with len in R0,
                                   16623                          and if R15 is not zero the command will be scanned.
                                   16624
                                   16625                JESRTN -- Same as "JESSND", but return to caller is made.
                                   16626
                                   16627
                                   16628

000146C 50E0 D000/9008_      00000 16629              JESSND   XPROC ,
 USING  *,R7
                                   16669
 001486 58E0 7092/0DEE       01518 16670                       ACALL JESRTN
                                   16674
 00148C 4780 C7DE            007DE 16675                       BZ    CVNEXT              Normal
 001490 4720 C7D6            007D6 16676                       BP    CVERROR             Error
                                   16677
                                   16678                         Negative return code means JES died.
                                   16679
 001494 0D70                       16680                       BASE
 DROP   *,R7
 USING  *,R7
 001496 5870 7086            0151C 16697                       BASE  BASE
 DROP   *,R7
 USING  BASE,R7
 00149A 4110 7CA7/4100_      01549 16715                       TSEG  'Unable to send '
 0014AC 4110 C014/4100_      00014 16733                       TSEG  CVJES,,T
 0014BE D207 B886 7C56_00886 014F8 16761                       ABORT ' command, path not active.',,JESDOWN
 0014D0 18D8/9808 D004_            16769                       PEND
 DROP   BASE,R7
                                   16789
                                   16790                       QLTORG
1JES      (JES2010) (12:47) (15MAR04) JES Interface Commands                                                                Page   39
0Current Usings:  (CP,R11) (CV,R12)
0Loc    Object Code    Addr1 Addr2  Stmt Lv Lineno    Source Statement           (Hibal 5, Asmedit 3.3)  HLASM R4.0  2004/03/15 12.47
+___    ______ ____    _____ _____  ____ __ ______    ______ _________
0                                  16822
                                   16823
                                   16824                JESCMD -- Ship the current command to JES.
                                   16825
                                   16826                JESSND -- Ship the command pointed to by R1, with len in R0,
                                   16827                          and if R15 is not zero the command will be scanned.
                                   16828
                                   16829                JESRTN -- Same as "JESSND", but return to caller is made.
                                   16830
                                   16831

0001558 50E0 D000/9008_      00000 16832              JESRTN   XPROC JWA
 USING  *,R7
 USING  JWA-(4+36),R8
 001572 182F                       16883                       LR    R2,R15              Save flag reg
 001574 4160 8028            00000 16884                       LA    R6,JWA
 USING  JWA,R6                     16885                       USING JWA,R6
 001578 5060 BD74            00D74 16894                       ST    R6,CPJWA
                                   16895
 00157C 58E0 764E/0DEE       01BC0 16896                       ACALL JWAINIT             Set up JES work area
 001582 1222/4780 701A_            16900                       IF    (R2,NZ),'SET JWAFSCAN'  command should be scanned
 00158C 9180 6023/47E0_00023       16925                       IF    JWAFSCAN,BEGIN      Scan cmd for wyl options...
 001594 5810 6040/5800_      00040 16940  1                      SCINIT L:JWACMD,L:JWACMDL
 0015AA 5810 B08C/1B00_      0008C 16962  1                      SCAN  ,                   (command)
 0015F8 58E0 7656/0DEE       01BC8 16993  1                      SCANCHK
 0015FE 58E0 765A/0DEE       01BCC 16998  1                      ACALL MARKBLKB
 001604 5810 B08C/1B00_      0008C 17002  1                      SCAN  ,                   (jobname)
 001652 58E0 7656/0DEE       01BC8 17033  1                      SCANCHK
 001658 58E0 765A/0DEE       01BCC 17038  1                      ACALL MARKBLKB
 00165E 5810 B08C/1B00_      0008C 17042  1                      SCAN  WYLPRT              Command options
 0016B0 58E0 7656/0DEE       01BC8 17074  1                      SCANCHK
 0016B6 58E0 7662/0DEE       01BD4 17079  1                      ACALL DOBLKB              Blank out non-JES options
 0016BC                            17083                       END
                                   17087
 0016BC 58E0 7666/0DEE       01BD8 17088                       ACALL CHKKEY
                                   17092
 0016C2 58E0 766A/0DEE       01BDC 17093                       ACALL JESIOPN             Open JES path
 0016C8 58E0 766E/0DEE       01BE0 17097                       ACALL JESCOM              Send command to JES
 0016CE 4780 7168/48F0_      016DA 17101                       IF    NZ,'LH R15,=H"-4"; B JESEXIT'  Trouble
                                   17119
                                   17120                         Main command response loop.
                                   17121
 0016DA 58E0 7672/0DEE       01BE4 17122              JESLOOP  TSTAT
 0016E0 4770 7292            01804 17127                       BNZ   JESDONE             Attn, scram
                                   17128
 0016E4 58E0 7676/0DEE       01BE8 17129                       ACALL JESRD               Get a response line
 0016EA 4770 7292            01804 17133                       BNZ   JESDONE             All done, scram
 0016EE 9120 6023/47E0_00023       17134                       IF    JWAFSQSH,'VCALL SQSHRTN'  Remove mult blanks
                                   17158
 0016FC 9110 6021/47E0_00021       17159                       IF    JWAFLG2.HRBBUF,BEGIN  Edit buffer...
 001704 4110 769A/4100_      01C0C 17175  1                      ABORT 'Command may not change the ACTIVE file.'
 001710                            17182                       END
                                   17186
1JES      (JES2010) (12:47) (15MAR04) JES Interface Commands                                                                Page   40
0Current Usings:  (JWA,R6) (*,R7) (JWA-(4+36),R8) (CP,R11) (CV,R12)
0Loc    Object Code    Addr1 Addr2  Stmt Lv Lineno    Source Statement           (Hibal 5, Asmedit 3.3)  HLASM R4.0  2004/03/15 12.47
+___    ______ ____    _____ _____  ____ __ ______    ______ _________
0001710 9101 6021/47E0_00021       17187                       IF    JWAFLG2.HRBPRINT,BEGIN  Local print line...
 001718 9610 BC7C/9680_00C7C       17203  1                      SET   CPFNMOD,CPFNPAU,CPFCLEAN   First time only
                                   17217  1
 001724 1B22                       17218  1                      CLEAR R2                  Assume not QUIET
 001726 9140 BD55/47E0_00D55       17222  1                      IF    CPFQUIET,'LA R2,1; CLEAR CPFQUIET'  Reset temporarily
                                   17250  1
 001736 9101 6023/4710_00023       17251  1                      IF    ~JWAFLPR,BEGIN      First time...
 00173E 9140 B3EA/47E0_003EA       17266  2                        IF    CPSFSAM,BEGIN       Only for Samson...
 001746 9001 D000/41D0_      00000 17281  3                          XPUSH R0,R1
 00174E 4110 73B6/4100_      01928 17284  3                          TSEG  DOCSTART            Start of document
 001760 4BD0 7696/9801_      01C08 17312  3                          XPOP  R0,R1
 001768                            17315  2                        END
                                   17319  2
 001768 9601 6023      00023       17320  2                        SET   JWAFLPR             We have local printer data
 00176C                            17326  1                      END
                                   17330  1
 00176C 9001 D000/41D0_      00000 17331  1                      XPUSH R0,R1
 001774 4110 73C1/4100_      01933 17334  1                      TSEG  PRON                Turn printer on
 001786 4BD0 7696/9801_      01C08 17362  1                      XPOP  R0,R1
 00178E 41F0 B050/58E0_      00050 17365  1                      TSEG  (R1),(R0)           Print line text
 001798 4110 73C5/4100_      01937 17389  1                      TSEG  PROFF               Turn printer off
 0017AA 41F0 B050/58E0_      00050 17417  1                      TMARK
                                   17431  1
 0017B4 1222/4780 724C_            17432  1                      IF    (R2,NZ),'SET CPFQUIET'  Restore QUIET
 0017BE 47F0 7168            016DA 17457  1                      B     JESLOOP
 0017C2                            17458                       END
                                   17462
                                   17463                         Write line of output to the terminal.
                                   17464
 0017C2 9140 BD55/4710_00D55       17465                       IF    CPFQUIET,JESLOOP    Don't seg text if QUIET
                                   17483
 0017CA 1821                       17484                       LR    R2,R1
 0017CC 1A20                       17485                       AR    R2,R0
 0017CE 0620                       17486                       DECR  R2
 0017D0 1200/47D0 7284             17488                       IF    (R0,POS),BEGIN      Check last character for X'0D'...
 0017D6 950D 2000/4770_00000       17502  1                      IF    (@R2,NE,X'0D'),EXIT
 0017DE 41F0 B050/58E0_      00050 17521  1                      TSEG  (R1),(R0)
 0017E8 41F0 B050/58E0_      00050 17545  1                      TMARK
 0017F2 47F0 7168            016DA 17559  1                      B     JESLOOP
 0017F6                            17560                       END
                                   17564
 0017F6 41F0 B050/58E0_      00050 17565                       TSEG  (R1),(R0),CR        Go buffer line
 001800 47F0 7168            016DA 17589                       B     JESLOOP
                                   17590              *
                                   17591              *
 001804 1BFF                       17592              JESDONE  CLEAR R15
 001806 9140 6021/47E0_00021       17597                       IF    JWAFLG2.HRBERSYN,'LA R15,4; B JESEXIT'  Syntax error
 001816 9120 6021/47E0_00021       17620                       IF    JWAFLG2.HRBERSEM,BEGIN  Semantic error...
 00181E D502 76C1 BD24_01C33 00D24 17636  1                      IF    (CPCMNM,EQ,'LOC'),EXIT  No error if LOCATE
 001828 D502 76C4 BD24_01C36 00D24 17656  1                      IF    (CPCMNM,EQ,'SHO'),EXIT  No error if SHOW STATUS, etc.
 001832 41F0 0004            00004 17676  1                      LA    R15,4               Return error code
 001836                            17677                       END
                                   17681
 001836 50F0 D000/41D0_      00000 17682              JESEXIT  XPUSH R15
1JES      (JES2010) (12:47) (15MAR04) JES Interface Commands                                                                Page   41
0Current Usings:  (JWA,R6) (*,R7) (JWA-(4+36),R8) (CP,R11) (CV,R12)
0Loc    Object Code    Addr1 Addr2  Stmt Lv Lineno    Source Statement           (Hibal 5, Asmedit 3.3)  HLASM R4.0  2004/03/15 12.47
+___    ______ ____    _____ _____  ____ __ ______    ______ _________
0                                  17685
                                   17686                         If the printer was ever turned on, then turn it off at the
                                   17687                           end of the command.  Even if it has already been turned
                                   17688                           off; a BREAK/ATTN may have stopped the output before the
                                   17689                           printer off sequence was actually written.
                                   17690
 00183E 9101 6023/47E0_00023       17691                       IF    JWAFLPR,BEGIN       Printer may still be on...
 001846 5850 C1C8            001C8 17706  1                      L     R5,CVCURJCB
 USING  JCB,R5                     17707  1                      WITH  (JCB,R5)
                                   17720  1
 00184A 1B22                       17721  1                      CLEAR R2                  Assume not QUIET
 00184C 9140 BD55/47E0_00D55       17725  1                      IF    CPFQUIET,'LA R2,1; CLEAR CPFQUIET'  Reset temporarily
                                   17753  1
 00185C 1B00/41F0 B050_            17754  1                      TWRITE
                                   17779  1
 001868 1B33                       17780  1                      CLEAR R3                  Assume no ATTN
 00186A 9102 5062/47E0_00062       17784  1                      IF    JCBFATTN,'LA R3,1'  Reset temporarily
                                   17805  1
 001876 4140 0005            00005 17806  1                      LA    R4,5                Try five times then give up
 00187A 1244/47D0 736E             17807  1                      WHILE (R4,POS),BEGIN
 001880 94FD 5062      00062       17823  2                        CLEAR JCBFATTN            Reset temporarily
 001884 4110 73C5/4100_      01937 17830  2                        TSEG  PROFF               Turn printer off
                                   17858  2
 001896 9140 B3EA/47E0_003EA       17859  2                        IF    CPSFSAM,BEGIN       Only for Samson...
 00189E 9001 D000/41D0_      00000 17874  3                          XPUSH R0,R1
 0018A6 4110 73BB/4100_      0192D 17877  3                          TSEG  DOCEND              End of document
 0018B8 4BD0 7696/9801_      01C08 17905  3                          XPOP  R0,R1
 0018C0                            17908  2                        END
                                   17912  2
 0018C0 41F0 B050/58E0_      00050 17913  2                        TMARK
 0018CA 1B00/41F0 B050_            17927  2                        TWRITE
 0018D6 4780 736E            018E0 17952  2                        IF    Z,EXIT              Fine, scram
 0018DA 0640                       17966  2                        DECR  R4
 0018DC 47F0 7308            0187A 17968  1                      END
                                   17973  1
 0018E0 1233/4780 7378_            17974  1                      IF    (R3,NZ),'SET JCBFATTN'  Reset ATTN setting
                                   17999  1
 0018EA 1222/4780 7382_            18000  1                      IF    (R2,NZ),'SET CPFQUIET'  Restore QUIET setting
                                   18025  1
 0018F4 94EF BC7C/947F_00C7C       18026  1                      CLEAR CPFNMOD,CPFNPAU,CPFCLEAN  Reset LPRINT flags
 DROP   JCB,R5                     18043                       END
                                   18052
 001900 5850 C1C8            001C8 18053                       L     R5,CVCURJCB
 001904 9120 5064/47E0_00064       18054                       WITH  (JCB,R5),'IF JCBRHSPI,"ACALL JESICLS"'
 USING  JCB,R5
 DROP   JCB,R5
                                   18101
 001912 4BD0 7698/58F0_      01C0A 18102                       XPOP  R15
 00191A 18D8/9808 D004_            18105                       PEND  ,
 DROP   JWA-(4+36),R8
 DROP   *,R7
                                   18130
 001928 27AD4CF589                 18131              DOCSTART DC    X'27AD4CF589'       ESC [ < 5 i
 00192D 27AD4CF48911               18132              DOCEND   DC    X'27AD4CF48911'     ESC [ < 4 i XON
1JES      (JES2010) (12:47) (15MAR04) JES Interface Commands                                                                Page   42
0Current Usings:  (JWA,R6) (CP,R11) (CV,R12)
0Loc    Object Code    Addr1 Addr2  Stmt Lv Lineno    Source Statement           (Hibal 5, Asmedit 3.3)  HLASM R4.0  2004/03/15 12.47
+___    ______ ____    _____ _____  ____ __ ______    ______ _________
0001933 27ADF589                   18133              PRON     DC    X'27ADF589'         ESC [ 5 i
 001937 27ADF48911                 18134              PROFF    DC    X'27ADF48911'       ESC [ 4 i XON
                                   18135
 00193C 4040404040404040_          18136              WYLPRT   SCKW  ,V(COLLPSH),PUSH
 001964 4040404040404040_          18151                       SCKW  ,V(QUIETPSH),PUSH
 00198C C1C3C3D6E4D5E340_          18166                       SCKW  ACCOUNT,JACCTINFO,A
 0019B4 C1C3C3E340404040_          18181                       SCKW  ACCT,JACCTINFO
 0019DC E4E2C5D940404040_          18196                       SCKW  USER,JACCTINFO,A
 001A04 E4E2D94040404040_          18211                       SCKW  USR,JACCTINFO
 001A2C C7D9D6E4D7404040_          18226                       SCKW  GROUP,JACCTINFO,A
 001A54 C7D9D74040404040_          18241                       SCKW  GRP,JACCTINFO
 001A7C 4040404040404040_          18256                       SCKW  ,NOTRKW
                                   18271
 001AA4 C1C3C3D6E4D5E340_          18272              JACCTPRT SCKW  ACCOUNT,JACCT,(A,P)
 001ACC C1C3C3E340404040_          18287                       SCKW  ACCT,JACCT,P
 001AF4 E4E2C5D940404040_          18302                       SCKW  USER,JUSER,(A,P)
 001B1C E4E2D94040404040_          18317                       SCKW  USR,JUSER,P
 001B44 C7D9D6E4D7404040_          18332                       SCKW  GROUP,JGROUP,(A,P)
 001B6C C7D9D74040404040_          18347                       SCKW  GRP,JGROUP,P
 001B94 4040404040404040_          18362                       SCKW  ,V(NOTVALID)
                                   18377
                                   18378                       QLTORG
                                   18414
 001C3A 50E0 D000/9008_      00000 18415              NOTRKW   PROC  ,                   Not our keyword, send to JES
 USING  *,R7
 001C54 58E0 72FC/0DEE       01F50 18454                       ACALL MARKBLKB            (ie. dont blank)
 001C5A 18D8/9808 D004_            18458                       PEND  ,
 DROP   *,R7
                                   18478
 001C68 50E0 D000/9008_      00000 18479              JACCTINFO PROC  ,
 USING  *,R7
                                   18518
                                   18519                       COMMENT                   CALC R1,R0 - LOC LEN OF
                                   18520                       COMMENT ,                 'XXX=nnn' STRING
 001C82 1821                       18521                       LR    R2,R1
 001C84 5810 B08C/1B00_      0008C 18522                       SCAN  ,
 001CD2 58E0 72D6/0DEE       01F58 18553                       SCANCHK ,
 001CD8 1A01                       18558                       AR    R0,R1
 001CDA 1812                       18559                       LR    R1,R2
 001CDC 1B01                       18560                       SR    R0,R1
                                   18561
                                   18562                       COMMENT                   PASS 'XXX=nnn' TO JES TOO
 001CDE 58E0 72CE/0DEE       01F50 18563                       ACALL MARKBLKB            (IE. DON'T BLANK)
                                   18567
                                   18568                       COMMENT                   SCAN ACCOUNT STUFF
 001CE4 58E0 B08C/D2AF_      0008C 18569                       SCPUSH
 001CF2 58E0 B08C/501E_      0008C 18575                       SCINIT (R1),(R0)
 001D00 5810 B08C/1B00_      0008C 18595                       SCAN  JACCTPRT
 001D52 58E0 72D6/0DEE       01F58 18627                       SCANCHK
 001D58 58E0 B08C/4BD0_      0008C 18632                       SCPOP
 001D66 1BFF                       18638                       CLEAR R15
 001D68 18D8/9808 D004_            18642                       PEND
 DROP   *,R7
                                   18662
1JES      (JES2010) (12:47) (15MAR04) JES Interface Commands                                                                Page   43
0Current Usings:  (JWA,R6) (*,R7) (CP,R11) (CV,R12)
0Loc    Object Code    Addr1 Addr2  Stmt Lv Lineno    Source Statement           (Hibal 5, Asmedit 3.3)  HLASM R4.0  2004/03/15 12.47
+___    ______ ____    _____ _____  ____ __ ______    ______ _________
0001D76 50E0 D000/9008_      00000 18663              JACCT    PROC  ,
 USING  *,R7
 001D90 58E0 71C0/0DEE       01F50 18702                       ACALL MARKBLKB            Dont blank, send to JES
 001D96 5810 B08C/4111_      0008C 18706                       SCUPTOK (R1)
 001D9E 5900 71D0/4780_      01F60 18710                       IF    (R0,NE,6),'VCALL NOTVALID'
 001DAC 954B 1002/4780_00002       18736                       IF    ((@R1+2,EQ,'.'),OR,(@R1+2,EQ,'$')),BEGIN
 001DBC D201 6181 1000 00181 00000 18767  1                      MVC   HCBUSER3+3(2),@R1   "gg"
 001DC2 D202 617E 1003 0017E 00003 18768  1                      MVC   HCBUSER3(3),@R1+3   "uuu"
 001DC8 47F0 705A            01DEA 18769  1                      B     JACCDONE
 001DCC                            18770                       END
 001DCC 955B 1003/4770_00003       18774                       IF    (@R1+3,EQ,'$'),BEGIN  Old uuu$gg format...
 001DD4 D202 617E 1000 0017E 00000 18790  1                      MVC   HCBUSER3(3),@R1
 001DDA D201 6181 1004 00181 00004 18791  1                      MVC   HCBUSER3+3(2),@R1+4
 001DE0 47F0 705A            01DEA 18792  1                      B     JACCDONE
 001DE4                            18793                       END
 001DE4 58E0 71D4/0DEE       01F64 18797                       VCALL NOTVALID
 001DEA                            18801              JACCDONE LABEL ,
 001DEA 18D8/9808 D004_            18803                       PEND  ,
 DROP   *,R7
                                   18823
 001DF8 50E0 D000/9008_      00000 18824              JUSER    PROC  ,
 USING  *,R7
 001E12 58E0 713E/0DEE       01F50 18863                       ACALL MARKBLKB            Dont blank, send to JES
 001E18 5810 B08C/4111_      0008C 18867                       SCUPTOK (R1)
 001E20 D202 617E B3B4 0017E 003B4 18871                       MVC   HCBUSER3(3),CPSUSER
 001E26 D500 7168 1000_01F7A 00000 18872                       IF    (@R1,EQ,'&&'),BEGIN
 001E30 4110 1001            00001 18888  1                      LA    R1,@R1+1
 001E34 4600 702A            01E3C 18889  1                      BCT   R0,JUSER2
 001E38 47F0 703E            01E50 18890  1                      B     JUSRDONE
 001E3C                            18891                       END
 001E3C 5900 7156/4780_      01F68 18895              JUSER2   IF    (R0,NE,3),'VCALL NOTVALID'
 001E4A D202 617E 1000 0017E 00000 18922                       MVC   HCBUSER3(3),@R1
 001E50                            18923              JUSRDONE LABEL ,
 001E50 18D8/9808 D004_            18925                       PEND  ,
 DROP   *,R7
                                   18945
 001E5E 50E0 D000/9008_      00000 18946              JGROUP   PROC  ,
 USING  *,R7
 001E78 58E0 70D8/0DEE       01F50 18985                       ACALL MARKBLKB            Dont blank, send to JES
 001E7E 5810 B08C/4111_      0008C 18989                       SCUPTOK (R1)
 001E86 D201 6181 B3B7 00181 003B7 18993                       MVC   HCBUSER3+3(2),CPSGRP
 001E8C 957C 1000/4770_00000       18994                       IF    (@R1,EQ,'@'),BEGIN
 001E94 4110 1001            00001 19010  1                      LA    R1,@R1+1
 001E98 4600 7028            01EA0 19011  1                      BCT   R0,JGROUP2
 001E9C 47F0 703C            01EB4 19012  1                      B     JGRPDONE
 001EA0                            19013                       END
 001EA0 5900 70F4/4780_      01F6C 19017              JGROUP2  IF    (R0,NE,2),'VCALL NOTVALID'
 001EAE D201 6181 1000 00181 00000 19044                       MVC   HCBUSER3+3(2),@R1
 001EB4                            19045              JGRPDONE LABEL ,
 001EB4 18D8/9808 D004_            19047                       PEND
 DROP   *,R7
-
1JES      (JES2010) (12:47) (15MAR04) JES Interface Commands                                                                Page   44
0Current Usings:  (JWA,R6) (CP,R11) (CV,R12)
0Loc    Object Code    Addr1 Addr2  Stmt Lv Lineno    Source Statement           (Hibal 5, Asmedit 3.3)  HLASM R4.0  2004/03/15 12.47
+___    ______ ____    _____ _____  ____ __ ______    ______ _________
0                                  19068              *
                                   19069              * ??
                                   19070              *
 001EC2 50E0 D000/9008_      00000 19071              CHKKEY   PROC  ,                  Hcbuser3 needs kw check
 USING  *,R7
 001EDC D606 617E 617E_0017E 0017E 19110                       IF    (HCBUSER3,NZ),BEGIN
 001EE6 D602 617E 617E 0017E 0017E 19126  1                      OC    HCBUSER3(3),HCBUSER3
 001EEC 4770 701A/D202_      01EF6 19127  1                      IF    Z,'MVC HCBUSER3(3),CPUSERSV'
 001EF6 D601 6181 6181 00181 00181 19144  1                      OC    HCBUSER3+3(2),HCBUSER3+3
 001EFC 4770 702A/D201_      01F06 19145  1                      IF    Z,'MVC HCBUSER3+3(2),CPGRPSV'
 001F06 D502 709F BD24_01F7B 00D24 19162  1                      IF    (CPCMNM,EQ,'LOC'),EXIT  no kw check for locate
 001F10 181D/41D0 D1F8             19182  1                      XPUSH ,,L'KWR,PTR=R1
 USING  KWR,R1                     19185  1                      WITH  (KWR,R1),BEGIN
 001F16 D7FF 1000 1000_00000 00000 19199  2                        CLEAR KWR
 001F22 D204 1000 617E 00000 0017E 19207  2                        MVC   KWRUSER(5),HCBUSER3
 001F28 D504 1000 B3B4_00000 003B4 19208  2                        IF    ('CLC KWRUSER(5),CPSUSER',NE),BEGIN
 001F32 1B00                       19221  3                          CLEAR R0                  Normal options
 001F34 58E0 7094/0DEE       01F70 19225  3                          ACALL JOBKWCHK            Check keyword
 001F3A                            19229  2                        END
 001F3A 4BD0 709C            01F78 19233  2                        XPOP  ,,L'KWR
 DROP   KWR,R1                     19235  1                      END
 001F3E                            19243                       END
 001F3E 18D8/9808 D004_            19247                       PEND  ,
 DROP   *,R7
 DROP   JWA,R6                     19267                       DROP  R6
-                                  19275                       QLTORG
1JES      (JES2010) (12:47) (15MAR04) JES Work Area Initialization Routine                                                  Page   45
0Current Usings:  (CP,R11) (CV,R12)
0Loc    Object Code    Addr1 Addr2  Stmt Lv Lineno    Source Statement           (Hibal 5, Asmedit 3.3)  HLASM R4.0  2004/03/15 12.47
+___    ______ ____    _____ _____  ____ __ ______    ______ _________
0                                  19302              *
                                   19303              *  Set up account and scanner fields.
                                   19304              *
                                   19305              *  We set up to scan from a buffer different from
                                   19306              *  WYLBURS command buffer.  We blank out certain WYLBUR
                                   19307              *  options so that they are not passed to JES.  For
                                   19308              *  example all the 'collect options' are blanked so
                                   19309              *  that JES does not have to ignore options that it knows
                                   19310              *  nothing about.  The options are blanked in the JES buffer
                                   19311              *  and not in the WYLBUR buffer.
                                   19312              *
                                   19313              *  ON ENTRY:
                                   19314              *        R1,R0 - Command loc, len
                                   19315              *        R6 = JWA pointer
                                   19316              *
                                   19317              *
 001F7E 50E0 D000/9008_      00000 19318              JWAINIT  PROC
 USING  *,R7
                                   19357
 001F98 1266/4770 701E_            19358                       FAIL  (R6,Z),NOJWA,'FETCH/LOCATE INTERFACE ERROR'
 USING  JWA,R6                     19384                       USING JWA,R6
 001FB6 D7FF 6020 6020_00020 00020 19393                       CLEAR JWADATA
                                   19402
 001FC8 9001 D000/41D0_      00000 19403                       XPUSH R0,R1
                                   19406
 001FD0 D200 616E B3BE 0016E 003BE 19407                       MVC   HCBIFLGS,CPSKIFL    Copy initial flags
 001FD6 D200 616F B3BF 0016F 003BF 19408                       MVC   HCBAFLGS,CPSKAFL    Copy account flags
 001FDC 5850 C1C8            001C8 19409                       L     R5,CVCURJCB         Get current (my) JCB
 001FE0 D201 615C 5048 0015C 00048 19410                       WITH  (JCB,R5),'MVC HCBID,JCBSEQ'  use seq as id in HCB
 USING  JCB,R5
 DROP   JCB,R5
 001FE6 D200 616D B9E0 0016D 009E0 19434                       MVC   HCBFGBL,CPJESHFL    Move in default JES mode flgs
 001FEC D204 6170 B3B4 00170 003B4 19435                       MVC   HCBUSER1(5),CPSACCT  Move in signon user & group
 001FF2 D604 B3B4 B3B4_003B4 003B4 19436                       IF    (CPSACCT,Z),'MVC HCBUSER1(5),=C"*****"'  Dummy userid
 002002 9180 B476/47E0_00476       19458                       IF    CPGFLG3.CPFKWENT,BEGIN  Password on saved acct...
 00200A D204 6177 B1B8 00177 001B8 19474  1                      MVC   HCBUSER2(5),CPUSERSV  Move in saved usr & grp
 002010                            19475                       END
 002010 D502 70E5 BD24_0207D 00D24 19479                       IF    (CPCMNM,EQ,'LPR'),'MVC HCBUSER2(5),CVWYLACC'  LPRINT
                                   19502
 002020 D207 6160 BA19 00160 00A19 19503                       MVC   HCBJOBNM,CPJOBS     Move in jobno's
 002026 9640 616C      0016C       19504                       OI    HCBFLAGS,HCBJOBNO     and indicate that to JES
                                   19505
                                   19506                       COMMENT                   SET UP CMD SCAN BUFFER
 00202A 4BD0 70DC/9801_      02074 19507                       XPOP  R0,R1
 002032 5900 70D8/47D0_      02070 19510                       CEIL  R0,HCBTEXTL         Not too long
 00203E 4000 615E            0015E 19529                       STH   R0,HCBLEN           Store length of HCBTEXT
 002042 1240                       19530                       LTR   R4,R0               Has the scan completed?
 002044 47D0 70B6            0204E 19531                       BNP   HCBMVCSK            Yes - skip command move
 002048 0640/4440 70E8_            19532                       DEX   R4,'MVC HCBTEXT(0),@R1'  move in command
 00204E 5000 6044            00044 19551              HCBMVCSK ST    R0,JWACMDL          Save length
 002052 4A00 70DE            02076 19552                       AH    R0,=AL2(HCBTEXT-HRDWSTRT)  bump for fixed stuff
 002056 4000 6158            00158 19553                       STH   R0,HRDWLEN          Save xact len in rdw
 00205A 4110 6191            00191 19554                       LA    R1,HCBTEXT          Start of text
 00205E 5010 6040            00040 19555                       ST    R1,JWACMD           Save that also
1JES      (JES2010) (12:47) (15MAR04) JES Work Area Initialization Routine                                                  Page   46
0Current Usings:  (JWA,R6) (*,R7) (CP,R11) (CV,R12)
0Loc    Object Code    Addr1 Addr2  Stmt Lv Lineno    Source Statement           (Hibal 5, Asmedit 3.3)  HLASM R4.0  2004/03/15 12.47
+___    ______ ____    _____ _____  ____ __ ______    ______ _________
0002062                            19556              JWAINITX LABEL ,                   Return
 002062 18D8/9808 D004_            19558                       PEND
 DROP   *,R7
 DROP   JWA,R6                     19578                       DROP  R6
                                   19585
                                   19586                       QLTORG
1JES      (JES2010) (12:47) (15MAR04) SET/SHOW JES Commands                                                                 Page   47
0Current Usings:  (CP,R11) (CV,R12)
0Loc    Object Code    Addr1 Addr2  Stmt Lv Lineno    Source Statement           (Hibal 5, Asmedit 3.3)  HLASM R4.0  2004/03/15 12.47
+___    ______ ____    _____ _____  ____ __ ______    ______ _________
0000000                00000 00035 19604              JESWA    RECORD BEGIN
 000000 00                         19612  1           JESOFLG    FLAG
 JESOFLG.JESFOP    80 ONES         19616  1                      FLAG  JESFOP              - at least one option specified
 JESOFLG.JESFSYS   40 ONES         19621  1                      FLAG  JESFSYS             - system request
                                   19626  1
                                   19627  1                        JESINF is a copy of CPJESINF in the control page.
                                   19628  1
 000004                            19629  1                      DS    0F
 000004 00                         19630  1           JESHFL     FLAG
 JESHFL.JESTER     80 ONES         19634  1                      FLAG  JESTER              - JES terse mode
 JESHFL.JESFPRIV   40 ONES         19639  1                      FLAG  JESFPRIV            - Privd jes use allowed
                                   19644  1
 000005 00                         19645  1           JESFLGX    FLAG
 JESFLGX.JESFNRUN  80 ONES         19649  1                      FLAG  JESFNRUN            - Norun
 JESFLGX.JESFHOLD  40 ONES         19654  1                      FLAG  JESFHOLD            - Hold
 JESFLGX.JESFXHLD  20 ONES         19659  1                      FLAG  JESFXHLD            - Xhold
 JESFLGX.JESFNTFY  10 ONES         19664  1                      FLAG  JESFNTFY            - Notify
 JESFLGX.JESFFRCE  08 ONES         19669  1                      FLAG  JESFFRCE            - Force
 JESFLGX.JESFNOPT  04 ONES         19674  1                      FLAG  JESFNOPT            - Numbering options explicit
 JESFLGX.JESFUNN   02 ONES         19679  1                      FLAG  JESFUNN             - Unnumbered
 JESFLGX.JESFDBUG  01 ONES         19684  1                      FLAG  JESFDBUG            - Debug
                                   19689  1
 000006                            19690  1           JESJSYS    DS    CL8                 Sysaff
 00000E                            19691  1           JESJDEST   DS    CL8                 Destination
 000016                            19692  1           JESJBIN    DS    CL3                 Bin
 000019                            19693  1           JESJFORM   DS    CL8                 Forms
                                   19694  1
 000021 00                         19695  1           JESFLGY    FLAG  ,
 JESFLGY.JESFNTFX  80 ONES         19699  1                      FLAG  JESFNTFX            - Notify option explict
 JESFLGY.JESFHOLX  40 ONES         19704  1                      FLAG  JESFHOLX            - Hold print option explicit
 JESFLGY.JESFXHOX  20 ONES         19709  1                      FLAG  JESFXHOX            - Hold execution option explicit
                                   19714  1
 000022                            19715  1                      DS    XL3                 Reserved
 000025                            19716  1           JESJPFX    DS    CL8                 Job prefix
 00002E                            19717  1           JESJNO     DS    H                   User job count
 000030                            19718  1           JESNACCT   DS    CL5                 Notify account
                                   19719  1           JESINF     EQU   JESHFL,*-JESHFL,C'X'
                                   19720  1
 000035                            19721  1                      DS    0SL2(L'JESINF-L'CPJESINF,L'CPJESINF-L'JESINF)  Verify
 000035                00035 00035 19722                       END
-                                  19732
                                   19733
                                   19734                SETJES -- SET JES command.
                                   19735

0002086 50E0 D000/9008_      00000 19736              SETJES   XPROC JESWA
 USING  *,R7
 USING  JESWA-(4+36),R8
 0020A0 4160 8028            00000 19787                       LA    R6,JESWA
 USING  JESWA,R6                   19788                       USING JESWA,R6
 0020A4 D734 6000 6000 00000 00000 19797                       CLEAR JESWA
1JES      (JES2010) (12:47) (15MAR04) SET/SHOW JES Commands                                                                 Page   48
0Current Usings:  (JESWA,R6) (*,R7) (JESWA-(4+36),R8) (CP,R11) (CV,R12)
0Loc    Object Code    Addr1 Addr2  Stmt Lv Lineno    Source Statement           (Hibal 5, Asmedit 3.3)  HLASM R4.0  2004/03/15 12.47
+___    ______ ____    _____ _____  ____ __ ______    ______ _________
0                                  19804
 0020AA D230 6004 B9E0 00004 009E0 19805                       MVC   JESINF,CPJESINF     Copy of JES options
 0020B0 5810 B08C/1B00_      0008C 19806                       SCAN  JESPRT
 002102 58E0 76D8/0DEE       02778 19838                       SCANCHK
 002108 9140 6000/47E0_00000       19843                       IF    JESFSYS,BEGIN       System option...
 002110 4110 76FE/4100_      0279E 19858  1                      TSEG  'Job submission has been',,B
 002122 4110 76C0/4100_      02760 19876  1                      SETMSG 'enabled.'
 00212A 9180 6005/47E0_00005       19880  1                      IF    JESFNRUN,'SETMSG "disabled."'
 00213A 41F0 B050/58E0_      00050 19904  1                      TSEG  (R1),(R0),WR
                                   19928  1
 002144 4110 76EE/4100_      0278E 19929  1                      SEG   'Job submission',,L:CVWTOSGP
 002156 4110 771E/4100_      027BE 19944  1                      SETMSG 'enabled'
 00215E 9180 6005/47E0_00005       19948  1                      IF    JESFNRUN,'SETMSG "disabled"'
 00216E 58F0 C748/58E0_      00748 19972  1                      SEG   (R1),(R0)
 002178 4110 76E8/4100_      02788 19993  1                      SEG   ' by '
 00218A 4110 B3B7/4100_      003B7 20008  1                      SEG   CPSGRP
 00219C 4110 7725/4100_      027C5 20033  1                      SEG   '.'
 0021AE 4110 B3B4/4100_      003B4 20048  1                      SEG   CPSUSER
 0021C0 1B00/58F0 C748_            20073  1                      XWTO
                                   20096  1
 0021CC 947F B9E1      009E1       20097  1                      CLEAR CPJFNRUN            Make sure user run is set
 0021D0 947F C4CA      004CA       20104  1                      CLEAR CVJFNRUN
 0021D4 9180 6005/47E0_00005       20111  1                      IF    JESFNRUN,'SET CVJFNRUN'
 0021E0 47F0 C7DE            007DE 20137  1                      B     CVNEXT
 0021E4                            20138                       END
                                   20142
 0021E4 9110 BD54/47E0_00D54       20143                       IF    CPLFLG5.CPFFOPT,BEGIN
 0021EC 9680 6000/9604_00000       20159  1                      SET   JESFOP,JESFNOPT
 0021F4 94FD 6005      00005       20169  1                      CLEAR JESFUNN
 0021F8 9180 BD54/47E0_00D54       20176  1                      IF    CPLFLG5.CPFUNUM,'SET JESFUNN'
 002204                            20203                       END
                                   20207
 002204 9180 6000/4710_00000       20208                       IF    ~JESFOP,'CLEAR JESINF; SET JESFFRCE; MVC JESJNO,=H"-1"'
                                   20242
 00221C D230 B9E0 6004 009E0 00004 20243                       MVC   CPJESINF,JESINF     Set new JES stuff
 002222 47F0 C7DE            007DE 20244                       B     CVNEXT
 002226 18D8/9808 D004_            20245                       PEND
 DROP   JESWA-(4+36),R8
 DROP   *,R7
1JES      (JES2010) (12:47) (15MAR04) SET/SHOW JES Commands                                                                 Page   49
0Current Usings:  (JESWA,R6) (CP,R11) (CV,R12)
0Loc    Object Code    Addr1 Addr2  Stmt Lv Lineno    Source Statement           (Hibal 5, Asmedit 3.3)  HLASM R4.0  2004/03/15 12.47
+___    ______ ____    _____ _____  ____ __ ______    ______ _________
0002234 E3C5D9E2C5404040_          20271              JESPRT   SCKW  TERSE,JESTERSE,A
 00225C E5C5D9C2D6E2C540_          20286                       SCKW  VERBOSE,JESVERB,A
 002284 D9E4D54040404040_          20301                       SCKW  RUN,JESRUN
 0022AC D5D6D9E4D5404040_          20316                       SCKW  NORUN,JESNRUN,A
 0022D4 C8D6D3C440404040_          20331                       SCKW  HOLD,JESHOLD,A
 0022FC D5D6C8D6D3C44040_          20346                       SCKW  NOHOLD,JESNHOLD,A
 002324 E7C8D6D3C4404040_          20361                       SCKW  XHOLD,JESXHOLD,A
 00234C D5D6E7C8D6D3C440_          20376                       SCKW  NOXHOLD,JESNXHLD,A
 002374 D5D6E3C9C6E84040_          20391                       SCKW  NOTIFY,JESNTFY,A
 00239C D5D6D5D6E3C9C6E8_          20406                       SCKW  NONOTIFY,JESNONT,A
 0023C4 E2E8E2C1C6C64040_          20421                       SCKW  SYSAFF,JESSYS,(A,P)
 0023EC C4C5E2E3C9D5C1E3_          20436                       SCKW  DESTINATION,JESDEST,(A,P)
 002414 C2C9D54040404040_          20451                       SCKW  BIN,JESBIN,(A,P)
 00243C C6D6D9D4E2404040_          20466                       SCKW  FORMS,JESFORMS,(A,P)
 002464 D7D9C5C6C9E74040_          20481                       SCKW  PREFIX,JESPFX,(A,P)
 00248C D5D6D7D9C5C6C9E7_          20496                       SCKW  NOPREFIX,JESNOPRE,A
 0024B4 C3D6E4D5E3404040_          20511                       SCKW  COUNT,JESCOUNT,(A,P,I),32767
 0024DC C4C5C2E4C7404040_          20526                       SCKW  DEBUG,JESDEBUG,A
 002504 D5D6C4C5C2E4C740_          20541                       SCKW  NODEBUG,JESNOBUG,A
 00252C E2E4C2D4C9E34040_          20556                       SCKW  SUBMIT,JESSKIP,A    Ignored -- compatability
 002554 C3C8C5C3D2404040_          20571                       SCKW  CHECK,JESSKIP,A     Ignored -- compatability
 00257C C3C8D24040404040_          20586                       SCKW  CHK,JESSKIP,A       Ignored -- compatability
 0025A4 D5D6C3C8C5C3D240_          20601                       SCKW  NOCHECK,JESSKIP,A   Ignored -- compatability
 0025CC D5D6C3C8D2404040_          20616                       SCKW  NOCHK,JESSKIP       Ignored -- compatability
 0025F4 D6E4E3D7E4E34040_          20631                       SCKW  OUTPUT,JESSKIP,A    Ignored -- compatability
 00261C D1D6C2D5C1D4C540_          20646                       SCKW  JOBNAME,JESJOBNM    Compatability
 002644 C1D5E84040404040_          20661                       SCKW  ANY,JESJANY         Compatability
 00266C D1D6C2D5E4D4C2C5_          20676                       SCKW  JOBNUMBER,JESJOB,(A,P,I),32767
 002694 E2E8E2E3C5D44040_          20691                       SCKW  SYSTEM,JESSYST,A
 0026BC D7D9C9E5C9D3C5C7_          20706                       SCKW  PRIVILEGE,JESPRIV,A
 0026E4 D5D6D7D9C9E5C9D3_          20721                       SCKW  NOPRIVILEGE,JESNPRIV,A
 00270C 4040404040404040_          20736                       SCKW  ,V(NUMPSH),PUSH
 002734 4040404040404040_          20751                       SCKW  ,V(NOTVALID)
                                   20766
                                   20767                       QLTORG
                                   20795
 0027C6 50E0 D000/9008_      00000 20796              JESSKIP  PROC  ,
 USING  *,R7
 0027E0 9680 6000      00000       20835                       SET   JESFOP
 0027E4 18D8/9808 D004_            20841                       PEND
 DROP   *,R7
                                   20861
 0027F2 50E0 D000/9008_      00000 20862              JESTERSE PROC  ,
 USING  *,R7
 00280C 9680 6000/9680_00000       20901                       SET   JESFOP,JESTER
 002814 18D8/9808 D004_            20911                       PEND
 DROP   *,R7
                                   20931
 002822 50E0 D000/9008_      00000 20932              JESVERB  PROC  ,
 USING  *,R7
 00283C 9680 6000/947F_00000       20971                       SET   JESFOP,(JESTER,OFF)
 002844 18D8/9808 D004_            20982                       PEND
 DROP   *,R7
                                   21002
1JES      (JES2010) (12:47) (15MAR04) SET/SHOW JES Commands                                                                 Page   50
0Current Usings:  (JESWA,R6) (*,R7) (CP,R11) (CV,R12)
0Loc    Object Code    Addr1 Addr2  Stmt Lv Lineno    Source Statement           (Hibal 5, Asmedit 3.3)  HLASM R4.0  2004/03/15 12.47
+___    ______ ____    _____ _____  ____ __ ______    ______ _________
0002852 50E0 D000/9008_      00000 21003              JESRUN   PROC  ,
 USING  *,R7
 00286C 9680 6000/947F_00000       21042                       SET   JESFOP,(JESFNRUN,OFF)
 002874 18D8/9808 D004_            21053                       PEND
 DROP   *,R7
                                   21073
 002882 50E0 D000/9008_      00000 21074              JESNRUN  PROC  ,
 USING  *,R7
 00289C 9680 6000/9680_00000       21113                       SET   JESFOP,JESFNRUN
 0028A4 18D8/9808 D004_            21123                       PEND
 DROP   *,R7
                                   21143
 0028B2 50E0 D000/9008_      00000 21144              JESHOLD  PROC  ,
 USING  *,R7
 0028CC 9680 6000/9640_00000       21183                       SET   JESFOP,JESFHOLD,JESFHOLX
 0028D8 18D8/9808 D004_            21197                       PEND
 DROP   *,R7
                                   21217
 0028E6 50E0 D000/9008_      00000 21218              JESNHOLD PROC  ,
 USING  *,R7
 002900 9680 6000/94BF_00000       21257                       SET   JESFOP,(JESFHOLD,OFF),JESFHOLX
 00290C 18D8/9808 D004_            21272                       PEND
 DROP   *,R7
                                   21292
 00291A 50E0 D000/9008_      00000 21293              JESXHOLD PROC  ,
 USING  *,R7
 002934 9680 6000/9620_00000       21332                       SET   JESFOP,JESFXHLD,JESFXHOX
 002940 18D8/9808 D004_            21346                       PEND
 DROP   *,R7
                                   21366
 00294E 50E0 D000/9008_      00000 21367              JESNXHLD PROC  ,
 USING  *,R7
 002968 9680 6000/94DF_00000       21406                       SET   JESFOP,(JESFXHLD,OFF),JESFXHOX
 002974 18D8/9808 D004_            21421                       PEND
 DROP   *,R7
                                   21441
 002982 50E0 D000/9008_      00000 21442              JESNTFY  PROC  ,
 USING  *,R7
 00299C 9680 6000/9610_00000       21481                       SET   JESFOP,JESFNTFY,JESFNTFX
 0029A8 58E0 7AAC/0DEE       03448 21495                       ACALL JESNCOM
 0029AE 18D8/9808 D004_            21499                       PEND  ,
 DROP   *,R7
                                   21519
 0029BC 50E0 D000/9008_      00000 21520              JESNONT  PROC  ,
 USING  *,R7
 0029D6 9680 6000/94EF_00000       21559                       SET   JESFOP,(JESFNTFY,OFF),JESFNTFX
 0029E2 58E0 7A72/0DEE       03448 21574                       ACALL JESNCOM
 0029E8 18D8/9808 D004_            21578                       PEND  ,
 DROP   *,R7
                                   21598
 0029F6 50E0 D000/9008_      00000 21599              JESNCOM  PROC  ,
 USING  *,R7
 002A10 D704 6030 6030 00030 00030 21638                       CLEAR JESNACCT
 002A16 5810 B08C/1B00_      0008C 21645                       SCAN
1JES      (JES2010) (12:47) (15MAR04) SET/SHOW JES Commands                                                                 Page   51
0Current Usings:  (JESWA,R6) (*,R7) (CP,R11) (CV,R12)
0Loc    Object Code    Addr1 Addr2  Stmt Lv Lineno    Source Statement           (Hibal 5, Asmedit 3.3)  HLASM R4.0  2004/03/15 12.47
+___    ______ ____    _____ _____  ____ __ ______    ______ _________
0002A64 58E0 7A40/0DEE       03450 21676                       SCANCHK
 002A6A 1200/4780 7098             21681                       IF    (R0,NZ),BEGIN
 002A70 5900 7A44/4770_      03454 21695  1                      IF    (R0,NE,6),EXIT
 002A78 954B 1002/4770_00002       21715  1                      IF    (@R1+2,EQ,'.'),BEGIN  gg.uuu...
 002A80 D202 6030 1003 00030 00003 21731  2                        MVC   JESNACCT(3),@R1+3
 002A86 D201 6033 1000 00033 00000 21732  2                        MVC   JESNACCT+3(2),@R1
 002A8C 47F0 70CE            02ADE 21733  2                        B     JCOMDONE
 002A90                            21734  1                      END
 002A90 955B 1003/4770_00003       21738  1                      IF    (@R1+3,EQ,'$'),BEGIN  uuu$gg...
 002A98 D202 6030 1000 00030 00000 21754  2                        MVC   JESNACCT(3),@R1
 002A9E D201 6033 1004 00033 00004 21755  2                        MVC   JESNACCT+3(2),@R1+4
 002AA4 47F0 70CE            02ADE 21756  2                        B     JCOMDONE
 002AA8                            21757  1                      END
 002AA8                            21761                       END
 002AA8 58E0 B08C/58FE_      0008C 21765                       SCBKUP
 002ADE                            21821              JCOMDONE LABEL ,
 002ADE 1BFF                       21823                       CLEAR R15
 002AE0 18D8/9808 D004_            21827                       PEND
 DROP   *,R7
                                   21847
 002AEE 50E0 D000/9008_      00000 21848              JESSYS   PROC  ,
 USING  *,R7
 002B08 9680 6000      00000       21887                       SET   JESFOP
 002B0C 957D 1000/4780_00000       21893                       IF    ((@R1,EQ,''''),OR,(@R1,EQ,'"')),'VCALL NOTVALID'
 002B22 954D 1000/4770_00000       21933                       IF    (@R1,EQ,'('),'VCALL NOTVALID'
 002B30 5900 7954/47D0_      0345C 21958                       IF    (R0,GT,L'JESJSYS),'VCALL NOTVALID'
                                   21984
 002B3E 5810 B08C/4111_      0008C 21985                       SCUPTOK (R1)
 002B46 D207 6006 1000 00006 00000 21989                       MVC   JESJSYS,@R1
 002B4C 1BFF                       21990                       CLEAR R15
 002B4E 18D8/9808 D004_            21994                       PEND  ,
 DROP   *,R7
                                   22014
 002B5C 50E0 D000/9008_      00000 22015              JESDEST  PROC  ,
 USING  *,R7
 002B76 9680 6000      00000       22054                       SET   JESFOP
 002B7A 957D 1000/4780_00000       22060                       IF    ((@R1,EQ,''''),OR,(@R1,EQ,'"')),'VCALL NOTVALID'
 002B90 954D 1000/4770_00000       22100                       IF    (@R1,EQ,'('),'VCALL NOTVALID'
 002B9E 5900 78EA/47D0_      03460 22125                       IF    (R0,GT,L'JESJDEST),'VCALL NOTVALID'
 002BAC 5810 B08C/4111_      0008C 22151                       SCUPTOK (R1)
 002BB4 D207 600E 1000 0000E 00000 22155                       MVC   JESJDEST,@R1
 002BBA 4110 600E            0000E 22156                       LA    R1,JESJDEST
 002BBE 58E0 78EE/0DEE       03464 22157                       ACALL DESTVER             Check dest
 002BC4 1BFF                       22161                       CLEAR  R15
 002BC6 18D8/9808 D004_            22165                       PEND
 DROP   *,R7
                                   22185
 002BD4 50E0 D000/9008_      00000 22186              JESBIN   PROC  ,
 USING  *,R7
 002BEE 9680 6000      00000       22225                       SET   JESFOP
 002BF2 957D 1000/4780_00000       22231                       IF    ((@R1,EQ,''''),OR,(@R1,EQ,'"')),'VCALL NOTVALID'
 002C08 954D 1000/4770_00000       22271                       IF    (@R1,EQ,'('),'VCALL NOTVALID'
 002C16 5900 787A/47D0_      03468 22296                       IF    (R0,GT,L'JESJBIN),'VCALL NOTVALID'
 002C24 5810 B08C/4111_      0008C 22322                       SCUPTOK (R1)
1JES      (JES2010) (12:47) (15MAR04) SET/SHOW JES Commands                                                                 Page   52
0Current Usings:  (JESWA,R6) (*,R7) (CP,R11) (CV,R12)
0Loc    Object Code    Addr1 Addr2  Stmt Lv Lineno    Source Statement           (Hibal 5, Asmedit 3.3)  HLASM R4.0  2004/03/15 12.47
+___    ______ ____    _____ _____  ____ __ ______    ______ _________
0002C2C D202 6016 1000 00016 00000 22326                       MVC    JESJBIN,@R1
 002C32 1BFF                       22327                       CLEAR  R15
 002C34 18D8/9808 D004_            22331                       PEND
 DROP   *,R7
                                   22351
 002C42 50E0 D000/9008_      00000 22352              JESFORMS PROC  ,
 USING  *,R7
 002C5C 9680 6000      00000       22391                       SET   JESFOP
 002C60 957D 1000/4780_00000       22397                       IF    ((@R1,EQ,''''),OR,(@R1,EQ,'"')),'VCALL NOTVALID'
 002C76 954D 1000/4770_00000       22437                       IF    (@R1,EQ,'('),'VCALL NOTVALID'
 002C84 5900 7810/47D0_      0346C 22462                       IF    (R0,GT,L'JESJFORM),'VCALL NOTVALID'
 002C92 5810 B08C/4111_      0008C 22488                       SCUPTOK (R1)
 002C9A D207 6019 1000 00019 00000 22492                       MVC   JESJFORM,@R1
 002CA0 D502 78AA 6019_03506 00019 22493                       IF    (JESJFORM,EQ,'SEL'),BEGIN
 002CAA 4110 78AD/4100_      03509 22510  1                      TSEG  'SELF is not a forms code.  '
 002CBC 4110 78C8/4100_      03524 22528  1                      ERROR 'Use DEST=SELF for the self-service printer.'
 002CC8                            22535                       END
 002CC8 1BFF                       22539                       CLEAR  R15
 002CCA 18D8/9808 D004_            22543                       PEND
 DROP   *,R7
                                   22563
 002CD8 50E0 D000/9008_      00000 22564              JESPFX   PROC  ,
 USING  *,R7
 002CF2 9680 6000      00000       22603                       SET   JESFOP
 002CF6 957D 1000/4780_00000       22609                       IF    ((@R1,EQ,''''),OR,(@R1,EQ,'"')),'VCALL NOTVALID'
 002D0C 954D 1000/4770_00000       22649                       IF    (@R1,EQ,'('),'VCALL NOTVALID'
 002D1A 5900 7782/47D0_      03474 22674                       IF    (R0,GT,L'JESJPFX),'VCALL NOTVALID'
 002D28 5810 B08C/4111_      0008C 22700                       SCUPTOK (R1)
 002D30 D207 6025 1000 00025 00000 22704                       MVC   JESJPFX,@R1
 002D36 58E0 7786/0DEE       03478 22705                       VCALL CHARCHKA
 002D3C 47D0 706A            02D5C 22709                       IF    POS,BEGIN           Bad chars in prefix...
 002D40 41F0 B050/58E0_      00050 22720  1                      TSEG  (R1),(R0)
 002D4A D207 B886 773E_00886 03430 22744  1                      ERROR ': invalid characters in prefix.',,INVCHARS
 002D5C                            22752                       END
 002D5C 1BFF                       22756                       CLEAR  R15
 002D5E 18D8/9808 D004_            22760                       PEND  ,
 DROP   *,R7
                                   22780
 002D6C 50E0 D000/9008_      00000 22781              JESNOPRE PROC  ,
 USING  *,R7
 002D86 9680 6000      00000       22820                       SET   JESFOP
 002D8A D707 6025 6025 00025 00025 22826                       CLEAR JESJPFX             Clear the jobname prefix
 002D90 18D8/9808 D004_            22833                       PEND
 DROP   *,R7
                                   22853
 002D9E 50E0 D000/9008_      00000 22854              JESCOUNT PROC  ,
 USING  *,R7
 002DB8 9680 6000      00000       22893                       SET   JESFOP
 002DBC 4000 602E            0002E 22899                       STH   R0,JESJNO
 002DC0 18D8/9808 D004_            22900                       PEND
 DROP   *,R7
                                   22920
 002DCE 50E0 D000/9008_      00000 22921              JESDEBUG PROC  ,
 USING  *,R7
1JES      (JES2010) (12:47) (15MAR04) SET/SHOW JES Commands                                                                 Page   53
0Current Usings:  (JESWA,R6) (*,R7) (CP,R11) (CV,R12)
0Loc    Object Code    Addr1 Addr2  Stmt Lv Lineno    Source Statement           (Hibal 5, Asmedit 3.3)  HLASM R4.0  2004/03/15 12.47
+___    ______ ____    _____ _____  ____ __ ______    ______ _________
0002DE8 9680 6000/9601_00000       22960                       SET   JESFOP,JESFDBUG
 002DF0 18D8/9808 D004_            22970                       PEND
 DROP   *,R7
                                   22990
 002DFE 50E0 D000/9008_      00000 22991              JESNOBUG PROC  ,
 USING  *,R7
 002E18 9680 6000/94FE_00000       23030                       SET   JESFOP,(JESFDBUG,OFF)
 002E20 18D8/9808 D004_            23041                       PEND
 DROP   *,R7
                                   23061
 002E2E 50E0 D000/9008_      00000 23062              JESJOBNM PROC  ,
 USING  *,R7
 002E48 9680 6000/9608_00000       23101                       SET   JESFOP,JESFFRCE
 002E50 18D8/9808 D004_            23111                       PEND
 DROP   *,R7
                                   23131
 002E5E 50E0 D000/9008_      00000 23132              JESJANY  PROC  ,
 USING  *,R7
 002E78 9680 6000/94F7_00000       23171                       SET   JESFOP,(JESFFRCE,OFF)
 002E80 18D8/9808 D004_            23182                       PEND
 DROP   *,R7
                                   23202
 002E8E 50E0 D000/9008_      00000 23203              JESJOB   PROC  ,
 USING  *,R7
 002EA8 9680 6000      00000       23242                       SET   JESFOP
 002EAC D707 BA19 BA19 00A19 00A19 23248                       CLEAR CPJOBS              Clear the stack
 002EB2 4000BA19                   23255                       ST2   R0,CPJOBS          Stack the job number
 002EB6 18D8/9808 D004_            23257                       PEND
 DROP   *,R7
                                   23277
 002EC4 50E0 D000/9008_      00000 23278              JESSYST  PROC  ,
 USING  *,R7
 002EDE 9110 B3BE/4710_003BE       23317                       IF    ~CPSFOPR,'VCALL NOTVALID'
 002EEC 9640 6000      00000       23341                       SET   JESFSYS
 002EF0 18D8/9808 D004_            23347                       PEND
 DROP   *,R7
                                   23367
 002EFE 50E0 D000/9008_      00000 23368              JESPRIV  PROC  ,
 USING  *,R7
 002F18 9120 B3BE/4710_003BE       23407                       IF    ~CPSFSPR,'VCALL NOTVALID'
 002F26 9680 6000/9640_00000       23431                       SET   JESFOP,JESFPRIV     Allow JES function if priv'd
 002F2E 18D8/9808 D004_            23441                       PEND
 DROP   *,R7
                                   23461
 002F3C 50E0 D000/9008_      00000 23462              JESNPRIV PROC  ,
 USING  *,R7
 002F56 9120 B3BE/4710_003BE       23501                       IF    ~CPSFSPR,'VCALL NOTVALID'
 002F64 9680 6000/94BF_00000       23525                       SET   JESFOP,(JESFPRIV,OFF)  Disallow priv'd JES function
 002F6C 18D8/9808 D004_            23536                       PEND
 DROP   *,R7
                                   23556
 DROP   JESWA,R6                   23557                       DROP  R6
1JES      (JES2010) (12:47) (15MAR04) SHOW JES Command                                                                      Page   54
0Current Usings:  (CP,R11) (CV,R12)
0Loc    Object Code    Addr1 Addr2  Stmt Lv Lineno    Source Statement           (Hibal 5, Asmedit 3.3)  HLASM R4.0  2004/03/15 12.47
+___    ______ ____    _____ _____  ____ __ ______    ______ _________
0                                  23565
                                   23566
                                   23567                SHOWJES -- SHOW JES command.
                                   23568                JESDISP - Subroutine (called by SHOW OPTIONS).
                                   23569

0002F7A 50E0 D000/9008_      00000 23570              SHOWJES  XPROC
 USING  *,R7
 002F94 58E0 74E8/0DEE       0347C 23610                       VCALL COLLOPTS            Allow collect options
 002F9A 58E0 74EC/0DEE       03480 23614                       ACALL JESDISP
 002FA0 58E0 74F0/0DEE       03484 23618                       ACALL JESDISP2            Display any job numbers
 002FA6 47F0 C7DE            007DE 23622                       B     CVNEXT
 002FAA 18D8/9808 D004_            23623                       PEND  ,
 DROP   *,R7
-002FB8 50E0 D000/9008_      00000 23644              JESDISP  XPROC
 USING  *,R7
 002FD2 9101 B9E1/47E0_009E1       23684                       IF    CPJFDBUG,'TSEG "DEBUG "'
 002FEC 9140 B9E0/47E0_009E0       23722                       IF    CPJFPRIV,'TSEG "PRIVILEGED "'
 003006 4110 7466/4100_      03438 23760                       SETMSG 'VERBOSE '
 00300E 9180 B9E0/47E0_009E0       23764                       IF    CPJFTER,'SETMSG "TERSE "'
 00301E 41F0 B050/58E0_      00050 23788                       TSEG  (R1),(R0)
                                   23812
 003028 9180 B9E1/47E0_009E1       23813                       IF    CPJFNRUN,'TSEG "NO"'
 003042 4110 74B6/4100_      03488 23851                       TSEG  'RUN '
                                   23869
 003054 9180 B9FD/47E0_009FD       23870                       IF    CPJFNTFX,BEGIN
 00305C 9110 B9E1/4710_009E1       23885  1                      IF    ~CPJFNTFY,'TSEG "NO"'
 003076 4110 74F6/4100_      034C8 23923  1                      TSEG  'NOTIFY'
 003088 D604 BA0C BA0C_00A0C 00A0C 23941  1                      IF    (CPJNACCT,NZ),BEGIN
 003092 4110 75A7/4100_      03579 23957  2                        TSEG  '='
 0030A4 4110 BA0F/4100_      00A0F 23975  2                        TSEG  CPJNACCT+3,2        Gg
 0030B6 4110 75A8/4100_      0357A 24005  2                        TSEG  '.'
 0030C8 4110 BA0C/4100_      00A0C 24023  2                        TSEG  CPJNACCT,3          Uuu
 0030DA                            24053  1                      END
 0030DA 4110 C4D8/4100_      004D8 24057  1                      TSEG  CVBLANKS,1
 0030EC                            24087                       END
                                   24091
 0030EC 9140 B9FD/47E0_009FD       24092                       IF    CPJFHOLX,BEGIN
 0030F4 9140 B9E1/4710_009E1       24107  1                      IF    ~CPJFHOLD,'TSEG "NO"'
 00310E 4110 74BA/4100_      0348C 24145  1                      TSEG  'HOLD',,B
 003120                            24163                       END
                                   24167
 003120 9120 B9FD/47E0_009FD       24168                       IF    CPJFXHOX,BEGIN
 003128 9120 B9E1/4710_009E1       24183  1                      IF    ~CPJFXHLD,'TSEG "NO"'
 003142 4110 75A9/4100_      0357B 24221  1                      TSEG  'XHOLD',,B
 003154                            24239                       END
                                   24243
 003154 9108 B9E1/4710_009E1       24244                       IF    ~CPJFFRCE,'TSEG "JOBNAME=ANY",,B'
                                   24282
 00316E 9104 B9E1/47E0_009E1       24283                       IF    CPJFNOPT,BEGIN
 003176 9102 B9E1/47E0_009E1       24298  1                      IF    CPJFUNN,'TSEG "UN"'
1JES      (JES2010) (12:47) (15MAR04) SHOW JES Command                                                                      Page   55
0Current Usings:  (*,R7) (CP,R11) (CV,R12)
0Loc    Object Code    Addr1 Addr2  Stmt Lv Lineno    Source Statement           (Hibal 5, Asmedit 3.3)  HLASM R4.0  2004/03/15 12.47
+___    ______ ____    _____ _____  ____ __ ______    ______ _________
0003190 4110 746E/4100_      03440 24336  1                      TSEG  'NUMBERED',,B
 0031A2                            24354                       END
                                   24358
 0031A2 D607 BA01 BA01_00A01 00A01 24359                       IF    (CPJPFX,NZ),BEGIN
 0031AC 4110 75B9/4100_      0358B 24375  1                      TSEG  'PREFIX='
 0031BE 4110 BA01/4100_      00A01 24393  1                      SETMSG CPJPFX
 0031C6 58E0 74C2/0DEE       03494 24407  1                      VCALL LRTRIM
 0031CC 41F0 B050/58E0_      00050 24411  1                      TSEG  (R1),(R0),B
 0031D6                            24435                       END
                                   24439
 0031D6 D501 74FE BA0A_034D0 00A0A 24440                       IF    (CPJNO,NE,-1),BEGIN
 0031E0 4110 7500/4100_      034D2 24458  1                      TSEG  'COUNT='
 0031F2 48F0 BA0A/1B00_      00A0A 24476  1                      BTD   CPDOUB,0,LH:CPJNO
 003202 41F0 B050/58E0_      00050 24495  1                      TSEG  (R1),(R0),B
 00320C                            24519                       END
                                   24523
 00320C D607 B9E2 B9E2_009E2 009E2 24524                       IF    (CPSYSAFF,NZ),'TSEG "SYSAFF="; TSEG CPSYSAFF,,TB'
                                   24591
 00323A D607 B9EA B9EA_009EA 009EA 24592                       IF    (CPDEST,NZ),'TSEG "DEST="; TSEG CPDEST,,TB'
                                   24659
 003268 D602 B9F2 B9F2_009F2 009F2 24660                       IF    (CPBIN,NZ),'TSEG "BIN="; TSEG CPBIN,,TB'
                                   24727
 003296 D607 B9F5 B9F5_009F5 009F5 24728                       IF    (CPFORMS,NZ),'TSEG "FORMS="; TSEG CPFORMS,,TB'
                                   24795
 0032C4 4110 75CC/4100_      0359E 24796                       TSEG  '- JES options ('
 0032D6 4110 C014/4100_      00014 24814                       SETMSG CVJES
 0032DE 58E0 74C2/0DEE       03494 24828                       VCALL LRTRIM
 0032E4 41F0 B050/58E0_      00050 24832                       TSEG  (R1),(R0),B
 0032EE 58E0 74D2/0DEE       034A4 24856                       ACALL JESCHK              what's up?
 0032F4 4110 750C/4100_      034DE 24860                       SETMSG 'is available.)'
 0032FC 9180 C4CA/47E0_004CA       24864                       IF    CVJFNRUN,'SETMSG "job submission disabled.)"'
 00330C 12FF/4780 7348_            24888                       IF    (R15,NZ),'SETMSG "is not active.)"'
 00331A 41F0 B050/58E0_      00050 24911                       TSEG  (R1),(R0),CR
 003324 18D8/9808 D004_            24935                       PEND
 DROP   *,R7
-
0003332 50E0 D000/9008_      00000 24956              JESDISP2 XPROC
 USING  *,R7
 00334C D607 BA19 BA19_00A19 00A19 24996                       IF    (CPJOBS,NZ),BEGIN
 003356 4110 71A0/4100_      034EC 25012  1                      TSEG  'Known JES2 jobnumbers:',,B
 003368 1B00/1B22/1B33             25030  1                      CLEAR R0,R2,R3            Clear work regs
 00336E 5920 7160/47A0_      034AC 25038  1                      UNTIL (R2,GE,4),BEGIN
 003376 41F3 BA19            00A19 25060  2                        LA    R15,CPJOBS(R3)      Point to job number
 00337A 1F44/BF43 F000             25061  2                        L2    R4,0(R15)           Load job number
 003380 1244/4780 70CA             25069  2                        IF    (R4,Z),EXIT         All done
 003386 1200/4780 704A_            25086  2                        IF    (R0,NZ),'TSEG (R1),(R0),B'  Put out comma
 003396 4110 71B6/4100_      03502 25129  2                        TSEG  '"*'                Make it "*"
 0033A8 1222/4780 708C             25147  2                        IF    (R2,NZ),BEGIN       On all but first ...
 0033AE 4110 7289/4100_      035D5 25161  3                          TSEG  '-'                 Make it "*-n"
 0033C0 18F2/1B00/4110_            25179  3                          BTD   CPDOUB,0,(R2)
 0033CE 41F0 B050/58E0_      00050 25199  3                          TSEG  (R1),(R0)
1JES      (JES2010) (12:47) (15MAR04) SHOW JES Command                                                                      Page   56
0Current Usings:  (*,R7) (CP,R11) (CV,R12)
0Loc    Object Code    Addr1 Addr2  Stmt Lv Lineno    Source Statement           (Hibal 5, Asmedit 3.3)  HLASM R4.0  2004/03/15 12.47
+___    ______ ____    _____ _____  ____ __ ______    ______ _________
00033D8                            25223  2                        END
 0033D8 4110 71B8/4100_      03504 25227  2                        TSEG  '"='                Make it "*-n="
 0033EA 18F4/1B00/4110_            25245  2                        BTD   CPDOUB,0,(R4)
 0033F8 41F0 B050/58E0_      00050 25265  2                        TSEG  (R1),(R0)           Make it "*-n=nnnn"
 003402 4110 728A/4100_      035D6 25289  2                        SETMSG ','                Stage a comma
 00340A 5E20 7164            034B0 25293  2                        INCR  R2                  Skip to next "n"
 00340E 4133 0002            00002 25296  2                        LA    R3,2(R3)            Up the stack index
 003412 47F0 7022            0336E 25297  1                      END
 003416 1B00/41F0 B050_            25302  1                      TWRITE ,                  Put out result
 003422                            25327                       END
 003422 18D8/9808 D004_            25331                       PEND
 DROP   *,R7
                                   25351
                                   25352                       QLTORG
1JES      (JES2010) (12:47) (15MAR04) SHOW JES Command                                                                      Page   57
0Current Usings:  (CP,R11) (CV,R12)
0Loc    Object Code    Addr1 Addr2  Stmt Lv Lineno    Source Statement           (Hibal 5, Asmedit 3.3)  HLASM R4.0  2004/03/15 12.47
+___    ______ ____    _____ _____  ____ __ ______    ______ _________
0                                  25426
                                   25427
                                   25428                DESTVER -- Routine to verify the validity of the JES destination
                                   25429                  name.
                                   25430
                                   25431                  On entry:
                                   25432                    R1 - destination name ptr (8 chars)
                                   25433
                                   25434                  Only returns to caller if ok.
                                   25435

00035D8 50E0 D000/9008_      00000 25436              DESTVER  XPROC
 USING  *,R7
 0035F2 1821                       25476                       LR    R2,R1
 0035F4 58E0 77AE/0DEE       03DA0 25477                       ACALL DESTCHK             Is it ok?
 0035FA 4780 702E            03620 25481                       IF    NZ,BEGIN            No...
 0035FE 1812/4100 0008_            25492  1                      TSEG  (R2),8,T
 00360E D207 B886 774E_00886 03D40 25520  1                      ERROR ' is an unknown destination.',,INVDEST
 003620                            25528                       END
 003620 18D8/9808 D004_            25532                       PEND
 DROP   *,R7
1JES      (JES2010) (12:47) (15MAR04) SHOW JES Command                                                                      Page   58
0Current Usings:  (CP,R11) (CV,R12)
0Loc    Object Code    Addr1 Addr2  Stmt Lv Lineno    Source Statement           (Hibal 5, Asmedit 3.3)  HLASM R4.0  2004/03/15 12.47
+___    ______ ____    _____ _____  ____ __ ______    ______ _________
0                                  25553
                                   25554
                                   25555                DESTCHK -- Routine to check validity of JES destination
                                   25556                  name.
                                   25557
                                   25558                  On entry:
                                   25559                    R1 - destination name ptr (8 chars), R0 - len (!)
                                   25560
                                   25561                  On exit, R15 (and cc):
                                   25562                    0 - destination name is known
                                   25563                    4 - unknown destination name
                                   25564

000362E 50E0 D000/9008_      00000 25565              DESTCHK  XPROC
 USING  *,R7
 003648 D507 7700 1000_03D48 00000 25605                       IF    (@R1,EQ,'ENCINA  '),'MVC @R1(8),=CL8"LOCAL"'
 003658 D504 77F9 1000_03E41 00000 25627                       IF    (@R1,EQ,'PINE '),'MVC @R1(8),=CL8"LOCAL"'
                                   25649
 003668 D207 70C4 C4D8 0370C 004D8 25650                       MVC   SSOBDEST,CVBLANKS
 00366E 18F0                       25651                       LR    R15,R0
 003670 59F0 7760/47D0_      03DA8 25652                       CEIL  R15,8
 00367C 06F0/12FF/4740_            25671                       MOVE  R15,SSOBDEST,@R1    Set DEST in SSOB
 003688 4510 7048/0000_      03690 25709                       MODESET MODE=SUP          ********
 003696 58E0 7764/0DEE       03DAC 25716                       VCALL AMODE24             ********
 00369C 4110 70A4            036EC 25720                       LA    R1,SSOBPTR
 0036A0 58F0 0010/58F0_      00010 25721                       IEFSSREQ ,                Ask JES if DEST is known
 0036BC 58E0 7768/0DEE       03DB0 25743                       VCALL AMODE31             ********
 0036C2 0700/4510 7084_            25747                       MODESET MODE=PROB         ********
 0036D2 12FF/4770 7094_            25754                       IF    (R15,Z),'L R15,SSOBRET'  Get real return code
 0036DC 18D8/9808 D004_            25774                       PEND
 DROP   *,R7
-0036EC                            25795                       DS    0F
 0036EC 800036F0                   25796              SSOBPTR  DC    X'80',AL3(SSOB)
                                   25797
 0036F0 E2E2D6C2                   25798              SSOB     DC    C'SSOB'             SSOB id
 0036F4 0014                       25799                       DC    Y(20)               Header length
 0036F6 000B                       25800                       DC    Y(11)               Function id (dest verify)
 0036F8 00000000                   25801                       DC    A(0)                SSIB address
 0036FC 00000000                   25802              SSOBRET  DC    A(*-*)              Return code from subsystem
 003700 00003704                   25803                       DC    A(SSOBEXT)
 003704 0010000000000000           25804              SSOBEXT  DC    Y(16,0,0,0)         SSOB EXTENSION
 00370C 4040404040404040           25805              SSOBDEST DC    CL8' '
                                   25806
                                   25807                       DROP  BR
1JES      (JES2010) (12:47) (15MAR04) Job Access/Password Check Routine                                                     Page   59
0Current Usings:  (CP,R11) (CV,R12)
0Loc    Object Code    Addr1 Addr2  Stmt Lv Lineno    Source Statement           (Hibal 5, Asmedit 3.3)  HLASM R4.0  2004/03/15 12.47
+___    ______ ____    _____ _____  ____ __ ______    ______ _________
0                                  25812
                                   25813
                                   25814                JOBKWCHK -- Routine to check job access and verify that the user
                                   25815                   knows the password of the account in the KWR.
                                   25816
                                   25817                   On entry:
                                   25818                     R0 - options:
                                   25819                            0 = normal
                                   25820                            1 = don't prompt for password ("special")
                                   25821                     R1 - KWR (complimented if job submission)
                                   25822
                                   25823                   On exit:
                                   25824                     KWR has been read
                                   25825

0003714 50E0 D000/9028_      00000 25826              JOBKWCHK XENTER
 USING  *,R7
 00372E 1840                       25845                       LR    R4,R0               Save options
 003730 1861                       25846                       LR    R6,R1               Kwr ptr
 003732 1256/47B0 700C_            25847                       IF    ('LTR R5,R6',NEG),'LCR R6,R6'  Job submission entry
 USING  KWR,R6                     25866                       USING KWR,R6
 00373A 1816/4100 0040_            25875                       KREAD KWR
 003746 9180 61F4/47E0_001F4       25888                       IF    ~KWRHFL.KWRHFCK,JOBKW  No kw file, let CHKKW handle
 00374E 9180 600E/4710_0000E       25907                       IF    ~KWRIFL.KWRIFVAL,BEGIN
 003756 4110 762A/4100_      03D58 25923  1                      TSEG  'Account '
 003768 4110 6003/4100_      00003 25941  1                      TSEG  KWRGRP
 00377A 4110 7718/4100_      03E46 25969  1                      TSEG  '.'
 00378C 4110 6000/4100_      00000 25987  1                      TSEG  KWRUSER
 00379E 4110 76DA/4100_      03E08 26015  1                      SETMSG ' is not valid.'
 0037A6 47F0 C7CC            007CC 26019  1                      B     CVABTMSG
 0037AA                            26020                       END
                                   26024
 0037AA 1244/4770 7182             26025                       IF    (R4,NZ),JOBKWX      Don't check account (SPECIAL)
                                   26042
 0037B0 D504 6000 B3B4_00000 003B4 26043                       IF    ('CLC KWRUSER(5),CPSUSER',EQ),JOBKWX  Access allowed
                                   26059
                                   26060                       AIF   (NOT &JOBAUTH).AUTH1A
 0037BA 9107 6037/4780_00037       26061                       IF    (KWRJFL.KWRJFATH,Z),JNOACC  Only user access is allowed
                                   26082              .AUTH1A  ANOP
                                   26083
 0037C2 D501 6003 B3B7_00003 003B7 26084                       IF    (KWRGRP,EQ,CPSGRP),BEGIN  Check out group access...
 0037CC 9101 B3BE/4710_003BE       26102  1                      IF    CPSFPC,JOBKWX      Don't ask for kw
 0037D4 47F0 7102            03830 26120  1                      B     JOBKW
 0037D8                            26121                       END
                                   26125
                                   26126                       AIF   (NOT &JOBAUTH).AUTH2A
 0037D8 9102 6037/47E0_00037       26127                       IF    KWRJFL.KWRJFCOM,BEGIN  Check communities...
 0037E0 4100 0003/4110_      00003 26143  1                      HASPSERV USERTYPE,CPSACCT  Our community
 0037EC 12FF/4770 7102             26163  1                      IF    (R15,NZ),JOBKW      (No JES)
 0037F2 1820                       26180  1                      LR    R2,R0               Save usertype
 0037F4 4100 0003/4110_      00003 26181  1                      HASPSERV USERTYPE,KWRUSER Community of acct
 003800 12FF/4770 7102             26201  1                      IF    (R15,NZ),JOBKW      (No JES)
 003806 1902/4780 7102             26218  1                      IF    (R0,EQ,R2),JOBKW    Communities match, fine
1JES      (JES2010) (12:47) (15MAR04) Job Access/Password Check Routine                                                     Page   60
0Current Usings:  (KWR,R6) (*,R7) (CP,R11) (CV,R12)
0Loc    Object Code    Addr1 Addr2  Stmt Lv Lineno    Source Statement           (Hibal 5, Asmedit 3.3)  HLASM R4.0  2004/03/15 12.47
+___    ______ ____    _____ _____  ____ __ ______    ______ _________
000380C 4220 BC88            00C88 26236  1                      STC   R2,CPDOUB
 003810 912E BC88/4780_00C88       26237  1                      IF    (CPDOUB.$USINTAL,NZ),BEGIN  Internal user...
 003818 4200 BC88            00C88 26255  2                        STC   R0,CPDOUB
 00381C 912E BC88/4770_00C88       26256  2                        IF    (CPDOUB.$USINTAL,NZ),JOBKW  Both are internal, fine
 003824                            26277  1                      END
 003824 47F0 718E            038BC 26281  1                      B     JNOACC              No access allowed
 003828                            26282                       END
                                   26286
 003828 9104 6037/47E0_00037       26287                       IF    ~KWRJFL.KWRJFPUB,JNOACC  (Grp access but not his grp)
                                   26306              .AUTH2A  ANOP
                                   26307
 003830 D504 6000 B1B8_00000 001B8 26308              JOBKW  IF (('CLC KWRUSER(5),CPUSERSV',EQ),AND,CPGFLG3.CPFKWENT),JOBKWX
                                   26340
 003842 1255/47B0 7174             26341                       IF    (R5,NEG),BEGIN      Write not yours msg...
 003848 4110 762A/4100_      03D58 26355  1                      TSEG  'Account '
 00385A 4110 6003/4100_      00003 26373  1                      TSEG  KWRGRP
 00386C 4110 7718/4100_      03E46 26401  1                      TSEG  '.'
 00387E 4110 6000/4100_      00000 26419  1                      TSEG  KWRUSER
 003890 4110 76E8/4100_      03E16 26447  1                      TSEG  ' is not yours.',,CR
 0038A2                            26465                       END
 0038A2 1B00                       26469                       CLEAR R0                  Standard options
 0038A4 4110 6000            00000 26473                       LA    R1,KWR
 0038A8 1311                       26474                       LCR   R1,R1               (Flag: KREAD already done)
 0038AA 58E0 7692/0DEE       03DC0 26475                       VCALL CHKKW               Verify kw, etc.
 0038B0 18D8/58E0 D000_            26479              JOBKWX   XEXIT
                                   26484
 0038BC 4110 7719/4100_      03E47 26485              JNOACC   TSEG  'Job access not permitted for account '
 0038CE 4110 6003/4100_      00003 26503                       TSEG  KWRGRP
 0038E0 4110 7718/4100_      03E46 26531                       TSEG  '.'
 0038F2 D207 B886 7632_00886 03D60 26549                       ABORT KWRUSER,,NOJOBACS
 DROP   KWR,R6                     26567                       DROP  KWR,BR
 DROP   *,R7
1JES      (JES2010) (12:47) (15MAR04) JES Open Interface Routines                                                           Page   61
0Current Usings:  (CP,R11) (CV,R12)
0Loc    Object Code    Addr1 Addr2  Stmt Lv Lineno    Source Statement           (Hibal 5, Asmedit 3.3)  HLASM R4.0  2004/03/15 12.47
+___    ______ ____    _____ _____  ____ __ ______    ______ _________
0                                  26582
                                   26583
                                   26584                JESOOPN -- Routine to get job submission path.
                                   26585

0003904 50E0 D000/9008_      00000 26586              JESOOPN  XPROC
 USING  *,R7
 00391E 4110 0006            00006 26626                       LA    R1,CVRSUB           Job submission path
 003922 58E0 74A6/0DEE       03DC4 26627                       ACALL RSC
 003928 5010 BD7C            00D7C 26631                       ST    R1,CPWK8            Save subrsc ptr
 00392C 1861                       26632                       LR    R6,R1               Subrsc ptr
 USING  SUBRSC,R6                  26633                       USING SUBRSC,R6
 00392E D701 6118 6118_00118 00118 26642                       CLEAR SUBBLEN,SUBFEOJ     (Safety)
                                   26654
 003938 58F0 C1C8            001C8 26655                       L     R15,CVCURJCB
 00393C 9640 F064      00064       26656                       WITH  (JCB,R15),'SET JCBRHSPS'  We own a sumbit path
 USING  JCB,R15
 DROP   JCB,R15
 003940 9640 B8AA      008AA       26685                       SET   CPRFSUB             Submit path owned
                                   26691
 003944 4150 603C            0003C 26692                       LA    R5,SUBACB
 003948 58E0 74AA/0DEE_      03DC8 26693                       IF    ('ACALL JESCHK',NZ),BEGIN  JES is down...
 003952 0700/4510 703E_            26709  1                      CLOSE ((R5))              Shutdown run path
 003966 4110 C014/4100_      00014 26716  1                      SETMSG CVJES
 00396E 58E0 74AE/0DEE       03DCC 26730  1                      VCALL LRTRIM
 003974 41F0 B050/58E0_      00050 26734  1                      TSEG  (R1),(R0),B
 00397E 4110 754E/4100_      03E6C 26758  1                      TSEG  'is not active. ',,B
 003990 D207 B886 744A_00886 03D68 26776  1                      ABORT 'Job submission is not available.',,NORUN
 0039A2                            26784                       END
 0039A2 9110 5030      00030       26788                       TM    ACBOFLGS-IFGACB(R5),ACBOPEN   ACB open?
 0039A6 4770 70DA            039F8 26789                       IF    Z,BEGIN             Time to open run path...
 0039AA 0700/4510 7096_            26800  1                      OPEN  ((R5))
 0039BE 9110 5030      00030       26807  1                      TM    ACBOFLGS-IFGACB(R5),ACBOPEN   ACB open?
 0039C2 4770 70CC            039EA 26808  1                      IF    Z,BEGIN
 0039C6 4110 755D/4100_      03E7B 26819  2                        TSEG  'Can''t open submit path.  '
 0039D8 D207 B886 744A_00886 03D68 26837  2                        ABORT 'Job submission not available.',,NORUN
 0039EA                            26845  1                      END
 0039EA 4110 7593/4100_      03EB1 26849  1                      SETMSG '/*EOF'            (tidy)
 0039F2 58E0 74B6/0DEE       03DD4 26853  1                      ACALL JESWR
 0039F8                            26857                       END
                                   26861
 0039F8 9180 C4CA/47E0_004CA       26862                       IF    CVJFNRUN,BEGIN
 003A00 D207 B886 7472_00886 03D90 26877  1                      ABORT 'Job submission has been disabled.',,NOSYSRUN
 003A12                            26885                       END
                                   26889
 003A12 9180 B9E1/47E0_009E1       26890                       IF    CPJFNRUN,BEGIN
 003A1A 9140 B9E0/4710_009E0       26905  1                      IF    CPJFPRIV,EXIT
 003A22 D207 B886 747A_00886 03D98 26923  1                      ABORT 'Job submission blocked by user.',,NOUSRRUN
 003A34                            26931                       END
                                   26935
 003A34 18D8/9808 D004_            26936                       PEND
 DROP   *,R7
 DROP   SUBRSC,R6                  26956                       DROP  SUBRSC
1JES      (JES2010) (12:47) (15MAR04) JES Open Interface Routines                                                           Page   62
0Current Usings:  (CP,R11) (CV,R12)
0Loc    Object Code    Addr1 Addr2  Stmt Lv Lineno    Source Statement           (Hibal 5, Asmedit 3.3)  HLASM R4.0  2004/03/15 12.47
+___    ______ ____    _____ _____  ____ __ ______    ______ _________
0                                  26965
                                   26966
                                   26967                JESIOPN - Routine to get a JES command path.
                                   26968

0003A42 50E0 D000/9008_      00000 26969              JESIOPN  XPROC
 USING  *,R7
 003A5C 5860 BD74/1266       00D74 27009                       LT    R6,CPJWA            Get JWA ptr
 003A62 4770 7022/900F_      03A7E 27013                       FAIL  Z,NOJWA,'FETCH/LOCATE INTERFACE ERROR'
 USING  JWA,R6                     27036                       USING JWA,R6
 003A7E 4110 0007            00007 27045                       LA    R1,CVRHCM           Want a JES command path
 003A82 58E0 7368/0DEE       03DC4 27046                       ACALL RSC                 Get it
 003A88 58F0 C1C8            001C8 27050                       L     R15,CVCURJCB        Our JCB
 003A8C 9620 F064      00064       27051                       WITH  (JCB,R15),'SET JCBRHSPI'  we own a JES path
 USING  JCB,R15
 DROP   JCB,R15
 003A90 9620 B8AA      008AA       27080                       SET   CPRFJES            we own JES resource
 003A94 1851                       27086                       LR    R5,R1
 003A96 5050 6028            00028 27087                       ST    R5,JWAPATHP         Save hcm ptr
 USING  HCMRSC,R5                  27088                       USING HCMRSC,R5
 003A9A 94DF 5053/D709_00053       27097                       CLEAR HCMFSENT,HCMWA
 003AA4 58E0 737C/0DEE       03DD8 27109                       ACALL PATHSTAT            Check path
                                   27113              *TEMP    FAIL  Z,JESERR,'FETCH/LOCATE INTERFACE ERROR'  HMMM
 003AAA 59F0 7380/4770_      03DDC 27114                       IF    (R15,EQ,4),BEGIN    Path just closed...
                                   27131  1
                                   27132  1                        PATHSTAT just re-opened path, wait a sec and check again
                                   27133  1                          and the path will most likely have been opened by JES
                                   27134  1                          (if not, the user will get a message later on).
                                   27135  1
 003AB2 41F0 0064            00064 27136  1                      LA    R15,100             Wait 1.00 seconds
 003AB6 58E0 7384/0DEE       03DE0 27137  1                      VCALL WAITER              Wait this user
                                   27141  1
 003ABC 4110 5000            00000 27142  1                      LA    R1,HCMRSC
 003AC0 58E0 737C/0DEE       03DD8 27143  1                      ACALL PATHSTAT            Process open, we hope
 003AC6                            27147                       END
                                   27151
 003AC6 18D8/9808 D004_            27152                       PEND
 DROP   *,R7
 DROP   HCMRSC,R5                  27172                       DROP  HCMRSC,JWA
 DROP   JWA,R6
1JES      (JES2010) (12:47) (15MAR04) JES Close Interface Routines                                                          Page   63
0Current Usings:  (CP,R11) (CV,R12)
0Loc    Object Code    Addr1 Addr2  Stmt Lv Lineno    Source Statement           (Hibal 5, Asmedit 3.3)  HLASM R4.0  2004/03/15 12.47
+___    ______ ____    _____ _____  ____ __ ______    ______ _________
0                                  27188
                                   27189
                                   27190                JESODEL -- Routine to delete job just submitted and free up
                                   27191                   the submission path.
                                   27192

0003AD4 50E0 D000/9008_      00000 27193              JESODEL  XPROC
 USING  *,R7
 003AEE 4110 7408/4100_      03EF6 27233                       SETMSG '/*PURGE'          (Better than /*DEL???)
 003AF6 58E0 72E6/0DEE       03DD4 27237                       ACALL JESWR               Send it
 003AFC 58E0 72F6/0DEE       03DE4 27241                       ACALL JESOCLS             Close path
 003B02 18D8/9808 D004_            27245                       PEND
 DROP   *,R7
1JES      (JES2010) (12:47) (15MAR04) JES Close Interface Routines                                                          Page   64
0Current Usings:  (CP,R11) (CV,R12)
0Loc    Object Code    Addr1 Addr2  Stmt Lv Lineno    Source Statement           (Hibal 5, Asmedit 3.3)  HLASM R4.0  2004/03/15 12.47
+___    ______ ____    _____ _____  ____ __ ______    ______ _________
0                                  27266
                                   27267
                                   27268                JESOCLS -- Routine to submit job and free up the submission
                                   27269                   path.
                                   27270
                                   27271                   On exit:
                                   27272                     R15 - jobno of job just submitted (or zero)
                                   27273

0003B10 50E0 D000/9008_      00000 27274              JESOCLS  XPROC
 USING  *,R7
 003B2A 1B55                       27314                       CLEAR R5                  Assume no jobno available
                                   27318
 003B2C 58F0 C1C8            001C8 27319                       L     R15,CVCURJCB
 003B30 9140 F064/47E0_00064       27320                       IF    JCBRHSPS-JCB(R15).JCBRHSPS,BEGIN  We have path...
 003B38 5860 BD7C            00D7C 27335  1                      L     R6,CPWK8            Subrsc ptr
 USING  SUBRSC,R6                  27336  1                      WITH  (SUBRSC,R6)
                                   27349  1
 003B3C 4140 603C            0003C 27350  1                      LA    R4,SUBACB
 003B40 9110 4030      00030       27351  1                      TM    ACBOFLGS-IFGACB(R4),ACBOPEN   ACB open?
 003B44 47E0 7030            03B5A 27352  1                      IF    O,BEGIN             Yes, tidy up and get jobno...
 003B48 9680 6038      00038       27363  2                        SET   SUBFEOJ             End of job
 003B4C 58E0 72BE/0DEE       03DE8 27369  2                        ACALL SUBWORK             Finish up job
 003B52 1B55                       27373  2                        CLEAR R5
 003B54 1F55/BF53 603A             27377  2                        L2    R5,SUBJBNO          Get jobno
 003B5A                            27385  1                      END
                                   27389  1
 003B5A 4110 0006/1B00_      00006 27390  1                      FREERSC SUB               Release submission path
 003B82 58F0 C1C8            001C8 27429  1                      L     R15,CVCURJCB
 003B86 94BF F064      00064       27430  1                      WITH  (JCB,R15),'CLEAR JCBRHSPS'  Reset ownership flag
 USING  JCB,R15
 DROP   JCB,R15
 003B8A D703 BD7C BD7C 00D7C 00D7C 27460  1                      CLEAR CPWK8               Zot subrsc ptr
 003B90 94BF B8AA      008AA       27467  1                      CLEAR CPRFSUB             We don't own submission path
 DROP   SUBRSC,R6                  27474                       END
                                   27483
 003B94 18F5                       27484                       LR    R15,R5              Jobno
 003B96 18D8/9808 D004_            27485                       PEND
 DROP   *,R7
1JES      (JES2010) (12:47) (15MAR04) JES Close Interface Routines                                                          Page   65
0Current Usings:  (CP,R11) (CV,R12)
0Loc    Object Code    Addr1 Addr2  Stmt Lv Lineno    Source Statement           (Hibal 5, Asmedit 3.3)  HLASM R4.0  2004/03/15 12.47
+___    ______ ____    _____ _____  ____ __ ______    ______ _________
0                                  27506
                                   27507
                                   27508                JESICLS - Routine to release resource needed for JES commands.
                                   27509

0003BA4 50E0 D000/9008_      00000 27510              JESICLS  XPROC
 USING  *,R7
 003BBE 5860 BD74/1266       00D74 27550                       LT    R6,CPJWA            Get JWA ptr
 003BC4 4770 7022/900F_      03BE0 27554                       FAIL  Z,NOJWA,'FETCH/LOCATE INTERFACE ERROR'
 USING  JWA,R6                     27577                       USING JWA,R6
 003BE0 5850 6028/1255       00028 27586                       LT    R5,JWAPATHP         Pick up path ptr
 003BE6 4770 7044/900F_      03C02 27590                       FAIL  Z,NOPATH,'FETCH/LOCATE interface error.'
 USING  HCMRSC,R5                  27613                       USING HCMRSC,R5
                                   27622
                                   27623                         Send disc. post to JES to tell it to stop.
                                   27624
 003C02 9120 5053/47E0_00053       27625                       IF    HCMFSENT,BEGIN      Expecting a reply...
 003C0A 9108 6021/4710_00021       27640  1                      IF    JWAFLG2.HRBLAST,EXIT  All done, scram
 003C12 41F0 001C/5800_      0001C 27659  1                      SCOM  POST,0,HCMPMGC      Discretionary post
 003C1E 58E0 7232/0DEE_      03DF0 27677  1                      LOOP  'ACALL JESRD; UNTIL NZ'  Keep going till eof
                                   27708  1
                                   27709  1                        We finally got eof from JES, now continue clean-up.
                                   27710  1
 003C2C 94DF 5053      00053       27711  1                      CLEAR HCMFSENT            Reset svc issued flag
 003C30                            27718                       END
 003C30 4110 5000            00000 27722                       LA    R1,HCMRSC
 003C34 58E0 721A/0DEE       03DD8 27723                       ACALL PATHSTAT            (Clears any new info)
 DROP   HCMRSC,R5                  27727                       DROP  HCMRSC
 003C3A 4110 0007/1B00_      00007 27735                       FREERSC HCM               Release JES command path
 003C62 58F0 C1C8            001C8 27774                       L     R15,CVCURJCB        Our JCB
 003C66 94DF F064      00064       27775                       WITH  (JCB,R15),'CLEAR JCBRHSPI'  Reset rsc flag
 USING  JCB,R15
 DROP   JCB,R15
 003C6A 94DF B8AA      008AA       27805                       CLEAR CPRFJES             Don't own JES path any more
 003C6E D703 6028 6028 00028 00028 27812                       CLEAR JWAPATHP            Clear ptr to path(hcmrsc)
 003C74 18D8/9808 D004_            27819                       PEND
 DROP   *,R7
 DROP   JWA,R6                     27839                       DROP  JWA,BR
1JES      (JES2010) (12:47) (15MAR04) Resource Obtain and Wait Routine                                                      Page   66
0Current Usings:  (CP,R11) (CV,R12)
0Loc    Object Code    Addr1 Addr2  Stmt Lv Lineno    Source Statement           (Hibal 5, Asmedit 3.3)  HLASM R4.0  2004/03/15 12.47
+___    ______ ____    _____ _____  ____ __ ______    ______ _________
0                                  27851
                                   27852
                                   27853                RSC - Routine to get a RESOURCE (IOWA, HCMPATH, etc).
                                   27854
                                   27855                  On entry:
                                   27856                    R1 - resource id
                                   27857
                                   27858                  On exit:
                                   27859                    R1 - resource ptr
                                   27860

0003C82 50E0 D000/9008_      00000 27861              RSC      PROC
 USING  *,R7
 003C9C 5010 D000/41D0_      00000 27900                       XPUSH R1                  Save resource id
 003CA4 1B00/41F0 0008_            27903                       GETRSC (R1),WAIT=NO
 003CB0 4780 708E            03D2A 27917                       IF    NZ,BEGIN            Not immediately avail...
 003CB4 9180 BD55/4710_00D55       27928  1                      IF    ~CPFDUMP,BEGIN
 003CBC 4BD0 7188/5810_      03E24 27943  2                        XPOP  R1
 003CC4 5010 D000/41D0_      00000 27946  2                        XPUSH R1
 003CCC 1B00                       27949  2                        CLEAR R0
 003CCE 5910 715C/4770_      03DF8 27953  2                        IF    (R1,EQ,CVRSUB),'SETMSG "SUBMIT "'
 003CDE 7046/47F0 7056_03CDE 03CD4 27979  2                        ELSEIF (R1,EQ,CVRHCM),'SETMSG "JES "'
 003CF2 41F0 B050/58E0_      00050 28014  2                        TSEG  (R1),(R0)
 003CFC 4110 7268/4100_      03F04 28038  2                        TSEG  'queued.',,WR
 003D0E 4770 C7D6            007D6 28056  2                        BNZ   CVERROR
 003D12                            28057  1                      END
 003D12 4BD0 7188/5810_      03E24 28061  1                      XPOP  R1
 003D1A 1B00/41F0 0004_            28064  1                      GETRSC (R1)               We'll wait
 003D26 4770 C7EA            007EA 28078  1                      BNZ   CVNOACTN            Abort command
 003D2A                            28079                       END
 003D2A 5018 0008            00008 28083                       PRETURN (R1)
 003D2E 18D8/9808 D004_            28085                       PEND
 DROP   *,R7
                                   28105
                                   28106                       QLTORG
1JES      (JES2010) (12:47) (15MAR04) JES Write (for job submission) Routine                                                Page   67
0Current Usings:  (CP,R11) (CV,R12)
0Loc    Object Code    Addr1 Addr2  Stmt Lv Lineno    Source Statement           (Hibal 5, Asmedit 3.3)  HLASM R4.0  2004/03/15 12.47
+___    ______ ____    _____ _____  ____ __ ______    ______ _________
0                                  28170
                                   28171
                                   28172                JESWR -- Routine to write a line to the JES INTRDR.
                                   28173
                                   28174                  On entry:
                                   28175                    R1,R0 - line loc,len
                                   28176

0003F12 50E0 D000/9008_      00000 28177              JESWR    XPROC
 USING  *,R7
                                   28217
                                   28218                         In debugging mode simply display the line at the terminal.
                                   28219
 003F2C 9101 B9E1/47E0_009E1       28220                       IF    CPJFDBUG,BEGIN      Debugging mode...
 003F34 1B22                       28235  1                      CLEAR R2                  Flag: not quiet
 003F36 9140 BD55/47E0_00D55       28239  1                      IF    CPFQUIET,'CLEAR CPFQUIET; LA R2,1'  Temporarily clear
 003F46 41F0 B050/58E0_      00050 28267  1                      TSEG  (R1),(R0),WR        Write line at terminal
 003F50 4770 C7DA            007DA 28291  1                      BNZ   CVABORT
 003F54 1222/4780 7032_            28292  1                      IF    (R2,NZ),'SET CPFQUIET'  Restore QUIET
 003F5E 47F0 70A2            03FCE 28317  1                      EXIT  JESWR               Scram
 003F62                            28320                       END
                                   28324
                                   28325                         Send line to JES.
                                   28326
 003F62 58F0 C1C8            001C8 28327                       L     R15,CVCURJCB
 USING  JCB,R15                    28328                       WITH  (JCB,R15),BEGIN
 003F66 9140 F064/4710_00064       28342  1                      IF    ~JCBRHSPS,BEGIN     Get submit path...
 003F6E 9001 D000/41D0_      00000 28357  2                        XPUSH R0,R1
 003F76 58E0 7538/0DEE       04464 28360  2                        ACALL JESOOPN             Returns only if path obtained
 003F7C 4BD0 755C/9801_      04488 28364  2                        XPOP  R0,R1
 003F84                            28367  1                      END
 DROP   JCB,R15                    28371                       END
                                   28379
 003F84 5860 BD7C            00D7C 28380                       L     R6,CPWK8            Subrsc ptr
 USING  SUBRSC,R6                  28381                       WITH  (SUBRSC,R6)
                                   28394
 003F88 1831                       28395                       LR    R3,R1
 003F8A 1820                       28396                       LR    R2,R0
 003F8C 5920 753C/47D0_      04468 28397                       CEIL  R2,255              Not too much
                                   28416
 003F98 41F0 2001            00001 28417                       LA    R15,@R2+1
 003F9C 4AF0 6118            00118 28418                       AH    R15,SUBBLEN
 003FA0 59F0 7540/47D0_      0446C 28419                       IF    (R15,GT,L'SUBBUFR),BEGIN  Buffer overflow...
 003FA8 58E0 7544/0DEE       04470 28436  1                      ACALL SUBWORK             Submit buffer from subtask
 003FAE                            28440                       END
                                   28444
 003FAE 48F0 6118            00118 28445                       LH    R15,SUBBLEN         Current length
 003FB2 411F 611A            0011A 28446                       LA    R1,SUBBUFR(R15)
 003FB6 41FF 2001            00001 28447                       LA    R15,@R2+1(R15)      New length
 003FBA 40F0 6118            00118 28448                       STH   R15,SUBBLEN
 003FBE 4220 1000            00000 28449                       STC   R2,@R1              Line length
 003FC2 0620/1222/4740_            28450                       MOVE  R2,@R1+1,@R3        Line text
 003FCE 18D8/9808 D004_            28488                       PEND
1JES      (JES2010) (12:47) (15MAR04) JES Write (for job submission) Routine                                                Page   68
0Current Usings:  (CP,R11) (CV,R12)
0Loc    Object Code    Addr1 Addr2  Stmt Lv Lineno    Source Statement           (Hibal 5, Asmedit 3.3)  HLASM R4.0  2004/03/15 12.47
+___    ______ ____    _____ _____  ____ __ ______    ______ _________
0DROP   SUBRSC,R6
 DROP   *,R7
1JES      (JES2010) (12:47) (15MAR04) JES Write (for job submission) Routine                                                Page   69
0Current Usings:  (CP,R11) (CV,R12)
0Loc    Object Code    Addr1 Addr2  Stmt Lv Lineno    Source Statement           (Hibal 5, Asmedit 3.3)  HLASM R4.0  2004/03/15 12.47
+___    ______ ____    _____ _____  ____ __ ______    ______ _________
0                                  28514
                                   28515
                                   28516                SUBWORK -- Routine to post job submission subtask and wait
                                   28517                  for it to complete it's work.
                                   28518

0003FDC 50E0 D000/9008_      00000 28519              SUBWORK  PROC
 USING  *,R7
 003FF6 5860 BD7C            00D7C 28558                       L     R6,CPWK8
 USING  SUBRSC,R6                  28559                       USING SUBRSC,R6
                                   28568
 003FFA 1B00/4110 6028_            28569                       POST  SUBWECB             Subtask will do the work
                                   28575
 004002 9140 600C/4770_0000C       28576                       IF    (SUB$ECB.X'40',Z),BEGIN  Not posted...
 00400A 9680 6014      00014       28594  1                      SET   SUB1ACTV
 00400E 58F0 C1C8            001C8 28600  1                      L     R15,CVCURJCB
 004012 9620 F060/41E0_00060       28601  1                      WITH  (JCB,R15),'PAUSE JCBWFD'  Waiting for JES
 USING  JCB,R15
 DROP   JCB,R15
 004024                            28637                       END
 004024 D703 600C 600C 0000C 0000C 28641                       CLEAR SUB$ECB
                                   28648
 00402A 18D8/9808 D004_            28649                       PEND
 DROP   *,R7
 DROP   SUBRSC,R6                  28669                       DROP  SUBRSC
1JES      (JES2010) (12:47) (15MAR04) JESRD - Routine to Deblock JES FETCH/LOCATE Responses                                 Page   70
0Current Usings:  (CP,R11) (CV,R12)
0Loc    Object Code    Addr1 Addr2  Stmt Lv Lineno    Source Statement           (Hibal 5, Asmedit 3.3)  HLASM R4.0  2004/03/15 12.47
+___    ______ ____    _____ _____  ____ __ ______    ______ _________
0                                  28678
                                   28679
                                   28680                JESRD -- Routine to get a reply line from JES2 (from SUZAN buf).
                                   28681
                                   28682                  On exit:
                                   28683                    R1,R0 - reply loc, len
                                   28684                    R15 (and cc):
                                   28685                       -4 - aborted (attn, logging off, etc.)
                                   28686                        0 - response line returned
                                   28687                        4 - eof
                                   28688

0004038 50E0 D000/9028_      00000 28689              JESRD    XENTER R2,R8,,LOCAL
 USING  *,R7
 004052 5860 BD74/1266       00D74 28707                       LT    R6,CPJWA
 004058 4770 7022/900F_      04074 28711                       FAIL  Z,NOJWA,'FETCH/LOCATE INTERFACE ERROR'
 USING  JWA,R6                     28734                       USING JWA,R6
 004074 5850 6028/1255       00028 28743                       LT    R5,JWAPATHP         Hcmrsc ptr
 00407A 4770 7044/900F_      04096 28747                       FAIL  Z,NOHCM,'FETCH/LOCATE INTERFACE ERROR'
 USING  HCMRSC,R5                  28770                       USING HCMRSC,R5
 004096 47F0 7054            040A6 28779                       B     JESRDLP             Join common
                                   28780
 00409A D707 5058 5058 00058 00058 28781              JESRDNXT CLEAR HCMPTRS             Clear Suzan buffer ptrs
 0040A0 D701 5060 5060 00060 00060 28789                       CLEAR HCMINDEX            Reset any fetch buffer index
                                   28796
 0040A6 4110 5000            00000 28797              JESRDLP  LA    R1,HCMRSC
 0040AA 58E0 7426/0DEE_      04478 28798                       IF    ('ACALL PATHSTAT',POS),JESERR  JES died, scram
                                   28817
                                   28818                         Read another buffer from JES if nothing left in this one.
                                   28819
 0040B4 D603 505C 505C_0005C 0005C 28820                       IF    (HCMLEN,Z),BEGIN    Read a buffer...
 0040BE 41F0 0014/5800_      00014 28836  1                      SCOM  FREELOC,HCMPTRS,HCMPMGC  Read HRB from JES
 0040CC 12FF/4770 7216             28857  1                      IF    (R15,NZ),JESERR     JES died, if path error
 0040D2 D701 5060 5060 00060 00060 28874  1                      CLEAR HCMINDEX
 0040D8                            28881                       END
                                   28885
 0040D8 9834 5058            00058 28886                       LM    R3,R4,HCMPTRS       R3 = rdw loc, r4 = rdw len
 0040DC 1244/4770 70EE             28887                       IF    (R4,Z),BEGIN        No data left...
 0040E2 9108 6021/47E0_00021       28901  1                      IF    JWAFLG2.HRBLAST,BEGIN  last HRB already read...
 0040EA 1244/4780 70B6_            28917  2                        FAIL  (R4,NZ),BADDATA,'FETCH/LOCATE INTERFACE ERROR'
 004108 41F0 0004            00004 28943  2                        LA    R15,4               Set "eof" return code
 00410C 1B00/1B11                  28944  2                        CLEAR R0,R1
 004110 47F0 7208            0425A 28950  2                        B     JESREXIT
 004114                            28951  1                      END
                                   28955  1
 DROP   HCMRSC,R5                  28956  1                      WITH  (RESOURCE,R5)
 USING  RESOURCE,R5
 004114 9140 500C/4770_0000C       28972  1                      IF    (RSC$ECB.X'40',Z),BEGIN  Not posted...
 00411C 9680 5014      00014       28990  2                        SET   RSC1ACTV
 004120 58F0 C1C8            001C8 28996  2                        L     R15,CVCURJCB
 004124 9620 F060/41E0_00060       28997  2                        WITH  (JCB,R15),'PAUSE JCBWFD'  Waiting for JES
 USING  JCB,R15
 DROP   JCB,R15
1JES      (JES2010) (12:47) (15MAR04) JESRD - Routine to Deblock JES FETCH/LOCATE Responses                                 Page   71
0Current Usings:  (RESOURCE,R5) (JWA,R6) (*,R7) (CP,R11) (CV,R12)
0Loc    Object Code    Addr1 Addr2  Stmt Lv Lineno    Source Statement           (Hibal 5, Asmedit 3.3)  HLASM R4.0  2004/03/15 12.47
+___    ______ ____    _____ _____  ____ __ ______    ______ _________
0004136                            29033  1                      END
                                   29037  1           *TEMP    L     R15,CVCURJCB
                                   29038  1           *TEMP    IF    JCBAFL-JCB(R15).JCBFATTN,BEGIN  Attn abort...
                                   29039  1           *TEMP    LA    R15,8               8 = ATTN ABORT
                                   29040  1           *TEMP    B     JESERR              GO CLOSE PATH, ETC.
                                   29041  1           *TEMP    END
 004136 D703 500C 500C 0000C 0000C 29042  1                      CLEAR RSC$ECB
 00413C 47F0 7054            040A6 29049  1                      B     JESRDLP
 DROP   RESOURCE,R5                29050                       END
 USING  HCMRSC,R5
                                   29066
 USING  HRB,R3                     29067                       USING HRB,R3
 004140 58F0 C1C8            001C8 29076                       L     R15,CVCURJCB
 004144 D501 3000 F048 00000 00048 29077                       CLC   HRBID,JCBSEQ-JCB(R15)  Double check...
 00414A 4770 7216            04268 29078                       BNE   JESERR              Interface error
                                   29079
 00414E 94E0 6021      00021       29080                       NI    JWAFLG2,HRBERVRB+HRBERSYN+HRBERSEM
 004152 D600 6021 3004 00021 00004 29081                       OC    JWAFLG2,HRBFLAGS
 004158 D200 6024 3005 00024 00005 29082                       MVC   JWAHRBF2,HRBFLAG2
 00415E D507 7402 300E_04454 0000E 29083                       IF    (HRBERRID,NE,0),'MVC CPERRID,HRBERRID'
                                   29107
 00416E 9108 3004/47E0_00004       29108                       IF    (HRBFLAGS.HRBLAST,AND,(HRBLEN,EQ,0)),BEGIN  Done...
 004180 41F0 0004            00004 29141  1                      LA    R15,4               Eof
 004184 47F0 7202            04254 29142  1                      B     JESRUPD
 004188                            29143                       END
                                   29147
 004188 9110 3004/4710_00004       29148                       IF    ~HRBFLAGS.HRBBUF,BEGIN  Single response line...
 004190 4110 3016/4800_      00016 29164  1                      SETMSG HRBTEXT,LH:HRBLEN
 004198 1BFF                       29177  1                      CLEAR R15
 00419A 47F0 7202            04254 29181  1                      B     JESRUPD             Done with this HRB, scram
 00419E                            29182                       END
                                   29186
                                   29187                         De-block fetch buffer and return individual lines.
                                   29188
 00419E D501 5060 3002_00060 00002 29189              JESRNXTL IF    (HCMINDEX,GE,HRBLEN),JESRDNXT  All done with this buf
 0041A8 4130 3016            00016 29211                       LA    R3,HRBTEXT
 DROP   HRB,R3                     29212                       DROP  HRB
 0041AC 4A30 5060            00060 29220                       AH    R3,HCMINDEX         Get correct line
                                   29221
 USING  LRCDSECT,R3                29222                       USING LRCDSECT,R3
 0041B0 95FF 3000/4780_00000       29231                       IF    (LRCTLENG,EQ,X'FF'),JESRDNXT  Go get next HRB
 0041B8 9240 6025      00025       29251                       MVI   JWACC,C' '
 0041BC 9610 6023      00023       29252                       SET   JWAFCCTL            Has CC carriage control
 0041C0 9110 3001/47E0_00001       29258                       IF    LRCFLAG1.LRC1SPAN,BEGIN  spanned...
 0041C8 4800 3002            00002 29274  1                      LH    R0,LRCSEGL          Text length
 0041CC 4110 3004            00004 29275  1                      LA    R1,LRCSTEXT         Text loc
 0041D0 9108 3001/47E0_00001       29276  1                      IF    LRCFLAG1.LRC1SBGN,BEGIN   If first segment...
 0041D8 4110 3006            00006 29292  2                        LA    R1,LRCSFTXT               Text loc if first
 0041DC 9180 3001/47E0_00001       29293  2                        IF    LRCFLAG1.LRC1CCTL,BEGIN   If CC/MC,
 0041E4 D200 6025 1000 00025 00000 29309  3                          MVC   JWACC,@R1                 Save CC/MC char
 0041EA 5E10 742A            0447C 29310  3                          INCR  R1                        Incr text pointer
 0041EE 9120 3001/47E0_00001       29313  3                          IF    LRCFLAG1.LRC1TMCH,'CLEAR JWAFCCTL'  Not CC
 0041FA                            29341  2                        END
 0041FA                            29345  1                      END
1JES      (JES2010) (12:47) (15MAR04) JESRD - Routine to Deblock JES FETCH/LOCATE Responses                                 Page   72
0Current Usings:  (LRCDSECT,R3) (HCMRSC,R5) (JWA,R6) (*,R7) (CP,R11) (CV,R12)
0Loc    Object Code    Addr1 Addr2  Stmt Lv Lineno    Source Statement           (Hibal 5, Asmedit 3.3)  HLASM R4.0  2004/03/15 12.47
+___    ______ ____    _____ _____  ____ __ ______    ______ _________
00041FA                            29349                       END
 0041FA 71AC/47F0 71D4 041FA 041C6 29353                       ELSE  BEGIN               Non-spanned (normal)...
 0041FE 4110 3003/1F00_      00003 29364  1                      SETMSG LRCTEXT,LC:LRCTLENG  Line of text
 004208 9180 3001/47E0_00001       29381  1                      IF    LRCFLAG1.LRC1CCTL,BEGIN  has CC/mc...
 004210 D200 6025 3003 00025 00003 29397  2                        MVC   JWACC,LRCCCTL       Save CC/MC char
 004216 4110 3004            00004 29398  2                        LA    R1,LRCSOUT          Point past CC char
 00421A 9120 3001/47E0_00001       29399  2                        IF    LRCFLAG1.LRC1TMCH,'CLEAR JWAFCCTL'  Not CC
 004226                            29427  1                      END
 004226                            29431                       END
                                   29435
 004226 1821                       29436                       LR    R2,R1
 004228 1B23                       29437                       SR    R2,R3               l'header = offset into lrc
 00422A 1A20                       29438                       AR    R2,R0               Add in text length
 00422C 4A20 5060            00060 29439                       AH    R2,HCMINDEX         Add in current offset
 004230 4020 5060            00060 29440                       STH   R2,HCMINDEX         Save new HRB index (next LRC ptr)
                                   29441
                                   29442            C          IF    (LRCFLAG1.LRC1SPAN,AND,  If spanned record, and not
 004234 9110 3001/47E0_00001                                         ~LRCFLAG1.LRC1SBGN),JESRNXTL  first segment, next LRC
 004244 1BFF                       29476                       CLEAR R15                 Rc
 DROP   LRCDSECT,R3                29480                       DROP  LRCDSECT
 004246 5830 5058            00058 29488                       L     R3,HCMLOC
 00424A 4830 3002            00002 29489                       WITH  (HRB,R3),'LH R3,HRBLEN'  Total buffer len
 USING  HRB,R3
 DROP   HRB,R3
 00424E 1923/4740 7208             29513                       IF    (R2,LT,R3),JESREXIT  Don't go on to next buffer
                                   29531
 004254 D707 5058 5058 00058 00058 29532              JESRUPD  CLEAR HCMPTRS             Clear Suzan buffer ptrs
                                   29540
 00425A 18D8/58E0 D000_            29541              JESREXIT XEXIT ,,LTR
 004268 9680 5051      00051       29547              JESERR   SET   HCMSFLG.HCMPFCLS    Close path...
 00426C 1815                       29555                       LR    R1,R5               Hcmrsc ptr
 00426E 58E0 7426/0DEE       04478 29556                       ACALL PATHSTAT            ... & re-open
                                   29560
 004274 4110 C014/4100_      00014 29561                       TSEG  CVJES,,TB
 004286 4110 7438/4100_      0448A 29589                       TSEG  'is not available, command aborted.',,CR
                                   29607
 004298 1B00/1B11                  29608                       CLEAR R0,R1               (tidy)
 00429C 48F0 745A            044AC 29614                       LH    R15,=H'-4'          Error rc
 0042A0 47F0 7208            0425A 29615                       B     JESREXIT
                                   29616
 DROP   *,R7                       29617                       DROP  BR,HCMRSC,JWA
 DROP   HCMRSC,R5
 DROP   JWA,R6
1JES      (JES2010) (12:47) (15MAR04) Routine to Issue JES Commands                                                         Page   73
0Current Usings:  (CP,R11) (CV,R12)
0Loc    Object Code    Addr1 Addr2  Stmt Lv Lineno    Source Statement           (Hibal 5, Asmedit 3.3)  HLASM R4.0  2004/03/15 12.47
+___    ______ ____    _____ _____  ____ __ ______    ______ _________
0                                  29639
                                   29640
                                   29641                The JESCOM routine builds a pcw in the JWA and then issues
                                   29642                an suzan call to send whatever is in the HCB to JES.
                                   29643                This routine also waits for JES if necessary.
                                   29644
                                   29645                On exit:
                                   29646                    r15 and condition code is zero if there is data waiting
                                   29647                    to be processed in the suzan buffer and non-zero if
                                   29648                    something went wrong (e.g., JES closing the path).
                                   29649

00042A4 50E0 D000/9008_      00000 29650              JESCOM   XPROC
 USING  *,R7
 0042BE 5860 BD74/1266       00D74 29690                       LT    R6,CPJWA            Get JWA ptr
 0042C4 4770 7022/900F_      042E0 29694                       FAIL  Z,NOJWA,'FETCH/LOCATE INTERFACE ERROR'  Shucks
 USING  JWA,R6                     29717                       USING JWA,R6
 0042E0 5850 6028/1255       00028 29726                       LT    R5,JWAPATHP         Get path address
 0042E6 4770 7044/900F_      04302 29730                       FAIL  Z,NOHCM,'FETCH/LOCATE INTERFACE ERROR'
 USING  HCMRSC,R5                  29753                       USING HCMRSC,R5
 004302 1815                       29762                       LR    R1,R5               Hcmrsc ptr
 004304 58E0 71BA/0DEE       04478 29763                       ACALL PATHSTAT            Check things out (maybe re-open)
                                   29767
 00430A D707 D000 D000 00000 00000 29768                       CLEAR (@R13,8)            8 byte Suzan parm list
 004310 41F0 6158            00158 29775                       LA    R15,HRDWSTRT
 004314 50F0 D000            00000 29776                       ST    R15,@R13            Transaction starting with RDW
 004318 9680 D000      00000       29777                       SET   @R13.X'80'
 00431C 41F0 0008/5800_      00008 29784                       SCOM  SEND,(R13),HCMPMGC     Send HCB to JES
 004328 12FF/4770 7074_            29803                       IF    (R15,Z),'SET HCMFSENT'  Command sent
 004332 7078/47F0 7086 04332 0432C 29828                       ELSE  BEGIN               Trouble...
 004336 182F                       29839  1                      LR    R2,R15              Save suzan rc
 004338 4110 5000            00000 29840  1                      LA    R1,HCMRSC
 00433C 58E0 71BA/0DEE       04478 29841  1                      ACALL PATHSTAT            Maybe re-open path
 004342 18F2                       29845  1                      LR    R15,R2              Restore rc
 004344                            29846                       END
 004344 18D8/9808 D004_            29850                       PEND
 DROP   *,R7
 DROP   HCMRSC,R5                  29870                       DROP  HCMRSC,JWA
 DROP   JWA,R6
1JES      (JES2010) (12:47) (15MAR04) PATHSTAT - Routine to Check JES Path Status                                           Page   74
0Current Usings:  (CP,R11) (CV,R12)
0Loc    Object Code    Addr1 Addr2  Stmt Lv Lineno    Source Statement           (Hibal 5, Asmedit 3.3)  HLASM R4.0  2004/03/15 12.47
+___    ______ ____    _____ _____  ____ __ ______    ______ _________
0                                  29886
                                   29887
                                   29888                PATHSTAT -- Routine to check the status of JES suzan path.
                                   29889
                                   29890                  On entry:
                                   29891                    R1 - HCMRSC ptr
                                   29892
                                   29893                  On exit, R15 (and cc):
                                   29894                   -4 - no data in buffer
                                   29895                    0 - data in buffer
                                   29896                    4 - path just closed (and has been re-opened)
                                   29897                    8 - path is closed (waiting for it to be opened)
                                   29898

0004352 50E0 D000/9008_      00000 29899              PATHSTAT PROC  ,
 USING  *,R7
 00436C 1861                       29938                       LR    R6,R1
 USING  HCMRSC,R6                  29939                       USING HCMRSC,R6
 00436E D201 6050 6051 00050 00051 29948                       MVC   HCMFLG(2),HCMSFLG   Copy & clear suzan flags
                                   29949
 004374 48F0 7140            044AC 29950                       LH    R15,=H'-4'          Assume no data
 004378 9108 6050/47E0_00050       29951                       IF    HCMFLG.HCMPFOPN,BEGIN  Opened...
 004380 9180 6053/4710_00053       29967  1                      FAIL  (HCMFOPN,OR,~HCMFPND),PATHERR1,'JES PATH ERROR'
 0043A8 94BF 6053      00053       30008  1                      CLEAR HCMFPND             Set not-pending
 0043AC 9680 6053      00053       30015  1                      SET   HCMFOPN             Set opened
 0043B0                            30021                       END
                                   30025
 0043B0 9120 6050/47E0_00050       30026                       IF    HCMFLG.HCMPFNI,BEGIN  New-info...
 0043B8 9140 6053/4710_00053       30042  1                      FAIL  (HCMFPND,OR,~HCMFOPN),PATHERR2,'Jes path error.'
 0043E0 1BFF                       30083  1                      CLEAR R15                 Set rc
 0043E2                            30087                       END
                                   30091
 0043E2 9180 6053/4710_00053       30092                       IF    ~HCMFOPN,'LA R15,8'  Path not active
                                   30113
 0043EE 9180 6050/47E0_00050       30114                       IF    HCMFLG.HCMPFCLS,BEGIN  Closing...
 0043F6 41F0 0004/5800_      00004 30130  1                      SCOM  CLOSE,0,HCMPMGC     Close path
                                   30148  1
 004402 4110 6018            00018 30149  1                      LA    R1,HCMPATH
 004406 5010 D000            00000 30150  1                      ST    R1,@R13             Addr of path
 00440A 9680 D000      00000       30151  1                      SET   @R13.X'80'
 00440E 1B00/1BFF/181D_            30158  1                      SCOM  OPEN,(R13)          Re-open path
 004416 12FF/4780 70C8_            30173  1                      FAIL  (R15,NZ),PATHERR4,'JES path error.'
 004434 94DF 6053      00053       30199  1                      CLEAR HCMFSENT            No longer waiting for reply
 004438 947F 6053      00053       30206  1                      CLEAR HCMFOPN             Path no longer open
 00443C 9640 6053      00053       30213  1                      SET   HCMFPND             Path open pending
 004440 41F0 0004            00004 30219  1                      LA    R15,4               Path just closed (& was re-opened)
 004444                            30220                       END
 004444 18D8/9808 D004_            30224                       PEND
 DROP   *,R7
 DROP   HCMRSC,R6                  30244                       DROP  HCMRSC
-                                  30253                       QLTORG
1JES      (JES2010) (12:47) (15MAR04) PATHSTAT - Routine to Check JES Path Status                                           Page   75
0Current Usings:  (CP,R11) (CV,R12)
0Loc    Object Code    Addr1 Addr2  Stmt Lv Lineno    Source Statement           (Hibal 5, Asmedit 3.3)  HLASM R4.0  2004/03/15 12.47
+___    ______ ____    _____ _____  ____ __ ______    ______ _________
0                                  30280
                                   30281
                                   30282                SUBMIT -- Job submission subtask.
                                   30283

0DROP   CP,R11                     30284                       DROP  CP                  No user addressability
                                   30292
 0044B4 0D70                       30293              SUBMIT   BASE
 USING  *,R7
 0044B6 58C0 71EA            046A0 30307                       L     CVR,=V(CV)
 0044BA 5860 1000            00000 30308                       L     R6,@R1              R1-->A(SUBRSC)
 USING  SUBRSC,R6                  30309                       USING SUBRSC,R6
                                   30318
 0044BE 1B11/4100 0001_            30319                       CHAP  +1                  Subtask runs above maintask
                                   30323
 0044C6 4100 0001/4110_      00001 30324              SUBWLOOP WAIT  ECB=SUBWECB         Wait for work
                                   30331
 0044D0 1B55                       30332                       CLEAR R5
 0044D2 4950 6118/47B0_      00118 30336                       WHILE (R5,LT,SUBBLEN),BEGIN  Write lines to JES...
 0044DA 4125 611A            0011A 30355  1                      LA    R2,SUBBUFR(R5)
 0044DE 1F33/4330 2000             30356  1                      LC    R3,@R2              Line length
 0044E4 4120 2001            00001 30363  1                      LA    R2,@R2+1            Line location
 0044E8 4155 3001            00001 30364  1                      LA    R5,@R3+1(R5)
 0044EC 4140 6088            00088 30365  1                      LA    R4,SUBRPL
 0044F0 4110 60F4/58F0_      000F4 30366  1                      MODCB AREA=(R2),RECLEN=(R3),MF=(E,SUBMDCBL)   Set RPL
 004560 12FF/4780 70C0_            30447  1                      IF    (R15,NZ),'ABEND 11,DUMP,STEP'
 004576 1814/4100 0001_            30475  1                      PUT   RPL=(R4)            this one's for you, JES
 004586 12FF/4780 70E6_            30482  1                      IF    (R15,NZ),'ABEND 12,DUMP,STEP'
 00459C 47F0 701C            044D2 30510                       END
 0045A0 D701 6118 6118 00118 00118 30515                       CLEAR SUBBLEN             All done
                                   30522
 0045A6 9180 6038/47E0_00038       30523                       IF    SUBFEOJ,BEGIN       End of job...
 0045AE 4140 6088            00088 30538  1                      LA    R4,SUBRPL
 0045B2 1814/4100 0004_            30539  1                      ENDREQ RPL=(R4)           Finish up
 0045C2 D204 6030 60C7 00030 000C7 30546  1                      MVC   SUBTEMP(5),SUBRPL+(RPLRBAR-RPL)+3  jobno placed here
 0045C8 D604 6030 71F2 00030 046A8 30547  1                      OC    SUBTEMP(5),=C'00000'
 0045CE 4110 6030/4100_      00030 30548  1                      DTB   SUBTEMP,5           Convert to binary
 0045DC 4780 712C/1BFF       045E2 30569  1                      IF    NZ,'CLEAR R15'      Zero if problems
 0045E2 40F0 603A            0003A 30589  1                      STH   R15,SUBJBNO         Save the jobno
 0045E6 947F 6038      00038       30590  1                      CLEAR SUBFEOJ
 0045EA                            30597                       END
                                   30601
 0045EA D703 6028 6028 00028 00028 30602                       CLEAR SUBWECB             Reset our ECB
 0045F0 1B00/4110 600C_            30609                       POST  SUB$ECB             Post mother task
 0045F8 47F0 7010            044C6 30615                       B     SUBWLOOP
                                   30616
 DROP   *,R7                       30617                       DROP  BR
                                   30624
                                   30625                       VLTORG
 0046A0                            30641                       END   .
 0046A0 00000000                   30644                             =V(CV)
 0046A4 00000000                   30645                             =V(DTB)
 0046A8 F0F0F0F0F0                 30646                             =C'00000'
1JES      (JES2010) (12:47) (15MAR04) PATHSTAT - Routine to Check JES Path Status                                           Page   76
0Current Usings:  (SUBRSC,R6) (CV,R12)
0Loc    Object Code    Addr1 Addr2  Stmt Lv Lineno    Source Statement           (Hibal 5, Asmedit 3.3)  HLASM R4.0  2004/03/15 12.47
+___    ______ ____    _____ _____  ____ __ ______    ______ _________
0
1JES      (JES2010) (12:47) (15MAR04) Relocation Dictionary                                                                 Page   77
-   Pos.Id   Rel.Id   Flags    Address                                                       HLASM R4.0  2004/03/15 12.47
0  00000001 00000001    08    00000133
   00000001 00000001    0C    000001CC
   00000001 00000001    0C    00000374
   00000001 00000001    0C    00000380
   00000001 00000001    0C    000008CC
   00000001 00000001    0C    000008F4
   00000001 00000001    0C    0000091C
   00000001 00000001    0C    00000944
   00000001 00000001    0C    0000096C
   00000001 00000001    0C    00000994
   00000001 00000001    0C    000009BC
   00000001 00000001    0C    000009E4
   00000001 00000001    0C    00000A0C
   00000001 00000001    0C    00000A34
   00000001 00000001    0C    00000A5C
   00000001 00000001    0C    00000A84
   00000001 00000001    0C    00000AAC
   00000001 00000001    0C    00000AD4
   00000001 00000001    0C    00000AFC
   00000001 00000001    0C    00000B24
   00000001 00000001    0C    00000B4C
   00000001 00000001    0C    00000B74
   00000001 00000001    0C    00000B9C
   00000001 00000001    0C    00000BEC
   00000001 00000001    0C    00000C14
   00000001 00000001    0C    00000C3C
   00000001 00000001    0C    00001028
   00000001 00000001    0C    0000102C
   00000001 00000001    0C    00001034
   00000001 00000001    0C    00001040
   00000001 00000001    0C    00001044
   00000001 00000001    0C    00001048
   00000001 00000001    0C    0000107C
   00000001 00000001    0C    00001084
   00000001 00000001    0C    00001088
   00000001 00000001    0C    0000108C
   00000001 00000001    0C    000010B4
   00000001 00000001    0C    000010BC
   00000001 00000001    0C    000010C0
   00000001 00000001    0C    00001500
   00000001 00000001    0C    00001518
   00000001 00000001    0C    0000151C
   00000001 00000001    0C    000019B0
   00000001 00000001    0C    000019D8
   00000001 00000001    0C    00001A00
   00000001 00000001    0C    00001A28
   00000001 00000001    0C    00001A50
   00000001 00000001    0C    00001A78
   00000001 00000001    0C    00001AA0
   00000001 00000001    0C    00001AC8
   00000001 00000001    0C    00001AF0
   00000001 00000001    0C    00001B18
   00000001 00000001    0C    00001B40
   00000001 00000001    0C    00001B68
   00000001 00000001    0C    00001B90
1JES      (JES2010) (12:47) (15MAR04) Relocation Dictionary                                                                 Page   78
   00000001 00000001    0C    00001BC0
   00000001 00000001    0C    00001BCC
   00000001 00000001    0C    00001BD0
   00000001 00000001    0C    00001BD4
   00000001 00000001    0C    00001BD8
   00000001 00000001    0C    00001BDC
   00000001 00000001    0C    00001BE0
   00000001 00000001    0C    00001BE8
   00000001 00000001    0C    00001C00
   00000001 00000001    0C    00001F50
   00000001 00000001    0C    00001F5C
   00000001 00000001    0C    00001F70
   00000001 00000001    08    00001FB3
   00000001 00000001    0C    00002258
   00000001 00000001    0C    00002280
   00000001 00000001    0C    000022A8
   00000001 00000001    0C    000022D0
   00000001 00000001    0C    000022F8
   00000001 00000001    0C    00002320
   00000001 00000001    0C    00002348
   00000001 00000001    0C    00002370
   00000001 00000001    0C    00002398
   00000001 00000001    0C    000023C0
   00000001 00000001    0C    000023E8
   00000001 00000001    0C    00002410
   00000001 00000001    0C    00002438
   00000001 00000001    0C    00002460
   00000001 00000001    0C    00002488
   00000001 00000001    0C    000024B0
   00000001 00000001    0C    000024D8
   00000001 00000001    0C    00002500
   00000001 00000001    0C    00002528
   00000001 00000001    0C    00002550
   00000001 00000001    0C    00002578
   00000001 00000001    0C    000025A0
   00000001 00000001    0C    000025C8
   00000001 00000001    0C    000025F0
   00000001 00000001    0C    00002618
   00000001 00000001    0C    00002640
   00000001 00000001    0C    00002668
   00000001 00000001    0C    00002690
   00000001 00000001    0C    000026B8
   00000001 00000001    0C    000026E0
   00000001 00000001    0C    00002708
   00000001 00000001    0C    00002770
   00000001 00000001    0C    00003448
   00000001 00000001    0C    00003464
   00000001 00000001    0C    00003480
   00000001 00000001    0C    00003484
   00000001 00000001    0C    000034A4
   00000001 00000001    08    000036ED
   00000001 00000001    0C    00003700
   00000001 00000001    08    00003A7B
   00000001 00000001    08    00003B7F
   00000001 00000001    08    00003BDD
   00000001 00000001    08    00003BFF
   00000001 00000001    08    00003C5F
   00000001 00000001    0C    00003DA0
   00000001 00000001    0C    00003DC4
1JES      (JES2010) (12:47) (15MAR04) Relocation Dictionary                                                                 Page   79
   00000001 00000001    0C    00003DC8
   00000001 00000001    0C    00003DD4
   00000001 00000001    0C    00003DD8
   00000001 00000001    0C    00003DE4
   00000001 00000001    0C    00003DE8
   00000001 00000001    0C    00003DF0
   00000001 00000001    08    00004071
   00000001 00000001    08    00004093
   00000001 00000001    08    00004105
   00000001 00000001    08    000042DD
   00000001 00000001    08    000042FF
   00000001 00000001    08    000043A5
   00000001 00000001    08    000043DD
   00000001 00000001    08    00004431
   00000001 00000001    0C    00004464
   00000001 00000001    0C    00004470
   00000001 00000001    0C    00004478
   00000001 00000002    1C    00000368
   00000001 00000002    1C    00003DF4
   00000001 00000003    1C    0000036C
   00000001 00000004    1C    00000378
   00000001 00000005    1C    0000037C
   00000001 00000006    1C    00000384
   00000001 00000006    1C    00001054
   00000001 00000006    1C    0000277C
   00000001 00000006    1C    00003490
   00000001 00000006    1C    00003DD0
   00000001 00000007    1C    00000388
   00000001 00000007    1C    00003494
   00000001 00000007    1C    00003DCC
   00000001 00000008    1C    000008C8
   00000001 00000008    1C    000008F0
   00000001 00000008    1C    00000918
   00000001 00000008    1C    00000940
   00000001 00000008    1C    00000968
   00000001 00000008    1C    00000990
   00000001 00000008    1C    000009B8
   00000001 00000008    1C    000009E0
   00000001 00000008    1C    00000A58
   00000001 00000008    1C    00000A80
   00000001 00000008    1C    00000AD0
   00000001 00000008    1C    00000AF8
   00000001 00000008    1C    00000B20
   00000001 00000008    1C    00000B48
   00000001 00000008    1C    00000B70
   00000001 00000008    1C    00000B98
   00000001 00000008    1C    000019AC
   00000001 00000008    1C    000019D4
   00000001 00000008    1C    000019FC
   00000001 00000008    1C    00001A24
   00000001 00000008    1C    00001A4C
   00000001 00000008    1C    00001A74
   00000001 00000008    1C    00002254
   00000001 00000008    1C    0000227C
   00000001 00000008    1C    000022A4
   00000001 00000008    1C    000022CC
   00000001 00000008    1C    000022F4
   00000001 00000008    1C    0000231C
   00000001 00000008    1C    00002344
1JES      (JES2010) (12:47) (15MAR04) Relocation Dictionary                                                                 Page   80
   00000001 00000008    1C    0000236C
   00000001 00000008    1C    00002394
   00000001 00000008    1C    000023BC
   00000001 00000008    1C    000024AC
   00000001 00000008    1C    000024FC
   00000001 00000008    1C    00002524
   00000001 00000008    1C    0000254C
   00000001 00000008    1C    00002574
   00000001 00000008    1C    0000259C
   00000001 00000008    1C    000025C4
   00000001 00000008    1C    000025EC
   00000001 00000008    1C    00002614
   00000001 00000008    1C    0000263C
   00000001 00000008    1C    00002664
   00000001 00000008    1C    000026B4
   00000001 00000008    1C    000026DC
   00000001 00000008    1C    00002704
   00000001 00000009    1C    00000A08
   00000001 00000009    1C    00000A30
   00000001 0000000A    1C    00000AA8
   00000001 0000000A    1C    00000C10
   00000001 0000000A    1C    00000C38
   00000001 0000000A    1C    000024D4
   00000001 0000000A    1C    0000268C
   00000001 0000000B    1C    00000BC4
   00000001 0000000C    1C    00000BE8
   00000001 0000000C    1C    00000C60
   00000001 0000000C    1C    00001A9C
   00000001 0000000C    1C    00001BB4
   00000001 0000000C    1C    00002754
   00000001 0000000D    1C    00000C64
   00000001 0000000D    1C    00001BB8
   00000001 0000000D    1C    00001F64
   00000001 0000000D    1C    00002758
   00000001 0000000D    1C    00003458
   00000001 0000000E    1C    00001038
   00000001 0000000E    1C    00001BC4
   00000001 0000000E    1C    00001F54
   00000001 0000000E    1C    00002774
   00000001 0000000E    1C    0000344C
   00000001 0000000F    1C    0000103C
   00000001 0000000F    1C    00001BC8
   00000001 0000000F    1C    00001F58
   00000001 0000000F    1C    00002778
   00000001 0000000F    1C    00003450
   00000001 00000010    1C    0000104C
   00000001 00000011    1C    00001050
   00000001 00000011    1C    0000150C
   00000001 00000011    1C    00001BF0
   00000001 00000011    1C    00002784
   00000001 00000011    1C    00003470
   00000001 00000011    1C    00003DB8
   00000001 00000012    1C    00001080
   00000001 00000013    1C    00001090
   00000001 00000013    1C    00001BF8
   00000001 00000013    1C    000034A8
   00000001 00000013    1C    00003DBC
   00000001 00000013    1C    00004484
   00000001 00000014    1C    00001094
1JES      (JES2010) (12:47) (15MAR04) Relocation Dictionary                                                                 Page   81
   00000001 00000015    1C    000010A4
   00000001 00000015    1C    00001BEC
   00000001 00000016    1C    000010A8
   00000001 00000017    1C    000010B0
   00000001 00000018    1C    000010B8
   00000001 00000019    1C    00001504
   00000001 0000001A    1C    00001508
   00000001 0000001A    1C    0000349C
   00000001 0000001A    1C    00004480
   00000001 0000001B    1C    00001510
   00000001 0000001C    1C    00001520
   00000001 0000001C    1C    00003DA4
   00000001 0000001D    1C    00001960
   00000001 0000001E    1C    00001988
   00000001 0000001F    1C    00001AC4
   00000001 0000001F    1C    00001AEC
   00000001 0000001F    1C    00001B14
   00000001 0000001F    1C    00001B3C
   00000001 0000001F    1C    00001B64
   00000001 0000001F    1C    00001B8C
   00000001 0000001F    1C    000023E4
   00000001 0000001F    1C    0000240C
   00000001 0000001F    1C    00002434
   00000001 0000001F    1C    0000245C
   00000001 0000001F    1C    00002484
   00000001 00000020    1C    00001BE4
   00000001 00000021    1C    00001BF4
   00000001 00000022    1C    00001BFC
   00000001 00000022    1C    00002780
   00000001 00000022    1C    000034B4
   00000001 00000022    1C    00003E04
   00000001 00000022    1C    00004460
   00000001 00000023    1C    00002730
   00000001 00000024    1C    00003478
   00000001 00000025    1C    0000347C
   00000001 00000026    1C    00003498
   00000001 00000027    1C    00003DAC
   00000001 00000028    1C    00003DB0
   00000001 00000029    1C    00003DB4
   00000001 0000002A    1C    00003DC0
   00000001 0000002B    1C    00003DE0
   00000001 0000002C    1C    00003DEC
   00000001 0000002D    1C    00004474
   00000001 0000002E    1C    000046A0
   00000001 0000002F    1C    000046A4

1JES      (JES2010) (12:47) (15MAR04) Ordinary Symbol and Literal Cross Reference                                           Page   82
-Symbol   Length   Value     Id    R Type   Defn References                                  HLASM R4.0  2004/03/15 12.47
0$$$@R0        1 00000000 FFFFFFFE     J     705  1006
 $$$@R10       1 00000000 FFFFFFF4     J     835  1070
 $$$@R11       1 00000000 FFFFFFF3     J     848  1083
 $$$@R12       1 00000000 FFFFFFF2     J     861  1096
 $$$@R13       1 00000000 FFFFFFF1     J     874  1109
 $$$@R14       1 00000000 FFFFFFF0     J     887  1122
 $$$@R7        1 00000000 FFFFFFF7     J     796  1019
 $$$@R8        1 00000000 FFFFFFF6     J     809  1032   1044
 $$$@R9        1 00000000 FFFFFFF5     J     822  1057
 $$$C1WYLJES
               1 000003DB 00000001     J   12869 12871  13972
 $$$C10WYLJES
               1 00003F12 00000001     J   28164 28166  28482
 $$$C11WYLJES
               1 000044B4 00000001     J   30274 30276
 $$$C12WYLJES
               1 000046AD 00000001     J   30647 30649
 $$$C2WYLJES
               1 0000116C 00000001     J   15784 15786  16104
 $$$C3WYLJES
               1 00001346 00000001     J   16196 16198
 $$$C4WYLJES
               1 00001558 00000001     J   16816 16818
 $$$C5WYLJES
               1 00001C39 00000001     J   18409 18411
 $$$C6WYLJES
               1 00001F7E 00000001     J   19296 19298  19549
 $$$C7WYLJES
               1 00002086 00000001     J   19598 19600  19729
 $$$C8WYLJES
               1 000027C6 00000001     J   20790 20792
 $$$C9WYLJES
               1 000035D7 00000001     J   25420 25422  25703
 $$$D1WYLJES
               1 00001166 00000001     J   12870 13961
 $$$D10WYLJES
               1 000044AE 00000001     J   28165 28471
 $$$D2WYLJES
               1 00001340 00000001     J   15785 16093
 $$$D6WYLJES
               1 00002080 00000001     J   19297 19538
 $$$D9WYLJES
               1 00003F0B 00000001     J   25421 25692
 $$$RCP        1 00000000 FFFFFFEC     J    2459  4719   6193   6193
 $$$RCV        1 00000000 FFFFFFEE     J    1184  2369   2369
 $$$RDEV       1 00000000 FFFFFFEB     J    4673  4718   4718
 $$$RHCMRSC
               1 00000000 FFFFFFD9     J   10804 10936  10936
 $$$RHRBDSECT
               1 00000000 FFFFFFD5     J   11369 11408  11408
 $$$RJCB       1 00000000 FFFFFFDB     J   10467 10741  10741
 $$$RJESWA
               1 00000000 FFFFFFD3     J   19606 19728  19728
 $$$RJWA       1 00000000 FFFFFFD4     J   11414 11596  11596
 $$$RKWR       1 00000000 FFFFFFE7     J    6443  6648   6648
1JES      (JES2010) (12:47) (15MAR04) Ordinary Symbol and Literal Cross Reference                                           Page   83
 $$$RNSCNCB
               1 00000000 FFFFFFED     J    2380  2453   2453
 $$$RRDWD      1 00000000 FFFFFFD6     J   11335 11363  11363
 $$$RRESOURCE
               1 00000000 FFFFFFE8     J    6373  6414   6414
 $$$RRSCGROUP
               1 00000000 FFFFFFE9     J    6312  6367   6367
 $$$RSEGCB
               1 00000000 FFFFFFD7     J   11229 11329  11329
 $$$RSUBRSC
               1 00000000 FFFFFFD8     J   10943 11223  11223
 $$$RTTYPE
               1 00000000 FFFFFFEA     J    6204  6305   6305
 $$$RUSERCVT
               1 00000000 FFFFFFE1     J    8820  8903   8903
 $$$SEGCB0
               4 00000050 FFFFFFEC     F    2490  2576   2576
 $$$V01       20 000045FC 00000001     C   30631 12041
 $$$V02       28 00004610 00000001     C   30632 19379  27031  27572  28729  28765  28938  29712  29748
 $$$V03       18 0000462C 00000001     C   30633 27424
 $$$V04       29 0000463E 00000001     C   30634 27608
 $$$V05       18 0000465B 00000001     C   30635 27769
 $$$V06       14 0000466D 00000001     C   30636 30003
 $$$V07       15 0000467B 00000001     C   30637 30078
 $$$V08       15 0000468A 00000001     C   30638 30194
 $$$Z10        4 00004454 00000001     F   30259 29095  29135
 $$$100F       2 00000618 00000001     H   13385 13352B 13364B
 $$$103F       2 0000064C 00000001     H   13435 13401B
 $$$105F       2 00000686 00000001     H   13537 13497B
 $$$107F       2 00000696 00000001     H   13558 13549B
 $$$108F       2 00000752 00000001     H   13890 13575B
 $$$111F       2 000006B2 00000001     H   13599 13590B
 $$$112B       4 000006C0 00000001     I   13627 13828
 $$$112F       2 0000072E 00000001     H   13822 13615B 13627B 13825
 $$$113B       4 000006B8 00000001     I   13615 13826
 $$$115F       2 00000706 00000001     H   13767 13643B
 $$$117F       2 000006F0 00000001     H   13735 13660B 13679B 13699B 13719B
 $$$121F       2 00000702 00000001     H   13757 13747B
 $$$123F       2 00000724 00000001     H   13814 13795B
 $$$125E       2 00000732 00000001     H   13835 13827  13829
 $$$125F       2 0000074A 00000001     H   13883 13831B
 $$$126F       2 00000746 00000001     H   13878 13848B
 $$$128F       2 00000746 00000001     H   13874 13864B
 $$$129F       2 0000076A 00000001     H   13938 13903B 13924B
 $$$134F       2 00000776 00000001     H   13977 13953B
 $$$135        6 00001166 00000001     I   13967 13959X
 $$$136        6 00001166 00000001     I   13966 13967  13967
 $$$137F       2 00000788 00000001     H   14014 14001B
 $$$138F       2 0000079C 00000001     H   14051 14027B 14041B
 $$$140B       4 000007A0 00000001     I   14063 14141
 $$$140F       2 000007FE 00000001     H   14138 14063B 14140
 $$$141F       2 000007F0 00000001     H   14109 14078B
 $$$142E       2 00000802 00000001     H   14148 14142
 $$$142F       2 00000822 00000001     H   14166 14144B
 $$$144F       2 00000866 00000001     H   14283 14236B 14251B
 $$$149        1 000002A8 00000001 A   U   14359 14356  14358
 $$$150B       1 000008A4 00000001     X   14371 14378U
 $$$152B       1 00000C82 00000001     X   14776 14783U
 $$$153        1 00000050 00000001 A   U   14816 14813  14815
1JES      (JES2010) (12:47) (15MAR04) Ordinary Symbol and Literal Cross Reference                                           Page   84
 $$$155B       1 00000CB6 00000001     X   14843 14850U
 $$$157        1 00000050 00000001 A   U   14883 14880  14882
 $$$159B       1 00000CE2 00000001     X   14910 14917U
 $$$162        1 00000050 00000001 A   U   14953 14950  14952
 $$$164B       1 00000D0E 00000001     X   14980 14987U
 $$$165        1 00000050 00000001 A   U   15137 15134  15136
 $$$167B       1 00000E1C 00000001     X   15164 15171U
 $$$168        1 00000050 00000001 A   U   15198 15195  15197
 $$$170B       1 00000E48 00000001     X   15225 15232U
 $$$171        1 00000050 00000001 A   U   15259 15256  15258
 $$$173B       1 00000E74 00000001     X   15286 15293U
 $$$174        1 00000050 00000001 A   U   15320 15317  15319
 $$$176B       1 00000EA0 00000001     X   15347 15354U
 $$$177        1 00000050 00000001 A   U   15386 15383  15385
 $$$179B       1 00000ECC 00000001     X   15413 15420U
 $$$180        1 00000050 00000001 A   U   15452 15449  15451
 $$$182B       1 00000EF8 00000001     X   15479 15486U
 $$$183        1 00000050 00000001 A   U   15519 15516  15518
 $$$185B       1 00000F28 00000001     X   15546 15553U
 $$$186        1 00000050 00000001 A   U   15585 15582  15584
 $$$188B       1 00000F5A 00000001     X   15621 15628U
 $$$189        1 00000050 00000001 A   U   15658 15655  15657
 $$$191B       1 00000F88 00000001     X   15685 15692U
 $$$192        1 00000050 00000001 A   U   15719 15716  15718
 $$$194B       1 00001286 00000001     X   15869 15876U
 $$$195        1 00000050 00000001 A   U   15918 15915  15917
 $$$197B       1 000012B4 00000001     X   15964 15971U
 $$$198        1 00000050 00000001 A   U   16014 16011  16013
 $$$200B       1 000012EE 00000001     X   16057 16064U
 $$$201        6 00001340 00000001     I   16099 16091X
 $$$202        6 00001340 00000001     I   16098 16099  16099
 $$$203F       2 00001324 00000001     H   16157 16123B
 $$$203S       2 0000130A 00000001     H   16116 16156B
 $$$205F       2 0000131C 00000001     H   16149 16140B
 $$$206        1 00000050 00000001 A   U   16176 16173  16175
 $$$208B       1 00001360 00000001     X   16235 16242U
 $$$209F       2 000013F8 00000001     H   16460 16270B 16289B
 $$$211F       2 000013EC 00000001     H   16441 16399B 16410B
 $$$213F       2 0000140C 00000001     H   16494 16485B
 $$$214B       1 00001424 00000001     X   16513 16523U
 $$$215        1 00000050 00000001 A   U   16614 16611  16613
 $$$217B       1 00001486 00000001     X   16653 16660U
 $$$218B       1 00001496 00000001     X   16685 16695U
 $$$219        1 00000050 00000001 A   U   16786 16783  16785
 $$$221B       1 00001572 00000001     X   16858 16865U
 $$$222F       2 0000158C 00000001     H   16924 16909B
 $$$223F       2 000016BC 00000001     H   17086 16935B
 $$$224F       2 000016DA 00000001     H   17118 17107B
 $$$225F       2 000016FC 00000001     H   17157 17144B
 $$$226F       2 00001710 00000001     H   17185 17170B
 $$$228F       2 000017C2 00000001     H   17461 17198B
 $$$230F       2 00001736 00000001     H   17249 17232B
 $$$231F       2 0000176C 00000001     H   17329 17261B
 $$$232F       2 00001768 00000001     H   17318 17276B
 $$$233F       2 000017BE 00000001     H   17456 17441B
 $$$235F       2 000017F6 00000001     H   17563 17497B 17515B
 $$$237F       2 00001816 00000001     H   17619 17608B
 $$$239F       2 00001836 00000001     H   17680 17631B 17650B 17670B
 $$$243F       2 00001900 00000001     H   18051 17701B
1JES      (JES2010) (12:47) (15MAR04) Ordinary Symbol and Literal Cross Reference                                           Page   85
 $$$244F       2 0000185C 00000001     H   17752 17735B
 $$$245F       2 00001876 00000001     H   17804 17794B
 $$$246F       2 000018E0 00000001     H   17972 17818B 17960B
 $$$246S       2 0000187A 00000001     H   17812 17971B
 $$$248F       2 000018C0 00000001     H   17911 17869B
 $$$250F       2 000018EA 00000001     H   17998 17983B
 $$$251F       2 000018F4 00000001     H   18024 18009B
 $$$252F       2 00001912 00000001     H   18092 18079B
 $$$253        1 000002A8 00000001 A   U   18127 18124  18126
 $$$255B       1 00001C54 00000001     X   18438 18445U
 $$$256        1 00000050 00000001 A   U   18475 18472  18474
 $$$258B       1 00001C82 00000001     X   18502 18509U
 $$$259        1 00000050 00000001 A   U   18659 18656  18658
 $$$261B       1 00001D90 00000001     X   18686 18693U
 $$$262F       2 00001DAC 00000001     H   18735 18722B
 $$$263F       2 00001DCC 00000001     H   18773 18762B
 $$$263T       2 00001DBC 00000001     H   18765 18751B
 $$$265F       2 00001DE4 00000001     H   18796 18785B
 $$$266        1 00000050 00000001 A   U   18820 18817  18819
 $$$268B       1 00001E12 00000001     X   18847 18854U
 $$$269F       2 00001E3C 00000001     H   18894 18883B
 $$$270F       2 00001E4A 00000001     H   18921 18908B
 $$$271        1 00000050 00000001 A   U   18942 18939  18941
 $$$273B       1 00001E78 00000001     X   18969 18976U
 $$$274F       2 00001EA0 00000001     H   19016 19005B
 $$$275F       2 00001EAE 00000001     H   19043 19030B
 $$$276        1 00000050 00000001 A   U   19064 19061  19063
 $$$278B       1 00001EDC 00000001     X   19094 19101U
 $$$279F       2 00001F3E 00000001     H   19246 19121B 19176B
 $$$280F       2 00001EF6 00000001     H   19143 19133B
 $$$281F       2 00001F06 00000001     H   19161 19151B
 $$$283F       2 00001F3A 00000001     H   19232 19216B
 $$$284        1 00000050 00000001 A   U   19264 19261  19263
 $$$286B       1 00001F98 00000001     X   19341 19348U
 $$$287F       2 00001FB6 00000001     H   19383 19368B
 $$$288F       2 00002002 00000001     H   19457 19447B
 $$$289F       2 00002010 00000001     H   19478 19469B
 $$$291F       2 00002020 00000001     H   19501 19491B
 $$$292F       2 0000203E 00000001     H   19528 19519B
 $$$293        6 00002080 00000001     I   19544 19536X
 $$$294        6 00002080 00000001     I   19543 19544  19544
 $$$295        1 00000050 00000001 A   U   19575 19572  19574
 $$$297B       1 000020A0 00000001     X   19762 19769U
 $$$298F       2 000021E4 00000001     H   20141 19853B
 $$$299F       2 0000213A 00000001     H   19903 19890B
 $$$300F       2 0000216E 00000001     H   19971 19958B
 $$$301F       2 000021E0 00000001     H   20136 20121B
 $$$302F       2 00002204 00000001     H   20206 20154B
 $$$304F       2 00002204 00000001     H   20202 20187B
 $$$306F       2 0000221C 00000001     H   20241 20218B
 $$$307        1 00000088 00000001 A   U   20267 20264  20266
 $$$309B       1 000027E0 00000001     X   20819 20826U
 $$$310        1 00000050 00000001 A   U   20858 20855  20857
 $$$312B       1 0000280C 00000001     X   20885 20892U
 $$$313        1 00000050 00000001 A   U   20928 20925  20927
 $$$315B       1 0000283C 00000001     X   20955 20962U
 $$$316        1 00000050 00000001 A   U   20999 20996  20998
 $$$318B       1 0000286C 00000001     X   21026 21033U
 $$$319        1 00000050 00000001 A   U   21070 21067  21069
1JES      (JES2010) (12:47) (15MAR04) Ordinary Symbol and Literal Cross Reference                                           Page   86
 $$$321B       1 0000289C 00000001     X   21097 21104U
 $$$322        1 00000050 00000001 A   U   21140 21137  21139
 $$$324B       1 000028CC 00000001     X   21167 21174U
 $$$325        1 00000050 00000001 A   U   21214 21211  21213
 $$$327B       1 00002900 00000001     X   21241 21248U
 $$$328        1 00000050 00000001 A   U   21289 21286  21288
 $$$330B       1 00002934 00000001     X   21316 21323U
 $$$331        1 00000050 00000001 A   U   21363 21360  21362
 $$$333B       1 00002968 00000001     X   21390 21397U
 $$$334        1 00000050 00000001 A   U   21438 21435  21437
 $$$336B       1 0000299C 00000001     X   21465 21472U
 $$$337        1 00000050 00000001 A   U   21516 21513  21515
 $$$339B       1 000029D6 00000001     X   21543 21550U
 $$$340        1 00000050 00000001 A   U   21595 21592  21594
 $$$342B       1 00002A10 00000001     X   21622 21629U
 $$$343F       2 00002AA8 00000001     H   21764 21690B 21709B
 $$$345F       2 00002A90 00000001     H   21737 21726B
 $$$346F       2 00002AA8 00000001     H   21760 21749B
 $$$347F       2 00002AD6 00000001     H   21811 21779B
 $$$348F       2 00002AD6 00000001     H   21807 21794B
 $$$349        1 00000050 00000001 A   U   21844 21841  21843
 $$$351B       1 00002B08 00000001     X   21871 21878U
 $$$352F       2 00002B22 00000001     H   21932 21919B
 $$$352T       2 00002B1C 00000001     H   21922 21908B
 $$$354F       2 00002B30 00000001     H   21957 21944B
 $$$355F       2 00002B3E 00000001     H   21983 21970B
 $$$356        1 00000050 00000001 A   U   22011 22008  22010
 $$$358B       1 00002B76 00000001     X   22038 22045U
 $$$359F       2 00002B90 00000001     H   22099 22086B
 $$$359T       2 00002B8A 00000001     H   22089 22075B
 $$$361F       2 00002B9E 00000001     H   22124 22111B
 $$$362F       2 00002BAC 00000001     H   22150 22137B
 $$$363        1 00000050 00000001 A   U   22182 22179  22181
 $$$365B       1 00002BEE 00000001     X   22209 22216U
 $$$366F       2 00002C08 00000001     H   22270 22257B
 $$$366T       2 00002C02 00000001     H   22260 22246B
 $$$368F       2 00002C16 00000001     H   22295 22282B
 $$$369F       2 00002C24 00000001     H   22321 22308B
 $$$370        1 00000050 00000001 A   U   22348 22345  22347
 $$$372B       1 00002C5C 00000001     X   22375 22382U
 $$$373F       2 00002C76 00000001     H   22436 22423B
 $$$373T       2 00002C70 00000001     H   22426 22412B
 $$$375F       2 00002C84 00000001     H   22461 22448B
 $$$376F       2 00002C92 00000001     H   22487 22474B
 $$$377F       2 00002CC8 00000001     H   22538 22505B
 $$$378        1 00000050 00000001 A   U   22560 22557  22559
 $$$380B       1 00002CF2 00000001     X   22587 22594U
 $$$381F       2 00002D0C 00000001     H   22648 22635B
 $$$381T       2 00002D06 00000001     H   22638 22624B
 $$$383F       2 00002D1A 00000001     H   22673 22660B
 $$$384F       2 00002D28 00000001     H   22699 22686B
 $$$385F       2 00002D5C 00000001     H   22755 22715B
 $$$386        1 00000050 00000001 A   U   22777 22774  22776
 $$$388B       1 00002D86 00000001     X   22804 22811U
 $$$389        1 00000050 00000001 A   U   22850 22847  22849
 $$$391B       1 00002DB8 00000001     X   22877 22884U
 $$$392        1 00000050 00000001 A   U   22917 22914  22916
 $$$394B       1 00002DE8 00000001     X   22944 22951U
 $$$395        1 00000050 00000001 A   U   22987 22984  22986
1JES      (JES2010) (12:47) (15MAR04) Ordinary Symbol and Literal Cross Reference                                           Page   87
 $$$397B       1 00002E18 00000001     X   23014 23021U
 $$$398        1 00000050 00000001 A   U   23058 23055  23057
 $$$400B       1 00002E48 00000001     X   23085 23092U
 $$$401        1 00000050 00000001 A   U   23128 23125  23127
 $$$403B       1 00002E78 00000001     X   23155 23162U
 $$$404        1 00000050 00000001 A   U   23199 23196  23198
 $$$406B       1 00002EA8 00000001     X   23226 23233U
 $$$407        1 00000050 00000001 A   U   23274 23271  23273
 $$$409B       1 00002EDE 00000001     X   23301 23308U
 $$$410F       2 00002EEC 00000001     H   23340 23327B
 $$$411        1 00000050 00000001 A   U   23364 23361  23363
 $$$413B       1 00002F18 00000001     X   23391 23398U
 $$$414F       2 00002F26 00000001     H   23430 23417B
 $$$415        1 00000050 00000001 A   U   23458 23455  23457
 $$$417B       1 00002F56 00000001     X   23485 23492U
 $$$418F       2 00002F64 00000001     H   23524 23511B
 $$$419        1 00000050 00000001 A   U   23553 23550  23552
 $$$421B       1 00002F94 00000001     X   23594 23601U
 $$$422        1 00000050 00000001 A   U   23640 23637  23639
 $$$424B       1 00002FD2 00000001     X   23668 23675U
 $$$425F       2 00002FEC 00000001     H   23721 23694B
 $$$426F       2 00003006 00000001     H   23759 23732B
 $$$427F       2 0000301E 00000001     H   23787 23774B
 $$$428F       2 00003042 00000001     H   23850 23823B
 $$$429F       2 000030EC 00000001     H   24090 23880B
 $$$430F       2 00003076 00000001     H   23922 23895B
 $$$431F       2 000030DA 00000001     H   24056 23952B
 $$$432F       2 00003120 00000001     H   24166 24102B
 $$$433F       2 0000310E 00000001     H   24144 24117B
 $$$434F       2 00003154 00000001     H   24242 24178B
 $$$435F       2 00003142 00000001     H   24220 24193B
 $$$436F       2 0000316E 00000001     H   24281 24254B
 $$$437F       2 000031A2 00000001     H   24357 24293B
 $$$438F       2 00003190 00000001     H   24335 24308B
 $$$439F       2 000031D6 00000001     H   24438 24370B
 $$$440F       2 0000320C 00000001     H   24522 24453B
 $$$441F       2 0000323A 00000001     H   24590 24535B
 $$$442F       2 00003268 00000001     H   24658 24603B
 $$$443F       2 00003296 00000001     H   24726 24671B
 $$$444F       2 000032C4 00000001     H   24794 24739B
 $$$445F       2 0000330C 00000001     H   24887 24874B
 $$$446F       2 0000331A 00000001     H   24910 24897B
 $$$447        1 00000050 00000001 A   U   24952 24949  24951
 $$$449B       1 0000334C 00000001     X   24980 24987U
 $$$450F       2 00003422 00000001     H   25330 25007B
 $$$451F       2 00003416 00000001     H   25301 25055B 25080B
 $$$451S       2 0000336E 00000001     H   25044 25300B
 $$$454F       2 00003396 00000001     H   25128 25095B
 $$$455F       2 000033D8 00000001     H   25226 25156B
 $$$456        1 00000050 00000001 A   U   25348 25345  25347
 $$$458B       1 000035F2 00000001     X   25460 25467U
 $$$459F       2 00003620 00000001     H   25531 25487B
 $$$460        1 00000050 00000001 A   U   25549 25546  25548
 $$$462B       1 00003648 00000001     X   25589 25596U
 $$$463F       2 00003658 00000001     H   25626 25616B
 $$$464F       2 00003668 00000001     H   25648 25638B
 $$$465F       2 0000367C 00000001     H   25670 25661B
 $$$466F       2 00003688 00000001     H   25708 25684B
 $$$467        6 00003F0C 00000001     I   25698 25690X
1JES      (JES2010) (12:47) (15MAR04) Ordinary Symbol and Literal Cross Reference                                           Page   88
 $$$468        6 00003F0C 00000001     I   25697 25698  25698
 $$$469F       2 000036DC 00000001     H   25773 25763B
 $$$470        1 00000050 00000001 A   U   25791 25788  25790
 $$$471B       1 0000372E 00000001     X   25836 25843U
 $$$472F       2 0000373A 00000001     H   25865 25855B
 $$$475F       2 000037AA 00000001     H   26023 25918B
 $$$481F       2 000037D8 00000001     H   26124 26097B
 $$$483F       2 00003828 00000001     H   26285 26138B
 $$$488F       2 00003824 00000001     H   26280 26250B
 $$$494F       2 00003842 00000001     H   26337 26319B
 $$$497F       2 000038A2 00000001     H   26468 26350B
 $$$499B       1 0000391E 00000001     X   26610 26617U
 $$$500F       2 000039A2 00000001     H   26787 26704B
 $$$501F       2 000039F8 00000001     H   26860 26795B
 $$$502F       2 000039EA 00000001     H   26848 26814B
 $$$503F       2 00003A12 00000001     H   26888 26872B
 $$$504F       2 00003A34 00000001     H   26934 26900B 26917B
 $$$506        1 00000050 00000001 A   U   26953 26950  26952
 $$$508B       1 00003A5C 00000001     X   26993 27000U
 $$$509F       2 00003A7E 00000001     H   27035 27020B
 $$$51B        1 00000030 00000001     X   11631 11638U
 $$$510F       2 00003AC6 00000001     H   27150 27126B
 $$$511        1 00000050 00000001 A   U   27169 27166  27168
 $$$513B       1 00003AEE 00000001     X   27217 27224U
 $$$514        1 00000050 00000001 A   U   27262 27259  27261
 $$$516B       1 00003B2A 00000001     X   27298 27305U
 $$$517F       2 00003B94 00000001     H   27482 27330B
 $$$518F       2 00003B5A 00000001     H   27388 27358B
 $$$519F       2 00003B82 00000001     H   27428 27413B
 $$$52F        2 00000044 00000001     H   11683 11673B
 $$$520        1 00000050 00000001 A   U   27502 27499  27501
 $$$522B       1 00003BBE 00000001     X   27534 27541U
 $$$523F       2 00003BE0 00000001     H   27576 27561B
 $$$524F       2 00003C02 00000001     H   27612 27597B
 $$$525F       2 00003C30 00000001     H   27721 27635B 27653B
 $$$528F       2 00003C2C 00000001     H   27707 27698B
 $$$528S       2 00003C1E 00000001     H   27681 27706B
 $$$53F        2 0000005A 00000001     H   11723 11713B
 $$$531F       2 00003C62 00000001     H   27773 27758B
 $$$532        1 00000050 00000001 A   U   27836 27833  27835
 $$$534B       1 00003C9C 00000001     X   27884 27891U
 $$$535F       2 00003D2A 00000001     H   28082 27923B
 $$$536F       2 00003D12 00000001     H   28060 27938B
 $$$537B       4 00003CD2 00000001     I   27965 27982
 $$$537F       2 00003CDE 00000001     H   27978 27965B 27981
 $$$538E       2 00003CE2 00000001     H   27989 27983
 $$$538F       2 00003CF2 00000001     H   28013 27985B 28000B
 $$$540        1 00000050 00000001 A   U   28102 28099  28101
 $$$541F       2 00003FCE 00000001     H   28501 28319B
 $$$542B       1 00003F2C 00000001     X   28201 28208U
 $$$543F       2 00003F62 00000001     H   28323 28230B
 $$$544F       2 00003F46 00000001     H   28266 28249B
 $$$545F       2 00003F5E 00000001     H   28316 28301B
 $$$546F       2 00003F84 00000001     H   28370 28352B
 $$$547F       2 00003F98 00000001     H   28415 28406B
 $$$548F       2 00003FAE 00000001     H   28443 28431B
 $$$549F       2 00003FCE 00000001     H   28487 28463B
 $$$55F        2 000000DE 00000001     H   11922 11788B 11807B 11827B 11847B 11867B
 $$$550        6 000044AE 00000001     I   28477 28469X
1JES      (JES2010) (12:47) (15MAR04) Ordinary Symbol and Literal Cross Reference                                           Page   89
 $$$551        6 000044AE 00000001     I   28476 28477  28477
 $$$552        1 00000050 00000001 A   U   28510 28507  28509
 $$$554B       1 00003FF6 00000001     X   28542 28549U
 $$$555F       2 00004024 00000001     H   28640 28589B
 $$$557        1 00000050 00000001 A   U   28666 28663  28665
 $$$558B       1 00004052 00000001     X   28698 28705U
 $$$559F       2 00004074 00000001     H   28733 28718B
 $$$560F       2 00004096 00000001     H   28769 28754B
 $$$562F       2 000040D8 00000001     H   28884 28831B
 $$$564F       2 00004140 00000001     H   29065 28896B
 $$$565F       2 00004114 00000001     H   28954 28912B
 $$$567F       2 00004108 00000001     H   28942 28927B
 $$$568F       2 00004136 00000001     H   29036 28985B
 $$$570F       2 0000416E 00000001     H   29106 29096B
 $$$571F       2 00004188 00000001     H   29146 29121B 29136B
 $$$574F       2 0000419E 00000001     H   29185 29159B
 $$$578B       4 000041C4 00000001     I   29269 29355
 $$$578F       2 000041FA 00000001     H   29352 29269B 29354
 $$$580F       2 000041FA 00000001     H   29348 29287B
 $$$582F       2 000041FA 00000001     H   29344 29304B
 $$$584F       2 000041FA 00000001     H   29340 29324B
 $$$586E       2 000041FE 00000001     H   29362 29356
 $$$586F       2 00004226 00000001     H   29434 29358B
 $$$587F       2 00004226 00000001     H   29430 29392B
 $$$589F       2 00004226 00000001     H   29426 29410B
 $$$591F       2 00004244 00000001     H   29473 29455B
 $$$598B       1 000042BE 00000001     X   29674 29681U
 $$$599F       2 000042E0 00000001     H   29716 29701B
 $$$60F        2 000000DA 00000001     H   11916 11888B
 $$$60S        2 000000BE 00000001     H   11882 11915B
 $$$600F       2 00004302 00000001     H   29752 29737B
 $$$603B       4 0000432A 00000001     I   29812 29830
 $$$603F       2 00004332 00000001     H   29827 29812B 29829
 $$$604E       2 00004336 00000001     H   29837 29831
 $$$604F       2 00004344 00000001     H   29849 29833B
 $$$605        1 00000050 00000001 A   U   29867 29864  29866
 $$$607B       1 0000436C 00000001     X   29922 29929U
 $$$608F       2 000043B0 00000001     H   30024 29962B
 $$$610F       2 000043A8 00000001     H   30007 29992B
 $$$610T       2 00004390 00000001     H   29995 29982B
 $$$612F       2 000043E2 00000001     H   30090 30037B
 $$$614F       2 000043E0 00000001     H   30082 30067B
 $$$614T       2 000043C8 00000001     H   30070 30057B
 $$$616F       2 000043EE 00000001     H   30112 30102B
 $$$617F       2 00004444 00000001     H   30223 30125B
 $$$62F        2 0000013E 00000001     H   12068 11972B
 $$$62S        2 000000E8 00000001     H   11966 12067B
 $$$620F       2 00004434 00000001     H   30198 30183B
 $$$621        1 00000050 00000001 A   U   30241 30238  30240
 $$$622B       1 000044B6 00000001     X   30298 30305U
 $$$623F       2 000045A0 00000001     H   30514 30350B
 $$$623S       2 000044D2 00000001     H   30341 30513B
 $$$625F       2 00004576 00000001     H   30474 30456B
 $$$626F       2 0000459C 00000001     H   30509 30491B
 $$$627F       2 000045EA 00000001     H   30600 30533B
 $$$628F       2 000045E2 00000001     H   30588 30575B
 $$$65F        2 00000136 00000001     H   12045 12030B
 $$$66F        2 0000021E 00000001     H   12268 12146B
 $$$66S        2 00000162 00000001     H   12139 12213B 12267B
1JES      (JES2010) (12:47) (15MAR04) Ordinary Symbol and Literal Cross Reference                                           Page   90
 $$$68F        2 000001B2 00000001     H   12217 12189B
 $$$69         1 00000050 00000001 A   U   12295 12292  12294
 $$$71B        1 00000246 00000001     X   12327 12334U
 $$$72F        2 00000288 00000001     H   12468 12395B
 $$$72S        2 00000252 00000001     H   12388 12467B
 $$$74F        2 00000284 00000001     H   12458 12426B
 $$$75         1 00000050 00000001 A   U   12494 12491  12493
 $$$77B        1 000002B0 00000001     X   12526 12533U
 $$$78F        2 000002F6 00000001     H   12628 12552B
 $$$79         1 00000050 00000001 A   U   12646 12643  12645
 $$$81B        1 0000031E 00000001     X   12681 12688U
 $$$82F        2 0000034C 00000001     H   12823 12736B 12768B 12787B
 $$$86F        2 0000034C 00000001     H   12814 12804B
 $$$88         1 00000050 00000001 A   U   12841 12838  12840
 $$$90B        1 000003F6 00000001     X   12905 12912U
 $$$92B        4 0000055E 00000001     I   13141 13277
 $$$92F        2 000005BE 00000001     H   13274 13141B 13276
 $$$93B        4 00000566 00000001     I   13156 13196
 $$$93F        2 00000582 00000001     H   13193 13156B 13195
 $$$94F        2 00000582 00000001     H   13189 13175B
 $$$95E        2 00000586 00000001     H   13203 13197
 $$$95F        2 00000592 00000001     H   13211 13199B
 $$$96F        2 000005BE 00000001     H   13270 13237B
 $$$96T        2 000005A0 00000001     H   13240 13225B
 $$$98E        2 000005C2 00000001     H   13284 13278
 $$$98F        2 000005E8 00000001     H   13333 13280B
 $$$99F        2 000005E8 00000001     H   13329 13296B
 $USINTAL      1 0000002E 00000001 A   U    6439 26247  26266
 $USINTMS      1 00000004 00000001 A   U    6428  6439
 $USINTSY      1 00000008 00000001 A   U    6430  6439
 $USINTUS      1 00000002 00000001 A   U    6426  6439
 $USSTC        1 00000020 00000001 A   U    6434  6439
 @RAR          0 00000000 FFFFFFF0     @    1123  2167   2175B
 @R0           0 00000000 FFFFFFFE     @     706   982U
 @R1           0 00000000 FFFFFFFD     @     719   978U  2173   2174  13930  13966  18748  18761  18767  18768  18784
                                                 18790  18791  18882  18888  18922  19004  19010  19044  19241U 19543
                                                 21725  21731  21732  21748  21754  21755  21905  21918  21943  21989
                                                 22072  22085  22110  22155  22243  22256  22281  22326  22409  22422
                                                 22447  22492  22621  22634  22659  22704  25615  25622M 25637  25644M
                                                 25697  28449M 28476M 29309  30308
 @R10          0 00000000 FFFFFFF4     @     836   942U
 @R11          0 00000000 FFFFFFF3     @     849   938U 30290U
 @R12          0 00000000 FFFFFFF2     @     862   934U
 @R13          0 00000000 FFFFFFF1     @     875   930U 11679  11719  11997M 12004M 15115  18637  25828M 28690M 29774M
                                                 29774  29776M 29783M 30150M 30157M
 @R14          0 00000000 FFFFFFF0     @     888   926U
 @R15          0 00000000 FFFFFFEF     @     901   922U 13477U 13782U 13818  26683U 27078U 27458U 27803U 28377U 28635U
                                                 29031U
 @R2           0 00000000 FFFFFFFC     @     732   974U 11986U 12061U 12075U 12264U 12464U 13580M 13818M 13863  13870M
                                                 13885  13966M 16098M 16139  16145M 17512  28417  28447  30361  30363
 @R3           0 00000000 FFFFFFFB     @     745   970U 16450U 28476  29218U 29486U 29511U 30362U 30364
 @R4           0 00000000 FFFFFFFA     @     758   966U 12124U 12381U 16098  16298M 16437  25068U
 @R5           0 00000000 FFFFFFF9     @     771   962U 12820U 18048U 18099U 19432U 27178U 27384U 27733U 28965U 29059U
                                                 29629U 29876U
 @R6           0 00000000 FFFFFFF8     @     784   958U 11726  11727  11751U 11949U 12275U 12475U 12725U 15728U 15926U
                                                 16022U 16184U 19272U 19583U 23562U 26573U 26962U 27185U 27479U 27845U
                                                 28494U 28675U 29636U 29883U 30250U
 @R7           0 00000000 FFFFFFF7     @     797   954U 12284U 12483U 12635U 12830U 14348U 14387U 14805U 14872U 14942U
                                                 15126U 15187U 15248U 15309U 15375U 15441U 15508U 15574U 15647U 15708U
1JES      (JES2010) (12:47) (15MAR04) Ordinary Symbol and Literal Cross Reference                                           Page   91
                                                 15907U 16003U 16165U 16520U 16538U 16603U 16692U 16710U 16775U 18116U
                                                 18464U 18648U 18809U 18931U 19053U 19253U 19564U 20256U 20847U 20917U
                                                 20988U 21059U 21129U 21203U 21278U 21352U 21427U 21505U 21584U 21833U
                                                 22000U 22171U 22337U 22549U 22766U 22839U 22906U 22976U 23047U 23117U
                                                 23188U 23263U 23353U 23447U 23542U 23629U 24941U 25337U 25538U 25780U
                                                 26579U 26942U 27158U 27251U 27491U 27825U 28091U 28499U 28655U 29622U
                                                 29856U 30230U 30622U
 @R8           0 00000000 FFFFFFF6     @     810   950U 14343U 18111U 20251U
 @R9           0 00000000 FFFFFFF5     @     823   946U
 ABSCENT       1 00000000 00000000 A   T    2183  2183
 ACBCCTYP      1 00000019 FFFFFFDD     B    9850  9859
 ACBDDNM       8 00000028 FFFFFFDD     C    9891  9897
 ACBJBUF       2 00000016 FFFFFFDD     H    9841  9843   9844
 ACBOFLGS      1 00000030 FFFFFFDD     B    9923 12181  26788  26807  27351
 ACBOPEN       1 00000010 FFFFFFDD A   U    9927 12181  26788  26807  27351
 ADDER         1 00000000 00000010     T   15752 15752
 AHLHEAD       1 00000000 00000000 A   T    7893  7893
 AHLVCCR8      1 00000000 00000000 A   T    8384  8384
 AMODE24       1 00000000 00000027     T   28125 28125
 AMODE31       1 00000000 00000028     T   28126 28126
 ASCTBL        1 00000000 00000000 A   T    2191  2191
 ASMVT         1 00000000 00000000 A   T    8273  8273
 BASE          2 000008A2 00000001     I   14368 16541U 16713U 16807
 BLTBL         1 00000000 00000000 A   T    2193  2193
 BR            7 00000007 00000001 A   #    1013 11626M 12322M 12521M 12676M 12900M 14771M 14838M 14905M 14975M 15159M
                                                 15220M 15281M 15342M 15408M 15474M 15541M 15616M 15680M 15864M 15959M
                                                 16052M 16230M 16648M 16853M 18433M 18497M 18681M 18842M 18964M 19089M
                                                 19336M 19757M 20814M 20880M 20950M 21021M 21092M 21162M 21236M 21311M
                                                 21385M 21460M 21538M 21617M 21866M 22033M 22204M 22370M 22582M 22799M
                                                 22872M 22939M 23009M 23080M 23150M 23221M 23296M 23386M 23480M 23589M
                                                 23663M 24975M 25455M 25584M 25833M 25843U 26605M 26988M 27212M 27293M
                                                 27529M 27879M 28196M 28537M 28695M 28705U 29669M 29917M
 BTD           1 00000000 00000026     T   25382 25382
 CBBRANCH      1 00000000 00000000 A   T    8429  8429
 CHARCHKA      1 00000000 00000024     T   25374 25374
 CHECKIOB      1 00000000 00000000 A   T    2239  2239
 CHKKEY        2 00001EC2 00000001     H   19075 15756  18391
 CHKKW         1 00000000 0000002A     T   28130 28130
 CLRPSH        1 00000000 0000000B     T   14690 14690
 CLRTEXT       1 00000000 00000012     T   15757 15757
 COLLOPTS      1 00000000 00000025     T   25375 25375
 COLLPSH       1 00000000 0000001D     T   18150 18150
 COMMAND       1 00000000 00000000 A   T    2179  2179
 COMMSEG       1 00000000 00000000 A   T    2180  2180
 CP         4096 00000000 FFFFFFEC     J    6193  1168U
 CP#XSTK       1 00000010 FFFFFFEC A   U    3925  3926
 CPACFLG       1 000005D5 FFFFFFEC     R    4028  4032   4037   4042   4047   4052
 CPACFLN       4 000005C4 FFFFFFEC     F    4020  4055   4055
 CPAFLAG       1 000005C3 FFFFFFEC     R    3992  3996   4001   4006   4011
 CPALLNO       4 000005A4 FFFFFFEC     F    3981 13161
 CPANAME       8 00000588 FFFFFFEC     C    3974  4070   4070  13373M
 CPATITL      80 000005D6 FFFFFFEC     C    4060 13374M 15739
 CPAUTFLG      1 000008A9 FFFFFFEC     R    4338  4342   4347   4352   4357
 CPBIN         3 000009F2 FFFFFFEC     C    4482 24670M 24670  24705  24710
 CPCHFLAG      1 00000B68 FFFFFFEC     R    4965  4969
 CPCMD       235 00000242 FFFFFFEC     C    2818 12955  16297  16298  16331  16352  16437M 16471  16809  16812
 CPCMDLEN      2 00000240 FFFFFFEC     H    2817 12959  12964M 16286  16356  16436M 16475  16495M
 CPCMNM        3 00000D24 FFFFFFEC     C    5291 16269  17647  17667  19173  19490
 CPDELTA       4 00000738 FFFFFFEC     F    4077 12966
1JES      (JES2010) (12:47) (15MAR04) Ordinary Symbol and Literal Cross Reference                                           Page   92
 CPDEST        8 000009EA FFFFFFEC     C    4481 24602M 24602  24637  24642
 CPDFLG        1 0000084C FFFFFFEC     R    4225  4229   4234   4239   4244   4249
 CPDFLG2       1 0000084D FFFFFFEC     R    4254  4258   4263   4268   4273   4278   4283
 CPDOUB        8 00000C88 FFFFFFEC     D    5211 14102  24490  25194  25260  26236M 26249  26255M 26268
 CPERRID       8 00000886 FFFFFFEC     C    4324 12619M 13426M 16591M 16763M 22746M 25522M 26551M 26778M 26839M 26879M
                                                 26925M 29102M
 CPEXFLG       1 00000758 FFFFFFEC     R    4094  4098
 CPEXFLG2      1 00000759 FFFFFFEC     R    4104  4113   4123
 CPEXFLG3      1 0000075A FFFFFFEC     R    4130  4134   4139
 CPEXTFLG      1 00000E28 FFFFFFEC     R    5776  5780   5785   5790   5795   5800   5805
 CPFABORT    128 00000D5A FFFFFFEC         5542  2143M  2143   2148M  2148
 CPFCLEAN    128 00000C7B FFFFFFEC         5095 17216M 18042M
 CPFDUMP     128 00000D55 FFFFFFEC         5407 27937
 CPFERROR     64 00000D5A FFFFFFEC         5547  2142M  2142   2147M  2147
 CPFFOPT       1 00000010 FFFFFFEC A   U    5397 20151
 CPFKWENT      1 00000080 FFFFFFEC A   U    3577 19466  26329
 CPFNLST       1 00000020 FFFFFFEC A   U    5396 13379
 CPFNMOD      16 00000C7C FFFFFFEC         5145 17208M 18032M
 CPFNPAU     128 00000C7D FFFFFFEC         5170 17212M 18037M
 CPFNTEX       1 00000040 FFFFFFEC A   U    5394  5395
 CPFORMS       8 000009F5 FFFFFFEC     C    4483 24738M 24738  24773  24778
 CPFQUIET     64 00000D55 FFFFFFEC         5412 17231  17245M 17452M 17474  17734  17748M 18020M 28248  28261M 28312M
 CPFRDRNG      1 00000D88 FFFFFFEC     R    5662  5666   5671   5676   5681   5686   5691   5696
 CPFRDSRC      1 00000D89 FFFFFFEC     R    5701  5710   5720   5730
 CPFUNUM       1 00000080 FFFFFFEC A   U    5393  5395  20184
 CPFXDFLG      1 000007E4 FFFFFFEC     R    4172  4176   4181
 CPGFLG1       1 00000474 FFFFFFEC     R    3535  3539   3544   3549   3554   3559   3889   3889
 CPGFLG10      1 0000047D FFFFFFEC     R    3772  3776   3781   3786   3791   3796   3801
 CPGFLG11      1 0000047E FFFFFFEC     R    3807  3811   3816
 CPGFLG12      1 0000047F FFFFFFEC     R    3822  3826   3831   3836
 CPGFLG13      1 00000480 FFFFFFEC     R    3842  3846
 CPGFLG14      1 00000481 FFFFFFEC     R    3852  3856   3861   3866   3871   3876
 CPGFLG3       1 00000476 FFFFFFEC     R    3575 19468  26331
 CPGFLG4       1 00000477 FFFFFFEC     R    3588  3599   3608   3617   3626   3635
 CPGFLG5       1 00000478 FFFFFFEC     R    3641  3645   3650   3655   3660   3665   3670   3675   3680
 CPGFLG6       1 00000479 FFFFFFEC     R    3686  3690   3695   3700
 CPGFLG7       1 0000047A FFFFFFEC     R    3706  3710   3715   3720   3725
 CPGFLG8       1 0000047B FFFFFFEC     R    3731  3735   3740   3745   3750
 CPGFLG9       1 0000047C FFFFFFEC     R    3756  3760   3766
 CPGRPSV       2 000001BB FFFFFFEC     C    2713 19157
 CPINIT        1 00000174 FFFFFFEC     U    2705  6162
 CPJESFLG      1 000009E1 FFFFFFEC     R    4437  4441   4446   4451   4456   4461   4466   4471   4476
 CPJESFLY      1 000009FD FFFFFFEC     R    4487  4491   4496   4501
 CPJESHFL      1 000009E0 FFFFFFEC     R    4422  4426   4431   4510   4510  19434
 CPJESINF     49 000009E0 FFFFFFEC     X    4510 19721  19721  19805  20243M
 CPJFDBUG      1 000009E1 FFFFFFEC         4476 23693  28229
 CPJFFRCE      8 000009E1 FFFFFFEC         4461 24253
 CPJFHOLD     64 000009E1 FFFFFFEC         4446 24116
 CPJFHOLX     64 000009FD FFFFFFEC         4496 24101
 CPJFNOPT      4 000009E1 FFFFFFEC         4466 24292
 CPJFNRUN    128 000009E1 FFFFFFEC         4441 20103M 23822  26899
 CPJFNTFX    128 000009FD FFFFFFEC         4491 23879
 CPJFNTFY     16 000009E1 FFFFFFEC         4456 23894
 CPJFPRIV     64 000009E0 FFFFFFEC         4431 23731  26914
 CPJFTER     128 000009E0 FFFFFFEC         4426 23773
 CPJFUNN       2 000009E1 FFFFFFEC         4471 24307
 CPJFXHLD     32 000009E1 FFFFFFEC         4451 24192
 CPJFXHOX     32 000009FD FFFFFFEC         4501 24177
 CPJNACCT      5 00000A0C FFFFFFEC     C    4509 23951M 23951  23985  24033
1JES      (JES2010) (12:47) (15MAR04) Ordinary Symbol and Literal Cross Reference                                           Page   93
 CPJNO         2 00000A0A FFFFFFEC     H    4508 24452  24479
 CPJOBS        8 00000A19 FFFFFFEC     X    4513 19503  23254M 23254  23256  25006M 25006  25060
 CPJPFX        8 00000A01 FFFFFFEC     C    4507 24369M 24369  24401  24406
 CPJWA         4 00000D74 FFFFFFEC     U    5649 12940M 16894M 27011  27552  28709  29692
 CPLFLG10      1 00000D59 FFFFFFEC     R    5528  5532
 CPLFLG11      1 00000D5A FFFFFFEC     R    5538  5542   5547   5552   5557
 CPLFLG12      1 00000D5B FFFFFFEC     R    5563  5567
 CPLFLG14      1 00000D5C FFFFFFEC     R    5573  5577   5582   5587   5592   5597
 CPLFLG5       1 00000D54 FFFFFFEC     R    5390 13381M 20153  20186
 CPLFLG6       1 00000D55 FFFFFFEC     R    5403  5407   5412   5417   5422   5427   5432
 CPLFLG7       1 00000D56 FFFFFFEC     R    5438  5442   5447   5452   5457   5462
 CPLFLG8       1 00000D57 FFFFFFEC     R    5468  5472   5477   5482   5487
 CPLFLG9       1 00000D58 FFFFFFEC     R    5493  5497   5502   5507   5512   5517   5522
 CPLOCALZ      1 00000C48 FFFFFFEC     U    4995  6156   6156
 CPMFLG        1 0000084F FFFFFFEC     R    4292  4296
 CPMODFLG      1 00000C78 FFFFFFEC     R    5023  5027   5032   5037   5042   5047
 CPNAMELN      1 00000010 FFFFFFEC A   U    3918  4165
 CPNEDPFX     10 00000E29 FFFFFFEC     X    5809  5810   5811
 CPNSCANP      4 0000008C FFFFFFEC     A    2578 12986  12995  13002  13017  13035  13042  13057  13092  13099  13115
                                                 15002  15009  15024  15049  15066  15075  15082  15098  15112  16955
                                                 16964  16971  16986  17004  17011  17026  17044  17051  17067  18524
                                                 18531  18546  18571  18588  18597  18604  18620  18634  18708  18869
                                                 18991  19808  19815  19831  21647  21654  21669  21768  21987  22153
                                                 22324  22490  22702
 CPNUMFLG      1 00000C79 FFFFFFEC     R    5053  5065
 CPORVCMD      1 00000140 FFFFFFEC     R    2587  2591   2596   2601   2606   2611   2616   2621   2626   2631   2631
                                                  2682   2682
 CPORVFLG      1 00000149 FFFFFFEC     R    2638  2642   2647   2652   2657   2662   2667   2672   2677
 CPORVWF       1 00000150 FFFFFFEC     R    2690  2694
 CPOSCANX      4 00000CA8 FFFFFFEC     F    5222  5289   5289
 CPR          11 0000000B 00000001 A   #    1077  1168U
 CPRACBAD     16 000001FC FFFFFFEC         2756  2790   2790   2791   2791
 CPRACF1       1 000001FC FFFFFFEC     R    2737  2741   2746   2751   2756   2761   2766   2771   2776   2792
 CPRACPSW     32 000001FC FFFFFFEC         2751  2789   2789   2791   2791
 CPRACUND     64 000001FC FFFFFFEC         2746  2789   2789   2790   2790
 CPRCVCUR      4 00000730 FFFFFFEC     A    4073  4075   4075
 CPREGS        4 00000004 FFFFFFEC     A    2468 28625M 29021M
 CPRFJES      32 000008AA FFFFFFEC         4377 27085M 27811M
 CPRFLG        1 000008AA FFFFFFEC     R    4363  4367   4372   4377   4382   4387   4392
 CPRFSUB      64 000008AA FFFFFFEC         4372 26690M 27473M
 CPS         254 00000344 FFFFFFEC     X    3507  3510   3511   3513   3513
 CPSACCT       5 000003B4 FFFFFFEC     C    3106  3269   3269  19435  19446M 19446  26157
 CPSAMCOD      1 00000A22 FFFFFFEC     R    4559  4567   4577   4587   4596   4605   4614   4624   4633   4642
 CPSAMFLG      1 00000A21 FFFFFFEC     R    4519  4523   4528   4533   4538   4543   4548   4553   4664   4664
 CPSCNFLG      1 00000CD0 FFFFFFEC     R    5235  5246   5255   5266
 CPSCNF2       1 00000CD1 FFFFFFEC     R    5271  5275
 CPSCNMAX      1 00000014 FFFFFFEC A   U    5287  5288
 CPSCRI        2 00000434 FFFFFFEC     H    3496  3501   3501
 CPSEG        60 00000050 FFFFFFEC     X    2576 12570  12612  13255  13314  13419  13521  14129  14193  14275  14297
                                                 16556  16584  16728  16756  17307  17357  17384  17412  17426  17540
                                                 17554  17584  17774  17853  17900  17922  17947  19871  19923  22523
                                                 22739  23713  23751  23807  23842  23864  23914  23936  23970  24000
                                                 24018  24048  24082  24136  24158  24212  24234  24273  24327  24349
                                                 24388  24430  24471  24514  24554  24582  24622  24650  24690  24718
                                                 24758  24786  24809  24851  24930  25025  25120  25142  25174  25218
                                                 25240  25284  25322  25515  25936  25964  25982  26010  26368  26396
                                                 26414  26442  26460  26498  26526  26544  26753  26771  26832  28033
                                                 28051  28286  29584  29602
 CPSEGCOD      1 00000050 FFFFFFEC     R    2493  2502   2512   2522   2532   2542   2552   2562
1JES      (JES2010) (12:47) (15MAR04) Ordinary Symbol and Literal Cross Reference                                           Page   94
 CPSEGLENF
               4 0000005C FFFFFFEC     A    2568 14235M 14235  14250
 CPSEGMRKF
               4 00000058 FFFFFFEC     A    2567 14250
 CPSFL         1 00000384 FFFFFFEC     R    2844  2848   2853   2858   2863   2868
 CPSFLG        1 000003F8 FFFFFFEC     R    3384  3388   3393   3398   3403   3408   3413   3418   3423
 CPSFLG2       1 000003F9 FFFFFFEC     R    3429  3433   3438   3443
 CPSFL2        1 00000385 FFFFFFEC     R    2874  2878   2883   2888   2893
 CPSFL3        1 00000386 FFFFFFEC     R    2899  2903   2908   2913
 CPSFL4        1 00000387 FFFFFFEC     R    2919  2923   2928   2933
 CPSFL5        1 00000388 FFFFFFEC     R    2939  2943   2948   2953
 CPSFOPR      16 000003BE FFFFFFEC         3214 23326
 CPSFPC        1 000003BE FFFFFFEC         3234 26111
 CPSFSAM      64 000003EA FFFFFFEC         3290 17275  17868
 CPSFSPR      32 000003BE FFFFFFEC         3209 23416  23510
 CPSGRP        2 000003B7 FFFFFFEC     C    3108 18993  20017  20022  26096
 CPSKAFL       1 000003BF FFFFFFEC     R    3240  3244   3249   3254   3259   3264  19408
 CPSKIFL       1 000003BE FFFFFFEC     R    3195  3199   3204   3209   3214   3219   3224   3229   3234  19407
 CPSOF         1 000001F8 FFFFFFEC     X    2727  2729   2729
 CPSOFLAG      1 00000416 FFFFFFEC     R    3454  3458   3463   3468   3473   3478
 CPSOPST       4 000003C4 FFFFFFEC     F    3274  3503   3503
 CPSPORT       8 00000354 FFFFFFEC     C    2838  2958   2958
 CPSQFLG       1 000003EC FFFFFFEC     R    3303  3307
 CPSSFLG       1 000003BB FFFFFFEC     R    3113  3117   3122   3127   3132   3137   3142
 CPSSTART      4 00000344 FFFFFFEC     F    2830  2834   2834   3270   3270   3375   3375   3507   3507
 CPSSTAT       1 0000038F FFFFFFEC     R    3050  3054   3059   3064   3069   3074   3079   3084
 CPSTACF       1 000003BC FFFFFFEC     R    3148  3152   3157   3162   3167   3172   3177   3182   3187
 CPSTART       4 00000000 FFFFFFEC     C    2466  6160   6164
 CPSTFLAG      1 000003EA FFFFFFEC     R    3281  3285   3290   3295
 CPSTYPE       1 0000038C FFFFFFEC     R    2963  2972   2982   2992   3002   3012   3022   3032   3042
 CPSUFLG       1 000003EE FFFFFFEC     R    3318  3322   3327   3332   3337   3342   3347   3352   3357
 CPSUFLG2      1 000003EF FFFFFFEC     R    3363  3367   3372
 CPSUSER       3 000003B4 FFFFFFEC     C    3107 18871  19215  20057  20062  26050
 CPSVPGM       8 0000039C FFFFFFEC     C    3096  3102   3102
 CPSYSAFF      8 000009E2 FFFFFFEC     C    4480 24534M 24534  24569  24574
 CPS1ST        4 0000038C FFFFFFEC     F    2960  3505   3505
 CPTEMPP#      1 0000005F FFFFFFEC A   U    4413  4415
 CPTRMFL1      1 00000C7A FFFFFFEC     R    5071  5075   5080   5085   5209   5209
 CPTRMFL2      1 00000C7B FFFFFFEC     R    5091  5095   5100   5105   5110   5115   5120
 CPTRMFL3      1 00000C7C FFFFFFEC     R    5126  5130   5135   5140   5145   5150   5155   5160
 CPTRMFL4      1 00000C7D FFFFFFEC     R    5166  5170   5175   5180   5185   5190   5195   5200
 CPUSED        1 00000FBC FFFFFFEC A   U    6160  6161
 CPUSERSV      3 000001B8 FFFFFFEC     C    2712 19139  19474  26318
 CPVACURS      8 00000AF0 FFFFFFEC     D    4938  4939   4940
 CPVCURS       8 00000AE0 FFFFFFEC     D    4932  4933   4934
 CPVFLAG       1 00000AC8 FFFFFFEC     R    4733  4737   4742   4747   4752   4757
 CPVFLAG2      1 00000AC9 FFFFFFEC     R    4763  4767   4772   4777   4782   4787   4792
 CPVFLAG3      1 00000ACA FFFFFFEC     R    4798  4802   4807   4812   4817   4822   4827
 CPVFLAG4      1 00000ACB FFFFFFEC     R    4833  4837   4842   4847
 CPVLFLAG      1 00000ACE FFFFFFEC     R    4902  4906   4911   4916
 CPVMODE       1 00000ACC FFFFFFEC     R    4855  4859   4864   4869   4874   4879   4884   4889   4894
 CPVTWID       2 00000AD0 FFFFFFEC     H    4922  4925   4925
 CPWKPS        4 00000E14 FFFFFFEC     F    5764 13334M 14086  14091  14098M 14150  14155  14162M
 CPWK1         4 00000D60 FFFFFFEC     F    5606  5621   5644
 CPWK2         4 00000D64 FFFFFFEC     F    5607  5622   5636
 CPWK3         4 00000D68 FFFFFFEC     F    5608  5623   5637
 CPWK4         4 00000D6C FFFFFFEC     F    5609  5624   5638
 CPWK5         4 00000D70 FFFFFFEC     F    5610  5626   5631   5639
 CPWK6         4 00000D74 FFFFFFEC     F    5611  5627   5632   5640   5647   5649
1JES      (JES2010) (12:47) (15MAR04) Ordinary Symbol and Literal Cross Reference                                           Page   95
 CPWK7         4 00000D78 FFFFFFEC     F    5612  5625   5641
 CPWK8         4 00000D7C FFFFFFEC     F    5613 26631M 27335  27466M 27466  28380  28558
 CPXFLAG       1 000007FD FFFFFFEC     R    4200  4204
 CPXSTATE      4 000007F8 FFFFFFEC     F    4194  4207   4207
 CRBRANCH      1 00000000 00000000 A   T    8170  8170
 CSRTABLE      1 00000000 00000000 A   T    8190  8190
 CSVARMGR      1 00000000 00000000 A   T    8238  8238
 CSVEXIT       1 00000000 00000000 A   T    8111  8111
 CSVLLCB       1 00000000 00000000 A   T    7711  7711
 CSVLLTRM      1 00000000 00000000 A   T    7712  7712
 CSVMEM        1 00000000 00000000 A   T    7939  7939
 CSVVFGET      1 00000000 00000000 A   T    8503  8503
 CSVVFIND      1 00000000 00000000 A   T    8501  8501
 CV         4016 00000000 FFFFFFEE     J    2369  1177U
 CV            1 00000000 0000002E     T   30644 30644
 CVABORT       4 000007DA FFFFFFEE     I    2148 14306B 28291B
 CVABSENT      4 000007F0 FFFFFFEE     I    2158 13080B
 CVABSRTN      4 0000088C FFFFFFEE     V    2183  2158
 CVABTMSG      4 000007CC FFFFFFEE     I    2143 12624B 13431B 16596B 16768B 17181B 26019B 26566B 26783B 26844B 26884B
                                                 26930B
 CVBLANKS    235 000004D8 FFFFFFEE     C    1963 11743  14103  16298  24067  25650
 CVBRMSK       1 00000751 FFFFFFEE     X    2099  2100   2101
 CVCFLAG       1 00000A00 FFFFFFEE     R    2264  2268   2273   2278   2283   2288
 CVCHKST       8 000009F0 FFFFFFEE     D    2254  2344   2344
 CVCHKST2      8 00000E28 FFFFFFEE     D    2347  2350   2350
 CVCOMRTN      4 0000087C FFFFFFEE     V    2179  2149
 CVCURJCB      4 000001C8 FFFFFFEE     A    1448 11873  11874M 11918M 13437  17706  18053  19409  26655  27050  27319
                                                 27429  27774  28327  28600  28996  29076
 CVDBGFLG      1 000004CC FFFFFFEE     R    1953  1957
 CVENT         4 0000074C FFFFFFEE     I    2097 11626B 12322B 12521B 12676B 12900B 14771B 14838B 14905B 14975B 15159B
                                                 15220B 15281B 15342B 15408B 15474B 15541B 15616B 15680B 15864B 15959B
                                                 16052B 16230B 16648B 16853B 18433B 18497B 18681B 18842B 18964B 19089B
                                                 19336B 19757B 20814B 20880B 20950B 21021B 21092B 21162B 21236B 21311B
                                                 21385B 21460B 21538B 21617B 21866B 22033B 22204B 22370B 22582B 22799B
                                                 22872B 22939B 23009B 23080B 23150B 23221B 23296B 23386B 23480B 23589B
                                                 23663B 24975B 25455B 25584B 25833B 26605B 26988B 27212B 27293B 27529B
                                                 27879B 28196B 28537B 28695B 29669B 29917B
 CVENTBR       2 00000750 FFFFFFEE     I    2098  2099
 CVERRMSG      4 000007C8 FFFFFFEE     I    2142 13266B 13325B 14798B 22534B 22751B 25527B
 CVERROR       4 000007D6 FFFFFFEE     I    2147  2163B 14329B 16504B 16676B 28056B
 CVEXIRTN      4 0000077C FFFFFFEE     V    2127  2123
 CVEXNO        1 00000000 00000016     T   15767 15767
 CVFCHRKBPR
               8 000004C9 FFFFFFEE         1868  1884   1884
 CVFCHRKBSE
               4 000004C9 FFFFFFEE         1873  1884   1884
 CVFCHRKCPR
               2 000004C9 FFFFFFEE         1890  1906   1906
 CVFCHRKCSE
               1 000004C9 FFFFFFEE         1895  1906   1906
 CVFCHRUBPR
             128 000004C9 FFFFFFEE         1824  1840   1840
 CVFCHRUBSE
              64 000004C9 FFFFFFEE         1829  1840   1840
 CVFCHRUCPR
              32 000004C9 FFFFFFEE         1846  1862   1862
 CVFCHRUCSE
              16 000004C9 FFFFFFEE         1851  1862   1862
 CVFJCB        4 000001C0 FFFFFFEE     A    1446 11874
1JES      (JES2010) (12:47) (15MAR04) Ordinary Symbol and Literal Cross Reference                                           Page   96
 CVFL          1 000004C4 FFFFFFEE     R    1620  1624   1629   1634   1639   1644   1649   1654   1659
 CVFL2         1 000004C5 FFFFFFEE     R    1665  1669   1674   1679   1684   1689   1694   1699   1704
 CVFL3         1 000004C6 FFFFFFEE     R    1710  1714   1719   1724   1729   1734   1739   1744   1749
 CVFL4         1 000004C7 FFFFFFEE     R    1755  1759   1764   1769   1774   1779   1784   1789
 CVFL5         1 000004C8 FFFFFFEE     R    1795  1799   1804   1809   1814
 CVFL6         1 000004C9 FFFFFFEE     R    1820  1824   1829   1841   1846   1851   1863   1868   1873   1885   1890
                                                  1895   1907
 CVFNOR      128 000004C6 FFFFFFEE         1714 11763
 CVFTEST       2 000004C5 FFFFFFEE         1699 11787
 CVHEAP#       1 00000200 FFFFFFEE A   U    1526  1527
 CVINVRTN      4 00000888 FFFFFFEE     V    2182  2152
 CVJES         4 00000014 FFFFFFEE     C    1199 11743M 11744M 11993  12583  12588  16571  16576  16743  16748  24822
                                                 24827  26724  26729  29571  29576
 CVJESFLG      1 000004CA FFFFFFEE     R    1913  1917
 CVJFNRUN    128 000004CA FFFFFFEE         1917 20110M 20132M 24873  26871
 CVLNKRGS      4 00000780 FFFFFFEE     F    2129  2104M  2130  12038M 19376M 27028M 27421M 27569M 27605M 27766M 28726M
                                                 28762M 28935M 29709M 29745M 30000M 30075M 30191M
 CVLNKRTN      4 000007B0 FFFFFFEE     U    2130  2119M
 CVLOCK1       1 00000088 FFFFFFEE     R    1271  1275   1280
 CVLOCK2       1 00000089 FFFFFFEE     R    1285  1289
 CVLOCK3       1 0000008A FFFFFFEE     R    1294  1298
 CVLOCK4       1 0000008B FFFFFFEE     R    1303  1307
 CVLOGMOD      1 00000068 FFFFFFEE     R    1258  1262
 CVMACH        1 00000067 FFFFFFEE     R    1218  1222   1227   1232   1237   1242   1247   1252
 CVMAXLNO      4 0000015C FFFFFFEE     A    1412 13236
 CVMILRTN      4 00000884 FFFFFFEE     V    2181  2161
 CVNEXT        4 000007DE FFFFFFEE     I    2149 14335B 16503B 16675B 20137B 20244B 23622B
 CVNOACTN      4 000007EA FFFFFFEE     I    2155 28078B
 CVNOARTN      4 00000890 FFFFFFEE     V    2184  2155
 CVNWDATE      4 00000608 FFFFFFEE     F    1986  1990   1990
 CVNWMPG#      1 00000008 FFFFFFEE A   U    1988  1989
 CVPFXRTN      1 00000000 00000000 A   T    2127  2127
 CVPGFLAG      1 00000A01 FFFFFFEE     R    2294  2298   2303   2308
 CVPIOSZ       1 00004F80 FFFFFFEE A   U    1357  1359
 CVPPDBQH      4 0000009C FFFFFFEE     A    1315  1316
 CVPSFNO       1 000003E9 FFFFFFEE A   N    1479  1481
 CVPSLNO       1 000007CF FFFFFFEE A   N    1480  1481
 CVPXSZ        1 00000008 FFFFFFEE A   U    1358  1359
 CVR          12 0000000C 00000001 A   #    1090  1177U 30307M
 CVRHCM        1 00000007 FFFFFFEE A   U    2051 11900  27045  27742  28145
 CVRKEY        1 00000008 FFFFFFEE A   U    2052  2053
 CVRSUB        1 00000006 FFFFFFEE A   U    2050 26626  27397  28144
 CVSEGRTN      4 00000880 FFFFFFEE     V    2180  2144
 CVSTACK#      1 00000080 FFFFFFEE A   U    1518  1519
 CVSTART       4 00000000 FFFFFFEE     C    1191  2362
 CVT           1 00000000 FFFFFFE5     J    7681 12712U
 CVTBRET       2 00000052 FFFFFFE5     H    7736  8249   8328
 CVTCBP        4 0000073C FFFFFFEE     A    2082 11725
 CVTPTR        1 00000010 FFFFFFE6 A   U    7677 12702  25729
 CVTRC         4 00000768 FFFFFFEE     I    2119  2105B 12039B 19377B 27029B 27422B 27570B 27606B 27767B 28727B 28763B
                                                 28936B 29710B 29746B 30001B 30076B 30192B
 CVTRCRTN      4 00000778 FFFFFFEE     V    2126  2120
 CVTUSER       4 000000CC FFFFFFE5     A    7861 12718
 CVTVSTGX      1 00000000 FFFFFFE4     J    8701  8565
 CVTXTNT1      1 00000000 FFFFFFE3     J    8740  7908
 CVTXTNT2      1 00000000 FFFFFFE2     J    8748  7978   8904
 CVT4MS1       1 00000010 FFFFFFE5 A   U    7761  7769
 CVT6DAT       1 00000002 FFFFFFE5 A   U    7765  7769
 CVUSFNO       1 00000001 FFFFFFEE A   N    1486  1488
1JES      (JES2010) (12:47) (15MAR04) Ordinary Symbol and Literal Cross Reference                                           Page   97
 CVUSLNO       1 000003E7 FFFFFFEE A   N    1487  1488
 CVVOL#        1 00000005 FFFFFFEE A   U    2337  2338
 CVWTOFLG      1 000004CB FFFFFFEE     R    1923  1927   1932   1937   1942   1947
 CVWTOSGP      4 00000748 FFFFFFEE     V    2086 19939  19988  20003  20028  20043  20068  20091
 CVWYLACC      5 00000058 FFFFFFEE     C    1210 11679M 19497
 CVWYLJBN      4 0000005D FFFFFFEE     C    1211 11719M 11742M
 CVWYLSSN      8 00000028 FFFFFFEE     C    1203 11804  11824  11844  11864  11994
 DCBBIT0       1 00000080 FFFFFFE6 A   U    6667  6836   6852   6892   6910   6956   6965   6980   7021   7029   7043
                                                  7065   7107   7109   7110   7112   7132   7135   7157   7161   7176
                                                  7213   7269   7295   7333   7337   7356   7462
 DCBBIT1       1 00000040 FFFFFFE6 A   U    6668  6837   6853   6911   6919   6956   6965   6982   7022   7030   7045
                                                  7074   7075   7084   7090   7107   7109   7111   7112   7137   7157
                                                  7159   7161   7179   7180   7181   7216   7217   7269   7297   7339
                                                  7341   7359   7404   7463
 DCBBIT2       1 00000020 FFFFFFE6 A   U    6669  6838   6854   6912   6921   6965   6983   7023   7031   7046   7047
                                                  7048   7074   7075   7079   7085   7090   7107   7108   7113   7139
                                                  7162   7163   7184   7185   7186   7220   7221   7270   7302   7342
                                                  7364   7407   7410   7464
 DCBBIT3       1 00000010 FFFFFFE6 A   U    6670  6791   6839   6855   6926   6967   6984   7024   7046   7048   7049
                                                  7074   7087   7114   7142   7162   7165   7188   7189   7190   7224
                                                  7225   7270   7304   7306   7308   7344   7365   7407   7411
 DCBBIT4       1 00000008 FFFFFFE6 A   U    6671  6792   6856   6927   6970   6985   7032   7088   7089   7090   7115
                                                  7143   7167   7172   7173   7193   7194   7228   7229   7231   7232
                                                  7271   7311   7346   7366   7407   7412
 DCBBIT5       1 00000004 FFFFFFE6 A   U    6672  6794   6857   6929   6971   6985   7033   7095   7118   7119   7145
                                                  7167   7169   7170   7173   7197   7199   7200   7201   7235   7236
                                                  7237   7238   7271   7313   7316   7349   7368   7402
 DCBBIT6       1 00000002 FFFFFFE6 A   U    6673  6796   6826   6840   6858   6931   6972   6988   7025   7097   7098
                                                  7101   7118   7120   7146   7204   7205   7206   7207   7241   7242
                                                  7243   7244   7272   7319   7351   7370   7413
 DCBBIT7       1 00000001 FFFFFFE6 A   U    6674  6798   6826   6841   6935   6974   6989   7026   7097   7099   7101
                                                  7122   7151   7209   7210   7247   7248   7250   7251   7322   7352
                                                  7353   7371   7415   7465
 DCBDCBE       4 00000000 FFFFFFE6     A    6682  6686
 DCBFDAD       8 00000005 FFFFFFE6     C    6698  6700
 DCBOFIOF      1 00000001 FFFFFFE6 A   U    7151  7153
 DCBOFUEX      1 00000002 FFFFFFE6 A   U    7146  7150
 DCBSSID       8 00000000 FFFFFFE6     C    6945  6947
 DCBWTOID      4 00000000 FFFFFFE6     A    6863  6878   6888
 DEBUGSG       1 00000000 00000000 A   T    2080  2080
 DESTCHK       2 0000362E 00000001     H   25570 25566  28122
 DESTVER       2 000035D8 00000001     H   25441 25369  25437
 DEV          12 00000000 FFFFFFEB     J    4718  4726
 DEVMAX#       1 00000002 FFFFFFEC A   U    4669  4726
 DEVTYPE       1 00000001 FFFFFFEB     R    4686  4695   4705
 DFAIDTAB      1 00000000 00000000 A   T    8578  8578
 DISPATCH      1 00000000 0000002D     T   30266 30266
 DOBLKB        2 000012D4 00000001     H   16038 15751  18390
 DOCEND        6 0000192D 00000001     X   18132 17887  17892
 DOCSTART      5 00001928 00000001     X   18131 17294  17299
 DOTTBL        1 00000000 00000000 A   T    2196  2196
 DQRSC         1 00000000 00000005     T   12858 12858
 DRENCFLG      1 00000F9F FFFFFFEC     R    6124  6128   6133   6138   6143   6148
 DRENPROT      1 00000F9E FFFFFFEC     R    6111  6119
 DSNON        40 00000E90 FFFFFFEC     C    5844  5845
 DSNWADSN     44 00000E5C FFFFFFEC     C    5831  5832   5833   5834   5843   5851   6082   6088   6090   6096   6099
                                                  6101   6104   6153
 DSNWAF4       1 00000F37 FFFFFFEC     R    5899  5903   5908   5913   5918   5923   5928   5933   5938
 DSNWAF5       1 00000F38 FFFFFFEC     R    5944  5948   5953   5958   5963   5968   5973   5978   5983
1JES      (JES2010) (12:47) (15MAR04) Ordinary Symbol and Literal Cross Reference                                           Page   98
 DSNWAF6       1 00000F39 FFFFFFEC     R    5989  5993   5998   6003   6008   6013   6018   6023   6028
 DSNWAF7       1 00000F3A FFFFFFEC     R    6034  6038   6043   6048   6053
 DSNXG         1 00000004 FFFFFFEC A   U    5836  5838
 DSNXGL        1 00000003 FFFFFFEC A   U    5837  5838
 DSNXU         1 00000007 FFFFFFEC A   U    5838  5840
 DSNXUL        1 00000004 FFFFFFEC A   U    5839  5840
 DSSIZ         1 00000108 FFFFFFEC A   U    6082  6090   6099   6104
 DTB           1 00000000 0000002F     T   30645 30645
 EBCTBL        1 00000000 00000000 A   T    2192  2192
 EBCTBL7       1 00000000 00000000 A   T    2195  2195
 ECBLIST       1 00000000 00000000 A   T    2055  2055
 EPARTBL       1 00000000 00000000 A   T    2187  2187
 FETAPP        2 00000E86 00000001     H   15328 14555
 FETBY         2 00000E5A 00000001     H   15267 14540
 FETCC         2 00000CC8 00000001     H   14891 14420  14435
 FETCH         2 000003DC 00000001     H   12884 12880
 FETCNT        2 00000F40 00000001     H   15602 14495
 FETCNTL       2 00000C68 00000001     H   14757 14450
 FETCNT2       2 00000F6E 00000001     H   15666 14721
 FETDISP       2 00000F0E 00000001     H   15527 14465
 FETMC         2 00000C9C 00000001     H   14824 14405
 FETNUM        2 00000EB2 00000001     H   15394 14570
 FETPRT        4 000008A8 00000001     F   14393 15750
 FETPRT2       4 00000BF0 00000001     F   14709 15772
 FETSKIP       2 00000CF4 00000001     H   14961 14510  15773
 FETSKIP2      2 00000E02 00000001     H   15145 14736
 FETSQU        2 00000F3A 00000001     H   15591 14480
 FETTO         2 00000E2E 00000001     H   15206 14525
 FETTRUNC      2 00000EDE 00000001     H   15460 14585
 FMBRANCH      1 00000000 00000000 A   T    8354  8354
 FREERSC       1 00000000 0000002C     T   28141 28141
 FSR           0 00000000 00000001 A   #    1000 11621  12292M 12317  12491M 12516  12643M 12671  12838M 12894  14356M
                                                 14766  14813M 14833  14880M 14900  14950M 14970  15134M 15154  15195M
                                                 15215  15256M 15276  15317M 15337  15383M 15403  15449M 15469  15516M
                                                 15536  15582M 15611  15655M 15675  15716M 15859  15915M 15954  16011M
                                                 16047  16173M 16225  16611M 16643  16783M 16847  18124M 18428  18472M
                                                 18492  18656M 18676  18817M 18837  18939M 18959  19061M 19084  19261M
                                                 19331  19572M 19751  20264M 20809  20855M 20875  20925M 20945  20996M
                                                 21016  21067M 21087  21137M 21157  21211M 21231  21286M 21306  21360M
                                                 21380  21435M 21455  21513M 21533  21592M 21612  21841M 21861  22008M
                                                 22028  22179M 22199  22345M 22365  22557M 22577  22774M 22794  22847M
                                                 22867  22914M 22934  22984M 23004  23055M 23075  23125M 23145  23196M
                                                 23216  23271M 23291  23361M 23381  23455M 23475  23550M 23584  23637M
                                                 23658  24949M 24970  25345M 25450  25546M 25579  25788M 26600  26950M
                                                 26983  27166M 27207  27259M 27288  27499M 27524  27833M 27874  28084M
                                                 28099M 28191  28507M 28532  28663M 29664  29864M 29912  30238M
 FTSTART       4 00000050 FFFFFFD4     F   11569 11574  11582
 GETDATA       1 00000000 0000001B     T   16804 16804
 GETRSC        1 00000000 00000002     T   12853 12853  28143
 GLBRANCH      1 00000000 00000000 A   T    8260  8260
 GMBRANCH      1 00000000 00000000 A   T    8356  8356
 GVT           1 00000000 00000000 A   T    8122  8122
 HCBAFLGS      1 0000016F FFFFFFD4     X   11535 19408M
 HCBFGBL       1 0000016D FFFFFFD4     X   11533 19434M
 HCBFLAGS      1 0000016C FFFFFFD4     X   11532 19504M
 HCBID         2 0000015C FFFFFFD4     H   11522 19425M
 HCBIFLGS      1 0000016E FFFFFFD4     X   11534 19407M
 HCBJOBNM      8 00000160 FFFFFFD4     C   11529 19503M
 HCBJOBNO      1 00000040 FFFFFFD4 A   U   11546 19504
1JES      (JES2010) (12:47) (15MAR04) Ordinary Symbol and Literal Cross Reference                                           Page   99
 HCBLEN        2 0000015E FFFFFFD4     H   11523 12964  19529M
 HCBMVCSK      4 0000204E 00000001     I   19551 19531B
 HCBTEXT       1 00000191 FFFFFFD4     X   11540 11562  19543M 19554  19595
 HCBTEXTL      1 00000078 FFFFFFD4 A   U   11541 16805  19593
 HCBUSER1      7 00000170 FFFFFFD4     C   11536 19435M 19453M
 HCBUSER2      7 00000177 FFFFFFD4     C   11537 19474M 19497M
 HCBUSER3      7 0000017E FFFFFFD4     C   11538 18767M 18768M 18790M 18791M 18871M 18922M 18993M 19044M 19120M 19120
                                                 19126M 19126  19139M 19144M 19144  19157M 19207
 HCM$ECB       4 0000000C FFFFFFD9     A   10815 10875
 HCMFLAGS      1 00000014 FFFFFFD9     R   10820 10824  10829  10834
 HCMFLG        1 00000050 FFFFFFD9     X   10900 29948M 29961  30036  30124
 HCMFOPN     128 00000053 FFFFFFD9        10910 29979  30020M 30066  30101  30212M
 HCMFPND      64 00000053 FFFFFFD9        10915 12051M 29991  30014M 30054  30218M
 HCMFSENT     32 00000053 FFFFFFD9        10920 27103M 27634  27717M 29823M 30205M
 HCMINDEX      2 00000060 FFFFFFD9     H   10927 28795M 28795  28880M 28880  29202  29220  29439  29440M
 HCMLEN        4 0000005C FFFFFFD9     F   10926 28830M 28830
 HCMLOC        4 00000058 FFFFFFD9     F   10925 29488
 HCMP          4 00000018 FFFFFFD9     F   10840 10899
 HCMPATH       4 00000018 FFFFFFD9     F   10839 11996  30149
 HCMPBUF       4 00000034 FFFFFFD9     R   10861 11995M
 HCMPFCLS      1 00000080 FFFFFFD9 A   U   10865 29552  30122
 HCMPFNI       1 00000020 FFFFFFD9 A   U   10867 30034
 HCMPFOPN      1 00000008 FFFFFFD9 A   U   10869 29959
 HCMPMGC       4 00000018 FFFFFFD9     R   10842 27671  28848  29796  30142
 HCMPMY        8 00000020 FFFFFFD9     C   10846 11994M
 HCMPTRS       8 00000058 FFFFFFD9     D   10924 10928  10928  28788M 28788  28855  28886  29539M 29539
 HCMPYOU       8 00000028 FFFFFFD9     C   10848 11993M
 HCMRSC      104 00000000 FFFFFFD9     J   10936 11989U 27095U 27142  27620U 27722  28777U 28797  29062U 29760U 29840
                                                 29946U
 HCMRSG        1 00000000 00000003     T   12854 12854
 HCMSFLG       1 00000051 FFFFFFD9     X   10901 10863  29554M 29948
 HCMWA        10 00000058 FFFFFFD9     X   10928 27108M 27108
 HCMWFLG       1 00000053 FFFFFFD9     R   10906 10910  10915  10920
 HIBAL         1 00000000 FFFFFFFF     J     691   707    720    733    746    759    772    785    798    811    824
                                                   837    850    863    876    889    902
 HRB           2 00000000 FFFFFFD5     H   11376 29074U 29498U
 HRBBUF        1 00000010 FFFFFFD5 A   U   11388 13494  17167  29156
 HRBERRID      8 0000000E FFFFFFD5     C   11400 29095  29102
 HRBERSEM      1 00000020 FFFFFFD5 A   U   11387 14324  17628  29080
 HRBERSYN      1 00000040 FFFFFFD5 A   U   11386 14321  17605  29080
 HRBERVRB      1 00000080 FFFFFFD5 A   U   11385 29080
 HRBFLAGS      1 00000004 FFFFFFD5     X   11384 29081  29120  29158
 HRBFLAG2      1 00000005 FFFFFFD5     X   11393 29082
 HRBFOPTJ      1 00000080 FFFFFFD5 A   U   11394 13900
 HRBID         2 00000000 FFFFFFD5     H   11381 29077
 HRBLAST       1 00000008 FFFFFFD5 A   U   11389 27648  28909  29118
 HRBLEN        2 00000002 FFFFFFD5     H   11382 29135  29176  29202  29504
 HRBPRINT      1 00000001 FFFFFFD5 A   U   11391 17195
 HRBTEXT       1 00000016 FFFFFFD5     X   11401 29172  29211
 HRDWLEN       2 00000158 FFFFFFD4     H   11514 19553M
 HRDWSTRT      4 00000158 FFFFFFD4     F   11513 19595  29775
 HSPFJES       1 00000002 FFFFFFE1 A   U    8838 12801
 HSPFMIL       1 00000080 FFFFFFE1 A   U    8832  8836   8837
 HSPFORV       1 00000020 FFFFFFE1 A   U    8834  8836
 HSPFORVR      1 00000010 FFFFFFE1 A   U    8835  8837
 HSPFWYL       1 00000040 FFFFFFE1 A   U    8833  8836   8837
 IARMPVT       1 00000000 00000000 A   T    7997  7997
 IARMRRCE      1 00000000 00000000 A   T    8542  8542
 IARPIBR       1 00000000 00000000 A   T    8512  8512
1JES      (JES2010) (12:47) (15MAR04) Ordinary Symbol and Literal Cross Reference                                           Page  100
 IARPSIV       1 00000000 00000000 A   T    8336  8336
 IARPSXM       1 00000000 00000000 A   T    8485  8485
 IARXKEY       1 00000000 00000000 A   T    8443  8443
 IARXVIO       1 00000000 00000000 A   T    8337  8337
 ICYMMVTC      1 00000000 00000000 A   T    8768  8768
 IDA121CV      1 00000000 00000000 A   T    8275  8275
 IDA12437A
               4 00004548 00000001     I   30440 30419B 30428B 30437B
 IDA12437B
               4 00004550 00000001     I   30443 30439B
 IEABEND       1 00000000 00000000 A   T    7859  7859
 IEADQIQE      1 00000000 00000000 A   T    8255  8255
 IEAECVT       1 00000000 00000000 A   T    7784  7784
 IEAGSMQ       1 00000000 00000000 A   T    8232  8232
 IEAIHASU      1 00000000 00000000 A   T    8472  8472
 IEALSMQ       1 00000000 00000000 A   T    8234  8234
 IEAMASCB      1 00000000 00000000 A   T    8202  8202   8206
 IEAPATCH      1 00000000 00000000 A   T    7867  7867
 IEAPDSRT      1 00000000 00000000 A   T    8130  8130
 IEAPTRV       1 00000000 00000000 A   T    7946  7946
 IEAQCDSR      1 00000000 00000000 A   T    7850  7850
 IEAQCS01      1 00000000 00000000 A   T    8242  8242
 IEAQLPAQ      1 00000000 00000000 A   T    7851  7851
 IEAQTD00      1 00000000 00000000 A   T    7747  7747
 IEAQTE00      1 00000000 00000000 A   T    7745  7745
 IEARPOST      1 00000000 00000000 A   T    8257  8257
 IEASMFEX      1 00000000 00000000 A   T    8134  8134
 IEASMFSP      1 00000000 00000000 A   T    8480  8480
 IEASPOST      1 00000000 00000000 A   T    8277  8277
 IEASVDCB      1 00000000 00000000 A   T    7738  7738
 IEATCBP       1 00000000 00000000 A   T    7688  7688
 IEATPC        1 00000000 00000000 A   T    7740  7740
 IEATRSCN      1 00000000 00000000 A   T    8098  8098
 IEAVAR02      1 00000000 00000000 A   T    8182  8182
 IEAVBLDP      1 00000000 00000000 A   T    8166  8166
 IEAVDELP      1 00000000 00000000 A   T    8169  8169
 IEAVEAC0      1 00000000 00000000 A   T    8259  8259
 IEAVEADV      1 00000000 00000000 A   T    8417  8417
 IEAVEDR1      1 00000000 00000000 A   T    8302  8302
 IEAVELRM      1 00000000 00000000 A   T    8251  8251
 IEAVENLU      1 00000000 00000000 A   T    8598  8598
 IEAVENQ2      1 00000000 00000000 A   T    8248  8248
 IEAVEQV1      1 00000000 00000000 A   T    8405  8405
 IEAVEQV2      1 00000000 00000000 A   T    8408  8408
 IEAVEQV3      1 00000000 00000000 A   T    8411  8411
 IEAVERI1      1 00000000 00000000 A   T    8304  8304
 IEAVERP1      1 00000000 00000000 A   T    8306  8306
 IEAVERX1      1 00000000 00000000 A   T    8494  8494
 IEAVESC1      1 00000000 00000000 A   T    8433  8433
 IEAVESPR      1 00000000 00000000 A   T    8362  8362
 IEAVESTU      1 00000000 00000000 A   T    8596  8596
 IEAVESVT      1 00000000 00000000 A   T    8368  8368
 IEAVET6E      1 00000000 00000000 A   T    8468  8468
 IEAVEVT2      1 00000000 00000000 A   T    8422  8422
 IEAVEXPR      1 00000000 00000000 A   T    8230  8230
 IEAVEXP1      1 00000000 00000000 A   T    8399  8399
 IEAVFRCL      1 00000000 00000000 A   T    8168  8168
 IEAVGSDA      1 00000000 00000000 A   T    8413  8413
 IEAVGTCL      1 00000000 00000000 A   T    8167  8167
1JES      (JES2010) (12:47) (15MAR04) Ordinary Symbol and Literal Cross Reference                                           Page  101
 IEAVGWSA      1 00000000 00000000 A   T    8262  8262
 IEAVLKRM      1 00000000 00000000 A   T    7969  7969
 IEAVMFRM      1 00000000 00000000 A   T    8347  8347
 IEAVMSGS      1 00000000 00000000 A   T    7916  7916
 IEAVNVT0      1 00000000 00000000 A   T    8581  8581
 IEAVRSUH      1 00000000 00000000 A   T    8460  8460
 IEAVRT03      1 00000000 00000000 A   T    8074  8074
 IEAVSPND      1 00000000 00000000 A   T    8470  8470
 IEAVSTAG      1 00000000 00000000 A   T    8210  8210
 IEAVTCTL      1 00000000 00000000 A   T    8462  8462
 IEAVTEST      1 00000000 00000000 A   T    7973  7973
 IEAVTRGR      1 00000000 00000000 A   T    8270  8270
 IEAVTRG1      1 00000000 00000000 A   T    7719  7719
 IEAVTRV3      1 00000000 00000000 A   T    7966  7966
 IEAVTSBP      1 00000000 00000000 A   T    8216  8216
 IEAVTSFR      1 00000000 00000000 A   T    7937  7937
 IEAVTSGL      1 00000000 00000000 A   T    8214  8214
 IEAVVMSR      1 00000000 00000000 A   T    7995  7995
 IEAVWAIT      1 00000000 00000000 A   T    8237  8237
 IEAVWSAC      1 00000000 00000000 A   T    8268  8268
 IEAVWSAG      1 00000000 00000000 A   T    8266  8266
 IEAVWSAL      1 00000000 00000000 A   T    8264  8264
 IEAVXEXT      1 00000000 00000000 A   T    8345  8345
 IEAVXSFT      1 00000000 00000000 A   T    8312  8312
 IEAVXSTN      1 00000000 00000000 A   T    8318  8318
 IEAVXSTS      1 00000000 00000000 A   T    8316  8316
 IEAVXUNN      1 00000000 00000000 A   T    8341  8341
 IEAVXUNS      1 00000000 00000000 A   T    8320  8320
 IEAWTCB       1 00000000 00000000 A   T    8377  8377
 IEA0DS        1 00000000 00000000 A   T    7783  7783
 IEA0EF00      1 00000000 00000000 A   T    7689  7689
 IEA0EF01      1 00000000 00000000 A   T    7729  7729
 IEA0PT0E      1 00000000 00000000 A   T    8449  8449
 IEA0PT01      1 00000000 00000000 A   T    7790  7790
 IEA0PT02      1 00000000 00000000 A   T    8374  8374
 IEA0PT03      1 00000000 00000000 A   T    8451  8451
 IEA0VL00      1 00000000 00000000 A   T    7700  7700
 IEA0VL01      1 00000000 00000000 A   T    8107  8107
 IECIXAVL      1 00000000 00000000 A   T    7775  7775
 IECPCNVT      1 00000000 00000000 A   T    7703  7703
 IECPRLTV      1 00000000 00000000 A   T    7707  7707
 IECVEXCL      1 00000000 00000000 A   T    8339  8339
 IECXAPG       1 00000000 00000000 A   T    7698  7698
 IECXITP       1 00000000 00000000 A   T    7728  7728
 IECXTLER      1 00000000 00000000 A   T    7714  7714
 IEC0SCR1      1 00000000 00000000 A   T    7873  7873
 IEECUCB       1 00000000 00000000 A   T    7744  7744
 IEEMSER       1 00000000 00000000 A   T    7722  7722   7788
 IEEVEXSN      1 00000000 00000000 A   T    8077  8077
 IEEVSTOP      1 00000000 00000000 A   T    8387  8387
 IEFAQTOP      1 00000000 00000000 A   T    8194  8194
 IEFAUSDM      1 00000000 00000000 A   T    7694  7694
 IEFENFDM      1 00000000 00000000 A   T    7853  7853
 IEFJESCT      1 00000000 00000000 A   T    7953  7953
 IEFLINK       1 00000000 00000000 A   T    7691  7691
 IEFQMWR       1 00000000 00000000 A   T    7804  7804
 IEWFBOSV      1 00000000 00000000 A   T    7781  7781
 IEWMSEPT      1 00000000 00000000 A   T    8286  8286
 IFBDCB        1 00000000 00000000 A   T    7770  7770
1JES      (JES2010) (12:47) (15MAR04) Ordinary Symbol and Literal Cross Reference                                           Page  102
 IFDOLT0A      1 00000000 00000000 A   T    8132  8132
 IFGACB        1 00000000 FFFFFFDD     J    9733 10012  10012  12181  26788  26807  27351
 IFGDEBVR      1 00000000 00000000 A   T    8763  8763
 IFGRPL        1 00000000 FFFFFFDC     J   10062 10463  10463  10742
 IGC043BR      1 00000000 00000000 A   T    8178  8178
 IGC044R2      1 00000000 00000000 A   T    8288  8288
 IGC062R1      1 00000000 00000000 A   T    8258  8258
 IGC07903      1 00000000 00000000 A   T    8403  8403
 IGC124        1 00000000 00000000 A   T    8419  8419
 IGFRVT        1 00000000 00000000 A   T    7868  7868
 IGVCPBDB      1 00000000 00000000 A   T    8534  8534
 IGVCPDLB      1 00000000 00000000 A   T    8536  8536
 IGVCPFRE      1 00000000 00000000 A   T    8526  8526
 IGVCPGTC      1 00000000 00000000 A   T    8524  8524
 IGVCPGUB      1 00000000 00000000 A   T    8518  8518
 IGVCPGUP      1 00000000 00000000 A   T    8521  8521
 IGVCPGUS      1 00000000 00000000 A   T    8544  8544
 IGVGCAS       1 00000000 00000000 A   T    8172  8172
 IGVGFAS       1 00000000 00000000 A   T    8176  8176
 IGVGRRGN      1 00000000 00000000 A   T    8548  8548
 IGVGVRGN      1 00000000 00000000 A   T    8550  8550
 IGVQSPET      1 00000000 00000000 A   T    8174  8174
 IGVSLIST      1 00000000 00000000 A   T    8528  8528
 IGVSLOC       1 00000000 00000000 A   T    8532  8532
 IGVSREGN      1 00000000 00000000 A   T    8530  8530
 IGVSTSKI      1 00000000 00000000 A   T    8515  8515
 IHADCB        1 00000000 FFFFFFE6     J    6657  6737   6774   6802   6832   6862   6944   7003   7053   7128   7255
                                                  7260   7275   7281   7290   7390   7393   7398   7423   7441   7442
                                                  7446   7482   7483   7485
 IHB1801       4 000001CC 00000001     F   12235 12231
 ILRJTERM      1 00000000 00000000 A   T    8457  8457
 INVALID       1 00000000 00000000 A   T    2182  2182
 IOSVDEVN      1 00000000 00000000 A   T    8474  8474
 IOSVHID       1 00000000 00000000 A   T    8484  8484
 IOSVSUCB      1 00000000 00000000 A   T    8487  8487
 IRARMCNS      1 00000000 00000000 A   T    8228  8228
 IRARMEPS      1 00000000 00000000 A   T    8446  8446
 IRARMI00      1 00000000 00000000 A   T    8185  8185
 ISNBRNCH      1 00000000 00000000 A   T    8343  8343
 JACCDONE      2 00001DEA 00000001     H   18802 18769B 18792B
 JACCT         2 00001D76 00000001     H   18667 18286  18301
 JACCTINFO
               2 00001C68 00000001     H   18483 14600  14615  14630  14645  14660  14675  18180  18195  18210  18225
                                                 18240  18255
 JACCTPRT      4 00001AA4 00000001     F   18274 19285
 JCB         208 00000000 FFFFFFDB     J   10741 13447U 17716U 18063U 19419U 26665U 27060U 27329  27439U 27784U 28337U
                                                 28610U 29006U 29077
 JCBAFL        1 00000062 FFFFFFDB     R   10586 10590  10595  10600  10605  10610  10615  10620  10625
 JCBBFL        1 00000063 FFFFFFDB     R   10631 10635  10640  10645  10650  10655  10660  10665
 JCBBILLX      8 00000088 FFFFFFDB     D   10716 10724  10724
 JCBFATTN      2 00000062 FFFFFFDB        10620 13462  17793  17829M 17994M
 JCBRHSPI     32 00000064 FFFFFFDB        10685 18078  27071M 27796M
 JCBRHSPS     64 00000064 FFFFFFDB        10680 26676M 27329  27451M 28351
 JCBRSCF1      1 00000064 FFFFFFDB     R   10671 10675  10680  10685
 JCBSEQ        2 00000048 FFFFFFDB     H   10502 19425  29077
 JCBSFLG1      1 00000065 FFFFFFDB     R   10691 10695  10700
 JCBWFD       32 00000060 FFFFFFDB        10529 28623M 29019M
 JCBWFL        1 00000060 FFFFFFDB     R   10515 10519  10524  10529  10534  10539  10544  10549  10554  10582
 JCBWWFL       1 00000061 FFFFFFDB     R   10560 10564  10569  10574  10579
1JES      (JES2010) (12:47) (15MAR04) Ordinary Symbol and Literal Cross Reference                                           Page  103
 JCOMDONE      2 00002ADE 00000001     H   21822 21733B 21756B
 JESBIN        2 00002BD4 00000001     H   22190 20465
 JESCHK        2 00000304 00000001     H   12662 12859  25385  28132
 JESCMD        2 00001346 00000001     H   16216 16212
 JESCOM        2 000042A4 00000001     H   29655 15759  18393  29651
 JESCOUNT      2 00002D9E 00000001     H   22858 20525
 JESCT         1 00000000 FFFFFFDF     J    9362  9547  25733
 JESDEBUG      2 00002DCE 00000001     H   22925 20540
 JESDEST       2 00002B5C 00000001     H   22019 20450
 JESDISP       2 00002FB8 00000001     H   23649 23645  25376
 JESDISP2      2 00003332 00000001     H   24961 24957  25377
 JESDONE       2 00001804 00000001     H   17594 17127B 17133B
 JESERR        2 00004268 00000001     H   29549 28811B 28868B 29078B
 JESEXIT       4 00001836 00000001     I   17683 17114B 17615B
 JESFDBUG      1 00000005 FFFFFFD3        19686 22969M 23040M
 JESFFRCE      8 00000005 FFFFFFD3        19671 20236M 23110M 23181M
 JESFHOLD     64 00000005 FFFFFFD3        19656 21192M 21267M
 JESFHOLX     64 00000021 FFFFFFD3        19706 21196M 21271M
 JESFLGX       1 00000005 FFFFFFD3     R   19647 19651  19656  19661  19666  19671  19676  19681  19686
 JESFLGY       1 00000021 FFFFFFD3     R   19697 19701  19706  19711
 JESFNOPT      4 00000005 FFFFFFD3        19676 20168M
 JESFNRUN    128 00000005 FFFFFFD3        19651 19889  19957  20120  21052M 21122M
 JESFNTFX    128 00000021 FFFFFFD3        19701 21494M 21573M
 JESFNTFY     16 00000005 FFFFFFD3        19666 21490M 21569M
 JESFOP      128 00000000 FFFFFFD3        19618 20164M 20217  20840M 20906M 20976M 21047M 21118M 21188M 21262M 21337M
                                                 21411M 21486M 21564M 21892M 22059M 22230M 22396M 22608M 22825M 22898M
                                                 22965M 23035M 23106M 23176M 23247M 23436M 23530M
 JESFORMS      2 00002C42 00000001     H   22356 20480
 JESFPRIV     64 00000004 FFFFFFD3        19641 23440M 23535M
 JESFSYS      64 00000000 FFFFFFD3        19623 19852  23346M
 JESFUNN       2 00000005 FFFFFFD3        19681 20175M 20198M
 JESFXHLD     32 00000005 FFFFFFD3        19661 21341M 21416M
 JESFXHOX     32 00000021 FFFFFFD3        19711 21345M 21420M
 JESHFL        1 00000004 FFFFFFD3     R   19632 19636  19641  19719  19719
 JESHOLD       2 000028B2 00000001     H   21148 20345
 JESICLS       2 00003BA4 00000001     H   27515 15770  18401  27511
 JESINF       49 00000004 FFFFFFD3     X   19719 19721  19721  19805M 20230M 20230  20243
 JESINIT       2 00000016 00000001     H   11612 11608
 JESIOPN       2 00003A42 00000001     H   26974 15758  18392  26970
 JESJANY       2 00002E5E 00000001     H   23136 20675
 JESJBIN       3 00000016 FFFFFFD3     C   19692 22326M 25370
 JESJDEST      8 0000000E FFFFFFD3     C   19691 22155M 22156  25368
 JESJFORM      8 00000019 FFFFFFD3     C   19693 22492M 22504  25371
 JESJNO        2 0000002E FFFFFFD3     H   19717 20237M 22899M
 JESJOB        2 00002E8E 00000001     H   23207 20690
 JESJOBNM      2 00002E2E 00000001     H   23066 20660
 JESJPFX       8 00000025 FFFFFFD3     C   19716 22704M 22832M 22832  25373
 JESJSYS       8 00000006 FFFFFFD3     C   19690 21989M 25367
 JESLOOP       4 000016DA 00000001     I   17125 17457B 17477B 17559B 17589B
 JESNACCT      5 00000030 FFFFFFD3     C   19718 21644M 21644  21731M 21732M 21754M 21755M
 JESNCOM       2 000029F6 00000001     H   21603 25362
 JESNHOLD      2 000028E6 00000001     H   21222 20360
 JESNOBUG      2 00002DFE 00000001     H   22995 20555
 JESNONT       2 000029BC 00000001     H   21524 20420
 JESNOPRE      2 00002D6C 00000001     H   22785 20510
 JESNPRIV      2 00002F3C 00000001     H   23466 20735
 JESNRUN       2 00002882 00000001     H   21078 20330
 JESNTFY       2 00002982 00000001     H   21446 20405
 JESNXHLD      2 0000294E 00000001     H   21371 20390
1JES      (JES2010) (12:47) (15MAR04) Ordinary Symbol and Literal Cross Reference                                           Page  104
 JESOCLS       2 00003B10 00000001     H   27279 27275  28139
 JESODEL       2 00003AD4 00000001     H   27198 27194
 JESOFLG       1 00000000 FFFFFFD3     R   19614 19618  19623
 JESOK         2 00000296 00000001     H   12507 15743  16800
 JESOOPN       2 00003904 00000001     H   26591 26587  30262
 JESPFX        2 00002CD8 00000001     H   22568 20495
 JESPRIV       2 00002EFE 00000001     H   23372 20720
 JESPRT        4 00002234 00000001     F   20273 20776
 JESRD         4 00004038 00000001     I   28690 15760  18395  28142
 JESRDLP       4 000040A6 00000001     I   28797 28779B 29049B
 JESRDNXT      2 0000409A 00000001     H   28783 29205B 29245B
 JESREXIT      2 0000425A 00000001     I   29542 28950B 29525B 29615B
 JESRNXTL      2 0000419E 00000001     H   29191 29470B
 JESRTN        2 00001558 00000001     H   16837 16806  16833
 JESRUN        2 00002852 00000001     H   21007 20315
 JESRUPD       2 00004254 00000001     H   29534 29142B 29181B
 JESSKIP       2 000027C6 00000001     H   20800 20570  20585  20600  20615  20630  20645
 JESSND        2 0000146C 00000001     H   16634 16630
 JESSSREQ      4 00000014 FFFFFFDF     A    9373 25733
 JESSTOP       2 0000022C 00000001     H   12308 12304
 JESSYS        2 00002AEE 00000001     H   21852 20435
 JESSYST       2 00002EC4 00000001     H   23282 20705
 JESTER      128 00000004 FFFFFFD3        19636 20910M 20981M
 JESTERSE      2 000027F2 00000001     H   20866 20285
 JESVERB       2 00002822 00000001     H   20936 20300
 JESWA        53 00000000 FFFFFFD3     J   19728 19754  19783U 19787  19795U 19803M 19803  20264  20266  20267
 JESWR         2 00003F12 00000001     H   28182 28135  28178
 JESXHOLD      2 0000291A 00000001     H   21297 20375
 JES2010       1 00000000 00000001     R    1142  1140
 JGROUP        2 00001E5E 00000001     H   18950 18346  18361
 JGROUP2       2 00001EA0 00000001     H   19019 19011B
 JGRPDONE      2 00001EB4 00000001     H   19046 19012B
 JINEXIT       2 0000021E 00000001     H   12280 11766B
 JNOACC        4 000038BC 00000001     I   26489 26076B 26281B 26300B
 JOBKW         2 00003830 00000001     H   26310 25901B 26120B 26174B 26212B 26230B 26271B
 JOBKWCHK      4 00003714 00000001     I   25828 19290  25827
 JOBKWX        2 000038B0 00000001     I   26480 26036B 26053B 26114B 26334B
 JUSER         2 00001DF8 00000001     H   18828 18316  18331
 JUSER2        2 00001E3C 00000001     H   18897 18889B
 JUSRDONE      2 00001E50 00000001     H   18924 18890B
 JWA         600 00000000 FFFFFFD4     J   11596 11562  12897  12926U 12930  12938U 14356  14358  14359  15892U 15987U
                                                 16080U 16850  16879U 16884  16892U 18124  18126  18127  19391U 27043U
                                                 27584U 28741U 29724U
 JWABLKB     256 00000058 FFFFFFD4     X   11506 15900M 15900  15990  16086
 JWABUF        4 00000158 FFFFFFD4     F   11507 11509  11565  13539  13986
 JWABY         4 0000003C FFFFFFD4     F   11496 12966M 13162  13207  14092  14156  15302M
 JWACC         1 00000025 FFFFFFD4     C   11488 13580  13642  13676  13696  13716  13752  13783  29251M 29309M 29397M
 JWACMD        4 00000040 FFFFFFD4     F   11497 12979  15991  16084  16108  16948  19555M
 JWACMDL       4 00000044 FFFFFFD4     F   11498 12984  16085  16109  16953  19551M
 JWADATA     568 00000020 FFFFFFD4     X   11566 19399M 19399  19400M 19400  19401M 19401
 JWAFCCTL     16 00000023 FFFFFFD4        11462 13626  29257M 29336M 29422M
 JWAFDISP     64 00000023 FFFFFFD4        11452 13351  14062  14208  15567M
 JWAFLG2       1 00000021 FFFFFFD4     X   11431 13496  14326  17169  17197  17607  17630  27650  28911  29080M 29081M
 JWAFLG3       1 00000022 FFFFFFD4     X   11434 13574  13614  13847  13921  14865M 14935M
 JWAFLG4       1 00000023 FFFFFFD4     R   11443 11447  11452  11457  11462  11467  11472  11477  11482
 JWAFLPR       1 00000023 FFFFFFD4        11482 17260  17325M 17700
 JWAFNUM       4 00000023 FFFFFFD4        11472 14077  15434M
 JWAFSCAN    128 00000023 FFFFFFD4        11447 16920M 16934
 JWAFSQSH     32 00000023 FFFFFFD4        11457 14000  15595M 17143
1JES      (JES2010) (12:47) (15MAR04) Ordinary Symbol and Literal Cross Reference                                           Page  105
 JWAFTAPP      8 00000023 FFFFFFD4        11467 13155  13295  13363  15368M
 JWAFTLEN      2 00000048 FFFFFFD4     H   11499 14040  14047  15501M
 JWAFTNUM      4 0000004C FFFFFFD4     F   11500 14102M 14103M 14104
 JWAFTPFX      4 00000050 FFFFFFD4     F   11502 11568
 JWAFTRUN      2 00000023 FFFFFFD4        11477 14026  15500M
 JWAF3CC       1 00000004 FFFFFFD4 A   U   11438 13569  13612  13845  13916  14930
 JWAF3MC       1 00000020 FFFFFFD4 A   U   11437 13572  13919  14863  14933
 JWAHRBF2      1 00000024 FFFFFFD4     X   11486 13902  29082M
 JWAINIT       2 00001F7E 00000001     H   19322 15744  18385
 JWAOLDMC      1 00000026 FFFFFFD4     X   11489 13659  13731M 13746  13752M 13775M 13781  13783M 13879M
 JWAPATHP      4 00000028 FFFFFFD4     F   11491 27087M 27588  27818M 27818  28745  29728
 JWASKPC       4 00000034 FFFFFFD4     F   11494 13205  15180M
 JWASTRT       1 00000020 FFFFFFD4     X   11423 11566  11566
 JWATO         4 00000038 FFFFFFD4     F   11495 12965M 13133  15241M
 KWIO          1 00000000 00000029     T   28127 28127
 KWR         504 00000000 FFFFFFE7     J    6648 19184  19194U 19205M 19205  19206M 19206  19293  25873U 26473
 KWRCRD        1 00000040 FFFFFFE7 A   U    6640 25883
 KWRDSTRT      1 00000005 FFFFFFE7     U    6459  6621   6621
 KWRGRP        2 00000003 FFFFFFE7     C    6456 25951  25956  26096  26383  26388  26513  26518
 KWRHFCK       1 00000080 FFFFFFE7 A   U    6626 25896
 KWRHFL        1 000001F4 FFFFFFE7     X    6625 25898
 KWRIFL        1 0000000E FFFFFFE7     X    6465 25917
 KWRIFVAL      1 00000080 FFFFFFE7 A   U    6466 25915
 KWRJFATH      1 00000007 FFFFFFE7 A   U    6520 26071
 KWRJFCOM      1 00000002 FFFFFFE7 A   U    6522 26135
 KWRJFL        1 00000037 FFFFFFE7     X    6515 26073  26137  26297
 KWRJFPUB      1 00000004 FFFFFFE7 A   U    6521 26295
 KWRSTART      4 00000000 FFFFFFE7     F    6454  6635
 KWRUSER       3 00000000 FFFFFFE7     C    6455  6457   6457  19207M 19215  25997  26002  26050  26195  26318  26429
                                                 26434  26560  26565
 LASTLINE      1 00000000 00000018     T   15771 15771
 LOWTBL        1 00000000 00000000 A   T    2190  2190
 LRCCCTL       1 00000003 FFFFFFDA     X   10759 29397
 LRCDSECT      1 00000000 FFFFFFDA     J   10753 29229U
 LRCFLAG1      1 00000001 FFFFFFDA     B   10755 29268  29286  29303  29323  29391  29409  29454  29467
 LRCSEGL       2 00000002 FFFFFFDA     G   10756 29274
 LRCSFTXT  32767 00000006 FFFFFFDA     X   10763 29292
 LRCSOUT     254 00000004 FFFFFFDA     X   10760 29398
 LRCSTEXT  32767 00000004 FFFFFFDA     X   10761 29275
 LRCTEXT     254 00000003 FFFFFFDA     X   10758 29372
 LRCTLENG      1 00000000 FFFFFFDA     X   10754 29242  29380
 LRC1CCTL      1 00000080 00000001 A   U   10770 29301  29389
 LRC1SBGN      1 00000008 00000001 A   U   10790 29284  29465
 LRC1SPAN      1 00000010 00000001 A   U   10772 29266  29452
 LRC1TMCH      1 00000020 00000001 A   U   10779 29321  29407
 LRTRIM        1 00000000 00000007     T   12861 12861  25381  28133
 LSR           8 00000008 00000001 A   #    1038 11621  12292M 12317  12491M 12516  12643M 12671  12838M 12894  14356M
                                                 14766  14813M 14833  14880M 14900  14950M 14970  15134M 15154  15195M
                                                 15215  15256M 15276  15317M 15337  15383M 15403  15449M 15469  15516M
                                                 15536  15582M 15611  15655M 15675  15716M 15859  15915M 15954  16011M
                                                 16047  16173M 16225  16611M 16643  16783M 16847  18124M 18428  18472M
                                                 18492  18656M 18676  18817M 18837  18939M 18959  19061M 19084  19261M
                                                 19331  19572M 19751  20264M 20809  20855M 20875  20925M 20945  20996M
                                                 21016  21067M 21087  21137M 21157  21211M 21231  21286M 21306  21360M
                                                 21380  21435M 21455  21513M 21533  21592M 21612  21841M 21861  22008M
                                                 22028  22179M 22199  22345M 22365  22557M 22577  22774M 22794  22847M
                                                 22867  22914M 22934  22984M 23004  23055M 23075  23125M 23145  23196M
                                                 23216  23271M 23291  23361M 23381  23455M 23475  23550M 23584  23637M
                                                 23658  24949M 24970  25345M 25450  25546M 25579  25788M 26600  26950M
1JES      (JES2010) (12:47) (15MAR04) Ordinary Symbol and Literal Cross Reference                                           Page  106
                                                 26983  27166M 27207  27259M 27288  27499M 27524  27833M 27874  28099M
                                                 28191  28507M 28532  28663M 29664  29864M 29912  30238M
 MALL          1 00000000 0000000C     T   14704 14704  14750  18269  18375  20764
 MARKBLKB      2 0000129A 00000001     H   15945 15749  18388  19282
 MCTOCC        1 0000116C 00000001     C   15793 13817  15794  15796  15798  15800  15802  15804  15806  15808  15810
                                                 15812  15814  15816  15818  15820  15822
 MFETABRT      2 00000838 00000001     H   14200 13465B 13484B 13526B
 MFETBIG       4 00000826 00000001     I   14171 14097B 14161B
 MFETEOF       4 00000882 00000001     I   14310 13483B 14134B 14211B
 MFETLP        4 0000064C 00000001     I   13437 13533B 13753B 13811B 14167B
 MILERR        1 00000000 00000000 A   T    2181  2181
 MPARM         1 00000000 0000001F     T   18285 18285  18300  18315  18330  18345  18360  20434  20449  20464  20479
                                                 20494
 MPINT         1 00000000 0000000A     T   14584 14584  14720  14735  20524  20689
 MPLNO         1 00000000 00000009     T   14524 14524  14539
 MTOKEN        1 00000000 00000008     T   14404 14404  14419  14434  14449  14464  14479  14494  14509  14554  14569
                                                 14599  14614  14629  14644  14659  14674  18179  18194  18209  18224
                                                 18239  18254  20284  20299  20314  20329  20344  20359  20374  20389
                                                 20404  20419  20509  20539  20554  20569  20584  20599  20614  20629
                                                 20644  20659  20674  20704  20719  20734
 NBLTBL        1 00000000 00000000 A   T    2194  2194
 NOACTION      1 00000000 00000000 A   T    2184  2184
 NOTRKW        2 00001C3A 00000001     H   18419 14705  18270
 NOTVALID      1 00000000 0000000D     T   14751 14751  18376  19287  20765  25366
 NPARTBL       1 00000000 00000000 A   T    2188  2188
 NSCAN         1 00000000 0000000E     T   15747 15747  18386  19283  20777  25363
 NSCNCB      176 00000000 FFFFFFED     J    2453  2579  12987M 12988M 13003  13004  13005  13008M 13009M 13010M 13020M
                                                 13021M 13022M 13043  13044  13045  13048M 13049M 13050M 13060M 13061M
                                                 13062M 13100  13101  13102  13105M 13106M 13108M 13118M 13119M 13120M
                                                 15010  15011  15012  15015M 15016M 15017M 15027M 15028M 15029M 15050
                                                 15052  15067M 15068M 15083  15084  15085  15088M 15089M 15091M 15101M
                                                 15102M 15103M 15115  15779  16956M 16957M 16972  16973  16974  16977M
                                                 16978M 16979M 16989M 16990M 16991M 17012  17013  17014  17017M 17018M
                                                 17019M 17029M 17030M 17031M 17052  17053  17054  17057M 17058M 17060M
                                                 17070M 17071M 17072M 18532  18533  18534  18537M 18538M 18539M 18549M
                                                 18550M 18551M 18572  18574  18589M 18590M 18605  18606  18607  18610M
                                                 18611M 18613M 18623M 18624M 18625M 18637  18709  18870  18992  19292
                                                 19816  19817  19818  19821M 19822M 19824M 19834M 19835M 19836M 21655
                                                 21656  21657  21660M 21661M 21662M 21672M 21673M 21674M 21769  21784
                                                 21799  21800  21801M 21801  21802  21803M 21816M 21988  22154  22325
                                                 22491  22703
 NSCNFLGS      1 00000008 FFFFFFED     R    2390  2394   2399
 NSCNKWS       4 00000028 FFFFFFED     A    2439 13003  13010M 13020M 13043  13050M 13060M 13100  13108M 13118M 15010
                                                 15017M 15027M 15083  15091M 15101M 16972  16979M 16989M 17012  17019M
                                                 17029M 17052  17060M 17070M 18532  18539M 18549M 18605  18613M 18623M
                                                 19816  19824M 19834M 21655  21662M 21672M
 NSCNLEN       4 00000004 FFFFFFED     F    2387 12988M 15068M 16957M 18590M 21802  21803M
 NSCNLOC       4 00000000 FFFFFFED     A    2386 12987M 15067M 16956M 18589M 21799  21801M
 NSCNSKIP      4 00000024 FFFFFFED     A    2438 13004  13008M 13021M 13044  13048M 13061M 13101  13105M 13119M 15011
                                                 15015M 15028M 15084  15088M 15102M 16973  16977M 16990M 17013  17017M
                                                 17030M 17053  17057M 17071M 18533  18537M 18550M 18606  18610M 18624M
                                                 19817  19821M 19835M 21656  21660M 21673M
 NSCNSTOP      4 00000020 FFFFFFED     A    2437 13005  13009M 13022M 13045  13049M 13062M 13102  13106M 13120M 15012
                                                 15016M 15029M 15085  15089M 15103M 16974  16978M 16991M 17014  17018M
                                                 17031M 17054  17058M 17072M 18534  18538M 18551M 18607  18611M 18625M
                                                 19818  19822M 19836M 21657  21661M 21674M
 NSCNTLEN      4 00000014 FFFFFFED     F    2405 21769  21816M
 NSCNTLOC      4 00000010 FFFFFFED     A    2404 21784  21800  21801
 NSCNTOK      16 00000030 FFFFFFED     C    2441 18709  18870  18992  21988  22154  22325  22491  22703
1JES      (JES2010) (12:47) (15MAR04) Ordinary Symbol and Literal Cross Reference                                           Page  107
 NSCNTYPE      1 00000018 FFFFFFED     R    2408  2412   2417   2422   2427   2432
 NSSI9552      1 000036B8 00000001     U   25738 25735B
 NUMPSH        1 00000000 00000023     T   20750 20750
 PATHSTAT      2 00004352 00000001     H   29903 28136  30267
 PFREEA        1 00000000 00000014     T   15762 15762
 PROFF         5 00001937 00000001     X   18134 17399  17404  17840  17845
 PRON          4 00001933 00000001     X   18133 17344  17349
 PUTLINE       1 00000000 00000017     T   15769 15769
 QUIETPSH      1 00000000 0000001E     T   18165 18165
 RAR          14 0000000E 00000001 A   #    1116  2119   2120M  2121B  2123M  2124B  2144M  2145B  2149M  2150B  2152M
                                                  2153B  2155M  2156B  2158M  2159B  2161M  2162M  2162B  2168  11618
                                                 11908M 11909M 11909B 12204M 12205M 12205B 12294M 12297B 12314  12493M
                                                 12496B 12513  12544M 12545M 12545B 12573M 12574M 12574B 12591M 12592M
                                                 12592B 12615M 12616M 12616B 12645M 12648B 12668  12840M 12843B 12891
                                                 12944M 12945M 12945B 12962M 12963M 12963B 12969M 12970M 12970B 13013M
                                                 13014M 13014B 13027M 13028M 13028B 13031M 13032M 13032B 13053M 13054M
                                                 13054B 13067M 13068M 13068B 13088M 13089M 13089B 13111M 13112M 13112B
                                                 13125M 13126M 13126B 13129M 13130M 13130B 13165M 13166M 13166B 13258M
                                                 13259M 13259B 13317M 13318M 13318B 13337M 13338M 13338B 13371M 13372M
                                                 13372B 13389M 13390M 13390B 13393M 13394M 13394B 13422M 13423M 13423B
                                                 13481M 13482M 13482B 13524M 13525M 13525B 13531M 13532M 13532B 14009M
                                                 14010M 14010B 14089M 14090M 14090B 14095M 14096M 14096B 14132M 14133M
                                                 14133B 14153M 14154M 14154B 14159M 14160M 14160B 14196M 14197M 14197B
                                                 14219M 14220M 14220B 14278M 14279M 14279B 14300M 14301M 14301B 14304M
                                                 14305M 14305B 14310M 14311M 14311B 14358M 14361B 14763  14815M 14818B
                                                 14830  14882M 14885B 14897  14952M 14955B 14967  15020M 15021M 15021B
                                                 15034M 15035M 15035B 15043M 15044M 15044B 15094M 15095M 15095B 15108M
                                                 15109M 15109B 15136M 15139B 15151  15197M 15200B 15212  15258M 15261B
                                                 15273  15319M 15322B 15334  15385M 15388B 15400  15451M 15454B 15466
                                                 15518M 15521B 15533  15584M 15587B 15596B 15608  15639M 15640M 15640B
                                                 15657M 15660B 15672  15718M 15721B 15856  15917M 15920B 15951  16013M
                                                 16016B 16044  16175M 16178B 16222  16253M 16254M 16254B 16340M 16341M
                                                 16341B 16365M 16366M 16366B 16380M 16381M 16381B 16389M 16390M 16390B
                                                 16434M 16435M 16435B 16500M 16501M 16501B 16559M 16560M 16560B 16587M
                                                 16588M 16588B 16613M 16616B 16640  16672M 16673M 16673B 16731M 16732M
                                                 16732B 16759M 16760M 16760B 16785M 16788B 16844  16898M 16899M 16899B
                                                 16982M 16983M 16983B 16996M 16997M 16997B 17000M 17001M 17001B 17022M
                                                 17023M 17023B 17036M 17037M 17037B 17040M 17041M 17041B 17063M 17064M
                                                 17064B 17077M 17078M 17078B 17081M 17082M 17082B 17090M 17091M 17091B
                                                 17095M 17096M 17096B 17099M 17100M 17100B 17125M 17126M 17126B 17131M
                                                 17132M 17132B 17152M 17153M 17153B 17310M 17311M 17311B 17360M 17361M
                                                 17361B 17387M 17388M 17388B 17415M 17416M 17416B 17429M 17430M 17430B
                                                 17543M 17544M 17544B 17557M 17558M 17558B 17587M 17588M 17588B 17777M
                                                 17778M 17778B 17856M 17857M 17857B 17903M 17904M 17904B 17925M 17926M
                                                 17926B 17950M 17951M 17951B 18087M 18088M 18088B 18126M 18129B 18425
                                                 18456M 18457M 18457B 18474M 18477B 18489  18542M 18543M 18543B 18556M
                                                 18557M 18557B 18565M 18566M 18566B 18616M 18617M 18617B 18630M 18631M
                                                 18631B 18658M 18661B 18673  18704M 18705M 18705B 18730M 18731M 18731B
                                                 18799M 18800M 18800B 18819M 18822B 18834  18865M 18866M 18866B 18916M
                                                 18917M 18917B 18941M 18944B 18956  18987M 18988M 18988B 19038M 19039M
                                                 19039B 19063M 19066B 19081  19227M 19228M 19228B 19263M 19266B 19328
                                                 19574M 19577B 19748  19827M 19828M 19828B 19841M 19842M 19842B 19874M
                                                 19875M 19875B 19926M 19927M 19927B 19942M 19943M 19943B 19991M 19992M
                                                 19992B 20006M 20007M 20007B 20031M 20032M 20032B 20046M 20047M 20047B
                                                 20071M 20072M 20072B 20094M 20095M 20095B 20266M 20269B 20806  20857M
                                                 20860B 20872  20927M 20930B 20942  20998M 21001B 21013  21069M 21072B
                                                 21084  21139M 21142B 21154  21213M 21216B 21228  21288M 21291B 21303
                                                 21362M 21365B 21377  21437M 21440B 21452  21497M 21498M 21498B 21515M
                                                 21518B 21530  21576M 21577M 21577B 21594M 21597B 21609  21665M 21666M
1JES      (JES2010) (12:47) (15MAR04) Ordinary Symbol and Literal Cross Reference                                           Page  108
                                                 21666B 21679M 21680M 21680B 21843M 21846B 21858  21927M 21928M 21928B
                                                 21952M 21953M 21953B 21978M 21979M 21979B 22010M 22013B 22025  22094M
                                                 22095M 22095B 22119M 22120M 22120B 22145M 22146M 22146B 22159M 22160M
                                                 22160B 22181M 22184B 22196  22265M 22266M 22266B 22290M 22291M 22291B
                                                 22316M 22317M 22317B 22347M 22350B 22362  22431M 22432M 22432B 22456M
                                                 22457M 22457B 22482M 22483M 22483B 22526M 22527M 22527B 22559M 22562B
                                                 22574  22643M 22644M 22644B 22668M 22669M 22669B 22694M 22695M 22695B
                                                 22707M 22708M 22708B 22742M 22743M 22743B 22776M 22779B 22791  22849M
                                                 22852B 22864  22916M 22919B 22931  22986M 22989B 23001  23057M 23060B
                                                 23072  23127M 23130B 23142  23198M 23201B 23213  23273M 23276B 23288
                                                 23335M 23336M 23336B 23363M 23366B 23378  23425M 23426M 23426B 23457M
                                                 23460B 23472  23519M 23520M 23520B 23552M 23555B 23581  23612M 23613M
                                                 23613B 23616M 23617M 23617B 23620M 23621M 23621B 23639M 23642B 23655
                                                 23716M 23717M 23717B 23754M 23755M 23755B 23810M 23811M 23811B 23845M
                                                 23846M 23846B 23867M 23868M 23868B 23917M 23918M 23918B 23939M 23940M
                                                 23940B 23973M 23974M 23974B 24003M 24004M 24004B 24021M 24022M 24022B
                                                 24051M 24052M 24052B 24085M 24086M 24086B 24139M 24140M 24140B 24161M
                                                 24162M 24162B 24215M 24216M 24216B 24237M 24238M 24238B 24276M 24277M
                                                 24277B 24330M 24331M 24331B 24352M 24353M 24353B 24391M 24392M 24392B
                                                 24409M 24410M 24410B 24433M 24434M 24434B 24474M 24475M 24475B 24493M
                                                 24494M 24494B 24517M 24518M 24518B 24557M 24558M 24558B 24585M 24586M
                                                 24586B 24625M 24626M 24626B 24653M 24654M 24654B 24693M 24694M 24694B
                                                 24721M 24722M 24722B 24761M 24762M 24762B 24789M 24790M 24790B 24812M
                                                 24813M 24813B 24830M 24831M 24831B 24854M 24855M 24855B 24858M 24859M
                                                 24859B 24933M 24934M 24934B 24951M 24954B 24967  25028M 25029M 25029B
                                                 25123M 25124M 25124B 25145M 25146M 25146B 25177M 25178M 25178B 25197M
                                                 25198M 25198B 25221M 25222M 25222B 25243M 25244M 25244B 25263M 25264M
                                                 25264B 25287M 25288M 25288B 25325M 25326M 25326B 25347M 25350B 25447
                                                 25479M 25480M 25480B 25518M 25519M 25519B 25548M 25551B 25576  25718M
                                                 25719M 25719B 25745M 25746M 25746B 25790M 25793B 25886M 25887M 25887B
                                                 25939M 25940M 25940B 25967M 25968M 25968B 25985M 25986M 25986B 26013M
                                                 26014M 26014B 26371M 26372M 26372B 26399M 26400M 26400B 26417M 26418M
                                                 26418B 26445M 26446M 26446B 26463M 26464M 26464B 26477M 26478M 26478B
                                                 26501M 26502M 26502B 26529M 26530M 26530B 26547M 26548M 26548B 26597
                                                 26629M 26630M 26630B 26702M 26703M 26703B 26732M 26733M 26733B 26756M
                                                 26757M 26757B 26774M 26775M 26775B 26835M 26836M 26836B 26855M 26856M
                                                 26856B 26952M 26955B 26980  27048M 27049M 27049B 27111M 27112M 27112B
                                                 27139M 27140M 27140B 27145M 27146M 27146B 27168M 27171B 27204  27239M
                                                 27240M 27240B 27243M 27244M 27244B 27261M 27264B 27285  27371M 27372M
                                                 27372B 27404M 27405M 27405B 27501M 27504B 27521  27686M 27687M 27687B
                                                 27725M 27726M 27726B 27749M 27750M 27750B 27835M 27838B 27871  27915M
                                                 27916M 27916B 28036M 28037M 28037B 28054M 28055M 28055B 28076M 28077M
                                                 28077B 28101M 28104B 28188  28289M 28290M 28290B 28362M 28363M 28363B
                                                 28438M 28439M 28439B 28509M 28512B 28529  28665M 28668B 28807M 28808M
                                                 28808B 29558M 29559M 29559B 29587M 29588M 29588B 29605M 29606M 29606B
                                                 29661  29765M 29766M 29766B 29843M 29844M 29844B 29866M 29869B 29909
                                                 30240M 30243B 30567M 30568M 30568B
 RDW           4 00000000 FFFFFFD6     F   11343 11356
 RESOURCE     24 00000000 FFFFFFE8     J    6414 11942  11959U 12064U 12101  12111U 12358  12368U 28968U
 RMBRANCH      1 00000000 00000000 A   T    8353  8353
 RPL          76 00000000 FFFFFFDC     X   10463 30546
 RPLCCHAR      4 00000014 FFFFFFDC     A   10224 10227
 RPLOPTC2      4 00000038 FFFFFFDC     X   10324 10428
 RPLOPT3       1 0000002A FFFFFFDC     B   10266 10279
 RPLRBAR       8 0000003C FFFFFFDC     C   10433 30546
 RPLSTAT       1 0000000C FFFFFFDC     X   10142 10143
 RPLSTRID      2 00000012 FFFFFFDC     H   10221 10222
 RSC           2 00003C82 00000001     H   27865 28131
 RSC$ECB       4 0000000C FFFFFFE8     A    6385 28984  29048M 29048
1JES      (JES2010) (12:47) (15MAR04) Ordinary Symbol and Literal Cross Reference                                           Page  109
 RSC@NEXT      4 00000000 FFFFFFE8     A    6382 11942  11970  12101  12117  12358  12374
 RSCFLAGS      1 00000014 FFFFFFE8     R    6390  6394   6399   6404
 RSCGROUP     60 00000000 FFFFFFE9     J    6367 11936U 12096U 12353U
 RSC1ACTV    128 00000014 FFFFFFE8         6394 28995M
 RSG#FREE      2 0000000C FFFFFFE9     H    6320 12132M 12132  12169  12170M 12208  12210M
 RSGFLG1       1 0000003B FFFFFFE9     R    6342  6346   6351   6356   6359
 RSGQFRFW      4 0000001C FFFFFFE9     A    6325 11942  12101  12358
 R0            0 00000000 FFFFFFFF A   #     699  2104   2173M 11904M 11904  12038  12168M 12169M 12170  12208M 12209M
                                                 12210  12562M 12588M 12623M 12959M 12984M 12988  12999M 12999  13008
                                                 13009  13010  13039M 13039  13048  13049  13050  13077M 13077  13096M
                                                 13096  13105  13106  13161M 13174M 13174  13181  13185M 13185  13207M
                                                 13222M 13222  13247M 13265M 13306M 13324M 13411M 13430M 13542  13554M
                                                 13559  13583  13595M 13600  13761M 13761  13794M 13794  13886M 13932M
                                                 14040  14047M 14084  14085  14085  14085  14086M 14091M 14098  14101M
                                                 14105M 14155M 14162  14172M 14267M 14267  14289M 14797M 15006M 15006
                                                 15015  15016  15017  15036M 15038M 15068  15079M 15079  15088  15089
                                                 15180  15241  15302  15501  15777  15777  15777  15993  16331M 16356M
                                                 16371M 16385M 16409M 16409  16475M 16478  16490M 16495  16548M 16576M
                                                 16595M 16720M 16748M 16767M 16953M 16957  16968M 16968  16977  16978
                                                 16979  17008M 17008  17017  17018  17019  17048M 17048  17057  17058
                                                 17180M 17282  17283  17283  17283  17299M 17314M 17332  17333  17333
                                                 17333  17349M 17364M 17404M 17485  17496M 17496  17766M 17766  17845M
                                                 17875  17876  17876  17876  17892M 17907M 17939M 17939  18404  18404
                                                 18404  18528M 18528  18537  18538  18539  18558M 18560M 18590  18601M
                                                 18601  18610  18611  18721  18889M 18907  19011M 19029  19224M 19224
                                                 19376  19404  19405  19405  19405  19509M 19512  19524M 19529  19530
                                                 19551  19552M 19553  19594  19594  19594  19812M 19812  19821  19822
                                                 19863M 19879M 19899M 19933M 19947M 19967M 19997M 20022M 20037M 20062M
                                                 20085M 20085  21651M 21651  21660  21661  21662  21689M 21689  21706
                                                 21969  22136  22307  22473  22515M 22533M 22685  22750M 22899  23256
                                                 23705M 23743M 23763M 23783M 23834M 23856M 23906M 23928M 23962M 23992M
                                                 24010M 24040M 24074M 24128M 24150M 24204M 24226M 24265M 24319M 24341M
                                                 24380M 24406M 24463M 24483M 24483  24546M 24574M 24614M 24642M 24682M
                                                 24710M 24750M 24778M 24801M 24827M 24863M 24883M 24906M 25017M 25033M
                                                 25033  25094M 25094  25134M 25166M 25187M 25187  25232M 25253M 25253
                                                 25292M 25314M 25314  25507M 25526M 25651  25845  25928M 25956M 25974M
                                                 26002M 26018M 26180  26227  26255  26360M 26388M 26406M 26434M 26452M
                                                 26472M 26472  26490M 26518M 26536M 26565M 26729M 26763M 26782M 26824M
                                                 26843M 26852M 26883M 26929M 27028  27236M 27401M 27401  27421  27569
                                                 27605  27746M 27746  27766  27911M 27911  27952M 27952  27974M 28009M
                                                 28043M 28072M 28072  28358  28359  28359  28359  28366M 28396  28625
                                                 28726  28762  28935  28947M 28947  29021  29176M 29274M 29380M 29438
                                                 29576M 29594M 29611M 29611  29709  29745  30000  30075  30191  30271
                                                 30271  30271  30564M
 R1            1 00000001 FFFFFFFF A   #     712  2167M  2168M  2174M 11900M 11996M 11997  12080M 12201M 12258  12561M
                                                 12583M 12622M 12955M 12979M 12987  12995M 13008  13009  13010  13035M
                                                 13048  13049  13050  13092M 13105  13106  13108  13133M 13134M 13134
                                                 13162M 13181M 13205M 13206M 13236  13246M 13264M 13305M 13323M 13334
                                                 13410M 13429M 13930M 13986M 14084  14085  14085  14085  14092M 14101M
                                                 14104M 14156M 14171M 14288M 14796M 14999  15002M 15015  15016  15017
                                                 15036  15037M 15038  15067  15075M 15088  15089  15091  15777  15777
                                                 15777  15991M 15992  16324M 16352M 16370M 16383M 16471M 16547M 16571M
                                                 16594M 16719M 16743M 16766M 16948M 16956  16964M 16977  16978  16979
                                                 17004M 17017  17018  17019  17044M 17057  17058  17060  17179M 17282
                                                 17283  17283  17283  17294M 17314M 17332  17333  17333  17333  17344M
                                                 17364M 17399M 17484  17840M 17875  17876  17876  17876  17887M 17907M
                                                 18404  18404  18404  18521  18524M 18537  18538  18539  18558  18559M
                                                 18560  18589  18597M 18610  18611  18613  18708M 18709M 18709  18869M
                                                 18870M 18870  18888M 18991M 18992M 18992  19010M 19183M 19194U 19404
1JES      (JES2010) (12:47) (15MAR04) Ordinary Symbol and Literal Cross Reference                                           Page  110
                                                 19405  19405  19405  19509M 19554M 19555  19594  19594  19594  19808M
                                                 19821  19822  19824  19862M 19878M 19898M 19932M 19946M 19966M 19996M
                                                 20017M 20036M 20057M 21647M 21660  21661  21662  21987M 21988M 21988
                                                 22153M 22154M 22154  22156M 22324M 22325M 22325  22490M 22491M 22491
                                                 22514M 22532M 22702M 22703M 22703  22749M 23704M 23742M 23762M 23782M
                                                 23833M 23855M 23905M 23927M 23961M 23985M 24009M 24033M 24067M 24127M
                                                 24149M 24203M 24225M 24264M 24318M 24340M 24379M 24401M 24462M 24490M
                                                 24545M 24569M 24613M 24637M 24681M 24705M 24749M 24773M 24800M 24822M
                                                 24862M 24882M 24905M 25016M 25133M 25165M 25194M 25231M 25260M 25291M
                                                 25476  25500M 25525M 25720M 25846  25882M 25927M 25951M 25973M 25997M
                                                 26017M 26359M 26383M 26405M 26429M 26451M 26473M 26474M 26474  26489M
                                                 26513M 26535M 26560M 26626M 26631  26632  26724M 26762M 26781M 26823M
                                                 26842M 26851M 26882M 26928M 27045M 27086  27142M 27235M 27397M 27722M
                                                 27742M 27901  27945M 27947  27964  27973M 27999  28008M 28042M 28063M
                                                 28084  28084M 28358  28359  28359  28359  28366M 28395  28446M 28797M
                                                 28949M 28949  29172M 29275M 29292M 29312M 29372M 29398M 29436  29555M
                                                 29571M 29593M 29613M 29613  29762M 29840M 29938  30149M 30150  30271
                                                 30271  30271  30557M
 R12          12 0000000C FFFFFFFF A   #     855  2130
 R13          13 0000000D FFFFFFFF A   #     868 12018  13003  13004  13005  13020  13021  13022  13043  13044  13045
                                                 13060  13061  13062  13100  13101  13102  13118  13119  13120  15010
                                                 15011  15012  15027  15028  15029  15050  15083  15084  15085  15101
                                                 15102  15103  16972  16973  16974  16989  16990  16991  17012  17013
                                                 17014  17029  17030  17031  17052  17053  17054  17070  17071  17072
                                                 18532  18533  18534  18549  18550  18551  18572  18605  18606  18607
                                                 18623  18624  18625  19816  19817  19818  19834  19835  19836  21655
                                                 21656  21657  21672  21673  21674  29801  30171
 R14          14 0000000E FFFFFFFF A   #     881  2105M 12039M 12986M 12987  12988  12992M 12992  13002M 13003  13004
                                                 13005  13017M 13020  13021  13022  13042M 13043  13044  13045  13057M
                                                 13060  13061  13062  13099M 13100  13101  13102  13107M 13108  13115M
                                                 13118  13119  13120  15009M 15010  15011  15012  15024M 15027  15028
                                                 15029  15049M 15050  15066M 15067  15068  15072M 15072  15082M 15083
                                                 15084  15085  15090M 15091  15098M 15101  15102  15103  15112M 15115
                                                 16955M 16956  16957  16961M 16961  16971M 16972  16973  16974  16986M
                                                 16989  16990  16991  17011M 17012  17013  17014  17026M 17029  17030
                                                 17031  17051M 17052  17053  17054  17059M 17060  17067M 17070  17071
                                                 17072  18531M 18532  18533  18534  18546M 18549  18550  18551  18571M
                                                 18572  18588M 18589  18590  18594M 18594  18604M 18605  18606  18607
                                                 18612M 18613  18620M 18623  18624  18625  18634M 18637  19377M 19815M
                                                 19816  19817  19818  19823M 19824  19831M 19834  19835  19836  21654M
                                                 21655  21656  21657  21669M 21672  21673  21674  21768M 21769  21784
                                                 21799  21800  21801  21801  21802  21803  21816  21820M 21820  25828
                                                 27029M 27422M 27570M 27606M 27767M 28624M 28690  28727M 28763M 28936M
                                                 29020M 29710M 29746M 30001M 30076M 30192M
 R15          15 0000000F FFFFFFFF A   #     894  2104  11672M 11672  11712M 11712  11905M 12029M 12029  12038  12296M
                                                 12296  12495M 12495  12570M 12612M 12647M 12647  12700M 12700  12810M
                                                 12842M 12842  13023M 13023  13063M 13063  13121M 13121  13255M 13314M
                                                 13419M 13437M 13447U 13521M 13781M 13808  13817M 13817  14129M 14150M
                                                 14193M 14275M 14297M 14360M 14360  14817M 14817  14884M 14884  14954M
                                                 14954  15030M 15030  15104M 15104  15119M 15119  15138M 15138  15199M
                                                 15199  15260M 15260  15321M 15321  15387M 15387  15453M 15453  15520M
                                                 15520  15586M 15586  15659M 15659  15720M 15720  15919M 15919  16015M
                                                 16015  16177M 16177  16337M 16362M 16377M 16431M 16496M 16556M 16584M
                                                 16615M 16615  16728M 16756M 16787M 16787  16883  16992M 16992  17032M
                                                 17032  17073M 17073  17113M 17307M 17357M 17384M 17412M 17426M 17540M
                                                 17554M 17584M 17596M 17596  17614M 17676M 17683  17774M 17853M 17900M
                                                 17922M 17947M 18104M 18128M 18128  18476M 18476  18552M 18552  18626M
                                                 18626  18641M 18641  18660M 18660  18821M 18821  18943M 18943  19065M
                                                 19065  19265M 19265  19376  19576M 19576  19837M 19837  19871M 19923M
1JES      (JES2010) (12:47) (15MAR04) Ordinary Symbol and Literal Cross Reference                                           Page  111
                                                 19939M 19988M 20003M 20028M 20043M 20068M 20091M 20268M 20268  20859M
                                                 20859  20929M 20929  21000M 21000  21071M 21071  21141M 21141  21215M
                                                 21215  21290M 21290  21364M 21364  21439M 21439  21517M 21517  21596M
                                                 21596  21675M 21675  21769M 21778M 21778  21784M 21793M 21793  21799M
                                                 21800M 21802M 21803  21815M 21815  21816  21826M 21826  21845M 21845
                                                 21993M 21993  22012M 22012  22164M 22164  22183M 22183  22330M 22330
                                                 22349M 22349  22523M 22542M 22542  22561M 22561  22739M 22759M 22759
                                                 22778M 22778  22851M 22851  22918M 22918  22988M 22988  23059M 23059
                                                 23129M 23129  23200M 23200  23275M 23275  23365M 23365  23459M 23459
                                                 23554M 23554  23641M 23641  23713M 23751M 23807M 23842M 23864M 23914M
                                                 23936M 23970M 24000M 24018M 24048M 24082M 24136M 24158M 24212M 24234M
                                                 24273M 24327M 24349M 24388M 24430M 24471M 24479M 24514M 24554M 24582M
                                                 24622M 24650M 24690M 24718M 24758M 24786M 24809M 24851M 24896M 24896
                                                 24930M 24953M 24953  25025M 25060M 25067  25120M 25142M 25174M 25183M
                                                 25218M 25240M 25249M 25284M 25322M 25349M 25349  25515M 25550M 25550
                                                 25651M 25654  25666M 25674M 25683M 25683  25690  25762M 25762  25769M
                                                 25792M 25792  25936M 25964M 25982M 26010M 26171M 26171  26209M 26209
                                                 26368M 26396M 26414M 26442M 26460M 26498M 26526M 26544M 26655M 26665U
                                                 26753M 26771M 26832M 26954M 26954  27028  27050M 27060U 27125  27136M
                                                 27170M 27170  27263M 27263  27319M 27329  27421  27429M 27439U 27484M
                                                 27503M 27503  27569  27605  27766  27774M 27784U 27837M 27837  27912M
                                                 28033M 28051M 28073M 28103M 28103  28286M 28327M 28337U 28417M 28418M
                                                 28430  28445M 28446  28447M 28447  28448  28511M 28511  28600M 28610U
                                                 28625  28626M 28627B 28667M 28667  28726  28762  28865M 28865  28935
                                                 28943M 28996M 29006U 29021  29022M 29023B 29076M 29077  29141M 29180M
                                                 29180  29479M 29479  29584M 29602M 29614M 29709  29745  29775M 29776
                                                 29811M 29811  29839  29845M 29868M 29868  29950M 30000  30075  30086M
                                                 30086  30108M 30182M 30182  30191  30219M 30242M 30242  30455M 30455
                                                 30490M 30490  30584M 30584  30589
 R2            2 00000002 FFFFFFFF A   #     725 11421  11876M 11887M 11887  11911M 11951M 11959U 11970M 11971  11989U
                                                 12151M 12161U 12400M 12410U 13539M 13885M 14999M 15037  15990M 15992M
                                                 15995M 16084M 16108M 16110  16122  16152M 16386M 16883M 16908M 16908
                                                 17221M 17221  17238M 17440M 17440  17484M 17485M 17487M 17724M 17724
                                                 17741M 18008M 18008  18521M 18559  25035M 25035  25054  25155M 25155
                                                 25183  25295M 25476M 25500  25830  25832  25832  25832  26180M 26227
                                                 26236  28238M 28238  28262M 28300M 28300  28396M 28399  28411M 28449
                                                 28453M 28462M 28462  28469  28692  28694  28694  28694  29436M 29437M
                                                 29438M 29439M 29440  29522  29839M 29845  30355M 30363M 30429
 R3            3 00000003 FFFFFFFF A   #     738 11873M 11918  12117M 12145  12151  12171M 12374M 12394  12400  12414M
                                                 13559M 13600M 13763M 13763  13934M 13943M 13952M 13952  13959  15993M
                                                 16085M 16089M 16091  16109M 16110M 16122  16301M 16312U 16337  16362
                                                 16377  16431  17783M 17783  17800M 17982M 17982  25037M 25037  25060
                                                 25296M 25296  28395M 28886M 29074U 29211M 29220M 29229U 29437  29488M
                                                 29498U 29504M 29522  30361M 30438
 R4            4 00000004 FFFFFFFF A   #     751 11942M 11951  11971  12101M 12111U 12145  12358M 12368U 12394  15995M
                                                 16086M 16296M 16324  17806M 17817M 17817  17967M 19530M 19534M 19536
                                                 25067M 25077M 25077  25249  25845M 26033M 26033  27350M 27351  28886M
                                                 28895M 28895  28926M 28926  30365M 30477  30538M 30541
 R5            5 00000005 FFFFFFFF A   #     764 12173M 12178  12181  12218M 12232  12718M 12735M 12735  12750U 15994M
                                                 17706M 17716U 18053M 18063U 19409M 19419U 25854M 26349M 26349  26692M
                                                 26713  26788  26804  26807  27086M 27087  27095U 27317M 27317  27376M
                                                 27376  27383M 27484  27588M 27589M 27589  27620U 28745M 28746M 28746
                                                 28777U 28968U 29555  29728M 29729M 29729  29760U 29762  30335M 30335
                                                 30349  30355  30364M 30364
 R6            6 00000006 FFFFFFFF A   #     777 11725M 11726M 11727M 11737U 11926M 11936U 12086M 12096U 12343M 12353U
                                                 12702M 12712U 12930M 12938U 12940  15892U 15987U 16080U 16884M 16892U
                                                 16894  19367M 19367  19391U 19787M 19795U 25846M 25854  25861M 25861
                                                 25873U 26632M 26640U 27011M 27012M 27012  27043U 27335M 27345U 27552M
                                                 27553M 27553  27584U 28380M 28390U 28558M 28566U 28709M 28710M 28710
1JES      (JES2010) (12:47) (15MAR04) Ordinary Symbol and Literal Cross Reference                                           Page  112
                                                 28741U 29692M 29693M 29693  29724U 29938M 29946U 30308M 30316U
 R7            7 00000007 FFFFFFFF A   #     790  2097M  2097   2098B  2110B
 R8            8 00000008 FFFFFFFF A   #     803 11421  12926U 16879U 19783U 25830  25831M 25832  25832  25832  28692
                                                 28693M 28694  28694  28694
 SCANCHK       1 00000000 0000000F     T   15748 15748  18387  19284  20778  25364
 SDSNQSZ       1 0000002C FFFFFFEC A   U    6085  6086   6087
 SEG           1 00000000 00000011     T   15753 15753  16803  18397  20781  25372  28128
 SEGB          1 00000000 00000006     T   12860 12860  15754  20779  25380  28134
 SEGCB        60 00000000 FFFFFFD7     J   11329 16302  16312U 16811
 SEGCBCOD      1 00000000 FFFFFFD7     R   11240 11249  11259  11269  11279  11289  11299  11309
 SEGCBLENF
               4 0000000C FFFFFFD7     A   11315 16436
 SEGCR         1 00000000 00000013     T   15761 15761  18399  25386  28129  30270
 SEGINIT       1 00000000 00000019     T   16801 16801
 SEGMARK       1 00000000 00000021     T   18398 18398
 SEGT          1 00000000 0000001C     T   16808 16808  28123
 SEGTB         1 00000000 0000001A     T   16802 16802  25383  30269
 SEGWR         1 00000000 00000022     T   18400 18400  20780  25389  28147  30261
 SETJES        2 00002086 00000001     H   19741 19737
 SHOWJES       2 00002F7A 00000001     H   23575 23571
 SPR          13 0000000D 00000001 A   #    1103 11618  11621  11622  11623M 11623  12288M 12292  12294  12314  12317
                                                 12318  12319M 12319  12487M 12491  12493  12513  12516  12517  12518M
                                                 12518  12639M 12643  12645  12668  12671  12672  12673M 12673  12834M
                                                 12838  12840  12891  12894  12896  12897M 12897  14352M 14356  14358
                                                 14763  14766  14767  14768M 14768  14809M 14813  14815  14830  14833
                                                 14834  14835M 14835  14876M 14880  14882  14897  14900  14901  14902M
                                                 14902  14946M 14950  14952  14967  14970  14971  14972M 14972  15130M
                                                 15134  15136  15151  15154  15155  15156M 15156  15191M 15195  15197
                                                 15212  15215  15216  15217M 15217  15252M 15256  15258  15273  15276
                                                 15277  15278M 15278  15313M 15317  15319  15334  15337  15338  15339M
                                                 15339  15379M 15383  15385  15400  15403  15404  15405M 15405  15445M
                                                 15449  15451  15466  15469  15470  15471M 15471  15512M 15516  15518
                                                 15533  15536  15537  15538M 15538  15578M 15582  15584  15608  15611
                                                 15612  15613M 15613  15651M 15655  15657  15672  15675  15676  15677M
                                                 15677  15712M 15716  15718  15856  15859  15860  15861M 15861  15911M
                                                 15915  15917  15951  15954  15955  15956M 15956  16007M 16011  16013
                                                 16044  16047  16048  16049M 16049  16169M 16173  16175  16222  16225
                                                 16226  16227M 16227  16607M 16611  16613  16640  16643  16644  16645M
                                                 16645  16779M 16783  16785  16844  16847  16849  16850M 16850  18120M
                                                 18124  18126  18425  18428  18429  18430M 18430  18468M 18472  18474
                                                 18489  18492  18493  18494M 18494  18652M 18656  18658  18673  18676
                                                 18677  18678M 18678  18813M 18817  18819  18834  18837  18838  18839M
                                                 18839  18935M 18939  18941  18956  18959  18960  18961M 18961  19057M
                                                 19061  19063  19081  19084  19085  19086M 19086  19257M 19261  19263
                                                 19328  19331  19332  19333M 19333  19568M 19572  19574  19748  19751
                                                 19753  19754M 19754  20260M 20264  20266  20806  20809  20810  20811M
                                                 20811  20851M 20855  20857  20872  20875  20876  20877M 20877  20921M
                                                 20925  20927  20942  20945  20946  20947M 20947  20992M 20996  20998
                                                 21013  21016  21017  21018M 21018  21063M 21067  21069  21084  21087
                                                 21088  21089M 21089  21133M 21137  21139  21154  21157  21158  21159M
                                                 21159  21207M 21211  21213  21228  21231  21232  21233M 21233  21282M
                                                 21286  21288  21303  21306  21307  21308M 21308  21356M 21360  21362
                                                 21377  21380  21381  21382M 21382  21431M 21435  21437  21452  21455
                                                 21456  21457M 21457  21509M 21513  21515  21530  21533  21534  21535M
                                                 21535  21588M 21592  21594  21609  21612  21613  21614M 21614  21837M
                                                 21841  21843  21858  21861  21862  21863M 21863  22004M 22008  22010
                                                 22025  22028  22029  22030M 22030  22175M 22179  22181  22196  22199
                                                 22200  22201M 22201  22341M 22345  22347  22362  22365  22366  22367M
                                                 22367  22553M 22557  22559  22574  22577  22578  22579M 22579  22770M
1JES      (JES2010) (12:47) (15MAR04) Ordinary Symbol and Literal Cross Reference                                           Page  113
                                                 22774  22776  22791  22794  22795  22796M 22796  22843M 22847  22849
                                                 22864  22867  22868  22869M 22869  22910M 22914  22916  22931  22934
                                                 22935  22936M 22936  22980M 22984  22986  23001  23004  23005  23006M
                                                 23006  23051M 23055  23057  23072  23075  23076  23077M 23077  23121M
                                                 23125  23127  23142  23145  23146  23147M 23147  23192M 23196  23198
                                                 23213  23216  23217  23218M 23218  23267M 23271  23273  23288  23291
                                                 23292  23293M 23293  23357M 23361  23363  23378  23381  23382  23383M
                                                 23383  23451M 23455  23457  23472  23475  23476  23477M 23477  23546M
                                                 23550  23552  23581  23584  23585  23586M 23586  23633M 23637  23639
                                                 23655  23658  23659  23660M 23660  24945M 24949  24951  24967  24970
                                                 24971  24972M 24972  25341M 25345  25347  25447  25450  25451  25452M
                                                 25452  25542M 25546  25548  25576  25579  25580  25581M 25581  25784M
                                                 25788  25790  26597  26600  26601  26602M 26602  26946M 26950  26952
                                                 26980  26983  26984  26985M 26985  27162M 27166  27168  27204  27207
                                                 27208  27209M 27209  27255M 27259  27261  27285  27288  27289  27290M
                                                 27290  27495M 27499  27501  27521  27524  27525  27526M 27526  27829M
                                                 27833  27835  27871  27874  27875  27876M 27876  28095M 28099  28101
                                                 28188  28191  28192  28193M 28193  28503M 28507  28509  28529  28532
                                                 28533  28534M 28534  28659M 28663  28665  29661  29664  29665  29666M
                                                 29666  29860M 29864  29866  29909  29912  29913  29914M 29914  30234M
                                                 30238  30240
 SQSHRTN       1 00000000 00000015     T   15766 15766  18396
 SSIB          1 00000000 FFFFFFE0     J    9011 11737U
 SSIBEGIN      1 00000000 FFFFFFE0     U    9012  9034
 SSIBJBID      8 0000000C FFFFFFE0     C    9029 11742
 SSIBSIZE      1 00000024 FFFFFFE0 A   U    9034  9014
 SSIBSSNM      4 00000008 FFFFFFE0     C    9026 11744
 SSOB          4 000036F0 00000001     C   25798 25796
 SSOBDEST      8 0000370C 00000001     C   25805 25650M 25697M
 SSOBEXT       2 00003704 00000001     Y   25804 25803
 SSOBPTR       1 000036EC 00000001     X   25796 25720
 SSOBRET       4 000036FC 00000001     A   25802 25769
 SUB           2 00000000 FFFFFFD8     H   10951 12201
 SUB$ECB       4 0000000C FFFFFFD8     A   10955 28588  28647M 28647  30613
 SUB@NEXT      4 00000000 FFFFFFD8     A   10952 12171  12414
 SUBACB        4 0000003C FFFFFFD8     F   11013 11094  11162  12173  26692  27350
 SUBBLEN       2 00000118 FFFFFFD8     H   11214 26648M 26648  28418  28445  28448M 30349  30521M 30521
 SUBBUFR   16384 0000011A FFFFFFD8     X   11215 28446  30264  30355
 SUBFEOJ     128 00000038 FFFFFFD8        10997 26653M 27368M 30532  30596M
 SUBFLAG       1 00000038 FFFFFFD8     R   10993 10997
 SUBFLAGS      1 00000014 FFFFFFD8     R   10960 10964  10969  10974
 SUBJBNO       2 0000003A FFFFFFD8     H   11001 27383  30589M
 SUBMDCBL      4 000000F4 FFFFFFD8     A   11201 11202  11203  30416
 SUBMIT        2 000044B4 00000001     I   30295 12856
 SUBRADDR      4 0000002C FFFFFFD8     A   10986 12230
 SUBRPL        4 00000088 FFFFFFD8     F   11057 11207  30365  30538  30546
 SUBRSC    16668 00000000 FFFFFFD8     J   11223 12161U 12410U 26640U 27345U 28390U 28566U 30316U
 SUBRSG        1 00000000 00000004     T   12857 12857
 SUBTCB        4 00000020 FFFFFFD8     A   10981 12258M 12425M 12425  12434  12449M 12449
 SUBTECB       4 00000024 FFFFFFD8     A   10983 12218  12441  12454M 12454
 SUBTEMP       8 00000030 FFFFFFD8     C   10989 30546M 30547M 30557
 SUBTSCBL      4 000000D4 FFFFFFD8     A   11157 11158
 SUBWECB       4 00000028 FFFFFFD8     A   10984 28573  30329  30608M 30608
 SUBWLOOP      4 000044C6 00000001     I   30327 30615B
 SUBWORK       2 00003FDC 00000001     H   28523 28140  30265
 SUB1ACTV    128 00000014 FFFFFFD8        10964 28599M
 TRC           1 00000000 00000000 A   T    2126  2126
 TSTAT         1 00000000 00000020     T   18394 18394
 TTYFLAG       1 00000004 FFFFFFEA     R    6214  6218
1JES      (JES2010) (12:47) (15MAR04) Ordinary Symbol and Literal Cross Reference                                           Page  114
 TTYMAX#       1 00000006 FFFFFFEA A   U    6270  6271
 TTYTFLAG      1 00000005 FFFFFFEA     R    6224  6228   6233   6238   6243   6248   6253   6258
 UPPTBL        1 00000000 00000000 A   T    2189  2189
 USEFJES2      1 00000080 FFFFFFE1 A   U    8842 12782
 USEHSPFL      1 00000004 FFFFFFE1     X    8831 12803
 USERCVT     863 00000000 FFFFFFE1     J    8903 12750U 12765
 USESYSFL      1 00000005 FFFFFFE1     X    8841 12784
 WAITER        1 00000000 0000002B     T   28138 28138
 WAR           8 00000008 00000001 A   #    1026 11622M 12288  12318M 12487  12517M 12639  12672M 12834  12896M 14352
                                                 14767M 14809  14834M 14876  14901M 14946  14971M 15130  15155M 15191
                                                 15216M 15252  15277M 15313  15338M 15379  15404M 15445  15470M 15512
                                                 15537M 15578  15612M 15651  15676M 15712  15860M 15911  15955M 16007
                                                 16048M 16169  16226M 16607  16644M 16779  16849M 18120  18429M 18468
                                                 18493M 18652  18677M 18813  18838M 18935  18960M 19057  19085M 19257
                                                 19332M 19568  19753M 20260  20810M 20851  20876M 20921  20946M 20992
                                                 21017M 21063  21088M 21133  21158M 21207  21232M 21282  21307M 21356
                                                 21381M 21431  21456M 21509  21534M 21588  21613M 21837  21862M 22004
                                                 22029M 22175  22200M 22341  22366M 22553  22578M 22770  22795M 22843
                                                 22868M 22910  22935M 22980  23005M 23051  23076M 23121  23146M 23192
                                                 23217M 23267  23292M 23357  23382M 23451  23476M 23546  23585M 23633
                                                 23659M 24945  24971M 25341  25451M 25542  25580M 25784  26601M 26946
                                                 26984M 27162  27208M 27255  27289M 27495  27525M 27829  27875M 28084
                                                 28095  28192M 28503  28533M 28659  29665M 29860  29913M 30234
 WTOSG         1 00000000 00000000 A   T    2086  2086
 WYLJES        1 00000000 00000001     J     990   992   1008   1021   1034   1046   1059   1072   1085   1098   1111
                                                  1124   2370   2454   6194   6306   6368   6415   6649  10747  10766
                                                 10937  11224  11330  11364  11409  11597
 WYLPRT        4 0000193C 00000001     F   18138 18389
 XSSI9552      1 000036BC 00000001     U   25741 25737B
 ZEROBLKB      2 0000126C 00000001     H   15850 15746
 =A(BASE)      4 0000151C 00000001     A   16807 16529  16701
 =A(CHKKEY)
               4 0000107C 00000001     A   15756 13337
 =A(CHKKEY)
               4 00001BD8 00000001     A   18391 17090
 =A(CVRHCM)
               4 00003DFC 00000001     A   28145 27999
 =A(CVRSUB)
               4 00003DF8 00000001     A   28144 27964
 =A(DESTCHK)
               4 00003DA0 00000001     A   28122 25479
 =A(DESTVER)
               4 00003464 00000001     A   25369 22159
 =A(DOBLKB)
               4 00001048 00000001     A   15751 13129
 =A(DOBLKB)
               4 00001BD4 00000001     A   18390 17081
 =A(FETPRT)
               4 00001044 00000001     A   15750 13107
 =A(FETPRT2)
               4 000010BC 00000001     A   15772 15090
 =A(FETSKIP)
               4 000010C0 00000001     A   15773 15639
 =A(HCBTEXTL)
               4 00001514 00000001     A   16805 16478  16490
 =A(HCBTEXTL)
               4 00002070 00000001     A   19593 19512  19524
 =A(JACCTPRT)
               4 00001F5C 00000001     A   19285 18612
1JES      (JES2010) (12:47) (15MAR04) Ordinary Symbol and Literal Cross Reference                                           Page  115
 =A(JESCHK)
               4 00000380 00000001     A   12859 12544
 =A(JESCHK)
               4 000034A4 00000001     A   25385 24858
 =A(JESCHK)
               4 00003DC8 00000001     A   28132 26702
 =A(JESCOM)
               4 00001088 00000001     A   15759 13393
 =A(JESCOM)
               4 00001BE0 00000001     A   18393 17099
 =A(JESDISP)
               4 00003480 00000001     A   25376 23616
 =A(JESDISP2)
               4 00003484 00000001     A   25377 23620
 =A(JESICLS)
               4 000010B4 00000001     A   15770 14219  14310
 =A(JESICLS)
               4 00001C00 00000001     A   18401 18087
 =A(JESIOPN)
               4 00001084 00000001     A   15758 13389
 =A(JESIOPN)
               4 00001BDC 00000001     A   18392 17095
 =A(JESNCOM)
               4 00003448 00000001     A   25362 21497  21576
 =A(JESOCLS)
               4 00003DE4 00000001     A   28139 27243
 =A(JESOK)
               4 00001028 00000001     A   15743 12944
 =A(JESOK)
               4 00001500 00000001     A   16800 16253
 =A(JESOOPN)
               4 00004464 00000001     A   30262 28362
 =A(JESPRT)
               4 00002770 00000001     A   20776 19823
 =A(JESRD)
               4 0000108C 00000001     A   15760 13481
 =A(JESRD)
               4 00001BE8 00000001     A   18395 17131
 =A(JESRD)
               4 00003DF0 00000001     A   28142 27686
 =A(JESRTN)
               4 00001518 00000001     A   16806 16500  16672
 =A(JESWR)
               4 00003DD4 00000001     A   28135 26855  27239
 =A(JOBKWCHK)
               4 00001F70 00000001     A   19290 19227
 =A(JWAINIT)
               4 0000102C 00000001     A   15744 12962
 =A(JWAINIT)
               4 00001BC0 00000001     A   18385 16898
 =A(L'JESJBIN)
               4 00003468 00000001     A   25370 22307
 =A(L'JESJDEST)
               4 00003460 00000001     A   25368 22136
 =A(L'JESJFORM)
               4 0000346C 00000001     A   25371 22473
 =A(L'JESJPFX)
               4 00003474 00000001     A   25373 22685
 =A(L'JESJSYS)
1JES      (JES2010) (12:47) (15MAR04) Ordinary Symbol and Literal Cross Reference                                           Page  116
               4 0000345C 00000001     A   25367 21969
 =A(L'SUBBUFR)
               4 0000446C 00000001     A   30264 28430
 =A(MARKBLKB)
               4 00001040 00000001     A   15749 13031  13088  15043
 =A(MARKBLKB)
               4 00001BCC 00000001     A   18388 17000  17040
 =A(MARKBLKB)
               4 00001F50 00000001     A   19282 18456  18565  18704  18865  18987
 =A(PATHSTAT)
               4 00003DD8 00000001     A   28136 27111  27145  27725
 =A(PATHSTAT)
               4 00004478 00000001     A   30267 28807  29558  29765  29843
 =A(RSC)       4 00003DC4 00000001     A   28131 26629  27048
 =A(SUBMIT)
               4 00000374 00000001     A   12856 12080
 =A(SUBWORK)
               4 00003DE8 00000001     A   28140 27371
 =A(SUBWORK)
               4 00004470 00000001     A   30265 28438
 =A(WYLPRT)
               4 00001BD0 00000001     A   18389 17059
 =A(X'01')
               4 000010A0 00000001     A   15765 13808
 =A(ZEROBLKB)
               4 00001034 00000001     A   15746 12969
 =A(1)         4 0000133C 00000001     A   16195 16152
 =A(1)         4 000034B0 00000001     A   25388 25295
 =A(1)         4 0000447C 00000001     A   30268 29312
 =A(2)         4 00001F6C 00000001     A   19289 19029
 =A(235)       4 00001098 00000001     A   15763 13542  13554
 =A(235-1)
               4 0000109C 00000001     A   15764 13583  13595
 =A(255)       4 00004468 00000001     A   30263 28399  28411
 =A(3)         4 00001F68 00000001     A   19288 18907
 =A(4)         4 000034AC 00000001     A   25387 25054
 =A(4)         4 00003DDC 00000001     A   28137 27125
 =A(6)         4 00001F60 00000001     A   19286 18721
 =A(6)         4 00003454 00000001     A   25365 21706
 =A(8)         4 00003DA8 00000001     A   28124 25654  25666
 =AL2(-1)      2 000034D0 00000001     R   25396 24452
 =AL2(HCBTEXT-HRDWSTRT)
               2 00002076 00000001     R   19595 19552
 =C' by '      4 00002788 00000001     C   20782 19996
 =C' command, path not active.'
              26 0000152C 00000001     C   16813 16594  16766
 =C' is an unknown destination.'
              27 00003E26 00000001     C   28151 25525
 =C' is not valid.'
              14 00003E08 00000001     C   28148 26017
 =C' is not yours.'
              14 00003E16 00000001     C   28149 26451
 =C'.'         1 000027C5 00000001     C   20789 20036
 =C'.'         1 0000357A 00000001     C   25409 24009
 =C'.'         1 00003E46 00000001     C   28153 25973  26405  26535
 =C'&&'        1 00001F7A 00000001     C   19294 18882
 =C'*****'
               5 00002078 00000001     C   19596 19453
 =C'- JES options ('
1JES      (JES2010) (12:47) (15MAR04) Ordinary Symbol and Literal Cross Reference                                           Page  117
              15 0000359E 00000001     C   25415 24800
 =C'-'         1 000035D5 00000001     C   25418 25165
 =C'/*EOF'
               5 00003EB1 00000001     C   28158 26851
 =C'/*PURGE'
               7 00003EF6 00000001     C   28161 27235
 =C','         1 000035D6 00000001     C   25419 25291
 =C': invalid characters in prefix.'
              31 0000354F 00000001     C   25406 22749
 =C'='         1 00003579 00000001     C   25408 23961
 =C'"*'        2 00003502 00000001     C   25401 25133
 =C'"='        2 00003504 00000001     C   25402 25231
 =C'"APPEND" and "TO" operands conflict.'
              36 00001058 00000001     C   15755 13323
 =C'disabled.'
               9 000027B5 00000001     C   20787 19898
 =C'disabled'
               8 00002768 00000001     C   20775 19966
 =C'enabled.'
               8 00002760 00000001     C   20774 19878
 =C'enabled'
               7 000027BE 00000001     C   20788 19946
 =C'is available.)'
              14 000034DE 00000001     C   25399 24862
 =C'is not active. '
              15 00003E6C 00000001     C   28155 26762
 =C'is not active.)'
              15 000035C6 00000001     C   25417 24905
 =C'is not active.'
              14 0000039C 00000001     C   12865 12622
 =C'is not available, command aborted.'
              34 0000448A 00000001     C   30272 29593
 =C'job submission disabled.)'
              25 000035AD 00000001     C   25416 24882
 =C'line-number too big (specify BY).'
              33 000010EC 00000001     C   15780 13264
 =C'path not active.'
              16 00001018 00000001     C   15742 13429
 =C'queued.'
               7 00003F04 00000001     C   28163 28042
 =C'Account '
               8 00003D58 00000001     C   28116 25927  26359
 =C'BIN='      4 000034A0 00000001     C   25384 24681
 =C'Can''t open submit path.  '
              25 00003E7B 00000001     C   28156 26823
 =C'Command can not be executed because'
              35 000003B8 00000001     C   12868 12561
 =C'Command may not change the ACTIVE file.'
              39 00001C0C 00000001     C   18406 17179
 =C'COUNT='
               6 000034D2 00000001     C   25397 24462
 =C'DEBUG '
               6 000034BA 00000001     C   25391 23704
 =C'DEST='
               5 00003599 00000001     C   25414 24613
 =C'DEVWYL'
               6 00000396 00000001     C   12864 11864
 =C'ENCINA  '
               8 00003D48 00000001     C   28114 25615
1JES      (JES2010) (12:47) (15MAR04) Ordinary Symbol and Literal Cross Reference                                           Page  118
 =C'FETCH aborted.'
              14 000010DC 00000001     C   15778 14288
 =C'FORMS='
               6 000034D8 00000001     C   25398 24749
 =C'HOLD'      4 0000348C 00000001     C   25379 24149
 =C'Job access not permitted for account '
              37 00003E47 00000001     C   28154 26489
 =C'Job submission blocked by user.'
              31 00003ED7 00000001     C   28160 26928
 =C'Job submission has been disabled.'
              33 00003EB6 00000001     C   28159 26882
 =C'Job submission has been'
              23 0000279E 00000001     C   20786 19862
 =C'Job submission is not available.'
              32 00003D70 00000001     C   28119 26781
 =C'Job submission not available.'
              29 00003E94 00000001     C   28157 26842
 =C'Job submission'
              14 0000278E 00000001     C   20784 19932
 =C'JES '      4 00003E00 00000001     C   28146 28008
 =C'JOBNAME=ANY'
              11 00003580 00000001     C   25411 24264
 =C'JPR'       3 00001546 00000001     C   16814 16269
 =C'Known JES2 jobnumbers:'
              22 000034EC 00000001     C   25400 25016
 =C'Line-number too big (specify BY).'
              33 0000111E 00000001     C   15782 14171
 =C'LOC'       3 00001C33 00000001     C   18407 17647
 =C'LOC'       3 00001F7B 00000001     C   19295 19173
 =C'LPR'       3 0000207D 00000001     C   19597 19490
 =C'No lines fetched, '
              18 000010C8 00000001     C   15776 13246
 =C'No lines fetched,'
              17 0000110D 00000001     C   15781 13305
 =C'NO'        2 000034C6 00000001     C   25393 23833  23905  24127  24203
 =C'NOTIFY'
               6 000034C8 00000001     C   25394 23927
 =C'NUMBERED'
               8 00003440 00000001     C   25361 24340
 =C'PINE '
               5 00003E41 00000001     C   28152 25637
 =C'PREFIX='
               7 0000358B 00000001     C   25412 24379
 =C'PRINTER='
               8 000014E0 00000001     C   16797 16370
 =C'PRIVILEGED '
              11 0000356E 00000001     C   25407 23742
 =C'RUN '      4 00003488 00000001     C   25378 23855
 =C'SCIP'      4 0000038C 00000001     C   12862 12765
 =C'SEL'       3 00003506 00000001     C   25403 22504
 =C'SELF is not a forms code.  '
              27 00003509 00000001     C   25404 22514
 =C'SERVWYL'
               7 000003B1 00000001     C   12867 11844
 =C'SHO'       3 00001C36 00000001     C   18408 17667
 =C'SUBMIT '
               7 00003EFD 00000001     C   28162 27973
 =C'SYSAFF='
               7 00003592 00000001     C   25413 24545
1JES      (JES2010) (12:47) (15MAR04) Ordinary Symbol and Literal Cross Reference                                           Page  119
 =C'TERSE '
               6 000034C0 00000001     C   25392 23782
 =C'TESTWYL'
               7 000003AA 00000001     C   12866 11824
 =C'Unable to process FETCH command,'
              32 00000FF0 00000001     C   15740 13410
 =C'Unable to send '
              15 00001549 00000001     C   16815 16547  16719
 =C'Use CC or MC option instead of CONTROL.'
              39 0000113F 00000001     C   15783 14796
 =C'Use DEST=SELF for the self-service printer.'
              43 00003524 00000001     C   25405 22532
 =C'UN'        2 000034CE 00000001     C   25395 24318
 =C'VERBOSE '
               8 00003438 00000001     C   25360 23762
 =C'WYLBUR'
               6 00000390 00000001     C   12863 11804
 =C'XHOLD'
               5 0000357B 00000001     C   25410 24225
 =C'00000'
               5 000046A8 00000001     C   30646 30547
 =CL(L'CPATITL)'Fetched job output'
              80 00000FA0 00000001     C   15739 13374
 =CL16'SYS.LPRINTER'
              16 000014E8 00000001     C   16798 16386
 =CL8'FETCHED'
               8 00000F98 00000001     C   15738 13373
 =CL8'INVCHARS'
               8 00003430 00000001     C   25359 22746
 =CL8'INVDEST'
               8 00003D40 00000001     C   28113 25522
 =CL8'JESDOWN'
               8 00001010 00000001     C   15741 13426
 =CL8'JESDOWN'
               8 000014F8 00000001     C   16799 16591  16763
 =CL8'LOCAL'
               8 00003D50 00000001     C   28115 25622  25644
 =CL8'NOJES'
               8 00000360 00000001     C   12852 12619
 =CL8'NOJOBACS'
               8 00003D60 00000001     C   28117 26551
 =CL8'NORUN'
               8 00003D68 00000001     C   28118 26778  26839
 =CL8'NOSYSRUN'
               8 00003D90 00000001     C   28120 26879
 =CL8'NOUSRRUN'
               8 00003D98 00000001     C   28121 26925
 =F'-1'        4 00001030 00000001     F   15745 12965
 =F'11'        4 000010AC 00000001     F   15768 14105
 =F'8192'      4 00000370 00000001     F   12855 11995
 =H'-1'        2 0000279C 00000001     H   20785 20237
 =H'-4'        2 00001C06 00000001     H   18403 17113
 =H'-4'        2 000044AC 00000001     H   30273 29614  29950
 =H'1'         2 000010C6 00000001     H   15775 13206  13886
 =V(ADDER)
               4 0000104C 00000001     V   15752 13165  14095  14159
 =V(AMODE24)
               4 00003DAC 00000001     V   28125 25718
 =V(AMODE31)
1JES      (JES2010) (12:47) (15MAR04) Ordinary Symbol and Literal Cross Reference                                           Page  120
               4 00003DB0 00000001     V   28126 25745
 =V(BTD)       4 00003498 00000001     V   25382 24493  25197  25263
 =V(CHARCHKA)
               4 00003478 00000001     V   25374 22707
 =V(CHKKW)
               4 00003DC0 00000001     V   28130 26477
 =V(CLRTEXT)
               4 00001080 00000001     V   15757 13371
 =V(COLLOPTS)
               4 0000347C 00000001     V   25375 23612
 =V(CV)        4 000046A0 00000001     V   30644 30307
 =V(CVEXNO)
               4 000010A8 00000001     V   15767 14089
 =V(DISPATCH)
               4 00004474 00000001     V   30266 28626  29022
 =V(DQRSC)
               4 0000037C 00000001     V   12858 12204
 =V(DTB)       4 000046A4 00000001     V   30645 30567
 =V(FREERSC)
               4 00003DEC 00000001     V   28141 27404  27749
 =V(GETDATA)
               4 00001510 00000001     V   16804 16389
 =V(GETRSC)
               4 00000368 00000001     V   12853 11908
 =V(GETRSC)
               4 00003DF4 00000001     V   28143 27915  28076
 =V(HCMRSG)
               4 0000036C 00000001     V   12854 11926
 =V(KWIO)      4 00003DB4 00000001     V   28127 25886
 =V(LASTLINE)
               4 000010B8 00000001     V   15771 14304
 =V(LRTRIM)
               4 00000388 00000001     V   12861 12591
 =V(LRTRIM)
               4 00003494 00000001     V   25381 24409  24830
 =V(LRTRIM)
               4 00003DCC 00000001     V   28133 26732
 =V(NOTVALID)
               4 00001F64 00000001     V   19287 18730  18799  18916  19038
 =V(NOTVALID)
               4 00003458 00000001     V   25366 21927  21952  21978  22094  22119  22145  22265  22290  22316  22431
                                                 22456  22482  22643  22668  22694  23335  23425  23519
 =V(NSCAN)
               4 00001038 00000001     V   15747 13013  13053  13111  15020  15094
 =V(NSCAN)
               4 00001BC4 00000001     V   18386 16982  17022  17063
 =V(NSCAN)
               4 00001F54 00000001     V   19283 18542  18616
 =V(NSCAN)
               4 00002774 00000001     V   20777 19827
 =V(NSCAN)
               4 0000344C 00000001     V   25363 21665
 =V(PFREEA)
               4 00001094 00000001     V   15762 13531
 =V(PUTLINE)
               4 000010B0 00000001     V   15769 14153
 =V(SCANCHK)
               4 0000103C 00000001     V   15748 13027  13067  13125  15034  15108
 =V(SCANCHK)
1JES      (JES2010) (12:47) (15MAR04) Ordinary Symbol and Literal Cross Reference                                           Page  121
               4 00001BC8 00000001     V   18387 16996  17036  17077
 =V(SCANCHK)
               4 00001F58 00000001     V   19284 18556  18630
 =V(SCANCHK)
               4 00002778 00000001     V   20778 19841
 =V(SCANCHK)
               4 00003450 00000001     V   25364 21679
 =V(SEG)       4 00001050 00000001     V   15753 13258
 =V(SEG)       4 0000150C 00000001     V   16803 16380  16434  16559  16731
 =V(SEG)       4 00001BF0 00000001     V   18397 17310  17360  17387  17415  17543  17856  17903
 =V(SEG)       4 00002784 00000001     V   20781 19942  19991  20006  20031  20046  20071
 =V(SEG)       4 00003470 00000001     V   25372 22526  22742  23716  23754  23810  23845  23867  23917  23939  23973
                                                 24003  24021  24051  24085  24139  24215  24330  24391  24474  24557
                                                 24625  24693  24761  24812  25145  25177  25221  25243  25287
 =V(SEG)       4 00003DB8 00000001     V   28128 25939  25967  25985  26013  26371  26399  26417  26445  26501  26529
                                                 26547  26835  28036
 =V(SEGB)      4 00000384 00000001     V   12860 12573  12615
 =V(SEGB)      4 00001054 00000001     V   15754 13317  13422
 =V(SEGB)      4 0000277C 00000001     V   20779 19874
 =V(SEGB)      4 00003490 00000001     V   25380 24161  24237  24276  24352  24433  24517  24854  25028  25123
 =V(SEGB)      4 00003DD0 00000001     V   28134 26756  26774
 =V(SEGCR)
               4 00001090 00000001     V   15761 13524  14132  14196  14278  14300
 =V(SEGCR)
               4 00001BF8 00000001     V   18399 17587
 =V(SEGCR)
               4 000034A8 00000001     V   25386 24933
 =V(SEGCR)
               4 00003DBC 00000001     V   28129 26463
 =V(SEGCR)
               4 00004484 00000001     V   30270 29605
 =V(SEGINIT)
               4 00001504 00000001     V   16801 16340
 =V(SEGMARK)
               4 00001BF4 00000001     V   18398 17429  17557  17925
 =V(SEGT)      4 00001520 00000001     V   16808 16587  16759
 =V(SEGT)      4 00003DA4 00000001     V   28123 25518
 =V(SEGTB)
               4 00001508 00000001     V   16802 16365
 =V(SEGTB)
               4 0000349C 00000001     V   25383 24585  24653  24721  24789
 =V(SEGTB)
               4 00004480 00000001     V   30269 29587
 =V(SEGWR)
               4 00001BFC 00000001     V   18400 17777  17950
 =V(SEGWR)
               4 00002780 00000001     V   20780 19926  20094
 =V(SEGWR)
               4 000034B4 00000001     V   25389 25325
 =V(SEGWR)
               4 00003E04 00000001     V   28147 28054
 =V(SEGWR)
               4 00004460 00000001     V   30261 28289
 =V(SQSHRTN)
               4 000010A4 00000001     V   15766 14009
 =V(SQSHRTN)
               4 00001BEC 00000001     V   18396 17152
 =V(SUBRSG)
               4 00000378 00000001     V   12857 12086  12343
1JES      (JES2010) (12:47) (15MAR04) Ordinary Symbol and Literal Cross Reference                                           Page  122
 =V(TSTAT)
               4 00001BE4 00000001     V   18394 17125
 =V(WAITER)
               4 00003DE0 00000001     V   28138 27139
 =X'FF000000'
               4 00001338 00000001     X   16194 15994
 =Y((L'CPCMD+3)/4*4)
               2 0000152A 00000001     Y   16812 16456
 =Y((L'KWR+3)/4*4)
               2 00001F78 00000001     Y   19293 19234
 =Y((L'NSCNCB+3)/4*4)
               2 000010EA 00000001     Y   15779 15114
 =Y((L'NSCNCB+3)/4*4)
               2 00001F76 00000001     Y   19292 18636
 =Y((L'SEGCB+3)/4*4)
               2 00001528 00000001     Y   16811 16453
 =Y((R1+1-(R0)+16*((R0)/(R1+1))/((R0)/(R1+1)))*4)
               2 000010DA 00000001     Y   15777 14100
 =Y((R1+1-(R0)+16*((R0)/(R1+1))/((R0)/(R1+1)))*4)
               2 00001C08 00000001     Y   18404 17313  17363  17906
 =Y((R1+1-(R0)+16*((R0)/(R1+1))/((R0)/(R1+1)))*4)
               2 00002074 00000001     Y   19594 19508
 =Y((R1+1-(R0)+16*((R0)/(R1+1))/((R0)/(R1+1)))*4)
               2 00004488 00000001     Y   30271 28365
 =Y((12+3)/4*4)
               2 000010C4 00000001     Y   15774 13019  13059  13117  15026  15100
 =Y((12+3)/4*4)
               2 00001C04 00000001     Y   18402 16988  17028  17069
 =Y((12+3)/4*4)
               2 00001F74 00000001     Y   19291 18548  18622
 =Y((12+3)/4*4)
               2 0000278C 00000001     Y   20783 19833
 =Y((12+3)/4*4)
               2 000034B8 00000001     Y   25390 21671
 =Y((235+3)/4*4)
               2 00001526 00000001     Y   16810 16443
 =Y(L'CPCMD-20)
               2 00001524 00000001     Y   16809 16286
 =Y(4)         2 00001C0A 00000001     Y   18405 18103
 =Y(4)         2 00003E24 00000001     Y   28150 27944  28062

1JES      (JES2010) (12:47) (15MAR04) Macro and Copy Code Source Summary                                                    Page  123
- Con Source                                        Volume    Members                        HLASM R4.0  2004/03/15 12.47
0     PRIMARY INPUT                                           CSECT    DROP     END      EX       LTORG    POP
                                                              PRINT    PUSH     START    USING
   L1 WYL.GS.WYL.WYLBUR.MACLIB                      SYSB05    ABORT    AINFO    BASE     BOMB     BTD      COLINFO
                                                              COMMENT  CONTROL  CP       CPLOCAL  CV       CVLOCAL
                                                              DQRSC    DTB      ERROR    FAIL     FREERSC  GETRSC
                                                              HCMRSC   JCB      KAPUT    KREAD    PAUSE    PFREE    RG
                                                              RSCGROUP RSCHDR   SCAN     SCANCB   SCANCHK  SCBKUP
                                                              SCCBADR  SCINIT   SCKW     SCPOP    SCPUSH   SCUPTOK
                                                              SEGINIT  SUBRSC   TCCR     TMARK    TSEG     TSTAT
                                                              TTYPE    TWRITE   VLTORG   XENTER   XEXIT    XSA
                                                              XTRACE   XWTO
   L2 WYL.GG.SYS.MACLIB                             SYSB05    $BC      $BFLKUP  $BV      $CCLKUP  $CRS     $CSS     $L
                                                              $LA      $LBLAD   $LEXP    $LOR     $REL     $RGLKUP
                                                              $USLKUP  ACALL    BEGIN    CEIL     CLEAR    COMPROC
                                                              CSECT    DATA     DECR     DEFCC    DEX      DROP     DTEX
                                                              ELSE     ELSEIF   END      EX       EXIT     FLAG     GEN
                                                              HIBAL    IDENT    IF       INCR     LABEL    LC       LCM
                                                              LOOP     LS       LT       LTORG    L2       MOVE     NEXT
                                                              PEND     POP      PRETURN  PRINT    PROC     PUSH
                                                              QLTORG   RECORD   REG      REGS     SET      SETMSG
                                                              START    ST2      SYSLR    UNTIL    USING    VCALL
                                                              WHILE    WITH     XPROC
   L3 SYS3.IS.MACLIB                                SYSB05    $LRC     DEFINE   HCB      HRB      KWR      SEG
                                                              SEGCB    SEGCR    SEGDEF   SEGLD    SEGMARK  SEGTB
                                                              SEGWR    SIB      SYSDEFN  XPOP     XPUSH
   L4 SYS3.MACLIB                                   SYSB02    HASPSERV PATH     RDW      SCIPCVT  SCOM     USERCVT
                                                              UTYPDEFN
   L5 SYS1.MACLIB                                   MVSBR9    ABEND    ACB      ACBVS    ATTACH   CHAP     CLOSE    CVT
                                                              DCBD     DETACH   ENDREQ   IDACBACB IDACBEXL IDACBOPT
                                                              IDACBRPL IDACB1   IDACB2   IDACB3   IDAVSACB IDAVSCB3
                                                              IDAVSOPT IDAVSRPL IDENTIFY IEFJESCT IEFJSSIB IEFSSREQ
                                                              IHBERMAC IHBINNRA IHBINNRR IHBOPLTX MODCB    MODESET  OPEN
                                                              POST     PUT      RPL      RPLVS    SPLEVEL  SYSSTATE
                                                              TESTCB   WAIT
   L6 SYS1.MODGEN                                   MVSBR9    IFGACB   IFGACBVS IFGRPL   IFGRPLVS

1JES      (JES2010) (12:47) (15MAR04) Dsect Cross Reference                                                                 Page  124
-Dsect     Length      Id       Defn                                                         HLASM R4.0  2004/03/15 12.47
0$$$@R0   00000000  FFFFFFFE     705
 $$$@R1   00000000  FFFFFFFD     718
 $$$@R10  00000000  FFFFFFF4     835
 $$$@R11  00000000  FFFFFFF3     848
 $$$@R12  00000000  FFFFFFF2     861
 $$$@R13  00000000  FFFFFFF1     874
 $$$@R14  00000000  FFFFFFF0     887
 $$$@R15  00000000  FFFFFFEF     900
 $$$@R2   00000000  FFFFFFFC     731
 $$$@R3   00000000  FFFFFFFB     744
 $$$@R4   00000000  FFFFFFFA     757
 $$$@R5   00000000  FFFFFFF9     770
 $$$@R6   00000000  FFFFFFF8     783
 $$$@R7   00000000  FFFFFFF7     796
 $$$@R8   00000000  FFFFFFF6     809
 $$$@R9   00000000  FFFFFFF5     822
 $$$RCP   00001000  FFFFFFEC    2459
 $$$RCV   00000FB0  FFFFFFEE    1184
 $$$RDEV  0000000C  FFFFFFEB    4673
 $$$RHCMRSC
          00000068  FFFFFFD9   10804
 $$$RHRBDSECT
          00000016  FFFFFFD5   11369
 $$$RJCB  000000D0  FFFFFFDB   10467
 $$$RJESWA
          00000035  FFFFFFD3   19606
 $$$RJWA  00000258  FFFFFFD4   11414
 $$$RKWR  000001F8  FFFFFFE7    6443
 $$$RNSCNCB
          000000B0  FFFFFFED    2380
 $$$RRDWD 00000004  FFFFFFD6   11335
 $$$RRESOURCE
          00000018  FFFFFFE8    6373
 $$$RRSCGROUP
          0000003C  FFFFFFE9    6312
 $$$RSEGCB
          0000003C  FFFFFFD7   11229
 $$$RSUBRSC
          0000411C  FFFFFFD8   10943
 $$$RTTYPE
          0000010C  FFFFFFEA    6204
 $$$RUSERCVT
          0000035F  FFFFFFE1    8820
 CVT      00000500  FFFFFFE5    7681
 CVTVSTGX 00000050  FFFFFFE4    8701
 CVTXTNT1 0000000C  FFFFFFE3    8740
 CVTXTNT2 00000084  FFFFFFE2    8748
 HIBAL    00000000  FFFFFFFF     691
 IFGACB   0000004C  FFFFFFDD    9733
 IFGRPL   0000004C  FFFFFFDC   10062
 IHADCB   00000060  FFFFFFE6    6657
 JESCT    00000080  FFFFFFDF    9362
 JESPEXT  00000098  FFFFFFDE    9477
 LRCDSECT 00000006  FFFFFFDA   10753
 SSIB     00000024  FFFFFFE0    9011
1JES      (JES2010) (12:47) (15MAR04) Dsect Cross Reference                                                                 Page  125

1JES      (JES2010) (12:47) (15MAR04) Using Map                                                                             Page  126
-                                                                                            HLASM R4.0  2004/03/15 12.47
   Stmt  -----Location----- Action ----------------Using----------------- Reg Max    Last  Label and Using Text
           Count      Id           Type          Value    Range     Id        Disp   Stmt
0   922  00000000  FFFFFFFF USING  ORDINARY    00000000 00001000 FFFFFFEF  15 000          @R15,15
    926  00000000  FFFFFFFF USING  ORDINARY    00000000 00001000 FFFFFFF0  14 002    2175  @R14,14
    930  00000000  FFFFFFFF USING  ORDINARY    00000000 00001000 FFFFFFF1  13 000   30157  @R13,13
    934  00000000  FFFFFFFF USING  ORDINARY    00000000 00001000 FFFFFFF2  12 000          @R12,12
    938  00000000  FFFFFFFF USING  ORDINARY    00000000 00001000 FFFFFFF3  11 000          @R11,11
    942  00000000  FFFFFFFF USING  ORDINARY    00000000 00001000 FFFFFFF4  10 000          @R10,10
    946  00000000  FFFFFFFF USING  ORDINARY    00000000 00001000 FFFFFFF5   9 000          @R9,9
    950  00000000  FFFFFFFF USING  ORDINARY    00000000 00001000 FFFFFFF6   8 000          @R8,8
    954  00000000  FFFFFFFF USING  ORDINARY    00000000 00001000 FFFFFFF7   7 000          @R7,7
    958  00000000  FFFFFFFF USING  ORDINARY    00000000 00001000 FFFFFFF8   6 13C   11727  @R6,6
    962  00000000  FFFFFFFF USING  ORDINARY    00000000 00001000 FFFFFFF9   5 000          @R5,5
    966  00000000  FFFFFFFF USING  ORDINARY    00000000 00001000 FFFFFFFA   4 000          @R4,4
    970  00000000  FFFFFFFF USING  ORDINARY    00000000 00001000 FFFFFFFB   3 000          @R3,3
    974  00000000  FFFFFFFF USING  ORDINARY    00000000 00001000 FFFFFFFC   2 000          @R2,2
    978  00000000  FFFFFFFF USING  ORDINARY    00000000 00001000 FFFFFFFD   1 004   19044  @R1,1
    982  00000000  FFFFFFFF USING  ORDINARY    00000000 00001000 FFFFFFFE   0 000          @R0,0
    983  00000000  FFFFFFFF DROP                                            0              0
   1168  00000016  00000001 USING  ORDINARY    00000000 00001000 FFFFFFEC  11 E14   29692  CP,CPR
   1177  00000016  00000001 USING  ORDINARY    00000000 00001000 FFFFFFEE  12 890   30192  CV,CVR
  11638  00000030  00000001 USING  ORDINARY    00000030 00001000 00000001   7 381   12267  $$$51B,7
  11737  00000066  00000001 USING  ORDINARY    00000000 00001000 FFFFFFE0   6 010   11744  SSIB,R6
  11751  00000078  00000001 USING  ORDINARY    00000000 00001000 FFFFFFF8   6 000          @R6,6
  11936  000000E2  00000001 USING  ORDINARY    00000000 00001000 FFFFFFE9   6 01C   11942  RSCGROUP,R6
  11949  000000E6  00000001 USING  ORDINARY    00000000 00001000 FFFFFFF8   6 000          @R6,6
  11959  000000E8  00000001 USING  ORDINARY    00000000 00001000 FFFFFFE8   2 000   11970  RESOURCE,R2
  11986  000000F2  00000001 USING  ORDINARY    00000000 00001000 FFFFFFFC   2 000          @R2,2
  11989  000000F2  00000001 USING  ORDINARY    00000000 00001000 FFFFFFD9   2 053   12051  HCMRSC,R2
  12061  0000013A  00000001 USING  ORDINARY    00000000 00001000 FFFFFFFC   2 000          @R2,2
  12064  0000013A  00000001 USING  ORDINARY    00000000 00001000 FFFFFFE8   2 000          RESOURCE,2
  12075  0000013E  00000001 USING  ORDINARY    00000000 00001000 FFFFFFFC   2 000          @R2,2
  12096  00000154  00000001 USING  ORDINARY    00000000 00001000 FFFFFFE9   6 01C   12210  RSCGROUP,R6
  12111  00000158  00000001 USING  ORDINARY    00000000 00001000 FFFFFFE8   4 000   12117  RESOURCE,R4
  12124  0000015C  00000001 USING  ORDINARY    00000000 00001000 FFFFFFFA   4 000          @R4,4
  12161  0000016A  00000001 USING  ORDINARY    00000000 00001000 FFFFFFD8   2 03C   12258  SUBRSC,R2
  12264  0000021A  00000001 USING  ORDINARY    00000000 00001000 FFFFFFFC   2 000          @R2,2
  12275  0000021E  00000001 USING  ORDINARY    00000000 00001000 FFFFFFF8   6 000          @R6,6
  12284  0000021E  00000001 USING  ORDINARY    00000000 00001000 FFFFFFF7   7 000          @R7,7
  12334  00000246  00000001 USING  ORDINARY    00000246 00001000 00000001   7 132   12467  $$$71B,7
  12353  0000024A  00000001 USING  ORDINARY    00000000 00001000 FFFFFFE9   6 01C   12358  RSCGROUP,R6
  12368  0000024E  00000001 USING  ORDINARY    00000000 00001000 FFFFFFE8   4 000   12374  RESOURCE,R4
  12381  00000252  00000001 USING  ORDINARY    00000000 00001000 FFFFFFFA   4 000   16437  @R4,4
  12410  0000025A  00000001 USING  ORDINARY    00000000 00001000 FFFFFFD8   2 024   12454  SUBRSC,R2
  12464  00000284  00000001 USING  ORDINARY    00000000 00001000 FFFFFFFC   2 001   30363  @R2,2
  12475  00000288  00000001 USING  ORDINARY    00000000 00001000 FFFFFFF8   6 000          @R6,6
  12483  00000288  00000001 USING  ORDINARY    00000000 00001000 FFFFFFF7   7 000          @R7,7
  12533  000002B0  00000001 USING  ORDINARY    000002B0 00001000 00000001   7 108   12622  $$$77B,7
  12635  000002F6  00000001 USING  ORDINARY    00000000 00001000 FFFFFFF7   7 000          @R7,7
  12688  0000031E  00000001 USING  ORDINARY    0000031E 00001000 00000001   7 06E   12804  $$$81B,7
  12712  00000324  00000001 USING  ORDINARY    00000000 00001000 FFFFFFE5   6 0CC   12718  CVT,R6
  12725  00000328  00000001 USING  ORDINARY    00000000 00001000 FFFFFFF8   6 000          @R6,6
  12750  0000032E  00000001 USING  ORDINARY    00000000 00001000 FFFFFFE1   5 005   12803  USERCVT,R5
  12820  0000034C  00000001 USING  ORDINARY    00000000 00001000 FFFFFFF9   5 000          @R5,5
  12830  0000034C  00000001 USING  ORDINARY    00000000 00001000 FFFFFFF7   7 000          @R7,7
1JES      (JES2010) (12:47) (15MAR04) Using Map                                                                             Page  127
  12912  000003F6  00000001 USING  ORDINARY    000003F6 00001000 00000001   7 D76   14310  $$$90B,7
  12926  000003F6  00000001 USING  ORDINARY    FFFFFFD8 00001000 FFFFFFD4   8 028   12930  JWA-(4+36),R8
  12938  000003FA  00000001 USING  ORDINARY    00000000 00001000 FFFFFFD4   6 15E   15595  JWA,R6
  13447  00000650  00000001 USING  ORDINARY    00000000 00001000 FFFFFFDB  15 062   13462  JCB,R15
  13477  00000658  00000001 USING  ORDINARY    00000000 00001000 FFFFFFEF  15 000          @R15,15
  13778  0000070A  00000001 DROP                                           15              15
  13782  00000710  00000001 USING  ORDINARY    00000000 00001000 FFFFFFEF  15 000   13818  @R15,15
  14343  00000894  00000001 USING  ORDINARY    00000000 00001000 FFFFFFF6   8 000          @R8,8
  14348  00000894  00000001 USING  ORDINARY    00000000 00001000 FFFFFFF7   7 000          @R7,7
  14378  000008A4  00000001 USING  ORDINARY    000008A4 00001000 00000001   7 000          $$$150B,7
  14387  000008A6  00000001 USING  ORDINARY    00000000 00001000 FFFFFFF7   7 000          @R7,7
  14783  00000C82  00000001 USING  ORDINARY    00000C82 00001000 00000001   7 4BD   14796  $$$152B,7
  14805  00000C8E  00000001 USING  ORDINARY    00000000 00001000 FFFFFFF7   7 000          @R7,7
  14850  00000CB6  00000001 USING  ORDINARY    00000CB6 00001000 00000001   7 000          $$$155B,7
  14872  00000CBA  00000001 USING  ORDINARY    00000000 00001000 FFFFFFF7   7 000          @R7,7
  14917  00000CE2  00000001 USING  ORDINARY    00000CE2 00001000 00000001   7 000          $$$159B,7
  14942  00000CE6  00000001 USING  ORDINARY    00000000 00001000 FFFFFFF7   7 000          @R7,7
  14987  00000D0E  00000001 USING  ORDINARY    00000D0E 00001000 00000001   7 3DC   15114  $$$164B,7
  15126  00000DF4  00000001 USING  ORDINARY    00000000 00001000 FFFFFFF7   7 000          @R7,7
  15171  00000E1C  00000001 USING  ORDINARY    00000E1C 00001000 00000001   7 000          $$$167B,7
  15187  00000E20  00000001 USING  ORDINARY    00000000 00001000 FFFFFFF7   7 000          @R7,7
  15232  00000E48  00000001 USING  ORDINARY    00000E48 00001000 00000001   7 000          $$$170B,7
  15248  00000E4C  00000001 USING  ORDINARY    00000000 00001000 FFFFFFF7   7 000          @R7,7
  15293  00000E74  00000001 USING  ORDINARY    00000E74 00001000 00000001   7 000          $$$173B,7
  15309  00000E78  00000001 USING  ORDINARY    00000000 00001000 FFFFFFF7   7 000          @R7,7
  15354  00000EA0  00000001 USING  ORDINARY    00000EA0 00001000 00000001   7 000          $$$176B,7
  15375  00000EA4  00000001 USING  ORDINARY    00000000 00001000 FFFFFFF7   7 000          @R7,7
  15420  00000ECC  00000001 USING  ORDINARY    00000ECC 00001000 00000001   7 000          $$$179B,7
  15441  00000ED0  00000001 USING  ORDINARY    00000000 00001000 FFFFFFF7   7 000          @R7,7
  15486  00000EF8  00000001 USING  ORDINARY    00000EF8 00001000 00000001   7 000          $$$182B,7
  15508  00000F00  00000001 USING  ORDINARY    00000000 00001000 FFFFFFF7   7 000          @R7,7
  15553  00000F28  00000001 USING  ORDINARY    00000F28 00001000 00000001   7 000          $$$185B,7
  15574  00000F2C  00000001 USING  ORDINARY    00000000 00001000 FFFFFFF7   7 000          @R7,7
  15628  00000F5A  00000001 USING  ORDINARY    00000F5A 00001000 00000001   7 166   15639  $$$188B,7
  15647  00000F60  00000001 USING  ORDINARY    00000000 00001000 FFFFFFF7   7 000          @R7,7
  15692  00000F88  00000001 USING  ORDINARY    00000F88 00001000 00000001   7 000          $$$191B,7
  15708  00000F88  00000001 USING  ORDINARY    00000000 00001000 FFFFFFF7   7 000          @R7,7
  15728  00000F96  00000001 USING  ORDINARY    00000000 00001000 FFFFFFF8   6 000          @R6,6
  15876  00001286  00000001 USING  ORDINARY    00001286 00001000 00000001   7 000          $$$194B,7
  15892  00001286  00000001 USING  ORDINARY    00000000 00001000 FFFFFFD4   6 058   15900  JWA,R6
  15907  0000128C  00000001 USING  ORDINARY    00000000 00001000 FFFFFFF7   7 000          @R7,7
  15926  0000129A  00000001 USING  ORDINARY    00000000 00001000 FFFFFFF8   6 000          @R6,6
  15971  000012B4  00000001 USING  ORDINARY    000012B4 00001000 00000001   7 084   15994  $$$197B,7
  15987  000012B4  00000001 USING  ORDINARY    00000000 00001000 FFFFFFD4   6 058   15991  JWA,R6
  16003  000012C6  00000001 USING  ORDINARY    00000000 00001000 FFFFFFF7   7 000          @R7,7
  16022  000012D4  00000001 USING  ORDINARY    00000000 00001000 FFFFFFF8   6 000          @R6,6
  16064  000012EE  00000001 USING  ORDINARY    000012EE 00001000 00000001   7 052   16156  $$$200B,7
  16080  000012EE  00000001 USING  ORDINARY    00000000 00001000 FFFFFFD4   6 058   16109  JWA,R6
  16165  00001324  00000001 USING  ORDINARY    00000000 00001000 FFFFFFF7   7 000          @R7,7
  16184  00001332  00000001 USING  ORDINARY    00000000 00001000 FFFFFFF8   6 000          @R6,6
  16242  00001360  00000001 USING  ORDINARY    00001360 00001000 00000001   7 1E6   16500  $$$208B,7
  16312  0000138C  00000001 USING  ORDINARY    00000000 00001000 FFFFFFD7   3 00E   16436  SEGCB,R3
  16450  000013F0  00000001 USING  ORDINARY    00000000 00001000 FFFFFFFB   3 000   28476  @R3,3
  16520  00001424  00000001 USING  ORDINARY    00000000 00001000 FFFFFFF7   7 000          @R7,7
  16523  00001424  00000001 USING  ORDINARY    00001424 00001000 00000001   7 0F8   16529  $$$214B,7
  16538  00001428  00000001 USING  ORDINARY    00000000 00001000 FFFFFFF7   7 000          @R7,7
  16541  00001428  00000001 USING  ORDINARY    000008A2 00001000 00000001   7 CA7   16594  BASE,7
  16603  0000145E  00000001 USING  ORDINARY    00000000 00001000 FFFFFFF7   7 000          @R7,7
  16660  00001486  00000001 USING  ORDINARY    00001486 00001000 00000001   7 092   16672  $$$217B,7
1JES      (JES2010) (12:47) (15MAR04) Using Map                                                                             Page  128
  16692  00001496  00000001 USING  ORDINARY    00000000 00001000 FFFFFFF7   7 000          @R7,7
  16695  00001496  00000001 USING  ORDINARY    00001496 00001000 00000001   7 086   16701  $$$218B,7
  16710  0000149A  00000001 USING  ORDINARY    00000000 00001000 FFFFFFF7   7 000          @R7,7
  16713  0000149A  00000001 USING  ORDINARY    000008A2 00001000 00000001   7 CA7   16766  BASE,7
  16775  000014D0  00000001 USING  ORDINARY    00000000 00001000 FFFFFFF7   7 000          @R7,7
  16865  00001572  00000001 USING  ORDINARY    00001572 00001000 00000001   7 6C4   18103  $$$221B,7
  16879  00001572  00000001 USING  ORDINARY    FFFFFFD8 00001000 FFFFFFD4   8 028   16884  JWA-(4+36),R8
  16892  00001578  00000001 USING  ORDINARY    00000000 00001000 FFFFFFD4   6 181   19207  JWA,R6
  17716  0000184A  00000001 USING  ORDINARY    00000000 00001000 FFFFFFDB   5 062   17994  JCB,R5
  18048  00001900  00000001 USING  ORDINARY    00000000 00001000 FFFFFFF9   5 000          @R5,5
  18063  00001904  00000001 USING  ORDINARY    00000000 00001000 FFFFFFDB   5 064   18078  JCB,R5
  18099  00001912  00000001 USING  ORDINARY    00000000 00001000 FFFFFFF9   5 000          @R5,5
  18111  0000191A  00000001 USING  ORDINARY    00000000 00001000 FFFFFFF6   8 000          @R8,8
  18116  0000191A  00000001 USING  ORDINARY    00000000 00001000 FFFFFFF7   7 000          @R7,7
  18445  00001C54  00000001 USING  ORDINARY    00001C54 00001000 00000001   7 2FC   18456  $$$255B,7
  18464  00001C5A  00000001 USING  ORDINARY    00000000 00001000 FFFFFFF7   7 000          @R7,7
  18509  00001C82  00000001 USING  ORDINARY    00001C82 00001000 00000001   7 2F4   18636  $$$258B,7
  18648  00001D68  00000001 USING  ORDINARY    00000000 00001000 FFFFFFF7   7 000          @R7,7
  18693  00001D90  00000001 USING  ORDINARY    00001D90 00001000 00000001   7 1D4   18799  $$$261B,7
  18809  00001DEA  00000001 USING  ORDINARY    00000000 00001000 FFFFFFF7   7 000          @R7,7
  18854  00001E12  00000001 USING  ORDINARY    00001E12 00001000 00000001   7 168   18916  $$$268B,7
  18931  00001E50  00000001 USING  ORDINARY    00000000 00001000 FFFFFFF7   7 000          @R7,7
  18976  00001E78  00000001 USING  ORDINARY    00001E78 00001000 00000001   7 0F4   19038  $$$273B,7
  19053  00001EB4  00000001 USING  ORDINARY    00000000 00001000 FFFFFFF7   7 000          @R7,7
  19101  00001EDC  00000001 USING  ORDINARY    00001EDC 00001000 00000001   7 09F   19234  $$$278B,7
  19194  00001F16  00000001 USING  ORDINARY    00000000 00001000 FFFFFFE7   1 100   19215  KWR,R1
  19241  00001F3E  00000001 USING  ORDINARY    00000000 00001000 FFFFFFFD   1 004   30308  @R1,1
  19253  00001F3E  00000001 USING  ORDINARY    00000000 00001000 FFFFFFF7   7 000          @R7,7
  19272  00001F4C  00000001 USING  ORDINARY    00000000 00001000 FFFFFFF8   6 000          @R6,6
  19348  00001F98  00000001 USING  ORDINARY    00001F98 00001000 00000001   7 0E8   19552  $$$286B,7
  19391  00001FB6  00000001 USING  ORDINARY    00000000 00001000 FFFFFFD4   6 220   19555  JWA,R6
  19419  00001FE0  00000001 USING  ORDINARY    00000000 00001000 FFFFFFDB   5 048   19425  JCB,R5
  19432  00001FE6  00000001 USING  ORDINARY    00000000 00001000 FFFFFFF9   5 000          @R5,5
  19564  00002062  00000001 USING  ORDINARY    00000000 00001000 FFFFFFF7   7 000          @R7,7
  19583  00002070  00000001 USING  ORDINARY    00000000 00001000 FFFFFFF8   6 000          @R6,6
  19769  000020A0  00000001 USING  ORDINARY    000020A0 00001000 00000001   7 725   20237  $$$297B,7
  19783  000020A0  00000001 USING  ORDINARY    FFFFFFD8 00001000 FFFFFFD3   8 028   19787  JESWA-(4+36),R8
  19795  000020A4  00000001 USING  ORDINARY    00000000 00001000 FFFFFFD3   6 033   23535  JESWA,R6
  20251  00002226  00000001 USING  ORDINARY    00000000 00001000 FFFFFFF6   8 000          @R8,8
  20256  00002226  00000001 USING  ORDINARY    00000000 00001000 FFFFFFF7   7 000          @R7,7
  20826  000027E0  00000001 USING  ORDINARY    000027E0 00001000 00000001   7 000          $$$309B,7
  20847  000027E4  00000001 USING  ORDINARY    00000000 00001000 FFFFFFF7   7 000          @R7,7
  20892  0000280C  00000001 USING  ORDINARY    0000280C 00001000 00000001   7 000          $$$312B,7
  20917  00002814  00000001 USING  ORDINARY    00000000 00001000 FFFFFFF7   7 000          @R7,7
  20962  0000283C  00000001 USING  ORDINARY    0000283C 00001000 00000001   7 000          $$$315B,7
  20988  00002844  00000001 USING  ORDINARY    00000000 00001000 FFFFFFF7   7 000          @R7,7
  21033  0000286C  00000001 USING  ORDINARY    0000286C 00001000 00000001   7 000          $$$318B,7
  21059  00002874  00000001 USING  ORDINARY    00000000 00001000 FFFFFFF7   7 000          @R7,7
  21104  0000289C  00000001 USING  ORDINARY    0000289C 00001000 00000001   7 000          $$$321B,7
  21129  000028A4  00000001 USING  ORDINARY    00000000 00001000 FFFFFFF7   7 000          @R7,7
  21174  000028CC  00000001 USING  ORDINARY    000028CC 00001000 00000001   7 000          $$$324B,7
  21203  000028D8  00000001 USING  ORDINARY    00000000 00001000 FFFFFFF7   7 000          @R7,7
  21248  00002900  00000001 USING  ORDINARY    00002900 00001000 00000001   7 000          $$$327B,7
  21278  0000290C  00000001 USING  ORDINARY    00000000 00001000 FFFFFFF7   7 000          @R7,7
  21323  00002934  00000001 USING  ORDINARY    00002934 00001000 00000001   7 000          $$$330B,7
  21352  00002940  00000001 USING  ORDINARY    00000000 00001000 FFFFFFF7   7 000          @R7,7
  21397  00002968  00000001 USING  ORDINARY    00002968 00001000 00000001   7 000          $$$333B,7
  21427  00002974  00000001 USING  ORDINARY    00000000 00001000 FFFFFFF7   7 000          @R7,7
  21472  0000299C  00000001 USING  ORDINARY    0000299C 00001000 00000001   7 AAC   21497  $$$336B,7
1JES      (JES2010) (12:47) (15MAR04) Using Map                                                                             Page  129
  21505  000029AE  00000001 USING  ORDINARY    00000000 00001000 FFFFFFF7   7 000          @R7,7
  21550  000029D6  00000001 USING  ORDINARY    000029D6 00001000 00000001   7 A72   21576  $$$339B,7
  21584  000029E8  00000001 USING  ORDINARY    00000000 00001000 FFFFFFF7   7 000          @R7,7
  21629  00002A10  00000001 USING  ORDINARY    00002A10 00001000 00000001   7 AA8   21794  $$$342B,7
  21833  00002AE0  00000001 USING  ORDINARY    00000000 00001000 FFFFFFF7   7 000          @R7,7
  21878  00002B08  00000001 USING  ORDINARY    00002B08 00001000 00000001   7 954   21978  $$$351B,7
  22000  00002B4E  00000001 USING  ORDINARY    00000000 00001000 FFFFFFF7   7 000          @R7,7
  22045  00002B76  00000001 USING  ORDINARY    00002B76 00001000 00000001   7 8EE   22159  $$$358B,7
  22171  00002BC6  00000001 USING  ORDINARY    00000000 00001000 FFFFFFF7   7 000          @R7,7
  22216  00002BEE  00000001 USING  ORDINARY    00002BEE 00001000 00000001   7 87A   22316  $$$365B,7
  22337  00002C34  00000001 USING  ORDINARY    00000000 00001000 FFFFFFF7   7 000          @R7,7
  22382  00002C5C  00000001 USING  ORDINARY    00002C5C 00001000 00000001   7 8C8   22532  $$$372B,7
  22549  00002CCA  00000001 USING  ORDINARY    00000000 00001000 FFFFFFF7   7 000          @R7,7
  22594  00002CF2  00000001 USING  ORDINARY    00002CF2 00001000 00000001   7 85D   22749  $$$380B,7
  22766  00002D5E  00000001 USING  ORDINARY    00000000 00001000 FFFFFFF7   7 000          @R7,7
  22811  00002D86  00000001 USING  ORDINARY    00002D86 00001000 00000001   7 000          $$$388B,7
  22839  00002D90  00000001 USING  ORDINARY    00000000 00001000 FFFFFFF7   7 000          @R7,7
  22884  00002DB8  00000001 USING  ORDINARY    00002DB8 00001000 00000001   7 000          $$$391B,7
  22906  00002DC0  00000001 USING  ORDINARY    00000000 00001000 FFFFFFF7   7 000          @R7,7
  22951  00002DE8  00000001 USING  ORDINARY    00002DE8 00001000 00000001   7 000          $$$394B,7
  22976  00002DF0  00000001 USING  ORDINARY    00000000 00001000 FFFFFFF7   7 000          @R7,7
  23021  00002E18  00000001 USING  ORDINARY    00002E18 00001000 00000001   7 000          $$$397B,7
  23047  00002E20  00000001 USING  ORDINARY    00000000 00001000 FFFFFFF7   7 000          @R7,7
  23092  00002E48  00000001 USING  ORDINARY    00002E48 00001000 00000001   7 000          $$$400B,7
  23117  00002E50  00000001 USING  ORDINARY    00000000 00001000 FFFFFFF7   7 000          @R7,7
  23162  00002E78  00000001 USING  ORDINARY    00002E78 00001000 00000001   7 000          $$$403B,7
  23188  00002E80  00000001 USING  ORDINARY    00000000 00001000 FFFFFFF7   7 000          @R7,7
  23233  00002EA8  00000001 USING  ORDINARY    00002EA8 00001000 00000001   7 000          $$$406B,7
  23263  00002EB6  00000001 USING  ORDINARY    00000000 00001000 FFFFFFF7   7 000          @R7,7
  23308  00002EDE  00000001 USING  ORDINARY    00002EDE 00001000 00000001   7 57A   23335  $$$409B,7
  23353  00002EF0  00000001 USING  ORDINARY    00000000 00001000 FFFFFFF7   7 000          @R7,7
  23398  00002F18  00000001 USING  ORDINARY    00002F18 00001000 00000001   7 540   23425  $$$413B,7
  23447  00002F2E  00000001 USING  ORDINARY    00000000 00001000 FFFFFFF7   7 000          @R7,7
  23492  00002F56  00000001 USING  ORDINARY    00002F56 00001000 00000001   7 502   23519  $$$417B,7
  23542  00002F6C  00000001 USING  ORDINARY    00000000 00001000 FFFFFFF7   7 000          @R7,7
  23562  00002F7A  00000001 USING  ORDINARY    00000000 00001000 FFFFFFF8   6 000          @R6,6
  23601  00002F94  00000001 USING  ORDINARY    00002F94 00001000 00000001   7 4F0   23620  $$$421B,7
  23629  00002FAA  00000001 USING  ORDINARY    00000000 00001000 FFFFFFF7   7 000          @R7,7
  23675  00002FD2  00000001 USING  ORDINARY    00002FD2 00001000 00000001   7 5F4   24933  $$$424B,7
  24941  00003324  00000001 USING  ORDINARY    00000000 00001000 FFFFFFF7   7 000          @R7,7
  24987  0000334C  00000001 USING  ORDINARY    0000334C 00001000 00000001   7 28A   25325  $$$449B,7
  25064  0000337A  00000001 DROP                                            4              4
  25068  00003380  00000001 USING  ORDINARY    00000000 00001000 FFFFFFFA   4 000          @R4,4
  25337  00003422  00000001 USING  ORDINARY    00000000 00001000 FFFFFFF7   7 000          @R7,7
  25467  000035F2  00000001 USING  ORDINARY    000035F2 00001000 00000001   7 834   25525  $$$458B,7
  25538  00003620  00000001 USING  ORDINARY    00000000 00001000 FFFFFFF7   7 000          @R7,7
  25596  00003648  00000001 USING  ORDINARY    00003648 00001000 00000001   7 8C4   25769  $$$462B,7
  25780  000036DC  00000001 USING  ORDINARY    00000000 00001000 FFFFFFF7   7 000          @R7,7
  25843  0000372E  00000001 USING  ORDINARY    0000372E 00001000 00000001   7 719   26551  $$$471B,BR
  25873  0000373A  00000001 USING  ORDINARY    00000000 00001000 FFFFFFE7   6 1F4   26560  KWR,R6
  26573  00003904  00000001 USING  ORDINARY    00000000 00001000 FFFFFFF8   6 000          @R6,6
  26579  00003904  00000001 USING  ORDINARY    00000000 00001000 FFFFFFF7   7 000          @R7,7
  26617  0000391E  00000001 USING  ORDINARY    0000391E 00001000 00000001   7 5B9   26928  $$$499B,7
  26640  0000392E  00000001 USING  ORDINARY    00000000 00001000 FFFFFFD8   6 118   26692  SUBRSC,R6
  26665  0000393C  00000001 USING  ORDINARY    00000000 00001000 FFFFFFDB  15 064   26676  JCB,R15
  26683  00003940  00000001 USING  ORDINARY    00000000 00001000 FFFFFFEF  15 000          @R15,15
  26942  00003A34  00000001 USING  ORDINARY    00000000 00001000 FFFFFFF7   7 000          @R7,7
  26962  00003A42  00000001 USING  ORDINARY    00000000 00001000 FFFFFFF8   6 000          @R6,6
  27000  00003A5C  00000001 USING  ORDINARY    00003A5C 00001000 00000001   7 384   27145  $$$508B,7
1JES      (JES2010) (12:47) (15MAR04) Using Map                                                                             Page  130
  27043  00003A7E  00000001 USING  ORDINARY    00000000 00001000 FFFFFFD4   6 028   27087  JWA,R6
  27060  00003A8C  00000001 USING  ORDINARY    00000000 00001000 FFFFFFDB  15 064   27071  JCB,R15
  27078  00003A90  00000001 USING  ORDINARY    00000000 00001000 FFFFFFEF  15 000          @R15,15
  27095  00003A9A  00000001 USING  ORDINARY    00000000 00001000 FFFFFFD9   5 058   27142  HCMRSC,R5
  27158  00003AC6  00000001 USING  ORDINARY    00000000 00001000 FFFFFFF7   7 000          @R7,7
  27178  00003AD4  00000001 USING  ORDINARY    00000000 00001000 FFFFFFF9   5 000          @R5,5
  27185  00003AD4  00000001 USING  ORDINARY    00000000 00001000 FFFFFFF8   6 000          @R6,6
  27224  00003AEE  00000001 USING  ORDINARY    00003AEE 00001000 00000001   7 408   27243  $$$513B,7
  27251  00003B02  00000001 USING  ORDINARY    00000000 00001000 FFFFFFF7   7 000          @R7,7
  27305  00003B2A  00000001 USING  ORDINARY    00003B2A 00001000 00000001   7 2C2   27413  $$$516B,7
  27345  00003B3C  00000001 USING  ORDINARY    00000000 00001000 FFFFFFD8   6 03C   27383  SUBRSC,R6
  27380  00003B54  00000001 DROP                                            5              5
  27384  00003B5A  00000001 USING  ORDINARY    00000000 00001000 FFFFFFF9   5 000          @R5,5
  27439  00003B86  00000001 USING  ORDINARY    00000000 00001000 FFFFFFDB  15 064   27451  JCB,R15
  27458  00003B8A  00000001 USING  ORDINARY    00000000 00001000 FFFFFFEF  15 000          @R15,15
  27479  00003B94  00000001 USING  ORDINARY    00000000 00001000 FFFFFFF8   6 000          @R6,6
  27491  00003B96  00000001 USING  ORDINARY    00000000 00001000 FFFFFFF7   7 000          @R7,7
  27541  00003BBE  00000001 USING  ORDINARY    00003BBE 00001000 00000001   7 232   27758  $$$522B,7
  27584  00003BE0  00000001 USING  ORDINARY    00000000 00001000 FFFFFFD4   6 028   27818  JWA,R6
  27620  00003C02  00000001 USING  ORDINARY    00000000 00001000 FFFFFFD9   5 053   27722  HCMRSC,R5
  27733  00003C3A  00000001 USING  ORDINARY    00000000 00001000 FFFFFFF9   5 000          @R5,5
  27784  00003C66  00000001 USING  ORDINARY    00000000 00001000 FFFFFFDB  15 064   27796  JCB,R15
  27803  00003C6A  00000001 USING  ORDINARY    00000000 00001000 FFFFFFEF  15 000          @R15,15
  27825  00003C74  00000001 USING  ORDINARY    00000000 00001000 FFFFFFF7   7 000          @R7,7
  27845  00003C82  00000001 USING  ORDINARY    00000000 00001000 FFFFFFF8   6 000          @R6,6
  27891  00003C9C  00000001 USING  ORDINARY    00003C9C 00001000 00000001   7 268   28076  $$$534B,7
  28091  00003D2E  00000001 USING  ORDINARY    00000000 00001000 FFFFFFF7   7 000          @R7,7
  28208  00003F2C  00000001 USING  ORDINARY    00003F2C 00001000 00000001   7 582   28469  $$$542B,7
  28337  00003F66  00000001 USING  ORDINARY    00000000 00001000 FFFFFFDB  15 064   28351  JCB,R15
  28377  00003F84  00000001 USING  ORDINARY    00000000 00001000 FFFFFFEF  15 000          @R15,15
  28390  00003F88  00000001 USING  ORDINARY    00000000 00001000 FFFFFFD8   6 11A   28448  SUBRSC,R6
  28494  00003FCE  00000001 USING  ORDINARY    00000000 00001000 FFFFFFF8   6 000          @R6,6
  28499  00003FCE  00000001 USING  ORDINARY    00000000 00001000 FFFFFFF7   7 000          @R7,7
  28549  00003FF6  00000001 USING  ORDINARY    00003FF6 00001000 00000001   7 47E   28626  $$$554B,7
  28566  00003FFA  00000001 USING  ORDINARY    00000000 00001000 FFFFFFD8   6 028   28647  SUBRSC,R6
  28610  00004012  00000001 USING  ORDINARY    00000000 00001000 FFFFFFDB  15 060   28623  JCB,R15
  28635  00004024  00000001 USING  ORDINARY    00000000 00001000 FFFFFFEF  15 000          @R15,15
  28655  0000402A  00000001 USING  ORDINARY    00000000 00001000 FFFFFFF7   7 000          @R7,7
  28675  00004038  00000001 USING  ORDINARY    00000000 00001000 FFFFFFF8   6 000          @R6,6
  28705  00004052  00000001 USING  ORDINARY    00004052 00001000 00000001   7 45A   29615  $$$558B,BR
  28741  00004074  00000001 USING  ORDINARY    00000000 00001000 FFFFFFD4   6 028   29422  JWA,R6
  28777  00004096  00000001 USING  ORDINARY    00000000 00001000 FFFFFFD9   5 060   28886  HCMRSC,R5
  28965  00004114  00000001 USING  ORDINARY    00000000 00001000 FFFFFFF9   5 000          @R5,5
  28968  00004114  00000001 USING  ORDINARY    00000000 00001000 FFFFFFE8   5 014   29048  RESOURCE,R5
  29006  00004124  00000001 USING  ORDINARY    00000000 00001000 FFFFFFDB  15 060   29019  JCB,R15
  29031  00004136  00000001 USING  ORDINARY    00000000 00001000 FFFFFFEF  15 000          @R15,15
  29059  00004140  00000001 USING  ORDINARY    00000000 00001000 FFFFFFF9   5 000          @R5,5
  29062  00004140  00000001 USING  ORDINARY    00000000 00001000 FFFFFFD9   5 060   29554  HCMRSC,5
  29074  00004140  00000001 USING  ORDINARY    00000000 00001000 FFFFFFD5   3 016   29211  HRB,R3
  29218  000041AC  00000001 USING  ORDINARY    00000000 00001000 FFFFFFFB   3 000          @R3,3
  29229  000041B0  00000001 USING  ORDINARY    00000000 00001000 FFFFFFDA   3 006   29467  LRCDSECT,R3
  29486  00004246  00000001 USING  ORDINARY    00000000 00001000 FFFFFFFB   3 000          @R3,3
  29498  0000424A  00000001 USING  ORDINARY    00000000 00001000 FFFFFFD5   3 002   29504  HRB,R3
  29511  0000424E  00000001 USING  ORDINARY    00000000 00001000 FFFFFFFB   3 000          @R3,3
  29622  000042A4  00000001 USING  ORDINARY    00000000 00001000 FFFFFFF7   7 000          @R7,7
  29629  000042A4  00000001 USING  ORDINARY    00000000 00001000 FFFFFFF9   5 000          @R5,5
  29636  000042A4  00000001 USING  ORDINARY    00000000 00001000 FFFFFFF8   6 000          @R6,6
  29681  000042BE  00000001 USING  ORDINARY    000042BE 00001000 00000001   7 1BA   29843  $$$598B,7
  29724  000042E0  00000001 USING  ORDINARY    00000000 00001000 FFFFFFD4   6 158   29775  JWA,R6
1JES      (JES2010) (12:47) (15MAR04) Using Map                                                                             Page  131
  29760  00004302  00000001 USING  ORDINARY    00000000 00001000 FFFFFFD9   5 053   29840  HCMRSC,R5
  29856  00004344  00000001 USING  ORDINARY    00000000 00001000 FFFFFFF7   7 000          @R7,7
  29876  00004352  00000001 USING  ORDINARY    00000000 00001000 FFFFFFF9   5 000          @R5,5
  29883  00004352  00000001 USING  ORDINARY    00000000 00001000 FFFFFFF8   6 000          @R6,6
  29929  0000436C  00000001 USING  ORDINARY    0000436C 00001000 00000001   7 140   30183  $$$607B,7
  29946  0000436E  00000001 USING  ORDINARY    00000000 00001000 FFFFFFD9   6 053   30218  HCMRSC,R6
  30230  00004444  00000001 USING  ORDINARY    00000000 00001000 FFFFFFF7   7 000          @R7,7
  30250  00004452  00000001 USING  ORDINARY    00000000 00001000 FFFFFFF8   6 000          @R6,6
  30290  000044B4  00000001 USING  ORDINARY    00000000 00001000 FFFFFFF3  11 000          @R11,11
  30305  000044B6  00000001 USING  ORDINARY    000044B6 00001000 00000001   7 1F2   30615  $$$622B,7
  30316  000044BE  00000001 USING  ORDINARY    00000000 00001000 FFFFFFD8   6 11A   30613  SUBRSC,R6
  30358  000044DE  00000001 DROP                                            3              3
  30362  000044E4  00000001 USING  ORDINARY    00000000 00001000 FFFFFFFB   3 001   30364  @R3,3
  30622  000045FC  00000001 USING  ORDINARY    00000000 00001000 FFFFFFF7   7 000          @R7,7

1         (JES2010) (12:47) (15MAR04) General Purpose Register Cross Reference                                              Page  132
- Register  References (M=modified, B=branch, U=USING, D=DROP, N=index)                      HLASM R4.0  2004/03/15 12.47
0    0(0)      982U   983D  2104   2172M  2172   2173M 11621  11651M 11651  11691M 11904M 11904  12009M 12009  12038
             12082M 12168M 12169M 12170  12208M 12209M 12210  12292M 12317  12439M 12491M 12516  12562M 12588M 12623M
             12643M 12671  12838M 12894  12959M 12984M 12988  12999M 12999  13008  13009  13010  13039M 13039  13048
             13049  13050  13077M 13077  13096M 13096  13105  13106  13161M 13174M 13174  13181  13185M 13185  13207M
             13222M 13222  13247M 13265M 13306M 13324M 13411M 13430M 13542  13554M 13559  13583  13595M 13600  13761M
             13761  13794M 13794  13886M 13932M 14040  14047M 14084  14086M 14091M 14098  14101M 14105M 14155M 14162
             14172M 14267M 14267  14289M 14356M 14766  14797M 14813M 14833  14880M 14900  14950M 14970  15006M 15006
             15015  15016  15017  15036M 15038M 15068  15079M 15079  15088  15089  15134M 15154  15180  15195M 15215
             15241  15256M 15276  15302  15317M 15337  15383M 15403  15449M 15469  15501  15516M 15536  15582M 15611
             15655M 15675  15716M 15859  15915M 15954  15993  16011M 16047  16173M 16225  16331M 16356M 16371M 16385M
             16409M 16409  16475M 16478  16490M 16495  16548M 16576M 16595M 16611M 16643  16720M 16748M 16767M 16783M
             16847  16953M 16957  16968M 16968  16977  16978  16979  17008M 17008  17017  17018  17019  17048M 17048
             17057  17058  17180M 17282  17299M 17314M 17332  17349M 17364M 17404M 17485  17496M 17496  17766M 17766
             17845M 17875  17892M 17907M 17939M 17939  18124M 18428  18472M 18492  18528M 18528  18537  18538  18539
             18558M 18560M 18590  18601M 18601  18610  18611  18656M 18676  18721  18817M 18837  18889M 18907  18939M
             18959  19011M 19029  19061M 19084  19224M 19224  19261M 19331  19376  19404  19509M 19512  19524M 19529
             19530  19551  19552M 19553  19572M 19751  19812M 19812  19821  19822  19863M 19879M 19899M 19933M 19947M
             19967M 19997M 20022M 20037M 20062M 20085M 20085  20264M 20809  20855M 20875  20925M 20945  20996M 21016
             21067M 21087  21137M 21157  21211M 21231  21286M 21306  21360M 21380  21435M 21455  21513M 21533  21592M
             21612  21651M 21651  21660  21661  21662  21689M 21689  21706  21841M 21861  21969  22008M 22028  22136
             22179M 22199  22307  22345M 22365  22473  22515M 22533M 22557M 22577  22685  22750M 22774M 22794  22847M
             22867  22899  22914M 22934  22984M 23004  23055M 23075  23125M 23145  23196M 23216  23271M 23291  23361M
             23381  23455M 23475  23550M 23584  23637M 23658  23705M 23743M 23763M 23783M 23834M 23856M 23906M 23928M
             23962M 23992M 24010M 24040M 24074M 24128M 24150M 24204M 24226M 24265M 24319M 24341M 24380M 24406M 24463M
             24483M 24483  24546M 24574M 24614M 24642M 24682M 24710M 24750M 24778M 24801M 24827M 24863M 24883M 24906M
             24949M 24970  25017M 25033M 25033  25094M 25094  25134M 25166M 25187M 25187  25232M 25253M 25253  25292M
             25314M 25314  25345M 25450  25507M 25526M 25546M 25579  25651  25788M 25845  25883M 25928M 25956M 25974M
             26002M 26018M 26150M 26180  26188M 26227  26255  26360M 26388M 26406M 26434M 26452M 26472M 26472  26490M
             26518M 26536M 26565M 26600  26729M 26763M 26782M 26824M 26843M 26852M 26883M 26929M 26950M 26983  27028
             27166M 27207  27236M 27259M 27288  27401M 27401  27421  27499M 27524  27569  27605  27671M 27746M 27746
             27766  27833M 27874  27911M 27911  27952M 27952  27974M 28009M 28043M 28072M 28072  28099M 28191  28358
             28366M 28396  28507M 28532  28572M 28572  28625  28663M 28726  28762  28848M 28935  28947M 28947  29021
             29176M 29274M 29379M 29379  29380M 29438  29576M 29594M 29611M 29611  29664  29709  29745  29796M 29864M
             29912  30000  30075  30142M 30162M 30162  30191  30238M 30321M 30327M 30467M 30468M 30469  30478M 30502M
             30503M 30504  30542M 30564M 30612M 30612
     1(1)      978U  2104   2167M  2168M  2174M 11621  11658M 11698M 11900M 11996M 11997  12018M 12038  12080M 12176M
             12178N 12179  12201M 12230M 12258  12292M 12317  12434M 12441M 12491M 12516  12561M 12583M 12622M 12643M
             12671  12838M 12894  12955M 12979M 12987  12995M 13008N 13009N 13010N 13035M 13048N 13049N 13050N 13092M
             13105N 13106N 13108N 13133M 13134M 13134  13162M 13181M 13205M 13206M 13207M 13236  13246M 13264M 13305M
             13323M 13334  13410M 13429M 13930M 13986M 14084  14092M 14101M 14104M 14156M 14171M 14288M 14356M 14766
             14796M 14813M 14833  14880M 14900  14950M 14970  14999  15002M 15015N 15016N 15017N 15036  15037M 15038
             15067  15075M 15088N 15089N 15091N 15134M 15154  15195M 15215  15256M 15276  15317M 15337  15383M 15403
             15449M 15469  15516M 15536  15582M 15611  15655M 15675  15716M 15859  15915M 15954  15991M 15992  16011M
             16047  16173M 16225  16324M 16352M 16370M 16383M 16471M 16547M 16571M 16594M 16611M 16643  16719M 16743M
             16766M 16783M 16847  16948M 16956  16964M 16977N 16978N 16979N 17004M 17017N 17018N 17019N 17044M 17057N
             17058N 17060N 17179M 17282  17294M 17314M 17332  17344M 17364M 17399M 17484  17840M 17875  17887M 17907M
             18124M 18428  18472M 18492  18521  18524M 18537N 18538N 18539N 18558  18559M 18560  18589  18597M 18610N
             18611N 18613N 18656M 18676  18708M 18709M 18709N 18817M 18837  18869M 18870M 18870N 18888M 18939M 18959
             18991M 18992M 18992N 19010M 19061M 19084  19183M 19194U 19241U 19261M 19331  19376  19404  19509M 19554M
             19555  19572M 19751  19808M 19821N 19822N 19824N 19862M 19878M 19898M 19932M 19946M 19966M 19996M 20017M
             20036M 20057M 20264M 20809  20855M 20875  20925M 20945  20996M 21016  21067M 21087  21137M 21157  21211M
             21231  21286M 21306  21360M 21380  21435M 21455  21513M 21533  21592M 21612  21647M 21660N 21661N 21662N
             21841M 21861  21987M 21988M 21988N 22008M 22028  22153M 22154M 22154N 22156M 22179M 22199  22324M 22325M
             22325N 22345M 22365  22490M 22491M 22491N 22514M 22532M 22557M 22577  22702M 22703M 22703N 22749M 22774M
             22794  22847M 22867  22914M 22934  22984M 23004  23055M 23075  23125M 23145  23196M 23216  23271M 23291
1         (JES2010) (12:47) (15MAR04) General Purpose Register Cross Reference                                              Page  133
             23361M 23381  23455M 23475  23550M 23584  23637M 23658  23704M 23742M 23762M 23782M 23833M 23855M 23905M
             23927M 23961M 23985M 24009M 24033M 24067M 24127M 24149M 24203M 24225M 24264M 24318M 24340M 24379M 24401M
             24462M 24490M 24545M 24569M 24613M 24637M 24681M 24705M 24749M 24773M 24800M 24822M 24862M 24882M 24905M
             24949M 24970  25016M 25133M 25165M 25194M 25231M 25260M 25291M 25345M 25450  25476  25500M 25525M 25546M
             25579  25712M 25714M 25714  25720M 25750M 25752M 25752  25788M 25846  25882M 25927M 25951M 25973M 25997M
             26017M 26157M 26195M 26359M 26383M 26405M 26429M 26451M 26473M 26474M 26474  26489M 26513M 26535M 26560M
             26600  26626M 26631  26632  26711M 26713N 26714  26724M 26762M 26781M 26802M 26804N 26805  26823M 26842M
             26851M 26882M 26928M 26950M 26983  27028  27045M 27086  27142M 27166M 27207  27235M 27259M 27288  27397M
             27421  27499M 27524  27569  27605  27675M 27675  27722M 27742M 27766  27833M 27874  27901  27945M 27947
             27964  27973M 27999  28008M 28042M 28063M 28084  28099M 28191  28358  28366M 28395  28446M 28507M 28532
             28573M 28625  28663M 28726  28762  28797M 28855M 28935  28949M 28949  29021  29172M 29275M 29292M 29312M
             29372M 29398M 29436  29555M 29571M 29593M 29613M 29613  29664  29709  29745  29762M 29801M 29840M 29864M
             29912  29938  30000  30075  30146M 30146  30149M 30150  30171M 30191  30238M 30320M 30320  30329M 30416M
             30417  30420  30430  30466M 30469M 30477M 30479N 30501M 30504M 30541M 30543N 30557M 30613M
     2(2)      974U  2104  11621  11876M 11887M 11887  11911M 11951M 11959U 11970M 11971  11986U 11989U 12038  12061U
             12064U 12075U 12151M 12161U 12264U 12292M 12317  12400M 12410U 12464U 12491M 12516  12643M 12671  12838M
             12894  13539M 13885M 14356M 14766  14813M 14833  14880M 14900  14950M 14970  14999M 15037  15134M 15154
             15195M 15215  15256M 15276  15317M 15337  15383M 15403  15449M 15469  15516M 15536  15582M 15611  15655M
             15675  15716M 15859  15915M 15954  15990M 15992M 15995M 16011M 16047  16084M 16108M 16110  16122  16152M
             16173M 16225  16386M 16611M 16643  16783M 16847  16883M 16908M 16908  17221M 17221  17238M 17440M 17440
             17484M 17485M 17487M 17724M 17724  17741M 18008M 18008  18124M 18428  18472M 18492  18521M 18559  18656M
             18676  18817M 18837  18939M 18959  19061M 19084  19261M 19331  19376  19572M 19751  20264M 20809  20855M
             20875  20925M 20945  20996M 21016  21067M 21087  21137M 21157  21211M 21231  21286M 21306  21360M 21380
             21435M 21455  21513M 21533  21592M 21612  21841M 21861  22008M 22028  22179M 22199  22345M 22365  22557M
             22577  22774M 22794  22847M 22867  22914M 22934  22984M 23004  23055M 23075  23125M 23145  23196M 23216
             23271M 23291  23361M 23381  23455M 23475  23550M 23584  23637M 23658  24949M 24970  25035M 25035  25054
             25155M 25155  25183  25295M 25345M 25450  25476M 25500  25546M 25579  25788M 25830  26180M 26227  26236
             26482M 26600  26950M 26983  27028  27166M 27207  27259M 27288  27421  27499M 27524  27569  27605  27766
             27833M 27874  28099M 28191  28238M 28238  28262M 28300M 28300  28396M 28399  28411M 28449  28453M 28462M
             28462  28469  28507M 28532  28625  28663M 28692  28726  28762  28935  29021  29436M 29437M 29438M 29439M
             29440  29522  29544M 29664  29709  29745  29839M 29845  29864M 29912  30000  30075  30191  30238M 30355M
             30363M 30429
     3(3)      970U  2104  11621  11873M 11918  12038  12117M 12145  12151  12171M 12292M 12317  12374M 12394  12400
             12414M 12491M 12516  12643M 12671  12838M 12894  13559M 13600M 13763M 13763  13934M 13943M 13952M 13952
             13959  14356M 14766  14813M 14833  14880M 14900  14950M 14970  15134M 15154  15195M 15215  15256M 15276
             15317M 15337  15383M 15403  15449M 15469  15516M 15536  15582M 15611  15655M 15675  15716M 15859  15915M
             15954  15993M 15995M 16011M 16047  16085M 16089M 16091  16109M 16110M 16122  16173M 16225  16301M 16312U
             16337  16362  16377  16431  16450U 16611M 16643  16783M 16847  17783M 17783  17800M 17982M 17982  18124M
             18428  18472M 18492  18656M 18676  18817M 18837  18939M 18959  19061M 19084  19261M 19331  19376  19572M
             19751  20264M 20809  20855M 20875  20925M 20945  20996M 21016  21067M 21087  21137M 21157  21211M 21231
             21286M 21306  21360M 21380  21435M 21455  21513M 21533  21592M 21612  21841M 21861  22008M 22028  22179M
             22199  22345M 22365  22557M 22577  22774M 22794  22847M 22867  22914M 22934  22984M 23004  23055M 23075
             23125M 23145  23196M 23216  23271M 23291  23361M 23381  23455M 23475  23550M 23584  23637M 23658  24949M
             24970  25037M 25037  25060N 25296M 25296N 25345M 25450  25546M 25579  25788M 25830  26482M 26600  26950M
             26983  27028  27166M 27207  27259M 27288  27421  27499M 27524  27569  27605  27766  27833M 27874  28099M
             28191  28395M 28507M 28532  28625  28663M 28692  28726  28762  28886M 28935  29021  29074U 29211M 29218U
             29220M 29229U 29437  29486U 29488M 29498U 29504M 29511U 29522  29544M 29664  29709  29745  29864M 29912
             30000  30075  30191  30238M 30358D 30360M 30360  30361M 30362U 30438
     4(4)      966U  2104  11621  11942M 11951  11971  12038  12101M 12111U 12124U 12145  12292M 12317  12358M 12368U
             12381U 12394  12491M 12516  12643M 12671  12838M 12894  14356M 14766  14813M 14833  14880M 14900  14950M
             14970  15134M 15154  15195M 15215  15256M 15276  15317M 15337  15383M 15403  15449M 15469  15516M 15536
             15582M 15611  15655M 15675  15716M 15859  15915M 15954  15995M 16011M 16047  16086M 16173M 16225  16296M
             16324  16611M 16643  16783M 16847  17806M 17817M 17817  17967M 18124M 18428  18472M 18492  18656M 18676
             18817M 18837  18939M 18959  19061M 19084  19261M 19331  19376  19530M 19534M 19536  19572M 19751  20264M
             20809  20855M 20875  20925M 20945  20996M 21016  21067M 21087  21137M 21157  21211M 21231  21286M 21306
             21360M 21380  21435M 21455  21513M 21533  21592M 21612  21841M 21861  22008M 22028  22179M 22199  22345M
             22365  22557M 22577  22774M 22794  22847M 22867  22914M 22934  22984M 23004  23055M 23075  23125M 23145
             23196M 23216  23271M 23291  23361M 23381  23455M 23475  23550M 23584  23637M 23658  24949M 24970  25064D
             25066M 25066  25067M 25068U 25077M 25077  25249  25345M 25450  25546M 25579  25788M 25830  25845M 26033M
1         (JES2010) (12:47) (15MAR04) General Purpose Register Cross Reference                                              Page  134
             26033  26482M 26600  26950M 26983  27028  27166M 27207  27259M 27288  27350M 27351  27421  27499M 27524
             27569  27605  27766  27833M 27874  28099M 28191  28507M 28532  28625  28663M 28692  28726  28762  28886M
             28895M 28895  28926M 28926  28935  29021  29544M 29664  29709  29745  29864M 29912  30000  30075  30191
             30238M 30365M 30477  30538M 30541
     5(5)      962U  2104  11621  12038  12173M 12178  12181  12218M 12232  12292M 12317  12491M 12516  12643M 12671
             12718M 12735M 12735  12750U 12820U 12838M 12894  14356M 14766  14813M 14833  14880M 14900  14950M 14970
             15134M 15154  15195M 15215  15256M 15276  15317M 15337  15383M 15403  15449M 15469  15516M 15536  15582M
             15611  15655M 15675  15716M 15859  15915M 15954  15994M 15995M 16011M 16047  16173M 16225  16611M 16643
             16783M 16847  17706M 17716U 18048U 18053M 18063U 18099U 18124M 18428  18472M 18492  18656M 18676  18817M
             18837  18939M 18959  19061M 19084  19261M 19331  19376  19409M 19419U 19432U 19572M 19751  20264M 20809
             20855M 20875  20925M 20945  20996M 21016  21067M 21087  21137M 21157  21211M 21231  21286M 21306  21360M
             21380  21435M 21455  21513M 21533  21592M 21612  21841M 21861  22008M 22028  22179M 22199  22345M 22365
             22557M 22577  22774M 22794  22847M 22867  22914M 22934  22984M 23004  23055M 23075  23125M 23145  23196M
             23216  23271M 23291  23361M 23381  23455M 23475  23550M 23584  23637M 23658  24949M 24970  25345M 25450
             25546M 25579  25788M 25830  25854M 26349M 26349  26482M 26600  26692M 26713  26788  26804  26807  26950M
             26983  27028  27086M 27087  27095U 27166M 27178U 27207  27259M 27288  27317M 27317  27376M 27376  27380D
             27382M 27382  27383M 27384U 27421  27484  27499M 27524  27569  27588M 27589M 27589  27605  27620U 27733U
             27766  27833M 27874  28099M 28191  28507M 28532  28625  28663M 28692  28726  28745M 28746M 28746  28762
             28777U 28935  28965U 28968U 29021  29059U 29062U 29544M 29555  29629U 29664  29709  29728M 29729M 29729
             29745  29760U 29762  29864M 29876U 29912  30000  30075  30191  30238M 30335M 30335  30349  30355N 30364M
             30364N
     6(6)      958U  2104  11621  11725M 11726M 11727M 11737U 11751U 11926M 11936U 11949U 12038  12086M 12096U 12275U
             12292M 12317  12343M 12353U 12475U 12491M 12516  12643M 12671  12702M 12712U 12725U 12838M 12894  12930M
             12938U 12940  14356M 14766  14813M 14833  14880M 14900  14950M 14970  15134M 15154  15195M 15215  15256M
             15276  15317M 15337  15383M 15403  15449M 15469  15516M 15536  15582M 15611  15655M 15675  15716M 15728U
             15859  15892U 15915M 15926U 15954  15987U 16011M 16022U 16047  16080U 16173M 16184U 16225  16611M 16643
             16783M 16847  16884M 16892U 16894  18124M 18428  18472M 18492  18656M 18676  18817M 18837  18939M 18959
             19061M 19084  19261M 19272U 19331  19367M 19367  19376  19391U 19572M 19583U 19751  19787M 19795U 20264M
             20809  20855M 20875  20925M 20945  20996M 21016  21067M 21087  21137M 21157  21211M 21231  21286M 21306
             21360M 21380  21435M 21455  21513M 21533  21592M 21612  21841M 21861  22008M 22028  22179M 22199  22345M
             22365  22557M 22577  22774M 22794  22847M 22867  22914M 22934  22984M 23004  23055M 23075  23125M 23145
             23196M 23216  23271M 23291  23361M 23381  23455M 23475  23550M 23562U 23584  23637M 23658  24949M 24970
             25345M 25450  25546M 25579  25788M 25830  25846M 25854  25861M 25861  25873U 25882  26482M 26573U 26600
             26632M 26640U 26950M 26962U 26983  27011M 27012M 27012  27028  27043U 27166M 27185U 27207  27259M 27288
             27335M 27345U 27421  27479U 27499M 27524  27552M 27553M 27553  27569  27584U 27605  27766  27833M 27845U
             27874  28099M 28191  28380M 28390U 28494U 28507M 28532  28558M 28566U 28625  28663M 28675U 28692  28709M
             28710M 28710  28726  28741U 28762  28935  29021  29544M 29636U 29664  29692M 29693M 29693  29709  29724U
             29745  29864M 29883U 29912  29938M 29946U 30000  30075  30191  30238M 30250U 30308M 30316U
     7(7)      954U  2097M  2097   2098B  2104   2110B 11621  11626M 11638U 12038  12284U 12292M 12317  12322M 12334U
             12483U 12491M 12516  12521M 12533U 12635U 12643M 12671  12676M 12688U 12830U 12838M 12894  12900M 12912U
             14348U 14356M 14368M 14378U 14387U 14766  14771M 14783U 14805U 14813M 14833  14838M 14850U 14872U 14880M
             14900  14905M 14917U 14942U 14950M 14970  14975M 14987U 15126U 15134M 15154  15159M 15171U 15187U 15195M
             15215  15220M 15232U 15248U 15256M 15276  15281M 15293U 15309U 15317M 15337  15342M 15354U 15375U 15383M
             15403  15408M 15420U 15441U 15449M 15469  15474M 15486U 15508U 15516M 15536  15541M 15553U 15574U 15582M
             15611  15616M 15628U 15647U 15655M 15675  15680M 15692U 15708U 15716M 15859  15864M 15876U 15907U 15915M
             15954  15959M 15971U 16003U 16011M 16047  16052M 16064U 16165U 16173M 16225  16230M 16242U 16510M 16520U
             16523U 16529M 16538U 16541U 16603U 16611M 16643  16648M 16660U 16682M 16692U 16695U 16701M 16710U 16713U
             16775U 16783M 16847  16853M 16865U 18116U 18124M 18428  18433M 18445U 18464U 18472M 18492  18497M 18509U
             18648U 18656M 18676  18681M 18693U 18809U 18817M 18837  18842M 18854U 18931U 18939M 18959  18964M 18976U
             19053U 19061M 19084  19089M 19101U 19253U 19261M 19331  19336M 19348U 19376  19564U 19572M 19751  19757M
             19769U 20256U 20264M 20809  20814M 20826U 20847U 20855M 20875  20880M 20892U 20917U 20925M 20945  20950M
             20962U 20988U 20996M 21016  21021M 21033U 21059U 21067M 21087  21092M 21104U 21129U 21137M 21157  21162M
             21174U 21203U 21211M 21231  21236M 21248U 21278U 21286M 21306  21311M 21323U 21352U 21360M 21380  21385M
             21397U 21427U 21435M 21455  21460M 21472U 21505U 21513M 21533  21538M 21550U 21584U 21592M 21612  21617M
             21629U 21833U 21841M 21861  21866M 21878U 22000U 22008M 22028  22033M 22045U 22171U 22179M 22199  22204M
             22216U 22337U 22345M 22365  22370M 22382U 22549U 22557M 22577  22582M 22594U 22766U 22774M 22794  22799M
             22811U 22839U 22847M 22867  22872M 22884U 22906U 22914M 22934  22939M 22951U 22976U 22984M 23004  23009M
             23021U 23047U 23055M 23075  23080M 23092U 23117U 23125M 23145  23150M 23162U 23188U 23196M 23216  23221M
             23233U 23263U 23271M 23291  23296M 23308U 23353U 23361M 23381  23386M 23398U 23447U 23455M 23475  23480M
1         (JES2010) (12:47) (15MAR04) General Purpose Register Cross Reference                                              Page  135
             23492U 23542U 23550M 23584  23589M 23601U 23629U 23637M 23658  23663M 23675U 24941U 24949M 24970  24975M
             24987U 25337U 25345M 25450  25455M 25467U 25538U 25546M 25579  25584M 25596U 25780U 25788M 25830  25833M
             25843U 26482M 26579U 26600  26605M 26617U 26942U 26950M 26983  26988M 27000U 27028  27158U 27166M 27207
             27212M 27224U 27251U 27259M 27288  27293M 27305U 27421  27491U 27499M 27524  27529M 27541U 27569  27605
             27766  27825U 27833M 27874  27879M 27891U 28091U 28099M 28191  28196M 28208U 28499U 28507M 28532  28537M
             28549U 28625  28655U 28663M 28692  28695M 28705U 28726  28762  28935  29021  29544M 29622U 29664  29669M
             29681U 29709  29745  29856U 29864M 29912  29917M 29929U 30000  30075  30191  30230U 30238M 30295M 30305U
             30622U
     8(8)      950U  2104  11621  11622M 12038  12288  12292M 12317  12318M 12487  12491M 12516  12517M 12639  12643M
             12671  12672M 12834  12838M 12894  12896M 12926U 14343U 14352  14356M 14766  14767M 14809  14813M 14833
             14834M 14876  14880M 14900  14901M 14946  14950M 14970  14971M 15130  15134M 15154  15155M 15191  15195M
             15215  15216M 15252  15256M 15276  15277M 15313  15317M 15337  15338M 15379  15383M 15403  15404M 15445
             15449M 15469  15470M 15512  15516M 15536  15537M 15578  15582M 15611  15612M 15651  15655M 15675  15676M
             15712  15716M 15859  15860M 15911  15915M 15954  15955M 16007  16011M 16047  16048M 16169  16173M 16225
             16226M 16607  16611M 16643  16644M 16779  16783M 16847  16849M 16879U 18111U 18120  18124M 18428  18429M
             18468  18472M 18492  18493M 18652  18656M 18676  18677M 18813  18817M 18837  18838M 18935  18939M 18959
             18960M 19057  19061M 19084  19085M 19257  19261M 19331  19332M 19376  19568  19572M 19751  19753M 19783U
             20251U 20260  20264M 20809  20810M 20851  20855M 20875  20876M 20921  20925M 20945  20946M 20992  20996M
             21016  21017M 21063  21067M 21087  21088M 21133  21137M 21157  21158M 21207  21211M 21231  21232M 21282
             21286M 21306  21307M 21356  21360M 21380  21381M 21431  21435M 21455  21456M 21509  21513M 21533  21534M
             21588  21592M 21612  21613M 21837  21841M 21861  21862M 22004  22008M 22028  22029M 22175  22179M 22199
             22200M 22341  22345M 22365  22366M 22553  22557M 22577  22578M 22770  22774M 22794  22795M 22843  22847M
             22867  22868M 22910  22914M 22934  22935M 22980  22984M 23004  23005M 23051  23055M 23075  23076M 23121
             23125M 23145  23146M 23192  23196M 23216  23217M 23267  23271M 23291  23292M 23357  23361M 23381  23382M
             23451  23455M 23475  23476M 23546  23550M 23584  23585M 23633  23637M 23658  23659M 24945  24949M 24970
             24971M 25341  25345M 25450  25451M 25542  25546M 25579  25580M 25784  25788M 25830  25831M 26480  26482M
             26600  26601M 26946  26950M 26983  26984M 27028  27162  27166M 27207  27208M 27255  27259M 27288  27289M
             27421  27495  27499M 27524  27525M 27569  27605  27766  27829  27833M 27874  27875M 28084N 28095  28099M
             28191  28192M 28503  28507M 28532  28533M 28625  28659  28663M 28692  28693M 28726  28762  28935  29021
             29542  29544M 29664  29665M 29709  29745  29860  29864M 29912  29913M 30000  30075  30191  30234  30238M
     9(9)      946U  2104  12038  19376  27028  27421  27569  27605  27766  28625  28726  28762  28935  29021  29709
             29745  30000  30075  30191
    10(A)      942U  2104  12038  19376  27028  27421  27569  27605  27766  28625  28726  28762  28935  29021  29709
             29745  30000  30075  30191
    11(B)      938U  1168U  2104   8096B  8097B 12038  19376  27028  27421  27569  27605  27766  28625  28726  28762
             28935  29021  29709  29745  30000  30075  30191  30290U
    12(C)      934U  1177U  2104  12038  19376  27028  27421  27569  27605  27766  28625  28726  28762  28935  29021
             29709  29745  30000  30075  30191  30307M
    13(D)      930U  2104  11618  11621  11622  11623M 11623  11658  11698  12018  12038  12288M 12292  12294  12314
             12317  12318  12319M 12319  12487M 12491  12493  12513  12516  12517  12518M 12518  12639M 12643  12645
             12668  12671  12672  12673M 12673  12834M 12838  12840  12891  12894  12896  12897M 12897  13003  13004
             13005  13007M 13007  13019M 13020  13021  13022  13043  13044  13045  13047M 13047  13059M 13060  13061
             13062  13100  13101  13102  13104M 13104  13117M 13118  13119  13120  14084  14085M 14085  14100M 14101
             14352M 14356  14358  14763  14766  14767  14768M 14768  14809M 14813  14815  14830  14833  14834  14835M
             14835  14876M 14880  14882  14897  14900  14901  14902M 14902  14946M 14950  14952  14967  14970  14971
             14972M 14972  15010  15011  15012  15014M 15014  15026M 15027  15028  15029  15050  15052M 15052  15083
             15084  15085  15087M 15087  15100M 15101  15102  15103  15114M 15130M 15134  15136  15151  15154  15155
             15156M 15156  15191M 15195  15197  15212  15215  15216  15217M 15217  15252M 15256  15258  15273  15276
             15277  15278M 15278  15313M 15317  15319  15334  15337  15338  15339M 15339  15379M 15383  15385  15400
             15403  15404  15405M 15405  15445M 15449  15451  15466  15469  15470  15471M 15471  15512M 15516  15518
             15533  15536  15537  15538M 15538  15578M 15582  15584  15608  15611  15612  15613M 15613  15651M 15655
             15657  15672  15675  15676  15677M 15677  15712M 15716  15718  15856  15859  15860  15861M 15861  15911M
             15915  15917  15951  15954  15955  15956M 15956  16007M 16011  16013  16044  16047  16048  16049M 16049
             16169M 16173  16175  16222  16225  16226  16227M 16227  16296  16297M 16297  16301  16302M 16302  16383
             16384M 16384  16443M 16453M 16456M 16607M 16611  16613  16640  16643  16644  16645M 16645  16779M 16783
             16785  16844  16847  16849  16850M 16850  16972  16973  16974  16976M 16976  16988M 16989  16990  16991
             17012  17013  17014  17016M 17016  17028M 17029  17030  17031  17052  17053  17054  17056M 17056  17069M
             17070  17071  17072  17282  17283M 17283  17313M 17314  17332  17333M 17333  17363M 17364  17683  17684M
             17684  17875  17876M 17876  17906M 17907  18103M 18104  18120M 18124  18126  18425  18428  18429  18430M
1         (JES2010) (12:47) (15MAR04) General Purpose Register Cross Reference                                              Page  136
             18430  18468M 18472  18474  18489  18492  18493  18494M 18494  18532  18533  18534  18536M 18536  18548M
             18549  18550  18551  18572  18574M 18574  18605  18606  18607  18609M 18609  18622M 18623  18624  18625
             18636M 18652M 18656  18658  18673  18676  18677  18678M 18678  18813M 18817  18819  18834  18837  18838
             18839M 18839  18935M 18939  18941  18956  18959  18960  18961M 18961  19057M 19061  19063  19081  19084
             19085  19086M 19086  19183  19184M 19184  19234M 19257M 19261  19263  19328  19331  19332  19333M 19333
             19376  19404  19405M 19405  19508M 19509  19568M 19572  19574  19748  19751  19753  19754M 19754  19816
             19817  19818  19820M 19820  19833M 19834  19835  19836  20260M 20264  20266  20806  20809  20810  20811M
             20811  20851M 20855  20857  20872  20875  20876  20877M 20877  20921M 20925  20927  20942  20945  20946
             20947M 20947  20992M 20996  20998  21013  21016  21017  21018M 21018  21063M 21067  21069  21084  21087
             21088  21089M 21089  21133M 21137  21139  21154  21157  21158  21159M 21159  21207M 21211  21213  21228
             21231  21232  21233M 21233  21282M 21286  21288  21303  21306  21307  21308M 21308  21356M 21360  21362
             21377  21380  21381  21382M 21382  21431M 21435  21437  21452  21455  21456  21457M 21457  21509M 21513
             21515  21530  21533  21534  21535M 21535  21588M 21592  21594  21609  21612  21613  21614M 21614  21655
             21656  21657  21659M 21659  21671M 21672  21673  21674  21837M 21841  21843  21858  21861  21862  21863M
             21863  22004M 22008  22010  22025  22028  22029  22030M 22030  22175M 22179  22181  22196  22199  22200
             22201M 22201  22341M 22345  22347  22362  22365  22366  22367M 22367  22553M 22557  22559  22574  22577
             22578  22579M 22579  22770M 22774  22776  22791  22794  22795  22796M 22796  22843M 22847  22849  22864
             22867  22868  22869M 22869  22910M 22914  22916  22931  22934  22935  22936M 22936  22980M 22984  22986
             23001  23004  23005  23006M 23006  23051M 23055  23057  23072  23075  23076  23077M 23077  23121M 23125
             23127  23142  23145  23146  23147M 23147  23192M 23196  23198  23213  23216  23217  23218M 23218  23267M
             23271  23273  23288  23291  23292  23293M 23293  23357M 23361  23363  23378  23381  23382  23383M 23383
             23451M 23455  23457  23472  23475  23476  23477M 23477  23546M 23550  23552  23581  23584  23585  23586M
             23586  23633M 23637  23639  23655  23658  23659  23660M 23660  24945M 24949  24951  24967  24970  24971
             24972M 24972  25341M 25345  25347  25447  25450  25451  25452M 25452  25542M 25546  25548  25576  25579
             25580  25581M 25581  25784M 25788  25790  25830  25831  25832M 25832  26480M 26481  26482  26597  26600
             26601  26602M 26602  26946M 26950  26952  26980  26983  26984  26985M 26985  27028  27162M 27166  27168
             27204  27207  27208  27209M 27209  27255M 27259  27261  27285  27288  27289  27290M 27290  27421  27495M
             27499  27501  27521  27524  27525  27526M 27526  27569  27605  27766  27829M 27833  27835  27871  27874
             27875  27876M 27876  27901  27902M 27902  27944M 27945  27947  27948M 27948  28062M 28063  28095M 28099
             28101  28188  28191  28192  28193M 28193  28358  28359M 28359  28365M 28366  28503M 28507  28509  28529
             28532  28533  28534M 28534  28625  28659M 28663  28665  28692  28693  28694M 28694  28726  28762  28935
             29021  29542M 29543  29544  29661  29664  29665  29666M 29666  29709  29745  29801  29860M 29864  29866
             29909  29912  29913  29914M 29914  30000  30075  30171  30191  30234M 30238  30240
    14(E)      926U  2104   2105M  2119   2120M  2121B  2123M  2124B  2144M  2145B  2149M  2150B  2152M  2153B  2155M
              2156B  2158M  2159B  2161M  2162M  2162B  2168  11618  11908M 11909M 11909B 12038  12039M 12204M 12205M
             12205B 12294M 12297B 12314  12493M 12496B 12513  12544M 12545M 12545B 12573M 12574M 12574B 12591M 12592M
             12592B 12615M 12616M 12616B 12645M 12648B 12668  12840M 12843B 12891  12944M 12945M 12945B 12962M 12963M
             12963B 12969M 12970M 12970B 12986M 12987N 12988N 12992M 12992  13002M 13003  13004  13005  13013M 13014M
             13014B 13017M 13020  13021  13022  13027M 13028M 13028B 13031M 13032M 13032B 13042M 13043  13044  13045
             13053M 13054M 13054B 13057M 13060  13061  13062  13067M 13068M 13068B 13088M 13089M 13089B 13099M 13100
             13101  13102  13107M 13108  13111M 13112M 13112B 13115M 13118  13119  13120  13125M 13126M 13126B 13129M
             13130M 13130B 13165M 13166M 13166B 13258M 13259M 13259B 13317M 13318M 13318B 13337M 13338M 13338B 13371M
             13372M 13372B 13389M 13390M 13390B 13393M 13394M 13394B 13422M 13423M 13423B 13481M 13482M 13482B 13524M
             13525M 13525B 13531M 13532M 13532B 14009M 14010M 14010B 14089M 14090M 14090B 14095M 14096M 14096B 14132M
             14133M 14133B 14153M 14154M 14154B 14159M 14160M 14160B 14196M 14197M 14197B 14219M 14220M 14220B 14278M
             14279M 14279B 14300M 14301M 14301B 14304M 14305M 14305B 14310M 14311M 14311B 14358M 14361B 14763  14815M
             14818B 14830  14882M 14885B 14897  14952M 14955B 14967  15009M 15010  15011  15012  15020M 15021M 15021B
             15024M 15027  15028  15029  15034M 15035M 15035B 15043M 15044M 15044B 15049M 15050  15066M 15067N 15068N
             15072M 15072  15082M 15083  15084  15085  15090M 15091  15094M 15095M 15095B 15098M 15101  15102  15103
             15108M 15109M 15109B 15112M 15115  15136M 15139B 15151  15197M 15200B 15212  15258M 15261B 15273  15319M
             15322B 15334  15385M 15388B 15400  15451M 15454B 15466  15518M 15521B 15533  15584M 15587B 15596B 15608
             15639M 15640M 15640B 15657M 15660B 15672  15718M 15721B 15856  15917M 15920B 15951  16013M 16016B 16044
             16175M 16178B 16222  16253M 16254M 16254B 16340M 16341M 16341B 16365M 16366M 16366B 16380M 16381M 16381B
             16389M 16390M 16390B 16434M 16435M 16435B 16500M 16501M 16501B 16559M 16560M 16560B 16587M 16588M 16588B
             16613M 16616B 16640  16672M 16673M 16673B 16731M 16732M 16732B 16759M 16760M 16760B 16785M 16788B 16844
             16898M 16899M 16899B 16955M 16956N 16957N 16961M 16961  16971M 16972  16973  16974  16982M 16983M 16983B
             16986M 16989  16990  16991  16996M 16997M 16997B 17000M 17001M 17001B 17011M 17012  17013  17014  17022M
             17023M 17023B 17026M 17029  17030  17031  17036M 17037M 17037B 17040M 17041M 17041B 17051M 17052  17053
             17054  17059M 17060  17063M 17064M 17064B 17067M 17070  17071  17072  17077M 17078M 17078B 17081M 17082M
1         (JES2010) (12:47) (15MAR04) General Purpose Register Cross Reference                                              Page  137
             17082B 17090M 17091M 17091B 17095M 17096M 17096B 17099M 17100M 17100B 17125M 17126M 17126B 17131M 17132M
             17132B 17152M 17153M 17153B 17310M 17311M 17311B 17360M 17361M 17361B 17387M 17388M 17388B 17415M 17416M
             17416B 17429M 17430M 17430B 17543M 17544M 17544B 17557M 17558M 17558B 17587M 17588M 17588B 17777M 17778M
             17778B 17856M 17857M 17857B 17903M 17904M 17904B 17925M 17926M 17926B 17950M 17951M 17951B 18087M 18088M
             18088B 18126M 18129B 18425  18456M 18457M 18457B 18474M 18477B 18489  18531M 18532  18533  18534  18542M
             18543M 18543B 18546M 18549  18550  18551  18556M 18557M 18557B 18565M 18566M 18566B 18571M 18572  18588M
             18589N 18590N 18594M 18594  18604M 18605  18606  18607  18612M 18613  18616M 18617M 18617B 18620M 18623
             18624  18625  18630M 18631M 18631B 18634M 18637  18658M 18661B 18673  18704M 18705M 18705B 18730M 18731M
             18731B 18799M 18800M 18800B 18819M 18822B 18834  18865M 18866M 18866B 18916M 18917M 18917B 18941M 18944B
             18956  18987M 18988M 18988B 19038M 19039M 19039B 19063M 19066B 19081  19227M 19228M 19228B 19263M 19266B
             19328  19376  19377M 19574M 19577B 19748  19815M 19816  19817  19818  19823M 19824  19827M 19828M 19828B
             19831M 19834  19835  19836  19841M 19842M 19842B 19874M 19875M 19875B 19926M 19927M 19927B 19942M 19943M
             19943B 19991M 19992M 19992B 20006M 20007M 20007B 20031M 20032M 20032B 20046M 20047M 20047B 20071M 20072M
             20072B 20094M 20095M 20095B 20266M 20269B 20806  20857M 20860B 20872  20927M 20930B 20942  20998M 21001B
             21013  21069M 21072B 21084  21139M 21142B 21154  21213M 21216B 21228  21288M 21291B 21303  21362M 21365B
             21377  21437M 21440B 21452  21497M 21498M 21498B 21515M 21518B 21530  21576M 21577M 21577B 21594M 21597B
             21609  21654M 21655  21656  21657  21665M 21666M 21666B 21669M 21672  21673  21674  21679M 21680M 21680B
             21768M 21769N 21784N 21799N 21800N 21801  21801  21802N 21803N 21816N 21820M 21820  21843M 21846B 21858
             21927M 21928M 21928B 21952M 21953M 21953B 21978M 21979M 21979B 22010M 22013B 22025  22094M 22095M 22095B
             22119M 22120M 22120B 22145M 22146M 22146B 22159M 22160M 22160B 22181M 22184B 22196  22265M 22266M 22266B
             22290M 22291M 22291B 22316M 22317M 22317B 22347M 22350B 22362  22431M 22432M 22432B 22456M 22457M 22457B
             22482M 22483M 22483B 22526M 22527M 22527B 22559M 22562B 22574  22643M 22644M 22644B 22668M 22669M 22669B
             22694M 22695M 22695B 22707M 22708M 22708B 22742M 22743M 22743B 22776M 22779B 22791  22849M 22852B 22864
             22916M 22919B 22931  22986M 22989B 23001  23057M 23060B 23072  23127M 23130B 23142  23198M 23201B 23213
             23273M 23276B 23288  23335M 23336M 23336B 23363M 23366B 23378  23425M 23426M 23426B 23457M 23460B 23472
             23519M 23520M 23520B 23552M 23555B 23581  23612M 23613M 23613B 23616M 23617M 23617B 23620M 23621M 23621B
             23639M 23642B 23655  23716M 23717M 23717B 23754M 23755M 23755B 23810M 23811M 23811B 23845M 23846M 23846B
             23867M 23868M 23868B 23917M 23918M 23918B 23939M 23940M 23940B 23973M 23974M 23974B 24003M 24004M 24004B
             24021M 24022M 24022B 24051M 24052M 24052B 24085M 24086M 24086B 24139M 24140M 24140B 24161M 24162M 24162B
             24215M 24216M 24216B 24237M 24238M 24238B 24276M 24277M 24277B 24330M 24331M 24331B 24352M 24353M 24353B
             24391M 24392M 24392B 24409M 24410M 24410B 24433M 24434M 24434B 24474M 24475M 24475B 24493M 24494M 24494B
             24517M 24518M 24518B 24557M 24558M 24558B 24585M 24586M 24586B 24625M 24626M 24626B 24653M 24654M 24654B
             24693M 24694M 24694B 24721M 24722M 24722B 24761M 24762M 24762B 24789M 24790M 24790B 24812M 24813M 24813B
             24830M 24831M 24831B 24854M 24855M 24855B 24858M 24859M 24859B 24933M 24934M 24934B 24951M 24954B 24967
             25028M 25029M 25029B 25123M 25124M 25124B 25145M 25146M 25146B 25177M 25178M 25178B 25197M 25198M 25198B
             25221M 25222M 25222B 25243M 25244M 25244B 25263M 25264M 25264B 25287M 25288M 25288B 25325M 25326M 25326B
             25347M 25350B 25447  25479M 25480M 25480B 25518M 25519M 25519B 25548M 25551B 25576  25718M 25719M 25719B
             25736M 25745M 25746M 25746B 25790M 25793B 25828  25886M 25887M 25887B 25939M 25940M 25940B 25967M 25968M
             25968B 25985M 25986M 25986B 26013M 26014M 26014B 26371M 26372M 26372B 26399M 26400M 26400B 26417M 26418M
             26418B 26445M 26446M 26446B 26463M 26464M 26464B 26477M 26478M 26478B 26481M 26483B 26501M 26502M 26502B
             26529M 26530M 26530B 26547M 26548M 26548B 26597  26629M 26630M 26630B 26702M 26703M 26703B 26732M 26733M
             26733B 26756M 26757M 26757B 26774M 26775M 26775B 26835M 26836M 26836B 26855M 26856M 26856B 26952M 26955B
             26980  27028  27029M 27048M 27049M 27049B 27111M 27112M 27112B 27139M 27140M 27140B 27145M 27146M 27146B
             27168M 27171B 27204  27239M 27240M 27240B 27243M 27244M 27244B 27261M 27264B 27285  27371M 27372M 27372B
             27404M 27405M 27405B 27421  27422M 27501M 27504B 27521  27569  27570M 27605  27606M 27686M 27687M 27687B
             27725M 27726M 27726B 27749M 27750M 27750B 27766  27767M 27835M 27838B 27871  27915M 27916M 27916B 28036M
             28037M 28037B 28054M 28055M 28055B 28076M 28077M 28077B 28101M 28104B 28188  28289M 28290M 28290B 28362M
             28363M 28363B 28438M 28439M 28439B 28509M 28512B 28529  28624M 28625  28665M 28668B 28690  28726  28727M
             28762  28763M 28807M 28808M 28808B 28935  28936M 29020M 29021  29543M 29546B 29558M 29559M 29559B 29587M
             29588M 29588B 29605M 29606M 29606B 29661  29709  29710M 29745  29746M 29765M 29766M 29766B 29843M 29844M
             29844B 29866M 29869B 29909  30000  30001M 30075  30076M 30191  30192M 30240M 30243B 30420M 30422M 30422
             30423  30430M 30431M 30431  30432  30446M 30481M 30545M 30567M 30568M 30568B
    15(F)      922U  2104   8558M  8558  11662M 11662  11672M 11672  11702M 11702  11712M 11712  11905M 12013M 12013
             12029M 12029  12038  12231M 12232  12233  12234  12296M 12296  12495M 12495  12570M 12612M 12647M 12647
             12700M 12700  12810M 12842M 12842  13023M 13023  13063M 13063  13121M 13121  13255M 13314M 13419M 13437M
             13447U 13477U 13521M 13778D 13780M 13780  13781M 13782U 13808  13817M 13817N 14129M 14150M 14193M 14275M
             14297M 14360M 14360  14817M 14817  14884M 14884  14954M 14954  15030M 15030  15104M 15104  15119M 15119
             15138M 15138  15199M 15199  15260M 15260  15321M 15321  15387M 15387  15453M 15453  15520M 15520  15586M
             15586  15659M 15659  15720M 15720  15919M 15919  16015M 16015  16177M 16177  16337M 16362M 16377M 16431M
1         (JES2010) (12:47) (15MAR04) General Purpose Register Cross Reference                                              Page  138
             16496M 16556M 16584M 16615M 16615  16728M 16756M 16787M 16787  16883  16992M 16992  17032M 17032  17073M
             17073  17113M 17307M 17357M 17384M 17412M 17426M 17540M 17554M 17584M 17596M 17596  17614M 17676M 17683
             17774M 17853M 17900M 17922M 17947M 18104M 18128M 18128  18476M 18476  18552M 18552  18626M 18626  18641M
             18641  18660M 18660  18821M 18821  18943M 18943  19065M 19065  19265M 19265  19376  19576M 19576  19837M
             19837  19871M 19923M 19939M 19988M 20003M 20028M 20043M 20068M 20091M 20268M 20268  20859M 20859  20929M
             20929  21000M 21000  21071M 21071  21141M 21141  21215M 21215  21290M 21290  21364M 21364  21439M 21439
             21517M 21517  21596M 21596  21675M 21675  21769M 21778M 21778  21784M 21793M 21793  21799M 21800M 21802M
             21803  21815M 21815  21816  21826M 21826  21845M 21845  21993M 21993  22012M 22012  22164M 22164  22183M
             22183  22330M 22330  22349M 22349  22523M 22542M 22542  22561M 22561  22739M 22759M 22759  22778M 22778
             22851M 22851  22918M 22918  22988M 22988  23059M 23059  23129M 23129  23200M 23200  23275M 23275  23365M
             23365  23459M 23459  23554M 23554  23641M 23641  23713M 23751M 23807M 23842M 23864M 23914M 23936M 23970M
             24000M 24018M 24048M 24082M 24136M 24158M 24212M 24234M 24273M 24327M 24349M 24388M 24430M 24471M 24479M
             24514M 24554M 24582M 24622M 24650M 24690M 24718M 24758M 24786M 24809M 24851M 24896M 24896  24930M 24953M
             24953  25025M 25060M 25067  25120M 25142M 25174M 25183M 25218M 25240M 25249M 25284M 25322M 25349M 25349
             25515M 25550M 25550  25651M 25654  25666M 25674M 25683M 25683  25690  25729M 25731M 25731  25733M 25733
             25734M 25734  25736B 25739M 25762M 25762  25769M 25792M 25792  25936M 25964M 25982M 26010M 26161M 26161
             26171M 26171  26199M 26199  26209M 26209  26368M 26396M 26414M 26442M 26460M 26498M 26526M 26544M 26655M
             26665U 26683U 26753M 26771M 26832M 26954M 26954  27028  27050M 27060U 27078U 27125  27136M 27170M 27170
             27263M 27263  27319M 27329  27421  27429M 27439U 27458U 27484M 27503M 27503  27569  27605  27666M 27766
             27774M 27784U 27803U 27837M 27837  27912M 28033M 28051M 28073M 28103M 28103  28286M 28327M 28337U 28377U
             28417M 28418M 28430  28445M 28446N 28447M 28447N 28448  28511M 28511  28600M 28610U 28625  28626M 28627B
             28635U 28667M 28667  28726  28762  28843M 28865M 28865  28935  28943M 28996M 29006U 29021  29022M 29023B
             29031U 29076M 29077  29141M 29180M 29180  29479M 29479  29545M 29545  29584M 29602M 29614M 29709  29745
             29775M 29776  29791M 29811M 29811  29839  29845M 29868M 29868  29950M 30000  30075  30086M 30086  30108M
             30137M 30166M 30166  30182M 30182  30191  30219M 30242M 30242  30417M 30418  30423M 30424  30426M 30426
             30429  30432M 30433  30435M 30435  30438  30440M 30443M 30444M 30444  30445M 30445  30446  30455M 30455
             30479M 30480M 30480N 30481B 30490M 30490  30543M 30544M 30544N 30545B 30584M 30584  30589

1JES      (JES2010) (12:47) (15MAR04) Diagnostic Cross Reference and Assembler Summary                                      Page  139
-                                                                                            HLASM R4.0  2004/03/15 12.47
0     No Statements Flagged in this Assembly
 HIGH LEVEL ASSEMBLER, 5696-234, RELEASE 4.0, PTF P72483
0SYSTEM: OS/390 02.10.00            JOBNAME: WYL#JES     STEPNAME: ASM        PROCSTEP: (NOPROC)
0Datasets Allocated for this Assembly
  Con DDname   Dataset Name                                 Volume  Member
   P1 SYSIN    WYL.GS.WYL.WYLBUR.SOURCE                     SYSB05  JES
   L1 SYSLIB   WYL.GS.WYL.WYLBUR.MACLIB                     SYSB05
   L2          WYL.GG.SYS.MACLIB                            SYSB05
   L3          SYS3.IS.MACLIB                               SYSB05
   L4          SYS3.MACLIB                                  SYSB02
   L5          SYS1.MACLIB                                  MVSBR9
   L6          SYS1.MODGEN                                  MVSBR9
      SYSPRINT SYS04075.T124709.RA000.WYL#JES.PRINT.H01     SCR101
      SYSTERM  GG$SLP.WYL#JES.JOB03534.D0000101.?

    3668K allocated to Buffer Pool,         5921K would be required for this to be an In-Storage Assembly
    2266 Primary Input Records Read        27223 Library Records Read                545 Work File Reads
       0 ASMAOPT Records Read              13249 Primary Print Records Written       568 Work File Writes
       0 Punch Records Written                 0 ADATA Records Written
0Assembly Start Time: 12.47.11 Stop Time: 12.47.20 Processor Time: 00.00.06.2602
 Return Code 000
