1                        J E S 2  J O B  L O G  --  S Y S T E M  S Y S B  --  N O D E  R L G
0
 12.43.28 JOB03520 ---- MONDAY,    15 MAR 2004 ----
 12.43.28 JOB03520  ICH70001I GG$SLP   LAST ACCESS AT 12:43:19 ON MONDAY, MARCH 15, 2004
 12.43.28 JOB03520  $HASP373 WYL#EDIT STARTED - INIT 6    - CLASS B - SYS SYSB
 12.43.28 JOB03520  ***  HCMD      STEP $$QUIET
 12.43.28 JOB03520  PUR * Q OUT MUL
 12.43.28 JOB03520  JOB 5384 WYL#EDIT WILL BE PURGED
 12.43.29 JOB03520  WYL#EDIT.$$QUIET .         RC=Zero TapeIO=0000 DiskIO=0000 CPU=  .01s Elapsed=08.70s
 12.43.46 JOB03520  WYL#EDIT.ASM     .         RC=Zero TapeIO=0000 DiskIO=0852 CPU= 7.18s Elapsed=09.73s
 12.43.51 JOB03520  WYL#EDIT.EDIT    .         RC=Zero TapeIO=0000 DiskIO=0409 CPU= 1.14s Elapsed=27.01s
 12.43.51 JOB03520  WYL#EDIT Ended.  Name=Assemble EDIT                  Total CPU= 8.33s Elapsed=08.70s
 12.43.51 JOB03520
 12.43.51 JOB03520  Execution charges   Priority=Standard   Block=Day
 12.43.51 JOB03520
 12.43.51 JOB03520  CPU Usage         154.50          $95.79   Standard Processing Unit Equivalent
 12.43.51 JOB03520                                   =======
 12.43.51 JOB03520                                    $95.79   Total Job execution charge
 12.43.51 JOB03520
 12.43.51 JOB03520  See back separator page for print charges
 12.43.51 JOB03520
 12.43.51 JOB03520  $HASP395 WYL#EDIT ENDED  ASM=0, EDIT=0
1        1 //WYL#EDIT JOB SLP$GG,'Assemble EDIT',TIME=4,REGION=4M                  JOB03520
           //*
           /*JOBPARM LINES=99,COPIES=1
           /*JOBPARM FORMS=3HOL,PFORMAT=LAND,CHARS=BD13,DUPLEX=YES,FLASH=BAR4
           //*
           /*JOBPARM NOTIFY=GG.SLP,HOLD=OUTPUT                                     WYLGEN
         2 //$$QUIET EXEC PGM=HCMDX,PARM='PUR * Q OUT MUL'
           //*
         3 //ASM    EXEC PGM=ASMA90,REGION=8M,
           //            PARM=('NORENT,TERM,FLAG(NOCONT),US(MAP,WARN(10)),NODECK',
           //            'LC(32767),XREF(SHORT),ESD,DXREF,NOOBJECT')
         4 //STEPLIB DD DSN=SYS3.IS.TESTASM,DISP=SHR
         5 //SYSLIB   DD  DSN=WYL.GS.WYL.WYLBUR.MACLIB,DISP=SHR
         6 //         DD  DSN=WYL.GG.SYS.MACLIB,DISP=SHR
         7 //         DD  DSN=SYS3.IS.MACLIB,DISP=SHR
         8 //         DD  DSN=SYS3.MACLIB,DISP=SHR
         9 //         DD  DSN=SYS1.MACLIB,DISP=SHR
        10 //         DD  DSN=SYS1.MODGEN,DISP=SHR
        11 //SYSUT1   DD DSN=&&SYSUT1,UNIT=VIO,DISP=(,DELETE),
           //            SPACE=(4088,(500,250),,CONTIG,ROUND)
        12 //SYSTERM  DD SYSOUT=T
        13 //SYSPRINT DD DSN=&&PRINT,UNIT=SYSDA,DISP=(,PASS),
           //            SPACE=(6650,(250,250),RLSE),
           //            DCB=(BLKSIZE=6650,LRECL=133,RECFM=FB)
        14 //SYSUDUMP DD SYSOUT=A
        15 //SYSIN    DD  DSN=WYL.GS.WYL.WYLBUR.SOURCE(EDIT),DISP=SHR
           //*
        16 //EDIT    EXEC PGM=ASMEDIT,TIME=2,REGION=4000K,
           //             PARM='STMT'
        17 //STEPLIB  DD  DSN=WYL.GG.SYS.LINKLIB,DISP=SHR
        18 //ASMOUT   DD  DSN=&PRINT,DISP=(OLD,DELETE)
        19 //SYSPRINT DD  SYSOUT=A
1 STMT NO. MESSAGE
 -
        11 IGD01010I STORCLAS= TEMP STORGROUP =
        11 IGD01010I STORGRP=VIO ASSIGNED.
        13 IGD01010I STORCLAS= TEMP STORGROUP =
        13 IGD01010I STORGRP=VIO ASSIGNED.
 ICH70001I GG$SLP   LAST ACCESS AT 12:43:19 ON MONDAY, MARCH 15, 2004
 IEF142I WYL#EDIT $$QUIET - STEP WAS EXECUTED - COND CODE 0000
 *********************************************************************************
 *   WYL#EDIT/$$QUIET /                    Return Code      Zero                 *
 *   Region used      260K (16K user + 244K system)                              *
 *   Extended region  9692K (4K user + 9688K system)                             *
 *                                                                               *
 *   Paging              In      Out                                             *
 *   Private <-> Aux      0        0       CPU time (TCB)   00:00:00.01          *
 *   Private <-> Exp      0        0       CPU time (SRB)   00:00:00.00          *
 *   VIO                  0        0       Elapsed time    917:44:24.26          *
 *   Common               0      ---                                             *
 *                                                                               *
 *                                                                               *
 *   CPU Usage          0.18         $0.11  Standard Processing Unit Equivalent  *
 *                                   $0.11  Total Step execution charge          *
 *                                                                               *
 *    I/O count  DDname   Type Addr           I/O count  DDname   Type Addr      *
 *                         *** No I/O for this step ***                          *
 *********************************************************************************
 IEF373I STEP/$$QUIET /START 2004075.1243
 IEF374I STEP/$$QUIET /STOP  2004075.1243 CPU    0MIN 00.01SEC SRB    0MIN 00.00SEC VIRT    16K SYS   244K EXT       4K SYS    9688K
 IEF236I ALLOC. FOR WYL#EDIT ASM
 IEF237I 04DC ALLOCATED TO STEPLIB
 IEF237I 04DC ALLOCATED TO SYSLIB
 IEF237I 04DC ALLOCATED TO
 IEF237I 04DC ALLOCATED TO
 IEF237I 0402 ALLOCATED TO
 IEF237I 04A0 ALLOCATED TO
 IEF237I 04A0 ALLOCATED TO
 IGD101I SMS ALLOCATED TO DDNAME (SYSUT1  )
         DSN (SYS04075.T124328.RA000.WYL#EDIT.SYSUT1.H01  )
         STORCLAS (TEMP) MGMTCLAS (        ) DATACLAS (        )
         VOL SER NOS= VIO
 IEF237I JES2 ALLOCATED TO SYSTERM
 IGD101I SMS ALLOCATED TO DDNAME (SYSPRINT)
         DSN (SYS04075.T124328.RA000.WYL#EDIT.PRINT.H01   )
         STORCLAS (TEMP) MGMTCLAS (        ) DATACLAS (        )
         VOL SER NOS= SCR100
 IEF237I JES2 ALLOCATED TO SYSUDUMP
 IEF237I 04DC ALLOCATED TO SYSIN
 IEF142I WYL#EDIT ASM - STEP WAS EXECUTED - COND CODE 0000
 IEF285I   SYS3.IS.TESTASM                              KEPT
 IEF285I   VOL SER NOS= SYSB05.
 IEF285I   WYL.GS.WYL.WYLBUR.MACLIB                     KEPT
 IEF285I   VOL SER NOS= SYSB05.
 IEF285I   WYL.GG.SYS.MACLIB                            KEPT
 IEF285I   VOL SER NOS= SYSB05.
 IEF285I   SYS3.IS.MACLIB                               KEPT
 IEF285I   VOL SER NOS= SYSB05.
 IEF285I   SYS3.MACLIB                                  KEPT
 IEF285I   VOL SER NOS= SYSB02.
 IEF285I   SYS1.MACLIB                                  KEPT
 IEF285I   VOL SER NOS= MVSBR9.
 IEF285I   SYS1.MODGEN                                  KEPT
 IEF285I   VOL SER NOS= MVSBR9.
 IGD105I SYS04075.T124328.RA000.WYL#EDIT.SYSUT1.H01   DELETED,   DDNAME=SYSUT1
 IEF285I   GG$SLP.WYL#EDIT.JOB03520.D0000101.?          SYSOUT
 IGD106I SYS04075.T124328.RA000.WYL#EDIT.PRINT.H01    PASSED,    DDNAME=SYSPRINT
 IEF285I   GG$SLP.WYL#EDIT.JOB03520.D0000102.?          SYSOUT
 IEF285I   WYL.GS.WYL.WYLBUR.SOURCE                     KEPT
 IEF285I   VOL SER NOS= SYSB05.
 *********************************************************************************
 *   WYL#EDIT/ASM     /                    Return Code      Zero                 *
 *   Region used      4376K (4096K user + 280K system)                           *
 *   Extended region  10300K (412K user + 9888K system)                          *
 *                                                                               *
 *   Paging              In      Out                                             *
 *   Private <-> Aux      0        0       CPU time (TCB)   00:00:07.12          *
 *   Private <-> Exp      0        0       CPU time (SRB)   00:00:00.06          *
 *   VIO                  0        0       Elapsed time    917:44:23.23          *
 *   Common               0      ---                                             *
 *                                                                               *
 *                                                                               *
 *   CPU Usage        133.50        $82.77  Standard Processing Unit Equivalent  *
 *                                  $82.77  Total Step execution charge          *
 *                                                                               *
 *    I/O count  DDname   Type Addr           I/O count  DDname   Type Addr      *
 *           84  STEPLIB  Disk 04DC                 351  SYSLIB   Disk 04DC      *
 *            0  SYSLIB   Disk 04DC                   0  SYSLIB   Disk 04DC      *
 *            0  SYSLIB   Disk 0402                   0  SYSLIB   Disk 04A0      *
 *            0  SYSLIB   Disk 04A0                 289  SYSUT1   VIO  ----      *
 *            0  SYSTERM       ----                 406  SYSPRINT Disk 038B      *
 *            0  SYSUDUMP      ----                  11  SYSIN    Disk 04DC      *
 *********************************************************************************
 IEF373I STEP/ASM     /START 2004075.1243
 IEF374I STEP/ASM     /STOP  2004075.1243 CPU    0MIN 07.12SEC SRB    0MIN 00.06SEC VIRT  4096K SYS   280K EXT     412K SYS    9888K
 IEF236I ALLOC. FOR WYL#EDIT EDIT
 IEF237I 0402 ALLOCATED TO STEPLIB
 IGD103I SMS ALLOCATED TO DDNAME ASMOUT
 IEF237I JES2 ALLOCATED TO SYSPRINT
 IEF142I WYL#EDIT EDIT - STEP WAS EXECUTED - COND CODE 0000
 IEF285I   WYL.GG.SYS.LINKLIB                           KEPT
 IEF285I   VOL SER NOS= SYSB02.
 IGD105I SYS04075.T124328.RA000.WYL#EDIT.PRINT.H01    DELETED,   DDNAME=ASMOUT
 IEF285I   GG$SLP.WYL#EDIT.JOB03520.D0000103.?          SYSOUT
 *********************************************************************************
 *   WYL#EDIT/EDIT    /                    Return Code      Zero                 *
 *   Region used      380K (116K user + 264K system)                             *
 *   Extended region  9812K (4K user + 9808K system)                             *
 *                                                                               *
 *   Paging              In      Out                                             *
 *   Private <-> Aux      0        0       CPU time (TCB)   00:00:01.11          *
 *   Private <-> Exp      0        0       CPU time (SRB)   00:00:00.03          *
 *   VIO                  0        0       Elapsed time    917:44:05.95          *
 *   Common               0      ---                                             *
 *                                                                               *
 *                                                                               *
 *   CPU Usage         20.81        $12.90  Standard Processing Unit Equivalent  *
 *                                  $12.90  Total Step execution charge          *
 *                                                                               *
 *    I/O count  DDname   Type Addr           I/O count  DDname   Type Addr      *
 *            2  STEPLIB  Disk 0402                 407  ASMOUT   Disk 038B      *
 *            0  SYSPRINT      ----                                              *
 *********************************************************************************
 IEF373I STEP/EDIT    /START 2004075.1243
 IEF374I STEP/EDIT    /STOP  2004075.1243 CPU    0MIN 01.11SEC SRB    0MIN 00.03SEC VIRT   116K SYS   264K EXT       4K SYS    9808K
 *********************************************************************************
 *                                                                               *
 *                      S t a n f o r d   U n i v e r s i t y                    *
 *                                                                               *
 *                              *** Job Summary ***                              *
 *                                                                               *
 *   System Id      SYSB                   Input time     12:39:17  Mar 15, 2004 *
 *                                                                               *
 *   System Release SP6.1.0                Start time     12:43:28  Mar 15, 2004 *
 *                                                                               *
 *   Job name       WYL#EDIT               Stop  time     00:00:00  Mar 15, 2004 *
 *                                                                               *
 *   Account        SLP$GG                 Elapsed time  917:44:24.26            *
 *                                                                               *
 *   User Name      Assemble EDIT          CPU time       00:00:08.24            *
 *                                                                               *
 *   Job class      B                      SRB Time       00:00:00.09            *
 *                                                                               *
 *********************************************************************************
 IEF375I  JOB/WYL#EDIT/START 2004075.1243
 IEF376I  JOB/WYL#EDIT/STOP  2004075.1243 CPU    0MIN 08.24SEC SRB    0MIN 00.09SEC
1Assembler Done EDIT No Statements Flagged
1         High Level Assembler Option Summary                   (PTF P72483 )                                               Page    1
-                                                                                            HLASM R4.0  2004/03/15 12.43
0  No Overriding ASMAOPT Parameters
   Overriding Parameters-  NORENT,TERM,FLAG(NOCONT),US(MAP,WARN(10)),NODECK,LC(32767),XREF(SHORT),ESD,DXREF,NOOBJECT
   No Process Statements


   Options for this Assembly
0  NOADATA
     ALIGN
   NOASA
     BATCH
     CODEPAGE(047C)
   NOCOMPAT
   NODBCS
 3 NODECK
 3   DXREF
 3   ESD
   NOEXIT
 3   FLAG(0,ALIGN,NOCONT,NOIMPLEN,NOPAGE0,PUSH,RECORD,NOSUBSTR,USING0)
   NOFOLD
   NOGOFF
   NOINFO
     LANGUAGE(EN)
   NOLIBMAC
 3   LINECOUNT(32767)
     LIST(121)
     MXREF(SOURCE)
 3 NOOBJECT
     OPTABLE(UNI,NOLIST)
   NOPCONTROL
   NOPESTOP
   NOPROFILE
   NORA2
 3 NORENT
     RLD
     RXREF
     SIZE(MAX)
     SYSPARM()
 3   TERM(WIDE)
   NOTEST
     THREAD
   NOTRANSLATE
 3   USING(NOLIMIT,MAP,WARN(10))
 3   XREF(SHORT)

   No Overriding DD Names

1EDIT     External Symbol Dictionary                                                                                        Page    2
-Symbol   Type   Id     Address  Length     LD ID  Flags Alias-of                            HLASM R4.0  2004/03/15 12.43
0WYLEDIT   SD 00000001 00000000 00007A50             00
 EDIT2193  LD          00000000           00000001
 SHOWACT   LD          00000018           00000001
 MINT      ER 00000002
 COLLPSH   ER 00000003
 MALL      ER 00000004
 NOTVALID  ER 00000005
 SHOWACTS  LD          000001B6           00000001
 MTOKEN    ER 00000006
 NSCAN     ER 00000007
 SCANCHK   ER 00000008
 ACTGINFO  ER 00000009
 ACTDISP   ER 0000000A
 SEG       ER 0000000B
 SEGDC     ER 0000000C
 ACTNEXT   ER 0000000D
 ACTPREV   ER 0000000E
 SETACT    LD          00000502           00000001
 MPARM     ER 0000000F
 OPEN      LD          00000BA2           00000001
 MPINT     ER 00000010
 CLOSE     LD          0000106A           00000001
 CLRPSH    ER 00000011
 SEGCR     ER 00000012
 ACTSINFO  ER 00000013
 SCUPCASE  ER 00000014
 CKQUOTES  ER 00000015
 SCDQUOTE  ER 00000016
 SEGWR     ER 00000017
 MOPEN     ER 00000018
 ORVCPASS  ER 00000019
 CHARCHKA  ER 0000001A
 ACTOPEN   ER 0000001B
 ACTDUP    ER 0000001C
 ACTVREST  ER 0000001D
 MCLOSE    ER 0000001E
 ACTCLOSE  ER 0000001F
 PICK      LD          00001414           00000001
 MNULL     ER 00000020
 UNCLEAR   LD          00001A1A           00000001
 SEGT      ER 00000021
 YESREQ    ER 00000022
 ACTPICK   ER 00000023
 ACTFIRST  ER 00000024
 ACTLAST   ER 00000025
 NOOPTS    ER 00000026
 LIST      LD          00001C7A           00000001
 POINT     LD          00001CAC           00000001
 FNAMESCN  ER 00000027
 LTNPSH    ER 00000028
 FNAMPSHF  ER 00000029
 COLSPSH   ER 0000002A
 SCNNOOP   ER 0000002B
 SCNEXFR   ER 0000002C
 NDETRNG   ER 0000002D
1EDIT     External Symbol Dictionary                                                                                        Page    3
 MKFFINFO  ER 0000002E
 FNAMEFIN  ER 0000002F
 EXTOPEN   ER 00000030
 PAGERES   ER 00000031
 RDRNG     ER 00000032
 ATTNLINE  ER 00000033
 ALLOWATN  ER 00000034
 SQSHRTN   ER 00000035
 TREAD     ER 00000036
 LISTLINE  ER 00000037
 SEGMARK   ER 00000038
 TSTAT     ER 00000039
 CVEXNO    ER 0000003A
 HEXFMT    ER 0000003B
 TOASCII   ER 0000003C
 MIXFMT    ER 0000003D
 SQUASH    LD          00002D82           00000001
 LISTPSH   ER 0000003E
 NUMPSH    ER 0000003F
 COMPARE   LD          00002FC0           00000001
 MSYMLN    ER 00000040
 PUTLINE   ER 00000041
 ACTCHK    ER 00000042
 LOCATE    ER 00000043
 UNPRESS   ER 00000044
 ADDER     ER 00000045
 SEGB      ER 00000046
 YESRTN    ER 00000047
 COUNT     LD          00003B56           00000001
 QUIETPSH  ER 00000048
 SEGCLR    ER 00000049
 BTD       ER 0000004A
 HEXSTR    ER 0000004B
 DEQSTR    ER 0000004C
 SHOSIZ    LD          0000421E           00000001
 COPY      LD          00004A2C           00000001
 MOVE      LD          00004A62           00000001
 ENDLNO    ER 0000004D
 LOCLIST   ER 0000004E
 EXTCLOSE  ER 0000004F
 LASTLINE  ER 00000050
 PRESS     ER 00000051
 DELRANGE  ER 00000052
 STOW      ER 00000053
 GETLINE   ER 00000054
 SELDELTA  ER 00000055
 GETLNO    ER 00000056
 NUMRANGE  ER 00000057
 DOFNAME   ER 00000058
 COPYA     LD          00005B6E           00000001
 DTB       ER 00000059
 EVALUATE  LD          00006068           00000001
 RECLOAD   LD          000064E0           00000001
 DESPOT    ER 0000005A
 SEGINIT   ER 0000005B
 EVALSTR   ER 0000005C
 XLOCATE   ER 0000005D
 DEQUOTE   ER 0000005E
 XSETSET   ER 0000005F
1EDIT     External Symbol Dictionary                                                                                        Page    4
 XPUT      ER 00000060
 NSCANSTR  ER 00000061
 NUMBER    LD          00006ED0           00000001
 NUMFACT   ER 00000062

1EDIT     WYLBUR's Editing Commands                                                                                         Page    5
0Loc    Object Code    Addr1 Addr2  Stmt Lv Lineno    Source Statement                    (Asmedit 3.3)  HLASM R4.0  2004/03/15 12.43
+___    ______ ____    _____ _____  ____ __ ______    ______ _________
0                                      2              *******************************************************************
                                       3              *                                                                 *
                                       4              *     WYLBUR/370 - Release VI - Class I - Stanford Proprietary    *
                                       5              *                                                                 *
                                       6              *******************************************************************
                                       7                       HIBAL
                                     988
 000000                00000 07A50   989              WYLEDIT  CSECT
-                                    994                       REGS  FSR,,,,,,,BR,(WAR,LSR),PAR,PBR,CPR,CVR,SPR,RAR
                                    1130                       SYSDEFN ,                 Define installation params
                                    1131
                                    1132              EDIT     IDENT 2193                15:11:43 07/12/02  (SLP)
                                    1135             +
                                    1136    01-IDENT +         ENTRY EDIT2193
                                    1137             +
 000000 16C5C4C9E3F2F1F9            1138    01-IDENT +EDIT2193 DC    AL1(22),C'EDIT2193,15MAR04,12:43'
                                    1139             +*
                                    1141              *
                                    1142                       PUSH  DSECTS
 USING  CP,R11                      1186             =         USING (CP),(CV)
 USING  CV,R12
 000017                00000 07A50  1205             =         POP   PRINT
1EDIT     (EDIT2193) (12:43) (15MAR04) DSECTS                                                                               Page    6
0Current Usings:  (CP,R11) (CV,R12)
0Loc    Object Code    Addr1 Addr2  Stmt Lv Lineno    Source Statement           (Hibal 5, Asmedit 3.3)  HLASM R4.0  2004/03/15 12.43
+___    ______ ____    _____ _____  ____ __ ______    ______ _________
0000000                00000 001A8  6620              AINFO    RECORD BEGIN
                                    6628  1           AINA       AINFO
                                    6630+ 1          +           ¿þþþþþþþþþþþþþþþþþþþþþþþþþþþþþþþþþþþþþþþþþþþþþþþþþþþþþÜ
                                    6631+ 1          +           Ÿ  Active file information.                           Ÿ
                                    6632+ 1          +           Ÿ    This information is kept with each Active file.  Ÿ
                                    6633+ 1          +           ¾þþþþþþþþþþþþþþþþþþþþþþþþþþþþþþþþþþþþþþþþþþþþþþþþþþþþþ»
 000000                             6634  1 01-AINFO +AINANAME   DS    CL8                 Active file name
 000008                             6635  1 01-AINFO +AINATYPE   DS    CL8                 Active file type
                                    6636  1          +
 000010                             6637  1 01-AINFO +AINANXNO   DS    F                   Next Active file set number
 000014                             6638  1 01-AINFO +AINAPRNO   DS    F                   Previous Active file set number
                                    6639  1          +
 000018                             6640  1 01-AINFO +AINAFLNO   DS    F                   First line-number
 00001C                             6641  1 01-AINFO +AINALLNO   DS    F                   Last line-number
 000020                             6642  1 01-AINFO +AINACLNO   DS    F                   Current line-number
 000024                             6643  1 01-AINFO +AINALNCT   DS    F                   Line count
 000028                             6644  1 01-AINFO +AINABYCT   DS    F                   Byte count
 00002C                             6645  1 01-AINFO +AINACHCT   DS    F                   Change count
 000030                             6646  1 01-AINFO +AINAICLK   DS    F                   Clock when initially created
 000034                             6647  1 01-AINFO +           DS    F                   Reserved
 000038                             6648  1 01-AINFO +           DS    XL3                 Reserved
 00003B 00                          6649  1          +*
 AINAFLAG.AINAFCLR 80 ONES
 AINAFLAG.AINAFPRT 40 ONES
 AINAFLAG.AINAFDEF 20 ONES
 AINAFLAG.AINAFLOC 10 ONES
                                    6674  1          +*
                                    6677+ 1          +     ¿þþþþþþþþþþþþþþþþþþþþþþþþþþþþþþþþþþþþþþÜ
                                    6678+ 1          +     Ÿ  Collect command saved information.  Ÿ
                                    6679+ 1          +     ¾þþþþþþþþþþþþþþþþþþþþþþþþþþþþþþþþþþþþþþ»
 00003C                             6680  1 02-COLIN +AINACFLN   DS    F                   Lineno before first collected
 000040                             6681  1 02-COLIN +AINACNLN   DS    F          [Order]  Next lineno to use
 000044                             6682  1 02-COLIN +AINACDEL   DS    F          [Order]  Delta
 000048                             6683  1 02-COLIN +AINACLEN   DS    H                   Line warning length
 00004A                             6684  1 02-COLIN +AINACCNT   DS    H                   No. of lines to collect
 00004C 00                          6685  1 02-COLIN +AINACFG5   DS    X                   Copy of CPLFLG5
 AINACFLG.AINACFMR 80 ONES
 AINACFLG.AINACFCS 40 ONES
 AINACFLG.AINACFUP 20 ONES
 AINACFLG.AINACFRN 10 ONES
 AINACFLG.AINACFPG 08 ONES
                                    6715  1 02-COLIN +AINACINFO   EQU  AINACFLN,*-AINACFLN,C'X'
                                    6717+ 1          +           ¿þþþþþþþþþþþþþþþþþþþþþþþþþþþþþþþþþþþþþþþþþþÜ
                                    6718+ 1          +           Ÿ  Title,File name/host/type information.  Ÿ
                                    6719+ 1          +           ¾þþþþþþþþþþþþþþþþþþþþþþþþþþþþþþþþþþþþþþþþþþ»
 00004E 00                          6720  1 01-AINFO +AINATITL   DS    CL80                Active file title area
 0000A0                             6725  1 01-AINFO +AINAFNAMEL   DS  F                   File name length
 0000A4                             6726  1 01-AINFO +AINAFNAME   DS   CL128               File name
 000124                             6727  1 01-AINFO +AINAHOSTL   DS   F                   Host name length
 000128                             6728  1 01-AINFO +AINAHOST   DS    CL128               Host name
                                    6729  1          +
                                    6730  1 01-AINFO +AINAINFO   EQU   AINANAME,*-AINANAME,C'X'
 0001A8                001A8 001A8  6732                       END
1EDIT     (EDIT2193) (12:43) (15MAR04) SHOW ACTIVE and SHOW ACTIVES Commands                                                Page    7
0Current Usings:  (CP,R11) (CV,R12)
0Loc    Object Code    Addr1 Addr2  Stmt Lv Lineno    Source Statement           (Hibal 5, Asmedit 3.3)  HLASM R4.0  2004/03/15 12.43
+___    ______ ____    _____ _____  ____ __ ______    ______ _________
0000000                00000 001A8  6742              SACTWA   RECORD BEGIN
 000000                             6750  1           SACTINF    DS    XL(L'AINFO)         Working AINFO area
 0001A8                001A8 001A8  6751                       END
-                                   6761              ¿þþþþþþþþþþþþþþþþþþþþþþþþþþþþþþþþþþþþþþþþþþþþþþþþþþþþþþþþþþþþþþþþþþþþþÜ
                                    6762              Ÿ                                                                     Ÿ
                                    6763              Ÿ  SHOWACT -- SHOW ACTIVE Command.                                    Ÿ
                                    6764              Ÿ                                                                     Ÿ
                                                      ¾þþþþþþþþþþþþþþþþþþþþþþþþþþþþþþþþþþþþþþþþþþþþþþþþþþþþþþþþþþþþþþþþþþþþþ»
0000018 50E0 D000/9008_      00000  6765              SHOWACT  XPROC SACTWA
 USING  *,R7
 USING  SACTWA-(4+36),R8
                                    6816
 000032 1B55                        6817                       CLEAR R5
 000034 5810 B08C/1B00_      0008C  6821                       SCAN  SACTPRT             Look for options
 000086 58E0 749E/0DEE       004D0  6853                       SCANCHK
                                    6858
 00008C 1255/4770 7064_             6859                       IF    (R5,Z),'L R5,CPACTNO'  Current Active file
                                    6879
 000096 18F5                        6880                       LR    R15,R5
 000098 4110 8028/4100_      00000  6881                       SETMSG SACTINF
 0000A0 58E0 74A2/0DEE       004D4  6895                       VCALL ACTGINFO            Get AINFO for this Active file
 0000A6 4770 7088            000BA  6899                       IF    Z,BEGIN             Show Active file info...
 0000AA 18F5                        6910  1                      LR    R15,R5
 0000AC 4110 8028/4100_      00000  6911  1                      SETMSG SACTINF
 0000B4 58E0 74A6/0DEE       004D8  6925  1                      VCALL ACTDISP             SHOW ACTIVE info
 0000BA                             6929                       END
                                    6933
 0000BA 708C/47F0 70BE 000BA 000A8  6934                       ELSE  BEGIN               Active not found...
 0000BE 4110 74C8/4100_      004FA  6945  1                      TSEG  'Active '
 0000D0 1815/1B00/41F0_             6963  1                      TNUM  (R5)
 0000DE 4110 7476/4100_      004A8  6985  1                      TSEG  ' does not exist.'
 0000F0                             7003                       END
                                    7007
 0000F0 47F0 C7DE            007DE  7008                       B     CVNEXT
 0000F4 18D8/9808 D004_             7009                       PEND  ,
 DROP   SACTWA-(4+36),R8
 DROP   *,R7
1EDIT     (EDIT2193) (12:43) (15MAR04) SHOW ACTIVE and SHOW ACTIVES Commands                                                Page    8
0Current Usings:  (CP,R11) (CV,R12)
0Loc    Object Code    Addr1 Addr2  Stmt Lv Lineno    Source Statement           (Hibal 5, Asmedit 3.3)  HLASM R4.0  2004/03/15 12.43
+___    ______ ____    _____ _____  ____ __ ______    ______ _________
0                                   7035              ***
                                    7036              ***  SHOW ACTIVE Options.
                                    7037              ***
 000104 4040404040404040_           7038              SACTPRT  SCKW  ,SACTNUM,PI,99999
 00012C 4040404040404040_           7053                       SCKW  ,V(COLLPSH),PUSH
 000154 4040404040404040_           7068                       SCKW  ,V(NOTVALID)
                                    7083              *
                                    7084              *
 00017C 50E0 D000/9008_      00000  7085              SACTNUM  PROC  ,
 USING  *,R7
 000196 1255/4780 700C              7124                       IF    (R5,NZ),BEGIN       Number already specified
 00019C 58E0 734E/0DEE       004E4  7138  1                      VCALL NOTVALID
 0001A2                             7142                       END
 0001A2 1850                        7146                       LR    R5,R0
 0001A4 5058 0018            00018  7147                       PRETURN (R5)
 0001A8 18D8/9808 D004_             7149                       PEND  ,
 DROP   *,R7
                                    7169
1EDIT     (EDIT2193) (12:43) (15MAR04) SHOW ACTIVE and SHOW ACTIVES Commands                                                Page    9
0Current Usings:  (CP,R11) (CV,R12)
0Loc    Object Code    Addr1 Addr2  Stmt Lv Lineno    Source Statement           (Hibal 5, Asmedit 3.3)  HLASM R4.0  2004/03/15 12.43
+___    ______ ____    _____ _____  ____ __ ______    ______ _________
0000000                00000 001B1  7171              SACTSWA  RECORD BEGIN
 000000 00                          7179  1           SAFLAG     FLAG  ,
 SAFLAG.SAFCLR     80 ONES          7183  1                      FLAG  SAFCLR              - Show cleared actives
 SAFLAG.SAFREV     40 ONES          7188  1                      FLAG  SAFREV              - Reverse order
                                    7193  1
 000001                             7194  1           SATYPE     DS    CL8                 Show these types of Actives
                                    7195  1
 000009                             7196  1           SAINFO     DS    XL(L'CPAINFO)       Working AINFO area
 0001B1                001B1 001B1  7197                       END
-                                   7207              ¿þþþþþþþþþþþþþþþþþþþþþþþþþþþþþþþþþþþþþþþþþþþþþþþþþþþþþþþþþþþþþþþþþþþþþÜ
                                    7208              Ÿ                                                                     Ÿ
                                    7209              Ÿ  SHOWACTS -- SHOW ACTIVES Command.                                  Ÿ
                                    7210              Ÿ                                                                     Ÿ
                                                      ¾þþþþþþþþþþþþþþþþþþþþþþþþþþþþþþþþþþþþþþþþþþþþþþþþþþþþþþþþþþþþþþþþþþþþþ»
00001B6 50E0 D000/9008_      00000  7211              SHOWACTS XPROC SACTSWA
 USING  *,R7
 USING  SACTSWA-(4+36),R8
 0001D0 4160 8028            00000  7262                       LA    R6,SACTSWA
 USING  SACTSWA,R6                  7263                       USING SACTSWA,R6
 0001D4 D7FF 6000 6000_00000 00000  7272                       CLEAR SACTSWA
                                    7280
 0001E0 D207 6001 72E8 00001 004B8  7281                       MVC   SATYPE,=CL8'TEXT'   Only show TEXT Active files
 0001E6 5810 B08C/1B00_      0008C  7282                       SCAN  SACTSPRT
 000238 58E0 7300/0DEE       004D0  7314                       SCANCHK
                                    7319                       ¿þþþþþþþþþþþþþþþþþþþþþþþþþþþþþþþþþþþþþþþþþþþþþÜ
                                    7320                       Ÿ  Show Active files from lowest to highest.  Ÿ
                                    7321                       ¾þþþþþþþþþþþþþþþþþþþþþþþþþþþþþþþþþþþþþþþþþþþþþ»
 00023E 9140 6000/4710_00000        7322                       IF    ~SAFREV,BEGIN       Normal order...
 000246 1B44                        7337  1                      CLEAR R4                  Start at first possible
                                    7341  1
 000248                             7342  1                      LOOP  BEGIN               Go through Actives...
 000248 1B11                        7348  2           SANEXT       CLEAR R1
 00024A 18F4                        7353  2                        LR    R15,R4
 00024C 58E0 731C/0DEE       004EC  7354  2                        VCALL ACTNEXT             Get next Active file number
 000252 4780 70EE            002BE  7358  2                        IF    Z,EXIT              No more, scram
                                    7372  2
 000256 184F                        7373  2                        LR    R4,R15
 000258 4110 6009/4100_      00009  7374  2                        SETMSG SAINFO
 000260 58E0 7304/0DEE       004D4  7388  2                        VCALL ACTGINFO            Get AINFO for this Active file
 000266 4780 70B2/900F_      00282  7392  2                        FAIL  NZ,ACTSERR1,'Multiple Active file logic error.'
                                    7415  2
 000282 4130 6009            00009  7416  2                        LA    R3,SAINFO
 USING  AINFO,R3                    7417  2                        WITH  (AINFO,R3)
 000286 5940 B57C/4780_      0057C  7430  2                        IF    (R4,NE,CPACTNO),BEGIN  Should we display it...
 00028E D507 3008 6001_00008 00001  7447  3                          IF    (AINATYPE,NE,SATYPE),SANEXT  Only match our type
 000298 9180 6000/4710_00000        7468  3                          IF    (~SAFCLR,AND,AINAFCLR),SANEXT  Skip cleared actives
 0002A8                             7500  2                        END
 0002A8 18F4                        7504  2                        LR    R15,R4
 0002AA 1813/4100 01A8              7505  2                        SETMSG AINFO
 0002B0 58E0 7308/0DEE       004D8  7519  2                        VCALL ACTDISP             Show info from this Active file
 0002B6 4770 C7DE            007DE  7523  2                        BNZ   CVNEXT              Attn, scram
1EDIT     (EDIT2193) (12:43) (15MAR04) SHOW ACTIVE and SHOW ACTIVES Commands                                                Page   10
0Current Usings:  (SACTSWA,R6) (*,R7) (SACTSWA-(4+36),R8) (CP,R11) (CV,R12)
0Loc    Object Code    Addr1 Addr2  Stmt Lv Lineno    Source Statement           (Hibal 5, Asmedit 3.3)  HLASM R4.0  2004/03/15 12.43
+___    ______ ____    _____ _____  ____ __ ______    ______ _________
00002BA 47F0 7078            00248  7524  1                      END
 DROP   AINFO,R3
 0002BE                             7534                       END
                                    7538                       ¿þþþþþþþþþþþþþþþþþþþþþþþþþþþþþþþþþþþþþþþþþþþþþÜ
                                    7539                       Ÿ  Show Active files from highest to lowest.  Ÿ
                                    7540                       ¾þþþþþþþþþþþþþþþþþþþþþþþþþþþþþþþþþþþþþþþþþþþþþ»
 0002BE 70F2/47F0 7170 002BE 00244  7541                       ELSE  BEGIN               Reverse order...
 0002C2 5840 B580            00580  7552  1                      L     R4,CPACTMAX         Start at highest possible
 0002C6 5E40 7320            004F0  7553  1                      INCR  R4
                                    7556  1
 0002CA                             7557  1           SARNEXT    LOOP  BEGIN               Go through Actives...
 0002CA 1B11                        7564  2                        CLEAR R1
 0002CC 18F4                        7568  2                        LR    R15,R4
 0002CE 58E0 7324/0DEE       004F4  7569  2                        VCALL ACTPREV             Get previous Active file number
 0002D4 4780 7170            00340  7573  2                        IF    Z,EXIT              No more, scram
                                    7587  2
 0002D8 184F                        7588  2                        LR    R4,R15
 0002DA 4110 6009/4100_      00009  7589  2                        SETMSG SAINFO
 0002E2 58E0 7304/0DEE       004D4  7603  2                        VCALL ACTGINFO            Get AINFO for this Active file
 0002E8 4780 7134/900F_      00304  7607  2                        FAIL  NZ,ACTSERR2,'Multiple Active file logic error.'
                                    7630  2
 000304 4130 6009            00009  7631  2                        LA    R3,SAINFO
 USING  AINFO,R3                    7632  2                        WITH  (AINFO,R3)
 000308 5940 B57C/4780_      0057C  7645  2                        IF    (R4,NE,CPACTNO),BEGIN  Should we display it...
 000310 D507 3008 6001_00008 00001  7662  3                          IF    (AINATYPE,NE,SATYPE),SARNEXT  Only match our type
 00031A 9180 6000/4710_00000        7683  3                          IF    (~SAFCLR,AND,AINAFCLR),SARNEXT  Skip cleared actives
 00032A                             7715  2                        END
 00032A 18F4                        7719  2                        LR    R15,R4
 00032C 1813/4100 01A8              7720  2                        SETMSG AINFO
 000332 58E0 7308/0DEE       004D8  7734  2                        VCALL ACTDISP             Show info from this Active file
 000338 4770 C7DE            007DE  7738  2                        BNZ   CVNEXT              Attn, scram
 00033C 47F0 70FA            002CA  7739  1                      END
 DROP   AINFO,R3
 000340                             7749                       END
                                    7753              *
                                    7754              *
 000340 47F0 C7DE            007DE  7755                       B     CVNEXT
 000344 18D8/9808 D004_             7756                       PEND  ,
 DROP   SACTSWA-(4+36),R8
 DROP   *,R7
1EDIT     (EDIT2193) (12:43) (15MAR04) SHOW ACTIVE and SHOW ACTIVES Commands                                                Page   11
0Current Usings:  (SACTSWA,R6) (CP,R11) (CV,R12)
0Loc    Object Code    Addr1 Addr2  Stmt Lv Lineno    Source Statement           (Hibal 5, Asmedit 3.3)  HLASM R4.0  2004/03/15 12.43
+___    ______ ____    _____ _____  ____ __ ______    ______ _________
0                                   7782              ***
                                    7783              ***  SHOW ACTIVES Options.
                                    7784              ***
 000354 D9C5E5C5D9E2C540_           7785              SACTSPRT SCKW  REVERSE,SACTSREV,A
 00037C C1D3D34040404040_           7800                       SCKW  ALL,SACTSALL
 0003A4 E3C5D4D7D6D9C1D9_           7815                       SCKW  TEMPORARY,SACTSTMP,A
 0003CC 4040404040404040_           7830                       SCKW  ,V(COLLPSH),PUSH
 0003F4 4040404040404040_           7845                       SCKW  ,V(NOTVALID)
                                    7860              *
                                    7861              *
 00041C 50E0 D000/9008_      00000  7862              SACTSALL PROC  ,
 USING  *,R7
 000436 9680 6000      00000        7901                       SET   SAFCLR              Show cleared Actives too
 00043A 18D8/9808 D004_             7907                       PEND  ,
 DROP   *,R7
                                    7927
 000448 50E0 D000/9008_      00000  7928              SACTSTMP PROC  ,
 USING  *,R7
 000462 D207 6001 705E 00001 004C0  7967                       MVC   SATYPE,=CL8'TEMP'   Show this Active file type
 000468 18D8/9808 D004_             7968                       PEND  ,
 DROP   *,R7
                                    7988
 000476 50E0 D000/9008_      00000  7989              SACTSREV PROC  ,
 USING  *,R7
 000490 9640 6000      00000        8028                       SET   SAFREV              Show in reverse order
 000494 18D8/9808 D004_             8034                       PEND  ,
 DROP   *,R7
                                    8054
 DROP   SACTSWA,R6                  8055                       DROP  R6
                                    8062                       QLTORG
1EDIT     (EDIT2193) (12:43) (15MAR04) SET ACTIVE Command                                                                   Page   12
0Current Usings:  (CP,R11) (CV,R12)
0Loc    Object Code    Addr1 Addr2  Stmt Lv Lineno    Source Statement           (Hibal 5, Asmedit 3.3)  HLASM R4.0  2004/03/15 12.43
+___    ______ ____    _____ _____  ____ __ ______    ______ _________
0000000                00000 00210  8092              SETACTWA RECORD BEGIN
 000000 00                          8100  1           SETAFLAG   FLAG
 SETAFLAG.SETAFOPT 80 ONES          8104  1                      FLAG  SETAFOPT            - At least one option given
 SETAFLAG.SETAFLOC 40 ONES          8109  1                      FLAG  SETAFLOCK           - Locked (in use)
 SETAFLAG.SETAFNLO 20 ONES          8114  1                      FLAG  SETAFNLOCK          - Unlocked (no longer in use)
 SETAFLAG.SETAFPRT 10 ONES          8119  1                      FLAG  SETAFPRT            - Protected
 SETAFLAG.SETAFNPR 08 ONES          8124  1                      FLAG  SETAFNPRT           - Unprotected
                                    8129  1
 000004                             8130  1           SETANUM    DS    F                   Active file number
 000008                             8131  1           SETATYPE   DS    CL8                 Active file type
 000010                             8132  1           SETANAME   DS    CL(L'AINANAME)      New Active file name
 000018                             8133  1           SETATITL   DS    CL(L'AINATITL)      New Active file title
                                    8134  1
 000068                             8135  1           SETAINF    DS    XL(L'AINFO)         Working AINFO area
 000210                00210 00210  8136                       END
-                                   8146              ¿þþþþþþþþþþþþþþþþþþþþþþþþþþþþþþþþþþþþþþþþþþþþþþþþþþþþþþþþþþþþþþþþþþþþþÜ
                                    8147              Ÿ                                                                     Ÿ
                                    8148              Ÿ  SETACT -- SET ACTIVE Command.                                      Ÿ
                                    8149              Ÿ                                                                     Ÿ
                                                      ¾þþþþþþþþþþþþþþþþþþþþþþþþþþþþþþþþþþþþþþþþþþþþþþþþþþþþþþþþþþþþþþþþþþþþþ»
0000502 50E0 D000/9008_      00000  8150              SETACT   XPROC SETACTWA
 USING  *,R7
 USING  SETACTWA-(4+36),R8
 00051C 4160 8028            00000  8201                       LA    R6,SETACTWA
 USING  SETACTWA,R6                 8202                       USING SETACTWA,R6
 000520 D7FF 6000 6000_00000 00000  8211                       CLEAR SETACTWA
                                    8220                       ¿þþþþþþþþþþþþþþþþþþþþþÜ
                                    8221                       Ÿ  Look for options.  Ÿ
                                    8222                       ¾þþþþþþþþþþþþþþþþþþþþþ»
 000532 5810 B08C/1B00_      0008C  8223                       SCAN  SETAPRT
 000584 58E0 7DAC/0DEE       012C8  8255                       SCANCHK
                                    8260
 00058A D603 6004 6004_00004 00004  8261                       IF    (SETANUM,Z),'MVC SETANUM,CPACTNO'  Set Current Active
                                    8283
 00059A 9180 6000/4710_00000        8284                       IF    ~SETAFOPT,BEGIN     No options specified...
 0005A2 4110 7E74/4100_      01390  8299  1                      TSEG  'Missing "SET ACTIVE" options.',,CR
 0005B4 4110 7E16/4100_      01332  8317  1                      TSEG  'Use the PICK command to select a different Active '
 0005C6 4110 7E91/4100_      013AD  8335  1                      ERROR 'file.'
 0005D2                             8342                       END
                                    8346                       ¿þþþþþþþþþþþþþþþþþþþþþþþþþþþþþþþþþþþþþþþþþþþÜ
                                    8347                       Ÿ  Update AINFO for specified Active file.  Ÿ
                                    8348                       ¾þþþþþþþþþþþþþþþþþþþþþþþþþþþþþþþþþþþþþþþþþþþ»
 0005D2 58F0 6004            00004  8349                       L     R15,SETANUM
 0005D6 4110 6068/4100_      00068  8350                       SETMSG SETAINF             Put AINFO here
 0005DE 58E0 7DB8/0DEE       012D4  8364                       VCALL ACTGINFO            Get AINFO
 0005E4 4780 70FA            00616  8368                       IF    NZ,BEGIN
 0005E8 4110 7E96/4100_      013B2  8379  1                      TSEG  'Active '
 0005FA 5810 6004/1B00_      00004  8397  1                      TNUM  L:SETANUM
 00060A 4110 7D84/4100_      012A0  8419  1                      ERROR ' does not exist.'
 000616                             8426                       END
                                    8430
1EDIT     (EDIT2193) (12:43) (15MAR04) SET ACTIVE Command                                                                   Page   13
0Current Usings:  (SETACTWA,R6) (*,R7) (SETACTWA-(4+36),R8) (CP,R11) (CV,R12)
0Loc    Object Code    Addr1 Addr2  Stmt Lv Lineno    Source Statement           (Hibal 5, Asmedit 3.3)  HLASM R4.0  2004/03/15 12.43
+___    ______ ____    _____ _____  ____ __ ______    ______ _________
0000616 70FE/47F0 71C4 00616 005E6  8431                       ELSE  BEGIN               We have the AINFO...
 00061A 4140 6068            00068  8442  1                      LA    R4,SETAINF
 USING  AINFO,R4                    8443  1                      WITH  (AINFO,R4)
 00061E D607 6010 6010_00010 00010  8456  1                      IF    (SETANAME,NZ),'MVC AINANAME,SETANAME'
 00062E D64F 6018 6018_00018 00018  8478  1                      IF    (SETATITL,NZ),'MVC AINATITL,SETATITL'
 00063E 9140 6000/47E0_00000        8500  1                      IF    SETAFLOCK,'SET AINAFLOCK'     Locked
 00064A 9120 6000/47E0_00000        8526  1                      IF    SETAFNLOCK,'CLEAR AINAFLOCK'  Unlocked
 000656 9110 6000/47E0_00000        8553  1                      IF    SETAFPRT,'SET AINAFPRT'     Protected
 000662 9108 6000/47E0_00000        8579  1                      IF    SETAFNPRT,'CLEAR AINAFPRT'  Unprotected
                                    8606  1
 00066E D607 6008 6008_00008 00008  8607  1                      IF    (SETATYPE,NZ),BEGIN  Switch active file types...
 000678 9180 403B/4710_0003B        8623  2                        IF    ~AINAFCLR,BEGIN     Keep counts accurate...
 000680 D503 7DC0 4008_012DC 00008  8638  3                          IF    (AINATYPE,EQ,'TEMP'),'DECR R15,CPATTEMP'
 000694 717C/47F0 7186_00694 00688  8665  3                          ELSE  'DECR R15,CPATTEXT'
                                    8686  3
 0006A2 D503 7DC0 6008_012DC 00008  8687  3                          IF    (SETATYPE,EQ,'TEMP'),'INCR R15,CPATTEMP'
 0006B8 71A0/47F0 71AC_006B8 006AA  8715  3                          ELSE  'INCR R15,CPATTEXT'
 0006C8                             8737  2                        END
                                    8741  2
 0006C8 D207 4008 6008 00008 00008  8742  2                        MVC   AINATYPE,SETATYPE   Update Active file type
 0006CE                             8743  1                      END
                                    8747  1
 0006CE 58F0 6004            00004  8748  1                      L     R15,SETANUM
 0006D2 4110 6068/4100_      00068  8749  1                      SETMSG SETAINF
 0006DA 58E0 7DC4/0DEE       012E0  8763  1                      VCALL ACTSINFO            Update AINFO
 DROP   AINFO,R4                    8767                       END
                                    8776
 0006E0 47F0 C7DE            007DE  8777                       B     CVNEXT
 0006E4 18D8/9808 D004_             8778                       PEND  ,
 DROP   SETACTWA-(4+36),R8
 DROP   *,R7
-                                   8804              ***
                                    8805              ***  SET ACTIVE Options
                                    8806              ***
 0006F4 4040404040404040_           8807              SETAPRT  SCKW  ,SETXNUM,PI,999999
 00071C D5C1D4C540404040_           8822                       SCKW  NAME,SETXNAME,(A,P)
 000744 E3C9E3D3C5404040_           8837                       SCKW  TITLE,SETXTITL,(A,P)
 00076C E3C5D4D7D6D9C1D9_           8852                       SCKW  TEMPORARY,SETXTEMP,A
 000794 D5D6E3C5D4D7D6D9_           8867                       SCKW  NOTEMPORARY,SETXTEXT,A
 0007BC E3C5E7E340404040_           8882                       SCKW  TEXT,SETXTEXT,A
 0007E4 D9C5C3D6E5C5D9E8_           8897                       SCKW  RECOVERY,SETXTEXT,A       !!! Remove me !!!
 00080C D5D6D9C5C3D6E5C5_           8912                       SCKW  NORECOVERY,SETXTEMP,A     !!! Remove me !!!
 000834 C4C9E2D7D3C1E840_           8927                       SCKW  DISPLAY,SETXTEXT,A        !!! Remove me !!!
 00085C D5D6C4C9E2D7D3C1_           8942                       SCKW  NODISPLAY,SETXTEMP,A      !!! Remove me !!!
 000884 D7D9D6E3C5C3E3C5_           8957                       SCKW  PROTECTED,SETXPRT,A
 0008AC E4D5D7D9D6E3C5C3_           8972                       SCKW  UNPROTECTED,SETXNPRT,A
 0008D4 D3D6C3D240404040_           8987                       SCKW  LOCK,SETXLOCK,A
 0008FC E4D5D3D6C3D24040_           9002                       SCKW  UNLOCK,SETXNLCK,A
 000924 4040404040404040_           9017                       SCKW  ,V(NOTVALID)
                                    9032
 00094C 50E0 D000/9008_      00000  9033              SETXNUM  PROC  ,
 USING  *,R7
1EDIT     (EDIT2193) (12:43) (15MAR04) SET ACTIVE Command                                                                   Page   14
0Current Usings:  (SETACTWA,R6) (*,R7) (CP,R11) (CV,R12)
0Loc    Object Code    Addr1 Addr2  Stmt Lv Lineno    Source Statement           (Hibal 5, Asmedit 3.3)  HLASM R4.0  2004/03/15 12.43
+___    ______ ____    _____ _____  ____ __ ______    ______ _________
0000966 5000 6004            00004  9072                       ST    R0,SETANUM
 00096A 18D8/9808 D004_             9073                       PEND  ,
 DROP   *,R7
                                    9093
 000978 50E0 D000/9008_      00000  9094              SETXNAME PROC  ,
 USING  *,R7
 000992 957D 1000/4780_00000        9133                       IF    ((@R1,EQ,''''),OR,(@R1,EQ,'"')),BEGIN
 0009A2 58E0 7952/0DEE       012E4  9164  1                      VCALL NOTVALID
 0009A8                             9168                       END
 0009A8 58F0 B08C/4110_      0008C  9172                       SCUPCASE SETANAME
 0009BA 9680 6000      00000        9193                       SET   SETAFOPT
 0009BE 1BFF                        9199                       CLEAR R15
 0009C0 18D8/9808 D004_             9203                       PEND  ,
 DROP   *,R7
                                    9223
 0009CE 50E0 D000/9008_      00000  9224              SETXTEMP PROC  ,
 USING  *,R7
 0009E8 D207 6008 78C8 00008 012B0  9263                       MVC   SETATYPE,=CL8'TEMP'
 0009EE 9680 6000      00000        9264                       SET   SETAFOPT
 0009F2 1BFF                        9270                       CLEAR R15
 0009F4 18D8/9808 D004_             9274                       PEND  ,
 DROP   *,R7
                                    9294
 000A02 50E0 D000/9008_      00000  9295              SETXTEXT PROC  ,
 USING  *,R7
 000A1C D207 6008 789C 00008 012B8  9334                       MVC   SETATYPE,=CL8'TEXT'
 000A22 9680 6000      00000        9335                       SET   SETAFOPT
 000A26 1BFF                        9341                       CLEAR R15
 000A28 18D8/9808 D004_             9345                       PEND  ,
 DROP   *,R7
                                    9365
 000A36 50E0 D000/9008_      00000  9366              SETXTYPE PROC  ,
 USING  *,R7
 000A50 957D 1000/4780_00000        9405                       IF    ((@R1,EQ,''''),OR,(@R1,EQ,'"')),BEGIN
 000A60 58E0 7894/0DEE       012E4  9436  1                      VCALL NOTVALID
 000A66                             9440                       END
 000A66 58F0 B08C/4110_      0008C  9444                       SCUPCASE SETATYPE
 000A78 9680 6000      00000        9465                       SET   SETAFOPT
 000A7C 1BFF                        9471                       CLEAR R15
 000A7E 18D8/9808 D004_             9475                       PEND  ,
 DROP   *,R7
                                    9495
 000A8C 50E0 D000/9008_      00000  9496              SETXTITL PROC  ,
 USING  *,R7
 000AA6 58E0 7846/0DEE       012EC  9535                       VCALL CKQUOTES
 000AAC 58F0 B08C/4110_      0008C  9539                       SCDQUOTE SETATITL
 000ABE 9680 6000      00000        9560                       SET   SETAFOPT
 000AC2 1BFF                        9566                       CLEAR R15
 000AC4 18D8/9808 D004_             9570                       PEND  ,
 DROP   *,R7
                                    9590
 000AD2 50E0 D000/9008_      00000  9591              SETXPRT  PROC  ,
 USING  *,R7
 000AEC 9610 6000      00000        9630                       SET   SETAFPRT
1EDIT     (EDIT2193) (12:43) (15MAR04) SET ACTIVE Command                                                                   Page   15
0Current Usings:  (SETACTWA,R6) (*,R7) (CP,R11) (CV,R12)
0Loc    Object Code    Addr1 Addr2  Stmt Lv Lineno    Source Statement           (Hibal 5, Asmedit 3.3)  HLASM R4.0  2004/03/15 12.43
+___    ______ ____    _____ _____  ____ __ ______    ______ _________
0000AF0 94F7 6000      00000        9636                       CLEAR SETAFNPRT
 000AF4 9680 6000      00000        9643                       SET   SETAFOPT
 000AF8 18D8/9808 D004_             9649                       PEND  ,
 DROP   *,R7
                                    9669
 000B06 50E0 D000/9008_      00000  9670              SETXNPRT PROC  ,
 USING  *,R7
 000B20 94EF 6000      00000        9709                       CLEAR SETAFPRT
 000B24 9608 6000      00000        9716                       SET   SETAFNPRT
 000B28 9680 6000      00000        9722                       SET   SETAFOPT
 000B2C 18D8/9808 D004_             9728                       PEND  ,
 DROP   *,R7
                                    9748
 000B3A 50E0 D000/9008_      00000  9749              SETXLOCK PROC  ,
 USING  *,R7
 000B54 9640 6000      00000        9788                       SET   SETAFLOCK
 000B58 94DF 6000      00000        9794                       CLEAR SETAFNLOCK
 000B5C 9680 6000      00000        9801                       SET   SETAFOPT
 000B60 18D8/9808 D004_             9807                       PEND  ,
 DROP   *,R7
                                    9827
 000B6E 50E0 D000/9008_      00000  9828              SETXNLCK PROC  ,
 USING  *,R7
 000B88 94BF 6000      00000        9867                       CLEAR SETAFLOCK
 000B8C 9620 6000      00000        9874                       SET   SETAFNLOCK
 000B90 9680 6000      00000        9880                       SET   SETAFOPT
 000B94 18D8/9808 D004_             9886                       PEND  ,
 DROP   *,R7
                                    9906
 DROP   SETACTWA,R6                 9907                       DROP  R6
1EDIT     (EDIT2193) (12:43) (15MAR04) OPEN Command                                                                         Page   16
0Current Usings:  (CP,R11) (CV,R12)
0Loc    Object Code    Addr1 Addr2  Stmt Lv Lineno    Source Statement           (Hibal 5, Asmedit 3.3)  HLASM R4.0  2004/03/15 12.43
+___    ______ ____    _____ _____  ____ __ ______    ______ _________
0000000                00000 00064  9915              OPENWA   RECORD BEGIN
 000000                             9923  1           OPENNAME   DS    CL(L'CPANAME)       Active file name
 000008                             9924  1           OPENTYPE   DS    CL(L'CPATYPE)       Active file type
 000010                             9925  1           OPENTITL   DS    CL(L'CPATITL)       Active file title
                                    9926  1
 000060                             9927  1           OPENDUPN   DS    F                   Duplicate this Active file
 000064                00064 00064  9928                       END
-                                   9938              ¿þþþþþþþþþþþþþþþþþþþþþþþþþþþþþþþþþþþþþþþþþþþþþþþþþþþþþþþþþþþþþþþþþþþþþÜ
                                    9939              Ÿ                                                                     Ÿ
                                    9940              Ÿ  OPEN -- OPEN Command.                                              Ÿ
                                    9941              Ÿ                                                                     Ÿ
                                                      ¾þþþþþþþþþþþþþþþþþþþþþþþþþþþþþþþþþþþþþþþþþþþþþþþþþþþþþþþþþþþþþþþþþþþþþ»
0000BA2 50E0 D000/9008_      00000  9942              OPEN     XPROC OPENWA
 USING  *,R7
 USING  OPENWA-(4+36),R8
 000BBC 4160 8028            00000  9993                       LA    R6,OPENWA
 USING  OPENWA,R6                   9994                       USING OPENWA,R6
 000BC0 D763 6000 6000 00000 00000 10003                       CLEAR OPENWA
                                   10010                       ¿þþþþþþþþþþþþþþþþþþþþþþþþþþþþþþþþþþþþþþþþþþþþþþþþþþþþþþþþþþþþþþÜ
                                   10011                       Ÿ  First do compatability check for "OPEN front-end" command.  Ÿ
                                   10012                       ¾þþþþþþþþþþþþþþþþþþþþþþþþþþþþþþþþþþþþþþþþþþþþþþþþþþþþþþþþþþþþþþ»
 000BC6 58E0 B08C/D2AF_      0008C 10013                       SCPUSH ,
 000BD4 5810 B08C/1B00_      0008C 10019                       SCAN  ,
 000C22 58E0 770C/0DEE       012C8 10050                       SCANCHK ,
 000C28 1200/47D0 70B8             10055                       IF    (R0,POS),BEGIN
 000C2E 5900 7738/4740_      012F4 10069  1                      IF    (R0,LT,3),EXIT
 000C36 D501 77A8 1000_01364 00000 10089  1                      IF    ((@R1,EQ,'11'),OR,(@R1,EQ,'ALF')),BEGIN
 000C4A 58E0 B08C/4BD0_      0008C 10120  2                        SCPOP ,
 000C58 4110 77AC/4100_      01368 10126  2                        TSEG  'MOPEN assumed.',,WR
 000C6A 58E0 7740/0DEE       012FC 10144  2                        VCALL MOPEN
 000C70 47F0 C7DE            007DE 10148  2                        B     CVNEXT
 000C74                            10149  1                      END
 000C74                            10153                       END
 000C74 58E0 B08C/4BD0_      0008C 10157                       SCPOP ,
                                   10163              *
                                   10164              * SCAN ACTIVE FILE NAME
                                   10165              *
                                   10166                       COMMENT                   SCAN ACTIVE FILE NAME
 000C82 5810 B08C/1B00_      0008C 10167                       SCAN
 000CD0 58E0 770C/0DEE       012C8 10198                       SCANCHK
                                   10203
                                   10204                       COMMENT                   IF GOT NAME, SAVE IT
 000CD6 1200/47D0 719A             10205                       IF    (R0,POS),BEGIN
                                   10219  1                      COMMENT                   '*' IS NULL NAME
 000CDC 5900 7744/4770_      01300 10220  1                      IF    ((R0,EQ,1),AND,(@R1,EQ,'*')),EXIT  Place holder
                                   10255  1                      COMMENT                   IF NAME TOO LONG, TRY SPIRES
 000CEC 5900 7748/47D0_      01304 10256  1                      IF    (R0,GT,L'OPENNAME),BEGIN
 000CF4 58E0 774C/0DEE       01308 10273  2                        VCALL ORVCPASS            (For "OPEN TRANSACTION GROUP")
 000CFA 5900 7750/47D0_      0130C 10277  2                        CEIL  R0,16
 000D06 41F0 B050/58E0_      00050 10296  2                        TSEG  (R1),(R0)
 000D10 4110 7800/4100_      013BC 10320  2                        ERROR ': Active file name is too long.'
1EDIT     (EDIT2193) (12:43) (15MAR04) OPEN Command                                                                         Page   17
0Current Usings:  (OPENWA,R6) (*,R7) (OPENWA-(4+36),R8) (CP,R11) (CV,R12)
0Loc    Object Code    Addr1 Addr2  Stmt Lv Lineno    Source Statement           (Hibal 5, Asmedit 3.3)  HLASM R4.0  2004/03/15 12.43
+___    ______ ____    _____ _____  ____ __ ______    ______ _________
0000D1C                            10327  1                      END
                                   10331  1                      COMMENT                   SAVE AND CHECK NAME
 000D1C 58F0 B08C/4110_      0008C 10332  1                      SCUPCASE OPENNAME
 000D2E 5810 B08C/4111_      0008C 10353  1                      SCUPTOK  (R1)
 000D36 58E0 7754/0DEE       01310 10357  1                      VCALL CHARCHKA            Make sure name is ok
 000D3C 4780 719A            00D56 10361  1                      IF    NZ,BEGIN
 000D40 41F0 B050/58E0_      00050 10372  2                        TSEG  (R1),(R0)
 000D4A 4110 781F/4100_      013DB 10396  2                        ERROR ': invalid characters in Active file type.'
 000D56                            10403  1                      END
 000D56                            10407                       END
                                   10411              *
                                   10412              * Look for other OPEN options.
                                   10413              *
 000D56 5810 B08C/1B00_      0008C 10414                       SCAN  OPENPRT             OPEN Command options
 000DA8 58E0 770C/0DEE       012C8 10446                       SCANCHK
                                   10451                       ¿þþþþþþþþþþþþþþþþþþþþþþþþþþþþþþþþþþþþþþþþþþþþþþþþþþþþþþþþþþÜ
                                   10452                       Ÿ  Make the current active file explicitly defined, so we  Ÿ
                                   10453                       Ÿ    will never return to it automatically when an Active  Ÿ
                                   10454                       Ÿ    file is cleared.                                      Ÿ
                                   10455                       ¾þþþþþþþþþþþþþþþþþþþþþþþþþþþþþþþþþþþþþþþþþþþþþþþþþþþþþþþþþþ»
 000DAE 9620 B5C3      005C3       10456                       SET   CPAFDEF             Active is explicitly defined
                                   10462
 000DB2 58E0 775C/0DEE       01318 10463                       VCALL ACTOPEN             Open a new Active file
                                   10467
 000DB8 D607 6000 6000_00000 00000 10468                       IF    (OPENNAME,NZ),'MVC CPANAME,OPENNAME'
 000DC8 D607 6008 6008_00008 00008 10490                       IF    (OPENTYPE,NZ),'MVC CPATYPE,OPENTYPE'
 000DD8 D64F 6010 6010_00010 00010 10512                       IF    (OPENTITL,NZ),'MVC CPATITL,OPENTITL'
                                   10534
 000DE8 58F0 6060/12FF_      00060 10535                       IF    ('LT R15,OPENDUPN',NZ),'VCALL ACTDUP'
                                   10560
 000DF8 58E0 7764/0DEE       01320 10561                       VCALL ACTVREST            Set current view position
                                   10565
 000DFE 47F0 C7DE            007DE 10566                       B     CVNEXT
 000E02 18D8/9808 D004_            10567                       PEND  ,
 DROP   OPENWA-(4+36),R8
 DROP   *,R7
-                                  10593              ***
                                   10594              ***  OPEN Command Options.
                                   10595              ***
 000E10 E3C9E3D3C5404040_          10596              OPENPRT  SCKW  TITLE,OTITLE,(A,P)
 000E38 E3C5D4D7D6D9C1D9_          10611                       SCKW  TEMPORARY,OTEMP,A
 000E60 D5D6E3C5D4D7D6D9_          10626                       SCKW  NOTEMPORARY,OTEXT,A
 000E88 E3C5E7E340404040_          10641                       SCKW  TEXT,OTEXT,A
 000EB0 D9C5C3D6E5C5D9E8_          10656                       SCKW  RECOVERY,OTEXT,A    !!! Delete me !!!
 000ED8 D5D6D9C5C3D6E5C5_          10671                       SCKW  NORECOVERY,OTEMP,A  !!! Delete me !!!
 000F00 C4C9E2D7D3C1E840_          10686                       SCKW  DISPLAY,OTEXT,A     !!! Delete me !!!
 000F28 D5D6C4C9E2D7D3C1_          10701                       SCKW  NODISPLAY,OTEMP,A   !!! Delete me !!!
 000F50 C4E4D7D3C9C3C1E3_          10716                       SCKW  DUPLICATE,ODUP,(A,P,PI),999999
 000F78 4040404040404040_          10731                       SCKW  ,V(NOTVALID)
                                   10746              *
                                   10747              *
 000FA0 50E0 D000/9008_      00000 10748              OTEXT    PROC
1EDIT     (EDIT2193) (12:43) (15MAR04) OPEN Command                                                                         Page   18
0Current Usings:  (OPENWA,R6) (*,R7) (CP,R11) (CV,R12)
0Loc    Object Code    Addr1 Addr2  Stmt Lv Lineno    Source Statement           (Hibal 5, Asmedit 3.3)  HLASM R4.0  2004/03/15 12.43
+___    ______ ____    _____ _____  ____ __ ______    ______ _________
0USING  *,R7
 000FBA D207 6008 72FE 00008 012B8 10787                       MVC   OPENTYPE,=CL8'TEXT'
 000FC0 18D8/9808 D004_            10788                       PEND  ,
 DROP   *,R7
                                   10808
 000FCE 50E0 D000/9008_      00000 10809              OTEMP    PROC  ,
 USING  *,R7
 000FE8 D207 6008 72C8 00008 012B0 10848                       MVC   OPENTYPE,=CL8'TEMP'
 000FEE 18D8/9808 D004_            10849                       PEND  ,
 DROP   *,R7
                                   10869
 000FFC 50E0 D000/9008_      00000 10870              OTITLE   PROC  ,
 USING  *,R7
 001016 58E0 72D6/0DEE       012EC 10909                       VCALL CKQUOTES
 00101C 58F0 B08C/4110_      0008C 10913                       SCDQUOTE OPENTITL
 00102E 1BFF                       10934                       CLEAR R15
 001030 18D8/9808 D004_            10938                       PEND  ,
 DROP   *,R7
                                   10958
 00103E 50E0 D000/9008_      00000 10959              ODUP     PROC  ,
 USING  *,R7
 001058 50F0 6060            00060 10998                       ST    R15,OPENDUPN
 00105C 18D8/9808 D004_            10999                       PEND  ,
 DROP   *,R7
                                   11019
 DROP   OPENWA,R6                  11020                       DROP  R6
1EDIT     (EDIT2193) (12:43) (15MAR04) CLOSE Command                                                                        Page   19
0Current Usings:  (CP,R11) (CV,R12)
0Loc    Object Code    Addr1 Addr2  Stmt Lv Lineno    Source Statement           (Hibal 5, Asmedit 3.3)  HLASM R4.0  2004/03/15 12.43
+___    ______ ____    _____ _____  ____ __ ______    ______ _________
0                                  11028              ¿þþþþþþþþþþþþþþþþþþþþþþþþþþþþþþþþþþþþþþþþþþþþþþþþþþþþþþþþþþþþþþþþþþþþþÜ
                                   11029              Ÿ                                                                     Ÿ
                                   11030              Ÿ  CLOSE -- CLOSE Command.                                            Ÿ
                                   11031              Ÿ                                                                     Ÿ
                                                      ¾þþþþþþþþþþþþþþþþþþþþþþþþþþþþþþþþþþþþþþþþþþþþþþþþþþþþþþþþþþþþþþþþþþþþþ»
000106A 50E0 D000/9008_      00000 11032              CLOSE    XPROC ,
 USING  *,R7
                                   11072                       ¿þþþþþþþþþþþþþþþþþþþþþþþþþþþþþþþþþþþþþþþþþþþþþþþþþþþþþþþþþþþþþþþÜ
                                   11073                       Ÿ  First do compatability check for "CLOSE front-end" command.  Ÿ
                                   11074                       ¾þþþþþþþþþþþþþþþþþþþþþþþþþþþþþþþþþþþþþþþþþþþþþþþþþþþþþþþþþþþþþþþ»
 001084 58E0 B08C/D2AF_      0008C 11075                       SCPUSH
 001092 5810 B08C/1B00_      0008C 11081                       SCAN
 0010E0 58E0 7244/0DEE       012C8 11112                       SCANCHK
 0010E6 1200/47D0 70AE             11117                       IF    (R0,POS),BEGIN
 0010EC 5900 7270/4740_      012F4 11131  1                      IF    (R0,LT,3),EXIT
 0010F4 D501 72E0 1000_01364 00000 11151  1                      IF    ((@R1,EQ,'11'),OR,(@R1,EQ,'ALF')),BEGIN
 001108 58E0 B08C/4BD0_      0008C 11182  2                        SCPOP
 001116 4110 7380/4100_      01404 11188  2                        TSEG  'MCLOSE assumed.',,WR
 001128 58E0 72A0/0DEE       01324 11206  2                        VCALL MCLOSE
 00112E 47F0 C7DE            007DE 11210  2                        B     CVNEXT
 001132                            11211  1                      END
 001132                            11215                       END
 001132 58E0 B08C/4BD0_      0008C 11219                       SCPOP
                                   11225
 001140 5810 B08C/1B00_      0008C 11226                       SCAN  CLOSEPRT            CLOSE Command options
 001192 58E0 7244/0DEE       012C8 11258                       SCANCHK
                                   11263              *
                                   11264              *
 001198 9108 BD55/47E0_00D55       11265                       IF    CPFKEEP,BEGIN
 0011A0 4110 72F2/4100_      01376 11280  1                      ERROR 'NOCLEAR is not valid here.'
 0011AC                            11287                       END
                                   11291
 0011AC 58E0 72A8/0DEE       0132C 11292                       VCALL ACTCLOSE            Close current Active file
                                   11296
 0011B2 58E0 729C/0DEE       01320 11297                       VCALL ACTVREST            Set current view position
                                   11301
 0011B8 47F0 C7DE            007DE 11302                       B     CVNEXT
 0011BC 18D8/9808 D004_            11303                       PEND  ,
 DROP   *,R7
-                                  11324              ***
                                   11325              ***  CLOSE Command Options.
                                   11326              ***
 0011CC 4040404040404040_          11327              CLOSEPRT SCKW  ,V(CLRPSH),PUSH
 0011F4 E3D9C1D5E2C1C3E3_          11342                       SCKW  TRANSACTION,CLCHKORV,A
 00121C C1D9C5C140404040_          11357                       SCKW  AREA,CLCHKORV,A
 001244 4040404040404040_          11372                       SCKW  ,V(NOTVALID)
                                   11387              *
                                   11388              *  IF 'CLOSE AREA' OR 'CLOSE TRANSACTION', PASS TO SPIRES
                                   11389              *
 00126C 50E0 D000/9008_      00000 11390              CLCHKORV PROC  ,
 USING  *,R7
1EDIT     (EDIT2193) (12:43) (15MAR04) CLOSE Command                                                                        Page   20
0Current Usings:  (*,R7) (CP,R11) (CV,R12)
0Loc    Object Code    Addr1 Addr2  Stmt Lv Lineno    Source Statement           (Hibal 5, Asmedit 3.3)  HLASM R4.0  2004/03/15 12.43
+___    ______ ____    _____ _____  ____ __ ______    ______ _________
0001286 58E0 7082/0DEE       01308 11429                       VCALL ORVCPASS            IF VALID SPIRES, DOES NOT RETURN
 00128C 58E0 705E/0DEE       012E4 11433                       VCALL NOTVALID            OTHERWISE INVALID COMMAND
 001292 18D8/9808 D004_            11437                       PEND  ,
 DROP   *,R7
                                   11457
                                   11458                       QLTORG
1EDIT     (EDIT2193) (12:43) (15MAR04) PICK Command                                                                         Page   21
0Current Usings:  (CP,R11) (CV,R12)
0Loc    Object Code    Addr1 Addr2  Stmt Lv Lineno    Source Statement           (Hibal 5, Asmedit 3.3)  HLASM R4.0  2004/03/15 12.43
+___    ______ ____    _____ _____  ____ __ ______    ______ _________
0000000                00000 001B0 11515              PICKWA   RECORD BEGIN
 000000 00                         11523  1           PICKFLAG   FLAG
 PICKFLAG.PICKFPRM 80 ONES         11527  1                      FLAG  PICKFPRM            - Parameter specified
 PICKFLAG.PICKFPRV 40 ONES         11532  1                      FLAG  PICKFPRV            - Previous
 PICKFLAG.PICKFNXT 20 ONES         11537  1                      FLAG  PICKFNXT            - Next
 PICKFLAG.PICKFFIR 10 ONES         11542  1                      FLAG  PICKFFIR            - First
 PICKFLAG.PICKFLST 08 ONES         11547  1                      FLAG  PICKFLST            - Last
 PICKFLAG.PICKFNOP 04 ONES         11552  1                      FLAG  PICKFNOPROMPT       - Don't do prompting
 PICKFLAG.PICKFNOV 02 ONES         11557  1                      FLAG  PICKFNOVERIFY       - Allow unclearing w/o checking
                                   11562  1
 000004                            11563  1           PICKNUM    DS    F                   Explicit Active number
                                   11564  1
 000008                            11565  1           PICKAINF   DS    XL(L'AINFO)         Working AINFO area
 0001B0                001B0 001B0 11566                       END
-                                  11576              ¿þþþþþþþþþþþþþþþþþþþþþþþþþþþþþþþþþþþþþþþþþþþþþþþþþþþþþþþþþþþþþþþþþþþþþÜ
                                   11577              Ÿ                                                                     Ÿ
                                   11578              Ÿ  PICK -- PICK Command.                                              Ÿ
                                   11579              Ÿ                                                                     Ÿ
                                                      ¾þþþþþþþþþþþþþþþþþþþþþþþþþþþþþþþþþþþþþþþþþþþþþþþþþþþþþþþþþþþþþþþþþþþþþ»
0001414 50E0 D000/9008_      00000 11580              PICK     XPROC PICKWA
 USING  *,R7
 USING  PICKWA-(4+36),R8
 00142E 4160 8028            00000 11631                       LA    R6,PICKWA
 USING  PICKWA,R6                  11632                       USING PICKWA,R6
 001432 D7FF 6000 6000_00000 00000 11641                       CLEAR PICKWA
                                   11649
 00143E 5810 B08C/1B00_      0008C 11650                       SCAN  PICKPRT             Scan options
 001490 58E0 76E2/0DEE       01B10 11682                       SCANCHK
                                   11687                       ¿þþþþþþþþþþþþþþþþÜ
                                   11688                       Ÿ  Pick number.  Ÿ
                                   11689                       ¾þþþþþþþþþþþþþþþþ»
 001496 58F0 6004/12FF       00004 11690                       LT    R15,PICKNUM         Any explicit selection?
 00149C 4780 7142            01570 11694                       IF    NZ,BEGIN            Yes...
 0014A0 4110 6008/4100_      00008 11705  1                      SETMSG PICKAINF            Working AINFO area
 0014A8 58E0 76E6/0DEE       01B14 11719  1                      VCALL ACTGINFO            Get AINFO for this Active file
 0014AE 4780 70B2            014E0 11723  1                      IF    NZ,BEGIN
 0014B2 4110 77BA/4100_      01BE8 11734  2                        TSEG  'Active '
 0014C4 5810 6004/1B00_      00004 11752  2                        TNUM  L:PICKNUM
 0014D4 4110 76A2/4100_      01AD0 11774  2                        ERROR ' does not exist.'
 0014E0                            11781  1                      END
                                   11785  1
 0014E0 4120 6008            00008 11786  1                      LA    R2,PICKAINF
 USING  AINFO,R2                   11787  1                      WITH  (AINFO,R2),BEGIN
 0014E4 9180 203B/47E0_0003B       11801  2                        IF    AINAFCLR,BEGIN
 0014EC 9102 6000/4710_00000       11816  3                          IF    PICKFNOVERIFY,EXIT
 0014F4 4110 77BA/4100_      01BE8 11834  3                          TSEG  'Active '
 001506 5810 6004/1B00_      00004 11852  3                          TNUM  L:PICKNUM
 001516 4110 C4D8/4100_      004D8 11874  3                          TSEG  CVBLANKS,1
 001528 4110 2000/4100_      00000 11904  3                          TSEG  AINANAME,,T
 00153A 4110 777C/4100_      01BAA 11932  3                          SETMSG ' has been cleared.'
 001542 9104 6000/4710_00000       11936  3                          IF    PICKFNOPROMPT,CVERRMSG
1EDIT     (EDIT2193) (12:43) (15MAR04) PICK Command                                                                         Page   22
0Current Usings:  (AINFO,R2) (PICKWA,R6) (*,R7) (PICKWA-(4+36),R8) (CP,R11) (CV,R12)
0Loc    Object Code    Addr1 Addr2  Stmt Lv Lineno    Source Statement           (Hibal 5, Asmedit 3.3)  HLASM R4.0  2004/03/15 12.43
+___    ______ ____    _____ _____  ____ __ ______    ______ _________
0                                  11954  3
 00154A 41F0 B050/58E0_      00050 11955  3                          TSEG  (R1),(R0),CR
 001554 4110 77C1/4100_      01BEF 11979  3                          SETMSG 'Do you want to pick it anyway'
 00155C 58E0 76FA/0DEE       01B28 11983  3                          VCALL YESREQ
 001562                            11987  2                        END
 DROP   AINFO,R2                   11991  1                      END
                                   11999  1
 001562 58F0 6004            00004 12000  1                      L     R15,PICKNUM
 001566 58E0 76FE/0DEE       01B2C 12001  1                      VCALL ACTPICK
 00156C 47F0 71F4            01622 12005  1                      B     PICKDONE
 001570                            12006                       END
                                   12010                       ¿þþþþþþþþþþþþþþþþþþÜ
                                   12011                       Ÿ  Pick previous.  Ÿ
                                   12012                       ¾þþþþþþþþþþþþþþþþþþ»
 001570 9140 6000/47E0_00000       12013                       IF    PICKFPRV,BEGIN      Pick previous...
 001578 4110 B590            00590 12028  1                      LA    R1,CPATYPE
 00157C 58F0 B57C            0057C 12029  1                      L     R15,CPACTNO
 001580 58E0 7702/0DEE       01B30 12030  1                      VCALL ACTPREV             Find previous Active file
 001586 4770 7168            01596 12034  1                      IF    Z,BEGIN
 00158A 4110 76B2/4100_      01AE0 12045  2                        ERROR 'No previous Active file to pick.'
 001596                            12052  1                      END
 001596 58E0 76FE/0DEE       01B2C 12056  1                      VCALL ACTPICK             Pick it
 00159C 47F0 71F4            01622 12060  1                      B     PICKDONE
 0015A0                            12061                       END
                                   12065                       ¿þþþþþþþþþþþþþþÜ
                                   12066                       Ÿ  Pick next.  Ÿ
                                   12067                       ¾þþþþþþþþþþþþþþ»
 0015A0 9120 6000/47E0_00000       12068                       IF    PICKFNXT,BEGIN      Pick next...
 0015A8 4110 B590            00590 12083  1                      LA    R1,CPATYPE
 0015AC 58F0 B57C            0057C 12084  1                      L     R15,CPACTNO
 0015B0 58E0 7706/0DEE       01B34 12085  1                      VCALL ACTNEXT             Find next Active file
 0015B6 4770 7198            015C6 12089  1                      IF    Z,BEGIN
 0015BA 4110 770A/4100_      01B38 12100  2                        ERROR 'No next Active file to pick.'
 0015C6                            12107  1                      END
 0015C6 58E0 76FE/0DEE       01B2C 12111  1                      VCALL ACTPICK             Pick it
 0015CC 47F0 71F4            01622 12115  1                      B     PICKDONE
 0015D0                            12116                       END
                                   12120                       ¿þþþþþþþþþþþþþþþÜ
                                   12121                       Ÿ  Pick first.  Ÿ
                                   12122                       ¾þþþþþþþþþþþþþþþ»
 0015D0 9110 6000/47E0_00000       12123                       IF    PICKFFIR,BEGIN      Pick first...
 0015D8 1BFF                       12138  1                      CLEAR R15
 0015DA 4110 B590            00590 12142  1                      LA    R1,CPATYPE
 0015DE 58E0 7726/0DEE       01B54 12143  1                      VCALL ACTFIRST            Find first possible Active file
 0015E4 4780 71C0/58E0_      015EE 12147  1                      IF    NZ,'VCALL ACTPICK'  Pick it
 0015EE 47F0 71F4            01622 12167  1                      B     PICKDONE
 0015F2                            12168                       END
                                   12172                       ¿þþþþþþþþþþþþþþÜ
                                   12173                       Ÿ  Pick last.  Ÿ
                                   12174                       ¾þþþþþþþþþþþþþþ»
 0015F2 9108 6000/47E0_00000       12175                       IF    PICKFLST,BEGIN      Pick last...
 0015FA 58F0 772A            01B58 12190  1                      L     R15,=F'-1'
 0015FE 4110 B590            00590 12191  1                      LA    R1,CPATYPE
 001602 58E0 772E/0DEE       01B5C 12192  1                      VCALL ACTLAST             Find last possible Active file
1EDIT     (EDIT2193) (12:43) (15MAR04) PICK Command                                                                         Page   23
0Current Usings:  (PICKWA,R6) (*,R7) (PICKWA-(4+36),R8) (CP,R11) (CV,R12)
0Loc    Object Code    Addr1 Addr2  Stmt Lv Lineno    Source Statement           (Hibal 5, Asmedit 3.3)  HLASM R4.0  2004/03/15 12.43
+___    ______ ____    _____ _____  ____ __ ______    ______ _________
0001608 4780 71E4/58E0_      01612 12196  1                      IF    NZ,'VCALL ACTPICK'  Pick it
 001612 47F0 71F4            01622 12216  1                      B     PICKDONE
 001616                            12217                       END
                                   12221
 001616 4110 7732/4100_      01B60 12222                       ERROR 'Invalid pick option.'  (Can't happen???)
                                   12229                       ¿þþþþþþþþþþþþþþÜ
                                   12230                       Ÿ  Finish up.  Ÿ
                                   12231                       ¾þþþþþþþþþþþþþþ»
 001622 58E0 7746/0DEE       01B74 12232              PICKDONE VCALL ACTVREST            Restore view position
 001628 47F0 C7DE            007DE 12236                       B     CVNEXT
 00162C 18D8/9808 D004_            12237                       PEND  ,
 DROP   PICKWA-(4+36),R8
 DROP   *,R7
-                                  12263              ***
                                   12264              ***  PICK Command Options.
                                   12265              ***
 00163C 4040404040404040_          12266              PICKPRT  SCKW  ,PCKNULL,NULL
 001664 D7D9C5E5C9D6E4E2_          12281                       SCKW  PREVIOUS,PPREV,A
 00168C D5C5E7E340404040_          12296                       SCKW  NEXT,PNEXT,A
 0016B4 C6C9D9E2E3404040_          12311                       SCKW  FIRST,PFIRST,A
 0016DC C640404040404040_          12326                       SCKW  F,PFIRST,A
 001704 D3C1E2E340404040_          12341                       SCKW  LAST,PLAST,A
 00172C D340404040404040_          12356                       SCKW  L,PLAST,A
 001754 4040404040404040_          12371                       SCKW  ,PNUM,PI,99999
 00177C D5D6D7D9D6D4D7E3_          12386                       SCKW  NOPROMPT,PNOPRO,A
 0017A4 D5D6E5C5D9C9C6E8_          12401                       SCKW  NOVERIFY,PNOVER,A
 0017CC 4040404040404040_          12416                       SCKW  ,PERR
                                   12431              *
                                   12432              *
 0017F4 50E0 D000/9008_      00000 12433              PCKNULL  PROC ,
 USING  *,R7
 00180E 4110 73FE/4100_      01C0C 12472                       TSEG  'You must specify the Active file you want to '
 001820 4110 742B/4100_      01C39 12490                       TSEG  'pick.',,CR
 001832 4110 7430/4100_      01C3E 12508                       TSEG  'The full form is '
 001844 4110 736A/4100_      01B78 12526                       ERROR '"PICK {n|FIRST|LAST|PREVIOUS|NEXT}".'
 001850 18D8/9808 D004_            12533                       PEND  ,
 DROP   *,R7
                                   12553
 00185E 50E0 D000/9008_      00000 12554              PPREV    PROC  ,
 USING  *,R7
 001878 9180 6000/47E0_00000       12593                       IF    PICKFPRM,'ACALL PERR'
 001886 96C0 6000      00000       12617                       SET   PICKFPRM+PICKFPRV
 00188A 18D8/9808 D004_            12626                       PEND  ,
 DROP   *,R7
                                   12646
 001898 50E0 D000/9008_      00000 12647              PNEXT    PROC  ,
 USING  *,R7
 0018B2 9180 6000/47E0_00000       12686                       IF    PICKFPRM,'ACALL PERR'
 0018C0 96A0 6000      00000       12710                       SET   PICKFPRM+PICKFNXT
 0018C4 18D8/9808 D004_            12719                       PEND  ,
 DROP   *,R7
                                   12739
1EDIT     (EDIT2193) (12:43) (15MAR04) PICK Command                                                                         Page   24
0Current Usings:  (PICKWA,R6) (*,R7) (CP,R11) (CV,R12)
0Loc    Object Code    Addr1 Addr2  Stmt Lv Lineno    Source Statement           (Hibal 5, Asmedit 3.3)  HLASM R4.0  2004/03/15 12.43
+___    ______ ____    _____ _____  ____ __ ______    ______ _________
00018D2 50E0 D000/9008_      00000 12740              PFIRST   PROC  ,
 USING  *,R7
 0018EC 9180 6000/47E0_00000       12779                       IF    PICKFPRM,'ACALL PERR'
 0018FA 9690 6000      00000       12803                       SET   PICKFPRM+PICKFFIR
 0018FE 18D8/9808 D004_            12812                       PEND  ,
 DROP   *,R7
                                   12832
 00190C 50E0 D000/9008_      00000 12833              PLAST    PROC  ,
 USING  *,R7
 001926 9180 6000/47E0_00000       12872                       IF    PICKFPRM,'ACALL PERR'
 001934 9688 6000      00000       12896                       SET   PICKFPRM+PICKFLST
 001938 18D8/9808 D004_            12905                       PEND  ,
 DROP   *,R7
                                   12925
 001946 50E0 D000/9008_      00000 12926              PNUM     PROC  ,
 USING  *,R7
 001960 9180 6000/47E0_00000       12965                       IF    PICKFPRM,'ACALL PERR'
 00196E 9680 6000      00000       12989                       SET   PICKFPRM
 001972 5000 6004            00004 12995                       ST    R0,PICKNUM
 001976 18D8/9808 D004_            12996                       PEND  ,
 DROP   *,R7
                                   13016
 001984 50E0 D000/9008_      00000 13017              PNOPRO   PROC
 USING  *,R7
 00199E 9604 6000      00000       13056                       SET   PICKFNOPROMPT
 0019A2 18D8/9808 D004_            13062                       PEND
 DROP   *,R7
                                   13082
 0019B0 50E0 D000/9008_      00000 13083              PNOVER   PROC
 USING  *,R7
 0019CA 9602 6000      00000       13122                       SET   PICKFNOVERIFY
 0019CE 18D8/9808 D004_            13128                       PEND
 DROP   *,R7
                                   13148
 0019DC 50E0 D000/9008_      00000 13149              PERR     PROC  ,
 USING  *,R7
 0019F6 41F0 B050/58E0_      00050 13188                       TSEG  (R1),(R0)
 001A00 4110 71C6/4100_      01BBC 13212                       ERROR ': invalid PICK option.'
 001A0C 18D8/9808 D004_            13219                       PEND  ,
 DROP   *,R7
                                   13239
 DROP   PICKWA,R6                  13240                       DROP  R6
1EDIT     (EDIT2193) (12:43) (15MAR04) UNCLEAR Command                                                                      Page   25
0Current Usings:  (CP,R11) (CV,R12)
0Loc    Object Code    Addr1 Addr2  Stmt Lv Lineno    Source Statement           (Hibal 5, Asmedit 3.3)  HLASM R4.0  2004/03/15 12.43
+___    ______ ____    _____ _____  ____ __ ______    ______ _________
0000000                00000 001A8 13248              UCLRWA   RECORD BEGIN
 000000                            13256  1           UCAINFO    DS    XL(L'AINFO)         Working AINFO area
 0001A8                001A8 001A8 13257                       END
-                                  13267              ¿þþþþþþþþþþþþþþþþþþþþþþþþþþþþþþþþþþþþþþþþþþþþþþþþþþþþþþþþþþþþþþþþþþþþþÜ
                                   13268              Ÿ                                                                     Ÿ
                                   13269              Ÿ  UNCLEAR -- UNCLEAR Command.                                        Ÿ
                                   13270              Ÿ                                                                     Ÿ
                                                      ¾þþþþþþþþþþþþþþþþþþþþþþþþþþþþþþþþþþþþþþþþþþþþþþþþþþþþþþþþþþþþþþþþþþþþþ»
0001A1A 50E0 D000/9008_      00000 13271              UNCLEAR  XPROC UCLRWA
 USING  *,R7
 USING  UCLRWA-(4+36),R8
                                   13322
 001A34 58E0 716C/0DEE       01BA0 13323                       VCALL NOOPTS              No options
                                   13327                       ¿þþþþþþþþþþþþþþþþþþþþþþþþþþþþþþþþþþþþþþþþþþþþþþþþþþÜ
                                   13328                       Ÿ  Find the highest numbered cleared Active file.  Ÿ
                                   13329                       ¾þþþþþþþþþþþþþþþþþþþþþþþþþþþþþþþþþþþþþþþþþþþþþþþþþþ»
 001A3A 5840 B580            00580 13330                       L     R4,CPACTMAX         Start at highest possible
 001A3E 5E40 7170            01BA4 13331                       INCR  R4
                                   13334              *
                                   13335              *
 001A42 1B11                       13336              UCRNEXT  CLEAR R1
 001A44 18F4                       13341                       LR    R15,R4
 001A46 58E0 70FC/0DEE       01B30 13342                       VCALL ACTPREV             Get previous Active file number
 001A4C 4770 703A            01A6E 13346                       IF    Z,BEGIN
 001A50 4110 721B/4100_      01C4F 13357  1                      TSEG  'UNCLEAR not possible; there aren''t any more'
 001A62 4110 719E/4100_      01BD2 13375  1                      ABORT ' cleared Active files.'
 001A6E                            13382                       END
                                   13386
 001A6E 184F                       13387                       LR    R4,R15
 001A70 4110 8028/4100_      00000 13388                       SETMSG UCAINFO
 001A78 58E0 70E0/0DEE       01B14 13402                       VCALL ACTGINFO            Get AINFO for this Active file
 001A7E 4780 7066/900F_      01A9A 13406                       FAIL  NZ,UCLRERR,'Multiple Active file logic error.'
                                   13429
 001A9A 4130 8028            00000 13430                       LA    R3,UCAINFO
 USING  AINFO,R3                   13431                       WITH  (AINFO,R3),BEGIN
 001A9E 9180 303B/47E0_0003B       13445  1                      IF    ~AINAFCLR,UCRNEXT   We only want cleared actives
 001AA6 D507 70CC 3008_01B00 00008 13463  1                      IF    (AINATYPE,NE,=CL8'TEXT'),UCRNEXT
 DROP   AINFO,R3                   13483                       END
                                   13491                      ¿þþþþþþþþþþþþþþþþþþþþþþþþþþþþþþþþþþþþþþþþþþþþþþþþþþþþþþþþþþþþþþþþÜ
                                   13492                      Ÿ  Now pick the highest cleared Active (which will unclear it).  Ÿ
                                   13493                      ¾þþþþþþþþþþþþþþþþþþþþþþþþþþþþþþþþþþþþþþþþþþþþþþþþþþþþþþþþþþþþþþþþ»
 001AB0 18F4                       13494                       LR    R15,R4              Highest uncleared Active
 001AB2 58E0 70F8/0DEE       01B2C 13495                       VCALL ACTPICK             Pick it
                                   13499
 001AB8 58E0 7140/0DEE       01B74 13500                       VCALL ACTVREST            Set view position too
 001ABE 47F0 C7DE            007DE 13504                       B     CVNEXT
 001AC2 18D8/9808 D004_            13505                       PEND  ,
 DROP   UCLRWA-(4+36),R8
 DROP   *,R7
                                   13530                       QLTORG
1EDIT     (EDIT2193) (12:43) (15MAR04) LIST and POINT Commands                                                              Page   26
0Current Usings:  (CP,R11) (CV,R12)
0Loc    Object Code    Addr1 Addr2  Stmt Lv Lineno    Source Statement           (Hibal 5, Asmedit 3.3)  HLASM R4.0  2004/03/15 12.43
+___    ______ ____    _____ _____  ____ __ ______    ______ _________
0                                  13578              ¿þþþþþþþþþþþþþþþþþþþþþþþþþþþþþþþþþþþþþþþþþþþþþþþþþþþþþþþþþþþþþþþþþþþþþÜ
                                   13579              Ÿ                                                                     Ÿ
                                   13580              Ÿ  LIST   -- LIST command.                                            Ÿ
                                   13581              Ÿ  POINT  -- POINT command.                                           Ÿ
                                   13582              Ÿ                                                                     Ÿ
                                   13583              Ÿ                                                                     Ÿ
                                                      ¾þþþþþþþþþþþþþþþþþþþþþþþþþþþþþþþþþþþþþþþþþþþþþþþþþþþþþþþþþþþþþþþþþþþþþ»
0000000                00000 0000C 13584              LISTWA   RECORD BEGIN
 000000 00                         13592  1           LISTFLG    FLAG
 LISTFLG.LISFSQU   80 ONES         13596  1                      FLAG  LISFSQU             - Squash
 LISTFLG.LISFDOUB  40 ONES         13601  1                      FLAG  LISFDOUB            - Double
 LISTFLG.LISFTRIP  20 ONES         13606  1                      FLAG  LISFTRIP            - Triple
 LISTFLG.LISFCC    10 ONES         13611  1                      FLAG  LISFCC              - CC
 LISTFLG.LISFMC    08 ONES         13616  1                      FLAG  LISFMC              - MC
 LISTFLG.LISFHEX   04 ONES         13621  1                      FLAG  LISFHEX             - Hex
 LISTFLG.LISFMIX   02 ONES         13626  1                      FLAG  LISFMIX             - Mixed
 000001 00                         13631  1           LISTFLG2   FLAG
 LISTFLG2.LISFFULL 80 ONES         13635  1                      FLAG  LISFFULL            - Full
 LISTFLG2.LISFBIN  40 ONES         13640  1                      FLAG  LISFBIN             - Binary (image)
 000002 00                         13645  1           LISTFLG3   FLAG
 000003                            13649  1           LISTMARK   DS    C                   Marker character
 000004                            13650  1           LISTIND    DS    H                   Indentation count
 000008                            13651  1           LISTALNO   DS    F                   Attn line-number
 00000C                0000C 0000C 13652                       END
                                   13661              *
                                   13662              *
 001C7A 50E0 D000/9008_      00000 13663              LIST     XPROC ,
 USING  *,R7
 001C94 9640 BD57      00D57       13703                       SET   CPFNCUR             Don't update current line ptr
 001C98 58E0 7AEC/0DEE       02780 13709                       ACALL POINT               Go to common code
 001C9E 18D8/9808 D004_            13713                       PEND  ,
 DROP   *,R7
                                   13733              *
                                   13734              *
 001CAC 50E0 D000/9008_      00000 13735              POINT    XPROC LISTWA
 USING  *,R7
 USING  LISTWA-(4+36),R8
 001CC6 4160 8028            00000 13786                       LA    R6,LISTWA
 USING  LISTWA,R6                  13787                       USING LISTWA,R6
 001CCA D70B 6000 6000 00000 00000 13796                       CLEAR LISTWA
 001CD0 D203 6008 7ABE 00008 02784 13803                       MVC   LISTALNO,=F'-1'     No attn lineno
 001CD6 5060 BD6C            00D6C 13804                       ST    R6,CPWK4            Save LISTWA ptr
                                   13805
 001CDA 58E0 7AC2/0DEE       02788 13806                       VCALL SCNEXFR             Allow active/exec/from dsname
 001CE0 9610 BD50      00D50       13810                       SET   CPLFLG1.CPFALL      Default is ALL
 001CE4 58E0 7AC6/0DEE       0278C 13817                       VCALL NDETRNG             Scan range
                                   13821
 001CEA                            13822              LISTSCAN LABEL ,
                                   13824                       COMMENT                   SCAN LIST OPTIONS
 001CEA 9503 BD89/4770_00D89       13825                       IF    CPFRDEXT,BEGIN      (IF EXTERNAL (FROM DSN..))
 001CF2 58E0 7ACA/0DEE       02790 13840  1                      VCALL MKFFINFO
 001CF8 5810 B08C/1B00_      0008C 13844  1                      SCAN  LISTPRTX
 001D4A 58E0 7AD6/0DEE       0279C 13876  1                      SCANCHK
1EDIT     (EDIT2193) (12:43) (15MAR04) LIST and POINT Commands                                                              Page   27
0Current Usings:  (LISTWA,R6) (*,R7) (LISTWA-(4+36),R8) (CP,R11) (CV,R12)
0Loc    Object Code    Addr1 Addr2  Stmt Lv Lineno    Source Statement           (Hibal 5, Asmedit 3.3)  HLASM R4.0  2004/03/15 12.43
+___    ______ ____    _____ _____  ____ __ ______    ______ _________
0001D50                            13881                       END
 001D50 708E/47F0 70E6 01D50 01CF0 13885                       ELSE  BEGIN
 001D54 5810 B08C/1B00_      0008C 13896  1                      SCAN  LISTPRT
 001DA6 58E0 7AD6/0DEE       0279C 13928  1                      SCANCHK
 001DAC                            13933                       END
                                   13937
 001DAC 9118 6000/4780_00000       13938                       IF    LISFCC+LISFMC,BEGIN  Adjust cols to skip CC/MC char
 001DB4 48F0 BC4E            00C4E 13956  1                      LH    R15,CPFCOL
 001DB8 12FF/4770 70FE_            13957  1                      IF    (R15,Z),'MVC CPFCOL,=Y(1)'  Set to col 2 (effectively)
 001DC4                            13977                       END
                                   13981
 001DC4 9503 BD89/4770_00D89       13982                       IF    CPFRDEXT,BEGIN
 001DCC 58E0 7ADE/0DEE       027A4 13997  1                      VCALL FNAMEFIN
 001DD2 58E0 7AE2/0DEE       027A8 14001  1                      VCALL EXTOPEN
 001DD8 12FF/4770 C7DE             14005  1                      IF    (R15,NZ),CVNEXT
 001DDE                            14022                       END
                                   14026
 001DDE 94F7 BF37      00F37       14027                       CLEAR DSNFSTAT            No SAMSON stats ...
 001DE2 58E0 7AE6/0DEE       027AC 14034                       VCALL PAGERES             Reset page mode
                                   14038
                                   14039                       COMMENT                   NICE SET OF FLAGS DUDE !!
 001DE8 9503 BD89/4770_00D89       14040                       IF CPFRDEXT,BEGIN         EXTERNAL
 001DF0 5800 7AEA/5810_      027B0 14055  1                      RDRNG LISTRTN,(LXCATRTN+DESRTRN+UNPRST+DESABORT)
 001DFE                            14062                       END
 001DFE 713C/47F0 7152_01DFE 01DEE 14066                       ELSEIF CPFRDEXE,BEGIN     EXEC
 001E0A 5800 7AF6/5810_      027BC 14090  1                      RDRNG LISTRTN,(LEXATRTN+DESRTRN+UNPRST+DESABORT)
 001E18                            14097                       END
 001E18 7156/47F0 7164 01E18 01E08 14101                       ELSE  BEGIN               ACTIVE
 001E1C 5800 7AFA/5810_      027C0 14112  1                      RDRNG LISTRTN,(LOCATRTN+DESRTRN+UNPRST+DESABORT)
 001E2A                            14119                       END
                                   14123
 001E2A 9118 6000/4780_00000       14124                       IF    LISFCC+LISFMC,'TCR'
 001E3E 1B00/41F0 B050_            14172                       TWRITE
 001E4A 4780 C7DE            007DE 14197                       BZ    CVNEXT              Normal completion
                                   14198
 001E4E D503 7B06 6008_027CC 00008 14199                       IF    (LISTALNO,EQ,-1),CVABORT  No attn lineno
 001E58 58F0 C1C8            001C8 14220                       L     R15,CVCURJCB
 001E5C 94FD F062      00062       14221                       WITH  (JCB,R15),'CLEAR JCBFATTN'
 USING  JCB,R15
 DROP   JCB,R15
 001E60 D203 B760 6008 00760 00008 14251                       MVC   CPEXNEXT,LISTALNO   Set new exec lineno
 001E66 47F0 C7DE            007DE 14252                       B     CVNEXT
 001E6A 18D8/9808 D004_            14253                       PEND  ,
 DROP   LISTWA-(4+36),R8
 DROP   *,R7
                                   14278
1EDIT     (EDIT2193) (12:43) (15MAR04) LIST and POINT Commands                                                              Page   28
0Current Usings:  (LISTWA,R6) (CP,R11) (CV,R12)
0Loc    Object Code    Addr1 Addr2  Stmt Lv Lineno    Source Statement           (Hibal 5, Asmedit 3.3)  HLASM R4.0  2004/03/15 12.43
+___    ______ ____    _____ _____  ____ __ ______    ______ _________
0001E78 C6D9D6D440404040_          14280              LISTPRTX SCKW  FROM,V(FNAMESCN),A
 001EA0 4040404040404040_          14295                       SCKW  ,V(LTNPSH),PUSH     MUST COME BEFORE FNAMEPSH
 001EC8 4040404040404040_          14310                       SCKW  ,V(FNAMPSHF),PUSH   (NUMBER IS LIST OPT NOT FILE OPT)
                                   14325
 001EF0 4040404040404040_          14326              LISTPRT  SCKW  ,V(LTNPSH),PUSH
 001F18 4040404040404040_          14341                       SCKW  ,V(COLSPSH),PUSH
 001F40 C2C9D5C1D9E84040_          14356                       SCKW  BINARY,LBINARY,A
 001F68 E2D8E4C1E2C8C5C4_          14371                       SCKW  SQUASHED,LSQUASH,A
 001F90 C4D6E4C2D3C54040_          14386                       SCKW  DOUBLE,LDOUBLE,A
 001FB8 E3D9C9D7D3C54040_          14401                       SCKW  TRIPLE,LTRIPLE,A
 001FE0 C3C3404040404040_          14416                       SCKW  CC,LCC
 002008 D4C3404040404040_          14431                       SCKW  MC,LMC
 002030 C8C5E74040404040_          14446                       SCKW  HEX,LHEX
 002058 D4C9E7C5C4404040_          14461                       SCKW  MIXED,LMIXED,A
 002080 C6E4D3D340404040_          14476                       SCKW  FULL,LFULL,A
 0020A8 D5D6D5D340404040_          14491                       SCKW  NONL,LNONL          (NON means nonumber)
 0020D0 D4D6C4C5D3404040_          14506                       SCKW  MODEL,LMODEL,A
 0020F8 D5D6D4D6C4C5D340_          14521                       SCKW  NOMODEL,LNOMODEL,A
 002120 C6D6D9D4C1E3E3C5_          14536                       SCKW  FORMATTED,LFMT,A
 002148 E4D5C6D6D9D4C1E3_          14551                       SCKW  UNFORMATTED,LUFMT,A
 002170 C6D6D9C3C5404040_          14566                       SCKW  FORCE,LFORCE,A
 002198 D5D6D7C1E4E2C540_          14581                       SCKW  NOPAUSE,LNOPAUSE,A
 0021C0 E3D9C1D5E2D7C1D9_          14596                       SCKW  TRANSPARENT,LTRAN,A
 0021E8 C3D3C5C1D5404040_          14611                       SCKW  CLEAN,LCLEAN,A
 002210 C9D5C4C5D5E34040_          14626                       SCKW  INDENT,LINDENT,(A,P,PI),&LINESZ
 002238 D4C1D9D2C5D94040_          14641                       SCKW  MARKER,LMARKER,(A,P)
 002260 C1E3E3D540404040_          14656                       SCKW  ATTN,LATTN,A
 002288 D6C6C6D3C9D5C540_          14671                       SCKW  OFFLINE,LOFFLINE,A
 0022B0 C1C3E3C9E5C54040_          14686                       SCKW  ACTIVE,V(SCNNOOP),A           (Processed elsewhere)
 0022D8 C5E7C5C3E4E3C540_          14701                       SCKW  EXECUTE,V(SCNNOOP),A          (Processed elsewhere)
 002300 4040404040404040_          14716                       SCKW  ,V(NOTVALID)
-002328 50E0 D000/9008_      00000 14732              LSQUASH  PROC  ,
 USING  *,R7
 002342 9680 6000      00000       14771                       SET   LISFSQU
 002346 18D8/9808 D004_            14777                       PEND  ,
 DROP   *,R7
                                   14797
 002354 50E0 D000/9008_      00000 14798              LDOUBLE  PROC  ,
 USING  *,R7
 00236E 9640 6000/94DF_00000       14837                       SET   LISFDOUB,(LISFTRIP,OFF)
 002376 18D8/9808 D004_            14848                       PEND  ,
 DROP   *,R7
                                   14868
 002384 50E0 D000/9008_      00000 14869              LTRIPLE  PROC  ,
 USING  *,R7
 00239E 9620 6000/94BF_00000       14908                       SET   LISFTRIP,(LISFDOUB,OFF)
 0023A6 18D8/9808 D004_            14919                       PEND  ,
 DROP   *,R7
                                   14939
 0023B4 50E0 D000/9008_      00000 14940              LCC      PROC  ,
 USING  *,R7
 0023CE 9610 6000/94F7_00000       14979                       SET   LISFCC,(LISFMC,OFF)
1EDIT     (EDIT2193) (12:43) (15MAR04) LIST and POINT Commands                                                              Page   29
0Current Usings:  (LISTWA,R6) (*,R7) (CP,R11) (CV,R12)
0Loc    Object Code    Addr1 Addr2  Stmt Lv Lineno    Source Statement           (Hibal 5, Asmedit 3.3)  HLASM R4.0  2004/03/15 12.43
+___    ______ ____    _____ _____  ____ __ ______    ______ _________
00023D6 9680 BC7A      00C7A       14990                       SET   CPFNONL
 0023DA 18D8/9808 D004_            14996                       PEND  ,
 DROP   *,R7
                                   15016
 0023E8 50E0 D000/9008_      00000 15017              LMC      PROC  ,
 USING  *,R7
 002402 9608 6000/94EF_00000       15056                       SET   LISFMC,(LISFCC,OFF)
 00240A 9680 BC7A      00C7A       15067                       SET   CPFNONL
 00240E 18D8/9808 D004_            15073                       PEND  ,
 DROP   *,R7
                                   15093
 00241C 50E0 D000/9008_      00000 15094              LHEX     PROC  ,
 USING  *,R7
 002436 9604 6000      00000       15133                       SET   LISFHEX
 00243A 18D8/9808 D004_            15139                       PEND  ,
 DROP   *,R7
                                   15159
 002448 50E0 D000/9008_      00000 15160              LMIXED   PROC  ,
 USING  *,R7
 002462 9602 6000      00000       15199                       SET   LISFMIX
 002466 9608 BC7C      00C7C       15205                       SET   CPFUFMT
 00246A 18D8/9808 D004_            15211                       PEND  ,
 DROP   *,R7
                                   15231
 002478 50E0 D000/9008_      00000 15232              LNONL    PROC  ,
 USING  *,R7
 002492 9680 BC7A      00C7A       15271                       SET   CPFNONL
 002496 18D8/9808 D004_            15277                       PEND  ,
 DROP   *,R7
                                   15297
 0024A4 50E0 D000/9008_      00000 15298              LFULL    PROC  ,
 USING  *,R7
 0024BE 9680 6001      00001       15337                       SET   LISFFULL
 0024C2 18D8/9808 D004_            15343                       PEND  ,
 DROP   *,R7
                                   15363
 0024D0 50E0 D000/9008_      00000 15364              LBINARY  PROC  ,
 USING  *,R7
 0024EA 9640 6001      00001       15403                       SET   LISFBIN
 0024EE 9680 BC7C      00C7C       15409                       SET   CPFTRAN
 0024F2 9680 BC7A      00C7A       15415                       SET   CPFNONL
 0024F6 9610 BC7C      00C7C       15421                       SET   CPFNMOD
 0024FA 9680 BC7D      00C7D       15427                       SET   CPFNPAU
 0024FE 9110 BD54/4710_00D54       15433                       IF    ~CPLFLG5.CPFFOPT,BEGIN
 002506 943F BD54      00D54       15449  1                      CLEAR CPLFLG5.CPFNONUM    Clear nonumber
 00250A 9680 BD54      00D54       15457  1                      SET   CPLFLG5.CPFUNUM     Set unnumbered
 00250E                            15464                       END
 00250E 18D8/9808 D004_            15468                       PEND  ,
 DROP   *,R7
                                   15488
 00251C 50E0 D000/9008_      00000 15489              LFMT     PROC  ,
 USING  *,R7
 002536 94F7 BC7C      00C7C       15528                       CLEAR CPFUFMT
 00253A 18D8/9808 D004_            15535                       PEND  ,
1EDIT     (EDIT2193) (12:43) (15MAR04) LIST and POINT Commands                                                              Page   30
0Current Usings:  (LISTWA,R6) (CP,R11) (CV,R12)
0Loc    Object Code    Addr1 Addr2  Stmt Lv Lineno    Source Statement           (Hibal 5, Asmedit 3.3)  HLASM R4.0  2004/03/15 12.43
+___    ______ ____    _____ _____  ____ __ ______    ______ _________
0DROP   *,R7
                                   15555
 002548 50E0 D000/9008_      00000 15556              LUFMT    PROC  ,
 USING  *,R7
 002562 9608 BC7C      00C7C       15595                       SET   CPFUFMT
 002566 18D8/9808 D004_            15601                       PEND  ,
 DROP   *,R7
                                   15621
 002574 50E0 D000/9008_      00000 15622              LFORCE   PROC  ,
 USING  *,R7
 00258E 9604 BC7C      00C7C       15661                       SET   CPFFORCE
 002592 18D8/9808 D004_            15667                       PEND  ,
 DROP   *,R7
                                   15687
 0025A0 50E0 D000/9008_      00000 15688              LMODEL   PROC  ,
 USING  *,R7
 0025BA 94EF BC7C      00C7C       15727                       CLEAR CPFNMOD
 0025BE 18D8/9808 D004_            15734                       PEND  ,
 DROP   *,R7
                                   15754
 0025CC 50E0 D000/9008_      00000 15755              LNOMODEL PROC  ,
 USING  *,R7
 0025E6 9610 BC7C      00C7C       15794                       SET   CPFNMOD
 0025EA 18D8/9808 D004_            15800                       PEND  ,
 DROP   *,R7
                                   15820
 0025F8 50E0 D000/9008_      00000 15821              LNOPAUSE PROC  ,
 USING  *,R7
 002612 9680 BC7D      00C7D       15860                       SET   CPFNPAU
 002616 18D8/9808 D004_            15866                       PEND  ,
 DROP   *,R7
                                   15886
 002624 50E0 D000/9008_      00000 15887              LTRAN    PROC  ,
 USING  *,R7
 00263E 9680 BC7C      00C7C       15926                       SET   CPFTRAN
 002642 9110 BD54/4710_00D54       15932                       IF    ~CPLFLG5.CPFFOPT,BEGIN
 00264A 943F BD54      00D54       15948  1                      CLEAR CPLFLG5.CPFNONUM    Clear nonumber
 00264E 9680 BD54      00D54       15956  1                      SET   CPLFLG5.CPFUNUM     Set unnumbered
 002652                            15963                       END
 002652 18D8/9808 D004_            15967                       PEND  ,
 DROP   *,R7
                                   15987
 002660 50E0 D000/9008_      00000 15988              LCLEAN   PROC  ,
 USING  *,R7
 00267A 9680 BC7B      00C7B       16027                       SET   CPFCLEAN
 00267E 18D8/9808 D004_            16033                       PEND  ,
 DROP   *,R7
                                   16053
 00268C 50E0 D000/9008_      00000 16054              LINDENT  PROC  ,
 USING  *,R7
 0026A6 4000 6004            00004 16093                       STH   R0,LISTIND
 0026AA 18D8/9808 D004_            16094                       PEND  ,
 DROP   *,R7
                                   16114
1EDIT     (EDIT2193) (12:43) (15MAR04) LIST and POINT Commands                                                              Page   31
0Current Usings:  (LISTWA,R6) (*,R7) (CP,R11) (CV,R12)
0Loc    Object Code    Addr1 Addr2  Stmt Lv Lineno    Source Statement           (Hibal 5, Asmedit 3.3)  HLASM R4.0  2004/03/15 12.43
+___    ______ ____    _____ _____  ____ __ ______    ______ _________
00026B8 50E0 D000/9008_      00000 16115              LMARKER  PROC  ,
 USING  *,R7
 0026D2 58F0 B08C/4110_      0008C 16154                       SCDQUOTE LISTMARK
 0026E4 1BFF                       16175                       CLEAR R15
 0026E6 18D8/9808 D004_            16179                       PEND  ,
 DROP   *,R7
                                   16199
 0026F4 50E0 D000/9008_      00000 16200              LATTN    PROC  ,
 USING  *,R7
 00270E 58E0 70C6/0DEE       027D4 16239                       VCALL ATTNLINE
 002714 5000 6008            00008 16243                       ST    R0,LISTALNO         Save lineno
 002718 58E0 70CA/0DEE       027D8 16244                       VCALL ALLOWATN            Allow attentions
 00271E 18D8/9808 D004_            16248                       PEND  ,
 DROP   *,R7
                                   16268
 00272C 50E0 D000/9008_      00000 16269              LOFFLINE PROC  ,
 USING  *,R7
 002746 4110 709E/4100_      027E4 16308                       TSEG  'The OFFLINE option has been removed.  '
 002758 4110 70C4/4100_      0280A 16326                       TSEG  'Use the PRINT command instead.',,CR
 00276A 47F0 C7EA            007EA 16344                       B     CVNOACTN
 00276E 18D8/9808 D004_            16345                       PEND  ,
 DROP   *,R7
                                   16365
 DROP   LISTWA,R6                  16366                       DROP  R6
                                   16373
                                   16374                       QLTORG
                                   16414
1EDIT     (EDIT2193) (12:43) (15MAR04) LIST and POINT Commands                                                              Page   32
0Current Usings:  (CP,R11) (CV,R12)
0Loc    Object Code    Addr1 Addr2  Stmt Lv Lineno    Source Statement           (Hibal 5, Asmedit 3.3)  HLASM R4.0  2004/03/15 12.43
+___    ______ ____    _____ _____  ____ __ ______    ______ _________
0000000                00000 00028 16416              LRTNWA   RECORD BEGIN
                                   16424  1                      XSA   R2,R8
 000000 0000000000000000           16425  1 01-XSA   +           DC    (R8+2-(R2))A(0)
                                   16426  1
 000020 00                         16427  1           LRTNFLAG   FLAG
 LRTNFLAG.LRTNFMRK 40 ONES         16431  1                      FLAG  (LRTNFMRK,X'40')    - Line is marked
 000021                            16440  1           LRTNID     DS    CL3                 User "id"
 000024                            16441  1           LRTNCLCK   DS    XL4                 TOD Clock
                                   16442  1           LRTNPFX    EQU   LRTNFLAG,*-LRTNFLAG,C'X'
 000028                00028 00028 16443                       END
-                                  16453              ¿þþþþþþþþþþþþþþþþþþþþþþþþþþþþþþþþþþþþþþþþþþþþþþþþþþþþþþþþþþþþþþþþþþþþþÜ
                                   16454              Ÿ                                                                     Ÿ
                                   16455              Ÿ  LISTRTN -- Co-routine to list lines from the range processor.      Ÿ
                                   16456              Ÿ                                                                     Ÿ
                                   16457              Ÿ    On entry:                                                        Ÿ
                                   16458              Ÿ      R1,R0 - line loc, len                                          Ÿ
                                   16459              Ÿ                                                                     Ÿ
                                                      ¾þþþþþþþþþþþþþþþþþþþþþþþþþþþþþþþþþþþþþþþþþþþþþþþþþþþþþþþþþþþþþþþþþþþþþ»
0002828 50E0 D000/9008_      00000 16460              LISTRTN  PROC  LRTNWA
 USING  *,R7
 USING  LRTNWA-(4+36),R8
                                   16510
 002842 5860 BD6C            00D6C 16511                       L     R6,CPWK4            Listwa ptr
 USING  LISTWA,R6                  16512                       USING LISTWA,R6
 002846 9120 BD54/4710_00D54       16521                       IF    CPLFLG5.CPFNLST,LISTEXIT  Nolist
 00284E 1851                       16540                       LR    R5,R1               Save ptr to first char
 002850 4900 BC50/47D0_      00C50 16541                       CEIL  R0,CPLCOL           Don't go past last col
 00285C 4A10 BC4E            00C4E 16547                       AH    R1,CPFCOL
 002860 4B00 BC4E            00C4E 16548                       SH    R0,CPFCOL
 002864 47B0 7028/1B00       0286A 16549                       IF    NEG,'CLEAR R0'
 00286A 9180 6000/47E0_00000       16569                       IF    LISFSQU,'VCALL SQSHRTN'  Squash
 002878 1830                       16593                       LR    R3,R0
 00287A 1841                       16594                       LR    R4,R1
                                   16595                       ¿þþþþþþþþþþþþþþþþþþþþþþþþÜ
                                   16596                       Ÿ  Handle MARKER lines.  Ÿ
                                   16597                       ¾þþþþþþþþþþþþþþþþþþþþþþþþ»
 00287C 9500 6003/4780_00003       16598                       IF    ((LISTMARK,NZ),AND,(@R5,EQ,LISTMARK)),BEGIN
 00288E 9540 6003/4770_00003       16630  1                      IF    (LISTMARK,EQ,' '),BEGIN
 002896 1233/4770 7072             16647  2                        IF    (R3,NZ),NOMARK
 00289C                            16664  1                      END
                                   16668  1
 00289C 4110 C4D8/4100_      004D8 16669  1                      TREAD CVBLANKS,2          Default marker prompt
 0028AC 4770 71FC            02A3E 16695  1                      BNZ   LISTATTN
 0028B0 47F0 7218            02A5A 16696  1                      B     LISTEXIT
 0028B4                            16697                       END
                                   16701
 0028B4 9110 6000/47E0_00000       16702              NOMARK   IF    LISFCC,BEGIN        CC...
 0028BC 4110 7314/4100_      02B56 16718  1                      SETMSG X'15'               Assume NL
 0028C4 954E 5000/4770_00000       16722  1                      IF    (@R5,EQ,'+'),'SETMSG X"0D"'
 0028D4 95F0 5000/4770_00000       16747  1                      IF    (@R5,EQ,'0'),'SETMSG X"1515"'
 0028E4 9560 5000/4770_00000       16772  1                      IF    (@R5,EQ,'-'),'SETMSG X"151515"'
1EDIT     (EDIT2193) (12:43) (15MAR04) LIST and POINT Commands                                                              Page   33
0Current Usings:  (LISTWA,R6) (*,R7) (LRTNWA-(4+36),R8) (CP,R11) (CV,R12)
0Loc    Object Code    Addr1 Addr2  Stmt Lv Lineno    Source Statement           (Hibal 5, Asmedit 3.3)  HLASM R4.0  2004/03/15 12.43
+___    ______ ____    _____ _____  ____ __ ______    ______ _________
00028F4 95F1 5000/4770_00000       16797  1                      IF    (@R5,EQ,'1'),'SETMSG X"150C"'
 002904 41F0 B050/58E0_      00050 16822  1                      TSEG  (R1),(R0)
 00290E                            16846                       END
                                   16850
 00290E 9108 6000/47E0_00000       16851                       IF    (LISFMC,AND,@R5.X'02'),LISTSKIP  MC ctrl has no text
                                   16884
 00291E 4110 C4D8/4800_      004D8 16885                       TSEG  CVBLANKS,LH:LISTIND   Indentation
                                   16912
 002930 9180 6001/47E0_00001       16913                       IF    LISFFULL,BEGIN      Include id info...
 002938 9502 BD89/4780_00D89       16928  1                      IF    (CPFRDEXE,OR,CPFRDEXT),EXIT  Only if active
                                   16960  1           *
                                   16961  1           * There is no line prefix anymore (see the note in the GETLINFO
                                   16962  1           * routine in ACT). For compatibility, we'll accept the LIST
                                   16963  1           * FULL option, but we'll just print the hyphens.
                                   16964  1           *
 002948 4110 72D2/4100_      02B14 16965  1                      TSEG  '--------------------'
 00295A                            16983                       END
                                   16987
 00295A 1814/1803                  16988                       SETMSG (R4),(R3)
 00295E 9104 6000/47E0_00000       17000                       IF    LISFHEX,BEGIN
 002966 9102 6000/47E0_00000       17015  1                      IF    LISFMIX,'LCR R0,R0'  Hex mixed format
 002970 58E0 72E6/0DEE       02B28 17036  1                      ACALL LISTHEX
 002976                            17040                       END
 002976 7138/47F0 7146_02976 02964 17044                       ELSEIF LISFMIX,'ACALL LISTMIX'
 002988 714A/47F0 7158_02988 02980 17077                       ELSEIF LISFBIN,'ACALL LISTBIN'
 00299A 715C/47F0 7162_0299A 02992 17110                       ELSE  'VCALL LISTLINE'
                                   17130
 0029A4 9108 6000/47E0_00000       17131              LISTSKIP IF    LISFMC,BEGIN        Mc...
 0029AC 94FD 5000      00000       17147  1                      CLEAR @R5.X'02'           Zot control bit
 0029B0 4110 7314/4100_      02B56 17155  1                      SETMSG X'15'               Assume nl
 0029B8 9501 5000/4770_00000       17159  1                      IF    (@R5,EQ,X'01'),'SETMSG X"0D"'      +
 0029C8 9511 5000/4770_00000       17184  1                      IF    (@R5,EQ,X'11'),'SETMSG X"1515"'    0
 0029D8 9519 5000/4770_00000       17209  1                      IF    (@R5,EQ,X'19'),'SETMSG X"151515"'  -
 0029E8 9589 5000/4770_00000       17234  1                      IF    (@R5,EQ,X'89'),'SETMSG X"150C"'    1
 0029F8 41F0 B050/58E0_      00050 17259  1                      TSEG  (R1),(R0)
 002A02                            17283                       END
                                   17287
 002A02 9160 6000/4780_00000       17288                       IF    LISFDOUB+LISFTRIP,'TCR'
 002A16 9120 6000/47E0_00000       17336                       IF    LISFTRIP,'TCR'
                                   17381
 002A2A 41F0 B050/58E0_      00050 17382                       TMARK
                                   17396
 002A34 58E0 72FE/0DEE_      02B40 17397                       IF    ('TSTAT',NZ),BEGIN  Attn...
 002A3E D503 7302 6008_02B44 00008 17414  1           LISTATTN   IF    (LISTALNO,EQ,-1),CVABORT
 002A48 58F0 C1C8            001C8 17436  1                      L     R15,CVCURJCB
 002A4C 94FD F062      00062       17437  1                      WITH  (JCB,R15),'CLEAR JCBFATTN'
 USING  JCB,R15
 DROP   JCB,R15
 002A50 D203 B760 6008 00760 00008 17467  1                      MVC   CPEXNEXT,LISTALNO   Set new exec lineno
 002A56 47F0 C7DE            007DE 17468  1                      B     CVNEXT
 002A5A                            17469                       END
                                   17473
 002A5A 18D8/9808 D004_            17474              LISTEXIT PEND  ,
 DROP   LRTNWA-(4+36),R8
1EDIT     (EDIT2193) (12:43) (15MAR04) LIST and POINT Commands                                                              Page   34
0Current Usings:  (LISTWA,R6) (CP,R11) (CV,R12)
0Loc    Object Code    Addr1 Addr2  Stmt Lv Lineno    Source Statement           (Hibal 5, Asmedit 3.3)  HLASM R4.0  2004/03/15 12.43
+___    ______ ____    _____ _____  ____ __ ______    ______ _________
0DROP   *,R7
1EDIT     (EDIT2193) (12:43) (15MAR04) LIST and POINT Commands                                                              Page   35
0Current Usings:  (LISTWA,R6) (CP,R11) (CV,R12)
0Loc    Object Code    Addr1 Addr2  Stmt Lv Lineno    Source Statement           (Hibal 5, Asmedit 3.3)  HLASM R4.0  2004/03/15 12.43
+___    ______ ____    _____ _____  ____ __ ______    ______ _________
0                                  17501              ¿þþþþþþþþþþþþþþþþþþþþþþþþþþþþþþþþþþþþþþþþþþþþþþþþþþþþþþþþþþþþþþþþþþþþþÜ
                                   17502              Ÿ                                                                     Ÿ
                                   17503              Ÿ  LISTHEX -- Routine to list line in hex.                            Ÿ
                                   17504              Ÿ                                                                     Ÿ
                                   17505              Ÿ    On entry:                                                        Ÿ
                                   17506              Ÿ      CPLCNO - lineno                                                Ÿ
                                   17507              Ÿ      R1,R0 - line loc, len (len complemented for mixed format)      Ÿ
                                   17508              Ÿ                                                                     Ÿ
                                   17509              Ÿ    On exit, R15 (and cc):                                           Ÿ
                                   17510              Ÿ      0 - ok                                                         Ÿ
                                   17511              Ÿ      nz- attn                                                       Ÿ
                                   17512              Ÿ                                                                     Ÿ
                                                      ¾þþþþþþþþþþþþþþþþþþþþþþþþþþþþþþþþþþþþþþþþþþþþþþþþþþþþþþþþþþþþþþþþþþþþþ»
0002A68 50E0 D000/9008_      00000 17513              LISTHEX  PROC  ,
 USING  *,R7
 002A82 9001 D000/41D0_      00000 17552                       XPUSH R0,R1
 002A8A 41F0 0009            00009 17555                       LA    R15,9               Indentation if unnumbered
 002A8E 9180 BD54/4710_00D54       17556                       IF    ~CPLFLG5.CPFUNUM,BEGIN
 002A96 5800 B73C            0073C 17572  1                      L     R0,CPLCNO
 002A9A 58E0 70C6/0DEE       02B48 17573  1                      VCALL CVEXNO
 002AA0 4110 BC88/4100_      00C88 17577  1                      TSEG  CPDOUB,9
 002AB2 4110 C4D8/4100_      004D8 17607  1                      TSEG  CVBLANKS,2
 002AC4 41F0 000B            0000B 17637  1                      LA    R15,11              Indentation to use on cont lines
 002AC8                            17638                       END
 002AC8 91C0 BD54/47E0_00D54       17642                       IF    CPLFLG5.CPFNONUM,'TSEG CVBLANKS,11; LA R15,11'
 002AE6 4AF0 6004            00004 17694                       AH    R15,LISTIND         Account for "indent" option
 002AEA 4BD0 70D2/9801_      02B54 17695                       XPOP  R0,R1
 002AF2 58E0 70CA/0DEE       02B4C 17698                       VCALL HEXFMT              Write out line in hex
 002AF8 18D8/9808 D004_            17702                       PEND  ,
 DROP   *,R7
1EDIT     (EDIT2193) (12:43) (15MAR04) LIST and POINT Commands                                                              Page   36
0Current Usings:  (LISTWA,R6) (CP,R11) (CV,R12)
0Loc    Object Code    Addr1 Addr2  Stmt Lv Lineno    Source Statement           (Hibal 5, Asmedit 3.3)  HLASM R4.0  2004/03/15 12.43
+___    ______ ____    _____ _____  ____ __ ______    ______ _________
0                                  17723                       QLTORG ,
                                   17755              ¿þþþþþþþþþþþþþþþþþþþþþþþþþþþþþþþþþþþþþþþþþþþþþþþþþþþþþþþþþþþþþþþþþþþþþÜ
                                   17756              Ÿ                                                                     Ÿ
                                   17757              Ÿ  LISTBIN -- Routine to list line in image mode                      Ÿ
                                   17758              Ÿ                                                                     Ÿ
                                   17759              Ÿ    On entry:                                                        Ÿ
                                   17760              Ÿ      CPLCNO - lineno                                                Ÿ
                                   17761              Ÿ      R1,R0 - line loc, len                                          Ÿ
                                   17762              Ÿ                                                                     Ÿ
                                   17763              Ÿ    On exit, R15 (and cc):                                           Ÿ
                                   17764              Ÿ      0 - ok                                                         Ÿ
                                   17765              Ÿ      nz- attn                                                       Ÿ
                                   17766              Ÿ                                                                     Ÿ
                                   17767              Ÿ    This code was stolen from an equivalent routine                  Ÿ
                                   17768              Ÿ    in the NET module. Make it a subroutine and put                  Ÿ
                                   17769              Ÿ    it in UTIL.                                                      Ÿ
                                   17770              Ÿ                                                                     Ÿ
                                                      ¾þþþþþþþþþþþþþþþþþþþþþþþþþþþþþþþþþþþþþþþþþþþþþþþþþþþþþþþþþþþþþþþþþþþþþ»
0002B5C 50E0 D000/9008_      00000 17771              LISTBIN  PROC  ,
 USING  *,R7
 002B76 18F1                       17810                       LR    R15,R1              R1 = first character on line
 002B78 1AF0                       17811                       AR    R15,R0
 002B7A 06F0                       17812                       DECR  R15                 R15 = last character on line
                                   17814            C          IF    ((R0,LT,2),OR,
                                                    C                ('CLC @R1(1),@R15',NE),OR,
 002B7C 5900 70E2/4740_      02C58                                   ((@R1,NE,'|'),AND,(@R1,NE,'@'))),BEGIN
 002B9E 4110 7128/4100_      02C9E 17871  1                      TSEG  'Line '
 002BB0 5800 B73C            0073C 17889  1                      L     R0,CPLCNO
 002BB4 58E0 70EA/0DEE       02C60 17890  1                      VCALL CVEXNO
 002BBA 41F0 B050/58E0_      00050 17894  1                      TSEG  (R1),(R0)
 002BC4 4110 712D/4100_      02CA3 17918  1                      SETMSG ' is not valid TRANSPARENT data.'
 002BCC 9560 4000/4780_00000       17922  1                      IF    ((@R4,EQ,'-'),OR,(@R4,EQ,X'2D')),BEGIN
 002BDC 4110 70FA/4100_      02C70 17953  2                        TSEG  ' has Macintosh transparent data which can not '
 002BEE 4110 714C/4100_      02CC2 17971  2                        SETMSG 'be sent over the net.'
 002BF6                            17975  1                      END
 002BF6 41F0 B050/58E0_      00050 17979  1                      TSEG  (R1),(R0),CR
 002C00 4110 70CA/4100_      02C40 18003  1                      ABORT 'LIST command incomplete.'
 002C0C                            18010                       END
                                   18014                       ¿þþþþþþþþþþþþþþþþþþþþþþþþþþþþþþþþþþþþþþþþþþþþþþþþþþþþþþþþþþþþþþþÜ
                                   18015                       Ÿ  If the first character is an "@" then the data is in ASCII,  Ÿ
                                   18016                       Ÿ    and if the first character is a "|" then it is in EBCDIC.  Ÿ
                                   18017                       ¾þþþþþþþþþþþþþþþþþþþþþþþþþþþþþþþþþþþþþþþþþþþþþþþþþþþþþþþþþþþþþþþ»
 002C0C 954F 1000/4770_00000       18018                       IF    (@R1,EQ,'|'),BEGIN  ASCII...
 002C14 58E0 70F2/0DEE       02C68 18034  1                      VCALL TOASCII             If EBCDIC, convert to ASCII
 002C1A 5E10 70F6            02C6C 18038  1                      INCR  R1                  Don't send the delimiters
 002C1E 0600                       18041  1                      DECR  R0
 002C20 0600                       18043  1                      DECR  R0
 002C22 41F0 B050/58E0_      00050 18045  1                      TSEG  (R1),(R0)
 002C2C                            18069                       END
 002C2C 18D8/9808 D004_            18073                       PEND  ,
 DROP   *,R7
1EDIT     (EDIT2193) (12:43) (15MAR04) LIST and POINT Commands                                                              Page   37
0Current Usings:  (LISTWA,R6) (CP,R11) (CV,R12)
0Loc    Object Code    Addr1 Addr2  Stmt Lv Lineno    Source Statement           (Hibal 5, Asmedit 3.3)  HLASM R4.0  2004/03/15 12.43
+___    ______ ____    _____ _____  ____ __ ______    ______ _________
0                                  18094                       QLTORG ,
                                   18117              ¿þþþþþþþþþþþþþþþþþþþþþþþþþþþþþþþþþþþþþþþþþþþþþþþþþþþþþþþþþþþþþþþþþþþþþÜ
                                   18118              Ÿ                                                                     Ÿ
                                   18119              Ÿ  LISTMIX -- Routine to list line in mixed EBCDIC and HEX            Ÿ
                                   18120              Ÿ    format.                                                          Ÿ
                                   18121              Ÿ                                                                     Ÿ
                                   18122              Ÿ    On entry:                                                        Ÿ
                                   18123              Ÿ      CPCLNO - lineno                                                Ÿ
                                   18124              Ÿ      R1,R0 - line loc, len                                          Ÿ
                                   18125              Ÿ                                                                     Ÿ
                                   18126              Ÿ    On exit, R15 (and cc):                                           Ÿ
                                   18127              Ÿ      0 - ok                                                         Ÿ
                                   18128              Ÿ      nz-attn                                                        Ÿ
                                   18129              Ÿ                                                                     Ÿ
                                                      ¾þþþþþþþþþþþþþþþþþþþþþþþþþþþþþþþþþþþþþþþþþþþþþþþþþþþþþþþþþþþþþþþþþþþþþ»
0002CD8 50E0 D000/9008_      00000 18130              LISTMIX  PROC  ,
 USING  *,R7
 002CF2 9001 D000/41D0_      00000 18169                       XPUSH R0,R1
 002CFA 41F0 0009            00009 18172                       LA    R15,9               Indentation if unnumbered
 002CFE 1B00                       18173                       CLEAR R0
 002D00 9180 BD54/4710_00D54       18177                       IF    ~CPLFLG5.CPFUNUM,BEGIN
 002D08 5800 B73C            0073C 18193  1                      L     R0,CPLCNO
 002D0C 58E0 707E/0DEE       02D70 18194  1                      VCALL CVEXNO
 002D12 4110 BC88/4100_      00C88 18198  1                      TSEG  CPDOUB,9
 002D24 4110 C4D8/4100_      004D8 18228  1                      SETMSG CVBLANKS,2
 002D2C                            18244                       END
 002D2C 91C0 BD54/47E0_00D54       18248                       IF    CPLFLG5.CPFNONUM,'SETMSG CVBLANKS,11'
 002D3C 41F0 B050/58E0_      00050 18285                       TSEG  (R1),(R0)
 002D46 4BD0 708E/9801_      02D80 18309                       XPOP  R0,R1
 002D4E 58E0 7086/0DEE       02D78 18312                       VCALL MIXFMT
 002D54 1B00/41F0 B050_            18316                       TCR
 002D60 18D8/9808 D004_            18341                       PEND  ,
 DROP   *,R7
                                   18361
                                   18362                       QLTORG
                                   18379
 DROP   LISTWA,R6                  18380                       DROP  R6
1EDIT     (EDIT2193) (12:43) (15MAR04) SQUASH Command                                                                       Page   38
0Current Usings:  (CP,R11) (CV,R12)
0Loc    Object Code    Addr1 Addr2  Stmt Lv Lineno    Source Statement           (Hibal 5, Asmedit 3.3)  HLASM R4.0  2004/03/15 12.43
+___    ______ ____    _____ _____  ____ __ ______    ______ _________
0                                  18388              ¿þþþþþþþþþþþþþþþþþþþþþþþþþþþþþþþþþþþþþþþþþþþþþþþþþþþþþþþþþþþþþþþþþþþþþÜ
                                   18389              Ÿ                                                                     Ÿ
                                   18390              Ÿ  SQUASH -- SQUASH command.                                          Ÿ
                                   18391              Ÿ                                                                     Ÿ
                                                      ¾þþþþþþþþþþþþþþþþþþþþþþþþþþþþþþþþþþþþþþþþþþþþþþþþþþþþþþþþþþþþþþþþþþþþþ»
0002D82 50E0 D000/9008_      00000 18392              SQUASH   XPROC ,
 USING  *,R7
 002D9C 9610 BD50/9620_00D50       18432                       SET   CPLFLG1.CPFALL,CPLFLG5.CPFNLST  all and nolist
 002DA4 58E0 7C4C/0DEE       039E8 18444                       VCALL NDETRNG
 002DAA 5810 B08C/1B00_      0008C 18448                       SCAN  SQUPRT
 002DFC 58E0 7C58/0DEE       039F4 18480                       SCANCHK
                                   18485
 002E02 D703 BD68 BD68 00D68 00D68 18486                       CLEAR CPWK3               No lines processed yet
 002E08 5800 7C5C/5810_      039F8 18493                       RDRNG SQURTN,(DESNRTN+LOCATRTN+UNPRST+DESABORT)
 002E16 0000                       18500                       BOMB  ,                   No return
 002E18 18D8/9808 D004_            18502                       PEND  ,
 DROP   *,R7
                                   18522
-002E28 4040404040404040_          18524              SQUPRT   SCKW  ,V(LISTPSH),PUSH
 002E50 4040404040404040_          18539                       SCKW  ,V(COLSPSH),PUSH
 002E78 4040404040404040_          18554                       SCKW  ,V(NUMPSH),PUSH
 002EA0 4040404040404040_          18569                       SCKW  ,V(NOTVALID)
1EDIT     (EDIT2193) (12:43) (15MAR04) SQUASH Command                                                                       Page   39
0Current Usings:  (CP,R11) (CV,R12)
0Loc    Object Code    Addr1 Addr2  Stmt Lv Lineno    Source Statement           (Hibal 5, Asmedit 3.3)  HLASM R4.0  2004/03/15 12.43
+___    ______ ____    _____ _____  ____ __ ______    ______ _________
0                                  18585              ¿þþþþþþþþþþþþþþþþþþþþþþþþþþþþþþþþþþþþþþþþþþþþþþþþþþþþþþþþþþþþþþþþþþþþþÜ
                                   18586              Ÿ                                                                     Ÿ
                                   18587              Ÿ  SQURTN -- Co-routine to process lines from the range processor.    Ÿ
                                   18588              Ÿ                                                                     Ÿ
                                   18589              Ÿ    On entry:                                                        Ÿ
                                   18590              Ÿ      R1,R0 - line loc, len                                          Ÿ
                                   18591              Ÿ                                                                     Ÿ
                                                      ¾þþþþþþþþþþþþþþþþþþþþþþþþþþþþþþþþþþþþþþþþþþþþþþþþþþþþþþþþþþþþþþþþþþþþþ»
0000000                00000 00100 18592              SQRTWA   RECORD BEGIN
                                   18600  1           SQRTLINE   DS    XL(&PRESSZ)
 000000                                   1          +SQRTLINE   DS    XL(256)
 000100                00100 00100 18601                       END
                                   18610              *
                                   18611              *
 002EC8 50E0 D000/9008_      00000 18612              SQURTN   PROC  SQRTWA
 USING  *,R7
 USING  SQRTWA-(4+36),R8
 002EE2 D2EA 8028 1000 00000 00000 18662                       MVC   SQRTLINE(&LINESZ),@R1
 002EE8 4110 8028            00000 18663                       LA    R1,SQRTLINE
 002EEC 1861                       18664                       LR    R6,R1
 002EEE 18F0                       18665                       LR    R15,R0
 002EF0 1B55                       18666                       CLEAR R5
 002EF2 4900 BC50/47D0_      00C50 18670                       IF    (R0,GT,CPLCOL),'LR R5,R0; CEIL R0,CPLCOL'
 002F08 4A10 BC4E            00C4E 18699                       AH    R1,CPFCOL
 002F0C 4B00 BC4E            00C4E 18700                       SH    R0,CPFCOL
 002F10 4720 703A/1816_      02F1C 18701                       IF    NP,'LR R1,R6; LR R0,R15; B SQUREP'
 002F1C 58E0 7B22/0DEE       03A04 18720                       VCALL SQSHRTN             Get rid of multiple blanks
 002F22 1821                       18724                       LR    R2,R1
 002F24 1A20                       18725                       AR    R2,R0
 002F26 48F0 BC50            00C50 18726                       LH    R15,CPLCOL
 002F2A 4BF0 BC4E            00C4E 18727                       SH    R15,CPFCOL
 002F2E 1BF0                       18728                       SR    R15,R0
 002F30 06F0/12FF/4740_            18729                       MOVE  R15,@R2,CVBLANKS    Pad with blanks
 002F3C 1816                       18767                       LR    R1,R6
 002F3E 4A00 BC4E            00C4E 18768                       AH    R0,CPFCOL
 002F42 1255/4780 7068_            18769                       IF    (R5,NZ),'LR R0,R5'
                                   18789
 002F4A 1B22                       18790              SQUREP   CLEAR R2                  Attn flag
 002F4C 9001 D000/41D0_      00000 18795                       XPUSH R0,R1               Save line ptrs
 002F54 9120 BD54/4710_00D54       18798                       IF    ~CPLFLG5.CPFNLST,BEGIN
 002F5C 58E0 7B26/0DEE       03A08 18814  1                      VCALL LISTLINE
 002F62 1B00/41F0 B050_            18818  1                      IF    ('TWRITE',NZ),'LA R2,1'
 002F76                            18861                       END
 002F76 4BD0 7B90/9801_      03A72 18865                       XPOP  R0,R1               Line len, loc
 002F7E 58F0 B73C            0073C 18868                       L     R15,CPLCNO          Lineno
 002F82 58E0 7B2E/0DEE       03A10 18869                       VCALL PUTLINE             Replace line
                                   18873
 002F88 D603 BD68 BD68_00D68 00D68 18874                       IF    (CPWK3,Z),BEGIN     First change, count it...
 002F92 9110 B477/47E0_00477       18890  1                      IF    CPFTYPED,'COUNT CPACHCT'  Count if typed
 002FA6 D203 BD68 7B32 00D68 03A14 18914  1                      MVC   CPWK3,=F'1'
 002FAC                            18915                       END
                                   18919
 002FAC 1222/4770 C7DA             18920                       IF    (R2,NZ),CVABORT
1EDIT     (EDIT2193) (12:43) (15MAR04) SQUASH Command                                                                       Page   40
0Current Usings:  (CP,R11) (CV,R12)
0Loc    Object Code    Addr1 Addr2  Stmt Lv Lineno    Source Statement           (Hibal 5, Asmedit 3.3)  HLASM R4.0  2004/03/15 12.43
+___    ______ ____    _____ _____  ____ __ ______    ______ _________
0002FB2 18D8/9808 D004_            18937                       PEND  ,
 DROP   SQRTWA-(4+36),R8
 DROP   *,R7
1EDIT     (EDIT2193) (12:43) (15MAR04) COMPARE Command                                                                      Page   41
0Current Usings:  (CP,R11) (CV,R12)
0Loc    Object Code    Addr1 Addr2  Stmt Lv Lineno    Source Statement           (Hibal 5, Asmedit 3.3)  HLASM R4.0  2004/03/15 12.43
+___    ______ ____    _____ _____  ____ __ ______    ______ _________
0000000                00000 00121 18963              COMPWA   RECORD BEGIN
 000000                            18971  1           COMPLN1    DS    F                   Line 1
 000004                            18972  1           COMPLN1E   DS    F
 000008                            18973  1           COMPLN2    DS    F                   Line 2
 00000C                            18974  1           COMPLN2E   DS    F
 000010                            18975  1           COMPSVL    DS    XL(4*4)             Save copy of line1,line2
 000020 00                         18976  1           COMPFLAG   FLAG
 COMPFLAG.FSINGLE  80 ONES         18980  1                      FLAG  FSINGLE             - single option
 COMPFLAG.FREVERSE 40 ONES         18985  1                      FLAG  FREVERSE            - line1 & line2 are reversed
                                   18990  1           COMPLINE   DS    XL(&PRESSZ)         Saved copy of line
 000021                                   1          +COMPLINE   DS    XL(256)             Saved copy of line
 000121                00121 00121 18991                       END
-                                  19001              ¿þþþþþþþþþþþþþþþþþþþþþþþþþþþþþþþþþþþþþþþþþþþþþþþþþþþþþþþþþþþþþþþþþþþþþÜ
                                   19002              Ÿ                                                                     Ÿ
                                   19003              Ÿ  COMPARE -- COMPARE command.                                        Ÿ
                                   19004              Ÿ                                                                     Ÿ
                                                      ¾þþþþþþþþþþþþþþþþþþþþþþþþþþþþþþþþþþþþþþþþþþþþþþþþþþþþþþþþþþþþþþþþþþþþþ»
0002FC0 50E0 D000/9008_      00000 19005              COMPARE  XPROC COMPWA
 USING  *,R7
 USING  COMPWA-(4+36),R8
 002FDA 4160 8028            00000 19056                       LA    R6,COMPWA
 USING  COMPWA,R6                  19057                       USING COMPWA,R6
 002FDE D7FF 6000 6000_00000 00000 19066                       CLEAR COMPWA
 002FEA 58E0 7A3E/0DEE       03A18 19074                       VCALL ORVCPASS            (For Spicomp's COMPILE command)
                                   19078
 002FF0 58E0 7A42/0DEE       03A1C 19079                       VCALL ACTCHK              Verify that there is an Active
                                   19083
                                   19084                       COMMENT                   SET UP FOR COMPARE LNO CALC'S
 002FF6 5830 B5A8            005A8 19085                       L     R3,CPACLNO
 002FFA 5840 B5A8            005A8 19086                       L     R4,CPACLNO
                                   19087
 002FFE                            19088              COMREST  LABEL ,
                                   19090
                                   19091                       COMMENT                   SCAN FOR FIRST LINE
 002FFE 4150 6000            00000 19092                       LA    R5,COMPLN1          First lineno
 003002 5030 B5A8            005A8 19093                       ST    R3,CPACLNO          for * calculations
 003006 5810 B08C/1B00_      0008C 19094                       SCAN  COMPRT
 003058 58E0 7A1A/0DEE       039F4 19126                       SCANCHK
 00305E 59F0 7A4A/4770_      03A24 19131                       IF    (R15,EQ,8),BEGIN
 003066 4110 7AEE/4100_      03AC8 19148  1                      ERROR 'Missing line-number pair for COMPARE.'
 003072                            19155                       END
                                   19159
                                   19160                       COMMENT                   'TO' OPTIONAL
 003072 5810 B08C/1B00_      0008C 19161                       SCAN  ,
 0030C0 58E0 7A1A/0DEE       039F4 19192                       SCANCHK
 0030C6 5810 B08C/4111_      0008C 19197                       SCUPTOK R1
 0030CE D502 7B13 1000_03AED 00000 19201                       IF    (@R1,NE,'TO '),BEGIN
 0030D8 58E0 B08C/58FE_      0008C 19217  1                      SCBKUP
 00310E                            19273                       END
                                   19277
                                   19278                       COMMENT                   SCAN FOR SECOND LINE
1EDIT     (EDIT2193) (12:43) (15MAR04) COMPARE Command                                                                      Page   42
0Current Usings:  (COMPWA,R6) (*,R7) (COMPWA-(4+36),R8) (CP,R11) (CV,R12)
0Loc    Object Code    Addr1 Addr2  Stmt Lv Lineno    Source Statement           (Hibal 5, Asmedit 3.3)  HLASM R4.0  2004/03/15 12.43
+___    ______ ____    _____ _____  ____ __ ______    ______ _________
000310E 4150 6008            00008 19279                       LA    R5,COMPLN2          Second lineno
 003112 5040 B5A8            005A8 19280                       ST    R4,CPACLNO          for * calculations
 003116 5810 B08C/1B00_      0008C 19281                       SCAN  COMPRT
 003168 58E0 7A1A/0DEE       039F4 19313                       SCANCHK
 00316E 59F0 7A4A/4770_      03A24 19318                       IF    (R15,EQ,8),BEGIN
 003176 4110 7B16/4100_      03AF0 19335  1                      ERROR 'Missing second line-number for COMPARE.'
 003182                            19342                       END
                                   19346
                                   19347                       COMMENT                   SCAN FOR OTHER OPTIONS
 003182 5810 B08C/1B00_      0008C 19348                       SCAN  COMOPRT             Scan for any list options
 0031D4 58E0 7A1A/0DEE       039F4 19380                       SCANCHK
                                   19385
                                   19386                       COMMENT                   DO COMPARE
 0031DA D203 B5A8 7A52 005A8 03A2C 19387                       MVC   CPACLNO,=F'-1000'   Current line not yet set
 0031E0 D70F 6010 6010 00010 00010 19388                       CLEAR COMPSVL             Init save copy of linenos
 0031E6 94BF 6020      00020       19395                       CLEAR FREVERSE            Assume line1 > line2
 0031EA D503 6000 6008_00000 00008 19402                       IF    (COMPLN1,GT,COMPLN2),BEGIN  flip ranges
 0031F4 D707 6000 6008_00000 00008 19420  1                      FLIP  (COMPLN1,COMPLN2,8)
 003206 9640 6020      00020       19425  1                      SET   FREVERSE            We reversed the ranges
 00320A                            19431                       END
 00320A 5820 6000            00000 19435                       L     R2,COMPLN1          Line 1
 00320E 5830 6008            00008 19436                       L     R3,COMPLN2          Line 2
 003212 1923/4770 7250             19437                       IF    (R2,EQ,R3),BEGIN
 003218 D207 B886 79D6_00886 039B0 19452  1                      ERROR 'COMPARE line-numbers are the same.',,COMPSAME
 00322A                            19460                       END
 00322A 58F0 6004/12FF_      00004 19464                       IF    ('LT R15,COMPLN1E',NEG),BEGIN
 003234 18F3                       19480  1                      LR    R15,R3              Start of line2 range
 003236 06F0                       19481  1                      DECR  R15                 Back up
 003238 50F0 6004            00004 19483  1                      ST    R15,COMPLN1E        Set up line1 range end
 00323C                            19484                       END
 00323C 19F3/4750 7274_            19488                       IF    (R15,GE,R3),'ERROR "Ranges overlap."'
 00324E 58F0 600C/12FF_      0000C 19515                       IF    ('LT R15,COMPLN2E',NEG),BEGIN
 003258 5810 B5A4            005A4 19531  1                      L     R1,CPALLNO          Get LAST line-number
 00325C 5010 600C            0000C 19532  1                      ST    R1,COMPLN2E         Save last line-number
 003260                            19533                       END
                                   19537
 003260 4150 0006            00006 19538                       LA    R5,L'DONT           Set length for don't message
 003264 4110 6000            00000 19539              LOOPA    LA    R1,COMPLN1          Point at 1st line no.
 003268 58E0 7A56/0DEE       03A30 19540                       VCALL LOCATE              Locate
 00326E 9108 BD84/4710_00D84       19544                       IF    CPDRPT.CPFMTCH,HAVLN1  got line
 003276 D203 6000 B73C 00000 0073C 19563                       MVC   COMPLN1,CPLCNO      Set for next locate
 00327C 91C0 BD84/4770_00D84       19564                       IF    CPDRPT.CPFNTYT+CPFHIGH,COMPBACK  off the end
 003284 D503 6000 6004_00000 00004 19586              HAVLN1   IF    (COMPLN1,GT,COMPLN1E),COMPBACK  all done
 00328E 4320 F004            00004 19608                       IC    R2,@R15+4           Get line count
 003292 4120 2004            00004 19609                       LA    R2,@R2+5-1          Total len (in ex form)
 003296 4420 7B6A/D200_      03B44 19610                       EX    R2,'MVC COMPLINE(0),@R15'  save copy of line
 00329A 4110 6008            00008 19626              LOOPB    LA    R1,COMPLN2          Point at 2nd line no.
 00329E 58E0 7A56/0DEE       03A30 19627                       VCALL LOCATE              Locate
 0032A4 9108 BD84/4710_00D84       19631                       IF    CPDRPT.CPFMTCH,HAVLN2  lineno matches
 0032AC D203 6008 B73C 00008 0073C 19650                       MVC   COMPLN2,CPLCNO      Set for next locate
 0032B2 91C0 BD84/4780_00D84       19651                       IF    (CPDRPT.CPFNTYT+CPFHIGH,Z),HAVLN2
 0032BA D60F 6010 6010_00010 00010 19675              COMPBACK IF    (COMPSVL,Z),'ERROR "No lines found.",,NOLINESX'
 0032D6 D20F 6000 6010 00000 00010 19705                       MVC   COMPLN1(16),COMPSVL Backup to last compared lines
 0032DC 47F0 73AA            03384 19706                       B     COMPDONE            All done
1EDIT     (EDIT2193) (12:43) (15MAR04) COMPARE Command                                                                      Page   43
0Current Usings:  (COMPWA,R6) (*,R7) (COMPWA-(4+36),R8) (CP,R11) (CV,R12)
0Loc    Object Code    Addr1 Addr2  Stmt Lv Lineno    Source Statement           (Hibal 5, Asmedit 3.3)  HLASM R4.0  2004/03/15 12.43
+___    ______ ____    _____ _____  ____ __ ______    ______ _________
0                                  19707
 0032E0 D503 6008 600C_00008 0000C 19708              HAVLN2   IF    (COMPLN2,GT,COMPLN2E),COMPBACK
 0032EA 4320 6025            00025 19730                       IC    R2,COMPLINE+4       Get line 1 count for clc
 0032EE 4420 7B70/D500_      03B4A 19731                       EX    R2,'CLC @R15+4(0),COMPLINE+4'  compare lines
 0032F2 4780 7358            03332 19747                       IF    NE,BEGIN            Not the same...
 0032F6 182D/41D0 D0EC             19758  1                      XPUSH ,,&LINESZ,PTR=R2
 0032FC 1812                       19761  1                      LR    R1,R2               Unpress area #1
 0032FE 58E0 7A5A/0DEE       03A34 19762  1                      VCALL UNPRESS             Unpress second line
 003304 181D/41D0 D0EC             19766  1                      XPUSH ,,&LINESZ,PTR=R1
 00330A 41F0 6021            00021 19769  1                      LA    R15,COMPLINE
 00330E 58E0 7A5A/0DEE       03A34 19770  1                      VCALL UNPRESS             Unpress first line
 003314 4BD0 7ABC            03A96 19774  1                      XPOP  ,,&LINESZ*2
 003318 4A20 BC4E            00C4E 19776  1                      AH    R2,CPFCOL           Adjust for starting col
 00331C 4A10 BC4E            00C4E 19777  1                      AH    R1,CPFCOL
 003320 48F0 BC50            00C50 19778  1                      LH    R15,CPLCOL
 003324 4BF0 BC4E            00C4E 19779  1                      SH    R15,CPFCOL          Length for comparison
 003328 06F0/44F0 7B76_            19780  1                      IF    ('DEX R15,"CLC @R1(0),@R2"',NE),COMPDIFF  not the same
 003332                            19814                       END
 003332 5810 C1C8            001C8 19818                       L     R1,CVCURJCB         Get JCB to test attn
 003336 9102 1062/4710_00062       19819                       WITH  (JCB,R1),'IF JCBFATTN,COMABORT'  Abort on attn
 USING  JCB,R1
 DROP   JCB,R1
 00333E D20F 6010 6000 00010 00000 19860                       MVC   COMPSVL,COMPLN1     Save current line1,line2
 003344 5800 6000/4110_      00000 19861              COMNEXT  GEN   'L R0,COMPLN1; LA R1,1; VCALL ADDER; ST R0,COMPLN1'
 003356 5800 6008/4110_      00008 19870                       GEN   'L R0,COMPLN2; LA R1,1; VCALL ADDER; ST R0,COMPLN2'
 003368 47F0 728A            03264 19878                       B     LOOPA               More
1EDIT     (EDIT2193) (12:43) (15MAR04) COMPARE Command                                                                      Page   44
0Current Usings:  (COMPWA,R6) (*,R7) (COMPWA-(4+36),R8) (CP,R11) (CV,R12)
0Loc    Object Code    Addr1 Addr2  Stmt Lv Lineno    Source Statement           (Hibal 5, Asmedit 3.3)  HLASM R4.0  2004/03/15 12.43
+___    ______ ____    _____ _____  ____ __ ______    ______ _________
000336C D207 B886 79E6 00886 039C0 19880              COMABORT MVC   CPERRID,=CL8'ABORTCMP'
 003372 4110 79EE/4100_      039C8 19881                       TSEG  'Compare stopped.',,CR
 003384 1B55                       19899              COMPDONE CLEAR R5                  zero count so 'don''t ' omitted
 003386 9140 6020/47E0_00020       19904              COMPDIFF IF    FREVERSE,BEGIN      Need to flip range back again...
 00338E D707 6000 6008_00000 00008 19920  1                      FLIP  (COMPLN1,COMPLN2,8)
 0033A0                            19925                       END
 0033A0 1255/4780 73D2_            19929                       IF    (R5,NZ),'MVC CPACLNO,COMPLN1'  Set current
 0033AC 9120 BD54/4710_00D54       19949                       IF    CPLFLG5.CPFNLST,CVNEXT
 0033B4 4110 7B5B/4100_      03B35 19968                       TSEG  'Lines',,B
 0033C6 5800 6000            00000 19986                       L     R0,COMPLN1          First lineno
 0033CA 58E0 7A6A/0DEE       03A44 19987                       VCALL CVEXNO              Conv
 0033D0 41F0 B050/58E0_      00050 19991                       TSEG  (R1),(R0),B         Into msg
 0033DA 4110 7B60/4100_      03B3A 20015                       TSEG  'and',,B
 0033EC 5800 6008            00008 20033                       L     R0,COMPLN2          Second lineno
 0033F0 58E0 7A6A/0DEE       03A44 20034                       VCALL CVEXNO              Conv
 0033F6 41F0 B050/58E0_      00050 20038                       TSEG  (R1),(R0),B         Into msg
 003400 4110 79D0/1805_      039AA 20062                       TSEG  DONT,(R5)           add don't or nothing to msg
 003410 4110 79FE/4100_      039D8 20090                       TSEG  'compare.',,CR
 003422 9140 BD54/47E0_00D54       20108                       IF    (CPLFLG5.CPFNTEX,AND,~CPLFLG5.CPFUNUM),COMCONT
 003432 1255/4780 C7DE             20142                       IF    (R5,Z),CVNEXT       don't display lines if match
 003438 4110 6000            00000 20159                       LA    R1,COMPLN1          Point to 1st line no
 00343C 58E0 7A56/0DEE       03A30 20160              COMPLST  VCALL LOCATE              Go locate it
 003442 4110 6021            00021 20164                       LA    R1,COMPLINE         Point to unpress area
 003446 58E0 7A5A/0DEE       03A34 20165                       VCALL UNPRESS             Unpress the line
 00344C 58E0 7A2E/0DEE       03A08 20169                       VCALL LISTLINE            Format line for output
 003452 1255/4780 7498             20173                       IF    (R5,Z),COMCONT      Finsihed listing lines
 003458 1B00/41F0 B050_            20190                       TWRITE ,                  No, write out first line
 003464 4770 C7DA            007DA 20215                       BNZ   CVABORT             Stop if attn
 003468 1B55                       20216                       CLEAR R5                  Set switch for 2nd pass
 00346A 4110 6008            00008 20220                       LA    R1,COMPLN2          Point to second line
 00346E 47F0 7462            0343C 20221                       B     COMPLST             Go do it
                                   20222              *
                                   20223              *
                                   20224              *  continue ?  stuff
                                   20225              *
                                   20226              *
 003472 1B00/41F0 B050_            20227              COMCONT  TWRITE
 00347E 4770 C7DA            007DA 20253                       BNZ   CVABORT
 003482 58F0 C1C8            001C8 20254                       L     R15,CVCURJCB
 003486 9102 F062/4710_00062       20255                       WITH  (JCB,R15),'IF JCBFATTN,CVABORT'  Abort if attn
 USING  JCB,R15
 DROP   JCB,R15
 00348E 9180 6020/4710_00020       20296                       IF    FSINGLE,CVNEXT
 003496 D503 6000 6004_00000 00004 20314                       IF  ((COMPLN1,GE,COMPLN1E),OR,(COMPLN2,GE,COMPLN2E)),CVNEXT
 0034AA 4110 7A06/4100_      039E0 20352                       SETMSG 'Continue'
                                   20356
 0034B2 58E0 7A72/0DEE       03A4C 20357                       VCALL YESRTN              Look at reply
 0034B8 4740 C7DA            007DA 20361                       BM    CVABORT
 0034BC 47D0 74F2/4110_      034CC 20362                       IF    POS,'SETMSG "Compare stopped."; B CVNXTMSG'
                                   20383
 0034CC 4150 0006            00006 20384                       LA    R5,L'DONT           RESET DO/DON'T MSG TO DON'T
                                   20385
                                   20386                       COMMENT ,                 DO CONTINUE OR RESTART
 0034D0 58E0 B08C/D2AF_      0008C 20387                       SCPUSH ,                  CHECK FOR RESTART OR CONTINUE
1EDIT     (EDIT2193) (12:43) (15MAR04) COMPARE Command                                                                      Page   45
0Current Usings:  (COMPWA,R6) (*,R7) (COMPWA-(4+36),R8) (CP,R11) (CV,R12)
0Loc    Object Code    Addr1 Addr2  Stmt Lv Lineno    Source Statement           (Hibal 5, Asmedit 3.3)  HLASM R4.0  2004/03/15 12.43
+___    ______ ____    _____ _____  ____ __ ______    ______ _________
00034DE 5810 B08C/1B00_      0008C 20393                       SCAN
 00352C 58E0 7A1A/0DEE       039F4 20424                       SCANCHK
 003532 1200/47D0 7584             20429                       IF    (R0,POS),BEGIN
 003538 58E0 B08C/4BD0_      0008C 20443  1                      SCPOP ,
 003546 5830 6000            00000 20449  1                      L     R3,COMPLN1          SET FOR * LINE NO CALCULATIONS
 00354A 5840 6008            00008 20450  1                      L     R4,COMPLN2
 00354E D7FF 6000 6000_00000 00000 20451  1                      CLEAR COMPWA
 00355A 47F0 7024            02FFE 20459  1                      B     COMREST             RESTART COMPARE
 00355E                            20460                       END
 00355E 47F0 736A            03344 20464                       B     COMNEXT             CONTINUE COMPARE
 003562 18D8/9808 D004_            20465                       PEND  ,
 DROP   COMPWA-(4+36),R8
 DROP   *,R7
                                   20490
 003570 4040404040404040_          20491              COMPRT   SCKW  ,COMNORNG,NULL
 003598 4040404040404040_          20506                       SCKW  ,COMRNG,SYMLN
 0035C0 4040404040404040_          20521                       SCKW  ,V(LTNPSH),PUSH
 0035E8 E240404040404040_          20536                       SCKW  S,COMPSING
 003610 E2C9D5C7D3C54040_          20551                       SCKW  SINGLE,COMPSING,A
 003638 4040404040404040_          20566                       SCKW  ,V(COLSPSH),PUSH
 003660 4040404040404040_          20581                       SCKW  ,V(NOTVALID)
                                   20596
 003688 4040404040404040_          20597              COMOPRT  SCKW  ,V(LTNPSH),PUSH
 0036B0 E240404040404040_          20612                       SCKW  S,COMPSING
 0036D8 E2C9D5C7D3C54040_          20627                       SCKW  SINGLE,COMPSING,A
 003700 4040404040404040_          20642                       SCKW  ,V(COLSPSH),PUSH
 003728 4040404040404040_          20657                       SCKW  ,V(NOTVALID)
                                   20672
 003750 4040404040404040_          20673              LNO2PRT  SCKW  ,MISSLNO2,NULL
 003778 4040404040404040_          20688                       SCKW  ,COMLNO2,SYMLN
 0037A0 4040404040404040_          20703                       SCKW  ,V(NOTVALID)
                                   20718
 0037C8 50E0 D000/9008_      00000 20719              COMNORNG PROC  ,
 USING  *,R7
 0037E2 41F0 0008            00008 20758                       LA    R15,8
 0037E6 18D8/9808 D004_            20759                       PEND  ,
 DROP   *,R7
                                   20779
 0037F4 50E0 D000/9008_      00000 20780              COMRNG   PROC  ,
 USING  *,R7
 00380E 5000 5000            00000 20819                       ST    R0,@R5              Save lineno
 003812 D203 5004 7242 00004 03A50 20820                       MVC   @R5+4(4),=F'-1'
 003818 58E0 B08C/D2AF_      0008C 20821                       SCPUSH
 003826 5810 B08C/1B00_      0008C 20827                       SCAN  ,                   Optional "/<end lineno>"
 003874 58E0 71E6/0DEE       039F4 20858                       SCANCHK
 00387A 5900 7246/4770_      03A54 20863                       IF    ((R0,EQ,1),AND,(@R1,EQ,'/')),BEGIN
 00388A 5810 B08C/1B00_      0008C 20895  1                      SCAN  LNO2PRT
 0038DC 58E0 71E6/0DEE       039F4 20927  1                      SCANCHK
 0038E2                            20932                       END
 0038E2 70D8/70D8/47F0_038E2 03880 20936                       ELSE  BEGIN
 0038E6 58E0 B08C/4BD0_      0008C 20949  1                      SCPOP ,
 0038F4                            20955                       END
 0038F4 41F0 0004            00004 20959                       LA    R15,4
 0038F8 18D8/9808 D004_            20960                       PEND  ,
1EDIT     (EDIT2193) (12:43) (15MAR04) COMPARE Command                                                                      Page   46
0Current Usings:  (COMPWA,R6) (CP,R11) (CV,R12)
0Loc    Object Code    Addr1 Addr2  Stmt Lv Lineno    Source Statement           (Hibal 5, Asmedit 3.3)  HLASM R4.0  2004/03/15 12.43
+___    ______ ____    _____ _____  ____ __ ______    ______ _________
0DROP   *,R7
                                   20980
 003906 50E0 D000/9008_      00000 20981              MISSLNO2 PROC  ,
 USING  *,R7
 003920 4110 717A/4100_      03A9A 21020                       ERROR '/: missing operand.  (Number must follow "/".)'
 00392C 18D8/9808 D004_            21027                       PEND  ,
 DROP   *,R7
                                   21047
 00393A 50E0 D000/9008_      00000 21048              COMLNO2  PROC  ,
 USING  *,R7
 003954 5500 5000/47B0_      00000 21087                       IF    ('CL R0,@R5',LT),'ERROR "Range is decreasing."'
 003968 5000 5004            00004 21112                       ST    R0,@R5+4            Save ending lineno
 00396C 41F0 0004            00004 21113                       LA    R15,4
 003970 18D8/9808 D004_            21114                       PEND  ,
 DROP   *,R7
                                   21134
 00397E 50E0 D000/9008_      00000 21135              COMPSING PROC  ,
 USING  *,R7
 003998 9680 6020      00020       21174                       SET   FSINGLE
 00399C 18D8/9808 D004_            21180                       PEND  ,
 DROP   *,R7
 DROP   COMPWA,R6                  21200                       DROP  R6
                                   21207
 0039AA 8496957DA340               21208              DONT     DC    C'don''t '
                                   21209
                                   21210                       QLTORG
1EDIT     (EDIT2193) (12:43) (15MAR04) COUNT Command                                                                        Page   47
0Current Usings:  (CP,R11) (CV,R12)
0Loc    Object Code    Addr1 Addr2  Stmt Lv Lineno    Source Statement           (Hibal 5, Asmedit 3.3)  HLASM R4.0  2004/03/15 12.43
+___    ______ ____    _____ _____  ____ __ ______    ______ _________
0000000                00000 0010B 21272              CNTWA    RECORD BEGIN
 000000                            21280  1           CNTNO      DS    F                   Number of lines
 000004                            21281  1           TOTALCNT   DS    F                   String count
 000008                            21282  1           TOTALLEN   DS    H                   Length of string parm
 00000A 00                         21283  1           TOTALFLG   FLAG  ,                   Flags
 TOTALFLG.ANYCASE  80 ONES         21287  1                      FLAG  ANYCASE             - Case independance
                                   21292  1           TOTALSTR   DS    CL(&PRESSZ)         String
 00000B                                   1          +TOTALSTR   DS    CL(256)             String
 00010B                0010B 0010B 21293                       END
-                                  21303              ¿þþþþþþþþþþþþþþþþþþþþþþþþþþþþþþþþþþþþþþþþþþþþþþþþþþþþþþþþþþþþþþþþþþþþþÜ
                                   21304              Ÿ                                                                     Ÿ
                                   21305              Ÿ  COUNT -- COUNT command.                                            Ÿ
                                   21306              Ÿ                                                                     Ÿ
                                                      ¾þþþþþþþþþþþþþþþþþþþþþþþþþþþþþþþþþþþþþþþþþþþþþþþþþþþþþþþþþþþþþþþþþþþþþ»
0003B56 50E0 D000/9008_      00000 21307              COUNT    XPROC CNTWA
 USING  *,R7
 USING  CNTWA-(4+36),R8
 003B70 4160 8028            00000 21358                       LA    R6,CNTWA
 USING  CNTWA,R6                   21359                       USING CNTWA,R6
 003B74 5060 BCA4            00CA4 21368                       ST    R6,CPCWA
 003B78 D7FF 6000 6000_00000 00000 21369                       CLEAR CNTWA
                                   21377
 003B84 58E0 7608/0DEE       04178 21378                       VCALL SCNEXFR             Allow active/exec/from dsname
 003B8A 9610 BD50      00D50       21382                       SET   CPLFLG1.CPFALL      Set default all ok
 003B8E 9640 BD57      00D57       21389                       SET   CPFNCUR             Don't update line ptr
 003B92 58E0 760C/0DEE       0417C 21395                       VCALL NDETRNG             Get range defined
                                   21399
                                   21400                       COMMENT                   SCAN COUNT OPTIONS
 003B98 9503 BD89/4770_00D89       21401                       IF    CPFRDEXT,BEGIN      IF EXTERNAL (FROM) DSN,,
 003BA0 58E0 7610/0DEE       04180 21416  1                      VCALL MKFFINFO
 003BA6 5810 B08C/1B00_      0008C 21420  1                      SCAN  CNTPRTX
 003BF8 58E0 761C/0DEE       0418C 21452  1                      SCANCHK
 003BFE                            21457                       END
 003BFE 7092/47F0 70EA 03BFE 03B9E 21461                       ELSE  BEGIN               IF ACTIVE OR EXEC ,,,
 003C02 5810 B08C/1B00_      0008C 21472  1                      SCAN  CNTPRT
 003C54 58E0 761C/0DEE       0418C 21504  1                      SCANCHK
 003C5A                            21509                       END
                                   21513
 003C5A 9503 BD89/4770_00D89       21514                       IF    CPFRDEXT,BEGIN
 003C62 58E0 7624/0DEE       04194 21529  1                      VCALL FNAMEFIN
 003C68 58E0 7628/0DEE       04198 21533  1                      VCALL EXTOPEN
 003C6E 12FF/4770 C7DE             21537  1                      IF    (R15,NZ),CVNEXT
 003C74                            21554                       END
                                   21558                      ¿þþþþþþþþþþþþþþþþþþþþþþþþþþþþþþþþþþþþþþþþþþþþþþþþþþþþþþþþþþþþþþþþÜ
                                   21559                      Ÿ  Get line count from AINFO if the total line count is wanted.  Ÿ
                                   21560                      ¾þþþþþþþþþþþþþþþþþþþþþþþþþþþþþþþþþþþþþþþþþþþþþþþþþþþþþþþþþþþþþþþþ»
                                   21561                       COMMENT                   If from the active file
 003C74 9501 BD89/4770_00D89       21562                       IF    CPFRDACT,BEGIN      From the Active file...
 003C7C 9180 BD88/47E0_00D88       21577  1                      IF    ~CPFEXPRG,EXIT      Not explicit range, scram
 003C84 D601 6008 6008_00008 00008 21595  1                      IF    (TOTALLEN,NZ),EXIT
                                   21614  1
1EDIT     (EDIT2193) (12:43) (15MAR04) COUNT Command                                                                        Page   48
0Current Usings:  (CNTWA,R6) (*,R7) (CNTWA-(4+36),R8) (CP,R11) (CV,R12)
0Loc    Object Code    Addr1 Addr2  Stmt Lv Lineno    Source Statement           (Hibal 5, Asmedit 3.3)  HLASM R4.0  2004/03/15 12.43
+___    ______ ____    _____ _____  ____ __ ______    ______ _________
0003C8E 58F0 B5AC            005AC 21615  1                      L     R15,CPALNCT         Get line count for entire file
 003C92 12FF/4780 7144             21616  1                      IF    (R15,Z),EXIT        No lines, forget quick version
 003C98 D503 BD90 B5A0_00D90 005A0 21633  1                      IF    (CPFSLN,NE,CPAFLNO),EXIT  Entire Active file
 003CA2 D503 BD94 B5A4_00D94 005A4 21654  1                      IF    (CPLSLN,NE,CPALLNO),EXIT
 003CAC 50F0 B744            00744 21675  1                      ST    R15,CPCOUNT         Save total line count
 003CB0 47F0 71DA            03D4A 21676  1                      B     CNTDONE             Re-join common code
 003CB4                            21677                       END
                                   21681                       ¿þþþþþþþþþþþþþþþþþþþþþþþþþþþþþþþÜ
                                   21682                       Ÿ  CALL RDRANGE TO COUNT TOTAL  Ÿ
                                   21683                       ¾þþþþþþþþþþþþþþþþþþþþþþþþþþþþþþþ»
 003CB4 D601 6008 6008_00008 00008 21684                       IF    (TOTALLEN,Z),BEGIN
 003CBE 9503 BD89/4770_00D89       21700  1                      IF    CPFRDEXT,BEGIN      EXTERNAL
 003CC6 5800 762C/5810_      0419C 21715  2                        RDRNG COUNTRTN,(LXCATRTN+DESRTRN+DESABORT+UNPRST)
 003CD4                            21722  1                      END
 003CD4 7168/47F0 717E_03CD4 03CC4 21726  1                      ELSEIF CPFRDEXE,BEGIN     EXEC
 003CE0 5800 7638/5810_      041A8 21750  2                        RDRNG COUNTRTN,(LEXATRTN+DESRTRN+DESABORT+UNPRST)
 003CEE                            21757  1                      END
 003CEE 7182/47F0 7190 03CEE 03CDE 21761  1                      ELSE  BEGIN               ACTIVE
 003CF2 5800 763C/5810_      041AC 21772  2                        RDRNG COUNTRTN,(DESRTRN+LOCATRTN+DESABORT+UNPRST)
 003D00                            21779  1                      END
 003D00                            21783                       END
                                   21787              *
                                   21788              *  WE NEED DIFFERENT CO-ROUTINE IF 'STRING' OPTION SPECIFIED
                                   21789              *
 003D00 7194/47F0 71D6 03D00 03CBC 21790                       ELSE  BEGIN               IE. (TOTALLEN,NZ),BEGIN
 003D04 9503 BD89/4770_00D89       21801  1                      IF    CPFRDEXT,BEGIN      EXTERNAL
 003D0C 5800 7640/5810_      041B0 21816  2                        RDRNG KOWNTTOT,(LXCATRTN+DESRTRN+LOCATRTN+DESABORT+UNPRST)
 003D1A                            21823  1                      END
 003D1A 71AE/47F0 71C4_03D1A 03D0A 21827  1                      ELSEIF CPFRDEXE,BEGIN     EXEC
 003D26 5800 7648/5810_      041B8 21851  2                        RDRNG KOWNTTOT,(LEXATRTN+DESRTRN+LOCATRTN+DESABORT+UNPRST)
 003D34                            21858  1                      END
 003D34 71C8/47F0 71D6 03D34 03D24 21862  1                      ELSE  BEGIN               ACTIVE
 003D38 5800 763C/5810_      041AC 21873  2                        RDRNG KOWNTTOT,(DESRTRN+LOCATRTN+DESABORT+UNPRST)
 003D46                            21880  1                      END
 003D46                            21884                       END
                                   21888
 003D46 58F0 6000            00000 21889                       L     R15,CNTNO           Get lines counted
                                   21890              *
                                   21891              *
 003D4A 182F                       21892              CNTDONE  LR    R2,R15
 003D4C 1222/4770 71F4_            21893                       IF    ((R2,Z),AND,~CPFDUMP),'TCLEAR'  Zot "no lines" msg
 003D64 9120 BD54/4710_00D54       21940                       IF    CPLFLG5.CPFNLST,CVNEXT
                                   21959
 003D6C 1812/1B00/41F0_            21960                       TNUM  (R2)
 003D7A 4110 75F0/4100_      04160 21982                       SETMSG ' lines in range.'
 003D82 D601 6008 6008_00008 00008 21986                       IF    (TOTALLEN,NZ),BEGIN "Total" count ...
 003D8C 41F0 B050/58E0_      00050 22002  1                      TSEG  (R1),(R0)           Put out held text
 003D96 4110 C4D8/4100_      004D8 22026  1                      TSEG  CVBLANKS,2          Put out some blanks
 003DA8 58F0 6004/1B00_      00004 22056  1                      BTD   CPDOUB,0,L:TOTALCNT Get string count
 003DB8 41F0 B050/58E0_      00050 22076  1                      TSEG  (R1),(R0),B         Put out "total" count
 003DC2 4110 7676/4100_      041E6 22100  1                      SETMSG 'string occurrences.' Put out heading
 003DCA                            22104                       END
 003DCA 47F0 C7D0            007D0 22108                       B     CVNXTMSG            Go get next cmd
 003DCE 18D8/9808 D004_            22109                       PEND  ,
1EDIT     (EDIT2193) (12:43) (15MAR04) COUNT Command                                                                        Page   49
0Current Usings:  (CNTWA,R6) (CP,R11) (CV,R12)
0Loc    Object Code    Addr1 Addr2  Stmt Lv Lineno    Source Statement           (Hibal 5, Asmedit 3.3)  HLASM R4.0  2004/03/15 12.43
+___    ______ ____    _____ _____  ____ __ ______    ______ _________
0DROP   CNTWA-(4+36),R8
 DROP   *,R7
                                   22134
 003DDC C6D9D6D440404040_          22135              CNTPRTX  SCKW  FROM,V(FNAMESCN),A
 003E04 4040404040404040_          22150                       SCKW  ,V(FNAMPSHF),PUSH
                                   22165
 003E2C C5E7C5C3E4E3C540_          22166              CNTPRT   SCKW  EXECUTE,V(SCNNOOP),A
 003E54 C1C3E3C9E5C54040_          22181                       SCKW  ACTIVE,V(SCNNOOP),A
 003E7C E2E3D9C9D5C74040_          22196                       SCKW  STRING,V(SCNNOOP),A
 003EA4 E740404040404040_          22211                       SCKW  X,XTOTAL,P
 003ECC C340404040404040_          22226                       SCKW  C,CTOTAL,P
 003EF4 4040404040404040_          22241                       SCKW  ,V(LTNPSH),PUSH     Allow NOLIST
 003F1C 4040404040404040_          22256                       SCKW  ,V(QUIETPSH),PUSH
 003F44 4040404040404040_          22271                       SCKW  ,V(COLLPSH),PUSH
 003F6C 4040404040404040_          22286                       SCKW  ,STOTAL
                                   22301
 003F94 50E0 D000/9008_      00000 22302              XTOTAL   PROC  ,
 USING  *,R7
 003FAE 58E0 7222/0DEE       041D0 22341                       VCALL CKQUOTES
 003FB4 41F0 600B            0000B 22345                       LA    R15,TOTALSTR        Point to target area
 003FB8 58E0 7226/0DEE       041D4 22346                       VCALL HEXSTR              Convert to hex
 003FBE 47B0 7030/41F0_      03FDE 22350                       IF    NEG,'TSEG (R1),(R0); ERROR ": Invalid hex",,INVHEX'
 003FDE 4770 703A/58E0_      03FE8 22398                       IF    Z,'VCALL NOTVALID'  Null string invalid
 003FE8 4000 6008            00008 22418                       STH   R0,TOTALLEN         Save length
 003FEC 1BFF                       22419                       CLEAR R15
 003FEE 18D8/9808 D004_            22423                       PEND  ,
 DROP   *,R7
                                   22443
 003FFC 50E0 D000/9008_      00000 22444              CTOTAL   PROC  ,
 USING  *,R7
 004016 58E0 71BA/0DEE       041D0 22483                       VCALL CKQUOTES
 00401C 41F0 600B            0000B 22487                       LA    R15,TOTALSTR        Point to target area
 004020 58E0 71C6/0DEE       041DC 22488                       VCALL DEQSTR              Dequote the string
 004026 4720 701A/58E0_      04030 22492                       IF    NP,'VCALL NOTVALID' Invalid ...
 004030 58E0 C8A8            008A8 22512                       L     R14,CVUPPTBL        Load ptr to translate table
 004034 18F0                       22513                       LR    R15,R0              Copy length
 004036 06F0/44F0 71F0_            22514                       DEX   R15,'TR @R1(0),@R14'   Translate to upper
 00403C 9680 600A      0000A       22533                       SET   ANYCASE             Set flag
 004040 4000 6008            00008 22539                       STH   R0,TOTALLEN         Save length
 004044 1BFF                       22540                       CLEAR R15
 004046 18D8/9808 D004_            22544                       PEND  ,
 DROP   *,R7
                                   22564
 004054 50E0 D000/9008_      00000 22565              STOTAL   PROC  ,
 USING  *,R7
 00406E 58E0 7162/0DEE       041D0 22604                       VCALL CKQUOTES
 004074 41F0 600B            0000B 22608                       LA    R15,TOTALSTR        Point to target area
 004078 58E0 716E/0DEE       041DC 22609                       VCALL DEQSTR              Dequote string
 00407E 4720 701A/58E0_      04088 22613                       IF    NP,'VCALL NOTVALID' Null string invalid
 004088 4000 6008            00008 22633                       STH   R0,TOTALLEN         Save length
 00408C 1BFF                       22634                       CLEAR R15
 00408E 18D8/9808 D004_            22638                       PEND  ,
 DROP   *,R7
 DROP   CNTWA,R6                   22658                       DROP  R6
1EDIT     (EDIT2193) (12:43) (15MAR04) COUNT Command                                                                        Page   50
0Current Usings:  (CP,R11) (CV,R12)
0Loc    Object Code    Addr1 Addr2  Stmt Lv Lineno    Source Statement           (Hibal 5, Asmedit 3.3)  HLASM R4.0  2004/03/15 12.43
+___    ______ ____    _____ _____  ____ __ ______    ______ _________
0                                  22667              *
                                   22668              *  COUNT CO-ROUTINES
                                   22669              *
                                   22670              *
                                   22671                       COMMENT                   SIMPLE COUNT CO-ROUTINE
 00409C 50E0 D000/9008_      00000 22672              COUNTRTN PROC  ,
 USING  *,R7
 0040B6 5860 BCA4            00CA4 22711                       L     R6,CPCWA            Get work area pointer
 0040BA 4120 0001/5E20_      00001 22712                       WITH  (CNTWA,R6),'INCR R2,CNTNO'
 USING  CNTWA,R6
 DROP   CNTWA,R6
 0040C6 18D8/9808 D004_            22741                       PEND  ,
 DROP   *,R7
                                   22761              *
                                   22762              *
 000000                00000 00100 22763              KNTWA    RECORD BEGIN
                                   22771  1           KNTLINE    DS    CL(&PRESSZ)
 000000                                   1          +KNTLINE    DS    CL(256)
 000100                00100 00100 22772                       END
                                   22781              *
                                   22782              *
                                   22783                       COMMENT                   COUNT CO-ROUTINE W/STRING OPT.
 0040D4 50E0 D000/9008_      00000 22784              KOWNTTOT PROC  KNTWA               Regs and space
 USING  *,R7
 USING  KNTWA-(4+36),R8
 0040EE 5860 BCA4            00CA4 22834                       L     R6,CPCWA            Get work area pointer
 USING  CNTWA,R6                   22835                       USING CNTWA,R6            Make addressable
 0040F2 4120 0001/5E20_      00001 22844                       INCR  R2,CNTNO            Count the line
00040FE 9180 600A/47E0_0000A       22851                       IF    (ANYCASE,AND,(R0,POS)),BEGIN
 00410C 1820                       22879  1                      LR    R2,R0               Copy length
 00410E 0620/4420 711E_            22880  1                      DEX   R2,'MVC KNTLINE(0),@R1'  Move copy of line
 004114 58E0 C8A8            008A8 22899  1                      L     R14,CVUPPTBL            Load pointer to translate table
 004118 4420 7124/DC00_      04212 22900  1                      EX    R2,'TR KNTLINE(0),@R14'  Translate to upper
 00411C 4110 8028            00000 22916  1                      LA    R1,KNTLINE          Point to translated copy
 004120                            22917                       END
0004120 1850                       22922                       LR    R5,R0               Load line length
 004122 4840 6008            00008 22923                       LH    R4,TOTALLEN         Load compare length
 004126 1B54                       22924                       SR    R5,R4               Compute compare count
 004128 5E50 70F2            041E0 22925                       INCR  R5                  Adjust for "fence-post" effect
 00412C 0640                       22928                       BCTR  R4,0                Get machine length for execute
 00412E 1255/47D0 7064             22929                       WHILE (R5,POS),BEGIN      Do compares
 004134 4440 712A/D500_      04218 22945  1                      EX    R4,'CLC 0(0,R1),TOTALSTR'
 004138 4770 705A/41F0_      04148 22961  1                      IF    EQ,'INCR R15,TOTALCNT'
 004148 5E10 70F2            041E0 22983  1                      INCR  R1                  Skip to next character
 00414C 0650                       22986  1                      DECR  R5                  Decrease compare count
 00414E 47F0 7040            0412E 22988                       END
 004152 18D8/9808 D004_            22993                       PEND  ,
 DROP   KNTWA-(4+36),R8
 DROP   *,R7
 DROP   CNTWA,R6                   23018                       DROP  R6
1EDIT     (EDIT2193) (12:43) (15MAR04) COUNT Command                                                                        Page   51
0Current Usings:  (CP,R11) (CV,R12)
0Loc    Object Code    Addr1 Addr2  Stmt Lv Lineno    Source Statement           (Hibal 5, Asmedit 3.3)  HLASM R4.0  2004/03/15 12.43
+___    ______ ____    _____ _____  ____ __ ______    ______ _________
0                                  23026                       QLTORG
1EDIT     (EDIT2193) (12:43) (15MAR04) SHOW SIZE Command                                                                    Page   52
0Current Usings:  (CP,R11) (CV,R12)
0Loc    Object Code    Addr1 Addr2  Stmt Lv Lineno    Source Statement           (Hibal 5, Asmedit 3.3)  HLASM R4.0  2004/03/15 12.43
+___    ______ ____    _____ _____  ____ __ ______    ______ _________
0000000                00000 00014 23071              SIZWA    RECORD BEGIN
 000000 00                         23079  1           SIZOPTS    FLAG
 SIZOPTS.SIZFLFST  80 ONES         23083  1                      FLAG  SIZFLFST            - first pass done
 SIZOPTS.SIZFLOV   40 ONES         23088  1                      FLAG  SIZFLOV             - show size OVER
 SIZOPTS.SIZFLUN   20 ONES         23093  1                      FLAG  SIZFLUN             - show size UNDER
 SIZOPTS.SIZFLEQ   10 ONES         23098  1                      FLAG  SIZFLEQ             - show size EQUAL
 000001 00                         23103  1           SIZWRK     FLAG
                                   23107  1
 000004                            23108  1           SIZUN      DS    F                   Under length
 000008                            23109  1           SIZOV      DS    F                   Over length
 00000C                            23110  1           SIZLNG     DS    F                   Longest line encountered in range
 000010                            23111  1           SIZSHR     DS    F                   Shortest line encountered
 000014                00014 00014 23112                       END
                                   23121              ¿þþþþþþþþþþþþþþþþþþþþþþþþþþþþþþþþþþþþþþþþþþþþþþþþþþþþþþþþþþþþþþþþþþþþþÜ
                                   23122              Ÿ                                                                     Ÿ
                                   23123              Ÿ  SHOW SIZE command                                                  Ÿ
                                   23124              Ÿ                                                                     Ÿ
                                                      ¾þþþþþþþþþþþþþþþþþþþþþþþþþþþþþþþþþþþþþþþþþþþþþþþþþþþþþþþþþþþþþþþþþþþþþ»
000421E 50E0 D000/9008_      00000 23125              SHOSIZ   XPROC SIZWA
 USING  *,R7
 USING  SIZWA-(4+36),R8
 004238 4160 8028            00000 23176                       LA    R6,SIZWA
 USING  SIZWA,R6                   23177                       USING SIZWA,R6            work area
 00423C D713 6000 6000 00000 00000 23186                       CLEAR SIZWA               Zero work area
 004242 5060 BD6C            00D6C 23193                       ST    R6,CPWK4            Save work area pointer
                                   23194
 004246 D203 6010 7770 00010 049A8 23195                       MVC   SIZSHR,=AL4(&LINESZ+1)
 00424C 9610 BD50      00D50       23196                       SET   CPLFLG1.CPFALL      default range is 'all'
 004250 58E0 7774/0DEE       049AC 23203                       VCALL NDETRNG             Find range if specified
                                   23207
 004256 5810 B08C/1B00_      0008C 23208                       SCAN  SHOSIZOP            Scan for a specified option
 0042A8 58E0 7780/0DEE       049B8 23240                       SCANCHK
                                   23245
 0042AE 9160 6000/47E0_00000       23246                       IF    SIZFLOV*SIZFLUN,BEGIN   only if over and under given
 0042B6 5830 6004            00004 23264  1                      L     R3,SIZUN            Get under size
 0042BA 0630                       23265  1                      DECR  R3                  Subtract 1
 0042BC 5930 6008/4730_      00008 23267  1                      IF    (R3,LE,SIZOV),BEGIN     whoops -- cant have this
 0042C4 4110 7750/4100_      04988 23284  2                        TSEG  'Can''t have lines',,B
 0042D6 47F0 70E0            04318 23302  2                        B     SHOSZMSG            Same as over and under
 0042DA                            23303  1                      END
 0042DA                            23307                       END
 0042DA D203 B5A8 7788 005A8 049C0 23311                       MVC   CPACLNO,=F'-1000'   Set current line invalid
 0042E0 9640 BD57      00D57       23312                       SET   CPFNCUR             Quash current line pntr updat
                                   23318
 0042E4 5800 778C/5810_      049C4 23319                       RDRNG DOSHOSZ,(UNPRST+DESRTRN+DESABORT)
                                   23326
 0042F2 4720 C7D6            007D6 23327                       BP    CVERROR             End if attention
 0042F6 9102 BD88/47E0_00D88       23328                       IF    ~CPFSOME,CVNEXT     If void range, skip more msgs
 0042FE 9180 6000/4710_00000       23346                       IF    SIZFLFST,CVNEXT     Got at least one line
 004306 4110 7760/4100_      04998 23364                       TSEG  'No lines',,B
 004318 9160 6000/4780_00000       23382              SHOSZMSG IF    SIZFLOV+SIZFLUN,BEGIN   no lines over, under
 004320 9140 6000/47E0_00000       23401  1                      IF    SIZFLOV,BEGIN
 004328 4110 7798/4100_      049D0 23416  2                        SETMSG 'over'
1EDIT     (EDIT2193) (12:43) (15MAR04) SHOW SIZE Command                                                                    Page   53
0Current Usings:  (SIZWA,R6) (*,R7) (SIZWA-(4+36),R8) (CP,R11) (CV,R12)
0Loc    Object Code    Addr1 Addr2  Stmt Lv Lineno    Source Statement           (Hibal 5, Asmedit 3.3)  HLASM R4.0  2004/03/15 12.43
+___    ______ ____    _____ _____  ____ __ ______    ______ _________
0004330 5820 6008            00008 23420  2                        L     R2,SIZOV
 004334 58E0 779C/0DEE       049D4 23421  2                        ACALL SIZVAL
 00433A 9120 6000/47E0_00000       23425  2                        IF    SIZFLUN,BEGIN           over and under also
 004342 4110 77BE/4100_      049F6 23440  3                          SETMSG ' and under'
 00434A 5820 6004            00004 23444  3                          L     R2,SIZUN
 00434E 58E0 779C/0DEE       049D4 23445  3                          ACALL SIZVAL
 004354 7120/47F0 7132 04354 04340 23449  2                        END   ELSE,BEGIN              just over, report longest
 004358 4110 77E0/4100_      04A18 23464  3                          SETMSG ', longest was'
 004360 5820 600C            0000C 23468  3                          L     R2,SIZLNG
 004364 58E0 779C/0DEE       049D4 23469  3                          ACALL SIZVAL
 00436A                            23473  2                        END
 00436A 7136/47F0 715A 0436A 04326 23477  1                      END   ELSE,BEGIN              under
 00436E 4110 77ED/4100_      04A25 23492  2                        SETMSG 'under'
 004376 5820 6004            00004 23496  2                        L     R2,SIZUN
 00437A 58E0 779C/0DEE       049D4 23497  2                        ACALL SIZVAL
 004380 4110 77C8/4100_      04A00 23501  2                        SETMSG ', shortest was'
 004388 5820 6010            00010 23505  2                        L     R2,SIZSHR
 00438C 58E0 779C/0DEE       049D4 23506  2                        ACALL SIZVAL
 004392                            23510  1                      END
 004392 715E/47F0 7170 04392 0431E 23514                       END   ELSE,BEGIN
 004396 4110 7768/4100_      049A0 23529  1                      SETMSG 'equal to'
 00439E 5820 6004            00004 23533  1                      L     R2,SIZUN
 0043A2 58E0 779C/0DEE       049D4 23534  1                      ACALL SIZVAL
 0043A8                            23538                       END
 0043A8 47F0 C7DE            007DE 23542                       B     CVNEXT              Go get the next command
 0043AC 18D8/9808 D004_            23543                       PEND  ,
 DROP   SIZWA-(4+36),R8
 DROP   *,R7
                                   23568              *
                                   23569              *
 0043BA 50E0 D000/9008_      00000 23570              SIZVAL   PROC   ,                  Local subroutine
 USING  *,R7
 0043D4 41F0 B050/58E0_      00050 23609                       TSEG  (R1),(R0),B         Buffer prefix
 0043DE 1812/1B00/41F0_            23633                       TNUM  (R2)
 0043EC 41F0 0004            00004 23655                       LA    R15,4
 0043F0 18D8/9808 D004_            23656                       PEND  ,
 DROP   *,R7
1EDIT     (EDIT2193) (12:43) (15MAR04) SHOW SIZE Command                                                                    Page   54
0Current Usings:  (SIZWA,R6) (CP,R11) (CV,R12)
0Loc    Object Code    Addr1 Addr2  Stmt Lv Lineno    Source Statement           (Hibal 5, Asmedit 3.3)  HLASM R4.0  2004/03/15 12.43
+___    ______ ____    _____ _____  ____ __ ______    ______ _________
0                                  23677              *
                                   23678              * "SHOW SIZE" scan tables
                                   23679              *
 004400 D6E5C5D940404040_          23680              SHOSIZOP SCKW  OVER,HAVEOVER,A
 004428 E4D5C4C5D9404040_          23695                       SCKW  UNDER,HAVUNDER,A
 004450 C5D8E4C1D3404040_          23710                       SCKW  EQUAL,HAVEQUAL,A
 004478 C9D5404040404040_          23725                       SCKW  IN,HAVLINS
 0044A0 D3C9D5C5E2404040_          23740                       SCKW  LINES,HAVLINS,A
 0044C8 D3C9D5E240404040_          23755                       SCKW  LINS,HAVLINS
 0044F0 4040404040404040_          23770                       SCKW  ,V(COLLPSH),PUSH
 004518 4040404040404040_          23785                       SCKW  ,V(NOTVALID)
                                   23800
 004540 4040404040404040_          23801              SIZLEN   SCKW  ,MISSSLEN,NULL
 004568 4040404040404040_          23816                       SCKW  ,GOTNUM,PI,&LINESZ
 004590 D3C5D5C7E3C84040_          23831                       SCKW  LENGTH,GOTLEN,A
 0045B8 4040404040404040_          23846                       SCKW  ,V(NOTVALID)
                                   23861
 0045E0 50E0 D000/9008_      00000 23862              HAVLINS  PROC  ,
 USING  *,R7
 0045FA 9110 BD50/47E0_00D50       23901                       IF    CPLFLG1.CPFALL,BEGIN range already specified
 004602 58E0 73E2/0DEE       049DC 23917  1                      VCALL NOTVALID
 004608                            23921                       END
 004608 9610 BD50      00D50       23925                       SET   CPLFLG1.CPFALL      Allow default explicit
 00460C 58E0 73B2/0DEE       049AC 23932                       VCALL NDETRNG             Go do range
 004612 9110 BD50/4710_00D50       23936                       IF    ~CPLFLG1.CPFALL,BEGIN no range found
 00461A 58E0 73E2/0DEE       049DC 23952  1                      VCALL NOTVALID
 004620                            23956                       END
 004620 1BFF                       23960                       CLEAR R15
 004622 18D8/9808 D004_            23964                       PEND  ,
 DROP   *,R7
                                   23984
 004630 50E0 D000/9008_      00000 23985              HAVEOVER PROC  ,
 USING  *,R7
 00464A 9150 6000/4780_00000       24024                       IF    SIZFLOV+SIZFLEQ,BEGIN conflicting options
 004652 58E0 7392/0DEE       049DC 24042  1                      VCALL NOTVALID
 004658                            24046                       END
 004658 9640 6000      00000       24050                       SET   SIZFLOV             Set over flag
 00465C 5810 B08C/1B00_      0008C 24056                       SCAN  SIZLEN              Scan for <int> or length
 0046AE 58E0 736E/0DEE       049B8 24088                       SCANCHK
 0046B4 5030 6008            00008 24093                       ST    R3,SIZOV
 0046B8 1BFF                       24094                       CLEAR R15
 0046BA 18D8/9808 D004_            24098                       PEND  ,
 DROP   *,R7
00046C8 50E0 D000/9008_      00000 24119              HAVUNDER PROC  ,
 USING  *,R7
 0046E2 9130 6000/4780_00000       24158                       IF    SIZFLUN+SIZFLEQ,BEGIN conflicting options
 0046EA 58E0 72FA/0DEE       049DC 24176  1                      VCALL NOTVALID
 0046F0                            24180                       END
 0046F0 9620 6000      00000       24184                       SET   SIZFLUN             Set under flag
 0046F4 5810 B08C/1B00_      0008C 24190                       SCAN  SIZLEN              Scan for <int> or length
 004746 58E0 72D6/0DEE       049B8 24222                       SCANCHK
 00474C 5030 6004            00004 24227                       ST    R3,SIZUN
 004750 1BFF                       24228                       CLEAR R15
1EDIT     (EDIT2193) (12:43) (15MAR04) SHOW SIZE Command                                                                    Page   55
0Current Usings:  (SIZWA,R6) (CP,R11) (CV,R12)
0Loc    Object Code    Addr1 Addr2  Stmt Lv Lineno    Source Statement           (Hibal 5, Asmedit 3.3)  HLASM R4.0  2004/03/15 12.43
+___    ______ ____    _____ _____  ____ __ ______    ______ _________
0004752 18D8/9808 D004_            24232                       PEND
 DROP   *,R7
                                   24252
 004760 50E0 D000/9008_      00000 24253              HAVEQUAL PROC  ,
 USING  *,R7
 00477A 9170 6000/4780_00000       24292                       IF    SIZFLUN+SIZFLOV+SIZFLEQ,BEGIN  conflicting
 004782 58E0 7262/0DEE       049DC 24314  1                      VCALL NOTVALID
 004788                            24318                       END
 004788 9610 6000      00000       24322                       SET   SIZFLEQ             Set equal flag
 00478C 5810 B08C/1B00_      0008C 24328                       SCAN  SIZLEN              Scan for <int> or length
 0047DE 58E0 723E/0DEE       049B8 24360                       SCANCHK
 0047E4 5030 6004            00004 24365                       ST    R3,SIZUN
 0047E8 1BFF                       24366                       CLEAR R15
 0047EA 18D8/9808 D004_            24370                       PEND  ,
 DROP   *,R7
                                   24390
 0047F8 50E0 D000/9008_      00000 24391              MISSSLEN PROC  ,
 USING  *,R7
 004812 47F0 C7F0            007F0 24430                       B     CVABSENT
 004816 18D8/9808 D004_            24431                       PEND  ,
 DROP   *,R7
                                   24451
 004824 50E0 D000/9008_      00000 24452              GOTLEN   PROC  ,
 USING  *,R7
 00483E 4830 B87E            0087E 24491                       LH    R3,CPLENGTH         Use "set length" value
 004842 5038 0010            00010 24492                       PRETURN (R3)
 004846 41F0 0004            00004 24494                       LA    R15,4
 00484A 18D8/9808 D004_            24495                       PEND  ,
 DROP   *,R7
                                   24515
 004858 50E0 D000/9008_      00000 24516              GOTNUM   PROC  ,
 USING  *,R7
 004872 1830                       24555                       LR    R3,R0
 004874 5038 0010            00010 24556                       PRETURN (R3)
 004878 41F0 0004            00004 24558                       LA    R15,4
 00487C 18D8/9808 D004_            24559                       PEND  ,
 DROP   *,R7
 DROP   SIZWA,R6                   24579                       DROP  R6
1EDIT     (EDIT2193) (12:43) (15MAR04) SHOW SIZE Command                                                                    Page   56
0Current Usings:  (CP,R11) (CV,R12)
0Loc    Object Code    Addr1 Addr2  Stmt Lv Lineno    Source Statement           (Hibal 5, Asmedit 3.3)  HLASM R4.0  2004/03/15 12.43
+___    ______ ____    _____ _____  ____ __ ______    ______ _________
0                                  24587              ***       show size do routine ----
                                   24588              *
                                   24589              *        entry  conditions
                                   24590              *    R1=pointer to text  R0=text count cplcn0=line # intrnl fmt
 00488A 50E0 D000/9008_      00000 24591              DOSHOSZ  PROC  ,
 USING  *,R7
 0048A4 5860 BD6C            00D6C 24630                       L     R6,CPWK4            Work address
 USING  SIZWA,R6                   24631                       USING SIZWA,R6
 0048A8 1830                       24640                       LR    R3,R0
 0048AA 9170 6000/4780_00000       24641                       IF    (SIZFLOV+SIZFLUN+SIZFLEQ,Z),PUTOUT
 0048B2 5900 600C/47D0_      0000C 24668                       IF    (R0,GT,SIZLNG),'ST R0,SIZLNG'   set longest
 0048BE 5900 6010/47B0_      00010 24691                       IF    (R0,LT,SIZSHR),'ST R0,SIZSHR'   set shortest
 0048CA 5900 6008/47D0_      00008 24714                       IF    (R0,GT,SIZOV),'SET SIZWRK.SIZFLOV'
 0048D6 5900 6004/47B0_      00004 24742                       IF    (R0,LT,SIZUN),'SET SIZWRK.SIZFLUN'
 0048E2 5900 6004/4770_      00004 24770                       IF    (R0,EQ,SIZUN),'SET SIZWRK.SIZFLEQ'
 0048EE D400 6001 6000 00001 00000 24798                       NC    SIZWRK,SIZOPTS      Do conditions hold?
 0048F4 D700 6001 6000 00001 00000 24799                       XC    SIZWRK,SIZOPTS
 0048FA 9170 6001/4770_00001       24800                       IF    (SIZWRK.SIZFLOV+SIZFLUN+SIZFLEQ,NZ),NOTQUITE
 004902 5800 B73C            0073C 24827              PUTOUT   L     R0,CPLCNO           Line # to arg reg for cvexno
 004906 5000 B5A8            005A8 24828                       ST    R0,CPACLNO          Update current line pointer
 00490A 58E0 7140/0DEE       049E4 24829                       VCALL CVEXNO
 004910 41F0 B050/58E0_      00050 24833                       TSEG  (R1),(R0),B         Buffer it
 00491A 4110 7186/4100_      04A2A 24857                       TSEG  '-',,B              Make fancy line
 00492C 18F3/1B00/4110_            24875                       BTD   CPDOUB,0,(R3)       Cnvrt binary text count to bcd
 00493A 41F0 B050/58E0_      00050 24895                       TSEG  (R1),(R0),B         Buffer it
 004944 9180 6000/4710_00000       24919                       IF    ~SIZFLFST,'TSEG "characters"'
 00495E 9680 6000      00000       24957                       SET   SIZFLFST            Set not first time flag
 004962 1B00/41F0 B050_            24963                       TWRITE
 00496E 4720 C7D6            007D6 24988                       BP    CVERROR             Break processing if attention
 004972 9200 6001      00001       24989              NOTQUITE CLEAR  SIZWRK
 004976 18D8/9808 D004_            24997                       PEND  ,
 DROP   *,R7
 DROP   SIZWA,R6                   25017                       DROP  R6
                                   25024                       QLTORG
1EDIT     (EDIT2193) (12:43) (15MAR04) MOVE and COPY Commands                                                               Page   57
0Current Usings:  (CP,R11) (CV,R12)
0Loc    Object Code    Addr1 Addr2  Stmt Lv Lineno    Source Statement           (Hibal 5, Asmedit 3.3)  HLASM R4.0  2004/03/15 12.43
+___    ______ ____    _____ _____  ____ __ ______    ______ _________
0                                  25066              ¿þþþþþþþþþþþþþþþþþþþþþþþþþþþþþþþþþþþþþþþþþþþþþþþþþþþþþþþþþþþþþþþþþþþþþÜ
                                   25067              Ÿ                                                                     Ÿ
                                   25068              Ÿ  COPY -- COPY command.                                              Ÿ
                                   25069              Ÿ  MOVE -- MOVE command.                                              Ÿ
                                   25070              Ÿ                                                                     Ÿ
                                   25071              Ÿ                                                                     Ÿ
                                   25072              Ÿ                                                                     Ÿ
                                                      ¾þþþþþþþþþþþþþþþþþþþþþþþþþþþþþþþþþþþþþþþþþþþþþþþþþþþþþþþþþþþþþþþþþþþþþ»
0000000                00000 0001C 25073              MVWA     RECORD BEGIN
 000000 00                         25081  1           MVWFLAG1   FLAG   ,
 MVWFLAG1.MVFACT   80 ONES         25085  1                      FLAG  MVFACT
 MVWFLAG1.MVFEXEC  40 ONES         25090  1                      FLAG  MVFEXEC
 MVWFLAG1.MVFFROM  20 ONES         25095  1                      FLAG  MVFFROM
 000001 00                         25100  1           MVWFLAG2   FLAG  ,
 MVWFLAG2.MVFCOMB  80 ONES         25104  1                      FLAG  MVFCOMB             COMBINE
 MVWFLAG2.MVFDLT   40 ONES         25109  1                      FLAG  MVFDLT              DELTA SCANNED
 MVWFLAG2.MVFTO    20 ONES         25114  1                      FLAG  MVFTO               NO "TO XXX' SCANNED
 MVWFLAG2.MVFBY    10 ONES         25119  1                      FLAG  MVFBY               BY
 MVWFLAG2.MVFMERG  08 ONES         25124  1                      FLAG  MVFMERG             MERGE
 MVWFLAG2.MVFREPL  04 ONES         25129  1                      FLAG  MVFREPL             REPLACE
 000004                            25134  1           MVWDELTA   DS    F
 000008                            25135  1           MVWNEXTL   DS    F
 00000C                            25136  1           MVWPLUS    DS    F
 000010                            25137  1           MVWREPT    DS    F
 000014                            25138  1           MVWBEGIN   DS    F
 000018                            25139  1           MVWEND     DS    F
 00001C                0001C 0001C 25140                       END
                                   25149              *
                                   25150              *
 004A2C 50E0 D000/9008_      00000 25151              COPY     XPROC ,
 USING  *,R7
 004A46 9630 BD50      00D50       25191                       OI    CPLFLG1,CPFCPY+CPFALL  set copy & default all
 004A4A 58E0 7532/0DEE       04F78 25192                       ACALL MOVE
 004A50 47F0 C7DE            007DE 25196                       B     CVNEXT
 004A54 18D8/9808 D004_            25197                       PEND  ,
 DROP   *,R7
                                   25217
 004A62 50E0 D000/9008_      00000 25218              MOVE     XPROC MVWA
 USING  *,R7
 USING  MVWA-(4+36),R8
 004A7C 4160 8028            00000 25269                       LA    R6,MVWA
 USING  MVWA,R6                    25270                       USING MVWA,R6
 004A80 5060 BD6C            00D6C 25279                       ST    R6,CPWK4
 004A84 D71B 6000 6000 00000 00000 25280                       CLEAR MVWA
                                   25287
                                   25288                       COMMENT                   SET DEFAULTS
 004A8A 9620 BD54      00D54       25289                       SET   CPLFLG5.CPFNLST     Set nolist as default
 004A8E 9640 BD53      00D53       25296                       SET   CPLFLG4.CPFSTINS    Set so stow will only insert
 004A92 58E0 7500/0DEE       04F7C 25303                       VCALL SCNEXFR             Scan to see if exec or from
 004A98 9503 BD89/4770_00D89       25307                       IF     CPFRDEXT,' SET MVFFROM'
 004AA4 702C/47F0 7038_04AA4 04A9E 25333                       ELSEIF CPFRDEXE,' SET MVFEXEC'
 004AB4 703C/47F0 7040_04AB4 04AAE 25368                       ELSE  'SET MVFACT'
 004ABC 58E0 7504/0DEE       04F80 25390                       VCALL NDETRNG             Define range
1EDIT     (EDIT2193) (12:43) (15MAR04) MOVE and COPY Commands                                                               Page   58
0Current Usings:  (MVWA,R6) (*,R7) (MVWA-(4+36),R8) (CP,R11) (CV,R12)
0Loc    Object Code    Addr1 Addr2  Stmt Lv Lineno    Source Statement           (Hibal 5, Asmedit 3.3)  HLASM R4.0  2004/03/15 12.43
+___    ______ ____    _____ _____  ____ __ ______    ______ _________
0004AC2 58E0 7508/0DEE       04F84 25394                       VCALL ENDLNO              End line-number and delta
 004AC8 5000 6008            00008 25398                       ST    R0,MVWNEXTL         Set for "end" & no "by"
 004ACC 5010 6004            00004 25399                       ST    R1,MVWDELTA
 004AD0 D203 6010 750C 00010 04F88 25400                       MVC   MVWREPT,=A(1)       Init replication factor
 004AD6 9601 BD50      00D50       25401                       OI    CPLFLG1,CPFTODFT    indicate default 'to'
 004ADA D703 600C 600C 0000C 0000C 25402                       CLEAR MVWPLUS             Init plus value to zero
                                   25409
                                   25410                       COMMENT                   SCAN COMMAND
 004AE0 9120 6000/47E0_00000       25411                       IF    MVFFROM,BEGIN
 004AE8 58E0 7510/0DEE       04F8C 25426  1                      VCALL MKFFINFO
 004AEE 5810 B08C/1B00_      0008C 25430  1                      SCAN  TOPRTX
 004B40 58E0 751C/0DEE       04F98 25462  1                      SCANCHK
 004B46                            25467                       END
 004B46 70CE/47F0 7126 04B46 04AE6 25471                       ELSE  BEGIN
 004B4A 5810 B08C/1B00_      0008C 25482  1                      SCAN  TOPRT
 004B9C 58E0 751C/0DEE       04F98 25514  1                      SCANCHK
 004BA2                            25519                       END
                                   25523
                                   25524                       COMMENT                   CHECK FOR 'TO' OR 'PLUS'
 004BA2 9110 BD54/47E0_00D54       25525                       IF    CPLFLG5.CPFFOPT,'CLEAR CPLFLG5.CPFNLST'
 004BAE 9120 BD50      00D50       25554                       TM    CPLFLG1,CPFCPY      Default "to end" okay
 004BB2 4710 715C            04BD8 25555                       BO    READY               yes, it's copy
 004BB6 9120 6001/4710_00001       25556                       IF    MVFTO,READY         IF TO, ALL OK, DO IT TO IT
 004BBE 9180 6001/4710_00001       25574                       IF    MVFCOMB,READY       IF COMBINE, ALL OK, DO IT TO IT
 004BC6 D207 B886 74F4_00886 04F70 25592                       ERROR 'TO or PLUS must be specified on MOVE.',,MOVESPEC
                                   25600
                                   25601                       COMMENT                   SET UP TO DO MOVE/COPY
 004BD8                            25602              READY    LABEL ,                   * FIX FIX FIX ! *
 004BD8 9110 B477/47E0_00477       25604                       IF    CPFTYPED,'COUNT CPACHCT'  Count if typed
 004BEC D203 6018 C160 00018 00160 25628                       MVC   MVWEND(4),CVHILNO   Set comparand too high
 004BF2 9104 6001/4710_00001       25629                       IF    (~MVFREPL,AND,~MVFMERG),BEGIN IF NOT MERGE, REPLACE
 004C02 9180 6008      00008       25658  1                      TM    MVWNEXTL,X'80'      Illegal value?
 004C06 47E0 719A            04C16 25659  1                      IF    O,BEGIN             Yes
 004C0A 4110 7605/4100_      05081 25670  2                        ERROR 'Line number is invalid.'
 004C16                            25677  1                      END
 004C16 4110 6008            00008 25681  1                      LA    R1,MVWNEXTL         Point at 1st line no.
 004C1A 58E0 7524/0DEE       04FA0 25682  1                      VCALL LOCATE              Locate it
 004C20 91C0 BD84      00D84       25686  1                      TM    CPDRPT,CPFNTYT+CPFHIGH
 004C24 4770 71C0            04C3C 25687  1                      IF    Z,BEGIN             IF THERE IS A LINE AFTER DEST RNG
 004C28 9108 BD84      00D84       25698  2                        TM    CPDRPT,CPFMTCH      Exact match?
 004C2C 47E0 71BA/58E0_      04C36 25699  2                        IF    O,'ACALL BADLINEL'  copy-move won't replace
 004C36 D203 6018 B73C 00018 0073C 25719  2                        MVC   MVWEND(4),CPLCNO    Set first illegal line no.
 004C3C                            25720  1                      END
 004C3C                            25724                       END
 004C3C D203 6014 6008 00014 00008 25728                       MVC   MVWBEGIN(4),MVWNEXTL Save start line no.
 004C42 1B11                       25729                       CLEAR R1                  Zero R1 for later   ??? AX ??
 004C44 9640 BD57      00D57       25733                       SET   CPFNCUR             Set not to update current line ptr
                                   25739
 004C48 9120 6000/47E0_00000       25740                       IF    MVFFROM,BEGIN       SPECIAL EXTERNAL FILE SET UP
 004C50 9620 BD54      00D54       25755  1                      OI    CPLFLG5,CPFNLST     Set nolist option
 004C54 58E0 752C/0DEE       04FA8 25756  1                      VCALL FNAMEFIN
 004C5A 58E0 7530/0DEE       04FAC 25760  1                      VCALL EXTOPEN             Do open for external range
 004C60 12FF/4770 C7DE             25764  1                      IF    (R15,NZ),CVNEXT
 004C66                            25781                       END
1EDIT     (EDIT2193) (12:43) (15MAR04) MOVE and COPY Commands                                                               Page   59
0Current Usings:  (MVWA,R6) (*,R7) (MVWA-(4+36),R8) (CP,R11) (CV,R12)
0Loc    Object Code    Addr1 Addr2  Stmt Lv Lineno    Source Statement           (Hibal 5, Asmedit 3.3)  HLASM R4.0  2004/03/15 12.43
+___    ______ ____    _____ _____  ____ __ ______    ______ _________
0                                  25785
 004C66 9120 BD54/4710_00D54       25786                       IF    (~CPLFLG5.CPFNLST,AND,~MVFCOMB),BEGIN
 004C76 4110 6008            00008 25816  1                      LA    R1,MVWNEXTL         Point to insert line number
 004C7A 58E0 7534/0DEE       04FB0 25817  1                      VCALL LOCLIST             Go list line before
 004C80 1B00/41F0 B050_            25821  1                      TWRITE ,                  Write out the line
 004C8C 4720 C7DA            007DA 25846  1                      BP    CVABORT             Stop if attention
 004C90                            25847                       END
                                   25851
 004C90 D203 B5A8 753C 005A8 04FB8 25852                       MVC   CPACLNO,=F'-1000'   Set no current line yet
 004C96                            25853              DESLOOP  LABEL ,
 004C96 9180 6000/47E0_00000       25855                       IF    MVFACT,BEGIN
 004C9E 5800 7540/5810_      04FBC 25870  1                      RDRNG WORK,(DESRTRN+LOCATRTN+PREST+DESABORT)
 004CAC                            25877                       END
 004CAC 9140 6000/47E0_00000       25881                       IF    MVFEXEC,BEGIN
 004CB4 5800 754C/5810_      04FC8 25896  1                      RDRNG WORK,(DESRTRN+LEXATRTN+PREST+DESABORT)
 004CC2                            25903                       END
 004CC2 9120 6000/47E0_00000       25907                       IF    MVFFROM,BEGIN
 004CCA 5800 7550/5810_      04FCC 25922  1                      RDRNG WORK,(DESRTRN+LXCATRTN+PREST+DESABORT)
 004CD8                            25929                       END
                                   25933
                                   25934                       COMMENT                   DO REPLICATION "DITTO" IF ANY
 004CD8 5810 6010            00010 25935                       L     R1,MVWREPT          Load replication factor
 004CDC 0610                       25936                       DECR  R1                  We did one ...
 004CDE 5010 6010            00010 25938                       ST    R1,MVWREPT          Update count
 004CE2 1211/4780 728A             25939                       IF    (R1,NZ),BEGIN
 004CE8 9503 BD89/4770_00D89       25953  1                      IF    CPFRDEXT,BEGIN      External ...
 004CF0 58E0 7554/0DEE       04FD0 25968  2                        VCALL EXTCLOSE            Close the dataset
 004CF6 58E0 7530/0DEE       04FAC 25972  2                        VCALL EXTOPEN             Re-open (inefficient but safe)
 004CFC 12FF/4770 C7DE             25976  2                        IF    (R15,NZ),CVNEXT
 004D02                            25993  1                      END   ,
 004D02 47F0 721A            04C96 25997  1                      B     DESLOOP             And away we go (again)
 004D06                            25998                       END   ,
 004D06 58E0 7558/0DEE       04FD4 26002                       VCALL LASTLINE            Show last lineno
 004D0C 47F0 C7DE            007DE 26006                       B     CVNEXT              New command
 004D10 18D8/9808 D004_            26007                       PEND  ,
 DROP   MVWA-(4+36),R8
 DROP   *,R7
                                   26032
1EDIT     (EDIT2193) (12:43) (15MAR04) MOVE and COPY Commands                                                               Page   60
0Current Usings:  (MVWA,R6) (CP,R11) (CV,R12)
0Loc    Object Code    Addr1 Addr2  Stmt Lv Lineno    Source Statement           (Hibal 5, Asmedit 3.3)  HLASM R4.0  2004/03/15 12.43
+___    ______ ____    _____ _____  ____ __ ______    ______ _________
0                                  26034              *
                                   26035              *  MOVE/COPY CO-ROUTINE
                                   26036              *
                                   26037              *  OLD LOGIC NOT CLEANED UP ...     SAME OLD CODE...
                                   26038              *
                                   26039              *
                                   26040              *  PREST option removed 5/91 by CH.  We press line on entry for
                                   26041              *  backwards compatibility.
                                   26042              *
                                   26043              *
 000000                00000 00100 26044              WORKWA   RECORD BEGIN
                                   26052  1           WWBUF      DS    XL(&PRESSZ)
 000000                                   1          +WWBUF      DS    XL(256)
 000100                00100 00100 26053                       END
                                   26062              *
                                   26063              *
 004D1E 50E0 D000/9008_      00000 26064              WORK     PROC  WORKWA
 USING  *,R7
 USING  WORKWA-(4+36),R8
                                   26114
                                   26115                       COMMENT                   BE BACKWARDS COMPAT, PRESS LINE
 004D38 58F0 B73C            0073C 26116                       L     R15,CPLCNO
 004D3C 58E0 72A0/0DEE       04FD8 26117                       VCALL PRESS
 004D42 18F1                       26121                       LR    R15,R1
                                   26122
 004D44 5860 BD6C            00D6C 26123                       L     R6,CPWK4
 004D48 5850 F000            00000 26124                       L     R5,@R15             Save source line-number
 004D4C 1F00/4300 F004             26125                       LC    R0,@R15+4           Get prest count
 004D52 1830                       26130                       LR    R3,R0
 004D54 4130 3004            00004 26131                       LA    R3,@R3+4            To move line no. also
 004D58 4430 7374/D200_      050AC 26132                       EX    R3,'MVC WWBUF(0),@R15'  Move line
                                   26148
 004D5C 5820 6008            00008 26149              TRYDEL   L     R2,MVWNEXTL         Working position
 004D60 9108 6001/4710_00001       26150                       IF    (MVFMERG,OR,MVFCOMB),MRGECHK  if merge (comb)
 004D70 5520 6018            00018 26182                       CL    R2,MVWEND           Legal?
 004D74 47B0 70D2            04E0A 26183                       BNL   FIXUPP              Too big - try to fix
 004D78 9120 BD50/4710_00D50       26184              WRKMRGE  IF    ~CPLFLG1.CPFCPY,BEGIN  Move...
 004D80 1805                       26201  1                      LR    R0,R5               Line-number to delete
 004D82 1815                       26202  1                      LR    R1,R5
 004D84 58E0 72A4/0DEE       04FDC 26203  1                      VCALL DELRANGE            Delete the old line (for MOVE)
 004D8A                            26207                       END
                                   26211
 004D8A 5020 8028            00000 26212                       ST    R2,WWBUF            Set new line no.
 004D8E 5020 B5A8            005A8 26213                       ST    R2,CPACLNO          Update current line pointer
 004D92 4110 8028            00000 26214                       LA    R1,WWBUF            Pressed line addr
 004D96 58E0 72A8/0DEE       04FE0 26215                       VCALL STOW                Line into page
 004D9C 4740 7184            04EBC 26219                       BM    BLASTER             Error if try to replace
 004DA0 9120 BD54      00D54       26220                       TM    CPLFLG5,CPFNLST     List option in effect
 004DA4 4710 709A            04DD2 26221                       BO    WORKEX              Branch no
 004DA8 58F0 8028            00000 26222                       L     R15,WWBUF           Line number
 004DAC 181D/41D0 D0EC             26223                       XPUSH ,,&LINESZ,PTR=R1    Working line area
 004DB2 58E0 72AC/0DEE       04FE4 26226                       VCALL GETLINE             Get line text
 004DB8 58E0 72B0/0DEE       04FE8 26230                       VCALL LISTLINE            Format line for listing
 004DBE 4BD0 72D2            0500A 26234                       XPOP  ,,&LINESZ
1EDIT     (EDIT2193) (12:43) (15MAR04) MOVE and COPY Commands                                                               Page   61
0Current Usings:  (MVWA,R6) (*,R7) (WORKWA-(4+36),R8) (CP,R11) (CV,R12)
0Loc    Object Code    Addr1 Addr2  Stmt Lv Lineno    Source Statement           (Hibal 5, Asmedit 3.3)  HLASM R4.0  2004/03/15 12.43
+___    ______ ____    _____ _____  ____ __ ______    ______ _________
0004DC2 1B00/41F0 B050_            26236                       TWRITE ,                  Write out the line
 004DCE 4720 7220            04F58 26261                       BP    CMSGLAST            Abort if attention
 004DD2 1802                       26262              WORKEX   LR    R0,R2               Position used into R0
 004DD4 5810 6004            00004 26263                       L     R1,MVWDELTA         Plus delta
 004DD8 58E0 72B4/0DEE       04FEC 26264                       VCALL ADDER               Give
 004DDE 5000 6008            00008 26268                       ST    R0,MVWNEXTL         New position
 004DE2 47F0 722A            04F62 26269                       B     WORKEXIT            Scram
                                   26270              *
                                   26271              *  CODE TO CHECK REPLACE/INTERLEAVE
                                   26272              *
 004DE6                            26273              MRGECHK  LABEL ,
 004DE6 9108 6001/47E0_00001       26275                       IF    (MVFMERG,AND,~MVFCOMB),MRGECHK1 branch if ,,
 004DF6 5820 8028            00000 26307                       L     R2,WWBUF            Use old line number for combine
 004DFA 5A20 600C            0000C 26308                       A     R2,MVWPLUS          Add in plus value if any
 004DFE 4740 70D2            04E0A 26309                       BM    FIXUPP              Br if negative result - bad
 004E02 5520 C160            00160 26310              MRGECHK1 CL    R2,CVHILNO          Line number o.k.
 004E06 4740 7040            04D78 26311                       BL    WRKMRGE             Branch yes to continue
 004E0A 9108 6001/4710_00001       26312              FIXUPP   IF    MVFMERG,BLASTER     Merge option?, Abort the copy
                                   26331              * HELP ??L     R6,CPLCNO           Get current range line no.
                                   26332              *                                  save for after fixup
 004E12 5920 6014            00014 26333                       C     R2,MVWBEGIN         Is current line >= 1st line
 004E16 4740 70EA            04E22 26334                       BL    FIXUPP1             Br no, overlap impossible
 004E1A 5920 B740            00740 26335                       C     R2,CPSTLNO          Compare to last line
 004E1E 47D0 7184            04EBC 26336                       BNH   BLASTER             Abort if overlap case
 004E22 5810 6004            00004 26337              FIXUPP1  L     R1,MVWDELTA         Get current delta
 004E26 8A10 0001            00001 26338                       SRA   R1,1                Halve it
 004E2A 4780 7184            04EBC 26339                       BZ    BLASTER             Abort if zero
 004E2E 58E0 72B8/0DEE       04FF0 26340                       VCALL SELDELTA            Convert it to suitable delta
 004E34 5010 6004            00004 26344                       ST    R1,MVWDELTA         Save new delta
                                   26345
 004E38 58F0 B740            00740 26346                       L     R15,CPSTLNO         Last line saved
 004E3C 5AF0 C4D0            004D0 26347                       A     R15,CVONE
 004E40 58E0 72BC/0DEE       04FF4 26348                       VCALL GETLNO              Get next existing lineno
 004E46 58F0 B73C            0073C 26352                       L     R15,CPLCNO
 004E4A 06F0                       26353                       DECR  R15                 Last lineno before existing
                                   26355
 004E4C 9023 D000/41D0_      00000 26356                       XPUSH R2,R3
 004E54 5800 6014            00014 26359                       L     R0,MVWBEGIN         R0 = Set first line no. to fix
 004E58 181F                       26360                       LR    R1,R15              R1 = Set last line to renumber
 004E5A 5820 6004            00004 26361                       L     R2,MVWDELTA         R2 = delta
 004E5E 5830 72C0            04FF8 26362                       L     R3,=F'-1'           R3 = starting lineno
 004E62 58E0 72C4/0DEE       04FFC 26363                       VCALL NUMRANGE            Re-number lines
 004E68 5020 6004            00004 26367                       ST    R2,MVWDELTA         Delta could have changed again
 004E6C 4BD0 72D4/9823_      0500C 26368                       XPOP  R2,R3
                                   26371
 004E74 12FF/4770 7184             26372                       IF    (R15,NZ),BLASTER    Couldn't renumber, scram
 004E7A 5000 B740            00740 26389                       ST    R0,CPSTLNO          Save last line no.
 004E7E 5A00 6004            00004 26390                       A     R0,MVWDELTA         Calculate next line no.
 004E82 5000 6008            00008 26391                       ST    R0,MVWNEXTL         Save it for next line
 004E86 9120 BD54/4710_00D54       26392                       IF    ~CPLFLG5.CPFNLST,BEGIN
 004E8E 4110 72D6/4100_      0500E 26408  1                      TSEG  'Renumbered by '
 004EA0 5800 6004            00004 26426  1                      L     R0,MVWDELTA         Get new delta
 004EA4 58E0 72CC/0DEE       05004 26427  1                      VCALL CVEXNO              Convert to external format
 004EAA 41F0 B050/58E0_      00050 26431  1                      TSEG  (R1),(R0),WR        Add to message and write
1EDIT     (EDIT2193) (12:43) (15MAR04) MOVE and COPY Commands                                                               Page   62
0Current Usings:  (MVWA,R6) (*,R7) (WORKWA-(4+36),R8) (CP,R11) (CV,R12)
0Loc    Object Code    Addr1 Addr2  Stmt Lv Lineno    Source Statement           (Hibal 5, Asmedit 3.3)  HLASM R4.0  2004/03/15 12.43
+___    ______ ____    _____ _____  ____ __ ______    ______ _________
0004EB4 4720 7220            04F58 26455  1                      BP    CMSGLAST            Abort command if attn
 004EB8                            26456                       END
 004EB8 47F0 7024            04D5C 26460                       B     TRYDEL              Go to it again
1EDIT     (EDIT2193) (12:43) (15MAR04) MOVE and COPY Commands                                                               Page   63
0Current Usings:  (MVWA,R6) (*,R7) (WORKWA-(4+36),R8) (CP,R11) (CV,R12)
0Loc    Object Code    Addr1 Addr2  Stmt Lv Lineno    Source Statement           (Hibal 5, Asmedit 3.3)  HLASM R4.0  2004/03/15 12.43
+___    ______ ____    _____ _____  ____ __ ______    ______ _________
0                                  26462              *
                                   26463              * ERROR EXITS
                                   26464              *
 004EBC 9120 6000/47E0_00000       26465              BLASTER  IF    MVFFROM,BEGIN       IF EXTERNAL FILE, ABORT IT
 004EC4 58E0 7298/0DEE       04FD0 26481  1                      VCALL EXTCLOSE
 004ECA 4110 72E4/4100_      0501C 26485  1                      TSEG  'Copy stopped before external line '
 004EDC 5800 8028            00000 26503  1                      L     R0,WWBUF            Next line no.
 004EE0 58E0 72CC/0DEE       05004 26504  1                      VCALL CVEXNO              Convert it
 004EE6 41F0 B050/58E0_      00050 26508  1                      TSEG  (R1),(R0)           Into msg
 004EF0 4110 7360/4100_      05098 26532  1                      TSEG  '.  '
 004F02 47F0 7220            04F58 26550  1                      B     CMSGLAST            Abort
 004F06                            26551                       END
 004F06 9108 6001/47E0_00001       26555                       IF    MVFMERG,BEGIN
 004F0E 4110 7306/4100_      0503E 26570  1                      TSEG  'Aborted by attempt to replace.'
 004F20 58E0 729C/0DEE       04FD4 26588  1                      VCALL LASTLINE            Show last lineno
 004F26 47F0 C7DA            007DA 26592  1                      B     CVABORT
 004F2A                            26593                       END
 004F2A 4110 7306/4100_      0503E 26597                       TSEG  'Aborted by attempt to replace.'
 004F3C 4110 7363/4100_      0509B 26615                       TSEG  ' or interleave.  '
 004F4E 58E0 729C/0DEE       04FD4 26633                       VCALL LASTLINE            Show last lineno
 004F54 47F0 C7DA            007DA 26637                       B     CVABORT
                                   26638
 004F58 58E0 729C/0DEE       04FD4 26639              CMSGLAST VCALL LASTLINE            Show last lineno
 004F5E 47F0 C7DA            007DA 26643                       B     CVABORT
                                   26644              *
                                   26645              * CO-ROUTINE EXIT
                                   26646              *
 004F62 18D8/9808 D004_            26647              WORKEXIT PEND  ,
 DROP   WORKWA-(4+36),R8
 DROP   *,R7
                                   26673                       QLTORG
1EDIT     (EDIT2193) (12:43) (15MAR04) MOVE and COPY Commands                                                               Page   64
0Current Usings:  (MVWA,R6) (CP,R11) (CV,R12)
0Loc    Object Code    Addr1 Addr2  Stmt Lv Lineno    Source Statement           (Hibal 5, Asmedit 3.3)  HLASM R4.0  2004/03/15 12.43
+___    ______ ____    _____ _____  ____ __ ______    ______ _________
0                                  26733                       ¿þþþþþþþþþþþþþþþþþþþþþþþþÜ
                                   26734                       Ÿ  Line already exists.  Ÿ
                                   26735                       ¾þþþþþþþþþþþþþþþþþþþþþþþþ»
 0050B2 50E0 D000/9008_      00000 26736              BADLINEL PROC  ,
 USING  *,R7
 0050CC 4110 7A9C/4100_      05B68 26775                       TSEG  'Line '
 0050DE 5800 B73C            0073C 26793                       L     R0,CPLCNO           Get bad line number
 0050E2 58E0 7A08/0DEE       05AD4 26794                       VCALL CVEXNO
 0050E8 41F0 B050/58E0_      00050 26798                       TSEG  (R1),(R0)
 0050F2 4110 79B4/4100_      05A80 26822                       ERROR ' already exists.'
 0050FE 18D8/9808 D004_            26829                       PEND  ,
 DROP   *,R7
                                   26849
1EDIT     (EDIT2193) (12:43) (15MAR04) MOVE and COPY Commands                                                               Page   65
0Current Usings:  (MVWA,R6) (CP,R11) (CV,R12)
0Loc    Object Code    Addr1 Addr2  Stmt Lv Lineno    Source Statement           (Hibal 5, Asmedit 3.3)  HLASM R4.0  2004/03/15 12.43
+___    ______ ____    _____ _____  ____ __ ______    ______ _________
0                                  26851              *
                                   26852              *        For MOVE/COPY.
                                   26853              *
 00510C 4040404040404040_          26854              TOPRTX   SCKW  ,V(FNAMPSHF),PUSH
 005134 4040404040404040_          26869              TOPRT    SCKW  ,V(LTNPSH),PUSH
 00515C E3D6404040404040_          26884                       SCKW  TO,HAVTO
 005184 C2E8404040404040_          26899                       SCKW  BY,HAVBY
 0051AC C6D9D6D440404040_          26914                       SCKW  FROM,COPYFROM,A
 0051D4 C5E7C5C3E4E3C540_          26929                       SCKW  EXECUTE,COPYEXEC,A
 0051FC D4C5D9C7C5404040_          26944                       SCKW  MERGE,SCNMRGE,A
 005224 D5D6D4C5D9C7C540_          26959                       SCKW  NOMERGE,SCNNMRGE,A
 00524C D7D3E4E240404040_          26974                       SCKW  PLUS,HAVPLUS,A
 005274 C3D6D4C2C9D5C540_          26989                       SCKW  COMBINE,HAVCOMB,A
 00529C D9C5D7D3C1C3C540_          27004                       SCKW  REPLACE,HAVREP,A
 0052C4 C4C9E3E3D6404040_          27019                       SCKW  DITTO,SCNDITTO,(A,P,PI),32767
 0052EC 4040404040404040_          27034                       SCKW  ,V(QUIETPSH),PUSH
 005314 4040404040404040_          27049                       SCKW  ,V(NOTVALID)
                                   27064
 00533C 4040404040404040_          27065              TOLNOPRT SCKW  ,MISSLNO,NULL
 005364 4040404040404040_          27080                       SCKW  ,HAVLNENO,SYMLN
 00538C 4040404040404040_          27095                       SCKW  ,V(NOTVALID)
                                   27110
 0053B4 4040404040404040_          27111              BYLNOPRT SCKW  ,MISSLNO,NULL
 0053DC 4040404040404040_          27126                       SCKW  ,HAVBY1,SYMLN
 005404 4040404040404040_          27141                       SCKW  ,V(NOTVALID)
                                   27156
 00542C 4040404040404040_          27157              PLUSPRT  SCKW  ,MISSLNO,NULL
 005454 4040404040404040_          27172                       SCKW  ,HAVPLUS1,SYMLN
 00547C 6040404040404040_          27187                       SCKW  -,HAVNEG
 0054A4 4040404040404040_          27202                       SCKW  ,V(NOTVALID)
                                   27217
 0054CC 4040404040404040_          27218              MINUSPRT SCKW  ,MISSLNO,NULL
 0054F4 4040404040404040_          27233                       SCKW  ,HAVNEG1,SYMLN
 00551C 4040404040404040_          27248                       SCKW  ,V(NOTVALID)
                                   27263
 005544 50E0 D000/9008_      00000 27264              MISSLNO  PROC  ,
 USING  *,R7
 00555E 4110 7532/4100_      05A90 27303                       ERROR 'Missing operand.'
 00556A 18D8/9808 D004_            27310                       PEND
 DROP   *,R7
                                   27330
 005578 50E0 D000/9008_      00000 27331              HAVTO    PROC  ,
 USING  *,R7
 005592 9180 6001/47E0_00001       27370                       IF    MVFCOMB,BEGIN
 00559A 4110 750E/4100_      05AA0 27385  1                      ERROR 'COMBINE invalid with TO.'
 0055A6                            27392                       END
 0055A6 94FE BD50      00D50       27396                       NI    CPLFLG1,255-CPFTODFT  set 'to' was specified
 0055AA 9620 6001      00001       27397                       SET   MVFTO               Set to option given
 0055AE 4330 BD89            00D89 27403                       IC    R3,CPFRDSRC         Save active/exec/from flags
 0055B2 9200 BD89      00D89       27404                       CLEAR CPFRDSRC            Clear so active file used
 0055B6 5810 B08C/1B00_      0008C 27411                       SCAN  TOLNOPRT            Go get to line
 005608 58E0 754E/0DEE       05AE0 27443                       SCANCHK
 00560E 1BFF                       27448                       CLEAR R15
 005610 18D8/9808 D004_            27452                       PEND  ,
1EDIT     (EDIT2193) (12:43) (15MAR04) MOVE and COPY Commands                                                               Page   66
0Current Usings:  (MVWA,R6) (CP,R11) (CV,R12)
0Loc    Object Code    Addr1 Addr2  Stmt Lv Lineno    Source Statement           (Hibal 5, Asmedit 3.3)  HLASM R4.0  2004/03/15 12.43
+___    ______ ____    _____ _____  ____ __ ______    ______ _________
0DROP   *,R7
                                   27472
 00561E 50E0 D000/9008_      00000 27473              HAVLNENO PROC  ,
 USING  *,R7
 005638 4230 BD89            00D89 27512                       STC   R3,CPFRDSRC         Restore active/exec/from flags
 00563C 5000 6008            00008 27513                       ST    R0,MVWNEXTL         Set line no. & default delta
 005640 5010 6004            00004 27514                       ST    R1,MVWDELTA
 005644 41F0 0004            00004 27515                       LA    R15,4
 005648 18D8/9808 D004_            27516                       PEND  ,
 DROP   *,R7
                                   27536
 005656 50E0 D000/9008_      00000 27537              COPYFROM PROC  ,
 USING  *,R7
 005670 9120 BD50/4710_00D50       27576                       IF    ~CPLFLG1.CPFCPY,BEGIN  move...
 005678 4110 748E/4100_      05AFE 27592  1                      ABORT 'MOVE FROM capability is not supported.'
 005684                            27599                       END
 005684 9140 6000/47E0_00000       27603                       IF    MVFEXEC,BEGIN       Execute option given
 00568C 4110 74B4/4100_      05B24 27618  1                      ERROR 'FROM invalid with EXEC option.'
 005698                            27625                       END
 005698 58E0 7474/0DEE       05AE4 27629                       VCALL DOFNAME             Get them
 00569E 1BFF                       27633                       CLEAR R15
 0056A0 18D8/9808 D004_            27637                       PEND  ,
 DROP   *,R7
                                   27657
 0056AE 50E0 D000/9008_      00000 27658              COPYEXEC PROC  ,
 USING  *,R7
 0056C8 9120 BD50/4710_00D50       27697                       IF    ~CPLFLG1.CPFCPY,BEGIN  move...
 0056D0 4110 747A/4100_      05B42 27713  1                      ABORT 'MOVE EXEC capability is not supported.'
 0056DC                            27720                       END
 0056DC 9120 6000/47E0_00000       27724                       IF    MVFFROM,BEGIN       Execute option given
 0056E4 4110 745C/4100_      05B24 27739  1                      ERROR 'FROM invalid with EXEC option.'
 0056F0                            27746                       END
 0056F0 1BFF                       27750                       CLEAR R15
 0056F2 18D8/9808 D004_            27754                       PEND
 DROP   *,R7
                                   27774
 005700 50E0 D000/9008_      00000 27775              HAVBY    PROC  ,
 USING  *,R7
 00571A 4330 BD89            00D89 27814                       IC    R3,CPFRDSRC         Save active/exec/from flags
 00571E 9200 BD89      00D89       27815                       CLEAR CPFRDSRC            Clear so active file used
 005722 5810 B08C/1B00_      0008C 27822                       SCAN  BYLNOPRT
 005774 58E0 73C6/0DEE       05AE0 27854                       SCANCHK
 00577A 1BFF                       27859                       CLEAR R15
 00577C 18D8/9808 D004_            27863                       PEND
 DROP   *,R7
                                   27883
 00578A 50E0 D000/9008_      00000 27884              HAVBY1   PROC  ,
 USING  *,R7
 0057A4 5000 6004            00004 27923                       ST    R0,MVWDELTA
 0057A8 9610 6001      00001       27924                       SET   MVFBY
 0057AC 1200/4720 7014_            27930                       IF    (R0,NP),'VCALL NOTVALID'    Delta error
 0057B8 4230 BD89            00D89 27953                       STC   R3,CPFRDSRC         Restore active/exec/from flags
 0057BC 9180 6001/47E0_00001       27954                       IF    MVFCOMB,BEGIN
 0057C4 4110 7314/4100_      05AB8 27969  1                      ERROR 'COMBINE invalid with BY.'
1EDIT     (EDIT2193) (12:43) (15MAR04) MOVE and COPY Commands                                                               Page   67
0Current Usings:  (MVWA,R6) (*,R7) (CP,R11) (CV,R12)
0Loc    Object Code    Addr1 Addr2  Stmt Lv Lineno    Source Statement           (Hibal 5, Asmedit 3.3)  HLASM R4.0  2004/03/15 12.43
+___    ______ ____    _____ _____  ____ __ ______    ______ _________
00057D0                            27976                       END
 0057D0 41F0 0004            00004 27980                       LA    R15,4
 0057D4 18D8/9808 D004_            27981                       PEND  ,
 DROP   *,R7
                                   28001
 0057E2 50E0 D000/9008_      00000 28002              HAVCOMB  PROC  ,
 USING  *,R7
 0057FC 9120 6001/47E0_00001       28041                       IF    MVFTO,BEGIN
 005804 4110 72A4/4100_      05AA0 28056  1                      ERROR 'COMBINE invalid with TO.'
 005810                            28063                       END
 005810 9110 6001/47E0_00001       28067                       IF    MVFBY,BEGIN
 005818 4110 72BC/4100_      05AB8 28082  1                      ERROR 'COMBINE invalid with BY.'
 005824                            28089                       END
 005824 9680 6001      00001       28093                       SET   MVFCOMB
 005828 9608 6001      00001       28099                       SET   MVFMERG
 00582C 1BFF                       28105                       CLEAR R15
 00582E 18D8/9808 D004_            28109                       PEND  ,
 DROP   *,R7
                                   28129
 00583C 50E0 D000/9008_      00000 28130              HAVREP   PROC  ,
 USING  *,R7
 005856 9608 6001      00001       28169                       SET   MVFMERG
 00585A 9604 6001      00001       28175                       SET   MVFREPL               set replace and merge
 00585E 94BF BD53      00D53       28181                       NI    CPLFLG4,255-CPFSTINS  allow stow to replace
 005862 1BFF                       28182                       CLEAR R15
 005864 18D8/9808 D004_            28186                       PEND  ,
 DROP   *,R7
                                   28206
 005872 50E0 D000/9008_      00000 28207              HAVPLUS  PROC  ,
 USING  *,R7
 00588C 4330 BD89            00D89 28246                       IC    R3,CPFRDSRC         Save active/exec/from flags
 005890 9200 BD89      00D89       28247                       CLEAR CPFRDSRC            Clear so active file used
 005894 5810 B08C/1B00_      0008C 28254                       SCAN  PLUSPRT             scan for lineno or '-'
 0058E6 58E0 7254/0DEE       05AE0 28286                       SCANCHK
 0058EC 1BFF                       28291                       CLEAR R15
 0058EE 18D8/9808 D004_            28295                       PEND  ,
 DROP   *,R7
                                   28315
 0058FC 50E0 D000/9008_      00000 28316              HAVPLUS1 PROC  ,
 USING  *,R7
 005916 5000 600C            0000C 28355                       ST    R0,MVWPLUS          Save value
 00591A 4230 BD89            00D89 28356                       STC   R3,CPFRDSRC         Restore active/exec/from flags
 00591E 58E0 71DE/0DEE       05AF4 28357                       ACALL HAVCOMB             do same as for combine
 005924 41F0 0004            00004 28361                       LA    R15,4
 005928 18D8/9808 D004_            28362                       PEND  ,
 DROP   *,R7
                                   28382
 005936 50E0 D000/9008_      00000 28383              HAVNEG   PROC  ,
 USING  *,R7
 005950 5810 B08C/1B00_      0008C 28422                       SCAN  MINUSPRT
 0059A2 58E0 7190/0DEE       05AE0 28454                       SCANCHK
 0059A8 41F0 0004            00004 28459                       LA    R15,4
 0059AC 18D8/9808 D004_            28460                       PEND
 DROP   *,R7
1EDIT     (EDIT2193) (12:43) (15MAR04) MOVE and COPY Commands                                                               Page   68
0Current Usings:  (MVWA,R6) (CP,R11) (CV,R12)
0Loc    Object Code    Addr1 Addr2  Stmt Lv Lineno    Source Statement           (Hibal 5, Asmedit 3.3)  HLASM R4.0  2004/03/15 12.43
+___    ______ ____    _____ _____  ____ __ ______    ______ _________
0                                  28480
 0059BA 50E0 D000/9008_      00000 28481              HAVNEG1  PROC  ,
 USING  *,R7
 0059D4 1300                       28520                       LCR   R0,R0               Set value negative
 0059D6 5000 600C            0000C 28521                       ST    R0,MVWPLUS          Save value
 0059DA 4230 BD89            00D89 28522                       STC   R3,CPFRDSRC         Restore active/exec/from flags
 0059DE 58E0 7120/0DEE       05AF4 28523                       ACALL HAVCOMB             do same as for combine
 0059E4 41F0 0004            00004 28527                       LA    R15,4
 0059E8 18D8/9808 D004_            28528                       PEND  ,
 DROP   *,R7
                                   28548
 0059F6 50E0 D000/9008_      00000 28549              SCNMRGE  PROC  ,
 USING  *,R7
 005A10 9608 6001      00001       28588                       SET   MVFMERG
 005A14 18D8/9808 D004_            28594                       PEND  ,
 DROP   *,R7
                                   28614
 005A22 50E0 D000/9008_      00000 28615              SCNNMRGE PROC  ,
 USING  *,R7
 005A3C 94F7 6001      00001       28654                       CLEAR MVFMERG
 005A40 18D8/9808 D004_            28661                       PEND  ,
 DROP   *,R7
                                   28681
 005A4E 50E0 D000/9008_      00000 28682              SCNDITTO PROC  ,
 USING  *,R7
 005A68 5000 6010            00010 28721                       ST    R0,MVWREPT          Save replication factor
 005A6C 18D8/9808 D004_            28722                       PEND  ,
 DROP   *,R7
 DROP   MVWA,R6                    28742                       DROP  R6
                                   28749                       QLTORG
1EDIT     (EDIT2193) (12:43) (15MAR04) COPYA Command                                                                        Page   69
0Current Usings:  (CP,R11) (CV,R12)
0Loc    Object Code    Addr1 Addr2  Stmt Lv Lineno    Source Statement           (Hibal 5, Asmedit 3.3)  HLASM R4.0  2004/03/15 12.43
+___    ______ ____    _____ _____  ____ __ ______    ______ _________
0                                  28782              ¿þþþþþþþþþþþþþþþþþþþþþþþþþþþþþþþþþþþþþþþþþþþþþþþþþþþþþþþþþþþþþþþþþþþþþÜ
                                   28783              Ÿ                                                                     Ÿ
                                   28784              Ÿ  COPYA -- COPYA Command.                                            Ÿ
                                   28785              Ÿ                                                                     Ÿ
                                   28786              Ÿ    Editorial:  Maybe this command is just temporary.  If            Ÿ
                                   28787              Ÿ      the COPY/MOVE commands were re-written and the range           Ÿ
                                   28788              Ÿ      processor was extended to support Multiple Active files        Ÿ
                                   28789              Ÿ      this command would not be needed.               8/86           Ÿ
                                   28790              Ÿ                                                                     Ÿ
                                                      ¾þþþþþþþþþþþþþþþþþþþþþþþþþþþþþþþþþþþþþþþþþþþþþþþþþþþþþþþþþþþþþþþþþþþþþ»
0000000                00000 00010 28791              COPYAWA  RECORD BEGIN
 000000 00                         28799  1           COPYAFLG   FLAG
 COPYAFLG.COPYAFAP 80 ONES         28803  1                      FLAG  COPYAFAPPEND        - APPEND
                                   28808  1
 000004                            28809  1           COPYASRC   DS    F                   Source Active file number
 000008                            28810  1           COPYADST   DS    F                   Dest Active file number
 00000C                            28811  1           COPYAOLD   DS    F                   Old Active file number
 000010                00010 00010 28812                       END
                                   28821              þþþþ
 005B6E 50E0 D000/9008_      00000 28822              COPYA    XPROC COPYAWA
 USING  *,R7
 USING  COPYAWA-(4+36),R8
 005B88 4160 8028            00000 28873                       LA    R6,COPYAWA
 USING  COPYAWA,R6                 28874                       USING COPYAWA,R6
 005B8C 5060 BCA4            00CA4 28883                       ST    R6,CPCWA
 005B90 D70F 6000 6000 00000 00000 28884                       CLEAR COPYAWA
                                   28891                       ¿þþþþþþþþþþþþþþþþþþþþþþþþþþþþþþþþþþþþþþþþþþþþþÜ
                                   28892                       Ÿ  First look for source Active file number.  Ÿ
                                   28893                       ¾þþþþþþþþþþþþþþþþþþþþþþþþþþþþþþþþþþþþþþþþþþþþþ»
 005B96 5810 B08C/1B00_      0008C 28894                       SCAN
 005BE4 58E0 73F4/0DEE       05F7C 28925                       SCANCHK
 005BEA 1200/4780 C7F0             28930                       IF    (R0,Z),CVABSENT
 005BF0 18F1                       28947                       LR    R15,R1
 005BF2 1AF0                       28948                       AR    R15,R0
 005BF4 06F0                       28949                       DECR  R15
 005BF6 957A F000/4780_00000       28951                       IF    (@R15,NE,':'),BEGIN
 005BFE 41F0 B050/58E0_      00050 28967  1                      TSEG  (R1),(R0)
 005C08 4110 742E/4100_      05FB6 28991  1                      TSEG  ' is an illegal Active file number.',,CR
 005C1A 4110 7450/4100_      05FD8 29009  1                      ERROR 'Expecting "number:" for Active file specification.'
 005C26                            29016                       END
                                   29020
 005C26 0600                       29021                       DECR  R0                  Throw away colon suffix
 005C28 58E0 7400/0DEE       05F88 29023                       DTB   (R1),(R0)
 005C2E 4780 70B0/58E0_      05C38 29038                       IF    NZ,'VCALL NOTVALID'
 005C38 12FF/4770 70BC_            29058                       IF    (R15,Z),'VCALL NOTVALID'
 005C44 50F0 6004            00004 29081                       ST    R15,COPYASRC        Source Active file number
                                   29082                       ¿þþþþþþþþþþþþþþþþþþþþþþþþþþþþþþþþþþþÜ
                                   29083                       Ÿ  Switch into source Active file.  Ÿ
                                   29084                       ¾þþþþþþþþþþþþþþþþþþþþþþþþþþþþþþþþþþþ»
 005C48 58F0 6004            00004 29085                       L     R15,COPYASRC
 005C4C 58E0 7408/0DEE       05F90 29086                       VCALL ACTPICK             Switch to source Active file
 005C52 4770 70FC            05C84 29090                       IF    Z,BEGIN
 005C56 4110 74AA/4100_      06032 29101  1                      TSEG  'Active '
1EDIT     (EDIT2193) (12:43) (15MAR04) COPYA Command                                                                        Page   70
0Current Usings:  (COPYAWA,R6) (*,R7) (COPYAWA-(4+36),R8) (CP,R11) (CV,R12)
0Loc    Object Code    Addr1 Addr2  Stmt Lv Lineno    Source Statement           (Hibal 5, Asmedit 3.3)  HLASM R4.0  2004/03/15 12.43
+___    ______ ____    _____ _____  ____ __ ______    ______ _________
0005C68 5810 6004/1B00_      00004 29119  1                      TNUM  L:COPYASRC
 005C78 4110 73B8/4100_      05F40 29141  1                      ERROR ' does not exist.'
 005C84                            29148                       END
                                   29152
 005C84 50F0 600C            0000C 29153                       ST    R15,COPYAOLD        Save previous Active file number
                                   29154                       ¿þþþþþþþþþþþþþþþÜ
                                   29155                       Ÿ  Scan range.  Ÿ
                                   29156                       ¾þþþþþþþþþþþþþþþ»
 005C88 9610 BD50      00D50       29157                       SET   CPLFLG1.CPFALL      Default range is ALL
 005C8C 58E0 7410/0DEE       05F98 29164                       VCALL NDETRNG             Scan range
                                   29168                       ¿þþþþþþþþþþþþþþþþþþþþþþþÜ
                                   29169                       Ÿ  Scan COPYA options.  Ÿ
                                   29170                       ¾þþþþþþþþþþþþþþþþþþþþþþþ»
 005C92 5810 B08C/1B00_      0008C 29171                       SCAN  COPYAPRT            Scan options
 005CE4 58E0 73F4/0DEE       05F7C 29203                       SCANCHK
 005CEA 58F0 6008/12FF       00008 29208                       LT    R15,COPYADST        Check for dest active
 005CF0 4770 718A            05D12 29212                       IF    Z,BEGIN
 005CF4 4110 73C8/4100_      05F50 29223  1                      TSEG  'No destination active file number given.',,CR
 005D06 4110 74B1/4100_      06039 29241  1                      ERROR 'Expecting "TO dest-actno:".'
 005D12                            29248                       END
                                   29252                       ¿þþþþþþþþþþþþþþþþþþþþþþþþþþþþþþþþþþþþþþþþþþþþþþþþþþþþþþÜ
                                   29253                       Ÿ  Process the range (see COPYARTN range co-routine).  Ÿ
                                   29254                       ¾þþþþþþþþþþþþþþþþþþþþþþþþþþþþþþþþþþþþþþþþþþþþþþþþþþþþþþ»
 005D12 5800 7418/5810_      05FA0 29255                       RDRNG COPYARTN,(DESRTRN+LOCATRTN+DESABORT+UNPRST)
                                   29262                       ¿þþþþþþþþþþþþþþþþþþþþþþþþþþþþþþþþþþþþþþþþþþþþþþÜ
                                   29263                       Ÿ  Switch back into the original Active file.  Ÿ
                                   29264                       ¾þþþþþþþþþþþþþþþþþþþþþþþþþþþþþþþþþþþþþþþþþþþþþþ»
 005D20 58F0 600C/12FF       0000C 29265                       LT    R15,COPYAOLD        Check for old active
 005D26 58E0 7408/0DEE       05F90 29269                       VCALL ACTPICK             Switch to source Active file
 005D2C 4770 71D6            05D5E 29273                       IF    Z,BEGIN
 005D30 4110 7482/4100_      0600A 29284  1                      TSEG  'COPYA logic problem.  Original active '
 005D42 5810 600C/1B00_      0000C 29302  1                      TNUM  L:COPYAOLD
 005D52 4110 73B8/4100_      05F40 29324  1                      ERROR ' does not exist.'
 005D5E                            29331                       END
                                   29335
 005D5E 47F0 C7DE            007DE 29336                       B     CVNEXT
 005D62 18D8/9808 D004_            29337                       PEND  ,
 DROP   COPYAWA-(4+36),R8
 DROP   *,R7
1EDIT     (EDIT2193) (12:43) (15MAR04) COPYA Command                                                                        Page   71
0Current Usings:  (COPYAWA,R6) (CP,R11) (CV,R12)
0Loc    Object Code    Addr1 Addr2  Stmt Lv Lineno    Source Statement           (Hibal 5, Asmedit 3.3)  HLASM R4.0  2004/03/15 12.43
+___    ______ ____    _____ _____  ____ __ ______    ______ _________
0                                  29363                       ¿þþþþþþþþþþþþþþþþþþÜ
                                   29364                       Ÿ  COPYA Options.  Ÿ
                                   29365                       ¾þþþþþþþþþþþþþþþþþþ»
 005D70 E3D6404040404040_          29366              COPYAPRT SCKW  TO,COPYATO,P
 005D98 C1D7D7C5D5C44040_          29381                       SCKW  APPEND,COPYAAPP,A
 005DC0 4040404040404040_          29396                       SCKW  ,V(NOTVALID)
                                   29411              þþþþ
 005DE8 50E0 D000/9008_      00000 29412              COPYATO  PROC
 USING  *,R7
 005E02 18F1                       29451                       LR    R15,R1
 005E04 1AF0                       29452                       AR    R15,R0
 005E06 06F0                       29453                       DECR  R15
 005E08 957A F000/4780_00000       29455                       IF    (@R15,NE,':'),BEGIN
 005E10 41F0 B050/58E0_      00050 29471  1                      TSEG  (R1),(R0)
 005E1A 4110 71B4/4100_      05FB6 29495  1                      TSEG  ' is an illegal Active file number.',,CR
 005E2C 4110 71D6/4100_      05FD8 29513  1                      ERROR 'Expecting "number:" for Active file specification.'
 005E38                            29520                       END
                                   29524
 005E38 0600                       29525                       DECR  R0                  Throw away colon suffix
 005E3A 58E0 7186/0DEE       05F88 29527                       DTB   (R1),(R0)
 005E40 4780 7048/58E0_      05E4A 29542                       IF    NZ,'VCALL NOTVALID'
 005E4A 12FF/4770 7054_            29562                       IF    (R15,Z),'VCALL NOTVALID'
 005E56 50F0 6008            00008 29585                       ST    R15,COPYADST        Source Active file number
 005E5A 1BFF                       29586                       CLEAR R15
 005E5C 18D8/9808 D004_            29590                       PEND
 DROP   *,R7
                                   29610
 005E6A 50E0 D000/9008_      00000 29611              COPYAAPP PROC
 USING  *,R7
 005E84 9680 6000      00000       29650                       SET   COPYAFAPPEND        Append to end of dest Active file
 005E88 18D8/9808 D004_            29656                       PEND
 DROP   *,R7
1EDIT     (EDIT2193) (12:43) (15MAR04) COPYA Command                                                                        Page   72
0Current Usings:  (COPYAWA,R6) (CP,R11) (CV,R12)
0Loc    Object Code    Addr1 Addr2  Stmt Lv Lineno    Source Statement           (Hibal 5, Asmedit 3.3)  HLASM R4.0  2004/03/15 12.43
+___    ______ ____    _____ _____  ____ __ ______    ______ _________
0                                  29677              ¿þþþþþþþþþþþþþþþþþþþþþþþþþþþþþþþþþþþþþþþþþþþþþþþþþþþþþþþþþþþþþþþþþþþþþÜ
                                   29678              Ÿ                                                                     Ÿ
                                   29679              Ÿ  COPYARTN -- COPYA range processing co-routine.                     Ÿ
                                   29680              Ÿ                                                                     Ÿ
                                                      ¾þþþþþþþþþþþþþþþþþþþþþþþþþþþþþþþþþþþþþþþþþþþþþþþþþþþþþþþþþþþþþþþþþþþþþ»
0005E96 50E0 D000/9008_      00000 29681              COPYARTN PROC
 USING  *,R7
 005EB0 5860 BCA4            00CA4 29720                       L     R6,CPCWA
                                   29721
 005EB4 9001 D000/41D0_      00000 29722                       XPUSH R0,R1
                                   29725                       ¿þþþþþþþþþþþþþþþþþþþþþþþþþþþþþþþþþþþþþþþþÜ
                                   29726                       Ÿ  Switch into destination Active file.  Ÿ
                                   29727                       ¾þþþþþþþþþþþþþþþþþþþþþþþþþþþþþþþþþþþþþþþþ»
 005EBC 58F0 6008            00008 29728                       L     R15,COPYADST
 005EC0 58E0 70E0/0DEE       05F90 29729                       VCALL ACTPICK             Switch to destination Active file
 005EC6 4770 7048            05EF8 29733                       IF    Z,BEGIN
 005ECA 4110 71A4/4100_      06054 29744  1                      TSEG  'Destination active '
 005EDC 5810 6008/1B00_      00008 29762  1                      TNUM  L:COPYADST
 005EEC 4110 7090/4100_      05F40 29784  1                      ERROR ' does not exist.'
 005EF8                            29791                       END
                                   29795
 005EF8 185F                       29796                       LR    R5,R15              Save previous Active file number
                                   29797                       ¿þþþþþþþþþþþþþþþþþþþþþþþþþþþþþþþþþþþþþþþþþþþþþþþþÜ
                                   29798                       Ÿ  Put the line in the destination Active file.  Ÿ
                                   29799                       ¾þþþþþþþþþþþþþþþþþþþþþþþþþþþþþþþþþþþþþþþþþþþþþþþþ»
 005EFA 58F0 B73C            0073C 29800                       L     R15,CPLCNO          Line-number (assumes merge)
                                   29801
 005EFE 9180 6000/47E0_00000       29802                       IF    COPYAFAPPEND,BEGIN  Append to the end...
 005F06 5800 B5A4            005A4 29817  1                      L     R0,CPALLNO          Last lineno
 005F0A 5810 B738            00738 29818  1                      L     R1,CPDELTA          Delta
 005F0E 58E0 70FC/0DEE       05FAC 29819  1                      VCALL ADDER
 005F14 18F0                       29823  1                      LR    R15,R0              New last lineno
 005F16                            29824                       END
                                   29828
 005F16 4BD0 7180/9801_      06030 29829                       XPOP  R0,R1               Line text
 005F1E 58E0 7100/0DEE       05FB0 29832                       VCALL PUTLINE             Add the line to the destination
                                   29836                       ¿þþþþþþþþþþþþþþþþþþþþþþþþþþþþþþþþþþþþþþþþÜ
                                   29837                       Ÿ  Switch back to previous Active file.  Ÿ
                                   29838                       ¾þþþþþþþþþþþþþþþþþþþþþþþþþþþþþþþþþþþþþþþþ»
 005F24 18F5                       29839                       LR    R15,R5
 005F26 58E0 70E0/0DEE       05F90 29840                       VCALL ACTPICK             Switch back
 005F2C 18D8/9808 D004_            29844                       PEND
 DROP   *,R7
 DROP   COPYAWA,R6                 29864                       DROP  R6
                                   29871
                                   29872                       QLTORG
1EDIT     (EDIT2193) (12:43) (15MAR04) EVALUATE Command                                                                     Page   73
0Current Usings:  (CP,R11) (CV,R12)
0Loc    Object Code    Addr1 Addr2  Stmt Lv Lineno    Source Statement           (Hibal 5, Asmedit 3.3)  HLASM R4.0  2004/03/15 12.43
+___    ______ ____    _____ _____  ____ __ ______    ______ _________
0                                  29910              ¿þþþþþþþþþþþþþþþþþþþþþþþþþþþþþþþþþþþþþþþþþþþþþþþþþþþþþþþþþþþþþþþþþþþþþÜ
                                   29911              Ÿ                                                                     Ÿ
                                   29912              Ÿ  EVALUATE -- EVALUATE Command.                                      Ÿ
                                   29913              Ÿ                                                                     Ÿ
                                                      ¾þþþþþþþþþþþþþþþþþþþþþþþþþþþþþþþþþþþþþþþþþþþþþþþþþþþþþþþþþþþþþþþþþþþþþ»
0000000                00000 0030C 29914              EVALWA   RECORD BEGIN
 000000 00                         29922  1           EVALFLAG   FLAG
 EVALFLAG.EVAFSPEC 80 ONES         29926  1                      FLAG  EVAFSPEC            - Specific option specified
                                   29931  1
 000004                            29932  1           EVALEXPL   DS    F                   Expression length
 000008                            29933  1           EVALEXP    DS    CL256               Expression to evaluate
                                   29934  1
 000108                            29935  1           EVALTSTL   DS    F                   Test expr length
 00010C                            29936  1           EVALTEST   DS    CL256               Expression that must be TRUE
                                   29937  1
 00020C                            29938  1           EVALRES    DS    CL256               Result of expression
 00030C                0030C 0030C 29939                       END
                                   29948              þþþþ
 006068 50E0 D000/9008_      00000 29949              EVALUATE XPROC EVALWA
 USING  *,R7
 USING  EVALWA-(4+36),R8
 006082 4160 8028            00000 30000                       LA    R6,EVALWA
 USING  EVALWA,R6                  30001                       USING EVALWA,R6
 006086 5060 BCA4            00CA4 30010                       ST    R6,CPCWA
 00608A D7FF 6000 6000_00000 00000 30011                       CLEAR EVALWA
                                   30021
 0060A2 58E0 7CBE/0DEE       06D40 30022                       VCALL ORVCPASS            (For Spires's EVAL command)
                                   30026
 0060A8 58E0 7CC2/0DEE       06D44 30027                       VCALL SCNEXFR             Allow active/exec/fromt dsname
 0060AE 9610 BD50      00D50       30031                       SET   CPLFLG1.CPFALL      Allow default of all
 0060B2 58E0 7CC6/0DEE       06D48 30038                       VCALL NDETRNG             Get range specified
                                   30042
                                   30043                       COMMENT                   If FROM ...
 0060B8 9503 BD89/4770_00D89       30044                       IF    CPFRDEXT,BEGIN
 0060C0 58E0 7CCA/0DEE       06D4C 30059  1                      VCALL MKFFINFO
 0060C6 5810 B08C/1B00_      0008C 30063  1                      SCAN  EVALPRTF
 006118 58E0 7CD6/0DEE       06D58 30095  1                      SCANCHK
 00611E 9180 6000/4710_00000       30100  1                      IF    ~EVAFSPEC,BEGIN     Missing options...
 006126 4110 7CDA/4100_      06D5C 30115  2                        ERROR 'Missing action for EVALUATE command.'
 006132                            30122  1                      END
 006132 58E0 7CFE/0DEE       06D80 30126  1                      VCALL FNAMEFIN
 006138 58E0 7D02/0DEE       06D84 30130  1                      VCALL EXTOPEN             Open file
 00613E 12FF/4770 C7DE             30134  1                      IF    (R15,NZ),CVNEXT
 006144 5800 7D06/5810_      06D88 30151  1                      RDRNG EVALRTN,(DESRTRN+LXCATRTN+DESABORT+UNPRST)
 006152 58E0 7D12/0DEE       06D94 30158  1                      VCALL EXTCLOSE            Close file
 006158                            30162                       END
                                   30166
                                   30167                       COMMENT                   If EXEC ...
 006158 70DA/47F0 7162_06158 060BE 30168                       ELSEIF CPFRDEXE,BEGIN
 006164 5810 B08C/1B00_      0008C 30192  1                      SCAN  EVALPRT
 0061B6 58E0 7CD6/0DEE       06D58 30224  1                      SCANCHK
 0061BC 9180 6000/4710_00000       30229  1                      IF    ~EVAFSPEC,BEGIN     Missing options...
 0061C4 4110 7CDA/4100_      06D5C 30244  2                        ERROR 'Missing action for EVALUATE command.'
1EDIT     (EDIT2193) (12:43) (15MAR04) EVALUATE Command                                                                     Page   74
0Current Usings:  (EVALWA,R6) (*,R7) (EVALWA-(4+36),R8) (CP,R11) (CV,R12)
0Loc    Object Code    Addr1 Addr2  Stmt Lv Lineno    Source Statement           (Hibal 5, Asmedit 3.3)  HLASM R4.0  2004/03/15 12.43
+___    ______ ____    _____ _____  ____ __ ______    ______ _________
00061D0                            30251  1                      END
 0061D0 5800 7D1A/5810_      06D9C 30255  1                      RDRNG EVALRTN,(DESRTRN+LEXATRTN+DESABORT+UNPRST)
 0061DE 58E0 7D1E/0DEE       06DA0 30262  1                      VCALL DESPOT
 0061E4                            30266                       END
                                   30270
                                   30271                       COMMENT                   If Active Range (usually is) ,,,
 0061E4 7166/47F0 71E0 061E4 06162 30272                       ELSE  BEGIN
 0061E8 5810 B08C/1B00_      0008C 30283  1                      SCAN  EVALPRT
 00623A 58E0 7CD6/0DEE       06D58 30315  1                      SCANCHK
 006240 9180 6000/4710_00000       30320  1                      IF    ~EVAFSPEC,BEGIN     Missing options...
 006248 4110 7CDA/4100_      06D5C 30335  2                        ERROR 'Missing action for EVALUATE command.'
 006254                            30342  1                      END
 006254 5800 7D22/5810_      06DA4 30346  1                      RDRNG EVALRTN,(DESRTRN+LOCATRTN+DESABORT+UNPRST)
 006262                            30353                       END
                                   30357
 006262 47F0 C7DE            007DE 30358                       B     CVNEXT
 006266 18D8/9808 D004_            30359                       PEND  ,
 DROP   EVALWA-(4+36),R8
 DROP   *,R7
-
                                   30385              *
                                   30386              *
                                   30387              *
                                   30388              *
 006274 C6D9D6D440404040_          30389              EVALPRTF SCKW  FROM,V(FNAMESCN),A
 00629C 4040404040404040_          30404                       SCKW  ,V(FNAMPSHF),PUSH
                                   30419
 0062C4 4040404040404040_          30420              EVALPRT  SCKW  ,V(LTNPSH),PUSH
 0062EC C5E7C5C3E4E3C540_          30435                       SCKW  EXECUTE,V(SCNNOOP),A
 006314 C5E7D7D9C5E2E2C9_          30450                       SCKW  EXPRESSION,EXPR,(A,P)
 00633C E3C5E2E340404040_          30465                       SCKW  TEST,TEST,(A,P)
 006364 4040404040404040_          30480                       SCKW  ,V(NOTVALID)
                                   30495
 00638C 50E0 D000/9008_      00000 30496              EXPR     PROC  ,
 USING  *,R7
 0063A6 5900 7A02/47D0_      06DA8 30535                       CEIL  R0,L'EVALEXP
 0063B2 5000 6004            00004 30554                       ST    R0,EVALEXPL
 0063B6 18F0                       30555                       LR    R15,R0
 0063B8 06F0/12FF/4740_            30556                       MOVE  R15,EVALEXP,@R1     Save expression
 0063C4 9680 6000      00000       30594                       SET   EVAFSPEC
 0063C8 1BFF                       30600                       CLEAR R15
 0063CA 18D8/9808 D004_            30604                       PEND  ,
 DROP   *,R7
                                   30624
 0063D8 50E0 D000/9008_      00000 30625              TEST     PROC  ,
 USING  *,R7
 0063F2 5900 79BA/47D0_      06DAC 30664                       CEIL  R0,L'EVALTEST
 0063FE 5000 6108            00108 30683                       ST    R0,EVALTSTL
 006402 18F0                       30684                       LR    R15,R0
 006404 06F0/12FF/4740_            30685                       MOVE  R15,EVALTEST,@R1    Save expression
 006410 9680 6000      00000       30723                       SET   EVAFSPEC
 006414 1BFF                       30729                       CLEAR R15
1EDIT     (EDIT2193) (12:43) (15MAR04) EVALUATE Command                                                                     Page   75
0Current Usings:  (EVALWA,R6) (CP,R11) (CV,R12)
0Loc    Object Code    Addr1 Addr2  Stmt Lv Lineno    Source Statement           (Hibal 5, Asmedit 3.3)  HLASM R4.0  2004/03/15 12.43
+___    ______ ____    _____ _____  ____ __ ______    ______ _________
0006416 18D8/9808 D004_            30733                       PEND  ,
 DROP   *,R7
1EDIT     (EDIT2193) (12:43) (15MAR04) EVALUATE Command                                                                     Page   76
0Current Usings:  (EVALWA,R6) (CP,R11) (CV,R12)
0Loc    Object Code    Addr1 Addr2  Stmt Lv Lineno    Source Statement           (Hibal 5, Asmedit 3.3)  HLASM R4.0  2004/03/15 12.43
+___    ______ ____    _____ _____  ____ __ ______    ______ _________
0                                  30754              ¿þþþþþþþþþþþþþþþþþþþþþþþþþþþþþþþþþþþþþþþþþþþþþþþþþþþþþþþþþþþþþþþþþþþþþÜ
                                   30755              Ÿ                                                                     Ÿ
                                   30756              Ÿ  EVALRTN -- EVAL command's range processing co-routine.             Ÿ
                                   30757              Ÿ                                                                     Ÿ
                                   30758              Ÿ    On entry:                                                        Ÿ
                                   30759              Ÿ      R1,R0 - line loc, len                                          Ÿ
                                   30760              Ÿ                                                                     Ÿ
                                   30761              Ÿ                                                                     Ÿ
                                                      ¾þþþþþþþþþþþþþþþþþþþþþþþþþþþþþþþþþþþþþþþþþþþþþþþþþþþþþþþþþþþþþþþþþþþþþ»
0006424 50E0 D000/9008_      00000 30762              EVALRTN  PROC
 USING  *,R7
 00643E 5860 BCA4            00CA4 30801                       L     R6,CPCWA
                                   30802                       ¿þþþþþþþþþþþþþþþþþþþþþþþþþþþþþþþþþþþþþþþþþþþþþþþþþþþþþþþþþþþþþþÜ
                                   30803                       Ÿ  Save parameter information where expression can get to it.  Ÿ
                                   30804                       ¾þþþþþþþþþþþþþþþþþþþþþþþþþþþþþþþþþþþþþþþþþþþþþþþþþþþþþþþþþþþþþþ»
 006442 D203 BDE0 B73C 00DE0 0073C 30805                       MVC   CPEVLNO,CPLCNO      Save current line-number
 006448 5010 BDE8            00DE8 30806                       ST    R1,CPEVLOC          Current line text loc
 00644C 5000 BDE4            00DE4 30807                       ST    R0,CPEVLEN          Current line text len
                                   30808                       ¿þþþþþþþþþþþþþþþþþþþþþþþþÜ
                                   30809                       Ÿ  Evaluate expression.  Ÿ
                                   30810                       ¾þþþþþþþþþþþþþþþþþþþþþþþþ»
 006450 18ED/41D0 D43C_            30811                       TPUSH
                                   30849                       ¿þþþþþþþþþþþþþþþþþþþþþþþþþþþþþÜ
                                   30850                       Ÿ  Do TEST expression first.  Ÿ
                                   30851                       ¾þþþþþþþþþþþþþþþþþþþþþþþþþþþþþ»
 006484 4110 610C/5800_      0010C 30852                       SETMSG EVALTEST,L:EVALTSTL
 00648C 1200/47D0 7074             30866                       IF    (R0,POS),BEGIN      We have a TEST expression...
 006492 4120 620C            0020C 30880  1                      LA    R2,EVALRES
 006496 4130 0100            00100 30881  1                      LA    R3,L'EVALRES
 00649A 58E0 7976/0DEE       06DB4 30882  1                      VCALL EVALSTR
 0064A0 5930 797A/4770_      06DB8 30886  1                      IF    ((R3,NE,4),OR,(@R2,NE,'TRUE')),EVALRSK
 0064B2                            30921                       END
                                   30925                       ¿þþþþþþþþþþþþþþþþþþþþþþÜ
                                   30926                       Ÿ  Do the expression.  Ÿ
                                   30927                       ¾þþþþþþþþþþþþþþþþþþþþþþ»
 0064B2 4110 6008/5800_      00008 30928                       SETMSG EVALEXP,L:EVALEXPL
 0064BA 4120 620C            0020C 30942                       LA    R2,EVALRES
 0064BE 4130 0100            00100 30943                       LA    R3,L'EVALRES
 0064C2 58E0 7976/0DEE       06DB4 30944                       VCALL EVALSTR             Evaluate expression
                                   30948                       ¿þþþþþþþþþþþþþþþþþþþþþþþþþþþþþþþþþþþþþþþþþþþþþþþþþþþþþþþþþþþþþþþÜ
                                   30949                       Ÿ  Right now we simply throw away the result of the expression  Ÿ
                                   30950                       Ÿ    and any errors that might have occurred.                   Ÿ
                                   30951                       ¾þþþþþþþþþþþþþþþþþþþþþþþþþþþþþþþþþþþþþþþþþþþþþþþþþþþþþþþþþþþþþþþ»
 0064C8 4BD0 79C6/D23B_      06E04 30952              EVALRSK  TPOP  JUNK
                                   30958
 0064D2 18D8/9808 D004_            30959                       PEND
 DROP   *,R7
1EDIT     (EDIT2193) (12:43) (15MAR04) Record Manager Commands                                                              Page   77
0Current Usings:  (EVALWA,R6) (CP,R11) (CV,R12)
0Loc    Object Code    Addr1 Addr2  Stmt Lv Lineno    Source Statement           (Hibal 5, Asmedit 3.3)  HLASM R4.0  2004/03/15 12.43
+___    ______ ____    _____ _____  ____ __ ______    ______ _________
0000000                00000 0012B 30980              RLDWA    RECORD BEGIN
 000000 00                         30988  1           RLDFLAG    FLAG
 RLDFLAG.RLDFPUB   80 ONES         30992  1                      FLAG  RLDFPUB             - Public record group
 RLDFLAG.RLDFUPP   40 ONES         30997  1                      FLAG  RLDFUPP             - Convert key to upper case
 RLDFLAG.RLDFNDUP  20 ONES         31002  1                      FLAG  RLDFNDUP            - Don't allow duplicate keys
 RLDFLAG.RLDFFREE  10 ONES         31007  1                      FLAG  RLDFFREE            - Free form
                                   31012  1
 000001                            31013  1           RLDSEP     DS    C                   Keyword/Value separator char
                                   31014  1
 000004                            31015  1           RLDMIN     DS    A                   If non-zero: key must be GE this
 000008                            31016  1           RLDMAX     DS    A                   If non-zero: key must be LE this
                                   31017  1
 00000C                            31018  1           RLDDRG     DS    A                   Record group ptr
 000010                            31019  1           RLDSETNO   DS    F                   Record set number
 000014                            31020  1           RLDCOUNT   DS    F                   Record counter
                                   31021  1
 000018                            31022  1           RLDLPTRS   DS    2A                  Working line loc, len
                                   31023  1
 000020                            31024  1           RLDKEY     DS    0CL(CPDATANL)       Working key
 000020                            31025  1           RLDKPFX    DS    C                   .prefix (always blank)
 000021                            31026  1           RLDKDATA   DS    CL(CPDATANL-1)      .main key
                                   31027  1           RLDKCNT    EQU   *-9,9,C'C'          .count suffix
                                   31028  1
                                   31029  1           RLDLINE    DS    CL(&LINESZ)         Working line image
 000040                                   1          +RLDLINE    DS    CL(235)             Working line image
 00012B                0012B 0012B 31030                       END
-                                  31040              ¿þþþþþþþþþþþþþþþþþþþþþþþþþþþþþþþþþþþþþþþþþþþþþþþþþþþþþþþþþþþþþþþþþþþþþÜ
                                   31041              Ÿ                                                                     Ÿ
                                   31042              Ÿ  REC_LOAD -- REC_LOAD Command.                                      Ÿ
                                   31043              Ÿ                                                                     Ÿ
                                                      ¾þþþþþþþþþþþþþþþþþþþþþþþþþþþþþþþþþþþþþþþþþþþþþþþþþþþþþþþþþþþþþþþþþþþþþ»
00064E0 50E0 D000/9008_      00000 31044              RECLOAD  XPROC RLDWA
 USING  *,R7
 USING  RLDWA-(4+36),R8
 0064FA 4160 8028            00000 31095                       LA    R6,RLDWA
 DROP   EVALWA,R6                  31096                       USING RLDWA,R6
 USING  RLDWA,R6
 0064FE 5060 BCA4            00CA4 31108                       ST    R6,CPCWA
 006502 D7FF 6000 6000_00000 00000 31109                       CLEAR RLDWA
                                   31117
 00650E 927E 6001      00001       31118                       MVI   RLDSEP,C'='         Default separator
 006512 41F0 B504            00504 31119                       LA    R15,CPDATA          Default record group
 006516 50F0 600C            0000C 31120                       ST    R15,RLDDRG          Save rg ptr
                                   31121
 00651A 58E0 784A/0DEE       06D44 31122                       VCALL SCNEXFR             Allow active/exec/fromt dsname
 006520 9610 BD50      00D50       31126                       SET   CPLFLG1.CPFALL      Default is ALL
 006524 58E0 784E/0DEE       06D48 31133                       VCALL NDETRNG             Get range specified
                                   31137
 00652A 9503 BD89/4770_00D89       31138                       IF    CPFRDEXT,BEGIN
 006532 5810 B08C/1B00_      0008C 31153  1                      SCAN  RLDPRTX
 006584 58E0 785E/0DEE       06D58 31185  1                      SCANCHK
1EDIT     (EDIT2193) (12:43) (15MAR04) Record Manager Commands                                                              Page   78
0Current Usings:  (RLDWA,R6) (*,R7) (RLDWA-(4+36),R8) (CP,R11) (CV,R12)
0Loc    Object Code    Addr1 Addr2  Stmt Lv Lineno    Source Statement           (Hibal 5, Asmedit 3.3)  HLASM R4.0  2004/03/15 12.43
+___    ______ ____    _____ _____  ____ __ ______    ______ _________
000658A                            31190                       END
 00658A 7094/47F0 70EC 0658A 06530 31194                       ELSE  BEGIN
 00658E 5810 B08C/1B00_      0008C 31205  1                      SCAN  RLDPRT
 0065E0 58E0 785E/0DEE       06D58 31237  1                      SCANCHK
 0065E6                            31242                       END
                                   31246
 0065E6 D603 6010 6010_00010 00010 31247                       IF    (RLDSETNO,Z),BEGIN  Missing set number...
 0065F0 4110 790C/4100_      06E06 31263  1                      ERROR 'Missing "INTO setno" for REC_LOAD command.'
 0065FC                            31270                       END
                                   31274                       ¿þþþþþþþþþþþþþþþþþþþþþþþþþþþþþþþþþþþþþÜ
                                   31275                       Ÿ  Make sure the record set is open.  Ÿ
                                   31276                       ¾þþþþþþþþþþþþþþþþþþþþþþþþþþþþþþþþþþþþþ»
 0065FC D71F 6020 6020 00020 00020 31277                       CLEAR RLDKEY              Set binary zero key
 006602 4120 6020            00020 31284                       LA    R2,RLDKEY           Key ptr
 006606 58F0 600C            0000C 31285                       L     R15,RLDDRG          Data record group
 00660A 58E0 78CE/0DEE       06DC8 31286                       VCALL XLOCATE             Does our zero record exist?
 006610 4780 7158            06652 31290                       IF    NZ,BEGIN            No, set is not open...
 006614 4110 794A/4100_      06E44 31301  1                      SETMSG 'Record set '
 00661C 9180 6000/47E0_00000       31305  1                      IF    RLDFPUB,'SETMSG "Public record set "'
 00662C 41F0 B050/58E0_      00050 31329  1                      TSEG  (R1),(R0)
 006636 5810 6010/1B00_      00010 31353  1                      TNUM  L:RLDSETNO
 006646 4110 7955/4100_      06E4F 31375  1                      ERROR ' is not open.'
 006652                            31382                       END
                                   31386                       ¿þþþþþþþþþþþþþþþþþþþþþþþþþþþþþþþþþþþþþþþþþþþþþþþþþþþþÜ
                                   31387                       Ÿ  Process the range (see RLDRTN range co-routine).  Ÿ
                                   31388                       ¾þþþþþþþþþþþþþþþþþþþþþþþþþþþþþþþþþþþþþþþþþþþþþþþþþþþþ»
 006652 9503 BD89/4770_00D89       31389                       IF    CPFRDEXT,BEGIN
 00665A 5800 788E/5810_      06D88 31404  1                      RDRNG RLDRTN,(DESRTRN+LXCATRTN+DESABORT+UNPRST)
 006668                            31411                       END
 006668 7172/47F0 7188_06668 06658 31415                       ELSEIF CPFRDEXE,BEGIN
 006674 5800 78A2/5810_      06D9C 31439  1                      RDRNG RLDRTN,(DESRTRN+LEXATRTN+DESABORT+UNPRST)
 006682                            31446                       END
 006682 718C/47F0 719A 06682 06672 31450                       ELSE  BEGIN
 006686 5800 78AA/5810_      06DA4 31461  1                      RDRNG RLDRTN,(DESRTRN+LOCATRTN+DESABORT+UNPRST)
 006694                            31468                       END
                                   31472
 006694 47F0 C7DE            007DE 31473                       B     CVNEXT
                                   31474
 006698 18D8/9808 D004_            31475                       PEND
 DROP   RLDWA-(4+36),R8
 DROP   *,R7
                                   31500              þþþþ
 0066A8 C6D9D6D440404040_          31501              RLDPRTX  SCKW  FROM,V(FNAMESCN),A
 0066D0 4040404040404040_          31516                       SCKW  ,V(FNAMPSHF),PUSH
                                   31531
 0066F8 4040404040404040_          31532              RLDPRT   SCKW  ,V(LTNPSH),PUSH
 006720 C9D5E3D640404040_          31547                       SCKW  INTO,RLDINTO,(P,PI)
 006748 D7E4C2D3C9C34040_          31562                       SCKW  PUBLIC,RLDPUB,A
 006770 E7D7E4C2D3C9C340_          31577                       SCKW  XPUBLIC,RLDPUB,A
 006798 E4D7D7C5D9404040_          31592                       SCKW  UPPER,RLDUPP,A
 0067C0 D5D6C4E4D7D3C9C3_          31607                       SCKW  NODUPLICATE,RLDNDUP,A
 0067E8 E2C5D7C1D9C1E3D6_          31622                       SCKW  SEPARATOR,RLDXSEP,(A,P)
 006810 C6D9C5C5C6D6D9D4_          31637                       SCKW  FREEFORM,RLDXFF,A
 006838 D4C9D5C9D4E4D440_          31652                       SCKW  MINIMUM,RLDXMIN,(A,P,PI)
1EDIT     (EDIT2193) (12:43) (15MAR04) Record Manager Commands                                                              Page   79
0Current Usings:  (RLDWA,R6) (CP,R11) (CV,R12)
0Loc    Object Code    Addr1 Addr2  Stmt Lv Lineno    Source Statement           (Hibal 5, Asmedit 3.3)  HLASM R4.0  2004/03/15 12.43
+___    ______ ____    _____ _____  ____ __ ______    ______ _________
0006860 D4C1E7C9D4E4D440_          31667                       SCKW  MAXIMUM,RLDXMAX,(A,P,PI)
 006888 C1C3E3C9E5C54040_          31682                       SCKW  ACTIVE,V(SCNNOOP),A           (Processed elsewhere)
 0068B0 C5E7C5C3E4E3C540_          31697                       SCKW  EXECUTE,V(SCNNOOP),A          (Prcoessed elsewhere)
 0068D8 4040404040404040_          31712                       SCKW  ,V(NOTVALID)
                                   31727
 006900 50E0 D000/9008_      00000 31728              RLDINTO  PROC  ,
 USING  *,R7
 00691A 5000 6010            00010 31767                       ST    R0,RLDSETNO         Save set number
 00691E 18D8/9808 D004_            31768                       PEND  ,
 DROP   *,R7
                                   31788
 00692C 50E0 D000/9008_      00000 31789              RLDPUB   PROC
 USING  *,R7
 006946 9120 B3BE/4710_003BE       31828                       IF    (~CPSFSPR,AND,~CPFXAUTH),BEGIN
 006956 4110 7516/4100_      06E5C 31857  1                      ABORT 'Write access for PUBLIC record groups denied.'
 006962                            31864                       END
                                   31868
 006962 9680 6000      00000       31869                       SET   RLDFPUB             Public record group
 006966 41F0 C340            00340 31875                       LA    R15,CVDATA
 00696A 50F0 600C            0000C 31876                       ST    R15,RLDDRG          Set RG ptr
 00696E 18D8/9808 D004_            31877                       PEND
 DROP   *,R7
                                   31897
 00697C 50E0 D000/9008_      00000 31898              RLDUPP   PROC
 USING  *,R7
 006996 9640 6000      00000       31937                       SET   RLDFUPP
 00699A 18D8/9808 D004_            31943                       PEND
 DROP   *,R7
                                   31963
 0069A8 50E0 D000/9008_      00000 31964              RLDNDUP  PROC
 USING  *,R7
 0069C2 9620 6000      00000       32003                       SET   RLDFNDUP
 0069C6 18D8/9808 D004_            32009                       PEND
 DROP   *,R7
                                   32029
 0069D4 50E0 D000/9008_      00000 32030              RLDXFF   PROC
 USING  *,R7
 0069EE 9610 6000      00000       32069                       SET   RLDFFREE
 0069F2 9200 6001      00001       32075                       CLEAR RLDSEP
 0069F6 18D8/9808 D004_            32082                       PEND
 DROP   *,R7
                                   32102
 006A04 50E0 D000/9008_      00000 32103              RLDXSEP  PROC
 USING  *,R7
 006A1E 94EF 6000      00000       32142                       CLEAR RLDFFREE
 006A22 58E0 73BA/0DEE       06DD8 32149                       VCALL DEQUOTE             De-quote, if necessary
 006A28 5900 73BE/4780_      06DDC 32153                       IF    (R0,NE,1),BEGIN     Must be one character
 006A30 58E0 73C2/0DEE       06DE0 32170  1                      VCALL NOTVALID
 006A36                            32174                       END
 006A36 D200 6001 1000 00001 00000 32178                       MVC   RLDSEP,@R1
 006A3C 18D8/9808 D004_            32179                       PEND
 DROP   *,R7
                                   32199
 006A4A 50E0 D000/9008_      00000 32200              RLDXMIN  PROC
1EDIT     (EDIT2193) (12:43) (15MAR04) Record Manager Commands                                                              Page   80
0Current Usings:  (RLDWA,R6) (*,R7) (CP,R11) (CV,R12)
0Loc    Object Code    Addr1 Addr2  Stmt Lv Lineno    Source Statement           (Hibal 5, Asmedit 3.3)  HLASM R4.0  2004/03/15 12.43
+___    ______ ____    _____ _____  ____ __ ______    ______ _________
0USING  *,R7
 006A64 5000 6004            00004 32239                       ST    R0,RLDMIN
 006A68 18D8/9808 D004_            32240                       PEND
 DROP   *,R7
                                   32260
 006A76 50E0 D000/9008_      00000 32261              RLDXMAX  PROC  ,
 USING  *,R7
 006A90 5000 6008            00008 32300                       ST    R0,RLDMAX
 006A94 18D8/9808 D004_            32301                       PEND  ,
 DROP   *,R7
                                   32321
1EDIT     (EDIT2193) (12:43) (15MAR04) Record Manager Commands                                                              Page   81
0Current Usings:  (RLDWA,R6) (CP,R11) (CV,R12)
0Loc    Object Code    Addr1 Addr2  Stmt Lv Lineno    Source Statement           (Hibal 5, Asmedit 3.3)  HLASM R4.0  2004/03/15 12.43
+___    ______ ____    _____ _____  ____ __ ______    ______ _________
0                                  32323              ¿þþþþþþþþþþþþþþþþþþþþþþþþþþþþþþþþþþþþþþþþþþþþþþþþþþþþþþþþþþþþþþþþþþþþþÜ
                                   32324              Ÿ                                                                     Ÿ
                                   32325              Ÿ  RLDRTN -- REC_LOAD command's range processing co-routine.          Ÿ
                                   32326              Ÿ                                                                     Ÿ
                                   32327              Ÿ    On entry:                                                        Ÿ
                                   32328              Ÿ      R1,R0 - line loc, len                                          Ÿ
                                   32329              Ÿ                                                                     Ÿ
                                   32330              Ÿ                                                                     Ÿ
                                                      ¾þþþþþþþþþþþþþþþþþþþþþþþþþþþþþþþþþþþþþþþþþþþþþþþþþþþþþþþþþþþþþþþþþþþþþ»
0006AA2 50E0 D000/9008_      00000 32331              RLDRTN   PROC
 USING  *,R7
 006ABC 5860 BCA4            00CA4 32370                       L     R6,CPCWA
                                   32371                       ¿þþþþþþþþþþþþþþþþþþþþþþþþþþþþþþþþþþþþþþþþþÜ
                                   32372                       Ÿ  Scan for fixed "keyword=value" lines.  Ÿ
                                   32373                       ¾þþþþþþþþþþþþþþþþþþþþþþþþþþþþþþþþþþþþþþþþþ»
 006AC0 9500 6001/4780_00001       32374                       IF    (RLDSEP,NZ),BEGIN   Looking for "key=data"...
 006AC8 1841                       32390  1                      LR    R4,R1               Start of line
                                   32391  1
 006ACA 1200/47D0 70C6             32392  1                      WHILE (R0,POS),BEGIN
 006AD0 D500 6001 1000_00001 00000 32408  2                        IF    (@R1,EQ,RLDSEP),BEGIN  We found the sep char...
 006ADA 18F1                       32425  3                          LR    R15,R1
 006ADC 1BF4                       32426  3                          SR    R15,R4              Length of key
 006ADE 47D0 70BC            06B78 32427  3                          IF    POS,BEGIN
 006AE2 D21F 6020 C4D8 00020 004D8 32438  4                            MVC   RLDKEY,CVBLANKS     Pre-blank key
 006AE8 59F0 7328/47D0_      06DE4 32439  4                            CEIL  R15,L'RLDKDATA
 006AF4 06F0/12FF/4740_            32458  4                            MOVE  R15,RLDKDATA,@R4    Save key
 006B00 9140 6000/47E0_00000       32496  4                            IF    RLDFUPP,BEGIN       Convert key to caps...
 006B08 58E0 C8A8            008A8 32511  5                              L     R14,CVUPPTBL
 006B0C 12FF/4780 705A             32512  5                              IF    (R15,NZ),BEGIN
 006B12 44F0 73FC/DC00_      06EB8 32526  6                                EX    R15,'TR RLDKDATA(0),@R14'
 006B16                            32542  5                              END
 006B16                            32546  4                            END
                                   32550  4
 006B16 9001 D000/41D0_      00000 32551  4                            XPUSH R0,R1
 006B1E 41F0 0001/5EF0_      00001 32554  4                            INCR  R15,RLDCOUNT        Kick counter
 006B2A 9120 6000/4710_00000       32560  4                            IF    ~RLDFNDUP,BEGIN     Make key unique...
 006B32 D208 6037 C4D8 00037 004D8 32575  5                              MVC   RLDKCNT,CVBLANKS    Blank count field
 006B38 4100 0009/4110_      00009 32576  5                              BTD   RLDKCNT,,(R15)
 006B46                            32596  4                            END
                                   32600  4
 006B46 5800 6010            00010 32601  4                            L     R0,RLDSETNO
 006B4A 58F0 600C            0000C 32602  4                            L     R15,RLDDRG
 006B4E 58E0 7330/0DEE       06DEC 32603  4                            VCALL XSETSET             Set our set number
                                   32607  4
 006B54 4BD0 7386/9801_      06E42 32608  4                            XPOP  R0,R1
                                   32611  4
 006B5C 4110 1001            00001 32612  4                            LA    R1,@R1+1            Skip past separator character
 006B60 0600                       32613  4                            DECR  R0
 006B62 4120 6020            00020 32615  4                            LA    R2,RLDKEY           Key
 006B66 58F0 600C            0000C 32616  4                            L     R15,RLDDRG          Data record group
 006B6A 58E0 7334/0DEE       06DF0 32617  4                            VCALL XPUT                Add record
 006B70 4770 7208            06CC4 32621  4                            BNZ   RLDPERR             Trouble, go complain
 006B74 47F0 7272            06D2E 32622  4                            B     RLDREXIT            All done with this line
1EDIT     (EDIT2193) (12:43) (15MAR04) Record Manager Commands                                                              Page   82
0Current Usings:  (RLDWA,R6) (*,R7) (CP,R11) (CV,R12)
0Loc    Object Code    Addr1 Addr2  Stmt Lv Lineno    Source Statement           (Hibal 5, Asmedit 3.3)  HLASM R4.0  2004/03/15 12.43
+___    ______ ____    _____ _____  ____ __ ______    ______ _________
0006B78                            32623  3                          END
 006B78                            32627  2                        END
                                   32631  2
 006B78 4110 1001            00001 32632  2                        LA    R1,@R1+1            Next char
 006B7C 0600                       32633  2                        DECR  R0
 006B7E 47F0 700E            06ACA 32635  1                      END
                                   32640  1
 006B82 47F0 7272            06D2E 32641  1                      B     RLDREXIT            No separator char, scram
 006B86                            32642                       END
                                   32646                       ¿þþþþþþþþþþþþþþþþþþþþþþþþþþþþþþþþþþþþþþþþþþþþþþþþþþþþþþþþþþþþþþÜ
                                   32647                       Ÿ  Scan free-format line--every token is a key with it's data  Ÿ
                                   32648                       Ÿ    being the entire line image.                              Ÿ
                                   32649                       ¾þþþþþþþþþþþþþþþþþþþþþþþþþþþþþþþþþþþþþþþþþþþþþþþþþþþþþþþþþþþþþþ»
 006B86 9001 6018            00018 32650                       STM   R0,R1,RLDLPTRS      Save working line ptrs
 006B8A 18F0                       32651                       LR    R15,R0
 006B8C 59F0 7338/47D0_      06DF4 32652                       CEIL  R15,L'RLDLINE
 006B98 06F0/12FF/4740_            32671                       MOVE  R15,RLDLINE,@R1     Working line image (for SCAN)
 006BA4 9140 6000/47E0_00000       32709                       IF    RLDFUPP,BEGIN
 006BAC 58E0 C8A8            008A8 32724  1                      L     R14,CVUPPTBL
 006BB0 12FF/4780 70FE             32725  1                      IF    (R15,NZ),BEGIN
 006BB6 44F0 7408/DC00_      06EC4 32739  2                        EX    R15,'TR RLDLINE(0),@R14'
 006BBA                            32755  1                      END
 006BBA                            32759                       END
                                   32763
 006BBA 4110 6040/58E0_      00040 32764                       SCINIT RLDLINE,(R0)
 006BCC 9140 6000/4710_00000       32787                       IF    ~RLDFUPP,'SET CPFSUPLO'
                                   32813
 006BD8 5810 B08C/1B00_      0008C 32814                       SCANSTR ,
 006C1E 12FF/4770 7272_            32843                       WHILE ((R15,Z),AND,(R0,POS)),BEGIN
 006C2A 1BFF                       32872  1                      CLEAR R15                 Assume OK to put
 006C2C D603 6004 6004_00004 00004 32876  1                      IF    ((RLDMIN,NZ),AND,(R0,LT,RLDMIN)),'LA R15,1'  No go
 006C42 D603 6008 6008_00008 00008 32914  1                      IF    ((RLDMAX,NZ),AND,(R0,GT,RLDMAX)),'LA R15,1'  No go
                                   32952  1
 006C58 12FF/4770 7228             32953  1                      IF    (R15,Z),BEGIN       Put the record...
 006C5E D21F 6020 C4D8 00020 004D8 32967  2                        MVC   RLDKEY,CVBLANKS
 006C64 18F0                       32968  2                        LR    R15,R0
 006C66 59F0 7328/47D0_      06DE4 32969  2                        CEIL  R15,L'RLDKDATA
 006C72 06F0/12FF/4740_            32988  2                        MOVE  R15,RLDKDATA,@R1    Save key data
 006C7E 41F0 0001/5EF0_      00001 33026  2                        INCR  R15,RLDCOUNT        Kick counter
 006C8A 9120 6000/4710_00000       33032  2                        IF    ~RLDFNDUP,BEGIN     Make key unique...
 006C92 4100 0009/4110_      00009 33047  3                          BTD   RLDKCNT,,(R15)
 006CA0                            33067  2                        END
                                   33071  2
 006CA0 5800 6010            00010 33072  2                        L     R0,RLDSETNO
 006CA4 58F0 600C            0000C 33073  2                        L     R15,RLDDRG
 006CA8 58E0 7330/0DEE       06DEC 33074  2                        VCALL XSETSET             Set our set number
                                   33078  2
 006CAE 9801 6018            00018 33079  2                        LM    R0,R1,RLDLPTRS      Line image
 006CB2 4120 6020            00020 33080  2                        LA    R2,RLDKEY           Key
 006CB6 58F0 600C            0000C 33081  2                        L     R15,RLDDRG          Data record group
 006CBA 58E0 7334/0DEE       06DF0 33082  2                        VCALL XPUT                Add record
 006CC0 4780 7228            06CE4 33086  2                        IF    NZ,BEGIN            Trouble...
 006CC4 4110 73CD/4100_      06E89 33097  3           RLDPERR        TSEG  'Can''t add new record at line '
 006CD6 5800 B73C            0073C 33115  3                          L     R0,CPLCNO
1EDIT     (EDIT2193) (12:43) (15MAR04) Record Manager Commands                                                              Page   83
0Current Usings:  (RLDWA,R6) (*,R7) (CP,R11) (CV,R12)
0Loc    Object Code    Addr1 Addr2  Stmt Lv Lineno    Source Statement           (Hibal 5, Asmedit 3.3)  HLASM R4.0  2004/03/15 12.43
+___    ______ ____    _____ _____  ____ __ ______    ______ _________
0006CDA 58E0 7340/0DEE       06DFC 33116  3                          VCALL CVEXNO
 006CE0 47F0 C7C8            007C8 33120  3                          ERROR (R1),(R0)
 006CE4                            33133  2                        END
 006CE4                            33137  1                      END
 006CE4 5810 B08C/1B00_      0008C 33141  1                      SCANSTR ,                 LOOP THRU LINE
 006D2A 47F0 7162            06C1E 33170                       END
                                   33175
 006D2E 18D8/9808 D004_            33176              RLDREXIT PEND
 DROP   *,R7
                                   33197
                                   33198                       QLTORG
1EDIT     (EDIT2193) (12:43) (15MAR04) NUMBER Command                                                                       Page   84
0Current Usings:  (RLDWA,R6) (CP,R11) (CV,R12)
0Loc    Object Code    Addr1 Addr2  Stmt Lv Lineno    Source Statement           (Hibal 5, Asmedit 3.3)  HLASM R4.0  2004/03/15 12.43
+___    ______ ____    _____ _____  ____ __ ______    ______ _________
0000000                00000 0001C 33261              NUMWA    RECORD BEGIN
 000000                            33269  1           NUMFIRST   DS    F                   First line-number in range
 000004                            33270  1           NUMLAST    DS    F                   Last line-number in range
                                   33271  1
 000008                            33272  1           NUMSTART   DS    F                   Start at this line-number (or -1)
 00000C                            33273  1           NUMBY      DS    F                   Delta
                                   33274  1
 000010                            33275  1           NUMAVAL    DS    F                   Addition factor
 000014                            33276  1           NUMMVAL    DS    F                   Multiplication factor
                                   33277  1
 000018                            33278  1           NUMWLNO    DS    F                   Working lineno (for NUMRTN)
 00001C                0001C 0001C 33279                       END
-                                  33289              ¿þþþþþþþþþþþþþþþþþþþþþþþþþþþþþþþþþþþþþþþþþþþþþþþþþþþþþþþþþþþþþþþþþþþþþÜ
                                   33290              Ÿ                                                                     Ÿ
                                   33291              Ÿ  NUMBER -- NUMBER Command.                                          Ÿ
                                   33292              Ÿ                                                                     Ÿ
                                                      ¾þþþþþþþþþþþþþþþþþþþþþþþþþþþþþþþþþþþþþþþþþþþþþþþþþþþþþþþþþþþþþþþþþþþþþ»
0006ED0 50E0 D000/9008_      00000 33293              NUMBER   XPROC NUMWA
 USING  *,R7
 USING  NUMWA-(4+36),R8
 006EEA 4160 8028            00000 33344                       LA    R6,NUMWA
 DROP   RLDWA,R6                   33345                       USING NUMWA,R6
 USING  NUMWA,R6
 006EEE 5060 BCA4            00CA4 33357                       ST    R6,CPCWA
 006EF2 D71B 6000 6000 00000 00000 33358                       CLEAR NUMWA
                                   33365
 006EF8 D203 6008 7926 00008 07810 33366                       MVC   NUMSTART,=F'-1'     No explicit lineno yet
                                   33367
 006EFE 9610 BD50      00D50       33368                       SET   CPLFLG1.CPFALL      Default range is ALL
 006F02 58E0 792A/0DEE       07814 33375                       VCALL NDETRNG             Scan range
                                   33379
 006F08 5810 B08C/1B00_      0008C 33380                       SCAN  NUMPRT              Scan options
 006F5A 58E0 7936/0DEE       07820 33412                       SCANCHK
                                   33417
 006F60 9140 BD88/47E0_00D88       33418                       IF    CPFSTRRG,BEGIN      String range...
 006F68 4110 7A42/4100_      0792C 33433  1                      TSEG  'Can''t re-number a string range.',,CR
 006F7A 4110 7A61/4100_      0794B 33451  1                      TSEG  'Expecting "first-lineno/last-lineno" '
 006F8C 4110 78D6/4100_      077C0 33469  1                      ERROR 'to be specified.'
 006F98                            33476                       END
                                   33480                       ¿þþþþþþþþþþþþþþþþþþþþþþþþþþþþþþþþþþþþþþþþÜ
                                   33481                       Ÿ  Assume it's a simple explicit range.  Ÿ
                                   33482                       ¾þþþþþþþþþþþþþþþþþþþþþþþþþþþþþþþþþþþþþþþþ»
 006F98 D203 6000 BD90 00000 00D90 33483                       MVC   NUMFIRST,CPFSLN     First line-number of range
 006F9E D203 6004 BD94 00004 00D94 33484                       MVC   NUMLAST,CPLSLN      Last line-number of range
1EDIT     (EDIT2193) (12:43) (15MAR04) NUMBER Command                                                                       Page   85
0Current Usings:  (NUMWA,R6) (*,R7) (NUMWA-(4+36),R8) (CP,R11) (CV,R12)
0Loc    Object Code    Addr1 Addr2  Stmt Lv Lineno    Source Statement           (Hibal 5, Asmedit 3.3)  HLASM R4.0  2004/03/15 12.43
+___    ______ ____    _____ _____  ____ __ ______    ______ _________
0                                  33485                     ¿þþþþþþþþþþþþþþþþþþþþþþþþþþþþþþþþþþþþþþþþþþþþþþþþþþþþþþþþþþþþþþþþþÜ
                                   33486                     Ÿ  If it's a more complicated range we must go through the range  Ÿ
                                   33487                     Ÿ      to get the first/last line-numbers (or complain if it's    Ÿ
                                   33488                     Ÿ      a disjoint range).                                         Ÿ
                                   33489                     ¾þþþþþþþþþþþþþþþþþþþþþþþþþþþþþþþþþþþþþþþþþþþþþþþþþþþþþþþþþþþþþþþþþ»
 006FA4 9104 BD88/4710_00D88       33490                       IF  (CPFDSJNT,OR,(CPLSLN.FRNGTYP,NZ)),BEGIN
 006FB4 D203 6000 7926 00000 07810 33522  1                      MVC   NUMFIRST,=F'-1'     First lineno must be calculated
 006FBA 5800 7942/5810_      0782C 33523  1                      RDRNG NUMRTN,(DESRTRN+LOCATRTN+UNPRST+DESABORT)
 006FC8                            33530                       END
                                   33534                       ¿þþþþþþþþþþþþþþþþþþþþþþþþþþþþþþþþþþþþþþþþþþþþþþþþþþþþþþþþþþþþþþÜ
                                   33535                       Ÿ  Number with a single line-number means re-number all lines  Ÿ
                                   33536                       Ÿ    starting at that line-number.                             Ÿ
                                   33537                       ¾þþþþþþþþþþþþþþþþþþþþþþþþþþþþþþþþþþþþþþþþþþþþþþþþþþþþþþþþþþþþþþ»
 006FC8 9110 BD88/47E0_00D88       33538                       IF    CPFONEL,BEGIN       Single lineno specified...
 006FD0 D503 794E 6008_07838 00008 33553  1                      IF    (NUMSTART,NE,-1),EXIT  Explicit START specified
 006FDA D203 6008 6000 00008 00000 33574  1                      MVC   NUMSTART,NUMFIRST   Set starting lineno
 006FE0 D703 6000 6000 00000 00000 33575  1                      CLEAR NUMFIRST            Set range=ALL
 006FE6 D203 6004 C15C 00004 0015C 33582  1                      MVC   NUMLAST,CVMAXLNO
 006FEC                            33583                       END
                                   33587                       ¿þþþþþþþþþþþþþþþþþþþþþþþþþþþþþþþþþþþþþþþþþþþþþþþþÜ
                                   33588                       Ÿ  Do some final cleanup and validity checking.  Ÿ
                                   33589                       ¾þþþþþþþþþþþþþþþþþþþþþþþþþþþþþþþþþþþþþþþþþþþþþþþþ»
 006FEC D603 6010 6010_00010 00010 33590                       IF    ((NUMAVAL,NZ),OR,(NUMMVAL,NZ)),BEGIN
 007000 D603 600C 600C_0000C 0000C 33621  1                      IF    ((NUMBY,NZ),OR,(NUMSTART,NE,-1)),BEGIN
 007014 4110 7A86/4100_      07970 33654  2                        TSEG  'PLUS/TIMES option can not be specified '
 007026 4110 7AAD/4100_      07997 33672  2                        ABORT 'if BY/START option is also specified.'
 007032                            33679  1                      END
 007032                            33683                       END
                                   33687
 007032 D503 794E 6008_07838 00008 33688                       IF    (NUMSTART,EQ,-1),BEGIN  Set starting line-number...
 00703C 9104 BD50/4710_00D50       33706  1                      IF    CPLFLG1.CPFALLV,EXIT  Default of ALL, so scram
 007044 D203 6008 6000 00008 00000 33725  1                      MVC   NUMSTART,NUMFIRST   Set explicit START
 00704A                            33726                       END
                                   33730
 00704A D503 6000 B5A0_00000 005A0 33731                       IF    (NUMFIRST,LE,CPAFLNO),'CLEAR NUMFIRST'
 00705A D503 6004 B5A4_00004 005A4 33761                       IF    (NUMLAST,GE,CPALLNO),'MVC NUMLAST,CVMAXLNO'
                                   33785
 00706A D503 794E 6008_07838 00008 33786                       IF    (NUMSTART,NE,-1),BEGIN  Explicit START specified...
 007074 D503 6008 6004_00008 00004 33804  1                      IF    (NUMSTART,LE,NUMLAST),EXIT  OK, scram
 00707E 4110 78E6/4100_      077D0 33825  1                      TSEG  'You can not specify a START line-number '
 007090 4110 79F0/4100_      078DA 33843  1                      TSEG  'greater than the LAST line-number.',,CR
 0070A2 4110 790E/4100_      077F8 33861  1                      ERROR 'No action taken.'
 0070AE                            33868                       END
                                   33872                       ¿þþþþþþþþþþþþþþþþþþþþþþþþþþþþþþþþþÜ
                                   33873                       Ÿ  Re-number the range of lines.  Ÿ
                                   33874                       ¾þþþþþþþþþþþþþþþþþþþþþþþþþþþþþþþþþ»
 0070AE 5800 6000            00000 33875                       L     R0,NUMFIRST
 0070B2 5810 6004            00004 33876                       L     R1,NUMLAST
                                   33877
 0070B6 5820 6010            00010 33878                       L     R2,NUMAVAL
 0070BA 5830 6014            00014 33879                       L     R3,NUMMVAL
 0070BE 1222/4770 71E0_            33880                       IF    ((R2,NZ),OR,(R3,NZ)),BEGIN  Plus/times...
 0070CA 58E0 7952/0DEE       0783C 33907  1                      VCALL NUMFACT             Number plus/times
 0070D0                            33911                       END
1EDIT     (EDIT2193) (12:43) (15MAR04) NUMBER Command                                                                       Page   86
0Current Usings:  (NUMWA,R6) (*,R7) (NUMWA-(4+36),R8) (CP,R11) (CV,R12)
0Loc    Object Code    Addr1 Addr2  Stmt Lv Lineno    Source Statement           (Hibal 5, Asmedit 3.3)  HLASM R4.0  2004/03/15 12.43
+___    ______ ____    _____ _____  ____ __ ______    ______ _________
0                                  33915
 0070D0 71EA/47F0 7214 070D0 070C8 33916                       ELSE  BEGIN               Regular number...
 0070D4 5820 600C/1222       0000C 33927  1                      LT    R2,NUMBY            Delta
 0070DA 4770 71F8/5820_      070E2 33931  1                      IF    Z,'L R2,CPDELTA'
 0070E2 5830 6008/1233       00008 33948  1                      LT    R3,NUMSTART         Starting new lineno (or -1)
 0070E8 47B0 720E            070F8 33952  1                      IF    NEG,BEGIN           Nothing specific...
 0070EC D603 6000 6000_00000 00000 33963  2                        IF    (NUMFIRST,Z),'LR R3,R2'  Start at delta
 0070F8                            33985  1                      END
                                   33989  1
 0070F8 58E0 7956/0DEE       07840 33990  1                      VCALL NUMRANGE            Number range
 0070FE                            33994                       END
                                   33998                       ¿þþþþþþþþþþþþþþþþþþþþþþþþþþþþþþþþþþþþþþþþþþþþþþþþÜ
                                   33999                       Ÿ  Process return codes from NUMBER subroutine.  Ÿ
                                   34000                       ¾þþþþþþþþþþþþþþþþþþþþþþþþþþþþþþþþþþþþþþþþþþþþþþþþ»
 0070FE 12FF/4780 7222_            34001                       IF    ((R15,Z),OR,(R15,EQ,16)),BEGIN  Re-numbered...
 00710C 9110 B477/47E0_00477       34031  1                      IF    CPFTYPED,'INCR R15,CPACHCT'  Count change
 007120 D711 B5C4 B5C4 005C4 005C4 34057  1                      CLEAR CPACINFO            Reset collect info
 007126 9110 B477/47E0_00477       34064  1                      IF    CPFTYPED,BEGIN      Give info message...
 00712E 1820                       34079  2                        LR    R2,R0               Save last lineno
 007130 4110 7AD2/4100_      079BC 34080  2                        TSEG  'Line '
 007142 1802                       34098  2                        LR    R0,R2
 007144 58E0 795E/0DEE       07848 34099  2                        VCALL CVEXNO
 00714A 41F0 B050/58E0_      00050 34103  2                        TSEG  (R1),(R0)
 007154 4110 7A12/4100_      078FC 34127  2                        TSEG  ' is the last line.'
 007166                            34145  1                      END
 007166 47F0 C7DE            007DE 34149  1                      B     CVNEXT
 00716A                            34150                       END
                                   34154
 00716A 4110 7AD7/4100_      079C1 34155                       SETMSG 'Can''t re-number'
 007172 59F0 7962/4770_      0784C 34159                       IF    (R15,EQ,4),'SETMSG "PLUS/TIMES value is out of bounds"'
 007182 59F0 7966/4770_      07850 34185                       IF    (R15,EQ,8),'SETMSG "No lines found"'
 007192 59F0 796A/4770_      07854 34211                       IF    (R15,EQ,12),'SETMSG "Bad range"'
 0071A2 182F                       34237                       LR    R2,R15
 0071A4 41F0 B050/58E0_      00050 34238                       TSEG  (R1),(R0)
 0071AE 4110 791E/4100_      07808 34262                       TSEG  ' (Range='
 0071C0 5800 6000            00000 34280                       L     R0,NUMFIRST
 0071C4 58E0 795E/0DEE       07848 34281                       VCALL CVEXNO
 0071CA 41F0 B050/58E0_      00050 34285                       TSEG  (R1),(R0)
 0071D4 4110 7B10/4100_      079FA 34309                       TSEG  '/'
 0071E6 5800 6004            00004 34327                       L     R0,NUMLAST
 0071EA 58E0 795E/0DEE       07848 34328                       VCALL CVEXNO
 0071F0 41F0 B050/58E0_      00050 34332                       TSEG  (R1),(R0)
                                   34356
 0071FA 1222/4780 734E             34357                       IF    (R2,NZ),BEGIN       Show rc...
 007200 5920 7962/4780_      0784C 34371  1                      IF    (R2,EQ,4),EXIT
 007208 5920 7966/4780_      07850 34391  1                      IF    (R2,EQ,8),EXIT
 007210 5920 796A/4780_      07854 34411  1                      IF    (R2,EQ,12),EXIT
 007218 4110 7A32/4100_      0791C 34431  1                      TSEG  ', return code='
 00722A 1812/1B00/41F0_            34449  1                      TNUM  (R2)
 007238                            34471                       END
 007238 4110 7A40/4100_      0792A 34475                       TSEG  ').',,CR
                                   34493
 00724A 47F0 C7EA            007EA 34494                       B     CVNOACTN
                                   34495
1EDIT     (EDIT2193) (12:43) (15MAR04) NUMBER Command                                                                       Page   87
0Current Usings:  (NUMWA,R6) (CP,R11) (CV,R12)
0Loc    Object Code    Addr1 Addr2  Stmt Lv Lineno    Source Statement           (Hibal 5, Asmedit 3.3)  HLASM R4.0  2004/03/15 12.43
+___    ______ ____    _____ _____  ____ __ ______    ______ _________
000724E 18D8/9808 D004_            34496                       PEND  ,
 DROP   NUMWA-(4+36),R8
 DROP   *,R7
 DROP   NUMWA,R6                   34521                       DROP  R6
1EDIT     (EDIT2193) (12:43) (15MAR04) NUMBER Command                                                                       Page   88
0Current Usings:  (CP,R11) (CV,R12)
0Loc    Object Code    Addr1 Addr2  Stmt Lv Lineno    Source Statement           (Hibal 5, Asmedit 3.3)  HLASM R4.0  2004/03/15 12.43
+___    ______ ____    _____ _____  ____ __ ______    ______ _________
0                                  34529              ¿þþþþþþþþþþþþþþþþþþþþþþþþþþþþþþþþþþþþþþþþþþþþþþþþþþþþþþþþþþþþþþþþþþþþþÜ
                                   34530              Ÿ                                                                     Ÿ
                                   34531              Ÿ  NUMRTN -- Number range processing routine.  This routine           Ÿ
                                   34532              Ÿ    simply stores the first line of the range in "NUMFIRST"          Ÿ
                                   34533              Ÿ    and the last line in "NUMLAST".  It is only used when            Ÿ
                                   34534              Ÿ    a non-explicit range is used.                                    Ÿ
                                   34535              Ÿ                                                                     Ÿ
                                   34536              Ÿ    On entry:                                                        Ÿ
                                   34537              Ÿ      R1,R0 - line text loc, len                                     Ÿ
                                   34538              Ÿ      CPLCNO - line-number                                           Ÿ
                                   34539              Ÿ                                                                     Ÿ
                                                      ¾þþþþþþþþþþþþþþþþþþþþþþþþþþþþþþþþþþþþþþþþþþþþþþþþþþþþþþþþþþþþþþþþþþþþþ»
000725C 50E0 D000/9008_      00000 34540              NUMRTN   PROC
 USING  *,R7
 007276 5860 BCA4            00CA4 34579                       L     R6,CPCWA
 USING  NUMWA,R6                   34580                       WITH  (NUMWA,R6)
                                   34593
 00727A 58F0 B73C            0073C 34594                       L     R15,CPLCNO          Line-number
                                   34595
 00727E D503 75C2 6000_07838 00000 34596                       IF    (NUMFIRST,EQ,-1),BEGIN  First time...
 007288 50F0 6000            00000 34614  1                      ST    R15,NUMFIRST        Save first lineno
 00728C                            34615                       END
                                   34619
 00728C 701A/47F0 7040 0728C 07286 34620                       ELSE  BEGIN
 007290 59F0 6018/4780_      00018 34631  1                      IF    (R15,NE,NUMWLNO),BEGIN  Disjoint range...
 007298 4110 7785/4100_      079FB 34648  2                        TSEG  'Can''t re-number a discontiguous range of lines.',,CR
 0072AA 4110 7582/4100_      077F8 34666  2                        ERROR 'No action taken.'
 0072B6                            34673  1                      END
 0072B6                            34677                       END
                                   34681
 0072B6 50F0 6004            00004 34682                       ST    R15,NUMLAST         Last lineno (so far)
                                   34683
 0072BA 5AF0 C4D0            004D0 34684                       A     R15,CVONE
 0072BE 58E0 75E6/0DEE       0785C 34685                       VCALL GETLNO              Next lineno
 0072C4 D203 6018 B73C 00018 0073C 34689                       MVC   NUMWLNO,CPLCNO      Save next expected lineno
 0072CA 18D8/9808 D004_            34690                       PEND
 DROP   NUMWA,R6
 DROP   *,R7
1EDIT     (EDIT2193) (12:43) (15MAR04) NUMBER Command                                                                       Page   89
0Current Usings:  (CP,R11) (CV,R12)
0Loc    Object Code    Addr1 Addr2  Stmt Lv Lineno    Source Statement           (Hibal 5, Asmedit 3.3)  HLASM R4.0  2004/03/15 12.43
+___    ______ ____    _____ _____  ____ __ ______    ______ _________
0                                  34716              ***
                                   34717              ***  Number options.
                                   34718              ***
 0072D8 C2E8404040404040_          34719              NUMPRT   SCKW  BY,NUMXBY
 007300 E3C9D4C5E2404040_          34734                       SCKW  TIMES,NUMXTIME,A
 007328 D7D3E4E240404040_          34749                       SCKW  PLUS,NUMXPLUS,A
 007350 E2E3C1D9E3404040_          34764                       SCKW  START,NUMXSTRT,A
 007378 C6D9D6D440404040_          34779                       SCKW  FROM,NUMXSTRT,A
 0073A0 4040404040404040_          34794                       SCKW  ,V(QUIETPSH),PUSH
 0073C8 4040404040404040_          34809                       SCKW  ,V(NOTVALID)
                                   34824              *
                                   34825              *
 0073F0 50E0 D000/9008_      00000 34826              NUMXBY   PROC
 USING  *,R7
 00740A 5860 BCA4            00CA4 34865                       L     R6,CPCWA
 USING  NUMWA,R6                   34866                       WITH  (NUMWA,R6)
                                   34879
 00740E 58E0 7456/0DEE       07860 34880                       ACALL NUMXLNO             Scan lineno value
 007414 1233/47B0 701C             34884                       IF    (R3,NEG),BEGIN
 00741A 4110 745A/4100_      07864 34898  1                      ERROR 'Negative DELTA value is not allowed.'
 007426                            34905                       END
                                   34909
 007426 5030 600C            0000C 34910                       ST    R3,NUMBY            Save DELTA value
 00742A 1BFF                       34911                       CLEAR R15
 00742C 18D8/9808 D004_            34915                       PEND
 DROP   NUMWA,R6
 DROP   *,R7
                                   34940              *
                                   34941              *
 00743A 50E0 D000/9008_      00000 34942              NUMXTIME PROC
 USING  *,R7
 007454 5860 BCA4            00CA4 34981                       L     R6,CPCWA
 USING  NUMWA,R6                   34982                       WITH  (NUMWA,R6)
                                   34995
 007458 58E0 740C/0DEE       07860 34996                       ACALL NUMXLNO             Scan lineno value
 00745E 1233/47B0 701C             35000                       IF    (R3,NEG),BEGIN
 007464 4110 7434/4100_      07888 35014  1                      ERROR 'Negative TIMES value is not allowed.'
 007470                            35021                       END
                                   35025
 007470 5030 6014            00014 35026                       ST    R3,NUMMVAL          Save TIMES value
 007474 1BFF                       35027                       CLEAR R15
 007476 18D8/9808 D004_            35031                       PEND
 DROP   NUMWA,R6
 DROP   *,R7
                                   35056              *
                                   35057              *
 007484 50E0 D000/9008_      00000 35058              NUMXPLUS PROC
 USING  *,R7
 00749E 5860 BCA4            00CA4 35097                       L     R6,CPCWA
 USING  NUMWA,R6                   35098                       WITH  (NUMWA,R6)
                                   35111
 0074A2 58E0 73C2/0DEE       07860 35112                       ACALL NUMXLNO             Scan lineno value
                                   35116
 0074A8 5030 6010            00010 35117                       ST    R3,NUMAVAL          Save (signed) PLUS value
1EDIT     (EDIT2193) (12:43) (15MAR04) NUMBER Command                                                                       Page   90
0Current Usings:  (NUMWA,R6) (*,R7) (CP,R11) (CV,R12)
0Loc    Object Code    Addr1 Addr2  Stmt Lv Lineno    Source Statement           (Hibal 5, Asmedit 3.3)  HLASM R4.0  2004/03/15 12.43
+___    ______ ____    _____ _____  ____ __ ______    ______ _________
00074AC 1BFF                       35118                       CLEAR R15
 0074AE 18D8/9808 D004_            35122                       PEND
 DROP   NUMWA,R6
 DROP   *,R7
                                   35147              *
                                   35148              *
 0074BC 50E0 D000/9008_      00000 35149              NUMXSTRT PROC
 USING  *,R7
 0074D6 5860 BCA4            00CA4 35188                       L     R6,CPCWA
 USING  NUMWA,R6                   35189                       WITH  (NUMWA,R6)
                                   35202
 0074DA 58E0 738A/0DEE       07860 35203                       ACALL NUMXLNO             Scan lineno value
 0074E0 1233/47B0 701C             35207                       IF    (R3,NEG),BEGIN
 0074E6 4110 73D6/4100_      078AC 35221  1                      ERROR 'Negative START value is not allowed.'
 0074F2                            35228                       END
                                   35232
 0074F2 5030 6008            00008 35233                       ST    R3,NUMSTART         Save START value
 0074F6 1BFF                       35234                       CLEAR R15
 0074F8 18D8/9808 D004_            35238                       PEND
 DROP   NUMWA,R6
 DROP   *,R7
1EDIT     (EDIT2193) (12:43) (15MAR04) NUMBER Command                                                                       Page   91
0Current Usings:  (CP,R11) (CV,R12)
0Loc    Object Code    Addr1 Addr2  Stmt Lv Lineno    Source Statement           (Hibal 5, Asmedit 3.3)  HLASM R4.0  2004/03/15 12.43
+___    ______ ____    _____ _____  ____ __ ______    ______ _________
0                                  35264              ¿þþþþþþþþþþþþþþþþþþþþþþþþþþþþþþþþþþþþþþþþþþþþþþþþþþþþþþþþþþþþþþþþþþþþþÜ
                                   35265              Ÿ                                                                     Ÿ
                                   35266              Ÿ  NUMXLNO -- Local routine to scan the next operand as a             Ÿ
                                   35267              Ÿ    possibly signed line-number value.                               Ÿ
                                   35268              Ÿ                                                                     Ÿ
                                   35269              Ÿ    On exit:                                                         Ÿ
                                   35270              Ÿ       R3 - line-number value                                        Ÿ
                                   35271              Ÿ                                                                     Ÿ
                                                      ¾þþþþþþþþþþþþþþþþþþþþþþþþþþþþþþþþþþþþþþþþþþþþþþþþþþþþþþþþþþþþþþþþþþþþþ»
0007506 50E0 D000/9008_      00000 35272              NUMXLNO  PROC
 USING  *,R7
 007520 5810 B08C/1B00_      0008C 35311                       SCAN  NUMXPRT             Scan for lineno
 007572 58E0 7300/0DEE       07820 35343                       SCANCHK
 007578 5038 0010            00010 35348                       PRETURN (R3)
 00757C 41F0 0004            00004 35350                       LA    R15,4
 007580 18D8/9808 D004_            35351                       PEND  ,
 DROP   *,R7
                                   35371
 00758E 50E0 D000/9008_      00000 35372              NUMXMISS PROC  ,
 USING  *,R7
 0075A8 47F0 C7F0            007F0 35411                       B     CVABSENT
 0075AC 18D8/9808 D004_            35412                       PEND  ,
 DROP   *,R7
                                   35432
 0075BA 50E0 D000/9008_      00000 35433              NUMXGOT  PROC  ,
 USING  *,R7
 0075D4 1830                       35472                       LR    R3,R0
 0075D6 5038 0010            00010 35473                       PRETURN (R3)
 0075DA 41F0 0004            00004 35475                       LA    R15,4
 0075DE 18D8/9808 D004_            35476                       PEND  ,
 DROP   *,R7
                                   35496
 0075EC 50E0 D000/9008_      00000 35497              NUMXMGOT PROC  ,
 USING  *,R7
 007606 1130                       35536                       LNR   R3,R0
 007608 5038 0010            00010 35537                       PRETURN (R3)
 00760C 41F0 0004            00004 35539                       LA    R15,4
 007610 18D8/9808 D004_            35540                       PEND  ,
 DROP   *,R7
                                   35560
 00761E 50E0 D000/9008_      00000 35561              NUMXNEG  PROC  ,
 USING  *,R7
 007638 5810 B08C/1B00_      0008C 35600                       SCAN  NEGXPRT
 00768A 58E0 71E8/0DEE       07820 35632                       SCANCHK
 007690 5038 0010            00010 35637                       PRETURN (R3)
 007694 41F0 0004            00004 35639                       LA    R15,4
 007698 18D8/9808 D004_            35640                       PEND  ,
 DROP   *,R7
                                   35660              *
                                   35661              *
                                   35662              *
 0076A8 4040404040404040_          35663              NUMXPRT  SCKW  ,NUMXMISS,NULL
 0076D0 6040404040404040_          35678                       SCKW  -,NUMXNEG
1EDIT     (EDIT2193) (12:43) (15MAR04) NUMBER Command                                                                       Page   92
0Current Usings:  (CP,R11) (CV,R12)
0Loc    Object Code    Addr1 Addr2  Stmt Lv Lineno    Source Statement           (Hibal 5, Asmedit 3.3)  HLASM R4.0  2004/03/15 12.43
+___    ______ ____    _____ _____  ____ __ ______    ______ _________
00076F8 4040404040404040_          35693                       SCKW  ,NUMXGOT,SYMLN
 007720 4040404040404040_          35708                       SCKW  ,V(NOTVALID)
                                   35723
 007748 4040404040404040_          35724              NEGXPRT  SCKW  ,NUMXMISS,NULL
 007770 4040404040404040_          35739                       SCKW  ,NUMXMGOT,SYMLN
 007798 4040404040404040_          35754                       SCKW  ,V(NOTVALID)
                                   35769
                                   35770                       QLTORG
                                   35828
                                   35829                       VLTORG
 007A50                07A50 07A50 35838                       END   .

1EDIT     (EDIT2193) (12:43) (15MAR04) Relocation Dictionary                                                                Page   93
-   Pos.Id   Rel.Id   Flags    Address                                                       HLASM R4.0  2004/03/15 12.43
0  00000001 00000001    0C    00000128
   00000001 00000001    08    0000027F
   00000001 00000001    08    00000301
   00000001 00000001    0C    00000378
   00000001 00000001    0C    000003A0
   00000001 00000001    0C    000003C8
   00000001 00000001    0C    000004C8
   00000001 00000001    0C    000004E8
   00000001 00000001    0C    00000718
   00000001 00000001    0C    00000740
   00000001 00000001    0C    00000768
   00000001 00000001    0C    00000790
   00000001 00000001    0C    000007B8
   00000001 00000001    0C    000007E0
   00000001 00000001    0C    00000808
   00000001 00000001    0C    00000830
   00000001 00000001    0C    00000858
   00000001 00000001    0C    00000880
   00000001 00000001    0C    000008A8
   00000001 00000001    0C    000008D0
   00000001 00000001    0C    000008F8
   00000001 00000001    0C    00000920
   00000001 00000001    0C    00000E34
   00000001 00000001    0C    00000E5C
   00000001 00000001    0C    00000E84
   00000001 00000001    0C    00000EAC
   00000001 00000001    0C    00000ED4
   00000001 00000001    0C    00000EFC
   00000001 00000001    0C    00000F24
   00000001 00000001    0C    00000F4C
   00000001 00000001    0C    00000F74
   00000001 00000001    0C    00001218
   00000001 00000001    0C    00001240
   00000001 00000001    0C    000012C0
   00000001 00000001    0C    00001314
   00000001 00000001    0C    00001328
   00000001 00000001    0C    00001660
   00000001 00000001    0C    00001688
   00000001 00000001    0C    000016B0
   00000001 00000001    0C    000016D8
   00000001 00000001    0C    00001700
   00000001 00000001    0C    00001728
   00000001 00000001    0C    00001750
   00000001 00000001    0C    00001778
   00000001 00000001    0C    000017A0
   00000001 00000001    0C    000017C8
   00000001 00000001    0C    000017F0
   00000001 00000001    08    00001A97
   00000001 00000001    0C    00001B08
   00000001 00000001    0C    00001B9C
   00000001 00000001    0C    00001F64
   00000001 00000001    0C    00001F8C
   00000001 00000001    0C    00001FB4
   00000001 00000001    0C    00001FDC
   00000001 00000001    0C    00002004
1EDIT     (EDIT2193) (12:43) (15MAR04) Relocation Dictionary                                                                Page   94
   00000001 00000001    0C    0000202C
   00000001 00000001    0C    00002054
   00000001 00000001    0C    0000207C
   00000001 00000001    0C    000020A4
   00000001 00000001    0C    000020CC
   00000001 00000001    0C    000020F4
   00000001 00000001    0C    0000211C
   00000001 00000001    0C    00002144
   00000001 00000001    0C    0000216C
   00000001 00000001    0C    00002194
   00000001 00000001    0C    000021BC
   00000001 00000001    0C    000021E4
   00000001 00000001    0C    0000220C
   00000001 00000001    0C    00002234
   00000001 00000001    0C    0000225C
   00000001 00000001    0C    00002284
   00000001 00000001    0C    000022AC
   00000001 00000001    0C    00002780
   00000001 00000001    0C    00002794
   00000001 00000001    0C    000027A0
   00000001 00000001    0C    000027B4
   00000001 00000001    0C    00002B28
   00000001 00000001    0C    00002B2C
   00000001 00000001    0C    00002B30
   00000001 00000001    0C    00003594
   00000001 00000001    0C    000035BC
   00000001 00000001    0C    0000360C
   00000001 00000001    0C    00003634
   00000001 00000001    0C    000036D4
   00000001 00000001    0C    000036FC
   00000001 00000001    0C    00003774
   00000001 00000001    0C    0000379C
   00000001 00000001    0C    000039EC
   00000001 00000001    0C    000039FC
   00000001 00000001    0C    00003A20
   00000001 00000001    0C    00003A28
   00000001 00000001    0C    00003A58
   00000001 00000001    0C    00003EC8
   00000001 00000001    0C    00003EF0
   00000001 00000001    0C    00003F90
   00000001 00000001    0C    00004184
   00000001 00000001    0C    00004190
   00000001 00000001    0C    000041A0
   00000001 00000001    0C    000041B4
   00000001 00000001    0C    00004424
   00000001 00000001    0C    0000444C
   00000001 00000001    0C    00004474
   00000001 00000001    0C    0000449C
   00000001 00000001    0C    000044C4
   00000001 00000001    0C    000044EC
   00000001 00000001    0C    00004564
   00000001 00000001    0C    0000458C
   00000001 00000001    0C    000045B4
   00000001 00000001    0C    000049B0
   00000001 00000001    0C    000049C8
   00000001 00000001    0C    000049D4
   00000001 00000001    0C    000049E0
   00000001 00000001    0C    00004F78
   00000001 00000001    0C    00004F90
1EDIT     (EDIT2193) (12:43) (15MAR04) Relocation Dictionary                                                                Page   95
   00000001 00000001    0C    00004F9C
   00000001 00000001    0C    00004FA4
   00000001 00000001    0C    00004FC0
   00000001 00000001    0C    00005180
   00000001 00000001    0C    000051A8
   00000001 00000001    0C    000051D0
   00000001 00000001    0C    000051F8
   00000001 00000001    0C    00005220
   00000001 00000001    0C    00005248
   00000001 00000001    0C    00005270
   00000001 00000001    0C    00005298
   00000001 00000001    0C    000052C0
   00000001 00000001    0C    000052E8
   00000001 00000001    0C    00005360
   00000001 00000001    0C    00005388
   00000001 00000001    0C    000053D8
   00000001 00000001    0C    00005400
   00000001 00000001    0C    00005450
   00000001 00000001    0C    00005478
   00000001 00000001    0C    000054A0
   00000001 00000001    0C    000054F0
   00000001 00000001    0C    00005518
   00000001 00000001    0C    00005AD8
   00000001 00000001    0C    00005AE8
   00000001 00000001    0C    00005AF0
   00000001 00000001    0C    00005AF4
   00000001 00000001    0C    00005AF8
   00000001 00000001    0C    00005D94
   00000001 00000001    0C    00005DBC
   00000001 00000001    0C    00005F9C
   00000001 00000001    0C    00005FA4
   00000001 00000001    0C    00006338
   00000001 00000001    0C    00006360
   00000001 00000001    0C    00006744
   00000001 00000001    0C    0000676C
   00000001 00000001    0C    00006794
   00000001 00000001    0C    000067BC
   00000001 00000001    0C    000067E4
   00000001 00000001    0C    0000680C
   00000001 00000001    0C    00006834
   00000001 00000001    0C    0000685C
   00000001 00000001    0C    00006884
   00000001 00000001    0C    00006D50
   00000001 00000001    0C    00006D8C
   00000001 00000001    0C    00006D98
   00000001 00000001    0C    00006DC0
   00000001 00000001    0C    00006DC4
   00000001 00000001    0C    00006DD4
   00000001 00000001    0C    000072FC
   00000001 00000001    0C    00007324
   00000001 00000001    0C    0000734C
   00000001 00000001    0C    00007374
   00000001 00000001    0C    0000739C
   00000001 00000001    0C    000076CC
   00000001 00000001    0C    000076F4
   00000001 00000001    0C    0000771C
   00000001 00000001    0C    0000776C
   00000001 00000001    0C    00007794
   00000001 00000001    0C    00007818
1EDIT     (EDIT2193) (12:43) (15MAR04) Relocation Dictionary                                                                Page   96
   00000001 00000001    0C    00007830
   00000001 00000001    0C    00007860
   00000001 00000001    0C    000078D0
   00000001 00000001    0C    000078D4
   00000001 00000002    1C    00000124
   00000001 00000002    1C    00000714
   00000001 00000002    1C    00001774
   00000001 00000002    1C    00004588
   00000001 00000003    1C    00000150
   00000001 00000003    1C    000003F0
   00000001 00000003    1C    00003F68
   00000001 00000003    1C    00004514
   00000001 00000004    1C    00000174
   00000001 00000004    1C    00000414
   00000001 00000004    1C    00000944
   00000001 00000004    1C    00000F98
   00000001 00000004    1C    00001264
   00000001 00000004    1C    000017EC
   00000001 00000004    1C    00002320
   00000001 00000004    1C    00002EC0
   00000001 00000004    1C    00003680
   00000001 00000004    1C    00003748
   00000001 00000004    1C    000037C0
   00000001 00000004    1C    00003F8C
   00000001 00000004    1C    00004538
   00000001 00000004    1C    000045D8
   00000001 00000004    1C    00005334
   00000001 00000004    1C    000053AC
   00000001 00000004    1C    00005424
   00000001 00000004    1C    000054C4
   00000001 00000004    1C    0000553C
   00000001 00000004    1C    00005DE0
   00000001 00000004    1C    00006384
   00000001 00000004    1C    000068F8
   00000001 00000004    1C    000073E8
   00000001 00000004    1C    00007740
   00000001 00000004    1C    000077B8
   00000001 00000005    1C    00000178
   00000001 00000005    1C    00000418
   00000001 00000005    1C    000004E4
   00000001 00000005    1C    00000948
   00000001 00000005    1C    00000F9C
   00000001 00000005    1C    00001268
   00000001 00000005    1C    000012E4
   00000001 00000005    1C    00002324
   00000001 00000005    1C    00002EC4
   00000001 00000005    1C    00003684
   00000001 00000005    1C    0000374C
   00000001 00000005    1C    000037C4
   00000001 00000005    1C    000041D8
   00000001 00000005    1C    0000453C
   00000001 00000005    1C    000045DC
   00000001 00000005    1C    000049DC
   00000001 00000005    1C    00005338
   00000001 00000005    1C    000053B0
   00000001 00000005    1C    00005428
   00000001 00000005    1C    000054C8
   00000001 00000005    1C    00005540
   00000001 00000005    1C    00005AEC
1EDIT     (EDIT2193) (12:43) (15MAR04) Relocation Dictionary                                                                Page   97
   00000001 00000005    1C    00005DE4
   00000001 00000005    1C    00005F8C
   00000001 00000005    1C    00006388
   00000001 00000005    1C    000068FC
   00000001 00000005    1C    00006DE0
   00000001 00000005    1C    000073EC
   00000001 00000005    1C    00007744
   00000001 00000005    1C    000077BC
   00000001 00000006    1C    00000374
   00000001 00000006    1C    0000039C
   00000001 00000006    1C    000003C4
   00000001 00000006    1C    0000078C
   00000001 00000006    1C    000007B4
   00000001 00000006    1C    000007DC
   00000001 00000006    1C    00000804
   00000001 00000006    1C    0000082C
   00000001 00000006    1C    00000854
   00000001 00000006    1C    0000087C
   00000001 00000006    1C    000008A4
   00000001 00000006    1C    000008CC
   00000001 00000006    1C    000008F4
   00000001 00000006    1C    0000091C
   00000001 00000006    1C    00000E58
   00000001 00000006    1C    00000E80
   00000001 00000006    1C    00000EA8
   00000001 00000006    1C    00000ED0
   00000001 00000006    1C    00000EF8
   00000001 00000006    1C    00000F20
   00000001 00000006    1C    00000F48
   00000001 00000006    1C    00001214
   00000001 00000006    1C    0000123C
   00000001 00000006    1C    00001684
   00000001 00000006    1C    000016AC
   00000001 00000006    1C    000016D4
   00000001 00000006    1C    000016FC
   00000001 00000006    1C    00001724
   00000001 00000006    1C    0000174C
   00000001 00000006    1C    0000179C
   00000001 00000006    1C    000017C4
   00000001 00000006    1C    00001E98
   00000001 00000006    1C    00001F60
   00000001 00000006    1C    00001F88
   00000001 00000006    1C    00001FB0
   00000001 00000006    1C    00001FD8
   00000001 00000006    1C    00002000
   00000001 00000006    1C    00002028
   00000001 00000006    1C    00002050
   00000001 00000006    1C    00002078
   00000001 00000006    1C    000020A0
   00000001 00000006    1C    000020C8
   00000001 00000006    1C    000020F0
   00000001 00000006    1C    00002118
   00000001 00000006    1C    00002140
   00000001 00000006    1C    00002168
   00000001 00000006    1C    00002190
   00000001 00000006    1C    000021B8
   00000001 00000006    1C    000021E0
   00000001 00000006    1C    00002208
   00000001 00000006    1C    00002280
1EDIT     (EDIT2193) (12:43) (15MAR04) Relocation Dictionary                                                                Page   98
   00000001 00000006    1C    000022A8
   00000001 00000006    1C    000022D0
   00000001 00000006    1C    000022F8
   00000001 00000006    1C    00003608
   00000001 00000006    1C    00003630
   00000001 00000006    1C    000036D0
   00000001 00000006    1C    000036F8
   00000001 00000006    1C    00003DFC
   00000001 00000006    1C    00003E4C
   00000001 00000006    1C    00003E74
   00000001 00000006    1C    00003E9C
   00000001 00000006    1C    00004420
   00000001 00000006    1C    00004448
   00000001 00000006    1C    00004470
   00000001 00000006    1C    00004498
   00000001 00000006    1C    000044C0
   00000001 00000006    1C    000044E8
   00000001 00000006    1C    000045B0
   00000001 00000006    1C    0000517C
   00000001 00000006    1C    000051A4
   00000001 00000006    1C    000051CC
   00000001 00000006    1C    000051F4
   00000001 00000006    1C    0000521C
   00000001 00000006    1C    00005244
   00000001 00000006    1C    0000526C
   00000001 00000006    1C    00005294
   00000001 00000006    1C    000052BC
   00000001 00000006    1C    0000549C
   00000001 00000006    1C    00005DB8
   00000001 00000006    1C    00006294
   00000001 00000006    1C    0000630C
   00000001 00000006    1C    000066C8
   00000001 00000006    1C    00006768
   00000001 00000006    1C    00006790
   00000001 00000006    1C    000067B8
   00000001 00000006    1C    000067E0
   00000001 00000006    1C    00006830
   00000001 00000006    1C    000068A8
   00000001 00000006    1C    000068D0
   00000001 00000006    1C    000072F8
   00000001 00000006    1C    00007320
   00000001 00000006    1C    00007348
   00000001 00000006    1C    00007370
   00000001 00000006    1C    00007398
   00000001 00000006    1C    000076F0
   00000001 00000007    1C    000004CC
   00000001 00000007    1C    000012C4
   00000001 00000007    1C    00001B0C
   00000001 00000007    1C    00002798
   00000001 00000007    1C    000039F0
   00000001 00000007    1C    00004188
   00000001 00000007    1C    000049B4
   00000001 00000007    1C    00004F94
   00000001 00000007    1C    00005ADC
   00000001 00000007    1C    00005F78
   00000001 00000007    1C    00006D54
   00000001 00000007    1C    0000781C
   00000001 00000008    1C    000004D0
   00000001 00000008    1C    000012C8
1EDIT     (EDIT2193) (12:43) (15MAR04) Relocation Dictionary                                                                Page   99
   00000001 00000008    1C    00001B10
   00000001 00000008    1C    0000279C
   00000001 00000008    1C    000039F4
   00000001 00000008    1C    0000418C
   00000001 00000008    1C    000049B8
   00000001 00000008    1C    00004F98
   00000001 00000008    1C    00005AE0
   00000001 00000008    1C    00005F7C
   00000001 00000008    1C    00006D58
   00000001 00000008    1C    00007820
   00000001 00000009    1C    000004D4
   00000001 00000009    1C    000012D4
   00000001 00000009    1C    00001B14
   00000001 0000000A    1C    000004D8
   00000001 0000000B    1C    000004DC
   00000001 0000000B    1C    000012D0
   00000001 0000000B    1C    00001B18
   00000001 0000000B    1C    000027DC
   00000001 0000000B    1C    00002B10
   00000001 0000000B    1C    00002C5C
   00000001 0000000B    1C    00002D74
   00000001 0000000B    1C    00003A48
   00000001 0000000B    1C    000041C4
   00000001 0000000B    1C    000049EC
   00000001 0000000B    1C    00005000
   00000001 0000000B    1C    00005AD0
   00000001 0000000B    1C    00005F80
   00000001 0000000B    1C    00006DCC
   00000001 0000000B    1C    00007828
   00000001 0000000C    1C    000004E0
   00000001 0000000C    1C    000012D8
   00000001 0000000C    1C    00001B1C
   00000001 0000000C    1C    000041C0
   00000001 0000000C    1C    000049D8
   00000001 0000000C    1C    00005F94
   00000001 0000000C    1C    00006DD0
   00000001 0000000C    1C    00007858
   00000001 0000000D    1C    000004EC
   00000001 0000000D    1C    00001B34
   00000001 0000000E    1C    000004F4
   00000001 0000000E    1C    00001B30
   00000001 0000000F    1C    0000073C
   00000001 0000000F    1C    00000764
   00000001 0000000F    1C    00000E30
   00000001 0000000F    1C    00002258
   00000001 0000000F    1C    00003EC4
   00000001 0000000F    1C    00003EEC
   00000001 0000000F    1C    00005D90
   00000001 0000000F    1C    00006334
   00000001 0000000F    1C    0000635C
   00000001 0000000F    1C    00006808
   00000001 00000010    1C    00000F70
   00000001 00000010    1C    00002230
   00000001 00000010    1C    000052E4
   00000001 00000010    1C    00006740
   00000001 00000010    1C    00006858
   00000001 00000010    1C    00006880
   00000001 00000011    1C    000011F0
   00000001 00000012    1C    000012CC
1EDIT     (EDIT2193) (12:43) (15MAR04) Relocation Dictionary                                                                Page  100
   00000001 00000012    1C    00001B24
   00000001 00000012    1C    000027C4
   00000001 00000012    1C    00002B38
   00000001 00000012    1C    00002C64
   00000001 00000012    1C    00002D7C
   00000001 00000012    1C    00003A3C
   00000001 00000012    1C    00005F84
   00000001 00000012    1C    00007824
   00000001 00000013    1C    000012E0
   00000001 00000014    1C    000012E8
   00000001 00000015    1C    000012EC
   00000001 00000015    1C    000041D0
   00000001 00000016    1C    000012F0
   00000001 00000016    1C    000027D0
   00000001 00000017    1C    000012F8
   00000001 00000017    1C    000027C8
   00000001 00000017    1C    00003A0C
   00000001 00000017    1C    000049F0
   00000001 00000017    1C    00004FB4
   00000001 00000018    1C    000012FC
   00000001 00000019    1C    00001308
   00000001 00000019    1C    00003A18
   00000001 00000019    1C    00006D40
   00000001 0000001A    1C    00001310
   00000001 0000001B    1C    00001318
   00000001 0000001C    1C    0000131C
   00000001 0000001D    1C    00001320
   00000001 0000001D    1C    00001B74
   00000001 0000001E    1C    00001324
   00000001 0000001F    1C    0000132C
   00000001 00000020    1C    0000165C
   00000001 00000020    1C    00003590
   00000001 00000020    1C    00003770
   00000001 00000020    1C    00004560
   00000001 00000020    1C    0000535C
   00000001 00000020    1C    000053D4
   00000001 00000020    1C    0000544C
   00000001 00000020    1C    000054EC
   00000001 00000020    1C    000076C8
   00000001 00000020    1C    00007768
   00000001 00000021    1C    00001B20
   00000001 00000022    1C    00001B28
   00000001 00000023    1C    00001B2C
   00000001 00000023    1C    00005F90
   00000001 00000024    1C    00001B54
   00000001 00000025    1C    00001B5C
   00000001 00000026    1C    00001BA0
   00000001 00000027    1C    00001E9C
   00000001 00000027    1C    00003E00
   00000001 00000027    1C    00006298
   00000001 00000027    1C    000066CC
   00000001 00000028    1C    00001EC4
   00000001 00000028    1C    00001F14
   00000001 00000028    1C    000035E4
   00000001 00000028    1C    000036AC
   00000001 00000028    1C    00003F18
   00000001 00000028    1C    00005158
   00000001 00000028    1C    000062E8
   00000001 00000028    1C    0000671C
1EDIT     (EDIT2193) (12:43) (15MAR04) Relocation Dictionary                                                                Page  101
   00000001 00000029    1C    00001EEC
   00000001 00000029    1C    00003E28
   00000001 00000029    1C    00005130
   00000001 00000029    1C    000062C0
   00000001 00000029    1C    000066F4
   00000001 0000002A    1C    00001F3C
   00000001 0000002A    1C    00002E74
   00000001 0000002A    1C    0000365C
   00000001 0000002A    1C    00003724
   00000001 0000002B    1C    000022D4
   00000001 0000002B    1C    000022FC
   00000001 0000002B    1C    00003E50
   00000001 0000002B    1C    00003E78
   00000001 0000002B    1C    00003EA0
   00000001 0000002B    1C    00006310
   00000001 0000002B    1C    000068AC
   00000001 0000002B    1C    000068D4
   00000001 0000002C    1C    00002788
   00000001 0000002C    1C    00004178
   00000001 0000002C    1C    00004F7C
   00000001 0000002C    1C    00006D44
   00000001 0000002D    1C    0000278C
   00000001 0000002D    1C    000039E8
   00000001 0000002D    1C    0000417C
   00000001 0000002D    1C    000049AC
   00000001 0000002D    1C    00004F80
   00000001 0000002D    1C    00005F98
   00000001 0000002D    1C    00006D48
   00000001 0000002D    1C    00007814
   00000001 0000002E    1C    00002790
   00000001 0000002E    1C    00004180
   00000001 0000002E    1C    00004F8C
   00000001 0000002E    1C    00006D4C
   00000001 0000002F    1C    000027A4
   00000001 0000002F    1C    00004194
   00000001 0000002F    1C    00004FA8
   00000001 0000002F    1C    00006D80
   00000001 00000030    1C    000027A8
   00000001 00000030    1C    00004198
   00000001 00000030    1C    00004FAC
   00000001 00000030    1C    00006D84
   00000001 00000031    1C    000027AC
   00000001 00000032    1C    000027B8
   00000001 00000032    1C    00003A00
   00000001 00000032    1C    000041A4
   00000001 00000032    1C    000049CC
   00000001 00000032    1C    00004FC4
   00000001 00000032    1C    00005FA8
   00000001 00000032    1C    00006D90
   00000001 00000032    1C    00007834
   00000001 00000033    1C    000027D4
   00000001 00000034    1C    000027D8
   00000001 00000035    1C    00002B08
   00000001 00000035    1C    00003A04
   00000001 00000036    1C    00002B0C
   00000001 00000037    1C    00002B34
   00000001 00000037    1C    00003A08
   00000001 00000037    1C    00004FE8
   00000001 00000038    1C    00002B3C
1EDIT     (EDIT2193) (12:43) (15MAR04) Relocation Dictionary                                                                Page  102
   00000001 00000039    1C    00002B40
   00000001 0000003A    1C    00002B48
   00000001 0000003A    1C    00002C60
   00000001 0000003A    1C    00002D70
   00000001 0000003A    1C    00003A44
   00000001 0000003A    1C    000049E4
   00000001 0000003A    1C    00005004
   00000001 0000003A    1C    00005AD4
   00000001 0000003A    1C    00006DFC
   00000001 0000003A    1C    00007848
   00000001 0000003B    1C    00002B4C
   00000001 0000003C    1C    00002C68
   00000001 0000003D    1C    00002D78
   00000001 0000003E    1C    00002E4C
   00000001 0000003F    1C    00002E9C
   00000001 00000040    1C    000035B8
   00000001 00000040    1C    00003798
   00000001 00000040    1C    00005384
   00000001 00000040    1C    000053FC
   00000001 00000040    1C    00005474
   00000001 00000040    1C    00005514
   00000001 00000040    1C    00007718
   00000001 00000040    1C    00007790
   00000001 00000041    1C    00003A10
   00000001 00000041    1C    00005FB0
   00000001 00000042    1C    00003A1C
   00000001 00000043    1C    00003A30
   00000001 00000043    1C    00004FA0
   00000001 00000044    1C    00003A34
   00000001 00000045    1C    00003A38
   00000001 00000045    1C    00004FEC
   00000001 00000045    1C    00005FAC
   00000001 00000046    1C    00003A40
   00000001 00000046    1C    000041CC
   00000001 00000046    1C    000049BC
   00000001 00000047    1C    00003A4C
   00000001 00000048    1C    00003F40
   00000001 00000048    1C    00005310
   00000001 00000048    1C    000073C4
   00000001 00000049    1C    000041BC
   00000001 0000004A    1C    000041C8
   00000001 0000004A    1C    000049E8
   00000001 0000004A    1C    00006DE8
   00000001 0000004B    1C    000041D4
   00000001 0000004C    1C    000041DC
   00000001 0000004D    1C    00004F84
   00000001 0000004E    1C    00004FB0
   00000001 0000004F    1C    00004FD0
   00000001 0000004F    1C    00006D94
   00000001 00000050    1C    00004FD4
   00000001 00000051    1C    00004FD8
   00000001 00000052    1C    00004FDC
   00000001 00000053    1C    00004FE0
   00000001 00000054    1C    00004FE4
   00000001 00000055    1C    00004FF0
   00000001 00000056    1C    00004FF4
   00000001 00000056    1C    0000785C
   00000001 00000057    1C    00004FFC
   00000001 00000057    1C    00007840
1EDIT     (EDIT2193) (12:43) (15MAR04) Relocation Dictionary                                                                Page  103
   00000001 00000058    1C    00005AE4
   00000001 00000059    1C    00005F88
   00000001 0000005A    1C    00006DA0
   00000001 0000005B    1C    00006DB0
   00000001 0000005C    1C    00006DB4
   00000001 0000005D    1C    00006DC8
   00000001 0000005E    1C    00006DD8
   00000001 0000005F    1C    00006DEC
   00000001 00000060    1C    00006DF0
   00000001 00000061    1C    00006DF8
   00000001 00000062    1C    0000783C

1EDIT     (EDIT2193) (12:43) (15MAR04) Ordinary Symbol and Literal Cross Reference                                          Page  104
-Symbol   Length   Value     Id    R Type   Defn References                                  HLASM R4.0  2004/03/15 12.43
0$$$@R0        1 00000000 FFFFFFFE     J     705  1007
 $$$@R10       1 00000000 FFFFFFF4     J     835  1071
 $$$@R11       1 00000000 FFFFFFF3     J     848  1084
 $$$@R12       1 00000000 FFFFFFF2     J     861  1097
 $$$@R13       1 00000000 FFFFFFF1     J     874  1110
 $$$@R14       1 00000000 FFFFFFF0     J     887  1123
 $$$@R7        1 00000000 FFFFFFF7     J     796  1020
 $$$@R8        1 00000000 FFFFFFF6     J     809  1033   1045
 $$$@R9        1 00000000 FFFFFFF5     J     822  1058
 $$$C1WYLEDIT
               1 00000501 00000001     J    8086  8088   8143   9935
 $$$C10WYLEDIT
               1 00004A2B 00000001     J   25060 25062  25147  26060  26146
 $$$C11WYLEDIT
               1 000050B2 00000001     J   26727 26729
 $$$C12WYLEDIT
               1 00005B6D 00000001     J   28776 28778  28819
 $$$C13WYLEDIT
               1 00006067 00000001     J   29904 29906  29946  30588  30717  31037  32490  32540  32703  32753  33020
 $$$C14WYLEDIT
               1 00006ED0 00000001     J   33255 33257  33286
 $$$C15WYLEDIT
               1 00007A2A 00000001     J   35823 35825
 $$$C16WYLEDIT
               1 00007A50 00000001     J   35841 35843
 $$$C2WYLEDIT
               1 00001413 00000001     J   11509 11511  11573  13264
 $$$C3WYLEDIT
               1 00001C7A 00000001     J   13572 13574  13659
 $$$C4WYLEDIT
               1 00002828 00000001     J   16409 16411  16450
 $$$C5WYLEDIT
               1 00002B5B 00000001     J   17750 17752
 $$$C6WYLEDIT
               1 00002CD7 00000001     J   18112 18114
 $$$C7WYLEDIT
               1 00002D82 00000001     J   18374 18376  18608  18761  18998  19624  19745  19804
 $$$C8WYLEDIT
               1 00003B56 00000001     J   21266 21268  21300  22531  22779  22897  22914  22959
 $$$C9WYLEDIT
               1 0000421E 00000001     J   23065 23067  23119
 $$$D10WYLEDIT
               1 000050AC 00000001     J   25061 26135
 $$$D13WYLEDIT
               1 00006EA6 00000001     J   29905 30577  30706  32479  32529  32692  32742  33009
 $$$D7WYLEDIT
               1 00003B3D 00000001     J   18375 18750  19613  19734  19793
 $$$D8WYLEDIT
               1 00004206 00000001     J   21267 22520  22886  22903  22948
 $$$RAINFO
               1 00000000 FFFFFFE8     J    6622  6738   6738
 $$$RCNTWA
               1 00000000 FFFFFFDD     J   21274 21299  21299
 $$$RCOMPWA
               1 00000000 FFFFFFDE     J   18965 18997  18997
1EDIT     (EDIT2193) (12:43) (15MAR04) Ordinary Symbol and Literal Cross Reference                                          Page  105
 $$$RCOPYAWA
               1 00000000 FFFFFFD8     J   28793 28818  28818
 $$$RCP        1 00000000 FFFFFFEC     J    2485  4745   6219   6219
 $$$RCV        1 00000000 FFFFFFEE     J    1210  2395   2395
 $$$RDEV       1 00000000 FFFFFFEB     J    4699  4744   4744
 $$$REVALWA
               1 00000000 FFFFFFD7     J   29916 29945  29945
 $$$RJCB       1 00000000 FFFFFFE9     J    6337  6611   6611
 $$$RKNTWA
               1 00000000 FFFFFFDC     J   22765 22778  22778
 $$$RLISTWA
               1 00000000 FFFFFFE1     J   13586 13658  13658
 $$$RLRTNWA
               1 00000000 FFFFFFE0     J   16418 16449  16449
 $$$RMVWA      1 00000000 FFFFFFDA     J   25075 25146  25146
 $$$RNSCNCB
               1 00000000 FFFFFFED     J    2406  2479   2479
 $$$RNUMWA
               1 00000000 FFFFFFD5     J   33263 33285  33285
 $$$ROPENWA
               1 00000000 FFFFFFE4     J    9917  9934   9934
 $$$RPICKWA
               1 00000000 FFFFFFE3     J   11517 11572  11572
 $$$RRLDWA
               1 00000000 FFFFFFD6     J   30982 31036  31036
 $$$RSACTSWA
               1 00000000 FFFFFFE6     J    7173  7203   7203
 $$$RSACTWA
               1 00000000 FFFFFFE7     J    6744  6757   6757
 $$$RSETACTWA
               1 00000000 FFFFFFE5     J    8094  8142   8142
 $$$RSIZWA
               1 00000000 FFFFFFDB     J   23073 23118  23118
 $$$RSQRTWA
               1 00000000 FFFFFFDF     J   18594 18607  18607
 $$$RTTYPE
               1 00000000 FFFFFFEA     J    6230  6331   6331
 $$$RUCLRWA
               1 00000000 FFFFFFE2     J   13250 13263  13263
 $$$RWORKWA
               1 00000000 FFFFFFD9     J   26046 26059  26059
 $$$SEGCB0
               4 00000050 FFFFFFEC     F    2516  2602   2602
 $$$V01       33 00007A2A 00000001     C   35835  7410   7625  13424
 $$$100B       1 00000966 00000001     X    9056  9063U
 $$$101        1 00000050 00000001 A   U    9090  9087   9089
 $$$103B       1 00000992 00000001     X    9117  9124U
 $$$104F       2 000009A8 00000001     H    9171  9159B
 $$$104T       2 000009A2 00000001     H    9162  9148B
 $$$106        1 00000050 00000001 A   U    9220  9217   9219
 $$$108B       1 000009E8 00000001     X    9247  9254U
 $$$109        1 00000050 00000001 A   U    9291  9288   9290
 $$$111B       1 00000A1C 00000001     X    9318  9325U
 $$$112        1 00000050 00000001 A   U    9362  9359   9361
 $$$114B       1 00000A50 00000001     X    9389  9396U
 $$$115F       2 00000A66 00000001     H    9443  9431B
 $$$115T       2 00000A60 00000001     H    9434  9420B
 $$$117        1 00000050 00000001 A   U    9492  9489   9491
 $$$119B       1 00000AA6 00000001     X    9519  9526U
1EDIT     (EDIT2193) (12:43) (15MAR04) Ordinary Symbol and Literal Cross Reference                                          Page  106
 $$$120        1 00000050 00000001 A   U    9587  9584   9586
 $$$122B       1 00000AEC 00000001     X    9614  9621U
 $$$123        1 00000050 00000001 A   U    9666  9663   9665
 $$$125B       1 00000B20 00000001     X    9693  9700U
 $$$126        1 00000050 00000001 A   U    9745  9742   9744
 $$$128B       1 00000B54 00000001     X    9772  9779U
 $$$129        1 00000050 00000001 A   U    9824  9821   9823
 $$$131B       1 00000B88 00000001     X    9851  9858U
 $$$132        1 00000050 00000001 A   U    9903  9900   9902
 $$$134B       1 00000BBC 00000001     X    9968  9975U
 $$$135F       2 00000C74 00000001     H   10156 10064B 10083B
 $$$137F       2 00000C74 00000001     H   10152 10115B
 $$$137T       2 00000C4A 00000001     H   10118 10104B
 $$$139F       2 00000D56 00000001     H   10410 10214B 10249B
 $$$140F       2 00000CEC 00000001     H   10252 10234B
 $$$142F       2 00000D1C 00000001     H   10330 10268B
 $$$143F       2 00000D06 00000001     H   10295 10286B
 $$$144F       2 00000D56 00000001     H   10406 10367B
 $$$145F       2 00000DC8 00000001     H   10489 10479B
 $$$146F       2 00000DD8 00000001     H   10511 10501B
 $$$147F       2 00000DE8 00000001     H   10533 10523B
 $$$148F       2 00000DF8 00000001     H   10559 10546B
 $$$149        1 000000B4 00000001 A   U   10589 10586  10588
 $$$151B       1 00000FBA 00000001     X   10771 10778U
 $$$152        1 00000050 00000001 A   U   10805 10802  10804
 $$$154B       1 00000FE8 00000001     X   10832 10839U
 $$$155        1 00000050 00000001 A   U   10866 10863  10865
 $$$157B       1 00001016 00000001     X   10893 10900U
 $$$158        1 00000050 00000001 A   U   10955 10952  10954
 $$$160B       1 00001058 00000001     X   10982 10989U
 $$$161        1 00000050 00000001 A   U   11016 11013  11015
 $$$163B       1 00001084 00000001     X   11056 11063U
 $$$164F       2 00001132 00000001     H   11218 11126B 11145B
 $$$166F       2 00001132 00000001     H   11214 11177B
 $$$166T       2 00001108 00000001     H   11180 11166B
 $$$168F       2 000011AC 00000001     H   11290 11275B
 $$$169        1 00000050 00000001 A   U   11320 11317  11319
 $$$171B       1 00001286 00000001     X   11413 11420U
 $$$172        1 00000050 00000001 A   U   11454 11451  11453
 $$$174B       1 0000142E 00000001     X   11606 11613U
 $$$175F       2 00001570 00000001     H   12009 11700B
 $$$176F       2 000014E0 00000001     H   11784 11729B
 $$$177F       2 00001562 00000001     H   11990 11811B 11828B
 $$$180F       2 000015A0 00000001     H   12064 12023B
 $$$181F       2 00001596 00000001     H   12055 12040B
 $$$182F       2 000015D0 00000001     H   12119 12078B
 $$$183F       2 000015C6 00000001     H   12110 12095B
 $$$184F       2 000015F2 00000001     H   12171 12133B
 $$$185F       2 000015EE 00000001     H   12166 12153B
 $$$186F       2 00001616 00000001     H   12220 12185B
 $$$187F       2 00001612 00000001     H   12215 12202B
 $$$188        1 00000200 00000001 A   U   12259 12256  12258
 $$$190B       1 0000180E 00000001     X   12456 12463U
 $$$191        1 00000050 00000001 A   U   12550 12547  12549
 $$$193B       1 00001878 00000001     X   12577 12584U
 $$$194F       2 00001886 00000001     H   12616 12603B
 $$$195        1 00000050 00000001 A   U   12643 12640  12642
 $$$197B       1 000018B2 00000001     X   12670 12677U
 $$$198F       2 000018C0 00000001     H   12709 12696B
1EDIT     (EDIT2193) (12:43) (15MAR04) Ordinary Symbol and Literal Cross Reference                                          Page  107
 $$$199        1 00000050 00000001 A   U   12736 12733  12735
 $$$201B       1 000018EC 00000001     X   12763 12770U
 $$$202F       2 000018FA 00000001     H   12802 12789B
 $$$203        1 00000050 00000001 A   U   12829 12826  12828
 $$$205B       1 00001926 00000001     X   12856 12863U
 $$$206F       2 00001934 00000001     H   12895 12882B
 $$$207        1 00000050 00000001 A   U   12922 12919  12921
 $$$209B       1 00001960 00000001     X   12949 12956U
 $$$210F       2 0000196E 00000001     H   12988 12975B
 $$$211        1 00000050 00000001 A   U   13013 13010  13012
 $$$213B       1 0000199E 00000001     X   13040 13047U
 $$$214        1 00000050 00000001 A   U   13079 13076  13078
 $$$216B       1 000019CA 00000001     X   13106 13113U
 $$$217        1 00000050 00000001 A   U   13145 13142  13144
 $$$219B       1 000019F6 00000001     X   13172 13179U
 $$$220        1 00000050 00000001 A   U   13236 13233  13235
 $$$222B       1 00001A34 00000001     X   13297 13304U
 $$$223F       2 00001A6E 00000001     H   13385 13352B
 $$$224F       2 00001A9A 00000001     H   13428 13413B
 $$$227        1 000001F8 00000001 A   U   13527 13524  13526
 $$$229B       1 00001C94 00000001     X   13687 13694U
 $$$230        1 00000050 00000001 A   U   13730 13727  13729
 $$$232B       1 00001CC6 00000001     X   13761 13768U
 $$$234B       4 00001CEE 00000001     I   13835 13887
 $$$234F       2 00001D50 00000001     H   13884 13835B 13886
 $$$235E       2 00001D54 00000001     H   13894 13888
 $$$235F       2 00001DAC 00000001     H   13936 13890B
 $$$236F       2 00001DC4 00000001     H   13980 13951B
 $$$237F       2 00001DC4 00000001     H   13976 13966B
 $$$238F       2 00001DDE 00000001     H   14025 13992B
 $$$240B       4 00001DEC 00000001     I   14050 14069
 $$$240F       2 00001DFE 00000001     H   14065 14050B 14068
 $$$241B       4 00001E06 00000001     I   14085 14103
 $$$241E       2 00001E02 00000001     H   14076 14070
 $$$241F       2 00001E18 00000001     H   14100 14072B 14085B 14102
 $$$243E       2 00001E1C 00000001     H   14110 14104
 $$$243F       2 00001E2A 00000001     H   14122 14106B
 $$$244F       2 00001E3E 00000001     H   14171 14137B
 $$$246        1 0000005C 00000001 A   U   14275 14272  14274
 $$$248B       1 00002342 00000001     X   14755 14762U
 $$$249        1 00000050 00000001 A   U   14794 14791  14793
 $$$251B       1 0000236E 00000001     X   14821 14828U
 $$$252        1 00000050 00000001 A   U   14865 14862  14864
 $$$254B       1 0000239E 00000001     X   14892 14899U
 $$$255        1 00000050 00000001 A   U   14936 14933  14935
 $$$257B       1 000023CE 00000001     X   14963 14970U
 $$$258        1 00000050 00000001 A   U   15013 15010  15012
 $$$260B       1 00002402 00000001     X   15040 15047U
 $$$261        1 00000050 00000001 A   U   15090 15087  15089
 $$$263B       1 00002436 00000001     X   15117 15124U
 $$$264        1 00000050 00000001 A   U   15156 15153  15155
 $$$266B       1 00002462 00000001     X   15183 15190U
 $$$267        1 00000050 00000001 A   U   15228 15225  15227
 $$$269B       1 00002492 00000001     X   15255 15262U
 $$$270        1 00000050 00000001 A   U   15294 15291  15293
 $$$272B       1 000024BE 00000001     X   15321 15328U
 $$$273        1 00000050 00000001 A   U   15360 15357  15359
 $$$275B       1 000024EA 00000001     X   15387 15394U
 $$$276F       2 0000250E 00000001     H   15467 15444B
1EDIT     (EDIT2193) (12:43) (15MAR04) Ordinary Symbol and Literal Cross Reference                                          Page  108
 $$$280        1 00000050 00000001 A   U   15485 15482  15484
 $$$282B       1 00002536 00000001     X   15512 15519U
 $$$283        1 00000050 00000001 A   U   15552 15549  15551
 $$$285B       1 00002562 00000001     X   15579 15586U
 $$$286        1 00000050 00000001 A   U   15618 15615  15617
 $$$288B       1 0000258E 00000001     X   15645 15652U
 $$$289        1 00000050 00000001 A   U   15684 15681  15683
 $$$291B       1 000025BA 00000001     X   15711 15718U
 $$$292        1 00000050 00000001 A   U   15751 15748  15750
 $$$294B       1 000025E6 00000001     X   15778 15785U
 $$$295        1 00000050 00000001 A   U   15817 15814  15816
 $$$297B       1 00002612 00000001     X   15844 15851U
 $$$298        1 00000050 00000001 A   U   15883 15880  15882
 $$$300B       1 0000263E 00000001     X   15910 15917U
 $$$301F       2 00002652 00000001     H   15966 15943B
 $$$305        1 00000050 00000001 A   U   15984 15981  15983
 $$$307B       1 0000267A 00000001     X   16011 16018U
 $$$308        1 00000050 00000001 A   U   16050 16047  16049
 $$$310B       1 000026A6 00000001     X   16077 16084U
 $$$311        1 00000050 00000001 A   U   16111 16108  16110
 $$$313B       1 000026D2 00000001     X   16138 16145U
 $$$314        1 00000050 00000001 A   U   16196 16193  16195
 $$$316B       1 0000270E 00000001     X   16223 16230U
 $$$317        1 00000050 00000001 A   U   16265 16262  16264
 $$$319B       1 00002746 00000001     X   16292 16299U
 $$$320        1 00000050 00000001 A   U   16362 16359  16361
 $$$323B       1 00002842 00000001     X   16485 16492U
 $$$326F       2 0000286A 00000001     H   16568 16555B
 $$$327F       2 00002878 00000001     H   16592 16579B
 $$$328F       2 000028B4 00000001     H   16700 16611B 16625B
 $$$330F       2 0000289C 00000001     H   16667 16642B
 $$$332F       2 0000290E 00000001     H   16849 16713B
 $$$333F       2 000028D4 00000001     H   16746 16733B
 $$$334F       2 000028E4 00000001     H   16771 16758B
 $$$335F       2 000028F4 00000001     H   16796 16783B
 $$$336F       2 00002904 00000001     H   16821 16808B
 $$$337F       2 0000291E 00000001     H   16881 16863B
 $$$340F       2 0000295A 00000001     H   16986 16923B 16942B 16954B
 $$$343B       4 00002962 00000001     I   17010 17047
 $$$343F       2 00002976 00000001     H   17043 17010B 17046
 $$$344F       2 00002970 00000001     H   17035 17025B
 $$$345B       4 0000297E 00000001     I   17063 17080
 $$$345E       2 0000297A 00000001     H   17054 17048
 $$$345F       2 00002988 00000001     H   17076 17050B 17063B 17079
 $$$347B       4 00002990 00000001     I   17096 17112
 $$$347E       2 0000298C 00000001     H   17087 17081
 $$$347F       2 0000299A 00000001     H   17109 17083B 17096B 17111
 $$$349E       2 0000299E 00000001     H   17119 17113
 $$$349F       2 000029A4 00000001     H   17129 17115B
 $$$350F       2 00002A02 00000001     H   17286 17142B
 $$$352F       2 000029C8 00000001     H   17183 17170B
 $$$353F       2 000029D8 00000001     H   17208 17195B
 $$$354F       2 000029E8 00000001     H   17233 17220B
 $$$355F       2 000029F8 00000001     H   17258 17245B
 $$$356F       2 00002A16 00000001     H   17335 17301B
 $$$357F       2 00002A2A 00000001     H   17380 17346B
 $$$358F       2 00002A5A 00000001     H   17472 17409B
 $$$360        1 00000078 00000001 A   U   17497 17494  17496
 $$$362B       1 00002A82 00000001     X   17536 17543U
1EDIT     (EDIT2193) (12:43) (15MAR04) Ordinary Symbol and Literal Cross Reference                                          Page  109
 $$$363F       2 00002AC8 00000001     H   17641 17567B
 $$$365F       2 00002AE6 00000001     H   17693 17653B
 $$$367        1 00000050 00000001 A   U   17719 17716  17718
 $$$369B       1 00002B76 00000001     X   17794 17801U
 $$$370F       2 00002C0C 00000001     H   18013 17853B 17866B
 $$$370T       2 00002B9E 00000001     H   17869 17830B 17840B
 $$$374F       2 00002BF6 00000001     H   17978 17948B
 $$$374T       2 00002BDC 00000001     H   17951 17937B
 $$$376F       2 00002C2C 00000001     H   18072 18029B
 $$$377        1 00000050 00000001 A   U   18090 18087  18089
 $$$379B       1 00002CF2 00000001     X   18153 18160U
 $$$380F       2 00002D2C 00000001     H   18247 18188B
 $$$382F       2 00002D3C 00000001     H   18284 18259B
 $$$384        1 00000050 00000001 A   U   18358 18355  18357
 $$$386B       1 00002D9C 00000001     X   18416 18423U
 $$$389        1 00000050 00000001 A   U   18519 18516  18518
 $$$391B       1 00002EE2 00000001     X   18637 18644U
 $$$392F       2 00002F08 00000001     H   18698 18682B
 $$$393F       2 00002F1C 00000001     H   18719 18707B
 $$$394F       2 00002F3C 00000001     H   18766 18742B
 $$$395        6 00003B3E 00000001     I   18756 18748X
 $$$396        6 00003B3E 00000001     I   18755 18756  18756
 $$$397F       2 00002F4A 00000001     H   18788 18778B
 $$$398F       2 00002F76 00000001     H   18864 18809B
 $$$400F       2 00002F76 00000001     H   18860 18850B
 $$$401F       2 00002FAC 00000001     H   18918 18885B
 $$$402F       2 00002FA6 00000001     H   18913 18900B
 $$$404        1 00000150 00000001 A   U   18959 18956  18958
 $$$406B       1 00002FDA 00000001     X   19031 19038U
 $$$407F       2 00003072 00000001     H   19158 19143B
 $$$408F       2 0000310E 00000001     H   19276 19212B
 $$$409F       2 00003106 00000001     H   19263 19231B
 $$$410F       2 00003106 00000001     H   19259 19246B
 $$$411F       2 00003182 00000001     H   19345 19330B
 $$$412F       2 0000320A 00000001     H   19434 19415B
 $$$413F       2 0000322A 00000001     H   19463 19447B
 $$$414F       2 0000323C 00000001     H   19487 19475B
 $$$415F       2 0000324E 00000001     H   19514 19498B
 $$$416F       2 00003260 00000001     H   19536 19526B
 $$$423        6 00003B44 00000001     I   19619 19611X
 $$$424        6 00003B44 00000001     I   19618 19619  19619
 $$$43B        1 00000032 00000001     X    6791  6798U
 $$$430F       2 000032D6 00000001     H   19704 19687B
 $$$432        6 00003B4A 00000001     I   19740 19732X
 $$$433        6 00003B4A 00000001     I   19739 19740  19740
 $$$434F       2 00003332 00000001     H   19817 19753B
 $$$436        6 00003B50 00000001     I   19799 19791X
 $$$437        6 00003B50 00000001     I   19798 19799  19799
 $$$439        4 00003344 00000001     I   19862 19869  19869
 $$$44F        2 00000096 00000001     H    6878  6868B
 $$$440F       2 000033A0 00000001     H   19928 19915B
 $$$441F       2 000033AC 00000001     H   19948 19938B
 $$$444F       2 00003432 00000001     H   20139 20121B
 $$$45B        4 000000A6 00000001     I    6905  6936
 $$$45F        2 000000BA 00000001     H    6932  6905B  6935
 $$$454F       2 000034CC 00000001     H   20382 20368B
 $$$455F       2 0000355E 00000001     H   20463 20438B
 $$$456        1 00000174 00000001 A   U   20487 20484  20486
 $$$458B       1 000037E2 00000001     X   20742 20749U
1EDIT     (EDIT2193) (12:43) (15MAR04) Ordinary Symbol and Literal Cross Reference                                          Page  110
 $$$459        1 00000050 00000001 A   U   20776 20773  20775
 $$$46E        2 000000BE 00000001     H    6943  6937
 $$$46F        2 000000F0 00000001     H    7006  6939B
 $$$461B       1 0000380E 00000001     X   20803 20810U
 $$$462B       4 00003886 00000001     I   20890 20940
 $$$462F       2 000038E2 00000001     H   20935 20877B 20890B 20937
 $$$463B       4 0000387E 00000001     I   20877 20938
 $$$464E       2 000038E6 00000001     H   20947 20939  20941
 $$$464F       2 000038F4 00000001     H   20958 20943B
 $$$465        1 00000050 00000001 A   U   20977 20974  20976
 $$$467B       1 00003920 00000001     X   21004 21011U
 $$$468        1 00000050 00000001 A   U   21044 21041  21043
 $$$47         1 000001F8 00000001 A   U    7031  7028   7030
 $$$470B       1 00003954 00000001     X   21071 21078U
 $$$471F       2 00003968 00000001     H   21111 21095B
 $$$472        1 00000050 00000001 A   U   21131 21128  21130
 $$$474B       1 00003998 00000001     X   21158 21165U
 $$$475        1 00000050 00000001 A   U   21197 21194  21196
 $$$477B       1 00003B70 00000001     X   21333 21340U
 $$$479B       4 00003B9C 00000001     I   21411 21463
 $$$479F       2 00003BFE 00000001     H   21460 21411B 21462
 $$$480E       2 00003C02 00000001     H   21470 21464
 $$$480F       2 00003C5A 00000001     H   21512 21466B
 $$$481F       2 00003C74 00000001     H   21557 21524B
 $$$483F       2 00003CB4 00000001     H   21680 21572B 21589B 21608B 21627B 21648B 21669B
 $$$489B       4 00003CBA 00000001     I   21695 21792
 $$$489F       2 00003D00 00000001     H   21786 21695B 21791
 $$$49B        1 00000196 00000001     X    7108  7115U
 $$$490B       4 00003CC2 00000001     I   21710 21729
 $$$490F       2 00003CD4 00000001     H   21725 21710B 21728
 $$$491B       4 00003CDC 00000001     I   21745 21763
 $$$491E       2 00003CD8 00000001     H   21736 21730
 $$$491F       2 00003CEE 00000001     H   21760 21732B 21745B 21762
 $$$493E       2 00003CF2 00000001     H   21770 21764
 $$$493F       2 00003D00 00000001     H   21782 21766B
 $$$494E       2 00003D04 00000001     H   21799 21793
 $$$494F       2 00003D46 00000001     H   21887 21795B
 $$$495B       4 00003D08 00000001     I   21811 21830
 $$$495F       2 00003D1A 00000001     H   21826 21811B 21829
 $$$496B       4 00003D22 00000001     I   21846 21864
 $$$496E       2 00003D1E 00000001     H   21837 21831
 $$$496F       2 00003D34 00000001     H   21861 21833B 21846B 21863
 $$$498E       2 00003D38 00000001     H   21871 21865
 $$$498F       2 00003D46 00000001     H   21883 21867B
 $$$499F       2 00003D64 00000001     H   21939 21904B 21916B
 $$$50F        2 000001A2 00000001     H    7145  7133B
 $$$503F       2 00003DCA 00000001     H   22107 21997B
 $$$504        1 0000015C 00000001 A   U   22131 22128  22130
 $$$506B       1 00003FAE 00000001     X   22325 22332U
 $$$507F       2 00003FDE 00000001     H   22397 22356B
 $$$508F       2 00003FE8 00000001     H   22417 22404B
 $$$509        1 00000050 00000001 A   U   22440 22437  22439
 $$$51         1 00000050 00000001 A   U    7166  7163   7165
 $$$511B       1 00004016 00000001     X   22467 22474U
 $$$512F       2 00004030 00000001     H   22511 22498B
 $$$513        6 00004206 00000001     I   22526 22518X
 $$$514        6 00004206 00000001     I   22525 22526  22526
 $$$515        1 00000050 00000001 A   U   22561 22558  22560
 $$$517B       1 0000406E 00000001     X   22588 22595U
1EDIT     (EDIT2193) (12:43) (15MAR04) Ordinary Symbol and Literal Cross Reference                                          Page  111
 $$$518F       2 00004088 00000001     H   22632 22619B
 $$$519        1 00000050 00000001 A   U   22655 22652  22654
 $$$521B       1 000040B6 00000001     X   22695 22702U
 $$$522        1 00000050 00000001 A   U   22758 22755  22757
 $$$524B       1 000040EE 00000001     X   22809 22816U
 $$$525F       2 00004120 00000001     H   22920 22863B 22874B
 $$$527        6 0000420C 00000001     I   22892 22884X
 $$$528        6 0000420C 00000001     I   22891 22892  22892
 $$$529        6 00004212 00000001     I   22909 22901X
 $$$53B        1 000001D0 00000001     X    7237  7244U
 $$$530        6 00004212 00000001     I   22908 22909  22909
 $$$531F       2 00004152 00000001     H   22992 22940B
 $$$531S       2 0000412E 00000001     H   22934 22991B
 $$$533        6 00004218 00000001     I   22954 22946X
 $$$534        6 00004218 00000001     I   22953 22954  22954
 $$$535F       2 00004148 00000001     H   22982 22967B
 $$$536        1 00000150 00000001 A   U   23015 23012  23014
 $$$538B       1 00004238 00000001     X   23151 23158U
 $$$54B        4 00000242 00000001     I    7332  7543
 $$$54F        2 000002BE 00000001     H    7537  7332B  7542
 $$$540F       2 000042DA 00000001     H   23310 23259B
 $$$541F       2 000042DA 00000001     H   23306 23279B
 $$$544B       4 0000431C 00000001     I   23396 23520
 $$$544F       2 00004392 00000001     H   23517 23396B 23519
 $$$545B       4 00004324 00000001     I   23411 23483
 $$$545F       2 0000436A 00000001     H   23480 23411B 23482
 $$$546B       4 0000433E 00000001     I   23435 23455
 $$$546F       2 00004354 00000001     H   23452 23435B 23454
 $$$547E       2 00004358 00000001     H   23462 23456
 $$$547F       2 0000436A 00000001     H   23476 23458B
 $$$548E       2 0000436E 00000001     H   23490 23484
 $$$548F       2 00004392 00000001     H   23513 23486B
 $$$549E       2 00004396 00000001     H   23527 23521
 $$$549F       2 000043A8 00000001     H   23541 23523B
 $$$55F        2 000002BE 00000001     H    7533  7366B
 $$$55S        2 00000248 00000001     H    7346  7532B
 $$$550        1 00000064 00000001 A   U   23565 23562  23564
 $$$552B       1 000043D4 00000001     X   23593 23600U
 $$$553        1 00000050 00000001 A   U   23673 23670  23672
 $$$555B       1 000045FA 00000001     X   23885 23892U
 $$$556F       2 00004608 00000001     H   23924 23912B
 $$$559F       2 00004620 00000001     H   23959 23947B
 $$$561        1 00000050 00000001 A   U   23981 23978  23980
 $$$563B       1 0000464A 00000001     X   24008 24015U
 $$$564F       2 00004658 00000001     H   24049 24037B
 $$$565        1 00000050 00000001 A   U   24115 24112  24114
 $$$567B       1 000046E2 00000001     X   24142 24149U
 $$$568F       2 000046F0 00000001     H   24183 24171B
 $$$569        1 00000050 00000001 A   U   24249 24246  24248
 $$$57F        2 00000282 00000001     H    7414  7399B
 $$$571B       1 0000477A 00000001     X   24276 24283U
 $$$572F       2 00004788 00000001     H   24321 24309B
 $$$573        1 00000050 00000001 A   U   24387 24384  24386
 $$$575B       1 00004812 00000001     X   24414 24421U
 $$$576        1 00000050 00000001 A   U   24448 24445  24447
 $$$578B       1 0000483E 00000001     X   24475 24482U
 $$$579        1 00000050 00000001 A   U   24512 24509  24511
 $$$58F        2 000002A8 00000001     H    7503  7442B
 $$$581B       1 00004872 00000001     X   24539 24546U
1EDIT     (EDIT2193) (12:43) (15MAR04) Ordinary Symbol and Literal Cross Reference                                          Page  112
 $$$582        1 00000050 00000001 A   U   24576 24573  24575
 $$$584B       1 000048A4 00000001     X   24614 24621U
 $$$586F       2 000048BE 00000001     H   24690 24680B
 $$$587F       2 000048CA 00000001     H   24713 24703B
 $$$588F       2 000048D6 00000001     H   24741 24726B
 $$$589F       2 000048E2 00000001     H   24769 24754B
 $$$590F       2 000048EE 00000001     H   24797 24782B
 $$$592F       2 0000495E 00000001     H   24956 24929B
 $$$593        1 00000050 00000001 A   U   25014 25011  25013
 $$$595B       1 00004A46 00000001     X   25175 25182U
 $$$596        1 00000050 00000001 A   U   25214 25211  25213
 $$$598B       1 00004A7C 00000001     X   25244 25251U
 $$$60F        2 000002A8 00000001     H    7497  7480B
 $$$601B       4 00004A9C 00000001     I   25317 25336
 $$$601F       2 00004AA4 00000001     H   25332 25317B 25335
 $$$602B       4 00004AAC 00000001     I   25352 25370
 $$$602E       2 00004AA8 00000001     H   25343 25337
 $$$602F       2 00004AB4 00000001     H   25367 25339B 25352B 25369
 $$$604E       2 00004AB8 00000001     H   25377 25371
 $$$604F       2 00004ABC 00000001     H   25389 25373B
 $$$605B       4 00004AE4 00000001     I   25421 25473
 $$$605F       2 00004B46 00000001     H   25470 25421B 25472
 $$$606E       2 00004B4A 00000001     H   25480 25474
 $$$606F       2 00004BA2 00000001     H   25522 25476B
 $$$607F       2 00004BAE 00000001     H   25553 25536B
 $$$612F       2 00004BEC 00000001     H   25627 25614B
 $$$613F       2 00004C3C 00000001     H   25727 25641B 25653B
 $$$615F       2 00004C16 00000001     H   25680 25665B
 $$$616F       2 00004C3C 00000001     H   25723 25693B
 $$$617F       2 00004C36 00000001     H   25718 25705B
 $$$618F       2 00004C66 00000001     H   25784 25750B
 $$$62E        2 000002C2 00000001     H    7550  7544
 $$$62F        2 00000340 00000001     H    7752  7546B
 $$$620F       2 00004C90 00000001     H   25850 25799B 25811B
 $$$623F       2 00004CAC 00000001     H   25880 25865B
 $$$624F       2 00004CC2 00000001     H   25906 25891B
 $$$625F       2 00004CD8 00000001     H   25932 25917B
 $$$626F       2 00004D06 00000001     H   26001 25948B
 $$$627F       2 00004D02 00000001     H   25996 25963B
 $$$629        1 0000006C 00000001 A   U   26029 26026  26028
 $$$63F        2 00000340 00000001     H    7748  7581B
 $$$63S        2 000002CA 00000001     H    7562  7747B
 $$$631B       1 00004D38 00000001     X   26089 26096U
 $$$632        6 000050AC 00000001     I   26141 26133X
 $$$633        6 000050AC 00000001     I   26140 26141  26141
 $$$636F       2 00004D8A 00000001     H   26210 26196B
 $$$638F       2 00004DF6 00000001     H   26304 26287B
 $$$642F       2 00004EB8 00000001     H   26459 26403B
 $$$644F       2 00004F06 00000001     H   26554 26476B
 $$$645F       2 00004F2A 00000001     H   26596 26565B
 $$$646        1 00000150 00000001 A   U   26670 26667  26669
 $$$648B       1 000050CC 00000001     X   26759 26766U
 $$$649        1 00000050 00000001 A   U   26846 26843  26845
 $$$65F        2 00000304 00000001     H    7629  7614B
 $$$651B       1 0000555E 00000001     X   27287 27294U
 $$$652        1 00000050 00000001 A   U   27327 27324  27326
 $$$654B       1 00005592 00000001     X   27354 27361U
 $$$655F       2 000055A6 00000001     H   27395 27380B
 $$$656        1 00000050 00000001 A   U   27469 27466  27468
1EDIT     (EDIT2193) (12:43) (15MAR04) Ordinary Symbol and Literal Cross Reference                                          Page  113
 $$$658B       1 00005638 00000001     X   27496 27503U
 $$$659        1 00000050 00000001 A   U   27533 27530  27532
 $$$66F        2 0000032A 00000001     H    7718  7657B
 $$$661B       1 00005670 00000001     X   27560 27567U
 $$$662F       2 00005684 00000001     H   27602 27587B
 $$$664F       2 00005698 00000001     H   27628 27613B
 $$$665        1 00000050 00000001 A   U   27654 27651  27653
 $$$667B       1 000056C8 00000001     X   27681 27688U
 $$$668F       2 000056DC 00000001     H   27723 27708B
 $$$670F       2 000056F0 00000001     H   27749 27734B
 $$$671        1 00000050 00000001 A   U   27771 27768  27770
 $$$673B       1 0000571A 00000001     X   27798 27805U
 $$$674        1 00000050 00000001 A   U   27880 27877  27879
 $$$676B       1 000057A4 00000001     X   27907 27914U
 $$$677F       2 000057B8 00000001     H   27952 27939B
 $$$678F       2 000057D0 00000001     H   27979 27964B
 $$$679        1 00000050 00000001 A   U   27998 27995  27997
 $$$68F        2 0000032A 00000001     H    7712  7695B
 $$$681B       1 000057FC 00000001     X   28025 28032U
 $$$682F       2 00005810 00000001     H   28066 28051B
 $$$683F       2 00005824 00000001     H   28092 28077B
 $$$684        1 00000050 00000001 A   U   28126 28123  28125
 $$$686B       1 00005856 00000001     X   28153 28160U
 $$$687        1 00000050 00000001 A   U   28203 28200  28202
 $$$689B       1 0000588C 00000001     X   28230 28237U
 $$$690        1 00000050 00000001 A   U   28312 28309  28311
 $$$692B       1 00005916 00000001     X   28339 28346U
 $$$693        1 00000050 00000001 A   U   28379 28376  28378
 $$$695B       1 00005950 00000001     X   28406 28413U
 $$$696        1 00000050 00000001 A   U   28477 28474  28476
 $$$698B       1 000059D4 00000001     X   28504 28511U
 $$$699        1 00000050 00000001 A   U   28545 28542  28544
 $$$70         1 00000204 00000001 A   U    7778  7775   7777
 $$$701B       1 00005A10 00000001     X   28572 28579U
 $$$702        1 00000050 00000001 A   U   28611 28608  28610
 $$$704B       1 00005A3C 00000001     X   28638 28645U
 $$$705        1 00000050 00000001 A   U   28678 28675  28677
 $$$707B       1 00005A68 00000001     X   28705 28712U
 $$$708        1 00000050 00000001 A   U   28739 28736  28738
 $$$710B       1 00005B88 00000001     X   28848 28855U
 $$$712F       2 00005C26 00000001     H   29019 28962B
 $$$713F       2 00005C38 00000001     H   29057 29044B
 $$$714F       2 00005C44 00000001     H   29080 29067B
 $$$715F       2 00005C84 00000001     H   29151 29096B
 $$$717F       2 00005D12 00000001     H   29251 29218B
 $$$718F       2 00005D5E 00000001     H   29334 29279B
 $$$719        1 00000060 00000001 A   U   29359 29356  29358
 $$$72B        1 00000436 00000001     X    7885  7892U
 $$$721B       1 00005E02 00000001     X   29435 29442U
 $$$722F       2 00005E38 00000001     H   29523 29466B
 $$$723F       2 00005E4A 00000001     H   29561 29548B
 $$$724F       2 00005E56 00000001     H   29584 29571B
 $$$725        1 00000050 00000001 A   U   29607 29604  29606
 $$$727B       1 00005E84 00000001     X   29634 29641U
 $$$728        1 00000050 00000001 A   U   29673 29670  29672
 $$$73         1 00000050 00000001 A   U    7924  7921   7923
 $$$730B       1 00005EB0 00000001     X   29704 29711U
 $$$731F       2 00005EF8 00000001     H   29794 29739B
 $$$732F       2 00005F16 00000001     H   29827 29812B
1EDIT     (EDIT2193) (12:43) (15MAR04) Ordinary Symbol and Literal Cross Reference                                          Page  114
 $$$733        1 00000050 00000001 A   U   29861 29858  29860
 $$$735B       1 00006082 00000001     X   29975 29982U
 $$$737B       4 000060BC 00000001     I   30054 30171
 $$$737F       2 00006158 00000001     H   30165 30054B 30170
 $$$738F       2 00006132 00000001     H   30125 30110B
 $$$740B       4 00006160 00000001     I   30187 30274
 $$$740E       2 0000615C 00000001     H   30178 30172
 $$$740F       2 000061E4 00000001     H   30269 30174B 30187B 30273
 $$$742F       2 000061D0 00000001     H   30254 30239B
 $$$743E       2 000061E8 00000001     H   30281 30275
 $$$743F       2 00006262 00000001     H   30356 30277B
 $$$744F       2 00006254 00000001     H   30345 30330B
 $$$745        1 0000035C 00000001 A   U   30381 30378  30380
 $$$747B       1 000063A6 00000001     X   30519 30526U
 $$$748F       2 000063B2 00000001     H   30553 30544B
 $$$749F       2 000063C4 00000001     H   30593 30569B
 $$$75B        1 00000462 00000001     X    7951  7958U
 $$$750        6 00006EA6 00000001     I   30583 30575X
 $$$751        6 00006EA6 00000001     I   30582 30583  30583
 $$$752        1 00000050 00000001 A   U   30621 30618  30620
 $$$754B       1 000063F2 00000001     X   30648 30655U
 $$$755F       2 000063FE 00000001     H   30682 30673B
 $$$756F       2 00006410 00000001     H   30722 30698B
 $$$757        6 00006EAC 00000001     I   30712 30704X
 $$$758        6 00006EAC 00000001     I   30711 30712  30712
 $$$759        1 00000050 00000001 A   U   30750 30747  30749
 $$$76         1 00000050 00000001 A   U    7985  7982   7984
 $$$761B       1 0000643E 00000001     X   30785 30792U
 $$$762F       2 000064B2 00000001     H   30924 30875B
 $$$765        1 00000050 00000001 A   U   30976 30973  30975
 $$$767B       1 000064FA 00000001     X   31070 31077U
 $$$769B       4 0000652E 00000001     I   31148 31196
 $$$769F       2 0000658A 00000001     H   31193 31148B 31195
 $$$770E       2 0000658E 00000001     H   31203 31197
 $$$770F       2 000065E6 00000001     H   31245 31199B
 $$$771F       2 000065FC 00000001     H   31273 31258B
 $$$772F       2 00006652 00000001     H   31385 31296B
 $$$773F       2 0000662C 00000001     H   31328 31315B
 $$$774B       4 00006656 00000001     I   31399 31418
 $$$774F       2 00006668 00000001     H   31414 31399B 31417
 $$$775B       4 00006670 00000001     I   31434 31452
 $$$775E       2 0000666C 00000001     H   31425 31419
 $$$775F       2 00006682 00000001     H   31449 31421B 31434B 31451
 $$$777E       2 00006686 00000001     H   31459 31453
 $$$777F       2 00006694 00000001     H   31471 31455B
 $$$778        1 0000017C 00000001 A   U   31497 31494  31496
 $$$78B        1 00000490 00000001     X    8012  8019U
 $$$780B       1 0000691A 00000001     X   31751 31758U
 $$$781        1 00000050 00000001 A   U   31785 31782  31784
 $$$783B       1 00006946 00000001     X   31812 31819U
 $$$784F       2 00006962 00000001     H   31867 31840B 31852B
 $$$786        1 00000050 00000001 A   U   31894 31891  31893
 $$$788B       1 00006996 00000001     X   31921 31928U
 $$$789        1 00000050 00000001 A   U   31960 31957  31959
 $$$79         1 00000050 00000001 A   U    8051  8048   8050
 $$$791B       1 000069C2 00000001     X   31987 31994U
 $$$792        1 00000050 00000001 A   U   32026 32023  32025
 $$$794B       1 000069EE 00000001     X   32053 32060U
 $$$795        1 00000050 00000001 A   U   32099 32096  32098
1EDIT     (EDIT2193) (12:43) (15MAR04) Ordinary Symbol and Literal Cross Reference                                          Page  115
 $$$797B       1 00006A1E 00000001     X   32126 32133U
 $$$798F       2 00006A36 00000001     H   32177 32165B
 $$$799        1 00000050 00000001 A   U   32196 32193  32195
 $$$801B       1 00006A64 00000001     X   32223 32230U
 $$$802        1 00000050 00000001 A   U   32257 32254  32256
 $$$804B       1 00006A90 00000001     X   32284 32291U
 $$$805        1 00000050 00000001 A   U   32318 32315  32317
 $$$807B       1 00006ABC 00000001     X   32354 32361U
 $$$808F       2 00006B86 00000001     H   32645 32385B
 $$$809F       2 00006B82 00000001     H   32639 32403B
 $$$809S       2 00006ACA 00000001     H   32397 32638B
 $$$81B        1 0000051C 00000001     X    8176  8183U
 $$$811F       2 00006B78 00000001     H   32630 32420B
 $$$812F       2 00006B78 00000001     H   32626 32433B
 $$$813F       2 00006AF4 00000001     H   32457 32448B
 $$$814F       2 00006B00 00000001     H   32495 32471B
 $$$815        6 00006EB2 00000001     I   32485 32477X
 $$$816        6 00006EB2 00000001     I   32484 32485  32485
 $$$817F       2 00006B16 00000001     H   32549 32506B
 $$$818F       2 00006B16 00000001     H   32545 32521B
 $$$819        6 00006EB8 00000001     I   32535 32527X
 $$$82F        2 0000059A 00000001     H    8282  8272B
 $$$820        6 00006EB8 00000001     I   32534 32535  32535
 $$$821F       2 00006B46 00000001     H   32599 32570B
 $$$822F       2 00006B98 00000001     H   32670 32661B
 $$$823F       2 00006BA4 00000001     H   32708 32684B
 $$$824        6 00006EBE 00000001     I   32698 32690X
 $$$825        6 00006EBE 00000001     I   32697 32698  32698
 $$$826F       2 00006BBA 00000001     H   32762 32719B
 $$$827F       2 00006BBA 00000001     H   32758 32734B
 $$$828        6 00006EC4 00000001     I   32748 32740X
 $$$829        6 00006EC4 00000001     I   32747 32748  32748
 $$$83F        2 000005D2 00000001     H    8345  8294B
 $$$830F       2 00006BD8 00000001     H   32812 32797B
 $$$831F       2 00006D2E 00000001     H   33174 32856B 32867B
 $$$831S       2 00006C1E 00000001     H   32848 33173B
 $$$834F       2 00006C42 00000001     H   32913 32889B 32903B
 $$$836F       2 00006C58 00000001     H   32951 32927B 32941B
 $$$838F       2 00006CE4 00000001     H   33140 32962B
 $$$839F       2 00006C72 00000001     H   32987 32978B
 $$$84B        4 000005E4 00000001     I    8374  8433
 $$$84F        2 00000616 00000001     H    8429  8374B  8432
 $$$840F       2 00006C7E 00000001     H   33025 33001B
 $$$841        6 00006ECA 00000001     I   33015 33007X
 $$$842        6 00006ECA 00000001     I   33014 33015  33015
 $$$843F       2 00006CA0 00000001     H   33070 33042B
 $$$844F       2 00006CE4 00000001     H   33136 33092B
 $$$845        1 00000050 00000001 A   U   33194 33191  33193
 $$$847B       1 00006EEA 00000001     X   33319 33326U
 $$$849F       2 00006F98 00000001     H   33479 33428B
 $$$85E        2 0000061A 00000001     H    8440  8434
 $$$85F        2 000006E0 00000001     H    8775  8436B
 $$$850F       2 00006FC8 00000001     H   33533 33517B
 $$$850T       2 00006FB4 00000001     H   33520 33504B
 $$$853F       2 00006FEC 00000001     H   33586 33548B 33568B
 $$$855F       2 00007032 00000001     H   33686 33616B
 $$$855T       2 00007000 00000001     H   33619 33605B
 $$$857F       2 00007032 00000001     H   33682 33649B
 $$$857T       2 00007014 00000001     H   33652 33636B
1EDIT     (EDIT2193) (12:43) (15MAR04) Ordinary Symbol and Literal Cross Reference                                          Page  116
 $$$859F       2 0000704A 00000001     H   33729 33701B 33719B
 $$$86F        2 0000062E 00000001     H    8477  8467B
 $$$862F       2 0000705A 00000001     H   33760 33744B
 $$$863F       2 0000706A 00000001     H   33784 33774B
 $$$864F       2 000070AE 00000001     H   33871 33799B 33819B
 $$$866B       4 000070C6 00000001     I   33902 33918
 $$$866F       2 000070D0 00000001     H   33914 33902B 33917
 $$$866T       2 000070CA 00000001     H   33905 33893B
 $$$868E       2 000070D4 00000001     H   33925 33919
 $$$868F       2 000070FE 00000001     H   33997 33921B
 $$$869F       2 000070E2 00000001     H   33947 33937B
 $$$87F        2 0000063E 00000001     H    8499  8489B
 $$$870F       2 000070F8 00000001     H   33988 33958B
 $$$871F       2 000070F8 00000001     H   33984 33974B
 $$$872F       2 0000716A 00000001     H   34153 34026B
 $$$872T       2 0000710C 00000001     H   34029 34014B
 $$$874F       2 00007120 00000001     H   34056 34041B
 $$$875F       2 00007166 00000001     H   34148 34074B
 $$$876F       2 00007182 00000001     H   34184 34171B
 $$$877F       2 00007192 00000001     H   34210 34197B
 $$$878F       2 000071A2 00000001     H   34236 34223B
 $$$879F       2 00007238 00000001     H   34474 34366B 34385B 34405B 34425B
 $$$88F        2 0000064A 00000001     H    8525  8510B
 $$$883        1 0000006C 00000001 A   U   34518 34515  34517
 $$$885B       1 00007276 00000001     X   34563 34570U
 $$$886B       4 00007284 00000001     I   34609 34622
 $$$886F       2 0000728C 00000001     H   34618 34609B 34621
 $$$887E       2 00007290 00000001     H   34629 34623
 $$$887F       2 000072B6 00000001     H   34680 34625B
 $$$888F       2 000072B6 00000001     H   34676 34643B
 $$$889        1 00000050 00000001 A   U   34712 34709  34711
 $$$89F        2 00000656 00000001     H    8552  8536B
 $$$891B       1 0000740A 00000001     X   34849 34856U
 $$$892F       2 00007426 00000001     H   34908 34893B
 $$$893        1 00000050 00000001 A   U   34937 34934  34936
 $$$895B       1 00007454 00000001     X   34965 34972U
 $$$896F       2 00007470 00000001     H   35024 35009B
 $$$897        1 00000050 00000001 A   U   35053 35050  35052
 $$$899B       1 0000749E 00000001     X   35081 35088U
 $$$90F        2 00000662 00000001     H    8578  8563B
 $$$900        1 00000050 00000001 A   U   35144 35141  35143
 $$$902B       1 000074D6 00000001     X   35172 35179U
 $$$903F       2 000074F2 00000001     H   35231 35216B
 $$$904        1 00000050 00000001 A   U   35260 35257  35259
 $$$906B       1 00007520 00000001     X   35295 35302U
 $$$907        1 00000050 00000001 A   U   35368 35365  35367
 $$$909B       1 000075A8 00000001     X   35395 35402U
 $$$91F        2 0000066E 00000001     H    8605  8589B
 $$$910        1 00000050 00000001 A   U   35429 35426  35428
 $$$912B       1 000075D4 00000001     X   35456 35463U
 $$$913        1 00000050 00000001 A   U   35493 35490  35492
 $$$915B       1 00007606 00000001     X   35520 35527U
 $$$916        1 00000050 00000001 A   U   35557 35554  35556
 $$$918B       1 00007638 00000001     X   35584 35591U
 $$$919        1 00000050 00000001 A   U   35657 35654  35656
 $$$92F        2 000006CE 00000001     H    8746  8618B
 $$$93F        2 000006C8 00000001     H    8740  8633B
 $$$94B        4 00000686 00000001     I    8650  8667
 $$$94F        2 00000694 00000001     H    8664  8650B  8666
1EDIT     (EDIT2193) (12:43) (15MAR04) Ordinary Symbol and Literal Cross Reference                                          Page  117
 $$$95E        2 00000698 00000001     H    8674  8668
 $$$95F        2 000006A2 00000001     H    8685  8670B
 $$$96B        4 000006A8 00000001     I    8699  8717
 $$$96F        2 000006B8 00000001     H    8714  8699B  8716
 $$$97E        2 000006BC 00000001     H    8724  8718
 $$$97F        2 000006C8 00000001     H    8736  8720B
 $$$98         1 00000260 00000001 A   U    8800  8797   8799
 @RAR          0 00000000 FFFFFFF0     @    1124  2193   2201B
 @R0           0 00000000 FFFFFFFE     @     706   982U
 @R1           0 00000000 FFFFFFFD     @     719   978U  2199   2200   9145   9158   9417   9430  10101  10114  10246
                                                 11163  11176  17837  17852  17865  18028  18662  19211  19798  19858U
                                                 20889  22525M 22891  30582  30711  32178  32419  32612  32632  32697
                                                 33014
 @R10          0 00000000 FFFFFFF4     @     836   942U
 @R11          0 00000000 FFFFFFF3     @     849   938U
 @R12          0 00000000 FFFFFFF2     @     862   934U
 @R13          0 00000000 FFFFFFF1     @     875   930U 10125  10162  11187  11224  20448  20954  30957
 @R14          0 00000000 FFFFFFF0     @     888   926U 22525  22908  30816M 30848  32534  32747
 @R15          0 00000000 FFFFFFEF     @     901   922U 14249U 17465U 17837  19608  19618  19739  20294U 26124  26129
                                                 26140  28961  29465
 @R2           0 00000000 FFFFFFFC     @     732   974U 11997U 18755M 19609  19798  30912
 @R3           0 00000000 FFFFFFFB     @     745   970U  7529U  7744U 13489U 26131
 @R4           0 00000000 FFFFFFFA     @     758   966U  8772U 17934  17947  32484
 @R5           0 00000000 FFFFFFF9     @     771   962U 16624  16732  16757  16782  16807  16875  17154M 17169  17194
                                                 17219  17244  20819M 20820M 21094  21112M
 @R6           0 00000000 FFFFFFF8     @     784   958U  8060U  9912U 11025U 13245U 16371U 18385U 21205U 22663U 22739U
                                                 23023U 24584U 25022U 28747U 29869U 31103U 33352U 34526U 34696U 34921U
                                                 35037U 35128U 35244U
 @R7           0 00000000 FFFFFFF7     @     797   954U  7020U  7155U  7767U  7913U  7974U  8040U  8789U  9079U  9209U
                                                  9280U  9351U  9481U  9576U  9655U  9734U  9813U  9892U 10578U 10794U
                                                 10855U 10944U 11005U 11309U 11443U 12248U 12539U 12632U 12725U 12818U
                                                 12911U 13002U 13068U 13134U 13225U 13516U 13719U 14264U 14783U 14854U
                                                 14925U 15002U 15079U 15145U 15217U 15283U 15349U 15474U 15541U 15607U
                                                 15673U 15740U 15806U 15872U 15973U 16039U 16100U 16185U 16254U 16351U
                                                 17486U 17708U 18079U 18347U 18508U 18948U 20476U 20765U 20966U 21033U
                                                 21120U 21186U 22120U 22429U 22550U 22644U 22747U 23004U 23554U 23662U
                                                 23970U 24104U 24238U 24376U 24437U 24501U 24565U 25003U 25203U 26018U
                                                 26659U 26835U 27316U 27458U 27522U 27643U 27760U 27869U 27987U 28115U
                                                 28192U 28301U 28368U 28466U 28534U 28600U 28667U 28728U 29348U 29596U
                                                 29662U 29850U 30370U 30610U 30739U 30965U 31486U 31774U 31883U 31949U
                                                 32015U 32088U 32185U 32246U 32307U 33183U 34507U 34701U 34926U 35042U
                                                 35133U 35249U 35357U 35418U 35482U 35546U 35646U
 @R8           0 00000000 FFFFFFF6     @     810   950U  7015U  7762U  8784U 10573U 12243U 13511U 14259U 17481U 18943U
                                                 20471U 22115U 22999U 23549U 26013U 26654U 29343U 30365U 31481U 34502U
 @R9           0 00000000 FFFFFFF5     @     823   946U
 ABSCENT       1 00000000 00000000 A   T    2209  2209
 ACTCHK        1 00000000 00000042     T   21236 21236
 ACTCLOSE      1 00000000 0000001F     T   11495 11495
 ACTDISP       1 00000000 0000000A     T    8076  8076
 ACTDUP        1 00000000 0000001C     T   11491 11491
 ACTFIRST      1 00000000 00000024     T   13553 13553
 ACTGINFO      1 00000000 00000009     T    8075  8075  11473  13543
 ACTLAST       1 00000000 00000025     T   13555 13555
 ACTNEXT       1 00000000 0000000D     T    8081  8081  13551
 ACTOPEN       1 00000000 0000001B     T   11490 11490
 ACTPICK       1 00000000 00000023     T   13549 13549  29887
 ACTPREV       1 00000000 0000000E     T    8083  8083  13550
 ACTSINFO      1 00000000 00000013     T   11476 11476
 ACTVREST      1 00000000 0000001D     T   11492 11492  13557
1EDIT     (EDIT2193) (12:43) (15MAR04) Ordinary Symbol and Literal Cross Reference                                          Page  118
 ADDER         1 00000000 00000045     T   21243 21243  26710  29894
 AINACFLG      1 0000004D FFFFFFE8     R    6688  6692   6697   6702   6707   6712
 AINACFLN      4 0000003C FFFFFFE8     F    6680  6715   6715
 AINAFCLR    128 0000003B FFFFFFE8         6656  7491   7706   8632  11810  13454
 AINAFLAG      1 0000003B FFFFFFE8     R    6652  6656   6661   6666   6671
 AINAFLOCK
              16 0000003B FFFFFFE8         6671  8521M  8548M
 AINAFPRT     64 0000003B FFFFFFE8         6661  8574M  8601M
 AINANAME      8 00000000 FFFFFFE8     C    6634  6730   6730   8132   8473M 11914  11919
 AINATITL     80 0000004E FFFFFFE8     C    6720  8133   8495M
 AINATYPE      8 00000008 FFFFFFE8     C    6635  7459   7674   8649   8742M 13474
 AINFO       424 00000000 FFFFFFE8     J    6738  6750   7426U  7518   7641U  7733   8135   8452U 11565  11796U 13256
                                                 13440U
 ALLOWATN      1 00000000 00000034     T   16403 16403
 ANYCASE     128 0000000A FFFFFFDD        21289 22538M 22862
 ASCTBL        1 00000000 00000000 A   T    2217  2217
 ATTNLINE      1 00000000 00000033     T   16402 16402
 BADLINEL      2 000050B2 00000001     H   26740 26692
 BLASTER       2 00004EBC 00000001     H   26467 26219B 26325B 26336B 26339B 26383B
 BLTBL         1 00000000 00000000 A   T    2219  2219
 BR            7 00000007 00000001 A   #    1014  6786M  7103M  7232M  7880M  7946M  8007M  8171M  9051M  9112M  9242M
                                                  9313M  9384M  9514M  9609M  9688M  9767M  9846M  9963M 10766M 10827M
                                                 10888M 10977M 11051M 11408M 11601M 12451M 12572M 12665M 12758M 12851M
                                                 12944M 13035M 13101M 13167M 13292M 13682M 13756M 14750M 14816M 14887M
                                                 14958M 15035M 15112M 15178M 15250M 15316M 15382M 15507M 15574M 15640M
                                                 15706M 15773M 15839M 15905M 16006M 16072M 16133M 16218M 16287M 16480M
                                                 17531M 17789M 18148M 18411M 18632M 19026M 20737M 20798M 20999M 21066M
                                                 21153M 21328M 22320M 22462M 22583M 22690M 22804M 23146M 23588M 23880M
                                                 24003M 24137M 24271M 24409M 24470M 24534M 24609M 25170M 25239M 26084M
                                                 26754M 27282M 27349M 27491M 27555M 27676M 27793M 27902M 28020M 28148M
                                                 28225M 28334M 28401M 28499M 28567M 28633M 28700M 28843M 29430M 29629M
                                                 29699M 29970M 30514M 30643M 30780M 31065M 31746M 31807M 31916M 31982M
                                                 32048M 32121M 32218M 32279M 32349M 33314M 34558M 34844M 34960M 35076M
                                                 35167M 35290M 35390M 35451M 35515M 35579M
 BTD           1 00000000 0000004A     T   23055 23055  25050  33239
 BYLNOPRT      4 000053B4 00000001     F   27113 28766
 CHARCHKA      1 00000000 0000001A     T   11488 11488
 CHECKIOB      1 00000000 00000000 A   T    2265  2265
 CKQUOTES      1 00000000 00000015     T   11479 11479  23057
 CLCHKORV      2 0000126C 00000001     H   11394 11356  11371
 CLOSE         2 0000106A 00000001     H   11037 11033
 CLOSEPRT      4 000011CC 00000001     F   11329 11494
 CLRPSH        1 00000000 00000011     T   11341 11341
 CMSGLAST      4 00004F58 00000001     I   26641 26261B 26455B 26550B
 CNTDONE       2 00003D4A 00000001     I   21892 21676B
 CNTNO         4 00000000 FFFFFFDD     F   21280 21889  22731  22732M 22848  22849M
 CNTPRT        4 00003E2C 00000001     F   22168 23041
 CNTPRTX       4 00003DDC 00000001     F   22137 23038
 CNTWA       267 00000000 FFFFFFDD     J   21299 21325  21354U 21358  21366U 21375M 21375  21376M 21376  22128  22130
                                                 22131  22721U 22842U
 COLLPSH       1 00000000 00000003     T    7067  7067   7844  22285  23784
 COLSPSH       1 00000000 0000002A     T   14355 14355  18553  20580  20656
 COMABORT      6 0000336C 00000001     I   19880 19846B
 COMCONT       2 00003472 00000001     H   20236 20136B 20184B
 COMLNO2       2 0000393A 00000001     H   21052 20702
 COMMAND       1 00000000 00000000 A   T    2205  2205
 COMMSEG       1 00000000 00000000 A   T    2206  2206
 COMNEXT      18 00003344 00000001     O   19869 20464B
 COMNORNG      2 000037C8 00000001     H   20723 20505
1EDIT     (EDIT2193) (12:43) (15MAR04) Ordinary Symbol and Literal Cross Reference                                          Page  119
 COMOPRT       4 00003688 00000001     F   20599 21239
 COMPARE       2 00002FC0 00000001     H   19010 19006
 COMPBACK      2 000032BA 00000001     H   19677 19580B 19602B 19724B
 COMPDIFF      2 00003386 00000001     H   19906 19808B
 COMPDONE      2 00003384 00000001     H   19901 19706B
 COMPFLAG      1 00000020 FFFFFFDE     R   18978 18982  18987
 COMPLINE    256 00000021 FFFFFFDE     X   18990 19618M 19730  19739  19769  20164
 COMPLN1       4 00000000 FFFFFFDE     F   18971 19092  19414  19422M 19423  19424M 19435  19539  19563M 19599  19705M
                                                 19860  19862  19868M 19922M 19923  19924M 19944  19986  20159  20328
                                                 20449
 COMPLN1E      4 00000004 FFFFFFDE     F   18972 19473  19483M 19599  20328
 COMPLN2       4 00000008 FFFFFFDE     F   18973 19279  19414  19422  19423M 19424  19436  19626  19650M 19721  19871
                                                 19877M 19922  19923M 19924  20033  20220  20343  20450
 COMPLN2E      4 0000000C FFFFFFDE     F   18974 19524  19532M 19721  20343
 COMPLST       4 0000343C 00000001     I   20162 20221B
 COMPRT        4 00003570 00000001     F   20493 21237
 COMPSING      2 0000397E 00000001     H   21139 20550  20565  20626  20641
 COMPSVL      16 00000010 FFFFFFDE     X   18975 19394M 19394  19686M 19686  19705  19860M
 COMPWA      289 00000000 FFFFFFDE     J   18997 19023  19052U 19056  19064U 19072M 19072  19073M 19073  20457M 20457
                                                 20458M 20458  20484  20486  20487
 COMREST       2 00002FFE 00000001     H   19089 20459B
 COMRNG        2 000037F4 00000001     H   20784 20520
 COPY          2 00004A2C 00000001     H   25156 25152
 COPYA         2 00005B6E 00000001     H   28827 28823
 COPYAAPP      2 00005E6A 00000001     H   29615 29395
 COPYADST      4 00000008 FFFFFFD8     F   28810 29210  29585M 29728  29767
 COPYAFAPPEND
             128 00000000 FFFFFFD8        28805 29655M 29811
 COPYAFLG      1 00000000 FFFFFFD8     R   28801 28805
 COPYAOLD      4 0000000C FFFFFFD8     F   28811 29153M 29267  29307
 COPYAPRT      4 00005D70 00000001     F   29368 29890
 COPYARTN      2 00005E96 00000001     H   29685 29892
 COPYASRC      4 00000004 FFFFFFD8     F   28809 29081M 29085  29124
 COPYATO       2 00005DE8 00000001     H   29416 29380
 COPYAWA      16 00000000 FFFFFFD8     J   28818 28840  28869U 28873  28881U 28890M 28890  29356  29358  29359
 COPYEXEC      2 000056AE 00000001     H   27662 26943
 COPYFROM      2 00005656 00000001     H   27541 26928
 COUNT         2 00003B56 00000001     H   21312 21308
 COUNTRTN      2 0000409C 00000001     H   22676 23045
 CP         4096 00000000 FFFFFFEC     J    6219  1194U
 CP#XSTK       1 00000010 FFFFFFEC A   U    3951  3952
 CPACFLG       1 000005D5 FFFFFFEC     R    4054  4058   4063   4068   4073   4078
 CPACFLN       4 000005C4 FFFFFFEC     F    4046  4081   4081
 CPACHCT       4 000005B4 FFFFFFEC     F    4011 18908  18909M 25622  25623M 34051  34052M
 CPACINFO     18 000005C4 FFFFFFEC     X    4081 34063M 34063
 CPACLNO       4 000005A8 FFFFFFEC     F    4008 19085  19086  19093M 19280M 19387M 19944M 23311M 24828M 25852M 26213M
 CPACTMAX      4 00000580 FFFFFFEC     F    3991  7552  13330
 CPACTNO       4 0000057C FFFFFFEC     F    3990  6874   7441   7656   8278  12029  12084
 CPAFDEF      32 000005C3 FFFFFFEC         4032 10461M
 CPAFLAG       1 000005C3 FFFFFFEC     R    4018  4022   4027   4032   4037
 CPAFLNO       4 000005A0 FFFFFFEC     F    4006 21645  33743
 CPAINFO     424 00000588 FFFFFFEC     X    4096  7196
 CPALLNO       4 000005A4 FFFFFFEC     F    4007 19531  21666  29817  33773
 CPALNCT       4 000005AC FFFFFFEC     F    4009 21615
 CPANAME       8 00000588 FFFFFFEC     C    4000  4096   4096   9923  10485M
 CPATITL      80 000005D6 FFFFFFEC     C    4086  9925  10529M
 CPATTEMP      4 00000570 FFFFFFEC     F    3985  8658   8660M  8709   8710M
 CPATTEXT      4 0000056C FFFFFFEC     F    3984  8679   8681M  8731   8732M
 CPATYPE       8 00000590 FFFFFFEC     C    4001  9924  10507M 12028  12083  12142  12191
1EDIT     (EDIT2193) (12:43) (15MAR04) Ordinary Symbol and Literal Cross Reference                                          Page  120
 CPAUTFLG      1 000008A9 FFFFFFEC     R    4364  4368   4373   4378   4383
 CPCHFLAG      1 00000B68 FFFFFFEC     R    4991  4995
 CPCOUNT       4 00000744 FFFFFFEC     F    4108 21675M
 CPCWA         4 00000CA4 FFFFFFEC     F    5243 21368M 22711  22834  28883M 29720  30010M 30801  31108M 32370  33357M
                                                 34579  34865  34981  35097  35188
 CPDATA       32 00000504 FFFFFFEC     X    3934 31119
 CPDATANL      1 00000020 FFFFFFEC A   U    3935 31024  31026
 CPDELTA       4 00000738 FFFFFFEC     F    4103 29818  33943
 CPDFLG        1 0000084C FFFFFFEC     R    4251  4255   4260   4265   4270   4275
 CPDFLG2       1 0000084D FFFFFFEC     R    4280  4284   4289   4294   4299   4304   4309
 CPDOUB        8 00000C88 FFFFFFEC     D    5237 17587  18208  22071  24890
 CPDRPT        4 00000D84 FFFFFFEC     F    5679 19554  19577  19641  19666  25686  25698
 CPERRID       8 00000886 FFFFFFEC     C    4350 19454M 19695M 19880M 22388M 25594M
 CPEVLEN       4 00000DE4 FFFFFFEC     F    5783 30807M
 CPEVLNO       4 00000DE0 FFFFFFEC     F    5782 30805M
 CPEVLOC       4 00000DE8 FFFFFFEC     F    5784 30806M
 CPEXFLG       1 00000758 FFFFFFEC     R    4120  4124
 CPEXFLG2      1 00000759 FFFFFFEC     R    4130  4139   4149
 CPEXFLG3      1 0000075A FFFFFFEC     R    4156  4160   4165
 CPEXNEXT      4 00000760 FFFFFFEC     F    4174 14251M 17467M
 CPEXTFLG      1 00000E28 FFFFFFEC     R    5802  5806   5811   5816   5821   5826   5831
 CPFABORT    128 00000D5A FFFFFFEC         5568  2169M  2169   2174M  2174
 CPFALL        1 00000010 FFFFFFEC A   U    5334 13814  18436  21386  23200  23909  23929  23944  25191  29161  30035
                                                 31130  33372
 CPFALLV       1 00000004 FFFFFFEC A   U    5335 33714
 CPFCLEAN    128 00000C7B FFFFFFEC         5121 16032M
 CPFCOL        2 00000C4E FFFFFFEC     H    5033 13956  13972M 16547  16548  18699  18700  18727  18768  19776  19777
                                                 19779
 CPFCPY        1 00000020 FFFFFFEC A   U    5333 25191  25554  26193  27584  27705
 CPFDSJNT      4 00000D88 FFFFFFEC         5717 33501
 CPFDUMP     128 00000D55 FFFFFFEC         5433 21915
 CPFERROR     64 00000D5A FFFFFFEC         5573  2168M  2168   2173M  2173
 CPFEXPRG    128 00000D88 FFFFFFEC         5692 21586
 CPFFOPT       1 00000010 FFFFFFEC A   U    5423 15441  15940  25533
 CPFFORCE      4 00000C7C FFFFFFEC         5181 15666M
 CPFHIGH       1 00000040 FFFFFFEC A   U    5682 19575  19664  25686
 CPFKEEP       8 00000D55 FFFFFFEC         5453 11274
 CPFMTCH       1 00000008 FFFFFFEC A   U    5683 19552  19639  25698
 CPFNCUR      64 00000D57 FFFFFFEC         5503 13708M 21394M 23317M 25738M
 CPFNLST       1 00000020 FFFFFFEC A   U    5422 16529  18441  18806  19957  21948  25293  25547  25755  25796  26220
                                                 26400
 CPFNMOD      16 00000C7C FFFFFFEC         5171 15426M 15733M 15799M
 CPFNONL     128 00000C7A FFFFFFEC         5101 14995M 15072M 15276M 15420M
 CPFNONUM      1 000000C0 FFFFFFEC A   U    5421 15454  15953  17650  18256
 CPFNPAU     128 00000C7D FFFFFFEC         5196 15432M 15865M
 CPFNTEX       1 00000040 FFFFFFEC A   U    5420  5421  20118
 CPFNTYT       1 00000080 FFFFFFEC A   U    5681 19572  19661  25686
 CPFONEL      16 00000D88 FFFFFFEC         5707 33547
 CPFRDACT      1 00000D89 FFFFFFEC         5736 21571
 CPFRDEXE      2 00000D89 FFFFFFEC         5746 14084  16939  21744  21845  25351  30186  31433
 CPFRDEXT      3 00000D89 FFFFFFEC         5756 13834  13991  14049  16951  21410  21523  21709  21810  25316  25962
                                                 30053  31147  31398
 CPFRDRNG      1 00000D88 FFFFFFEC     R    5688  5692   5697   5702   5707   5712   5717   5722
 CPFRDSRC      1 00000D89 FFFFFFEC     R    5727  5736   5746   5756  27403  27410M 27512M 27814  27821M 27953M 28246
                                                 28253M 28356M 28522M
 CPFSLN        4 00000D90 FFFFFFEC     F    5760 21645  33483
 CPFSOME       2 00000D88 FFFFFFEC         5722 23337
 CPFSTINS      1 00000040 FFFFFFEC A   U    5399 25300  28181
 CPFSTRRG     64 00000D88 FFFFFFEC         5697 33427
1EDIT     (EDIT2193) (12:43) (15MAR04) Ordinary Symbol and Literal Cross Reference                                          Page  121
 CPFSUPLO      8 00000CD0 FFFFFFEC         5281 32808M
 CPFTODFT      1 00000001 FFFFFFEC A   U    5337 25401  27396
 CPFTRAN     128 00000C7C FFFFFFEC         5156 15414M 15931M
 CPFTYPED     16 00000477 FFFFFFEC         3625 18899  25613  34040  34073
 CPFUFMT       8 00000C7C FFFFFFEC         5176 15210M 15534M 15600M
 CPFUNUM       1 00000080 FFFFFFEC A   U    5419  5421  15461  15960  17564  18185  20131
 CPFXAUTH     64 0000075A FFFFFFEC         4165 31851
 CPFXDFLG      1 000007E4 FFFFFFEC     R    4198  4202   4207
 CPGFLG1       1 00000474 FFFFFFEC     R    3561  3565   3570   3575   3580   3585   3915   3915
 CPGFLG10      1 0000047D FFFFFFEC     R    3798  3802   3807   3812   3817   3822   3827
 CPGFLG11      1 0000047E FFFFFFEC     R    3833  3837   3842
 CPGFLG12      1 0000047F FFFFFFEC     R    3848  3852   3857   3862
 CPGFLG13      1 00000480 FFFFFFEC     R    3868  3872
 CPGFLG14      1 00000481 FFFFFFEC     R    3878  3882   3887   3892   3897   3902
 CPGFLG4       1 00000477 FFFFFFEC     R    3614  3625   3634   3643   3652   3661
 CPGFLG5       1 00000478 FFFFFFEC     R    3667  3671   3676   3681   3686   3691   3696   3701   3706
 CPGFLG6       1 00000479 FFFFFFEC     R    3712  3716   3721   3726
 CPGFLG7       1 0000047A FFFFFFEC     R    3732  3736   3741   3746   3751
 CPGFLG8       1 0000047B FFFFFFEC     R    3757  3761   3766   3771   3776
 CPGFLG9       1 0000047C FFFFFFEC     R    3782  3786   3792
 CPINIT        1 00000174 FFFFFFEC     U    2731  6188
 CPJESFLG      1 000009E1 FFFFFFEC     R    4463  4467   4472   4477   4482   4487   4492   4497   4502
 CPJESFLY      1 000009FD FFFFFFEC     R    4513  4517   4522   4527
 CPJESHFL      1 000009E0 FFFFFFEC     R    4448  4452   4457   4536   4536
 CPLCNO        4 0000073C FFFFFFEC     F    4105 17572  17889  18193  18868  19563  19650  24827  25719  26116  26352
                                                 26793  29800  30805  33115  34594  34689
 CPLCOL        2 00000C50 FFFFFFEC     H    5034 16544  16546  18681  18692  18694  18726  19778
 CPLENGTH      2 0000087E FFFFFFEC     H    4348 24491
 CPLFLG1       1 00000D50 FFFFFFEC     R    5331 13816M 18438M 21388M 23202M 23911  23931M 23946  25191M 25401M 25554
                                                 26195  27396M 27586  27707  29163M 30037M 31132M 33374M 33716
 CPLFLG10      1 00000D59 FFFFFFEC     R    5554  5558
 CPLFLG11      1 00000D5A FFFFFFEC     R    5564  5568   5573   5578   5583
 CPLFLG12      1 00000D5B FFFFFFEC     R    5589  5593
 CPLFLG14      1 00000D5C FFFFFFEC     R    5599  5603   5608   5613   5618   5623
 CPLFLG4       1 00000D53 FFFFFFEC     R    5397 25302M 28181M
 CPLFLG5       1 00000D54 FFFFFFEC     R    5416 15443  15456M 15463M 15942  15955M 15962M 16531  17566  17652  18187
                                                 18258  18443M 18808  19959  20120  20133  21950  25295M 25535  25549M
                                                 25755M 25798  26220  26402
 CPLFLG6       1 00000D55 FFFFFFEC     R    5429  5433   5438   5443   5448   5453   5458
 CPLFLG7       1 00000D56 FFFFFFEC     R    5464  5468   5473   5478   5483   5488
 CPLFLG8       1 00000D57 FFFFFFEC     R    5494  5498   5503   5508   5513
 CPLFLG9       1 00000D58 FFFFFFEC     R    5519  5523   5528   5533   5538   5543   5548
 CPLOCALZ      1 00000C48 FFFFFFEC     U    5021  6182   6182
 CPLSLN        4 00000D94 FFFFFFEC     F    5761 21666  33484  33516
 CPMFLG        1 0000084F FFFFFFEC     R    4318  4322
 CPMODFLG      1 00000C78 FFFFFFEC     R    5049  5053   5058   5063   5068   5073
 CPNAMELN      1 00000010 FFFFFFEC A   U    3944  4191
 CPNEDPFX     10 00000E29 FFFFFFEC     X    5835  5836   5837
 CPNSCANP      4 0000008C FFFFFFEC     A    2604  6823   6830   6846   7284   7291   7307   8225   8232   8248   9174
                                                  9446   9541  10015  10021  10028  10043  10122  10159  10169  10176
                                                 10191  10334  10355  10416  10423  10439  10915  11077  11083  11090
                                                 11105  11184  11221  11228  11235  11251  11652  11659  11675  13846
                                                 13853  13869  13898  13905  13921  16156  18450  18457  18473  19096
                                                 19103  19119  19163  19170  19185  19199  19220  19283  19290  19306
                                                 19350  19357  19373  20389  20395  20402  20417  20445  20823  20829
                                                 20836  20851  20897  20904  20920  20951  21422  21429  21445  21474
                                                 21481  21497  23210  23217  23233  24058  24065  24081  24192  24199
                                                 24215  24330  24337  24353  25432  25439  25455  25484  25491  25507
                                                 27413  27420  27436  27824  27831  27847  28256  28263  28279  28424
1EDIT     (EDIT2193) (12:43) (15MAR04) Ordinary Symbol and Literal Cross Reference                                          Page  122
                                                 28431  28447  28896  28903  28918  29173  29180  29196  30065  30072
                                                 30088  30194  30201  30217  30285  30292  30308  31155  31162  31178
                                                 31207  31214  31230  32780  32816  32823  32836  33143  33150  33163
                                                 33382  33389  33405  35313  35320  35336  35602  35609  35625
 CPNUMFLG      1 00000C79 FFFFFFEC     R    5079  5091
 CPORVCMD      1 00000140 FFFFFFEC     R    2613  2617   2622   2627   2632   2637   2642   2647   2652   2657   2657
                                                  2708   2708
 CPORVFLG      1 00000149 FFFFFFEC     R    2664  2668   2673   2678   2683   2688   2693   2698   2703
 CPORVWF       1 00000150 FFFFFFEC     R    2716  2720
 CPOSCANX      4 00000CA8 FFFFFFEC     F    5248  5315   5315
 CPR          11 0000000B 00000001 A   #    1078  1194U
 CPRACBAD     16 000001FC FFFFFFEC         2782  2816   2816   2817   2817
 CPRACF1       1 000001FC FFFFFFEC     R    2763  2767   2772   2777   2782   2787   2792   2797   2802   2818
 CPRACPSW     32 000001FC FFFFFFEC         2777  2815   2815   2817   2817
 CPRACUND     64 000001FC FFFFFFEC         2772  2815   2815   2816   2816
 CPRCVCUR      4 00000730 FFFFFFEC     A    4099  4101   4101
 CPRFLG        1 000008AA FFFFFFEC     R    4389  4393   4398   4403   4408   4413   4418
 CPS         254 00000344 FFFFFFEC     X    3533  3536   3537   3539   3539
 CPSACCT       5 000003B4 FFFFFFEC     C    3132  3295   3295
 CPSAMCOD      1 00000A22 FFFFFFEC     R    4585  4593   4603   4613   4622   4631   4640   4650   4659   4668
 CPSAMFLG      1 00000A21 FFFFFFEC     R    4545  4549   4554   4559   4564   4569   4574   4579   4690   4690
 CPSCNFLG      1 00000CD0 FFFFFFEC     R    5261  5272   5281   5292
 CPSCNF2       1 00000CD1 FFFFFFEC     R    5297  5301
 CPSCNMAX      1 00000014 FFFFFFEC A   U    5313  5314
 CPSCRI        2 00000434 FFFFFFEC     H    3522  3527   3527
 CPSEG        60 00000050 FFFFFFEC     X    2602  6958   6980   6998   8312   8330   8392   8414  10139  10315  10391
                                                 11201  11747  11769  11847  11869  11899  11927  11974  12485  12503
                                                 12521  13207  13370  14163  14192  16321  16339  16841  16907  16978
                                                 17278  17327  17372  17391  17602  17632  17684  17884  17913  17966
                                                 17998  18064  18223  18304  18336  18845  19894  19981  20010  20028
                                                 20057  20085  20103  20210  20248  21931  21977  22021  22051  22095
                                                 22381  23297  23377  23628  23650  24852  24870  24914  24948  24983
                                                 25841  26256  26421  26450  26498  26527  26545  26583  26610  26628
                                                 26788  26817  28986  29004  29114  29136  29236  29297  29319  29490
                                                 29508  29757  29779  30815  30816  30816  30820  30840  30848  30957M
                                                 31348  31370  33110  33247  33446  33464  33667  33838  33856  34093
                                                 34122  34140  34257  34275  34304  34322  34351  34444  34466  34488
                                                 34661
 CPSEGCOD      1 00000050 FFFFFFEC     R    2519  2528   2538   2548   2558   2568   2578   2588
 CPSEGRTN      4 00000074 FFFFFFEC     A    2599 30848M 30848
 CPSFL         1 00000384 FFFFFFEC     R    2870  2874   2879   2884   2889   2894
 CPSFLG        1 000003F8 FFFFFFEC     R    3410  3414   3419   3424   3429   3434   3439   3444   3449
 CPSFLG2       1 000003F9 FFFFFFEC     R    3455  3459   3464   3469
 CPSFL2        1 00000385 FFFFFFEC     R    2900  2904   2909   2914   2919
 CPSFL3        1 00000386 FFFFFFEC     R    2925  2929   2934   2939
 CPSFL4        1 00000387 FFFFFFEC     R    2945  2949   2954   2959
 CPSFL5        1 00000388 FFFFFFEC     R    2965  2969   2974   2979
 CPSFSPR      32 000003BE FFFFFFEC         3235 31839
 CPSKAFL       1 000003BF FFFFFFEC     R    3266  3270   3275   3280   3285   3290
 CPSKIFL       1 000003BE FFFFFFEC     R    3221  3225   3230   3235   3240   3245   3250   3255   3260
 CPSOF         1 000001F8 FFFFFFEC     X    2753  2755   2755
 CPSOFLAG      1 00000416 FFFFFFEC     R    3480  3484   3489   3494   3499   3504
 CPSOPST       4 000003C4 FFFFFFEC     F    3300  3529   3529
 CPSPORT       8 00000354 FFFFFFEC     C    2864  2984   2984
 CPSQFLG       1 000003EC FFFFFFEC     R    3329  3333
 CPSSFLG       1 000003BB FFFFFFEC     R    3139  3143   3148   3153   3158   3163   3168
 CPSSTART      4 00000344 FFFFFFEC     F    2856  2860   2860   3296   3296   3401   3401   3533   3533
 CPSSTAT       1 0000038F FFFFFFEC     R    3076  3080   3085   3090   3095   3100   3105   3110
 CPSTACF       1 000003BC FFFFFFEC     R    3174  3178   3183   3188   3193   3198   3203   3208   3213
1EDIT     (EDIT2193) (12:43) (15MAR04) Ordinary Symbol and Literal Cross Reference                                          Page  123
 CPSTART       4 00000000 FFFFFFEC     C    2492  6186   6190
 CPSTFLAG      1 000003EA FFFFFFEC     R    3307  3311   3316   3321
 CPSTLNO       4 00000740 FFFFFFEC     F    4106 26335  26346  26389M
 CPSTYPE       1 0000038C FFFFFFEC     R    2989  2998   3008   3018   3028   3038   3048   3058   3068
 CPSUFLG       1 000003EE FFFFFFEC     R    3344  3348   3353   3358   3363   3368   3373   3378   3383
 CPSUFLG2      1 000003EF FFFFFFEC     R    3389  3393   3398
 CPSVPGM       8 0000039C FFFFFFEC     C    3122  3128   3128
 CPS1ST        4 0000038C FFFFFFEC     F    2986  3531   3531
 CPTEMPP#      1 0000005F FFFFFFEC A   U    4439  4441
 CPTRMFL1      1 00000C7A FFFFFFEC     R    5097  5101   5106   5111   5235   5235
 CPTRMFL2      1 00000C7B FFFFFFEC     R    5117  5121   5126   5131   5136   5141   5146
 CPTRMFL3      1 00000C7C FFFFFFEC     R    5152  5156   5161   5166   5171   5176   5181   5186
 CPTRMFL4      1 00000C7D FFFFFFEC     R    5192  5196   5201   5206   5211   5216   5221   5226
 CPUSED        1 00000FBC FFFFFFEC A   U    6186  6187
 CPVACURS      8 00000AF0 FFFFFFEC     D    4964  4965   4966
 CPVCURS       8 00000AE0 FFFFFFEC     D    4958  4959   4960
 CPVFLAG       1 00000AC8 FFFFFFEC     R    4759  4763   4768   4773   4778   4783
 CPVFLAG2      1 00000AC9 FFFFFFEC     R    4789  4793   4798   4803   4808   4813   4818
 CPVFLAG3      1 00000ACA FFFFFFEC     R    4824  4828   4833   4838   4843   4848   4853
 CPVFLAG4      1 00000ACB FFFFFFEC     R    4859  4863   4868   4873
 CPVLFLAG      1 00000ACE FFFFFFEC     R    4928  4932   4937   4942
 CPVMODE       1 00000ACC FFFFFFEC     R    4881  4885   4890   4895   4900   4905   4910   4915   4920
 CPVTWID       2 00000AD0 FFFFFFEC     H    4948  4951   4951
 CPWK1         4 00000D60 FFFFFFEC     F    5632  5647   5670
 CPWK2         4 00000D64 FFFFFFEC     F    5633  5648   5662
 CPWK3         4 00000D68 FFFFFFEC     F    5634  5649   5663  18492M 18492  18884M 18884  18914M
 CPWK4         4 00000D6C FFFFFFEC     F    5635  5650   5664  13804M 16511  23193M 24630  25279M 26123
 CPWK5         4 00000D70 FFFFFFEC     F    5636  5652   5657   5665
 CPWK6         4 00000D74 FFFFFFEC     F    5637  5653   5658   5666   5673   5675
 CPWK7         4 00000D78 FFFFFFEC     F    5638  5651   5667
 CPXFLAG       1 000007FD FFFFFFEC     R    4226  4230
 CPXSTATE      4 000007F8 FFFFFFEC     F    4220  4233   4233
 CTOTAL        2 00003FFC 00000001     H   22448 22240
 CV         4016 00000000 FFFFFFEE     J    2395  1203U
 CVABORT       4 000007DA FFFFFFEE     I    2174 14214B 17430B 18931B 20215B 20253B 20282B 20361B 25846B 26592B 26637B
                                                 26643B
 CVABSENT      4 000007F0 FFFFFFEE     I    2184 24430B 28941B 35411B
 CVABSRTN      4 0000088C FFFFFFEE     V    2209  2184
 CVABTMSG      4 000007CC FFFFFFEE     I    2169 13381B 18009B 27598B 27719B 31863B 33678B
 CVBLANKS    235 000004D8 FFFFFFEE     C    1989 11884  16679  16895  17617  17669  18236  18273  18755  22036  32438
                                                 32575  32967
 CVBRMSK       1 00000751 FFFFFFEE     X    2125  2126   2127
 CVCFLAG       1 00000A00 FFFFFFEE     R    2290  2294   2299   2304   2309   2314
 CVCHKST       8 000009F0 FFFFFFEE     D    2280  2370   2370
 CVCHKST2      8 00000E28 FFFFFFEE     D    2373  2376   2376
 CVCOMRTN      4 0000087C FFFFFFEE     V    2205  2175
 CVCURJCB      4 000001C8 FFFFFFEE     A    1474 14220  17436  19818  20254
 CVDATA       32 00000340 FFFFFFEE     X    1609 31875
 CVDBGFLG      1 000004CC FFFFFFEE     R    1979  1983
 CVENT         4 0000074C FFFFFFEE     I    2123  6786B  7103B  7232B  7880B  7946B  8007B  8171B  9051B  9112B  9242B
                                                  9313B  9384B  9514B  9609B  9688B  9767B  9846B  9963B 10766B 10827B
                                                 10888B 10977B 11051B 11408B 11601B 12451B 12572B 12665B 12758B 12851B
                                                 12944B 13035B 13101B 13167B 13292B 13682B 13756B 14750B 14816B 14887B
                                                 14958B 15035B 15112B 15178B 15250B 15316B 15382B 15507B 15574B 15640B
                                                 15706B 15773B 15839B 15905B 16006B 16072B 16133B 16218B 16287B 16480B
                                                 17531B 17789B 18148B 18411B 18632B 19026B 20737B 20798B 20999B 21066B
                                                 21153B 21328B 22320B 22462B 22583B 22690B 22804B 23146B 23588B 23880B
                                                 24003B 24137B 24271B 24409B 24470B 24534B 24609B 25170B 25239B 26084B
                                                 26754B 27282B 27349B 27491B 27555B 27676B 27793B 27902B 28020B 28148B
1EDIT     (EDIT2193) (12:43) (15MAR04) Ordinary Symbol and Literal Cross Reference                                          Page  124
                                                 28225B 28334B 28401B 28499B 28567B 28633B 28700B 28843B 29430B 29629B
                                                 29699B 29970B 30514B 30643B 30780B 31065B 31746B 31807B 31916B 31982B
                                                 32048B 32121B 32218B 32279B 32349B 33314B 34558B 34844B 34960B 35076B
                                                 35167B 35290B 35390B 35451B 35515B 35579B
 CVENTBR       2 00000750 FFFFFFEE     I    2124  2125
 CVERRMSG      4 000007C8 FFFFFFEE     I    2168  8341B  8425B 10326B 10402B 11286B 11780B 11948B 12051B 12106B 12228B
                                                 12532B 13218B 19154B 19341B 19459B 19510B 19700B 21026B 21107B 22393B
                                                 25599B 25676B 26828B 27309B 27391B 27624B 27745B 27975B 28062B 28088B
                                                 29015B 29147B 29247B 29330B 29519B 29790B 30121B 30250B 30341B 31269B
                                                 31381B 33132B 33475B 33867B 34672B 34904B 35020B 35227B
 CVERROR       4 000007D6 FFFFFFEE     I    2173  2189B 23327B 24988B
 CVEXIRTN      4 0000077C FFFFFFEE     V    2153  2149
 CVEXNO        1 00000000 0000003A     T   17742 17742  18104  18369  21246  25049  26716  28761  33244  35795
 CVFCHRKBPR
               8 000004C9 FFFFFFEE         1894  1910   1910
 CVFCHRKBSE
               4 000004C9 FFFFFFEE         1899  1910   1910
 CVFCHRKCPR
               2 000004C9 FFFFFFEE         1916  1932   1932
 CVFCHRKCSE
               1 000004C9 FFFFFFEE         1921  1932   1932
 CVFCHRUBPR
             128 000004C9 FFFFFFEE         1850  1866   1866
 CVFCHRUBSE
              64 000004C9 FFFFFFEE         1855  1866   1866
 CVFCHRUCPR
              32 000004C9 FFFFFFEE         1872  1888   1888
 CVFCHRUCSE
              16 000004C9 FFFFFFEE         1877  1888   1888
 CVFL          1 000004C4 FFFFFFEE     R    1646  1650   1655   1660   1665   1670   1675   1680   1685
 CVFL2         1 000004C5 FFFFFFEE     R    1691  1695   1700   1705   1710   1715   1720   1725   1730
 CVFL3         1 000004C6 FFFFFFEE     R    1736  1740   1745   1750   1755   1760   1765   1770   1775
 CVFL4         1 000004C7 FFFFFFEE     R    1781  1785   1790   1795   1800   1805   1810   1815
 CVFL5         1 000004C8 FFFFFFEE     R    1821  1825   1830   1835   1840
 CVFL6         1 000004C9 FFFFFFEE     R    1846  1850   1855   1867   1872   1877   1889   1894   1899   1911   1916
                                                  1921   1933
 CVHEAP#       1 00000200 FFFFFFEE A   U    1552  1553
 CVHILNO       4 00000160 FFFFFFEE     A    1439 25628  26310
 CVINVRTN      4 00000888 FFFFFFEE     V    2208  2178
 CVJESFLG      1 000004CA FFFFFFEE     R    1939  1943
 CVLNKRGS      4 00000780 FFFFFFEE     F    2155  2130M  2156   7407M  7622M 13421M
 CVLNKRTN      4 000007B0 FFFFFFEE     U    2156  2145M
 CVLOCK1       1 00000088 FFFFFFEE     R    1297  1301   1306
 CVLOCK2       1 00000089 FFFFFFEE     R    1311  1315
 CVLOCK3       1 0000008A FFFFFFEE     R    1320  1324
 CVLOCK4       1 0000008B FFFFFFEE     R    1329  1333
 CVLOGMOD      1 00000068 FFFFFFEE     R    1284  1288
 CVMACH        1 00000067 FFFFFFEE     R    1244  1248   1253   1258   1263   1268   1273   1278
 CVMAXLNO      4 0000015C FFFFFFEE     A    1438 33582  33780
 CVMILRTN      4 00000884 FFFFFFEE     V    2207  2187
 CVNEXT        4 000007DE FFFFFFEE     I    2175  7008B  7523B  7738B  7755B  8777B 10148B 10566B 11210B 11302B 12236B
                                                 13504B 14016B 14197B 14252B 17468B 19962B 20153B 20308B 20331B 20346B
                                                 21548B 21953B 23340B 23358B 23542B 25196B 25775B 25987B 26006B 29336B
                                                 30145B 30358B 31473B 34149B
 CVNOACTN      4 000007EA FFFFFFEE     I    2181 16344B 34494B
 CVNOARTN      4 00000890 FFFFFFEE     V    2210  2181
 CVNWDATE      4 00000608 FFFFFFEE     F    2012  2016   2016
 CVNWMPG#      1 00000008 FFFFFFEE A   U    2014  2015
 CVNXTMSG      4 000007D0 FFFFFFEE     I    2170 20378B 22108B
1EDIT     (EDIT2193) (12:43) (15MAR04) Ordinary Symbol and Literal Cross Reference                                          Page  125
 CVONE         4 000004D0 FFFFFFEE     F    1987 26347  34684
 CVPFXRTN      1 00000000 00000000 A   T    2153  2153
 CVPGFLAG      1 00000A01 FFFFFFEE     R    2320  2324   2329   2334
 CVPIOSZ       1 00004F80 FFFFFFEE A   U    1383  1385
 CVPPDBQH      4 0000009C FFFFFFEE     A    1341  1342
 CVPSFNO       1 000003E9 FFFFFFEE A   N    1505  1507
 CVPSLNO       1 000007CF FFFFFFEE A   N    1506  1507
 CVPXSZ        1 00000008 FFFFFFEE A   U    1384  1385
 CVR          12 0000000C 00000001 A   #    1091  1203U
 CVRKEY        1 00000008 FFFFFFEE A   U    2078  2079
 CVSEGRTN      4 00000880 FFFFFFEE     V    2206  2170
 CVSTACK#      1 00000080 FFFFFFEE A   U    1544  1545
 CVSTART       4 00000000 FFFFFFEE     C    1217  2388
 CVTRC         4 00000768 FFFFFFEE     I    2145  2131B  7408B  7623B 13422B
 CVTRCRTN      4 00000778 FFFFFFEE     V    2152  2146
 CVUPPTBL      4 000008A8 FFFFFFEE     V    2215 22512  22899  32511  32724
 CVUSFNO       1 00000001 FFFFFFEE A   N    1512  1514
 CVUSLNO       1 000003E7 FFFFFFEE A   N    1513  1514
 CVVOL#        1 00000005 FFFFFFEE A   U    2363  2364
 CVWTOFLG      1 000004CB FFFFFFEE     R    1949  1953   1958   1963   1968   1973
 DEBUGSG       1 00000000 00000000 A   T    2106  2106
 DELRANGE      1 00000000 00000052     T   26706 26706
 DEQSTR        1 00000000 0000004C     T   23060 23060
 DEQUOTE       1 00000000 0000005E     T   33235 33235
 DESABORT      1 00000004 FFFFFFEC A   U    6202 16393  16396  16397  21227  23044  23047  23048  23049  23051  25041
                                                 26698  26701  26702  29891  33215  33220  33222  35788
 DESLOOP       2 00004C96 00000001     H   25854 25997B
 DESNRTN       1 00000000 FFFFFFEC A   U    6196 21227
 DESPOT        1 00000000 0000005A     T   33221 33221
 DESRTRN       1 00000080 FFFFFFEC A   U    6195 16393  16396  16397  23044  23047  23048  23049  23051  25041  26698
                                                 26701  26702  29891  33215  33220  33222  35788
 DEV          12 00000000 FFFFFFEB     J    4744  4752
 DEVMAX#       1 00000002 FFFFFFEC A   U    4695  4752
 DEVTYPE       1 00000001 FFFFFFEB     R    4712  4721   4731
 DOFNAME       1 00000000 00000058     T   28765 28765
 DONT          6 000039AA 00000001     C   21208 19538  20072  20384
 DOSHOSZ       2 0000488A 00000001     H   24595 25042
 DOTTBL        1 00000000 00000000 A   T    2222  2222
 DRENCFLG      1 00000F9F FFFFFFEC     R    6150  6154   6159   6164   6169   6174
 DRENPROT      1 00000F9E FFFFFFEC     R    6137  6145
 DSNFSTAT      8 00000F37 FFFFFFEC         5949 14033M
 DSNON        40 00000E90 FFFFFFEC     C    5870  5871
 DSNWADSN     44 00000E5C FFFFFFEC     C    5857  5858   5859   5860   5869   5877   6108   6114   6116   6122   6125
                                                  6127   6130   6179
 DSNWAF4       1 00000F37 FFFFFFEC     R    5925  5929   5934   5939   5944   5949   5954   5959   5964
 DSNWAF5       1 00000F38 FFFFFFEC     R    5970  5974   5979   5984   5989   5994   5999   6004   6009
 DSNWAF6       1 00000F39 FFFFFFEC     R    6015  6019   6024   6029   6034   6039   6044   6049   6054
 DSNWAF7       1 00000F3A FFFFFFEC     R    6060  6064   6069   6074   6079
 DSNXG         1 00000004 FFFFFFEC A   U    5862  5864
 DSNXGL        1 00000003 FFFFFFEC A   U    5863  5864
 DSNXU         1 00000007 FFFFFFEC A   U    5864  5866
 DSNXUL        1 00000004 FFFFFFEC A   U    5865  5866
 DSSIZ         1 00000108 FFFFFFEC A   U    6108  6116   6125   6130
 DTB           1 00000000 00000059     T   29885 29885
 EBCTBL        1 00000000 00000000 A   T    2218  2218
 EBCTBL7       1 00000000 00000000 A   T    2221  2221
 ECBLIST       1 00000000 00000000 A   T    2081  2081
 EDIT2193      1 00000000 00000001     R    1138  1136
 ENDLNO        1 00000000 0000004D     T   26684 26684
1EDIT     (EDIT2193) (12:43) (15MAR04) Ordinary Symbol and Literal Cross Reference                                          Page  126
 EPARTBL       1 00000000 00000000 A   T    2213  2213
 EVAFSPEC    128 00000000 FFFFFFD7        29928 30109  30238  30329  30599M 30728M
 EVALEXP     256 00000008 FFFFFFD7     C   29933 30582M 30936  33223
 EVALEXPL      4 00000004 FFFFFFD7     F   29932 30554M 30941
 EVALFLAG      1 00000000 FFFFFFD7     R   29924 29928
 EVALPRT       4 000062C4 00000001     F   30422 33219
 EVALPRTF      4 00006274 00000001     F   30391 33209
 EVALRES     256 0000020C FFFFFFD7     C   29938 30880  30881  30942  30943
 EVALRSK       2 000064C8 00000001     H   30954 30902B 30915B
 EVALRTN       2 00006424 00000001     H   30766 33216
 EVALSTR       1 00000000 0000005C     T   33226 33226
 EVALTEST    256 0000010C FFFFFFD7     C   29936 30711M 30860  33224
 EVALTSTL      4 00000108 FFFFFFD7     F   29935 30683M 30865
 EVALUATE      2 00006068 00000001     H   29954 29950
 EVALWA      780 00000000 FFFFFFD7     J   29945 29967  29996U 30000  30008U 30017M 30017  30018M 30018  30019M 30019
                                                 30020M 30020  30378  30380  30381
 EXPR          2 0000638C 00000001     H   30500 30464
 EXTCLOSE      1 00000000 0000004F     T   26703 26703  33218
 EXTOPEN       1 00000000 00000030     T   16391 16391  23043  26694  33214
 FIXUPP        2 00004E0A 00000001     H   26314 26183B 26309B
 FIXUPP1       4 00004E22 00000001     I   26337 26334B
 FNAMEFIN      1 00000000 0000002F     T   16390 16390  23042  26693  33213
 FNAMESCN      1 00000000 00000027     T   14294 14294  22149  30403  31515
 FNAMPSHF      1 00000000 00000029     T   14324 14324  22164  26868  30418  31530
 FREVERSE     64 00000020 FFFFFFDE        18987 19401M 19430M 19914
 FRNGTYP       1 000000C0 FFFFFFEC A   U    6204 33514
 FSINGLE     128 00000020 FFFFFFDE        18982 20305  21179M
 FSR           0 00000000 00000001 A   #    1001  6780   7028M  7098   7148M  7163M  7226   7775M  7875   7921M  7941
                                                  7982M  8002   8048M  8165   8797M  9046   9087M  9107   9217M  9237
                                                  9288M  9308   9359M  9379   9489M  9509   9584M  9604   9663M  9683
                                                  9742M  9762   9821M  9841   9900M  9957  10586M 10761  10802M 10822
                                                 10863M 10883  10952M 10972  11013M 11046  11317M 11403  11451M 11595
                                                 12256M 12446  12547M 12567  12640M 12660  12733M 12753  12826M 12846
                                                 12919M 12939  13010M 13030  13076M 13096  13142M 13162  13233M 13286
                                                 13524M 13677  13727M 13750  14272M 14745  14791M 14811  14862M 14882
                                                 14933M 14953  15010M 15030  15087M 15107  15153M 15173  15225M 15245
                                                 15291M 15311  15357M 15377  15482M 15502  15549M 15569  15615M 15635
                                                 15681M 15701  15748M 15768  15814M 15834  15880M 15900  15981M 16001
                                                 16047M 16067  16108M 16128  16193M 16213  16262M 16282  16359M 16474
                                                 17494M 17526  17716M 17784  18087M 18143  18355M 18406  18516M 18626
                                                 18956M 19020  20484M 20732  20773M 20793  20974M 20994  21041M 21061
                                                 21128M 21148  21194M 21322  22128M 22315  22437M 22457  22558M 22578
                                                 22652M 22685  22755M 22798  23012M 23140  23562M 23583  23670M 23875
                                                 23978M 23998  24112M 24132  24246M 24266  24384M 24404  24445M 24465
                                                 24493M 24509M 24529  24557M 24573M 24604  25011M 25165  25211M 25233
                                                 26026M 26078  26667M 26749  26843M 27277  27324M 27344  27466M 27486
                                                 27530M 27550  27651M 27671  27768M 27788  27877M 27897  27995M 28015
                                                 28123M 28143  28200M 28220  28309M 28329  28376M 28396  28474M 28494
                                                 28542M 28562  28608M 28628  28675M 28695  28736M 28837  29356M 29425
                                                 29604M 29624  29670M 29694  29858M 29964  30378M 30509  30618M 30638
                                                 30747M 30775  30973M 31059  31494M 31741  31782M 31802  31891M 31911
                                                 31957M 31977  32023M 32043  32096M 32116  32193M 32213  32254M 32274
                                                 32315M 32344  33191M 33308  34515M 34553  34709M 34839  34934M 34955
                                                 35050M 35071  35141M 35162  35257M 35285  35349M 35365M 35385  35426M
                                                 35446  35474M 35490M 35510  35538M 35554M 35574  35638M 35654M
 GETLINE       1 00000000 00000054     T   26708 26708
 GETLNO        1 00000000 00000056     T   26712 26712  35800
 GOTLEN        2 00004824 00000001     H   24456 23845
 GOTNUM        2 00004858 00000001     H   24520 23830
1EDIT     (EDIT2193) (12:43) (15MAR04) Ordinary Symbol and Literal Cross Reference                                          Page  127
 HAVBY         2 00005700 00000001     H   27779 26913
 HAVBY1        2 0000578A 00000001     H   27888 27140
 HAVCOMB       2 000057E2 00000001     H   28006 27003  28769
 HAVEOVER      2 00004630 00000001     H   23989 23694
 HAVEQUAL      2 00004760 00000001     H   24257 23724
 HAVLINS       2 000045E0 00000001     H   23866 23739  23754  23769
 HAVLNENO      2 0000561E 00000001     H   27477 27094
 HAVLN1        2 00003284 00000001     H   19588 19557B
 HAVLN2        2 000032E0 00000001     H   19710 19644B 19669B
 HAVNEG        2 00005936 00000001     H   28387 27201
 HAVNEG1       2 000059BA 00000001     H   28485 27247
 HAVPLUS       2 00005872 00000001     H   28211 26988
 HAVPLUS1      2 000058FC 00000001     H   28320 27186
 HAVREP        2 0000583C 00000001     H   28134 27018
 HAVTO         2 00005578 00000001     H   27335 26898
 HAVUNDER      2 000046C8 00000001     H   24123 23709
 HEXFMT        1 00000000 0000003B     T   17743 17743
 HEXSTR        1 00000000 0000004B     T   23058 23058
 HIBAL         1 00000000 FFFFFFFF     J     691   707    720    733    746    759    772    785    798    811    824
                                                   837    850    863    876    889    902
 INVALID       1 00000000 00000000 A   T    2208  2208
 JCB         208 00000000 FFFFFFE9     J    6611 14230U 17446U 19828U 20264U
 JCBAFL        1 00000062 FFFFFFE9     R    6456  6460   6465   6470   6475   6480   6485   6490   6495
 JCBBFL        1 00000063 FFFFFFE9     R    6501  6505   6510   6515   6520   6525   6530   6535
 JCBBILLX      8 00000088 FFFFFFE9     D    6586  6594   6594
 JCBFATTN      2 00000062 FFFFFFE9         6490 14242M 17458M 19843  20279
 JCBRSCF1      1 00000064 FFFFFFE9     R    6541  6545   6550   6555
 JCBSFLG1      1 00000065 FFFFFFE9     R    6561  6565   6570
 JCBWFL        1 00000060 FFFFFFE9     R    6385  6389   6394   6399   6404   6409   6414   6419   6424   6452
 JCBWWFL       1 00000061 FFFFFFE9     R    6430  6434   6439   6444   6449
 KNTLINE     256 00000000 FFFFFFDC     C   22771 22891M 22908M 22916
 KNTWA       256 00000000 FFFFFFDC     J   22778 22801  22830U 23012  23014  23015
 KOWNTTOT      2 000040D4 00000001     H   22788 23050
 LASTLINE      1 00000000 00000050     T   26704 26704
 LATTN         2 000026F4 00000001     H   16204 14670
 LBINARY       2 000024D0 00000001     H   15368 14370
 LCC           2 000023B4 00000001     H   14944 14430
 LCLEAN        2 00002660 00000001     H   15992 14625
 LDOUBLE       2 00002354 00000001     H   14802 14400
 LEXATRTN      1 00000040 FFFFFFEC A   U    6197 16396  23047  23051  26701  33220
 LFMT          2 0000251C 00000001     H   15493 14550
 LFORCE        2 00002574 00000001     H   15626 14580
 LFULL         2 000024A4 00000001     H   15302 14490
 LHEX          2 0000241C 00000001     H   15098 14460
 LINDENT       2 0000268C 00000001     H   16058 14640
 LISFBIN      64 00000001 FFFFFFE1        13642 15408M 17095
 LISFCC       16 00000000 FFFFFFE1        13613 13949  13949  13950  14135  14135  14136  14984M 15066M 16712
 LISFDOUB     64 00000000 FFFFFFE1        13603 14842M 14918M 17299  17299  17300
 LISFFULL    128 00000001 FFFFFFE1        13637 15342M 16922
 LISFHEX       4 00000000 FFFFFFE1        13623 15138M 17009
 LISFMC        8 00000000 FFFFFFE1        13618 13949  13949  14135  14135  14989M 15061M 16862  17141
 LISFMIX       2 00000000 FFFFFFE1        13628 15204M 17024  17062
 LISFSQU     128 00000000 FFFFFFE1        13598 14776M 16578
 LISFTRIP     32 00000000 FFFFFFE1        13608 14847M 14913M 17299  17299  17345
 LIST          2 00001C7A 00000001     H   13668 13664
 LISTALNO      4 00000008 FFFFFFE1     F   13651 13803M 14211  14251  16243M 17427  17467
 LISTATTN      2 00002A3E 00000001     H   17416 16695B
 LISTBIN       2 00002B5C 00000001     H   17775 17736
 LISTEXIT      2 00002A5A 00000001     H   17477 16534B 16696B
1EDIT     (EDIT2193) (12:43) (15MAR04) Ordinary Symbol and Literal Cross Reference                                          Page  128
 LISTFLG       1 00000000 FFFFFFE1     R   13594 13598  13603  13608  13613  13618  13623  13628
 LISTFLG2      1 00000001 FFFFFFE1     R   13633 13637  13642
 LISTHEX       2 00002A68 00000001     H   17517 17734
 LISTIND       2 00000004 FFFFFFE1     H   13650 16093M 16899  17694
 LISTLINE      1 00000000 00000037     T   17737 17737  21231  26709
 LISTMARK      1 00000003 FFFFFFE1     C   13649 16165  16170  16610  16624  16641
 LISTMIX       2 00002CD8 00000001     H   18134 17735
 LISTPRT       4 00001EF0 00000001     F   14328 16389
 LISTPRTX      4 00001E78 00000001     F   14282 16386
 LISTPSH       1 00000000 0000003E     T   18538 18538
 LISTRTN       2 00002828 00000001     H   16464 16394
 LISTSKIP      2 000029A4 00000001     H   17133 16878B
 LISTWA       12 00000000 FFFFFFE1     J   13658 13753  13782U 13786  13794U 13802M 13802  14272  14274  14275  16519U
 LMARKER       2 000026B8 00000001     H   16119 14655
 LMC           2 000023E8 00000001     H   15021 14445
 LMIXED        2 00002448 00000001     H   15164 14475
 LMODEL        2 000025A0 00000001     H   15692 14520
 LNOMODEL      2 000025CC 00000001     H   15759 14535
 LNONL         2 00002478 00000001     H   15236 14505
 LNOPAUSE      2 000025F8 00000001     H   15825 14595
 LNO2PRT       4 00003750 00000001     F   20675 21251
 LOCATE        1 00000000 00000043     T   21241 21241  26691
 LOCATRTN      1 00000000 FFFFFFEC A   U    6199 16397  21227  23048  23049  23051  26698  29891  33222  35788
 LOCLIST       1 00000000 0000004E     T   26695 26695
 LOFFLINE      2 0000272C 00000001     H   16273 14685
 LOOPA         4 00003264 00000001     I   19539 19878B
 LOWTBL        1 00000000 00000000 A   T    2216  2216
 LRTNFLAG      1 00000020 FFFFFFE0     R   16429 16437  16442  16442
 LRTNWA       40 00000000 FFFFFFE0     J   16449 16477  16506U 17494  17496  17497
 LSQUASH       2 00002328 00000001     H   14736 14385
 LSR           8 00000008 00000001 A   #    1039  6780   7028M  7098   7163M  7226   7775M  7875   7921M  7941   7982M
                                                  8002   8048M  8165   8797M  9046   9087M  9107   9217M  9237   9288M
                                                  9308   9359M  9379   9489M  9509   9584M  9604   9663M  9683   9742M
                                                  9762   9821M  9841   9900M  9957  10586M 10761  10802M 10822  10863M
                                                 10883  10952M 10972  11013M 11046  11317M 11403  11451M 11595  12256M
                                                 12446  12547M 12567  12640M 12660  12733M 12753  12826M 12846  12919M
                                                 12939  13010M 13030  13076M 13096  13142M 13162  13233M 13286  13524M
                                                 13677  13727M 13750  14272M 14745  14791M 14811  14862M 14882  14933M
                                                 14953  15010M 15030  15087M 15107  15153M 15173  15225M 15245  15291M
                                                 15311  15357M 15377  15482M 15502  15549M 15569  15615M 15635  15681M
                                                 15701  15748M 15768  15814M 15834  15880M 15900  15981M 16001  16047M
                                                 16067  16108M 16128  16193M 16213  16262M 16282  16359M 16474  17494M
                                                 17526  17716M 17784  18087M 18143  18355M 18406  18516M 18626  18956M
                                                 19020  20484M 20732  20773M 20793  20974M 20994  21041M 21061  21128M
                                                 21148  21194M 21322  22128M 22315  22437M 22457  22558M 22578  22652M
                                                 22685  22755M 22798  23012M 23140  23562M 23583  23670M 23875  23978M
                                                 23998  24112M 24132  24246M 24266  24384M 24404  24445M 24465  24509M
                                                 24529  24573M 24604  25011M 25165  25211M 25233  26026M 26078  26667M
                                                 26749  26843M 27277  27324M 27344  27466M 27486  27530M 27550  27651M
                                                 27671  27768M 27788  27877M 27897  27995M 28015  28123M 28143  28200M
                                                 28220  28309M 28329  28376M 28396  28474M 28494  28542M 28562  28608M
                                                 28628  28675M 28695  28736M 28837  29356M 29425  29604M 29624  29670M
                                                 29694  29858M 29964  30378M 30509  30618M 30638  30747M 30775  30973M
                                                 31059  31494M 31741  31782M 31802  31891M 31911  31957M 31977  32023M
                                                 32043  32096M 32116  32193M 32213  32254M 32274  32315M 32344  33191M
                                                 33308  34515M 34553  34709M 34839  34934M 34955  35050M 35071  35141M
                                                 35162  35257M 35285  35365M 35385  35426M 35446  35490M 35510  35554M
                                                 35574  35654M
 LTNPSH        1 00000000 00000028     T   14309 14309  14340  20535  20611  22255  26883  30434  31546
1EDIT     (EDIT2193) (12:43) (15MAR04) Ordinary Symbol and Literal Cross Reference                                          Page  129
 LTRAN         2 00002624 00000001     H   15891 14610
 LTRIPLE       2 00002384 00000001     H   14873 14415
 LUFMT         2 00002548 00000001     H   15560 14565
 LXCATRTN      1 00000060 FFFFFFEC A   U    6198 16393  23044  23049  26702  33215
 MALL          1 00000000 00000004     T    7081  7081   7858   9030  10744  11385  12429  14729  18582  20594  20670
                                                 20716  22299  23798  23859  27062  27108  27154  27215  27261  29409
                                                 30493  31725  34822  35721  35767
 MCLOSE        1 00000000 0000001E     T   11493 11493
 MILERR        1 00000000 00000000 A   T    2207  2207
 MINT          1 00000000 00000002     T    7051  7051   8820  12384  23829
 MINUSPRT      4 000054CC 00000001     F   27220 28770
 MISSLNO       2 00005544 00000001     H   27268 27079  27125  27171  27232
 MISSLNO2      2 00003906 00000001     H   20985 20687
 MISSSLEN      2 000047F8 00000001     H   24395 23815
 MIXFMT        1 00000000 0000003D     T   18371 18371
 MKFFINFO      1 00000000 0000002E     T   16385 16385  23037  26686  33208
 MNULL         1 00000000 00000020     T   12279 12279  20504  20686  23814  27078  27124  27170  27231  35676  35737
 MOPEN         1 00000000 00000018     T   11483 11483
 MOVE          2 00004A62 00000001     H   25223 25219  26681
 MPARM         1 00000000 0000000F     T    8835  8835   8850  10609  14654  22224  22239  29379  30463  30478  31635
 MPINT         1 00000000 00000010     T   10729 10729  14639  27032  31560  31665  31680
 MRGECHK       2 00004DE6 00000001     H   26274 26164B 26176B
 MRGECHK1      4 00004E02 00000001     I   26310 26301B
 MSYMLN        1 00000000 00000040     T   20519 20519  20701  27093  27139  27185  27246  35706  35752
 MTOKEN        1 00000000 00000006     T    7798  7798   7813   7828   8865   8880   8895   8910   8925   8940   8955
                                                  8970   8985   9000   9015  10624  10639  10654  10669  10684  10699
                                                 10714  11355  11370  12294  12309  12324  12339  12354  12369  12399
                                                 12414  14293  14369  14384  14399  14414  14429  14444  14459  14474
                                                 14489  14504  14519  14534  14549  14564  14579  14594  14609  14624
                                                 14669  14684  14699  14714  20549  20564  20625  20640  22148  22179
                                                 22194  22209  23693  23708  23723  23738  23753  23768  23844  26897
                                                 26912  26927  26942  26957  26972  26987  27002  27017  27200  29394
                                                 30402  30448  31514  31575  31590  31605  31620  31650  31695  31710
                                                 34732  34747  34762  34777  34792  35691
 MVFACT      128 00000000 FFFFFFDA        25087 25385M 25864
 MVFBY        16 00000001 FFFFFFDA        25121 27929M 28076
 MVFCOMB     128 00000001 FFFFFFDA        25106 25583  25810  26173  26298  27379  27963  28098M
 MVFEXEC      64 00000000 FFFFFFDA        25092 25363M 25890  27612
 MVFFROM      32 00000000 FFFFFFDA        25097 25328M 25420  25749  25916  26475  27733
 MVFMERG       8 00000001 FFFFFFDA        25126 25652  26161  26286  26322  26564  28104M 28174M 28593M 28660M
 MVFREPL       4 00000001 FFFFFFDA        25131 25640  28180M
 MVFTO        32 00000001 FFFFFFDA        25116 25565  27402M 28050
 MVWA         28 00000000 FFFFFFDA     J   25146 25236  25265U 25269  25277U 25286M 25286  26026  26028  26029
 MVWBEGIN      4 00000014 FFFFFFDA     F   25138 25728M 26333  26359
 MVWDELTA      4 00000004 FFFFFFDA     F   25134 25399M 26263  26337  26344M 26361  26367M 26390  26426  27514M 27923M
 MVWEND        4 00000018 FFFFFFDA     F   25139 25628M 25719M 26182
 MVWFLAG1      1 00000000 FFFFFFDA     R   25083 25087  25092  25097
 MVWFLAG2      1 00000001 FFFFFFDA     R   25102 25106  25111  25116  25121  25126  25131
 MVWNEXTL      4 00000008 FFFFFFDA     F   25135 25398M 25658  25681  25728  25816  26149  26268M 26391M 27513M
 MVWPLUS       4 0000000C FFFFFFDA     F   25136 25408M 25408  26308  28355M 28521M
 MVWREPT       4 00000010 FFFFFFDA     F   25137 25400M 25935  25938M 28721M
 NBLTBL        1 00000000 00000000 A   T    2220  2220
 NDETRNG       1 00000000 0000002D     T   16384 16384  21223  23036  25035  26683  29889  33207  35782
 NEGXPRT       4 00007748 00000001     F   35726 35806
 NOACTION      1 00000000 00000000 A   T    2210  2210
 NOMARK        2 000028B4 00000001     H   16704 16658B
 NOOPTS        1 00000000 00000026     T   13560 13560
 NOTQUITE      2 00004972 00000001     H   24991 24821B
 NOTVALID      1 00000000 00000005     T    7082  7082   7859   8079   9031  10745  11386  11477  14730  18583  20595
1EDIT     (EDIT2193) (12:43) (15MAR04) Ordinary Symbol and Literal Cross Reference                                          Page  130
                                                 20671  20717  23059  23799  23860  25047  27063  27109  27155  27216
                                                 27262  28767  29410  29886  30494  31726  33237  34823  35722  35768
 NPARTBL       1 00000000 00000000 A   T    2214  2214
 NSCAN         1 00000000 00000007     T    8073  8073  11469  13541  16387  21225  23039  25037  26688  28763  29881
                                                 33210  35784
 NSCANSTR      1 00000000 00000061     T   33243 33243
 NSCNCB      176 00000000 FFFFFFED     J    2479  2605   6831   6832   6833   6836M  6837M  6839M  6849M  6850M  6851M
                                                  7292   7293   7294   7297M  7298M  7300M  7310M  7311M  7312M  8233
                                                  8234   8235   8238M  8239M  8241M  8251M  8252M  8253M 10016  10018
                                                 10029  10030  10031  10034M 10035M 10036M 10046M 10047M 10048M 10125
                                                 10162  10177  10178  10179  10182M 10183M 10184M 10194M 10195M 10196M
                                                 10356  10424  10425  10426  10429M 10430M 10432M 10442M 10443M 10444M
                                                 11078  11080  11091  11092  11093  11096M 11097M 11098M 11108M 11109M
                                                 11110M 11187  11224  11236  11237  11238  11241M 11242M 11244M 11254M
                                                 11255M 11256M 11499  11660  11661  11662  11665M 11666M 11668M 11678M
                                                 11679M 11680M 13854  13855  13856  13859M 13860M 13862M 13872M 13873M
                                                 13874M 13906  13907  13908  13911M 13912M 13914M 13924M 13925M 13926M
                                                 18458  18459  18460  18463M 18464M 18466M 18476M 18477M 18478M 19104
                                                 19105  19106  19109M 19110M 19112M 19122M 19123M 19124M 19171  19172
                                                 19173  19176M 19177M 19178M 19188M 19189M 19190M 19200  19221  19236
                                                 19251  19252  19253M 19253  19254  19255M 19268M 19291  19292  19293
                                                 19296M 19297M 19299M 19309M 19310M 19311M 19358  19359  19360  19363M
                                                 19364M 19366M 19376M 19377M 19378M 20390  20392  20403  20404  20405
                                                 20408M 20409M 20410M 20420M 20421M 20422M 20448  20824  20826  20837
                                                 20838  20839  20842M 20843M 20844M 20854M 20855M 20856M 20905  20906
                                                 20907  20910M 20911M 20913M 20923M 20924M 20925M 20954  21257  21430
                                                 21431  21432  21435M 21436M 21438M 21448M 21449M 21450M 21482  21483
                                                 21484  21487M 21488M 21490M 21500M 21501M 21502M 23218  23219  23220
                                                 23223M 23224M 23226M 23236M 23237M 23238M 24066  24067  24068  24071M
                                                 24072M 24074M 24084M 24085M 24086M 24200  24201  24202  24205M 24206M
                                                 24208M 24218M 24219M 24220M 24338  24339  24340  24343M 24344M 24346M
                                                 24356M 24357M 24358M 25440  25441  25442  25445M 25446M 25448M 25458M
                                                 25459M 25460M 25492  25493  25494  25497M 25498M 25500M 25510M 25511M
                                                 25512M 27421  27422  27423  27426M 27427M 27429M 27439M 27440M 27441M
                                                 27832  27833  27834  27837M 27838M 27840M 27850M 27851M 27852M 28264
                                                 28265  28266  28269M 28270M 28272M 28282M 28283M 28284M 28432  28433
                                                 28434  28437M 28438M 28440M 28450M 28451M 28452M 28904  28905  28906
                                                 28909M 28910M 28911M 28921M 28922M 28923M 29181  29182  29183  29186M
                                                 29187M 29189M 29199M 29200M 29201M 30073  30074  30075  30078M 30079M
                                                 30081M 30091M 30092M 30093M 30202  30203  30204  30207M 30208M 30210M
                                                 30220M 30221M 30222M 30293  30294  30295  30298M 30299M 30301M 30311M
                                                 30312M 30313M 31163  31164  31165  31168M 31169M 31171M 31181M 31182M
                                                 31183M 31215  31216  31217  31220M 31221M 31223M 31233M 31234M 31235M
                                                 32781M 32782M 32824  32825  32826  32829M 32839M 32840M 32841M 33151
                                                 33152  33153  33156M 33166M 33167M 33168M 33390  33391  33392  33395M
                                                 33396M 33398M 33408M 33409M 33410M 35321  35322  35323  35326M 35327M
                                                 35329M 35339M 35340M 35341M 35610  35611  35612  35615M 35616M 35618M
                                                 35628M 35629M 35630M
 NSCNFLGS      1 00000008 FFFFFFED     R    2416  2420   2425
 NSCNKWS       4 00000028 FFFFFFED     A    2465  6831   6839M  6849M  7292   7300M  7310M  8233   8241M  8251M 10029
                                                 10036M 10046M 10177  10184M 10194M 10424  10432M 10442M 11091  11098M
                                                 11108M 11236  11244M 11254M 11660  11668M 11678M 13854  13862M 13872M
                                                 13906  13914M 13924M 18458  18466M 18476M 19104  19112M 19122M 19171
                                                 19178M 19188M 19291  19299M 19309M 19358  19366M 19376M 20403  20410M
                                                 20420M 20837  20844M 20854M 20905  20913M 20923M 21430  21438M 21448M
                                                 21482  21490M 21500M 23218  23226M 23236M 24066  24074M 24084M 24200
                                                 24208M 24218M 24338  24346M 24356M 25440  25448M 25458M 25492  25500M
                                                 25510M 27421  27429M 27439M 27832  27840M 27850M 28264  28272M 28282M
                                                 28432  28440M 28450M 28904  28911M 28921M 29181  29189M 29199M 30073
1EDIT     (EDIT2193) (12:43) (15MAR04) Ordinary Symbol and Literal Cross Reference                                          Page  131
                                                 30081M 30091M 30202  30210M 30220M 30293  30301M 30311M 31163  31171M
                                                 31181M 31215  31223M 31233M 32824  32829M 32839M 33151  33156M 33166M
                                                 33390  33398M 33408M 35321  35329M 35339M 35610  35618M 35628M
 NSCNLEN       4 00000004 FFFFFFED     F    2413 19254  19255M 32782M
 NSCNLOC       4 00000000 FFFFFFED     A    2412 19251  19253M 32781M
 NSCNSKIP      4 00000024 FFFFFFED     A    2464  6832   6836M  6850M  7293   7297M  7311M  8234   8238M  8252M 10030
                                                 10034M 10047M 10178  10182M 10195M 10425  10429M 10443M 11092  11096M
                                                 11109M 11237  11241M 11255M 11661  11665M 11679M 13855  13859M 13873M
                                                 13907  13911M 13925M 18459  18463M 18477M 19105  19109M 19123M 19172
                                                 19176M 19189M 19292  19296M 19310M 19359  19363M 19377M 20404  20408M
                                                 20421M 20838  20842M 20855M 20906  20910M 20924M 21431  21435M 21449M
                                                 21483  21487M 21501M 23219  23223M 23237M 24067  24071M 24085M 24201
                                                 24205M 24219M 24339  24343M 24357M 25441  25445M 25459M 25493  25497M
                                                 25511M 27422  27426M 27440M 27833  27837M 27851M 28265  28269M 28283M
                                                 28433  28437M 28451M 28905  28909M 28922M 29182  29186M 29200M 30074
                                                 30078M 30092M 30203  30207M 30221M 30294  30298M 30312M 31164  31168M
                                                 31182M 31216  31220M 31234M 32825  32840M 33152  33167M 33391  33395M
                                                 33409M 35322  35326M 35340M 35611  35615M 35629M
 NSCNSTOP      4 00000020 FFFFFFED     A    2463  6833   6837M  6851M  7294   7298M  7312M  8235   8239M  8253M 10031
                                                 10035M 10048M 10179  10183M 10196M 10426  10430M 10444M 11093  11097M
                                                 11110M 11238  11242M 11256M 11662  11666M 11680M 13856  13860M 13874M
                                                 13908  13912M 13926M 18460  18464M 18478M 19106  19110M 19124M 19173
                                                 19177M 19190M 19293  19297M 19311M 19360  19364M 19378M 20405  20409M
                                                 20422M 20839  20843M 20856M 20907  20911M 20925M 21432  21436M 21450M
                                                 21484  21488M 21502M 23220  23224M 23238M 24068  24072M 24086M 24202
                                                 24206M 24220M 24340  24344M 24358M 25442  25446M 25460M 25494  25498M
                                                 25512M 27423  27427M 27441M 27834  27838M 27852M 28266  28270M 28284M
                                                 28434  28438M 28452M 28906  28910M 28923M 29183  29187M 29201M 30075
                                                 30079M 30093M 30204  30208M 30222M 30295  30299M 30313M 31165  31169M
                                                 31183M 31217  31221M 31235M 32826  32841M 33153  33168M 33392  33396M
                                                 33410M 35323  35327M 35341M 35612  35616M 35630M
 NSCNTLEN      4 00000014 FFFFFFED     F    2431 19221  19268M
 NSCNTLOC      4 00000010 FFFFFFED     A    2430 19236  19252  19253
 NSCNTOK      16 00000030 FFFFFFED     C    2467 10356  19200
 NSCNTYPE      1 00000018 FFFFFFED     R    2434  2438   2443   2448   2453   2458
 NUMAVAL       4 00000010 FFFFFFD5     F   33275 33602M 33602  33878  35117M
 NUMBER        2 00006ED0 00000001     H   33298 33294
 NUMBY         4 0000000C FFFFFFD5     F   33273 33633M 33633  33929  34910M
 NUMFACT       1 00000000 00000062     T   35792 35792
 NUMFIRST      4 00000000 FFFFFFD5     F   33269 33483M 33522M 33574  33581M 33581  33725  33743  33756M 33756  33875
                                                 33973M 33973  34280  34608  34614M
 NUMLAST       4 00000004 FFFFFFD5     F   33270 33484M 33582M 33773  33780M 33816  33876  34327  34682M
 NUMMVAL       4 00000014 FFFFFFD5     F   33276 33615M 33615  33879  35026M
 NUMPRT        4 000072D8 00000001     F   34721 35783
 NUMPSH        1 00000000 0000003F     T   18568 18568
 NUMRANGE      1 00000000 00000057     T   26714 26714  35793
 NUMRTN        2 0000725C 00000001     H   34544 35789
 NUMSTART      4 00000008 FFFFFFD5     F   33272 33366M 33565  33574M 33648  33700  33725M 33798  33816  33950  35233M
 NUMWA        28 00000000 FFFFFFD5     J   33285 33311  33340U 33344  33355U 33364M 33364  34515  34517  34518  34589U
                                                 34875U 34991U 35107U 35198U
 NUMWLNO       4 00000018 FFFFFFD5     F   33278 34642  34689M
 NUMXBY        2 000073F0 00000001     H   34830 34733
 NUMXGOT       2 000075BA 00000001     H   35437 35707
 NUMXLNO       2 00007506 00000001     H   35276 35801
 NUMXMGOT      2 000075EC 00000001     H   35501 35753
 NUMXMISS      2 0000758E 00000001     H   35376 35677  35738
 NUMXNEG       2 0000761E 00000001     H   35565 35692
 NUMXPLUS      2 00007484 00000001     H   35062 34763
 NUMXPRT       4 000076A8 00000001     F   35665 35805
1EDIT     (EDIT2193) (12:43) (15MAR04) Ordinary Symbol and Literal Cross Reference                                          Page  132
 NUMXSTRT      2 000074BC 00000001     H   35153 34778  34793
 NUMXTIME      2 0000743A 00000001     H   34946 34748
 ODUP          2 0000103E 00000001     H   10963 10730
 OPEN          2 00000BA2 00000001     H    9947  9943
 OPENDUPN      4 00000060 FFFFFFE4     F    9927 10544  10998M
 OPENNAME      8 00000000 FFFFFFE4     C    9923 10343  10348  10478M 10478  10485  11485
 OPENPRT       4 00000E10 00000001     F   10598 11489
 OPENTITL     80 00000010 FFFFFFE4     C    9925 10522M 10522  10529  10924  10929
 OPENTYPE      8 00000008 FFFFFFE4     C    9924 10500M 10500  10507  10787M 10848M
 OPENWA      100 00000000 FFFFFFE4     J    9934  9960   9989U  9993  10001U 10009M 10009  10586  10588  10589
 ORVCPASS      1 00000000 00000019     T   11486 11486  21235  33205
 OTEMP         2 00000FCE 00000001     H   10813 10625  10685  10715
 OTEXT         2 00000FA0 00000001     H   10752 10640  10655  10670  10700
 OTITLE        2 00000FFC 00000001     H   10874 10610
 PAGERES       1 00000000 00000031     T   16392 16392
 PCKNULL       2 000017F4 00000001     H   12437 12280
 PERR          2 000019DC 00000001     H   13153 12430  13559
 PFIRST        2 000018D2 00000001     H   12744 12325  12340
 PICK          2 00001414 00000001     H   11585 11581
 PICKAINF    424 00000008 FFFFFFE3     X   11565 11713  11718  11786
 PICKDONE      4 00001622 00000001     I   12234 12005B 12060B 12115B 12167B 12216B
 PICKFFIR     16 00000000 FFFFFFE3        11544 12132  12810  12810
 PICKFLAG      1 00000000 FFFFFFE3     R   11525 11529  11534  11539  11544  11549  11554  11559
 PICKFLST      8 00000000 FFFFFFE3        11549 12184  12903  12903
 PICKFNOPROMPT
               4 00000000 FFFFFFE3        11554 11945  13061M
 PICKFNOVERIFY
               2 00000000 FFFFFFE3        11559 11825  13127M
 PICKFNXT     32 00000000 FFFFFFE3        11539 12077  12717  12717
 PICKFPRM    128 00000000 FFFFFFE3        11529 12602  12624  12624  12625M 12695  12717  12717  12718M 12788  12810
                                                 12810  12811M 12881  12903  12903  12904M 12974  12994M
 PICKFPRV     64 00000000 FFFFFFE3        11534 12022  12624  12624
 PICKNUM       4 00000004 FFFFFFE3     F   11563 11692  11757  11857  12000  12995M
 PICKPRT       4 0000163C 00000001     F   12268 13540
 PICKWA      432 00000000 FFFFFFE3     J   11572 11598  11627U 11631  11639U 11647M 11647  11648M 11648  12256  12258
                                                 12259
 PLAST         2 0000190C 00000001     H   12837 12355  12370
 PLUSPRT       4 0000542C 00000001     F   27159 28768
 PNEXT         2 00001898 00000001     H   12651 12310
 PNOPRO        2 00001984 00000001     H   13021 12400
 PNOVER        2 000019B0 00000001     H   13087 12415
 PNUM          2 00001946 00000001     H   12930 12385
 POINT         2 00001CAC 00000001     H   13740 13736  16381
 PPREV         2 0000185E 00000001     H   12558 12295
 PRESS         1 00000000 00000051     T   26705 26705
 PREST         1 00000000 FFFFFFEC A   U    6201 26698  26701  26702
 PUTLINE       1 00000000 00000041     T   21233 21233  29895
 PUTOUT        4 00004902 00000001     I   24827 24662B
 QUIETPSH      1 00000000 00000048     T   22270 22270  27048  34808
 RAR          14 0000000E 00000001 A   #    1117  2145   2146M  2147B  2149M  2150B  2170M  2171B  2175M  2176B  2178M
                                                  2179B  2181M  2182B  2184M  2185B  2187M  2188M  2188B  2194   6777
                                                  6842M  6843M  6843B  6856M  6857M  6857B  6897M  6898M  6898B  6927M
                                                  6928M  6928B  6961M  6962M  6962B  6983M  6984M  6984B  7001M  7002M
                                                  7002B  7030M  7033B  7095   7140M  7141M  7141B  7165M  7168B  7223
                                                  7303M  7304M  7304B  7317M  7318M  7318B  7356M  7357M  7357B  7390M
                                                  7391M  7391B  7521M  7522M  7522B  7571M  7572M  7572B  7605M  7606M
                                                  7606B  7736M  7737M  7737B  7777M  7780B  7872   7923M  7926B  7938
                                                  7984M  7987B  7999   8050M  8053B  8162   8244M  8245M  8245B  8258M
                                                  8259M  8259B  8315M  8316M  8316B  8333M  8334M  8334B  8366M  8367M
1EDIT     (EDIT2193) (12:43) (15MAR04) Ordinary Symbol and Literal Cross Reference                                          Page  133
                                                  8367B  8395M  8396M  8396B  8417M  8418M  8418B  8765M  8766M  8766B
                                                  8799M  8802B  9043   9089M  9092B  9104   9166M  9167M  9167B  9191M
                                                  9192M  9192B  9219M  9222B  9234   9290M  9293B  9305   9361M  9364B
                                                  9376   9438M  9439M  9439B  9463M  9464M  9464B  9491M  9494B  9506
                                                  9537M  9538M  9538B  9558M  9559M  9559B  9586M  9589B  9601   9665M
                                                  9668B  9680   9744M  9747B  9759   9823M  9826B  9838   9902M  9905B
                                                  9954  10039M 10040M 10040B 10053M 10054M 10054B 10142M 10143M 10143B
                                                 10146M 10147M 10147B 10187M 10188M 10188B 10201M 10202M 10202B 10275M
                                                 10276M 10276B 10318M 10319M 10319B 10351M 10352M 10352B 10359M 10360M
                                                 10360B 10394M 10395M 10395B 10435M 10436M 10436B 10449M 10450M 10450B
                                                 10465M 10466M 10466B 10554M 10555M 10555B 10563M 10564M 10564B 10588M
                                                 10591B 10758  10804M 10807B 10819  10865M 10868B 10880  10911M 10912M
                                                 10912B 10932M 10933M 10933B 10954M 10957B 10969  11015M 11018B 11043
                                                 11101M 11102M 11102B 11115M 11116M 11116B 11204M 11205M 11205B 11208M
                                                 11209M 11209B 11247M 11248M 11248B 11261M 11262M 11262B 11294M 11295M
                                                 11295B 11299M 11300M 11300B 11319M 11322B 11400  11431M 11432M 11432B
                                                 11435M 11436M 11436B 11453M 11456B 11592  11671M 11672M 11672B 11685M
                                                 11686M 11686B 11721M 11722M 11722B 11750M 11751M 11751B 11772M 11773M
                                                 11773B 11850M 11851M 11851B 11872M 11873M 11873B 11902M 11903M 11903B
                                                 11930M 11931M 11931B 11977M 11978M 11978B 11985M 11986M 11986B 12003M
                                                 12004M 12004B 12032M 12033M 12033B 12058M 12059M 12059B 12087M 12088M
                                                 12088B 12113M 12114M 12114B 12145M 12146M 12146B 12161M 12162M 12162B
                                                 12194M 12195M 12195B 12210M 12211M 12211B 12234M 12235M 12235B 12258M
                                                 12261B 12443  12488M 12489M 12489B 12506M 12507M 12507B 12524M 12525M
                                                 12525B 12549M 12552B 12564  12611M 12612M 12612B 12642M 12645B 12657
                                                 12704M 12705M 12705B 12735M 12738B 12750  12797M 12798M 12798B 12828M
                                                 12831B 12843  12890M 12891M 12891B 12921M 12924B 12936  12983M 12984M
                                                 12984B 13012M 13015B 13027  13078M 13081B 13093  13144M 13147B 13159
                                                 13210M 13211M 13211B 13235M 13238B 13283  13325M 13326M 13326B 13344M
                                                 13345M 13345B 13373M 13374M 13374B 13404M 13405M 13405B 13497M 13498M
                                                 13498B 13502M 13503M 13503B 13526M 13529B 13674  13711M 13712M 13712B
                                                 13729M 13732B 13747  13808M 13809M 13809B 13819M 13820M 13820B 13842M
                                                 13843M 13843B 13865M 13866M 13866B 13879M 13880M 13880B 13917M 13918M
                                                 13918B 13931M 13932M 13932B 13999M 14000M 14000B 14003M 14004M 14004B
                                                 14036M 14037M 14037B 14060M 14061M 14061B 14095M 14096M 14096B 14117M
                                                 14118M 14118B 14166M 14167M 14167B 14195M 14196M 14196B 14274M 14277B
                                                 14742  14793M 14796B 14808  14864M 14867B 14879  14935M 14938B 14950
                                                 15012M 15015B 15027  15089M 15092B 15104  15155M 15158B 15170  15227M
                                                 15230B 15242  15293M 15296B 15308  15359M 15362B 15374  15484M 15487B
                                                 15499  15551M 15554B 15566  15617M 15620B 15632  15683M 15686B 15698
                                                 15750M 15753B 15765  15816M 15819B 15831  15882M 15885B 15897  15983M
                                                 15986B 15998  16049M 16052B 16064  16110M 16113B 16125  16173M 16174M
                                                 16174B 16195M 16198B 16210  16241M 16242M 16242B 16246M 16247M 16247B
                                                 16264M 16267B 16279  16324M 16325M 16325B 16342M 16343M 16343B 16361M
                                                 16364B 16471  16587M 16588M 16588B 16693M 16694M 16694B 16844M 16845M
                                                 16845B 16910M 16911M 16911B 16981M 16982M 16982B 17038M 17039M 17039B
                                                 17071M 17072M 17072B 17104M 17105M 17105B 17124M 17125M 17125B 17281M
                                                 17282M 17282B 17330M 17331M 17331B 17375M 17376M 17376B 17394M 17395M
                                                 17395B 17407M 17408M 17408B 17496M 17499B 17523  17575M 17576M 17576B
                                                 17605M 17606M 17606B 17635M 17636M 17636B 17687M 17688M 17688B 17700M
                                                 17701M 17701B 17718M 17721B 17781  17887M 17888M 17888B 17892M 17893M
                                                 17893B 17916M 17917M 17917B 17969M 17970M 17970B 18001M 18002M 18002B
                                                 18036M 18037M 18037B 18067M 18068M 18068B 18089M 18092B 18140  18196M
                                                 18197M 18197B 18226M 18227M 18227B 18307M 18308M 18308B 18314M 18315M
                                                 18315B 18339M 18340M 18340B 18357M 18360B 18403  18446M 18447M 18447B
                                                 18469M 18470M 18470B 18483M 18484M 18484B 18498M 18499M 18499B 18518M
                                                 18521B 18623  18722M 18723M 18723B 18816M 18817M 18817B 18848M 18849M
                                                 18849B 18871M 18872M 18872B 18958M 18961B 19017  19076M 19077M 19077B
                                                 19081M 19082M 19082B 19115M 19116M 19116B 19129M 19130M 19130B 19181M
1EDIT     (EDIT2193) (12:43) (15MAR04) Ordinary Symbol and Literal Cross Reference                                          Page  134
                                                 19182M 19182B 19195M 19196M 19196B 19302M 19303M 19303B 19316M 19317M
                                                 19317B 19369M 19370M 19370B 19383M 19384M 19384B 19542M 19543M 19543B
                                                 19629M 19630M 19630B 19764M 19765M 19765B 19772M 19773M 19773B 19866M
                                                 19867M 19867B 19875M 19876M 19876B 19897M 19898M 19898B 19984M 19985M
                                                 19985B 19989M 19990M 19990B 20013M 20014M 20014B 20031M 20032M 20032B
                                                 20036M 20037M 20037B 20060M 20061M 20061B 20088M 20089M 20089B 20106M
                                                 20107M 20107B 20162M 20163M 20163B 20167M 20168M 20168B 20171M 20172M
                                                 20172B 20213M 20214M 20214B 20251M 20252M 20252B 20359M 20360M 20360B
                                                 20413M 20414M 20414B 20427M 20428M 20428B 20486M 20489B 20729  20775M
                                                 20778B 20790  20847M 20848M 20848B 20861M 20862M 20862B 20916M 20917M
                                                 20917B 20930M 20931M 20931B 20976M 20979B 20991  21043M 21046B 21058
                                                 21130M 21133B 21145  21196M 21199B 21319  21380M 21381M 21381B 21397M
                                                 21398M 21398B 21418M 21419M 21419B 21441M 21442M 21442B 21455M 21456M
                                                 21456B 21493M 21494M 21494B 21507M 21508M 21508B 21531M 21532M 21532B
                                                 21535M 21536M 21536B 21720M 21721M 21721B 21755M 21756M 21756B 21777M
                                                 21778M 21778B 21821M 21822M 21822B 21856M 21857M 21857B 21878M 21879M
                                                 21879B 21934M 21935M 21935B 21980M 21981M 21981B 22024M 22025M 22025B
                                                 22054M 22055M 22055B 22074M 22075M 22075B 22098M 22099M 22099B 22130M
                                                 22133B 22312  22343M 22344M 22344B 22348M 22349M 22349B 22384M 22385M
                                                 22385B 22412M 22413M 22413B 22439M 22442B 22454  22485M 22486M 22486B
                                                 22490M 22491M 22491B 22506M 22507M 22507B 22560M 22563B 22575  22606M
                                                 22607M 22607B 22611M 22612M 22612B 22627M 22628M 22628B 22654M 22657B
                                                 22682  22757M 22760B 22795  23014M 23017B 23137  23205M 23206M 23206B
                                                 23229M 23230M 23230B 23243M 23244M 23244B 23300M 23301M 23301B 23324M
                                                 23325M 23325B 23380M 23381M 23381B 23423M 23424M 23424B 23447M 23448M
                                                 23448B 23471M 23472M 23472B 23499M 23500M 23500B 23508M 23509M 23509B
                                                 23536M 23537M 23537B 23564M 23567B 23580  23631M 23632M 23632B 23653M
                                                 23654M 23654B 23672M 23675B 23872  23919M 23920M 23920B 23934M 23935M
                                                 23935B 23954M 23955M 23955B 23980M 23983B 23995  24044M 24045M 24045B
                                                 24077M 24078M 24078B 24091M 24092M 24092B 24114M 24117B 24129  24178M
                                                 24179M 24179B 24211M 24212M 24212B 24225M 24226M 24226B 24248M 24251B
                                                 24263  24316M 24317M 24317B 24349M 24350M 24350B 24363M 24364M 24364B
                                                 24386M 24389B 24401  24447M 24450B 24462  24511M 24514B 24526  24575M
                                                 24578B 24601  24831M 24832M 24832B 24855M 24856M 24856B 24873M 24874M
                                                 24874B 24893M 24894M 24894B 24917M 24918M 24918B 24951M 24952M 24952B
                                                 24986M 24987M 24987B 25013M 25016B 25162  25194M 25195M 25195B 25213M
                                                 25216B 25230  25305M 25306M 25306B 25392M 25393M 25393B 25396M 25397M
                                                 25397B 25428M 25429M 25429B 25451M 25452M 25452B 25465M 25466M 25466B
                                                 25503M 25504M 25504B 25517M 25518M 25518B 25684M 25685M 25685B 25713M
                                                 25714M 25714B 25758M 25759M 25759B 25762M 25763M 25763B 25819M 25820M
                                                 25820B 25844M 25845M 25845B 25875M 25876M 25876B 25901M 25902M 25902B
                                                 25927M 25928M 25928B 25970M 25971M 25971B 25974M 25975M 25975B 26004M
                                                 26005M 26005B 26028M 26031B 26075  26119M 26120M 26120B 26205M 26206M
                                                 26206B 26217M 26218M 26218B 26228M 26229M 26229B 26232M 26233M 26233B
                                                 26259M 26260M 26260B 26266M 26267M 26267B 26342M 26343M 26343B 26350M
                                                 26351M 26351B 26365M 26366M 26366B 26424M 26425M 26425B 26429M 26430M
                                                 26430B 26453M 26454M 26454B 26483M 26484M 26484B 26501M 26502M 26502B
                                                 26506M 26507M 26507B 26530M 26531M 26531B 26548M 26549M 26549B 26586M
                                                 26587M 26587B 26590M 26591M 26591B 26613M 26614M 26614B 26631M 26632M
                                                 26632B 26635M 26636M 26636B 26641M 26642M 26642B 26669M 26672B 26746
                                                 26791M 26792M 26792B 26796M 26797M 26797B 26820M 26821M 26821B 26845M
                                                 26848B 27274  27326M 27329B 27341  27432M 27433M 27433B 27446M 27447M
                                                 27447B 27468M 27471B 27483  27532M 27535B 27547  27631M 27632M 27632B
                                                 27653M 27656B 27668  27770M 27773B 27785  27843M 27844M 27844B 27857M
                                                 27858M 27858B 27879M 27882B 27894  27947M 27948M 27948B 27997M 28000B
                                                 28012  28125M 28128B 28140  28202M 28205B 28217  28275M 28276M 28276B
                                                 28289M 28290M 28290B 28311M 28314B 28326  28359M 28360M 28360B 28378M
                                                 28381B 28393  28443M 28444M 28444B 28457M 28458M 28458B 28476M 28479B
                                                 28491  28525M 28526M 28526B 28544M 28547B 28559  28610M 28613B 28625
1EDIT     (EDIT2193) (12:43) (15MAR04) Ordinary Symbol and Literal Cross Reference                                          Page  135
                                                 28677M 28680B 28692  28738M 28741B 28834  28914M 28915M 28915B 28928M
                                                 28929M 28929B 28989M 28990M 28990B 29007M 29008M 29008B 29036M 29037M
                                                 29037B 29052M 29053M 29053B 29075M 29076M 29076B 29088M 29089M 29089B
                                                 29117M 29118M 29118B 29139M 29140M 29140B 29166M 29167M 29167B 29192M
                                                 29193M 29193B 29206M 29207M 29207B 29239M 29240M 29240B 29260M 29261M
                                                 29261B 29271M 29272M 29272B 29300M 29301M 29301B 29322M 29323M 29323B
                                                 29358M 29361B 29422  29493M 29494M 29494B 29511M 29512M 29512B 29540M
                                                 29541M 29541B 29556M 29557M 29557B 29579M 29580M 29580B 29606M 29609B
                                                 29621  29672M 29675B 29691  29731M 29732M 29732B 29760M 29761M 29761B
                                                 29782M 29783M 29783B 29821M 29822M 29822B 29834M 29835M 29835B 29842M
                                                 29843M 29843B 29860M 29863B 29961  30024M 30025M 30025B 30029M 30030M
                                                 30030B 30040M 30041M 30041B 30061M 30062M 30062B 30084M 30085M 30085B
                                                 30098M 30099M 30099B 30128M 30129M 30129B 30132M 30133M 30133B 30156M
                                                 30157M 30157B 30160M 30161M 30161B 30213M 30214M 30214B 30227M 30228M
                                                 30228B 30260M 30261M 30261B 30264M 30265M 30265B 30304M 30305M 30305B
                                                 30318M 30319M 30319B 30351M 30352M 30352B 30380M 30383B 30506  30620M
                                                 30623B 30635  30749M 30752B 30772  30843M 30844M 30844B 30884M 30885M
                                                 30885B 30946M 30947M 30947B 30975M 30978B 31056  31124M 31125M 31125B
                                                 31135M 31136M 31136B 31174M 31175M 31175B 31188M 31189M 31189B 31226M
                                                 31227M 31227B 31240M 31241M 31241B 31288M 31289M 31289B 31351M 31352M
                                                 31352B 31373M 31374M 31374B 31409M 31410M 31410B 31444M 31445M 31445B
                                                 31466M 31467M 31467B 31496M 31499B 31738  31784M 31787B 31799  31893M
                                                 31896B 31908  31959M 31962B 31974  32025M 32028B 32040  32098M 32101B
                                                 32113  32151M 32152M 32152B 32172M 32173M 32173B 32195M 32198B 32210
                                                 32256M 32259B 32271  32317M 32320B 32341  32594M 32595M 32595B 32605M
                                                 32606M 32606B 32619M 32620M 32620B 32832M 32833M 32833B 33065M 33066M
                                                 33066B 33076M 33077M 33077B 33084M 33085M 33085B 33113M 33114M 33114B
                                                 33118M 33119M 33119B 33159M 33160M 33160B 33193M 33196B 33305  33377M
                                                 33378M 33378B 33401M 33402M 33402B 33415M 33416M 33416B 33449M 33450M
                                                 33450B 33467M 33468M 33468B 33528M 33529M 33529B 33670M 33671M 33671B
                                                 33841M 33842M 33842B 33859M 33860M 33860B 33909M 33910M 33910B 33992M
                                                 33993M 33993B 34096M 34097M 34097B 34101M 34102M 34102B 34125M 34126M
                                                 34126B 34143M 34144M 34144B 34260M 34261M 34261B 34278M 34279M 34279B
                                                 34283M 34284M 34284B 34307M 34308M 34308B 34325M 34326M 34326B 34330M
                                                 34331M 34331B 34354M 34355M 34355B 34447M 34448M 34448B 34469M 34470M
                                                 34470B 34491M 34492M 34492B 34517M 34520B 34550  34664M 34665M 34665B
                                                 34687M 34688M 34688B 34711M 34714B 34836  34882M 34883M 34883B 34936M
                                                 34939B 34952  34998M 34999M 34999B 35052M 35055B 35068  35114M 35115M
                                                 35115B 35143M 35146B 35159  35205M 35206M 35206B 35259M 35262B 35282
                                                 35332M 35333M 35333B 35346M 35347M 35347B 35367M 35370B 35382  35428M
                                                 35431B 35443  35492M 35495B 35507  35556M 35559B 35571  35621M 35622M
                                                 35622B 35635M 35636M 35636B 35656M 35659B
 RDRNG         1 00000000 00000032     T   16395 16395  21229  23046  25043  26700  29893  33217  35790
 READY         2 00004BD8 00000001     H   25603 25555B 25568B 25586B
 RECLOAD       2 000064E0 00000001     H   31049 31045
 RLDCOUNT      4 00000014 FFFFFFD6     F   31020 32558  32559M 33030  33031M
 RLDDRG        4 0000000C FFFFFFD6     A   31018 31120M 31285  31876M 32602  32616  33073  33081
 RLDFFREE     16 00000000 FFFFFFD6        31009 32074M 32148M
 RLDFLAG       1 00000000 FFFFFFD6     R   30990 30994  30999  31004  31009
 RLDFNDUP     32 00000000 FFFFFFD6        31004 32008M 32569  33041
 RLDFPUB     128 00000000 FFFFFFD6        30994 31314  31874M
 RLDFUPP      64 00000000 FFFFFFD6        30999 31942M 32505  32718  32796
 RLDINTO       2 00006900 00000001     H   31732 31561
 RLDKCNT       9 00000037 FFFFFFD6     C   31027 32575M 32584  32591  33055  33062
 RLDKDATA     31 00000021 FFFFFFD6     C   31026 32484M 32534M 33014M 33238
 RLDKEY       32 00000020 FFFFFFD6     C   31024 31283M 31283  31284  32438M 32615  32967M 33080
 RLDLINE     235 00000040 FFFFFFD6     C   31029 32697M 32747M 32774  33242
 RLDLPTRS      4 00000018 FFFFFFD6     A   31022 32650M 33079
 RLDMAX        4 00000008 FFFFFFD6     A   31016 32300M 32926M 32926  32940
1EDIT     (EDIT2193) (12:43) (15MAR04) Ordinary Symbol and Literal Cross Reference                                          Page  136
 RLDMIN        4 00000004 FFFFFFD6     A   31015 32239M 32888M 32888  32902
 RLDNDUP       2 000069A8 00000001     H   31968 31621
 RLDPERR       4 00006CC4 00000001     I   33101 32621B
 RLDPRT        4 000066F8 00000001     F   31534 33230
 RLDPRTX       4 000066A8 00000001     F   31503 33229
 RLDPUB        2 0000692C 00000001     H   31793 31576  31591
 RLDREXIT      2 00006D2E 00000001     H   33179 32622B 32641B
 RLDRTN        2 00006AA2 00000001     H   32335 33234
 RLDSEP        1 00000001 FFFFFFD6     C   31013 31118M 32081M 32178M 32384  32419
 RLDSETNO      4 00000010 FFFFFFD6     F   31019 31257M 31257  31358  31767M 32601  33072
 RLDUPP        2 0000697C 00000001     H   31902 31606
 RLDWA       299 00000000 FFFFFFD6     J   31036 31062  31091U 31095  31106U 31115M 31115  31116M 31116  31494  31496
                                                 31497
 RLDXFF        2 000069D4 00000001     H   32034 31651
 RLDXMAX       2 00006A76 00000001     H   32265 31681
 RLDXMIN       2 00006A4A 00000001     H   32204 31666
 RLDXSEP       2 00006A04 00000001     H   32107 31636
 R0            0 00000000 FFFFFFFF A   #     699  2130   2199M  6827M  6827   6836   6837   6894M  6924M  6950M  6972M
                                                  6972   6990M  7146   7288M  7288   7297   7298   7387M  7407   7518M
                                                  7602M  7622   7733M  8229M  8229   8238   8239   8304M  8322M  8340M
                                                  8363M  8384M  8406M  8406   8424M  8762M  9072   9188M  9460M  9555M
                                                 10025M 10025  10034  10035  10036  10063M 10063  10080  10131M 10173M
                                                 10173  10182  10183  10184  10213M 10213  10233  10267  10279  10291M
                                                 10325M 10348M 10401M 10420M 10420  10429  10430  10929M 11087M 11087
                                                 11096  11097  11098  11125M 11125  11142  11193M 11232M 11232  11241
                                                 11242  11285M 11656M 11656  11665  11666  11718M 11739M 11761M 11761
                                                 11779M 11839M 11861M 11861  11891M 11919M 11935M 11982M 12050M 12105M
                                                 12227M 12477M 12495M 12513M 12531M 12995  13217M 13362M 13380M 13401M
                                                 13421  13850M 13850  13859  13860  13902M 13902  13911  13912  14056M
                                                 14091M 14113M 14155M 14155  14184M 14184  16093  16170M 16243  16313M
                                                 16331M 16544  16546M 16548M 16564M 16564  16593  16686M 16721M 16742M
                                                 16767M 16792M 16817M 16899M 16970M 16999M 17031M 17031  17158M 17179M
                                                 17204M 17229M 17254M 17319M 17319  17364M 17364  17553  17554  17554
                                                 17554  17572M 17594M 17624M 17676M 17697M 17746  17746  17746  17811
                                                 17827  17876M 17889M 17921M 17958M 17974M 18008M 18042M 18044M 18170
                                                 18171  18171  18171  18176M 18176  18193M 18215M 18243M 18280M 18311M
                                                 18328M 18328  18373  18373  18373  18454M 18454  18463  18464  18494M
                                                 18665  18681  18688  18692  18694M 18700M 18714M 18725  18728  18768M
                                                 18784M 18796  18797  18797  18797  18837M 18837  18867M 19100M 19100
                                                 19109  19110  19153M 19167M 19167  19176  19177  19178  19287M 19287
                                                 19296  19297  19340M 19354M 19354  19363  19364  19458M 19509M 19699M
                                                 19862M 19868  19871M 19877  19886M 19973M 19986M 20020M 20033M 20077M
                                                 20095M 20202M 20202  20240M 20240  20355M 20377M 20399M 20399  20408
                                                 20409  20410  20437M 20437  20819  20833M 20833  20842  20843  20844
                                                 20876  20901M 20901  20910  20911  21025M 21094  21106M 21112  21254
                                                 21254  21254  21426M 21426  21435  21436  21478M 21478  21487  21488
                                                 21716M 21751M 21773M 21817M 21852M 21874M 21969M 21969  21985M 22043M
                                                 22064M 22064  22103M 22392M 22418  22513  22539  22633  22873M 22873
                                                 22879  22922  23214M 23214  23223  23224  23289M 23320M 23369M 23419M
                                                 23443M 23467M 23495M 23504M 23532M 23642M 23642  24062M 24062  24071
                                                 24072  24196M 24196  24205  24206  24334M 24334  24343  24344  24555
                                                 24640  24679  24686  24702  24709  24725  24753  24781  24827M 24828
                                                 24862M 24883M 24883  24940M 24975M 24975  25398  25436M 25436  25445
                                                 25446  25488M 25488  25497  25498  25598M 25675M 25833M 25833  25871M
                                                 25897M 25923M 26129M 26130  26201M 26248M 26248  26262M 26268  26359M
                                                 26389  26390M 26391  26413M 26426M 26490M 26503M 26537M 26575M 26602M
                                                 26620M 26780M 26793M 26827M 27308M 27390M 27417M 27417  27426  27427
                                                 27513  27597M 27623M 27718M 27744M 27828M 27828  27837  27838  27923
                                                 27938M 27938  27974M 28061M 28087M 28260M 28260  28269  28270  28355
1EDIT     (EDIT2193) (12:43) (15MAR04) Ordinary Symbol and Literal Cross Reference                                          Page  137
                                                 28428M 28428  28437  28438  28520M 28520  28521  28721  28900M 28900
                                                 28909  28910  28911  28938M 28938  28948  28996M 29014M 29022M 29106M
                                                 29128M 29128  29146M 29177M 29177  29186  29187  29228M 29246M 29256M
                                                 29289M 29311M 29311  29329M 29452  29500M 29518M 29526M 29723  29724
                                                 29724  29724  29749M 29771M 29771  29789M 29817M 29823  29831M 29900
                                                 29900  29900  30069M 30069  30078  30079  30120M 30152M 30198M 30198
                                                 30207  30208  30249M 30256M 30289M 30289  30298  30299  30340M 30347M
                                                 30537  30549M 30554  30555  30666  30678M 30683  30684  30807  30821M
                                                 30865M 30874M 30874  30941M 31159M 31159  31168  31169  31211M 31211
                                                 31220  31221  31268M 31304M 31324M 31362M 31362  31380M 31405M 31440M
                                                 31462M 31767  31862M 32164  32239  32300  32402M 32402  32552  32553
                                                 32553  32553  32584M 32601M 32610M 32614M 32634M 32650  32651  32782
                                                 32820M 32820  32829  32866M 32866  32902  32940  32968  33055M 33072M
                                                 33079M 33102M 33115M 33147M 33147  33156  33250  33250  33250  33386M
                                                 33386  33395  33396  33438M 33456M 33474M 33524M 33659M 33677M 33830M
                                                 33848M 33866M 33875M 34079  34085M 34098M 34132M 34158M 34180M 34206M
                                                 34232M 34267M 34280M 34314M 34327M 34436M 34458M 34458  34480M 34653M
                                                 34671M 34903M 35019M 35226M 35317M 35317  35326  35327  35472  35536
                                                 35606M 35606  35615  35616
 R1            1 00000001 FFFFFFFF A   #     712  2193M  2194M  2200M  6823M  6836   6837   6839   6889M  6919M  6949M
                                                  6968M  6989M  7284M  7297   7298   7300   7352M  7352   7382M  7513M
                                                  7567M  7567   7597M  7728M  8225M  8238   8239   8241   8303M  8321M
                                                  8339M  8358M  8383M  8402M  8423M  8757M  9183M  9455M  9550M 10021M
                                                 10034  10035  10036  10130M 10169M 10182  10183  10184  10324M 10343M
                                                 10355M 10356M 10356  10400M 10416M 10429  10430  10432  10924M 11083M
                                                 11096  11097  11098  11192M 11228M 11241  11242  11244  11284M 11652M
                                                 11665  11666  11668  11713M 11738M 11757M 11778M 11838M 11857M 11884M
                                                 11914M 11934M 11981M 12028M 12049M 12083M 12104M 12142M 12191M 12226M
                                                 12476M 12494M 12512M 12530M 13216M 13340M 13340  13361M 13379M 13396M
                                                 13846M 13859  13860  13862  13898M 13911  13912  13914  14057M 14092M
                                                 14114M 16165M 16312M 16330M 16540  16547M 16594  16679M 16720M 16741M
                                                 16766M 16791M 16816M 16895M 16969M 16994M 17157M 17178M 17203M 17228M
                                                 17253M 17553  17554  17554  17554  17587M 17617M 17669M 17697M 17746
                                                 17746  17746  17810  17875M 17920M 17957M 17973M 18007M 18040M 18170
                                                 18171  18171  18171  18208M 18236M 18273M 18311M 18373  18373  18373
                                                 18450M 18463  18464  18466  18495M 18663M 18664  18699M 18713M 18724
                                                 18767M 18796  18797  18797  18797  18867M 19096M 19109  19110  19112
                                                 19152M 19163M 19176  19177  19178  19199M 19200M 19200  19283M 19296
                                                 19297  19299  19339M 19350M 19363  19364  19366  19457M 19508M 19531M
                                                 19532  19539M 19626M 19698M 19761M 19767M 19777M 19818M 19828U 19863M
                                                 19872M 19885M 19972M 20019M 20072M 20094M 20159M 20164M 20220M 20354M
                                                 20376M 20395M 20408  20409  20410  20829M 20842  20843  20844  20897M
                                                 20910  20911  20913  21024M 21105M 21254  21254  21254  21422M 21435
                                                 21436  21438  21474M 21487  21488  21490  21717M 21752M 21774M 21818M
                                                 21853M 21875M 21965M 21984M 22036M 22071M 22102M 22391M 22916M 22953
                                                 22985M 23210M 23223  23224  23226  23288M 23321M 23368M 23418M 23442M
                                                 23466M 23494M 23503M 23531M 23638M 24058M 24071  24072  24074  24192M
                                                 24205  24206  24208  24330M 24343  24344  24346  24861M 24890M 24939M
                                                 25399  25432M 25445  25446  25448  25484M 25497  25498  25500  25597M
                                                 25674M 25681M 25732M 25732  25816M 25872M 25898M 25924M 25935M 25937M
                                                 25938  25947M 25947  26121  26202M 26214M 26224M 26263M 26337M 26338M
                                                 26344  26360M 26412M 26489M 26536M 26574M 26601M 26619M 26779M 26826M
                                                 27307M 27389M 27413M 27426  27427  27429  27514  27596M 27622M 27717M
                                                 27743M 27824M 27837  27838  27840  27973M 28060M 28086M 28256M 28269
                                                 28270  28272  28424M 28437  28438  28440  28896M 28909  28910  28911
                                                 28947  28995M 29013M 29105M 29124M 29145M 29173M 29186  29187  29189
                                                 29227M 29245M 29257M 29288M 29307M 29328M 29451  29499M 29517M 29723
                                                 29724  29724  29724  29748M 29767M 29788M 29818M 29831M 29900  29900
                                                 29900  30065M 30078  30079  30081  30119M 30153M 30194M 30207  30208
1EDIT     (EDIT2193) (12:43) (15MAR04) Ordinary Symbol and Literal Cross Reference                                          Page  138
                                                 30210  30248M 30257M 30285M 30298  30299  30301  30339M 30348M 30806
                                                 30818  30819  30819  30819  30820M 30847M 30860M 30936M 31155M 31168
                                                 31169  31171  31207M 31220  31221  31223  31267M 31303M 31323M 31358M
                                                 31379M 31406M 31441M 31463M 31861M 32390  32425  32552  32553  32553
                                                 32553  32591M 32610M 32612M 32632M 32650  32774M 32781  32816M 32829
                                                 33062M 33079M 33101M 33143M 33156  33246  33246  33246  33250  33250
                                                 33250  33382M 33395  33396  33398  33437M 33455M 33473M 33525M 33658M
                                                 33676M 33829M 33847M 33865M 33876M 34084M 34131M 34157M 34179M 34205M
                                                 34231M 34266M 34313M 34435M 34454M 34479M 34652M 34670M 34902M 35018M
                                                 35225M 35313M 35326  35327  35329  35602M 35615  35616  35618
 R12          12 0000000C FFFFFFFF A   #     855  2156
 R13          13 0000000D FFFFFFFF A   #     868  6831   6832   6833   6849   6850   6851   7292   7293   7294   7310
                                                  7311   7312   8233   8234   8235   8251   8252   8253  10016  10029
                                                 10030  10031  10046  10047  10048  10177  10178  10179  10194  10195
                                                 10196  10424  10425  10426  10442  10443  10444  11078  11091  11092
                                                 11093  11108  11109  11110  11236  11237  11238  11254  11255  11256
                                                 11660  11661  11662  11678  11679  11680  13854  13855  13856  13872
                                                 13873  13874  13906  13907  13908  13924  13925  13926  18458  18459
                                                 18460  18476  18477  18478  19104  19105  19106  19122  19123  19124
                                                 19171  19172  19173  19188  19189  19190  19291  19292  19293  19309
                                                 19310  19311  19358  19359  19360  19376  19377  19378  20390  20403
                                                 20404  20405  20420  20421  20422  20824  20837  20838  20839  20854
                                                 20855  20856  20905  20906  20907  20923  20924  20925  21430  21431
                                                 21432  21448  21449  21450  21482  21483  21484  21500  21501  21502
                                                 23218  23219  23220  23236  23237  23238  24066  24067  24068  24084
                                                 24085  24086  24200  24201  24202  24218  24219  24220  24338  24339
                                                 24340  24356  24357  24358  25440  25441  25442  25458  25459  25460
                                                 25492  25493  25494  25510  25511  25512  27421  27422  27423  27439
                                                 27440  27441  27832  27833  27834  27850  27851  27852  28264  28265
                                                 28266  28282  28283  28284  28432  28433  28434  28450  28451  28452
                                                 28904  28905  28906  28921  28922  28923  29181  29182  29183  29199
                                                 29200  29201  30073  30074  30075  30091  30092  30093  30202  30203
                                                 30204  30220  30221  30222  30293  30294  30295  30311  30312  30313
                                                 31163  31164  31165  31181  31182  31183  31215  31216  31217  31233
                                                 31234  31235  32824  32825  32826  32839  32840  32841  33151  33152
                                                 33153  33166  33167  33168  33390  33391  33392  33408  33409  33410
                                                 35321  35322  35323  35339  35340  35341  35610  35611  35612  35628
                                                 35629  35630
 R14          14 0000000E FFFFFFFF A   #     881  2131M  6830M  6831   6832   6833   6838M  6839   6846M  6849   6850
                                                  6851   7291M  7292   7293   7294   7299M  7300   7307M  7310   7311
                                                  7312   7408M  7623M  8232M  8233   8234   8235   8240M  8241   8248M
                                                  8251   8252   8253  10015M 10016  10028M 10029  10030  10031  10043M
                                                 10046  10047  10048  10122M 10125  10159M 10162  10176M 10177  10178
                                                 10179  10191M 10194  10195  10196  10423M 10424  10425  10426  10431M
                                                 10432  10439M 10442  10443  10444  11077M 11078  11090M 11091  11092
                                                 11093  11105M 11108  11109  11110  11184M 11187  11221M 11224  11235M
                                                 11236  11237  11238  11243M 11244  11251M 11254  11255  11256  11659M
                                                 11660  11661  11662  11667M 11668  11675M 11678  11679  11680  13422M
                                                 13853M 13854  13855  13856  13861M 13862  13869M 13872  13873  13874
                                                 13905M 13906  13907  13908  13913M 13914  13921M 13924  13925  13926
                                                 18457M 18458  18459  18460  18465M 18466  18473M 18476  18477  18478
                                                 19103M 19104  19105  19106  19111M 19112  19119M 19122  19123  19124
                                                 19170M 19171  19172  19173  19185M 19188  19189  19190  19220M 19221
                                                 19236  19251  19252  19253  19253  19254  19255  19268  19272M 19272
                                                 19290M 19291  19292  19293  19298M 19299  19306M 19309  19310  19311
                                                 19357M 19358  19359  19360  19365M 19366  19373M 19376  19377  19378
                                                 20389M 20390  20402M 20403  20404  20405  20417M 20420  20421  20422
                                                 20445M 20448  20823M 20824  20836M 20837  20838  20839  20851M 20854
                                                 20855  20856  20904M 20905  20906  20907  20912M 20913  20920M 20923
1EDIT     (EDIT2193) (12:43) (15MAR04) Ordinary Symbol and Literal Cross Reference                                          Page  139
                                                 20924  20925  20951M 20954  21429M 21430  21431  21432  21437M 21438
                                                 21445M 21448  21449  21450  21481M 21482  21483  21484  21489M 21490
                                                 21497M 21500  21501  21502  22512M 22899M 23217M 23218  23219  23220
                                                 23225M 23226  23233M 23236  23237  23238  24065M 24066  24067  24068
                                                 24073M 24074  24081M 24084  24085  24086  24199M 24200  24201  24202
                                                 24207M 24208  24215M 24218  24219  24220  24337M 24338  24339  24340
                                                 24345M 24346  24353M 24356  24357  24358  25439M 25440  25441  25442
                                                 25447M 25448  25455M 25458  25459  25460  25491M 25492  25493  25494
                                                 25499M 25500  25507M 25510  25511  25512  27420M 27421  27422  27423
                                                 27428M 27429  27436M 27439  27440  27441  27831M 27832  27833  27834
                                                 27839M 27840  27847M 27850  27851  27852  28263M 28264  28265  28266
                                                 28271M 28272  28279M 28282  28283  28284  28431M 28432  28433  28434
                                                 28439M 28440  28447M 28450  28451  28452  28903M 28904  28905  28906
                                                 28918M 28921  28922  28923  29180M 29181  29182  29183  29188M 29189
                                                 29196M 29199  29200  29201  30072M 30073  30074  30075  30080M 30081
                                                 30088M 30091  30092  30093  30201M 30202  30203  30204  30209M 30210
                                                 30217M 30220  30221  30222  30292M 30293  30294  30295  30300M 30301
                                                 30308M 30311  30312  30313  30814M 30818  30819  30819  30819  30820
                                                 30847M 31162M 31163  31164  31165  31170M 31171  31178M 31181  31182
                                                 31183  31214M 31215  31216  31217  31222M 31223  31230M 31233  31234
                                                 31235  32511M 32724M 32780M 32781  32782  32786M 32786  32823M 32824
                                                 32825  32826  32836M 32839  32840  32841  33150M 33151  33152  33153
                                                 33163M 33166  33167  33168  33246  33246  33246  33389M 33390  33391
                                                 33392  33397M 33398  33405M 33408  33409  33410  35320M 35321  35322
                                                 35323  35328M 35329  35336M 35339  35340  35341  35609M 35610  35611
                                                 35612  35617M 35618  35625M 35628  35629  35630
 R15          15 0000000F FFFFFFFF A   #     894  2130   6852M  6852   6880M  6910M  6958M  6980M  6998M  7032M  7032
                                                  7167M  7167   7313M  7313   7353M  7373   7407   7504M  7568M  7588
                                                  7622   7719M  7779M  7779   7925M  7925   7986M  7986   8052M  8052
                                                  8254M  8254   8312M  8330M  8349M  8392M  8414M  8658M  8659M  8660
                                                  8679M  8680M  8681   8708M  8709M  8710   8730M  8731M  8732   8748M
                                                  8801M  8801   9091M  9091   9174M  9202M  9202   9221M  9221   9273M
                                                  9273   9292M  9292   9344M  9344   9363M  9363   9446M  9474M  9474
                                                  9493M  9493   9541M  9569M  9569   9588M  9588   9667M  9667   9746M
                                                  9746   9825M  9825   9904M  9904  10049M 10049  10139M 10197M 10197
                                                 10315M 10334M 10391M 10445M 10445  10544M 10545M 10545  10590M 10590
                                                 10806M 10806  10867M 10867  10915M 10937M 10937  10956M 10956  10998
                                                 11017M 11017  11111M 11111  11201M 11257M 11257  11321M 11321  11455M
                                                 11455  11681M 11681  11692M 11693M 11693  11747M 11769M 11847M 11869M
                                                 11899M 11927M 11974M 12000M 12029M 12084M 12141M 12141  12190M 12260M
                                                 12260  12485M 12503M 12521M 12551M 12551  12644M 12644  12737M 12737
                                                 12830M 12830  12923M 12923  13014M 13014  13080M 13080  13146M 13146
                                                 13207M 13237M 13237  13341M 13370M 13387  13421  13494M 13528M 13528
                                                 13731M 13731  13875M 13875  13927M 13927  13956M 13965M 13965  14013M
                                                 14013  14163M 14192M 14220M 14230U 14276M 14276  14795M 14795  14866M
                                                 14866  14937M 14937  15014M 15014  15091M 15091  15157M 15157  15229M
                                                 15229  15295M 15295  15361M 15361  15486M 15486  15553M 15553  15619M
                                                 15619  15685M 15685  15752M 15752  15818M 15818  15884M 15884  15985M
                                                 15985  16051M 16051  16112M 16112  16156M 16178M 16178  16197M 16197
                                                 16266M 16266  16321M 16339M 16363M 16363  16690M 16690  16841M 16907M
                                                 16978M 17278M 17327M 17372M 17391M 17436M 17446U 17498M 17498  17555M
                                                 17602M 17632M 17637M 17684M 17689M 17694M 17720M 17720  17810M 17811M
                                                 17813M 17884M 17913M 17966M 17998M 18064M 18091M 18091  18172M 18223M
                                                 18304M 18336M 18359M 18359  18479M 18479  18520M 18520  18665M 18714
                                                 18726M 18727M 18728M 18732M 18741M 18741  18748  18845M 18868M 18960M
                                                 18960  19125M 19125  19142  19191M 19191  19221M 19230M 19230  19236M
                                                 19245M 19245  19251M 19252M 19254M 19255  19267M 19267  19268  19312M
                                                 19312  19329  19379M 19379  19473M 19474M 19474  19480M 19482M 19483
                                                 19497  19524M 19525M 19525  19769M 19778M 19779M 19789M 19791  19894M
1EDIT     (EDIT2193) (12:43) (15MAR04) Ordinary Symbol and Literal Cross Reference                                          Page  140
                                                 19981M 20010M 20028M 20057M 20085M 20103M 20210M 20248M 20254M 20264U
                                                 20423M 20423  20488M 20488  20758M 20777M 20777  20857M 20857  20926M
                                                 20926  20959M 20978M 20978  21045M 21045  21113M 21132M 21132  21198M
                                                 21198  21451M 21451  21503M 21503  21545M 21545  21615M 21624M 21624
                                                 21675  21889M 21892  21931M 21977M 22021M 22051M 22060M 22095M 22132M
                                                 22132  22345M 22381M 22422M 22422  22441M 22441  22487M 22513M 22516M
                                                 22518  22543M 22543  22562M 22562  22608M 22637M 22637  22656M 22656
                                                 22759M 22759  22976M 22977M 22978  23016M 23016  23239M 23239  23297M
                                                 23377M 23566M 23566  23628M 23650M 23655M 23674M 23674  23963M 23963
                                                 23982M 23982  24087M 24087  24097M 24097  24116M 24116  24221M 24221
                                                 24231M 24231  24250M 24250  24359M 24359  24369M 24369  24388M 24388
                                                 24449M 24449  24494M 24513M 24513  24558M 24577M 24577  24852M 24870M
                                                 24879M 24914M 24948M 24983M 25015M 25015  25215M 25215  25461M 25461
                                                 25513M 25513  25772M 25772  25841M 25984M 25984  26030M 26030  26116M
                                                 26121M 26222M 26256M 26346M 26347M 26352M 26354M 26360  26380M 26380
                                                 26421M 26450M 26498M 26527M 26545M 26583M 26610M 26628M 26671M 26671
                                                 26788M 26817M 26847M 26847  27328M 27328  27442M 27442  27451M 27451
                                                 27470M 27470  27515M 27534M 27534  27636M 27636  27655M 27655  27753M
                                                 27753  27772M 27772  27853M 27853  27862M 27862  27881M 27881  27980M
                                                 27999M 27999  28108M 28108  28127M 28127  28185M 28185  28204M 28204
                                                 28285M 28285  28294M 28294  28313M 28313  28361M 28380M 28380  28453M
                                                 28453  28459M 28478M 28478  28527M 28546M 28546  28612M 28612  28679M
                                                 28679  28740M 28740  28924M 28924  28947M 28948M 28950M 28986M 29004M
                                                 29066M 29066  29081  29085M 29114M 29136M 29153  29202M 29202  29210M
                                                 29211M 29211  29236M 29267M 29268M 29268  29297M 29319M 29360M 29360
                                                 29451M 29452M 29454M 29490M 29508M 29570M 29570  29585  29589M 29589
                                                 29608M 29608  29674M 29674  29728M 29757M 29779M 29796  29800M 29823M
                                                 29839M 29862M 29862  30094M 30094  30142M 30142  30223M 30223  30314M
                                                 30314  30382M 30382  30555M 30559M 30568M 30568  30575  30603M 30603
                                                 30622M 30622  30684M 30688M 30697M 30697  30704  30732M 30732  30751M
                                                 30751  30840M 30977M 30977  31119M 31120  31184M 31184  31236M 31236
                                                 31285M 31348M 31370M 31498M 31498  31786M 31786  31875M 31876  31895M
                                                 31895  31961M 31961  32027M 32027  32100M 32100  32197M 32197  32258M
                                                 32258  32319M 32319  32425M 32426M 32441  32453M 32461M 32470M 32470
                                                 32477  32520M 32520  32527  32557M 32558M 32559  32602M 32616M 32651M
                                                 32654  32666M 32674M 32683M 32683  32690  32733M 32733  32740  32842M
                                                 32842  32855M 32855  32875M 32875  32909M 32947M 32961M 32961  32968M
                                                 32971  32983M 32991M 33000M 33000  33007  33029M 33030M 33031  33073M
                                                 33081M 33110M 33169M 33169  33195M 33195  33411M 33411  33446M 33464M
                                                 33667M 33838M 33856M 34011M 34011  34025  34050M 34051M 34052  34093M
                                                 34122M 34140M 34170  34196  34222  34237  34257M 34275M 34304M 34322M
                                                 34351M 34444M 34466M 34488M 34519M 34519  34594M 34614  34642  34661M
                                                 34682  34684M 34713M 34713  34914M 34914  34938M 34938  35030M 35030
                                                 35054M 35054  35121M 35121  35145M 35145  35237M 35237  35261M 35261
                                                 35342M 35342  35350M 35369M 35369  35430M 35430  35475M 35494M 35494
                                                 35539M 35558M 35558  35631M 35631  35639M 35658M 35658
 R2            2 00000002 FFFFFFFF A   #     725 11786M 11796U 16425  18724M 18725M 18794M 18794  18856M 18928M 18928
                                                 19435M 19446  19608M 19609M 19611  19730M 19732  19759M 19761  19776M
                                                 21892M 21903M 21903  21965  22730M 22731M 22732  22847M 22848M 22849
                                                 22879M 22882M 22884  22901  23420M 23444M 23468M 23496M 23505M 23533M
                                                 23638  26149M 26182  26212  26213  26262  26307M 26308M 26310  26333
                                                 26335  26357  26358  26358  26358  26361M 26367  26370M 26719  26719
                                                 26719  30880M 30942M 31284M 32615M 33080M 33878M 33890M 33890  33929M
                                                 33930M 33930  33943M 33980  34079M 34098  34237M 34365M 34365  34382
                                                 34402  34422  34454
 R3            3 00000003 FFFFFFFF A   #     738  7416M  7426U  7631M  7641U 13430M 13440U 16593M 16655M 16655  16999
                                                 19085M 19093  19436M 19446  19480  19497  20449M 23264M 23266M 23278
                                                 24093  24227  24365  24491M 24493  24493M 24555M 24557  24557M 24640M
                                                 24879  26130M 26131M 26133  26357  26358  26358  26358  26362M 26370M
1EDIT     (EDIT2193) (12:43) (15MAR04) Ordinary Symbol and Literal Cross Reference                                          Page  141
                                                 26719  26719  26719  27403M 27512  27814M 27953  28246M 28356  28522
                                                 30881M 30899  30943M 33879M 33901M 33901  33950M 33951M 33951  33980M
                                                 34892M 34892  34910  35008M 35008  35026  35117  35215M 35215  35233
                                                 35349  35349M 35472M 35474  35474M 35536M 35538  35538M 35638  35638M
 R4            4 00000004 FFFFFFFF A   #     751  7340M  7340   7353   7373M  7441   7504   7552M  7555M  7568   7588M
                                                  7656   7719   8442M  8452U 13330M 13333M 13341  13387M 13494  16594M
                                                 16994  19086M 19280  20450M 22923M 22924  22928M 22946  32390M 32426
 R5            5 00000005 FFFFFFFF A   #     764  6820M  6820   6867M  6867   6874M  6880   6910   6968   7132M  7132
                                                  7146M  7148   7148M 16540M 18669M 18669  18688M 18777M 18777  18784
                                                 19092M 19279M 19538M 19903M 19903  19937M 19937  20077  20150M 20150
                                                 20181M 20181  20219M 20219  20384M 22922M 22924M 22927M 22939M 22939
                                                 22987M 26124M 26201  26202  29796M 29839
 R6            6 00000006 FFFFFFFF A   #     777  7262M  7270U  8201M  8209U  9993M 10001U 11631M 11639U 13786M 13794U
                                                 13804  16511M 16519U 18664M 18713  18767  19056M 19064U 21358M 21366U
                                                 21368  22711M 22721U 22834M 22842U 23176M 23184U 23193  24630M 24638U
                                                 25269M 25277U 25279  26123M 28873M 28881U 28883  29720M 30000M 30008U
                                                 30010  30801M 31095M 31106U 31108  32370M 33344M 33355U 33357  34579M
                                                 34589U 34865M 34875U 34981M 34991U 35097M 35107U 35188M 35198U
 R7            7 00000007 FFFFFFFF A   #     790  2123M  2123   2124B  2136B
 R8            8 00000008 FFFFFFFF A   #     803  6812U  7258U  8197U  9989U 11627U 13318U 13782U 16425  16506U 18658U
                                                 19052U 21354U 22830U 23172U 25265U 26110U 28869U 29996U 31091U 33340U
 SACTINF     424 00000000 FFFFFFE7     X    6750  6889   6894   6919   6924
 SACTNUM       2 0000017C 00000001     H    7089  7052
 SACTPRT       4 00000104 00000001     F    7040  8072
 SACTSALL      2 0000041C 00000001     H    7866  7814
 SACTSPRT      4 00000354 00000001     F    7787  8080
 SACTSREV      2 00000476 00000001     H    7993  7799
 SACTSTMP      2 00000448 00000001     H    7932  7829
 SACTSWA     433 00000000 FFFFFFE6     J    7203  7229   7258U  7262   7270U  7278M  7278   7279M  7279   7775   7777
                                                  7778
 SACTWA      424 00000000 FFFFFFE7     J    6757  6783   6812U  7028   7030   7031
 SAFCLR      128 00000000 FFFFFFE6         7185  7479   7694   7906M
 SAFLAG        1 00000000 FFFFFFE6     R    7181  7185   7190
 SAFREV       64 00000000 FFFFFFE6         7190  7331   8033M
 SAINFO      424 00000009 FFFFFFE6     X    7196  7382   7387   7416   7597   7602   7631
 SANEXT        2 00000248 00000001     H    7350  7462B  7494B
 SARNEXT       2 000002CA 00000001     H    7559  7677B  7709B
 SATYPE        8 00000001 FFFFFFE6     C    7194  7281M  7459   7674   7967M
 SCANCHK       1 00000000 00000008     T    8074  8074  11470  13542  16388  21226  23040  25038  26689  28764  29882
                                                 33211  35785
 SCDQUOTE      1 00000000 00000016     T   11480 11480  16401
 SCNDITTO      2 00005A4E 00000001     H   28686 27033
 SCNEXFR       1 00000000 0000002C     T   16383 16383  23035  26682  33206
 SCNMRGE       2 000059F6 00000001     H   28553 26958
 SCNNMRGE      2 00005A22 00000001     H   28619 26973
 SCNNOOP       1 00000000 0000002B     T   14700 14700  14715  22180  22195  22210  30449  31696  31711
 SCUPCASE      1 00000000 00000014     T   11478 11478
 SDSNQSZ       1 0000002C FFFFFFEC A   U    6111  6112   6113
 SEG           1 00000000 0000000B     T    8077  8077  11472  13544  16404  17732  18103  18370  21247  23054  25051
                                                 26715  28760  29883  33232  35787
 SEGB          1 00000000 00000046     T   21245 21245  23056  25039
 SEGCLR        1 00000000 00000049     T   23052 23052
 SEGCR         1 00000000 00000012     T   11471 11471  13547  16398  17738  18105  18372  21244  29884  35786
 SEGDC         1 00000000 0000000C     T    8078  8078  11474  13545  23053  25046  29888  33233  35799
 SEGINIT       1 00000000 0000005B     T   33225 33225
 SEGMARK       1 00000000 00000038     T   17739 17739
 SEGT          1 00000000 00000021     T   13546 13546
 SEGWR         1 00000000 00000017     T   11482 11482  16399  21232  25052  26696
 SELDELTA      1 00000000 00000055     T   26711 26711
1EDIT     (EDIT2193) (12:43) (15MAR04) Ordinary Symbol and Literal Cross Reference                                          Page  142
 SETACT        2 00000502 00000001     H    8155  8151
 SETACTWA    528 00000000 FFFFFFE5     J    8142  8168   8197U  8201   8209U  8217M  8217   8218M  8218   8219M  8219
                                                  8797   8799   8800
 SETAFLAG      1 00000000 FFFFFFE5     R    8102  8106   8111   8116   8121   8126
 SETAFLOCK
              64 00000000 FFFFFFE5         8111  8509   9793M  9873M
 SETAFNLOCK
              32 00000000 FFFFFFE5         8116  8535   9800M  9879M
 SETAFNPRT
               8 00000000 FFFFFFE5         8126  8588   9642M  9721M
 SETAFOPT    128 00000000 FFFFFFE5         8106  8293   9198M  9269M  9340M  9470M  9565M  9648M  9727M  9806M  9885M
 SETAFPRT     16 00000000 FFFFFFE5         8121  8562   9635M  9715M
 SETAINF     424 00000068 FFFFFFE5     X    8135  8358   8363   8442   8757   8762
 SETANAME      8 00000010 FFFFFFE5     C    8132  8466M  8466   8473   9183   9188
 SETANUM       4 00000004 FFFFFFE5     F    8130  8271M  8271   8278M  8349   8402   8748   9072M
 SETAPRT       4 000006F4 00000001     F    8809 11468
 SETATITL     80 00000018 FFFFFFE5     C    8133  8488M  8488   8495   9550   9555
 SETATYPE      8 00000008 FFFFFFE5     C    8131  8617M  8617   8698   8742   9263M  9334M  9455   9460
 SETXLOCK      2 00000B3A 00000001     H    9753  9001
 SETXNAME      2 00000978 00000001     H    9098  8836
 SETXNLCK      2 00000B6E 00000001     H    9832  9016
 SETXNPRT      2 00000B06 00000001     H    9674  8986
 SETXNUM       2 0000094C 00000001     H    9037  8821
 SETXPRT       2 00000AD2 00000001     H    9595  8971
 SETXTEMP      2 000009CE 00000001     H    9228  8866   8926   8956
 SETXTEXT      2 00000A02 00000001     H    9299  8881   8896   8911   8941
 SETXTITL      2 00000A8C 00000001     H    9500  8851
 SHOSIZ        2 0000421E 00000001     H   23130 23126
 SHOSIZOP      4 00004400 00000001     F   23682 25036
 SHOSZMSG      2 00004318 00000001     H   23384 23302B
 SHOWACT       2 00000018 00000001     H    6770  6766
 SHOWACTS      2 000001B6 00000001     H    7216  7212
 SIZFLEQ      16 00000000 FFFFFFDB        23100 24035  24035  24169  24169  24306  24306  24307  24307  24327M 24657
                                                 24657  24658  24658  24816  24816  24817  24817
 SIZFLFST    128 00000000 FFFFFFDB        23085 23355  24928  24962M
 SIZFLOV      64 00000000 FFFFFFDB        23090 23257  23257  23258  23394  23394  23395  23410  24035  24035  24036
                                                 24055M 24305  24305  24307  24307  24656  24656  24657  24657  24659
                                                 24815  24815  24816  24816
 SIZFLUN      32 00000000 FFFFFFDB        23095 23257  23257  23394  23394  23434  24169  24169  24170  24189M 24305
                                                 24305  24306  24306  24308  24656  24656  24658  24658  24815  24815
                                                 24817  24817
 SIZLEN        4 00004540 00000001     F   23803 25048
 SIZLNG        4 0000000C FFFFFFDB     F   23110 23468  24679  24686M
 SIZOPTS       1 00000000 FFFFFFDB     R   23081 23085  23090  23095  23100  24798  24799
 SIZOV         4 00000008 FFFFFFDB     F   23109 23278  23420  24093M 24725
 SIZSHR        4 00000010 FFFFFFDB     F   23111 23195M 23505  24702  24709M
 SIZUN         4 00000004 FFFFFFDB     F   23108 23264  23444  23496  23533  24227M 24365M 24753  24781
 SIZVAL        2 000043BA 00000001     H   23574 25045
 SIZWA        20 00000000 FFFFFFDB     J   23118 23143  23172U 23176  23184U 23192M 23192  23562  23564  23565  24638U
 SIZWRK        1 00000001 FFFFFFDB     R   23105 24737M 24765M 24793M 24798M 24799M 24818  24996M
 SPR          13 0000000D 00000001 A   #    1104  6777   6780   6782   6783M  6783   7024M  7028   7030   7095   7098
                                                  7099   7100M  7100   7159M  7163   7165   7223   7226   7228   7229M
                                                  7229   7771M  7775   7777   7872   7875   7876   7877M  7877   7917M
                                                  7921   7923   7938   7941   7942   7943M  7943   7978M  7982   7984
                                                  7999   8002   8003   8004M  8004   8044M  8048   8050   8162   8165
                                                  8167   8168M  8168   8793M  8797   8799   9043   9046   9047   9048M
                                                  9048   9083M  9087   9089   9104   9107   9108   9109M  9109   9213M
                                                  9217   9219   9234   9237   9238   9239M  9239   9284M  9288   9290
                                                  9305   9308   9309   9310M  9310   9355M  9359   9361   9376   9379
1EDIT     (EDIT2193) (12:43) (15MAR04) Ordinary Symbol and Literal Cross Reference                                          Page  143
                                                  9380   9381M  9381   9485M  9489   9491   9506   9509   9510   9511M
                                                  9511   9580M  9584   9586   9601   9604   9605   9606M  9606   9659M
                                                  9663   9665   9680   9683   9684   9685M  9685   9738M  9742   9744
                                                  9759   9762   9763   9764M  9764   9817M  9821   9823   9838   9841
                                                  9842   9843M  9843   9896M  9900   9902   9954   9957   9959   9960M
                                                  9960  10582M 10586  10588  10758  10761  10762  10763M 10763  10798M
                                                 10802  10804  10819  10822  10823  10824M 10824  10859M 10863  10865
                                                 10880  10883  10884  10885M 10885  10948M 10952  10954  10969  10972
                                                 10973  10974M 10974  11009M 11013  11015  11043  11046  11047  11048M
                                                 11048  11313M 11317  11319  11400  11403  11404  11405M 11405  11447M
                                                 11451  11453  11592  11595  11597  11598M 11598  12252M 12256  12258
                                                 12443  12446  12447  12448M 12448  12543M 12547  12549  12564  12567
                                                 12568  12569M 12569  12636M 12640  12642  12657  12660  12661  12662M
                                                 12662  12729M 12733  12735  12750  12753  12754  12755M 12755  12822M
                                                 12826  12828  12843  12846  12847  12848M 12848  12915M 12919  12921
                                                 12936  12939  12940  12941M 12941  13006M 13010  13012  13027  13030
                                                 13031  13032M 13032  13072M 13076  13078  13093  13096  13097  13098M
                                                 13098  13138M 13142  13144  13159  13162  13163  13164M 13164  13229M
                                                 13233  13235  13283  13286  13288  13289M 13289  13520M 13524  13526
                                                 13674  13677  13678  13679M 13679  13723M 13727  13729  13747  13750
                                                 13752  13753M 13753  14268M 14272  14274  14742  14745  14746  14747M
                                                 14747  14787M 14791  14793  14808  14811  14812  14813M 14813  14858M
                                                 14862  14864  14879  14882  14883  14884M 14884  14929M 14933  14935
                                                 14950  14953  14954  14955M 14955  15006M 15010  15012  15027  15030
                                                 15031  15032M 15032  15083M 15087  15089  15104  15107  15108  15109M
                                                 15109  15149M 15153  15155  15170  15173  15174  15175M 15175  15221M
                                                 15225  15227  15242  15245  15246  15247M 15247  15287M 15291  15293
                                                 15308  15311  15312  15313M 15313  15353M 15357  15359  15374  15377
                                                 15378  15379M 15379  15478M 15482  15484  15499  15502  15503  15504M
                                                 15504  15545M 15549  15551  15566  15569  15570  15571M 15571  15611M
                                                 15615  15617  15632  15635  15636  15637M 15637  15677M 15681  15683
                                                 15698  15701  15702  15703M 15703  15744M 15748  15750  15765  15768
                                                 15769  15770M 15770  15810M 15814  15816  15831  15834  15835  15836M
                                                 15836  15876M 15880  15882  15897  15900  15901  15902M 15902  15977M
                                                 15981  15983  15998  16001  16002  16003M 16003  16043M 16047  16049
                                                 16064  16067  16068  16069M 16069  16104M 16108  16110  16125  16128
                                                 16129  16130M 16130  16189M 16193  16195  16210  16213  16214  16215M
                                                 16215  16258M 16262  16264  16279  16282  16283  16284M 16284  16355M
                                                 16359  16361  16471  16474  16476  16477M 16477  17490M 17494  17496
                                                 17523  17526  17527  17528M 17528  17712M 17716  17718  17781  17784
                                                 17785  17786M 17786  18083M 18087  18089  18140  18143  18144  18145M
                                                 18145  18351M 18355  18357  18403  18406  18407  18408M 18408  18512M
                                                 18516  18518  18623  18626  18628  18629M 18629  18952M 18956  18958
                                                 19017  19020  19022  19023M 19023  20480M 20484  20486  20729  20732
                                                 20733  20734M 20734  20769M 20773  20775  20790  20793  20794  20795M
                                                 20795  20970M 20974  20976  20991  20994  20995  20996M 20996  21037M
                                                 21041  21043  21058  21061  21062  21063M 21063  21124M 21128  21130
                                                 21145  21148  21149  21150M 21150  21190M 21194  21196  21319  21322
                                                 21324  21325M 21325  22124M 22128  22130  22312  22315  22316  22317M
                                                 22317  22433M 22437  22439  22454  22457  22458  22459M 22459  22554M
                                                 22558  22560  22575  22578  22579  22580M 22580  22648M 22652  22654
                                                 22682  22685  22686  22687M 22687  22751M 22755  22757  22795  22798
                                                 22800  22801M 22801  23008M 23012  23014  23137  23140  23142  23143M
                                                 23143  23558M 23562  23564  23580  23583  23584  23585M 23585  23666M
                                                 23670  23672  23872  23875  23876  23877M 23877  23974M 23978  23980
                                                 23995  23998  23999  24000M 24000  24108M 24112  24114  24129  24132
                                                 24133  24134M 24134  24242M 24246  24248  24263  24266  24267  24268M
                                                 24268  24380M 24384  24386  24401  24404  24405  24406M 24406  24441M
                                                 24445  24447  24462  24465  24466  24467M 24467  24505M 24509  24511
1EDIT     (EDIT2193) (12:43) (15MAR04) Ordinary Symbol and Literal Cross Reference                                          Page  144
                                                 24526  24529  24530  24531M 24531  24569M 24573  24575  24601  24604
                                                 24605  24606M 24606  25007M 25011  25013  25162  25165  25166  25167M
                                                 25167  25207M 25211  25213  25230  25233  25235  25236M 25236  26022M
                                                 26026  26028  26075  26078  26080  26081M 26081  26663M 26667  26669
                                                 26746  26749  26750  26751M 26751  26839M 26843  26845  27274  27277
                                                 27278  27279M 27279  27320M 27324  27326  27341  27344  27345  27346M
                                                 27346  27462M 27466  27468  27483  27486  27487  27488M 27488  27526M
                                                 27530  27532  27547  27550  27551  27552M 27552  27647M 27651  27653
                                                 27668  27671  27672  27673M 27673  27764M 27768  27770  27785  27788
                                                 27789  27790M 27790  27873M 27877  27879  27894  27897  27898  27899M
                                                 27899  27991M 27995  27997  28012  28015  28016  28017M 28017  28119M
                                                 28123  28125  28140  28143  28144  28145M 28145  28196M 28200  28202
                                                 28217  28220  28221  28222M 28222  28305M 28309  28311  28326  28329
                                                 28330  28331M 28331  28372M 28376  28378  28393  28396  28397  28398M
                                                 28398  28470M 28474  28476  28491  28494  28495  28496M 28496  28538M
                                                 28542  28544  28559  28562  28563  28564M 28564  28604M 28608  28610
                                                 28625  28628  28629  28630M 28630  28671M 28675  28677  28692  28695
                                                 28696  28697M 28697  28732M 28736  28738  28834  28837  28839  28840M
                                                 28840  29352M 29356  29358  29422  29425  29426  29427M 29427  29600M
                                                 29604  29606  29621  29624  29625  29626M 29626  29666M 29670  29672
                                                 29691  29694  29695  29696M 29696  29854M 29858  29860  29961  29964
                                                 29966  29967M 29967  30374M 30378  30380  30506  30509  30510  30511M
                                                 30511  30614M 30618  30620  30635  30638  30639  30640M 30640  30743M
                                                 30747  30749  30772  30775  30776  30777M 30777  30969M 30973  30975
                                                 31056  31059  31061  31062M 31062  31490M 31494  31496  31738  31741
                                                 31742  31743M 31743  31778M 31782  31784  31799  31802  31803  31804M
                                                 31804  31887M 31891  31893  31908  31911  31912  31913M 31913  31953M
                                                 31957  31959  31974  31977  31978  31979M 31979  32019M 32023  32025
                                                 32040  32043  32044  32045M 32045  32092M 32096  32098  32113  32116
                                                 32117  32118M 32118  32189M 32193  32195  32210  32213  32214  32215M
                                                 32215  32250M 32254  32256  32271  32274  32275  32276M 32276  32311M
                                                 32315  32317  32341  32344  32345  32346M 32346  33187M 33191  33193
                                                 33305  33308  33310  33311M 33311  34511M 34515  34517  34550  34553
                                                 34554  34555M 34555  34705M 34709  34711  34836  34839  34840  34841M
                                                 34841  34930M 34934  34936  34952  34955  34956  34957M 34957  35046M
                                                 35050  35052  35068  35071  35072  35073M 35073  35137M 35141  35143
                                                 35159  35162  35163  35164M 35164  35253M 35257  35259  35282  35285
                                                 35286  35287M 35287  35361M 35365  35367  35382  35385  35386  35387M
                                                 35387  35422M 35426  35428  35443  35446  35447  35448M 35448  35486M
                                                 35490  35492  35507  35510  35511  35512M 35512  35550M 35554  35556
                                                 35571  35574  35575  35576M 35576  35650M 35654  35656
 SQRTLINE    256 00000000 FFFFFFDF     X   18600 18662M 18663
 SQRTWA      256 00000000 FFFFFFDF     J   18607 18629  18658U 18956  18958  18959
 SQSHRTN       1 00000000 00000035     T   17730 17730  21230
 SQUASH        2 00002D82 00000001     H   18397 18393
 SQUPRT        4 00002E28 00000001     F   18526 21224
 SQUREP        2 00002F4A 00000001     H   18792 18715B
 SQURTN        2 00002EC8 00000001     H   18616 21228
 STOTAL        2 00004054 00000001     H   22569 22300
 STOW          1 00000000 00000053     T   26707 26707
 TEST          2 000063D8 00000001     H   30629 30479
 TOASCII       1 00000000 0000003C     T   18106 18106
 TOLNOPRT      4 0000533C 00000001     F   27067 28762
 TOPRT         4 00005134 00000001     F   26871 26690
 TOPRTX        4 0000510C 00000001     F   26856 26687
 TOTALCNT      4 00000004 FFFFFFDD     F   21281 22060  22977  22978M
 TOTALFLG      1 0000000A FFFFFFDD     R   21285 21289
 TOTALLEN      2 00000008 FFFFFFDD     H   21282 21605M 21605  21694M 21694  21996M 21996  22418M 22539M 22633M 22923
 TOTALSTR    256 0000000B FFFFFFDD     C   21292 22345  22487  22608  22953
1EDIT     (EDIT2193) (12:43) (15MAR04) Ordinary Symbol and Literal Cross Reference                                          Page  145
 TRC           1 00000000 00000000 A   T    2152  2152
 TREAD         1 00000000 00000036     T   17731 17731
 TRYDEL        4 00004D5C 00000001     I   26149 26460B
 TSTAT         1 00000000 00000039     T   17740 17740
 TTYFLAG       1 00000004 FFFFFFEA     R    6240  6244
 TTYMAX#       1 00000006 FFFFFFEA A   U    6296  6297
 TTYTFLAG      1 00000005 FFFFFFEA     R    6250  6254   6259   6264   6269   6274   6279   6284
 UCAINFO     424 00000000 FFFFFFE2     X   13256 13396  13401  13430
 UCLRWA      424 00000000 FFFFFFE2     J   13263 13289  13318U 13524  13526  13527
 UCRNEXT       2 00001A42 00000001     H   13338 13457B 13477B
 UNCLEAR       2 00001A1A 00000001     H   13276 13272
 UNPRESS       1 00000000 00000044     T   21242 21242
 UNPRST        1 00000001 FFFFFFEC A   U    6200 16393  16396  16397  21227  23044  23047  23048  23049  23051  25041
                                                 29891  33215  33220  33222  35788
 UPPTBL        1 00000000 00000000 A   T    2215  2215
 WAR           8 00000008 00000001 A   #    1027  6782M  7024   7099M  7148   7159   7228M  7771   7876M  7917   7942M
                                                  7978   8003M  8044   8167M  8793   9047M  9083   9108M  9213   9238M
                                                  9284   9309M  9355   9380M  9485   9510M  9580   9605M  9659   9684M
                                                  9738   9763M  9817   9842M  9896   9959M 10582  10762M 10798  10823M
                                                 10859  10884M 10948  10973M 11009  11047M 11313  11404M 11447  11597M
                                                 12252  12447M 12543  12568M 12636  12661M 12729  12754M 12822  12847M
                                                 12915  12940M 13006  13031M 13072  13097M 13138  13163M 13229  13288M
                                                 13520  13678M 13723  13752M 14268  14746M 14787  14812M 14858  14883M
                                                 14929  14954M 15006  15031M 15083  15108M 15149  15174M 15221  15246M
                                                 15287  15312M 15353  15378M 15478  15503M 15545  15570M 15611  15636M
                                                 15677  15702M 15744  15769M 15810  15835M 15876  15901M 15977  16002M
                                                 16043  16068M 16104  16129M 16189  16214M 16258  16283M 16355  16476M
                                                 17490  17527M 17712  17785M 18083  18144M 18351  18407M 18512  18628M
                                                 18952  19022M 20480  20733M 20769  20794M 20970  20995M 21037  21062M
                                                 21124  21149M 21190  21324M 22124  22316M 22433  22458M 22554  22579M
                                                 22648  22686M 22751  22800M 23008  23142M 23558  23584M 23666  23876M
                                                 23974  23999M 24108  24133M 24242  24267M 24380  24405M 24441  24466M
                                                 24493  24505  24530M 24557  24569  24605M 25007  25166M 25207  25235M
                                                 26022  26080M 26663  26750M 26839  27278M 27320  27345M 27462  27487M
                                                 27526  27551M 27647  27672M 27764  27789M 27873  27898M 27991  28016M
                                                 28119  28144M 28196  28221M 28305  28330M 28372  28397M 28470  28495M
                                                 28538  28563M 28604  28629M 28671  28696M 28732  28839M 29352  29426M
                                                 29600  29625M 29666  29695M 29854  29966M 30374  30510M 30614  30639M
                                                 30743  30776M 30969  31061M 31490  31742M 31778  31803M 31887  31912M
                                                 31953  31978M 32019  32044M 32092  32117M 32189  32214M 32250  32275M
                                                 32311  32345M 33187  33310M 34511  34554M 34705  34840M 34930  34956M
                                                 35046  35072M 35137  35163M 35253  35286M 35349  35361  35386M 35422
                                                 35447M 35474  35486  35511M 35538  35550  35575M 35638  35650
 WORK          2 00004D1E 00000001     H   26068 26699
 WORKEX        2 00004DD2 00000001     I   26262 26221B
 WORKEXIT      2 00004F62 00000001     H   26650 26269B
 WORKWA      256 00000000 FFFFFFD9     J   26059 26081  26110U 26667  26669  26670
 WRKMRGE       2 00004D78 00000001     H   26186 26311B
 WTOSG         1 00000000 00000000 A   T    2112  2112
 WWBUF       256 00000000 FFFFFFD9     X   26052 26140M 26212M 26214  26222  26307  26503
 WYLEDIT       1 00000000 00000001     J     990   992   1009   1022   1035   1047   1060   1073   1086   1099   1112
                                                  1125   2396   2480   6220   6332   6612   6617   6739   6758   7204
 XLOCATE       1 00000000 0000005D     T   33231 33231
 XPUT          1 00000000 00000060     T   33241 33241
 XSETSET       1 00000000 0000005F     T   33240 33240
 XTOTAL        2 00003F94 00000001     H   22306 22225
 YESREQ        1 00000000 00000022     T   13548 13548
 YESRTN        1 00000000 00000047     T   21248 21248
 =A((DESNRTN+LOCATRTN+UNPRST+DESABORT))
1EDIT     (EDIT2193) (12:43) (15MAR04) Ordinary Symbol and Literal Cross Reference                                          Page  146
               4 000039F8 00000001     A   21227 18494
 =A((DESRTRN+LEXATRTN+DESABORT+UNPRST))
               4 00006D9C 00000001     A   33220 30256  31440
 =A((DESRTRN+LEXATRTN+PREST+DESABORT))
               4 00004FC8 00000001     A   26701 25897
 =A((DESRTRN+LOCATRTN+DESABORT+UNPRST))
               4 000041AC 00000001     A   23048 21773  21874
 =A((DESRTRN+LOCATRTN+DESABORT+UNPRST))
               4 00005FA0 00000001     A   29891 29256
 =A((DESRTRN+LOCATRTN+DESABORT+UNPRST))
               4 00006DA4 00000001     A   33222 30347  31462
 =A((DESRTRN+LOCATRTN+PREST+DESABORT))
               4 00004FBC 00000001     A   26698 25871
 =A((DESRTRN+LOCATRTN+UNPRST+DESABORT))
               4 0000782C 00000001     A   35788 33524
 =A((DESRTRN+LXCATRTN+DESABORT+UNPRST))
               4 00006D88 00000001     A   33215 30152  31405
 =A((DESRTRN+LXCATRTN+PREST+DESABORT))
               4 00004FCC 00000001     A   26702 25923
 =A((LEXATRTN+DESRTRN+DESABORT+UNPRST))
               4 000041A8 00000001     A   23047 21751
 =A((LEXATRTN+DESRTRN+LOCATRTN+DESABORT+UNPRST))
               4 000041B8 00000001     A   23051 21852
 =A((LEXATRTN+DESRTRN+UNPRST+DESABORT))
               4 000027BC 00000001     A   16396 14091
 =A((LOCATRTN+DESRTRN+UNPRST+DESABORT))
               4 000027C0 00000001     A   16397 14113
 =A((LXCATRTN+DESRTRN+DESABORT+UNPRST))
               4 0000419C 00000001     A   23044 21716
 =A((LXCATRTN+DESRTRN+LOCATRTN+DESABORT+UNPRST))
               4 000041B0 00000001     A   23049 21817
 =A((LXCATRTN+DESRTRN+UNPRST+DESABORT))
               4 000027B0 00000001     A   16393 14056
 =A((UNPRST+DESRTRN+DESABORT))
               4 000049C4 00000001     A   25041 23320
 =A(BADLINEL)
               4 00004FA4 00000001     A   26692 25713
 =A(BYLNOPRT)
               4 00005AE8 00000001     A   28766 27839
 =A(CLOSEPRT)
               4 00001328 00000001     A   11494 11243
 =A(CNTPRT)
               4 00004190 00000001     A   23041 21489
 =A(CNTPRTX)
               4 00004184 00000001     A   23038 21437
 =A(COMOPRT)
               4 00003A28 00000001     A   21239 19365
 =A(COMPRT)
               4 00003A20 00000001     A   21237 19111  19298
 =A(COPYAPRT)
               4 00005F9C 00000001     A   29890 29188
 =A(COPYARTN)
               4 00005FA4 00000001     A   29892 29257
 =A(COUNTRTN)
               4 000041A0 00000001     A   23045 21717  21752  21774
 =A(DOSHOSZ)
               4 000049C8 00000001     A   25042 23321
 =A(EVALPRT)
               4 00006D98 00000001     A   33219 30209  30300
1EDIT     (EDIT2193) (12:43) (15MAR04) Ordinary Symbol and Literal Cross Reference                                          Page  147
 =A(EVALPRTF)
               4 00006D50 00000001     A   33209 30080
 =A(EVALRTN)
               4 00006D8C 00000001     A   33216 30153  30257  30348
 =A(HAVCOMB)
               4 00005AF4 00000001     A   28769 28359  28525
 =A(KOWNTTOT)
               4 000041B4 00000001     A   23050 21818  21853  21875
 =A(L'EVALEXP)
               4 00006DA8 00000001     A   33223 30537  30549
 =A(L'EVALTEST)
               4 00006DAC 00000001     A   33224 30666  30678
 =A(L'OPENNAME)
               4 00001304 00000001     A   11485 10267
 =A(L'RLDKDATA)
               4 00006DE4 00000001     A   33238 32441  32453  32971  32983
 =A(L'RLDLINE)
               4 00006DF4 00000001     A   33242 32654  32666
 =A(LISTBIN)
               4 00002B30 00000001     A   17736 17104
 =A(LISTHEX)
               4 00002B28 00000001     A   17734 17038
 =A(LISTMIX)
               4 00002B2C 00000001     A   17735 17071
 =A(LISTPRT)
               4 000027A0 00000001     A   16389 13913
 =A(LISTPRTX)
               4 00002794 00000001     A   16386 13861
 =A(LISTRTN)
               4 000027B4 00000001     A   16394 14057  14092  14114
 =A(LNO2PRT)
               4 00003A58 00000001     A   21251 20912
 =A(MINUSPRT)
               4 00005AF8 00000001     A   28770 28439
 =A(MOVE)      4 00004F78 00000001     A   26681 25194
 =A(NEGXPRT)
               4 000078D4 00000001     A   35806 35617
 =A(NUMPRT)
               4 00007818 00000001     A   35783 33397
 =A(NUMRTN)
               4 00007830 00000001     A   35789 33525
 =A(NUMXLNO)
               4 00007860 00000001     A   35801 34882  34998  35114  35205
 =A(NUMXPRT)
               4 000078D0 00000001     A   35805 35328
 =A(OPENPRT)
               4 00001314 00000001     A   11489 10431
 =A(PERR)      4 00001B9C 00000001     A   13559 12611  12704  12797  12890  12983
 =A(PICKPRT)
               4 00001B08 00000001     A   13540 11667
 =A(PLUSPRT)
               4 00005AF0 00000001     A   28768 28271
 =A(POINT)
               4 00002780 00000001     A   16381 13711
 =A(RLDPRT)
               4 00006DC4 00000001     A   33230 31222
 =A(RLDPRTX)
               4 00006DC0 00000001     A   33229 31170
 =A(RLDRTN)
1EDIT     (EDIT2193) (12:43) (15MAR04) Ordinary Symbol and Literal Cross Reference                                          Page  148
               4 00006DD4 00000001     A   33234 31406  31441  31463
 =A(SACTPRT)
               4 000004C8 00000001     A    8072  6838
 =A(SACTSPRT)
               4 000004E8 00000001     A    8080  7299
 =A(SETAPRT)
               4 000012C0 00000001     A   11468  8240
 =A(SHOSIZOP)
               4 000049B0 00000001     A   25036 23225
 =A(SIZLEN)
               4 000049E0 00000001     A   25048 24073  24207  24345
 =A(SIZVAL)
               4 000049D4 00000001     A   25045 23423  23447  23471  23499  23508  23536
 =A(SQUPRT)
               4 000039EC 00000001     A   21224 18465
 =A(SQURTN)
               4 000039FC 00000001     A   21228 18495
 =A(TOLNOPRT)
               4 00005AD8 00000001     A   28762 27428
 =A(TOPRT)
               4 00004F9C 00000001     A   26690 25499
 =A(TOPRTX)
               4 00004F90 00000001     A   26687 25447
 =A(WORK)      4 00004FC0 00000001     A   26699 25872  25898  25924
 =A(1)         4 000004F0 00000001     A    8082  7555
 =A(1)         4 00001300 00000001     A   11484 10233
 =A(1)         4 00001BA4 00000001     A   13561 13333
 =A(1)         4 00002C6C 00000001     A   18107 18040
 =A(1)         4 00003A54 00000001     A   21250 20876
 =A(1)         4 000041E0 00000001     A   23061 22927  22985
 =A(1)         4 00004F88 00000001     A   26685 25400
 =A(1)         4 00006DDC 00000001     A   33236 32164
 =A(12)        4 00007854 00000001     A   35798 34222  34422
 =A(16)        4 0000130C 00000001     A   11487 10279  10291
 =A(16)        4 00007844 00000001     A   35794 34025
 =A(2)         4 00002C58 00000001     A   18102 17827
 =A(3)         4 000012F4 00000001     A   11481 10080  11142
 =A(4)         4 00006DB8 00000001     A   33227 30899
 =A(4)         4 0000784C 00000001     A   35796 34170  34382
 =A(8)         4 00003A24 00000001     A   21238 19142  19329
 =A(8)         4 00007850 00000001     A   35797 34196  34402
 =AL4(-1)      4 000027CC 00000001     R   16400 14211
 =AL4(-1)      4 00002B44 00000001     R   17741 17427
 =AL4(-1)      4 00007838 00000001     R   35791 33565  33648  33700  33798  34608
 =AL4(235+1)
               4 000049A8 00000001     R   25034 23195
 =C' (Range='
               8 00007808 00000001     C   35780 34266
 =C' already exists.'
              16 00005A80 00000001     C   28756 26826
 =C' and under'
              10 000049F6 00000001     C   25054 23442
 =C' cleared Active files.'
              22 00001BD2 00000001     C   13565 13379
 =C' does not exist.'
              16 000004A8 00000001     C    8069  6989
 =C' does not exist.'
              16 000012A0 00000001     C   11465  8423
 =C' does not exist.'
1EDIT     (EDIT2193) (12:43) (15MAR04) Ordinary Symbol and Literal Cross Reference                                          Page  149
              16 00001AD0 00000001     C   13537 11778
 =C' does not exist.'
              16 00005F40 00000001     C   29879 29145  29328  29788
 =C' has been cleared.'
              18 00001BAA 00000001     C   13563 11934
 =C' has Macintosh transparent data which can not '
              46 00002C70 00000001     C   18108 17957
 =C' is an illegal Active file number.'
              34 00005FB6 00000001     C   29897 28995  29499
 =C' is not open.'
              13 00006E4F 00000001     C   33252 31379
 =C' is not valid TRANSPARENT data.'
              31 00002CA3 00000001     C   18110 17920
 =C' is the last line.'
              18 000078FC 00000001     C   35809 34131
 =C' lines in range.'
              16 00004160 00000001     C   23033 21984
 =C' or interleave.  '
              17 0000509B 00000001     C   26726 26619
 =C'.  '       3 00005098 00000001     C   26725 26536
 =C').'        2 0000792A 00000001     C   35812 34479
 =C'--------------------'
              20 00002B14 00000001     C   17733 16969
 =C'-'         1 00004A2A 00000001     C   25059 24861
 =C'/: missing operand.  (Number must follow "/".)'
              46 00003A9A 00000001     C   21258 21024
 =C'/'         1 000079FA 00000001     C   35821 34313
 =C', longest was'
              13 00004A18 00000001     C   25057 23466
 =C', return code='
              14 0000791C 00000001     C   35811 34435
 =C', shortest was'
              14 00004A00 00000001     C   25055 23503
 =C': invalid characters in Active file type.'
              41 000013DB 00000001     C   11507 10400
 =C': invalid PICK option.'
              22 00001BBC 00000001     C   13564 13216
 =C': Active file name is too long.'
              31 000013BC 00000001     C   11506 10324
 =C': Invalid hex'
              13 000041F9 00000001     C   23064 22391
 =C'"PICK {n|FIRST|LAST|PREVIOUS|NEXT}".'
              36 00001B78 00000001     C   13558 12530
 =C'and'       3 00003B3A 00000001     C   21265 20019
 =C'be sent over the net.'
              21 00002CC2 00000001     C   18111 17973
 =C'characters'
              10 00004A0E 00000001     C   25056 24939
 =C'compare.'
               8 000039D8 00000001     C   21221 20094
 =C'equal to'
               8 000049A0 00000001     C   25033 23531
 =C'file.'
               5 000013AD 00000001     C   11503  8339
 =C'greater than the LAST line-number.'
              34 000078DA 00000001     C   35808 33847
 =C'if BY/START option is also specified.'
              37 00007997 00000001     C   35816 33676
 =C'over'      4 000049D0 00000001     C   25044 23418
1EDIT     (EDIT2193) (12:43) (15MAR04) Ordinary Symbol and Literal Cross Reference                                          Page  150
 =C'pick.'
               5 00001C39 00000001     C   13569 12494
 =C'string occurrences.'
              19 000041E6 00000001     C   23063 22102
 =C'to be specified.'
              16 000077C0 00000001     C   35777 33473
 =C'under'
               5 00004A25 00000001     C   25058 23494
 =C'Aborted by attempt to replace.'
              30 0000503E 00000001     C   26722 26574  26601
 =C'Active '
               7 000004FA 00000001     C    8085  6949
 =C'Active '
               7 000013B2 00000001     C   11504  8383
 =C'Active '
               7 00001BE8 00000001     C   13566 11738  11838
 =C'Active '
               7 00006032 00000001     C   29901 29105
 =C'ALF'       3 000013B9 00000001     C   11505 10114  11176
 =C'Bad range'
               9 000079F1 00000001     C   35820 34231
 =C'Can''t add new record at line '
              29 00006E89 00000001     C   33254 33101
 =C'Can''t have lines'
              16 00004988 00000001     C   25031 23288
 =C'Can''t re-number a discontiguous range of lines.'
              47 000079FB 00000001     C   35822 34652
 =C'Can''t re-number a string range.'
              31 0000792C 00000001     C   35813 33437
 =C'Can''t re-number'
              15 000079C1 00000001     C   35818 34157
 =C'Compare stopped.'
              16 000039C8 00000001     C   21220 19885  20376
 =C'Continue'
               8 000039E0 00000001     C   21222 20354
 =C'Copy stopped before external line '
              34 0000501C 00000001     C   26721 26489
 =C'COMBINE invalid with BY.'
              24 00005AB8 00000001     C   28759 27973  28086
 =C'COMBINE invalid with TO.'
              24 00005AA0 00000001     C   28758 27389  28060
 =C'COMPARE line-numbers are the same.'
              34 00003A74 00000001     C   21255 19457
 =C'COPYA logic problem.  Original active '
              38 0000600A 00000001     C   29899 29288
 =C'Destination active '
              19 00006054 00000001     C   29903 29748
 =C'Do you want to pick it anyway'
              29 00001BEF 00000001     C   13567 11981
 =C'Expecting "first-lineno/last-lineno" '
              37 0000794B 00000001     C   35814 33455
 =C'Expecting "number:" for Active file specification.'
              50 00005FD8 00000001     C   29898 29013  29517
 =C'Expecting "TO dest-actno:".'
              27 00006039 00000001     C   29902 29245
 =C'FROM invalid with EXEC option.'
              30 00005B24 00000001     C   28773 27622  27743
 =C'Invalid pick option.'
              20 00001B60 00000001     C   13556 12226
1EDIT     (EDIT2193) (12:43) (15MAR04) Ordinary Symbol and Literal Cross Reference                                          Page  151
 =C'Line '
               5 00002C9E 00000001     C   18109 17875
 =C'Line '
               5 00005B68 00000001     C   28775 26779
 =C'Line '
               5 000079BC 00000001     C   35817 34084
 =C'Line number is invalid.'
              23 00005081 00000001     C   26724 25674
 =C'Lines'
               5 00003B35 00000001     C   21264 19972
 =C'LIST command incomplete.'
              24 00002C40 00000001     C   18101 18007
 =C'Missing "INTO setno" for REC_LOAD command.'
              42 00006E06 00000001     C   33248 31267
 =C'Missing "SET ACTIVE" options.'
              29 00001390 00000001     C   11502  8303
 =C'Missing action for EVALUATE command.'
              36 00006D5C 00000001     C   33212 30119  30248  30339
 =C'Missing line-number pair for COMPARE.'
              37 00003AC8 00000001     C   21259 19152
 =C'Missing operand.'
              16 00005A90 00000001     C   28757 27307
 =C'Missing second line-number for COMPARE.'
              39 00003AF0 00000001     C   21261 19339
 =C'MCLOSE assumed.'
              15 00001404 00000001     C   11508 11192
 =C'MOPEN assumed.'
              14 00001368 00000001     C   11500 10130
 =C'MOVE EXEC capability is not supported.'
              38 00005B42 00000001     C   28774 27717
 =C'MOVE FROM capability is not supported.'
              38 00005AFE 00000001     C   28772 27596
 =C'Negative DELTA value is not allowed.'
              36 00007864 00000001     C   35802 34902
 =C'Negative START value is not allowed.'
              36 000078AC 00000001     C   35804 35225
 =C'Negative TIMES value is not allowed.'
              36 00007888 00000001     C   35803 35018
 =C'No action taken.'
              16 000077F8 00000001     C   35779 33865  34670
 =C'No destination active file number given.'
              40 00005F50 00000001     C   29880 29227
 =C'No lines found.'
              15 00003B26 00000001     C   21263 19698
 =C'No lines found'
              14 0000790E 00000001     C   35810 34205
 =C'No lines'
               8 00004998 00000001     C   25032 23368
 =C'No next Active file to pick.'
              28 00001B38 00000001     C   13552 12104
 =C'No previous Active file to pick.'
              32 00001AE0 00000001     C   13538 12049
 =C'NOCLEAR is not valid here.'
              26 00001376 00000001     C   11501 11284
 =C'Public record set '
              18 00006E30 00000001     C   33249 31323
 =C'PLUS/TIMES option can not be specified '
              39 00007970 00000001     C   35815 33658
 =C'PLUS/TIMES value is out of bounds'
1EDIT     (EDIT2193) (12:43) (15MAR04) Ordinary Symbol and Literal Cross Reference                                          Page  152
              33 000079D0 00000001     C   35819 34179
 =C'Range is decreasing.'
              20 00003A5C 00000001     C   21252 21105
 =C'Ranges overlap.'
              15 00003B17 00000001     C   21262 19508
 =C'Record set '
              11 00006E44 00000001     C   33251 31303
 =C'Renumbered by '
              14 0000500E 00000001     C   26720 26412
 =C'The full form is '
              17 00001C3E 00000001     C   13570 12512
 =C'The OFFLINE option has been removed.  '
              38 000027E4 00000001     C   16407 16312
 =C'TEMP'      4 000012DC 00000001     C   11475  8649   8698
 =C'TO '       3 00003AED 00000001     C   21260 19211
 =C'TO or PLUS must be specified on MOVE.'
              37 0000505C 00000001     C   26723 25597
 =C'TRUE'      4 00006DBC 00000001     C   33228 30912
 =C'Use the PICK command to select a different Active '
              50 00001332 00000001     C   11497  8321
 =C'Use the PRINT command instead.'
              30 0000280A 00000001     C   16408 16330
 =C'UNCLEAR not possible; there aren''t any more'
              43 00001C4F 00000001     C   13571 13361
 =C'Write access for PUBLIC record groups denied.'
              45 00006E5C 00000001     C   33253 31861
 =C'You can not specify a START line-number '
              40 000077D0 00000001     C   35778 33829
 =C'You must specify the Active file you want to '
              45 00001C0C 00000001     C   13568 12476
 =C'11'        2 00001364 00000001     C   11498 10101  11163
 =CL8'ABORTCMP'
               8 000039C0 00000001     C   21219 19880
 =CL8'COMPSAME'
               8 000039B0 00000001     C   21217 19454
 =CL8'INVHEX'
               8 00004170 00000001     C   23034 22388
 =CL8'MOVESPEC'
               8 00004F70 00000001     C   26680 25594
 =CL8'NOLINESX'
               8 000039B8 00000001     C   21218 19695
 =CL8'TEMP'
               8 000004C0 00000001     C    8071  7967
 =CL8'TEMP'
               8 000012B0 00000001     C   11466  9263  10848
 =CL8'TEXT'
               8 000004B8 00000001     C    8070  7281
 =CL8'TEXT'
               8 000012B8 00000001     C   11467  9334  10787
 =CL8'TEXT'
               8 00001B00 00000001     C   13539 13474
 =F'-1'        4 00001B58 00000001     F   13554 12190
 =F'-1'        4 00002784 00000001     F   16382 13803
 =F'-1'        4 00003A50 00000001     F   21249 20820
 =F'-1'        4 00004FF8 00000001     F   26713 26362
 =F'-1'        4 00007810 00000001     F   35781 33366  33522
 =F'-1000'
               4 00003A2C 00000001     F   21240 19387
 =F'-1000'
1EDIT     (EDIT2193) (12:43) (15MAR04) Ordinary Symbol and Literal Cross Reference                                          Page  153
               4 000049C0 00000001     F   25040 23311
 =F'-1000'
               4 00004FB8 00000001     F   26697 25852
 =F'1'         4 00003A14 00000001     F   21234 18914
 =V(ACTCHK)
               4 00003A1C 00000001     V   21236 19081
 =V(ACTCLOSE)
               4 0000132C 00000001     V   11495 11294
 =V(ACTDISP)
               4 000004D8 00000001     V    8076  6927   7521   7736
 =V(ACTDUP)
               4 0000131C 00000001     V   11491 10554
 =V(ACTFIRST)
               4 00001B54 00000001     V   13553 12145
 =V(ACTGINFO)
               4 000004D4 00000001     V    8075  6897   7390   7605
 =V(ACTGINFO)
               4 000012D4 00000001     V   11473  8366
 =V(ACTGINFO)
               4 00001B14 00000001     V   13543 11721  13404
 =V(ACTLAST)
               4 00001B5C 00000001     V   13555 12194
 =V(ACTNEXT)
               4 000004EC 00000001     V    8081  7356
 =V(ACTNEXT)
               4 00001B34 00000001     V   13551 12087
 =V(ACTOPEN)
               4 00001318 00000001     V   11490 10465
 =V(ACTPICK)
               4 00001B2C 00000001     V   13549 12003  12058  12113  12161  12210  13497
 =V(ACTPICK)
               4 00005F90 00000001     V   29887 29088  29271  29731  29842
 =V(ACTPREV)
               4 000004F4 00000001     V    8083  7571
 =V(ACTPREV)
               4 00001B30 00000001     V   13550 12032  13344
 =V(ACTSINFO)
               4 000012E0 00000001     V   11476  8765
 =V(ACTVREST)
               4 00001320 00000001     V   11492 10563  11299
 =V(ACTVREST)
               4 00001B74 00000001     V   13557 12234  13502
 =V(ADDER)
               4 00003A38 00000001     V   21243 19866  19875
 =V(ADDER)
               4 00004FEC 00000001     V   26710 26266
 =V(ADDER)
               4 00005FAC 00000001     V   29894 29821
 =V(ALLOWATN)
               4 000027D8 00000001     V   16403 16246
 =V(ATTNLINE)
               4 000027D4 00000001     V   16402 16241
 =V(BTD)       4 000041C8 00000001     V   23055 22074
 =V(BTD)       4 000049E8 00000001     V   25050 24893
 =V(BTD)       4 00006DE8 00000001     V   33239 32594  33065
 =V(CHARCHKA)
               4 00001310 00000001     V   11488 10359
 =V(CKQUOTES)
               4 000012EC 00000001     V   11479  9537  10911
1EDIT     (EDIT2193) (12:43) (15MAR04) Ordinary Symbol and Literal Cross Reference                                          Page  154
 =V(CKQUOTES)
               4 000041D0 00000001     V   23057 22343  22485  22606
 =V(CVEXNO)
               4 00002B48 00000001     V   17742 17575
 =V(CVEXNO)
               4 00002C60 00000001     V   18104 17892
 =V(CVEXNO)
               4 00002D70 00000001     V   18369 18196
 =V(CVEXNO)
               4 00003A44 00000001     V   21246 19989  20036
 =V(CVEXNO)
               4 000049E4 00000001     V   25049 24831
 =V(CVEXNO)
               4 00005004 00000001     V   26716 26429  26506
 =V(CVEXNO)
               4 00005AD4 00000001     V   28761 26796
 =V(CVEXNO)
               4 00006DFC 00000001     V   33244 33118
 =V(CVEXNO)
               4 00007848 00000001     V   35795 34101  34283  34330
 =V(DELRANGE)
               4 00004FDC 00000001     V   26706 26205
 =V(DEQSTR)
               4 000041DC 00000001     V   23060 22490  22611
 =V(DEQUOTE)
               4 00006DD8 00000001     V   33235 32151
 =V(DESPOT)
               4 00006DA0 00000001     V   33221 30264
 =V(DOFNAME)
               4 00005AE4 00000001     V   28765 27631
 =V(DTB)       4 00005F88 00000001     V   29885 29036  29540
 =V(ENDLNO)
               4 00004F84 00000001     V   26684 25396
 =V(EVALSTR)
               4 00006DB4 00000001     V   33226 30884  30946
 =V(EXTCLOSE)
               4 00004FD0 00000001     V   26703 25970  26483
 =V(EXTCLOSE)
               4 00006D94 00000001     V   33218 30160
 =V(EXTOPEN)
               4 000027A8 00000001     V   16391 14003
 =V(EXTOPEN)
               4 00004198 00000001     V   23043 21535
 =V(EXTOPEN)
               4 00004FAC 00000001     V   26694 25762  25974
 =V(EXTOPEN)
               4 00006D84 00000001     V   33214 30132
 =V(FNAMEFIN)
               4 000027A4 00000001     V   16390 13999
 =V(FNAMEFIN)
               4 00004194 00000001     V   23042 21531
 =V(FNAMEFIN)
               4 00004FA8 00000001     V   26693 25758
 =V(FNAMEFIN)
               4 00006D80 00000001     V   33213 30128
 =V(GETLINE)
               4 00004FE4 00000001     V   26708 26228
 =V(GETLNO)
               4 00004FF4 00000001     V   26712 26350
1EDIT     (EDIT2193) (12:43) (15MAR04) Ordinary Symbol and Literal Cross Reference                                          Page  155
 =V(GETLNO)
               4 0000785C 00000001     V   35800 34687
 =V(HEXFMT)
               4 00002B4C 00000001     V   17743 17700
 =V(HEXSTR)
               4 000041D4 00000001     V   23058 22348
 =V(LASTLINE)
               4 00004FD4 00000001     V   26704 26004  26590  26635  26641
 =V(LISTLINE)
               4 00002B34 00000001     V   17737 17124
 =V(LISTLINE)
               4 00003A08 00000001     V   21231 18816  20171
 =V(LISTLINE)
               4 00004FE8 00000001     V   26709 26232
 =V(LOCATE)
               4 00003A30 00000001     V   21241 19542  19629  20162
 =V(LOCATE)
               4 00004FA0 00000001     V   26691 25684
 =V(LOCLIST)
               4 00004FB0 00000001     V   26695 25819
 =V(MCLOSE)
               4 00001324 00000001     V   11493 11208
 =V(MIXFMT)
               4 00002D78 00000001     V   18371 18314
 =V(MKFFINFO)
               4 00002790 00000001     V   16385 13842
 =V(MKFFINFO)
               4 00004180 00000001     V   23037 21418
 =V(MKFFINFO)
               4 00004F8C 00000001     V   26686 25428
 =V(MKFFINFO)
               4 00006D4C 00000001     V   33208 30061
 =V(MOPEN)
               4 000012FC 00000001     V   11483 10146
 =V(NDETRNG)
               4 0000278C 00000001     V   16384 13819
 =V(NDETRNG)
               4 000039E8 00000001     V   21223 18446
 =V(NDETRNG)
               4 0000417C 00000001     V   23036 21397
 =V(NDETRNG)
               4 000049AC 00000001     V   25035 23205  23934
 =V(NDETRNG)
               4 00004F80 00000001     V   26683 25392
 =V(NDETRNG)
               4 00005F98 00000001     V   29889 29166
 =V(NDETRNG)
               4 00006D48 00000001     V   33207 30040  31135
 =V(NDETRNG)
               4 00007814 00000001     V   35782 33377
 =V(NOOPTS)
               4 00001BA0 00000001     V   13560 13325
 =V(NOTVALID)
               4 000004E4 00000001     V    8079  7140
 =V(NOTVALID)
               4 000012E4 00000001     V   11477  9166   9438  11435
 =V(NOTVALID)
               4 000041D8 00000001     V   23059 22412  22506  22627
 =V(NOTVALID)
1EDIT     (EDIT2193) (12:43) (15MAR04) Ordinary Symbol and Literal Cross Reference                                          Page  156
               4 000049DC 00000001     V   25047 23919  23954  24044  24178  24316
 =V(NOTVALID)
               4 00005AEC 00000001     V   28767 27947
 =V(NOTVALID)
               4 00005F8C 00000001     V   29886 29052  29075  29556  29579
 =V(NOTVALID)
               4 00006DE0 00000001     V   33237 32172
 =V(NSCAN)
               4 000004CC 00000001     V    8073  6842   7303
 =V(NSCAN)
               4 000012C4 00000001     V   11469  8244  10039  10187  10435  11101  11247
 =V(NSCAN)
               4 00001B0C 00000001     V   13541 11671
 =V(NSCAN)
               4 00002798 00000001     V   16387 13865  13917
 =V(NSCAN)
               4 000039F0 00000001     V   21225 18469  19115  19181  19302  19369  20413  20847  20916
 =V(NSCAN)
               4 00004188 00000001     V   23039 21441  21493
 =V(NSCAN)
               4 000049B4 00000001     V   25037 23229  24077  24211  24349
 =V(NSCAN)
               4 00004F94 00000001     V   26688 25451  25503
 =V(NSCAN)
               4 00005ADC 00000001     V   28763 27432  27843  28275  28443
 =V(NSCAN)
               4 00005F78 00000001     V   29881 28914  29192
 =V(NSCAN)
               4 00006D54 00000001     V   33210 30084  30213  30304  31174  31226
 =V(NSCAN)
               4 0000781C 00000001     V   35784 33401  35332  35621
 =V(NSCANSTR)
               4 00006DF8 00000001     V   33243 32832  33159
 =V(NUMFACT)
               4 0000783C 00000001     V   35792 33909
 =V(NUMRANGE)
               4 00004FFC 00000001     V   26714 26365
 =V(NUMRANGE)
               4 00007840 00000001     V   35793 33992
 =V(ORVCPASS)
               4 00001308 00000001     V   11486 10275  11431
 =V(ORVCPASS)
               4 00003A18 00000001     V   21235 19076
 =V(ORVCPASS)
               4 00006D40 00000001     V   33205 30024
 =V(PAGERES)
               4 000027AC 00000001     V   16392 14036
 =V(PRESS)
               4 00004FD8 00000001     V   26705 26119
 =V(PUTLINE)
               4 00003A10 00000001     V   21233 18871
 =V(PUTLINE)
               4 00005FB0 00000001     V   29895 29834
 =V(RDRNG)
               4 000027B8 00000001     V   16395 14060  14095  14117
 =V(RDRNG)
               4 00003A00 00000001     V   21229 18498
 =V(RDRNG)
               4 000041A4 00000001     V   23046 21720  21755  21777  21821  21856  21878
1EDIT     (EDIT2193) (12:43) (15MAR04) Ordinary Symbol and Literal Cross Reference                                          Page  157
 =V(RDRNG)
               4 000049CC 00000001     V   25043 23324
 =V(RDRNG)
               4 00004FC4 00000001     V   26700 25875  25901  25927
 =V(RDRNG)
               4 00005FA8 00000001     V   29893 29260
 =V(RDRNG)
               4 00006D90 00000001     V   33217 30156  30260  30351  31409  31444  31466
 =V(RDRNG)
               4 00007834 00000001     V   35790 33528
 =V(SCANCHK)
               4 000004D0 00000001     V    8074  6856   7317
 =V(SCANCHK)
               4 000012C8 00000001     V   11470  8258  10053  10201  10449  11115  11261
 =V(SCANCHK)
               4 00001B10 00000001     V   13542 11685
 =V(SCANCHK)
               4 0000279C 00000001     V   16388 13879  13931
 =V(SCANCHK)
               4 000039F4 00000001     V   21226 18483  19129  19195  19316  19383  20427  20861  20930
 =V(SCANCHK)
               4 0000418C 00000001     V   23040 21455  21507
 =V(SCANCHK)
               4 000049B8 00000001     V   25038 23243  24091  24225  24363
 =V(SCANCHK)
               4 00004F98 00000001     V   26689 25465  25517
 =V(SCANCHK)
               4 00005AE0 00000001     V   28764 27446  27857  28289  28457
 =V(SCANCHK)
               4 00005F7C 00000001     V   29882 28928  29206
 =V(SCANCHK)
               4 00006D58 00000001     V   33211 30098  30227  30318  31188  31240
 =V(SCANCHK)
               4 00007820 00000001     V   35785 33415  35346  35635
 =V(SCDQUOTE)
               4 000012F0 00000001     V   11480  9558  10932
 =V(SCDQUOTE)
               4 000027D0 00000001     V   16401 16173
 =V(SCNEXFR)
               4 00002788 00000001     V   16383 13808
 =V(SCNEXFR)
               4 00004178 00000001     V   23035 21380
 =V(SCNEXFR)
               4 00004F7C 00000001     V   26682 25305
 =V(SCNEXFR)
               4 00006D44 00000001     V   33206 30029  31124
 =V(SCUPCASE)
               4 000012E8 00000001     V   11478  9191   9463  10351
 =V(SEG)       4 000004DC 00000001     V    8077  6961   7001
 =V(SEG)       4 000012D0 00000001     V   11472  8333   8395  10318  10394
 =V(SEG)       4 00001B18 00000001     V   13544 11750  11850  11902  12488  12524  13210  13373
 =V(SEG)       4 000027DC 00000001     V   16404 16324
 =V(SEG)       4 00002B10 00000001     V   17732 16844  16910  16981  17281  17605  17635  17687
 =V(SEG)       4 00002C5C 00000001     V   18103 17887  17916  17969  18067
 =V(SEG)       4 00002D74 00000001     V   18370 18226  18307
 =V(SEG)       4 00003A48 00000001     V   21247 20088
 =V(SEG)       4 000041C4 00000001     V   23054 22024  22054  22384
 =V(SEG)       4 000049EC 00000001     V   25051 24951
 =V(SEG)       4 00005000 00000001     V   26715 26424  26501  26530  26548  26586  26613  26631
1EDIT     (EDIT2193) (12:43) (15MAR04) Ordinary Symbol and Literal Cross Reference                                          Page  158
 =V(SEG)       4 00005AD0 00000001     V   28760 26791  26820
 =V(SEG)       4 00005F80 00000001     V   29883 28989  29117  29300  29493  29760
 =V(SEG)       4 00006DCC 00000001     V   33232 31351  33113
 =V(SEG)       4 00007828 00000001     V   35787 33467  33670  33841  34096  34125  34143  34260  34278  34307  34325
                                                 34354  34447
 =V(SEGB)      4 00003A40 00000001     V   21245 19984  20013  20031  20060
 =V(SEGB)      4 000041CC 00000001     V   23056 22098
 =V(SEGB)      4 000049BC 00000001     V   25039 23300  23380  23631  24855  24873  24917
 =V(SEGCLR)
               4 000041BC 00000001     V   23052 21934
 =V(SEGCR)
               4 000012CC 00000001     V   11471  8315
 =V(SEGCR)
               4 00001B24 00000001     V   13547 11977  12506
 =V(SEGCR)
               4 000027C4 00000001     V   16398 14166  16342
 =V(SEGCR)
               4 00002B38 00000001     V   17738 17330  17375
 =V(SEGCR)
               4 00002C64 00000001     V   18105 18001
 =V(SEGCR)
               4 00002D7C 00000001     V   18372 18339
 =V(SEGCR)
               4 00003A3C 00000001     V   21244 19897  20106
 =V(SEGCR)
               4 00005F84 00000001     V   29884 29007  29239  29511
 =V(SEGCR)
               4 00007824 00000001     V   35786 33449  33859  34491  34664
 =V(SEGDC)
               4 000004E0 00000001     V    8078  6983
 =V(SEGDC)
               4 000012D8 00000001     V   11474  8417
 =V(SEGDC)
               4 00001B1C 00000001     V   13545 11772  11872
 =V(SEGDC)
               4 000041C0 00000001     V   23053 21980
 =V(SEGDC)
               4 000049D8 00000001     V   25046 23653
 =V(SEGDC)
               4 00005F94 00000001     V   29888 29139  29322  29782
 =V(SEGDC)
               4 00006DD0 00000001     V   33233 31373
 =V(SEGDC)
               4 00007858 00000001     V   35799 34469
 =V(SEGINIT)
               4 00006DB0 00000001     V   33225 30843
 =V(SEGMARK)
               4 00002B3C 00000001     V   17739 17394
 =V(SEGT)      4 00001B20 00000001     V   13546 11930
 =V(SEGWR)
               4 000012F8 00000001     V   11482 10142  11204
 =V(SEGWR)
               4 000027C8 00000001     V   16399 14195
 =V(SEGWR)
               4 00003A0C 00000001     V   21232 18848  20213  20251
 =V(SEGWR)
               4 000049F0 00000001     V   25052 24986
 =V(SEGWR)
               4 00004FB4 00000001     V   26696 25844  26259  26453
1EDIT     (EDIT2193) (12:43) (15MAR04) Ordinary Symbol and Literal Cross Reference                                          Page  159
 =V(SELDELTA)
               4 00004FF0 00000001     V   26711 26342
 =V(SQSHRTN)
               4 00002B08 00000001     V   17730 16587
 =V(SQSHRTN)
               4 00003A04 00000001     V   21230 18722
 =V(STOW)      4 00004FE0 00000001     V   26707 26217
 =V(TOASCII)
               4 00002C68 00000001     V   18106 18036
 =V(TREAD)
               4 00002B0C 00000001     V   17731 16693
 =V(TSTAT)
               4 00002B40 00000001     V   17740 17407
 =V(UNPRESS)
               4 00003A34 00000001     V   21242 19764  19772  20167
 =V(XLOCATE)
               4 00006DC8 00000001     V   33231 31288
 =V(XPUT)      4 00006DF0 00000001     V   33241 32619  33084
 =V(XSETSET)
               4 00006DEC 00000001     V   33240 32605  33076
 =V(YESREQ)
               4 00001B28 00000001     V   13548 11985
 =V(YESRTN)
               4 00003A4C 00000001     V   21248 20359
 =X'0D'        1 00002B57 00000001     X   17748 16741  17178
 =X'15'        1 00002B56 00000001     X   17747 16720  17157
 =X'150C'      2 00002B52 00000001     X   17745 16816  17253
 =X'1515'      2 00002B50 00000001     X   17744 16766  17203
 =X'151515'
               3 00002B58 00000001     X   17749 16791  17228
 =Y((L'CPSEG+1024+3)/4*4)
               2 00006E04 00000001     Y   33247 30956
 =Y((L'NSCNCB+3)/4*4)
               2 00001366 00000001     Y   11499 10124  10161  11186  11223
 =Y((L'NSCNCB+3)/4*4)
               2 00003A98 00000001     Y   21257 20447  20953
 =Y((R1+1-(R0)+16*((R0)/(R1+1))/((R0)/(R1+1)))*4)
               2 00002B54 00000001     Y   17746 17696
 =Y((R1+1-(R0)+16*((R0)/(R1+1))/((R0)/(R1+1)))*4)
               2 00002D80 00000001     Y   18373 18310
 =Y((R1+1-(R0)+16*((R0)/(R1+1))/((R0)/(R1+1)))*4)
               2 00003A72 00000001     Y   21254 18866
 =Y((R1+1-(R0)+16*((R0)/(R1+1))/((R0)/(R1+1)))*4)
               2 00006030 00000001     Y   29900 29830
 =Y((R1+1-(R0)+16*((R0)/(R1+1))/((R0)/(R1+1)))*4)
               2 00006E42 00000001     Y   33250 32609
 =Y((R1+1-(R14)+16*((R14)/(R1+1))/((R14)/(R1+1)))*4)
               2 00006E02 00000001     Y   33246 30846
 =Y((R3+1-(R2)+16*((R2)/(R3+1))/((R2)/(R3+1)))*4)
               2 0000500C 00000001     Y   26719 26369
 =Y((12+3)/4*4)
               2 000004F8 00000001     Y    8084  6848   7309
 =Y((12+3)/4*4)
               2 00001330 00000001     Y   11496  8250  10045  10193  10441  11107  11253
 =Y((12+3)/4*4)
               2 00001BA8 00000001     Y   13562 11677
 =Y((12+3)/4*4)
               2 000027E0 00000001     Y   16405 13871  13923
 =Y((12+3)/4*4)
1EDIT     (EDIT2193) (12:43) (15MAR04) Ordinary Symbol and Literal Cross Reference                                          Page  160
               2 00003A70 00000001     Y   21253 18475  19121  19187  19308  19375  20419  20853  20922
 =Y((12+3)/4*4)
               2 000041E4 00000001     Y   23062 21447  21499
 =Y((12+3)/4*4)
               2 000049F4 00000001     Y   25053 23235  24083  24217  24355
 =Y((12+3)/4*4)
               2 00005008 00000001     Y   26717 25457  25509
 =Y((12+3)/4*4)
               2 00005AFC 00000001     Y   28771 27438  27849  28281  28449
 =Y((12+3)/4*4)
               2 00005FB4 00000001     Y   29896 28920  29198
 =Y((12+3)/4*4)
               2 00006E00 00000001     Y   33245 30090  30219  30310  31180  31232  32838  33165
 =Y((12+3)/4*4)
               2 000078D8 00000001     Y   35807 33407  35338  35627
 =Y((235+3)/4*4)
               2 0000500A 00000001     Y   26718 26235
 =Y((235*2+3)/4*4)
               2 00003A96 00000001     Y   21256 19775
 =Y(1)         2 000027E2 00000001     Y   16406 13972

1EDIT     (EDIT2193) (12:43) (15MAR04) Macro and Copy Code Source Summary                                                   Page  161
- Con Source                                        Volume    Members                        HLASM R4.0  2004/03/15 12.43
0     PRIMARY INPUT                                           CSECT    DROP     END      EX       LTORG    POP
                                                              PRINT    PUSH     START    USING
   L1 WYL.GS.WYL.WYLBUR.MACLIB                      SYSB05    ABORT    AINFO    BASE     BOMB     BTD      COLINFO
                                                              COMMENT  CONTROL  COUNT    CP       CPLOCAL  CV
                                                              CVLOCAL  DTB      ERROR    FAIL     JCB      KAPUT
                                                              RDRNG    RG       RTNCODES SCAN     SCANCB   SCANCHK
                                                              SCANSTR  SCBKUP   SCCBADR  SCDQUOTE SCINIT   SCKW
                                                              SCPOP    SCPUSH   SCUPCASE SCUPTOK  SEGINIT  TCLEAR   TCR
                                                              TMARK    TNUM     TPOP     TPUSH    TREAD    TSEG
                                                              TSTAT    TTYPE    TWRITE   VLTORG   XSA      XTRACE
   L2 WYL.GG.SYS.MACLIB                             SYSB05    $BC      $BFLKUP  $BV      $CCLKUP  $CRS     $CSS     $L
                                                              $LA      $LBLAD   $LEXP    $LOR     $REL     $RGLKUP
                                                              $USLKUP  ACALL    BEGIN    CEIL     CLEAR    COMPROC
                                                              CSECT    DATA     DECR     DEFCC    DEX      DROP     DTEX
                                                              ELSE     ELSEIF   END      EX       FLAG     FLIP     GEN
                                                              HIBAL    IDENT    IF       INCR     LABEL    LC       LOOP
                                                              LS       LT       LTORG    MOVE     PEND     POP
                                                              PRETURN  PRINT    PROC     PUSH     QLTORG   RECORD   REG
                                                              REGS     SET      SETMSG   START    USING    VCALL
                                                              WHILE    WITH     XPROC
   L3 SYS3.IS.MACLIB                                SYSB05    SEG      SEGCB    SEGCLR   SEGCR    SEGDC    SEGLD
                                                              SEGMARK  SEGWR    SIB      SYSDEFN  XPOP     XPUSH

1EDIT     (EDIT2193) (12:43) (15MAR04) Dsect Cross Reference                                                                Page  162
-Dsect     Length      Id       Defn                                                         HLASM R4.0  2004/03/15 12.43
0$$$@R0   00000000  FFFFFFFE     705
 $$$@R1   00000000  FFFFFFFD     718
 $$$@R10  00000000  FFFFFFF4     835
 $$$@R11  00000000  FFFFFFF3     848
 $$$@R12  00000000  FFFFFFF2     861
 $$$@R13  00000000  FFFFFFF1     874
 $$$@R14  00000000  FFFFFFF0     887
 $$$@R15  00000000  FFFFFFEF     900
 $$$@R2   00000000  FFFFFFFC     731
 $$$@R3   00000000  FFFFFFFB     744
 $$$@R4   00000000  FFFFFFFA     757
 $$$@R5   00000000  FFFFFFF9     770
 $$$@R6   00000000  FFFFFFF8     783
 $$$@R7   00000000  FFFFFFF7     796
 $$$@R8   00000000  FFFFFFF6     809
 $$$@R9   00000000  FFFFFFF5     822
 $$$RAINFO
          000001A8  FFFFFFE8    6622
 $$$RCNTWA
          0000010B  FFFFFFDD   21274
 $$$RCOMPWA
          00000121  FFFFFFDE   18965
 $$$RCOPYAWA
          00000010  FFFFFFD8   28793
 $$$RCP   00001000  FFFFFFEC    2485
 $$$RCV   00000FB0  FFFFFFEE    1210
 $$$RDEV  0000000C  FFFFFFEB    4699
 $$$REVALWA
          0000030C  FFFFFFD7   29916
 $$$RJCB  000000D0  FFFFFFE9    6337
 $$$RKNTWA
          00000100  FFFFFFDC   22765
 $$$RLISTWA
          0000000C  FFFFFFE1   13586
 $$$RLRTNWA
          00000028  FFFFFFE0   16418
 $$$RMVWA 0000001C  FFFFFFDA   25075
 $$$RNSCNCB
          000000B0  FFFFFFED    2406
 $$$RNUMWA
          0000001C  FFFFFFD5   33263
 $$$ROPENWA
          00000064  FFFFFFE4    9917
 $$$RPICKWA
          000001B0  FFFFFFE3   11517
 $$$RRLDWA
          0000012B  FFFFFFD6   30982
 $$$RSACTSWA
          000001B1  FFFFFFE6    7173
 $$$RSACTWA
          000001A8  FFFFFFE7    6744
 $$$RSETACTWA
          00000210  FFFFFFE5    8094
 $$$RSIZWA
          00000014  FFFFFFDB   23073
1EDIT     (EDIT2193) (12:43) (15MAR04) Dsect Cross Reference                                                                Page  163
 $$$RSQRTWA
          00000100  FFFFFFDF   18594
 $$$RTTYPE
          0000010C  FFFFFFEA    6230
 $$$RUCLRWA
          000001A8  FFFFFFE2   13250
 $$$RWORKWA
          00000100  FFFFFFD9   26046
 HIBAL    00000000  FFFFFFFF     691

1EDIT     (EDIT2193) (12:43) (15MAR04) Using Map                                                                            Page  164
-                                                                                            HLASM R4.0  2004/03/15 12.43
   Stmt  -----Location----- Action ----------------Using----------------- Reg Max    Last  Label and Using Text
           Count      Id           Type          Value    Range     Id        Disp   Stmt
0   922  00000000  FFFFFFFF USING  ORDINARY    00000000 00001000 FFFFFFEF  15 000          @R15,15
    926  00000000  FFFFFFFF USING  ORDINARY    00000000 00001000 FFFFFFF0  14 024   32747  @R14,14
    930  00000000  FFFFFFFF USING  ORDINARY    00000000 00001000 FFFFFFF1  13 000   30957  @R13,13
    934  00000000  FFFFFFFF USING  ORDINARY    00000000 00001000 FFFFFFF2  12 000          @R12,12
    938  00000000  FFFFFFFF USING  ORDINARY    00000000 00001000 FFFFFFF3  11 000          @R11,11
    942  00000000  FFFFFFFF USING  ORDINARY    00000000 00001000 FFFFFFF4  10 000          @R10,10
    946  00000000  FFFFFFFF USING  ORDINARY    00000000 00001000 FFFFFFF5   9 000          @R9,9
    950  00000000  FFFFFFFF USING  ORDINARY    00000000 00001000 FFFFFFF6   8 000          @R8,8
    954  00000000  FFFFFFFF USING  ORDINARY    00000000 00001000 FFFFFFF7   7 000          @R7,7
    958  00000000  FFFFFFFF USING  ORDINARY    00000000 00001000 FFFFFFF8   6 000          @R6,6
    962  00000000  FFFFFFFF USING  ORDINARY    00000000 00001000 FFFFFFF9   5 004   21112  @R5,5
    966  00000000  FFFFFFFF USING  ORDINARY    00000000 00001000 FFFFFFFA   4 000          @R4,4
    970  00000000  FFFFFFFF USING  ORDINARY    00000000 00001000 FFFFFFFB   3 000          @R3,3
    974  00000000  FFFFFFFF USING  ORDINARY    00000000 00001000 FFFFFFFC   2 000          @R2,2
    978  00000000  FFFFFFFF USING  ORDINARY    00000000 00001000 FFFFFFFD   1 001   19798  @R1,1
    982  00000000  FFFFFFFF USING  ORDINARY    00000000 00001000 FFFFFFFE   0 000          @R0,0
    983  00000000  FFFFFFFF DROP                                            0              0
   1194  00000017  00000001 USING  ORDINARY    00000000 00001000 FFFFFFEC  11 F37   35625  CP,CPR
   1203  00000017  00000001 USING  ORDINARY    00000000 00001000 FFFFFFEE  12 8A8   35579  CV,CVR
   6798  00000032  00000001 USING  ORDINARY    00000032 00001000 00000001   7 4C8    7001  $$$43B,7
   6812  00000032  00000001 USING  ORDINARY    FFFFFFD8 00001000 FFFFFFE7   8 028    6919  SACTWA-(4+36),R8
   7015  000000F4  00000001 USING  ORDINARY    00000000 00001000 FFFFFFF6   8 000          @R8,8
   7020  000000F4  00000001 USING  ORDINARY    00000000 00001000 FFFFFFF7   7 000          @R7,7
   7115  00000196  00000001 USING  ORDINARY    00000196 00001000 00000001   7 34E    7140  $$$49B,7
   7155  000001A8  00000001 USING  ORDINARY    00000000 00001000 FFFFFFF7   7 000          @R7,7
   7244  000001D0  00000001 USING  ORDINARY    000001D0 00001000 00000001   7 328    7747  $$$53B,7
   7258  000001D0  00000001 USING  ORDINARY    FFFFFFD8 00001000 FFFFFFE6   8 028    7262  SACTSWA-(4+36),R8
   7270  000001D4  00000001 USING  ORDINARY    00000000 00001000 FFFFFFE6   6 100    8033  SACTSWA,R6
   7426  00000286  00000001 USING  ORDINARY    00000000 00001000 FFFFFFE8   3 03B    7491  AINFO,R3
   7529  000002BA  00000001 USING  ORDINARY    00000000 00001000 FFFFFFFB   3 000          @R3,3
   7641  00000308  00000001 USING  ORDINARY    00000000 00001000 FFFFFFE8   3 03B    7706  AINFO,R3
   7744  0000033C  00000001 USING  ORDINARY    00000000 00001000 FFFFFFFB   3 000          @R3,3
   7762  00000344  00000001 USING  ORDINARY    00000000 00001000 FFFFFFF6   8 000          @R8,8
   7767  00000344  00000001 USING  ORDINARY    00000000 00001000 FFFFFFF7   7 000          @R7,7
   7892  00000436  00000001 USING  ORDINARY    00000436 00001000 00000001   7 000          $$$72B,7
   7913  0000043A  00000001 USING  ORDINARY    00000000 00001000 FFFFFFF7   7 000          @R7,7
   7958  00000462  00000001 USING  ORDINARY    00000462 00001000 00000001   7 05E    7967  $$$75B,7
   7974  00000468  00000001 USING  ORDINARY    00000000 00001000 FFFFFFF7   7 000          @R7,7
   8019  00000490  00000001 USING  ORDINARY    00000490 00001000 00000001   7 000          $$$78B,7
   8040  00000494  00000001 USING  ORDINARY    00000000 00001000 FFFFFFF7   7 000          @R7,7
   8060  000004A2  00000001 USING  ORDINARY    00000000 00001000 FFFFFFF8   6 000          @R6,6
   8183  0000051C  00000001 USING  ORDINARY    0000051C 00001000 00000001   7 E96    8765  $$$81B,7
   8197  0000051C  00000001 USING  ORDINARY    FFFFFFD8 00001000 FFFFFFE5   8 028    8201  SETACTWA-(4+36),R8
   8209  00000520  00000001 USING  ORDINARY    00000000 00001000 FFFFFFE5   6 200    9885  SETACTWA,R6
   8452  0000061E  00000001 USING  ORDINARY    00000000 00001000 FFFFFFE8   4 04E    8742  AINFO,R4
   8772  000006E0  00000001 USING  ORDINARY    00000000 00001000 FFFFFFFA   4 000   32484  @R4,4
   8784  000006E4  00000001 USING  ORDINARY    00000000 00001000 FFFFFFF6   8 000          @R8,8
   8789  000006E4  00000001 USING  ORDINARY    00000000 00001000 FFFFFFF7   7 000          @R7,7
   9063  00000966  00000001 USING  ORDINARY    00000966 00001000 00000001   7 000          $$$100B,7
   9079  0000096A  00000001 USING  ORDINARY    00000000 00001000 FFFFFFF7   7 000          @R7,7
   9124  00000992  00000001 USING  ORDINARY    00000992 00001000 00000001   7 956    9191  $$$103B,7
   9209  000009C0  00000001 USING  ORDINARY    00000000 00001000 FFFFFFF7   7 000          @R7,7
   9254  000009E8  00000001 USING  ORDINARY    000009E8 00001000 00000001   7 8C8    9263  $$$108B,7
1EDIT     (EDIT2193) (12:43) (15MAR04) Using Map                                                                            Page  165
   9280  000009F4  00000001 USING  ORDINARY    00000000 00001000 FFFFFFF7   7 000          @R7,7
   9325  00000A1C  00000001 USING  ORDINARY    00000A1C 00001000 00000001   7 89C    9334  $$$111B,7
   9351  00000A28  00000001 USING  ORDINARY    00000000 00001000 FFFFFFF7   7 000          @R7,7
   9396  00000A50  00000001 USING  ORDINARY    00000A50 00001000 00000001   7 898    9463  $$$114B,7
   9481  00000A7E  00000001 USING  ORDINARY    00000000 00001000 FFFFFFF7   7 000          @R7,7
   9526  00000AA6  00000001 USING  ORDINARY    00000AA6 00001000 00000001   7 84A    9558  $$$119B,7
   9576  00000AC4  00000001 USING  ORDINARY    00000000 00001000 FFFFFFF7   7 000          @R7,7
   9621  00000AEC  00000001 USING  ORDINARY    00000AEC 00001000 00000001   7 000          $$$122B,7
   9655  00000AF8  00000001 USING  ORDINARY    00000000 00001000 FFFFFFF7   7 000          @R7,7
   9700  00000B20  00000001 USING  ORDINARY    00000B20 00001000 00000001   7 000          $$$125B,7
   9734  00000B2C  00000001 USING  ORDINARY    00000000 00001000 FFFFFFF7   7 000          @R7,7
   9779  00000B54  00000001 USING  ORDINARY    00000B54 00001000 00000001   7 000          $$$128B,7
   9813  00000B60  00000001 USING  ORDINARY    00000000 00001000 FFFFFFF7   7 000          @R7,7
   9858  00000B88  00000001 USING  ORDINARY    00000B88 00001000 00000001   7 000          $$$131B,7
   9892  00000B94  00000001 USING  ORDINARY    00000000 00001000 FFFFFFF7   7 000          @R7,7
   9912  00000BA2  00000001 USING  ORDINARY    00000000 00001000 FFFFFFF8   6 000          @R6,6
   9975  00000BBC  00000001 USING  ORDINARY    00000BBC 00001000 00000001   7 81F   10563  $$$134B,7
   9989  00000BBC  00000001 USING  ORDINARY    FFFFFFD8 00001000 FFFFFFE4   8 028    9993  OPENWA-(4+36),R8
  10001  00000BC0  00000001 USING  ORDINARY    00000000 00001000 FFFFFFE4   6 060   10998  OPENWA,R6
  10573  00000E02  00000001 USING  ORDINARY    00000000 00001000 FFFFFFF6   8 000          @R8,8
  10578  00000E02  00000001 USING  ORDINARY    00000000 00001000 FFFFFFF7   7 000          @R7,7
  10778  00000FBA  00000001 USING  ORDINARY    00000FBA 00001000 00000001   7 2FE   10787  $$$151B,7
  10794  00000FC0  00000001 USING  ORDINARY    00000000 00001000 FFFFFFF7   7 000          @R7,7
  10839  00000FE8  00000001 USING  ORDINARY    00000FE8 00001000 00000001   7 2C8   10848  $$$154B,7
  10855  00000FEE  00000001 USING  ORDINARY    00000000 00001000 FFFFFFF7   7 000          @R7,7
  10900  00001016  00000001 USING  ORDINARY    00001016 00001000 00000001   7 2DA   10932  $$$157B,7
  10944  00001030  00000001 USING  ORDINARY    00000000 00001000 FFFFFFF7   7 000          @R7,7
  10989  00001058  00000001 USING  ORDINARY    00001058 00001000 00000001   7 000          $$$160B,7
  11005  0000105C  00000001 USING  ORDINARY    00000000 00001000 FFFFFFF7   7 000          @R7,7
  11025  0000106A  00000001 USING  ORDINARY    00000000 00001000 FFFFFFF8   6 000          @R6,6
  11063  00001084  00000001 USING  ORDINARY    00001084 00001000 00000001   7 380   11299  $$$163B,7
  11309  000011BC  00000001 USING  ORDINARY    00000000 00001000 FFFFFFF7   7 000          @R7,7
  11420  00001286  00000001 USING  ORDINARY    00001286 00001000 00000001   7 082   11435  $$$171B,7
  11443  00001292  00000001 USING  ORDINARY    00000000 00001000 FFFFFFF7   7 000          @R7,7
  11613  0000142E  00000001 USING  ORDINARY    0000142E 00001000 00000001   7 7C1   12234  $$$174B,7
  11627  0000142E  00000001 USING  ORDINARY    FFFFFFD8 00001000 FFFFFFE3   8 028   11631  PICKWA-(4+36),R8
  11639  00001432  00000001 USING  ORDINARY    00000000 00001000 FFFFFFE3   6 100   13127  PICKWA,R6
  11796  000014E4  00000001 USING  ORDINARY    00000000 00001000 FFFFFFE8   2 03B   11914  AINFO,R2
  11997  00001562  00000001 USING  ORDINARY    00000000 00001000 FFFFFFFC   2 004   30912  @R2,2
  12243  0000162C  00000001 USING  ORDINARY    00000000 00001000 FFFFFFF6   8 000          @R8,8
  12248  0000162C  00000001 USING  ORDINARY    00000000 00001000 FFFFFFF7   7 000          @R7,7
  12463  0000180E  00000001 USING  ORDINARY    0000180E 00001000 00000001   7 430   12530  $$$190B,7
  12539  00001850  00000001 USING  ORDINARY    00000000 00001000 FFFFFFF7   7 000          @R7,7
  12584  00001878  00000001 USING  ORDINARY    00001878 00001000 00000001   7 324   12611  $$$193B,7
  12632  0000188A  00000001 USING  ORDINARY    00000000 00001000 FFFFFFF7   7 000          @R7,7
  12677  000018B2  00000001 USING  ORDINARY    000018B2 00001000 00000001   7 2EA   12704  $$$197B,7
  12725  000018C4  00000001 USING  ORDINARY    00000000 00001000 FFFFFFF7   7 000          @R7,7
  12770  000018EC  00000001 USING  ORDINARY    000018EC 00001000 00000001   7 2B0   12797  $$$201B,7
  12818  000018FE  00000001 USING  ORDINARY    00000000 00001000 FFFFFFF7   7 000          @R7,7
  12863  00001926  00000001 USING  ORDINARY    00001926 00001000 00000001   7 276   12890  $$$205B,7
  12911  00001938  00000001 USING  ORDINARY    00000000 00001000 FFFFFFF7   7 000          @R7,7
  12956  00001960  00000001 USING  ORDINARY    00001960 00001000 00000001   7 23C   12983  $$$209B,7
  13002  00001976  00000001 USING  ORDINARY    00000000 00001000 FFFFFFF7   7 000          @R7,7
  13047  0000199E  00000001 USING  ORDINARY    0000199E 00001000 00000001   7 000          $$$213B,7
  13068  000019A2  00000001 USING  ORDINARY    00000000 00001000 FFFFFFF7   7 000          @R7,7
  13113  000019CA  00000001 USING  ORDINARY    000019CA 00001000 00000001   7 000          $$$216B,7
  13134  000019CE  00000001 USING  ORDINARY    00000000 00001000 FFFFFFF7   7 000          @R7,7
  13179  000019F6  00000001 USING  ORDINARY    000019F6 00001000 00000001   7 1C6   13216  $$$219B,7
  13225  00001A0C  00000001 USING  ORDINARY    00000000 00001000 FFFFFFF7   7 000          @R7,7
1EDIT     (EDIT2193) (12:43) (15MAR04) Using Map                                                                            Page  166
  13245  00001A1A  00000001 USING  ORDINARY    00000000 00001000 FFFFFFF8   6 000          @R6,6
  13304  00001A34  00000001 USING  ORDINARY    00001A34 00001000 00000001   7 21B   13502  $$$222B,7
  13318  00001A34  00000001 USING  ORDINARY    FFFFFFD8 00001000 FFFFFFE2   8 028   13430  UCLRWA-(4+36),R8
  13440  00001A9E  00000001 USING  ORDINARY    00000000 00001000 FFFFFFE8   3 03B   13474  AINFO,R3
  13489  00001AB0  00000001 USING  ORDINARY    00000000 00001000 FFFFFFFB   3 004   26131  @R3,3
  13511  00001AC2  00000001 USING  ORDINARY    00000000 00001000 FFFFFFF6   8 000          @R8,8
  13516  00001AC2  00000001 USING  ORDINARY    00000000 00001000 FFFFFFF7   7 000          @R7,7
  13694  00001C94  00000001 USING  ORDINARY    00001C94 00001000 00000001   7 AEC   13711  $$$229B,7
  13719  00001C9E  00000001 USING  ORDINARY    00000000 00001000 FFFFFFF7   7 000          @R7,7
  13768  00001CC6  00000001 USING  ORDINARY    00001CC6 00001000 00000001   7 B1C   14211  $$$232B,7
  13782  00001CC6  00000001 USING  ORDINARY    FFFFFFD8 00001000 FFFFFFE1   8 028   13786  LISTWA-(4+36),R8
  13794  00001CCA  00000001 USING  ORDINARY    00000000 00001000 FFFFFFE1   6 008   16243  LISTWA,R6
  14230  00001E5C  00000001 USING  ORDINARY    00000000 00001000 FFFFFFE9  15 062   14242  JCB,R15
  14249  00001E60  00000001 USING  ORDINARY    00000000 00001000 FFFFFFEF  15 000          @R15,15
  14259  00001E6A  00000001 USING  ORDINARY    00000000 00001000 FFFFFFF6   8 000          @R8,8
  14264  00001E6A  00000001 USING  ORDINARY    00000000 00001000 FFFFFFF7   7 000          @R7,7
  14762  00002342  00000001 USING  ORDINARY    00002342 00001000 00000001   7 000          $$$248B,7
  14783  00002346  00000001 USING  ORDINARY    00000000 00001000 FFFFFFF7   7 000          @R7,7
  14828  0000236E  00000001 USING  ORDINARY    0000236E 00001000 00000001   7 000          $$$251B,7
  14854  00002376  00000001 USING  ORDINARY    00000000 00001000 FFFFFFF7   7 000          @R7,7
  14899  0000239E  00000001 USING  ORDINARY    0000239E 00001000 00000001   7 000          $$$254B,7
  14925  000023A6  00000001 USING  ORDINARY    00000000 00001000 FFFFFFF7   7 000          @R7,7
  14970  000023CE  00000001 USING  ORDINARY    000023CE 00001000 00000001   7 000          $$$257B,7
  15002  000023DA  00000001 USING  ORDINARY    00000000 00001000 FFFFFFF7   7 000          @R7,7
  15047  00002402  00000001 USING  ORDINARY    00002402 00001000 00000001   7 000          $$$260B,7
  15079  0000240E  00000001 USING  ORDINARY    00000000 00001000 FFFFFFF7   7 000          @R7,7
  15124  00002436  00000001 USING  ORDINARY    00002436 00001000 00000001   7 000          $$$263B,7
  15145  0000243A  00000001 USING  ORDINARY    00000000 00001000 FFFFFFF7   7 000          @R7,7
  15190  00002462  00000001 USING  ORDINARY    00002462 00001000 00000001   7 000          $$$266B,7
  15217  0000246A  00000001 USING  ORDINARY    00000000 00001000 FFFFFFF7   7 000          @R7,7
  15262  00002492  00000001 USING  ORDINARY    00002492 00001000 00000001   7 000          $$$269B,7
  15283  00002496  00000001 USING  ORDINARY    00000000 00001000 FFFFFFF7   7 000          @R7,7
  15328  000024BE  00000001 USING  ORDINARY    000024BE 00001000 00000001   7 000          $$$272B,7
  15349  000024C2  00000001 USING  ORDINARY    00000000 00001000 FFFFFFF7   7 000          @R7,7
  15394  000024EA  00000001 USING  ORDINARY    000024EA 00001000 00000001   7 024   15444  $$$275B,7
  15474  0000250E  00000001 USING  ORDINARY    00000000 00001000 FFFFFFF7   7 000          @R7,7
  15519  00002536  00000001 USING  ORDINARY    00002536 00001000 00000001   7 000          $$$282B,7
  15541  0000253A  00000001 USING  ORDINARY    00000000 00001000 FFFFFFF7   7 000          @R7,7
  15586  00002562  00000001 USING  ORDINARY    00002562 00001000 00000001   7 000          $$$285B,7
  15607  00002566  00000001 USING  ORDINARY    00000000 00001000 FFFFFFF7   7 000          @R7,7
  15652  0000258E  00000001 USING  ORDINARY    0000258E 00001000 00000001   7 000          $$$288B,7
  15673  00002592  00000001 USING  ORDINARY    00000000 00001000 FFFFFFF7   7 000          @R7,7
  15718  000025BA  00000001 USING  ORDINARY    000025BA 00001000 00000001   7 000          $$$291B,7
  15740  000025BE  00000001 USING  ORDINARY    00000000 00001000 FFFFFFF7   7 000          @R7,7
  15785  000025E6  00000001 USING  ORDINARY    000025E6 00001000 00000001   7 000          $$$294B,7
  15806  000025EA  00000001 USING  ORDINARY    00000000 00001000 FFFFFFF7   7 000          @R7,7
  15851  00002612  00000001 USING  ORDINARY    00002612 00001000 00000001   7 000          $$$297B,7
  15872  00002616  00000001 USING  ORDINARY    00000000 00001000 FFFFFFF7   7 000          @R7,7
  15917  0000263E  00000001 USING  ORDINARY    0000263E 00001000 00000001   7 014   15943  $$$300B,7
  15973  00002652  00000001 USING  ORDINARY    00000000 00001000 FFFFFFF7   7 000          @R7,7
  16018  0000267A  00000001 USING  ORDINARY    0000267A 00001000 00000001   7 000          $$$307B,7
  16039  0000267E  00000001 USING  ORDINARY    00000000 00001000 FFFFFFF7   7 000          @R7,7
  16084  000026A6  00000001 USING  ORDINARY    000026A6 00001000 00000001   7 000          $$$310B,7
  16100  000026AA  00000001 USING  ORDINARY    00000000 00001000 FFFFFFF7   7 000          @R7,7
  16145  000026D2  00000001 USING  ORDINARY    000026D2 00001000 00000001   7 0FE   16173  $$$313B,7
  16185  000026E6  00000001 USING  ORDINARY    00000000 00001000 FFFFFFF7   7 000          @R7,7
  16230  0000270E  00000001 USING  ORDINARY    0000270E 00001000 00000001   7 0CA   16246  $$$316B,7
  16254  0000271E  00000001 USING  ORDINARY    00000000 00001000 FFFFFFF7   7 000          @R7,7
  16299  00002746  00000001 USING  ORDINARY    00002746 00001000 00000001   7 0C4   16342  $$$319B,7
1EDIT     (EDIT2193) (12:43) (15MAR04) Using Map                                                                            Page  167
  16351  0000276E  00000001 USING  ORDINARY    00000000 00001000 FFFFFFF7   7 000          @R7,7
  16371  0000277C  00000001 USING  ORDINARY    00000000 00001000 FFFFFFF8   6 000          @R6,6
  16492  00002842  00000001 USING  ORDINARY    00002842 00001000 00000001   7 316   17427  $$$323B,7
  16506  00002842  00000001 USING  ORDINARY    FFFFFFD8 00001000 FFFFFFE0   8 000          LRTNWA-(4+36),R8
  16519  00002846  00000001 USING  ORDINARY    00000000 00001000 FFFFFFE1   6 008   17694  LISTWA,R6
  17446  00002A4C  00000001 USING  ORDINARY    00000000 00001000 FFFFFFE9  15 062   17458  JCB,R15
  17465  00002A50  00000001 USING  ORDINARY    00000000 00001000 FFFFFFEF  15 004   19739  @R15,15
  17481  00002A5A  00000001 USING  ORDINARY    00000000 00001000 FFFFFFF6   8 000          @R8,8
  17486  00002A5A  00000001 USING  ORDINARY    00000000 00001000 FFFFFFF7   7 000          @R7,7
  17543  00002A82  00000001 USING  ORDINARY    00002A82 00001000 00000001   7 0D2   17700  $$$362B,7
  17708  00002AF8  00000001 USING  ORDINARY    00000000 00001000 FFFFFFF7   7 000          @R7,7
  17801  00002B76  00000001 USING  ORDINARY    00002B76 00001000 00000001   7 14C   18067  $$$369B,7
  18079  00002C2C  00000001 USING  ORDINARY    00000000 00001000 FFFFFFF7   7 000          @R7,7
  18160  00002CF2  00000001 USING  ORDINARY    00002CF2 00001000 00000001   7 08E   18339  $$$379B,7
  18347  00002D60  00000001 USING  ORDINARY    00000000 00001000 FFFFFFF7   7 000          @R7,7
  18385  00002D82  00000001 USING  ORDINARY    00000000 00001000 FFFFFFF8   6 000          @R6,6
  18423  00002D9C  00000001 USING  ORDINARY    00002D9C 00001000 00000001   7 CD4   18498  $$$386B,7
  18508  00002E18  00000001 USING  ORDINARY    00000000 00001000 FFFFFFF7   7 000          @R7,7
  18644  00002EE2  00000001 USING  ORDINARY    00002EE2 00001000 00000001   7 C5C   18914  $$$391B,7
  18658  00002EE2  00000001 USING  ORDINARY    FFFFFFD8 00001000 FFFFFFDF   8 028   18663  SQRTWA-(4+36),R8
  18943  00002FB2  00000001 USING  ORDINARY    00000000 00001000 FFFFFFF6   8 000          @R8,8
  18948  00002FB2  00000001 USING  ORDINARY    00000000 00001000 FFFFFFF7   7 000          @R7,7
  19038  00002FDA  00000001 USING  ORDINARY    00002FDA 00001000 00000001   7 B76   20464  $$$406B,7
  19052  00002FDA  00000001 USING  ORDINARY    FFFFFFD8 00001000 FFFFFFDE   8 028   19056  COMPWA-(4+36),R8
  19064  00002FDE  00000001 USING  ORDINARY    00000000 00001000 FFFFFFDE   6 100   21179  COMPWA,R6
  19828  00003336  00000001 USING  ORDINARY    00000000 00001000 FFFFFFE9   1 062   19843  JCB,R1
  19858  0000333E  00000001 USING  ORDINARY    00000000 00001000 FFFFFFFD   1 001   33014  @R1,1
  20264  00003486  00000001 USING  ORDINARY    00000000 00001000 FFFFFFE9  15 062   20279  JCB,R15
  20294  0000348E  00000001 USING  ORDINARY    00000000 00001000 FFFFFFEF  15 004   29465  @R15,15
  20471  00003562  00000001 USING  ORDINARY    00000000 00001000 FFFFFFF6   8 000          @R8,8
  20476  00003562  00000001 USING  ORDINARY    00000000 00001000 FFFFFFF7   7 000          @R7,7
  20749  000037E2  00000001 USING  ORDINARY    000037E2 00001000 00000001   7 000          $$$458B,7
  20765  000037E6  00000001 USING  ORDINARY    00000000 00001000 FFFFFFF7   7 000          @R7,7
  20810  0000380E  00000001 USING  ORDINARY    0000380E 00001000 00000001   7 28A   20953  $$$461B,7
  20966  000038F8  00000001 USING  ORDINARY    00000000 00001000 FFFFFFF7   7 000          @R7,7
  21011  00003920  00000001 USING  ORDINARY    00003920 00001000 00000001   7 17A   21024  $$$467B,7
  21033  0000392C  00000001 USING  ORDINARY    00000000 00001000 FFFFFFF7   7 000          @R7,7
  21078  00003954  00000001 USING  ORDINARY    00003954 00001000 00000001   7 108   21105  $$$470B,7
  21120  00003970  00000001 USING  ORDINARY    00000000 00001000 FFFFFFF7   7 000          @R7,7
  21165  00003998  00000001 USING  ORDINARY    00003998 00001000 00000001   7 000          $$$474B,7
  21186  0000399C  00000001 USING  ORDINARY    00000000 00001000 FFFFFFF7   7 000          @R7,7
  21205  000039AA  00000001 USING  ORDINARY    00000000 00001000 FFFFFFF8   6 000          @R6,6
  21340  00003B70  00000001 USING  ORDINARY    00003B70 00001000 00000001   7 676   22102  $$$477B,7
  21354  00003B70  00000001 USING  ORDINARY    FFFFFFD8 00001000 FFFFFFDD   8 028   21358  CNTWA-(4+36),R8
  21366  00003B74  00000001 USING  ORDINARY    00000000 00001000 FFFFFFDD   6 100   22633  CNTWA,R6
  22115  00003DCE  00000001 USING  ORDINARY    00000000 00001000 FFFFFFF6   8 000          @R8,8
  22120  00003DCE  00000001 USING  ORDINARY    00000000 00001000 FFFFFFF7   7 000          @R7,7
  22332  00003FAE  00000001 USING  ORDINARY    00003FAE 00001000 00000001   7 24B   22412  $$$506B,7
  22429  00003FEE  00000001 USING  ORDINARY    00000000 00001000 FFFFFFF7   7 000          @R7,7
  22474  00004016  00000001 USING  ORDINARY    00004016 00001000 00000001   7 1F0   22518  $$$511B,7
  22550  00004046  00000001 USING  ORDINARY    00000000 00001000 FFFFFFF7   7 000          @R7,7
  22595  0000406E  00000001 USING  ORDINARY    0000406E 00001000 00000001   7 16E   22627  $$$517B,7
  22644  0000408E  00000001 USING  ORDINARY    00000000 00001000 FFFFFFF7   7 000          @R7,7
  22663  0000409C  00000001 USING  ORDINARY    00000000 00001000 FFFFFFF8   6 000          @R6,6
  22702  000040B6  00000001 USING  ORDINARY    000040B6 00001000 00000001   7 000          $$$521B,7
  22721  000040BA  00000001 USING  ORDINARY    00000000 00001000 FFFFFFDD   6 000   22732  CNTWA,R6
  22739  000040C6  00000001 USING  ORDINARY    00000000 00001000 FFFFFFF8   6 000          @R6,6
  22747  000040C6  00000001 USING  ORDINARY    00000000 00001000 FFFFFFF7   7 000          @R7,7
  22816  000040EE  00000001 USING  ORDINARY    000040EE 00001000 00000001   7 12A   22991  $$$524B,7
1EDIT     (EDIT2193) (12:43) (15MAR04) Using Map                                                                            Page  168
  22830  000040EE  00000001 USING  ORDINARY    FFFFFFD8 00001000 FFFFFFDC   8 028   22916  KNTWA-(4+36),R8
  22842  000040F2  00000001 USING  ORDINARY    00000000 00001000 FFFFFFDD   6 00B   22978  CNTWA,R6
  22999  00004152  00000001 USING  ORDINARY    00000000 00001000 FFFFFFF6   8 000          @R8,8
  23004  00004152  00000001 USING  ORDINARY    00000000 00001000 FFFFFFF7   7 000          @R7,7
  23023  00004160  00000001 USING  ORDINARY    00000000 00001000 FFFFFFF8   6 000          @R6,6
  23158  00004238  00000001 USING  ORDINARY    00004238 00001000 00000001   7 7ED   23536  $$$538B,7
  23172  00004238  00000001 USING  ORDINARY    FFFFFFD8 00001000 FFFFFFDB   8 028   23176  SIZWA-(4+36),R8
  23184  0000423C  00000001 USING  ORDINARY    00000000 00001000 FFFFFFDB   6 010   24365  SIZWA,R6
  23549  000043AC  00000001 USING  ORDINARY    00000000 00001000 FFFFFFF6   8 000          @R8,8
  23554  000043AC  00000001 USING  ORDINARY    00000000 00001000 FFFFFFF7   7 000          @R7,7
  23600  000043D4  00000001 USING  ORDINARY    000043D4 00001000 00000001   7 604   23653  $$$552B,7
  23662  000043F0  00000001 USING  ORDINARY    00000000 00001000 FFFFFFF7   7 000          @R7,7
  23892  000045FA  00000001 USING  ORDINARY    000045FA 00001000 00000001   7 3E2   23954  $$$555B,7
  23970  00004622  00000001 USING  ORDINARY    00000000 00001000 FFFFFFF7   7 000          @R7,7
  24015  0000464A  00000001 USING  ORDINARY    0000464A 00001000 00000001   7 3AA   24091  $$$563B,7
  24104  000046BA  00000001 USING  ORDINARY    00000000 00001000 FFFFFFF7   7 000          @R7,7
  24149  000046E2  00000001 USING  ORDINARY    000046E2 00001000 00000001   7 312   24225  $$$567B,7
  24238  00004752  00000001 USING  ORDINARY    00000000 00001000 FFFFFFF7   7 000          @R7,7
  24283  0000477A  00000001 USING  ORDINARY    0000477A 00001000 00000001   7 27A   24363  $$$571B,7
  24376  000047EA  00000001 USING  ORDINARY    00000000 00001000 FFFFFFF7   7 000          @R7,7
  24421  00004812  00000001 USING  ORDINARY    00004812 00001000 00000001   7 000          $$$575B,7
  24437  00004816  00000001 USING  ORDINARY    00000000 00001000 FFFFFFF7   7 000          @R7,7
  24482  0000483E  00000001 USING  ORDINARY    0000483E 00001000 00000001   7 000          $$$578B,7
  24501  0000484A  00000001 USING  ORDINARY    00000000 00001000 FFFFFFF7   7 000          @R7,7
  24546  00004872  00000001 USING  ORDINARY    00004872 00001000 00000001   7 000          $$$581B,7
  24565  0000487C  00000001 USING  ORDINARY    00000000 00001000 FFFFFFF7   7 000          @R7,7
  24584  0000488A  00000001 USING  ORDINARY    00000000 00001000 FFFFFFF8   6 000          @R6,6
  24621  000048A4  00000001 USING  ORDINARY    000048A4 00001000 00000001   7 186   24986  $$$584B,7
  24638  000048A8  00000001 USING  ORDINARY    00000000 00001000 FFFFFFDB   6 010   24996  SIZWA,R6
  25003  00004976  00000001 USING  ORDINARY    00000000 00001000 FFFFFFF7   7 000          @R7,7
  25022  00004984  00000001 USING  ORDINARY    00000000 00001000 FFFFFFF8   6 000          @R6,6
  25182  00004A46  00000001 USING  ORDINARY    00004A46 00001000 00000001   7 532   25194  $$$595B,7
  25203  00004A54  00000001 USING  ORDINARY    00000000 00001000 FFFFFFF7   7 000          @R7,7
  25251  00004A7C  00000001 USING  ORDINARY    00004A7C 00001000 00000001   7 605   26004  $$$598B,7
  25265  00004A7C  00000001 USING  ORDINARY    FFFFFFD8 00001000 FFFFFFDA   8 028   25269  MVWA-(4+36),R8
  25277  00004A80  00000001 USING  ORDINARY    00000000 00001000 FFFFFFDA   6 018   28721  MVWA,R6
  26013  00004D10  00000001 USING  ORDINARY    00000000 00001000 FFFFFFF6   8 000          @R8,8
  26018  00004D10  00000001 USING  ORDINARY    00000000 00001000 FFFFFFF7   7 000          @R7,7
  26096  00004D38  00000001 USING  ORDINARY    00004D38 00001000 00000001   7 374   26641  $$$631B,7
  26110  00004D38  00000001 USING  ORDINARY    FFFFFFD8 00001000 FFFFFFD9   8 028   26503  WORKWA-(4+36),R8
  26654  00004F62  00000001 USING  ORDINARY    00000000 00001000 FFFFFFF6   8 000          @R8,8
  26659  00004F62  00000001 USING  ORDINARY    00000000 00001000 FFFFFFF7   7 000          @R7,7
  26766  000050CC  00000001 USING  ORDINARY    000050CC 00001000 00000001   7 A9C   26826  $$$648B,7
  26835  000050FE  00000001 USING  ORDINARY    00000000 00001000 FFFFFFF7   7 000          @R7,7
  27294  0000555E  00000001 USING  ORDINARY    0000555E 00001000 00000001   7 532   27307  $$$651B,7
  27316  0000556A  00000001 USING  ORDINARY    00000000 00001000 FFFFFFF7   7 000          @R7,7
  27361  00005592  00000001 USING  ORDINARY    00005592 00001000 00000001   7 56A   27446  $$$654B,7
  27458  00005610  00000001 USING  ORDINARY    00000000 00001000 FFFFFFF7   7 000          @R7,7
  27503  00005638  00000001 USING  ORDINARY    00005638 00001000 00000001   7 000          $$$658B,7
  27522  00005648  00000001 USING  ORDINARY    00000000 00001000 FFFFFFF7   7 000          @R7,7
  27567  00005670  00000001 USING  ORDINARY    00005670 00001000 00000001   7 4B4   27631  $$$661B,7
  27643  000056A0  00000001 USING  ORDINARY    00000000 00001000 FFFFFFF7   7 000          @R7,7
  27688  000056C8  00000001 USING  ORDINARY    000056C8 00001000 00000001   7 47A   27743  $$$667B,7
  27760  000056F2  00000001 USING  ORDINARY    00000000 00001000 FFFFFFF7   7 000          @R7,7
  27805  0000571A  00000001 USING  ORDINARY    0000571A 00001000 00000001   7 3E2   27857  $$$673B,7
  27869  0000577C  00000001 USING  ORDINARY    00000000 00001000 FFFFFFF7   7 000          @R7,7
  27914  000057A4  00000001 USING  ORDINARY    000057A4 00001000 00000001   7 348   27973  $$$676B,7
  27987  000057D4  00000001 USING  ORDINARY    00000000 00001000 FFFFFFF7   7 000          @R7,7
  28032  000057FC  00000001 USING  ORDINARY    000057FC 00001000 00000001   7 2BC   28086  $$$681B,7
1EDIT     (EDIT2193) (12:43) (15MAR04) Using Map                                                                            Page  169
  28115  0000582E  00000001 USING  ORDINARY    00000000 00001000 FFFFFFF7   7 000          @R7,7
  28160  00005856  00000001 USING  ORDINARY    00005856 00001000 00000001   7 000          $$$686B,7
  28192  00005864  00000001 USING  ORDINARY    00000000 00001000 FFFFFFF7   7 000          @R7,7
  28237  0000588C  00000001 USING  ORDINARY    0000588C 00001000 00000001   7 270   28289  $$$689B,7
  28301  000058EE  00000001 USING  ORDINARY    00000000 00001000 FFFFFFF7   7 000          @R7,7
  28346  00005916  00000001 USING  ORDINARY    00005916 00001000 00000001   7 1DE   28359  $$$692B,7
  28368  00005928  00000001 USING  ORDINARY    00000000 00001000 FFFFFFF7   7 000          @R7,7
  28413  00005950  00000001 USING  ORDINARY    00005950 00001000 00000001   7 1AC   28457  $$$695B,7
  28466  000059AC  00000001 USING  ORDINARY    00000000 00001000 FFFFFFF7   7 000          @R7,7
  28511  000059D4  00000001 USING  ORDINARY    000059D4 00001000 00000001   7 120   28525  $$$698B,7
  28534  000059E8  00000001 USING  ORDINARY    00000000 00001000 FFFFFFF7   7 000          @R7,7
  28579  00005A10  00000001 USING  ORDINARY    00005A10 00001000 00000001   7 000          $$$701B,7
  28600  00005A14  00000001 USING  ORDINARY    00000000 00001000 FFFFFFF7   7 000          @R7,7
  28645  00005A3C  00000001 USING  ORDINARY    00005A3C 00001000 00000001   7 000          $$$704B,7
  28667  00005A40  00000001 USING  ORDINARY    00000000 00001000 FFFFFFF7   7 000          @R7,7
  28712  00005A68  00000001 USING  ORDINARY    00005A68 00001000 00000001   7 000          $$$707B,7
  28728  00005A6C  00000001 USING  ORDINARY    00000000 00001000 FFFFFFF7   7 000          @R7,7
  28747  00005A7A  00000001 USING  ORDINARY    00000000 00001000 FFFFFFF8   6 000          @R6,6
  28855  00005B88  00000001 USING  ORDINARY    00005B88 00001000 00000001   7 4B1   29328  $$$710B,7
  28869  00005B88  00000001 USING  ORDINARY    FFFFFFD8 00001000 FFFFFFD8   8 028   28873  COPYAWA-(4+36),R8
  28881  00005B8C  00000001 USING  ORDINARY    00000000 00001000 FFFFFFD8   6 00C   29811  COPYAWA,R6
  29343  00005D62  00000001 USING  ORDINARY    00000000 00001000 FFFFFFF6   8 000          @R8,8
  29348  00005D62  00000001 USING  ORDINARY    00000000 00001000 FFFFFFF7   7 000          @R7,7
  29442  00005E02  00000001 USING  ORDINARY    00005E02 00001000 00000001   7 1D6   29579  $$$721B,7
  29596  00005E5C  00000001 USING  ORDINARY    00000000 00001000 FFFFFFF7   7 000          @R7,7
  29641  00005E84  00000001 USING  ORDINARY    00005E84 00001000 00000001   7 000          $$$727B,7
  29662  00005E88  00000001 USING  ORDINARY    00000000 00001000 FFFFFFF7   7 000          @R7,7
  29711  00005EB0  00000001 USING  ORDINARY    00005EB0 00001000 00000001   7 1A4   29842  $$$730B,7
  29850  00005F2C  00000001 USING  ORDINARY    00000000 00001000 FFFFFFF7   7 000          @R7,7
  29869  00005F3A  00000001 USING  ORDINARY    00000000 00001000 FFFFFFF8   6 000          @R6,6
  29982  00006082  00000001 USING  ORDINARY    00006082 00001000 00000001   7 D7E   30351  $$$735B,7
  29996  00006082  00000001 USING  ORDINARY    FFFFFFD8 00001000 FFFFFFD7   8 028   30000  EVALWA-(4+36),R8
  30008  00006086  00000001 USING  ORDINARY    00000000 00001000 FFFFFFD7   6 300   30942  EVALWA,R6
  30365  00006266  00000001 USING  ORDINARY    00000000 00001000 FFFFFFF6   8 000          @R8,8
  30370  00006266  00000001 USING  ORDINARY    00000000 00001000 FFFFFFF7   7 000          @R7,7
  30526  000063A6  00000001 USING  ORDINARY    000063A6 00001000 00000001   7 B00   30575  $$$747B,7
  30610  000063CA  00000001 USING  ORDINARY    00000000 00001000 FFFFFFF7   7 000          @R7,7
  30655  000063F2  00000001 USING  ORDINARY    000063F2 00001000 00000001   7 ABA   30704  $$$754B,7
  30739  00006416  00000001 USING  ORDINARY    00000000 00001000 FFFFFFF7   7 000          @R7,7
  30792  0000643E  00000001 USING  ORDINARY    0000643E 00001000 00000001   7 9C6   30956  $$$761B,7
  30965  000064D2  00000001 USING  ORDINARY    00000000 00001000 FFFFFFF7   7 000          @R7,7
  31077  000064FA  00000001 USING  ORDINARY    000064FA 00001000 00000001   7 955   31466  $$$767B,7
  31091  000064FA  00000001 USING  ORDINARY    FFFFFFD8 00001000 FFFFFFD6   8 028   31095  RLDWA-(4+36),R8
  31103  000064FE  00000001 USING  ORDINARY    00000000 00001000 FFFFFFF8   6 000          @R6,6
  31106  000064FE  00000001 USING  ORDINARY    00000000 00001000 FFFFFFD6   6 100   33081  RLDWA,R6
  31481  00006698  00000001 USING  ORDINARY    00000000 00001000 FFFFFFF6   8 000          @R8,8
  31486  00006698  00000001 USING  ORDINARY    00000000 00001000 FFFFFFF7   7 000          @R7,7
  31758  0000691A  00000001 USING  ORDINARY    0000691A 00001000 00000001   7 000          $$$780B,7
  31774  0000691E  00000001 USING  ORDINARY    00000000 00001000 FFFFFFF7   7 000          @R7,7
  31819  00006946  00000001 USING  ORDINARY    00006946 00001000 00000001   7 516   31861  $$$783B,7
  31883  0000696E  00000001 USING  ORDINARY    00000000 00001000 FFFFFFF7   7 000          @R7,7
  31928  00006996  00000001 USING  ORDINARY    00006996 00001000 00000001   7 000          $$$788B,7
  31949  0000699A  00000001 USING  ORDINARY    00000000 00001000 FFFFFFF7   7 000          @R7,7
  31994  000069C2  00000001 USING  ORDINARY    000069C2 00001000 00000001   7 000          $$$791B,7
  32015  000069C6  00000001 USING  ORDINARY    00000000 00001000 FFFFFFF7   7 000          @R7,7
  32060  000069EE  00000001 USING  ORDINARY    000069EE 00001000 00000001   7 000          $$$794B,7
  32088  000069F6  00000001 USING  ORDINARY    00000000 00001000 FFFFFFF7   7 000          @R7,7
  32133  00006A1E  00000001 USING  ORDINARY    00006A1E 00001000 00000001   7 3C2   32172  $$$797B,7
  32185  00006A3C  00000001 USING  ORDINARY    00000000 00001000 FFFFFFF7   7 000          @R7,7
1EDIT     (EDIT2193) (12:43) (15MAR04) Using Map                                                                            Page  170
  32230  00006A64  00000001 USING  ORDINARY    00006A64 00001000 00000001   7 000          $$$801B,7
  32246  00006A68  00000001 USING  ORDINARY    00000000 00001000 FFFFFFF7   7 000          @R7,7
  32291  00006A90  00000001 USING  ORDINARY    00006A90 00001000 00000001   7 000          $$$804B,7
  32307  00006A94  00000001 USING  ORDINARY    00000000 00001000 FFFFFFF7   7 000          @R7,7
  32361  00006ABC  00000001 USING  ORDINARY    00006ABC 00001000 00000001   7 40E   33173  $$$807B,7
  33183  00006D2E  00000001 USING  ORDINARY    00000000 00001000 FFFFFFF7   7 000          @R7,7
  33326  00006EEA  00000001 USING  ORDINARY    00006EEA 00001000 00000001   7 B10   34491  $$$847B,7
  33340  00006EEA  00000001 USING  ORDINARY    FFFFFFD8 00001000 FFFFFFD5   8 028   33344  NUMWA-(4+36),R8
  33352  00006EEE  00000001 USING  ORDINARY    00000000 00001000 FFFFFFF8   6 000          @R6,6
  33355  00006EEE  00000001 USING  ORDINARY    00000000 00001000 FFFFFFD5   6 014   34327  NUMWA,R6
  34502  0000724E  00000001 USING  ORDINARY    00000000 00001000 FFFFFFF6   8 000          @R8,8
  34507  0000724E  00000001 USING  ORDINARY    00000000 00001000 FFFFFFF7   7 000          @R7,7
  34526  0000725C  00000001 USING  ORDINARY    00000000 00001000 FFFFFFF8   6 000          @R6,6
  34570  00007276  00000001 USING  ORDINARY    00007276 00001000 00000001   7 785   34687  $$$885B,7
  34589  0000727A  00000001 USING  ORDINARY    00000000 00001000 FFFFFFD5   6 018   34689  NUMWA,R6
  34696  000072CA  00000001 USING  ORDINARY    00000000 00001000 FFFFFFF8   6 000          @R6,6
  34701  000072CA  00000001 USING  ORDINARY    00000000 00001000 FFFFFFF7   7 000          @R7,7
  34856  0000740A  00000001 USING  ORDINARY    0000740A 00001000 00000001   7 45A   34902  $$$891B,7
  34875  0000740E  00000001 USING  ORDINARY    00000000 00001000 FFFFFFD5   6 00C   34910  NUMWA,R6
  34921  0000742C  00000001 USING  ORDINARY    00000000 00001000 FFFFFFF8   6 000          @R6,6
  34926  0000742C  00000001 USING  ORDINARY    00000000 00001000 FFFFFFF7   7 000          @R7,7
  34972  00007454  00000001 USING  ORDINARY    00007454 00001000 00000001   7 434   35018  $$$895B,7
  34991  00007458  00000001 USING  ORDINARY    00000000 00001000 FFFFFFD5   6 014   35026  NUMWA,R6
  35037  00007476  00000001 USING  ORDINARY    00000000 00001000 FFFFFFF8   6 000          @R6,6
  35042  00007476  00000001 USING  ORDINARY    00000000 00001000 FFFFFFF7   7 000          @R7,7
  35088  0000749E  00000001 USING  ORDINARY    0000749E 00001000 00000001   7 3C2   35114  $$$899B,7
  35107  000074A2  00000001 USING  ORDINARY    00000000 00001000 FFFFFFD5   6 010   35117  NUMWA,R6
  35128  000074AE  00000001 USING  ORDINARY    00000000 00001000 FFFFFFF8   6 000          @R6,6
  35133  000074AE  00000001 USING  ORDINARY    00000000 00001000 FFFFFFF7   7 000          @R7,7
  35179  000074D6  00000001 USING  ORDINARY    000074D6 00001000 00000001   7 3D6   35225  $$$902B,7
  35198  000074DA  00000001 USING  ORDINARY    00000000 00001000 FFFFFFD5   6 008   35233  NUMWA,R6
  35244  000074F8  00000001 USING  ORDINARY    00000000 00001000 FFFFFFF8   6 000          @R6,6
  35249  000074F8  00000001 USING  ORDINARY    00000000 00001000 FFFFFFF7   7 000          @R7,7
  35302  00007520  00000001 USING  ORDINARY    00007520 00001000 00000001   7 3B8   35346  $$$906B,7
  35357  00007580  00000001 USING  ORDINARY    00000000 00001000 FFFFFFF7   7 000          @R7,7
  35402  000075A8  00000001 USING  ORDINARY    000075A8 00001000 00000001   7 000          $$$909B,7
  35418  000075AC  00000001 USING  ORDINARY    00000000 00001000 FFFFFFF7   7 000          @R7,7
  35463  000075D4  00000001 USING  ORDINARY    000075D4 00001000 00000001   7 000          $$$912B,7
  35482  000075DE  00000001 USING  ORDINARY    00000000 00001000 FFFFFFF7   7 000          @R7,7
  35527  00007606  00000001 USING  ORDINARY    00007606 00001000 00000001   7 000          $$$915B,7
  35546  00007610  00000001 USING  ORDINARY    00000000 00001000 FFFFFFF7   7 000          @R7,7
  35591  00007638  00000001 USING  ORDINARY    00007638 00001000 00000001   7 2A0   35635  $$$918B,7
  35646  00007698  00000001 USING  ORDINARY    00000000 00001000 FFFFFFF7   7 000          @R7,7

1         (EDIT2193) (12:43) (15MAR04) General Purpose Register Cross Reference                                             Page  171
- Register  References (M=modified, B=branch, U=USING, D=DROP, N=index)                      HLASM R4.0  2004/03/15 12.43
0    0(0)      982U   983D  2130   2198M  2198   2199M  6780   6827M  6827   6836   6837   6894M  6924M  6950M  6972M
              6972   6990M  7028M  7098   7146   7163M  7226   7288M  7288   7297   7298   7387M  7407   7518M  7602M
              7622   7733M  7775M  7875   7921M  7941   7982M  8002   8048M  8165   8229M  8229   8238   8239   8304M
              8322M  8340M  8363M  8384M  8406M  8406   8424M  8762M  8797M  9046   9072   9087M  9107   9188M  9217M
              9237   9288M  9308   9359M  9379   9460M  9489M  9509   9555M  9584M  9604   9663M  9683   9742M  9762
              9821M  9841   9900M  9957  10025M 10025  10034  10035  10036  10063M 10063  10080  10131M 10173M 10173
             10182  10183  10184  10213M 10213  10233  10267  10279  10291M 10325M 10348M 10401M 10420M 10420  10429
             10430  10586M 10761  10802M 10822  10863M 10883  10929M 10952M 10972  11013M 11046  11087M 11087  11096
             11097  11098  11125M 11125  11142  11193M 11232M 11232  11241  11242  11285M 11317M 11403  11451M 11595
             11656M 11656  11665  11666  11718M 11739M 11761M 11761  11779M 11839M 11861M 11861  11891M 11919M 11935M
             11982M 12050M 12105M 12227M 12256M 12446  12477M 12495M 12513M 12531M 12547M 12567  12640M 12660  12733M
             12753  12826M 12846  12919M 12939  12995  13010M 13030  13076M 13096  13142M 13162  13217M 13233M 13286
             13362M 13380M 13401M 13421  13524M 13677  13727M 13750  13850M 13850  13859  13860  13902M 13902  13911
             13912  14056M 14091M 14113M 14155M 14155  14184M 14184  14272M 14745  14791M 14811  14862M 14882  14933M
             14953  15010M 15030  15087M 15107  15153M 15173  15225M 15245  15291M 15311  15357M 15377  15482M 15502
             15549M 15569  15615M 15635  15681M 15701  15748M 15768  15814M 15834  15880M 15900  15981M 16001  16047M
             16067  16093  16108M 16128  16170M 16193M 16213  16243  16262M 16282  16313M 16331M 16359M 16474  16544
             16546M 16548M 16564M 16564  16593  16686M 16721M 16742M 16767M 16792M 16817M 16899M 16970M 16999M 17031M
             17031  17158M 17179M 17204M 17229M 17254M 17319M 17319  17364M 17364  17494M 17526  17553  17572M 17594M
             17624M 17676M 17697M 17716M 17784  17811  17827  17876M 17889M 17921M 17958M 17974M 18008M 18042M 18044M
             18087M 18143  18170  18176M 18176  18193M 18215M 18243M 18280M 18311M 18328M 18328  18355M 18406  18454M
             18454  18463  18464  18494M 18516M 18626  18665  18681  18688  18692  18694M 18700M 18714M 18725  18728
             18768M 18784M 18796  18837M 18837  18867M 18907M 18908M 18909  18956M 19020  19100M 19100  19109  19110
             19153M 19167M 19167  19176  19177  19178  19287M 19287  19296  19297  19340M 19354M 19354  19363  19364
             19458M 19509M 19699M 19862M 19868  19871M 19877  19886M 19973M 19986M 20020M 20033M 20077M 20095M 20202M
             20202  20240M 20240  20355M 20377M 20399M 20399  20408  20409  20410  20437M 20437  20484M 20732  20773M
             20793  20819  20833M 20833  20842  20843  20844  20876  20901M 20901  20910  20911  20974M 20994  21025M
             21041M 21061  21094  21106M 21112  21128M 21148  21194M 21322  21426M 21426  21435  21436  21478M 21478
             21487  21488  21716M 21751M 21773M 21817M 21852M 21874M 21969M 21969  21985M 22043M 22064M 22064  22103M
             22128M 22315  22392M 22418  22437M 22457  22513  22539  22558M 22578  22633  22652M 22685  22755M 22798
             22873M 22873  22879  22922  23012M 23140  23214M 23214  23223  23224  23289M 23320M 23369M 23419M 23443M
             23467M 23495M 23504M 23532M 23562M 23583  23642M 23642  23670M 23875  23978M 23998  24062M 24062  24071
             24072  24112M 24132  24196M 24196  24205  24206  24246M 24266  24334M 24334  24343  24344  24384M 24404
             24445M 24465  24509M 24529  24555  24573M 24604  24640  24679  24686  24702  24709  24725  24753  24781
             24827M 24828  24862M 24883M 24883  24940M 24975M 24975  25011M 25165  25211M 25233  25398  25436M 25436
             25445  25446  25488M 25488  25497  25498  25598M 25621M 25622M 25623  25675M 25833M 25833  25871M 25897M
             25923M 26026M 26078  26128M 26128  26129M 26130  26201M 26248M 26248  26262M 26268  26359M 26389  26390M
             26391  26413M 26426M 26490M 26503M 26537M 26575M 26602M 26620M 26667M 26749  26780M 26793M 26827M 26843M
             27277  27308M 27324M 27344  27390M 27417M 27417  27426  27427  27466M 27486  27513  27530M 27550  27597M
             27623M 27651M 27671  27718M 27744M 27768M 27788  27828M 27828  27837  27838  27877M 27897  27923  27938M
             27938  27974M 27995M 28015  28061M 28087M 28123M 28143  28200M 28220  28260M 28260  28269  28270  28309M
             28329  28355  28376M 28396  28428M 28428  28437  28438  28474M 28494  28520M 28520  28521  28542M 28562
             28608M 28628  28675M 28695  28721  28736M 28837  28900M 28900  28909  28910  28911  28938M 28938  28948
             28996M 29014M 29022M 29106M 29128M 29128  29146M 29177M 29177  29186  29187  29228M 29246M 29256M 29289M
             29311M 29311  29329M 29356M 29425  29452  29500M 29518M 29526M 29604M 29624  29670M 29694  29723  29749M
             29771M 29771  29789M 29817M 29823  29831M 29858M 29964  30069M 30069  30078  30079  30120M 30152M 30198M
             30198  30207  30208  30249M 30256M 30289M 30289  30298  30299  30340M 30347M 30378M 30509  30537  30549M
             30554  30555  30618M 30638  30666  30678M 30683  30684  30747M 30775  30807  30818  30821M 30847M 30865M
             30874M 30874  30941M 30973M 31059  31159M 31159  31168  31169  31211M 31211  31220  31221  31268M 31304M
             31324M 31362M 31362  31380M 31405M 31440M 31462M 31494M 31741  31767  31782M 31802  31862M 31891M 31911
             31957M 31977  32023M 32043  32096M 32116  32164  32193M 32213  32239  32254M 32274  32300  32315M 32344
             32402M 32402  32552  32584M 32601M 32610M 32614M 32634M 32650  32651  32782  32820M 32820  32829  32866M
             32866  32902  32940  32968  33055M 33072M 33079M 33102M 33115M 33147M 33147  33156  33191M 33308  33386M
             33386  33395  33396  33438M 33456M 33474M 33524M 33659M 33677M 33830M 33848M 33866M 33875M 34079  34085M
             34098M 34132M 34158M 34180M 34206M 34232M 34267M 34280M 34314M 34327M 34436M 34458M 34458  34480M 34515M
1         (EDIT2193) (12:43) (15MAR04) General Purpose Register Cross Reference                                             Page  172
             34553  34653M 34671M 34709M 34839  34903M 34934M 34955  35019M 35050M 35071  35141M 35162  35226M 35257M
             35285  35317M 35317  35326  35327  35365M 35385  35426M 35446  35472  35490M 35510  35536  35554M 35574
             35606M 35606  35615  35616  35654M
     1(1)      978U  2130   2193M  2194M  2200M  6780   6823M  6836N  6837N  6839N  6889M  6919M  6949M  6968M  6989M
              7028M  7098   7163M  7226   7284M  7297N  7298N  7300N  7352M  7352   7382M  7407   7513M  7567M  7567
              7597M  7622   7728M  7775M  7875   7921M  7941   7982M  8002   8048M  8165   8225M  8238N  8239N  8241N
              8303M  8321M  8339M  8358M  8383M  8402M  8423M  8757M  8797M  9046   9087M  9107   9183M  9217M  9237
              9288M  9308   9359M  9379   9455M  9489M  9509   9550M  9584M  9604   9663M  9683   9742M  9762   9821M
              9841   9900M  9957  10021M 10034N 10035N 10036N 10130M 10169M 10182N 10183N 10184N 10324M 10343M 10355M
             10356M 10356N 10400M 10416M 10429N 10430N 10432N 10586M 10761  10802M 10822  10863M 10883  10924M 10952M
             10972  11013M 11046  11083M 11096N 11097N 11098N 11192M 11228M 11241N 11242N 11244N 11284M 11317M 11403
             11451M 11595  11652M 11665N 11666N 11668N 11713M 11738M 11757M 11778M 11838M 11857M 11884M 11914M 11934M
             11981M 12028M 12049M 12083M 12104M 12142M 12191M 12226M 12256M 12446  12476M 12494M 12512M 12530M 12547M
             12567  12640M 12660  12733M 12753  12826M 12846  12919M 12939  13010M 13030  13076M 13096  13142M 13162
             13216M 13233M 13286  13340M 13340  13361M 13379M 13396M 13421  13524M 13677  13727M 13750  13846M 13859N
             13860N 13862N 13898M 13911N 13912N 13914N 14057M 14092M 14114M 14272M 14745  14791M 14811  14862M 14882
             14933M 14953  15010M 15030  15087M 15107  15153M 15173  15225M 15245  15291M 15311  15357M 15377  15482M
             15502  15549M 15569  15615M 15635  15681M 15701  15748M 15768  15814M 15834  15880M 15900  15981M 16001
             16047M 16067  16108M 16128  16165M 16193M 16213  16262M 16282  16312M 16330M 16359M 16474  16540  16547M
             16594  16679M 16720M 16741M 16766M 16791M 16816M 16895M 16969M 16994M 17157M 17178M 17203M 17228M 17253M
             17494M 17526  17553  17587M 17617M 17669M 17697M 17716M 17784  17810  17875M 17920M 17957M 17973M 18007M
             18040M 18087M 18143  18170  18208M 18236M 18273M 18311M 18355M 18406  18450M 18463N 18464N 18466N 18495M
             18516M 18626  18663M 18664  18699M 18713M 18724  18767M 18796  18867M 18956M 19020  19096M 19109N 19110N
             19112N 19152M 19163M 19176N 19177N 19178N 19199M 19200M 19200N 19283M 19296N 19297N 19299N 19339M 19350M
             19363N 19364N 19366N 19457M 19508M 19531M 19532  19539M 19626M 19698M 19761M 19767M 19777M 19818M 19828U
             19858U 19863M 19872M 19885M 19972M 20019M 20072M 20094M 20159M 20164M 20220M 20354M 20376M 20395M 20408N
             20409N 20410N 20484M 20732  20773M 20793  20829M 20842N 20843N 20844N 20897M 20910N 20911N 20913N 20974M
             20994  21024M 21041M 21061  21105M 21128M 21148  21194M 21322  21422M 21435N 21436N 21438N 21474M 21487N
             21488N 21490N 21717M 21752M 21774M 21818M 21853M 21875M 21965M 21984M 22036M 22071M 22102M 22128M 22315
             22391M 22437M 22457  22558M 22578  22652M 22685  22755M 22798  22916M 22953  22985M 23012M 23140  23210M
             23223N 23224N 23226N 23288M 23321M 23368M 23418M 23442M 23466M 23494M 23503M 23531M 23562M 23583  23638M
             23670M 23875  23978M 23998  24058M 24071N 24072N 24074N 24112M 24132  24192M 24205N 24206N 24208N 24246M
             24266  24330M 24343N 24344N 24346N 24384M 24404  24445M 24465  24509M 24529  24573M 24604  24861M 24890M
             24939M 25011M 25165  25211M 25233  25399  25432M 25445N 25446N 25448N 25484M 25497N 25498N 25500N 25597M
             25674M 25681M 25732M 25732  25816M 25872M 25898M 25924M 25935M 25937M 25938  25947M 25947  26026M 26078
             26121  26202M 26214M 26224M 26263M 26337M 26338M 26344  26360M 26412M 26489M 26536M 26574M 26601M 26619M
             26667M 26749  26779M 26826M 26843M 27277  27307M 27324M 27344  27389M 27413M 27426N 27427N 27429N 27466M
             27486  27514  27530M 27550  27596M 27622M 27651M 27671  27717M 27743M 27768M 27788  27824M 27837N 27838N
             27840N 27877M 27897  27973M 27995M 28015  28060M 28086M 28123M 28143  28200M 28220  28256M 28269N 28270N
             28272N 28309M 28329  28376M 28396  28424M 28437N 28438N 28440N 28474M 28494  28542M 28562  28608M 28628
             28675M 28695  28736M 28837  28896M 28909N 28910N 28911N 28947  28995M 29013M 29105M 29124M 29145M 29173M
             29186N 29187N 29189N 29227M 29245M 29257M 29288M 29307M 29328M 29356M 29425  29451  29499M 29517M 29604M
             29624  29670M 29694  29723  29748M 29767M 29788M 29818M 29831M 29858M 29964  30065M 30078N 30079N 30081N
             30119M 30153M 30194M 30207N 30208N 30210N 30248M 30257M 30285M 30298N 30299N 30301N 30339M 30348M 30378M
             30509  30618M 30638  30747M 30775  30806  30818  30820M 30847M 30860M 30936M 30973M 31059  31155M 31168N
             31169N 31171N 31207M 31220N 31221N 31223N 31267M 31303M 31323M 31358M 31379M 31406M 31441M 31463M 31494M
             31741  31782M 31802  31861M 31891M 31911  31957M 31977  32023M 32043  32096M 32116  32193M 32213  32254M
             32274  32315M 32344  32390  32425  32552  32591M 32610M 32612M 32632M 32650  32774M 32781  32816M 32829N
             33062M 33079M 33101M 33143M 33156N 33191M 33308  33382M 33395N 33396N 33398N 33437M 33455M 33473M 33525M
             33658M 33676M 33829M 33847M 33865M 33876M 34084M 34131M 34157M 34179M 34205M 34231M 34266M 34313M 34435M
             34454M 34479M 34515M 34553  34652M 34670M 34709M 34839  34902M 34934M 34955  35018M 35050M 35071  35141M
             35162  35225M 35257M 35285  35313M 35326N 35327N 35329N 35365M 35385  35426M 35446  35490M 35510  35554M
             35574  35602M 35615N 35616N 35618N 35654M
     2(2)      974U  2130   6780   7028M  7098   7163M  7226   7407   7622   7775M  7875   7921M  7941   7982M  8002
              8048M  8165   8797M  9046   9087M  9107   9217M  9237   9288M  9308   9359M  9379   9489M  9509   9584M
              9604   9663M  9683   9742M  9762   9821M  9841   9900M  9957  10586M 10761  10802M 10822  10863M 10883
             10952M 10972  11013M 11046  11317M 11403  11451M 11595  11786M 11796U 11997U 12256M 12446  12547M 12567
             12640M 12660  12733M 12753  12826M 12846  12919M 12939  13010M 13030  13076M 13096  13142M 13162  13233M
             13286  13421  13524M 13677  13727M 13750  14272M 14745  14791M 14811  14862M 14882  14933M 14953  15010M
1         (EDIT2193) (12:43) (15MAR04) General Purpose Register Cross Reference                                             Page  173
             15030  15087M 15107  15153M 15173  15225M 15245  15291M 15311  15357M 15377  15482M 15502  15549M 15569
             15615M 15635  15681M 15701  15748M 15768  15814M 15834  15880M 15900  15981M 16001  16047M 16067  16108M
             16128  16193M 16213  16262M 16282  16359M 16474  17494M 17526  17716M 17784  18087M 18143  18355M 18406
             18516M 18626  18724M 18725M 18794M 18794  18856M 18928M 18928  18956M 19020  19435M 19446  19608M 19609M
             19611  19730M 19732  19759M 19761  19776M 20484M 20732  20773M 20793  20974M 20994  21041M 21061  21128M
             21148  21194M 21322  21892M 21903M 21903  21965  22128M 22315  22437M 22457  22558M 22578  22652M 22685
             22730M 22731M 22732  22755M 22798  22847M 22848M 22849  22879M 22882M 22884  22901  23012M 23140  23420M
             23444M 23468M 23496M 23505M 23533M 23562M 23583  23638  23670M 23875  23978M 23998  24112M 24132  24246M
             24266  24384M 24404  24445M 24465  24509M 24529  24573M 24604  25011M 25165  25211M 25233  26026M 26078
             26149M 26182  26212  26213  26262  26307M 26308M 26310  26333  26335  26357  26361M 26367  26370M 26667M
             26749  26843M 27277  27324M 27344  27466M 27486  27530M 27550  27651M 27671  27768M 27788  27877M 27897
             27995M 28015  28123M 28143  28200M 28220  28309M 28329  28376M 28396  28474M 28494  28542M 28562  28608M
             28628  28675M 28695  28736M 28837  29356M 29425  29604M 29624  29670M 29694  29858M 29964  30378M 30509
             30618M 30638  30747M 30775  30880M 30942M 30973M 31059  31284M 31494M 31741  31782M 31802  31891M 31911
             31957M 31977  32023M 32043  32096M 32116  32193M 32213  32254M 32274  32315M 32344  32615M 33080M 33191M
             33308  33878M 33890M 33890  33929M 33930M 33930  33943M 33980  34079M 34098  34237M 34365M 34365  34382
             34402  34422  34454  34515M 34553  34709M 34839  34934M 34955  35050M 35071  35141M 35162  35257M 35285
             35365M 35385  35426M 35446  35490M 35510  35554M 35574  35654M
     3(3)      970U  2130   6780   7028M  7098   7163M  7226   7407   7416M  7426U  7513   7529U  7622   7631M  7641U
              7728   7744U  7775M  7875   7921M  7941   7982M  8002   8048M  8165   8797M  9046   9087M  9107   9217M
              9237   9288M  9308   9359M  9379   9489M  9509   9584M  9604   9663M  9683   9742M  9762   9821M  9841
              9900M  9957  10586M 10761  10802M 10822  10863M 10883  10952M 10972  11013M 11046  11317M 11403  11451M
             11595  12256M 12446  12547M 12567  12640M 12660  12733M 12753  12826M 12846  12919M 12939  13010M 13030
             13076M 13096  13142M 13162  13233M 13286  13421  13430M 13440U 13489U 13524M 13677  13727M 13750  14272M
             14745  14791M 14811  14862M 14882  14933M 14953  15010M 15030  15087M 15107  15153M 15173  15225M 15245
             15291M 15311  15357M 15377  15482M 15502  15549M 15569  15615M 15635  15681M 15701  15748M 15768  15814M
             15834  15880M 15900  15981M 16001  16047M 16067  16108M 16128  16193M 16213  16262M 16282  16359M 16474
             16593M 16655M 16655  16999  17494M 17526  17716M 17784  18087M 18143  18355M 18406  18516M 18626  18956M
             19020  19085M 19093  19436M 19446  19480  19497  20449M 20484M 20732  20773M 20793  20974M 20994  21041M
             21061  21128M 21148  21194M 21322  22128M 22315  22437M 22457  22558M 22578  22652M 22685  22755M 22798
             23012M 23140  23264M 23266M 23278  23562M 23583  23670M 23875  23978M 23998  24093  24112M 24132  24227
             24246M 24266  24365  24384M 24404  24445M 24465  24491M 24493  24509M 24529  24555M 24557  24573M 24604
             24640M 24879  25011M 25165  25211M 25233  26026M 26078  26130M 26131M 26133  26357  26362M 26370M 26667M
             26749  26843M 27277  27324M 27344  27403M 27466M 27486  27512  27530M 27550  27651M 27671  27768M 27788
             27814M 27877M 27897  27953  27995M 28015  28123M 28143  28200M 28220  28246M 28309M 28329  28356  28376M
             28396  28474M 28494  28522  28542M 28562  28608M 28628  28675M 28695  28736M 28837  29356M 29425  29604M
             29624  29670M 29694  29858M 29964  30378M 30509  30618M 30638  30747M 30775  30881M 30899  30943M 30973M
             31059  31494M 31741  31782M 31802  31891M 31911  31957M 31977  32023M 32043  32096M 32116  32193M 32213
             32254M 32274  32315M 32344  33191M 33308  33879M 33901M 33901  33950M 33951M 33951  33980M 34515M 34553
             34709M 34839  34892M 34892  34910  34934M 34955  35008M 35008  35026  35050M 35071  35117  35141M 35162
             35215M 35215  35233  35257M 35285  35349  35365M 35385  35426M 35446  35472M 35474  35490M 35510  35536M
             35538  35554M 35574  35638  35654M
     4(4)      966U  2130   6780   7028M  7098   7163M  7226   7340M  7340   7353   7373M  7407   7441   7504   7552M
              7555M  7568   7588M  7622   7656   7719   7775M  7875   7921M  7941   7982M  8002   8048M  8165   8442M
              8452U  8772U  8797M  9046   9087M  9107   9217M  9237   9288M  9308   9359M  9379   9489M  9509   9584M
              9604   9663M  9683   9742M  9762   9821M  9841   9900M  9957  10586M 10761  10802M 10822  10863M 10883
             10952M 10972  11013M 11046  11317M 11403  11451M 11595  12256M 12446  12547M 12567  12640M 12660  12733M
             12753  12826M 12846  12919M 12939  13010M 13030  13076M 13096  13142M 13162  13233M 13286  13330M 13333M
             13341  13387M 13421  13494  13524M 13677  13727M 13750  14272M 14745  14791M 14811  14862M 14882  14933M
             14953  15010M 15030  15087M 15107  15153M 15173  15225M 15245  15291M 15311  15357M 15377  15482M 15502
             15549M 15569  15615M 15635  15681M 15701  15748M 15768  15814M 15834  15880M 15900  15981M 16001  16047M
             16067  16108M 16128  16193M 16213  16262M 16282  16359M 16474  16594M 16994  17494M 17526  17716M 17784
             18087M 18143  18355M 18406  18516M 18626  18956M 19020  19086M 19280  20450M 20484M 20732  20773M 20793
             20974M 20994  21041M 21061  21128M 21148  21194M 21322  22128M 22315  22437M 22457  22558M 22578  22652M
             22685  22755M 22798  22923M 22924  22928M 22946  23012M 23140  23562M 23583  23670M 23875  23978M 23998
             24112M 24132  24246M 24266  24384M 24404  24445M 24465  24509M 24529  24573M 24604  25011M 25165  25211M
             25233  26026M 26078  26667M 26749  26843M 27277  27324M 27344  27466M 27486  27530M 27550  27651M 27671
             27768M 27788  27877M 27897  27995M 28015  28123M 28143  28200M 28220  28309M 28329  28376M 28396  28474M
             28494  28542M 28562  28608M 28628  28675M 28695  28736M 28837  29356M 29425  29604M 29624  29670M 29694
1         (EDIT2193) (12:43) (15MAR04) General Purpose Register Cross Reference                                             Page  174
             29858M 29964  30378M 30509  30618M 30638  30747M 30775  30973M 31059  31494M 31741  31782M 31802  31891M
             31911  31957M 31977  32023M 32043  32096M 32116  32193M 32213  32254M 32274  32315M 32344  32390M 32426
             33191M 33308  34515M 34553  34709M 34839  34934M 34955  35050M 35071  35141M 35162  35257M 35285  35365M
             35385  35426M 35446  35490M 35510  35554M 35574  35654M
     5(5)      962U  2130   6780   6820M  6820   6867M  6867   6874M  6880   6910   6968   7028M  7098   7132M  7132
              7146M  7148   7163M  7226   7407   7622   7775M  7875   7921M  7941   7982M  8002   8048M  8165   8797M
              9046   9087M  9107   9217M  9237   9288M  9308   9359M  9379   9489M  9509   9584M  9604   9663M  9683
              9742M  9762   9821M  9841   9900M  9957  10586M 10761  10802M 10822  10863M 10883  10952M 10972  11013M
             11046  11317M 11403  11451M 11595  12256M 12446  12547M 12567  12640M 12660  12733M 12753  12826M 12846
             12919M 12939  13010M 13030  13076M 13096  13142M 13162  13233M 13286  13421  13524M 13677  13727M 13750
             14272M 14745  14791M 14811  14862M 14882  14933M 14953  15010M 15030  15087M 15107  15153M 15173  15225M
             15245  15291M 15311  15357M 15377  15482M 15502  15549M 15569  15615M 15635  15681M 15701  15748M 15768
             15814M 15834  15880M 15900  15981M 16001  16047M 16067  16108M 16128  16193M 16213  16262M 16282  16359M
             16474  16540M 17494M 17526  17716M 17784  18087M 18143  18355M 18406  18516M 18626  18669M 18669  18688M
             18777M 18777  18784  18956M 19020  19092M 19279M 19538M 19903M 19903  19937M 19937  20077  20150M 20150
             20181M 20181  20219M 20219  20384M 20484M 20732  20773M 20793  20974M 20994  21041M 21061  21128M 21148
             21194M 21322  22128M 22315  22437M 22457  22558M 22578  22652M 22685  22755M 22798  22922M 22924M 22927M
             22939M 22939  22987M 23012M 23140  23562M 23583  23670M 23875  23978M 23998  24112M 24132  24246M 24266
             24384M 24404  24445M 24465  24509M 24529  24573M 24604  25011M 25165  25211M 25233  26026M 26078  26124M
             26201  26202  26667M 26749  26843M 27277  27324M 27344  27466M 27486  27530M 27550  27651M 27671  27768M
             27788  27877M 27897  27995M 28015  28123M 28143  28200M 28220  28309M 28329  28376M 28396  28474M 28494
             28542M 28562  28608M 28628  28675M 28695  28736M 28837  29356M 29425  29604M 29624  29670M 29694  29796M
             29839  29858M 29964  30378M 30509  30618M 30638  30747M 30775  30973M 31059  31494M 31741  31782M 31802
             31891M 31911  31957M 31977  32023M 32043  32096M 32116  32193M 32213  32254M 32274  32315M 32344  33191M
             33308  34515M 34553  34709M 34839  34934M 34955  35050M 35071  35141M 35162  35257M 35285  35365M 35385
             35426M 35446  35490M 35510  35554M 35574  35654M
     6(6)      958U  2130   6780   7028M  7098   7163M  7226   7262M  7270U  7407   7622   7775M  7875   7921M  7941
              7982M  8002   8048M  8060U  8165   8201M  8209U  8797M  9046   9087M  9107   9217M  9237   9288M  9308
              9359M  9379   9489M  9509   9584M  9604   9663M  9683   9742M  9762   9821M  9841   9900M  9912U  9957
              9993M 10001U 10586M 10761  10802M 10822  10863M 10883  10952M 10972  11013M 11025U 11046  11317M 11403
             11451M 11595  11631M 11639U 12256M 12446  12547M 12567  12640M 12660  12733M 12753  12826M 12846  12919M
             12939  13010M 13030  13076M 13096  13142M 13162  13233M 13245U 13286  13421  13524M 13677  13727M 13750
             13786M 13794U 13804  14272M 14745  14791M 14811  14862M 14882  14933M 14953  15010M 15030  15087M 15107
             15153M 15173  15225M 15245  15291M 15311  15357M 15377  15482M 15502  15549M 15569  15615M 15635  15681M
             15701  15748M 15768  15814M 15834  15880M 15900  15981M 16001  16047M 16067  16108M 16128  16193M 16213
             16262M 16282  16359M 16371U 16474  16511M 16519U 17494M 17526  17716M 17784  18087M 18143  18355M 18385U
             18406  18516M 18626  18664M 18713  18767  18956M 19020  19056M 19064U 20484M 20732  20773M 20793  20974M
             20994  21041M 21061  21128M 21148  21194M 21205U 21322  21358M 21366U 21368  22128M 22315  22437M 22457
             22558M 22578  22652M 22663U 22685  22711M 22721U 22739U 22755M 22798  22834M 22842U 23012M 23023U 23140
             23176M 23184U 23193  23562M 23583  23670M 23875  23978M 23998  24112M 24132  24246M 24266  24384M 24404
             24445M 24465  24509M 24529  24573M 24584U 24604  24630M 24638U 25011M 25022U 25165  25211M 25233  25269M
             25277U 25279  26026M 26078  26123M 26667M 26749  26843M 27277  27324M 27344  27466M 27486  27530M 27550
             27651M 27671  27768M 27788  27877M 27897  27995M 28015  28123M 28143  28200M 28220  28309M 28329  28376M
             28396  28474M 28494  28542M 28562  28608M 28628  28675M 28695  28736M 28747U 28837  28873M 28881U 28883
             29356M 29425  29604M 29624  29670M 29694  29720M 29858M 29869U 29964  30000M 30008U 30010  30378M 30509
             30618M 30638  30747M 30775  30801M 30973M 31059  31095M 31103U 31106U 31108  31494M 31741  31782M 31802
             31891M 31911  31957M 31977  32023M 32043  32096M 32116  32193M 32213  32254M 32274  32315M 32344  32370M
             33191M 33308  33344M 33352U 33355U 33357  34515M 34526U 34553  34579M 34589U 34696U 34709M 34839  34865M
             34875U 34921U 34934M 34955  34981M 34991U 35037U 35050M 35071  35097M 35107U 35128U 35141M 35162  35188M
             35198U 35244U 35257M 35285  35365M 35385  35426M 35446  35490M 35510  35554M 35574  35654M
     7(7)      954U  2123M  2123   2124B  2130   2136B  6780   6786M  6798U  7020U  7028M  7098   7103M  7115U  7155U
              7163M  7226   7232M  7244U  7407   7622   7767U  7775M  7875   7880M  7892U  7913U  7921M  7941   7946M
              7958U  7974U  7982M  8002   8007M  8019U  8040U  8048M  8165   8171M  8183U  8789U  8797M  9046   9051M
              9063U  9079U  9087M  9107   9112M  9124U  9209U  9217M  9237   9242M  9254U  9280U  9288M  9308   9313M
              9325U  9351U  9359M  9379   9384M  9396U  9481U  9489M  9509   9514M  9526U  9576U  9584M  9604   9609M
              9621U  9655U  9663M  9683   9688M  9700U  9734U  9742M  9762   9767M  9779U  9813U  9821M  9841   9846M
              9858U  9892U  9900M  9957   9963M  9975U 10578U 10586M 10761  10766M 10778U 10794U 10802M 10822  10827M
             10839U 10855U 10863M 10883  10888M 10900U 10944U 10952M 10972  10977M 10989U 11005U 11013M 11046  11051M
             11063U 11309U 11317M 11403  11408M 11420U 11443U 11451M 11595  11601M 11613U 12248U 12256M 12446  12451M
1         (EDIT2193) (12:43) (15MAR04) General Purpose Register Cross Reference                                             Page  175
             12463U 12539U 12547M 12567  12572M 12584U 12632U 12640M 12660  12665M 12677U 12725U 12733M 12753  12758M
             12770U 12818U 12826M 12846  12851M 12863U 12911U 12919M 12939  12944M 12956U 13002U 13010M 13030  13035M
             13047U 13068U 13076M 13096  13101M 13113U 13134U 13142M 13162  13167M 13179U 13225U 13233M 13286  13292M
             13304U 13421  13516U 13524M 13677  13682M 13694U 13719U 13727M 13750  13756M 13768U 14264U 14272M 14745
             14750M 14762U 14783U 14791M 14811  14816M 14828U 14854U 14862M 14882  14887M 14899U 14925U 14933M 14953
             14958M 14970U 15002U 15010M 15030  15035M 15047U 15079U 15087M 15107  15112M 15124U 15145U 15153M 15173
             15178M 15190U 15217U 15225M 15245  15250M 15262U 15283U 15291M 15311  15316M 15328U 15349U 15357M 15377
             15382M 15394U 15474U 15482M 15502  15507M 15519U 15541U 15549M 15569  15574M 15586U 15607U 15615M 15635
             15640M 15652U 15673U 15681M 15701  15706M 15718U 15740U 15748M 15768  15773M 15785U 15806U 15814M 15834
             15839M 15851U 15872U 15880M 15900  15905M 15917U 15973U 15981M 16001  16006M 16018U 16039U 16047M 16067
             16072M 16084U 16100U 16108M 16128  16133M 16145U 16185U 16193M 16213  16218M 16230U 16254U 16262M 16282
             16287M 16299U 16351U 16359M 16474  16480M 16492U 17486U 17494M 17526  17531M 17543U 17708U 17716M 17784
             17789M 17801U 18079U 18087M 18143  18148M 18160U 18347U 18355M 18406  18411M 18423U 18508U 18516M 18626
             18632M 18644U 18948U 18956M 19020  19026M 19038U 20476U 20484M 20732  20737M 20749U 20765U 20773M 20793
             20798M 20810U 20966U 20974M 20994  20999M 21011U 21033U 21041M 21061  21066M 21078U 21120U 21128M 21148
             21153M 21165U 21186U 21194M 21322  21328M 21340U 22120U 22128M 22315  22320M 22332U 22429U 22437M 22457
             22462M 22474U 22550U 22558M 22578  22583M 22595U 22644U 22652M 22685  22690M 22702U 22747U 22755M 22798
             22804M 22816U 23004U 23012M 23140  23146M 23158U 23554U 23562M 23583  23588M 23600U 23662U 23670M 23875
             23880M 23892U 23970U 23978M 23998  24003M 24015U 24104U 24112M 24132  24137M 24149U 24238U 24246M 24266
             24271M 24283U 24376U 24384M 24404  24409M 24421U 24437U 24445M 24465  24470M 24482U 24501U 24509M 24529
             24534M 24546U 24565U 24573M 24604  24609M 24621U 25003U 25011M 25165  25170M 25182U 25203U 25211M 25233
             25239M 25251U 26018U 26026M 26078  26084M 26096U 26659U 26667M 26749  26754M 26766U 26835U 26843M 27277
             27282M 27294U 27316U 27324M 27344  27349M 27361U 27458U 27466M 27486  27491M 27503U 27522U 27530M 27550
             27555M 27567U 27643U 27651M 27671  27676M 27688U 27760U 27768M 27788  27793M 27805U 27869U 27877M 27897
             27902M 27914U 27987U 27995M 28015  28020M 28032U 28115U 28123M 28143  28148M 28160U 28192U 28200M 28220
             28225M 28237U 28301U 28309M 28329  28334M 28346U 28368U 28376M 28396  28401M 28413U 28466U 28474M 28494
             28499M 28511U 28534U 28542M 28562  28567M 28579U 28600U 28608M 28628  28633M 28645U 28667U 28675M 28695
             28700M 28712U 28728U 28736M 28837  28843M 28855U 29348U 29356M 29425  29430M 29442U 29596U 29604M 29624
             29629M 29641U 29662U 29670M 29694  29699M 29711U 29850U 29858M 29964  29970M 29982U 30370U 30378M 30509
             30514M 30526U 30610U 30618M 30638  30643M 30655U 30739U 30747M 30775  30780M 30792U 30965U 30973M 31059
             31065M 31077U 31486U 31494M 31741  31746M 31758U 31774U 31782M 31802  31807M 31819U 31883U 31891M 31911
             31916M 31928U 31949U 31957M 31977  31982M 31994U 32015U 32023M 32043  32048M 32060U 32088U 32096M 32116
             32121M 32133U 32185U 32193M 32213  32218M 32230U 32246U 32254M 32274  32279M 32291U 32307U 32315M 32344
             32349M 32361U 33183U 33191M 33308  33314M 33326U 34507U 34515M 34553  34558M 34570U 34701U 34709M 34839
             34844M 34856U 34926U 34934M 34955  34960M 34972U 35042U 35050M 35071  35076M 35088U 35133U 35141M 35162
             35167M 35179U 35249U 35257M 35285  35290M 35302U 35357U 35365M 35385  35390M 35402U 35418U 35426M 35446
             35451M 35463U 35482U 35490M 35510  35515M 35527U 35546U 35554M 35574  35579M 35591U 35646U 35654M
     8(8)      950U  2130   6780   6782M  6812U  7015U  7024   7028M  7098   7099M  7148N  7159   7163M  7226   7228M
              7258U  7407   7622   7762U  7771   7775M  7875   7876M  7917   7921M  7941   7942M  7978   7982M  8002
              8003M  8044   8048M  8165   8167M  8197U  8784U  8793   8797M  9046   9047M  9083   9087M  9107   9108M
              9213   9217M  9237   9238M  9284   9288M  9308   9309M  9355   9359M  9379   9380M  9485   9489M  9509
              9510M  9580   9584M  9604   9605M  9659   9663M  9683   9684M  9738   9742M  9762   9763M  9817   9821M
              9841   9842M  9896   9900M  9957   9959M  9989U 10573U 10582  10586M 10761  10762M 10798  10802M 10822
             10823M 10859  10863M 10883  10884M 10948  10952M 10972  10973M 11009  11013M 11046  11047M 11313  11317M
             11403  11404M 11447  11451M 11595  11597M 11627U 12243U 12252  12256M 12446  12447M 12543  12547M 12567
             12568M 12636  12640M 12660  12661M 12729  12733M 12753  12754M 12822  12826M 12846  12847M 12915  12919M
             12939  12940M 13006  13010M 13030  13031M 13072  13076M 13096  13097M 13138  13142M 13162  13163M 13229
             13233M 13286  13288M 13318U 13421  13511U 13520  13524M 13677  13678M 13723  13727M 13750  13752M 13782U
             14259U 14268  14272M 14745  14746M 14787  14791M 14811  14812M 14858  14862M 14882  14883M 14929  14933M
             14953  14954M 15006  15010M 15030  15031M 15083  15087M 15107  15108M 15149  15153M 15173  15174M 15221
             15225M 15245  15246M 15287  15291M 15311  15312M 15353  15357M 15377  15378M 15478  15482M 15502  15503M
             15545  15549M 15569  15570M 15611  15615M 15635  15636M 15677  15681M 15701  15702M 15744  15748M 15768
             15769M 15810  15814M 15834  15835M 15876  15880M 15900  15901M 15977  15981M 16001  16002M 16043  16047M
             16067  16068M 16104  16108M 16128  16129M 16189  16193M 16213  16214M 16258  16262M 16282  16283M 16355
             16359M 16474  16476M 16506U 17481U 17490  17494M 17526  17527M 17712  17716M 17784  17785M 18083  18087M
             18143  18144M 18351  18355M 18406  18407M 18512  18516M 18626  18628M 18658U 18943U 18952  18956M 19020
             19022M 19052U 20471U 20480  20484M 20732  20733M 20769  20773M 20793  20794M 20970  20974M 20994  20995M
             21037  21041M 21061  21062M 21124  21128M 21148  21149M 21190  21194M 21322  21324M 21354U 22115U 22124
             22128M 22315  22316M 22433  22437M 22457  22458M 22554  22558M 22578  22579M 22648  22652M 22685  22686M
1         (EDIT2193) (12:43) (15MAR04) General Purpose Register Cross Reference                                             Page  176
             22751  22755M 22798  22800M 22830U 22999U 23008  23012M 23140  23142M 23172U 23549U 23558  23562M 23583
             23584M 23666  23670M 23875  23876M 23974  23978M 23998  23999M 24108  24112M 24132  24133M 24242  24246M
             24266  24267M 24380  24384M 24404  24405M 24441  24445M 24465  24466M 24493N 24505  24509M 24529  24530M
             24557N 24569  24573M 24604  24605M 25007  25011M 25165  25166M 25207  25211M 25233  25235M 25265U 26013U
             26022  26026M 26078  26080M 26110U 26654U 26663  26667M 26749  26750M 26839  26843M 27277  27278M 27320
             27324M 27344  27345M 27462  27466M 27486  27487M 27526  27530M 27550  27551M 27647  27651M 27671  27672M
             27764  27768M 27788  27789M 27873  27877M 27897  27898M 27991  27995M 28015  28016M 28119  28123M 28143
             28144M 28196  28200M 28220  28221M 28305  28309M 28329  28330M 28372  28376M 28396  28397M 28470  28474M
             28494  28495M 28538  28542M 28562  28563M 28604  28608M 28628  28629M 28671  28675M 28695  28696M 28732
             28736M 28837  28839M 28869U 29343U 29352  29356M 29425  29426M 29600  29604M 29624  29625M 29666  29670M
             29694  29695M 29854  29858M 29964  29966M 29996U 30365U 30374  30378M 30509  30510M 30614  30618M 30638
             30639M 30743  30747M 30775  30776M 30969  30973M 31059  31061M 31091U 31481U 31490  31494M 31741  31742M
             31778  31782M 31802  31803M 31887  31891M 31911  31912M 31953  31957M 31977  31978M 32019  32023M 32043
             32044M 32092  32096M 32116  32117M 32189  32193M 32213  32214M 32250  32254M 32274  32275M 32311  32315M
             32344  32345M 33187  33191M 33308  33310M 33340U 34502U 34511  34515M 34553  34554M 34705  34709M 34839
             34840M 34930  34934M 34955  34956M 35046  35050M 35071  35072M 35137  35141M 35162  35163M 35253  35257M
             35285  35286M 35349N 35361  35365M 35385  35386M 35422  35426M 35446  35447M 35474N 35486  35490M 35510
             35511M 35538N 35550  35554M 35574  35575M 35638N 35650  35654M
     9(9)      946U  2130   7407   7622  13421
    10(A)      942U  2130   7407   7622  13421
    11(B)      938U  1194U  2130   7407   7622  13421
    12(C)      934U  1203U  2130   7407   7622  13421
    13(D)      930U  2130   6777   6780   6782   6783M  6783   6831   6832   6833   6835M  6835   6848M  6849   6850
              6851   7024M  7028   7030   7095   7098   7099   7100M  7100   7159M  7163   7165   7223   7226   7228
              7229M  7229   7292   7293   7294   7296M  7296   7309M  7310   7311   7312   7407   7622   7771M  7775
              7777   7872   7875   7876   7877M  7877   7917M  7921   7923   7938   7941   7942   7943M  7943   7978M
              7982   7984   7999   8002   8003   8004M  8004   8044M  8048   8050   8162   8165   8167   8168M  8168
              8233   8234   8235   8237M  8237   8250M  8251   8252   8253   8793M  8797   8799   9043   9046   9047
              9048M  9048   9083M  9087   9089   9104   9107   9108   9109M  9109   9213M  9217   9219   9234   9237
              9238   9239M  9239   9284M  9288   9290   9305   9308   9309   9310M  9310   9355M  9359   9361   9376
              9379   9380   9381M  9381   9485M  9489   9491   9506   9509   9510   9511M  9511   9580M  9584   9586
              9601   9604   9605   9606M  9606   9659M  9663   9665   9680   9683   9684   9685M  9685   9738M  9742
              9744   9759   9762   9763   9764M  9764   9817M  9821   9823   9838   9841   9842   9843M  9843   9896M
              9900   9902   9954   9957   9959   9960M  9960  10016  10018M 10018  10029  10030  10031  10033M 10033
             10045M 10046  10047  10048  10124M 10161M 10177  10178  10179  10181M 10181  10193M 10194  10195  10196
             10424  10425  10426  10428M 10428  10441M 10442  10443  10444  10582M 10586  10588  10758  10761  10762
             10763M 10763  10798M 10802  10804  10819  10822  10823  10824M 10824  10859M 10863  10865  10880  10883
             10884  10885M 10885  10948M 10952  10954  10969  10972  10973  10974M 10974  11009M 11013  11015  11043
             11046  11047  11048M 11048  11078  11080M 11080  11091  11092  11093  11095M 11095  11107M 11108  11109
             11110  11186M 11223M 11236  11237  11238  11240M 11240  11253M 11254  11255  11256  11313M 11317  11319
             11400  11403  11404  11405M 11405  11447M 11451  11453  11592  11595  11597  11598M 11598  11660  11661
             11662  11664M 11664  11677M 11678  11679  11680  12252M 12256  12258  12443  12446  12447  12448M 12448
             12543M 12547  12549  12564  12567  12568  12569M 12569  12636M 12640  12642  12657  12660  12661  12662M
             12662  12729M 12733  12735  12750  12753  12754  12755M 12755  12822M 12826  12828  12843  12846  12847
             12848M 12848  12915M 12919  12921  12936  12939  12940  12941M 12941  13006M 13010  13012  13027  13030
             13031  13032M 13032  13072M 13076  13078  13093  13096  13097  13098M 13098  13138M 13142  13144  13159
             13162  13163  13164M 13164  13229M 13233  13235  13283  13286  13288  13289M 13289  13421  13520M 13524
             13526  13674  13677  13678  13679M 13679  13723M 13727  13729  13747  13750  13752  13753M 13753  13854
             13855  13856  13858M 13858  13871M 13872  13873  13874  13906  13907  13908  13910M 13910  13923M 13924
             13925  13926  14268M 14272  14274  14742  14745  14746  14747M 14747  14787M 14791  14793  14808  14811
             14812  14813M 14813  14858M 14862  14864  14879  14882  14883  14884M 14884  14929M 14933  14935  14950
             14953  14954  14955M 14955  15006M 15010  15012  15027  15030  15031  15032M 15032  15083M 15087  15089
             15104  15107  15108  15109M 15109  15149M 15153  15155  15170  15173  15174  15175M 15175  15221M 15225
             15227  15242  15245  15246  15247M 15247  15287M 15291  15293  15308  15311  15312  15313M 15313  15353M
             15357  15359  15374  15377  15378  15379M 15379  15478M 15482  15484  15499  15502  15503  15504M 15504
             15545M 15549  15551  15566  15569  15570  15571M 15571  15611M 15615  15617  15632  15635  15636  15637M
             15637  15677M 15681  15683  15698  15701  15702  15703M 15703  15744M 15748  15750  15765  15768  15769
             15770M 15770  15810M 15814  15816  15831  15834  15835  15836M 15836  15876M 15880  15882  15897  15900
             15901  15902M 15902  15977M 15981  15983  15998  16001  16002  16003M 16003  16043M 16047  16049  16064
1         (EDIT2193) (12:43) (15MAR04) General Purpose Register Cross Reference                                             Page  177
             16067  16068  16069M 16069  16104M 16108  16110  16125  16128  16129  16130M 16130  16189M 16193  16195
             16210  16213  16214  16215M 16215  16258M 16262  16264  16279  16282  16283  16284M 16284  16355M 16359
             16361  16471  16474  16476  16477M 16477  17490M 17494  17496  17523  17526  17527  17528M 17528  17553
             17554M 17554  17696M 17697  17712M 17716  17718  17781  17784  17785  17786M 17786  18083M 18087  18089
             18140  18143  18144  18145M 18145  18170  18171M 18171  18310M 18311  18351M 18355  18357  18403  18406
             18407  18408M 18408  18458  18459  18460  18462M 18462  18475M 18476  18477  18478  18512M 18516  18518
             18623  18626  18628  18629M 18629  18796  18797M 18797  18866M 18867  18952M 18956  18958  19017  19020
             19022  19023M 19023  19104  19105  19106  19108M 19108  19121M 19122  19123  19124  19171  19172  19173
             19175M 19175  19187M 19188  19189  19190  19291  19292  19293  19295M 19295  19308M 19309  19310  19311
             19358  19359  19360  19362M 19362  19375M 19376  19377  19378  19759  19760M 19760  19767  19768M 19768
             19775M 20390  20392M 20392  20403  20404  20405  20407M 20407  20419M 20420  20421  20422  20447M 20480M
             20484  20486  20729  20732  20733  20734M 20734  20769M 20773  20775  20790  20793  20794  20795M 20795
             20824  20826M 20826  20837  20838  20839  20841M 20841  20853M 20854  20855  20856  20905  20906  20907
             20909M 20909  20922M 20923  20924  20925  20953M 20970M 20974  20976  20991  20994  20995  20996M 20996
             21037M 21041  21043  21058  21061  21062  21063M 21063  21124M 21128  21130  21145  21148  21149  21150M
             21150  21190M 21194  21196  21319  21322  21324  21325M 21325  21430  21431  21432  21434M 21434  21447M
             21448  21449  21450  21482  21483  21484  21486M 21486  21499M 21500  21501  21502  22124M 22128  22130
             22312  22315  22316  22317M 22317  22433M 22437  22439  22454  22457  22458  22459M 22459  22554M 22558
             22560  22575  22578  22579  22580M 22580  22648M 22652  22654  22682  22685  22686  22687M 22687  22751M
             22755  22757  22795  22798  22800  22801M 22801  23008M 23012  23014  23137  23140  23142  23143M 23143
             23218  23219  23220  23222M 23222  23235M 23236  23237  23238  23558M 23562  23564  23580  23583  23584
             23585M 23585  23666M 23670  23672  23872  23875  23876  23877M 23877  23974M 23978  23980  23995  23998
             23999  24000M 24000  24066  24067  24068  24070M 24070  24083M 24084  24085  24086  24108M 24112  24114
             24129  24132  24133  24134M 24134  24200  24201  24202  24204M 24204  24217M 24218  24219  24220  24242M
             24246  24248  24263  24266  24267  24268M 24268  24338  24339  24340  24342M 24342  24355M 24356  24357
             24358  24380M 24384  24386  24401  24404  24405  24406M 24406  24441M 24445  24447  24462  24465  24466
             24467M 24467  24505M 24509  24511  24526  24529  24530  24531M 24531  24569M 24573  24575  24601  24604
             24605  24606M 24606  25007M 25011  25013  25162  25165  25166  25167M 25167  25207M 25211  25213  25230
             25233  25235  25236M 25236  25440  25441  25442  25444M 25444  25457M 25458  25459  25460  25492  25493
             25494  25496M 25496  25509M 25510  25511  25512  26022M 26026  26028  26075  26078  26080  26081M 26081
             26224  26225M 26225  26235M 26357  26358M 26358  26369M 26370  26663M 26667  26669  26746  26749  26750
             26751M 26751  26839M 26843  26845  27274  27277  27278  27279M 27279  27320M 27324  27326  27341  27344
             27345  27346M 27346  27421  27422  27423  27425M 27425  27438M 27439  27440  27441  27462M 27466  27468
             27483  27486  27487  27488M 27488  27526M 27530  27532  27547  27550  27551  27552M 27552  27647M 27651
             27653  27668  27671  27672  27673M 27673  27764M 27768  27770  27785  27788  27789  27790M 27790  27832
             27833  27834  27836M 27836  27849M 27850  27851  27852  27873M 27877  27879  27894  27897  27898  27899M
             27899  27991M 27995  27997  28012  28015  28016  28017M 28017  28119M 28123  28125  28140  28143  28144
             28145M 28145  28196M 28200  28202  28217  28220  28221  28222M 28222  28264  28265  28266  28268M 28268
             28281M 28282  28283  28284  28305M 28309  28311  28326  28329  28330  28331M 28331  28372M 28376  28378
             28393  28396  28397  28398M 28398  28432  28433  28434  28436M 28436  28449M 28450  28451  28452  28470M
             28474  28476  28491  28494  28495  28496M 28496  28538M 28542  28544  28559  28562  28563  28564M 28564
             28604M 28608  28610  28625  28628  28629  28630M 28630  28671M 28675  28677  28692  28695  28696  28697M
             28697  28732M 28736  28738  28834  28837  28839  28840M 28840  28904  28905  28906  28908M 28908  28920M
             28921  28922  28923  29181  29182  29183  29185M 29185  29198M 29199  29200  29201  29352M 29356  29358
             29422  29425  29426  29427M 29427  29600M 29604  29606  29621  29624  29625  29626M 29626  29666M 29670
             29672  29691  29694  29695  29696M 29696  29723  29724M 29724  29830M 29831  29854M 29858  29860  29961
             29964  29966  29967M 29967  30073  30074  30075  30077M 30077  30090M 30091  30092  30093  30202  30203
             30204  30206M 30206  30219M 30220  30221  30222  30293  30294  30295  30297M 30297  30310M 30311  30312
             30313  30374M 30378  30380  30506  30509  30510  30511M 30511  30614M 30618  30620  30635  30638  30639
             30640M 30640  30743M 30747  30749  30772  30775  30776  30777M 30777  30814  30815M 30815  30818  30819M
             30819  30846M 30847  30956M 30969M 30973  30975  31056  31059  31061  31062M 31062  31163  31164  31165
             31167M 31167  31180M 31181  31182  31183  31215  31216  31217  31219M 31219  31232M 31233  31234  31235
             31490M 31494  31496  31738  31741  31742  31743M 31743  31778M 31782  31784  31799  31802  31803  31804M
             31804  31887M 31891  31893  31908  31911  31912  31913M 31913  31953M 31957  31959  31974  31977  31978
             31979M 31979  32019M 32023  32025  32040  32043  32044  32045M 32045  32092M 32096  32098  32113  32116
             32117  32118M 32118  32189M 32193  32195  32210  32213  32214  32215M 32215  32250M 32254  32256  32271
             32274  32275  32276M 32276  32311M 32315  32317  32341  32344  32345  32346M 32346  32552  32553M 32553
             32609M 32610  32824  32825  32826  32828M 32828  32838M 32839  32840  32841  33151  33152  33153  33155M
             33155  33165M 33166  33167  33168  33187M 33191  33193  33305  33308  33310  33311M 33311  33390  33391
1         (EDIT2193) (12:43) (15MAR04) General Purpose Register Cross Reference                                             Page  178
             33392  33394M 33394  33407M 33408  33409  33410  34511M 34515  34517  34550  34553  34554  34555M 34555
             34705M 34709  34711  34836  34839  34840  34841M 34841  34930M 34934  34936  34952  34955  34956  34957M
             34957  35046M 35050  35052  35068  35071  35072  35073M 35073  35137M 35141  35143  35159  35162  35163
             35164M 35164  35253M 35257  35259  35282  35285  35286  35287M 35287  35321  35322  35323  35325M 35325
             35338M 35339  35340  35341  35361M 35365  35367  35382  35385  35386  35387M 35387  35422M 35426  35428
             35443  35446  35447  35448M 35448  35486M 35490  35492  35507  35510  35511  35512M 35512  35550M 35554
             35556  35571  35574  35575  35576M 35576  35610  35611  35612  35614M 35614  35627M 35628  35629  35630
             35650M 35654  35656
    14(E)      926U  2130   2131M  2145   2146M  2147B  2149M  2150B  2170M  2171B  2175M  2176B  2178M  2179B  2181M
              2182B  2184M  2185B  2187M  2188M  2188B  2194   6777   6830M  6831   6832   6833   6838M  6839   6842M
              6843M  6843B  6846M  6849   6850   6851   6856M  6857M  6857B  6897M  6898M  6898B  6927M  6928M  6928B
              6961M  6962M  6962B  6983M  6984M  6984B  7001M  7002M  7002B  7030M  7033B  7095   7140M  7141M  7141B
              7165M  7168B  7223   7291M  7292   7293   7294   7299M  7300   7303M  7304M  7304B  7307M  7310   7311
              7312   7317M  7318M  7318B  7356M  7357M  7357B  7390M  7391M  7391B  7407   7408M  7521M  7522M  7522B
              7571M  7572M  7572B  7605M  7606M  7606B  7622   7623M  7736M  7737M  7737B  7777M  7780B  7872   7923M
              7926B  7938   7984M  7987B  7999   8050M  8053B  8162   8232M  8233   8234   8235   8240M  8241   8244M
              8245M  8245B  8248M  8251   8252   8253   8258M  8259M  8259B  8315M  8316M  8316B  8333M  8334M  8334B
              8366M  8367M  8367B  8395M  8396M  8396B  8417M  8418M  8418B  8765M  8766M  8766B  8799M  8802B  9043
              9089M  9092B  9104   9166M  9167M  9167B  9191M  9192M  9192B  9219M  9222B  9234   9290M  9293B  9305
              9361M  9364B  9376   9438M  9439M  9439B  9463M  9464M  9464B  9491M  9494B  9506   9537M  9538M  9538B
              9558M  9559M  9559B  9586M  9589B  9601   9665M  9668B  9680   9744M  9747B  9759   9823M  9826B  9838
              9902M  9905B  9954  10015M 10016  10028M 10029  10030  10031  10039M 10040M 10040B 10043M 10046  10047
             10048  10053M 10054M 10054B 10122M 10125  10142M 10143M 10143B 10146M 10147M 10147B 10159M 10162  10176M
             10177  10178  10179  10187M 10188M 10188B 10191M 10194  10195  10196  10201M 10202M 10202B 10275M 10276M
             10276B 10318M 10319M 10319B 10351M 10352M 10352B 10359M 10360M 10360B 10394M 10395M 10395B 10423M 10424
             10425  10426  10431M 10432  10435M 10436M 10436B 10439M 10442  10443  10444  10449M 10450M 10450B 10465M
             10466M 10466B 10554M 10555M 10555B 10563M 10564M 10564B 10588M 10591B 10758  10804M 10807B 10819  10865M
             10868B 10880  10911M 10912M 10912B 10932M 10933M 10933B 10954M 10957B 10969  11015M 11018B 11043  11077M
             11078  11090M 11091  11092  11093  11101M 11102M 11102B 11105M 11108  11109  11110  11115M 11116M 11116B
             11184M 11187  11204M 11205M 11205B 11208M 11209M 11209B 11221M 11224  11235M 11236  11237  11238  11243M
             11244  11247M 11248M 11248B 11251M 11254  11255  11256  11261M 11262M 11262B 11294M 11295M 11295B 11299M
             11300M 11300B 11319M 11322B 11400  11431M 11432M 11432B 11435M 11436M 11436B 11453M 11456B 11592  11659M
             11660  11661  11662  11667M 11668  11671M 11672M 11672B 11675M 11678  11679  11680  11685M 11686M 11686B
             11721M 11722M 11722B 11750M 11751M 11751B 11772M 11773M 11773B 11850M 11851M 11851B 11872M 11873M 11873B
             11902M 11903M 11903B 11930M 11931M 11931B 11977M 11978M 11978B 11985M 11986M 11986B 12003M 12004M 12004B
             12032M 12033M 12033B 12058M 12059M 12059B 12087M 12088M 12088B 12113M 12114M 12114B 12145M 12146M 12146B
             12161M 12162M 12162B 12194M 12195M 12195B 12210M 12211M 12211B 12234M 12235M 12235B 12258M 12261B 12443
             12488M 12489M 12489B 12506M 12507M 12507B 12524M 12525M 12525B 12549M 12552B 12564  12611M 12612M 12612B
             12642M 12645B 12657  12704M 12705M 12705B 12735M 12738B 12750  12797M 12798M 12798B 12828M 12831B 12843
             12890M 12891M 12891B 12921M 12924B 12936  12983M 12984M 12984B 13012M 13015B 13027  13078M 13081B 13093
             13144M 13147B 13159  13210M 13211M 13211B 13235M 13238B 13283  13325M 13326M 13326B 13344M 13345M 13345B
             13373M 13374M 13374B 13404M 13405M 13405B 13421  13422M 13497M 13498M 13498B 13502M 13503M 13503B 13526M
             13529B 13674  13711M 13712M 13712B 13729M 13732B 13747  13808M 13809M 13809B 13819M 13820M 13820B 13842M
             13843M 13843B 13853M 13854  13855  13856  13861M 13862  13865M 13866M 13866B 13869M 13872  13873  13874
             13879M 13880M 13880B 13905M 13906  13907  13908  13913M 13914  13917M 13918M 13918B 13921M 13924  13925
             13926  13931M 13932M 13932B 13999M 14000M 14000B 14003M 14004M 14004B 14036M 14037M 14037B 14060M 14061M
             14061B 14095M 14096M 14096B 14117M 14118M 14118B 14166M 14167M 14167B 14195M 14196M 14196B 14274M 14277B
             14742  14793M 14796B 14808  14864M 14867B 14879  14935M 14938B 14950  15012M 15015B 15027  15089M 15092B
             15104  15155M 15158B 15170  15227M 15230B 15242  15293M 15296B 15308  15359M 15362B 15374  15484M 15487B
             15499  15551M 15554B 15566  15617M 15620B 15632  15683M 15686B 15698  15750M 15753B 15765  15816M 15819B
             15831  15882M 15885B 15897  15983M 15986B 15998  16049M 16052B 16064  16110M 16113B 16125  16173M 16174M
             16174B 16195M 16198B 16210  16241M 16242M 16242B 16246M 16247M 16247B 16264M 16267B 16279  16324M 16325M
             16325B 16342M 16343M 16343B 16361M 16364B 16471  16587M 16588M 16588B 16693M 16694M 16694B 16844M 16845M
             16845B 16910M 16911M 16911B 16981M 16982M 16982B 17038M 17039M 17039B 17071M 17072M 17072B 17104M 17105M
             17105B 17124M 17125M 17125B 17281M 17282M 17282B 17330M 17331M 17331B 17375M 17376M 17376B 17394M 17395M
             17395B 17407M 17408M 17408B 17496M 17499B 17523  17575M 17576M 17576B 17605M 17606M 17606B 17635M 17636M
             17636B 17687M 17688M 17688B 17700M 17701M 17701B 17718M 17721B 17781  17887M 17888M 17888B 17892M 17893M
             17893B 17916M 17917M 17917B 17969M 17970M 17970B 18001M 18002M 18002B 18036M 18037M 18037B 18067M 18068M
             18068B 18089M 18092B 18140  18196M 18197M 18197B 18226M 18227M 18227B 18307M 18308M 18308B 18314M 18315M
1         (EDIT2193) (12:43) (15MAR04) General Purpose Register Cross Reference                                             Page  179
             18315B 18339M 18340M 18340B 18357M 18360B 18403  18446M 18447M 18447B 18457M 18458  18459  18460  18465M
             18466  18469M 18470M 18470B 18473M 18476  18477  18478  18483M 18484M 18484B 18498M 18499M 18499B 18518M
             18521B 18623  18722M 18723M 18723B 18816M 18817M 18817B 18848M 18849M 18849B 18871M 18872M 18872B 18958M
             18961B 19017  19076M 19077M 19077B 19081M 19082M 19082B 19103M 19104  19105  19106  19111M 19112  19115M
             19116M 19116B 19119M 19122  19123  19124  19129M 19130M 19130B 19170M 19171  19172  19173  19181M 19182M
             19182B 19185M 19188  19189  19190  19195M 19196M 19196B 19220M 19221N 19236N 19251N 19252N 19253  19253
             19254N 19255N 19268N 19272M 19272  19290M 19291  19292  19293  19298M 19299  19302M 19303M 19303B 19306M
             19309  19310  19311  19316M 19317M 19317B 19357M 19358  19359  19360  19365M 19366  19369M 19370M 19370B
             19373M 19376  19377  19378  19383M 19384M 19384B 19542M 19543M 19543B 19629M 19630M 19630B 19764M 19765M
             19765B 19772M 19773M 19773B 19866M 19867M 19867B 19875M 19876M 19876B 19897M 19898M 19898B 19984M 19985M
             19985B 19989M 19990M 19990B 20013M 20014M 20014B 20031M 20032M 20032B 20036M 20037M 20037B 20060M 20061M
             20061B 20088M 20089M 20089B 20106M 20107M 20107B 20162M 20163M 20163B 20167M 20168M 20168B 20171M 20172M
             20172B 20213M 20214M 20214B 20251M 20252M 20252B 20359M 20360M 20360B 20389M 20390  20402M 20403  20404
             20405  20413M 20414M 20414B 20417M 20420  20421  20422  20427M 20428M 20428B 20445M 20448  20486M 20489B
             20729  20775M 20778B 20790  20823M 20824  20836M 20837  20838  20839  20847M 20848M 20848B 20851M 20854
             20855  20856  20861M 20862M 20862B 20904M 20905  20906  20907  20912M 20913  20916M 20917M 20917B 20920M
             20923  20924  20925  20930M 20931M 20931B 20951M 20954  20976M 20979B 20991  21043M 21046B 21058  21130M
             21133B 21145  21196M 21199B 21319  21380M 21381M 21381B 21397M 21398M 21398B 21418M 21419M 21419B 21429M
             21430  21431  21432  21437M 21438  21441M 21442M 21442B 21445M 21448  21449  21450  21455M 21456M 21456B
             21481M 21482  21483  21484  21489M 21490  21493M 21494M 21494B 21497M 21500  21501  21502  21507M 21508M
             21508B 21531M 21532M 21532B 21535M 21536M 21536B 21720M 21721M 21721B 21755M 21756M 21756B 21777M 21778M
             21778B 21821M 21822M 21822B 21856M 21857M 21857B 21878M 21879M 21879B 21934M 21935M 21935B 21980M 21981M
             21981B 22024M 22025M 22025B 22054M 22055M 22055B 22074M 22075M 22075B 22098M 22099M 22099B 22130M 22133B
             22312  22343M 22344M 22344B 22348M 22349M 22349B 22384M 22385M 22385B 22412M 22413M 22413B 22439M 22442B
             22454  22485M 22486M 22486B 22490M 22491M 22491B 22506M 22507M 22507B 22512M 22560M 22563B 22575  22606M
             22607M 22607B 22611M 22612M 22612B 22627M 22628M 22628B 22654M 22657B 22682  22757M 22760B 22795  22899M
             23014M 23017B 23137  23205M 23206M 23206B 23217M 23218  23219  23220  23225M 23226  23229M 23230M 23230B
             23233M 23236  23237  23238  23243M 23244M 23244B 23300M 23301M 23301B 23324M 23325M 23325B 23380M 23381M
             23381B 23423M 23424M 23424B 23447M 23448M 23448B 23471M 23472M 23472B 23499M 23500M 23500B 23508M 23509M
             23509B 23536M 23537M 23537B 23564M 23567B 23580  23631M 23632M 23632B 23653M 23654M 23654B 23672M 23675B
             23872  23919M 23920M 23920B 23934M 23935M 23935B 23954M 23955M 23955B 23980M 23983B 23995  24044M 24045M
             24045B 24065M 24066  24067  24068  24073M 24074  24077M 24078M 24078B 24081M 24084  24085  24086  24091M
             24092M 24092B 24114M 24117B 24129  24178M 24179M 24179B 24199M 24200  24201  24202  24207M 24208  24211M
             24212M 24212B 24215M 24218  24219  24220  24225M 24226M 24226B 24248M 24251B 24263  24316M 24317M 24317B
             24337M 24338  24339  24340  24345M 24346  24349M 24350M 24350B 24353M 24356  24357  24358  24363M 24364M
             24364B 24386M 24389B 24401  24447M 24450B 24462  24511M 24514B 24526  24575M 24578B 24601  24831M 24832M
             24832B 24855M 24856M 24856B 24873M 24874M 24874B 24893M 24894M 24894B 24917M 24918M 24918B 24951M 24952M
             24952B 24986M 24987M 24987B 25013M 25016B 25162  25194M 25195M 25195B 25213M 25216B 25230  25305M 25306M
             25306B 25392M 25393M 25393B 25396M 25397M 25397B 25428M 25429M 25429B 25439M 25440  25441  25442  25447M
             25448  25451M 25452M 25452B 25455M 25458  25459  25460  25465M 25466M 25466B 25491M 25492  25493  25494
             25499M 25500  25503M 25504M 25504B 25507M 25510  25511  25512  25517M 25518M 25518B 25684M 25685M 25685B
             25713M 25714M 25714B 25758M 25759M 25759B 25762M 25763M 25763B 25819M 25820M 25820B 25844M 25845M 25845B
             25875M 25876M 25876B 25901M 25902M 25902B 25927M 25928M 25928B 25970M 25971M 25971B 25974M 25975M 25975B
             26004M 26005M 26005B 26028M 26031B 26075  26119M 26120M 26120B 26205M 26206M 26206B 26217M 26218M 26218B
             26228M 26229M 26229B 26232M 26233M 26233B 26259M 26260M 26260B 26266M 26267M 26267B 26342M 26343M 26343B
             26350M 26351M 26351B 26365M 26366M 26366B 26424M 26425M 26425B 26429M 26430M 26430B 26453M 26454M 26454B
             26483M 26484M 26484B 26501M 26502M 26502B 26506M 26507M 26507B 26530M 26531M 26531B 26548M 26549M 26549B
             26586M 26587M 26587B 26590M 26591M 26591B 26613M 26614M 26614B 26631M 26632M 26632B 26635M 26636M 26636B
             26641M 26642M 26642B 26669M 26672B 26746  26791M 26792M 26792B 26796M 26797M 26797B 26820M 26821M 26821B
             26845M 26848B 27274  27326M 27329B 27341  27420M 27421  27422  27423  27428M 27429  27432M 27433M 27433B
             27436M 27439  27440  27441  27446M 27447M 27447B 27468M 27471B 27483  27532M 27535B 27547  27631M 27632M
             27632B 27653M 27656B 27668  27770M 27773B 27785  27831M 27832  27833  27834  27839M 27840  27843M 27844M
             27844B 27847M 27850  27851  27852  27857M 27858M 27858B 27879M 27882B 27894  27947M 27948M 27948B 27997M
             28000B 28012  28125M 28128B 28140  28202M 28205B 28217  28263M 28264  28265  28266  28271M 28272  28275M
             28276M 28276B 28279M 28282  28283  28284  28289M 28290M 28290B 28311M 28314B 28326  28359M 28360M 28360B
             28378M 28381B 28393  28431M 28432  28433  28434  28439M 28440  28443M 28444M 28444B 28447M 28450  28451
             28452  28457M 28458M 28458B 28476M 28479B 28491  28525M 28526M 28526B 28544M 28547B 28559  28610M 28613B
             28625  28677M 28680B 28692  28738M 28741B 28834  28903M 28904  28905  28906  28914M 28915M 28915B 28918M
             28921  28922  28923  28928M 28929M 28929B 28989M 28990M 28990B 29007M 29008M 29008B 29036M 29037M 29037B
1         (EDIT2193) (12:43) (15MAR04) General Purpose Register Cross Reference                                             Page  180
             29052M 29053M 29053B 29075M 29076M 29076B 29088M 29089M 29089B 29117M 29118M 29118B 29139M 29140M 29140B
             29166M 29167M 29167B 29180M 29181  29182  29183  29188M 29189  29192M 29193M 29193B 29196M 29199  29200
             29201  29206M 29207M 29207B 29239M 29240M 29240B 29260M 29261M 29261B 29271M 29272M 29272B 29300M 29301M
             29301B 29322M 29323M 29323B 29358M 29361B 29422  29493M 29494M 29494B 29511M 29512M 29512B 29540M 29541M
             29541B 29556M 29557M 29557B 29579M 29580M 29580B 29606M 29609B 29621  29672M 29675B 29691  29731M 29732M
             29732B 29760M 29761M 29761B 29782M 29783M 29783B 29821M 29822M 29822B 29834M 29835M 29835B 29842M 29843M
             29843B 29860M 29863B 29961  30024M 30025M 30025B 30029M 30030M 30030B 30040M 30041M 30041B 30061M 30062M
             30062B 30072M 30073  30074  30075  30080M 30081  30084M 30085M 30085B 30088M 30091  30092  30093  30098M
             30099M 30099B 30128M 30129M 30129B 30132M 30133M 30133B 30156M 30157M 30157B 30160M 30161M 30161B 30201M
             30202  30203  30204  30209M 30210  30213M 30214M 30214B 30217M 30220  30221  30222  30227M 30228M 30228B
             30260M 30261M 30261B 30264M 30265M 30265B 30292M 30293  30294  30295  30300M 30301  30304M 30305M 30305B
             30308M 30311  30312  30313  30318M 30319M 30319B 30351M 30352M 30352B 30380M 30383B 30506  30620M 30623B
             30635  30749M 30752B 30772  30814M 30818  30820N 30843M 30844M 30844B 30847M 30884M 30885M 30885B 30946M
             30947M 30947B 30975M 30978B 31056  31124M 31125M 31125B 31135M 31136M 31136B 31162M 31163  31164  31165
             31170M 31171  31174M 31175M 31175B 31178M 31181  31182  31183  31188M 31189M 31189B 31214M 31215  31216
             31217  31222M 31223  31226M 31227M 31227B 31230M 31233  31234  31235  31240M 31241M 31241B 31288M 31289M
             31289B 31351M 31352M 31352B 31373M 31374M 31374B 31409M 31410M 31410B 31444M 31445M 31445B 31466M 31467M
             31467B 31496M 31499B 31738  31784M 31787B 31799  31893M 31896B 31908  31959M 31962B 31974  32025M 32028B
             32040  32098M 32101B 32113  32151M 32152M 32152B 32172M 32173M 32173B 32195M 32198B 32210  32256M 32259B
             32271  32317M 32320B 32341  32511M 32594M 32595M 32595B 32605M 32606M 32606B 32619M 32620M 32620B 32724M
             32780M 32781N 32782N 32786M 32786  32823M 32824  32825  32826  32832M 32833M 32833B 32836M 32839  32840
             32841  33065M 33066M 33066B 33076M 33077M 33077B 33084M 33085M 33085B 33113M 33114M 33114B 33118M 33119M
             33119B 33150M 33151  33152  33153  33159M 33160M 33160B 33163M 33166  33167  33168  33193M 33196B 33305
             33377M 33378M 33378B 33389M 33390  33391  33392  33397M 33398  33401M 33402M 33402B 33405M 33408  33409
             33410  33415M 33416M 33416B 33449M 33450M 33450B 33467M 33468M 33468B 33528M 33529M 33529B 33670M 33671M
             33671B 33841M 33842M 33842B 33859M 33860M 33860B 33909M 33910M 33910B 33992M 33993M 33993B 34096M 34097M
             34097B 34101M 34102M 34102B 34125M 34126M 34126B 34143M 34144M 34144B 34260M 34261M 34261B 34278M 34279M
             34279B 34283M 34284M 34284B 34307M 34308M 34308B 34325M 34326M 34326B 34330M 34331M 34331B 34354M 34355M
             34355B 34447M 34448M 34448B 34469M 34470M 34470B 34491M 34492M 34492B 34517M 34520B 34550  34664M 34665M
             34665B 34687M 34688M 34688B 34711M 34714B 34836  34882M 34883M 34883B 34936M 34939B 34952  34998M 34999M
             34999B 35052M 35055B 35068  35114M 35115M 35115B 35143M 35146B 35159  35205M 35206M 35206B 35259M 35262B
             35282  35320M 35321  35322  35323  35328M 35329  35332M 35333M 35333B 35336M 35339  35340  35341  35346M
             35347M 35347B 35367M 35370B 35382  35428M 35431B 35443  35492M 35495B 35507  35556M 35559B 35571  35609M
             35610  35611  35612  35617M 35618  35621M 35622M 35622B 35625M 35628  35629  35630  35635M 35636M 35636B
             35656M 35659B
    15(F)      922U  2130   6852M  6852   6880M  6910M  6958M  6980M  6998M  7032M  7032   7167M  7167   7313M  7313
              7353M  7373   7407   7504M  7568M  7588   7622   7719M  7779M  7779   7925M  7925   7986M  7986   8052M
              8052   8254M  8254   8312M  8330M  8349M  8392M  8414M  8658M  8659M  8660   8679M  8680M  8681   8708M
              8709M  8710   8730M  8731M  8732   8748M  8801M  8801   9091M  9091   9174M  9202M  9202   9221M  9221
              9273M  9273   9292M  9292   9344M  9344   9363M  9363   9446M  9474M  9474   9493M  9493   9541M  9569M
              9569   9588M  9588   9667M  9667   9746M  9746   9825M  9825   9904M  9904  10049M 10049  10139M 10197M
             10197  10315M 10334M 10391M 10445M 10445  10544M 10545M 10545  10590M 10590  10806M 10806  10867M 10867
             10915M 10937M 10937  10956M 10956  10998  11017M 11017  11111M 11111  11201M 11257M 11257  11321M 11321
             11455M 11455  11681M 11681  11692M 11693M 11693  11747M 11769M 11847M 11869M 11899M 11927M 11974M 12000M
             12029M 12084M 12141M 12141  12190M 12260M 12260  12485M 12503M 12521M 12551M 12551  12644M 12644  12737M
             12737  12830M 12830  12923M 12923  13014M 13014  13080M 13080  13146M 13146  13207M 13237M 13237  13341M
             13370M 13387  13421  13494M 13528M 13528  13731M 13731  13875M 13875  13927M 13927  13956M 13965M 13965
             14013M 14013  14163M 14192M 14220M 14230U 14249U 14276M 14276  14795M 14795  14866M 14866  14937M 14937
             15014M 15014  15091M 15091  15157M 15157  15229M 15229  15295M 15295  15361M 15361  15486M 15486  15553M
             15553  15619M 15619  15685M 15685  15752M 15752  15818M 15818  15884M 15884  15985M 15985  16051M 16051
             16112M 16112  16156M 16178M 16178  16197M 16197  16266M 16266  16321M 16339M 16363M 16363  16690M 16690
             16841M 16907M 16978M 17278M 17327M 17372M 17391M 17436M 17446U 17465U 17498M 17498  17555M 17602M 17632M
             17637M 17684M 17689M 17694M 17720M 17720  17810M 17811M 17813M 17884M 17913M 17966M 17998M 18064M 18091M
             18091  18172M 18223M 18304M 18336M 18359M 18359  18479M 18479  18520M 18520  18665M 18714  18726M 18727M
             18728M 18732M 18741M 18741  18748  18845M 18868M 18960M 18960  19125M 19125  19142  19191M 19191  19221M
             19230M 19230  19236M 19245M 19245  19251M 19252M 19254M 19255  19267M 19267  19268  19312M 19312  19329
             19379M 19379  19473M 19474M 19474  19480M 19482M 19483  19497  19524M 19525M 19525  19769M 19778M 19779M
             19789M 19791  19894M 19981M 20010M 20028M 20057M 20085M 20103M 20210M 20248M 20254M 20264U 20294U 20423M
             20423  20488M 20488  20758M 20777M 20777  20857M 20857  20926M 20926  20959M 20978M 20978  21045M 21045
1         (EDIT2193) (12:43) (15MAR04) General Purpose Register Cross Reference                                             Page  181
             21113M 21132M 21132  21198M 21198  21451M 21451  21503M 21503  21545M 21545  21615M 21624M 21624  21675
             21889M 21892  21931M 21977M 22021M 22051M 22060M 22095M 22132M 22132  22345M 22381M 22422M 22422  22441M
             22441  22487M 22513M 22516M 22518  22543M 22543  22562M 22562  22608M 22637M 22637  22656M 22656  22759M
             22759  22976M 22977M 22978  23016M 23016  23239M 23239  23297M 23377M 23566M 23566  23628M 23650M 23655M
             23674M 23674  23963M 23963  23982M 23982  24087M 24087  24097M 24097  24116M 24116  24221M 24221  24231M
             24231  24250M 24250  24359M 24359  24369M 24369  24388M 24388  24449M 24449  24494M 24513M 24513  24558M
             24577M 24577  24852M 24870M 24879M 24914M 24948M 24983M 25015M 25015  25215M 25215  25461M 25461  25513M
             25513  25772M 25772  25841M 25984M 25984  26030M 26030  26116M 26121M 26222M 26256M 26346M 26347M 26352M
             26354M 26360  26380M 26380  26421M 26450M 26498M 26527M 26545M 26583M 26610M 26628M 26671M 26671  26788M
             26817M 26847M 26847  27328M 27328  27442M 27442  27451M 27451  27470M 27470  27515M 27534M 27534  27636M
             27636  27655M 27655  27753M 27753  27772M 27772  27853M 27853  27862M 27862  27881M 27881  27980M 27999M
             27999  28108M 28108  28127M 28127  28185M 28185  28204M 28204  28285M 28285  28294M 28294  28313M 28313
             28361M 28380M 28380  28453M 28453  28459M 28478M 28478  28527M 28546M 28546  28612M 28612  28679M 28679
             28740M 28740  28924M 28924  28947M 28948M 28950M 28986M 29004M 29066M 29066  29081  29085M 29114M 29136M
             29153  29202M 29202  29210M 29211M 29211  29236M 29267M 29268M 29268  29297M 29319M 29360M 29360  29451M
             29452M 29454M 29490M 29508M 29570M 29570  29585  29589M 29589  29608M 29608  29674M 29674  29728M 29757M
             29779M 29796  29800M 29823M 29839M 29862M 29862  30094M 30094  30142M 30142  30223M 30223  30314M 30314
             30382M 30382  30555M 30559M 30568M 30568  30575  30603M 30603  30622M 30622  30684M 30688M 30697M 30697
             30704  30732M 30732  30751M 30751  30818  30840M 30847M 30977M 30977  31119M 31120  31184M 31184  31236M
             31236  31285M 31348M 31370M 31498M 31498  31786M 31786  31875M 31876  31895M 31895  31961M 31961  32027M
             32027  32100M 32100  32197M 32197  32258M 32258  32319M 32319  32425M 32426M 32441  32453M 32461M 32470M
             32470  32477  32520M 32520  32527  32557M 32558M 32559  32602M 32616M 32651M 32654  32666M 32674M 32683M
             32683  32690  32733M 32733  32740  32842M 32842  32855M 32855  32875M 32875  32909M 32947M 32961M 32961
             32968M 32971  32983M 32991M 33000M 33000  33007  33029M 33030M 33031  33073M 33081M 33110M 33169M 33169
             33195M 33195  33411M 33411  33446M 33464M 33667M 33838M 33856M 34011M 34011  34025  34050M 34051M 34052
             34093M 34122M 34140M 34170  34196  34222  34237  34257M 34275M 34304M 34322M 34351M 34444M 34466M 34488M
             34519M 34519  34594M 34614  34642  34661M 34682  34684M 34713M 34713  34914M 34914  34938M 34938  35030M
             35030  35054M 35054  35121M 35121  35145M 35145  35237M 35237  35261M 35261  35342M 35342  35350M 35369M
             35369  35430M 35430  35475M 35494M 35494  35539M 35558M 35558  35631M 35631  35639M 35658M 35658

1EDIT     (EDIT2193) (12:43) (15MAR04) Diagnostic Cross Reference and Assembler Summary                                     Page  182
-                                                                                            HLASM R4.0  2004/03/15 12.43
0     No Statements Flagged in this Assembly
 HIGH LEVEL ASSEMBLER, 5696-234, RELEASE 4.0, PTF P72483
0SYSTEM: OS/390 02.10.00            JOBNAME: WYL#EDIT    STEPNAME: ASM        PROCSTEP: (NOPROC)
0Datasets Allocated for this Assembly
  Con DDname   Dataset Name                                 Volume  Member
   P1 SYSIN    WYL.GS.WYL.WYLBUR.SOURCE                     SYSB05  EDIT
   L1 SYSLIB   WYL.GS.WYL.WYLBUR.MACLIB                     SYSB05
   L2          WYL.GG.SYS.MACLIB                            SYSB05
   L3          SYS3.IS.MACLIB                               SYSB05
   L4          SYS3.MACLIB                                  SYSB02
   L5          SYS1.MACLIB                                  MVSBR9
   L6          SYS1.MODGEN                                  MVSBR9
      SYSPRINT SYS04075.T124328.RA000.WYL#EDIT.PRINT.H01    SCR100
      SYSTERM  GG$SLP.WYL#EDIT.JOB03520.D0000101.?

    3668K allocated to Buffer Pool,         4333K would be required for this to be an In-Storage Assembly
    3242 Primary Input Records Read         7443 Library Records Read                120 Work File Reads
       0 ASMAOPT Records Read              20269 Primary Print Records Written       169 Work File Writes
       0 Punch Records Written                 0 ADATA Records Written
0Assembly Start Time: 12.43.30 Stop Time: 12.43.46 Processor Time: 00.00.07.0151
 Return Code 000
