1                        J E S 2  J O B  L O G  --  S Y S T E M  S Y S B  --  N O D E  R L G
0
 12.59.25 JOB03583 ---- MONDAY,    15 MAR 2004 ----
 12.59.25 JOB03583  ICH70001I GG$SLP   LAST ACCESS AT 12:58:51 ON MONDAY, MARCH 15, 2004
 12.59.25 JOB03583  $HASP373 WYL#VARS STARTED - INIT 7    - CLASS B - SYS SYSB
 12.59.25 JOB03583  ***  HCMD      STEP $$QUIET
 12.59.25 JOB03583  PUR * Q OUT MUL
 12.59.25 JOB03583  JOB 5444 WYL#VARS WILL BE PURGED
 12.59.26 JOB03583  WYL#VARS.$$QUIET .         RC=Zero TapeIO=0000 DiskIO=0000 CPU=  .01s Elapsed=65.58s
 12.59.46 JOB03583  WYL#VARS.ASM     .         RC=Zero TapeIO=0000 DiskIO=0704 CPU= 5.13s Elapsed=66.88s
 12.59.51 JOB03583  WYL#VARS.EDIT    .         RC=Zero TapeIO=0000 DiskIO=0297 CPU=  .95s Elapsed=86.64s
 12.59.51 JOB03583  WYL#VARS Ended.  Name=Assemble VARS                  Total CPU= 6.09s Elapsed=65.58s
 12.59.51 JOB03583
 12.59.51 JOB03583  Execution charges   Priority=Standard   Block=Day
 12.59.51 JOB03583
 12.59.51 JOB03583  CPU Usage         112.68          $69.86   Standard Processing Unit Equivalent
 12.59.51 JOB03583                                   =======
 12.59.51 JOB03583                                    $69.86   Total Job execution charge
 12.59.51 JOB03583
 12.59.51 JOB03583  See back separator page for print charges
 12.59.51 JOB03583
 12.59.52 JOB03583  $HASP395 WYL#VARS ENDED  ASM=0, EDIT=0
1        1 //WYL#VARS JOB SLP$GG,'Assemble VARS',TIME=4,REGION=4M                  JOB03583
           //*
           /*JOBPARM LINES=99,COPIES=1
           /*JOBPARM FORMS=3HOL,PFORMAT=LAND,CHARS=BD13,DUPLEX=YES,FLASH=BAR4
           //*
           /*JOBPARM NOTIFY=GG.SLP,HOLD=OUTPUT                                     WYLGEN
         2 //$$QUIET EXEC PGM=HCMDX,PARM='PUR * Q OUT MUL'
           //*
         3 //ASM    EXEC PGM=ASMA90,REGION=8M,
           //            PARM=('NORENT,TERM,FLAG(NOCONT),US(MAP,WARN(10)),NODECK',
           //            'LC(32767),XREF(SHORT),ESD,DXREF,NOOBJECT')
         4 //STEPLIB DD DSN=SYS3.IS.TESTASM,DISP=SHR
         5 //SYSLIB   DD  DSN=WYL.GS.WYL.WYLBUR.MACLIB,DISP=SHR
         6 //         DD  DSN=WYL.GG.SYS.MACLIB,DISP=SHR
         7 //         DD  DSN=SYS3.IS.MACLIB,DISP=SHR
         8 //         DD  DSN=SYS3.MACLIB,DISP=SHR
         9 //         DD  DSN=SYS1.MACLIB,DISP=SHR
        10 //         DD  DSN=SYS1.MODGEN,DISP=SHR
        11 //SYSUT1   DD DSN=&&SYSUT1,UNIT=VIO,DISP=(,DELETE),
           //            SPACE=(4088,(500,250),,CONTIG,ROUND)
        12 //SYSTERM  DD SYSOUT=T
        13 //SYSPRINT DD DSN=&&PRINT,UNIT=SYSDA,DISP=(,PASS),
           //            SPACE=(6650,(250,250),RLSE),
           //            DCB=(BLKSIZE=6650,LRECL=133,RECFM=FB)
        14 //SYSUDUMP DD SYSOUT=A
        15 //SYSIN    DD  DSN=WYL.GS.WYL.WYLBUR.SOURCE(VARS),DISP=SHR
           //*
        16 //EDIT    EXEC PGM=ASMEDIT,TIME=2,REGION=4000K,
           //             PARM='STMT'
        17 //STEPLIB  DD  DSN=WYL.GG.SYS.LINKLIB,DISP=SHR
        18 //ASMOUT   DD  DSN=&PRINT,DISP=(OLD,DELETE)
        19 //SYSPRINT DD  SYSOUT=A
1 STMT NO. MESSAGE
 -
        11 IGD01010I STORCLAS= TEMP STORGROUP =
        11 IGD01010I STORGRP=VIO ASSIGNED.
        13 IGD01010I STORCLAS= TEMP STORGROUP =
        13 IGD01010I STORGRP=VIO ASSIGNED.
 ICH70001I GG$SLP   LAST ACCESS AT 12:58:51 ON MONDAY, MARCH 15, 2004
 IEF142I WYL#VARS $$QUIET - STEP WAS EXECUTED - COND CODE 0000
 *********************************************************************************
 *   WYL#VARS/$$QUIET /                    Return Code      Zero                 *
 *   Region used      260K (16K user + 244K system)                              *
 *   Extended region  9580K (4K user + 9576K system)                             *
 *                                                                               *
 *   Paging              In      Out                                             *
 *   Private <-> Aux      0        0       CPU time (TCB)   00:00:00.01          *
 *   Private <-> Exp      0        0       CPU time (SRB)   00:00:00.00          *
 *   VIO                  0        0       Elapsed time    917:28:27.38          *
 *   Common               0      ---                                             *
 *                                                                               *
 *                                                                               *
 *   CPU Usage          0.18         $0.11  Standard Processing Unit Equivalent  *
 *                                   $0.11  Total Step execution charge          *
 *                                                                               *
 *    I/O count  DDname   Type Addr           I/O count  DDname   Type Addr      *
 *                         *** No I/O for this step ***                          *
 *********************************************************************************
 IEF373I STEP/$$QUIET /START 2004075.1259
 IEF374I STEP/$$QUIET /STOP  2004075.1259 CPU    0MIN 00.01SEC SRB    0MIN 00.00SEC VIRT    16K SYS   244K EXT       4K SYS    9576K
 IEF236I ALLOC. FOR WYL#VARS ASM
 IEF237I 04DC ALLOCATED TO STEPLIB
 IEF237I 04DC ALLOCATED TO SYSLIB
 IEF237I 04DC ALLOCATED TO
 IEF237I 04DC ALLOCATED TO
 IEF237I 0402 ALLOCATED TO
 IEF237I 04A0 ALLOCATED TO
 IEF237I 04A0 ALLOCATED TO
 IGD101I SMS ALLOCATED TO DDNAME (SYSUT1  )
         DSN (SYS04075.T125925.RA000.WYL#VARS.SYSUT1.H01  )
         STORCLAS (TEMP) MGMTCLAS (        ) DATACLAS (        )
         VOL SER NOS= VIO
 IEF237I JES2 ALLOCATED TO SYSTERM
 IGD101I SMS ALLOCATED TO DDNAME (SYSPRINT)
         DSN (SYS04075.T125925.RA000.WYL#VARS.PRINT.H01   )
         STORCLAS (TEMP) MGMTCLAS (        ) DATACLAS (        )
         VOL SER NOS= SCR100
 IEF237I JES2 ALLOCATED TO SYSUDUMP
 IEF237I 04DC ALLOCATED TO SYSIN
 IEF142I WYL#VARS ASM - STEP WAS EXECUTED - COND CODE 0000
 IEF285I   SYS3.IS.TESTASM                              KEPT
 IEF285I   VOL SER NOS= SYSB05.
 IEF285I   WYL.GS.WYL.WYLBUR.MACLIB                     KEPT
 IEF285I   VOL SER NOS= SYSB05.
 IEF285I   WYL.GG.SYS.MACLIB                            KEPT
 IEF285I   VOL SER NOS= SYSB05.
 IEF285I   SYS3.IS.MACLIB                               KEPT
 IEF285I   VOL SER NOS= SYSB05.
 IEF285I   SYS3.MACLIB                                  KEPT
 IEF285I   VOL SER NOS= SYSB02.
 IEF285I   SYS1.MACLIB                                  KEPT
 IEF285I   VOL SER NOS= MVSBR9.
 IEF285I   SYS1.MODGEN                                  KEPT
 IEF285I   VOL SER NOS= MVSBR9.
 IGD105I SYS04075.T125925.RA000.WYL#VARS.SYSUT1.H01   DELETED,   DDNAME=SYSUT1
 IEF285I   GG$SLP.WYL#VARS.JOB03583.D0000101.?          SYSOUT
 IGD106I SYS04075.T125925.RA000.WYL#VARS.PRINT.H01    PASSED,    DDNAME=SYSPRINT
 IEF285I   GG$SLP.WYL#VARS.JOB03583.D0000102.?          SYSOUT
 IEF285I   WYL.GS.WYL.WYLBUR.SOURCE                     KEPT
 IEF285I   VOL SER NOS= SYSB05.
 *********************************************************************************
 *   WYL#VARS/ASM     /                    Return Code      Zero                 *
 *   Region used      4376K (4096K user + 280K system)                           *
 *   Extended region  10180K (412K user + 9768K system)                          *
 *                                                                               *
 *   Paging              In      Out                                             *
 *   Private <-> Aux      0        0       CPU time (TCB)   00:00:05.08          *
 *   Private <-> Exp      0        0       CPU time (SRB)   00:00:00.05          *
 *   VIO                  0        0       Elapsed time    917:28:26.08          *
 *   Common               0      ---                                             *
 *                                                                               *
 *                                                                               *
 *   CPU Usage         95.25        $59.05  Standard Processing Unit Equivalent  *
 *                                  $59.05  Total Step execution charge          *
 *                                                                               *
 *    I/O count  DDname   Type Addr           I/O count  DDname   Type Addr      *
 *           86  STEPLIB  Disk 04DC                 311  SYSLIB   Disk 04DC      *
 *            0  SYSLIB   Disk 04DC                   0  SYSLIB   Disk 04DC      *
 *            0  SYSLIB   Disk 0402                   0  SYSLIB   Disk 04A0      *
 *            0  SYSLIB   Disk 04A0                   0  SYSUT1   VIO  ----      *
 *            0  SYSTERM       ----                 294  SYSPRINT Disk 038B      *
 *            0  SYSUDUMP      ----                  13  SYSIN    Disk 04DC      *
 *********************************************************************************
 IEF373I STEP/ASM     /START 2004075.1259
 IEF374I STEP/ASM     /STOP  2004075.1259 CPU    0MIN 05.08SEC SRB    0MIN 00.05SEC VIRT  4096K SYS   280K EXT     412K SYS    9768K
 IEF236I ALLOC. FOR WYL#VARS EDIT
 IEF237I 0402 ALLOCATED TO STEPLIB
 IGD103I SMS ALLOCATED TO DDNAME ASMOUT
 IEF237I JES2 ALLOCATED TO SYSPRINT
 IEF142I WYL#VARS EDIT - STEP WAS EXECUTED - COND CODE 0000
 IEF285I   WYL.GG.SYS.LINKLIB                           KEPT
 IEF285I   VOL SER NOS= SYSB02.
 IGD105I SYS04075.T125925.RA000.WYL#VARS.PRINT.H01    DELETED,   DDNAME=ASMOUT
 IEF285I   GG$SLP.WYL#VARS.JOB03583.D0000103.?          SYSOUT
 *********************************************************************************
 *   WYL#VARS/EDIT    /                    Return Code      Zero                 *
 *   Region used      380K (116K user + 264K system)                             *
 *   Extended region  9700K (4K user + 9696K system)                             *
 *                                                                               *
 *   Paging              In      Out                                             *
 *   Private <-> Aux      0        0       CPU time (TCB)   00:00:00.92          *
 *   Private <-> Exp      0        0       CPU time (SRB)   00:00:00.03          *
 *   VIO                  0        0       Elapsed time    917:28:06.32          *
 *   Common               0      ---                                             *
 *                                                                               *
 *                                                                               *
 *   CPU Usage         17.25        $10.69  Standard Processing Unit Equivalent  *
 *                                  $10.69  Total Step execution charge          *
 *                                                                               *
 *    I/O count  DDname   Type Addr           I/O count  DDname   Type Addr      *
 *            2  STEPLIB  Disk 0402                 295  ASMOUT   Disk 038B      *
 *            0  SYSPRINT      ----                                              *
 *********************************************************************************
 IEF373I STEP/EDIT    /START 2004075.1259
 IEF374I STEP/EDIT    /STOP  2004075.1259 CPU    0MIN 00.92SEC SRB    0MIN 00.03SEC VIRT   116K SYS   264K EXT       4K SYS    9696K
 *********************************************************************************
 *                                                                               *
 *                      S t a n f o r d   U n i v e r s i t y                    *
 *                                                                               *
 *                              *** Job Summary ***                              *
 *                                                                               *
 *   System Id      SYSB                   Input time     12:39:38  Mar 15, 2004 *
 *                                                                               *
 *   System Release SP6.1.0                Start time     12:59:25  Mar 15, 2004 *
 *                                                                               *
 *   Job name       WYL#VARS               Stop  time     00:00:00  Mar 15, 2004 *
 *                                                                               *
 *   Account        SLP$GG                 Elapsed time  917:28:27.38            *
 *                                                                               *
 *   User Name      Assemble VARS          CPU time       00:00:06.01            *
 *                                                                               *
 *   Job class      B                      SRB Time       00:00:00.08            *
 *                                                                               *
 *********************************************************************************
 IEF375I  JOB/WYL#VARS/START 2004075.1259
 IEF376I  JOB/WYL#VARS/STOP  2004075.1259 CPU    0MIN 06.01SEC SRB    0MIN 00.08SEC
1Assembler Done VARS No Statements Flagged
1         High Level Assembler Option Summary                   (PTF P72483 )                                               Page    1
-                                                                                            HLASM R4.0  2004/03/15 12.59
0  No Overriding ASMAOPT Parameters
   Overriding Parameters-  NORENT,TERM,FLAG(NOCONT),US(MAP,WARN(10)),NODECK,LC(32767),XREF(SHORT),ESD,DXREF,NOOBJECT
   No Process Statements


   Options for this Assembly
0  NOADATA
     ALIGN
   NOASA
     BATCH
     CODEPAGE(047C)
   NOCOMPAT
   NODBCS
 3 NODECK
 3   DXREF
 3   ESD
   NOEXIT
 3   FLAG(0,ALIGN,NOCONT,NOIMPLEN,NOPAGE0,PUSH,RECORD,NOSUBSTR,USING0)
   NOFOLD
   NOGOFF
   NOINFO
     LANGUAGE(EN)
   NOLIBMAC
 3   LINECOUNT(32767)
     LIST(121)
     MXREF(SOURCE)
 3 NOOBJECT
     OPTABLE(UNI,NOLIST)
   NOPCONTROL
   NOPESTOP
   NOPROFILE
   NORA2
 3 NORENT
     RLD
     RXREF
     SIZE(MAX)
     SYSPARM()
 3   TERM(WIDE)
   NOTEST
     THREAD
   NOTRANSLATE
 3   USING(NOLIMIT,MAP,WARN(10))
 3   XREF(SHORT)

   No Overriding DD Names

1VARS     External Symbol Dictionary                                                                                        Page    2
-Symbol   Type   Id     Address  Length     LD ID  Flags Alias-of                            HLASM R4.0  2004/03/15 12.59
0WYLVARS   SD 00000001 00000000 000046B8             00
 VARS9014  LD          00000000           00000001
 INITVARS  LD          00000024           00000001
 DECLARE   LD          0000005C           00000001
 MTOKEN    ER 00000002
 MALL      ER 00000003
 NSCAN     ER 00000004
 SCANCHK   ER 00000005
 LRTRIM    ER 00000006
 SEG       ER 00000007
 SETVAL    LD          00000B10           00000001
 OLDSETV   LD          00000C82           00000001
 SHOWVAL   LD          00000E02           00000001
 SHOWVARS  LD          00000EF6           00000001
 MPARM     ER 00000008
 COLLPSH   ER 00000009
 NOTVALID  ER 0000000A
 SCNVDESC  ER 0000000B
 EVALEXPR  ER 0000000C
 CHECKEND  ER 0000000D
 XSETSET   ER 0000000E
 XGETFRST  ER 0000000F
 SEGCR     ER 00000010
 XGETNEXT  ER 00000011
 SCUPCASE  ER 00000012
 GETDATA   ER 00000013
 SHOWARRY  LD          000016F2           00000001
 MPINT     ER 00000014
 CLRVARS   LD          00001D20           00000001
 SCNVNAME  ER 00000015
 SEGT      ER 00000016
 GETVAR    ER 00000017
 SEGVAR    ER 00000018
 GETVAR    LD          00001E76           00000001
 GETXVAR   LD          00001F64           00000001
 GETGVAR   LD          00001FC2           00000001
 GETSVAR   LD          0000200C           00000001
 GETNVAR   LD          0000207A           00000001
 GETPVAR   LD          000020C4           00000001
 SAVEVAR   LD          0000210E           00000001
 CHKRESVD  LD          00002AC2           00000001
 XGET      ER 00000019
 GTVARRTN  ER 0000001A
 MAKENUMB  ER 0000001B
 MAKESTR   ER 0000001C
 MAKEBOOL  ER 0000001D
 ZAPOFFR6  ER 0000001E
 XPUT      ER 0000001F
 GETDATA   LD          00002FD0           00000001
 SAVEDATA  LD          00003018           00000001
 GETVSTK   LD          0000307A           00000001
 SAVEVSTK  LD          000030BC           00000001
 GETARRAY  LD          00003116           00000001
 GETSUBS   LD          0000335A           00000001
 GETADESC  LD          00003768           00000001
1VARS     External Symbol Dictionary                                                                                        Page    3
 EVALINT   ER 00000020
 VCLEAR    LD          00003970           00000001
 VNAME     LD          0000399E           00000001
 VSTRING   LD          000039DA           00000001
 VINTEGER  LD          00003A1E           00000001
 GTNEWSET  LD          00003A5A           00000001
 CLRVSETS  LD          00003CA6           00000001
 CLRVSTK   LD          00003CE8           00000001
 INITBASE  LD          00003D2C           00000001
 SCNVDESC  LD          00003ED4           00000001
 SEGVAR    LD          00004052           00000001
 SEGVNAME  LD          00004098           00000001
 SEGVALUE  LD          00004174           00000001
 MAKEITOD  ER 00000021
 XDELSET   ER 00000022
 XDELSETS  ER 00000023
 SEGDC     ER 00000024

1VARS     EXEC Variable Commands, Routines                                                                                  Page    4
0Loc    Object Code    Addr1 Addr2  Stmt Lv Lineno    Source Statement                    (Asmedit 3.3)  HLASM R4.0  2004/03/15 12.59
+___    ______ ____    _____ _____  ____ __ ______    ______ _________
0                                      2              *******************************************************************
                                       3              *                                                                 *
                                       4              *     WYLBUR/370 - Release VI - Class I - Stanford Proprietary    *
                                       5              *                                                                 *
                                       6              *******************************************************************
                                       7                       HIBAL
                                     988
1VARS     EXEC Variable Commands, Routines                                                                                  Page    5
0D-Loc  Object Code    Addr1 Addr2  Stmt Lv Lineno    Source Statement           (Hibal 5, Asmedit 3.3)  HLASM R4.0  2004/03/15 12.59
+_____  ______ ____    _____ _____  ____ __ ______    ______ _________
0000000                00000 046B8   990              WYLVARS  CSECT
                                     994                       REGS  FSR,,,,,,,BR,(WAR,LSR),PAR,PBR,CPR,CVR,SPR,RAR
                                    1130
                                    1131              VARS     IDENT 9014                19:46:20 01/14/99  (MPD)
                                    1134             +
                                    1135    01-IDENT +         ENTRY VARS9014
                                    1136             +
 000000 16E5C1D9E2F9F0F1            1137    01-IDENT +VARS9014 DC    AL1(22),C'VARS9014,15MAR04,12:59'
                                    1138             +*
                                    1140              *
                                    1141                       SYSDEFN ,                 Define installation values
                                    1142
                                    1143                       PUSH  DSECTS
 USING  CP,R11                      1155             =         USING (CP),(CV)
 USING  CV,R12
 000017                00000 046B8  1174             =         POP   PRINT
 000017                00000 046B8  6587              WYLVARS  CSECT
 000017 C9A34084964089A3            6589                       DC    C'It do it too!'
1VARS     (VARS9014) (12:59) (15MAR04) DSECTS                                                                               Page    6
0Current Usings:  (CP,R11) (CV,R12)
0Loc    Object Code    Addr1 Addr2  Stmt Lv Lineno    Source Statement           (Hibal 5, Asmedit 3.3)  HLASM R4.0  2004/03/15 12.59
+___    ______ ____    _____ _____  ____ __ ______    ______ _________
0                                   6591              **
                                    6592              **
                                    6593              **   RESERVED FOR COMMENTS ON VARIABLE ORGANIZATION
                                    6594              **
                                    6595              **
-                                   6597                       ¿þþþþþþþþþþþþþþþþþþþþþþþþÜ
                                    6598                       Ÿ  VARIABLE SET NUMBERS  Ÿ
                                    6599                       ¾þþþþþþþþþþþþþþþþþþþþþþþþ»
                                    6600              VARINFO  EQU   1                   VARIABLE INFO (NOT USED)
                                    6601              VBASE    EQU   2                   BASE VARIABLES
                                    6602              VGLOBAL  EQU   3                   GLOABAL VARAIBLES
                                    6603              VSTACK   EQU   16                  BEGINING OF VAIABLE STACK
                                    6604              MAXSET   EQU   32000               MAX STACK SET NUMBER
                                    6605              *$
1VARS     (VARS9014) (12:59) (15MAR04) DSECTS                                                                               Page    7
0Current Usings:  (CP,R11) (CV,R12)
0Loc    Object Code    Addr1 Addr2  Stmt Lv Lineno    Source Statement           (Hibal 5, Asmedit 3.3)  HLASM R4.0  2004/03/15 12.59
+___    ______ ____    _____ _____  ____ __ ______    ______ _________
0                                   6607                       COPY  VNENTRY
                                    6608=            =¿þþþþþþþþþþþþþþþþþþþþþþþþþþþþþþþþþþþþþþþþþþþþþþþþþþþþþþþþþþþþþþþþþþþþþÜ
                                    6609=            =Ÿ                                                                     Ÿ
                                    6610=            =Ÿ                                                                     Ÿ
                                    6611=            =Ÿ  VARIABLE ENTRY (COMMON)                                            Ÿ
                                    6612=            =Ÿ                                                                     Ÿ
                                    6613=            =Ÿ                                                                     Ÿ
                                    6614=            =Ÿ                                                                     Ÿ
                                                      ¾þþþþþþþþþþþþþþþþþþþþþþþþþþþþþþþþþþþþþþþþþþþþþþþþþþþþþþþþþþþþþþþþþþþþþ»
0000000                00000 00050  6615             =VNENTRY  RECORD BEGIN ,            VARIABLE ENTRY
                                    6623= 1          =     ¿þþþþþþþþþþþþþþþþþþþþþþþþþþþþþþþþþþþþþþþþþþþþþþþþþþþþþþþþþþþþþþÜ
                                    6624= 1          =     Ÿ  VARIABLE NAME, DESCRIPTION      (ONLY NAME SAVED WITH VAR)  Ÿ
                                    6625= 1          =     ¾þþþþþþþþþþþþþþþþþþþþþþþþþþþþþþþþþþþþþþþþþþþþþþþþþþþþþþþþþþþþþþ»
 000000                             6626  1          =VNDESC     DS    XL32                VARIABLE DESCRIPTOR,
 000020                00020 00000  6627  1          =           ORG   VNDESC
 000000                             6628  1          =VNNAME     DS    CL16                VARIABLE NAME
 000010 00                          6629  1          =VNPREFIX   FLAG  ,                   NAME PREFIX FLAGS
 VNPREFIX.VNPFX    01 EQ            6633  1          =           FLAG  (VNPFX,1,EQ)        X.
 VNPREFIX.VNPFGBL  02 EQ            6643  1          =           FLAG  (VNPFGBL,2,EQ)      GBL.
 VNPREFIX.VNPFSYS  03 EQ            6653  1          =           FLAG  (VNPFSYS,3,EQ)      SYS.
 VNPREFIX.VNPFSES  04 EQ            6663  1          =           FLAG  (VNPFSES,4,EQ)      SES.
 VNPREFIX.VNPFPUB  05 EQ            6673  1          =           FLAG  (VNPFPUB,5,EQ)      PUB.
 000011 00                          6683  1          =VNAFLAGS   FLAG  ,                   ARRAY FLAGS
 VNAFLAGS.VNADESC  80 ONES          6687  1          =           FLAG  VNADESC             GENERIC ARRAY DESCRIPTOR
 000012                             6692  1          =VNASUB1    DS    H                   ARRAY SUBSCRIPTS
 000014                             6693  1          =VNASUB2    DS    H
 000016                             6694  1          =VNASUB3    DS    H
 000018                             6695  1          =           DS    0S(VNDESC+L'VNDESC-*)
 000018                00018 00020  6696  1          =           ORG
                                    6697= 1          =     ¿þþþþþþþþþþþþþþþþþþþþþþþþÜ
                                    6698= 1          =     Ÿ  VARIABLE TYPE, VALUE  Ÿ
                                    6699= 1          =     ¾þþþþþþþþþþþþþþþþþþþþþþþþ»
 000020                             6700  1          =VNDATA     DS    XL16                VARIABLE TYPE/VALUE
 000030                00030 00020  6701  1          =           ORG   VNDATA
 000020                             6702  1          =VNSDATA    DS    XL6                 VARIABLE TYPE/VALUE (STRING)
 000026                00026 00020  6703  1          =           ORG   VNDATA
 000020                             6704  1          =VNADATA    DS    XL48                VARIABLE TYPE/VALUE (ARRAY)
 000050                00050 00020  6705  1          =           ORG   VNDATA
                                    6706  1          =
 000020 00                          6707  1          =VNTYPE     FLAG  ,                   VARIABLE TYPE
 VNTYPE.VNSTRING   01 EQ            6711  1          =           FLAG  (VNSTRING,1,EQ)     STRING
 VNTYPE.VNNUMB     02 EQ            6721  1          =           FLAG  (VNNUMB,2,EQ)       NUMBER
 VNTYPE.VNBOOL     03 EQ            6731  1          =           FLAG  (VNBOOL,3,EQ)       BOOLEAN
 VNTYPE.VNARRAY    04 EQ            6741  1          =           FLAG  (VNARRAY,4,EQ)      ARRAY
 VNTYPE.VNFN       05 EQ            6751  1          =           FLAG  (VNFN,5,EQ)         FUNCTION
 VNTYPE.VNPROC     06 EQ            6761  1          =           FLAG  (VNPROC,6,EQ)       PROCEDURE
 VNTYPE.VNLABEL    07 EQ            6771  1          =           FLAG  (VNLABEL,7,EQ)      LABEL
 000021 00                          6781  1          =VNDEBUG    FLAG  ,                   DEBUG FLAGS
 VNDEBUG.VNDBGET   80 ONES          6785  1          =           FLAG  VNDBGET             DEBUG VARIABLE FETCH
 VNDEBUG.VNDBSAVE  40 ONES          6790  1          =           FLAG  VNDBSAVE            DEBUG VARIABLE STORE
 VNDEBUG.VNDBTRAC  20 ONES          6795  1          =           FLAG  VNDBTRAC            DEBUG TRACE THIS PROC/LABEL
 VNDEBUG.VNDBSTOP  10 ONES          6800  1          =           FLAG  VNDBSTOP            DEBUG STOP AT PROC/LABEL
 000022 00                          6805  1          =VNFLAGS1   FLAG  ,
1VARS     (VARS9014) (12:59) (15MAR04) DSECTS                                                                               Page    8
0Current Usings:  (CP,R11) (CV,R12)
0Loc    Object Code    Addr1 Addr2  Stmt Lv Lineno    Source Statement           (Hibal 5, Asmedit 3.3)  HLASM R4.0  2004/03/15 12.59
+___    ______ ____    _____ _____  ____ __ ______    ______ _________
0VNFLAGS1.VNINT    80 ONES          6809  1          =           FLAG  VNINT               ** INTEGER, OLD EXEC MODE !
 000023 00                          6814  1          =VNFLAGS2   FLAG  ,                   UNUSED
                                    6818= 1          =     ¿þþþþþþþþþþþþþþþÜ
                                    6819= 1          =     Ÿ  COMMON AREA  Ÿ
                                    6820= 1          =     ¾þþþþþþþþþþþþþþþ»
 000024                             6821  1          =           DS    0F
                                    6822  1          =VNAREA     EQU   *                   MULTI-USE AREA (COMMON)
                                    6823  1          =
 000024                00024 00024  6824  1          =           ORG   VNAREA
 000024                             6825  1          =           DS    0H                  (NUMBER), (BOOLEAN)
 000024                             6826  1          =VNVALUE    DS    XL12                ALL NUMBERS STORED AS PCKD DECIMAL
                                    6827  1          =
 000030                00030 00024  6828  1          =           ORG   VNAREA
 000024                             6829  1          =           DS    0H                  (STRING)
 000024                             6830  1          =VNSTRLEN   DS    H                   STRING LENGTH
                                    6831  1          =VNSTRLOC   EQU   *,1,C'C'            START OF STRING (IF ANY)
 000026                             6832  1          =           DS    0S(VNSDATA+L'VNSDATA-*)
                                    6833  1          =
 000026                00026 00024  6834  1          =           ORG   VNAREA
 000024                             6835  1          =           DS    0H                  (ARRAY)
 000024                             6836  1          =VNARG      DS    F                   ARRAY RECORD GROUP INFO POINTER
 000028                             6837  1          =VNASET     DS    F                   ARRAY SET NUMBER
 00002C                             6838  1          =VNAIDENT   DS    F                   ARRAY ID NUMBER
 000030 00                          6839  1          =VNATYPE    FLAG  ,                   ARRAY TYPE
 VNATYPE.VNASTR    01 EQ            6843  1          =           FLAG  (VNASTR,1,EQ)       STRINGS
 VNATYPE.VNANUMB   02 EQ            6853  1          =           FLAG  (VNANUMB,2,EQ)      NUMBERS
 VNATYPE.VNABOOL   03 EQ            6863  1          =           FLAG  (VNABOOL,3,EQ)      BOOLEANS
 000031 00                          6873  1          =VNAFLAG    FLAG  ,                   NOT USED
 000032                             6877  1          =VNADIM1    DS    H                   DIMENSION 1
 000034                             6878  1          =VNADIM2    DS    H                   DIMENSION 2
 000036                             6879  1          =VNADIM3    DS    H                   DIMENSION 3
 000038                             6880  1          =VNANAME    DS    CL(L'VNNAME)        ORIGINAL ARRAY NAME
 000048                             6881  1          =           DS    0S(VNADATA+L'VNADATA-*)
                                    6882  1          =
 000048                00048 00024  6883  1          =           ORG   VNAREA
 000024                             6884  1          =           DS    0H                  (PROCEDURE)
 000024                             6885  1          =VNPSTART   DS    F                   STARTING LINE NUMBER
 000028                             6886  1          =VNPEND     DS    F                   ENDING LINE NUMBER
 00002C                             6887  1          =           DS    0S(VNDATA+L'VNDATA-*)
                                    6888  1          =
 00002C                0002C 00024  6889  1          =           ORG   VNAREA
 000024                             6890  1          =           DS    0H                  (LABEL)
 000024                             6891  1          =VNLLINE    DS    F                   LABEL LINE NUMBER
 000028                             6892  1          =           DS    0S(VNDATA+L'VNDATA-*)
                                    6893  1          =
 000028                00028 00024  6894  1          =           ORG   VNAREA
 000024                             6895  1          =           DS    0H                  (FUNCTION)
 000024                             6896  1          =VNFSTART   DS    F                   STARTING LINE NUMBER
 000028                             6897  1          =VNFEND     DS    F                   ENDING LINE NUMBER
 00002C                             6898  1          =           DS    0S(VNDATA+L'VNDATA-*)
                                    6899  1          =
 00002C                0002C 00024  6900  1          =           ORG   VNAREA
 000024                             6901  1          =           DS    0H                  (SYSTEM VAR/FN/PROC)
 000024                             6902  1          =VNSYSRTN   DS    A                   ADDRESS OF SYSTEM ROUTINE
1VARS     (VARS9014) (12:59) (15MAR04) DSECTS                                                                               Page    9
0Current Usings:  (CP,R11) (CV,R12)
0Loc    Object Code    Addr1 Addr2  Stmt Lv Lineno    Source Statement           (Hibal 5, Asmedit 3.3)  HLASM R4.0  2004/03/15 12.59
+___    ______ ____    _____ _____  ____ __ ______    ______ _________
0000028                             6903  1          =           DS    0S(VNDATA+L'VNDATA-*)
 000028                00028 00050  6904  1          =           ORG
                                    6905  1          =*
                                    6906  1          =*
                                    6907  1          =NL         EQU   L'VNVALUE,,C'N'     NUMBER LENGTH
                                    6908  1          =MAXSTRLN   EQU   256,,C'N'           MAXIMUM STRING VAR LENGTH
                                    6909  1          =           DS    0S(MAXSTRLN-&LINESZ)
 000050                                   1          +           DS    0S(MAXSTRLN-235)
 000050                00050 00050  6910             =         END
-
-                                   6920              *
                                    6921              * ARRAY ELEMENTS NAME DEFINITION
                                    6922              *
                                    6923              * (EG. X(2,3) ELEMENT NAME IS: 'NAME<0024>*A<02><03><00>'
                                    6924              *  WHERE NAME IS THE FIRST 4 LETTERS OR THE ARRQY NAME, <0024> IS
                                    6925              *  THE ARRAY NUMBER (A UNIQUE FULLWORD), '*A' A CONSTANT, AND THE
                                    6926              *  REMAINDER ARE THE SUBSCRIPTS AS HEX HALFWORDS !)
                                    6927              *
                                    6928              ANAME    EQU   0,4                 ARRAY NAME
                                    6929              AIDENT   EQU   4,4                 ARRAY ID NUMBER
                                    6930              ACONST   EQU   8,2                 ARRAY CONSTANT = '*A'
                                    6931              ASUB1    EQU   10,2                ARRAY SUBSCRIPT 1
                                    6932              ASUB2    EQU   12,2                ARRAY SUBSCRIPT 2
                                    6933              ASUB3    EQU   14,2                ARRAY SUBSCRIPT 3
 000024                             6934                       DS    0S(L'VNNAME-16)
-
-                                   6936                       COPY  VPARM
                                    6937=            =¿þþþþþþþþþþþþþþþþþþþþþþþþþþþþþþþþþþþþþþþþþþþþþþþþþþþþþþþþþþþþþþþþþþþþþÜ
                                    6938=            =Ÿ                                                                     Ÿ
                                    6939=            =Ÿ                                                                     Ÿ
                                    6940=            =Ÿ  VARIABLE PARM AREA                                                 Ÿ
                                    6941=            =Ÿ                                                                     Ÿ
                                    6942=            =Ÿ                                                                     Ÿ
                                    6943=            =Ÿ                                                                     Ÿ
                                                      ¾þþþþþþþþþþþþþþþþþþþþþþþþþþþþþþþþþþþþþþþþþþþþþþþþþþþþþþþþþþþþþþþþþþþþþ»
0000000                00000 00150  6944             =VPARM    RECORD BEGIN ,            PARM AREA FOR VARIABLES
 000000                             6952  1          =           DS    (L'VNENTRY)X        IS A VARIABLE ENTRY
 000050                             6953  1          =           DS    (((MAXSTRLN-1)/16)*16+16)X  AND A STRING AREA
 000150                00150 00150  6954             =         END
 000024                00000 046B8  6963              WYLVARS  CSECT
1VARS     (VARS9014) (12:59) (15MAR04) INITIALIZE/FREE VARIABLE RECORD GROUP                                                Page   10
0Current Usings:  (CP,R11) (CV,R12)
0Loc    Object Code    Addr1 Addr2  Stmt Lv Lineno    Source Statement           (Hibal 5, Asmedit 3.3)  HLASM R4.0  2004/03/15 12.59
+___    ______ ____    _____ _____  ____ __ ______    ______ _________
0                                   6966              ¿þþþþþþþþþþþþþþþþþþþþþþþþþþþþþþþþþþþþþþþþþþþþþþþþþþþþþþþþþþþþþþþþþþþþþÜ
                                    6967              Ÿ                                                                     Ÿ
                                    6968              Ÿ                                                                     Ÿ
                                    6969              Ÿ  INITVARS - INITIALIZE OLD EXEC VARIABLES                           Ÿ
                                    6970              Ÿ                                                                     Ÿ
                                    6971              Ÿ                                                                     Ÿ
                                    6972              Ÿ  CALLED AT USER LOGON.   DESTROYS ANY EXISTING VARAIABLES!          Ÿ
                                    6973              Ÿ  SETS BASE VARIABLE SET.                                            Ÿ
                                    6974              Ÿ                                                                     Ÿ
                                    6975              Ÿ                                                                     Ÿ
                                                      ¾þþþþþþþþþþþþþþþþþþþþþþþþþþþþþþþþþþþþþþþþþþþþþþþþþþþþþþþþþþþþþþþþþþþþþ»
0000024 50E0 D000/9008_      00000  6976              INITVARS XPROC ,
 USING  *,R7
 00003E 58E0 7922/0DEE       00960  7016                       ACALL INITBASE            INITIALIZE N0-N9, S0-S9, W0-W9
 000044 4100 0002            00002  7020                       LA    R0,VBASE
 000048 5000 B844            00844  7021                       ST    R0,CPVSET#          SET BASE VARIABLE SET
 00004C 1BFF                        7022                       CLEAR R15
 00004E 18D8/9808 D004_             7026                       PEND  ,
 DROP   *,R7
1VARS     (VARS9014) (12:59) (15MAR04) DECLARE Command                                                                      Page   11
0Current Usings:  (CP,R11) (CV,R12)
0Loc    Object Code    Addr1 Addr2  Stmt Lv Lineno    Source Statement           (Hibal 5, Asmedit 3.3)  HLASM R4.0  2004/03/15 12.59
+___    ______ ____    _____ _____  ____ __ ______    ______ _________
0                                   7047              ¿þþþþþþþþþþþþþþþþþþþþþþþþþþþþþþþþþþþþþþþþþþþþþþþþþþþþþþþþþþþþþþþþþþþþþÜ
                                    7048              Ÿ                                                                     Ÿ
                                    7049              Ÿ                                                                     Ÿ
                                    7050              Ÿ  DECLARE - DECLARE VARIABLES                                        Ÿ
                                    7051              Ÿ                                                                     Ÿ
                                    7052              Ÿ  ON ENTRY:                                                          Ÿ
                                    7053              Ÿ       SCANCB - COMMAND W/DECLARE PART SCANNED                       Ÿ
                                    7054              Ÿ                                                                     Ÿ
                                    7055              Ÿ  ON EXIT:                                                           Ÿ
                                    7056              Ÿ       WE EXIT TO NEXT COMMAND, (OR ERROR)                           Ÿ
                                    7057              Ÿ                                                                     Ÿ
                                    7058              Ÿ                                                                     Ÿ
                                                      ¾þþþþþþþþþþþþþþþþþþþþþþþþþþþþþþþþþþþþþþþþþþþþþþþþþþþþþþþþþþþþþþþþþþþþþ»
0000000                00000 002D4  7059              DCLWA    RECORD BEGIN
                                    7067  1           DCLLIMIT   EQU   10                  MAXIMUM VARS PER DECLARE
 000000 00                          7068  1           DCLTYPE    FLAG  ,
 DCLTYPE.DCLBOOL   80 ONES          7072  1                      FLAG  DCLBOOL             DECLARE BOOLEAN
 DCLTYPE.DCLNUMB   40 ONES          7077  1                      FLAG  DCLNUMB             DECLARE NUMBER
 DCLTYPE.DCLSTR    20 ONES          7082  1                      FLAG  DCLSTR              DECLARE STRING
 000004                             7087  1                      DS    0F
 000004                             7088  1           DCLLIST    DS    XL((L'VNDESC)*(DCLLIMIT+1))  DECLARE LIST
 000164                             7089  1           DCLVDESC   DS    XL(L'VNDESC)        SAVE AREA
 000184                             7090  1           DCLVAR     DS    XL(L'VPARM)
 0002D4                002D4 002D4  7091                       END
                                    7100              *
                                    7101              *
 00005C 50E0 D000/9008_      00000  7102              DECLARE  XPROC DCLWA
 USING  *,R7
 USING  DCLWA-(4+36),R8
 000076 4150 8028            00000  7153                       LA    R5,DCLWA
 USING  DCLWA,R5                    7154                       USING DCLWA,R5
 USING  VNENTRY,R6                  7163                       USING VNENTRY,R6
 00007A 4160 5184            00184  7172                       LA    R6,DCLVAR
 00007E D7FF 5004 5004_00004 00004  7173                       CLEAR DCLLIST
                                    7181
                                    7182                       COMMENT                   SCAN DECLARE OPTIONS
 00008A 9200 5000      00000        7183                       CLEAR DCLTYPE
 00008E 5810 B08C/1B00_      0008C  7190                       SCAN DECPRT                  IE. BOOLEAN/NUMBER/STRING
 0000E0 58E0 78F6/0DEE       0096C  7222                       SCANCHK
 0000E6 1BFF                        7227                       CLEAR R15
                                    7231
 0000E8 9500 5000/4770_00000        7232                       IF    (DCLTYPE,EQ,0),BEGIN
 0000F0 4110 7974/4100_      009EA  7250  1                      ERROR 'Missing DECLARE type specification.'
 0000FC                             7257                       END
                                    7261
                                    7262                       COMMENT                   GET LIST OF VARIABLE NAMES
 0000FC 58E0 B08C/581E_      0008C  7263                       SCINFO ,                  R1,R0 - LOC, LEN OF VAR LIST
 00010A 1200/4720 70A6              7272                       IF    (R0,NP),BEGIN
 000110 4110 7950/4100_      009C6  7286  1                      ERROR 'Missing variable list for DECLARE.'
 00011C                             7293                       END
 00011C 58E0 78FA/0DEE       00970  7297                       VCALL LRTRIM
                                    7301
                                    7302                       COMMENT                   SCAN THRU VARIABLE LIST
1VARS     (VARS9014) (12:59) (15MAR04) DECLARE Command                                                                      Page   12
0Current Usings:  (DCLWA,R5) (VNENTRY,R6) (*,R7) (DCLWA-(4+36),R8) (CP,R11) (CV,R12)
0Loc    Object Code    Addr1 Addr2  Stmt Lv Lineno    Source Statement           (Hibal 5, Asmedit 3.3)  HLASM R4.0  2004/03/15 12.59
+___    ______ ____    _____ _____  ____ __ ______    ______ _________
0                                   7303                       COMMENT
 000122 4120 5004            00004  7304                       LA    R2,DCLLIST          R2 - VAR LIST
 000126 1B33                        7305                       CLEAR R3                  R3 - VAR COUNT
 000128 1200/47D0 7130              7309                       WHILE (R0,POS),BEGIN
 00012E 58E0 78FE/0DEE       00974  7325  1                      ACALL SCNVDESC
 000134 4770 C7D6            007D6  7329  1                      BNZ   CVERROR
 000138 4122 0020            00020  7330  1                      LA    R2,L'VNDESC(R2)
 00013C 4133 0001            00001  7331  1                      LA    R3,1(R3)
 000140 5930 7902/47D0_      00978  7332  1                      IF    (R3,GT,DCLLIMIT),BEGIN
 000148 4110 7997/4100_      00A0D  7349  2                        TSEG  'Too many (>10) variables in DECLARE list.  '
 00015A 4110 78B2/4100_      00928  7367  2                        ERROR 'Command invalid.'
 000166                             7374  1                      END
                                    7378  1                      COMMENT                   SKIP ANY INTERMEDIATE COMMAS
 000166 9540 1000/4770_00000        7379  1                      WHILE ((@R1,EQ,' '),AND,(R0,POS)),BEGIN
 000174 5E10 790A            00980  7410  2                        INCR  R1
 000178 0600                        7413  2                        DECR  R0
 00017A 47F0 70F0            00166  7415  1                      END
 00017E 956B 1000/4770_00000        7420  1                      IF    ((@R1,EQ,','),AND,(R0,POS)),BEGIN
 00018C 5E10 790A            00980  7449  2                        INCR  R1
 000190 0600                        7452  2                        DECR  R0
 000192                             7454  1                      END
 000192 955E 1000/4770_00000        7458  1                      IF    ((@R1,EQ,';'),AND,(R0,POS)),BEGIN
 0001A0 1B00                        7487  2                        CLEAR R0
 0001A2                             7491  1                      END
 0001A2 47F0 70B2            00128  7495                       END
                                    7500
                                    7501                       COMMENT                   CHECK VARIABLE LIST
 0001A6 4120 5004            00004  7502                       LA    R2,DCLLIST
 0001AA 9500 2000/4780_00000        7503                       WHILE (@R2,NE,0),BEGIN
 0001B2 1862                        7522  1                      LR    R6,R2
 0001B4 9503 6010/4770_00010        7523  1                      IF    VNPFSYS,BEGIN       NO SYSTEM VARIABLES
 0001BC 58E0 790E/0DEE       00984  7538  2                        ACALL SEGVNAME
 0001C2 4110 79C2/4100_      00A38  7542  2                        ERROR ': invalid.  System variables may not be declared.'
 0001CE                             7549  1                      END
                                    7553  1
 0001CE 9501 6010/4770_00010        7554  1                      IF    VNPFX,BEGIN        CHECK XPROC 'X.' VARIABLES,
 0001D6 D503 7912 B778_00988 00778  7569  2                        IF    (CP#XSET,EQ,=A(CP#XOLD)),BEGIN   XPROC MUST BE ACTIVE
 0001E0 58E0 790E/0DEE       00984  7586  3                          ACALL SEGVNAME
 0001E6 4110 7916/4100_      0098C  7590  3                          ERROR ': invalid.  No XPROC active.'
 0001F2                             7597  2                        END
 0001F2                             7601  1                      END
                                    7605  1
 0001F2 9505 6010/4770_00010        7606  1                      IF    VNPFPUB,BEGIN       CHECK PERMITS FOR PUB VARS
 0001FA 9120 B3BE/4710_003BE        7621  2                        IF    ~CPSFSPR,BEGIN
 000202 4110 79F3/4100_      00A69  7636  3                          ERROR 'Write access for PUBLIC variables denied.'
 00020E                             7643  2                        END
 00020E                             7647  1                      END
                                    7651  1
 00020E 58E0 7932/0DEE       009A8  7652  1                      ACALL CHKRESVD            NO RESERVED WORDS
 000214 4770 71B4            0022A  7656  1                      IF    Z,BEGIN
 000218 58E0 790E/0DEE       00984  7667  2                        ACALL SEGVNAME
 00021E 4110 78C2/4100_      00938  7671  2                        ERROR ': reserved word.  Invalid variable name.'
 00022A                             7678  1                      END
                                    7682  1
1VARS     (VARS9014) (12:59) (15MAR04) DECLARE Command                                                                      Page   13
0Current Usings:  (DCLWA,R5) (VNENTRY,R6) (*,R7) (DCLWA-(4+36),R8) (CP,R11) (CV,R12)
0Loc    Object Code    Addr1 Addr2  Stmt Lv Lineno    Source Statement           (Hibal 5, Asmedit 3.3)  HLASM R4.0  2004/03/15 12.59
+___    ______ ____    _____ _____  ____ __ ______    ______ _________
000022A D21F 5164 6000 00164 00000  7683  1                      MVC   DCLVDESC,VNDESC     NO PREVIOUSLY DEFINED VARIABLES
 000230 D701 6012 6012 00012 00012  7684  1                      CLEAR VNASUB1               (WE MUST CLEAR SUBSCRIPTS
 000236 D701 6014 6014 00014 00014  7691  1                      CLEAR VNASUB2                TO CHECK ARRAY DESCRIPTOR)
 00023C D701 6016 6016 00016 00016  7698  1                      CLEAR VNASUB3
 000242 4110 5184            00184  7705  1                      LA    R1,DCLVAR
                                    7706  1                      COMMENT @R2 - VAR NAME
 000246 58E0 7936/0DEE       009AC  7707  1                      ACALL GETVAR
 00024C 4770 71EC            00262  7711  1                      IF    Z,BEGIN
 000250 58E0 790E/0DEE       00984  7722  2                        ACALL SEGVNAME
 000256 4110 7A1C/4100_      00A92  7726  2                        ERROR ': invalid.  Variable previously declared.'
 000262                             7733  1                      END
 000262 D21F 6000 5164 00000 00164  7737  1                      MVC   VNDESC,DCLVDESC       (SUBSCRIPTS RESTORED)
                                    7738  1
 000268 4130 5004            00004  7739  1                      LA    R3,DCLLIST          NO DECLARING VARIABLES TWICE
 00026C 1932/47B0 722A              7740  1                      WHILE (R3,LT,R2),BEGIN    CHECK IF VAR NAME APPEARS TWICE
 000272 D50F 6000 3000 00000 00000  7757  2                        CLC   VNNAME,0(R3)
 000278 4770 7222            00298  7758  2                        IF    E,BEGIN
 00027C D500 6010 3010 00010 00010  7769  3                          CLC   VNPREFIX,VNPREFIX-VNENTRY(R3)
 000282 4770 7222            00298  7770  3                          IF    E,BEGIN
 000286 58E0 790E/0DEE       00984  7781  4                            ACALL SEGVNAME
 00028C 4110 7A45/4100_      00ABB  7785  4                            ERROR ': invalid.  Variable may not be DECLARED twice.'
 000298                             7792  3                          END
 000298                             7796  2                        END
 000298 4133 0020            00020  7800  2                        LA    R3,L'VNDESC(R3)
 00029C 47F0 71F6            0026C  7801  1                      END
 0002A0 4122 0020            00020  7806  1                      LA    R2,L'VNDESC(R2)
 0002A4 47F0 7134            001AA  7807                       END
                                    7812
                                    7813                       COMMENT                   DECLARE STRING
 0002A8 9120 5000/47E0_00000        7814                       IF    DCLSTR,BEGIN
 0002B0 4160 5184            00184  7829  1                      LA    R6,DCLVAR
 0002B4 D705 6020 6020 00020 00020  7830  1                      CLEAR VNSDATA
 0002BA 9201 6020      00020        7837  1                      SET   VNSTRING
 0002BE D701 6024 6024 00024 00024  7843  1                      CLEAR VNSTRLEN            SET STRING DEFAULT, ''
 0002C4 4100 0004            00004  7850  1                      LA    R0,4                ALLOW NON-DELCARED SAVE
 0002C8 4110 6000            00000  7851  1                      LA    R1,VNENTRY          R1 - DEFAULT VALUE
 0002CC 4120 5004            00004  7852  1                      LA    R2,DCLLIST          R2 - VARIABLE DESCRIPTOR
 0002D0 9500 2000/4780_00000        7853  1                      WHILE (@R2,NE,0),BEGIN    LOOP DECLARING VARS
 0002D8 1862                        7872  2                        LR    R6,R2
 0002DA D501 78AA 6012_00920 00012  7873  2                        IF    (VNASUB1,EQ,0),BEGIN  SIMPLE DECLARE
 0002E4 58E0 793A/0DEE       009B0  7891  3                          ACALL SAVEVAR
 0002EA 4770 C7D6            007D6  7895  3                          BNZ   CVERROR
 0002EE                             7896  2                        END
 0002EE D501 78AA 6012_00920 00012  7900  2                        IF    (VNASUB1,NE,0),BEGIN  ARRAY DECLARE
 0002F8 58E0 793E/0DEE       009B4  7918  3                          ACALL DCLARRAY
 0002FE 4770 C7D6            007D6  7922  3                          BNZ   CVERROR
 000302                             7923  2                        END
 000302 4122 0020            00020  7927  2                        LA    R2,L'VNDESC(R2)
 000306 47F0 725A            002D0  7928  1                      END
 00030A                             7933                       END
                                    7937
                                    7938                       COMMENT                   DECLARE NUMBER
 00030A 7298/47F0 72FE_0030A 002AE  7939                       ELSEIF DCLNUMB,BEGIN
 000316 4160 5184            00184  7963  1                      LA    R6,DCLVAR
1VARS     (VARS9014) (12:59) (15MAR04) DECLARE Command                                                                      Page   14
0Current Usings:  (DCLWA,R5) (VNENTRY,R6) (*,R7) (DCLWA-(4+36),R8) (CP,R11) (CV,R12)
0Loc    Object Code    Addr1 Addr2  Stmt Lv Lineno    Source Statement           (Hibal 5, Asmedit 3.3)  HLASM R4.0  2004/03/15 12.59
+___    ______ ____    _____ _____  ____ __ ______    ______ _________
000031A D70F 6020 6020 00020 00020  7964  1                      CLEAR VNDATA
 000320 9202 6020      00020        7971  1                      SET   VNNUMB
 000324 4130 C5C4            005C4  7977  1                      LA    R3,CVPKZERO
 000328 D20B 6024 3000 00024 00000  7978  1                      MVC   VNVALUE(NL),0(R3)   SET NUMBER DEFAULT, 0 (ZERO)
 00032E 4100 0004            00004  7979  1                      LA    R0,4                ALLOW NON-DELCARED SAVE
 000332 4110 6000            00000  7980  1                      LA    R1,VNENTRY          R1 - DEFAULT VALUE
 000336 4120 5004            00004  7981  1                      LA    R2,DCLLIST          R2 - VARIABLE DESCRIPTOR
 00033A 9500 2000/4780_00000        7982  1                      WHILE (@R2,NE,0),BEGIN    LOOP DECLARING VARS
 000342 1862                        8001  2                        LR    R6,R2
 000344 D501 78AA 6012_00920 00012  8002  2                        IF    (VNASUB1,EQ,0),BEGIN  SIMPLE DECLARE
 00034E 58E0 793A/0DEE       009B0  8020  3                          ACALL SAVEVAR
 000354 4770 C7D6            007D6  8024  3                          BNZ   CVERROR
 000358                             8025  2                        END
 000358 D501 78AA 6012_00920 00012  8029  2                        IF    (VNASUB1,NE,0),BEGIN  ARRAY DECLARE
 000362 58E0 793E/0DEE       009B4  8047  3                          ACALL DCLARRAY
 000368 4770 C7D6            007D6  8051  3                          BNZ   CVERROR
 00036C                             8052  2                        END
 00036C 4122 0020            00020  8056  2                        LA    R2,L'VNDESC(R2)
 000370 47F0 72C4            0033A  8057  1                      END
 000374                             8062                       END
                                    8066
                                    8067                       COMMENT                   DECLARE BOOLEAN
 000374 7302/47F0 7368_00374 00314  8068                       ELSEIF DCLBOOL,BEGIN
 000380 4160 5184            00184  8092  1                      LA    R6,DCLVAR
 000384 D70F 6020 6020 00020 00020  8093  1                      CLEAR VNDATA
 00038A 9203 6020      00020        8100  1                      SET   VNBOOL
 00038E 4130 C5C4            005C4  8106  1                      LA    R3,CVPKZERO
 000392 D20B 6024 3000 00024 00000  8107  1                      MVC   VNVALUE(NL),0(R3)   SET BOOLEAN DEFAULT, FALSE
 000398 4100 0004            00004  8108  1                      LA    R0,4                ALLOW NON-DELCARED SAVE
 00039C 4110 6000            00000  8109  1                      LA    R1,VNENTRY          R1 - DEFAULT VALUE
 0003A0 4120 5004            00004  8110  1                      LA    R2,DCLLIST          R2 - VARIABLE DESCRIPTOR
 0003A4 9500 2000/4780_00000        8111  1                      WHILE (@R2,NE,0),BEGIN    LOOP DECLARING VARS
 0003AC 1862                        8130  2                        LR    R6,R2
 0003AE D501 78AA 6012_00920 00012  8131  2                        IF    (VNASUB1,EQ,0),BEGIN  SIMPLE DECLARE
 0003B8 58E0 793A/0DEE       009B0  8149  3                          ACALL SAVEVAR
 0003BE 4770 C7D6            007D6  8153  3                          BNZ   CVERROR
 0003C2                             8154  2                        END
 0003C2 D501 78AA 6012_00920 00012  8158  2                        IF    (VNASUB1,NE,0),BEGIN  ARRAY DECLARE
 0003CC 58E0 793E/0DEE       009B4  8176  3                          ACALL DCLARRAY
 0003D2 4770 C7D6            007D6  8180  3                          BNZ   CVERROR
 0003D6                             8181  2                        END
 0003D6 4122 0020            00020  8185  2                        LA    R2,L'VNDESC(R2)
 0003DA 47F0 732E            003A4  8186  1                      END
 0003DE                             8191                       END
                                    8195
                                    8196                       COMMENT                   DECLARE STRING
 0003DE 736C/47F0 73CA_003DE 0037E  8197                       ELSEIF DCLSTR,BEGIN
 0003EA 4160 5184            00184  8221  1                      LA    R6,DCLVAR
 0003EE D705 6020 6020 00020 00020  8222  1                      CLEAR VNSDATA
 0003F4 9201 6020      00020        8229  1                      SET   VNSTRING
 0003F8 D701 6024 6024 00024 00024  8235  1                      CLEAR VNSTRLEN            SET STRING DEFAULT, ''
 0003FE 4110 6000            00000  8242  1                      LA    R1,VNENTRY          R1 - DEFAULT VALUE
 000402 4120 5004            00004  8243  1                      LA    R2,DCLLIST          R2 - VARIABLE DESCRIPTOR
 000406 9500 2000/4780_00000        8244  1                      WHILE (@R2,NE,0),BEGIN    LOOP DECLARING VARS
1VARS     (VARS9014) (12:59) (15MAR04) DECLARE Command                                                                      Page   15
0Current Usings:  (DCLWA,R5) (VNENTRY,R6) (*,R7) (DCLWA-(4+36),R8) (CP,R11) (CV,R12)
0Loc    Object Code    Addr1 Addr2  Stmt Lv Lineno    Source Statement           (Hibal 5, Asmedit 3.3)  HLASM R4.0  2004/03/15 12.59
+___    ______ ____    _____ _____  ____ __ ______    ______ _________
000040E 1862                        8263  2                        LR    R6,R2
 000410 D501 78AA 6012_00920 00012  8264  2                        IF    (VNASUB1,EQ,0),BEGIN  SIMPLE DECLARE
 00041A 58E0 793A/0DEE       009B0  8282  3                          ACALL SAVEVAR
 000420 4770 C7D6            007D6  8286  3                          BNZ   CVERROR
 000424                             8287  2                        END
 000424 D501 78AA 6012_00920 00012  8291  2                        IF    (VNASUB1,NE,0),BEGIN  ARRAY DECLARE
 00042E 58E0 793E/0DEE       009B4  8309  3                          ACALL DCLARRAY
 000434 4770 C7D6            007D6  8313  3                          BNZ   CVERROR
 000438                             8314  2                        END
 000438 4122 0020            00020  8318  2                        LA    R2,L'VNDESC(R2)
 00043C 47F0 7390            00406  8319  1                      END
 000440                             8324                       END
                                    8328
                                    8329                       COMMENT                   IF NOT STRING, NUMB, OR BOOLEAN
 000440 73CE/47F0 73D0 00440 003E8  8330                       ELSE  BEGIN
 000444 0000                        8341  1                      BOMB
 000446                             8343                       END
                                    8347
 000446 47F0 C7DE            007DE  8348                       B     CVNEXT              GET OUT OF HERE BOZO
 00044A 1BFF                        8349                       CLEAR R15
 00044C 18D8/9808 D004_             8353                       PEND  ,
 DROP   DCLWA-(4+36),R8
 DROP   *,R7
-
-00045C E2E3D9C9D5C74040_           8379              DECPRT   SCKW  STRING,DECSTR       DECLARE TYPES
 000484 E2E3D94040404040_           8394                       SCKW  STR,DECSTR
 0004AC D5E4D4C2C5D94040_           8409                       SCKW  NUMBER,DECNUMB
 0004D4 D5E4D4C240404040_           8424                       SCKW  NUMB,DECNUMB
 0004FC D5E4D44040404040_           8439                       SCKW  NUM,DECNUMB
 000524 C2D6D6D3C5C1D540_           8454                       SCKW  BOOLEAN,DECBOOL
 00054C C2D6D6D340404040_           8469                       SCKW  BOOL,DECBOOL
 000574 4040404040404040_           8484                       SCKW  ,NOTYPE
-                                   8500
 00059C 50E0 D000/9008_      00000  8501              DECSTR   PROC  ,                   DECLARE STRING
 USING  *,R7
 0005B6 9620 5000      00000        8540                       SET   DCLSTR
 0005BA 41F0 0004            00004  8546                       LA    R15,4
 0005BE 18D8/9808 D004_             8547                       PEND
 DROP   *,R7
                                    8567
 0005CC 50E0 D000/9008_      00000  8568              DECNUMB  PROC  ,                   DECLARE NUMBER
 USING  *,R7
 0005E6 9640 5000      00000        8607                       SET   DCLNUMB
 0005EA 41F0 0004            00004  8613                       LA    R15,4
 0005EE 18D8/9808 D004_             8614                       PEND
 DROP   *,R7
                                    8634
 0005FC 50E0 D000/9008_      00000  8635              DECBOOL  PROC  ,                   DECLARE BOOLEAN
1VARS     (VARS9014) (12:59) (15MAR04) DECLARE Command                                                                      Page   16
0Current Usings:  (DCLWA,R5) (VNENTRY,R6) (*,R7) (CP,R11) (CV,R12)
0Loc    Object Code    Addr1 Addr2  Stmt Lv Lineno    Source Statement           (Hibal 5, Asmedit 3.3)  HLASM R4.0  2004/03/15 12.59
+___    ______ ____    _____ _____  ____ __ ______    ______ _________
0USING  *,R7
 000616 9680 5000      00000        8674                       SET   DCLBOOL
 00061A 41F0 0004            00004  8680                       LA    R15,4
 00061E 18D8/9808 D004_             8681                       PEND
 DROP   *,R7
                                    8701
 00062C 50E0 D000/9008_      00000  8702              NOTYPE   PROC  ,
 USING  *,R7
 000646 41F0 B050/58E0_      00050  8741                       TSEG  (R1),(R0)
 000650 4110 74A4/4100_      00AEA  8765                       ERROR ': invalid DECLARE type specification.'
 00065C 18D8/9808 D004_             8772                       PEND  ,
 DROP   *,R7
 DROP   DCLWA,R5                    8792                       DROP  R5
 DROP   VNENTRY,R6                  8799                       DROP  R6
1VARS     (VARS9014) (12:59) (15MAR04) DECLARE Command                                                                      Page   17
0Current Usings:  (CP,R11) (CV,R12)
0Loc    Object Code    Addr1 Addr2  Stmt Lv Lineno    Source Statement           (Hibal 5, Asmedit 3.3)  HLASM R4.0  2004/03/15 12.59
+___    ______ ____    _____ _____  ____ __ ______    ______ _________
0                                   8807              ¿þþþþþþþþþþþþþþþþþþþþþþþþþþþþþþþþþþþþþþþþþþþþþþþþþþþþþþþþþþþþþþþþþþþþþÜ
                                    8808              Ÿ                                                                     Ÿ
                                    8809              Ÿ                                                                     Ÿ
                                    8810              Ÿ  DCLARRAY - DECLARE (INITIALIZE) ARRAY                              Ÿ
                                    8811              Ÿ                                                                     Ÿ
                                    8812              Ÿ  ON ENTRY:                                                          Ÿ
                                    8813              Ÿ      @R1 - DEFAULT VARIABLE VALUE                                   Ÿ
                                    8814              Ÿ      @R2 - VARIABLE NAME DESCRIPTOR (CONTAINS NAME/SUBSCRIPTS)      Ÿ
                                    8815              Ÿ                                                                     Ÿ
                                    8816              Ÿ  ON EXIT:                                                           Ÿ
                                    8817              Ÿ      R15 - CC=ZERO                                                  Ÿ
                                    8818              Ÿ                                                                     Ÿ
                                    8819              Ÿ      ARRAY DESCRIPTOR SAVED, AND ARRAY INITIALIZED !                Ÿ
                                    8820              Ÿ                                                                     Ÿ
                                    8821              Ÿ                                                                     Ÿ
                                                      ¾þþþþþþþþþþþþþþþþþþþþþþþþþþþþþþþþþþþþþþþþþþþþþþþþþþþþþþþþþþþþþþþþþþþþþ»
0000000                00000 003FC  8822              DXWA     RECORD BEGIN
 000000                             8830  1           DXCUR1     DS    H                   CURRENT ARRAY ELEMENT
 000002                             8831  1           DXCUR2     DS    H
 000004                             8832  1           DXCUR3     DS    H
 000006                             8833  1           DXDIM1     DS    H                   MAXIMUM ARRAY DIMENSIONS
 000008                             8834  1           DXDIM2     DS    H
 00000A                             8835  1           DXDIM3     DS    H
 00000C                             8836  1           DXNAME     DS    XL(L'VPARM)         ARRAY DEFINITION ENTRY
 00015C                             8837  1           DXELEM     DS    XL(L'VPARM)         ARRAY ELEMENT ENTRIES
 0002AC                             8838  1           DXVAL      DS    XL(L'VPARM)         ARRAY ELEMENT VALUE
 0003FC                003FC 003FC  8839                       END
                                    8848              *
                                    8849              *
 00066A 50E0 D000/9008_      00000  8850              DCLARRAY PROC  DXWA
 USING  *,R7
 USING  DXWA-(4+36),R8
 USING  VNENTRY,R6                  8900                       USING VNENTRY,R6
                                    8909
                                    8910                       COMMENT                   INITIALIZE WORK AREA
 000684 D701 8028 8028 00000 00000  8911                       CLEAR DXCUR1
 00068A D701 802A 802A 00002 00002  8918                       CLEAR DXCUR2
 000690 D701 802C 802C 00004 00004  8925                       CLEAR DXCUR3
 000696 1862                        8932                       LR    R6,R2               SET ARRAY DIMENSIONS
 000698 D201 802E 6012 00006 00012  8933                       MVC   DXDIM1,VNASUB1
 00069E D201 8030 6014 00008 00014  8934                       MVC   DXDIM2,VNASUB2
 0006A4 D201 8032 6016 0000A 00016  8935                       MVC   DXDIM3,VNASUB3
 0006AA 4160 8034            0000C  8936                       LA    R6,DXNAME           SET ARRAY NAME
 0006AE D21F 6000 2000 00000 00000  8937                       MVC   VNDESC(L'VNDESC),0(R2)
 0006B4 D701 6012 6012 00012 00012  8938                       CLEAR VNASUB1
 0006BA D701 6014 6014 00014 00014  8945                       CLEAR VNASUB2
 0006C0 D701 6016 6016 00016 00016  8952                       CLEAR VNASUB3
 0006C6 4120 82D4            002AC  8959                       LA    R2,DXVAL            SET ELEMENT VALUE
 0006CA 4130 0150            00150  8960                       LA    R3,L'DXVAL
 0006CE 1841                        8961                       LR    R4,R1
 0006D0 1853                        8962                       LR    R5,R3
 0006D2 0E24                        8963                       MVCL  R2,R4
                                    8964
1VARS     (VARS9014) (12:59) (15MAR04) DECLARE Command                                                                      Page   18
0Current Usings:  (VNENTRY,R6) (*,R7) (DXWA-(4+36),R8) (CP,R11) (CV,R12)
0Loc    Object Code    Addr1 Addr2  Stmt Lv Lineno    Source Statement           (Hibal 5, Asmedit 3.3)  HLASM R4.0  2004/03/15 12.59
+___    ______ ____    _____ _____  ____ __ ______    ______ _________
0                                   8965                       COMMENT                   CREATE ARRAY DESCRIPTOR
 0006D4 4160 8034            0000C  8966                       LA    R6,DXNAME
 0006D8 D72F 6020 6020 00020 00020  8967                       CLEAR VNADATA
 0006DE 9204 6020      00020        8974                       SET   VNARRAY             SET ARRAY TYPE, NAME, DIMESIONS
 0006E2 D20F 6038 6000 00038 00000  8980                       MVC   VNANAME,VNNAME
 0006E8 D201 6032 802E 00032 00006  8981                       MVC   VNADIM1,DXDIM1
 0006EE D201 6034 8030 00034 00008  8982                       MVC   VNADIM2,DXDIM2
 0006F4 D201 6036 8032 00036 0000A  8983                       MVC   VNADIM3,DXDIM3
 0006FA 4120 6000            00000  8984                       LA    R2,VNENTRY          SET ARRAY RECORD GROUP, SET #
 0006FE 58E0 7334/0DEE       009B8  8985                       ACALL GETVRG                  AND ARRAY ID NUMBER
 000704 5000 6024            00024  8989                       ST    R0,VNARG
 000708 4120 6000            00000  8990                       LA    R2,VNENTRY
 00070C 58E0 7338/0DEE       009BC  8991                       ACALL GETVSET
 000712 5000 6028            00028  8995                       ST    R0,VNASET
 000716 5810 B840            00840  8996                       L     R1,CPARRAY#
 00071A 4111 0001            00001  8997                       LA    R1,1(R1)
 00071E 5010 B840            00840  8998                       ST    R1,CPARRAY#
 000722 5010 602C            0002C  8999                       ST    R1,VNAIDENT
 000726 1211/4720 70C0_             9000                       FAIL  (R1,NP),ARRAY1,'Too many arrays declared. '
 000744 4160 82D4            002AC  9026                       LA    R6,DXVAL            SET ARRAY TYPE
 000748 9501 6020/4770_00020        9027                       IF    VNSTRING,BEGIN
 000750 4160 8034            0000C  9042  1                      LA    R6,DXNAME
 000754 9201 6030      00030        9043  1                      SET   VNASTR
 000758                             9049                       END
 000758 70D8/47F0 70E8_00758 0074E  9053                       ELSEIF VNNUMB,BEGIN
 000764 4160 8034            0000C  9077  1                      LA    R6,DXNAME
 000768 9202 6030      00030        9078  1                      SET   VNANUMB
 00076C                             9084                       END
 00076C 70EC/47F0 70FC_0076C 00762  9088                       ELSEIF VNBOOL,BEGIN
 000778 4160 8034            0000C  9112  1                      LA    R6,DXNAME
 00077C 9203 6030      00030        9113  1                      SET   VNABOOL
 000780                             9119                       END
 000780 7100/47F0 7102 00780 00776  9123                       ELSE  BEGIN
 000784 0000                        9134  1                      BOMB
 000786                             9136                       END
                                    9140
                                    9141                       COMMENT                   SAVE ARRAY DESCRIPTOR
 000786 4160 8034            0000C  9142                       LA    R6,DXNAME           R6 - ARRAY DESCRIPTOR ENTRY
                                    9143                       COMMENT
 00078A 4100 0004            00004  9144                       LA    R0,4
 00078E 4110 6000            00000  9145                       LA    R1,VNENTRY
 000792 4120 6000            00000  9146                       LA    R2,VNENTRY
 000796 58E0 732C/0DEE       009B0  9147                       ACALL SAVEVAR
 00079C 4770 C7D6            007D6  9151                       BNZ   CVERROR
                                    9152
                                    9153                       COMMENT                   SET ELEMENT ROOT NAME
 0007A0 4160 8184            0015C  9154                       LA    R6,DXELEM
 0007A4 D74F 6000 6000 00000 00000  9155                       CLEAR VNENTRY
 0007AA D203 6000 8034 00000 0000C  9162                       MVC   VNNAME(4),VNNAME-VNENTRY+DXNAME SET ELEMENT NAME
 0007B0 D203 6004 8060 00004 00038  9163                       MVC   VNNAME+AIDENT(4),(VNAIDENT-VNENTRY)+DXNAME
 0007B6 D201 6008 733C 00008 009C0  9164                       MVC   VNNAME+ACONST(L'ACONST),=CL4'*A'
 0007BC D200 6010 8044 00010 0001C  9165                       MVC   VNPREFIX,VNPREFIX-VNENTRY+DXNAME
                                    9166
                                    9167                       COMMENT                   INITIALIZE 1 DIMENSIONAL ARRAY
1VARS     (VARS9014) (12:59) (15MAR04) DECLARE Command                                                                      Page   19
0Current Usings:  (VNENTRY,R6) (*,R7) (DXWA-(4+36),R8) (CP,R11) (CV,R12)
0Loc    Object Code    Addr1 Addr2  Stmt Lv Lineno    Source Statement           (Hibal 5, Asmedit 3.3)  HLASM R4.0  2004/03/15 12.59
+___    ______ ____    _____ _____  ____ __ ______    ______ _________
00007C2 D501 729C 8030_00920 00008  9168                       IF    (DXDIM2,EQ,0),BEGIN
 0007CC D201 8028 7364 00000 009E8  9186  1                      MVC   DXCUR1(2),=H'1'
 0007D2 D501 8028 802E_00000 00006  9187  1                      WHILE (DXCUR1,LE,DXDIM1),BEGIN
 0007DC D201 600A 8028 0000A 00000  9207  2                        MVC   VNNAME+ASUB1(2),DXCUR1
 0007E2 4100 0004            00004  9208  2                        LA    R0,4
 0007E6 4110 82D4            002AC  9209  2                        LA    R1,DXVAL
 0007EA 4120 6000            00000  9210  2                        LA    R2,VNENTRY
 0007EE 58E0 732C/0DEE       009B0  9211  2                        ACALL SAVEVAR             SAVE ELEMENTS
 0007F4 4770 C7D6            007D6  9215  2                        BNZ   CVERROR
 0007F8 4830 8028            00000  9216  2                        LH    R3,DXCUR1
 0007FC 4133 0001            00001  9217  2                        LA    R3,1(R3)
 000800 4030 8028            00000  9218  2                        STH   R3,DXCUR1
 000804 47F0 714E            007D2  9219  1                      END
 000808                             9224                       END
                                    9228
                                    9229                       COMMENT                   INITIALIZE 2 DIMENSIONAL ARRAY
 000808 7188/47F0 71F4_00808 007CA  9230                       ELSEIF (DXDIM3,EQ,0),BEGIN
 000816 D201 802A 7364 00002 009E8  9257  1                      MVC   DXCUR2(2),=H'1'
 00081C D501 802A 8030_00002 00008  9258  1                      WHILE (DXCUR2,LE,DXDIM2),BEGIN
 000826 D201 8028 7364 00000 009E8  9278  2                        MVC   DXCUR1(2),=H'1'
 00082C D501 8028 802E_00000 00006  9279  2                        WHILE (DXCUR1,LE,DXDIM1),BEGIN
 000836 D201 600A 8028 0000A 00000  9299  3                          MVC   VNNAME+ASUB1(2),DXCUR1
 00083C D201 600C 802A 0000C 00002  9300  3                          MVC   VNNAME+ASUB2(2),DXCUR2
 000842 4100 0004            00004  9301  3                          LA    R0,4
 000846 4110 82D4            002AC  9302  3                          LA    R1,DXVAL
 00084A 4120 6000            00000  9303  3                          LA    R2,VNENTRY
 00084E 58E0 732C/0DEE       009B0  9304  3                          ACALL SAVEVAR             SAVE ELEMENTS
 000854 4770 C7D6            007D6  9308  3                          BNZ   CVERROR
 000858 4830 8028            00000  9309  3                          LH    R3,DXCUR1
 00085C 4133 0001            00001  9310  3                          LA    R3,1(R3)
 000860 4030 8028            00000  9311  3                          STH   R3,DXCUR1
 000864 47F0 71A8            0082C  9312  2                        END
 000868 4830 802A            00002  9317  2                        LH    R3,DXCUR2
 00086C 4133 0001            00001  9318  2                        LA    R3,1(R3)
 000870 4030 802A            00002  9319  2                        STH   R3,DXCUR2
 000874 47F0 7198            0081C  9320  1                      END
 000878                             9325                       END
                                    9329
                                    9330                       COMMENT                   INITIALIZE 3 DIMENSIONAL ARRAY
 000878 71F8/47F0 728A_00878 00814  9331                       ELSEIF (DXDIM3,NE,0),BEGIN
 000886 D201 802C 7364 00004 009E8  9358  1                      MVC   DXCUR3(2),=H'1'
 00088C D501 802C 8032_00004 0000A  9359  1                      WHILE (DXCUR3,LE,DXDIM3),BEGIN
 000896 D201 802A 7364 00002 009E8  9379  2                        MVC   DXCUR2(2),=H'1'
 00089C D501 802A 8030_00002 00008  9380  2                        WHILE (DXCUR2,LE,DXDIM2),BEGIN
 0008A6 D201 8028 7364 00000 009E8  9400  3                          MVC   DXCUR1(2),=H'1'
 0008AC D501 8028 802E_00000 00006  9401  3                          WHILE (DXCUR1,LE,DXDIM1),BEGIN
 0008B6 D201 600A 8028 0000A 00000  9421  4                            MVC   VNNAME+ASUB1(2),DXCUR1
 0008BC D201 600C 802A 0000C 00002  9422  4                            MVC   VNNAME+ASUB2(2),DXCUR2
 0008C2 D201 600E 802C 0000E 00004  9423  4                            MVC   VNNAME+ASUB3(2),DXCUR3
 0008C8 4100 0004            00004  9424  4                            LA    R0,4
 0008CC 4110 82D4            002AC  9425  4                            LA    R1,DXVAL
 0008D0 4120 6000            00000  9426  4                            LA    R2,VNENTRY
 0008D4 58E0 732C/0DEE       009B0  9427  4                            ACALL SAVEVAR             SAVE ELEMENTS
 0008DA 4770 C7D6            007D6  9431  4                            BNZ   CVERROR
1VARS     (VARS9014) (12:59) (15MAR04) DECLARE Command                                                                      Page   20
0Current Usings:  (VNENTRY,R6) (*,R7) (DXWA-(4+36),R8) (CP,R11) (CV,R12)
0Loc    Object Code    Addr1 Addr2  Stmt Lv Lineno    Source Statement           (Hibal 5, Asmedit 3.3)  HLASM R4.0  2004/03/15 12.59
+___    ______ ____    _____ _____  ____ __ ______    ______ _________
00008DE 4830 8028            00000  9432  4                            LH    R3,DXCUR1
 0008E2 4133 0001            00001  9433  4                            LA    R3,1(R3)
 0008E6 4030 8028            00000  9434  4                            STH   R3,DXCUR1
 0008EA 47F0 7228            008AC  9435  3                          END
 0008EE 4830 802A            00002  9440  3                          LH    R3,DXCUR2
 0008F2 4133 0001            00001  9441  3                          LA    R3,1(R3)
 0008F6 4030 802A            00002  9442  3                          STH   R3,DXCUR2
 0008FA 47F0 7218            0089C  9443  2                        END
 0008FE 4830 802C            00004  9448  2                        LH    R3,DXCUR3
 000902 4133 0001            00001  9449  2                        LA    R3,1(R3)
 000906 4030 802C            00004  9450  2                        STH   R3,DXCUR3
 00090A 47F0 7208            0088C  9451  1                      END
 00090E                             9456                       END
                                    9460
 00090E 1BFF                        9461                       CLEAR R15
 000910 18D8/9808 D004_             9465                       PEND  ,
 DROP   DXWA-(4+36),R8
 DROP   *,R7
 DROP   VNENTRY,R6                  9490                       DROP  R6
1VARS     (VARS9014) (12:59) (15MAR04) DECLARE Command                                                                      Page   21
0Current Usings:  (CP,R11) (CV,R12)
0Loc    Object Code    Addr1 Addr2  Stmt Lv Lineno    Source Statement           (Hibal 5, Asmedit 3.3)  HLASM R4.0  2004/03/15 12.59
+___    ______ ____    _____ _____  ____ __ ______    ______ _________
0                                   9498                       QLTORG
1VARS     (VARS9014) (12:59) (15MAR04) SET VALUE Command (assignment statement)                                             Page   22
0Current Usings:  (CP,R11) (CV,R12)
0Loc    Object Code    Addr1 Addr2  Stmt Lv Lineno    Source Statement           (Hibal 5, Asmedit 3.3)  HLASM R4.0  2004/03/15 12.59
+___    ______ ____    _____ _____  ____ __ ______    ______ _________
0                                   9543              ¿þþþþþþþþþþþþþþþþþþþþþþþþþþþþþþþþþþþþþþþþþþþþþþþþþþþþþþþþþþþþþþþþþþþþþÜ
                                    9544              Ÿ                                                                     Ÿ
                                    9545              Ÿ                                                                     Ÿ
                                    9546              Ÿ  SETVAR - SET VARIABLE                                              Ÿ
                                    9547              Ÿ                                                                     Ÿ
                                    9548              Ÿ  PROCESS VARIABLE ASSIGNMENT STATEMENT                              Ÿ
                                    9549              Ÿ                                                                     Ÿ
                                    9550              Ÿ  ON ENTRY:                                                          Ÿ
                                    9551              Ÿ       SCANCB POINTS TO ASSIGNMENT STATEMENT,                        Ÿ
                                    9552              Ÿ       SCTELL RETURNS R1,R0 - LOCATION AND LENGTH OF:                Ÿ
                                    9553              Ÿ           <VAR NAME> = <EXPRESSION>                                 Ÿ
                                    9554              Ÿ           <ARRAY NAME>(SUBSCRIPTS) = <EXPRESSION>                   Ÿ
                                    9555              Ÿ                                                                     Ÿ
                                    9556              Ÿ  ON EXIT:                                                           Ÿ
                                    9557              Ÿ       VALUE ASSIGNED TO VARIABLE !!                                 Ÿ
                                    9558              Ÿ       EXIT IS VIA CVNEXT !!!                                        Ÿ
                                    9559              Ÿ                                                                     Ÿ
                                    9560              Ÿ                                                                     Ÿ
                                                      ¾þþþþþþþþþþþþþþþþþþþþþþþþþþþþþþþþþþþþþþþþþþþþþþþþþþþþþþþþþþþþþþþþþþþþþ»
0000000                00000 002A0  9561              STVWA    RECORD BEGIN
 000000                             9569  1           STVNAME    DS    XL(L'VPARM)
 000150                             9570  1           STVVAL     DS    XL(L'VPARM)
 0002A0                002A0 002A0  9571                       END
                                    9580              *
                                    9581              *
 000B10 50E0 D000/9008_      00000  9582              SETVAL   XPROC STVWA
 USING  *,R7
 USING  STVWA-(4+36),R8
 000B2A D7FF 8028 8028_00000 00000  9633                       CLEAR STVNAME             STVNAME - PARM AREA FOR NAME
 000B36 D7FF 8178 8178_00150 00150  9641                       CLEAR STVVAL              STVVAL  - PARM AREA FOR LENGTH
                                    9649                       COMMENT
 000B42 58E0 B08C/581E_      0008C  9650                       SCINFO ,                  R1,R0 - LOC LEN OF ASSIGNMENT
                                    9659
                                    9660                       COMMENT                   SCAN VAR NAME
 000B50 4120 8028            00000  9661                       LA    R2,STVNAME
 000B54 58E0 79BE/0DEE       014E8  9662                       VCALL SCNVDESC
 000B5A 4770 C7D6            007D6  9666                       BNZ   CVERROR
                                    9667
                                    9668                       COMMENT                   SKIP BLANKS
 000B5E 9540 1000/4770_00000        9669                       WHILE ((@R1,EQ,' '),AND,(R0,POS)),BEGIN
 000B6C 5E10 79C2            014EC  9700  1                      INCR  R1
 000B70 0600                        9703  1                      DECR  R0
 000B72 47F0 7034            00B5E  9705                       END
                                    9710
                                    9711                       COMMENT                   FIND, SKIP '='
 000B76 9540 1000/4770_00000        9712                       WHILE ((@R1,EQ,' '),AND,(R0,POS)),BEGIN
 000B84 5E10 79C2            014EC  9743  1                      INCR  R1
 000B88 0600                        9746  1                      DECR  R0
 000B8A 47F0 704C            00B76  9748                       END
 000B8E 957E 1000/4780_00000        9753                       IF    ((@R1,NE,'='),AND,(R0,POS)),BEGIN
 000B9C 4110 79C6/4100_      014F0  9782  1                      ERROR 'Missing "=" in assignment statement.'
 000BA8                             9789                       END
 000BA8 957E 1000/4770_00000        9793                       IF    ((@R1,EQ,'='),AND,(R0,POS)),BEGIN
1VARS     (VARS9014) (12:59) (15MAR04) SET VALUE Command (assignment statement)                                             Page   23
0Current Usings:  (*,R7) (STVWA-(4+36),R8) (CP,R11) (CV,R12)
0Loc    Object Code    Addr1 Addr2  Stmt Lv Lineno    Source Statement           (Hibal 5, Asmedit 3.3)  HLASM R4.0  2004/03/15 12.59
+___    ______ ____    _____ _____  ____ __ ______    ______ _________
0000BB6 5E10 79C2            014EC  9822  1                      INCR  R1
 000BBA 0600                        9825  1                      DECR  R0
 000BBC                             9827                       END
                                    9831
                                    9832                       COMMENT                   EVALUATE EXPRESSION
                                    9833                       COMMENT
                                    9834                       COMMENT                   R1,R0 - EXPR LOC,LEN
 000BBC 4120 8178            00150  9835                       LA    R2,STVVAL           R2 - EXPR RETURN AREA
 000BC0 58E0 79EA/0DEE       01514  9836                       VCALL EVALEXPR
 000BC6 4720 C7D6            007D6  9840                       BH    CVERROR
 000BCA 47B0 70B0            00BDA  9841                       IF    NEG,BEGIN
 000BCE 4110 7B0A/4100_      01634  9852  1                      ERROR 'Missing expression.'
 000BDA                             9859                       END
 000BDA 58E0 B08C/501E_      0008C  9863                       SCINIT (R1),(R0)
 000BE8 5810 B08C/1B00_      0008C  9883                       SCAN  ,
 000C36 58E0 79F2/0DEE       0151C  9914                       SCANCHK ,
 000C3C 1200/4780 712E              9919                       IF    (R0,NZ),BEGIN
 000C42 41F0 B050/58E0_      00050  9933  1                      TSEG  (R1),(R0)
 000C4C 4110 7B1D/4100_      01647  9957  1                      ERROR ': unrecognized option following expression.'
 000C58                             9964                       END
                                    9968
                                    9969                       COMMENT                   SAVE VARIABLE
 000C58 4100 0004            00004  9970                       LA    R0,4
 000C5C 4110 8178            00150  9971                       LA    R1,STVVAL
 000C60 4120 8028            00000  9972                       LA    R2,STVNAME
 000C64 58E0 79FA/0DEE       01524  9973                       ACALL SAVEVAR
 000C6A 4770 C7D6            007D6  9977                       BNZ   CVERROR
                                    9978
 000C6E 47F0 C7DE            007DE  9979                       B     CVNEXT              GET OUT OF HERE BUDDY !
 000C72 1BFF                        9980                       CLEAR R15
 000C74 18D8/9808 D004_             9984                       PEND  ,
 DROP   STVWA-(4+36),R8
 DROP   *,R7
1VARS     (VARS9014) (12:59) (15MAR04) SET VALUE Command (assignment statement)                                             Page   24
0Current Usings:  (CP,R11) (CV,R12)
0Loc    Object Code    Addr1 Addr2  Stmt Lv Lineno    Source Statement           (Hibal 5, Asmedit 3.3)  HLASM R4.0  2004/03/15 12.59
+___    ______ ____    _____ _____  ____ __ ______    ______ _________
0                                  10010              *
                                   10011              **
                                   10012              *$  *** OLD EXEC ***
                                   10013              **
                                   10014              **  OLD SET VALUE COMMAND
                                   10015              **
                                   10016              **  THE 'SET VALUE' COMMAND IS THE OLD WAY TO ASSIGN WYLBUR
                                   10017              **  EXEC VARIABLES.   NOW VARIABLES ARE ASSIGNED VALUES WITH
                                   10018              **  AN ASSIGNMENT STATEMENT:
                                   10019              **       <VAR NAME> = <EXPRESSION>
                                   10020              **  THIS ENTRY POINT IS USED TO MAINTAIN COMPATIBILITY.
                                   10021              **  (THOUGH AS THE ENTRY CONVENTIONS ARE IDENTICAL THIS
                                   10022              **  ENTRY POINT MAY BE AXED AT A LATER DATE.
                                   10023              **
                                   10024              **  ON ENTRY:
                                   10025              **  ON EXIT:
                                   10026              **     ENTRY EXIT SAME AS FOR 'SETVAL' ROUTINE. SEE ABOVE.
                                   10027              **
                                   10028              **
                                   10029              **  NOTES !!!
                                   10030              **  THIS CODE IS THE SAME AS 'SETVAL' ROUTINE. EXCEPT THAT:
                                   10031              **       1. ONLY N0-N9,S0-S9,W0-W9 ARE ALLOWED
                                   10032              **       2. '=' IS OPTIONAL.
                                   10033              *
 000C82 50E0 D000/9008_      00000 10034              OLDSETV  XPROC STVWA
 USING  *,R7
 USING  STVWA-(4+36),R8
 000C9C D7FF 8028 8028_00000 00000 10085                       CLEAR STVNAME             STVNAME - PARM AREA FOR NAME
 000CA8 D7FF 8178 8178_00150 00150 10093                       CLEAR STVVAL              STVVAL  - PARM AREA FOR LENGTH
                                   10101                       COMMENT
 000CB4 58E0 B08C/581E_      0008C 10102                       SCINFO ,                  R1,R0 - LOC LEN OF ASSIGNMENT
                                   10111
                                   10112                       COMMENT                   CHECK FOR N0-N9,S0-S9,W0-W9
 000CC2 58E0 788C/0DEE       01528 10113                       ACALL SCNNSW              SCAN FOR N0-N9,S0-S9,W0-W9
 000CC8 4780 704E            00CEA 10117                       IF    NZ,BEGIN
 000CCC 4110 79D6/4100_      01672 10128  1                      TSEG  'Please use "variable=value" instead of '
 000CDE 4110 79FD/4100_      01699 10146  1                      ERROR '"SET VAL variable=value".'
 000CEA                            10153                       END
                                   10157                       COMMENT                   SCAN VAR NAME
 000CEA 4120 8028            00000 10158                       LA    R2,STVNAME
 000CEE 58E0 784C/0DEE       014E8 10159                       VCALL SCNVDESC
 000CF4 4770 C7D6            007D6 10163                       BNZ   CVERROR
                                   10164
                                   10165                       COMMENT                   SKIP BLANKS
 000CF8 9540 1000/4770_00000       10166                       WHILE ((@R1,EQ,' '),AND,(R0,POS)),BEGIN
 000D06 5E10 7850            014EC 10197  1                      INCR  R1
 000D0A 0600                       10200  1                      DECR  R0
 000D0C 47F0 705C            00CF8 10202                       END
                                   10207
                                   10208                       COMMENT                   SKIP ANY '='
 000D10 9540 1000/4770_00000       10209                       WHILE ((@R1,EQ,' '),AND,(R0,POS)),BEGIN
 000D1E 5E10 7850            014EC 10240  1                      INCR  R1
 000D22 0600                       10243  1                      DECR  R0
 000D24 47F0 7074            00D10 10245                       END
1VARS     (VARS9014) (12:59) (15MAR04) SET VALUE Command (assignment statement)                                             Page   25
0Current Usings:  (*,R7) (STVWA-(4+36),R8) (CP,R11) (CV,R12)
0Loc    Object Code    Addr1 Addr2  Stmt Lv Lineno    Source Statement           (Hibal 5, Asmedit 3.3)  HLASM R4.0  2004/03/15 12.59
+___    ______ ____    _____ _____  ____ __ ______    ______ _________
0000D28 957E 1000/4770_00000       10250                       IF    ((@R1,EQ,'='),AND,(R0,POS)),BEGIN
 000D36 5E10 7850            014EC 10279  1                      INCR  R1
 000D3A 0600                       10282  1                      DECR  R0
 000D3C                            10284                       END
                                   10288
                                   10289                       COMMENT                   EVALUATE EXPRESSION
                                   10290                       COMMENT
                                   10291                       COMMENT                   R1,R0 - EXPR LOC,LEN
 000D3C 4120 8178            00150 10292                       LA    R2,STVVAL           R2 - EXPR RETURN AREA
 000D40 58E0 7878/0DEE       01514 10293                       VCALL EVALEXPR
 000D46 4720 C7D6            007D6 10297                       BH    CVERROR
 000D4A 47B0 70BE            00D5A 10298                       IF    NEG,BEGIN
 000D4E 4110 7998/4100_      01634 10309  1                      ERROR 'Missing expression.'
 000D5A                            10316                       END
 000D5A 58E0 B08C/501E_      0008C 10320                       SCINIT (R1),(R0)
 000D68 5810 B08C/1B00_      0008C 10340                       SCAN  ,
 000DB6 58E0 7880/0DEE       0151C 10371                       SCANCHK ,
 000DBC 1200/4780 713C             10376                       IF    (R0,NZ),BEGIN
 000DC2 41F0 B050/58E0_      00050 10390  1                      TSEG  (R1),(R0)
 000DCC 4110 79AB/4100_      01647 10414  1                      ERROR ': unrecognized option following expression.'
 000DD8                            10421                       END
                                   10425
                                   10426                       COMMENT                   SAVE VARIABLE
 000DD8 4100 0004            00004 10427                       LA    R0,4
 000DDC 4110 8178            00150 10428                       LA    R1,STVVAL
 000DE0 4120 8028            00000 10429                       LA    R2,STVNAME
 000DE4 58E0 7888/0DEE       01524 10430                       ACALL SAVEVAR
 000DEA 4770 C7D6            007D6 10434                       BNZ   CVERROR
                                   10435
 000DEE 47F0 C7DE            007DE 10436                       B     CVNEXT              GET OUT OF HERE BUDDY !
 000DF2 1BFF                       10437                       CLEAR R15
 000DF4 18D8/9808 D004_            10441                       PEND  ,
 DROP   STVWA-(4+36),R8
 DROP   *,R7
1VARS     (VARS9014) (12:59) (15MAR04) SHOW VALUE/VARIABLES/ARRAY Commands                                                  Page   26
0Current Usings:  (CP,R11) (CV,R12)
0Loc    Object Code    Addr1 Addr2  Stmt Lv Lineno    Source Statement           (Hibal 5, Asmedit 3.3)  HLASM R4.0  2004/03/15 12.59
+___    ______ ____    _____ _____  ____ __ ______    ______ _________
0                                  10467              ¿þþþþþþþþþþþþþþþþþþþþþþþþþþþþþþþþþþþþþþþþþþþþþþþþþþþþþþþþþþþþþþþþþþþþþÜ
                                   10468              Ÿ                                                                     Ÿ
                                   10469              Ÿ                                                                     Ÿ
                                   10470              Ÿ  SHOWVAL - SHOW VARIABLE CODE                                       Ÿ
                                   10471              Ÿ                                                                     Ÿ
                                   10472              Ÿ  NOTE, THERE MAY BE MULTIPLE EXPRESSIONS SEPARATED BY COMMAS.       Ÿ
                                   10473              Ÿ                                                                     Ÿ
                                   10474              Ÿ                                                                     Ÿ
                                   10475              Ÿ                                                                     Ÿ
                                                      ¾þþþþþþþþþþþþþþþþþþþþþþþþþþþþþþþþþþþþþþþþþþþþþþþþþþþþþþþþþþþþþþþþþþþþþ»
0000000                00000 00150 10476              SHVWA    RECORD BEGIN
 000000                            10484  1           SHVVAL     DS    XL(L'VPARM)
 000150                00150 00150 10485                       END
                                   10494              *
                                   10495              *
 000E02 50E0 D000/9008_      00000 10496              SHOWVAL  XPROC SHVWA
 USING  *,R7
 USING  SHVWA-(4+36),R8
 USING  VNENTRY,R6                 10547                       USING VNENTRY,R6
 000E1C 4160 8028            00000 10556                       LA    R6,SHVVAL
 000E20 58E0 B08C/581E_      0008C 10557                       SCINFO ,                  RETURNS R1,R0 - EXPR LOC, LEN
                                   10566                       ¿þþþþþþþþþþþþþþþþþþþþþþþþþÜ
                                   10567                       Ÿ  LOOP THRU EXPRESSIONS  Ÿ
                                   10568                       ¾þþþþþþþþþþþþþþþþþþþþþþþþþ»
                                   10569                       COMMENT                   LOOP EVALUATING/TSEG'NG EXPRNS.
 000E2E 1B44                       10570                       CLEAR R4
 000E30 4120 6000            00000 10574                       LA    R2,VNENTRY
 000E34 58E0 76F8/0DEE       01514 10575                       VCALL EVALEXPR            EVALUATE 1ST EXPRESSION
                                   10579                       COMMENT
 000E3A 12FF/4770 704C             10580                       WHILE (R15,Z),BEGIN       LOOP LOOP LOOP LOOP
 000E40 4144 0001            00001 10596  1                      LA    R4,1(R4)
 000E44 58E0 7710/0DEE       0152C 10597  1                      ACALL SEGVALUE            TSEG EXPRESSION VALUE
 000E4A 1200/47D0 7042_            10601  1                      IF    ((R0,POS),AND,(@R1,EQ,',')),BEGIN
 000E58 4111 0001            00001 10630  2                        LA    R1,1(R1)            SKIP COMMA FOLLOWING EXPRN, IF ANY
 000E5C 0600                       10631  2                        DECR  R0
 000E5E                            10633  1                      END
 000E5E 58E0 76F8/0DEE       01514 10637  1                      VCALL EVALEXPR            EVALUATE REMAINING EXPRESSIONS
 000E64 47F0 701E            00E3A 10641                       END
                                   10646              *
                                   10647              *
                                   10648                       COMMENT                   CHECK END OF LOOP CONDITIONS
 000E68 12FF/47D0 7056             10649                       IF    (R15,POS),BEGIN     ERROR IN EXPRESSION
 000E6E 47F0 C7D6            007D6 10663  1                      B     CVERROR
 000E72                            10664                       END
 000E72 1200/47D0 7090_            10668                       IF    ((R0,POS),AND,(@R1,EQ,')')),BEGIN     UNMATCHED ')'
 000E80 9001 D000/41D0_      00000 10697  1                      XPUSH R0,R1
 000E88 4110 77B6/4100_      015D2 10700  1                      TSEG  'Unmatched parenthesis in expression.  '
 000E9A 4BD0 77DC/9801_      015F8 10718  1                      XPOP  R0,R1
 000EA2 58E0 7714/0DEE       01530 10721  1                      VCALL CHECKEND
 000EA8 47F0 C7D6            007D6 10725  1                      B     CVERROR
 000EAC                            10726                       END
 000EAC 5940 7718/4770_      01534 10730                       IF    (R4,EQ,0),BEGIN     MISSING 1ST EXPRESSION
 000EB4 4110 77DE/4100_      015FA 10747  1                      ERROR 'Missing expression(s).'
1VARS     (VARS9014) (12:59) (15MAR04) SHOW VALUE/VARIABLES/ARRAY Commands                                                  Page   27
0Current Usings:  (VNENTRY,R6) (*,R7) (SHVWA-(4+36),R8) (CP,R11) (CV,R12)
0Loc    Object Code    Addr1 Addr2  Stmt Lv Lineno    Source Statement           (Hibal 5, Asmedit 3.3)  HLASM R4.0  2004/03/15 12.59
+___    ______ ____    _____ _____  ____ __ ______    ______ _________
0000EC0                            10754                       END
 000EC0 5940 76D0/4750_      014EC 10758                       IF    (R4,GE,1),BEGIN     MISSING 2/3/4TH ... EXPRESSION ??
 000EC8 1200/47D0 70C6_            10775  1                      IF    ((R0,POS),AND,(@R1,EQ,',')),BEGIN
 000ED6 4110 77DE/4100_      015FA 10804  2                        ERROR 'Missing expression(s).'
 000EE2                            10811  1                      END
 000EE2                            10815                       END
                                   10819                       COMMENT                   IF ALL OK,,, EXIT
 000EE2 47F0 C7DE            007DE 10820                       B     CVNEXT              GET OUT OF HERE BOZO !
                                   10821
 000EE6 1BFF                       10822                       CLEAR R15
 000EE8 18D8/9808 D004_            10826                       PEND  ,
 DROP   SHVWA-(4+36),R8
 DROP   *,R7
 DROP   VNENTRY,R6                 10851                       DROP  R6
1VARS     (VARS9014) (12:59) (15MAR04) SHOW VALUE/VARIABLES/ARRAY Commands                                                  Page   28
0Current Usings:  (CP,R11) (CV,R12)
0Loc    Object Code    Addr1 Addr2  Stmt Lv Lineno    Source Statement           (Hibal 5, Asmedit 3.3)  HLASM R4.0  2004/03/15 12.59
+___    ______ ____    _____ _____  ____ __ ______    ______ _________
0                                  10859              ¿þþþþþþþþþþþþþþþþþþþþþþþþþþþþþþþþþþþþþþþþþþþþþþþþþþþþþþþþþþþþþþþþþþþþþÜ
                                   10860              Ÿ                                                                     Ÿ
                                   10861              Ÿ                                                                     Ÿ
                                   10862              Ÿ  SHOW VARIABLES                                                     Ÿ
                                   10863              Ÿ                                                                     Ÿ
                                   10864              Ÿ                                                                     Ÿ
                                   10865              Ÿ                                                                     Ÿ
                                   10866              Ÿ                                                                     Ÿ
                                                      ¾þþþþþþþþþþþþþþþþþþþþþþþþþþþþþþþþþþþþþþþþþþþþþþþþþþþþþþþþþþþþþþþþþþþþþ»
0000000                00000 00298 10867              SVRWA    RECORD BEGIN ,
 000000                            10875  1           SVRRG      DS    F                   VARIABLE RECORD GROUP INFO PTR
 000004                            10876  1           SVRSET     DS    F                   VARIABLE RECORD GROUP SET NUMBER
 000008                            10877  1           SVRFIRST   DS    XL(L'VNNAME)        FIRST VAR TO SHOW
 000018                            10878  1           SVRLAST    DS    XL(L'VNNAME)        LAST VAR TO SHOW
 000028                            10879  1           SVRTEMP    DS    XL(L'VPARM)         CURRENT VARIABLE TO SHOW
 000178                            10880  1           SVRTOK     DS    CL32                SCAN UPPER CASE WORK AREA
 000198                            10881  1           SVRTRT     DS    XL256               TRT TABLE
 000298                00298 00298 10882                       END
                                   10891              *
                                   10892              *
 000EF6 50E0 D000/9008_      00000 10893              SHOWVARS XPROC SVRWA
 USING  *,R7
 USING  SVRWA-(4+36),R8
 000F10 4150 8028            00000 10944                       LA    R5,SVRWA
 USING  SVRWA,R5                   10945                       USING SVRWA,R5
 USING  VNENTRY,R6                 10954                       USING VNENTRY,R6
 000F14 4160 5028            00028 10963                       LA    R6,SVRTEMP
                                   10964
                                   10965                       COMMENT                   INITIALIZE/SET DEFAULTS
 000F18 4110 B4E4            004E4 10966                       LA    R1,CPVARS           SET LOCAL VARS AS DEFAULT
 000F1C 5010 5000            00000 10967                       ST    R1,SVRRG
 000F20 5810 B844            00844 10968                       L     R1,CPVSET#
 000F24 5010 5004            00004 10969                       ST    R1,SVRSET
 000F28 D70F 5008 5008 00008 00008 10970                       CLEAR SVRFIRST            ZERO FIRST NAME AS DEFAULT
 000F2E 4120 5018            00018 10977                       LA    R2,SVRLAST          X'FF' LAST NAME AS DEFAULT
 000F32 4130 0010            00010 10978                       LA    R3,L'VNNAME
 000F36 58F0 7628            01538 10979                       L     R15,=X'FF000000'
 000F3A 0E2E                       10980                       MVCL  R2,R14
 000F3C D7FF 5028 5028_00028 00028 10981                       CLEAR SVRTEMP
 000F48 D7FF 5198 5198 00198 00198 10989                       CLEAR SVRTRT              SET TRT TABLE
 000F4E 9204 51E3      001E3       10996                       MVI   SVRTRT+C'.',4       DON'T PRINT VARS NAMES WITH . OR *
 000F52 9204 51F4      001F4       10997                       MVI   SVRTRT+C'*',4
                                   10998
                                   10999                       COMMENT                   SCAN COMMAND
 000F56 5810 B08C/1B00_      0008C 11000                       SCAN  SVRPRT
 000FA8 58E0 760C/0DEE       0151C 11032                       SCANCHK
                                   11037
                                   11038                       COMMENT                   SET CORRECT VARIABLE SET NUMBER
 000FAE 58F0 5000            00000 11039                       L     R15,SVRRG
 000FB2 5800 5004            00004 11040                       L     R0,SVRSET
 000FB6 58E0 7630/0DEE       01540 11041                       VCALL XSETSET
                                   11045
                                   11046                       COMMENT                   LOOP PRINTING VARIABLES
1VARS     (VARS9014) (12:59) (15MAR04) SHOW VALUE/VARIABLES/ARRAY Commands                                                  Page   29
0Current Usings:  (SVRWA,R5) (VNENTRY,R6) (*,R7) (SVRWA-(4+36),R8) (CP,R11) (CV,R12)
0Loc    Object Code    Addr1 Addr2  Stmt Lv Lineno    Source Statement           (Hibal 5, Asmedit 3.3)  HLASM R4.0  2004/03/15 12.59
+___    ______ ____    _____ _____  ____ __ ______    ______ _________
0000FBC D20F 6000 5008 00000 00008 11047                       MVC   VNNAME,SVRFIRST
 000FC2 58F0 5000            00000 11048                       L     R15,SVRRG
 000FC6 4100 0130            00130 11049                       LA    R0,L'VPARM-(VNDATA-VNENTRY)
 000FCA 4110 6020            00020 11050                       LA    R1,VNDATA
 000FCE 4120 6000            00000 11051                       LA    R2,VNNAME
 000FD2 58E0 7634/0DEE       01544 11052                       VCALL XGETFRST            GET FIRST VARIABLE IN SET
 000FD8 4770 7128/D50F_      01038 11056                       WHILE (Z,AND,(VNNAME,LE,SVRLAST)),BEGIN  LOOP THRU ALL VARS
 000FE6 DD0F 6000 5198 00000 00198 11086  1                      TRT   VNNAME,SVRTRT       SKIP VARS NAMES WITH . OR *
 000FEC 4780 70F0            01000 11087  1                      IF    NZ,BEGIN
 000FF0 D501 6008 7638 00008 01548 11098  2                        CLC   VNNAME+ACONST(L'ACONST),=CL4'*A'   IF ARRAY ELEMENT,
 000FF6 4770 70F0            01000 11099  2                        IF    E,BEGIN                               SKIP ENTIRE ARRAY
 000FFA D201 600A 7700 0000A 01610 11110  3                          MVC   VNNAME+ASUB1(2),=XL2'FFFF'
 001000                            11111  2                        END
 001000                            11115  1                      END
 001000 70F4/47F0 710E 01000 00FEE 11119  1                      ELSE  BEGIN
 001004 4120 6000            00000 11130  2                        LA    R2,VNENTRY
 001008 58E0 763C/0DEE       0154C 11131  2                        ACALL SEGVAR              PRINT VARIABLE
 00100E 1B00/41F0 B050_            11135  2                        TCR
 00101A 4770 C7DE            007DE 11160  2                        BNZ   CVNEXT              IF ATTENTION HIT, QUICK EXIT !!
 00101E                            11161  1                      END
 00101E 58F0 5000            00000 11165  1                      L     R15,SVRRG
 001022 4100 0130            00130 11166  1                      LA    R0,L'VPARM-(VNDATA-VNENTRY)
 001026 4110 6020            00020 11167  1                      LA    R1,VNDATA
 00102A 4120 6000            00000 11168  1                      LA    R2,VNNAME
 00102E 58E0 7644/0DEE       01554 11169  1                      VCALL XGETNEXT
 001034 47F0 70C8            00FD8 11173                       END
                                   11178
 001038 47F0 C7DE            007DE 11179                       B     CVNEXT              OUT OF HERE BOZO !!
                                   11180
 00103C 18D8/9808 D004_            11181                       PEND  ,
 DROP   SVRWA-(4+36),R8
 DROP   *,R7
-
                                   11207                       ¿þþþþþþþþþþþþþþþþþþþþþþþþþþþþþþþþÜ
                                   11208                       Ÿ  SHOW VARS OPTIONS  (SCANNED)  Ÿ
                                   11209                       ¾þþþþþþþþþþþþþþþþþþþþþþþþþþþþþþþþ»
 00104C E3E8D7C540404040_          11210              SVRPRT   SCKW  TYPE,SVRTYPE,(A,P)
 001074 D3C9D2C540404040_          11225                       SCKW  LIKE,SVRLIKE,(A,P)
 00109C C6D9D6D440404040_          11240                       SCKW  FROM,SVRFROM,(A,P)
 0010C4 E3D6404040404040_          11255                       SCKW  TO,SVRTO,P
 0010EC 4040404040404040_          11270                       SCKW  ,V(COLLPSH),PUSH
 001114 4040404040404040_          11285                       SCKW  ,V(NOTVALID)
-
-                                  11301                       ¿þþþþþþþþÜ
                                   11302                       Ÿ  TYPE  Ÿ
                                   11303                       ¾þþþþþþþþ»
 00113C 50E0 D000/9008_      00000 11304              SVRTYPE  PROC  ,
 USING  *,R7
1VARS     (VARS9014) (12:59) (15MAR04) SHOW VALUE/VARIABLES/ARRAY Commands                                                  Page   30
0Current Usings:  (SVRWA,R5) (VNENTRY,R6) (*,R7) (CP,R11) (CV,R12)
0Loc    Object Code    Addr1 Addr2  Stmt Lv Lineno    Source Statement           (Hibal 5, Asmedit 3.3)  HLASM R4.0  2004/03/15 12.59
+___    ______ ____    _____ _____  ____ __ ______    ______ _________
0001156 58F0 B08C/4110_      0008C 11343                       SCUPCASE SVRTOK,L'SVRTOK  R1,R0 - TYPE LOC, LEN
 001168 58E0 7406/0DEE       0155C 11366                       ACALL SETVTYPE            SET TYPE
 00116E 1BFF                       11370                       CLEAR R15
 001170 18D8/9808 D004_            11374                       PEND  ,
 DROP   *,R7
                                   11394                       ¿þþþþþþþþÜ
                                   11395                       Ÿ  LIKE  Ÿ
                                   11396                       ¾þþþþþþþþ»
 00117E 50E0 D000/9008_      00000 11397              SVRLIKE  PROC  ,
 USING  *,R7
 001198 58F0 B08C/4110_      0008C 11436                       SCUPCASE SVRTOK,L'SVRTOK  R1,R0 - TYPE LOC, LEN
 0011AA 58E0 73C8/0DEE       01560 11459                       ACALL SVRPREFX            PROCESS ANY PREFIX
 0011B0 1830                       11463                       LR    R3,R0
 0011B2 0630/1233/4740_            11464                       MOVE  R3,SVRFIRST,@R1
 0011BE 1830                       11502                       LR    R3,R0
 0011C0 0630/1233/4740_            11503                       MOVE  R3,SVRLAST,@R1
 0011CC 1BFF                       11541                       CLEAR R15
 0011CE 18D8/9808 D004_            11545                       PEND  ,
 DROP   *,R7
                                   11565                       ¿þþþþþþþþÜ
                                   11566                       Ÿ  FROM  Ÿ
                                   11567                       ¾þþþþþþþþ»
 0011DC 50E0 D000/9008_      00000 11568              SVRFROM  PROC  ,
 USING  *,R7
 0011F6 58F0 B08C/4110_      0008C 11607                       SCUPCASE SVRTOK,L'SVRTOK  R1,R0 - TYPE LOC, LEN
 001208 58E0 736A/0DEE       01560 11630                       ACALL SVRPREFX            PROCESS ANY PREFIX
 00120E 1830                       11634                       LR    R3,R0
 001210 0630/1233/4740_            11635                       MOVE  R3,SVRFIRST,@R1
 00121C 1BFF                       11673                       CLEAR R15
 00121E 18D8/9808 D004_            11677                       PEND  ,
 DROP   *,R7
                                   11697                       ¿þþþþþþÜ
                                   11698                       Ÿ  TO  Ÿ
                                   11699                       ¾þþþþþþ»
 00122C 50E0 D000/9008_      00000 11700              SVRTO    PROC  ,
 USING  *,R7
 001246 58F0 B08C/4110_      0008C 11739                       SCUPCASE SVRTOK,L'SVRTOK  R1,R0 - TYPE LOC, LEN
 001258 58E0 731A/0DEE       01560 11762                       ACALL SVRPREFX            PROCESS ANY PREFIX
 00125E 1830                       11766                       LR    R3,R0
 001260 0630/1233/4740_            11767                       MOVE  R3,SVRLAST,@R1
 00126C 1BFF                       11805                       CLEAR R15
 00126E 18D8/9808 D004_            11809                       PEND  ,
 DROP   *,R7
1VARS     (VARS9014) (12:59) (15MAR04) SHOW VALUE/VARIABLES/ARRAY Commands                                                  Page   31
0Current Usings:  (SVRWA,R5) (VNENTRY,R6) (CP,R11) (CV,R12)
0Loc    Object Code    Addr1 Addr2  Stmt Lv Lineno    Source Statement           (Hibal 5, Asmedit 3.3)  HLASM R4.0  2004/03/15 12.59
+___    ______ ____    _____ _____  ____ __ ______    ______ _________
0                                  11830                       ¿þþþþþþþþþþþþþþþþþþþþþþþþþþþþþþþþþþþþþþþþþþþþþþþþþþþÜ
                                   11831                       Ÿ                                                   Ÿ
                                   11832                       Ÿ  GET VARIABLE TYPE, SET VARIABLE SET, GROUP INFO  Ÿ
                                   11833                       Ÿ                                                   Ÿ
                                   11834                       Ÿ  R1,R0 - KEYWORD LOC, LEN ON ENTRY                Ÿ
                                   11835                       Ÿ                                                   Ÿ
                                   11836                       ¾þþþþþþþþþþþþþþþþþþþþþþþþþþþþþþþþþþþþþþþþþþþþþþþþþþþ»
 00127C 50E0 D000/9008_      00000 11837              SETVTYPE PROC  ,
 USING  *,R7
                                   11876
                                   11877                       COMMENT                   POINT R1 TO UPPER CASED TOKEN
 001296 58F0 B08C/4110_      0008C 11878                       SCUPCASE SVRTOK,L'SVRTOK  R1,R0 - TYPE LOC, LEN
                                   11901
                                   11902                       COMMENT                   X. VARS
 0012A8 D501 737C 1000_01612 00000 11903                       IF    (@R1,EQ,'X '),BEGIN
 0012B2 D503 72CE B778_01564 00778 11919  1                      IF    (CP#XSET,EQ,=A(CP#XOLD)),BEGIN
 0012BC 4110 737E/4100_      01614 11936  2                        ERROR 'X.: invalid.  No XPROC active.'
 0012C8                            11943  1                      END
 0012C8 9201 6010      00010       11947  1                      SET   VNPFX
 0012CC 58E0 72D2/0DEE       01568 11953  1                      ACALL GETXVSET
 0012D2 5000 5004            00004 11957  1                      ST    R0,SVRSET
 0012D6                            11958                       END
                                   11962
                                   11963                       COMMENT                   GLOBAL VARIABLES
 0012D6 7044/47F0 705A_012D6 012B0 11964                       ELSEIF (@R1,EQ,'GBL '),BEGIN
 0012E4 9202 6010      00010       11989  1                      SET   VNPFGBL
 0012E8 4100 0003            00003 11995  1                      LA    R0,VGLOBAL
 0012EC 5000 5004            00004 11996  1                      ST    R0,SVRSET
 0012F0                            11997                       END
                                   12001
                                   12002                       COMMENT                   SYSTEM VARS
 0012F0 705E/47F0 7074_012F0 012E2 12003                       ELSEIF (@R1,EQ,'SYS '),BEGIN
 0012FE 4110 72DE/4100_      01574 12028  1                      ERROR 'Unable to display multiple System variables.'
 00130A                            12035                       END
                                   12039
                                   12040                       COMMENT                   SESSION VARS
 00130A 7078/47F0 7096_0130A 012FC 12041                       ELSEIF (@R1,EQ,'SES '),BEGIN
 001318 9204 6010      00010       12066  1                      SET   VNPFSES
 00131C 4100 B524            00524 12072  1                      LA    R0,CPRG16
 001320 5000 5000            00000 12073  1                      ST    R0,SVRRG
 001324 4100 0008            00008 12074  1                      LA    R0,CP#SESV
 001328 5000 5004            00004 12075  1                      ST    R0,SVRSET
 00132C                            12076                       END
                                   12080
                                   12081                       COMMENT                   PUBLIC VARS
 00132C 709A/47F0 70B8_0132C 01316 12082                       ELSEIF (@R1,EQ,'PUB '),BEGIN
 00133A 9205 6010      00010       12107  1                      SET   VNPFPUB
 00133E 4100 C360            00360 12113  1                      LA    R0,CVRG16
 001342 5000 5000            00000 12114  1                      ST    R0,SVRRG
 001346 4100 0002            00002 12115  1                      LA    R0,CV#PUBV
 00134A 5000 5004            00004 12116  1                      ST    R0,SVRSET
 00134E                            12117                       END
                                   12121              *
                                   12122              *
1VARS     (VARS9014) (12:59) (15MAR04) SHOW VALUE/VARIABLES/ARRAY Commands                                                  Page   32
0Current Usings:  (SVRWA,R5) (VNENTRY,R6) (*,R7) (CP,R11) (CV,R12)
0Loc    Object Code    Addr1 Addr2  Stmt Lv Lineno    Source Statement           (Hibal 5, Asmedit 3.3)  HLASM R4.0  2004/03/15 12.59
+___    ______ ____    _____ _____  ____ __ ______    ______ _________
0                                  12123                       COMMENT                   ERROR VARS
 00134E 70BC/47F0 7114_0134E 01338 12124                       ELSEIF ((@R1,EQ,'ERR '),OR,(@R1,EQ,'ERROR')),BEGIN
 001366 9120 B479/4710_00479       12164  1                      IF    ~CPFXXERR,BEGIN     IF NO ERROR, NO ERROR VARS
 00136E 47F0 C7DE            007DE 12179  2                        B     CVNEXT              COMMAND DONE
 001372                            12180  1                      END
 001372 4100 0004            00004 12184  1                      LA    R0,4
 001376 4110 5004            00004 12185  1                      LA    R1,SVRSET
 00137A 4120 7242            014D8 12186  1                      LA    R2,=CL16'SYS.ERRSETNO    '
 00137E 58E0 7316/0DEE       015AC 12187  1                      VCALL GETDATA
 001384 4780 70F4            0138A 12191  1                      IF    NZ,BEGIN            ERR SET # MUST EXIST AND BE NZ
 001388 0000                       12202  2                        BOMB
 00138A                            12204  1                      END
 00138A D503 72CE 5004_01564 00004 12208  1                      IF ((SVRSET,LE,=A(CP#XOLD)),OR,(SVRSET,GT,CPVSET#)),BEGIN
 00139E 4110 7421/4100_      016B7 12242  2                        ERROR 'Error did not occur in active PROC.'
 0013AA                            12249  1                      END
 0013AA                            12253                       END
                                   12257
 0013AA 18D8/9808 D004_            12258                       PEND  ,
 DROP   *,R7
1VARS     (VARS9014) (12:59) (15MAR04) SHOW VALUE/VARIABLES/ARRAY Commands                                                  Page   33
0Current Usings:  (SVRWA,R5) (VNENTRY,R6) (CP,R11) (CV,R12)
0Loc    Object Code    Addr1 Addr2  Stmt Lv Lineno    Source Statement           (Hibal 5, Asmedit 3.3)  HLASM R4.0  2004/03/15 12.59
+___    ______ ____    _____ _____  ____ __ ______    ______ _________
0                                  12279                       ¿þþþþþþþþþþþþþþþþþþþþþþþþþþþþþþþþþþþþþþþþþþþþþþþþþþþÜ
                                   12280                       Ÿ                                                   Ÿ
                                   12281                       Ÿ  HANDLE PREFIXES                                  Ÿ
                                   12282                       Ÿ                                                   Ÿ
                                   12283                       Ÿ  R1,R0 - KEYWORD LOC, LEN ON ENTRY                Ÿ
                                   12284                       Ÿ  R1,R0 - KEYWORD LOC, LEN WITHOUT PREFIX ON EXIT  Ÿ
                                   12285                       Ÿ                                                   Ÿ
                                   12286                       ¾þþþþþþþþþþþþþþþþþþþþþþþþþþþþþþþþþþþþþþþþþþþþþþþþþþþ»
 0013B8 50E0 D000/9008_      00000 12287              SVRPREFX PROC  ,
 USING  *,R7
 0013D2 1830                       12326                       LR    R3,R0               R3 - LENGTH OF KEYWORD
                                   12327
                                   12328                       COMMENT                   X. PREFIX
 0013D4 5930 71DE/4750_      015B0 12329                       IF    ((R3,GE,2),AND,(@R1,EQ,'X.')),BEGIN
 0013E6 D503 7192 B778_01564 00778 12361  1                      IF    (CP#XSET,EQ,=A(CP#XOLD)),BEGIN
 0013F0 4110 7242/4100_      01614 12378  2                        ERROR 'X.: invalid.  No XPROC active.'
 0013FC                            12385  1                      END
 0013FC 9201 6010      00010       12389  1                      SET   VNPFX
 001400 58E0 7196/0DEE       01568 12395  1                      ACALL GETXVSET
 001406 5000 5004            00004 12399  1                      ST    R0,SVRSET
 00140A 5B30 71E2            015B4 12400  1                      S     R3,=F'2'
 00140E 4111 0002            00002 12401  1                      LA    R1,2(R1)
 001412                            12402                       END
                                   12406
                                   12407                       COMMENT                   GBL. PREFIX
 001412 7044/7044/47F0_01412 013DA 12408                       ELSEIF ((R3,GE,4),AND,(@R1,EQ,'GBL.')),BEGIN
 001428 9202 6010      00010       12451  1                      SET   VNPFGBL
 00142C 4100 0003            00003 12457  1                      LA    R0,VGLOBAL
 001430 5000 5004            00004 12458  1                      ST    R0,SVRSET
 001434 5B30 71EE            015C0 12459  1                      S     R3,=F'4'
 001438 4111 0004            00004 12460  1                      LA    R1,4(R1)
 00143C                            12461                       END
                                   12465
                                   12466                       COMMENT                   SYS. PREFIX
 00143C 706E/706E/47F0_0143C 0141C 12467                       ELSEIF ((R3,GE,4),AND,(@R1,EQ,'SYS.')),BEGIN
 001452 4110 71A2/4100_      01574 12510  1                      ERROR 'Unable to display multiple System variables.'
 00145E                            12517                       END
                                   12521
                                   12522                       COMMENT                   SES. PREFIX
 00145E 7090/7090/47F0_0145E 01446 12523                       ELSEIF ((R3,GE,4),AND,(@R1,EQ,'SES.')),BEGIN
 001474 9204 6010      00010       12566  1                      SET   VNPFSES
 001478 4100 B524            00524 12572  1                      LA    R0,CPRG16
 00147C 5000 5000            00000 12573  1                      ST    R0,SVRRG
 001480 4100 0008            00008 12574  1                      LA    R0,CP#SESV
 001484 5000 5004            00004 12575  1                      ST    R0,SVRSET
 001488 5B30 71EE            015C0 12576  1                      S     R3,=F'4'
 00148C 4111 0004            00004 12577  1                      LA    R1,4(R1)
 001490                            12578                       END
                                   12582
                                   12583                       COMMENT                   PUB. PREFIX
 001490 70C2/70C2/47F0_01490 01468 12584                       ELSEIF ((R3,GE,4),AND,(@R1,EQ,'PUB.')),BEGIN
 0014A6 9205 6010      00010       12627  1                      SET   VNPFPUB
 0014AA 4100 C360            00360 12633  1                      LA    R0,CVRG16
 0014AE 5000 5000            00000 12634  1                      ST    R0,SVRRG
1VARS     (VARS9014) (12:59) (15MAR04) SHOW VALUE/VARIABLES/ARRAY Commands                                                  Page   34
0Current Usings:  (SVRWA,R5) (VNENTRY,R6) (*,R7) (CP,R11) (CV,R12)
0Loc    Object Code    Addr1 Addr2  Stmt Lv Lineno    Source Statement           (Hibal 5, Asmedit 3.3)  HLASM R4.0  2004/03/15 12.59
+___    ______ ____    _____ _____  ____ __ ______    ______ _________
00014B2 4100 0002            00002 12635  1                      LA    R0,CV#PUBV
 0014B6 5000 5004            00004 12636  1                      ST    R0,SVRSET
 0014BA 5B30 71EE            015C0 12637  1                      S     R3,=F'4'
 0014BE 4111 0004            00004 12638  1                      LA    R1,4(R1)
 0014C2                            12639                       END
                                   12643
 0014C2 1803                       12644                       LR    R0,R3               R0 - RESTORE UPDATED LENGTH
 0014C4 9001 8004            00004 12645                       PRETURN (R0,R1)
 0014C8 18D8/9808 D004_            12647                       PEND  ,
 DROP   *,R7
 DROP   SVRWA,R5                   12667                       DROP  R5
 DROP   VNENTRY,R6                 12674                       DROP  R6
1VARS     (VARS9014) (12:59) (15MAR04) SHOW VALUE/VARIABLES/ARRAY Commands                                                  Page   35
0Current Usings:  (CP,R11) (CV,R12)
0Loc    Object Code    Addr1 Addr2  Stmt Lv Lineno    Source Statement           (Hibal 5, Asmedit 3.3)  HLASM R4.0  2004/03/15 12.59
+___    ______ ____    _____ _____  ____ __ ______    ______ _________
0                                  12682                       QLTORG
1VARS     (VARS9014) (12:59) (15MAR04) SHOW VALUE/VARIABLES/ARRAY Commands                                                  Page   36
0Current Usings:  (CP,R11) (CV,R12)
0Loc    Object Code    Addr1 Addr2  Stmt Lv Lineno    Source Statement           (Hibal 5, Asmedit 3.3)  HLASM R4.0  2004/03/15 12.59
+___    ______ ____    _____ _____  ____ __ ______    ______ _________
0                                  12750              ¿þþþþþþþþþþþþþþþþþþþþþþþþþþþþþþþþþþþþþþþþþþþþþþþþþþþþþþþþþþþþþþþþþþþþþÜ
                                   12751              Ÿ                                                                     Ÿ
                                   12752              Ÿ                                                                     Ÿ
                                   12753              Ÿ  SHOWARRY - SHOW ARRAY ELEMENTS                                     Ÿ
                                   12754              Ÿ                                                                     Ÿ
                                   12755              Ÿ                                                                     Ÿ
                                   12756              Ÿ                                                                     Ÿ
                                                      ¾þþþþþþþþþþþþþþþþþþþþþþþþþþþþþþþþþþþþþþþþþþþþþþþþþþþþþþþþþþþþþþþþþþþþþ»
0000000                00000 002BC 12757              SHYWA    RECORD BEGIN
 000000                            12765  1           SHYCUR1    DS    H                   CURRENT ELEMENT TO DISPLAY
 000002                            12766  1           SHYCUR2    DS    H
 000004                            12767  1           SHYCUR3    DS    H
 000006                            12768  1           SHYFRST1   DS    H                   FIRST ELEMENT TO DISPLAY
 000008                            12769  1           SHYFRST2   DS    H
 00000A                            12770  1           SHYFRST3   DS    H
 00000C                            12771  1           SHYLAST1   DS    H                   LAST ELEMENT TO DISPLAY
 00000E                            12772  1           SHYLAST2   DS    H
 000010                            12773  1           SHYLAST3   DS    H
 000012                            12774  1           SHYDIM1    DS    H                   ARRAY DIMENSIONS
 000014                            12775  1           SHYDIM2    DS    H
 000016                            12776  1           SHYDIM3    DS    H
 000018                            12777  1           SHYSCNCT   DS    F                   SCANNED DIMENSION COUNT
 00001C                            12778  1           SHYARRAY   DS    XL(L'VPARM)         ARRAY DESCRIPTOR
 00016C                            12779  1           SHYELEM    DS    XL(L'VPARM)         ELEMENT NAME
 0002BC                002BC 002BC 12780                       END
                                   12789              *
                                   12790              *
 0016F2 50E0 D000/9008_      00000 12791              SHOWARRY XPROC SHYWA
 USING  *,R7
 USING  SHYWA-(4+36),R8
 00170C 4150 8028            00000 12842                       LA    R5,SHYWA
 USING  SHYWA,R5                   12843                       USING SHYWA,R5
 DROP   SHYWA-(4+36),R8            12852                       USING SHYWA,R8
 USING  SHYWA,R8
 USING  VNENTRY,R6                 12864                       USING VNENTRY,R6
                                   12873
                                   12874                       COMMENT                   SCAN ARRAY NAME
 001710 4160 801C            0001C 12875                       LA    R6,SHYARRAY
 001714 58E0 B08C/581E_      0008C 12876                       SCINFO ,
 001722 4120 801C            0001C 12885                       LA    R2,SHYARRAY
 001726 58E0 7694/0DEE       01DA0 12886                       VCALL SCNVNAME
 00172C 47B0 7030            0173C 12890                       IF    M,BEGIN
 001730 4110 7700/4100_      01E0C 12901  1                      ERROR 'Missing array name.'
 00173C                            12908                       END
 00173C 4780 7052            0175E 12912                       IF    NZ,BEGIN
 001740 4110 6000/4100_      00000 12923  1                      TSEG  VNNAME,L'VNNAME,T
 001752 4110 7713/4100_      01E1F 12953  1                      ERROR ': invalid array name.'
 00175E                            12960                       END
 00175E 4160 816C            0016C 12964                       LA    R6,SHYELEM
 001762 4120 801C            0001C 12965                       LA    R2,SHYARRAY
 001766 D21F 6000 2000 00000 00000 12966                       MVC   VNDESC,VNDESC-VNENTRY(R2)
 00176C 58E0 B08C/501E_      0008C 12967                       SCINIT (R1),(R0)
                                   12987
1VARS     (VARS9014) (12:59) (15MAR04) SHOW VALUE/VARIABLES/ARRAY Commands                                                  Page   37
0Current Usings:  (SHYWA,R5) (VNENTRY,R6) (*,R7) (SHYWA,R8) (CP,R11) (CV,R12)
0Loc    Object Code    Addr1 Addr2  Stmt Lv Lineno    Source Statement           (Hibal 5, Asmedit 3.3)  HLASM R4.0  2004/03/15 12.59
+___    ______ ____    _____ _____  ____ __ ______    ______ _________
0                                  12988                       COMMENT                   GET ARRAY DESCRIPTOR
 00177A 4160 801C            0001C 12989                       LA    R6,SHYARRAY
 00177E 4110 801C            0001C 12990                       LA    R1,SHYARRAY
 001782 4120 801C            0001C 12991                       LA    R2,SHYARRAY
 001786 58E0 769C/0DEE       01DA8 12992                       VCALL GETVAR
 00178C 4780 7096            017A2 12996                       IF    NZ,BEGIN
 001790 58E0 76A0/0DEE       01DAC 13007  1                      ACALL SEGVNAME
 001796 4110 7728/4100_      01E34 13011  1                      ERROR ': undeclared array.'
 0017A2                            13018                       END
 0017A2 9504 6020/4780_00020       13022                       IF    ~VNARRAY,BEGIN
 0017AA 58E0 76A0/0DEE       01DAC 13037  1                      ACALL SEGVNAME
 0017B0 4110 76D8/4100_      01DE4 13041  1                      ERROR ': is not an array.'
 0017BC                            13048                       END
 0017BC 58E0 76A4/0DEE       01DB0 13052                       VCALL SEGVAR
 0017C2 1B00/41F0 B050_            13056                       TCR
                                   13081
                                   13082                       COMMENT                   SET <FROM> ... <TO> DEFAULTS
 0017CE 4160 801C            0001C 13083                       LA    R6,SHYARRAY
 0017D2 D201 8006 76EA 00006 01DF6 13084                       MVC   SHYFRST1,=H'1'
 0017D8 D201 8008 76EA 00008 01DF6 13085                       MVC   SHYFRST2,=H'1'
 0017DE D201 800A 76EA 0000A 01DF6 13086                       MVC   SHYFRST3,=H'1'
 0017E4 D201 800C 6032 0000C 00032 13087                       MVC   SHYLAST1,VNADIM1
 0017EA D201 800E 6034 0000E 00034 13088                       MVC   SHYLAST2,VNADIM2
 0017F0 D201 8010 6036 00010 00036 13089                       MVC   SHYLAST3,VNADIM3
 0017F6 D201 8012 6032 00012 00032 13090                       MVC   SHYDIM1,VNADIM1
 0017FC D201 8014 6034 00014 00034 13091                       MVC   SHYDIM2,VNADIM2
 001802 D201 8016 6036 00016 00036 13092                       MVC   SHYDIM3,VNADIM3
                                   13093
                                   13094                       COMMENT                   SCAN OPTIONS
 001808 D203 8018 76AC 00018 01DB8 13095                       MVC   SHYSCNCT,=F'1'
 00180E 5810 B08C/1B00_      0008C 13096                       SCAN SHYPRT
 001860 58E0 76B8/0DEE       01DC4 13128                       SCANCHK
                                   13133
                                   13134                       COMMENT                   SET LOOP LIMITS
 001866 D501 800C 8012_0000C 00012 13135                       IF    (SHYLAST1,GT,SHYDIM1),BEGIN
 001870 D201 800C 8012 0000C 00012 13153  1                      MVC   SHYLAST1,SHYDIM1
 001876                            13154                       END
 001876 D501 800E 8014_0000E 00014 13158                       IF    (SHYLAST2,GT,SHYDIM2),BEGIN
 001880 D201 800E 8014 0000E 00014 13176  1                      MVC   SHYLAST2,SHYDIM2
 001886                            13177                       END
 001886 D501 8010 8016_00010 00016 13181                       IF    (SHYLAST3,GT,SHYDIM3),BEGIN
 001890 D201 8010 8016 00010 00016 13199  1                      MVC   SHYLAST3,SHYDIM3
 001896                            13200                       END
 001896 D201 8000 8006 00000 00006 13204                       MVC   SHYCUR1,SHYFRST1
 00189C D201 8002 8008 00002 00008 13205                       MVC   SHYCUR2,SHYFRST2
 0018A2 D201 8004 800A 00004 0000A 13206                       MVC   SHYCUR3,SHYFRST3
                                   13207
                                   13208                       COMMENT                   IF 1 DIMENSION, DO IT TO IT
 0018A8 D501 7664 8014_01D70 00014 13209                       IF    (SHYDIM2,EQ,0),BEGIN
 0018B2 4160 816C            0016C 13227  1                      LA    R6,SHYELEM
 0018B6 D501 8000 800C_00000 0000C 13228  1                      WHILE (SHYCUR1,LE,SHYLAST1),BEGIN
 0018C0 D21F 6000 801C 00000 0001C 13248  2                        MVC   VNDESC,SHYARRAY
 0018C6 D201 6012 8000 00012 00000 13249  2                        MVC   VNASUB1,SHYCUR1
                                   13250  2                        COMMENT                   GET ARRAY ELEMENT
1VARS     (VARS9014) (12:59) (15MAR04) SHOW VALUE/VARIABLES/ARRAY Commands                                                  Page   38
0Current Usings:  (SHYWA,R5) (VNENTRY,R6) (*,R7) (SHYWA,R8) (CP,R11) (CV,R12)
0Loc    Object Code    Addr1 Addr2  Stmt Lv Lineno    Source Statement           (Hibal 5, Asmedit 3.3)  HLASM R4.0  2004/03/15 12.59
+___    ______ ____    _____ _____  ____ __ ______    ______ _________
00018CC 4100 801C            0001C 13251  2                        LA    R0,SHYARRAY
 0018D0 4110 6000            00000 13252  2                        LA    R1,VNENTRY
 0018D4 4120 6000            00000 13253  2                        LA    R2,VNENTRY
 0018D8 58E0 76BC/0DEE       01DC8 13254  2                        ACALL GETARRAY
 0018DE 4780 71D8            018E4 13258  2                        IF    NZ,BEGIN
 0018E2 0000                       13269  3                          BOMB
 0018E4                            13271  2                        END
                                   13275  2                        COMMENT                   PRINT ARRAY ELEMENT
 0018E4 4100 801C            0001C 13276  2                        LA    R0,SHYARRAY
 0018E8 4120 816C            0016C 13277  2                        LA    R2,SHYELEM
 0018EC 58E0 76C0/0DEE       01DCC 13278  2                        ACALL SEGELEM
 0018F2 1B00/41F0 B050_            13282  2                        TCR
 0018FE 4770 7360            01A6C 13307  2                        BNZ   SHYDONE
 001902 4830 8000            00000 13308  2                        LH    R3,SHYCUR1
 001906 4133 0001            00001 13309  2                        LA    R3,1(R3)
 00190A 4030 8000            00000 13310  2                        STH   R3,SHYCUR1
 00190E 47F0 71AA            018B6 13311  1                      END
 001912                            13316                       END
                                   13320
                                   13321                       COMMENT                   IF 2 DIMENSION, IT DO IT TOO
 001912 720A/47F0 72A0_01912 018B0 13322                       ELSEIF (SHYDIM3,EQ,0),BEGIN
 001920 4160 816C            0016C 13349  1                      LA    R6,SHYELEM
 001924 D201 8000 8006 00000 00006 13350  1                      MVC   SHYCUR1,SHYFRST1
 00192A D501 8000 800C_00000 0000C 13351  1                      WHILE (SHYCUR1,LE,SHYLAST1),BEGIN
 001934 D201 8002 8008 00002 00008 13371  2                        MVC   SHYCUR2,SHYFRST2
 00193A D501 8002 800E_00002 0000E 13372  2                        WHILE (SHYCUR2,LE,SHYLAST2),BEGIN
 001944 D21F 6000 801C 00000 0001C 13392  3                          MVC   VNDESC,SHYARRAY
 00194A D201 6012 8000 00012 00000 13393  3                          MVC   VNASUB1,SHYCUR1
 001950 D201 6014 8002 00014 00002 13394  3                          MVC   VNASUB2,SHYCUR2
                                   13395  3                          COMMENT                   GET ARRAY ELEMENT
 001956 4100 801C            0001C 13396  3                          LA    R0,SHYARRAY
 00195A 4110 6000            00000 13397  3                          LA    R1,VNENTRY
 00195E 4120 6000            00000 13398  3                          LA    R2,VNENTRY
 001962 58E0 76BC/0DEE       01DC8 13399  3                          ACALL GETARRAY
 001968 4780 7262            0196E 13403  3                          IF    NZ,BEGIN
 00196C 0000                       13414  4                            BOMB
 00196E                            13416  3                          END
                                   13420  3                          COMMENT                   PRINT ARRAY ELEMENT
 00196E 4100 801C            0001C 13421  3                          LA    R0,SHYARRAY
 001972 4120 816C            0016C 13422  3                          LA    R2,SHYELEM
 001976 58E0 76C0/0DEE       01DCC 13423  3                          ACALL SEGELEM
 00197C 1B00/41F0 B050_            13427  3                          TCR
 001988 4770 7360            01A6C 13452  3                          BNZ   SHYDONE
 00198C 4830 8002            00002 13453  3                          LH    R3,SHYCUR2
 001990 4133 0001            00001 13454  3                          LA    R3,1(R3)
 001994 4030 8002            00002 13455  3                          STH   R3,SHYCUR2
 001998 47F0 722E            0193A 13456  2                        END
 00199C 4830 8000            00000 13461  2                        LH    R3,SHYCUR1
 0019A0 4133 0001            00001 13462  2                        LA    R3,1(R3)
 0019A4 4030 8000            00000 13463  2                        STH   R3,SHYCUR1
 0019A8 47F0 721E            0192A 13464  1                      END
 0019AC                            13469                       END
                                   13473
                                   13474                       COMMENT                   IF 3 DIMENSION, DO IT TO THE MAX
1VARS     (VARS9014) (12:59) (15MAR04) SHOW VALUE/VARIABLES/ARRAY Commands                                                  Page   39
0Current Usings:  (SHYWA,R5) (VNENTRY,R6) (*,R7) (SHYWA,R8) (CP,R11) (CV,R12)
0Loc    Object Code    Addr1 Addr2  Stmt Lv Lineno    Source Statement           (Hibal 5, Asmedit 3.3)  HLASM R4.0  2004/03/15 12.59
+___    ______ ____    _____ _____  ____ __ ______    ______ _________
00019AC 72A4/47F0 7360_019AC 0191E 13475                       ELSEIF (SHYDIM3,NE,0),BEGIN
 0019BA 4160 816C            0016C 13502  1                      LA    R6,SHYELEM
 0019BE D201 8000 8006 00000 00006 13503  1                      MVC   SHYCUR1,SHYFRST1
 0019C4 D501 8000 800C_00000 0000C 13504  1                      WHILE (SHYCUR1,LE,SHYLAST1),BEGIN
 0019CE D201 8002 8008 00002 00008 13524  2                        MVC   SHYCUR2,SHYFRST2
 0019D4 D501 8002 800E_00002 0000E 13525  2                        WHILE (SHYCUR2,LE,SHYLAST2),BEGIN
 0019DE D201 8004 800A 00004 0000A 13545  3                          MVC   SHYCUR3,SHYFRST3
 0019E4 D501 8004 8010_00004 00010 13546  3                          WHILE (SHYCUR3,LE,SHYLAST3),BEGIN
 0019EE D21F 6000 801C 00000 0001C 13566  4                            MVC   VNDESC,SHYARRAY
 0019F4 D201 6012 8000 00012 00000 13567  4                            MVC   VNASUB1,SHYCUR1
 0019FA D201 6014 8002 00014 00002 13568  4                            MVC   VNASUB2,SHYCUR2
 001A00 D201 6016 8004 00016 00004 13569  4                            MVC   VNASUB3,SHYCUR3
                                   13570  4                            COMMENT                   GET ARRAY ELEMENT
 001A06 4100 801C            0001C 13571  4                            LA    R0,SHYARRAY
 001A0A 4110 6000            00000 13572  4                            LA    R1,VNENTRY
 001A0E 4120 6000            00000 13573  4                            LA    R2,VNENTRY
 001A12 58E0 76BC/0DEE       01DC8 13574  4                            ACALL GETARRAY
 001A18 4780 7312            01A1E 13578  4                            IF    NZ,BEGIN
 001A1C 0000                       13589  5                              BOMB
 001A1E                            13591  4                            END
                                   13595  4                            COMMENT                   PRINT ARRAY ELEMENT
 001A1E 4100 801C            0001C 13596  4                            LA    R0,SHYARRAY
 001A22 4120 816C            0016C 13597  4                            LA    R2,SHYELEM
 001A26 58E0 76C0/0DEE       01DCC 13598  4                            ACALL SEGELEM
 001A2C 1B00/41F0 B050_            13602  4                            TCR
 001A38 4770 7360            01A6C 13627  4                            BNZ   SHYDONE
 001A3C 4830 8004            00004 13628  4                            LH    R3,SHYCUR3
 001A40 4133 0001            00001 13629  4                            LA    R3,1(R3)
 001A44 4030 8004            00004 13630  4                            STH   R3,SHYCUR3
 001A48 47F0 72D8            019E4 13631  3                          END
 001A4C 4830 8002            00002 13636  3                          LH    R3,SHYCUR2
 001A50 4133 0001            00001 13637  3                          LA    R3,1(R3)
 001A54 4030 8002            00002 13638  3                          STH   R3,SHYCUR2
 001A58 47F0 72C8            019D4 13639  2                        END
 001A5C 4830 8000            00000 13644  2                        LH    R3,SHYCUR1
 001A60 4133 0001            00001 13645  2                        LA    R3,1(R3)
 001A64 4030 8000            00000 13646  2                        STH   R3,SHYCUR1
 001A68 47F0 72B8            019C4 13647  1                      END
 001A6C                            13652                       END
                                   13656
 001A6C                            13657              SHYDONE  LABEL ,
                                   13659                       COMMENT                   BUG OUT OF HERE BUD !!
 001A6C 47F0 C7DE            007DE 13660                       B     CVNEXT
                                   13661
 001A70 18D8/9808 D004_            13662                       PEND  ,
 DROP   SHYWA,R8
 DROP   *,R7
-
1VARS     (VARS9014) (12:59) (15MAR04) SHOW VALUE/VARIABLES/ARRAY Commands                                                  Page   40
0Current Usings:  (SHYWA,R5) (VNENTRY,R6) (CP,R11) (CV,R12)
0Loc    Object Code    Addr1 Addr2  Stmt Lv Lineno    Source Statement           (Hibal 5, Asmedit 3.3)  HLASM R4.0  2004/03/15 12.59
+___    ______ ____    _____ _____  ____ __ ______    ______ _________
0                                  13688                       ¿þþþþþþþþþþþþþþþþþþþþþþþþþþþþþþþþþÜ
                                   13689                       Ÿ  SHOW ARRAY OPTIONS  (SCANNED)  Ÿ
                                   13690                       ¾þþþþþþþþþþþþþþþþþþþþþþþþþþþþþþþþþ»
 001A80 C6D9D6D440404040_          13691              SHYPRT   SCKW  FROM,SHYFROM,(A,P,PI)
 001AA8 E3D6404040404040_          13706                       SCKW  TO,SHYTO,(A,P,PI)
 001AD0 D3C9D2C540404040_          13721                       SCKW  LIKE,SHYLIKE,(A,P,PI)
 001AF8 C1D5C44040404040_          13736                       SCKW  AND,SHYAND
 001B20 4040404040404040_          13751                       SCKW  ,V(COLLPSH),PUSH
 001B48 4040404040404040_          13766                       SCKW  ,V(NOTVALID)
-
-                                  13782                       ¿þþþþþþþþÜ
                                   13783                       Ÿ  FROM  Ÿ
                                   13784                       ¾þþþþþþþþ»
 001B70 50E0 D000/9008_      00000 13785              SHYFROM  PROC  ,
 USING  *,R7
 001B8A D503 7246 5018_01DD0 00018 13824                       IF    (SHYSCNCT,EQ,1),BEGIN
 001B94 4000 5006            00006 13842  1                      STH   R0,SHYFRST1
 001B98                            13843                       END
 001B98 7012/47F0 7020_01B98 01B92 13847                       ELSEIF (SHYSCNCT,EQ,2),BEGIN
 001BA6 4000 5008            00008 13874  1                      STH   R0,SHYFRST2
 001BAA                            13875                       END
 001BAA 7024/47F0 7032_01BAA 01BA4 13879                       ELSEIF (SHYSCNCT,EQ,3),BEGIN
 001BB8 4000 500A            0000A 13906  1                      STH   R0,SHYFRST3
 001BBC                            13907                       END
 001BBC 1BFF                       13911                       CLEAR R15
 001BBE 18D8/9808 D004_            13915                       PEND  ,
 DROP   *,R7
-
-                                  13936                       ¿þþþþþþÜ
                                   13937                       Ÿ  TO  Ÿ
                                   13938                       ¾þþþþþþ»
 001BCC 50E0 D000/9008_      00000 13939              SHYTO    PROC  ,
 USING  *,R7
 001BE6 D503 71EA 5018_01DD0 00018 13978                       IF    (SHYSCNCT,EQ,1),BEGIN
 001BF0 4000 500C            0000C 13996  1                      STH   R0,SHYLAST1
 001BF4                            13997                       END
 001BF4 7012/47F0 7020_01BF4 01BEE 14001                       ELSEIF (SHYSCNCT,EQ,2),BEGIN
 001C02 4000 500E            0000E 14028  1                      STH   R0,SHYLAST2
 001C06                            14029                       END
 001C06 7024/47F0 7032_01C06 01C00 14033                       ELSEIF (SHYSCNCT,EQ,3),BEGIN
 001C14 4000 5010            00010 14060  1                      STH   R0,SHYLAST3
 001C18                            14061                       END
 001C18 1BFF                       14065                       CLEAR R15
 001C1A 18D8/9808 D004_            14069                       PEND  ,
 DROP   *,R7
1VARS     (VARS9014) (12:59) (15MAR04) SHOW VALUE/VARIABLES/ARRAY Commands                                                  Page   41
0Current Usings:  (SHYWA,R5) (VNENTRY,R6) (CP,R11) (CV,R12)
0Loc    Object Code    Addr1 Addr2  Stmt Lv Lineno    Source Statement           (Hibal 5, Asmedit 3.3)  HLASM R4.0  2004/03/15 12.59
+___    ______ ____    _____ _____  ____ __ ______    ______ _________
0
-                                  14090                       ¿þþþþþþþþÜ
                                   14091                       Ÿ  LIKE  Ÿ
                                   14092                       ¾þþþþþþþþ»
 001C28 50E0 D000/9008_      00000 14093              SHYLIKE  PROC  ,
 USING  *,R7
 001C42 D503 718E 5018_01DD0 00018 14132                       IF    (SHYSCNCT,EQ,1),BEGIN
 001C4C 4000 5006            00006 14150  1                      STH   R0,SHYFRST1
 001C50 4000 500C            0000C 14151  1                      STH   R0,SHYLAST1
 001C54                            14152                       END
 001C54 7016/47F0 7028_01C54 01C4A 14156                       ELSEIF (SHYSCNCT,EQ,2),BEGIN
 001C62 4000 5008            00008 14183  1                      STH   R0,SHYFRST2
 001C66 4000 500E            0000E 14184  1                      STH   R0,SHYLAST2
 001C6A                            14185                       END
 001C6A 702C/47F0 703E_01C6A 01C60 14189                       ELSEIF (SHYSCNCT,EQ,3),BEGIN
 001C78 4000 500A            0000A 14216  1                      STH   R0,SHYFRST3
 001C7C 4000 5010            00010 14217  1                      STH   R0,SHYLAST3
 001C80                            14218                       END
 001C80 1BFF                       14222                       CLEAR R15
 001C82 18D8/9808 D004_            14226                       PEND  ,
 DROP   *,R7
-
-                                  14247                       ¿þþþþþþþÜ
                                   14248                       Ÿ  AND  Ÿ
                                   14249                       ¾þþþþþþþ»
 001C90 50E0 D000/9008_      00000 14250              SHYAND   PROC  ,
 USING  *,R7
 001CAA D503 7126 5018_01DD0 00018 14289                       IF    ((SHYSCNCT,EQ,1),AND,(SHYDIM2,NE,0)),BEGIN
 001CBE 5830 5018            00018 14324  1                      L     R3,SHYSCNCT
 001CC2 4133 0001            00001 14325  1                      LA    R3,1(R3)
 001CC6 5030 5018            00018 14326  1                      ST    R3,SHYSCNCT
 001CCA                            14327                       END
 001CCA 7024/7024/47F0_01CCA 01CB2 14331                       ELSEIF ((SHYSCNCT,EQ,2),AND,(SHYDIM3,NE,0)),BEGIN
 001CE2 5830 5018            00018 14377  1                      L     R3,SHYSCNCT
 001CE6 4133 0001            00001 14378  1                      LA    R3,1(R3)
 001CEA 5030 5018            00018 14379  1                      ST    R3,SHYSCNCT
 001CEE                            14380                       END
 001CEE 7048/7048/47F0_01CEE 01CD6 14384                       ELSE  BEGIN
 001CF2 4110 7150/4100_      01DFA 14397  1                      TSEG  'Command invalid.  '
 001D04 4110 70CE/4100_      01D78 14415  1                      ERROR 'Too many dimension qualifiers specified.'
 001D10                            14422                       END
 001D10 1BFF                       14426                       CLEAR R15
 001D12 18D8/9808 D004_            14430                       PEND  ,
 DROP   *,R7
 DROP   SHYWA,R5                   14450                       DROP  R5
 DROP   VNENTRY,R6                 14457                       DROP  R6
1VARS     (VARS9014) (12:59) (15MAR04) CLEAR VARIABLES Command                                                              Page   42
0Current Usings:  (CP,R11) (CV,R12)
0Loc    Object Code    Addr1 Addr2  Stmt Lv Lineno    Source Statement           (Hibal 5, Asmedit 3.3)  HLASM R4.0  2004/03/15 12.59
+___    ______ ____    _____ _____  ____ __ ______    ______ _________
0                                  14465              ¿þþþþþþþþþþþþþþþþþþþþþþþþþþþþþþþþþþþþþþþþþþþþþþþþþþþþþþþþþþþþþþþþþþþþþÜ
                                   14466              Ÿ                                                                     Ÿ
                                   14467              Ÿ                                                                     Ÿ
                                   14468              Ÿ  CLRVARS - CLEAR VALUES                                             Ÿ
                                   14469              Ÿ                                                                     Ÿ
                                   14470              Ÿ  CLEAR ALL EXEC BASE VARIABLES,  VALID ONLY FROM SIMPLE             Ÿ
                                   14471              Ÿ  EXEC FILE.                                                         Ÿ
                                   14472              Ÿ                                                                     Ÿ
                                   14473              Ÿ                                                                     Ÿ
                                   14474              Ÿ                                                                     Ÿ
                                                      ¾þþþþþþþþþþþþþþþþþþþþþþþþþþþþþþþþþþþþþþþþþþþþþþþþþþþþþþþþþþþþþþþþþþþþþ»
0001D20 50E0 D000/9008_      00000 14475              CLRVARS  XPROC ,
 USING  *,R7
                                   14515              *$
                                   14516              *$  HEY BUD !!!
                                   14517              *$  USER MAY NOT CLEAR VARIABLES FROM WITHIN XCALL !! ONLY BASE
                                   14518              *$  LEVEL VARIABLES AND GLOBALS CAN BE CLEARED.  THIS ROUTINE
                                   14519              *$  CLEARS BASE LEVEL VARIABLES (IE. OLD EXEC AND TERMINAL VARS,
                                   14520              *$  INCLUDING  N0,S0,W0 ETC.)  IT MAY ONLY BE CALLED FROM OLD
                                   14521              *$  EXEC OR A TERMINAL SESSION.  USER MAY CLOBBER GLOBALS AT
                                   14522              *$  WILL.  THAT SHOULD MAKE USER HAPPY.
                                   14523              *$
 001D3A 9502 B759/4780_00759       14524                       IF    (CPFXOLD,OR,~CPFEXEC),BEGIN
 001D4A 58E0 70A6/0DEE       01DE0 14553  1                      ACALL INITBASE            CLEAR AND INITIALIZE BASE VARS
 001D50 1BFF                       14557  1                      CLEAR R15
 001D52                            14561                       END
 001D52 701C/47F0 7028 01D52 01D48 14565                       ELSE  BEGIN
 001D56 4110 710D/4100_      01E47 14576  1                      ERROR 'Command invalid from within XCALLED procedures.'
 001D62                            14583                       END
 001D62 18D8/9808 D004_            14587                       PEND  ,
 DROP   *,R7
1VARS     (VARS9014) (12:59) (15MAR04) CLEAR VARIABLES Command                                                              Page   43
0Current Usings:  (CP,R11) (CV,R12)
0Loc    Object Code    Addr1 Addr2  Stmt Lv Lineno    Source Statement           (Hibal 5, Asmedit 3.3)  HLASM R4.0  2004/03/15 12.59
+___    ______ ____    _____ _____  ____ __ ______    ______ _________
0                                  14608                       QLTORG
1VARS     (VARS9014) (12:59) (15MAR04) GET/SAVE VARIABLES                                                                   Page   44
0Current Usings:  (CP,R11) (CV,R12)
0Loc    Object Code    Addr1 Addr2  Stmt Lv Lineno    Source Statement           (Hibal 5, Asmedit 3.3)  HLASM R4.0  2004/03/15 12.59
+___    ______ ____    _____ _____  ____ __ ______    ______ _________
0                                  14648              ¿þþþþþþþþþþþþþþþþþþþþþþþþþþþþþþþþþþþþþþþþþþþþþþþþþþþþþþþþþþþþþþþþþþþþþÜ
                                   14649              Ÿ                                                                     Ÿ
                                   14650              Ÿ                                                                     Ÿ
                                   14651              Ÿ  GETVAR - GET VARIABLE                                              Ÿ
                                   14652              Ÿ                                                                     Ÿ
                                   14653              Ÿ  ON ENTRY:                                                          Ÿ
                                   14654              Ÿ       R1 - VARIABLE PARM AREA.  SEE VNENTRY DSECT.                  Ÿ
                                   14655              Ÿ       R2 - VARIABLE NAME, DESCRIPTOR.  SEE VNENTRY DSECT.           Ÿ
                                   14656              Ÿ            (CONTAINS PREFIX FLAGS AND SUBSCRIPTS, IF ANY)           Ÿ
                                   14657              Ÿ                                                                     Ÿ
                                   14658              Ÿ  ON EXIT:                                                           Ÿ
                                   14659              Ÿ      @R1 - VARIABLE PARM AREA RETURNED                              Ÿ
                                   14660              Ÿ      R15 - CC=ZERO, VARIABLE FOUND                                  Ÿ
                                   14661              Ÿ            CC=NZ, VARIABLE NOT FOUND, SEE CAUTION BELOW !           Ÿ
                                   14662              Ÿ                                                                     Ÿ
                                   14663              Ÿ  NOTE: R1 AND R2 MAY POINT TO SAME VARIABLE PARM AREA IF            Ÿ
                                   14664              Ÿ        DESIRED.                                                     Ÿ
                                   14665              Ÿ                                                                     Ÿ
                                   14666              Ÿ  CAUTION: !!!!!!!!!!!!!!!!                                          Ÿ
                                   14667              Ÿ       THIS ROUTINE IS NOT WILL NOT WORK WITH ARRAY ELEMENTS!        Ÿ
                                   14668              Ÿ       THIS IS BECAUSE ARRAY ELEMENT MAY FAIL BECAUSE OF             Ÿ
                                   14669              Ÿ       INVALID SUBSCRIPTS.  USE GET ARRAY INSTEAD IF NEEDED.         Ÿ
                                   14670              Ÿ       THIS SHOULD NOT BE A PROBLEM AS ONLY CURRENT CALLER IS        Ÿ
                                   14671              Ÿ       IN EVAL MODULE. ALL OTHERS CALL EVAL TO GET VAR VALUE.        Ÿ
                                   14672              Ÿ       IT IS BEST TO KEEP IT THAT WAY,, DO NOT BE A BOZO !!          Ÿ
                                   14673              Ÿ                                                                     Ÿ
                                   14674              Ÿ  INPLEMENTATION NOTE: GETVAR SHUTTLES OFF TO HANDLE EACH PREFIX     Ÿ
                                   14675              Ÿ       VARIABLE TYPE (IE. SES./PUB./GBL./X./ETC ..) WITH THE         Ÿ
                                   14676              Ÿ       EXCEPTION OF SYS. ALL COULD BE HANDLED USING GETVRG FOR       Ÿ
                                   14677              Ÿ       RECORD GROUP POINTER AND GETVSET FOR SET NUMBER!  THIS        Ÿ
                                   14678              Ÿ       COLLAPSING FOR COMMON ROUTINES WAS NOT DONE AS FOR SAVEXVAR   Ÿ
                                   14679              Ÿ       ROUTINES IT STILL APPEARED TO BE SOMEWHAT PAIN IN BUTT.       Ÿ
                                   14680              Ÿ                                                                     Ÿ
                                                      ¾þþþþþþþþþþþþþþþþþþþþþþþþþþþþþþþþþþþþþþþþþþþþþþþþþþþþþþþþþþþþþþþþþþþþþ»
0001E76 50E0 D000/9008_      00000 14681              GETVAR   XPROC ,
 USING  *,R7
 USING  VNENTRY,R6                 14721                       USING VNENTRY,R6
 001E90 1862                       14730                       LR    R6,R2
                                   14731
                                   14732                       COMMENT                   ARRAY ELEMENTS NOT ALLOWED !
 001E92 D501 7E30 6012_02CC0 00012 14733                       IF    (VNASUB1,NE,0),BEGIN
 001E9C 0000                       14751  1                      BOMB
 001E9E                            14753                       END
                                   14757
                                   14758                       COMMENT                   LOCAL VARIABLE
 001E9E 9500 6010/4770_00010       14759                       IF    (VNPREFIX,EQ,0),BEGIN
 001EA6 58E0 7FA8/0DEE       02E38 14777  1                      ACALL GETLVAR
 001EAC                            14781                       END
                                   14785
                                   14786                       COMMENT                   XPROC 'X.' VARIABLE
 001EAC 7020/47F0 702E_01EAC 01EA4 14787                       ELSEIF VNPFX,BEGIN
 001EB8 58E0 7FAC/0DEE       02E3C 14811  1                      ACALL GETXVAR
 001EBE                            14815                       END
1VARS     (VARS9014) (12:59) (15MAR04) GET/SAVE VARIABLES                                                                   Page   45
0Current Usings:  (VNENTRY,R6) (*,R7) (CP,R11) (CV,R12)
0Loc    Object Code    Addr1 Addr2  Stmt Lv Lineno    Source Statement           (Hibal 5, Asmedit 3.3)  HLASM R4.0  2004/03/15 12.59
+___    ______ ____    _____ _____  ____ __ ______    ______ _________
0                                  14819
                                   14820                       COMMENT                   GLOBAL VARIABLE
 001EBE 7032/47F0 7040_01EBE 01EB6 14821                       ELSEIF VNPFGBL,BEGIN
 001ECA 58E0 7FB0/0DEE       02E40 14845  1                      ACALL GETGVAR
 001ED0                            14849                       END
                                   14853
                                   14854                       COMMENT                   SYSTEM VARIABLE
 001ED0 7044/47F0 7052_01ED0 01EC8 14855                       ELSEIF VNPFSYS,BEGIN
 001EDC 58E0 7FB4/0DEE       02E44 14879  1                      ACALL GETSVAR
 001EE2                            14883                       END
                                   14887
                                   14888                       COMMENT                   SESSION VARIABLE
 001EE2 7056/47F0 7064_01EE2 01EDA 14889                       ELSEIF VNPFSES,BEGIN
 001EEE 58E0 7FB8/0DEE       02E48 14913  1                      ACALL GETNVAR
 001EF4                            14917                       END
                                   14921
                                   14922                       COMMENT                   PUBLIC VARIABLE
 001EF4 7068/47F0 7076_01EF4 01EEC 14923                       ELSEIF VNPFPUB,BEGIN
 001F00 58E0 7FBC/0DEE       02E4C 14947  1                      ACALL GETPVAR
 001F06                            14951                       END
                                   14955
                                   14956                       COMMENT                   NONE OF THE ABOVE
 001F06 707A/47F0 707C 01F06 01EFE 14957                       ELSE  BEGIN
 001F0A 0000                       14968  1                      BOMB
 001F0C                            14970                       END
                                   14974
 001F0C 18D8/9808 D004_            14975                       PEND  ,
 DROP   *,R7
1VARS     (VARS9014) (12:59) (15MAR04) GET/SAVE VARIABLES                                                                   Page   46
0Current Usings:  (VNENTRY,R6) (CP,R11) (CV,R12)
0Loc    Object Code    Addr1 Addr2  Stmt Lv Lineno    Source Statement           (Hibal 5, Asmedit 3.3)  HLASM R4.0  2004/03/15 12.59
+___    ______ ____    _____ _____  ____ __ ______    ______ _________
0                                  14996              ¿þþþþþþþþþþþþþþþþþþþþþþþþþþþþþþþþþþþþþþþþþþþþþþþþþþþþþþþþþþþþþþþþþþþþþÜ
                                   14997              Ÿ                                                                     Ÿ
                                   14998              Ÿ                                                                     Ÿ
                                   14999              Ÿ  GETLVAR - GET VARIABLE FROM LOCAL (CURRENT) VAR SET                Ÿ
                                   15000              Ÿ                                                                     Ÿ
                                   15001              Ÿ  ON ENTRY:                                                          Ÿ
                                   15002              Ÿ      @R1 - VARIABLE PARM AREA.  SEE VNENTRY DSECT                   Ÿ
                                   15003              Ÿ      @R2 - VARIABLE NAME                                            Ÿ
                                   15004              Ÿ                                                                     Ÿ
                                   15005              Ÿ  ON EXIT:                                                           Ÿ
                                   15006              Ÿ      @R1 - VARIABLE PARM AREA RETURNED                              Ÿ
                                   15007              Ÿ      R15 - CC=ZERO, RECORD FOUND                                    Ÿ
                                   15008              Ÿ            CC=NZ, RECORD DOES NOT EXIST                             Ÿ
                                   15009              Ÿ                                                                     Ÿ
                                   15010              Ÿ                                                                     Ÿ
                                   15011              Ÿ                                                                     Ÿ
                                                      ¾þþþþþþþþþþþþþþþþþþþþþþþþþþþþþþþþþþþþþþþþþþþþþþþþþþþþþþþþþþþþþþþþþþþþþ»
0001F1A 50E0 D000/9008_      00000 15012              GETLVAR  PROC  ,
 USING  *,R7
                                   15051                       USING VNENTRY,R6
 001F34 1861                       15053                       LR    R6,R1
                                   15054
                                   15055                       COMMENT                   SET LOCAL VARIABLE SET
 001F36 41F0 B4E4            004E4 15056                       LA    R15,CPVARS
 001F3A 5800 B844            00844 15057                       L     R0,CPVSET#
 001F3E 58E0 7F1C/0DEE       02E50 15058                       VCALL XSETSET
                                   15062
                                   15063                       COMMENT                   GET VARIABLE
 001F44 41F0 B4E4            004E4 15064                       LA    R15,CPVARS
 001F48 4100 0130            00130 15065                       LA    R0,L'VPARM-(VNDATA-VNENTRY)
 001F4C 4110 6020            00020 15066                       LA    R1,VNDATA
                                   15067                       COMMENT , @R2=NAME
 001F50 58E0 7F20/0DEE       02E54 15068                       VCALL XGET
                                   15072
 001F56 18D8/9808 D004_            15073                       PEND  ,
 DROP   *,R7
 DROP   VNENTRY,R6                 15093                       DROP  R6
1VARS     (VARS9014) (12:59) (15MAR04) GET/SAVE VARIABLES                                                                   Page   47
0Current Usings:  (CP,R11) (CV,R12)
0Loc    Object Code    Addr1 Addr2  Stmt Lv Lineno    Source Statement           (Hibal 5, Asmedit 3.3)  HLASM R4.0  2004/03/15 12.59
+___    ______ ____    _____ _____  ____ __ ______    ______ _________
0                                  15101              ¿þþþþþþþþþþþþþþþþþþþþþþþþþþþþþþþþþþþþþþþþþþþþþþþþþþþþþþþþþþþþþþþþþþþþþÜ
                                   15102              Ÿ                                                                     Ÿ
                                   15103              Ÿ                                                                     Ÿ
                                   15104              Ÿ  GETXVAR - GET XPROC 'X.' VARIABLE                                  Ÿ
                                   15105              Ÿ                                                                     Ÿ
                                   15106              Ÿ  ON ENTRY:                                                          Ÿ
                                   15107              Ÿ      @R1 - VARIABLE PARM AREA.  SEE VNENTRY DSECT                   Ÿ
                                   15108              Ÿ      @R2 - VARIABLE NAME                                            Ÿ
                                   15109              Ÿ                                                                     Ÿ
                                   15110              Ÿ  ON EXIT:                                                           Ÿ
                                   15111              Ÿ      @R1 - VARIABLE PARM AREA RETURNED                              Ÿ
                                   15112              Ÿ      R15 - CC=ZERO, RECORD FOUND                                    Ÿ
                                   15113              Ÿ            CC=NZ, RECORD DOES NOT EXIST, (OR NOT IN XPROC)          Ÿ
                                   15114              Ÿ                                                                     Ÿ
                                   15115              Ÿ                                                                     Ÿ
                                                      ¾þþþþþþþþþþþþþþþþþþþþþþþþþþþþþþþþþþþþþþþþþþþþþþþþþþþþþþþþþþþþþþþþþþþþþ»
0001F64 50E0 D000/9008_      00000 15116              GETXVAR  XPROC ,
 USING  *,R7
 USING  VNENTRY,R6                 15156                       USING VNENTRY,R6
 001F7E 1861                       15165                       LR    R6,R1
                                   15166
                                   15167                       COMMENT                   IF IN XPROC ACTIVE, GET VAR
 001F80 D503 7EDA B778_02E58 00778 15168                       IF    (CP#XSET,NE,=A(CP#XOLD)),BEGIN
                                   15185  1
                                   15186  1                      COMMENT                   SET 'X.' VARIABLE SET
 001F8A 41F0 B4E4            004E4 15187  1                      LA    R15,CPVARS
 001F8E 58E0 7EDE/0DEE       02E5C 15188  1                      ACALL GETXVSET
 001F94 58E0 7ED2/0DEE       02E50 15192  1                      VCALL XSETSET
                                   15196  1
                                   15197  1                      COMMENT                   GET XPROC 'X.' VARIABLE
 001F9A 41F0 B4E4            004E4 15198  1                      LA    R15,CPVARS
 001F9E 4100 0130            00130 15199  1                      LA    R0,L'VPARM-(VNDATA-VNENTRY)
 001FA2 4110 6020            00020 15200  1                      LA    R1,VNDATA
                                   15201  1                      COMMENT , @R2=NAME
 001FA6 58E0 7ED6/0DEE       02E54 15202  1                      VCALL XGET
                                   15206  1
 001FAC                            15207                       END   , OF XPROC ACTIVE
                                   15211
                                   15212                       COMMENT                   IF XPROC NOT ACTIVE,
 001FAC 7032/47F0 7036 01FAC 01F88 15213                       ELSE  BEGIN                  TREAT AS VARIABLE NOT FOUND
 001FB0 41F0 0004            00004 15224  1                      LA    R15,4
 001FB4                            15225                       END
                                   15229
 001FB4 18D8/9808 D004_            15230                       PEND  ,
 DROP   *,R7
 DROP   VNENTRY,R6                 15250                       DROP  R6
1VARS     (VARS9014) (12:59) (15MAR04) GET/SAVE VARIABLES                                                                   Page   48
0Current Usings:  (CP,R11) (CV,R12)
0Loc    Object Code    Addr1 Addr2  Stmt Lv Lineno    Source Statement           (Hibal 5, Asmedit 3.3)  HLASM R4.0  2004/03/15 12.59
+___    ______ ____    _____ _____  ____ __ ______    ______ _________
0                                  15258              ¿þþþþþþþþþþþþþþþþþþþþþþþþþþþþþþþþþþþþþþþþþþþþþþþþþþþþþþþþþþþþþþþþþþþþþÜ
                                   15259              Ÿ                                                                     Ÿ
                                   15260              Ÿ                                                                     Ÿ
                                   15261              Ÿ  GETGVAR - GET GLOBAL VARIABLE                                      Ÿ
                                   15262              Ÿ                                                                     Ÿ
                                   15263              Ÿ  ON ENTRY:                                                          Ÿ
                                   15264              Ÿ      @R1 - VARIABLE PARM AREA.  SEE VNENTRY DSECT                   Ÿ
                                   15265              Ÿ      @R2 - VARIABLE NAME                                            Ÿ
                                   15266              Ÿ                                                                     Ÿ
                                   15267              Ÿ  ON EXIT:                                                           Ÿ
                                   15268              Ÿ      @R1 - VARIABLE PARM AREA RETURNED                              Ÿ
                                   15269              Ÿ      R15 - CC=ZERO, RECORD FOUND                                    Ÿ
                                   15270              Ÿ            CC=NZ, RECORD DOES NOT EXIST                             Ÿ
                                   15271              Ÿ                                                                     Ÿ
                                   15272              Ÿ                                                                     Ÿ
                                                      ¾þþþþþþþþþþþþþþþþþþþþþþþþþþþþþþþþþþþþþþþþþþþþþþþþþþþþþþþþþþþþþþþþþþþþþ»
0001FC2 50E0 D000/9008_      00000 15273              GETGVAR  XPROC ,
 USING  *,R7
 USING  VNENTRY,R6                 15313                       USING VNENTRY,R6
 001FDC 1861                       15322                       LR    R6,R1
                                   15323
                                   15324                       COMMENT                   SET GLOBAL VARIABLE SET
 001FDE 41F0 B4E4            004E4 15325                       LA    R15,CPVARS
 001FE2 4100 0003            00003 15326                       LA    R0,VGLOBAL
 001FE6 58E0 7E74/0DEE       02E50 15327                       VCALL XSETSET
                                   15331
                                   15332                       COMMENT                   GET GLOBAL VARIABLE
 001FEC 41F0 B4E4            004E4 15333                       LA    R15,CPVARS
 001FF0 4100 0130            00130 15334                       LA    R0,L'VPARM-(VNDATA-VNENTRY)
 001FF4 4110 6020            00020 15335                       LA    R1,VNDATA
                                   15336                       COMMENT , @R2=NAME
 001FF8 58E0 7E78/0DEE       02E54 15337                       VCALL XGET
                                   15341
 001FFE 18D8/9808 D004_            15342                       PEND  ,
 DROP   *,R7
 DROP   VNENTRY,R6                 15362                       DROP  R6
1VARS     (VARS9014) (12:59) (15MAR04) GET/SAVE VARIABLES                                                                   Page   49
0Current Usings:  (CP,R11) (CV,R12)
0Loc    Object Code    Addr1 Addr2  Stmt Lv Lineno    Source Statement           (Hibal 5, Asmedit 3.3)  HLASM R4.0  2004/03/15 12.59
+___    ______ ____    _____ _____  ____ __ ______    ______ _________
0                                  15370              ¿þþþþþþþþþþþþþþþþþþþþþþþþþþþþþþþþþþþþþþþþþþþþþþþþþþþþþþþþþþþþþþþþþþþþþÜ
                                   15371              Ÿ                                                                     Ÿ
                                   15372              Ÿ                                                                     Ÿ
                                   15373              Ÿ  GETSVAR - GET SYSTEM VARIABLE                                      Ÿ
                                   15374              Ÿ                                                                     Ÿ
                                   15375              Ÿ  ON ENTRY:                                                          Ÿ
                                   15376              Ÿ      @R1 - VARIABLE PARM AREA.  SEE VNENTRY DSECT                   Ÿ
                                   15377              Ÿ      @R2 - VARIABLE NAME                                            Ÿ
                                   15378              Ÿ                                                                     Ÿ
                                   15379              Ÿ  ON EXIT:                                                           Ÿ
                                   15380              Ÿ      @R1 - VARIABLE PARM AREA RETURNED                              Ÿ
                                   15381              Ÿ      R15 - CC=ZERO, RECORD FOUND                                    Ÿ
                                   15382              Ÿ            CC=NZ, RECORD DOES NOT EXIST                             Ÿ
                                   15383              Ÿ                                                                     Ÿ
                                   15384              Ÿ                                                                     Ÿ
                                                      ¾þþþþþþþþþþþþþþþþþþþþþþþþþþþþþþþþþþþþþþþþþþþþþþþþþþþþþþþþþþþþþþþþþþþþþ»
0000000                00000 00154 15385              GSVWA    RECORD BEGIN
                                   15393  1           GSVARRTN   DEFRTNP ,                 SYSTEM ROUTINE TO OBTAIN VALUE
 000000                            15394  1 01-DEFRT +GSVARRTN   DS    A
 000004                            15395  1           GSVVALUE   DS    XL(L'VPARM)
 000154                00154 00154 15396                       END
                                   15405              *
                                   15406              *
 00200C 50E0 D000/9008_      00000 15407              GETSVAR  XPROC GSVWA
 USING  *,R7
 USING  GSVWA-(4+36),R8
 USING  VNENTRY,R6                 15458                       USING VNENTRY,R6
 002026 1831                       15467                       LR    R3,R1               R3 - VARIABLE RETURN AREA
                                   15468
                                   15469                       COMMENT                   SEARCH FOR SYSTEM VAR ROUTINE
 002028 4100 8028            00000 15470                       LA    R0,GSVARRTN
 00202C 1812                       15471                       LR    R1,R2
 00202E 58E0 7E3A/0DEE       02E60 15472                       VCALL GTVARRTN
                                   15476
                                   15477                       COMMENT                   IF SYSTEM VARIABLE ROUTINE,
 002034 12FF/4770 7046             15478                       IF    (R15,Z),BEGIN
 00203A 1B00                       15492  1                      CLEAR R0
 00203C 1B11                       15496  1                      CLEAR R1
 00203E 4160 802C            00004 15500  1                      LA    R6,GSVVALUE         @R6 - WORK AREA FOR SYS VAR
 002042 D21F 6000 2000 00000 00000 15501  1                      MVC   VNDESC,VNDESC-VNENTRY(R2)
 002048 41E0 8028            00000 15502  1                      LA    R14,GSVARRTN        "ACALL' SYSTEM-VAR ROUTINE
 00204C 58E0 E000/0DEE       00000 15503  1                      CALLRTNP @R14
                                   15507  1
                                   15508  1                      COMMENT                   SYSTEM VARIABLE RETURNED
 002052 12FF/4770 7046             15509  1                      IF    (R15,Z),BEGIN
 002058 D21F 6000 2000 00000 00000 15523  2                        MVC   VNDESC,VNDESC-VNENTRY(R2)
 00205E 1803                       15524  2                        LR    R0,R3
 002060 4110 0150            00150 15525  2                        LA    R1,L'VPARM
 002064 4140 6000            00000 15526  2                        LA    R4,VNENTRY
 002068 1851                       15527  2                        LR    R5,R1
 00206A 0E04                       15528  2                        MVCL  R0,R4               MOVE WORK COPY TO RETURN VAR
 00206C                            15529  1                      END
 00206C                            15533                       END
1VARS     (VARS9014) (12:59) (15MAR04) GET/SAVE VARIABLES                                                                   Page   50
0Current Usings:  (VNENTRY,R6) (*,R7) (GSVWA-(4+36),R8) (CP,R11) (CV,R12)
0Loc    Object Code    Addr1 Addr2  Stmt Lv Lineno    Source Statement           (Hibal 5, Asmedit 3.3)  HLASM R4.0  2004/03/15 12.59
+___    ______ ____    _____ _____  ____ __ ______    ______ _________
0                                  15537
 00206C 18D8/9808 D004_            15538                       PEND  ,
 DROP   GSVWA-(4+36),R8
 DROP   *,R7
 DROP   VNENTRY,R6                 15563                       DROP  R6
1VARS     (VARS9014) (12:59) (15MAR04) GET/SAVE VARIABLES                                                                   Page   51
0Current Usings:  (CP,R11) (CV,R12)
0Loc    Object Code    Addr1 Addr2  Stmt Lv Lineno    Source Statement           (Hibal 5, Asmedit 3.3)  HLASM R4.0  2004/03/15 12.59
+___    ______ ____    _____ _____  ____ __ ______    ______ _________
0                                  15571              ¿þþþþþþþþþþþþþþþþþþþþþþþþþþþþþþþþþþþþþþþþþþþþþþþþþþþþþþþþþþþþþþþþþþþþþÜ
                                   15572              Ÿ                                                                     Ÿ
                                   15573              Ÿ                                                                     Ÿ
                                   15574              Ÿ  GETNVAR - GET SESSION (SES.) VARIABLE                              Ÿ
                                   15575              Ÿ                                                                     Ÿ
                                   15576              Ÿ  ON ENTRY:                                                          Ÿ
                                   15577              Ÿ      @R1 - VARIABLE PARM AREA.  SEE VNENTRY DSECT                   Ÿ
                                   15578              Ÿ      @R2 - VARIABLE NAME                                            Ÿ
                                   15579              Ÿ                                                                     Ÿ
                                   15580              Ÿ  ON EXIT:                                                           Ÿ
                                   15581              Ÿ      @R1 - VARIABLE PARM AREA RETURNED                              Ÿ
                                   15582              Ÿ      R15 - CC=ZERO, RECORD FOUND                                    Ÿ
                                   15583              Ÿ            CC=NZ, RECORD DOES NOT EXIST                             Ÿ
                                   15584              Ÿ                                                                     Ÿ
                                   15585              Ÿ                                                                     Ÿ
                                                      ¾þþþþþþþþþþþþþþþþþþþþþþþþþþþþþþþþþþþþþþþþþþþþþþþþþþþþþþþþþþþþþþþþþþþþþ»
000207A 50E0 D000/9008_      00000 15586              GETNVAR  XPROC ,
 USING  *,R7
 USING  VNENTRY,R6                 15626                       USING VNENTRY,R6
 002094 1861                       15635                       LR    R6,R1
                                   15636
                                   15637                       COMMENT                   SET SESSION VARIABLE SET
 002096 41F0 B524            00524 15638                       LA    R15,CPRG16
 00209A 4100 0008            00008 15639                       LA    R0,CP#SESV
 00209E 58E0 7DBC/0DEE       02E50 15640                       VCALL XSETSET
                                   15644
                                   15645                       COMMENT                   GET GLOBAL VARIABLE
 0020A4 41F0 B524            00524 15646                       LA    R15,CPRG16
 0020A8 4100 0130            00130 15647                       LA    R0,L'VPARM-(VNDATA-VNENTRY)
 0020AC 4110 6020            00020 15648                       LA    R1,VNDATA
                                   15649                       COMMENT , @R2=NAME
 0020B0 58E0 7DC0/0DEE       02E54 15650                       VCALL XGET
                                   15654
 0020B6 18D8/9808 D004_            15655                       PEND  ,
 DROP   *,R7
 DROP   VNENTRY,R6                 15675                       DROP  R6
1VARS     (VARS9014) (12:59) (15MAR04) GET/SAVE VARIABLES                                                                   Page   52
0Current Usings:  (CP,R11) (CV,R12)
0Loc    Object Code    Addr1 Addr2  Stmt Lv Lineno    Source Statement           (Hibal 5, Asmedit 3.3)  HLASM R4.0  2004/03/15 12.59
+___    ______ ____    _____ _____  ____ __ ______    ______ _________
0                                  15683              ¿þþþþþþþþþþþþþþþþþþþþþþþþþþþþþþþþþþþþþþþþþþþþþþþþþþþþþþþþþþþþþþþþþþþþþÜ
                                   15684              Ÿ                                                                     Ÿ
                                   15685              Ÿ                                                                     Ÿ
                                   15686              Ÿ  GETPVAR - GET PUBLIC (PUB.) VARIABLE.                              Ÿ
                                   15687              Ÿ                                                                     Ÿ
                                   15688              Ÿ  ON ENTRY:                                                          Ÿ
                                   15689              Ÿ      @R1 - VARIABLE PARM AREA.  SEE VNENTRY DSECT                   Ÿ
                                   15690              Ÿ      @R2 - VARIABLE NAME                                            Ÿ
                                   15691              Ÿ                                                                     Ÿ
                                   15692              Ÿ  ON EXIT:                                                           Ÿ
                                   15693              Ÿ      @R1 - VARIABLE PARM AREA RETURNED                              Ÿ
                                   15694              Ÿ      R15 - CC=ZERO, RECORD FOUND                                    Ÿ
                                   15695              Ÿ            CC=NZ, RECORD DOES NOT EXIST                             Ÿ
                                   15696              Ÿ                                                                     Ÿ
                                   15697              Ÿ                                                                     Ÿ
                                                      ¾þþþþþþþþþþþþþþþþþþþþþþþþþþþþþþþþþþþþþþþþþþþþþþþþþþþþþþþþþþþþþþþþþþþþþ»
00020C4 50E0 D000/9008_      00000 15698              GETPVAR  XPROC ,
 USING  *,R7
 USING  VNENTRY,R6                 15738                       USING VNENTRY,R6
 0020DE 1861                       15747                       LR    R6,R1
                                   15748
                                   15749                       COMMENT                   SET GLOBAL VARIABLE SET
 0020E0 41F0 C360            00360 15750                       LA    R15,CVRG16
 0020E4 4100 0002            00002 15751                       LA    R0,CV#PUBV
 0020E8 58E0 7D72/0DEE       02E50 15752                       VCALL XSETSET
                                   15756
                                   15757                       COMMENT                   GET GLOBAL VARIABLE
 0020EE 41F0 C360            00360 15758                       LA    R15,CVRG16
 0020F2 4100 0130            00130 15759                       LA    R0,L'VPARM-(VNDATA-VNENTRY)
 0020F6 4110 6020            00020 15760                       LA    R1,VNDATA
                                   15761                       COMMENT , @R2=NAME
 0020FA 58E0 7D76/0DEE       02E54 15762                       VCALL XGET
                                   15766
 002100 18D8/9808 D004_            15767                       PEND  ,
 DROP   *,R7
 DROP   VNENTRY,R6                 15787                       DROP  R6
1VARS     (VARS9014) (12:59) (15MAR04) GET/SAVE VARIABLES                                                                   Page   53
0Current Usings:  (CP,R11) (CV,R12)
0Loc    Object Code    Addr1 Addr2  Stmt Lv Lineno    Source Statement           (Hibal 5, Asmedit 3.3)  HLASM R4.0  2004/03/15 12.59
+___    ______ ____    _____ _____  ____ __ ______    ______ _________
0                                  15795              ¿þþþþþþþþþþþþþþþþþþþþþþþþþþþþþþþþþþþþþþþþþþþþþþþþþþþþþþþþþþþþþþþþþþþþþÜ
                                   15796              Ÿ                                                                     Ÿ
                                   15797              Ÿ                                                                     Ÿ
                                   15798              Ÿ  SAVEVAR - SAVE VARIABLE OR ARRAY ELEMENT                           Ÿ
                                   15799              Ÿ                                                                     Ÿ
                                   15800              Ÿ  ON ENTRY:                                                          Ÿ
                                   15801              Ÿ       R0 - VARIABLE MUST BE DECLARED IF R0=0                        Ÿ
                                   15802              Ÿ      @R1 - VARIABLE PARM AREA.  SEE VNENTRY DSECT.                  Ÿ
                                   15803              Ÿ      @R2 - VARIABLE NAME, DESCRIPTOR.  SEE VNENTRY DSECT.           Ÿ
                                   15804              Ÿ            (CONTAINS PREFIX FLAGS AND SUBSCRIPTS, IF ANY)           Ÿ
                                   15805              Ÿ                                                                     Ÿ
                                   15806              Ÿ  ON EXIT:                                                           Ÿ
                                   15807              Ÿ      R15 - CC=ZERO, RECORD SAVED                                    Ÿ
                                   15808              Ÿ            CC=NZ, IF ERROR, ERROR MSG TSEG'D                        Ÿ
                                   15809              Ÿ                                                                     Ÿ
                                   15810              Ÿ  NOTE: R1 AND R2 MAY POINT TO SAME VNENTRY, IF DESIRED.             Ÿ
                                   15811              Ÿ                                                                     Ÿ
                                   15812              Ÿ  THE FOLLOWING ERROR CONDITIONS ARE DETECTED:                       Ÿ
                                   15813              Ÿ       * TOO MANY VARAIBLES SAVED (>30000)                           Ÿ
                                   15814              Ÿ       * XXXXX: RESERVED WORD.  INVALID VARIABLE NAME.               Ÿ
                                   15815              Ÿ       * YYYYY: UNDECLARED.                                          Ÿ
                                   15816              Ÿ       * VARIABLE TYPE DOES NOT CONVERT                              Ÿ
                                   15817              Ÿ       * ZZZZZ: SYSTEM VARIABLES MAY NOT BE SAVED.                   Ÿ
                                   15818              Ÿ       * ETC,,,                                                      Ÿ
                                   15819              Ÿ                                                                     Ÿ
                                   15820              Ÿ                                                                     Ÿ
                                                      ¾þþþþþþþþþþþþþþþþþþþþþþþþþþþþþþþþþþþþþþþþþþþþþþþþþþþþþþþþþþþþþþþþþþþþþ»
000210E 50E0 D000/9008_      00000 15821              SAVEVAR  XPROC ,
 USING  *,R7
 USING  VNENTRY,R6                 15861                       USING VNENTRY,R6
 002128 1862                       15870                       LR    R6,R2
                                   15871
                                   15872                       COMMENT                   LOCAL VARIABLE
 00212A 9500 6010/4770_00010       15873                       IF    ((VNPREFIX,EQ,0),AND,(VNASUB1,EQ,0)),BEGIN
 00213C 58E0 7D3C/0DEE       02E64 15908  1                      ACALL SAVELVAR
 002142                            15912                       END
                                   15916
                                   15917                       COMMENT                   XPROC 'X.' VARIABLE
 002142 701E/701E/47F0_02142 02130 15918                       ELSEIF (VNPFX,AND,(VNASUB1,EQ,0)),BEGIN
 002158 58E0 7D40/0DEE       02E68 15961  1                      ACALL SAVEXVAR
 00215E                            15965                       END
                                   15969
                                   15970                       COMMENT                   GLOBAL VARIABLE
 00215E 703A/703A/47F0_0215E 0214C 15971                       ELSEIF (VNPFGBL,AND,(VNASUB1,EQ,0)),BEGIN
 002174 58E0 7D44/0DEE       02E6C 16014  1                      ACALL SAVEGVAR
 00217A                            16018                       END
                                   16022
                                   16023                       COMMENT                   SYSTEM VARIABLE
 00217A 7056/7056/47F0_0217A 02168 16024                       ELSEIF VNPFSYS,BEGIN
 002186 58E0 7D48/0DEE       02E70 16050  1                      ACALL SEGVNAME
 00218C 4110 7D4C/4100_      02E74 16054  1                      TSEG  ': system variables may not be saved.'
 00219E 41F0 0004            00004 16072  1                      LA    R15,4
 0021A2                            16073                       END
1VARS     (VARS9014) (12:59) (15MAR04) GET/SAVE VARIABLES                                                                   Page   54
0Current Usings:  (VNENTRY,R6) (*,R7) (CP,R11) (CV,R12)
0Loc    Object Code    Addr1 Addr2  Stmt Lv Lineno    Source Statement           (Hibal 5, Asmedit 3.3)  HLASM R4.0  2004/03/15 12.59
+___    ______ ____    _____ _____  ____ __ ______    ______ _________
0                                  16077
                                   16078                       COMMENT                   SESSION VARIABLE
 0021A2 707E/47F0 7096_021A2 02184 16079                       ELSEIF (VNPFSES,AND,(VNASUB1,EQ,0)),BEGIN
 0021B8 58E0 7D74/0DEE       02E9C 16120  1                      ACALL SAVENVAR
 0021BE                            16124                       END
                                   16128
                                   16129                       COMMENT                   PUBLIC VARIABLE
 0021BE 709A/709A/47F0_021BE 021AC 16130                       ELSEIF (VNPFPUB,AND,(VNASUB1,EQ,0)),BEGIN
 0021D4 58E0 7D78/0DEE       02EA0 16173  1                      ACALL SAVEPVAR
 0021DA                            16177                       END
                                   16181
                                   16182                       COMMENT                   ARRAY ELEMENT
 0021DA 70B6/70B6/47F0_021DA 021C8 16183                       ELSEIF (VNASUB1,NE,0),BEGIN
 0021E8 58E0 7D7C/0DEE       02EA4 16212  1                      ACALL SAVARRAY
 0021EE                            16216                       END
                                   16220
                                   16221                       COMMENT                   NONE OF THE ABOVE
 0021EE 70CA/47F0 70CC 021EE 021E6 16222                       ELSE  BEGIN
 0021F2 0000                       16233  1                      BOMB
 0021F4                            16235                       END
                                   16239
 0021F4 18D8/9808 D004_            16240                       PEND  ,
 DROP   *,R7
1VARS     (VARS9014) (12:59) (15MAR04) GET/SAVE VARIABLES                                                                   Page   55
0Current Usings:  (VNENTRY,R6) (CP,R11) (CV,R12)
0Loc    Object Code    Addr1 Addr2  Stmt Lv Lineno    Source Statement           (Hibal 5, Asmedit 3.3)  HLASM R4.0  2004/03/15 12.59
+___    ______ ____    _____ _____  ____ __ ______    ______ _________
0                                  16261              ¿þþþþþþþþþþþþþþþþþþþþþþþþþþþþþþþþþþþþþþþþþþþþþþþþþþþþþþþþþþþþþþþþþþþþþÜ
                                   16262              Ÿ                                                                     Ÿ
                                   16263              Ÿ                                                                     Ÿ
                                   16264              Ÿ  SAVELVAR - SAVE VARIABLE INTO LOCAL (CURRENT) VAR SET              Ÿ
                                   16265              Ÿ                                                                     Ÿ
                                   16266              Ÿ  ON ENTRY:                                                          Ÿ
                                   16267              Ÿ       R0 - VARIABLE MUST BE DECLARED IF R0=0.                       Ÿ
                                   16268              Ÿ      @R1 - VARIABLE PARM AREA.  SEE VNENTRY DSECT.                  Ÿ
                                   16269              Ÿ      @R2 - VARIABLE NAME                                            Ÿ
                                   16270              Ÿ                                                                     Ÿ
                                   16271              Ÿ  ON EXIT:                                                           Ÿ
                                   16272              Ÿ      R15 - CC=ZERO, RECORD SAVED                                    Ÿ
                                   16273              Ÿ            CC=NZ, IF ERROR, ERROR MSG TSEG'D                        Ÿ
                                   16274              Ÿ                                                                     Ÿ
                                   16275              Ÿ  THE FOLLOWING ERROR CONDITIONS ARE DETECTED:                       Ÿ
                                   16276              Ÿ       * TOO MANY VARAIBLES SAVED (>30000)                           Ÿ
                                   16277              Ÿ       * XXXXX: RESERVED WORD.  INVALID VARIABLE NAME.               Ÿ
                                   16278              Ÿ       * YYYYY: UNDECLARED.                                          Ÿ
                                   16279              Ÿ       * VARIABLE TYPE DOES NOT CONVERT                              Ÿ
                                   16280              Ÿ       * ETC,,,                                                      Ÿ
                                   16281              Ÿ                                                                     Ÿ
                                   16282              Ÿ                                                                     Ÿ
                                                      ¾þþþþþþþþþþþþþþþþþþþþþþþþþþþþþþþþþþþþþþþþþþþþþþþþþþþþþþþþþþþþþþþþþþþþþ»
0000000                00000 0015C 16283              SVWA     RECORD BEGIN
 000000                            16291  1           SVVDCL     DS    A                   SAVE VAR MUST BE DECLARED IF =0
 000004                            16292  1           SVVAR      DS    A                   SAVE VARIABLE AREA
 000008                            16293  1           SVNAME     DS    A                   SAVE VARIABLE NAME
 00000C                            16294  1           SVTEMP     DS    XL(L'VPARM)         TEMP VARIABLE AREA
 00015C                0015C 0015C 16295                       END
                                   16304              *
                                   16305              *
 002202 50E0 D000/9008_      00000 16306              SAVELVAR PROC  SVWA
 USING  *,R7
 USING  SVWA-(4+36),R8
                                   16356                       USING VNENTRY,R6
 00221C 5000 8028            00000 16358                       ST    R0,SVVDCL
 002220 5010 802C            00004 16359                       ST    R1,SVVAR
 002224 5020 8030            00008 16360                       ST    R2,SVNAME
 002228 4160 8034            0000C 16361                       LA    R6,SVTEMP           R6 - PREVIOUS COPY OF VAR, IF ANY
                                   16362
                                   16363                       COMMENT                   SET LOCAL VARIABLE SET
 00222C 41F0 B4E4            004E4 16364                       LA    R15,CPVARS
 002230 5800 B844            00844 16365                       L     R0,CPVSET#
 002234 58E0 7C34/0DEE       02E50 16366                       VCALL XSETSET
                                   16370
                                   16371                       COMMENT                   GET OLD COPY OF VARIABLE
 00223A 41F0 B4E4            004E4 16372                       LA    R15,CPVARS
 00223E 4100 0130            00130 16373                       LA    R0,L'VPARM-(VNDATA-VNENTRY)
 002242 4110 6020            00020 16374                       LA    R1,VNDATA
 002246 5820 8030            00008 16375                       L     R2,SVNAME
 00224A 58E0 7C38/0DEE       02E54 16376                       VCALL XGET
                                   16380
                                   16381                       COMMENT                   CHECK IF VARIABLE DECLARED,
1VARS     (VARS9014) (12:59) (15MAR04) GET/SAVE VARIABLES                                                                   Page   56
0Current Usings:  (VNENTRY,R6) (*,R7) (SVWA-(4+36),R8) (CP,R11) (CV,R12)
0Loc    Object Code    Addr1 Addr2  Stmt Lv Lineno    Source Statement           (Hibal 5, Asmedit 3.3)  HLASM R4.0  2004/03/15 12.59
+___    ______ ____    _____ _____  ____ __ ______    ______ _________
0002250 D503 7AA4 8028_02CC0 00000 16382                       IF    (SVVDCL,EQ,0),BEGIN
 00225A 12FF/4780 7064             16400  1                      IF    (R15,NZ),BEGIN
 002260 58E0 7C54/0DEE       02E70 16414  2                        ACALL SEGVNAME
 002266 4110 7CB0/4100_      02ECC 16418  2                        TSEG  ': undeclared. '
 002278 41F0 0004            00004 16436  2                        LA    R15,4
 00227C 47F0 71CE            023EA 16437  2                        B     SAVLDONE
 002280                            16438  1                      END
 002280                            16442                       END
                                   16446
                                   16447                       COMMENT                   CHECK FOR RESERVED WORD
 002280 12FF/4780 7098             16448                       IF    (R15,NZ),BEGIN
 002286 5820 8030            00008 16462  1                      L     R2,SVNAME
 00228A 58E0 7C8C/0DEE       02EA8 16463  1                      ACALL CHKRESVD
 002290 4770 7098            022B4 16467  1                      IF    Z,BEGIN
 002294 58E0 7C54/0DEE       02E70 16478  2                        ACALL SEGVNAME
 00229A 4110 7CE8/4100_      02F04 16482  2                        TSEG  ': reserved word.  Invalid variable name. '
 0022AC 41F0 0004            00004 16500  2                        LA    R15,4
 0022B0 47F0 71CE            023EA 16501  2                        B     SAVLDONE
 0022B4                            16502  1                      END
 0022B4                            16506                       END
                                   16510
                                   16511                       COMMENT                   ARBITRATE TYPE
 0022B4 12FF/4770 7114             16512                       IF    (R15,Z),BEGIN       IF VARIABLE EXISTS,
 0022BA 5820 802C            00004 16526  1                      L     R2,SVVAR
 0022BE 9504 6020/4770_00020       16527  1                      IF    VNARRAY,BEGIN       ARRAY TYPE DOES NOT CHANGE
 0022C6 5820 8030            00008 16542  2                        L     R2,SVNAME           ARRAY SAVED ONLY WHEN DECLARED
 0022CA 58E0 7C54/0DEE       02E70 16543  2                        ACALL SEGVNAME
 0022D0 4110 7D11/4100_      02F2D 16547  2                        TSEG  ': invalid reference to array descriptor. '
 0022E2 41F0 0004            00004 16565  2                        LA    R15,4
 0022E6 47F0 71CE            023EA 16566  2                        B     SAVLDONE
 0022EA                            16567  1                      END
 0022EA 70D2/47F0 70E0_022EA 022C4 16571  1                      ELSEIF VNNUMB,BEGIN       NUMBER
 0022F6 58E0 7C90/0DEE       02EAC 16595  2                        VCALL MAKENUMB
 0022FC                            16599  1                      END
 0022FC 70E4/47F0 70F2_022FC 022F4 16603  1                      ELSEIF VNSTRING,BEGIN     STRING
 002308 58E0 7C94/0DEE       02EB0 16627  2                        VCALL  MAKESTR
 00230E                            16631  1                      END
 00230E 70F6/47F0 7104_0230E 02306 16635  1                      ELSEIF VNBOOL,BEGIN       BOOLEAN
 00231A 58E0 7C98/0DEE       02EB4 16659  2                        VCALL  MAKEBOOL
 002320                            16663  1                      END
 002320 7108/47F0 710A 02320 02318 16667  1                      ELSE   BEGIN ,            IF NONE OF THE ABOVE,
 002324 0000                       16678  2                        BOMB
 002326                            16680  1                      END
 002326 12FF/4780 7114             16684  1                      IF    (R15,NZ),BEGIN      IF UNABLE TO CONVERT,,
 00232C 47F0 71CE            023EA 16698  2                        B     SAVLDONE            ERROR MSG TSEG'D BY CONVRT RTNS
 002330                            16699  1                      END
                                   16703  1
 002330                            16704                       END   , OF VARIABLE EXISTS
                                   16708
                                   16709                       COMMENT                   CHECK AND ZAP N0-N9 !!!
                                   16710                       COMMENT
                                   16711                       COMMENT                   YUCK CITY,, YUCK CITY !!
                                   16712                       COMMENT                   ZAP..ZAP..ZAP..ZAP..ZAP..ZAP..
 002330 58E0 7C9C/0DEE       02EB8 16713                       VCALL ZAPOFFR6
1VARS     (VARS9014) (12:59) (15MAR04) GET/SAVE VARIABLES                                                                   Page   57
0Current Usings:  (VNENTRY,R6) (*,R7) (SVWA-(4+36),R8) (CP,R11) (CV,R12)
0Loc    Object Code    Addr1 Addr2  Stmt Lv Lineno    Source Statement           (Hibal 5, Asmedit 3.3)  HLASM R4.0  2004/03/15 12.59
+___    ______ ____    _____ _____  ____ __ ______    ______ _________
0002336 5820 8030            00008 16717                       L     R2,SVNAME
                                   16718            C          IF    ((CPVSET#,EQ,VBASE),AND,(@R2,EQ,'N'),
                                                    C                AND,(@R2+1,GE,'0'),AND,(@R2+1,LE,'9'),
 00233A D503 7CA0 B844_02EBC 00844                                   AND,(@R2+2,EQ,' ')),BEGIN
 002364 5860 802C            00004 16790  1                      L     R6,SVVAR
 002368 5800 6028            00028 16791  1                      L     R0,VNVALUE+NL-8
 00236C 5400 7CA4            02EC0 16792  1                      N     R0,=X'000000FF'
 002370 5810 602C            0002C 16793  1                      L     R1,VNVALUE+NL-4
 002374 5410 7CA8            02EC4 16794  1                      N     R1,=X'FFFFFFF0'
 002378 1200/4770 7168_            16795  1                      IF    ((R0,NZ),OR,(R1,NZ)),BEGIN
 002384 D404 602B 7D3A 0002B 02F56 16822  2                        NC    VNVALUE+NL-5(5),=X'000000000F'
 00238A                            16823  1                      END
 00238A                            16827                       END
                                   16831
                                   16832                       COMMENT                   SAVE VARIABLE
 00238A 5860 802C            00004 16833                       L     R6,SVVAR            R6 - VARIABLE TO SAVE
                                   16834                       COMMENT
 00238E 41F0 B4E4            004E4 16835                       LA    R15,CPVARS          R15 - VAR GROUP INFO
 002392 4100 0010            00010 16836                       LA    R0,L'VNDATA         R0 - LENGTH OF VAR DATA
 002396 4110 6020            00020 16837                       LA    R1,VNDATA
 00239A 5820 8030            00008 16838                       L     R2,SVNAME
 00239E 9501 6020/4770_00020       16839                       IF    VNSTRING,BEGIN
 0023A6 4100 0006            00006 16854  1                      LA    R0,L'VNSDATA
 0023AA 4A00 6024            00024 16855  1                      AH    R0,VNSTRLEN
 0023AE                            16856                       END
 0023AE 9504 6020/4770_00020       16860                       IF    VNARRAY,BEGIN
 0023B6 4100 0030            00030 16875  1                      LA    R0,L'VNADATA
 0023BA                            16876                       END
 0023BA 58E0 7CAC/0DEE       02EC8 16880                       VCALL XPUT                SAV VARIABLE       !!!!
 0023C0 12FF/47B0 71C4             16884                       IF    (R15,NEG),BEGIN
 0023C6 4110 7D3F/4100_      02F5B 16898  1                      TSEG  'Too many variables (>30000) defined. '
 0023D8 41F0 0004            00004 16916  1                      LA    R15,4
 0023DC 47F0 71CE            023EA 16917  1                      B     SAVLDONE
 0023E0                            16918                       END
 0023E0 12FF/47D0 71CC             16922                       IF    (R15,POS),BEGIN
 0023E6 0000                       16936  1                      BOMB
 0023E8                            16938                       END
                                   16942
                                   16943                       COMMENT                   SAVE COMPLETED OK
 0023E8 1BFF                       16944                       CLEAR R15
                                   16948
 0023EA                            16949              SAVLDONE LABEL ,
 0023EA 18D8/9808 D004_            16951                       PEND  ,
 DROP   SVWA-(4+36),R8
 DROP   *,R7
 DROP   VNENTRY,R6                 16976                       DROP  R6
1VARS     (VARS9014) (12:59) (15MAR04) GET/SAVE VARIABLES                                                                   Page   58
0Current Usings:  (CP,R11) (CV,R12)
0Loc    Object Code    Addr1 Addr2  Stmt Lv Lineno    Source Statement           (Hibal 5, Asmedit 3.3)  HLASM R4.0  2004/03/15 12.59
+___    ______ ____    _____ _____  ____ __ ______    ______ _________
0                                  16984              ¿þþþþþþþþþþþþþþþþþþþþþþþþþþþþþþþþþþþþþþþþþþþþþþþþþþþþþþþþþþþþþþþþþþþþþÜ
                                   16985              Ÿ                                                                     Ÿ
                                   16986              Ÿ                                                                     Ÿ
                                   16987              Ÿ  SAVEXVAR - SAVE XPROC 'X.' VARIABLE                                Ÿ
                                   16988              Ÿ                                                                     Ÿ
                                   16989              Ÿ  ON ENTRY:                                                          Ÿ
                                   16990              Ÿ       R0 - VARIABLE MUST BE DECLARED IF R0=0.                       Ÿ
                                   16991              Ÿ      @R1 - VARIABLE PARM AREA.  SEE VNENTRY DSECT.                  Ÿ
                                   16992              Ÿ      @R2 - VARIABLE NAME                                            Ÿ
                                   16993              Ÿ                                                                     Ÿ
                                   16994              Ÿ      R15 - CC=ZERO, RECORD SAVED                                    Ÿ
                                   16995              Ÿ            CC=NZ, IF ERROR, ERROR MSG TSEG'D                        Ÿ
                                   16996              Ÿ                                                                     Ÿ
                                   16997              Ÿ  THE FOLLOWING ERROR CONDITIONS ARE DETECTED:                       Ÿ
                                   16998              Ÿ       * TOO MANY VARAIBLES SAVED (>30000)                           Ÿ
                                   16999              Ÿ       * XXXXX: RESERVED WORD.  INVALID VARIABLE NAME.               Ÿ
                                   17000              Ÿ       * YYYYY: UNDECLARED.                                          Ÿ
                                   17001              Ÿ       * VARIABLE TYPE DOES NOT CONVERT                              Ÿ
                                   17002              Ÿ       * XPROC NOT ACTIVE                                            Ÿ
                                   17003              Ÿ       * ETC,,,                                                      Ÿ
                                   17004              Ÿ                                                                     Ÿ
                                   17005              Ÿ                                                                     Ÿ
                                                      ¾þþþþþþþþþþþþþþþþþþþþþþþþþþþþþþþþþþþþþþþþþþþþþþþþþþþþþþþþþþþþþþþþþþþþþ»
00023F8 50E0 D000/9008_      00000 17006              SAVEXVAR PROC  SVWA
 USING  *,R7
 USING  SVWA-(4+36),R8
 USING  VNENTRY,R6                 17056                       USING VNENTRY,R6
 002412 5000 8028            00000 17065                       ST    R0,SVVDCL
 002416 5010 802C            00004 17066                       ST    R1,SVVAR
 00241A 5020 8030            00008 17067                       ST    R2,SVNAME
 00241E 4160 8034            0000C 17068                       LA    R6,SVTEMP           R6 - PREVIOUS COPY OF VAR, IF ANY
                                   17069
                                   17070                       COMMENT                   CHECK IF XPROC ACTIVE
 002422 D503 7A46 B778_02E58 00778 17071                       IF    (CP#XSET,EQ,=A(CP#XOLD)),BEGIN
 00242C 58E0 7A5E/0DEE       02E70 17088  1                      ACALL SEGVNAME
 002432 4110 7B6E/4100_      02F80 17092  1                      TSEG  ': invalid.  No XPROC active. '
 002444 41F0 0004            00004 17110  1                      LA    R15,4
 002448 47F0 71A0            025B2 17111  1                      B     SAVXDONE
 00244C                            17112                       END
                                   17116
                                   17117                       COMMENT                   SET 'X.' VARIABLES
 00244C 41F0 B4E4            004E4 17118                       LA    R15,CPVARS
 002450 58E0 7A4A/0DEE       02E5C 17119                       ACALL GETXVSET
 002456 58E0 7A3E/0DEE       02E50 17123                       VCALL XSETSET
                                   17127
                                   17128                       COMMENT                   GET OLD COPY OF VARIABLE
 00245C 41F0 B4E4            004E4 17129                       LA    R15,CPVARS
 002460 4100 0130            00130 17130                       LA    R0,L'VPARM-(VNDATA-VNENTRY)
 002464 4110 6020            00020 17131                       LA    R1,VNDATA
 002468 5820 8030            00008 17132                       L     R2,SVNAME
 00246C 58E0 7A42/0DEE       02E54 17133                       VCALL XGET                GET VARIABLE
                                   17137
                                   17138                       COMMENT                   CHECK IF DECLARED
1VARS     (VARS9014) (12:59) (15MAR04) GET/SAVE VARIABLES                                                                   Page   59
0Current Usings:  (VNENTRY,R6) (*,R7) (SVWA-(4+36),R8) (CP,R11) (CV,R12)
0Loc    Object Code    Addr1 Addr2  Stmt Lv Lineno    Source Statement           (Hibal 5, Asmedit 3.3)  HLASM R4.0  2004/03/15 12.59
+___    ______ ____    _____ _____  ____ __ ______    ______ _________
0002472 D503 78AE 8028_02CC0 00000 17139                       IF    (SVVDCL,EQ,0),BEGIN
 00247C 12FF/4780 7090             17157  1                      IF    (R15,NZ),BEGIN
 002482 58E0 7A5E/0DEE       02E70 17171  2                        ACALL SEGVNAME
 002488 4110 7B8B/4100_      02F9D 17175  2                        TSEG  ': undeclared.'
 00249A 41F0 0004            00004 17193  2                        LA    R15,4
 00249E 47F0 71A0            025B2 17194  2                        B     SAVXDONE
 0024A2                            17195  1                      END
 0024A2                            17199                       END
                                   17203
                                   17204                       COMMENT                   CHECK FOR RESERVED WORD
 0024A2 12FF/4780 70C4             17205                       IF    (R15,NZ),BEGIN
 0024A8 5820 8030            00008 17219  1                      L     R2,SVNAME
 0024AC 58E0 7A96/0DEE       02EA8 17220  1                      ACALL CHKRESVD
 0024B2 4770 70C4            024D6 17224  1                      IF    Z,BEGIN
 0024B6 58E0 7A5E/0DEE       02E70 17235  2                        ACALL SEGVNAME
 0024BC 4110 7AF2/4100_      02F04 17239  2                        TSEG  ': reserved word.  Invalid variable name. '
 0024CE 41F0 0004            00004 17257  2                        LA    R15,4
 0024D2 47F0 71A0            025B2 17258  2                        B     SAVXDONE
 0024D6                            17259  1                      END
 0024D6                            17263                       END
                                   17267
                                   17268                       COMMENT                   ARBITRATE TYPE
 0024D6 12FF/4770 7140             17269                       IF    (R15,Z),BEGIN       IF VARIABLE EXISTS,
 0024DC 5820 802C            00004 17283  1                      L     R2,SVVAR
                                   17284  1                      COMMENT
 0024E0 9504 6020/4770_00020       17285  1                      IF    VNARRAY,BEGIN       ARRAY TYPE DOES NOT CHANGE
 0024E8 5820 8030            00008 17300  2                        L     R2,SVNAME           ARRAY SAVED ONLY WHEN DECLARED
 0024EC 58E0 7A5E/0DEE       02E70 17301  2                        ACALL SEGVNAME
 0024F2 4110 7B1B/4100_      02F2D 17305  2                        TSEG  ': invalid reference to array descriptor. '
 002504 41F0 0004            00004 17323  2                        LA    R15,4
 002508 47F0 71A0            025B2 17324  2                        B     SAVXDONE
 00250C                            17325  1                      END
 00250C 70FE/47F0 710C_0250C 024E6 17329  1                      ELSEIF VNNUMB,BEGIN       NUMBER
 002518 58E0 7A9A/0DEE       02EAC 17353  2                        VCALL MAKENUMB
 00251E                            17357  1                      END
 00251E 7110/47F0 711E_0251E 02516 17361  1                      ELSEIF VNSTRING,BEGIN     STRING
 00252A 58E0 7A9E/0DEE       02EB0 17385  2                        VCALL  MAKESTR
 002530                            17389  1                      END
 002530 7122/47F0 7130_02530 02528 17393  1                      ELSEIF VNBOOL,BEGIN       BOOLEAN
 00253C 58E0 7AA2/0DEE       02EB4 17417  2                        VCALL  MAKEBOOL
 002542                            17421  1                      END
 002542 7134/47F0 7136 02542 0253A 17425  1                      ELSE   BEGIN ,            IF NONE OF THE ABOVE,
 002546 0000                       17436  2                        BOMB
 002548                            17438  1                      END
 002548 12FF/4780 7140             17442  1                      IF    (R15,NZ),BEGIN      IF UNABLE TO CONVERT,,
 00254E 47F0 71A0            025B2 17456  2                        B     SAVXDONE            ERROR MSG TSEG'D BY CONVRT RTNS
 002552                            17457  1                      END
                                   17461  1
 002552                            17462                       END   , OF VARIABLE EXISTS
                                   17466
                                   17467                       COMMENT                   SAVE VARIABLE
                                   17468                       COMMENT
 002552 5860 802C            00004 17469                       L     R6,SVVAR            R6 - VARIABLE TO SAVE
                                   17470                       COMMENT
1VARS     (VARS9014) (12:59) (15MAR04) GET/SAVE VARIABLES                                                                   Page   60
0Current Usings:  (VNENTRY,R6) (*,R7) (SVWA-(4+36),R8) (CP,R11) (CV,R12)
0Loc    Object Code    Addr1 Addr2  Stmt Lv Lineno    Source Statement           (Hibal 5, Asmedit 3.3)  HLASM R4.0  2004/03/15 12.59
+___    ______ ____    _____ _____  ____ __ ______    ______ _________
0002556 41F0 B4E4            004E4 17471                       LA    R15,CPVARS          R15 - VAR GROUP INFO
 00255A 4100 0010            00010 17472                       LA    R0,L'VNDATA         R0 - LENGTH OF VAR DATA
 00255E 4110 6020            00020 17473                       LA    R1,VNDATA           R1 - VALUE
 002562 5820 8030            00008 17474                       L     R2,SVNAME           R2 - NAME
 002566 9501 6020/4770_00020       17475                       IF    VNSTRING,BEGIN
 00256E 4100 0006            00006 17490  1                      LA    R0,L'VNSDATA
 002572 4A00 6024            00024 17491  1                      AH    R0,VNSTRLEN
 002576                            17492                       END
 002576 9504 6020/4770_00020       17496                       IF    VNARRAY,BEGIN
 00257E 4100 0030            00030 17511  1                      LA    R0,L'VNADATA
 002582                            17512                       END
 002582 58E0 7AB6/0DEE       02EC8 17516                       VCALL XPUT                SAV VARIABLE       !!!!
 002588 12FF/47B0 7196             17520                       IF    (R15,NEG),BEGIN
 00258E 4110 7B98/4100_      02FAA 17534  1                      TSEG  'Too many variables (>100000) defined.'
 0025A0 41F0 0004            00004 17552  1                      LA    R15,4
 0025A4 47F0 71A0            025B2 17553  1                      B     SAVXDONE
 0025A8                            17554                       END
 0025A8 12FF/47D0 719E             17558                       IF    (R15,POS),BEGIN
 0025AE 0000                       17572  1                      BOMB
 0025B0                            17574                       END
                                   17578
                                   17579                       COMMENT                   SAVE COMPLETED OK
 0025B0 1BFF                       17580                       CLEAR R15
                                   17584
 0025B2                            17585              SAVXDONE LABEL ,
 0025B2 18D8/9808 D004_            17587                       PEND  ,
 DROP   SVWA-(4+36),R8
 DROP   *,R7
 DROP   VNENTRY,R6                 17612                       DROP  R6
1VARS     (VARS9014) (12:59) (15MAR04) GET/SAVE VARIABLES                                                                   Page   61
0Current Usings:  (CP,R11) (CV,R12)
0Loc    Object Code    Addr1 Addr2  Stmt Lv Lineno    Source Statement           (Hibal 5, Asmedit 3.3)  HLASM R4.0  2004/03/15 12.59
+___    ______ ____    _____ _____  ____ __ ______    ______ _________
0                                  17620              ¿þþþþþþþþþþþþþþþþþþþþþþþþþþþþþþþþþþþþþþþþþþþþþþþþþþþþþþþþþþþþþþþþþþþþþÜ
                                   17621              Ÿ                                                                     Ÿ
                                   17622              Ÿ                                                                     Ÿ
                                   17623              Ÿ  SAVEGVAR - SAVE GLOBAL VARIABLE                                    Ÿ
                                   17624              Ÿ                                                                     Ÿ
                                   17625              Ÿ  ON ENTRY:                                                          Ÿ
                                   17626              Ÿ       R0 - VARIABLE MUST BE DECLARED IF R0=0.                       Ÿ
                                   17627              Ÿ      @R1 - VARIABLE PARM AREA.  SEE VNENTRY DSECT.                  Ÿ
                                   17628              Ÿ      @R2 - VARIABLE NAME                                            Ÿ
                                   17629              Ÿ                                                                     Ÿ
                                   17630              Ÿ      R15 - CC=ZERO, RECORD SAVED                                    Ÿ
                                   17631              Ÿ            CC=NZ, IF ERROR, ERROR MSG TSEG'D                        Ÿ
                                   17632              Ÿ                                                                     Ÿ
                                   17633              Ÿ  THE FOLLOWING ERROR CONDITIONS ARE DETECTED:                       Ÿ
                                   17634              Ÿ       * TOO MANY VARAIBLES SAVED (>30000)                           Ÿ
                                   17635              Ÿ       * XXXXX: RESERVED WORD.  INVALID VARIABLE NAME.               Ÿ
                                   17636              Ÿ       * YYYYY: UNDECLARED.                                          Ÿ
                                   17637              Ÿ       * VARIABLE TYPE DOES NOT CONVERT                              Ÿ
                                   17638              Ÿ       * ETC,,,                                                      Ÿ
                                   17639              Ÿ                                                                     Ÿ
                                   17640              Ÿ                                                                     Ÿ
                                                      ¾þþþþþþþþþþþþþþþþþþþþþþþþþþþþþþþþþþþþþþþþþþþþþþþþþþþþþþþþþþþþþþþþþþþþþ»
00025C0 50E0 D000/9008_      00000 17641              SAVEGVAR PROC  SVWA
 USING  *,R7
 USING  SVWA-(4+36),R8
 USING  VNENTRY,R6                 17691                       USING VNENTRY,R6
 0025DA 5000 8028            00000 17700                       ST    R0,SVVDCL
 0025DE 5010 802C            00004 17701                       ST    R1,SVVAR
 0025E2 5020 8030            00008 17702                       ST    R2,SVNAME
 0025E6 4160 8034            0000C 17703                       LA    R6,SVTEMP           R6 - PREVIOUS COPY OF VAR, IF ANY
                                   17704
                                   17705                       COMMENT                   SET GLOBAL VARIABLES
 0025EA 41F0 B4E4            004E4 17706                       LA    R15,CPVARS
 0025EE 4100 0003            00003 17707                       LA    R0,VGLOBAL
 0025F2 58E0 7876/0DEE       02E50 17708                       VCALL XSETSET
                                   17712
                                   17713                       COMMENT                   GET OLD COPY OF VARIABLE
 0025F8 41F0 B4E4            004E4 17714                       LA    R15,CPVARS
 0025FC 4100 0130            00130 17715                       LA    R0,L'VPARM-(VNDATA-VNENTRY)
 002600 4110 6020            00020 17716                       LA    R1,VNDATA
 002604 5820 8030            00008 17717                       L     R2,SVNAME
 002608 58E0 787A/0DEE       02E54 17718                       VCALL XGET                GET VARIABLE
                                   17722
                                   17723                       COMMENT                   CHECK IF DECLARED
 00260E D503 76E6 8028_02CC0 00000 17724                       IF    (SVVDCL,EQ,0),BEGIN
 002618 12FF/4780 7064             17742  1                      IF    (R15,NZ),BEGIN
 00261E 58E0 7896/0DEE       02E70 17756  2                        ACALL SEGVNAME
 002624 4110 79C3/4100_      02F9D 17760  2                        TSEG  ': undeclared.'
 002636 41F0 0004            00004 17778  2                        LA    R15,4
 00263A 47F0 7174            0274E 17779  2                        B     SAVGDONE
 00263E                            17780  1                      END
 00263E                            17784                       END
                                   17788
1VARS     (VARS9014) (12:59) (15MAR04) GET/SAVE VARIABLES                                                                   Page   62
0Current Usings:  (VNENTRY,R6) (*,R7) (SVWA-(4+36),R8) (CP,R11) (CV,R12)
0Loc    Object Code    Addr1 Addr2  Stmt Lv Lineno    Source Statement           (Hibal 5, Asmedit 3.3)  HLASM R4.0  2004/03/15 12.59
+___    ______ ____    _____ _____  ____ __ ______    ______ _________
0                                  17789                       COMMENT                   CHECK FOR RESERVED WORD
 00263E 12FF/4780 7098             17790                       IF    (R15,NZ),BEGIN
 002644 5820 8030            00008 17804  1                      L     R2,SVNAME
 002648 58E0 78CE/0DEE       02EA8 17805  1                      ACALL CHKRESVD
 00264E 4770 7098            02672 17809  1                      IF    Z,BEGIN
 002652 58E0 7896/0DEE       02E70 17820  2                        ACALL SEGVNAME
 002658 4110 792A/4100_      02F04 17824  2                        TSEG  ': reserved word.  Invalid variable name. '
 00266A 41F0 0004            00004 17842  2                        LA    R15,4
 00266E 47F0 7174            0274E 17843  2                        B     SAVGDONE
 002672                            17844  1                      END
 002672                            17848                       END
                                   17852
                                   17853                       COMMENT                   ARBITRATE TYPE
 002672 12FF/4770 7114             17854                       IF    (R15,Z),BEGIN       IF VARIABLE EXISTS,
 002678 5820 802C            00004 17868  1                      L     R2,SVVAR
                                   17869  1                      COMMENT
 00267C 9504 6020/4770_00020       17870  1                      IF    VNARRAY,BEGIN       ARRAY TYPE DOES NOT CHANGE
 002684 5820 8030            00008 17885  2                        L     R2,SVNAME           ARRAY SAVED ONLY WHEN DECLARED
 002688 58E0 7896/0DEE       02E70 17886  2                        ACALL SEGVNAME
 00268E 4110 7953/4100_      02F2D 17890  2                        TSEG  ': invalid reference to array descriptor. '
 0026A0 41F0 0004            00004 17908  2                        LA    R15,4
 0026A4 47F0 7174            0274E 17909  2                        B     SAVGDONE
 0026A8                            17910  1                      END
 0026A8 70D2/47F0 70E0_026A8 02682 17914  1                      ELSEIF VNNUMB,BEGIN       NUMBER
 0026B4 58E0 78D2/0DEE       02EAC 17938  2                        VCALL MAKENUMB
 0026BA                            17942  1                      END
 0026BA 70E4/47F0 70F2_026BA 026B2 17946  1                      ELSEIF VNSTRING,BEGIN     STRING
 0026C6 58E0 78D6/0DEE       02EB0 17970  2                        VCALL  MAKESTR
 0026CC                            17974  1                      END
 0026CC 70F6/47F0 7104_026CC 026C4 17978  1                      ELSEIF VNBOOL,BEGIN       BOOLEAN
 0026D8 58E0 78DA/0DEE       02EB4 18002  2                        VCALL  MAKEBOOL
 0026DE                            18006  1                      END
 0026DE 7108/47F0 710A 026DE 026D6 18010  1                      ELSE   BEGIN ,            IF NONE OF THE ABOVE,
 0026E2 0000                       18021  2                        BOMB
 0026E4                            18023  1                      END
 0026E4 12FF/4780 7114             18027  1                      IF    (R15,NZ),BEGIN      IF UNABLE TO CONVERT,,
 0026EA 47F0 7174            0274E 18041  2                        B     SAVGDONE            ERROR MSG TSEG'D BY CONVRT RTNS
 0026EE                            18042  1                      END
                                   18046  1
 0026EE                            18047                       END   , OF VARIABLE EXISTS
                                   18051
                                   18052                       COMMENT                   SAVE VARIABLE
                                   18053                       COMMENT
 0026EE 5860 802C            00004 18054                       L     R6,SVVAR            R6 - VARIABLE TO SAVE
                                   18055                       COMMENT
 0026F2 41F0 B4E4            004E4 18056                       LA    R15,CPVARS          R15 - VAR GROUP INFO
 0026F6 4100 0010            00010 18057                       LA    R0,L'VNDATA         R0 - LENGTH OF VAR DATA
 0026FA 4110 6020            00020 18058                       LA    R1,VNDATA           R1 - VALUE
 0026FE 5820 8030            00008 18059                       L     R2,SVNAME           R2 - NAME
 002702 9501 6020/4770_00020       18060                       IF    VNSTRING,BEGIN
 00270A 4100 0006            00006 18075  1                      LA    R0,L'VNSDATA
 00270E 4A00 6024            00024 18076  1                      AH    R0,VNSTRLEN
 002712                            18077                       END
 002712 9504 6020/4770_00020       18081                       IF    VNARRAY,BEGIN
1VARS     (VARS9014) (12:59) (15MAR04) GET/SAVE VARIABLES                                                                   Page   63
0Current Usings:  (VNENTRY,R6) (*,R7) (SVWA-(4+36),R8) (CP,R11) (CV,R12)
0Loc    Object Code    Addr1 Addr2  Stmt Lv Lineno    Source Statement           (Hibal 5, Asmedit 3.3)  HLASM R4.0  2004/03/15 12.59
+___    ______ ____    _____ _____  ____ __ ______    ______ _________
000271A 4100 0030            00030 18096  1                      LA    R0,L'VNADATA
 00271E                            18097                       END
 00271E 58E0 78EE/0DEE       02EC8 18101                       VCALL XPUT                SAV VARIABLE       !!!!
 002724 12FF/47B0 716A             18105                       IF    (R15,NEG),BEGIN
 00272A 4110 79D0/4100_      02FAA 18119  1                      TSEG  'Too many variables (>100000) defined.'
 00273C 41F0 0004            00004 18137  1                      LA    R15,4
 002740 47F0 7174            0274E 18138  1                      B     SAVGDONE
 002744                            18139                       END
 002744 12FF/47D0 7172             18143                       IF    (R15,POS),BEGIN
 00274A 0000                       18157  1                      BOMB
 00274C                            18159                       END
                                   18163
                                   18164                       COMMENT                   SAVE COMPLETED OK
 00274C 1BFF                       18165                       CLEAR R15
                                   18169
 00274E                            18170              SAVGDONE LABEL ,
 00274E 18D8/9808 D004_            18172                       PEND  ,
 DROP   SVWA-(4+36),R8
 DROP   *,R7
 DROP   VNENTRY,R6                 18197                       DROP  R6
1VARS     (VARS9014) (12:59) (15MAR04) GET/SAVE VARIABLES                                                                   Page   64
0Current Usings:  (CP,R11) (CV,R12)
0Loc    Object Code    Addr1 Addr2  Stmt Lv Lineno    Source Statement           (Hibal 5, Asmedit 3.3)  HLASM R4.0  2004/03/15 12.59
+___    ______ ____    _____ _____  ____ __ ______    ______ _________
0                                  18205              ¿þþþþþþþþþþþþþþþþþþþþþþþþþþþþþþþþþþþþþþþþþþþþþþþþþþþþþþþþþþþþþþþþþþþþþÜ
                                   18206              Ÿ                                                                     Ÿ
                                   18207              Ÿ                                                                     Ÿ
                                   18208              Ÿ  SAVENVAR - SAVE SESSION (SES.) VARIABLES                           Ÿ
                                   18209              Ÿ                                                                     Ÿ
                                   18210              Ÿ  ON ENTRY:                                                          Ÿ
                                   18211              Ÿ       R0 - VARIABLE MUST BE DECLARED IF R0=0.                       Ÿ
                                   18212              Ÿ      @R1 - VARIABLE PARM AREA.  SEE VNENTRY DSECT.                  Ÿ
                                   18213              Ÿ      @R2 - VARIABLE NAME                                            Ÿ
                                   18214              Ÿ                                                                     Ÿ
                                   18215              Ÿ      R15 - CC=ZERO, RECORD SAVED                                    Ÿ
                                   18216              Ÿ            CC=NZ, IF ERROR, ERROR MSG TSEG'D                        Ÿ
                                   18217              Ÿ                                                                     Ÿ
                                   18218              Ÿ  THE FOLLOWING ERROR CONDITIONS ARE DETECTED:                       Ÿ
                                   18219              Ÿ       * TOO MANY VARAIBLES SAVED (>30000)                           Ÿ
                                   18220              Ÿ       * XXXXX: RESERVED WORD.  INVALID VARIABLE NAME.               Ÿ
                                   18221              Ÿ       * YYYYY: UNDECLARED.                                          Ÿ
                                   18222              Ÿ       * VARIABLE TYPE DOES NOT CONVERT                              Ÿ
                                   18223              Ÿ       * ETC,,,                                                      Ÿ
                                   18224              Ÿ                                                                     Ÿ
                                   18225              Ÿ                                                                     Ÿ
                                                      ¾þþþþþþþþþþþþþþþþþþþþþþþþþþþþþþþþþþþþþþþþþþþþþþþþþþþþþþþþþþþþþþþþþþþþþ»
000275C                            18226                       DS    0S(CPRG16NL-L'VNNAME)  NAME RG16 LEN MUST BE SAME
 00275C                            18227                       DS    0S(L'VNNAME-CPRG16NL)
                                   18228              *
                                   18229              *
 00275C 50E0 D000/9008_      00000 18230              SAVENVAR PROC  SVWA
 USING  *,R7
 USING  SVWA-(4+36),R8
 USING  VNENTRY,R6                 18280                       USING VNENTRY,R6
 002776 5000 8028            00000 18289                       ST    R0,SVVDCL
 00277A 5010 802C            00004 18290                       ST    R1,SVVAR
 00277E 5020 8030            00008 18291                       ST    R2,SVNAME
 002782 4160 8034            0000C 18292                       LA    R6,SVTEMP           R6 - PREVIOUS COPY OF VAR, IF ANY
                                   18293
                                   18294                       COMMENT                   SET SESSION VARIABLES
 002786 41F0 B524            00524 18295                       LA    R15,CPRG16
 00278A 4100 0008            00008 18296                       LA    R0,CP#SESV
 00278E 58E0 76DA/0DEE       02E50 18297                       VCALL XSETSET
                                   18301
                                   18302                       COMMENT                   GET OLD COPY OF VARIABLE
 002794 41F0 B524            00524 18303                       LA    R15,CPRG16
 002798 4100 0130            00130 18304                       LA    R0,L'VPARM-(VNDATA-VNENTRY)
 00279C 4110 6020            00020 18305                       LA    R1,VNDATA
 0027A0 5820 8030            00008 18306                       L     R2,SVNAME
 0027A4 58E0 76DE/0DEE       02E54 18307                       VCALL XGET                GET VARIABLE
                                   18311
                                   18312                       COMMENT                   CHECK IF DECLARED
 0027AA D503 754A 8028_02CC0 00000 18313                       IF    (SVVDCL,EQ,0),BEGIN
 0027B4 12FF/4780 7064             18331  1                      IF    (R15,NZ),BEGIN
 0027BA 58E0 76FA/0DEE       02E70 18345  2                        ACALL SEGVNAME
 0027C0 4110 7827/4100_      02F9D 18349  2                        TSEG  ': undeclared.'
 0027D2 41F0 0004            00004 18367  2                        LA    R15,4
1VARS     (VARS9014) (12:59) (15MAR04) GET/SAVE VARIABLES                                                                   Page   65
0Current Usings:  (VNENTRY,R6) (*,R7) (SVWA-(4+36),R8) (CP,R11) (CV,R12)
0Loc    Object Code    Addr1 Addr2  Stmt Lv Lineno    Source Statement           (Hibal 5, Asmedit 3.3)  HLASM R4.0  2004/03/15 12.59
+___    ______ ____    _____ _____  ____ __ ______    ______ _________
00027D6 47F0 7174            028EA 18368  2                        B     SAVNDONE
 0027DA                            18369  1                      END
 0027DA                            18373                       END
                                   18377
                                   18378                       COMMENT                   CHECK FOR RESERVED WORD
 0027DA 12FF/4780 7098             18379                       IF    (R15,NZ),BEGIN
 0027E0 5820 8030            00008 18393  1                      L     R2,SVNAME
 0027E4 58E0 7732/0DEE       02EA8 18394  1                      ACALL CHKRESVD
 0027EA 4770 7098            0280E 18398  1                      IF    Z,BEGIN
 0027EE 58E0 76FA/0DEE       02E70 18409  2                        ACALL SEGVNAME
 0027F4 4110 778E/4100_      02F04 18413  2                        TSEG  ': reserved word.  Invalid variable name. '
 002806 41F0 0004            00004 18431  2                        LA    R15,4
 00280A 47F0 7174            028EA 18432  2                        B     SAVNDONE
 00280E                            18433  1                      END
 00280E                            18437                       END
                                   18441
                                   18442                       COMMENT                   ARBITRATE TYPE
 00280E 12FF/4770 7114             18443                       IF    (R15,Z),BEGIN       IF VARIABLE EXISTS,
 002814 5820 802C            00004 18457  1                      L     R2,SVVAR
                                   18458  1                      COMMENT
 002818 9504 6020/4770_00020       18459  1                      IF    VNARRAY,BEGIN       ARRAY TYPE DOES NOT CHANGE
 002820 5820 8030            00008 18474  2                        L     R2,SVNAME           ARRAY SAVED ONLY WHEN DECLARED
 002824 58E0 76FA/0DEE       02E70 18475  2                        ACALL SEGVNAME
 00282A 4110 77B7/4100_      02F2D 18479  2                        TSEG  ': invalid reference to array descriptor. '
 00283C 41F0 0004            00004 18497  2                        LA    R15,4
 002840 47F0 7174            028EA 18498  2                        B     SAVNDONE
 002844                            18499  1                      END
 002844 70D2/47F0 70E0_02844 0281E 18503  1                      ELSEIF VNNUMB,BEGIN       NUMBER
 002850 58E0 7736/0DEE       02EAC 18527  2                        VCALL MAKENUMB
 002856                            18531  1                      END
 002856 70E4/47F0 70F2_02856 0284E 18535  1                      ELSEIF VNSTRING,BEGIN     STRING
 002862 58E0 773A/0DEE       02EB0 18559  2                        VCALL  MAKESTR
 002868                            18563  1                      END
 002868 70F6/47F0 7104_02868 02860 18567  1                      ELSEIF VNBOOL,BEGIN       BOOLEAN
 002874 58E0 773E/0DEE       02EB4 18591  2                        VCALL  MAKEBOOL
 00287A                            18595  1                      END
 00287A 7108/47F0 710A 0287A 02872 18599  1                      ELSE   BEGIN ,            IF NONE OF THE ABOVE,
 00287E 0000                       18610  2                        BOMB
 002880                            18612  1                      END
 002880 12FF/4780 7114             18616  1                      IF    (R15,NZ),BEGIN      IF UNABLE TO CONVERT,,
 002886 47F0 7174            028EA 18630  2                        B     SAVNDONE            ERROR MSG TSEG'D BY CONVRT RTNS
 00288A                            18631  1                      END
                                   18635  1
 00288A                            18636                       END   , OF VARIABLE EXISTS
                                   18640
                                   18641                       COMMENT                   SAVE VARIABLE
                                   18642                       COMMENT
 00288A 5860 802C            00004 18643                       L     R6,SVVAR            R6 - VARIABLE TO SAVE
                                   18644                       COMMENT
 00288E 41F0 B524            00524 18645                       LA    R15,CPRG16          R15 - VAR GROUP INFO
 002892 4100 0010            00010 18646                       LA    R0,L'VNDATA         R0 - LENGTH OF VAR DATA
 002896 4110 6020            00020 18647                       LA    R1,VNDATA           R1 - VALUE
 00289A 5820 8030            00008 18648                       L     R2,SVNAME           R2 - NAME
 00289E 9501 6020/4770_00020       18649                       IF    VNSTRING,BEGIN
1VARS     (VARS9014) (12:59) (15MAR04) GET/SAVE VARIABLES                                                                   Page   66
0Current Usings:  (VNENTRY,R6) (*,R7) (SVWA-(4+36),R8) (CP,R11) (CV,R12)
0Loc    Object Code    Addr1 Addr2  Stmt Lv Lineno    Source Statement           (Hibal 5, Asmedit 3.3)  HLASM R4.0  2004/03/15 12.59
+___    ______ ____    _____ _____  ____ __ ______    ______ _________
00028A6 4100 0006            00006 18664  1                      LA    R0,L'VNSDATA
 0028AA 4A00 6024            00024 18665  1                      AH    R0,VNSTRLEN
 0028AE                            18666                       END
 0028AE 9504 6020/4770_00020       18670                       IF    VNARRAY,BEGIN
 0028B6 4100 0030            00030 18685  1                      LA    R0,L'VNADATA
 0028BA                            18686                       END
 0028BA 58E0 7752/0DEE       02EC8 18690                       VCALL XPUT                SAV VARIABLE       !!!!
 0028C0 12FF/47B0 716A             18694                       IF    (R15,NEG),BEGIN
 0028C6 4110 7834/4100_      02FAA 18708  1                      TSEG  'Too many variables (>100000) defined.'
 0028D8 41F0 0004            00004 18726  1                      LA    R15,4
 0028DC 47F0 7174            028EA 18727  1                      B     SAVNDONE
 0028E0                            18728                       END
 0028E0 12FF/47D0 7172             18732                       IF    (R15,POS),BEGIN
 0028E6 0000                       18746  1                      BOMB
 0028E8                            18748                       END
                                   18752
                                   18753                       COMMENT                   SAVE COMPLETED OK
 0028E8 1BFF                       18754                       CLEAR R15
                                   18758
 0028EA                            18759              SAVNDONE LABEL ,
 0028EA 18D8/9808 D004_            18761                       PEND  ,
 DROP   SVWA-(4+36),R8
 DROP   *,R7
 DROP   VNENTRY,R6                 18786                       DROP  R6
1VARS     (VARS9014) (12:59) (15MAR04) GET/SAVE VARIABLES                                                                   Page   67
0Current Usings:  (CP,R11) (CV,R12)
0Loc    Object Code    Addr1 Addr2  Stmt Lv Lineno    Source Statement           (Hibal 5, Asmedit 3.3)  HLASM R4.0  2004/03/15 12.59
+___    ______ ____    _____ _____  ____ __ ______    ______ _________
0                                  18794              ¿þþþþþþþþþþþþþþþþþþþþþþþþþþþþþþþþþþþþþþþþþþþþþþþþþþþþþþþþþþþþþþþþþþþþþÜ
                                   18795              Ÿ                                                                     Ÿ
                                   18796              Ÿ                                                                     Ÿ
                                   18797              Ÿ  SAVEPVAR - SAVE PUBLIC (PUB.) VARIABLES                            Ÿ
                                   18798              Ÿ                                                                     Ÿ
                                   18799              Ÿ  ON ENTRY:                                                          Ÿ
                                   18800              Ÿ       R0 - VARIABLE MUST BE DECLARED IF R0=0.                       Ÿ
                                   18801              Ÿ      @R1 - VARIABLE PARM AREA.  SEE VNENTRY DSECT.                  Ÿ
                                   18802              Ÿ      @R2 - VARIABLE NAME                                            Ÿ
                                   18803              Ÿ                                                                     Ÿ
                                   18804              Ÿ      R15 - CC=ZERO, RECORD SAVED                                    Ÿ
                                   18805              Ÿ            CC=NZ, IF ERROR, ERROR MSG TSEG'D                        Ÿ
                                   18806              Ÿ                                                                     Ÿ
                                   18807              Ÿ  THE FOLLOWING ERROR CONDITIONS ARE DETECTED:                       Ÿ
                                   18808              Ÿ       * TOO MANY VARAIBLES SAVED (>30000)                           Ÿ
                                   18809              Ÿ       * XXXXX: RESERVED WORD.  INVALID VARIABLE NAME.               Ÿ
                                   18810              Ÿ       * YYYYY: UNDECLARED.                                          Ÿ
                                   18811              Ÿ       * VARIABLE TYPE DOES NOT CONVERT                              Ÿ
                                   18812              Ÿ       * ETC,,,                                                      Ÿ
                                   18813              Ÿ                                                                     Ÿ
                                   18814              Ÿ                                                                     Ÿ
                                                      ¾þþþþþþþþþþþþþþþþþþþþþþþþþþþþþþþþþþþþþþþþþþþþþþþþþþþþþþþþþþþþþþþþþþþþþ»
00028F8 50E0 D000/9008_      00000 18815              SAVEPVAR PROC  SVWA
 USING  *,R7
 USING  SVWA-(4+36),R8
 USING  VNENTRY,R6                 18865                       USING VNENTRY,R6
 002912 5000 8028            00000 18874                       ST    R0,SVVDCL
 002916 5010 802C            00004 18875                       ST    R1,SVVAR
 00291A 5020 8030            00008 18876                       ST    R2,SVNAME
 00291E 4160 8034            0000C 18877                       LA    R6,SVTEMP           R6 - PREVIOUS COPY OF VAR, IF ANY
                                   18878
                                   18879                       COMMENT                   CHECK FOR SYSTEM PRIVLEGES
 002922 9120 B3BE/4710_003BE       18880                       IF    (CPSFSPR,OR,CPFXAUTH),BEGIN
 002932                            18909                       END
 002932 7024/47F0 703E 02932 02930 18913                       ELSE  BEGIN
 002936 4110 75C8/4100_      02EDA 18924  1                      TSEG  'Write access for PUBLIC variables denied. '
 002948 41F0 0004            00004 18942  1                      LA    R15,4
 00294C 47F0 71A2            02AB4 18943  1                      B     SAVPDONE
 002950                            18944                       END
                                   18948
                                   18949                       COMMENT                   SET PUBLIC VARIABLES
 002950 41F0 C360            00360 18950                       LA    R15,CVRG16
 002954 4100 0002            00002 18951                       LA    R0,CV#PUBV
 002958 58E0 753E/0DEE       02E50 18952                       VCALL XSETSET
                                   18956
                                   18957                       COMMENT                   GET OLD COPY OF VARIABLE
 00295E 41F0 C360            00360 18958                       LA    R15,CVRG16
 002962 4100 0130            00130 18959                       LA    R0,L'VPARM-(VNDATA-VNENTRY)
 002966 4110 6020            00020 18960                       LA    R1,VNDATA
 00296A 5820 8030            00008 18961                       L     R2,SVNAME
 00296E 58E0 7542/0DEE       02E54 18962                       VCALL XGET                GET VARIABLE
                                   18966
                                   18967                       COMMENT                   CHECK IF DECLARED
1VARS     (VARS9014) (12:59) (15MAR04) GET/SAVE VARIABLES                                                                   Page   68
0Current Usings:  (VNENTRY,R6) (*,R7) (SVWA-(4+36),R8) (CP,R11) (CV,R12)
0Loc    Object Code    Addr1 Addr2  Stmt Lv Lineno    Source Statement           (Hibal 5, Asmedit 3.3)  HLASM R4.0  2004/03/15 12.59
+___    ______ ____    _____ _____  ____ __ ______    ______ _________
0002974 D503 73AE 8028_02CC0 00000 18968                       IF    (SVVDCL,EQ,0),BEGIN
 00297E 12FF/4780 7092             18986  1                      IF    (R15,NZ),BEGIN
 002984 58E0 755E/0DEE       02E70 19000  2                        ACALL SEGVNAME
 00298A 4110 768B/4100_      02F9D 19004  2                        TSEG  ': undeclared.'
 00299C 41F0 0004            00004 19022  2                        LA    R15,4
 0029A0 47F0 71A2            02AB4 19023  2                        B     SAVPDONE
 0029A4                            19024  1                      END
 0029A4                            19028                       END
                                   19032
                                   19033                       COMMENT                   CHECK FOR RESERVED WORD
 0029A4 12FF/4780 70C6             19034                       IF    (R15,NZ),BEGIN
 0029AA 5820 8030            00008 19048  1                      L     R2,SVNAME
 0029AE 58E0 7596/0DEE       02EA8 19049  1                      ACALL CHKRESVD
 0029B4 4770 70C6            029D8 19053  1                      IF    Z,BEGIN
 0029B8 58E0 755E/0DEE       02E70 19064  2                        ACALL SEGVNAME
 0029BE 4110 75F2/4100_      02F04 19068  2                        TSEG  ': reserved word.  Invalid variable name. '
 0029D0 41F0 0004            00004 19086  2                        LA    R15,4
 0029D4 47F0 71A2            02AB4 19087  2                        B     SAVPDONE
 0029D8                            19088  1                      END
 0029D8                            19092                       END
                                   19096
                                   19097                       COMMENT                   ARBITRATE TYPE
 0029D8 12FF/4770 7142             19098                       IF    (R15,Z),BEGIN       IF VARIABLE EXISTS,
 0029DE 5820 802C            00004 19112  1                      L     R2,SVVAR
                                   19113  1                      COMMENT
 0029E2 9504 6020/4770_00020       19114  1                      IF    VNARRAY,BEGIN       ARRAY TYPE DOES NOT CHANGE
 0029EA 5820 8030            00008 19129  2                        L     R2,SVNAME           ARRAY SAVED ONLY WHEN DECLARED
 0029EE 58E0 755E/0DEE       02E70 19130  2                        ACALL SEGVNAME
 0029F4 4110 761B/4100_      02F2D 19134  2                        TSEG  ': invalid reference to array descriptor. '
 002A06 41F0 0004            00004 19152  2                        LA    R15,4
 002A0A 47F0 71A2            02AB4 19153  2                        B     SAVPDONE
 002A0E                            19154  1                      END
 002A0E 7100/47F0 710E_02A0E 029E8 19158  1                      ELSEIF VNNUMB,BEGIN       NUMBER
 002A1A 58E0 759A/0DEE       02EAC 19182  2                        VCALL MAKENUMB
 002A20                            19186  1                      END
 002A20 7112/47F0 7120_02A20 02A18 19190  1                      ELSEIF VNSTRING,BEGIN     STRING
 002A2C 58E0 759E/0DEE       02EB0 19214  2                        VCALL  MAKESTR
 002A32                            19218  1                      END
 002A32 7124/47F0 7132_02A32 02A2A 19222  1                      ELSEIF VNBOOL,BEGIN       BOOLEAN
 002A3E 58E0 75A2/0DEE       02EB4 19246  2                        VCALL  MAKEBOOL
 002A44                            19250  1                      END
 002A44 7136/47F0 7138 02A44 02A3C 19254  1                      ELSE   BEGIN ,            IF NONE OF THE ABOVE,
 002A48 0000                       19265  2                        BOMB
 002A4A                            19267  1                      END
 002A4A 12FF/4780 7142             19271  1                      IF    (R15,NZ),BEGIN      IF UNABLE TO CONVERT,,
 002A50 47F0 71A2            02AB4 19285  2                        B     SAVPDONE            ERROR MSG TSEG'D BY CONVRT RTNS
 002A54                            19286  1                      END
                                   19290  1
 002A54                            19291                       END   , OF VARIABLE EXISTS
                                   19295
                                   19296                       COMMENT                   SAVE VARIABLE
                                   19297                       COMMENT
 002A54 5860 802C            00004 19298                       L     R6,SVVAR            R6 - VARIABLE TO SAVE
                                   19299                       COMMENT
1VARS     (VARS9014) (12:59) (15MAR04) GET/SAVE VARIABLES                                                                   Page   69
0Current Usings:  (VNENTRY,R6) (*,R7) (SVWA-(4+36),R8) (CP,R11) (CV,R12)
0Loc    Object Code    Addr1 Addr2  Stmt Lv Lineno    Source Statement           (Hibal 5, Asmedit 3.3)  HLASM R4.0  2004/03/15 12.59
+___    ______ ____    _____ _____  ____ __ ______    ______ _________
0002A58 41F0 C360            00360 19300                       LA    R15,CVRG16          R15 - VAR GROUP INFO
 002A5C 4100 0010            00010 19301                       LA    R0,L'VNDATA         R0 - LENGTH OF VAR DATA
 002A60 4110 6020            00020 19302                       LA    R1,VNDATA           R1 - VALUE
 002A64 5820 8030            00008 19303                       L     R2,SVNAME           R2 - NAME
 002A68 9501 6020/4770_00020       19304                       IF    VNSTRING,BEGIN
 002A70 4100 0006            00006 19319  1                      LA    R0,L'VNSDATA
 002A74 4A00 6024            00024 19320  1                      AH    R0,VNSTRLEN
 002A78                            19321                       END
 002A78 9504 6020/4770_00020       19325                       IF    VNARRAY,BEGIN
 002A80 4100 0030            00030 19340  1                      LA    R0,L'VNADATA
 002A84                            19341                       END
 002A84 58E0 75B6/0DEE       02EC8 19345                       VCALL XPUT                SAV VARIABLE       !!!!
 002A8A 12FF/47B0 7198             19349                       IF    (R15,NEG),BEGIN
 002A90 4110 7698/4100_      02FAA 19363  1                      TSEG  'Too many variables (>100000) defined.'
 002AA2 41F0 0004            00004 19381  1                      LA    R15,4
 002AA6 47F0 71A2            02AB4 19382  1                      B     SAVPDONE
 002AAA                            19383                       END
 002AAA 12FF/47D0 71A0             19387                       IF    (R15,POS),BEGIN
 002AB0 0000                       19401  1                      BOMB
 002AB2                            19403                       END
                                   19407
                                   19408                       COMMENT                   SAVE COMPLETED OK
 002AB2 1BFF                       19409                       CLEAR R15
                                   19413
 002AB4                            19414              SAVPDONE LABEL ,
 002AB4 18D8/9808 D004_            19416                       PEND  ,
 DROP   SVWA-(4+36),R8
 DROP   *,R7
 DROP   VNENTRY,R6                 19441                       DROP  R6
1VARS     (VARS9014) (12:59) (15MAR04) GET/SAVE VARIABLES                                                                   Page   70
0Current Usings:  (CP,R11) (CV,R12)
0Loc    Object Code    Addr1 Addr2  Stmt Lv Lineno    Source Statement           (Hibal 5, Asmedit 3.3)  HLASM R4.0  2004/03/15 12.59
+___    ______ ____    _____ _____  ____ __ ______    ______ _________
0                                  19449              ¿þþþþþþþþþþþþþþþþþþþþþþþþþþþþþþþþþþþþþþþþþþþþþþþþþþþþþþþþþþþþþþþþþþþþþÜ
                                   19450              Ÿ                                                                     Ÿ
                                   19451              Ÿ                                                                     Ÿ
                                   19452              Ÿ  CHKRESVD - CHECK RESERVED WORD LIST                                Ÿ
                                   19453              Ÿ                                                                     Ÿ
                                   19454              Ÿ  ON ENTRY:                                                          Ÿ
                                   19455              Ÿ       R2 - VARIABLE NAME DESCRIPTOR                                 Ÿ
                                   19456              Ÿ            (IE.  NAME IN 16 BYTES LEFT JUSTIFIED BLANK PADDED)      Ÿ
                                   19457              Ÿ                                                                     Ÿ
                                   19458              Ÿ  ON EXIT:                                                           Ÿ
                                   19459              Ÿ       R15 - CC=ZERO, RESERVED WORD                                  Ÿ
                                   19460              Ÿ             CC=NZ, NOT RESERVED WORD                                Ÿ
                                   19461              Ÿ                                                                     Ÿ
                                   19462              Ÿ  NOTE: THIS LIST IS NOT CRITICAL,  THE IDEA IS TO AVOID             Ÿ
                                   19463              Ÿ        CONFUSION BY NOT ALLOWING THE USER TO USE CONTROL            Ÿ
                                   19464              Ÿ        COMMANDS AS VARIABLE NAMES.  LIST IS ARBITRARY.              Ÿ
                                   19465              Ÿ        DO NOT NEED TO MAKE LIST EXHAUSTIVE. STAY COOL.              Ÿ
                                   19466              Ÿ                                                                     Ÿ
                                   19467              Ÿ                                                                     Ÿ
                                                      ¾þþþþþþþþþþþþþþþþþþþþþþþþþþþþþþþþþþþþþþþþþþþþþþþþþþþþþþþþþþþþþþþþþþþþþ»
0                                  19468                       MACRO
                                   19469                       RCHECK &WORD
                                   19470                       CLC   VNNAME(8),=CL8'&WORD'       SIMPLE SIMON
                                   19471                       BE    RESVD
                                   19472                       MEND
                                   19473              *
                                   19474              *
 002AC2 50E0 D000/9008_      00000 19475              CHKRESVD XPROC ,
 USING  *,R7
 USING  VNENTRY,R2                 19515                       USING VNENTRY,R2
 002ADC 41F0 0004            00004 19524                       LA    R15,4               ASSUME NOT RESERVED
                                   19525
                                   19526                       COMMENT                   LINEAR SEARCH LIST
 002AE0 D507 2000 71EC_00000 02CC8 19527                       RCHECK WHILE
 002AEA D507 2000 71F4_00000 02CD0 19530                       RCHECK IF
 002AF4 D507 2000 71FC_00000 02CD8 19533                       RCHECK ELSE
 002AFE D507 2000 7204_00000 02CE0 19536                       RCHECK CASE
 002B08 D507 2000 720C_00000 02CE8 19539                       RCHECK DO
 002B12 D507 2000 7214_00000 02CF0 19542                       RCHECK LOOP
 002B1C D507 2000 721C_00000 02CF8 19545                       RCHECK UNTIL
 002B26 D507 2000 7224_00000 02D00 19548                       RCHECK BEGIN
 002B30 D507 2000 722C_00000 02D08 19551                       RCHECK END
 002B3A D507 2000 7234_00000 02D10 19554                       RCHECK LAST
 002B44 D507 2000 723C_00000 02D18 19557                       RCHECK FIRST
 002B4E D507 2000 7244_00000 02D20 19560                       RCHECK COMM
 002B58 D507 2000 724C_00000 02D28 19563                       RCHECK COMMENT
 002B62 D507 2000 7254_00000 02D30 19566                       RCHECK XCALL
 002B6C D507 2000 725C_00000 02D38 19569                       RCHECK PCALL
 002B76 D507 2000 7264_00000 02D40 19572                       RCHECK EXEC
 002B80 D507 2000 726C_00000 02D48 19575                       RCHECK EXE
 002B8A D507 2000 7274_00000 02D50 19578                       RCHECK GOTO
 002B94 D507 2000 727C_00000 02D58 19581                       RCHECK SET
 002B9E D507 2000 7284_00000 02D60 19584                       RCHECK SHOW
1VARS     (VARS9014) (12:59) (15MAR04) GET/SAVE VARIABLES                                                                   Page   71
0Current Usings:  (VNENTRY,R2) (*,R7) (CP,R11) (CV,R12)
0Loc    Object Code    Addr1 Addr2  Stmt Lv Lineno    Source Statement           (Hibal 5, Asmedit 3.3)  HLASM R4.0  2004/03/15 12.59
+___    ______ ____    _____ _____  ____ __ ______    ______ _________
0002BA8 D507 2000 728C_00000 02D68 19587                       RCHECK SHO
 002BB2 D507 2000 7294_00000 02D70 19590                       RCHECK CLEAR
 002BBC D507 2000 729C_00000 02D78 19593                       RCHECK CLR
 002BC6 D507 2000 72A4_00000 02D80 19596                       RCHECK READ
 002BD0 D507 2000 72AC_00000 02D88 19599                       RCHECK WRITE
 002BDA D507 2000 72B4_00000 02D90 19602                       RCHECK PASS
 002BE4 D507 2000 72BC_00000 02D98 19605                       RCHECK DCL
 002BEE D507 2000 72C4_00000 02DA0 19608                       RCHECK DECLARE
 002BF8 D507 2000 72CC_00000 02DA8 19611                       RCHECK NUM
 002C02 D507 2000 72D4_00000 02DB0 19614                       RCHECK NUMB
 002C0C D507 2000 72DC_00000 02DB8 19617                       RCHECK NUMBER
 002C16 D507 2000 72E4_00000 02DC0 19620                       RCHECK BOOL
 002C20 D507 2000 72EC_00000 02DC8 19623                       RCHECK BOOLEAN
 002C2A D507 2000 72F4_00000 02DD0 19626                       RCHECK STR
 002C34 D507 2000 72FC_00000 02DD8 19629                       RCHECK STRING
 002C3E D507 2000 7304_00000 02DE0 19632                       RCHECK EQ
 002C48 D507 2000 730C_00000 02DE8 19635                       RCHECK NE
 002C52 D507 2000 7314_00000 02DF0 19638                       RCHECK LT
 002C5C D507 2000 731C_00000 02DF8 19641                       RCHECK LE
 002C66 D507 2000 7324_00000 02E00 19644                       RCHECK GT
 002C70 D507 2000 732C_00000 02E08 19647                       RCHECK GE
 002C7A D507 2000 7334_00000 02E10 19650                       RCHECK NOT
 002C84 D507 2000 733C_00000 02E18 19653                       RCHECK AND
 002C8E D507 2000 7344_00000 02E20 19656                       RCHECK OR
 002C98 D507 2000 734C_00000 02E28 19659                       RCHECK EXP
 002CA2 D507 2000 7354_00000 02E30 19662                       RCHECK MOD
 002CAC 47F0 71D6            02CB2 19665                       B     NOTRESVD
                                   19666
 002CB0                            19667              RESVD    LABEL ,
 002CB0 1BFF                       19669                       CLEAR R15
                                   19673
 002CB2                            19674              NOTRESVD LABEL ,
 002CB2 18D8/9808 D004_            19676                       PEND  ,
 DROP   *,R7
1VARS     (VARS9014) (12:59) (15MAR04) GET/SAVE VARIABLES                                                                   Page   72
0Current Usings:  (VNENTRY,R2) (CP,R11) (CV,R12)
0Loc    Object Code    Addr1 Addr2  Stmt Lv Lineno    Source Statement           (Hibal 5, Asmedit 3.3)  HLASM R4.0  2004/03/15 12.59
+___    ______ ____    _____ _____  ____ __ ______    ______ _________
0                                  19697                       QLTORG
1VARS     (VARS9014) (12:59) (15MAR04) GET/SAVE SESSION DATA                                                                Page   73
0Current Usings:  (VNENTRY,R2) (CP,R11) (CV,R12)
0Loc    Object Code    Addr1 Addr2  Stmt Lv Lineno    Source Statement           (Hibal 5, Asmedit 3.3)  HLASM R4.0  2004/03/15 12.59
+___    ______ ____    _____ _____  ____ __ ______    ______ _________
0                                  19795              ¿þþþþþþþþþþþþþþþþþþþþþþþþþþþþþþþþþþþþþþþþþþþþþþþþþþþþþþþþþþþþþþþþþþþþþÜ
                                   19796              Ÿ                                                                     Ÿ
                                   19797              Ÿ                                                                     Ÿ
                                   19798              Ÿ  GETDATA - GET SESSION DATA                                         Ÿ
                                   19799              Ÿ                                                                     Ÿ
                                   19800              Ÿ  ON ENTRY:                                                          Ÿ
                                   19801              Ÿ       R0 - LENGTH OF AREA                                           Ÿ
                                   19802              Ÿ       R1 - AREA FOR DATA                                            Ÿ
                                   19803              Ÿ      @R2 - 16 CHAR DATA NAME                                        Ÿ
                                   19804              Ÿ                                                                     Ÿ
                                   19805              Ÿ  ON EXIT:                                                           Ÿ
                                   19806              Ÿ       R0 - DATA LENGTH                                              Ÿ
                                   19807              Ÿ       R1 - AREA                                                     Ÿ
                                   19808              Ÿ      R15 - CC=ZERO, ALL OK                                          Ÿ
                                   19809              Ÿ            CC=NZ, VARIABLE NOT FOUND                                Ÿ
                                   19810              Ÿ                                                                     Ÿ
                                   19811              Ÿ                                                                     Ÿ
                                                      ¾þþþþþþþþþþþþþþþþþþþþþþþþþþþþþþþþþþþþþþþþþþþþþþþþþþþþþþþþþþþþþþþþþþþþþ»
0002FD0 50E0 D000/9008_      00000 19812              GETDATA  XPROC ,
 USING  *,R7
                                   19852
                                   19853                       COMMENT                   GET DATA
 002FEA 1830                       19854                       LR    R3,R0
 002FEC 41F0 B524            00524 19855                       LA    R15,CPRG16
 002FF0 4100 0002            00002 19856                       LA    R0,CP#SYSV
 002FF4 58E0 7836/0DEE       03820 19857                       VCALL XSETSET
 002FFA 41F0 B524            00524 19861                       LA    R15,CPRG16
 002FFE 1803                       19862                       LR    R0,R3
                                   19863                       COMMENT @R1 - DATA AREA
                                   19864                       COMMENT @R2 - DATA NAME
 003000 58E0 783A/0DEE       03824 19865                       VCALL XGET
                                   19869
 003006 9001 8004            00004 19870                       PRETURN (R0,R1)
 00300A 18D8/9808 D004_            19872                       PEND  ,
 DROP   *,R7
1VARS     (VARS9014) (12:59) (15MAR04) GET/SAVE SESSION DATA                                                                Page   74
0Current Usings:  (VNENTRY,R2) (CP,R11) (CV,R12)
0Loc    Object Code    Addr1 Addr2  Stmt Lv Lineno    Source Statement           (Hibal 5, Asmedit 3.3)  HLASM R4.0  2004/03/15 12.59
+___    ______ ____    _____ _____  ____ __ ______    ______ _________
0                                  19893              ¿þþþþþþþþþþþþþþþþþþþþþþþþþþþþþþþþþþþþþþþþþþþþþþþþþþþþþþþþþþþþþþþþþþþþþÜ
                                   19894              Ÿ                                                                     Ÿ
                                   19895              Ÿ                                                                     Ÿ
                                   19896              Ÿ  SAVEDATA - SAVE SESSION DATA                                       Ÿ
                                   19897              Ÿ                                                                     Ÿ
                                   19898              Ÿ  ON ENTRY:                                                          Ÿ
                                   19899              Ÿ       R0 - DATA LENGTH                                              Ÿ
                                   19900              Ÿ       R1 - DATA LOCATION                                            Ÿ
                                   19901              Ÿ      @R2 - 16 CHARACTER DATA NAME                                   Ÿ
                                   19902              Ÿ                                                                     Ÿ
                                   19903              Ÿ  ON EXIT                                                            Ÿ
                                   19904              Ÿ       R15 - CC=ZERO                                                 Ÿ
                                   19905              Ÿ                                                                     Ÿ
                                                      ¾þþþþþþþþþþþþþþþþþþþþþþþþþþþþþþþþþþþþþþþþþþþþþþþþþþþþþþþþþþþþþþþþþþþþþ»
0003018 50E0 D000/9008_      00000 19906              SAVEDATA XPROC ,
 USING  *,R7
                                   19946
                                   19947                       COMMENT                   SAVE SESSION DATA
 003032 1830                       19948                       LR    R3,R0
 003034 41F0 B524            00524 19949                       LA    R15,CPRG16
 003038 4100 0002            00002 19950                       LA    R0,CP#SYSV
 00303C 58E0 77EE/0DEE       03820 19951                       VCALL XSETSET
 003042 41F0 B524            00524 19955                       LA    R15,CPRG16
 003046 1803                       19956                       LR    R0,R3   VARIABLE LENGTH
                                   19957                       COMMENT @R1 - VARIABLE VALUE
                                   19958                       COMMENT @R2 - VARIABLE NAME
 003048 58E0 77F6/0DEE       03828 19959                       VCALL XPUT
 00304E 4780 7038            0306A 19963                       IF    NZ,BEGIN
 003052 900F C780/4DE0_      00780 19974  1                      KAPUT DATAFULL,'Session Data Record Group Overflow.'
 00306A                            19981                       END
                                   19985
 00306A 1BFF                       19986                       CLEAR R15
 00306C 18D8/9808 D004_            19990                       PEND  ,
 DROP   *,R7
1VARS     (VARS9014) (12:59) (15MAR04) GET/SAVE INFO ON VARIABLE STACK                                                      Page   75
0Current Usings:  (VNENTRY,R2) (CP,R11) (CV,R12)
0Loc    Object Code    Addr1 Addr2  Stmt Lv Lineno    Source Statement           (Hibal 5, Asmedit 3.3)  HLASM R4.0  2004/03/15 12.59
+___    ______ ____    _____ _____  ____ __ ______    ______ _________
0                                  20011              ¿þþþþþþþþþþþþþþþþþþþþþþþþþþþþþþþþþþþþþþþþþþþþþþþþþþþþþþþþþþþþþþþþþþþþþÜ
                                   20012              Ÿ                                                                     Ÿ
                                   20013              Ÿ                                                                     Ÿ
                                   20014              Ÿ  GETVSTK - GET SYSTEM INFO FROM VARIABLE STACK                      Ÿ
                                   20015              Ÿ                                                                     Ÿ
                                   20016              Ÿ  ON ENTRY:                                                          Ÿ
                                   20017              Ÿ       R0 - LENGTH OF RETURN AREA                                    Ÿ
                                   20018              Ÿ       R1 - LOCATION OF RETURN AREA                                  Ÿ
                                   20019              Ÿ      @R2 - 16 CHARACTER INFO NAME (EG. 'SYS*CALLER_PLIST')          Ÿ
                                   20020              Ÿ       R3 - VARIABLE SET NUMBER                                      Ÿ
                                   20021              Ÿ                                                                     Ÿ
                                   20022              Ÿ  ON EXIT:                                                           Ÿ
                                   20023              Ÿ       R0 - INFO LENGTH                                              Ÿ
                                   20024              Ÿ      @R1 - INFO AREA                                                Ÿ
                                   20025              Ÿ      R15 - CC=ZERO                                                  Ÿ
                                   20026              Ÿ            CC=NZ, INFO NOT FOUND                                    Ÿ
                                   20027              Ÿ                                                                     Ÿ
                                   20028              Ÿ                                                                     Ÿ
                                   20029              Ÿ                                                                     Ÿ
                                                      ¾þþþþþþþþþþþþþþþþþþþþþþþþþþþþþþþþþþþþþþþþþþþþþþþþþþþþþþþþþþþþþþþþþþþþþ»
000307A 50E0 D000/9008_      00000 20030              GETVSTK  XPROC ,
 USING  *,R7
 003094 1840                       20070                       LR    R4,R0
                                   20071
                                   20072                       COMMENT                   SET VARIABLE SET NUMBER
 003096 41F0 B4E4            004E4 20073                       LA    R15,CPVARS
 00309A 1803                       20074                       LR    R0,R3
 00309C 58E0 778C/0DEE       03820 20075                       VCALL XSETSET
                                   20079
                                   20080                       COMMENT                   SAVE INFORMATION
 0030A2 41F0 B4E4            004E4 20081                       LA    R15,CPVARS
 0030A6 1804                       20082                       LR    R0,R4               R0 - INFO LENGTH
                                   20083                       COMMENT                   @R1 - INFO LOC
                                   20084                       COMMENT                   @R2 - NAME
 0030A8 58E0 7790/0DEE       03824 20085                       VCALL XGET
                                   20089
 0030AE 18D8/9808 D004_            20090                       PEND  ,
 DROP   *,R7
1VARS     (VARS9014) (12:59) (15MAR04) GET/SAVE INFO ON VARIABLE STACK                                                      Page   76
0Current Usings:  (VNENTRY,R2) (CP,R11) (CV,R12)
0Loc    Object Code    Addr1 Addr2  Stmt Lv Lineno    Source Statement           (Hibal 5, Asmedit 3.3)  HLASM R4.0  2004/03/15 12.59
+___    ______ ____    _____ _____  ____ __ ______    ______ _________
0                                  20111              ¿þþþþþþþþþþþþþþþþþþþþþþþþþþþþþþþþþþþþþþþþþþþþþþþþþþþþþþþþþþþþþþþþþþþþþÜ
                                   20112              Ÿ                                                                     Ÿ
                                   20113              Ÿ                                                                     Ÿ
                                   20114              Ÿ  SAVEVSTK - SAVE SYSTEM INFO IN VARIABLE STACK                      Ÿ
                                   20115              Ÿ                                                                     Ÿ
                                   20116              Ÿ  ON ENTRY:                                                          Ÿ
                                   20117              Ÿ       R0 - LENGTH OF INFO                                           Ÿ
                                   20118              Ÿ       R1 - LOCATION OF INFO                                         Ÿ
                                   20119              Ÿ      @R2 - 16 CHARACTER INFO NAME (EG. 'SYS*CALLER_PLIST')          Ÿ
                                   20120              Ÿ       R3 - VARIABLE SET NUMBER                                      Ÿ
                                   20121              Ÿ                                                                     Ÿ
                                   20122              Ÿ  ON EXIT:                                                           Ÿ
                                   20123              Ÿ      R15 - CC=ZERO                                                  Ÿ
                                   20124              Ÿ            ALL ERRORS EXIT VIA CVERROR                              Ÿ
                                   20125              Ÿ                                                                     Ÿ
                                   20126              Ÿ                                                                     Ÿ
                                   20127              Ÿ                                                                     Ÿ
                                                      ¾þþþþþþþþþþþþþþþþþþþþþþþþþþþþþþþþþþþþþþþþþþþþþþþþþþþþþþþþþþþþþþþþþþþþþ»
00030BC 50E0 D000/9008_      00000 20128              SAVEVSTK XPROC ,
 USING  *,R7
 0030D6 1840                       20168                       LR    R4,R0
                                   20169
                                   20170                       COMMENT                   SET VARIABLE SET NUMBER
 0030D8 41F0 B4E4            004E4 20171                       LA    R15,CPVARS
 0030DC 1803                       20172                       LR    R0,R3
 0030DE 58E0 774A/0DEE       03820 20173                       VCALL XSETSET
                                   20177
                                   20178                       COMMENT                   SAVE INFORMATION
 0030E4 41F0 B4E4            004E4 20179                       LA    R15,CPVARS
 0030E8 1804                       20180                       LR    R0,R4               R0 - INFO LENGTH
                                   20181                       COMMENT                   @R1 - INFO LOC
                                   20182                       COMMENT                   @R2 - NAME
 0030EA 58E0 7752/0DEE       03828 20183                       VCALL XPUT
 0030F0 47B0 702A            03100 20187                       IF    NEG,BEGIN
 0030F4 4110 77BC/4100_      03892 20198  1                      ERROR 'Too many variables (>100000) defined.'
 003100                            20205                       END
 003100 47D0 7030            03106 20209                       IF    POS,BEGIN
 003104 0000                       20220  1                      BOMB
 003106                            20222                       END
                                   20226
 003106 1BFF                       20227                       CLEAR R15
 003108 18D8/9808 D004_            20231                       PEND  ,
 DROP   *,R7
1VARS     (VARS9014) (12:59) (15MAR04) GET/SAVE ARRAY ELEMENTS                                                              Page   77
0Current Usings:  (VNENTRY,R2) (CP,R11) (CV,R12)
0Loc    Object Code    Addr1 Addr2  Stmt Lv Lineno    Source Statement           (Hibal 5, Asmedit 3.3)  HLASM R4.0  2004/03/15 12.59
+___    ______ ____    _____ _____  ____ __ ______    ______ _________
0                                  20252              ¿þþþþþþþþþþþþþþþþþþþþþþþþþþþþþþþþþþþþþþþþþþþþþþþþþþþþþþþþþþþþþþþþþþþþþÜ
                                   20253              Ÿ                                                                     Ÿ
                                   20254              Ÿ                                                                     Ÿ
                                   20255              Ÿ  GETARRAY - GET ARRAY ELEMENT                                       Ÿ
                                   20256              Ÿ                                                                     Ÿ
                                   20257              Ÿ  ON ENTRY:                                                          Ÿ
                                   20258              Ÿ      @R0 - ARRAY DESCRIPTOR OR ZERO.  SEE VNENTRY DSECT.            Ÿ
                                   20259              Ÿ      @R1 - VARIABLE VALUE AREA.  SEE VNENTRY DSECT.                 Ÿ
                                   20260              Ÿ      @R2 - VARIABLE NAME DESCRIPTOR, INCLUDES SUBSCRIPT VALUES      Ÿ
                                   20261              Ÿ                                                                     Ÿ
                                   20262              Ÿ  ON EXIT:                                                           Ÿ
                                   20263              Ÿ      R15 - CC=ZERO, FOUND ELEMENT                                   Ÿ
                                   20264              Ÿ            CC=NZ, IF ERROR, ERROR MSG TSEG'D                        Ÿ
                                   20265              Ÿ                                                                     Ÿ
                                   20266              Ÿ  THE FOLLOWING ERROR CONDITIONS ARE DETECTED:                       Ÿ
                                   20267              Ÿ       * XXXXX: NOT DECLARED AS ARRAY                                Ÿ
                                   20268              Ÿ       * INVALID SUBSCRIPT VALUE                                     Ÿ
                                   20269              Ÿ                                                                     Ÿ
                                   20270              Ÿ                                                                     Ÿ
                                   20271              Ÿ                                                                     Ÿ
                                                      ¾þþþþþþþþþþþþþþþþþþþþþþþþþþþþþþþþþþþþþþþþþþþþþþþþþþþþþþþþþþþþþþþþþþþþþ»
0000000                00000 002A8 20272              GYWA     RECORD BEGIN
 000000                            20280  1           GYVALUE    DS    F                   ADDRESS OF ELEMENT VALUE
 000004                            20281  1           GYNAME     DS    F                   ADDRESS OF ELEMENT NAME
 000008                            20282  1           GYARRAY    DS    XL(L'VPARM)         ARRAY DESCRIPTOR ENTRY
 000158                            20283  1           GYELEM     DS    XL(L'VPARM)         VARIABLE PARM AREA FOR ELEMENT
 0002A8                002A8 002A8 20284                       END
                                   20293              *
                                   20294              *
 003116 50E0 D000/9008_      00000 20295              GETARRAY XPROC GYWA
 USING  *,R7
 USING  GYWA-(4+36),R8
 USING  VNENTRY,R6                 20346                       USING VNENTRY,R6
 003130 5010 8028            00000 20355                       ST    R1,GYVALUE
 003134 5020 802C            00004 20356                       ST    R2,GYNAME
                                   20357
                                   20358                       COMMENT                   ENTRANCE EXAM
 003138 5860 802C            00004 20359                       L     R6,GYNAME
 00313C D501 76D8 6012_03808 00012 20360                       IF    (VNASUB1,EQ,0),BEGIN
 003146 0000                       20378  1                      BOMB
 003148                            20380                       END
                                   20384
                                   20385                       COMMENT                   IF ARRAY DESCRIPTOR, CHECK IT
 003148 1200/4780 7036             20386                       IF    (R0,NZ),BEGIN
 00314E 1860                       20400  1                      LR    R6,R0
 003150 9504 6020/4780_00020       20401  1                      IF    ~VNARRAY,BEGIN
 003158 0000                       20416  2                        BOMB
 00315A                            20418  1                      END
 00315A 4140 8030            00008 20422  1                      LA    R4,GYARRAY          MOVE DESCRIPTOR
 00315E 4150 0150            00150 20423  1                      LA    R5,L'GYARRAY
 003162 1815                       20424  1                      LR    R1,R5
 003164 0E40                       20425  1                      MVCL  R4,R0
 003166                            20426                       END
1VARS     (VARS9014) (12:59) (15MAR04) GET/SAVE ARRAY ELEMENTS                                                              Page   78
0Current Usings:  (VNENTRY,R2) (VNENTRY,R6) (*,R7) (GYWA-(4+36),R8) (CP,R11) (CV,R12)
0Loc    Object Code    Addr1 Addr2  Stmt Lv Lineno    Source Statement           (Hibal 5, Asmedit 3.3)  HLASM R4.0  2004/03/15 12.59
+___    ______ ____    _____ _____  ____ __ ______    ______ _________
0                                  20430
                                   20431                       COMMENT                   GET ARRAY DESCRIPTOR,
 003166 703A/47F0 704C 03166 0314C 20432                       ELSE  BEGIN
 00316A 4100 8030            00008 20443  1                      LA    R0,GYARRAY
 00316E 5820 802C            00004 20444  1                      L     R2,GYNAME
 003172 58E0 76FC/0DEE       0382C 20445  1                      ACALL GETADESC
 003178 4770 70CC            031FC 20449  1                      BNZ   GETADONE
 00317C                            20450                       END
                                   20454
                                   20455                       COMMENT                   CHECK SUBSCRIPTS
 00317C 4100 8030            00008 20456                       LA    R0,GYARRAY
 003180 5820 802C            00004 20457                       L     R2,GYNAME
 003184 58E0 7700/0DEE       03830 20458                       ACALL CHKSUBS
 00318A 4770 70CC            031FC 20462                       BNZ   GETADONE
                                   20463
                                   20464                       COMMENT                   CREATE ARRAY NAME
 00318E 4160 8180            00158 20465                       LA    R6,GYELEM
 003192 4110 8030            00008 20466                       LA    R1,GYARRAY
 003196 5820 802C            00004 20467                       L     R2,GYNAME
 00319A D71F 6000 6000 00000 00000 20468                       CLEAR VNDESC
 0031A0 D203 6000 1038 00000 00038 20475                       MVC   VNNAME(L'ANAME),VNANAME-VNENTRY(R1)
 0031A6 D203 6004 102C 00004 0002C 20476                       MVC   VNNAME+AIDENT(L'AIDENT),VNAIDENT-VNENTRY(R1)
 0031AC D201 6008 7704 00008 03834 20477                       MVC   VNNAME+ACONST(L'ACONST),=CL4'*A'
 0031B2 D201 600A 2012 0000A 00012 20478                       MVC   VNNAME+ASUB1(L'ASUB1),VNASUB1-VNENTRY(R2)
 0031B8 D201 600C 2014 0000C 00014 20479                       MVC   VNNAME+ASUB2(L'ASUB2),VNASUB2-VNENTRY(R2)
 0031BE D201 600E 2016 0000E 00016 20480                       MVC   VNNAME+ASUB3(L'ASUB3),VNASUB3-VNENTRY(R2)
 0031C4 D200 6010 2010 00010 00010 20481                       MVC   VNPREFIX(L'VNPREFIX),VNPREFIX-VNENTRY(R2)
                                   20482
                                   20483                       COMMENT                   SET ARRAY SET NUMBER
 0031CA 4160 8030            00008 20484                       LA    R6,GYARRAY          R6 - ARRAY DESC INFO
 0031CE 58F0 6024            00024 20485                       L     R15,VNARG
 0031D2 5800 6028            00028 20486                       L     R0,VNASET
 0031D6 58E0 76F0/0DEE       03820 20487                       VCALL XSETSET
                                   20491
                                   20492                       COMMENT                   GET ARRAY VARIABLE
 0031DC 58F0 6024            00024 20493                       L     R15,VNARG
 0031E0 5860 8028            00000 20494                       L     R6,GYVALUE          R6 - VARIABLE VALUE RETURN AREA
 0031E4 4100 0130            00130 20495                       LA    R0,L'VPARM-(VNDATA-VNENTRY)
 0031E8 4110 6020            00020 20496                       LA    R1,VNDATA
 0031EC 4120 8180            00158 20497                       LA    R2,GYELEM
 0031F0 58E0 76F4/0DEE       03824 20498                       VCALL XGET
 0031F6 4780 70CC            031FC 20502                       IF    NZ,BEGIN
 0031FA 0000                       20513  1                      BOMB
 0031FC                            20515                       END
                                   20519
 0031FC                            20520              GETADONE LABEL ,
 0031FC 18D8/9808 D004_            20522                       PEND  ,
 DROP   GYWA-(4+36),R8
 DROP   *,R7
 DROP   VNENTRY,R6                 20547                       DROP  R6
1VARS     (VARS9014) (12:59) (15MAR04) GET/SAVE ARRAY ELEMENTS                                                              Page   79
0Current Usings:  (VNENTRY,R2) (CP,R11) (CV,R12)
0Loc    Object Code    Addr1 Addr2  Stmt Lv Lineno    Source Statement           (Hibal 5, Asmedit 3.3)  HLASM R4.0  2004/03/15 12.59
+___    ______ ____    _____ _____  ____ __ ______    ______ _________
0                                  20555              ¿þþþþþþþþþþþþþþþþþþþþþþþþþþþþþþþþþþþþþþþþþþþþþþþþþþþþþþþþþþþþþþþþþþþþþÜ
                                   20556              Ÿ                                                                     Ÿ
                                   20557              Ÿ                                                                     Ÿ
                                   20558              Ÿ  SAVARRAY - SAVE ARRAY ELEMENT                                      Ÿ
                                   20559              Ÿ                                                                     Ÿ
                                   20560              Ÿ  ON ENTRY:                                                          Ÿ
                                   20561              Ÿ      @R1 - VARIABLE VALUE AREA.  SEE VNENTRY DSECT.                 Ÿ
                                   20562              Ÿ      @R2 - VARIABLE NAME DESCRIPTOR, INCLUDES SUBSCRIPT VALUES      Ÿ
                                   20563              Ÿ                                                                     Ÿ
                                   20564              Ÿ  ON EXIT:                                                           Ÿ
                                   20565              Ÿ      R15 - CC=ZERO, ELEMENT SAVED                                   Ÿ
                                   20566              Ÿ            CC=NZ, IF ERROR, ERROR MSG TSEG'D                        Ÿ
                                   20567              Ÿ                                                                     Ÿ
                                   20568              Ÿ  THE FOLLOWING ERROR CONDITIONS ARE DETECTED:                       Ÿ
                                   20569              Ÿ       * TOO MANY VARIABLES SAVED (>30000)                           Ÿ
                                   20570              Ÿ       * XXXXX: UNDECLARED ARRAY.                                    Ÿ
                                   20571              Ÿ       * INVALID SUBSCRIPT VALUE                                     Ÿ
                                   20572              Ÿ       * VARIABLE TYPE DOES NOT CONVERT                              Ÿ
                                   20573              Ÿ       * ETC,,,                                                      Ÿ
                                   20574              Ÿ                                                                     Ÿ
                                   20575              Ÿ                                                                     Ÿ
                                                      ¾þþþþþþþþþþþþþþþþþþþþþþþþþþþþþþþþþþþþþþþþþþþþþþþþþþþþþþþþþþþþþþþþþþþþþ»
0000000                00000 002A8 20576              SYWA     RECORD BEGIN
 000000                            20584  1           SYVALUE    DS    F                   ADDRESS OF ELEMENT VALUE
 000004                            20585  1           SYNAME     DS    F                   ADDRESS OF ELEMENT NAME
 000008                            20586  1           SYARRAY    DS    XL(L'VPARM)         ARRAY DESCRIPTOR ENTRY
 000158                            20587  1           SYELEM     DS    XL(L'VPARM)         VARIABLE PARM AREA FOR ELEMENT
 0002A8                002A8 002A8 20588                       END
                                   20597              *
                                   20598              *
 00320A 50E0 D000/9008_      00000 20599              SAVARRAY PROC  SYWA
 USING  *,R7
 USING  SYWA-(4+36),R8
 USING  VNENTRY,R6                 20649                       USING VNENTRY,R6
 003224 5010 8028            00000 20658                       ST    R1,SYVALUE
 003228 5020 802C            00004 20659                       ST    R2,SYNAME
                                   20660
                                   20661                       COMMENT                   ENTRANCE EXAM
 00322C 5860 802C            00004 20662                       L     R6,SYNAME
 003230 D501 75E4 6012_03808 00012 20663                       IF    (VNASUB1,EQ,0),BEGIN
 00323A 0000                       20681  1                      BOMB
 00323C                            20683                       END
                                   20687
                                   20688                       COMMENT                   GET ARRAY DESCRIPTOR,
 00323C 4100 8030            00008 20689                       LA    R0,SYARRAY
 003240 5820 802C            00004 20690                       L     R2,SYNAME
 003244 58E0 7608/0DEE       0382C 20691                       ACALL GETADESC
 00324A 4770 7128            0334C 20695                       BNZ   SAVADONE
                                   20696
                                   20697                       COMMENT                   GET/CHECK SUBSCRIPTS
 00324E 4100 8030            00008 20698                       LA    R0,SYARRAY
 003252 5820 802C            00004 20699                       L     R2,SYNAME
 003256 58E0 760C/0DEE       03830 20700                       ACALL CHKSUBS
1VARS     (VARS9014) (12:59) (15MAR04) GET/SAVE ARRAY ELEMENTS                                                              Page   80
0Current Usings:  (VNENTRY,R2) (VNENTRY,R6) (*,R7) (SYWA-(4+36),R8) (CP,R11) (CV,R12)
0Loc    Object Code    Addr1 Addr2  Stmt Lv Lineno    Source Statement           (Hibal 5, Asmedit 3.3)  HLASM R4.0  2004/03/15 12.59
+___    ______ ____    _____ _____  ____ __ ______    ______ _________
000325C 4770 7128            0334C 20704                       BNZ   SAVADONE
                                   20705
                                   20706                       COMMENT                   CONVERT ELEMENT TYPE, IF NEEDED
 003260 4160 8030            00008 20707                       LA    R6,SYARRAY
 003264 5820 8028            00000 20708                       L     R2,SYVALUE
 003268 9502 6030/4770_00030       20709                       IF    VNANUMB,BEGIN
 003270 58E0 7614/0DEE       03838 20724  1                      VCALL MAKENUMB
 003276                            20728                       END
 003276 7056/47F0 7064_03276 0326E 20732                       ELSEIF VNASTR,BEGIN
 003282 58E0 7618/0DEE       0383C 20756  1                      VCALL MAKESTR
 003288                            20760                       END
 003288 7068/47F0 7076_03288 03280 20764                       ELSEIF VNABOOL,BEGIN
 003294 58E0 761C/0DEE       03840 20788  1                      VCALL MAKEBOOL
 00329A                            20792                       END
 00329A 707A/47F0 707C 0329A 03292 20796                       ELSE  BEGIN
 00329E 0000                       20807  1                      BOMB
 0032A0                            20809                       END
 0032A0 12FF/4780 7086             20813                       IF    (R15,NZ),BEGIN      CONVERISON ERROR
 0032A6 47F0 7128            0334C 20827  1                      B     SAVADONE            ERROR MSG TSEG'D BY CONVRT RTNS
 0032AA                            20828                       END
                                   20832
                                   20833                       COMMENT                   CREATE ARRAY NAME
 0032AA 4160 8180            00158 20834                       LA    R6,SYELEM
 0032AE 4110 8030            00008 20835                       LA    R1,SYARRAY
 0032B2 5820 802C            00004 20836                       L     R2,SYNAME
 0032B6 D71F 6000 6000 00000 00000 20837                       CLEAR VNDESC
 0032BC D203 6000 1038 00000 00038 20844                       MVC   VNNAME(L'ANAME),VNANAME-VNENTRY(R1)
 0032C2 D203 6004 102C 00004 0002C 20845                       MVC   VNNAME+AIDENT(L'AIDENT),VNAIDENT-VNENTRY(R1)
 0032C8 D201 6008 7610 00008 03834 20846                       MVC   VNNAME+ACONST(L'ACONST),=CL4'*A'
 0032CE D201 600A 2012 0000A 00012 20847                       MVC   VNNAME+ASUB1(L'ASUB1),VNASUB1-VNENTRY(R2)
 0032D4 D201 600C 2014 0000C 00014 20848                       MVC   VNNAME+ASUB2(L'ASUB2),VNASUB2-VNENTRY(R2)
 0032DA D201 600E 2016 0000E 00016 20849                       MVC   VNNAME+ASUB3(L'ASUB3),VNASUB3-VNENTRY(R2)
 0032E0 D200 6010 2010 00010 00010 20850                       MVC   VNPREFIX(L'VNPREFIX),VNPREFIX-VNENTRY(R2)
                                   20851
                                   20852                       COMMENT                   SET ARRAY SET NUMBER
 0032E6 4160 8030            00008 20853                       LA    R6,SYARRAY          R6 - ARRAY DESC INFO
 0032EA 58F0 6024            00024 20854                       L     R15,VNARG
 0032EE 5800 6028            00028 20855                       L     R0,VNASET
 0032F2 58E0 75FC/0DEE       03820 20856                       VCALL XSETSET
                                   20860
                                   20861                       COMMENT                   SAVE ARRAY ELEMENT
 0032F8 58F0 6024            00024 20862                       L     R15,VNARG
 0032FC 5860 8028            00000 20863                       L     R6,SYVALUE          R6 - VALUE TO SAVE
 003300 4100 0010            00010 20864                       LA    R0,L'VNDATA
 003304 4110 6020            00020 20865                       LA    R1,VNDATA
 003308 4120 8180            00158 20866                       LA    R2,SYELEM
 00330C 9501 6020/4770_00020       20867                       IF    VNSTRING,BEGIN
 003314 4100 0006            00006 20882  1                      LA    R0,L'VNSDATA
 003318 4A00 6024            00024 20883  1                      AH    R0,VNSTRLEN
 00331C                            20884                       END
 00331C 58E0 7604/0DEE       03828 20888                       VCALL XPUT                SAVE VARIABLE
 003322 12FF/47B0 711E             20892                       IF    (R15,NEG),BEGIN
 003328 4110 7693/4100_      038B7 20906  1                      TSEG  'Too many variables (>30000) defined. '
 00333A 41F0 0004            00004 20924  1                      LA    R15,4
1VARS     (VARS9014) (12:59) (15MAR04) GET/SAVE ARRAY ELEMENTS                                                              Page   81
0Current Usings:  (VNENTRY,R2) (VNENTRY,R6) (*,R7) (SYWA-(4+36),R8) (CP,R11) (CV,R12)
0Loc    Object Code    Addr1 Addr2  Stmt Lv Lineno    Source Statement           (Hibal 5, Asmedit 3.3)  HLASM R4.0  2004/03/15 12.59
+___    ______ ____    _____ _____  ____ __ ______    ______ _________
000333E 47F0 7128            0334C 20925  1                      B     SAVADONE
 003342                            20926                       END
 003342 12FF/47D0 7126             20930                       IF    (R15,POS),BEGIN
 003348 0000                       20944  1                      BOMB
 00334A                            20946                       END
                                   20950
                                   20951                       COMMENT                   SAVE COMPLETED OK
 00334A 1BFF                       20952                       CLEAR R15
                                   20956
 00334C                            20957              SAVADONE LABEL ,
 00334C 18D8/9808 D004_            20959                       PEND  ,
 DROP   SYWA-(4+36),R8
 DROP   *,R7
 DROP   VNENTRY,R6                 20984                       DROP  R6
1VARS     (VARS9014) (12:59) (15MAR04) GET/SAVE ARRAY ELEMENTS                                                              Page   82
0Current Usings:  (VNENTRY,R2) (CP,R11) (CV,R12)
0Loc    Object Code    Addr1 Addr2  Stmt Lv Lineno    Source Statement           (Hibal 5, Asmedit 3.3)  HLASM R4.0  2004/03/15 12.59
+___    ______ ____    _____ _____  ____ __ ______    ______ _________
0                                  20992              ¿þþþþþþþþþþþþþþþþþþþþþþþþþþþþþþþþþþþþþþþþþþþþþþþþþþþþþþþþþþþþþþþþþþþþþÜ
                                   20993              Ÿ                                                                     Ÿ
                                   20994              Ÿ                                                                     Ÿ
                                   20995              Ÿ  GETSUBS - GET SUBSCRIPTS                                           Ÿ
                                   20996              Ÿ                                                                     Ÿ
                                   20997              Ÿ  ON ENTRY:                                                          Ÿ
                                   20998              Ÿ       R0 - LENGTH OF STRING                                         Ÿ
                                   20999              Ÿ       R1 - LOCATION OF STRING (POINTS TO BLANK OR '[')              Ÿ
                                   21000              Ÿ      @R2 - VARIABLE NAME DESCRIPTOR,  SEE VNENTRY DSECT.            Ÿ
                                   21001              Ÿ                                                                     Ÿ
                                   21002              Ÿ  ON EXIT:                                                           Ÿ
                                   21003              Ÿ       R0 - LENGTH OF REMAINING STRING                               Ÿ
                                   21004              Ÿ       R1 - LOCATION OF REMANING STRING                              Ÿ
                                   21005              Ÿ      @R2 - VARIABLE NAME DESCRIPTOR W/SUBSCRIPT FIELDS SET          Ÿ
                                   21006              Ÿ      R15 - CC=ZERO, IF ALL OK                                       Ÿ
                                   21007              Ÿ            CC=NZ, IF INVALID SUBSCRIPT, ERR MSG IS TSEG'D           Ÿ
                                   21008              Ÿ                                                                     Ÿ
                                   21009              Ÿ  NOTE: 3 SUBSCRIPTS ARE SET.  NO OTHER FIELDS IN THE VARIABLE       Ÿ
                                   21010              Ÿ        AREA (SEE VNENTRY DSECT) ARE MODIFIED.   IF A SUBSCRIPT      Ÿ
                                   21011              Ÿ        IS NOT SPECIFIED, IT IS SET TO ZERO.                         Ÿ
                                   21012              Ÿ                                                                     Ÿ
                                   21013              Ÿ                                                                     Ÿ
                                                      ¾þþþþþþþþþþþþþþþþþþþþþþþþþþþþþþþþþþþþþþþþþþþþþþþþþþþþþþþþþþþþþþþþþþþþþ»
0000000                00000 00006 21014              GSWA     RECORD BEGIN
 000000                            21022  1           GSSUB1     DS    H                   ARRAY SUBSCRIPTS
 000002                            21023  1           GSSUB2     DS    H
 000004                            21024  1           GSSUB3     DS    H
 000006                00006 00006 21025                       END
                                   21034              SUBLIMIT EQU   1                   1 DIMESION FOR STARTERS
 00335A                            21035                       DS    0S(3-CPSLIMIT)      3 DIMENSIONS MAX !!
                                   21036              *
                                   21037              *
 00335A 50E0 D000/9008_      00000 21038              GETSUBS  XPROC GSWA
 USING  *,R7
 USING  GSWA-(4+36),R8
 USING  VNENTRY,R6                 21089                       USING VNENTRY,R6
 003374 1862                       21098                       LR    R6,R2
 003376 D701 8028 8028 00000 00000 21099                       CLEAR GSSUB1
 00337C D701 802A 802A 00002 00002 21106                       CLEAR GSSUB2
 003382 D701 802C 802C 00004 00004 21113                       CLEAR GSSUB3
                                   21120
                                   21121                       COMMENT                   SKIP BLANKS, SKIP LEADING '['
 003388 9540 1000/4770_00000       21122                       WHILE ((@R1,EQ,' '),AND,(R0,POS)),BEGIN
 003396 4111 0001            00001 21153  1                      LA    R1,1(R1)
 00339A 0600                       21154  1                      DECR  R0
 00339C 47F0 7014            03388 21156                       END
 0033A0 95AD 1000/4770_00000       21161                       IF    ((@R1,NE,'['),OR,(R0,NP)),BEGIN
 0033AE 4120 6000            00000 21190  1                      LA    R2,VNENTRY
 0033B2 58E0 74D4/0DEE       03848 21191  1                      ACALL SEGVNAME
 0033B8 4110 7508/4100_      0387C 21195  1                      TSEG  ': missing subscripts. '
 0033CA 41F0 0004            00004 21213  1                      LA    R15,4
 0033CE 47F0 727C            035F0 21214  1                      B     SUBSDONE
 0033D2                            21215                       END
1VARS     (VARS9014) (12:59) (15MAR04) GET/SAVE ARRAY ELEMENTS                                                              Page   83
0Current Usings:  (VNENTRY,R2) (VNENTRY,R6) (*,R7) (GSWA-(4+36),R8) (CP,R11) (CV,R12)
0Loc    Object Code    Addr1 Addr2  Stmt Lv Lineno    Source Statement           (Hibal 5, Asmedit 3.3)  HLASM R4.0  2004/03/15 12.59
+___    ______ ____    _____ _____  ____ __ ______    ______ _________
00033D2 4111 0001            00001 21219                       LA    R1,1(R1)            SKIP '['
 0033D6 0600                       21220                       DECR  R0
                                   21222
                                   21223                       COMMENT                   CHECK FOR NULL SUBS (IE. [])
 0033D8 9540 1000/4770_00000       21224                       WHILE ((@R1,EQ,' '),AND,(R0,POS)),BEGIN
 0033E6 4111 0001            00001 21255  1                      LA    R1,1(R1)
 0033EA 0600                       21256  1                      DECR  R0
 0033EC 47F0 7064            033D8 21258                       END
 0033F0 95BD 1000/4770_00000       21263                       IF    ((@R1,EQ,']'),AND,(R0,POS)),BEGIN
 0033FE 58E0 74D4/0DEE       03848 21292  1                      ACALL SEGVNAME
 003404 4110 7508/4100_      0387C 21296  1                      TSEG  ': missing subscripts. '
 003416 41F0 0004            00004 21314  1                      LA    R15,4
 00341A 47F0 727C            035F0 21315  1                      B     SUBSDONE
 00341E                            21316                       END
                                   21320                       ¿þþþþþþþþþþþþþþþþþþþþþþþþþþþþþþþþÜ
                                   21321                       Ÿ  LOOP EVALUATING SUBSCRIPTS !  Ÿ
                                   21322                       ¾þþþþþþþþþþþþþþþþþþþþþþþþþþþþþþþþ»
                                   21323                       COMMENT                   LOOP EVALUATING SUBSCRIPTS
 00341E 1B33                       21324                       CLEAR R3
 003420 4140 8028            00000 21328                       LA    R4,GSSUB1           R3,R4 - SUBSCRIPT #, INDEX
 003424 95BD 1000/4780_00000       21329                       WHILE (@R1,NE,']'),BEGIN  LOOP UNTIL END OF SUBSCRIPTS
 00342C 4133 0001            00001 21347  1                      LA    R3,1(R3)
                                   21348  1
                                   21349  1                      COMMENT                   SPECIAL PROCESSING FOR ']'
 003430 9540 1000/4770_00000       21350  1                      WHILE ((@R1,EQ,' '),AND,(R0,POS)),BEGIN
 00343E 4111 0001            00001 21381  2                        LA    R1,1(R1)
 003442 0600                       21382  2                        DECR  R0
 003444 47F0 70BC            03430 21384  1                      END
 003448 95BD 1000/4770_00000       21389  1                      IF    ((@R1,EQ,']'),AND,(R0,POS)),BEGIN
 003456 58F0 74D8            0384C 21418  2                        L     R15,=F'-1'          IF ']', TREAT LIKE NULL EXPR
 00345A                            21419  1                      END
                                   21423  1           *
                                   21424  1           *
 00345A 95BD 1000/4770_00000       21425  1                      IF    ((@R1,NE,']'),OR,(R0,NP)),BEGIN     SPECIAL ']' CHECK
                                   21454  2                        COMMENT
                                   21455  2                        COMMENT                   EVALUATE INTEGER EXPRESSION
                                   21456  2                        COMMENT                   EVALUATE INTEGER EXPRESSION
                                   21457  2                        COMMENT
 003468 58E0 74DC/0DEE       03850 21458  2                        VCALL EVALINT             *******  !!!!
 00346E                            21462  1                      END
                                   21466  1           *
                                   21467  1           *
                                   21468  1                      COMMENT                   IF GOOD EXPRESSION,,
 00346E 12FF/4770 7132             21469  1                      IF    (R15,Z),BEGIN
 003474 4024 0000            00000 21483  2                        STH   R2,0(R4)            SAVE SUBSCRIPT
 003478 4144 0002            00002 21484  2                        LA    R4,L'GSSUB1(R4)
 00347C 1222/4720 711C             21485  2                        IF    (R2,NP),BEGIN
 003482 4120 6000            00000 21499  3                          LA    R2,VNENTRY
 003486 58E0 74E0/0DEE       03854 21500  3                          ACALL SMALLSUB
 00348C 47F0 727C            035F0 21504  3                          B     SUBSDONE
 003490                            21505  2                        END
 003490 5920 74E4/47D0_      03858 21509  2                        IF    (R2,GT,32000),BEGIN
 003498 4120 6000            00000 21526  3                          LA    R2,VNENTRY
 00349C 58E0 74E8/0DEE       0385C 21527  3                          ACALL BIGSUB
1VARS     (VARS9014) (12:59) (15MAR04) GET/SAVE ARRAY ELEMENTS                                                              Page   84
0Current Usings:  (VNENTRY,R2) (VNENTRY,R6) (*,R7) (GSWA-(4+36),R8) (CP,R11) (CV,R12)
0Loc    Object Code    Addr1 Addr2  Stmt Lv Lineno    Source Statement           (Hibal 5, Asmedit 3.3)  HLASM R4.0  2004/03/15 12.59
+___    ______ ____    _____ _____  ____ __ ______    ______ _________
00034A2 47F0 727C            035F0 21531  3                          B     SUBSDONE
 0034A6                            21532  2                        END
 0034A6                            21536  1                      END
                                   21540  1
                                   21541  1                      COMMENT                   IF NULL EXPRESSION
 0034A6 7136/47F0 714A_034A6 03472 21542  1                      ELSEIF (R15,NEG),BEGIN
 0034B0 4120 6000            00000 21565  2                        LA    R2,VNENTRY
 0034B4 58E0 74EC/0DEE       03860 21566  2                        ACALL BADSUB
 0034BA 47F0 727C            035F0 21570  2                        B     SUBSDONE
 0034BE                            21571  1                      END
                                   21575  1
                                   21576  1                      COMMENT                   IF ERROR IN EXPRESSION
 0034BE 714E/47F0 7162_034BE 034AE 21577  1                      ELSEIF (R15,POS),BEGIN
 0034C8 4120 6000            00000 21600  2                        LA    R2,VNENTRY
 0034CC 58E0 74EC/0DEE       03860 21601  2                        ACALL BADSUB
 0034D2 47F0 727C            035F0 21605  2                        B     SUBSDONE
 0034D6                            21606  1                      END
                                   21610  1
                                   21611  1                      COMMENT                   GET SET TO EVALUATE
                                   21612  1                      COMMENT                   NEXT SUBSCRIPT,  R1,R0=LOC,LEN
                                   21613  1                      COMMENT
 0034D6 1200/4720 7188             21614  1                      IF    (R0,NP),BEGIN           IF NO NEXT,,
 0034DC 4120 6000            00000 21628  2                        LA    R2,VNENTRY
 0034E0 4110 7568/4100_      038DC 21629  2                        TSEG  'Expecting "]". '
 0034F2 58E0 74EC/0DEE       03860 21647  2                        ACALL BADSUB
 0034F8 47F0 727C            035F0 21651  2                        B     SUBSDONE
 0034FC                            21652  1                      END
 0034FC 955E 1000/4770_00000       21656  1                      IF    (@R1,EQ,';'),BEGIN      IF ';' INVALID
 003504 4120 6000            00000 21672  2                        LA    R2,VNENTRY
 003508 58E0 74EC/0DEE       03860 21673  2                        ACALL BADSUB
 00350E 47F0 727C            035F0 21677  2                        B     SUBSDONE
 003512                            21678  1                      END
 003512 955D 1000/4770_00000       21682  1                      IF    (@R1,EQ,')'),BEGIN      IF ')' INVALID
 00351A 4120 6000            00000 21698  2                        LA    R2,VNENTRY
 00351E 4110 749C/4100_      03810 21699  2                        TSEG  ')   -- invalid. '
 003530 58E0 74EC/0DEE       03860 21717  2                        ACALL BADSUB
 003536 47F0 727C            035F0 21721  2                        B     SUBSDONE
 00353A                            21722  1                      END
 00353A 956B 1000/4780_00000       21726  1                      IF    ((@R1,NE,','),AND,(@R1,NE,']')),BEGIN
 00354A 58E0 74F0/0DEE       03864 21757  2                        VCALL CHECKEND
 003550 4110 7577/4100_      038EB 21761  2                        TSEG  'Subscripts must be separated by commas.  '
 003562 4120 6000            00000 21779  2                        LA    R2,VNENTRY
 003566 58E0 74EC/0DEE       03860 21780  2                        ACALL BADSUB
 00356C 47F0 727C            035F0 21784  2                        B     SUBSDONE
 003570                            21785  1                      END
 003570 956B 1000/4770_00000       21789  1                      IF    (@R1,EQ,','),BEGIN      IF ',' SKIP
 003578 4111 0001            00001 21805  2                        LA    R1,1(R1)
 00357C 0600                       21806  2                        DECR  R0
 00357E 95BD 1000/4770_00000       21808  2                        IF    ((@R1,EQ,']'),AND,(R0,POS)),BEGIN  IF '... ,]' ERROR
 00358C 4133 0001            00001 21837  3                          LA    R3,1(R3)
 003590 4120 6000            00000 21838  3                          LA    R2,VNENTRY
 003594 58E0 74EC/0DEE       03860 21839  3                          ACALL BADSUB
 00359A 47F0 727C            035F0 21843  3                          B     SUBSDONE
 00359E                            21844  2                        END
1VARS     (VARS9014) (12:59) (15MAR04) GET/SAVE ARRAY ELEMENTS                                                              Page   85
0Current Usings:  (VNENTRY,R2) (VNENTRY,R6) (*,R7) (GSWA-(4+36),R8) (CP,R11) (CV,R12)
0Loc    Object Code    Addr1 Addr2  Stmt Lv Lineno    Source Statement           (Hibal 5, Asmedit 3.3)  HLASM R4.0  2004/03/15 12.59
+___    ______ ____    _____ _____  ____ __ ______    ______ _________
000359E                            21848  1                      END
 00359E 5930 74F4/4750_      03868 21852  1                      IF    ((R3,GE,SUBLIMIT),AND,(@R1,NE,']')),BEGIN
 0035AE 4120 6000            00000 21884  2                        LA    R2,VNENTRY
 0035B2 58E0 74D4/0DEE       03848 21885  2                        ACALL SEGVNAME
 0035B8 4110 75A0/4100_      03914 21889  2                        TSEG  ': too many subscripts specified for array. '
 0035CA 41F0 0004            00004 21907  2                        LA    R15,4
 0035CE 47F0 727C            035F0 21908  2                        B     SUBSDONE
 0035D2                            21909  1                      END
                                   21913  1
                                   21914  1                      COMMENT                   LOOP EVALUATING SUBSCRIPTS,,
 0035D2 47F0 70B0            03424 21915                       END
                                   21920              *
                                   21921              *
                                   21922                       COMMENT                   GOT SUBSCRIPTS
 0035D6 5E10 74F8            0386C 21923                       INCR  R1                  SKIP FINAL ']'
 0035DA 0600                       21926                       DECR  R0
 0035DC D201 6012 8028 00012 00000 21928                       MVC   VNASUB1,GSSUB1
 0035E2 D201 6014 802A 00014 00002 21929                       MVC   VNASUB2,GSSUB2
 0035E8 D201 6016 802C 00016 00004 21930                       MVC   VNASUB3,GSSUB3
 0035EE 1BFF                       21931                       CLEAR R15
                                   21935
 0035F0                            21936              SUBSDONE LABEL ,
 0035F0 9001 8004            00004 21938                       PRETURN (R0,R1)
 0035F4 18D8/9808 D004_            21940                       PEND  ,
 DROP   GSWA-(4+36),R8
 DROP   *,R7
 DROP   VNENTRY,R6                 21965                       DROP  R6
1VARS     (VARS9014) (12:59) (15MAR04) GET/SAVE ARRAY ELEMENTS                                                              Page   86
0Current Usings:  (VNENTRY,R2) (CP,R11) (CV,R12)
0Loc    Object Code    Addr1 Addr2  Stmt Lv Lineno    Source Statement           (Hibal 5, Asmedit 3.3)  HLASM R4.0  2004/03/15 12.59
+___    ______ ____    _____ _____  ____ __ ______    ______ _________
0                                  21973              ¿þþþþþþþþþþþþþþþþþþþþþþþþþþþþþþþþþþþþþþþþþþþþþþþþþþþþþþþþþþþþþþþþþþþþþÜ
                                   21974              Ÿ                                                                     Ÿ
                                   21975              Ÿ                                                                     Ÿ
                                   21976              Ÿ  CHKSUBS - CHECK ARRAY SUBSCRIPTS                                   Ÿ
                                   21977              Ÿ                                                                     Ÿ
                                   21978              Ÿ  ON ENTRY:                                                          Ÿ
                                   21979              Ÿ       @R0 - ARRAY DESCRIPTOR.  SEE VNDESECT.                        Ÿ
                                   21980              Ÿ       @R2 - VARIABLE NAME DESCRIPTOR, INCLUDES SUBSCRIPT VALUES.    Ÿ
                                   21981              Ÿ                                                                     Ÿ
                                   21982              Ÿ  ON EXIT:                                                           Ÿ
                                   21983              Ÿ       R15 - CC=ZERO, ALL OK                                         Ÿ
                                   21984              Ÿ             CC=NZ, INVALID SUBSCRIPTS, ERR MSG IS TSEG'D            Ÿ
                                   21985              Ÿ                                                                     Ÿ
                                   21986              Ÿ                                                                     Ÿ
                                   21987              Ÿ                                                                     Ÿ
                                                      ¾þþþþþþþþþþþþþþþþþþþþþþþþþþþþþþþþþþþþþþþþþþþþþþþþþþþþþþþþþþþþþþþþþþþþþ»
0000000                00000 00014 21988              CKSWA    RECORD BEGIN
 000000                            21996  1           CKSARRAY   DS    F                   ADDRESS OF ARRAY DESCRIPTOR
 000004                            21997  1           CKSNAME    DS    F                   ADDRESS OF ELEMENT NAME
 000008                            21998  1           CKSSUB1    DS    H                   SUBSCRIPT 1
 00000A                            21999  1           CKSSUB2    DS    H                   SUBSCRIPT 2
 00000C                            22000  1           CKSSUB3    DS    H                   SUBSCRIPT 3
 00000E                            22001  1           CKSDIM1    DS    H                   MAX SUBSCRIPT 1
 000010                            22002  1           CKSDIM2    DS    H                   MAX SUBSCRIPT 2
 000012                            22003  1           CKSDIM3    DS    H                   MAX SUBSCRIPT 3
 000014                00014 00014 22004                       END
                                   22013              *
                                   22014              *
 003602 50E0 D000/9008_      00000 22015              CHKSUBS  PROC  CKSWA
 USING  *,R7
 USING  CKSWA-(4+36),R8
 USING  VNENTRY,R6                 22065                       USING VNENTRY,R6
 00361C 1860                       22074                       LR    R6,R0
 00361E 5000 8028            00000 22075                       ST    R0,CKSARRAY
 003622 5020 802C            00004 22076                       ST    R2,CKSNAME
                                   22077
                                   22078                       COMMENT                   CHECK ARRAY DESCRIPTOR
 003626 5860 8028            00000 22079                       L     R6,CKSARRAY
 00362A 9504 6020/4780_00020       22080                       IF    ~VNARRAY,BEGIN
 003632 0000                       22095  1                      BOMB
 003634                            22097                       END
                                   22101
                                   22102                       COMMENT                   GET DIMENSIONS/SUBSCRIPTS
 003634 5860 8028            00000 22103                       L     R6,CKSARRAY
 003638 D201 8036 6032 0000E 00032 22104                       MVC   CKSDIM1,VNADIM1
 00363E D201 8038 6034 00010 00034 22105                       MVC   CKSDIM2,VNADIM2
 003644 D201 803A 6036 00012 00036 22106                       MVC   CKSDIM3,VNADIM3
 00364A 5860 802C            00004 22107                       L     R6,CKSNAME
 00364E D201 8030 6012 00008 00012 22108                       MVC   CKSSUB1,VNASUB1
 003654 D201 8032 6014 0000A 00014 22109                       MVC   CKSSUB2,VNASUB2
 00365A D201 8034 6016 0000C 00016 22110                       MVC   CKSSUB3,VNASUB3
 003660 4800 8036            0000E 22111                       LH    R0,CKSDIM1          ARRAY MUST HAVE 1 DIM OR MORE
 003664 5900 7254/4730_      03870 22112                       IF    (R0,LE,0),BEGIN
1VARS     (VARS9014) (12:59) (15MAR04) GET/SAVE ARRAY ELEMENTS                                                              Page   87
0Current Usings:  (VNENTRY,R2) (VNENTRY,R6) (*,R7) (CKSWA-(4+36),R8) (CP,R11) (CV,R12)
0Loc    Object Code    Addr1 Addr2  Stmt Lv Lineno    Source Statement           (Hibal 5, Asmedit 3.3)  HLASM R4.0  2004/03/15 12.59
+___    ______ ____    _____ _____  ____ __ ______    ______ _________
000366C 0000                       22129  1                      BOMB
 00366E                            22131                       END
 00366E 4800 8030            00008 22135                       LH    R0,CKSSUB1
 003672 5900 7254/4730_      03870 22136                       IF    (R0,LE,0),BEGIN     FIRST SUBSCRIPT MUST BE POSITIVE
 00367A 0000                       22153  1                      BOMB
 00367C                            22155                       END
                                   22159
                                   22160                       COMMENT                   CHECK SUBSCRIPTS
 00367C D501 71EC 8036_03808 0000E 22161                       IF    (CKSDIM1,EQ,0),BEGIN
 003686 0000                       22179  1                      BOMB
 003688                            22181                       END
 003688 D501 71EC 8038_03808 00010 22185                       IF    ((CKSDIM2,EQ,0),AND,(CKSSUB2,NE,0)),BEGIN
 00369C 58E0 7258/0DEE       03874 22220  1                      ACALL BADDIM
 0036A2 47F0 713E            0375A 22224  1                      B     CKSDONE
 0036A6                            22225                       END
 0036A6 D501 71EC 803A_03808 00012 22229                       IF    ((CKSDIM3,EQ,0),AND,(CKSSUB3,NE,0)),BEGIN
 0036BA 58E0 7258/0DEE       03874 22264  1                      ACALL BADDIM
 0036C0 47F0 713E            0375A 22268  1                      B     CKSDONE
 0036C4                            22269                       END
 0036C4 D501 71EC 8030_03808 00008 22273                       IF    (CKSSUB1,EQ,0),BEGIN
 0036CE 58E0 7258/0DEE       03874 22291  1                      ACALL BADDIM
 0036D4                            22295                       END
 0036D4 D501 71EC 8038_03808 00010 22299                       IF    ((CKSDIM2,NE,0),AND,(CKSSUB2,EQ,0)),BEGIN
 0036E8 58E0 7258/0DEE       03874 22334  1                      ACALL BADDIM
 0036EE 47F0 713E            0375A 22338  1                      B     CKSDONE
 0036F2                            22339                       END
 0036F2 D501 71EC 803A_03808 00012 22343                       IF    ((CKSDIM3,NE,0),AND,(CKSSUB3,EQ,0)),BEGIN
 003706 58E0 7258/0DEE       03874 22378  1                      ACALL BADDIM
 00370C 47F0 713E            0375A 22382  1                      B     CKSDONE
 003710                            22383                       END
 003710 D501 8030 8036_00008 0000E 22387                       IF    (CKSSUB1,GT,CKSDIM1),BEGIN
 00371A 4130 0001            00001 22405  1                      LA    R3,1
 00371E 58E0 7240/0DEE       0385C 22406  1                      ACALL BIGSUB
 003724 47F0 713E            0375A 22410  1                      B     CKSDONE
 003728                            22411                       END
 003728 D501 8032 8038_0000A 00010 22415                       IF    (CKSSUB2,GT,CKSDIM2),BEGIN
 003732 4130 0002            00002 22433  1                      LA    R3,2
 003736 58E0 7240/0DEE       0385C 22434  1                      ACALL BIGSUB
 00373C 47F0 713E            0375A 22438  1                      B     CKSDONE
 003740                            22439                       END
 003740 D501 8034 803A_0000C 00012 22443                       IF    (CKSSUB3,GT,CKSDIM3),BEGIN
 00374A 4130 0003            00003 22461  1                      LA    R3,3
 00374E 58E0 7240/0DEE       0385C 22462  1                      ACALL BIGSUB
 003754 47F0 713E            0375A 22466  1                      B     CKSDONE
 003758                            22467                       END
 003758 1BFF                       22471                       CLEAR R15
                                   22475
 00375A                            22476              CKSDONE  LABEL ,
 00375A 18D8/9808 D004_            22478                       PEND  ,
 DROP   CKSWA-(4+36),R8
 DROP   *,R7
 DROP   VNENTRY,R6                 22503                       DROP  R6
1VARS     (VARS9014) (12:59) (15MAR04) GET/SAVE ARRAY ELEMENTS                                                              Page   88
0Current Usings:  (VNENTRY,R2) (CP,R11) (CV,R12)
0Loc    Object Code    Addr1 Addr2  Stmt Lv Lineno    Source Statement           (Hibal 5, Asmedit 3.3)  HLASM R4.0  2004/03/15 12.59
+___    ______ ____    _____ _____  ____ __ ______    ______ _________
0                                  22511              ¿þþþþþþþþþþþþþþþþþþþþþþþþþþþþþþþþþþþþþþþþþþþþþþþþþþþþþþþþþþþþþþþþþþþþþÜ
                                   22512              Ÿ                                                                     Ÿ
                                   22513              Ÿ                                                                     Ÿ
                                   22514              Ÿ  GETADESC - GET ARRAY DESCRIPTOR                                    Ÿ
                                   22515              Ÿ                                                                     Ÿ
                                   22516              Ÿ  ON ENTRY:                                                          Ÿ
                                   22517              Ÿ      @R0 - ARRAY PARM AREA.  SEE VNENTRY                            Ÿ
                                   22518              Ÿ      @R2 - VARIABLE NAME DESCRIPTOR.  SEE VNENTRY                   Ÿ
                                   22519              Ÿ                                                                     Ÿ
                                   22520              Ÿ  ON EXIT:                                                           Ÿ
                                   22521              Ÿ      ARRAY DESCRIPTOR RETURNED                                      Ÿ
                                   22522              Ÿ      R15 - CC=ZERO, ALL OK                                          Ÿ
                                   22523              Ÿ            CC=NZ, INVALID ARRAY NAME, ERR MSG TSEG'D                Ÿ
                                   22524              Ÿ                                                                     Ÿ
                                   22525              Ÿ                                                                     Ÿ
                                   22526              Ÿ                                                                     Ÿ
                                                      ¾þþþþþþþþþþþþþþþþþþþþþþþþþþþþþþþþþþþþþþþþþþþþþþþþþþþþþþþþþþþþþþþþþþþþþ»
0003768 50E0 D000/9008_      00000 22527              GETADESC XPROC ,
 USING  *,R7
 USING  VNENTRY,R6                 22567                       USING VNENTRY,R6
 003782 1860                       22576                       LR    R6,R0
                                   22577
                                   22578                       COMMENT                   GET ARRAY DESCRIPTOR NAME
 003784 D21F 6000 2000 00000 00000 22579                       MVC   VNDESC,VNDESC-VNENTRY(R2)
 00378A D701 6012 6012 00012 00012 22580                       CLEAR VNASUB1
 003790 D701 6014 6014 00014 00014 22587                       CLEAR VNASUB2
 003796 D701 6016 6016 00016 00016 22594                       CLEAR VNASUB3
                                   22601
                                   22602                       COMMENT                   GET ARRAY DESCRIPTOR
 00379C 4110 6000            00000 22603                       LA    R1,VNENTRY
 0037A0 4120 6000            00000 22604                       LA    R2,VNENTRY
 0037A4 58E0 70F6/0DEE       03878 22605                       ACALL GETVAR
 0037AA 4770 7056            037D8 22609                       IF    Z,BEGIN
 0037AE 9504 6020/4770_00020       22620  1                      IF    VNARRAY,BEGIN       IF ARRAY,,,, ALL OK !
 0037B6 1BFF                       22635  2                        CLEAR R15
 0037B8                            22639  1                      END
 0037B8 703A/47F0 7056 037B8 037B4 22643  1                      ELSE  BEGIN               IF NOT ARRAY,,,
 0037BC 58E0 70C6/0DEE       03848 22654  2                        ACALL SEGVNAME
 0037C2 4110 71BD/4100_      0393F 22658  2                        TSEG  ': not DECLARED as an array.  Subscripts invalid. '
 0037D4 41F0 0004            00004 22676  2                        LA    R15,4
 0037D8                            22677  1                      END
 0037D8                            22681                       END
 0037D8 705A/47F0 7076 037D8 037AC 22685                       ELSE  BEGIN               IF NOT A VAR, SAME DIFFERENCE
 0037DC 58E0 70C6/0DEE       03848 22696  1                      ACALL SEGVNAME
 0037E2 4110 71BD/4100_      0393F 22700  1                      TSEG  ': not DECLARED as an array.  Subscripts invalid. '
 0037F4 41F0 0004            00004 22718  1                      LA    R15,4
 0037F8                            22719                       END
                                   22723
 0037F8 18D8/9808 D004_            22724                       PEND  ,
 DROP   *,R7
 DROP   VNENTRY,R6                 22744                       DROP  R6
1VARS     (VARS9014) (12:59) (15MAR04) GET/SAVE ARRAY ELEMENTS                                                              Page   89
0Current Usings:  (VNENTRY,R2) (CP,R11) (CV,R12)
0Loc    Object Code    Addr1 Addr2  Stmt Lv Lineno    Source Statement           (Hibal 5, Asmedit 3.3)  HLASM R4.0  2004/03/15 12.59
+___    ______ ____    _____ _____  ____ __ ______    ______ _________
0                                  22752                       QLTORG
1VARS     (VARS9014) (12:59) (15MAR04) VARIABLE ENTRY FORMATTING ROUTINES                                                   Page   90
0Current Usings:  (VNENTRY,R2) (CP,R11) (CV,R12)
0Loc    Object Code    Addr1 Addr2  Stmt Lv Lineno    Source Statement           (Hibal 5, Asmedit 3.3)  HLASM R4.0  2004/03/15 12.59
+___    ______ ____    _____ _____  ____ __ ______    ______ _________
0                                  22797              ¿þþþþþþþþþþþþþþþþþþþþþþþþþþþþþþþþþþþþþþþþþþþþþþþþþþþþþþþþþþþþþþþþþþþþþÜ
                                   22798              Ÿ                                                                     Ÿ
                                   22799              Ÿ                                                                     Ÿ
                                   22800              Ÿ  VCLEAR - CLEAR VARIABLE AREA                                       Ÿ
                                   22801              Ÿ                                                                     Ÿ
                                   22802              Ÿ  ON ENTRY:                                                          Ÿ
                                   22803              Ÿ       R2 - VARIABLE AREA.  SEE VNENTRY DSECT.                       Ÿ
                                   22804              Ÿ                                                                     Ÿ
                                   22805              Ÿ                                                                     Ÿ
                                                      ¾þþþþþþþþþþþþþþþþþþþþþþþþþþþþþþþþþþþþþþþþþþþþþþþþþþþþþþþþþþþþþþþþþþþþþ»
0003970 50E0 D000/9008_      00000 22806              VCLEAR   XPROC ,
 USING  *,R7
                                   22846                       USING VNENTRY,R2
 00398A D74F 2000 2000 00000 00000 22848                       CLEAR VNENTRY
 DROP   VNENTRY,R2                 22855                       DROP  R2
 003990 18D8/9808 D004_            22862                       PEND  ,
 DROP   *,R7
1VARS     (VARS9014) (12:59) (15MAR04) VARIABLE ENTRY FORMATTING ROUTINES                                                   Page   91
0Current Usings:  (CP,R11) (CV,R12)
0Loc    Object Code    Addr1 Addr2  Stmt Lv Lineno    Source Statement           (Hibal 5, Asmedit 3.3)  HLASM R4.0  2004/03/15 12.59
+___    ______ ____    _____ _____  ____ __ ______    ______ _________
0                                  22883              ¿þþþþþþþþþþþþþþþþþþþþþþþþþþþþþþþþþþþþþþþþþþþþþþþþþþþþþþþþþþþþþþþþþþþþþÜ
                                   22884              Ÿ                                                                     Ÿ
                                   22885              Ÿ                                                                     Ÿ
                                   22886              Ÿ  VNAME - SET NAME IN VARIABLE AREA                                  Ÿ
                                   22887              Ÿ                                                                     Ÿ
                                   22888              Ÿ  ON ENTRY:                                                          Ÿ
                                   22889              Ÿ       R0 - NAME LENGTH (1 TO 16, SHOULD BE UPPER CASE!)             Ÿ
                                   22890              Ÿ       R1 - NAME LOCATION                                            Ÿ
                                   22891              Ÿ       R2 - VARIABLE AREA.  SEE VNENTRY DSECT.                       Ÿ
                                   22892              Ÿ                                                                     Ÿ
                                   22893              Ÿ                                                                     Ÿ
                                                      ¾þþþþþþþþþþþþþþþþþþþþþþþþþþþþþþþþþþþþþþþþþþþþþþþþþþþþþþþþþþþþþþþþþþþþþ»
000399E 50E0 D000/9008_      00000 22894              VNAME    XPROC ,
 USING  *,R7
 USING  VNENTRY,R2                 22934                       USING VNENTRY,R2
 0039B8 D20F 2000 C4D8 00000 004D8 22943                       MVC   VNNAME,CVBLANKS     BLANK NAME
 0039BE 1830                       22944                       LR    R3,R0
 0039C0 0630/1233/4740_            22945                       MOVE  R3,VNNAME,@R1
 DROP   VNENTRY,R2                 22983                       DROP  R2
 0039CC 18D8/9808 D004_            22990                       PEND  ,
 DROP   *,R7
1VARS     (VARS9014) (12:59) (15MAR04) VARIABLE ENTRY FORMATTING ROUTINES                                                   Page   92
0Current Usings:  (CP,R11) (CV,R12)
0Loc    Object Code    Addr1 Addr2  Stmt Lv Lineno    Source Statement           (Hibal 5, Asmedit 3.3)  HLASM R4.0  2004/03/15 12.59
+___    ______ ____    _____ _____  ____ __ ______    ______ _________
0                                  23011              ¿þþþþþþþþþþþþþþþþþþþþþþþþþþþþþþþþþþþþþþþþþþþþþþþþþþþþþþþþþþþþþþþþþþþþþÜ
                                   23012              Ÿ                                                                     Ÿ
                                   23013              Ÿ                                                                     Ÿ
                                   23014              Ÿ  VSTRING - SET STRING VALUE IN AREA                                 Ÿ
                                   23015              Ÿ                                                                     Ÿ
                                   23016              Ÿ  ON ENTRY:                                                          Ÿ
                                   23017              Ÿ       R0 - STRING LENGTH                                            Ÿ
                                   23018              Ÿ       R1 - STRING LOCATION                                          Ÿ
                                   23019              Ÿ       R2 - VARIABLE AREA.  SEE VNENTRY DSECT.                       Ÿ
                                   23020              Ÿ                                                                     Ÿ
                                   23021              Ÿ                                                                     Ÿ
                                                      ¾þþþþþþþþþþþþþþþþþþþþþþþþþþþþþþþþþþþþþþþþþþþþþþþþþþþþþþþþþþþþþþþþþþþþþ»
00039DA 50E0 D000/9008_      00000 23022              VSTRING  XPROC ,
 USING  *,R7
 USING  VNENTRY,R2                 23062                       USING VNENTRY,R2
                                   23071                       COMMENT                   CLEAR VALUE PART OF VARIABLE AREA
 0039F4 D72F 2020 2020 00020 00020 23072                       XC    VNENTRY+L'VNDESC(L'VNENTRY-L'VNDESC),VNENTRY+L'VNDESC
 0039FA 9201 2020      00020       23073                       SET   VNSTRING
 0039FE 4000 2024            00024 23079                       STH   R0,VNSTRLEN
 003A02 1830                       23080                       LR    R3,R0
 003A04 0630/1233/4740_            23081                       MOVE  R3,VNSTRLOC,@R1
 DROP   VNENTRY,R2                 23119                       DROP  R2
 003A10 18D8/9808 D004_            23126                       PEND  ,
 DROP   *,R7
1VARS     (VARS9014) (12:59) (15MAR04) VARIABLE ENTRY FORMATTING ROUTINES                                                   Page   93
0Current Usings:  (CP,R11) (CV,R12)
0Loc    Object Code    Addr1 Addr2  Stmt Lv Lineno    Source Statement           (Hibal 5, Asmedit 3.3)  HLASM R4.0  2004/03/15 12.59
+___    ______ ____    _____ _____  ____ __ ______    ______ _________
0                                  23147              ¿þþþþþþþþþþþþþþþþþþþþþþþþþþþþþþþþþþþþþþþþþþþþþþþþþþþþþþþþþþþþþþþþþþþþþÜ
                                   23148              Ÿ                                                                     Ÿ
                                   23149              Ÿ                                                                     Ÿ
                                   23150              Ÿ  VINTEGER - SET INTEGER VALUE IN AREA                               Ÿ
                                   23151              Ÿ                                                                     Ÿ
                                   23152              Ÿ  ON ENTRY:                                                          Ÿ
                                   23153              Ÿ       R1 - INTEGER VALUE                                            Ÿ
                                   23154              Ÿ       R2 - VARIABLE AREA.  SEE VNENTRY DSECT.                       Ÿ
                                   23155              Ÿ                                                                     Ÿ
                                   23156              Ÿ                                                                     Ÿ
                                                      ¾þþþþþþþþþþþþþþþþþþþþþþþþþþþþþþþþþþþþþþþþþþþþþþþþþþþþþþþþþþþþþþþþþþþþþ»
0003A1E 50E0 D000/9008_      00000 23157              VINTEGER XPROC ,
 USING  *,R7
 USING  VNENTRY,R2                 23197                       USING VNENTRY,R2
                                   23206                       COMMENT                   CLEAR VALUE PART OF VARIABLE AREA
 003A38 D72F 2020 2020 00020 00020 23207                       XC    VNENTRY+L'VNDESC(L'VNENTRY-L'VNDESC),VNENTRY+L'VNDESC
 003A3E 9202 2020      00020       23208                       SET   VNNUMB
 003A42 5010 2024            00024 23214                       ST    R1,VNVALUE
 003A46 58E0 7A68/0DEE       044A0 23215                       VCALL MAKEITOD
 DROP   VNENTRY,R2                 23219                       DROP  R2
 003A4C 18D8/9808 D004_            23226                       PEND  ,
 DROP   *,R7
1VARS     (VARS9014) (12:59) (15MAR04) VARIABLE SET LEVEL ROUTINES                                                          Page   94
0Current Usings:  (CP,R11) (CV,R12)
0Loc    Object Code    Addr1 Addr2  Stmt Lv Lineno    Source Statement           (Hibal 5, Asmedit 3.3)  HLASM R4.0  2004/03/15 12.59
+___    ______ ____    _____ _____  ____ __ ______    ______ _________
0                                  23248              ¿þþþþþþþþþþþþþþþþþþþþþþþþþþþþþþþþþþþþþþþþþþþþþþþþþþþþþþþþþþþþþþþþþþþþþÜ
                                   23249              Ÿ                                                                     Ÿ
                                   23250              Ÿ                                                                     Ÿ
                                   23251              Ÿ  GTNEWSET - GET NEXT SET NUMBER IN STACK                            Ÿ
                                   23252              Ÿ                                                                     Ÿ
                                   23253              Ÿ  THIS ROUTINE FINDS THE NEXT VARIABLE SET NUMBER IN THE             Ÿ
                                   23254              Ÿ  VARIABLE STACK...  EACH TIME AN XPROC IS CALLED TWO RECORD         Ÿ
                                   23255              Ÿ  GROUP SET ENTRIES ARE CREATED ON THE STACK.  THE FIRST IS          Ÿ
                                   23256              Ÿ  THE STANDARD ONE, THE SECOND IS FOR 'X.' VARIABLES.  EACH          Ÿ
                                   23257              Ÿ  PROC HAS ONLY ONE RECORD GROUP SET ENTRY ON THE VARIABLE           Ÿ
                                   23258              Ÿ  RECORD STACK...  DIG IT !!                                         Ÿ
                                   23259              Ÿ                                                                     Ÿ
                                   23260              Ÿ  ON EXIT:                                                           Ÿ
                                   23261              Ÿ       R0 - NEXT (NEW) VARIABLE STACK SET NUMBER                     Ÿ
                                   23262              Ÿ                                                                     Ÿ
                                   23263              Ÿ                                                                     Ÿ
                                                      ¾þþþþþþþþþþþþþþþþþþþþþþþþþþþþþþþþþþþþþþþþþþþþþþþþþþþþþþþþþþþþþþþþþþþþþ»
0003A5A 50E0 D000/9008_      00000 23264              GTNEWSET XPROC  *
 USING  *,R7
 USING  $$$635B-(4+36),R8
                                   23316
                                   23317                       COMMENT                   SET R0 TO CURRENT VAR SET#
 003A74 5800 B844            00844 23318                       L     R0,CPVSET#
                                   23319
                                   23320                       COMMENT                   IF BASE, SET TO STACK
 003A78 5900 7A30/4770_      044A4 23321                       IF    (R0,EQ,VBASE),BEGIN       IF BASE, SET TO STACK
 003A80 4100 0010            00010 23338  1                      LA    R0,VSTACK
 003A84                            23339                       END
                                   23343
                                   23344                       COMMENT                   IF STACK, INCREMENT
 003A84 7014/47F0 703C_03A84 03A7E 23345                       ELSEIF (R0,GE,VSTACK),BEGIN
 003A90 5800 B844            00844 23371  1                      L     R0,CPVSET#
 003A94 5A00 7A38            044AC 23372  1                      A     R0,=F'1'
                                   23373  1                      COMMENT                   IF XPROC, WE INCREMENT TWICE
                                   23374  1                      COMMENT                   2ND TIME IS FOR 'X.' VARIABLES
 003A98 D503 7A3C B778_044B0 00778 23375  1                      IF    (CP#XSET,NE,=A(CP#XOLD)),BEGIN
 003AA2 D503 B848 B844_00848 00844 23392  2                        IF    (CPXVSET#,EQ,CPVSET#),BEGIN
 003AAC 5A00 7A38            044AC 23410  3                          A     R0,=F'1'
 003AB0                            23411  2                        END
 003AB0                            23415  1                      END
 003AB0                            23419                       END
 003AB0 7040/47F0 7042 03AB0 03A8E 23423                       ELSE  BEGIN                     IF NEITHER, BOMB
 003AB4 0000                       23434  1                      BOMB
 003AB6                            23436                       END
 003AB6 5900 7A40/47D0_      044B4 23440                       IF    (R0,GT,MAXSET),BEGIN      IF TOO BIG, BOMB
 003ABE 900F C780/4DE0_      00780 23457  1                      KAPUT PUSHV,'Variable set stack overflow. '
 003AD6                            23464                       END
 003AD6 5008 0004            00004 23468                       PRETURN (R0)
 003ADA 18D8/9808 D004_            23470                       PEND  ,
 DROP   $$$635B-(4+36),R8
 DROP   *,R7
1VARS     (VARS9014) (12:59) (15MAR04) VARIABLE SET LEVEL ROUTINES                                                          Page   95
0Current Usings:  (CP,R11) (CV,R12)
0Loc    Object Code    Addr1 Addr2  Stmt Lv Lineno    Source Statement           (Hibal 5, Asmedit 3.3)  HLASM R4.0  2004/03/15 12.59
+___    ______ ____    _____ _____  ____ __ ______    ______ _________
0                                  23496              ¿þþþþþþþþþþþþþþþþþþþþþþþþþþþþþþþþþþþþþþþþþþþþþþþþþþþþþþþþþþþþþþþþþþþþþÜ
                                   23497              Ÿ                                                                     Ÿ
                                   23498              Ÿ                                                                     Ÿ
                                   23499              Ÿ  GETVRG - GET VARIABLE RECORD GROUP INFO POINTER                    Ÿ
                                   23500              Ÿ                                                                     Ÿ
                                   23501              Ÿ  ON ENTRY:                                                          Ÿ
                                   23502              Ÿ       R2 - VARIABLE NAME DESCRIPTOR                                 Ÿ
                                   23503              Ÿ            (CHECKS PREFIX FIELD FOR LOCAL/X/GBL/SES/PUB/SYS)        Ÿ
                                   23504              Ÿ                                                                     Ÿ
                                   23505              Ÿ  ON EXIT:                                                           Ÿ
                                   23506              Ÿ       R0 - VARIABLE RECORD GROUP INFO POINTER                       Ÿ
                                   23507              Ÿ      R15 - CC = ZERO                                                Ÿ
                                   23508              Ÿ                                                                     Ÿ
                                   23509              Ÿ                                                                     Ÿ
                                   23510              Ÿ                                                                     Ÿ
                                                      ¾þþþþþþþþþþþþþþþþþþþþþþþþþþþþþþþþþþþþþþþþþþþþþþþþþþþþþþþþþþþþþþþþþþþþþ»
0003AE8 50E0 D000/9008_      00000 23511              GETVRG   PROC  ,
 USING  *,R7
 USING  VNENTRY,R2                 23550                       USING VNENTRY,R2
                                   23559
                                   23560                       COMMENT                   IF LOCAL VARIABLE
 003B02 9500 2010/4770_00010       23561                       IF    (VNPREFIX,EQ,0),BEGIN
 003B0A 4100 B4E4            004E4 23579  1                      LA    R0,CPVARS
 003B0E                            23580                       END
                                   23584
                                   23585                       COMMENT                   IF X. VAR PREFIX
 003B0E 7010/47F0 701C_03B0E 03B08 23586                       ELSEIF VNPFX,BEGIN
 003B1A 4100 B4E4            004E4 23610  1                      LA    R0,CPVARS
 003B1E                            23611                       END
                                   23615                       COMMENT                   IF GBL. VAR PREFIX
 003B1E 7020/47F0 702C_03B1E 03B18 23616                       ELSEIF VNPFGBL,BEGIN
 003B2A 4100 B4E4            004E4 23640  1                      LA    R0,CPVARS
 003B2E                            23641                       END
                                   23645                       COMMENT                   IF SYS. VAR PREFIX
 003B2E 7030/47F0 7050_03B2E 03B28 23646                       ELSEIF VNPFSYS,BEGIN
 003B3A 900F C780/4DE0_      00780 23670  1                      KAPUT GETVRG,'System variables record group does not exist.'
 003B52                            23677                       END
                                   23681                       COMMENT                   IF SES. VAR PREFIX
 003B52 7054/47F0 7060_03B52 03B38 23682                       ELSEIF VNPFSES,BEGIN
 003B5E 4100 B524            00524 23706  1                      LA    R0,CPRG16
 003B62                            23707                       END
                                   23711                       COMMENT                   IF PUB. VAR PREFIX
 003B62 7064/47F0 7070_03B62 03B5C 23712                       ELSEIF VNPFPUB,BEGIN
 003B6E 4100 C360            00360 23736  1                      LA    R0,CVRG16
 003B72                            23737                       END
                                   23741                       COMMENT                   ANY OTHER CASES, INVALID
 003B72 7074/47F0 7076 03B72 03B6C 23742                       ELSE  BEGIN
 003B76 0000                       23753  1                      BOMB
 003B78                            23755                       END
                                   23759
 003B78 1BFF                       23760                       CLEAR R15
 003B7A 5008 0004            00004 23764                       PRETURN (R0)
 003B7E 18D8/9808 D004_            23766                       PEND  ,
1VARS     (VARS9014) (12:59) (15MAR04) VARIABLE SET LEVEL ROUTINES                                                          Page   96
0Current Usings:  (VNENTRY,R2) (CP,R11) (CV,R12)
0Loc    Object Code    Addr1 Addr2  Stmt Lv Lineno    Source Statement           (Hibal 5, Asmedit 3.3)  HLASM R4.0  2004/03/15 12.59
+___    ______ ____    _____ _____  ____ __ ______    ______ _________
0DROP   *,R7
 DROP   VNENTRY,R2                 23786                       DROP  R2
1VARS     (VARS9014) (12:59) (15MAR04) VARIABLE SET LEVEL ROUTINES                                                          Page   97
0Current Usings:  (CP,R11) (CV,R12)
0Loc    Object Code    Addr1 Addr2  Stmt Lv Lineno    Source Statement           (Hibal 5, Asmedit 3.3)  HLASM R4.0  2004/03/15 12.59
+___    ______ ____    _____ _____  ____ __ ______    ______ _________
0                                  23794              ¿þþþþþþþþþþþþþþþþþþþþþþþþþþþþþþþþþþþþþþþþþþþþþþþþþþþþþþþþþþþþþþþþþþþþþÜ
                                   23795              Ÿ                                                                     Ÿ
                                   23796              Ÿ                                                                     Ÿ
                                   23797              Ÿ  GETVSET - GET VARIABLE SET NUMBER                                  Ÿ
                                   23798              Ÿ                                                                     Ÿ
                                   23799              Ÿ  ON ENTRY:                                                          Ÿ
                                   23800              Ÿ       R2 - VARIABLE NAME DESCRIPTOR                                 Ÿ
                                   23801              Ÿ            (CHECKS PREFIX FIELD FOR LOCAL/X/GBL/SYS)                Ÿ
                                   23802              Ÿ                                                                     Ÿ
                                   23803              Ÿ  ON EXIT:                                                           Ÿ
                                   23804              Ÿ       R0 - CURRENT SET NUMBER                                       Ÿ
                                   23805              Ÿ      R15 - CC=ZERO                                                  Ÿ
                                   23806              Ÿ                                                                     Ÿ
                                   23807              Ÿ                                                                     Ÿ
                                   23808              Ÿ  CAUTION: IF NO XPROC ACTIVE, 'X.' PREFIX WILL BOMB ROUTINE.        Ÿ
                                   23809              Ÿ       CHECK FOR THIS CONDITION EXTERNALLY.                          Ÿ
                                   23810              Ÿ                                                                     Ÿ
                                                      ¾þþþþþþþþþþþþþþþþþþþþþþþþþþþþþþþþþþþþþþþþþþþþþþþþþþþþþþþþþþþþþþþþþþþþþ»
0003B8C 50E0 D000/9008_      00000 23811              GETVSET  PROC  ,
 USING  *,R7
 USING  VNENTRY,R2                 23850                       USING VNENTRY,R2
                                   23859
 003BA6 9500 2010/4770_00010       23860                       IF    (VNPREFIX,EQ,0),BEGIN   LOCAL
 003BAE 5800 B844            00844 23878  1                      L     R0,CPVSET#
 003BB2                            23879                       END
                                   23883
 003BB2 7010/47F0 701E_03BB2 03BAC 23884                       ELSEIF VNPFX,BEGIN        XPROC 'X.' VARIABLE
 003BBE 58E0 7912/0DEE       044B8 23908  1                      ACALL GETXVSET
 003BC4                            23912                       END
                                   23916
 003BC4 7022/47F0 702E_03BC4 03BBC 23917                       ELSEIF VNPFGBL,BEGIN      GLOBAL
 003BD0 4100 0003            00003 23941  1                      LA    R0,VGLOBAL
 003BD4                            23942                       END
                                   23946
 003BD4 7032/47F0 7052_03BD4 03BCE 23947                       ELSEIF VNPFSYS,BEGIN      SYSTEM
 003BE0 900F C780/4DE0_      00780 23971  1                      KAPUT GETVSET,'System variable set number does not exist.'
 003BF8                            23978                       END
                                   23982
 003BF8 7056/47F0 7062_03BF8 03BDE 23983                       ELSEIF VNPFSES,BEGIN      SESSION
 003C04 4100 0008            00008 24007  1                      LA    R0,CP#SESV
 003C08                            24008                       END
                                   24012
 003C08 7066/47F0 7072_03C08 03C02 24013                       ELSEIF VNPFPUB,BEGIN      PUBLIC
 003C14 4100 0002            00002 24037  1                      LA    R0,CV#PUBV
 003C18                            24038                       END
                                   24042
 003C18 7076/47F0 7078 03C18 03C12 24043                       ELSE  BEGIN               NONE OF THE ABOVE
 003C1C 0000                       24054  1                      BOMB
 003C1E                            24056                       END
                                   24060
 003C1E 1BFF                       24061                       CLEAR R15
 003C20 5008 0004            00004 24065                       PRETURN (R0)
 003C24 18D8/9808 D004_            24067                       PEND  ,
1VARS     (VARS9014) (12:59) (15MAR04) VARIABLE SET LEVEL ROUTINES                                                          Page   98
0Current Usings:  (VNENTRY,R2) (CP,R11) (CV,R12)
0Loc    Object Code    Addr1 Addr2  Stmt Lv Lineno    Source Statement           (Hibal 5, Asmedit 3.3)  HLASM R4.0  2004/03/15 12.59
+___    ______ ____    _____ _____  ____ __ ______    ______ _________
0DROP   *,R7
 DROP   VNENTRY,R2                 24087                       DROP  R2
1VARS     (VARS9014) (12:59) (15MAR04) VARIABLE SET LEVEL ROUTINES                                                          Page   99
0Current Usings:  (CP,R11) (CV,R12)
0Loc    Object Code    Addr1 Addr2  Stmt Lv Lineno    Source Statement           (Hibal 5, Asmedit 3.3)  HLASM R4.0  2004/03/15 12.59
+___    ______ ____    _____ _____  ____ __ ______    ______ _________
0                                  24095              ¿þþþþþþþþþþþþþþþþþþþþþþþþþþþþþþþþþþþþþþþþþþþþþþþþþþþþþþþþþþþþþþþþþþþþþÜ
                                   24096              Ÿ                                                                     Ÿ
                                   24097              Ÿ                                                                     Ÿ
                                   24098              Ÿ  GETXVSET - GET SET NUMBER OF 'X.' VARIABLES                        Ÿ
                                   24099              Ÿ                                                                     Ÿ
                                   24100              Ÿ  ON EXIT:                                                           Ÿ
                                   24101              Ÿ       R0 - 'X.' VARIABLES SET NUMBER                                Ÿ
                                   24102              Ÿ       R15 - UNCHANGED                                               Ÿ
                                   24103              Ÿ                                                                     Ÿ
                                   24104              Ÿ  HEY GUYS, EACH TIME AN XPROC IS CALLED TWO RECORD GROUP SET        Ÿ
                                   24105              Ÿ  ENTRIES ARE CREATED ON THE STACK.  THE FIRST IS THE STANDARD       Ÿ
                                   24106              Ÿ  ONE, THE SECOND IS FOR 'X.' VARIABLES.  EACH PROC HAS ONLY         Ÿ
                                   24107              Ÿ  ONE RECORD GROUP SET ENTRY ON THE VARIABLE RECORD STACK...         Ÿ
                                   24108              Ÿ  DIG IT !!                                                          Ÿ
                                   24109              Ÿ                                                                     Ÿ
                                   24110              Ÿ  CAUTION:  IF NO XPROC ACTIVE, ROUTINE WILL BOMB !                  Ÿ
                                   24111              Ÿ                                                                     Ÿ
                                   24112              Ÿ                                                                     Ÿ
                                                      ¾þþþþþþþþþþþþþþþþþþþþþþþþþþþþþþþþþþþþþþþþþþþþþþþþþþþþþþþþþþþþþþþþþþþþþ»
0003C32 50E0 D000/9008_      00000 24113              GETXVSET PROC  ,
 USING  *,R7
                                   24152
                                   24153                       COMMENT                   IF NO ACTIVE XPROC, BOMB
 003C4C D503 7864 B778_044B0 00778 24154                       IF    (CP#XSET,EQ,=A(CP#XOLD)),BEGIN
 003C56 0000                       24171  1                      BOMB
 003C58                            24173                       END
                                   24177
 003C58 5800 B848            00848 24178                       L     R0,CPXVSET#
 003C5C 5A00 7860            044AC 24179                       A     R0,=F'1'
                                   24180
 003C60 5008 0004            00004 24181                       PRETURN (R0)
 003C64 18D8/9808 D004_            24183                       PEND  ,
 DROP   *,R7
1VARS     (VARS9014) (12:59) (15MAR04) VARIABLE SET LEVEL ROUTINES                                                          Page  100
0Current Usings:  (CP,R11) (CV,R12)
0Loc    Object Code    Addr1 Addr2  Stmt Lv Lineno    Source Statement           (Hibal 5, Asmedit 3.3)  HLASM R4.0  2004/03/15 12.59
+___    ______ ____    _____ _____  ____ __ ______    ______ _________
0                                  24204              ¿þþþþþþþþþþþþþþþþþþþþþþþþþþþþþþþþþþþþþþþþþþþþþþþþþþþþþþþþþþþþþþþþþþþþþÜ
                                   24205              Ÿ                                                                     Ÿ
                                   24206              Ÿ  **** NO KNOWN CALLER, DO NOT DELETE, GENERIC ROUTINE               Ÿ
                                   24207              Ÿ                                                                     Ÿ
                                   24208              Ÿ  CLRVSET - CLEAR SET OF VARIABLES                                   Ÿ
                                   24209              Ÿ                                                                     Ÿ
                                   24210              Ÿ  ON ENTRY:                                                          Ÿ
                                   24211              Ÿ       R0 - VARIABLE SET # TO CLEAR                                  Ÿ
                                   24212              Ÿ                                                                     Ÿ
                                   24213              Ÿ  ON EXIT:                                                           Ÿ
                                   24214              Ÿ       R15 - CC=ZERO                                                 Ÿ
                                   24215              Ÿ                                                                     Ÿ
                                   24216              Ÿ                                                                     Ÿ
                                                      ¾þþþþþþþþþþþþþþþþþþþþþþþþþþþþþþþþþþþþþþþþþþþþþþþþþþþþþþþþþþþþþþþþþþþþþ»
0003C72 50E0 D000/9008_      00000 24217              CLRVSET  PROC  ,
 USING  *,R7
                                   24256
                                   24257                       COMMENT                   CLEAR A SET OF VARIABLES
 003C8C 41F0 B4E4            004E4 24258                       LA    R15,CPVARS
 003C90 58E0 7830/0DEE       044BC 24259                       VCALL XDELSET
                                   24263
 003C96 1BFF                       24264                       CLEAR R15
 003C98 18D8/9808 D004_            24268                       PEND  ,
 DROP   *,R7
1VARS     (VARS9014) (12:59) (15MAR04) VARIABLE SET LEVEL ROUTINES                                                          Page  101
0Current Usings:  (CP,R11) (CV,R12)
0Loc    Object Code    Addr1 Addr2  Stmt Lv Lineno    Source Statement           (Hibal 5, Asmedit 3.3)  HLASM R4.0  2004/03/15 12.59
+___    ______ ____    _____ _____  ____ __ ______    ______ _________
0                                  24289              ¿þþþþþþþþþþþþþþþþþþþþþþþþþþþþþþþþþþþþþþþþþþþþþþþþþþþþþþþþþþþþþþþþþþþþþÜ
                                   24290              Ÿ                                                                     Ÿ
                                   24291              Ÿ                                                                     Ÿ
                                   24292              Ÿ  CLRVSETS - CLEAR ALL VARIABLE SET ON STACK FROM SET SPECIFIED.     Ÿ
                                   24293              Ÿ                                                                     Ÿ
                                   24294              Ÿ  ON ENTRY:                                                          Ÿ
                                   24295              Ÿ       R0 - FIRST VARIABLE SET # TO CLEAR                            Ÿ
                                   24296              Ÿ                                                                     Ÿ
                                   24297              Ÿ  ON EXIT:                                                           Ÿ
                                   24298              Ÿ       R15 - CC=ZERO                                                 Ÿ
                                   24299              Ÿ                                                                     Ÿ
                                   24300              Ÿ                                                                     Ÿ
                                   24301              Ÿ  CAUTION: R0 MUST BE VALID VARIABLE STACK SET NUMBER                Ÿ
                                   24302              Ÿ                                                                     Ÿ
                                   24303              Ÿ                                                                     Ÿ
                                                      ¾þþþþþþþþþþþþþþþþþþþþþþþþþþþþþþþþþþþþþþþþþþþþþþþþþþþþþþþþþþþþþþþþþþþþþ»
0003CA6 50E0 D000/9008_      00000 24304              CLRVSETS XPROC ,
 USING  *,R7
                                   24344
                                   24345                       COMMENT                   VALIDITY CHECK R0
 003CC0 5900 77E8/47B0_      044A8 24346                       IF    (R0,LT,VSTACK),BEGIN
 003CC8 0000                       24363  1                      BOMB
 003CCA                            24365                       END
                                   24369
                                   24370                       COMMENT                   CLEAR REQUESTED SETS
 003CCA 41F0 B4E4            004E4 24371                       LA    R15,CPVARS
                                   24372                       COMMENT R0-START
 003CCE 5810 7800            044C0 24373                       L     R1,=X'FFFFFFFF'
 003CD2 58E0 7804/0DEE       044C4 24374                       VCALL XDELSETS
                                   24378
 003CD8 1BFF                       24379                       CLEAR R15
 003CDA 18D8/9808 D004_            24383                       PEND  ,
 DROP   *,R7
1VARS     (VARS9014) (12:59) (15MAR04) VARIABLE SET LEVEL ROUTINES                                                          Page  102
0Current Usings:  (CP,R11) (CV,R12)
0Loc    Object Code    Addr1 Addr2  Stmt Lv Lineno    Source Statement           (Hibal 5, Asmedit 3.3)  HLASM R4.0  2004/03/15 12.59
+___    ______ ____    _____ _____  ____ __ ______    ______ _________
0                                  24404              ¿þþþþþþþþþþþþþþþþþþþþþþþþþþþþþþþþþþþþþþþþþþþþþþþþþþþþþþþþþþþþþþþþþþþþþÜ
                                   24405              Ÿ                                                                     Ÿ
                                   24406              Ÿ                                                                     Ÿ
                                   24407              Ÿ  CLRVSTK - CLEAR VARIABLE STACK, RESET BASE VARIABLE SET            Ÿ
                                   24408              Ÿ                                                                     Ÿ
                                   24409              Ÿ                                                                     Ÿ
                                                      ¾þþþþþþþþþþþþþþþþþþþþþþþþþþþþþþþþþþþþþþþþþþþþþþþþþþþþþþþþþþþþþþþþþþþþþ»
0003CE8 50E0 D000/9008_      00000 24410              CLRVSTK  XPROC ,
 USING  *,R7
                                   24450
                                   24451                       COMMENT                   CLEAR VARIABLE STACK
 003D02 41F0 B4E4            004E4 24452                       LA    R15,CPVARS
 003D06 4100 0010            00010 24453                       LA    R0,VSTACK
 003D0A 5810 77C6            044C8 24454                       L     R1,=X'FFFFFFF'
 003D0E 58E0 77C2/0DEE       044C4 24455                       VCALL XDELSETS
                                   24459
                                   24460                       COMMENT                   SET BASE VARIABLE SET
 003D14 4100 0002            00002 24461                       LA    R0,VBASE
 003D18 5000 B844            00844 24462                       ST    R0,CPVSET#
                                   24463
 003D1C 1BFF                       24464                       CLEAR R15
 003D1E 18D8/9808 D004_            24468                       PEND  ,
 DROP   *,R7
1VARS     (VARS9014) (12:59) (15MAR04) VARIABLE SET LEVEL ROUTINES                                                          Page  103
0Current Usings:  (CP,R11) (CV,R12)
0Loc    Object Code    Addr1 Addr2  Stmt Lv Lineno    Source Statement           (Hibal 5, Asmedit 3.3)  HLASM R4.0  2004/03/15 12.59
+___    ______ ____    _____ _____  ____ __ ______    ______ _________
0                                  24489              ¿þþþþþþþþþþþþþþþþþþþþþþþþþþþþþþþþþþþþþþþþþþþþþþþþþþþþþþþþþþþþþþþþþþþþþÜ
                                   24490              Ÿ                                                                     Ÿ
                                   24491              Ÿ                                                                     Ÿ
                                   24492              Ÿ  INITBASE - INITIALIZE BASE VARIABLE SET.   INIT N0-N9, S0-S9,      Ÿ
                                   24493              Ÿ             AND W0-W9.  ALL OTHER VARIABLES IN SET ARE CLEARED !    Ÿ
                                   24494              Ÿ                                                                     Ÿ
                                   24495              Ÿ                                                                     Ÿ
                                   24496              Ÿ                                                                     Ÿ
                                                      ¾þþþþþþþþþþþþþþþþþþþþþþþþþþþþþþþþþþþþþþþþþþþþþþþþþþþþþþþþþþþþþþþþþþþþþ»
0000000                00000 00150 24497              VARWA    RECORD BEGIN
 000000                            24505  1           VARAREA    DS    XL(L'VPARM)         TEMP VARIABLE WORK AREA
 000150                00150 00150 24506                       END
                                   24515              *
                                   24516              *
 003D2C 50E0 D000/9008_      00000 24517              INITBASE XPROC VARWA
 USING  *,R7
 USING  VARWA-(4+36),R8
 USING  VNENTRY,R6                 24568                       USING VNENTRY,R6
 003D46 4160 8028            00000 24577                       LA    R6,VARAREA
                                   24578
                                   24579                       COMMENT                   SET BASE SET OF VARIABLES
 003D4A 41F0 B4E4            004E4 24580                       LA    R15,CPVARS
 003D4E 4100 0002            00002 24581                       LA    R0,VBASE
 003D52 58E0 7786/0DEE       044CC 24582                       VCALL XSETSET             SET BASE SET VARIABLES
 003D58 50F0 D000/41D0_      00000 24586                       XPUSH R15                 PUSH LAST SET NUMBER
                                   24589
                                   24590                       COMMENT                   CLEAR BASE SET OF VARIABLES
 003D60 41F0 B4E4            004E4 24591                       LA    R15,CPVARS
 003D64 4100 0002            00002 24592                       LA    R0,VBASE
 003D68 58E0 7776/0DEE       044BC 24593                       VCALL XDELSET
                                   24597
                                   24598                       COMMENT                   INITIALIZE N0-N9
 003D6E D74F 6000 6000 00000 00000 24599                       CLEAR VNENTRY             CLEAR VAR WORK AREA
 003D74 4120 6000            00000 24606                       LA    R2,VNNAME
 003D78 4130 0010            00010 24607                       LA    R3,L'VNNAME
 003D7C 5850 778A            044D0 24608                       L     R5,=X'40000000'
 003D80 0E24                       24609                       MVCL  R2,R4               BLANK NAME
 003D82 92D5 6000      00000       24610                       MVI   VNNAME,C'N'         SET NAME
 003D86 9202 6020      00020       24611                       SET   VNNUMB              SET TYPE
                                   24617                       COMMENT                   SET VALUE
 003D8A 920C 602F      0002F       24618                       MVI   VNVALUE+L'VNVALUE-1,X'0C'
 003D8E 1B44                       24619                       CLEAR R4
 003D90 5940 778E/47B0_      044D4 24623                       WHILE (R4,LT,10),BEGIN    LOOP THRU N0-N9
 003D98 4240 6001            00001 24642  1                      STC   R4,VNNAME+1         GET NAME RIGHT
 003D9C 96F0 6001      00001       24643  1                      OI    VNNAME+1,C'0'
 003DA0 41F0 B4E4            004E4 24644  1                      LA    R15,CPVARS          SAVE VARIABLE
 003DA4 4100 0010            00010 24645  1                      LA    R0,L'VNDATA
 003DA8 4110 6020            00020 24646  1                      LA    R1,VNDATA
 003DAC 4120 6000            00000 24647  1                      LA    R2,VNNAME
 003DB0 58E0 7792/0DEE       044D8 24648  1                      VCALL XPUT                SAVE VARIABLE
 003DB6 4144 0001            00001 24652  1                      LA    R4,1(R4)
 003DBA 47F0 704A            03D90 24653                       END
                                   24658
1VARS     (VARS9014) (12:59) (15MAR04) VARIABLE SET LEVEL ROUTINES                                                          Page  104
0Current Usings:  (VNENTRY,R6) (*,R7) (VARWA-(4+36),R8) (CP,R11) (CV,R12)
0Loc    Object Code    Addr1 Addr2  Stmt Lv Lineno    Source Statement           (Hibal 5, Asmedit 3.3)  HLASM R4.0  2004/03/15 12.59
+___    ______ ____    _____ _____  ____ __ ______    ______ _________
0                                  24659                       COMMENT                   INITIALIZE S0-S9
 003DBE D74F 6000 6000 00000 00000 24660                       CLEAR VNENTRY             CLEAR VAR WORK AREA
 003DC4 4120 6000            00000 24667                       LA    R2,VNNAME
 003DC8 4130 0010            00010 24668                       LA    R3,L'VNNAME
 003DCC 5850 778A            044D0 24669                       L     R5,=X'40000000'
 003DD0 0E24                       24670                       MVCL  R2,R4               BLANK NAME
 003DD2 92E2 6000      00000       24671                       MVI   VNNAME,C'S'         SET NAME
 003DD6 9201 6020      00020       24672                       SET   VNSTRING            SET TYPE
 003DDA D701 6024 6024 00024 00024 24678                       CLEAR VNSTRLEN            SET VALUE
 003DE0 1B44                       24685                       CLEAR R4
 003DE2 5940 778E/47B0_      044D4 24689                       WHILE (R4,LT,10),BEGIN    LOOP THRU N0-N9
 003DEA 4240 6001            00001 24708  1                      STC   R4,VNNAME+1         GET NAME RIGHT
 003DEE 96F0 6001      00001       24709  1                      OI    VNNAME+1,C'0'
 003DF2 41F0 B4E4            004E4 24710  1                      LA    R15,CPVARS          SAVE VARIABLE
 003DF6 4100 0010            00010 24711  1                      LA    R0,L'VNDATA
 003DFA 4110 6020            00020 24712  1                      LA    R1,VNDATA
 003DFE 4120 6000            00000 24713  1                      LA    R2,VNNAME
 003E02 58E0 7792/0DEE       044D8 24714  1                      VCALL XPUT                SAVE VARIABLE
 003E08 4144 0001            00001 24718  1                      LA    R4,1(R4)
 003E0C 47F0 709C            03DE2 24719                       END
                                   24724
                                   24725                       COMMENT                   INITIALIZE W0-W9
 003E10 D74F 6000 6000 00000 00000 24726                       CLEAR VNENTRY             CLEAR VAR WORK AREA
 003E16 4120 6000            00000 24733                       LA    R2,VNNAME
 003E1A 4130 0010            00010 24734                       LA    R3,L'VNNAME
 003E1E 5850 778A            044D0 24735                       L     R5,=X'40000000'
 003E22 0E24                       24736                       MVCL  R2,R4               BLANK NAME
 003E24 92E6 6000      00000       24737                       MVI   VNNAME,C'W'         SET NAME
 003E28 9202 6020      00020       24738                       SET   VNNUMB              SET TYPE
                                   24744                       COMMENT                   SET VALUE
 003E2C 920C 602F      0002F       24745                       MVI   VNVALUE+L'VNVALUE-1,X'0C'
 003E30 1B44                       24746                       CLEAR R4
 003E32 5940 778E/47B0_      044D4 24750                       WHILE (R4,LT,10),BEGIN    LOOP THRU N0-N9
 003E3A 4240 6001            00001 24769  1                      STC   R4,VNNAME+1         GET NAME RIGHT
 003E3E 96F0 6001      00001       24770  1                      OI    VNNAME+1,C'0'
 003E42 41F0 B4E4            004E4 24771  1                      LA    R15,CPVARS          SAVE VARIABLE
 003E46 4100 0010            00010 24772  1                      LA    R0,L'VNDATA
 003E4A 4110 6020            00020 24773  1                      LA    R1,VNDATA
 003E4E 4120 6000            00000 24774  1                      LA    R2,VNNAME
 003E52 58E0 7792/0DEE       044D8 24775  1                      VCALL XPUT                SAVE VARIABLE
 003E58 4144 0001            00001 24779  1                      LA    R4,1(R4)
 003E5C 47F0 70EC            03E32 24780                       END
                                   24785
                                   24786                       COMMENT                   POP LAST VARIABLE SET
 003E60 4BD0 77F2/58F0_      04538 24787                       XPOP  R15
 003E68 180F                       24790                       LR    R0,R15
 003E6A 41F0 B4E4            004E4 24791                       LA    R15,CPVARS
 003E6E 58E0 7786/0DEE       044CC 24792                       VCALL XSETSET             SET VARIABLE SET NUMBER
                                   24796
 003E74 1BFF                       24797                       CLEAR R15
 003E76 18D8/9808 D004_            24801                       PEND  ,
 DROP   VARWA-(4+36),R8
 DROP   *,R7
 DROP   VNENTRY,R6                 24826                       DROP  R6
1VARS     (VARS9014) (12:59) (15MAR04) DEBUG MESSAGES                                                                       Page  105
0Current Usings:  (CP,R11) (CV,R12)
0Loc    Object Code    Addr1 Addr2  Stmt Lv Lineno    Source Statement           (Hibal 5, Asmedit 3.3)  HLASM R4.0  2004/03/15 12.59
+___    ______ ____    _____ _____  ____ __ ______    ______ _________
0                                  24835              ¿þþþþþþþþþþþþþþþþþþþþþþþþþþþþþþþþþþþþþþþþþþþþþþþþþþþþþþþþþþþþþþþþþþþþþÜ
                                   24836              Ÿ                                                                     Ÿ
                                   24837              Ÿ  **** NO KNOWN CALLERS, DO NOT DELETE,,,,,                          Ÿ
                                   24838              Ÿ  ****                                                               Ÿ
                                   24839              Ÿ  **** THIS ROUTINE MAY BE EXAMPLE FOR SIMILAR DEBUG MODULE          Ÿ
                                   24840              Ÿ  **** ROUTINES,,,, MAY DELETE WHEN DEBUG IMPLEMENTED.               Ÿ
                                   24841              Ÿ                                                                     Ÿ
                                   24842              Ÿ  ON ENTRY:                                                          Ÿ
                                   24843              Ÿ      @R0 - ZERO OR ARRAY DESCRIPTOR.  SEE VNENTRY                   Ÿ
                                   24844              Ÿ      @R1 - VARIABLE VALUE.  SEE VNENTRY.                            Ÿ
                                   24845              Ÿ      @R2 - VARIABLE DESCRIPTOR.  SEE VNENTRY.                       Ÿ
                                   24846              Ÿ                                                                     Ÿ
                                   24847              Ÿ  ON EXIT:                                                           Ÿ
                                   24848              Ÿ      R15 - CC=ZERO                                                  Ÿ
                                   24849              Ÿ                                                                     Ÿ
                                   24850              Ÿ                                                                     Ÿ
                                                      ¾þþþþþþþþþþþþþþþþþþþþþþþþþþþþþþþþþþþþþþþþþþþþþþþþþþþþþþþþþþþþþþþþþþþþþ»
0003E84 50E0 D000/9008_      00000 24851              DBUGGET  PROC  ,
 USING  *,R7
                                   24890              *$  MUST CHECK IF DEBUG ACTIVE,
                                   24891              *$  MUST CHECK IF ARRAY, DITTO, DITTO !!
 003E9E 18D8/9808 D004_            24892                       PEND  ,
 DROP   *,R7
-
-003EAC 50E0 D000/9008_      00000 24913              DBUGSAVE PROC  ,
 USING  *,R7
                                   24952              *$  MUST CHECK IF DEBUG ACTIVE,
                                   24953              *$  MUST CHECK IF ARRAY, DITTO, DITTO !!
 003EC6 18D8/9808 D004_            24954                       PEND  ,
 DROP   *,R7
1VARS     (VARS9014) (12:59) (15MAR04) SCAN VARIABLE DESCRIPTOR                                                             Page  106
0Current Usings:  (CP,R11) (CV,R12)
0Loc    Object Code    Addr1 Addr2  Stmt Lv Lineno    Source Statement           (Hibal 5, Asmedit 3.3)  HLASM R4.0  2004/03/15 12.59
+___    ______ ____    _____ _____  ____ __ ______    ______ _________
0                                  24975              ¿þþþþþþþþþþþþþþþþþþþþþþþþþþþþþþþþþþþþþþþþþþþþþþþþþþþþþþþþþþþþþþþþþþþþþÜ
                                   24976              Ÿ                                                                     Ÿ
                                   24977              Ÿ                                                                     Ÿ
                                   24978              Ÿ  SCNVDESC - SCAN VARIABLE NAME (DESCRIPTOR)                         Ÿ
                                   24979              Ÿ                                                                     Ÿ
                                   24980              Ÿ  THIS ROUTINE SCANS VARIABLE NAMES, AND IN THE CASE OF              Ÿ
                                   24981              Ÿ  AN ARRAY, IT'S SUBSCRIPTS.  SEE VNDESC IN VNENTRY DSECT.           Ÿ
                                   24982              Ÿ  ONLY NAME SYNTAX IS CHECKED, WHILE SUBSCRIPTS ARE EVALUATED.       Ÿ
                                   24983              Ÿ                                                                     Ÿ
                                   24984              Ÿ  ON ENTRY:                                                          Ÿ
                                   24985              Ÿ       R0 - LENGTH OF STRING                                         Ÿ
                                   24986              Ÿ       R1 - LOCATION OF STRING                                       Ÿ
                                   24987              Ÿ      @R2 - AREA TO RETURN NAME DESCRIPTOR (OF LEN L'VNDESC)         Ÿ
                                   24988              Ÿ                                                                     Ÿ
                                   24989              Ÿ  ON EXIT:                                                           Ÿ
                                   24990              Ÿ       R0 - REMAINING STRING LENGTH                                  Ÿ
                                   24991              Ÿ       R1 - REMAINING STRING LOCATION                                Ÿ
                                   24992              Ÿ      @R2 - VARIABLE DESCRIPTOR INFORMATION                          Ÿ
                                   24993              Ÿ      R15 - CC=ZERO, VALID DESCRIPTOR                                Ÿ
                                   24994              Ÿ            CC=NZ, INVALID DESCRIPTOR, ERR MSG IS T'SEGD             Ÿ
                                   24995              Ÿ                                                                     Ÿ
                                   24996              Ÿ                                                                     Ÿ
                                   24997              Ÿ                                                                     Ÿ
                                                      ¾þþþþþþþþþþþþþþþþþþþþþþþþþþþþþþþþþþþþþþþþþþþþþþþþþþþþþþþþþþþþþþþþþþþþþ»
0003ED4 50E0 D000/9008_      00000 24998              SCNVDESC XPROC ,
 USING  *,R7
                                   25038
                                   25039                       COMMENT                   SCAN VARIABLE NAME
 003EEE 58E0 75EE/0DEE       044DC 25040                       VCALL SCNVNAME
 003EF4 4780 7056            03F44 25044                       IF    NZ,BEGIN
 003EF8 59F0 75F2/4770_      044E0 25055  1                      IF    (R15,EQ,-4),BEGIN
 003F00 4110 76A4/4100_      04592 25071  2                        TSEG  'Missing variable name. '
 003F12 41F0 0004            00004 25089  2                        LA    R15,4
 003F16                            25090  1                      END
 003F16 702C/47F0 7050_03F16 03EFE 25094  1                      ELSEIF (R15,EQ,4),BEGIN
 003F22 58E0 75FE/0DEE       044EC 25120  2                        ACALL SEGVNAME
 003F28 4110 76BB/4100_      045A9 25124  2                        TSEG  ': invalid variable name. '
 003F3A 41F0 0004            00004 25142  2                        LA    R15,4
 003F3E                            25143  1                      END
 003F3E 7054/47F0 7056 03F3E 03F20 25147  1                      ELSE  BEGIN
 003F42 0000                       25158  2                        BOMB
 003F44                            25160  1                      END
 003F44                            25164                       END
                                   25168
                                   25169                       COMMENT                   VALID VARIABLE NAME, CHECK FOR
                                   25170                       COMMENT                   SUBSCRIPTS
 003F44 705A/47F0 7088 03F44 03EF6 25171                       ELSE  BEGIN
 003F48 1BFF                       25182  1                      CLEAR R15
 003F4A 9540 1000/4770_00000       25186  1                      WHILE ((@R1,EQ,' '),AND,(R0,POS)),BEGIN   SKIP BLANKS
 003F58 5E10 7602            044F0 25217  2                        INCR  R1
 003F5C 0600                       25220  2                        DECR  R0
 003F5E 47F0 705C            03F4A 25222  1                      END
 003F62 95AD 1000/4770_00000       25227  1                      IF    ((@R1,EQ,'['),AND,(R0,POS)),BEGIN   FOUND '['
1VARS     (VARS9014) (12:59) (15MAR04) SCAN VARIABLE DESCRIPTOR                                                             Page  107
0Current Usings:  (*,R7) (CP,R11) (CV,R12)
0Loc    Object Code    Addr1 Addr2  Stmt Lv Lineno    Source Statement           (Hibal 5, Asmedit 3.3)  HLASM R4.0  2004/03/15 12.59
+___    ______ ____    _____ _____  ____ __ ______    ______ _________
0003F70 58E0 7606/0DEE       044F4 25256  2                        ACALL GETSUBS                             GET SUBSCRIPTS
 003F76                            25260  1                      END
 003F76                            25264                       END
                                   25268
 003F76 9001 8004            00004 25269                       PRETURN (R0,R1)
 003F7A 18D8/9808 D004_            25271                       PEND  ,
 DROP   *,R7
1VARS     (VARS9014) (12:59) (15MAR04) SCAN VARIABLE DESCRIPTOR                                                             Page  108
0Current Usings:  (CP,R11) (CV,R12)
0Loc    Object Code    Addr1 Addr2  Stmt Lv Lineno    Source Statement           (Hibal 5, Asmedit 3.3)  HLASM R4.0  2004/03/15 12.59
+___    ______ ____    _____ _____  ____ __ ______    ______ _________
0                                  25292              ¿þþþþþþþþþþþþþþþþþþþþþþþþþþþþþþþþþþþþþþþþþþþþþþþþþþþþþþþþþþþþþþþþþþþþþÜ
                                   25293              Ÿ                                                                     Ÿ
                                   25294              Ÿ                                                                     Ÿ
                                   25295              Ÿ  SCNNSW - SCAN FOR N0-N9, W0-W9, OR S0-S9                           Ÿ
                                   25296              Ÿ                                                                     Ÿ
                                   25297              Ÿ  ON ENTRY:                                                          Ÿ
                                   25298              Ÿ       R0 - STRING LENGTH                                            Ÿ
                                   25299              Ÿ       R1 - STRING LOCATION                                          Ÿ
                                   25300              Ÿ                                                                     Ÿ
                                   25301              Ÿ  ON EXIT:                                                           Ÿ
                                   25302              Ÿ       R0,R1 - UNCHANGED                                             Ÿ
                                   25303              Ÿ       R15 - CC=ZERO, IF N0-N9, W0-W9, 0R S0-S9 FOUND,,              Ÿ
                                   25304              Ÿ             CC=NZ, NSW VARIABLE NOT FOUND,,                         Ÿ
                                   25305              Ÿ                                                                     Ÿ
                                   25306              Ÿ                                                                     Ÿ
                                                      ¾þþþþþþþþþþþþþþþþþþþþþþþþþþþþþþþþþþþþþþþþþþþþþþþþþþþþþþþþþþþþþþþþþþþþþ»
0003F88 50E0 D000/9008_      00000 25307              SCNNSW   PROC  ,
 USING  *,R7
                                   25346
                                   25347                       COMMENT                   SCAN FOR VARIABLE NAME
 003FA2 58E0 B08C/501E_      0008C 25348                       SCINIT (R1),(R0)
 003FB0 5810 B08C/1B00_      0008C 25368                       SCAN  ,
 003FFE 5810 B08C/4111_      0008C 25399                       SCUPTOK R1
                                   25403
 004006 5900 755A/4770_      044FC 25404                       IF    (R0,EQ,2),BEGIN
 00400E 1F22/4320 1000             25421  1                      LC    R2,@R1
 004014 4130 00D5            000D5 25428  1                      LA    R3,C'N'
 004018 4140 00E2            000E2 25429  1                      LA    R4,C'S'
 00401C 4150 00E6            000E6 25430  1                      LA    R5,C'W'
 004020 1923/4780 7090_            25431  1                      IF    ((R2,EQ,R3),OR,(R2,EQ,R4),OR,(R2,EQ,R5)),BEGIN
 004032 95F0 1001/4750_00001       25472  2                        IF    ((@R1+1,GE,'0'),AND,(@R1+1,LE,'9')),BEGIN
 004042 1BFF                       25503  3                          CLEAR R15
 004044                            25507  2                        END
 004044                            25511  1                      END
 004044                            25515                       END
 004044 18D8/9808 D004_            25519                       PEND  ,
 DROP   *,R7
1VARS     (VARS9014) (12:59) (15MAR04) VARIABLE SEG (OUTPUT) ROUTINES                                                       Page  109
0Current Usings:  (CP,R11) (CV,R12)
0Loc    Object Code    Addr1 Addr2  Stmt Lv Lineno    Source Statement           (Hibal 5, Asmedit 3.3)  HLASM R4.0  2004/03/15 12.59
+___    ______ ____    _____ _____  ____ __ ______    ______ _________
0                                  25540              ¿þþþþþþþþþþþþþþþþþþþþþþþþþþþþþþþþþþþþþþþþþþþþþþþþþþþþþþþþþþþþþþþþþþþþþÜ
                                   25541              Ÿ                                                                     Ÿ
                                   25542              Ÿ                                                                     Ÿ
                                   25543              Ÿ  SEGVAR - OUTPUT VARIABLE = VALUE                                   Ÿ
                                   25544              Ÿ                                                                     Ÿ
                                   25545              Ÿ  ON INPUT:                                                          Ÿ
                                   25546              Ÿ       R2 - VARIABLE PARM AREA.  SEE VNENTRY DSECT.                  Ÿ
                                   25547              Ÿ                                                                     Ÿ
                                   25548              Ÿ  ON EXIT:                                                           Ÿ
                                   25549              Ÿ      R15 - CC=ZERO, IF OK                                           Ÿ
                                   25550              Ÿ            CC=NZ, IF ATTN HIT                                       Ÿ
                                   25551              Ÿ                                                                     Ÿ
                                   25552              Ÿ  OUTPUT EXAMPLES:                                                   Ÿ
                                   25553              Ÿ       N0 = 0                                                        Ÿ
                                   25554              Ÿ       GBL.TEST = 'THIS IS A STRING'                                 Ÿ
                                   25555              Ÿ                                                                     Ÿ
                                   25556              Ÿ  NOTE:                                                              Ÿ
                                   25557              Ÿ     THIS ROUTINE WILL NOT HANDLE ARRAY ELEMENTS.                    Ÿ
                                   25558              Ÿ                                                                     Ÿ
                                   25559              Ÿ                                                                     Ÿ
                                                      ¾þþþþþþþþþþþþþþþþþþþþþþþþþþþþþþþþþþþþþþþþþþþþþþþþþþþþþþþþþþþþþþþþþþþþþ»
0004052 50E0 D000/9008_      00000 25560              SEGVAR   XPROC ,
 USING  *,R7
 00406C 58E0 7480/0DEE       044EC 25600                       ACALL SEGVNAME            NAME
 004072 4110 7556/4100_      045C2 25604                       TSEG  ' = '               =
 004084 58E0 7494/0DEE       04500 25622                       ACALL SEGVALUE            VALUE
 00408A 18D8/9808 D004_            25626                       PEND  ,
 DROP   *,R7
1VARS     (VARS9014) (12:59) (15MAR04) VARIABLE SEG (OUTPUT) ROUTINES                                                       Page  110
0Current Usings:  (CP,R11) (CV,R12)
0Loc    Object Code    Addr1 Addr2  Stmt Lv Lineno    Source Statement           (Hibal 5, Asmedit 3.3)  HLASM R4.0  2004/03/15 12.59
+___    ______ ____    _____ _____  ____ __ ______    ______ _________
0                                  25647              ¿þþþþþþþþþþþþþþþþþþþþþþþþþþþþþþþþþþþþþþþþþþþþþþþþþþþþþþþþþþþþþþþþþþþþþÜ
                                   25648              Ÿ                                                                     Ÿ
                                   25649              Ÿ                                                                     Ÿ
                                   25650              Ÿ  SEGVNAME - TSEG VARIABLE NAME                                      Ÿ
                                   25651              Ÿ                                                                     Ÿ
                                   25652              Ÿ  ON INPUT:                                                          Ÿ
                                   25653              Ÿ       R2 - VARIABLE PARM AREA.  SEE VNENTRY DSECT.                  Ÿ
                                   25654              Ÿ            (INCLUDES VARIABLE NAME DESCRIPTOR, W/VAR PREFIX)        Ÿ
                                   25655              Ÿ                                                                     Ÿ
                                   25656              Ÿ  ON EXIT:                                                           Ÿ
                                   25657              Ÿ      R15 - CC=ZERO                                                  Ÿ
                                   25658              Ÿ            CC=NZ, IF ATTN HIT                                       Ÿ
                                   25659              Ÿ                                                                     Ÿ
                                   25660              Ÿ                                                                     Ÿ
                                                      ¾þþþþþþþþþþþþþþþþþþþþþþþþþþþþþþþþþþþþþþþþþþþþþþþþþþþþþþþþþþþþþþþþþþþþþ»
0004098 50E0 D000/9008_      00000 25661              SEGVNAME XPROC ,
 USING  *,R7
 USING  VNENTRY,R6                 25701                       USING VNENTRY,R6
 0040B2 1862                       25710                       LR    R6,R2
                                   25711
                                   25712                       COMMENT                   PROCESS PREFIX, IF ANY
 0040B4 9500 6010/4780_00010       25713                       IF    (VNPREFIX,NE,0),BEGIN
 0040BC 9501 6010/4770_00010       25731  1                      IF    VNPFX,BEGIN
 0040C4 4110 748A/4100_      0453C 25746  2                        TSEG  'X.'
 0040D6                            25764  1                      END
 0040D6 7028/47F0 7042_040D6 040C2 25768  1                      ELSEIF VNPFGBL,BEGIN
 0040E2 4110 7452/4100_      04504 25792  2                        TSEG  'GBL.'
 0040F4                            25810  1                      END
 0040F4 7046/47F0 7060_040F4 040E0 25814  1                      ELSEIF VNPFSYS,BEGIN
 004100 4110 7456/4100_      04508 25838  2                        TSEG  'SYS.'
 004112                            25856  1                      END
 004112 7064/47F0 707E_04112 040FE 25860  1                      ELSEIF VNPFSES,BEGIN
 00411E 4110 745A/4100_      0450C 25884  2                        TSEG  'SES.'
 004130                            25902  1                      END
 004130 7082/47F0 709C_04130 0411C 25906  1                      ELSEIF VNPFPUB,BEGIN
 00413C 4110 745E/4100_      04510 25930  2                        TSEG  'PUB.'
 00414E                            25948  1                      END
 00414E 70A0/47F0 70A2 0414E 0413A 25952  1                      ELSE  BEGIN
 004152 0000                       25963  2                        BOMB
 004154                            25965  1                      END
 004154                            25969                       END
                                   25973
                                   25974                       COMMENT                   TSEG NAME
 004154 4110 6000/4100_      00000 25975                       TSEG  VNNAME,L'VNNAME,T
                                   26005
 004166 18D8/9808 D004_            26006                       PEND  ,
 DROP   *,R7
 DROP   VNENTRY,R6                 26026                       DROP  R6
1VARS     (VARS9014) (12:59) (15MAR04) VARIABLE SEG (OUTPUT) ROUTINES                                                       Page  111
0Current Usings:  (CP,R11) (CV,R12)
0Loc    Object Code    Addr1 Addr2  Stmt Lv Lineno    Source Statement           (Hibal 5, Asmedit 3.3)  HLASM R4.0  2004/03/15 12.59
+___    ______ ____    _____ _____  ____ __ ______    ______ _________
0                                  26034              ¿þþþþþþþþþþþþþþþþþþþþþþþþþþþþþþþþþþþþþþþþþþþþþþþþþþþþþþþþþþþþþþþþþþþþþÜ
                                   26035              Ÿ                                                                     Ÿ
                                   26036              Ÿ                                                                     Ÿ
                                   26037              Ÿ  SEGVALUE - TSEG VALUE OF A VARIABLE                                Ÿ
                                   26038              Ÿ                                                                     Ÿ
                                   26039              Ÿ       EXPRESSION IS TSEG'D, FOLLOWED BY A BLANK.                    Ÿ
                                   26040              Ÿ       NOTE THAT STRINGS ARE ENCLOSED IN QUOTES.                     Ÿ
                                   26041              Ÿ       Note that array is simply listed as "*** Array ***".          Ÿ
                                   26042              Ÿ                                                                     Ÿ
                                   26043              Ÿ  ON ENTRY:                                                          Ÿ
                                   26044              Ÿ       R2 - VARIABLE PARM ENTRY.  SEE VNENTRY DSECT.                 Ÿ
                                   26045              Ÿ                                                                     Ÿ
                                   26046              Ÿ  ON EXIT:                                                           Ÿ
                                   26047              Ÿ       R15: - CC=ZERO, IF OK                                         Ÿ
                                   26048              Ÿ              CC=NZ, IF ATTN HIT                                     Ÿ
                                   26049              Ÿ                                                                     Ÿ
                                   26050              Ÿ  NOTE: ONLY TYPE/VALUE FIELDS OF VNENTRY MUST BE SET. NAME          Ÿ
                                   26051              Ÿ        FIELDS NOT USED.  MAY BE CALLED WITH XSENTRY @R2.            Ÿ
                                   26052              Ÿ                                                                     Ÿ
                                   26053              Ÿ                                                                     Ÿ
                                                      ¾þþþþþþþþþþþþþþþþþþþþþþþþþþþþþþþþþþþþþþþþþþþþþþþþþþþþþþþþþþþþþþþþþþþþþ»
0000000                00000 00150 26054              SGVWA    RECORD BEGIN
 000000                            26062  1           SGVVAR     DS    XL(L'VPARM)
 000150                00150 00150 26063                       END
                                   26072              *
                                   26073              *
 004174 50E0 D000/9008_      00000 26074              SEGVALUE XPROC SGVWA
 USING  *,R7
 USING  SGVWA-(4+36),R8
 USING  VNENTRY,R6                 26125                       USING VNENTRY,R6
 00418E 4160 8028            00000 26134                       LA    R6,SGVVAR
                                   26135
 004192 4100 6000            00000 26136                       LA    R0,VNENTRY          COPY INPUT VARIABLE
 004196 4110 0150            00150 26137                       LA    R1,L'VPARM
 00419A 1831                       26138                       LR    R3,R1
 00419C 0E02                       26139                       MVCL  R0,R2
                                   26140
 00419E 9504 6020/4770_00020       26141                       IF    VNARRAY,BEGIN       IF ARRAY,,
 0041A6 4110 7437/4100_      045C5 26156  1                      TSEG  '*** Array ***'
 0041B8                            26174                       END
 0041B8 702E/47F0 706C_041B8 041A4 26178                       ELSEIF VNSTRING,BEGIN     IF STRING, ENCLOSE IN QUOTES
 0041C4 4110 7444/4100_      045D2 26202  1                      TSEG  ''''
 0041D6 4110 6026            00026 26220  1                      LA    R1,VNSTRLOC
 0041DA 4800 6024            00024 26221  1                      LH    R0,VNSTRLEN
 0041DE 41F0 B050/58E0_      00050 26222  1                      TSEG  (R1),(R0)
 0041E8 4110 7444/4100_      045D2 26246  1                      TSEG  ''''
 0041FA                            26264                       END
 0041FA 7070/47F0 708C 041FA 041C2 26268                       ELSE BEGIN
 0041FE 4120 6000            00000 26279  1                      LA    R2,VNENTRY
 004202 58E0 738A/0DEE       04518 26280  1                      VCALL MAKESTR
 004208 4110 6026            00026 26284  1                      LA    R1,VNSTRLOC
 00420C 4800 6024            00024 26285  1                      LH    R0,VNSTRLEN
 004210 41F0 B050/58E0_      00050 26286  1                      TSEG  (R1),(R0)
1VARS     (VARS9014) (12:59) (15MAR04) VARIABLE SEG (OUTPUT) ROUTINES                                                       Page  112
0Current Usings:  (VNENTRY,R6) (*,R7) (SGVWA-(4+36),R8) (CP,R11) (CV,R12)
0Loc    Object Code    Addr1 Addr2  Stmt Lv Lineno    Source Statement           (Hibal 5, Asmedit 3.3)  HLASM R4.0  2004/03/15 12.59
+___    ______ ____    _____ _____  ____ __ ______    ______ _________
000421A                            26310                       END
 00421A 4110 7445/4100_      045D3 26314                       TSEG  ' '
                                   26332
 00422C 18D8/9808 D004_            26333                       PEND  ,
 DROP   SGVWA-(4+36),R8
 DROP   *,R7
 DROP   VNENTRY,R6                 26358                       DROP  R6
1VARS     (VARS9014) (12:59) (15MAR04) VARIABLE SEG (OUTPUT) ROUTINES                                                       Page  113
0Current Usings:  (CP,R11) (CV,R12)
0Loc    Object Code    Addr1 Addr2  Stmt Lv Lineno    Source Statement           (Hibal 5, Asmedit 3.3)  HLASM R4.0  2004/03/15 12.59
+___    ______ ____    _____ _____  ____ __ ______    ______ _________
0                                  26366              ¿þþþþþþþþþþþþþþþþþþþþþþþþþþþþþþþþþþþþþþþþþþþþþþþþþþþþþþþþþþþþþþþþþþþþþÜ
                                   26367              Ÿ                                                                     Ÿ
                                   26368              Ÿ                                                                     Ÿ
                                   26369              Ÿ  SEGELEM - SEG ELEMENT NAME, VALUE                                  Ÿ
                                   26370              Ÿ                                                                     Ÿ
                                   26371              Ÿ  ON ENTRY:                                                          Ÿ
                                   26372              Ÿ       R0 - ARRAY ENTRY                                              Ÿ
                                   26373              Ÿ            (CONTAINS ARRAY DIMENTSIONS, ETC)                        Ÿ
                                   26374              Ÿ       R2 - ELEMENT ENTRY                                            Ÿ
                                   26375              Ÿ            (CONTAINS NAME, SUBSCRIPTS, TYPE AND VALUE)              Ÿ
                                   26376              Ÿ            (NAME NOT IN INTERNAL FORMAT (*-FORMAT),                 Ÿ
                                   26377              Ÿ             SUBSCRIPTS IN VNDESC(RIPTOR))                           Ÿ
                                   26378              Ÿ  ON EXIT:                                                           Ÿ
                                   26379              Ÿ      R15 - CC=ZERO, IF OK                                           Ÿ
                                   26380              Ÿ            CC=NZ, IF ATTN HIT                                       Ÿ
                                   26381              Ÿ                                                                     Ÿ
                                   26382              Ÿ                                                                     Ÿ
                                                      ¾þþþþþþþþþþþþþþþþþþþþþþþþþþþþþþþþþþþþþþþþþþþþþþþþþþþþþþþþþþþþþþþþþþþþþ»
000423A 50E0 D000/9008_      00000 26383              SEGELEM  PROC  ,
 USING  *,R7
 USING  VNENTRY,R6                 26422                       USING VNENTRY,R6
 004254 1860                       26431                       LR    R6,R0               VNENTRY - ARRAY ENTRY
 004256 1852                       26432                       LR    R5,R2               R5 - ELEMENT ENTRY
                                   26433
                                   26434                       COMMENT                   SEG ARRAY NAME
 004258 1825                       26435                       LR    R2,R5
 00425A 58E0 7298/0DEE       044EC 26436                       ACALL SEGVNAME
                                   26440
                                   26441                       COMMENT                   SEG ELEMENT SUBSCRIPTS
 004260 4110 7380/4100_      045D4 26442                       TSEG  '['
 004272 4835 0012            00012 26460                       LH    R3,VNASUB1-VNENTRY(R5)
 004276 1813/1B00/41F0_            26461                       TNUM  (R3)
 004284 D501 7248 6034_0449C 00034 26483                       IF    (VNADIM2,NE,0),BEGIN
 00428E 4110 7381/4100_      045D5 26501  1                      TSEG  ','
 0042A0 4835 0014            00014 26519  1                      LH    R3,VNASUB2-VNENTRY(R5)
 0042A4 1813/1B00/41F0_            26520  1                      TNUM  (R3)
 0042B2                            26542                       END
 0042B2 D501 7248 6036_0449C 00036 26546                       IF    (VNADIM3,NE,0),BEGIN
 0042BC 4110 7381/4100_      045D5 26564  1                      TSEG  ','
 0042CE 4835 0016            00016 26582  1                      LH    R3,VNASUB3-VNENTRY(R5)
 0042D2 1813/1B00/41F0_            26583  1                      TNUM  (R3)
 0042E0                            26605                       END
 0042E0 4110 7382/4100_      045D6 26609                       TSEG  ']'
                                   26627
                                   26628                       COMMENT                   SEG ELEMENT VALUE
 0042F2 4110 736E/4100_      045C2 26629                       TSEG  ' = '
 004304 1825                       26647                       LR    R2,R5
 004306 58E0 72AC/0DEE       04500 26648                       ACALL SEGVALUE
                                   26652
 00430C 18D8/9808 D004_            26653                       PEND  ,
 DROP   *,R7
 DROP   VNENTRY,R6                 26673                       DROP  R6
1VARS     (VARS9014) (12:59) (15MAR04) ERROR ROUTINES                                                                       Page  114
0Current Usings:  (CP,R11) (CV,R12)
0Loc    Object Code    Addr1 Addr2  Stmt Lv Lineno    Source Statement           (Hibal 5, Asmedit 3.3)  HLASM R4.0  2004/03/15 12.59
+___    ______ ____    _____ _____  ____ __ ______    ______ _________
0                                  26681              ¿þþþþþþþþþþþþþþþþþþþþþþþþþþþþþþþþþþþþþþþþþþþþþþþþþþþþþþþþþþþþþþþþþþþþþÜ
                                   26682              Ÿ                                                                     Ÿ
                                   26683              Ÿ                                                                     Ÿ
                                   26684              Ÿ  BADSUB - TSEG (OUTPUT) BAD SUBSCRIPT MESSAGE                       Ÿ
                                   26685              Ÿ                                                                     Ÿ
                                   26686              Ÿ  ON ENTRY:                                                          Ÿ
                                   26687              Ÿ       R2 - VARIABLE (ARRAY) NAME.  SEE VNENTRY DSECT.               Ÿ
                                   26688              Ÿ       R3 - SUBSCRIPT NUMBER (L TO R)                                Ÿ
                                   26689              Ÿ                                                                     Ÿ
                                   26690              Ÿ  ON EXIT:                                                           Ÿ
                                   26691              Ÿ       R15 - CC=NZ                                                   Ÿ
                                   26692              Ÿ       ERROR MESSAGE TSEG'D                                          Ÿ
                                   26693              Ÿ                                                                     Ÿ
                                   26694              Ÿ                                                                     Ÿ
                                   26695              Ÿ                                                                     Ÿ
                                                      ¾þþþþþþþþþþþþþþþþþþþþþþþþþþþþþþþþþþþþþþþþþþþþþþþþþþþþþþþþþþþþþþþþþþþþþ»
000431A 50E0 D000/9008_      00000 26696              BADSUB   PROC  ,
 USING  *,R7
 004334 D603 B05C B05C_0005C 0005C 26735                       TCCR
 004354 4110 72A3/4100_      045D7 26797                       TSEG  'Subscript #'
 004366 1813/1B00/41F0_            26815                       TNUM  (R3)
 004374 4110 71F0/4100_      04524 26837                       TSEG  ' of '
 004386 58E0 71B8/0DEE       044EC 26855                       ACALL SEGVNAME
 00438C 4110 71F4/4100_      04528 26859                       TSEG  ' is invalid.'
 00439E 41F0 0004            00004 26877                       LA    R15,4
 0043A2 18D8/9808 D004_            26878                       PEND  ,
 DROP   *,R7
1VARS     (VARS9014) (12:59) (15MAR04) ERROR ROUTINES                                                                       Page  115
0Current Usings:  (CP,R11) (CV,R12)
0Loc    Object Code    Addr1 Addr2  Stmt Lv Lineno    Source Statement           (Hibal 5, Asmedit 3.3)  HLASM R4.0  2004/03/15 12.59
+___    ______ ____    _____ _____  ____ __ ______    ______ _________
0                                  26899              ¿þþþþþþþþþþþþþþþþþþþþþþþþþþþþþþþþþþþþþþþþþþþþþþþþþþþþþþþþþþþþþþþþþþþþþÜ
                                   26900              Ÿ                                                                     Ÿ
                                   26901              Ÿ                                                                     Ÿ
                                   26902              Ÿ  SMALLSUB - TSEG (OUTPUT) ERROR MESSAGE                             Ÿ
                                   26903              Ÿ                                                                     Ÿ
                                   26904              Ÿ  ON ENTRY:                                                          Ÿ
                                   26905              Ÿ       R2 - VARIABLE (ARRAY) NAME.  SEE VNENTRY DSECT.               Ÿ
                                   26906              Ÿ       R3 - SUBSCRIPT NUMBER (L TO R)                                Ÿ
                                   26907              Ÿ                                                                     Ÿ
                                   26908              Ÿ  ON EXIT:                                                           Ÿ
                                   26909              Ÿ       R15 - CC=NZ                                                   Ÿ
                                   26910              Ÿ       ERROR MSG TSEG'D                                              Ÿ
                                   26911              Ÿ                                                                     Ÿ
                                   26912              Ÿ                                                                     Ÿ
                                                      ¾þþþþþþþþþþþþþþþþþþþþþþþþþþþþþþþþþþþþþþþþþþþþþþþþþþþþþþþþþþþþþþþþþþþþþ»
00043B0 50E0 D000/9008_      00000 26913              SMALLSUB PROC  ,
 USING  *,R7
 0043CA 4110 7174/4100_      0453E 26952                       TSEG  'Array subscripts must be > 0. '
 0043DC 58E0 716A/0DEE       04534 26970                       ACALL BADSUB
 0043E2 41F0 0004            00004 26974                       LA    R15,4
 0043E6 18D8/9808 D004_            26975                       PEND  ,
 DROP   *,R7
1VARS     (VARS9014) (12:59) (15MAR04) ERROR ROUTINES                                                                       Page  116
0Current Usings:  (CP,R11) (CV,R12)
0Loc    Object Code    Addr1 Addr2  Stmt Lv Lineno    Source Statement           (Hibal 5, Asmedit 3.3)  HLASM R4.0  2004/03/15 12.59
+___    ______ ____    _____ _____  ____ __ ______    ______ _________
0                                  26996              ¿þþþþþþþþþþþþþþþþþþþþþþþþþþþþþþþþþþþþþþþþþþþþþþþþþþþþþþþþþþþþþþþþþþþþþÜ
                                   26997              Ÿ                                                                     Ÿ
                                   26998              Ÿ                                                                     Ÿ
                                   26999              Ÿ  BIGSUB - TSEG (OUTPUT) ERROR MESSAGE                               Ÿ
                                   27000              Ÿ                                                                     Ÿ
                                   27001              Ÿ  ON ENTRY:                                                          Ÿ
                                   27002              Ÿ       R2 - VARIABLE (ARRAY) NAME.  SEE VNENTRY DSECT.               Ÿ
                                   27003              Ÿ       R3 - SUBSCRIPT NUMBER (L TO R)                                Ÿ
                                   27004              Ÿ                                                                     Ÿ
                                   27005              Ÿ  ON EXIT:                                                           Ÿ
                                   27006              Ÿ       R15 - CC=NZ                                                   Ÿ
                                   27007              Ÿ       ERROR MSG TSEG'D                                              Ÿ
                                   27008              Ÿ                                                                     Ÿ
                                   27009              Ÿ                                                                     Ÿ
                                                      ¾þþþþþþþþþþþþþþþþþþþþþþþþþþþþþþþþþþþþþþþþþþþþþþþþþþþþþþþþþþþþþþþþþþþþþ»
00043F4 50E0 D000/9008_      00000 27010              BIGSUB   PROC  ,
 USING  *,R7
 00440E 4110 71D4/4100_      045E2 27049                       TSEG  'Subscript too big. '
 004420 58E0 7126/0DEE       04534 27067                       ACALL BADSUB
 004426 41F0 0004            00004 27071                       LA    R15,4
 00442A 18D8/9808 D004_            27072                       PEND  ,
 DROP   *,R7
1VARS     (VARS9014) (12:59) (15MAR04) ERROR ROUTINES                                                                       Page  117
0Current Usings:  (CP,R11) (CV,R12)
0Loc    Object Code    Addr1 Addr2  Stmt Lv Lineno    Source Statement           (Hibal 5, Asmedit 3.3)  HLASM R4.0  2004/03/15 12.59
+___    ______ ____    _____ _____  ____ __ ______    ______ _________
0                                  27093              ¿þþþþþþþþþþþþþþþþþþþþþþþþþþþþþþþþþþþþþþþþþþþþþþþþþþþþþþþþþþþþþþþþþþþþþÜ
                                   27094              Ÿ                                                                     Ÿ
                                   27095              Ÿ                                                                     Ÿ
                                   27096              Ÿ  BADDIM - TSEG (OUTPUT) ERROR MESSAGE                               Ÿ
                                   27097              Ÿ                                                                     Ÿ
                                   27098              Ÿ  ON ENTRY:                                                          Ÿ
                                   27099              Ÿ       R2 - VARIABLE (ARRAY) NAME.  SEE VNENTRY DSECT.               Ÿ
                                   27100              Ÿ                                                                     Ÿ
                                   27101              Ÿ  ON EXIT:                                                           Ÿ
                                   27102              Ÿ       R15 - CC=NZ                                                   Ÿ
                                   27103              Ÿ       ERROR MSG TSEG'D                                              Ÿ
                                   27104              Ÿ                                                                     Ÿ
                                   27105              Ÿ                                                                     Ÿ
                                                      ¾þþþþþþþþþþþþþþþþþþþþþþþþþþþþþþþþþþþþþþþþþþþþþþþþþþþþþþþþþþþþþþþþþþþþþ»
0004438 50E0 D000/9008_      00000 27106              BADDIM   PROC  ,
 USING  *,R7
 004452 D603 B05C B05C_0005C 0005C 27145                       TCCR
 004472 58E0 709A/0DEE       044EC 27207                       ACALL SEGVNAME
 004478 4110 710A/4100_      0455C 27211                       TSEG  ': array dimensions do not match DECLARED dimensions.  '
 00448A 41F0 0004            00004 27229                       LA    R15,4
 00448E 18D8/9808 D004_            27230                       PEND  ,
 DROP   *,R7
1VARS     (VARS9014) (12:59) (15MAR04) ERROR ROUTINES                                                                       Page  118
0Current Usings:  (CP,R11) (CV,R12)
0Loc    Object Code    Addr1 Addr2  Stmt Lv Lineno    Source Statement           (Hibal 5, Asmedit 3.3)  HLASM R4.0  2004/03/15 12.59
+___    ______ ____    _____ _____  ____ __ ______    ______ _________
0                                  27251                       QLTORG
-
                                   27317                       VLTORG
 0046B8                046B8 046B8 27330                       END   .

1VARS     (VARS9014) (12:59) (15MAR04) Relocation Dictionary                                                                Page  119
-   Pos.Id   Rel.Id   Flags    Address                                                       HLASM R4.0  2004/03/15 12.59
0  00000001 00000001    0C    00000480
   00000001 00000001    0C    000004A8
   00000001 00000001    0C    000004D0
   00000001 00000001    0C    000004F8
   00000001 00000001    0C    00000520
   00000001 00000001    0C    00000548
   00000001 00000001    0C    00000570
   00000001 00000001    0C    00000598
   00000001 00000001    08    00000741
   00000001 00000001    0C    00000960
   00000001 00000001    0C    00000964
   00000001 00000001    0C    00000974
   00000001 00000001    0C    00000984
   00000001 00000001    0C    000009A8
   00000001 00000001    0C    000009AC
   00000001 00000001    0C    000009B0
   00000001 00000001    0C    000009B4
   00000001 00000001    0C    000009B8
   00000001 00000001    0C    000009BC
   00000001 00000001    0C    00001070
   00000001 00000001    0C    00001098
   00000001 00000001    0C    000010C0
   00000001 00000001    0C    000010E8
   00000001 00000001    0C    00001524
   00000001 00000001    0C    00001528
   00000001 00000001    0C    0000152C
   00000001 00000001    0C    0000153C
   00000001 00000001    0C    0000154C
   00000001 00000001    0C    0000155C
   00000001 00000001    0C    00001560
   00000001 00000001    0C    00001568
   00000001 00000001    0C    00001AA4
   00000001 00000001    0C    00001ACC
   00000001 00000001    0C    00001AF4
   00000001 00000001    0C    00001B1C
   00000001 00000001    0C    00001DAC
   00000001 00000001    0C    00001DBC
   00000001 00000001    0C    00001DC8
   00000001 00000001    0C    00001DCC
   00000001 00000001    0C    00001DE0
   00000001 00000001    0C    00002E38
   00000001 00000001    0C    00002E3C
   00000001 00000001    0C    00002E40
   00000001 00000001    0C    00002E44
   00000001 00000001    0C    00002E48
   00000001 00000001    0C    00002E4C
   00000001 00000001    0C    00002E5C
   00000001 00000001    0C    00002E64
   00000001 00000001    0C    00002E68
   00000001 00000001    0C    00002E6C
   00000001 00000001    0C    00002E70
   00000001 00000001    0C    00002E9C
   00000001 00000001    0C    00002EA0
   00000001 00000001    0C    00002EA4
   00000001 00000001    0C    00002EA8
1VARS     (VARS9014) (12:59) (15MAR04) Relocation Dictionary                                                                Page  120
   00000001 00000001    08    00003067
   00000001 00000001    0C    0000382C
   00000001 00000001    0C    00003830
   00000001 00000001    0C    00003848
   00000001 00000001    0C    00003854
   00000001 00000001    0C    0000385C
   00000001 00000001    0C    00003860
   00000001 00000001    0C    00003874
   00000001 00000001    0C    00003878
   00000001 00000001    08    00003AD3
   00000001 00000001    08    00003B4F
   00000001 00000001    08    00003BF5
   00000001 00000001    0C    000044B8
   00000001 00000001    0C    000044EC
   00000001 00000001    0C    000044F4
   00000001 00000001    0C    00004500
   00000001 00000001    0C    00004534
   00000001 00000002    1C    0000047C
   00000001 00000002    1C    000004A4
   00000001 00000002    1C    000004CC
   00000001 00000002    1C    000004F4
   00000001 00000002    1C    0000051C
   00000001 00000002    1C    00000544
   00000001 00000002    1C    0000056C
   00000001 00000002    1C    00001B18
   00000001 00000003    1C    00000594
   00000001 00000003    1C    00001134
   00000001 00000003    1C    00001B68
   00000001 00000004    1C    00000968
   00000001 00000004    1C    00001518
   00000001 00000004    1C    00001DC0
   00000001 00000004    1C    000044F8
   00000001 00000005    1C    0000096C
   00000001 00000005    1C    0000151C
   00000001 00000005    1C    00001DC4
   00000001 00000006    1C    00000970
   00000001 00000007    1C    0000097C
   00000001 00000007    1C    00001520
   00000001 00000007    1C    00001DDC
   00000001 00000007    1C    00002E98
   00000001 00000007    1C    00003844
   00000001 00000007    1C    000044E4
   00000001 00000008    1C    0000106C
   00000001 00000008    1C    00001094
   00000001 00000008    1C    000010BC
   00000001 00000008    1C    000010E4
   00000001 00000009    1C    00001110
   00000001 00000009    1C    00001B44
   00000001 0000000A    1C    00001138
   00000001 0000000A    1C    00001B6C
   00000001 0000000B    1C    000014E8
   00000001 0000000C    1C    00001514
   00000001 0000000D    1C    00001530
   00000001 0000000D    1C    00003864
   00000001 0000000E    1C    00001540
   00000001 0000000E    1C    00002E50
   00000001 0000000E    1C    00003820
   00000001 0000000E    1C    000044CC
   00000001 0000000F    1C    00001544
1VARS     (VARS9014) (12:59) (15MAR04) Relocation Dictionary                                                                Page  121
   00000001 00000010    1C    00001550
   00000001 00000010    1C    00001DB4
   00000001 00000010    1C    00004520
   00000001 00000011    1C    00001554
   00000001 00000012    1C    00001558
   00000001 00000013    1C    000015AC
   00000001 00000014    1C    00001AA0
   00000001 00000014    1C    00001AC8
   00000001 00000014    1C    00001AF0
   00000001 00000015    1C    00001DA0
   00000001 00000015    1C    000044DC
   00000001 00000016    1C    00001DA4
   00000001 00000016    1C    00004514
   00000001 00000017    1C    00001DA8
   00000001 00000018    1C    00001DB0
   00000001 00000019    1C    00002E54
   00000001 00000019    1C    00003824
   00000001 0000001A    1C    00002E60
   00000001 0000001B    1C    00002EAC
   00000001 0000001B    1C    00003838
   00000001 0000001C    1C    00002EB0
   00000001 0000001C    1C    0000383C
   00000001 0000001C    1C    00004518
   00000001 0000001D    1C    00002EB4
   00000001 0000001D    1C    00003840
   00000001 0000001E    1C    00002EB8
   00000001 0000001F    1C    00002EC8
   00000001 0000001F    1C    00003828
   00000001 0000001F    1C    000044D8
   00000001 00000020    1C    00003850
   00000001 00000021    1C    000044A0
   00000001 00000022    1C    000044BC
   00000001 00000023    1C    000044C4
   00000001 00000024    1C    0000451C

1VARS     (VARS9014) (12:59) (15MAR04) Ordinary Symbol and Literal Cross Reference                                          Page  122
-Symbol   Length   Value     Id    R Type   Defn References                                  HLASM R4.0  2004/03/15 12.59
0$$$@R0        1 00000000 FFFFFFFE     J     705  1007
 $$$@R10       1 00000000 FFFFFFF4     J     835  1071
 $$$@R11       1 00000000 FFFFFFF3     J     848  1084
 $$$@R12       1 00000000 FFFFFFF2     J     861  1097
 $$$@R13       1 00000000 FFFFFFF1     J     874  1110
 $$$@R14       1 00000000 FFFFFFF0     J     887  1123
 $$$@R7        1 00000000 FFFFFFF7     J     796  1020
 $$$@R8        1 00000000 FFFFFFF6     J     809  1033   1045
 $$$@R9        1 00000000 FFFFFFF5     J     822  1058
 $$$C1WYLVARS
               1 00000B0F 00000001     J    9537  9539   9578  10492  10889  11496  11535  11667  11799
 $$$C2WYLVARS
               1 000016F2 00000001     J   12744 12746  12787
 $$$C3WYLVARS
               1 00001E76 00000001     J   14642 14644  15403  16302
 $$$C4WYLVARS
               1 00002FCF 00000001     J   19789 19791  20291  20595  21032  22011
 $$$C5WYLVARS
               1 00003970 00000001     J   22791 22793  22977  23113  24513  26070
 $$$C6WYLVARS
               1 00004602 00000001     J   27311 27313
 $$$C7WYLVARS
               1 000046B8 00000001     J   27333 27335
 $$$D1WYLVARS
               1 000016DA 00000001     J    9538 11485  11524  11656  11788
 $$$D5WYLVARS
               1 000045F5 00000001     J   22792 22966  23102
 $$$RCKSWA
               1 00000000 FFFFFFDB     J   21990 22010  22010
 $$$RCP        1 00000000 FFFFFFEC     J    2454  4714   6188   6188
 $$$RCV        1 00000000 FFFFFFEE     J    1179  2364   2364
 $$$RDCLWA
               1 00000000 FFFFFFE6     J    7061  7097   7097
 $$$RDEV       1 00000000 FFFFFFEB     J    4668  4713   4713
 $$$RDXWA      1 00000000 FFFFFFE5     J    8824  8845   8845
 $$$RGSVWA
               1 00000000 FFFFFFE0     J   15387 15402  15402
 $$$RGSWA      1 00000000 FFFFFFDC     J   21016 21031  21031
 $$$RGYWA      1 00000000 FFFFFFDE     J   20274 20290  20290
 $$$RJCB       1 00000000 FFFFFFE9     J    6306  6580   6580
 $$$RNSCNCB
               1 00000000 FFFFFFED     J    2375  2448   2448
 $$$RSGVWA
               1 00000000 FFFFFFD9     J   26056 26069  26069
 $$$RSHVWA
               1 00000000 FFFFFFE3     J   10478 10491  10491
 $$$RSHYWA
               1 00000000 FFFFFFE1     J   12759 12786  12786
 $$$RSTVWA
               1 00000000 FFFFFFE4     J    9563  9577   9577
 $$$RSVRWA
               1 00000000 FFFFFFE2     J   10869 10888  10888
 $$$RSVWA      1 00000000 FFFFFFDF     J   16285 16301  16301
 $$$RSYWA      1 00000000 FFFFFFDD     J   20578 20594  20594
 $$$RTTYPE
1VARS     (VARS9014) (12:59) (15MAR04) Ordinary Symbol and Literal Cross Reference                                          Page  123
               1 00000000 FFFFFFEA     J    6199  6300   6300
 $$$RVARWA
               1 00000000 FFFFFFDA     J   24499 24512  24512
 $$$RVNENTRY
               1 00000000 FFFFFFE8     J    6617  6916   6916
 $$$RVPARM
               1 00000000 FFFFFFE7     J    6946  6960   6960
 $$$SEGCB0
               4 00000050 FFFFFFEC     F    2485  2571   2571
 $$$V01       26 00004602 00000001     C   27323  9021
 $$$V02       35 0000461C 00000001     C   27324 19980
 $$$V03       29 0000463F 00000001     C   27325 23463
 $$$V04       45 0000465C 00000001     C   27326 23676
 $$$V05       42 00004689 00000001     C   27327 23977
 $$$Z0         4 00000920 00000001     F    9504  7885   7912   8014   8041   8143   8170   8276   8303   9180   9251
                                                  9352
 $$$Z2         4 00001D70 00000001     F   14614 13221  13343  13496  14318  14371
 $$$Z3         4 00002CC0 00000001     F   19703 14745  15902  15955  16008  16114  16167  16206  16394  17151  17736
                                                 18325  18980
 $$$Z4         4 00003808 00000001     F   22758 20372  20675  22173  22199  22214  22243  22258  22285  22313  22328
                                                 22357  22372
 $$$Z5         4 0000449C 00000001     F   27257 26495  26558
 $$$100F       2 000003DE 00000001     H    8190  8125B
 $$$100S       2 000003A4 00000001     H    8116  8189B
 $$$102F       2 000003C2 00000001     H    8157  8144B
 $$$103F       2 000003D6 00000001     H    8184  8171B
 $$$104B       4 000003E6 00000001     I    8216  8332
 $$$104E       2 000003E2 00000001     H    8207  8201
 $$$104F       2 00000440 00000001     H    8327  8203B  8216B  8331
 $$$106F       2 00000440 00000001     H    8323  8258B
 $$$106S       2 00000406 00000001     H    8249  8322B
 $$$108F       2 00000424 00000001     H    8290  8277B
 $$$109F       2 00000438 00000001     H    8317  8304B
 $$$110E       2 00000444 00000001     H    8339  8333
 $$$110F       2 00000446 00000001     H    8346  8335B
 $$$111        1 00000324 00000001 A   U    8375  8372   8374
 $$$113B       1 000005B6 00000001     X    8524  8531U
 $$$114        1 00000050 00000001 A   U    8564  8561   8563
 $$$116B       1 000005E6 00000001     X    8591  8598U
 $$$117        1 00000050 00000001 A   U    8631  8628   8630
 $$$119B       1 00000616 00000001     X    8658  8665U
 $$$120        1 00000050 00000001 A   U    8698  8695   8697
 $$$122B       1 00000646 00000001     X    8725  8732U
 $$$123        1 00000050 00000001 A   U    8789  8786   8788
 $$$125B       1 00000684 00000001     X    8875  8882U
 $$$126F       2 00000744 00000001     H    9025  9010B
 $$$127B       4 0000074C 00000001     I    9037  9056
 $$$127F       2 00000758 00000001     H    9052  9037B  9055
 $$$128B       4 00000760 00000001     I    9072  9091
 $$$128E       2 0000075C 00000001     H    9063  9057
 $$$128F       2 0000076C 00000001     H    9087  9059B  9072B  9090
 $$$130B       4 00000774 00000001     I    9107  9125
 $$$130E       2 00000770 00000001     H    9098  9092
 $$$130F       2 00000780 00000001     H    9122  9094B  9107B  9124
 $$$132E       2 00000784 00000001     H    9132  9126
 $$$132F       2 00000786 00000001     H    9139  9128B
 $$$133B       4 000007C8 00000001     I    9181  9233
 $$$133F       2 00000808 00000001     H    9227  9181B  9232
 $$$134F       2 00000808 00000001     H    9223  9202B
1VARS     (VARS9014) (12:59) (15MAR04) Ordinary Symbol and Literal Cross Reference                                          Page  124
 $$$134S       2 000007D2 00000001     H    9192  9222B
 $$$136B       4 00000812 00000001     I    9252  9334
 $$$136E       2 0000080C 00000001     H    9240  9234
 $$$136F       2 00000878 00000001     H    9328  9236B  9252B  9333
 $$$138F       2 00000878 00000001     H    9324  9273B
 $$$138S       2 0000081C 00000001     H    9263  9323B
 $$$140F       2 00000868 00000001     H    9316  9294B
 $$$140S       2 0000082C 00000001     H    9284  9315B
 $$$142E       2 0000087C 00000001     H    9341  9335
 $$$142F       2 0000090E 00000001     H    9459  9337B  9353B
 $$$144F       2 0000090E 00000001     H    9455  9374B
 $$$144S       2 0000088C 00000001     H    9364  9454B
 $$$146F       2 000008FE 00000001     H    9447  9395B
 $$$146S       2 0000089C 00000001     H    9385  9446B
 $$$148F       2 000008EE 00000001     H    9439  9416B
 $$$148S       2 000008AC 00000001     H    9406  9438B
 $$$150        1 0000044C 00000001 A   U    9487  9484   9486
 $$$152B       1 00000B2A 00000001     X    9608  9615U
 $$$153F       2 00000B76 00000001     H    9709  9684B  9695B
 $$$153S       2 00000B5E 00000001     H    9674  9708B
 $$$156F       2 00000B8E 00000001     H    9752  9727B  9738B
 $$$156S       2 00000B76 00000001     H    9717  9751B
 $$$159F       2 00000BA8 00000001     H    9792  9766B  9777B
 $$$161F       2 00000BBC 00000001     H    9830  9806B  9817B
 $$$163F       2 00000BDA 00000001     H    9862  9847B
 $$$164F       2 00000C58 00000001     H    9967  9928B
 $$$165        1 000002F0 00000001 A   U   10006 10003  10005
 $$$167B       1 00000C9C 00000001     X   10060 10067U
 $$$168F       2 00000CEA 00000001     H   10156 10123B
 $$$169F       2 00000D10 00000001     H   10206 10181B 10192B
 $$$169S       2 00000CF8 00000001     H   10171 10205B
 $$$172F       2 00000D28 00000001     H   10249 10224B 10235B
 $$$172S       2 00000D10 00000001     H   10214 10248B
 $$$175F       2 00000D3C 00000001     H   10287 10263B 10274B
 $$$177F       2 00000D5A 00000001     H   10319 10304B
 $$$178F       2 00000DD8 00000001     H   10424 10385B
 $$$179        1 000002F0 00000001 A   U   10463 10460  10462
 $$$181B       1 00000E1C 00000001     X   10522 10529U
 $$$182F       2 00000E68 00000001     H   10645 10591B
 $$$182S       2 00000E3A 00000001     H   10585 10644B
 $$$184F       2 00000E5E 00000001     H   10636 10612B 10625B
 $$$186F       2 00000E72 00000001     H   10667 10658B
 $$$187F       2 00000EAC 00000001     H   10729 10679B 10692B
 $$$189F       2 00000EC0 00000001     H   10757 10742B
 $$$190F       2 00000EE2 00000001     H   10818 10770B
 $$$191F       2 00000EE2 00000001     H   10814 10786B 10799B
 $$$193        1 000001A0 00000001 A   U   10848 10845  10847
 $$$195B       1 00000F10 00000001     X   10919 10926U
 $$$196F       2 00001038 00000001     H   11177 11066B 11081B
 $$$196S       2 00000FD8 00000001     H   11061 11176B
 $$$199B       4 00000FEC 00000001     I   11093 11121
 $$$199F       2 00001000 00000001     H   11118 11093B 11120
 $$$200F       2 00001000 00000001     H   11114 11105B
 $$$201E       2 00001004 00000001     H   11128 11122
 $$$201F       2 0000101E 00000001     H   11164 11124B
 $$$202        1 000002E8 00000001 A   U   11203 11200  11202
 $$$204B       1 00001156 00000001     X   11327 11334U
 $$$205        1 00000050 00000001 A   U   11391 11388  11390
 $$$207B       1 00001198 00000001     X   11420 11427U
1VARS     (VARS9014) (12:59) (15MAR04) Ordinary Symbol and Literal Cross Reference                                          Page  125
 $$$208F       2 000011BE 00000001     H   11501 11477B
 $$$209        6 000016DA 00000001     I   11491 11483X
 $$$210        6 000016DA 00000001     I   11490 11491  11491
 $$$211F       2 000011CC 00000001     H   11540 11516B
 $$$212        6 000016E0 00000001     I   11530 11522X
 $$$213        6 000016E0 00000001     I   11529 11530  11530
 $$$214        1 00000050 00000001 A   U   11562 11559  11561
 $$$216B       1 000011F6 00000001     X   11591 11598U
 $$$217F       2 0000121C 00000001     H   11672 11648B
 $$$218        6 000016E6 00000001     I   11662 11654X
 $$$219        6 000016E6 00000001     I   11661 11662  11662
 $$$220        1 00000050 00000001 A   U   11694 11691  11693
 $$$222B       1 00001246 00000001     X   11723 11730U
 $$$223F       2 0000126C 00000001     H   11804 11780B
 $$$224        6 000016EC 00000001     I   11794 11786X
 $$$225        6 000016EC 00000001     I   11793 11794  11794
 $$$226        1 00000050 00000001 A   U   11826 11823  11825
 $$$228B       1 00001296 00000001     X   11860 11867U
 $$$229B       4 000012AE 00000001     I   11914 11967
 $$$229F       2 000012D6 00000001     H   11961 11914B 11966
 $$$230F       2 000012C8 00000001     H   11946 11931B
 $$$231B       4 000012E0 00000001     I   11984 12006
 $$$231E       2 000012DA 00000001     H   11974 11968
 $$$231F       2 000012F0 00000001     H   12000 11970B 11984B 12005
 $$$233B       4 000012FA 00000001     I   12023 12044
 $$$233E       2 000012F4 00000001     H   12013 12007
 $$$233F       2 0000130A 00000001     H   12038 12009B 12023B 12043
 $$$235B       4 00001314 00000001     I   12061 12085
 $$$235E       2 0000130E 00000001     H   12051 12045
 $$$235F       2 0000132C 00000001     H   12079 12047B 12061B 12084
 $$$237B       4 00001336 00000001     I   12102 12127
 $$$237E       2 00001330 00000001     H   12092 12086
 $$$237F       2 0000134E 00000001     H   12120 12088B 12102B 12126
 $$$239E       2 00001352 00000001     H   12134 12128
 $$$239F       2 000013AA 00000001     H   12256 12130B 12159B
 $$$239T       2 00001366 00000001     H   12162 12148B
 $$$242F       2 00001372 00000001     H   12183 12174B
 $$$243F       2 0000138A 00000001     H   12207 12197B
 $$$244F       2 000013AA 00000001     H   12252 12237B
 $$$244T       2 0000139E 00000001     H   12240 12224B
 $$$246        1 00000050 00000001 A   U   12275 12272  12274
 $$$248B       1 000013D2 00000001     X   12310 12317U
 $$$249B       4 000013E2 00000001     I   12356 12413
 $$$249F       2 00001412 00000001     H   12405 12343B 12356B 12410
 $$$250B       4 000013D8 00000001     I   12343 12411
 $$$251F       2 000013FC 00000001     H   12388 12373B
 $$$252B       4 00001424 00000001     I   12446 12472
 $$$252E       2 00001416 00000001     H   12420 12412  12414
 $$$252F       2 0000143C 00000001     H   12464 12416B 12433B 12446B 12469
 $$$254B       4 0000141A 00000001     I   12433 12470
 $$$255B       4 0000144E 00000001     I   12505 12528
 $$$255E       2 00001440 00000001     H   12479 12471  12473
 $$$255F       2 0000145E 00000001     H   12520 12475B 12492B 12505B 12525
 $$$257B       4 00001444 00000001     I   12492 12526
 $$$258B       4 00001470 00000001     I   12561 12589
 $$$258E       2 00001462 00000001     H   12535 12527  12529
 $$$258F       2 00001490 00000001     H   12581 12531B 12548B 12561B 12586
 $$$260B       4 00001466 00000001     I   12548 12587
 $$$261E       2 00001494 00000001     H   12596 12588  12590
1VARS     (VARS9014) (12:59) (15MAR04) Ordinary Symbol and Literal Cross Reference                                          Page  126
 $$$261F       2 000014C2 00000001     H   12642 12592B 12609B 12622B
 $$$264        1 00000050 00000001 A   U   12664 12661  12663
 $$$266B       1 0000170C 00000001     X   12817 12824U
 $$$267F       2 0000173C 00000001     H   12911 12896B
 $$$268F       2 0000175E 00000001     H   12963 12918B
 $$$269F       2 000017A2 00000001     H   13021 13002B
 $$$270F       2 000017BC 00000001     H   13051 13032B
 $$$271F       2 00001876 00000001     H   13157 13148B
 $$$272F       2 00001886 00000001     H   13180 13171B
 $$$273F       2 00001896 00000001     H   13203 13194B
 $$$274B       4 000018AE 00000001     I   13222 13325
 $$$274F       2 00001912 00000001     H   13319 13222B 13324
 $$$275F       2 00001912 00000001     H   13315 13243B
 $$$275S       2 000018B6 00000001     H   13233 13314B
 $$$277F       2 000018E4 00000001     H   13274 13264B
 $$$278B       4 0000191C 00000001     I   13344 13478
 $$$278E       2 00001916 00000001     H   13332 13326
 $$$278F       2 000019AC 00000001     H   13472 13328B 13344B 13477
 $$$280F       2 000019AC 00000001     H   13468 13366B
 $$$280S       2 0000192A 00000001     H   13356 13467B
 $$$282F       2 0000199C 00000001     H   13460 13387B
 $$$282S       2 0000193A 00000001     H   13377 13459B
 $$$284F       2 0000196E 00000001     H   13419 13409B
 $$$285E       2 000019B0 00000001     H   13485 13479
 $$$285F       2 00001A6C 00000001     H   13655 13481B 13497B
 $$$287F       2 00001A6C 00000001     H   13651 13519B
 $$$287S       2 000019C4 00000001     H   13509 13650B
 $$$289F       2 00001A5C 00000001     H   13643 13540B
 $$$289S       2 000019D4 00000001     H   13530 13642B
 $$$291F       2 00001A4C 00000001     H   13635 13561B
 $$$291S       2 000019E4 00000001     H   13551 13634B
 $$$293F       2 00001A1E 00000001     H   13594 13584B
 $$$294        1 0000030C 00000001 A   U   13684 13681  13683
 $$$296B       1 00001B8A 00000001     X   13808 13815U
 $$$297B       4 00001B90 00000001     I   13837 13850
 $$$297F       2 00001B98 00000001     H   13846 13837B 13849
 $$$298B       4 00001BA2 00000001     I   13869 13882
 $$$298E       2 00001B9C 00000001     H   13857 13851
 $$$298F       2 00001BAA 00000001     H   13878 13853B 13869B 13881
 $$$300E       2 00001BAE 00000001     H   13889 13883
 $$$300F       2 00001BBC 00000001     H   13910 13885B 13901B
 $$$302        1 00000050 00000001 A   U   13932 13929  13931
 $$$304B       1 00001BE6 00000001     X   13962 13969U
 $$$305B       4 00001BEC 00000001     I   13991 14004
 $$$305F       2 00001BF4 00000001     H   14000 13991B 14003
 $$$306B       4 00001BFE 00000001     I   14023 14036
 $$$306E       2 00001BF8 00000001     H   14011 14005
 $$$306F       2 00001C06 00000001     H   14032 14007B 14023B 14035
 $$$308E       2 00001C0A 00000001     H   14043 14037
 $$$308F       2 00001C18 00000001     H   14064 14039B 14055B
 $$$310        1 00000050 00000001 A   U   14086 14083  14085
 $$$312B       1 00001C42 00000001     X   14116 14123U
 $$$313B       4 00001C48 00000001     I   14145 14159
 $$$313F       2 00001C54 00000001     H   14155 14145B 14158
 $$$314B       4 00001C5E 00000001     I   14178 14192
 $$$314E       2 00001C58 00000001     H   14166 14160
 $$$314F       2 00001C6A 00000001     H   14188 14162B 14178B 14191
 $$$316E       2 00001C6E 00000001     H   14199 14193
 $$$316F       2 00001C80 00000001     H   14221 14195B 14211B
1VARS     (VARS9014) (12:59) (15MAR04) Ordinary Symbol and Literal Cross Reference                                          Page  127
 $$$318        1 00000050 00000001 A   U   14243 14240  14242
 $$$320B       1 00001CAA 00000001     X   14273 14280U
 $$$321B       4 00001CBA 00000001     I   14319 14336
 $$$321F       2 00001CCA 00000001     H   14330 14304B 14319B 14333
 $$$322B       4 00001CB0 00000001     I   14304 14334
 $$$323B       4 00001CDE 00000001     I   14372 14388
 $$$323E       2 00001CCE 00000001     H   14343 14335  14337
 $$$323F       2 00001CEE 00000001     H   14383 14339B 14357B 14372B 14385
 $$$325B       4 00001CD4 00000001     I   14357 14386
 $$$326E       2 00001CF2 00000001     H   14395 14387  14389
 $$$326F       2 00001D10 00000001     H   14425 14391B
 $$$327        1 00000050 00000001 A   U   14447 14444  14446
 $$$329B       1 00001D3A 00000001     X   14499 14506U
 $$$330B       4 00001D46 00000001     I   14548 14567
 $$$330F       2 00001D52 00000001     H   14564 14548B 14566
 $$$330T       2 00001D4A 00000001     H   14551 14538B
 $$$332E       2 00001D56 00000001     H   14574 14568
 $$$332F       2 00001D62 00000001     H   14586 14570B
 $$$333        1 00000050 00000001 A   U   14604 14601  14603
 $$$335B       1 00001E90 00000001     X   14705 14712U
 $$$336F       2 00001E9E 00000001     H   14756 14746B
 $$$337B       4 00001EA2 00000001     I   14772 14790
 $$$337F       2 00001EAC 00000001     H   14784 14772B 14789
 $$$338B       4 00001EB4 00000001     I   14806 14824
 $$$338E       2 00001EB0 00000001     H   14797 14791
 $$$338F       2 00001EBE 00000001     H   14818 14793B 14806B 14823
 $$$340B       4 00001EC6 00000001     I   14840 14858
 $$$340E       2 00001EC2 00000001     H   14831 14825
 $$$340F       2 00001ED0 00000001     H   14852 14827B 14840B 14857
 $$$342B       4 00001ED8 00000001     I   14874 14892
 $$$342E       2 00001ED4 00000001     H   14865 14859
 $$$342F       2 00001EE2 00000001     H   14886 14861B 14874B 14891
 $$$344B       4 00001EEA 00000001     I   14908 14926
 $$$344E       2 00001EE6 00000001     H   14899 14893
 $$$344F       2 00001EF4 00000001     H   14920 14895B 14908B 14925
 $$$346B       4 00001EFC 00000001     I   14942 14959
 $$$346E       2 00001EF8 00000001     H   14933 14927
 $$$346F       2 00001F06 00000001     H   14954 14929B 14942B 14958
 $$$348E       2 00001F0A 00000001     H   14966 14960
 $$$348F       2 00001F0C 00000001     H   14973 14962B
 $$$349        1 00000050 00000001 A   U   14992 14989  14991
 $$$351B       1 00001F34 00000001     X   15035 15042U
 $$$352        1 00000050 00000001 A   U   15090 15087  15089
 $$$354B       1 00001F7E 00000001     X   15140 15147U
 $$$355B       4 00001F86 00000001     I   15180 15215
 $$$355F       2 00001FAC 00000001     H   15210 15180B 15214
 $$$356E       2 00001FB0 00000001     H   15222 15216
 $$$356F       2 00001FB4 00000001     H   15228 15218B
 $$$357        1 00000050 00000001 A   U   15247 15244  15246
 $$$359B       1 00001FDC 00000001     X   15297 15304U
 $$$360        1 00000050 00000001 A   U   15359 15356  15358
 $$$362B       1 00002026 00000001     X   15433 15440U
 $$$363F       2 0000206C 00000001     H   15536 15487B
 $$$364F       2 0000206C 00000001     H   15532 15518B
 $$$365        1 000001A4 00000001 A   U   15560 15557  15559
 $$$367B       1 00002094 00000001     X   15610 15617U
 $$$368        1 00000050 00000001 A   U   15672 15669  15671
 $$$370B       1 000020DE 00000001     X   15722 15729U
 $$$371        1 00000050 00000001 A   U   15784 15781  15783
1VARS     (VARS9014) (12:59) (15MAR04) Ordinary Symbol and Literal Cross Reference                                          Page  128
 $$$373B       1 00002128 00000001     X   15845 15852U
 $$$374B       4 00002138 00000001     I   15903 15923
 $$$374F       2 00002142 00000001     H   15915 15888B 15903B 15920
 $$$375B       4 0000212E 00000001     I   15888 15921
 $$$376B       4 00002154 00000001     I   15956 15976
 $$$376E       2 00002146 00000001     H   15930 15922  15924
 $$$376F       2 0000215E 00000001     H   15968 15926B 15941B 15956B 15973
 $$$378B       4 0000214A 00000001     I   15941 15974
 $$$379B       4 00002170 00000001     I   16009 16029
 $$$379E       2 00002162 00000001     H   15983 15975  15977
 $$$379F       2 0000217A 00000001     H   16021 15979B 15994B 16009B 16026
 $$$381B       4 00002166 00000001     I   15994 16027
 $$$382B       4 00002182 00000001     I   16045 16082
 $$$382E       2 0000217E 00000001     H   16036 16028  16030
 $$$382F       2 000021A2 00000001     H   16076 16032B 16045B 16081
 $$$384B       4 000021B4 00000001     I   16115 16135
 $$$384E       2 000021A6 00000001     H   16089 16083
 $$$384F       2 000021BE 00000001     H   16127 16085B 16100B 16115B 16132
 $$$386B       4 000021AA 00000001     I   16100 16133
 $$$387B       4 000021D0 00000001     I   16168 16188
 $$$387E       2 000021C2 00000001     H   16142 16134  16136
 $$$387F       2 000021DA 00000001     H   16180 16138B 16153B 16168B 16185
 $$$389B       4 000021C6 00000001     I   16153 16186
 $$$390B       4 000021E4 00000001     I   16207 16224
 $$$390E       2 000021DE 00000001     H   16195 16187  16189
 $$$390F       2 000021EE 00000001     H   16219 16191B 16207B 16223
 $$$392E       2 000021F2 00000001     H   16231 16225
 $$$392F       2 000021F4 00000001     H   16238 16227B
 $$$393        1 00000050 00000001 A   U   16257 16254  16256
 $$$395B       1 0000221C 00000001     X   16331 16338U
 $$$396F       2 00002280 00000001     H   16445 16395B
 $$$397F       2 00002280 00000001     H   16441 16409B
 $$$398F       2 000022B4 00000001     H   16509 16457B
 $$$399F       2 000022B4 00000001     H   16505 16473B
 $$$400F       2 00002330 00000001     H   16707 16521B
 $$$401B       4 000022C2 00000001     I   16537 16574
 $$$401F       2 000022EA 00000001     H   16570 16537B 16573
 $$$402B       4 000022F2 00000001     I   16590 16606
 $$$402E       2 000022EE 00000001     H   16581 16575
 $$$402F       2 000022FC 00000001     H   16602 16577B 16590B 16605
 $$$404B       4 00002304 00000001     I   16622 16638
 $$$404E       2 00002300 00000001     H   16613 16607
 $$$404F       2 0000230E 00000001     H   16634 16609B 16622B 16637
 $$$406B       4 00002316 00000001     I   16654 16669
 $$$406E       2 00002312 00000001     H   16645 16639
 $$$406F       2 00002320 00000001     H   16666 16641B 16654B 16668
 $$$408E       2 00002324 00000001     H   16676 16670
 $$$408F       2 00002326 00000001     H   16683 16672B
 $$$409F       2 00002330 00000001     H   16702 16693B
 $$$410F       2 0000238A 00000001     H   16830 16733B 16746B 16759B 16772B 16785B
 $$$415F       2 0000238A 00000001     H   16826 16817B
 $$$415T       2 00002384 00000001     H   16820 16808B
 $$$417F       2 000023AE 00000001     H   16859 16849B
 $$$418F       2 000023BA 00000001     H   16879 16870B
 $$$419F       2 000023E0 00000001     H   16921 16893B
 $$$420F       2 000023E8 00000001     H   16941 16931B
 $$$421        1 000001AC 00000001 A   U   16973 16970  16972
 $$$423B       1 00002412 00000001     X   17031 17038U
 $$$424F       2 0000244C 00000001     H   17115 17083B
1VARS     (VARS9014) (12:59) (15MAR04) Ordinary Symbol and Literal Cross Reference                                          Page  129
 $$$425F       2 000024A2 00000001     H   17202 17152B
 $$$426F       2 000024A2 00000001     H   17198 17166B
 $$$427F       2 000024D6 00000001     H   17266 17214B
 $$$428F       2 000024D6 00000001     H   17262 17230B
 $$$429F       2 00002552 00000001     H   17465 17278B
 $$$430B       4 000024E4 00000001     I   17295 17332
 $$$430F       2 0000250C 00000001     H   17328 17295B 17331
 $$$431B       4 00002514 00000001     I   17348 17364
 $$$431E       2 00002510 00000001     H   17339 17333
 $$$431F       2 0000251E 00000001     H   17360 17335B 17348B 17363
 $$$433B       4 00002526 00000001     I   17380 17396
 $$$433E       2 00002522 00000001     H   17371 17365
 $$$433F       2 00002530 00000001     H   17392 17367B 17380B 17395
 $$$435B       4 00002538 00000001     I   17412 17427
 $$$435E       2 00002534 00000001     H   17403 17397
 $$$435F       2 00002542 00000001     H   17424 17399B 17412B 17426
 $$$437E       2 00002546 00000001     H   17434 17428
 $$$437F       2 00002548 00000001     H   17441 17430B
 $$$438F       2 00002552 00000001     H   17460 17451B
 $$$439F       2 00002576 00000001     H   17495 17485B
 $$$440F       2 00002582 00000001     H   17515 17506B
 $$$441F       2 000025A8 00000001     H   17557 17529B
 $$$442F       2 000025B0 00000001     H   17577 17567B
 $$$443        1 000001AC 00000001 A   U   17609 17606  17608
 $$$445B       1 000025DA 00000001     X   17666 17673U
 $$$446F       2 0000263E 00000001     H   17787 17737B
 $$$447F       2 0000263E 00000001     H   17783 17751B
 $$$448F       2 00002672 00000001     H   17851 17799B
 $$$449F       2 00002672 00000001     H   17847 17815B
 $$$450F       2 000026EE 00000001     H   18050 17863B
 $$$451B       4 00002680 00000001     I   17880 17917
 $$$451F       2 000026A8 00000001     H   17913 17880B 17916
 $$$452B       4 000026B0 00000001     I   17933 17949
 $$$452E       2 000026AC 00000001     H   17924 17918
 $$$452F       2 000026BA 00000001     H   17945 17920B 17933B 17948
 $$$454B       4 000026C2 00000001     I   17965 17981
 $$$454E       2 000026BE 00000001     H   17956 17950
 $$$454F       2 000026CC 00000001     H   17977 17952B 17965B 17980
 $$$456B       4 000026D4 00000001     I   17997 18012
 $$$456E       2 000026D0 00000001     H   17988 17982
 $$$456F       2 000026DE 00000001     H   18009 17984B 17997B 18011
 $$$458E       2 000026E2 00000001     H   18019 18013
 $$$458F       2 000026E4 00000001     H   18026 18015B
 $$$459F       2 000026EE 00000001     H   18045 18036B
 $$$460F       2 00002712 00000001     H   18080 18070B
 $$$461F       2 0000271E 00000001     H   18100 18091B
 $$$462F       2 00002744 00000001     H   18142 18114B
 $$$463F       2 0000274C 00000001     H   18162 18152B
 $$$464        1 000001AC 00000001 A   U   18194 18191  18193
 $$$466B       1 00002776 00000001     X   18255 18262U
 $$$467F       2 000027DA 00000001     H   18376 18326B
 $$$468F       2 000027DA 00000001     H   18372 18340B
 $$$469F       2 0000280E 00000001     H   18440 18388B
 $$$470F       2 0000280E 00000001     H   18436 18404B
 $$$471F       2 0000288A 00000001     H   18639 18452B
 $$$472B       4 0000281C 00000001     I   18469 18506
 $$$472F       2 00002844 00000001     H   18502 18469B 18505
 $$$473B       4 0000284C 00000001     I   18522 18538
 $$$473E       2 00002848 00000001     H   18513 18507
1VARS     (VARS9014) (12:59) (15MAR04) Ordinary Symbol and Literal Cross Reference                                          Page  130
 $$$473F       2 00002856 00000001     H   18534 18509B 18522B 18537
 $$$475B       4 0000285E 00000001     I   18554 18570
 $$$475E       2 0000285A 00000001     H   18545 18539
 $$$475F       2 00002868 00000001     H   18566 18541B 18554B 18569
 $$$477B       4 00002870 00000001     I   18586 18601
 $$$477E       2 0000286C 00000001     H   18577 18571
 $$$477F       2 0000287A 00000001     H   18598 18573B 18586B 18600
 $$$479E       2 0000287E 00000001     H   18608 18602
 $$$479F       2 00002880 00000001     H   18615 18604B
 $$$480F       2 0000288A 00000001     H   18634 18625B
 $$$481F       2 000028AE 00000001     H   18669 18659B
 $$$482F       2 000028BA 00000001     H   18689 18680B
 $$$483F       2 000028E0 00000001     H   18731 18703B
 $$$484F       2 000028E8 00000001     H   18751 18741B
 $$$485        1 000001AC 00000001 A   U   18783 18780  18782
 $$$487B       1 00002912 00000001     X   18840 18847U
 $$$488B       4 0000292E 00000001     I   18904 18915
 $$$488F       2 00002932 00000001     H   18912 18904B 18914
 $$$488T       2 00002932 00000001     H   18907 18894B
 $$$490E       2 00002936 00000001     H   18922 18916
 $$$490F       2 00002950 00000001     H   18947 18918B
 $$$491F       2 000029A4 00000001     H   19031 18981B
 $$$492F       2 000029A4 00000001     H   19027 18995B
 $$$493F       2 000029D8 00000001     H   19095 19043B
 $$$494F       2 000029D8 00000001     H   19091 19059B
 $$$495F       2 00002A54 00000001     H   19294 19107B
 $$$496B       4 000029E6 00000001     I   19124 19161
 $$$496F       2 00002A0E 00000001     H   19157 19124B 19160
 $$$497B       4 00002A16 00000001     I   19177 19193
 $$$497E       2 00002A12 00000001     H   19168 19162
 $$$497F       2 00002A20 00000001     H   19189 19164B 19177B 19192
 $$$499B       4 00002A28 00000001     I   19209 19225
 $$$499E       2 00002A24 00000001     H   19200 19194
 $$$499F       2 00002A32 00000001     H   19221 19196B 19209B 19224
 $$$501B       4 00002A3A 00000001     I   19241 19256
 $$$501E       2 00002A36 00000001     H   19232 19226
 $$$501F       2 00002A44 00000001     H   19253 19228B 19241B 19255
 $$$503E       2 00002A48 00000001     H   19263 19257
 $$$503F       2 00002A4A 00000001     H   19270 19259B
 $$$504F       2 00002A54 00000001     H   19289 19280B
 $$$505F       2 00002A78 00000001     H   19324 19314B
 $$$506F       2 00002A84 00000001     H   19344 19335B
 $$$507F       2 00002AAA 00000001     H   19386 19358B
 $$$508F       2 00002AB2 00000001     H   19406 19396B
 $$$509        1 000001AC 00000001 A   U   19438 19435  19437
 $$$511B       1 00002ADC 00000001     X   19499 19506U
 $$$512        1 00000050 00000001 A   U   19693 19690  19692
 $$$514B       1 00002FEA 00000001     X   19836 19843U
 $$$515        1 00000050 00000001 A   U   19889 19886  19888
 $$$517B       1 00003032 00000001     X   19930 19937U
 $$$518F       2 0000306A 00000001     H   19984 19969B
 $$$519        1 00000050 00000001 A   U   20007 20004  20006
 $$$521B       1 00003094 00000001     X   20054 20061U
 $$$522        1 00000050 00000001 A   U   20107 20104  20106
 $$$524B       1 000030D6 00000001     X   20152 20159U
 $$$525F       2 00003100 00000001     H   20208 20193B
 $$$526F       2 00003106 00000001     H   20225 20215B
 $$$527        1 00000050 00000001 A   U   20248 20245  20247
 $$$529B       1 00003130 00000001     X   20321 20328U
1VARS     (VARS9014) (12:59) (15MAR04) Ordinary Symbol and Literal Cross Reference                                          Page  131
 $$$530F       2 00003148 00000001     H   20383 20373B
 $$$531B       4 0000314A 00000001     I   20395 20434
 $$$531F       2 00003166 00000001     H   20429 20395B 20433
 $$$532F       2 0000315A 00000001     H   20421 20411B
 $$$533E       2 0000316A 00000001     H   20441 20435
 $$$533F       2 0000317C 00000001     H   20453 20437B
 $$$534F       2 000031FC 00000001     H   20518 20508B
 $$$535        1 000002F8 00000001 A   U   20544 20541  20543
 $$$537B       1 00003224 00000001     X   20624 20631U
 $$$538F       2 0000323C 00000001     H   20686 20676B
 $$$539B       4 0000326C 00000001     I   20719 20735
 $$$539F       2 00003276 00000001     H   20731 20719B 20734
 $$$540B       4 0000327E 00000001     I   20751 20767
 $$$540E       2 0000327A 00000001     H   20742 20736
 $$$540F       2 00003288 00000001     H   20763 20738B 20751B 20766
 $$$542B       4 00003290 00000001     I   20783 20798
 $$$542E       2 0000328C 00000001     H   20774 20768
 $$$542F       2 0000329A 00000001     H   20795 20770B 20783B 20797
 $$$544E       2 0000329E 00000001     H   20805 20799
 $$$544F       2 000032A0 00000001     H   20812 20801B
 $$$545F       2 000032AA 00000001     H   20831 20822B
 $$$546F       2 0000331C 00000001     H   20887 20877B
 $$$547F       2 00003342 00000001     H   20929 20901B
 $$$548F       2 0000334A 00000001     H   20949 20939B
 $$$549        1 000002F8 00000001 A   U   20981 20978  20980
 $$$551B       1 00003374 00000001     X   21064 21071U
 $$$552F       2 000033A0 00000001     H   21160 21137B 21148B
 $$$552S       2 00003388 00000001     H   21127 21159B
 $$$555F       2 000033D2 00000001     H   21218 21185B
 $$$555T       2 000033AE 00000001     H   21188 21176B
 $$$557F       2 000033F0 00000001     H   21262 21239B 21250B
 $$$557S       2 000033D8 00000001     H   21229 21261B
 $$$560F       2 0000341E 00000001     H   21319 21276B 21287B
 $$$562F       2 000035D6 00000001     H   21919 21342B
 $$$562S       2 00003424 00000001     H   21334 21918B
 $$$564F       2 00003448 00000001     H   21388 21365B 21376B
 $$$564S       2 00003430 00000001     H   21355 21387B
 $$$567F       2 0000345A 00000001     H   21422 21402B 21413B
 $$$569F       2 0000346E 00000001     H   21465 21449B
 $$$569T       2 00003468 00000001     H   21452 21440B
 $$$571B       4 00003470 00000001     I   21478 21545
 $$$571F       2 000034A6 00000001     H   21539 21478B 21544
 $$$572F       2 00003490 00000001     H   21508 21494B
 $$$573F       2 000034A6 00000001     H   21535 21521B
 $$$574B       4 000034AC 00000001     I   21560 21580
 $$$574E       2 000034AA 00000001     H   21552 21546
 $$$574F       2 000034BE 00000001     H   21574 21548B 21560B 21579
 $$$576E       2 000034C2 00000001     H   21587 21581
 $$$576F       2 000034D6 00000001     H   21609 21583B 21595B
 $$$578F       2 000034FC 00000001     H   21655 21623B
 $$$579F       2 00003512 00000001     H   21681 21667B
 $$$58B        1 0000003E 00000001     X    7000  7007U
 $$$580F       2 0000353A 00000001     H   21725 21693B
 $$$581F       2 00003570 00000001     H   21788 21739B 21752B
 $$$583F       2 0000359E 00000001     H   21851 21800B
 $$$584F       2 0000359E 00000001     H   21847 21821B 21832B
 $$$586F       2 000035D2 00000001     H   21912 21866B 21879B
 $$$588        1 00000058 00000001 A   U   21962 21959  21961
 $$$59         1 00000050 00000001 A   U    7043  7040   7042
1VARS     (VARS9014) (12:59) (15MAR04) Ordinary Symbol and Literal Cross Reference                                          Page  132
 $$$590B       1 0000361C 00000001     X   22040 22047U
 $$$591F       2 00003634 00000001     H   22100 22090B
 $$$592F       2 0000366E 00000001     H   22134 22124B
 $$$593F       2 0000367C 00000001     H   22158 22148B
 $$$594F       2 00003688 00000001     H   22184 22174B
 $$$595F       2 000036A6 00000001     H   22228 22200B 22215B
 $$$597F       2 000036C4 00000001     H   22272 22244B 22259B
 $$$599F       2 000036D4 00000001     H   22298 22286B
 $$$600F       2 000036F2 00000001     H   22342 22314B 22329B
 $$$602F       2 00003710 00000001     H   22386 22358B 22373B
 $$$604F       2 00003728 00000001     H   22414 22400B
 $$$605F       2 00003740 00000001     H   22442 22428B
 $$$606F       2 00003758 00000001     H   22470 22456B
 $$$607        1 00000064 00000001 A   U   22500 22497  22499
 $$$609B       1 00003782 00000001     X   22551 22558U
 $$$61B        1 00000076 00000001     X    7128  7135U
 $$$610B       4 000037AA 00000001     I   22615 22687
 $$$610F       2 000037D8 00000001     H   22684 22615B 22686
 $$$611B       4 000037B2 00000001     I   22630 22645
 $$$611F       2 000037B8 00000001     H   22642 22630B 22644
 $$$612E       2 000037BC 00000001     H   22652 22646
 $$$612F       2 000037D8 00000001     H   22680 22648B
 $$$613E       2 000037DC 00000001     H   22694 22688
 $$$613F       2 000037F8 00000001     H   22722 22690B
 $$$614        1 00000050 00000001 A   U   22741 22738  22740
 $$$616B       1 0000398A 00000001     X   22830 22837U
 $$$617        1 00000050 00000001 A   U   22879 22876  22878
 $$$619B       1 000039B8 00000001     X   22918 22925U
 $$$62F        2 000000FC 00000001     H    7260  7245B
 $$$620F       2 000039CC 00000001     H   22982 22958B
 $$$621        6 000045F6 00000001     I   22972 22964X
 $$$622        6 000045F6 00000001     I   22971 22972  22972
 $$$623        1 00000050 00000001 A   U   23007 23004  23006
 $$$625B       1 000039F4 00000001     X   23046 23053U
 $$$626F       2 00003A10 00000001     H   23118 23094B
 $$$627        6 000045FC 00000001     I   23108 23100X
 $$$628        6 000045FC 00000001     I   23107 23108  23108
 $$$629        1 00000050 00000001 A   U   23143 23140  23142
 $$$63F        2 0000011C 00000001     H    7296  7281B
 $$$631B       1 00003A38 00000001     X   23181 23188U
 $$$632        1 00000050 00000001 A   U   23243 23240  23242
 $$$634B       1 00003A74 00000001     X   23290 23297U
 $$$635B       1 00003A74 00000001     X   23305 23312U
 $$$636B       4 00003A7C 00000001     I   23333 23348
 $$$636F       2 00003A84 00000001     H   23342 23333B 23347
 $$$637B       4 00003A8C 00000001     I   23366 23425
 $$$637E       2 00003A88 00000001     H   23355 23349
 $$$637F       2 00003AB0 00000001     H   23422 23351B 23366B 23424
 $$$639F       2 00003AB0 00000001     H   23418 23387B
 $$$64F        2 000001A6 00000001     H    7499  7320B
 $$$64S        2 00000128 00000001     H    7314  7498B
 $$$640F       2 00003AB0 00000001     H   23414 23405B
 $$$641E       2 00003AB4 00000001     H   23432 23426
 $$$641F       2 00003AB6 00000001     H   23439 23428B
 $$$642F       2 00003AD6 00000001     H   23467 23452B
 $$$643        1 00000054 00000001 A   U   23492 23489  23491
 $$$645B       1 00003B02 00000001     X   23534 23541U
 $$$646B       4 00003B06 00000001     I   23574 23589
 $$$646F       2 00003B0E 00000001     H   23583 23574B 23588
1VARS     (VARS9014) (12:59) (15MAR04) Ordinary Symbol and Literal Cross Reference                                          Page  133
 $$$647B       4 00003B16 00000001     I   23605 23619
 $$$647E       2 00003B12 00000001     H   23596 23590
 $$$647F       2 00003B1E 00000001     H   23614 23592B 23605B 23618
 $$$649B       4 00003B26 00000001     I   23635 23649
 $$$649E       2 00003B22 00000001     H   23626 23620
 $$$649F       2 00003B2E 00000001     H   23644 23622B 23635B 23648
 $$$651B       4 00003B36 00000001     I   23665 23685
 $$$651E       2 00003B32 00000001     H   23656 23650
 $$$651F       2 00003B52 00000001     H   23680 23652B 23665B 23684
 $$$653B       4 00003B5A 00000001     I   23701 23715
 $$$653E       2 00003B56 00000001     H   23692 23686
 $$$653F       2 00003B62 00000001     H   23710 23688B 23701B 23714
 $$$655B       4 00003B6A 00000001     I   23731 23744
 $$$655E       2 00003B66 00000001     H   23722 23716
 $$$655F       2 00003B72 00000001     H   23740 23718B 23731B 23743
 $$$657E       2 00003B76 00000001     H   23751 23745
 $$$657F       2 00003B78 00000001     H   23758 23747B
 $$$658        1 00000050 00000001 A   U   23783 23780  23782
 $$$66F        2 00000166 00000001     H    7377  7344B
 $$$660B       1 00003BA6 00000001     X   23834 23841U
 $$$661B       4 00003BAA 00000001     I   23873 23887
 $$$661F       2 00003BB2 00000001     H   23882 23873B 23886
 $$$662B       4 00003BBA 00000001     I   23903 23920
 $$$662E       2 00003BB6 00000001     H   23894 23888
 $$$662F       2 00003BC4 00000001     H   23915 23890B 23903B 23919
 $$$664B       4 00003BCC 00000001     I   23936 23950
 $$$664E       2 00003BC8 00000001     H   23927 23921
 $$$664F       2 00003BD4 00000001     H   23945 23923B 23936B 23949
 $$$666B       4 00003BDC 00000001     I   23966 23986
 $$$666E       2 00003BD8 00000001     H   23957 23951
 $$$666F       2 00003BF8 00000001     H   23981 23953B 23966B 23985
 $$$668B       4 00003C00 00000001     I   24002 24016
 $$$668E       2 00003BFC 00000001     H   23993 23987
 $$$668F       2 00003C08 00000001     H   24011 23989B 24002B 24015
 $$$67F        2 0000017E 00000001     H    7419  7394B  7405B
 $$$67S        2 00000166 00000001     H    7384  7418B
 $$$670B       4 00003C10 00000001     I   24032 24045
 $$$670E       2 00003C0C 00000001     H   24023 24017
 $$$670F       2 00003C18 00000001     H   24041 24019B 24032B 24044
 $$$672E       2 00003C1C 00000001     H   24052 24046
 $$$672F       2 00003C1E 00000001     H   24059 24048B
 $$$673        1 00000050 00000001 A   U   24084 24081  24083
 $$$675B       1 00003C4C 00000001     X   24136 24143U
 $$$676F       2 00003C58 00000001     H   24176 24166B
 $$$677        1 00000050 00000001 A   U   24200 24197  24199
 $$$679B       1 00003C8C 00000001     X   24240 24247U
 $$$680        1 00000050 00000001 A   U   24285 24282  24284
 $$$682B       1 00003CC0 00000001     X   24328 24335U
 $$$683F       2 00003CCA 00000001     H   24368 24358B
 $$$684        1 00000050 00000001 A   U   24400 24397  24399
 $$$686B       1 00003D02 00000001     X   24434 24441U
 $$$687        1 00000050 00000001 A   U   24485 24482  24484
 $$$689B       1 00003D46 00000001     X   24543 24550U
 $$$690F       2 00003DBE 00000001     H   24657 24637B
 $$$690S       2 00003D90 00000001     H   24628 24656B
 $$$692F       2 00003E10 00000001     H   24723 24703B
 $$$692S       2 00003DE2 00000001     H   24694 24722B
 $$$694F       2 00003E60 00000001     H   24784 24764B
 $$$694S       2 00003E32 00000001     H   24755 24783B
1VARS     (VARS9014) (12:59) (15MAR04) Ordinary Symbol and Literal Cross Reference                                          Page  134
 $$$696        1 000001A0 00000001 A   U   24823 24820  24822
 $$$698B       1 00003E9E 00000001     X   24874 24881U
 $$$699        1 00000050 00000001 A   U   24909 24906  24908
 $$$70F        2 00000192 00000001     H    7457  7433B  7444B
 $$$701B       1 00003EC6 00000001     X   24936 24943U
 $$$702        1 00000050 00000001 A   U   24971 24968  24970
 $$$704B       1 00003EEE 00000001     X   25022 25029U
 $$$705B       4 00003EF4 00000001     I   25050 25173
 $$$705F       2 00003F44 00000001     H   25167 25050B 25172
 $$$706B       4 00003EFC 00000001     I   25066 25097
 $$$706F       2 00003F16 00000001     H   25093 25066B 25096
 $$$707B       4 00003F1E 00000001     I   25115 25149
 $$$707E       2 00003F1A 00000001     H   25104 25098
 $$$707F       2 00003F3E 00000001     H   25146 25100B 25115B 25148
 $$$709E       2 00003F42 00000001     H   25156 25150
 $$$709F       2 00003F44 00000001     H   25163 25152B
 $$$710E       2 00003F48 00000001     H   25180 25174
 $$$710F       2 00003F76 00000001     H   25267 25176B
 $$$711F       2 00003F62 00000001     H   25226 25201B 25212B
 $$$711S       2 00003F4A 00000001     H   25191 25225B
 $$$714F       2 00003F76 00000001     H   25263 25240B 25251B
 $$$716        1 00000050 00000001 A   U   25288 25285  25287
 $$$718B       1 00003FA2 00000001     X   25330 25337U
 $$$719F       2 00004044 00000001     H   25518 25416B
 $$$72F        2 000001A2 00000001     H    7494  7471B  7482B
 $$$720F       2 00004044 00000001     H   25514 25467B
 $$$720T       2 00004032 00000001     H   25470 25445B 25457B
 $$$723F       2 00004044 00000001     H   25510 25485B 25498B
 $$$725        1 00000050 00000001 A   U   25536 25533  25535
 $$$727B       1 0000406C 00000001     X   25584 25591U
 $$$728        1 00000050 00000001 A   U   25643 25640  25642
 $$$730B       1 000040B2 00000001     X   25685 25692U
 $$$731F       2 00004154 00000001     H   25972 25726B
 $$$732B       4 000040C0 00000001     I   25741 25771
 $$$732F       2 000040D6 00000001     H   25767 25741B 25770
 $$$733B       4 000040DE 00000001     I   25787 25817
 $$$733E       2 000040DA 00000001     H   25778 25772
 $$$733F       2 000040F4 00000001     H   25813 25774B 25787B 25816
 $$$735B       4 000040FC 00000001     I   25833 25863
 $$$735E       2 000040F8 00000001     H   25824 25818
 $$$735F       2 00004112 00000001     H   25859 25820B 25833B 25862
 $$$737B       4 0000411A 00000001     I   25879 25909
 $$$737E       2 00004116 00000001     H   25870 25864
 $$$737F       2 00004130 00000001     H   25905 25866B 25879B 25908
 $$$739B       4 00004138 00000001     I   25925 25954
 $$$739E       2 00004134 00000001     H   25916 25910
 $$$739F       2 0000414E 00000001     H   25951 25912B 25925B 25953
 $$$74F        2 000002A8 00000001     H    7811  7517B
 $$$74S        2 000001AA 00000001     H    7508  7810B
 $$$741E       2 00004152 00000001     H   25961 25955
 $$$741F       2 00004154 00000001     H   25968 25957B
 $$$742        1 00000050 00000001 A   U   26023 26020  26022
 $$$744B       1 0000418E 00000001     X   26100 26107U
 $$$745B       4 000041A2 00000001     I   26151 26181
 $$$745F       2 000041B8 00000001     H   26177 26151B 26180
 $$$746B       4 000041C0 00000001     I   26197 26270
 $$$746E       2 000041BC 00000001     H   26188 26182
 $$$746F       2 000041FA 00000001     H   26267 26184B 26197B 26269
 $$$748E       2 000041FE 00000001     H   26277 26271
1VARS     (VARS9014) (12:59) (15MAR04) Ordinary Symbol and Literal Cross Reference                                          Page  135
 $$$748F       2 0000421A 00000001     H   26313 26273B
 $$$749        1 000001A0 00000001 A   U   26355 26352  26354
 $$$751B       1 00004254 00000001     X   26406 26413U
 $$$752F       2 000042B2 00000001     H   26545 26496B
 $$$753F       2 000042E0 00000001     H   26608 26559B
 $$$754        1 00000050 00000001 A   U   26670 26667  26669
 $$$756B       1 00004334 00000001     X   26719 26726U
 $$$757F       2 00004354 00000001     H   26796 26749B 26764B
 $$$759        1 00000050 00000001 A   U   26895 26892  26894
 $$$76F        2 000001CE 00000001     H    7552  7533B
 $$$761B       1 000043CA 00000001     X   26936 26943U
 $$$762        1 00000050 00000001 A   U   26992 26989  26991
 $$$764B       1 0000440E 00000001     X   27033 27040U
 $$$765        1 00000050 00000001 A   U   27089 27086  27088
 $$$767B       1 00004452 00000001     X   27129 27136U
 $$$768F       2 00004472 00000001     H   27206 27159B 27174B
 $$$77F        2 000001F2 00000001     H    7604  7564B
 $$$770        1 00000050 00000001 A   U   27247 27244  27246
 $$$78F        2 000001F2 00000001     H    7600  7581B
 $$$79F        2 0000020E 00000001     H    7650  7616B
 $$$80F        2 0000020E 00000001     H    7646  7631B
 $$$81F        2 0000022A 00000001     H    7681  7662B
 $$$82F        2 00000262 00000001     H    7736  7717B
 $$$83F        2 000002A0 00000001     H    7805  7752B
 $$$83S        2 0000026C 00000001     H    7745  7804B
 $$$85F        2 00000298 00000001     H    7799  7764B
 $$$86F        2 00000298 00000001     H    7795  7776B
 $$$87B        4 000002AC 00000001     I    7824  7942
 $$$87F        2 0000030A 00000001     H    7936  7824B  7941
 $$$88F        2 0000030A 00000001     H    7932  7867B
 $$$88S        2 000002D0 00000001     H    7858  7931B
 $$$90F        2 000002EE 00000001     H    7899  7886B
 $$$91F        2 00000302 00000001     H    7926  7913B
 $$$92B        4 00000312 00000001     I    7958  8071
 $$$92E        2 0000030E 00000001     H    7949  7943
 $$$92F        2 00000374 00000001     H    8065  7945B  7958B  8070
 $$$94F        2 00000374 00000001     H    8061  7996B
 $$$94S        2 0000033A 00000001     H    7987  8060B
 $$$96F        2 00000358 00000001     H    8028  8015B
 $$$97F        2 0000036C 00000001     H    8055  8042B
 $$$98B        4 0000037C 00000001     I    8087  8200
 $$$98E        2 00000378 00000001     H    8078  8072
 $$$98F        2 000003DE 00000001     H    8194  8074B  8087B  8199
 @RAR          0 00000000 FFFFFFF0     @    1124  2162   2170B
 @R0           0 00000000 FFFFFFFE     @     706   982U
 @R1           0 00000000 FFFFFFFD     @     719   978U  2168   2169   7393   7432   7470   9683   9726   9765   9805
                                                 10180  10223  10262  10624  10691  10798  11490  11529  11661  11793
                                                 11913  11983  12022  12060  12101  12145  12158  12355  12445  12504
                                                 12560  12621  21136  21173  21238  21275  21341  21364  21401  21437
                                                 21666  21692  21738  21751  21799  21820  21878  22971  23107  25200
                                                 25239  25426  25484  25497
 @R10          0 00000000 FFFFFFF4     @     836   942U
 @R11          0 00000000 FFFFFFF3     @     849   938U
 @R12          0 00000000 FFFFFFF2     @     862   934U
 @R13          0 00000000 FFFFFFF1     @     875   930U
 @R14          0 00000000 FFFFFFF0     @     888   926U 15505
 @R15          0 00000000 FFFFFFEF     @     901   922U
 @R2           0 00000000 FFFFFFFC     @     732   974U  7516   7866   7995   8124   8257  16745  16758  16771  16784
                                                 22860U 22988U 23124U 23224U 23791U 24092U 25427U
1VARS     (VARS9014) (12:59) (15MAR04) Ordinary Symbol and Literal Cross Reference                                          Page  136
 @R3           0 00000000 FFFFFFFB     @     745   970U
 @R4           0 00000000 FFFFFFFA     @     758   966U
 @R5           0 00000000 FFFFFFF9     @     771   962U  8797U 12672U 14455U
 @R6           0 00000000 FFFFFFF8     @     784   958U  8804U  9495U 10856U 12679U 14462U 15098U 15255U 15367U 15568U
                                                 15680U 15792U 16981U 17617U 18202U 18791U 19446U 20552U 20989U 21970U
                                                 22508U 22749U 24831U 26031U 26363U 26678U
 @R7           0 00000000 FFFFFFF7     @     797   954U  7032U  8364U  8553U  8620U  8687U  8778U  9476U  9995U 10452U
                                                 10837U 11192U 11380U 11551U 11683U 11815U 12264U 12653U 13673U 13921U
                                                 14075U 14232U 14436U 14593U 14981U 15079U 15236U 15348U 15549U 15661U
                                                 15773U 16246U 16962U 17598U 18183U 18772U 19427U 19682U 19878U 19996U
                                                 20096U 20237U 20533U 20970U 21951U 22489U 22730U 22868U 22996U 23132U
                                                 23232U 23481U 23772U 24073U 24189U 24274U 24389U 24474U 24812U 24898U
                                                 24960U 25277U 25525U 25632U 26012U 26344U 26659U 26884U 26981U 27078U
                                                 27236U
 @R8           0 00000000 FFFFFFF6     @     810   950U  8359U  9471U  9990U 10447U 10832U 11187U 12859U 13668U 15544U
                                                 16957U 17593U 18178U 18767U 19422U 20528U 20965U 21946U 22484U 23476U
                                                 24807U 26339U
 @R9           0 00000000 FFFFFFF5     @     823   946U
 ABSCENT       1 00000000 00000000 A   T    2178  2178
 ACONST        2 00000008 00000001 A   U    6930  9164   9164M 11098  11098  20477  20477M 20846  20846M
 AIDENT        4 00000004 00000001 A   U    6929  9163M 20476  20476M 20845  20845M
 ANAME         4 00000000 00000001 A   U    6928 20475  20844
 ASCTBL        1 00000000 00000000 A   T    2186  2186
 ASUB1         2 0000000A 00000001 A   U    6931  9207M  9299M  9421M 11110M 20478  20478M 20847  20847M
 ASUB2         2 0000000C 00000001 A   U    6932  9300M  9422M 20479  20479M 20848  20848M
 ASUB3         2 0000000E 00000001 A   U    6933  9423M 20480  20480M 20849  20849M
 BADDIM        2 00004438 00000001     H   27110 22782
 BADSUB        2 0000431A 00000001     H   26700 22777  27294
 BIGSUB        2 000043F4 00000001     H   27014 22776
 BLTBL         1 00000000 00000000 A   T    2188  2188
 BR            7 00000007 00000001 A   #    1014  6995M  7123M  8519M  8586M  8653M  8720M  8870M  9603M 10055M 10517M
                                                 10914M 11322M 11415M 11586M 11718M 11855M 12305M 12812M 13803M 13957M
                                                 14111M 14268M 14494M 14700M 15030M 15135M 15292M 15428M 15605M 15717M
                                                 15840M 16326M 17026M 17661M 18250M 18835M 19494M 19831M 19925M 20049M
                                                 20147M 20316M 20619M 21059M 22035M 22546M 22825M 22913M 23041M 23176M
                                                 23285M 23529M 23829M 24131M 24235M 24323M 24429M 24538M 24869M 24931M
                                                 25017M 25325M 25579M 25680M 26095M 26401M 26714M 26931M 27028M 27124M
 CHECKEND      1 00000000 0000000D     T   12700 12700  22778
 CHECKIOB      1 00000000 00000000 A   T    2234  2234
 CHKRESVD      2 00002AC2 00000001     H   19480  9520  19476  19771
 CHKSUBS       2 00003602 00000001     H   22019 22765
 CKSARRAY      4 00000000 FFFFFFDB     F   21996 22075M 22079  22103
 CKSDIM1       2 0000000E FFFFFFDB     H   22001 22104M 22111  22173  22399
 CKSDIM2       2 00000010 FFFFFFDB     H   22002 22105M 22199  22313  22427
 CKSDIM3       2 00000012 FFFFFFDB     H   22003 22106M 22243  22357  22455
 CKSDONE       2 0000375A 00000001     H   22477 22224B 22268B 22338B 22382B 22410B 22438B 22466B
 CKSNAME       4 00000004 FFFFFFDB     F   21997 22076M 22107
 CKSSUB1       2 00000008 FFFFFFDB     H   21998 22108M 22135  22285  22399
 CKSSUB2       2 0000000A FFFFFFDB     H   21999 22109M 22214  22328  22427
 CKSSUB3       2 0000000C FFFFFFDB     H   22000 22110M 22258  22372  22455
 CKSWA        20 00000000 FFFFFFDB     J   22010 22032  22061U 22497  22499  22500
 CLRVARS       2 00001D20 00000001     H   14480 14476
 CLRVSETS      2 00003CA6 00000001     H   24309 24305
 CLRVSTK       2 00003CE8 00000001     H   24415 24411
 COLLPSH       1 00000000 00000009     T   11284 11284  13765
 COMMAND       1 00000000 00000000 A   T    2174  2174
 COMMSEG       1 00000000 00000000 A   T    2175  2175
 CP         4096 00000000 FFFFFFEC     J    6188  1163U
 CP#SESV       1 00000008 FFFFFFEC A   U    3932 12074  12574  15639  18296  24007
1VARS     (VARS9014) (12:59) (15MAR04) Ordinary Symbol and Literal Cross Reference                                          Page  137
 CP#SYSV       1 00000002 FFFFFFEC A   U    3926 19856  19950
 CP#XOLD       1 00000002 FFFFFFEC A   U    3917  9518  12713  19759  27263
 CP#XSET       4 00000778 FFFFFFEC     F    4151  7580  11930  12372  15179  17082  23386  24165
 CP#XSTK       1 00000010 FFFFFFEC A   U    3920  3921
 CPACFLG       1 000005D5 FFFFFFEC     R    4023  4027   4032   4037   4042   4047
 CPACFLN       4 000005C4 FFFFFFEC     F    4015  4050   4050
 CPAFLAG       1 000005C3 FFFFFFEC     R    3987  3991   3996   4001   4006
 CPANAME       8 00000588 FFFFFFEC     C    3969  4065   4065
 CPARRAY#      4 00000840 FFFFFFEC     F    4209  8996   8998M
 CPAUTFLG      1 000008A9 FFFFFFEC     R    4333  4337   4342   4347   4352
 CPCHFLAG      1 00000B68 FFFFFFEC     R    4960  4964
 CPDFLG        1 0000084C FFFFFFEC     R    4220  4224   4229   4234   4239   4244
 CPDFLG2       1 0000084D FFFFFFEC     R    4249  4253   4258   4263   4268   4273   4278
 CPEXFLG       1 00000758 FFFFFFEC     R    4089  4093
 CPEXFLG2      1 00000759 FFFFFFEC     R    4099  4108   4118
 CPEXFLG3      1 0000075A FFFFFFEC     R    4125  4129   4134
 CPEXTFLG      1 00000E28 FFFFFFEC     R    5771  5775   5780   5785   5790   5795   5800
 CPFABORT    128 00000D5A FFFFFFEC         5537  2138M  2138   2143M  2143
 CPFERROR     64 00000D5A FFFFFFEC         5542  2137M  2137   2142M  2142
 CPFEXEC     128 00000758 FFFFFFEC         4093 14547
 CPFNTEX       1 00000040 FFFFFFEC A   U    5389  5390
 CPFRDRNG      1 00000D88 FFFFFFEC     R    5657  5661   5666   5671   5676   5681   5686   5691
 CPFRDSRC      1 00000D89 FFFFFFEC     R    5696  5705   5715   5725
 CPFUNUM       1 00000080 FFFFFFEC A   U    5388  5390
 CPFXAUTH     64 0000075A FFFFFFEC         4134 18903
 CPFXDFLG      1 000007E4 FFFFFFEC     R    4167  4171   4176
 CPFXOLD       2 00000759 FFFFFFEC         4118 14535
 CPFXXERR     32 00000479 FFFFFFEC         3695 12173
 CPGFLG1       1 00000474 FFFFFFEC     R    3530  3534   3539   3544   3549   3554   3884   3884
 CPGFLG10      1 0000047D FFFFFFEC     R    3767  3771   3776   3781   3786   3791   3796
 CPGFLG11      1 0000047E FFFFFFEC     R    3802  3806   3811
 CPGFLG12      1 0000047F FFFFFFEC     R    3817  3821   3826   3831
 CPGFLG13      1 00000480 FFFFFFEC     R    3837  3841
 CPGFLG14      1 00000481 FFFFFFEC     R    3847  3851   3856   3861   3866   3871
 CPGFLG4       1 00000477 FFFFFFEC     R    3583  3594   3603   3612   3621   3630
 CPGFLG5       1 00000478 FFFFFFEC     R    3636  3640   3645   3650   3655   3660   3665   3670   3675
 CPGFLG6       1 00000479 FFFFFFEC     R    3681  3685   3690   3695
 CPGFLG7       1 0000047A FFFFFFEC     R    3701  3705   3710   3715   3720
 CPGFLG8       1 0000047B FFFFFFEC     R    3726  3730   3735   3740   3745
 CPGFLG9       1 0000047C FFFFFFEC     R    3751  3755   3761
 CPINIT        1 00000174 FFFFFFEC     U    2700  6157
 CPJESFLG      1 000009E1 FFFFFFEC     R    4432  4436   4441   4446   4451   4456   4461   4466   4471
 CPJESFLY      1 000009FD FFFFFFEC     R    4482  4486   4491   4496
 CPJESHFL      1 000009E0 FFFFFFEC     R    4417  4421   4426   4505   4505
 CPLFLG10      1 00000D59 FFFFFFEC     R    5523  5527
 CPLFLG11      1 00000D5A FFFFFFEC     R    5533  5537   5542   5547   5552
 CPLFLG12      1 00000D5B FFFFFFEC     R    5558  5562
 CPLFLG14      1 00000D5C FFFFFFEC     R    5568  5572   5577   5582   5587   5592
 CPLFLG6       1 00000D55 FFFFFFEC     R    5398  5402   5407   5412   5417   5422   5427
 CPLFLG7       1 00000D56 FFFFFFEC     R    5433  5437   5442   5447   5452   5457
 CPLFLG8       1 00000D57 FFFFFFEC     R    5463  5467   5472   5477   5482
 CPLFLG9       1 00000D58 FFFFFFEC     R    5488  5492   5497   5502   5507   5512   5517
 CPLOCALZ      1 00000C48 FFFFFFEC     U    4990  6151   6151
 CPMFLG        1 0000084F FFFFFFEC     R    4287  4291
 CPMODFLG      1 00000C78 FFFFFFEC     R    5018  5022   5027   5032   5037   5042
 CPNAMELN      1 00000010 FFFFFFEC A   U    3913  4160
 CPNEDPFX     10 00000E29 FFFFFFEC     X    5804  5805   5806
 CPNSCANP      4 0000008C FFFFFFEC     A    2573  7192   7199   7215   7265   9652   9876   9885   9892   9907  10104
                                                 10333  10342  10349  10364  10559  11002  11009  11025  11345  11438
1VARS     (VARS9014) (12:59) (15MAR04) Ordinary Symbol and Literal Cross Reference                                          Page  138
                                                 11609  11741  11880  12878  12980  13098  13105  13121  25361  25370
                                                 25377  25392  25401
 CPNUMFLG      1 00000C79 FFFFFFEC     R    5048  5060
 CPORVCMD      1 00000140 FFFFFFEC     R    2582  2586   2591   2596   2601   2606   2611   2616   2621   2626   2626
                                                  2677   2677
 CPORVFLG      1 00000149 FFFFFFEC     R    2633  2637   2642   2647   2652   2657   2662   2667   2672
 CPORVWF       1 00000150 FFFFFFEC     R    2685  2689
 CPOSCANX      4 00000CA8 FFFFFFEC     F    5217  5284   5284
 CPR          11 0000000B 00000001 A   #    1078  1163U
 CPRACBAD     16 000001FC FFFFFFEC         2751  2785   2785   2786   2786
 CPRACF1       1 000001FC FFFFFFEC     R    2732  2736   2741   2746   2751   2756   2761   2766   2771   2787
 CPRACPSW     32 000001FC FFFFFFEC         2746  2784   2784   2786   2786
 CPRACUND     64 000001FC FFFFFFEC         2741  2784   2784   2785   2785
 CPRCVCUR      4 00000730 FFFFFFEC     A    4068  4070   4070
 CPRFLG        1 000008AA FFFFFFEC     R    4358  4362   4367   4372   4377   4382   4387
 CPRG16       32 00000524 FFFFFFEC     X    3907 12072  12572  15638  15646  18295  18303  18645  19855  19861  19949
                                                 19955  23706
 CPRG16NL      1 00000010 FFFFFFEC A   U    3911 18226  18227
 CPS         254 00000344 FFFFFFEC     X    3502  3505   3506   3508   3508
 CPSACCT       5 000003B4 FFFFFFEC     C    3101  3264   3264
 CPSAMCOD      1 00000A22 FFFFFFEC     R    4554  4562   4572   4582   4591   4600   4609   4619   4628   4637
 CPSAMFLG      1 00000A21 FFFFFFEC     R    4514  4518   4523   4528   4533   4538   4543   4548   4659   4659
 CPSCNFLG      1 00000CD0 FFFFFFEC     R    5230  5241   5250   5261
 CPSCNF2       1 00000CD1 FFFFFFEC     R    5266  5270
 CPSCNMAX      1 00000014 FFFFFFEC A   U    5282  5283
 CPSCRI        2 00000434 FFFFFFEC     H    3491  3496   3496
 CPSEG        60 00000050 FFFFFFEC     X    2571  7362   8760   9952  10141  10409  10713  11155  12948  13076  13302
                                                 13447  13622  14410  16067  16431  16495  16560  16911  17105  17188
                                                 17252  17318  17547  17773  17837  17903  18132  18362  18426  18492
                                                 18721  18937  19017  19081  19147  19376  20919  21208  21309  21642
                                                 21712  21774  21902  22671  22713  25084  25137  25617  25759  25805
                                                 25851  25897  25943  26000  26169  26215  26241  26259  26305  26327
                                                 26455  26478  26514  26537  26577  26600  26622  26642  26788  26810
                                                 26832  26850  26872  26965  27062  27198  27224
 CPSEGCOD      1 00000050 FFFFFFEC     R    2488  2497   2507   2517   2527   2537   2547   2557
 CPSEGLENF
               4 0000005C FFFFFFEC     A    2563 26748M 26748  26763  27158M 27158  27173
 CPSEGMRKF
               4 00000058 FFFFFFEC     A    2562 26763  27173
 CPSFL         1 00000384 FFFFFFEC     R    2839  2843   2848   2853   2858   2863
 CPSFLG        1 000003F8 FFFFFFEC     R    3379  3383   3388   3393   3398   3403   3408   3413   3418
 CPSFLG2       1 000003F9 FFFFFFEC     R    3424  3428   3433   3438
 CPSFL2        1 00000385 FFFFFFEC     R    2869  2873   2878   2883   2888
 CPSFL3        1 00000386 FFFFFFEC     R    2894  2898   2903   2908
 CPSFL4        1 00000387 FFFFFFEC     R    2914  2918   2923   2928
 CPSFL5        1 00000388 FFFFFFEC     R    2934  2938   2943   2948
 CPSFSPR      32 000003BE FFFFFFEC         3204  7630  18891
 CPSKAFL       1 000003BF FFFFFFEC     R    3235  3239   3244   3249   3254   3259
 CPSKIFL       1 000003BE FFFFFFEC     R    3190  3194   3199   3204   3209   3214   3219   3224   3229
 CPSLIMIT      1 00000003 FFFFFFEC A   U    4214 21035
 CPSOF         1 000001F8 FFFFFFEC     X    2722  2724   2724
 CPSOFLAG      1 00000416 FFFFFFEC     R    3449  3453   3458   3463   3468   3473
 CPSOPST       4 000003C4 FFFFFFEC     F    3269  3498   3498
 CPSPORT       8 00000354 FFFFFFEC     C    2833  2953   2953
 CPSQFLG       1 000003EC FFFFFFEC     R    3298  3302
 CPSSFLG       1 000003BB FFFFFFEC     R    3108  3112   3117   3122   3127   3132   3137
 CPSSTART      4 00000344 FFFFFFEC     F    2825  2829   2829   3265   3265   3370   3370   3502   3502
 CPSSTAT       1 0000038F FFFFFFEC     R    3045  3049   3054   3059   3064   3069   3074   3079
 CPSTACF       1 000003BC FFFFFFEC     R    3143  3147   3152   3157   3162   3167   3172   3177   3182
1VARS     (VARS9014) (12:59) (15MAR04) Ordinary Symbol and Literal Cross Reference                                          Page  139
 CPSTART       4 00000000 FFFFFFEC     C    2461  6155   6159
 CPSTFLAG      1 000003EA FFFFFFEC     R    3276  3280   3285   3290
 CPSTYPE       1 0000038C FFFFFFEC     R    2958  2967   2977   2987   2997   3007   3017   3027   3037
 CPSUFLG       1 000003EE FFFFFFEC     R    3313  3317   3322   3327   3332   3337   3342   3347   3352
 CPSUFLG2      1 000003EF FFFFFFEC     R    3358  3362   3367
 CPSVPGM       8 0000039C FFFFFFEC     C    3091  3097   3097
 CPS1ST        4 0000038C FFFFFFEC     F    2955  3500   3500
 CPTEMPP#      1 0000005F FFFFFFEC A   U    4408  4410
 CPTRMFL1      1 00000C7A FFFFFFEC     R    5066  5070   5075   5080   5204   5204
 CPTRMFL2      1 00000C7B FFFFFFEC     R    5086  5090   5095   5100   5105   5110   5115
 CPTRMFL3      1 00000C7C FFFFFFEC     R    5121  5125   5130   5135   5140   5145   5150   5155
 CPTRMFL4      1 00000C7D FFFFFFEC     R    5161  5165   5170   5175   5180   5185   5190   5195
 CPUSED        1 00000FBC FFFFFFEC A   U    6155  6156
 CPVACURS      8 00000AF0 FFFFFFEC     D    4933  4934   4935
 CPVARS       32 000004E4 FFFFFFEC     X    3900 10966  15056  15064  15187  15198  15325  15333  16364  16372  16835
                                                 17118  17129  17471  17706  17714  18056  20073  20081  20171  20179
                                                 23579  23610  23640  24258  24371  24452  24580  24591  24644  24710
                                                 24771  24791
 CPVCURS       8 00000AE0 FFFFFFEC     D    4927  4928   4929
 CPVFLAG       1 00000AC8 FFFFFFEC     R    4728  4732   4737   4742   4747   4752
 CPVFLAG2      1 00000AC9 FFFFFFEC     R    4758  4762   4767   4772   4777   4782   4787
 CPVFLAG3      1 00000ACA FFFFFFEC     R    4793  4797   4802   4807   4812   4817   4822
 CPVFLAG4      1 00000ACB FFFFFFEC     R    4828  4832   4837   4842
 CPVLFLAG      1 00000ACE FFFFFFEC     R    4897  4901   4906   4911
 CPVMODE       1 00000ACC FFFFFFEC     R    4850  4854   4859   4864   4869   4874   4879   4884   4889
 CPVSET#       4 00000844 FFFFFFEC     F    4210  7021M 10968  12236  15057  16365  16732  23318  23371  23404  23878
                                                 24462M
 CPVTWID       2 00000AD0 FFFFFFEC     H    4917  4920   4920
 CPWK1         4 00000D60 FFFFFFEC     F    5601  5616   5639
 CPWK2         4 00000D64 FFFFFFEC     F    5602  5617   5631
 CPWK3         4 00000D68 FFFFFFEC     F    5603  5618   5632
 CPWK4         4 00000D6C FFFFFFEC     F    5604  5619   5633
 CPWK5         4 00000D70 FFFFFFEC     F    5605  5621   5626   5634
 CPWK6         4 00000D74 FFFFFFEC     F    5606  5622   5627   5635   5642   5644
 CPWK7         4 00000D78 FFFFFFEC     F    5607  5620   5636
 CPXFLAG       1 000007FD FFFFFFEC     R    4195  4199
 CPXSTATE      4 000007F8 FFFFFFEC     F    4189  4202   4202
 CPXVSET#      4 00000848 FFFFFFEC     F    4211 23404  24178
 CV         4016 00000000 FFFFFFEE     J    2364  1172U
 CV#PUBV       1 00000002 FFFFFFEE A   U    1593 12115  12635  15751  18951  24037
 CVABSRTN      4 0000088C FFFFFFEE     V    2178  2153
 CVBLANKS    235 000004D8 FFFFFFEE     C    1958 22943
 CVBRMSK       1 00000751 FFFFFFEE     X    2094  2095   2096
 CVCFLAG       1 00000A00 FFFFFFEE     R    2259  2263   2268   2273   2278   2283
 CVCHKST       8 000009F0 FFFFFFEE     D    2249  2339   2339
 CVCHKST2      8 00000E28 FFFFFFEE     D    2342  2345   2345
 CVCOMRTN      4 0000087C FFFFFFEE     V    2174  2144
 CVDBGFLG      1 000004CC FFFFFFEE     R    1948  1952
 CVENT         4 0000074C FFFFFFEE     I    2092  6995B  7123B  8519B  8586B  8653B  8720B  8870B  9603B 10055B 10517B
                                                 10914B 11322B 11415B 11586B 11718B 11855B 12305B 12812B 13803B 13957B
                                                 14111B 14268B 14494B 14700B 15030B 15135B 15292B 15428B 15605B 15717B
                                                 15840B 16326B 17026B 17661B 18250B 18835B 19494B 19831B 19925B 20049B
                                                 20147B 20316B 20619B 21059B 22035B 22546B 22825B 22913B 23041B 23176B
                                                 23285B 23529B 23829B 24131B 24235B 24323B 24429B 24538B 24869B 24931B
                                                 25017B 25325B 25579B 25680B 26095B 26401B 26714B 26931B 27028B 27124B
 CVENTBR       2 00000750 FFFFFFEE     I    2093  2094
 CVERRMSG      4 000007C8 FFFFFFEE     I    2137  7256B  7292B  7373B  7548B  7596B  7642B  7677B  7732B  7791B  8771B
                                                  9788B  9858B  9963B 10152B 10315B 10420B 10753B 10810B 11942B 12034B
                                                 12248B 12384B 12516B 12907B 12959B 13017B 13047B 14421B 14582B 20204B
1VARS     (VARS9014) (12:59) (15MAR04) Ordinary Symbol and Literal Cross Reference                                          Page  140
 CVERROR       4 000007D6 FFFFFFEE     I    2142  2158B  7329B  7895B  7922B  8024B  8051B  8153B  8180B  8286B  8313B
                                                  9151B  9215B  9308B  9431B  9666B  9840B  9977B 10163B 10297B 10434B
                                                 10663B 10725B
 CVEXIRTN      4 0000077C FFFFFFEE     V    2122  2118
 CVFCHRKBPR
               8 000004C9 FFFFFFEE         1863  1879   1879
 CVFCHRKBSE
               4 000004C9 FFFFFFEE         1868  1879   1879
 CVFCHRKCPR
               2 000004C9 FFFFFFEE         1885  1901   1901
 CVFCHRKCSE
               1 000004C9 FFFFFFEE         1890  1901   1901
 CVFCHRUBPR
             128 000004C9 FFFFFFEE         1819  1835   1835
 CVFCHRUBSE
              64 000004C9 FFFFFFEE         1824  1835   1835
 CVFCHRUCPR
              32 000004C9 FFFFFFEE         1841  1857   1857
 CVFCHRUCSE
              16 000004C9 FFFFFFEE         1846  1857   1857
 CVFL          1 000004C4 FFFFFFEE     R    1615  1619   1624   1629   1634   1639   1644   1649   1654
 CVFL2         1 000004C5 FFFFFFEE     R    1660  1664   1669   1674   1679   1684   1689   1694   1699
 CVFL3         1 000004C6 FFFFFFEE     R    1705  1709   1714   1719   1724   1729   1734   1739   1744
 CVFL4         1 000004C7 FFFFFFEE     R    1750  1754   1759   1764   1769   1774   1779   1784
 CVFL5         1 000004C8 FFFFFFEE     R    1790  1794   1799   1804   1809
 CVFL6         1 000004C9 FFFFFFEE     R    1815  1819   1824   1836   1841   1846   1858   1863   1868   1880   1885
                                                  1890   1902
 CVHEAP#       1 00000200 FFFFFFEE A   U    1521  1522
 CVINVRTN      4 00000888 FFFFFFEE     V    2177  2147
 CVJESFLG      1 000004CA FFFFFFEE     R    1908  1912
 CVLNKRGS      4 00000780 FFFFFFEE     F    2124  2099M  2125   9018M 19977M 23460M 23673M 23974M
 CVLNKRTN      4 000007B0 FFFFFFEE     U    2125  2114M
 CVLOCK1       1 00000088 FFFFFFEE     R    1266  1270   1275
 CVLOCK2       1 00000089 FFFFFFEE     R    1280  1284
 CVLOCK3       1 0000008A FFFFFFEE     R    1289  1293
 CVLOCK4       1 0000008B FFFFFFEE     R    1298  1302
 CVLOGMOD      1 00000068 FFFFFFEE     R    1253  1257
 CVMACH        1 00000067 FFFFFFEE     R    1213  1217   1222   1227   1232   1237   1242   1247
 CVMILRTN      4 00000884 FFFFFFEE     V    2176  2156
 CVNEXT        4 000007DE FFFFFFEE     I    2144  8348B  9979B 10436B 10820B 11160B 11179B 12179B 13660B
 CVNOARTN      4 00000890 FFFFFFEE     V    2179  2150
 CVNWDATE      4 00000608 FFFFFFEE     F    1981  1985   1985
 CVNWMPG#      1 00000008 FFFFFFEE A   U    1983  1984
 CVPFXRTN      1 00000000 00000000 A   T    2122  2122
 CVPGFLAG      1 00000A01 FFFFFFEE     R    2289  2293   2298   2303
 CVPIOSZ       1 00004F80 FFFFFFEE A   U    1352  1354
 CVPKZERO     12 000005C4 FFFFFFEE     X    1960  7977   8106
 CVPPDBQH      4 0000009C FFFFFFEE     A    1310  1311
 CVPSFNO       1 000003E9 FFFFFFEE A   N    1474  1476
 CVPSLNO       1 000007CF FFFFFFEE A   N    1475  1476
 CVPXSZ        1 00000008 FFFFFFEE A   U    1353  1354
 CVR          12 0000000C 00000001 A   #    1091  1172U
 CVRG16       32 00000360 FFFFFFEE     X    1582 12113  12633  15750  15758  18950  18958  19300  23736
 CVRKEY        1 00000008 FFFFFFEE A   U    2047  2048
 CVSEGRTN      4 00000880 FFFFFFEE     V    2175  2139
 CVSTACK#      1 00000080 FFFFFFEE A   U    1513  1514
 CVSTART       4 00000000 FFFFFFEE     C    1186  2357
 CVTRC         4 00000768 FFFFFFEE     I    2114  2100B  9019B 19978B 23461B 23674B 23975B
 CVTRCRTN      4 00000778 FFFFFFEE     V    2121  2115
1VARS     (VARS9014) (12:59) (15MAR04) Ordinary Symbol and Literal Cross Reference                                          Page  141
 CVUSFNO       1 00000001 FFFFFFEE A   N    1481  1483
 CVUSLNO       1 000003E7 FFFFFFEE A   N    1482  1483
 CVVOL#        1 00000005 FFFFFFEE A   U    2332  2333
 CVWTOFLG      1 000004CB FFFFFFEE     R    1918  1922   1927   1932   1937   1942
 DCLARRAY      2 0000066A 00000001     H    8854  9523
 DCLBOOL     128 00000000 FFFFFFE6         7074  8086   8679M
 DCLLIMIT      1 0000000A FFFFFFE6 A   U    7067  7088   9514
 DCLLIST     352 00000004 FFFFFFE6     X    7088  7179M  7179   7180M  7180   7304   7502   7739   7852   7981   8110
                                                  8243
 DCLNUMB      64 00000000 FFFFFFE6         7079  7957   8612M
 DCLSTR       32 00000000 FFFFFFE6         7084  7823   8215   8545M
 DCLTYPE       1 00000000 FFFFFFE6     R    7070  7074   7079   7084   7189M  7244
 DCLVAR      336 00000184 FFFFFFE6     X    7090  7172   7705   7829   7963   8092   8221
 DCLVDESC     32 00000164 FFFFFFE6     X    7089  7683M  7737
 DCLWA       724 00000000 FFFFFFE6     J    7097  7120   7149U  7153   7161U  8372   8374   8375
 DEBUGSG       1 00000000 00000000 A   T    2075  2075
 DECBOOL       2 000005FC 00000001     H    8639  8468   8483
 DECLARE       2 0000005C 00000001     H    7107  7103
 DECNUMB       2 000005CC 00000001     H    8572  8423   8438   8453
 DECPRT        4 0000045C 00000001     F    8381  9509
 DECSTR        2 0000059C 00000001     H    8505  8393   8408
 DEV          12 00000000 FFFFFFEB     J    4713  4721
 DEVMAX#       1 00000002 FFFFFFEC A   U    4664  4721
 DEVTYPE       1 00000001 FFFFFFEB     R    4681  4690   4700
 DOTTBL        1 00000000 00000000 A   T    2191  2191
 DRENCFLG      1 00000F9F FFFFFFEC     R    6119  6123   6128   6133   6138   6143
 DRENPROT      1 00000F9E FFFFFFEC     R    6106  6114
 DSNON        40 00000E90 FFFFFFEC     C    5839  5840
 DSNWADSN     44 00000E5C FFFFFFEC     C    5826  5827   5828   5829   5838   5846   6077   6083   6085   6091   6094
                                                  6096   6099   6148
 DSNWAF4       1 00000F37 FFFFFFEC     R    5894  5898   5903   5908   5913   5918   5923   5928   5933
 DSNWAF5       1 00000F38 FFFFFFEC     R    5939  5943   5948   5953   5958   5963   5968   5973   5978
 DSNWAF6       1 00000F39 FFFFFFEC     R    5984  5988   5993   5998   6003   6008   6013   6018   6023
 DSNWAF7       1 00000F3A FFFFFFEC     R    6029  6033   6038   6043   6048
 DSNXG         1 00000004 FFFFFFEC A   U    5831  5833
 DSNXGL        1 00000003 FFFFFFEC A   U    5832  5833
 DSNXU         1 00000007 FFFFFFEC A   U    5833  5835
 DSNXUL        1 00000004 FFFFFFEC A   U    5834  5835
 DSSIZ         1 00000108 FFFFFFEC A   U    6077  6085   6094   6099
 DXCUR1        2 00000000 FFFFFFE5     H    8830  8917M  8917   9186M  9201   9207   9216   9218M  9278M  9293   9299
                                                  9309   9311M  9400M  9415   9421   9432   9434M
 DXCUR2        2 00000002 FFFFFFE5     H    8831  8924M  8924   9257M  9272   9300   9317   9319M  9379M  9394   9422
                                                  9440   9442M
 DXCUR3        2 00000004 FFFFFFE5     H    8832  8931M  8931   9358M  9373   9423   9448   9450M
 DXDIM1        2 00000006 FFFFFFE5     H    8833  8933M  8981   9201   9293   9415
 DXDIM2        2 00000008 FFFFFFE5     H    8834  8934M  8982   9180   9272   9394
 DXDIM3        2 0000000A FFFFFFE5     H    8835  8935M  8983   9251   9352   9373
 DXELEM      336 0000015C FFFFFFE5     X    8837  9154
 DXNAME      336 0000000C FFFFFFE5     X    8836  8936   8966   9042   9077   9112   9142   9162   9163   9165
 DXVAL       336 000002AC FFFFFFE5     X    8838  8959   8960   9026   9209   9302   9425
 DXWA       1020 00000000 FFFFFFE5     J    8845  8867   8896U  9484   9486   9487
 EBCTBL        1 00000000 00000000 A   T    2187  2187
 EBCTBL7       1 00000000 00000000 A   T    2190  2190
 ECBLIST       1 00000000 00000000 A   T    2050  2050
 EPARTBL       1 00000000 00000000 A   T    2182  2182
 EVALEXPR      1 00000000 0000000C     T   12693 12693
 EVALINT       1 00000000 00000020     T   22773 22773
 FSR           0 00000000 00000001 A   #    1001  6990   7040M  7117   8372M  8514   8561M  8581   8628M  8648   8695M
                                                  8715   8786M  8864   9484M  9597  10003M 10049  10460M 10511  10845M
1VARS     (VARS9014) (12:59) (15MAR04) Ordinary Symbol and Literal Cross Reference                                          Page  142
                                                 10908  11200M 11317  11388M 11410  11559M 11581  11691M 11713  11823M
                                                 11850  12272M 12300  12646M 12661M 12806  13681M 13798  13929M 13952
                                                 14083M 14106  14240M 14263  14444M 14489  14601M 14695  14989M 15025
                                                 15087M 15130  15244M 15287  15356M 15422  15557M 15600  15669M 15712
                                                 15781M 15835  16254M 16320  16970M 17020  17606M 17655  18191M 18244
                                                 18780M 18829  19435M 19489  19690M 19826  19871M 19886M 19920  20004M
                                                 20044  20104M 20142  20245M 20310  20541M 20613  20978M 21053  21939M
                                                 21959M 22029  22497M 22541  22738M 22820  22876M 22908  23004M 23036
                                                 23140M 23171  23240M 23279  23469M 23489M 23524  23765M 23780M 23824
                                                 24066M 24081M 24126  24182M 24197M 24230  24282M 24318  24397M 24424
                                                 24482M 24532  24820M 24864  24906M 24926  24968M 25012  25270M 25285M
                                                 25320  25533M 25574  25640M 25675  26020M 26089  26352M 26396  26667M
                                                 26709  26892M 26926  26989M 27023  27086M 27119  27244M
 GETADESC      2 00003768 00000001     H   22532 22528  22764
 GETADONE      2 000031FC 00000001     H   20521 20449B 20462B
 GETARRAY      2 00003116 00000001     H   20300 14627  20296
 GETDATA       2 00002FD0 00000001     H   19817 19813
 GETDATA       1 00000000 00000013     T   12721 12721
 GETGVAR       2 00001FC2 00000001     H   15278 15274  19753
 GETLVAR       2 00001F1A 00000001     H   15016 19751
 GETNVAR       2 0000207A 00000001     H   15591 15587  19755
 GETPVAR       2 000020C4 00000001     H   15703 15699  19756
 GETSUBS       2 0000335A 00000001     H   21043 21039  27280
 GETSVAR       2 0000200C 00000001     H   15412 15408  19754
 GETVAR        2 00001E76 00000001     H   14686  9521  14682  22783
 GETVAR        1 00000000 00000017     T   14619 14619
 GETVRG        2 00003AE8 00000001     H   23515  9524
 GETVSET       2 00003B8C 00000001     H   23815  9525
 GETVSTK       2 0000307A 00000001     H   20035 20031
 GETXVAR       2 00001F64 00000001     H   15121 15117  19752
 GETXVSET      2 00003C32 00000001     H   24117 12714  19760  27265
 GSSUB1        2 00000000 FFFFFFDC     H   21022 21105M 21105  21328  21484  21928
 GSSUB2        2 00000002 FFFFFFDC     H   21023 21112M 21112  21929
 GSSUB3        2 00000004 FFFFFFDC     H   21024 21119M 21119  21930
 GSVARRTN      4 00000000 FFFFFFE0     A   15394 15470  15502
 GSVVALUE    336 00000004 FFFFFFE0     X   15395 15500
 GSVWA       340 00000000 FFFFFFE0     J   15402 15425  15454U 15557  15559  15560
 GSWA          6 00000000 FFFFFFDC     J   21031 21056  21085U 21959  21961  21962
 GTNEWSET      2 00003A5A 00000001     H   23269 23265
 GTVARRTN      1 00000000 0000001A     T   19761 19761
 GYARRAY     336 00000008 FFFFFFDE     X   20282 20422  20423  20443  20456  20466  20484
 GYELEM      336 00000158 FFFFFFDE     X   20283 20465  20497
 GYNAME        4 00000004 FFFFFFDE     F   20281 20356M 20359  20444  20457  20467
 GYVALUE       4 00000000 FFFFFFDE     F   20280 20355M 20494
 GYWA        680 00000000 FFFFFFDE     J   20290 20313  20342U 20541  20543  20544
 HIBAL         1 00000000 FFFFFFFF     J     691   707    720    733    746    759    772    785    798    811    824
                                                   837    850    863    876    889    902
 INITBASE      2 00003D2C 00000001     H   24522  9508  14633  24518
 INITVARS      2 00000024 00000001     H    6981  6977
 INVALID       1 00000000 00000000 A   T    2177  2177
 JCBAFL        1 00000062 FFFFFFE9     R    6425  6429   6434   6439   6444   6449   6454   6459   6464
 JCBBFL        1 00000063 FFFFFFE9     R    6470  6474   6479   6484   6489   6494   6499   6504
 JCBBILLX      8 00000088 FFFFFFE9     D    6555  6563   6563
 JCBRSCF1      1 00000064 FFFFFFE9     R    6510  6514   6519   6524
 JCBSFLG1      1 00000065 FFFFFFE9     R    6530  6534   6539
 JCBWFL        1 00000060 FFFFFFE9     R    6354  6358   6363   6368   6373   6378   6383   6388   6393   6421
 JCBWWFL       1 00000061 FFFFFFE9     R    6399  6403   6408   6413   6418
 LOWTBL        1 00000000 00000000 A   T    2185  2185
 LRTRIM        1 00000000 00000006     T    9512  9512
1VARS     (VARS9014) (12:59) (15MAR04) Ordinary Symbol and Literal Cross Reference                                          Page  143
 LSR           8 00000008 00000001 A   #    1039  6990   7040M  7117   8372M  8514   8561M  8581   8628M  8648   8695M
                                                  8715   8786M  8864   9484M  9597  10003M 10049  10460M 10511  10845M
                                                 10908  11200M 11317  11388M 11410  11559M 11581  11691M 11713  11823M
                                                 11850  12272M 12300  12661M 12806  13681M 13798  13929M 13952  14083M
                                                 14106  14240M 14263  14444M 14489  14601M 14695  14989M 15025  15087M
                                                 15130  15244M 15287  15356M 15422  15557M 15600  15669M 15712  15781M
                                                 15835  16254M 16320  16970M 17020  17606M 17655  18191M 18244  18780M
                                                 18829  19435M 19489  19690M 19826  19886M 19920  20004M 20044  20104M
                                                 20142  20245M 20310  20541M 20613  20978M 21053  21959M 22029  22497M
                                                 22541  22738M 22820  22876M 22908  23004M 23036  23140M 23171  23240M
                                                 23279  23489M 23524  23780M 23824  24081M 24126  24197M 24230  24282M
                                                 24318  24397M 24424  24482M 24532  24820M 24864  24906M 24926  24968M
                                                 25012  25285M 25320  25533M 25574  25640M 25675  26020M 26089  26352M
                                                 26396  26667M 26709  26892M 26926  26989M 27023  27086M 27119  27244M
 MAKEBOOL      1 00000000 0000001D     T   19774 19774  22769
 MAKEITOD      1 00000000 00000021     T   27259 27259
 MAKENUMB      1 00000000 0000001B     T   19772 19772  22767
 MAKESTR       1 00000000 0000001C     T   19773 19773  22768  27289
 MALL          1 00000000 00000003     T    8497  8497  11298  13779
 MAXSET        1 00007D00 00000001 A   U    6604 27264
 MAXSTRLN      1 00000100 FFFFFFE8 A   N    6908  6909   6953
 MILERR        1 00000000 00000000 A   T    2176  2176
 MPARM         1 00000000 00000008     T   11223 11223  11238  11253  11268
 MPINT         1 00000000 00000014     T   13704 13704  13719  13734
 MTOKEN        1 00000000 00000002     T    8392  8392   8407   8422   8437   8452   8467   8482  13749
 NBLTBL        1 00000000 00000000 A   T    2189  2189
 NL            1 0000000C FFFFFFE8 A   N    6907  7978   8107  16791  16793  16822M
 NOACTION      1 00000000 00000000 A   T    2179  2179
 NOTRESVD      2 00002CB2 00000001     H   19675 19665B
 NOTVALID      1 00000000 0000000A     T   11299 11299  13780
 NOTYPE        2 0000062C 00000001     H    8706  8498
 NPARTBL       1 00000000 00000000 A   T    2183  2183
 NSCAN         1 00000000 00000004     T    9510  9510  12694  14625  27281
 NSCNCB      176 00000000 FFFFFFED     J    2448  2574   7200   7201   7202   7205M  7206M  7208M  7218M  7219M  7220M
                                                  7266   7267   9653   9654   9877M  9878M  9893   9894   9895   9898M
                                                  9899M  9900M  9910M  9911M  9912M 10105  10106  10334M 10335M 10350
                                                 10351  10352  10355M 10356M 10357M 10367M 10368M 10369M 10560  10561
                                                 11010  11011  11012  11015M 11016M 11018M 11028M 11029M 11030M 12879
                                                 12880  12981M 12982M 13106  13107  13108  13111M 13112M 13114M 13124M
                                                 13125M 13126M 25362M 25363M 25378  25379  25380  25383M 25384M 25385M
                                                 25395M 25396M 25397M 25402
 NSCNFLGS      1 00000008 FFFFFFED     R    2385  2389   2394
 NSCNKWS       4 00000028 FFFFFFED     A    2434  7200   7208M  7218M  9893   9900M  9910M 10350  10357M 10367M 11010
                                                 11018M 11028M 13106  13114M 13124M 25378  25385M 25395M
 NSCNLEN       4 00000004 FFFFFFED     F    2382  7267   9654   9878M 10106  10335M 10561  12880  12982M 25363M
 NSCNLOC       4 00000000 FFFFFFED     A    2381  7266   9653   9877M 10105  10334M 10560  12879  12981M 25362M
 NSCNSKIP      4 00000024 FFFFFFED     A    2433  7201   7205M  7219M  9894   9898M  9911M 10351  10355M 10368M 11011
                                                 11015M 11029M 13107  13111M 13125M 25379  25383M 25396M
 NSCNSTOP      4 00000020 FFFFFFED     A    2432  7202   7206M  7220M  9895   9899M  9912M 10352  10356M 10369M 11012
                                                 11016M 11030M 13108  13112M 13126M 25380  25384M 25397M
 NSCNTOK      16 00000030 FFFFFFED     C    2436 25402
 NSCNTYPE      1 00000018 FFFFFFED     R    2403  2407   2412   2417   2422   2427
 OLDSETV       2 00000C82 00000001     H   10039 10035
 RAR          14 0000000E 00000001 A   #    1117  2114   2115M  2116B  2118M  2119B  2139M  2140B  2144M  2145B  2147M
                                                  2148B  2150M  2151B  2153M  2154B  2156M  2157M  2157B  2163   6987
                                                  7018M  7019M  7019B  7042M  7045B  7114   7211M  7212M  7212B  7225M
                                                  7226M  7226B  7299M  7300M  7300B  7327M  7328M  7328B  7365M  7366M
                                                  7366B  7540M  7541M  7541B  7588M  7589M  7589B  7654M  7655M  7655B
                                                  7669M  7670M  7670B  7709M  7710M  7710B  7724M  7725M  7725B  7783M
1VARS     (VARS9014) (12:59) (15MAR04) Ordinary Symbol and Literal Cross Reference                                          Page  144
                                                  7784M  7784B  7893M  7894M  7894B  7920M  7921M  7921B  8022M  8023M
                                                  8023B  8049M  8050M  8050B  8151M  8152M  8152B  8178M  8179M  8179B
                                                  8284M  8285M  8285B  8311M  8312M  8312B  8374M  8377B  8511   8563M
                                                  8566B  8578   8630M  8633B  8645   8697M  8700B  8712   8763M  8764M
                                                  8764B  8788M  8791B  8861   8987M  8988M  8988B  8993M  8994M  8994B
                                                  9149M  9150M  9150B  9213M  9214M  9214B  9306M  9307M  9307B  9429M
                                                  9430M  9430B  9486M  9489B  9594   9664M  9665M  9665B  9838M  9839M
                                                  9839B  9903M  9904M  9904B  9917M  9918M  9918B  9955M  9956M  9956B
                                                  9975M  9976M  9976B 10005M 10008B 10046  10115M 10116M 10116B 10144M
                                                 10145M 10145B 10161M 10162M 10162B 10295M 10296M 10296B 10360M 10361M
                                                 10361B 10374M 10375M 10375B 10412M 10413M 10413B 10432M 10433M 10433B
                                                 10462M 10465B 10508  10577M 10578M 10578B 10599M 10600M 10600B 10639M
                                                 10640M 10640B 10716M 10717M 10717B 10723M 10724M 10724B 10847M 10850B
                                                 10905  11021M 11022M 11022B 11035M 11036M 11036B 11043M 11044M 11044B
                                                 11054M 11055M 11055B 11133M 11134M 11134B 11158M 11159M 11159B 11171M
                                                 11172M 11172B 11202M 11205B 11314  11364M 11365M 11365B 11368M 11369M
                                                 11369B 11390M 11393B 11407  11457M 11458M 11458B 11461M 11462M 11462B
                                                 11561M 11564B 11578  11628M 11629M 11629B 11632M 11633M 11633B 11693M
                                                 11696B 11710  11760M 11761M 11761B 11764M 11765M 11765B 11825M 11828B
                                                 11847  11899M 11900M 11900B 11955M 11956M 11956B 12189M 12190M 12190B
                                                 12274M 12277B 12297  12397M 12398M 12398B 12663M 12666B 12803  12888M
                                                 12889M 12889B 12951M 12952M 12952B 12994M 12995M 12995B 13009M 13010M
                                                 13010B 13039M 13040M 13040B 13054M 13055M 13055B 13079M 13080M 13080B
                                                 13117M 13118M 13118B 13131M 13132M 13132B 13256M 13257M 13257B 13280M
                                                 13281M 13281B 13305M 13306M 13306B 13401M 13402M 13402B 13425M 13426M
                                                 13426B 13450M 13451M 13451B 13576M 13577M 13577B 13600M 13601M 13601B
                                                 13625M 13626M 13626B 13683M 13686B 13795  13931M 13934B 13949  14085M
                                                 14088B 14103  14242M 14245B 14260  14413M 14414M 14414B 14446M 14449B
                                                 14486  14555M 14556M 14556B 14603M 14606B 14692  14779M 14780M 14780B
                                                 14813M 14814M 14814B 14847M 14848M 14848B 14881M 14882M 14882B 14915M
                                                 14916M 14916B 14949M 14950M 14950B 14991M 14994B 15022  15060M 15061M
                                                 15061B 15070M 15071M 15071B 15089M 15092B 15127  15190M 15191M 15191B
                                                 15194M 15195M 15195B 15204M 15205M 15205B 15246M 15249B 15284  15329M
                                                 15330M 15330B 15339M 15340M 15340B 15358M 15361B 15419  15474M 15475M
                                                 15475B 15559M 15562B 15597  15642M 15643M 15643B 15652M 15653M 15653B
                                                 15671M 15674B 15709  15754M 15755M 15755B 15764M 15765M 15765B 15783M
                                                 15786B 15832  15910M 15911M 15911B 15963M 15964M 15964B 16016M 16017M
                                                 16017B 16052M 16053M 16053B 16070M 16071M 16071B 16122M 16123M 16123B
                                                 16175M 16176M 16176B 16214M 16215M 16215B 16256M 16259B 16317  16368M
                                                 16369M 16369B 16378M 16379M 16379B 16416M 16417M 16417B 16434M 16435M
                                                 16435B 16465M 16466M 16466B 16480M 16481M 16481B 16498M 16499M 16499B
                                                 16545M 16546M 16546B 16563M 16564M 16564B 16597M 16598M 16598B 16629M
                                                 16630M 16630B 16661M 16662M 16662B 16715M 16716M 16716B 16882M 16883M
                                                 16883B 16914M 16915M 16915B 16972M 16975B 17017  17090M 17091M 17091B
                                                 17108M 17109M 17109B 17121M 17122M 17122B 17125M 17126M 17126B 17135M
                                                 17136M 17136B 17173M 17174M 17174B 17191M 17192M 17192B 17222M 17223M
                                                 17223B 17237M 17238M 17238B 17255M 17256M 17256B 17303M 17304M 17304B
                                                 17321M 17322M 17322B 17355M 17356M 17356B 17387M 17388M 17388B 17419M
                                                 17420M 17420B 17518M 17519M 17519B 17550M 17551M 17551B 17608M 17611B
                                                 17652  17710M 17711M 17711B 17720M 17721M 17721B 17758M 17759M 17759B
                                                 17776M 17777M 17777B 17807M 17808M 17808B 17822M 17823M 17823B 17840M
                                                 17841M 17841B 17888M 17889M 17889B 17906M 17907M 17907B 17940M 17941M
                                                 17941B 17972M 17973M 17973B 18004M 18005M 18005B 18103M 18104M 18104B
                                                 18135M 18136M 18136B 18193M 18196B 18241  18299M 18300M 18300B 18309M
                                                 18310M 18310B 18347M 18348M 18348B 18365M 18366M 18366B 18396M 18397M
                                                 18397B 18411M 18412M 18412B 18429M 18430M 18430B 18477M 18478M 18478B
                                                 18495M 18496M 18496B 18529M 18530M 18530B 18561M 18562M 18562B 18593M
                                                 18594M 18594B 18692M 18693M 18693B 18724M 18725M 18725B 18782M 18785B
                                                 18826  18940M 18941M 18941B 18954M 18955M 18955B 18964M 18965M 18965B
1VARS     (VARS9014) (12:59) (15MAR04) Ordinary Symbol and Literal Cross Reference                                          Page  145
                                                 19002M 19003M 19003B 19020M 19021M 19021B 19051M 19052M 19052B 19066M
                                                 19067M 19067B 19084M 19085M 19085B 19132M 19133M 19133B 19150M 19151M
                                                 19151B 19184M 19185M 19185B 19216M 19217M 19217B 19248M 19249M 19249B
                                                 19347M 19348M 19348B 19379M 19380M 19380B 19437M 19440B 19486  19692M
                                                 19695B 19823  19859M 19860M 19860B 19867M 19868M 19868B 19888M 19891B
                                                 19917  19953M 19954M 19954B 19961M 19962M 19962B 20006M 20009B 20041
                                                 20077M 20078M 20078B 20087M 20088M 20088B 20106M 20109B 20139  20175M
                                                 20176M 20176B 20185M 20186M 20186B 20247M 20250B 20307  20447M 20448M
                                                 20448B 20460M 20461M 20461B 20489M 20490M 20490B 20500M 20501M 20501B
                                                 20543M 20546B 20610  20693M 20694M 20694B 20702M 20703M 20703B 20726M
                                                 20727M 20727B 20758M 20759M 20759B 20790M 20791M 20791B 20858M 20859M
                                                 20859B 20890M 20891M 20891B 20922M 20923M 20923B 20980M 20983B 21050
                                                 21193M 21194M 21194B 21211M 21212M 21212B 21294M 21295M 21295B 21312M
                                                 21313M 21313B 21460M 21461M 21461B 21502M 21503M 21503B 21529M 21530M
                                                 21530B 21568M 21569M 21569B 21603M 21604M 21604B 21645M 21646M 21646B
                                                 21649M 21650M 21650B 21675M 21676M 21676B 21715M 21716M 21716B 21719M
                                                 21720M 21720B 21759M 21760M 21760B 21777M 21778M 21778B 21782M 21783M
                                                 21783B 21841M 21842M 21842B 21887M 21888M 21888B 21905M 21906M 21906B
                                                 21961M 21964B 22026  22222M 22223M 22223B 22266M 22267M 22267B 22293M
                                                 22294M 22294B 22336M 22337M 22337B 22380M 22381M 22381B 22408M 22409M
                                                 22409B 22436M 22437M 22437B 22464M 22465M 22465B 22499M 22502B 22538
                                                 22607M 22608M 22608B 22656M 22657M 22657B 22674M 22675M 22675B 22698M
                                                 22699M 22699B 22716M 22717M 22717B 22740M 22743B 22817  22878M 22881B
                                                 22905  23006M 23009B 23033  23142M 23145B 23168  23217M 23218M 23218B
                                                 23242M 23245B 23276  23491M 23494B 23521  23782M 23785B 23821  23910M
                                                 23911M 23911B 24083M 24086B 24123  24199M 24202B 24227  24261M 24262M
                                                 24262B 24284M 24287B 24315  24376M 24377M 24377B 24399M 24402B 24421
                                                 24457M 24458M 24458B 24484M 24487B 24529  24584M 24585M 24585B 24595M
                                                 24596M 24596B 24650M 24651M 24651B 24716M 24717M 24717B 24777M 24778M
                                                 24778B 24794M 24795M 24795B 24822M 24825B 24861  24908M 24911B 24923
                                                 24970M 24973B 25009  25042M 25043M 25043B 25087M 25088M 25088B 25122M
                                                 25123M 25123B 25140M 25141M 25141B 25258M 25259M 25259B 25287M 25290B
                                                 25317  25388M 25389M 25389B 25535M 25538B 25571  25602M 25603M 25603B
                                                 25620M 25621M 25621B 25624M 25625M 25625B 25642M 25645B 25672  25762M
                                                 25763M 25763B 25808M 25809M 25809B 25854M 25855M 25855B 25900M 25901M
                                                 25901B 25946M 25947M 25947B 26003M 26004M 26004B 26022M 26025B 26086
                                                 26172M 26173M 26173B 26218M 26219M 26219B 26244M 26245M 26245B 26262M
                                                 26263M 26263B 26282M 26283M 26283B 26308M 26309M 26309B 26330M 26331M
                                                 26331B 26354M 26357B 26393  26438M 26439M 26439B 26458M 26459M 26459B
                                                 26481M 26482M 26482B 26517M 26518M 26518B 26540M 26541M 26541B 26580M
                                                 26581M 26581B 26603M 26604M 26604B 26625M 26626M 26626B 26645M 26646M
                                                 26646B 26650M 26651M 26651B 26669M 26672B 26706  26791M 26792M 26792B
                                                 26813M 26814M 26814B 26835M 26836M 26836B 26853M 26854M 26854B 26857M
                                                 26858M 26858B 26875M 26876M 26876B 26894M 26897B 26923  26968M 26969M
                                                 26969B 26972M 26973M 26973B 26991M 26994B 27020  27065M 27066M 27066B
                                                 27069M 27070M 27070B 27088M 27091B 27116  27201M 27202M 27202B 27209M
                                                 27210M 27210B 27227M 27228M 27228B 27246M 27249B
 RESVD         2 00002CB0 00000001     H   19668 19529B 19532B 19535B 19538B 19541B 19544B 19547B 19550B 19553B 19556B
                                                 19559B 19562B 19565B 19568B 19571B 19574B 19577B 19580B 19583B 19586B
                                                 19589B 19592B 19595B 19598B 19601B 19604B 19607B 19610B 19613B 19616B
                                                 19619B 19622B 19625B 19628B 19631B 19634B 19637B 19640B 19643B 19646B
                                                 19649B 19652B 19655B 19658B 19661B 19664B
 R0            0 00000000 FFFFFFFF A   #     699  2099   2168M  7020M  7021   7196M  7196   7205   7206   7255M  7267M
                                                  7280M  7280   7291M  7319M  7319   7354M  7372M  7404M  7404   7414M
                                                  7443M  7443   7453M  7481M  7481   7490M  7490   7547M  7595M  7641M
                                                  7676M  7731M  7790M  7850M  7979M  8108M  8770M  8989   8995   9018
                                                  9144M  9208M  9301M  9424M  9654M  9694M  9694   9704M  9737M  9737
                                                  9747M  9776M  9776   9787M  9816M  9816   9826M  9857M  9878   9889M
                                                  9889   9898   9899   9900   9927M  9927   9962M  9970M 10106M 10133M
1VARS     (VARS9014) (12:59) (15MAR04) Ordinary Symbol and Literal Cross Reference                                          Page  146
                                                 10151M 10191M 10191  10201M 10234M 10234  10244M 10273M 10273  10283M
                                                 10314M 10335  10346M 10346  10355  10356  10357  10384M 10384  10419M
                                                 10427M 10561M 10611M 10611  10632M 10678M 10678  10698  10699  10699
                                                 10699  10705M 10720M 10752M 10785M 10785  10809M 11006M 11006  11015
                                                 11016  11040M 11049M 11147M 11147  11166M 11361M 11454M 11463  11502
                                                 11625M 11634  11757M 11766  11896M 11941M 11957  11995M 11996  12033M
                                                 12072M 12073  12074M 12075  12113M 12114  12115M 12116  12184M 12247M
                                                 12326  12383M 12399  12457M 12458  12515M 12572M 12573  12574M 12575
                                                 12633M 12634  12635M 12636  12644M 12646  12646M 12732  12732  12732
                                                 12880M 12906M 12940M 12958M 12982  13016M 13046M 13068M 13068  13102M
                                                 13102  13111  13112  13251M 13276M 13294M 13294  13396M 13421M 13439M
                                                 13439  13571M 13596M 13614M 13614  13842  13874  13906  13996  14028
                                                 14060  14150  14151  14183  14184  14216  14217  14402M 14420M 14581M
                                                 15057M 15065M 15199M 15326M 15334M 15470M 15495M 15495  15524M 15528M
                                                 15639M 15647M 15751M 15759M 16059M 16358  16365M 16373M 16423M 16487M
                                                 16552M 16791M 16792M 16805M 16805  16836M 16854M 16855M 16875M 16903M
                                                 17065  17097M 17130M 17180M 17244M 17310M 17472M 17490M 17491M 17511M
                                                 17539M 17700  17707M 17715M 17765M 17829M 17895M 18057M 18075M 18076M
                                                 18096M 18124M 18289  18296M 18304M 18354M 18418M 18484M 18646M 18664M
                                                 18665M 18685M 18713M 18874  18929M 18951M 18959M 19009M 19073M 19139M
                                                 19301M 19319M 19320M 19340M 19368M 19854  19856M 19862M 19871  19871M
                                                 19948  19950M 19956M 19977  20070  20074M 20082M 20168  20172M 20180M
                                                 20203M 20394M 20394  20400  20425M 20443M 20456M 20486M 20495M 20689M
                                                 20698M 20855M 20864M 20882M 20883M 20911M 21147M 21147  21155M 21184M
                                                 21184  21200M 21221M 21249M 21249  21257M 21286M 21286  21301M 21375M
                                                 21375  21383M 21412M 21412  21448M 21448  21622M 21622  21634M 21704M
                                                 21766M 21807M 21831M 21831  21894M 21927M 21939  21939M 22074  22075
                                                 22111M 22123  22135M 22147  22576  22663M 22705M 22944  23079  23080
                                                 23318M 23332  23338M 23365  23371M 23372M 23410M 23451  23460  23469
                                                 23469M 23579M 23610M 23640M 23673  23706M 23736M 23765  23765M 23878M
                                                 23941M 23974  24007M 24037M 24066  24066M 24178M 24179M 24182  24182M
                                                 24357  24453M 24461M 24462  24581M 24592M 24645M 24711M 24772M 24790M
                                                 25076M 25129M 25211M 25211  25221M 25250M 25250  25270  25270M 25363
                                                 25374M 25374  25383  25384  25385  25415  25609M 25751M 25797M 25843M
                                                 25889M 25935M 25992M 26136M 26139M 26161M 26207M 26221M 26251M 26285M
                                                 26319M 26431  26447M 26470M 26470  26506M 26529M 26529  26569M 26592M
                                                 26592  26614M 26634M 26780M 26780  26802M 26824M 26824  26842M 26864M
                                                 26957M 27054M 27190M 27190  27216M
 R1            1 00000001 FFFFFFFF A   #     712  2162M  2163M  2169M  7192M  7205   7206   7208   7254M  7266M  7290M
                                                  7353M  7371M  7412M  7451M  7546M  7594M  7640M  7675M  7705M  7730M
                                                  7789M  7851M  7980M  8109M  8242M  8769M  8961   8996M  8997M  8997
                                                  8998   8999   9009M  9009   9145M  9209M  9302M  9425M  9653M  9702M
                                                  9745M  9786M  9824M  9856M  9877   9885M  9898   9899   9900   9961M
                                                  9971M 10105M 10132M 10150M 10199M 10242M 10281M 10313M 10334  10342M
                                                 10355  10356  10357  10418M 10428M 10560M 10630M 10630  10698  10699
                                                 10699  10699  10704M 10720M 10751M 10808M 10966M 10967  10968M 10969
                                                 11002M 11015  11016  11018  11050M 11167M 11354M 11447M 11618M 11750M
                                                 11889M 11940M 12032M 12185M 12246M 12382M 12401M 12401  12460M 12460
                                                 12514M 12577M 12577  12638M 12638  12646  12732  12732  12732  12879M
                                                 12905M 12933M 12957M 12981  12990M 13015M 13045M 13098M 13111  13112
                                                 13114  13252M 13397M 13572M 14401M 14419M 14580M 15053  15066M 15165
                                                 15200M 15322  15335M 15467  15471M 15499M 15499  15525M 15527  15635
                                                 15648M 15747  15760M 16058M 16359  16374M 16422M 16486M 16551M 16793M
                                                 16794M 16816M 16816  16837M 16902M 17066  17096M 17131M 17179M 17243M
                                                 17309M 17473M 17538M 17701  17716M 17764M 17828M 17894M 18058M 18123M
                                                 18290  18305M 18353M 18417M 18483M 18647M 18712M 18875  18928M 18960M
                                                 19008M 19072M 19138M 19302M 19367M 19871  20202M 20355  20424M 20466M
                                                 20475  20476  20496M 20658  20835M 20844  20845  20865M 20910M 21153M
                                                 21153  21199M 21219M 21219  21255M 21255  21300M 21381M 21381  21633M
1VARS     (VARS9014) (12:59) (15MAR04) Ordinary Symbol and Literal Cross Reference                                          Page  147
                                                 21703M 21765M 21805M 21805  21893M 21925M 21939  22603M 22662M 22704M
                                                 23214  24373M 24454M 24646M 24712M 24773M 25075M 25128M 25219M 25270
                                                 25362  25370M 25383  25384  25385  25401M 25402M 25402  25608M 25750M
                                                 25796M 25842M 25888M 25934M 25985M 26137M 26138  26160M 26206M 26220M
                                                 26250M 26284M 26318M 26446M 26466M 26505M 26525M 26568M 26588M 26613M
                                                 26633M 26801M 26820M 26841M 26863M 26956M 27053M 27215M
 R12          12 0000000C FFFFFFFF A   #     855  2125
 R13          13 0000000D FFFFFFFF A   #     868  7200   7201   7202   7218   7219   7220   9893   9894   9895   9910
                                                  9911   9912  10350  10351  10352  10367  10368  10369  11010  11011
                                                 11012  11028  11029  11030  13106  13107  13108  13124  13125  13126
                                                 25378  25379  25380  25395  25396  25397
 R14          14 0000000E FFFFFFFF A   #     881  2100M  7199M  7200   7201   7202   7207M  7208   7215M  7218   7219
                                                  7220   7265M  7266   7267   7271M  7271   9019M  9652M  9653   9654
                                                  9658M  9658   9876M  9877   9878   9882M  9882   9892M  9893   9894
                                                  9895   9907M  9910   9911   9912  10104M 10105  10106  10110M 10110
                                                 10333M 10334  10335  10339M 10339  10349M 10350  10351  10352  10364M
                                                 10367  10368  10369  10559M 10560  10561  10565M 10565  10980M 11009M
                                                 11010  11011  11012  11017M 11018  11025M 11028  11029  11030  12878M
                                                 12879  12880  12884M 12884  12980M 12981  12982  12986M 12986  13105M
                                                 13106  13107  13108  13113M 13114  13121M 13124  13125  13126  15502M
                                                 15505M 15506M 15506B 19978M 23461M 23674M 23975M 25361M 25362  25363
                                                 25367M 25367  25377M 25378  25379  25380  25392M 25395  25396  25397
 R15          15 0000000F FFFFFFFF A   #     894  2099   7025M  7025   7044M  7044   7221M  7221   7230M  7230   7362M
                                                  8352M  8352   8376M  8376   8546M  8565M  8565   8613M  8632M  8632
                                                  8680M  8699M  8699   8760M  8790M  8790   9018   9464M  9464   9488M
                                                  9488   9913M  9913   9952M  9983M  9983  10007M 10007  10141M 10370M
                                                 10370  10409M 10440M 10440  10464M 10464  10590M 10590  10657M 10657
                                                 10713M 10825M 10825  10849M 10849  10979M 11031M 11031  11039M 11048M
                                                 11155M 11165M 11204M 11204  11345M 11373M 11373  11392M 11392  11438M
                                                 11544M 11544  11563M 11563  11609M 11676M 11676  11695M 11695  11741M
                                                 11808M 11808  11827M 11827  11880M 12276M 12276  12665M 12665  12948M
                                                 13076M 13127M 13127  13302M 13447M 13622M 13685M 13685  13914M 13914
                                                 13933M 13933  14068M 14068  14087M 14087  14225M 14225  14244M 14244
                                                 14410M 14429M 14429  14448M 14448  14560M 14560  14605M 14605  14993M
                                                 14993  15056M 15064M 15091M 15091  15187M 15198M 15224M 15248M 15248
                                                 15325M 15333M 15360M 15360  15486M 15486  15517M 15517  15561M 15561
                                                 15638M 15646M 15673M 15673  15750M 15758M 15785M 15785  16067M 16072M
                                                 16258M 16258  16364M 16372M 16408M 16408  16431M 16436M 16456M 16456
                                                 16495M 16500M 16520M 16520  16560M 16565M 16692M 16692  16835M 16892M
                                                 16892  16911M 16916M 16930M 16930  16947M 16947  16974M 16974  17105M
                                                 17110M 17118M 17129M 17165M 17165  17188M 17193M 17213M 17213  17252M
                                                 17257M 17277M 17277  17318M 17323M 17450M 17450  17471M 17528M 17528
                                                 17547M 17552M 17566M 17566  17583M 17583  17610M 17610  17706M 17714M
                                                 17750M 17750  17773M 17778M 17798M 17798  17837M 17842M 17862M 17862
                                                 17903M 17908M 18035M 18035  18056M 18113M 18113  18132M 18137M 18151M
                                                 18151  18168M 18168  18195M 18195  18295M 18303M 18339M 18339  18362M
                                                 18367M 18387M 18387  18426M 18431M 18451M 18451  18492M 18497M 18624M
                                                 18624  18645M 18702M 18702  18721M 18726M 18740M 18740  18757M 18757
                                                 18784M 18784  18937M 18942M 18950M 18958M 18994M 18994  19017M 19022M
                                                 19042M 19042  19081M 19086M 19106M 19106  19147M 19152M 19279M 19279
                                                 19300M 19357M 19357  19376M 19381M 19395M 19395  19412M 19412  19439M
                                                 19439  19524M 19672M 19672  19694M 19694  19855M 19861M 19890M 19890
                                                 19949M 19955M 19977  19989M 19989  20008M 20008  20073M 20081M 20108M
                                                 20108  20171M 20179M 20230M 20230  20249M 20249  20485M 20493M 20545M
                                                 20545  20821M 20821  20854M 20862M 20900M 20900  20919M 20924M 20938M
                                                 20938  20955M 20955  20982M 20982  21208M 21213M 21309M 21314M 21418M
                                                 21477M 21477  21559M 21559  21594M 21594  21642M 21712M 21774M 21902M
                                                 21907M 21934M 21934  21963M 21963  22474M 22474  22501M 22501  22638M
                                                 22638  22671M 22676M 22713M 22718M 22742M 22742  22880M 22880  23008M
1VARS     (VARS9014) (12:59) (15MAR04) Ordinary Symbol and Literal Cross Reference                                          Page  148
                                                 23008  23144M 23144  23244M 23244  23460  23493M 23493  23673  23763M
                                                 23763  23784M 23784  23974  24064M 24064  24085M 24085  24201M 24201
                                                 24258M 24267M 24267  24286M 24286  24371M 24382M 24382  24401M 24401
                                                 24452M 24467M 24467  24486M 24486  24580M 24587  24591M 24644M 24710M
                                                 24771M 24789M 24790  24791M 24800M 24800  24824M 24824  24910M 24910
                                                 24972M 24972  25065  25084M 25089M 25114  25137M 25142M 25185M 25185
                                                 25289M 25289  25398M 25398  25506M 25506  25537M 25537  25617M 25644M
                                                 25644  25759M 25805M 25851M 25897M 25943M 26000M 26024M 26024  26169M
                                                 26215M 26241M 26259M 26305M 26327M 26356M 26356  26455M 26478M 26514M
                                                 26537M 26577M 26600M 26622M 26642M 26671M 26671  26788M 26810M 26832M
                                                 26850M 26872M 26877M 26896M 26896  26965M 26974M 26993M 26993  27062M
                                                 27071M 27090M 27090  27198M 27224M 27229M 27248M 27248
 R2            2 00000002 FFFFFFFF A   #     725  7304M  7330M  7330   7502M  7522   7751   7806M  7806   7852M  7872
                                                  7927M  7927   7981M  8001   8056M  8056   8110M  8130   8185M  8185
                                                  8243M  8263   8318M  8318   8932   8937   8959M  8963M  8984M  8990M
                                                  9146M  9210M  9303M  9426M  9661M  9835M  9972M 10158M 10292M 10429M
                                                 10574M 10977M 10980M 11051M 11130M 11168M 12186M 12885M 12965M 12966
                                                 12991M 13253M 13277M 13398M 13422M 13573M 13597M 14730  15471  15501
                                                 15523  15870  16360  16375M 16462M 16526M 16542M 16717M 16838M 17067
                                                 17132M 17219M 17283M 17300M 17474M 17702  17717M 17804M 17868M 17885M
                                                 18059M 18291  18306M 18393M 18457M 18474M 18648M 18876  18961M 19048M
                                                 19112M 19129M 19303M 19522U 20356  20444M 20457M 20467M 20478  20479
                                                 20480  20481  20497M 20659  20690M 20699M 20708M 20836M 20847  20848
                                                 20849  20850  20866M 21098  21190M 21483  21493M 21493  21499M 21520
                                                 21526M 21565M 21600M 21628M 21672M 21698M 21779M 21838M 21884M 22076
                                                 22579  22604M 22941U 23069U 23204U 23557U 23857U 24606M 24609M 24647M
                                                 24667M 24670M 24713M 24733M 24736M 24774M 25426M 25442  25454  25466
                                                 25710  26139M 26279M 26432  26435M 26647M
 R3            3 00000003 FFFFFFFF A   #     738  7308M  7308   7331M  7331   7343   7739M  7751   7757   7769   7800M
                                                  7800   7977M  7978   8106M  8107   8960M  8962   9216M  9217M  9217
                                                  9218   9309M  9310M  9310   9311   9317M  9318M  9318   9319   9432M
                                                  9433M  9433   9434   9440M  9441M  9441   9442   9448M  9449M  9449
                                                  9450  10978M 11463M 11467M 11476M 11476  11483  11502M 11506M 11515M
                                                 11515  11522  11634M 11638M 11647M 11647  11654  11766M 11770M 11779M
                                                 11779  11786  12326M 12342  12400M 12432  12459M 12491  12547  12576M
                                                 12608  12637M 12644  13308M 13309M 13309  13310  13453M 13454M 13454
                                                 13455  13461M 13462M 13462  13463  13628M 13629M 13629  13630  13636M
                                                 13637M 13637  13638  13644M 13645M 13645  13646  14324M 14325M 14325
                                                 14326  14377M 14378M 14378  14379  15467M 15524  19854M 19862  19948M
                                                 19956  20074  20172  21327M 21327  21347M 21347  21837M 21837  21865
                                                 22405M 22433M 22461M 22944M 22948M 22957M 22957  22964  23080M 23084M
                                                 23093M 23093  23100  24607M 24668M 24734M 25428M 25442  26138M 26460M
                                                 26466  26519M 26525  26582M 26588  26820
 R4            4 00000004 FFFFFFFF A   #     751  8961M  8963M 10573M 10573  10596M 10596  10741  10769  15526M 15528M
                                                 20070M 20082  20168M 20180  20422M 20425M 21328M 21483  21484M 21484
                                                 24609M 24622M 24622  24636  24642  24652M 24652  24670M 24688M 24688
                                                 24702  24708  24718M 24718  24736M 24749M 24749  24763  24769  24779M
                                                 24779  25429M 25454
 R5            5 00000005 FFFFFFFF A   #     764  7153M  7161U  8962M 10944M 10952U 12842M 12850U 15527M 20423M 20424
                                                 24608M 24669M 24735M 25430M 25466  26432M 26435  26460  26519  26582
                                                 26647
 R6            6 00000006 FFFFFFFF A   #     777  7170U  7172M  7522M  7829M  7872M  7963M  8001M  8092M  8130M  8221M
                                                  8263M  8907U  8932M  8936M  8966M  9026M  9042M  9077M  9112M  9142M
                                                  9154M 10554U 10556M 10961U 10963M 12871U 12875M 12964M 12989M 13083M
                                                 13227M 13349M 13502M 14728U 14730M 15053M 15163U 15165M 15320U 15322M
                                                 15465U 15500M 15633U 15635M 15745U 15747M 15868U 15870M 16361M 16790M
                                                 16833M 17063U 17068M 17469M 17698U 17703M 18054M 18287U 18292M 18643M
                                                 18872U 18877M 19298M 20353U 20359M 20400M 20465M 20484M 20494M 20656U
                                                 20662M 20707M 20834M 20853M 20863M 21096U 21098M 22072U 22074M 22079M
1VARS     (VARS9014) (12:59) (15MAR04) Ordinary Symbol and Literal Cross Reference                                          Page  149
                                                 22103M 22107M 22574U 22576M 24575U 24577M 25708U 25710M 26132U 26134M
                                                 26429U 26431M
 R7            7 00000007 FFFFFFFF A   #     790  2092M  2092   2093B  2105B
 R8            8 00000008 FFFFFFFF A   #     803  7149U  8896U  9629U 10081U 10543U 10940U 12838U 12862U 15454U 16352U
                                                 17052U 17687U 18276U 18861U 20342U 20645U 21085U 22061U 23312U 24564U
                                                 26121U
 SAVADONE      2 0000334C 00000001     H   20958 20695B 20704B 20827B 20925B
 SAVARRAY      2 0000320A 00000001     H   20603 19770
 SAVEDATA      2 00003018 00000001     H   19911 19907
 SAVEGVAR      2 000025C0 00000001     H   17645 19764
 SAVELVAR      2 00002202 00000001     H   16310 19762
 SAVENVAR      2 0000275C 00000001     H   18234 19768
 SAVEPVAR      2 000028F8 00000001     H   18819 19769
 SAVEVAR       2 0000210E 00000001     H   15826  9522  12697  15822
 SAVEVSTK      2 000030BC 00000001     H   20133 20129
 SAVEXVAR      2 000023F8 00000001     H   17010 19763
 SAVGDONE      2 0000274E 00000001     H   18171 17779B 17843B 17909B 18041B 18138B
 SAVLDONE      2 000023EA 00000001     H   16950 16437B 16501B 16566B 16698B 16917B
 SAVNDONE      2 000028EA 00000001     H   18760 18368B 18432B 18498B 18630B 18727B
 SAVPDONE      2 00002AB4 00000001     H   19415 18943B 19023B 19087B 19153B 19285B 19382B
 SAVXDONE      2 000025B2 00000001     H   17586 17111B 17194B 17258B 17324B 17456B 17553B
 SCANCHK       1 00000000 00000005     T    9511  9511  12695  14626
 SCNNSW        2 00003F88 00000001     H   25311 12698
 SCNVDESC      2 00003ED4 00000001     H   25003  9513  24999
 SCNVDESC      1 00000000 0000000B     T   12690 12690
 SCNVNAME      1 00000000 00000015     T   14617 14617  27274
 SCUPCASE      1 00000000 00000012     T   12710 12710
 SDSNQSZ       1 0000002C FFFFFFEC A   U    6080  6081   6082
 SEG           1 00000000 00000007     T    9515  9515  12696  14632  19767  22770  27276
 SEGCR         1 00000000 00000010     T   12708 12708  14622  27291
 SEGDC         1 00000000 00000024     T   27290 27290
 SEGELEM       2 0000423A 00000001     H   26387 14628
 SEGT          1 00000000 00000016     T   14618 14618  27288
 SEGVALUE      2 00004174 00000001     H   26079 12699  26075  27283
 SEGVAR        2 00004052 00000001     H   25565 12707  25561
 SEGVAR        1 00000000 00000018     T   14621 14621
 SEGVNAME      2 00004098 00000001     H   25666  9517  14620  19765  22771  25662  27278
 SETVAL        2 00000B10 00000001     H    9587  9583
 SETVTYPE      2 0000127C 00000001     H   11841 12711
 SGVVAR      336 00000000 FFFFFFD9     X   26062 26134
 SGVWA       336 00000000 FFFFFFD9     J   26069 26092  26121U 26352  26354  26355
 SHOWARRY      2 000016F2 00000001     H   12796 12792
 SHOWVAL       2 00000E02 00000001     H   10501 10497
 SHOWVARS      2 00000EF6 00000001     H   10898 10894
 SHVVAL      336 00000000 FFFFFFE3     X   10484 10556
 SHVWA       336 00000000 FFFFFFE3     J   10491 10514  10543U 10845  10847  10848
 SHYAND        2 00001C90 00000001     H   14254 13750
 SHYARRAY    336 0000001C FFFFFFE1     X   12778 12875  12885  12965  12989  12990  12991  13083  13248  13251  13276
                                                 13392  13396  13421  13566  13571  13596
 SHYCUR1       2 00000000 FFFFFFE1     H   12765 13204M 13242  13249  13308  13310M 13350M 13365  13393  13461  13463M
                                                 13503M 13518  13567  13644  13646M
 SHYCUR2       2 00000002 FFFFFFE1     H   12766 13205M 13371M 13386  13394  13453  13455M 13524M 13539  13568  13636
                                                 13638M
 SHYCUR3       2 00000004 FFFFFFE1     H   12767 13206M 13545M 13560  13569  13628  13630M
 SHYDIM1       2 00000012 FFFFFFE1     H   12774 13090M 13147  13153
 SHYDIM2       2 00000014 FFFFFFE1     H   12775 13091M 13170  13176  13221  14318
 SHYDIM3       2 00000016 FFFFFFE1     H   12776 13092M 13193  13199  13343  13496  14371
 SHYDONE       2 00001A6C 00000001     H   13658 13307B 13452B 13627B
 SHYELEM     336 0000016C FFFFFFE1     X   12779 12964  13227  13277  13349  13422  13502  13597
1VARS     (VARS9014) (12:59) (15MAR04) Ordinary Symbol and Literal Cross Reference                                          Page  150
 SHYFROM       2 00001B70 00000001     H   13789 13705
 SHYFRST1      2 00000006 FFFFFFE1     H   12768 13084M 13204  13350  13503  13842M 14150M
 SHYFRST2      2 00000008 FFFFFFE1     H   12769 13085M 13205  13371  13524  13874M 14183M
 SHYFRST3      2 0000000A FFFFFFE1     H   12770 13086M 13206  13545  13906M 14216M
 SHYLAST1      2 0000000C FFFFFFE1     H   12771 13087M 13147  13153M 13242  13365  13518  13996M 14151M
 SHYLAST2      2 0000000E FFFFFFE1     H   12772 13088M 13170  13176M 13386  13539  14028M 14184M
 SHYLAST3      2 00000010 FFFFFFE1     H   12773 13089M 13193  13199M 13560  14060M 14217M
 SHYLIKE       2 00001C28 00000001     H   14097 13735
 SHYPRT        4 00001A80 00000001     F   13693 14624
 SHYSCNCT      4 00000018 FFFFFFE1     F   12777 13095M 13836  13868  13900  13990  14022  14054  14144  14177  14210
                                                 14303  14324  14326M 14356  14377  14379M
 SHYTO         2 00001BCC 00000001     H   13943 13720
 SHYWA       700 00000000 FFFFFFE1     J   12786 12809  12838U 12842  12850U 12862U 13681  13683  13684
 SMALLSUB      2 000043B0 00000001     H   26917 22774
 SPR          13 0000000D 00000001 A   #    1104  6987   6990   6991   6992M  6992   7036M  7040   7042   7114   7117
                                                  7119   7120M  7120   8368M  8372   8374   8511   8514   8515   8516M
                                                  8516   8557M  8561   8563   8578   8581   8582   8583M  8583   8624M
                                                  8628   8630   8645   8648   8649   8650M  8650   8691M  8695   8697
                                                  8712   8715   8716   8717M  8717   8782M  8786   8788   8861   8864
                                                  8866   8867M  8867   9480M  9484   9486   9594   9597   9599   9600M
                                                  9600   9999M 10003  10005  10046  10049  10051  10052M 10052  10456M
                                                 10460  10462  10508  10511  10513  10514M 10514  10841M 10845  10847
                                                 10905  10908  10910  10911M 10911  11196M 11200  11202  11314  11317
                                                 11318  11319M 11319  11384M 11388  11390  11407  11410  11411  11412M
                                                 11412  11555M 11559  11561  11578  11581  11582  11583M 11583  11687M
                                                 11691  11693  11710  11713  11714  11715M 11715  11819M 11823  11825
                                                 11847  11850  11851  11852M 11852  12268M 12272  12274  12297  12300
                                                 12301  12302M 12302  12657M 12661  12663  12803  12806  12808  12809M
                                                 12809  13677M 13681  13683  13795  13798  13799  13800M 13800  13925M
                                                 13929  13931  13949  13952  13953  13954M 13954  14079M 14083  14085
                                                 14103  14106  14107  14108M 14108  14236M 14240  14242  14260  14263
                                                 14264  14265M 14265  14440M 14444  14446  14486  14489  14490  14491M
                                                 14491  14597M 14601  14603  14692  14695  14696  14697M 14697  14985M
                                                 14989  14991  15022  15025  15026  15027M 15027  15083M 15087  15089
                                                 15127  15130  15131  15132M 15132  15240M 15244  15246  15284  15287
                                                 15288  15289M 15289  15352M 15356  15358  15419  15422  15424  15425M
                                                 15425  15553M 15557  15559  15597  15600  15601  15602M 15602  15665M
                                                 15669  15671  15709  15712  15713  15714M 15714  15777M 15781  15783
                                                 15832  15835  15836  15837M 15837  16250M 16254  16256  16317  16320
                                                 16322  16323M 16323  16966M 16970  16972  17017  17020  17022  17023M
                                                 17023  17602M 17606  17608  17652  17655  17657  17658M 17658  18187M
                                                 18191  18193  18241  18244  18246  18247M 18247  18776M 18780  18782
                                                 18826  18829  18831  18832M 18832  19431M 19435  19437  19486  19489
                                                 19490  19491M 19491  19686M 19690  19692  19823  19826  19827  19828M
                                                 19828  19882M 19886  19888  19917  19920  19921  19922M 19922  20000M
                                                 20004  20006  20041  20044  20045  20046M 20046  20100M 20104  20106
                                                 20139  20142  20143  20144M 20144  20241M 20245  20247  20307  20310
                                                 20312  20313M 20313  20537M 20541  20543  20610  20613  20615  20616M
                                                 20616  20974M 20978  20980  21050  21053  21055  21056M 21056  21955M
                                                 21959  21961  22026  22029  22031  22032M 22032  22493M 22497  22499
                                                 22538  22541  22542  22543M 22543  22734M 22738  22740  22817  22820
                                                 22821  22822M 22822  22872M 22876  22878  22905  22908  22909  22910M
                                                 22910  23000M 23004  23006  23033  23036  23037  23038M 23038  23136M
                                                 23140  23142  23168  23171  23172  23173M 23173  23236M 23240  23242
                                                 23276  23279  23281  23282M 23282  23485M 23489  23491  23521  23524
                                                 23525  23526M 23526  23776M 23780  23782  23821  23824  23825  23826M
                                                 23826  24077M 24081  24083  24123  24126  24127  24128M 24128  24193M
                                                 24197  24199  24227  24230  24231  24232M 24232  24278M 24282  24284
                                                 24315  24318  24319  24320M 24320  24393M 24397  24399  24421  24424
1VARS     (VARS9014) (12:59) (15MAR04) Ordinary Symbol and Literal Cross Reference                                          Page  151
                                                 24425  24426M 24426  24478M 24482  24484  24529  24532  24534  24535M
                                                 24535  24816M 24820  24822  24861  24864  24865  24866M 24866  24902M
                                                 24906  24908  24923  24926  24927  24928M 24928  24964M 24968  24970
                                                 25009  25012  25013  25014M 25014  25281M 25285  25287  25317  25320
                                                 25321  25322M 25322  25529M 25533  25535  25571  25574  25575  25576M
                                                 25576  25636M 25640  25642  25672  25675  25676  25677M 25677  26016M
                                                 26020  26022  26086  26089  26091  26092M 26092  26348M 26352  26354
                                                 26393  26396  26397  26398M 26398  26663M 26667  26669  26706  26709
                                                 26710  26711M 26711  26888M 26892  26894  26923  26926  26927  26928M
                                                 26928  26985M 26989  26991  27020  27023  27024  27025M 27025  27082M
                                                 27086  27088  27116  27119  27120  27121M 27121  27240M 27244  27246
 STVNAME     336 00000000 FFFFFFE4     X    9569  9639M  9639   9640M  9640   9661   9972  10091M 10091  10092M 10092
                                                 10158  10429
 STVVAL      336 00000150 FFFFFFE4     X    9570  9647M  9647   9648M  9648   9835   9971  10099M 10099  10100M 10100
                                                 10292  10428
 STVWA       672 00000000 FFFFFFE4     J    9577  9600   9629U 10003  10005  10006  10052  10081U 10460  10462  10463
 SUBLIMIT      1 00000001 00000001 A   U   21034 22779
 SUBSDONE      2 000035F0 00000001     H   21937 21214B 21315B 21504B 21531B 21570B 21605B 21651B 21677B 21721B 21784B
                                                 21843B 21908B
 SVNAME        4 00000008 FFFFFFDF     A   16293 16360M 16375  16462  16542  16717  16838  17067M 17132  17219  17300
                                                 17474  17702M 17717  17804  17885  18059  18291M 18306  18393  18474
                                                 18648  18876M 18961  19048  19129  19303
 SVRFIRST     16 00000008 FFFFFFE2     X   10877 10976M 10976  11047  11490M 11661M
 SVRFROM       2 000011DC 00000001     H   11572 11254
 SVRLAST      16 00000018 FFFFFFE2     X   10878 10977  11080  11529M 11793M
 SVRLIKE       2 0000117E 00000001     H   11401 11239
 SVRPREFX      2 000013B8 00000001     H   12291 12712
 SVRPRT        4 0000104C 00000001     F   11212 12703
 SVRRG         4 00000000 FFFFFFE2     F   10875 10967M 11039  11048  11165  12073M 12114M 12573M 12634M
 SVRSET        4 00000004 FFFFFFE2     F   10876 10969M 11040  11957M 11996M 12075M 12116M 12185  12221  12236  12399M
                                                 12458M 12575M 12636M
 SVRTEMP     336 00000028 FFFFFFE2     X   10879 10963  10987M 10987  10988M 10988
 SVRTO         2 0000122C 00000001     H   11704 11269
 SVRTOK       32 00000178 FFFFFFE2     C   10880 11354  11361  11447  11454  11618  11625  11750  11757  11889  11896
 SVRTRT      256 00000198 FFFFFFE2     X   10881 10995M 10995  10996M 10997M 11086
 SVRTYPE       2 0000113C 00000001     H   11308 11224
 SVRWA       664 00000000 FFFFFFE2     J   10888 10911  10940U 10944  10952U 11200  11202  11203
 SVTEMP      336 0000000C FFFFFFDF     X   16294 16361  17068  17703  18292  18877
 SVVAR         4 00000004 FFFFFFDF     A   16292 16359M 16526  16790  16833  17066M 17283  17469  17701M 17868  18054
                                                 18290M 18457  18643  18875M 19112  19298
 SVVDCL        4 00000000 FFFFFFDF     A   16291 16358M 16394  17065M 17151  17700M 17736  18289M 18325  18874M 18980
 SVWA        348 00000000 FFFFFFDF     J   16301 16323  16352U 16970  16972  16973  17023  17052U 17606  17608  17609
                                                 17658  17687U 18191  18193  18194  18247  18276U 18780  18782  18783
                                                 18832  18861U 19435  19437  19438
 SYARRAY     336 00000008 FFFFFFDD     X   20586 20689  20698  20707  20835  20853
 SYELEM      336 00000158 FFFFFFDD     X   20587 20834  20866
 SYNAME        4 00000004 FFFFFFDD     F   20585 20659M 20662  20690  20699  20836
 SYVALUE       4 00000000 FFFFFFDD     F   20584 20658M 20708  20863
 SYWA        680 00000000 FFFFFFDD     J   20594 20616  20645U 20978  20980  20981
 TRC           1 00000000 00000000 A   T    2121  2121
 TTYFLAG       1 00000004 FFFFFFEA     R    6209  6213
 TTYMAX#       1 00000006 FFFFFFEA A   U    6265  6266
 TTYTFLAG      1 00000005 FFFFFFEA     R    6219  6223   6228   6233   6238   6243   6248   6253
 UPPTBL        1 00000000 00000000 A   T    2184  2184
 VARAREA     336 00000000 FFFFFFDA     X   24505 24577
 VARS9014      1 00000000 00000001     R    1137  1135
 VARWA       336 00000000 FFFFFFDA     J   24512 24535  24564U 24820  24822  24823
 VBASE         1 00000002 00000001 A   U    6601  7020  19776  24461  24581  24592  27260
 VCLEAR        2 00003970 00000001     H   22811 22807
1VARS     (VARS9014) (12:59) (15MAR04) Ordinary Symbol and Literal Cross Reference                                          Page  152
 VGLOBAL       1 00000003 00000001 A   U    6602 11995  12457  15326  17707  23941
 VINTEGER      2 00003A1E 00000001     H   23162 23158
 VNABOOL       3 00000030 FFFFFFE8         6870  9118M 20782
 VNADATA      48 00000020 FFFFFFE8     X    6704  6881   6881   8973M  8973  16875  17511  18096  18685  19340
 VNADIM1       2 00000032 FFFFFFE8     H    6877  8981M 13087  13090  22104
 VNADIM2       2 00000034 FFFFFFE8     H    6878  8982M 13088  13091  22105  26495
 VNADIM3       2 00000036 FFFFFFE8     H    6879  8983M 13089  13092  22106  26558
 VNAFLAGS      1 00000011 FFFFFFE8     R    6685  6689
 VNAIDENT      4 0000002C FFFFFFE8     F    6838  8999M  9163  20476  20845
 VNAME         2 0000399E 00000001     H   22899 22895
 VNANAME      16 00000038 FFFFFFE8     C    6880  8980M 20475  20844
 VNANUMB       2 00000030 FFFFFFE8         6860  9083M 20718
 VNAREA        1 00000024 FFFFFFE8     U    6822  6824   6828   6834   6883   6889   6894   6900
 VNARG         4 00000024 FFFFFFE8     F    6836  8989M 20485  20493  20854  20862
 VNARRAY       4 00000020 FFFFFFE8         6748  8979M 13031  16536  16869  17294  17505  17879  18090  18468  18679
                                                 19123  19334  20410  22089  22629  26150
 VNASET        4 00000028 FFFFFFE8     F    6837  8995M 20486  20855
 VNASTR        1 00000030 FFFFFFE8         6850  9048M 20750
 VNASUB1       2 00000012 FFFFFFE8     H    6692  7690M  7690   7885   7912   8014   8041   8143   8170   8276   8303
                                                  8933   8944M  8944  13249M 13393M 13567M 14745  15902  15955  16008
                                                 16114  16167  16206  20372  20478  20675  20847  21928M 22108  22586M
                                                 22586  26460
 VNASUB2       2 00000014 FFFFFFE8     H    6693  7697M  7697   8934   8951M  8951  13394M 13568M 20479  20848  21929M
                                                 22109  22593M 22593  26519
 VNASUB3       2 00000016 FFFFFFE8     H    6694  7704M  7704   8935   8958M  8958  13569M 20480  20849  21930M 22110
                                                 22600M 22600  26582
 VNATYPE       1 00000030 FFFFFFE8     R    6841  6850   6860   6870
 VNBOOL        3 00000020 FFFFFFE8         6738  8105M  9106  16653  17411  17996  18585  19240
 VNDATA       16 00000020 FFFFFFE8     X    6700  6701   6703   6705   6887   6887   6892   6892   6898   6898   6903
                                                  6903   7970M  7970   8099M  8099  11049  11050  11166  11167  15065
                                                 15066  15199  15200  15334  15335  15647  15648  15759  15760  16373
                                                 16374  16836  16837  17130  17131  17472  17473  17715  17716  18057
                                                 18058  18304  18305  18646  18647  18959  18960  19301  19302  20495
                                                 20496  20864  20865  24645  24646  24711  24712  24772  24773
 VNDEBUG       1 00000021 FFFFFFE8     R    6783  6787   6792   6797   6802
 VNDESC       32 00000000 FFFFFFE8     X    6626  6627   6695   6695   7088   7089   7330   7683   7737M  7800   7806
                                                  7927   8056   8185   8318   8937   8937M 12966M 12966  13248M 13392M
                                                 13566M 15501M 15501  15523M 15523  20474M 20474  20843M 20843  22579M
                                                 22579  23072  23072M 23072  23207  23207M 23207
 VNENTRY      80 00000000 FFFFFFE8     J    6916  6952   7170U  7769   7851   7980   8109   8242   8907U  8984   8990
                                                  9145   9146   9161M  9161   9162   9163   9165   9210   9303   9426
                                                 10554U 10574  10961U 11049  11130  11166  12871U 12966  13252  13253
                                                 13397  13398  13572  13573  14728U 15065  15163U 15199  15320U 15334
                                                 15465U 15501  15523  15526  15633U 15647  15745U 15759  15868U 16373
                                                 17063U 17130  17698U 17715  18287U 18304  18872U 18959  19522U 20353U
                                                 20475  20476  20478  20479  20480  20481  20495  20656U 20844  20845
                                                 20847  20848  20849  20850  21096U 21190  21499  21526  21565  21600
                                                 21628  21672  21698  21779  21838  21884  22072U 22574U 22579  22603
                                                 22604  22854M 22854  22941U 23069U 23072  23072M 23072  23204U 23207
                                                 23207M 23207  23557U 23857U 24575U 24605M 24605  24666M 24666  24732M
                                                 24732  25708U 26132U 26136  26279  26429U 26460  26519  26582
 VNFLAGS1      1 00000022 FFFFFFE8     R    6807  6811
 VNNAME       16 00000000 FFFFFFE8     C    6628  6880   6934   7757   8980   9162M  9162   9163M  9164M  9207M  9299M
                                                  9300M  9421M  9422M  9423M 10877  10878  10978  11047M 11051  11080
                                                 11086  11098  11110M 11168  12933  12940  18226  18227  19528  19531
                                                 19534  19537  19540  19543  19546  19549  19552  19555  19558  19561
                                                 19564  19567  19570  19573  19576  19579  19582  19585  19588  19591
                                                 19594  19597  19600  19603  19606  19609  19612  19615  19618  19621
                                                 19624  19627  19630  19633  19636  19639  19642  19645  19648  19651
1VARS     (VARS9014) (12:59) (15MAR04) Ordinary Symbol and Literal Cross Reference                                          Page  153
                                                 19654  19657  19660  19663  20475M 20476M 20477M 20478M 20479M 20480M
                                                 20844M 20845M 20846M 20847M 20848M 20849M 22943M 22971M 24606  24607
                                                 24610M 24642M 24643M 24647  24667  24668  24671M 24708M 24709M 24713
                                                 24733  24734  24737M 24769M 24770M 24774  25985  25992
 VNNUMB        2 00000020 FFFFFFE8         6728  7976M  9071  16589  17347  17932  18521  19176  23213M 24616M 24743M
 VNPFGBL       2 00000010 FFFFFFE8         6650 11994M 12456M 14839  15993  23634  23935  25786
 VNPFPUB       5 00000010 FFFFFFE8         6680  7615  12112M 12632M 14941  16152  23730  24031  25924
 VNPFSES       4 00000010 FFFFFFE8         6670 12071M 12571M 14907  16099  23700  24001  25878
 VNPFSYS       3 00000010 FFFFFFE8         6660  7532  14873  16044  23664  23965  25832
 VNPFX         1 00000010 FFFFFFE8         6640  7563  11952M 12394M 14805  15940  23604  23902  25740
 VNPREFIX      1 00000010 FFFFFFE8     R    6631  6640   6650   6660   6670   6680   7769   7769   9165M  9165  14771
                                                 15887  20481  20481M 20481  20850  20850M 20850  23573  23872  25725
 VNSDATA       6 00000020 FFFFFFE8     X    6702  6832   6832   7836M  7836   8228M  8228  16854  17490  18075  18664
                                                 19319  20882
 VNSTRING      1 00000020 FFFFFFE8         6718  7842M  8234M  9036  16621  16848  17379  17484  17964  18069  18553
                                                 18658  19208  19313  20876  23078M 24677M 26196
 VNSTRLEN      2 00000024 FFFFFFE8     H    6830  7849M  7849   8241M  8241  16855  17491  18076  18665  19320  20883
                                                 23079M 24684M 24684  26221  26285
 VNSTRLOC      1 00000026 FFFFFFE8     C    6831 23107M 26220  26284
 VNTYPE        1 00000020 FFFFFFE8     R    6709  6718   6728   6738   6748   6758   6768   6778
 VNVALUE      12 00000024 FFFFFFE8     X    6826  6907   7978M  8107M 16791  16793  16822M 23214M 24618M 24618M 24745M
                                                 24745M
 VPARM       336 00000000 FFFFFFE7     J    6960  7090   8836   8837   8838   9569   9570  10484  10879  11049  11166
                                                 12778  12779  15065  15199  15334  15395  15525  15647  15759  16294
                                                 16373  17130  17715  18304  18959  20282  20283  20495  20586  20587
                                                 24505  26062  26137
 VSTACK        1 00000010 00000001 A   U    6603 23338  24453  27261
 VSTRING       2 000039DA 00000001     H   23027 23023
 WAR           8 00000008 00000001 A   #    1027  6991M  7036   7119M  8368   8515M  8557   8582M  8624   8649M  8691
                                                  8716M  8782   8866M  9480   9599M  9999  10051M 10456  10513M 10841
                                                 10910M 11196  11318M 11384  11411M 11555  11582M 11687  11714M 11819
                                                 11851M 12268  12301M 12646  12657  12808M 13677  13799M 13925  13953M
                                                 14079  14107M 14236  14264M 14440  14490M 14597  14696M 14985  15026M
                                                 15083  15131M 15240  15288M 15352  15424M 15553  15601M 15665  15713M
                                                 15777  15836M 16250  16322M 16966  17022M 17602  17657M 18187  18246M
                                                 18776  18831M 19431  19490M 19686  19827M 19871  19882  19921M 20000
                                                 20045M 20100  20143M 20241  20312M 20537  20615M 20974  21055M 21939
                                                 21955  22031M 22493  22542M 22734  22821M 22872  22909M 23000  23037M
                                                 23136  23172M 23236  23281M 23469  23485  23525M 23765  23776  23825M
                                                 24066  24077  24127M 24182  24193  24231M 24278  24319M 24393  24425M
                                                 24478  24534M 24816  24865M 24902  24927M 24964  25013M 25270  25281
                                                 25321M 25529  25575M 25636  25676M 26016  26091M 26348  26397M 26663
                                                 26710M 26888  26927M 26985  27024M 27082  27120M 27240
 WTOSG         1 00000000 00000000 A   T    2081  2081
 WYLVARS       1 00000000 00000001     J     991   993   1009   1022   1035   1047   1060   1073   1086   1099   1112
                                                  1125   2365   2449   6189   6301   6581   6585   6588   6917   6961
                                                  6964   7098   8846
 XDELSET       1 00000000 00000022     T   27266 27266
 XDELSETS      1 00000000 00000023     T   27268 27268
 XGET          1 00000000 00000019     T   19758 19758  22762
 XGETFRST      1 00000000 0000000F     T   12705 12705
 XGETNEXT      1 00000000 00000011     T   12709 12709
 XPUT          1 00000000 0000001F     T   19779 19779  22763  27273
 XSETSET       1 00000000 0000000E     T   12704 12704  19757  22761  27270
 ZAPOFFR6      1 00000000 0000001E     T   19775 19775
 =A(-4)        4 000044E0 00000001     A   27275 25065
 =A(BADDIM)
               4 00003874 00000001     A   22782 22222  22266  22293  22336  22380
 =A(BADSUB)
1VARS     (VARS9014) (12:59) (15MAR04) Ordinary Symbol and Literal Cross Reference                                          Page  154
               4 00003860 00000001     A   22777 21568  21603  21649  21675  21719  21782  21841
 =A(BADSUB)
               4 00004534 00000001     A   27294 26972  27069
 =A(BIGSUB)
               4 0000385C 00000001     A   22776 21529  22408  22436  22464
 =A(CHKRESVD)
               4 000009A8 00000001     A    9520  7654
 =A(CHKRESVD)
               4 00002EA8 00000001     A   19771 16465  17222  17807  18396  19051
 =A(CHKSUBS)
               4 00003830 00000001     A   22765 20460  20702
 =A(CP#XOLD)
               4 00000988 00000001     A    9518  7580
 =A(CP#XOLD)
               4 00001564 00000001     A   12713 11930  12221  12372
 =A(CP#XOLD)
               4 00002E58 00000001     A   19759 15179  17082
 =A(CP#XOLD)
               4 000044B0 00000001     A   27263 23386  24165
 =A(DCLARRAY)
               4 000009B4 00000001     A    9523  7920   8049   8178   8311
 =A(DCLLIMIT)
               4 00000978 00000001     A    9514  7343
 =A(DECPRT)
               4 00000964 00000001     A    9509  7207
 =A(GETADESC)
               4 0000382C 00000001     A   22764 20447  20693
 =A(GETARRAY)
               4 00001DC8 00000001     A   14627 13256  13401  13576
 =A(GETGVAR)
               4 00002E40 00000001     A   19753 14847
 =A(GETLVAR)
               4 00002E38 00000001     A   19751 14779
 =A(GETNVAR)
               4 00002E48 00000001     A   19755 14915
 =A(GETPVAR)
               4 00002E4C 00000001     A   19756 14949
 =A(GETSUBS)
               4 000044F4 00000001     A   27280 25258
 =A(GETSVAR)
               4 00002E44 00000001     A   19754 14881
 =A(GETVAR)
               4 000009AC 00000001     A    9521  7709
 =A(GETVAR)
               4 00003878 00000001     A   22783 22607
 =A(GETVRG)
               4 000009B8 00000001     A    9524  8987
 =A(GETVSET)
               4 000009BC 00000001     A    9525  8993
 =A(GETXVAR)
               4 00002E3C 00000001     A   19752 14813
 =A(GETXVSET)
               4 00001568 00000001     A   12714 11955  12397
 =A(GETXVSET)
               4 00002E5C 00000001     A   19760 15190  17121
 =A(GETXVSET)
               4 000044B8 00000001     A   27265 23910
 =A(INITBASE)
               4 00000960 00000001     A    9508  7018
1VARS     (VARS9014) (12:59) (15MAR04) Ordinary Symbol and Literal Cross Reference                                          Page  155
 =A(INITBASE)
               4 00001DE0 00000001     A   14633 14555
 =A(MAXSET)
               4 000044B4 00000001     A   27264 23451
 =A(SAVARRAY)
               4 00002EA4 00000001     A   19770 16214
 =A(SAVEGVAR)
               4 00002E6C 00000001     A   19764 16016
 =A(SAVELVAR)
               4 00002E64 00000001     A   19762 15910
 =A(SAVENVAR)
               4 00002E9C 00000001     A   19768 16122
 =A(SAVEPVAR)
               4 00002EA0 00000001     A   19769 16175
 =A(SAVEVAR)
               4 000009B0 00000001     A    9522  7893   8022   8151   8284   9149   9213   9306   9429
 =A(SAVEVAR)
               4 00001524 00000001     A   12697  9975  10432
 =A(SAVEXVAR)
               4 00002E68 00000001     A   19763 15963
 =A(SCNNSW)
               4 00001528 00000001     A   12698 10115
 =A(SCNVDESC)
               4 00000974 00000001     A    9513  7327
 =A(SEGELEM)
               4 00001DCC 00000001     A   14628 13280  13425  13600
 =A(SEGVALUE)
               4 0000152C 00000001     A   12699 10599
 =A(SEGVALUE)
               4 00004500 00000001     A   27283 25624  26650
 =A(SEGVAR)
               4 0000154C 00000001     A   12707 11133
 =A(SEGVNAME)
               4 00000984 00000001     A    9517  7540   7588   7669   7724   7783
 =A(SEGVNAME)
               4 00001DAC 00000001     A   14620 13009  13039
 =A(SEGVNAME)
               4 00002E70 00000001     A   19765 16052  16416  16480  16545  17090  17173  17237  17303  17758  17822
                                                 17888  18347  18411  18477  19002  19066  19132
 =A(SEGVNAME)
               4 00003848 00000001     A   22771 21193  21294  21887  22656  22698
 =A(SEGVNAME)
               4 000044EC 00000001     A   27278 25122  25602  26438  26857  27209
 =A(SETVTYPE)
               4 0000155C 00000001     A   12711 11368
 =A(SHYPRT)
               4 00001DBC 00000001     A   14624 13113
 =A(SMALLSUB)
               4 00003854 00000001     A   22774 21502
 =A(SUBLIMIT)
               4 00003868 00000001     A   22779 21865
 =A(SVRPREFX)
               4 00001560 00000001     A   12712 11461  11632  11764
 =A(SVRPRT)
               4 0000153C 00000001     A   12703 11017
 =A(VBASE)
               4 000044A4 00000001     A   27260 23332
 =A(VSTACK)
               4 000044A8 00000001     A   27261 23365  24357
1VARS     (VARS9014) (12:59) (15MAR04) Ordinary Symbol and Literal Cross Reference                                          Page  156
 =A(0)         4 00001534 00000001     A   12701 10741
 =A(0)         4 00003870 00000001     A   22781 22123  22147
 =A(1)         4 00000980 00000001     A    9516  7412   7451
 =A(1)         4 000014EC 00000001     A   12691  9702   9745   9824  10199  10242  10281  10769
 =A(1)         4 0000386C 00000001     A   22780 21925
 =A(1)         4 000044F0 00000001     A   27279 25219
 =A(10)        4 000044D4 00000001     A   27272 24636  24702  24763
 =A(2)         4 000015B0 00000001     A   12722 12342
 =A(2)         4 000044FC 00000001     A   27282 25415
 =A(32000)
               4 00003858 00000001     A   22775 21520
 =A(4)         4 000015B8 00000001     A   12724 12432  12491  12547  12608
 =A(4)         4 000044E8 00000001     A   27277 25114
 =AL4(VBASE)
               4 00002EBC 00000001     R   19776 16732
 =AL4(1)       4 00001DD0 00000001     R   14629 13836  13990  14144  14303
 =AL4(2)       4 00001DD4 00000001     R   14630 13868  14022  14177  14356
 =AL4(3)       4 00001DD8 00000001     R   14631 13900  14054  14210
 =C' '         1 000045D3 00000001     C   27305 26318
 =C' = '       3 000045C2 00000001     C   27302 25608  26633
 =C' is invalid.'
              12 00004528 00000001     C   27293 26863
 =C' of '      4 00004524 00000001     C   27292 26841
 =C'*** Array ***'
              13 000045C5 00000001     C   27303 26160
 =C')   -- invalid. '
              16 00003810 00000001     C   22760 21703
 =C','         1 000045D5 00000001     C   27307 26505  26568
 =C': array dimensions do not match DECLARED dimensions.  '
              54 0000455C 00000001     C   27299 27215
 =C': invalid array name.'
              21 00001E1F 00000001     C   14639 12957
 =C': invalid reference to array descriptor. '
              41 00002F2D 00000001     C   19783 16551  17309  17894  18483  19138
 =C': invalid variable name. '
              25 000045A9 00000001     C   27301 25128
 =C': invalid DECLARE type specification.'
              37 00000AEA 00000001     C    9536  8769
 =C': invalid.  No XPROC active. '
              29 00002F80 00000001     C   19786 17096
 =C': invalid.  No XPROC active.'
              28 0000098C 00000001     C    9519  7594
 =C': invalid.  System variables may not be declared.'
              49 00000A38 00000001     C    9532  7546
 =C': invalid.  Variable may not be DECLARED twice.'
              47 00000ABB 00000001     C    9535  7789
 =C': invalid.  Variable previously declared.'
              41 00000A92 00000001     C    9534  7730
 =C': is not an array.'
              18 00001DE4 00000001     C   14634 13045
 =C': missing subscripts. '
              22 0000387C 00000001     C   22784 21199  21300
 =C': not DECLARED as an array.  Subscripts invalid. '
              49 0000393F 00000001     C   22790 22662  22704
 =C': reserved word.  Invalid variable name. '
              41 00002F04 00000001     C   19782 16486  17243  17828  18417  19072
 =C': reserved word.  Invalid variable name.'
              40 00000938 00000001     C    9507  7675
 =C': system variables may not be saved.'
1VARS     (VARS9014) (12:59) (15MAR04) Ordinary Symbol and Literal Cross Reference                                          Page  157
              36 00002E74 00000001     C   19766 16058
 =C': too many subscripts specified for array. '
              43 00003914 00000001     C   22789 21893
 =C': undeclared array.'
              19 00001E34 00000001     C   14640 13015
 =C': undeclared. '
              14 00002ECC 00000001     C   19780 16422
 =C': undeclared.'
              13 00002F9D 00000001     C   19787 17179  17764  18353  19008
 =C': unrecognized option following expression.'
              43 00001647 00000001     C   12739  9961  10418
 =C''''        1 000045D2 00000001     C   27304 26206  26250
 =C'"SET VAL variable=value".'
              25 00001699 00000001     C   12741 10150
 =C'['         1 000045D4 00000001     C   27306 26446
 =C']'         1 000045D6 00000001     C   27308 26613
 =C'Array subscripts must be > 0. '
              30 0000453E 00000001     C   27298 26956
 =C'Command invalid from within XCALLED procedures.'
              47 00001E47 00000001     C   14641 14580
 =C'Command invalid.  '
              18 00001DFA 00000001     C   14637 14401
 =C'Command invalid.'
              16 00000928 00000001     C    9506  7371
 =C'Error did not occur in active PROC.'
              35 000016B7 00000001     C   12743 12246
 =C'Expecting "]". '
              15 000038DC 00000001     C   22787 21633
 =C'ERR '      4 000015A8 00000001     C   12720 12145
 =C'ERROR'
               5 000016B2 00000001     C   12742 12158
 =C'GBL '      4 0000156C 00000001     C   12715 11983
 =C'GBL.'      4 000015BC 00000001     C   12725 12445
 =C'GBL.'      4 00004504 00000001     C   27284 25796
 =C'Missing "=" in assignment statement.'
              36 000014F0 00000001     C   12692  9786
 =C'Missing array name.'
              19 00001E0C 00000001     C   14638 12905
 =C'Missing expression.'
              19 00001634 00000001     C   12738  9856  10313
 =C'Missing expression(s).'
              22 000015FA 00000001     C   12733 10751  10808
 =C'Missing variable list for DECLARE.'
              34 000009C6 00000001     C    9528  7290
 =C'Missing variable name. '
              23 00004592 00000001     C   27300 25075
 =C'Missing DECLARE type specification.'
              35 000009EA 00000001     C    9530  7254
 =C'Please use "variable=value" instead of '
              39 00001672 00000001     C   12740 10132
 =C'PUB '      4 000015A4 00000001     C   12719 12101
 =C'PUB.'      4 000015CC 00000001     C   12729 12621
 =C'PUB.'      4 00004510 00000001     C   27287 25934
 =C'Subscript #'
              11 000045D7 00000001     C   27309 26801
 =C'Subscript too big. '
              19 000045E2 00000001     C   27310 27053
 =C'Subscripts must be separated by commas.  '
              41 000038EB 00000001     C   22788 21765
1VARS     (VARS9014) (12:59) (15MAR04) Ordinary Symbol and Literal Cross Reference                                          Page  158
 =C'SES '      4 000015A0 00000001     C   12718 12060
 =C'SES.'      4 000015C8 00000001     C   12728 12560
 =C'SES.'      4 0000450C 00000001     C   27286 25888
 =C'SYS '      4 00001570 00000001     C   12716 12022
 =C'SYS.'      4 000015C4 00000001     C   12727 12504
 =C'SYS.'      4 00004508 00000001     C   27285 25842
 =C'Too many (>10) variables in DECLARE list.  '
              43 00000A0D 00000001     C    9531  7353
 =C'Too many dimension qualifiers specified.'
              40 00001D78 00000001     C   14616 14419
 =C'Too many variables (>100000) defined.'
              37 00002FAA 00000001     C   19788 17538  18123  18712  19367
 =C'Too many variables (>100000) defined.'
              37 00003892 00000001     C   22785 20202
 =C'Too many variables (>30000) defined. '
              37 00002F5B 00000001     C   19785 16902
 =C'Too many variables (>30000) defined. '
              37 000038B7 00000001     C   22786 20910
 =C'Unable to display multiple System variables.'
              44 00001574 00000001     C   12717 12032  12514
 =C'Unmatched parenthesis in expression.  '
              38 000015D2 00000001     C   12731 10704
 =C'Write access for PUBLIC variables denied. '
              42 00002EDA 00000001     C   19781 18928
 =C'Write access for PUBLIC variables denied.'
              41 00000A69 00000001     C    9533  7640
 =C'X '        2 00001612 00000001     C   12735 11913
 =C'X.: invalid.  No XPROC active.'
              30 00001614 00000001     C   12736 11940  12382
 =C'X.'        2 00001632 00000001     C   12737 12355
 =C'X.'        2 0000453C 00000001     C   27297 25750
 =CL16'SYS.ERRSETNO    '
              16 000014D8 00000001     C   12689 12186
 =CL4'*A'      4 000009C0 00000001     C    9526  9164
 =CL4'*A'      4 00001548 00000001     C   12706 11098
 =CL4'*A'      4 00003834 00000001     C   22766 20477  20846
 =CL8'AND'
               8 00002E18 00000001     C   19747 19654
 =CL8'BEGIN'
               8 00002D00 00000001     C   19712 19549
 =CL8'BOOL'
               8 00002DC0 00000001     C   19736 19621
 =CL8'BOOLEAN'
               8 00002DC8 00000001     C   19737 19624
 =CL8'CASE'
               8 00002CE0 00000001     C   19708 19537
 =CL8'CLEAR'
               8 00002D70 00000001     C   19726 19591
 =CL8'CLR'
               8 00002D78 00000001     C   19727 19594
 =CL8'COMM'
               8 00002D20 00000001     C   19716 19561
 =CL8'COMMENT'
               8 00002D28 00000001     C   19717 19564
 =CL8'DCL'
               8 00002D98 00000001     C   19731 19606
 =CL8'DECLARE'
               8 00002DA0 00000001     C   19732 19609
 =CL8'DO'      8 00002CE8 00000001     C   19709 19540
1VARS     (VARS9014) (12:59) (15MAR04) Ordinary Symbol and Literal Cross Reference                                          Page  159
 =CL8'ELSE'
               8 00002CD8 00000001     C   19707 19534
 =CL8'END'
               8 00002D08 00000001     C   19713 19552
 =CL8'EQ'      8 00002DE0 00000001     C   19740 19633
 =CL8'EXE'
               8 00002D48 00000001     C   19721 19576
 =CL8'EXEC'
               8 00002D40 00000001     C   19720 19573
 =CL8'EXP'
               8 00002E28 00000001     C   19749 19660
 =CL8'FIRST'
               8 00002D18 00000001     C   19715 19558
 =CL8'GE'      8 00002E08 00000001     C   19745 19648
 =CL8'GOTO'
               8 00002D50 00000001     C   19722 19579
 =CL8'GT'      8 00002E00 00000001     C   19744 19645
 =CL8'IF'      8 00002CD0 00000001     C   19706 19531
 =CL8'LAST'
               8 00002D10 00000001     C   19714 19555
 =CL8'LE'      8 00002DF8 00000001     C   19743 19642
 =CL8'LOOP'
               8 00002CF0 00000001     C   19710 19543
 =CL8'LT'      8 00002DF0 00000001     C   19742 19639
 =CL8'MOD'
               8 00002E30 00000001     C   19750 19663
 =CL8'NE'      8 00002DE8 00000001     C   19741 19636
 =CL8'NOT'
               8 00002E10 00000001     C   19746 19651
 =CL8'NUM'
               8 00002DA8 00000001     C   19733 19612
 =CL8'NUMB'
               8 00002DB0 00000001     C   19734 19615
 =CL8'NUMBER'
               8 00002DB8 00000001     C   19735 19618
 =CL8'OR'      8 00002E20 00000001     C   19748 19657
 =CL8'PASS'
               8 00002D90 00000001     C   19730 19603
 =CL8'PCALL'
               8 00002D38 00000001     C   19719 19570
 =CL8'READ'
               8 00002D80 00000001     C   19728 19597
 =CL8'SET'
               8 00002D58 00000001     C   19723 19582
 =CL8'SHO'
               8 00002D68 00000001     C   19725 19588
 =CL8'SHOW'
               8 00002D60 00000001     C   19724 19585
 =CL8'STR'
               8 00002DD0 00000001     C   19738 19627
 =CL8'STRING'
               8 00002DD8 00000001     C   19739 19630
 =CL8'UNTIL'
               8 00002CF8 00000001     C   19711 19546
 =CL8'WHILE'
               8 00002CC8 00000001     C   19705 19528
 =CL8'WRITE'
               8 00002D88 00000001     C   19729 19600
 =CL8'XCALL'
1VARS     (VARS9014) (12:59) (15MAR04) Ordinary Symbol and Literal Cross Reference                                          Page  160
               8 00002D30 00000001     C   19718 19567
 =F'-1'        4 0000384C 00000001     F   22772 21418
 =F'1'         4 00001DB8 00000001     F   14623 13095
 =F'1'         4 000044AC 00000001     F   27262 23372  23410  24179
 =F'2'         4 000015B4 00000001     F   12723 12400
 =F'4'         4 000015C0 00000001     F   12726 12459  12576  12637
 =H'1'         2 000009E8 00000001     H    9529  9186   9257   9278   9358   9379   9400
 =H'1'         2 00001DF6 00000001     H   14635 13084  13085  13086
 =V(CHECKEND)
               4 00001530 00000001     V   12700 10723
 =V(CHECKEND)
               4 00003864 00000001     V   22778 21759
 =V(EVALEXPR)
               4 00001514 00000001     V   12693  9838  10295  10577  10639
 =V(EVALINT)
               4 00003850 00000001     V   22773 21460
 =V(GETDATA)
               4 000015AC 00000001     V   12721 12189
 =V(GETVAR)
               4 00001DA8 00000001     V   14619 12994
 =V(GTVARRTN)
               4 00002E60 00000001     V   19761 15474
 =V(LRTRIM)
               4 00000970 00000001     V    9512  7299
 =V(MAKEBOOL)
               4 00002EB4 00000001     V   19774 16661  17419  18004  18593  19248
 =V(MAKEBOOL)
               4 00003840 00000001     V   22769 20790
 =V(MAKEITOD)
               4 000044A0 00000001     V   27259 23217
 =V(MAKENUMB)
               4 00002EAC 00000001     V   19772 16597  17355  17940  18529  19184
 =V(MAKENUMB)
               4 00003838 00000001     V   22767 20726
 =V(MAKESTR)
               4 00002EB0 00000001     V   19773 16629  17387  17972  18561  19216
 =V(MAKESTR)
               4 0000383C 00000001     V   22768 20758
 =V(MAKESTR)
               4 00004518 00000001     V   27289 26282
 =V(NSCAN)
               4 00000968 00000001     V    9510  7211
 =V(NSCAN)
               4 00001518 00000001     V   12694  9903  10360  11021
 =V(NSCAN)
               4 00001DC0 00000001     V   14625 13117
 =V(NSCAN)
               4 000044F8 00000001     V   27281 25388
 =V(SCANCHK)
               4 0000096C 00000001     V    9511  7225
 =V(SCANCHK)
               4 0000151C 00000001     V   12695  9917  10374  11035
 =V(SCANCHK)
               4 00001DC4 00000001     V   14626 13131
 =V(SCNVDESC)
               4 000014E8 00000001     V   12690  9664  10161
 =V(SCNVNAME)
               4 00001DA0 00000001     V   14617 12888
 =V(SCNVNAME)
1VARS     (VARS9014) (12:59) (15MAR04) Ordinary Symbol and Literal Cross Reference                                          Page  161
               4 000044DC 00000001     V   27274 25042
 =V(SCUPCASE)
               4 00001558 00000001     V   12710 11364  11457  11628  11760  11899
 =V(SEG)       4 0000097C 00000001     V    9515  7365   8763
 =V(SEG)       4 00001520 00000001     V   12696  9955  10144  10412  10716
 =V(SEG)       4 00001DDC 00000001     V   14632 14413
 =V(SEG)       4 00002E98 00000001     V   19767 16070  16434  16498  16563  16914  17108  17191  17255  17321  17550
                                                 17776  17840  17906  18135  18365  18429  18495  18724  18940  19020
                                                 19084  19150  19379
 =V(SEG)       4 00003844 00000001     V   22770 20922  21211  21312  21645  21715  21777  21905  22674  22716
 =V(SEG)       4 000044E4 00000001     V   27276 25087  25140  25620  25762  25808  25854  25900  25946  26172  26218
                                                 26244  26262  26308  26330  26458  26517  26580  26625  26645  26813
                                                 26853  26875  26968  27065  27227
 =V(SEGCR)
               4 00001550 00000001     V   12708 11158
 =V(SEGCR)
               4 00001DB4 00000001     V   14622 13079  13305  13450  13625
 =V(SEGCR)
               4 00004520 00000001     V   27291 26791  27201
 =V(SEGDC)
               4 0000451C 00000001     V   27290 26481  26540  26603  26835
 =V(SEGT)      4 00001DA4 00000001     V   14618 12951
 =V(SEGT)      4 00004514 00000001     V   27288 26003
 =V(SEGVAR)
               4 00001DB0 00000001     V   14621 13054
 =V(XDELSET)
               4 000044BC 00000001     V   27266 24261  24595
 =V(XDELSETS)
               4 000044C4 00000001     V   27268 24376  24457
 =V(XGET)      4 00002E54 00000001     V   19758 15070  15204  15339  15652  15764  16378  17135  17720  18309  18964
 =V(XGET)      4 00003824 00000001     V   22762 19867  20087  20500
 =V(XGETFRST)
               4 00001544 00000001     V   12705 11054
 =V(XGETNEXT)
               4 00001554 00000001     V   12709 11171
 =V(XPUT)      4 00002EC8 00000001     V   19779 16882  17518  18103  18692  19347
 =V(XPUT)      4 00003828 00000001     V   22763 19961  20185  20890
 =V(XPUT)      4 000044D8 00000001     V   27273 24650  24716  24777
 =V(XSETSET)
               4 00001540 00000001     V   12704 11043
 =V(XSETSET)
               4 00002E50 00000001     V   19757 15060  15194  15329  15642  15754  16368  17125  17710  18299  18954
 =V(XSETSET)
               4 00003820 00000001     V   22761 19859  19953  20077  20175  20489  20858
 =V(XSETSET)
               4 000044CC 00000001     V   27270 24584  24794
 =V(ZAPOFFR6)
               4 00002EB8 00000001     V   19775 16715
 =X'FFFFFFF'
               4 000044C8 00000001     X   27269 24454
 =X'FFFFFFFF'
               4 000044C0 00000001     X   27267 24373
 =X'FFFFFFF0'
               4 00002EC4 00000001     X   19778 16794
 =X'FF000000'
               4 00001538 00000001     X   12702 10979
 =X'000000FF'
               4 00002EC0 00000001     X   19777 16792
 =X'000000000F'
1VARS     (VARS9014) (12:59) (15MAR04) Ordinary Symbol and Literal Cross Reference                                          Page  162
               5 00002F56 00000001     X   19784 16822
 =X'40000000'
               4 000044D0 00000001     X   27271 24608  24669  24735
 =XL2'FFFF'
               2 00001610 00000001     X   12734 11110
 =Y((R1+1-(R0)+16*((R0)/(R1+1))/((R0)/(R1+1)))*4)
               2 000015F8 00000001     Y   12732 10719
 =Y((12+3)/4*4)
               2 000009C4 00000001     Y    9527  7217
 =Y((12+3)/4*4)
               2 000015D0 00000001     Y   12730  9909  10366  11027
 =Y((12+3)/4*4)
               2 00001DF8 00000001     Y   14636 13123
 =Y((12+3)/4*4)
               2 0000453A 00000001     Y   27296 25394
 =Y(4)         2 00004538 00000001     Y   27295 24788

1VARS     (VARS9014) (12:59) (15MAR04) Macro and Copy Code Source Summary                                                   Page  163
- Con Source                                        Volume    Members                        HLASM R4.0  2004/03/15 12.59
0     PRIMARY INPUT                                           CSECT    DROP     END      EX       LTORG    POP
                                                              PRINT    PUSH     RCHECK   START    USING
   L1 WYL.GS.WYL.WYLBUR.MACLIB                      SYSB05    AINFO    BASE     BOMB     CALLRTNP COLINFO  COMMENT
                                                              CONTROL  CP       CPLOCAL  CV       CVLOCAL  DEFRTNP
                                                              ERROR    FAIL     JCB      KAPUT    RG       SCAN
                                                              SCANCB   SCANCHK  SCCBADR  SCINFO   SCINIT   SCKW
                                                              SCPOP    SCPUSH   SCUPCASE SCUPTOK  TCCR     TCR      TNUM
                                                              TSEG     TTYPE    VLTORG   VNENTRY  VPARM    XTRACE
   L2 WYL.GG.SYS.MACLIB                             SYSB05    $BC      $BFLKUP  $BV      $CCLKUP  $CRS     $CSS     $L
                                                              $LA      $LBLAD   $LEXP    $LOR     $REL     $RGLKUP
                                                              $USLKUP  ACALL    BEGIN    CLEAR    COMPROC  CSECT    DATA
                                                              DECR     DEFCC    DROP     DTEX     ELSE     ELSEIF   END
                                                              EX       FLAG     GEN      HIBAL    IDENT    IF       INCR
                                                              LABEL    LC       LS       LTORG    MOVE     PEND     POP
                                                              PRETURN  PRINT    PROC     PUSH     QLTORG   RECORD   REG
                                                              REGS     SET      SETMSG   START    USING    VCALL
                                                              WHILE    WITH     XPROC
   L3 SYS3.IS.MACLIB                                SYSB05    SEG      SEGCB    SEGCR    SEGDC    SEGLD    SIB
                                                              SYSDEFN  XPOP     XPUSH

1VARS     (VARS9014) (12:59) (15MAR04) Dsect Cross Reference                                                                Page  164
-Dsect     Length      Id       Defn                                                         HLASM R4.0  2004/03/15 12.59
0$$$@R0   00000000  FFFFFFFE     705
 $$$@R1   00000000  FFFFFFFD     718
 $$$@R10  00000000  FFFFFFF4     835
 $$$@R11  00000000  FFFFFFF3     848
 $$$@R12  00000000  FFFFFFF2     861
 $$$@R13  00000000  FFFFFFF1     874
 $$$@R14  00000000  FFFFFFF0     887
 $$$@R15  00000000  FFFFFFEF     900
 $$$@R2   00000000  FFFFFFFC     731
 $$$@R3   00000000  FFFFFFFB     744
 $$$@R4   00000000  FFFFFFFA     757
 $$$@R5   00000000  FFFFFFF9     770
 $$$@R6   00000000  FFFFFFF8     783
 $$$@R7   00000000  FFFFFFF7     796
 $$$@R8   00000000  FFFFFFF6     809
 $$$@R9   00000000  FFFFFFF5     822
 $$$RCKSWA
          00000014  FFFFFFDB   21990
 $$$RCP   00001000  FFFFFFEC    2454
 $$$RCV   00000FB0  FFFFFFEE    1179
 $$$RDCLWA
          000002D4  FFFFFFE6    7061
 $$$RDEV  0000000C  FFFFFFEB    4668
 $$$RDXWA 000003FC  FFFFFFE5    8824
 $$$RGSVWA
          00000154  FFFFFFE0   15387
 $$$RGSWA 00000006  FFFFFFDC   21016
 $$$RGYWA 000002A8  FFFFFFDE   20274
 $$$RJCB  000000D0  FFFFFFE9    6306
 $$$RNSCNCB
          000000B0  FFFFFFED    2375
 $$$RSGVWA
          00000150  FFFFFFD9   26056
 $$$RSHVWA
          00000150  FFFFFFE3   10478
 $$$RSHYWA
          000002BC  FFFFFFE1   12759
 $$$RSTVWA
          000002A0  FFFFFFE4    9563
 $$$RSVRWA
          00000298  FFFFFFE2   10869
 $$$RSVWA 0000015C  FFFFFFDF   16285
 $$$RSYWA 000002A8  FFFFFFDD   20578
 $$$RTTYPE
          0000010C  FFFFFFEA    6199
 $$$RVARWA
          00000150  FFFFFFDA   24499
 $$$RVNENTRY
          00000050  FFFFFFE8    6617
 $$$RVPARM
          00000150  FFFFFFE7    6946
 HIBAL    00000000  FFFFFFFF     691

1VARS     (VARS9014) (12:59) (15MAR04) Using Map                                                                            Page  165
-                                                                                            HLASM R4.0  2004/03/15 12.59
   Stmt  -----Location----- Action ----------------Using----------------- Reg Max    Last  Label and Using Text
           Count      Id           Type          Value    Range     Id        Disp   Stmt
0   922  00000000  FFFFFFFF USING  ORDINARY    00000000 00001000 FFFFFFEF  15 000          @R15,15
    926  00000000  FFFFFFFF USING  ORDINARY    00000000 00001000 FFFFFFF0  14 002   15505  @R14,14
    930  00000000  FFFFFFFF USING  ORDINARY    00000000 00001000 FFFFFFF1  13 000          @R13,13
    934  00000000  FFFFFFFF USING  ORDINARY    00000000 00001000 FFFFFFF2  12 000          @R12,12
    938  00000000  FFFFFFFF USING  ORDINARY    00000000 00001000 FFFFFFF3  11 000          @R11,11
    942  00000000  FFFFFFFF USING  ORDINARY    00000000 00001000 FFFFFFF4  10 000          @R10,10
    946  00000000  FFFFFFFF USING  ORDINARY    00000000 00001000 FFFFFFF5   9 000          @R9,9
    950  00000000  FFFFFFFF USING  ORDINARY    00000000 00001000 FFFFFFF6   8 000          @R8,8
    954  00000000  FFFFFFFF USING  ORDINARY    00000000 00001000 FFFFFFF7   7 000          @R7,7
    958  00000000  FFFFFFFF USING  ORDINARY    00000000 00001000 FFFFFFF8   6 000          @R6,6
    962  00000000  FFFFFFFF USING  ORDINARY    00000000 00001000 FFFFFFF9   5 000          @R5,5
    966  00000000  FFFFFFFF USING  ORDINARY    00000000 00001000 FFFFFFFA   4 000          @R4,4
    970  00000000  FFFFFFFF USING  ORDINARY    00000000 00001000 FFFFFFFB   3 000          @R3,3
    974  00000000  FFFFFFFF USING  ORDINARY    00000000 00001000 FFFFFFFC   2 002   16784  @R2,2
    978  00000000  FFFFFFFF USING  ORDINARY    00000000 00001000 FFFFFFFD   1 001   25497  @R1,1
    982  00000000  FFFFFFFF USING  ORDINARY    00000000 00001000 FFFFFFFE   0 000          @R0,0
    983  00000000  FFFFFFFF DROP                                            0              0
   1163  00000017  00000001 USING  ORDINARY    00000000 00001000 FFFFFFEC  11 D5A   27224  CP,CPR
   1172  00000017  00000001 USING  ORDINARY    00000000 00001000 FFFFFFEE  12 890   27124  CV,CVR
   7007  0000003E  00000001 USING  ORDINARY    0000003E 00001000 00000001   7 922    7018  $$$58B,7
   7032  0000004E  00000001 USING  ORDINARY    00000000 00001000 FFFFFFF7   7 000          @R7,7
   7135  00000076  00000001 USING  ORDINARY    00000076 00001000 00000001   7 A45    8335  $$$61B,7
   7149  00000076  00000001 USING  ORDINARY    FFFFFFD8 00001000 FFFFFFE6   8 028    7153  DCLWA-(4+36),R8
   7161  0000007A  00000001 USING  ORDINARY    00000000 00001000 FFFFFFE6   5 184    8679  DCLWA,R5
   7170  0000007A  00000001 USING  ORDINARY    00000000 00001000 FFFFFFE8   6 024    8303  VNENTRY,R6
   8359  0000044C  00000001 USING  ORDINARY    00000000 00001000 FFFFFFF6   8 000          @R8,8
   8364  0000044C  00000001 USING  ORDINARY    00000000 00001000 FFFFFFF7   7 000          @R7,7
   8531  000005B6  00000001 USING  ORDINARY    000005B6 00001000 00000001   7 000          $$$113B,7
   8553  000005BE  00000001 USING  ORDINARY    00000000 00001000 FFFFFFF7   7 000          @R7,7
   8598  000005E6  00000001 USING  ORDINARY    000005E6 00001000 00000001   7 000          $$$116B,7
   8620  000005EE  00000001 USING  ORDINARY    00000000 00001000 FFFFFFF7   7 000          @R7,7
   8665  00000616  00000001 USING  ORDINARY    00000616 00001000 00000001   7 000          $$$119B,7
   8687  0000061E  00000001 USING  ORDINARY    00000000 00001000 FFFFFFF7   7 000          @R7,7
   8732  00000646  00000001 USING  ORDINARY    00000646 00001000 00000001   7 4A4    8769  $$$122B,7
   8778  0000065C  00000001 USING  ORDINARY    00000000 00001000 FFFFFFF7   7 000          @R7,7
   8797  0000066A  00000001 USING  ORDINARY    00000000 00001000 FFFFFFF9   5 000          @R5,5
   8804  0000066A  00000001 USING  ORDINARY    00000000 00001000 FFFFFFF8   6 000          @R6,6
   8882  00000684  00000001 USING  ORDINARY    00000684 00001000 00000001   7 364    9454  $$$125B,7
   8896  00000684  00000001 USING  ORDINARY    FFFFFFD8 00001000 FFFFFFE5   8 2D4    9450  DXWA-(4+36),R8
   8907  00000684  00000001 USING  ORDINARY    00000000 00001000 FFFFFFE8   6 038    9426  VNENTRY,R6
   9471  00000910  00000001 USING  ORDINARY    00000000 00001000 FFFFFFF6   8 000          @R8,8
   9476  00000910  00000001 USING  ORDINARY    00000000 00001000 FFFFFFF7   7 000          @R7,7
   9495  0000091E  00000001 USING  ORDINARY    00000000 00001000 FFFFFFF8   6 000          @R6,6
   9615  00000B2A  00000001 USING  ORDINARY    00000B2A 00001000 00000001   7 B1D    9975  $$$152B,7
   9629  00000B2A  00000001 USING  ORDINARY    FFFFFFD8 00001000 FFFFFFE4   8 278    9972  STVWA-(4+36),R8
   9990  00000C74  00000001 USING  ORDINARY    00000000 00001000 FFFFFFF6   8 000          @R8,8
   9995  00000C74  00000001 USING  ORDINARY    00000000 00001000 FFFFFFF7   7 000          @R7,7
  10067  00000C9C  00000001 USING  ORDINARY    00000C9C 00001000 00000001   7 9FD   10432  $$$167B,7
  10081  00000C9C  00000001 USING  ORDINARY    FFFFFFD8 00001000 FFFFFFE4   8 278   10429  STVWA-(4+36),R8
  10447  00000DF4  00000001 USING  ORDINARY    00000000 00001000 FFFFFFF6   8 000          @R8,8
  10452  00000DF4  00000001 USING  ORDINARY    00000000 00001000 FFFFFFF7   7 000          @R7,7
  10529  00000E1C  00000001 USING  ORDINARY    00000E1C 00001000 00000001   7 7DE   10808  $$$181B,7
  10543  00000E1C  00000001 USING  ORDINARY    FFFFFFD8 00001000 FFFFFFE3   8 028   10556  SHVWA-(4+36),R8
1VARS     (VARS9014) (12:59) (15MAR04) Using Map                                                                            Page  166
  10554  00000E1C  00000001 USING  ORDINARY    00000000 00001000 FFFFFFE8   6 000   10574  VNENTRY,R6
  10832  00000EE8  00000001 USING  ORDINARY    00000000 00001000 FFFFFFF6   8 000          @R8,8
  10837  00000EE8  00000001 USING  ORDINARY    00000000 00001000 FFFFFFF7   7 000          @R7,7
  10856  00000EF6  00000001 USING  ORDINARY    00000000 00001000 FFFFFFF8   6 000          @R6,6
  10926  00000F10  00000001 USING  ORDINARY    00000F10 00001000 00000001   7 700   11176  $$$195B,7
  10940  00000F10  00000001 USING  ORDINARY    FFFFFFD8 00001000 FFFFFFE2   8 028   10944  SVRWA-(4+36),R8
  10952  00000F14  00000001 USING  ORDINARY    00000000 00001000 FFFFFFE2   5 1F4   12636  SVRWA,R5
  10961  00000F14  00000001 USING  ORDINARY    00000000 00001000 FFFFFFE8   6 020   12632  VNENTRY,R6
  11187  0000103C  00000001 USING  ORDINARY    00000000 00001000 FFFFFFF6   8 000          @R8,8
  11192  0000103C  00000001 USING  ORDINARY    00000000 00001000 FFFFFFF7   7 000          @R7,7
  11334  00001156  00000001 USING  ORDINARY    00001156 00001000 00000001   7 406   11368  $$$204B,7
  11380  00001170  00000001 USING  ORDINARY    00000000 00001000 FFFFFFF7   7 000          @R7,7
  11427  00001198  00000001 USING  ORDINARY    00001198 00001000 00000001   7 548   11522  $$$207B,7
  11551  000011CE  00000001 USING  ORDINARY    00000000 00001000 FFFFFFF7   7 000          @R7,7
  11598  000011F6  00000001 USING  ORDINARY    000011F6 00001000 00000001   7 4F0   11654  $$$216B,7
  11683  0000121E  00000001 USING  ORDINARY    00000000 00001000 FFFFFFF7   7 000          @R7,7
  11730  00001246  00000001 USING  ORDINARY    00001246 00001000 00000001   7 4A6   11786  $$$222B,7
  11815  0000126E  00000001 USING  ORDINARY    00000000 00001000 FFFFFFF7   7 000          @R7,7
  11867  00001296  00000001 USING  ORDINARY    00001296 00001000 00000001   7 421   12246  $$$228B,7
  12264  000013AA  00000001 USING  ORDINARY    00000000 00001000 FFFFFFF7   7 000          @R7,7
  12317  000013D2  00000001 USING  ORDINARY    000013D2 00001000 00000001   7 260   12637  $$$248B,7
  12653  000014C8  00000001 USING  ORDINARY    00000000 00001000 FFFFFFF7   7 000          @R7,7
  12672  000014D6  00000001 USING  ORDINARY    00000000 00001000 FFFFFFF9   5 000          @R5,5
  12679  000014D6  00000001 USING  ORDINARY    00000000 00001000 FFFFFFF8   6 000          @R6,6
  12824  0000170C  00000001 USING  ORDINARY    0000170C 00001000 00000001   7 728   13650  $$$266B,7
  12838  0000170C  00000001 USING  ORDINARY    FFFFFFD8 00001000 FFFFFFE1   8 028   12842  SHYWA-(4+36),R8
  12850  00001710  00000001 USING  ORDINARY    00000000 00001000 FFFFFFE1   5 018   14379  SHYWA,R5
  12859  00001710  00000001 USING  ORDINARY    00000000 00001000 FFFFFFF6   8 000          @R8,8
  12862  00001710  00000001 USING  ORDINARY    00000000 00001000 FFFFFFE1   8 16C   13646  SHYWA,R8
  12871  00001710  00000001 USING  ORDINARY    00000000 00001000 FFFFFFE8   6 036   13573  VNENTRY,R6
  13668  00001A70  00000001 USING  ORDINARY    00000000 00001000 FFFFFFF6   8 000          @R8,8
  13673  00001A70  00000001 USING  ORDINARY    00000000 00001000 FFFFFFF7   7 000          @R7,7
  13815  00001B8A  00000001 USING  ORDINARY    00001B8A 00001000 00000001   7 24E   13901  $$$296B,7
  13921  00001BBE  00000001 USING  ORDINARY    00000000 00001000 FFFFFFF7   7 000          @R7,7
  13969  00001BE6  00000001 USING  ORDINARY    00001BE6 00001000 00000001   7 1F2   14055  $$$304B,7
  14075  00001C1A  00000001 USING  ORDINARY    00000000 00001000 FFFFFFF7   7 000          @R7,7
  14123  00001C42  00000001 USING  ORDINARY    00001C42 00001000 00000001   7 196   14211  $$$312B,7
  14232  00001C82  00000001 USING  ORDINARY    00000000 00001000 FFFFFFF7   7 000          @R7,7
  14280  00001CAA  00000001 USING  ORDINARY    00001CAA 00001000 00000001   7 150   14419  $$$320B,7
  14436  00001D12  00000001 USING  ORDINARY    00000000 00001000 FFFFFFF7   7 000          @R7,7
  14455  00001D20  00000001 USING  ORDINARY    00000000 00001000 FFFFFFF9   5 000          @R5,5
  14462  00001D20  00000001 USING  ORDINARY    00000000 00001000 FFFFFFF8   6 000          @R6,6
  14506  00001D3A  00000001 USING  ORDINARY    00001D3A 00001000 00000001   7 10D   14580  $$$329B,7
  14593  00001D62  00000001 USING  ORDINARY    00000000 00001000 FFFFFFF7   7 000          @R7,7
  14712  00001E90  00000001 USING  ORDINARY    00001E90 00001000 00000001   7 FBC   14962  $$$335B,7
  14728  00001E90  00000001 USING  ORDINARY    00000000 00001000 FFFFFFE8   6 020   15066  VNENTRY,R6
  14981  00001F0C  00000001 USING  ORDINARY    00000000 00001000 FFFFFFF7   7 000          @R7,7
  15042  00001F34  00000001 USING  ORDINARY    00001F34 00001000 00000001   7 F20   15070  $$$351B,7
  15079  00001F56  00000001 USING  ORDINARY    00000000 00001000 FFFFFFF7   7 000          @R7,7
  15098  00001F64  00000001 USING  ORDINARY    00000000 00001000 FFFFFFF8   6 000          @R6,6
  15147  00001F7E  00000001 USING  ORDINARY    00001F7E 00001000 00000001   7 EDE   15218  $$$354B,7
  15163  00001F7E  00000001 USING  ORDINARY    00000000 00001000 FFFFFFE8   6 020   15200  VNENTRY,R6
  15236  00001FB4  00000001 USING  ORDINARY    00000000 00001000 FFFFFFF7   7 000          @R7,7
  15255  00001FC2  00000001 USING  ORDINARY    00000000 00001000 FFFFFFF8   6 000          @R6,6
  15304  00001FDC  00000001 USING  ORDINARY    00001FDC 00001000 00000001   7 E78   15339  $$$359B,7
  15320  00001FDC  00000001 USING  ORDINARY    00000000 00001000 FFFFFFE8   6 020   15335  VNENTRY,R6
  15348  00001FFE  00000001 USING  ORDINARY    00000000 00001000 FFFFFFF7   7 000          @R7,7
  15367  0000200C  00000001 USING  ORDINARY    00000000 00001000 FFFFFFF8   6 000          @R6,6
  15440  00002026  00000001 USING  ORDINARY    00002026 00001000 00000001   7 E3A   15518  $$$362B,7
1VARS     (VARS9014) (12:59) (15MAR04) Using Map                                                                            Page  167
  15454  00002026  00000001 USING  ORDINARY    FFFFFFD8 00001000 FFFFFFE0   8 02C   15502  GSVWA-(4+36),R8
  15465  00002026  00000001 USING  ORDINARY    00000000 00001000 FFFFFFE8   6 000   15526  VNENTRY,R6
  15544  0000206C  00000001 USING  ORDINARY    00000000 00001000 FFFFFFF6   8 000          @R8,8
  15549  0000206C  00000001 USING  ORDINARY    00000000 00001000 FFFFFFF7   7 000          @R7,7
  15568  0000207A  00000001 USING  ORDINARY    00000000 00001000 FFFFFFF8   6 000          @R6,6
  15617  00002094  00000001 USING  ORDINARY    00002094 00001000 00000001   7 DC0   15652  $$$367B,7
  15633  00002094  00000001 USING  ORDINARY    00000000 00001000 FFFFFFE8   6 020   15648  VNENTRY,R6
  15661  000020B6  00000001 USING  ORDINARY    00000000 00001000 FFFFFFF7   7 000          @R7,7
  15680  000020C4  00000001 USING  ORDINARY    00000000 00001000 FFFFFFF8   6 000          @R6,6
  15729  000020DE  00000001 USING  ORDINARY    000020DE 00001000 00000001   7 D76   15764  $$$370B,7
  15745  000020DE  00000001 USING  ORDINARY    00000000 00001000 FFFFFFE8   6 020   15760  VNENTRY,R6
  15773  00002100  00000001 USING  ORDINARY    00000000 00001000 FFFFFFF7   7 000          @R7,7
  15792  0000210E  00000001 USING  ORDINARY    00000000 00001000 FFFFFFF8   6 000          @R6,6
  15852  00002128  00000001 USING  ORDINARY    00002128 00001000 00000001   7 D7C   16227  $$$373B,7
  15868  00002128  00000001 USING  ORDINARY    00000000 00001000 FFFFFFE8   6 02C   16869  VNENTRY,R6
  16246  000021F4  00000001 USING  ORDINARY    00000000 00001000 FFFFFFF7   7 000          @R7,7
  16338  0000221C  00000001 USING  ORDINARY    0000221C 00001000 00000001   7 D3F   16931  $$$395B,7
  16352  0000221C  00000001 USING  ORDINARY    FFFFFFD8 00001000 FFFFFFDF   8 034   16838  SVWA-(4+36),R8
  16957  000023EA  00000001 USING  ORDINARY    00000000 00001000 FFFFFFF6   8 000          @R8,8
  16962  000023EA  00000001 USING  ORDINARY    00000000 00001000 FFFFFFF7   7 000          @R7,7
  16981  000023F8  00000001 USING  ORDINARY    00000000 00001000 FFFFFFF8   6 000          @R6,6
  17038  00002412  00000001 USING  ORDINARY    00002412 00001000 00000001   7 B98   17567  $$$423B,7
  17052  00002412  00000001 USING  ORDINARY    FFFFFFD8 00001000 FFFFFFDF   8 034   17474  SVWA-(4+36),R8
  17063  00002412  00000001 USING  ORDINARY    00000000 00001000 FFFFFFE8   6 024   17505  VNENTRY,R6
  17593  000025B2  00000001 USING  ORDINARY    00000000 00001000 FFFFFFF6   8 000          @R8,8
  17598  000025B2  00000001 USING  ORDINARY    00000000 00001000 FFFFFFF7   7 000          @R7,7
  17617  000025C0  00000001 USING  ORDINARY    00000000 00001000 FFFFFFF8   6 000          @R6,6
  17673  000025DA  00000001 USING  ORDINARY    000025DA 00001000 00000001   7 9D0   18152  $$$445B,7
  17687  000025DA  00000001 USING  ORDINARY    FFFFFFD8 00001000 FFFFFFDF   8 034   18059  SVWA-(4+36),R8
  17698  000025DA  00000001 USING  ORDINARY    00000000 00001000 FFFFFFE8   6 024   18090  VNENTRY,R6
  18178  0000274E  00000001 USING  ORDINARY    00000000 00001000 FFFFFFF6   8 000          @R8,8
  18183  0000274E  00000001 USING  ORDINARY    00000000 00001000 FFFFFFF7   7 000          @R7,7
  18202  0000275C  00000001 USING  ORDINARY    00000000 00001000 FFFFFFF8   6 000          @R6,6
  18262  00002776  00000001 USING  ORDINARY    00002776 00001000 00000001   7 834   18741  $$$466B,7
  18276  00002776  00000001 USING  ORDINARY    FFFFFFD8 00001000 FFFFFFDF   8 034   18648  SVWA-(4+36),R8
  18287  00002776  00000001 USING  ORDINARY    00000000 00001000 FFFFFFE8   6 024   18679  VNENTRY,R6
  18767  000028EA  00000001 USING  ORDINARY    00000000 00001000 FFFFFFF6   8 000          @R8,8
  18772  000028EA  00000001 USING  ORDINARY    00000000 00001000 FFFFFFF7   7 000          @R7,7
  18791  000028F8  00000001 USING  ORDINARY    00000000 00001000 FFFFFFF8   6 000          @R6,6
  18847  00002912  00000001 USING  ORDINARY    00002912 00001000 00000001   7 698   19396  $$$487B,7
  18861  00002912  00000001 USING  ORDINARY    FFFFFFD8 00001000 FFFFFFDF   8 034   19303  SVWA-(4+36),R8
  18872  00002912  00000001 USING  ORDINARY    00000000 00001000 FFFFFFE8   6 024   19334  VNENTRY,R6
  19422  00002AB4  00000001 USING  ORDINARY    00000000 00001000 FFFFFFF6   8 000          @R8,8
  19427  00002AB4  00000001 USING  ORDINARY    00000000 00001000 FFFFFFF7   7 000          @R7,7
  19446  00002AC2  00000001 USING  ORDINARY    00000000 00001000 FFFFFFF8   6 000          @R6,6
  19506  00002ADC  00000001 USING  ORDINARY    00002ADC 00001000 00000001   7 354   19665  $$$511B,7
  19522  00002ADC  00000001 USING  ORDINARY    00000000 00001000 FFFFFFE8   2 000   22854  VNENTRY,R2
  19682  00002CB2  00000001 USING  ORDINARY    00000000 00001000 FFFFFFF7   7 000          @R7,7
  19843  00002FEA  00000001 USING  ORDINARY    00002FEA 00001000 00000001   7 83A   19867  $$$514B,7
  19878  0000300A  00000001 USING  ORDINARY    00000000 00001000 FFFFFFF7   7 000          @R7,7
  19937  00003032  00000001 USING  ORDINARY    00003032 00001000 00000001   7 7F6   19969  $$$517B,7
  19996  0000306C  00000001 USING  ORDINARY    00000000 00001000 FFFFFFF7   7 000          @R7,7
  20061  00003094  00000001 USING  ORDINARY    00003094 00001000 00000001   7 790   20087  $$$521B,7
  20096  000030AE  00000001 USING  ORDINARY    00000000 00001000 FFFFFFF7   7 000          @R7,7
  20159  000030D6  00000001 USING  ORDINARY    000030D6 00001000 00000001   7 7BC   20215  $$$524B,7
  20237  00003108  00000001 USING  ORDINARY    00000000 00001000 FFFFFFF7   7 000          @R7,7
  20328  00003130  00000001 USING  ORDINARY    00003130 00001000 00000001   7 704   20508  $$$529B,7
  20342  00003130  00000001 USING  ORDINARY    FFFFFFD8 00001000 FFFFFFDE   8 180   20497  GYWA-(4+36),R8
  20353  00003130  00000001 USING  ORDINARY    00000000 00001000 FFFFFFE8   6 028   20496  VNENTRY,R6
1VARS     (VARS9014) (12:59) (15MAR04) Using Map                                                                            Page  168
  20528  000031FC  00000001 USING  ORDINARY    00000000 00001000 FFFFFFF6   8 000          @R8,8
  20533  000031FC  00000001 USING  ORDINARY    00000000 00001000 FFFFFFF7   7 000          @R7,7
  20552  0000320A  00000001 USING  ORDINARY    00000000 00001000 FFFFFFF8   6 000          @R6,6
  20631  00003224  00000001 USING  ORDINARY    00003224 00001000 00000001   7 693   20939  $$$537B,7
  20645  00003224  00000001 USING  ORDINARY    FFFFFFD8 00001000 FFFFFFDD   8 180   20866  SYWA-(4+36),R8
  20656  00003224  00000001 USING  ORDINARY    00000000 00001000 FFFFFFE8   6 030   20883  VNENTRY,R6
  20965  0000334C  00000001 USING  ORDINARY    00000000 00001000 FFFFFFF6   8 000          @R8,8
  20970  0000334C  00000001 USING  ORDINARY    00000000 00001000 FFFFFFF7   7 000          @R7,7
  20989  0000335A  00000001 USING  ORDINARY    00000000 00001000 FFFFFFF8   6 000          @R6,6
  21071  00003374  00000001 USING  ORDINARY    00003374 00001000 00000001   7 5A0   21925  $$$551B,7
  21085  00003374  00000001 USING  ORDINARY    FFFFFFD8 00001000 FFFFFFDC   8 02C   21930  GSWA-(4+36),R8
  21096  00003374  00000001 USING  ORDINARY    00000000 00001000 FFFFFFE8   6 016   21930  VNENTRY,R6
  21946  000035F4  00000001 USING  ORDINARY    00000000 00001000 FFFFFFF6   8 000          @R8,8
  21951  000035F4  00000001 USING  ORDINARY    00000000 00001000 FFFFFFF7   7 000          @R7,7
  21970  00003602  00000001 USING  ORDINARY    00000000 00001000 FFFFFFF8   6 000          @R6,6
  22047  0000361C  00000001 USING  ORDINARY    0000361C 00001000 00000001   7 258   22466  $$$590B,7
  22061  0000361C  00000001 USING  ORDINARY    FFFFFFD8 00001000 FFFFFFDB   8 03A   22455  CKSWA-(4+36),R8
  22072  0000361C  00000001 USING  ORDINARY    00000000 00001000 FFFFFFE8   6 036   22110  VNENTRY,R6
  22484  0000375A  00000001 USING  ORDINARY    00000000 00001000 FFFFFFF6   8 000          @R8,8
  22489  0000375A  00000001 USING  ORDINARY    00000000 00001000 FFFFFFF7   7 000          @R7,7
  22508  00003768  00000001 USING  ORDINARY    00000000 00001000 FFFFFFF8   6 000          @R6,6
  22558  00003782  00000001 USING  ORDINARY    00003782 00001000 00000001   7 1BD   22716  $$$609B,7
  22574  00003782  00000001 USING  ORDINARY    00000000 00001000 FFFFFFE8   6 020   22629  VNENTRY,R6
  22730  000037F8  00000001 USING  ORDINARY    00000000 00001000 FFFFFFF7   7 000          @R7,7
  22749  00003806  00000001 USING  ORDINARY    00000000 00001000 FFFFFFF8   6 000          @R6,6
  22837  0000398A  00000001 USING  ORDINARY    0000398A 00001000 00000001   7 000          $$$616B,7
  22860  00003990  00000001 USING  ORDINARY    00000000 00001000 FFFFFFFC   2 000          @R2,2
  22868  00003990  00000001 USING  ORDINARY    00000000 00001000 FFFFFFF7   7 000          @R7,7
  22925  000039B8  00000001 USING  ORDINARY    000039B8 00001000 00000001   7 C3E   22964  $$$619B,7
  22941  000039B8  00000001 USING  ORDINARY    00000000 00001000 FFFFFFE8   2 000   22971  VNENTRY,R2
  22988  000039CC  00000001 USING  ORDINARY    00000000 00001000 FFFFFFFC   2 000          @R2,2
  22996  000039CC  00000001 USING  ORDINARY    00000000 00001000 FFFFFFF7   7 000          @R7,7
  23053  000039F4  00000001 USING  ORDINARY    000039F4 00001000 00000001   7 C08   23100  $$$625B,7
  23069  000039F4  00000001 USING  ORDINARY    00000000 00001000 FFFFFFE8   2 026   23107  VNENTRY,R2
  23124  00003A10  00000001 USING  ORDINARY    00000000 00001000 FFFFFFFC   2 000          @R2,2
  23132  00003A10  00000001 USING  ORDINARY    00000000 00001000 FFFFFFF7   7 000          @R7,7
  23188  00003A38  00000001 USING  ORDINARY    00003A38 00001000 00000001   7 A68   23217  $$$631B,7
  23204  00003A38  00000001 USING  ORDINARY    00000000 00001000 FFFFFFE8   2 024   23214  VNENTRY,R2
  23224  00003A4C  00000001 USING  ORDINARY    00000000 00001000 FFFFFFFC   2 000          @R2,2
  23232  00003A4C  00000001 USING  ORDINARY    00000000 00001000 FFFFFFF7   7 000          @R7,7
  23297  00003A74  00000001 USING  ORDINARY    00003A74 00001000 00000001   7 A40   23452  $$$634B,7
  23312  00003A74  00000001 USING  ORDINARY    00003A4C 00001000 00000001   8 000          $$$635B-(4+36),R8
  23476  00003ADA  00000001 USING  ORDINARY    00000000 00001000 FFFFFFF6   8 000          @R8,8
  23481  00003ADA  00000001 USING  ORDINARY    00000000 00001000 FFFFFFF7   7 000          @R7,7
  23541  00003B02  00000001 USING  ORDINARY    00003B02 00001000 00000001   7 076   23747  $$$645B,7
  23557  00003B02  00000001 USING  ORDINARY    00000000 00001000 FFFFFFE8   2 010   23730  VNENTRY,R2
  23772  00003B7E  00000001 USING  ORDINARY    00000000 00001000 FFFFFFF7   7 000          @R7,7
  23791  00003B8C  00000001 USING  ORDINARY    00000000 00001000 FFFFFFFC   2 000          @R2,2
  23841  00003BA6  00000001 USING  ORDINARY    00003BA6 00001000 00000001   7 912   24048  $$$660B,7
  23857  00003BA6  00000001 USING  ORDINARY    00000000 00001000 FFFFFFE8   2 010   24031  VNENTRY,R2
  24073  00003C24  00000001 USING  ORDINARY    00000000 00001000 FFFFFFF7   7 000          @R7,7
  24092  00003C32  00000001 USING  ORDINARY    00000000 00001000 FFFFFFFC   2 000          @R2,2
  24143  00003C4C  00000001 USING  ORDINARY    00003C4C 00001000 00000001   7 864   24179  $$$675B,7
  24189  00003C64  00000001 USING  ORDINARY    00000000 00001000 FFFFFFF7   7 000          @R7,7
  24247  00003C8C  00000001 USING  ORDINARY    00003C8C 00001000 00000001   7 830   24261  $$$679B,7
  24274  00003C98  00000001 USING  ORDINARY    00000000 00001000 FFFFFFF7   7 000          @R7,7
  24335  00003CC0  00000001 USING  ORDINARY    00003CC0 00001000 00000001   7 804   24376  $$$682B,7
  24389  00003CDA  00000001 USING  ORDINARY    00000000 00001000 FFFFFFF7   7 000          @R7,7
  24441  00003D02  00000001 USING  ORDINARY    00003D02 00001000 00000001   7 7C6   24457  $$$686B,7
1VARS     (VARS9014) (12:59) (15MAR04) Using Map                                                                            Page  169
  24474  00003D1E  00000001 USING  ORDINARY    00000000 00001000 FFFFFFF7   7 000          @R7,7
  24550  00003D46  00000001 USING  ORDINARY    00003D46 00001000 00000001   7 7F2   24794  $$$689B,7
  24564  00003D46  00000001 USING  ORDINARY    FFFFFFD8 00001000 FFFFFFDA   8 028   24577  VARWA-(4+36),R8
  24575  00003D46  00000001 USING  ORDINARY    00000000 00001000 FFFFFFE8   6 02F   24774  VNENTRY,R6
  24807  00003E76  00000001 USING  ORDINARY    00000000 00001000 FFFFFFF6   8 000          @R8,8
  24812  00003E76  00000001 USING  ORDINARY    00000000 00001000 FFFFFFF7   7 000          @R7,7
  24831  00003E84  00000001 USING  ORDINARY    00000000 00001000 FFFFFFF8   6 000          @R6,6
  24881  00003E9E  00000001 USING  ORDINARY    00003E9E 00001000 00000001   7 000          $$$698B,7
  24898  00003E9E  00000001 USING  ORDINARY    00000000 00001000 FFFFFFF7   7 000          @R7,7
  24943  00003EC6  00000001 USING  ORDINARY    00003EC6 00001000 00000001   7 000          $$$701B,7
  24960  00003EC6  00000001 USING  ORDINARY    00000000 00001000 FFFFFFF7   7 000          @R7,7
  25029  00003EEE  00000001 USING  ORDINARY    00003EEE 00001000 00000001   7 6BB   25258  $$$704B,7
  25277  00003F7A  00000001 USING  ORDINARY    00000000 00001000 FFFFFFF7   7 000          @R7,7
  25337  00003FA2  00000001 USING  ORDINARY    00003FA2 00001000 00000001   7 598   25498  $$$718B,7
  25423  0000400E  00000001 DROP                                            2              2
  25427  00004014  00000001 USING  ORDINARY    00000000 00001000 FFFFFFFC   2 000          @R2,2
  25525  00004044  00000001 USING  ORDINARY    00000000 00001000 FFFFFFF7   7 000          @R7,7
  25591  0000406C  00000001 USING  ORDINARY    0000406C 00001000 00000001   7 556   25624  $$$727B,7
  25632  0000408A  00000001 USING  ORDINARY    00000000 00001000 FFFFFFF7   7 000          @R7,7
  25692  000040B2  00000001 USING  ORDINARY    000040B2 00001000 00000001   7 48A   26003  $$$730B,7
  25708  000040B2  00000001 USING  ORDINARY    00000000 00001000 FFFFFFE8   6 010   25985  VNENTRY,R6
  26012  00004166  00000001 USING  ORDINARY    00000000 00001000 FFFFFFF7   7 000          @R7,7
  26031  00004174  00000001 USING  ORDINARY    00000000 00001000 FFFFFFF8   6 000          @R6,6
  26107  0000418E  00000001 USING  ORDINARY    0000418E 00001000 00000001   7 445   26330  $$$744B,7
  26121  0000418E  00000001 USING  ORDINARY    FFFFFFD8 00001000 FFFFFFD9   8 028   26134  SGVWA-(4+36),R8
  26132  0000418E  00000001 USING  ORDINARY    00000000 00001000 FFFFFFE8   6 026   26285  VNENTRY,R6
  26339  0000422C  00000001 USING  ORDINARY    00000000 00001000 FFFFFFF6   8 000          @R8,8
  26344  0000422C  00000001 USING  ORDINARY    00000000 00001000 FFFFFFF7   7 000          @R7,7
  26363  0000423A  00000001 USING  ORDINARY    00000000 00001000 FFFFFFF8   6 000          @R6,6
  26413  00004254  00000001 USING  ORDINARY    00004254 00001000 00000001   7 382   26650  $$$751B,7
  26429  00004254  00000001 USING  ORDINARY    00000000 00001000 FFFFFFE8   6 036   26558  VNENTRY,R6
  26659  0000430C  00000001 USING  ORDINARY    00000000 00001000 FFFFFFF7   7 000          @R7,7
  26678  0000431A  00000001 USING  ORDINARY    00000000 00001000 FFFFFFF8   6 000          @R6,6
  26726  00004334  00000001 USING  ORDINARY    00004334 00001000 00000001   7 2A3   26875  $$$756B,7
  26884  000043A2  00000001 USING  ORDINARY    00000000 00001000 FFFFFFF7   7 000          @R7,7
  26943  000043CA  00000001 USING  ORDINARY    000043CA 00001000 00000001   7 174   26972  $$$761B,7
  26981  000043E6  00000001 USING  ORDINARY    00000000 00001000 FFFFFFF7   7 000          @R7,7
  27040  0000440E  00000001 USING  ORDINARY    0000440E 00001000 00000001   7 1D4   27069  $$$764B,7
  27078  0000442A  00000001 USING  ORDINARY    00000000 00001000 FFFFFFF7   7 000          @R7,7
  27136  00004452  00000001 USING  ORDINARY    00004452 00001000 00000001   7 10A   27227  $$$767B,7
  27236  0000448E  00000001 USING  ORDINARY    00000000 00001000 FFFFFFF7   7 000          @R7,7

1         (VARS9014) (12:59) (15MAR04) General Purpose Register Cross Reference                                             Page  170
- Register  References (M=modified, B=branch, U=USING, D=DROP, N=index)                      HLASM R4.0  2004/03/15 12.59
0    0(0)      982U   983D  2099   2167M  2167   2168M  6990   7020M  7021   7040M  7117   7196M  7196   7205   7206
              7255M  7267M  7280M  7280   7291M  7319M  7319   7354M  7372M  7404M  7404   7414M  7443M  7443   7453M
              7481M  7481   7490M  7490   7547M  7595M  7641M  7676M  7731M  7790M  7850M  7979M  8108M  8372M  8514
              8561M  8581   8628M  8648   8695M  8715   8770M  8786M  8864   8989   8995   9018   9144M  9208M  9301M
              9424M  9484M  9597   9654M  9694M  9694   9704M  9737M  9737   9747M  9776M  9776   9787M  9816M  9816
              9826M  9857M  9878   9889M  9889   9898   9899   9900   9927M  9927   9962M  9970M 10003M 10049  10106M
             10133M 10151M 10191M 10191  10201M 10234M 10234  10244M 10273M 10273  10283M 10314M 10335  10346M 10346
             10355  10356  10357  10384M 10384  10419M 10427M 10460M 10511  10561M 10611M 10611  10632M 10678M 10678
             10698  10705M 10720M 10752M 10785M 10785  10809M 10845M 10908  11006M 11006  11015  11016  11040M 11049M
             11147M 11147  11166M 11200M 11317  11361M 11388M 11410  11454M 11463  11502  11559M 11581  11625M 11634
             11691M 11713  11757M 11766  11823M 11850  11896M 11941M 11957  11995M 11996  12033M 12072M 12073  12074M
             12075  12113M 12114  12115M 12116  12184M 12247M 12272M 12300  12326  12383M 12399  12457M 12458  12515M
             12572M 12573  12574M 12575  12633M 12634  12635M 12636  12644M 12646  12661M 12806  12880M 12906M 12940M
             12958M 12982  13016M 13046M 13068M 13068  13102M 13102  13111  13112  13251M 13276M 13294M 13294  13396M
             13421M 13439M 13439  13571M 13596M 13614M 13614  13681M 13798  13842  13874  13906  13929M 13952  13996
             14028  14060  14083M 14106  14150  14151  14183  14184  14216  14217  14240M 14263  14402M 14420M 14444M
             14489  14581M 14601M 14695  14989M 15025  15057M 15065M 15087M 15130  15199M 15244M 15287  15326M 15334M
             15356M 15422  15470M 15495M 15495  15524M 15528M 15557M 15600  15639M 15647M 15669M 15712  15751M 15759M
             15781M 15835  16059M 16254M 16320  16358  16365M 16373M 16423M 16487M 16552M 16791M 16792M 16805M 16805
             16836M 16854M 16855M 16875M 16903M 16970M 17020  17065  17097M 17130M 17180M 17244M 17310M 17472M 17490M
             17491M 17511M 17539M 17606M 17655  17700  17707M 17715M 17765M 17829M 17895M 18057M 18075M 18076M 18096M
             18124M 18191M 18244  18289  18296M 18304M 18354M 18418M 18484M 18646M 18664M 18665M 18685M 18713M 18780M
             18829  18874  18929M 18951M 18959M 19009M 19073M 19139M 19301M 19319M 19320M 19340M 19368M 19435M 19489
             19690M 19826  19854  19856M 19862M 19871  19886M 19920  19948  19950M 19956M 19977  20004M 20044  20070
             20074M 20082M 20104M 20142  20168  20172M 20180M 20203M 20245M 20310  20394M 20394  20400  20425M 20443M
             20456M 20486M 20495M 20541M 20613  20689M 20698M 20855M 20864M 20882M 20883M 20911M 20978M 21053  21147M
             21147  21155M 21184M 21184  21200M 21221M 21249M 21249  21257M 21286M 21286  21301M 21375M 21375  21383M
             21412M 21412  21448M 21448  21622M 21622  21634M 21704M 21766M 21807M 21831M 21831  21894M 21927M 21939
             21959M 22029  22074  22075  22111M 22123  22135M 22147  22497M 22541  22576  22663M 22705M 22738M 22820
             22876M 22908  22944  23004M 23036  23079  23080  23140M 23171  23240M 23279  23318M 23332  23338M 23365
             23371M 23372M 23410M 23451  23460  23469  23489M 23524  23579M 23610M 23640M 23673  23706M 23736M 23765
             23780M 23824  23878M 23941M 23974  24007M 24037M 24066  24081M 24126  24178M 24179M 24182  24197M 24230
             24282M 24318  24357  24397M 24424  24453M 24461M 24462  24482M 24532  24581M 24592M 24645M 24711M 24772M
             24790M 24820M 24864  24906M 24926  24968M 25012  25076M 25129M 25211M 25211  25221M 25250M 25250  25270
             25285M 25320  25363  25374M 25374  25383  25384  25385  25415  25533M 25574  25609M 25640M 25675  25751M
             25797M 25843M 25889M 25935M 25992M 26020M 26089  26136M 26139M 26161M 26207M 26221M 26251M 26285M 26319M
             26352M 26396  26431  26447M 26470M 26470  26506M 26529M 26529  26569M 26592M 26592  26614M 26634M 26667M
             26709  26780M 26780  26802M 26824M 26824  26842M 26864M 26892M 26926  26957M 26989M 27023  27054M 27086M
             27119  27190M 27190  27216M 27244M
     1(1)      978U  2099   2162M  2163M  2169M  6990   7040M  7117   7192M  7205N  7206N  7208N  7254M  7266M  7290M
              7353M  7371M  7412M  7451M  7546M  7594M  7640M  7675M  7705M  7730M  7789M  7851M  7980M  8109M  8242M
              8372M  8514   8561M  8581   8628M  8648   8695M  8715   8769M  8786M  8864   8961   8996M  8997M  8997N
              8998   8999   9009M  9009   9018   9145M  9209M  9302M  9425M  9484M  9597   9653M  9702M  9745M  9786M
              9824M  9856M  9877   9885M  9898N  9899N  9900N  9961M  9971M 10003M 10049  10105M 10132M 10150M 10199M
             10242M 10281M 10313M 10334  10342M 10355N 10356N 10357N 10418M 10428M 10460M 10511  10560M 10630M 10630N
             10698  10704M 10720M 10751M 10808M 10845M 10908  10966M 10967  10968M 10969  11002M 11015N 11016N 11018N
             11050M 11086M 11167M 11200M 11317  11354M 11388M 11410  11447M 11559M 11581  11618M 11691M 11713  11750M
             11823M 11850  11889M 11940M 12032M 12185M 12246M 12272M 12300  12382M 12401M 12401N 12460M 12460N 12514M
             12577M 12577N 12638M 12638N 12646  12661M 12806  12879M 12905M 12933M 12957M 12981  12990M 13015M 13045M
             13098M 13111N 13112N 13114N 13252M 13397M 13572M 13681M 13798  13929M 13952  14083M 14106  14240M 14263
             14401M 14419M 14444M 14489  14580M 14601M 14695  14989M 15025  15053  15066M 15087M 15130  15165  15200M
             15244M 15287  15322  15335M 15356M 15422  15467  15471M 15499M 15499  15525M 15527  15528M 15557M 15600
             15635  15648M 15669M 15712  15747  15760M 15781M 15835  16058M 16254M 16320  16359  16374M 16422M 16486M
             16551M 16793M 16794M 16816M 16816  16837M 16902M 16970M 17020  17066  17096M 17131M 17179M 17243M 17309M
             17473M 17538M 17606M 17655  17701  17716M 17764M 17828M 17894M 18058M 18123M 18191M 18244  18290  18305M
1         (VARS9014) (12:59) (15MAR04) General Purpose Register Cross Reference                                             Page  171
             18353M 18417M 18483M 18647M 18712M 18780M 18829  18875  18928M 18960M 19008M 19072M 19138M 19302M 19367M
             19435M 19489  19690M 19826  19871  19886M 19920  19977  20004M 20044  20104M 20142  20202M 20245M 20310
             20355  20424M 20425M 20466M 20475  20476  20496M 20541M 20613  20658  20835M 20844  20845  20865M 20910M
             20978M 21053  21153M 21153N 21199M 21219M 21219N 21255M 21255N 21300M 21381M 21381N 21633M 21703M 21765M
             21805M 21805N 21893M 21925M 21939  21959M 22029  22497M 22541  22603M 22662M 22704M 22738M 22820  22876M
             22908  23004M 23036  23140M 23171  23214  23240M 23279  23460  23489M 23524  23673  23780M 23824  23974
             24081M 24126  24197M 24230  24282M 24318  24373M 24397M 24424  24454M 24482M 24532  24646M 24712M 24773M
             24820M 24864  24906M 24926  24968M 25012  25075M 25128M 25219M 25270  25285M 25320  25362  25370M 25383N
             25384N 25385N 25401M 25402M 25402N 25533M 25574  25608M 25640M 25675  25750M 25796M 25842M 25888M 25934M
             25985M 26020M 26089  26137M 26138  26139M 26160M 26206M 26220M 26250M 26284M 26318M 26352M 26396  26446M
             26466M 26505M 26525M 26568M 26588M 26613M 26633M 26667M 26709  26801M 26820M 26841M 26863M 26892M 26926
             26956M 26989M 27023  27053M 27086M 27119  27215M 27244M
     2(2)      974U  2099   6990   7040M  7117   7304M  7330M  7330N  7502M  7522   7751   7806M  7806N  7852M  7872
              7927M  7927N  7981M  8001   8056M  8056N  8110M  8130   8185M  8185N  8243M  8263   8318M  8318N  8372M
              8514   8561M  8581   8628M  8648   8695M  8715   8786M  8864   8932   8937   8959M  8963M  8984M  8990M
              9018   9146M  9210M  9303M  9426M  9484M  9597   9661M  9835M  9972M 10003M 10049  10158M 10292M 10429M
             10460M 10511  10574M 10845M 10908  10977M 10980M 11051M 11086M 11130M 11168M 11200M 11317  11388M 11410
             11559M 11581  11691M 11713  11823M 11850  12186M 12272M 12300  12661M 12806  12885M 12965M 12966  12991M
             13253M 13277M 13398M 13422M 13573M 13597M 13681M 13798  13929M 13952  14083M 14106  14240M 14263  14444M
             14489  14601M 14695  14730  14989M 15025  15087M 15130  15244M 15287  15356M 15422  15471  15501  15523
             15557M 15600  15669M 15712  15781M 15835  15870  16254M 16320  16360  16375M 16462M 16526M 16542M 16717M
             16838M 16970M 17020  17067  17132M 17219M 17283M 17300M 17474M 17606M 17655  17702  17717M 17804M 17868M
             17885M 18059M 18191M 18244  18291  18306M 18393M 18457M 18474M 18648M 18780M 18829  18876  18961M 19048M
             19112M 19129M 19303M 19435M 19489  19522U 19690M 19826  19886M 19920  19977  20004M 20044  20104M 20142
             20245M 20310  20356  20444M 20457M 20467M 20478  20479  20480  20481  20497M 20541M 20613  20659  20690M
             20699M 20708M 20836M 20847  20848  20849  20850  20866M 20978M 21053  21098  21190M 21483  21493M 21493
             21499M 21520  21526M 21565M 21600M 21628M 21672M 21698M 21779M 21838M 21884M 21959M 22029  22076  22497M
             22541  22579  22604M 22738M 22820  22860U 22876M 22908  22941U 22988U 23004M 23036  23069U 23124U 23140M
             23171  23204U 23224U 23240M 23279  23460  23489M 23524  23557U 23673  23780M 23791U 23824  23857U 23974
             24081M 24092U 24126  24197M 24230  24282M 24318  24397M 24424  24482M 24532  24606M 24609M 24647M 24667M
             24670M 24713M 24733M 24736M 24774M 24820M 24864  24906M 24926  24968M 25012  25285M 25320  25423D 25425M
             25425  25426M 25427U 25442  25454  25466  25533M 25574  25640M 25675  25710  26020M 26089  26139M 26279M
             26352M 26396  26432  26435M 26647M 26667M 26709  26892M 26926  26989M 27023  27086M 27119  27244M
     3(3)      970U  2099   6990   7040M  7117   7308M  7308   7331M  7331N  7343   7739M  7751   7757   7769   7800M
              7800N  7977M  7978   8106M  8107   8372M  8514   8561M  8581   8628M  8648   8695M  8715   8786M  8864
              8960M  8962   8963M  9018   9216M  9217M  9217N  9218   9309M  9310M  9310N  9311   9317M  9318M  9318N
              9319   9432M  9433M  9433N  9434   9440M  9441M  9441N  9442   9448M  9449M  9449N  9450   9484M  9597
             10003M 10049  10460M 10511  10845M 10908  10978M 10980M 11200M 11317  11388M 11410  11463M 11467M 11476M
             11476  11483  11502M 11506M 11515M 11515  11522  11559M 11581  11634M 11638M 11647M 11647  11654  11691M
             11713  11766M 11770M 11779M 11779  11786  11823M 11850  12272M 12300  12326M 12342  12400M 12432  12459M
             12491  12547  12576M 12608  12637M 12644  12661M 12806  13308M 13309M 13309N 13310  13453M 13454M 13454N
             13455  13461M 13462M 13462N 13463  13628M 13629M 13629N 13630  13636M 13637M 13637N 13638  13644M 13645M
             13645N 13646  13681M 13798  13929M 13952  14083M 14106  14240M 14263  14324M 14325M 14325N 14326  14377M
             14378M 14378N 14379  14444M 14489  14601M 14695  14989M 15025  15087M 15130  15244M 15287  15356M 15422
             15467M 15524  15557M 15600  15669M 15712  15781M 15835  16254M 16320  16970M 17020  17606M 17655  18191M
             18244  18780M 18829  19435M 19489  19690M 19826  19854M 19862  19886M 19920  19948M 19956  19977  20004M
             20044  20074  20104M 20142  20172  20245M 20310  20541M 20613  20978M 21053  21327M 21327  21347M 21347N
             21837M 21837N 21865  21959M 22029  22405M 22433M 22461M 22497M 22541  22738M 22820  22876M 22908  22944M
             22948M 22957M 22957  22964  23004M 23036  23080M 23084M 23093M 23093  23100  23140M 23171  23240M 23279
             23460  23489M 23524  23673  23780M 23824  23974  24081M 24126  24197M 24230  24282M 24318  24397M 24424
             24482M 24532  24607M 24609M 24668M 24670M 24734M 24736M 24820M 24864  24906M 24926  24968M 25012  25285M
             25320  25428M 25442  25533M 25574  25640M 25675  26020M 26089  26138M 26139M 26352M 26396  26460M 26466
             26519M 26525  26582M 26588  26667M 26709  26820  26892M 26926  26989M 27023  27086M 27119  27244M
     4(4)      966U  2099   6990   7040M  7117   8372M  8514   8561M  8581   8628M  8648   8695M  8715   8786M  8864
              8961M  8963M  9018   9484M  9597  10003M 10049  10460M 10511  10573M 10573  10596M 10596N 10741  10769
             10845M 10908  11200M 11317  11388M 11410  11559M 11581  11691M 11713  11823M 11850  12272M 12300  12661M
             12806  13681M 13798  13929M 13952  14083M 14106  14240M 14263  14444M 14489  14601M 14695  14989M 15025
             15087M 15130  15244M 15287  15356M 15422  15526M 15528M 15557M 15600  15669M 15712  15781M 15835  16254M
             16320  16970M 17020  17606M 17655  18191M 18244  18780M 18829  19435M 19489  19690M 19826  19886M 19920
1         (VARS9014) (12:59) (15MAR04) General Purpose Register Cross Reference                                             Page  172
             19977  20004M 20044  20070M 20082  20104M 20142  20168M 20180  20245M 20310  20422M 20425M 20541M 20613
             20978M 21053  21328M 21483N 21484M 21484N 21959M 22029  22497M 22541  22738M 22820  22876M 22908  23004M
             23036  23140M 23171  23240M 23279  23460  23489M 23524  23673  23780M 23824  23974  24081M 24126  24197M
             24230  24282M 24318  24397M 24424  24482M 24532  24609M 24622M 24622  24636  24642  24652M 24652N 24670M
             24688M 24688  24702  24708  24718M 24718N 24736M 24749M 24749  24763  24769  24779M 24779N 24820M 24864
             24906M 24926  24968M 25012  25285M 25320  25429M 25454  25533M 25574  25640M 25675  26020M 26089  26352M
             26396  26667M 26709  26892M 26926  26989M 27023  27086M 27119  27244M
     5(5)      962U  2099   6990   7040M  7117   7153M  7161U  8372M  8514   8561M  8581   8628M  8648   8695M  8715
              8786M  8797U  8864   8962M  8963M  9018   9484M  9597  10003M 10049  10460M 10511  10845M 10908  10944M
             10952U 11200M 11317  11388M 11410  11559M 11581  11691M 11713  11823M 11850  12272M 12300  12661M 12672U
             12806  12842M 12850U 13681M 13798  13929M 13952  14083M 14106  14240M 14263  14444M 14455U 14489  14601M
             14695  14989M 15025  15087M 15130  15244M 15287  15356M 15422  15527M 15528M 15557M 15600  15669M 15712
             15781M 15835  16254M 16320  16970M 17020  17606M 17655  18191M 18244  18780M 18829  19435M 19489  19690M
             19826  19886M 19920  19977  20004M 20044  20104M 20142  20245M 20310  20423M 20424  20425M 20541M 20613
             20978M 21053  21959M 22029  22497M 22541  22738M 22820  22876M 22908  23004M 23036  23140M 23171  23240M
             23279  23460  23489M 23524  23673  23780M 23824  23974  24081M 24126  24197M 24230  24282M 24318  24397M
             24424  24482M 24532  24608M 24609M 24669M 24670M 24735M 24736M 24820M 24864  24906M 24926  24968M 25012
             25285M 25320  25430M 25466  25533M 25574  25640M 25675  26020M 26089  26352M 26396  26432M 26435  26460N
             26519N 26582N 26647  26667M 26709  26892M 26926  26989M 27023  27086M 27119  27244M
     6(6)      958U  2099   6990   7040M  7117   7170U  7172M  7522M  7829M  7872M  7963M  8001M  8092M  8130M  8221M
              8263M  8372M  8514   8561M  8581   8628M  8648   8695M  8715   8786M  8804U  8864   8907U  8932M  8936M
              8966M  9018   9026M  9042M  9077M  9112M  9142M  9154M  9484M  9495U  9597  10003M 10049  10460M 10511
             10554U 10556M 10845M 10856U 10908  10961U 10963M 11200M 11317  11388M 11410  11559M 11581  11691M 11713
             11823M 11850  12272M 12300  12661M 12679U 12806  12871U 12875M 12964M 12989M 13083M 13227M 13349M 13502M
             13681M 13798  13929M 13952  14083M 14106  14240M 14263  14444M 14462U 14489  14601M 14695  14728U 14730M
             14989M 15025  15053M 15087M 15098U 15130  15163U 15165M 15244M 15255U 15287  15320U 15322M 15356M 15367U
             15422  15465U 15500M 15557M 15568U 15600  15633U 15635M 15669M 15680U 15712  15745U 15747M 15781M 15792U
             15835  15868U 15870M 16254M 16320  16361M 16790M 16833M 16970M 16981U 17020  17063U 17068M 17469M 17606M
             17617U 17655  17698U 17703M 18054M 18191M 18202U 18244  18287U 18292M 18643M 18780M 18791U 18829  18872U
             18877M 19298M 19435M 19446U 19489  19690M 19826  19886M 19920  19977  20004M 20044  20104M 20142  20245M
             20310  20353U 20359M 20400M 20465M 20484M 20494M 20541M 20552U 20613  20656U 20662M 20707M 20834M 20853M
             20863M 20978M 20989U 21053  21096U 21098M 21959M 21970U 22029  22072U 22074M 22079M 22103M 22107M 22497M
             22508U 22541  22574U 22576M 22738M 22749U 22820  22876M 22908  23004M 23036  23140M 23171  23240M 23279
             23460  23489M 23524  23673  23780M 23824  23974  24081M 24126  24197M 24230  24282M 24318  24397M 24424
             24482M 24532  24575U 24577M 24820M 24831U 24864  24906M 24926  24968M 25012  25285M 25320  25533M 25574
             25640M 25675  25708U 25710M 26020M 26031U 26089  26132U 26134M 26352M 26363U 26396  26429U 26431M 26667M
             26678U 26709  26892M 26926  26989M 27023  27086M 27119  27244M
     7(7)      954U  2092M  2092   2093B  2099   2105B  6990   6995M  7007U  7032U  7040M  7117   7123M  7135U  8364U
              8372M  8514   8519M  8531U  8553U  8561M  8581   8586M  8598U  8620U  8628M  8648   8653M  8665U  8687U
              8695M  8715   8720M  8732U  8778U  8786M  8864   8870M  8882U  9018   9476U  9484M  9597   9603M  9615U
              9995U 10003M 10049  10055M 10067U 10452U 10460M 10511  10517M 10529U 10837U 10845M 10908  10914M 10926U
             11192U 11200M 11317  11322M 11334U 11380U 11388M 11410  11415M 11427U 11551U 11559M 11581  11586M 11598U
             11683U 11691M 11713  11718M 11730U 11815U 11823M 11850  11855M 11867U 12264U 12272M 12300  12305M 12317U
             12653U 12661M 12806  12812M 12824U 13673U 13681M 13798  13803M 13815U 13921U 13929M 13952  13957M 13969U
             14075U 14083M 14106  14111M 14123U 14232U 14240M 14263  14268M 14280U 14436U 14444M 14489  14494M 14506U
             14593U 14601M 14695  14700M 14712U 14981U 14989M 15025  15030M 15042U 15079U 15087M 15130  15135M 15147U
             15236U 15244M 15287  15292M 15304U 15348U 15356M 15422  15428M 15440U 15549U 15557M 15600  15605M 15617U
             15661U 15669M 15712  15717M 15729U 15773U 15781M 15835  15840M 15852U 16246U 16254M 16320  16326M 16338U
             16962U 16970M 17020  17026M 17038U 17598U 17606M 17655  17661M 17673U 18183U 18191M 18244  18250M 18262U
             18772U 18780M 18829  18835M 18847U 19427U 19435M 19489  19494M 19506U 19682U 19690M 19826  19831M 19843U
             19878U 19886M 19920  19925M 19937U 19977  19996U 20004M 20044  20049M 20061U 20096U 20104M 20142  20147M
             20159U 20237U 20245M 20310  20316M 20328U 20533U 20541M 20613  20619M 20631U 20970U 20978M 21053  21059M
             21071U 21951U 21959M 22029  22035M 22047U 22489U 22497M 22541  22546M 22558U 22730U 22738M 22820  22825M
             22837U 22868U 22876M 22908  22913M 22925U 22996U 23004M 23036  23041M 23053U 23132U 23140M 23171  23176M
             23188U 23232U 23240M 23279  23285M 23297U 23460  23481U 23489M 23524  23529M 23541U 23673  23772U 23780M
             23824  23829M 23841U 23974  24073U 24081M 24126  24131M 24143U 24189U 24197M 24230  24235M 24247U 24274U
             24282M 24318  24323M 24335U 24389U 24397M 24424  24429M 24441U 24474U 24482M 24532  24538M 24550U 24812U
             24820M 24864  24869M 24881U 24898U 24906M 24926  24931M 24943U 24960U 24968M 25012  25017M 25029U 25277U
             25285M 25320  25325M 25337U 25525U 25533M 25574  25579M 25591U 25632U 25640M 25675  25680M 25692U 26012U
1         (VARS9014) (12:59) (15MAR04) General Purpose Register Cross Reference                                             Page  173
             26020M 26089  26095M 26107U 26344U 26352M 26396  26401M 26413U 26659U 26667M 26709  26714M 26726U 26884U
             26892M 26926  26931M 26943U 26981U 26989M 27023  27028M 27040U 27078U 27086M 27119  27124M 27136U 27236U
             27244M
     8(8)      950U  2099   6990   6991M  7036   7040M  7117   7119M  7149U  8359U  8368   8372M  8514   8515M  8557
              8561M  8581   8582M  8624   8628M  8648   8649M  8691   8695M  8715   8716M  8782   8786M  8864   8866M
              8896U  9018   9471U  9480   9484M  9597   9599M  9629U  9990U  9999  10003M 10049  10051M 10081U 10447U
             10456  10460M 10511  10513M 10543U 10832U 10841  10845M 10908  10910M 10940U 11187U 11196  11200M 11317
             11318M 11384  11388M 11410  11411M 11555  11559M 11581  11582M 11687  11691M 11713  11714M 11819  11823M
             11850  11851M 12268  12272M 12300  12301M 12646  12657  12661M 12806  12808M 12838U 12859U 12862U 13668U
             13677  13681M 13798  13799M 13925  13929M 13952  13953M 14079  14083M 14106  14107M 14236  14240M 14263
             14264M 14440  14444M 14489  14490M 14597  14601M 14695  14696M 14985  14989M 15025  15026M 15083  15087M
             15130  15131M 15240  15244M 15287  15288M 15352  15356M 15422  15424M 15454U 15544U 15553  15557M 15600
             15601M 15665  15669M 15712  15713M 15777  15781M 15835  15836M 16250  16254M 16320  16322M 16352U 16957U
             16966  16970M 17020  17022M 17052U 17593U 17602  17606M 17655  17657M 17687U 18178U 18187  18191M 18244
             18246M 18276U 18767U 18776  18780M 18829  18831M 18861U 19422U 19431  19435M 19489  19490M 19686  19690M
             19826  19827M 19871  19882  19886M 19920  19921M 19977  20000  20004M 20044  20045M 20100  20104M 20142
             20143M 20241  20245M 20310  20312M 20342U 20528U 20537  20541M 20613  20615M 20645U 20965U 20974  20978M
             21053  21055M 21085U 21939  21946U 21955  21959M 22029  22031M 22061U 22484U 22493  22497M 22541  22542M
             22734  22738M 22820  22821M 22872  22876M 22908  22909M 23000  23004M 23036  23037M 23136  23140M 23171
             23172M 23236  23240M 23279  23281M 23312U 23460  23469N 23476U 23485  23489M 23524  23525M 23673  23765N
             23776  23780M 23824  23825M 23974  24066N 24077  24081M 24126  24127M 24182N 24193  24197M 24230  24231M
             24278  24282M 24318  24319M 24393  24397M 24424  24425M 24478  24482M 24532  24534M 24564U 24807U 24816
             24820M 24864  24865M 24902  24906M 24926  24927M 24964  24968M 25012  25013M 25270  25281  25285M 25320
             25321M 25529  25533M 25574  25575M 25636  25640M 25675  25676M 26016  26020M 26089  26091M 26121U 26339U
             26348  26352M 26396  26397M 26663  26667M 26709  26710M 26888  26892M 26926  26927M 26985  26989M 27023
             27024M 27082  27086M 27119  27120M 27240  27244M
     9(9)      946U  2099   9018  19977  23460  23673  23974
    10(A)      942U  2099   9018  19977  23460  23673  23974
    11(B)      938U  1163U  2099   9018  19977  23460  23673  23974
    12(C)      934U  1172U  2099   9018  19977  23460  23673  23974
    13(D)      930U  2099   6987   6990   6991   6992M  6992   7036M  7040   7042   7114   7117   7119   7120M  7120
              7200   7201   7202   7204M  7204   7217M  7218   7219   7220   8368M  8372   8374   8511   8514   8515
              8516M  8516   8557M  8561   8563   8578   8581   8582   8583M  8583   8624M  8628   8630   8645   8648
              8649   8650M  8650   8691M  8695   8697   8712   8715   8716   8717M  8717   8782M  8786   8788   8861
              8864   8866   8867M  8867   9018   9480M  9484   9486   9594   9597   9599   9600M  9600   9893   9894
              9895   9897M  9897   9909M  9910   9911   9912   9999M 10003  10005  10046  10049  10051  10052M 10052
             10350  10351  10352  10354M 10354  10366M 10367  10368  10369  10456M 10460  10462  10508  10511  10513
             10514M 10514  10698  10699M 10699  10719M 10720  10841M 10845  10847  10905  10908  10910  10911M 10911
             11010  11011  11012  11014M 11014  11027M 11028  11029  11030  11196M 11200  11202  11314  11317  11318
             11319M 11319  11384M 11388  11390  11407  11410  11411  11412M 11412  11555M 11559  11561  11578  11581
             11582  11583M 11583  11687M 11691  11693  11710  11713  11714  11715M 11715  11819M 11823  11825  11847
             11850  11851  11852M 11852  12268M 12272  12274  12297  12300  12301  12302M 12302  12657M 12661  12663
             12803  12806  12808  12809M 12809  13106  13107  13108  13110M 13110  13123M 13124  13125  13126  13677M
             13681  13683  13795  13798  13799  13800M 13800  13925M 13929  13931  13949  13952  13953  13954M 13954
             14079M 14083  14085  14103  14106  14107  14108M 14108  14236M 14240  14242  14260  14263  14264  14265M
             14265  14440M 14444  14446  14486  14489  14490  14491M 14491  14597M 14601  14603  14692  14695  14696
             14697M 14697  14985M 14989  14991  15022  15025  15026  15027M 15027  15083M 15087  15089  15127  15130
             15131  15132M 15132  15240M 15244  15246  15284  15287  15288  15289M 15289  15352M 15356  15358  15419
             15422  15424  15425M 15425  15553M 15557  15559  15597  15600  15601  15602M 15602  15665M 15669  15671
             15709  15712  15713  15714M 15714  15777M 15781  15783  15832  15835  15836  15837M 15837  16250M 16254
             16256  16317  16320  16322  16323M 16323  16966M 16970  16972  17017  17020  17022  17023M 17023  17602M
             17606  17608  17652  17655  17657  17658M 17658  18187M 18191  18193  18241  18244  18246  18247M 18247
             18776M 18780  18782  18826  18829  18831  18832M 18832  19431M 19435  19437  19486  19489  19490  19491M
             19491  19686M 19690  19692  19823  19826  19827  19828M 19828  19882M 19886  19888  19917  19920  19921
             19922M 19922  19977  20000M 20004  20006  20041  20044  20045  20046M 20046  20100M 20104  20106  20139
             20142  20143  20144M 20144  20241M 20245  20247  20307  20310  20312  20313M 20313  20537M 20541  20543
             20610  20613  20615  20616M 20616  20974M 20978  20980  21050  21053  21055  21056M 21056  21955M 21959
             21961  22026  22029  22031  22032M 22032  22493M 22497  22499  22538  22541  22542  22543M 22543  22734M
             22738  22740  22817  22820  22821  22822M 22822  22872M 22876  22878  22905  22908  22909  22910M 22910
1         (VARS9014) (12:59) (15MAR04) General Purpose Register Cross Reference                                             Page  174
             23000M 23004  23006  23033  23036  23037  23038M 23038  23136M 23140  23142  23168  23171  23172  23173M
             23173  23236M 23240  23242  23276  23279  23281  23282M 23282  23460  23485M 23489  23491  23521  23524
             23525  23526M 23526  23673  23776M 23780  23782  23821  23824  23825  23826M 23826  23974  24077M 24081
             24083  24123  24126  24127  24128M 24128  24193M 24197  24199  24227  24230  24231  24232M 24232  24278M
             24282  24284  24315  24318  24319  24320M 24320  24393M 24397  24399  24421  24424  24425  24426M 24426
             24478M 24482  24484  24529  24532  24534  24535M 24535  24587  24588M 24588  24788M 24789  24816M 24820
             24822  24861  24864  24865  24866M 24866  24902M 24906  24908  24923  24926  24927  24928M 24928  24964M
             24968  24970  25009  25012  25013  25014M 25014  25281M 25285  25287  25317  25320  25321  25322M 25322
             25378  25379  25380  25382M 25382  25394M 25395  25396  25397  25529M 25533  25535  25571  25574  25575
             25576M 25576  25636M 25640  25642  25672  25675  25676  25677M 25677  26016M 26020  26022  26086  26089
             26091  26092M 26092  26348M 26352  26354  26393  26396  26397  26398M 26398  26663M 26667  26669  26706
             26709  26710  26711M 26711  26888M 26892  26894  26923  26926  26927  26928M 26928  26985M 26989  26991
             27020  27023  27024  27025M 27025  27082M 27086  27088  27116  27119  27120  27121M 27121  27240M 27244
             27246
    14(E)      926U  2099   2100M  2114   2115M  2116B  2118M  2119B  2139M  2140B  2144M  2145B  2147M  2148B  2150M
              2151B  2153M  2154B  2156M  2157M  2157B  2163   6987   7018M  7019M  7019B  7042M  7045B  7114   7199M
              7200   7201   7202   7207M  7208   7211M  7212M  7212B  7215M  7218   7219   7220   7225M  7226M  7226B
              7265M  7266N  7267N  7271M  7271   7299M  7300M  7300B  7327M  7328M  7328B  7365M  7366M  7366B  7540M
              7541M  7541B  7588M  7589M  7589B  7654M  7655M  7655B  7669M  7670M  7670B  7709M  7710M  7710B  7724M
              7725M  7725B  7783M  7784M  7784B  7893M  7894M  7894B  7920M  7921M  7921B  8022M  8023M  8023B  8049M
              8050M  8050B  8151M  8152M  8152B  8178M  8179M  8179B  8284M  8285M  8285B  8311M  8312M  8312B  8374M
              8377B  8511   8563M  8566B  8578   8630M  8633B  8645   8697M  8700B  8712   8763M  8764M  8764B  8788M
              8791B  8861   8987M  8988M  8988B  8993M  8994M  8994B  9018   9019M  9149M  9150M  9150B  9213M  9214M
              9214B  9306M  9307M  9307B  9429M  9430M  9430B  9486M  9489B  9594   9652M  9653N  9654N  9658M  9658
              9664M  9665M  9665B  9838M  9839M  9839B  9876M  9877N  9878N  9882M  9882   9892M  9893   9894   9895
              9903M  9904M  9904B  9907M  9910   9911   9912   9917M  9918M  9918B  9955M  9956M  9956B  9975M  9976M
              9976B 10005M 10008B 10046  10104M 10105N 10106N 10110M 10110  10115M 10116M 10116B 10144M 10145M 10145B
             10161M 10162M 10162B 10295M 10296M 10296B 10333M 10334N 10335N 10339M 10339  10349M 10350  10351  10352
             10360M 10361M 10361B 10364M 10367  10368  10369  10374M 10375M 10375B 10412M 10413M 10413B 10432M 10433M
             10433B 10462M 10465B 10508  10559M 10560N 10561N 10565M 10565  10577M 10578M 10578B 10599M 10600M 10600B
             10639M 10640M 10640B 10716M 10717M 10717B 10723M 10724M 10724B 10847M 10850B 10905  10980M 11009M 11010
             11011  11012  11017M 11018  11021M 11022M 11022B 11025M 11028  11029  11030  11035M 11036M 11036B 11043M
             11044M 11044B 11054M 11055M 11055B 11133M 11134M 11134B 11158M 11159M 11159B 11171M 11172M 11172B 11202M
             11205B 11314  11364M 11365M 11365B 11368M 11369M 11369B 11390M 11393B 11407  11457M 11458M 11458B 11461M
             11462M 11462B 11561M 11564B 11578  11628M 11629M 11629B 11632M 11633M 11633B 11693M 11696B 11710  11760M
             11761M 11761B 11764M 11765M 11765B 11825M 11828B 11847  11899M 11900M 11900B 11955M 11956M 11956B 12189M
             12190M 12190B 12274M 12277B 12297  12397M 12398M 12398B 12663M 12666B 12803  12878M 12879N 12880N 12884M
             12884  12888M 12889M 12889B 12951M 12952M 12952B 12980M 12981N 12982N 12986M 12986  12994M 12995M 12995B
             13009M 13010M 13010B 13039M 13040M 13040B 13054M 13055M 13055B 13079M 13080M 13080B 13105M 13106  13107
             13108  13113M 13114  13117M 13118M 13118B 13121M 13124  13125  13126  13131M 13132M 13132B 13256M 13257M
             13257B 13280M 13281M 13281B 13305M 13306M 13306B 13401M 13402M 13402B 13425M 13426M 13426B 13450M 13451M
             13451B 13576M 13577M 13577B 13600M 13601M 13601B 13625M 13626M 13626B 13683M 13686B 13795  13931M 13934B
             13949  14085M 14088B 14103  14242M 14245B 14260  14413M 14414M 14414B 14446M 14449B 14486  14555M 14556M
             14556B 14603M 14606B 14692  14779M 14780M 14780B 14813M 14814M 14814B 14847M 14848M 14848B 14881M 14882M
             14882B 14915M 14916M 14916B 14949M 14950M 14950B 14991M 14994B 15022  15060M 15061M 15061B 15070M 15071M
             15071B 15089M 15092B 15127  15190M 15191M 15191B 15194M 15195M 15195B 15204M 15205M 15205B 15246M 15249B
             15284  15329M 15330M 15330B 15339M 15340M 15340B 15358M 15361B 15419  15474M 15475M 15475B 15502M 15505M
             15506M 15506B 15559M 15562B 15597  15642M 15643M 15643B 15652M 15653M 15653B 15671M 15674B 15709  15754M
             15755M 15755B 15764M 15765M 15765B 15783M 15786B 15832  15910M 15911M 15911B 15963M 15964M 15964B 16016M
             16017M 16017B 16052M 16053M 16053B 16070M 16071M 16071B 16122M 16123M 16123B 16175M 16176M 16176B 16214M
             16215M 16215B 16256M 16259B 16317  16368M 16369M 16369B 16378M 16379M 16379B 16416M 16417M 16417B 16434M
             16435M 16435B 16465M 16466M 16466B 16480M 16481M 16481B 16498M 16499M 16499B 16545M 16546M 16546B 16563M
             16564M 16564B 16597M 16598M 16598B 16629M 16630M 16630B 16661M 16662M 16662B 16715M 16716M 16716B 16882M
             16883M 16883B 16914M 16915M 16915B 16972M 16975B 17017  17090M 17091M 17091B 17108M 17109M 17109B 17121M
             17122M 17122B 17125M 17126M 17126B 17135M 17136M 17136B 17173M 17174M 17174B 17191M 17192M 17192B 17222M
             17223M 17223B 17237M 17238M 17238B 17255M 17256M 17256B 17303M 17304M 17304B 17321M 17322M 17322B 17355M
             17356M 17356B 17387M 17388M 17388B 17419M 17420M 17420B 17518M 17519M 17519B 17550M 17551M 17551B 17608M
             17611B 17652  17710M 17711M 17711B 17720M 17721M 17721B 17758M 17759M 17759B 17776M 17777M 17777B 17807M
             17808M 17808B 17822M 17823M 17823B 17840M 17841M 17841B 17888M 17889M 17889B 17906M 17907M 17907B 17940M
1         (VARS9014) (12:59) (15MAR04) General Purpose Register Cross Reference                                             Page  175
             17941M 17941B 17972M 17973M 17973B 18004M 18005M 18005B 18103M 18104M 18104B 18135M 18136M 18136B 18193M
             18196B 18241  18299M 18300M 18300B 18309M 18310M 18310B 18347M 18348M 18348B 18365M 18366M 18366B 18396M
             18397M 18397B 18411M 18412M 18412B 18429M 18430M 18430B 18477M 18478M 18478B 18495M 18496M 18496B 18529M
             18530M 18530B 18561M 18562M 18562B 18593M 18594M 18594B 18692M 18693M 18693B 18724M 18725M 18725B 18782M
             18785B 18826  18940M 18941M 18941B 18954M 18955M 18955B 18964M 18965M 18965B 19002M 19003M 19003B 19020M
             19021M 19021B 19051M 19052M 19052B 19066M 19067M 19067B 19084M 19085M 19085B 19132M 19133M 19133B 19150M
             19151M 19151B 19184M 19185M 19185B 19216M 19217M 19217B 19248M 19249M 19249B 19347M 19348M 19348B 19379M
             19380M 19380B 19437M 19440B 19486  19692M 19695B 19823  19859M 19860M 19860B 19867M 19868M 19868B 19888M
             19891B 19917  19953M 19954M 19954B 19961M 19962M 19962B 19977  19978M 20006M 20009B 20041  20077M 20078M
             20078B 20087M 20088M 20088B 20106M 20109B 20139  20175M 20176M 20176B 20185M 20186M 20186B 20247M 20250B
             20307  20447M 20448M 20448B 20460M 20461M 20461B 20489M 20490M 20490B 20500M 20501M 20501B 20543M 20546B
             20610  20693M 20694M 20694B 20702M 20703M 20703B 20726M 20727M 20727B 20758M 20759M 20759B 20790M 20791M
             20791B 20858M 20859M 20859B 20890M 20891M 20891B 20922M 20923M 20923B 20980M 20983B 21050  21193M 21194M
             21194B 21211M 21212M 21212B 21294M 21295M 21295B 21312M 21313M 21313B 21460M 21461M 21461B 21502M 21503M
             21503B 21529M 21530M 21530B 21568M 21569M 21569B 21603M 21604M 21604B 21645M 21646M 21646B 21649M 21650M
             21650B 21675M 21676M 21676B 21715M 21716M 21716B 21719M 21720M 21720B 21759M 21760M 21760B 21777M 21778M
             21778B 21782M 21783M 21783B 21841M 21842M 21842B 21887M 21888M 21888B 21905M 21906M 21906B 21961M 21964B
             22026  22222M 22223M 22223B 22266M 22267M 22267B 22293M 22294M 22294B 22336M 22337M 22337B 22380M 22381M
             22381B 22408M 22409M 22409B 22436M 22437M 22437B 22464M 22465M 22465B 22499M 22502B 22538  22607M 22608M
             22608B 22656M 22657M 22657B 22674M 22675M 22675B 22698M 22699M 22699B 22716M 22717M 22717B 22740M 22743B
             22817  22878M 22881B 22905  23006M 23009B 23033  23142M 23145B 23168  23217M 23218M 23218B 23242M 23245B
             23276  23460  23461M 23491M 23494B 23521  23673  23674M 23782M 23785B 23821  23910M 23911M 23911B 23974
             23975M 24083M 24086B 24123  24199M 24202B 24227  24261M 24262M 24262B 24284M 24287B 24315  24376M 24377M
             24377B 24399M 24402B 24421  24457M 24458M 24458B 24484M 24487B 24529  24584M 24585M 24585B 24595M 24596M
             24596B 24650M 24651M 24651B 24716M 24717M 24717B 24777M 24778M 24778B 24794M 24795M 24795B 24822M 24825B
             24861  24908M 24911B 24923  24970M 24973B 25009  25042M 25043M 25043B 25087M 25088M 25088B 25122M 25123M
             25123B 25140M 25141M 25141B 25258M 25259M 25259B 25287M 25290B 25317  25361M 25362N 25363N 25367M 25367
             25377M 25378  25379  25380  25388M 25389M 25389B 25392M 25395  25396  25397  25535M 25538B 25571  25602M
             25603M 25603B 25620M 25621M 25621B 25624M 25625M 25625B 25642M 25645B 25672  25762M 25763M 25763B 25808M
             25809M 25809B 25854M 25855M 25855B 25900M 25901M 25901B 25946M 25947M 25947B 26003M 26004M 26004B 26022M
             26025B 26086  26172M 26173M 26173B 26218M 26219M 26219B 26244M 26245M 26245B 26262M 26263M 26263B 26282M
             26283M 26283B 26308M 26309M 26309B 26330M 26331M 26331B 26354M 26357B 26393  26438M 26439M 26439B 26458M
             26459M 26459B 26481M 26482M 26482B 26517M 26518M 26518B 26540M 26541M 26541B 26580M 26581M 26581B 26603M
             26604M 26604B 26625M 26626M 26626B 26645M 26646M 26646B 26650M 26651M 26651B 26669M 26672B 26706  26791M
             26792M 26792B 26813M 26814M 26814B 26835M 26836M 26836B 26853M 26854M 26854B 26857M 26858M 26858B 26875M
             26876M 26876B 26894M 26897B 26923  26968M 26969M 26969B 26972M 26973M 26973B 26991M 26994B 27020  27065M
             27066M 27066B 27069M 27070M 27070B 27088M 27091B 27116  27201M 27202M 27202B 27209M 27210M 27210B 27227M
             27228M 27228B 27246M 27249B
    15(F)      922U  2099   7025M  7025   7044M  7044   7221M  7221   7230M  7230   7362M  8352M  8352   8376M  8376
              8546M  8565M  8565   8613M  8632M  8632   8680M  8699M  8699   8760M  8790M  8790   9018   9464M  9464
              9488M  9488   9913M  9913   9952M  9983M  9983  10007M 10007  10141M 10370M 10370  10409M 10440M 10440
             10464M 10464  10590M 10590  10657M 10657  10713M 10825M 10825  10849M 10849  10979M 10980M 11031M 11031
             11039M 11048M 11155M 11165M 11204M 11204  11345M 11373M 11373  11392M 11392  11438M 11544M 11544  11563M
             11563  11609M 11676M 11676  11695M 11695  11741M 11808M 11808  11827M 11827  11880M 12276M 12276  12665M
             12665  12948M 13076M 13127M 13127  13302M 13447M 13622M 13685M 13685  13914M 13914  13933M 13933  14068M
             14068  14087M 14087  14225M 14225  14244M 14244  14410M 14429M 14429  14448M 14448  14560M 14560  14605M
             14605  14993M 14993  15056M 15064M 15091M 15091  15187M 15198M 15224M 15248M 15248  15325M 15333M 15360M
             15360  15486M 15486  15517M 15517  15561M 15561  15638M 15646M 15673M 15673  15750M 15758M 15785M 15785
             16067M 16072M 16258M 16258  16364M 16372M 16408M 16408  16431M 16436M 16456M 16456  16495M 16500M 16520M
             16520  16560M 16565M 16692M 16692  16835M 16892M 16892  16911M 16916M 16930M 16930  16947M 16947  16974M
             16974  17105M 17110M 17118M 17129M 17165M 17165  17188M 17193M 17213M 17213  17252M 17257M 17277M 17277
             17318M 17323M 17450M 17450  17471M 17528M 17528  17547M 17552M 17566M 17566  17583M 17583  17610M 17610
             17706M 17714M 17750M 17750  17773M 17778M 17798M 17798  17837M 17842M 17862M 17862  17903M 17908M 18035M
             18035  18056M 18113M 18113  18132M 18137M 18151M 18151  18168M 18168  18195M 18195  18295M 18303M 18339M
             18339  18362M 18367M 18387M 18387  18426M 18431M 18451M 18451  18492M 18497M 18624M 18624  18645M 18702M
             18702  18721M 18726M 18740M 18740  18757M 18757  18784M 18784  18937M 18942M 18950M 18958M 18994M 18994
             19017M 19022M 19042M 19042  19081M 19086M 19106M 19106  19147M 19152M 19279M 19279  19300M 19357M 19357
             19376M 19381M 19395M 19395  19412M 19412  19439M 19439  19524M 19672M 19672  19694M 19694  19855M 19861M
             19890M 19890  19949M 19955M 19977  19989M 19989  20008M 20008  20073M 20081M 20108M 20108  20171M 20179M
1         (VARS9014) (12:59) (15MAR04) General Purpose Register Cross Reference                                             Page  176
             20230M 20230  20249M 20249  20485M 20493M 20545M 20545  20821M 20821  20854M 20862M 20900M 20900  20919M
             20924M 20938M 20938  20955M 20955  20982M 20982  21208M 21213M 21309M 21314M 21418M 21477M 21477  21559M
             21559  21594M 21594  21642M 21712M 21774M 21902M 21907M 21934M 21934  21963M 21963  22474M 22474  22501M
             22501  22638M 22638  22671M 22676M 22713M 22718M 22742M 22742  22880M 22880  23008M 23008  23144M 23144
             23244M 23244  23460  23493M 23493  23673  23763M 23763  23784M 23784  23974  24064M 24064  24085M 24085
             24201M 24201  24258M 24267M 24267  24286M 24286  24371M 24382M 24382  24401M 24401  24452M 24467M 24467
             24486M 24486  24580M 24587  24591M 24644M 24710M 24771M 24789M 24790  24791M 24800M 24800  24824M 24824
             24910M 24910  24972M 24972  25065  25084M 25089M 25114  25137M 25142M 25185M 25185  25289M 25289  25398M
             25398  25506M 25506  25537M 25537  25617M 25644M 25644  25759M 25805M 25851M 25897M 25943M 26000M 26024M
             26024  26169M 26215M 26241M 26259M 26305M 26327M 26356M 26356  26455M 26478M 26514M 26537M 26577M 26600M
             26622M 26642M 26671M 26671  26788M 26810M 26832M 26850M 26872M 26877M 26896M 26896  26965M 26974M 26993M
             26993  27062M 27071M 27090M 27090  27198M 27224M 27229M 27248M 27248

1VARS     (VARS9014) (12:59) (15MAR04) Diagnostic Cross Reference and Assembler Summary                                     Page  177
-                                                                                            HLASM R4.0  2004/03/15 12.59
0     No Statements Flagged in this Assembly
 HIGH LEVEL ASSEMBLER, 5696-234, RELEASE 4.0, PTF P72483
0SYSTEM: OS/390 02.10.00            JOBNAME: WYL#VARS    STEPNAME: ASM        PROCSTEP: (NOPROC)
0Datasets Allocated for this Assembly
  Con DDname   Dataset Name                                 Volume  Member
   P1 SYSIN    WYL.GS.WYL.WYLBUR.SOURCE                     SYSB05  VARS
   L1 SYSLIB   WYL.GS.WYL.WYLBUR.MACLIB                     SYSB05
   L2          WYL.GG.SYS.MACLIB                            SYSB05
   L3          SYS3.IS.MACLIB                               SYSB05
   L4          SYS3.MACLIB                                  SYSB02
   L5          SYS1.MACLIB                                  MVSBR9
   L6          SYS1.MODGEN                                  MVSBR9
      SYSPRINT SYS04075.T125925.RA000.WYL#VARS.PRINT.H01    SCR100
      SYSTERM  GG$SLP.WYL#VARS.JOB03583.D0000101.?

    3668K allocated to Buffer Pool,         3325K would be required for this to be an In-Storage Assembly
    4000 Primary Input Records Read         7117 Library Records Read                  0 Work File Reads
       0 ASMAOPT Records Read              14664 Primary Print Records Written         0 Work File Writes
       0 Punch Records Written                 0 ADATA Records Written
0Assembly Start Time: 12.59.27 Stop Time: 12.59.45 Processor Time: 00.00.04.9643
 Return Code 000
