1                        J E S 2  J O B  L O G  --  S Y S T E M  S Y S B  --  N O D E  R L G
0
 12.44.06 JOB03522 ---- MONDAY,    15 MAR 2004 ----
 12.44.06 JOB03522  ICH70001I GG$SLP   LAST ACCESS AT 12:43:51 ON MONDAY, MARCH 15, 2004
 12.44.06 JOB03522  $HASP373 WYL#EXEC STARTED - INIT 6    - CLASS B - SYS SYSB
 12.44.06 JOB03522  ***  HCMD      STEP $$QUIET
 12.44.06 JOB03522  PUR * Q OUT MUL
 12.44.06 JOB03522  JOB 5387 WYL#EXEC WILL BE PURGED
 12.44.07 JOB03522  WYL#EXEC.$$QUIET .         RC=Zero TapeIO=0000 DiskIO=0000 CPU=  .01s Elapsed=46.55s
 12.44.26 JOB03522  WYL#EXEC.ASM     .         RC=Zero TapeIO=0000 DiskIO=0867 CPU= 7.15s Elapsed=47.59s
 12.44.29 JOB03522  WYL#EXEC.EDIT    .         RC=Zero TapeIO=0000 DiskIO=0424 CPU= 1.28s Elapsed=66.61s
 12.44.29 JOB03522  WYL#EXEC Ended.  Name=Assemble EXEC                  Total CPU= 8.44s Elapsed=46.55s
 12.44.29 JOB03522
 12.44.29 JOB03522  Execution charges   Priority=Standard   Block=Day
 12.44.29 JOB03522
 12.44.29 JOB03522  CPU Usage         156.37          $96.94   Standard Processing Unit Equivalent
 12.44.29 JOB03522                                   =======
 12.44.29 JOB03522                                    $96.94   Total Job execution charge
 12.44.29 JOB03522
 12.44.29 JOB03522  See back separator page for print charges
 12.44.29 JOB03522
 12.44.29 JOB03522  $HASP395 WYL#EXEC ENDED  ASM=0, EDIT=0
1        1 //WYL#EXEC JOB SLP$GG,'Assemble EXEC',TIME=4,REGION=4M                  JOB03522
           //*
           /*JOBPARM LINES=99,COPIES=1
           /*JOBPARM FORMS=3HOL,PFORMAT=LAND,CHARS=BD13,DUPLEX=YES,FLASH=BAR4
           //*
           /*JOBPARM NOTIFY=GG.SLP,HOLD=OUTPUT                                     WYLGEN
         2 //$$QUIET EXEC PGM=HCMDX,PARM='PUR * Q OUT MUL'
           //*
         3 //ASM    EXEC PGM=ASMA90,REGION=8M,
           //            PARM=('NORENT,TERM,FLAG(NOCONT),US(MAP,WARN(10)),NODECK',
           //            'LC(32767),XREF(SHORT),ESD,DXREF,NOOBJECT')
         4 //STEPLIB DD DSN=SYS3.IS.TESTASM,DISP=SHR
         5 //SYSLIB   DD  DSN=WYL.GS.WYL.WYLBUR.MACLIB,DISP=SHR
         6 //         DD  DSN=WYL.GG.SYS.MACLIB,DISP=SHR
         7 //         DD  DSN=SYS3.IS.MACLIB,DISP=SHR
         8 //         DD  DSN=SYS3.MACLIB,DISP=SHR
         9 //         DD  DSN=SYS1.MACLIB,DISP=SHR
        10 //         DD  DSN=SYS1.MODGEN,DISP=SHR
        11 //SYSUT1   DD DSN=&&SYSUT1,UNIT=VIO,DISP=(,DELETE),
           //            SPACE=(4088,(500,250),,CONTIG,ROUND)
        12 //SYSTERM  DD SYSOUT=T
        13 //SYSPRINT DD DSN=&&PRINT,UNIT=SYSDA,DISP=(,PASS),
           //            SPACE=(6650,(250,250),RLSE),
           //            DCB=(BLKSIZE=6650,LRECL=133,RECFM=FB)
        14 //SYSUDUMP DD SYSOUT=A
        15 //SYSIN    DD  DSN=WYL.GS.WYL.WYLBUR.SOURCE(EXEC),DISP=SHR
           //*
        16 //EDIT    EXEC PGM=ASMEDIT,TIME=2,REGION=4000K,
           //             PARM='STMT'
        17 //STEPLIB  DD  DSN=WYL.GG.SYS.LINKLIB,DISP=SHR
        18 //ASMOUT   DD  DSN=&PRINT,DISP=(OLD,DELETE)
        19 //SYSPRINT DD  SYSOUT=A
1 STMT NO. MESSAGE
 -
        11 IGD01010I STORCLAS= TEMP STORGROUP =
        11 IGD01010I STORGRP=VIO ASSIGNED.
        13 IGD01010I STORCLAS= TEMP STORGROUP =
        13 IGD01010I STORGRP=VIO ASSIGNED.
 ICH70001I GG$SLP   LAST ACCESS AT 12:43:51 ON MONDAY, MARCH 15, 2004
 IEF142I WYL#EXEC $$QUIET - STEP WAS EXECUTED - COND CODE 0000
 *********************************************************************************
 *   WYL#EXEC/$$QUIET /                    Return Code      Zero                 *
 *   Region used      260K (16K user + 244K system)                              *
 *   Extended region  9692K (4K user + 9688K system)                             *
 *                                                                               *
 *   Paging              In      Out                                             *
 *   Private <-> Aux      0        0       CPU time (TCB)   00:00:00.01          *
 *   Private <-> Exp      0        0       CPU time (SRB)   00:00:00.00          *
 *   VIO                  0        0       Elapsed time    917:43:46.41          *
 *   Common               0      ---                                             *
 *                                                                               *
 *                                                                               *
 *   CPU Usage          0.18         $0.11  Standard Processing Unit Equivalent  *
 *                                   $0.11  Total Step execution charge          *
 *                                                                               *
 *    I/O count  DDname   Type Addr           I/O count  DDname   Type Addr      *
 *                         *** No I/O for this step ***                          *
 *********************************************************************************
 IEF373I STEP/$$QUIET /START 2004075.1244
 IEF374I STEP/$$QUIET /STOP  2004075.1244 CPU    0MIN 00.01SEC SRB    0MIN 00.00SEC VIRT    16K SYS   244K EXT       4K SYS    9688K
 IEF236I ALLOC. FOR WYL#EXEC ASM
 IEF237I 04DC ALLOCATED TO STEPLIB
 IEF237I 04DC ALLOCATED TO SYSLIB
 IEF237I 04DC ALLOCATED TO
 IEF237I 04DC ALLOCATED TO
 IEF237I 0402 ALLOCATED TO
 IEF237I 04A0 ALLOCATED TO
 IEF237I 04A0 ALLOCATED TO
 IGD101I SMS ALLOCATED TO DDNAME (SYSUT1  )
         DSN (SYS04075.T124406.RA000.WYL#EXEC.SYSUT1.H01  )
         STORCLAS (TEMP) MGMTCLAS (        ) DATACLAS (        )
         VOL SER NOS= VIO
 IEF237I JES2 ALLOCATED TO SYSTERM
 IGD101I SMS ALLOCATED TO DDNAME (SYSPRINT)
         DSN (SYS04075.T124406.RA000.WYL#EXEC.PRINT.H01   )
         STORCLAS (TEMP) MGMTCLAS (        ) DATACLAS (        )
         VOL SER NOS= SCR101
 IEF237I JES2 ALLOCATED TO SYSUDUMP
 IEF237I 04DC ALLOCATED TO SYSIN
 IEF142I WYL#EXEC ASM - STEP WAS EXECUTED - COND CODE 0000
 IEF285I   SYS3.IS.TESTASM                              KEPT
 IEF285I   VOL SER NOS= SYSB05.
 IEF285I   WYL.GS.WYL.WYLBUR.MACLIB                     KEPT
 IEF285I   VOL SER NOS= SYSB05.
 IEF285I   WYL.GG.SYS.MACLIB                            KEPT
 IEF285I   VOL SER NOS= SYSB05.
 IEF285I   SYS3.IS.MACLIB                               KEPT
 IEF285I   VOL SER NOS= SYSB05.
 IEF285I   SYS3.MACLIB                                  KEPT
 IEF285I   VOL SER NOS= SYSB02.
 IEF285I   SYS1.MACLIB                                  KEPT
 IEF285I   VOL SER NOS= MVSBR9.
 IEF285I   SYS1.MODGEN                                  KEPT
 IEF285I   VOL SER NOS= MVSBR9.
 IGD105I SYS04075.T124406.RA000.WYL#EXEC.SYSUT1.H01   DELETED,   DDNAME=SYSUT1
 IEF285I   GG$SLP.WYL#EXEC.JOB03522.D0000101.?          SYSOUT
 IGD106I SYS04075.T124406.RA000.WYL#EXEC.PRINT.H01    PASSED,    DDNAME=SYSPRINT
 IEF285I   GG$SLP.WYL#EXEC.JOB03522.D0000102.?          SYSOUT
 IEF285I   WYL.GS.WYL.WYLBUR.SOURCE                     KEPT
 IEF285I   VOL SER NOS= SYSB05.
 *********************************************************************************
 *   WYL#EXEC/ASM     /                    Return Code      Zero                 *
 *   Region used      4376K (4096K user + 280K system)                           *
 *   Extended region  10300K (412K user + 9888K system)                          *
 *                                                                               *
 *   Paging              In      Out                                             *
 *   Private <-> Aux      0        0       CPU time (TCB)   00:00:07.09          *
 *   Private <-> Exp      0        0       CPU time (SRB)   00:00:00.06          *
 *   VIO                  0        0       Elapsed time    917:43:45.37          *
 *   Common               0      ---                                             *
 *                                                                               *
 *                                                                               *
 *   CPU Usage        132.93        $82.41  Standard Processing Unit Equivalent  *
 *                                  $82.41  Total Step execution charge          *
 *                                                                               *
 *    I/O count  DDname   Type Addr           I/O count  DDname   Type Addr      *
 *           83  STEPLIB  Disk 04DC                 348  SYSLIB   Disk 04DC      *
 *            0  SYSLIB   Disk 04DC                   0  SYSLIB   Disk 04DC      *
 *            0  SYSLIB   Disk 0402                   0  SYSLIB   Disk 04A0      *
 *            0  SYSLIB   Disk 04A0                 264  SYSUT1   VIO  ----      *
 *            0  SYSTERM       ----                 421  SYSPRINT Disk 04E3      *
 *            0  SYSUDUMP      ----                  15  SYSIN    Disk 04DC      *
 *********************************************************************************
 IEF373I STEP/ASM     /START 2004075.1244
 IEF374I STEP/ASM     /STOP  2004075.1244 CPU    0MIN 07.09SEC SRB    0MIN 00.06SEC VIRT  4096K SYS   280K EXT     412K SYS    9888K
 IEF236I ALLOC. FOR WYL#EXEC EDIT
 IEF237I 0402 ALLOCATED TO STEPLIB
 IGD103I SMS ALLOCATED TO DDNAME ASMOUT
 IEF237I JES2 ALLOCATED TO SYSPRINT
 IEF142I WYL#EXEC EDIT - STEP WAS EXECUTED - COND CODE 0000
 IEF285I   WYL.GG.SYS.LINKLIB                           KEPT
 IEF285I   VOL SER NOS= SYSB02.
 IGD105I SYS04075.T124406.RA000.WYL#EXEC.PRINT.H01    DELETED,   DDNAME=ASMOUT
 IEF285I   GG$SLP.WYL#EXEC.JOB03522.D0000103.?          SYSOUT
 *********************************************************************************
 *   WYL#EXEC/EDIT    /                    Return Code      Zero                 *
 *   Region used      384K (120K user + 264K system)                             *
 *   Extended region  9816K (4K user + 9812K system)                             *
 *                                                                               *
 *   Paging              In      Out                                             *
 *   Private <-> Aux      0        0       CPU time (TCB)   00:00:01.24          *
 *   Private <-> Exp      0        0       CPU time (SRB)   00:00:00.04          *
 *   VIO                  0        0       Elapsed time    917:43:26.35          *
 *   Common               0      ---                                             *
 *                                                                               *
 *                                                                               *
 *   CPU Usage         23.25        $14.41  Standard Processing Unit Equivalent  *
 *                                  $14.41  Total Step execution charge          *
 *                                                                               *
 *    I/O count  DDname   Type Addr           I/O count  DDname   Type Addr      *
 *            2  STEPLIB  Disk 0402                 422  ASMOUT   Disk 04E3      *
 *            0  SYSPRINT      ----                                              *
 *********************************************************************************
 IEF373I STEP/EDIT    /START 2004075.1244
 IEF374I STEP/EDIT    /STOP  2004075.1244 CPU    0MIN 01.24SEC SRB    0MIN 00.04SEC VIRT   120K SYS   264K EXT       4K SYS    9812K
 *********************************************************************************
 *                                                                               *
 *                      S t a n f o r d   U n i v e r s i t y                    *
 *                                                                               *
 *                              *** Job Summary ***                              *
 *                                                                               *
 *   System Id      SYSB                   Input time     12:39:17  Mar 15, 2004 *
 *                                                                               *
 *   System Release SP6.1.0                Start time     12:44:06  Mar 15, 2004 *
 *                                                                               *
 *   Job name       WYL#EXEC               Stop  time     00:00:00  Mar 15, 2004 *
 *                                                                               *
 *   Account        SLP$GG                 Elapsed time  917:43:46.41            *
 *                                                                               *
 *   User Name      Assemble EXEC          CPU time       00:00:08.34            *
 *                                                                               *
 *   Job class      B                      SRB Time       00:00:00.10            *
 *                                                                               *
 *********************************************************************************
 IEF375I  JOB/WYL#EXEC/START 2004075.1244
 IEF376I  JOB/WYL#EXEC/STOP  2004075.1244 CPU    0MIN 08.34SEC SRB    0MIN 00.10SEC
1Assembler Done EXEC No Statements Flagged
1         High Level Assembler Option Summary                   (PTF P72483 )                                               Page    1
-                                                                                            HLASM R4.0  2004/03/15 12.44
0  No Overriding ASMAOPT Parameters
   Overriding Parameters-  NORENT,TERM,FLAG(NOCONT),US(MAP,WARN(10)),NODECK,LC(32767),XREF(SHORT),ESD,DXREF,NOOBJECT
   No Process Statements


   Options for this Assembly
0  NOADATA
     ALIGN
   NOASA
     BATCH
     CODEPAGE(047C)
   NOCOMPAT
   NODBCS
 3 NODECK
 3   DXREF
 3   ESD
   NOEXIT
 3   FLAG(0,ALIGN,NOCONT,NOIMPLEN,NOPAGE0,PUSH,RECORD,NOSUBSTR,USING0)
   NOFOLD
   NOGOFF
   NOINFO
     LANGUAGE(EN)
   NOLIBMAC
 3   LINECOUNT(32767)
     LIST(121)
     MXREF(SOURCE)
 3 NOOBJECT
     OPTABLE(UNI,NOLIST)
   NOPCONTROL
   NOPESTOP
   NOPROFILE
   NORA2
 3 NORENT
     RLD
     RXREF
     SIZE(MAX)
     SYSPARM()
 3   TERM(WIDE)
   NOTEST
     THREAD
   NOTRANSLATE
 3   USING(NOLIMIT,MAP,WARN(10))
 3   XREF(SHORT)

   No Overriding DD Names

1EXEC     External Symbol Dictionary                                                                                        Page    2
-Symbol   Type   Id     Address  Length     LD ID  Flags Alias-of                            HLASM R4.0  2004/03/15 12.44
0WYLEXEC   SD 00000001 00000000 00006938             00
 EXEC2193  LD          00000000           00000001
 INITEXEC  LD          00000022           00000001
 EXECUTE   LD          00000064           00000001
 SCNEXFR   ER 00000002
 NSCAN     ER 00000003
 SCANCHK   ER 00000004
 MKFFINFO  ER 00000005
 SETPARM   ER 00000006
 ACTCHK    ER 00000007
 CHKXOLD   ER 00000008
 YESREQ    ER 00000009
 CLRVSTK   ER 0000000A
 INITXDMP  ER 0000000B
 NDETRNG   ER 0000000C
 SAVEDATA  ER 0000000D
 CLRTEXT   ER 0000000E
 DELSUB    ER 0000000F
 FNAMEFIN  ER 00000010
 NRESOLVE  ER 00000011
 EXTOPEN   ER 00000012
 SETXNAME  ER 00000013
 EXTCLOSE  ER 00000014
 MTOKEN    ER 00000015
 SCNNOOP   ER 00000016
 MSYMLN    ER 00000017
 MPSYMLN   ER 00000018
 MPARM     ER 00000019
 CLRPSH    ER 0000001A
 QUIETPSH  ER 0000001B
 MALL      ER 0000001C
 SCNINVAL  ER 0000001D
 FNAMPSHF  ER 0000001E
 STEXEPSH  LD          000012B2           00000001
 MPINT     ER 0000001F
 DEQUOTE   ER 00000020
 NOTVALID  ER 00000021
 DOFNAME   ER 00000022
 SEGB      ER 00000023
 RLOOKUP   ER 00000024
 RDRNG     ER 00000025
 XSETSET   ER 00000026
 XPUT      ER 00000027
 SEGCLR    ER 00000028
 RETLIBMB  ER 00000029
 EDTCOM    ER 0000002A
 XPAUSE    LD          00001B3A           00000001
 XRESET    LD          00001C6A           00000001
 XGO       LD          00001E02           00000001
 XCOMYUCK  LD          00001E4C           00000001
 SHOWEXEC  LD          00001EE4           00000001
 COLLPSH   ER 0000002B
 EXECDISP  LD          00001F98           00000001
 CLREX     LD          00002044           00000001
 RESTORE   LD          000020A2           00000001
1EXEC     External Symbol Dictionary                                                                                        Page    3
 SEG       ER 0000002C
 GETCORE   ER 0000002D
 LRTRIM    ER 0000002E
 FREECORE  ER 0000002F
 BTD       ER 00000030
 SEGWR     ER 00000031
 XDELSET   ER 00000032
 PUTLINE   ER 00000033
 CLREX     ER 00000034
 SETPAUSE  LD          0000237A           00000001
 EXPAUSE   LD          000023A6           00000001
 EXRESET   LD          000023DA           00000001
 EXREINIT  LD          00002428           00000001
 EXECHK    LD          000024C8           00000001
 CHKEXEC   LD          0000250E           00000001
 CHKXOLD   LD          00002544           00000001
 CLRALIST  ER 00000035
 XDELGRP   ER 00000036
 INITVARS  ER 00000037
 INITEXEC  ER 00000038
 INITFLOW  ER 00000039
 INITXCAL  ER 0000003A
 MCLEAR    ER 0000003B
 XCHKSET   ER 0000003C
 READ      LD          000025D2           00000001
 TREAD     ER 0000003D
 LINEMOD   ER 0000003E
 GETLINE   ER 0000003F
 CVEXNO    ER 00000040
 DELRANGE  ER 00000041
 MPCOLS    ER 00000042
 CASEPSH   ER 00000043
 ATTNLINE  ER 00000044
 SCNVNAME  ER 00000045
 SEGT      ER 00000046
 GETVAR    ER 00000047
 SEGVNAME  ER 00000048
 GETSUBS   ER 00000049
 SAVEVAR   ER 0000004A
 EVALEXPR  ER 0000004B
 IGNOREND  ER 0000004C
 WRITE     LD          000036F6           00000001
 COMMENT   LD          00003BA6           00000001
 WAIT      LD          00003BFE           00000001
 MLNO      ER 0000004D
 MAKESTR   ER 0000004E
 SEGMARK   ER 0000004F
 SEGCR     ER 00000050
 WAITER    ER 00000051
 ON        LD          00003F22           00000001
 MNULL     ER 00000052
 ONATTN    LD          000045EC           00000001
 GBLCMD    ER 00000053
 INITERR   LD          000049C8           00000001
 INITATTN  LD          000049FE           00000001
 CLRERROR  LD          00004A3E           00000001
 CLRATTN   LD          00004A6C           00000001
 SETEMSG   LD          00004AA0           00000001
 SETERROR  LD          00004BE4           00000001
1EXEC     External Symbol Dictionary                                                                                        Page    4
 SETATTN   LD          00004D2E           00000001
 EXECABRT  LD          00004E50           00000001
 SEGINIT   ER 00000054
 GETDATA   ER 00000055
 SEGXLNO   ER 00000056
 YESRTN    ER 00000057
 PUSHON    LD          00005188           00000001
 POPON     LD          0000529E           00000001
 PUSHERR   LD          00005382           00000001
 POPERR    LD          000054D8           00000001
 SAVEVSTK  ER 00000058
 GETVSTK   ER 00000059
 HOLDATN   LD          0000568E           00000001
 ALLOWATN  LD          000056D2           00000001
 TRASHATN  LD          00005712           00000001
 PREPROC   LD          0000576A           00000001
 CHECKEND  ER 0000005A
 XCMDSCAN  LD          00005C6C           00000001
 GETEXCMD  LD          00005E6E           00000001
 EXGET     LD          0000610E           00000001
 EXSPGET   LD          0000616A           00000001
 EXFRST    LD          000061C2           00000001
 EXLAST    LD          0000622E           00000001
 EXNEXT    LD          0000629A           00000001
 EXPREV    LD          00006306           00000001
 EXFRSTLN  LD          00006362           00000001
 EXLASTLN  LD          000063C4           00000001
 EXNEXTLN  LD          00006426           00000001
 EXPREVLN  LD          00006486           00000001
 LABEL     ER 0000005B
 SETVAL    ER 0000005C
 INITCMD   ER 0000005D
 DBLINE    ER 0000005E
 SETXLINE  ER 0000005F
 SEGDC     ER 00000060
 SLICECHK  ER 00000061
 XGET      ER 00000062
 XGETFRST  ER 00000063
 XGETLAST  ER 00000064
 XGETNEXT  ER 00000065
 XGETPREV  ER 00000066
 XLOCFRST  ER 00000067
 XLOCLAST  ER 00000068
 XLOCNEXT  ER 00000069
 XLOCPREV  ER 0000006A
 XUNPRESS  LD          00006648           00000001
 SETPARM   LD          000066D2           00000001

1EXEC     EXEC File Routines                                                                                                Page    5
0Loc    Object Code    Addr1 Addr2  Stmt Lv Lineno    Source Statement                    (Asmedit 3.3)  HLASM R4.0  2004/03/15 12.44
+___    ______ ____    _____ _____  ____ __ ______    ______ _________
0                                      2              *******************************************************************
                                       3              *                                                                 *
                                       4              *     WYLBUR/370 - Release VI - Class I - Stanford Proprietary    *
                                       5              *                                                                 *
                                       6              *******************************************************************
                                       7                       HIBAL
                                     988
1EXEC     EXEC File Routines                                                                                                Page    6
0D-Loc  Object Code    Addr1 Addr2  Stmt Lv Lineno    Source Statement           (Hibal 5, Asmedit 3.3)  HLASM R4.0  2004/03/15 12.44
+_____  ______ ____    _____ _____  ____ __ ______    ______ _________
0000000                00000 06938   990              WYLEXEC  CSECT
                                     994                       REGS  FSR,,,,,,,BR,(WAR,LSR),PAR,PBR,CPR,CVR,SPR,RAR
                                    1130
                                    1131              EXEC     IDENT 2193                15:11:44 07/12/02  (SLP)
                                    1134             +
                                    1135    01-IDENT +         ENTRY EXEC2193
                                    1136             +
 000000 16C5E7C5C3F2F1F9            1137    01-IDENT +EXEC2193 DC    AL1(22),C'EXEC2193,15MAR04,12:44'
                                    1138             +*
                                    1140              *
                                    1141                       SYSDEFN ,                 Define installation values
                                    1142
                                    1143                       PUSH  DSECTS
 USING  CP,R11                      1155             =         USING (CP),(CV)
 USING  CV,R12
 000017                00000 06938  1174             =         POP   PRINT
 000017                00000 06938  6817              WYLEXEC  CSECT
 000017 C796408696994089            6819                       DC    C'Go for it!!'
                                    6820
1EXEC     (EXEC2193) (12:44) (15MAR04) DSECTS                                                                               Page    7
0Current Usings:  (CP,R11) (CV,R12)
0Loc    Object Code    Addr1 Addr2  Stmt Lv Lineno    Source Statement           (Hibal 5, Asmedit 3.3)  HLASM R4.0  2004/03/15 12.44
+___    ______ ____    _____ _____  ____ __ ______    ______ _________
0                                   6822                       COPY  XDSNAME
                                    6823=            =   ¿þþþþþþþþþþþþþþþþþþþþþþþþþþþþþþþþþþþþþþþþþþþþþþþþþþþþþþþþþþÜ
                                    6824=            =   Ÿ                                                          Ÿ
                                    6825=            =   Ÿ  XDSNAME - EXEC NAME DSECT                               Ÿ
                                    6826=            =   Ÿ                                                          Ÿ
                                    6827=            =   Ÿ  EXEC NAME DSECT.  THIS DSECT PROVIDES A UNIFORM NAME    Ÿ
                                    6828=            =   Ÿ  FORMAT FOR EXEC FILES.  TO PROPERLY SET THE EXEC NAME   Ÿ
                                    6829=            =   Ÿ  YOU MUST USE THE 'SETXNAME' ROUTINE FOUND IN THE XCALL  Ÿ
                                    6830=            =   Ÿ  MODULE.  THE 'SETXNAME' ROUTINE INSURES PROPER THE      Ÿ
                                    6831=            =   Ÿ  PROPER SETTING OF ALL FIELDS AND ALLOWS EXEC NAME       Ÿ
                                    6832=            =   Ÿ  COMPARISONS TO WORK AS EXPECTED.                        Ÿ
                                    6833=            =   Ÿ                                                          Ÿ
                                    6834=            =   Ÿ  CURRENT NAME FORMAT IS FULLY QUALIFIED W/PDS IN '()'.   Ÿ
                                    6835=            =   Ÿ  EG. WYL.GG.UUU.LIB(LOGON)                               Ÿ
                                    6836=            =   Ÿ  EG. SYS1.PROCLIB(TESTWYL)                               Ÿ
                                    6837=            =   Ÿ  EG. WYL.GS.WYL.NETWORK.MODULE.ASMR23                    Ÿ
                                    6838=            =   Ÿ  NAMES LONGER THAN 56 ARE INVALID.                       Ÿ
                                    6839=            =   Ÿ                                                          Ÿ
                                    6840=            =   ¾þþþþþþþþþþþþþþþþþþþþþþþþþþþþþþþþþþþþþþþþþþþþþþþþþþþþþþþþþþ»
 000000                00000 00040  6841             =XDSNAME  RECORD BEGIN
 000000                             6849  1          =XNAME      DS    CL56                DATA SET NAME
                                    6850  1          =XPREFIX    EQU   XNAME,11            DATA SET PREFIX (WYL.GG.UUU.)
 000038                             6851  1          =XHASH      DS    F                   HOST HASH VALUE (NOT USED)
 00003C                             6852  1          =XMRK       DS    CL4                 NAME MARK FOR PUBLOAD, RELOAD
 000040                00040 00040  6853             =         END
 000022                             6862             =         DS    0S(CPRG64NL-L'XDSNAME)
 000022                             6863             =         DS    0S(L'XDSNAME-CPRG64NL)
1EXEC     (EXEC2193) (12:44) (15MAR04) DSECTS                                                                               Page    8
0Current Usings:  (CP,R11) (CV,R12)
0Loc    Object Code    Addr1 Addr2  Stmt Lv Lineno    Source Statement           (Hibal 5, Asmedit 3.3)  HLASM R4.0  2004/03/15 12.44
+___    ______ ____    _____ _____  ____ __ ______    ______ _________
0                                   6865                       COPY  VNENTRY
                                    6866=            =¿þþþþþþþþþþþþþþþþþþþþþþþþþþþþþþþþþþþþþþþþþþþþþþþþþþþþþþþþþþþþþþþþþþþþþÜ
                                    6867=            =Ÿ                                                                     Ÿ
                                    6868=            =Ÿ                                                                     Ÿ
                                    6869=            =Ÿ  VARIABLE ENTRY (COMMON)                                            Ÿ
                                    6870=            =Ÿ                                                                     Ÿ
                                    6871=            =Ÿ                                                                     Ÿ
                                    6872=            =Ÿ                                                                     Ÿ
                                                      ¾þþþþþþþþþþþþþþþþþþþþþþþþþþþþþþþþþþþþþþþþþþþþþþþþþþþþþþþþþþþþþþþþþþþþþ»
0000000                00000 00050  6873             =VNENTRY  RECORD BEGIN ,            VARIABLE ENTRY
                                    6881= 1          =     ¿þþþþþþþþþþþþþþþþþþþþþþþþþþþþþþþþþþþþþþþþþþþþþþþþþþþþþþþþþþþþþþÜ
                                    6882= 1          =     Ÿ  VARIABLE NAME, DESCRIPTION      (ONLY NAME SAVED WITH VAR)  Ÿ
                                    6883= 1          =     ¾þþþþþþþþþþþþþþþþþþþþþþþþþþþþþþþþþþþþþþþþþþþþþþþþþþþþþþþþþþþþþþ»
 000000                             6884  1          =VNDESC     DS    XL32                VARIABLE DESCRIPTOR,
 000020                00020 00000  6885  1          =           ORG   VNDESC
 000000                             6886  1          =VNNAME     DS    CL16                VARIABLE NAME
 000010 00                          6887  1          =VNPREFIX   FLAG  ,                   NAME PREFIX FLAGS
 VNPREFIX.VNPFX    01 EQ            6891  1          =           FLAG  (VNPFX,1,EQ)        X.
 VNPREFIX.VNPFGBL  02 EQ            6901  1          =           FLAG  (VNPFGBL,2,EQ)      GBL.
 VNPREFIX.VNPFSYS  03 EQ            6911  1          =           FLAG  (VNPFSYS,3,EQ)      SYS.
 VNPREFIX.VNPFSES  04 EQ            6921  1          =           FLAG  (VNPFSES,4,EQ)      SES.
 VNPREFIX.VNPFPUB  05 EQ            6931  1          =           FLAG  (VNPFPUB,5,EQ)      PUB.
 000011 00                          6941  1          =VNAFLAGS   FLAG  ,                   ARRAY FLAGS
 VNAFLAGS.VNADESC  80 ONES          6945  1          =           FLAG  VNADESC             GENERIC ARRAY DESCRIPTOR
 000012                             6950  1          =VNASUB1    DS    H                   ARRAY SUBSCRIPTS
 000014                             6951  1          =VNASUB2    DS    H
 000016                             6952  1          =VNASUB3    DS    H
 000018                             6953  1          =           DS    0S(VNDESC+L'VNDESC-*)
 000018                00018 00020  6954  1          =           ORG
                                    6955= 1          =     ¿þþþþþþþþþþþþþþþþþþþþþþþþÜ
                                    6956= 1          =     Ÿ  VARIABLE TYPE, VALUE  Ÿ
                                    6957= 1          =     ¾þþþþþþþþþþþþþþþþþþþþþþþþ»
 000020                             6958  1          =VNDATA     DS    XL16                VARIABLE TYPE/VALUE
 000030                00030 00020  6959  1          =           ORG   VNDATA
 000020                             6960  1          =VNSDATA    DS    XL6                 VARIABLE TYPE/VALUE (STRING)
 000026                00026 00020  6961  1          =           ORG   VNDATA
 000020                             6962  1          =VNADATA    DS    XL48                VARIABLE TYPE/VALUE (ARRAY)
 000050                00050 00020  6963  1          =           ORG   VNDATA
                                    6964  1          =
 000020 00                          6965  1          =VNTYPE     FLAG  ,                   VARIABLE TYPE
 VNTYPE.VNSTRING   01 EQ            6969  1          =           FLAG  (VNSTRING,1,EQ)     STRING
 VNTYPE.VNNUMB     02 EQ            6979  1          =           FLAG  (VNNUMB,2,EQ)       NUMBER
 VNTYPE.VNBOOL     03 EQ            6989  1          =           FLAG  (VNBOOL,3,EQ)       BOOLEAN
 VNTYPE.VNARRAY    04 EQ            6999  1          =           FLAG  (VNARRAY,4,EQ)      ARRAY
 VNTYPE.VNFN       05 EQ            7009  1          =           FLAG  (VNFN,5,EQ)         FUNCTION
 VNTYPE.VNPROC     06 EQ            7019  1          =           FLAG  (VNPROC,6,EQ)       PROCEDURE
 VNTYPE.VNLABEL    07 EQ            7029  1          =           FLAG  (VNLABEL,7,EQ)      LABEL
 000021 00                          7039  1          =VNDEBUG    FLAG  ,                   DEBUG FLAGS
 VNDEBUG.VNDBGET   80 ONES          7043  1          =           FLAG  VNDBGET             DEBUG VARIABLE FETCH
 VNDEBUG.VNDBSAVE  40 ONES          7048  1          =           FLAG  VNDBSAVE            DEBUG VARIABLE STORE
 VNDEBUG.VNDBTRAC  20 ONES          7053  1          =           FLAG  VNDBTRAC            DEBUG TRACE THIS PROC/LABEL
 VNDEBUG.VNDBSTOP  10 ONES          7058  1          =           FLAG  VNDBSTOP            DEBUG STOP AT PROC/LABEL
 000022 00                          7063  1          =VNFLAGS1   FLAG  ,
1EXEC     (EXEC2193) (12:44) (15MAR04) DSECTS                                                                               Page    9
0Current Usings:  (CP,R11) (CV,R12)
0Loc    Object Code    Addr1 Addr2  Stmt Lv Lineno    Source Statement           (Hibal 5, Asmedit 3.3)  HLASM R4.0  2004/03/15 12.44
+___    ______ ____    _____ _____  ____ __ ______    ______ _________
0VNFLAGS1.VNINT    80 ONES          7067  1          =           FLAG  VNINT               ** INTEGER, OLD EXEC MODE !
 000023 00                          7072  1          =VNFLAGS2   FLAG  ,                   UNUSED
                                    7076= 1          =     ¿þþþþþþþþþþþþþþþÜ
                                    7077= 1          =     Ÿ  COMMON AREA  Ÿ
                                    7078= 1          =     ¾þþþþþþþþþþþþþþþ»
 000024                             7079  1          =           DS    0F
                                    7080  1          =VNAREA     EQU   *                   MULTI-USE AREA (COMMON)
                                    7081  1          =
 000024                00024 00024  7082  1          =           ORG   VNAREA
 000024                             7083  1          =           DS    0H                  (NUMBER), (BOOLEAN)
 000024                             7084  1          =VNVALUE    DS    XL12                ALL NUMBERS STORED AS PCKD DECIMAL
                                    7085  1          =
 000030                00030 00024  7086  1          =           ORG   VNAREA
 000024                             7087  1          =           DS    0H                  (STRING)
 000024                             7088  1          =VNSTRLEN   DS    H                   STRING LENGTH
                                    7089  1          =VNSTRLOC   EQU   *,1,C'C'            START OF STRING (IF ANY)
 000026                             7090  1          =           DS    0S(VNSDATA+L'VNSDATA-*)
                                    7091  1          =
 000026                00026 00024  7092  1          =           ORG   VNAREA
 000024                             7093  1          =           DS    0H                  (ARRAY)
 000024                             7094  1          =VNARG      DS    F                   ARRAY RECORD GROUP INFO POINTER
 000028                             7095  1          =VNASET     DS    F                   ARRAY SET NUMBER
 00002C                             7096  1          =VNAIDENT   DS    F                   ARRAY ID NUMBER
 000030 00                          7097  1          =VNATYPE    FLAG  ,                   ARRAY TYPE
 VNATYPE.VNASTR    01 EQ            7101  1          =           FLAG  (VNASTR,1,EQ)       STRINGS
 VNATYPE.VNANUMB   02 EQ            7111  1          =           FLAG  (VNANUMB,2,EQ)      NUMBERS
 VNATYPE.VNABOOL   03 EQ            7121  1          =           FLAG  (VNABOOL,3,EQ)      BOOLEANS
 000031 00                          7131  1          =VNAFLAG    FLAG  ,                   NOT USED
 000032                             7135  1          =VNADIM1    DS    H                   DIMENSION 1
 000034                             7136  1          =VNADIM2    DS    H                   DIMENSION 2
 000036                             7137  1          =VNADIM3    DS    H                   DIMENSION 3
 000038                             7138  1          =VNANAME    DS    CL(L'VNNAME)        ORIGINAL ARRAY NAME
 000048                             7139  1          =           DS    0S(VNADATA+L'VNADATA-*)
                                    7140  1          =
 000048                00048 00024  7141  1          =           ORG   VNAREA
 000024                             7142  1          =           DS    0H                  (PROCEDURE)
 000024                             7143  1          =VNPSTART   DS    F                   STARTING LINE NUMBER
 000028                             7144  1          =VNPEND     DS    F                   ENDING LINE NUMBER
 00002C                             7145  1          =           DS    0S(VNDATA+L'VNDATA-*)
                                    7146  1          =
 00002C                0002C 00024  7147  1          =           ORG   VNAREA
 000024                             7148  1          =           DS    0H                  (LABEL)
 000024                             7149  1          =VNLLINE    DS    F                   LABEL LINE NUMBER
 000028                             7150  1          =           DS    0S(VNDATA+L'VNDATA-*)
                                    7151  1          =
 000028                00028 00024  7152  1          =           ORG   VNAREA
 000024                             7153  1          =           DS    0H                  (FUNCTION)
 000024                             7154  1          =VNFSTART   DS    F                   STARTING LINE NUMBER
 000028                             7155  1          =VNFEND     DS    F                   ENDING LINE NUMBER
 00002C                             7156  1          =           DS    0S(VNDATA+L'VNDATA-*)
                                    7157  1          =
 00002C                0002C 00024  7158  1          =           ORG   VNAREA
 000024                             7159  1          =           DS    0H                  (SYSTEM VAR/FN/PROC)
 000024                             7160  1          =VNSYSRTN   DS    A                   ADDRESS OF SYSTEM ROUTINE
1EXEC     (EXEC2193) (12:44) (15MAR04) DSECTS                                                                               Page   10
0Current Usings:  (CP,R11) (CV,R12)
0Loc    Object Code    Addr1 Addr2  Stmt Lv Lineno    Source Statement           (Hibal 5, Asmedit 3.3)  HLASM R4.0  2004/03/15 12.44
+___    ______ ____    _____ _____  ____ __ ______    ______ _________
0000028                             7161  1          =           DS    0S(VNDATA+L'VNDATA-*)
 000028                00028 00050  7162  1          =           ORG
                                    7163  1          =*
                                    7164  1          =*
                                    7165  1          =NL         EQU   L'VNVALUE,,C'N'     NUMBER LENGTH
                                    7166  1          =MAXSTRLN   EQU   256,,C'N'           MAXIMUM STRING VAR LENGTH
                                    7167  1          =           DS    0S(MAXSTRLN-&LINESZ)
 000050                                   1          +           DS    0S(MAXSTRLN-235)
 000050                00050 00050  7168             =         END
                                    7177                       COPY  VPARM
                                    7178=            =¿þþþþþþþþþþþþþþþþþþþþþþþþþþþþþþþþþþþþþþþþþþþþþþþþþþþþþþþþþþþþþþþþþþþþþÜ
                                    7179=            =Ÿ                                                                     Ÿ
                                    7180=            =Ÿ                                                                     Ÿ
                                    7181=            =Ÿ  VARIABLE PARM AREA                                                 Ÿ
                                    7182=            =Ÿ                                                                     Ÿ
                                    7183=            =Ÿ                                                                     Ÿ
                                    7184=            =Ÿ                                                                     Ÿ
                                                      ¾þþþþþþþþþþþþþþþþþþþþþþþþþþþþþþþþþþþþþþþþþþþþþþþþþþþþþþþþþþþþþþþþþþþþþ»
0000000                00000 00150  7185             =VPARM    RECORD BEGIN ,            PARM AREA FOR VARIABLES
 000000                             7193  1          =           DS    (L'VNENTRY)X        IS A VARIABLE ENTRY
 000050                             7194  1          =           DS    (((MAXSTRLN-1)/16)*16+16)X  AND A STRING AREA
 000150                00150 00150  7195             =         END
1EXEC     (EXEC2193) (12:44) (15MAR04) DSECTS                                                                               Page   11
0Current Usings:  (CP,R11) (CV,R12)
0Loc    Object Code    Addr1 Addr2  Stmt Lv Lineno    Source Statement           (Hibal 5, Asmedit 3.3)  HLASM R4.0  2004/03/15 12.44
+___    ______ ____    _____ _____  ____ __ ______    ______ _________
0                                   7205                       COPY  XSENTRY
                                    7206=            =   ¿þþþþþþþþþþþþþþþþþþþþþþþþþþþþþþþþþþþþÜ
                                    7207=            =   Ÿ  GENERATE EQUIVALENT SYMBOL ENTRY  Ÿ
                                    7208=            =   ¾þþþþþþþþþþþþþþþþþþþþþþþþþþþþþþþþþþþþ»
                                    7209             =         MACRO
                                    7210             =&L       SAMEAS &SYMBOL,&DSECT=,&BASE=
                                    7211             =         LCLC  &TYPE
                                    7212             =&TYPE    SETC  T'&SYMBOL
                                    7213             =&L       EQU   &BASE+(&SYMBOL-&DSECT),L'&SYMBOL,C'&TYPE'
                                    7214             =         MEND
0                                   7216=            =¿þþþþþþþþþþþþþþþþþþþþþþþþþþþþþþþþþþþþþþþþþþþþþþþþþþþþþþþþþþþþþþþþþþþþþÜ
                                    7217=            =Ÿ                                                                     Ÿ
                                    7218=            =Ÿ                                                                     Ÿ
                                    7219=            =Ÿ  EXPRESSION STACK ENTRY                                             Ÿ
                                    7220=            =Ÿ                                                                     Ÿ
                                    7221=            =Ÿ  *** NOTE ***                                                       Ÿ
                                    7222=            =Ÿ  THIS DSECT IS THE SAME AS A VARIABLE ENTRY DSECT, WITH THE         Ÿ
                                    7223=            =Ÿ  EXCEPTION THAT THE VARIABLE NAME (DESCRIPTOR) FIELD IS REPLACE     Ÿ
                                    7224=            =Ÿ  WITH SPECIAL TYPE FLAGS AND OPERATOR STACK ENTRIES.                Ÿ
                                    7225=            =Ÿ                                                                     Ÿ
                                    7226=            =Ÿ  THE POINT OF THE COMPATIBILITY BETWEEN THIS DSECT AND THE          Ÿ
                                    7227=            =Ÿ  VARIABLE ENTRY DSECT, IS SO THAT THE RESULT OF THE EXPRESSION      Ÿ
                                    7228=            =Ÿ  EVALUATION (TYPE AND VALUE) IS COMPATIBLE.                         Ÿ
                                    7229=            =Ÿ                                                                     Ÿ
                                    7230=            =Ÿ                                                                     Ÿ
                                                      ¾þþþþþþþþþþþþþþþþþþþþþþþþþþþþþþþþþþþþþþþþþþþþþþþþþþþþþþþþþþþþþþþþþþþþþ»
0000000                00000 00050  7231             =XSENTRY  RECORD BEGIN ,            EXPRESSION STACK ENTRY
 000000                             7239  1          =XXSSTART   DS    0D
 000000                             7240  1          =           DS    (L'VNENTRY)X
                                    7241  1          =XSLENGTH   EQU   8192                STANDARD EXPRESSION STACK LEN
                                    7242  1          =XSLENTRY   EQU   XXSSTART,L'VPARM    ACTUAL LEN OF ENTRY (INCL. STR)
                                    7243  1          =*
                                    7244  1          =* EXPRESSION STACK ENTRIES,,,
                                    7245  1          =*
                                    7246  1          =*  ** CAUTION **
                                    7247  1          =* EXPRESSION STACK ENTRIES SHOULD ONLY OVERLAY VNDESC FIELD !
 000050                00050 00000  7248  1          =           ORG   XXSSTART+(VNDESC-VNENTRY)
 000000 00                          7249  1          =XSTYPE     FLAG  ,                   STACK ENTRY TYPE
 XSTYPE.XSSTART    01 EQ            7253  1          =           FLAG  (XSSTART,1,EQ)      START OF EXPRESSION
 XSTYPE.XSVAL      02 EQ            7263  1          =           FLAG  (XSVAL,2,EQ)        TERM, EVALUATED
 XSTYPE.XSOPER     03 EQ            7273  1          =           FLAG  (XSOPER,3,EQ)       OPERATOR
 XSTYPE.XSEND      04 EQ            7283  1          =           FLAG  (XSEND,4,EQ)        END OF EXPRESSION
 XSTYPE.XSNULL     05 EQ            7293  1          =           FLAG  (XSNULL,5,EQ)       NULL EXPRESSION
                                    7303  1          =
 000001                             7304  1          =XSUOPLVL   DS    X                   UNARY OPERATOR PRIORITY LEVEL
 000002                             7305  1          =XSBOPLVL   DS    X                   BINARY OPERATOR PRIORITY LEVEL
 000004                             7306  1          =XSUOPRTN   DS    A                   UNARY OPERATOR ROUTINE
 000008                             7307  1          =XSBOPRTN   DS    A                   BINARY OPERATOR ROUTINE
 00000C                             7308  1          =XSOPCHAR   DS    CL4                 OPERATOR
 000010                             7309  1          =           DS    0S(L'VNDESC-(*-(XXSSTART+(VNDESC-VNENTRY))))
1EXEC     (EXEC2193) (12:44) (15MAR04) DSECTS                                                                               Page   12
0Current Usings:  (CP,R11) (CV,R12)
0Loc    Object Code    Addr1 Addr2  Stmt Lv Lineno    Source Statement           (Hibal 5, Asmedit 3.3)  HLASM R4.0  2004/03/15 12.44
+___    ______ ____    _____ _____  ____ __ ______    ______ _________
0                                   7310= 1          =     ¿þþþþþþþþþþþþþþþþþþþþþþþþþþþþþþþþÜ
                                    7311= 1          =     Ÿ  STANDARD VARIABLE ENTRIES !!  Ÿ
                                    7312= 1          =     ¾þþþþþþþþþþþþþþþþþþþþþþþþþþþþþþþþ»
                                    7313  1          =XSNAME     SAMEAS VNNAME,DSECT=VNENTRY,BASE=XSENTRY     NAME AREA
                                    7314  1 01-07213 +XSNAME     EQU   XSENTRY+(VNNAME-VNENTRY),L'VNNAME,C'C'
                                    7315  1          =
                                    7316  1          =XSNUMB     SAMEAS VNNUMB,DSECT=VNENTRY,BASE=XSENTRY     TYPE: NUMBER
                                    7317  1 01-07213 +XSNUMB     EQU   XSENTRY+(VNNUMB-VNENTRY),L'VNNUMB,C''
                                    7318  1          =XSBOOL     SAMEAS VNBOOL,DSECT=VNENTRY,BASE=XSENTRY           BOOLEAN
                                    7319  1 01-07213 +XSBOOL     EQU   XSENTRY+(VNBOOL-VNENTRY),L'VNBOOL,C''
                                    7320  1          =XSSTRING   SAMEAS VNSTRING,DSECT=VNENTRY,BASE=XSENTRY         STRING
                                    7321  1 01-07213 +XSSTRING   EQU   XSENTRY+(VNSTRING-VNENTRY),L'VNSTRING,C''
                                    7322  1          =XSARRAY    SAMEAS VNARRAY,DSECT=VNENTRY,BASE,XSENTRY          ARRAY
                                    7323  1 01-07213 +XSARRAY    EQU   +(VNARRAY-VNENTRY),L'VNARRAY,C''
                                    7324  1          =
                                    7325  1          =XSVALUE    SAMEAS VNVALUE,DSECT=VNENTRY,BASE=XSENTRY     VALUE
                                    7326  1 01-07213 +XSVALUE    EQU   XSENTRY+(VNVALUE-VNENTRY),L'VNVALUE,C'X'
                                    7327  1          =XSSTRLOC   SAMEAS VNSTRLOC,DSECT=VNENTRY,BASE=XSENTRY    STRING LOC
                                    7328  1 01-07213 +XSSTRLOC   EQU   XSENTRY+(VNSTRLOC-VNENTRY),L'VNSTRLOC,C'C'
                                    7329  1          =XSSTRLEN   SAMEAS VNSTRLEN,DSECT=VNENTRY,BASE=XSENTRY    STRING LEN
                                    7330  1 01-07213 +XSSTRLEN   EQU   XSENTRY+(VNSTRLEN-VNENTRY),L'VNSTRLEN,C'H'
                                    7331  1          =
 000010                             7332  1          =           DS    0S(L'VPARM-L'XSLENTRY)
 000010                             7333  1          =           DS    0S(L'XSLENTRY-L'VPARM)
 000010                00010 00050  7334             =         END
1EXEC     (EXEC2193) (12:44) (15MAR04) DSECTS                                                                               Page   13
0Current Usings:  (CP,R11) (CV,R12)
0Loc    Object Code    Addr1 Addr2  Stmt Lv Lineno    Source Statement           (Hibal 5, Asmedit 3.3)  HLASM R4.0  2004/03/15 12.44
+___    ______ ____    _____ _____  ____ __ ______    ______ _________
0                                   7344              ¿þþþþþþþþþþþþþþþþþþþþþþþþþþþþþþþþþþþþþþþþþþþþþþþþþþþþþþþþþþþþþþþþþþþþþÜ
                                    7345              Ÿ                                                                     Ÿ
                                    7346              Ÿ                                                                     Ÿ
                                    7347              Ÿ  ONENTRY - ON CONDITION INFORMATION DSECT                           Ÿ
                                    7348              Ÿ                                                                     Ÿ
                                    7349              Ÿ  USED FOR PUSHING, POPING ON CONDITION INFO IN VARIABLE STACK       Ÿ
                                    7350              Ÿ                                                                     Ÿ
                                    7351              Ÿ                                                                     Ÿ
                                    7352              Ÿ  CAUTION:                                                           Ÿ
                                    7353              Ÿ       SYS.ONERROR VALID ONLY IF CPFONERR OR CPFDDERR SET            Ÿ
                                    7354              Ÿ       SYS.ONATTN VALID ONLY IF CPFONATN OR CPFDDATN SET             Ÿ
                                    7355              Ÿ       SYS.ERRID VALID ONLY IF CPFXXERR SET                          Ÿ
                                    7356              Ÿ       SYS.ERRMSG VALID ONLY IF CPFXXERR SET                         Ÿ
                                    7357              Ÿ       SYS.ERRINFO VALID ONLY IF CPFXXERR SET                        Ÿ
                                    7358              Ÿ       SYS.ERRSETNO VALID ONLY IF CPFXXERR SET                       Ÿ
                                    7359              Ÿ       SYS.ATTNID VALID ONLY IF CPFXXATN SET                         Ÿ
                                    7360              Ÿ       SYS.ATTNINFO VALID ONLY IF CPFXXATN SET                       Ÿ
                                    7361              Ÿ                                                                     Ÿ
                                    7362              Ÿ                                                                     Ÿ
                                                      ¾þþþþþþþþþþþþþþþþþþþþþþþþþþþþþþþþþþþþþþþþþþþþþþþþþþþþþþþþþþþþþþþþþþþþþ»
0000000                00000 001E3  7363              ONENTRY  RECORD BEGIN
 000000 00                          7371  1           NNFLAGS    FLAG
 NNFLAGS.NNFONERR  80 ONES          7375  1                      FLAG  NNFONERR            ON ERROR SPECIFIED
 NNFLAGS.NNFDDERR  40 ONES          7380  1                      FLAG  NNFDDERR            ON ERROR SPECIFIED, SUSPENDED
 NNFLAGS.NNFONATN  20 ONES          7385  1                      FLAG  NNFONATN            ON ATTN SPECIFIED
 NNFLAGS.NNFDDATN  10 ONES          7390  1                      FLAG  NNFDDATN            ON ATTN SPECIFIED, SUSPENDED
 000004                             7395  1           NNERRLEN   DS    F                   ON ERROR COMMAND LENGTH
                                    7396  1           NNERRCMD   DS    CL(&LINESZ)         ON ERROR COMMAND
 000008                                   1          +NNERRCMD   DS    CL(235)             ON ERROR COMMAND
 0000F4                             7397  1           NNATNLEN   DS    F                   ON ATTN COMMAND LENGTH
                                    7398  1           NNATNCMD   DS    CL(&LINESZ)         ON ATTN COMMAND
 0000F8                                   1          +NNATNCMD   DS    CL(235)             ON ATTN COMMAND
 0001E3                001E3 001E3  7399                       END
1EXEC     (EXEC2193) (12:44) (15MAR04) DSECTS                                                                               Page   14
0Current Usings:  (CP,R11) (CV,R12)
0Loc    Object Code    Addr1 Addr2  Stmt Lv Lineno    Source Statement           (Hibal 5, Asmedit 3.3)  HLASM R4.0  2004/03/15 12.44
+___    ______ ____    _____ _____  ____ __ ______    ______ _________
0                                   7409              ¿þþþþþþþþþþþþþþþþþþþþþþþþþþþþþþþþþþþþþþþþþþþþþþþþþþþþþþþþþþþþþþþþþþþþþÜ
                                    7410              Ÿ                                                                     Ÿ
                                    7411              Ÿ                                                                     Ÿ
                                    7412              Ÿ  ERRENTRY - ERROR INFORMATION DSECT                                 Ÿ
                                    7413              Ÿ                                                                     Ÿ
                                    7414              Ÿ  USED FOR PUSHING, POPING ERROR/ATTENTION INFO ON VARIABLE STACK    Ÿ
                                    7415              Ÿ                                                                     Ÿ
                                    7416              Ÿ                                                                     Ÿ
                                    7417              Ÿ  CAUTION:                                                           Ÿ
                                    7418              Ÿ       SYS.ERRID VALID ONLY IF CPFXXERR SET                          Ÿ
                                    7419              Ÿ       SYS.ERRMSG VALID ONLY IF CPFXXERR SET                         Ÿ
                                    7420              Ÿ       SYS.ERRINFO VALID ONLY IF CPFXXERR SET                        Ÿ
                                    7421              Ÿ       SYS.ERRSETNO VALID ONLY IF CPFXXERR SET                       Ÿ
                                    7422              Ÿ       SYS.ATTNID VALID ONLY IF CPFXXATN SET                         Ÿ
                                    7423              Ÿ       SYS.ATTNINFO VALID ONLY IF CPFXXATN SET                       Ÿ
                                    7424              Ÿ                                                                     Ÿ
                                    7425              Ÿ                                                                     Ÿ
                                                      ¾þþþþþþþþþþþþþþþþþþþþþþþþþþþþþþþþþþþþþþþþþþþþþþþþþþþþþþþþþþþþþþþþþþþþþ»
0000000                00000 002E7  7426              ERRENTRY RECORD BEGIN
 000000 00                          7434  1           RRFLAGS    FLAG
 RRFLAGS.RRFXXERR  80 ONES          7438  1                      FLAG  RRFXXERR            ERROR
 RRFLAGS.RRFXXATN  40 ONES          7443  1                      FLAG  RRFXXATN            ATTENTION
 000004                             7448  1           RRSETNO    DS    F                   ERROR SET NUMBER
 000008                             7449  1           RRERRID    DS    CL8                 ERROR ID
 000010                             7450  1           RREMSGL    DS    F                   ERROR MSG LENGTH
                                    7451  1           RREMSG     DS    CL(&LINESZ)         ERROR MSG
 000014                                   1          +RREMSG     DS    CL(235)             ERROR MSG
 000100                             7452  1           RREINFOL   DS    F                   ERROR INFO LENGTH
                                    7453  1           RREINFO    DS    CL(&LINESZ)         ERROR INFO
 000104                                   1          +RREINFO    DS    CL(235)             ERROR INFO
 0001EF                             7454  1           RRATTNID   DS    CL8                 ATTN ID
 0001F8                             7455  1           RRAINFOL   DS    F                   ATTN INFO LENGTH
                                    7456  1           RRAINFO    DS    CL(&LINESZ)         ATTN INFO
 0001FC                                   1          +RRAINFO    DS    CL(235)             ATTN INFO
 0002E7                002E7 002E7  7457                       END
                                    7466              *
                                    7467              *
                                    7468              ATTNIDLN EQU   8                   ATTN ID MUST BE LENGTH 8!!
 000022                             7469                       DS    0S(8-L'CPERRID)     ERR/ATTN ID MUST BE 8!!
 000022                             7470                       DS    0S(L'CPERRID-8)     ERR/ATTN ID MUST BE 8!!
1EXEC     (EXEC2193) (12:44) (15MAR04) EXEC File Routines                                                                   Page   15
0Current Usings:  (CP,R11) (CV,R12)
0Loc    Object Code    Addr1 Addr2  Stmt Lv Lineno    Source Statement           (Hibal 5, Asmedit 3.3)  HLASM R4.0  2004/03/15 12.44
+___    ______ ____    _____ _____  ____ __ ______    ______ _________
0                                   7472              ¿þþþþþþþþþþþþþþþþþþþþþþþþþþþþþþþþþþþþþþþþþþþþþþþþþþþþþþþþþþþþþþþþþþþþþÜ
                                    7473              Ÿ                                                                     Ÿ
                                    7474              Ÿ                                                                     Ÿ
                                    7475              Ÿ  EXECINIT - INITIALIZE EXEC FILE PROCESSING                         Ÿ
                                    7476              Ÿ                                                                     Ÿ
                                    7477              Ÿ                                                                     Ÿ
                                                      ¾þþþþþþþþþþþþþþþþþþþþþþþþþþþþþþþþþþþþþþþþþþþþþþþþþþþþþþþþþþþþþþþþþþþþþ»
0000022 50E0 D000/9008_      00000  7478              INITEXEC XPROC
 USING  *,R7
                                    7518              *
                                    7519              *
                                    7520                       COMMENT                   SET DEFAULT EXEC POINTERS
 00003C 41F0 B4A4            004A4  7521                       LA    R15,CPEXEC
 000040 50F0 B77C            0077C  7522                       ST    R15,CPRGEXEC
 000044 41F0 B4C4            004C4  7523                       LA    R15,CPFLOW
 000048 50F0 B780            00780  7524                       ST    R15,CPRGFLOW
 00004C 4100 0002            00002  7525                       LA    R0,CP#XOLD
 000050 5000 B778            00778  7526                       ST    R0,CP#XSET
                                    7527
 000054 1BFF                        7528                       CLEAR R15
 000056 18D8/9808 D004_             7532                       PEND
 DROP   *,R7
1EXEC     (EXEC2193) (12:44) (15MAR04) EXECUTE Command                                                                      Page   16
0Current Usings:  (CP,R11) (CV,R12)
0Loc    Object Code    Addr1 Addr2  Stmt Lv Lineno    Source Statement           (Hibal 5, Asmedit 3.3)  HLASM R4.0  2004/03/15 12.44
+___    ______ ____    _____ _____  ____ __ ______    ______ _________
0                                   7553              ¿þþþþþþþþþþþþþþþþþþþþþþþþþþþþþþþþþþþþþþþþþþþþþþþþþþþþþþþþþþþþþþþþþþþþþÜ
                                    7554              Ÿ                                                                     Ÿ
                                    7555              Ÿ                                                                     Ÿ
                                    7556              Ÿ  EXECUTE -- EXEC COMMAND.                                           Ÿ
                                    7557              Ÿ                                                                     Ÿ
                                    7558              Ÿ                                                                     Ÿ
                                    7559              Ÿ  NOTE: IF EXEC FROM <...>, COMMAND WILL CHECK FOR XPROC.            Ÿ
                                    7560              Ÿ    IF XPROC FOUND, CODE WILL GENERATE 'XCALL <..>' COMMAND          Ÿ
                                    7561              Ÿ                                                                     Ÿ
                                    7562              Ÿ                                                                     Ÿ
                                                      ¾þþþþþþþþþþþþþþþþþþþþþþþþþþþþþþþþþþþþþþþþþþþþþþþþþþþþþþþþþþþþþþþþþþþþþ»
0000000                00000 00090  7563              EXWA     RECORD BEGIN
 000000 00                          7571  1           EXFLAG     FLAG  ,
 EXFLAG.EXACT      80 ONES          7575  1                      FLAG  EXACT               EXEC ACTIVE
 EXFLAG.EXFROM     40 ONES          7580  1                      FLAG  EXFROM              EXEC FROM
 EXFLAG.EXLINE     20 ONES          7585  1                      FLAG  EXLINE              EXEC <LINE>
 000001 00                          7590  1           EXFLAG2    FLAG  ,
 EXFLAG2.EXFSAVE   80 ONES          7594  1                      FLAG  EXFSAVE             EXEC SAVE
 EXFLAG2.EXFPARM   40 ONES          7599  1                      FLAG  EXFPARM             EXEC PARM SPECIFIED
 EXFLAG2.EXFNOPAR  20 ONES          7604  1                      FLAG  EXFNOPAR            EXEC NOPARM
 EXFLAG2.EXFLNO    10 ONES          7609  1                      FLAG  EXFLNO              SCANNED LINENO
 EXFLAG2.EXFRANGE  08 ONES          7614  1                      FLAG  EXFRANGE            EXEC RANGE SPECIFIED
 EXFLAG2.EXFDEL    04 ONES          7619  1                      FLAG  EXFDEL              EXEC DELETE
 EXFLAG2.EXFPAUSE  02 ONES          7624  1                      FLAG  EXFPAUSE            EXEC PAUSE
 EXFLAG2.EXNOXCHK  01 ONES          7629  1                      FLAG  EXNOXCHK            DO NOT CHECK FOR EXTENDED EXEC
 000004                             7634  1           EXLINENO   DS    F                   EXEC LINENO, OR START LINENO
 000008                             7635  1           EXPARM     DS    A                   EXEC PARM LOC
 00000C                             7636  1           EXPARMLN   DS    F                   EXEC PARM LEN
 000010                             7637  1           EXXNAME    DS    CL(L'XDSNAME)       EXEC NAME
 000050                             7638  1           EXTXNAME   DS    CL(L'XDSNAME)       TEMP EXEC NAME
 000090                00090 00090  7639                       END
                                    7648              *
                                    7649              *
 000064 50E0 D000/9008_      00000  7650              EXECUTE  XPROC EXWA
 USING  *,R7
 USING  EXWA-(4+36),R8
 00007E 4160 8028            00000  7701                       LA    R6,EXWA
 USING  EXWA,R6                     7702                       USING EXWA,R6
                                    7711
                                    7712                       COMMENT                   ENTRANCE EXAM
 000082 9501 B759/4770_00759        7713                       IF    CPFXTEND,BEGIN
 00008A 4110 7662/4100_      006E0  7728  1                      ERROR 'EXEC command invalid in extended EXEC mode.'
 000096                             7735                       END
                                    7739
 000096 D78F 6000 6000 00000 00000  7740                       CLEAR EXWA                CLEAR EXEC WORK AREA
 00009C 9610 BD50      00D50        7747                       SET   CPLFLG1.CPFALL      DEFAULT RANGE IS ALL
 0000A0 9604 6001      00001        7754                       SET   EXFDEL              DEFAULT IS 'DELETE' ON EXE ACT
 0000A4 9202 BD89      00D89        7760                       SET   CPFRDEXE            SET SELECT FROM EXEC FILE
                                    7766
 0000A8 58E0 75CA/0DEE       00648  7767                       VCALL SCNEXFR             SEE IF ACTIVE OR FROM
 0000AE 9501 BD89/4770_00D89        7771                       IF    CPFRDACT,'SET EXACT '   EXEC ACT
 0000BA 9503 BD89/4770_00D89        7797                       IF    CPFRDEXT,'SET EXFROM'   EXEC FROM
 0000C6 9502 BD89/4770_00D89        7823                       IF    CPFRDEXE,'SET EXLINE'   EXEC LINENO
1EXEC     (EXEC2193) (12:44) (15MAR04) EXECUTE Command                                                                      Page   17
0Current Usings:  (EXWA,R6) (*,R7) (EXWA-(4+36),R8) (CP,R11) (CV,R12)
0Loc    Object Code    Addr1 Addr2  Stmt Lv Lineno    Source Statement           (Hibal 5, Asmedit 3.3)  HLASM R4.0  2004/03/15 12.44
+___    ______ ____    _____ _____  ____ __ ______    ______ _________
0                                   7849
 0000D2                             7850              XXSCAN   LABEL ,                   SCAN EXEC COMMAND
                                    7852                       COMMENT                   WE USE DIFFERENT SCAN TABLES FOR
                                    7853                       COMMENT                   EXEC ACT, EXEC FROM.., EXEC <LNO>
 0000D2 9180 6000/47E0_00000        7854                       IF     EXACT,BEGIN
 0000DA 5810 B08C/1B00_      0008C  7869  1                      SCAN   EXECTBLA
 00012C 58E0 75D6/0DEE       00654  7901  1                      SCANCHK
 000132                             7906                       END
 000132 70B8/47F0 711E_00132 000D8  7910                       ELSEIF EXFROM,BEGIN
 00013E 58E0 75DA/0DEE       00658  7934  1                      VCALL  MKFFINFO
 000144 5810 B08C/1B00_      0008C  7938  1                      SCAN   EXECTBLF
 000196 58E0 75D6/0DEE       00654  7970  1                      SCANCHK
 00019C                             7975                       END
 00019C 7122/47F0 7182_0019C 0013C  7979                       ELSEIF EXLINE,BEGIN
 0001A8 5810 B08C/1B00_      0008C  8003  1                      SCAN   EXECTBLC
 0001FA 58E0 75D6/0DEE       00654  8035  1                      SCANCHK
 000200                             8040                       END
                                    8044              *
                                    8045              *  process common EXEC options,
 000200 9180 6000/4710_00000        8046                       IF    (EXACT,OR,EXFROM),BEGIN
 000210 9120 6001/4710_00001        8075  1                      IF    ~EXFNOPAR,BEGIN           PROCESS PARM FIELD
 000218 5810 6008            00008  8090  2                        L     R1,EXPARM
 00021C 5800 600C            0000C  8091  2                        L     R0,EXPARMLN
 000220 58E0 75E6/0DEE       00664  8092  2                        VCALL SETPARM
 000226                             8096  1                      END
 000226                             8100                       END
 000226 9120 6000/47E0_00000        8104                       IF    (EXLINE,AND,EXFPARM),BEGIN
 000236 5810 6008            00008  8133  1                      L     R1,EXPARM
 00023A 5800 600C            0000C  8134  1                      L     R0,EXPARMLN
 00023E 58E0 75E6/0DEE       00664  8135  1                      VCALL SETPARM
 000244                             8139                       END
 000244 9180 6001/47E0_00001        8143                       IF    EXFSAVE,BEGIN       IF SAVE OPTION SPECIFIED
 00024C 5800 B75C/1200       0075C  8158  1                      LT    R0,CPEXLINE         GET EXEC CURRENT LINE
 000252 47B0 71EA            00268  8162  1                      IF    M,BEGIN             IF NONE, CAN'T SAVE RETURN
 000256 D207 B886 7532_00886 005B0  8173  2                        ERROR 'No EXEC file, can''t set return.',,RETERR
 000268                             8181  1                      END
 000268 58E0 75EA/0DEE       00668  8185  1                      ACALL EXNEXTLN            GET NEXT LINE NUMBER
 00026E 4780 7206            00284  8189  1                      IF    NZ,BEGIN            IF NONE, CAN'T SAVE RETURN
 000272 D207 B886 7532_00886 005B0  8200  2                        ERROR 'No EXEC file, can''t set return.',,RETERR
 000284                             8208  1                      END
 000284 5000 B764            00764  8212  1                      ST    R0,CPRETURN         SAVE LINENO FOR LOCATE
 000288                             8213                       END
                                    8217              *
                                    8218              *  handle special EXEC command types, options
 000288 9120 6000/47E0_00000        8219                       IF    EXLINE,BEGIN        IF EXEC <LINE NUMBER>,
 000290 58E0 75EE/0DEE       0066C  8234  1                      ACALL XXLINE                 DO IT TO IT
 000296                             8238                       END
 000296 9180 6000/47E0_00000        8242                       IF    EXACT,BEGIN         IF EXEC ACTIVE,
 00029E 58E0 75F2/0DEE       00670  8257  1                      ACALL XXACT                  READ IN ACTIVE FILE, ETC
 0002A4                             8261                       END
 0002A4 9140 6000/47E0_00000        8265                       IF    EXFROM,BEGIN        IF EXEC FROM ...,
 0002AC 58E0 75F6/0DEE       00674  8280  1                      ACALL XXFROM                 READ IN EXTERNAL FILE, ETC
 0002B2                             8284                       END
                                    8288              *
1EXEC     (EXEC2193) (12:44) (15MAR04) EXECUTE Command                                                                      Page   18
0Current Usings:  (EXWA,R6) (*,R7) (EXWA-(4+36),R8) (CP,R11) (CV,R12)
0Loc    Object Code    Addr1 Addr2  Stmt Lv Lineno    Source Statement           (Hibal 5, Asmedit 3.3)  HLASM R4.0  2004/03/15 12.44
+___    ______ ____    _____ _____  ____ __ ______    ______ _________
0                                   8289              *  get set, then start executing commands
 0002B2 9680 B758      00758        8290                       SET   CPFEXEC             TURN ON EXEC MODE
 0002B6 9202 B759      00759        8296                       SET   CPFXOLD             AND TURN ON OLD EXEC MODE
 0002BA 9110 6001/47E0_00001        8302                       IF    EXFLNO,BEGIN        IF EXEC LINENO SPECIFIED
 0002C2 D203 B760 6004 00760 00004  8317  1                      MVC   CPEXNEXT,EXLINENO   SET NEW LINENO
 0002C8                             8318                       END
 0002C8 9102 6001/47E0_00001        8322                       IF    EXFPAUSE,BEGIN      IF EXEC PAUSE,,,
 0002D0 58E0 75FA/0DEE       00678  8337  1                      ACALL SETPAUSE            GET SET TO PAUSE
 0002D6 47F0 C7DE            007DE  8341  1                      B     CVNEXT
 0002DA                             8342                       END
 0002DA 47F0 C7DE            007DE  8346                       B     CVNEXT              NOW EXEC NEXT EXEC COMMAND !
 0002DE 18D8/9808 D004_             8347                       PEND
 DROP   EXWA-(4+36),R8
 DROP   *,R7
1EXEC     (EXEC2193) (12:44) (15MAR04) EXECUTE Command                                                                      Page   19
0Current Usings:  (EXWA,R6) (CP,R11) (CV,R12)
0Loc    Object Code    Addr1 Addr2  Stmt Lv Lineno    Source Statement           (Hibal 5, Asmedit 3.3)  HLASM R4.0  2004/03/15 12.44
+___    ______ ____    _____ _____  ____ __ ______    ______ _________
0                                   8373                       ¿þþþþþþþþþþþþþþþþþþþþþþþþþþþþþþþþþþþþþþþþþþþþþþþþþÜ
                                    8374                       Ÿ  process EXEC <LINE NUMBER> .. special options  Ÿ
                                    8375                       ¾þþþþþþþþþþþþþþþþþþþþþþþþþþþþþþþþþþþþþþþþþþþþþþþþþ»
 0002EC 50E0 D000/9008_      00000  8376              XXLINE   PROC
 USING  *,R7
                                    8415
                                    8416                       COMMENT                   CHECK FOR EXEC FILE
 000306 58E0 7376/0DEE       0067C  8417                       ACALL EXECHK
                                    8421
                                    8422                       COMMENT                   ???
 00030C 9108 BD55/47E0_00D55        8423                       IF    CPFKEEP,BEGIN
 000314 4110 7424/4100_      0072A  8438  1                      ABORT 'PUSH is an illegal option here.'   Help me Chaz!!
 000320                             8445                       END
                                    8449
 000320 9110 BD55/47E0_00D55        8450                       IF    CPFCLEAR,BEGIN      AND CLEAR SPECIFIED
                                    8465  1           *        ACALL CHKXOLD
                                    8466  1           *        IF    Z,'ACALL NOEXEC  '  NO, GO ISSUE MESSAGE, NO RETURN
 000328 58E0 737A/0DEE       00680  8467  1                      ACALL CLREX               GO CLEAR EXEC FILE
 00032E 58E0 7372/0DEE       00678  8471  1                      ACALL SETPAUSE            PAUSE EXEC
 000334 47F0 C7DE            007DE  8475  1                      B     CVNEXT
 000338                             8476                       END
 000338 18D8/9808 D004_             8480                       PEND
 DROP   *,R7
1EXEC     (EXEC2193) (12:44) (15MAR04) EXECUTE Command                                                                      Page   20
0Current Usings:  (EXWA,R6) (CP,R11) (CV,R12)
0Loc    Object Code    Addr1 Addr2  Stmt Lv Lineno    Source Statement           (Hibal 5, Asmedit 3.3)  HLASM R4.0  2004/03/15 12.44
+___    ______ ____    _____ _____  ____ __ ______    ______ _________
0                                   8501              ¿þþþþþþþþþþþþþþþþþþþþþþþþþþþþþþþþþþþþþþþþþþþþþþþþþþþþþþþþþþþþþþþþþþþþþÜ
                                    8502              Ÿ                                                                     Ÿ
                                    8503              Ÿ                                                                     Ÿ
                                    8504              Ÿ  XXACT - LOAD OLD EXEC FROM ACTIVE                                  Ÿ
                                    8505              Ÿ                                                                     Ÿ
                                    8506              Ÿ  ON ENTRY:                                                          Ÿ
                                    8507              Ÿ       NO INPUT PARMS,,, (EXEC ACTIVE .... SCANNED)                  Ÿ
                                    8508              Ÿ  ON EXIT:                                                           Ÿ
                                    8509              Ÿ       R15 - CC=ZERO                                                 Ÿ
                                    8510              Ÿ       ALL ERRORS WILL EXIT VIA CVERROR                              Ÿ
                                    8511              Ÿ                                                                     Ÿ
                                    8512              Ÿ                                                                     Ÿ
                                    8513              Ÿ                                                                     Ÿ
                                                      ¾þþþþþþþþþþþþþþþþþþþþþþþþþþþþþþþþþþþþþþþþþþþþþþþþþþþþþþþþþþþþþþþþþþþþþ»
0000346 50E0 D000/9008_      00000  8514              XXACT    PROC
 USING  *,R7
                                    8553
                                    8554                       COMMENT                   CHECK FOR ACTIVE FILE
 000360 58E0 7324/0DEE       00684  8555                       VCALL ACTCHK
                                    8559
                                    8560                       COMMENT                   SET OLD EXEC SET NUMBER
 000366 41F0 B4A4            004A4  8561                       LA    R15,CPEXEC
 00036A 50F0 B788            00788  8562                       ST    R15,CPRGLOAD
 00036E 41F0 B4C4            004C4  8563                       LA    R15,CPFLOW
 000372 50F0 B78C            0078C  8564                       ST    R15,CPRGFC
 000376 4100 0002            00002  8565                       LA    R0,CP#XOLD
 00037A 5000 B784            00784  8566                       ST    R0,CP#XLOAD
                                    8567
                                    8568                       COMMENT                   CLEAR OLD EXEC, IF NECESSARY
 00037E 58E0 7328/0DEE       00688  8569                       VCALL CHKXOLD
 000384 4780 7044            003A4  8573                       IF    NZ,BEGIN            IF EXISTING EXEC, WE MUST CLEAR
 000388 9110 BD55/4710_00D55        8584  1                      IF    ~CPFCLEAR,BEGIN
 000390 4110 7376/4100_      006D6  8599  2                        SETMSG 'Clear EXEC'
 000398 58E0 732C/0DEE       0068C  8603  2                        VCALL YESREQ
 00039E                             8607  1                      END
 00039E 58E0 7320/0DEE       00680  8611  1                      ACALL CLREX
 0003A4                             8615                       END
 0003A4 94EF BD55      00D55        8619                       CLEAR CPFCLEAR
                                    8626
                                    8627                       COMMENT                   CLEAR VAR STACK, USE BASE VARS
 0003A8 58E0 7330/0DEE       00690  8628                       VCALL CLRVSTK
                                    8632
                                    8633                       COMMENT                   MISC INITIALIZATION
 0003AE 58E0 7334/0DEE       00694  8634                       ACALL INITERR             INIT/CLEAR ON ERROR, ERR VARS
 0003B4 58E0 7338/0DEE       00698  8638                       ACALL INITATTN            INIT/CLEAR ON ATTN, ATTN VARS
 0003BA 58E0 733C/0DEE       0069C  8642                       VCALL INITXDMP            TURN OFF EXEC DUMP INFO
 0003C0 94BF B7E4      007E4        8646                       CLEAR CPFXQT              CLEAR QUIET EXEC FLAG
 0003C4 947F B75A      0075A        8653                       CLEAR CPFXAUTHLIB         NOT AUTHORIZED
 0003C8 94BF B75A      0075A        8660                       CLEAR CPFXAUTH
 0003CC 947F B7FD      007FD        8667                       CLEAR CPFXOVER
 0003D0 D201 B7E2 B7E0 007E2 007E0  8674                       MVC   CPLLIMIT,CPLIMIT    LOCAL LIMIT DEFAULTS TO GLOBAL
                                    8675
                                    8676                       COMMENT                   IF NO RANGE SPECFIED, SET 'ALL'
1EXEC     (EXEC2193) (12:44) (15MAR04) EXECUTE Command                                                                      Page   21
0Current Usings:  (EXWA,R6) (*,R7) (CP,R11) (CV,R12)
0Loc    Object Code    Addr1 Addr2  Stmt Lv Lineno    Source Statement           (Hibal 5, Asmedit 3.3)  HLASM R4.0  2004/03/15 12.44
+___    ______ ____    _____ _____  ____ __ ______    ______ _________
0                                   8677                       COMMENT
 0003D6 9108 6001/4710_00001        8678                       IF    ~EXFRANGE,BEGIN     IF NO RANGE SPECIFIED
 0003DE 58E0 7340/0DEE       006A0  8693  1                      VCALL NDETRNG             CALL NDETRNGTO SET 'ALL'
 0003E4                             8697                       END
                                    8701
                                    8702                       COMMENT                   SAVE EXEC FILE NAME
 0003E4 D23F 6050 7258 00050 005B8  8703                       MVC   EXTXNAME,=CL(L'EXTXNAME)'(ACTIVE file) '
 0003EA D23F 6010 7298 00010 005F8  8704                       MVC   EXXNAME,=CL(L'EXXNAME)'(ACTIVE file) '
                                    8705              *        VCALL SETXNAME            ACT FILE NAME SET ABOVE
 0003F0 4100 0040            00040  8706                       LA    R0,L'EXXNAME
 0003F4 4110 6010            00010  8707                       LA    R1,EXXNAME
 0003F8 4120 72D8            00638  8708                       LA    R2,=CL16'SYS.EXECNAME    '
 0003FC 58E0 7344/0DEE       006A4  8709                       VCALL SAVEDATA
                                    8713
                                    8714                       COMMENT                   LOAD EXEC FILE
 000402 58E0 7348/0DEE       006A8  8715                       ACALL LDOLDACT
                                    8719
                                    8720                       COMMENT                   CLEAR ACTIVE, IF DELETE
 000408 9104 6001/47E0_00001        8721                       IF    EXFDEL,BEGIN
 000410 9108 6001/4710_00001        8736  1                      IF    ~EXFRANGE,BEGIN     CLEAR ENTIRE ACTIVE...
 000418 9614 BD55      00D55        8751  2                        SET   CPFCLEAR+CPFNWARN
 00041C 58E0 734C/0DEE       006AC  8760  2                        VCALL CLRTEXT             Clear Active
 000422                             8764  1                      END
                                    8768  1
 000422 70C6/47F0 70D0 00422 00416  8769  1                      ELSE  BEGIN               Only delete lines selected...
 000426 9620 BD54      00D54        8780  2                        SET   CPLFLG5.CPFNLST      DELETE NOLIST
 00042A 58E0 7350/0DEE       006B0  8787  2                        VCALL DELSUB              GO DELETE RANGE
 000430                             8791  1                      END
 000430                             8795                       END
                                    8799
                                    8800                       COMMENT                   SET EXEC RECD GROUP, SET, AND
                                    8801                       COMMENT                       STARTING LINE NUMBER
 000430 D203 B77C B788 0077C 00788  8802                       MVC   CPRGEXEC,CPRGLOAD
 000436 D203 B780 B78C 00780 0078C  8803                       MVC   CPRGFLOW,CPRGFC
 00043C D203 B778 B784 00778 00784  8804                       MVC   CP#XSET,CP#XLOAD
 000442 D703 B788 B788 00788 00788  8805                       CLEAR CPRGLOAD
 000448 D703 B78C B78C 0078C 0078C  8812                       CLEAR CPRGFC
 00044E D703 B784 B784 00784 00784  8819                       CLEAR CP#XLOAD
 000454 D703 B75C B75C 0075C 0075C  8826                       CLEAR CPEXLINE            EXEC FIRST LINE NUMBER
 00045A D703 B760 B760 00760 00760  8833                       CLEAR CPEXNEXT            STARTING AT ZERO
                                    8840
 000460 18D8/9808 D004_             8841                       PEND
 DROP   *,R7
1EXEC     (EXEC2193) (12:44) (15MAR04) EXECUTE Command                                                                      Page   22
0Current Usings:  (EXWA,R6) (CP,R11) (CV,R12)
0Loc    Object Code    Addr1 Addr2  Stmt Lv Lineno    Source Statement           (Hibal 5, Asmedit 3.3)  HLASM R4.0  2004/03/15 12.44
+___    ______ ____    _____ _____  ____ __ ______    ______ _________
0                                   8862              ¿þþþþþþþþþþþþþþþþþþþþþþþþþþþþþþþþþþþþþþþþþþþþþþþþþþþþþþþþþþþþþþþþþþþþþÜ
                                    8863              Ÿ                                                                     Ÿ
                                    8864              Ÿ                                                                     Ÿ
                                    8865              Ÿ  XXFROM - LOAD OLD EXEC FROM DSN                                    Ÿ
                                    8866              Ÿ                                                                     Ÿ
                                    8867              Ÿ  ON ENTRY:                                                          Ÿ
                                    8868              Ÿ       NO INPUT PARMS,,, (EXEC FROM ... SCANNED)                     Ÿ
                                    8869              Ÿ  ON EXIT:                                                           Ÿ
                                    8870              Ÿ       R15 - CC=ZERO                                                 Ÿ
                                    8871              Ÿ       ALL ERRORS WILL EXIT VIA CVERROR                              Ÿ
                                    8872              Ÿ                                                                     Ÿ
                                    8873              Ÿ                                                                     Ÿ
                                    8874              Ÿ                                                                     Ÿ
                                                      ¾þþþþþþþþþþþþþþþþþþþþþþþþþþþþþþþþþþþþþþþþþþþþþþþþþþþþþþþþþþþþþþþþþþþþþ»
000046E 50E0 D000/9008_      00000  8875              XXFROM   PROC
 USING  *,R7
                                    8914
                                    8915                       COMMENT                   SET OLD EXEC SET NUMBER
 000488 41F0 B4A4            004A4  8916                       LA    R15,CPEXEC
 00048C 50F0 B788            00788  8917                       ST    R15,CPRGLOAD
 000490 41F0 B4C4            004C4  8918                       LA    R15,CPFLOW
 000494 50F0 B78C            0078C  8919                       ST    R15,CPRGFC
 000498 4100 0002            00002  8920                       LA    R0,CP#XOLD
 00049C 5000 B784            00784  8921                       ST    R0,CP#XLOAD
                                    8922
                                    8923                       COMMENT                   CLEAR OLD EXEC, IF NECESSARY
 0004A0 58E0 7200/0DEE       00688  8924                       VCALL CHKXOLD
 0004A6 4780 703E            004C6  8928                       IF    NZ,BEGIN            IF EXISTING EXEC, WE MUST CLEAR
 0004AA 9110 BD55/4710_00D55        8939  1                      IF    ~CPFCLEAR,BEGIN
 0004B2 4110 724E/4100_      006D6  8954  2                        SETMSG 'Clear EXEC'
 0004BA 58E0 7204/0DEE       0068C  8958  2                        VCALL YESREQ
 0004C0                             8962  1                      END
 0004C0 58E0 71F8/0DEE       00680  8966  1                      ACALL CLREX
 0004C6                             8970                       END
 0004C6 94EF BD55      00D55        8974                       CLEAR CPFCLEAR
                                    8981
                                    8982                       COMMENT                   CLEAR VAR STACK, USE BASE VARS
 0004CA 58E0 7208/0DEE       00690  8983                       VCALL CLRVSTK
                                    8987
                                    8988                       COMMENT                   MISC INITIALIZATION
 0004D0 58E0 720C/0DEE       00694  8989                       ACALL INITERR             INIT/CLEAR ON ERROR, ERR VARS
 0004D6 58E0 7210/0DEE       00698  8993                       ACALL INITATTN            INIT/CLEAR ON ATTN, ATTN VARS
 0004DC 58E0 7214/0DEE       0069C  8997                       VCALL INITXDMP            TURN OFF EXEC DUMP INFO
 0004E2 94BF B7E4      007E4        9001                       CLEAR CPFXQT              CLEAR EXEC QUIET FLAG
 0004E6 947F B75A      0075A        9008                       CLEAR CPFXAUTHLIB         NOT AUTHORIZED
 0004EA 94BF B75A      0075A        9015                       CLEAR CPFXAUTH
 0004EE 947F B7FD      007FD        9022                       CLEAR CPFXOVER
 0004F2 D201 B7E2 B7E0 007E2 007E0  9029                       MVC   CPLLIMIT,CPLIMIT    LOCAL LIMIT DEFAULTS TO GLOBAL
                                    9030
                                    9031                       COMMENT                   GET SET TO OPEN EXERNAL FILE
                                    9032                       COMMENT
 0004F8 58E0 722C/0DEE       006B4  9033                       VCALL FNAMEFIN            FINISH UP FILE NAME PROCESSING
 0004FE 58E0 7230/0DEE       006B8  9037                       VCALL NRESOLVE            WE NEED FULL NAME FOR EXEC FILE
1EXEC     (EXEC2193) (12:44) (15MAR04) EXECUTE Command                                                                      Page   23
0Current Usings:  (EXWA,R6) (*,R7) (CP,R11) (CV,R12)
0Loc    Object Code    Addr1 Addr2  Stmt Lv Lineno    Source Statement           (Hibal 5, Asmedit 3.3)  HLASM R4.0  2004/03/15 12.44
+___    ______ ____    _____ _____  ____ __ ______    ______ _________
0000504 9108 6001/4710_00001        9041                       IF    ~EXFRANGE,BEGIN     IF NO RANGE SPECIFIED
 00050C 58E0 7218/0DEE       006A0  9056  1                      VCALL NDETRNG             CALL NDETRNGTO SET 'ALL'
 000512                             9060                       END
                                    9064
                                    9065                       COMMENT                   OPEN EXTERNAL FILE
 000512 58E0 7234/0DEE       006BC  9066                       VCALL EXTOPEN
 000518 12FF/4770 C7DE              9070                       IF    (R15,NZ),CVNEXT
                                    9087
                                    9088                       COMMENT                   SAVE EXEC FILE NAME
 00051E 4110 6010            00010  9089                       LA    R1,EXXNAME
 000522 58E0 7238/0DEE       006C0  9090                       VCALL SETXNAME
 000528 4100 0040            00040  9094                       LA    R0,L'EXXNAME
 00052C 4110 6010            00010  9095                       LA    R1,EXXNAME
 000530 4120 71B0            00638  9096                       LA    R2,=CL16'SYS.EXECNAME    '
 000534 58E0 721C/0DEE       006A4  9097                       VCALL SAVEDATA
                                    9101
                                    9102                       COMMENT                   IF LOAD W/OUT EXTENDED CHECK,
 00053A 9101 6001/47E0_00001        9103                       IF    EXNOXCHK,BEGIN
 000542 58E0 723C/0DEE       006C4  9118  1                      ACALL LDOLDDSN            DO LOAD !
 000548                             9122                       END
                                    9126
                                    9127                       COMMENT                   IF LOAD WITH XPROC CHECK,
 000548 70C4/47F0 70E2 00548 00540  9128                       ELSE  BEGIN
 00054C 58E0 7240/0DEE       006C8  9139  1                      ACALL LDDSNCHK            LOAD W/CHECK FOR XPROC
 000552 4780 70E2            0056A  9143  1                      IF    NZ,BEGIN            IF XPROC, DO XCALL FOR USER
 000556 58E0 7244/0DEE       006CC  9154  2                        VCALL EXTCLOSE
 00055C 5800 600C            0000C  9158  2                        L     R0,EXPARMLN
 000560 5810 6008            00008  9159  2                        L     R1,EXPARM
 000564 58E0 7248/0DEE       006D0  9160  2                        ACALL CALXPROC            SET UP, DO XCALL
 00056A                             9164  1                      END
 00056A                             9168                       END
                                    9172
                                    9173                       COMMENT                   CLOSE EXTERNAL FILE
 00056A 58E0 7244/0DEE       006CC  9174                       VCALL EXTCLOSE
                                    9178
                                    9179                       COMMENT                   SET EXEC RECD GROUP, SET, AND
                                    9180                       COMMENT                       STARTING LINE NUMBER
 000570 D203 B77C B788 0077C 00788  9181                       MVC   CPRGEXEC,CPRGLOAD
 000576 D203 B780 B78C 00780 0078C  9182                       MVC   CPRGFLOW,CPRGFC
 00057C D203 B778 B784 00778 00784  9183                       MVC   CP#XSET,CP#XLOAD
 000582 D703 B788 B788 00788 00788  9184                       CLEAR CPRGLOAD
 000588 D703 B78C B78C 0078C 0078C  9191                       CLEAR CPRGFC
 00058E D703 B784 B784 00784 00784  9198                       CLEAR CP#XLOAD
 000594 D703 B75C B75C 0075C 0075C  9205                       CLEAR CPEXLINE            EXEC FIRST LINE NUMBER
 00059A D703 B760 B760 00760 00760  9212                       CLEAR CPEXNEXT            STARTING AT ZERO
                                    9219
 0005A0 18D8/9808 D004_             9220                       PEND
 DROP   *,R7
 DROP   EXWA,R6                     9240                       DROP  R6
1EXEC     (EXEC2193) (12:44) (15MAR04) EXECUTE Command                                                                      Page   24
0Current Usings:  (CP,R11) (CV,R12)
0Loc    Object Code    Addr1 Addr2  Stmt Lv Lineno    Source Statement           (Hibal 5, Asmedit 3.3)  HLASM R4.0  2004/03/15 12.44
+___    ______ ____    _____ _____  ____ __ ______    ______ _________
0                                   9248                       QLTORG
1EXEC     (EXEC2193) (12:44) (15MAR04) EXEC Command - Scan Table, Scan Routines                                             Page   25
0Current Usings:  (CP,R11) (CV,R12)
0Loc    Object Code    Addr1 Addr2  Stmt Lv Lineno    Source Statement           (Hibal 5, Asmedit 3.3)  HLASM R4.0  2004/03/15 12.44
+___    ______ ____    _____ _____  ____ __ ______    ______ _________
0USING  EXWA,R6                     9305                       USING EXWA,R6
                                    9314              *
                                    9315              *  EXEC .. STUFF
                                    9316              *
 00074C C1C3E3C9E5C54040_           9317              EXECTBLA SCKW  ACTIVE,V(SCNNOOP),A EXEC ACTIVE SCAN TABLE
 000774 C4C5D3C5E3C54040_           9332                       SCKW  DELETE,SCNDEL,A
 00079C D5D6C4C5D3C5E3C5_           9347                       SCKW  NODELETE,SCNNODEL,A
 0007C4 D3C9D5C5E2404040_           9362                       SCKW  LINES,SCNLINS,A
 0007EC D3C9D5E240404040_           9377                       SCKW  LINS,SCNLINS
 000814 D7C1E4E2C5404040_           9392                       SCKW  PAUSE,SCANPA,A
 00083C E2C1E5C540404040_           9407                       SCKW  SAVE,SCNSAVE,A
 000864 D3D6C74040404040_           9422                       SCKW  LOG,SCANLOG
 00088C D5D6D3D6C7404040_           9437                       SCKW  NOLOG,SCANNLOG,A
 0008B4 E3C5D9E2C5404040_           9452                       SCKW  TERSE,V(SCNNOOP),A   (Compatibility--ignored)
 0008DC E5C5D9C2D6E2C540_           9467                       SCKW  VERBOSE,V(SCNNOOP),A (Compatibility--ignored)
 000904 4040404040404040_           9482                       SCKW  ,SCANLNO,SYMLN
 00092C E2E3C1D9E3404040_           9497                       SCKW  START,SCANLNO,(A,V(MPSYMLN))
 000954 D7C1D9D440404040_           9512                       SCKW  PARM,SCANPARM,(A,P)
 00097C D5D6D7C1D9D44040_           9527                       SCKW  NOPARM,SCANNPRM,A
 0009A4 4040404040404040_           9542                       SCKW  ,V(CLRPSH),PUSH
 0009CC 4040404040404040_           9557                       SCKW  ,V(QUIETPSH),PUSH
 0009F4 4040404040404040_           9572                       SCKW  ,V(SCNINVAL)
                                    9587
 000A1C C6D9D6D440404040_           9588              EXECTBLF SCKW  FROM,SCANFROM,A     EXEC FROM SCAN TABLE
 000A44 4040404040404040_           9603                       SCKW  ,V(FNAMPSHF),PUSH
 000A6C D3C9D5C5E2404040_           9618                       SCKW  LINES,SCNLINS,A
 000A94 D3C9D5E240404040_           9633                       SCKW  LINS,SCNLINS
 000ABC D7C1E4E2C5404040_           9648                       SCKW  PAUSE,SCANPA,A
 000AE4 E2C1E5C540404040_           9663                       SCKW  SAVE,SCNSAVE,A
 000B0C D3D6C74040404040_           9678                       SCKW  LOG,SCANLOG
 000B34 D5D6D3D6C7404040_           9693                       SCKW  NOLOG,SCANNLOG,A
 000B5C E3C5D9E2C5404040_           9708                       SCKW  TERSE,V(SCNNOOP),A   (Compatibility--ignored)
 000B84 E5C5D9C2D6E2C540_           9723                       SCKW  VERBOSE,V(SCNNOOP),A (Compatibility--ignored)
 000BAC 4040404040404040_           9738                       SCKW  ,SCANLNO,SYMLN
 000BD4 E2E3C1D9E3404040_           9753                       SCKW  START,SCANLNO,(A,V(MPSYMLN))
 000BFC D7C1D9D440404040_           9768                       SCKW  PARM,SCANPARM,(A,P)
 000C24 D5D6D7C1D9D44040_           9783                       SCKW  NOPARM,SCANNPRM,A
 000C4C 4040404040404040_           9798                       SCKW  ,V(CLRPSH),PUSH
 000C74 4040404040404040_           9813                       SCKW  ,V(QUIETPSH),PUSH
 000C9C 4040404040404040_           9828                       SCKW  ,V(SCNINVAL)
                                    9843
 000CC4 D7C1E4E2C5404040_           9844              EXECTBLC SCKW  PAUSE,SCANPA,A
 000CEC E2C1E5C540404040_           9859                       SCKW  SAVE,SCNSAVE,A
 000D14 D3D6C74040404040_           9874                       SCKW  LOG,SCANLOG
 000D3C D5D6D3D6C7404040_           9889                       SCKW  NOLOG,SCANNLOG,A
 000D64 E3C5D9E2C5404040_           9904                       SCKW  TERSE,V(SCNNOOP),A   (Compatibility--ignored)
 000D8C E5C5D9C2D6E2C540_           9919                       SCKW  VERBOSE,V(SCNNOOP),A (Compatibility--ignored)
 000DB4 4040404040404040_           9934                       SCKW  ,SCANLNO,SYMLN
 000DDC E2E3C1D9E3404040_           9949                       SCKW  START,SCANLNO,(A,V(MPSYMLN))
 000E04 D7C1D9D440404040_           9964                       SCKW  PARM,SCANPARM,(A,P)
 000E2C D5D6D7C1D9D44040_           9979                       SCKW  NOPARM,SCANNPRM,A
 000E54 4040404040404040_           9994                       SCKW  ,V(CLRPSH),PUSH
 000E7C 4040404040404040_          10009                       SCKW  ,V(QUIETPSH),PUSH
 000EA4 4040404040404040_          10024                       SCKW  ,V(SCNINVAL)
1EXEC     (EXEC2193) (12:44) (15MAR04) EXEC Command - Scan Table, Scan Routines                                             Page   26
0Current Usings:  (EXWA,R6) (CP,R11) (CV,R12)
0Loc    Object Code    Addr1 Addr2  Stmt Lv Lineno    Source Statement           (Hibal 5, Asmedit 3.3)  HLASM R4.0  2004/03/15 12.44
+___    ______ ____    _____ _____  ____ __ ______    ______ _________
0                                  10040                  ¿þþþþþþþþþþþþþþþþþþþþþþþþþþþþþþþþþþþþþþþþþþþþþþþþþþþþþþþþþþþþþþþþþþþþÜ
                                   10041                  Ÿ  NOTE: EXNOXCHK FLAG IS SET IF WE ARE NOT TO CHECK DURING LOADING  Ÿ
                                   10042                  Ÿ       TO SEE IF EXEC IS AN XPROC.  IF EXEC PAUSE, EXEC SAVE, ETC.  Ÿ
                                   10043                  Ÿ       ARE SPECIFIED WE DO NOT CHECK.  THESE DO NOT WORK FOR        Ÿ
                                   10044                  Ÿ       EXTENDED EXECS.                                              Ÿ
                                   10045                  ¾þþþþþþþþþþþþþþþþþþþþþþþþþþþþþþþþþþþþþþþþþþþþþþþþþþþþþþþþþþþþþþþþþþþþ»
 000ECC 50E0 D000/9008_      00000 10046              SCANPA   DPROC ,
 USING  *,R7
 000EE6 9601 6001      00001       10086                       SET   EXNOXCHK
 000EEA 9602 6001      00001       10092                       SET   EXFPAUSE            SET EXEC PAUSE
 000EEE 18D8/9808 D004_            10098                       PEND
 DROP   *,R7
                                   10118
 000EFC 50E0 D000/9008_      00000 10119              SCNNODEL DPROC ,
 USING  *,R7
 000F16 9601 6001      00001       10159                       SET   EXNOXCHK
 000F1A 94FB 6001      00001       10165                       CLEAR EXFDEL              TURN OFF 'DELETE' OPTION
 000F1E 18D8/9808 D004_            10172                       PEND
 DROP   *,R7
                                   10192
 000F2C 50E0 D000/9008_      00000 10193              SCNDEL   DPROC ,
 USING  *,R7
 000F46 9601 6001      00001       10233                       SET   EXNOXCHK
 000F4A 9604 6001      00001       10239                       SET   EXFDEL              TURN ON 'DELETE' OPTION
 000F4E 18D8/9808 D004_            10245                       PEND
 DROP   *,R7
                                   10265
 000F5C 50E0 D000/9008_      00000 10266              SCNSAVE  DPROC ,
 USING  *,R7
 000F76 9601 6001      00001       10306                       SET   EXNOXCHK
 000F7A 9680 6001      00001       10312                       SET   EXFSAVE             SET SAVE OPTION SPECIFIED
 000F7E 18D8/9808 D004_            10318                       PEND
 DROP   *,R7
                                   10338
 000F8C 50E0 D000/9008_      00000 10339              SCNLINS  PROC  ,
 USING  *,R7
 000FA6 9601 6001      00001       10378                       SET   EXNOXCHK
 000FAA 9108 6001/47E0_00001       10384                       IF    EXFRANGE,BEGIN      HAS RANGE ALREADY BEEN GIVEN
 000FB2 4110 7B02/4100_      01AA8 10399  1                      ERROR 'LINES option specifed twice. '
 000FBE                            10406                       END
 000FBE 9608 6001      00001       10410                       SET   EXFRANGE            SET RANGE SPECIFIED
 000FC2 58E0 7A3A/0DEE       019E0 10416                       VCALL NDETRNG             GO SCAN RANGE
 000FC8 9110 BD50      00D50       10420                       TM    CPLFLG1,CPFALL      WAS SOMETHING SPECIFIED
 000FCC 4770 7036            00FDC 10421                       IF    Z,BEGIN
 000FD0 4110 7B1F/4100_      01AC5 10432  1                      ERROR 'Missing range after LINES keyword. '
 000FDC                            10439                       END
 000FDC 1BFF                       10443                       CLEAR R15
 000FDE 18D8/9808 D004_            10447                       PEND
 DROP   *,R7
                                   10467
 000FEC 50E0 D000/9008_      00000 10468              SCANPARM PROC  ,
 USING  *,R7
 001006 9640 6001      00001       10507                       SET   EXFPARM
 00100A 58E0 79DE/0DEE       019E4 10513                       VCALL DEQUOTE             DEQUOTE, IF STRING
1EXEC     (EXEC2193) (12:44) (15MAR04) EXEC Command - Scan Table, Scan Routines                                             Page   27
0Current Usings:  (EXWA,R6) (*,R7) (CP,R11) (CV,R12)
0Loc    Object Code    Addr1 Addr2  Stmt Lv Lineno    Source Statement           (Hibal 5, Asmedit 3.3)  HLASM R4.0  2004/03/15 12.44
+___    ______ ____    _____ _____  ____ __ ______    ______ _________
0001010 47B0 704A            01050 10517                       IF    NEG,BEGIN           NOT A STRING...
                                   10528  1                      ¿þþþþþþþþþþþþþþþþþþþþþþþþþþþþþþþþþþþþþþþþþþþþþþþþþþþþþþþþþþÜ
                                   10529  1                      Ÿ  In addition to PARM="string", also allow PARM /string.  Ÿ
                                   10530  1                      ¾þþþþþþþþþþþþþþþþþþþþþþþþþþþþþþþþþþþþþþþþþþþþþþþþþþþþþþþþþþ»
 001014 9561 1000/4770_00000       10531  1                      IF    (@R1,EQ,'/'),BEGIN  Allow /string...
 00101C 58E0 B08C/581E_      0008C 10547  2                        SCINFO
 00102A 5010 6008            00008 10556  2                        ST    R1,EXPARM
 00102E 5000 600C            0000C 10557  2                        ST    R0,EXPARMLN
 001032 41F0 0004            00004 10558  2                        LA    R15,4               Return to SCAN caller
 001036 47F0 7054            0105A 10559  2                        B     SCPMDONE
 00103A                            10560  1                      END
 00103A 954D 1000/4780_00000       10564  1                      IF    (@R1,NE,'('),BEGIN  NO GOOD
 001042 58E0 79E2/0DEE       019E8 10580  2                        VCALL NOTVALID
 001048                            10584  1                      END
 001048 4110 1001            00001 10588  1                      LA    R1,@R1+1
 00104C 0600                       10589  1                      DECR  R0
 00104E 0600                       10591  1                      DECR  R0
 001050                            10593                       END
 001050 5010 6008            00008 10597                       ST    R1,EXPARM           SAVE PARM PTRS
 001054 5000 600C            0000C 10598                       ST    R0,EXPARMLN
 001058 1BFF                       10599                       CLEAR R15
 00105A                            10603              SCPMDONE LABEL ,
 00105A 18D8/9808 D004_            10605                       PEND
 DROP   *,R7
                                   10625
 001068 50E0 D000/9008_      00000 10626              SCANNPRM DPROC  ,
 USING  *,R7
 001082 9601 6001      00001       10666                       SET   EXNOXCHK
 001086 9620 6001      00001       10672                       SET   EXFNOPAR            DO NOT SET PARM
 00108A 18D8/9808 D004_            10678                       PEND
 DROP   *,R7
                                   10698
 001098 50E0 D000/9008_      00000 10699              SCANLNO  PROC  ,
 USING  *,R7
 0010B2 9601 6001      00001       10738                       SET   EXNOXCHK
 0010B6 5000 6004            00004 10744                       ST    R0,EXLINENO         SAVE SPECIFIED LINE NO.
 0010BA 9110 6001/47E0_00001       10745                       IF    EXFLNO,BEGIN        HAS EXEC LINE BEEN GIVEN
 0010C2 4110 793A/4100_      019EC 10760  1                      ERROR 'Exec LINENO specifed twice. '
 0010CE                            10767                       END
 0010CE 9610 6001      00001       10771                       SET   EXFLNO              SET LINE NO. SPECIFIED
 0010D2 1BFF                       10777                       CLEAR R15
 0010D4 18D8/9808 D004_            10781                       PEND
 DROP   *,R7
                                   10801
 0010E2 50E0 D000/9008_      00000 10802              SCANFROM PROC  ,
 USING  *,R7
 0010FC 58E0 790C/0DEE       01A08 10841                       VCALL DOFNAME             GET THE FILE NAME
 001102 1BFF                       10845                       CLEAR R15
 001104 18D8/9808 D004_            10849                       PEND  ,                   GO RESTART SCAN
 DROP   *,R7
                                   10869
 001112 50E0 D000/9008_      00000 10870              SCANLOG  DPROC ,
 USING  *,R7
 00112C 9601 6001      00001       10910                       SET   EXNOXCHK
1EXEC     (EXEC2193) (12:44) (15MAR04) EXEC Command - Scan Table, Scan Routines                                             Page   28
0Current Usings:  (EXWA,R6) (*,R7) (CP,R11) (CV,R12)
0Loc    Object Code    Addr1 Addr2  Stmt Lv Lineno    Source Statement           (Hibal 5, Asmedit 3.3)  HLASM R4.0  2004/03/15 12.44
+___    ______ ____    _____ _____  ____ __ ______    ______ _________
0001130 9608 B84C      0084C       10916                       SET   CPFLOG
 001134 18D8/9808 D004_            10922                       PEND
 DROP   *,R7
                                   10942
 001142 50E0 D000/9008_      00000 10943              SCANNLOG DPROC ,
 USING  *,R7
 00115C 9601 6001      00001       10983                       SET   EXNOXCHK
 001160 94F7 B84C      0084C       10989                       CLEAR CPFLOG
 001164 18D8/9808 D004_            10996                       PEND
 DROP   *,R7
                                   11016
 001172 50E0 D000/9008_      00000 11017              SCANNLIM DPROC ,                   SET NO EXEC LIMIT
 USING  *,R7
 00118C 9601 6001      00001       11057                       SET   EXNOXCHK
 001190 D701 B7E0 B7E0 007E0 007E0 11063                       CLEAR CPLIMIT             LIMIT=0 IS NOLIMIT
 001196 D701 B7E2 B7E2 007E2 007E2 11070                       CLEAR CPLLIMIT
 00119C 1BFF                       11077                       CLEAR R15
 00119E 18D8/9808 D004_            11081                       PEND
 DROP   *,R7
                                   11101
 0011AC 50E0 D000/9008_      00000 11102              SCANLIM  PROC  ,                   SET EXEC LIMIT
 USING  *,R7
 0011C6 9601 6001      00001       11141                       SET   EXNOXCHK
 0011CA 4000 B7E0            007E0 11147                       STH   R0,CPLIMIT
 0011CE D501 B7E2 B7E0_007E2 007E0 11148                       IF    (CPLLIMIT,LT,CPLIMIT),BEGIN
 0011D8 D201 B7E2 B7E0 007E2 007E0 11166  1                      MVC   CPLLIMIT,CPLIMIT
 0011DE                            11167                       END
 0011DE 1BFF                       11171                       CLEAR R15
 0011E0 18D8/9808 D004_            11175                       PEND
 DROP   *,R7
                                   11195
 0011EE 50E0 D000/9008_      00000 11196              SCANNLLM DPROC ,                   SET NO LOCAL EXEC LIMIT
 USING  *,R7
 001208 9601 6001      00001       11236                       SET   EXNOXCHK
 00120C D701 B7E2 B7E2 007E2 007E2 11242                       CLEAR CPLLIMIT            LIMIT=0 IS NOLIMIT
 001212 1BFF                       11249                       CLEAR R15
 001214 18D8/9808 D004_            11253                       PEND
 DROP   *,R7
                                   11273
 001222 50E0 D000/9008_      00000 11274              SCANLLM  PROC  ,                   SET LOCAL EXEC LIMIT
 USING  *,R7
 00123C 9601 6001      00001       11313                       SET   EXNOXCHK
 001240 1200/4770 7010             11319                       IF    (R0,Z),BEGIN
 001246 D701 B7E2 B7E2 007E2 007E2 11333  1                      CLEAR CPLLIMIT
 00124C                            11340                       END
 00124C 7014/47F0 7020_0124C 01244 11344                       ELSEIF (R0,GT,CPLLIMIT),BEGIN
 001258 4000 B7E2            007E2 11370  1                      STH   R0,CPLLIMIT
 00125C                            11371                       END
 00125C 1BFF                       11375                       CLEAR R15
 00125E 18D8/9808 D004_            11379                       PEND
 DROP   *,R7
                                   11399
 00126C 50E0 D000/9008_      00000 11400              SCANAUTO PROC  ,
 USING  *,R7
1EXEC     (EXEC2193) (12:44) (15MAR04) EXEC Command - Scan Table, Scan Routines                                             Page   29
0Current Usings:  (EXWA,R6) (*,R7) (CP,R11) (CV,R12)
0Loc    Object Code    Addr1 Addr2  Stmt Lv Lineno    Source Statement           (Hibal 5, Asmedit 3.3)  HLASM R4.0  2004/03/15 12.44
+___    ______ ____    _____ _____  ____ __ ______    ______ _________
0001286 4110 7862/4100_      01AE8 11439                       TSEG  'AUTO OPTION HAS BEEN REMOVED, USE THE',,B
 001298 4110 77CE/4100_      01A54 11457                       SETMSG 'SET AUTO EXEC COMMAND INSTEAD.'
 0012A0 47F0 C7CC            007CC 11461                       B     CVABTMSG
 0012A4 18D8/9808 D004_            11462                       PEND
 DROP   *,R7
-                                  11483
 DROP   EXWA,R6                    11484                       DROP  R6
1EXEC     (EXEC2193) (12:44) (15MAR04) EXEC Command - Scan Table, Scan Routines                                             Page   30
0Current Usings:  (CP,R11) (CV,R12)
0Loc    Object Code    Addr1 Addr2  Stmt Lv Lineno    Source Statement           (Hibal 5, Asmedit 3.3)  HLASM R4.0  2004/03/15 12.44
+___    ______ ____    _____ _____  ____ __ ______    ______ _________
0                                  11492              *
                                   11493              *  SET EXEC STUFF
                                   11494              *
 0012B2 50E0 D000/9008_      00000 11495              STEXEPSH XPUSHRTN STEXEKWS
 USING  *,R7
 DROP   *,R7
                                   11563
 0012E8 C1E4E3D640404040_          11564              STEXEKWS SCKW  AUTO,SCANAUTO,(A,S)
 001310 D5D6C1E4E3D64040_          11579                       SCKW  NOAUTO,SCANAUTO,(A,S)
 001338 D3D6C74040404040_          11594                       SCKW  LOG,SETELOG
 001360 D5D6D3D6C7404040_          11609                       SCKW  NOLOG,SETENLOG,A    (NOL=NOLOG-- NOT NOLIMIT)
 001388 D3C9D4C9E3404040_          11624                       SCKW  LIMIT,SETELIM,(A,P,PI),32000
 0013B0 D5D6D3C9D4C9E340_          11639                       SCKW  NOLIMIT,SETENLIM,A
 0013D8 D3D3C9D4C9E34040_          11654                       SCKW  LLIMIT,SETELLM,(A,P,PI),32000
 001400 D5D6D3D3C9D4C9E3_          11669                       SCKW  NOLLIMIT,SETENLLM,A
 001428 E3C5D9E2C5404040_          11684                       SCKW  TERSE,V(SCNNOOP),A   (Compatibility--ignored)
 001450 E5C5D9C2D6E2C540_          11699                       SCKW  VERBOSE,V(SCNNOOP),A (Compatibility--ignored)
 001478 4040404040404040_          11714                       SCKW  ,,END
1EXEC     (EXEC2193) (12:44) (15MAR04) EXEC Command - Scan Table, Scan Routines                                             Page   31
0Current Usings:  (CP,R11) (CV,R12)
0Loc    Object Code    Addr1 Addr2  Stmt Lv Lineno    Source Statement           (Hibal 5, Asmedit 3.3)  HLASM R4.0  2004/03/15 12.44
+___    ______ ____    _____ _____  ____ __ ______    ______ _________
0                                  11730              *
 0014A0 50E0 D000/9008_      00000 11731              SETELOG  DPROC ,
 USING  *,R7
 0014BA 9608 B84C      0084C       11771                       SET   CPFLOG
 0014BE 18D8/9808 D004_            11777                       PEND
 DROP   *,R7
                                   11797
 0014CC 50E0 D000/9008_      00000 11798              SETENLOG DPROC ,
 USING  *,R7
 0014E6 94F7 B84C      0084C       11838                       CLEAR CPFLOG
 0014EA 18D8/9808 D004_            11845                       PEND
 DROP   *,R7
                                   11865
 0014F8 50E0 D000/9008_      00000 11866              SETENLIM DPROC ,                   SET NO EXEC LIMIT
 USING  *,R7
 001512 D701 B7E0 B7E0 007E0 007E0 11906                       CLEAR CPLIMIT             LIMIT=0 IS NOLIMIT
 001518 D701 B7E2 B7E2 007E2 007E2 11913                       CLEAR CPLLIMIT
 00151E 18D8/9808 D004_            11920                       PEND
 DROP   *,R7
                                   11940
 00152C 50E0 D000/9008_      00000 11941              SETELIM  PROC  ,                   SET EXEC LIMIT
 USING  *,R7
 001546 4000 B7E0            007E0 11980                       STH   R0,CPLIMIT
 00154A D501 B7E2 B7E0_007E2 007E0 11981                       IF    (CPLLIMIT,LT,CPLIMIT),BEGIN
 001554 D201 B7E2 B7E0 007E2 007E0 11999  1                      MVC   CPLLIMIT,CPLIMIT
 00155A                            12000                       END
 00155A 1BFF                       12004                       CLEAR R15
 00155C 18D8/9808 D004_            12008                       PEND
 DROP   *,R7
                                   12028
 00156A 50E0 D000/9008_      00000 12029              SETENLLM DPROC ,                   SET NO LOCAL EXEC LIMIT
 USING  *,R7
 001584 D701 B7E2 B7E2 007E2 007E2 12069                       CLEAR CPLLIMIT            LIMIT=0 IS NOLIMIT
 00158A 18D8/9808 D004_            12076                       PEND
 DROP   *,R7
                                   12096
 001598 50E0 D000/9008_      00000 12097              SETELLM  PROC  ,                   SET LOCAL EXEC LIMIT
 USING  *,R7
 0015B2 1200/4770 700C             12136                       IF    (R0,Z),BEGIN
 0015B8 D701 B7E2 B7E2 007E2 007E2 12150  1                      CLEAR CPLLIMIT
 0015BE                            12157                       END
 0015BE 7010/47F0 701C_015BE 015B6 12161                       ELSEIF (R0,GT,CPLLIMIT),BEGIN
 0015CA 4000 B7E2            007E2 12187  1                      STH   R0,CPLLIMIT
 0015CE                            12188                       END
 0015CE 1BFF                       12192                       CLEAR R15
 0015D0 18D8/9808 D004_            12196                       PEND
 DROP   *,R7
1EXEC     (EXEC2193) (12:44) (15MAR04) EXEC (old) Load Routines                                                             Page   32
0Current Usings:  (CP,R11) (CV,R12)
0Loc    Object Code    Addr1 Addr2  Stmt Lv Lineno    Source Statement           (Hibal 5, Asmedit 3.3)  HLASM R4.0  2004/03/15 12.44
+___    ______ ____    _____ _____  ____ __ ______    ______ _________
0                                  12217              ¿þþþþþþþþþþþþþþþþþþþþþþþþþþþþþþþþþþþþþþþþþþþþþþþþþþþþþþþþþþþþþþþþþþþþþÜ
                                   12218              Ÿ                                                                     Ÿ
                                   12219              Ÿ                                                                     Ÿ
                                   12220              Ÿ  LDOLDACT - LOAD EXEC FILE (OLD)                                    Ÿ
                                   12221              Ÿ                                                                     Ÿ
                                   12222              Ÿ  ON ENTRY:                                                          Ÿ
                                   12223              Ÿ       CP#XLOAD - OLD EXEC SET NUMBER                                Ÿ
                                   12224              Ÿ      @CPRGEXEC - EXEC RECORD GROUP                                  Ÿ
                                   12225              Ÿ      @CPRGFC - FLOW INFO RECORD GROUP                               Ÿ
                                   12226              Ÿ                                                                     Ÿ
                                   12227              Ÿ  ON EXIT:                                                           Ÿ
                                   12228              Ÿ       ACTIVE FILE LOADED,                                           Ÿ
                                   12229              Ÿ       ERRORS EXIT VIA CVERROR                                       Ÿ
                                   12230              Ÿ                                                                     Ÿ
                                   12231              Ÿ  NOTE: EXEC ACT WILL NOT HANDLE EXTENDED EXECS                      Ÿ
                                   12232              Ÿ  NOTE: EXTENDED EXECS ARE LOADED IN XCALL MODULE                    Ÿ
                                   12233              Ÿ                                                                     Ÿ
                                   12234              Ÿ                                                                     Ÿ
                                                      ¾þþþþþþþþþþþþþþþþþþþþþþþþþþþþþþþþþþþþþþþþþþþþþþþþþþþþþþþþþþþþþþþþþþþþþ»
0000000                00000 000FB 12235              LDWA     RECORD BEGIN
 000000 00                         12243  1           LDFLAGS    FLAG  ,                   LOAD FLAGS
 LDFLAGS.LDXPROC   80 ONES         12247  1                      FLAG  LDXPROC             TRYING TO EXEC XPROC,,, A NO-NO
 LDFLAGS.LDFIRST   40 ONES         12252  1                      FLAG  LDFIRST             READ 1ST NON-COMMENT LINE OF EXEC
 000004                            12257  1           LDLNCNT    DS    F                   TOTAL EXEC LINE COUNT (NOT USED)
 000008                            12258  1           LDLNO      DS    F                   LINE NUMBER
 00000C                            12259  1           LDLEN      DS    F                   LINE LENGTH
                                   12260  1           LDLINE     DS    CL(&LINESZ)         LINE TEXT
 000010                                   1          +LDLINE     DS    CL(235)             LINE TEXT
 0000FB                000FB 000FB 12261                       END
                                   12270              *
                                   12271              *
 0015DE 50E0 D000/9008_      00000 12272              LDOLDACT PROC  LDWA
 USING  *,R7
 USING  LDWA-(4+36),R8
 0015F8 4110 8028            00000 12322                       LA    R1,LDWA
 0015FC 5010 BCA4            00CA4 12323                       ST    R1,CPCWA            SAVE WORK AREA FOR CO-ROUTINE
                                   12324
 001600 94BF BD57      00D57       12325                       CLEAR CPFNCUR             DO NOT RESET CURRENT
 001604 5800 7420/5810_      01A18 12332                       RDRNG OLDLOOP,(DESRTRN+LOCATRTN+DESABORT+UNPRST)
 001612 4780 703A            01632 12339                       IF    NZ,BEGIN            IF ATTN, QUIT EXEC LOAD
 001616 58E0 742C/0DEE       01A24 12350  1                      ACALL CLREX
 00161C D703 B784 B784 00784 00784 12354  1                      CLEAR CP#XLOAD
 001622 D703 B788 B788 00788 00788 12361  1                      CLEAR CPRGLOAD
 001628 D703 B78C B78C 0078C 0078C 12368  1                      CLEAR CPRGFC
 00162E 47F0 C7D6            007D6 12375  1                      B     CVERROR
 001632                            12376                       END
                                   12380
 001632 1BFF                       12381                       CLEAR R15
 001634 18D8/9808 D004_            12385                       PEND
 DROP   LDWA-(4+36),R8
 DROP   *,R7
1EXEC     (EXEC2193) (12:44) (15MAR04) EXEC (old) Load Routines                                                             Page   33
0Current Usings:  (CP,R11) (CV,R12)
0Loc    Object Code    Addr1 Addr2  Stmt Lv Lineno    Source Statement           (Hibal 5, Asmedit 3.3)  HLASM R4.0  2004/03/15 12.44
+___    ______ ____    _____ _____  ____ __ ______    ______ _________
0                                  12411              ¿þþþþþþþþþþþþþþþþþþþþþþþþþþþþþþþþþþþþþþþþþþþþþþþþþþþþþþþþþþþþþþþþþþþþþÜ
                                   12412              Ÿ                                                                     Ÿ
                                   12413              Ÿ                                                                     Ÿ
                                   12414              Ÿ  LDOLDDSN - LOAD EXEC FILE (OLD)                                    Ÿ
                                   12415              Ÿ                                                                     Ÿ
                                   12416              Ÿ  NOTE, DOES NOT CHECK FOR XPROC.                                    Ÿ
                                   12417              Ÿ                                                                     Ÿ
                                   12418              Ÿ  ON ENTRY:                                                          Ÿ
                                   12419              Ÿ       CP#XLOAD - OLD EXEC SET NUMBER                                Ÿ
                                   12420              Ÿ      @CPRGEXEC - EXEC RECORD GROUP                                  Ÿ
                                   12421              Ÿ      @CPRGFC - FLOW INFO RECORD GROUP                               Ÿ
                                   12422              Ÿ                                                                     Ÿ
                                   12423              Ÿ  ON EXIT:                                                           Ÿ
                                   12424              Ÿ      R15 - CC=ZERO, EXEC FILE LOADED OK                             Ÿ
                                   12425              Ÿ                                                                     Ÿ
                                   12426              Ÿ                                                                     Ÿ
                                                      ¾þþþþþþþþþþþþþþþþþþþþþþþþþþþþþþþþþþþþþþþþþþþþþþþþþþþþþþþþþþþþþþþþþþþþþ»
0001642 50E0 D000/9008_      00000 12427              LDOLDDSN PROC  LDWA
 USING  *,R7
 USING  LDWA-(4+36),R8
                                   12477
 00165C 4110 8028            00000 12478                       LA    R1,LDWA
 001660 5010 BCA4            00CA4 12479                       ST    R1,CPCWA            SAVE WORK AREA FOR CO-ROUTINE
                                   12480
 001664 94BF BD57      00D57       12481                       CLEAR CPFNCUR             DO NOT RESET CURRENT
 001668 5800 73CC/5810_      01A28 12488                       RDRNG OLDLOOP,(DESRTRN+LXCATRTN+DESABORT+UNPRST)
 001676 4780 703A            01696 12495                       IF    NZ,BEGIN            IF ATTN (ERR),  QUIT EXEC LOAD
 00167A 58E0 73C8/0DEE       01A24 12506  1                      ACALL CLREX
 001680 D703 B784 B784 00784 00784 12510  1                      CLEAR CP#XLOAD
 001686 D703 B788 B788 00788 00788 12517  1                      CLEAR CPRGLOAD
 00168C D703 B78C B78C 0078C 0078C 12524  1                      CLEAR CPRGFC
 001692 47F0 C7D6            007D6 12531  1                      B     CVERROR             EXIT VIA CVERROR
 001696                            12532                       END
                                   12536
 001696 1BFF                       12537                       CLEAR R15
 001698 18D8/9808 D004_            12541                       PEND
 DROP   LDWA-(4+36),R8
 DROP   *,R7
1EXEC     (EXEC2193) (12:44) (15MAR04) EXEC (old) Load Routines                                                             Page   34
0Current Usings:  (CP,R11) (CV,R12)
0Loc    Object Code    Addr1 Addr2  Stmt Lv Lineno    Source Statement           (Hibal 5, Asmedit 3.3)  HLASM R4.0  2004/03/15 12.44
+___    ______ ____    _____ _____  ____ __ ______    ______ _________
0                                  12567                       ¿þþþþþþþþþþþþþþþþþþþþþþþþþþþþþþþþþþþþþþþþþþþÜ
                                   12568                       Ÿ  LOAD EXEC FILE CO-ROUTINE !              Ÿ
                                   12569                       Ÿ  ON ENTRY: R1,R0 - LINE TEXT LOC, LENGTH  Ÿ
                                   12570                       Ÿ      CPLCNO - LINE NUMBER                 Ÿ
                                   12571                       ¾þþþþþþþþþþþþþþþþþþþþþþþþþþþþþþþþþþþþþþþþþþþ»
 0016A6 50E0 D000/9008_      00000 12572              OLDLOOP  PROC
 USING  *,R7
                                   12611
 0016C0 5860 BCA4            00CA4 12612                       L     R6,CPCWA
 USING  LDWA,R6                    12613                       USING LDWA,R6
                                   12622
                                   12623                       COMMENT                   MOVE INPUT LINE TO STACK
                                   12624                       COMMENT ,                      (OFF OF MOVABLE PAGE)
 0016C4 58F0 B73C            0073C 12625                       L     R15,CPLCNO
 0016C8 50F0 6008            00008 12626                       ST    R15,LDLNO
 0016CC 5000 600C            0000C 12627                       ST    R0,LDLEN
 0016D0 1830                       12628                       LR    R3,R0
 0016D2 0630/1233/4740_            12629                       MOVE  R3,LDLINE,@R1
                                   12667
                                   12668                       COMMENT                   NOW MOVE LINE TO EXEC FILE
 0016DE 58F0 B788            00788 12669                       L     R15,CPRGLOAD
 0016E2 5800 B784            00784 12670                       L     R0,CP#XLOAD
 0016E6 58E0 736C/0DEE       01A2C 12671                       VCALL XSETSET
 0016EC 58F0 B788            00788 12675                       L     R15,CPRGLOAD
 0016F0 5800 600C            0000C 12676                       L     R0,LDLEN
 0016F4 4110 6010            00010 12677                       LA    R1,LDLINE
 0016F8 4120 6008            00008 12678                       LA    R2,LDLNO
 0016FC 58E0 7370/0DEE       01A30 12679                       VCALL XPUT
 001702 47B0 7052            01712 12683                       IF    NEG,BEGIN
 001706 4110 744D/4100_      01B0D 12694  1                      ERROR 'Too many EXEC files loaded.'
 001712                            12701                       END
 001712 47D0 7058            01718 12705                       IF    POS,BEGIN
 001716 0000                       12716  1                      BOMB
 001718                            12718                       END
                                   12722
 001718 18D8/9808 D004_            12723                       PEND
 DROP   *,R7
 DROP   LDWA,R6                    12743                       DROP  R6
1EXEC     (EXEC2193) (12:44) (15MAR04) EXEC (old) Load Routines                                                             Page   35
0Current Usings:  (CP,R11) (CV,R12)
0Loc    Object Code    Addr1 Addr2  Stmt Lv Lineno    Source Statement           (Hibal 5, Asmedit 3.3)  HLASM R4.0  2004/03/15 12.44
+___    ______ ____    _____ _____  ____ __ ______    ______ _________
0                                  12751              ¿þþþþþþþþþþþþþþþþþþþþþþþþþþþþþþþþþþþþþþþþþþþþþþþþþþþþþþþþþþþþþþþþþþþþþÜ
                                   12752              Ÿ                                                                     Ÿ
                                   12753              Ÿ                                                                     Ÿ
                                   12754              Ÿ  LDOLDDSN - LOAD EXEC FILE (OLD)                                    Ÿ
                                   12755              Ÿ                                                                     Ÿ
                                   12756              Ÿ  ON ENTRY:                                                          Ÿ
                                   12757              Ÿ       CP#XLOAD - OLD EXEC SET NUMBER                                Ÿ
                                   12758              Ÿ      @CPRGEXEC - EXEC RECORD GROUP                                  Ÿ
                                   12759              Ÿ      @CPRGFC - FLOW INFO RECORD GROUP                               Ÿ
                                   12760              Ÿ                                                                     Ÿ
                                   12761              Ÿ  ON EXIT:                                                           Ÿ
                                   12762              Ÿ      R15 - CC=ZERO, EXEC FILE LOADED OK                             Ÿ
                                   12763              Ÿ            CC=NZ, EXEC IS EXTENDED, EXEC NOT LOADED                 Ÿ
                                   12764              Ÿ          .. ANY OTHER ERRORS (ATTN) EXIT VIA CVERROR                Ÿ
                                   12765              Ÿ                                                                     Ÿ
                                   12766              Ÿ  NOTE: IF EXTENDED EXEC IS ENCOUNTERED, WE ABORT EXEC LOAD          Ÿ
                                   12767              Ÿ       AND PASS XCALL COMMAND TO LOAD EXTENDED EXEC                  Ÿ
                                   12768              Ÿ                                                                     Ÿ
                                                      ¾þþþþþþþþþþþþþþþþþþþþþþþþþþþþþþþþþþþþþþþþþþþþþþþþþþþþþþþþþþþþþþþþþþþþþ»
0001726 50E0 D000/9008_      00000 12769              LDDSNCHK PROC  LDWA
 USING  *,R7
 USING  LDWA-(4+36),R8
                                   12819
 001740 4110 8028            00000 12820                       LA    R1,LDWA
 001744 5010 BCA4            00CA4 12821                       ST    R1,CPCWA            SAVE WORK AREA FOR CO-ROUTINE
 001748 9200 8028      00000       12822                       CLEAR LDFLAGS
 00174C D703 802C 802C 00004 00004 12829                       CLEAR LDLNCNT
                                   12836
 001752 94BF BD57      00D57       12837                       CLEAR CPFNCUR             DO NOT RESET CURRENT
 001756 5800 72E8/5810_      01A28 12844                       RDRNG CHKLOOP,(DESRTRN+LXCATRTN+DESABORT+UNPRST)
                                   12851
                                   12852                       COMMENT                   IF LOADED OK, CC=ZERO
 001764 12FF/4770 7034_            12853                       IF    ((R15,Z),AND,~LDXPROC),BEGIN
 001772 1BFF                       12881  1                      CLEAR R15
 001774                            12885                       END
                                   12889
                                   12890                       COMMENT                   IF EXEC IS XPROC,
 001774 7038/7038/47F0_01774 01768 12891                       ELSEIF LDXPROC,BEGIN      QUIT EXEC LOAD,
 001780 58E0 72E4/0DEE       01A24 12917  1                      ACALL CLREX
 001786 D703 B784 B784 00784 00784 12921  1                      CLEAR CP#XLOAD
 00178C D703 B788 B788 00788 00788 12928  1                      CLEAR CPRGLOAD
 001792 D703 B78C B78C 0078C 0078C 12935  1                      CLEAR CPRGFC
 001798 41F0 B050/58E0_      00050 12942  1                      TCLEAR                    CLEAR RANGE ABORT MESSAGE
 0017A2 41F0 0004            00004 12956  1                      LA    R15,4               RETURN CC=NZ
 0017A6                            12957                       END
                                   12961
 0017A6 706A/47F0 7086 017A6 0177E 12962                       ELSE  BEGIN               IF ATTN (ERR), QUIT EXEC LOAD
 0017AA 58E0 72E4/0DEE       01A24 12973  1                      ACALL CLREX
 0017B0 D703 B784 B784 00784 00784 12977  1                      CLEAR CP#XLOAD
 0017B6 D703 B788 B788 00788 00788 12984  1                      CLEAR CPRGLOAD
 0017BC D703 B78C B78C 0078C 0078C 12991  1                      CLEAR CPRGFC
 0017C2 47F0 C7D6            007D6 12998  1                      B     CVERROR             EXIT VIA CVERROR
 0017C6                            12999                       END
1EXEC     (EXEC2193) (12:44) (15MAR04) EXEC (old) Load Routines                                                             Page   36
0Current Usings:  (*,R7) (LDWA-(4+36),R8) (CP,R11) (CV,R12)
0Loc    Object Code    Addr1 Addr2  Stmt Lv Lineno    Source Statement           (Hibal 5, Asmedit 3.3)  HLASM R4.0  2004/03/15 12.44
+___    ______ ____    _____ _____  ____ __ ______    ______ _________
0                                  13003
 0017C6 18D8/9808 D004_            13004                       PEND
 DROP   LDWA-(4+36),R8
 DROP   *,R7
1EXEC     (EXEC2193) (12:44) (15MAR04) EXEC (old) Load Routines                                                             Page   37
0Current Usings:  (CP,R11) (CV,R12)
0Loc    Object Code    Addr1 Addr2  Stmt Lv Lineno    Source Statement           (Hibal 5, Asmedit 3.3)  HLASM R4.0  2004/03/15 12.44
+___    ______ ____    _____ _____  ____ __ ______    ______ _________
0                                  13030                       ¿þþþþþþþþþþþþþþþþþþþþþþþþþþþþþþþþþþþþþþþþÜ
                                   13031                       Ÿ  LOAD EXEC FILE CO-ROUTINE !           Ÿ
                                   13032                       Ÿ  ON ENTRY: R1,R0 - LINE TEXT LOC, LEN  Ÿ
                                   13033                       Ÿ      CPCLNO - LINE NUMBER              Ÿ
                                   13034                       ¾þþþþþþþþþþþþþþþþþþþþþþþþþþþþþþþþþþþþþþþþ»
 0017D4 50E0 D000/9008_      00000 13035              CHKLOOP  PROC
 USING  *,R7
 0017EE 5860 BCA4            00CA4 13074                       L     R6,CPCWA
 USING  LDWA,R6                    13075                       USING LDWA,R6
                                   13084
                                   13085                       COMMENT                   MOVE INPUT LINE TO STACK
                                   13086                       COMMENT ,                      (OFF OF MOVABLE PAGE)
 0017F2 58F0 B73C            0073C 13087                       L     R15,CPLCNO
 0017F6 50F0 6008            00008 13088                       ST    R15,LDLNO
 0017FA 5000 600C            0000C 13089                       ST    R0,LDLEN
 0017FE 1830                       13090                       LR    R3,R0
 001800 0630/1233/4740_            13091                       MOVE  R3,LDLINE,@R1
                                   13129
                                   13130                       COMMENT                   NOW MOVE LINE TO EXEC FILE
 00180C 58F0 B788            00788 13131                       L     R15,CPRGLOAD
 001810 5800 B784            00784 13132                       L     R0,CP#XLOAD
 001814 58E0 723E/0DEE       01A2C 13133                       VCALL XSETSET
 00181A 58F0 B788            00788 13137                       L     R15,CPRGLOAD
 00181E 5800 600C            0000C 13138                       L     R0,LDLEN
 001822 4110 6010            00010 13139                       LA    R1,LDLINE
 001826 4120 6008            00008 13140                       LA    R2,LDLNO
 00182A 58E0 7242/0DEE       01A30 13141                       VCALL XPUT
 001830 47B0 7052            01840 13145                       IF    NEG,BEGIN
 001834 4110 731F/4100_      01B0D 13156  1                      ERROR 'Too many EXEC files loaded.'
 001840                            13163                       END
 001840 47D0 7058            01846 13167                       IF    POS,BEGIN
 001844 0000                       13178  1                      BOMB
 001846                            13180                       END
                                   13184
                                   13185                       COMMENT                   CHECK IF EXTENDED EXEC
                                   13186                       COMMENT                   R1,R0 - LINE LOC, LEN
                                   13187                       COMMENT                   R6 - LDWA, PASS COMMON WORK AREA
 001846 58E0 724E/0DEE       01A3C 13188                       ACALL CHKXPROC            CHECK IF XPROC
 00184C 9180 6000/47E0_00000       13192                       IF    LDXPROC,BEGIN       IF XPROC, ABORT RANGE, ETC..
 001854 9610 BD5A      00D5A       13207  1                      SET   CPFRQUIT            ABORT RANGE
 001858                            13213                       END
                                   13217
 001858 18D8/9808 D004_            13218                       PEND
 DROP   *,R7
 DROP   LDWA,R6                    13238                       DROP  R6
1EXEC     (EXEC2193) (12:44) (15MAR04) EXEC (old) Load Routines                                                             Page   38
0Current Usings:  (CP,R11) (CV,R12)
0Loc    Object Code    Addr1 Addr2  Stmt Lv Lineno    Source Statement           (Hibal 5, Asmedit 3.3)  HLASM R4.0  2004/03/15 12.44
+___    ______ ____    _____ _____  ____ __ ______    ______ _________
0                                  13246              ¿þþþþþþþþþþþþþþþþþþþþþþþþþþþþþþþþþþþþþþþþþþþþþþþþþþþþþþþþþþþþþþþþþþþþþÜ
                                   13247              Ÿ                                                                     Ÿ
                                   13248              Ÿ                                                                     Ÿ
                                   13249              Ÿ  CHKXPROC - CHECK IF FIRST STATEMENT IS XPROC                       Ÿ
                                   13250              Ÿ                                                                     Ÿ
                                   13251              Ÿ  ON ENTRY:                                                          Ÿ
                                   13252              Ÿ       R0 - LENGTH OF EXEC LINE                                      Ÿ
                                   13253              Ÿ       R1 - LOCATION OF EXEC LINE                                    Ÿ
                                   13254              Ÿ       R6 - COMMON WORK AREA                                         Ÿ
                                   13255              Ÿ                                                                     Ÿ
                                   13256              Ÿ  ON EXIT:                                                           Ÿ
                                   13257              Ÿ      LDXPROC FLAG SET IF XPROC                                      Ÿ
                                   13258              Ÿ      R15 - CC=ZERO                                                  Ÿ
                                   13259              Ÿ                                                                     Ÿ
                                   13260              Ÿ                                                                     Ÿ
                                                      ¾þþþþþþþþþþþþþþþþþþþþþþþþþþþþþþþþþþþþþþþþþþþþþþþþþþþþþþþþþþþþþþþþþþþþþ»
0001866 50E0 D000/9008_      00000 13261              CHKXPROC PROC
 USING  *,R7
                                   13300
 001880 5860 BCA4            00CA4 13301                       L     R6,CPCWA
 USING  LDWA,R6                    13302                       USING LDWA,R6
                                   13311
                                   13312                       COMMENT                   IF HAVE NOT YET SEEN 1ST LINE
 001884 9140 6000/4710_00000       13313                       IF    ~LDFIRST,BEGIN      WE CHECK IT OUT NOW
                                   13328  1
                                   13329  1                      COMMENT                   SCAN LINE
 00188C 58E0 B08C/501E_      0008C 13330  1                      SCINIT (R1),(R0)
 00189A 5810 B08C/1B00_      0008C 13350  1                      SCAN  ,
 0018E8 58E0 71C4/0DEE       01A44 13381  1                      SCANCHK
 0018EE 5810 B08C/4111_      0008C 13386  1                      SCUPTOK R1                R1,R0 - TOKEN IN UPPER CASE
 0018F6 1200/4780 708E             13390  1                      IF    (R0,NZ),BEGIN
 0018FC 9640 6000      00000       13404  2                        SET   LDFIRST             WE HAVE READ OUR FIRST LINE
 001900 D507 7158 1000_019D8 00000 13410  2                        IF    (@R1,EQ,'XPROC   '),BEGIN
 00190A 9680 6000      00000       13426  3                          SET   LDXPROC
 00190E                            13432  2                        END
 00190E                            13436  1                      END   , OF NON NULL SCAN
 00190E                            13440                       END   , OF HAVE NOT YET READ FIRST
                                   13444
 00190E 1BFF                       13445                       CLEAR R15
 001910 18D8/9808 D004_            13449                       PEND
 DROP   *,R7
 DROP   LDWA,R6                    13469                       DROP  R6
1EXEC     (EXEC2193) (12:44) (15MAR04) EXEC (old) Load Routines                                                             Page   39
0Current Usings:  (CP,R11) (CV,R12)
0Loc    Object Code    Addr1 Addr2  Stmt Lv Lineno    Source Statement           (Hibal 5, Asmedit 3.3)  HLASM R4.0  2004/03/15 12.44
+___    ______ ____    _____ _____  ____ __ ______    ______ _________
0                                  13477              ¿þþþþþþþþþþþþþþþþþþþþþþþþþþþþþþþþþþþþþþþþþþþþþþþþþþþþþþþþþþþþþþþþþþþþþÜ
                                   13478              Ÿ                                                                     Ÿ
                                   13479              Ÿ                                                                     Ÿ
                                   13480              Ÿ  CALXPROC - WE HAVE EXTENDED EXEC, XCALL IT !                       Ÿ
                                   13481              Ÿ                                                                     Ÿ
                                   13482              Ÿ  ON ENTRY:                                                          Ÿ
                                   13483              Ÿ       DSNWADSN - EXEC FILE NAME                                     Ÿ
                                   13484              Ÿ       R0,R1 - EXEC PARM                                             Ÿ
                                   13485              Ÿ                                                                     Ÿ
                                   13486              Ÿ  ON EXIT:                                                           Ÿ
                                   13487              Ÿ       CPCMD, CPCMDLEN - LOC, LEN OF NEW COMMAND                     Ÿ
                                   13488              Ÿ       WE EXIT BY CALLING EDTCOM TO EXCUTE XCALL COMMAND.            Ÿ
                                   13489              Ÿ                                                                     Ÿ
                                   13490              Ÿ                                                                     Ÿ
                                   13491              Ÿ                                                                     Ÿ
                                                      ¾þþþþþþþþþþþþþþþþþþþþþþþþþþþþþþþþþþþþþþþþþþþþþþþþþþþþþþþþþþþþþþþþþþþþþ»
0000000                00000 000EB 13492              CLXWA    RECORD BEGIN
 000000                            13500  1           CLXCMD     DS    CL(L'CPCMD)         FORMATTING AREA FOR XCALL CMD
 0000EB                000EB 000EB 13501                       END
                                   13510              *
                                   13511              *
 00191E 50E0 D000/9008_      00000 13512              CALXPROC PROC   CLXWA
 USING  *,R7
 USING  CLXWA-(4+36),R8
                                   13562
                                   13563                       COMMENT                   XCALL <DSN NAME> / <PARM>
                                   13564
                                   13565                       COMMENT                   INIT CP COMMAND AREA
 001938 D2EA 8028 C4D8 00000 004D8 13566                       MVC   CLXCMD,CVBLANKS
 00193E D205 8028 713C 00000 01A74 13567                       MVC   CLXCMD(6),=CL6'XCALL '
                                   13568
                                   13569                       COMMENT                   MOVE IN <DSN NAME>[#LIB NAME]
 001944 5860 BE54            00E54 13570                       L     R6,CPFINFOP
 USING  FFINFO,R6                  13571                       USING FFINFO,R6
 001948 4110 6218/5800_      00218 13580                       SETMSG FFRNAME,L:FFRNAMEL  FULL NAME
 001950 1200/4770 7026             13594                       IF    (R0,Z),BEGIN        IF NONE, SPECIFIED NAME
 001956 4110 600C/5800_      0000C 13608  1                      SETMSG FFNAME,L:FFNAMEL    ** DEBUG ** CNAME SHOULD BE NZ!
 00195E                            13622                       END
 DROP   FFINFO,R6                  13626                       DROP  R6
 00195E 4120 802E            00006 13633                       LA    R2,CLXCMD+6
 001962 58E0 7110/0DEE       01A48 13634                       VCALL RETLIBMB
 001968 1A20                       13638                       AR    R2,R0
 00196A 9240 2000      00000       13639                       MVI   @R2,C' '
 00196E 5E20 7114            01A4C 13640                       INCR  R2                  R2 - END OF NAME +1 FOR BLANK
                                   13643
                                   13644                       COMMENT                   ADD PARM
 001972 9261 2000      00000       13645                       MVI   @R2,C'/'
 001976 4122 0002            00002 13646                       LA    R2,2(R2)
 00197A 4140 00AB            000AB 13647                       LA    R4,L'CLXCMD-6-44-8-6 MAX PARM SIZE
 00197E 1904/47D0 7058             13648                       IF    (R0,GT,R4),BEGIN
 001984 4110 7142/4100_      01A7A 13663  1                      ERROR 'Parameter too large.  Command length overflow.'
 001990                            13670                       END
 001990 1830                       13674                       LR    R3,R0
1EXEC     (EXEC2193) (12:44) (15MAR04) EXEC (old) Load Routines                                                             Page   40
0Current Usings:  (*,R7) (CLXWA-(4+36),R8) (CP,R11) (CV,R12)
0Loc    Object Code    Addr1 Addr2  Stmt Lv Lineno    Source Statement           (Hibal 5, Asmedit 3.3)  HLASM R4.0  2004/03/15 12.44
+___    ______ ____    _____ _____  ____ __ ______    ______ _________
0001992 0630/1233/4740_            13675                       MOVE  R3,@R2,@R1
                                   13713
                                   13714                       COMMENT                   CALCULATE CMD LENGTH,
 00199E 1A20                       13715                       AR    R2,R0
 0019A0 4140 8028            00000 13716                       LA    R4,CLXCMD
 0019A4 1B24                       13717                       SR    R2,R4
 0019A6 4020 B240            00240 13718                       STH   R2,CPCMDLEN
 0019AA D2EA B242 8028 00242 00000 13719                       MVC   CPCMD,CLXCMD        MOVE COMMAND TO CPCMD
                                   13720
                                   13721                       COMMENT                   EXECUTE COMMAND
 0019B0 94EF B477      00477       13722                       CLEAR CPFTYPED            COMMAND NOT TYPED
 0019B4 4110 B242            00242 13729                       LA    R1,CPCMD            R1,R0 - COMMAND LOC, LEN
 0019B8 4800 B240            00240 13730                       LH    R0,CPCMDLEN
 0019BC 58E0 7118/0DEE       01A50 13731                       VCALL EDTCOM              EXECUTE COMMAND, DOES NOT RETURN
                                   13735
 0019C2 0000                       13736                       BOMB  ,                   NEVER HIT, WE EXIT ABOVE
 0019C4 18D8/9808 D004_            13738                       PEND
 DROP   CLXWA-(4+36),R8
 DROP   *,R7
1EXEC     (EXEC2193) (12:44) (15MAR04) EXEC (old) Load Routines                                                             Page   41
0Current Usings:  (CP,R11) (CV,R12)
0Loc    Object Code    Addr1 Addr2  Stmt Lv Lineno    Source Statement           (Hibal 5, Asmedit 3.3)  HLASM R4.0  2004/03/15 12.44
+___    ______ ____    _____ _____  ____ __ ______    ______ _________
0                                  13764                       QLTORG
1EXEC     (EXEC2193) (12:44) (15MAR04) EXEC File Related Commands                                                           Page   42
0Current Usings:  (CP,R11) (CV,R12)
0Loc    Object Code    Addr1 Addr2  Stmt Lv Lineno    Source Statement           (Hibal 5, Asmedit 3.3)  HLASM R4.0  2004/03/15 12.44
+___    ______ ____    _____ _____  ____ __ ______    ______ _________
0                                  13809              ¿þþþþþþþþþþþþþþþþþþþþþþþþþþþþþþþþþþþþþþþþþþþþþþþþþþþþþþþþþþþþþþþþþþþþþÜ
                                   13810              Ÿ                                                                     Ÿ
                                   13811              Ÿ                                                                     Ÿ
                                   13812              Ÿ  XPAUSE - PAUSE EXEC (NEW OR OLD)                                   Ÿ
                                   13813              Ÿ                                                                     Ÿ
                                   13814              Ÿ  ON ENTRY:                                                          Ÿ
                                   13815              Ÿ       SCANCB - 'XPAUSE' SCANNED                                     Ÿ
                                   13816              Ÿ                                                                     Ÿ
                                   13817              Ÿ                                                                     Ÿ
                                   13818              Ÿ                                                                     Ÿ
                                                      ¾þþþþþþþþþþþþþþþþþþþþþþþþþþþþþþþþþþþþþþþþþþþþþþþþþþþþþþþþþþþþþþþþþþþþþ»
0001B3A 50E0 D000/9008_      00000 13819              XPAUSE   XPROC ,
 USING  *,R7
                                   13859
                                   13860                       COMMENT                   SCAN/PROCESS OPTIONS
 001B54 5810 B08C/1B00_      0008C 13861                       SCAN EXPPRT
 001BA6 58E0 7714/0DEE       02268 13893                       SCANCHK
                                   13898
                                   13899                       COMMENT                   PAUSE !
 001BAC 58E0 7718/0DEE       0226C 13900                       ACALL EXPAUSE             ---> DOES NOT RETURN
                                   13904
 001BB2 18D8/9808 D004_            13905                       PEND  ,                   WE EXIT ABOVE,
 DROP   *,R7
-001BC0 D4E2C74040404040_          13926              EXPPRT   SCKW  MSG,EXPMSG,P
 001BE8 4040404040404040_          13941                       SCKW  ,V(SCNINVAL)
-001C10 50E0 D000/9008_      00000 13957              EXPMSG   PROC  ,
 USING  *,R7
 001C2A 58E0 7646/0DEE       02270 13996                       VCALL DEQUOTE             DEQUOTE MESSAGE
 001C30 47B0 7026            01C50 14000                       IF    NEG,BEGIN
 001C34 41F0 B050/58E0_      00050 14011  1                      TSEG  (R1),(R0)
 001C3E D207 B886 75FE_00886 02228 14035  1                      ERROR ': invalid; quotes required.',,SYNTAX
 001C50                            14043                       END
 001C50 41F0 B050/58E0_      00050 14047                       TSEG  (R1),(R0)           SEG MESSAGE
 001C5A 1BFF                       14071                       CLEAR R15
 001C5C 18D8/9808 D004_            14075                       PEND
 DROP   *,R7
1EXEC     (EXEC2193) (12:44) (15MAR04) EXEC File Related Commands                                                           Page   43
0Current Usings:  (CP,R11) (CV,R12)
0Loc    Object Code    Addr1 Addr2  Stmt Lv Lineno    Source Statement           (Hibal 5, Asmedit 3.3)  HLASM R4.0  2004/03/15 12.44
+___    ______ ____    _____ _____  ____ __ ______    ______ _________
0                                  14096              ¿þþþþþþþþþþþþþþþþþþþþþþþþþþþþþþþþþþþþþþþþþþþþþþþþþþþþþþþþþþþþþþþþþþþþþÜ
                                   14097              Ÿ                                                                     Ÿ
                                   14098              Ÿ                                                                     Ÿ
                                   14099              Ÿ  XRESET - RESET EXEC (EXTENDED OR OLD)                              Ÿ
                                   14100              Ÿ                                                                     Ÿ
                                   14101              Ÿ  ON ENTRY:                                                          Ÿ
                                   14102              Ÿ       SCANCB - 'XRESET' SCANNED                                     Ÿ
                                   14103              Ÿ                                                                     Ÿ
                                   14104              Ÿ                                                                     Ÿ
                                   14105              Ÿ                                                                     Ÿ
                                                      ¾þþþþþþþþþþþþþþþþþþþþþþþþþþþþþþþþþþþþþþþþþþþþþþþþþþþþþþþþþþþþþþþþþþþþþ»
0001C6A 50E0 D000/9008_      00000 14106              XRESET   XPROC
 USING  *,R7
                                   14146
                                   14147                       COMMENT                   RESET EXEC
 001C84 58E0 75F4/0DEE       02278 14148                       ACALL EXRESET
 001C8A 58E0 75F8/0DEE       0227C 14152                       ACALL EXREINIT            MAKE 'XRESET ALL' THE DEFAULT
                                   14156
                                   14157                       COMMENT                   SCAN/PROCESS OPTIONS
 001C90 5810 B08C/1B00_      0008C 14158                       SCAN  EXRPRT
 001CE2 58E0 75E4/0DEE       02268 14190                       SCANCHK
                                   14195
                                   14196                       COMMENT                   PAUSE !
 001CE8 58E0 7600/0DEE       02284 14197                       ACALL SETPAUSE
 001CEE 47F0 C7DE            007DE 14201                       B     CVNEXT
                                   14202
 001CF2 18D8/9808 D004_            14203                       PEND  ,                   WE EXIT ABOVE
 DROP   *,R7
-001D00 D4E2C74040404040_          14224              EXRPRT   SCKW  MSG,EXRMSG,P
 001D28 C1D3D34040404040_          14239                       SCKW  ALL,EXRALL
 001D50 4040404040404040_          14254                       SCKW  ,V(SCNINVAL)
-001D78 50E0 D000/9008_      00000 14270              EXRMSG   PROC  ,                   XRESET MSG='...'
 USING  *,R7
 001D92 58E0 74DE/0DEE       02270 14309                       VCALL DEQUOTE             DEQUOTE MESSAGE
 001D98 47B0 7026            01DB8 14313                       IF    NEG,BEGIN
 001D9C 41F0 B050/58E0_      00050 14324  1                      TSEG  (R1),(R0)
 001DA6 D207 B886 7496_00886 02228 14348  1                      ERROR ': invalid; quotes required.',,SYNTAX
 001DB8                            14356                       END
 001DB8 41F0 B050/58E0_      00050 14360                       TSEG  (R1),(R0)           SEG MESSAGE
 001DC2 1BFF                       14384                       CLEAR R15
 001DC4 18D8/9808 D004_            14388                       PEND
 DROP   *,R7
-001DD2 50E0 D000/9008_      00000 14409              EXRALL   PROC  ,                   EXEC RESET ALL
 USING  *,R7
 001DEC 58E0 7490/0DEE       0227C 14448                       ACALL EXREINIT            REINITIALIZE EXEC FILES
 001DF2 1BFF                       14452                       CLEAR R15
 001DF4 18D8/9808 D004_            14456                       PEND
1EXEC     (EXEC2193) (12:44) (15MAR04) EXEC File Related Commands                                                           Page   44
0Current Usings:  (CP,R11) (CV,R12)
0Loc    Object Code    Addr1 Addr2  Stmt Lv Lineno    Source Statement           (Hibal 5, Asmedit 3.3)  HLASM R4.0  2004/03/15 12.44
+___    ______ ____    _____ _____  ____ __ ______    ______ _________
0DROP   *,R7
1EXEC     (EXEC2193) (12:44) (15MAR04) EXEC File Related Commands                                                           Page   45
0Current Usings:  (CP,R11) (CV,R12)
0Loc    Object Code    Addr1 Addr2  Stmt Lv Lineno    Source Statement           (Hibal 5, Asmedit 3.3)  HLASM R4.0  2004/03/15 12.44
+___    ______ ____    _____ _____  ____ __ ______    ______ _________
0                                  14477              ¿þþþþþþþþþþþþþþþþþþþþþþþþþþþþþþþþþþþþþþþþþþþþþþþþþþþþþþþþþþþþþþþþþþþþþÜ
                                   14478              Ÿ                                                                     Ÿ
                                   14479              Ÿ                                                                     Ÿ
                                   14480              Ÿ  XGO - RESTART EXEC COMMAND                                         Ÿ
                                   14481              Ÿ                                                                     Ÿ
                                   14482              Ÿ  ON ENTRY:                                                          Ÿ
                                   14483              Ÿ       SCANCB - 'XGO' SCANNED                                        Ÿ
                                   14484              Ÿ                                                                     Ÿ
                                   14485              Ÿ                                                                     Ÿ
                                   14486              Ÿ                                                                     Ÿ
                                                      ¾þþþþþþþþþþþþþþþþþþþþþþþþþþþþþþþþþþþþþþþþþþþþþþþþþþþþþþþþþþþþþþþþþþþþþ»
0001E02 50E0 D000/9008_      00000 14487              XGO      XPROC
 USING  *,R7
                                   14527
                                   14528                       COMMENT                   IF IN EXEC, WHY USE IT ?
 001E1C 9180 B758/47E0_00758       14529                       IF    CPFEXEC,BEGIN
 001E24 4110 74EF/4100_      0230B 14544  1                      ERROR 'XGO: command invalid from within EXEC file.'
 001E30                            14551                       END
                                   14555
                                   14556                       COMMENT                   CHECK FOR EXEC FILE
 001E30 58E0 746C/0DEE       02288 14557                       ACALL EXECHK
                                   14561
                                   14562                       COMMENT                   RESTART EXEC
 001E36 9680 B758      00758       14563                       SET   CPFEXEC             TURN ON EXEC MODE FLAG
 001E3A 47F0 C7DE            007DE 14569                       B     CVNEXT              AND GO GET NEXT EXEC COMMAND
                                   14570
 001E3E 18D8/9808 D004_            14571                       PEND
 DROP   *,R7
1EXEC     (EXEC2193) (12:44) (15MAR04) EXEC File Related Commands                                                           Page   46
0Current Usings:  (CP,R11) (CV,R12)
0Loc    Object Code    Addr1 Addr2  Stmt Lv Lineno    Source Statement           (Hibal 5, Asmedit 3.3)  HLASM R4.0  2004/03/15 12.44
+___    ______ ____    _____ _____  ____ __ ______    ______ _________
0                                  14592              ***
                                   14593              ***  XCMDAREA is the format of the area pointed to by CPXCMDP.
                                   14594              ***  Warning:  COMM and FUNC reference this area without using a
                                   14595              ***            mapping DSECT.
                                   14596              ***
 000000                00000 000ED 14597              XCMDAREA RECORD BEGIN
 000000                            14605  1           XCMDLEN    DS    H                   Length of text which follows
 000002                            14606  1           XCMDCMD    DS    XL(L'CPCMD)         Command text
 0000ED                000ED 000ED 14607                       END
-                                  14617              ¿þþþþþþþþþþþþþþþþþþþþþþþþþþþþþþþþþþþþþþþþþþþþþþþþþþþþþþþþþþþþþþþþþþþþþÜ
                                   14618              Ÿ                                                                     Ÿ
                                   14619              Ÿ  XCOMMAND -- Set pending command.                                   Ÿ
                                   14620              Ÿ                                                                     Ÿ
                                                      ¾þþþþþþþþþþþþþþþþþþþþþþþþþþþþþþþþþþþþþþþþþþþþþþþþþþþþþþþþþþþþþþþþþþþþþ»
0001E4C 50E0 D000/9008_      00000 14621              XCOMYUCK XPROC
 USING  *,R7
                                   14661                       ¿þþþþþþþþþþþþþþþþþþþþþþþþþþþþþþþþþþþþþþÜ
                                   14662                       Ÿ  Get area to save XCOMMAND text in.  Ÿ
                                   14663                       ¾þþþþþþþþþþþþþþþþþþþþþþþþþþþþþþþþþþþþþþ»
 001E66 5860 B8C8/1266_      008C8 14664                       IF    ('LT R6,CPXCMDP',Z),BEGIN  Get XCMDAREA...
 001E70 4100 00ED            000ED 14680  1                      LA    R0,L'XCMDAREA
 001E74 58E0 7426/0DEE       0228C 14681  1                      VCALL GETCORE
 001E7A 1861                       14685  1                      LR    R6,R1
 001E7C 5060 B8C8            008C8 14686  1                      ST    R6,CPXCMDP          Save XCMD ptr
 001E80                            14687                       END
                                   14691
 USING  XCMDAREA,R6                14692                       USING XCMDAREA,R6
 001E80 D7EC 6000 6000 00000 00000 14701                       CLEAR XCMDAREA
                                   14708                       ¿þþþþþþþþþþþþþþþþþþþþþþþþþþþþþþþþþþþþÜ
                                   14709                       Ÿ  Get text after the command verb.  Ÿ
                                   14710                       ¾þþþþþþþþþþþþþþþþþþþþþþþþþþþþþþþþþþþþ»
 001E86 58E0 B08C/581E_      0008C 14711                       SCINFO
 001E94 58E0 742A/0DEE       02290 14720                       VCALL LRTRIM
                                   14724                       ¿þþþþþþþþþþþþþþþþþþþþþþþþþþþþþþþþþþþþþþþþþþþþþþþþþþþÜ
                                   14725                       Ÿ  Nothing means reset any previous XCOMMAND text.  Ÿ
                                   14726                       ¾þþþþþþþþþþþþþþþþþþþþþþþþþþþþþþþþþþþþþþþþþþþþþþþþþþþ»
 001E9A 1200/4720 704A             14727                       IF    (R0,NP),BEGIN       No command, free XCMDAREA...
 001EA0 4110 6000            00000 14741  1                      LA    R1,XCMDAREA
 001EA4 58E0 742E/0DEE       02294 14742  1                      VCALL FREECORE            Free it
 001EAA D703 B8C8 B8C8 008C8 008C8 14746  1                      CLEAR CPXCMDP
 001EB0                            14753                       END
                                   14757                       ¿þþþþþþþþþþþþþþþþþþþþþþþþþþþþþþþþÜ
                                   14758                       Ÿ  Save new command to execute.  Ÿ
                                   14759                       ¾þþþþþþþþþþþþþþþþþþþþþþþþþþþþþþþþ»
 001EB0 704E/47F0 706C 01EB0 01E9E 14760                       ELSE  BEGIN               Save command text...
 001EB4 5900 7432/47D0_      02298 14771  1                      CEIL  R0,L'CPCMD
 001EC0 4000 6000            00000 14790  1                      STH   R0,XCMDLEN
 001EC4 18F0                       14791  1                      LR    R15,R0
 001EC6 06F0/12FF/4740_            14792  1                      MOVE  R15,XCMDCMD,@R1
 001ED2                            14830                       END
                                   14834
1EXEC     (EXEC2193) (12:44) (15MAR04) EXEC File Related Commands                                                           Page   47
0Current Usings:  (XCMDAREA,R6) (*,R7) (CP,R11) (CV,R12)
0Loc    Object Code    Addr1 Addr2  Stmt Lv Lineno    Source Statement           (Hibal 5, Asmedit 3.3)  HLASM R4.0  2004/03/15 12.44
+___    ______ ____    _____ _____  ____ __ ______    ______ _________
0001ED2 47F0 C7DE            007DE 14835                       B     CVNEXT
                                   14836
 001ED6 18D8/9808 D004_            14837                       PEND
 DROP   *,R7
 DROP   XCMDAREA,R6                14857                       DROP  XCMDAREA
1EXEC     (EXEC2193) (12:44) (15MAR04) EXEC File Related Commands                                                           Page   48
0Current Usings:  (CP,R11) (CV,R12)
0Loc    Object Code    Addr1 Addr2  Stmt Lv Lineno    Source Statement           (Hibal 5, Asmedit 3.3)  HLASM R4.0  2004/03/15 12.44
+___    ______ ____    _____ _____  ____ __ ______    ______ _________
0                                  14866              ¿þþþþþþþþþþþþþþþþþþþþþþþþþþþþþþþþþþþþþþþþþþþþþþþþþþþþþþþþþþþþþþþþþþþþþÜ
                                   14867              Ÿ                                                                     Ÿ
                                   14868              Ÿ                                                                     Ÿ
                                   14869              Ÿ  SHOWEXEC -- SHOW EXEC command.                                     Ÿ
                                   14870              Ÿ  EXECDISP - subroutine (called by SHOW OPTIONS).                    Ÿ
                                   14871              Ÿ                                                                     Ÿ
                                   14872              Ÿ                                                                     Ÿ
                                                      ¾þþþþþþþþþþþþþþþþþþþþþþþþþþþþþþþþþþþþþþþþþþþþþþþþþþþþþþþþþþþþþþþþþþþþþ»
0001EE4 50E0 D000/9008_      00000 14873              SHOWEXEC XPROC
 USING  *,R7
 001EFE 5810 B08C/1B00_      0008C 14913                       SCAN  SHOXPRT             Allow collect options
 001F50 58E0 736A/0DEE       02268 14945                       SCANCHK
 001F56 58E0 73A2/0DEE       022A0 14950                       ACALL EXECDISP
 001F5C 47F0 C7DE            007DE 14954                       B     CVNEXT
 001F60 18D8/9808 D004_            14955                       PEND
 DROP   *,R7
 001F70 4040404040404040_          14975              SHOXPRT  SCKW  ,V(COLLPSH),(PUSH,END)
-001F98 50E0 D000/9008_      00000 14991              EXECDISP XPROC
 USING  *,R7
 001FB2 9108 B84C/4710_0084C       15031                       IF    ~CPFLOG,'TSEG "NO"'
 001FCC 4110 7384/4100_      02336 15069                       TSEG  'LOG',,B
                                   15087
 001FDE D601 B7E0 B7E0_007E0 007E0 15088                       IF    (CPLIMIT,Z),'SETMSG "NOLIMIT"'
 001FF0 7042/47F0 7064_01FF0 01FE6 15113                       ELSE  'TSEG "LIMIT="; BTD CPDOUB,0,LH:CPLIMIT'
 002016 41F0 B050/58E0_      00050 15166                       TSEG  (R1),(R0),B
 002020 4110 7330/4100_      022E2 15190                       TSEG  '- EXEC Options',,WR
 002032 4770 C7DA            007DA 15208                       BNZ   CVABORT
 002036 18D8/9808 D004_            15209                       PEND
 DROP   *,R7
1EXEC     (EXEC2193) (12:44) (15MAR04) EXEC File Related Commands                                                           Page   49
0Current Usings:  (CP,R11) (CV,R12)
0Loc    Object Code    Addr1 Addr2  Stmt Lv Lineno    Source Statement           (Hibal 5, Asmedit 3.3)  HLASM R4.0  2004/03/15 12.44
+___    ______ ____    _____ _____  ____ __ ______    ______ _________
0                                  15230              ¿þþþþþþþþþþþþþþþþþþþþþþþþþþþþþþþþþþþþþþþþþþþþþþþþþþþþþþþþþþþþþþþþþþþþþÜ
                                   15231              Ÿ                                                                     Ÿ
                                   15232              Ÿ                                                                     Ÿ
                                   15233              Ÿ  CLEAR OLD EXEC FILE                                                Ÿ
                                   15234              Ÿ                                                                     Ÿ
                                   15235              Ÿ  CLEARS ONLY OLD EXEC FILES !!  NEW EXEC FILES MAY NOT              Ÿ
                                   15236              Ÿ  BE CLEARED !!  ONLY EXITED.                                        Ÿ
                                   15237              Ÿ                                                                     Ÿ
                                   15238              Ÿ                                                                     Ÿ
                                                      ¾þþþþþþþþþþþþþþþþþþþþþþþþþþþþþþþþþþþþþþþþþþþþþþþþþþþþþþþþþþþþþþþþþþþþþ»
0002044 50E0 D000/9008_      00000 15239              CLREX    XPROC
 USING  *,R7
                                   15279
                                   15280                       COMMENT                   EXTENDED EXEC MAY NOT BE CLEARED
 00205E 9501 B759/4770_00759       15281                       IF    CPFXTEND,BEGIN
 002066 4110 72E2/4100_      02340 15296  1                      ERROR 'Extended EXEC files may not be cleared.'
 002072                            15303                       END
                                   15307
                                   15308                       COMMENT                   DELETE OLD EXEC RECORD SET
 002072 41F0 B4A4            004A4 15309                       LA    R15,CPEXEC
 002076 4100 0002            00002 15310                       LA    R0,CP#XOLD
 00207A 58E0 7252/0DEE       022B0 15311                       VCALL XDELSET
 002080 41F0 B4C4            004C4 15315                       LA    R15,CPFLOW
 002084 4100 0002            00002 15316                       LA    R0,CP#XOLD
 002088 58E0 7252/0DEE       022B0 15317                       VCALL XDELSET
                                   15321
 00208E D203 B75C 7256 0075C 022B4 15322                       MVC   CPEXLINE,=F'-1000'  NO CURRENT EXEC LINENO
                                   15323
 002094 18D8/9808 D004_            15324                       PEND  ,
 DROP   *,R7
1EXEC     (EXEC2193) (12:44) (15MAR04) EXEC File Related Commands                                                           Page   50
0Current Usings:  (CP,R11) (CV,R12)
0Loc    Object Code    Addr1 Addr2  Stmt Lv Lineno    Source Statement           (Hibal 5, Asmedit 3.3)  HLASM R4.0  2004/03/15 12.44
+___    ______ ____    _____ _____  ____ __ ______    ______ _________
0                                  15345              ¿þþþþþþþþþþþþþþþþþþþþþþþþþþþþþþþþþþþþþþþþþþþþþþþþþþþþþþþþþþþþþþþþþþþþþÜ
                                   15346              Ÿ                                                                     Ÿ
                                   15347              Ÿ                                                                     Ÿ
                                   15348              Ÿ  RESTORE -- RESTORE COMMAND.                                        Ÿ
                                   15349              Ÿ                                                                     Ÿ
                                   15350              Ÿ                                                                     Ÿ
                                                      ¾þþþþþþþþþþþþþþþþþþþþþþþþþþþþþþþþþþþþþþþþþþþþþþþþþþþþþþþþþþþþþþþþþþþþþ»
0000000                00000 000EF 15351              RSWA     RECORD BEGIN
 000000                            15359  1           RSLNO      DS    F                   LINE NUMBER
                                   15360  1           RSLINE     DS    XL(&LINESZ)         LINE BUFFER
 000004                                   1          +RSLINE     DS    XL(235)             LINE BUFFER
 0000EF                000EF 000EF 15361                       END
                                   15370              *
                                   15371              *
 0020A2 50E0 D000/9008_      00000 15372              RESTORE  XPROC RSWA
 USING  *,R7
 USING  RSWA-(4+36),R8
                                   15423
                                   15424                       COMMENT                   EXTENDED EXECS MAY NOT BE RESTORED
 0020BC 9501 B759/4770_00759       15425                       IF    CPFXTEND,BEGIN
 0020C4 4110 7174/4100_      02230 15440  1                      ERROR 'Extended EXEC files may not be restored.'
 0020D0                            15447                       END
                                   15451                       COMMENT                   IF BREAK IN EXTEND EXEC,
 0020D0 D503 71FC B778_022B8 00778 15452                       IF    ((CP#XSET,NE,=A(CP#XOLD)),AND,(CP#XSET,NE,0)),BEGIN
 0020E4 4110 7174/4100_      02230 15486  1                      ERROR 'Extended EXEC files may not be restored.'
 0020F0                            15493                       END
 0020F0 D503 7168 B778_02224 00778 15497                       IF    (CP#XSET,EQ,0),BEGIN  WEIRD CASE, SHOULD NOT OCCUR
 0020FA 0000                       15515  1                      BOMB
 0020FC                            15517                       END
                                   15521
                                   15522                       COMMENT                   IF NO EXEC FILE, ERROR
 0020FC 58E0 7200/0DEE       022BC 15523                       ACALL CHKXOLD
 002102 4770 7062            0211E 15527                       IF    Z,BEGIN
 002106 58E0 71C8/0DEE       02284 15538  1                      ACALL SETPAUSE
 00210C D207 B886 719C_00886 02258 15542  1                      ERROR 'No EXEC file.',,NOEXEC
 00211E                            15550                       END
                                   15554
                                   15555                       COMMENT                   SCAN RESTORE OPTIONS
 00211E 5810 B08C/1B00_      0008C 15556                       SCAN  RESTBL1             SCAN RESTORE OPTIONS
 002170 58E0 71AC/0DEE       02268 15588                       SCANCHK
                                   15593                       COMMENT
 002176 58E0 7208/0DEE       022C4 15594                       VCALL CLRTEXT             CLEAR ACTIVE FILE IF NECES
                                   15598
                                   15599                       COMMENT                   COPY EXEC TO ACTIVE
 00217C D703 8028 8028 00000 00000 15600                       CLEAR RSLNO
 002182 4110 802C            00004 15607                       LA    R1,RSLINE
 002186 4120 8028            00000 15608                       LA    R2,RSLNO
 00218A 58E0 720C/0DEE       022C8 15609                       ACALL EXFRST              GET FIRST EXEC LINE
 002190 4770 70EC            021A8 15613                       WHILE Z,BEGIN
 002194 58F0 8028            00000 15626  1                      L     R15,RSLNO
 002198 58E0 7210/0DEE       022CC 15627  1                      VCALL PUTLINE             PUT LINE IN ACTIVE FILE
 00219E 58E0 7214/0DEE       022D0 15631  1                      ACALL EXNEXT              GET NEXT EXEC LINE
 0021A4 47F0 70D4            02190 15635                       END   ,                   LOOP THRU ENTIRE EXEC FILE
1EXEC     (EXEC2193) (12:44) (15MAR04) EXEC File Related Commands                                                           Page   51
0Current Usings:  (*,R7) (RSWA-(4+36),R8) (CP,R11) (CV,R12)
0Loc    Object Code    Addr1 Addr2  Stmt Lv Lineno    Source Statement           (Hibal 5, Asmedit 3.3)  HLASM R4.0  2004/03/15 12.44
+___    ______ ____    _____ _____  ____ __ ______    ______ _________
0                                  15640
                                   15641                       COMMENT                   SET MISC INFO FIELDS
 0021A8 D203 B75C 71F8 0075C 022B4 15642                       MVC   CPEXLINE,=F'-1000'  NO CURRENT EXEC LINENO
 0021AE D703 B5B4 B5B4 005B4 005B4 15643                       CLEAR CPACHCT             CLEAR CHANGE COUNT
                                   15650
                                   15651                       COMMENT                   CLEAR OLD EXEC RECORD SET
 0021B4 58E0 7218/0DEE       022D4 15652                       VCALL CLREX               CLEAR OLD EXEC RECORD SET
                                   15656
 0021BA 58E0 71C8/0DEE       02284 15657                       ACALL SETPAUSE            TURN OFF EXEC
 0021C0 47F0 C7DE            007DE 15661                       B     CVNEXT              GET NEXT COMMAND FROM USER
 0021C4 18D8/9808 D004_            15662                       PEND
 DROP   RSWA-(4+36),R8
 DROP   *,R7
                                   15687              *
                                   15688              *
                                   15689              *  RESTORE SCKW STUFF
                                   15690              *
 0021D4 4040404040404040_          15691              RESTBL1  SCKW  ,V(CLRPSH),PUSH
 0021FC 4040404040404040_          15706                       SCKW  ,V(SCNINVAL)
                                   15721
                                   15722                       QLTORG
1EXEC     (EXEC2193) (12:44) (15MAR04) EXEC File Related Routines                                                           Page   52
0Current Usings:  (CP,R11) (CV,R12)
0Loc    Object Code    Addr1 Addr2  Stmt Lv Lineno    Source Statement           (Hibal 5, Asmedit 3.3)  HLASM R4.0  2004/03/15 12.44
+___    ______ ____    _____ _____  ____ __ ______    ______ _________
0                                  15779              ¿þþþþþþþþþþþþþþþþþþþþþþþþþþþþþþþþþþþþþþþþþþþþþþþþþþþþþþþþþþþþþþþþþþþþþÜ
                                   15780              Ÿ                                                                     Ÿ
                                   15781              Ÿ                                                                     Ÿ
                                   15782              Ÿ  SETPAUSE - PAUSE EXEC FILE                                         Ÿ
                                   15783              Ÿ                                                                     Ÿ
                                   15784              Ÿ  NOTE: THIS ROUTINE SHOULD BE USED BY ANYONE WISHING TO TURN        Ÿ
                                   15785              Ÿ        OFF CPEXEC FLAG.  IF THIS FLAG IS CLEARED, EXEC WILL         Ÿ
                                   15786              Ÿ        PAUSE.                                                       Ÿ
                                   15787              Ÿ                                                                     Ÿ
                                   15788              Ÿ                                                                     Ÿ
                                                      ¾þþþþþþþþþþþþþþþþþþþþþþþþþþþþþþþþþþþþþþþþþþþþþþþþþþþþþþþþþþþþþþþþþþþþþ»
000237A 50E0 D000/9008_      00000 15789              SETPAUSE XPROC
 USING  *,R7
 002394 947F B758      00758       15829                       CLEAR CPFEXEC             CLEAR CPFEXEC FLAG
 002398 18D8/9808 D004_            15836                       PEND
 DROP   *,R7
1EXEC     (EXEC2193) (12:44) (15MAR04) EXEC File Related Routines                                                           Page   53
0Current Usings:  (CP,R11) (CV,R12)
0Loc    Object Code    Addr1 Addr2  Stmt Lv Lineno    Source Statement           (Hibal 5, Asmedit 3.3)  HLASM R4.0  2004/03/15 12.44
+___    ______ ____    _____ _____  ____ __ ______    ______ _________
0                                  15857              ¿þþþþþþþþþþþþþþþþþþþþþþþþþþþþþþþþþþþþþþþþþþþþþþþþþþþþþþþþþþþþþþþþþþþþþÜ
                                   15858              Ÿ                                                                     Ÿ
                                   15859              Ÿ                                                                     Ÿ
                                   15860              Ÿ  EXPAUSE - PAUSE EXEC FILE                                          Ÿ
                                   15861              Ÿ                                                                     Ÿ
                                   15862              Ÿ  THIS ROUTINE DOES NOT RETURN !!                                    Ÿ
                                   15863              Ÿ                                                                     Ÿ
                                   15864              Ÿ                                                                     Ÿ
                                                      ¾þþþþþþþþþþþþþþþþþþþþþþþþþþþþþþþþþþþþþþþþþþþþþþþþþþþþþþþþþþþþþþþþþþþþþ»
00023A6 50E0 D000/9008_      00000 15865              EXPAUSE  XPROC
 USING  *,R7
                                   15905
 0023C0 58E0 71C8/0DEE       02588 15906                       ACALL SETPAUSE            SET PAUSE FLAGS
 0023C6 47F0 C7DE            007DE 15910                       B     CVNEXT              GET NEXT COMMAND
                                   15911
                                   15912                       COMMENT                   THIS ROUTINE DOES NOT RETURN
 0023CA 0000                       15913                       BOMB
 0023CC 18D8/9808 D004_            15915                       PEND
 DROP   *,R7
1EXEC     (EXEC2193) (12:44) (15MAR04) EXEC File Related Routines                                                           Page   54
0Current Usings:  (CP,R11) (CV,R12)
0Loc    Object Code    Addr1 Addr2  Stmt Lv Lineno    Source Statement           (Hibal 5, Asmedit 3.3)  HLASM R4.0  2004/03/15 12.44
+___    ______ ____    _____ _____  ____ __ ______    ______ _________
0                                  15936              ¿þþþþþþþþþþþþþþþþþþþþþþþþþþþþþþþþþþþþþþþþþþþþþþþþþþþþþþþþþþþþþþþþþþþþþÜ
                                   15937              Ÿ                                                                     Ÿ
                                   15938              Ÿ                                                                     Ÿ
                                   15939              Ÿ  EXRESET - RESET EXEC, RESET TO BASE VARIABLES                      Ÿ
                                   15940              Ÿ                                                                     Ÿ
                                   15941              Ÿ                                                                     Ÿ
                                   15942              Ÿ                                                                     Ÿ
                                                      ¾þþþþþþþþþþþþþþþþþþþþþþþþþþþþþþþþþþþþþþþþþþþþþþþþþþþþþþþþþþþþþþþþþþþþþ»
00023DA 50E0 D000/9008_      00000 15943              EXRESET  XPROC
 USING  *,R7
                                   15983
                                   15984                       COMMENT                   SET DEFAULT EXEC POINTERS
 0023F4 4110 B4A4            004A4 15985                       LA    R1,CPEXEC
 0023F8 5010 B77C            0077C 15986                       ST    R1,CPRGEXEC
 0023FC 4110 B4C4            004C4 15987                       LA    R1,CPFLOW
 002400 5010 B780            00780 15988                       ST    R1,CPRGFLOW
 002404 4110 0002            00002 15989                       LA    R1,CP#XOLD
 002408 5010 B778            00778 15990                       ST    R1,CP#XSET
                                   15991
                                   15992                       COMMENT                   CLR ACTIVE EXEC'S LIST
 00240C 58E0 7198/0DEE       0258C 15993                       VCALL CLRALIST
                                   15997
                                   15998                       COMMENT                   CLR VAR STACK, POINT TO BASE VARS
 002412 58E0 719C/0DEE       02590 15999                       VCALL CLRVSTK
                                   16003
 002418 1BFF                       16004                       CLEAR R15
 00241A 18D8/9808 D004_            16008                       PEND
 DROP   *,R7
1EXEC     (EXEC2193) (12:44) (15MAR04) EXEC File Related Routines                                                           Page   55
0Current Usings:  (CP,R11) (CV,R12)
0Loc    Object Code    Addr1 Addr2  Stmt Lv Lineno    Source Statement           (Hibal 5, Asmedit 3.3)  HLASM R4.0  2004/03/15 12.44
+___    ______ ____    _____ _____  ____ __ ______    ______ _________
0                                  16029              ¿þþþþþþþþþþþþþþþþþþþþþþþþþþþþþþþþþþþþþþþþþþþþþþþþþþþþþþþþþþþþþþþþþþþþþÜ
                                   16030              Ÿ                                                                     Ÿ
                                   16031              Ÿ                                                                     Ÿ
                                   16032              Ÿ  EXREINIT - RE-INITIALIZE EXEC FILE SYSTEM                          Ÿ
                                   16033              Ÿ                                                                     Ÿ
                                   16034              Ÿ  REINITIALIZE EXEC FILE SYSTEM !! OOOOHHH YEAH !                    Ÿ
                                   16035              Ÿ                                                                     Ÿ
                                   16036              Ÿ  THIS ROUTINE IS CODED ON PRACTICAL LINES, ADD WHATEVER IS          Ÿ
                                   16037              Ÿ  NEEDED TO RESTORE THE EXEC TO THE STATE IT WAS IN AT LOGON         Ÿ
                                   16038              Ÿ  TIME (MORE OR LESS BUD!)  THIS ROUTINE DOES UNLOAD ALL             Ÿ
                                   16039              Ÿ  EXECS.                                                             Ÿ
                                   16040              Ÿ                                                                     Ÿ
                                   16041              Ÿ                                                                     Ÿ
                                                      ¾þþþþþþþþþþþþþþþþþþþþþþþþþþþþþþþþþþþþþþþþþþþþþþþþþþþþþþþþþþþþþþþþþþþþþ»
0002428 50E0 D000/9008_      00000 16042              EXREINIT XPROC
 USING  *,R7
                                   16082
                                   16083                       COMMENT                   CLEAR EXEC, FLOW, AND VARS RECORD
                                   16084                       COMMENT                     GROUPS
 002442 41F0 B4A4            004A4 16085                       LA    R15,CPEXEC
 002446 58E0 7152/0DEE       02594 16086                       VCALL XDELGRP
 00244C 41F0 B4C4            004C4 16090                       LA    R15,CPFLOW
 002450 58E0 7152/0DEE       02594 16091                       VCALL XDELGRP
 002456 41F0 B4E4            004E4 16095                       LA    R15,CPVARS
 00245A 58E0 7152/0DEE       02594 16096                       VCALL XDELGRP
                                   16100
                                   16101                       COMMENT                   CLEAR EXEC FILE TABLES
 002460 41F0 B524            00524 16102                       LA    R15,CPRG16
 002464 4100 0006            00006 16103                       LA    R0,CP#XFILE
 002468 58E0 7156/0DEE       02598 16104                       VCALL XDELSET
 00246E 41F0 B544            00544 16108                       LA    R15,CPRG64
 002472 4100 0006            00006 16109                       LA    R0,CP#XFILE
 002476 58E0 7156/0DEE       02598 16110                       VCALL XDELSET
                                   16114
                                   16115                       COMMENT                   INITIALIZE BASE VARIABLES
 00247C 58E0 715A/0DEE       0259C 16116                       VCALL INITVARS
                                   16120
                                   16121                       COMMENT                   INITIALIZE EXEC POINTERS
 002482 58E0 715E/0DEE       025A0 16122                       VCALL INITEXEC
                                   16126
                                   16127                       COMMENT                   INITIALIZE FLOW STUFF
 002488 58E0 7162/0DEE       025A4 16128                       VCALL INITFLOW
                                   16132
                                   16133                       COMMENT                   INITIALIZE LOAD LISTS
                                   16134                       COMMENT ,                 (LRU EXEC, CALLED EXECS)
 00248E 58E0 7166/0DEE       025A8 16135                       VCALL INITXCAL
                                   16139
                                   16140                       COMMENT                   INIT ERROR, ATTN STUFF
 002494 58E0 716A/0DEE       025AC 16141                       ACALL INITERR
 00249A 58E0 716E/0DEE       025B0 16145                       ACALL INITATTN
                                   16149
                                   16150                       COMMENT                   CLEAR EXEC DUMP, QUIET FLAGS
 0024A0 58E0 7172/0DEE       025B4 16151                       VCALL INITXDMP
1EXEC     (EXEC2193) (12:44) (15MAR04) EXEC File Related Routines                                                           Page   56
0Current Usings:  (*,R7) (CP,R11) (CV,R12)
0Loc    Object Code    Addr1 Addr2  Stmt Lv Lineno    Source Statement           (Hibal 5, Asmedit 3.3)  HLASM R4.0  2004/03/15 12.44
+___    ______ ____    _____ _____  ____ __ ______    ______ _________
00024A6 94BF B7E4      007E4       16155                       CLEAR CPFXQT
                                   16162
                                   16163                       COMMENT                   DEBUG STUFF IS NOT RESET,,
                                   16164                       COMMENT                   XRESET IS OFTEN USED IN DEBUGGING
                                   16165
                                   16166                       COMMENT                   CLEAR EXEC MONITOR, IF ANY
 0024AA 58E0 7176/0DEE       025B8 16167                       VCALL MCLEAR
                                   16171
                                   16172                       COMMENT                   CLEAR ESC, SKIP CHARS
 0024B0 9200 B8BA      008BA       16173                       CLEAR CPESCAPE
 0024B4 9200 B8BB      008BB       16180                       CLEAR CPSKIP
                                   16187
 0024B8 1BFF                       16188                       CLEAR R15
 0024BA 18D8/9808 D004_            16192                       PEND
 DROP   *,R7
1EXEC     (EXEC2193) (12:44) (15MAR04) EXEC File Related Routines                                                           Page   57
0Current Usings:  (CP,R11) (CV,R12)
0Loc    Object Code    Addr1 Addr2  Stmt Lv Lineno    Source Statement           (Hibal 5, Asmedit 3.3)  HLASM R4.0  2004/03/15 12.44
+___    ______ ____    _____ _____  ____ __ ______    ______ _________
0                                  16213              ¿þþþþþþþþþþþþþþþþþþþþþþþþþþþþþþþþþþþþþþþþþþþþþþþþþþþþþþþþþþþþþþþþþþþþþÜ
                                   16214              Ÿ                                                                     Ÿ
                                   16215              Ÿ                                                                     Ÿ
                                   16216              Ÿ  EXECHK - CHECK FOR NULL EXEC FILE                                  Ÿ
                                   16217              Ÿ                                                                     Ÿ
                                   16218              Ÿ  IF NULL EXEC FILE, GIVE MESSAGE AND EXIT VIA                       Ÿ
                                   16219              Ÿ  CVERROR.                                                           Ÿ
                                   16220              Ÿ                                                                     Ÿ
                                   16221              Ÿ                                                                     Ÿ
                                                      ¾þþþþþþþþþþþþþþþþþþþþþþþþþþþþþþþþþþþþþþþþþþþþþþþþþþþþþþþþþþþþþþþþþþþþþ»
00024C8 50E0 D000/9008_      00000 16222              EXECHK   XPROC
 USING  *,R7
 0024E2 58E0 70DA/0DEE       025BC 16262                       ACALL CHKEXEC
 0024E8 4770 701C            024FE 16266                       IF    Z,BEGIN
 0024EC D207 B886 709E_00886 02580 16277  1                      ERROR 'No EXEC file.',,NOEXEC
 0024FE                            16285                       END
 0024FE 1BFF                       16289                       CLEAR R15
 002500 18D8/9808 D004_            16293                       PEND
 DROP   *,R7
1EXEC     (EXEC2193) (12:44) (15MAR04) EXEC File Related Routines                                                           Page   58
0Current Usings:  (CP,R11) (CV,R12)
0Loc    Object Code    Addr1 Addr2  Stmt Lv Lineno    Source Statement           (Hibal 5, Asmedit 3.3)  HLASM R4.0  2004/03/15 12.44
+___    ______ ____    _____ _____  ____ __ ______    ______ _________
0                                  16314              ¿þþþþþþþþþþþþþþþþþþþþþþþþþþþþþþþþþþþþþþþþþþþþþþþþþþþþþþþþþþþþþþþþþþþþþÜ
                                   16315              Ÿ                                                                     Ÿ
                                   16316              Ÿ                                                                     Ÿ
                                   16317              Ÿ  CHKEXEC - CHECK FOR NULL EXEC FILE                                 Ÿ
                                   16318              Ÿ                                                                     Ÿ
                                   16319              Ÿ  ON EXIT:                                                           Ÿ
                                   16320              Ÿ       R15 - CC=Z, NULL EXEC FILE                                    Ÿ
                                   16321              Ÿ             CC=NZ, EXEC FILE EXISTS                                 Ÿ
                                   16322              Ÿ                                                                     Ÿ
                                   16323              Ÿ                                                                     Ÿ
                                                      ¾þþþþþþþþþþþþþþþþþþþþþþþþþþþþþþþþþþþþþþþþþþþþþþþþþþþþþþþþþþþþþþþþþþþþþ»
000250E 50E0 D000/9008_      00000 16324              CHKEXEC  XPROC
 USING  *,R7
                                   16364
 002528 58F0 B77C            0077C 16365                       L     R15,CPRGEXEC
 00252C 5800 B778            00778 16366                       L     R0,CP#XSET
 002530 58E0 7098/0DEE       025C0 16367                       VCALL XCHKSET
                                   16371
 002536 18D8/9808 D004_            16372                       PEND
 DROP   *,R7
1EXEC     (EXEC2193) (12:44) (15MAR04) EXEC File Related Routines                                                           Page   59
0Current Usings:  (CP,R11) (CV,R12)
0Loc    Object Code    Addr1 Addr2  Stmt Lv Lineno    Source Statement           (Hibal 5, Asmedit 3.3)  HLASM R4.0  2004/03/15 12.44
+___    ______ ____    _____ _____  ____ __ ______    ______ _________
0                                  16393              ¿þþþþþþþþþþþþþþþþþþþþþþþþþþþþþþþþþþþþþþþþþþþþþþþþþþþþþþþþþþþþþþþþþþþþþÜ
                                   16394              Ÿ                                                                     Ÿ
                                   16395              Ÿ                                                                     Ÿ
                                   16396              Ÿ  CHKXOLD - CHECK FOR NULL OLD EXEC FILE                             Ÿ
                                   16397              Ÿ                                                                     Ÿ
                                   16398              Ÿ  ON EXIT:                                                           Ÿ
                                   16399              Ÿ       R15 - CC=Z, NULL EXEC FILE                                    Ÿ
                                   16400              Ÿ             CC=NZ, OLD EXEC FILE EXISTS                             Ÿ
                                   16401              Ÿ                                                                     Ÿ
                                   16402              Ÿ                                                                     Ÿ
                                                      ¾þþþþþþþþþþþþþþþþþþþþþþþþþþþþþþþþþþþþþþþþþþþþþþþþþþþþþþþþþþþþþþþþþþþþþ»
0002544 50E0 D000/9008_      00000 16403              CHKXOLD  XPROC
 USING  *,R7
                                   16443
 00255E 41F0 B4A4            004A4 16444                       LA    R15,CPEXEC
 002562 4100 0002            00002 16445                       LA    R0,CP#XOLD
 002566 58E0 7062/0DEE       025C0 16446                       VCALL XCHKSET
                                   16450
 00256C 18D8/9808 D004_            16451                       PEND
 DROP   *,R7
1EXEC     (EXEC2193) (12:44) (15MAR04) EXEC File Related Routines                                                           Page   60
0Current Usings:  (CP,R11) (CV,R12)
0Loc    Object Code    Addr1 Addr2  Stmt Lv Lineno    Source Statement           (Hibal 5, Asmedit 3.3)  HLASM R4.0  2004/03/15 12.44
+___    ______ ____    _____ _____  ____ __ ______    ______ _________
0                                  16472                       QLTORG
1EXEC     (EXEC2193) (12:44) (15MAR04) READ Command                                                                         Page   61
0Current Usings:  (CP,R11) (CV,R12)
0Loc    Object Code    Addr1 Addr2  Stmt Lv Lineno    Source Statement           (Hibal 5, Asmedit 3.3)  HLASM R4.0  2004/03/15 12.44
+___    ______ ____    _____ _____  ____ __ ______    ______ _________
0                                  16502              ¿þþþþþþþþþþþþþþþþþþþþþþþþþþþþþþþþþþþþþþþþþþþþþþþþþþþþþþþþþþþþþþþþþþþþþÜ
                                   16503              Ÿ                                                                     Ÿ
                                   16504              Ÿ                                                                     Ÿ
                                   16505              Ÿ  READ COMMANDS                                                      Ÿ
                                   16506              Ÿ                                                                     Ÿ
                                   16507              Ÿ  READ, READ VALUE, AND READ STRING COMMAND                          Ÿ
                                   16508              Ÿ        ALL OPTIONS ARE SCANNED FIRST, THEN THE INPUT LINE IS        Ÿ
                                   16509              Ÿ        OBTAINED FROM THE TYPEWRITER, ACTIVE FILE, OR EXEC FILE,     Ÿ
                                   16510              Ÿ        AND FINALLY THE VALUE, STRING, OR COMMAND IS PROCESSED.      Ÿ
                                   16511              Ÿ                                                                     Ÿ
                                   16512              Ÿ                                                                     Ÿ
                                   16513              Ÿ                                                                     Ÿ
                                                      ¾þþþþþþþþþþþþþþþþþþþþþþþþþþþþþþþþþþþþþþþþþþþþþþþþþþþþþþþþþþþþþþþþþþþþþ»
0000000                00000 004A4 16514              RDWA     RECORD BEGIN
 000000 00                         16522  1           RDFLAGS    FLAG  ,                   READ FLAG BYTE
 RDFLAGS.RDFLINE   80 ONES         16526  1                      FLAG  RDFLINE             - READ LINE NUMBER GIVEN
 RDFLAGS.RDFDEL    40 ONES         16531  1                      FLAG  RDFDEL              - DELETE OPTION GIVEN
 RDFLAGS.RDFVAL    20 ONES         16536  1                      FLAG  RDFVAL              - READ VALUE OR READ STRING
 RDFLAGS.RDFSTR    10 ONES         16541  1                      FLAG  RDFSTR              - READ STRING
 RDFLAGS.RDFATTN   08 ONES         16546  1                      FLAG  RDFATTN             - ATTN LINENO GIVEN
 RDFLAGS.RDFPRMPT  04 ONES         16551  1                      FLAG  RDFPRMPT            - PROMPT OPTION EXPLICIT
                                   16556  1
 000001 00                         16557  1           RDTYPE     FLAG
 RDTYPE.RDFACT     80 ONES         16561  1                      FLAG  RDFACT              - READ FROM ACTIVE FILE
 RDTYPE.RDFEXEC    40 ONES         16566  1                      FLAG  RDFEXEC             - READ FROM EXEC
 RDTYPE.RDFFROM    20 ONES         16571  1                      FLAG  RDFFROM             - READ FROM EXTERNAL FILE
                                   16576  1
 000004                            16577  1           RDCOL1     DS    F                   FIRST COLUMN NO. - 1
 000008                            16578  1           RDCOL2     DS    F                   SECOND COL NO. - FIRST + 1
 00000C                            16579  1           RDLINENO   DS    F                   READ LINE NUMBER
 000010                            16580  1           RDBUFLEN   DS    F                   READ TEXT LENGTH
                                   16581  1           RDBUF      DS    CL(&LINESZ)         READ TEXT
 000014                                   1          +RDBUF      DS    CL(235)             READ TEXT
 000100                            16582  1           RDPRMPTL   DS    F                   READ PROMPT LENGTH
                                   16583  1           RDPRMPT    DS    CL(&LINESZ)         READ PROMPT AREA
 000104                                   1          +RDPRMPT    DS    CL(235)             READ PROMPT AREA
 0001F0                            16584  1           RDBUD      DS    0F                  NO BIG DEAL, NOT USED
                                   16585  1           RDMAXVAL   EQU   8                   MAX # OF VARS IF OLD READ VAL CMD
 0001F0                            16586  1           RDVLIST    DS    CL(2*(RDMAXVAL+2))  VAR LIST IF OLD READ VAL CMD
 000204                            16587  1           RDVNAME    DS    XL(L'VPARM)         VARIABLE ENTRY WORK AREA
 000354                            16588  1           RDVVALUE   DS    XL(L'XSLENTRY)      EXPRESSION ENTRY WORK AREA
 0004A4                004A4 004A4 16589                       END
-                                  16599                       ¿þþþþþþþþþþþþþÜ
                                   16600                       Ÿ  READ CODE  Ÿ
                                   16601                       ¾þþþþþþþþþþþþþ»
 0025D2 50E0 D000/9008_      00000 16602              READ     XPROC RDWA                ESTABLISH AND WORK AREA
 USING  *,R7
 USING  RDWA-(4+36),R8
 0025EC 4150 8028            00000 16653                       LA    R5,RDWA             POINT R6 TO WORK AREA
 USING  RDWA,R5                    16654                       USING RDWA,R5
 0025F0 D7FF 5000 5000_00000 00000 16663                       CLEAR RDWA                CLEAR THE WORK AREA
1EXEC     (EXEC2193) (12:44) (15MAR04) READ Command                                                                         Page   62
0Current Usings:  (RDWA,R5) (*,R7) (RDWA-(4+36),R8) (CP,R11) (CV,R12)
0Loc    Object Code    Addr1 Addr2  Stmt Lv Lineno    Source Statement           (Hibal 5, Asmedit 3.3)  HLASM R4.0  2004/03/15 12.44
+___    ______ ____    _____ _____  ____ __ ______    ______ _________
000260E 58E0 73D4/0DEE       029C0 16674                       VCALL SCNEXFR             SCAN TO SEE IF READ FROM EXEC
 002614 9501 BD89/4770_00D89       16678                       IF    CPFRDACT,'SET RDFACT '   READ ACT
 002620 9503 BD89/4770_00D89       16704                       IF    CPFRDEXT,'SET RDFFROM'   READ FROM
 00262C 9502 BD89/4770_00D89       16730                       IF    CPFRDEXE,'SET RDFEXEC'   READ EXEC
                                   16756
                                   16757                       COMMENT                   SCAN READ OPERANDS
 002638 5810 B08C/1B00_      0008C 16758                       SCAN  READKWS
 00268A 58E0 73E0/0DEE       029CC 16790                       SCANCHK
                                   16795
 002690 9180 5000/47E0_00000       16796                       IF    RDFLINE,BEGIN       IF LINE NUMBER SPECIFIED,,
 002698 58E0 73E4/0DEE       029D0 16811  1                      ACALL READLINE            READ FROM ACTIVE, EXEC
 00269E                            16815                       END
 00269E 9180 5000/4710_00000       16819                       IF    ~RDFLINE,BEGIN      IF NO LINE NUMBER GIVEN,,
 0026A6 58E0 73E8/0DEE       029D4 16834  1                      ACALL READTERM            READ FROM TERMINAL
 0026AC                            16838                       END
                                   16842              *
                                   16843              * NOW DO STRING, VALUE, OR COMMAND
 0026AC 9120 5000/47E0_00000       16844                       IF    RDFVAL,BEGIN        IF READ VALUE,,
 0026B4 58E0 73EC/0DEE       029D8 16859  1                      ACALL READVAL             DO IT TO IT
 0026BA                            16863                       END
 0026BA 70D2/47F0 70E0_026BA 026B2 16867                       ELSEIF RDFSTR,BEGIN       IF READ STRING,,
 0026C6 58E0 73F0/0DEE       029DC 16891  1                      ACALL READSTR             DO IT TO IT
 0026CC                            16895                       END
                                   16899                       COMMENT                   ELSE DO READ (COMMAND)
 0026CC 70E4/47F0 70EA 026CC 026C4 16900                       ELSE  BEGIN
 0026D0 58E0 73F4/0DEE       029E0 16911  1                      ACALL READCMD
 0026D6                            16915                       END
 0026D6 18D8/9808 D004_            16919                       PEND
 DROP   RDWA-(4+36),R8
 DROP   *,R7
1EXEC     (EXEC2193) (12:44) (15MAR04) READ Command                                                                         Page   63
0Current Usings:  (RDWA,R5) (CP,R11) (CV,R12)
0Loc    Object Code    Addr1 Addr2  Stmt Lv Lineno    Source Statement           (Hibal 5, Asmedit 3.3)  HLASM R4.0  2004/03/15 12.44
+___    ______ ____    _____ _____  ____ __ ______    ______ _________
0                                  16945                       ¿þþþþþþþþþþþþþþþþþþþþþþþþþþþÜ
                                   16946                       Ÿ  READ LINE FROM TERMINAL  Ÿ
                                   16947                       Ÿ                           Ÿ
                                   16948                       Ÿ  ON EXIT:                 Ÿ
                                   16949                       Ÿ  R0 - INPUT TEXT LENGTH   Ÿ
                                   16950                       Ÿ  R1 - INPUT TEXT ADDRESS  Ÿ
                                   16951                       ¾þþþþþþþþþþþþþþþþþþþþþþþþþþþ»
 0026E4 50E0 D000/9008_      00000 16952              READTERM PROC  ,
 USING  *,R7
 0026FE 9180 5000/4710_00000       16991                       IF    ~RDFLINE,BEGIN
 002706 9140 5000/47E0_00000       17006  1                      IF    RDFDEL,BEGIN
 00270E 4110 72E6/4100_      029E4 17021  2                        ERROR 'DELETE option invalid when line-number is not given.'
 00271A                            17028  1                      END
 00271A D503 728E 5004_0298C 00004 17032  1                      IF    (RDCOL1,GT,0),BEGIN
 002724 4110 731A/4100_      02A18 17050  2                        ERROR 'COLUMN option invalid when line-number is not given.'
 002730                            17057  1                      END
 002730                            17061                       END
                                   17065
 002730                            17066              REREADT  LABEL ,,,                 IF ATTN DURING READ, WE REREAD
 002730 D201 BC80 7394 00C80 02A92 17068                       MVC   CPTRMIN,=AL2(MAXSTRLN)   Set maximum read length
 002736 4110 5104/5800_      00104 17069                       SETMSG RDPRMPT,L:RDPRMPTL       SET UP PROMPT
 00273E 9104 5000/4710_00000       17083                       IF    ~RDFPRMPT,BEGIN          IF NO PROMPT, SET DEFAULT
 002746 4110 7398/4100_      02A96 17098  1                      SETMSG 'Enter? '
 00274E 9180 B3F8/47E0_003F8       17102  1                      IF    CPSFUPL,'SETMSG "Enter> "'  UPLOW STYLE
 00275E 9120 BD57/47E0_00D57       17126  1                      IF    CPFCASE,BEGIN            CASE OVERRIDE...
 002766 9110 BD57/47E0_00D57       17141  2                        IF    CPFUPPER,'SETMSG "Enter? "'
 002776 707C/47F0 7084_02776 0276C 17165  2                        ELSE  'SETMSG "Enter> "'
 002782                            17185  1                      END
 002782                            17189                       END
 002782 1BFF/58E0 734E_            17193                       TREAD (R1),(R0)           TERMINAL READ
 00278A 4740 C7DA            007DA 17213                       BM    CVABORT             LOGGING OFF
                                   17214
 00278E 1820                       17215                       LR    R2,R0               SAVE INPUT TEXT
 002790 5920 7352/47D0_      02A50 17216                       CEIL  R2,L'RDBUF
 00279C 5020 5010            00010 17235                       ST    R2,RDBUFLEN
 0027A0 0620/1222/4740_            17236                       MOVE  R2,RDBUF,@R1
 0027AC 4110 5014/5800_      00014 17274                       SETMSG RDBUF,L:RDBUFLEN
                                   17288
 0027B4 12FF                       17289                       LTR   R15,R15             TEST TREAD RETURN CODE
 0027B6 47D0 710A            02808 17290                       IF    POS,BEGIN           ENDED WITH PF...
 0027BA 59F0 7356/4770_      02A54 17301  1                      IF    (R15,EQ,1),BEGIN    BREAK...
 0027C2 9108 5000/47E0_00000       17318  2                        IF    ~RDFATTN,CVERROR    NO ATTN LINENO, EXEC BREAK
 0027CA 58F0 C1C8            001C8 17336  2                        L     R15,CVCURJCB
 0027CE 94FD F062      00062       17337  2                        WITH  (JCB,R15),'CLEAR JCBFATTN'
 USING  JCB,R15
 DROP   JCB,R15
 0027D2 D203 B760 500C 00760 0000C 17367  2                        MVC   CPEXNEXT,RDLINENO   SET NEW LINENO
 0027D8 47F0 C7DE            007DE 17368  2                        B     CVNEXT
 0027DC                            17369  1                      END
                                   17373  1
 0027DC 59F0 735A/4770_      02A58 17374  1                      IF    (R15,EQ,2),BEGIN    ?BREAK...
 0027E4 1200/4780 C7DA             17391  2                        IF    (R0,Z),CVABORT      FORCE EXEC BREAK
 0027EA 47F0 7032            02730 17408  2                        B     REREADT
 0027EE                            17409  1                      END
1EXEC     (EXEC2193) (12:44) (15MAR04) READ Command                                                                         Page   64
0Current Usings:  (RDWA,R5) (*,R7) (CP,R11) (CV,R12)
0Loc    Object Code    Addr1 Addr2  Stmt Lv Lineno    Source Statement           (Hibal 5, Asmedit 3.3)  HLASM R4.0  2004/03/15 12.44
+___    ______ ____    _____ _____  ____ __ ______    ______ _________
0                                  17413  1
 0027EE 59F0 735E/4770_      02A5C 17414  1                      IF    (R15,EQ,3),BEGIN    @BREAK...
 0027F6 96A8 BC78      00C78       17431  2                        SET   CPFNUMXP+CPFLISXP+CPFCMDMD
 0027FA 96C0 BD54      00D54       17444  2                        SET   CPLFLG5.CPFNONUM    NONUMBER
 0027FE 58E0 7362/0DEE       02A60 17451  2                        VCALL LINEMOD             ALLOW MODS OF INPUT TEXT
 002804 4770 C7DA            007DA 17455  2                        BNZ   CVABORT
 002808                            17456  1                      END
 002808                            17460                       END
                                   17464
 002808 9610 B477      00477       17465                       SET   CPFTYPED            SET COMMAND LOGGED
 00280C 9001 8004            00004 17471                       PRETURN (R0,R1)
 002810 18D8/9808 D004_            17473                       PEND
 DROP   *,R7
1EXEC     (EXEC2193) (12:44) (15MAR04) READ Command                                                                         Page   65
0Current Usings:  (RDWA,R5) (CP,R11) (CV,R12)
0Loc    Object Code    Addr1 Addr2  Stmt Lv Lineno    Source Statement           (Hibal 5, Asmedit 3.3)  HLASM R4.0  2004/03/15 12.44
+___    ______ ____    _____ _____  ____ __ ______    ______ _________
0                                  17494                       ¿þþþþþþþþþþþþþþþþþþþþþþþþþþþþþþþþþþþþþþþÜ
                                   17495                       Ÿ   READ LINE FROM ACTIVE OR EXEC FILE  Ÿ
                                   17496                       Ÿ                                       Ÿ
                                   17497                       Ÿ  ON EXIT:                             Ÿ
                                   17498                       Ÿ  R0 - INPUT TEXT LENGTH               Ÿ
                                   17499                       Ÿ  R1 - INPUT TEXT ADDRESS              Ÿ
                                   17500                       ¾þþþþþþþþþþþþþþþþþþþþþþþþþþþþþþþþþþþþþþþ»
 00281E 50E0 D000/9008_      00000 17501              READLINE PROC  ,
 USING  *,R7
 002838 9180 5000/47E0_00000       17540                       IF    (RDFLINE,AND,RDFPRMPT),BEGIN
 002848 4110 7158/4100_      02990 17569  1                      ERROR 'PROMPT option invalid when line-number is given.'
 002854                            17576                       END
 002854 9180 5000/47E0_00000       17580                       IF    (RDFLINE,AND,RDFATTN),BEGIN
 002864 4110 726C/4100_      02AA4 17609  1                      ERROR 'ATTENTION option invalid when line-number is given.'
 002870                            17616                       END
                                   17620
 002870 9180 5001/47E0_00001       17621                       IF    RDFACT,BEGIN        IF READ USING ACTIVE FILE,,
 002878 58E0 722C/0DEE       02A64 17636  1                      VCALL ACTCHK              REQUIRES ACTIVE FILE
 00287E 58F0 500C            0000C 17640  1                      L     R15,RDLINENO
 002882 4110 5014            00014 17641  1                      LA    R1,RDBUF
 002886 58E0 7230/0DEE       02A68 17642  1                      VCALL GETLINE             GET ACTIVE LINE
 00288C                            17646                       END
 00288C 9140 5001/47E0_00001       17650                       IF    RDFEXEC,BEGIN       IF READ USING EXEC FILE,,
 002894 58E0 7234/0DEE       02A6C 17665  1                      ACALL EXECHK              REQUIRES EXEC FILE
 00289A 4110 5014            00014 17669  1                      LA    R1,RDBUF
 00289E 4120 500C            0000C 17670  1                      LA    R2,RDLINENO
 0028A2 58E0 7238/0DEE       02A70 17671  1                      ACALL EXGET               GET EXEC LINE
 0028A8                            17675                       END
 0028A8 5000 5010            00010 17679                       ST    R0,RDBUFLEN
                                   17680
 0028AC 12FF/4780 70AC             17681                       IF    (R15,NZ),BEGIN      IF LINE DOES NOT EXIST
 0028B2 4110 729F/4100_      02AD7 17695  1                      TSEG  'Line '
 0028C4 5800 500C            0000C 17713  1                      L     R0,RDLINENO         GET LINE NUMBER
 0028C8 58E0 7240/0DEE       02A78 17714  1                      VCALL CVEXNO              CONVERT TO EXTERNAL
 0028CE 41F0 B050/58E0_      00050 17718  1                      TSEG  (R1),(R0),B
 0028D8 4110 7248/4100_      02A80 17742  1                      ERROR 'not in file.'
 0028E4                            17749                       END
                                   17753
 0028E4 D503 7154 5004_0298C 00004 17754                       IF    (RDCOL1,GT,0),BEGIN IF COLUMN OPTIONS SPECIFIED
 0028EE 5820 5004            00004 17772  1                      L     R2,RDCOL1
 0028F2 0620                       17773  1                      DECR  R2
 0028F4 1A12                       17775  1                      AR    R1,R2               R1 - TEXT START = LOC+1ST COL-1
 0028F6 1B02                       17776  1                      SR    R0,R2               R0 - REMAINING TEXT LENGTH
                                   17777  1                      COMMENT
 0028F8 D503 7154 5008_0298C 00008 17778  1                      IF    (RDCOL2,GT,0),BEGIN IF 2ND COL SPECIFIED
 002902 5820 5004            00004 17796  2                        L     R2,RDCOL1
 002906 5830 5008            00008 17797  2                        L     R3,RDCOL2
 00290A 1B32                       17798  2                        SR    R3,R2
 00290C 4133 0001            00001 17799  2                        LA    R3,1(R3)            R0 = LEN = 2ND COL-1ST COL+1
 002910 1803                       17800  2                        LR    R0,R3
 002912                            17801  1                      END
 002912 1200/47B0 70E2_            17805  1                      IF    (R0,NEG),'CLEAR R0'
 00291A                            17828                       END
                                   17832
1EXEC     (EXEC2193) (12:44) (15MAR04) READ Command                                                                         Page   66
0Current Usings:  (RDWA,R5) (*,R7) (CP,R11) (CV,R12)
0Loc    Object Code    Addr1 Addr2  Stmt Lv Lineno    Source Statement           (Hibal 5, Asmedit 3.3)  HLASM R4.0  2004/03/15 12.44
+___    ______ ____    _____ _____  ____ __ ______    ______ _________
000291A 4000 B240            00240 17833                       STH   R0,CPCMDLEN         SAVE COUNT FOR WRITECOM
 00291E 1820                       17834                       LR    R2,R0               SAVE LINE COUNT
 002920 1831                       17835                       LR    R3,R1               SAVE LINE POINTER
                                   17836
 002922 9140 5000/47E0_00000       17837                       IF    RDFDEL,BEGIN        IF DELETE SPECIFIED,,
 00292A 5800 500C            0000C 17852  1                      L     R0,RDLINENO         LINE NUMBER TO DELETE
 00292E 1810                       17853  1                      LR    R1,R0
 002930 58E0 7254/0DEE       02A8C 17854  1                      VCALL DELRANGE            Delete line
 002936 9110 B477/47E0_00477       17858  1                      IF    CPFTYPED,'INCR R15,CPACHCT'
 00294A                            17884                       END
                                   17888
 00294A 1802                       17889                       LR    R0,R2               RESET R0 COUNT
 00294C 1813                       17890                       LR    R1,R3               RESET R1 POINTER
 00294E 9130 BD57/47E0_00D57       17891                       IF    CPFCASE*CPFUPPER,BEGIN  UPPER CASE WANTED...
 002956 9001 D000/41D0_      00000 17909  1                      XPUSH R0,R1
 00295E 58F0 C8A8            008A8 17912  1                      L     R15,CVUPPTBL
 002962 1820                       17913  1                      LR    R2,R0
 002964 1222/47D0 7138             17914  1                      IF    (R2,POS),BEGIN
 00296A 0620/4420 72AA_            17928  2                        DEX   R2,' TR @R1(0),@R15 '
 002970                            17947  1                      END
 002970 4BD0 725C/9801_      02A94 17951  1                      XPOP  R0,R1               R1,R0 - COMMAND LOC,LEN
                                   17954  1                      COMMENT                           COMMAND IS IN CPBUF
 002978                            17955                       END
 002978 9001 8004            00004 17959                       PRETURN (R0,R1)
 00297C 18D8/9808 D004_            17961                       PEND
 DROP   *,R7
1EXEC     (EXEC2193) (12:44) (15MAR04) READ Command                                                                         Page   67
0Current Usings:  (RDWA,R5) (CP,R11) (CV,R12)
0Loc    Object Code    Addr1 Addr2  Stmt Lv Lineno    Source Statement           (Hibal 5, Asmedit 3.3)  HLASM R4.0  2004/03/15 12.44
+___    ______ ____    _____ _____  ____ __ ______    ______ _________
0                                  17982                       QLTORG
1EXEC     (EXEC2193) (12:44) (15MAR04) READ Command                                                                         Page   68
0Current Usings:  (RDWA,R5) (CP,R11) (CV,R12)
0Loc    Object Code    Addr1 Addr2  Stmt Lv Lineno    Source Statement           (Hibal 5, Asmedit 3.3)  HLASM R4.0  2004/03/15 12.44
+___    ______ ____    _____ _____  ____ __ ______    ______ _________
0                                  18030                       ¿þþþþþþþþþþþþþþþþþþþþþþþþþþþþþþþþþþþÜ
                                   18031                       Ÿ  READ SCAN KEYWORDS AND ROUTINES  Ÿ
                                   18032                       ¾þþþþþþþþþþþþþþþþþþþþþþþþþþþþþþþþþþþ»
 002AE8 D5D6C4C5D3C5E3C5_          18033              READKWS  SCKW  NODELETE,NRDELETE,A
 002B10 C4C5D3C5E3C54040_          18048                       SCKW  DELETE,RDELETE,A
 002B38 E2E3D9C9D5C74040_          18063                       SCKW  STRING,RDSCNSTR,A
 002B60 D7D9D6D4D7E34040_          18078                       SCKW  PROMPT,RDSCNPRM,(A,P)
 002B88 E4E2C9D5C7404040_          18093                       SCKW  USING,RDLNENO,(A,V(MPSYMLN))
 002BB0 4040404040404040_          18108                       SCKW  ,RDLNENO,SYMLN
 002BD8 C3D6D3E4D4D5E240_          18123                       SCKW  COLUMNS,RDSCNCOL,(A,V(MPCOLS))
 002C00 C3D6D3E240404040_          18138                       SCKW  COLS,RDSCNCOL,(V(MPCOLS))
 002C28 E5C1D3E4C5404040_          18153                       SCKW  VALUE,RDSCNVAL,A
 002C50 C5C3C8D640404040_          18168                       SCKW  ECHO,RDSCNECH,A
 002C78 D5D6C5C3C8D64040_          18183                       SCKW  NOECHO,RDSCNNOE,A
 002CA0 E3D9C1D5E2D7C1D9_          18198                       SCKW  TRANSPARENT,RDSCNTRN,A
 002CC8 D5D6E3D9C1D5E2D7_          18213                       SCKW  NOTRANSPARENT,RDSCNNOT,A
 002CF0 D4D6C4C5D3404040_          18228                       SCKW  MODEL,RDSCNMOD,A
 002D18 D5D6D4D6C4C5D340_          18243                       SCKW  NOMODEL,RDSCNNOM,A
 002D40 C6D6D9D4C1E3E3C5_          18258                       SCKW  FORMATTED,RDSCFMT,A
 002D68 E4D5C6D6D9D4C1E3_          18273                       SCKW  UNFORMATTED,RDSCUFMT,A
 002D90 C1E3E3D540404040_          18288                       SCKW  ATTN,RDATTN,A
 002DB8 4040404040404040_          18303                       SCKW  ,V(CASEPSH),PUSH
 002DE0 C5E7C5C3E4E3C540_          18318                       SCKW  EXECUTE,V(SCNNOOP),A
 002E08 4040404040404040_          18333                       SCKW  ,V(SCNINVAL)
                                   18348
 002E30 50E0 D000/9008_      00000 18349              NRDELETE DPROC ,
 USING  *,R7
 002E4A 94BF 5000      00000       18389                       CLEAR RDFDEL              RESET READ DELETE FLAG
 002E4E 18D8/9808 D004_            18396                       PEND
 DROP   *,R7
                                   18416
 002E5C 50E0 D000/9008_      00000 18417              RDELETE  PROC  ,
 USING  *,R7
 002E76 9640 5000      00000       18456                       SET   RDFDEL              SET READ DELETE OPTION
 002E7A 9140 5001/47E0_00001       18462                       IF    RDFEXEC,BEGIN       CAN NOT DELETE LINE IN EXEC
 002E82 58E0 77AA/0DEE       03620 18477  1                      VCALL NOTVALID
 002E88                            18481                       END
 002E88 1BFF                       18485                       CLEAR R15
 002E8A 18D8/9808 D004_            18489                       PEND
 DROP   *,R7
                                   18509
 002E98 50E0 D000/9008_      00000 18510              RDLNENO  DPROC ,                   ***FIX
 USING  *,R7
 002EB2 5000 500C            0000C 18550                       ST    R0,RDLINENO         SAVE READ LINE NUMBER
 002EB6 9680 5000      00000       18551                       SET   RDFLINE             SET LINE NUMBER OPTION FLAG
 002EBA 1BFF                       18557                       CLEAR R15                 GO SCAN ON
 002EBC 18D8/9808 D004_            18561                       PEND
 DROP   *,R7
                                   18581
 002ECA 50E0 D000/9008_      00000 18582              RDATTN   PROC  ,
 USING  *,R7
 002EE4 9608 5000      00000       18621                       SET   RDFATTN             ATTN LINENO GIVEN
 002EE8 58E0 7740/0DEE       03624 18627                       VCALL ATTNLINE            GET LINENO
 002EEE 5000 500C            0000C 18631                       ST    R0,RDLINENO         SAVE LINENO
1EXEC     (EXEC2193) (12:44) (15MAR04) READ Command                                                                         Page   69
0Current Usings:  (RDWA,R5) (*,R7) (CP,R11) (CV,R12)
0Loc    Object Code    Addr1 Addr2  Stmt Lv Lineno    Source Statement           (Hibal 5, Asmedit 3.3)  HLASM R4.0  2004/03/15 12.44
+___    ______ ____    _____ _____  ____ __ ______    ______ _________
0002EF2 58E0 7744/0DEE       03628 18632                       ACALL ALLOWATN            ALLOW ATTENTIONS
 002EF8 1BFF                       18636                       CLEAR R15
 002EFA 18D8/9808 D004_            18640                       PEND
 DROP   *,R7
                                   18660              *
                                   18661              *
 002F08 50E0 D000/9008_      00000 18662              RDSCNCOL PROC  ,                   SET BETTER COLUMN NO.
 USING  *,R7
 002F22 5000 5004            00004 18701                       ST    R0,RDCOL1
 002F26 5010 5008            00008 18702                       ST    R1,RDCOL2
 002F2A 18D8/9808 D004_            18703                       PEND
 DROP   *,R7
                                   18723              *
                                   18724              * PROCESS PROMPT OPTION            *** FIX, SET PARM FLAG
 002F38 50E0 D000/9008_      00000 18725              RDSCNPRM PROC  ,
 USING  *,R7
 002F52 58E0 76DA/0DEE       0362C 18764                       VCALL DEQUOTE             STRIP QUOTES
 002F58 47B0 7010            02F62 18768                       IF    M,BEGIN             IF NOT QUOTED, ..
 002F5C 58E0 76CE/0DEE       03620 18779  1                      VCALL NOTVALID
 002F62                            18783                       END
 002F62 9604 5000      00000       18787                       SET   RDFPRMPT            SET PROMPT EXPLICIT
 002F66 5900 76DE            03630 18793                       C     R0,=A(L'RDPRMPT)    IS PROMPT TOO LONG?
 002F6A 47D0 7020            02F72 18794                       IF    H,BEGIN
 002F6E 4100 00EB            000EB 18805  1                      LA    R0,L'RDPRMPT        SET MAX LENGTH
 002F72                            18806                       END
 002F72 5000 5100            00100 18810                       ST    R0,RDPRMPTL         SAVE LENGTH OF PROMPT
 002F76 1820                       18811                       LR    R2,R0               PUT LENGTH IN R2 AND TEST
 002F78 0620/1222/4740_            18812                       MOVE  R2,RDPRMPT,@R1      MOVE PROMPT TO PROMPT BUFFER
 002F84 1BFF                       18850                       CLEAR R15                 CONTINUE SCAN
 002F86 18D8/9808 D004_            18854                       PEND
 DROP   *,R7
                                   18874
 002F94 50E0 D000/9008_      00000 18875              RDSCNECH DPROC ,
 USING  *,R7
 002FAE 94BF BC7B      00C7B       18915                       CLEAR CPFNECHO
 002FB2 18D8/9808 D004_            18922                       PEND
 DROP   *,R7
                                   18942
 002FC0 50E0 D000/9008_      00000 18943              RDSCNNOE DPROC ,
 USING  *,R7
 002FDA 9640 BC7B      00C7B       18983                       SET   CPFNECHO
 002FDE 18D8/9808 D004_            18989                       PEND
 DROP   *,R7
                                   19009
 002FEC 50E0 D000/9008_      00000 19010              RDSCNTRN DPROC ,
 USING  *,R7
 003006 9680 BC7C      00C7C       19050                       SET   CPFTRAN
 00300A 18D8/9808 D004_            19056                       PEND
 DROP   *,R7
                                   19076
 003018 50E0 D000/9008_      00000 19077              RDSCNNOT DPROC ,
 USING  *,R7
 003032 947F BC7C      00C7C       19117                       CLEAR CPFTRAN
 003036 18D8/9808 D004_            19124                       PEND
1EXEC     (EXEC2193) (12:44) (15MAR04) READ Command                                                                         Page   70
0Current Usings:  (RDWA,R5) (CP,R11) (CV,R12)
0Loc    Object Code    Addr1 Addr2  Stmt Lv Lineno    Source Statement           (Hibal 5, Asmedit 3.3)  HLASM R4.0  2004/03/15 12.44
+___    ______ ____    _____ _____  ____ __ ______    ______ _________
0DROP   *,R7
                                   19144
 003044 50E0 D000/9008_      00000 19145              RDSCNMOD DPROC ,
 USING  *,R7
 00305E 94EF BC7C      00C7C       19185                       CLEAR CPFNMOD
 003062 18D8/9808 D004_            19192                       PEND
 DROP   *,R7
                                   19212
 003070 50E0 D000/9008_      00000 19213              RDSCNNOM DPROC ,
 USING  *,R7
 00308A 9610 BC7C      00C7C       19253                       SET   CPFNMOD
 00308E 18D8/9808 D004_            19259                       PEND
 DROP   *,R7
                                   19279
 00309C 50E0 D000/9008_      00000 19280              RDSCFMT  DPROC ,
 USING  *,R7
 0030B6 94F7 BC7C      00C7C       19320                       CLEAR CPFUFMT
 0030BA 18D8/9808 D004_            19327                       PEND
 DROP   *,R7
                                   19347
 0030C8 50E0 D000/9008_      00000 19348              RDSCUFMT DPROC
 USING  *,R7
 0030E2 9608 BC7C      00C7C       19388                       SET   CPFUFMT
 0030E6 18D8/9808 D004_            19394                       PEND
 DROP   *,R7
1EXEC     (EXEC2193) (12:44) (15MAR04) READ Command                                                                         Page   71
0Current Usings:  (RDWA,R5) (CP,R11) (CV,R12)
0Loc    Object Code    Addr1 Addr2  Stmt Lv Lineno    Source Statement           (Hibal 5, Asmedit 3.3)  HLASM R4.0  2004/03/15 12.44
+___    ______ ____    _____ _____  ____ __ ______    ______ _________
0                                  19415                       ¿þþþþþþþþþþþþþþþþþþþþþþþþþþþþþþþþþþþþþþþþþþþþþþþþþþþþþÜ
                                   19416                       Ÿ                                                     Ÿ
                                   19417                       Ÿ  SCANNED 'READ STRING'                              Ÿ
                                   19418                       Ÿ                                                     Ÿ
                                   19419                       Ÿ  GET VARIABLE NAME (MAY BE ARRAY) AND CONTNUE SCAN  Ÿ
                                   19420                       ¾þþþþþþþþþþþþþþþþþþþþþþþþþþþþþþþþþþþþþþþþþþþþþþþþþþþþþ»
 0030F4 50E0 D000/9008_      00000 19421              RDSCNSTR PROC  ,
 USING  *,R7
 USING  VNENTRY,R2                 19460                       USING VNENTRY,R2
 00310E 4120 5204            00204 19469                       LA    R2,RDVNAME
 003112 9610 5000      00000       19470                       SET   RDFSTR
 003116 D74F 2000 2000 00000 00000 19476                       CLEAR VNENTRY
                                   19483
                                   19484                       COMMENT                   SCAN VARIABLE NAME
 00311C 58E0 B08C/581E_      0008C 19485                       SCINFO ,
 00312A 4120 2000            00000 19494                       LA    R2,VNENTRY
 00312E 58E0 7526/0DEE       03634 19495                       VCALL SCNVNAME
 003134 47B0 7036            03144 19499                       IF    M,BEGIN
 003138 4110 7586/4100_      03694 19510  1                      ERROR 'STRING: missing option.'
 003144                            19517                       END
 003144 4780 7058            03166 19521                       IF    NZ,BEGIN
 003148 4110 5204/4100_      00204 19532  1                      TSEG  RDVNAME,L'VNNAME,T
 00315A 4110 74FA/4100_      03608 19562  1                      ERROR ': invalid variable name.'
 003166                            19569                       END
                                   19573
                                   19574                       COMMENT                   CHECK TO SEE IF NAME DECLARED
 003166 9001 D000/41D0_      00000 19575                       XPUSH R0,R1
 00316E 4110 5204            00204 19578                       LA    R1,RDVNAME
 003172 4120 5204            00204 19579                       LA    R2,RDVNAME
 003176 58E0 752E/0DEE       0363C 19580                       VCALL GETVAR
 00317C 4780 7084            03192 19584                       IF    NZ,BEGIN
 003180 58E0 7532/0DEE       03640 19595  1                      VCALL SEGVNAME
 003186 4110 7536/4100_      03644 19599  1                      ERROR ': undefined.'
 003192                            19606                       END
 003192 4BD0 756A/9801_      03678 19610                       XPOP  R0,R1
                                   19613
                                   19614                       COMMENT                   IF ARRAY, READ SUBSCRIPTS
 00319A 9504 2020/4770_00020       19615                       IF    VNARRAY,BEGIN
 0031A2 4120 5204            00204 19630  1                      LA    R2,RDVNAME
 0031A6 58E0 7542/0DEE       03650 19631  1                      VCALL GETSUBS
 0031AC 4770 C7D6            007D6 19635  1                      BNZ   CVERROR
 0031B0                            19636                       END
                                   19640
                                   19641                       COMMENT                   CONTINUE SCAN
 0031B0 58E0 B08C/501E_      0008C 19642                       SCINIT (R1),(R0)
 0031BE 58E0 B08C/D203_      0008C 19662                       SETSCKWS READKWS
 0031CC 1BFF                       19675                       CLEAR R15
 0031CE 18D8/9808 D004_            19679                       PEND
 DROP   *,R7
 DROP   VNENTRY,R2                 19699                       DROP  R2
 DROP   RDWA,R5                    19706                       DROP  R5
1EXEC     (EXEC2193) (12:44) (15MAR04) READ Command                                                                         Page   72
0Current Usings:  (CP,R11) (CV,R12)
0Loc    Object Code    Addr1 Addr2  Stmt Lv Lineno    Source Statement           (Hibal 5, Asmedit 3.3)  HLASM R4.0  2004/03/15 12.44
+___    ______ ____    _____ _____  ____ __ ______    ______ _________
0                                  19714                       ¿þþþþþþþþþþþþþþþþþþþþþþþþþþþþþþþþþþþþþþþþþþþþþþþþþþþþþþþþþþÜ
                                   19715                       Ÿ                                                          Ÿ
                                   19716                       Ÿ  SCANNED 'READ VALUE'                                    Ÿ
                                   19717                       Ÿ                                                          Ÿ
                                   19718                       Ÿ  GET VARIABLE NAME (MAY BE ARRAY) AND CONTNUE SCAN       Ÿ
                                   19719                       Ÿ  NOTE: WE ARE PHASING OUT VARIABLE LIST FORM OF COMMAND  Ÿ
                                   19720                       Ÿ  (EG. N0,N1,...). VARIABLE LIST NOT ALLOWED IN           Ÿ
                                   19721                       Ÿ  EXTENDED EXEC MODE BECAUSE THERE ARE NO PREDIFINED      Ÿ
                                   19722                       Ÿ  VARIABLES.                                              Ÿ
                                   19723                       ¾þþþþþþþþþþþþþþþþþþþþþþþþþþþþþþþþþþþþþþþþþþþþþþþþþþþþþþþþþþ»
 000000                00000 000B0 19724              RSVWA    RECORD BEGIN
 000000                            19732  1           RSVAREA    DS    XL(L'NSCNCB)
 0000B0                000B0 000B0 19733                       END
                                   19742
 0031DC 50E0 D000/9008_      00000 19743              RDSCNVAL PROC  RSVWA
 USING  *,R7
 USING  RSVWA-(4+36),R8
 USING  RDWA,R5                    19793                       USING RDWA,R5
 USING  VNENTRY,R2                 19802                       USING VNENTRY,R2
 0031F6 4120 5204            00204 19811                       LA    R2,RDVNAME
 0031FA 9620 5000      00000       19812                       SET   RDFVAL
 0031FE D74F 2000 2000 00000 00000 19818                       CLEAR VNENTRY
 003204 D713 51F0 51F0 001F0 001F0 19825                       CLEAR RDVLIST
                                   19832
                                   19833                       COMMENT                   CHECK FOR VARIABLE LIST,,
 00320A 58E0 B08C/D2AF_      0008C 19834                       SCPUSH ,
 003218 5810 B08C/1B00_      0008C 19840                       SCAN  ,
 003266 58E0 B08C/4BD0_      0008C 19871                       SCPOP ,                   MUST NOT, DOES NOT DIDDLE R15
 003274 1200/4720 7090             19877                       IF    (R0,NP),BEGIN
 00327A 4110 74B5/4100_      036AB 19891  1                      ERROR 'VALUE: missing operand.'
 003286                            19898                       END
 003286 58E0 7466/0DEE       0365C 19902                       ACALL CHECKNSW            IF NOT N0-N9, RETURNS R15=NZ
 00328C 9502 B759/4780_00759       19906                       IF    ~CPFXOLD,BEGIN      IN NEW EXEC MODE (IE NOT OLD)
 003294 41F0 0004            00004 19921  1                      LA    R15,4               VARIABLE LISTS NOT ALLOWED
 003298                            19922                       END
                                   19926
                                   19927                       COMMENT          GOT VARIABLE LIST (EG.  N0,N1,N2,... )
                                   19928                       COMMENT
                                   19929                       COMMENT                   PROCESS VARIABLE LIST
 003298 12FF/4770 716E             19930                       IF    (R15,Z),BEGIN       IF OLD TYPE,, IE MULT VAR NAMES,,,
 00329E 4130 0009            00009 19944  1                      LA    R3,RDMAXVAL+1
 0032A2 4140 51F0            001F0 19945  1                      LA    R4,RDVLIST
 0032A6 1233/47D0 7162             19946  1                      WHILE (R3,POS),BEGIN      LOOP READING IN VAR NAMES
 0032AC 58E0 B08C/D2AF_      0008C 19962  2                        SCSAVE AREA=RSVAREA
 0032B8 5810 B08C/1B00_      0008C 19971  2                        SCAN  ,
 003306 58E0 746A/0DEE       03660 20002  2                        SCANCHK
 00330C 1200/4720 712C             20007  2                        IF    (R0,NP),BEGIN
 003312 58E0 B08C/D2AF_      0008C 20021  3                          SCRSTR AREA=RSVAREA
 00331E 47F0 7214            0340A 20030  3                          B     RSVCONT
 003322                            20031  2                        END
 003322 58E0 7466/0DEE       0365C 20035  2                        ACALL CHECKNSW
 003328 4770 714A            03340 20039  2                        IF    Z,BEGIN             IF VALID VAR NAME,,
 00332C 5810 B08C/4111_      0008C 20050  3                          SCUPTOK R1
 003334 D201 4000 1000 00000 00000 20054  3                          MVC   0(2,R4),0(R1)          SAVE IT
1EXEC     (EXEC2193) (12:44) (15MAR04) READ Command                                                                         Page   73
0Current Usings:  (VNENTRY,R2) (RDWA,R5) (*,R7) (RSVWA-(4+36),R8) (CP,R11) (CV,R12)
0Loc    Object Code    Addr1 Addr2  Stmt Lv Lineno    Source Statement           (Hibal 5, Asmedit 3.3)  HLASM R4.0  2004/03/15 12.44
+___    ______ ____    _____ _____  ____ __ ______    ______ _________
000333A 4144 0002            00002 20055  3                          LA    R4,2(R4)
 00333E 0630                       20056  3                          DECR  R3
 003340                            20058  2                        END
 003340 714E/47F0 715E 03340 0332A 20062  2                        ELSE  BEGIN ,
 003344 58E0 B08C/D2AF_      0008C 20073  3                          SCRSTR AREA=RSVAREA          IF NOT VALID VAR NAME,
 003350 47F0 7214            0340A 20082  3                          B     RSVCONT               RESTORE SCAN PTRS, AND GO SCAN
 003354                            20083  2                        END
 003354 47F0 70B0            032A6 20087  1                      END
 003358 4110 74CC/4100_      036C2 20092  1                      ERROR 'Too many variables in value list.'
 003364                            20099                       END
                                   20103                       ¿þþþþþþþþþþþþþþþþþþþþþþþþþþþþþþþþþþþþþþþþþþþþþþþþþþþþþþþþþÜ
                                   20104                       Ÿ  GOT NEW READ VALUE, ONLY SINGLE VARIABLE NAME ALLOWED  Ÿ
                                   20105                       ¾þþþþþþþþþþþþþþþþþþþþþþþþþþþþþþþþþþþþþþþþþþþþþþþþþþþþþþþþþ»
 003364 7172/47F0 7214 03364 0329C 20106                       ELSE  BEGIN ,             SCAN VARIABLE NAME
 003368 58E0 B08C/581E_      0008C 20117  1                      SCINFO ,
 003376 4120 2000            00000 20126  1                      LA    R2,VNENTRY
 00337A 58E0 743E/0DEE       03634 20127  1                      VCALL SCNVNAME
 003380 47B0 719A            03390 20131  1                      IF    M,BEGIN
 003384 4110 7488/4100_      0367E 20142  2                        ERROR 'VALUE: missing option.'
 003390                            20149  1                      END
 003390 4780 71BC            033B2 20153  1                      IF    NZ,BEGIN
 003394 4110 5204/4100_      00204 20164  2                        TSEG  RDVNAME,L'VNNAME,T
 0033A6 4110 7412/4100_      03608 20194  2                        ERROR ': invalid variable name.'
 0033B2                            20201  1                      END
                                   20205  1
                                   20206  1                      COMMENT                   CHECK TO SEE IF NAME DECLARED
 0033B2 9001 D000/41D0_      00000 20207  1                      XPUSH R0,R1
 0033BA 4110 5204            00204 20210  1                      LA    R1,RDVNAME
 0033BE 4120 5204            00204 20211  1                      LA    R2,RDVNAME
 0033C2 58E0 7446/0DEE       0363C 20212  1                      VCALL GETVAR
 0033C8 4780 71E8            033DE 20216  1                      IF    NZ,BEGIN
 0033CC 58E0 744A/0DEE       03640 20227  2                        VCALL SEGVNAME
 0033D2 4110 744E/4100_      03644 20231  2                        ERROR ': undefined.'
 0033DE                            20238  1                      END
 0033DE 4BD0 7482/9801_      03678 20242  1                      XPOP  R0,R1
                                   20245  1
                                   20246  1                      COMMENT                   IF ARRAY, READ SUBSCRIPTS
 0033E6 9504 2020/4770_00020       20247  1                      IF    VNARRAY,BEGIN
 0033EE 4120 5204            00204 20262  2                        LA    R2,RDVNAME
 0033F2 58E0 745A/0DEE       03650 20263  2                        VCALL GETSUBS
 0033F8 4770 C7D6            007D6 20267  2                        BNZ   CVERROR
 0033FC                            20268  1                      END
                                   20272  1
                                   20273  1                      COMMENT                   CONTINUE SCAN
 0033FC 58E0 B08C/501E_      0008C 20274  1                      SCINIT (R1),(R0)
 00340A                            20294                       END
                                   20298
 00340A                            20299              RSVCONT  LABEL ,                   CONTINUE SCAN
 00340A 58E0 B08C/D203_      0008C 20301                       SETSCKWS READKWS
 003418 1BFF                       20314                       CLEAR R15
 00341A 18D8/9808 D004_            20318                       PEND
 DROP   RSVWA-(4+36),R8
 DROP   *,R7
 DROP   VNENTRY,R2                 20343                       DROP  R2
1EXEC     (EXEC2193) (12:44) (15MAR04) READ Command                                                                         Page   74
0Current Usings:  (CP,R11) (CV,R12)
0Loc    Object Code    Addr1 Addr2  Stmt Lv Lineno    Source Statement           (Hibal 5, Asmedit 3.3)  HLASM R4.0  2004/03/15 12.44
+___    ______ ____    _____ _____  ____ __ ______    ______ _________
0DROP   RDWA,R5                    20350                       DROP  R5
1EXEC     (EXEC2193) (12:44) (15MAR04) READSTR- READ STRING ROUTINE                                                         Page   75
0Current Usings:  (CP,R11) (CV,R12)
0Loc    Object Code    Addr1 Addr2  Stmt Lv Lineno    Source Statement           (Hibal 5, Asmedit 3.3)  HLASM R4.0  2004/03/15 12.44
+___    ______ ____    _____ _____  ____ __ ______    ______ _________
0                                  20358                       ¿þþþþþþþþþþþþþþþþþþþþþþþþþþþþþþþþþþþþþþþþÜ
                                   20359                       Ÿ  READ STRING COMMAND EXECUTION.        Ÿ
                                   20360                       Ÿ                                        Ÿ
                                   20361                       Ÿ  ON ENTRY:                             Ÿ
                                   20362                       Ÿ  R1,R0 - LOC, LEN OF STRING TO ASSIGN  Ÿ
                                   20363                       Ÿ  RDVNAME - NAME OF VARIABLE TO SAVE !  Ÿ
                                   20364                       ¾þþþþþþþþþþþþþþþþþþþþþþþþþþþþþþþþþþþþþþþþ»
 003428 50E0 D000/9008_      00000 20365              READSTR  PROC  ,
 USING  *,R7
 USING  RDWA,R5                    20404                       USING RDWA,R5
 USING  VNENTRY,R6                 20413                       USING VNENTRY,R6
 USING  XSENTRY,R4                 20422                       USING XSENTRY,R4
 003442 4160 5204            00204 20431                       LA    R6,RDVNAME          R6 - VARIABLE ENTRY W/NAME
 003446 4140 5354            00354 20432                       LA    R4,RDVVALUE         R4 - VARIABLE ENTRY W/VALUE
                                   20433
 00344A D74F 4000 4000 00000 00000 20434                       CLEAR XSENTRY
 003450 9201 4020      00020       20441                       SET   XSSTRING            SET STRING FLAG
 003454 1830                       20447                       LR    R3,R0
 003456 4030 4024            00024 20448                       STH   R3,XSSTRLEN         SAVE STRING LENGTH
 00345A 0630/1233/4740_            20449                       MOVE  R3,XSSTRLOC,@R1     SAVE STRING TEXT
 003466 1B00                       20487                       CLEAR R0
 003468 4110 4000            00000 20491                       LA    R1,XSENTRY
 00346C 4120 6000            00000 20492                       LA    R2,VNENTRY
 003470 58E0 7222/0DEE       03664 20493                       VCALL SAVEVAR             SAVE VARIABLE
 003476 4770 C7D6            007D6 20497                       BNZ   CVERROR
                                   20498
 00347A 47F0 C7DE            007DE 20499                       B     CVNEXT              GO GET NEXT COMMAND
 00347E 18D8/9808 D004_            20500                       PEND
 DROP   *,R7
 DROP   VNENTRY,R6                 20520                       DROP  R6
 DROP   RDWA,R5                    20527                       DROP  R5
 DROP   XSENTRY,R4                 20534                       DROP  R4
1EXEC     (EXEC2193) (12:44) (15MAR04) READVAL- READ VALUE ROUTINE                                                          Page   76
0Current Usings:  (CP,R11) (CV,R12)
0Loc    Object Code    Addr1 Addr2  Stmt Lv Lineno    Source Statement           (Hibal 5, Asmedit 3.3)  HLASM R4.0  2004/03/15 12.44
+___    ______ ____    _____ _____  ____ __ ______    ______ _________
0                                  20543              ¿þþþþþþþþþþþþþþþþþþþþþþþþþþþþþþþþþþþþþþþþþþþþþþþþþþþþþþþþþþþþþþþþþþþþþÜ
                                   20544              Ÿ                                                                     Ÿ
                                   20545              Ÿ                                                                     Ÿ
                                   20546              Ÿ       READ VALUE COMMAND EXECUTION.                                 Ÿ
                                   20547              Ÿ                                                                     Ÿ
                                   20548              Ÿ  ON ENTRY:                                                          Ÿ
                                   20549              Ÿ       R1,R0 - LOC LENGTH OF VALUES READ                             Ÿ
                                   20550              Ÿ       RDVNAME - NAME OF VARIABLE TO SAVE (NEW TYPE, SINGLE VALUE)   Ÿ
                                   20551              Ÿ       RDVLIST - NAMES OF VARS TO ASSIGN (OLD TYPE FOR N0,S0,W0,..)  Ÿ
                                   20552              Ÿ                                                                     Ÿ
                                   20553              Ÿ                                                                     Ÿ
                                   20554              Ÿ                                                                     Ÿ
                                                      ¾þþþþþþþþþþþþþþþþþþþþþþþþþþþþþþþþþþþþþþþþþþþþþþþþþþþþþþþþþþþþþþþþþþþþþ»
000348C 50E0 D000/9008_      00000 20555              READVAL  PROC  ,
 USING  *,R7
 USING  RDWA,R5                    20594                       USING RDWA,R5
 USING  VNENTRY,R6                 20603                       USING VNENTRY,R6
 USING  XSENTRY,R4                 20612                       USING XSENTRY,R4
 0034A6 4160 5204            00204 20621                       LA    R6,RDVNAME          R6 - VARIABLE ENTRY W/NAME
 0034AA 4140 5354            00354 20622                       LA    R4,RDVVALUE         R4 - VARIABLE ENTRY W/VALUE
 0034AE D74F 4000 4000 00000 00000 20623                       CLEAR XSENTRY
                                   20630                       ¿þþþþþþþþþþþþþþþþþþþþþþþþþþþþþþþþþþþþþþþþþþþþþþþþþþþþþþþþþþþÜ
                                   20631                       Ÿ  NEW TYPE READ VALUE, ACCEPTS A SINGLE NEW VARIABLE NAME  Ÿ
                                   20632                       ¾þþþþþþþþþþþþþþþþþþþþþþþþþþþþþþþþþþþþþþþþþþþþþþþþþþþþþþþþþþþ»
 0034B4 D513 714E 51F0_035F4 001F0 20633                       IF    (RDVLIST,EQ,0),BEGIN
                                   20651  1                      COMMENT                   R1,R0 - EXPRESSION LOC, LEN
 0034BE 4120 4000            00000 20652  1                      LA    R2,XSENTRY          R2 - EXPRESSION WORK AREA
 0034C2 58E0 71C2/0DEE       03668 20653  1                      VCALL EVALEXPR            EVALUATE EXPRESSION
 0034C8 4720 C7D6            007D6 20657  1                      BH    CVERROR
 0034CC 47B0 703A            034E0 20658  1                      IF    NEG,BEGIN           IF NULL, RETURN NULL STRING
 0034D0 D74F 4000 4000 00000 00000 20669  2                        CLEAR XSENTRY
 0034D6 9201 4020      00020       20676  2                        SET   XSSTRING
 0034DA D701 4024 4024 00024 00024 20682  2                        CLEAR XSSTRLEN
 0034E0                            20689  1                      END
 0034E0 58E0 71C6/0DEE       0366C 20693  1                      VCALL IGNOREND
                                   20697  1                      COMMENT
 0034E6 1B00                       20698  1                      CLEAR R0
 0034E8 4110 4000            00000 20702  1                      LA    R1,XSENTRY          R1 - AREA CONTAINING VALUE
 0034EC 4120 6000            00000 20703  1                      LA    R2,VNENTRY          R2 - AREA CONTAINING NAME
 0034F0 58E0 71BE/0DEE       03664 20704  1                      VCALL SAVEVAR             SAVE VARIABLE
 0034F6 4770 C7D6            007D6 20708  1                      BNZ   CVERROR
 0034FA                            20709                       END
                                   20713                   ¿þþþþþþþþþþþþþþþþþþþþþþþþþþþþþþþþþþþþþþþþþþþþþþþþþþþþþþþþþþþþþþþþþþþÜ
                                   20714                   Ÿ  OLD TYPE READ VALUE, ACCEPTS A VARIABLE LIST, (N0,N1,S0 ...ETC)  Ÿ
                                   20715                   ¾þþþþþþþþþþþþþþþþþþþþþþþþþþþþþþþþþþþþþþþþþþþþþþþþþþþþþþþþþþþþþþþþþþþ»
 0034FA D513 714E 51F0_035F4 001F0 20716                       IF    (RDVLIST,NE,0),BEGIN
 003504 D74F 6000 6000 00000 00000 20734  1                      CLEAR VNENTRY
 00350A D20F 6000 C4D8 00000 004D8 20741  1                      MVC   VNNAME,CVBLANKS
 003510 4130 51F0            001F0 20742  1                      LA    R3,RDVLIST          R3 - LIST OF VAR NAMES
 003514 9500 3000/4780_00000       20743  1                      WHILE (@R3,NE,0),BEGIN    LOOP
                                   20762  2                        COMMENT                   R1,R0 - EXPRESSION LOC, LEN
 00351C 4120 4000            00000 20763  2                        LA    R2,XSENTRY          R2 - EXPRESSION WORK, RETURN AREA
 003520 58E0 71C2/0DEE       03668 20764  2                        VCALL EVALEXPR
1EXEC     (EXEC2193) (12:44) (15MAR04) READVAL- READ VALUE ROUTINE                                                          Page   77
0Current Usings:  (XSENTRY,R4) (RDWA,R5) (VNENTRY,R6) (*,R7) (CP,R11) (CV,R12)
0Loc    Object Code    Addr1 Addr2  Stmt Lv Lineno    Source Statement           (Hibal 5, Asmedit 3.3)  HLASM R4.0  2004/03/15 12.44
+___    ______ ____    _____ _____  ____ __ ______    ______ _________
0003526 4720 C7D6            007D6 20768  2                        BH    CVERROR
 00352A 47B0 7098            0353E 20769  2                        IF    NEG,BEGIN           IF NULL RETURN NULL STRING
 00352E D74F 4000 4000 00000 00000 20780  3                          CLEAR XSENTRY
 003534 9201 4020      00020       20787  3                          SET   XSSTRING
 003538 D701 4024 4024 00024 00024 20793  3                          CLEAR XSSTRLEN
 00353E                            20800  2                        END
 00353E 9001 D000/41D0_      00000 20804  2                        XPUSH R0,R1
 003546 D20F 6000 C4D8 00000 004D8 20807  2                        MVC   VNNAME,CVBLANKS     MERGE VARIABLE NAME AND VALUE
 00354C D201 6000 3000 00000 00000 20808  2                        MVC   VNNAME(2),0(R3)
 003552 1B00                       20809  2                        CLEAR R0
 003554 4110 4000            00000 20813  2                        LA    R1,XSENTRY
 003558 4120 6000            00000 20814  2                        LA    R2,VNENTRY          R1,R2 - VARIABLE ENTRY
 00355C 58E0 71BE/0DEE       03664 20815  2                        VCALL SAVEVAR             SAVE VARIABLE
 003562 4770 C7D6            007D6 20819  2                        BNZ   CVERROR
 003566 4BD0 71D2/9801_      03678 20820  2                        XPOP  R0,R1               POP EXPRESSION POINTERS
 00356E 956B 1000/4770_00000       20823  2                        IF    ((@R1,EQ,C','),AND,(R0,POS)),BEGIN
 00357C 4111 0001            00001 20852  3                          LA    R1,1(R1)            SKIP COMMA BETWEEN EXPRNS, IF ANY
 003580 0600                       20853  3                          DECR  R0
 003582                            20855  2                        END
 003582 4133 0002            00002 20859  2                        LA    R3,2(R3)            POINT AT NEXT VARIABLE NAME
 003586 47F0 706E            03514 20860  1                      END   ,                   LOOP TO GET NEXT VARIABLE
 00358A 58E0 71C6/0DEE       0366C 20865  1                      VCALL IGNOREND
 003590                            20869                       END
                                   20873
 003590 47F0 C7DE            007DE 20874                       B     CVNEXT              DONE,,  SAY BYE BYE !
 003594 18D8/9808 D004_            20875                       PEND
 DROP   *,R7
 DROP   VNENTRY,R6                 20895                       DROP  R6
 DROP   RDWA,R5                    20902                       DROP  R5
 DROP   XSENTRY,R4                 20909                       DROP  R4
1EXEC     (EXEC2193) (12:44) (15MAR04) READVAL- READ VALUE ROUTINE                                                          Page   78
0Current Usings:  (CP,R11) (CV,R12)
0Loc    Object Code    Addr1 Addr2  Stmt Lv Lineno    Source Statement           (Hibal 5, Asmedit 3.3)  HLASM R4.0  2004/03/15 12.44
+___    ______ ____    _____ _____  ____ __ ______    ______ _________
0                                  20917              *
                                   20918              *  READ COMMAND -- EXECUTE COMMAND
                                   20919              *
                                   20920              *  R1,R0 - COMMAND LOC, LEN
                                   20921              *
 0035A2 50E0 D000/9008_      00000 20922              READCMD  PROC  ,
 USING  *,R7
                                   20961                       COMMENT                   R1,R0 - COMMAND LOC LENGTH
 0035BC 4000 B240            00240 20962                       STH   R0,CPCMDLEN
 0035C0 1820                       20963                       LR    R2,R0               SAVE CMD LOC, LEN IN CPCMD
 0035C2 0620/1222/4740_            20964                       MOVE  R2,CPCMD,@R1
                                   21002              *        MVC   CPLCNO,RDLINENO     SET LINE NUMBER FOR WRITECOM
                                   21003              *        IF    CPFLOG,BEGIN       IF EXEC LOG MODE
                                   21004              *        IF    CPFXTEND,EXIT       Don't do exec log for new execs
                                   21005              *        ACALL WRITECOM            GO WRITE OUT COMMAND
                                   21006              *        END
 0035CE 58E0 70B4/0DEE       03670 21007                       ACALL EXLOOPCK            GO CHECK FOR LOOP IN EXEC
                                   21011                       COMMENT
 0035D4 4110 B242            00242 21012                       LA    R1,CPCMD            R1,R0 - COMMAND LOC LEN
 0035D8 4800 B240            00240 21013                       LH    R0,CPCMDLEN
 0035DC 18D8                       21014                       LR    R13,R8              RESET R13 FOR NEW COMMAND
 0035DE 58E0 70B8/0DEE       03674 21015                       VCALL EDTCOM              GO EXECUTE COMMAND
 0035E4 18D8/9808 D004_            21019                       PEND
 DROP   *,R7
1EXEC     (EXEC2193) (12:44) (15MAR04) READVAL- READ VALUE ROUTINE                                                          Page   79
0Current Usings:  (CP,R11) (CV,R12)
0Loc    Object Code    Addr1 Addr2  Stmt Lv Lineno    Source Statement           (Hibal 5, Asmedit 3.3)  HLASM R4.0  2004/03/15 12.44
+___    ______ ____    _____ _____  ____ __ ______    ______ _________
0                                  21040                       QLTORG
1EXEC     (EXEC2193) (12:44) (15MAR04) WRITE Command                                                                        Page   80
0Current Usings:  (CP,R11) (CV,R12)
0Loc    Object Code    Addr1 Addr2  Stmt Lv Lineno    Source Statement           (Hibal 5, Asmedit 3.3)  HLASM R4.0  2004/03/15 12.44
+___    ______ ____    _____ _____  ____ __ ______    ______ _________
0                                  21082              ¿þþþþþþþþþþþþþþþþþþþþþþþþþþþþþþþþþþþþþþþþþþþþþþþþþþþþþþþþþþþþþþþþþþþþþÜ
                                   21083              Ÿ                                                                     Ÿ
                                   21084              Ÿ                                                                     Ÿ
                                   21085              Ÿ  WRITE -- WRITE Command.                                            Ÿ
                                   21086              Ÿ                                                                     Ÿ
                                   21087              Ÿ                                                                     Ÿ
                                   21088              Ÿ                                                                     Ÿ
                                                      ¾þþþþþþþþþþþþþþþþþþþþþþþþþþþþþþþþþþþþþþþþþþþþþþþþþþþþþþþþþþþþþþþþþþþþþ»
0000000                00000 00154 21089              WRITWA   RECORD BEGIN
 000000                            21097  1           WRITALN    DS    F                   Attn line-number (or -1 if none)
 000004                            21098  1           WRITXVAL   DS    XL(L'XSLENTRY)      EXPRESSION WORK, RETURN AREA
 000154                00154 00154 21099                       END
-                                  21109              ¿þþþþþþþþþþþþþþþþþþþþþþþþþþþþþþþþþþþþþþþþþþþþþþþþþþþþþþþþþþþþþþþþþþþþþÜ
                                   21110              Ÿ                                                                     Ÿ
                                   21111              Ÿ  WRITE -- WRITE Command.                                            Ÿ
                                   21112              Ÿ                                                                     Ÿ
                                                      ¾þþþþþþþþþþþþþþþþþþþþþþþþþþþþþþþþþþþþþþþþþþþþþþþþþþþþþþþþþþþþþþþþþþþþþ»
00036F6 50E0 D000/9008_      00000 21113              WRITE    XPROC WRITWA
 USING  *,R7
 USING  WRITWA-(4+36),R8
 003710 4160 8028            00000 21164                       LA    R6,WRITWA
 USING  WRITWA,R6                  21165                       USING WRITWA,R6
 003714 4120 6004            00004 21174                       LA    R2,WRITXVAL
 USING  XSENTRY,R2                 21175                       USING XSENTRY,R2
                                   21184
 003718 D203 6000 7760 00000 03E70 21185                       MVC   WRITALN,=F'-1'      NO ATTN LINENO
                                   21186
                                   21187                       COMMENT                   SCAN EXPRESSION
 00371E 58E0 B08C/581E_      0008C 21188                       SCINFO ,                  R1,R0 - EXPRESSION LOC, LENGTH
                                   21197                       COMMENT                   R2 - EXPRESSION VALUE RET AREA
 00372C 58E0 7764/0DEE       03E74 21198                       VCALL EVALEXPR            EVALUATE EXPRESSION
 003732 4720 C7D6            007D6 21202                       BH    CVERROR
 003736 47B0 7036            03746 21203                       IF    NEG,BEGIN
 00373A 4110 77E6/4100_      03EF6 21214  1                      ERROR 'Missing expression.'
 003746                            21221                       END
                                   21225
                                   21226                       COMMENT                   SCAN WRITE OPTIONS
 003746 58E0 B08C/501E_      0008C 21227                       SCINIT (R1),(R0)
 003754 5810 B08C/1B00_      0008C 21247                       SCAN WRPRT
 0037A6 58E0 7770/0DEE       03E80 21279                       SCANCHK
                                   21284
                                   21285                       COMMENT                   WRITE EXPRESSION VALUE
 0037AC 58E0 7774/0DEE       03E84 21286                       VCALL MAKESTR             CONVERT TO A STRING
 0037B2 4770 C7D6            007D6 21290                       IF    NZ,CVERROR
 0037B6 4110 2026            00026 21304                       LA    R1,XSSTRLOC
 0037BA 4800 2024            00024 21305                       LH    R0,XSSTRLEN         R1,R0 - STRING LOC, LEN
 0037BE 41F0 B050/58E0_      00050 21306                       TSEG  (R1),(R0)
 0037C8 41F0 B050/58E0_      00050 21330                       TMARK  ,
 0037D2 9180 BC7A/4710_00C7A       21344                       IF    ~CPFNONL,'TCR'
 0037E6 1B00/41F0 B050_            21389                       TWRITE                    WRITE STRING
1EXEC     (EXEC2193) (12:44) (15MAR04) WRITE Command                                                                        Page   81
0Current Usings:  (XSENTRY,R2) (WRITWA,R6) (*,R7) (WRITWA-(4+36),R8) (CP,R11) (CV,R12)
0Loc    Object Code    Addr1 Addr2  Stmt Lv Lineno    Source Statement           (Hibal 5, Asmedit 3.3)  HLASM R4.0  2004/03/15 12.44
+___    ______ ____    _____ _____  ____ __ ______    ______ _________
0                                  21414                       COMMENT
 0037F2 4780 7102            03812 21415                       IF    NZ,BEGIN            IF ATTENTION HIT,,
 0037F6 947F BC7A      00C7A       21426  1                      CLEAR CPFNONL
 0037FA D503 7788 6000_03E98 00000 21433  1                      IF    (WRITALN,EQ,-1),CVABORT
 003804 58F0 C1C8            001C8 21454  1                      L     R15,CVCURJCB
 003808 94FD F062      00062       21455  1                      WITH  (JCB,R15),'CLEAR JCBFATTN'
 USING  JCB,R15
 DROP   JCB,R15
 00380C D203 B760 6000 00760 00000 21485  1                      MVC   CPEXNEXT,WRITALN    Set new lineno
 003812                            21486                       END
 003812 47F0 C7DE            007DE 21490                       B     CVNEXT
 003816 18D8/9808 D004_            21491                       PEND
 DROP   WRITWA-(4+36),R8
 DROP   *,R7
 DROP   XSENTRY,R2                 21516                       DROP  R2
1EXEC     (EXEC2193) (12:44) (15MAR04) WRITE Command                                                                        Page   82
0Current Usings:  (WRITWA,R6) (CP,R11) (CV,R12)
0Loc    Object Code    Addr1 Addr2  Stmt Lv Lineno    Source Statement           (Hibal 5, Asmedit 3.3)  HLASM R4.0  2004/03/15 12.44
+___    ______ ____    _____ _____  ____ __ ______    ______ _________
0003824 C1E3E3D540404040_          21524              WRPRT    SCKW  ATTN,WRATTN,A
 00384C D5D6D5D340404040_          21539                       SCKW  NONL,WRNONL,A
 003874 E3D9C1D5E2D7C1D9_          21554                       SCKW  TRANSPARENT,WRTRAN,A
 00389C D5D6E3D9C1D5E2D7_          21569                       SCKW  NOTRANSPARENT,WRNTRAN,A
 0038C4 D4D6C4C5D3404040_          21584                       SCKW  MODEL,WRMOD,A
 0038EC D5D6D4D6C4C5D340_          21599                       SCKW  NOMODEL,WRNMOD,A
 003914 C6D6D9D4C1E3E3C5_          21614                       SCKW  FORMATTED,WRFMT,A
 00393C E4D5C6D6D9D4C1E3_          21629                       SCKW  UNFORMATTED,WRUFMT,A
 003964 C3D3C5C1D5404040_          21644                       SCKW  CLEAN,WRCLEAN,A
 00398C C6D6D9C3C5404040_          21659                       SCKW  FORCE,WRFORCE,A
 0039B4 4040404040404040_          21674                       SCKW  ,V(SCNINVAL)
                                   21689
 0039DC 50E0 D000/9008_      00000 21690              WRATTN   PROC  ,
 USING  *,R7
 0039F6 58E0 74A6/0DEE       03E9C 21729                       VCALL ATTNLINE
 0039FC 5000 6000            00000 21733                       ST    R0,WRITALN          Save attn lineno
 003A00 58E0 74AA/0DEE       03EA0 21734                       ACALL ALLOWATN            Allow attn
 003A06 1BFF                       21738                       CLEAR R15
 003A08 18D8/9808 D004_            21742                       PEND
 DROP   *,R7
                                   21762
 003A16 50E0 D000/9008_      00000 21763              WRNONL   DPROC ,
 USING  *,R7
 003A30 9680 BC7A      00C7A       21803                       SET   CPFNONL
 003A34 18D8/9808 D004_            21809                       PEND
 DROP   *,R7
                                   21829
 003A42 50E0 D000/9008_      00000 21830              WRTRAN   DPROC ,
 USING  *,R7
 003A5C 9680 BC7C/9680_00C7C       21870                       SET   CPFTRAN,CPFNONL
 003A64 18D8/9808 D004_            21880                       PEND
 DROP   *,R7
                                   21900
 003A72 50E0 D000/9008_      00000 21901              WRNTRAN  DPROC ,
 USING  *,R7
 003A8C 947F BC7C      00C7C       21941                       CLEAR CPFTRAN
 003A90 18D8/9808 D004_            21948                       PEND
 DROP   *,R7
                                   21968
 003A9E 50E0 D000/9008_      00000 21969              WRMOD    DPROC ,
 USING  *,R7
 003AB8 94EF BC7C      00C7C       22009                       CLEAR CPFNMOD
 003ABC 18D8/9808 D004_            22016                       PEND
 DROP   *,R7
                                   22036
 003ACA 50E0 D000/9008_      00000 22037              WRNMOD   DPROC ,
 USING  *,R7
 003AE4 9610 BC7C      00C7C       22077                       SET   CPFNMOD
 003AE8 18D8/9808 D004_            22083                       PEND
 DROP   *,R7
                                   22103
 003AF6 50E0 D000/9008_      00000 22104              WRFMT    DPROC ,
 USING  *,R7
 003B10 94F7 BC7C      00C7C       22144                       CLEAR CPFUFMT
1EXEC     (EXEC2193) (12:44) (15MAR04) WRITE Command                                                                        Page   83
0Current Usings:  (WRITWA,R6) (CP,R11) (CV,R12)
0Loc    Object Code    Addr1 Addr2  Stmt Lv Lineno    Source Statement           (Hibal 5, Asmedit 3.3)  HLASM R4.0  2004/03/15 12.44
+___    ______ ____    _____ _____  ____ __ ______    ______ _________
0003B14 18D8/9808 D004_            22151                       PEND
 DROP   *,R7
                                   22171
 003B22 50E0 D000/9008_      00000 22172              WRUFMT   DPROC ,
 USING  *,R7
 003B3C 9608 BC7C      00C7C       22212                       SET   CPFUFMT
 003B40 18D8/9808 D004_            22218                       PEND
 DROP   *,R7
                                   22238
 003B4E 50E0 D000/9008_      00000 22239              WRCLEAN  DPROC
 USING  *,R7
 003B68 9680 BC7B      00C7B       22279                       SET   CPFCLEAN
 003B6C 18D8/9808 D004_            22285                       PEND
 DROP   *,R7
                                   22305
 003B7A 50E0 D000/9008_      00000 22306              WRFORCE  DPROC ,
 USING  *,R7
 003B94 9604 BC7C      00C7C       22346                       SET   CPFFORCE
 003B98 18D8/9808 D004_            22352                       PEND
 DROP   *,R7
 DROP   WRITWA,R6                  22372                       DROP  R6
1EXEC     (EXEC2193) (12:44) (15MAR04) COMMENT Command                                                                      Page   84
0Current Usings:  (CP,R11) (CV,R12)
0Loc    Object Code    Addr1 Addr2  Stmt Lv Lineno    Source Statement           (Hibal 5, Asmedit 3.3)  HLASM R4.0  2004/03/15 12.44
+___    ______ ____    _____ _____  ____ __ ______    ______ _________
0                                  22380              ¿þþþþþþþþþþþþþþþþþþþþþþþþþþþþþþþþþþþþþþþþþþþþþþþþþþþþþþþþþþþþþþþþþþþþþÜ
                                   22381              Ÿ                                                                     Ÿ
                                   22382              Ÿ                                                                     Ÿ
                                   22383              Ÿ  COMMENT -- COMMENT Command.                                        Ÿ
                                   22384              Ÿ                                                                     Ÿ
                                   22385              Ÿ                                                                     Ÿ
                                   22386              Ÿ                                                                     Ÿ
                                                      ¾þþþþþþþþþþþþþþþþþþþþþþþþþþþþþþþþþþþþþþþþþþþþþþþþþþþþþþþþþþþþþþþþþþþþþ»
0003BA6 50E0 D000/9008_      00000 22387              COMMENT  XPROC ,
 USING  *,R7
 003BC0 58E0 B08C/581E_      0008C 22427                       SCINFO
 003BCE 1200/47D0 7022_            22436                       IF    ((R0,POS),AND,(@R1,EQ,' ')),BEGIN
 003BDC 5E10 72E4            03EA4 22465  1                      INCR  R1
 003BE0 0600                       22468  1                      DECR  R0
 003BE2                            22470                       END
 003BE2 41F0 B050/58E0_      00050 22474                       TSEG  (R1),(R0),CR
 003BEC 47F0 C7DE            007DE 22498                       B     CVNEXT
 003BF0 18D8/9808 D004_            22499                       PEND
 DROP   *,R7
1EXEC     (EXEC2193) (12:44) (15MAR04) WAIT Command                                                                         Page   85
0Current Usings:  (CP,R11) (CV,R12)
0Loc    Object Code    Addr1 Addr2  Stmt Lv Lineno    Source Statement           (Hibal 5, Asmedit 3.3)  HLASM R4.0  2004/03/15 12.44
+___    ______ ____    _____ _____  ____ __ ______    ______ _________
0000000                00000 00001 22520              WAITWA   RECORD BEGIN
 000000 00                         22528  1           WAITFLAG   FLAG
 WAITFLAG.WAITFINT 80 ONES         22532  1                      FLAG  WAITFINT            - Interruptible
 000001                00001 00001 22537                       END
-                                  22547              ¿þþþþþþþþþþþþþþþþþþþþþþþþþþþþþþþþþþþþþþþþþþþþþþþþþþþþþþþþþþþþþþþþþþþþþÜ
                                   22548              Ÿ                                                                     Ÿ
                                   22549              Ÿ  WAIT -- WAIT Command.                                              Ÿ
                                   22550              Ÿ                                                                     Ÿ
                                                      ¾þþþþþþþþþþþþþþþþþþþþþþþþþþþþþþþþþþþþþþþþþþþþþþþþþþþþþþþþþþþþþþþþþþþþþ»
0003BFE 50E0 D000/9008_      00000 22551              WAIT     XPROC WAITWA
 USING  *,R7
 USING  WAITWA-(4+36),R8
 003C18 4160 8028            00000 22602                       LA    R6,WAITWA
 USING  WAITWA,R6                  22603                       USING WAITWA,R6
 003C1C 9200 6000      00000       22612                       CLEAR WAITWA
                                   22619
 003C20 1B33                       22620                       CLEAR R3                  No wait time
 003C22 5840 7258            03E70 22624                       L     R4,=F'-1'           No ATTN line number
 003C26 5810 B08C/1B00_      0008C 22625                       SCAN  WAITPRT             Scan for options
 003C78 58E0 7268/0DEE       03E80 22657                       SCANCHK
 003C7E 1233/4770 7078             22662                       IF    (R3,Z),BEGIN
 003C84 4110 72AA/4100_      03EC2 22676  1                      ERROR 'Missing number of seconds to wait.'
 003C90                            22683                       END
                                   22687
 003C90 1B22                       22688                       CLEAR R2
 003C92 5D20 7294            03EAC 22692                       D     R2,=A(10)           Convert .001 to .01
 003C96 5920 7298/4750_      03EB0 22693                       IF    (R2,GE,5),'LA R3,@R3+1'
                                   22716
 003CA2 5930 729C/47D0_      03EB4 22717                       IF    (R3,GT,=A(60*60*24*100)),BEGIN  Be reasonable...
 003CAA 4110 72F1/4100_      03F09 22733  1                      TSEG  'I can''t wait that long.  '
 003CBC 4110 72CC/4100_      03EE4 22751  1                      ERROR 'That''s over a day!'
 003CC8                            22758                       END
 003CC8 18F3                       22762                       LR    R15,R3              Load the wait time
 003CCA 9180 6000/47E0_00000       22763                       IF    WAITFINT,'LNR R15,R15'  Wait is interruptible
 003CD4 58E0 72A0/0DEE       03EB8 22784                       VCALL WAITER              Wait a bit
                                   22788
 003CDA 12FF/4780 70DC_            22789                       IF    ((R15,NZ),AND,(R4,NE,-1)),BEGIN
 003CE8 58F0 C1C8            001C8 22818  1                      L     R15,CVCURJCB        Reset ATTN status
 003CEC 94FD F062      00062       22819  1                      WITH  (JCB,R15),'CLEAR JCBFATTN'
 USING  JCB,R15
 DROP   JCB,R15
 003CF0 5040 B760            00760 22849  1                      ST    R4,CPEXNEXT         Set new EXEC line number
 003CF4                            22850                       END
 003CF4 47F0 C7DE            007DE 22854                       B     CVNEXT
 003CF8 18D8/9808 D004_            22855                       PEND
 DROP   WAITWA-(4+36),R8
 DROP   *,R7
-                                  22881              ***
                                   22882              ***  Wait options.
1EXEC     (EXEC2193) (12:44) (15MAR04) WAIT Command                                                                         Page   86
0Current Usings:  (WAITWA,R6) (CP,R11) (CV,R12)
0Loc    Object Code    Addr1 Addr2  Stmt Lv Lineno    Source Statement           (Hibal 5, Asmedit 3.3)  HLASM R4.0  2004/03/15 12.44
+___    ______ ____    _____ _____  ____ __ ______    ______ _________
0                                  22883              ***
 003D08 4040404040404040_          22884              WAITPRT  SCKW  ,WAITSEC,LN
 003D30 C1E3E3D540404040_          22899                       SCKW  ATTN,WAITATTN,A
 003D58 C1E3E3C5D5E3C9D6_          22914                       SCKW  ATTENTION,WAITATTN,A
 003D80 C9D5E3C5D9D9E4D7_          22929                       SCKW  INTERRUPT,WAITINT,A
 003DA8 4040404040404040_          22944                       SCKW  ,V(SCNINVAL)
0003DD0 50E0 D000/9008_      00000 22960              WAITSEC  PROC  ,
 USING  *,R7
 003DEA 1830                       22999                       LR    R3,R0               Copy wait value
 003DEC 5038 0010            00010 23000                       PRETURN (R3)
 003DF0 1BFF                       23002                       CLEAR R15
 003DF2 18D8/9808 D004_            23006                       PEND
 DROP   *,R7
                                   23026
 003E00 50E0 D000/9008_      00000 23027              WAITINT  DPROC ,
 USING  *,R7
 003E1A 9680 6000      00000       23067                       SET   WAITFINT            Interruptable
 003E1E 1BFF                       23073                       CLEAR R15
 003E20 18D8/9808 D004_            23077                       PEND
 DROP   *,R7
                                   23097
 003E2E 50E0 D000/9008_      00000 23098              WAITATTN PROC  ,
 USING  *,R7
 003E48 58E0 7054/0DEE       03E9C 23137                       VCALL ATTNLINE
 003E4E 1840                       23141                       LR    R4,R0               R4 attn line number
 003E50 58E0 7058/0DEE       03EA0 23142                       ACALL ALLOWATN            Allow attn
 003E56 5048 0014            00014 23146                       PRETURN (R4)
 003E5A 1BFF                       23148                       CLEAR R15
 003E5C 18D8/9808 D004_            23152                       PEND
 DROP   *,R7
                                   23172
 DROP   WAITWA,R6                  23173                       DROP  R6
1EXEC     (EXEC2193) (12:44) (15MAR04) WAIT Command                                                                         Page   87
0Current Usings:  (CP,R11) (CV,R12)
0Loc    Object Code    Addr1 Addr2  Stmt Lv Lineno    Source Statement           (Hibal 5, Asmedit 3.3)  HLASM R4.0  2004/03/15 12.44
+___    ______ ____    _____ _____  ____ __ ______    ______ _________
0                                  23181                       QLTORG
1EXEC     (EXEC2193) (12:44) (15MAR04) ON ERROR/ON ATTENTION routines                                                       Page   88
0Current Usings:  (CP,R11) (CV,R12)
0Loc    Object Code    Addr1 Addr2  Stmt Lv Lineno    Source Statement           (Hibal 5, Asmedit 3.3)  HLASM R4.0  2004/03/15 12.44
+___    ______ ____    _____ _____  ____ __ ______    ______ _________
0                                  23219              ¿þþþþþþþþþþþþþþþþþþþþþþþþþþþþþþþþþþþþþþþþþþþþþþþþþþþþþþþþþþþþþþþþþþþþþÜ
                                   23220              Ÿ                                                                     Ÿ
                                   23221              Ÿ                                                                     Ÿ
                                   23222              Ÿ  ON ERROR --                                                        Ÿ
                                   23223              Ÿ  ON ATTENTION --                                                    Ÿ
                                   23224              Ÿ  ON HOST --                                                         Ÿ
                                   23225              Ÿ                                                                     Ÿ
                                   23226              Ÿ  NOTE:                                                              Ÿ
                                   23227              Ÿ    THIS CMD PROCESSES ON ERROR OR ON ATTN,  THE 'ON HOST'           Ÿ
                                   23228              Ÿ    COMMAND WAS ADDED LATER, IT IS PROCESSED ELSEWHERE.              Ÿ
                                   23229              Ÿ    SEE ONHOST ROUTINE BELOW. 'ON HOST' IS A NETWORK COMMAND.        Ÿ
                                   23230              Ÿ                                                                     Ÿ
                                   23231              Ÿ  NOTE: EACH EXEC (XPROC) CAN SET UP ITS OWN ON ERROR/ATTN           Ÿ
                                   23232              Ÿ    EXITS AND PROCESSIONG.  ON ERROR/ATTN INFO IS PUSHED AND         Ÿ
                                   23233              Ÿ    POPPED FOR EACH EXEC ON THE VARIABLE STACK.  SEE DETAILS         Ÿ
                                   23234              Ÿ    BELOW.                                                           Ÿ
                                   23235              Ÿ                                                                     Ÿ
                                   23236              Ÿ                                                                     Ÿ
                                   23237              Ÿ                                                                     Ÿ
                                                      ¾þþþþþþþþþþþþþþþþþþþþþþþþþþþþþþþþþþþþþþþþþþþþþþþþþþþþþþþþþþþþþþþþþþþþþ»
0                                  23238              þþþþ
 003F22 50E0 D000/9008_      00000 23239              ON       XPROC
 USING  *,R7
                                   23279
                                   23280                       COMMENT                   SCAN ON CONDITION
 003F3C 5810 B08C/1B00_      0008C 23281                       SCAN  ONCPRT
 003F8E 58E0 796C/0DEE       048A8 23313                       SCANCHK
 003F94 47F0 C7DE            007DE 23318                       B     CVNEXT
 003F98 18D8/9808 D004_            23319                       PEND
 DROP   *,R7
-
0                                  23340                  ¿þþþþþþþþþþþþþþþþþþþþþþþþþþþþþþþþþþþþþþþþþþþþþþþþþþþþþþþþþþþþþÜ
                                   23341                  Ÿ  IF NOT 'ON ATTN' OR 'ON ERROR' ,,, WE HAVE 'ON HOST ' ...  Ÿ
                                   23342                  Ÿ                                                             Ÿ
                                   23343                  Ÿ  WE DO IT TO IT !                                           Ÿ
                                   23344                  ¾þþþþþþþþþþþþþþþþþþþþþþþþþþþþþþþþþþþþþþþþþþþþþþþþþþþþþþþþþþþþþ»
 003FA6 50E0 D000/9008_      00000 23345              ONHOST   PROC ,
 USING  *,R7
 003FC0 58E0 B08C/58FE_      0008C 23384                       SCBKUP
 003FF6 4110 7986/4100_      04946 23440                       SETMSG 'PUB.SYSCMD_ON'    EXEC COMMAND STORED HERE
 003FFE 58E0 78EC/0DEE       048AC 23444                       VCALL GBLCMD
                                   23448                       COMMENT                   DOES NOT RETURN
 004004 18D8/9808 D004_            23449                       PEND ,
 DROP   *,R7
-
1EXEC     (EXEC2193) (12:44) (15MAR04) ON ERROR/ON ATTENTION routines                                                       Page   89
0Current Usings:  (CP,R11) (CV,R12)
0Loc    Object Code    Addr1 Addr2  Stmt Lv Lineno    Source Statement           (Hibal 5, Asmedit 3.3)  HLASM R4.0  2004/03/15 12.44
+___    ______ ____    _____ _____  ____ __ ______    ______ _________
0                                  23470                       ¿þþþþþþþþþþþþþþþþþþþþþÜ
                                   23471                       Ÿ  NULL ON ATTN SCAN  Ÿ
                                   23472                       ¾þþþþþþþþþþþþþþþþþþþþþ»
 004012 50E0 D000/9008_      00000 23473              ONCNULL  PROC  ,
 USING  *,R7
 00402C D207 B886 7814_00886 04840 23512                       ERROR 'Missing option after ON.',,SYNTAX
 00403E 18D8/9808 D004_            23520                       PEND
 DROP   *,R7
-
0                                  23541                       ¿þþþþþþþþþþþþþþþþþþþþþþþþþþþþþþþÜ
                                   23542                       Ÿ  SCAN TABLE FOR ON CONDITION  Ÿ
                                   23543                       ¾þþþþþþþþþþþþþþþþþþþþþþþþþþþþþþþ»
 00404C C5D9D9D6D9404040_          23544              ONCPRT   SCKW  ERROR,ONERROR       ON COMMAND OPTIONS
 004074 C5D9D94040404040_          23559                       SCKW  ERR,ONERROR
 00409C C1E3E3C5D5E3C9D6_          23574                       SCKW  ATTENTION,ONATTN
 0040C4 C1E3E3D540404040_          23589                       SCKW  ATTN,ONATTN
 0040EC 4040404040404040_          23604                       SCKW  ,ONCNULL,NULL
 004114 4040404040404040_          23619                       SCKW  ,ONHOST             IF UNRECOGNIZED, WE HAVE 'ON HOST'
000413C C3D6D4D4C1D5C440_          23635              ONEPRT   SCKW  COMMAND,ONECMD,(P)  ON ERROR OPTIONS
 004164 C3D4C44040404040_          23650                       SCKW  CMD,ONECMD,(P)
 00418C C3D3D94040404040_          23665                       SCKW  CLR,ONECLEAR
 0041B4 C3D3C5C1D9404040_          23680                       SCKW  CLEAR,ONECLEAR,A
 0041DC D9C5C5D5C1C2D3C5_          23695                       SCKW  REENABLE,ONEREEN,A
 004204 D9C5E2C5E3404040_          23710                       SCKW  RESET,ONEREEN,A
 00422C 4040404040404040_          23725                       SCKW  ,ONENULL,NULL
 004254 4040404040404040_          23740                       SCKW  ,V(SCNINVAL)
000427C C3D6D4D4C1D5C440_          23756              ONAPRT   SCKW  COMMAND,ONACMD,(P)  ON ATTN OPTIONS
 0042A4 C3D4C44040404040_          23771                       SCKW  CMD,ONACMD,(P)
 0042CC C3D3D94040404040_          23786                       SCKW  CLR,ONACLEAR
 0042F4 C3D3C5C1D9404040_          23801                       SCKW  CLEAR,ONACLEAR,A
 00431C D9C5C5D5C1C2D3C5_          23816                       SCKW  REENABLE,ONAREEN,A
 004344 D9C5E2C5E3404040_          23831                       SCKW  RESET,ONAREEN,A
 00436C C9D5E3C5D9D9E4D7_          23846                       SCKW  INTERRUPTIBLE,ONAINT,A
 004394 D5D6C9D5E3C5D9D9_          23861                       SCKW  NOINTERRUPTIBLE,ONANOINT,A
 0043BC 4040404040404040_          23876                       SCKW  ,ONANULL,NULL
 0043E4 4040404040404040_          23891                       SCKW  ,V(SCNINVAL)
1EXEC     (EXEC2193) (12:44) (15MAR04) ON ERROR/ON ATTENTION routines                                                       Page   90
0Current Usings:  (CP,R11) (CV,R12)
0Loc    Object Code    Addr1 Addr2  Stmt Lv Lineno    Source Statement           (Hibal 5, Asmedit 3.3)  HLASM R4.0  2004/03/15 12.44
+___    ______ ____    _____ _____  ____ __ ______    ______ _________
0                                  23907              ¿þþþþþþþþþþþþþþþþþþþþþþþþþþþþþþþþþþþþþþþþþþþþþþþþþþþþþþþþþþþþþþþþþþþþþÜ
                                   23908              Ÿ                                                                     Ÿ
                                   23909              Ÿ                                                                     Ÿ
                                   23910              Ÿ  ON ERROR  ...                                                      Ÿ
                                   23911              Ÿ                                                                     Ÿ
                                   23912              Ÿ                                                                     Ÿ
                                   23913              Ÿ                                                                     Ÿ
                                                      ¾þþþþþþþþþþþþþþþþþþþþþþþþþþþþþþþþþþþþþþþþþþþþþþþþþþþþþþþþþþþþþþþþþþþþþ»
000440C 50E0 D000/9008_      00000 23914              ONERROR  PROC  ,
 USING  *,R7
                                   23953
 004426 9180 B758/4710_00758       23954                       IF    ~CPFEXEC,BEGIN      In command mode...
 00442E 4110 743A/4100_      04860 23969  1                      TSEG  'ON <condition>: command ignored.',,CR
 004440 4110 748E/4100_      048B4 23987  1                      TSEG  'Flow control statements may be used only in '
 004452 4110 752D/4100_      04953 24005  1                      ERROR 'EXEC files.'
 00445E                            24012                       END
                                   24016
                                   24017                       COMMENT                   SCAN ON ERROR OPTIONS
 00445E 5810 B08C/1B00_      0008C 24018                       SCAN  ONEPRT
 0044B0 58E0 7482/0DEE       048A8 24050                       SCANCHK
 0044B6 47F0 C7DE            007DE 24055                       B     CVNEXT
 0044BA 18D8/9808 D004_            24056                       PEND
 DROP   *,R7
0                                  24077                        ¿þþþþþþþþþþþþþþþþþþþþþþþþþþþÜ
                                   24078                        Ÿ  ON ERROR COMMAND=' ...'  Ÿ
                                   24079                        ¾þþþþþþþþþþþþþþþþþþþþþþþþþþþ»
 0044C8 50E0 D000/9008_      00000 24080              ONECMD   PROC  ,                   ON ERROR COMMAND SPECIFIED
 USING  *,R7
                                   24119                       COMMENT                   GET QUOTED COMMAND
 0044E2 58E0 7406/0DEE       048E8 24120                       VCALL DEQUOTE
 0044E8 47B0 7026            04508 24124                       IF    NEG,BEGIN
 0044EC 41F0 B050/58E0_      00050 24135  1                      TSEG  (R1),(R0)
 0044F6 D207 B886 735E_00886 04840 24159  1                      ERROR ': invalid.  Quotes required.',,SYNTAX
 004508                            24167                       END
                                   24171                       COMMENT                   SAVE COMMAND
                                   24172                       COMMENT                   R0 - COMMAND LENGTH
                                   24173                       COMMENT                   @R1 - COMMAND TEXT
 004508 4120 739E            04880 24174                       LA    R2,=CL16'SYS.ONERROR     '
 00450C 58E0 7426/0DEE       04908 24175                       VCALL SAVEDATA
                                   24179                       COMMENT
 004512 9140 B479/4710_00479       24180                       IF    ~CPFDDERR,BEGIN     IF ON ERROR NOT SUSPENDED,
 00451A 9680 B479      00479       24195  1                      SET   CPFONERR            TURN ON ON ERROR CONDITION SET
 00451E                            24201                       END
 00451E 1BFF                       24205                       CLEAR R15                 KEEP SCANNING
 004520 18D8/9808 D004_            24209                       PEND
 DROP   *,R7
                                   24229                        ¿þþþþþþþþþþþþþþþþþþÜ
                                   24230                        Ÿ  ON ERROR CLEAR  Ÿ
                                   24231                        ¾þþþþþþþþþþþþþþþþþþ»
 00452E 50E0 D000/9008_      00000 24232              ONECLEAR PROC  ,                   IF CLEAR, TURN OFF ON ERROR
 USING  *,R7
 004548 947F B479      00479       24271                       CLEAR CPFONERR
1EXEC     (EXEC2193) (12:44) (15MAR04) ON ERROR/ON ATTENTION routines                                                       Page   91
0Current Usings:  (*,R7) (CP,R11) (CV,R12)
0Loc    Object Code    Addr1 Addr2  Stmt Lv Lineno    Source Statement           (Hibal 5, Asmedit 3.3)  HLASM R4.0  2004/03/15 12.44
+___    ______ ____    _____ _____  ____ __ ______    ______ _________
000454C 94BF B479      00479       24278                       CLEAR CPFDDERR
 004550 1BFF                       24285                       CLEAR R15                 KEEP SCANNING
 004552 18D8/9808 D004_            24289                       PEND
 DROP   *,R7
                                   24309                       ¿þþþþþþþþþþþþþþþþþþþþþÜ
                                   24310                       Ÿ  ON ERROR REENABLE  Ÿ
                                   24311                       ¾þþþþþþþþþþþþþþþþþþþþþ»
 004560 50E0 D000/9008_      00000 24312              ONEREEN  PROC  ,                   IF RESET, RE-ENABLE ON ERROR CMD
 USING  *,R7
 00457A 9180 B479/4710_00479       24351                       IF    (CPFONERR,OR,CPFDDERR),BEGIN    IF ON ERROR,
 00458A 9680 B479      00479       24380  1                      SET   CPFONERR            SET ON ERROR
 00458E 94BF B479      00479       24386  1                      CLEAR CPFDDERR            CLEAR ON ERROR SUSPENDED
 004592                            24393                       END
 004592 701C/47F0 7028 04592 04588 24397                       ELSE  BEGIN
 004596 4110 7392/4100_      0490C 24408  1                      ERROR 'ON ERROR condition not disabled: unable to reenable.'
 0045A2                            24415                       END
 0045A2 1BFF                       24419                       CLEAR R15
 0045A4 18D8/9808 D004_            24423                       PEND
 DROP   *,R7
                                   24443                       ¿þþþþþþþþþþþþþþþþþþþþþþÜ
                                   24444                       Ÿ  NULL ON ERROR SCAN  Ÿ
                                   24445                       ¾þþþþþþþþþþþþþþþþþþþþþþ»
 0045B2 50E0 D000/9008_      00000 24446              ONENULL  PROC  ,
 USING  *,R7
 0045CC D207 B886 7274_00886 04840 24485                       ERROR 'Missing ON ERROR options.',,SYNTAX
 0045DE 18D8/9808 D004_            24493                       PEND
 DROP   *,R7
1EXEC     (EXEC2193) (12:44) (15MAR04) ON ERROR/ON ATTENTION routines                                                       Page   92
0Current Usings:  (CP,R11) (CV,R12)
0Loc    Object Code    Addr1 Addr2  Stmt Lv Lineno    Source Statement           (Hibal 5, Asmedit 3.3)  HLASM R4.0  2004/03/15 12.44
+___    ______ ____    _____ _____  ____ __ ______    ______ _________
0                                  24514              ¿þþþþþþþþþþþþþþþþþþþþþþþþþþþþþþþþþþþþþþþþþþþþþþþþþþþþþþþþþþþþþþþþþþþþþÜ
                                   24515              Ÿ                                                                     Ÿ
                                   24516              Ÿ                                                                     Ÿ
                                   24517              Ÿ  ON ATTENTION ...                                                   Ÿ
                                   24518              Ÿ                                                                     Ÿ
                                   24519              Ÿ                                                                     Ÿ
                                   24520              Ÿ                                                                     Ÿ
                                                      ¾þþþþþþþþþþþþþþþþþþþþþþþþþþþþþþþþþþþþþþþþþþþþþþþþþþþþþþþþþþþþþþþþþþþþþ»
00045EC 50E0 D000/9008_      00000 24521              ONATTN   XPROC ,
 USING  *,R7
                                   24561
 004606 9180 B758/4710_00758       24562                       IF    ~CPFEXEC,BEGIN      In command mode...
 00460E 4110 725A/4100_      04860 24577  1                      TSEG  'ON <condition>: command ignored.',,CR
 004620 4110 72AE/4100_      048B4 24595  1                      TSEG  'Flow control statements may be used only in '
 004632 4110 734D/4100_      04953 24613  1                      ERROR 'EXEC files.'
 00463E                            24620                       END
                                   24624
                                   24625                       COMMENT                   SCAN ON ATTN OPTIONS
 00463E 5810 B08C/1B00_      0008C 24626                       SCAN ONAPRT
 004690 58E0 72A2/0DEE       048A8 24658                       SCANCHK
 004696 47F0 C7DE            007DE 24663                       B     CVNEXT
 00469A 18D8/9808 D004_            24664                       PEND
 DROP   *,R7
0                                  24685                        ¿þþþþþþþþþþþþþþþþþþþþþþþþþþþþþþþÜ
                                   24686                        Ÿ  ON ATTENTION COMMAND=' ...'  Ÿ
                                   24687                        ¾þþþþþþþþþþþþþþþþþþþþþþþþþþþþþþþ»
 0046A8 50E0 D000/9008_      00000 24688              ONACMD   PROC   ,                  ON ATTN COMMAND SPECIFIED
 USING  *,R7
                                   24727                       COMMENT                   GET QUOTED COMMAND
 0046C2 58E0 7226/0DEE       048E8 24728                       VCALL DEQUOTE
 0046C8 47B0 7026            046E8 24732                       IF    NEG,BEGIN
 0046CC 41F0 B050/58E0_      00050 24743  1                      TSEG  (R1),(R0)
 0046D6 D207 B886 717E_00886 04840 24767  1                      ERROR ': invalid.  Quotes required.',,SYNTAX
 0046E8                            24775                       END
                                   24779                       COMMENT                   SAVE COMMAND
                                   24780                       COMMENT                   R0 - COMMAND LENGTH
                                   24781                       COMMENT                   @R1 - COMMAND TEXT
 0046E8 4120 71CE            04890 24782                       LA    R2,=CL16'SYS.ONATTN      '
 0046EC 58E0 7246/0DEE       04908 24783                       VCALL SAVEDATA
 0046F2 9140 B47A/4710_0047A       24787                       IF    ~CPFDDATN,BEGIN     IF ON ATTN NOT SUSPENDED,
 0046FA 9680 B47A      0047A       24802  1                      SET   CPFONATN            TURN ON ON ATTN CONDITION
 0046FE D701 B8A0 B8A0 008A0 008A0 24808  1                      CLEAR CPATTNCT            CLEAR ATTN COUNT
 004704                            24815                       END
 004704 1BFF                       24819                       CLEAR R15                 KEEP SCANNING
 004706 18D8/9808 D004_            24823                       PEND
 DROP   *,R7
                                   24843                        ¿þþþþþþþþþþþþþþþþþÜ
                                   24844                        Ÿ  ON ATTN CLEAR  Ÿ
                                   24845                        ¾þþþþþþþþþþþþþþþþþ»
 004714 50E0 D000/9008_      00000 24846              ONACLEAR PROC  ,                   IF BREAK, TURN OFF ON ATTN
 USING  *,R7
 00472E 947F B47A      0047A       24885                       CLEAR CPFONATN            CLEAR ALL ON ATTN FLAGS
1EXEC     (EXEC2193) (12:44) (15MAR04) ON ERROR/ON ATTENTION routines                                                       Page   93
0Current Usings:  (*,R7) (CP,R11) (CV,R12)
0Loc    Object Code    Addr1 Addr2  Stmt Lv Lineno    Source Statement           (Hibal 5, Asmedit 3.3)  HLASM R4.0  2004/03/15 12.44
+___    ______ ____    _____ _____  ____ __ ______    ______ _________
0004732 94BF B47A      0047A       24892                       CLEAR CPFDDATN
 004736 94DF B47A      0047A       24899                       CLEAR CPFINATN
 00473A D701 B8A0 B8A0 008A0 008A0 24906                       CLEAR CPATTNCT
 004740 1BFF                       24913                       CLEAR R15                 KEEP SCANNING
 004742 18D8/9808 D004_            24917                       PEND
 DROP   *,R7
0                                  24938                       ¿þþþþþþþþþþþþþþþþþþþþÜ
                                   24939                       Ÿ  ON ATTN REENABLE  Ÿ
                                   24940                       ¾þþþþþþþþþþþþþþþþþþþþ»
 004750 50E0 D000/9008_      00000 24941              ONAREEN  PROC  ,                   IF RESET, RE-ENABLE ON ATTN CMD
 USING  *,R7
 00476A 9180 B47A/4710_0047A       24980                       IF    (CPFONATN,OR,CPFDDATN),BEGIN    IF ON ATTN,
 00477A 9680 B47A      0047A       25009  1                      SET   CPFONATN            SET ON ATTN
 00477E 94BF B47A      0047A       25015  1                      CLEAR CPFDDATN            CLEAR ON ATTN SUSPENDED
 004782 D701 B8A0 B8A0 008A0 008A0 25022  1                      CLEAR CPATTNCT            CLEAR ATTN COUNT
 004788                            25029                       END
 004788 7022/47F0 702E 04788 04778 25033                       ELSE  BEGIN
 00478C 4110 720D/4100_      04977 25044  1                      ERROR 'ON ATTN condition not disabled; unable to reenable.'
 004798                            25051                       END
 004798 1BFF                       25055                       CLEAR R15
 00479A 18D8/9808 D004_            25059                       PEND
 DROP   *,R7
                                   25079                       ¿þþþþþþþþþþþþþþþþþþþþþþþþþþþþþþþþþþþþþþþþþþþþþþþþþþþÜ
                                   25080                       Ÿ  ON ATTN CMD=' ...' INTERRUPTIBLE/NOINTERRPTIBLE  Ÿ
                                   25081                       ¾þþþþþþþþþþþþþþþþþþþþþþþþþþþþþþþþþþþþþþþþþþþþþþþþþþþ»
 0047A8 50E0 D000/9008_      00000 25082              ONAINT   DPROC ,                   INTERRUPTIBLE
 USING  *,R7
 0047C2 9620 B47A      0047A       25122                       SET   CPFINATN
 0047C6 1BFF                       25128                       CLEAR R15
 0047C8 18D8/9808 D004_            25132                       PEND
 DROP   *,R7
                                   25152
 0047D6 50E0 D000/9008_      00000 25153              ONANOINT DPROC ,                   NOINTERRUPTIBLE
 USING  *,R7
 0047F0 94DF B47A      0047A       25193                       CLEAR CPFINATN
 0047F4 1BFF                       25200                       CLEAR R15
 0047F6 18D8/9808 D004_            25204                       PEND
 DROP   *,R7
                                   25224                       ¿þþþþþþþþþþþþþþþþþþþþþÜ
                                   25225                       Ÿ  NULL ON ATTN SCAN  Ÿ
                                   25226                       ¾þþþþþþþþþþþþþþþþþþþþþ»
 004804 50E0 D000/9008_      00000 25227              ONANULL  PROC  ,
 USING  *,R7
 00481E D207 B886 7022_00886 04840 25266                       ERROR 'Missing ON ATTENTION options.',,SYNTAX
 004830 18D8/9808 D004_            25274                       PEND
 DROP   *,R7
1EXEC     (EXEC2193) (12:44) (15MAR04) ON ERROR/ON ATTENTION routines                                                       Page   94
0Current Usings:  (CP,R11) (CV,R12)
0Loc    Object Code    Addr1 Addr2  Stmt Lv Lineno    Source Statement           (Hibal 5, Asmedit 3.3)  HLASM R4.0  2004/03/15 12.44
+___    ______ ____    _____ _____  ____ __ ______    ______ _________
0                                  25295                       QLTORG
1EXEC     (EXEC2193) (12:44) (15MAR04) ON ERROR/ON ATTENTION routines                                                       Page   95
0Current Usings:  (CP,R11) (CV,R12)
0Loc    Object Code    Addr1 Addr2  Stmt Lv Lineno    Source Statement           (Hibal 5, Asmedit 3.3)  HLASM R4.0  2004/03/15 12.44
+___    ______ ____    _____ _____  ____ __ ______    ______ _________
0                                  25332              ¿þþþþþþþþþþþþþþþþþþþþþþþþþþþþþþþþþþþþþþþþþþþþþþþþþþþþþþþþþþþþþþþþþþþþþÜ
                                   25333              Ÿ                                                                     Ÿ
                                   25334              Ÿ                                                                     Ÿ
                                   25335              Ÿ INITERR - INITIALIZE/CLEAR ON ERROR, ERROR VARIABLES                Ÿ
                                   25336              Ÿ                                                                     Ÿ
                                   25337              Ÿ                                                                     Ÿ
                                   25338              Ÿ                                                                     Ÿ
                                                      ¾þþþþþþþþþþþþþþþþþþþþþþþþþþþþþþþþþþþþþþþþþþþþþþþþþþþþþþþþþþþþþþþþþþþþþ»
00049C8 50E0 D000/9008_      00000 25339              INITERR  XPROC
 USING  *,R7
 0049E2 947F B479      00479       25379                       CLEAR CPFONERR            CLEAR ON ERROR
 0049E6 94BF B479      00479       25386                       CLEAR CPFDDERR
 0049EA 58E0 771E/0DEE       05100 25393                       ACALL CLRERROR            CLEAR ERROR VARIABLES
 0049F0 18D8/9808 D004_            25397                       PEND
 DROP   *,R7
1EXEC     (EXEC2193) (12:44) (15MAR04) ON ERROR/ON ATTENTION routines                                                       Page   96
0Current Usings:  (CP,R11) (CV,R12)
0Loc    Object Code    Addr1 Addr2  Stmt Lv Lineno    Source Statement           (Hibal 5, Asmedit 3.3)  HLASM R4.0  2004/03/15 12.44
+___    ______ ____    _____ _____  ____ __ ______    ______ _________
0                                  25418              ¿þþþþþþþþþþþþþþþþþþþþþþþþþþþþþþþþþþþþþþþþþþþþþþþþþþþþþþþþþþþþþþþþþþþþþÜ
                                   25419              Ÿ                                                                     Ÿ
                                   25420              Ÿ                                                                     Ÿ
                                   25421              Ÿ INITATTN - INITIALIZE/CLEAR ON ATTN, ATTN VARIABLES                 Ÿ
                                   25422              Ÿ                                                                     Ÿ
                                   25423              Ÿ                                                                     Ÿ
                                   25424              Ÿ                                                                     Ÿ
                                                      ¾þþþþþþþþþþþþþþþþþþþþþþþþþþþþþþþþþþþþþþþþþþþþþþþþþþþþþþþþþþþþþþþþþþþþþ»
00049FE 50E0 D000/9008_      00000 25425              INITATTN XPROC
 USING  *,R7
 004A18 947F B47A      0047A       25465                       CLEAR CPFONATN            CLEAR ON ATTN
 004A1C 94BF B47A      0047A       25472                       CLEAR CPFDDATN
 004A20 94DF B47A      0047A       25479                       CLEAR CPFINATN
 004A24 D701 B8A0 B8A0 008A0 008A0 25486                       CLEAR CPATTNCT            CLEAR ATTN COUNT
 004A2A 58E0 76EC/0DEE       05104 25493                       ACALL CLRATTN             CLEAR ATTN VARIABLES
 004A30 18D8/9808 D004_            25497                       PEND
 DROP   *,R7
1EXEC     (EXEC2193) (12:44) (15MAR04) ON ERROR/ON ATTENTION routines                                                       Page   97
0Current Usings:  (CP,R11) (CV,R12)
0Loc    Object Code    Addr1 Addr2  Stmt Lv Lineno    Source Statement           (Hibal 5, Asmedit 3.3)  HLASM R4.0  2004/03/15 12.44
+___    ______ ____    _____ _____  ____ __ ______    ______ _________
0                                  25518              ¿þþþþþþþþþþþþþþþþþþþþþþþþþþþþþþþþþþþþþþþþþþþþþþþþþþþþþþþþþþþþþþþþþþþþþÜ
                                   25519              Ÿ                                                                     Ÿ
                                   25520              Ÿ                                                                     Ÿ
                                   25521              Ÿ  CLRERROR - CLEAR ERROR VARIABLES                                   Ÿ
                                   25522              Ÿ                                                                     Ÿ
                                   25523              Ÿ  ON EXIT:                                                           Ÿ
                                   25524              Ÿ       SYS.ERROR, SYS.ERRID, SYS.ERRMSG SYS.ERRINFO CLEARED          Ÿ
                                   25525              Ÿ                                                                     Ÿ
                                   25526              Ÿ  CAUTION:                                                           Ÿ
                                   25527              Ÿ       SYS.ONERROR VALID ONLY IF CPFONERR OR CPFDDERR SET            Ÿ
                                   25528              Ÿ       SYS.ERRID VALID ONLY IF CPFXXERR SET                          Ÿ
                                   25529              Ÿ       SYS.ERRMSG VALID ONLY IF CPFXXERR SET                         Ÿ
                                   25530              Ÿ       SYS.ERRINFO VALID ONLY IF CPFXXERR SET                        Ÿ
                                   25531              Ÿ       SYS.ERRSETNO VALID ONLY IF CPFXXERR SET                       Ÿ
                                   25532              Ÿ                                                                     Ÿ
                                   25533              Ÿ                                                                     Ÿ
                                                      ¾þþþþþþþþþþþþþþþþþþþþþþþþþþþþþþþþþþþþþþþþþþþþþþþþþþþþþþþþþþþþþþþþþþþþþ»
0004A3E 50E0 D000/9008_      00000 25534              CLRERROR XPROC
 USING  *,R7
                                   25574
                                   25575                       COMMENT                   CLEAR ERROR VARIABLES
 004A58 94DF B479      00479       25576                       CLEAR CPFXXERR
                                   25583                       COMMENT                   WHEN CPFXXERR IS CLEAR,
                                   25584                       COMMENT                   SYS.ERRID AND SYS.ERRMSG ARE
                                   25585                       COMMENT                   INTERPRETED AS CLEARED TOO
                                   25586                       COMMENT
                                   25587
 004A5C 1BFF                       25588                       CLEAR R15
 004A5E 18D8/9808 D004_            25592                       PEND
 DROP   *,R7
1EXEC     (EXEC2193) (12:44) (15MAR04) ON ERROR/ON ATTENTION routines                                                       Page   98
0Current Usings:  (CP,R11) (CV,R12)
0Loc    Object Code    Addr1 Addr2  Stmt Lv Lineno    Source Statement           (Hibal 5, Asmedit 3.3)  HLASM R4.0  2004/03/15 12.44
+___    ______ ____    _____ _____  ____ __ ______    ______ _________
0                                  25613              ¿þþþþþþþþþþþþþþþþþþþþþþþþþþþþþþþþþþþþþþþþþþþþþþþþþþþþþþþþþþþþþþþþþþþþþÜ
                                   25614              Ÿ                                                                     Ÿ
                                   25615              Ÿ                                                                     Ÿ
                                   25616              Ÿ  CLRATTN - CLEAR ATTN VARIABLES                                     Ÿ
                                   25617              Ÿ                                                                     Ÿ
                                   25618              Ÿ  ON EXIT:                                                           Ÿ
                                   25619              Ÿ       SYS.ATTN, SYS.ATTNID, SYS.ATTNINFO CLEARED                    Ÿ
                                   25620              Ÿ                                                                     Ÿ
                                   25621              Ÿ                                                                     Ÿ
                                   25622              Ÿ  NOTE: IF THE CURRENT ON ATTN CONDITION IS SUSPENDED,               Ÿ
                                   25623              Ÿ     CLEAR ATTN RESETS IT !                                          Ÿ
                                   25624              Ÿ                                                                     Ÿ
                                   25625              Ÿ  CAUTION:                                                           Ÿ
                                   25626              Ÿ       SYS.ATTNID  VALID ONLY IF CPFXXATN SET                        Ÿ
                                   25627              Ÿ       SYS.ATTNINFO  VALID ONLY IF CPFXXATN SET                      Ÿ
                                   25628              Ÿ                                                                     Ÿ
                                   25629              Ÿ                                                                     Ÿ
                                   25630              Ÿ                                                                     Ÿ
                                                      ¾þþþþþþþþþþþþþþþþþþþþþþþþþþþþþþþþþþþþþþþþþþþþþþþþþþþþþþþþþþþþþþþþþþþþþ»
0004A6C 50E0 D000/9008_      00000 25631              CLRATTN  XPROC
 USING  *,R7
                                   25671
                                   25672                       COMMENT                   CLEAR ATTN VARIABLES
 004A86 94EF B47A      0047A       25673                       CLEAR CPFXXATN
                                   25680                       COMMENT                   WHEN CPFXXATN IS CLEAR,
                                   25681                       COMMENT                   SYS.ATTNID AND SYS.ATTNINFO ARE
                                   25682                       COMMENT                   INTERPRETED AS CLEARED TOO
                                   25683                       COMMENT
                                   25684
                                   25685                       COMMENT                   CLEAR ATTN COUNT
 004A8A D701 B8A0 B8A0 008A0 008A0 25686                       CLEAR CPATTNCT
                                   25693
 004A90 1BFF                       25694                       CLEAR R15
 004A92 18D8/9808 D004_            25698                       PEND
 DROP   *,R7
1EXEC     (EXEC2193) (12:44) (15MAR04) ON ERROR/ON ATTENTION routines                                                       Page   99
0Current Usings:  (CP,R11) (CV,R12)
0Loc    Object Code    Addr1 Addr2  Stmt Lv Lineno    Source Statement           (Hibal 5, Asmedit 3.3)  HLASM R4.0  2004/03/15 12.44
+___    ______ ____    _____ _____  ____ __ ______    ______ _________
0                                  25719              ¿þþþþþþþþþþþþþþþþþþþþþþþþþþþþþþþþþþþþþþþþþþþþþþþþþþþþþþþþþþþþþþþþþþþþþÜ
                                   25720              Ÿ                                                                     Ÿ
                                   25721              Ÿ                                                                     Ÿ
                                   25722              Ÿ  SETEMSG - SET ERROR MESSAGE                                        Ÿ
                                   25723              Ÿ                                                                     Ÿ
                                   25724              Ÿ  ON EXIT:                                                           Ÿ
                                   25725              Ÿ       SYS.EMSG IS SET  (EMSG IS TEMP SYSTEM ERROR MSG)              Ÿ
                                                      ¾þþþþþþþþþþþþþþþþþþþþþþþþþþþþþþþþþþþþþþþþþþþþþþþþþþþþþþþþþþþþþþþþþþþþþ»
0                                  25726              ¿þþþþþþþþþþþþþþþþþþþþþþþþþþþþþþþþþþþþþþþþþþþþþþþþþþþþþþþþþþþþþþþþþþþþþÜ
                                   25727              Ÿ        R15 - CC=ZERO                                                Ÿ
                                   25728              Ÿ                                                                     Ÿ
                                   25729              Ÿ                                                                     Ÿ
                                   25730              Ÿ  WARNING!!: CPFERROR OR CPFABORT FLAG MUST BE SET WHEN THIS         Ÿ
                                   25731              Ÿ       ROUTINE IS CALLED !!                                          Ÿ
                                   25732              Ÿ                                                                     Ÿ
                                   25733              Ÿ                                                                     Ÿ
                                                      ¾þþþþþþþþþþþþþþþþþþþþþþþþþþþþþþþþþþþþþþþþþþþþþþþþþþþþþþþþþþþþþþþþþþþþþ»
0004AA0 50E0 D000/9008_      00000 25734              SETEMSG  XPROC
 USING  *,R7
                                   25774
                                   25775                       COMMENT                   ENTRACE EXAMS
 004ABA 9140 BD5A/4710_00D5A       25776                       IF    (~CPFERROR,AND,~CPFABORT),BEGIN
 004ACA 0000                       25805  1                      BOMB
 004ACC                            25807                       END
                                   25811
                                   25812                       COMMENT                   SAVE ERRMSG
                                   25813                       COMMENT                   CHECK IF ONE LINE MSG,,,
 004ACC 5820 B070            00070 25814                       L     R2,CPSEGLOC
 004AD0 5830 B05C            0005C 25815                       L     R3,CPSEGLENF        R2,R3 - START,END OF MSG
 004AD4 1233/47D0 7062             25816                       IF    (R3,POS),BEGIN
 004ADA 1A32                       25830  1                      AR    R3,R2
 004ADC 0630                       25831  1                      DECR  R3
 004ADE 9515 3000/4780_00000       25833  1                      IF    (@R3,NE,X'15'),BEGIN   IF TRAILING NL, STRIP IT
 004AE6 5E30 764E            05108 25849  2                        INCR  R3
 004AEA                            25852  1                      END
 004AEA 9515 2000/4780_00000       25856  1                      WHILE ((@R2,NE,X'15'),AND,(R2,LT,R3)),BEGIN   FIND 1ST NL
 004AF8 4122 0001            00001 25888  2                        LA    R2,1(R2)
 004AFC 47F0 7030            04AEA 25889  1                      END
 004B00 1923/4770 7052             25894  1                      IF    (R2,EQ,R3),BEGIN    IF ONE LINE ERROR MSG
 004B06 5810 B070            00070 25909  2                        L     R1,CPSEGLOC         R2 - LENGTH
 004B0A 1B21                       25910  2                        SR    R2,R1
 004B0C                            25911  1                      END
 004B0C 7056/47F0 7058 04B0C 04B04 25915  1                      ELSE  BEGIN               IF MULTILPLE LINE ERR MSG
 004B10 1B22                       25926  2                        CLEAR R2                  R2 - ZERO
 004B12                            25930  1                      END
 004B12 5920 7652/47D0_      0510C 25934  1                      IF    (R2,GT,&LINESZ),' CLEAR R2 '
 004B1C                            25960                       END
                                   25964
 004B1C 7066/47F0 7068_04B1C 04AD8 25965                       ELSE  'CLEAR R2'
                                   25985
                                   25986                       COMMENT                   SAVE ERROR MSG
 004B22 1222/47D0 707E             25987                       IF    (R2,POS),BEGIN      IF SINGLE LINE ERROR MSG
1EXEC     (EXEC2193) (12:44) (15MAR04) ON ERROR/ON ATTENTION routines                                                       Page  100
0Current Usings:  (*,R7) (CP,R11) (CV,R12)
0Loc    Object Code    Addr1 Addr2  Stmt Lv Lineno    Source Statement           (Hibal 5, Asmedit 3.3)  HLASM R4.0  2004/03/15 12.44
+___    ______ ____    _____ _____  ____ __ ______    ______ _________
0004B28 1802                       26001  1                      LR    R0,R2
 004B2A 5810 B070            00070 26002  1                      L     R1,CPSEGLOC
 004B2E 4120 757E            05038 26003  1                      LA    R2,=CL16'SYS.EMSG        '
 004B32 58E0 7656/0DEE       05110 26004  1                      VCALL SAVEDATA
 004B38                            26008                       END
                                   26012
                                   26013                       COMMENT                   SAVE ERROR MSG
 004B38 7082/47F0 711A 04B38 04B26 26014                       ELSE  BEGIN               IF MULTIPLE LINE ERROR MSG, WE
 004B3C 18ED/41D0 D43C_            26025  1                      TPUSH ,                   CREATE SINGLE LINE ERR MSG
 004B70 4110 7696/4100_      05150 26063  1                      TSEG  'Command failed: "'
 004B82 4110 B242            00242 26081  1                      LA    R1,CPCMD
 004B86 4800 B240            00240 26082  1                      LH    R0,CPCMDLEN
 004B8A 5900 7662/47D0_      0511C 26083  1                      CEIL  R0,&LINESZ-20
 004B96 58E0 7666/0DEE       05120 26102  1                      VCALL LRTRIM
 004B9C 41F0 B050/58E0_      00050 26106  1                      TSEG  (R1),(R0)
 004BA6 4110 76A7/4100_      05161 26130  1                      TSEG  '"'
 004BB8 5800 B05C            0005C 26148  1                      L     R0,CPSEGLENF
 004BBC 5810 B070            00070 26149  1                      L     R1,CPSEGLOC
 004BC0 4120 757E            05038 26150  1                      LA    R2,=CL16'SYS.EMSG        '
 004BC4 58E0 7656/0DEE       05110 26151  1                      VCALL SAVEDATA
 004BCA 4BD0 7690/D23B_      0514A 26155  1                      TPOP  JUNK
 004BD4                            26160                       END
                                   26164
 004BD4 1BFF                       26165                       CLEAR R15
 004BD6 18D8/9808 D004_            26169                       PEND
 DROP   *,R7
1EXEC     (EXEC2193) (12:44) (15MAR04) ON ERROR/ON ATTENTION routines                                                       Page  101
0Current Usings:  (CP,R11) (CV,R12)
0Loc    Object Code    Addr1 Addr2  Stmt Lv Lineno    Source Statement           (Hibal 5, Asmedit 3.3)  HLASM R4.0  2004/03/15 12.44
+___    ______ ____    _____ _____  ____ __ ______    ______ _________
0                                  26190              ¿þþþþþþþþþþþþþþþþþþþþþþþþþþþþþþþþþþþþþþþþþþþþþþþþþþþþþþþþþþþþþþþþþþþþþÜ
                                   26191              Ÿ                                                                     Ÿ
                                   26192              Ÿ                                                                     Ÿ
                                   26193              Ÿ  SETERROR - SET ERROR VARIABLES                                     Ÿ
                                   26194              Ÿ                                                                     Ÿ
                                   26195              Ÿ  ON EXIT:                                                           Ÿ
                                   26196              Ÿ       SYS.ERROR, SYS.ERRID, SYS.ERRMSG SYS.ERRINFO ARE SET          Ÿ
                                   26197              Ÿ       R15 - CC=ZERO                                                 Ÿ
                                   26198              Ÿ                                                                     Ÿ
                                   26199              Ÿ                                                                     Ÿ
                                   26200              Ÿ                                                                     Ÿ
                                   26201              Ÿ  CAUTION:                                                           Ÿ
                                   26202              Ÿ       SYS.ERRID VALID ONLY IF CPFXXERR SET                          Ÿ
                                   26203              Ÿ       SYS.ERRMSG VALID ONLY IF CPFXXERR SET                         Ÿ
                                   26204              Ÿ       SYS.ERRINFO VALID ONLY IF CPFXXERR SET                        Ÿ
                                   26205              Ÿ       SYS.ERRSETNO VALID ONLY IF CPFXXERR SET                       Ÿ
                                   26206              Ÿ                                                                     Ÿ
                                   26207              Ÿ                                                                     Ÿ
                                   26208              Ÿ  WARNING!!: CPFERROR OR CPFABORT FLAG MUST BE SET WHEN THIS         Ÿ
                                   26209              Ÿ       ROUTINE IS CALLED !!                                          Ÿ
                                   26210              Ÿ                                                                     Ÿ
                                   26211              Ÿ                                                                     Ÿ
                                                      ¾þþþþþþþþþþþþþþþþþþþþþþþþþþþþþþþþþþþþþþþþþþþþþþþþþþþþþþþþþþþþþþþþþþþþþ»
0004BE4 50E0 D000/9008_      00000 26212              SETERROR XPROC
 USING  *,R7
                                   26252
                                   26253                       COMMENT                   ENTRACE EXAMS
 004BFE 9140 BD5A/4710_00D5A       26254                       IF    (~CPFERROR,AND,~CPFABORT),BEGIN
 004C0E 0000                       26283  1                      BOMB
 004C10                            26285                       END
                                   26289
                                   26290                       COMMENT                   SET ERROR OCCURRED FLAG
 004C10 9620 B479      00479       26291                       SET   CPFXXERR
                                   26297
                                   26298                       COMMENT                   SAVE ERRID
 004C14 D507 7432 B886_05030 00886 26299                       IF    (CPERRID,EQ,0),BEGIN
 004C1E D207 B886 744A 00886 05048 26317  1                      MVC   CPERRID,=CL8'ERROR   '
 004C24                            26318                       END
 004C24 4100 0008            00008 26322                       LA    R0,L'CPERRID
 004C28 4110 B886            00886 26323                       LA    R1,CPERRID
 004C2C 4120 7452            05050 26324                       LA    R2,=CL16'SYS.ERRID       '
 004C30 58E0 7512/0DEE       05110 26325                       VCALL SAVEDATA
                                   26329
                                   26330                       COMMENT                   GET, SAVE ERROR MSG
 004C36 181D/41D0 D0EC             26331                       XPUSH ,,&LINESZ,PTR=R1
 004C3C 4100 00EB            000EB 26334                       LA    R0,&LINESZ
 004C40 4120 743A            05038 26335                       LA    R2,=CL16'SYS.EMSG        '
 004C44 58E0 7526/0DEE       05124 26336                       VCALL GETDATA
 004C4A 4780 7052            04C50 26340                       IF    NZ,BEGIN
 004C4E 0000                       26351  1                      BOMB
 004C50                            26353                       END
 004C50 4120 7462            05060 26357                       LA    R2,=CL16'SYS.ERRMSG      '
 004C54 58E0 7512/0DEE       05110 26358                       VCALL SAVEDATA
1EXEC     (EXEC2193) (12:44) (15MAR04) ON ERROR/ON ATTENTION routines                                                       Page  102
0Current Usings:  (*,R7) (CP,R11) (CV,R12)
0Loc    Object Code    Addr1 Addr2  Stmt Lv Lineno    Source Statement           (Hibal 5, Asmedit 3.3)  HLASM R4.0  2004/03/15 12.44
+___    ______ ____    _____ _____  ____ __ ______    ______ _________
0004C5A 4BD0 754E            0514C 26362                       XPOP  ,,&LINESZ
                                   26364
                                   26365                       COMMENT                   GET, SAVE ERROR INFO
 004C5E 9180 B758/47E0_00758       26366                       IF    CPFEXEC,BEGIN
 004C66 18ED/41D0 D43C_            26381  1                      TPUSH ,
 004C9A 4110 7564/4100_      05162 26419  1                      TSEG  'EXEC error at line '
 004CAC 5800 B778            00778 26437  1                      L     R0,CP#XSET
 004CB0 5810 B77C            0077C 26438  1                      L     R1,CPRGEXEC
 004CB4 4120 B75C            0075C 26439  1                      LA    R2,CPEXLINE
 004CB8 58E0 752A/0DEE       05128 26440  1                      VCALL SEGXLNO
 004CBE 5800 B05C            0005C 26444  1                      L     R0,CPSEGLENF
 004CC2 5810 B070            00070 26445  1                      L     R1,CPSEGLOC
 004CC6 4120 7472            05070 26446  1                      LA    R2,=CL16'SYS.ERRINFO     '
 004CCA 58E0 7512/0DEE       05110 26447  1                      VCALL SAVEDATA
 004CD0 4BD0 754C/D23B_      0514A 26451  1                      TPOP  JUNK
 004CDA                            26456                       END
 004CDA 70E0/47F0 70F0 04CDA 04C64 26460                       ELSE  BEGIN               IF NOT IN EXEC MODE, NO ERRINFO
 004CDE 1B00                       26471  1                      CLEAR R0
 004CE0 4110 0000            00000 26475  1                      LA    R1,0
 004CE4 4120 7472            05070 26476  1                      LA    R2,=CL16'SYS.ERRINFO     '
 004CE8 58E0 7512/0DEE       05110 26477  1                      VCALL SAVEDATA
 004CEE                            26481                       END
                                   26485
                                   26486                       COMMENT                   GET SAVE ERROR VARS SET NUMBER
 004CEE 9180 B758/47E0_00758       26487                       IF    CPFEXEC,BEGIN       SET ONLY IF IN EXEC MODE
 004CF6 4100 0004            00004 26502  1                      LA    R0,4
 004CFA 4110 B844            00844 26503  1                      LA    R1,CPVSET#
 004CFE 4120 7482            05080 26504  1                      LA    R2,=CL16'SYS.ERRSETNO    '
 004D02 58E0 7512/0DEE       05110 26505  1                      VCALL SAVEDATA
 004D08                            26509                       END
 004D08 710E/47F0 7120 04D08 04CF4 26513                       ELSE  BEGIN               IF NOT IN EXEC MODE,
 004D0C 4100 0004            00004 26524  1                      LA    R0,4                CLEAR ERROR SET #
 004D10 4110 752E            0512C 26525  1                      LA    R1,=F'0'
 004D14 4120 7482            05080 26526  1                      LA    R2,=CL16'SYS.ERRSETNO    '
 004D18 58E0 7512/0DEE       05110 26527  1                      VCALL SAVEDATA
 004D1E                            26531                       END
                                   26535
 004D1E 1BFF                       26536                       CLEAR R15
 004D20 18D8/9808 D004_            26540                       PEND
 DROP   *,R7
1EXEC     (EXEC2193) (12:44) (15MAR04) ON ERROR/ON ATTENTION routines                                                       Page  103
0Current Usings:  (CP,R11) (CV,R12)
0Loc    Object Code    Addr1 Addr2  Stmt Lv Lineno    Source Statement           (Hibal 5, Asmedit 3.3)  HLASM R4.0  2004/03/15 12.44
+___    ______ ____    _____ _____  ____ __ ______    ______ _________
0                                  26561              ¿þþþþþþþþþþþþþþþþþþþþþþþþþþþþþþþþþþþþþþþþþþþþþþþþþþþþþþþþþþþþþþþþþþþþþÜ
                                   26562              Ÿ                                                                     Ÿ
                                   26563              Ÿ                                                                     Ÿ
                                   26564              Ÿ  SETATTN - SET ATTN VARIABLES                                       Ÿ
                                   26565              Ÿ                                                                     Ÿ
                                   26566              Ÿ  ON EXIT:                                                           Ÿ
                                   26567              Ÿ       SYS.ATTN, SYS.ATTNID, SYS.ATTNINFO SET                        Ÿ
                                   26568              Ÿ                                                                     Ÿ
                                   26569              Ÿ                                                                     Ÿ
                                   26570              Ÿ  CAUTION:                                                           Ÿ
                                   26571              Ÿ       SYS.ONATTN VALID ONLY IF CPFONATN OR CPFDDATN SET             Ÿ
                                   26572              Ÿ       SYS.ATTNID VALID ONLY IF CPFXXATN SET                         Ÿ
                                   26573              Ÿ       SYS.ATTNINFO VALID ONLY IF CPFXXATN SET                       Ÿ
                                   26574              Ÿ                                                                     Ÿ
                                   26575              Ÿ                                                                     Ÿ
                                   26576              Ÿ  WARNING!!: JCBFATTN FLAG MUST BE SET WHEN THIS ROUTINE IS          Ÿ
                                   26577              Ÿ       CALLED !!                                                     Ÿ
                                   26578              Ÿ                                                                     Ÿ
                                   26579              Ÿ                                                                     Ÿ
                                                      ¾þþþþþþþþþþþþþþþþþþþþþþþþþþþþþþþþþþþþþþþþþþþþþþþþþþþþþþþþþþþþþþþþþþþþþ»
0004D2E 50E0 D000/9008_      00000 26580              SETATTN  XPROC
 USING  *,R7
 USING  JCB,R6                     26620                       USING JCB,R6
 004D48 5860 C1C8            001C8 26629                       L     R6,CVCURJCB
                                   26630
                                   26631                       COMMENT                   ENTRACE EXAMS
 004D4C 9102 6062/4710_00062       26632                       IF    ~JCBFATTN,BEGIN
 004D54 0000                       26647  1                      BOMB
 004D56                            26649                       END
                                   26653
                                   26654                       COMMENT                   SET ATTN OCCURRED FLAG
 004D56 9610 B47A      0047A       26655                       SET   CPFXXATN
                                   26661
                                   26662                       COMMENT                   SAVE ATTNID,,
 004D5A 9180 BD5B/47E0_00D5B       26663                       IF    CPFIDSET,BEGIN      IF ATTNID XRETURNED, SAVE IT
 004D62 184D/41D0 D008             26678  1                      XPUSH ,,ATTNIDLN,PTR=R4
 004D68 4100 0008            00008 26681  1                      LA    R0,ATTNIDLN
 004D6C 1814                       26682  1                      LR    R1,R4
 004D6E 4120 7348            05090 26683  1                      LA    R2,=CL16'SYS.XRET_ATTNID '
 004D72 58E0 73DC/0DEE       05124 26684  1                      VCALL GETDATA
 004D78 4780 7036            04D7E 26688  1                      IF    NZ,BEGIN
 004D7C 0000                       26699  2                        BOMB
 004D7E                            26701  1                      END
 004D7E 4100 0008            00008 26705  1                      LA    R0,ATTNIDLN
 004D82 1814                       26706  1                      LR    R1,R4
 004D84 4120 7358            050A0 26707  1                      LA    R2,=CL16'SYS.ATTNID      '
 004D88 58E0 73C8/0DEE       05110 26708  1                      VCALL SAVEDATA
 004D8E 4BD0 7406            0514E 26712  1                      XPOP  ,,ATTNIDLN
 004D92                            26714                       END
                                   26718
                                   26719                       COMMENT                   IF NO ATTN ID SET,
 004D92 9180 BD5B/4710_00D5B       26720                       IF    ~CPFIDSET,BEGIN     SET DEFAULT ATTNID = 'ATTN'
                                   26735  1                      COMMENT
1EXEC     (EXEC2193) (12:44) (15MAR04) ON ERROR/ON ATTENTION routines                                                       Page  104
0Current Usings:  (JCB,R6) (*,R7) (CP,R11) (CV,R12)
0Loc    Object Code    Addr1 Addr2  Stmt Lv Lineno    Source Statement           (Hibal 5, Asmedit 3.3)  HLASM R4.0  2004/03/15 12.44
+___    ______ ____    _____ _____  ____ __ ______    ______ _________
0004D9A 4100 0008            00008 26736  1                      LA    R0,ATTNIDLN
 004D9E 4110 7368            050B0 26737  1                      LA    R1,=CL8'ATTN    '
 004DA2 4120 7358            050A0 26738  1                      LA    R2,=CL16'SYS.ATTNID      '
 004DA6 58E0 73C8/0DEE       05110 26739  1                      VCALL SAVEDATA
 004DAC                            26743                       END
                                   26747
                                   26748                       COMMENT                   SAVE ATTNINFO,,
 004DAC 9180 B758/47E0_00758       26749                       IF    CPFEXEC,BEGIN       SAVE ONLY IF IN EXEC MODE
 004DB4 18ED/41D0 D43C_            26764  1                      TPUSH ,
 004DE8 4110 742D/4100_      05175 26802  1                      TSEG  'EXEC break at line '
 004DFA 5800 B778            00778 26820  1                      L     R0,CP#XSET
 004DFE 5810 B77C            0077C 26821  1                      L     R1,CPRGEXEC
 004E02 4120 B75C            0075C 26822  1                      LA    R2,CPEXLINE
 004E06 58E0 73E0/0DEE       05128 26823  1                      VCALL SEGXLNO
 004E0C 5800 B05C            0005C 26827  1                      L     R0,CPSEGLENF
 004E10 5810 B070            00070 26828  1                      L     R1,CPSEGLOC
 004E14 4120 7370            050B8 26829  1                      LA    R2,=CL16'SYS.ATTNINFO    '
 004E18 58E0 73C8/0DEE       05110 26830  1                      VCALL SAVEDATA
 004E1E 4BD0 7402/D23B_      0514A 26834  1                      TPOP  JUNK
 004E28                            26839                       END
                                   26843
                                   26844                       COMMENT                   IF NOT IN EXEC, CLEAR ATTNINFO
 004E28 9180 B758/4710_00758       26845                       IF    ~CPFEXEC,BEGIN
 004E30 1B00                       26860  1                      CLEAR R0
 004E32 4110 0000            00000 26864  1                      LA    R1,0
 004E36 4120 7370            050B8 26865  1                      LA    R2,=CL16'SYS.ATTNINFO    '
 004E3A 58E0 73C8/0DEE       05110 26866  1                      VCALL SAVEDATA
 004E40                            26870                       END
                                   26874
 004E40 1BFF                       26875                       CLEAR R15
 004E42 18D8/9808 D004_            26879                       PEND
 DROP   *,R7
 DROP   JCB,R6                     26899                       DROP  R6
1EXEC     (EXEC2193) (12:44) (15MAR04) ON ERROR/ON ATTENTION routines                                                       Page  105
0Current Usings:  (CP,R11) (CV,R12)
0Loc    Object Code    Addr1 Addr2  Stmt Lv Lineno    Source Statement           (Hibal 5, Asmedit 3.3)  HLASM R4.0  2004/03/15 12.44
+___    ______ ____    _____ _____  ____ __ ______    ______ _________
0                                  26907              ¿þþþþþþþþþþþþþþþþþþþþþþþþþþþþþþþþþþþþþþþþþþþþþþþþþþþþþþþþþþþþþþþþþþþþþÜ
                                   26908              Ÿ                                                                     Ÿ
                                   26909              Ÿ                                                                     Ÿ
                                   26910              Ÿ  ABORT EXEC FILE                                                    Ÿ
                                   26911              Ÿ                                                                     Ÿ
                                   26912              Ÿ  WE HANDLE EXEC ERRORS IN THE FOLLOWING ORDER ,,,,                  Ÿ
                                   26913              Ÿ    ON ATTENTION --                                                  Ÿ
                                   26914              Ÿ    ON ERROR --                                                      Ÿ
                                   26915              Ÿ    EXEC COMMAND RETRY --                                            Ÿ
                                   26916              Ÿ    EXEC BREAK ---                                                   Ÿ
                                   26917              Ÿ                                                                     Ÿ
                                   26918              Ÿ  NOTE: WE MUST SET THE USER ATTENTION VARIABLES BELOW,              Ÿ
                                   26919              Ÿ    AS WE MAY HAVE A VERY LATE POSTING OF THE ATTENTION              Ÿ
                                   26920              Ÿ    FLAG.  FOR SYMETRY REASONS WE ALSO SET USERS ERROR               Ÿ
                                   26921              Ÿ    VARIABLES TOO.  (THEY BOTH MAY ALREADY BE SET, BUT               Ÿ
                                   26922              Ÿ    IT DOES NOT HURT TO SET THEM TWICE.)                             Ÿ
                                   26923              Ÿ                                                                     Ÿ
                                   26924              Ÿ                                                                     Ÿ
                                                      ¾þþþþþþþþþþþþþþþþþþþþþþþþþþþþþþþþþþþþþþþþþþþþþþþþþþþþþþþþþþþþþþþþþþþþþ»
0004E50 50E0 D000/9008_      00000 26925              EXECABRT XPROC
 USING  *,R7
 004E6A 5860 C1C8            001C8 26965                       L     R6,CVCURJCB
 USING  JCB,R6                     26966                       USING JCB,R6
                                   26975
                                   26976                       COMMENT                   ENTRANCE EXAMS !
 004E6E 9180 B758/4710_00758       26977                       IF    ~CPFEXEC,BEGIN      IF NOT EXEC MODE, BOMB
 004E76 0000                       26992  1                      BOMB  ,
 004E78                            26994                       END
 004E78 9102 6062/4710_00062       26998                       IF    (~JCBFATTN,AND,~CPFERROR,AND,~CPFABORT),BEGIN
 004E90 0000                       27039  1                      BOMB  ,                   IF NOT ERROR OR ATTN, BOMB
 004E92                            27041                       END
                                   27045
                                   27046                       COMMENT                   MAKE DOUBLY SURE USERS
                                   27047                       COMMENT                   ERROR/ATTN VARIABLES SET !
 004E92 9102 6062/47E0_00062       27048                       IF    JCBFATTN,BEGIN
 004E9A 58E0 72C6/0DEE       05130 27063  1                      ACALL SETATTN
 004EA0 94BF BD5A      00D5A       27067  1                      CLEAR CPFERROR            ATTN OVERRIDES ERROR
 004EA4 947F BD5A      00D5A       27074  1                      CLEAR CPFABORT
 004EA8                            27081                       END
 004EA8 9140 BD5A/4710_00D5A       27085                       IF    (CPFERROR,OR,CPFABORT),BEGIN
 004EB8 58E0 72CA/0DEE       05134 27114  1                      ACALL SETERROR
 004EBE                            27118                       END
                                   27122                       ¿þþþþþþþþþþþþþþþþþþþþþþþþþþþþþþþþþþþþþþþÜ
                                   27123                       Ÿ  Check for ON ATTENTION condition,,,  Ÿ
                                   27124                       ¾þþþþþþþþþþþþþþþþþþþþþþþþþþþþþþþþþþþþþþþ»
                                   27125                       COMMENT                   IF ATTENTION, AND ON ATTN SET
 004EBE 9102 6062/47E0_00062       27126                       IF    (JCBFATTN,AND,CPFONATN),BEGIN
                                   27155  1           * Memorial to set exec log !    If exec log set and we are going
                                   27156  1           * to take the users 'on attn exit', give the user a chance to
                                   27157  1           * turn off exec logging.  *DO NOT allow the user to break if an
                                   27158  1           * attention exit is to be taken, otherwise it is impossible to
                                   27159  1           * write a non-breakable exec. however user may comment out 'on attn'
                                   27160  1                      COMMENT                   BEGIN 'ON ATTN' 'EXEC LOG' YUCK
1EXEC     (EXEC2193) (12:44) (15MAR04) ON ERROR/ON ATTENTION routines                                                       Page  106
0Current Usings:  (JCB,R6) (*,R7) (CP,R11) (CV,R12)
0Loc    Object Code    Addr1 Addr2  Stmt Lv Lineno    Source Statement           (Hibal 5, Asmedit 3.3)  HLASM R4.0  2004/03/15 12.44
+___    ______ ____    _____ _____  ____ __ ______    ______ _________
0004ECE 9108 B84C/4710_0084C       27161  1                      IF    (CPFLOG,OR,CPFXLOG),BEGIN
 004EDE 4110 725E/4100_      050C8 27190  2                        SETMSG 'Continue command logging'
 004EE6 58E0 72CE/0DEE       05138 27194  2                        VCALL YESRTN
 004EEC 4780 708E            04EF8 27198  2                        IF    NZ,BEGIN
 004EF0 94F7 B84C      0084C       27209  3                          CLEAR CPFLOG
 004EF4 94EF B84C      0084C       27216  3                          CLEAR CPFXLOG
 004EF8                            27223  2                        END
 004EF8                            27227  1                      END   ,                   END 'ON ATTN' 'EXEC LOG' YUCK
                                   27231  1           *
                                   27232  1           *  Got ON ATTNENTION condition,, process it
 004EF8 94FD 6062      00062       27233  1                      CLEAR JCBFATTN            CLEAR ATTENTION, ERR FLAGS
 004EFC 94BF BD5A      00D5A       27240  1                      CLEAR CPFERROR
 004F00 947F BD5A      00D5A       27247  1                      CLEAR CPFABORT
 004F04 4100 00EB            000EB 27254  1                      LA    R0,L'CPCMD          GET ON ATTENTION COMMAND
 004F08 4110 B242            00242 27255  1                      LA    R1,CPCMD
 004F0C 4120 7276            050E0 27256  1                      LA    R2,=CL16'SYS.ONATTN      '
 004F10 58E0 72BA/0DEE       05124 27257  1                      VCALL GETDATA
 004F16 4780 70B2            04F1C 27261  1                      IF    NZ,BEGIN
 004F1A 0000                       27272  2                        BOMB
 004F1C                            27274  1                      END
 004F1C 4000 B240            00240 27278  1                      STH   R0,CPCMDLEN
 004F20 947F B47A      0047A       27279  1                      CLEAR CPFONATN            SUSPEND ON ATTN
 004F24 9640 B47A      0047A       27286  1                      SET   CPFDDATN
 004F28 4800 B240            00240 27292  1                      LH    R0,CPCMDLEN         GO EXECUTE 'ON ATTN' COMMAND
 004F2C 4110 B242            00242 27293  1                      LA    R1,CPCMD
 004F30 58E0 72D2/0DEE       0513C 27294  1                      VCALL EDTCOM              DOES NOT RETURN !  --->>>
 004F36                            27298                       END
                                   27302                       ¿þþþþþþþþþþþþþþþþþþþþþþþþþþþþþþþþþþþþÜ
                                   27303                       Ÿ  Check for ON ERROR condition ,,,  Ÿ
                                   27304                       ¾þþþþþþþþþþþþþþþþþþþþþþþþþþþþþþþþþþþþ»
                                   27305                       COMMENT                   IF ERROR, AND ON ERROR,,,,
 004F36 9140 BD5A/4710_00D5A       27306                       IF    (CPFERROR,OR,CPFABORT),BEGIN
 004F46 9180 B479/47E0_00479       27335  1                      IF    CPFONERR,BEGIN
 004F4E 94FD 6062      00062       27350  2                        CLEAR JCBFATTN            CLEAR ERROR FLAGS
 004F52 94BF BD5A      00D5A       27357  2                        CLEAR CPFERROR
 004F56 947F BD5A      00D5A       27364  2                        CLEAR CPFABORT
 004F5A 4100 00EB            000EB 27371  2                        LA    R0,L'CPCMD          GET ON ERROR COMMAND
 004F5E 4110 B242            00242 27372  2                        LA    R1,CPCMD
 004F62 4120 7286            050F0 27373  2                        LA    R2,=CL16'SYS.ONERROR     '
 004F66 58E0 72BA/0DEE       05124 27374  2                        VCALL GETDATA
 004F6C 4780 7108            04F72 27378  2                        IF    NZ,BEGIN
 004F70 0000                       27389  3                          BOMB
 004F72                            27391  2                        END
 004F72 4000 B240            00240 27395  2                        STH   R0,CPCMDLEN
 004F76 947F B479      00479       27396  2                        CLEAR CPFONERR            SUSPEND ON ERROR ACTIVE
 004F7A 9640 B479      00479       27403  2                        SET   CPFDDERR
 004F7E 4800 B240            00240 27409  2                        LH    R0,CPCMDLEN         GO EXECUTE 'ON ERROR' COMMAND
 004F82 4110 B242            00242 27410  2                        LA    R1,CPCMD
 004F86 58E0 72D2/0DEE       0513C 27411  2                        VCALL EDTCOM              DOES NOT RETURN !  --->>>
 004F8C                            27415  1                      END
 004F8C                            27419                       END
1EXEC     (EXEC2193) (12:44) (15MAR04) ON ERROR/ON ATTENTION routines                                                       Page  107
0Current Usings:  (JCB,R6) (*,R7) (CP,R11) (CV,R12)
0Loc    Object Code    Addr1 Addr2  Stmt Lv Lineno    Source Statement           (Hibal 5, Asmedit 3.3)  HLASM R4.0  2004/03/15 12.44
+___    ______ ____    _____ _____  ____ __ ______    ______ _________
0                                  27423                       ¿þþþþþþþþþþþþþþþþþþþþþþþþþþþþþþþþþþþþþÜ
                                   27424                       Ÿ  If none of the above,, EXEC BREAK  Ÿ
                                   27425                       ¾þþþþþþþþþþþþþþþþþþþþþþþþþþþþþþþþþþþþþ»
                                   27426                       COMMENT                   IF ATTN, EXEC BREAK AT LINE ....
 004F8C 9102 6062/47E0_00062       27427                       IF    JCBFATTN,BEGIN
 004F94 94FD 6062      00062       27442  1                      CLEAR JCBFATTN            CLEAR ERROR FLAGS
 004F98 94BF BD5A      00D5A       27449  1                      CLEAR CPFERROR
 004F9C 947F BD5A      00D5A       27456  1                      CLEAR CPFABORT
 004FA0 4110 730B/4100_      05175 27463  1                      TSEG  'EXEC break at line ' GIVE BREAK MSG
 004FB2 5800 B778            00778 27481  1                      L     R0,CP#XSET
 004FB6 5810 B77C            0077C 27482  1                      L     R1,CPRGEXEC
 004FBA 4120 B75C            0075C 27483  1                      LA    R2,CPEXLINE
 004FBE 58E0 72BE/0DEE       05128 27484  1                      VCALL SEGXLNO
 004FC4 1B00/41F0 B050_            27488  1                      TCR
 004FD0 58E0 72DA/0DEE       05144 27513  1                      ACALL SETPAUSE
 004FD6 47F0 C7DE            007DE 27517  1                      B     CVNEXT              GO GET NEXT ERROR FROM TERMINAL
 004FDA                            27518                       END
                                   27522
                                   27523                       COMMENT                   IF ERROR, EXEC BREAK AT LINE ....
 004FDA 94FD 6062      00062       27524                       CLEAR JCBFATTN            CLEAR ERROR FLAGS
 004FDE 94BF BD5A      00D5A       27531                       CLEAR CPFERROR
 004FE2 947F BD5A      00D5A       27538                       CLEAR CPFABORT
 004FE6 4110 72F8/4100_      05162 27545                       TSEG  'EXEC error at line ' GIVE ERROR MSG
 004FF8 5800 B778            00778 27563                       L     R0,CP#XSET
 004FFC 5810 B77C            0077C 27564                       L     R1,CPRGEXEC
 005000 4120 B75C            0075C 27565                       LA    R2,CPEXLINE
 005004 58E0 72BE/0DEE       05128 27566                       VCALL SEGXLNO
 00500A 1B00/41F0 B050_            27570                       TCR
 005016 58E0 72DA/0DEE       05144 27595                       ACALL SETPAUSE
 00501C 47F0 C7DE            007DE 27599                       B     CVNEXT              GO GET NEXT CMD FROM TERMINAL
 005020 18D8/9808 D004_            27600                       PEND
 DROP   *,R7
 DROP   JCB,R6                     27620                       DROP  JCB
1EXEC     (EXEC2193) (12:44) (15MAR04) ON ERROR/ON ATTENTION routines                                                       Page  108
0Current Usings:  (CP,R11) (CV,R12)
0Loc    Object Code    Addr1 Addr2  Stmt Lv Lineno    Source Statement           (Hibal 5, Asmedit 3.3)  HLASM R4.0  2004/03/15 12.44
+___    ______ ____    _____ _____  ____ __ ______    ______ _________
0                                  27629                       QLTORG
1EXEC     (EXEC2193) (12:44) (15MAR04) ON ERROR/ON ATTENTION routines                                                       Page  109
0Current Usings:  (CP,R11) (CV,R12)
0Loc    Object Code    Addr1 Addr2  Stmt Lv Lineno    Source Statement           (Hibal 5, Asmedit 3.3)  HLASM R4.0  2004/03/15 12.44
+___    ______ ____    _____ _____  ____ __ ______    ______ _________
0                                  27682              ¿þþþþþþþþþþþþþþþþþþþþþþþþþþþþþþþþþþþþþþþþþþþþþþþþþþþþþþþþþþþþþþþþþþþþþÜ
                                   27683              Ÿ                                                                     Ÿ
                                   27684              Ÿ                                                                     Ÿ
                                   27685              Ÿ  PUSHON - PUSH ON CONDITION INFO                                    Ÿ
                                   27686              Ÿ                                                                     Ÿ
                                   27687              Ÿ                                                                     Ÿ
                                   27688              Ÿ  ON ENTRY:                                                          Ÿ
                                   27689              Ÿ       R0 - VAR STACK SET NUMBER FOR INFO TO PUSH                    Ÿ
                                   27690              Ÿ                                                                     Ÿ
                                   27691              Ÿ  ON EXIT:                                                           Ÿ
                                   27692              Ÿ      ON CONDITION INFO PUSHED                                       Ÿ
                                   27693              Ÿ      R15 - CC=ZERO                                                  Ÿ
                                   27694              Ÿ                                                                     Ÿ
                                   27695              Ÿ  CAUTION:                                                           Ÿ
                                   27696              Ÿ       SYS.ONERROR VALID ONLY IF CPFONERR OR CPFDDERR SET            Ÿ
                                   27697              Ÿ       SYS.ONATTN VALID ONLY IF CPFONATN OR CPFDDATN SET             Ÿ
                                   27698              Ÿ       SYS.ERRID VALID ONLY IF CPFXXERR SET                          Ÿ
                                   27699              Ÿ       SYS.ERRMSG VALID ONLY IF CPFXXERR SET                         Ÿ
                                   27700              Ÿ       SYS.ERRINFO VALID ONLY IF CPFXXERR SET                        Ÿ
                                   27701              Ÿ       SYS.ERRSETNO VALID ONLY IF CPFXXERR SET                       Ÿ
                                   27702              Ÿ       SYS.ATTNID VALID ONLY IF CPFXXATN SET                         Ÿ
                                   27703              Ÿ       SYS.ATTNINFO VALID ONLY IF CPFXXATN SET                       Ÿ
                                   27704              Ÿ                                                                     Ÿ
                                   27705              Ÿ                                                                     Ÿ
                                                      ¾þþþþþþþþþþþþþþþþþþþþþþþþþþþþþþþþþþþþþþþþþþþþþþþþþþþþþþþþþþþþþþþþþþþþþ»
0000000                00000 001E7 27706              PHONWA   RECORD BEGIN
 000000                            27714  1           PHON#SET   DS    F                  STACK SET # FOR POP
 000004                            27715  1           PHONNTRY   DS    XL(L'ONENTRY)      ERROR INFO DSECT
 0001E7                001E7 001E7 27716                       END
                                   27725              *
                                   27726              *
 005188 50E0 D000/9008_      00000 27727              PUSHON   XPROC PHONWA
 USING  *,R7
 USING  PHONWA-(4+36),R8
 USING  ONENTRY,R6                 27778                       USING ONENTRY,R6
 0051A2 4160 802C            00004 27787                       LA    R6,PHONNTRY
 0051A6 5000 8028            00000 27788                       ST    R0,PHON#SET
                                   27789
                                   27790                       COMMENT                   IF ON CONDITIONS EXIST,,,
 0051AA 9180 B479/4710_00479       27791                       IF    (CPFONERR,OR,CPFDDERR,OR,CPFONATN,OR,CPFDDATN),BEGIN
                                   27844  1
                                   27845  1                      COMMENT                   GET ON CONDITION INFORMATION
 0051CA D7FF 6000 6000_00000 00000 27846  1                      CLEAR ONENTRY
 0051D6 9180 B479/47E0_00479       27854  1                      IF    CPFONERR,' SET NNFONERR '
 0051E2 9140 B479/47E0_00479       27880  1                      IF    CPFDDERR,' SET NNFDDERR '
 0051EE 9180 B47A/47E0_0047A       27906  1                      IF    CPFONATN,' SET NNFONATN '
 0051FA 9140 B47A/47E0_0047A       27932  1                      IF    CPFDDATN,' SET NNFDDATN '
                                   27958  1
                                   27959  1                      COMMENT                   GET ON ERROR CMD
 005206 4100 00EB            000EB 27960  1                      LA    R0,L'NNERRCMD
 00520A 4110 6008            00008 27961  1                      LA    R1,NNERRCMD
 00520E 4120 742E            055D0 27962  1                      LA    R2,=CL16'SYS.ONERROR     '
 005212 58E0 74CE/0DEE       05670 27963  1                      VCALL GETDATA
1EXEC     (EXEC2193) (12:44) (15MAR04) ON ERROR/ON ATTENTION routines                                                       Page  110
0Current Usings:  (ONENTRY,R6) (*,R7) (PHONWA-(4+36),R8) (CP,R11) (CV,R12)
0Loc    Object Code    Addr1 Addr2  Stmt Lv Lineno    Source Statement           (Hibal 5, Asmedit 3.3)  HLASM R4.0  2004/03/15 12.44
+___    ______ ____    _____ _____  ____ __ ______    ______ _________
0005218 4780 707C            0521E 27967  1                      IF    NZ,BEGIN
 00521C 1B00                       27978  2                        CLEAR R0
 00521E                            27982  1                      END
 00521E 5000 6004            00004 27986  1                      ST    R0,NNERRLEN
                                   27987  1
                                   27988  1                      COMMENT                   GET ON ATTN CMD
 005222 4100 00EB            000EB 27989  1                      LA    R0,L'NNATNCMD
 005226 4110 60F8            000F8 27990  1                      LA    R1,NNATNCMD
 00522A 4120 743E            055E0 27991  1                      LA    R2,=CL16'SYS.ONATTN      '
 00522E 58E0 74CE/0DEE       05670 27992  1                      VCALL GETDATA
 005234 4780 7098            0523A 27996  1                      IF    NZ,BEGIN
 005238 1B00                       28007  2                        CLEAR R0
 00523A                            28011  1                      END
 00523A 5000 60F4            000F4 28015  1                      ST    R0,NNATNLEN
                                   28016  1
                                   28017  1                      COMMENT                   SAVE PUSHED ON CONDITION INFO
 00523E 4100 01E3            001E3 28018  1                      LA    R0,L'ONENTRY
 005242 4110 6000            00000 28019  1                      LA    R1,ONENTRY
 005246 4120 744E            055F0 28020  1                      LA    R2,=CL16'SYS.ONINFO      '
 00524A 5830 8028            00000 28021  1                      L     R3,PHON#SET
 00524E 58E0 74D2/0DEE       05674 28022  1                      VCALL SAVEVSTK
                                   28026  1
                                   28027  1                      COMMENT                   IF ON ERR SET, SET DEFAULT
 005254 9180 B479/4710_00479       28028  1                      IF    (CPFONERR,OR,CPFDDERR),BEGIN
 005264 947F B479      00479       28057  2                        CLEAR CPFONERR            DEFAULT IS NO ON ERROR SET!
 005268 94BF B479      00479       28064  2                        CLEAR CPFDDERR
 00526C                            28071  1                      END
                                   28075  1
                                   28076  1                      COMMENT                   IF ON ATTN SET, SET DEFAULT
 00526C 9180 B47A/4710_0047A       28077  1                      IF    (CPFONATN,OR,CPFDDATN),BEGIN
 00527C 4110 74DE/4100_      05680 28106  2                        SETMSG 'XRETURN ATTN '
 005284 4120 743E            055E0 28110  2                        LA    R2,=CL16'SYS.ONATTN      '
 005288 58E0 74D6/0DEE       05678 28111  2                        VCALL SAVEDATA
 00528E                            28115  1                      END
                                   28119  1
 00528E                            28120                       END   , OF ON COND EXISTS
                                   28124
 00528E 1BFF                       28125                       CLEAR R15
 005290 18D8/9808 D004_            28129                       PEND
 DROP   PHONWA-(4+36),R8
 DROP   *,R7
 DROP   ONENTRY,R6                 28154                       DROP  R6
1EXEC     (EXEC2193) (12:44) (15MAR04) ON ERROR/ON ATTENTION routines                                                       Page  111
0Current Usings:  (CP,R11) (CV,R12)
0Loc    Object Code    Addr1 Addr2  Stmt Lv Lineno    Source Statement           (Hibal 5, Asmedit 3.3)  HLASM R4.0  2004/03/15 12.44
+___    ______ ____    _____ _____  ____ __ ______    ______ _________
0                                  28162              ¿þþþþþþþþþþþþþþþþþþþþþþþþþþþþþþþþþþþþþþþþþþþþþþþþþþþþþþþþþþþþþþþþþþþþþÜ
                                   28163              Ÿ                                                                     Ÿ
                                   28164              Ÿ                                                                     Ÿ
                                   28165              Ÿ  POPON - POP ON CONDITION INFO                                      Ÿ
                                   28166              Ÿ                                                                     Ÿ
                                   28167              Ÿ                                                                     Ÿ
                                   28168              Ÿ  ON ENTRY:                                                          Ÿ
                                   28169              Ÿ       R0 - VAR STACK SET NUMBER FOR INFO TO POP                     Ÿ
                                   28170              Ÿ                                                                     Ÿ
                                   28171              Ÿ  ON EXIT:                                                           Ÿ
                                   28172              Ÿ      ON CONDITION INFO RESET                                        Ÿ
                                   28173              Ÿ      R15 - CC=ZERO                                                  Ÿ
                                   28174              Ÿ                                                                     Ÿ
                                   28175              Ÿ  CAUTION:                                                           Ÿ
                                   28176              Ÿ       SYS.ONERROR VALID ONLY IF CPFONERR OR CPFDDERR SET            Ÿ
                                   28177              Ÿ       SYS.ONATTN VALID ONLY IF CPFONATN OR CPFDDATN SET             Ÿ
                                   28178              Ÿ       SYS.ERRID VALID ONLY IF CPFXXERR SET                          Ÿ
                                   28179              Ÿ       SYS.ERRMSG VALID ONLY IF CPFXXERR SET                         Ÿ
                                   28180              Ÿ       SYS.ERRINFO VALID ONLY IF CPFXXERR SET                        Ÿ
                                   28181              Ÿ       SYS.ERRSETNO VALID ONLY IF CPFXXERR SET                       Ÿ
                                   28182              Ÿ       SYS.ATTNID VALID ONLY IF CPFXXATN SET                         Ÿ
                                   28183              Ÿ       SYS.ATTNINFO VALID ONLY IF CPFXXATN SET                       Ÿ
                                   28184              Ÿ                                                                     Ÿ
                                   28185              Ÿ                                                                     Ÿ
                                                      ¾þþþþþþþþþþþþþþþþþþþþþþþþþþþþþþþþþþþþþþþþþþþþþþþþþþþþþþþþþþþþþþþþþþþþþ»
0000000                00000 001E7 28186              PPONWA   RECORD BEGIN
 000000                            28194  1           PPON#SET   DS    F                   STACK SET # FOR POP
 000004                            28195  1           PPONNTRY   DS    XL(L'ONENTRY)      ERROR INFO DSECT
 0001E7                001E7 001E7 28196                       END
                                   28205              *
                                   28206              *
 00529E 50E0 D000/9008_      00000 28207              POPON    XPROC PPONWA
 USING  *,R7
 USING  PPONWA-(4+36),R8
 USING  ONENTRY,R6                 28258                       USING ONENTRY,R6
 0052B8 4160 802C            00004 28267                       LA    R6,PPONNTRY
 0052BC 5000 8028            00000 28268                       ST    R0,PPON#SET
                                   28269
                                   28270                       COMMENT                   GET PUSHED ERROR INFORMATION
 0052C0 4100 01E3            001E3 28271                       LA    R0,L'ONENTRY
 0052C4 4110 6000            00000 28272                       LA    R1,ONENTRY
 0052C8 4120 7338            055F0 28273                       LA    R2,=CL16'SYS.ONINFO      '
 0052CC 5830 8028            00000 28274                       L     R3,PPON#SET
 0052D0 58E0 73C4/0DEE       0567C 28275                       VCALL GETVSTK
                                   28279
                                   28280                       COMMENT                   IF NO  PUSHED ON CONDITIONS,
 0052D6 4780 7032            052EA 28281                       IF    NZ,BEGIN
 0052DA 947F B479      00479       28292  1                      CLEAR CPFONERR
 0052DE 94BF B479      00479       28299  1                      CLEAR CPFDDERR
 0052E2 947F B47A      0047A       28306  1                      CLEAR CPFONATN
 0052E6 94BF B47A      0047A       28313  1                      CLEAR CPFDDATN
 0052EA                            28320                       END
                                   28324
1EXEC     (EXEC2193) (12:44) (15MAR04) ON ERROR/ON ATTENTION routines                                                       Page  112
0Current Usings:  (ONENTRY,R6) (*,R7) (PPONWA-(4+36),R8) (CP,R11) (CV,R12)
0Loc    Object Code    Addr1 Addr2  Stmt Lv Lineno    Source Statement           (Hibal 5, Asmedit 3.3)  HLASM R4.0  2004/03/15 12.44
+___    ______ ____    _____ _____  ____ __ ______    ______ _________
0                                  28325                       COMMENT                   IF PUSHED ON CONDITIONS, POP EM
 0052EA 7036/47F0 70BA 052EA 052D8 28326                       ELSE  BEGIN
 0052EE 947F B479      00479       28337  1                      CLEAR CPFONERR            SET FLAGS
 0052F2 94BF B479      00479       28344  1                      CLEAR CPFDDERR
 0052F6 947F B47A      0047A       28351  1                      CLEAR CPFONATN
 0052FA 94BF B47A      0047A       28358  1                      CLEAR CPFDDATN
 0052FE 9180 6000/47E0_00000       28365  1                      IF    NNFONERR,' SET CPFONERR '
 00530A 9140 6000/47E0_00000       28391  1                      IF    NNFDDERR,' SET CPFDDERR '
 005316 9120 6000/47E0_00000       28417  1                      IF    NNFONATN,' SET CPFONATN '
 005322 9110 6000/47E0_00000       28443  1                      IF    NNFDDATN,' SET CPFDDATN '
 00532E 9180 6000/4710_00000       28469  1                      IF    (NNFONERR,OR,NNFDDERR),BEGIN    SET ON ERROR
 00533E 5800 6004            00004 28498  2                        L     R0,NNERRLEN
 005342 4110 6008            00008 28499  2                        LA    R1,NNERRCMD
 005346 4120 7318            055D0 28500  2                        LA    R2,=CL16'SYS.ONERROR     '
 00534A 58E0 73C0/0DEE       05678 28501  2                        VCALL SAVEDATA
 005350                            28505  1                      END
 005350 9120 6000/4710_00000       28509  1                      IF    (NNFONATN,OR,NNFDDATN),BEGIN    SET ON ATTN
 005360 5800 60F4            000F4 28538  2                        L     R0,NNATNLEN
 005364 4110 60F8            000F8 28539  2                        LA    R1,NNATNCMD
 005368 4120 7328            055E0 28540  2                        LA    R2,=CL16'SYS.ONATTN      '
 00536C 58E0 73C0/0DEE       05678 28541  2                        VCALL SAVEDATA
 005372                            28545  1                      END
 005372                            28549                       END
                                   28553
 005372 1BFF                       28554                       CLEAR R15
 005374 18D8/9808 D004_            28558                       PEND
 DROP   PPONWA-(4+36),R8
 DROP   *,R7
 DROP   ONENTRY,R6                 28583                       DROP  R6
1EXEC     (EXEC2193) (12:44) (15MAR04) ON ERROR/ON ATTENTION routines                                                       Page  113
0Current Usings:  (CP,R11) (CV,R12)
0Loc    Object Code    Addr1 Addr2  Stmt Lv Lineno    Source Statement           (Hibal 5, Asmedit 3.3)  HLASM R4.0  2004/03/15 12.44
+___    ______ ____    _____ _____  ____ __ ______    ______ _________
0                                  28591              ¿þþþþþþþþþþþþþþþþþþþþþþþþþþþþþþþþþþþþþþþþþþþþþþþþþþþþþþþþþþþþþþþþþþþþþÜ
                                   28592              Ÿ                                                                     Ÿ
                                   28593              Ÿ                                                                     Ÿ
                                   28594              Ÿ  PUSHERR - PUSH ERROR/ATTN INFO                                     Ÿ
                                   28595              Ÿ                                                                     Ÿ
                                   28596              Ÿ                                                                     Ÿ
                                   28597              Ÿ  ON ENTRY:                                                          Ÿ
                                   28598              Ÿ       R0 - VAR STACK SET NUMBER FOR INFO TO PUSH                    Ÿ
                                   28599              Ÿ                                                                     Ÿ
                                   28600              Ÿ  ON EXIT:                                                           Ÿ
                                   28601              Ÿ      ERROR/ATTN INFO PUSHED                                         Ÿ
                                   28602              Ÿ      R15 - CC=ZERO                                                  Ÿ
                                   28603              Ÿ                                                                     Ÿ
                                   28604              Ÿ  CAUTION:                                                           Ÿ
                                   28605              Ÿ       SYS.ERRID VALID ONLY IF CPFXXERR SET                          Ÿ
                                   28606              Ÿ       SYS.ERRMSG VALID ONLY IF CPFXXERR SET                         Ÿ
                                   28607              Ÿ       SYS.ERRINFO VALID ONLY IF CPFXXERR SET                        Ÿ
                                   28608              Ÿ       SYS.ERRSETNO VALID ONLY IF CPFXXERR SET                       Ÿ
                                   28609              Ÿ       SYS.ATTNID VALID ONLY IF CPFXXATN SET                         Ÿ
                                   28610              Ÿ       SYS.ATTNINFO VALID ONLY IF CPFXXATN SET                       Ÿ
                                   28611              Ÿ                                                                     Ÿ
                                   28612              Ÿ                                                                     Ÿ
                                                      ¾þþþþþþþþþþþþþþþþþþþþþþþþþþþþþþþþþþþþþþþþþþþþþþþþþþþþþþþþþþþþþþþþþþþþþ»
0000000                00000 002EB 28613              PHRRWA   RECORD BEGIN
 000000                            28621  1           PHRR#SET   DS    F                  STACK SET # FOR POP
 000004                            28622  1           PHRRNTRY   DS    XL(L'ERRENTRY)     ERROR INFO DSECT
 0002EB                002EB 002EB 28623                       END
                                   28632              *
                                   28633              *
 005382 50E0 D000/9008_      00000 28634              PUSHERR  XPROC PHRRWA
 USING  *,R7
 USING  PHRRWA-(4+36),R8
 USING  ERRENTRY,R6                28685                       USING ERRENTRY,R6
 00539C 4160 802C            00004 28694                       LA    R6,PHRRNTRY
 0053A0 5000 8028            00000 28695                       ST    R0,PHRR#SET
                                   28696
                                   28697                       COMMENT                   IF ERROR/ATTN VARS SET,,,
 0053A4 9120 B479/4710_00479       28698                       IF    (CPFXXERR,OR,CPFXXATN),BEGIN
                                   28727  1
                                   28728  1                      COMMENT                   GET ERROR/ATTN VARIABLES
 0053B4 D7FF 6000 6000_00000 00000 28729  1                      CLEAR ERRENTRY
 0053C6 9120 B479/47E0_00479       28738  1                      IF    CPFXXERR,' SET RRFXXERR '
 0053D2 9110 B47A/47E0_0047A       28764  1                      IF    CPFXXATN,' SET RRFXXATN '
                                   28790  1
                                   28791  1                      COMMENT                   IF ERROR, SAVE ERROR ID
 0053DE 9120 B479/47E0_00479       28792  1                      IF    CPFXXERR,BEGIN
 0053E6 4100 0008            00008 28807  2                        LA    R0,L'RRERRID
 0053EA 4110 6008            00008 28808  2                        LA    R1,RRERRID
 0053EE 4120 7264            05600 28809  2                        LA    R2,=CL16'SYS.ERRID       '
 0053F2 58E0 72D4/0DEE       05670 28810  2                        VCALL GETDATA
 0053F8 4780 7062            053FE 28814  2                        IF    NZ,BEGIN
 0053FC 0000                       28825  3                          BOMB
 0053FE                            28827  2                        END
1EXEC     (EXEC2193) (12:44) (15MAR04) ON ERROR/ON ATTENTION routines                                                       Page  114
0Current Usings:  (ERRENTRY,R6) (*,R7) (PHRRWA-(4+36),R8) (CP,R11) (CV,R12)
0Loc    Object Code    Addr1 Addr2  Stmt Lv Lineno    Source Statement           (Hibal 5, Asmedit 3.3)  HLASM R4.0  2004/03/15 12.44
+___    ______ ____    _____ _____  ____ __ ______    ______ _________
00053FE                            28831  1                      END
                                   28835  1
                                   28836  1                      COMMENT                   IF ERROR, SAVE ERROR MESSAGE
 0053FE 9120 B479/47E0_00479       28837  1                      IF    CPFXXERR,BEGIN
 005406 4100 00EB            000EB 28852  2                        LA    R0,L'RREMSG
 00540A 4110 6014            00014 28853  2                        LA    R1,RREMSG
 00540E 4120 7274            05610 28854  2                        LA    R2,=CL16'SYS.ERRMSG      '
 005412 58E0 72D4/0DEE       05670 28855  2                        VCALL GETDATA
 005418 4780 7082            0541E 28859  2                        IF    NZ,BEGIN
 00541C 0000                       28870  3                          BOMB
 00541E                            28872  2                        END
 00541E 5000 6010            00010 28876  2                        ST    R0,RREMSGL
 005422                            28877  1                      END
                                   28881  1
                                   28882  1                      COMMENT                   IF ERROR, SAVE ERROR INFO
 005422 9120 B479/47E0_00479       28883  1                      IF    CPFXXERR,BEGIN
 00542A 4100 00EB            000EB 28898  2                        LA    R0,L'RREINFO
 00542E 4110 6104            00104 28899  2                        LA    R1,RREINFO
 005432 4120 7284            05620 28900  2                        LA    R2,=CL16'SYS.ERRINFO     '
 005436 58E0 72D4/0DEE       05670 28901  2                        VCALL GETDATA
 00543C 4780 70A6            05442 28905  2                        IF    NZ,BEGIN
 005440 0000                       28916  3                          BOMB
 005442                            28918  2                        END
 005442 5000 6100            00100 28922  2                        ST    R0,RREINFOL
 005446                            28923  1                      END
                                   28927  1
                                   28928  1                      COMMENT                   IF ERROR, SAVE ERROR SET NUMBER
 005446 9120 B479/47E0_00479       28929  1                      IF    CPFXXERR,BEGIN
 00544E 4100 0004            00004 28944  2                        LA    R0,L'RRSETNO
 005452 4110 6004            00004 28945  2                        LA    R1,RRSETNO
 005456 4120 7294            05630 28946  2                        LA    R2,=CL16'SYS.ERRSETNO    '
 00545A 58E0 72D4/0DEE       05670 28947  2                        VCALL GETDATA
 005460 4780 70CA            05466 28951  2                        IF    NZ,BEGIN
 005464 0000                       28962  3                          BOMB
 005466                            28964  2                        END
 005466                            28968  1                      END
                                   28972  1
                                   28973  1                      COMMENT                   IF ATTN, SAVE ATTN ID
 005466 9110 B47A/47E0_0047A       28974  1                      IF    CPFXXATN,BEGIN
 00546E 4100 0008            00008 28989  2                        LA    R0,L'RRATTNID
 005472 4110 61EF            001EF 28990  2                        LA    R1,RRATTNID
 005476 4120 72A4            05640 28991  2                        LA    R2,=CL16'SYS.ATTNID      '
 00547A 58E0 72D4/0DEE       05670 28992  2                        VCALL GETDATA
 005480 4780 70EA            05486 28996  2                        IF    NZ,BEGIN
 005484 0000                       29007  3                          BOMB
 005486                            29009  2                        END
 005486                            29013  1                      END
                                   29017  1
                                   29018  1                      COMMENT                   IF ATTN, SAVE ATTN INFO
 005486 9110 B47A/47E0_0047A       29019  1                      IF    CPFXXATN,BEGIN
 00548E 4100 00EB            000EB 29034  2                        LA    R0,L'RRAINFO
 005492 4110 61FC            001FC 29035  2                        LA    R1,RRAINFO
 005496 4120 72B4            05650 29036  2                        LA    R2,=CL16'SYS.ATTNINFO    '
 00549A 58E0 72D4/0DEE       05670 29037  2                        VCALL GETDATA
1EXEC     (EXEC2193) (12:44) (15MAR04) ON ERROR/ON ATTENTION routines                                                       Page  115
0Current Usings:  (ERRENTRY,R6) (*,R7) (PHRRWA-(4+36),R8) (CP,R11) (CV,R12)
0Loc    Object Code    Addr1 Addr2  Stmt Lv Lineno    Source Statement           (Hibal 5, Asmedit 3.3)  HLASM R4.0  2004/03/15 12.44
+___    ______ ____    _____ _____  ____ __ ______    ______ _________
00054A0 4780 710A            054A6 29041  2                        IF    NZ,BEGIN
 0054A4 0000                       29052  3                          BOMB
 0054A6                            29054  2                        END
 0054A6 5000 61F8            001F8 29058  2                        ST    R0,RRAINFOL
 0054AA                            29059  1                      END
                                   29063  1
                                   29064  1                      COMMENT                   SAVE PUSHED ERROR/ATTN INFO
 0054AA 4100 02E7            002E7 29065  1                      LA    R0,L'ERRENTRY
 0054AE 4110 6000            00000 29066  1                      LA    R1,ERRENTRY
 0054B2 4120 72C4            05660 29067  1                      LA    R2,=CL16'SYS.ERRATTNINFO '
 0054B6 5830 8028            00000 29068  1                      L     R3,PHRR#SET
 0054BA 58E0 72D8/0DEE       05674 29069  1                      VCALL SAVEVSTK
                                   29073  1
                                   29074  1                      COMMENT                   DEFAULT FOR NEXT XPROC IS:
 0054C0 94DF B479      00479       29075  1                      CLEAR CPFXXERR            NO ERROR SET
 0054C4 94EF B47A      0047A       29082  1                      CLEAR CPFXXATN            NO ATTN SET
                                   29089  1
 0054C8                            29090                       END   , IF ERROR OR ATTN
                                   29094
 0054C8 1BFF                       29095                       CLEAR R15
 0054CA 18D8/9808 D004_            29099                       PEND
 DROP   PHRRWA-(4+36),R8
 DROP   *,R7
 DROP   ERRENTRY,R6                29124                       DROP  R6
1EXEC     (EXEC2193) (12:44) (15MAR04) ON ERROR/ON ATTENTION routines                                                       Page  116
0Current Usings:  (CP,R11) (CV,R12)
0Loc    Object Code    Addr1 Addr2  Stmt Lv Lineno    Source Statement           (Hibal 5, Asmedit 3.3)  HLASM R4.0  2004/03/15 12.44
+___    ______ ____    _____ _____  ____ __ ______    ______ _________
0                                  29132              ¿þþþþþþþþþþþþþþþþþþþþþþþþþþþþþþþþþþþþþþþþþþþþþþþþþþþþþþþþþþþþþþþþþþþþþÜ
                                   29133              Ÿ                                                                     Ÿ
                                   29134              Ÿ                                                                     Ÿ
                                   29135              Ÿ  POPERR - POP ERROR/ATTENTRION INFO                                 Ÿ
                                   29136              Ÿ                                                                     Ÿ
                                   29137              Ÿ                                                                     Ÿ
                                   29138              Ÿ  ON ENTRY:                                                          Ÿ
                                   29139              Ÿ       R0 - VAR STACK SET NUMBER FOR INFO TO POP                     Ÿ
                                   29140              Ÿ                                                                     Ÿ
                                   29141              Ÿ  ON EXIT:                                                           Ÿ
                                   29142              Ÿ      ERROR/ATTENTION INFO RESET                                     Ÿ
                                   29143              Ÿ      R15 - CC=ZERO                                                  Ÿ
                                   29144              Ÿ                                                                     Ÿ
                                   29145              Ÿ  NOTE:                                                              Ÿ
                                   29146              Ÿ       ERROR/ATTENTION VARIABLES ARE SET HERE (POPPED), BUT          Ÿ
                                   29147              Ÿ       'XRETURN ATTENTION' OR 'XRETURN ERROR' VALUES WILL            Ÿ
                                   29148              Ÿ       OVERRIDE THESE POPPED VALUES, AS THEY ARE PROCESSED           Ÿ
                                   29149              Ÿ       AFTER THIS CALL TO 'POPERR' ROUTINE.                          Ÿ
                                   29150              Ÿ                                                                     Ÿ
                                   29151              Ÿ  CAUTION:                                                           Ÿ
                                   29152              Ÿ       SYS.ERRID VALID ONLY IF CPFXXERR SET                          Ÿ
                                   29153              Ÿ       SYS.ERRMSG VALID ONLY IF CPFXXERR SET                         Ÿ
                                   29154              Ÿ       SYS.ERRINFO VALID ONLY IF CPFXXERR SET                        Ÿ
                                   29155              Ÿ       SYS.ERRSETNO VALID ONLY IF CPFXXERR SET                       Ÿ
                                   29156              Ÿ       SYS.ATTNID VALID ONLY IF CPFXXATN SET                         Ÿ
                                   29157              Ÿ       SYS.ATTNINFO VALID ONLY IF CPFXXATN SET                       Ÿ
                                   29158              Ÿ                                                                     Ÿ
                                   29159              Ÿ                                                                     Ÿ
                                                      ¾þþþþþþþþþþþþþþþþþþþþþþþþþþþþþþþþþþþþþþþþþþþþþþþþþþþþþþþþþþþþþþþþþþþþþ»
0000000                00000 002EB 29160              PPRRWA   RECORD BEGIN
 000000                            29168  1           PPRR#SET   DS    F                   STACK SET # FOR POP
 000004                            29169  1           PPRRNTRY   DS    XL(L'ERRENTRY)      ERROR INFO DSECT
 0002EB                002EB 002EB 29170                       END
                                   29179              *
                                   29180              *
 0054D8 50E0 D000/9008_      00000 29181              POPERR   XPROC PPRRWA
 USING  *,R7
 USING  PPRRWA-(4+36),R8
 USING  ERRENTRY,R6                29232                       USING ERRENTRY,R6
 0054F2 4160 802C            00004 29241                       LA    R6,PPRRNTRY
 0054F6 5000 8028            00000 29242                       ST    R0,PPRR#SET
                                   29243
                                   29244                       COMMENT                   GET PUSHED ERROR INFORMATION
 0054FA 4100 02E7            002E7 29245                       LA    R0,L'ERRENTRY
 0054FE 4110 6000            00000 29246                       LA    R1,ERRENTRY
 005502 4120 716E            05660 29247                       LA    R2,=CL16'SYS.ERRATTNINFO '
 005506 5830 8028            00000 29248                       L     R3,PPRR#SET
 00550A 58E0 718A/0DEE       0567C 29249                       VCALL GETVSTK
                                   29253
                                   29254                       COMMENT                   IF NO PUSHED ERR/ATTN VARS,
 005510 4780 702A            0551C 29255                       IF    NZ,BEGIN
 005514 94DF B479      00479       29266  1                      CLEAR CPFXXERR
 005518 94EF B47A      0047A       29273  1                      CLEAR CPFXXATN
1EXEC     (EXEC2193) (12:44) (15MAR04) ON ERROR/ON ATTENTION routines                                                       Page  117
0Current Usings:  (ERRENTRY,R6) (*,R7) (PPRRWA-(4+36),R8) (CP,R11) (CV,R12)
0Loc    Object Code    Addr1 Addr2  Stmt Lv Lineno    Source Statement           (Hibal 5, Asmedit 3.3)  HLASM R4.0  2004/03/15 12.44
+___    ______ ____    _____ _____  ____ __ ______    ______ _________
000551C                            29280                       END
                                   29284
                                   29285                       COMMENT                   IF PUSHED ERROR/ATTN, POP EM
 00551C 702E/47F0 70CA 0551C 05512 29286                       ELSE  BEGIN
 005520 94DF B479      00479       29297  1                      CLEAR CPFXXERR            SET FLAGS
 005524 94EF B47A      0047A       29304  1                      CLEAR CPFXXATN
 005528 9180 6000/47E0_00000       29311  1                      IF    RRFXXERR,' SET CPFXXERR '
 005534 9140 6000/47E0_00000       29337  1                      IF    RRFXXATN,' SET CPFXXATN '
                                   29363  1
                                   29364  1                      COMMENT                   IF ERROR,
 005540 9180 6000/47E0_00000       29365  1                      IF    RRFXXERR,BEGIN
 005548 4100 0008            00008 29380  2                        LA    R0,L'RRERRID        POP ERRID
 00554C 4110 6008            00008 29381  2                        LA    R1,RRERRID
 005550 4120 710E            05600 29382  2                        LA    R2,=CL16'SYS.ERRID       '
 005554 58E0 7186/0DEE       05678 29383  2                        VCALL SAVEDATA
 00555A 5800 6010            00010 29387  2                        L     R0,RREMSGL          POP ERRMSG
 00555E 4110 6014            00014 29388  2                        LA    R1,RREMSG
 005562 4120 711E            05610 29389  2                        LA    R2,=CL16'SYS.ERRMSG      '
 005566 58E0 7186/0DEE       05678 29390  2                        VCALL SAVEDATA
 00556C 5800 6100            00100 29394  2                        L     R0,RREINFOL         POP ERRINFO
 005570 4110 6104            00104 29395  2                        LA    R1,RREINFO
 005574 4120 712E            05620 29396  2                        LA    R2,=CL16'SYS.ERRINFO     '
 005578 58E0 7186/0DEE       05678 29397  2                        VCALL SAVEDATA
 00557E 4100 0004            00004 29401  2                        LA    R0,L'RRSETNO
 005582 4110 6004            00004 29402  2                        LA    R1,RRSETNO
 005586 4120 713E            05630 29403  2                        LA    R2,=CL16'SYS.ERRSETNO    '
 00558A 58E0 7186/0DEE       05678 29404  2                        VCALL SAVEDATA
 005590                            29408  1                      END
                                   29412  1
                                   29413  1                      COMMENT                   IF ATTN,
 005590 9140 6000/47E0_00000       29414  1                      IF    RRFXXATN,BEGIN
 005598 4100 0008            00008 29429  2                        LA    R0,L'RRATTNID       POP ATTNID
 00559C 4110 61EF            001EF 29430  2                        LA    R1,RRATTNID
 0055A0 4120 714E            05640 29431  2                        LA    R2,=CL16'SYS.ATTNID      '
 0055A4 58E0 7186/0DEE       05678 29432  2                        VCALL SAVEDATA
 0055AA 5800 61F8            001F8 29436  2                        L     R0,RRAINFOL         POP ATTNINFO
 0055AE 4110 61FC            001FC 29437  2                        LA    R1,RRAINFO
 0055B2 4120 715E            05650 29438  2                        LA    R2,=CL16'SYS.ATTNINFO    '
 0055B6 58E0 7186/0DEE       05678 29439  2                        VCALL SAVEDATA
 0055BC                            29443  1                      END
                                   29447  1
 0055BC                            29448                       END   , OF IF ERR/ATTN TO POP
                                   29452
 0055BC 1BFF                       29453                       CLEAR R15
 0055BE 18D8/9808 D004_            29457                       PEND
 DROP   PPRRWA-(4+36),R8
 DROP   *,R7
 DROP   ERRENTRY,R6                29482                       DROP  R6
1EXEC     (EXEC2193) (12:44) (15MAR04) ON ERROR/ON ATTENTION routines                                                       Page  118
0Current Usings:  (CP,R11) (CV,R12)
0Loc    Object Code    Addr1 Addr2  Stmt Lv Lineno    Source Statement           (Hibal 5, Asmedit 3.3)  HLASM R4.0  2004/03/15 12.44
+___    ______ ____    _____ _____  ____ __ ______    ______ _________
0                                  29490                       QLTORG
1EXEC     (EXEC2193) (12:44) (15MAR04) HOLD/ALLOW ATTENTION INTERRUPT ROUTINES                                              Page  119
0Current Usings:  (CP,R11) (CV,R12)
0Loc    Object Code    Addr1 Addr2  Stmt Lv Lineno    Source Statement           (Hibal 5, Asmedit 3.3)  HLASM R4.0  2004/03/15 12.44
+___    ______ ____    _____ _____  ____ __ ______    ______ _________
0                                  29518              ¿þþþþþþþþþþþþþþþþþþþþþþþþþþþþþþþþþþþþþþþþþþþþþþþþþþþþþþþþþþþþþþþþþþþþþÜ
                                   29519              Ÿ                                                                     Ÿ
                                   29520              Ÿ                                                                     Ÿ
                                   29521              Ÿ  HOLDATN - HOLD ATTENTIONS,                                         Ÿ
                                   29522              Ÿ                                                                     Ÿ
                                   29523              Ÿ  DO NOT ALLOW ATTENTIONS TO INTERRUPT COMMANDS.                     Ÿ
                                   29524              Ÿ                                                                     Ÿ
                                   29525              Ÿ                                                                     Ÿ
                                   29526              Ÿ                                                                     Ÿ
                                                      ¾þþþþþþþþþþþþþþþþþþþþþþþþþþþþþþþþþþþþþþþþþþþþþþþþþþþþþþþþþþþþþþþþþþþþþ»
000568E 50E0 D000/9008_      00000 29527              HOLDATN  XPROC
 USING  *,R7
 USING  JCB,R6                     29567                       USING JCB,R6
 0056A8 5860 C1C8            001C8 29576                       L     R6,CVCURJCB
                                   29577
 0056AC 9640 6062      00062       29578                       SET   JCBFNATN            DON'T ALLOW ATTNS TO STOP COMMANDS
 0056B0 94F7 6062      00062       29584                       CLEAR JCBFPATN
 0056B4 9102 6062/47E0_00062       29591                       IF    JCBFATTN,BEGIN      IF ALREADY HAVE ATTN,
 0056BC 9608 6062      00062       29606  1                      SET   JCBFPATN            SET PENDING ATTN
 0056C0                            29612                       END
 0056C0 94FD 6062      00062       29616                       CLEAR JCBFATTN
                                   29623
 0056C4 18D8/9808 D004_            29624                       PEND
 DROP   *,R7
 DROP   JCB,R6                     29644                       DROP  R6
1EXEC     (EXEC2193) (12:44) (15MAR04) HOLD/ALLOW ATTENTION INTERRUPT ROUTINES                                              Page  120
0Current Usings:  (CP,R11) (CV,R12)
0Loc    Object Code    Addr1 Addr2  Stmt Lv Lineno    Source Statement           (Hibal 5, Asmedit 3.3)  HLASM R4.0  2004/03/15 12.44
+___    ______ ____    _____ _____  ____ __ ______    ______ _________
0                                  29652              ¿þþþþþþþþþþþþþþþþþþþþþþþþþþþþþþþþþþþþþþþþþþþþþþþþþþþþþþþþþþþþþþþþþþþþþÜ
                                   29653              Ÿ                                                                     Ÿ
                                   29654              Ÿ                                                                     Ÿ
                                   29655              Ÿ  ALLOWATN - ALLOW ATTENTION                                         Ÿ
                                   29656              Ÿ                                                                     Ÿ
                                   29657              Ÿ  ALLOW ATTENTIONS, SET ATTENTION FLAG IF WE HAVE PENDING ATTENTION  Ÿ
                                   29658              Ÿ                                                                     Ÿ
                                   29659              Ÿ                                                                     Ÿ
                                   29660              Ÿ                                                                     Ÿ
                                                      ¾þþþþþþþþþþþþþþþþþþþþþþþþþþþþþþþþþþþþþþþþþþþþþþþþþþþþþþþþþþþþþþþþþþþþþ»
00056D2 50E0 D000/9008_      00000 29661              ALLOWATN XPROC
 USING  *,R7
 USING  JCB,R6                     29701                       USING JCB,R6
 0056EC 5860 C1C8            001C8 29710                       L     R6,CVCURJCB
                                   29711
 0056F0 94BF 6062      00062       29712                       CLEAR JCBFNATN            ALLOW ATTENTIONS
 0056F4 9108 6062/47E0_00062       29719                       IF    JCBFPATN,BEGIN      IF PENDING ATTENTION,
 0056FC 9602 6062      00062       29734  1                      SET   JCBFATTN            SET ATTN FLAG
 005700 94F7 6062      00062       29740  1                      CLEAR JCBFPATN
 005704                            29747                       END
                                   29751
 005704 18D8/9808 D004_            29752                       PEND
 DROP   *,R7
 DROP   JCB,R6                     29772                       DROP  R6
1EXEC     (EXEC2193) (12:44) (15MAR04) HOLD/ALLOW ATTENTION INTERRUPT ROUTINES                                              Page  121
0Current Usings:  (CP,R11) (CV,R12)
0Loc    Object Code    Addr1 Addr2  Stmt Lv Lineno    Source Statement           (Hibal 5, Asmedit 3.3)  HLASM R4.0  2004/03/15 12.44
+___    ______ ____    _____ _____  ____ __ ______    ______ _________
0                                  29780              ¿þþþþþþþþþþþþþþþþþþþþþþþþþþþþþþþþþþþþþþþþþþþþþþþþþþþþþþþþþþþþþþþþþþþþþÜ
                                   29781              Ÿ                                                                     Ÿ
                                   29782              Ÿ                                                                     Ÿ
                                   29783              Ÿ  TRASHATN - SUPPRESS (THROW OUT) ATTN                               Ÿ
                                   29784              Ÿ                                                                     Ÿ
                                   29785              Ÿ  WE DO MORE THAN SIMPLY CLEAR THE JCBFATTN FLAG !!!                 Ÿ
                                   29786              Ÿ  WE ALSO COUNT THE NUMBER OF DISCAREDED ATTNS, IF IT                Ÿ
                                   29787              Ÿ  EXCEEDS SOME NUMBER (ABOUT 5) WE ALLOW EXEC BREAKS.                Ÿ
                                   29788              Ÿ                                                                     Ÿ
                                   29789              Ÿ                                                                     Ÿ
                                   29790              Ÿ                                                                     Ÿ
                                                      ¾þþþþþþþþþþþþþþþþþþþþþþþþþþþþþþþþþþþþþþþþþþþþþþþþþþþþþþþþþþþþþþþþþþþþþ»
0005712 50E0 D000/9008_      00000 29791              TRASHATN XPROC
 USING  *,R7
 USING  JCB,R6                     29831                       USING JCB,R6
 00572C 5860 C1C8            001C8 29840                       L     R6,CVCURJCB
                                   29841
 005730 9102 6062/47E0_00062       29842                       IF    JCBFATTN,BEGIN      IF ATTN,,
 005738 94FD 6062      00062       29857  1                      CLEAR JCBFATTN            SUPRESS ATTN
 00573C 4810 B8A0            008A0 29864  1                      LH    R1,CPATTNCT         COUNT SUPPRESSED ATTNS
 005740 4111 0001            00001 29865  1                      LA    R1,1(R1)
 005744 4010 B8A0            008A0 29866  1                      STH   R1,CPATTNCT
 005748 D501 703C B8A0_05768 008A0 29867  1                      IF    (CPATTNCT,GT,5),BEGIN  IF TOO MANY SUPPRESSED ATTNS
 005752 947F B47A      0047A       29885  2                        CLEAR CPFONATN               ALLOW BREAK ON NEXT ATTN
 005756 94BF B47A      0047A       29892  2                        CLEAR CPFDDATN
 00575A                            29899  1                      END
 00575A                            29903                       END
                                   29907
 00575A 18D8/9808 D004_            29908                       PEND
 DROP   *,R7
 DROP   JCB,R6                     29928                       DROP  R6
1EXEC     (EXEC2193) (12:44) (15MAR04) HOLD/ALLOW ATTENTION INTERRUPT ROUTINES                                              Page  122
0Current Usings:  (CP,R11) (CV,R12)
0Loc    Object Code    Addr1 Addr2  Stmt Lv Lineno    Source Statement           (Hibal 5, Asmedit 3.3)  HLASM R4.0  2004/03/15 12.44
+___    ______ ____    _____ _____  ____ __ ______    ______ _________
0                                  29936                       QLTORG
1EXEC     (EXEC2193) (12:44) (15MAR04) Command Pre-Processor                                                                Page  123
0Current Usings:  (CP,R11) (CV,R12)
0Loc    Object Code    Addr1 Addr2  Stmt Lv Lineno    Source Statement           (Hibal 5, Asmedit 3.3)  HLASM R4.0  2004/03/15 12.44
+___    ______ ____    _____ _____  ____ __ ______    ______ _________
0                                  29951              ¿þþþþþþþþþþþþþþþþþþþþþþþþþþþþþþþþþþþþþþþþþþþþþþþþþþþþþþþþþþþþþþþþþþþþþÜ
                                   29952              Ÿ                                                                     Ÿ
                                   29953              Ÿ                                                                     Ÿ
                                   29954              Ÿ  PREPROC - PREPROCESS WYLBUR COMMAND                                Ÿ
                                   29955              Ÿ                                                                     Ÿ
                                   29956              Ÿ  ON ENTRY:                                                          Ÿ
                                   29957              Ÿ       R1 - COMMAND LOCATION                                         Ÿ
                                   29958              Ÿ            (MUST BE AT LEAST &LINESZ LONG !!)                       Ÿ
                                   29959              Ÿ       R0 - COMMAND LENGTH                                           Ÿ
                                   29960              Ÿ                                                                     Ÿ
                                   29961              Ÿ  ON EXIT:                                                           Ÿ
                                   29962              Ÿ       R0 - NEW COMMAND LENGTH                                       Ÿ
                                   29963              Ÿ       R1 - COMMAND LOCATION (SAME AS ABOVE!)                        Ÿ
                                   29964              Ÿ                                                                     Ÿ
                                   29965              Ÿ  REGISTER USAGE:                                                    Ÿ
                                   29966              Ÿ       R0 - END OF INPUT COMMAND                                     Ÿ
                                   29967              Ÿ       R1 - INDEX INTO INPUT COMMAND                                 Ÿ
                                   29968              Ÿ       R2 - FUNCTION BYTE CODE (ESCAPE/SKIP)                         Ÿ
                                   29969              Ÿ       R3 - TEMPORARY LENGTH REGISTER                                Ÿ
                                   29970              Ÿ       R4 - OUTPUT COMMAND INDEX                                     Ÿ
                                   29971              Ÿ       R5 - INPUT COMMAND INDEX, POINTS TO LAST CHARACTER            Ÿ
                                   29972              Ÿ            MOVED FROM INPUT COMMAND TO OUTPUT COMMAND               Ÿ
                                   29973              Ÿ       R6 - EXPRESSION STACK POINTER                                 Ÿ
                                   29974              Ÿ      R15 - WORK REGISTER                                            Ÿ
                                   29975              Ÿ                                                                     Ÿ
                                   29976              Ÿ  *  FOR MORE INFO SEE SECTION ON WYLBUR PREPROCESSOR                Ÿ
                                   29977              Ÿ     IN "WYLBUR EXEC FILE MANUAL."                                   Ÿ
                                   29978              Ÿ                                                                     Ÿ
                                   29979              Ÿ  *  ALL ERRORS WILL EXIT DIRECTLY VIA CV ERROR EXIT.                Ÿ
                                   29980              Ÿ                                                                     Ÿ
                                   29981              Ÿ                                                                     Ÿ
                                                      ¾þþþþþþþþþþþþþþþþþþþþþþþþþþþþþþþþþþþþþþþþþþþþþþþþþþþþþþþþþþþþþþþþþþþþþ»
0000000                00000 00449 29982              PREWA    RECORD BEGIN
 000000                            29990  1           PRELOC     DS    F                   INPUT COMMAND LOCATION
 000004                            29991  1           PRETRT     DS    XL256               TRT AREA
 000104                            29992  1           PREXVAL    DS    XL(L'XSLENTRY)      EXPRESSION VALUE RETURN AREA
                                   29993  1           PRECMD     DS    (&LINESZ+256)X      OUTPUT COMMAND WORK AREA
 000254                                   1          +PRECMD     DS    (235+256)X          OUTPUT COMMAND WORK AREA
 000440                            29994  1           PRESCNCT   DS    F                   COUNT OF RESCANS
 000444                            29995  1           PREPTR     DS    F                   RESCAN POINTER IN OUTPUT CMD
 000448 00                         29996  1           PREFLAGS   FLAG  ,
 PREFLAGS.PCHANGED 80 ONES         30000  1                      FLAG  PCHANGED            COMMAND CHANGED ON THIS SCAN
 PREFLAGS.PRESCAN  40 ONES         30005  1                      FLAG  PRESCAN             RESCAN COMMAND
 PREFLAGS.PGOTNSW  20 ONES         30010  1                      FLAG  PGOTNSW             EVALUATE &N0-&S0-&W0,,, ETC
 PREFLAGS.PGOTEXPR 10 ONES         30015  1                      FLAG  PGOTEXPR            EVALUATE &(..EXPR..)
 000449                00449 00449 30020                       END
                                   30029              ESCAPE   EQU   4                   ESCAPE CHAR FUNCTION CODE
                                   30030              SKIP     EQU   8                   SKIP CHAR FUNCTION CODE
1EXEC     (EXEC2193) (12:44) (15MAR04) Command Pre-Processor                                                                Page  124
0Current Usings:  (CP,R11) (CV,R12)
0Loc    Object Code    Addr1 Addr2  Stmt Lv Lineno    Source Statement           (Hibal 5, Asmedit 3.3)  HLASM R4.0  2004/03/15 12.44
+___    ______ ____    _____ _____  ____ __ ______    ______ _________
0                                  30032                       ¿þþþþþþþþþþþþþþþþþþþþþÜ
                                   30033                       Ÿ  PREPROCESSOR CODE  Ÿ
                                   30034                       ¾þþþþþþþþþþþþþþþþþþþþþ»
 00576A 50E0 D000/9008_      00000 30035              PREPROC  XPROC PREWA
 USING  *,R7
 USING  PREWA-(4+36),R8
 005784 5010 8028            00000 30086                       ST    R1,PRELOC           INITIALIZE WORK AREA
 005788 D703 8468 8468 00440 00440 30087                       CLEAR PRESCNCT
 00578E 9200 8470      00448       30094                       CLEAR PREFLAGS
 005792 D7FF 802C 802C 00004 00004 30101                       CLEAR PRETRT              SET UP TRT TABLE
 005798 4120 0004            00004 30108                       LA    R2,ESCAPE
 00579C 1F33/4330 B8BA             30109                       LC    R3,CPESCAPE
 0057A2 1233/4780 7028             30116                       IF    (R3,NZ),BEGIN       IF ESC CHAR, MARK TRT TABLE
 0057A8 4223 802C            00004 30130  1                      STC   R2,PRETRT(R3)
 0057AC                            30131                       END
 0057AC 4120 0008            00008 30135                       LA    R2,SKIP
 0057B0 1F33/4330 B8BB             30136                       LC    R3,CPSKIP
 0057B6 1233/4780 703C             30143                       IF    (R3,NZ),BEGIN       IF SKIP CHAR, MARK TRT TABLE
 0057BC 4223 802C            00004 30157  1                      STC   R2,PRETRT(R3)
 0057C0                            30158                       END
                                   30162
                                   30163                       COMMENT                   SCAN COMMAND
 0057C0 1851                       30164                       LR    R5,R1               R5  - START OF COMMAND
 0057C2 4140 827C            00254 30165                       LA    R4,PRECMD           R4  - OUTPUT COMMAND INDEX
 0057C6 1830                       30166                       LR    R3,R0               R3  - COMMAND LENGTH
 0057C8 1B22                       30167                       SR    R2,R2               R2  - FUNCTION BYTE
                                   30168                       COMMENT                   R1  - COMMAND LOCATION
 0057CA 1A01                       30169                       AR    R0,R1               R0  - END OF COMMAND
 0057CC 1233/47D0 705E             30170                       IF    (R3,POS),BEGIN
 0057D2 0630/4430 74AC_            30184  1                      DEX   R3,' TRT 0(0,R1),PRETRT '   SCAN FOR ESC/SKIP
 0057D8 4770 705E            057E2 30203  1                      IF    Z,BEGIN
 0057DC 1815                       30214  2                        LR    R1,R5                       IF NONE, WE DONE
 0057DE 47F0 7372            05AF6 30215  2                        B     PREPDONE
 0057E2                            30216  1                      END
 0057E2                            30220                       END
                                   30224
 0057E2 1222/4780 7372             30225                       WHILE (R2,NZ),BEGIN       WHILE ESC/SKIP FOUND, PROCESS 'EM
                                   30241  1
 0057E8 5920 7404/4770_      05B88 30242  1                      IF    (R2,EQ,SKIP),BEGIN      IF SKIP,,
 0057F0 1831                       30259  2                        LR    R3,R1
 0057F2 1B35                       30260  2                        SR    R3,R5
 0057F4 1233/47D0 7080             30261  2                        IF    (R3,POS),BEGIN
 0057FA 0630/4430 74B2_            30275  3                          DEX   R3,' MVC @R4(0),@R5 '     MOVE TEXT BEFORE SKIP TO
 005800 4143 4001            00001 30294  3                          LA    R4,1(R3,R4)                OUTPUT
 005804                            30295  2                        END
 005804 4110 1001            00001 30299  2                        LA    R1,@R1+1
                                   30300  2
 005808 1910/4750 7094             30301  2                        IF    (R1,GE,R0),BEGIN    Last character in line...
 00580E D200 4000 B8BB 00000 008BB 30316  3                          MVC   @R4(1),CPSKIP
 005814 4140 4001            00001 30317  3                          LA    R4,@R4+1
 005818                            30318  2                        END
                                   30322  2
 005818 7098/47F0 70C2_05818 0580C 30323  2                        ELSEIF ((@R1,EQ,CPESCAPE),OR,(@R1,EQ,CPSKIP)),BEGIN Skip...
 005830 9680 8470      00448       30365  3                          SET   PCHANGED                   We removed skip char
1EXEC     (EXEC2193) (12:44) (15MAR04) Command Pre-Processor                                                                Page  125
0Current Usings:  (*,R7) (PREWA-(4+36),R8) (CP,R11) (CV,R12)
0Loc    Object Code    Addr1 Addr2  Stmt Lv Lineno    Source Statement           (Hibal 5, Asmedit 3.3)  HLASM R4.0  2004/03/15 12.44
+___    ______ ____    _____ _____  ____ __ ______    ______ _________
0005834 1F33/4330 1000             30371  3                          LC    R3,@R1                     OUTPUT
 00583A 4230 4000            00000 30378  3                          STC   R3,@R4
 00583E 4110 1001            00001 30379  3                          LA    R1,@R1+1
 005842 4140 4001            00001 30380  3                          LA    R4,@R4+1
 005846                            30381  2                        END
                                   30385  2
 005846 70C6/47F0 70D0 05846 0582E 30386  2                        ELSE  BEGIN               Keep skip character...
 00584A D200 4000 B8BB 00000 008BB 30397  3                          MVC   @R4(1),CPSKIP
 005850 4140 4001            00001 30398  3                          LA    R4,@R4+1
 005854                            30399  2                        END
                                   30403  2
 005854 1851                       30404  2                        LR    R5,R1
 005856                            30405  1                      END
                                   30409  1
                                   30410  1                      COMMENT                   IF ESCAPE,,
                                   30411  1                      COMMENT
 005856 5920 7408/4770_      05B8C 30412  1                      IF    (R2,EQ,ESCAPE),BEGIN
 00585E 94BF 8470      00448       30429  2                        CLEAR PRESCAN
 005862 94DF 8470      00448       30436  2                        CLEAR PGOTNSW             CLEAR ESCAPE PROCESSING FLAGS
 005866 94EF 8470      00448       30443  2                        CLEAR PGOTEXPR            THEN SET ESC PROCESSING FLAGS
 00586A 4131 0001            00001 30450  2                        LA    R3,1(R1)
 00586E D500 B8BA 3000_008BA 00000 30451  2                        IF    ((@R3,EQ,CPESCAPE),AND,(R3,LT,R0)),BEGIN
 00587E 9640 8470      00448       30482  3                          SET   PRESCAN             SET RESCAN FLAG
 005882                            30488  2                        END
 005882 D500 B8BA 1000_008BA 00000 30492  2                        WHILE ((@R1,EQ,CPESCAPE),AND,(R1,LT,R0)),' LA R1,1(R1) '
 00589A 1B01                       30532  2                        SR    R0,R1
 00589C 41F0 0004            00004 30533  2                        LA    R15,4               Assume N/S/W vars not allowed
 0058A0 9501 B759/4780_00759       30534  2                        IF    ~CPFXTEND,'ACALL CHECKNSW'  Check for N/S/W var
 0058AE 1A01                       30558  2                        AR    R0,R1
 0058B0 12FF/4770 7136             30559  2                        IF    (R15,Z),BEGIN
 0058B6 9620 8470      00448       30573  3                          SET   PGOTNSW             SET &N0,&S0,&W0 ,,, FLAG
 0058BA                            30579  2                        END
 0058BA 954D 1000/4770_00000       30583  2                        IF    ((@R1,EQ,X'4D'),AND,(R1,LT,R0)),BEGIN
 0058C8 9610 8470      00448       30613  3                          SET   PGOTEXPR            SET &( ... )  FLAG
 0058CC                            30619  2                        END
                                   30623  2
                                   30624  2                        COMMENT                   IF THIS ESCAPE IS PREPROCESSED,
 0058CC 9120 8470/4710_00448       30625  2                        IF    (PGOTNSW,OR,PGOTEXPR),BEGIN
 0058DC 1831                       30654  3                          LR    R3,R1
 0058DE 1B35                       30655  3                          SR    R3,R5                  MOVE TEXT BEFORE ESCAPE TO
 0058E0 0630                       30656  3                          DECR  R3                     OUTPUT BUFFER
 0058E2 9140 8470/47E0_00448       30658  3                          IF    PRESCAN,' DECR R3 '
 0058EC 1233/47D0 7178             30680  3                          IF    (R3,POS),BEGIN
 0058F2 0630/4430 74B8_            30694  4                            DEX   R3,' MVC @R4(0),@R5 '
 0058F8 4143 4001            00001 30713  4                            LA    R4,1(R3,R4)
 0058FC                            30714  3                          END
 0058FC 5040 846C            00444 30718  3                          ST    R4,PREPTR              SAVE RESCAN POINTER
                                   30719  3
 005900 9120 8470/47E0_00448       30720  3                          IF    PGOTNSW,BEGIN       IF &N0-&S0-&W0, ETC,,,
 USING  XSENTRY,R2                 30735  4                            USING XSENTRY,R2
 005908 9680 8470      00448       30744  4                            SET   PCHANGED
 00590C 4120 812C            00104 30750  4                            LA    R2,PREXVAL
 005910 1B01                       30751  4                            SR    R0,R1
 005912 58E0 7410/0DEE       05B94 30752  4                            ACALL GETNSW                 GET VALUE
1EXEC     (EXEC2193) (12:44) (15MAR04) Command Pre-Processor                                                                Page  126
0Current Usings:  (XSENTRY,R2) (*,R7) (PREWA-(4+36),R8) (CP,R11) (CV,R12)
0Loc    Object Code    Addr1 Addr2  Stmt Lv Lineno    Source Statement           (Hibal 5, Asmedit 3.3)  HLASM R4.0  2004/03/15 12.44
+___    ______ ____    _____ _____  ____ __ ______    ______ _________
0005918 4770 C7D6            007D6 30756  4                            BNZ   CVERROR                (RETURNS VALUE @R2)
 00591C 1A01                       30757  4                            AR    R0,R1
 00591E 1851                       30758  4                            LR    R5,R1
                                   30759  4                            COMMENT                      R2 - VARIABLE VALUE
 005920 58E0 7414/0DEE       05B98 30760  4                            VCALL MAKESTR                CHANGE VALUE TO STRING
 005926 4780 71A8/0000       0592C 30764  4                            IF    NZ,' BOMB '
 00592C 4830 2024            00024 30782  4                            LH    R3,XSSTRLEN
 005930 1233/47D0 71BC             30783  4                            IF    (R3,POS),BEGIN         MOVE STRING INTO COMMAND
 005936 0630/4430 74BE_            30797  5                              DEX   R3,' MVC  @R4(0),XSSTRLOC '
 00593C 4143 4001            00001 30816  5                              LA    R4,1(R3,R4)
 005940                            30817  4                            END
 005940 41F0 8367            0033F 30821  4                            LA    R15,PRECMD+&LINESZ      CHECK OUTPUT CMD LENGTH
 005944 194F/4750 71CC_            30822  4                            IF    (R4,GE,R15),' ACALL MAXSTR '
 DROP   XSENTRY,R2                 30846  4                            DROP  R2
 005950                            30853  3                          END
                                   30857  3
 005950 9110 8470/47E0_00448       30858  3                          IF    PGOTEXPR,BEGIN      IF &( ... ),,,
 USING  XSENTRY,R2                 30873  4                            USING XSENTRY,R2
 005958 9680 8470      00448       30882  4                            SET   PCHANGED
 00595C 4120 812C            00104 30888  4                            LA    R2,PREXVAL              EXPR VALUE RETURN AREA
 005960 4111 0001            00001 30889  4                            LA    R1,1(R1)                SKIP LEADING '('
 005964 1B01                       30890  4                            SR    R0,R1
 005966 58E0 741C/0DEE       05BA0 30891  4                            VCALL EVALEXPR                EVALUATE EXPRESSION
 00596C 1A01                       30895  4                            AR    R0,R1
 00596E 12FF/47D0 71F4             30896  4                            IF    (R15,H),BEGIN
 005974 47F0 C7D6            007D6 30910  5                              B     CVERROR
 005978                            30911  4                            END
 005978 12FF/47B0 7206             30915  4                            IF    (R15,NEG),BEGIN
 00597E 4110 745A/4100_      05BDE 30929  5                              ERROR 'Missing expression.'
 00598A                            30936  4                            END
 00598A 955D 1000/4780_00000       30940  4                            IF    (@R1,NE,')'),BEGIN
 005992 1B01                       30956  5                              SR    R0,R1
 005994 9001 D000/41D0_      00000 30957  5                              XPUSH R0,R1
 00599C 4110 73F4/4100_      05B78 30960  5                              TSEG  'Expecting ")".  ',,CR
 0059AE 4BD0 7458/9801_      05BDC 30978  5                              XPOP  R0,R1
 0059B6 58E0 7424/0DEE       05BA8 30981  5                              VCALL CHECKEND
 0059BC 4770 C7D6            007D6 30985  5                              BNZ   CVERROR
 0059C0 4110 7428/4100_      05BAC 30986  5                              ERROR 'Unmatched parenthesis in expression.'
 0059CC                            30993  4                            END
 0059CC 4111 0001            00001 30997  4                            LA    R1,1(R1)                SKIP TRAILING ')'
 0059D0 1851                       30998  4                            LR    R5,R1
                                   30999  4                            COMMENT                       R2 - EXPR VALUE AREA
 0059D2 58E0 7414/0DEE       05B98 31000  4                            VCALL MAKESTR                 MAKE STRING
 0059D8 4780 725A/0000       059DE 31004  4                            IF    NZ,' BOMB '
 0059DE 4830 2024            00024 31022  4                            LH    R3,XSSTRLEN
 0059E2 1233/47D0 726E             31023  4                            IF    (R3,POS),BEGIN          MOVE STRING INTO COMMAND
 0059E8 0630/4430 74C4_            31037  5                              DEX   R3,' MVC  @R4(0),XSSTRLOC '
 0059EE 4143 4001            00001 31056  5                              LA    R4,1(R3,R4)
 0059F2                            31057  4                            END
 0059F2 41F0 8367            0033F 31061  4                            LA    R15,PRECMD+&LINESZ      CHECK OUTPUT CMD LENGTH
 0059F6 194F/4750 727E_            31062  4                            IF    (R4,GE,R15),' ACALL MAXSTR '
 DROP   XSENTRY,R2                 31086  4                            DROP  R2
 005A02                            31093  3                          END
                                   31097  3
1EXEC     (EXEC2193) (12:44) (15MAR04) Command Pre-Processor                                                                Page  127
0Current Usings:  (*,R7) (PREWA-(4+36),R8) (CP,R11) (CV,R12)
0Loc    Object Code    Addr1 Addr2  Stmt Lv Lineno    Source Statement           (Hibal 5, Asmedit 3.3)  HLASM R4.0  2004/03/15 12.44
+___    ______ ____    _____ _____  ____ __ ______    ______ _________
0005A02 9140 8470/47E0_00448       31098  3                          IF    PRESCAN,BEGIN       IF WE MUST RESCAN,,,
 005A0A 5830 8468            00440 31113  4                            L     R3,PRESCNCT
 005A0E 4133 0001            00001 31114  4                            LA    R3,1(R3)               UPDATE RESCAN COUNT
 005A12 5030 8468            00440 31115  4                            ST    R3,PRESCNCT
 005A16 5930 744C/47D0_      05BD0 31116  4                            IF    (R3,GT,50),' ACALL MAXSCAN '
 005A24 1830                       31142  4                            LR    R3,R0
 005A26 1B31                       31143  4                            SR    R3,R1
 005A28 1233/47D0 72B4             31144  4                            IF    (R3,POS),BEGIN
 005A2E 0630/4430 74CA_            31158  5                              DEX   R3,' MVC @R4(0),@R5 '     MOVE END OF INPUT TO OUTPUT
 005A34 4143 4001            00001 31177  5                              LA    R4,1(R3,R4)            COMMAND,  R4 - END OF CMD
 005A38                            31178  4                            END
 005A38 4110 827C            00254 31182  4                            LA    R1,PRECMD
 005A3C 1834                       31183  4                            LR    R3,R4
 005A3E 1B31                       31184  4                            SR    R3,R1
 005A40 5930 7454/47D0_      05BD8 31185  4                            IF    (R3,GT,&LINESZ),' ACALL MAXSTR '
 005A4E 1233/47D0 72DA             31211  4                            IF    (R3,POS),BEGIN
 005A54 5810 8028            00000 31225  5                              L     R1,PRELOC              MOVE OUTPUT COMMAND TO INPUT
 005A58 0630/4430 74D0_            31226  5                              DEX   R3,' MVC @R1(0),PRECMD '  COMMAND, AND RESCAN
 005A5E                            31245  4                            END
 005A5E 4130 827C            00254 31249  4                            LA    R3,PRECMD              RESET INPUT COMMAND POINTERS
 005A62 1B43                       31250  4                            SR    R4,R3                  R4 - LENGTH OF CMD
 005A64 5800 8028            00000 31251  4                            L     R0,PRELOC
 005A68 1A04                       31252  4                            AR    R0,R4                  R0 - END OF NEW INPUT COMMAND
 005A6A 5810 846C            00444 31253  4                            L     R1,PREPTR
 005A6E 4130 827C            00254 31254  4                            LA    R3,PRECMD
 005A72 1B13                       31255  4                            SR    R1,R3
 005A74 5A10 8028            00000 31256  4                            A     R1,PRELOC              R1 - INDEX INTO NEW INPUT CMD
 005A78 1851                       31257  4                            LR    R5,R1                  R5 -  DITTO
 005A7A 5840 846C            00444 31258  4                            L     R4,PREPTR              R4 - INDEX INTO OUTPUT CMD
 005A7E                            31259  3                          END
 005A7E                            31263  2                        END
 005A7E                            31267  1                      END
                                   31271  1
                                   31272  1                      COMMENT                   SCAN FOR NEXT ESCAPE/SKIP, WE
                                   31273  1                      COMMENT                   CONTINUE LOOPING IF ONE IS FOUND
                                   31274  1                      COMMENT
 005A7E 1830                       31275  1                      LR    R3,R0               R3 - LENGTH OF REMAINING STRING
 005A80 1B31                       31276  1                      SR    R3,R1
 005A82 1B22                       31277  1                      SR    R2,R2               R2 - FUNCTION BYTE
 005A84 1233/47D0 730C             31278  1                      IF    (R3,POS),BEGIN
 005A8A 0630/4430 74D6_            31292  2                        DEX   R3,' TRT @R1(0),PRETRT '   SCAN FOR NEXT ESC/SKIP
 005A90                            31311  1                      END
 005A90 4770 736E            05AF2 31315  1                      IF    Z,BEGIN                 IF NO MORE ESC/SKIP IN LINE
 005A94 9180 8470/47E0_00448       31326  2                        IF    PCHANGED,BEGIN          AND IF COMMAND CHANGED
 005A9C 1810                       31341  3                          LR    R1,R0
 005A9E 1830                       31342  3                          LR    R3,R0
 005AA0 1B35                       31343  3                          SR    R3,R5
 005AA2 1233/47D0 732E             31344  3                          IF    (R3,POS),BEGIN          MOVE LAST PART OF CMD
 005AA8 0630/4430 74DC_            31358  4                            DEX   R3,' MVC @R4(0),@R5 '
 005AAE 4143 4001            00001 31377  4                            LA    R4,1(R3,R4)
 005AB2                            31378  3                          END
 005AB2 41F0 8367            0033F 31382  3                          LA    R15,PRECMD+&LINESZ      CHECK OUTPUT CMD LENGTH
 005AB6 194F/4750 733E_            31383  3                          IF    (R4,GE,R15),' ACALL MAXSTR '
 005AC2 1804                       31407  3                          LR    R0,R4                   R0 - END OF NEW CMD IN INPUT BUF
1EXEC     (EXEC2193) (12:44) (15MAR04) Command Pre-Processor                                                                Page  128
0Current Usings:  (*,R7) (PREWA-(4+36),R8) (CP,R11) (CV,R12)
0Loc    Object Code    Addr1 Addr2  Stmt Lv Lineno    Source Statement           (Hibal 5, Asmedit 3.3)  HLASM R4.0  2004/03/15 12.44
+___    ______ ____    _____ _____  ____ __ ______    ______ _________
0005AC4 4130 827C            00254 31408  3                          LA    R3,PRECMD
 005AC8 1B03                       31409  3                          SR    R0,R3
 005ACA 5A00 8028            00000 31410  3                          A     R0,PRELOC
 005ACE 4140 827C            00254 31411  3                          LA    R4,PRECMD               MOVE NEW COMMAND TO INPUT BUF
 005AD2 5810 8028            00000 31412  3                          L     R1,PRELOC
 005AD6 1830                       31413  3                          LR    R3,R0
 005AD8 1B31                       31414  3                          SR    R3,R1
 005ADA 1233/47D0 7362             31415  3                          IF    (R3,POS),BEGIN
 005AE0 0630/4430 74E2_            31429  4                            DEX   R3,' MVC @R1(0),@R4 '      MOVE IT
 005AE6                            31448  3                          END
 005AE6                            31452  2                        END
 005AE6 9180 8470/4710_00448       31456  2                        IF    ~PCHANGED,BEGIN
 005AEE 5810 8028            00000 31471  3                          L     R1,PRELOC
 005AF2                            31472  2                        END
 005AF2                            31476  1                      END
 005AF2 47F0 705E            057E2 31480                       END
                                   31485
 005AF6                            31486              PREPDONE LABEL ,
                                   31488                       COMMENT                   RETURN R1,R0 - COMMAND LOC, LEN
 005AF6 1B01                       31489                       SR    R0,R1
 005AF8 5008 0004            00004 31490                       PRETURN R0
 005AFC 18D8/9808 D004_            31492                       PEND
 DROP   PREWA-(4+36),R8
 DROP   *,R7
1EXEC     (EXEC2193) (12:44) (15MAR04) Command Pre-Processor                                                                Page  129
0Current Usings:  (CP,R11) (CV,R12)
0Loc    Object Code    Addr1 Addr2  Stmt Lv Lineno    Source Statement           (Hibal 5, Asmedit 3.3)  HLASM R4.0  2004/03/15 12.44
+___    ______ ____    _____ _____  ____ __ ______    ______ _________
0                                  31518              ¿þþþþþþþþþþþþþþþþþþþþþþþþþþþþþþþþþþþþþþþþþþþþþþþþþþþþþþþþþþþþþþþþþþþþþÜ
                                   31519              Ÿ                                                                     Ÿ
                                   31520              Ÿ                                                                     Ÿ
                                   31521              Ÿ  PREPROCESSOR ERRORS                                                Ÿ
                                   31522              Ÿ                                                                     Ÿ
                                   31523              Ÿ                                                                     Ÿ
                                   31524              Ÿ                                                                     Ÿ
                                                      ¾þþþþþþþþþþþþþþþþþþþþþþþþþþþþþþþþþþþþþþþþþþþþþþþþþþþþþþþþþþþþþþþþþþþþþ»
0005B0A 50E0 D000/9008_      00000 31525              MAXSCAN  PROC  ,
 USING  *,R7
 005B24 4110 70CD/4100_      05BF1 31564                       ERROR 'Too many rescans.'
 005B30 18D8/9808 D004_            31571                       PEND
 DROP   *,R7
-                                  31592              *
                                   31593              *
 005B3E 50E0 D000/9008_      00000 31594              MAXSTR   PROC  ,
 USING  *,R7
 005B58 4110 70AA/4100_      05C02 31633                       ERROR 'Command length overflow during preprocessing.'
 005B64 18D8/9808 D004_            31640                       PEND
 DROP   *,R7
1EXEC     (EXEC2193) (12:44) (15MAR04) Command Pre-Processor                                                                Page  130
0Current Usings:  (CP,R11) (CV,R12)
0Loc    Object Code    Addr1 Addr2  Stmt Lv Lineno    Source Statement           (Hibal 5, Asmedit 3.3)  HLASM R4.0  2004/03/15 12.44
+___    ______ ____    _____ _____  ____ __ ______    ______ _________
0                                  31661                       QLTORG
1EXEC     (EXEC2193) (12:44) (15MAR04) EXEC Command Scanner                                                                 Page  131
0Current Usings:  (CP,R11) (CV,R12)
0Loc    Object Code    Addr1 Addr2  Stmt Lv Lineno    Source Statement           (Hibal 5, Asmedit 3.3)  HLASM R4.0  2004/03/15 12.44
+___    ______ ____    _____ _____  ____ __ ______    ______ _________
0                                  31692              ¿þþþþþþþþþþþþþþþþþþþþþþþþþþþþþþþþþþþþþþþþþþþþþþþþþþþþþþþþþþþþþþþþþþþþþÜ
                                   31693              Ÿ                                                                     Ÿ
                                   31694              Ÿ                                                                     Ÿ
                                   31695              Ÿ  XCMDSCAN - SCAN FOR SPECIAL EXEC STATEMENTS (COMMANDS)             Ÿ
                                   31696              Ÿ                                                                     Ÿ
                                   31697              Ÿ  WE SCAN FOR THE FOLLOWING SPECIAL EXEC STATMENTS:                  Ÿ
                                   31698              Ÿ       1. ASSIGNMENT, INDICATED BY <VAR> = ...                       Ÿ
                                   31699              Ÿ       2. LABEL, INDICATED BY <LABEL VAR>: ...                       Ÿ
                                   31700              Ÿ       3. ARRAY ASSIGNMENT, INDICATED BY <ARRAY NAME>[ ...           Ÿ
                                   31701              Ÿ                                                                     Ÿ
                                   31702              Ÿ                                                                     Ÿ
                                   31703              Ÿ  ON ENTRY:                                                          Ÿ
                                   31704              Ÿ       SCAN CONTROL BLOCK POINTS TO COMMAND                          Ÿ
                                   31705              Ÿ                                                                     Ÿ
                                   31706              Ÿ  ON EXIT:                                                           Ÿ
                                   31707              Ÿ       1. IF LINE IS SPECICAL EXEC STATMENT,  WE CALL PROCESSING     Ÿ
                                   31708              Ÿ          THE APPROPRIATE PROCESSING ROUTINE.  WE DO NOT RETURN.     Ÿ
                                   31709              Ÿ       2. IF THE LINE IS NOT SPECIAL EXEC STATEMENT,,, WE JUST       Ÿ
                                   31710              Ÿ          RETURN                                                     Ÿ
                                   31711              Ÿ                                                                     Ÿ
                                   31712              Ÿ                                                                     Ÿ
                                   31713              Ÿ                                                                     Ÿ
                                                      ¾þþþþþþþþþþþþþþþþþþþþþþþþþþþþþþþþþþþþþþþþþþþþþþþþþþþþþþþþþþþþþþþþþþþþþ»
0000000                00000 00150 31714              XCMDWA   RECORD BEGIN
 000000                            31722  1           XCMDVAR    DS    XL(L'VPARM)         VAR, PROC, LABEL, ARRAY ENTRY
 000150                00150 00150 31723                       END
                                   31732
 005C6C 50E0 D000/9008_      00000 31733              XCMDSCAN XPROC XCMDWA
 USING  *,R7
 USING  XCMDWA-(4+36),R8
 USING  VNENTRY,R2                 31784                       USING VNENTRY,R2
                                   31793                      ¿þþþþþþþþþþþþþþþþþþþþþþþþþþþþþþþþþþþþþþþþþþþþþþþþþþþþþþþþþþþþþþþþÜ
                                   31794                      Ÿ  Skip over leading blanks and also skip over a single leading  Ÿ
                                   31795                      Ÿ     comma.  Starting Wylbur commands with a leading comma is   Ÿ
                                   31796                      Ÿ   a Spires convention so it is supported here for consistency  Ÿ
                                   31797                      Ÿ     (sort of).                                                 Ÿ
                                   31798                      ¾þþþþþþþþþþþþþþþþþþþþþþþþþþþþþþþþþþþþþþþþþþþþþþþþþþþþþþþþþþþþþþþþ»
 005C86 58E0 B08C/581E_      0008C 31799                       SCINFO ,                  RETURNS R1,R0 LOC,LEN OF CMD STR
 005C94 1200/47D0 7026_            31808                       WHILE ((R0,POS),AND,(@R1,EQ,' ')),'LA R1,@R1+1; DECR R0'
 005CAC 1200/47D0 703A_            31848                       IF    ((R0,POS),AND,(@R1,EQ,',')),'LA R1,@R1+1; DECR R0'
 005CC0 58E0 B08C/501E_      0008C 31885                       SCINIT ,                  Update scan ptrs
                                   31895
 005CCE 4120 8028            00000 31896                       LA    R2,XCMDVAR
 005CD2 58E0 78E2/0DEE       06568 31897                       VCALL SCNVNAME            SCAN FOR VARIABLE NAME
 005CD8 4770 70D8/1200_      05D5E 31901                       IF    (Z,AND,(R0,POS)),BEGIN
                                   31925  1                      ¿þþþþþþþþþþþþþþþþþþþþþþþþþþþþþþþþþþþþþþþþþþþþþþþþþÜ
                                   31926  1                      Ÿ  GOT <VAR NAME>:                 *** GOT LABEL  Ÿ
                                   31927  1                      ¾þþþþþþþþþþþþþþþþþþþþþþþþþþþþþþþþþþþþþþþþþþþþþþþþþ»
 005CE2 957A 1000/4770_00000       31928  1                      IF    (@R1,EQ,':'),BEGIN
 005CEA 5900 78E6/4780_      0656C 31944  2                        IF    ((R0,EQ,1),OR,(@R1,EQ,': ')),BEGIN
                                   31976  3                          COMMENT                   SCANCB - POINTS TO ENTIRE COMMAND
 005CFC 58E0 78EA/0DEE       06570 31977  3                          VCALL LABEL               PROCESS LABEL,  DOES NOT RETURN
 005D02                            31981  2                        END
1EXEC     (EXEC2193) (12:44) (15MAR04) EXEC Command Scanner                                                                 Page  132
0Current Usings:  (VNENTRY,R2) (*,R7) (XCMDWA-(4+36),R8) (CP,R11) (CV,R12)
0Loc    Object Code    Addr1 Addr2  Stmt Lv Lineno    Source Statement           (Hibal 5, Asmedit 3.3)  HLASM R4.0  2004/03/15 12.44
+___    ______ ____    _____ _____  ____ __ ______    ______ _________
0005D02                            31985  1                      END
                                   31989  1
                                   31990  1                      COMMENT                      SKIP ANY BLANKS
 005D02 9540 1000/4770_00000       31991  1                      WHILE ((@R1,EQ,' '),AND,(R0,POS)),BEGIN
 005D10 5E10 78E6            0656C 32022  2                        INCR  R1
 005D14 0600                       32025  2                        DECR  R0
 005D16 47F0 707C            05D02 32027  1                      END
                                   32032  1                      ¿þþþþþþþþþþþþþþþþþþþþþþþþþþþþþþþþþþþþþþþþþþþþþþþþþþþþÜ
                                   32033  1                      Ÿ  GOT <VAR NAME> = ...            *** SET VARIABLE  Ÿ
                                   32034  1                      ¾þþþþþþþþþþþþþþþþþþþþþþþþþþþþþþþþþþþþþþþþþþþþþþþþþþþþ»
 005D1A 957E 1000/4770_00000       32035  1                      IF    ((@R1,EQ,'='),AND,(R0,POS)),BEGIN
                                   32064  2                        COMMENT                   ZAP FOR "COMM =" COMPATABILITY
 005D28 58E0 78EE/0DEE       06574 32065  2                        ACALL ZAPCOMM             ZAP FOR "END = " COMPATIBILITY
 005D2E 4770 70B6            05D3C 32069  2                        IF    Z,BEGIN
 005D32 58E0 78F2/0DEE       06578 32080  3                          VCALL SETVAL
 005D38 47F0 C7DE            007DE 32084  3                          B     CVNEXT
 005D3C                            32085  2                        END
 005D3C                            32089  1                      END
                                   32093  1                      ¿þþþþþþþþþþþþþþþþþþþþþþþþþþþþþþþþþþþþþþþþþþþþþþþþþÜ
                                   32094  1                      Ÿ  GOT <VAR NAME>[...              *** GOT ARRAY  Ÿ
                                   32095  1                      ¾þþþþþþþþþþþþþþþþþþþþþþþþþþþþþþþþþþþþþþþþþþþþþþþþþ»
 005D3C 95AD 1000/4770_00000       32096  1                      IF    ((@R1,EQ,'['),AND,(R0,POS)),BEGIN
                                   32125  2                        COMMENT                   ZAP FOR "COMM[..." COMPATABILITY
 005D4A 58E0 78EE/0DEE       06574 32126  2                        ACALL ZAPCOMM             ZAP FOR "END[..." COMPATIBILITY
 005D50 4770 70D8            05D5E 32130  2                        IF    Z,BEGIN
 005D54 58E0 78F2/0DEE       06578 32141  3                          VCALL SETVAL
 005D5A 47F0 C7DE            007DE 32145  3                          B     CVNEXT
 005D5E                            32146  2                        END
 005D5E                            32150  1                      END
 005D5E                            32154                       END
                                   32158                       ¿þþþþþþþþþþþþþþþþþþþþþþþþþþþþþþþÜ
                                   32159                       Ÿ  IF NOT SPECIAL EXEC COMMAND  Ÿ
                                   32160                       ¾þþþþþþþþþþþþþþþþþþþþþþþþþþþþþþþ»
                                   32161                       COMMENT                   IF NONE OF THE ABOVE WE RETURN
                                   32162                       COMMENT
 005D5E 1BFF                       32163                       SR    R15,R15
 005D60 18D8/9808 D004_            32164                       PEND  ,
 DROP   XCMDWA-(4+36),R8
 DROP   *,R7
 DROP   VNENTRY,R2                 32189                       DROP  R2
1EXEC     (EXEC2193) (12:44) (15MAR04) EXEC Command Scanner                                                                 Page  133
0Current Usings:  (CP,R11) (CV,R12)
0Loc    Object Code    Addr1 Addr2  Stmt Lv Lineno    Source Statement           (Hibal 5, Asmedit 3.3)  HLASM R4.0  2004/03/15 12.44
+___    ______ ____    _____ _____  ____ __ ______    ______ _________
0                                  32197              ¿þþþþþþþþþþþþþþþþþþþþþþþþþþþþþþþþþþþþþþþþþþþþþþþþþþþþþþþþþþþþþþþþþþþþþÜ
                                   32198              Ÿ                                                                     Ÿ
                                   32199              Ÿ                                                                     Ÿ
                                   32200              Ÿ  ZAPCOMM - COMMPATIBLITY ZAP FOR COMM =,, END =,,                   Ÿ
                                   32201              Ÿ                                                                     Ÿ
                                   32202              Ÿ  ON ENTRY: SCANNER CONTROL BLOCK POINTS TO COMMAND.                 Ÿ
                                   32203              Ÿ                                                                     Ÿ
                                   32204              Ÿ  ON EXIT:                                                           Ÿ
                                   32205              Ÿ       CC = ZERO, NOT "COMMENT ='  OR 'END ='                        Ÿ
                                   32206              Ÿ       CC = NZ, IF "COMMENT =" OR 'END ='                            Ÿ
                                   32207              Ÿ                                                                     Ÿ
                                   32208              Ÿ                                                                     Ÿ
                                                      ¾þþþþþþþþþþþþþþþþþþþþþþþþþþþþþþþþþþþþþþþþþþþþþþþþþþþþþþþþþþþþþþþþþþþþþ»
0005D6E 50E0 D000/9008_      00000 32209              ZAPCOMM  PROC  XCMDWA
 USING  *,R7
 USING  XCMDWA-(4+36),R8
 USING  VNENTRY,R2                 32259                       USING VNENTRY,R2
 005D88 58E0 B08C/581E_      0008C 32268                       SCINFO ,
 005D96 4120 8028            00000 32277                       LA    R2,XCMDVAR
 005D9A 58E0 77E0/0DEE       06568 32278                       VCALL SCNVNAME
 005DA0 4770 7076/1200_      05DFE 32282                       IF    (Z,AND,(R0,POS)),BEGIN
 005DAA D507 2000 7760 00000 064E8 32306  1                      CLC   VNNAME(8),=CL8'COMM'
 005DB0 4770 7030/41F0_      05DB8 32307  1                      IF    EQ,'LA R15,4'
 005DB8 D507 2000 7768 00000 064F0 32324  1                      CLC   VNNAME(8),=CL8'COMME'
 005DBE 4770 703E/41F0_      05DC6 32325  1                      IF    EQ,'LA R15,4'
 005DC6 D507 2000 7770 00000 064F8 32342  1                      CLC   VNNAME(8),=CL8'COMMEN'
 005DCC 4770 704C/41F0_      05DD4 32343  1                      IF    EQ,'LA R15,4'
 005DD4 D507 2000 7778 00000 06500 32360  1                      CLC   VNNAME(8),=CL8'COMMENT'
 005DDA 4770 705A/41F0_      05DE2 32361  1                      IF    EQ,'LA R15,4'
 005DE2 D507 2000 7780 00000 06508 32378  1                      CLC   VNNAME(8),=CL8'END'
 005DE8 4770 7068/41F0_      05DF0 32379  1                      IF    EQ,'LA R15,4'
 005DF0 D507 2000 7788 00000 06510 32396  1                      CLC   VNNAME(8),=CL8'PUTEND'
 005DF6 4770 7076/41F0_      05DFE 32397  1                      IF    EQ,'LA R15,4'
 005DFE                            32414                       END
 005DFE 707A/707A/47F0_05DFE 05DA2 32418                       ELSE  BEGIN
 005E02 1BFF                       32431  1                      CLEAR R15
 005E04                            32435                       END
 005E04 18D8/9808 D004_            32439                       PEND  ,
 DROP   XCMDWA-(4+36),R8
 DROP   *,R7
 DROP   VNENTRY,R2                 32464                       DROP  R2
1EXEC     (EXEC2193) (12:44) (15MAR04) EXEC Command Scanner                                                                 Page  134
0Current Usings:  (CP,R11) (CV,R12)
0Loc    Object Code    Addr1 Addr2  Stmt Lv Lineno    Source Statement           (Hibal 5, Asmedit 3.3)  HLASM R4.0  2004/03/15 12.44
+___    ______ ____    _____ _____  ____ __ ______    ______ _________
0                                  32472              ¿þþþþþþþþþþþþþþþþþþþþþþþþþþþþþþþþþþþþþþþþþþþþþþþþþþþþþþþþþþþþþþþþþþþþþÜ
                                   32473              Ÿ                                                                     Ÿ
                                   32474              Ÿ                                                                     Ÿ
                                   32475              Ÿ  EXCEPTNS - HANDLE PROCEDURE NAME EXCEPTIONS !                      Ÿ
                                   32476              Ÿ                                                                     Ÿ
                                   32477              Ÿ  ON ENTRY:                                                          Ÿ
                                   32478              Ÿ       R2 - VARIABLE ENTRY,,, WITH NAME SET                          Ÿ
                                   32479              Ÿ                                                                     Ÿ
                                   32480              Ÿ  ON EXIT:                                                           Ÿ
                                   32481              Ÿ       R15 - CC=0 IF NAME IS AN EXCEPTION,,, (EG. IF, WHILE,,,)      Ÿ
                                   32482              Ÿ       R15 - CC=NZ, IF NAME IS NOT EXCEPTION                         Ÿ
                                   32483              Ÿ                                                                     Ÿ
                                   32484              Ÿ                                                                     Ÿ
                                                      ¾þþþþþþþþþþþþþþþþþþþþþþþþþþþþþþþþþþþþþþþþþþþþþþþþþþþþþþþþþþþþþþþþþþþþþ»
0005E12 50E0 D000/9008_      00000 32485              EXCEPTNS PROC  ,
 USING  *,R7
 USING  VNENTRY,R2                 32524                       USING VNENTRY,R2
 005E2C 41F0 0004            00004 32533                       LA    R15,4
 005E30 D505 77E6 2000_06612 00000 32534                       IF    (VNNAME,EQ,'IF    '),' CLEAR R15 '
 005E3C D505 77EC 2000_06618 00000 32560                       IF    (VNNAME,EQ,'WHILE '),' CLEAR R15 '
 005E48 D505 77F2 2000_0661E 00000 32586                       IF    (VNNAME,EQ,'CASE  '),' CLEAR R15 '
 005E54 D505 77F8 2000_06624 00000 32612                       IF    (VNNAME,EQ,'UNTIL '),' CLEAR R15 '
 005E60 18D8/9808 D004_            32638                       PEND  ,
 DROP   *,R7
 DROP   VNENTRY,R2                 32658                       DROP  R2
1EXEC     (EXEC2193) (12:44) (15MAR04) EXEC File Processing Routines.                                                       Page  135
0Current Usings:  (CP,R11) (CV,R12)
0Loc    Object Code    Addr1 Addr2  Stmt Lv Lineno    Source Statement           (Hibal 5, Asmedit 3.3)  HLASM R4.0  2004/03/15 12.44
+___    ______ ____    _____ _____  ____ __ ______    ______ _________
0                                  32667              ¿þþþþþþþþþþþþþþþþþþþþþþþþþþþþþþþþþþþþþþþþþþþþþþþþþþþþþþþþþþþþþþþþþþþþþÜ
                                   32668              Ÿ                                                                     Ÿ
                                   32669              Ÿ                                                                     Ÿ
                                   32670              Ÿ  GETEXCMD - GET NEXT EXEC COMMAND !                                 Ÿ
                                   32671              Ÿ                                                                     Ÿ
                                   32672              Ÿ  THIS ROUTINE IS RESPONSIBLE FOR GETTING THE NEXT EXEC              Ÿ
                                   32673              Ÿ  COMMAND AND UPDATING THE EXEC LINE POINTER.                        Ÿ
                                   32674              Ÿ                                                                     Ÿ
                                   32675              Ÿ                                                                     Ÿ
                                   32676              Ÿ                                                                     Ÿ
                                                      ¾þþþþþþþþþþþþþþþþþþþþþþþþþþþþþþþþþþþþþþþþþþþþþþþþþþþþþþþþþþþþþþþþþþþþþ»
0005E6E 50E0 D000/9008_      00000 32677              GETEXCMD XPROC
 USING  *,R7
                                   32717
                                   32718                       COMMENT                   RE-INITIALIZE, CHECK FOR LOOP
 005E88 58E0 76F4/0DEE       0657C 32719                       VCALL INITCMD
 005E8E 58E0 76F8/0DEE       06580 32723                       ACALL EXLOOPCK
                                   32727
                                   32728                       COMMENT                   CHECK FOR EXEC FILE,
 005E94 58E0 76FC/0DEE       06584 32729                       ACALL EXECHK
                                   32733              *
                                   32734              *$ THE FOLLOWING BIT OF CODE SHOULD BE REMOVED AND THOSE SETTING
                                   32735              *$ CVNEXT NEGATIVE SHOULD INSTEAD PUT CL4'BAD ' IN CPEXNEXT
                                   32736                       COMMENT                   DELETE WHEN YOU CAN !!
 005E9A 5810 B75C            0075C 32737                       L     R1,CPEXLINE
 005E9E 5910 7700/47B0_      06588 32738                       IF    (R1,LT,0),BEGIN
 005EA6 58E0 7704/0DEE       0658C 32755  1                      ACALL SETPAUSE
 005EAC D207 B886 7690_00886 06518 32759  1                      ABORT 'EXEC pointer is not set.',,NOEXEPTR
 005EBE                            32767                       END
                                   32771
                                   32772                       COMMENT                   GET NEXT LINE
                                   32773                       COMMENT
 005EBE 5810 B760            00760 32774                       L     R1,CPEXNEXT
 005EC2 5910 7700/4750_      06588 32775                       IF    (R1,GE,0),BEGIN     IF LINE NUMBER SPECIFIED, GET IT
 005ECA D203 B75C B760 0075C 00760 32792  1                      MVC   CPEXLINE,CPEXNEXT
 005ED0 D203 B760 7708 00760 06590 32793  1                      MVC   CPEXNEXT,=CL4'NEXT'
 005ED6 4110 B242            00242 32794  1                      LA    R1,CPCMD
 005EDA 4120 B75C            0075C 32795  1                      LA    R2,CPEXLINE
 005EDE 58E0 770C/0DEE       06594 32796  1                      ACALL EXFRST
 005EE4 4000 B240            00240 32800  1                      STH   R0,CPCMDLEN
 005EE8                            32801                       END
 005EE8 7064/47F0 7080_05EE8 05EC8 32805                       ELSEIF (CPEXNEXT,EQ,'NEXT'),BEGIN   IF GET NEXT LINE
 005EF6 4110 B242            00242 32831  1                      LA    R1,CPCMD
 005EFA 4120 B75C            0075C 32832  1                      LA    R2,CPEXLINE
 005EFE 58E0 7714/0DEE       0659C 32833  1                      ACALL EXNEXT
 005F04 4000 B240            00240 32837  1                      STH   R0,CPCMDLEN
 005F08                            32838                       END
 005F08 7084/47F0 70AC_05F08 05EF4 32842                       ELSEIF (CPEXNEXT,EQ,'BAD '),BEGIN  NEXT LINE POINTER NOT SET
 005F16 D203 B760 7708 00760 06590 32868  1                      MVC   CPEXNEXT,=CL4'NEXT'
 005F1C 58E0 7704/0DEE       0658C 32869  1                      ACALL SETPAUSE
 005F22 D207 B886 7690_00886 06518 32873  1                      ABORT 'EXEC pointer is not set.',,NOEXEPTR
 005F34                            32881                       END
 005F34 70B0/47F0 70B2 05F34 05F14 32885                       ELSE  BEGIN
1EXEC     (EXEC2193) (12:44) (15MAR04) EXEC File Processing Routines.                                                       Page  136
0Current Usings:  (*,R7) (CP,R11) (CV,R12)
0Loc    Object Code    Addr1 Addr2  Stmt Lv Lineno    Source Statement           (Hibal 5, Asmedit 3.3)  HLASM R4.0  2004/03/15 12.44
+___    ______ ____    _____ _____  ____ __ ______    ______ _________
0005F38 0000                       32896  1                      BOMB
 005F3A                            32898                       END
 005F3A D203 B760 7708 00760 06590 32902                       MVC   CPEXNEXT,=CL4'NEXT'
                                   32903
                                   32904                       COMMENT                   FOR EXTENDED EXECS CHECK SCOPE
 005F40 D503 771C B778_065A4 00778 32905                       IF    (CP#XSET,NE,=A(CP#XOLD)),BEGIN
 005F4A D503 B75C B768_0075C 00768 32922  1                      IF    ((CPEXLINE,LE,CPSCOPE),OR,(CPEXLINE,GT,CPSCOPD)),BEGIN
 005F5E 58E0 7704/0DEE       0658C 32957  2                        ACALL SETPAUSE
 005F64 4110 76B0/4100_      06538 32961  2                        ABORT 'EXEC POINTER: not in scope of current procedure.'
 005F70                            32968  1                      END
 005F70                            32972                       END
                                   32976
                                   32977                       COMMENT                   CHECK FOR END OF FILE
 005F70 D503 7720 B75C_065A8 0075C 32978                       IF    (CPEXLINE,EQ,'EOF '),BEGIN
 005F7A D703 B75C B75C 0075C 0075C 32995  1                      CLEAR CPEXLINE
 005F80 58E0 7704/0DEE       0658C 33002  1                      ACALL SETPAUSE
 005F86 47F0 C7DE            007DE 33006  1                      B     CVNEXT
 005F8A                            33007                       END
                                   33011
                                   33012                       COMMENT                   DO COMMAND LOGGING, IF REQUESTED
                                   33013                       COMMENT                     SET EXEC (CPFLOG) LOGS OLD ONLY
                                   33014                       COMMENT                     XD LOG (CPFXLOG) LOGS BOTH
                                   33015                       COMMENT                     WE NEVER LOG PUBLIC XPROCS
 005F8A 94EF B477      00477       33016                       CLEAR CPFTYPED              Non-typed
 005F8E D503 B778 7724_00778 065AC 33023                       IF    (' CLC CP#XSET,=AL4(CV#FEXEC) ',LT),BEGIN
 005F98 9108 B84C/47E0_0084C       33036  1                      IF    (CPFLOG,AND,CPFXOLD),BEGIN
 005FA8 58E0 7728/0DEE       065B0 33065  2                        ACALL WRITECOM
 005FAE                            33069  1                      END
 005FAE 712A/712A/47F0_05FAE 05F9E 33073  1                      ELSEIF CPFXLOG,BEGIN
 005FBA 58E0 7728/0DEE       065B0 33099  2                        ACALL WRITECOM
 005FC0                            33103  1                      END
 005FC0                            33107                       END
 005FC0 9640 BC7D      00C7D       33111                       SET   CPFNPT              DON'T ALLOW READ TEXT FROM P/P
                                   33117                       COMMENT                   WHAT DOES ABOVE LINE DO ?? GOT ME
                                   33118                       COMMENT                   ABOVE LINE LEFT FROM OLD CODE
                                   33119
                                   33120                       COMMENT                   IF EXEC DEBUG ON,
 005FC4 9180 B84C/47E0_0084C       33121                       IF    CPFDEBUG,BEGIN         CHECK FOR TRAPS
 005FCC 58E0 772C/0DEE       065B4 33136  1                      VCALL DBLINE
 005FD2                            33140                       END
                                   33144
                                   33145                       COMMENT                   IF EXEC MONITOR ON,
 005FD2 9180 B84F/47E0_0084F       33146                       IF    CPFMON,BEGIN           SET EXEC LINE INFO FOR MON
 005FDA 58E0 7730/0DEE       065B8 33161  1                      VCALL SETXLINE
 005FE0                            33165                       END
                                   33169
                                   33170                       COMMENT                   GO EXECUTE COMMAND
 005FE0 4800 B240            00240 33171                       LH    R0,CPCMDLEN
 005FE4 4110 B242            00242 33172                       LA    R1,CPCMD
 005FE8 58E0 7734/0DEE       065BC 33173                       VCALL EDTCOM              DOES NOT RETURN !  --->>>
                                   33177
 005FEE 18D8/9808 D004_            33178                       PEND
 DROP   *,R7
1EXEC     (EXEC2193) (12:44) (15MAR04) EXEC File Processing Routines.                                                       Page  137
0Current Usings:  (CP,R11) (CV,R12)
0Loc    Object Code    Addr1 Addr2  Stmt Lv Lineno    Source Statement           (Hibal 5, Asmedit 3.3)  HLASM R4.0  2004/03/15 12.44
+___    ______ ____    _____ _____  ____ __ ______    ______ _________
0                                  33199              ¿þþþþþþþþþþþþþþþþþþþþþþþþþþþþþþþþþþþþþþþþþþþþþþþþþþþþþþþþþþþþþþþþþþþþþÜ
                                   33200              Ÿ                                                                     Ÿ
                                   33201              Ÿ                                                                     Ÿ
                                   33202              Ÿ  WRITE OUT COMMAND TO BE EXECUTED                                   Ÿ
                                   33203              Ÿ                                                                     Ÿ
                                   33204              Ÿ  THIS ROUTINE IS CALLED WHEN EXEC LOGGING IS IN EFFECT.             Ÿ
                                   33205              Ÿ                                                                     Ÿ
                                                      ¾þþþþþþþþþþþþþþþþþþþþþþþþþþþþþþþþþþþþþþþþþþþþþþþþþþþþþþþþþþþþþþþþþþþþþ»
0005FFC 50E0 D000/9008_      00000 33206              WRITECOM PROC
 USING  *,R7
 006016 4110 7626/4100_      0663C 33245                       TSEG  '-> '
 006028 5800 B75C            0075C 33263                       L     R0,CPEXLINE         LINE NO OF COMMAND
 00602C 58E0 75AE/0DEE       065C4 33264                       VCALL CVEXNO              CONVERT TO EXTERNAL FORMAT
 006032 41F0 B050/58E0_      00050 33268                       TSEG  (R1),(R0),B
                                   33292
 00603C 4110 B242/4800_      00242 33293                       TSEG  CPCMD,LH:CPCMDLEN,WR
 00604E 4720 C7DA            007DA 33320                       BP    CVABORT             ABORT EXEC IF ATTN
 006052 18D8/9808 D004_            33321                       PEND
 DROP   *,R7
1EXEC     (EXEC2193) (12:44) (15MAR04) EXEC File Processing Routines.                                                       Page  138
0Current Usings:  (CP,R11) (CV,R12)
0Loc    Object Code    Addr1 Addr2  Stmt Lv Lineno    Source Statement           (Hibal 5, Asmedit 3.3)  HLASM R4.0  2004/03/15 12.44
+___    ______ ____    _____ _____  ____ __ ______    ______ _________
0                                  33342              *
                                   33343              * IF CPLIMIT COMMANDS HAVE BEEN EXECUTED WITHOUT TYPING THEN
                                   33344              * WRITE OUT MESSAGE BEFORE CONTINUING SO USER CAN CHECK FOR LOOP.
                                   33345              *
                                   33346              * IN ADDITION THIS ROUTINE MAKES SURE ANOTHER USER IS DISPATCHED
                                   33347              * IF THE TIMESLICE HAS EXPIRED.
                                   33348              *
 006060 50E0 D000/9008_      00000 33349              EXLOOPCK PROC
 USING  *,R7
 00607A 41F0 0001/4AF0_      00001 33388                       INCR  R15,CPEXCMCT        COUNT THE COMMAND
 006086 D601 B7E2 B7E2_007E2 007E2 33394                       IF    ((CPLLIMIT,NZ),AND,(R15,GE,CPLLIMIT)),BEGIN
 006098 D701 B8B4 B8B4 008B4 008B4 33426  1                      CLEAR CPEXCMCT
 00609E 181F/1B00/41F0_            33433  1                      TNUM  (R15)
 0060AC 4110 75B0/4100_      0662A 33455  1                      TSEG  ' commands executed'
 0060BE 9180 B75C/4710_0075C       33473  1                      IF    ~CPEXLINE.X'80',BEGIN
 0060C6 4110 75C5/4100_      0663F 33489  2                        TSEG  ' at line '
 0060D8 5800 B778            00778 33507  2                        L     R0,CP#XSET
 0060DC 5810 B77C            0077C 33508  2                        L     R1,CPRGEXEC
 0060E0 4120 B75C            0075C 33509  2                        LA    R2,CPEXLINE
 0060E4 58E0 755A/0DEE       065D4 33510  2                        VCALL SEGXLNO             Current EXEC lineno
 0060EA                            33514  1                      END
 0060EA 1B00/41F0 B050_            33518  1                      TWRITE
 0060F6 4770 C7DA            007DA 33543  1                      BNZ   CVABORT             GO BREAK EXEC IF ATTENTION
 0060FA                            33544                       END
                                   33548
 0060FA 58E0 755E/0DEE       065D8 33549                       VCALL SLICECHK            CHECK FOR TIMESLICE EXPIRATION
 006100 18D8/9808 D004_            33553                       PEND
 DROP   *,R7
1EXEC     (EXEC2193) (12:44) (15MAR04) Get EXEC Lines Routines                                                              Page  139
0Current Usings:  (CP,R11) (CV,R12)
0Loc    Object Code    Addr1 Addr2  Stmt Lv Lineno    Source Statement           (Hibal 5, Asmedit 3.3)  HLASM R4.0  2004/03/15 12.44
+___    ______ ____    _____ _____  ____ __ ______    ______ _________
0                                  33574              ¿þþþþþþþþþþþþþþþþþþþþþþþþþþþþþþþþþþþþþþþþþþþþþþþþþþþþþþþþþþþþþþþþþþþþþÜ
                                   33575              Ÿ                                                                     Ÿ
                                   33576              Ÿ                                                                     Ÿ
                                   33577              Ÿ  EXGET - GET LINE FROM EXEC                                         Ÿ
                                   33578              Ÿ                                                                     Ÿ
                                   33579              Ÿ  ON ENTRY:                                                          Ÿ
                                   33580              Ÿ      @R1 - LINE AREA  (LEN = &LINESZ)                               Ÿ
                                   33581              Ÿ      @R2 - LINE NUMBER                                              Ÿ
                                   33582              Ÿ                                                                     Ÿ
                                   33583              Ÿ  ON EXIT:                                                           Ÿ
                                   33584              Ÿ       R0 - LINE LENGTH                                              Ÿ
                                   33585              Ÿ       R1 - LINE LOCATION                                            Ÿ
                                   33586              Ÿ      @R2 - LINE NUMBER                                              Ÿ
                                   33587              Ÿ      R15 - CC=ZERO, LINE GOT                                        Ÿ
                                   33588              Ÿ            CC=NZ, LINE NOT FOUND                                    Ÿ
                                   33589              Ÿ                                                                     Ÿ
                                   33590              Ÿ                                                                     Ÿ
                                                      ¾þþþþþþþþþþþþþþþþþþþþþþþþþþþþþþþþþþþþþþþþþþþþþþþþþþþþþþþþþþþþþþþþþþþþþ»
000610E 50E0 D000/9008_      00000 33591              EXGET    XPROC ,
 USING  *,R7
                                   33631
                                   33632                       COMMENT                   SET EXEC SET NUMBER
 006128 5800 B778            00778 33633                       L     R0,CP#XSET
 00612C 58F0 B77C            0077C 33634                       L     R15,CPRGEXEC
 006130 58E0 74B4/0DEE       065DC 33635                       VCALL XSETSET
                                   33639
                                   33640                       COMMENT                   GET EXEC LINE
 006136 58F0 B77C            0077C 33641                       L     R15,CPRGEXEC
 00613A 4100 00EB            000EB 33642                       LA    R0,&LINESZ
                                   33643                       COMMENT @R1 - LINE AREA
                                   33644                       COMMENT @R2 - LINENO
 00613E 58E0 74B8/0DEE       065E0 33645                       VCALL XGET
                                   33649
                                   33650                       COMMENT                   BLANK OUT REST OF BUFFER
 006144 4770 7030            06158 33651                       IF    Z,BEGIN
 006148 1821                       33662  1                      LR    R2,R1
 00614A 1A20                       33663  1                      AR    R2,R0
 00614C 4130 00EB            000EB 33664  1                      LA    R3,&LINESZ
 006150 1B30                       33665  1                      SR    R3,R0
 006152 5850 74BC            065E4 33666  1                      L     R5,=X'40000000'
 006156 0E24                       33667  1                      MVCL  R2,R4
 006158                            33668                       END
                                   33672
 006158 5008 0004            00004 33673                       PRETURN R0
 00615C 18D8/9808 D004_            33675                       PEND
 DROP   *,R7
1EXEC     (EXEC2193) (12:44) (15MAR04) Get EXEC Lines Routines                                                              Page  140
0Current Usings:  (CP,R11) (CV,R12)
0Loc    Object Code    Addr1 Addr2  Stmt Lv Lineno    Source Statement           (Hibal 5, Asmedit 3.3)  HLASM R4.0  2004/03/15 12.44
+___    ______ ____    _____ _____  ____ __ ______    ______ _________
0                                  33696              ¿þþþþþþþþþþþþþþþþþþþþþþþþþþþþþþþþþþþþþþþþþþþþþþþþþþþþþþþþþþþþþþþþþþþþþÜ
                                   33697              Ÿ                                                                     Ÿ
                                   33698              Ÿ                                                                     Ÿ
                                   33699              Ÿ  EXSPGET - SPECIAL PURPOSE GET LINE FROM EXEC                       Ÿ
                                   33700              Ÿ                                                                     Ÿ
                                   33701              Ÿ  FOR SPECIAL PURPOSE GET, ONE MUST SPECIFY EXEC FILE SET NUMBER.    Ÿ
                                   33702              Ÿ  CURRENT EXEC FILE IS NOT ASSUMED !  (SEE R0 ON ENTRY.)             Ÿ
                                   33703              Ÿ                                                                     Ÿ
                                   33704              Ÿ  ON ENTRY:                                                          Ÿ
                                   33705              Ÿ       R0 - EXEC SET NUMBER                                          Ÿ
                                   33706              Ÿ      @R1 - LINE AREA  (LEN = &LINESZ)                               Ÿ
                                   33707              Ÿ      @R2 - LINE NUMBER                                              Ÿ
                                   33708              Ÿ                                                                     Ÿ
                                   33709              Ÿ  ON EXIT:                                                           Ÿ
                                   33710              Ÿ       R0 - LINE LENGTH                                              Ÿ
                                   33711              Ÿ       R1 - LINE LOCATION                                            Ÿ
                                   33712              Ÿ      @R2 - LINE NUMBER                                              Ÿ
                                   33713              Ÿ      R15 - CC=ZERO, LINE GOT                                        Ÿ
                                   33714              Ÿ            CC=NZ, LINE NOT FOUND                                    Ÿ
                                   33715              Ÿ                                                                     Ÿ
                                   33716              Ÿ                                                                     Ÿ
                                                      ¾þþþþþþþþþþþþþþþþþþþþþþþþþþþþþþþþþþþþþþþþþþþþþþþþþþþþþþþþþþþþþþþþþþþþþ»
000616A 50E0 D000/9008_      00000 33717              EXSPGET  XPROC ,
 USING  *,R7
                                   33757
                                   33758                       COMMENT                   SET EXEC SET NUMBER
                                   33759                       COMMENT R0-EXEC SET#
 006184 58F0 B77C            0077C 33760                       L     R15,CPRGEXEC
 006188 58E0 7458/0DEE       065DC 33761                       VCALL XSETSET
                                   33765
                                   33766                       COMMENT                   GET EXEC LINE
 00618E 58F0 B77C            0077C 33767                       L     R15,CPRGEXEC
 006192 4100 00EB            000EB 33768                       LA    R0,&LINESZ
                                   33769                       COMMENT @R1 - LINE AREA
                                   33770                       COMMENT @R2 - LINENO
 006196 58E0 745C/0DEE       065E0 33771                       VCALL XGET
                                   33775
                                   33776                       COMMENT                   BLANK OUT REST OF BUFFER
 00619C 4770 702C            061B0 33777                       IF    Z,BEGIN
 0061A0 1821                       33788  1                      LR    R2,R1
 0061A2 1A20                       33789  1                      AR    R2,R0
 0061A4 4130 00EB            000EB 33790  1                      LA    R3,&LINESZ
 0061A8 1B30                       33791  1                      SR    R3,R0
 0061AA 5850 7460            065E4 33792  1                      L     R5,=X'40000000'
 0061AE 0E24                       33793  1                      MVCL  R2,R4
 0061B0                            33794                       END
                                   33798
 0061B0 5008 0004            00004 33799                       PRETURN R0
 0061B4 18D8/9808 D004_            33801                       PEND
 DROP   *,R7
1EXEC     (EXEC2193) (12:44) (15MAR04) Get EXEC Lines Routines                                                              Page  141
0Current Usings:  (CP,R11) (CV,R12)
0Loc    Object Code    Addr1 Addr2  Stmt Lv Lineno    Source Statement           (Hibal 5, Asmedit 3.3)  HLASM R4.0  2004/03/15 12.44
+___    ______ ____    _____ _____  ____ __ ______    ______ _________
0                                  33822              ¿þþþþþþþþþþþþþþþþþþþþþþþþþþþþþþþþþþþþþþþþþþþþþþþþþþþþþþþþþþþþþþþþþþþþþÜ
                                   33823              Ÿ                                                                     Ÿ
                                   33824              Ÿ                                                                     Ÿ
                                   33825              Ÿ  EXFRST - GET FIRST EXEC LINE IN RANGE                              Ÿ
                                   33826              Ÿ                                                                     Ÿ
                                   33827              Ÿ       WE GET LINE SPECIFIED, OR NEXT LINE, WHICHEVER IS FIRST.      Ÿ
                                   33828              Ÿ                                                                     Ÿ
                                   33829              Ÿ  ON ENTRY:                                                          Ÿ
                                   33830              Ÿ      @R1 - LINE AREA  (LEN = &LINESZ)                               Ÿ
                                   33831              Ÿ      @R2 - LINE NUMBER OF START OF RANGE                            Ÿ
                                   33832              Ÿ                                                                     Ÿ
                                   33833              Ÿ  ON EXIT:                                                           Ÿ
                                   33834              Ÿ       R0 - LINE LENGTH                                              Ÿ
                                   33835              Ÿ       R1 - LINE LOCATION                                            Ÿ
                                   33836              Ÿ      @R2 - LINE NUMBER READ                                         Ÿ
                                   33837              Ÿ      R15 - CC=ZERO, LINE GOT                                        Ÿ
                                   33838              Ÿ            CC=NZ, IF NO LINE, (AND @R2 = 'EOF ')                    Ÿ
                                   33839              Ÿ                                                                     Ÿ
                                   33840              Ÿ                                                                     Ÿ
                                                      ¾þþþþþþþþþþþþþþþþþþþþþþþþþþþþþþþþþþþþþþþþþþþþþþþþþþþþþþþþþþþþþþþþþþþþþ»
00061C2 50E0 D000/9008_      00000 33841              EXFRST   XPROC ,
 USING  *,R7
                                   33881
                                   33882                       COMMENT                   SET EXEC SET NUMBER
 0061DC 5800 B778            00778 33883                       L     R0,CP#XSET
 0061E0 58F0 B77C            0077C 33884                       L     R15,CPRGEXEC
 0061E4 58E0 7400/0DEE       065DC 33885                       VCALL XSETSET
                                   33889
                                   33890                       COMMENT                   GET EXEC LINE
 0061EA 58F0 B77C            0077C 33891                       L     R15,CPRGEXEC
 0061EE 4100 00EB            000EB 33892                       LA    R0,&LINESZ
                                   33893                       COMMENT @R1 - LINE AREA
                                   33894                       COMMENT @R2 - LINENO
 0061F2 58E0 740C/0DEE       065E8 33895                       VCALL XGETFRST
                                   33899
                                   33900                       COMMENT                   BLANK OUT REST OF BUFFER
 0061F8 12FF/4770 7032             33901                       IF    (R15,Z),BEGIN
 0061FE 1821                       33915  1                      LR    R2,R1
 006200 1A20                       33916  1                      AR    R2,R0
 006202 4130 00EB            000EB 33917  1                      LA    R3,&LINESZ
 006206 1B30                       33918  1                      SR    R3,R0
 006208 5850 7408            065E4 33919  1                      L     R5,=X'40000000'
 00620C 0E24                       33920  1                      MVCL  R2,R4
 00620E                            33921                       END
                                   33925
                                   33926                       COMMENT                   IF END OF FILE
 00620E 12FF/4780 7040             33927                       IF    (R15,NZ),BEGIN
 006214 D203 2000 7410 00000 065EC 33941  1                      MVC   0(4,R2),=CL4'EOF '
 00621A 1B00                       33942  1                      CLEAR R0
 00621C                            33946                       END
                                   33950
 00621C 5008 0004            00004 33951                       PRETURN R0
 006220 18D8/9808 D004_            33953                       PEND
1EXEC     (EXEC2193) (12:44) (15MAR04) Get EXEC Lines Routines                                                              Page  142
0Current Usings:  (CP,R11) (CV,R12)
0Loc    Object Code    Addr1 Addr2  Stmt Lv Lineno    Source Statement           (Hibal 5, Asmedit 3.3)  HLASM R4.0  2004/03/15 12.44
+___    ______ ____    _____ _____  ____ __ ______    ______ _________
0DROP   *,R7
1EXEC     (EXEC2193) (12:44) (15MAR04) Get EXEC Lines Routines                                                              Page  143
0Current Usings:  (CP,R11) (CV,R12)
0Loc    Object Code    Addr1 Addr2  Stmt Lv Lineno    Source Statement           (Hibal 5, Asmedit 3.3)  HLASM R4.0  2004/03/15 12.44
+___    ______ ____    _____ _____  ____ __ ______    ______ _________
0                                  33974              ¿þþþþþþþþþþþþþþþþþþþþþþþþþþþþþþþþþþþþþþþþþþþþþþþþþþþþþþþþþþþþþþþþþþþþþÜ
                                   33975              Ÿ                                                                     Ÿ
                                   33976              Ÿ                                                                     Ÿ
                                   33977              Ÿ  EXLAST - GET LAST EXEC LINE IN RANGE                               Ÿ
                                   33978              Ÿ                                                                     Ÿ
                                   33979              Ÿ       WE GET LINE SPECIFIED, OR PREV LINE, WHICHEVER IS LAST.       Ÿ
                                   33980              Ÿ                                                                     Ÿ
                                   33981              Ÿ  ON ENTRY:                                                          Ÿ
                                   33982              Ÿ      @R1 - LINE AREA  (LEN = &LINESZ)                               Ÿ
                                   33983              Ÿ      @R2 - LINE NUMBER OF START OF RANGE                            Ÿ
                                   33984              Ÿ                                                                     Ÿ
                                   33985              Ÿ  ON EXIT:                                                           Ÿ
                                   33986              Ÿ       R0 - LINE LENGTH                                              Ÿ
                                   33987              Ÿ       R1 - LINE LOCATION                                            Ÿ
                                   33988              Ÿ      @R2 - LINE NUMBER READ                                         Ÿ
                                   33989              Ÿ      R15 - CC=ZERO, LINE GOT                                        Ÿ
                                   33990              Ÿ            CC=NZ, IF NO LINE, (AND @R2 = 'EOF ')                    Ÿ
                                   33991              Ÿ                                                                     Ÿ
                                   33992              Ÿ                                                                     Ÿ
                                                      ¾þþþþþþþþþþþþþþþþþþþþþþþþþþþþþþþþþþþþþþþþþþþþþþþþþþþþþþþþþþþþþþþþþþþþþ»
000622E 50E0 D000/9008_      00000 33993              EXLAST   XPROC ,
 USING  *,R7
                                   34033
                                   34034                       COMMENT                   SET EXEC SET NUMBER
 006248 5800 B778            00778 34035                       L     R0,CP#XSET
 00624C 58F0 B77C            0077C 34036                       L     R15,CPRGEXEC
 006250 58E0 7394/0DEE       065DC 34037                       VCALL XSETSET
                                   34041
                                   34042                       COMMENT                   GET EXEC LINE
 006256 58F0 B77C            0077C 34043                       L     R15,CPRGEXEC
 00625A 4100 00EB            000EB 34044                       LA    R0,&LINESZ
                                   34045                       COMMENT @R1 - LINE AREA
                                   34046                       COMMENT @R2 - LINENO
 00625E 58E0 73A8/0DEE       065F0 34047                       VCALL XGETLAST
                                   34051
                                   34052                       COMMENT                   BLANK OUT REST OF BUFFER
 006264 12FF/4770 7032             34053                       IF    (R15,Z),BEGIN
 00626A 1821                       34067  1                      LR    R2,R1
 00626C 1A20                       34068  1                      AR    R2,R0
 00626E 4130 00EB            000EB 34069  1                      LA    R3,&LINESZ
 006272 1B30                       34070  1                      SR    R3,R0
 006274 5850 739C            065E4 34071  1                      L     R5,=X'40000000'
 006278 0E24                       34072  1                      MVCL  R2,R4
 00627A                            34073                       END
                                   34077
                                   34078                       COMMENT                   IF END OF FILE
 00627A 12FF/4780 7040             34079                       IF    (R15,NZ),BEGIN
 006280 D203 2000 73A4 00000 065EC 34093  1                      MVC   0(4,R2),=CL4'EOF '
 006286 1B00                       34094  1                      CLEAR R0
 006288                            34098                       END
                                   34102
 006288 5008 0004            00004 34103                       PRETURN R0
 00628C 18D8/9808 D004_            34105                       PEND
1EXEC     (EXEC2193) (12:44) (15MAR04) Get EXEC Lines Routines                                                              Page  144
0Current Usings:  (CP,R11) (CV,R12)
0Loc    Object Code    Addr1 Addr2  Stmt Lv Lineno    Source Statement           (Hibal 5, Asmedit 3.3)  HLASM R4.0  2004/03/15 12.44
+___    ______ ____    _____ _____  ____ __ ______    ______ _________
0DROP   *,R7
1EXEC     (EXEC2193) (12:44) (15MAR04) Get EXEC Lines Routines                                                              Page  145
0Current Usings:  (CP,R11) (CV,R12)
0Loc    Object Code    Addr1 Addr2  Stmt Lv Lineno    Source Statement           (Hibal 5, Asmedit 3.3)  HLASM R4.0  2004/03/15 12.44
+___    ______ ____    _____ _____  ____ __ ______    ______ _________
0                                  34126              ¿þþþþþþþþþþþþþþþþþþþþþþþþþþþþþþþþþþþþþþþþþþþþþþþþþþþþþþþþþþþþþþþþþþþþþÜ
                                   34127              Ÿ                                                                     Ÿ
                                   34128              Ÿ                                                                     Ÿ
                                   34129              Ÿ  EXNEXT - GET LINE FROM EXEC                                        Ÿ
                                   34130              Ÿ                                                                     Ÿ
                                   34131              Ÿ  ON ENTRY:                                                          Ÿ
                                   34132              Ÿ      @R1 - LINE AREA  (LEN = &LINESZ)                               Ÿ
                                   34133              Ÿ      @R2 - LINE NUMBER (CURRENT)                                    Ÿ
                                   34134              Ÿ                                                                     Ÿ
                                   34135              Ÿ  ON EXIT:                                                           Ÿ
                                   34136              Ÿ       R0 - LINE LENGTH                                              Ÿ
                                   34137              Ÿ       R1 - LINE LOCATION                                            Ÿ
                                   34138              Ÿ      @R2 - LINE NUMBER (NEXT)                                       Ÿ
                                   34139              Ÿ      R15 - CC=ZERO, LINE FOUND                                      Ÿ
                                   34140              Ÿ            CC=NZ, IF LINE NOT FOUND, (AND @R2='EOF ')               Ÿ
                                   34141              Ÿ                                                                     Ÿ
                                   34142              Ÿ                                                                     Ÿ
                                                      ¾þþþþþþþþþþþþþþþþþþþþþþþþþþþþþþþþþþþþþþþþþþþþþþþþþþþþþþþþþþþþþþþþþþþþþ»
000629A 50E0 D000/9008_      00000 34143              EXNEXT   XPROC ,
 USING  *,R7
                                   34183
                                   34184                       COMMENT                   SET EXEC SET NUMBER
 0062B4 58F0 B77C            0077C 34185                       L     R15,CPRGEXEC
 0062B8 5800 B778            00778 34186                       L     R0,CP#XSET
 0062BC 58E0 7328/0DEE       065DC 34187                       VCALL XSETSET
                                   34191
                                   34192                       COMMENT                   GET EXEC LINE
 0062C2 58F0 B77C            0077C 34193                       L     R15,CPRGEXEC
 0062C6 4100 00EB            000EB 34194                       LA    R0,&LINESZ
                                   34195                       COMMENT @R1 - LINE AREA
                                   34196                       COMMENT @R2 - LINENO
 0062CA 58E0 7340/0DEE       065F4 34197                       VCALL XGETNEXT
                                   34201
                                   34202                       COMMENT                   BLANK OUT REST OF BUFFER
 0062D0 12FF/4770 7032             34203                       IF    (R15,Z),BEGIN
 0062D6 1821                       34217  1                      LR    R2,R1
 0062D8 1A20                       34218  1                      AR    R2,R0
 0062DA 4130 00EB            000EB 34219  1                      LA    R3,&LINESZ
 0062DE 1B30                       34220  1                      SR    R3,R0
 0062E0 5850 7330            065E4 34221  1                      L     R5,=X'40000000'
 0062E4 0E24                       34222  1                      MVCL  R2,R4
 0062E6                            34223                       END
                                   34227
                                   34228                       COMMENT                   IF END OF FILE
 0062E6 12FF/4780 7040             34229                       IF    (R15,NZ),BEGIN
 0062EC D203 2000 7338 00000 065EC 34243  1                      MVC   0(4,R2),=CL4'EOF '
 0062F2 1B00                       34244  1                      CLEAR R0
 0062F4                            34248                       END
                                   34252
 0062F4 5008 0004            00004 34253                       PRETURN R0
 0062F8 18D8/9808 D004_            34255                       PEND
 DROP   *,R7
1EXEC     (EXEC2193) (12:44) (15MAR04) Get EXEC Lines Routines                                                              Page  146
0Current Usings:  (CP,R11) (CV,R12)
0Loc    Object Code    Addr1 Addr2  Stmt Lv Lineno    Source Statement           (Hibal 5, Asmedit 3.3)  HLASM R4.0  2004/03/15 12.44
+___    ______ ____    _____ _____  ____ __ ______    ______ _________
0                                  34276              ¿þþþþþþþþþþþþþþþþþþþþþþþþþþþþþþþþþþþþþþþþþþþþþþþþþþþþþþþþþþþþþþþþþþþþþÜ
                                   34277              Ÿ                                                                     Ÿ
                                   34278              Ÿ                                                                     Ÿ
                                   34279              Ÿ  EXPREV - GET PREVIOUS LINE FROM EXEC                               Ÿ
                                   34280              Ÿ                                                                     Ÿ
                                   34281              Ÿ  ON ENTRY:                                                          Ÿ
                                   34282              Ÿ      @R1 - LINE AREA  (LEN = &LINESZ)                               Ÿ
                                   34283              Ÿ      @R2 - LINE NUMBER (CURRENT)                                    Ÿ
                                   34284              Ÿ                                                                     Ÿ
                                   34285              Ÿ  ON EXIT:                                                           Ÿ
                                   34286              Ÿ       R0 - LINE LENGTH                                              Ÿ
                                   34287              Ÿ       R1 - LINE LOCATION                                            Ÿ
                                   34288              Ÿ      @R2 - LINE NUMBER (PREVIOUS)                                   Ÿ
                                   34289              Ÿ      R15 - CC=ZERO, LINE GOT                                        Ÿ
                                   34290              Ÿ                                                                     Ÿ
                                   34291              Ÿ                                                                     Ÿ
                                                      ¾þþþþþþþþþþþþþþþþþþþþþþþþþþþþþþþþþþþþþþþþþþþþþþþþþþþþþþþþþþþþþþþþþþþþþ»
0006306 50E0 D000/9008_      00000 34292              EXPREV   XPROC ,
 USING  *,R7
                                   34332
                                   34333                       COMMENT                   SET EXEC SET NUMBER
 006320 58F0 B77C            0077C 34334                       L     R15,CPRGEXEC
 006324 5800 B778            00778 34335                       L     R0,CP#XSET
 006328 58E0 72BC/0DEE       065DC 34336                       VCALL XSETSET
                                   34340
                                   34341                       COMMENT                   GET EXEC LINE
 00632E 58F0 B77C            0077C 34342                       L     R15,CPRGEXEC
 006332 4100 00EB            000EB 34343                       LA    R0,&LINESZ
                                   34344                       COMMENT @R1 - LINE AREA
                                   34345                       COMMENT @R2 - LINENO
 006336 58E0 72D8/0DEE       065F8 34346                       VCALL XGETPREV
                                   34350
                                   34351                       COMMENT                   BLANK OUT REST OF BUFFER
 00633C 4770 7030            06350 34352                       IF    Z,BEGIN
 006340 1821                       34363  1                      LR    R2,R1
 006342 1A20                       34364  1                      AR    R2,R0
 006344 4130 00EB            000EB 34365  1                      LA    R3,&LINESZ
 006348 1B30                       34366  1                      SR    R3,R0
 00634A 5850 72C4            065E4 34367  1                      L     R5,=X'40000000'
 00634E 0E24                       34368  1                      MVCL  R2,R4
 006350                            34369                       END
                                   34373
 006350 5008 0004            00004 34374                       PRETURN R0
 006354 18D8/9808 D004_            34376                       PEND
 DROP   *,R7
1EXEC     (EXEC2193) (12:44) (15MAR04) Get EXEC Lines Routines                                                              Page  147
0Current Usings:  (CP,R11) (CV,R12)
0Loc    Object Code    Addr1 Addr2  Stmt Lv Lineno    Source Statement           (Hibal 5, Asmedit 3.3)  HLASM R4.0  2004/03/15 12.44
+___    ______ ____    _____ _____  ____ __ ______    ______ _________
0                                  34397              ¿þþþþþþþþþþþþþþþþþþþþþþþþþþþþþþþþþþþþþþþþþþþþþþþþþþþþþþþþþþþþþþþþþþþþþÜ
                                   34398              Ÿ                                                                     Ÿ
                                   34399              Ÿ                                                                     Ÿ
                                   34400              Ÿ  EXFRSTLN - GET FIRST LINE NUMBER OF EXEC                           Ÿ
                                   34401              Ÿ                                                                     Ÿ
                                   34402              Ÿ  ON EXIT:                                                           Ÿ
                                   34403              Ÿ       R0 - FIRST LINE NUMBER                                        Ÿ
                                   34404              Ÿ      R15 - CC=ZERO, FIRST LINE EXISTS                               Ÿ
                                   34405              Ÿ            CC=NZ, NO FIRST LINE !                                   Ÿ
                                   34406              Ÿ                                                                     Ÿ
                                                      ¾þþþþþþþþþþþþþþþþþþþþþþþþþþþþþþþþþþþþþþþþþþþþþþþþþþþþþþþþþþþþþþþþþþþþþ»
0000000                00000 00004 34407              EXFRSTWA RECORD BEGIN
 000000                            34415  1           EXFLINE    DS    F
 000004                00004 00004 34416                       END
                                   34425              *
                                   34426              *
 006362 50E0 D000/9008_      00000 34427              EXFRSTLN XPROC EXFRSTWA
 USING  *,R7
 USING  EXFRSTWA-(4+36),R8
 00637C D703 8028 8028 00000 00000 34478                       CLEAR EXFLINE
                                   34485
                                   34486                       COMMENT                   SET EXEC SET NUMBER
 006382 5800 B778            00778 34487                       L     R0,CP#XSET
 006386 58F0 B77C            0077C 34488                       L     R15,CPRGEXEC
 00638A 58E0 7260/0DEE       065DC 34489                       VCALL XSETSET
                                   34493
                                   34494                       COMMENT                   LOCATE EXEC LINE
 006390 58F0 B77C            0077C 34495                       L     R15,CPRGEXEC
 006394 4120 8028            00000 34496                       LA    R2,EXFLINE
 006398 58E0 7280/0DEE       065FC 34497                       VCALL XLOCFRST
                                   34501
 00639E 4770 702C            063A8 34502                       IF    Z,BEGIN
 0063A2 5800 8028            00000 34513  1                      L     R0,EXFLINE
 0063A6 1BFF                       34514  1                      CLEAR R15
 0063A8                            34518                       END
 0063A8 7030/47F0 7036 063A8 063A0 34522                       ELSE  BEGIN
 0063AC 1B00                       34533  1                      CLEAR R0
 0063AE 41F0 0004            00004 34537  1                      LA    R15,4
 0063B2                            34538                       END
                                   34542
 0063B2 5008 0004            00004 34543                       PRETURN R0
 0063B6 18D8/9808 D004_            34545                       PEND
 DROP   EXFRSTWA-(4+36),R8
 DROP   *,R7
1EXEC     (EXEC2193) (12:44) (15MAR04) Get EXEC Lines Routines                                                              Page  148
0Current Usings:  (CP,R11) (CV,R12)
0Loc    Object Code    Addr1 Addr2  Stmt Lv Lineno    Source Statement           (Hibal 5, Asmedit 3.3)  HLASM R4.0  2004/03/15 12.44
+___    ______ ____    _____ _____  ____ __ ______    ______ _________
0                                  34571              ¿þþþþþþþþþþþþþþþþþþþþþþþþþþþþþþþþþþþþþþþþþþþþþþþþþþþþþþþþþþþþþþþþþþþþþÜ
                                   34572              Ÿ                                                                     Ÿ
                                   34573              Ÿ                                                                     Ÿ
                                   34574              Ÿ  EXLASTLN - GET LAST LINE NUMBER OF EXEC                            Ÿ
                                   34575              Ÿ                                                                     Ÿ
                                   34576              Ÿ  ON EXIT:                                                           Ÿ
                                   34577              Ÿ       R0 - LAST LINE NUMBER                                         Ÿ
                                   34578              Ÿ      R15 - CC=ZERO, FIRST LINE EXISTS                               Ÿ
                                   34579              Ÿ            CC=NZ, NO LAST LINE !                                    Ÿ
                                   34580              Ÿ                                                                     Ÿ
                                                      ¾þþþþþþþþþþþþþþþþþþþþþþþþþþþþþþþþþþþþþþþþþþþþþþþþþþþþþþþþþþþþþþþþþþþþþ»
0000000                00000 00004 34581              EXLASTWA RECORD BEGIN
 000000                            34589  1           EXLLINE    DS    F
 000004                00004 00004 34590                       END
                                   34599              *
                                   34600              *
 0063C4 50E0 D000/9008_      00000 34601              EXLASTLN XPROC EXLASTWA
 USING  *,R7
 USING  EXLASTWA-(4+36),R8
 0063DE D203 8028 7222 00000 06600 34652                       MVC   EXLLINE(4),=XL4'FFFFFFFF'
                                   34653
                                   34654                       COMMENT                   SET EXEC SET NUMBER
 0063E4 5800 B778            00778 34655                       L     R0,CP#XSET
 0063E8 58F0 B77C            0077C 34656                       L     R15,CPRGEXEC
 0063EC 58E0 71FE/0DEE       065DC 34657                       VCALL XSETSET
                                   34661
                                   34662                       COMMENT                   LOCATE EXEC LINE
 0063F2 58F0 B77C            0077C 34663                       L     R15,CPRGEXEC
 0063F6 4120 8028            00000 34664                       LA    R2,EXLLINE
 0063FA 58E0 7226/0DEE       06604 34665                       VCALL XLOCLAST
                                   34669
 006400 4770 702C            0640A 34670                       IF    Z,BEGIN
 006404 5800 8028            00000 34681  1                      L     R0,EXLLINE
 006408 1BFF                       34682  1                      CLEAR R15
 00640A                            34686                       END
 00640A 7030/47F0 7036 0640A 06402 34690                       ELSE  BEGIN
 00640E 1B00                       34701  1                      CLEAR R0
 006410 41F0 0004            00004 34705  1                      LA    R15,4
 006414                            34706                       END
                                   34710
 006414 5008 0004            00004 34711                       PRETURN R0
 006418 18D8/9808 D004_            34713                       PEND
 DROP   EXLASTWA-(4+36),R8
 DROP   *,R7
1EXEC     (EXEC2193) (12:44) (15MAR04) Get EXEC Lines Routines                                                              Page  149
0Current Usings:  (CP,R11) (CV,R12)
0Loc    Object Code    Addr1 Addr2  Stmt Lv Lineno    Source Statement           (Hibal 5, Asmedit 3.3)  HLASM R4.0  2004/03/15 12.44
+___    ______ ____    _____ _____  ____ __ ______    ______ _________
0                                  34739              ¿þþþþþþþþþþþþþþþþþþþþþþþþþþþþþþþþþþþþþþþþþþþþþþþþþþþþþþþþþþþþþþþþþþþþþÜ
                                   34740              Ÿ                                                                     Ÿ
                                   34741              Ÿ                                                                     Ÿ
                                   34742              Ÿ  EXNEXTLN - GET NEXT LINE NUMBER OF EXEC                            Ÿ
                                   34743              Ÿ                                                                     Ÿ
                                   34744              Ÿ  ON ENTRY:                                                          Ÿ
                                   34745              Ÿ       R0 - CURRENT LINE NUMBER                                      Ÿ
                                   34746              Ÿ                                                                     Ÿ
                                   34747              Ÿ  ON EXIT:                                                           Ÿ
                                   34748              Ÿ       R0 - NEXT LINE NUMBER                                         Ÿ
                                   34749              Ÿ      R15 - CC=ZERO, NEXT LINE EXISTS                                Ÿ
                                   34750              Ÿ            CC=NZ, NO NEXT LINE !                                    Ÿ
                                   34751              Ÿ                                                                     Ÿ
                                                      ¾þþþþþþþþþþþþþþþþþþþþþþþþþþþþþþþþþþþþþþþþþþþþþþþþþþþþþþþþþþþþþþþþþþþþþ»
0000000                00000 00004 34752              EXNEXTWA RECORD BEGIN
 000000                            34760  1           EXNLINE    DS    F
 000004                00004 00004 34761                       END
                                   34770              *
                                   34771              *
 006426 50E0 D000/9008_      00000 34772              EXNEXTLN XPROC EXNEXTWA
 USING  *,R7
 USING  EXNEXTWA-(4+36),R8
 006440 5000 8028            00000 34823                       ST    R0,EXNLINE
                                   34824
                                   34825                       COMMENT                   SET EXEC SET NUMBER
 006444 5800 B778            00778 34826                       L     R0,CP#XSET
 006448 58F0 B77C            0077C 34827                       L     R15,CPRGEXEC
 00644C 58E0 719C/0DEE       065DC 34828                       VCALL XSETSET
                                   34832
                                   34833                       COMMENT                   LOCATE EXEC LINE
 006452 58F0 B77C            0077C 34834                       L     R15,CPRGEXEC
 006456 4120 8028            00000 34835                       LA    R2,EXNLINE
 00645A 58E0 71C8/0DEE       06608 34836                       VCALL XLOCNEXT
                                   34840
 006460 4770 702A            0646A 34841                       IF    Z,BEGIN
 006464 5800 8028            00000 34852  1                      L     R0,EXNLINE
 006468 1BFF                       34853  1                      CLEAR R15
 00646A                            34857                       END
 00646A 702E/47F0 7034 0646A 06462 34861                       ELSE  BEGIN
 00646E 1B00                       34872  1                      CLEAR R0
 006470 41F0 0004            00004 34876  1                      LA    R15,4
 006474                            34877                       END
                                   34881
 006474 5008 0004            00004 34882                       PRETURN R0
 006478 18D8/9808 D004_            34884                       PEND
 DROP   EXNEXTWA-(4+36),R8
 DROP   *,R7
1EXEC     (EXEC2193) (12:44) (15MAR04) Get EXEC Lines Routines                                                              Page  150
0Current Usings:  (CP,R11) (CV,R12)
0Loc    Object Code    Addr1 Addr2  Stmt Lv Lineno    Source Statement           (Hibal 5, Asmedit 3.3)  HLASM R4.0  2004/03/15 12.44
+___    ______ ____    _____ _____  ____ __ ______    ______ _________
0                                  34910              ¿þþþþþþþþþþþþþþþþþþþþþþþþþþþþþþþþþþþþþþþþþþþþþþþþþþþþþþþþþþþþþþþþþþþþþÜ
                                   34911              Ÿ                                                                     Ÿ
                                   34912              Ÿ                                                                     Ÿ
                                   34913              Ÿ  EXPREVLN - GET PREV LINE NUMBER OF EXEC                            Ÿ
                                   34914              Ÿ                                                                     Ÿ
                                   34915              Ÿ  ON ENTRY:                                                          Ÿ
                                   34916              Ÿ       R0 - CURRENT LINE NUMBER                                      Ÿ
                                   34917              Ÿ                                                                     Ÿ
                                   34918              Ÿ  ON EXIT:                                                           Ÿ
                                   34919              Ÿ       R0 - PREV LINE NUMBER                                         Ÿ
                                   34920              Ÿ      R15 - CC=ZERO, NEXT LINE EXISTS                                Ÿ
                                   34921              Ÿ            CC=NZ, NO NEXT LINE !                                    Ÿ
                                   34922              Ÿ                                                                     Ÿ
                                                      ¾þþþþþþþþþþþþþþþþþþþþþþþþþþþþþþþþþþþþþþþþþþþþþþþþþþþþþþþþþþþþþþþþþþþþþ»
0000000                00000 00004 34923              EXPREVWA RECORD BEGIN
 000000                            34931  1           EXPLINE    DS    F
 000004                00004 00004 34932                       END
                                   34941              *
                                   34942              *
 006486 50E0 D000/9008_      00000 34943              EXPREVLN XPROC EXPREVWA
 USING  *,R7
 USING  EXPREVWA-(4+36),R8
 0064A0 5000 8028            00000 34994                       ST    R0,EXPLINE
                                   34995
                                   34996                       COMMENT                   SET EXEC SET NUMBER
 0064A4 5800 B778            00778 34997                       L     R0,CP#XSET
 0064A8 58F0 B77C            0077C 34998                       L     R15,CPRGEXEC
 0064AC 58E0 713C/0DEE       065DC 34999                       VCALL XSETSET
                                   35003
                                   35004                       COMMENT                   LOCATE EXEC LINE
 0064B2 58F0 B77C            0077C 35005                       L     R15,CPRGEXEC
 0064B6 4120 8028            00000 35006                       LA    R2,EXPLINE
 0064BA 58E0 716C/0DEE       0660C 35007                       VCALL XLOCPREV
                                   35011
 0064C0 4770 702A            064CA 35012                       IF    Z,BEGIN
 0064C4 5800 8028            00000 35023  1                      L     R0,EXPLINE
 0064C8 1BFF                       35024  1                      CLEAR R15
 0064CA                            35028                       END
 0064CA 702E/47F0 7034 064CA 064C2 35032                       ELSE  BEGIN
 0064CE 1B00                       35043  1                      CLEAR R0
 0064D0 41F0 0004            00004 35047  1                      LA    R15,4
 0064D4                            35048                       END
                                   35052
 0064D4 5008 0004            00004 35053                       PRETURN R0
 0064D8 18D8/9808 D004_            35055                       PEND
 DROP   EXPREVWA-(4+36),R8
 DROP   *,R7
1EXEC     (EXEC2193) (12:44) (15MAR04) Get EXEC Lines Routines                                                              Page  151
0Current Usings:  (CP,R11) (CV,R12)
0Loc    Object Code    Addr1 Addr2  Stmt Lv Lineno    Source Statement           (Hibal 5, Asmedit 3.3)  HLASM R4.0  2004/03/15 12.44
+___    ______ ____    _____ _____  ____ __ ______    ______ _________
0                                  35081                       QLTORG
1EXEC     (EXEC2193) (12:44) (15MAR04) Common Routines                                                                      Page  152
0Current Usings:  (CP,R11) (CV,R12)
0Loc    Object Code    Addr1 Addr2  Stmt Lv Lineno    Source Statement           (Hibal 5, Asmedit 3.3)  HLASM R4.0  2004/03/15 12.44
+___    ______ ____    _____ _____  ____ __ ______    ______ _________
0                                  35153              *$ MOVE TO ACT !!!!!!!!!
                                   35154              *$ MOVE TO ACT !!!!!!!!!
                                   35155              *$ MOVE TO ACT !!!!!!!!!
                                   35156              ¿þþþþþþþþþþþþþþþþþþþþþþþþþþþþþþþþþþþþþþþþþþþþþþþþþþþþþþþþþþþþþþþþþþþþþÜ
                                   35157              Ÿ                                                                     Ÿ
                                   35158              Ÿ                                                                     Ÿ
                                   35159              Ÿ  XUNPRESS - TEXT UNPRESS                                            Ÿ
                                   35160              Ÿ                                                                     Ÿ
                                   35161              Ÿ  ON ENTRY:                                                          Ÿ
                                   35162              Ÿ       R1 - unpress area (at least &LINESZ bytes)                    Ÿ
                                   35163              Ÿ       R2 - text to unpress                                          Ÿ
                                   35164              Ÿ            (ie. 1 byte len n, n bytes pressed text)                 Ÿ
                                   35165              Ÿ                                                                     Ÿ
                                   35166              Ÿ  On exit:                                                           Ÿ
                                   35167              Ÿ       R1,R0 - unpress loc, len                                      Ÿ
                                   35168              Ÿ       R15 - CC=ZERO                                                 Ÿ
                                   35169              Ÿ                                                                     Ÿ
                                   35170              Ÿ                                                                     Ÿ
                                                      ¾þþþþþþþþþþþþþþþþþþþþþþþþþþþþþþþþþþþþþþþþþþþþþþþþþþþþþþþþþþþþþþþþþþþþþ»
0006648 50E0 D000/9008_      00000 35171              XUNPRESS XPROC ,
 USING  *,R7
                                   35211
 006662 1841                       35212                       LR    R4,R1               blank unpress area
 006664 4150 00EB            000EB 35213                       LA    R5,&LINESZ
 006668 58F0 727E            068E0 35214                       L     R15,=X'40000000'
 00666C 0E4E                       35215                       MVCL  R4,R14
                                   35216
 00666E 1F33/4332 0000             35217                       LC    R3,0(R2)            R3 - end of text
 006674 4133 2001            00001 35224                       LA    R3,1(R3,R2)
 006678 4122 0001            00001 35225                       LA    R2,1(R2)            R2 - start of text
 00667C 1B44                       35226                       SR    R4,R4               R4 - blank count
 00667E 1B55                       35227                       SR    R5,R5               R5 - text count
 006680 1861                       35228                       LR    R6,R1               R6 - unpress buffer pointer
                                   35229                       COMMENT
 006682 1923/47B0 7058             35230                       WHILE (R2,LT,R3),BEGIN    loop doing it to it
 006688 4342 0000            00000 35247  1                      IC    R4,0(R2)
 00668C 4352 0000            00000 35248  1                      IC    R5,0(R2)
 006690 4122 0001            00001 35249  1                      LA    R2,1(R2)
 006694 8840 0004            00004 35250  1                      SRL   R4,4
 006698 8950 001C            0001C 35251  1                      SLL   R5,28
 00669C 8850 001C            0001C 35252  1                      SRL   R5,28
 0066A0 1A64                       35253  1                      AR    R6,R4               skip blanks
 0066A2 1255/47D0 7050             35254  1                      IF    (R5,POS),BEGIN
 0066A8 0650/4450 72CA_            35268  2                        DEX   R5,' MVC 0(0,R6),0(R2) '
 0066AE 5E50 7282            068E4 35287  2                        INCR  R5
 0066B2                            35290  1                      END
 0066B2 1A25                       35294  1                      AR    R2,R5
 0066B4 1A65                       35295  1                      AR    R6,R5
 0066B6 47F0 7020            06682 35296                       END
                                   35301
 0066BA 1806                       35302                       LR    R0,R6               return length in R0
 0066BC 1B01                       35303                       SR    R0,R1
                                   35304
1EXEC     (EXEC2193) (12:44) (15MAR04) Common Routines                                                                      Page  153
0Current Usings:  (*,R7) (CP,R11) (CV,R12)
0Loc    Object Code    Addr1 Addr2  Stmt Lv Lineno    Source Statement           (Hibal 5, Asmedit 3.3)  HLASM R4.0  2004/03/15 12.44
+___    ______ ____    _____ _____  ____ __ ______    ______ _________
00066BE 1BFF                       35305                       CLEAR R15
 0066C0 5008 0004            00004 35309                       PRETURN R0
 0066C4 18D8/9808 D004_            35311                       PEND
 DROP   *,R7
1EXEC     (EXEC2193) (12:44) (15MAR04) Common Routines                                                                      Page  154
0Current Usings:  (CP,R11) (CV,R12)
0Loc    Object Code    Addr1 Addr2  Stmt Lv Lineno    Source Statement           (Hibal 5, Asmedit 3.3)  HLASM R4.0  2004/03/15 12.44
+___    ______ ____    _____ _____  ____ __ ______    ______ _________
0                                  35332              ¿þþþþþþþþþþþþþþþþþþþþþþþþþþþþþþþþþþþþþþþþþþþþþþþþþþþþþþþþþþþþþþþþþþþþþÜ
                                   35333              Ÿ                                                                     Ÿ
                                   35334              Ÿ                                                                     Ÿ
                                   35335              Ÿ  SETPARM - SET EXEC PARAMETER                                       Ÿ
                                   35336              Ÿ                                                                     Ÿ
                                   35337              Ÿ  ON ENTRY:                                                          Ÿ
                                   35338              Ÿ       R0 - PARM LENGTH                                              Ÿ
                                   35339              Ÿ       R1 - PARM ADDRESS                                             Ÿ
                                   35340              Ÿ                                                                     Ÿ
                                   35341              Ÿ                                                                     Ÿ
                                   35342              Ÿ                                                                     Ÿ
                                                      ¾þþþþþþþþþþþþþþþþþþþþþþþþþþþþþþþþþþþþþþþþþþþþþþþþþþþþþþþþþþþþþþþþþþþþþ»
00066D2 50E0 D000/9008_      00000 35343              SETPARM  XPROC
 USING  *,R7
                                   35383
                                   35384                       COMMENT                   SAVE EXEC FILE NAME
                                   35385                       COMMENT                   R1,R0 - PARM LOC, LEN
                                   35386                       COMMENT                   R2 - DATA ITEM NAME
 0066EC 4120 71E4            068D0 35387                       LA    R2,=CL16'SYS.PARM        '
 0066F0 58E0 71FC/0DEE       068E8 35388                       VCALL SAVEDATA
                                   35392
 0066F6 18D8/9808 D004_            35393                       PEND
 DROP   *,R7
1EXEC     (EXEC2193) (12:44) (15MAR04) Common Routines                                                                      Page  155
0Current Usings:  (CP,R11) (CV,R12)
0Loc    Object Code    Addr1 Addr2  Stmt Lv Lineno    Source Statement           (Hibal 5, Asmedit 3.3)  HLASM R4.0  2004/03/15 12.44
+___    ______ ____    _____ _____  ____ __ ______    ______ _________
0                                  35414              ¿þþþþþþþþþþþþþþþþþþþþþþþþþþþþþþþþþþþþþþþþþþþþþþþþþþþþþþþþþþþþþþþþþþþþþÜ
                                   35415              Ÿ                                                                     Ÿ
                                   35416              Ÿ                                                                     Ÿ
                                   35417              Ÿ  CHECKNSW - CHECK FOR N0-N9, S0-S9, AND W0-W9                       Ÿ
                                   35418              Ÿ                                                                     Ÿ
                                   35419              Ÿ  CHECK IF @R1 POINTS TO PREDEFINED VARIABLE,,, (EG. N0,S2..)        Ÿ
                                   35420              Ÿ                                                                     Ÿ
                                   35421              Ÿ  ON ENTRY:                                                          Ÿ
                                   35422              Ÿ       R0 - STRING LENGTH                                            Ÿ
                                   35423              Ÿ       R1 - STRING LOCATION                                          Ÿ
                                   35424              Ÿ                                                                     Ÿ
                                   35425              Ÿ  ON EXIT:                                                           Ÿ
                                   35426              Ÿ       R0,R1 - UNCHANGED,                                            Ÿ
                                   35427              Ÿ       R15 - CC=ZERO - IF @R1 POINTS TO N,W,S VARIABLE               Ÿ
                                   35428              Ÿ             CC=NZ - IF NOT THE ABOVE                                Ÿ
                                   35429              Ÿ                                                                     Ÿ
                                   35430              Ÿ                                                                     Ÿ
                                                      ¾þþþþþþþþþþþþþþþþþþþþþþþþþþþþþþþþþþþþþþþþþþþþþþþþþþþþþþþþþþþþþþþþþþþþþ»
0006704 50E0 D000/9008_      00000 35431              CHECKNSW PROC
 USING  *,R7
 00671E 41F0 0004            00004 35470                       LA    R15,4               ASSUME NOT
 006722 5900 71CE/4750_      068EC 35471                       IF    (R0,GE,2),BEGIN
 00672A 1B22                       35488  1                      SR    R2,R2
 00672C 4320 1000            00000 35489  1                      IC    R2,@R1              R2 - 1ST CHAR OF PREDEFINED VAR
 006730 5620 71D2            068F0 35490  1                      O     R2,=X'00000040'          IN UPPER CASE
 006734 4130 00D5            000D5 35491  1                      LA    R3,C'N'
 006738 4140 00E2            000E2 35492  1                      LA    R4,C'S'
 00673C 4150 00E6            000E6 35493  1                      LA    R5,C'W'
 006740 1923/4780 7034_            35494  1                      IF    ((R2,EQ,R3),OR,(R2,EQ,R4),OR,(R2,EQ,R5)),BEGIN
 006752 95F0 1001/4750_00001       35535  2                        IF    ((@R1+1,GE,'0'),AND,(@R1+1,LE,'9')),BEGIN
 006762 1BFF                       35566  3                          CLEAR R15
 006764                            35570  2                        END
 006764                            35574  1                      END
 006764                            35578                       END
 006764 18D8/9808 D004_            35582                       PEND
 DROP   *,R7
1EXEC     (EXEC2193) (12:44) (15MAR04) Common Routines                                                                      Page  156
0Current Usings:  (CP,R11) (CV,R12)
0Loc    Object Code    Addr1 Addr2  Stmt Lv Lineno    Source Statement           (Hibal 5, Asmedit 3.3)  HLASM R4.0  2004/03/15 12.44
+___    ______ ____    _____ _____  ____ __ ______    ______ _________
0                                  35603              ¿þþþþþþþþþþþþþþþþþþþþþþþþþþþþþþþþþþþþþþþþþþþþþþþþþþþþþþþþþþþþþþþþþþþþþÜ
                                   35604              Ÿ                                                                     Ÿ
                                   35605              Ÿ                                                                     Ÿ
                                   35606              Ÿ  GETNSW - GET VALUE OF N0-N9, S0-S9, OR W0-W9                       Ÿ
                                   35607              Ÿ                                                                     Ÿ
                                   35608              Ÿ  GET VALUE OF PREDEFINED VARIABLE,,, IT IS ASSUMED THAT @R1         Ÿ
                                   35609              Ÿ  POINTS TO A PREDEFINED VARIABLE. !                                 Ÿ
                                   35610              Ÿ                                                                     Ÿ
                                   35611              Ÿ  ON ENTRY:                                                          Ÿ
                                   35612              Ÿ       R0 - STRING LENGTH                                            Ÿ
                                   35613              Ÿ       R1 - STRING LOCATION                                          Ÿ
                                   35614              Ÿ       R2 - RETURN VARIABLE AREA                                     Ÿ
                                   35615              Ÿ                                                                     Ÿ
                                   35616              Ÿ  ON EXIT:                                                           Ÿ
                                   35617              Ÿ       R0 - UPDATED LENGTH                                           Ÿ
                                   35618              Ÿ       R1 - UPDATED LOCATION                                         Ÿ
                                   35619              Ÿ       R6 - VARIABLE VALUE                                           Ÿ
                                   35620              Ÿ      R15 - CC=ZERO, IF OK                                           Ÿ
                                   35621              Ÿ            CC=NZ, IF ERROR ,,, ERROR MSG IS TSEG'D                  Ÿ
                                   35622              Ÿ                                                                     Ÿ
                                   35623              Ÿ                                                                     Ÿ
                                   35624              Ÿ                                                                     Ÿ
                                                      ¾þþþþþþþþþþþþþþþþþþþþþþþþþþþþþþþþþþþþþþþþþþþþþþþþþþþþþþþþþþþþþþþþþþþþþ»
0006772 50E0 D000/9008_      00000 35625              GETNSW   PROC
 USING  *,R7
 USING  VNENTRY,R2                 35664                       USING VNENTRY,R2
 00678C 58E0 7168/0DEE       068F4 35673                       ACALL CHECKNSW
 006792 4770 7082            0680E 35677                       IF    Z,BEGIN             IF @R1, IS PREDEFINED VAR,,,
 006796 9001 D000/41D0_      00000 35688  1                      XPUSH R0,R1
 00679E D74F 2000 2000 00000 00000 35691  1                      CLEAR VNENTRY             CLEAR VARIABLE ENTRY
 0067A4 D20F 2000 C4D8 00000 004D8 35698  1                      MVC   VNNAME(L'VNNAME),CVBLANKS
 0067AA D201 2000 1000 00000 00000 35699  1                      MVC   VNNAME(2),0(R1)     SET VARIABLE ENTRY NAME
 0067B0 D601 2000 7180 00000 0690C 35700  1                      OC    VNNAME(2),=X'4040'  IN UPPER CASE
 0067B6 4110 2000            00000 35701  1                      LA    R1,VNENTRY
 0067BA 58E0 716C/0DEE       068F8 35702  1                      VCALL GETVAR              GET VARIABLE VALUE
 0067C0 4780 7072            067FE 35706  1                      IF    NZ,BEGIN
 0067C4 4110 7190/4100_      0691C 35717  2                        TSEG  '"'
 0067D6 4110 2000/4100_      00000 35735  2                        TSEG  VNNAME,,T
 0067E8 4110 7191/4100_      0691D 35763  2                        TSEG  '" is undefined.'  IF VAR UNDEFINED, GIVE ERROR MSG
 0067FA 41F0 0004            00004 35781  2                        LA    R15,4
 0067FE                            35782  1                      END
 0067FE 4BD0 7182/9801_      0690E 35786  1                      XPOP  R0,R1
 006806 4111 0002            00002 35789  1                      LA    R1,2(R1)
 00680A 0600                       35790  1                      DECR  R0
 00680C 0600                       35792  1                      DECR  R0
 00680E                            35794                       END
 00680E 7086/47F0 7108 0680E 06794 35798                       ELSE  BEGIN              IF @R1 IS NOT PREDEFINED VAR,,
 006812 58E0 B08C/501E_      0008C 35809  1                      SCINIT (R1),(R0)         GIVE ERROR MESSAGE
 006820 5810 B08C/1B00_      0008C 35829  1                      SCAN  ,
 00686E 58E0 717C/0DEE       06908 35860  1                      SCANCHK
 006874 41F0 B050/58E0_      00050 35865  1                      TSEG  (R1),(R0)
 00687E 4110 7186/4100_      06912 35889  1                      TSEG  ': invalid.'
 006890 41F0 0004            00004 35907  1                      LA    R15,4
1EXEC     (EXEC2193) (12:44) (15MAR04) Common Routines                                                                      Page  157
0Current Usings:  (VNENTRY,R2) (*,R7) (CP,R11) (CV,R12)
0Loc    Object Code    Addr1 Addr2  Stmt Lv Lineno    Source Statement           (Hibal 5, Asmedit 3.3)  HLASM R4.0  2004/03/15 12.44
+___    ______ ____    _____ _____  ____ __ ______    ______ _________
0006894                            35908                       END
 006894 9001 8004            00004 35912                       PRETURN (R0,R1)
 006898 18D8/9808 D004_            35914                       PEND
 DROP   *,R7
 DROP   VNENTRY,R2                 35934                       DROP  R2
1EXEC     (EXEC2193) (12:44) (15MAR04) LOST CAUSES                                                                          Page  158
0Current Usings:  (CP,R11) (CV,R12)
0Loc    Object Code    Addr1 Addr2  Stmt Lv Lineno    Source Statement           (Hibal 5, Asmedit 3.3)  HLASM R4.0  2004/03/15 12.44
+___    ______ ____    _____ _____  ____ __ ______    ______ _________
0                                  35942              ¿þþþþþþþþþþþþþþþþþþþþþþþþþþþþþþþþþþþþþþþþþþþþþþþþþþþþþþþþþþþþþþþþþþþþþÜ
                                   35943              Ÿ                                                                     Ÿ
                                   35944              Ÿ                                                                     Ÿ
                                   35945              Ÿ ROUTINES THAT MUST BE CODED !                                       Ÿ
                                   35946              Ÿ                                                                     Ÿ
                                   35947              Ÿ   oh yeah !!                                                        Ÿ
                                   35948              Ÿ                                                                     Ÿ
                                                      ¾þþþþþþþþþþþþþþþþþþþþþþþþþþþþþþþþþþþþþþþþþþþþþþþþþþþþþþþþþþþþþþþþþþþþþ»
00068A6 50E0 D000/9008_      00000 35949              NONE     PROC  ,,
 USING  *,R7
 0068C0 18D8/9808 D004_            35988                       PEND  ,
 DROP   *,R7
                                   36008              *
                                   36009              *
1EXEC     (EXEC2193) (12:44) (15MAR04) LOST CAUSES                                                                          Page  159
0Current Usings:  (CP,R11) (CV,R12)
0Loc    Object Code    Addr1 Addr2  Stmt Lv Lineno    Source Statement           (Hibal 5, Asmedit 3.3)  HLASM R4.0  2004/03/15 12.44
+___    ______ ____    _____ _____  ____ __ ______    ______ _________
0                                  36011                       QLTORG
                                   36041                       VLTORG
 006938                06938 06938 36049                       END   .

1EXEC     (EXEC2193) (12:44) (15MAR04) Relocation Dictionary                                                                Page  160
-   Pos.Id   Rel.Id   Flags    Address                                                       HLASM R4.0  2004/03/15 12.44
0  00000001 00000001    0C    0000064C
   00000001 00000001    0C    0000065C
   00000001 00000001    0C    00000660
   00000001 00000001    0C    00000668
   00000001 00000001    0C    0000066C
   00000001 00000001    0C    00000670
   00000001 00000001    0C    00000674
   00000001 00000001    0C    00000678
   00000001 00000001    0C    0000067C
   00000001 00000001    0C    00000680
   00000001 00000001    0C    00000694
   00000001 00000001    0C    00000698
   00000001 00000001    0C    000006A8
   00000001 00000001    0C    000006C4
   00000001 00000001    0C    000006C8
   00000001 00000001    0C    000006D0
   00000001 00000001    0C    00000798
   00000001 00000001    0C    000007C0
   00000001 00000001    0C    000007E8
   00000001 00000001    0C    00000810
   00000001 00000001    0C    00000838
   00000001 00000001    0C    00000860
   00000001 00000001    0C    00000888
   00000001 00000001    0C    000008B0
   00000001 00000001    0C    00000928
   00000001 00000001    0C    00000950
   00000001 00000001    0C    00000978
   00000001 00000001    0C    000009A0
   00000001 00000001    0C    00000A40
   00000001 00000001    0C    00000A90
   00000001 00000001    0C    00000AB8
   00000001 00000001    0C    00000AE0
   00000001 00000001    0C    00000B08
   00000001 00000001    0C    00000B30
   00000001 00000001    0C    00000B58
   00000001 00000001    0C    00000BD0
   00000001 00000001    0C    00000BF8
   00000001 00000001    0C    00000C20
   00000001 00000001    0C    00000C48
   00000001 00000001    0C    00000CE8
   00000001 00000001    0C    00000D10
   00000001 00000001    0C    00000D38
   00000001 00000001    0C    00000D60
   00000001 00000001    0C    00000DD8
   00000001 00000001    0C    00000E00
   00000001 00000001    0C    00000E28
   00000001 00000001    0C    00000E50
   00000001 00000001    0C    0000130C
   00000001 00000001    0C    00001334
   00000001 00000001    0C    0000135C
   00000001 00000001    0C    00001384
   00000001 00000001    0C    000013AC
   00000001 00000001    0C    000013D4
   00000001 00000001    0C    000013FC
   00000001 00000001    0C    00001424
1EXEC     (EXEC2193) (12:44) (15MAR04) Relocation Dictionary                                                                Page  161
   00000001 00000001    0C    00001A10
   00000001 00000001    0C    00001A1C
   00000001 00000001    0C    00001A24
   00000001 00000001    0C    00001A34
   00000001 00000001    0C    00001A3C
   00000001 00000001    0C    00001BE4
   00000001 00000001    0C    00001D24
   00000001 00000001    0C    00001D4C
   00000001 00000001    0C    00002260
   00000001 00000001    0C    0000226C
   00000001 00000001    0C    00002278
   00000001 00000001    0C    0000227C
   00000001 00000001    0C    00002280
   00000001 00000001    0C    00002284
   00000001 00000001    0C    00002288
   00000001 00000001    0C    0000229C
   00000001 00000001    0C    000022A0
   00000001 00000001    0C    000022BC
   00000001 00000001    0C    000022C0
   00000001 00000001    0C    000022C8
   00000001 00000001    0C    000022D0
   00000001 00000001    0C    00002588
   00000001 00000001    0C    000025AC
   00000001 00000001    0C    000025B0
   00000001 00000001    0C    000025BC
   00000001 00000001    0C    000029C4
   00000001 00000001    0C    000029D0
   00000001 00000001    0C    000029D4
   00000001 00000001    0C    000029D8
   00000001 00000001    0C    000029DC
   00000001 00000001    0C    000029E0
   00000001 00000001    0C    00002A6C
   00000001 00000001    0C    00002A70
   00000001 00000001    0C    00002B0C
   00000001 00000001    0C    00002B34
   00000001 00000001    0C    00002B5C
   00000001 00000001    0C    00002B84
   00000001 00000001    0C    00002BAC
   00000001 00000001    0C    00002BD4
   00000001 00000001    0C    00002BFC
   00000001 00000001    0C    00002C24
   00000001 00000001    0C    00002C4C
   00000001 00000001    0C    00002C74
   00000001 00000001    0C    00002C9C
   00000001 00000001    0C    00002CC4
   00000001 00000001    0C    00002CEC
   00000001 00000001    0C    00002D14
   00000001 00000001    0C    00002D3C
   00000001 00000001    0C    00002D64
   00000001 00000001    0C    00002D8C
   00000001 00000001    0C    00002DB4
   00000001 00000001    0C    00003628
   00000001 00000001    0C    00003654
   00000001 00000001    0C    0000365C
   00000001 00000001    0C    00003670
   00000001 00000001    0C    00003848
   00000001 00000001    0C    00003870
   00000001 00000001    0C    00003898
   00000001 00000001    0C    000038C0
1EXEC     (EXEC2193) (12:44) (15MAR04) Relocation Dictionary                                                                Page  162
   00000001 00000001    0C    000038E8
   00000001 00000001    0C    00003910
   00000001 00000001    0C    00003938
   00000001 00000001    0C    00003960
   00000001 00000001    0C    00003988
   00000001 00000001    0C    000039B0
   00000001 00000001    0C    00003D2C
   00000001 00000001    0C    00003D54
   00000001 00000001    0C    00003D7C
   00000001 00000001    0C    00003DA4
   00000001 00000001    0C    00003E78
   00000001 00000001    0C    00003EA0
   00000001 00000001    0C    00003EA8
   00000001 00000001    0C    00004070
   00000001 00000001    0C    00004098
   00000001 00000001    0C    000040C0
   00000001 00000001    0C    000040E8
   00000001 00000001    0C    00004110
   00000001 00000001    0C    00004138
   00000001 00000001    0C    00004160
   00000001 00000001    0C    00004188
   00000001 00000001    0C    000041B0
   00000001 00000001    0C    000041D8
   00000001 00000001    0C    00004200
   00000001 00000001    0C    00004228
   00000001 00000001    0C    00004250
   00000001 00000001    0C    000042A0
   00000001 00000001    0C    000042C8
   00000001 00000001    0C    000042F0
   00000001 00000001    0C    00004318
   00000001 00000001    0C    00004340
   00000001 00000001    0C    00004368
   00000001 00000001    0C    00004390
   00000001 00000001    0C    000043B8
   00000001 00000001    0C    000043E0
   00000001 00000001    0C    000048A0
   00000001 00000001    0C    000048E4
   00000001 00000001    0C    00004940
   00000001 00000001    0C    00005100
   00000001 00000001    0C    00005104
   00000001 00000001    0C    00005130
   00000001 00000001    0C    00005134
   00000001 00000001    0C    00005144
   00000001 00000001    0C    00005B90
   00000001 00000001    0C    00005B94
   00000001 00000001    0C    00005B9C
   00000001 00000001    0C    00005BD4
   00000001 00000001    0C    00006574
   00000001 00000001    0C    00006580
   00000001 00000001    0C    00006584
   00000001 00000001    0C    0000658C
   00000001 00000001    0C    00006594
   00000001 00000001    0C    0000659C
   00000001 00000001    0C    000065B0
   00000001 00000001    0C    000068F4
   00000001 00000002    1C    00000648
   00000001 00000002    1C    000029C0
   00000001 00000003    1C    00000650
   00000001 00000003    1C    00001A40
1EXEC     (EXEC2193) (12:44) (15MAR04) Relocation Dictionary                                                                Page  163
   00000001 00000003    1C    00002264
   00000001 00000003    1C    000029C8
   00000001 00000003    1C    00003658
   00000001 00000003    1C    00003E7C
   00000001 00000003    1C    000048A4
   00000001 00000003    1C    00006904
   00000001 00000004    1C    00000654
   00000001 00000004    1C    00001A44
   00000001 00000004    1C    00002268
   00000001 00000004    1C    000029CC
   00000001 00000004    1C    00003660
   00000001 00000004    1C    00003E80
   00000001 00000004    1C    000048A8
   00000001 00000004    1C    00006908
   00000001 00000005    1C    00000658
   00000001 00000006    1C    00000664
   00000001 00000007    1C    00000684
   00000001 00000007    1C    00002A64
   00000001 00000008    1C    00000688
   00000001 00000009    1C    0000068C
   00000001 0000000A    1C    00000690
   00000001 0000000A    1C    00002590
   00000001 0000000B    1C    0000069C
   00000001 0000000B    1C    000025B4
   00000001 0000000C    1C    000006A0
   00000001 0000000C    1C    000019E0
   00000001 0000000D    1C    000006A4
   00000001 0000000D    1C    00004908
   00000001 0000000D    1C    00005110
   00000001 0000000D    1C    00005678
   00000001 0000000D    1C    000068E8
   00000001 0000000E    1C    000006AC
   00000001 0000000E    1C    000022C4
   00000001 0000000F    1C    000006B0
   00000001 00000010    1C    000006B4
   00000001 00000011    1C    000006B8
   00000001 00000012    1C    000006BC
   00000001 00000013    1C    000006C0
   00000001 00000014    1C    000006CC
   00000001 00000015    1C    0000076C
   00000001 00000015    1C    00000794
   00000001 00000015    1C    000007BC
   00000001 00000015    1C    000007E4
   00000001 00000015    1C    0000080C
   00000001 00000015    1C    00000834
   00000001 00000015    1C    0000085C
   00000001 00000015    1C    00000884
   00000001 00000015    1C    000008AC
   00000001 00000015    1C    000008D4
   00000001 00000015    1C    000008FC
   00000001 00000015    1C    0000099C
   00000001 00000015    1C    00000A3C
   00000001 00000015    1C    00000A8C
   00000001 00000015    1C    00000AB4
   00000001 00000015    1C    00000ADC
   00000001 00000015    1C    00000B04
   00000001 00000015    1C    00000B2C
   00000001 00000015    1C    00000B54
   00000001 00000015    1C    00000B7C
1EXEC     (EXEC2193) (12:44) (15MAR04) Relocation Dictionary                                                                Page  164
   00000001 00000015    1C    00000BA4
   00000001 00000015    1C    00000C44
   00000001 00000015    1C    00000CE4
   00000001 00000015    1C    00000D0C
   00000001 00000015    1C    00000D34
   00000001 00000015    1C    00000D5C
   00000001 00000015    1C    00000D84
   00000001 00000015    1C    00000DAC
   00000001 00000015    1C    00000E4C
   00000001 00000015    1C    00001308
   00000001 00000015    1C    00001330
   00000001 00000015    1C    00001358
   00000001 00000015    1C    00001380
   00000001 00000015    1C    000013D0
   00000001 00000015    1C    00001420
   00000001 00000015    1C    00001448
   00000001 00000015    1C    00001470
   00000001 00000015    1C    00001D48
   00000001 00000015    1C    00002B08
   00000001 00000015    1C    00002B30
   00000001 00000015    1C    00002B58
   00000001 00000015    1C    00002C48
   00000001 00000015    1C    00002C70
   00000001 00000015    1C    00002C98
   00000001 00000015    1C    00002CC0
   00000001 00000015    1C    00002CE8
   00000001 00000015    1C    00002D10
   00000001 00000015    1C    00002D38
   00000001 00000015    1C    00002D60
   00000001 00000015    1C    00002D88
   00000001 00000015    1C    00002DB0
   00000001 00000015    1C    00002E00
   00000001 00000015    1C    00003844
   00000001 00000015    1C    0000386C
   00000001 00000015    1C    00003894
   00000001 00000015    1C    000038BC
   00000001 00000015    1C    000038E4
   00000001 00000015    1C    0000390C
   00000001 00000015    1C    00003934
   00000001 00000015    1C    0000395C
   00000001 00000015    1C    00003984
   00000001 00000015    1C    000039AC
   00000001 00000015    1C    00003D50
   00000001 00000015    1C    00003D78
   00000001 00000015    1C    00003DA0
   00000001 00000015    1C    0000406C
   00000001 00000015    1C    00004094
   00000001 00000015    1C    000040BC
   00000001 00000015    1C    000040E4
   00000001 00000015    1C    000041AC
   00000001 00000015    1C    000041D4
   00000001 00000015    1C    000041FC
   00000001 00000015    1C    00004224
   00000001 00000015    1C    000042EC
   00000001 00000015    1C    00004314
   00000001 00000015    1C    0000433C
   00000001 00000015    1C    00004364
   00000001 00000015    1C    0000438C
   00000001 00000015    1C    000043B4
1EXEC     (EXEC2193) (12:44) (15MAR04) Relocation Dictionary                                                                Page  165
   00000001 00000016    1C    00000770
   00000001 00000016    1C    000008D8
   00000001 00000016    1C    00000900
   00000001 00000016    1C    00000B80
   00000001 00000016    1C    00000BA8
   00000001 00000016    1C    00000D88
   00000001 00000016    1C    00000DB0
   00000001 00000016    1C    0000144C
   00000001 00000016    1C    00001474
   00000001 00000016    1C    00002E04
   00000001 00000017    1C    00000924
   00000001 00000017    1C    00000BCC
   00000001 00000017    1C    00000DD4
   00000001 00000017    1C    00002BD0
   00000001 00000018    1C    0000094C
   00000001 00000018    1C    00000BF4
   00000001 00000018    1C    00000DFC
   00000001 00000018    1C    00002BA8
   00000001 00000019    1C    00000974
   00000001 00000019    1C    00000C1C
   00000001 00000019    1C    00000E24
   00000001 00000019    1C    00001BE0
   00000001 00000019    1C    00001D20
   00000001 00000019    1C    00002B80
   00000001 00000019    1C    0000415C
   00000001 00000019    1C    00004184
   00000001 00000019    1C    0000429C
   00000001 00000019    1C    000042C4
   00000001 0000001A    1C    000009C8
   00000001 0000001A    1C    00000C70
   00000001 0000001A    1C    00000E78
   00000001 0000001A    1C    000021F8
   00000001 0000001B    1C    000009F0
   00000001 0000001B    1C    00000C98
   00000001 0000001B    1C    00000EA0
   00000001 0000001C    1C    00000A14
   00000001 0000001C    1C    00000CBC
   00000001 0000001C    1C    00000EC4
   00000001 0000001C    1C    00001C08
   00000001 0000001C    1C    00001D70
   00000001 0000001C    1C    0000221C
   00000001 0000001C    1C    00002E28
   00000001 0000001C    1C    000039D4
   00000001 0000001C    1C    00003DC8
   00000001 0000001C    1C    00004134
   00000001 0000001C    1C    00004274
   00000001 0000001C    1C    00004404
   00000001 0000001D    1C    00000A18
   00000001 0000001D    1C    00000CC0
   00000001 0000001D    1C    00000EC8
   00000001 0000001D    1C    00001C0C
   00000001 0000001D    1C    00001D74
   00000001 0000001D    1C    00002220
   00000001 0000001D    1C    00002E2C
   00000001 0000001D    1C    000039D8
   00000001 0000001D    1C    00003DCC
   00000001 0000001D    1C    00004278
   00000001 0000001D    1C    00004408
   00000001 0000001E    1C    00000A68
1EXEC     (EXEC2193) (12:44) (15MAR04) Relocation Dictionary                                                                Page  166
   00000001 0000001F    1C    000013A8
   00000001 0000001F    1C    000013F8
   00000001 00000020    1C    000019E4
   00000001 00000020    1C    00002270
   00000001 00000020    1C    0000362C
   00000001 00000020    1C    000048E8
   00000001 00000021    1C    000019E8
   00000001 00000021    1C    00003620
   00000001 00000022    1C    00001A08
   00000001 00000023    1C    00001A0C
   00000001 00000023    1C    000022A4
   00000001 00000023    1C    00002A7C
   00000001 00000023    1C    000065C8
   00000001 00000024    1C    00001A14
   00000001 00000025    1C    00001A20
   00000001 00000026    1C    00001A2C
   00000001 00000026    1C    000065DC
   00000001 00000027    1C    00001A30
   00000001 00000028    1C    00001A38
   00000001 00000029    1C    00001A48
   00000001 0000002A    1C    00001A50
   00000001 0000002A    1C    00003674
   00000001 0000002A    1C    0000513C
   00000001 0000002A    1C    000065BC
   00000001 0000002B    1C    00001F94
   00000001 0000002C    1C    00002274
   00000001 0000002C    1C    00002A74
   00000001 0000002C    1C    00003E88
   00000001 0000002C    1C    000048E0
   00000001 0000002C    1C    00005118
   00000001 0000002C    1C    000065C0
   00000001 0000002C    1C    000068FC
   00000001 0000002D    1C    0000228C
   00000001 0000002E    1C    00002290
   00000001 0000002E    1C    00005120
   00000001 0000002F    1C    00002294
   00000001 00000030    1C    000022A8
   00000001 00000031    1C    000022AC
   00000001 00000031    1C    00003E94
   00000001 00000031    1C    000065CC
   00000001 00000032    1C    000022B0
   00000001 00000032    1C    00002598
   00000001 00000033    1C    000022CC
   00000001 00000034    1C    000022D4
   00000001 00000035    1C    0000258C
   00000001 00000036    1C    00002594
   00000001 00000037    1C    0000259C
   00000001 00000038    1C    000025A0
   00000001 00000039    1C    000025A4
   00000001 0000003A    1C    000025A8
   00000001 0000003B    1C    000025B8
   00000001 0000003C    1C    000025C0
   00000001 0000003D    1C    00002A4C
   00000001 0000003E    1C    00002A60
   00000001 0000003F    1C    00002A68
   00000001 00000040    1C    00002A78
   00000001 00000040    1C    000065C4
   00000001 00000041    1C    00002A8C
   00000001 00000042    1C    00002BF8
1EXEC     (EXEC2193) (12:44) (15MAR04) Relocation Dictionary                                                                Page  167
   00000001 00000042    1C    00002C20
   00000001 00000043    1C    00002DDC
   00000001 00000044    1C    00003624
   00000001 00000044    1C    00003E9C
   00000001 00000045    1C    00003634
   00000001 00000045    1C    00006568
   00000001 00000046    1C    00003638
   00000001 00000046    1C    00006900
   00000001 00000047    1C    0000363C
   00000001 00000047    1C    000068F8
   00000001 00000048    1C    00003640
   00000001 00000049    1C    00003650
   00000001 0000004A    1C    00003664
   00000001 0000004B    1C    00003668
   00000001 0000004B    1C    00003E74
   00000001 0000004B    1C    00005BA0
   00000001 0000004C    1C    0000366C
   00000001 0000004D    1C    00003D28
   00000001 0000004E    1C    00003E84
   00000001 0000004E    1C    00005B98
   00000001 0000004F    1C    00003E8C
   00000001 00000050    1C    00003E90
   00000001 00000050    1C    000048B0
   00000001 00000050    1C    00005140
   00000001 00000050    1C    00005BA4
   00000001 00000051    1C    00003EB8
   00000001 00000052    1C    0000410C
   00000001 00000052    1C    0000424C
   00000001 00000052    1C    000043DC
   00000001 00000053    1C    000048AC
   00000001 00000054    1C    00005114
   00000001 00000055    1C    00005124
   00000001 00000055    1C    00005670
   00000001 00000056    1C    00005128
   00000001 00000056    1C    000065D4
   00000001 00000057    1C    00005138
   00000001 00000058    1C    00005674
   00000001 00000059    1C    0000567C
   00000001 0000005A    1C    00005BA8
   00000001 0000005B    1C    00006570
   00000001 0000005C    1C    00006578
   00000001 0000005D    1C    0000657C
   00000001 0000005E    1C    000065B4
   00000001 0000005F    1C    000065B8
   00000001 00000060    1C    000065D0
   00000001 00000061    1C    000065D8
   00000001 00000062    1C    000065E0
   00000001 00000063    1C    000065E8
   00000001 00000064    1C    000065F0
   00000001 00000065    1C    000065F4
   00000001 00000066    1C    000065F8
   00000001 00000067    1C    000065FC
   00000001 00000068    1C    00006604
   00000001 00000069    1C    00006608
   00000001 0000006A    1C    0000660C

1EXEC     (EXEC2193) (12:44) (15MAR04) Ordinary Symbol and Literal Cross Reference                                          Page  168
-Symbol   Length   Value     Id    R Type   Defn References                                  HLASM R4.0  2004/03/15 12.44
0$$$@R0        1 00000000 FFFFFFFE     J     705  1007
 $$$@R10       1 00000000 FFFFFFF4     J     835  1071
 $$$@R11       1 00000000 FFFFFFF3     J     848  1084
 $$$@R12       1 00000000 FFFFFFF2     J     861  1097
 $$$@R13       1 00000000 FFFFFFF1     J     874  1110
 $$$@R14       1 00000000 FFFFFFF0     J     887  1123
 $$$@R7        1 00000000 FFFFFFF7     J     796  1020
 $$$@R8        1 00000000 FFFFFFF6     J     809  1033   1045
 $$$@R9        1 00000000 FFFFFFF5     J     822  1058
 $$$C1WYLEXEC
               1 00000749 00000001     J    9299  9301  12268  12661  13123  13508  13707
 $$$C10WYLEXEC
               1 0000568D 00000001     J   29512 29514
 $$$C11WYLEXEC
               1 0000576A 00000001     J   29944 29946  30027  30201  30292  30711  30814  31054  31175  31243  31309
                                                 31375  31446
 $$$C12WYLEXEC
               1 00005C6C 00000001     J   31686 31688  31730  34423  34597  34768  34939
 $$$C13WYLEXEC
               1 00006648 00000001     J   35147 35149  35285
 $$$C14WYLEXEC
               1 00006932 00000001     J   36036 36038
 $$$C15WYLEXEC
               1 00006938 00000001     J   36052 36054
 $$$C2WYLEXEC
               1 00001B3A 00000001     J   13803 13805  14614  14824  15368
 $$$C3WYLEXEC
               1 0000237A 00000001     J   15773 15775
 $$$C4WYLEXEC
               1 000025D1 00000001     J   16496 16498  16596  17268  17945
 $$$C5WYLEXEC
               1 00002AE8 00000001     J   18024 18026  18844  19740  20481  20996
 $$$C6WYLEXEC
               1 000036F6 00000001     J   21076 21078  21106  22544
 $$$C7WYLEXEC
               1 00003F22 00000001     J   23213 23215
 $$$C8WYLEXEC
               1 000049C7 00000001     J   25326 25328
 $$$C9WYLEXEC
               1 00005188 00000001     J   27676 27678  27723  28203  28630  29177
 $$$D1WYLEXEC
               1 00001B28 00000001     J    9300 12650  13112  13696
 $$$D11WYLEXEC
               1 00005C2F 00000001     J   29945 30190  30281  30700  30803  31043  31164  31232  31298  31364  31435
 $$$D13WYLEXEC
               1 0000692C 00000001     J   35148 35274
 $$$D2WYLEXEC
               1 00002374 00000001     J   13804 14813
 $$$D4WYLEXEC
               1 00002ADC 00000001     J   16497 17257  17934
 $$$D5WYLEXEC
               1 000036E3 00000001     J   18025 18833  20470  20985
 $$$RCLXWA
               1 00000000 FFFFFFDF     J   13494 13507  13507
 $$$RCP        1 00000000 FFFFFFEC     J    2454  4714   6188   6188
1EXEC     (EXEC2193) (12:44) (15MAR04) Ordinary Symbol and Literal Cross Reference                                          Page  169
 $$$RCV        1 00000000 FFFFFFEE     J    1179  2364   2364
 $$$RDEV       1 00000000 FFFFFFEB     J    4668  4713   4713
 $$$RERRENTRY
               1 00000000 FFFFFFE2     J    7428  7463   7463
 $$$REXFRSTWA
               1 00000000 FFFFFFD2     J   34409 34422  34422
 $$$REXLASTWA
               1 00000000 FFFFFFD1     J   34583 34596  34596
 $$$REXNEXTWA
               1 00000000 FFFFFFD0     J   34754 34767  34767
 $$$REXPREVWA
               1 00000000 FFFFFFCF     J   34925 34938  34938
 $$$REXWA      1 00000000 FFFFFFE1     J    7565  7645   7645
 $$$RFFINFO
               1 00000000 FFFFFFE8     J    6601  6810   6810
 $$$RJCB       1 00000000 FFFFFFE9     J    6306  6580   6580
 $$$RLDWA      1 00000000 FFFFFFE0     J   12237 12267  12267
 $$$RNSCNCB
               1 00000000 FFFFFFED     J    2375  2448   2448
 $$$RONENTRY
               1 00000000 FFFFFFE3     J    7365  7405   7405
 $$$RPHONWA
               1 00000000 FFFFFFD8     J   27708 27722  27722
 $$$RPHRRWA
               1 00000000 FFFFFFD6     J   28615 28629  28629
 $$$RPPONWA
               1 00000000 FFFFFFD7     J   28188 28202  28202
 $$$RPPRRWA
               1 00000000 FFFFFFD5     J   29162 29176  29176
 $$$RPREWA
               1 00000000 FFFFFFD4     J   29984 30026  30026
 $$$RRDWA      1 00000000 FFFFFFDC     J   16516 16595  16595
 $$$RRSVWA
               1 00000000 FFFFFFDB     J   19726 19739  19739
 $$$RRSWA      1 00000000 FFFFFFDD     J   15353 15367  15367
 $$$RTTYPE
               1 00000000 FFFFFFEA     J    6199  6300   6300
 $$$RVNENTRY
               1 00000000 FFFFFFE6     J    6875  7174   7174
 $$$RVPARM
               1 00000000 FFFFFFE5     J    7187  7201   7201
 $$$RWAITWA
               1 00000000 FFFFFFD9     J   22522 22543  22543
 $$$RWRITWA
               1 00000000 FFFFFFDA     J   21091 21105  21105
 $$$RXCMDAREA
               1 00000000 FFFFFFDE     J   14599 14613  14613
 $$$RXCMDWA
               1 00000000 FFFFFFD3     J   31716 31729  31729
 $$$RXDSNAME
               1 00000000 FFFFFFE7     J    6843  6859   6859
 $$$RXSENTRY
               1 00000000 FFFFFFE4     J    7233  7340   7340
 $$$SEGCB0
               4 00000050 FFFFFFEC     F    2485  2571   2571
 $$$Z2         4 00002224 00000001     F   15728 15480  15509
 $$$Z4         4 0000298C 00000001     F   17988 17044  17766  17790
 $$$Z5         4 000035F4 00000001     F   21046 20645  20728
 $$$Z8         4 00005030 00000001     F   27635 26311
1EXEC     (EXEC2193) (12:44) (15MAR04) Ordinary Symbol and Literal Cross Reference                                          Page  170
 $$$100F       2 000002A4 00000001     H    8264  8252B
 $$$101F       2 000002B2 00000001     H    8287  8275B
 $$$102F       2 000002C8 00000001     H    8321  8312B
 $$$103F       2 000002DA 00000001     H    8345  8332B
 $$$104        1 000000E0 00000001 A   U    8369  8366   8368
 $$$106B       1 00000306 00000001     X    8399  8406U
 $$$107F       2 00000320 00000001     H    8448  8433B
 $$$108F       2 00000338 00000001     H    8479  8460B
 $$$109        1 00000050 00000001 A   U    8497  8494   8496
 $$$111B       1 00000360 00000001     X    8537  8544U
 $$$112F       2 000003A4 00000001     H    8618  8579B
 $$$113F       2 0000039E 00000001     H    8610  8594B
 $$$114F       2 000003E4 00000001     H    8700  8688B
 $$$115F       2 00000430 00000001     H    8798  8731B
 $$$116B       4 00000414 00000001     I    8746  8771
 $$$116F       2 00000422 00000001     H    8767  8746B  8770
 $$$117E       2 00000426 00000001     H    8778  8772
 $$$117F       2 00000430 00000001     H    8794  8774B
 $$$119        1 00000050 00000001 A   U    8858  8855   8857
 $$$121B       1 00000488 00000001     X    8898  8905U
 $$$122F       2 000004C6 00000001     H    8973  8934B
 $$$123F       2 000004C0 00000001     H    8965  8949B
 $$$124F       2 00000512 00000001     H    9063  9051B
 $$$126B       4 0000053E 00000001     I    9113  9130
 $$$126F       2 00000548 00000001     H    9125  9113B  9129
 $$$127E       2 0000054C 00000001     H    9137  9131
 $$$127F       2 0000056A 00000001     H    9171  9133B
 $$$128F       2 0000056A 00000001     H    9167  9149B
 $$$129        1 00000050 00000001 A   U    9237  9234   9236
 $$$131B       1 00000EE6 00000001     X   10070 10077U
 $$$132        1 00000050 00000001 A   U   10115 10112  10114
 $$$134B       1 00000F16 00000001     X   10143 10150U
 $$$135        1 00000050 00000001 A   U   10189 10186  10188
 $$$137B       1 00000F46 00000001     X   10217 10224U
 $$$138        1 00000050 00000001 A   U   10262 10259  10261
 $$$140B       1 00000F76 00000001     X   10290 10297U
 $$$141        1 00000050 00000001 A   U   10335 10332  10334
 $$$143B       1 00000FA6 00000001     X   10362 10369U
 $$$144F       2 00000FBE 00000001     H   10409 10394B
 $$$145F       2 00000FDC 00000001     H   10442 10427B
 $$$146        1 00000050 00000001 A   U   10464 10461  10463
 $$$148B       1 00001006 00000001     X   10491 10498U
 $$$149F       2 00001050 00000001     H   10596 10523B
 $$$150F       2 0000103A 00000001     H   10563 10542B
 $$$151F       2 00001048 00000001     H   10587 10575B
 $$$152        1 00000050 00000001 A   U   10622 10619  10621
 $$$154B       1 00001082 00000001     X   10650 10657U
 $$$155        1 00000050 00000001 A   U   10695 10692  10694
 $$$157B       1 000010B2 00000001     X   10722 10729U
 $$$158F       2 000010CE 00000001     H   10770 10755B
 $$$159        1 00000050 00000001 A   U   10798 10795  10797
 $$$161B       1 000010FC 00000001     X   10825 10832U
 $$$162        1 00000050 00000001 A   U   10866 10863  10865
 $$$164B       1 0000112C 00000001     X   10894 10901U
 $$$165        1 00000050 00000001 A   U   10939 10936  10938
 $$$167B       1 0000115C 00000001     X   10967 10974U
 $$$168        1 00000050 00000001 A   U   11013 11010  11012
 $$$170B       1 0000118C 00000001     X   11041 11048U
 $$$171        1 00000050 00000001 A   U   11098 11095  11097
1EXEC     (EXEC2193) (12:44) (15MAR04) Ordinary Symbol and Literal Cross Reference                                          Page  171
 $$$173B       1 000011C6 00000001     X   11125 11132U
 $$$174F       2 000011DE 00000001     H   11170 11161B
 $$$175        1 00000050 00000001 A   U   11192 11189  11191
 $$$177B       1 00001208 00000001     X   11220 11227U
 $$$178        1 00000050 00000001 A   U   11270 11267  11269
 $$$180B       1 0000123C 00000001     X   11297 11304U
 $$$181B       4 00001242 00000001     I   11328 11347
 $$$181F       2 0000124C 00000001     H   11343 11328B 11346
 $$$182E       2 00001250 00000001     H   11354 11348
 $$$182F       2 0000125C 00000001     H   11374 11350B 11365B
 $$$184        1 00000050 00000001 A   U   11396 11393  11395
 $$$186B       1 00001286 00000001     X   11423 11430U
 $$$187        1 00000050 00000001 A   U   11479 11476  11478
 $$$189B       1 000012CC 00000001     X   11520 11527U
 $$$190        1 00000050 00000001 A   U   11560 11557  11559
 $$$192B       1 000014BA 00000001     X   11755 11762U
 $$$193        1 00000050 00000001 A   U   11794 11791  11793
 $$$195B       1 000014E6 00000001     X   11822 11829U
 $$$196        1 00000050 00000001 A   U   11862 11859  11861
 $$$198B       1 00001512 00000001     X   11890 11897U
 $$$199        1 00000050 00000001 A   U   11937 11934  11936
 $$$201B       1 00001546 00000001     X   11964 11971U
 $$$202F       2 0000155A 00000001     H   12003 11994B
 $$$203        1 00000050 00000001 A   U   12025 12022  12024
 $$$205B       1 00001584 00000001     X   12053 12060U
 $$$206        1 00000050 00000001 A   U   12093 12090  12092
 $$$208B       1 000015B2 00000001     X   12120 12127U
 $$$209B       4 000015B4 00000001     I   12145 12164
 $$$209F       2 000015BE 00000001     H   12160 12145B 12163
 $$$210E       2 000015C2 00000001     H   12171 12165
 $$$210F       2 000015CE 00000001     H   12191 12167B 12182B
 $$$212        1 00000050 00000001 A   U   12213 12210  12212
 $$$214B       1 000015F8 00000001     X   12297 12304U
 $$$215F       2 00001632 00000001     H   12379 12345B
 $$$216        1 0000014C 00000001 A   U   12407 12404  12406
 $$$218B       1 0000165C 00000001     X   12452 12459U
 $$$219F       2 00001696 00000001     H   12535 12501B
 $$$220        1 0000014C 00000001 A   U   12563 12560  12562
 $$$222B       1 000016C0 00000001     X   12595 12602U
 $$$223F       2 000016DE 00000001     H   12666 12642B
 $$$224        6 00001B28 00000001     I   12656 12648X
 $$$225        6 00001B28 00000001     I   12655 12656  12656
 $$$226F       2 00001712 00000001     H   12704 12689B
 $$$227F       2 00001718 00000001     H   12721 12711B
 $$$228        1 00000050 00000001 A   U   12740 12737  12739
 $$$230B       1 00001740 00000001     X   12794 12801U
 $$$231B       4 0000176E 00000001     I   12876 12896
 $$$231F       2 00001774 00000001     H   12888 12864B 12876B 12893
 $$$232B       4 00001766 00000001     I   12864 12894
 $$$233B       4 0000177C 00000001     I   12912 12964
 $$$233E       2 00001778 00000001     H   12903 12895  12897
 $$$233F       2 000017A6 00000001     H   12960 12899B 12912B 12963
 $$$235E       2 000017AA 00000001     H   12971 12965
 $$$235F       2 000017C6 00000001     H   13002 12967B
 $$$236        1 0000014C 00000001 A   U   13026 13023  13025
 $$$238B       1 000017EE 00000001     X   13058 13065U
 $$$239F       2 0000180C 00000001     H   13128 13104B
 $$$240        6 00001B2E 00000001     I   13118 13110X
 $$$241        6 00001B2E 00000001     I   13117 13118  13118
1EXEC     (EXEC2193) (12:44) (15MAR04) Ordinary Symbol and Literal Cross Reference                                          Page  172
 $$$242F       2 00001840 00000001     H   13166 13151B
 $$$243F       2 00001846 00000001     H   13183 13173B
 $$$244F       2 00001858 00000001     H   13216 13202B
 $$$245        1 00000050 00000001 A   U   13235 13232  13234
 $$$247B       1 00001880 00000001     X   13284 13291U
 $$$248F       2 0000190E 00000001     H   13443 13323B
 $$$249F       2 0000190E 00000001     H   13439 13399B
 $$$250F       2 0000190E 00000001     H   13435 13421B
 $$$251        1 00000050 00000001 A   U   13466 13463  13465
 $$$253B       1 00001938 00000001     X   13537 13544U
 $$$254F       2 0000195E 00000001     H   13625 13603B
 $$$255F       2 00001990 00000001     H   13673 13658B
 $$$256F       2 0000199E 00000001     H   13712 13688B
 $$$257        6 00001B34 00000001     I   13702 13694X
 $$$258        6 00001B34 00000001     I   13701 13702  13702
 $$$259        1 0000013C 00000001 A   U   13760 13757  13759
 $$$261B       1 00001B54 00000001     X   13843 13850U
 $$$262        1 00000050 00000001 A   U   13922 13919  13921
 $$$264B       1 00001C2A 00000001     X   13980 13987U
 $$$265F       2 00001C50 00000001     H   14046 14006B
 $$$266        1 00000050 00000001 A   U   14092 14089  14091
 $$$268B       1 00001C84 00000001     X   14130 14137U
 $$$269        1 00000050 00000001 A   U   14220 14217  14219
 $$$271B       1 00001D92 00000001     X   14293 14300U
 $$$272F       2 00001DB8 00000001     H   14359 14319B
 $$$273        1 00000050 00000001 A   U   14405 14402  14404
 $$$275B       1 00001DEC 00000001     X   14432 14439U
 $$$276        1 00000050 00000001 A   U   14473 14470  14472
 $$$278B       1 00001E1C 00000001     X   14511 14518U
 $$$279F       2 00001E30 00000001     H   14554 14539B
 $$$280        1 00000050 00000001 A   U   14588 14585  14587
 $$$282B       1 00001E66 00000001     X   14645 14652U
 $$$283F       2 00001E80 00000001     H   14690 14675B
 $$$284B       4 00001E9C 00000001     I   14736 14762
 $$$284F       2 00001EB0 00000001     H   14756 14736B 14761
 $$$285E       2 00001EB4 00000001     H   14769 14763
 $$$285F       2 00001ED2 00000001     H   14833 14765B
 $$$286F       2 00001EC0 00000001     H   14789 14780B
 $$$287F       2 00001ED2 00000001     H   14829 14805B
 $$$288        6 00002374 00000001     I   14819 14811X
 $$$289        6 00002374 00000001     I   14818 14819  14819
 $$$290        1 00000050 00000001 A   U   14854 14851  14853
 $$$292B       1 00001EFE 00000001     X   14897 14904U
 $$$293        1 00000050 00000001 A   U   14972 14969  14971
 $$$295B       1 00001FB2 00000001     X   15015 15022U
 $$$296F       2 00001FCC 00000001     H   15068 15041B
 $$$297B       4 00001FE4 00000001     I   15099 15115
 $$$297F       2 00001FF0 00000001     H   15112 15099B 15114
 $$$298E       2 00001FF4 00000001     H   15122 15116
 $$$298F       2 00002016 00000001     H   15165 15118B
 $$$299        1 00000050 00000001 A   U   15226 15223  15225
 $$$301B       1 0000205E 00000001     X   15263 15270U
 $$$302F       2 00002072 00000001     H   15306 15291B
 $$$303        1 00000050 00000001 A   U   15341 15338  15340
 $$$305B       1 000020BC 00000001     X   15398 15405U
 $$$306F       2 000020D0 00000001     H   15450 15435B
 $$$307F       2 000020F0 00000001     H   15496 15466B 15481B
 $$$309F       2 000020FC 00000001     H   15520 15510B
 $$$310F       2 0000211E 00000001     H   15553 15533B
1EXEC     (EXEC2193) (12:44) (15MAR04) Ordinary Symbol and Literal Cross Reference                                          Page  173
 $$$311F       2 000021A8 00000001     H   15639 15621B
 $$$311S       2 00002190 00000001     H   15618 15638B
 $$$313        1 00000140 00000001 A   U   15684 15681  15683
 $$$315B       1 00002394 00000001     X   15813 15820U
 $$$316        1 00000050 00000001 A   U   15853 15850  15852
 $$$318B       1 000023C0 00000001     X   15889 15896U
 $$$319        1 00000050 00000001 A   U   15932 15929  15931
 $$$321B       1 000023F4 00000001     X   15967 15974U
 $$$322        1 00000050 00000001 A   U   16025 16022  16024
 $$$324B       1 00002442 00000001     X   16066 16073U
 $$$325        1 00000050 00000001 A   U   16209 16206  16208
 $$$327B       1 000024E2 00000001     X   16246 16253U
 $$$328F       2 000024FE 00000001     H   16288 16272B
 $$$329        1 00000050 00000001 A   U   16310 16307  16309
 $$$331B       1 00002528 00000001     X   16348 16355U
 $$$332        1 00000050 00000001 A   U   16389 16386  16388
 $$$334B       1 0000255E 00000001     X   16427 16434U
 $$$335        1 00000050 00000001 A   U   16468 16465  16467
 $$$337B       1 000025EC 00000001     X   16628 16635U
 $$$338F       2 00002620 00000001     H   16703 16688B
 $$$339F       2 0000262C 00000001     H   16729 16714B
 $$$340F       2 00002638 00000001     H   16755 16740B
 $$$341F       2 0000269E 00000001     H   16818 16806B
 $$$342F       2 000026AC 00000001     H   16841 16829B
 $$$343B       4 000026B0 00000001     I   16854 16870
 $$$343F       2 000026BA 00000001     H   16866 16854B 16869
 $$$344B       4 000026C2 00000001     I   16886 16902
 $$$344E       2 000026BE 00000001     H   16877 16871
 $$$344F       2 000026CC 00000001     H   16898 16873B 16886B 16901
 $$$346E       2 000026D0 00000001     H   16909 16903
 $$$346F       2 000026D6 00000001     H   16918 16905B
 $$$347        1 000004F4 00000001 A   U   16941 16938  16940
 $$$349B       1 000026FE 00000001     X   16975 16982U
 $$$350F       2 00002730 00000001     H   17064 17001B
 $$$351F       2 0000271A 00000001     H   17031 17016B
 $$$352F       2 00002730 00000001     H   17060 17045B
 $$$353F       2 00002782 00000001     H   17192 17093B
 $$$354F       2 0000275E 00000001     H   17125 17112B
 $$$355F       2 00002782 00000001     H   17188 17136B
 $$$356B       4 0000276A 00000001     I   17151 17167
 $$$356F       2 00002776 00000001     H   17164 17151B 17166
 $$$357E       2 0000277A 00000001     H   17174 17168
 $$$357F       2 00002782 00000001     H   17184 17170B
 $$$358F       2 0000279C 00000001     H   17234 17225B
 $$$359F       2 000027AC 00000001     H   17273 17249B
 $$$360        6 00002ADC 00000001     I   17263 17255X
 $$$361        6 00002ADC 00000001     I   17262 17263  17263
 $$$362F       2 00002808 00000001     H   17463 17296B
 $$$363F       2 000027DC 00000001     H   17372 17313B
 $$$365F       2 000027EE 00000001     H   17412 17386B
 $$$367F       2 00002808 00000001     H   17459 17426B
 $$$369        1 00000050 00000001 A   U   17490 17487  17489
 $$$371B       1 00002838 00000001     X   17524 17531U
 $$$372F       2 00002854 00000001     H   17579 17552B 17564B
 $$$374F       2 00002870 00000001     H   17619 17592B 17604B
 $$$376F       2 0000288C 00000001     H   17649 17631B
 $$$377F       2 000028A8 00000001     H   17678 17660B
 $$$378F       2 000028E4 00000001     H   17752 17690B
 $$$379F       2 0000291A 00000001     H   17831 17767B
1EXEC     (EXEC2193) (12:44) (15MAR04) Ordinary Symbol and Literal Cross Reference                                          Page  174
 $$$380F       2 00002912 00000001     H   17804 17791B
 $$$381F       2 0000291A 00000001     H   17827 17814B
 $$$382F       2 0000294A 00000001     H   17887 17847B
 $$$383F       2 0000294A 00000001     H   17883 17868B
 $$$384F       2 00002978 00000001     H   17958 17904B
 $$$385F       2 00002970 00000001     H   17950 17923B
 $$$386        6 00002AE2 00000001     I   17940 17932X
 $$$387        6 00002AE2 00000001     I   17939 17940  17940
 $$$388        1 00000050 00000001 A   U   17978 17975  17977
 $$$390B       1 00002E4A 00000001     X   18373 18380U
 $$$391        1 00000050 00000001 A   U   18413 18410  18412
 $$$393B       1 00002E76 00000001     X   18440 18447U
 $$$394F       2 00002E88 00000001     H   18484 18472B
 $$$395        1 00000050 00000001 A   U   18506 18503  18505
 $$$397B       1 00002EB2 00000001     X   18534 18541U
 $$$398        1 00000050 00000001 A   U   18578 18575  18577
 $$$400B       1 00002EE4 00000001     X   18605 18612U
 $$$401        1 00000050 00000001 A   U   18657 18654  18656
 $$$403B       1 00002F22 00000001     X   18685 18692U
 $$$404        1 00000050 00000001 A   U   18720 18717  18719
 $$$406B       1 00002F52 00000001     X   18748 18755U
 $$$407F       2 00002F62 00000001     H   18786 18774B
 $$$408F       2 00002F72 00000001     H   18809 18800B
 $$$409F       2 00002F84 00000001     H   18849 18825B
 $$$410        6 000036E4 00000001     I   18839 18831X
 $$$411        6 000036E4 00000001     I   18838 18839  18839
 $$$412        1 00000050 00000001 A   U   18871 18868  18870
 $$$414B       1 00002FAE 00000001     X   18899 18906U
 $$$415        1 00000050 00000001 A   U   18939 18936  18938
 $$$417B       1 00002FDA 00000001     X   18967 18974U
 $$$418        1 00000050 00000001 A   U   19006 19003  19005
 $$$420B       1 00003006 00000001     X   19034 19041U
 $$$421        1 00000050 00000001 A   U   19073 19070  19072
 $$$423B       1 00003032 00000001     X   19101 19108U
 $$$424        1 00000050 00000001 A   U   19141 19138  19140
 $$$426B       1 0000305E 00000001     X   19169 19176U
 $$$427        1 00000050 00000001 A   U   19209 19206  19208
 $$$429B       1 0000308A 00000001     X   19237 19244U
 $$$430        1 00000050 00000001 A   U   19276 19273  19275
 $$$432B       1 000030B6 00000001     X   19304 19311U
 $$$433        1 00000050 00000001 A   U   19344 19341  19343
 $$$435B       1 000030E2 00000001     X   19372 19379U
 $$$436        1 00000050 00000001 A   U   19411 19408  19410
 $$$438B       1 0000310E 00000001     X   19444 19451U
 $$$439F       2 00003144 00000001     H   19520 19505B
 $$$440F       2 00003166 00000001     H   19572 19527B
 $$$441F       2 00003192 00000001     H   19609 19590B
 $$$442F       2 000031B0 00000001     H   19639 19625B
 $$$443        1 00000050 00000001 A   U   19696 19693  19695
 $$$445B       1 000031F6 00000001     X   19768 19775U
 $$$446F       2 00003286 00000001     H   19901 19886B
 $$$447F       2 00003298 00000001     H   19925 19916B
 $$$448B       4 0000329A 00000001     I   19939 20108
 $$$448F       2 00003364 00000001     H   20102 19939B 20107
 $$$449F       2 00003358 00000001     H   20091 19957B
 $$$449S       2 000032A6 00000001     H   19951 20090B
 $$$451F       2 00003322 00000001     H   20034 20016B
 $$$452B       4 00003328 00000001     I   20045 20064
 $$$452F       2 00003340 00000001     H   20061 20045B 20063
1EXEC     (EXEC2193) (12:44) (15MAR04) Ordinary Symbol and Literal Cross Reference                                          Page  175
 $$$453E       2 00003344 00000001     H   20071 20065
 $$$453F       2 00003354 00000001     H   20086 20067B
 $$$454E       2 00003368 00000001     H   20115 20109
 $$$454F       2 0000340A 00000001     H   20297 20111B
 $$$455F       2 00003390 00000001     H   20152 20137B
 $$$456F       2 000033B2 00000001     H   20204 20159B
 $$$457F       2 000033DE 00000001     H   20241 20222B
 $$$458F       2 000033FC 00000001     H   20271 20257B
 $$$459        1 00000100 00000001 A   U   20340 20337  20339
 $$$461B       1 00003442 00000001     X   20388 20395U
 $$$462F       2 00003466 00000001     H   20486 20462B
 $$$463        6 000036EA 00000001     I   20476 20468X
 $$$464        6 000036EA 00000001     I   20475 20476  20476
 $$$465        1 00000050 00000001 A   U   20517 20514  20516
 $$$467B       1 000034A6 00000001     X   20578 20585U
 $$$468F       2 000034FA 00000001     H   20712 20646B
 $$$469F       2 000034E0 00000001     H   20692 20664B
 $$$470F       2 00003590 00000001     H   20872 20729B
 $$$471F       2 0000358A 00000001     H   20864 20757B
 $$$471S       2 00003514 00000001     H   20748 20863B
 $$$473F       2 0000353E 00000001     H   20803 20775B
 $$$474F       2 00003582 00000001     H   20858 20836B 20847B
 $$$476        1 00000050 00000001 A   U   20892 20889  20891
 $$$478B       1 000035BC 00000001     X   20945 20952U
 $$$479F       2 000035CE 00000001     H   21001 20977B
 $$$480        6 000036F0 00000001     I   20991 20983X
 $$$481        6 000036F0 00000001     I   20990 20991  20991
 $$$482        1 00000050 00000001 A   U   21036 21033  21035
 $$$484B       1 00003710 00000001     X   21139 21146U
 $$$485F       2 00003746 00000001     H   21224 21209B
 $$$487F       2 000037E6 00000001     H   21388 21354B
 $$$488F       2 00003812 00000001     H   21489 21421B
 $$$490        1 000001A4 00000001 A   U   21513 21510  21512
 $$$492B       1 000039F6 00000001     X   21713 21720U
 $$$493        1 00000050 00000001 A   U   21759 21756  21758
 $$$495B       1 00003A30 00000001     X   21787 21794U
 $$$496        1 00000050 00000001 A   U   21826 21823  21825
 $$$498B       1 00003A5C 00000001     X   21854 21861U
 $$$499        1 00000050 00000001 A   U   21897 21894  21896
 $$$501B       1 00003A8C 00000001     X   21925 21932U
 $$$502        1 00000050 00000001 A   U   21965 21962  21964
 $$$504B       1 00003AB8 00000001     X   21993 22000U
 $$$505        1 00000050 00000001 A   U   22033 22030  22032
 $$$507B       1 00003AE4 00000001     X   22061 22068U
 $$$508        1 00000050 00000001 A   U   22100 22097  22099
 $$$510B       1 00003B10 00000001     X   22128 22135U
 $$$511        1 00000050 00000001 A   U   22168 22165  22167
 $$$513B       1 00003B3C 00000001     X   22196 22203U
 $$$514        1 00000050 00000001 A   U   22235 22232  22234
 $$$516B       1 00003B68 00000001     X   22263 22270U
 $$$517        1 00000050 00000001 A   U   22302 22299  22301
 $$$519B       1 00003B94 00000001     X   22330 22337U
 $$$520        1 00000050 00000001 A   U   22369 22366  22368
 $$$522B       1 00003BC0 00000001     X   22411 22418U
 $$$523F       2 00003BE2 00000001     H   22473 22447B 22460B
 $$$525        1 00000050 00000001 A   U   22516 22513  22515
 $$$527B       1 00003C18 00000001     X   22577 22584U
 $$$528F       2 00003C90 00000001     H   22686 22671B
 $$$529F       2 00003CA2 00000001     H   22715 22705B
1EXEC     (EXEC2193) (12:44) (15MAR04) Ordinary Symbol and Literal Cross Reference                                          Page  176
 $$$530F       2 00003CC8 00000001     H   22761 22728B
 $$$531F       2 00003CD4 00000001     H   22783 22773B
 $$$532F       2 00003CF4 00000001     H   22853 22800B 22813B
 $$$534        1 00000054 00000001 A   U   22877 22874  22876
 $$$536B       1 00003DEA 00000001     X   22983 22990U
 $$$537        1 00000050 00000001 A   U   23023 23020  23022
 $$$539B       1 00003E1A 00000001     X   23051 23058U
 $$$540        1 00000050 00000001 A   U   23094 23091  23093
 $$$542B       1 00003E48 00000001     X   23121 23128U
 $$$543        1 00000050 00000001 A   U   23169 23166  23168
 $$$545B       1 00003F3C 00000001     X   23263 23270U
 $$$546        1 00000050 00000001 A   U   23336 23333  23335
 $$$548B       1 00003FC0 00000001     X   23368 23375U
 $$$549F       2 00003FEE 00000001     H   23430 23398B
 $$$550F       2 00003FEE 00000001     H   23426 23413B
 $$$551        1 00000050 00000001 A   U   23466 23463  23465
 $$$553B       1 0000402C 00000001     X   23496 23503U
 $$$554        1 00000050 00000001 A   U   23537 23534  23536
 $$$556B       1 00004426 00000001     X   23937 23944U
 $$$557F       2 0000445E 00000001     H   24015 23964B
 $$$558        1 00000050 00000001 A   U   24073 24070  24072
 $$$560B       1 000044E2 00000001     X   24103 24110U
 $$$561F       2 00004508 00000001     H   24170 24130B
 $$$562F       2 0000451E 00000001     H   24204 24190B
 $$$563        1 00000050 00000001 A   U   24226 24223  24225
 $$$565B       1 00004548 00000001     X   24255 24262U
 $$$566        1 00000050 00000001 A   U   24306 24303  24305
 $$$568B       1 0000457A 00000001     X   24335 24342U
 $$$569B       4 00004586 00000001     I   24375 24399
 $$$569F       2 00004592 00000001     H   24396 24375B 24398
 $$$569T       2 0000458A 00000001     H   24378 24365B
 $$$571E       2 00004596 00000001     H   24406 24400
 $$$571F       2 000045A2 00000001     H   24418 24402B
 $$$572        1 00000050 00000001 A   U   24440 24437  24439
 $$$574B       1 000045CC 00000001     X   24469 24476U
 $$$575        1 00000050 00000001 A   U   24510 24507  24509
 $$$577B       1 00004606 00000001     X   24545 24552U
 $$$578F       2 0000463E 00000001     H   24623 24572B
 $$$579        1 00000050 00000001 A   U   24681 24678  24680
 $$$581B       1 000046C2 00000001     X   24711 24718U
 $$$582F       2 000046E8 00000001     H   24778 24738B
 $$$583F       2 00004704 00000001     H   24818 24797B
 $$$584        1 00000050 00000001 A   U   24840 24837  24839
 $$$586B       1 0000472E 00000001     X   24869 24876U
 $$$587        1 00000050 00000001 A   U   24934 24931  24933
 $$$589B       1 0000476A 00000001     X   24964 24971U
 $$$590B       4 00004776 00000001     I   25004 25035
 $$$590F       2 00004788 00000001     H   25032 25004B 25034
 $$$590T       2 0000477A 00000001     H   25007 24994B
 $$$592E       2 0000478C 00000001     H   25042 25036
 $$$592F       2 00004798 00000001     H   25054 25038B
 $$$593        1 00000050 00000001 A   U   25076 25073  25075
 $$$595B       1 000047C2 00000001     X   25106 25113U
 $$$596        1 00000050 00000001 A   U   25149 25146  25148
 $$$598B       1 000047F0 00000001     X   25177 25184U
 $$$599        1 00000050 00000001 A   U   25221 25218  25220
 $$$601B       1 0000481E 00000001     X   25250 25257U
 $$$602        1 00000050 00000001 A   U   25291 25288  25290
 $$$604B       1 000049E2 00000001     X   25363 25370U
1EXEC     (EXEC2193) (12:44) (15MAR04) Ordinary Symbol and Literal Cross Reference                                          Page  177
 $$$605        1 00000050 00000001 A   U   25414 25411  25413
 $$$607B       1 00004A18 00000001     X   25449 25456U
 $$$608        1 00000050 00000001 A   U   25514 25511  25513
 $$$610B       1 00004A58 00000001     X   25558 25565U
 $$$611        1 00000050 00000001 A   U   25609 25606  25608
 $$$613B       1 00004A86 00000001     X   25655 25662U
 $$$614        1 00000050 00000001 A   U   25715 25712  25714
 $$$616B       1 00004ABA 00000001     X   25758 25765U
 $$$617F       2 00004ACC 00000001     H   25810 25788B 25800B
 $$$619B       4 00004AD6 00000001     I   25825 25967
 $$$619F       2 00004B1C 00000001     H   25963 25825B 25966
 $$$620F       2 00004AEA 00000001     H   25855 25844B
 $$$621F       2 00004B00 00000001     H   25893 25871B 25883B
 $$$621S       2 00004AEA 00000001     H   25861 25892B
 $$$624B       4 00004B02 00000001     I   25904 25917
 $$$624F       2 00004B0C 00000001     H   25914 25904B 25916
 $$$625E       2 00004B10 00000001     H   25924 25918
 $$$625F       2 00004B12 00000001     H   25933 25920B
 $$$626F       2 00004B1C 00000001     H   25959 25946B
 $$$627E       2 00004B20 00000001     H   25974 25968
 $$$627F       2 00004B22 00000001     H   25984 25970B
 $$$628B       4 00004B24 00000001     I   25996 26016
 $$$628F       2 00004B38 00000001     H   26011 25996B 26015
 $$$629E       2 00004B3C 00000001     H   26023 26017
 $$$629F       2 00004BD4 00000001     H   26163 26019B
 $$$630F       2 00004B96 00000001     H   26101 26092B
 $$$631        1 00000050 00000001 A   U   26186 26183  26185
 $$$633B       1 00004BFE 00000001     X   26236 26243U
 $$$634F       2 00004C10 00000001     H   26288 26266B 26278B
 $$$636F       2 00004C24 00000001     H   26321 26312B
 $$$637F       2 00004C50 00000001     H   26356 26346B
 $$$638B       4 00004C62 00000001     I   26376 26462
 $$$638F       2 00004CDA 00000001     H   26459 26376B 26461
 $$$639E       2 00004CDE 00000001     H   26469 26463
 $$$639F       2 00004CEE 00000001     H   26484 26465B
 $$$640B       4 00004CF2 00000001     I   26497 26515
 $$$640F       2 00004D08 00000001     H   26512 26497B 26514
 $$$641E       2 00004D0C 00000001     H   26522 26516
 $$$641F       2 00004D1E 00000001     H   26534 26518B
 $$$642        1 00000050 00000001 A   U   26557 26554  26556
 $$$644B       1 00004D48 00000001     X   26604 26611U
 $$$645F       2 00004D56 00000001     H   26652 26642B
 $$$646F       2 00004D92 00000001     H   26717 26673B
 $$$647F       2 00004D7E 00000001     H   26704 26694B
 $$$648F       2 00004DAC 00000001     H   26746 26730B
 $$$649F       2 00004E28 00000001     H   26842 26759B
 $$$650F       2 00004E40 00000001     H   26873 26855B
 $$$651        1 00000050 00000001 A   U   26896 26893  26895
 $$$653B       1 00004E6A 00000001     X   26949 26956U
 $$$654F       2 00004E78 00000001     H   26997 26987B
 $$$655F       2 00004E92 00000001     H   27044 27010B 27022B 27034B
 $$$658F       2 00004EA8 00000001     H   27084 27058B
 $$$659F       2 00004EBE 00000001     H   27121 27109B
 $$$659T       2 00004EB8 00000001     H   27112 27099B
 $$$661F       2 00004F36 00000001     H   27301 27138B 27150B
 $$$663F       2 00004EF8 00000001     H   27230 27185B
 $$$663T       2 00004EDE 00000001     H   27188 27175B
 $$$665F       2 00004EF8 00000001     H   27226 27204B
 $$$666F       2 00004F1C 00000001     H   27277 27267B
1EXEC     (EXEC2193) (12:44) (15MAR04) Ordinary Symbol and Literal Cross Reference                                          Page  178
 $$$667F       2 00004F8C 00000001     H   27422 27330B
 $$$667T       2 00004F46 00000001     H   27333 27320B
 $$$669F       2 00004F8C 00000001     H   27418 27345B
 $$$670F       2 00004F72 00000001     H   27394 27384B
 $$$671F       2 00004FDA 00000001     H   27521 27437B
 $$$672        1 00000050 00000001 A   U   27617 27614  27616
 $$$674B       1 000051A2 00000001     X   27753 27760U
 $$$675F       2 0000528E 00000001     H   28123 27839B
 $$$675T       2 000051CA 00000001     H   27842 27805B 27817B 27829B
 $$$679F       2 000051E2 00000001     H   27879 27864B
 $$$680F       2 000051EE 00000001     H   27905 27890B
 $$$681F       2 000051FA 00000001     H   27931 27916B
 $$$682F       2 00005206 00000001     H   27957 27942B
 $$$683F       2 0000521E 00000001     H   27985 27973B
 $$$684F       2 0000523A 00000001     H   28014 28002B
 $$$685F       2 0000526C 00000001     H   28074 28052B
 $$$685T       2 00005264 00000001     H   28055 28042B
 $$$687F       2 0000528E 00000001     H   28118 28101B
 $$$687T       2 0000527C 00000001     H   28104 28091B
 $$$689        1 00000238 00000001 A   U   28151 28148  28150
 $$$691B       1 000052B8 00000001     X   28233 28240U
 $$$692B       4 000052D6 00000001     I   28287 28328
 $$$692F       2 000052EA 00000001     H   28323 28287B 28327
 $$$693E       2 000052EE 00000001     H   28335 28329
 $$$693F       2 00005372 00000001     H   28552 28331B
 $$$694F       2 0000530A 00000001     H   28390 28375B
 $$$695F       2 00005316 00000001     H   28416 28401B
 $$$696F       2 00005322 00000001     H   28442 28427B
 $$$697F       2 0000532E 00000001     H   28468 28453B
 $$$698F       2 00005350 00000001     H   28508 28493B
 $$$698T       2 0000533E 00000001     H   28496 28483B
 $$$700F       2 00005372 00000001     H   28548 28533B
 $$$700T       2 00005360 00000001     H   28536 28523B
 $$$702        1 00000238 00000001 A   U   28580 28577  28579
 $$$704B       1 0000539C 00000001     X   28660 28667U
 $$$705F       2 000054C8 00000001     H   29093 28722B
 $$$705T       2 000053B4 00000001     H   28725 28712B
 $$$707F       2 000053D2 00000001     H   28763 28748B
 $$$708F       2 000053DE 00000001     H   28789 28774B
 $$$709F       2 000053FE 00000001     H   28834 28802B
 $$$710F       2 000053FE 00000001     H   28830 28820B
 $$$711F       2 00005422 00000001     H   28880 28847B
 $$$712F       2 0000541E 00000001     H   28875 28865B
 $$$713F       2 00005446 00000001     H   28926 28893B
 $$$714F       2 00005442 00000001     H   28921 28911B
 $$$715F       2 00005466 00000001     H   28971 28939B
 $$$716F       2 00005466 00000001     H   28967 28957B
 $$$717F       2 00005486 00000001     H   29016 28984B
 $$$718F       2 00005486 00000001     H   29012 29002B
 $$$719F       2 000054AA 00000001     H   29062 29029B
 $$$720F       2 000054A6 00000001     H   29057 29047B
 $$$721        1 0000033C 00000001 A   U   29121 29118  29120
 $$$723B       1 000054F2 00000001     X   29207 29214U
 $$$724B       4 00005510 00000001     I   29261 29288
 $$$724F       2 0000551C 00000001     H   29283 29261B 29287
 $$$725E       2 00005520 00000001     H   29295 29289
 $$$725F       2 000055BC 00000001     H   29451 29291B
 $$$726F       2 00005534 00000001     H   29336 29321B
 $$$727F       2 00005540 00000001     H   29362 29347B
1EXEC     (EXEC2193) (12:44) (15MAR04) Ordinary Symbol and Literal Cross Reference                                          Page  179
 $$$728F       2 00005590 00000001     H   29411 29375B
 $$$729F       2 000055BC 00000001     H   29446 29424B
 $$$730        1 0000033C 00000001 A   U   29479 29476  29478
 $$$732B       1 000056A8 00000001     X   29551 29558U
 $$$733F       2 000056C0 00000001     H   29615 29601B
 $$$734        1 00000050 00000001 A   U   29641 29638  29640
 $$$736B       1 000056EC 00000001     X   29685 29692U
 $$$737F       2 00005704 00000001     H   29750 29729B
 $$$738        1 00000050 00000001 A   U   29769 29766  29768
 $$$740B       1 0000572C 00000001     X   29815 29822U
 $$$741F       2 0000575A 00000001     H   29906 29852B
 $$$742F       2 0000575A 00000001     H   29902 29880B
 $$$743        1 00000050 00000001 A   U   29925 29922  29924
 $$$745B       1 00005784 00000001     X   30061 30068U
 $$$746F       2 000057AC 00000001     H   30134 30125B
 $$$747F       2 000057C0 00000001     H   30161 30152B
 $$$748F       2 000057E2 00000001     H   30223 30179B
 $$$749        6 00005C30 00000001     I   30196 30188X
 $$$750        6 00005C30 00000001     I   30195 30196  30196
 $$$751F       2 000057E2 00000001     H   30219 30209B
 $$$752F       2 00005AF6 00000001     H   31484 30236B
 $$$752S       2 000057E2 00000001     H   30230 31483B
 $$$754F       2 00005856 00000001     H   30408 30254B
 $$$755F       2 00005804 00000001     H   30298 30270B
 $$$756        6 00005C36 00000001     I   30287 30279X
 $$$757        6 00005C36 00000001     I   30286 30287  30287
 $$$758B       4 0000580A 00000001     I   30311 30326
 $$$758F       2 00005818 00000001     H   30321 30311B 30325
 $$$759B       4 0000582C 00000001     I   30360 30388
 $$$759E       2 0000581C 00000001     H   30333 30327
 $$$759F       2 00005846 00000001     H   30384 30329B 30360B 30387
 $$$759T       2 00005830 00000001     H   30363 30348B
 $$$762E       2 0000584A 00000001     H   30395 30389
 $$$762F       2 00005854 00000001     H   30402 30391B
 $$$763F       2 00005A7E 00000001     H   31270 30424B
 $$$764F       2 00005882 00000001     H   30491 30465B 30477B
 $$$766F       2 0000589A 00000001     H   30531 30508B 30520B
 $$$766S       2 00005882 00000001     H   30497 30530B
 $$$769F       2 000058AE 00000001     H   30557 30544B
 $$$77B        1 0000003C 00000001     X    7502  7509U
 $$$770F       2 000058BA 00000001     H   30582 30568B
 $$$771F       2 000058CC 00000001     H   30622 30596B 30608B
 $$$773F       2 00005A7E 00000001     H   31266 30649B
 $$$773T       2 000058DC 00000001     H   30652 30639B
 $$$775F       2 000058EC 00000001     H   30679 30668B
 $$$776F       2 000058FC 00000001     H   30717 30689B
 $$$777        6 00005C3C 00000001     I   30706 30698X
 $$$778        6 00005C3C 00000001     I   30705 30706  30706
 $$$779F       2 00005950 00000001     H   30856 30730B
 $$$78         1 00000050 00000001 A   U    7549  7546   7548
 $$$780F       2 0000592C 00000001     H   30781 30770B
 $$$781F       2 00005940 00000001     H   30820 30792B
 $$$782        6 00005C42 00000001     I   30809 30801X
 $$$783        6 00005C42 00000001     I   30808 30809  30809
 $$$784F       2 00005950 00000001     H   30845 30832B
 $$$785F       2 00005A02 00000001     H   31096 30868B
 $$$786F       2 00005978 00000001     H   30914 30905B
 $$$787F       2 0000598A 00000001     H   30939 30924B
 $$$788F       2 000059CC 00000001     H   30996 30951B
1EXEC     (EXEC2193) (12:44) (15MAR04) Ordinary Symbol and Literal Cross Reference                                          Page  180
 $$$789F       2 000059DE 00000001     H   31021 31010B
 $$$790F       2 000059F2 00000001     H   31060 31032B
 $$$791        6 00005C48 00000001     I   31049 31041X
 $$$792        6 00005C48 00000001     I   31048 31049  31049
 $$$793F       2 00005A02 00000001     H   31085 31072B
 $$$794F       2 00005A7E 00000001     H   31262 31108B
 $$$795F       2 00005A24 00000001     H   31141 31128B
 $$$796F       2 00005A38 00000001     H   31181 31153B
 $$$797        6 00005C4E 00000001     I   31170 31162X
 $$$798        6 00005C4E 00000001     I   31169 31170  31170
 $$$799F       2 00005A4E 00000001     H   31210 31197B
 $$$80B        1 0000007E 00000001     X    7676  7683U
 $$$800F       2 00005A5E 00000001     H   31248 31220B
 $$$801        6 00005C54 00000001     I   31238 31230X
 $$$802        6 00005C54 00000001     I   31237 31238  31238
 $$$803F       2 00005A90 00000001     H   31314 31287B
 $$$804        6 00005C5A 00000001     I   31304 31296X
 $$$805        6 00005C5A 00000001     I   31303 31304  31304
 $$$806F       2 00005AF2 00000001     H   31479 31321B
 $$$807F       2 00005AE6 00000001     H   31455 31336B
 $$$808F       2 00005AB2 00000001     H   31381 31353B
 $$$809        6 00005C60 00000001     I   31370 31362X
 $$$81F        2 00000096 00000001     H    7738  7723B
 $$$810        6 00005C60 00000001     I   31369 31370  31370
 $$$811F       2 00005AC2 00000001     H   31406 31393B
 $$$812F       2 00005AE6 00000001     H   31451 31424B
 $$$813        6 00005C66 00000001     I   31441 31433X
 $$$814        6 00005C66 00000001     I   31440 31441  31441
 $$$815F       2 00005AF2 00000001     H   31475 31466B
 $$$816        1 0000049C 00000001 A   U   31514 31511  31513
 $$$818B       1 00005B24 00000001     X   31548 31555U
 $$$819        1 00000050 00000001 A   U   31588 31585  31587
 $$$821B       1 00005B58 00000001     X   31617 31624U
 $$$822        1 00000050 00000001 A   U   31657 31654  31656
 $$$824B       1 00005C86 00000001     X   31759 31766U
 $$$825F       2 00005CAC 00000001     H   31847 31821B 31834B
 $$$825S       2 00005C94 00000001     H   31813 31846B
 $$$828F       2 00005CC0 00000001     H   31884 31859B 31872B
 $$$83F        2 000000BA 00000001     H    7796  7781B
 $$$830F       2 00005D5E 00000001     H   32157 31909B 31920B
 $$$832F       2 00005D02 00000001     H   31988 31939B
 $$$833F       2 00005D02 00000001     H   31984 31971B
 $$$833T       2 00005CFC 00000001     H   31974 31960B
 $$$835F       2 00005D1A 00000001     H   32031 32006B 32017B
 $$$835S       2 00005D02 00000001     H   31996 32030B
 $$$838F       2 00005D3C 00000001     H   32092 32048B 32059B
 $$$84F        2 000000C6 00000001     H    7822  7807B
 $$$840F       2 00005D3C 00000001     H   32088 32075B
 $$$841F       2 00005D5E 00000001     H   32153 32109B 32120B
 $$$843F       2 00005D5E 00000001     H   32149 32136B
 $$$844        1 000001A0 00000001 A   U   32186 32183  32185
 $$$846B       1 00005D88 00000001     X   32234 32241U
 $$$847B       4 00005DA6 00000001     I   32301 32422
 $$$847F       2 00005DFE 00000001     H   32417 32290B 32301B 32419
 $$$848B       4 00005DA0 00000001     I   32290 32420
 $$$849F       2 00005DB8 00000001     H   32323 32313B
 $$$85F        2 000000D2 00000001     H    7848  7833B
 $$$850F       2 00005DC6 00000001     H   32341 32331B
 $$$851F       2 00005DD4 00000001     H   32359 32349B
1EXEC     (EXEC2193) (12:44) (15MAR04) Ordinary Symbol and Literal Cross Reference                                          Page  181
 $$$852F       2 00005DE2 00000001     H   32377 32367B
 $$$853F       2 00005DF0 00000001     H   32395 32385B
 $$$854F       2 00005DFE 00000001     H   32413 32403B
 $$$855E       2 00005E02 00000001     H   32429 32421  32423
 $$$855F       2 00005E04 00000001     H   32438 32425B
 $$$856        1 000001A0 00000001 A   U   32461 32458  32460
 $$$858B       1 00005E2C 00000001     X   32508 32515U
 $$$859F       2 00005E3C 00000001     H   32559 32546B
 $$$86B        4 000000D6 00000001     I    7864  7913
 $$$86F        2 00000132 00000001     H    7909  7864B  7912
 $$$860F       2 00005E48 00000001     H   32585 32572B
 $$$861F       2 00005E54 00000001     H   32611 32598B
 $$$862F       2 00005E60 00000001     H   32637 32624B
 $$$863        1 00000050 00000001 A   U   32655 32652  32654
 $$$865B       1 00005E88 00000001     X   32701 32708U
 $$$866F       2 00005EBE 00000001     H   32770 32750B
 $$$867B       4 00005EC6 00000001     I   32787 32808
 $$$867F       2 00005EE8 00000001     H   32804 32787B 32807
 $$$868B       4 00005EF2 00000001     I   32826 32845
 $$$868E       2 00005EEC 00000001     H   32815 32809
 $$$868F       2 00005F08 00000001     H   32841 32811B 32826B 32844
 $$$87B        4 0000013A 00000001     I    7929  7982
 $$$87E        2 00000136 00000001     H    7920  7914
 $$$87F        2 0000019C 00000001     H    7978  7916B  7929B  7981
 $$$870B       4 00005F12 00000001     I   32863 32887
 $$$870E       2 00005F0C 00000001     H   32852 32846
 $$$870F       2 00005F34 00000001     H   32884 32848B 32863B 32886
 $$$872E       2 00005F38 00000001     H   32894 32888
 $$$872F       2 00005F3A 00000001     H   32901 32890B
 $$$873F       2 00005F70 00000001     H   32975 32917B
 $$$874F       2 00005F70 00000001     H   32971 32952B
 $$$874T       2 00005F5E 00000001     H   32955 32939B
 $$$876F       2 00005F8A 00000001     H   33010 32990B
 $$$877F       2 00005FC0 00000001     H   33110 33031B
 $$$878B       4 00005FA4 00000001     I   33060 33078
 $$$878F       2 00005FAE 00000001     H   33072 33048B 33060B 33075
 $$$879B       4 00005F9C 00000001     I   33048 33076
 $$$880E       2 00005FB2 00000001     H   33085 33077  33079
 $$$880F       2 00005FC0 00000001     H   33106 33081B 33094B
 $$$882F       2 00005FD2 00000001     H   33143 33131B
 $$$883F       2 00005FE0 00000001     H   33168 33156B
 $$$884        1 00000050 00000001 A   U   33195 33192  33194
 $$$886B       1 00006016 00000001     X   33229 33236U
 $$$887        1 00000050 00000001 A   U   33338 33335  33337
 $$$889B       1 0000607A 00000001     X   33372 33379U
 $$$89E        2 000001A0 00000001     H    7989  7983
 $$$89F        2 00000200 00000001     H    8043  7985B  7998B
 $$$890F       2 000060FA 00000001     H   33547 33407B 33421B
 $$$892F       2 000060EA 00000001     H   33517 33484B
 $$$894        1 00000050 00000001 A   U   33570 33567  33569
 $$$896B       1 00006128 00000001     X   33615 33622U
 $$$897F       2 00006158 00000001     H   33671 33657B
 $$$898        1 00000050 00000001 A   U   33692 33689  33691
 $$$900B       1 00006184 00000001     X   33741 33748U
 $$$901F       2 000061B0 00000001     H   33797 33783B
 $$$902        1 00000050 00000001 A   U   33818 33815  33817
 $$$904B       1 000061DC 00000001     X   33865 33872U
 $$$905F       2 0000620E 00000001     H   33924 33910B
 $$$906F       2 0000621C 00000001     H   33949 33936B
1EXEC     (EXEC2193) (12:44) (15MAR04) Ordinary Symbol and Literal Cross Reference                                          Page  182
 $$$907        1 00000050 00000001 A   U   33970 33967  33969
 $$$909B       1 00006248 00000001     X   34017 34024U
 $$$91F        2 00000226 00000001     H    8103  8070B
 $$$91T        2 00000210 00000001     H    8073  8060B
 $$$910F       2 0000627A 00000001     H   34076 34062B
 $$$911F       2 00006288 00000001     H   34101 34088B
 $$$912        1 00000050 00000001 A   U   34122 34119  34121
 $$$914B       1 000062B4 00000001     X   34167 34174U
 $$$915F       2 000062E6 00000001     H   34226 34212B
 $$$916F       2 000062F4 00000001     H   34251 34238B
 $$$917        1 00000050 00000001 A   U   34272 34269  34271
 $$$919B       1 00006320 00000001     X   34316 34323U
 $$$920F       2 00006350 00000001     H   34372 34358B
 $$$921        1 00000050 00000001 A   U   34393 34390  34392
 $$$923B       1 0000637C 00000001     X   34453 34460U
 $$$924B       4 0000639E 00000001     I   34508 34524
 $$$924F       2 000063A8 00000001     H   34521 34508B 34523
 $$$925E       2 000063AC 00000001     H   34531 34525
 $$$925F       2 000063B2 00000001     H   34541 34527B
 $$$926        1 00000054 00000001 A   U   34567 34564  34566
 $$$928B       1 000063DE 00000001     X   34627 34634U
 $$$929B       4 00006400 00000001     I   34676 34692
 $$$929F       2 0000640A 00000001     H   34689 34676B 34691
 $$$93F        2 00000226 00000001     H    8099  8085B
 $$$930E       2 0000640E 00000001     H   34699 34693
 $$$930F       2 00006414 00000001     H   34709 34695B
 $$$931        1 00000054 00000001 A   U   34735 34732  34734
 $$$933B       1 00006440 00000001     X   34798 34805U
 $$$934B       4 00006460 00000001     I   34847 34863
 $$$934F       2 0000646A 00000001     H   34860 34847B 34862
 $$$935E       2 0000646E 00000001     H   34870 34864
 $$$935F       2 00006474 00000001     H   34880 34866B
 $$$936        1 00000054 00000001 A   U   34906 34903  34905
 $$$938B       1 000064A0 00000001     X   34969 34976U
 $$$939B       4 000064C0 00000001     I   35018 35034
 $$$939F       2 000064CA 00000001     H   35031 35018B 35033
 $$$94F        2 00000244 00000001     H    8142  8116B  8128B
 $$$940E       2 000064CE 00000001     H   35041 35035
 $$$940F       2 000064D4 00000001     H   35051 35037B
 $$$941        1 00000054 00000001 A   U   35077 35074  35076
 $$$943B       1 00006662 00000001     X   35195 35202U
 $$$944F       2 000066BA 00000001     H   35300 35242B
 $$$944S       2 00006682 00000001     H   35235 35299B
 $$$946F       2 000066B2 00000001     H   35293 35263B
 $$$947        6 0000692C 00000001     I   35280 35272X
 $$$948        6 0000692C 00000001     I   35279 35280  35280
 $$$949        1 00000050 00000001 A   U   35328 35325  35327
 $$$951B       1 000066EC 00000001     X   35367 35374U
 $$$952        1 00000050 00000001 A   U   35410 35407  35409
 $$$954B       1 0000671E 00000001     X   35454 35461U
 $$$955F       2 00006764 00000001     H   35581 35483B
 $$$956F       2 00006764 00000001     H   35577 35530B
 $$$956T       2 00006752 00000001     H   35533 35508B 35520B
 $$$959F       2 00006764 00000001     H   35573 35548B 35561B
 $$$96F        2 00000288 00000001     H    8216  8153B
 $$$961        1 00000050 00000001 A   U   35599 35596  35598
 $$$963B       1 0000678C 00000001     X   35648 35655U
 $$$964B       4 00006792 00000001     I   35683 35800
 $$$964F       2 0000680E 00000001     H   35797 35683B 35799
1EXEC     (EXEC2193) (12:44) (15MAR04) Ordinary Symbol and Literal Cross Reference                                          Page  183
 $$$965F       2 000067FE 00000001     H   35785 35712B
 $$$966E       2 00006812 00000001     H   35807 35801
 $$$966F       2 00006894 00000001     H   35911 35803B
 $$$967        1 00000050 00000001 A   U   35931 35928  35930
 $$$969B       1 000068C0 00000001     X   35972 35979U
 $$$97F        2 00000268 00000001     H    8184  8168B
 $$$970        1 00000050 00000001 A   U   36005 36002  36004
 $$$98F        2 00000284 00000001     H    8211  8195B
 $$$99F        2 00000296 00000001     H    8241  8229B
 @RAR          0 00000000 FFFFFFF0     @    1124  2162   2170B
 @R0           0 00000000 FFFFFFFE     @     706   982U
 @R1           0 00000000 FFFFFFFD     @     719   978U  2168   2169  10541  10574  10588  12655  13117  13420  13701
                                                 14818  17262  17939M 18838  20475  20835  20990  22459  30299  30345
                                                 30359  30376  30379  30507  30595  30950  31237M 31303  31440M 31833
                                                 31840  31871  31878  31938  31970  32005  32047  32108  35489  35547
                                                 35560
 @R10          0 00000000 FFFFFFF4     @     836   942U
 @R11          0 00000000 FFFFFFF3     @     849   938U
 @R12          0 00000000 FFFFFFF2     @     862   934U
 @R13          0 00000000 FFFFFFF1     @     875   930U 19876  26159  26455  26838
 @R14          0 00000000 FFFFFFF0     @     888   926U 19966  20025M 20077M 26030M 26062  26386M 26418  26769M 26801
 @R15          0 00000000 FFFFFFEF     @     901   922U 17365U 17939  21483U 22847U
 @R2           0 00000000 FFFFFFFC     @     732   974U 13639M 13645M 13701M 19704U 20348U 21521U 25870  30851U 31091U
                                                 32194U 32469U 32663U 35939U
 @R3           0 00000000 FFFFFFFB     @     745   970U 20756  22711  25843  30115U 30142U 30377U 30464  35223U
 @R4           0 00000000 FFFFFFFA     @     758   966U 20539U 20914U 30286M 30316M 30317  30378M 30380  30397M 30398
                                                 30705M 30808M 31048M 31169M 31369M 31440
 @R5           0 00000000 FFFFFFF9     @     771   962U 19711U 20355U 20532U 20907U 30286  30705  31169  31369
 @R6           0 00000000 FFFFFFF8     @     784   958U  9245U 11489U 12748U 13243U 13474U 13631U 14863U 20525U 20900U
                                                 22377U 23178U 26904U 27626U 28159U 28588U 29129U 29487U 29649U 29777U
                                                 29933U
 @R7           0 00000000 FFFFFFF7     @     797   954U  7538U  8358U  8486U  8847U  9226U 10104U 10178U 10251U 10324U
                                                 10453U 10611U 10684U 10787U 10855U 10928U 11002U 11087U 11181U 11259U
                                                 11385U 11468U 11549U 11783U 11851U 11926U 12014U 12082U 12202U 12396U
                                                 12552U 12729U 13015U 13224U 13455U 13749U 13911U 14081U 14209U 14394U
                                                 14462U 14577U 14843U 14961U 15215U 15330U 15673U 15842U 15921U 16014U
                                                 16198U 16299U 16378U 16457U 16930U 17479U 17967U 18402U 18495U 18567U
                                                 18646U 18709U 18860U 18928U 18995U 19062U 19130U 19198U 19265U 19333U
                                                 19400U 19685U 20329U 20506U 20881U 21025U 21502U 21748U 21815U 21886U
                                                 21954U 22022U 22089U 22157U 22224U 22291U 22358U 22505U 22866U 23012U
                                                 23083U 23158U 23325U 23455U 23526U 24062U 24215U 24295U 24429U 24499U
                                                 24670U 24829U 24923U 25065U 25138U 25210U 25280U 25403U 25503U 25598U
                                                 25704U 26175U 26546U 26885U 27606U 28140U 28569U 29110U 29468U 29630U
                                                 29758U 29914U 31503U 31577U 31646U 32175U 32450U 32644U 33184U 33327U
                                                 33559U 33681U 33807U 33959U 34111U 34261U 34382U 34556U 34724U 34895U
                                                 35066U 35317U 35399U 35588U 35920U 35994U
 @R8           0 00000000 FFFFFFF6     @     810   950U  8353U 12391U 12547U 13010U 13744U 15668U 16925U 20324U 21497U
                                                 22861U 28135U 28564U 29105U 29463U 31498U 32170U 32445U 34551U 34719U
                                                 34890U 35061U
 @R9           0 00000000 FFFFFFF5     @     823   946U
 ABSCENT       1 00000000 00000000 A   T    2178  2178
 ACTCHK        1 00000000 00000007     T    9274  9274  18008
 ALLOWATN      2 000056D2 00000001     H   29666 21051  23200  29662
 ASCTBL        1 00000000 00000000 A   T    2186  2186
 ATTNIDLN      1 00000008 00000001 A   U    7468 26680  26681  26705  26736  27671
 ATTNLINE      1 00000000 00000044     T   21050 21050  23199
 BLTBL         1 00000000 00000000 A   T    2188  2188
 BR            7 00000007 00000001 A   #    1014  7497M  7671M  8394M  8532M  8893M 10065M 10138M 10212M 10285M 10357M
                                                 10486M 10645M 10717M 10820M 10889M 10962M 11036M 11120M 11215M 11292M
1EXEC     (EXEC2193) (12:44) (15MAR04) Ordinary Symbol and Literal Cross Reference                                          Page  184
                                                 11418M 11515M 11750M 11817M 11885M 11959M 12048M 12115M 12292M 12447M
                                                 12590M 12789M 13053M 13279M 13532M 13838M 13975M 14125M 14288M 14427M
                                                 14506M 14640M 14892M 15010M 15258M 15393M 15808M 15884M 15962M 16061M
                                                 16241M 16343M 16422M 16623M 16970M 17519M 18368M 18435M 18529M 18600M
                                                 18680M 18743M 18894M 18962M 19029M 19096M 19164M 19232M 19299M 19367M
                                                 19439M 19763M 20383M 20573M 20940M 21134M 21708M 21782M 21849M 21920M
                                                 21988M 22056M 22123M 22191M 22258M 22325M 22406M 22572M 22978M 23046M
                                                 23116M 23258M 23363M 23491M 23932M 24098M 24250M 24330M 24464M 24540M
                                                 24706M 24864M 24959M 25101M 25172M 25245M 25358M 25444M 25553M 25650M
                                                 25753M 26231M 26599M 26944M 27748M 28228M 28655M 29202M 29546M 29680M
                                                 29810M 30056M 31543M 31612M 31754M 32229M 32503M 32696M 33224M 33367M
                                                 33610M 33736M 33860M 34012M 34162M 34311M 34448M 34622M 34793M 34964M
                                                 35190M 35362M 35449M 35643M 35967M
 BTD           1 00000000 00000030     T   15751 15751
 CALXPROC      2 0000191E 00000001     H   13516  9293
 CASEPSH       1 00000000 00000043     T   18317 18317
 CHECKEND      1 00000000 0000005A     T   31677 31677
 CHECKIOB      1 00000000 00000000 A   T    2234  2234
 CHECKNSW      2 00006704 00000001     H   35435 21062  31671  36024
 CHKEXEC       2 0000250E 00000001     H   16329 16325  16493
 CHKLOOP       2 000017D4 00000001     H   13039 13787
 CHKXOLD       2 00002544 00000001     H   16408 15756  16404
 CHKXOLD       1 00000000 00000008     T    9275  9275
 CHKXPROC      2 00001866 00000001     H   13265 13789
 CLRALIST      1 00000000 00000035     T   16481 16481
 CLRATTN       2 00004A6C 00000001     H   25636 25632  27651
 CLRERROR      2 00004A3E 00000001     H   25539 25535  27650
 CLREX         2 00002044 00000001     H   15244  9273  13783  15240
 CLREX         1 00000000 00000034     T   15762 15762
 CLRPSH        1 00000000 0000001A     T    9556  9556   9812  10008  15705
 CLRTEXT       1 00000000 0000000E     T    9284  9284  15758
 CLRVSTK       1 00000000 0000000A     T    9277  9277  16482
 CLXCMD      235 00000000 FFFFFFDF     C   13500 13566M 13567M 13633  13647  13716  13719
 CLXWA       235 00000000 FFFFFFDF     J   13507 13529  13558U 13757  13759  13760
 COLLPSH       1 00000000 0000002B     T   14989 14989
 COMMAND       1 00000000 00000000 A   T    2174  2174
 COMMENT       2 00003BA6 00000001     H   22392 22388
 COMMSEG       1 00000000 00000000 A   T    2175  2175
 CP         4096 00000000 FFFFFFEC     J    6188  1163U
 CP#XFILE      1 00000006 FFFFFFEC A   U    3930 16103  16109
 CP#XLOAD      4 00000784 FFFFFFEC     F    4155  8566M  8804   8825M  8825   8921M  9183   9204M  9204  12360M 12360
                                                 12516M 12516  12670  12927M 12927  12983M 12983  13132
 CP#XOLD       1 00000002 FFFFFFEC A   U    3917  7525   8565   8920  15310  15316  15755  15989  16445  35112
 CP#XSET       4 00000778 FFFFFFEC     F    4151  7526M  8804M  9183M 15465  15480  15509  15990M 16366  26437  26820
                                                 27481  27563  32916  33030  33507  33633  33883  34035  34186  34335
                                                 34487  34655  34826  34997
 CP#XSTK       1 00000010 FFFFFFEC A   U    3920  3921
 CPACFLG       1 000005D5 FFFFFFEC     R    4023  4027   4032   4037   4042   4047
 CPACFLN       4 000005C4 FFFFFFEC     F    4015  4050   4050
 CPACHCT       4 000005B4 FFFFFFEC     F    3980 15649M 15649  17878  17879M
 CPAFLAG       1 000005C3 FFFFFFEC     R    3987  3991   3996   4001   4006
 CPANAME       8 00000588 FFFFFFEC     C    3969  4065   4065
 CPATTNCT      2 000008A0 FFFFFFEC     H    4324 24814M 24814  24912M 24912  25028M 25028  25492M 25492  25692M 25692
                                                 29864  29866M 29879
 CPAUTFLG      1 000008A9 FFFFFFEC     R    4333  4337   4342   4347   4352
 CPCHFLAG      1 00000B68 FFFFFFEC     R    4960  4964
 CPCMD       235 00000242 FFFFFFEC     C    2813 13500  13719M 13729  14606  15747  20990M 21012  26081  27254  27255
                                                 27293  27371  27372  27410  32794  32831  33172  33303
 CPCMDLEN      2 00000240 FFFFFFEC     H    2812 13718M 13730  17833M 20962M 21013  26082  27278M 27292  27395M 27409
1EXEC     (EXEC2193) (12:44) (15MAR04) Ordinary Symbol and Literal Cross Reference                                          Page  185
                                                 32800M 32837M 33171  33307
 CPCWA         4 00000CA4 FFFFFFEC     F    5212 12323M 12479M 12612  12821M 13074  13301
 CPDFLG        1 0000084C FFFFFFEC     R    4220  4224   4229   4234   4239   4244
 CPDFLG2       1 0000084D FFFFFFEC     R    4249  4253   4258   4263   4268   4273   4278
 CPDOUB        8 00000C88 FFFFFFEC     D    5206 15157
 CPERRID       8 00000886 FFFFFFEC     C    4319  7469   7470   8175M  8202M 14037M 14350M 15544M 16279M 23514M 24161M
                                                 24487M 24769M 25268M 26311  26317M 26322  26323  32761M 32875M
 CPESCAPE      1 000008BA FFFFFFEC     C    4395 16179M 30114  30345  30464  30507
 CPEXCMCT      2 000008B4 FFFFFFEC     H    4392 33392  33393M 33432M 33432
 CPEXEC       32 000004A4 FFFFFFEC     X    3894  7521   8561   8916  15309  15985  16085  16444
 CPEXFLG       1 00000758 FFFFFFEC     R    4089  4093
 CPEXFLG2      1 00000759 FFFFFFEC     R    4099  4108   4118
 CPEXFLG3      1 0000075A FFFFFFEC     R    4125  4129   4134
 CPEXLINE      4 0000075C FFFFFFEC     F    4142  8160   8832M  8832   9211M  9211  15322M 15642M 26439  26822  27483
                                                 27565  32737  32792M 32795  32832  32936  32951  32989  33001M 33001
                                                 33263  33483  33509
 CPEXNEXT      4 00000760 FFFFFFEC     F    4143  8317M  8839M  8839   9218M  9218  17367M 21485M 22849M 32774  32792
                                                 32793M 32825  32862  32868M 32902M
 CPEXTFLG      1 00000E28 FFFFFFEC     R    5771  5775   5780   5785   5790   5795   5800
 CPFABORT    128 00000D5A FFFFFFEC         5537  2138M  2138   2143M  2143  25799  26277  27033  27080M 27108  27253M
                                                 27329  27370M 27462M 27544M
 CPFALL        1 00000010 FFFFFFEC A   U    5303  7751  10420
 CPFCASE      32 00000D57 FFFFFFEC         5477 17135  17902  17902  17903
 CPFCLEAN    128 00000C7B FFFFFFEC         5090 22284M
 CPFCLEAR     16 00000D55 FFFFFFEC         5417  8459   8593   8625M  8758   8758   8759M  8948   8980M
 CPFCMDMD    128 00000C78 FFFFFFEC         5022 17441  17441  17442  17442
 CPFDDATN     64 0000047A FFFFFFEC         3710 24796  24898M 25003  25021M 25478M 27291M 27838  27941  28100  28319M
                                                 28364M 28464M 29898M
 CPFDDERR     64 00000479 FFFFFFEC         3690 24189  24284M 24374  24392M 25392M 27408M 27814  27889  28051  28070M
                                                 28305M 28350M 28412M
 CPFDEBUG    128 0000084C FFFFFFEC         4224 33130
 CPFERROR     64 00000D5A FFFFFFEC         5542  2137M  2137   2142M  2142  25787  26265  27021  27073M 27096  27246M
                                                 27317  27363M 27455M 27537M
 CPFEXEC     128 00000758 FFFFFFEC         4093  8295M 14538  14568M 15835M 23963  24571  26375  26496  26758  26854
                                                 26986
 CPFFORCE      4 00000C7C FFFFFFEC         5150 22351M
 CPFIDSET    128 00000D5B FFFFFFEC         5562 26672  26729
 CPFINATN     32 0000047A FFFFFFEC         3715 24905M 25127M 25199M 25485M
 CPFINFOP      4 00000E54 FFFFFFEC     A    5819 13570
 CPFKEEP       8 00000D55 FFFFFFEC         5422  8432
 CPFLISXP      8 00000C78 FFFFFFEC         5042 17440  17440  17442  17442
 CPFLOG        8 0000084C FFFFFFEC         4244 10921M 10995M 11776M 11844M 15040  27172  27215M 33047
 CPFLOW       32 000004C4 FFFFFFEC     X    3897  7523   8563   8918  15315  15987  16090
 CPFMON      128 0000084F FFFFFFEC         4291 33155
 CPFNCUR      64 00000D57 FFFFFFEC         5472 12331M 12487M 12843M
 CPFNECHO     64 00000C7B FFFFFFEC         5095 18921M 18988M
 CPFNLST       1 00000020 FFFFFFEC A   U    5391  8784
 CPFNMOD      16 00000C7C FFFFFFEC         5140 19191M 19258M 22015M 22082M
 CPFNONL     128 00000C7A FFFFFFEC         5070 21353  21432M 21808M 21879M
 CPFNONUM      1 000000C0 FFFFFFEC A   U    5390 17448
 CPFNPT       64 00000C7D FFFFFFEC         5170 33116M
 CPFNTEX       1 00000040 FFFFFFEC A   U    5389  5390
 CPFNUMXP     32 00000C78 FFFFFFEC         5032 17440  17440  17441  17441  17443M
 CPFNWARN      4 00000D55 FFFFFFEC         5427  8758   8758
 CPFONATN    128 0000047A FFFFFFEC         3705 24807M 24891M 24991  25014M 25471M 27149  27285M 27826  27915  28088
                                                 28312M 28357M 28438M 29891M
 CPFONERR    128 00000479 FFFFFFEC         3685 24200M 24277M 24362  24385M 25385M 27344  27402M 27802  27863  28039
                                                 28063M 28298M 28343M 28386M
 CPFRDACT      1 00000D89 FFFFFFEC         5705  7780  16687
1EXEC     (EXEC2193) (12:44) (15MAR04) Ordinary Symbol and Literal Cross Reference                                          Page  186
 CPFRDEXE      2 00000D89 FFFFFFEC         5715  7765M  7832  16739
 CPFRDEXT      3 00000D89 FFFFFFEC         5725  7806  16713
 CPFRDRNG      1 00000D88 FFFFFFEC     R    5657  5661   5666   5671   5676   5681   5686   5691
 CPFRDSRC      1 00000D89 FFFFFFEC     R    5696  5705   5715   5725
 CPFRQUIT     16 00000D5A FFFFFFEC         5552 13212M
 CPFTRAN     128 00000C7C FFFFFFEC         5125 19055M 19123M 21875M 21947M
 CPFTYPED     16 00000477 FFFFFFEC         3594 13728M 17470M 17867  33022M
 CPFUFMT       8 00000C7C FFFFFFEC         5145 19326M 19393M 22150M 22217M
 CPFUNUM       1 00000080 FFFFFFEC A   U    5388  5390
 CPFUPPER     16 00000D57 FFFFFFEC         5482 17150  17902  17902
 CPFXAUTH     64 0000075A FFFFFFEC         4134  8666M  9021M
 CPFXAUTHLIB
             128 0000075A FFFFFFEC         4129  8659M  9014M
 CPFXDFLG      1 000007E4 FFFFFFEC     R    4167  4171   4176
 CPFXLOG      16 0000084C FFFFFFEC         4239 27184  27222M 33093
 CPFXOLD       2 00000759 FFFFFFEC         4118  8301M 19915  33059
 CPFXOVER    128 000007FD FFFFFFEC         4199  8673M  9028M
 CPFXQT       64 000007E4 FFFFFFEC         4176  8652M  9007M 16161M
 CPFXTEND      1 00000759 FFFFFFEC         4108  7722  15290  15434  30543
 CPFXXATN     16 0000047A FFFFFFEC         3720 25679M 26660M 28721  28773  28983  29028  29088M 29279M 29310M 29358M
 CPFXXERR     32 00000479 FFFFFFEC         3695 25582M 26296M 28709  28747  28801  28846  28892  28938  29081M 29272M
                                                 29303M 29332M
 CPGFLG1       1 00000474 FFFFFFEC     R    3530  3534   3539   3544   3549   3554   3884   3884
 CPGFLG10      1 0000047D FFFFFFEC     R    3767  3771   3776   3781   3786   3791   3796
 CPGFLG11      1 0000047E FFFFFFEC     R    3802  3806   3811
 CPGFLG12      1 0000047F FFFFFFEC     R    3817  3821   3826   3831
 CPGFLG13      1 00000480 FFFFFFEC     R    3837  3841
 CPGFLG14      1 00000481 FFFFFFEC     R    3847  3851   3856   3861   3866   3871
 CPGFLG4       1 00000477 FFFFFFEC     R    3583  3594   3603   3612   3621   3630
 CPGFLG5       1 00000478 FFFFFFEC     R    3636  3640   3645   3650   3655   3660   3665   3670   3675
 CPGFLG6       1 00000479 FFFFFFEC     R    3681  3685   3690   3695
 CPGFLG7       1 0000047A FFFFFFEC     R    3701  3705   3710   3715   3720
 CPGFLG8       1 0000047B FFFFFFEC     R    3726  3730   3735   3740   3745
 CPGFLG9       1 0000047C FFFFFFEC     R    3751  3755   3761
 CPINIT        1 00000174 FFFFFFEC     U    2700  6157
 CPJESFLG      1 000009E1 FFFFFFEC     R    4432  4436   4441   4446   4451   4456   4461   4466   4471
 CPJESFLY      1 000009FD FFFFFFEC     R    4482  4486   4491   4496
 CPJESHFL      1 000009E0 FFFFFFEC     R    4417  4421   4426   4505   4505
 CPLCNO        4 0000073C FFFFFFEC     F    4074 12625  13087
 CPLFLG1       1 00000D50 FFFFFFEC     R    5300  7753M 10420
 CPLFLG10      1 00000D59 FFFFFFEC     R    5523  5527
 CPLFLG11      1 00000D5A FFFFFFEC     R    5533  5537   5542   5547   5552
 CPLFLG12      1 00000D5B FFFFFFEC     R    5558  5562
 CPLFLG14      1 00000D5C FFFFFFEC     R    5568  5572   5577   5582   5587   5592
 CPLFLG5       1 00000D54 FFFFFFEC     R    5385  8786M 17450M
 CPLFLG6       1 00000D55 FFFFFFEC     R    5398  5402   5407   5412   5417   5422   5427
 CPLFLG7       1 00000D56 FFFFFFEC     R    5433  5437   5442   5447   5452   5457
 CPLFLG8       1 00000D57 FFFFFFEC     R    5463  5467   5472   5477   5482
 CPLFLG9       1 00000D58 FFFFFFEC     R    5488  5492   5497   5502   5507   5512   5517
 CPLIMIT       2 000007E0 FFFFFFEC     H    4162  8674   9029  11069M 11069  11147M 11160  11166  11912M 11912  11980M
                                                 11993  11999  15098M 15098  15146
 CPLLIMIT      2 000007E2 FFFFFFEC     H    4163  8674M  9029M 11076M 11076  11160  11166M 11248M 11248  11339M 11339
                                                 11364  11370M 11919M 11919  11993  11999M 12075M 12075  12156M 12156
                                                 12181  12187M 33406M 33406  33420
 CPLOCALZ      1 00000C48 FFFFFFEC     U    4990  6151   6151
 CPMFLG        1 0000084F FFFFFFEC     R    4287  4291
 CPMODFLG      1 00000C78 FFFFFFEC     R    5018  5022   5027   5032   5037   5042
 CPNAMELN      1 00000010 FFFFFFEC A   U    3913  4160
 CPNEDPFX     10 00000E29 FFFFFFEC     X    5804  5805   5806
1EXEC     (EXEC2193) (12:44) (15MAR04) Ordinary Symbol and Literal Cross Reference                                          Page  187
 CPNSCANP      4 0000008C FFFFFFEC     A    2573  7871   7878   7894   7940   7947   7963   8005   8012   8028  10549
                                                 13343  13352  13359  13374  13388  13863  13870  13886  14160  14167
                                                 14183  14713  14915  14922  14938  15558  15565  15581  16760  16767
                                                 16783  19487  19655  19665  19836  19842  19849  19864  19873  19965
                                                 19973  19980  19995  20024  20052  20076  20119  20287  20304  21190
                                                 21240  21249  21256  21272  22429  22627  22634  22650  23283  23290
                                                 23306  23387  24020  24027  24043  24628  24635  24651  31801  31888
                                                 32270  35822  35831  35838  35853
 CPNUMFLG      1 00000C79 FFFFFFEC     R    5048  5060
 CPORVCMD      1 00000140 FFFFFFEC     R    2582  2586   2591   2596   2601   2606   2611   2616   2621   2626   2626
                                                  2677   2677
 CPORVFLG      1 00000149 FFFFFFEC     R    2633  2637   2642   2647   2652   2657   2662   2667   2672
 CPORVWF       1 00000150 FFFFFFEC     R    2685  2689
 CPOSCANX      4 00000CA8 FFFFFFEC     F    5217  5284   5284
 CPR          11 0000000B 00000001 A   #    1078  1163U
 CPRACBAD     16 000001FC FFFFFFEC         2751  2785   2785   2786   2786
 CPRACF1       1 000001FC FFFFFFEC     R    2732  2736   2741   2746   2751   2756   2761   2766   2771   2787
 CPRACPSW     32 000001FC FFFFFFEC         2746  2784   2784   2786   2786
 CPRACUND     64 000001FC FFFFFFEC         2741  2784   2784   2785   2785
 CPRCVCUR      4 00000730 FFFFFFEC     A    4068  4070   4070
 CPRETURN      4 00000764 FFFFFFEC     F    4144  8212M
 CPRFLG        1 000008AA FFFFFFEC     R    4358  4362   4367   4372   4377   4382   4387
 CPRGEXEC      4 0000077C FFFFFFEC     F    4152  7522M  8802M  9181M 15986M 16365  26438  26821  27482  27564  33508
                                                 33634  33641  33760  33767  33884  33891  34036  34043  34185  34193
                                                 34334  34342  34488  34495  34656  34663  34827  34834  34998  35005
 CPRGFC        4 0000078C FFFFFFEC     F    4157  8564M  8803   8818M  8818   8919M  9182   9197M  9197  12374M 12374
                                                 12530M 12530  12941M 12941  12997M 12997
 CPRGFLOW      4 00000780 FFFFFFEC     F    4153  7524M  8803M  9182M 15988M
 CPRGLOAD      4 00000788 FFFFFFEC     F    4156  8562M  8802   8811M  8811   8917M  9181   9190M  9190  12367M 12367
                                                 12523M 12523  12669  12675  12934M 12934  12990M 12990  13131  13137
 CPRG16       32 00000524 FFFFFFEC     X    3907 16102
 CPRG64       32 00000544 FFFFFFEC     X    3910 16108
 CPRG64NL      1 00000040 FFFFFFEC A   U    3912  6862   6863
 CPS         254 00000344 FFFFFFEC     X    3502  3505   3506   3508   3508
 CPSACCT       5 000003B4 FFFFFFEC     C    3101  3264   3264
 CPSAMCOD      1 00000A22 FFFFFFEC     R    4554  4562   4572   4582   4591   4600   4609   4619   4628   4637
 CPSAMFLG      1 00000A21 FFFFFFEC     R    4514  4518   4523   4528   4533   4538   4543   4548   4659   4659
 CPSCNFLG      1 00000CD0 FFFFFFEC     R    5230  5241   5250   5261
 CPSCNF2       1 00000CD1 FFFFFFEC     R    5266  5270
 CPSCNMAX      1 00000014 FFFFFFEC A   U    5282  5283
 CPSCOPD       4 0000076C FFFFFFEC     F    4147 32951
 CPSCOPE       4 00000768 FFFFFFEC     F    4146 32936
 CPSCRI        2 00000434 FFFFFFEC     H    3491  3496   3496
 CPSEG        60 00000050 FFFFFFEC     X    2571 11452  12951  14030  14066  14343  14379  15060  15082  15138  15185
                                                 15203  17708  17737  19557  20189  21325  21339  21380  21409  22493
                                                 22746  23982  24000  24154  24590  24608  24762  26029  26030  26030
                                                 26034  26054  26062  26076  26125  26143  26159M 26385  26386  26386
                                                 26390  26410  26418  26432  26455M 26768  26769  26769  26773  26793
                                                 26801  26815  26838M 27476  27508  27558  27590  27669  30973  33258
                                                 33287  33315  33450  33468  33502  33538  35730  35758  35776  35884
                                                 35902
 CPSEGCOD      1 00000050 FFFFFFEC     R    2488  2497   2507   2517   2527   2537   2547   2557
 CPSEGLENF
               4 0000005C FFFFFFEC     A    2563 25815  26148  26444  26827
 CPSEGLOC      4 00000070 FFFFFFEC     A    2567 25814  25909  26002  26149  26445  26828
 CPSEGRTN      4 00000074 FFFFFFEC     A    2568 26062M 26062  26418M 26418  26801M 26801
 CPSFL         1 00000384 FFFFFFEC     R    2839  2843   2848   2853   2858   2863
 CPSFLG        1 000003F8 FFFFFFEC     R    3379  3383   3388   3393   3398   3403   3408   3413   3418
 CPSFLG2       1 000003F9 FFFFFFEC     R    3424  3428   3433   3438
1EXEC     (EXEC2193) (12:44) (15MAR04) Ordinary Symbol and Literal Cross Reference                                          Page  188
 CPSFL2        1 00000385 FFFFFFEC     R    2869  2873   2878   2883   2888
 CPSFL3        1 00000386 FFFFFFEC     R    2894  2898   2903   2908
 CPSFL4        1 00000387 FFFFFFEC     R    2914  2918   2923   2928
 CPSFL5        1 00000388 FFFFFFEC     R    2934  2938   2943   2948
 CPSFUPL     128 000003F8 FFFFFFEC         3383 17111
 CPSKAFL       1 000003BF FFFFFFEC     R    3235  3239   3244   3249   3254   3259
 CPSKIFL       1 000003BE FFFFFFEC     R    3190  3194   3199   3204   3209   3214   3219   3224   3229
 CPSKIP        1 000008BB FFFFFFEC     C    4396 16186M 30141  30316  30359  30397
 CPSOF         1 000001F8 FFFFFFEC     X    2722  2724   2724
 CPSOFLAG      1 00000416 FFFFFFEC     R    3449  3453   3458   3463   3468   3473
 CPSOPST       4 000003C4 FFFFFFEC     F    3269  3498   3498
 CPSPORT       8 00000354 FFFFFFEC     C    2833  2953   2953
 CPSQFLG       1 000003EC FFFFFFEC     R    3298  3302
 CPSSFLG       1 000003BB FFFFFFEC     R    3108  3112   3117   3122   3127   3132   3137
 CPSSTART      4 00000344 FFFFFFEC     F    2825  2829   2829   3265   3265   3370   3370   3502   3502
 CPSSTAT       1 0000038F FFFFFFEC     R    3045  3049   3054   3059   3064   3069   3074   3079
 CPSTACF       1 000003BC FFFFFFEC     R    3143  3147   3152   3157   3162   3167   3172   3177   3182
 CPSTART       4 00000000 FFFFFFEC     C    2461  6155   6159
 CPSTFLAG      1 000003EA FFFFFFEC     R    3276  3280   3285   3290
 CPSTYPE       1 0000038C FFFFFFEC     R    2958  2967   2977   2987   2997   3007   3017   3027   3037
 CPSUFLG       1 000003EE FFFFFFEC     R    3313  3317   3322   3327   3332   3337   3342   3347   3352
 CPSUFLG2      1 000003EF FFFFFFEC     R    3358  3362   3367
 CPSVPGM       8 0000039C FFFFFFEC     C    3091  3097   3097
 CPS1ST        4 0000038C FFFFFFEC     F    2955  3500   3500
 CPTEMPP#      1 0000005F FFFFFFEC A   U    4408  4410
 CPTRMFL1      1 00000C7A FFFFFFEC     R    5066  5070   5075   5080   5204   5204
 CPTRMFL2      1 00000C7B FFFFFFEC     R    5086  5090   5095   5100   5105   5110   5115
 CPTRMFL3      1 00000C7C FFFFFFEC     R    5121  5125   5130   5135   5140   5145   5150   5155
 CPTRMFL4      1 00000C7D FFFFFFEC     R    5161  5165   5170   5175   5180   5185   5190   5195
 CPTRMIN       2 00000C80 FFFFFFEC     H    5201 17068M
 CPUSED        1 00000FBC FFFFFFEC A   U    6155  6156
 CPVACURS      8 00000AF0 FFFFFFEC     D    4933  4934   4935
 CPVARS       32 000004E4 FFFFFFEC     X    3900 16095
 CPVCURS       8 00000AE0 FFFFFFEC     D    4927  4928   4929
 CPVFLAG       1 00000AC8 FFFFFFEC     R    4728  4732   4737   4742   4747   4752
 CPVFLAG2      1 00000AC9 FFFFFFEC     R    4758  4762   4767   4772   4777   4782   4787
 CPVFLAG3      1 00000ACA FFFFFFEC     R    4793  4797   4802   4807   4812   4817   4822
 CPVFLAG4      1 00000ACB FFFFFFEC     R    4828  4832   4837   4842
 CPVLFLAG      1 00000ACE FFFFFFEC     R    4897  4901   4906   4911
 CPVMODE       1 00000ACC FFFFFFEC     R    4850  4854   4859   4864   4869   4874   4879   4884   4889
 CPVSET#       4 00000844 FFFFFFEC     F    4210 26503
 CPVTWID       2 00000AD0 FFFFFFEC     H    4917  4920   4920
 CPWK1         4 00000D60 FFFFFFEC     F    5601  5616   5639
 CPWK2         4 00000D64 FFFFFFEC     F    5602  5617   5631
 CPWK3         4 00000D68 FFFFFFEC     F    5603  5618   5632
 CPWK4         4 00000D6C FFFFFFEC     F    5604  5619   5633
 CPWK5         4 00000D70 FFFFFFEC     F    5605  5621   5626   5634
 CPWK6         4 00000D74 FFFFFFEC     F    5606  5622   5627   5635   5642   5644
 CPWK7         4 00000D78 FFFFFFEC     F    5607  5620   5636
 CPXCMDP       4 000008C8 FFFFFFEC     A    4399 14673  14686M 14752M 14752
 CPXFLAG       1 000007FD FFFFFFEC     R    4195  4199
 CPXSTATE      4 000007F8 FFFFFFEC     F    4189  4202   4202
 CV         4016 00000000 FFFFFFEE     J    2364  1172U
 CV#FEXEC      1 00000800 FFFFFFEE A   U    1599 35114
 CVABORT       4 000007DA FFFFFFEE     I    2143 15208B 17213B 17402B 17455B 21448B 33320B 33543B
 CVABSRTN      4 0000088C FFFFFFEE     V    2178  2153
 CVABTMSG      4 000007CC FFFFFFEE     I    2138  8444B 11461B 32766B 32880B 32967B
 CVBLANKS    235 000004D8 FFFFFFEE     C    1958 13566  20741  20807  35698
 CVBRMSK       1 00000751 FFFFFFEE     X    2094  2095   2096
1EXEC     (EXEC2193) (12:44) (15MAR04) Ordinary Symbol and Literal Cross Reference                                          Page  189
 CVCFLAG       1 00000A00 FFFFFFEE     R    2259  2263   2268   2273   2278   2283
 CVCHKST       8 000009F0 FFFFFFEE     D    2249  2339   2339
 CVCHKST2      8 00000E28 FFFFFFEE     D    2342  2345   2345
 CVCOMRTN      4 0000087C FFFFFFEE     V    2174  2144
 CVCURJCB      4 000001C8 FFFFFFEE     A    1443 17336  21454  22818  26629  26965  29576  29710  29840
 CVDBGFLG      1 000004CC FFFFFFEE     R    1948  1952
 CVENT         4 0000074C FFFFFFEE     I    2092  7497B  7671B  8394B  8532B  8893B 10065B 10138B 10212B 10285B 10357B
                                                 10486B 10645B 10717B 10820B 10889B 10962B 11036B 11120B 11215B 11292B
                                                 11418B 11515B 11750B 11817B 11885B 11959B 12048B 12115B 12292B 12447B
                                                 12590B 12789B 13053B 13279B 13532B 13838B 13975B 14125B 14288B 14427B
                                                 14506B 14640B 14892B 15010B 15258B 15393B 15808B 15884B 15962B 16061B
                                                 16241B 16343B 16422B 16623B 16970B 17519B 18368B 18435B 18529B 18600B
                                                 18680B 18743B 18894B 18962B 19029B 19096B 19164B 19232B 19299B 19367B
                                                 19439B 19763B 20383B 20573B 20940B 21134B 21708B 21782B 21849B 21920B
                                                 21988B 22056B 22123B 22191B 22258B 22325B 22406B 22572B 22978B 23046B
                                                 23116B 23258B 23363B 23491B 23932B 24098B 24250B 24330B 24464B 24540B
                                                 24706B 24864B 24959B 25101B 25172B 25245B 25358B 25444B 25553B 25650B
                                                 25753B 26231B 26599B 26944B 27748B 28228B 28655B 29202B 29546B 29680B
                                                 29810B 30056B 31543B 31612B 31754B 32229B 32503B 32696B 33224B 33367B
                                                 33610B 33736B 33860B 34012B 34162B 34311B 34448B 34622B 34793B 34964B
                                                 35190B 35362B 35449B 35643B 35967B
 CVENTBR       2 00000750 FFFFFFEE     I    2093  2094
 CVERRMSG      4 000007C8 FFFFFFEE     I    2137  7734B  8180B  8207B 10405B 10438B 10766B 12700B 13162B 13669B 14042B
                                                 14355B 14550B 15302B 15446B 15492B 15549B 16284B 17027B 17056B 17575B
                                                 17615B 17748B 19516B 19568B 19605B 19897B 20098B 20148B 20200B 20237B
                                                 21220B 22682B 22757B 23519B 24011B 24166B 24414B 24492B 24619B 24774B
                                                 25050B 25273B 30935B 30992B 31570B 31639B
 CVERROR       4 000007D6 FFFFFFEE     I    2142  2158B 12375B 12531B 12998B 17330B 19635B 20267B 20497B 20657B 20708B
                                                 20768B 20819B 21202B 21298B 30756B 30910B 30985B
 CVEXIRTN      4 0000077C FFFFFFEE     V    2122  2118
 CVEXNO        1 00000000 00000040     T   18013 18013  35120
 CVFCHRKBPR
               8 000004C9 FFFFFFEE         1863  1879   1879
 CVFCHRKBSE
               4 000004C9 FFFFFFEE         1868  1879   1879
 CVFCHRKCPR
               2 000004C9 FFFFFFEE         1885  1901   1901
 CVFCHRKCSE
               1 000004C9 FFFFFFEE         1890  1901   1901
 CVFCHRUBPR
             128 000004C9 FFFFFFEE         1819  1835   1835
 CVFCHRUBSE
              64 000004C9 FFFFFFEE         1824  1835   1835
 CVFCHRUCPR
              32 000004C9 FFFFFFEE         1841  1857   1857
 CVFCHRUCSE
              16 000004C9 FFFFFFEE         1846  1857   1857
 CVFL          1 000004C4 FFFFFFEE     R    1615  1619   1624   1629   1634   1639   1644   1649   1654
 CVFL2         1 000004C5 FFFFFFEE     R    1660  1664   1669   1674   1679   1684   1689   1694   1699
 CVFL3         1 000004C6 FFFFFFEE     R    1705  1709   1714   1719   1724   1729   1734   1739   1744
 CVFL4         1 000004C7 FFFFFFEE     R    1750  1754   1759   1764   1769   1774   1779   1784
 CVFL5         1 000004C8 FFFFFFEE     R    1790  1794   1799   1804   1809
 CVFL6         1 000004C9 FFFFFFEE     R    1815  1819   1824   1836   1841   1846   1858   1863   1868   1880   1885
                                                  1890   1902
 CVHEAP#       1 00000200 FFFFFFEE A   U    1521  1522
 CVINVRTN      4 00000888 FFFFFFEE     V    2177  2147
 CVJESFLG      1 000004CA FFFFFFEE     R    1908  1912
 CVLNKRGS      4 00000780 FFFFFFEE     F    2124  2099M  2125
 CVLNKRTN      4 000007B0 FFFFFFEE     U    2125  2114M
1EXEC     (EXEC2193) (12:44) (15MAR04) Ordinary Symbol and Literal Cross Reference                                          Page  190
 CVLOCK1       1 00000088 FFFFFFEE     R    1266  1270   1275
 CVLOCK2       1 00000089 FFFFFFEE     R    1280  1284
 CVLOCK3       1 0000008A FFFFFFEE     R    1289  1293
 CVLOCK4       1 0000008B FFFFFFEE     R    1298  1302
 CVLOGMOD      1 00000068 FFFFFFEE     R    1253  1257
 CVMACH        1 00000067 FFFFFFEE     R    1213  1217   1222   1227   1232   1237   1242   1247
 CVMILRTN      4 00000884 FFFFFFEE     V    2176  2156
 CVNEXT        4 000007DE FFFFFFEE     I    2144  8341B  8346B  8475B  9081B 14201B 14569B 14835B 14954B 15661B 15910B
                                                 17368B 20499B 20874B 21490B 22498B 22854B 23318B 24055B 24663B 27517B
                                                 27599B 32084B 32145B 33006B
 CVNOARTN      4 00000890 FFFFFFEE     V    2179  2150
 CVNWDATE      4 00000608 FFFFFFEE     F    1981  1985   1985
 CVNWMPG#      1 00000008 FFFFFFEE A   U    1983  1984
 CVPFXRTN      1 00000000 00000000 A   T    2122  2122
 CVPGFLAG      1 00000A01 FFFFFFEE     R    2289  2293   2298   2303
 CVPIOSZ       1 00004F80 FFFFFFEE A   U    1352  1354
 CVPPDBQH      4 0000009C FFFFFFEE     A    1310  1311
 CVPSFNO       1 000003E9 FFFFFFEE A   N    1474  1476
 CVPSLNO       1 000007CF FFFFFFEE A   N    1475  1476
 CVPXSZ        1 00000008 FFFFFFEE A   U    1353  1354
 CVR          12 0000000C 00000001 A   #    1091  1172U
 CVRKEY        1 00000008 FFFFFFEE A   U    2047  2048
 CVSEGRTN      4 00000880 FFFFFFEE     V    2175  2139
 CVSTACK#      1 00000080 FFFFFFEE A   U    1513  1514
 CVSTART       4 00000000 FFFFFFEE     C    1186  2357
 CVTRC         4 00000768 FFFFFFEE     I    2114  2100B
 CVTRCRTN      4 00000778 FFFFFFEE     V    2121  2115
 CVUPPTBL      4 000008A8 FFFFFFEE     V    2184 17912
 CVUSFNO       1 00000001 FFFFFFEE A   N    1481  1483
 CVUSLNO       1 000003E7 FFFFFFEE A   N    1482  1483
 CVVOL#        1 00000005 FFFFFFEE A   U    2332  2333
 CVWTOFLG      1 000004CB FFFFFFEE     R    1918  1922   1927   1932   1937   1942
 DBLINE        1 00000000 0000005E     T   35116 35116
 DEBUGSG       1 00000000 00000000 A   T    2075  2075
 DELRANGE      1 00000000 00000041     T   18016 18016
 DELSUB        1 00000000 0000000F     T    9285  9285
 DEQUOTE       1 00000000 00000020     T   13773 13773  15737  21052  25315
 DESABORT      1 00000004 FFFFFFEC A   U    6171 13780  13784
 DESRTRN       1 00000080 FFFFFFEC A   U    6164 13780  13784
 DEV          12 00000000 FFFFFFEB     J    4713  4721
 DEVMAX#       1 00000002 FFFFFFEC A   U    4664  4721
 DEVTYPE       1 00000001 FFFFFFEB     R    4681  4690   4700
 DOFNAME       1 00000000 00000022     T   13776 13776
 DOTTBL        1 00000000 00000000 A   T    2191  2191
 DRENCFLG      1 00000F9F FFFFFFEC     R    6119  6123   6128   6133   6138   6143
 DRENPROT      1 00000F9E FFFFFFEC     R    6106  6114
 DSNON        40 00000E90 FFFFFFEC     C    5839  5840
 DSNWADSN     44 00000E5C FFFFFFEC     C    5826  5827   5828   5829   5838   5846   6077   6083   6085   6091   6094
                                                  6096   6099   6148
 DSNWAF4       1 00000F37 FFFFFFEC     R    5894  5898   5903   5908   5913   5918   5923   5928   5933
 DSNWAF5       1 00000F38 FFFFFFEC     R    5939  5943   5948   5953   5958   5963   5968   5973   5978
 DSNWAF6       1 00000F39 FFFFFFEC     R    5984  5988   5993   5998   6003   6008   6013   6018   6023
 DSNWAF7       1 00000F3A FFFFFFEC     R    6029  6033   6038   6043   6048
 DSNXG         1 00000004 FFFFFFEC A   U    5831  5833
 DSNXGL        1 00000003 FFFFFFEC A   U    5832  5833
 DSNXU         1 00000007 FFFFFFEC A   U    5833  5835
 DSNXUL        1 00000004 FFFFFFEC A   U    5834  5835
 DSSIZ         1 00000108 FFFFFFEC A   U    6077  6085   6094   6099
 EBCTBL        1 00000000 00000000 A   T    2187  2187
1EXEC     (EXEC2193) (12:44) (15MAR04) Ordinary Symbol and Literal Cross Reference                                          Page  191
 EBCTBL7       1 00000000 00000000 A   T    2190  2190
 ECBLIST       1 00000000 00000000 A   T    2050  2050
 EDTCOM        1 00000000 0000002A     T   13794 13794  21068  27665  35118
 EPARTBL       1 00000000 00000000 A   T    2182  2182
 ERRENTRY    743 00000000 FFFFFFE2     J    7463 28622  28692U 28735M 28735  28736M 28736  28737M 28737  29065  29066
                                                 29169  29239U 29245  29246
 ESCAPE        1 00000004 00000001 A   U   30029 30108  31670
 EVALEXPR      1 00000000 0000004B     T   21065 21065  23189  31675
 EXACT       128 00000000 FFFFFFE1         7577  7792M  7863   8057   8251
 EXECABRT      2 00004E50 00000001     H   26930 26926
 EXECDISP      2 00001F98 00000001     H   14996 14992  15749
 EXECHK        2 000024C8 00000001     H   16227  9272  15743  16223  18010  35104
 EXECTBLA      4 0000074C 00000001     F    9319  9260
 EXECTBLC      4 00000CC4 00000001     F    9846  9265
 EXECTBLF      4 00000A1C 00000001     F    9590  9264
 EXECUTE       2 00000064 00000001     H    7655  7651
 EXEC2193      1 00000000 00000001     R    1137  1135
 EXFDEL        4 00000001 FFFFFFE1         7621  7759M  8730  10171M 10244M
 EXFLAG        1 00000000 FFFFFFE1     R    7573  7577   7582   7587
 EXFLAG2       1 00000001 FFFFFFE1     R    7592  7596   7601   7606   7611   7616   7621   7626   7631
 EXFLINE       4 00000000 FFFFFFD2     F   34415 34484M 34484  34496  34513
 EXFLNO       16 00000001 FFFFFFE1         7611  8311  10754  10776M
 EXFNOPAR     32 00000001 FFFFFFE1         7606  8084  10677M
 EXFPARM      64 00000001 FFFFFFE1         7601  8127  10512M
 EXFPAUSE      2 00000001 FFFFFFE1         7626  8331  10097M
 EXFRANGE      8 00000001 FFFFFFE1         7616  8687   8745   9050  10393  10415M
 EXFROM       64 00000000 FFFFFFE1         7582  7818M  7928   8069   8274
 EXFRST        2 000061C2 00000001     H   33846 15759  33842  35108
 EXFRSTLN      2 00006362 00000001     H   34432 34428
 EXFRSTWA      4 00000000 FFFFFFD2     J   34422 34445  34474U 34564  34566  34567
 EXFSAVE     128 00000001 FFFFFFE1         7596  8152  10317M
 EXGET         2 0000610E 00000001     H   33596 18011  33592
 EXLAST        2 0000622E 00000001     H   33998 33994
 EXLASTLN      2 000063C4 00000001     H   34606 34602
 EXLASTWA      4 00000000 FFFFFFD1     J   34596 34619  34648U 34732  34734  34735
 EXLINE       32 00000000 FFFFFFE1         7587  7844M  7997   8115   8228
 EXLINENO      4 00000004 FFFFFFE1     F    7634  8317  10744M
 EXLLINE       4 00000000 FFFFFFD1     F   34589 34652M 34664  34681
 EXLOOPCK      2 00006060 00000001     H   33353 21067  35103
 EXNEXT        2 0000629A 00000001     H   34148 15761  34144  35110
 EXNEXTLN      2 00006426 00000001     H   34777  9267  34773
 EXNEXTWA      4 00000000 FFFFFFD0     J   34767 34790  34819U 34903  34905  34906
 EXNLINE       4 00000000 FFFFFFD0     F   34760 34823M 34835  34852
 EXNOXCHK      1 00000001 FFFFFFE1         7631  9112  10091M 10164M 10238M 10311M 10383M 10671M 10743M 10915M 10988M
                                                 11062M 11146M 11241M 11318M
 EXPARM        4 00000008 FFFFFFE1     A    7635  8090   8133   9159  10556M 10597M
 EXPARMLN      4 0000000C FFFFFFE1     F    7636  8091   8134   9158  10557M 10598M
 EXPAUSE       2 000023A6 00000001     H   15870 15736  15866
 EXPLINE       4 00000000 FFFFFFCF     F   34931 34994M 35006  35023
 EXPMSG        2 00001C10 00000001     H   13961 13940
 EXPPRT        4 00001BC0 00000001     F   13928 15733
 EXPREV        2 00006306 00000001     H   34297 34293
 EXPREVLN      2 00006486 00000001     H   34948 34944
 EXPREVWA      4 00000000 FFFFFFCF     J   34938 34961  34990U 35074  35076  35077
 EXRALL        2 00001DD2 00000001     H   14413 14253
 EXREINIT      2 00002428 00000001     H   16047 15740  16043
 EXRESET       2 000023DA 00000001     H   15948 15739  15944
 EXRMSG        2 00001D78 00000001     H   14274 14238
 EXRPRT        4 00001D00 00000001     F   14226 15741
1EXEC     (EXEC2193) (12:44) (15MAR04) Ordinary Symbol and Literal Cross Reference                                          Page  192
 EXSPGET       2 0000616A 00000001     H   33722 33718
 EXTCLOSE      1 00000000 00000014     T    9292  9292
 EXTOPEN       1 00000000 00000012     T    9288  9288
 EXTXNAME     64 00000050 FFFFFFE1     C    7638  8703M  9256
 EXWA        144 00000000 FFFFFFE1     J    7645  7668   7697U  7701   7709U  7746M  7746   8366   8368   8369   9312U
 EXXNAME      64 00000010 FFFFFFE1     C    7637  8704M  8706   8707   9089   9094   9095   9257
 FFINFO      928 00000000 FFFFFFE8     J    6810 13578U
 FFMISC        1 00000002 FFFFFFE8     R    6707  6711   6716   6721   6726   6731
 FFNAME      128 0000000C FFFFFFE8     C    6793 13616
 FFNAMEL       4 00000008 FFFFFFE8     F    6792 13621
 FFPTYPE       1 00000003 FFFFFFE8     R    6736  6745   6755   6765   6775   6785
 FFRNAME     128 00000218 FFFFFFE8     C    6799 13588
 FFRNAMEL      4 00000214 FFFFFFE8     F    6798 13593
 FFRQTYPE      1 00000001 FFFFFFE8     R    6663  6672   6682   6692   6702
 FFTYPE        1 00000000 FFFFFFE8     R    6609  6618   6628   6638   6648   6658
 FNAMEFIN      1 00000000 00000010     T    9286  9286
 FNAMPSHF      1 00000000 0000001E     T    9617  9617
 FREECORE      1 00000000 0000002F     T   15746 15746
 FSR           0 00000000 00000001 A   #    1001  7492   7546M  7665   8366M  8389   8494M  8527   8855M  8888   9234M
                                                 10060  10112M 10133  10186M 10207  10259M 10280  10332M 10352  10461M
                                                 10481  10619M 10640  10692M 10712  10795M 10815  10863M 10884  10936M
                                                 10957  11010M 11031  11095M 11115  11189M 11210  11267M 11287  11393M
                                                 11413  11476M 11510  11542M 11557M 11745  11791M 11812  11859M 11880
                                                 11934M 11954  12022M 12043  12090M 12110  12210M 12286  12404M 12441
                                                 12560M 12585  12737M 12783  13023M 13048  13232M 13274  13463M 13526
                                                 13757M 13833  13919M 13970  14089M 14120  14217M 14283  14402M 14422
                                                 14470M 14501  14585M 14635  14851M 14887  14969M 15005  15223M 15253
                                                 15338M 15387  15681M 15803  15850M 15879  15929M 15957  16022M 16056
                                                 16206M 16236  16307M 16338  16386M 16417  16465M 16617  16938M 16965
                                                 17472M 17487M 17514  17960M 17975M 18363  18410M 18430  18503M 18524
                                                 18575M 18595  18654M 18675  18717M 18738  18868M 18889  18936M 18957
                                                 19003M 19024  19070M 19091  19138M 19159  19206M 19227  19273M 19294
                                                 19341M 19362  19408M 19434  19693M 19757  20337M 20378  20514M 20568
                                                 20889M 20935  21033M 21128  21510M 21703  21756M 21777  21823M 21844
                                                 21894M 21915  21962M 21983  22030M 22051  22097M 22118  22165M 22186
                                                 22232M 22253  22299M 22320  22366M 22401  22513M 22566  22874M 22973
                                                 23001M 23020M 23041  23091M 23111  23147M 23166M 23253  23333M 23358
                                                 23463M 23486  23534M 23927  24070M 24093  24223M 24245  24303M 24325
                                                 24437M 24459  24507M 24535  24678M 24701  24837M 24859  24931M 24954
                                                 25073M 25096  25146M 25167  25218M 25240  25288M 25353  25411M 25439
                                                 25511M 25548  25606M 25645  25712M 25748  26183M 26226  26554M 26594
                                                 26893M 26939  27614M 27742  28148M 28222  28577M 28649  29118M 29196
                                                 29476M 29541  29638M 29675  29766M 29805  29922M 30050  31491M 31511M
                                                 31538  31585M 31607  31654M 31748  32183M 32223  32458M 32498  32652M
                                                 32691  33192M 33219  33335M 33362  33567M 33605  33674M 33689M 33731
                                                 33800M 33815M 33855  33952M 33967M 34007  34104M 34119M 34157  34254M
                                                 34269M 34306  34375M 34390M 34442  34544M 34564M 34616  34712M 34732M
                                                 34787  34883M 34903M 34958  35054M 35074M 35185  35310M 35325M 35357
                                                 35407M 35444  35596M 35638  35913M 35928M 35962  36002M
 GBLCMD        1 00000000 00000053     T   25310 25310
 GETCORE       1 00000000 0000002D     T   15744 15744
 GETDATA       1 00000000 00000055     T   27659 27659  29507
 GETEXCMD      2 00005E6E 00000001     H   32682 32678
 GETLINE       1 00000000 0000003F     T   18009 18009
 GETNSW        2 00006772 00000001     H   35629 31672
 GETSUBS       1 00000000 00000049     T   21059 21059
 GETVAR        1 00000000 00000047     T   21056 21056  36025
 GETVSTK       1 00000000 00000059     T   29510 29510
 HIBAL         1 00000000 FFFFFFFF     J     691   707    720    733    746    759    772    785    798    811    824
1EXEC     (EXEC2193) (12:44) (15MAR04) Ordinary Symbol and Literal Cross Reference                                          Page  193
                                                   837    850    863    876    889    902
 HOLDATN       2 0000568E 00000001     H   29532 29528
 IGNOREND      1 00000000 0000004C     T   21066 21066
 INITATTN      2 000049FE 00000001     H   25430  9279  16490  25426
 INITCMD       1 00000000 0000005D     T   35102 35102
 INITERR       2 000049C8 00000001     H   25344  9278  16489  25340
 INITEXEC      2 00000022 00000001     H    7483  7479
 INITEXEC      1 00000000 00000038     T   16486 16486
 INITFLOW      1 00000000 00000039     T   16487 16487
 INITVARS      1 00000000 00000037     T   16485 16485
 INITXCAL      1 00000000 0000003A     T   16488 16488
 INITXDMP      1 00000000 0000000B     T    9280  9280  16491
 INVALID       1 00000000 00000000 A   T    2177  2177
 JCB         208 00000000 FFFFFFE9     J    6580 17346U 21464U 22828U 26627U 26973U 29574U 29708U 29838U
 JCBAFL        1 00000062 FFFFFFE9     R    6425  6429   6434   6439   6444   6449   6454   6459   6464
 JCBBFL        1 00000063 FFFFFFE9     R    6470  6474   6479   6484   6489   6494   6499   6504
 JCBBILLX      8 00000088 FFFFFFE9     D    6555  6563   6563
 JCBFATTN      2 00000062 FFFFFFE9         6459 17358M 21476M 22840M 26641  27009  27057  27137  27239M 27356M 27436
                                                 27448M 27530M 29600  29622M 29739M 29851  29863M
 JCBFNATN     64 00000062 FFFFFFE9         6434 29583M 29718M
 JCBFPATN      8 00000062 FFFFFFE9         6449 29590M 29611M 29728  29746M
 JCBRSCF1      1 00000064 FFFFFFE9     R    6510  6514   6519   6524
 JCBSFLG1      1 00000065 FFFFFFE9     R    6530  6534   6539
 JCBWFL        1 00000060 FFFFFFE9     R    6354  6358   6363   6368   6373   6378   6383   6388   6393   6421
 JCBWWFL       1 00000061 FFFFFFE9     R    6399  6403   6408   6413   6418
 LABEL         1 00000000 0000005B     T   35099 35099
 LDDSNCHK      2 00001726 00000001     H   12773  9291
 LDFIRST      64 00000000 FFFFFFE0        12254 13322  13409M
 LDFLAGS       1 00000000 FFFFFFE0     R   12245 12249  12254  12828M
 LDLEN         4 0000000C FFFFFFE0     F   12259 12627M 12676  13089M 13138
 LDLINE      235 00000010 FFFFFFE0     C   12260 12655M 12677  13117M 13139
 LDLNCNT       4 00000004 FFFFFFE0     F   12257 12835M 12835
 LDLNO         4 00000008 FFFFFFE0     F   12258 12626M 12678  13088M 13140
 LDOLDACT      2 000015DE 00000001     H   12276  9283
 LDOLDDSN      2 00001642 00000001     H   12431  9290
 LDWA        251 00000000 FFFFFFE0     J   12267 12289  12318U 12322  12404  12406  12407  12444  12473U 12478  12560
                                                 12562  12563  12620U 12786  12815U 12820  13023  13025  13026  13082U
                                                 13309U
 LDXPROC     128 00000000 FFFFFFE0        12249 12875  12911  13201  13431M
 LINEMOD       1 00000000 0000003E     T   18007 18007
 LOCATRTN      1 00000000 FFFFFFEC A   U    6168 13780
 LOWTBL        1 00000000 00000000 A   T    2185  2185
 LRTRIM        1 00000000 0000002E     T   15745 15745  27658
 LSR           8 00000008 00000001 A   #    1039  7492   7546M  7665   8366M  8389   8494M  8527   8855M  8888   9234M
                                                 10060  10112M 10133  10186M 10207  10259M 10280  10332M 10352  10461M
                                                 10481  10619M 10640  10692M 10712  10795M 10815  10863M 10884  10936M
                                                 10957  11010M 11031  11095M 11115  11189M 11210  11267M 11287  11393M
                                                 11413  11476M 11510  11557M 11745  11791M 11812  11859M 11880  11934M
                                                 11954  12022M 12043  12090M 12110  12210M 12286  12404M 12441  12560M
                                                 12585  12737M 12783  13023M 13048  13232M 13274  13463M 13526  13757M
                                                 13833  13919M 13970  14089M 14120  14217M 14283  14402M 14422  14470M
                                                 14501  14585M 14635  14851M 14887  14969M 15005  15223M 15253  15338M
                                                 15387  15681M 15803  15850M 15879  15929M 15957  16022M 16056  16206M
                                                 16236  16307M 16338  16386M 16417  16465M 16617  16938M 16965  17487M
                                                 17514  17975M 18363  18410M 18430  18503M 18524  18575M 18595  18654M
                                                 18675  18717M 18738  18868M 18889  18936M 18957  19003M 19024  19070M
                                                 19091  19138M 19159  19206M 19227  19273M 19294  19341M 19362  19408M
                                                 19434  19693M 19757  20337M 20378  20514M 20568  20889M 20935  21033M
                                                 21128  21510M 21703  21756M 21777  21823M 21844  21894M 21915  21962M
1EXEC     (EXEC2193) (12:44) (15MAR04) Ordinary Symbol and Literal Cross Reference                                          Page  194
                                                 21983  22030M 22051  22097M 22118  22165M 22186  22232M 22253  22299M
                                                 22320  22366M 22401  22513M 22566  22874M 22973  23020M 23041  23091M
                                                 23111  23166M 23253  23333M 23358  23463M 23486  23534M 23927  24070M
                                                 24093  24223M 24245  24303M 24325  24437M 24459  24507M 24535  24678M
                                                 24701  24837M 24859  24931M 24954  25073M 25096  25146M 25167  25218M
                                                 25240  25288M 25353  25411M 25439  25511M 25548  25606M 25645  25712M
                                                 25748  26183M 26226  26554M 26594  26893M 26939  27614M 27742  28148M
                                                 28222  28577M 28649  29118M 29196  29476M 29541  29638M 29675  29766M
                                                 29805  29922M 30050  31511M 31538  31585M 31607  31654M 31748  32183M
                                                 32223  32458M 32498  32652M 32691  33192M 33219  33335M 33362  33567M
                                                 33605  33689M 33731  33815M 33855  33967M 34007  34119M 34157  34269M
                                                 34306  34390M 34442  34564M 34616  34732M 34787  34903M 34958  35074M
                                                 35185  35325M 35357  35407M 35444  35596M 35638  35928M 35962  36002M
 LXCATRTN      1 00000060 FFFFFFEC A   U    6167 13784
 MAKESTR       1 00000000 0000004E     T   23193 23193  31673
 MALL          1 00000000 0000001C     T    9585  9585   9841  10037  13954  14267  15719  18346  21687  22957  23632
                                                 23753  23904
 MAXSCAN       2 00005B0A 00000001     H   31529 31680
 MAXSTR        2 00005B3E 00000001     H   31598 31674
 MAXSTRLN      1 00000100 FFFFFFE6 A   N    7166  7167   7194  18018
 MCLEAR        1 00000000 0000003B     T   16492 16492
 MILERR        1 00000000 00000000 A   T    2176  2176
 MKFFINFO      1 00000000 00000005     T    9263  9263
 MLNO          1 00000000 0000004D     T   22897 22897
 MNULL         1 00000000 00000052     T   23617 23617  23738  23889
 MPARM         1 00000000 00000019     T    9525  9525   9781   9977  13939  14237  18091  23648  23663  23769  23784
 MPCOLS        1 00000000 00000042     T   18136 18136  18151
 MPINT         1 00000000 0000001F     T   11637 11637  11667
 MPSYMLN       1 00000000 00000018     T    9510  9510   9766   9962  18106
 MSYMLN        1 00000000 00000017     T    9495  9495   9751   9947  18121
 MTOKEN        1 00000000 00000015     T    9330  9330   9345   9360   9375   9390   9405   9420   9435   9450   9465
                                                  9480   9540   9601   9631   9646   9661   9676   9691   9706   9721
                                                  9736   9796   9857   9872   9887   9902   9917   9932   9992  11577
                                                 11592  11607  11622  11652  11682  11697  11712  14252  18046  18061
                                                 18076  18166  18181  18196  18211  18226  18241  18256  18271  18286
                                                 18301  18331  21537  21552  21567  21582  21597  21612  21627  21642
                                                 21657  21672  22912  22927  22942  23557  23572  23587  23602  23678
                                                 23693  23708  23723  23799  23814  23829  23844  23859  23874
 NBLTBL        1 00000000 00000000 A   T    2189  2189
 NDETRNG       1 00000000 0000000C     T    9281  9281  13772
 NNATNCMD    235 000000F8 FFFFFFE3     C    7398 27989  27990  28539
 NNATNLEN      4 000000F4 FFFFFFE3     F    7397 28015M 28538
 NNERRCMD    235 00000008 FFFFFFE3     C    7396 27960  27961  28499
 NNERRLEN      4 00000004 FFFFFFE3     F    7395 27986M 28498
 NNFDDATN     16 00000000 FFFFFFE3         7392 27953M 28452  28532
 NNFDDERR     64 00000000 FFFFFFE3         7382 27901M 28400  28492
 NNFLAGS       1 00000000 FFFFFFE3     R    7373  7377   7382   7387   7392
 NNFONATN     32 00000000 FFFFFFE3         7387 27927M 28426  28520
 NNFONERR    128 00000000 FFFFFFE3         7377 27875M 28374  28480
 NOACTION      1 00000000 00000000 A   T    2179  2179
 NOTVALID      1 00000000 00000021     T   13774 13774  21049
 NPARTBL       1 00000000 00000000 A   T    2183  2183
 NRDELETE      2 00002E30 00000001     H   18354 18047
 NRESOLVE      1 00000000 00000011     T    9287  9287
 NSCAN         1 00000000 00000003     T    9261  9261  13790  15734  17993  21061  23191  25308  36028
 NSCNCB      176 00000000 FFFFFFED     J    2448  2574   7879   7880   7881   7884M  7885M  7887M  7897M  7898M  7899M
                                                  7948   7949   7950   7953M  7954M  7956M  7966M  7967M  7968M  8013
                                                  8014   8015   8018M  8019M  8021M  8031M  8032M  8033M 10550  10551
                                                 13344M 13345M 13360  13361  13362  13365M 13366M 13367M 13377M 13378M
1EXEC     (EXEC2193) (12:44) (15MAR04) Ordinary Symbol and Literal Cross Reference                                          Page  195
                                                 13379M 13389  13871  13872  13873  13876M 13877M 13879M 13889M 13890M
                                                 13891M 14168  14169  14170  14173M 14174M 14176M 14186M 14187M 14188M
                                                 14714  14715  14923  14924  14925  14928M 14929M 14931M 14941M 14942M
                                                 14943M 15566  15567  15568  15571M 15572M 15574M 15584M 15585M 15586M
                                                 16768  16769  16770  16773M 16774M 16776M 16786M 16787M 16788M 19488
                                                 19489  19656M 19657M 19666M 19732  19837  19839  19850  19851  19852
                                                 19855M 19856M 19857M 19867M 19868M 19869M 19876  19966  19981  19982
                                                 19983  19986M 19987M 19988M 19998M 19999M 20000M 20025  20053  20077
                                                 20120  20121  20288M 20289M 20305M 21071  21191  21192  21241M 21242M
                                                 21257  21258  21259  21262M 21263M 21265M 21275M 21276M 21277M 22430
                                                 22431  22635  22636  22637  22640M 22641M 22643M 22653M 22654M 22655M
                                                 23291  23292  23293  23296M 23297M 23299M 23309M 23310M 23311M 23388
                                                 23403  23418  23419  23420M 23420  23421  23422M 23435M 24028  24029
                                                 24030  24033M 24034M 24036M 24046M 24047M 24048M 24636  24637  24638
                                                 24641M 24642M 24644M 24654M 24655M 24656M 31802  31803  31889M 31890M
                                                 32271  32272  35823M 35824M 35839  35840  35841  35844M 35845M 35846M
                                                 35856M 35857M 35858M
 NSCNFLGS      1 00000008 FFFFFFED     R    2385  2389   2394
 NSCNKWS       4 00000028 FFFFFFED     A    2434  7879   7887M  7897M  7948   7956M  7966M  8013   8021M  8031M 13360
                                                 13367M 13377M 13871  13879M 13889M 14168  14176M 14186M 14923  14931M
                                                 14941M 15566  15574M 15584M 16768  16776M 16786M 19666  19666M 19850
                                                 19857M 19867M 19981  19988M 19998M 20305  20305M 21257  21265M 21275M
                                                 22635  22643M 22653M 23291  23299M 23309M 24028  24036M 24046M 24636
                                                 24644M 24654M 35839  35846M 35856M
 NSCNLEN       4 00000004 FFFFFFED     F    2382 10551  13345M 14715  19489  19657M 20121  20289M 21192  21242M 22431
                                                 23421  23422M 31803  31890M 32272  35824M
 NSCNLOC       4 00000000 FFFFFFED     A    2381 10550  13344M 14714  19488  19656M 20120  20288M 21191  21241M 22430
                                                 23418  23420M 31802  31889M 32271  35823M
 NSCNSKIP      4 00000024 FFFFFFED     A    2433  7880   7884M  7898M  7949   7953M  7967M  8014   8018M  8032M 13361
                                                 13365M 13378M 13872  13876M 13890M 14169  14173M 14187M 14924  14928M
                                                 14942M 15567  15571M 15585M 16769  16773M 16787M 19851  19855M 19868M
                                                 19982  19986M 19999M 21258  21262M 21276M 22636  22640M 22654M 23292
                                                 23296M 23310M 24029  24033M 24047M 24637  24641M 24655M 35840  35844M
                                                 35857M
 NSCNSTOP      4 00000020 FFFFFFED     A    2432  7881   7885M  7899M  7950   7954M  7968M  8015   8019M  8033M 13362
                                                 13366M 13379M 13873  13877M 13891M 14170  14174M 14188M 14925  14929M
                                                 14943M 15568  15572M 15586M 16770  16774M 16788M 19852  19856M 19869M
                                                 19983  19987M 20000M 21259  21263M 21277M 22637  22641M 22655M 23293
                                                 23297M 23311M 24030  24034M 24048M 24638  24642M 24656M 35841  35845M
                                                 35858M
 NSCNTLEN      4 00000014 FFFFFFED     F    2400 23388  23435M
 NSCNTLOC      4 00000010 FFFFFFED     A    2399 23403  23419  23420
 NSCNTOK      16 00000030 FFFFFFED     C    2436 13389  20053
 NSCNTYPE      1 00000018 FFFFFFED     R    2403  2407   2412   2417   2422   2427
 OLDLOOP       2 000016A6 00000001     H   12576 13781
 ON            2 00003F22 00000001     H   23244 23240
 ONACLEAR      2 00004714 00000001     H   24850 23800  23815
 ONACMD        2 000046A8 00000001     H   24692 23770  23785
 ONAINT        2 000047A8 00000001     H   25087 23860
 ONANOINT      2 000047D6 00000001     H   25158 23875
 ONANULL       2 00004804 00000001     H   25231 23890
 ONAPRT        4 0000427C 00000001     F   23758 25319
 ONAREEN       2 00004750 00000001     H   24945 23830  23845
 ONATTN        2 000045EC 00000001     H   24526 23588  23603  24522
 ONCNULL       2 00004012 00000001     H   23477 23618
 ONCPRT        4 0000404C 00000001     F   23546 25307
 ONECLEAR      2 0000452E 00000001     H   24236 23679  23694
 ONECMD        2 000044C8 00000001     H   24084 23649  23664
 ONENTRY     483 00000000 FFFFFFE3     J    7405 27715  27785U 27852M 27852  27853M 27853  28018  28019  28195  28265U
1EXEC     (EXEC2193) (12:44) (15MAR04) Ordinary Symbol and Literal Cross Reference                                          Page  196
                                                 28271  28272
 ONENULL       2 000045B2 00000001     H   24450 23739
 ONEPRT        4 0000413C 00000001     F   23637 25314
 ONEREEN       2 00004560 00000001     H   24316 23709  23724
 ONERROR       2 0000440C 00000001     H   23918 23558  23573
 ONHOST        2 00003FA6 00000001     H   23349 23633
 PCHANGED    128 00000448 FFFFFFD4        30002 30370M 30749M 30887M 31335  31465
 PGOTEXPR     16 00000448 FFFFFFD4        30017 30449M 30618M 30648  30867
 PGOTNSW      32 00000448 FFFFFFD4        30012 30442M 30578M 30636  30729
 PHON#SET      4 00000000 FFFFFFD8     F   27714 27788M 28021
 PHONNTRY    483 00000004 FFFFFFD8     X   27715 27787
 PHONWA      487 00000000 FFFFFFD8     J   27722 27745  27774U 28148  28150  28151
 PHRR#SET      4 00000000 FFFFFFD6     F   28621 28695M 29068
 PHRRNTRY    743 00000004 FFFFFFD6     X   28622 28694
 PHRRWA      747 00000000 FFFFFFD6     J   28629 28652  28681U 29118  29120  29121
 POPERR        2 000054D8 00000001     H   29186 29182
 POPON         2 0000529E 00000001     H   28212 28208
 PPON#SET      4 00000000 FFFFFFD7     F   28194 28268M 28274
 PPONNTRY    483 00000004 FFFFFFD7     X   28195 28267
 PPONWA      487 00000000 FFFFFFD7     J   28202 28225  28254U 28577  28579  28580
 PPRR#SET      4 00000000 FFFFFFD5     F   29168 29242M 29248
 PPRRNTRY    743 00000004 FFFFFFD5     X   29169 29241
 PPRRWA      747 00000000 FFFFFFD5     J   29176 29199  29228U 29476  29478  29479
 PRECMD        1 00000254 FFFFFFD4     X   29993 30165  30821  31061  31182  31237  31249  31254  31382  31408  31411
 PREFLAGS      1 00000448 FFFFFFD4     R   29998 30002  30007  30012  30017  30100M
 PRELOC        4 00000000 FFFFFFD4     F   29990 30086M 31225  31251  31256  31410  31412  31471
 PREPDONE      2 00005AF6 00000001     H   31487 30215B
 PREPROC       2 0000576A 00000001     H   30040 30036
 PREPTR        4 00000444 FFFFFFD4     F   29995 30718M 31253  31258
 PRESCAN      64 00000448 FFFFFFD4        30007 30435M 30487M 30667  31107
 PRESCNCT      4 00000440 FFFFFFD4     F   29994 30093M 30093  31113  31115M
 PRETRT      256 00000004 FFFFFFD4     X   29991 30107M 30107  30130M 30157M 30195  31303
 PREWA      1097 00000000 FFFFFFD4     J   30026 30053  30082U 31511  31513  31514
 PREXVAL     336 00000104 FFFFFFD4     X   29992 30750  30888
 PUSHERR       2 00005382 00000001     H   28639 28635
 PUSHON        2 00005188 00000001     H   27732 27728
 PUTLINE       1 00000000 00000033     T   15760 15760
 QUIETPSH      1 00000000 0000001B     T    9571  9571   9827  10023
 RAR          14 0000000E 00000001 A   #    1117  2114   2115M  2116B  2118M  2119B  2139M  2140B  2144M  2145B  2147M
                                                  2148B  2150M  2151B  2153M  2154B  2156M  2157M  2157B  2163   7489
                                                  7548M  7551B  7662   7769M  7770M  7770B  7890M  7891M  7891B  7904M
                                                  7905M  7905B  7936M  7937M  7937B  7959M  7960M  7960B  7973M  7974M
                                                  7974B  8024M  8025M  8025B  8038M  8039M  8039B  8094M  8095M  8095B
                                                  8137M  8138M  8138B  8187M  8188M  8188B  8236M  8237M  8237B  8259M
                                                  8260M  8260B  8282M  8283M  8283B  8339M  8340M  8340B  8368M  8371B
                                                  8386   8419M  8420M  8420B  8469M  8470M  8470B  8473M  8474M  8474B
                                                  8496M  8499B  8524   8557M  8558M  8558B  8571M  8572M  8572B  8605M
                                                  8606M  8606B  8613M  8614M  8614B  8630M  8631M  8631B  8636M  8637M
                                                  8637B  8640M  8641M  8641B  8644M  8645M  8645B  8695M  8696M  8696B
                                                  8711M  8712M  8712B  8717M  8718M  8718B  8762M  8763M  8763B  8789M
                                                  8790M  8790B  8857M  8860B  8885   8926M  8927M  8927B  8960M  8961M
                                                  8961B  8968M  8969M  8969B  8985M  8986M  8986B  8991M  8992M  8992B
                                                  8995M  8996M  8996B  8999M  9000M  9000B  9035M  9036M  9036B  9039M
                                                  9040M  9040B  9058M  9059M  9059B  9068M  9069M  9069B  9092M  9093M
                                                  9093B  9099M  9100M  9100B  9120M  9121M  9121B  9141M  9142M  9142B
                                                  9156M  9157M  9157B  9162M  9163M  9163B  9176M  9177M  9177B  9236M
                                                  9239B 10057  10114M 10117B 10130  10188M 10191B 10204  10261M 10264B
                                                 10277  10334M 10337B 10349  10418M 10419M 10419B 10463M 10466B 10478
                                                 10515M 10516M 10516B 10582M 10583M 10583B 10621M 10624B 10637  10694M
1EXEC     (EXEC2193) (12:44) (15MAR04) Ordinary Symbol and Literal Cross Reference                                          Page  197
                                                 10697B 10709  10797M 10800B 10812  10843M 10844M 10844B 10865M 10868B
                                                 10881  10938M 10941B 10954  11012M 11015B 11028  11097M 11100B 11112
                                                 11191M 11194B 11207  11269M 11272B 11284  11395M 11398B 11410  11455M
                                                 11456M 11456B 11478M 11481B 11507  11539M 11540M 11540B 11559M 11562B
                                                 11742  11793M 11796B 11809  11861M 11864B 11877  11936M 11939B 11951
                                                 12024M 12027B 12040  12092M 12095B 12107  12212M 12215B 12283  12337M
                                                 12338M 12338B 12352M 12353M 12353B 12406M 12409B 12438  12493M 12494M
                                                 12494B 12508M 12509M 12509B 12562M 12565B 12582  12673M 12674M 12674B
                                                 12681M 12682M 12682B 12739M 12742B 12780  12849M 12850M 12850B 12919M
                                                 12920M 12920B 12954M 12955M 12955B 12975M 12976M 12976B 13025M 13028B
                                                 13045  13135M 13136M 13136B 13143M 13144M 13144B 13190M 13191M 13191B
                                                 13234M 13237B 13271  13370M 13371M 13371B 13384M 13385M 13385B 13465M
                                                 13468B 13523  13636M 13637M 13637B 13733M 13734M 13734B 13759M 13762B
                                                 13830  13882M 13883M 13883B 13896M 13897M 13897B 13902M 13903M 13903B
                                                 13921M 13924B 13967  13998M 13999M 13999B 14033M 14034M 14034B 14069M
                                                 14070M 14070B 14091M 14094B 14117  14150M 14151M 14151B 14154M 14155M
                                                 14155B 14179M 14180M 14180B 14193M 14194M 14194B 14199M 14200M 14200B
                                                 14219M 14222B 14280  14311M 14312M 14312B 14346M 14347M 14347B 14382M
                                                 14383M 14383B 14404M 14407B 14419  14450M 14451M 14451B 14472M 14475B
                                                 14498  14559M 14560M 14560B 14587M 14590B 14632  14683M 14684M 14684B
                                                 14722M 14723M 14723B 14744M 14745M 14745B 14853M 14856B 14884  14934M
                                                 14935M 14935B 14948M 14949M 14949B 14952M 14953M 14953B 14971M 14974B
                                                 15002  15063M 15064M 15064B 15085M 15086M 15086B 15141M 15142M 15142B
                                                 15160M 15161M 15161B 15188M 15189M 15189B 15206M 15207M 15207B 15225M
                                                 15228B 15250  15313M 15314M 15314B 15319M 15320M 15320B 15340M 15343B
                                                 15384  15525M 15526M 15526B 15540M 15541M 15541B 15577M 15578M 15578B
                                                 15591M 15592M 15592B 15596M 15597M 15597B 15611M 15612M 15612B 15629M
                                                 15630M 15630B 15633M 15634M 15634B 15654M 15655M 15655B 15659M 15660M
                                                 15660B 15683M 15686B 15800  15852M 15855B 15876  15908M 15909M 15909B
                                                 15931M 15934B 15954  15995M 15996M 15996B 16001M 16002M 16002B 16024M
                                                 16027B 16053  16088M 16089M 16089B 16093M 16094M 16094B 16098M 16099M
                                                 16099B 16106M 16107M 16107B 16112M 16113M 16113B 16118M 16119M 16119B
                                                 16124M 16125M 16125B 16130M 16131M 16131B 16137M 16138M 16138B 16143M
                                                 16144M 16144B 16147M 16148M 16148B 16153M 16154M 16154B 16169M 16170M
                                                 16170B 16208M 16211B 16233  16264M 16265M 16265B 16309M 16312B 16335
                                                 16369M 16370M 16370B 16388M 16391B 16414  16448M 16449M 16449B 16467M
                                                 16470B 16614  16676M 16677M 16677B 16779M 16780M 16780B 16793M 16794M
                                                 16794B 16813M 16814M 16814B 16836M 16837M 16837B 16861M 16862M 16862B
                                                 16893M 16894M 16894B 16913M 16914M 16914B 16940M 16943B 16962  17211M
                                                 17212M 17212B 17453M 17454M 17454B 17489M 17492B 17511  17638M 17639M
                                                 17639B 17644M 17645M 17645B 17667M 17668M 17668B 17673M 17674M 17674B
                                                 17711M 17712M 17712B 17716M 17717M 17717B 17740M 17741M 17741B 17856M
                                                 17857M 17857B 17977M 17980B 18360  18412M 18415B 18427  18479M 18480M
                                                 18480B 18505M 18508B 18521  18577M 18580B 18592  18629M 18630M 18630B
                                                 18634M 18635M 18635B 18656M 18659B 18672  18719M 18722B 18735  18766M
                                                 18767M 18767B 18781M 18782M 18782B 18870M 18873B 18886  18938M 18941B
                                                 18954  19005M 19008B 19021  19072M 19075B 19088  19140M 19143B 19156
                                                 19208M 19211B 19224  19275M 19278B 19291  19343M 19346B 19359  19410M
                                                 19413B 19431  19497M 19498M 19498B 19560M 19561M 19561B 19582M 19583M
                                                 19583B 19597M 19598M 19598B 19633M 19634M 19634B 19695M 19698B 19754
                                                 19860M 19861M 19861B 19904M 19905M 19905B 19991M 19992M 19992B 20005M
                                                 20006M 20006B 20037M 20038M 20038B 20129M 20130M 20130B 20192M 20193M
                                                 20193B 20214M 20215M 20215B 20229M 20230M 20230B 20265M 20266M 20266B
                                                 20339M 20342B 20375  20495M 20496M 20496B 20516M 20519B 20565  20655M
                                                 20656M 20656B 20695M 20696M 20696B 20706M 20707M 20707B 20766M 20767M
                                                 20767B 20817M 20818M 20818B 20867M 20868M 20868B 20891M 20894B 20932
                                                 21009M 21010M 21010B 21017M 21018M 21018B 21035M 21038B 21125  21200M
                                                 21201M 21201B 21268M 21269M 21269B 21282M 21283M 21283B 21288M 21289M
                                                 21289B 21328M 21329M 21329B 21342M 21343M 21343B 21383M 21384M 21384B
1EXEC     (EXEC2193) (12:44) (15MAR04) Ordinary Symbol and Literal Cross Reference                                          Page  198
                                                 21412M 21413M 21413B 21512M 21515B 21700  21731M 21732M 21732B 21736M
                                                 21737M 21737B 21758M 21761B 21774  21825M 21828B 21841  21896M 21899B
                                                 21912  21964M 21967B 21980  22032M 22035B 22048  22099M 22102B 22115
                                                 22167M 22170B 22183  22234M 22237B 22250  22301M 22304B 22317  22368M
                                                 22371B 22398  22496M 22497M 22497B 22515M 22518B 22563  22646M 22647M
                                                 22647B 22660M 22661M 22661B 22749M 22750M 22750B 22786M 22787M 22787B
                                                 22876M 22879B 22970  23022M 23025B 23038  23093M 23096B 23108  23139M
                                                 23140M 23140B 23144M 23145M 23145B 23168M 23171B 23250  23302M 23303M
                                                 23303B 23316M 23317M 23317B 23335M 23338B 23355  23446M 23447M 23447B
                                                 23465M 23468B 23483  23536M 23539B 23924  23985M 23986M 23986B 24003M
                                                 24004M 24004B 24039M 24040M 24040B 24053M 24054M 24054B 24072M 24075B
                                                 24090  24122M 24123M 24123B 24157M 24158M 24158B 24177M 24178M 24178B
                                                 24225M 24228B 24242  24305M 24308B 24322  24439M 24442B 24456  24509M
                                                 24512B 24532  24593M 24594M 24594B 24611M 24612M 24612B 24647M 24648M
                                                 24648B 24661M 24662M 24662B 24680M 24683B 24698  24730M 24731M 24731B
                                                 24765M 24766M 24766B 24785M 24786M 24786B 24839M 24842B 24856  24933M
                                                 24936B 24951  25075M 25078B 25093  25148M 25151B 25164  25220M 25223B
                                                 25237  25290M 25293B 25350  25395M 25396M 25396B 25413M 25416B 25436
                                                 25495M 25496M 25496B 25513M 25516B 25545  25608M 25611B 25642  25714M
                                                 25717B 25745  26006M 26007M 26007B 26057M 26058M 26058B 26079M 26080M
                                                 26080B 26104M 26105M 26105B 26128M 26129M 26129B 26146M 26147M 26147B
                                                 26153M 26154M 26154B 26185M 26188B 26223  26327M 26328M 26328B 26338M
                                                 26339M 26339B 26360M 26361M 26361B 26413M 26414M 26414B 26435M 26436M
                                                 26436B 26442M 26443M 26443B 26449M 26450M 26450B 26479M 26480M 26480B
                                                 26507M 26508M 26508B 26529M 26530M 26530B 26556M 26559B 26591  26686M
                                                 26687M 26687B 26710M 26711M 26711B 26741M 26742M 26742B 26796M 26797M
                                                 26797B 26818M 26819M 26819B 26825M 26826M 26826B 26832M 26833M 26833B
                                                 26868M 26869M 26869B 26895M 26898B 26936  27065M 27066M 27066B 27116M
                                                 27117M 27117B 27196M 27197M 27197B 27259M 27260M 27260B 27296M 27297M
                                                 27297B 27376M 27377M 27377B 27413M 27414M 27414B 27479M 27480M 27480B
                                                 27486M 27487M 27487B 27511M 27512M 27512B 27515M 27516M 27516B 27561M
                                                 27562M 27562B 27568M 27569M 27569B 27593M 27594M 27594B 27597M 27598M
                                                 27598B 27616M 27619B 27739  27965M 27966M 27966B 27994M 27995M 27995B
                                                 28024M 28025M 28025B 28113M 28114M 28114B 28150M 28153B 28219  28277M
                                                 28278M 28278B 28503M 28504M 28504B 28543M 28544M 28544B 28579M 28582B
                                                 28646  28812M 28813M 28813B 28857M 28858M 28858B 28903M 28904M 28904B
                                                 28949M 28950M 28950B 28994M 28995M 28995B 29039M 29040M 29040B 29071M
                                                 29072M 29072B 29120M 29123B 29193  29251M 29252M 29252B 29385M 29386M
                                                 29386B 29392M 29393M 29393B 29399M 29400M 29400B 29406M 29407M 29407B
                                                 29434M 29435M 29435B 29441M 29442M 29442B 29478M 29481B 29538  29640M
                                                 29643B 29672  29768M 29771B 29802  29924M 29927B 30047  30552M 30553M
                                                 30553B 30754M 30755M 30755B 30762M 30763M 30763B 30840M 30841M 30841B
                                                 30893M 30894M 30894B 30976M 30977M 30977B 30983M 30984M 30984B 31002M
                                                 31003M 31003B 31080M 31081M 31081B 31136M 31137M 31137B 31205M 31206M
                                                 31206B 31401M 31402M 31402B 31513M 31516B 31535  31587M 31590B 31604
                                                 31656M 31659B 31745  31899M 31900M 31900B 31979M 31980M 31980B 32067M
                                                 32068M 32068B 32082M 32083M 32083B 32128M 32129M 32129B 32143M 32144M
                                                 32144B 32185M 32188B 32220  32280M 32281M 32281B 32460M 32463B 32495
                                                 32654M 32657B 32688  32721M 32722M 32722B 32725M 32726M 32726B 32731M
                                                 32732M 32732B 32757M 32758M 32758B 32798M 32799M 32799B 32835M 32836M
                                                 32836B 32871M 32872M 32872B 32959M 32960M 32960B 33004M 33005M 33005B
                                                 33067M 33068M 33068B 33101M 33102M 33102B 33138M 33139M 33139B 33163M
                                                 33164M 33164B 33175M 33176M 33176B 33194M 33197B 33216  33261M 33262M
                                                 33262B 33266M 33267M 33267B 33290M 33291M 33291B 33318M 33319M 33319B
                                                 33337M 33340B 33359  33453M 33454M 33454B 33471M 33472M 33472B 33505M
                                                 33506M 33506B 33512M 33513M 33513B 33541M 33542M 33542B 33551M 33552M
                                                 33552B 33569M 33572B 33602  33637M 33638M 33638B 33647M 33648M 33648B
                                                 33691M 33694B 33728  33763M 33764M 33764B 33773M 33774M 33774B 33817M
                                                 33820B 33852  33887M 33888M 33888B 33897M 33898M 33898B 33969M 33972B
1EXEC     (EXEC2193) (12:44) (15MAR04) Ordinary Symbol and Literal Cross Reference                                          Page  199
                                                 34004  34039M 34040M 34040B 34049M 34050M 34050B 34121M 34124B 34154
                                                 34189M 34190M 34190B 34199M 34200M 34200B 34271M 34274B 34303  34338M
                                                 34339M 34339B 34348M 34349M 34349B 34392M 34395B 34439  34491M 34492M
                                                 34492B 34499M 34500M 34500B 34566M 34569B 34613  34659M 34660M 34660B
                                                 34667M 34668M 34668B 34734M 34737B 34784  34830M 34831M 34831B 34838M
                                                 34839M 34839B 34905M 34908B 34955  35001M 35002M 35002B 35009M 35010M
                                                 35010B 35076M 35079B 35182  35327M 35330B 35354  35390M 35391M 35391B
                                                 35409M 35412B 35441  35598M 35601B 35635  35675M 35676M 35676B 35704M
                                                 35705M 35705B 35733M 35734M 35734B 35761M 35762M 35762B 35779M 35780M
                                                 35780B 35849M 35850M 35850B 35863M 35864M 35864B 35887M 35888M 35888B
                                                 35905M 35906M 35906B 35930M 35933B 35959  36004M 36007B
 RDATTN        2 00002ECA 00000001     H   18586 18302
 RDBUF       235 00000014 FFFFFFDC     C   16581 17262M 17282  17641  17669  18003
 RDBUFLEN      4 00000010 FFFFFFDC     F   16580 17235M 17287  17679M
 RDCOL1        4 00000004 FFFFFFDC     F   16577 17044  17766  17772  17796  18701M
 RDCOL2        4 00000008 FFFFFFDC     F   16578 17790  17797  18702M
 RDELETE       2 00002E5C 00000001     H   18421 18062
 RDFACT      128 00000001 FFFFFFDC        16563 16699M 17630
 RDFATTN       8 00000000 FFFFFFDC        16548 17327  17603  18626M
 RDFDEL       64 00000000 FFFFFFDC        16533 17015  17846  18395M 18461M
 RDFEXEC      64 00000001 FFFFFFDC        16568 16751M 17659  18471
 RDFFROM      32 00000001 FFFFFFDC        16573 16725M
 RDFLAGS       1 00000000 FFFFFFDC     R   16524 16528  16533  16538  16543  16548  16553
 RDFLINE     128 00000000 FFFFFFDC        16528 16805  16828  17000  17551  17591  18556M
 RDFPRMPT      4 00000000 FFFFFFDC        16553 17092  17563  18792M
 RDFSTR       16 00000000 FFFFFFDC        16543 16885  19475M
 RDFVAL       32 00000000 FFFFFFDC        16538 16853  19817M
 RDLINENO      4 0000000C FFFFFFDC     F   16579 17367  17640  17670  17713  17852  18550M 18631M
 RDLNENO       2 00002E98 00000001     H   18515 18107  18122
 RDMAXVAL      1 00000008 FFFFFFDC A   U   16585 16586  19944
 RDPRMPT     235 00000104 FFFFFFDC     C   16583 17077  18805  18838M 21053
 RDPRMPTL      4 00000100 FFFFFFDC     F   16582 17082  18810M
 RDRNG         1 00000000 00000025     T   13782 13782
 RDSCFMT       2 0000309C 00000001     H   19285 18272
 RDSCNCOL      2 00002F08 00000001     H   18666 18137  18152
 RDSCNECH      2 00002F94 00000001     H   18880 18182
 RDSCNMOD      2 00003044 00000001     H   19150 18242
 RDSCNNOE      2 00002FC0 00000001     H   18948 18197
 RDSCNNOM      2 00003070 00000001     H   19218 18257
 RDSCNNOT      2 00003018 00000001     H   19082 18227
 RDSCNPRM      2 00002F38 00000001     H   18729 18092
 RDSCNSTR      2 000030F4 00000001     H   19425 18077
 RDSCNTRN      2 00002FEC 00000001     H   19015 18212
 RDSCNVAL      2 000031DC 00000001     H   19747 18167
 RDSCUFMT      2 000030C8 00000001     H   19353 18287
 RDTYPE        1 00000001 FFFFFFDC     R   16559 16563  16568  16573
 RDVLIST      20 000001F0 FFFFFFDC     C   16586 19831M 19831  19945  20645  20728  20742
 RDVNAME     336 00000204 FFFFFFDC     X   16587 19469  19542  19578  19579  19630  19811  20174  20210  20211  20262
                                                 20431  20621
 RDVVALUE    336 00000354 FFFFFFDC     X   16588 20432  20622
 RDWA       1188 00000000 FFFFFFDC     J   16595 16620  16649U 16653  16661U 16669M 16669  16670M 16670  16671M 16671
                                                 16672M 16672  16673M 16673  16938  16940  16941  19800U 20411U 20601U
 READ          2 000025D2 00000001     H   16607 16603
 READCMD       2 000035A2 00000001     H   20926 17999
 READKWS       4 00002AE8 00000001     F   18035 17992  21060
 READLINE      2 0000281E 00000001     H   17505 17995
 READSTR       2 00003428 00000001     H   20369 17998
 READTERM      2 000026E4 00000001     H   16956 17996
 READVAL       2 0000348C 00000001     H   20559 17997
1EXEC     (EXEC2193) (12:44) (15MAR04) Ordinary Symbol and Literal Cross Reference                                          Page  200
 REREADT       2 00002730 00000001     H   17067 17408B
 RESTBL1       4 000021D4 00000001     F   15693 15757
 RESTORE       2 000020A2 00000001     H   15377 15373
 RETLIBMB      1 00000000 00000029     T   13792 13792
 RLOOKUP       1 00000000 00000024     T   13779 13779
 RRAINFO     235 000001FC FFFFFFE2     C    7456 29034  29035  29437
 RRAINFOL      4 000001F8 FFFFFFE2     F    7455 29058M 29436
 RRATTNID      8 000001EF FFFFFFE2     C    7454 28989  28990  29429  29430
 RREINFO     235 00000104 FFFFFFE2     C    7453 28898  28899  29395
 RREINFOL      4 00000100 FFFFFFE2     F    7452 28922M 29394
 RREMSG      235 00000014 FFFFFFE2     C    7451 28852  28853  29388
 RREMSGL       4 00000010 FFFFFFE2     F    7450 28876M 29387
 RRERRID       8 00000008 FFFFFFE2     C    7449 28807  28808  29380  29381
 RRFLAGS       1 00000000 FFFFFFE2     R    7436  7440   7445
 RRFXXATN     64 00000000 FFFFFFE2         7445 28785M 29346  29423
 RRFXXERR    128 00000000 FFFFFFE2         7440 28759M 29320  29374
 RRSETNO       4 00000004 FFFFFFE2     F    7448 28944  28945  29401  29402
 RSLINE      235 00000004 FFFFFFDD     X   15360 15607
 RSLNO         4 00000000 FFFFFFDD     F   15359 15606M 15606  15608  15626
 RSVAREA     176 00000000 FFFFFFDB     X   19732 19966M 20025  20077
 RSVCONT       2 0000340A 00000001     H   20300 20030B 20082B
 RSVWA       176 00000000 FFFFFFDB     J   19739 19760  19789U 20337  20339  20340
 RSWA        239 00000000 FFFFFFDD     J   15367 15390  15419U 15681  15683  15684
 R0            0 00000000 FFFFFFFF A   #     699  2099   2168M  7525M  7526   7733M  7875M  7875   7884   7885   7944M
                                                  7944   7953   7954   8009M  8009   8018   8019   8091M  8134M  8160M
                                                  8161M  8161   8179M  8206M  8212   8443M  8565M  8566   8602M  8706M
                                                  8920M  8921   8957M  9094M  9158M 10404M 10437M 10551M 10557  10590M
                                                 10592M 10598  10744  10765M 11147  11327M 11327  11364  11370  11444M
                                                 11460M 11542  11542M 11980  12144M 12144  12181  12187  12333M 12489M
                                                 12627  12628  12670M 12676M 12699M 12845M 13089  13090  13132M 13138M
                                                 13161M 13345  13356M 13356  13365  13366  13367  13398M 13398  13593M
                                                 13602M 13602  13621M 13638  13657  13668M 13674  13715  13730M 13867M
                                                 13867  13876  13877  14041M 14164M 14164  14173  14174  14354M 14549M
                                                 14680M 14715M 14735M 14735  14773  14785M 14790  14791  14919M 14919
                                                 14928  14929  15052M 15074M 15108M 15130M 15150M 15150  15195M 15301M
                                                 15310M 15316M 15445M 15491M 15548M 15562M 15562  15571  15572  16103M
                                                 16109M 16283M 16366M 16445M 16764M 16764  16773  16774  17026M 17055M
                                                 17082M 17101M 17121M 17160M 17180M 17215  17287M 17399M 17399  17472
                                                 17472M 17574M 17614M 17679  17700M 17713M 17747M 17776M 17800M 17813M
                                                 17813  17823M 17823  17833  17834  17852M 17853  17889M 17910  17911
                                                 17911  17911  17913  17953M 17960  17960M 18019  18019  18019  18550
                                                 18631  18701  18793  18805M 18810  18811  19489M 19515M 19549M 19567M
                                                 19576  19577  19577  19577  19604M 19612M 19657  19846M 19846  19855
                                                 19856  19857  19885M 19885  19896M 19977M 19977  19986  19987  19988
                                                 20015M 20015  20097M 20121M 20147M 20181M 20199M 20208  20209  20209
                                                 20209  20236M 20244M 20289  20447  20490M 20490  20701M 20701  20805
                                                 20806  20806  20806  20812M 20812  20822M 20846M 20846  20854M 20962
                                                 20963  21013M 21069  21069  21069  21192M 21219M 21242  21253M 21253
                                                 21262  21263  21305M 21372M 21372  21401M 21401  21733  22431M 22446M
                                                 22446  22469M 22631M 22631  22640  22641  22681M 22738M 22756M 22999
                                                 23141  23287M 23287  23296  23297  23443M 23518M 23974M 23992M 24010M
                                                 24024M 24024  24033  24034  24165M 24413M 24491M 24582M 24600M 24618M
                                                 24632M 24632  24641  24642  24773M 25049M 25272M 26001M 26035M 26068M
                                                 26082M 26085  26097M 26135M 26148M 26322M 26334M 26391M 26424M 26437M
                                                 26444M 26474M 26474  26502M 26524M 26681M 26705M 26736M 26774M 26807M
                                                 26820M 26827M 26863M 26863  27193M 27254M 27278  27292M 27371M 27395
                                                 27409M 27468M 27481M 27500M 27500  27550M 27563M 27582M 27582  27788
                                                 27960M 27981M 27981  27986  27989M 28010M 28010  28015  28018M 28109M
                                                 28268  28271M 28498M 28538M 28695  28807M 28852M 28876  28898M 28922
1EXEC     (EXEC2193) (12:44) (15MAR04) Ordinary Symbol and Literal Cross Reference                                          Page  201
                                                 28944M 28989M 29034M 29058  29065M 29242  29245M 29380M 29387M 29394M
                                                 29401M 29429M 29436M 30166  30169M 30310  30476  30519  30532M 30558M
                                                 30607  30751M 30757M 30890M 30895M 30934M 30956M 30958  30959  30959
                                                 30959  30965M 30980M 30991M 31142  31251M 31252M 31275  31341  31342
                                                 31407M 31409M 31410M 31413  31489M 31491  31491M 31569M 31638M 31682
                                                 31682  31682  31803M 31820M 31820  31842M 31858M 31858  31880M 31890
                                                 31919M 31919  31957  32016M 32016  32026M 32058M 32058  32119M 32119
                                                 32272M 32300M 32300  32765M 32800  32837  32879M 32966M 33171M 33250M
                                                 33263M 33307M 33442M 33442  33460M 33494M 33507M 33530M 33530  33633M
                                                 33642M 33663  33665  33674  33674M 33768M 33789  33791  33800  33800M
                                                 33883M 33892M 33916  33918  33945M 33945  33952  33952M 34035M 34044M
                                                 34068  34070  34097M 34097  34104  34104M 34186M 34194M 34218  34220
                                                 34247M 34247  34254  34254M 34335M 34343M 34364  34366  34375  34375M
                                                 34487M 34513M 34536M 34536  34544  34544M 34655M 34681M 34704M 34704
                                                 34712  34712M 34823  34826M 34852M 34875M 34875  34883  34883M 34994
                                                 34997M 35023M 35046M 35046  35054  35054M 35302M 35303M 35310  35310M
                                                 35482  35689  35690  35690  35690  35722M 35750M 35768M 35788M 35791M
                                                 35793M 35824  35835M 35835  35844  35845  35846  35894M 35913  35913M
                                                 36031  36031  36031
 R1            1 00000001 FFFFFFFF A   #     712  2162M  2163M  2169M  7732M  7871M  7884   7885   7887   7940M  7953
                                                  7954   7956   8005M  8018   8019   8021   8090M  8133M  8178M  8205M
                                                  8442M  8601M  8707M  8956M  9089M  9095M  9159M 10403M 10436M 10550M
                                                 10556  10588M 10597  10764M 11443M 11459M 11536M 12322M 12323  12334M
                                                 12478M 12479  12490M 12677M 12698M 12820M 12821  12846M 13139M 13160M
                                                 13344  13352M 13365  13366  13367  13388M 13389M 13389  13588M 13616M
                                                 13667M 13729M 13863M 13876  13877  13879  14040M 14160M 14173  14174
                                                 14176  14353M 14548M 14685  14714M 14741M 14915M 14928  14929  14931
                                                 15051M 15073M 15107M 15129M 15157M 15194M 15300M 15444M 15490M 15547M
                                                 15558M 15571  15572  15574  15607M 15985M 15986  15987M 15988  15989M
                                                 15990  16282M 16760M 16773  16774  16776  17025M 17054M 17077M 17100M
                                                 17120M 17159M 17179M 17282M 17472  17573M 17613M 17641M 17669M 17699M
                                                 17746M 17775M 17835  17853M 17890M 17910  17911  17911  17911  17953M
                                                 17960  18019  18019  18019  18702  19488M 19514M 19542M 19566M 19576
                                                 19577  19577  19577  19578M 19603M 19612M 19656  19842M 19855  19856
                                                 19857  19895M 19973M 19986  19987  19988  20052M 20053M 20053  20054
                                                 20096M 20120M 20146M 20174M 20198M 20208  20209  20209  20209  20210M
                                                 20235M 20244M 20288  20491M 20702M 20805  20806  20806  20806  20813M
                                                 20822M 20852M 20852  21012M 21069  21069  21069  21191M 21218M 21241
                                                 21249M 21262  21263  21265  21304M 22430M 22467M 22627M 22640  22641
                                                 22643  22680M 22737M 22755M 23283M 23296  23297  23299  23442M 23517M
                                                 23973M 23991M 24009M 24020M 24033  24034  24036  24164M 24412M 24490M
                                                 24581M 24599M 24617M 24628M 24641  24642  24644  24772M 25048M 25271M
                                                 25909M 25910  26002M 26032  26033  26033  26033  26034M 26061M 26067M
                                                 26081M 26134M 26149M 26323M 26332M 26388  26389  26389  26389  26390M
                                                 26417M 26423M 26438M 26445M 26475M 26503M 26525M 26682M 26706M 26737M
                                                 26771  26772  26772  26772  26773M 26800M 26806M 26821M 26828M 26864M
                                                 27192M 27255M 27293M 27372M 27410M 27467M 27482M 27549M 27564M 27668
                                                 27668  27668  27961M 27990M 28019M 28108M 28272M 28499M 28539M 28808M
                                                 28853M 28899M 28945M 28990M 29035M 29066M 29246M 29381M 29388M 29395M
                                                 29402M 29430M 29437M 29864M 29865M 29865  29866  30086  30164  30169
                                                 30195  30214M 30259  30299M 30310  30379M 30404  30450  30519  30526M
                                                 30526  30532  30558  30607  30654  30751  30757  30758  30889M 30889
                                                 30890  30895  30933M 30956  30958  30959  30959  30959  30964M 30980M
                                                 30990M 30997M 30997  30998  31143  31182M 31184  31225M 31253M 31255M
                                                 31256M 31257  31276  31341M 31412M 31414  31471M 31489  31568M 31637M
                                                 31682  31682  31682  31802M 31840M 31878M 31889  32024M 32271M 32737M
                                                 32749  32764M 32774M 32786  32794M 32831M 32878M 32965M 33172M 33249M
                                                 33303M 33438M 33459M 33493M 33508M 33662  33788  33915  34067  34217
                                                 34363  35212  35228  35303  35689  35690  35690  35690  35699  35701M
1EXEC     (EXEC2193) (12:44) (15MAR04) Ordinary Symbol and Literal Cross Reference                                          Page  202
                                                 35721M 35745M 35767M 35788M 35789M 35789  35823  35831M 35844  35845
                                                 35846  35893M 35913  36031  36031  36031
 R12          12 0000000C FFFFFFFF A   #     855  2125
 R13          13 0000000D FFFFFFFF A   #     868  7879   7880   7881   7897   7898   7899   7948   7949   7950   7966
                                                  7967   7968   8013   8014   8015   8031   8032   8033  13360  13361
                                                 13362  13377  13378  13379  13871  13872  13873  13889  13890  13891
                                                 14168  14169  14170  14186  14187  14188  14923  14924  14925  14941
                                                 14942  14943  15566  15567  15568  15584  15585  15586  16768  16769
                                                 16770  16786  16787  16788  19837  19850  19851  19852  19867  19868
                                                 19869  19981  19982  19983  19998  19999  20000  21014M 21257  21258
                                                 21259  21275  21276  21277  22635  22636  22637  22653  22654  22655
                                                 23291  23292  23293  23309  23310  23311  24028  24029  24030  24046
                                                 24047  24048  24636  24637  24638  24654  24655  24656  35839  35840
                                                 35841  35856  35857  35858
 R14          14 0000000E FFFFFFFF A   #     881  2100M  7878M  7879   7880   7881   7886M  7887   7894M  7897   7898
                                                  7899   7947M  7948   7949   7950   7955M  7956   7963M  7966   7967
                                                  7968   8012M  8013   8014   8015   8020M  8021   8028M  8031   8032
                                                  8033  10549M 10550  10551  10555M 10555  13343M 13344  13345  13349M
                                                 13349  13359M 13360  13361  13362  13374M 13377  13378  13379  13870M
                                                 13871  13872  13873  13878M 13879  13886M 13889  13890  13891  14167M
                                                 14168  14169  14170  14175M 14176  14183M 14186  14187  14188  14713M
                                                 14714  14715  14719M 14719  14922M 14923  14924  14925  14930M 14931
                                                 14938M 14941  14942  14943  15565M 15566  15567  15568  15573M 15574
                                                 15581M 15584  15585  15586  16767M 16768  16769  16770  16775M 16776
                                                 16783M 16786  16787  16788  19487M 19488  19489  19493M 19493  19655M
                                                 19656  19657  19661M 19661  19665M 19666  19670M 19670  19836M 19837
                                                 19849M 19850  19851  19852  19864M 19867  19868  19869  19873M 19876
                                                 19965M 19970M 19970  19980M 19981  19982  19983  19995M 19998  19999
                                                 20000  20024M 20029M 20029  20076M 20081M 20081  20119M 20120  20121
                                                 20125M 20125  20287M 20288  20289  20293M 20293  20304M 20305  20309M
                                                 20309  21190M 21191  21192  21196M 21196  21240M 21241  21242  21246M
                                                 21246  21256M 21257  21258  21259  21264M 21265  21272M 21275  21276
                                                 21277  22429M 22430  22431  22435M 22435  22634M 22635  22636  22637
                                                 22642M 22643  22650M 22653  22654  22655  23290M 23291  23292  23293
                                                 23298M 23299  23306M 23309  23310  23311  23387M 23388  23403  23418
                                                 23419  23420  23420  23421  23422  23435  23439M 23439  24027M 24028
                                                 24029  24030  24035M 24036  24043M 24046  24047  24048  24635M 24636
                                                 24637  24638  24643M 24644  24651M 24654  24655  24656  26028M 26032
                                                 26033  26033  26033  26034  26061M 26384M 26388  26389  26389  26389
                                                 26390  26417M 26767M 26771  26772  26772  26772  26773  26800M 27668
                                                 27668  27668  31801M 31802  31803  31807M 31807  31888M 31889  31890
                                                 31894M 31894  32270M 32271  32272  32276M 32276  35215M 35822M 35823
                                                 35824  35828M 35828  35838M 35839  35840  35841  35853M 35856  35857
                                                 35858
 R15          15 0000000F FFFFFFFF A   #     894  2099   7521M  7522   7523M  7524   7531M  7531   7550M  7550   7900M
                                                  7900   7969M  7969   8034M  8034   8370M  8370   8498M  8498   8561M
                                                  8562   8563M  8564   8859M  8859   8916M  8917   8918M  8919   9078M
                                                  9078   9238M  9238  10116M 10116  10190M 10190  10263M 10263  10336M
                                                 10336  10446M 10446  10465M 10465  10558M 10602M 10602  10623M 10623
                                                 10696M 10696  10780M 10780  10799M 10799  10848M 10848  10867M 10867
                                                 10940M 10940  11014M 11014  11080M 11080  11099M 11099  11174M 11174
                                                 11193M 11193  11252M 11252  11271M 11271  11378M 11378  11397M 11397
                                                 11452M 11480M 11480  11561M 11561  11795M 11795  11863M 11863  11938M
                                                 11938  12007M 12007  12026M 12026  12094M 12094  12195M 12195  12214M
                                                 12214  12384M 12384  12408M 12408  12540M 12540  12564M 12564  12625M
                                                 12626  12669M 12675M 12741M 12741  12863M 12863  12884M 12884  12951M
                                                 12956M 13027M 13027  13087M 13088  13131M 13137M 13236M 13236  13380M
                                                 13380  13448M 13448  13467M 13467  13761M 13761  13892M 13892  13923M
                                                 13923  14030M 14066M 14074M 14074  14093M 14093  14189M 14189  14221M
1EXEC     (EXEC2193) (12:44) (15MAR04) Ordinary Symbol and Literal Cross Reference                                          Page  203
                                                 14221  14343M 14379M 14387M 14387  14406M 14406  14455M 14455  14474M
                                                 14474  14589M 14589  14791M 14795M 14804M 14804  14811  14855M 14855
                                                 14944M 14944  14973M 14973  15060M 15082M 15138M 15146M 15185M 15203M
                                                 15227M 15227  15309M 15315M 15342M 15342  15587M 15587  15626M 15685M
                                                 15685  15854M 15854  15933M 15933  16007M 16007  16026M 16026  16085M
                                                 16090M 16095M 16102M 16108M 16191M 16191  16210M 16210  16292M 16292
                                                 16311M 16311  16365M 16390M 16390  16444M 16469M 16469  16789M 16789
                                                 16942M 16942  17208M 17208  17289M 17289  17312  17336M 17346U 17385
                                                 17425  17491M 17491  17640M 17689M 17689  17708M 17737M 17877M 17878M
                                                 17879  17912M 17979M 17979  18414M 18414  18488M 18488  18507M 18507
                                                 18560M 18560  18579M 18579  18639M 18639  18658M 18658  18721M 18721
                                                 18853M 18853  18872M 18872  18940M 18940  19007M 19007  19074M 19074
                                                 19142M 19142  19210M 19210  19277M 19277  19345M 19345  19412M 19412
                                                 19557M 19674M 19674  19678M 19678  19697M 19697  19870M 19870  19921M
                                                 19938M 19938  20001M 20001  20189M 20313M 20313  20317M 20317  20341M
                                                 20341  20518M 20518  20893M 20893  21037M 21037  21278M 21278  21325M
                                                 21339M 21380M 21409M 21454M 21464U 21514M 21514  21741M 21741  21760M
                                                 21760  21827M 21827  21898M 21898  21966M 21966  22034M 22034  22101M
                                                 22101  22169M 22169  22236M 22236  22303M 22303  22370M 22370  22493M
                                                 22517M 22517  22656M 22656  22746M 22762M 22779M 22779  22799M 22799
                                                 22818M 22828U 22878M 22878  23005M 23005  23024M 23024  23076M 23076
                                                 23095M 23095  23151M 23151  23170M 23170  23312M 23312  23337M 23337
                                                 23388M 23397M 23397  23403M 23412M 23412  23418M 23419M 23421M 23422
                                                 23434M 23434  23435  23467M 23467  23538M 23538  23982M 24000M 24049M
                                                 24049  24074M 24074  24154M 24208M 24208  24227M 24227  24288M 24288
                                                 24307M 24307  24422M 24422  24441M 24441  24511M 24511  24590M 24608M
                                                 24657M 24657  24682M 24682  24762M 24822M 24822  24841M 24841  24916M
                                                 24916  24935M 24935  25058M 25058  25077M 25077  25131M 25131  25150M
                                                 25150  25203M 25203  25222M 25222  25292M 25292  25415M 25415  25515M
                                                 25515  25591M 25591  25610M 25610  25697M 25697  25716M 25716  26054M
                                                 26076M 26125M 26143M 26168M 26168  26187M 26187  26410M 26432M 26539M
                                                 26539  26558M 26558  26793M 26815M 26878M 26878  26897M 26897  27476M
                                                 27508M 27558M 27590M 27618M 27618  28128M 28128  28152M 28152  28557M
                                                 28557  28581M 28581  29098M 29098  29122M 29122  29456M 29456  29480M
                                                 29480  29642M 29642  29770M 29770  29926M 29926  30533M 30567M 30567
                                                 30821M 30831  30904M 30904  30923M 30923  30973M 31061M 31071  31382M
                                                 31392  31515M 31515  31589M 31589  31658M 31658  32163M 32163  32187M
                                                 32187  32319M 32337M 32355M 32373M 32391M 32409M 32434M 32434  32462M
                                                 32462  32533M 32555M 32555  32581M 32581  32607M 32607  32633M 32633
                                                 32656M 32656  33196M 33196  33258M 33287M 33315M 33339M 33339  33391M
                                                 33392M 33393  33420  33438  33450M 33468M 33502M 33538M 33571M 33571
                                                 33634M 33641M 33693M 33693  33760M 33767M 33819M 33819  33884M 33891M
                                                 33909M 33909  33935M 33935  33971M 33971  34036M 34043M 34061M 34061
                                                 34087M 34087  34123M 34123  34185M 34193M 34211M 34211  34237M 34237
                                                 34273M 34273  34334M 34342M 34394M 34394  34488M 34495M 34517M 34517
                                                 34537M 34568M 34568  34656M 34663M 34685M 34685  34705M 34736M 34736
                                                 34827M 34834M 34856M 34856  34876M 34907M 34907  34998M 35005M 35027M
                                                 35027  35047M 35078M 35078  35214M 35308M 35308  35329M 35329  35411M
                                                 35411  35470M 35569M 35569  35600M 35600  35730M 35758M 35776M 35781M
                                                 35859M 35859  35884M 35902M 35907M 35932M 35932  36006M 36006
 R2            2 00000002 FFFFFFFF A   #     725  8708M  9096M 12678M 13140M 13633M 13638M 13642M 13646M 13646  13715M
                                                 13717M 13718  15608M 17215M 17218  17230M 17235  17239M 17248M 17248
                                                 17255  17670M 17772M 17774M 17775  17776  17796M 17798  17834M 17889
                                                 17913M 17922M 17922  17930M 17932  18811M 18815M 18824M 18824  18831
                                                 19467U 19469M 19494M 19579M 19630M 19809U 19811M 20126M 20211M 20262M
                                                 20492M 20652M 20703M 20763M 20814M 20963M 20967M 20976M 20976  20983
                                                 21174M 21182U 22691M 22691  22692M 22704  24174M 24782M 25814M 25830
                                                 25882  25888M 25888  25903  25910M 25929M 25929  25945  25955M 25955
                                                 25980M 25980  25995M 25995  26001  26003M 26150M 26324M 26335M 26357M
1EXEC     (EXEC2193) (12:44) (15MAR04) Ordinary Symbol and Literal Cross Reference                                          Page  204
                                                 26439M 26446M 26476M 26504M 26526M 26683M 26707M 26738M 26822M 26829M
                                                 26865M 27256M 27373M 27483M 27565M 27962M 27991M 28020M 28110M 28273M
                                                 28500M 28540M 28809M 28854M 28900M 28946M 28991M 29036M 29067M 29247M
                                                 29382M 29389M 29396M 29403M 29431M 29438M 30108M 30130  30135M 30157
                                                 30167M 30167  30235M 30235  30253  30423  30742U 30750M 30880U 30888M
                                                 31277M 31277  31791U 31896M 32266U 32277M 32531U 32795M 32832M 33509M
                                                 33662M 33663M 33667M 33788M 33789M 33793M 33915M 33916M 33920M 33941
                                                 34067M 34068M 34072M 34093  34217M 34218M 34222M 34243  34363M 34364M
                                                 34368M 34496M 34664M 34835M 35006M 35222  35224  35225M 35225  35241
                                                 35247  35248  35249M 35249  35279  35294M 35387M 35488M 35488  35489M
                                                 35490M 35505  35517  35529  35671U
 R3            3 00000003 FFFFFFFF A   #     738 12628M 12632M 12641M 12641  12648  13090M 13094M 13103M 13103  13110
                                                 13674M 13678M 13687M 13687  13694  17797M 17798M 17799M 17799  17800
                                                 17835M 17890  19944M 19956M 19956  20057M 20447M 20448  20452M 20461M
                                                 20461  20468  20742M 20808  20859M 20859  22623M 22623  22670M 22670
                                                 22711M 22727  22762  22999M 23001  23001M 25815M 25824M 25824  25830M
                                                 25832M 25851M 25882  25903  28021M 28274M 29068M 29248M 30114M 30124M
                                                 30124  30130  30141M 30151M 30151  30157  30166M 30178M 30178  30186M
                                                 30188  30259M 30260M 30269M 30269  30277M 30279  30294  30376M 30378
                                                 30450M 30476  30654M 30655M 30657M 30675M 30688M 30688  30696M 30698
                                                 30713  30782M 30791M 30791  30799M 30801  30816  31022M 31031M 31031
                                                 31039M 31041  31056  31113M 31114M 31114  31115  31127  31142M 31143M
                                                 31152M 31152  31160M 31162  31177  31183M 31184M 31196  31219M 31219
                                                 31228M 31230  31249M 31250  31254M 31255  31275M 31276M 31286M 31286
                                                 31294M 31296  31342M 31343M 31352M 31352  31360M 31362  31377  31408M
                                                 31409  31413M 31414M 31423M 31423  31431M 31433  33664M 33665M 33790M
                                                 33791M 33917M 33918M 34069M 34070M 34219M 34220M 34365M 34366M 35222M
                                                 35224M 35224  35241  35491M 35505
 R4            4 00000004 FFFFFFFF A   #     751 13647M 13657  13716M 13717  19945M 20054  20055M 20055  20429U 20432M
                                                 20619U 20622M 22624M 22812  22849  23141M 23147  23147M 26679M 26682
                                                 26706  30165M 30294M 30294  30317M 30380M 30398M 30713M 30713  30718
                                                 30816M 30816  30831  31056M 31056  31071  31177M 31177  31183  31250M
                                                 31252  31258M 31377M 31377  31392  31407  31411M 33667M 33793M 33920M
                                                 34072M 34222M 34368M 35212M 35215M 35226M 35226  35247M 35250M 35253
                                                 35492M 35517
 R5            5 00000005 FFFFFFFF A   #     764 16653M 16661U 19800U 20411U 20601U 30164M 30214  30260  30404M 30655
                                                 30758M 30998M 31257M 31343  33666M 33792M 33919M 34071M 34221M 34367M
                                                 35213M 35227M 35227  35248M 35251M 35252M 35262M 35262  35270M 35272
                                                 35289M 35294  35295  35493M 35529
 R6            6 00000006 FFFFFFFF A   #     777  7701M  7709U  9312U 12612M 12620U 13074M 13082U 13301M 13309U 13570M
                                                 13578U 14673M 14674M 14674  14685M 14686  14699U 20420U 20431M 20610U
                                                 20621M 21164M 21172U 22602M 22610U 26627U 26629M 26965M 26973U 27785U
                                                 27787M 28265U 28267M 28692U 28694M 29239U 29241M 29574U 29576M 29708U
                                                 29710M 29838U 29840M 35228M 35253M 35279  35295M 35302
 R7            7 00000007 FFFFFFFF A   #     790  2092M  2092   2093B  2105B
 R8            8 00000008 FFFFFFFF A   #     803  7697U 12318U 12473U 12815U 13558U 15419U 16649U 19789U 21014  21160U
                                                 22598U 27774U 28254U 28681U 29228U 30082U 31780U 32255U 34474U 34648U
                                                 34819U 34990U
 SAVEDATA      1 00000000 0000000D     T    9282  9282  25317  27654  29509  36021
 SAVEVAR       1 00000000 0000004A     T   21064 21064
 SAVEVSTK      1 00000000 00000058     T   29508 29508
 SCANAUTO      2 0000126C 00000001     H   11404 11578  11593
 SCANCHK       1 00000000 00000004     T    9262  9262  13791  15735  17994  21063  23192  25309  36029
 SCANFROM      2 000010E2 00000001     H   10806  9602
 SCANLNO       2 00001098 00000001     H   10703  9496   9511   9752   9767   9948   9963
 SCANLOG       2 00001112 00000001     H   10875  9436   9692   9888
 SCANNLOG      2 00001142 00000001     H   10948  9451   9707   9903
 SCANNPRM      2 00001068 00000001     H   10631  9541   9797   9993
 SCANPA        2 00000ECC 00000001     H   10051  9406   9662   9858
1EXEC     (EXEC2193) (12:44) (15MAR04) Ordinary Symbol and Literal Cross Reference                                          Page  205
 SCANPARM      2 00000FEC 00000001     H   10472  9526   9782   9978
 SCNDEL        2 00000F2C 00000001     H   10198  9346
 SCNEXFR       1 00000000 00000002     T    9259  9259  17991
 SCNINVAL      1 00000000 0000001D     T    9586  9586   9842  10038  13955  14268  15720  18347  21688  22958  23754
                                                 23905
 SCNLINS       2 00000F8C 00000001     H   10343  9376   9391   9632   9647
 SCNNODEL      2 00000EFC 00000001     H   10124  9361
 SCNNOOP       1 00000000 00000016     T    9331  9331   9466   9481   9722   9737   9918   9933  11698  11713  18332
 SCNSAVE       2 00000F5C 00000001     H   10271  9421   9677   9873
 SCNVNAME      1 00000000 00000045     T   21054 21054  35097
 SCPMDONE      2 0000105A 00000001     H   10604 10559B
 SDSNQSZ       1 0000002C FFFFFFEC A   U    6080  6081   6082
 SEG           1 00000000 0000002C     T   15738 15738  18012  23194  25313  27656  35119  36026
 SEGB          1 00000000 00000023     T   13777 13777  15750  18014  35121
 SEGCLR        1 00000000 00000028     T   13788 13788
 SEGCR         1 00000000 00000050     T   23196 23196  25311  27666  31676
 SEGDC         1 00000000 00000060     T   35123 35123
 SEGINIT       1 00000000 00000054     T   27655 27655
 SEGMARK       1 00000000 0000004F     T   23195 23195
 SEGT          1 00000000 00000046     T   21055 21055  36027
 SEGVNAME      1 00000000 00000048     T   21057 21057
 SEGWR         1 00000000 00000031     T   15752 15752  23197  35122
 SEGXLNO       1 00000000 00000056     T   27660 27660  35124
 SETATTN       2 00004D2E 00000001     H   26585 26581  27662
 SETELIM       2 0000152C 00000001     H   11945 11638
 SETELLM       2 00001598 00000001     H   12101 11668
 SETELOG       2 000014A0 00000001     H   11736 11608
 SETEMSG       2 00004AA0 00000001     H   25739 25735
 SETENLIM      2 000014F8 00000001     H   11871 11653
 SETENLLM      2 0000156A 00000001     H   12034 11683
 SETENLOG      2 000014CC 00000001     H   11803 11623
 SETERROR      2 00004BE4 00000001     H   26217 26213  27663
 SETPARM       2 000066D2 00000001     H   35348 35344
 SETPARM       1 00000000 00000006     T    9266  9266
 SETPAUSE      2 0000237A 00000001     H   15794  9271  15742  15790  16480  27667  35106
 SETVAL        1 00000000 0000005C     T   35101 35101
 SETXLINE      1 00000000 0000005F     T   35117 35117
 SETXNAME      1 00000000 00000013     T    9289  9289
 SHOWEXEC      2 00001EE4 00000001     H   14878 14874
 SHOXPRT       4 00001F70 00000001     F   14977 15748
 SKIP          1 00000008 00000001 A   U   30030 30135  31669
 SLICECHK      1 00000000 00000061     T   35125 35125
 SPR          13 0000000D 00000001 A   #    1104  7489   7492   7493   7494M  7494   7542M  7546   7548   7662   7665
                                                  7667   7668M  7668   8362M  8366   8368   8386   8389   8390   8391M
                                                  8391   8490M  8494   8496   8524   8527   8528   8529M  8529   8851M
                                                  8855   8857   8885   8888   8889   8890M  8890   9230M  9234   9236
                                                 10057  10060  10061  10062M 10062  10108M 10112  10114  10130  10133
                                                 10134  10135M 10135  10182M 10186  10188  10204  10207  10208  10209M
                                                 10209  10255M 10259  10261  10277  10280  10281  10282M 10282  10328M
                                                 10332  10334  10349  10352  10353  10354M 10354  10457M 10461  10463
                                                 10478  10481  10482  10483M 10483  10615M 10619  10621  10637  10640
                                                 10641  10642M 10642  10688M 10692  10694  10709  10712  10713  10714M
                                                 10714  10791M 10795  10797  10812  10815  10816  10817M 10817  10859M
                                                 10863  10865  10881  10884  10885  10886M 10886  10932M 10936  10938
                                                 10954  10957  10958  10959M 10959  11006M 11010  11012  11028  11031
                                                 11032  11033M 11033  11091M 11095  11097  11112  11115  11116  11117M
                                                 11117  11185M 11189  11191  11207  11210  11211  11212M 11212  11263M
                                                 11267  11269  11284  11287  11288  11289M 11289  11389M 11393  11395
                                                 11410  11413  11414  11415M 11415  11472M 11476  11478  11507  11510
1EXEC     (EXEC2193) (12:44) (15MAR04) Ordinary Symbol and Literal Cross Reference                                          Page  206
                                                 11511  11512M 11512  11553M 11557  11559  11742  11745  11746  11747M
                                                 11747  11787M 11791  11793  11809  11812  11813  11814M 11814  11855M
                                                 11859  11861  11877  11880  11881  11882M 11882  11930M 11934  11936
                                                 11951  11954  11955  11956M 11956  12018M 12022  12024  12040  12043
                                                 12044  12045M 12045  12086M 12090  12092  12107  12110  12111  12112M
                                                 12112  12206M 12210  12212  12283  12286  12288  12289M 12289  12400M
                                                 12404  12406  12438  12441  12443  12444M 12444  12556M 12560  12562
                                                 12582  12585  12586  12587M 12587  12733M 12737  12739  12780  12783
                                                 12785  12786M 12786  13019M 13023  13025  13045  13048  13049  13050M
                                                 13050  13228M 13232  13234  13271  13274  13275  13276M 13276  13459M
                                                 13463  13465  13523  13526  13528  13529M 13529  13753M 13757  13759
                                                 13830  13833  13834  13835M 13835  13915M 13919  13921  13967  13970
                                                 13971  13972M 13972  14085M 14089  14091  14117  14120  14121  14122M
                                                 14122  14213M 14217  14219  14280  14283  14284  14285M 14285  14398M
                                                 14402  14404  14419  14422  14423  14424M 14424  14466M 14470  14472
                                                 14498  14501  14502  14503M 14503  14581M 14585  14587  14632  14635
                                                 14636  14637M 14637  14847M 14851  14853  14884  14887  14888  14889M
                                                 14889  14965M 14969  14971  15002  15005  15006  15007M 15007  15219M
                                                 15223  15225  15250  15253  15254  15255M 15255  15334M 15338  15340
                                                 15384  15387  15389  15390M 15390  15677M 15681  15683  15800  15803
                                                 15804  15805M 15805  15846M 15850  15852  15876  15879  15880  15881M
                                                 15881  15925M 15929  15931  15954  15957  15958  15959M 15959  16018M
                                                 16022  16024  16053  16056  16057  16058M 16058  16202M 16206  16208
                                                 16233  16236  16237  16238M 16238  16303M 16307  16309  16335  16338
                                                 16339  16340M 16340  16382M 16386  16388  16414  16417  16418  16419M
                                                 16419  16461M 16465  16467  16614  16617  16619  16620M 16620  16934M
                                                 16938  16940  16962  16965  16966  16967M 16967  17483M 17487  17489
                                                 17511  17514  17515  17516M 17516  17971M 17975  17977  18360  18363
                                                 18364  18365M 18365  18406M 18410  18412  18427  18430  18431  18432M
                                                 18432  18499M 18503  18505  18521  18524  18525  18526M 18526  18571M
                                                 18575  18577  18592  18595  18596  18597M 18597  18650M 18654  18656
                                                 18672  18675  18676  18677M 18677  18713M 18717  18719  18735  18738
                                                 18739  18740M 18740  18864M 18868  18870  18886  18889  18890  18891M
                                                 18891  18932M 18936  18938  18954  18957  18958  18959M 18959  18999M
                                                 19003  19005  19021  19024  19025  19026M 19026  19066M 19070  19072
                                                 19088  19091  19092  19093M 19093  19134M 19138  19140  19156  19159
                                                 19160  19161M 19161  19202M 19206  19208  19224  19227  19228  19229M
                                                 19229  19269M 19273  19275  19291  19294  19295  19296M 19296  19337M
                                                 19341  19343  19359  19362  19363  19364M 19364  19404M 19408  19410
                                                 19431  19434  19435  19436M 19436  19689M 19693  19695  19754  19757
                                                 19759  19760M 19760  20333M 20337  20339  20375  20378  20379  20380M
                                                 20380  20510M 20514  20516  20565  20568  20569  20570M 20570  20885M
                                                 20889  20891  20932  20935  20936  20937M 20937  21029M 21033  21035
                                                 21125  21128  21130  21131M 21131  21506M 21510  21512  21700  21703
                                                 21704  21705M 21705  21752M 21756  21758  21774  21777  21778  21779M
                                                 21779  21819M 21823  21825  21841  21844  21845  21846M 21846  21890M
                                                 21894  21896  21912  21915  21916  21917M 21917  21958M 21962  21964
                                                 21980  21983  21984  21985M 21985  22026M 22030  22032  22048  22051
                                                 22052  22053M 22053  22093M 22097  22099  22115  22118  22119  22120M
                                                 22120  22161M 22165  22167  22183  22186  22187  22188M 22188  22228M
                                                 22232  22234  22250  22253  22254  22255M 22255  22295M 22299  22301
                                                 22317  22320  22321  22322M 22322  22362M 22366  22368  22398  22401
                                                 22402  22403M 22403  22509M 22513  22515  22563  22566  22568  22569M
                                                 22569  22870M 22874  22876  22970  22973  22974  22975M 22975  23016M
                                                 23020  23022  23038  23041  23042  23043M 23043  23087M 23091  23093
                                                 23108  23111  23112  23113M 23113  23162M 23166  23168  23250  23253
                                                 23254  23255M 23255  23329M 23333  23335  23355  23358  23359  23360M
                                                 23360  23459M 23463  23465  23483  23486  23487  23488M 23488  23530M
                                                 23534  23536  23924  23927  23928  23929M 23929  24066M 24070  24072
1EXEC     (EXEC2193) (12:44) (15MAR04) Ordinary Symbol and Literal Cross Reference                                          Page  207
                                                 24090  24093  24094  24095M 24095  24219M 24223  24225  24242  24245
                                                 24246  24247M 24247  24299M 24303  24305  24322  24325  24326  24327M
                                                 24327  24433M 24437  24439  24456  24459  24460  24461M 24461  24503M
                                                 24507  24509  24532  24535  24536  24537M 24537  24674M 24678  24680
                                                 24698  24701  24702  24703M 24703  24833M 24837  24839  24856  24859
                                                 24860  24861M 24861  24927M 24931  24933  24951  24954  24955  24956M
                                                 24956  25069M 25073  25075  25093  25096  25097  25098M 25098  25142M
                                                 25146  25148  25164  25167  25168  25169M 25169  25214M 25218  25220
                                                 25237  25240  25241  25242M 25242  25284M 25288  25290  25350  25353
                                                 25354  25355M 25355  25407M 25411  25413  25436  25439  25440  25441M
                                                 25441  25507M 25511  25513  25545  25548  25549  25550M 25550  25602M
                                                 25606  25608  25642  25645  25646  25647M 25647  25708M 25712  25714
                                                 25745  25748  25749  25750M 25750  26179M 26183  26185  26223  26226
                                                 26227  26228M 26228  26550M 26554  26556  26591  26594  26595  26596M
                                                 26596  26889M 26893  26895  26936  26939  26940  26941M 26941  27610M
                                                 27614  27616  27739  27742  27744  27745M 27745  28144M 28148  28150
                                                 28219  28222  28224  28225M 28225  28573M 28577  28579  28646  28649
                                                 28651  28652M 28652  29114M 29118  29120  29193  29196  29198  29199M
                                                 29199  29472M 29476  29478  29538  29541  29542  29543M 29543  29634M
                                                 29638  29640  29672  29675  29676  29677M 29677  29762M 29766  29768
                                                 29802  29805  29806  29807M 29807  29918M 29922  29924  30047  30050
                                                 30052  30053M 30053  31507M 31511  31513  31535  31538  31539  31540M
                                                 31540  31581M 31585  31587  31604  31607  31608  31609M 31609  31650M
                                                 31654  31656  31745  31748  31750  31751M 31751  32179M 32183  32185
                                                 32220  32223  32225  32226M 32226  32454M 32458  32460  32495  32498
                                                 32499  32500M 32500  32648M 32652  32654  32688  32691  32692  32693M
                                                 32693  33188M 33192  33194  33216  33219  33220  33221M 33221  33331M
                                                 33335  33337  33359  33362  33363  33364M 33364  33563M 33567  33569
                                                 33602  33605  33606  33607M 33607  33685M 33689  33691  33728  33731
                                                 33732  33733M 33733  33811M 33815  33817  33852  33855  33856  33857M
                                                 33857  33963M 33967  33969  34004  34007  34008  34009M 34009  34115M
                                                 34119  34121  34154  34157  34158  34159M 34159  34265M 34269  34271
                                                 34303  34306  34307  34308M 34308  34386M 34390  34392  34439  34442
                                                 34444  34445M 34445  34560M 34564  34566  34613  34616  34618  34619M
                                                 34619  34728M 34732  34734  34784  34787  34789  34790M 34790  34899M
                                                 34903  34905  34955  34958  34960  34961M 34961  35070M 35074  35076
                                                 35182  35185  35186  35187M 35187  35321M 35325  35327  35354  35357
                                                 35358  35359M 35359  35403M 35407  35409  35441  35444  35445  35446M
                                                 35446  35592M 35596  35598  35635  35638  35639  35640M 35640  35924M
                                                 35928  35930  35959  35962  35963  35964M 35964  35998M 36002  36004
 STEXEKWS      4 000012E8 00000001     F   11566 13778
 STEXEPSH      2 000012B2 00000001     H   11501 11497
 TRASHATN      2 00005712 00000001     H   29796 29792
 TRC           1 00000000 00000000 A   T    2121  2121
 TREAD         1 00000000 0000003D     T   18002 18002
 TTYFLAG       1 00000004 FFFFFFEA     R    6209  6213
 TTYMAX#       1 00000006 FFFFFFEA A   U    6265  6266
 TTYTFLAG      1 00000005 FFFFFFEA     R    6219  6223   6228   6233   6238   6243   6248   6253
 UNPRST        1 00000001 FFFFFFEC A   U    6169 13780  13784
 UPPTBL        1 00000000 00000000 A   T    2184  2184
 VNADATA      48 00000020 FFFFFFE6     X    6962  7139   7139
 VNAFLAGS      1 00000011 FFFFFFE6     R    6943  6947
 VNAREA        1 00000024 FFFFFFE6     U    7080  7082   7086   7092   7141   7147   7152   7158
 VNARRAY       4 00000020 FFFFFFE6         7006  7323   7323  19624  20256
 VNATYPE       1 00000030 FFFFFFE6     R    7099  7108   7118   7128
 VNBOOL        3 00000020 FFFFFFE6         6996  7319   7319
 VNDATA       16 00000020 FFFFFFE6     X    6958  6959   6961   6963   7145   7145   7150   7150   7156   7156   7161
                                                  7161
 VNDEBUG       1 00000021 FFFFFFE6     R    7041  7045   7050   7055   7060
1EXEC     (EXEC2193) (12:44) (15MAR04) Ordinary Symbol and Literal Cross Reference                                          Page  208
 VNDESC       32 00000000 FFFFFFE6     X    6884  6885   6953   6953   7248   7309   7309
 VNENTRY      80 00000000 FFFFFFE6     J    7174  7193   7240   7248   7309   7314   7317   7319   7321   7323   7326
                                                  7328   7330  19467U 19482M 19482  19494  19809U 19824M 19824  20126
                                                 20420U 20492  20610U 20703  20740M 20740  20814  31791U 32266U 32531U
                                                 35671U 35697M 35697  35701
 VNFLAGS1      1 00000022 FFFFFFE6     R    7065  7069
 VNNAME       16 00000000 FFFFFFE6     C    6886  7138   7314   7314  19549  20181  20741M 20807M 20808M 32306  32324
                                                 32342  32360  32378  32396  32545  32571  32597  32623  35698  35698M
                                                 35699M 35700M 35745  35750
 VNNUMB        2 00000020 FFFFFFE6         6986  7317   7317
 VNPREFIX      1 00000010 FFFFFFE6     R    6889  6898   6908   6918   6928   6938
 VNSDATA       6 00000020 FFFFFFE6     X    6960  7090   7090
 VNSTRING      1 00000020 FFFFFFE6         6976  7321   7321
 VNSTRLEN      2 00000024 FFFFFFE6     H    7088  7330   7330
 VNSTRLOC      1 00000026 FFFFFFE6     C    7089  7328   7328
 VNTYPE        1 00000020 FFFFFFE6     R    6967  6976   6986   6996   7006   7016   7026   7036
 VNVALUE      12 00000024 FFFFFFE6     X    7084  7165   7326   7326
 VPARM       336 00000000 FFFFFFE5     J    7201  7242   7332   7333  16587  31722
 WAIT          2 00003BFE 00000001     H   22556 22552
 WAITATTN      2 00003E2E 00000001     H   23102 22913  22928
 WAITER        1 00000000 00000051     T   23206 23206
 WAITFINT    128 00000000 FFFFFFD9        22534 22772  23072M
 WAITFLAG      1 00000000 FFFFFFD9     R   22530 22534
 WAITINT       2 00003E00 00000001     H   23032 22943
 WAITPRT       4 00003D08 00000001     F   22886 23202
 WAITSEC       2 00003DD0 00000001     H   22964 22898
 WAITWA        1 00000000 FFFFFFD9     J   22543 22569  22598U 22602  22610U 22618M 22874  22876  22877
 WAR           8 00000008 00000001 A   #    1027  7493M  7542   7667M  8362   8390M  8490   8528M  8851   8889M  9230
                                                 10061M 10108  10134M 10182  10208M 10255  10281M 10328  10353M 10457
                                                 10482M 10615  10641M 10688  10713M 10791  10816M 10859  10885M 10932
                                                 10958M 11006  11032M 11091  11116M 11185  11211M 11263  11288M 11389
                                                 11414M 11472  11511M 11542  11553  11746M 11787  11813M 11855  11881M
                                                 11930  11955M 12018  12044M 12086  12111M 12206  12288M 12400  12443M
                                                 12556  12586M 12733  12785M 13019  13049M 13228  13275M 13459  13528M
                                                 13753  13834M 13915  13971M 14085  14121M 14213  14284M 14398  14423M
                                                 14466  14502M 14581  14636M 14847  14888M 14965  15006M 15219  15254M
                                                 15334  15389M 15677  15804M 15846  15880M 15925  15958M 16018  16057M
                                                 16202  16237M 16303  16339M 16382  16418M 16461  16619M 16934  16966M
                                                 17472  17483  17515M 17960  17971  18364M 18406  18431M 18499  18525M
                                                 18571  18596M 18650  18676M 18713  18739M 18864  18890M 18932  18958M
                                                 18999  19025M 19066  19092M 19134  19160M 19202  19228M 19269  19295M
                                                 19337  19363M 19404  19435M 19689  19759M 20333  20379M 20510  20569M
                                                 20885  20936M 21029  21130M 21506  21704M 21752  21778M 21819  21845M
                                                 21890  21916M 21958  21984M 22026  22052M 22093  22119M 22161  22187M
                                                 22228  22254M 22295  22321M 22362  22402M 22509  22568M 22870  22974M
                                                 23001  23016  23042M 23087  23112M 23147  23162  23254M 23329  23359M
                                                 23459  23487M 23530  23928M 24066  24094M 24219  24246M 24299  24326M
                                                 24433  24460M 24503  24536M 24674  24702M 24833  24860M 24927  24955M
                                                 25069  25097M 25142  25168M 25214  25241M 25284  25354M 25407  25440M
                                                 25507  25549M 25602  25646M 25708  25749M 26179  26227M 26550  26595M
                                                 26889  26940M 27610  27744M 28144  28224M 28573  28651M 29114  29198M
                                                 29472  29542M 29634  29676M 29762  29806M 29918  30052M 31491  31507
                                                 31539M 31581  31608M 31650  31750M 32179  32225M 32454  32499M 32648
                                                 32692M 33188  33220M 33331  33363M 33563  33606M 33674  33685  33732M
                                                 33800  33811  33856M 33952  33963  34008M 34104  34115  34158M 34254
                                                 34265  34307M 34375  34386  34444M 34544  34560  34618M 34712  34728
                                                 34789M 34883  34899  34960M 35054  35070  35186M 35310  35321  35358M
                                                 35403  35445M 35592  35639M 35913  35924  35963M 35998
 WRATTN        2 000039DC 00000001     H   21694 21538
1EXEC     (EXEC2193) (12:44) (15MAR04) Ordinary Symbol and Literal Cross Reference                                          Page  209
 WRCLEAN       2 00003B4E 00000001     H   22244 21658
 WRFMT         2 00003AF6 00000001     H   22109 21628
 WRFORCE       2 00003B7A 00000001     H   22311 21673
 WRITALN       4 00000000 FFFFFFDA     F   21097 21185M 21445  21485  21733M
 WRITE         2 000036F6 00000001     H   21118 21114
 WRITECOM      2 00005FFC 00000001     H   33210 35115
 WRITWA      340 00000000 FFFFFFDA     J   21105 21131  21160U 21164  21172U 21510  21512  21513
 WRITXVAL    336 00000004 FFFFFFDA     X   21098 21174
 WRMOD         2 00003A9E 00000001     H   21974 21598
 WRNMOD        2 00003ACA 00000001     H   22042 21613
 WRNONL        2 00003A16 00000001     H   21768 21553
 WRNTRAN       2 00003A72 00000001     H   21906 21583
 WRPRT         4 00003824 00000001     F   21526 23190
 WRTRAN        2 00003A42 00000001     H   21835 21568
 WRUFMT        2 00003B22 00000001     H   22177 21643
 WTOSG         1 00000000 00000000 A   T    2081  2081
 WYLEXEC       1 00000000 00000001     J     991   993   1009   1022   1035   1047   1060   1073   1086   1099   1112
                                                  1125   2365   2449   6189   6301   6581   6811   6815   6818   6860
                                                  7175   7202   7341   7406   7464   7646
 XCHKSET       1 00000000 0000003C     T   16494 16494
 XCMDAREA    237 00000000 FFFFFFDE     J   14613 14680  14699U 14707M 14707  14741
 XCMDCMD     235 00000002 FFFFFFDE     X   14606 14818M
 XCMDLEN       2 00000000 FFFFFFDE     H   14605 14790M
 XCMDSCAN      2 00005C6C 00000001     H   31738 31734
 XCMDVAR     336 00000000 FFFFFFD3     X   31722 31896  32277
 XCMDWA      336 00000000 FFFFFFD3     J   31729 31751  31780U 32183  32185  32186  32226  32255U 32458  32460  32461
 XCOMYUCK      2 00001E4C 00000001     H   14626 14622
 XDELGRP       1 00000000 00000036     T   16483 16483
 XDELSET       1 00000000 00000032     T   15753 15753  16484
 XDSNAME      64 00000000 FFFFFFE7     J    6859  6862   6863   7637   7638
 XGET          1 00000000 00000062     T   35127 35127
 XGETFRST      1 00000000 00000063     T   35129 35129
 XGETLAST      1 00000000 00000064     T   35131 35131
 XGETNEXT      1 00000000 00000065     T   35132 35132
 XGETPREV      1 00000000 00000066     T   35133 35133
 XGO           2 00001E02 00000001     H   14492 14488
 XLOCFRST      1 00000000 00000067     T   35134 35134
 XLOCLAST      1 00000000 00000068     T   35136 35136
 XLOCNEXT      1 00000000 00000069     T   35137 35137
 XLOCPREV      1 00000000 0000006A     T   35138 35138
 XNAME        56 00000000 FFFFFFE7     C    6849  6850
 XPAUSE        2 00001B3A 00000001     H   13824 13820
 XPUT          1 00000000 00000027     T   13786 13786
 XRESET        2 00001C6A 00000001     H   14111 14107
 XSENTRY      80 00000000 FFFFFFE4     J    7340  7314   7317   7319   7321   7326   7328   7330  20429U 20440M 20440
                                                 20491  20619U 20629M 20629  20652  20675M 20675  20702  20763  20786M
                                                 20786  20813  21182U 30742U 30880U
 XSETSET       1 00000000 00000026     T   13785 13785  35126
 XSLENTRY    336 00000000 FFFFFFE4     U    7242  7332   7333  16588  21098  29992
 XSSTRING      1 00000020 FFFFFFE4 C       7321 20446M 20681M 20792M
 XSSTRLEN      2 00000024 FFFFFFE4 C   H    7330 20448M 20688M 20688  20799M 20799  21305  30782  31022
 XSSTRLOC      1 00000026 FFFFFFE4 C   C    7328 20475M 21304  30808  31048
 XSTYPE        1 00000000 FFFFFFE4     R    7251  7260   7270   7280   7290   7300
 XUNPRESS      2 00006648 00000001     H   35176 35172
 XXACT         2 00000346 00000001     H    8518  9269
 XXFROM        2 0000046E 00000001     H    8879  9270
 XXLINE        2 000002EC 00000001     H    8380  9268
 XXSSTART      8 00000000 FFFFFFE4     D    7239  7242   7248   7309
 YESREQ        1 00000000 00000009     T    9276  9276
1EXEC     (EXEC2193) (12:44) (15MAR04) Ordinary Symbol and Literal Cross Reference                                          Page  210
 YESRTN        1 00000000 00000057     T   27664 27664
 ZAPCOMM       2 00005D6E 00000001     H   32213 35100
 =A((DESRTRN+LOCATRTN+DESABORT+UNPRST))
               4 00001A18 00000001     A   13780 12333
 =A((DESRTRN+LXCATRTN+DESABORT+UNPRST))
               4 00001A28 00000001     A   13784 12489  12845
 =A(-1)        4 00003EBC 00000001     A   23207 22812
 =A(ALLOWATN)
               4 00003628 00000001     A   21051 18634
 =A(ALLOWATN)
               4 00003EA0 00000001     A   23200 21736  23144
 =A(CALXPROC)
               4 000006D0 00000001     A    9293  9162
 =A(CHECKNSW)
               4 0000365C 00000001     A   21062 19904  20037
 =A(CHECKNSW)
               4 00005B90 00000001     A   31671 30552
 =A(CHECKNSW)
               4 000068F4 00000001     A   36024 35675
 =A(CHKEXEC)
               4 000025BC 00000001     A   16493 16264
 =A(CHKLOOP)
               4 00001A34 00000001     A   13787 12846
 =A(CHKXOLD)
               4 000022BC 00000001     A   15756 15525
 =A(CHKXPROC)
               4 00001A3C 00000001     A   13789 13190
 =A(CLRATTN)
               4 00005104 00000001     A   27651 25495
 =A(CLRERROR)
               4 00005100 00000001     A   27650 25395
 =A(CLREX)
               4 00000680 00000001     A    9273  8469   8613   8968
 =A(CLREX)
               4 00001A24 00000001     A   13783 12352  12508  12919  12975
 =A(CP#XOLD)
               4 000022B8 00000001     A   15755 15465
 =A(CP#XOLD)
               4 000065A4 00000001     A   35112 32916
 =A(ESCAPE)
               4 00005B8C 00000001     A   31670 30423
 =A(EXECDISP)
               4 000022A0 00000001     A   15749 14952
 =A(EXECHK)
               4 0000067C 00000001     A    9272  8419
 =A(EXECHK)
               4 00002288 00000001     A   15743 14559
 =A(EXECHK)
               4 00002A6C 00000001     A   18010 17667
 =A(EXECHK)
               4 00006584 00000001     A   35104 32731
 =A(EXECTBLA)
               4 0000064C 00000001     A    9260  7886
 =A(EXECTBLC)
               4 00000660 00000001     A    9265  8020
 =A(EXECTBLF)
               4 0000065C 00000001     A    9264  7955
 =A(EXFRST)
               4 000022C8 00000001     A   15759 15611
1EXEC     (EXEC2193) (12:44) (15MAR04) Ordinary Symbol and Literal Cross Reference                                          Page  211
 =A(EXFRST)
               4 00006594 00000001     A   35108 32798
 =A(EXGET)
               4 00002A70 00000001     A   18011 17673
 =A(EXLOOPCK)
               4 00003670 00000001     A   21067 21009
 =A(EXLOOPCK)
               4 00006580 00000001     A   35103 32725
 =A(EXNEXT)
               4 000022D0 00000001     A   15761 15633
 =A(EXNEXT)
               4 0000659C 00000001     A   35110 32835
 =A(EXNEXTLN)
               4 00000668 00000001     A    9267  8187
 =A(EXPAUSE)
               4 0000226C 00000001     A   15736 13902
 =A(EXPPRT)
               4 00002260 00000001     A   15733 13878
 =A(EXREINIT)
               4 0000227C 00000001     A   15740 14154  14450
 =A(EXRESET)
               4 00002278 00000001     A   15739 14150
 =A(EXRPRT)
               4 00002280 00000001     A   15741 14175
 =A(GETNSW)
               4 00005B94 00000001     A   31672 30754
 =A(INITATTN)
               4 00000698 00000001     A    9279  8640   8995
 =A(INITATTN)
               4 000025B0 00000001     A   16490 16147
 =A(INITERR)
               4 00000694 00000001     A    9278  8636   8991
 =A(INITERR)
               4 000025AC 00000001     A   16489 16143
 =A(L'CPCMD)
               4 00002298 00000001     A   15747 14773  14785
 =A(L'RDBUF)
               4 00002A50 00000001     A   18003 17218  17230
 =A(L'RDPRMPT)
               4 00003630 00000001     A   21053 18793
 =A(LDDSNCHK)
               4 000006C8 00000001     A    9291  9141
 =A(LDOLDACT)
               4 000006A8 00000001     A    9283  8717
 =A(LDOLDDSN)
               4 000006C4 00000001     A    9290  9120
 =A(MAXSCAN)
               4 00005BD4 00000001     A   31680 31136
 =A(MAXSTR)
               4 00005B9C 00000001     A   31674 30840  31080  31205  31401
 =A(OLDLOOP)
               4 00001A1C 00000001     A   13781 12334  12490
 =A(ONAPRT)
               4 00004940 00000001     A   25319 24643
 =A(ONCPRT)
               4 000048A0 00000001     A   25307 23298
 =A(ONEPRT)
               4 000048E4 00000001     A   25314 24035
 =A(READCMD)
1EXEC     (EXEC2193) (12:44) (15MAR04) Ordinary Symbol and Literal Cross Reference                                          Page  212
               4 000029E0 00000001     A   17999 16913
 =A(READKWS)
               4 000029C4 00000001     A   17992 16775
 =A(READKWS)
               4 00003654 00000001     A   21060 19666  20305
 =A(READLINE)
               4 000029D0 00000001     A   17995 16813
 =A(READSTR)
               4 000029DC 00000001     A   17998 16893
 =A(READTERM)
               4 000029D4 00000001     A   17996 16836
 =A(READVAL)
               4 000029D8 00000001     A   17997 16861
 =A(RESTBL1)
               4 000022C0 00000001     A   15757 15573
 =A(SETATTN)
               4 00005130 00000001     A   27662 27065
 =A(SETERROR)
               4 00005134 00000001     A   27663 27116
 =A(SETPAUSE)
               4 00000678 00000001     A    9271  8339   8473
 =A(SETPAUSE)
               4 00002284 00000001     A   15742 14199  15540  15659
 =A(SETPAUSE)
               4 00002588 00000001     A   16480 15908
 =A(SETPAUSE)
               4 00005144 00000001     A   27667 27515  27597
 =A(SETPAUSE)
               4 0000658C 00000001     A   35106 32757  32871  32959  33004
 =A(SHOXPRT)
               4 0000229C 00000001     A   15748 14930
 =A(SKIP)      4 00005B88 00000001     A   31669 30253
 =A(STEXEKWS)
               4 00001A10 00000001     A   13778 11536
 =A(WAITPRT)
               4 00003EA8 00000001     A   23202 22642
 =A(WRITECOM)
               4 000065B0 00000001     A   35115 33067  33101
 =A(WRPRT)
               4 00003E78 00000001     A   23190 21264
 =A(XXACT)
               4 00000670 00000001     A    9269  8259
 =A(XXFROM)
               4 00000674 00000001     A    9270  8282
 =A(XXLINE)
               4 0000066C 00000001     A    9268  8236
 =A(ZAPCOMM)
               4 00006574 00000001     A   35100 32067  32128
 =A(0)         4 00006588 00000001     A   35105 32749  32786
 =A(1)         4 00001A4C 00000001     A   13793 13642
 =A(1)         4 00002A54 00000001     A   18004 17312
 =A(1)         4 00003EA4 00000001     A   23201 22467
 =A(1)         4 00005108 00000001     A   27652 25851
 =A(1)         4 0000656C 00000001     A   35098 31957  32024
 =A(1)         4 000068E4 00000001     A   36020 35289
 =A(10)        4 00003EAC 00000001     A   23203 22692
 =A(2)         4 00002A58 00000001     A   18005 17385
 =A(2)         4 000068EC 00000001     A   36022 35482
 =A(235)       4 0000510C 00000001     A   27653 25945
1EXEC     (EXEC2193) (12:44) (15MAR04) Ordinary Symbol and Literal Cross Reference                                          Page  213
 =A(235)       4 00005BD8 00000001     A   31681 31196
 =A(235-20)
               4 0000511C 00000001     A   27657 26085  26097
 =A(3)         4 00002A5C 00000001     A   18006 17425
 =A(5)         4 00003EB0 00000001     A   23204 22704
 =A(50)        4 00005BD0 00000001     A   31679 31127
 =A(60*60*24*100)
               4 00003EB4 00000001     A   23205 22727
 =AL2(MAXSTRLN)
               2 00002A92 00000001     R   18018 17068
 =AL2(5)       2 00005768 00000001     R   29943 29879
 =AL4(-1)      4 00003E98 00000001     R   23198 21445
 =AL4(CV#FEXEC)
               4 000065AC 00000001     R   35114 33030
 =C' at line '
               9 0000663F 00000001     C   35146 33493
 =C' commands executed'
              18 0000662A 00000001     C   35144 33459
 =C'- EXEC Options'
              14 000022E2 00000001     C   15766 15194
 =C'-> '       3 0000663C 00000001     C   35145 33249
 =C': '        2 00006610 00000001     C   35139 31970
 =C': invalid variable name.'
              24 00003608 00000001     C   21048 19566  20198
 =C': invalid.  Quotes required.'
              28 000048EC 00000001     C   25316 24164  24772
 =C': invalid.'
              10 00006912 00000001     C   36033 35893
 =C': invalid; quotes required.'
              27 000022F0 00000001     C   15767 14040  14353
 =C': undefined.'
              12 00003644 00000001     C   21058 19603  20235
 =C'" is undefined.'
              15 0000691D 00000001     C   36035 35767
 =C'"'         1 00005161 00000001     C   27673 26134
 =C'"'         1 0000691C 00000001     C   36034 35721
 =C'not in file.'
              12 00002A80 00000001     C   18015 17746
 =C'ATTENTION option invalid when line-number is given.'
              51 00002AA4 00000001     C   18022 17613
 =C'AUTO OPTION HAS BEEN REMOVED, USE THE'
              37 00001AE8 00000001     C   13801 11443
 =C'BAD '      4 000065A0 00000001     C   35111 32862
 =C'Clear EXEC'
              10 000006D6 00000001     C    9295  8601   8956
 =C'Command failed: "'
              17 00005150 00000001     C   27672 26067
 =C'Command length overflow during preprocessing.'
              45 00005C02 00000001     C   31685 31637
 =C'Continue command logging'
              24 000050C8 00000001     C   27647 27192
 =C'CASE  '
               6 0000661E 00000001     C   35142 32597
 =C'COLUMN option invalid when line-number is not given.'
              52 00002A18 00000001     C   18001 17054
 =C'DELETE option invalid when line-number is not given.'
              52 000029E4 00000001     C   18000 17025
 =C'Enter> '
               7 00002A9D 00000001     C   18021 17120  17179
1EXEC     (EXEC2193) (12:44) (15MAR04) Ordinary Symbol and Literal Cross Reference                                          Page  214
 =C'Enter? '
               7 00002A96 00000001     C   18020 17100  17159
 =C'Exec LINENO specifed twice. '
              28 000019EC 00000001     C   13775 10764
 =C'Expecting ")".  '
              16 00005B78 00000001     C   31668 30964
 =C'Extended EXEC files may not be cleared.'
              39 00002340 00000001     C   15771 15300
 =C'Extended EXEC files may not be restored.'
              40 00002230 00000001     C   15731 15444  15490
 =C'EOF '      4 000065A8 00000001     C   35113 32989
 =C'EXEC break at line '
              19 00005175 00000001     C   27675 26806  27467
 =C'EXEC command invalid in extended EXEC mode.'
              43 000006E0 00000001     C    9296  7732
 =C'EXEC error at line '
              19 00005162 00000001     C   27674 26423  27549
 =C'EXEC files.'
              11 00004953 00000001     C   25322 24009  24617
 =C'EXEC pointer is not set.'
              24 00006520 00000001     C   35095 32764  32878
 =C'EXEC POINTER: not in scope of current procedure.'
              48 00006538 00000001     C   35096 32965
 =C'Flow control statements may be used only in '
              44 000048B4 00000001     C   25312 23991  24599
 =C'I can''t wait that long.  '
              25 00003F09 00000001     C   23212 22737
 =C'IF    '
               6 00006612 00000001     C   35140 32545
 =C'Line '
               5 00002AD7 00000001     C   18023 17699
 =C'LIMIT='
               6 000022DC 00000001     C   15765 15129
 =C'LINES option specifed twice. '
              29 00001AA8 00000001     C   13799 10403
 =C'LOG'       3 00002336 00000001     C   15769 15073
 =C'Missing expression.'
              19 00003EF6 00000001     C   23211 21218
 =C'Missing expression.'
              19 00005BDE 00000001     C   31683 30933
 =C'Missing number of seconds to wait.'
              34 00003EC2 00000001     C   23209 22680
 =C'Missing option after ON.'
              24 00004848 00000001     C   25303 23517
 =C'Missing range after LINES keyword. '
              35 00001AC5 00000001     C   13800 10436
 =C'Missing ON ATTENTION options.'
              29 000049AA 00000001     C   25325 25271
 =C'Missing ON ERROR options.'
              25 0000495E 00000001     C   25323 24490
 =C'No EXEC file.'
              13 00002367 00000001     C   15772 15547
 =C'No EXEC file.'
              13 000025C4 00000001     C   16495 16282
 =C'No EXEC file, can''t set return.'
              31 0000070B 00000001     C    9297  8178   8205
 =C'NEXT'      4 00006598 00000001     C   35109 32825
 =C'NO'        2 000022DA 00000001     C   15764 15051
 =C'NOLIMIT'
1EXEC     (EXEC2193) (12:44) (15MAR04) Ordinary Symbol and Literal Cross Reference                                          Page  215
               7 00002339 00000001     C   15770 15107
 =C'ON <condition>: command ignored.'
              32 00004860 00000001     C   25304 23973  24581
 =C'ON ATTN condition not disabled; unable to reenable.'
              51 00004977 00000001     C   25324 25048
 =C'ON ERROR condition not disabled: unable to reenable.'
              52 0000490C 00000001     C   25318 24412
 =C'Parameter too large.  Command length overflow.'
              46 00001A7A 00000001     C   13798 13667
 =C'PROMPT option invalid when line-number is given.'
              48 00002990 00000001     C   17990 17573
 =C'PUB.SYSCMD_ON'
              13 00004946 00000001     C   25321 23442
 =C'PUSH is an illegal option here.'
              31 0000072A 00000001     C    9298  8442
 =C'SET AUTO EXEC COMMAND INSTEAD.'
              30 00001A54 00000001     C   13795 11459
 =C'STRING: missing option.'
              23 00003694 00000001     C   21073 19514
 =C'That''s over a day!'
              18 00003EE4 00000001     C   23210 22755
 =C'Too many rescans.'
              17 00005BF1 00000001     C   31684 31568
 =C'Too many variables in value list.'
              33 000036C2 00000001     C   21075 20096
 =C'Too many EXEC files loaded.'
              27 00001B0D 00000001     C   13802 12698  13160
 =C'Unmatched parenthesis in expression.'
              36 00005BAC 00000001     C   31678 30990
 =C'UNTIL '
               6 00006624 00000001     C   35143 32623
 =C'VALUE: missing operand.'
              23 000036AB 00000001     C   21074 19895
 =C'VALUE: missing option.'
              22 0000367E 00000001     C   21072 20146
 =C'WHILE '
               6 00006618 00000001     C   35141 32571
 =C'XGO: command invalid from within EXEC file.'
              43 0000230B 00000001     C   15768 14548
 =C'XPROC   '
               8 000019D8 00000001     C   13771 13420
 =C'XRETURN ATTN '
              13 00005680 00000001     C   29511 28108
 =CL(L'EXTXNAME)'(ACTIVE file) '
              64 000005B8 00000001     C    9256  8703
 =CL(L'EXXNAME)'(ACTIVE file) '
              64 000005F8 00000001     C    9257  8704
 =CL16'SYS.ATTNID      '
              16 000050A0 00000001     C   27644 26707  26738
 =CL16'SYS.ATTNID      '
              16 00005640 00000001     C   29504 28991  29431
 =CL16'SYS.ATTNINFO    '
              16 000050B8 00000001     C   27646 26829  26865
 =CL16'SYS.ATTNINFO    '
              16 00005650 00000001     C   29505 29036  29438
 =CL16'SYS.EMSG        '
              16 00005038 00000001     C   27637 26003  26150  26335
 =CL16'SYS.ERRATTNINFO '
              16 00005660 00000001     C   29506 29067  29247
1EXEC     (EXEC2193) (12:44) (15MAR04) Ordinary Symbol and Literal Cross Reference                                          Page  216
 =CL16'SYS.ERRID       '
              16 00005050 00000001     C   27639 26324
 =CL16'SYS.ERRID       '
              16 00005600 00000001     C   29500 28809  29382
 =CL16'SYS.ERRINFO     '
              16 00005070 00000001     C   27641 26446  26476
 =CL16'SYS.ERRINFO     '
              16 00005620 00000001     C   29502 28900  29396
 =CL16'SYS.ERRMSG      '
              16 00005060 00000001     C   27640 26357
 =CL16'SYS.ERRMSG      '
              16 00005610 00000001     C   29501 28854  29389
 =CL16'SYS.ERRSETNO    '
              16 00005080 00000001     C   27642 26504  26526
 =CL16'SYS.ERRSETNO    '
              16 00005630 00000001     C   29503 28946  29403
 =CL16'SYS.EXECNAME    '
              16 00000638 00000001     C    9258  8708   9096
 =CL16'SYS.ONATTN      '
              16 00004890 00000001     C   25306 24782
 =CL16'SYS.ONATTN      '
              16 000050E0 00000001     C   27648 27256
 =CL16'SYS.ONATTN      '
              16 000055E0 00000001     C   29498 27991  28110  28540
 =CL16'SYS.ONERROR     '
              16 00004880 00000001     C   25305 24174
 =CL16'SYS.ONERROR     '
              16 000050F0 00000001     C   27649 27373
 =CL16'SYS.ONERROR     '
              16 000055D0 00000001     C   29497 27962  28500
 =CL16'SYS.ONINFO      '
              16 000055F0 00000001     C   29499 28020  28273
 =CL16'SYS.PARM        '
              16 000068D0 00000001     C   36018 35387
 =CL16'SYS.XRET_ATTNID '
              16 00005090 00000001     C   27643 26683
 =CL4'EOF '
               4 000065EC 00000001     C   35130 33941  34093  34243
 =CL4'NEXT'
               4 00006590 00000001     C   35107 32793  32868  32902
 =CL6'XCALL '
               6 00001A74 00000001     C   13797 13567
 =CL8'ATTN    '
               8 000050B0 00000001     C   27645 26737
 =CL8'COMM'
               8 000064E8 00000001     C   35088 32306
 =CL8'COMME'
               8 000064F0 00000001     C   35089 32324
 =CL8'COMMEN'
               8 000064F8 00000001     C   35090 32342
 =CL8'COMMENT'
               8 00006500 00000001     C   35091 32360
 =CL8'END'
               8 00006508 00000001     C   35092 32378
 =CL8'ERROR   '
               8 00005048 00000001     C   27638 26317
 =CL8'NOEXEC'
               8 00002258 00000001     C   15732 15544
 =CL8'NOEXEC'
1EXEC     (EXEC2193) (12:44) (15MAR04) Ordinary Symbol and Literal Cross Reference                                          Page  217
               8 00002580 00000001     C   16479 16279
 =CL8'NOEXEPTR'
               8 00006518 00000001     C   35094 32761  32875
 =CL8'PUTEND'
               8 00006510 00000001     C   35093 32396
 =CL8'RETERR'
               8 000005B0 00000001     C    9255  8175   8202
 =CL8'SYNTAX'
               8 00002228 00000001     C   15730 14037  14350
 =CL8'SYNTAX'
               8 00004840 00000001     C   25302 23514  24161  24487  24769  25268
 =F'-1'        4 00003E70 00000001     F   23188 21185  22624
 =F'-1000'
               4 000022B4 00000001     F   15754 15322  15642
 =F'0'         4 0000512C 00000001     F   27661 26525
 =V(ACTCHK)
               4 00000684 00000001     V    9274  8557
 =V(ACTCHK)
               4 00002A64 00000001     V   18008 17638
 =V(ATTNLINE)
               4 00003624 00000001     V   21050 18629
 =V(ATTNLINE)
               4 00003E9C 00000001     V   23199 21731  23139
 =V(BTD)       4 000022A8 00000001     V   15751 15160
 =V(CHECKEND)
               4 00005BA8 00000001     V   31677 30983
 =V(CHKXOLD)
               4 00000688 00000001     V    9275  8571   8926
 =V(CLRALIST)
               4 0000258C 00000001     V   16481 15995
 =V(CLREX)
               4 000022D4 00000001     V   15762 15654
 =V(CLRTEXT)
               4 000006AC 00000001     V    9284  8762
 =V(CLRTEXT)
               4 000022C4 00000001     V   15758 15596
 =V(CLRVSTK)
               4 00000690 00000001     V    9277  8630   8985
 =V(CLRVSTK)
               4 00002590 00000001     V   16482 16001
 =V(CVEXNO)
               4 00002A78 00000001     V   18013 17716
 =V(CVEXNO)
               4 000065C4 00000001     V   35120 33266
 =V(DBLINE)
               4 000065B4 00000001     V   35116 33138
 =V(DELRANGE)
               4 00002A8C 00000001     V   18016 17856
 =V(DELSUB)
               4 000006B0 00000001     V    9285  8789
 =V(DEQUOTE)
               4 000019E4 00000001     V   13773 10515
 =V(DEQUOTE)
               4 00002270 00000001     V   15737 13998  14311
 =V(DEQUOTE)
               4 0000362C 00000001     V   21052 18766
 =V(DEQUOTE)
               4 000048E8 00000001     V   25315 24122  24730
 =V(DOFNAME)
1EXEC     (EXEC2193) (12:44) (15MAR04) Ordinary Symbol and Literal Cross Reference                                          Page  218
               4 00001A08 00000001     V   13776 10843
 =V(EDTCOM)
               4 00001A50 00000001     V   13794 13733
 =V(EDTCOM)
               4 00003674 00000001     V   21068 21017
 =V(EDTCOM)
               4 0000513C 00000001     V   27665 27296  27413
 =V(EDTCOM)
               4 000065BC 00000001     V   35118 33175
 =V(EVALEXPR)
               4 00003668 00000001     V   21065 20655  20766
 =V(EVALEXPR)
               4 00003E74 00000001     V   23189 21200
 =V(EVALEXPR)
               4 00005BA0 00000001     V   31675 30893
 =V(EXTCLOSE)
               4 000006CC 00000001     V    9292  9156   9176
 =V(EXTOPEN)
               4 000006BC 00000001     V    9288  9068
 =V(FNAMEFIN)
               4 000006B4 00000001     V    9286  9035
 =V(FREECORE)
               4 00002294 00000001     V   15746 14744
 =V(GBLCMD)
               4 000048AC 00000001     V   25310 23446
 =V(GETCORE)
               4 0000228C 00000001     V   15744 14683
 =V(GETDATA)
               4 00005124 00000001     V   27659 26338  26686  27259  27376
 =V(GETDATA)
               4 00005670 00000001     V   29507 27965  27994  28812  28857  28903  28949  28994  29039
 =V(GETLINE)
               4 00002A68 00000001     V   18009 17644
 =V(GETSUBS)
               4 00003650 00000001     V   21059 19633  20265
 =V(GETVAR)
               4 0000363C 00000001     V   21056 19582  20214
 =V(GETVAR)
               4 000068F8 00000001     V   36025 35704
 =V(GETVSTK)
               4 0000567C 00000001     V   29510 28277  29251
 =V(IGNOREND)
               4 0000366C 00000001     V   21066 20695  20867
 =V(INITCMD)
               4 0000657C 00000001     V   35102 32721
 =V(INITEXEC)
               4 000025A0 00000001     V   16486 16124
 =V(INITFLOW)
               4 000025A4 00000001     V   16487 16130
 =V(INITVARS)
               4 0000259C 00000001     V   16485 16118
 =V(INITXCAL)
               4 000025A8 00000001     V   16488 16137
 =V(INITXDMP)
               4 0000069C 00000001     V    9280  8644   8999
 =V(INITXDMP)
               4 000025B4 00000001     V   16491 16153
 =V(LABEL)
               4 00006570 00000001     V   35099 31979
1EXEC     (EXEC2193) (12:44) (15MAR04) Ordinary Symbol and Literal Cross Reference                                          Page  219
 =V(LINEMOD)
               4 00002A60 00000001     V   18007 17453
 =V(LRTRIM)
               4 00002290 00000001     V   15745 14722
 =V(LRTRIM)
               4 00005120 00000001     V   27658 26104
 =V(MAKESTR)
               4 00003E84 00000001     V   23193 21288
 =V(MAKESTR)
               4 00005B98 00000001     V   31673 30762  31002
 =V(MCLEAR)
               4 000025B8 00000001     V   16492 16169
 =V(MKFFINFO)
               4 00000658 00000001     V    9263  7936
 =V(NDETRNG)
               4 000006A0 00000001     V    9281  8695   9058
 =V(NDETRNG)
               4 000019E0 00000001     V   13772 10418
 =V(NOTVALID)
               4 000019E8 00000001     V   13774 10582
 =V(NOTVALID)
               4 00003620 00000001     V   21049 18479  18781
 =V(NRESOLVE)
               4 000006B8 00000001     V    9287  9039
 =V(NSCAN)
               4 00000650 00000001     V    9261  7890   7959   8024
 =V(NSCAN)
               4 00001A40 00000001     V   13790 13370
 =V(NSCAN)
               4 00002264 00000001     V   15734 13882  14179  14934  15577
 =V(NSCAN)
               4 000029C8 00000001     V   17993 16779
 =V(NSCAN)
               4 00003658 00000001     V   21061 19860  19991
 =V(NSCAN)
               4 00003E7C 00000001     V   23191 21268  22646
 =V(NSCAN)
               4 000048A4 00000001     V   25308 23302  24039  24647
 =V(NSCAN)
               4 00006904 00000001     V   36028 35849
 =V(PUTLINE)
               4 000022CC 00000001     V   15760 15629
 =V(RDRNG)
               4 00001A20 00000001     V   13782 12337  12493  12849
 =V(RETLIBMB)
               4 00001A48 00000001     V   13792 13636
 =V(RLOOKUP)
               4 00001A14 00000001     V   13779 11539
 =V(SAVEDATA)
               4 000006A4 00000001     V    9282  8711   9099
 =V(SAVEDATA)
               4 00004908 00000001     V   25317 24177  24785
 =V(SAVEDATA)
               4 00005110 00000001     V   27654 26006  26153  26327  26360  26449  26479  26507  26529  26710  26741
                                                 26832  26868
 =V(SAVEDATA)
               4 00005678 00000001     V   29509 28113  28503  28543  29385  29392  29399  29406  29434  29441
 =V(SAVEDATA)
               4 000068E8 00000001     V   36021 35390
1EXEC     (EXEC2193) (12:44) (15MAR04) Ordinary Symbol and Literal Cross Reference                                          Page  220
 =V(SAVEVAR)
               4 00003664 00000001     V   21064 20495  20706  20817
 =V(SAVEVSTK)
               4 00005674 00000001     V   29508 28024  29071
 =V(SCANCHK)
               4 00000654 00000001     V    9262  7904   7973   8038
 =V(SCANCHK)
               4 00001A44 00000001     V   13791 13384
 =V(SCANCHK)
               4 00002268 00000001     V   15735 13896  14193  14948  15591
 =V(SCANCHK)
               4 000029CC 00000001     V   17994 16793
 =V(SCANCHK)
               4 00003660 00000001     V   21063 20005
 =V(SCANCHK)
               4 00003E80 00000001     V   23192 21282  22660
 =V(SCANCHK)
               4 000048A8 00000001     V   25309 23316  24053  24661
 =V(SCANCHK)
               4 00006908 00000001     V   36029 35863
 =V(SCNEXFR)
               4 00000648 00000001     V    9259  7769
 =V(SCNEXFR)
               4 000029C0 00000001     V   17991 16676
 =V(SCNVNAME)
               4 00003634 00000001     V   21054 19497  20129
 =V(SCNVNAME)
               4 00006568 00000001     V   35097 31899  32280
 =V(SEG)       4 00002274 00000001     V   15738 14033  14069  14346  14382  15063  15141
 =V(SEG)       4 00002A74 00000001     V   18012 17711
 =V(SEG)       4 00003E88 00000001     V   23194 21328  22749
 =V(SEG)       4 000048E0 00000001     V   25313 24003  24157  24611  24765
 =V(SEG)       4 00005118 00000001     V   27656 26079  26128  26146  26435  26818  27479  27561
 =V(SEG)       4 000065C0 00000001     V   35119 33261  33471  33505
 =V(SEG)       4 000068FC 00000001     V   36026 35733  35779  35887  35905
 =V(SEGB)      4 00001A0C 00000001     V   13777 11455
 =V(SEGB)      4 000022A4 00000001     V   15750 15085  15188
 =V(SEGB)      4 00002A7C 00000001     V   18014 17740
 =V(SEGB)      4 000065C8 00000001     V   35121 33290
 =V(SEGCLR)
               4 00001A38 00000001     V   13788 12954
 =V(SEGCR)
               4 00003E90 00000001     V   23196 21383  22496
 =V(SEGCR)
               4 000048B0 00000001     V   25311 23985  24593
 =V(SEGCR)
               4 00005140 00000001     V   27666 27511  27593
 =V(SEGCR)
               4 00005BA4 00000001     V   31676 30976
 =V(SEGDC)
               4 000065D0 00000001     V   35123 33453
 =V(SEGINIT)
               4 00005114 00000001     V   27655 26057  26413  26796
 =V(SEGMARK)
               4 00003E8C 00000001     V   23195 21342
 =V(SEGT)      4 00003638 00000001     V   21055 19560  20192
 =V(SEGT)      4 00006900 00000001     V   36027 35761
 =V(SEGVNAME)
               4 00003640 00000001     V   21057 19597  20229
1EXEC     (EXEC2193) (12:44) (15MAR04) Ordinary Symbol and Literal Cross Reference                                          Page  221
 =V(SEGWR)
               4 000022AC 00000001     V   15752 15206
 =V(SEGWR)
               4 00003E94 00000001     V   23197 21412
 =V(SEGWR)
               4 000065CC 00000001     V   35122 33318  33541
 =V(SEGXLNO)
               4 00005128 00000001     V   27660 26442  26825  27486  27568
 =V(SEGXLNO)
               4 000065D4 00000001     V   35124 33512
 =V(SETPARM)
               4 00000664 00000001     V    9266  8094   8137
 =V(SETVAL)
               4 00006578 00000001     V   35101 32082  32143
 =V(SETXLINE)
               4 000065B8 00000001     V   35117 33163
 =V(SETXNAME)
               4 000006C0 00000001     V    9289  9092
 =V(SLICECHK)
               4 000065D8 00000001     V   35125 33551
 =V(TREAD)
               4 00002A4C 00000001     V   18002 17211
 =V(WAITER)
               4 00003EB8 00000001     V   23206 22786
 =V(XCHKSET)
               4 000025C0 00000001     V   16494 16369  16448
 =V(XDELGRP)
               4 00002594 00000001     V   16483 16088  16093  16098
 =V(XDELSET)
               4 000022B0 00000001     V   15753 15313  15319
 =V(XDELSET)
               4 00002598 00000001     V   16484 16106  16112
 =V(XGET)      4 000065E0 00000001     V   35127 33647  33773
 =V(XGETFRST)
               4 000065E8 00000001     V   35129 33897
 =V(XGETLAST)
               4 000065F0 00000001     V   35131 34049
 =V(XGETNEXT)
               4 000065F4 00000001     V   35132 34199
 =V(XGETPREV)
               4 000065F8 00000001     V   35133 34348
 =V(XLOCFRST)
               4 000065FC 00000001     V   35134 34499
 =V(XLOCLAST)
               4 00006604 00000001     V   35136 34667
 =V(XLOCNEXT)
               4 00006608 00000001     V   35137 34838
 =V(XLOCPREV)
               4 0000660C 00000001     V   35138 35009
 =V(XPUT)      4 00001A30 00000001     V   13786 12681  13143
 =V(XSETSET)
               4 00001A2C 00000001     V   13785 12673  13135
 =V(XSETSET)
               4 000065DC 00000001     V   35126 33637  33763  33887  34039  34189  34338  34491  34659  34830  35001
 =V(YESREQ)
               4 0000068C 00000001     V    9276  8605   8960
 =V(YESRTN)
               4 00005138 00000001     V   27664 27196
 =X'00000040'
1EXEC     (EXEC2193) (12:44) (15MAR04) Ordinary Symbol and Literal Cross Reference                                          Page  222
               4 000068F0 00000001     X   36023 35490
 =X'40000000'
               4 000065E4 00000001     X   35128 33666  33792  33919  34071  34221  34367
 =X'40000000'
               4 000068E0 00000001     X   36019 35214
 =X'4040'      2 0000690C 00000001     X   36030 35700
 =XL4'FFFFFFFF'
               4 00006600 00000001     X   35135 34652
 =Y((ATTNIDLN+3)/4*4)
               2 0000514E 00000001     Y   27671 26713
 =Y((L'CPSEG+1024+3)/4*4)
               2 0000514A 00000001     Y   27669 26158  26454  26837
 =Y((L'NSCNCB+3)/4*4)
               2 0000367C 00000001     Y   21071 19875
 =Y((R1+1-(R0)+16*((R0)/(R1+1))/((R0)/(R1+1)))*4)
               2 00002A94 00000001     Y   18019 17952
 =Y((R1+1-(R0)+16*((R0)/(R1+1))/((R0)/(R1+1)))*4)
               2 00003678 00000001     Y   21069 19611  20243  20821
 =Y((R1+1-(R0)+16*((R0)/(R1+1))/((R0)/(R1+1)))*4)
               2 00005BDC 00000001     Y   31682 30979
 =Y((R1+1-(R0)+16*((R0)/(R1+1))/((R0)/(R1+1)))*4)
               2 0000690E 00000001     Y   36031 35787
 =Y((R1+1-(R14)+16*((R14)/(R1+1))/((R14)/(R1+1)))*4)
               2 00005148 00000001     Y   27668 26060  26416  26799
 =Y((12+3)/4*4)
               2 000006D4 00000001     Y    9294  7896   7965   8030
 =Y((12+3)/4*4)
               2 00001A72 00000001     Y   13796 13376
 =Y((12+3)/4*4)
               2 000022D8 00000001     Y   15763 13888  14185  14940  15583
 =Y((12+3)/4*4)
               2 00002A90 00000001     Y   18017 16785
 =Y((12+3)/4*4)
               2 0000367A 00000001     Y   21070 19866  19997
 =Y((12+3)/4*4)
               2 00003EC0 00000001     Y   23208 21274  22652
 =Y((12+3)/4*4)
               2 00004944 00000001     Y   25320 23308  24045  24653
 =Y((12+3)/4*4)
               2 00006910 00000001     Y   36032 35855
 =Y((235+3)/4*4)
               2 0000514C 00000001     Y   27670 26363

1EXEC     (EXEC2193) (12:44) (15MAR04) Macro and Copy Code Source Summary                                                   Page  223
- Con Source                                        Volume    Members                        HLASM R4.0  2004/03/15 12.44
0     PRIMARY INPUT                                           CSECT    DROP     END      EX       LTORG    POP
                                                              PRINT    PUSH     SAMEAS   START    USING
   L1 WYL.GS.WYL.WYLBUR.MACLIB                      SYSB05    ABORT    AINFO    BASE     BOMB     BTD      COLINFO
                                                              COMMENT  CONTROL  CP       CPLOCAL  CV       CVLOCAL
                                                              ERROR    FFINFO   JCB      RDRNG    RG       SCAN
                                                              SCANCB   SCANCHK  SCBKUP   SCCBADR  SCINFO   SCINIT   SCKW
                                                              SCPOP    SCPUSH   SCRSTR   SCSAVE   SCUPTOK  SEGINIT
                                                              SETSCKWS TCLEAR   TCR      TMARK    TNUM     TPOP
                                                              TPUSH    TREAD    TSEG     TTYPE    TWRITE   VLTORG
                                                              VNENTRY  VPARM    XDSNAME  XPUSHRTN XSENTRY  XTRACE
   L2 WYL.GG.SYS.MACLIB                             SYSB05    $BC      $BFLKUP  $BV      $CCLKUP  $CRS     $CSS     $L
                                                              $LA      $LBLAD   $LEXP    $LOR     $REL     $RGLKUP
                                                              $USLKUP  ACALL    BEGIN    CEIL     CLEAR    COMPROC
                                                              CSECT    DATA     DECR     DEFCC    DEX      DPROC    DROP
                                                              DTEX     ELSE     ELSEIF   END      EX       FLAG     GEN
                                                              HIBAL    IDENT    IF       INCR     LABEL    LC       LS
                                                              LT       LTORG    MOVE     PEND     POP      PRETURN
                                                              PRINT    PROC     PUSH     QLTORG   RECORD   REG      REGS
                                                              SET      SETMSG   START    USING    VCALL    WHILE    WITH
                                                              XPROC
   L3 SYS3.IS.MACLIB                                SYSB05    SEG      SEGCB    SEGCLR   SEGCR    SEGDC    SEGLD
                                                              SEGMARK  SEGWR    SIB      SYSDEFN  XPOP     XPUSH

1EXEC     (EXEC2193) (12:44) (15MAR04) Dsect Cross Reference                                                                Page  224
-Dsect     Length      Id       Defn                                                         HLASM R4.0  2004/03/15 12.44
0$$$@R0   00000000  FFFFFFFE     705
 $$$@R1   00000000  FFFFFFFD     718
 $$$@R10  00000000  FFFFFFF4     835
 $$$@R11  00000000  FFFFFFF3     848
 $$$@R12  00000000  FFFFFFF2     861
 $$$@R13  00000000  FFFFFFF1     874
 $$$@R14  00000000  FFFFFFF0     887
 $$$@R15  00000000  FFFFFFEF     900
 $$$@R2   00000000  FFFFFFFC     731
 $$$@R3   00000000  FFFFFFFB     744
 $$$@R4   00000000  FFFFFFFA     757
 $$$@R5   00000000  FFFFFFF9     770
 $$$@R6   00000000  FFFFFFF8     783
 $$$@R7   00000000  FFFFFFF7     796
 $$$@R8   00000000  FFFFFFF6     809
 $$$@R9   00000000  FFFFFFF5     822
 $$$RCLXWA
          000000EB  FFFFFFDF   13494
 $$$RCP   00001000  FFFFFFEC    2454
 $$$RCV   00000FB0  FFFFFFEE    1179
 $$$RDEV  0000000C  FFFFFFEB    4668
 $$$RERRENTRY
          000002E7  FFFFFFE2    7428
 $$$REXFRSTWA
          00000004  FFFFFFD2   34409
 $$$REXLASTWA
          00000004  FFFFFFD1   34583
 $$$REXNEXTWA
          00000004  FFFFFFD0   34754
 $$$REXPREVWA
          00000004  FFFFFFCF   34925
 $$$REXWA 00000090  FFFFFFE1    7565
 $$$RFFINFO
          000003A0  FFFFFFE8    6601
 $$$RJCB  000000D0  FFFFFFE9    6306
 $$$RLDWA 000000FB  FFFFFFE0   12237
 $$$RNSCNCB
          000000B0  FFFFFFED    2375
 $$$RONENTRY
          000001E3  FFFFFFE3    7365
 $$$RPHONWA
          000001E7  FFFFFFD8   27708
 $$$RPHRRWA
          000002EB  FFFFFFD6   28615
 $$$RPPONWA
          000001E7  FFFFFFD7   28188
 $$$RPPRRWA
          000002EB  FFFFFFD5   29162
 $$$RPREWA
          00000449  FFFFFFD4   29984
 $$$RRDWA 000004A4  FFFFFFDC   16516
 $$$RRSVWA
          000000B0  FFFFFFDB   19726
 $$$RRSWA 000000EF  FFFFFFDD   15353
 $$$RTTYPE
1EXEC     (EXEC2193) (12:44) (15MAR04) Dsect Cross Reference                                                                Page  225
          0000010C  FFFFFFEA    6199
 $$$RVNENTRY
          00000050  FFFFFFE6    6875
 $$$RVPARM
          00000150  FFFFFFE5    7187
 $$$RWAITWA
          00000001  FFFFFFD9   22522
 $$$RWRITWA
          00000154  FFFFFFDA   21091
 $$$RXCMDAREA
          000000ED  FFFFFFDE   14599
 $$$RXCMDWA
          00000150  FFFFFFD3   31716
 $$$RXDSNAME
          00000040  FFFFFFE7    6843
 $$$RXSENTRY
          00000050  FFFFFFE4    7233
 HIBAL    00000000  FFFFFFFF     691

1EXEC     (EXEC2193) (12:44) (15MAR04) Using Map                                                                            Page  226
-                                                                                            HLASM R4.0  2004/03/15 12.44
   Stmt  -----Location----- Action ----------------Using----------------- Reg Max    Last  Label and Using Text
           Count      Id           Type          Value    Range     Id        Disp   Stmt
0   922  00000000  FFFFFFFF USING  ORDINARY    00000000 00001000 FFFFFFEF  15 000          @R15,15
    926  00000000  FFFFFFFF USING  ORDINARY    00000000 00001000 FFFFFFF0  14 024   26801  @R14,14
    930  00000000  FFFFFFFF USING  ORDINARY    00000000 00001000 FFFFFFF1  13 000   26838  @R13,13
    934  00000000  FFFFFFFF USING  ORDINARY    00000000 00001000 FFFFFFF2  12 000          @R12,12
    938  00000000  FFFFFFFF USING  ORDINARY    00000000 00001000 FFFFFFF3  11 000          @R11,11
    942  00000000  FFFFFFFF USING  ORDINARY    00000000 00001000 FFFFFFF4  10 000          @R10,10
    946  00000000  FFFFFFFF USING  ORDINARY    00000000 00001000 FFFFFFF5   9 000          @R9,9
    950  00000000  FFFFFFFF USING  ORDINARY    00000000 00001000 FFFFFFF6   8 000          @R8,8
    954  00000000  FFFFFFFF USING  ORDINARY    00000000 00001000 FFFFFFF7   7 000          @R7,7
    958  00000000  FFFFFFFF USING  ORDINARY    00000000 00001000 FFFFFFF8   6 000          @R6,6
    962  00000000  FFFFFFFF USING  ORDINARY    00000000 00001000 FFFFFFF9   5 000          @R5,5
    966  00000000  FFFFFFFF USING  ORDINARY    00000000 00001000 FFFFFFFA   4 000          @R4,4
    970  00000000  FFFFFFFF USING  ORDINARY    00000000 00001000 FFFFFFFB   3 001   25843  @R3,3
    974  00000000  FFFFFFFF USING  ORDINARY    00000000 00001000 FFFFFFFC   2 000   13701  @R2,2
    978  00000000  FFFFFFFF USING  ORDINARY    00000000 00001000 FFFFFFFD   1 001   35560  @R1,1
    982  00000000  FFFFFFFF USING  ORDINARY    00000000 00001000 FFFFFFFE   0 000          @R0,0
    983  00000000  FFFFFFFF DROP                                            0              0
   1163  00000017  00000001 USING  ORDINARY    00000000 00001000 FFFFFFEC  11 E54   35902  CP,CPR
   1172  00000017  00000001 USING  ORDINARY    00000000 00001000 FFFFFFEE  12 8A8   35967  CV,CVR
   7509  0000003C  00000001 USING  ORDINARY    0000003C 00001000 00000001   7 000          $$$77B,7
   7538  00000056  00000001 USING  ORDINARY    00000000 00001000 FFFFFFF7   7 000          @R7,7
   7683  0000007E  00000001 USING  ORDINARY    0000007E 00001000 00000001   7 68D    8339  $$$80B,7
   7697  0000007E  00000001 USING  ORDINARY    FFFFFFD8 00001000 FFFFFFE1   8 028    7701  EXWA-(4+36),R8
   7709  00000082  00000001 USING  ORDINARY    00000000 00001000 FFFFFFE1   6 050    9159  EXWA,R6
   8353  000002DE  00000001 USING  ORDINARY    00000000 00001000 FFFFFFF6   8 000          @R8,8
   8358  000002DE  00000001 USING  ORDINARY    00000000 00001000 FFFFFFF7   7 000          @R7,7
   8406  00000306  00000001 USING  ORDINARY    00000306 00001000 00000001   7 424    8473  $$$106B,7
   8486  00000338  00000001 USING  ORDINARY    00000000 00001000 FFFFFFF7   7 000          @R7,7
   8544  00000360  00000001 USING  ORDINARY    00000360 00001000 00000001   7 376    8789  $$$111B,7
   8847  00000460  00000001 USING  ORDINARY    00000000 00001000 FFFFFFF7   7 000          @R7,7
   8905  00000488  00000001 USING  ORDINARY    00000488 00001000 00000001   7 24E    9176  $$$121B,7
   9226  000005A0  00000001 USING  ORDINARY    00000000 00001000 FFFFFFF7   7 000          @R7,7
   9245  000005AE  00000001 USING  ORDINARY    00000000 00001000 FFFFFFF8   6 000          @R6,6
   9312  00000749  00000001 USING  ORDINARY    00000000 00001000 FFFFFFE1   6 00C   11318  EXWA,R6
  10077  00000EE6  00000001 USING  ORDINARY    00000EE6 00001000 00000001   7 000          $$$131B,7
  10104  00000EEE  00000001 USING  ORDINARY    00000000 00001000 FFFFFFF7   7 000          @R7,7
  10150  00000F16  00000001 USING  ORDINARY    00000F16 00001000 00000001   7 000          $$$134B,7
  10178  00000F1E  00000001 USING  ORDINARY    00000000 00001000 FFFFFFF7   7 000          @R7,7
  10224  00000F46  00000001 USING  ORDINARY    00000F46 00001000 00000001   7 000          $$$137B,7
  10251  00000F4E  00000001 USING  ORDINARY    00000000 00001000 FFFFFFF7   7 000          @R7,7
  10297  00000F76  00000001 USING  ORDINARY    00000F76 00001000 00000001   7 000          $$$140B,7
  10324  00000F7E  00000001 USING  ORDINARY    00000000 00001000 FFFFFFF7   7 000          @R7,7
  10369  00000FA6  00000001 USING  ORDINARY    00000FA6 00001000 00000001   7 B1F   10436  $$$143B,7
  10453  00000FDE  00000001 USING  ORDINARY    00000000 00001000 FFFFFFF7   7 000          @R7,7
  10498  00001006  00000001 USING  ORDINARY    00001006 00001000 00000001   7 9E2   10582  $$$148B,7
  10611  0000105A  00000001 USING  ORDINARY    00000000 00001000 FFFFFFF7   7 000          @R7,7
  10657  00001082  00000001 USING  ORDINARY    00001082 00001000 00000001   7 000          $$$154B,7
  10684  0000108A  00000001 USING  ORDINARY    00000000 00001000 FFFFFFF7   7 000          @R7,7
  10729  000010B2  00000001 USING  ORDINARY    000010B2 00001000 00000001   7 93A   10764  $$$157B,7
  10787  000010D4  00000001 USING  ORDINARY    00000000 00001000 FFFFFFF7   7 000          @R7,7
  10832  000010FC  00000001 USING  ORDINARY    000010FC 00001000 00000001   7 90C   10843  $$$161B,7
  10855  00001104  00000001 USING  ORDINARY    00000000 00001000 FFFFFFF7   7 000          @R7,7
  10901  0000112C  00000001 USING  ORDINARY    0000112C 00001000 00000001   7 000          $$$164B,7
1EXEC     (EXEC2193) (12:44) (15MAR04) Using Map                                                                            Page  227
  10928  00001134  00000001 USING  ORDINARY    00000000 00001000 FFFFFFF7   7 000          @R7,7
  10974  0000115C  00000001 USING  ORDINARY    0000115C 00001000 00000001   7 000          $$$167B,7
  11002  00001164  00000001 USING  ORDINARY    00000000 00001000 FFFFFFF7   7 000          @R7,7
  11048  0000118C  00000001 USING  ORDINARY    0000118C 00001000 00000001   7 000          $$$170B,7
  11087  0000119E  00000001 USING  ORDINARY    00000000 00001000 FFFFFFF7   7 000          @R7,7
  11132  000011C6  00000001 USING  ORDINARY    000011C6 00001000 00000001   7 018   11161  $$$173B,7
  11181  000011E0  00000001 USING  ORDINARY    00000000 00001000 FFFFFFF7   7 000          @R7,7
  11227  00001208  00000001 USING  ORDINARY    00001208 00001000 00000001   7 000          $$$177B,7
  11259  00001214  00000001 USING  ORDINARY    00000000 00001000 FFFFFFF7   7 000          @R7,7
  11304  0000123C  00000001 USING  ORDINARY    0000123C 00001000 00000001   7 020   11365  $$$180B,7
  11385  0000125E  00000001 USING  ORDINARY    00000000 00001000 FFFFFFF7   7 000          @R7,7
  11430  00001286  00000001 USING  ORDINARY    00001286 00001000 00000001   7 862   11459  $$$186B,7
  11468  000012A4  00000001 USING  ORDINARY    00000000 00001000 FFFFFFF7   7 000          @R7,7
  11489  000012B2  00000001 USING  ORDINARY    00000000 00001000 FFFFFFF8   6 000          @R6,6
  11527  000012CC  00000001 USING  ORDINARY    000012CC 00001000 00000001   7 748   11539  $$$189B,7
  11549  000012DA  00000001 USING  ORDINARY    00000000 00001000 FFFFFFF7   7 000          @R7,7
  11762  000014BA  00000001 USING  ORDINARY    000014BA 00001000 00000001   7 000          $$$192B,7
  11783  000014BE  00000001 USING  ORDINARY    00000000 00001000 FFFFFFF7   7 000          @R7,7
  11829  000014E6  00000001 USING  ORDINARY    000014E6 00001000 00000001   7 000          $$$195B,7
  11851  000014EA  00000001 USING  ORDINARY    00000000 00001000 FFFFFFF7   7 000          @R7,7
  11897  00001512  00000001 USING  ORDINARY    00001512 00001000 00000001   7 000          $$$198B,7
  11926  0000151E  00000001 USING  ORDINARY    00000000 00001000 FFFFFFF7   7 000          @R7,7
  11971  00001546  00000001 USING  ORDINARY    00001546 00001000 00000001   7 014   11994  $$$201B,7
  12014  0000155C  00000001 USING  ORDINARY    00000000 00001000 FFFFFFF7   7 000          @R7,7
  12060  00001584  00000001 USING  ORDINARY    00001584 00001000 00000001   7 000          $$$205B,7
  12082  0000158A  00000001 USING  ORDINARY    00000000 00001000 FFFFFFF7   7 000          @R7,7
  12127  000015B2  00000001 USING  ORDINARY    000015B2 00001000 00000001   7 01C   12182  $$$208B,7
  12202  000015D0  00000001 USING  ORDINARY    00000000 00001000 FFFFFFF7   7 000          @R7,7
  12304  000015F8  00000001 USING  ORDINARY    000015F8 00001000 00000001   7 42C   12352  $$$214B,7
  12318  000015F8  00000001 USING  ORDINARY    FFFFFFD8 00001000 FFFFFFE0   8 028   12322  LDWA-(4+36),R8
  12391  00001634  00000001 USING  ORDINARY    00000000 00001000 FFFFFFF6   8 000          @R8,8
  12396  00001634  00000001 USING  ORDINARY    00000000 00001000 FFFFFFF7   7 000          @R7,7
  12459  0000165C  00000001 USING  ORDINARY    0000165C 00001000 00000001   7 3CC   12508  $$$218B,7
  12473  0000165C  00000001 USING  ORDINARY    FFFFFFD8 00001000 FFFFFFE0   8 028   12478  LDWA-(4+36),R8
  12547  00001698  00000001 USING  ORDINARY    00000000 00001000 FFFFFFF6   8 000          @R8,8
  12552  00001698  00000001 USING  ORDINARY    00000000 00001000 FFFFFFF7   7 000          @R7,7
  12602  000016C0  00000001 USING  ORDINARY    000016C0 00001000 00000001   7 468   12711  $$$222B,7
  12620  000016C4  00000001 USING  ORDINARY    00000000 00001000 FFFFFFE0   6 010   12678  LDWA,R6
  12729  00001718  00000001 USING  ORDINARY    00000000 00001000 FFFFFFF7   7 000          @R7,7
  12748  00001726  00000001 USING  ORDINARY    00000000 00001000 FFFFFFF8   6 000          @R6,6
  12801  00001740  00000001 USING  ORDINARY    00001740 00001000 00000001   7 2F8   12975  $$$230B,7
  12815  00001740  00000001 USING  ORDINARY    FFFFFFD8 00001000 FFFFFFE0   8 02C   12911  LDWA-(4+36),R8
  13010  000017C6  00000001 USING  ORDINARY    00000000 00001000 FFFFFFF6   8 000          @R8,8
  13015  000017C6  00000001 USING  ORDINARY    00000000 00001000 FFFFFFF7   7 000          @R7,7
  13065  000017EE  00000001 USING  ORDINARY    000017EE 00001000 00000001   7 340   13202  $$$238B,7
  13082  000017F2  00000001 USING  ORDINARY    00000000 00001000 FFFFFFE0   6 010   13201  LDWA,R6
  13224  00001858  00000001 USING  ORDINARY    00000000 00001000 FFFFFFF7   7 000          @R7,7
  13243  00001866  00000001 USING  ORDINARY    00000000 00001000 FFFFFFF8   6 000          @R6,6
  13291  00001880  00000001 USING  ORDINARY    00001880 00001000 00000001   7 1F2   13421  $$$247B,7
  13309  00001884  00000001 USING  ORDINARY    00000000 00001000 FFFFFFE0   6 000   13431  LDWA,R6
  13455  00001910  00000001 USING  ORDINARY    00000000 00001000 FFFFFFF7   7 000          @R7,7
  13474  0000191E  00000001 USING  ORDINARY    00000000 00001000 FFFFFFF8   6 000          @R6,6
  13544  00001938  00000001 USING  ORDINARY    00001938 00001000 00000001   7 1FC   13733  $$$253B,7
  13558  00001938  00000001 USING  ORDINARY    FFFFFFD8 00001000 FFFFFFDF   8 02E   13719  CLXWA-(4+36),R8
  13578  00001948  00000001 USING  ORDINARY    00000000 00001000 FFFFFFE8   6 218   13621  FFINFO,R6
  13631  0000195E  00000001 USING  ORDINARY    00000000 00001000 FFFFFFF8   6 000          @R6,6
  13744  000019C4  00000001 USING  ORDINARY    00000000 00001000 FFFFFFF6   8 000          @R8,8
  13749  000019C4  00000001 USING  ORDINARY    00000000 00001000 FFFFFFF7   7 000          @R7,7
  13850  00001B54  00000001 USING  ORDINARY    00001B54 00001000 00000001   7 784   13902  $$$261B,7
1EXEC     (EXEC2193) (12:44) (15MAR04) Using Map                                                                            Page  228
  13911  00001BB2  00000001 USING  ORDINARY    00000000 00001000 FFFFFFF7   7 000          @R7,7
  13987  00001C2A  00000001 USING  ORDINARY    00001C2A 00001000 00000001   7 6C6   14069  $$$264B,7
  14081  00001C5C  00000001 USING  ORDINARY    00000000 00001000 FFFFFFF7   7 000          @R7,7
  14137  00001C84  00000001 USING  ORDINARY    00001C84 00001000 00000001   7 654   14199  $$$268B,7
  14209  00001CF2  00000001 USING  ORDINARY    00000000 00001000 FFFFFFF7   7 000          @R7,7
  14300  00001D92  00000001 USING  ORDINARY    00001D92 00001000 00000001   7 55E   14382  $$$271B,7
  14394  00001DC4  00000001 USING  ORDINARY    00000000 00001000 FFFFFFF7   7 000          @R7,7
  14439  00001DEC  00000001 USING  ORDINARY    00001DEC 00001000 00000001   7 490   14450  $$$275B,7
  14462  00001DF4  00000001 USING  ORDINARY    00000000 00001000 FFFFFFF7   7 000          @R7,7
  14518  00001E1C  00000001 USING  ORDINARY    00001E1C 00001000 00000001   7 4EF   14559  $$$278B,7
  14577  00001E3E  00000001 USING  ORDINARY    00000000 00001000 FFFFFFF7   7 000          @R7,7
  14652  00001E66  00000001 USING  ORDINARY    00001E66 00001000 00000001   7 50E   14811  $$$282B,7
  14699  00001E80  00000001 USING  ORDINARY    00000000 00001000 FFFFFFDE   6 002   14818  XCMDAREA,R6
  14843  00001ED6  00000001 USING  ORDINARY    00000000 00001000 FFFFFFF7   7 000          @R7,7
  14863  00001EE4  00000001 USING  ORDINARY    00000000 00001000 FFFFFFF8   6 000          @R6,6
  14904  00001EFE  00000001 USING  ORDINARY    00001EFE 00001000 00000001   7 3DA   14952  $$$292B,7
  14961  00001F60  00000001 USING  ORDINARY    00000000 00001000 FFFFFFF7   7 000          @R7,7
  15022  00001FB2  00000001 USING  ORDINARY    00001FB2 00001000 00000001   7 387   15206  $$$295B,7
  15215  00002036  00000001 USING  ORDINARY    00000000 00001000 FFFFFFF7   7 000          @R7,7
  15270  0000205E  00000001 USING  ORDINARY    0000205E 00001000 00000001   7 2E2   15322  $$$301B,7
  15330  00002094  00000001 USING  ORDINARY    00000000 00001000 FFFFFFF7   7 000          @R7,7
  15405  000020BC  00000001 USING  ORDINARY    000020BC 00001000 00000001   7 2AB   15659  $$$305B,7
  15419  000020BC  00000001 USING  ORDINARY    FFFFFFD8 00001000 FFFFFFDD   8 02C   15626  RSWA-(4+36),R8
  15668  000021C4  00000001 USING  ORDINARY    00000000 00001000 FFFFFFF6   8 000          @R8,8
  15673  000021C4  00000001 USING  ORDINARY    00000000 00001000 FFFFFFF7   7 000          @R7,7
  15820  00002394  00000001 USING  ORDINARY    00002394 00001000 00000001   7 000          $$$315B,7
  15842  00002398  00000001 USING  ORDINARY    00000000 00001000 FFFFFFF7   7 000          @R7,7
  15896  000023C0  00000001 USING  ORDINARY    000023C0 00001000 00000001   7 1C8   15908  $$$318B,7
  15921  000023CC  00000001 USING  ORDINARY    00000000 00001000 FFFFFFF7   7 000          @R7,7
  15974  000023F4  00000001 USING  ORDINARY    000023F4 00001000 00000001   7 19C   16001  $$$321B,7
  16014  0000241A  00000001 USING  ORDINARY    00000000 00001000 FFFFFFF7   7 000          @R7,7
  16073  00002442  00000001 USING  ORDINARY    00002442 00001000 00000001   7 176   16169  $$$324B,7
  16198  000024BA  00000001 USING  ORDINARY    00000000 00001000 FFFFFFF7   7 000          @R7,7
  16253  000024E2  00000001 USING  ORDINARY    000024E2 00001000 00000001   7 0E2   16282  $$$327B,7
  16299  00002500  00000001 USING  ORDINARY    00000000 00001000 FFFFFFF7   7 000          @R7,7
  16355  00002528  00000001 USING  ORDINARY    00002528 00001000 00000001   7 098   16369  $$$331B,7
  16378  00002536  00000001 USING  ORDINARY    00000000 00001000 FFFFFFF7   7 000          @R7,7
  16434  0000255E  00000001 USING  ORDINARY    0000255E 00001000 00000001   7 062   16448  $$$334B,7
  16457  0000256C  00000001 USING  ORDINARY    00000000 00001000 FFFFFFF7   7 000          @R7,7
  16635  000025EC  00000001 USING  ORDINARY    000025EC 00001000 00000001   7 4A4   16913  $$$337B,7
  16649  000025EC  00000001 USING  ORDINARY    FFFFFFD8 00001000 FFFFFFDC   8 028   16653  RDWA-(4+36),R8
  16661  000025F0  00000001 USING  ORDINARY    00000000 00001000 FFFFFFDC   5 400   19630  RDWA,R5
  16925  000026D6  00000001 USING  ORDINARY    00000000 00001000 FFFFFFF6   8 000          @R8,8
  16930  000026D6  00000001 USING  ORDINARY    00000000 00001000 FFFFFFF7   7 000          @R7,7
  16982  000026FE  00000001 USING  ORDINARY    000026FE 00001000 00000001   7 3DE   17453  $$$349B,7
  17346  000027CE  00000001 USING  ORDINARY    00000000 00001000 FFFFFFE9  15 062   17358  JCB,R15
  17365  000027D2  00000001 USING  ORDINARY    00000000 00001000 FFFFFFEF  15 000   17939  @R15,15
  17479  00002810  00000001 USING  ORDINARY    00000000 00001000 FFFFFFF7   7 000          @R7,7
  17531  00002838  00000001 USING  ORDINARY    00002838 00001000 00000001   7 2AA   17952  $$$371B,7
  17967  0000297C  00000001 USING  ORDINARY    00000000 00001000 FFFFFFF7   7 000          @R7,7
  18380  00002E4A  00000001 USING  ORDINARY    00002E4A 00001000 00000001   7 000          $$$390B,7
  18402  00002E4E  00000001 USING  ORDINARY    00000000 00001000 FFFFFFF7   7 000          @R7,7
  18447  00002E76  00000001 USING  ORDINARY    00002E76 00001000 00000001   7 7AA   18479  $$$393B,7
  18495  00002E8A  00000001 USING  ORDINARY    00000000 00001000 FFFFFFF7   7 000          @R7,7
  18541  00002EB2  00000001 USING  ORDINARY    00002EB2 00001000 00000001   7 000          $$$397B,7
  18567  00002EBC  00000001 USING  ORDINARY    00000000 00001000 FFFFFFF7   7 000          @R7,7
  18612  00002EE4  00000001 USING  ORDINARY    00002EE4 00001000 00000001   7 744   18634  $$$400B,7
  18646  00002EFA  00000001 USING  ORDINARY    00000000 00001000 FFFFFFF7   7 000          @R7,7
  18692  00002F22  00000001 USING  ORDINARY    00002F22 00001000 00000001   7 000          $$$403B,7
1EXEC     (EXEC2193) (12:44) (15MAR04) Using Map                                                                            Page  229
  18709  00002F2A  00000001 USING  ORDINARY    00000000 00001000 FFFFFFF7   7 000          @R7,7
  18755  00002F52  00000001 USING  ORDINARY    00002F52 00001000 00000001   7 792   18831  $$$406B,7
  18860  00002F86  00000001 USING  ORDINARY    00000000 00001000 FFFFFFF7   7 000          @R7,7
  18906  00002FAE  00000001 USING  ORDINARY    00002FAE 00001000 00000001   7 000          $$$414B,7
  18928  00002FB2  00000001 USING  ORDINARY    00000000 00001000 FFFFFFF7   7 000          @R7,7
  18974  00002FDA  00000001 USING  ORDINARY    00002FDA 00001000 00000001   7 000          $$$417B,7
  18995  00002FDE  00000001 USING  ORDINARY    00000000 00001000 FFFFFFF7   7 000          @R7,7
  19041  00003006  00000001 USING  ORDINARY    00003006 00001000 00000001   7 000          $$$420B,7
  19062  0000300A  00000001 USING  ORDINARY    00000000 00001000 FFFFFFF7   7 000          @R7,7
  19108  00003032  00000001 USING  ORDINARY    00003032 00001000 00000001   7 000          $$$423B,7
  19130  00003036  00000001 USING  ORDINARY    00000000 00001000 FFFFFFF7   7 000          @R7,7
  19176  0000305E  00000001 USING  ORDINARY    0000305E 00001000 00000001   7 000          $$$426B,7
  19198  00003062  00000001 USING  ORDINARY    00000000 00001000 FFFFFFF7   7 000          @R7,7
  19244  0000308A  00000001 USING  ORDINARY    0000308A 00001000 00000001   7 000          $$$429B,7
  19265  0000308E  00000001 USING  ORDINARY    00000000 00001000 FFFFFFF7   7 000          @R7,7
  19311  000030B6  00000001 USING  ORDINARY    000030B6 00001000 00000001   7 000          $$$432B,7
  19333  000030BA  00000001 USING  ORDINARY    00000000 00001000 FFFFFFF7   7 000          @R7,7
  19379  000030E2  00000001 USING  ORDINARY    000030E2 00001000 00000001   7 000          $$$435B,7
  19400  000030E6  00000001 USING  ORDINARY    00000000 00001000 FFFFFFF7   7 000          @R7,7
  19451  0000310E  00000001 USING  ORDINARY    0000310E 00001000 00000001   7 586   19666  $$$438B,7
  19467  0000310E  00000001 USING  ORDINARY    00000000 00001000 FFFFFFE6   2 020   19624  VNENTRY,R2
  19685  000031CE  00000001 USING  ORDINARY    00000000 00001000 FFFFFFF7   7 000          @R7,7
  19704  000031DC  00000001 USING  ORDINARY    00000000 00001000 FFFFFFFC   2 000          @R2,2
  19711  000031DC  00000001 USING  ORDINARY    00000000 00001000 FFFFFFF9   5 000          @R5,5
  19775  000031F6  00000001 USING  ORDINARY    000031F6 00001000 00000001   7 4CC   20305  $$$445B,7
  19789  000031F6  00000001 USING  ORDINARY    FFFFFFD8 00001000 FFFFFFDB   8 028   20077  RSVWA-(4+36),R8
  19800  000031F6  00000001 USING  ORDINARY    00000000 00001000 FFFFFFDC   5 204   20262  RDWA,R5
  19809  000031F6  00000001 USING  ORDINARY    00000000 00001000 FFFFFFE6   2 020   20256  VNENTRY,R2
  20324  0000341A  00000001 USING  ORDINARY    00000000 00001000 FFFFFFF6   8 000          @R8,8
  20329  0000341A  00000001 USING  ORDINARY    00000000 00001000 FFFFFFF7   7 000          @R7,7
  20348  00003428  00000001 USING  ORDINARY    00000000 00001000 FFFFFFFC   2 000          @R2,2
  20355  00003428  00000001 USING  ORDINARY    00000000 00001000 FFFFFFF9   5 000          @R5,5
  20395  00003442  00000001 USING  ORDINARY    00003442 00001000 00000001   7 2A8   20495  $$$461B,7
  20411  00003442  00000001 USING  ORDINARY    00000000 00001000 FFFFFFDC   5 354   20432  RDWA,R5
  20420  00003442  00000001 USING  ORDINARY    00000000 00001000 FFFFFFE6   6 000   20492  VNENTRY,R6
  20429  00003442  00000001 USING  ORDINARY    00000000 00001000 FFFFFFE4   4 026   20491  XSENTRY,R4
  20506  0000347E  00000001 USING  ORDINARY    00000000 00001000 FFFFFFF7   7 000          @R7,7
  20525  0000348C  00000001 USING  ORDINARY    00000000 00001000 FFFFFFF8   6 000          @R6,6
  20532  0000348C  00000001 USING  ORDINARY    00000000 00001000 FFFFFFF9   5 000          @R5,5
  20539  0000348C  00000001 USING  ORDINARY    00000000 00001000 FFFFFFFA   4 000          @R4,4
  20585  000034A6  00000001 USING  ORDINARY    000034A6 00001000 00000001   7 1D2   20867  $$$467B,7
  20601  000034A6  00000001 USING  ORDINARY    00000000 00001000 FFFFFFDC   5 354   20742  RDWA,R5
  20610  000034A6  00000001 USING  ORDINARY    00000000 00001000 FFFFFFE6   6 000   20814  VNENTRY,R6
  20619  000034A6  00000001 USING  ORDINARY    00000000 00001000 FFFFFFE4   4 024   20813  XSENTRY,R4
  20881  00003594  00000001 USING  ORDINARY    00000000 00001000 FFFFFFF7   7 000          @R7,7
  20900  000035A2  00000001 USING  ORDINARY    00000000 00001000 FFFFFFF8   6 000          @R6,6
  20907  000035A2  00000001 USING  ORDINARY    00000000 00001000 FFFFFFF9   5 000   31369  @R5,5
  20914  000035A2  00000001 USING  ORDINARY    00000000 00001000 FFFFFFFA   4 001   31440  @R4,4
  20952  000035BC  00000001 USING  ORDINARY    000035BC 00001000 00000001   7 134   21017  $$$478B,7
  21025  000035E4  00000001 USING  ORDINARY    00000000 00001000 FFFFFFF7   7 000          @R7,7
  21146  00003710  00000001 USING  ORDINARY    00003710 00001000 00000001   7 7E6   21445  $$$484B,7
  21160  00003710  00000001 USING  ORDINARY    FFFFFFD8 00001000 FFFFFFDA   8 028   21164  WRITWA-(4+36),R8
  21172  00003714  00000001 USING  ORDINARY    00000000 00001000 FFFFFFDA   6 004   21733  WRITWA,R6
  21182  00003718  00000001 USING  ORDINARY    00000000 00001000 FFFFFFE4   2 026   21305  XSENTRY,R2
  21464  00003808  00000001 USING  ORDINARY    00000000 00001000 FFFFFFE9  15 062   21476  JCB,R15
  21483  0000380C  00000001 USING  ORDINARY    00000000 00001000 FFFFFFEF  15 000          @R15,15
  21497  00003816  00000001 USING  ORDINARY    00000000 00001000 FFFFFFF6   8 000          @R8,8
  21502  00003816  00000001 USING  ORDINARY    00000000 00001000 FFFFFFF7   7 000          @R7,7
  21521  00003824  00000001 USING  ORDINARY    00000000 00001000 FFFFFFFC   2 000   25870  @R2,2
1EXEC     (EXEC2193) (12:44) (15MAR04) Using Map                                                                            Page  230
  21720  000039F6  00000001 USING  ORDINARY    000039F6 00001000 00000001   7 4AA   21736  $$$492B,7
  21748  00003A08  00000001 USING  ORDINARY    00000000 00001000 FFFFFFF7   7 000          @R7,7
  21794  00003A30  00000001 USING  ORDINARY    00003A30 00001000 00000001   7 000          $$$495B,7
  21815  00003A34  00000001 USING  ORDINARY    00000000 00001000 FFFFFFF7   7 000          @R7,7
  21861  00003A5C  00000001 USING  ORDINARY    00003A5C 00001000 00000001   7 000          $$$498B,7
  21886  00003A64  00000001 USING  ORDINARY    00000000 00001000 FFFFFFF7   7 000          @R7,7
  21932  00003A8C  00000001 USING  ORDINARY    00003A8C 00001000 00000001   7 000          $$$501B,7
  21954  00003A90  00000001 USING  ORDINARY    00000000 00001000 FFFFFFF7   7 000          @R7,7
  22000  00003AB8  00000001 USING  ORDINARY    00003AB8 00001000 00000001   7 000          $$$504B,7
  22022  00003ABC  00000001 USING  ORDINARY    00000000 00001000 FFFFFFF7   7 000          @R7,7
  22068  00003AE4  00000001 USING  ORDINARY    00003AE4 00001000 00000001   7 000          $$$507B,7
  22089  00003AE8  00000001 USING  ORDINARY    00000000 00001000 FFFFFFF7   7 000          @R7,7
  22135  00003B10  00000001 USING  ORDINARY    00003B10 00001000 00000001   7 000          $$$510B,7
  22157  00003B14  00000001 USING  ORDINARY    00000000 00001000 FFFFFFF7   7 000          @R7,7
  22203  00003B3C  00000001 USING  ORDINARY    00003B3C 00001000 00000001   7 000          $$$513B,7
  22224  00003B40  00000001 USING  ORDINARY    00000000 00001000 FFFFFFF7   7 000          @R7,7
  22270  00003B68  00000001 USING  ORDINARY    00003B68 00001000 00000001   7 000          $$$516B,7
  22291  00003B6C  00000001 USING  ORDINARY    00000000 00001000 FFFFFFF7   7 000          @R7,7
  22337  00003B94  00000001 USING  ORDINARY    00003B94 00001000 00000001   7 000          $$$519B,7
  22358  00003B98  00000001 USING  ORDINARY    00000000 00001000 FFFFFFF7   7 000          @R7,7
  22377  00003BA6  00000001 USING  ORDINARY    00000000 00001000 FFFFFFF8   6 000          @R6,6
  22418  00003BC0  00000001 USING  ORDINARY    00003BC0 00001000 00000001   7 2E4   22496  $$$522B,7
  22505  00003BF0  00000001 USING  ORDINARY    00000000 00001000 FFFFFFF7   7 000          @R7,7
  22584  00003C18  00000001 USING  ORDINARY    00003C18 00001000 00000001   7 2F1   22813  $$$527B,7
  22598  00003C18  00000001 USING  ORDINARY    FFFFFFD8 00001000 FFFFFFD9   8 028   22602  WAITWA-(4+36),R8
  22610  00003C1C  00000001 USING  ORDINARY    00000000 00001000 FFFFFFD9   6 000   23072  WAITWA,R6
  22828  00003CEC  00000001 USING  ORDINARY    00000000 00001000 FFFFFFE9  15 062   22840  JCB,R15
  22847  00003CF0  00000001 USING  ORDINARY    00000000 00001000 FFFFFFEF  15 000          @R15,15
  22861  00003CF8  00000001 USING  ORDINARY    00000000 00001000 FFFFFFF6   8 000          @R8,8
  22866  00003CF8  00000001 USING  ORDINARY    00000000 00001000 FFFFFFF7   7 000          @R7,7
  22990  00003DEA  00000001 USING  ORDINARY    00003DEA 00001000 00000001   7 000          $$$536B,7
  23012  00003DF2  00000001 USING  ORDINARY    00000000 00001000 FFFFFFF7   7 000          @R7,7
  23058  00003E1A  00000001 USING  ORDINARY    00003E1A 00001000 00000001   7 000          $$$539B,7
  23083  00003E20  00000001 USING  ORDINARY    00000000 00001000 FFFFFFF7   7 000          @R7,7
  23128  00003E48  00000001 USING  ORDINARY    00003E48 00001000 00000001   7 058   23144  $$$542B,7
  23158  00003E5C  00000001 USING  ORDINARY    00000000 00001000 FFFFFFF7   7 000          @R7,7
  23178  00003E6A  00000001 USING  ORDINARY    00000000 00001000 FFFFFFF8   6 000          @R6,6
  23270  00003F3C  00000001 USING  ORDINARY    00003F3C 00001000 00000001   7 A08   23316  $$$545B,7
  23325  00003F98  00000001 USING  ORDINARY    00000000 00001000 FFFFFFF7   7 000          @R7,7
  23375  00003FC0  00000001 USING  ORDINARY    00003FC0 00001000 00000001   7 986   23446  $$$548B,7
  23455  00004004  00000001 USING  ORDINARY    00000000 00001000 FFFFFFF7   7 000          @R7,7
  23503  0000402C  00000001 USING  ORDINARY    0000402C 00001000 00000001   7 81C   23517  $$$553B,7
  23526  0000403E  00000001 USING  ORDINARY    00000000 00001000 FFFFFFF7   7 000          @R7,7
  23944  00004426  00000001 USING  ORDINARY    00004426 00001000 00000001   7 52D   24053  $$$556B,7
  24062  000044BA  00000001 USING  ORDINARY    00000000 00001000 FFFFFFF7   7 000          @R7,7
  24110  000044E2  00000001 USING  ORDINARY    000044E2 00001000 00000001   7 426   24190  $$$560B,7
  24215  00004520  00000001 USING  ORDINARY    00000000 00001000 FFFFFFF7   7 000          @R7,7
  24262  00004548  00000001 USING  ORDINARY    00004548 00001000 00000001   7 000          $$$565B,7
  24295  00004552  00000001 USING  ORDINARY    00000000 00001000 FFFFFFF7   7 000          @R7,7
  24342  0000457A  00000001 USING  ORDINARY    0000457A 00001000 00000001   7 392   24412  $$$568B,7
  24429  000045A4  00000001 USING  ORDINARY    00000000 00001000 FFFFFFF7   7 000          @R7,7
  24476  000045CC  00000001 USING  ORDINARY    000045CC 00001000 00000001   7 392   24490  $$$574B,7
  24499  000045DE  00000001 USING  ORDINARY    00000000 00001000 FFFFFFF7   7 000          @R7,7
  24552  00004606  00000001 USING  ORDINARY    00004606 00001000 00000001   7 34D   24661  $$$577B,7
  24670  0000469A  00000001 USING  ORDINARY    00000000 00001000 FFFFFFF7   7 000          @R7,7
  24718  000046C2  00000001 USING  ORDINARY    000046C2 00001000 00000001   7 246   24797  $$$581B,7
  24829  00004706  00000001 USING  ORDINARY    00000000 00001000 FFFFFFF7   7 000          @R7,7
  24876  0000472E  00000001 USING  ORDINARY    0000472E 00001000 00000001   7 000          $$$586B,7
  24923  00004742  00000001 USING  ORDINARY    00000000 00001000 FFFFFFF7   7 000          @R7,7
1EXEC     (EXEC2193) (12:44) (15MAR04) Using Map                                                                            Page  231
  24971  0000476A  00000001 USING  ORDINARY    0000476A 00001000 00000001   7 20D   25048  $$$589B,7
  25065  0000479A  00000001 USING  ORDINARY    00000000 00001000 FFFFFFF7   7 000          @R7,7
  25113  000047C2  00000001 USING  ORDINARY    000047C2 00001000 00000001   7 000          $$$595B,7
  25138  000047C8  00000001 USING  ORDINARY    00000000 00001000 FFFFFFF7   7 000          @R7,7
  25184  000047F0  00000001 USING  ORDINARY    000047F0 00001000 00000001   7 000          $$$598B,7
  25210  000047F6  00000001 USING  ORDINARY    00000000 00001000 FFFFFFF7   7 000          @R7,7
  25257  0000481E  00000001 USING  ORDINARY    0000481E 00001000 00000001   7 18C   25271  $$$601B,7
  25280  00004830  00000001 USING  ORDINARY    00000000 00001000 FFFFFFF7   7 000          @R7,7
  25370  000049E2  00000001 USING  ORDINARY    000049E2 00001000 00000001   7 71E   25395  $$$604B,7
  25403  000049F0  00000001 USING  ORDINARY    00000000 00001000 FFFFFFF7   7 000          @R7,7
  25456  00004A18  00000001 USING  ORDINARY    00004A18 00001000 00000001   7 6EC   25495  $$$607B,7
  25503  00004A30  00000001 USING  ORDINARY    00000000 00001000 FFFFFFF7   7 000          @R7,7
  25565  00004A58  00000001 USING  ORDINARY    00004A58 00001000 00000001   7 000          $$$610B,7
  25598  00004A5E  00000001 USING  ORDINARY    00000000 00001000 FFFFFFF7   7 000          @R7,7
  25662  00004A86  00000001 USING  ORDINARY    00004A86 00001000 00000001   7 000          $$$613B,7
  25704  00004A92  00000001 USING  ORDINARY    00000000 00001000 FFFFFFF7   7 000          @R7,7
  25765  00004ABA  00000001 USING  ORDINARY    00004ABA 00001000 00000001   7 6A7   26158  $$$616B,7
  26175  00004BD6  00000001 USING  ORDINARY    00000000 00001000 FFFFFFF7   7 000          @R7,7
  26243  00004BFE  00000001 USING  ORDINARY    00004BFE 00001000 00000001   7 564   26529  $$$633B,7
  26546  00004D20  00000001 USING  ORDINARY    00000000 00001000 FFFFFFF7   7 000          @R7,7
  26611  00004D48  00000001 USING  ORDINARY    00004D48 00001000 00000001   7 42D   26868  $$$644B,7
  26627  00004D48  00000001 USING  ORDINARY    00000000 00001000 FFFFFFE9   6 062   26641  JCB,R6
  26885  00004E42  00000001 USING  ORDINARY    00000000 00001000 FFFFFFF7   7 000          @R7,7
  26904  00004E50  00000001 USING  ORDINARY    00000000 00001000 FFFFFFF8   6 000          @R6,6
  26956  00004E6A  00000001 USING  ORDINARY    00004E6A 00001000 00000001   7 30B   27597  $$$653B,7
  26973  00004E6E  00000001 USING  ORDINARY    00000000 00001000 FFFFFFE9   6 062   27530  JCB,R6
  27606  00005020  00000001 USING  ORDINARY    00000000 00001000 FFFFFFF7   7 000          @R7,7
  27626  0000502E  00000001 USING  ORDINARY    00000000 00001000 FFFFFFF8   6 000          @R6,6
  27760  000051A2  00000001 USING  ORDINARY    000051A2 00001000 00000001   7 4DE   28113  $$$674B,7
  27774  000051A2  00000001 USING  ORDINARY    FFFFFFD8 00001000 FFFFFFD8   8 02C   28021  PHONWA-(4+36),R8
  27785  000051A2  00000001 USING  ORDINARY    00000000 00001000 FFFFFFE3   6 100   28019  ONENTRY,R6
  28135  00005290  00000001 USING  ORDINARY    00000000 00001000 FFFFFFF6   8 000          @R8,8
  28140  00005290  00000001 USING  ORDINARY    00000000 00001000 FFFFFFF7   7 000          @R7,7
  28159  0000529E  00000001 USING  ORDINARY    00000000 00001000 FFFFFFF8   6 000          @R6,6
  28240  000052B8  00000001 USING  ORDINARY    000052B8 00001000 00000001   7 3C4   28543  $$$691B,7
  28254  000052B8  00000001 USING  ORDINARY    FFFFFFD8 00001000 FFFFFFD7   8 02C   28274  PPONWA-(4+36),R8
  28265  000052B8  00000001 USING  ORDINARY    00000000 00001000 FFFFFFE3   6 0F8   28539  ONENTRY,R6
  28564  00005374  00000001 USING  ORDINARY    00000000 00001000 FFFFFFF6   8 000          @R8,8
  28569  00005374  00000001 USING  ORDINARY    00000000 00001000 FFFFFFF7   7 000          @R7,7
  28588  00005382  00000001 USING  ORDINARY    00000000 00001000 FFFFFFF8   6 000          @R6,6
  28667  0000539C  00000001 USING  ORDINARY    0000539C 00001000 00000001   7 2D8   29071  $$$704B,7
  28681  0000539C  00000001 USING  ORDINARY    FFFFFFD8 00001000 FFFFFFD6   8 02C   29068  PHRRWA-(4+36),R8
  28692  0000539C  00000001 USING  ORDINARY    00000000 00001000 FFFFFFE2   6 200   29066  ERRENTRY,R6
  29105  000054CA  00000001 USING  ORDINARY    00000000 00001000 FFFFFFF6   8 000          @R8,8
  29110  000054CA  00000001 USING  ORDINARY    00000000 00001000 FFFFFFF7   7 000          @R7,7
  29129  000054D8  00000001 USING  ORDINARY    00000000 00001000 FFFFFFF8   6 000          @R6,6
  29214  000054F2  00000001 USING  ORDINARY    000054F2 00001000 00000001   7 18A   29441  $$$723B,7
  29228  000054F2  00000001 USING  ORDINARY    FFFFFFD8 00001000 FFFFFFD5   8 02C   29248  PPRRWA-(4+36),R8
  29239  000054F2  00000001 USING  ORDINARY    00000000 00001000 FFFFFFE2   6 1FC   29437  ERRENTRY,R6
  29463  000055BE  00000001 USING  ORDINARY    00000000 00001000 FFFFFFF6   8 000          @R8,8
  29468  000055BE  00000001 USING  ORDINARY    00000000 00001000 FFFFFFF7   7 000          @R7,7
  29487  000055CC  00000001 USING  ORDINARY    00000000 00001000 FFFFFFF8   6 000          @R6,6
  29558  000056A8  00000001 USING  ORDINARY    000056A8 00001000 00000001   7 018   29601  $$$732B,7
  29574  000056A8  00000001 USING  ORDINARY    00000000 00001000 FFFFFFE9   6 062   29622  JCB,R6
  29630  000056C4  00000001 USING  ORDINARY    00000000 00001000 FFFFFFF7   7 000          @R7,7
  29649  000056D2  00000001 USING  ORDINARY    00000000 00001000 FFFFFFF8   6 000          @R6,6
  29692  000056EC  00000001 USING  ORDINARY    000056EC 00001000 00000001   7 018   29729  $$$736B,7
  29708  000056EC  00000001 USING  ORDINARY    00000000 00001000 FFFFFFE9   6 062   29746  JCB,R6
  29758  00005704  00000001 USING  ORDINARY    00000000 00001000 FFFFFFF7   7 000          @R7,7
1EXEC     (EXEC2193) (12:44) (15MAR04) Using Map                                                                            Page  232
  29777  00005712  00000001 USING  ORDINARY    00000000 00001000 FFFFFFF8   6 000          @R6,6
  29822  0000572C  00000001 USING  ORDINARY    0000572C 00001000 00000001   7 03C   29880  $$$740B,7
  29838  0000572C  00000001 USING  ORDINARY    00000000 00001000 FFFFFFE9   6 062   29863  JCB,R6
  29914  0000575A  00000001 USING  ORDINARY    00000000 00001000 FFFFFFF7   7 000          @R7,7
  29933  00005768  00000001 USING  ORDINARY    00000000 00001000 FFFFFFF8   6 000          @R6,6
  30068  00005784  00000001 USING  ORDINARY    00005784 00001000 00000001   7 4E2   31483  $$$745B,7
  30082  00005784  00000001 USING  ORDINARY    FFFFFFD8 00001000 FFFFFFD4   8 470   31471  PREWA-(4+36),R8
  30111  0000579C  00000001 DROP                                            3              3
  30115  000057A2  00000001 USING  ORDINARY    00000000 00001000 FFFFFFFB   3 000          @R3,3
  30138  000057B0  00000001 DROP                                            3              3
  30142  000057B6  00000001 USING  ORDINARY    00000000 00001000 FFFFFFFB   3 000          @R3,3
  30373  00005834  00000001 DROP                                            3              3
  30377  0000583A  00000001 USING  ORDINARY    00000000 00001000 FFFFFFFB   3 000   30464  @R3,3
  30742  00005908  00000001 USING  ORDINARY    00000000 00001000 FFFFFFE4   2 026   30808  XSENTRY,R2
  30851  00005950  00000001 USING  ORDINARY    00000000 00001000 FFFFFFFC   2 000          @R2,2
  30880  00005958  00000001 USING  ORDINARY    00000000 00001000 FFFFFFE4   2 026   31048  XSENTRY,R2
  31091  00005A02  00000001 USING  ORDINARY    00000000 00001000 FFFFFFFC   2 000          @R2,2
  31498  00005AFC  00000001 USING  ORDINARY    00000000 00001000 FFFFFFF6   8 000          @R8,8
  31503  00005AFC  00000001 USING  ORDINARY    00000000 00001000 FFFFFFF7   7 000          @R7,7
  31555  00005B24  00000001 USING  ORDINARY    00005B24 00001000 00000001   7 0CD   31568  $$$818B,7
  31577  00005B30  00000001 USING  ORDINARY    00000000 00001000 FFFFFFF7   7 000          @R7,7
  31624  00005B58  00000001 USING  ORDINARY    00005B58 00001000 00000001   7 0AA   31637  $$$821B,7
  31646  00005B64  00000001 USING  ORDINARY    00000000 00001000 FFFFFFF7   7 000          @R7,7
  31766  00005C86  00000001 USING  ORDINARY    00005C86 00001000 00000001   7 98A   32143  $$$824B,7
  31780  00005C86  00000001 USING  ORDINARY    FFFFFFD8 00001000 FFFFFFD3   8 028   31896  XCMDWA-(4+36),R8
  31791  00005C86  00000001 USING  ORDINARY    00000000 00001000 FFFFFFE6   2 000          VNENTRY,R2
  32170  00005D60  00000001 USING  ORDINARY    00000000 00001000 FFFFFFF6   8 000          @R8,8
  32175  00005D60  00000001 USING  ORDINARY    00000000 00001000 FFFFFFF7   7 000          @R7,7
  32194  00005D6E  00000001 USING  ORDINARY    00000000 00001000 FFFFFFFC   2 000          @R2,2
  32241  00005D88  00000001 USING  ORDINARY    00005D88 00001000 00000001   7 7E0   32425  $$$846B,7
  32255  00005D88  00000001 USING  ORDINARY    FFFFFFD8 00001000 FFFFFFD3   8 028   32277  XCMDWA-(4+36),R8
  32266  00005D88  00000001 USING  ORDINARY    00000000 00001000 FFFFFFE6   2 000   32396  VNENTRY,R2
  32445  00005E04  00000001 USING  ORDINARY    00000000 00001000 FFFFFFF6   8 000          @R8,8
  32450  00005E04  00000001 USING  ORDINARY    00000000 00001000 FFFFFFF7   7 000          @R7,7
  32469  00005E12  00000001 USING  ORDINARY    00000000 00001000 FFFFFFFC   2 000          @R2,2
  32515  00005E2C  00000001 USING  ORDINARY    00005E2C 00001000 00000001   7 7F8   32624  $$$858B,7
  32531  00005E2C  00000001 USING  ORDINARY    00000000 00001000 FFFFFFE6   2 000   32623  VNENTRY,R2
  32644  00005E60  00000001 USING  ORDINARY    00000000 00001000 FFFFFFF7   7 000          @R7,7
  32663  00005E6E  00000001 USING  ORDINARY    00000000 00001000 FFFFFFFC   2 000          @R2,2
  32708  00005E88  00000001 USING  ORDINARY    00005E88 00001000 00000001   7 734   33175  $$$865B,7
  33184  00005FEE  00000001 USING  ORDINARY    00000000 00001000 FFFFFFF7   7 000          @R7,7
  33236  00006016  00000001 USING  ORDINARY    00006016 00001000 00000001   7 626   33318  $$$886B,7
  33327  00006052  00000001 USING  ORDINARY    00000000 00001000 FFFFFFF7   7 000          @R7,7
  33379  0000607A  00000001 USING  ORDINARY    0000607A 00001000 00000001   7 5C5   33551  $$$889B,7
  33559  00006100  00000001 USING  ORDINARY    00000000 00001000 FFFFFFF7   7 000          @R7,7
  33622  00006128  00000001 USING  ORDINARY    00006128 00001000 00000001   7 4BC   33666  $$$896B,7
  33681  0000615C  00000001 USING  ORDINARY    00000000 00001000 FFFFFFF7   7 000          @R7,7
  33748  00006184  00000001 USING  ORDINARY    00006184 00001000 00000001   7 460   33792  $$$900B,7
  33807  000061B4  00000001 USING  ORDINARY    00000000 00001000 FFFFFFF7   7 000          @R7,7
  33872  000061DC  00000001 USING  ORDINARY    000061DC 00001000 00000001   7 410   33941  $$$904B,7
  33959  00006220  00000001 USING  ORDINARY    00000000 00001000 FFFFFFF7   7 000          @R7,7
  34024  00006248  00000001 USING  ORDINARY    00006248 00001000 00000001   7 3A8   34093  $$$909B,7
  34111  0000628C  00000001 USING  ORDINARY    00000000 00001000 FFFFFFF7   7 000          @R7,7
  34174  000062B4  00000001 USING  ORDINARY    000062B4 00001000 00000001   7 340   34243  $$$914B,7
  34261  000062F8  00000001 USING  ORDINARY    00000000 00001000 FFFFFFF7   7 000          @R7,7
  34323  00006320  00000001 USING  ORDINARY    00006320 00001000 00000001   7 2D8   34367  $$$919B,7
  34382  00006354  00000001 USING  ORDINARY    00000000 00001000 FFFFFFF7   7 000          @R7,7
  34460  0000637C  00000001 USING  ORDINARY    0000637C 00001000 00000001   7 280   34527  $$$923B,7
  34474  0000637C  00000001 USING  ORDINARY    FFFFFFD8 00001000 FFFFFFD2   8 028   34513  EXFRSTWA-(4+36),R8
1EXEC     (EXEC2193) (12:44) (15MAR04) Using Map                                                                            Page  233
  34551  000063B6  00000001 USING  ORDINARY    00000000 00001000 FFFFFFF6   8 000          @R8,8
  34556  000063B6  00000001 USING  ORDINARY    00000000 00001000 FFFFFFF7   7 000          @R7,7
  34634  000063DE  00000001 USING  ORDINARY    000063DE 00001000 00000001   7 226   34695  $$$928B,7
  34648  000063DE  00000001 USING  ORDINARY    FFFFFFD8 00001000 FFFFFFD1   8 028   34681  EXLASTWA-(4+36),R8
  34719  00006418  00000001 USING  ORDINARY    00000000 00001000 FFFFFFF6   8 000          @R8,8
  34724  00006418  00000001 USING  ORDINARY    00000000 00001000 FFFFFFF7   7 000          @R7,7
  34805  00006440  00000001 USING  ORDINARY    00006440 00001000 00000001   7 1C8   34866  $$$933B,7
  34819  00006440  00000001 USING  ORDINARY    FFFFFFD8 00001000 FFFFFFD0   8 028   34852  EXNEXTWA-(4+36),R8
  34890  00006478  00000001 USING  ORDINARY    00000000 00001000 FFFFFFF6   8 000          @R8,8
  34895  00006478  00000001 USING  ORDINARY    00000000 00001000 FFFFFFF7   7 000          @R7,7
  34976  000064A0  00000001 USING  ORDINARY    000064A0 00001000 00000001   7 16C   35037  $$$938B,7
  34990  000064A0  00000001 USING  ORDINARY    FFFFFFD8 00001000 FFFFFFCF   8 028   35023  EXPREVWA-(4+36),R8
  35061  000064D8  00000001 USING  ORDINARY    00000000 00001000 FFFFFFF6   8 000          @R8,8
  35066  000064D8  00000001 USING  ORDINARY    00000000 00001000 FFFFFFF7   7 000          @R7,7
  35202  00006662  00000001 USING  ORDINARY    00006662 00001000 00000001   7 2CA   35299  $$$943B,7
  35219  0000666E  00000001 DROP                                            3              3
  35223  00006674  00000001 USING  ORDINARY    00000000 00001000 FFFFFFFB   3 000          @R3,3
  35317  000066C4  00000001 USING  ORDINARY    00000000 00001000 FFFFFFF7   7 000          @R7,7
  35374  000066EC  00000001 USING  ORDINARY    000066EC 00001000 00000001   7 1FC   35390  $$$951B,7
  35399  000066F6  00000001 USING  ORDINARY    00000000 00001000 FFFFFFF7   7 000          @R7,7
  35461  0000671E  00000001 USING  ORDINARY    0000671E 00001000 00000001   7 1D2   35561  $$$954B,7
  35588  00006764  00000001 USING  ORDINARY    00000000 00001000 FFFFFFF7   7 000          @R7,7
  35655  0000678C  00000001 USING  ORDINARY    0000678C 00001000 00000001   7 191   35905  $$$963B,7
  35671  0000678C  00000001 USING  ORDINARY    00000000 00001000 FFFFFFE6   2 000   35745  VNENTRY,R2
  35920  00006898  00000001 USING  ORDINARY    00000000 00001000 FFFFFFF7   7 000          @R7,7
  35939  000068A6  00000001 USING  ORDINARY    00000000 00001000 FFFFFFFC   2 000          @R2,2
  35979  000068C0  00000001 USING  ORDINARY    000068C0 00001000 00000001   7 000          $$$969B,7
  35994  000068C0  00000001 USING  ORDINARY    00000000 00001000 FFFFFFF7   7 000          @R7,7

1         (EXEC2193) (12:44) (15MAR04) General Purpose Register Cross Reference                                             Page  234
- Register  References (M=modified, B=branch, U=USING, D=DROP, N=index)                      HLASM R4.0  2004/03/15 12.44
0    0(0)      982U   983D  2099   2167M  2167   2168M  7492   7525M  7526   7546M  7665   7733M  7875M  7875   7884
              7885   7944M  7944   7953   7954   8009M  8009   8018   8019   8091M  8134M  8160M  8161M  8161   8179M
              8206M  8212   8366M  8389   8443M  8494M  8527   8565M  8566   8602M  8706M  8855M  8888   8920M  8921
              8957M  9094M  9158M  9234M 10060  10112M 10133  10186M 10207  10259M 10280  10332M 10352  10404M 10437M
             10461M 10481  10551M 10557  10590M 10592M 10598  10619M 10640  10692M 10712  10744  10765M 10795M 10815
             10863M 10884  10936M 10957  11010M 11031  11095M 11115  11147  11189M 11210  11267M 11287  11327M 11327
             11364  11370  11393M 11413  11444M 11460M 11476M 11510  11542  11557M 11745  11791M 11812  11859M 11880
             11934M 11954  11980  12022M 12043  12090M 12110  12144M 12144  12181  12187  12210M 12286  12333M 12404M
             12441  12489M 12560M 12585  12627  12628  12670M 12676M 12699M 12737M 12783  12845M 13023M 13048  13089
             13090  13132M 13138M 13161M 13232M 13274  13345  13356M 13356  13365  13366  13367  13398M 13398  13463M
             13526  13593M 13602M 13602  13621M 13638  13657  13668M 13674  13715  13730M 13757M 13833  13867M 13867
             13876  13877  13919M 13970  14041M 14089M 14120  14164M 14164  14173  14174  14217M 14283  14354M 14402M
             14422  14470M 14501  14549M 14585M 14635  14680M 14715M 14735M 14735  14773  14785M 14790  14791  14851M
             14887  14919M 14919  14928  14929  14969M 15005  15052M 15074M 15108M 15130M 15150M 15150  15195M 15223M
             15253  15301M 15310M 15316M 15338M 15387  15445M 15491M 15548M 15562M 15562  15571  15572  15681M 15803
             15850M 15879  15929M 15957  16022M 16056  16103M 16109M 16206M 16236  16283M 16307M 16338  16366M 16386M
             16417  16445M 16465M 16617  16764M 16764  16773  16774  16938M 16965  17026M 17055M 17082M 17101M 17121M
             17160M 17180M 17215  17287M 17399M 17399  17472  17487M 17514  17574M 17614M 17679  17700M 17713M 17747M
             17776M 17800M 17813M 17813  17823M 17823  17833  17834  17852M 17853  17889M 17910  17913  17953M 17960
             17975M 18363  18410M 18430  18503M 18524  18550  18575M 18595  18631  18654M 18675  18701  18717M 18738
             18793  18805M 18810  18811  18868M 18889  18936M 18957  19003M 19024  19070M 19091  19138M 19159  19206M
             19227  19273M 19294  19341M 19362  19408M 19434  19489M 19515M 19549M 19567M 19576  19604M 19612M 19657
             19693M 19757  19846M 19846  19855  19856  19857  19885M 19885  19896M 19977M 19977  19986  19987  19988
             20015M 20015  20097M 20121M 20147M 20181M 20199M 20208  20236M 20244M 20289  20337M 20378  20447  20490M
             20490  20514M 20568  20701M 20701  20805  20812M 20812  20822M 20846M 20846  20854M 20889M 20935  20962
             20963  21013M 21033M 21128  21192M 21219M 21242  21253M 21253  21262  21263  21305M 21372M 21372  21401M
             21401  21510M 21703  21733  21756M 21777  21823M 21844  21894M 21915  21962M 21983  22030M 22051  22097M
             22118  22165M 22186  22232M 22253  22299M 22320  22366M 22401  22431M 22446M 22446  22469M 22513M 22566
             22631M 22631  22640  22641  22681M 22738M 22756M 22874M 22973  22999  23020M 23041  23091M 23111  23141
             23166M 23253  23287M 23287  23296  23297  23333M 23358  23443M 23463M 23486  23518M 23534M 23927  23974M
             23992M 24010M 24024M 24024  24033  24034  24070M 24093  24165M 24223M 24245  24303M 24325  24413M 24437M
             24459  24491M 24507M 24535  24582M 24600M 24618M 24632M 24632  24641  24642  24678M 24701  24773M 24837M
             24859  24931M 24954  25049M 25073M 25096  25146M 25167  25218M 25240  25272M 25288M 25353  25411M 25439
             25511M 25548  25606M 25645  25712M 25748  26001M 26032  26035M 26061M 26068M 26082M 26085  26097M 26135M
             26148M 26183M 26226  26322M 26334M 26388  26391M 26417M 26424M 26437M 26444M 26474M 26474  26502M 26524M
             26554M 26594  26681M 26705M 26736M 26771  26774M 26800M 26807M 26820M 26827M 26863M 26863  26893M 26939
             27193M 27254M 27278  27292M 27371M 27395  27409M 27468M 27481M 27500M 27500  27550M 27563M 27582M 27582
             27614M 27742  27788  27960M 27981M 27981  27986  27989M 28010M 28010  28015  28018M 28109M 28148M 28222
             28268  28271M 28498M 28538M 28577M 28649  28695  28807M 28852M 28876  28898M 28922  28944M 28989M 29034M
             29058  29065M 29118M 29196  29242  29245M 29380M 29387M 29394M 29401M 29429M 29436M 29476M 29541  29638M
             29675  29766M 29805  29922M 30050  30166  30169M 30310  30476  30519  30532M 30558M 30607  30751M 30757M
             30890M 30895M 30934M 30956M 30958  30965M 30980M 30991M 31142  31251M 31252M 31275  31341  31342  31407M
             31409M 31410M 31413  31489M 31491  31511M 31538  31569M 31585M 31607  31638M 31654M 31748  31803M 31820M
             31820  31842M 31858M 31858  31880M 31890  31919M 31919  31957  32016M 32016  32026M 32058M 32058  32119M
             32119  32183M 32223  32272M 32300M 32300  32458M 32498  32652M 32691  32765M 32800  32837  32879M 32966M
             33171M 33192M 33219  33250M 33263M 33307M 33335M 33362  33442M 33442  33460M 33494M 33507M 33530M 33530
             33567M 33605  33633M 33642M 33663  33665  33674  33689M 33731  33768M 33789  33791  33800  33815M 33855
             33883M 33892M 33916  33918  33945M 33945  33952  33967M 34007  34035M 34044M 34068  34070  34097M 34097
             34104  34119M 34157  34186M 34194M 34218  34220  34247M 34247  34254  34269M 34306  34335M 34343M 34364
             34366  34375  34390M 34442  34487M 34513M 34536M 34536  34544  34564M 34616  34655M 34681M 34704M 34704
             34712  34732M 34787  34823  34826M 34852M 34875M 34875  34883  34903M 34958  34994  34997M 35023M 35046M
             35046  35054  35074M 35185  35302M 35303M 35310  35325M 35357  35407M 35444  35482  35596M 35638  35689
             35722M 35750M 35768M 35788M 35791M 35793M 35824  35835M 35835  35844  35845  35846  35894M 35913  35928M
             35962  36002M
     1(1)      978U  2099   2162M  2163M  2169M  7492   7546M  7665   7732M  7871M  7884N  7885N  7887N  7940M  7953N
1         (EXEC2193) (12:44) (15MAR04) General Purpose Register Cross Reference                                             Page  235
              7954N  7956N  8005M  8018N  8019N  8021N  8090M  8133M  8178M  8205M  8366M  8389   8442M  8494M  8527
              8601M  8707M  8855M  8888   8956M  9089M  9095M  9159M  9234M 10060  10112M 10133  10186M 10207  10259M
             10280  10332M 10352  10403M 10436M 10461M 10481  10550M 10556  10588M 10597  10619M 10640  10692M 10712
             10764M 10795M 10815  10863M 10884  10936M 10957  11010M 11031  11095M 11115  11189M 11210  11267M 11287
             11393M 11413  11443M 11459M 11476M 11510  11536M 11557M 11745  11791M 11812  11859M 11880  11934M 11954
             12022M 12043  12090M 12110  12210M 12286  12322M 12323  12334M 12404M 12441  12478M 12479  12490M 12560M
             12585  12677M 12698M 12737M 12783  12820M 12821  12846M 13023M 13048  13139M 13160M 13232M 13274  13344
             13352M 13365N 13366N 13367N 13388M 13389M 13389N 13463M 13526  13588M 13616M 13667M 13729M 13757M 13833
             13863M 13876N 13877N 13879N 13919M 13970  14040M 14089M 14120  14160M 14173N 14174N 14176N 14217M 14283
             14353M 14402M 14422  14470M 14501  14548M 14585M 14635  14685  14714M 14741M 14851M 14887  14915M 14928N
             14929N 14931N 14969M 15005  15051M 15073M 15107M 15129M 15157M 15194M 15223M 15253  15300M 15338M 15387
             15444M 15490M 15547M 15558M 15571N 15572N 15574N 15607M 15681M 15803  15850M 15879  15929M 15957  15985M
             15986  15987M 15988  15989M 15990  16022M 16056  16206M 16236  16282M 16307M 16338  16386M 16417  16465M
             16617  16760M 16773N 16774N 16776N 16938M 16965  17025M 17054M 17077M 17100M 17120M 17159M 17179M 17282M
             17472  17487M 17514  17573M 17613M 17641M 17669M 17699M 17746M 17775M 17835  17853M 17890M 17910  17953M
             17960  17975M 18363  18410M 18430  18503M 18524  18575M 18595  18654M 18675  18702  18717M 18738  18868M
             18889  18936M 18957  19003M 19024  19070M 19091  19138M 19159  19206M 19227  19273M 19294  19341M 19362
             19408M 19434  19488M 19514M 19542M 19566M 19576  19578M 19603M 19612M 19656  19693M 19757  19842M 19855N
             19856N 19857N 19895M 19973M 19986N 19987N 19988N 20052M 20053M 20053N 20054  20096M 20120M 20146M 20174M
             20198M 20208  20210M 20235M 20244M 20288  20337M 20378  20491M 20514M 20568  20702M 20805  20813M 20822M
             20852M 20852N 20889M 20935  21012M 21033M 21128  21191M 21218M 21241  21249M 21262N 21263N 21265N 21304M
             21510M 21703  21756M 21777  21823M 21844  21894M 21915  21962M 21983  22030M 22051  22097M 22118  22165M
             22186  22232M 22253  22299M 22320  22366M 22401  22430M 22467M 22513M 22566  22627M 22640N 22641N 22643N
             22680M 22737M 22755M 22874M 22973  23020M 23041  23091M 23111  23166M 23253  23283M 23296N 23297N 23299N
             23333M 23358  23442M 23463M 23486  23517M 23534M 23927  23973M 23991M 24009M 24020M 24033N 24034N 24036N
             24070M 24093  24164M 24223M 24245  24303M 24325  24412M 24437M 24459  24490M 24507M 24535  24581M 24599M
             24617M 24628M 24641N 24642N 24644N 24678M 24701  24772M 24837M 24859  24931M 24954  25048M 25073M 25096
             25146M 25167  25218M 25240  25271M 25288M 25353  25411M 25439  25511M 25548  25606M 25645  25712M 25748
             25909M 25910  26002M 26032  26034M 26061M 26067M 26081M 26134M 26149M 26183M 26226  26323M 26332M 26388
             26390M 26417M 26423M 26438M 26445M 26475M 26503M 26525M 26554M 26594  26682M 26706M 26737M 26771  26773M
             26800M 26806M 26821M 26828M 26864M 26893M 26939  27192M 27255M 27293M 27372M 27410M 27467M 27482M 27549M
             27564M 27614M 27742  27961M 27990M 28019M 28108M 28148M 28222  28272M 28499M 28539M 28577M 28649  28808M
             28853M 28899M 28945M 28990M 29035M 29066M 29118M 29196  29246M 29381M 29388M 29395M 29402M 29430M 29437M
             29476M 29541  29638M 29675  29766M 29805  29864M 29865M 29865N 29866  29922M 30050  30086  30164  30169
             30195  30195M 30214M 30259  30299M 30310  30379M 30404  30450N 30519  30526M 30526N 30532  30558  30607
             30654  30751  30757  30758  30889M 30889N 30890  30895  30933M 30956  30958  30964M 30980M 30990M 30997M
             30997N 30998  31143  31182M 31184  31225M 31253M 31255M 31256M 31257  31276  31303M 31341M 31412M 31414
             31471M 31489  31511M 31538  31568M 31585M 31607  31637M 31654M 31748  31802M 31840M 31878M 31889  32024M
             32183M 32223  32271M 32458M 32498  32652M 32691  32737M 32749  32764M 32774M 32786  32794M 32831M 32878M
             32965M 33172M 33192M 33219  33249M 33303M 33335M 33362  33438M 33459M 33493M 33508M 33567M 33605  33662
             33689M 33731  33788  33815M 33855  33915  33967M 34007  34067  34119M 34157  34217  34269M 34306  34363
             34390M 34442  34564M 34616  34732M 34787  34903M 34958  35074M 35185  35212  35228  35303  35325M 35357
             35407M 35444  35596M 35638  35689  35699  35701M 35721M 35745M 35767M 35788M 35789M 35789N 35823  35831M
             35844N 35845N 35846N 35893M 35913  35928M 35962  36002M
     2(2)      974U  2099   7492   7546M  7665   8366M  8389   8494M  8527   8708M  8855M  8888   9096M  9234M 10060
             10112M 10133  10186M 10207  10259M 10280  10332M 10352  10461M 10481  10619M 10640  10692M 10712  10795M
             10815  10863M 10884  10936M 10957  11010M 11031  11095M 11115  11189M 11210  11267M 11287  11393M 11413
             11476M 11510  11557M 11745  11791M 11812  11859M 11880  11934M 11954  12022M 12043  12090M 12110  12210M
             12286  12404M 12441  12560M 12585  12678M 12737M 12783  13023M 13048  13140M 13232M 13274  13463M 13526
             13633M 13638M 13642M 13646M 13646N 13715M 13717M 13718  13757M 13833  13919M 13970  14089M 14120  14217M
             14283  14402M 14422  14470M 14501  14585M 14635  14851M 14887  14969M 15005  15223M 15253  15338M 15387
             15608M 15681M 15803  15850M 15879  15929M 15957  16022M 16056  16206M 16236  16307M 16338  16386M 16417
             16465M 16617  16938M 16965  17215M 17218  17230M 17235  17239M 17248M 17248  17255  17487M 17514  17670M
             17772M 17774M 17775  17776  17796M 17798  17834M 17889  17913M 17922M 17922  17930M 17932  17975M 18363
             18410M 18430  18503M 18524  18575M 18595  18654M 18675  18717M 18738  18811M 18815M 18824M 18824  18831
             18868M 18889  18936M 18957  19003M 19024  19070M 19091  19138M 19159  19206M 19227  19273M 19294  19341M
             19362  19408M 19434  19467U 19469M 19494M 19579M 19630M 19693M 19704U 19757  19809U 19811M 20126M 20211M
             20262M 20337M 20348U 20378  20492M 20514M 20568  20652M 20703M 20763M 20814M 20889M 20935  20963M 20967M
             20976M 20976  20983  21033M 21128  21174M 21182U 21510M 21521U 21703  21756M 21777  21823M 21844  21894M
1         (EXEC2193) (12:44) (15MAR04) General Purpose Register Cross Reference                                             Page  236
             21915  21962M 21983  22030M 22051  22097M 22118  22165M 22186  22232M 22253  22299M 22320  22366M 22401
             22513M 22566  22691M 22691  22692M 22704  22874M 22973  23020M 23041  23091M 23111  23166M 23253  23333M
             23358  23463M 23486  23534M 23927  24070M 24093  24174M 24223M 24245  24303M 24325  24437M 24459  24507M
             24535  24678M 24701  24782M 24837M 24859  24931M 24954  25073M 25096  25146M 25167  25218M 25240  25288M
             25353  25411M 25439  25511M 25548  25606M 25645  25712M 25748  25814M 25830  25882  25888M 25888N 25903
             25910M 25929M 25929  25945  25955M 25955  25980M 25980  25995M 25995  26001  26003M 26150M 26183M 26226
             26324M 26335M 26357M 26439M 26446M 26476M 26504M 26526M 26554M 26594  26683M 26707M 26738M 26822M 26829M
             26865M 26893M 26939  27256M 27373M 27483M 27565M 27614M 27742  27962M 27991M 28020M 28110M 28148M 28222
             28273M 28500M 28540M 28577M 28649  28809M 28854M 28900M 28946M 28991M 29036M 29067M 29118M 29196  29247M
             29382M 29389M 29396M 29403M 29431M 29438M 29476M 29541  29638M 29675  29766M 29805  29922M 30050  30108M
             30130  30135M 30157  30167M 30167  30195M 30235M 30235  30253  30423  30742U 30750M 30851U 30880U 30888M
             31091U 31277M 31277  31303M 31511M 31538  31585M 31607  31654M 31748  31791U 31896M 32183M 32194U 32223
             32266U 32277M 32458M 32469U 32498  32531U 32652M 32663U 32691  32795M 32832M 33192M 33219  33335M 33362
             33509M 33567M 33605  33662M 33663M 33667M 33689M 33731  33788M 33789M 33793M 33815M 33855  33915M 33916M
             33920M 33941  33967M 34007  34067M 34068M 34072M 34093  34119M 34157  34217M 34218M 34222M 34243  34269M
             34306  34363M 34364M 34368M 34390M 34442  34496M 34564M 34616  34664M 34732M 34787  34835M 34903M 34958
             35006M 35074M 35185  35222N 35224  35225M 35225N 35241  35247N 35248N 35249M 35249N 35279  35294M 35325M
             35357  35387M 35407M 35444  35488M 35488  35489M 35490M 35505  35517  35529  35596M 35638  35671U 35928M
             35939U 35962  36002M
     3(3)      970U  2099   7492   7546M  7665   8366M  8389   8494M  8527   8855M  8888   9234M 10060  10112M 10133
             10186M 10207  10259M 10280  10332M 10352  10461M 10481  10619M 10640  10692M 10712  10795M 10815  10863M
             10884  10936M 10957  11010M 11031  11095M 11115  11189M 11210  11267M 11287  11393M 11413  11476M 11510
             11557M 11745  11791M 11812  11859M 11880  11934M 11954  12022M 12043  12090M 12110  12210M 12286  12404M
             12441  12560M 12585  12628M 12632M 12641M 12641  12648  12737M 12783  13023M 13048  13090M 13094M 13103M
             13103  13110  13232M 13274  13463M 13526  13674M 13678M 13687M 13687  13694  13757M 13833  13919M 13970
             14089M 14120  14217M 14283  14402M 14422  14470M 14501  14585M 14635  14851M 14887  14969M 15005  15223M
             15253  15338M 15387  15681M 15803  15850M 15879  15929M 15957  16022M 16056  16206M 16236  16307M 16338
             16386M 16417  16465M 16617  16938M 16965  17487M 17514  17797M 17798M 17799M 17799N 17800  17835M 17890
             17975M 18363  18410M 18430  18503M 18524  18575M 18595  18654M 18675  18717M 18738  18868M 18889  18936M
             18957  19003M 19024  19070M 19091  19138M 19159  19206M 19227  19273M 19294  19341M 19362  19408M 19434
             19693M 19757  19944M 19956M 19956  20057M 20337M 20378  20447M 20448  20452M 20461M 20461  20468  20514M
             20568  20742M 20808  20859M 20859N 20889M 20935  21033M 21128  21510M 21703  21756M 21777  21823M 21844
             21894M 21915  21962M 21983  22030M 22051  22097M 22118  22165M 22186  22232M 22253  22299M 22320  22366M
             22401  22513M 22566  22623M 22623  22670M 22670  22692M 22711M 22727  22762  22874M 22973  22999M 23001
             23020M 23041  23091M 23111  23166M 23253  23333M 23358  23463M 23486  23534M 23927  24070M 24093  24223M
             24245  24303M 24325  24437M 24459  24507M 24535  24678M 24701  24837M 24859  24931M 24954  25073M 25096
             25146M 25167  25218M 25240  25288M 25353  25411M 25439  25511M 25548  25606M 25645  25712M 25748  25815M
             25824M 25824  25830M 25832M 25851M 25882  25903  26183M 26226  26554M 26594  26893M 26939  27614M 27742
             28021M 28148M 28222  28274M 28577M 28649  29068M 29118M 29196  29248M 29476M 29541  29638M 29675  29766M
             29805  29922M 30050  30111D 30113M 30113  30114M 30115U 30124M 30124  30130N 30138D 30140M 30140  30141M
             30142U 30151M 30151  30157N 30166M 30178M 30178  30186M 30188  30259M 30260M 30269M 30269  30277M 30279
             30294N 30373D 30375M 30375  30376M 30377U 30378  30450M 30476  30654M 30655M 30657M 30675M 30688M 30688
             30696M 30698  30713N 30782M 30791M 30791  30799M 30801  30816N 31022M 31031M 31031  31039M 31041  31056N
             31113M 31114M 31114N 31115  31127  31142M 31143M 31152M 31152  31160M 31162  31177N 31183M 31184M 31196
             31219M 31219  31228M 31230  31249M 31250  31254M 31255  31275M 31276M 31286M 31286  31294M 31296  31342M
             31343M 31352M 31352  31360M 31362  31377N 31408M 31409  31413M 31414M 31423M 31423  31431M 31433  31511M
             31538  31585M 31607  31654M 31748  32183M 32223  32458M 32498  32652M 32691  33192M 33219  33335M 33362
             33567M 33605  33664M 33665M 33667M 33689M 33731  33790M 33791M 33793M 33815M 33855  33917M 33918M 33920M
             33967M 34007  34069M 34070M 34072M 34119M 34157  34219M 34220M 34222M 34269M 34306  34365M 34366M 34368M
             34390M 34442  34564M 34616  34732M 34787  34903M 34958  35074M 35185  35219D 35221M 35221  35222M 35223U
             35224M 35224N 35241  35325M 35357  35407M 35444  35491M 35505  35596M 35638  35928M 35962  36002M
     4(4)      966U  2099   7492   7546M  7665   8366M  8389   8494M  8527   8855M  8888   9234M 10060  10112M 10133
             10186M 10207  10259M 10280  10332M 10352  10461M 10481  10619M 10640  10692M 10712  10795M 10815  10863M
             10884  10936M 10957  11010M 11031  11095M 11115  11189M 11210  11267M 11287  11393M 11413  11476M 11510
             11557M 11745  11791M 11812  11859M 11880  11934M 11954  12022M 12043  12090M 12110  12210M 12286  12404M
             12441  12560M 12585  12737M 12783  13023M 13048  13232M 13274  13463M 13526  13647M 13657  13716M 13717
             13757M 13833  13919M 13970  14089M 14120  14217M 14283  14402M 14422  14470M 14501  14585M 14635  14851M
             14887  14969M 15005  15223M 15253  15338M 15387  15681M 15803  15850M 15879  15929M 15957  16022M 16056
             16206M 16236  16307M 16338  16386M 16417  16465M 16617  16938M 16965  17487M 17514  17975M 18363  18410M
1         (EXEC2193) (12:44) (15MAR04) General Purpose Register Cross Reference                                             Page  237
             18430  18503M 18524  18575M 18595  18654M 18675  18717M 18738  18868M 18889  18936M 18957  19003M 19024
             19070M 19091  19138M 19159  19206M 19227  19273M 19294  19341M 19362  19408M 19434  19693M 19757  19945M
             20054  20055M 20055N 20337M 20378  20429U 20432M 20514M 20539U 20568  20619U 20622M 20889M 20914U 20935
             21033M 21128  21510M 21703  21756M 21777  21823M 21844  21894M 21915  21962M 21983  22030M 22051  22097M
             22118  22165M 22186  22232M 22253  22299M 22320  22366M 22401  22513M 22566  22624M 22812  22849  22874M
             22973  23020M 23041  23091M 23111  23141M 23147  23166M 23253  23333M 23358  23463M 23486  23534M 23927
             24070M 24093  24223M 24245  24303M 24325  24437M 24459  24507M 24535  24678M 24701  24837M 24859  24931M
             24954  25073M 25096  25146M 25167  25218M 25240  25288M 25353  25411M 25439  25511M 25548  25606M 25645
             25712M 25748  26183M 26226  26554M 26594  26679M 26682  26706  26893M 26939  27614M 27742  28148M 28222
             28577M 28649  29118M 29196  29476M 29541  29638M 29675  29766M 29805  29922M 30050  30165M 30294M 30294
             30317M 30380M 30398M 30713M 30713  30718  30816M 30816  30831  31056M 31056  31071  31177M 31177  31183
             31250M 31252  31258M 31377M 31377  31392  31407  31411M 31511M 31538  31585M 31607  31654M 31748  32183M
             32223  32458M 32498  32652M 32691  33192M 33219  33335M 33362  33567M 33605  33667M 33689M 33731  33793M
             33815M 33855  33920M 33967M 34007  34072M 34119M 34157  34222M 34269M 34306  34368M 34390M 34442  34564M
             34616  34732M 34787  34903M 34958  35074M 35185  35212M 35215M 35226M 35226  35247M 35250M 35253  35325M
             35357  35407M 35444  35492M 35517  35596M 35638  35928M 35962  36002M
     5(5)      962U  2099   7492   7546M  7665   8366M  8389   8494M  8527   8855M  8888   9234M 10060  10112M 10133
             10186M 10207  10259M 10280  10332M 10352  10461M 10481  10619M 10640  10692M 10712  10795M 10815  10863M
             10884  10936M 10957  11010M 11031  11095M 11115  11189M 11210  11267M 11287  11393M 11413  11476M 11510
             11557M 11745  11791M 11812  11859M 11880  11934M 11954  12022M 12043  12090M 12110  12210M 12286  12404M
             12441  12560M 12585  12737M 12783  13023M 13048  13232M 13274  13463M 13526  13757M 13833  13919M 13970
             14089M 14120  14217M 14283  14402M 14422  14470M 14501  14585M 14635  14851M 14887  14969M 15005  15223M
             15253  15338M 15387  15681M 15803  15850M 15879  15929M 15957  16022M 16056  16206M 16236  16307M 16338
             16386M 16417  16465M 16617  16653M 16661U 16938M 16965  17487M 17514  17975M 18363  18410M 18430  18503M
             18524  18575M 18595  18654M 18675  18717M 18738  18868M 18889  18936M 18957  19003M 19024  19070M 19091
             19138M 19159  19206M 19227  19273M 19294  19341M 19362  19408M 19434  19693M 19711U 19757  19800U 20337M
             20355U 20378  20411U 20514M 20532U 20568  20601U 20889M 20907U 20935  21033M 21128  21510M 21703  21756M
             21777  21823M 21844  21894M 21915  21962M 21983  22030M 22051  22097M 22118  22165M 22186  22232M 22253
             22299M 22320  22366M 22401  22513M 22566  22874M 22973  23020M 23041  23091M 23111  23166M 23253  23333M
             23358  23463M 23486  23534M 23927  24070M 24093  24223M 24245  24303M 24325  24437M 24459  24507M 24535
             24678M 24701  24837M 24859  24931M 24954  25073M 25096  25146M 25167  25218M 25240  25288M 25353  25411M
             25439  25511M 25548  25606M 25645  25712M 25748  26183M 26226  26554M 26594  26893M 26939  27614M 27742
             28148M 28222  28577M 28649  29118M 29196  29476M 29541  29638M 29675  29766M 29805  29922M 30050  30164M
             30214  30260  30404M 30655  30758M 30998M 31257M 31343  31511M 31538  31585M 31607  31654M 31748  32183M
             32223  32458M 32498  32652M 32691  33192M 33219  33335M 33362  33567M 33605  33666M 33667M 33689M 33731
             33792M 33793M 33815M 33855  33919M 33920M 33967M 34007  34071M 34072M 34119M 34157  34221M 34222M 34269M
             34306  34367M 34368M 34390M 34442  34564M 34616  34732M 34787  34903M 34958  35074M 35185  35213M 35215M
             35227M 35227  35248M 35251M 35252M 35262M 35262  35270M 35272  35289M 35294  35295  35325M 35357  35407M
             35444  35493M 35529  35596M 35638  35928M 35962  36002M
     6(6)      958U  2099   7492   7546M  7665   7701M  7709U  8366M  8389   8494M  8527   8855M  8888   9234M  9245U
              9312U 10060  10112M 10133  10186M 10207  10259M 10280  10332M 10352  10461M 10481  10619M 10640  10692M
             10712  10795M 10815  10863M 10884  10936M 10957  11010M 11031  11095M 11115  11189M 11210  11267M 11287
             11393M 11413  11476M 11489U 11510  11557M 11745  11791M 11812  11859M 11880  11934M 11954  12022M 12043
             12090M 12110  12210M 12286  12404M 12441  12560M 12585  12612M 12620U 12737M 12748U 12783  13023M 13048
             13074M 13082U 13232M 13243U 13274  13301M 13309U 13463M 13474U 13526  13570M 13578U 13631U 13757M 13833
             13919M 13970  14089M 14120  14217M 14283  14402M 14422  14470M 14501  14585M 14635  14673M 14674M 14674
             14685M 14686  14699U 14851M 14863U 14887  14969M 15005  15223M 15253  15338M 15387  15681M 15803  15850M
             15879  15929M 15957  16022M 16056  16206M 16236  16307M 16338  16386M 16417  16465M 16617  16938M 16965
             17487M 17514  17975M 18363  18410M 18430  18503M 18524  18575M 18595  18654M 18675  18717M 18738  18868M
             18889  18936M 18957  19003M 19024  19070M 19091  19138M 19159  19206M 19227  19273M 19294  19341M 19362
             19408M 19434  19693M 19757  20337M 20378  20420U 20431M 20514M 20525U 20568  20610U 20621M 20889M 20900U
             20935  21033M 21128  21164M 21172U 21510M 21703  21756M 21777  21823M 21844  21894M 21915  21962M 21983
             22030M 22051  22097M 22118  22165M 22186  22232M 22253  22299M 22320  22366M 22377U 22401  22513M 22566
             22602M 22610U 22874M 22973  23020M 23041  23091M 23111  23166M 23178U 23253  23333M 23358  23463M 23486
             23534M 23927  24070M 24093  24223M 24245  24303M 24325  24437M 24459  24507M 24535  24678M 24701  24837M
             24859  24931M 24954  25073M 25096  25146M 25167  25218M 25240  25288M 25353  25411M 25439  25511M 25548
             25606M 25645  25712M 25748  26183M 26226  26554M 26594  26627U 26629M 26893M 26904U 26939  26965M 26973U
             27614M 27626U 27742  27785U 27787M 28148M 28159U 28222  28265U 28267M 28577M 28588U 28649  28692U 28694M
             29118M 29129U 29196  29239U 29241M 29476M 29487U 29541  29574U 29576M 29638M 29649U 29675  29708U 29710M
1         (EXEC2193) (12:44) (15MAR04) General Purpose Register Cross Reference                                             Page  238
             29766M 29777U 29805  29838U 29840M 29922M 29933U 30050  31511M 31538  31585M 31607  31654M 31748  32183M
             32223  32458M 32498  32652M 32691  33192M 33219  33335M 33362  33567M 33605  33689M 33731  33815M 33855
             33967M 34007  34119M 34157  34269M 34306  34390M 34442  34564M 34616  34732M 34787  34903M 34958  35074M
             35185  35228M 35253M 35279  35295M 35302  35325M 35357  35407M 35444  35596M 35638  35928M 35962  36002M
     7(7)      954U  2092M  2092   2093B  2099   2105B  7492   7497M  7509U  7538U  7546M  7665   7671M  7683U  8358U
              8366M  8389   8394M  8406U  8486U  8494M  8527   8532M  8544U  8847U  8855M  8888   8893M  8905U  9226U
              9234M 10060  10065M 10077U 10104U 10112M 10133  10138M 10150U 10178U 10186M 10207  10212M 10224U 10251U
             10259M 10280  10285M 10297U 10324U 10332M 10352  10357M 10369U 10453U 10461M 10481  10486M 10498U 10611U
             10619M 10640  10645M 10657U 10684U 10692M 10712  10717M 10729U 10787U 10795M 10815  10820M 10832U 10855U
             10863M 10884  10889M 10901U 10928U 10936M 10957  10962M 10974U 11002U 11010M 11031  11036M 11048U 11087U
             11095M 11115  11120M 11132U 11181U 11189M 11210  11215M 11227U 11259U 11267M 11287  11292M 11304U 11385U
             11393M 11413  11418M 11430U 11468U 11476M 11510  11515M 11527U 11549U 11557M 11745  11750M 11762U 11783U
             11791M 11812  11817M 11829U 11851U 11859M 11880  11885M 11897U 11926U 11934M 11954  11959M 11971U 12014U
             12022M 12043  12048M 12060U 12082U 12090M 12110  12115M 12127U 12202U 12210M 12286  12292M 12304U 12396U
             12404M 12441  12447M 12459U 12552U 12560M 12585  12590M 12602U 12729U 12737M 12783  12789M 12801U 13015U
             13023M 13048  13053M 13065U 13224U 13232M 13274  13279M 13291U 13455U 13463M 13526  13532M 13544U 13749U
             13757M 13833  13838M 13850U 13911U 13919M 13970  13975M 13987U 14081U 14089M 14120  14125M 14137U 14209U
             14217M 14283  14288M 14300U 14394U 14402M 14422  14427M 14439U 14462U 14470M 14501  14506M 14518U 14577U
             14585M 14635  14640M 14652U 14843U 14851M 14887  14892M 14904U 14961U 14969M 15005  15010M 15022U 15215U
             15223M 15253  15258M 15270U 15330U 15338M 15387  15393M 15405U 15673U 15681M 15803  15808M 15820U 15842U
             15850M 15879  15884M 15896U 15921U 15929M 15957  15962M 15974U 16014U 16022M 16056  16061M 16073U 16198U
             16206M 16236  16241M 16253U 16299U 16307M 16338  16343M 16355U 16378U 16386M 16417  16422M 16434U 16457U
             16465M 16617  16623M 16635U 16930U 16938M 16965  16970M 16982U 17479U 17487M 17514  17519M 17531U 17967U
             17975M 18363  18368M 18380U 18402U 18410M 18430  18435M 18447U 18495U 18503M 18524  18529M 18541U 18567U
             18575M 18595  18600M 18612U 18646U 18654M 18675  18680M 18692U 18709U 18717M 18738  18743M 18755U 18860U
             18868M 18889  18894M 18906U 18928U 18936M 18957  18962M 18974U 18995U 19003M 19024  19029M 19041U 19062U
             19070M 19091  19096M 19108U 19130U 19138M 19159  19164M 19176U 19198U 19206M 19227  19232M 19244U 19265U
             19273M 19294  19299M 19311U 19333U 19341M 19362  19367M 19379U 19400U 19408M 19434  19439M 19451U 19685U
             19693M 19757  19763M 19775U 20329U 20337M 20378  20383M 20395U 20506U 20514M 20568  20573M 20585U 20881U
             20889M 20935  20940M 20952U 21025U 21033M 21128  21134M 21146U 21502U 21510M 21703  21708M 21720U 21748U
             21756M 21777  21782M 21794U 21815U 21823M 21844  21849M 21861U 21886U 21894M 21915  21920M 21932U 21954U
             21962M 21983  21988M 22000U 22022U 22030M 22051  22056M 22068U 22089U 22097M 22118  22123M 22135U 22157U
             22165M 22186  22191M 22203U 22224U 22232M 22253  22258M 22270U 22291U 22299M 22320  22325M 22337U 22358U
             22366M 22401  22406M 22418U 22505U 22513M 22566  22572M 22584U 22866U 22874M 22973  22978M 22990U 23012U
             23020M 23041  23046M 23058U 23083U 23091M 23111  23116M 23128U 23158U 23166M 23253  23258M 23270U 23325U
             23333M 23358  23363M 23375U 23455U 23463M 23486  23491M 23503U 23526U 23534M 23927  23932M 23944U 24062U
             24070M 24093  24098M 24110U 24215U 24223M 24245  24250M 24262U 24295U 24303M 24325  24330M 24342U 24429U
             24437M 24459  24464M 24476U 24499U 24507M 24535  24540M 24552U 24670U 24678M 24701  24706M 24718U 24829U
             24837M 24859  24864M 24876U 24923U 24931M 24954  24959M 24971U 25065U 25073M 25096  25101M 25113U 25138U
             25146M 25167  25172M 25184U 25210U 25218M 25240  25245M 25257U 25280U 25288M 25353  25358M 25370U 25403U
             25411M 25439  25444M 25456U 25503U 25511M 25548  25553M 25565U 25598U 25606M 25645  25650M 25662U 25704U
             25712M 25748  25753M 25765U 26175U 26183M 26226  26231M 26243U 26546U 26554M 26594  26599M 26611U 26885U
             26893M 26939  26944M 26956U 27606U 27614M 27742  27748M 27760U 28140U 28148M 28222  28228M 28240U 28569U
             28577M 28649  28655M 28667U 29110U 29118M 29196  29202M 29214U 29468U 29476M 29541  29546M 29558U 29630U
             29638M 29675  29680M 29692U 29758U 29766M 29805  29810M 29822U 29914U 29922M 30050  30056M 30068U 31503U
             31511M 31538  31543M 31555U 31577U 31585M 31607  31612M 31624U 31646U 31654M 31748  31754M 31766U 32175U
             32183M 32223  32229M 32241U 32450U 32458M 32498  32503M 32515U 32644U 32652M 32691  32696M 32708U 33184U
             33192M 33219  33224M 33236U 33327U 33335M 33362  33367M 33379U 33559U 33567M 33605  33610M 33622U 33681U
             33689M 33731  33736M 33748U 33807U 33815M 33855  33860M 33872U 33959U 33967M 34007  34012M 34024U 34111U
             34119M 34157  34162M 34174U 34261U 34269M 34306  34311M 34323U 34382U 34390M 34442  34448M 34460U 34556U
             34564M 34616  34622M 34634U 34724U 34732M 34787  34793M 34805U 34895U 34903M 34958  34964M 34976U 35066U
             35074M 35185  35190M 35202U 35317U 35325M 35357  35362M 35374U 35399U 35407M 35444  35449M 35461U 35588U
             35596M 35638  35643M 35655U 35920U 35928M 35962  35967M 35979U 35994U 36002M
     8(8)      950U  2099   7492   7493M  7542   7546M  7665   7667M  7697U  8353U  8362   8366M  8389   8390M  8490
              8494M  8527   8528M  8851   8855M  8888   8889M  9230   9234M 10060  10061M 10108  10112M 10133  10134M
             10182  10186M 10207  10208M 10255  10259M 10280  10281M 10328  10332M 10352  10353M 10457  10461M 10481
             10482M 10615  10619M 10640  10641M 10688  10692M 10712  10713M 10791  10795M 10815  10816M 10859  10863M
             10884  10885M 10932  10936M 10957  10958M 11006  11010M 11031  11032M 11091  11095M 11115  11116M 11185
             11189M 11210  11211M 11263  11267M 11287  11288M 11389  11393M 11413  11414M 11472  11476M 11510  11511M
1         (EXEC2193) (12:44) (15MAR04) General Purpose Register Cross Reference                                             Page  239
             11542N 11553  11557M 11745  11746M 11787  11791M 11812  11813M 11855  11859M 11880  11881M 11930  11934M
             11954  11955M 12018  12022M 12043  12044M 12086  12090M 12110  12111M 12206  12210M 12286  12288M 12318U
             12391U 12400  12404M 12441  12443M 12473U 12547U 12556  12560M 12585  12586M 12733  12737M 12783  12785M
             12815U 13010U 13019  13023M 13048  13049M 13228  13232M 13274  13275M 13459  13463M 13526  13528M 13558U
             13744U 13753  13757M 13833  13834M 13915  13919M 13970  13971M 14085  14089M 14120  14121M 14213  14217M
             14283  14284M 14398  14402M 14422  14423M 14466  14470M 14501  14502M 14581  14585M 14635  14636M 14847
             14851M 14887  14888M 14965  14969M 15005  15006M 15219  15223M 15253  15254M 15334  15338M 15387  15389M
             15419U 15668U 15677  15681M 15803  15804M 15846  15850M 15879  15880M 15925  15929M 15957  15958M 16018
             16022M 16056  16057M 16202  16206M 16236  16237M 16303  16307M 16338  16339M 16382  16386M 16417  16418M
             16461  16465M 16617  16619M 16649U 16925U 16934  16938M 16965  16966M 17472  17483  17487M 17514  17515M
             17960  17971  17975M 18363  18364M 18406  18410M 18430  18431M 18499  18503M 18524  18525M 18571  18575M
             18595  18596M 18650  18654M 18675  18676M 18713  18717M 18738  18739M 18864  18868M 18889  18890M 18932
             18936M 18957  18958M 18999  19003M 19024  19025M 19066  19070M 19091  19092M 19134  19138M 19159  19160M
             19202  19206M 19227  19228M 19269  19273M 19294  19295M 19337  19341M 19362  19363M 19404  19408M 19434
             19435M 19689  19693M 19757  19759M 19789U 20324U 20333  20337M 20378  20379M 20510  20514M 20568  20569M
             20885  20889M 20935  20936M 21014  21029  21033M 21128  21130M 21160U 21497U 21506  21510M 21703  21704M
             21752  21756M 21777  21778M 21819  21823M 21844  21845M 21890  21894M 21915  21916M 21958  21962M 21983
             21984M 22026  22030M 22051  22052M 22093  22097M 22118  22119M 22161  22165M 22186  22187M 22228  22232M
             22253  22254M 22295  22299M 22320  22321M 22362  22366M 22401  22402M 22509  22513M 22566  22568M 22598U
             22861U 22870  22874M 22973  22974M 23001N 23016  23020M 23041  23042M 23087  23091M 23111  23112M 23147N
             23162  23166M 23253  23254M 23329  23333M 23358  23359M 23459  23463M 23486  23487M 23530  23534M 23927
             23928M 24066  24070M 24093  24094M 24219  24223M 24245  24246M 24299  24303M 24325  24326M 24433  24437M
             24459  24460M 24503  24507M 24535  24536M 24674  24678M 24701  24702M 24833  24837M 24859  24860M 24927
             24931M 24954  24955M 25069  25073M 25096  25097M 25142  25146M 25167  25168M 25214  25218M 25240  25241M
             25284  25288M 25353  25354M 25407  25411M 25439  25440M 25507  25511M 25548  25549M 25602  25606M 25645
             25646M 25708  25712M 25748  25749M 26179  26183M 26226  26227M 26550  26554M 26594  26595M 26889  26893M
             26939  26940M 27610  27614M 27742  27744M 27774U 28135U 28144  28148M 28222  28224M 28254U 28564U 28573
             28577M 28649  28651M 28681U 29105U 29114  29118M 29196  29198M 29228U 29463U 29472  29476M 29541  29542M
             29634  29638M 29675  29676M 29762  29766M 29805  29806M 29918  29922M 30050  30052M 30082U 31491N 31498U
             31507  31511M 31538  31539M 31581  31585M 31607  31608M 31650  31654M 31748  31750M 31780U 32170U 32179
             32183M 32223  32225M 32255U 32445U 32454  32458M 32498  32499M 32648  32652M 32691  32692M 33188  33192M
             33219  33220M 33331  33335M 33362  33363M 33563  33567M 33605  33606M 33674N 33685  33689M 33731  33732M
             33800N 33811  33815M 33855  33856M 33952N 33963  33967M 34007  34008M 34104N 34115  34119M 34157  34158M
             34254N 34265  34269M 34306  34307M 34375N 34386  34390M 34442  34444M 34474U 34544N 34551U 34560  34564M
             34616  34618M 34648U 34712N 34719U 34728  34732M 34787  34789M 34819U 34883N 34890U 34899  34903M 34958
             34960M 34990U 35054N 35061U 35070  35074M 35185  35186M 35310N 35321  35325M 35357  35358M 35403  35407M
             35444  35445M 35592  35596M 35638  35639M 35913  35924  35928M 35962  35963M 35998  36002M
     9(9)      946U  2099
    10(A)      942U  2099
    11(B)      938U  1163U  2099
    12(C)      934U  1172U  2099
    13(D)      930U  2099   7489   7492   7493   7494M  7494   7542M  7546   7548   7662   7665   7667   7668M  7668
              7879   7880   7881   7883M  7883   7896M  7897   7898   7899   7948   7949   7950   7952M  7952   7965M
              7966   7967   7968   8013   8014   8015   8017M  8017   8030M  8031   8032   8033   8362M  8366   8368
              8386   8389   8390   8391M  8391   8490M  8494   8496   8524   8527   8528   8529M  8529   8851M  8855
              8857   8885   8888   8889   8890M  8890   9230M  9234   9236  10057  10060  10061  10062M 10062  10108M
             10112  10114  10130  10133  10134  10135M 10135  10182M 10186  10188  10204  10207  10208  10209M 10209
             10255M 10259  10261  10277  10280  10281  10282M 10282  10328M 10332  10334  10349  10352  10353  10354M
             10354  10457M 10461  10463  10478  10481  10482  10483M 10483  10615M 10619  10621  10637  10640  10641
             10642M 10642  10688M 10692  10694  10709  10712  10713  10714M 10714  10791M 10795  10797  10812  10815
             10816  10817M 10817  10859M 10863  10865  10881  10884  10885  10886M 10886  10932M 10936  10938  10954
             10957  10958  10959M 10959  11006M 11010  11012  11028  11031  11032  11033M 11033  11091M 11095  11097
             11112  11115  11116  11117M 11117  11185M 11189  11191  11207  11210  11211  11212M 11212  11263M 11267
             11269  11284  11287  11288  11289M 11289  11389M 11393  11395  11410  11413  11414  11415M 11415  11472M
             11476  11478  11507  11510  11511  11512M 11512  11553M 11557  11559  11742  11745  11746  11747M 11747
             11787M 11791  11793  11809  11812  11813  11814M 11814  11855M 11859  11861  11877  11880  11881  11882M
             11882  11930M 11934  11936  11951  11954  11955  11956M 11956  12018M 12022  12024  12040  12043  12044
             12045M 12045  12086M 12090  12092  12107  12110  12111  12112M 12112  12206M 12210  12212  12283  12286
             12288  12289M 12289  12400M 12404  12406  12438  12441  12443  12444M 12444  12556M 12560  12562  12582
1         (EXEC2193) (12:44) (15MAR04) General Purpose Register Cross Reference                                             Page  240
             12585  12586  12587M 12587  12733M 12737  12739  12780  12783  12785  12786M 12786  13019M 13023  13025
             13045  13048  13049  13050M 13050  13228M 13232  13234  13271  13274  13275  13276M 13276  13360  13361
             13362  13364M 13364  13376M 13377  13378  13379  13459M 13463  13465  13523  13526  13528  13529M 13529
             13753M 13757  13759  13830  13833  13834  13835M 13835  13871  13872  13873  13875M 13875  13888M 13889
             13890  13891  13915M 13919  13921  13967  13970  13971  13972M 13972  14085M 14089  14091  14117  14120
             14121  14122M 14122  14168  14169  14170  14172M 14172  14185M 14186  14187  14188  14213M 14217  14219
             14280  14283  14284  14285M 14285  14398M 14402  14404  14419  14422  14423  14424M 14424  14466M 14470
             14472  14498  14501  14502  14503M 14503  14581M 14585  14587  14632  14635  14636  14637M 14637  14847M
             14851  14853  14884  14887  14888  14889M 14889  14923  14924  14925  14927M 14927  14940M 14941  14942
             14943  14965M 14969  14971  15002  15005  15006  15007M 15007  15219M 15223  15225  15250  15253  15254
             15255M 15255  15334M 15338  15340  15384  15387  15389  15390M 15390  15566  15567  15568  15570M 15570
             15583M 15584  15585  15586  15677M 15681  15683  15800  15803  15804  15805M 15805  15846M 15850  15852
             15876  15879  15880  15881M 15881  15925M 15929  15931  15954  15957  15958  15959M 15959  16018M 16022
             16024  16053  16056  16057  16058M 16058  16202M 16206  16208  16233  16236  16237  16238M 16238  16303M
             16307  16309  16335  16338  16339  16340M 16340  16382M 16386  16388  16414  16417  16418  16419M 16419
             16461M 16465  16467  16614  16617  16619  16620M 16620  16768  16769  16770  16772M 16772  16785M 16786
             16787  16788  16934M 16938  16940  16962  16965  16966  16967M 16967  17483M 17487  17489  17511  17514
             17515  17516M 17516  17910  17911M 17911  17952M 17953  17971M 17975  17977  18360  18363  18364  18365M
             18365  18406M 18410  18412  18427  18430  18431  18432M 18432  18499M 18503  18505  18521  18524  18525
             18526M 18526  18571M 18575  18577  18592  18595  18596  18597M 18597  18650M 18654  18656  18672  18675
             18676  18677M 18677  18713M 18717  18719  18735  18738  18739  18740M 18740  18864M 18868  18870  18886
             18889  18890  18891M 18891  18932M 18936  18938  18954  18957  18958  18959M 18959  18999M 19003  19005
             19021  19024  19025  19026M 19026  19066M 19070  19072  19088  19091  19092  19093M 19093  19134M 19138
             19140  19156  19159  19160  19161M 19161  19202M 19206  19208  19224  19227  19228  19229M 19229  19269M
             19273  19275  19291  19294  19295  19296M 19296  19337M 19341  19343  19359  19362  19363  19364M 19364
             19404M 19408  19410  19431  19434  19435  19436M 19436  19576  19577M 19577  19611M 19612  19689M 19693
             19695  19754  19757  19759  19760M 19760  19837  19839M 19839  19850  19851  19852  19854M 19854  19866M
             19867  19868  19869  19875M 19981  19982  19983  19985M 19985  19997M 19998  19999  20000  20208  20209M
             20209  20243M 20244  20333M 20337  20339  20375  20378  20379  20380M 20380  20510M 20514  20516  20565
             20568  20569  20570M 20570  20805  20806M 20806  20821M 20822  20885M 20889  20891  20932  20935  20936
             20937M 20937  21014M 21029M 21033  21035  21125  21128  21130  21131M 21131  21257  21258  21259  21261M
             21261  21274M 21275  21276  21277  21506M 21510  21512  21700  21703  21704  21705M 21705  21752M 21756
             21758  21774  21777  21778  21779M 21779  21819M 21823  21825  21841  21844  21845  21846M 21846  21890M
             21894  21896  21912  21915  21916  21917M 21917  21958M 21962  21964  21980  21983  21984  21985M 21985
             22026M 22030  22032  22048  22051  22052  22053M 22053  22093M 22097  22099  22115  22118  22119  22120M
             22120  22161M 22165  22167  22183  22186  22187  22188M 22188  22228M 22232  22234  22250  22253  22254
             22255M 22255  22295M 22299  22301  22317  22320  22321  22322M 22322  22362M 22366  22368  22398  22401
             22402  22403M 22403  22509M 22513  22515  22563  22566  22568  22569M 22569  22635  22636  22637  22639M
             22639  22652M 22653  22654  22655  22870M 22874  22876  22970  22973  22974  22975M 22975  23016M 23020
             23022  23038  23041  23042  23043M 23043  23087M 23091  23093  23108  23111  23112  23113M 23113  23162M
             23166  23168  23250  23253  23254  23255M 23255  23291  23292  23293  23295M 23295  23308M 23309  23310
             23311  23329M 23333  23335  23355  23358  23359  23360M 23360  23459M 23463  23465  23483  23486  23487
             23488M 23488  23530M 23534  23536  23924  23927  23928  23929M 23929  24028  24029  24030  24032M 24032
             24045M 24046  24047  24048  24066M 24070  24072  24090  24093  24094  24095M 24095  24219M 24223  24225
             24242  24245  24246  24247M 24247  24299M 24303  24305  24322  24325  24326  24327M 24327  24433M 24437
             24439  24456  24459  24460  24461M 24461  24503M 24507  24509  24532  24535  24536  24537M 24537  24636
             24637  24638  24640M 24640  24653M 24654  24655  24656  24674M 24678  24680  24698  24701  24702  24703M
             24703  24833M 24837  24839  24856  24859  24860  24861M 24861  24927M 24931  24933  24951  24954  24955
             24956M 24956  25069M 25073  25075  25093  25096  25097  25098M 25098  25142M 25146  25148  25164  25167
             25168  25169M 25169  25214M 25218  25220  25237  25240  25241  25242M 25242  25284M 25288  25290  25350
             25353  25354  25355M 25355  25407M 25411  25413  25436  25439  25440  25441M 25441  25507M 25511  25513
             25545  25548  25549  25550M 25550  25602M 25606  25608  25642  25645  25646  25647M 25647  25708M 25712
             25714  25745  25748  25749  25750M 25750  26028  26029M 26029  26032  26033M 26033  26060M 26061  26158M
             26179M 26183  26185  26223  26226  26227  26228M 26228  26332  26333M 26333  26363M 26384  26385M 26385
             26388  26389M 26389  26416M 26417  26454M 26550M 26554  26556  26591  26594  26595  26596M 26596  26679
             26680M 26680  26713M 26767  26768M 26768  26771  26772M 26772  26799M 26800  26837M 26889M 26893  26895
             26936  26939  26940  26941M 26941  27610M 27614  27616  27739  27742  27744  27745M 27745  28144M 28148
             28150  28219  28222  28224  28225M 28225  28573M 28577  28579  28646  28649  28651  28652M 28652  29114M
             29118  29120  29193  29196  29198  29199M 29199  29472M 29476  29478  29538  29541  29542  29543M 29543
1         (EXEC2193) (12:44) (15MAR04) General Purpose Register Cross Reference                                             Page  241
             29634M 29638  29640  29672  29675  29676  29677M 29677  29762M 29766  29768  29802  29805  29806  29807M
             29807  29918M 29922  29924  30047  30050  30052  30053M 30053  30958  30959M 30959  30979M 30980  31507M
             31511  31513  31535  31538  31539  31540M 31540  31581M 31585  31587  31604  31607  31608  31609M 31609
             31650M 31654  31656  31745  31748  31750  31751M 31751  32179M 32183  32185  32220  32223  32225  32226M
             32226  32454M 32458  32460  32495  32498  32499  32500M 32500  32648M 32652  32654  32688  32691  32692
             32693M 32693  33188M 33192  33194  33216  33219  33220  33221M 33221  33331M 33335  33337  33359  33362
             33363  33364M 33364  33563M 33567  33569  33602  33605  33606  33607M 33607  33685M 33689  33691  33728
             33731  33732  33733M 33733  33811M 33815  33817  33852  33855  33856  33857M 33857  33963M 33967  33969
             34004  34007  34008  34009M 34009  34115M 34119  34121  34154  34157  34158  34159M 34159  34265M 34269
             34271  34303  34306  34307  34308M 34308  34386M 34390  34392  34439  34442  34444  34445M 34445  34560M
             34564  34566  34613  34616  34618  34619M 34619  34728M 34732  34734  34784  34787  34789  34790M 34790
             34899M 34903  34905  34955  34958  34960  34961M 34961  35070M 35074  35076  35182  35185  35186  35187M
             35187  35321M 35325  35327  35354  35357  35358  35359M 35359  35403M 35407  35409  35441  35444  35445
             35446M 35446  35592M 35596  35598  35635  35638  35639  35640M 35640  35689  35690M 35690  35787M 35788
             35839  35840  35841  35843M 35843  35855M 35856  35857  35858  35924M 35928  35930  35959  35962  35963
             35964M 35964  35998M 36002  36004
    14(E)      926U  2099   2100M  2114   2115M  2116B  2118M  2119B  2139M  2140B  2144M  2145B  2147M  2148B  2150M
              2151B  2153M  2154B  2156M  2157M  2157B  2163   7489   7548M  7551B  7662   7769M  7770M  7770B  7878M
              7879   7880   7881   7886M  7887   7890M  7891M  7891B  7894M  7897   7898   7899   7904M  7905M  7905B
              7936M  7937M  7937B  7947M  7948   7949   7950   7955M  7956   7959M  7960M  7960B  7963M  7966   7967
              7968   7973M  7974M  7974B  8012M  8013   8014   8015   8020M  8021   8024M  8025M  8025B  8028M  8031
              8032   8033   8038M  8039M  8039B  8094M  8095M  8095B  8137M  8138M  8138B  8187M  8188M  8188B  8236M
              8237M  8237B  8259M  8260M  8260B  8282M  8283M  8283B  8339M  8340M  8340B  8368M  8371B  8386   8419M
              8420M  8420B  8469M  8470M  8470B  8473M  8474M  8474B  8496M  8499B  8524   8557M  8558M  8558B  8571M
              8572M  8572B  8605M  8606M  8606B  8613M  8614M  8614B  8630M  8631M  8631B  8636M  8637M  8637B  8640M
              8641M  8641B  8644M  8645M  8645B  8695M  8696M  8696B  8711M  8712M  8712B  8717M  8718M  8718B  8762M
              8763M  8763B  8789M  8790M  8790B  8857M  8860B  8885   8926M  8927M  8927B  8960M  8961M  8961B  8968M
              8969M  8969B  8985M  8986M  8986B  8991M  8992M  8992B  8995M  8996M  8996B  8999M  9000M  9000B  9035M
              9036M  9036B  9039M  9040M  9040B  9058M  9059M  9059B  9068M  9069M  9069B  9092M  9093M  9093B  9099M
              9100M  9100B  9120M  9121M  9121B  9141M  9142M  9142B  9156M  9157M  9157B  9162M  9163M  9163B  9176M
              9177M  9177B  9236M  9239B 10057  10114M 10117B 10130  10188M 10191B 10204  10261M 10264B 10277  10334M
             10337B 10349  10418M 10419M 10419B 10463M 10466B 10478  10515M 10516M 10516B 10549M 10550N 10551N 10555M
             10555  10582M 10583M 10583B 10621M 10624B 10637  10694M 10697B 10709  10797M 10800B 10812  10843M 10844M
             10844B 10865M 10868B 10881  10938M 10941B 10954  11012M 11015B 11028  11097M 11100B 11112  11191M 11194B
             11207  11269M 11272B 11284  11395M 11398B 11410  11455M 11456M 11456B 11478M 11481B 11507  11539M 11540M
             11540B 11559M 11562B 11742  11793M 11796B 11809  11861M 11864B 11877  11936M 11939B 11951  12024M 12027B
             12040  12092M 12095B 12107  12212M 12215B 12283  12337M 12338M 12338B 12352M 12353M 12353B 12406M 12409B
             12438  12493M 12494M 12494B 12508M 12509M 12509B 12562M 12565B 12582  12673M 12674M 12674B 12681M 12682M
             12682B 12739M 12742B 12780  12849M 12850M 12850B 12919M 12920M 12920B 12954M 12955M 12955B 12975M 12976M
             12976B 13025M 13028B 13045  13135M 13136M 13136B 13143M 13144M 13144B 13190M 13191M 13191B 13234M 13237B
             13271  13343M 13344N 13345N 13349M 13349  13359M 13360  13361  13362  13370M 13371M 13371B 13374M 13377
             13378  13379  13384M 13385M 13385B 13465M 13468B 13523  13636M 13637M 13637B 13733M 13734M 13734B 13759M
             13762B 13830  13870M 13871  13872  13873  13878M 13879  13882M 13883M 13883B 13886M 13889  13890  13891
             13896M 13897M 13897B 13902M 13903M 13903B 13921M 13924B 13967  13998M 13999M 13999B 14033M 14034M 14034B
             14069M 14070M 14070B 14091M 14094B 14117  14150M 14151M 14151B 14154M 14155M 14155B 14167M 14168  14169
             14170  14175M 14176  14179M 14180M 14180B 14183M 14186  14187  14188  14193M 14194M 14194B 14199M 14200M
             14200B 14219M 14222B 14280  14311M 14312M 14312B 14346M 14347M 14347B 14382M 14383M 14383B 14404M 14407B
             14419  14450M 14451M 14451B 14472M 14475B 14498  14559M 14560M 14560B 14587M 14590B 14632  14683M 14684M
             14684B 14713M 14714N 14715N 14719M 14719  14722M 14723M 14723B 14744M 14745M 14745B 14853M 14856B 14884
             14922M 14923  14924  14925  14930M 14931  14934M 14935M 14935B 14938M 14941  14942  14943  14948M 14949M
             14949B 14952M 14953M 14953B 14971M 14974B 15002  15063M 15064M 15064B 15085M 15086M 15086B 15141M 15142M
             15142B 15160M 15161M 15161B 15188M 15189M 15189B 15206M 15207M 15207B 15225M 15228B 15250  15313M 15314M
             15314B 15319M 15320M 15320B 15340M 15343B 15384  15525M 15526M 15526B 15540M 15541M 15541B 15565M 15566
             15567  15568  15573M 15574  15577M 15578M 15578B 15581M 15584  15585  15586  15591M 15592M 15592B 15596M
             15597M 15597B 15611M 15612M 15612B 15629M 15630M 15630B 15633M 15634M 15634B 15654M 15655M 15655B 15659M
             15660M 15660B 15683M 15686B 15800  15852M 15855B 15876  15908M 15909M 15909B 15931M 15934B 15954  15995M
             15996M 15996B 16001M 16002M 16002B 16024M 16027B 16053  16088M 16089M 16089B 16093M 16094M 16094B 16098M
             16099M 16099B 16106M 16107M 16107B 16112M 16113M 16113B 16118M 16119M 16119B 16124M 16125M 16125B 16130M
             16131M 16131B 16137M 16138M 16138B 16143M 16144M 16144B 16147M 16148M 16148B 16153M 16154M 16154B 16169M
1         (EXEC2193) (12:44) (15MAR04) General Purpose Register Cross Reference                                             Page  242
             16170M 16170B 16208M 16211B 16233  16264M 16265M 16265B 16309M 16312B 16335  16369M 16370M 16370B 16388M
             16391B 16414  16448M 16449M 16449B 16467M 16470B 16614  16676M 16677M 16677B 16767M 16768  16769  16770
             16775M 16776  16779M 16780M 16780B 16783M 16786  16787  16788  16793M 16794M 16794B 16813M 16814M 16814B
             16836M 16837M 16837B 16861M 16862M 16862B 16893M 16894M 16894B 16913M 16914M 16914B 16940M 16943B 16962
             17211M 17212M 17212B 17453M 17454M 17454B 17489M 17492B 17511  17638M 17639M 17639B 17644M 17645M 17645B
             17667M 17668M 17668B 17673M 17674M 17674B 17711M 17712M 17712B 17716M 17717M 17717B 17740M 17741M 17741B
             17856M 17857M 17857B 17977M 17980B 18360  18412M 18415B 18427  18479M 18480M 18480B 18505M 18508B 18521
             18577M 18580B 18592  18629M 18630M 18630B 18634M 18635M 18635B 18656M 18659B 18672  18719M 18722B 18735
             18766M 18767M 18767B 18781M 18782M 18782B 18870M 18873B 18886  18938M 18941B 18954  19005M 19008B 19021
             19072M 19075B 19088  19140M 19143B 19156  19208M 19211B 19224  19275M 19278B 19291  19343M 19346B 19359
             19410M 19413B 19431  19487M 19488N 19489N 19493M 19493  19497M 19498M 19498B 19560M 19561M 19561B 19582M
             19583M 19583B 19597M 19598M 19598B 19633M 19634M 19634B 19655M 19656N 19657N 19661M 19661  19665M 19666
             19670M 19670  19695M 19698B 19754  19836M 19837  19849M 19850  19851  19852  19860M 19861M 19861B 19864M
             19867  19868  19869  19873M 19876  19904M 19905M 19905B 19965M 19970M 19970  19980M 19981  19982  19983
             19991M 19992M 19992B 19995M 19998  19999  20000  20005M 20006M 20006B 20024M 20029M 20029  20037M 20038M
             20038B 20076M 20081M 20081  20119M 20120N 20121N 20125M 20125  20129M 20130M 20130B 20192M 20193M 20193B
             20214M 20215M 20215B 20229M 20230M 20230B 20265M 20266M 20266B 20287M 20288N 20289N 20293M 20293  20304M
             20305  20309M 20309  20339M 20342B 20375  20495M 20496M 20496B 20516M 20519B 20565  20655M 20656M 20656B
             20695M 20696M 20696B 20706M 20707M 20707B 20766M 20767M 20767B 20817M 20818M 20818B 20867M 20868M 20868B
             20891M 20894B 20932  21009M 21010M 21010B 21017M 21018M 21018B 21035M 21038B 21125  21190M 21191N 21192N
             21196M 21196  21200M 21201M 21201B 21240M 21241N 21242N 21246M 21246  21256M 21257  21258  21259  21264M
             21265  21268M 21269M 21269B 21272M 21275  21276  21277  21282M 21283M 21283B 21288M 21289M 21289B 21328M
             21329M 21329B 21342M 21343M 21343B 21383M 21384M 21384B 21412M 21413M 21413B 21512M 21515B 21700  21731M
             21732M 21732B 21736M 21737M 21737B 21758M 21761B 21774  21825M 21828B 21841  21896M 21899B 21912  21964M
             21967B 21980  22032M 22035B 22048  22099M 22102B 22115  22167M 22170B 22183  22234M 22237B 22250  22301M
             22304B 22317  22368M 22371B 22398  22429M 22430N 22431N 22435M 22435  22496M 22497M 22497B 22515M 22518B
             22563  22634M 22635  22636  22637  22642M 22643  22646M 22647M 22647B 22650M 22653  22654  22655  22660M
             22661M 22661B 22749M 22750M 22750B 22786M 22787M 22787B 22876M 22879B 22970  23022M 23025B 23038  23093M
             23096B 23108  23139M 23140M 23140B 23144M 23145M 23145B 23168M 23171B 23250  23290M 23291  23292  23293
             23298M 23299  23302M 23303M 23303B 23306M 23309  23310  23311  23316M 23317M 23317B 23335M 23338B 23355
             23387M 23388N 23403N 23418N 23419N 23420  23420  23421N 23422N 23435N 23439M 23439  23446M 23447M 23447B
             23465M 23468B 23483  23536M 23539B 23924  23985M 23986M 23986B 24003M 24004M 24004B 24027M 24028  24029
             24030  24035M 24036  24039M 24040M 24040B 24043M 24046  24047  24048  24053M 24054M 24054B 24072M 24075B
             24090  24122M 24123M 24123B 24157M 24158M 24158B 24177M 24178M 24178B 24225M 24228B 24242  24305M 24308B
             24322  24439M 24442B 24456  24509M 24512B 24532  24593M 24594M 24594B 24611M 24612M 24612B 24635M 24636
             24637  24638  24643M 24644  24647M 24648M 24648B 24651M 24654  24655  24656  24661M 24662M 24662B 24680M
             24683B 24698  24730M 24731M 24731B 24765M 24766M 24766B 24785M 24786M 24786B 24839M 24842B 24856  24933M
             24936B 24951  25075M 25078B 25093  25148M 25151B 25164  25220M 25223B 25237  25290M 25293B 25350  25395M
             25396M 25396B 25413M 25416B 25436  25495M 25496M 25496B 25513M 25516B 25545  25608M 25611B 25642  25714M
             25717B 25745  26006M 26007M 26007B 26028M 26032  26034N 26057M 26058M 26058B 26061M 26079M 26080M 26080B
             26104M 26105M 26105B 26128M 26129M 26129B 26146M 26147M 26147B 26153M 26154M 26154B 26185M 26188B 26223
             26327M 26328M 26328B 26338M 26339M 26339B 26360M 26361M 26361B 26384M 26388  26390N 26413M 26414M 26414B
             26417M 26435M 26436M 26436B 26442M 26443M 26443B 26449M 26450M 26450B 26479M 26480M 26480B 26507M 26508M
             26508B 26529M 26530M 26530B 26556M 26559B 26591  26686M 26687M 26687B 26710M 26711M 26711B 26741M 26742M
             26742B 26767M 26771  26773N 26796M 26797M 26797B 26800M 26818M 26819M 26819B 26825M 26826M 26826B 26832M
             26833M 26833B 26868M 26869M 26869B 26895M 26898B 26936  27065M 27066M 27066B 27116M 27117M 27117B 27196M
             27197M 27197B 27259M 27260M 27260B 27296M 27297M 27297B 27376M 27377M 27377B 27413M 27414M 27414B 27479M
             27480M 27480B 27486M 27487M 27487B 27511M 27512M 27512B 27515M 27516M 27516B 27561M 27562M 27562B 27568M
             27569M 27569B 27593M 27594M 27594B 27597M 27598M 27598B 27616M 27619B 27739  27965M 27966M 27966B 27994M
             27995M 27995B 28024M 28025M 28025B 28113M 28114M 28114B 28150M 28153B 28219  28277M 28278M 28278B 28503M
             28504M 28504B 28543M 28544M 28544B 28579M 28582B 28646  28812M 28813M 28813B 28857M 28858M 28858B 28903M
             28904M 28904B 28949M 28950M 28950B 28994M 28995M 28995B 29039M 29040M 29040B 29071M 29072M 29072B 29120M
             29123B 29193  29251M 29252M 29252B 29385M 29386M 29386B 29392M 29393M 29393B 29399M 29400M 29400B 29406M
             29407M 29407B 29434M 29435M 29435B 29441M 29442M 29442B 29478M 29481B 29538  29640M 29643B 29672  29768M
             29771B 29802  29924M 29927B 30047  30552M 30553M 30553B 30754M 30755M 30755B 30762M 30763M 30763B 30840M
             30841M 30841B 30893M 30894M 30894B 30976M 30977M 30977B 30983M 30984M 30984B 31002M 31003M 31003B 31080M
             31081M 31081B 31136M 31137M 31137B 31205M 31206M 31206B 31401M 31402M 31402B 31513M 31516B 31535  31587M
             31590B 31604  31656M 31659B 31745  31801M 31802N 31803N 31807M 31807  31888M 31889N 31890N 31894M 31894
             31899M 31900M 31900B 31979M 31980M 31980B 32067M 32068M 32068B 32082M 32083M 32083B 32128M 32129M 32129B
1         (EXEC2193) (12:44) (15MAR04) General Purpose Register Cross Reference                                             Page  243
             32143M 32144M 32144B 32185M 32188B 32220  32270M 32271N 32272N 32276M 32276  32280M 32281M 32281B 32460M
             32463B 32495  32654M 32657B 32688  32721M 32722M 32722B 32725M 32726M 32726B 32731M 32732M 32732B 32757M
             32758M 32758B 32798M 32799M 32799B 32835M 32836M 32836B 32871M 32872M 32872B 32959M 32960M 32960B 33004M
             33005M 33005B 33067M 33068M 33068B 33101M 33102M 33102B 33138M 33139M 33139B 33163M 33164M 33164B 33175M
             33176M 33176B 33194M 33197B 33216  33261M 33262M 33262B 33266M 33267M 33267B 33290M 33291M 33291B 33318M
             33319M 33319B 33337M 33340B 33359  33453M 33454M 33454B 33471M 33472M 33472B 33505M 33506M 33506B 33512M
             33513M 33513B 33541M 33542M 33542B 33551M 33552M 33552B 33569M 33572B 33602  33637M 33638M 33638B 33647M
             33648M 33648B 33691M 33694B 33728  33763M 33764M 33764B 33773M 33774M 33774B 33817M 33820B 33852  33887M
             33888M 33888B 33897M 33898M 33898B 33969M 33972B 34004  34039M 34040M 34040B 34049M 34050M 34050B 34121M
             34124B 34154  34189M 34190M 34190B 34199M 34200M 34200B 34271M 34274B 34303  34338M 34339M 34339B 34348M
             34349M 34349B 34392M 34395B 34439  34491M 34492M 34492B 34499M 34500M 34500B 34566M 34569B 34613  34659M
             34660M 34660B 34667M 34668M 34668B 34734M 34737B 34784  34830M 34831M 34831B 34838M 34839M 34839B 34905M
             34908B 34955  35001M 35002M 35002B 35009M 35010M 35010B 35076M 35079B 35182  35215M 35327M 35330B 35354
             35390M 35391M 35391B 35409M 35412B 35441  35598M 35601B 35635  35675M 35676M 35676B 35704M 35705M 35705B
             35733M 35734M 35734B 35761M 35762M 35762B 35779M 35780M 35780B 35822M 35823N 35824N 35828M 35828  35838M
             35839  35840  35841  35849M 35850M 35850B 35853M 35856  35857  35858  35863M 35864M 35864B 35887M 35888M
             35888B 35905M 35906M 35906B 35930M 35933B 35959  36004M 36007B
    15(F)      922U  2099   7521M  7522   7523M  7524   7531M  7531   7550M  7550   7900M  7900   7969M  7969   8034M
              8034   8370M  8370   8498M  8498   8561M  8562   8563M  8564   8859M  8859   8916M  8917   8918M  8919
              9078M  9078   9238M  9238  10116M 10116  10190M 10190  10263M 10263  10336M 10336  10446M 10446  10465M
             10465  10558M 10602M 10602  10623M 10623  10696M 10696  10780M 10780  10799M 10799  10848M 10848  10867M
             10867  10940M 10940  11014M 11014  11080M 11080  11099M 11099  11174M 11174  11193M 11193  11252M 11252
             11271M 11271  11378M 11378  11397M 11397  11452M 11480M 11480  11561M 11561  11795M 11795  11863M 11863
             11938M 11938  12007M 12007  12026M 12026  12094M 12094  12195M 12195  12214M 12214  12384M 12384  12408M
             12408  12540M 12540  12564M 12564  12625M 12626  12669M 12675M 12741M 12741  12863M 12863  12884M 12884
             12951M 12956M 13027M 13027  13087M 13088  13131M 13137M 13236M 13236  13380M 13380  13448M 13448  13467M
             13467  13761M 13761  13892M 13892  13923M 13923  14030M 14066M 14074M 14074  14093M 14093  14189M 14189
             14221M 14221  14343M 14379M 14387M 14387  14406M 14406  14455M 14455  14474M 14474  14589M 14589  14791M
             14795M 14804M 14804  14811  14855M 14855  14944M 14944  14973M 14973  15060M 15082M 15138M 15146M 15185M
             15203M 15227M 15227  15309M 15315M 15342M 15342  15587M 15587  15626M 15685M 15685  15854M 15854  15933M
             15933  16007M 16007  16026M 16026  16085M 16090M 16095M 16102M 16108M 16191M 16191  16210M 16210  16292M
             16292  16311M 16311  16365M 16390M 16390  16444M 16469M 16469  16789M 16789  16942M 16942  17208M 17208
             17289M 17289  17312  17336M 17346U 17365U 17385  17425  17491M 17491  17640M 17689M 17689  17708M 17737M
             17877M 17878M 17879  17912M 17979M 17979  18414M 18414  18488M 18488  18507M 18507  18560M 18560  18579M
             18579  18639M 18639  18658M 18658  18721M 18721  18853M 18853  18872M 18872  18940M 18940  19007M 19007
             19074M 19074  19142M 19142  19210M 19210  19277M 19277  19345M 19345  19412M 19412  19557M 19674M 19674
             19678M 19678  19697M 19697  19870M 19870  19921M 19938M 19938  20001M 20001  20189M 20313M 20313  20317M
             20317  20341M 20341  20518M 20518  20893M 20893  21037M 21037  21278M 21278  21325M 21339M 21380M 21409M
             21454M 21464U 21483U 21514M 21514  21741M 21741  21760M 21760  21827M 21827  21898M 21898  21966M 21966
             22034M 22034  22101M 22101  22169M 22169  22236M 22236  22303M 22303  22370M 22370  22493M 22517M 22517
             22656M 22656  22746M 22762M 22779M 22779  22799M 22799  22818M 22828U 22847U 22878M 22878  23005M 23005
             23024M 23024  23076M 23076  23095M 23095  23151M 23151  23170M 23170  23312M 23312  23337M 23337  23388M
             23397M 23397  23403M 23412M 23412  23418M 23419M 23421M 23422  23434M 23434  23435  23467M 23467  23538M
             23538  23982M 24000M 24049M 24049  24074M 24074  24154M 24208M 24208  24227M 24227  24288M 24288  24307M
             24307  24422M 24422  24441M 24441  24511M 24511  24590M 24608M 24657M 24657  24682M 24682  24762M 24822M
             24822  24841M 24841  24916M 24916  24935M 24935  25058M 25058  25077M 25077  25131M 25131  25150M 25150
             25203M 25203  25222M 25222  25292M 25292  25415M 25415  25515M 25515  25591M 25591  25610M 25610  25697M
             25697  25716M 25716  26032  26054M 26061M 26076M 26125M 26143M 26168M 26168  26187M 26187  26388  26410M
             26417M 26432M 26539M 26539  26558M 26558  26771  26793M 26800M 26815M 26878M 26878  26897M 26897  27476M
             27508M 27558M 27590M 27618M 27618  28128M 28128  28152M 28152  28557M 28557  28581M 28581  29098M 29098
             29122M 29122  29456M 29456  29480M 29480  29642M 29642  29770M 29770  29926M 29926  30533M 30567M 30567
             30821M 30831  30904M 30904  30923M 30923  30973M 31061M 31071  31382M 31392  31515M 31515  31589M 31589
             31658M 31658  32163M 32163  32187M 32187  32319M 32337M 32355M 32373M 32391M 32409M 32434M 32434  32462M
             32462  32533M 32555M 32555  32581M 32581  32607M 32607  32633M 32633  32656M 32656  33196M 33196  33258M
             33287M 33315M 33339M 33339  33391M 33392M 33393  33420  33438  33450M 33468M 33502M 33538M 33571M 33571
             33634M 33641M 33693M 33693  33760M 33767M 33819M 33819  33884M 33891M 33909M 33909  33935M 33935  33971M
             33971  34036M 34043M 34061M 34061  34087M 34087  34123M 34123  34185M 34193M 34211M 34211  34237M 34237
             34273M 34273  34334M 34342M 34394M 34394  34488M 34495M 34517M 34517  34537M 34568M 34568  34656M 34663M
             34685M 34685  34705M 34736M 34736  34827M 34834M 34856M 34856  34876M 34907M 34907  34998M 35005M 35027M
1         (EXEC2193) (12:44) (15MAR04) General Purpose Register Cross Reference                                             Page  244
             35027  35047M 35078M 35078  35214M 35215M 35308M 35308  35329M 35329  35411M 35411  35470M 35569M 35569
             35600M 35600  35730M 35758M 35776M 35781M 35859M 35859  35884M 35902M 35907M 35932M 35932  36006M 36006

1EXEC     (EXEC2193) (12:44) (15MAR04) Diagnostic Cross Reference and Assembler Summary                                     Page  245
-                                                                                            HLASM R4.0  2004/03/15 12.44
0     No Statements Flagged in this Assembly
 HIGH LEVEL ASSEMBLER, 5696-234, RELEASE 4.0, PTF P72483
0SYSTEM: OS/390 02.10.00            JOBNAME: WYL#EXEC    STEPNAME: ASM        PROCSTEP: (NOPROC)
0Datasets Allocated for this Assembly
  Con DDname   Dataset Name                                 Volume  Member
   P1 SYSIN    WYL.GS.WYL.WYLBUR.SOURCE                     SYSB05  EXEC
   L1 SYSLIB   WYL.GS.WYL.WYLBUR.MACLIB                     SYSB05
   L2          WYL.GG.SYS.MACLIB                            SYSB05
   L3          SYS3.IS.MACLIB                               SYSB05
   L4          SYS3.MACLIB                                  SYSB02
   L5          SYS1.MACLIB                                  MVSBR9
   L6          SYS1.MODGEN                                  MVSBR9
      SYSPRINT SYS04075.T124406.RA000.WYL#EXEC.PRINT.H01    SCR101
      SYSTERM  GG$SLP.WYL#EXEC.JOB03522.D0000101.?

    3668K allocated to Buffer Pool,         4301K would be required for this to be an In-Storage Assembly
    4740 Primary Input Records Read         7473 Library Records Read                102 Work File Reads
       0 ASMAOPT Records Read              21037 Primary Print Records Written       162 Work File Writes
       0 Punch Records Written                 0 ADATA Records Written
0Assembly Start Time: 12.44.07 Stop Time: 12.44.26 Processor Time: 00.00.06.9833
 Return Code 000
