1                        J E S 2  J O B  L O G  --  S Y S T E M  S Y S B  --  N O D E  R L G
0
 12.45.24 JOB03527 ---- MONDAY,    15 MAR 2004 ----
 12.45.24 JOB03527  ICH70001I GG$SLP   LAST ACCESS AT 12:45:07 ON MONDAY, MARCH 15, 2004
 12.45.24 JOB03527  $HASP373 WYL#FLOW STARTED - INIT 6    - CLASS B - SYS SYSB
 12.45.24 JOB03527  ***  HCMD      STEP $$QUIET
 12.45.24 JOB03527  PUR * Q OUT MUL
 12.45.24 JOB03527  JOB 5391 WYL#FLOW WILL BE PURGED
 12.45.25 JOB03527  WYL#FLOW.$$QUIET .         RC=Zero TapeIO=0000 DiskIO=0000 CPU=  .01s Elapsed=24.65s
 12.45.40 JOB03527  WYL#FLOW.ASM     .         RC=Zero TapeIO=0000 DiskIO=0857 CPU= 6.72s Elapsed=26.08s
 12.45.44 JOB03527  WYL#FLOW.EDIT    .         RC=Zero TapeIO=0000 DiskIO=0447 CPU= 1.40s Elapsed=40.16s
 12.45.44 JOB03527  WYL#FLOW Ended.  Name=Assemble FLOW                  Total CPU= 8.13s Elapsed=24.65s
 12.45.44 JOB03527
 12.45.44 JOB03527  Execution charges   Priority=Standard   Block=Day
 12.45.44 JOB03527
 12.45.44 JOB03527  CPU Usage         150.75          $93.46   Standard Processing Unit Equivalent
 12.45.44 JOB03527                                   =======
 12.45.44 JOB03527                                    $93.46   Total Job execution charge
 12.45.44 JOB03527
 12.45.44 JOB03527  See back separator page for print charges
 12.45.44 JOB03527
 12.45.44 JOB03527  $HASP395 WYL#FLOW ENDED  ASM=0, EDIT=0
1        1 //WYL#FLOW JOB SLP$GG,'Assemble FLOW',TIME=4,REGION=4M                  JOB03527
           //*
           /*JOBPARM LINES=99,COPIES=1
           /*JOBPARM FORMS=3HOL,PFORMAT=LAND,CHARS=BD13,DUPLEX=YES,FLASH=BAR4
           //*
           /*JOBPARM NOTIFY=GG.SLP,HOLD=OUTPUT                                     WYLGEN
         2 //$$QUIET EXEC PGM=HCMDX,PARM='PUR * Q OUT MUL'
           //*
         3 //ASM    EXEC PGM=ASMA90,REGION=8M,
           //            PARM=('NORENT,TERM,FLAG(NOCONT),US(MAP,WARN(10)),NODECK',
           //            'LC(32767),XREF(SHORT),ESD,DXREF,NOOBJECT')
         4 //STEPLIB DD DSN=SYS3.IS.TESTASM,DISP=SHR
         5 //SYSLIB   DD  DSN=WYL.GS.WYL.WYLBUR.MACLIB,DISP=SHR
         6 //         DD  DSN=WYL.GG.SYS.MACLIB,DISP=SHR
         7 //         DD  DSN=SYS3.IS.MACLIB,DISP=SHR
         8 //         DD  DSN=SYS3.MACLIB,DISP=SHR
         9 //         DD  DSN=SYS1.MACLIB,DISP=SHR
        10 //         DD  DSN=SYS1.MODGEN,DISP=SHR
        11 //SYSUT1   DD DSN=&&SYSUT1,UNIT=VIO,DISP=(,DELETE),
           //            SPACE=(4088,(500,250),,CONTIG,ROUND)
        12 //SYSTERM  DD SYSOUT=T
        13 //SYSPRINT DD DSN=&&PRINT,UNIT=SYSDA,DISP=(,PASS),
           //            SPACE=(6650,(250,250),RLSE),
           //            DCB=(BLKSIZE=6650,LRECL=133,RECFM=FB)
        14 //SYSUDUMP DD SYSOUT=A
        15 //SYSIN    DD  DSN=WYL.GS.WYL.WYLBUR.SOURCE(FLOW),DISP=SHR
           //*
        16 //EDIT    EXEC PGM=ASMEDIT,TIME=2,REGION=4000K,
           //             PARM='STMT'
        17 //STEPLIB  DD  DSN=WYL.GG.SYS.LINKLIB,DISP=SHR
        18 //ASMOUT   DD  DSN=&PRINT,DISP=(OLD,DELETE)
        19 //SYSPRINT DD  SYSOUT=A
1 STMT NO. MESSAGE
 -
        11 IGD01010I STORCLAS= TEMP STORGROUP =
        11 IGD01010I STORGRP=VIO ASSIGNED.
        13 IGD01010I STORCLAS= TEMP STORGROUP =
        13 IGD01010I STORGRP=VIO ASSIGNED.
 ICH70001I GG$SLP   LAST ACCESS AT 12:45:07 ON MONDAY, MARCH 15, 2004
 IEF142I WYL#FLOW $$QUIET - STEP WAS EXECUTED - COND CODE 0000
 *********************************************************************************
 *   WYL#FLOW/$$QUIET /                    Return Code      Zero                 *
 *   Region used      260K (16K user + 244K system)                              *
 *   Extended region  9692K (4K user + 9688K system)                             *
 *                                                                               *
 *   Paging              In      Out                                             *
 *   Private <-> Aux      0        0       CPU time (TCB)   00:00:00.01          *
 *   Private <-> Exp      0        0       CPU time (SRB)   00:00:00.00          *
 *   VIO                  0        0       Elapsed time    917:42:28.31          *
 *   Common               0      ---                                             *
 *                                                                               *
 *                                                                               *
 *   CPU Usage          0.18         $0.11  Standard Processing Unit Equivalent  *
 *                                   $0.11  Total Step execution charge          *
 *                                                                               *
 *    I/O count  DDname   Type Addr           I/O count  DDname   Type Addr      *
 *                         *** No I/O for this step ***                          *
 *********************************************************************************
 IEF373I STEP/$$QUIET /START 2004075.1245
 IEF374I STEP/$$QUIET /STOP  2004075.1245 CPU    0MIN 00.01SEC SRB    0MIN 00.00SEC VIRT    16K SYS   244K EXT       4K SYS    9688K
 IEF236I ALLOC. FOR WYL#FLOW ASM
 IEF237I 04DC ALLOCATED TO STEPLIB
 IEF237I 04DC ALLOCATED TO SYSLIB
 IEF237I 04DC ALLOCATED TO
 IEF237I 04DC ALLOCATED TO
 IEF237I 0402 ALLOCATED TO
 IEF237I 04A0 ALLOCATED TO
 IEF237I 04A0 ALLOCATED TO
 IGD101I SMS ALLOCATED TO DDNAME (SYSUT1  )
         DSN (SYS04075.T124524.RA000.WYL#FLOW.SYSUT1.H01  )
         STORCLAS (TEMP) MGMTCLAS (        ) DATACLAS (        )
         VOL SER NOS= VIO
 IEF237I JES2 ALLOCATED TO SYSTERM
 IGD101I SMS ALLOCATED TO DDNAME (SYSPRINT)
         DSN (SYS04075.T124524.RA000.WYL#FLOW.PRINT.H01   )
         STORCLAS (TEMP) MGMTCLAS (        ) DATACLAS (        )
         VOL SER NOS= SCR101
 IEF237I JES2 ALLOCATED TO SYSUDUMP
 IEF237I 04DC ALLOCATED TO SYSIN
 IEF142I WYL#FLOW ASM - STEP WAS EXECUTED - COND CODE 0000
 IEF285I   SYS3.IS.TESTASM                              KEPT
 IEF285I   VOL SER NOS= SYSB05.
 IEF285I   WYL.GS.WYL.WYLBUR.MACLIB                     KEPT
 IEF285I   VOL SER NOS= SYSB05.
 IEF285I   WYL.GG.SYS.MACLIB                            KEPT
 IEF285I   VOL SER NOS= SYSB05.
 IEF285I   SYS3.IS.MACLIB                               KEPT
 IEF285I   VOL SER NOS= SYSB05.
 IEF285I   SYS3.MACLIB                                  KEPT
 IEF285I   VOL SER NOS= SYSB02.
 IEF285I   SYS1.MACLIB                                  KEPT
 IEF285I   VOL SER NOS= MVSBR9.
 IEF285I   SYS1.MODGEN                                  KEPT
 IEF285I   VOL SER NOS= MVSBR9.
 IGD105I SYS04075.T124524.RA000.WYL#FLOW.SYSUT1.H01   DELETED,   DDNAME=SYSUT1
 IEF285I   GG$SLP.WYL#FLOW.JOB03527.D0000101.?          SYSOUT
 IGD106I SYS04075.T124524.RA000.WYL#FLOW.PRINT.H01    PASSED,    DDNAME=SYSPRINT
 IEF285I   GG$SLP.WYL#FLOW.JOB03527.D0000102.?          SYSOUT
 IEF285I   WYL.GS.WYL.WYLBUR.SOURCE                     KEPT
 IEF285I   VOL SER NOS= SYSB05.
 *********************************************************************************
 *   WYL#FLOW/ASM     /                    Return Code      Zero                 *
 *   Region used      4376K (4096K user + 280K system)                           *
 *   Extended region  10300K (412K user + 9888K system)                          *
 *                                                                               *
 *   Paging              In      Out                                             *
 *   Private <-> Aux      0        0       CPU time (TCB)   00:00:06.67          *
 *   Private <-> Exp      0        0       CPU time (SRB)   00:00:00.05          *
 *   VIO                  0        0       Elapsed time    917:42:26.88          *
 *   Common               0      ---                                             *
 *                                                                               *
 *                                                                               *
 *   CPU Usage        125.06        $77.53  Standard Processing Unit Equivalent  *
 *                                  $77.53  Total Step execution charge          *
 *                                                                               *
 *    I/O count  DDname   Type Addr           I/O count  DDname   Type Addr      *
 *           83  STEPLIB  Disk 04DC                 311  SYSLIB   Disk 04DC      *
 *            0  SYSLIB   Disk 04DC                   0  SYSLIB   Disk 04DC      *
 *            0  SYSLIB   Disk 0402                   0  SYSLIB   Disk 04A0      *
 *            0  SYSLIB   Disk 04A0                 233  SYSUT1   VIO  ----      *
 *            0  SYSTERM       ----                 444  SYSPRINT Disk 04E3      *
 *            0  SYSUDUMP      ----                  19  SYSIN    Disk 04DC      *
 *********************************************************************************
 IEF373I STEP/ASM     /START 2004075.1245
 IEF374I STEP/ASM     /STOP  2004075.1245 CPU    0MIN 06.67SEC SRB    0MIN 00.05SEC VIRT  4096K SYS   280K EXT     412K SYS    9888K
 IEF236I ALLOC. FOR WYL#FLOW EDIT
 IEF237I 0402 ALLOCATED TO STEPLIB
 IGD103I SMS ALLOCATED TO DDNAME ASMOUT
 IEF237I JES2 ALLOCATED TO SYSPRINT
 IEF142I WYL#FLOW EDIT - STEP WAS EXECUTED - COND CODE 0000
 IEF285I   WYL.GG.SYS.LINKLIB                           KEPT
 IEF285I   VOL SER NOS= SYSB02.
 IGD105I SYS04075.T124524.RA000.WYL#FLOW.PRINT.H01    DELETED,   DDNAME=ASMOUT
 IEF285I   GG$SLP.WYL#FLOW.JOB03527.D0000103.?          SYSOUT
 *********************************************************************************
 *   WYL#FLOW/EDIT    /                    Return Code      Zero                 *
 *   Region used      384K (120K user + 264K system)                             *
 *   Extended region  9816K (4K user + 9812K system)                             *
 *                                                                               *
 *   Paging              In      Out                                             *
 *   Private <-> Aux      0        0       CPU time (TCB)   00:00:01.36          *
 *   Private <-> Exp      0        0       CPU time (SRB)   00:00:00.04          *
 *   VIO                  0        0       Elapsed time    917:42:12.80          *
 *   Common               0      ---                                             *
 *                                                                               *
 *                                                                               *
 *   CPU Usage         25.50        $15.81  Standard Processing Unit Equivalent  *
 *                                  $15.81  Total Step execution charge          *
 *                                                                               *
 *    I/O count  DDname   Type Addr           I/O count  DDname   Type Addr      *
 *            2  STEPLIB  Disk 0402                 445  ASMOUT   Disk 04E3      *
 *            0  SYSPRINT      ----                                              *
 *********************************************************************************
 IEF373I STEP/EDIT    /START 2004075.1245
 IEF374I STEP/EDIT    /STOP  2004075.1245 CPU    0MIN 01.36SEC SRB    0MIN 00.04SEC VIRT   120K SYS   264K EXT       4K SYS    9812K
 *********************************************************************************
 *                                                                               *
 *                      S t a n f o r d   U n i v e r s i t y                    *
 *                                                                               *
 *                              *** Job Summary ***                              *
 *                                                                               *
 *   System Id      SYSB                   Input time     12:39:18  Mar 15, 2004 *
 *                                                                               *
 *   System Release SP6.1.0                Start time     12:45:24  Mar 15, 2004 *
 *                                                                               *
 *   Job name       WYL#FLOW               Stop  time     00:00:00  Mar 15, 2004 *
 *                                                                               *
 *   Account        SLP$GG                 Elapsed time  917:42:28.31            *
 *                                                                               *
 *   User Name      Assemble FLOW          CPU time       00:00:08.04            *
 *                                                                               *
 *   Job class      B                      SRB Time       00:00:00.09            *
 *                                                                               *
 *********************************************************************************
 IEF375I  JOB/WYL#FLOW/START 2004075.1245
 IEF376I  JOB/WYL#FLOW/STOP  2004075.1245 CPU    0MIN 08.04SEC SRB    0MIN 00.09SEC
1Assembler Done FLOW No Statements Flagged
1         High Level Assembler Option Summary                   (PTF P72483 )                                               Page    1
-                                                                                            HLASM R4.0  2004/03/15 12.45
0  No Overriding ASMAOPT Parameters
   Overriding Parameters-  NORENT,TERM,FLAG(NOCONT),US(MAP,WARN(10)),NODECK,LC(32767),XREF(SHORT),ESD,DXREF,NOOBJECT
   No Process Statements


   Options for this Assembly
0  NOADATA
     ALIGN
   NOASA
     BATCH
     CODEPAGE(047C)
   NOCOMPAT
   NODBCS
 3 NODECK
 3   DXREF
 3   ESD
   NOEXIT
 3   FLAG(0,ALIGN,NOCONT,NOIMPLEN,NOPAGE0,PUSH,RECORD,NOSUBSTR,USING0)
   NOFOLD
   NOGOFF
   NOINFO
     LANGUAGE(EN)
   NOLIBMAC
 3   LINECOUNT(32767)
     LIST(121)
     MXREF(SOURCE)
 3 NOOBJECT
     OPTABLE(UNI,NOLIST)
   NOPCONTROL
   NOPESTOP
   NOPROFILE
   NORA2
 3 NORENT
     RLD
     RXREF
     SIZE(MAX)
     SYSPARM()
 3   TERM(WIDE)
   NOTEST
     THREAD
   NOTRANSLATE
 3   USING(NOLIMIT,MAP,WARN(10))
 3   XREF(SHORT)

   No Overriding DD Names

1FLOW     External Symbol Dictionary                                                                                        Page    2
-Symbol   Type   Id     Address  Length     LD ID  Flags Alias-of                            HLASM R4.0  2004/03/15 12.45
0WYLFLOW   SD 00000001 00000000 00006C90             00
 FLOW2025  LD          00000000           00000001
 INITFLOW  LD          00000020           00000001
 WHILE     LD          00000050           00000001
 IF        LD          00000162           00000001
 ELSE      LD          000003D4           00000001
 ELSEIF    LD          000004B4           00000001
 REPEAT    LD          000005C6           00000001
 UNTIL     LD          000006B8           00000001
 CASES     LD          000007B4           00000001
 CASE      LD          0000089C           00000001
 SEGCR     ER 00000002
 EDTCOMMV  ER 00000003
 NSCAN     ER 00000004
 SCANCHK   ER 00000005
 ORVCPASS  ER 00000006
 SCINFO    ER 00000007
 SCANEXPR  ER 00000008
 NOOPTS    ER 00000009
 BEGIN     LD          00000CC6           00000001
 END       LD          00000D66           00000001
 LABEL     LD          00000E80           00000001
 GOTO      LD          00000F9C           00000001
 XEXIT     LD          00001034           00000001
 THEN      LD          000010D2           00000001
 IMPLYEND  ER 0000000A
 SEG       ER 0000000B
 XRETURN   ER 0000000C
 PRETURN   ER 0000000D
 EDTCOM    ER 0000000E
 XXXEXIT   ER 0000000F
 MNULL     ER 00000010
 MTOKEN    ER 00000011
 MALL      ER 00000012
 LABELLNO  LD          00001970           00000001
 XLBLLNO   LD          00001A3A           00000001
 SCNPNAME  LD          00001CAA           00000001
 NOTVALID  ER 00000013
 EVALEXPR  ER 00000014
 SEGT      ER 00000015
 SCNVNAME  ER 00000016
 FFORMAT   LD          00001FA2           00000001
 CVEXNO    ER 00000017
 GTFRST    ER 00000018
 GTNEXT    ER 00000019
 PUTLINE   ER 0000001A
 XSETSET   ER 0000001B
 XGETFRST  ER 0000001C
 XGETNEXT  ER 0000001D
 FLOWCTRL  LD          00002FFE           00000001
 SCNNLIST  ER 0000001E
 SEGXLNO   ER 0000001F
 CHECKEND  ER 00000020
 CHKPDEF   LD          00005BF4           00000001
 XGET      ER 00000021
1FLOW     External Symbol Dictionary                                                                                        Page    3
 XLOCNEXT  ER 00000022
 XGETPREV  ER 00000023
 XPUT      ER 00000024
 GTXSCOPE  LD          00006834           00000001
 GTPSCOPE  LD          00006896           00000001
 GTXNLIST  LD          000068E6           00000001
 GTPNLIST  LD          0000692A           00000001
 DELFLOW   LD          00006986           00000001
 XDELSET   ER 00000025
 SEGXLINE  ER 00000026
 LDABORT   ER 00000027

1FLOW     WYLBUR's Exec File Flow Control Routines                                                                          Page    4
0Loc    Object Code    Addr1 Addr2  Stmt Lv Lineno    Source Statement                    (Asmedit 3.3)  HLASM R4.0  2004/03/15 12.45
+___    ______ ____    _____ _____  ____ __ ______    ______ _________
0                                      2              *******************************************************************
                                       3              *                                                                 *
                                       4              *     WYLBUR/370 - Release VI - Class I - Stanford Proprietary    *
                                       5              *                                                                 *
                                       6              *******************************************************************
                                       7                       HIBAL
                                     988
1FLOW     WYLBUR's Exec File Flow Control Routines                                                                          Page    5
0D-Loc  Object Code    Addr1 Addr2  Stmt Lv Lineno    Source Statement           (Hibal 5, Asmedit 3.3)  HLASM R4.0  2004/03/15 12.45
+_____  ______ ____    _____ _____  ____ __ ______    ______ _________
0000000                00000 06C90   990              WYLFLOW  CSECT
                                     994                       REGS  FSR,,,,,,,BR,(WAR,LSR),PAR,PBR,CPR,CVR,SPR,RAR
                                    1130
                                    1131              FLOW     IDENT 2025                11:49:23 01/25/02  (SLP)
                                    1134             +
                                    1135    01-IDENT +         ENTRY FLOW2025
                                    1136             +
 000000 16C6D3D6E6F2F0F2            1137    01-IDENT +FLOW2025 DC    AL1(22),C'FLOW2025,15MAR04,12:45'
                                    1138             +*
                                    1140              *
                                    1141                       SYSDEFN ,                 Define installation values
                                    1142
                                    1143                       PUSH  DSECTS
 USING  CP,R11                      1155             =         USING (CP),(CV)
 USING  CV,R12
 000017                00000 06C90  1174             =         POP   PRINT
 000017                00000 06C90  6587              WYLFLOW  CSECT
 000017 C193A681A8A24B40            6589                       DC    C'Always. '
1FLOW     (FLOW2025) (12:45) (15MAR04) DSECTS                                                                               Page    6
0Current Usings:  (CP,R11) (CV,R12)
0Loc    Object Code    Addr1 Addr2  Stmt Lv Lineno    Source Statement           (Hibal 5, Asmedit 3.3)  HLASM R4.0  2004/03/15 12.45
+___    ______ ____    _____ _____  ____ __ ______    ______ _________
0                                   6591                       ¿þþþþþþþþþþþþþþþþÜ
                                    6592                       Ÿ  LOCAL MACROS  Ÿ
                                    6593                       ¾þþþþþþþþþþþþþþþþ»
-
                                    6595                       ¿þþþþþþþþþþþþþþþþþþþþþþþþþþþþþþþþÜ
                                    6596                       Ÿ  FCERR - FLOW CONTROL ERROR !  Ÿ
                                    6597                       ¾þþþþþþþþþþþþþþþþþþþþþþþþþþþþþþþþ»
                                    6598                       MACRO
                                    6599              &L       FCERR &LOC,&LEN,&LPTR=
                                    6600              &L       LABEL ,
                                    6601                       SETMSG &LOC,&LEN
                                    6602                       AIF   ('&LPTR' EQ '').NOLPTR
                                    6603                       AIF   ('&LPTR' NE '').LPTR
                                    6604              .LPTR    ANOP
                                    6605                       $L    R15,&LPTR,OP=L
                                    6606                       ACALL FCERROR
                                    6607                       MEXIT
                                    6608              .NOLPTR  ANOP
                                    6609                       CLEAR R15
                                    6610                       ACALL FCERROR
                                    6611                       MEXIT
                                    6612                       MEND
1FLOW     (FLOW2025) (12:45) (15MAR04) DSECTS                                                                               Page    7
0Current Usings:  (CP,R11) (CV,R12)
0Loc    Object Code    Addr1 Addr2  Stmt Lv Lineno    Source Statement           (Hibal 5, Asmedit 3.3)  HLASM R4.0  2004/03/15 12.45
+___    ______ ____    _____ _____  ____ __ ______    ______ _________
0                                   6614                       ¿þþþþþþþþþþþþþþþþþþþþþþþÜ
                                    6615                       Ÿ  COPY DSECTS TO HERE  Ÿ
                                    6616                       ¾þþþþþþþþþþþþþþþþþþþþþþþ»
                                    6617              XLINESZ  EQU   &LINESZ
1FLOW     (FLOW2025) (12:45) (15MAR04) DSECTS                                                                               Page    8
0Current Usings:  (CP,R11) (CV,R12)
0Loc    Object Code    Addr1 Addr2  Stmt Lv Lineno    Source Statement           (Hibal 5, Asmedit 3.3)  HLASM R4.0  2004/03/15 12.45
+___    ______ ____    _____ _____  ____ __ ______    ______ _________
0                                   6619                       COPY  VNENTRY
                                    6620=            =¿þþþþþþþþþþþþþþþþþþþþþþþþþþþþþþþþþþþþþþþþþþþþþþþþþþþþþþþþþþþþþþþþþþþþþÜ
                                    6621=            =Ÿ                                                                     Ÿ
                                    6622=            =Ÿ                                                                     Ÿ
                                    6623=            =Ÿ  VARIABLE ENTRY (COMMON)                                            Ÿ
                                    6624=            =Ÿ                                                                     Ÿ
                                    6625=            =Ÿ                                                                     Ÿ
                                    6626=            =Ÿ                                                                     Ÿ
                                                      ¾þþþþþþþþþþþþþþþþþþþþþþþþþþþþþþþþþþþþþþþþþþþþþþþþþþþþþþþþþþþþþþþþþþþþþ»
0000000                00000 00050  6627             =VNENTRY  RECORD BEGIN ,            VARIABLE ENTRY
                                    6635= 1          =     ¿þþþþþþþþþþþþþþþþþþþþþþþþþþþþþþþþþþþþþþþþþþþþþþþþþþþþþþþþþþþþþþÜ
                                    6636= 1          =     Ÿ  VARIABLE NAME, DESCRIPTION      (ONLY NAME SAVED WITH VAR)  Ÿ
                                    6637= 1          =     ¾þþþþþþþþþþþþþþþþþþþþþþþþþþþþþþþþþþþþþþþþþþþþþþþþþþþþþþþþþþþþþþ»
 000000                             6638  1          =VNDESC     DS    XL32                VARIABLE DESCRIPTOR,
 000020                00020 00000  6639  1          =           ORG   VNDESC
 000000                             6640  1          =VNNAME     DS    CL16                VARIABLE NAME
 000010 00                          6641  1          =VNPREFIX   FLAG  ,                   NAME PREFIX FLAGS
 VNPREFIX.VNPFX    01 EQ            6645  1          =           FLAG  (VNPFX,1,EQ)        X.
 VNPREFIX.VNPFGBL  02 EQ            6655  1          =           FLAG  (VNPFGBL,2,EQ)      GBL.
 VNPREFIX.VNPFSYS  03 EQ            6665  1          =           FLAG  (VNPFSYS,3,EQ)      SYS.
 VNPREFIX.VNPFSES  04 EQ            6675  1          =           FLAG  (VNPFSES,4,EQ)      SES.
 VNPREFIX.VNPFPUB  05 EQ            6685  1          =           FLAG  (VNPFPUB,5,EQ)      PUB.
 000011 00                          6695  1          =VNAFLAGS   FLAG  ,                   ARRAY FLAGS
 VNAFLAGS.VNADESC  80 ONES          6699  1          =           FLAG  VNADESC             GENERIC ARRAY DESCRIPTOR
 000012                             6704  1          =VNASUB1    DS    H                   ARRAY SUBSCRIPTS
 000014                             6705  1          =VNASUB2    DS    H
 000016                             6706  1          =VNASUB3    DS    H
 000018                             6707  1          =           DS    0S(VNDESC+L'VNDESC-*)
 000018                00018 00020  6708  1          =           ORG
                                    6709= 1          =     ¿þþþþþþþþþþþþþþþþþþþþþþþþÜ
                                    6710= 1          =     Ÿ  VARIABLE TYPE, VALUE  Ÿ
                                    6711= 1          =     ¾þþþþþþþþþþþþþþþþþþþþþþþþ»
 000020                             6712  1          =VNDATA     DS    XL16                VARIABLE TYPE/VALUE
 000030                00030 00020  6713  1          =           ORG   VNDATA
 000020                             6714  1          =VNSDATA    DS    XL6                 VARIABLE TYPE/VALUE (STRING)
 000026                00026 00020  6715  1          =           ORG   VNDATA
 000020                             6716  1          =VNADATA    DS    XL48                VARIABLE TYPE/VALUE (ARRAY)
 000050                00050 00020  6717  1          =           ORG   VNDATA
                                    6718  1          =
 000020 00                          6719  1          =VNTYPE     FLAG  ,                   VARIABLE TYPE
 VNTYPE.VNSTRING   01 EQ            6723  1          =           FLAG  (VNSTRING,1,EQ)     STRING
 VNTYPE.VNNUMB     02 EQ            6733  1          =           FLAG  (VNNUMB,2,EQ)       NUMBER
 VNTYPE.VNBOOL     03 EQ            6743  1          =           FLAG  (VNBOOL,3,EQ)       BOOLEAN
 VNTYPE.VNARRAY    04 EQ            6753  1          =           FLAG  (VNARRAY,4,EQ)      ARRAY
 VNTYPE.VNFN       05 EQ            6763  1          =           FLAG  (VNFN,5,EQ)         FUNCTION
 VNTYPE.VNPROC     06 EQ            6773  1          =           FLAG  (VNPROC,6,EQ)       PROCEDURE
 VNTYPE.VNLABEL    07 EQ            6783  1          =           FLAG  (VNLABEL,7,EQ)      LABEL
 000021 00                          6793  1          =VNDEBUG    FLAG  ,                   DEBUG FLAGS
 VNDEBUG.VNDBGET   80 ONES          6797  1          =           FLAG  VNDBGET             DEBUG VARIABLE FETCH
 VNDEBUG.VNDBSAVE  40 ONES          6802  1          =           FLAG  VNDBSAVE            DEBUG VARIABLE STORE
 VNDEBUG.VNDBTRAC  20 ONES          6807  1          =           FLAG  VNDBTRAC            DEBUG TRACE THIS PROC/LABEL
 VNDEBUG.VNDBSTOP  10 ONES          6812  1          =           FLAG  VNDBSTOP            DEBUG STOP AT PROC/LABEL
 000022 00                          6817  1          =VNFLAGS1   FLAG  ,
1FLOW     (FLOW2025) (12:45) (15MAR04) DSECTS                                                                               Page    9
0Current Usings:  (CP,R11) (CV,R12)
0Loc    Object Code    Addr1 Addr2  Stmt Lv Lineno    Source Statement           (Hibal 5, Asmedit 3.3)  HLASM R4.0  2004/03/15 12.45
+___    ______ ____    _____ _____  ____ __ ______    ______ _________
0VNFLAGS1.VNINT    80 ONES          6821  1          =           FLAG  VNINT               ** INTEGER, OLD EXEC MODE !
 000023 00                          6826  1          =VNFLAGS2   FLAG  ,                   UNUSED
                                    6830= 1          =     ¿þþþþþþþþþþþþþþþÜ
                                    6831= 1          =     Ÿ  COMMON AREA  Ÿ
                                    6832= 1          =     ¾þþþþþþþþþþþþþþþ»
 000024                             6833  1          =           DS    0F
                                    6834  1          =VNAREA     EQU   *                   MULTI-USE AREA (COMMON)
                                    6835  1          =
 000024                00024 00024  6836  1          =           ORG   VNAREA
 000024                             6837  1          =           DS    0H                  (NUMBER), (BOOLEAN)
 000024                             6838  1          =VNVALUE    DS    XL12                ALL NUMBERS STORED AS PCKD DECIMAL
                                    6839  1          =
 000030                00030 00024  6840  1          =           ORG   VNAREA
 000024                             6841  1          =           DS    0H                  (STRING)
 000024                             6842  1          =VNSTRLEN   DS    H                   STRING LENGTH
                                    6843  1          =VNSTRLOC   EQU   *,1,C'C'            START OF STRING (IF ANY)
 000026                             6844  1          =           DS    0S(VNSDATA+L'VNSDATA-*)
                                    6845  1          =
 000026                00026 00024  6846  1          =           ORG   VNAREA
 000024                             6847  1          =           DS    0H                  (ARRAY)
 000024                             6848  1          =VNARG      DS    F                   ARRAY RECORD GROUP INFO POINTER
 000028                             6849  1          =VNASET     DS    F                   ARRAY SET NUMBER
 00002C                             6850  1          =VNAIDENT   DS    F                   ARRAY ID NUMBER
 000030 00                          6851  1          =VNATYPE    FLAG  ,                   ARRAY TYPE
 VNATYPE.VNASTR    01 EQ            6855  1          =           FLAG  (VNASTR,1,EQ)       STRINGS
 VNATYPE.VNANUMB   02 EQ            6865  1          =           FLAG  (VNANUMB,2,EQ)      NUMBERS
 VNATYPE.VNABOOL   03 EQ            6875  1          =           FLAG  (VNABOOL,3,EQ)      BOOLEANS
 000031 00                          6885  1          =VNAFLAG    FLAG  ,                   NOT USED
 000032                             6889  1          =VNADIM1    DS    H                   DIMENSION 1
 000034                             6890  1          =VNADIM2    DS    H                   DIMENSION 2
 000036                             6891  1          =VNADIM3    DS    H                   DIMENSION 3
 000038                             6892  1          =VNANAME    DS    CL(L'VNNAME)        ORIGINAL ARRAY NAME
 000048                             6893  1          =           DS    0S(VNADATA+L'VNADATA-*)
                                    6894  1          =
 000048                00048 00024  6895  1          =           ORG   VNAREA
 000024                             6896  1          =           DS    0H                  (PROCEDURE)
 000024                             6897  1          =VNPSTART   DS    F                   STARTING LINE NUMBER
 000028                             6898  1          =VNPEND     DS    F                   ENDING LINE NUMBER
 00002C                             6899  1          =           DS    0S(VNDATA+L'VNDATA-*)
                                    6900  1          =
 00002C                0002C 00024  6901  1          =           ORG   VNAREA
 000024                             6902  1          =           DS    0H                  (LABEL)
 000024                             6903  1          =VNLLINE    DS    F                   LABEL LINE NUMBER
 000028                             6904  1          =           DS    0S(VNDATA+L'VNDATA-*)
                                    6905  1          =
 000028                00028 00024  6906  1          =           ORG   VNAREA
 000024                             6907  1          =           DS    0H                  (FUNCTION)
 000024                             6908  1          =VNFSTART   DS    F                   STARTING LINE NUMBER
 000028                             6909  1          =VNFEND     DS    F                   ENDING LINE NUMBER
 00002C                             6910  1          =           DS    0S(VNDATA+L'VNDATA-*)
                                    6911  1          =
 00002C                0002C 00024  6912  1          =           ORG   VNAREA
 000024                             6913  1          =           DS    0H                  (SYSTEM VAR/FN/PROC)
 000024                             6914  1          =VNSYSRTN   DS    A                   ADDRESS OF SYSTEM ROUTINE
1FLOW     (FLOW2025) (12:45) (15MAR04) DSECTS                                                                               Page   10
0Current Usings:  (CP,R11) (CV,R12)
0Loc    Object Code    Addr1 Addr2  Stmt Lv Lineno    Source Statement           (Hibal 5, Asmedit 3.3)  HLASM R4.0  2004/03/15 12.45
+___    ______ ____    _____ _____  ____ __ ______    ______ _________
0000028                             6915  1          =           DS    0S(VNDATA+L'VNDATA-*)
 000028                00028 00050  6916  1          =           ORG
                                    6917  1          =*
                                    6918  1          =*
                                    6919  1          =NL         EQU   L'VNVALUE,,C'N'     NUMBER LENGTH
                                    6920  1          =MAXSTRLN   EQU   256,,C'N'           MAXIMUM STRING VAR LENGTH
                                    6921  1          =           DS    0S(MAXSTRLN-&LINESZ)
 000050                                   1          +           DS    0S(MAXSTRLN-235)
 000050                00050 00050  6922             =         END
                                    6931                       COPY  VPARM
                                    6932=            =¿þþþþþþþþþþþþþþþþþþþþþþþþþþþþþþþþþþþþþþþþþþþþþþþþþþþþþþþþþþþþþþþþþþþþþÜ
                                    6933=            =Ÿ                                                                     Ÿ
                                    6934=            =Ÿ                                                                     Ÿ
                                    6935=            =Ÿ  VARIABLE PARM AREA                                                 Ÿ
                                    6936=            =Ÿ                                                                     Ÿ
                                    6937=            =Ÿ                                                                     Ÿ
                                    6938=            =Ÿ                                                                     Ÿ
                                                      ¾þþþþþþþþþþþþþþþþþþþþþþþþþþþþþþþþþþþþþþþþþþþþþþþþþþþþþþþþþþþþþþþþþþþþþ»
0000000                00000 00150  6939             =VPARM    RECORD BEGIN ,            PARM AREA FOR VARIABLES
 000000                             6947  1          =           DS    (L'VNENTRY)X        IS A VARIABLE ENTRY
 000050                             6948  1          =           DS    (((MAXSTRLN-1)/16)*16+16)X  AND A STRING AREA
 000150                00150 00150  6949             =         END
-
-                                   6959                     ¿þþþþþþþþþþþþþþþþþþþþþþþþþþþþþþþþþþþþþþþþþþþþþþþþþþþþþþþþþþþþþþþþþÜ
                                    6960                     Ÿ    PARM LIST DEFINITIONS                                        Ÿ
                                    6961                     Ÿ                                                                 Ÿ
                                    6962                     Ÿ    NLIST - PARAMETER NAME LIST (AS DEFINED ON PROC STATEMENT)   Ÿ
                                    6963                     Ÿ    VLIST - PARAMETER VALUE LIST                                 Ÿ
                                    6964                     Ÿ  PLIST - PARAMETER NAME LIST (AS SPECIFIED ON PCALL STATEMENT)  Ÿ
                                    6965                     Ÿ                                                                 Ÿ
                                    6966                     Ÿ    NOTE: THE DIFFERENCE BETWEEN A NLIST AND A PLIST (IN THIS    Ÿ
                                    6967                     Ÿ    PROGRAM) IS AS FOLLOWS:  A NLIST IS A LIST OF NAMES          Ÿ
                                    6968                     Ÿ    SPECIFIED ON A PROCEDURE DEFINITION,, THE NAMES MUST         Ÿ
                                    6969                     Ÿ    SIMPLE VARIABLE NAMES.  THESE VARIABLES WILL BECOME          Ÿ
                                    6970                     Ÿ    LOCAL VARIABLES OF THE PROCEDURE.  A PLIST IS A LIST         Ÿ
                                    6971                     Ÿ    OF PARM VARIABLE NAMES THAT ARE PASSED TO A PROCEDURE,, AS   Ÿ
                                    6972                     Ÿ    SOME OF THE PARAMETERS MAY BE EXPRESSIONS OR CONSTANTS       Ÿ
                                    6973                     Ÿ    NOT ALL THE ENTRIES IN A PLIST EXIST,, ONLY VARIABLE         Ÿ
                                    6974                     Ÿ    NAME ENTRIES EXIST,,, CONSTANT OR EXPRESSION ENTRIES ARE     Ÿ
                                    6975                     Ÿ    ZERO.                                                        Ÿ
                                    6976                     ¾þþþþþþþþþþþþþþþþþþþþþþþþþþþþþþþþþþþþþþþþþþþþþþþþþþþþþþþþþþþþþþþþþ»
 000000                00000 00100  6977              NLIST    RECORD BEGIN ,            LIST OF PARAMETER NAMES
 000000                             6985  1                      DS    XL(CPPLIMIT*L'VNDESC)
 000100                00100 00100  6986                       END
                                    6995
 000000                00000 00A80  6996              VLIST    RECORD BEGIN ,            LIST OF PARAMETER VALUES
 000000                             7004  1                      DS    XL(CPPLIMIT*L'VPARM)
 000A80                00A80 00A80  7005                       END
                                    7014
1FLOW     (FLOW2025) (12:45) (15MAR04) DSECTS                                                                               Page   11
0Current Usings:  (CP,R11) (CV,R12)
0Loc    Object Code    Addr1 Addr2  Stmt Lv Lineno    Source Statement           (Hibal 5, Asmedit 3.3)  HLASM R4.0  2004/03/15 12.45
+___    ______ ____    _____ _____  ____ __ ______    ______ _________
0000000                00000 00100  7015              PLIST    RECORD BEGIN ,            LIST OF PARM NAMES
 000000                             7023  1                      DS    XL(CPPLIMIT*L'VNDESC)
 000100                00100 00100  7024                       END
1FLOW     (FLOW2025) (12:45) (15MAR04) DSECTS                                                                               Page   12
0Current Usings:  (CP,R11) (CV,R12)
0Loc    Object Code    Addr1 Addr2  Stmt Lv Lineno    Source Statement           (Hibal 5, Asmedit 3.3)  HLASM R4.0  2004/03/15 12.45
+___    ______ ____    _____ _____  ____ __ ______    ______ _________
0                                   7034                       COPY  XSENTRY
                                    7035=            =   ¿þþþþþþþþþþþþþþþþþþþþþþþþþþþþþþþþþþþþÜ
                                    7036=            =   Ÿ  GENERATE EQUIVALENT SYMBOL ENTRY  Ÿ
                                    7037=            =   ¾þþþþþþþþþþþþþþþþþþþþþþþþþþþþþþþþþþþþ»
                                    7038             =         MACRO
                                    7039             =&L       SAMEAS &SYMBOL,&DSECT=,&BASE=
                                    7040             =         LCLC  &TYPE
                                    7041             =&TYPE    SETC  T'&SYMBOL
                                    7042             =&L       EQU   &BASE+(&SYMBOL-&DSECT),L'&SYMBOL,C'&TYPE'
                                    7043             =         MEND
0                                   7045=            =¿þþþþþþþþþþþþþþþþþþþþþþþþþþþþþþþþþþþþþþþþþþþþþþþþþþþþþþþþþþþþþþþþþþþþþÜ
                                    7046=            =Ÿ                                                                     Ÿ
                                    7047=            =Ÿ                                                                     Ÿ
                                    7048=            =Ÿ  EXPRESSION STACK ENTRY                                             Ÿ
                                    7049=            =Ÿ                                                                     Ÿ
                                    7050=            =Ÿ  *** NOTE ***                                                       Ÿ
                                    7051=            =Ÿ  THIS DSECT IS THE SAME AS A VARIABLE ENTRY DSECT, WITH THE         Ÿ
                                    7052=            =Ÿ  EXCEPTION THAT THE VARIABLE NAME (DESCRIPTOR) FIELD IS REPLACE     Ÿ
                                    7053=            =Ÿ  WITH SPECIAL TYPE FLAGS AND OPERATOR STACK ENTRIES.                Ÿ
                                    7054=            =Ÿ                                                                     Ÿ
                                    7055=            =Ÿ  THE POINT OF THE COMPATIBILITY BETWEEN THIS DSECT AND THE          Ÿ
                                    7056=            =Ÿ  VARIABLE ENTRY DSECT, IS SO THAT THE RESULT OF THE EXPRESSION      Ÿ
                                    7057=            =Ÿ  EVALUATION (TYPE AND VALUE) IS COMPATIBLE.                         Ÿ
                                    7058=            =Ÿ                                                                     Ÿ
                                    7059=            =Ÿ                                                                     Ÿ
                                                      ¾þþþþþþþþþþþþþþþþþþþþþþþþþþþþþþþþþþþþþþþþþþþþþþþþþþþþþþþþþþþþþþþþþþþþþ»
0000000                00000 00050  7060             =XSENTRY  RECORD BEGIN ,            EXPRESSION STACK ENTRY
 000000                             7068  1          =XXSSTART   DS    0D
 000000                             7069  1          =           DS    (L'VNENTRY)X
                                    7070  1          =XSLENGTH   EQU   8192                STANDARD EXPRESSION STACK LEN
                                    7071  1          =XSLENTRY   EQU   XXSSTART,L'VPARM    ACTUAL LEN OF ENTRY (INCL. STR)
                                    7072  1          =*
                                    7073  1          =* EXPRESSION STACK ENTRIES,,,
                                    7074  1          =*
                                    7075  1          =*  ** CAUTION **
                                    7076  1          =* EXPRESSION STACK ENTRIES SHOULD ONLY OVERLAY VNDESC FIELD !
 000050                00050 00000  7077  1          =           ORG   XXSSTART+(VNDESC-VNENTRY)
 000000 00                          7078  1          =XSTYPE     FLAG  ,                   STACK ENTRY TYPE
 XSTYPE.XSSTART    01 EQ            7082  1          =           FLAG  (XSSTART,1,EQ)      START OF EXPRESSION
 XSTYPE.XSVAL      02 EQ            7092  1          =           FLAG  (XSVAL,2,EQ)        TERM, EVALUATED
 XSTYPE.XSOPER     03 EQ            7102  1          =           FLAG  (XSOPER,3,EQ)       OPERATOR
 XSTYPE.XSEND      04 EQ            7112  1          =           FLAG  (XSEND,4,EQ)        END OF EXPRESSION
 XSTYPE.XSNULL     05 EQ            7122  1          =           FLAG  (XSNULL,5,EQ)       NULL EXPRESSION
                                    7132  1          =
 000001                             7133  1          =XSUOPLVL   DS    X                   UNARY OPERATOR PRIORITY LEVEL
 000002                             7134  1          =XSBOPLVL   DS    X                   BINARY OPERATOR PRIORITY LEVEL
 000004                             7135  1          =XSUOPRTN   DS    A                   UNARY OPERATOR ROUTINE
 000008                             7136  1          =XSBOPRTN   DS    A                   BINARY OPERATOR ROUTINE
 00000C                             7137  1          =XSOPCHAR   DS    CL4                 OPERATOR
 000010                             7138  1          =           DS    0S(L'VNDESC-(*-(XXSSTART+(VNDESC-VNENTRY))))
1FLOW     (FLOW2025) (12:45) (15MAR04) DSECTS                                                                               Page   13
0Current Usings:  (CP,R11) (CV,R12)
0Loc    Object Code    Addr1 Addr2  Stmt Lv Lineno    Source Statement           (Hibal 5, Asmedit 3.3)  HLASM R4.0  2004/03/15 12.45
+___    ______ ____    _____ _____  ____ __ ______    ______ _________
0                                   7139= 1          =     ¿þþþþþþþþþþþþþþþþþþþþþþþþþþþþþþþþÜ
                                    7140= 1          =     Ÿ  STANDARD VARIABLE ENTRIES !!  Ÿ
                                    7141= 1          =     ¾þþþþþþþþþþþþþþþþþþþþþþþþþþþþþþþþ»
                                    7142  1          =XSNAME     SAMEAS VNNAME,DSECT=VNENTRY,BASE=XSENTRY     NAME AREA
                                    7143  1 01-07042 +XSNAME     EQU   XSENTRY+(VNNAME-VNENTRY),L'VNNAME,C'C'
                                    7144  1          =
                                    7145  1          =XSNUMB     SAMEAS VNNUMB,DSECT=VNENTRY,BASE=XSENTRY     TYPE: NUMBER
                                    7146  1 01-07042 +XSNUMB     EQU   XSENTRY+(VNNUMB-VNENTRY),L'VNNUMB,C''
                                    7147  1          =XSBOOL     SAMEAS VNBOOL,DSECT=VNENTRY,BASE=XSENTRY           BOOLEAN
                                    7148  1 01-07042 +XSBOOL     EQU   XSENTRY+(VNBOOL-VNENTRY),L'VNBOOL,C''
                                    7149  1          =XSSTRING   SAMEAS VNSTRING,DSECT=VNENTRY,BASE=XSENTRY         STRING
                                    7150  1 01-07042 +XSSTRING   EQU   XSENTRY+(VNSTRING-VNENTRY),L'VNSTRING,C''
                                    7151  1          =XSARRAY    SAMEAS VNARRAY,DSECT=VNENTRY,BASE,XSENTRY          ARRAY
                                    7152  1 01-07042 +XSARRAY    EQU   +(VNARRAY-VNENTRY),L'VNARRAY,C''
                                    7153  1          =
                                    7154  1          =XSVALUE    SAMEAS VNVALUE,DSECT=VNENTRY,BASE=XSENTRY     VALUE
                                    7155  1 01-07042 +XSVALUE    EQU   XSENTRY+(VNVALUE-VNENTRY),L'VNVALUE,C'X'
                                    7156  1          =XSSTRLOC   SAMEAS VNSTRLOC,DSECT=VNENTRY,BASE=XSENTRY    STRING LOC
                                    7157  1 01-07042 +XSSTRLOC   EQU   XSENTRY+(VNSTRLOC-VNENTRY),L'VNSTRLOC,C'C'
                                    7158  1          =XSSTRLEN   SAMEAS VNSTRLEN,DSECT=VNENTRY,BASE=XSENTRY    STRING LEN
                                    7159  1 01-07042 +XSSTRLEN   EQU   XSENTRY+(VNSTRLEN-VNENTRY),L'VNSTRLEN,C'H'
                                    7160  1          =
 000010                             7161  1          =           DS    0S(L'VPARM-L'XSLENTRY)
 000010                             7162  1          =           DS    0S(L'XSLENTRY-L'VPARM)
 000010                00010 00050  7163             =         END
1FLOW     (FLOW2025) (12:45) (15MAR04) DSECTS                                                                               Page   14
0Current Usings:  (CP,R11) (CV,R12)
0Loc    Object Code    Addr1 Addr2  Stmt Lv Lineno    Source Statement           (Hibal 5, Asmedit 3.3)  HLASM R4.0  2004/03/15 12.45
+___    ______ ____    _____ _____  ____ __ ______    ______ _________
0                                   7173              ¿þþþþþþþþþþþþþþþþþþþþþþþþþþþþþþþþþþþþþþþþþþþþþþþþþþþþþþþþþþþþþþþþþþþþþÜ
                                    7174              Ÿ                                                                     Ÿ
                                    7175              Ÿ                                                                     Ÿ
                                    7176              Ÿ  FLOW ENTRY (COMMON)                                                Ÿ
                                    7177              Ÿ                                                                     Ÿ
                                    7178              Ÿ                                                                     Ÿ
                                    7179              Ÿ                                                                     Ÿ
                                                      ¾þþþþþþþþþþþþþþþþþþþþþþþþþþþþþþþþþþþþþþþþþþþþþþþþþþþþþþþþþþþþþþþþþþþþþ»
0000000                00000 00020  7180              FWENTRY  RECORD BEGIN ,            FLOW ENTRY
                                    7188  1                      ¿þþþþþþþþþþþþþÜ
                                    7189  1                      Ÿ  FLOW NAME  Ÿ
                                    7190  1                      ¾þþþþþþþþþþþþþ»
 000000                             7191  1           FWNAME     DS    XL16                FLOW ENTRY NAME
 000010                00010 00000  7192  1                      ORG   FWNAME
 000000                             7193  1           FWNLINE    DS    F                   FLOW NAME LINE NUMBER
 000004                             7194  1           FWNNAME    DS    CL8                 FLOW NAME NAME
 00000C                0000C 00010  7195  1                      ORG
                                    7196  1                      ¿þþþþþþþþþþþþþþþþþþþþþþþÜ
                                    7197  1                      Ÿ  FLOW INFO  (COMMON)  Ÿ
                                    7198  1                      ¾þþþþþþþþþþþþþþþþþþþþþþþ»
 000010                             7199  1           FWINFO     DS    XL16
                                    7200  1
 000020                00020 00010  7201  1                      ORG   FWINFO
 000010 00                          7202  1           FWTYPES    FLAG                      FLOW ENTRY TYPES
 FWTYPES.FLOW      80 ONES
 FWTYPES.FWXPROC   01 EQ            7208  1                      FLAG  (FWXPROC,1,EQ)      XPROC
 FWTYPES.FWPROC    02 EQ            7218  1                      FLAG  (FWPROC,2,EQ)       PROC
 FWTYPES.FWLABEL   03 EQ            7228  1                      FLAG  (FWLABEL,3,EQ)      LABEL
 FWTYPES.FWIF      04 EQ            7238  1                      FLAG  (FWIF,4,EQ)         IF
 FWTYPES.FWELSE    05 EQ            7248  1                      FLAG  (FWELSE,5,EQ)       ELSE
 FWTYPES.FWELSEIF  06 EQ            7258  1                      FLAG  (FWELSEIF,6,EQ)     ELSEIF
 FWTYPES.FWDO      07 EQ            7268  1                      FLAG  (FWDO,7,EQ)         DO
 FWTYPES.FWWHILE   08 EQ            7278  1                      FLAG  (FWWHILE,8,EQ)      WHILE
 FWTYPES.FWCASES   09 EQ            7288  1                      FLAG  (FWCASES,9,EQ)      CASES
 FWTYPES.FWCASE    0A EQ            7298  1                      FLAG  (FWCASE,10,EQ)      CASE
 FWTYPES.FWREPEAT  0B EQ            7308  1                      FLAG  (FWREPEAT,11,EQ)    REPEAT
 FWTYPES.FWUNTIL   0C EQ            7318  1                      FLAG  (FWUNTIL,12,EQ)     UNTIL
 FWTYPES.FWBEGIN   0D EQ            7328  1                      FLAG  (FWBEGIN,13,EQ)     BEGIN (AS SEPARATE COMMAND)
 FWTYPES.FWEND     0E EQ            7338  1                      FLAG  (FWEND,14,EQ)       END
 000011                             7348  1           FWCOMMON   DS    XL15                COMMON AREA
 000020                             7349  1                      DS    0S(FWINFO+L'FWINFO-*)
                                    7350  1
 000020                00020 00011  7351  1                      ORG   FWCOMMON
                                    7352  1                      COMMENT ,                 (XPROC, PROC)
 000014                             7353  1           FWSCOPE    DS    F                   START OF SCOPE
 000018                             7354  1           FWSCOPND   DS    F                   END OF SCOPE
 00001C                             7355  1           FWALISTL   DS    F                   ARG LIST LENGTH
                                    7356  1           *FWALIST  EQU   FWINFO+L'FWINFO,ALIMIT*(L'FWAENTRY) ARG LIST
 000020                             7357  1                      DS    0S(FWINFO+L'FWINFO-*)
                                    7358  1
 000020                00020 00011  7359  1                      ORG   FWCOMMON
                                    7360  1                      COMMENT ,                 (LABEL)
 000014                             7361  1           FWLBLINE   DS    F                   LINE NUMBER OF LABEL
1FLOW     (FLOW2025) (12:45) (15MAR04) DSECTS                                                                               Page   15
0Current Usings:  (CP,R11) (CV,R12)
0Loc    Object Code    Addr1 Addr2  Stmt Lv Lineno    Source Statement           (Hibal 5, Asmedit 3.3)  HLASM R4.0  2004/03/15 12.45
+___    ______ ____    _____ _____  ____ __ ______    ______ _________
0000018                             7362  1                      DS    0S(FWINFO+L'FWINFO-*)
 000018                00018 00011  7363  1                      ORG   FWCOMMON
                                    7364  1                      COMMENT ,                 (IF,WHILE,UNTIL,CASE)
 000014                             7365  1           FWTRUE     DS    F                   TRUE BRANCH LINE NUMBER
 000018                             7366  1           FWFALSE    DS    F                   FALSE BRANCH LINE NUMBER
 00001C                             7367  1                      DS    0S(FWINFO+L'FWINFO-*)
                                    7368  1
 00001C                0001C 00011  7369  1                      ORG   FWCOMMON
                                    7370  1                      COMMENT ,                 (DO)
 000014                             7371  1           FWDOEND    DS    F                   MATCHING END LINE NUMBER
                                    7372  1
 000018                00018 00011  7373  1                      ORG   FWCOMMON
                                    7374  1                      COMMENT ,                 (REPEAT,CASES,BEGIN,ELSE)
                                    7375  1                      COMMENT                   NO ENTRIES
 000012                             7376  1                      DS    0S(FWINFO+L'FWINFO-*)
                                    7377  1
 000012                00012 00011  7378  1                      ORG   FWCOMMON
                                    7379  1                      COMMENT ,                 (END)
 000011 00                          7380  1           FWDFLAGS   FLAG  ,                   END FLAGS
 FWDFLAGS.FWNOOP   01 EQ            7384  1                      FLAG  (FWNOOP,1,EQ)       END IS NOOP
 FWDFLAGS.FWBRANCH 02 EQ            7394  1                      FLAG  (FWBRANCH,2,EQ)     END IS BRANCH
 FWDFLAGS.FWXRETN  03 EQ            7404  1                      FLAG  (FWXRETN,3,EQ)      END IS XRETURN
 FWDFLAGS.FWPRETN  04 EQ            7414  1                      FLAG  (FWPRETN,4,EQ)      END IS PRETURN
 FWDFLAGS.FWDOLOOP 05 EQ            7424  1                      FLAG  (FWDOLOOP,5,EQ)     END IS DO LOOP INCR AND TEST
 000014                             7434  1           FWBLINE    DS    F                   BRANCH LINE NUMBER
 000018                             7435  1           FWLIMIT    DS    F                   DO LOOP LIMIT
 00001C                             7436  1           FWDOVARL   DS    F                   LENGTH OF VARIABLE DESCRIPTOR
                                    7437  1           FWDOVAR    EQU   FWINFO+L'FWINFO,L'VNDESC  DO LOOP VARIABLE DESCRIPTOR
 000020                             7438  1                      DS    0S(FWINFO+L'FWINFO-*)
                                    7439  1
 000020                00020 00020  7440  1                      ORG
 000020                00020 00020  7441                       END
                                    7450
1FLOW     (FLOW2025) (12:45) (15MAR04) DSECTS                                                                               Page   16
0Current Usings:  (CP,R11) (CV,R12)
0Loc    Object Code    Addr1 Addr2  Stmt Lv Lineno    Source Statement           (Hibal 5, Asmedit 3.3)  HLASM R4.0  2004/03/15 12.45
+___    ______ ____    _____ _____  ____ __ ______    ______ _________
0                                   7452                       ¿þþþþþþþþþþþþþþþþþþÜ
                                    7453                       Ÿ  CODE GOES HERE  Ÿ
                                    7454                       ¾þþþþþþþþþþþþþþþþþþ»
1FLOW     (FLOW2025) (12:45) (15MAR04) INITIALIZE/FREE FLOW RECORD GROUP                                                    Page   17
0Current Usings:  (CP,R11) (CV,R12)
0Loc    Object Code    Addr1 Addr2  Stmt Lv Lineno    Source Statement           (Hibal 5, Asmedit 3.3)  HLASM R4.0  2004/03/15 12.45
+___    ______ ____    _____ _____  ____ __ ______    ______ _________
0                                   7456              ¿þþþþþþþþþþþþþþþþþþþþþþþþþþþþþþþþþþþþþþþþþþþþþþþþþþþþþþþþþþþþþþþþþþþþþÜ
                                    7457              Ÿ                                                                     Ÿ
                                    7458              Ÿ                                                                     Ÿ
                                    7459              Ÿ  INITFLOW - INITIALIZE FLOW                                         Ÿ
                                    7460              Ÿ                                                                     Ÿ
                                    7461              Ÿ                                                                     Ÿ
                                    7462              Ÿ                                                                     Ÿ
                                                      ¾þþþþþþþþþþþþþþþþþþþþþþþþþþþþþþþþþþþþþþþþþþþþþþþþþþþþþþþþþþþþþþþþþþþþþ»
0000020 50E0 D000/9008_      00000  7463              INITFLOW XPROC ,              NOOP
 USING  *,R7
 00003A 1BFF                        7503                       CLEAR R15
 00003C 18D8/9808 D004_             7507                       PEND  ,
 DROP   *,R7
1FLOW     (FLOW2025) (12:45) (15MAR04) INITIALIZE/FREE FLOW RECORD GROUP                                                    Page   18
0Current Usings:  (CP,R11) (CV,R12)
0Loc    Object Code    Addr1 Addr2  Stmt Lv Lineno    Source Statement           (Hibal 5, Asmedit 3.3)  HLASM R4.0  2004/03/15 12.45
+___    ______ ____    _____ _____  ____ __ ______    ______ _________
0                                   7528                       QLTORG
1FLOW     (FLOW2025) (12:45) (15MAR04) FLOW CONTROL COMMANDS                                                                Page   19
0Current Usings:  (CP,R11) (CV,R12)
0Loc    Object Code    Addr1 Addr2  Stmt Lv Lineno    Source Statement           (Hibal 5, Asmedit 3.3)  HLASM R4.0  2004/03/15 12.45
+___    ______ ____    _____ _____  ____ __ ______    ______ _________
0                                   7542              ¿þþþþþþþþþþþþþþþþþþþþþþþþþþþþþþþþþþþþþþþþþþþþþþþþþþþþþþþþþþþþþþþþþþþþþÜ
                                    7543              Ÿ                                                                     Ÿ
                                    7544              Ÿ                                                                     Ÿ
                                    7545              Ÿ  WHILE --                                                           Ÿ
                                    7546              Ÿ                                                                     Ÿ
                                    7547              Ÿ  ON ENTRY:                                                          Ÿ
                                    7548              Ÿ       SCANCB - REMAINING STRING AFTER WHILE                         Ÿ
                                    7549              Ÿ       CPEXLINE - LINE NUMBER CONTAINING WHILE                       Ÿ
                                    7550              Ÿ                                                                     Ÿ
                                    7551              Ÿ                                                                     Ÿ
                                                      ¾þþþþþþþþþþþþþþþþþþþþþþþþþþþþþþþþþþþþþþþþþþþþþþþþþþþþþþþþþþþþþþþþþþþþþ»
0000000                00000 00020  7552              WHILEWA  RECORD BEGIN
 000000                             7560  1           WHILFLOW   DS    XL(L'FWENTRY)
 000020                00020 00020  7561                       END
                                    7570              *
                                    7571              *
 000050 50E0 D000/9008_      00000  7572              WHILE    XPROC WHILEWA
 USING  *,R7
 USING  WHILEWA-(4+36),R8
 USING  FWENTRY,R6                  7623                       USING FWENTRY,R6
 00006A 4160 8028            00000  7632                       LA    R6,WHILFLOW
                                    7633
                                    7634                    COMMENT                      WHILE, INVALID FROM TERMINAL
 00006E 9180 B758/4710_00758        7635                    IF    ~CPFEXEC,BEGIN
 000076 4110 7AE8/4100_      00B52  7650  1                   TSEG  'WHILE: statement ignored.',,CR
 000088 4110 7B01/4100_      00B6B  7668  1                   ERROR 'Flow control statements may be used only in EXEC files.'
 000094                             7675                    END
                                    7679
                                    7680                    COMMENT                      WHILE, INVALID IN OLD EXEC MODE
 000094 9502 B759/4770_00759        7681                    IF    CPFXOLD,BEGIN
 00009C 4110 7B38/4100_      00BA2  7696  1                   TSEG  'WHILE: statement invalid.',,CR
 0000AE 4110 7B51/4100_      00BBB  7714  1                   ERROR 'Statement may be used only in Extended EXEC mode.'
 0000BA                             7721                    END
                                    7725                       ¿þþþþþþþþþþþþþþþþþþþþþþþþþÜ
                                    7726                       Ÿ                         Ÿ
                                    7727                       Ÿ  PROCESS WHILE COMMAND  Ÿ
                                    7728                       Ÿ                         Ÿ
                                    7729                       ¾þþþþþþþþþþþþþþþþþþþþþþþþþ»
                                    7730                       COMMENT                   ENTRANCE EXAM
 0000BA 9501 B759/4780_00759        7731                       IF    ~CPFXTEND,BEGIN
 0000C2 0000                        7746  1                      BOMB
 0000C4                             7748                       END
                                    7752
                                    7753                       COMMENT                   GET WHILE FLOW CONTROL INFO
 0000C4 D71F 6000 6000 00000 00000  7754                       CLEAR FWENTRY
 0000CA D203 6000 B75C 00000 0075C  7761                       MVC   FWNLINE,CPEXLINE
 0000D0 D207 6004 7946 00004 009B0  7762                       MVC   FWNNAME,=CL8'WHILE   '
 0000D6 4110 6000            00000  7763                       LA    R1,FWENTRY
 0000DA 58E0 7A2A/0DEE       00A94  7764                       ACALL GETFLOW
 0000E0 4780 7098            00102  7768                       IF    NZ,BEGIN
 0000E4 4110 794E/4100_      009B8  7779  1                      TSEG  'Invalid WHILE statement.',,CR
 0000F6 4110 7966/4100_      009D0  7797  1                      ERROR 'Dynamic flow control statements invalid.'
 000102                             7804                       END
1FLOW     (FLOW2025) (12:45) (15MAR04) FLOW CONTROL COMMANDS                                                                Page   20
0Current Usings:  (FWENTRY,R6) (*,R7) (WHILEWA-(4+36),R8) (CP,R11) (CV,R12)
0Loc    Object Code    Addr1 Addr2  Stmt Lv Lineno    Source Statement           (Hibal 5, Asmedit 3.3)  HLASM R4.0  2004/03/15 12.45
+___    ______ ____    _____ _____  ____ __ ______    ______ _________
0000102 9508 6010/4780_00010        7808                       IF    ~FWWHILE,BEGIN
 00010A 0000                        7823  1                      BOMB
 00010C                             7825                       END
                                    7829
                                    7830                       COMMENT                   EVALUATE CONDITIONAL EXPRESSION
 00010C 58E0 7A2E/0DEE       00A98  7831                       ACALL EVALCOND
                                    7835
                                    7836                       COMMENT                   IF TRUE,,,
 000112 12FF/4780 70DA              7837                       IF    (R15,NZ),BEGIN
 000118 D203 B760 6014 00760 00014  7851  1                      MVC   CPEXNEXT,FWTRUE     SET NEXT COMMAND
 00011E 58E0 7A32/0DEE       00A9C  7852  1                      ACALL CHKBEGIN
 000124 4780 70D6            00140  7856  1                      IF    NZ,BEGIN            IF WHILE (...) COMMAND
                                    7867  2                        COMMENT                   EXECUTE COMMAND
 000128 9680 B477      00477        7868  2                        SET   CPGFLG4.CPFNPREP    DON'T REPROCESS THIS COMMAND
 00012C 58E0 B08C/581E_      0008C  7875  2                        SCINFO ,,                 R1,R0 - COMMAND LOC, LEN
 00013A 58E0 7A36/0DEE       00AA0  7884  2                        VCALL EDTCOMMV            EXEC CMD PART OF WHILE (..) CMD
 000140                             7888  1                      END
                                    7892  1                      COMMENT                   IF WHILE (...) BEGIN
 000140 47F0 C7DE            007DE  7893  1                      B     CVNEXT              JUST EXECUTE NEXT COMMAND
 000144                             7894                       END
                                    7898
                                    7899                       COMMENT                   IF FALSE
 000144 70DE/47F0 70E8 00144 00116  7900                       ELSE  BEGIN
 000148 D203 B760 6018 00760 00018  7911  1                      MVC   CPEXNEXT,FWFALSE    SET NEXT COMMAND
 00014E 47F0 C7DE            007DE  7912  1                      B     CVNEXT              AND GO DO IT !
 000152                             7913                       END
                                    7917
                                    7918                       COMMENT                   WE EXIT ABOVE, VIA CVNEXT
 000152 0000                        7919                       BOMB
 000154 18D8/9808 D004_             7921                       PEND  ,              A HABIT, NEVER EXECUTED
 DROP   WHILEWA-(4+36),R8
 DROP   *,R7
 DROP   FWENTRY,R6                  7946                       DROP  R6
1FLOW     (FLOW2025) (12:45) (15MAR04) FLOW CONTROL COMMANDS                                                                Page   21
0Current Usings:  (CP,R11) (CV,R12)
0Loc    Object Code    Addr1 Addr2  Stmt Lv Lineno    Source Statement           (Hibal 5, Asmedit 3.3)  HLASM R4.0  2004/03/15 12.45
+___    ______ ____    _____ _____  ____ __ ______    ______ _________
0                                   7954              ¿þþþþþþþþþþþþþþþþþþþþþþþþþþþþþþþþþþþþþþþþþþþþþþþþþþþþþþþþþþþþþþþþþþþþþÜ
                                    7955              Ÿ                                                                     Ÿ
                                    7956              Ÿ                                                                     Ÿ
                                    7957              Ÿ  IF --                                                              Ÿ
                                    7958              Ÿ                                                                     Ÿ
                                    7959              Ÿ  ON ENTRY:                                                          Ÿ
                                    7960              Ÿ       SCANCB - REMAINING STRING AFTER IF                            Ÿ
                                    7961              Ÿ       CPEXLINE - LINE NUMBER CONTAINING IF                          Ÿ
                                    7962              Ÿ                                                                     Ÿ
                                    7963              Ÿ                                                                     Ÿ
                                                      ¾þþþþþþþþþþþþþþþþþþþþþþþþþþþþþþþþþþþþþþþþþþþþþþþþþþþþþþþþþþþþþþþþþþþþþ»
0000000                00000 00020  7964              IFWA     RECORD BEGIN
 000000                             7972  1           IFFLOW     DS    XL(L'FWENTRY)
 000020                00020 00020  7973                       END
                                    7982              *
                                    7983              *
 000162 50E0 D000/9008_      00000  7984              IF       XPROC IFWA
 USING  *,R7
 USING  IFWA-(4+36),R8
 USING  FWENTRY,R6                  8035                       USING FWENTRY,R6
 00017C 4160 8028            00000  8044                       LA    R6,IFFLOW
                                    8045
                                    8046                       COMMENT                   CHECK FOR SPIRES IF ...
 000180 58E0 B08C/D2AF_      0008C  8047                       SCPUSH ,
 00018E 5810 B08C/1B00_      0008C  8053                       SCAN
 0001DC 58E0 792C/0DEE       00AA8  8084                       SCANCHK
 0001E2 58E0 B08C/4BD0_      0008C  8089                       SCPOP  ,
 0001F0 954D 1000/4780_00000        8095                       IF    ((@R1,NE,'('),AND,(R0,POS)),BEGIN
 0001FE 58E0 7930/0DEE       00AAC  8124  1                      VCALL ORVCPASS
 000204                             8128                       END
                                    8132                       ¿þþþþþþþþþþþþþþþÜ
                                    8133                       Ÿ               Ÿ
                                    8134                       Ÿ  OLD MODE IF  Ÿ
                                    8135                       Ÿ               Ÿ
                                    8136                       ¾þþþþþþþþþþþþþþþ»
                                    8137                       COMMENT                   IF OLD MODE OR FROM TERMINAL
 000204 9180 B758/47E0_00758        8138                       IF   (~CPFEXEC,OR,CPFXOLD),BEGIN
                                    8167  1
 000214 58E0 7934/0DEE       00AB0  8168  1                      ACALL ZAPIF               COMPATIBILITY ZAP FOR IF
                                    8172  1
                                    8173  1                      COMMENT                   EVALUATE IF CONDITIONAL EXPR
 00021A 58E0 791C/0DEE       00A98  8174  1                      ACALL EVALCOND            RETURNS: CC=Z IS TRUE, CC=NZ FALSE
                                    8178  1
                                    8179  1                      COMMENT                   IF TRUE
 000220 12FF/4780 70CA              8180  1                      IF    (R15,NZ),BEGIN
 000226 9620 B477      00477        8194  2                        SET   CPGFLG4.CPF4TRUE    SET TRUE FLAG
 00022A 9680 B477      00477        8201  2                        SET   CPGFLG4.CPFNPREP    DON'T REPREPROCESS THIS COMMAND
 00022E 58E0 B08C/581E_      0008C  8208  2                        SCINFO ,,                 R1,R0 - COMMAND LOC, LEN
 00023C 58E0 7924/0DEE       00AA0  8217  2                        VCALL EDTCOMMV            EXECUTE COMMAND AFTER "IF (EXPR)"
 000242 47F0 C7DE            007DE  8221  2                        B     CVNEXT
 000246                             8222  1                      END
                                    8226  1
                                    8227  1                      COMMENT                   IF FALSE
1FLOW     (FLOW2025) (12:45) (15MAR04) FLOW CONTROL COMMANDS                                                                Page   22
0Current Usings:  (FWENTRY,R6) (*,R7) (IFWA-(4+36),R8) (CP,R11) (CV,R12)
0Loc    Object Code    Addr1 Addr2  Stmt Lv Lineno    Source Statement           (Hibal 5, Asmedit 3.3)  HLASM R4.0  2004/03/15 12.45
+___    ______ ____    _____ _____  ____ __ ______    ______ _________
0000246 70CE/47F0 70D6 00246 00224  8228  1                      ELSE  BEGIN
 00024A 94DF B477      00477        8239  2                        CLEAR CPGFLG4.CPF4TRUE    CLEAR TRUE FLAG
 00024E 47F0 C7DE            007DE  8247  2                        B     CVNEXT              EXECUTE NEXT COMMAND
 000252                             8248  1                      END
 000252 47F0 C7DE            007DE  8252  1                      B     CVNEXT
 000256                             8253                       END
                                    8257                       ¿þþþþþþþþþþþþþþþþþþþþÜ
                                    8258                       Ÿ                    Ÿ
                                    8259                       Ÿ  EXTENDED MODE IF  Ÿ
                                    8260                       Ÿ                    Ÿ
                                    8261                       ¾þþþþþþþþþþþþþþþþþþþþ»
                                    8262                       COMMENT                   ENTRANCE EXAM
 000256 9501 B759/4780_00759        8263                       IF    ~CPFXTEND,BEGIN
 00025E 0000                        8278  1                      BOMB
 000260                             8280                       END
                                    8284
                                    8285                       COMMENT                   GET IF FLOW CONTROL INFO
 000260 D71F 6000 6000 00000 00000  8286                       CLEAR FWENTRY
 000266 D203 6000 B75C 00000 0075C  8293                       MVC   FWNLINE,CPEXLINE
 00026C D207 6004 787C 00004 009F8  8294                       MVC   FWNNAME,=CL8'IF      '
 000272 4110 6000            00000  8295                       LA    R1,FWENTRY
 000276 58E0 7918/0DEE       00A94  8296                       ACALL GETFLOW
 00027C 4780 7122            0029E  8300                       IF    NZ,BEGIN
 000280 4110 7A70/4100_      00BEC  8311  1                      TSEG  'Invalid IF statement.',,CR
 000292 4110 7854/4100_      009D0  8329  1                      ERROR 'Dynamic flow control statements invalid.'
 00029E                             8336                       END
 00029E 9504 6010/4780_00010        8340                       IF    ~FWIF,BEGIN
 0002A6 0000                        8355  1                      BOMB
 0002A8                             8357                       END
                                    8361
                                    8362                       COMMENT                   EVALUATE CONDITIONAL EXPRESSION
 0002A8 58E0 791C/0DEE       00A98  8363                       ACALL EVALCOND
                                    8367
                                    8368                       COMMENT                   IF TRUE,,,
 0002AE 12FF/4780 7164              8369                       IF    (R15,NZ),BEGIN
 0002B4 D203 B760 6014 00760 00014  8383  1                      MVC   CPEXNEXT,FWTRUE     SET NEXT COMMAND
 0002BA 58E0 7920/0DEE       00A9C  8384  1                      ACALL CHKBEGIN
 0002C0 4780 7160            002DC  8388  1                      IF    NZ,BEGIN            IF IF (...) COMMAND
                                    8399  2                        COMMENT                   EXECUTE COMMAND
 0002C4 9680 B477      00477        8400  2                        SET   CPGFLG4.CPFNPREP    DON'T REPROCESS THIS COMMAND
 0002C8 58E0 B08C/581E_      0008C  8407  2                        SCINFO ,,                 R1,R0 - COMMAND LOC, LEN
 0002D6 58E0 7924/0DEE       00AA0  8416  2                        VCALL EDTCOMMV            EXEC CMD PART OF WHILE (..) CMD
 0002DC                             8420  1                      END
                                    8424  1                      COMMENT                   IF IF (...) BEGIN
 0002DC 47F0 C7DE            007DE  8425  1                      B     CVNEXT              JUST EXECUTE NEXT COMMAND
 0002E0                             8426                       END
                                    8430
                                    8431                       COMMENT                   IF FALSE
 0002E0 7168/47F0 7172 002E0 002B2  8432                       ELSE  BEGIN
 0002E4 D203 B760 6018 00760 00018  8443  1                      MVC   CPEXNEXT,FWFALSE    SET NEXT COMMAND
 0002EA 47F0 C7DE            007DE  8444  1                      B     CVNEXT              AND GO DO IT !
 0002EE                             8445                       END
                                    8449
                                    8450                       COMMENT                   WE EXIT ABOVE, VIA CVNEXT
1FLOW     (FLOW2025) (12:45) (15MAR04) FLOW CONTROL COMMANDS                                                                Page   23
0Current Usings:  (FWENTRY,R6) (*,R7) (IFWA-(4+36),R8) (CP,R11) (CV,R12)
0Loc    Object Code    Addr1 Addr2  Stmt Lv Lineno    Source Statement           (Hibal 5, Asmedit 3.3)  HLASM R4.0  2004/03/15 12.45
+___    ______ ____    _____ _____  ____ __ ______    ______ _________
00002EE 0000                        8451                       BOMB
 0002F0 18D8/9808 D004_             8453                       PEND  ,              A HABIT, NEVER EXECUTED
 DROP   IFWA-(4+36),R8
 DROP   *,R7
 DROP   FWENTRY,R6                  8478                       DROP  R6
1FLOW     (FLOW2025) (12:45) (15MAR04) FLOW CONTROL COMMANDS                                                                Page   24
0Current Usings:  (CP,R11) (CV,R12)
0Loc    Object Code    Addr1 Addr2  Stmt Lv Lineno    Source Statement           (Hibal 5, Asmedit 3.3)  HLASM R4.0  2004/03/15 12.45
+___    ______ ____    _____ _____  ____ __ ______    ______ _________
0                                   8486              ¿þþþþþþþþþþþþþþþþþþþþþþþþþþþþþþþþþþþþþþþþþþþþþþþþþþþþþþþþþþþþþþþþþþþþþÜ
                                    8487              Ÿ                                                                     Ÿ
                                    8488              Ÿ                                                                     Ÿ
                                    8489              Ÿ   ZAPIF - COMPATIBILITY ZAP TO IF,,,                                Ÿ
                                    8490              Ÿ                                                                     Ÿ
                                    8491              Ÿ   ALLOW (TERM, OPERATOR, TERM) AS VALID IF EXPRESSION               Ÿ
                                    8492              Ÿ   E.G.  (5,EQ,5) WE ACCEPT, IN REALITY WE CONVERT IT                Ÿ
                                    8493              Ÿ   TO (5 EQ 5) AND RETURN.  DETAILS BELOW                            Ÿ
                                    8494              Ÿ                                                                     Ÿ
                                    8495              Ÿ                                                                     Ÿ
                                    8496              Ÿ                                                                     Ÿ
                                                      ¾þþþþþþþþþþþþþþþþþþþþþþþþþþþþþþþþþþþþþþþþþþþþþþþþþþþþþþþþþþþþþþþþþþþþþ»
0000000                00000 00150  8497              ZAPWA    RECORD BEGIN ,
 000000                             8505  1           ZAPVALUE   DS    XL(L'XSLENTRY)      WORK AREA FOR EXPR VALUE TYPE
 000150                00150 00150  8506                       END
                                    8515              *
                                    8516              *
 0002FE 50E0 D000/9008_      00000  8517              ZAPIF    PROC  ZAPWA
 USING  *,R7
 USING  ZAPWA-(4+36),R8
 USING  XSENTRY,R2                  8567                       USING XSENTRY,R2
 000318 4120 8028            00000  8576                       LA    R2,ZAPVALUE
 00031C 58E0 B08C/581E_      0008C  8577                       SCINFO ,                  R1,R0 - LOC LEN OF EXPRESSION
 00032A 58E0 779C/0DEE       00AB4  8586                       OSCINFO ,                 ** DEBUG ** OLD-NEW COMPATIBILTY
 000330 1200/47D0 70AE              8591                       IF    (R0,NP),ZAPDONE
 000336 1A01                        8608                       AR    R0,R1
 000338 9540 1000/4770_00000        8609                       WHILE ((@R1,EQ,' '),AND,(R1,LT,R0)),BEGIN  SKIP BLANKS
 000346 4111 0001            00001  8641  1                      LA    R1,1(R1)
 00034A 47F0 7020            00338  8642                       END
 00034E 954D 1000      00000        8647                       CLI   @R1,C'('                             SKIP "("
 000352 4770 70AE            003C6  8648                       IF    NE,ZAPDONE
 000356 4111 0001            00001  8662                       LA    R1,1(R1)
 00035A 1B01                        8663                       SR    R0,R1
 00035C 4120 8028            00000  8664                       LA    R2,ZAPVALUE
 000360 9640 BD5C      00D5C        8665    **ISU**            SET   CPFZAPIF            Set kludge flag
 000364 58E0 77A0/0DEE       00AB8  8671                       VCALL SCANEXPR            SCAN PAST 1ST EXPRESSION
 00036A 94BF BD5C      00D5C        8675    **ISU**            CLEAR CPFZAPIF            Clear kludge flag
 00036E 12FF/4720 C7D6              8682                       IF    (R15,POS),CVERROR
 000374 1A01                        8699                       AR    R0,R1
 000376 956B 1000/4770_00000        8700                       IF    (@R1,NE,','),ZAPDONE
 00037E 956B 1000/4770_00000        8719                       IF    (@R1,EQ,','),BEGIN  IF (X, ...       REMOVE COMMA
 000386 9240 1000      00000        8735  1                      MVI   @R1,C' '
 00038A                             8736                       END
 00038A 9540 1000/4770_00000        8740                       WHILE ((@R1,EQ,' '),AND,(R1,LT,R0)),BEGIN  SKIP BLANKS
 000398 4111 0001            00001  8772  1                      LA    R1,1(R1)
 00039C 47F0 7072            0038A  8773                       END
 0003A0 4111 0002            00002  8778                       LA    R1,2(R1)                             SKIP OPERATOR,
 0003A4 9540 1000/4770_00000        8779                       WHILE ((@R1,EQ,' '),AND,(R1,LT,R0)),BEGIN  SKIP BLANKS
 0003B2 4111 0001            00001  8811  1                      LA    R1,1(R1)
 0003B6 47F0 708C            003A4  8812                       END
 0003BA 956B 1000/4770_00000        8817                       IF    (@R1,EQ,','),BEGIN                   REMOVE COMMA
 0003C2 9240 1000      00000        8833  1                      MVI   @R1,C' '
 0003C6                             8834                       END
1FLOW     (FLOW2025) (12:45) (15MAR04) FLOW CONTROL COMMANDS                                                                Page   25
0Current Usings:  (XSENTRY,R2) (*,R7) (ZAPWA-(4+36),R8) (CP,R11) (CV,R12)
0Loc    Object Code    Addr1 Addr2  Stmt Lv Lineno    Source Statement           (Hibal 5, Asmedit 3.3)  HLASM R4.0  2004/03/15 12.45
+___    ______ ____    _____ _____  ____ __ ______    ______ _________
0                                   8838
 0003C6                             8839              ZAPDONE  LABEL ,
 0003C6 18D8/9808 D004_             8841                       PEND  ,
 DROP   ZAPWA-(4+36),R8
 DROP   *,R7
 DROP   XSENTRY,R2                  8866                       DROP  R2
1FLOW     (FLOW2025) (12:45) (15MAR04) FLOW CONTROL COMMANDS                                                                Page   26
0Current Usings:  (CP,R11) (CV,R12)
0Loc    Object Code    Addr1 Addr2  Stmt Lv Lineno    Source Statement           (Hibal 5, Asmedit 3.3)  HLASM R4.0  2004/03/15 12.45
+___    ______ ____    _____ _____  ____ __ ______    ______ _________
0                                   8874              ¿þþþþþþþþþþþþþþþþþþþþþþþþþþþþþþþþþþþþþþþþþþþþþþþþþþþþþþþþþþþþþþþþþþþþþÜ
                                    8875              Ÿ                                                                     Ÿ
                                    8876              Ÿ                                                                     Ÿ
                                    8877              Ÿ  ELSE --                                                            Ÿ
                                    8878              Ÿ                                                                     Ÿ
                                    8879              Ÿ  ON ENTRY:                                                          Ÿ
                                    8880              Ÿ       SCANCB - REMAINING STRING AFTER ELSE                          Ÿ
                                    8881              Ÿ       CPEXLINE - LINE NUMBER CONTAINING ELSE                        Ÿ
                                    8882              Ÿ                                                                     Ÿ
                                    8883              Ÿ                                                                     Ÿ
                                                      ¾þþþþþþþþþþþþþþþþþþþþþþþþþþþþþþþþþþþþþþþþþþþþþþþþþþþþþþþþþþþþþþþþþþþþþ»
0000000                00000 00020  8884              ELSEWA   RECORD BEGIN
 000000                             8892  1           ELSEFLOW   DS    XL(L'FWENTRY)
 000020                00020 00020  8893                       END
                                    8902              *
                                    8903              *
 0003D4 50E0 D000/9008_      00000  8904              ELSE     XPROC ELSEWA
 USING  *,R7
 USING  ELSEWA-(4+36),R8
 USING  FWENTRY,R6                  8955                       USING FWENTRY,R6
 0003EE 4160 8028            00000  8964                       LA    R6,ELSEFLOW
                                    8965                       ¿þþþþþþþþþþþþþþþþþÜ
                                    8966                       Ÿ                 Ÿ
                                    8967                       Ÿ  OLD MODE ELSE  Ÿ
                                    8968                       Ÿ                 Ÿ
                                    8969                       ¾þþþþþþþþþþþþþþþþþ»
                                    8970                       COMMENT                   IF OLD MODE OR FROM TERMINAL
 0003F2 9180 B758/47E0_00758        8971                       IF   (~CPFEXEC,OR,CPFXOLD),BEGIN
 000402 9120 B477/4710_00477        9000  1                      IF    ~CPGFLG4.CPF4TRUE,BEGIN    IF LAST IF WAS FALSE,,,
 00040A 9680 B477      00477        9016  2                        SET   CPGFLG4.CPFNPREP             DON'T REPREPROCESS
 00040E 58E0 B08C/581E_      0008C  9023  2                        SCINFO ,
 00041C 58E0 76B2/0DEE       00AA0  9032  2                        VCALL EDTCOMMV                     AND EXECUTE COMMAND
 000422                             9036  1                      END
 000422 47F0 C7DE            007DE  9040  1                      B     CVNEXT
 000426                             9041                       END
                                    9045                       ¿þþþþþþþþþþþþþþþþþþþþþþÜ
                                    9046                       Ÿ                      Ÿ
                                    9047                       Ÿ  EXTENDED MODE ELSE  Ÿ
                                    9048                       Ÿ                      Ÿ
                                    9049                       ¾þþþþþþþþþþþþþþþþþþþþþþ»
                                    9050                       COMMENT                   ENTRANCE EXAM
 000426 9501 B759/4780_00759        9051                       IF    ~CPFXTEND,BEGIN
 00042E 0000                        9066  1                      BOMB
 000430                             9068                       END
                                    9072
                                    9073                       COMMENT                   GET IF FLOW CONTROL INFO
 000430 D71F 6000 6000 00000 00000  9074                       CLEAR FWENTRY
 000436 D203 6000 B75C 00000 0075C  9081                       MVC   FWNLINE,CPEXLINE
 00043C D207 6004 7612 00004 00A00  9082                       MVC   FWNNAME,=CL8'ELSE    '
 000442 4110 6000            00000  9083                       LA    R1,FWENTRY
 000446 58E0 76A6/0DEE       00A94  9084                       ACALL GETFLOW
 00044C 4780 7080            0046E  9088                       IF    NZ,BEGIN
 000450 4110 7813/4100_      00C01  9099  1                      TSEG  'Invalid ELSE statement.',,CR
1FLOW     (FLOW2025) (12:45) (15MAR04) FLOW CONTROL COMMANDS                                                                Page   27
0Current Usings:  (FWENTRY,R6) (*,R7) (ELSEWA-(4+36),R8) (CP,R11) (CV,R12)
0Loc    Object Code    Addr1 Addr2  Stmt Lv Lineno    Source Statement           (Hibal 5, Asmedit 3.3)  HLASM R4.0  2004/03/15 12.45
+___    ______ ____    _____ _____  ____ __ ______    ______ _________
0000462 4110 75E2/4100_      009D0  9117  1                      ERROR 'Dynamic flow control statements invalid.'
 00046E                             9124                       END
 00046E 9505 6010/4780_00010        9128                       IF    ~FWELSE,BEGIN
 000476 0000                        9143  1                      BOMB
 000478                             9145                       END
                                    9149
                                    9150                       COMMENT                   PROCESS ELSE,,
 000478 D203 B760 76CE 00760 00ABC  9151                       MVC   CPEXNEXT,=CL4'NEXT' SET NEXT COMMAND
 00047E 58E0 76AE/0DEE       00A9C  9152                       ACALL CHKBEGIN
 000484 4780 70B2            004A0  9156                       IF    NZ,BEGIN            IF ELSE COMMAND
                                    9167  1                      COMMENT                   EXECUTE COMMAND
 000488 9680 B477      00477        9168  1                      SET   CPGFLG4.CPFNPREP    DON'T REPROCESS THIS COMMAND
 00048C 58E0 B08C/581E_      0008C  9175  1                      SCINFO ,,                R1,R0 - COMMAND LOC, LEN
 00049A 58E0 76B2/0DEE       00AA0  9184  1                      VCALL EDTCOMMV            EXEC CMD PART OF WHILE (..) CMD
 0004A0                             9188                       END
                                    9192                       COMMENT                   IF ELSE BEGIN
 0004A0 47F0 C7DE            007DE  9193                       B     CVNEXT              JUST EXECUTE NEXT COMMAND
                                    9194
                                    9195                       COMMENT                   WE EXIT ABOVE, VIA CVNEXT
 0004A4 0000                        9196                       BOMB
 0004A6 18D8/9808 D004_             9198                       PEND  ,              A HABIT, NEVER EXECUTED
 DROP   ELSEWA-(4+36),R8
 DROP   *,R7
 DROP   FWENTRY,R6                  9223                       DROP  R6
1FLOW     (FLOW2025) (12:45) (15MAR04) FLOW CONTROL COMMANDS                                                                Page   28
0Current Usings:  (CP,R11) (CV,R12)
0Loc    Object Code    Addr1 Addr2  Stmt Lv Lineno    Source Statement           (Hibal 5, Asmedit 3.3)  HLASM R4.0  2004/03/15 12.45
+___    ______ ____    _____ _____  ____ __ ______    ______ _________
0                                   9231              ¿þþþþþþþþþþþþþþþþþþþþþþþþþþþþþþþþþþþþþþþþþþþþþþþþþþþþþþþþþþþþþþþþþþþþþÜ
                                    9232              Ÿ                                                                     Ÿ
                                    9233              Ÿ                                                                     Ÿ
                                    9234              Ÿ  ELSEIF --                                                          Ÿ
                                    9235              Ÿ                                                                     Ÿ
                                    9236              Ÿ  ON ENTRY:                                                          Ÿ
                                    9237              Ÿ       SCANCB - REMAINING STRING AFTER ELSEIF                        Ÿ
                                    9238              Ÿ       CPEXLINE - LINE NUMBER CONTAINING ELSEIF                      Ÿ
                                    9239              Ÿ                                                                     Ÿ
                                    9240              Ÿ                                                                     Ÿ
                                                      ¾þþþþþþþþþþþþþþþþþþþþþþþþþþþþþþþþþþþþþþþþþþþþþþþþþþþþþþþþþþþþþþþþþþþþþ»
0000000                00000 00020  9241              LSIFWA   RECORD BEGIN
 000000                             9249  1           LSIFFLOW   DS    XL(L'FWENTRY)
 000020                00020 00020  9250                       END
                                    9259              *
                                    9260              *
 0004B4 50E0 D000/9008_      00000  9261              ELSEIF   XPROC LSIFWA
 USING  *,R7
 USING  LSIFWA-(4+36),R8
 USING  FWENTRY,R6                  9312                       USING FWENTRY,R6
 0004CE 4160 8028            00000  9321                       LA    R6,LSIFFLOW
                                    9322
                                    9323                    COMMENT                      ELSEIF,  INVALID FROM TERMINAL
 0004D2 9180 B758/4710_00758        9324                    IF    ~CPFEXEC,BEGIN
 0004DA 4110 75FE/4100_      00ACC  9339  1                   TSEG  'ELSEIF: statement ignored.',,CR
 0004EC 4110 769D/4100_      00B6B  9357  1                   ERROR 'Flow control statements may be used only in EXEC files.'
 0004F8                             9364                    END
                                    9368
                                    9369                    COMMENT                      ELSEIF, INVALID IN OLD EXEC MODE
 0004F8 9502 B759/4770_00759        9370                    IF    CPFXOLD,BEGIN
 000500 4110 7618/4100_      00AE6  9385  1                   TSEG  'ELSEIF: statement invalid.',,CR
 000512 4110 76ED/4100_      00BBB  9403  1                   ERROR 'Statement may be used only in Extended EXEC mode.'
 00051E                             9410                    END
                                    9414                       ¿þþþþþþþþþþþþþþþþþþþþþþþþþþÜ
                                    9415                       Ÿ                          Ÿ
                                    9416                       Ÿ  PROCESS ELSEIF COMMAND  Ÿ
                                    9417                       Ÿ                          Ÿ
                                    9418                       ¾þþþþþþþþþþþþþþþþþþþþþþþþþþ»
                                    9419                       COMMENT                   ENTRANCE EXAM
 00051E 9501 B759/4780_00759        9420                       IF    ~CPFXTEND,BEGIN
 000526 0000                        9435  1                      BOMB
 000528                             9437                       END
                                    9441
                                    9442                       COMMENT                   GET ELSEIF FLOW CONTROL INFO
 000528 D71F 6000 6000 00000 00000  9443                       CLEAR FWENTRY
 00052E D203 6000 B75C 00000 0075C  9450                       MVC   FWNLINE,CPEXLINE
 000534 D207 6004 753A 00004 00A08  9451                       MVC   FWNNAME,=CL8'ELSEIF  '
 00053A 4110 6000            00000  9452                       LA    R1,FWENTRY
 00053E 58E0 75C6/0DEE       00A94  9453                       ACALL GETFLOW
 000544 4780 7098            00566  9457                       IF    NZ,BEGIN
 000548 4110 774A/4100_      00C18  9468  1                      TSEG  'Invalid ELSEIF statement.',,CR
 00055A 4110 7502/4100_      009D0  9486  1                      ERROR 'Dynamic flow control statements invalid.'
 000566                             9493                       END
1FLOW     (FLOW2025) (12:45) (15MAR04) FLOW CONTROL COMMANDS                                                                Page   29
0Current Usings:  (FWENTRY,R6) (*,R7) (LSIFWA-(4+36),R8) (CP,R11) (CV,R12)
0Loc    Object Code    Addr1 Addr2  Stmt Lv Lineno    Source Statement           (Hibal 5, Asmedit 3.3)  HLASM R4.0  2004/03/15 12.45
+___    ______ ____    _____ _____  ____ __ ______    ______ _________
0000566 9506 6010/4780_00010        9497                       IF    ~FWELSEIF,BEGIN
 00056E 0000                        9512  1                      BOMB
 000570                             9514                       END
                                    9518
                                    9519                       COMMENT                   EVALUATE CONDITIONAL EXPRESSION
 000570 58E0 75CA/0DEE       00A98  9520                       ACALL EVALCOND
                                    9524
                                    9525                       COMMENT                   IF TRUE,,,
 000576 12FF/4780 70DA              9526                       IF    (R15,NZ),BEGIN
 00057C D203 B760 6014 00760 00014  9540  1                      MVC   CPEXNEXT,FWTRUE     SET NEXT COMMAND
 000582 58E0 75CE/0DEE       00A9C  9541  1                      ACALL CHKBEGIN
 000588 4780 70D6            005A4  9545  1                      IF    NZ,BEGIN            IF ELSEIF (...) COMMAND
                                    9556  2                        COMMENT                   EXECUTE COMMAND
 00058C 9680 B477      00477        9557  2                        SET   CPGFLG4.CPFNPREP    DON'T REPROCESS THIS COMMAND
 000590 58E0 B08C/581E_      0008C  9564  2                        SCINFO ,,                R1,R0 - COMMAND LOC, LEN
 00059E 58E0 75D2/0DEE       00AA0  9573  2                        VCALL EDTCOMMV            EXEC CMD PART OF WHILE (..) CMD
 0005A4                             9577  1                      END
                                    9581  1                      COMMENT                   IF ELSEIF (...) BEGIN
 0005A4 47F0 C7DE            007DE  9582  1                      B     CVNEXT              JUST EXECUTE NEXT COMMAND
 0005A8                             9583                       END
                                    9587
                                    9588                       COMMENT                   IF FALSE
 0005A8 70DE/47F0 70E8 005A8 0057A  9589                       ELSE  BEGIN
 0005AC D203 B760 6018 00760 00018  9600  1                      MVC   CPEXNEXT,FWFALSE    SET NEXT COMMAND
 0005B2 47F0 C7DE            007DE  9601  1                      B     CVNEXT              AND GO DO IT !
 0005B6                             9602                       END
                                    9606
                                    9607                       COMMENT                   WE EXIT ABOVE, VIA CVNEXT
 0005B6 0000                        9608                       BOMB
 0005B8 18D8/9808 D004_             9610                       PEND  ,              A HABIT, NEVER EXECUTED
 DROP   LSIFWA-(4+36),R8
 DROP   *,R7
 DROP   FWENTRY,R6                  9635                       DROP  R6
1FLOW     (FLOW2025) (12:45) (15MAR04) FLOW CONTROL COMMANDS                                                                Page   30
0Current Usings:  (CP,R11) (CV,R12)
0Loc    Object Code    Addr1 Addr2  Stmt Lv Lineno    Source Statement           (Hibal 5, Asmedit 3.3)  HLASM R4.0  2004/03/15 12.45
+___    ______ ____    _____ _____  ____ __ ______    ______ _________
0                                   9643              ¿þþþþþþþþþþþþþþþþþþþþþþþþþþþþþþþþþþþþþþþþþþþþþþþþþþþþþþþþþþþþþþþþþþþþþÜ
                                    9644              Ÿ                                                                     Ÿ
                                    9645              Ÿ                                                                     Ÿ
                                    9646              Ÿ  REPEAT --                                                          Ÿ
                                    9647              Ÿ                                                                     Ÿ
                                    9648              Ÿ  ON ENTRY:                                                          Ÿ
                                    9649              Ÿ       SCANCB - REMAINING STRING AFTER REPEAT                        Ÿ
                                    9650              Ÿ       CPEXLINE - LINE NUMBER CONTAINING REPEAT                      Ÿ
                                    9651              Ÿ                                                                     Ÿ
                                    9652              Ÿ                                                                     Ÿ
                                                      ¾þþþþþþþþþþþþþþþþþþþþþþþþþþþþþþþþþþþþþþþþþþþþþþþþþþþþþþþþþþþþþþþþþþþþþ»
0000000                00000 00020  9653              REPEATWA RECORD BEGIN
 000000                             9661  1           REPTFLOW   DS    XL(L'FWENTRY)
 000020                00020 00020  9662                       END
                                    9671              *
                                    9672              *
 0005C6 50E0 D000/9008_      00000  9673              REPEAT   XPROC REPEATWA
 USING  *,R7
 USING  REPEATWA-(4+36),R8
 USING  FWENTRY,R6                  9724                       USING FWENTRY,R6
 0005E0 4160 8028            00000  9733                       LA    R6,REPTFLOW
                                    9734
                                    9735                    COMMENT                      REPEAT, INVALID FROM TERMINAL
 0005E4 9180 B758/4710_00758        9736                    IF    ~CPFEXEC,BEGIN
 0005EC 4110 7520/4100_      00B00  9751  1                   TSEG  'REPEAT: statement ignored.',,CR
 0005FE 4110 758B/4100_      00B6B  9769  1                   ERROR 'Flow control statements may be used only in EXEC files.'
 00060A                             9776                    END
                                    9780
                                    9781                    COMMENT                      REPEAT, INVALID IN OLD EXEC MODE
 00060A 9502 B759/4770_00759        9782                    IF    CPFXOLD,BEGIN
 000612 4110 753A/4100_      00B1A  9797  1                   TSEG  'REPEAT: statement invalid.',,CR
 000624 4110 75DB/4100_      00BBB  9815  1                   ERROR 'Statement may be used only in Extended EXEC mode.'
 000630                             9822                    END
                                    9826                       ¿þþþþþþþþþþþþþþþþþþþþþþþþþþÜ
                                    9827                       Ÿ                          Ÿ
                                    9828                       Ÿ  PROCESS REPEAT COMMAND  Ÿ
                                    9829                       Ÿ                          Ÿ
                                    9830                       ¾þþþþþþþþþþþþþþþþþþþþþþþþþþ»
                                    9831                       COMMENT                   ENTRANCE EXAM
 000630 9501 B759/4780_00759        9832                       IF    ~CPFXTEND,BEGIN
 000638 0000                        9847  1                      BOMB
 00063A                             9849                       END
                                    9853
                                    9854                       COMMENT                   GET REPEAT FLOW CONTROL INFO
 00063A D71F 6000 6000 00000 00000  9855                       CLEAR FWENTRY
 000640 D203 6000 B75C 00000 0075C  9862                       MVC   FWNLINE,CPEXLINE
 000646 D207 6004 7430 00004 00A10  9863                       MVC   FWNNAME,=CL8'REPEAT  '
 00064C 4110 6000            00000  9864                       LA    R1,FWENTRY
 000650 58E0 74B4/0DEE       00A94  9865                       ACALL GETFLOW
 000656 4780 7098            00678  9869                       IF    NZ,BEGIN
 00065A 4110 7651/4100_      00C31  9880  1                      TSEG  'Invalid REPEAT statement.',,CR
 00066C 4110 73F0/4100_      009D0  9898  1                      ERROR 'Dynamic flow control statements invalid.'
 000678                             9905                       END
1FLOW     (FLOW2025) (12:45) (15MAR04) FLOW CONTROL COMMANDS                                                                Page   31
0Current Usings:  (FWENTRY,R6) (*,R7) (REPEATWA-(4+36),R8) (CP,R11) (CV,R12)
0Loc    Object Code    Addr1 Addr2  Stmt Lv Lineno    Source Statement           (Hibal 5, Asmedit 3.3)  HLASM R4.0  2004/03/15 12.45
+___    ______ ____    _____ _____  ____ __ ______    ______ _________
0000678 950B 6010/4780_00010        9909                       IF    ~FWREPEAT,BEGIN
 000680 0000                        9924  1                      BOMB
 000682                             9926                       END
                                    9930
                                    9931                       COMMENT                   PROCESS REPEAT
 000682 58E0 74BC/0DEE       00A9C  9932                       ACALL CHKBEGIN
 000688 4780 70C4            006A4  9936                       IF    NZ,BEGIN            IF REPEAT COMMAND
                                    9947  1                      COMMENT                   EXECUTE COMMAND
 00068C 9680 B477      00477        9948  1                      SET   CPGFLG4.CPFNPREP    DON'T REPROCESS THIS COMMAND
 000690 58E0 B08C/581E_      0008C  9955  1                      SCINFO ,,                R1,R0 - COMMAND LOC, LEN
 00069E 58E0 74C0/0DEE       00AA0  9964  1                      VCALL EDTCOMMV            EXEC CMD PART OF WHILE (..) CMD
 0006A4                             9968                       END
                                    9972                       COMMENT                   IF REPEAT BEGIN
 0006A4 47F0 C7DE            007DE  9973                       B     CVNEXT              JUST EXECUTE NEXT COMMAND
                                    9974
                                    9975                       COMMENT                   WE EXIT ABOVE, VIA CVNEXT
 0006A8 0000                        9976                       BOMB
 0006AA 18D8/9808 D004_             9978                       PEND  ,              A HABIT, NEVER EXECUTED
 DROP   REPEATWA-(4+36),R8
 DROP   *,R7
 DROP   FWENTRY,R6                 10003                       DROP  R6
1FLOW     (FLOW2025) (12:45) (15MAR04) FLOW CONTROL COMMANDS                                                                Page   32
0Current Usings:  (CP,R11) (CV,R12)
0Loc    Object Code    Addr1 Addr2  Stmt Lv Lineno    Source Statement           (Hibal 5, Asmedit 3.3)  HLASM R4.0  2004/03/15 12.45
+___    ______ ____    _____ _____  ____ __ ______    ______ _________
0                                  10011              ¿þþþþþþþþþþþþþþþþþþþþþþþþþþþþþþþþþþþþþþþþþþþþþþþþþþþþþþþþþþþþþþþþþþþþþÜ
                                   10012              Ÿ                                                                     Ÿ
                                   10013              Ÿ                                                                     Ÿ
                                   10014              Ÿ  UNTIL --                                                           Ÿ
                                   10015              Ÿ                                                                     Ÿ
                                   10016              Ÿ  ON ENTRY:                                                          Ÿ
                                   10017              Ÿ       SCANCB - REMAINING STRING AFTER UNTIL                         Ÿ
                                   10018              Ÿ       CPEXLINE - LINE NUMBER CONTAINING UNTIL                       Ÿ
                                   10019              Ÿ                                                                     Ÿ
                                   10020              Ÿ                                                                     Ÿ
                                                      ¾þþþþþþþþþþþþþþþþþþþþþþþþþþþþþþþþþþþþþþþþþþþþþþþþþþþþþþþþþþþþþþþþþþþþþ»
0000000                00000 00020 10021              UNTILWA  RECORD BEGIN
 000000                            10029  1           UNTLFLOW   DS    XL(L'FWENTRY)
 000020                00020 00020 10030                       END
                                   10039              *
                                   10040              *
 0006B8 50E0 D000/9008_      00000 10041              UNTIL    XPROC UNTILWA
 USING  *,R7
 USING  UNTILWA-(4+36),R8
 USING  FWENTRY,R6                 10092                       USING FWENTRY,R6
 0006D2 4160 8028            00000 10101                       LA    R6,UNTLFLOW
                                   10102
                                   10103                    COMMENT                      UNTIL, INVALID FROM TERMINAL
 0006D6 9180 B758/4710_00758       10104                    IF    ~CPFEXEC,BEGIN
 0006DE 4110 7578/4100_      00C4A 10119  1                   TSEG  'UNTIL: statement ignored.',,CR
 0006F0 4110 7499/4100_      00B6B 10137  1                   ERROR 'Flow control statements may be used only in EXEC files.'
 0006FC                            10144                    END
                                   10148
                                   10149                    COMMENT                      UNTIL, INVALID IN OLD EXEC MODE
 0006FC 9502 B759/4770_00759       10150                    IF    CPFXOLD,BEGIN
 000704 4110 7591/4100_      00C63 10165  1                   TSEG  'UNTIL: statement invalid.',,CR
 000716 4110 74E9/4100_      00BBB 10183  1                   ERROR 'Statement may be used only in Extended EXEC mode.'
 000722                            10190                    END
                                   10194                       ¿þþþþþþþþþþþþþþþþþþþþþþþþþÜ
                                   10195                       Ÿ                         Ÿ
                                   10196                       Ÿ  PROCESS UNTIL COMMAND  Ÿ
                                   10197                       Ÿ                         Ÿ
                                   10198                       ¾þþþþþþþþþþþþþþþþþþþþþþþþþ»
                                   10199                       COMMENT                   ENTRANCE EXAM
 000722 9501 B759/4780_00759       10200                       IF    ~CPFXTEND,BEGIN
 00072A 0000                       10215  1                      BOMB
 00072C                            10217                       END
                                   10221
                                   10222                       COMMENT                   GET UNTIL FLOW CONTROL INFO
 00072C D71F 6000 6000 00000 00000 10223                       CLEAR FWENTRY
 000732 D203 6000 B75C 00000 0075C 10230                       MVC   FWNLINE,CPEXLINE
 000738 D207 6004 7346 00004 00A18 10231                       MVC   FWNNAME,=CL8'UNTIL   '
 00073E 4110 6000            00000 10232                       LA    R1,FWENTRY
 000742 58E0 73C2/0DEE       00A94 10233                       ACALL GETFLOW
 000748 4780 7098            0076A 10237                       IF    NZ,BEGIN
 00074C 4110 734E/4100_      00A20 10248  1                      TSEG  'Invalid UNTIL statement.',,CR
 00075E 4110 72FE/4100_      009D0 10266  1                      ERROR 'Dynamic flow control statements invalid.'
 00076A                            10273                       END
1FLOW     (FLOW2025) (12:45) (15MAR04) FLOW CONTROL COMMANDS                                                                Page   33
0Current Usings:  (FWENTRY,R6) (*,R7) (UNTILWA-(4+36),R8) (CP,R11) (CV,R12)
0Loc    Object Code    Addr1 Addr2  Stmt Lv Lineno    Source Statement           (Hibal 5, Asmedit 3.3)  HLASM R4.0  2004/03/15 12.45
+___    ______ ____    _____ _____  ____ __ ______    ______ _________
000076A 950C 6010/4780_00010       10277                       IF    ~FWUNTIL,BEGIN
 000772 0000                       10292  1                      BOMB
 000774                            10294                       END
                                   10298
                                   10299                       COMMENT                   EVALUATE CONDITIONAL EXPRESSION
 000774 58E0 73C6/0DEE       00A98 10300                       ACALL EVALCOND
                                   10304
                                   10305                       COMMENT                   IF TRUE,,,
 00077A 12FF/4780 70BE             10306                       IF    (R15,NZ),BEGIN
 000780 D203 B760 6014 00760 00014 10320  1                      MVC   CPEXNEXT,FWTRUE     SET NEXT COMMAND
 000786 58E0 73EE/0DEE       00AC0 10321  1                      VCALL NOOPTS              GARBAGE CHECK AFTER UNTIL (...)
 00078C 47F0 C7DE            007DE 10325  1                      B     CVNEXT              DO NEXT COMMAND
 000790                            10326                       END
                                   10330
                                   10331                       COMMENT                   IF FALSE
 000790 70C2/47F0 70D2 00790 0077E 10332                       ELSE  BEGIN
 000794 D203 B760 6018 00760 00018 10343  1                      MVC   CPEXNEXT,FWFALSE    SET NEXT COMMAND
 00079A 58E0 73EE/0DEE       00AC0 10344  1                      VCALL NOOPTS              GARBAGE CHECK AFTER UNTIL (...)
 0007A0 47F0 C7DE            007DE 10348  1                      B     CVNEXT              DO NEXT COMMAND
 0007A4                            10349                       END
                                   10353
                                   10354                       COMMENT                   WE EXIT ABOVE, VIA CVNEXT
 0007A4 0000                       10355                       BOMB
 0007A6 18D8/9808 D004_            10357                       PEND  ,              A HABIT, NEVER EXECUTED
 DROP   UNTILWA-(4+36),R8
 DROP   *,R7
 DROP   FWENTRY,R6                 10382                       DROP  R6
1FLOW     (FLOW2025) (12:45) (15MAR04) FLOW CONTROL COMMANDS                                                                Page   34
0Current Usings:  (CP,R11) (CV,R12)
0Loc    Object Code    Addr1 Addr2  Stmt Lv Lineno    Source Statement           (Hibal 5, Asmedit 3.3)  HLASM R4.0  2004/03/15 12.45
+___    ______ ____    _____ _____  ____ __ ______    ______ _________
0                                  10390              ¿þþþþþþþþþþþþþþþþþþþþþþþþþþþþþþþþþþþþþþþþþþþþþþþþþþþþþþþþþþþþþþþþþþþþþÜ
                                   10391              Ÿ                                                                     Ÿ
                                   10392              Ÿ                                                                     Ÿ
                                   10393              Ÿ  CASES --                                                           Ÿ
                                   10394              Ÿ                                                                     Ÿ
                                   10395              Ÿ  ON ENTRY:                                                          Ÿ
                                   10396              Ÿ       SCANCB - REMAINING STRING AFTER CASES                         Ÿ
                                   10397              Ÿ       CPEXLINE - LINE NUMBER CONTAINING CASES                       Ÿ
                                   10398              Ÿ                                                                     Ÿ
                                   10399              Ÿ                                                                     Ÿ
                                                      ¾þþþþþþþþþþþþþþþþþþþþþþþþþþþþþþþþþþþþþþþþþþþþþþþþþþþþþþþþþþþþþþþþþþþþþ»
0000000                00000 00020 10400              CASESWA RECORD BEGIN
 000000                            10408  1           CASESFLW   DS    XL(L'FWENTRY)
 000020                00020 00020 10409                       END
                                   10418              *
                                   10419              *
 0007B4 50E0 D000/9008_      00000 10420              CASES    XPROC CASESWA
 USING  *,R7
 USING  CASESWA-(4+36),R8
 USING  FWENTRY,R6                 10471                       USING FWENTRY,R6
 0007CE 4160 8028            00000 10480                       LA    R6,CASESFLW
                                   10481
                                   10482                    COMMENT                      CASES, INVALID FROM TERMINAL
 0007D2 9180 B758/4710_00758       10483                    IF    ~CPFEXEC,BEGIN
 0007DA 4110 74AE/4100_      00C7C 10498  1                   TSEG  'CASES: statement ignored.',,CR
 0007EC 4110 739D/4100_      00B6B 10516  1                   ERROR 'Flow control statements may be used only in EXEC files.'
 0007F8                            10523                    END
                                   10527
                                   10528                    COMMENT                      CASES, INVALID IN OLD EXEC MODE
 0007F8 9502 B759/4770_00759       10529                    IF    CPFXOLD,BEGIN
 000800 4110 74C7/4100_      00C95 10544  1                   TSEG  'CASES: statement invalid.',,CR
 000812 4110 73ED/4100_      00BBB 10562  1                   ERROR 'Statement may be used only in Extended EXEC mode.'
 00081E                            10569                    END
                                   10573                       ¿þþþþþþþþþþþþþþþþþþþþþþþþþÜ
                                   10574                       Ÿ                         Ÿ
                                   10575                       Ÿ  PROCESS CASES COMMAND  Ÿ
                                   10576                       Ÿ                         Ÿ
                                   10577                       ¾þþþþþþþþþþþþþþþþþþþþþþþþþ»
                                   10578                       COMMENT                   ENTRANCE EXAM
 00081E 9501 B759/4780_00759       10579                       IF    ~CPFXTEND,BEGIN
 000826 0000                       10594  1                      BOMB
 000828                            10596                       END
                                   10600
                                   10601                       COMMENT                   GET CASES FLOW CONTROL INFO
 000828 D71F 6000 6000 00000 00000 10602                       CLEAR FWENTRY
 00082E D203 6000 B75C 00000 0075C 10609                       MVC   FWNLINE,CPEXLINE
 000834 D207 6004 726A 00004 00A38 10610                       MVC   FWNNAME,=CL8'CASES   '
 00083A 4110 6000            00000 10611                       LA    R1,FWENTRY
 00083E 58E0 72C6/0DEE       00A94 10612                       ACALL GETFLOW
 000844 4780 7098            00866 10616                       IF    NZ,BEGIN
 000848 4110 7272/4100_      00A40 10627  1                      TSEG  'Invalid CASES statement.',,CR
 00085A 4110 7202/4100_      009D0 10645  1                      ERROR 'Dynamic flow control statements invalid.'
 000866                            10652                       END
1FLOW     (FLOW2025) (12:45) (15MAR04) FLOW CONTROL COMMANDS                                                                Page   35
0Current Usings:  (FWENTRY,R6) (*,R7) (CASESWA-(4+36),R8) (CP,R11) (CV,R12)
0Loc    Object Code    Addr1 Addr2  Stmt Lv Lineno    Source Statement           (Hibal 5, Asmedit 3.3)  HLASM R4.0  2004/03/15 12.45
+___    ______ ____    _____ _____  ____ __ ______    ______ _________
0000866 9509 6010/4780_00010       10656                       IF    ~FWCASES,BEGIN
 00086E 0000                       10671  1                      BOMB
 000870                            10673                       END
                                   10677
                                   10678                       COMMENT                   PROCESS CASES BEGIN, (NOOP)
 000870 58E0 72CE/0DEE       00A9C 10679                       ACALL CHKBEGIN            CHECK CASES BEGIN
 000876 4780 C7DE            007DE 10683                       BZ    CVNEXT              GOT BEGIN
                                   10684                       COMMENT                   NO BEGIN,
 00087A 58E0 72F6/0DEE       00AC4 10685                       ACALL CHKOPTS             GIVE ERROR
 000880 4110 7366/4100_      00B34 10689                       ERROR 'CASES BEGIN must be specified.'
                                   10696
                                   10697                       COMMENT                   WE EXIT ABOVE, VIA CVNEXT
 00088C 0000                       10698                       BOMB
 00088E 18D8/9808 D004_            10700                       PEND  ,              A HABIT, NEVER EXECUTED
 DROP   CASESWA-(4+36),R8
 DROP   *,R7
 DROP   FWENTRY,R6                 10725                       DROP  R6
1FLOW     (FLOW2025) (12:45) (15MAR04) FLOW CONTROL COMMANDS                                                                Page   36
0Current Usings:  (CP,R11) (CV,R12)
0Loc    Object Code    Addr1 Addr2  Stmt Lv Lineno    Source Statement           (Hibal 5, Asmedit 3.3)  HLASM R4.0  2004/03/15 12.45
+___    ______ ____    _____ _____  ____ __ ______    ______ _________
0                                  10733              ¿þþþþþþþþþþþþþþþþþþþþþþþþþþþþþþþþþþþþþþþþþþþþþþþþþþþþþþþþþþþþþþþþþþþþþÜ
                                   10734              Ÿ                                                                     Ÿ
                                   10735              Ÿ                                                                     Ÿ
                                   10736              Ÿ  CASE --                                                            Ÿ
                                   10737              Ÿ                                                                     Ÿ
                                   10738              Ÿ  ON ENTRY:                                                          Ÿ
                                   10739              Ÿ       SCANCB - REMAINING STRING AFTER CASE                          Ÿ
                                   10740              Ÿ       CPEXLINE - LINE NUMBER CONTAINING CASE                        Ÿ
                                   10741              Ÿ                                                                     Ÿ
                                   10742              Ÿ                                                                     Ÿ
                                                      ¾þþþþþþþþþþþþþþþþþþþþþþþþþþþþþþþþþþþþþþþþþþþþþþþþþþþþþþþþþþþþþþþþþþþþþ»
0000000                00000 00020 10743              CASEWA   RECORD BEGIN
 000000                            10751  1           CASEFLOW   DS    XL(L'FWENTRY)
 000020                00020 00020 10752                       END
                                   10761              *
                                   10762              *
 00089C 50E0 D000/9008_      00000 10763              CASE     XPROC CASEWA
 USING  *,R7
 USING  CASEWA-(4+36),R8
 USING  FWENTRY,R6                 10814                       USING FWENTRY,R6
 0008B6 4160 8028            00000 10823                       LA    R6,CASEFLOW
                                   10824
                                   10825                    COMMENT                      CASE,  INVALID FROM TERMINAL
 0008BA 9180 B758/4710_00758       10826                    IF    ~CPFEXEC,BEGIN
 0008C2 4110 71A2/4100_      00A58 10841  1                   TSEG  'CASE: statement ignored.',,CR
 0008D4 4110 72B5/4100_      00B6B 10859  1                   ERROR 'Flow control statements may be used only in EXEC files.'
 0008E0                            10866                    END
                                   10870
                                   10871                    COMMENT                      CASE, INVALID IN OLD EXEC MODE
 0008E0 9502 B759/4770_00759       10872                    IF    CPFXOLD,BEGIN
 0008E8 4110 71BA/4100_      00A70 10887  1                   TSEG  'CASE: statement invalid.',,CR
 0008FA 4110 7305/4100_      00BBB 10905  1                   ERROR 'Statement may be used only in Extended EXEC mode.'
 000906                            10912                    END
                                   10916                       ¿þþþþþþþþþþþþþþþþþþþþþþþþÜ
                                   10917                       Ÿ                        Ÿ
                                   10918                       Ÿ  PROCESS CASE COMMAND  Ÿ
                                   10919                       Ÿ                        Ÿ
                                   10920                       ¾þþþþþþþþþþþþþþþþþþþþþþþþ»
                                   10921                       COMMENT                   ENTRANCE EXAM
 000906 9501 B759/4780_00759       10922                       IF    ~CPFXTEND,BEGIN
 00090E 0000                       10937  1                      BOMB
 000910                            10939                       END
                                   10943
                                   10944                       COMMENT                   GET CASE FLOW CONTROL INFO
 000910 D71F 6000 6000 00000 00000 10945                       CLEAR FWENTRY
 000916 D203 6000 B75C 00000 0075C 10952                       MVC   FWNLINE,CPEXLINE
 00091C D207 6004 71D2 00004 00A88 10953                       MVC   FWNNAME,=CL8'CASE    '
 000922 4110 6000            00000 10954                       LA    R1,FWENTRY
 000926 58E0 71DE/0DEE       00A94 10955                       ACALL GETFLOW
 00092C 4780 7098            0094E 10959                       IF    NZ,BEGIN
 000930 4110 73F8/4100_      00CAE 10970  1                      TSEG  'Invalid CASE statement.',,CR
 000942 4110 711A/4100_      009D0 10988  1                      ERROR 'Dynamic flow control statements invalid.'
 00094E                            10995                       END
1FLOW     (FLOW2025) (12:45) (15MAR04) FLOW CONTROL COMMANDS                                                                Page   37
0Current Usings:  (FWENTRY,R6) (*,R7) (CASEWA-(4+36),R8) (CP,R11) (CV,R12)
0Loc    Object Code    Addr1 Addr2  Stmt Lv Lineno    Source Statement           (Hibal 5, Asmedit 3.3)  HLASM R4.0  2004/03/15 12.45
+___    ______ ____    _____ _____  ____ __ ______    ______ _________
000094E 950A 6010/4780_00010       10999                       IF    ~FWCASE,BEGIN
 000956 0000                       11014  1                      BOMB
 000958                            11016                       END
                                   11020
                                   11021                       COMMENT                   EVALUATE CONDITIONAL EXPRESSION
 000958 58E0 71E2/0DEE       00A98 11022                       ACALL EVALCOND
                                   11026
                                   11027                       COMMENT                   IF TRUE,,,
 00095E 12FF/4780 70DA             11028                       IF    (R15,NZ),BEGIN
 000964 D203 B760 6014 00760 00014 11042  1                      MVC   CPEXNEXT,FWTRUE     SET NEXT COMMAND
 00096A 58E0 71E6/0DEE       00A9C 11043  1                      ACALL CHKBEGIN
 000970 4780 70D6            0098C 11047  1                      IF    NZ,BEGIN            IF CASE (...) COMMAND
                                   11058  2                        COMMENT                   EXECUTE COMMAND
 000974 9680 B477      00477       11059  2                        SET   CPGFLG4.CPFNPREP    DON'T REPROCESS THIS COMMAND
 000978 58E0 B08C/581E_      0008C 11066  2                        SCINFO ,,                R1,R0 - COMMAND LOC, LEN
 000986 58E0 71EA/0DEE       00AA0 11075  2                        VCALL EDTCOMMV            EXEC CMD PART OF WHILE (..) CMD
 00098C                            11079  1                      END
                                   11083  1                      COMMENT                   IF CASE (...) BEGIN
 00098C 47F0 C7DE            007DE 11084  1                      B     CVNEXT              JUST EXECUTE NEXT COMMAND
 000990                            11085                       END
                                   11089
                                   11090                       COMMENT                   IF FALSE
 000990 70DE/47F0 70E8 00990 00962 11091                       ELSE  BEGIN
 000994 D203 B760 6018 00760 00018 11102  1                      MVC   CPEXNEXT,FWFALSE    SET NEXT COMMAND
 00099A 47F0 C7DE            007DE 11103  1                      B     CVNEXT              AND GO DO IT !
 00099E                            11104                       END
                                   11108
                                   11109                       COMMENT                   WE EXIT ABOVE, VIA CVNEXT
 00099E 0000                       11110                       BOMB
 0009A0 18D8/9808 D004_            11112                       PEND  ,              A HABIT, NEVER EXECUTED
 DROP   CASEWA-(4+36),R8
 DROP   *,R7
 DROP   FWENTRY,R6                 11137                       DROP  R6
1FLOW     (FLOW2025) (12:45) (15MAR04) FLOW CONTROL COMMANDS                                                                Page   38
0Current Usings:  (CP,R11) (CV,R12)
0Loc    Object Code    Addr1 Addr2  Stmt Lv Lineno    Source Statement           (Hibal 5, Asmedit 3.3)  HLASM R4.0  2004/03/15 12.45
+___    ______ ____    _____ _____  ____ __ ______    ______ _________
0                                  11145                       QLTORG
1FLOW     (FLOW2025) (12:45) (15MAR04) FLOW CONTROL COMMANDS                                                                Page   39
0Current Usings:  (CP,R11) (CV,R12)
0Loc    Object Code    Addr1 Addr2  Stmt Lv Lineno    Source Statement           (Hibal 5, Asmedit 3.3)  HLASM R4.0  2004/03/15 12.45
+___    ______ ____    _____ _____  ____ __ ______    ______ _________
0                                  11206              ¿þþþþþþþþþþþþþþþþþþþþþþþþþþþþþþþþþþþþþþþþþþþþþþþþþþþþþþþþþþþþþþþþþþþþþÜ
                                   11207              Ÿ                                                                     Ÿ
                                   11208              Ÿ                                                                     Ÿ
                                   11209              Ÿ  BEGIN --                                                           Ÿ
                                   11210              Ÿ                                                                     Ÿ
                                   11211              Ÿ  NOTE: BEGIN COMMAND IS NEVER EXECUTED, IT IS ALWAYS EXECUTED       Ÿ
                                   11212              Ÿ    AFTER AN IF, WHILE, ELSEIF, ELSE, ETC.  ANY ONE REACHING         Ÿ
                                   11213              Ÿ    HERE HAS AN ERROR.                                               Ÿ
                                   11214              Ÿ                                                                     Ÿ
                                   11215              Ÿ                                                                     Ÿ
                                   11216              Ÿ                                                                     Ÿ
                                                      ¾þþþþþþþþþþþþþþþþþþþþþþþþþþþþþþþþþþþþþþþþþþþþþþþþþþþþþþþþþþþþþþþþþþþþþ»
0000CC6 50E0 D000/9008_      00000 11217              BEGIN    XPROC ,
 USING  *,R7
                                   11257
                                   11258                    COMMENT                      BEGIN, INVLID FROM TERMINAL
 000CE0 9180 B758/4710_00758       11259                    IF    ~CPFEXEC,BEGIN
 000CE8 4110 75E8/4100_      012C8 11274  1                   TSEG  'BEGIN: statement ignored.',,CR
 000CFA 4110 7601/4100_      012E1 11292  1                   ERROR 'Flow control statements may be used only in EXEC files.'
 000D06                            11299                    END
                                   11303
                                   11304                    COMMENT                      BEGIN, INVALID IN OLD EXECS
 000D06 9502 B759/4770_00759       11305                    IF    CPFXOLD,BEGIN
 000D0E 4110 7638/4100_      01318 11320  1                   TSEG  'BEGIN: statement invalid.',,CR
 000D20 4110 7578/4100_      01258 11338  1                   ERROR 'BEGIN-END blocks valid only in Extended EXEC mode.'
 000D2C                            11345                    END
                                   11349
                                   11350                    COMMENT                      BEGIN NEVER DIRECTLY EXECUTED
 000D2C 9501 B759/4780_00759       11351                    IF    ~CPFXTEND,BEGIN
 000D34 0000                       11366  1                   BOMB
 000D36                            11368                    END
 000D36 4110 7638/4100_      01318 11372                    TSEG  'BEGIN: statement invalid.',,CR
 000D48 4110 7504/4100_      011E4 11390                    ERROR 'BEGIN must follow IF, ELSE, WHILE, ..etc. statement.'
                                   11397
 000D54 47F0 C7DE            007DE 11398                       B     CVNEXT
                                   11399
 000D58 18D8/9808 D004_            11400                       PEND  ,                   NEVER EXECUTED, EXIT ABOVE
 DROP   *,R7
1FLOW     (FLOW2025) (12:45) (15MAR04) FLOW CONTROL COMMANDS                                                                Page   40
0Current Usings:  (CP,R11) (CV,R12)
0Loc    Object Code    Addr1 Addr2  Stmt Lv Lineno    Source Statement           (Hibal 5, Asmedit 3.3)  HLASM R4.0  2004/03/15 12.45
+___    ______ ____    _____ _____  ____ __ ______    ______ _________
0                                  11421              ¿þþþþþþþþþþþþþþþþþþþþþþþþþþþþþþþþþþþþþþþþþþþþþþþþþþþþþþþþþþþþþþþþþþþþþÜ
                                   11422              Ÿ                                                                     Ÿ
                                   11423              Ÿ                                                                     Ÿ
                                   11424              Ÿ  END --                                                             Ÿ
                                   11425              Ÿ                                                                     Ÿ
                                   11426              Ÿ  ON ENTRY:                                                          Ÿ
                                   11427              Ÿ       SCANCB - REMAINING STRING AFTER END                           Ÿ
                                   11428              Ÿ       CPEXLINE - LINE NUMBER CONTAINING END                         Ÿ
                                   11429              Ÿ                                                                     Ÿ
                                   11430              Ÿ                                                                     Ÿ
                                                      ¾þþþþþþþþþþþþþþþþþþþþþþþþþþþþþþþþþþþþþþþþþþþþþþþþþþþþþþþþþþþþþþþþþþþþþ»
0000000                00000 00020 11431              ENDWA    RECORD BEGIN
 000000                            11439  1           ENDFLOW    DS    XL(L'FWENTRY)
 000020                00020 00020 11440                       END
                                   11449              *
                                   11450              *
 000D66 50E0 D000/9008_      00000 11451              END      XPROC ENDWA
 USING  *,R7
 USING  ENDWA-(4+36),R8
 USING  FWENTRY,R6                 11502                       USING FWENTRY,R6
 000D80 4160 8028            00000 11511                       LA    R6,ENDFLOW
                                   11512
                                   11513                       COMMENT                   END, INVALID FROM TERMINAL
 000D84 9180 B758/4710_00758       11514                       IF    ~CPFEXEC,BEGIN
                                   11529  1           *$ END AT TERMINAL MAY BE FROM SPIRES XEQ, SO WE TREAT
                                   11530  1           *$ IT AS AN IMPLIED DELETE OR INSERT
                                   11531  1                      COMMENT                   TREAT 'END' FROM TERMINAL AS
                                   11532  1                      COMMENT ,                 IMPLIED DELETE OR INSERT
 000D8C 58E0 7498/0DEE       01218 11533  1                      VCALL IMPLYEND            DOES NOT RETURN
 000D92 47F0 C7DE            007DE 11537  1                      B     CVNEXT
                                   11538  1           *        TSEG  'Flow Control Statements may be used only '
                                   11539  1           *        TSEG  'in EXEC files.  Statement ignored.',,CR
                                   11540  1           *        TSEG  '(Note: Use the PUTLINE statement to add lines to the '
                                   11541  1           *        TSEG  'ACTIVE file.) ',,CR
                                   11542  1           *        B     CVERROR
 000D96                            11543                       END
                                   11547
                                   11548                       COMMENT                   TREAT 'END' IN OLD EXECS AS
                                   11549                       COMMENT ,                 IMPLIED DELETE OR INSERT
 000D96 9502 B759/4770_00759       11550                       IF    CPFXOLD,BEGIN
 000D9E 58E0 7498/0DEE       01218 11565  1                      VCALL IMPLYEND            DOES NOT RETURN
 000DA4 47F0 C7DE            007DE 11569  1                      B     CVNEXT
 000DA8                            11570                       END
                                   11574                       ¿þþþþþþþþþþþþþþþþþþþþþþþþþþþþþþþþþþÜ
                                   11575                       Ÿ  PROCESS 'BEGIN-END BLOCK'  END  Ÿ
                                   11576                       ¾þþþþþþþþþþþþþþþþþþþþþþþþþþþþþþþþþþ»
                                   11577                       COMMENT                   ENTRANCE EXAM
 000DA8 9501 B759/4780_00759       11578                       IF    ~CPFXTEND,BEGIN
 000DB0 0000                       11593  1                      BOMB
 000DB2                            11595                       END
                                   11599
                                   11600                       COMMENT                   CHECK FOR GARBAGE AFTER END
 000DB2 58E0 749C/0DEE       0121C 11601                       VCALL NOOPTS
1FLOW     (FLOW2025) (12:45) (15MAR04) FLOW CONTROL COMMANDS                                                                Page   41
0Current Usings:  (FWENTRY,R6) (*,R7) (ENDWA-(4+36),R8) (CP,R11) (CV,R12)
0Loc    Object Code    Addr1 Addr2  Stmt Lv Lineno    Source Statement           (Hibal 5, Asmedit 3.3)  HLASM R4.0  2004/03/15 12.45
+___    ______ ____    _____ _____  ____ __ ______    ______ _________
0                                  11605
                                   11606                       COMMENT                   GET END FLOW CONTROL INFO
 000DB8 D71F 6000 6000 00000 00000 11607                       CLEAR FWENTRY
 000DBE D203 6000 B75C 00000 0075C 11614                       MVC   FWNLINE,CPEXLINE
 000DC4 D207 6004 73C8 00004 01148 11615                       MVC   FWNNAME,=CL8'END     '
 000DCA 4110 6000            00000 11616                       LA    R1,FWENTRY
 000DCE 58E0 74A0/0DEE       01220 11617                       ACALL GETFLOW
 000DD4 4780 7076            00DF6 11621                       IF    NZ,BEGIN
 000DD8 4110 750A/4100_      0128A 11632  1                      TSEG  'Invalid END.  '
 000DEA 4110 73D0/4100_      01150 11650  1                      ERROR 'Dynamic flow control statements invalid.'
 000DF6                            11657                       END
 000DF6 950E 6010/4780_00010       11661                       IF    ~FWEND,BEGIN
 000DFE 0000                       11676  1                      BOMB
 000E00                            11678                       END
                                   11682
                                   11683                       COMMENT                   IF NOOP, GET NEXT INSTRUCTION
 000E00 9501 6011/4770_00011       11684                       IF    FWNOOP,BEGIN
 000E08 47F0 C7DE            007DE 11699  1                      B     CVNEXT
 000E0C                            11700                       END
                                   11704
                                   11705                       COMMENT                   IF BRANCH, BRANCH
 000E0C 9502 6011/4770_00011       11706                       IF    FWBRANCH,BEGIN
 000E14 D203 B760 6014 00760 00014 11721  1                      MVC   CPEXNEXT,FWBLINE    SET NEW NEXT LINE
 000E1A 47F0 C7DE            007DE 11722  1                      B     CVNEXT
 000E1E                            11723                       END
                                   11727
                                   11728                       COMMENT                   IF XRETURN, XRETURN
 000E1E 9503 6011/4770_00011       11729                       IF    FWXRETN,BEGIN
 000E26 4110 74A8            01228 11744  1                      LA    R1,=CL4'    '
 000E2A 1B00                       11745  1                      CLEAR R0
 000E2C 58E0 B08C/501E_      0008C 11749  1                      SCINIT (R1),(R0)
 000E3A 58E0 74AC/0DEE       0122C 11769  1                      VCALL XRETURN
 000E40 0000                       11773  1                      BOMB  , (XRETURN DOES NOT RETURN)
 000E42                            11775                       END
                                   11779
                                   11780                       COMMENT                   IF RETURN, RETURN
 000E42 9504 6011/4770_00011       11781                       IF    FWPRETN,BEGIN
 000E4A 4110 74A8            01228 11796  1                      LA    R1,=CL4'    '
 000E4E 1B00                       11797  1                      CLEAR R0
 000E50 58E0 B08C/501E_      0008C 11801  1                      SCINIT (R1),(R0)
 000E5E 58E0 74B0/0DEE       01230 11821  1                      VCALL PRETURN
 000E64 0000                       11825  1                      BOMB  , (XRETURN DOES NOT RETURN)
 000E66                            11827                       END
                                   11831
                                   11832                       COMMENT                   IF DO LOOP END,,,
 000E66 9505 6011/4770_00011       11833                       IF    FWDOLOOP,BEGIN
 000E6E 0000                       11848  1                      BOMB                      NOT YET IMPLEMENTED
 000E70                            11850                       END
                                   11854
                                   11855                       COMMENT                   IF NONE OF THE ABOVE
 000E70 0000                       11856                       BOMB
                                   11858
 000E72 18D8/9808 D004_            11859                       PEND  ,              A HABIT, NEVER EXECUTED
 DROP   ENDWA-(4+36),R8
1FLOW     (FLOW2025) (12:45) (15MAR04) FLOW CONTROL COMMANDS                                                                Page   42
0Current Usings:  (FWENTRY,R6) (CP,R11) (CV,R12)
0Loc    Object Code    Addr1 Addr2  Stmt Lv Lineno    Source Statement           (Hibal 5, Asmedit 3.3)  HLASM R4.0  2004/03/15 12.45
+___    ______ ____    _____ _____  ____ __ ______    ______ _________
0DROP   *,R7
 DROP   FWENTRY,R6                 11884                       DROP  R6
1FLOW     (FLOW2025) (12:45) (15MAR04) FLOW CONTROL COMMANDS                                                                Page   43
0Current Usings:  (CP,R11) (CV,R12)
0Loc    Object Code    Addr1 Addr2  Stmt Lv Lineno    Source Statement           (Hibal 5, Asmedit 3.3)  HLASM R4.0  2004/03/15 12.45
+___    ______ ____    _____ _____  ____ __ ______    ______ _________
0                                  11892              ¿þþþþþþþþþþþþþþþþþþþþþþþþþþþþþþþþþþþþþþþþþþþþþþþþþþþþþþþþþþþþþþþþþþþþþÜ
                                   11893              Ÿ                                                                     Ÿ
                                   11894              Ÿ                                                                     Ÿ
                                   11895              Ÿ  LABEL: --                                                          Ÿ
                                   11896              Ÿ                                                                     Ÿ
                                   11897              Ÿ  ON ENTRY:                                                          Ÿ
                                   11898              Ÿ       SCANCB - POINTS TO ENTIRE COMMAND                             Ÿ
                                   11899              Ÿ                                                                     Ÿ
                                   11900              Ÿ  NOTE:                                                              Ÿ
                                   11901              Ÿ       THIS ROUTINE IS CALLED FROM XCMDSCAN                          Ÿ
                                   11902              Ÿ                                                                     Ÿ
                                   11903              Ÿ                                                                     Ÿ
                                                      ¾þþþþþþþþþþþþþþþþþþþþþþþþþþþþþþþþþþþþþþþþþþþþþþþþþþþþþþþþþþþþþþþþþþþþþ»
0000E80 50E0 D000/9008_      00000 11904              LABEL    XPROC ,
 USING  *,R7
                                   11944
                                   11945                       COMMENT                   CHECK FOR EXEC FILE
 000E9A 9180 B758/4710_00758       11946                       IF    ~CPFEXEC,BEGIN
 000EA2 4110 72DE/4100_      01178 11961  1                      TSEG  'Labels may be used only in EXEC files.  '
 000EB4 4110 7306/4100_      011A0 11979  1                      ERROR 'Command ignored.'
 000EC0                            11986                       END
                                   11990
                                   11991                       COMMENT                   CHECK FOR VALID LABEL
 000EC0 58E0 B08C/581E_      0008C 11992                       SCINFO ,
 000ECE 58E0 739A/0DEE       01234 12001                       ACALL SCNLABEL
 000ED4 47B0 7054            00EEE 12005                       IF    M,BEGIN
 000ED8 41F0 B050/58E0_      00050 12016  1                      TSEG  (R1),(R0)
 000EE2 4110 7497/4100_      01331 12040  1                      ERROR ': invalid label name.'
 000EEE                            12047                       END
 000EEE 47D0 70C2            00F5C 12051                       IF    POS,BEGIN
 000EF2 5810 B08C/1B00_      0008C 12062  1                      SCAN  ,
 000F40 58E0 73A2/0DEE       0123C 12093  1                      SCANCHK
 000F46 41F0 B050/58E0_      00050 12098  1                      TSEG  (R1),(R0)
 000F50 4110 7497/4100_      01331 12122  1                      ERROR ': invalid label name.'
 000F5C                            12129                       END
                                   12133              *
                                   12134              *$ WE DO NOT ALLOW STATEMENTS ON SAME LINE AS LABEL
                                   12135              *$ FOR NOW !!
                                   12136              *
                                   12137                       COMMENT                   CHECK FOR VALID LABEL STATEMENT
 000F5C 58E0 73A6/0DEE       01240 12138                       ACALL CHKLABEL            WE ALLOW LABEL OR NOTHING.
 000F62 4770 C7D6            007D6 12142                       BNZ   CVERROR
 000F66 47F0 C7DE            007DE 12143                       B     CVNEXT              ----->>>> WE EXIT HERE !!!
                                   12144              *
                                   12145              *$ WE DO NOT ALLOW STATEMENTS ON SAME LINE AS LABEL
                                   12146              *$ FOR NOW !!
                                   12147                       COMMENT                   SET UP COMMAND WITHOUT LABEL
 000F6A 4000 B240            00240 12148                       STH   R0,CPCMDLEN         IN CP COMMAND AREA
 000F6E 1830                       12149                       LR    R3,R0
 000F70 0630/1233/4740_            12150                       MOVE  R3,CPCMD,@R1
 000F7C 4110 B242            00242 12188                       LA    R1,CPCMD
 000F80 9680 B477      00477       12189                       SET   CPGFLG4.CPFNPREP    DON'T REPREPROCESS
 000F84 58E0 73AA/0DEE       01244 12196                       VCALL EDTCOM              GO EXECUTE COMMAND
1FLOW     (FLOW2025) (12:45) (15MAR04) FLOW CONTROL COMMANDS                                                                Page   44
0Current Usings:  (*,R7) (CP,R11) (CV,R12)
0Loc    Object Code    Addr1 Addr2  Stmt Lv Lineno    Source Statement           (Hibal 5, Asmedit 3.3)  HLASM R4.0  2004/03/15 12.45
+___    ______ ____    _____ _____  ____ __ ______    ______ _________
0000F8A 47F0 C7DE            007DE 12200                       B     CVNEXT
                                   12201
 000F8E 18D8/9808 D004_            12202                       PEND  ,                   NEVER EXECUTED, WE EXIT ABOVE
 DROP   *,R7
1FLOW     (FLOW2025) (12:45) (15MAR04) FLOW CONTROL COMMANDS                                                                Page   45
0Current Usings:  (CP,R11) (CV,R12)
0Loc    Object Code    Addr1 Addr2  Stmt Lv Lineno    Source Statement           (Hibal 5, Asmedit 3.3)  HLASM R4.0  2004/03/15 12.45
+___    ______ ____    _____ _____  ____ __ ______    ______ _________
0                                  12223              ¿þþþþþþþþþþþþþþþþþþþþþþþþþþþþþþþþþþþþþþþþþþþþþþþþþþþþþþþþþþþþþþþþþþþþþÜ
                                   12224              Ÿ                                                                     Ÿ
                                   12225              Ÿ                                                                     Ÿ
                                   12226              Ÿ  GOTO --                                                            Ÿ
                                   12227              Ÿ                                                                     Ÿ
                                   12228              Ÿ  ON ENTRY:                                                          Ÿ
                                   12229              Ÿ       SCANCB - REMAINING STRING AFTER GOTO                          Ÿ
                                   12230              Ÿ       CPEXLINE - LINE NUMBER CONTAINING GOTO                        Ÿ
                                   12231              Ÿ                                                                     Ÿ
                                   12232              Ÿ                                                                     Ÿ
                                                      ¾þþþþþþþþþþþþþþþþþþþþþþþþþþþþþþþþþþþþþþþþþþþþþþþþþþþþþþþþþþþþþþþþþþþþþ»
0000000                00000 00020 12233              GOTOWA   RECORD BEGIN
 000000                            12241  1           GOTOFLOW   DS    XL(L'FWENTRY)
 000020                00020 00020 12242                       END
                                   12251              *
                                   12252              *
 000F9C 50E0 D000/9008_      00000 12253              GOTO     XPROC GOTOWA
 USING  *,R7
 USING  GOTOWA-(4+36),R8
 USING  FWENTRY,R6                 12304                       USING FWENTRY,R6
 000FB6 4160 8028            00000 12313                       LA    R6,GOTOFLOW
                                   12314
                                   12315                    COMMENT                      GOTO, INVALID FROM TERMINAL
 000FBA 9180 B758/4710_00758       12316                    IF    ~CPFEXEC,BEGIN
 000FC2 4110 71FA/4100_      011B0 12331  1                   TSEG  'GOTO: statement ignored.',,CR
 000FD4 4110 732B/4100_      012E1 12349  1                   ERROR 'Flow control statements may be used only in EXEC files.'
 000FE0                            12356                    END
                                   12360
                                   12361                    COMMENT                      GOTO, INVALID IN OLD EXEC MODE
 000FE0 9502 B759/4770_00759       12362                    IF    CPFXOLD,BEGIN
 000FE8 4110 7212/4100_      011C8 12377  1                   TSEG  'GOTO: statement invalid.',,CR
 000FFA 4110 7390/4100_      01346 12395  1                   ERROR 'Statement may be used only in Extended EXEC mode.'
 001006                            12402                    END
                                   12406                       ¿þþþþþþþþþþþþþþþþþþþþþþþþÜ
                                   12407                       Ÿ                        Ÿ
                                   12408                       Ÿ  PROCESS GOTO COMMAND  Ÿ
                                   12409                       Ÿ                        Ÿ
                                   12410                       ¾þþþþþþþþþþþþþþþþþþþþþþþþ»
                                   12411                       COMMENT                   ENTRANCE EXAM
 001006 9501 B759/4780_00759       12412                       IF    ~CPFXTEND,BEGIN
 00100E 0000                       12427  1                      BOMB
 001010                            12429                       END
                                   12433
                                   12434                       COMMENT                   GET LINE NUMBER OF LABEL
 001010 58E0 7292/0DEE       01248 12435                       ACALL LABELLNO
 001016 1820                       12439                       LR    R2,R0               R2 - LABEL LINE NUMBER
 001018 58E0 7266/0DEE       0121C 12440                       VCALL NOOPTS              CHECK FOR JUNK AFTER LABEL
                                   12444
 00101E 5020 B760            00760 12445                       ST    R2,CPEXNEXT         SET NEXT LINE NUMBER
 001022 47F0 C7DE            007DE 12446                       B     CVNEXT              EXECUTE NEW NEXT LINE NUMBER
 001026 18D8/9808 D004_            12447                       PEND
 DROP   GOTOWA-(4+36),R8
 DROP   *,R7
1FLOW     (FLOW2025) (12:45) (15MAR04) FLOW CONTROL COMMANDS                                                                Page   46
0Current Usings:  (FWENTRY,R6) (CP,R11) (CV,R12)
0Loc    Object Code    Addr1 Addr2  Stmt Lv Lineno    Source Statement           (Hibal 5, Asmedit 3.3)  HLASM R4.0  2004/03/15 12.45
+___    ______ ____    _____ _____  ____ __ ______    ______ _________
0                                  12473              ¿þþþþþþþþþþþþþþþþþþþþþþþþþþþþþþþþþþþþþþþþþþþþþþþþþþþþþþþþþþþþþþþþþþþþþÜ
                                   12474              Ÿ                                                                     Ÿ
                                   12475              Ÿ                                                                     Ÿ
                                   12476              Ÿ  XEXIT --                                                           Ÿ
                                   12477              Ÿ                                                                     Ÿ
                                   12478              Ÿ  ON ENTRY:                                                          Ÿ
                                   12479              Ÿ       SCANCB - REMAINING STRING AFTER XEXIT                         Ÿ
                                   12480              Ÿ       CPEXLINE - LINE NUMBER CONTAINING XEXIT                       Ÿ
                                   12481              Ÿ                                                                     Ÿ
                                   12482              Ÿ                                                                     Ÿ
                                                      ¾þþþþþþþþþþþþþþþþþþþþþþþþþþþþþþþþþþþþþþþþþþþþþþþþþþþþþþþþþþþþþþþþþþþþþ»
0000000                00000 00020 12483              XITWA    RECORD BEGIN
 000000                            12491  1           XITFLOW    DS    XL(L'FWENTRY)
 000020                00020 00020 12492                       END
                                   12501              *
                                   12502              *
 001034 50E0 D000/9008_      00000 12503              XEXIT    XPROC XITWA
 USING  *,R7
 USING  XITWA-(4+36),R8
                                   12554                       USING FWENTRY,R6
 00104E 4160 8028            00000 12556                       LA    R6,XITFLOW
                                   12557
                                   12558                    COMMENT                      XEXIT, INVALID FROM TERMINAL
 001052 9180 B758/4710_00758       12559                    IF    ~CPFEXEC,BEGIN
 00105A 4110 7329/4100_      01377 12574  1                   TSEG  'XEXIT: statement ignored.',,CR
 00106C 4110 7293/4100_      012E1 12592  1                   ERROR 'Flow control statements may be used only in EXEC files.'
 001078                            12599                    END
                                   12603
                                   12604                    COMMENT                      XEXIT, INVALID IN OLD EXEC MODE
 001078 9502 B759/4770_00759       12605                    IF    CPFXOLD,BEGIN
 001080 4110 7342/4100_      01390 12620  1                   TSEG  'XEXIT: statement invalid.',,CR
 001092 4110 72F8/4100_      01346 12638  1                   ERROR 'Statement may be used only in Extended EXEC mode.'
 00109E                            12645                    END
                                   12649                       ¿þþþþþþþþþþþþþþþþþþþþþþþþþÜ
                                   12650                       Ÿ                         Ÿ
                                   12651                       Ÿ  PROCESS XEXIT COMMAND  Ÿ
                                   12652                       Ÿ                         Ÿ
                                   12653                       ¾þþþþþþþþþþþþþþþþþþþþþþþþþ»
                                   12654                       COMMENT                   ENTRANCE EXAM
 00109E 9501 B759/4780_00759       12655                       IF    ~CPFXTEND,BEGIN
 0010A6 0000                       12670  1                      BOMB
 0010A8                            12672                       END
                                   12676
                                   12677                       COMMENT                   GET LINE NUMBER OF LABEL
 0010A8 58E0 71FE/0DEE       0124C 12678                       ACALL XLBLLNO
 0010AE 1820                       12682                       LR    R2,R0               R2 - LABEL LINE NUMBER
 0010B0 58E0 71CE/0DEE       0121C 12683                       VCALL NOOPTS              CHECK FOR JUNK AFTER LABEL
                                   12687
                                   12688                       COMMENT                   RESET XPROC ENVIRONMENT AND
                                   12689                       COMMENT                   GOTO NEW LINE NUMBER
 0010B6 1802                       12690                       LR    R0,R2               R0 - NEW LINE NUMBER
 0010B8 58E0 7202/0DEE       01250 12691                       VCALL XXXEXIT             ROUTINE DOES NOT RETURN
                                   12695
1FLOW     (FLOW2025) (12:45) (15MAR04) FLOW CONTROL COMMANDS                                                                Page   47
0Current Usings:  (FWENTRY,R6) (*,R7) (XITWA-(4+36),R8) (CP,R11) (CV,R12)
0Loc    Object Code    Addr1 Addr2  Stmt Lv Lineno    Source Statement           (Hibal 5, Asmedit 3.3)  HLASM R4.0  2004/03/15 12.45
+___    ______ ____    _____ _____  ____ __ ______    ______ _________
00010BE 0000                       12696                       BOMB  ,                   NEVER EXECUTED, WE EXIT ABOVE
 0010C0 47F0 C7DE            007DE 12698                       B     CVNEXT
                                   12699
 0010C4 18D8/9808 D004_            12700                       PEND  ,                   NEVER EXECUTED, WE EXIT ABOVE
 DROP   XITWA-(4+36),R8
 DROP   *,R7
1FLOW     (FLOW2025) (12:45) (15MAR04) FLOW CONTROL COMMANDS                                                                Page   48
0Current Usings:  (FWENTRY,R6) (CP,R11) (CV,R12)
0Loc    Object Code    Addr1 Addr2  Stmt Lv Lineno    Source Statement           (Hibal 5, Asmedit 3.3)  HLASM R4.0  2004/03/15 12.45
+___    ______ ____    _____ _____  ____ __ ______    ______ _________
0                                  12726              ¿þþþþþþþþþþþþþþþþþþþþþþþþþþþþþþþþþþþþþþþþþþþþþþþþþþþþþþþþþþþþþþþþþþþþþÜ
                                   12727              Ÿ                                                                     Ÿ
                                   12728              Ÿ                                                                     Ÿ
                                   12729              Ÿ  THEN --                                                            Ÿ
                                   12730              Ÿ                                                                     Ÿ
                                   12731              Ÿ                                                                     Ÿ
                                   12732              Ÿ                                                                     Ÿ
                                                      ¾þþþþþþþþþþþþþþþþþþþþþþþþþþþþþþþþþþþþþþþþþþþþþþþþþþþþþþþþþþþþþþþþþþþþþ»
00010D2 50E0 D000/9008_      00000 12733              THEN     XPROC ,
 USING  *,R7
                                   12773
                                   12774                       COMMENT                   IF OLD MODE OR FROM TERMINAL,
 0010EC 9180 B758/47E0_00758       12775                       IF    (~CPFEXEC,OR,CPFXOLD),BEGIN
 0010FC 9120 B477/47E0_00477       12804  1                      IF    CPGFLG4.CPF4TRUE,BEGIN    IF LAST IF WAS TRUE,,,
 001104 9680 B477      00477       12820  2                        SET   CPGFLG4.CPFNPREP            DON'T PREPROCESS
 001108 58E0 B08C/581E_      0008C 12827  2                        SCINFO
 001116 58E0 7168/0DEE       01254 12836  2                        VCALL EDTCOMMV                    AND EXECUTE COMMAND
 00111C                            12840  1                      END
 00111C 47F0 C7DE            007DE 12844  1                      B     CVNEXT
 001120                            12845                       END
                                   12849
                                   12850                       COMMENT                   IF EXTENDED MODE,
 001120 9501 B759/4780_00759       12851                       IF    ~CPFXTEND,BEGIN
 001128 0000                       12866  1                      BOMB
 00112A                            12868                       END
 00112A 4110 71AE/4100_      0129A 12872                       ERROR 'THEN statement invalid in Extended EXEC files.'
                                   12879
                                   12880                       COMMENT                   WE EXIT ABOVE
 001136 0000                       12881                       BOMB
 001138 18D8/9808 D004_            12883                       PEND  ,              A HABIT, NEVER EXECUTED
 DROP   *,R7
1FLOW     (FLOW2025) (12:45) (15MAR04) FLOW CONTROL COMMANDS                                                                Page   49
0Current Usings:  (FWENTRY,R6) (CP,R11) (CV,R12)
0Loc    Object Code    Addr1 Addr2  Stmt Lv Lineno    Source Statement           (Hibal 5, Asmedit 3.3)  HLASM R4.0  2004/03/15 12.45
+___    ______ ____    _____ _____  ____ __ ______    ______ _________
0                                  12904                       QLTORG
1FLOW     (FLOW2025) (12:45) (15MAR04) FLOW CONTROL COMMANDS - Common Routines                                              Page   50
0Current Usings:  (FWENTRY,R6) (CP,R11) (CV,R12)
0Loc    Object Code    Addr1 Addr2  Stmt Lv Lineno    Source Statement           (Hibal 5, Asmedit 3.3)  HLASM R4.0  2004/03/15 12.45
+___    ______ ____    _____ _____  ____ __ ______    ______ _________
0                                  12952              ¿þþþþþþþþþþþþþþþþþþþþþþþþþþþþþþþþþþþþþþþþþþþþþþþþþþþþþþþþþþþþþþþþþþþþþÜ
                                   12953              Ÿ                                                                     Ÿ
                                   12954              Ÿ                                                                     Ÿ
                                   12955              Ÿ  EVALCOND - EVALUATE CONDITIONAL EXPRESSION                         Ÿ
                                   12956              Ÿ                                                                     Ÿ
                                   12957              Ÿ  USED TO EVALUATE:                                                  Ÿ
                                   12958              Ÿ     IF ( ..CONDITIONAL EXPRESSION.. )  ... COMMAND ..               Ÿ
                                   12959              Ÿ     WHILE ( ..CONDITIONAL EXPRESSION.. )  ... COMMAND ..            Ÿ
                                   12960              Ÿ     ETC..                                                           Ÿ
                                   12961              Ÿ                                                                     Ÿ
                                   12962              Ÿ  ON ENTRY:                                                          Ÿ
                                   12963              Ÿ       SCANCB - SCAN CONTROL BLOCK, POINTS AT OR BEFORE '('          Ÿ
                                   12964              Ÿ                                                                     Ÿ
                                   12965              Ÿ  ON EXIT:                                                           Ÿ
                                   12966              Ÿ       SCANCB - UPDATED, POINTS PAST ')'                             Ÿ
                                   12967              Ÿ       R15 - CC=ZERO, FALSE  (R15=0)                                 Ÿ
                                   12968              Ÿ             CC=NZ, TRUE     (R15=1)                                 Ÿ
                                   12969              Ÿ             ANY ERRORS IN EXPRESSION SYNTAX EXIT VIA CVERROR.       Ÿ
                                   12970              Ÿ                                                                     Ÿ
                                   12971              Ÿ                                                                     Ÿ
                                                      ¾þþþþþþþþþþþþþþþþþþþþþþþþþþþþþþþþþþþþþþþþþþþþþþþþþþþþþþþþþþþþþþþþþþþþþ»
0000000                00000 00150 12972              ECWA     RECORD BEGIN
 000000                            12980  1           ECVAL      DS    XL(L'VPARM)
 000150                00150 00150 12981                       END
                                   12990              *
                                   12991              *
 0013B0 50E0 D000/9008_      00000 12992              EVALCOND PROC  ECWA
 USING  *,R7
 USING  ECWA-(4+36),R8
 DROP   FWENTRY,R6                 13042                       USING XSENTRY,R6
 USING  XSENTRY,R6
 0013CA 4160 8028            00000 13054                       LA    R6,ECVAL
                                   13055
                                   13056                       COMMENT                   SCAN CONDITIONAL EXPRESSION
 0013CE 5810 B08C/1B00_      0008C 13057                       SCAN ,
 00141C 58E0 7AD2/0DEE       01E9C 13088                       SCANCHK
 001422 954D 1000/4780_00000       13093                       IF    (@R1,NE,'('),BEGIN
 00142A 58E0 7AD6/0DEE       01EA0 13109  1                      VCALL NOTVALID
 001430                            13113                       END
 001430 1200/47D0 C7F0             13117                       IF    (R0,NP),CVABSENT
                                   13134
                                   13135                       COMMENT                   EVALUATE CONDITIONAL EXPRESSION
 001436 5E10 7ADA            01EA4 13136                       INCR  R1
 00143A 0600                       13139                       DECR  R0                  SKIP "("
 00143C 4120 6000            00000 13141                       LA    R2,XSENTRY
 001440 58E0 7ADE/0DEE       01EA8 13142                       VCALL EVALEXPR            EVALUATE EXPRESSION
 001446 4720 C7D6            007D6 13146                       BP    CVERROR
 00144A 4740 C7F0            007F0 13147                       BM    CVABSENT
                                   13148
                                   13149                       COMMENT                   CHECK FOR ERRORS
 00144E 1200/47D0 7092_            13150                       IF    ((R0,NP),OR,(@R1,NE,')')),BEGIN
 00145C 58E0 7AE2/0DEE       01EAC 13179  1                      ACALL NOPAREN ERROR
 001462                            13183                       END
1FLOW     (FLOW2025) (12:45) (15MAR04) FLOW CONTROL COMMANDS - Common Routines                                              Page   51
0Current Usings:  (XSENTRY,R6) (*,R7) (ECWA-(4+36),R8) (CP,R11) (CV,R12)
0Loc    Object Code    Addr1 Addr2  Stmt Lv Lineno    Source Statement           (Hibal 5, Asmedit 3.3)  HLASM R4.0  2004/03/15 12.45
+___    ______ ____    _____ _____  ____ __ ______    ______ _________
0001462 9503 6020/4780_00020       13187                       IF    ~XSBOOL,BEGIN
 00146A 58E0 7AE6/0DEE       01EB0 13202  1                      ACALL NOTBOOL ERROR
 001470                            13206                       END
                                   13210
                                   13211                       COMMENT                   GET BOOLEAN VALUE
 001470 58F0 7AEA            01EB4 13212                       L     R15,=F'-1'
 001474 4140 C5D0            005D0 13213                       LA    R4,CVPKONE
 001478 F9BB 6024 4000 00024 00000 13214                       CP    XSVALUE(NL),0(NL,R4)
 00147E 4770 70BC            01486 13215                       IF    EQ,BEGIN            IF TRUE
 001482 41F0 0001            00001 13226  1                      LA    R15,1
 001486                            13227                       END
 001486 4140 C5C4            005C4 13231                       LA    R4,CVPKZERO
 00148A F9BB 6024 4000 00024 00000 13232                       CP    XSVALUE(NL),0(NL,R4)
 001490 4770 70CC            01496 13233                       IF    EQ,BEGIN            IF FALSE
 001494 1BFF                       13244  1                      CLEAR R15
 001496                            13248                       END
 001496 12FF/47B0 70D4             13252                       IF    (R15,NEG),BEGIN
 00149C 0000                       13266  1                      BOMB IF NEITHER
 00149E                            13268                       END
                                   13272
 00149E 18D8/9808 D004_            13273                       PEND  ,
 DROP   ECWA-(4+36),R8
 DROP   *,R7
 DROP   XSENTRY,R6                 13298                       DROP  R6
1FLOW     (FLOW2025) (12:45) (15MAR04) FLOW CONTROL COMMANDS - Common Routines                                              Page   52
0Current Usings:  (CP,R11) (CV,R12)
0Loc    Object Code    Addr1 Addr2  Stmt Lv Lineno    Source Statement           (Hibal 5, Asmedit 3.3)  HLASM R4.0  2004/03/15 12.45
+___    ______ ____    _____ _____  ____ __ ______    ______ _________
0                                  13306              ¿þþþþþþþþþþþþþþþþþþþþþþþþþþþþþþþþþþþþþþþþþþþþþþþþþþþþþþþþþþþþþþþþþþþþþÜ
                                   13307              Ÿ                                                                     Ÿ
                                   13308              Ÿ                                                                     Ÿ
                                   13309              Ÿ  CHKBEGIN - CHECK FOR BEGIN                                         Ÿ
                                   13310              Ÿ                                                                     Ÿ
                                   13311              Ÿ  THIS ROUTINE SCANS FOR A "BEGIN".  IT ALSO CHECKS FOR              Ÿ
                                   13312              Ÿ  COMPOUND CONTROL STATEMENTS, FOR EXAMPLE,  'IF (...) IF            Ÿ
                                   13313              Ÿ  (...), BEGIN '.  COMPOUND CONTROL STATEMENTE ARE                   Ÿ
                                   13314              Ÿ  INVALID AND DETECTED AS ERRORS.                                    Ÿ
                                   13315              Ÿ                                                                     Ÿ
                                   13316              Ÿ  ON ENTRY:                                                          Ÿ
                                   13317              Ÿ       SCANCB - JUST PAST CONDITIONAL EXPRESSION                     Ÿ
                                   13318              Ÿ                EG. FOR," IF (EXPR)  CMD", SCANCB POINTS TO CMD      Ÿ
                                   13319              Ÿ                                                                     Ÿ
                                   13320              Ÿ  ON EXIT:                                                           Ÿ
                                   13321              Ÿ       SCANCB - UNCHANGED                                            Ÿ
                                   13322              Ÿ       R15 - CC=Z, BEGIN FOUND                                       Ÿ
                                   13323              Ÿ             CC=NZ, BEGIN NOT FOUND                                  Ÿ
                                   13324              Ÿ             INVALID COMMANDS (IE. COMPOUND CONTROL STATEMENTS)      Ÿ
                                   13325              Ÿ             EXIT VIA CVERROR.                                       Ÿ
                                   13326              Ÿ                                                                     Ÿ
                                   13327              Ÿ                                                                     Ÿ
                                                      ¾þþþþþþþþþþþþþþþþþþþþþþþþþþþþþþþþþþþþþþþþþþþþþþþþþþþþþþþþþþþþþþþþþþþþþ»
00014AC 50E0 D000/9008_      00000 13328              CHKBEGIN PROC  ,
 USING  *,R7
                                   13367
                                   13368                       COMMENT                   SCAN FOR BEGIN
 0014C6 58E0 B08C/D2AF_      0008C 13369                       SCPUSH ,
 0014D4 5810 B08C/1B00_      0008C 13375                       SCAN CHECKPRT
 001526 58E0 79D6/0DEE       01E9C 13407                       SCANCHK
 00152C 59F0 79F6/4770_      01EBC 13412                       IF    (R15,EQ,4),' CLEAR R15 '    BEGIN FOUND
 001536 59F0 79FA/4770_      01EC0 13438                       IF    (R15,EQ,8),' LA R15,4  '    BEGIN NOT FOUND
 001542 58E0 B08C/4BD0_      0008C 13461                       SCPOP ,
 001550 18D8/9808 D004_            13467                       PEND  ,
 DROP   *,R7
-
-                                  13488                       ¿þþþþþþþþþþþþþþþþþþþþÜ
                                   13489                       Ÿ  COMMAND KEYWORDS  Ÿ
                                   13490                       ¾þþþþþþþþþþþþþþþþþþþþ»
 001560 4040404040404040_          13491              CHECKPRT SCKW  ,NOTBEGIN,NULL
 001588 C2C5C7C9D5404040_          13506                       SCKW  BEGIN,CMDBEGIN
 0015B0 C9C6404040404040_          13521                       SCKW  IF,BADCMD
 0015D8 C5D3E2C540404040_          13536                       SCKW  ELSE,BADCMD
 001600 E3C8C5D540404040_          13551                       SCKW  THEN,BADCMD
 001628 C5D3E2C5C9C64040_          13566                       SCKW  ELSEIF,BADCMD
 001650 C4D6404040404040_          13581                       SCKW  DO,BADCMD
 001678 E6C8C9D3C5404040_          13596                       SCKW  WHILE,BADCMD
 0016A0 D7D9D6C340404040_          13611                       SCKW  PROC,BADCMD
 0016C8 E7D7D9D6C3404040_          13626                       SCKW  XPROC,BADCMD
1FLOW     (FLOW2025) (12:45) (15MAR04) FLOW CONTROL COMMANDS - Common Routines                                              Page   53
0Current Usings:  (CP,R11) (CV,R12)
0Loc    Object Code    Addr1 Addr2  Stmt Lv Lineno    Source Statement           (Hibal 5, Asmedit 3.3)  HLASM R4.0  2004/03/15 12.45
+___    ______ ____    _____ _____  ____ __ ______    ______ _________
00016F0 C3C1E2C5E2404040_          13641                       SCKW  CASES,BADCMD
 001718 C3C1E2C540404040_          13656                       SCKW  CASE,BADCMD
 001740 D9C5D7C5C1E34040_          13671                       SCKW  REPEAT,BADCMD
 001768 E4D5E3C9D3404040_          13686                       SCKW  UNTIL,BADCMD
 001790 C5D5C44040404040_          13701                       SCKW  END,BADCMD
 0017B8 4040404040404040_          13716                       SCKW  ,NOTBEGIN
-
-                                  13732                       ¿þþþþþþþþþþþþþþþÜ
                                   13733                       Ÿ  begin found  Ÿ
                                   13734                       ¾þþþþþþþþþþþþþþþ»
 0017E0 50E0 D000/9008_      00000 13735              CMDBEGIN PROC  ,                   GOT BEGIN
 USING  *,R7
 0017FA 58E0 76CA/0DEE       01EC4 13774                       VCALL NOOPTS              CHECK FOR GARBAGE BEYOND 'BEGIN'
 001800 41F0 0004            00004 13778                       LA    R15,4               FOUND VALID 'BEGIN'
 001804 18D8/9808 D004_            13779                       PEND  ,
 DROP   *,R7
-
-                                  13800                       ¿þþþþþþþþþþþþþþþþþþþþþþþþþþþþþþþþþþÜ
                                   13801                       Ÿ  got regular command, not begin  Ÿ
                                   13802                       ¾þþþþþþþþþþþþþþþþþþþþþþþþþþþþþþþþþþ»
 001812 50E0 D000/9008_      00000 13803              NOTBEGIN PROC  ,
 USING  *,R7
 00182C 41F0 0008            00008 13842                       LA    R15,8
 001830 18D8/9808 D004_            13843                       PEND  ,
 DROP   *,R7
-
-                                  13864                       ¿þþþþþþþþþþþþþþþþþþþþþþþþþÜ
                                   13865                       Ÿ  invalid keyword found  Ÿ
                                   13866                       ¾þþþþþþþþþþþþþþþþþþþþþþþþþ»
 00183E 50E0 D000/9008_      00000 13867              BADCMD   PROC  ,
 USING  *,R7
 001858 58E0 B08C/58FE_      0008C 13906                       SCBKUP ,                  BACKUP SCAN
 00188E 58E0 7670/0DEE       01EC8 13962                       ACALL CHKOPTS
 001894 D603 B05C B05C_0005C 0005C 13966                       TCCR
 0018B4 4110 7618/4100_      01E70 14028                       ERROR 'Compound control statements not allowed.'
 0018C0 18D8/9808 D004_            14035                       PEND  ,
 DROP   *,R7
1FLOW     (FLOW2025) (12:45) (15MAR04) FLOW CONTROL COMMANDS - Common Routines                                              Page   54
0Current Usings:  (CP,R11) (CV,R12)
0Loc    Object Code    Addr1 Addr2  Stmt Lv Lineno    Source Statement           (Hibal 5, Asmedit 3.3)  HLASM R4.0  2004/03/15 12.45
+___    ______ ____    _____ _____  ____ __ ______    ______ _________
0                                  14056              ¿þþþþþþþþþþþþþþþþþþþþþþþþþþþþþþþþþþþþþþþþþþþþþþþþþþþþþþþþþþþþþþþþþþþþþÜ
                                   14057              Ÿ                                                                     Ÿ
                                   14058              Ÿ  CHKOPTS - CHECK FOR OPTIONS,  THEY ARE INVALID                     Ÿ
                                   14059              Ÿ                                                                     Ÿ
                                   14060              Ÿ  IF INVALID OPTIONS, TSEG ERROR MESSAGE AND RETURN                  Ÿ
                                   14061              Ÿ                                                                     Ÿ
                                   14062              Ÿ  ON ENTRY:                                                          Ÿ
                                   14063              Ÿ        SCANCB - SCAN CONTROL BLOCK                                  Ÿ
                                   14064              Ÿ  ON EXIT:                                                           Ÿ
                                   14065              Ÿ        R15 - ZERO IF NONE,                                          Ÿ
                                   14066              Ÿ        R15 - NZ, IF INVALID OPTIONS                                 Ÿ
                                   14067              Ÿ                                                                     Ÿ
                                   14068              Ÿ                                                                     Ÿ
                                                      ¾þþþþþþþþþþþþþþþþþþþþþþþþþþþþþþþþþþþþþþþþþþþþþþþþþþþþþþþþþþþþþþþþþþþþþ»
00018CE 50E0 D000/9008_      00000 14069              CHKOPTS  PROC  ,
 USING  *,R7
 0018E8 5810 B08C/1B00_      0008C 14108                       SCAN  ,
 001936 58E0 75B4/0DEE       01E9C 14139                       SCANCHK
 00193C 1200/4780 707A             14144                       IF    (R0,NZ),BEGIN
 001942 41F0 B050/58E0_      00050 14158  1                      TSEG  (R1),(R0)
 00194C 4110 7624/4100_      01F0C 14182  1                      TSEG  ': invalid.',,CR
 00195E 41F0 0004            00004 14200  1                      LA    R15,4
 001962                            14201                       END
 001962 18D8/9808 D004_            14205                       PEND  ,
 DROP   *,R7
1FLOW     (FLOW2025) (12:45) (15MAR04) FLOW CONTROL COMMANDS - Common Routines                                              Page   55
0Current Usings:  (CP,R11) (CV,R12)
0Loc    Object Code    Addr1 Addr2  Stmt Lv Lineno    Source Statement           (Hibal 5, Asmedit 3.3)  HLASM R4.0  2004/03/15 12.45
+___    ______ ____    _____ _____  ____ __ ______    ______ _________
0                                  14226              ¿þþþþþþþþþþþþþþþþþþþþþþþþþþþþþþþþþþþþþþþþþþþþþþþþþþþþþþþþþþþþþþþþþþþþþÜ
                                   14227              Ÿ                                                                     Ÿ
                                   14228              Ÿ                                                                     Ÿ
                                   14229              Ÿ  LABELLNO - GET LINE NUMBER OF LABEL                                Ÿ
                                   14230              Ÿ                                                                     Ÿ
                                   14231              Ÿ  ON ENTRY:                                                          Ÿ
                                   14232              Ÿ       SCANCB - SET UP TO POINT AT LABEL                             Ÿ
                                   14233              Ÿ                                                                     Ÿ
                                   14234              Ÿ  ON EXIT:                                                           Ÿ
                                   14235              Ÿ       SCANCB - UPDATED                                              Ÿ
                                   14236              Ÿ       R0 - LINE NUMBER OF LABEL                                     Ÿ
                                   14237              Ÿ       ANY ERRORS EXIT VIA CVERROR                                   Ÿ
                                   14238              Ÿ                                                                     Ÿ
                                   14239              Ÿ  NOTE: WE CHECK FOR VALID SCOPE, LABEL MUST BE IN CURRENT PROC      Ÿ
                                   14240              Ÿ                                                                     Ÿ
                                   14241              Ÿ                                                                     Ÿ
                                   14242              Ÿ                                                                     Ÿ
                                                      ¾þþþþþþþþþþþþþþþþþþþþþþþþþþþþþþþþþþþþþþþþþþþþþþþþþþþþþþþþþþþþþþþþþþþþþ»
0000000                00000 00020 14243              LLWA     RECORD BEGIN
 000000                            14251  1           LLFLOW     DS    XL(L'FWENTRY)
 000020                00020 00020 14252                       END
                                   14261              *
                                   14262              *
 001970 50E0 D000/9008_      00000 14263              LABELLNO XPROC LLWA
 USING  *,R7
 USING  LLWA-(4+36),R8
 USING  FWENTRY,R6                 14314                       USING FWENTRY,R6
 00198A 4160 8028            00000 14323                       LA    R6,LLFLOW
                                   14324
                                   14325                       COMMENT                   SCAN LABEL NAME
 00198E D71F 6000 6000 00000 00000 14326                       CLEAR FWENTRY
 001994 4120 6000            00000 14333                       LA    R2,FWNAME
 001998 58E0 754A/0DEE       01ED4 14334                       ACALL SCNLNAME
                                   14338
                                   14339                       COMMENT                   GET LABEL FLOW CONTROL INFO
 00199E 4110 6000            00000 14340                       LA    R1,FWENTRY
 0019A2 58E0 754E/0DEE       01ED8 14341                       ACALL GETFLOW
 0019A8 4780 7040            019CA 14345                       IF    NZ,BEGIN
 0019AC 4110 6000/4100_      00000 14356  1                      TSEG  FWNAME,L'FWNAME,T
 0019BE 4110 758C/4100_      01F16 14386  1                      ERROR ': undefined label.'
 0019CA                            14393                       END
 0019CA 9503 6010/4780_00010       14397                       IF    ~FWLABEL,BEGIN
 0019D2 4110 6000/4100_      00000 14412  1                      TSEG  FWNAME,L'FWNAME,T
 0019E4 4110 758C/4100_      01F16 14442  1                      ERROR ': undefined label.'
 0019F0                            14449                       END
                                   14453
                                   14454                       COMMENT                   CHECK LABEL SCOPE
 0019F0 5810 6014            00014 14455                       L     R1,FWLBLINE
 0019F4 5910 B768/4740_      00768 14456                       IF    ((R1,LT,CPSCOPE),OR,(R1,GT,CPSCOPD)),BEGIN
 001A04 4110 6000/4100_      00000 14489  1                      TSEG  FWNAME,L'FWNAME,T
 001A16 4110 7556/4100_      01EE0 14519  1                      ERROR ': not in scope of current procedure.'
 001A22                            14526                       END
                                   14530
1FLOW     (FLOW2025) (12:45) (15MAR04) FLOW CONTROL COMMANDS - Common Routines                                              Page   56
0Current Usings:  (FWENTRY,R6) (*,R7) (LLWA-(4+36),R8) (CP,R11) (CV,R12)
0Loc    Object Code    Addr1 Addr2  Stmt Lv Lineno    Source Statement           (Hibal 5, Asmedit 3.3)  HLASM R4.0  2004/03/15 12.45
+___    ______ ____    _____ _____  ____ __ ______    ______ _________
0                                  14531                       COMMENT                   GET LABEL LINE NUMBER, RETURN
 001A22 5800 6014            00014 14532                       L     R0,FWLBLINE
 001A26 1BFF                       14533                       CLEAR R15
 001A28 5008 0004            00004 14537                       PRETURN (R0)
 001A2C 18D8/9808 D004_            14539                       PEND  ,
 DROP   LLWA-(4+36),R8
 DROP   *,R7
1FLOW     (FLOW2025) (12:45) (15MAR04) FLOW CONTROL COMMANDS - Common Routines                                              Page   57
0Current Usings:  (FWENTRY,R6) (CP,R11) (CV,R12)
0Loc    Object Code    Addr1 Addr2  Stmt Lv Lineno    Source Statement           (Hibal 5, Asmedit 3.3)  HLASM R4.0  2004/03/15 12.45
+___    ______ ____    _____ _____  ____ __ ______    ______ _________
0                                  14565              ¿þþþþþþþþþþþþþþþþþþþþþþþþþþþþþþþþþþþþþþþþþþþþþþþþþþþþþþþþþþþþþþþþþþþþþÜ
                                   14566              Ÿ                                                                     Ÿ
                                   14567              Ÿ                                                                     Ÿ
                                   14568              Ÿ  XLBLLNO - GET LINE NUMBER OF LABEL                                 Ÿ
                                   14569              Ÿ                                                                     Ÿ
                                   14570              Ÿ  ON ENTRY:                                                          Ÿ
                                   14571              Ÿ       SCANCB - SET UP TO POINT AT LABEL                             Ÿ
                                   14572              Ÿ                                                                     Ÿ
                                   14573              Ÿ  ON EXIT:                                                           Ÿ
                                   14574              Ÿ       SCANCB - UPDATED                                              Ÿ
                                   14575              Ÿ       R0 - LINE NUMBER OF LABEL                                     Ÿ
                                   14576              Ÿ       ANY ERRORS EXIT VIA CVERROR                                   Ÿ
                                   14577              Ÿ                                                                     Ÿ
                                   14578              Ÿ  NOTE: WE CHECK FOR VALID SCOPE, LABEL MUST BE IN XPROC BODY        Ÿ
                                   14579              Ÿ                                                                     Ÿ
                                   14580              Ÿ                                                                     Ÿ
                                   14581              Ÿ                                                                     Ÿ
                                                      ¾þþþþþþþþþþþþþþþþþþþþþþþþþþþþþþþþþþþþþþþþþþþþþþþþþþþþþþþþþþþþþþþþþþþþþ»
0000000                00000 00020 14582              XLLWA    RECORD BEGIN
 000000                            14590  1           XLLFLOW    DS    XL(L'FWENTRY)
 000020                00020 00020 14591                       END
                                   14600              *
                                   14601              *
 001A3A 50E0 D000/9008_      00000 14602              XLBLLNO  XPROC XLLWA
 USING  *,R7
 USING  XLLWA-(4+36),R8
                                   14653                       USING FWENTRY,R6
 001A54 4160 8028            00000 14655                       LA    R6,XLLFLOW
                                   14656
                                   14657                       COMMENT                   SCAN LABEL NAME
 001A58 D71F 6000 6000 00000 00000 14658                       CLEAR FWENTRY
 001A5E 4120 6000            00000 14665                       LA    R2,FWNAME
 001A62 58E0 7480/0DEE       01ED4 14666                       ACALL SCNLNAME
                                   14670
                                   14671                       COMMENT                   GET LABEL FLOW CONTROL INFO
 001A68 4110 6000            00000 14672                       LA    R1,FWENTRY
 001A6C 58E0 7484/0DEE       01ED8 14673                       ACALL GETFLOW
 001A72 4780 7040            01A94 14677                       IF    NZ,BEGIN
 001A76 4110 6000/4100_      00000 14688  1                      TSEG  FWNAME,L'FWNAME,T
 001A88 4110 74C2/4100_      01F16 14718  1                      ERROR ': undefined label.'
 001A94                            14725                       END
 001A94 9503 6010/4780_00010       14729                       IF    ~FWLABEL,BEGIN
 001A9C 4110 6000/4100_      00000 14744  1                      TSEG  FWNAME,L'FWNAME,T
 001AAE 4110 74C2/4100_      01F16 14774  1                      ERROR ': undefined label.'
 001ABA                            14781                       END
                                   14785
                                   14786                       COMMENT                   CHECK LABEL SCOPE
 001ABA 5810 6014            00014 14787                       L     R1,FWLBLINE
 001ABE 5910 B770/4740_      00770 14788                       IF    ((R1,LT,CPXSCOPE),OR,(R1,GT,CPXSCOPD)),BEGIN
 001ACE 4110 6000/4100_      00000 14821  1                      TSEG  FWNAME,L'FWNAME,T
 001AE0 4110 74D4/4100_      01F28 14851  1                      ERROR ': not in scope of XPROC procedure.'
 001AEC                            14858                       END
                                   14862
1FLOW     (FLOW2025) (12:45) (15MAR04) FLOW CONTROL COMMANDS - Common Routines                                              Page   58
0Current Usings:  (FWENTRY,R6) (*,R7) (XLLWA-(4+36),R8) (CP,R11) (CV,R12)
0Loc    Object Code    Addr1 Addr2  Stmt Lv Lineno    Source Statement           (Hibal 5, Asmedit 3.3)  HLASM R4.0  2004/03/15 12.45
+___    ______ ____    _____ _____  ____ __ ______    ______ _________
0                                  14863                       COMMENT                   GET LABEL LINE NUMBER, RETURN
 001AEC 5800 6014            00014 14864                       L     R0,FWLBLINE
 001AF0 1BFF                       14865                       CLEAR R15
 001AF2 5008 0004            00004 14869                       PRETURN (R0)
 001AF6 18D8/9808 D004_            14871                       PEND  ,
 DROP   XLLWA-(4+36),R8
 DROP   *,R7
1FLOW     (FLOW2025) (12:45) (15MAR04) FLOW CONTROL COMMANDS - Common Routines                                              Page   59
0Current Usings:  (FWENTRY,R6) (CP,R11) (CV,R12)
0Loc    Object Code    Addr1 Addr2  Stmt Lv Lineno    Source Statement           (Hibal 5, Asmedit 3.3)  HLASM R4.0  2004/03/15 12.45
+___    ______ ____    _____ _____  ____ __ ______    ______ _________
0                                  14897              ¿þþþþþþþþþþþþþþþþþþþþþþþþþþþþþþþþþþþþþþþþþþþþþþþþþþþþþþþþþþþþþþþþþþþþþÜ
                                   14898              Ÿ                                                                     Ÿ
                                   14899              Ÿ                                                                     Ÿ
                                   14900              Ÿ  SCNLNAME - SCAN LABEL NAME                                         Ÿ
                                   14901              Ÿ                                                                     Ÿ
                                   14902              Ÿ  ON ENTRY:                                                          Ÿ
                                   14903              Ÿ      SCANCB - POINTS AT LABEL                                       Ÿ
                                   14904              Ÿ      @R2 - LABEL RETURN AREA                                        Ÿ
                                   14905              Ÿ                                                                     Ÿ
                                   14906              Ÿ  ON EXIT:                                                           Ÿ
                                   14907              Ÿ      SCANCB - UPDATED                                               Ÿ
                                   14908              Ÿ      @R2 - LABEL, IF ANY  (LEFT JUSTIFIED PADDED W/BLANKS)          Ÿ
                                   14909              Ÿ      R15 - CC=ZERO                                                  Ÿ
                                   14910              Ÿ      ALL ERRORS EXIT VIA CVERROR                                    Ÿ
                                   14911              Ÿ                                                                     Ÿ
                                   14912              Ÿ  NOTE: CALLED BY GOTO COMMAND                                       Ÿ
                                   14913              Ÿ                                                                     Ÿ
                                   14914              Ÿ                                                                     Ÿ
                                                      ¾þþþþþþþþþþþþþþþþþþþþþþþþþþþþþþþþþþþþþþþþþþþþþþþþþþþþþþþþþþþþþþþþþþþþþ»
0000000                00000 0005C 14915              SCNLWA   RECORD BEGIN
 000000                            14923  1           SCNLLOC    DS    F                   LOCATION OF LINE AT ENTRY
 000004                            14924  1           SCNLLEN    DS    F                   LENGTH OF LINE AT ENTRY
 000008                            14925  1           SCNLAREA   DS    F                   ADDRESS OF LABEL SAVE AREA
 00000C                            14926  1           SCNLTEMP   DS    XL(L'VNENTRY)       TEMP WORK AREA FOR NAME
 00005C                            14927  1                      DS    0S(L'VNNAME-L'FWNAME)    FLOW,VAR NAMES MUST
 00005C                            14928  1                      DS    0S(L'FWNAME-L'VNNAME)    BE SAME LENGTH
 00005C                0005C 0005C 14929                       END
                                   14938              *
                                   14939              *
 001B04 50E0 D000/9008_      00000 14940              SCNLNAME PROC  SCNLWA
 USING  *,R7
 USING  SCNLWA-(4+36),R8
 DROP   FWENTRY,R6                 14990                       USING VNENTRY,R6
 USING  VNENTRY,R6
 001B1E 4160 8034            0000C 15002                       LA    R6,SCNLTEMP
 001B22 58E0 B08C/581E_      0008C 15003                       SCINFO
 001B30 5000 802C            00004 15012                       ST    R0,SCNLLEN
 001B34 5010 8028            00000 15013                       ST    R1,SCNLLOC
 001B38 5020 8030            00008 15014                       ST    R2,SCNLAREA
                                   15015
                                   15016                       COMMENT                   SCAN FOR LABEL NAME
 001B3C 5800 802C            00004 15017                       L     R0,SCNLLEN
 001B40 5810 8028            00000 15018                       L     R1,SCNLLOC
 001B44 4120 8034            0000C 15019                       LA    R2,SCNLTEMP
 001B48 58E0 73E6/0DEE       01F04 15020                       VCALL SCNVNAME
                                   15024
                                   15025                       COMMENT                   IF VALID LABEL
                                   15026                       COMMENT
 001B4E 12FF/4770 704A_            15027                       IF    ((R15,Z),AND,(VNPREFIX,EQ,0)),BEGIN
 001B5C 5820 8030            00008 15058  1                      L     R2,SCNLAREA
 001B60 D20F 2000 6000 00000 00000 15059  1                      MVC   0(L'FWNAME,R2),VNNAME     SAVE NAME
 001B66 1BFF                       15060  1                      CLEAR R15
 001B68                            15064                       END
1FLOW     (FLOW2025) (12:45) (15MAR04) FLOW CONTROL COMMANDS - Common Routines                                              Page   60
0Current Usings:  (VNENTRY,R6) (*,R7) (SCNLWA-(4+36),R8) (CP,R11) (CV,R12)
0Loc    Object Code    Addr1 Addr2  Stmt Lv Lineno    Source Statement           (Hibal 5, Asmedit 3.3)  HLASM R4.0  2004/03/15 12.45
+___    ______ ____    _____ _____  ____ __ ______    ______ _________
0                                  15068
                                   15069                       COMMENT                   IF NO LABEL
 001B68 704E/704E/47F0_01B68 01B52 15070                       ELSEIF (R15,NEG),BEGIN
 001B72 4110 742C/4100_      01F4A 15095  1                      ERROR  'Missing label name.'
 001B7E                            15102                       END
                                   15106
                                   15107                       COMMENT                   IF INVALID LABEL
 001B7E 7064/47F0 70EA_01B7E 01B70 15108                       ELSEIF (R15,POS),BEGIN
 001B88 5800 802C            00004 15131  1                      L     R0,SCNLLEN
 001B8C 5810 8028            00000 15132  1                      L     R1,SCNLLOC
 001B90 58E0 B08C/501E_      0008C 15133  1                      SCINIT (R1),(R0)
 001B9E 5810 B08C/1B00_      0008C 15153  1                      SCAN  ,
 001BEC 58E0 737E/0DEE       01E9C 15184  1                      SCANCHK
 001BF2 41F0 B050/58E0_      00050 15189  1                      TSEG  (R1),(R0)
 001BFC 4110 743F/4100_      01F5D 15213  1                      ERROR ': invalid label name.'
 001C08                            15220                       END
                                   15224
                                   15225                       COMMENT                   ANYTHING ELSE IS INVALID TOO
 001C08 70EE/47F0 716E 01C08 01B86 15226                       ELSE  BEGIN               (IE. IF PREFIXED LABELS)
 001C0C 5800 802C            00004 15237  1                      L     R0,SCNLLEN
 001C10 5810 8028            00000 15238  1                      L     R1,SCNLLOC
 001C14 58E0 B08C/501E_      0008C 15239  1                      SCINIT (R1),(R0)
 001C22 5810 B08C/1B00_      0008C 15259  1                      SCAN  ,
 001C70 58E0 737E/0DEE       01E9C 15290  1                      SCANCHK
 001C76 41F0 B050/58E0_      00050 15295  1                      TSEG  (R1),(R0)
 001C80 4110 743F/4100_      01F5D 15319  1                      ERROR ': invalid label name.'
 001C8C                            15326                       END
                                   15330
 001C8C 58E0 B08C/501E_      0008C 15331                       SCINIT (R1),(R0)
 001C9A 1BFF                       15351                       CLEAR R15
 001C9C 18D8/9808 D004_            15355                       PEND  ,
 DROP   SCNLWA-(4+36),R8
 DROP   *,R7
 DROP   VNENTRY,R6                 15380                       DROP  R6
1FLOW     (FLOW2025) (12:45) (15MAR04) FLOW CONTROL COMMANDS - Common Routines                                              Page   61
0Current Usings:  (CP,R11) (CV,R12)
0Loc    Object Code    Addr1 Addr2  Stmt Lv Lineno    Source Statement           (Hibal 5, Asmedit 3.3)  HLASM R4.0  2004/03/15 12.45
+___    ______ ____    _____ _____  ____ __ ______    ______ _________
0                                  15388              ¿þþþþþþþþþþþþþþþþþþþþþþþþþþþþþþþþþþþþþþþþþþþþþþþþþþþþþþþþþþþþþþþþþþþþþÜ
                                   15389              Ÿ                                                                     Ÿ
                                   15390              Ÿ                                                                     Ÿ
                                   15391              Ÿ  SCNPNAME - SCAN PROCEDURE NAME                                     Ÿ
                                   15392              Ÿ                                                                     Ÿ
                                   15393              Ÿ  ON ENTRY:                                                          Ÿ
                                   15394              Ÿ      SCANCB - POINTS AT PROCEDURE NAME                              Ÿ
                                   15395              Ÿ      @R2 - LABEL RETURN AREA                                        Ÿ
                                   15396              Ÿ                                                                     Ÿ
                                   15397              Ÿ  ON EXIT:                                                           Ÿ
                                   15398              Ÿ      SCANCB - UPDATED                                               Ÿ
                                   15399              Ÿ      @R2 - NAME, IF VALID (LEFT JUSTIFIED PADDED W/BLANKS)          Ÿ
                                   15400              Ÿ      R15 - CC=ZERO                                                  Ÿ
                                   15401              Ÿ            CC=NZ, IF NAME INVALID, ERR MSG IS TSEG'D                Ÿ
                                   15402              Ÿ                                                                     Ÿ
                                   15403              Ÿ  NOTE: CALLED BY PCALL COMMAND                                      Ÿ
                                   15404              Ÿ                                                                     Ÿ
                                   15405              Ÿ                                                                     Ÿ
                                                      ¾þþþþþþþþþþþþþþþþþþþþþþþþþþþþþþþþþþþþþþþþþþþþþþþþþþþþþþþþþþþþþþþþþþþþþ»
0000000                00000 0005C 15406              SCNPWA   RECORD BEGIN
 000000                            15414  1           SCNPLOC    DS    F                   LOCATION OF LINE AT ENTRY
 000004                            15415  1           SCNPLEN    DS    F                   LENGTH OF LINE AT ENTRY
 000008                            15416  1           SCNPAREA   DS    F                   ADDRESS OF NAME SAVE AREA
 00000C                            15417  1           SCNPTEMP   DS    XL(L'VNENTRY)       TEMP WORK AREA FOR NAME
 00005C                            15418  1                      DS    0S(L'VNNAME-L'FWNAME)    FLOW,VAR NAMES MUST
 00005C                            15419  1                      DS    0S(L'FWNAME-L'VNNAME)    BE SAME LENGTH
 00005C                0005C 0005C 15420                       END
                                   15429              *
                                   15430              *
 001CAA 50E0 D000/9008_      00000 15431              SCNPNAME XPROC SCNPWA
 USING  *,R7
 USING  SCNPWA-(4+36),R8
 USING  VNENTRY,R6                 15482                       USING VNENTRY,R6
 001CC4 4160 8034            0000C 15491                       LA    R6,SCNPTEMP
 001CC8 58E0 B08C/581E_      0008C 15492                       SCINFO ,
 001CD6 5000 802C            00004 15501                       ST    R0,SCNPLEN
 001CDA 5010 8028            00000 15502                       ST    R1,SCNPLOC
 001CDE 5020 8030            00008 15503                       ST    R2,SCNPAREA
                                   15504
                                   15505                       COMMENT                   SCAN FOR PROCEDURE NAME
 001CE2 5800 802C            00004 15506                       L     R0,SCNPLEN
 001CE6 5810 8028            00000 15507                       L     R1,SCNPLOC
 001CEA 4120 8034            0000C 15508                       LA    R2,SCNPTEMP
 001CEE 58E0 7240/0DEE       01F04 15509                       VCALL SCNVNAME
                                   15513
                                   15514                       COMMENT                   IF VALID NAME
                                   15515                       COMMENT
 001CF4 12FF/4770 704A_            15516                       IF    ((R15,Z),AND,(VNPREFIX,EQ,0)),BEGIN
 001D02 5820 8030            00008 15547  1                      L     R2,SCNPAREA
 001D06 D20F 2000 6000 00000 00000 15548  1                      MVC   0(L'FWNAME,R2),VNNAME     SAVE NAME
 001D0C 1BFF                       15549  1                      CLEAR R15
 001D0E                            15553                       END
                                   15557
1FLOW     (FLOW2025) (12:45) (15MAR04) FLOW CONTROL COMMANDS - Common Routines                                              Page   62
0Current Usings:  (VNENTRY,R6) (*,R7) (SCNPWA-(4+36),R8) (CP,R11) (CV,R12)
0Loc    Object Code    Addr1 Addr2  Stmt Lv Lineno    Source Statement           (Hibal 5, Asmedit 3.3)  HLASM R4.0  2004/03/15 12.45
+___    ______ ____    _____ _____  ____ __ ______    ______ _________
0                                  15558                       COMMENT                   IF NO NAME
 001D0E 704E/704E/47F0_01D0E 01CF8 15559                       ELSEIF (R15,NEG),BEGIN
 001D18 4110 72AE/4100_      01F72 15584  1                      TSEG   'Missing Procedure Name.',,CR
 001D2A 41F0 0004            00004 15602  1                      LA    R15,4
 001D2E                            15603                       END
                                   15607
                                   15608                       COMMENT                   IF INVALID LABEL
 001D2E 706E/47F0 70F8_01D2E 01D16 15609                       ELSEIF (R15,POS),BEGIN
 001D38 5800 802C            00004 15632  1                      L     R0,SCNPLEN
 001D3C 5810 8028            00000 15633  1                      L     R1,SCNPLOC
 001D40 58E0 B08C/501E_      0008C 15634  1                      SCINIT (R1),(R0)
 001D4E 5810 B08C/1B00_      0008C 15654  1                      SCAN ,
 001D9C 41F0 B050/58E0_      00050 15685  1                      TSEG  (R1),(R0)
 001DA6 4110 72C5/4100_      01F89 15709  1                      TSEG  ': invalid procedure name.',,CR
 001DB8 41F0 0004            00004 15727  1                      LA    R15,4
 001DBC                            15728                       END
                                   15732
                                   15733                       COMMENT                   ANYTHING ELSE IS INVALID TOO
 001DBC 70FC/47F0 7186 01DBC 01D36 15734                       ELSE  BEGIN               (IE. IF PREFIXED LABELS)
 001DC0 5800 802C            00004 15745  1                      L     R0,SCNPLEN
 001DC4 5810 8028            00000 15746  1                      L     R1,SCNPLOC
 001DC8 58E0 B08C/501E_      0008C 15747  1                      SCINIT (R1),(R0)
 001DD6 5810 B08C/1B00_      0008C 15767  1                      SCAN  ,
 001E24 58E0 71D8/0DEE       01E9C 15798  1                      SCANCHK
 001E2A 41F0 B050/58E0_      00050 15803  1                      TSEG  (R1),(R0)
 001E34 4110 72C5/4100_      01F89 15827  1                      TSEG  ': invalid procedure name.',,CR
 001E46 41F0 0004            00004 15845  1                      LA    R15,4
 001E4A                            15846                       END
                                   15850
                                   15851                       COMMENT                   IF ALL OK, UPDATE SCANCB
 001E4A 12FF/4770 719C             15852                       IF    (R15,Z),BEGIN
 001E50 58E0 B08C/501E_      0008C 15866  1                      SCINIT (R1),(R0)
 001E5E 1BFF                       15886  1                      CLEAR R15
 001E60                            15890                       END
                                   15894
                                   15895                       COMMENT                   ALL DONE
 001E60 18D8/9808 D004_            15896                       PEND  ,
 DROP   SCNPWA-(4+36),R8
 DROP   *,R7
 DROP   VNENTRY,R6                 15921                       DROP  R6
1FLOW     (FLOW2025) (12:45) (15MAR04) FLOW CONTROL COMMANDS - Common Routines                                              Page   63
0Current Usings:  (CP,R11) (CV,R12)
0Loc    Object Code    Addr1 Addr2  Stmt Lv Lineno    Source Statement           (Hibal 5, Asmedit 3.3)  HLASM R4.0  2004/03/15 12.45
+___    ______ ____    _____ _____  ____ __ ______    ______ _________
0                                  15929                       QLTORG
1FLOW     (FLOW2025) (12:45) (15MAR04) EXEC Formatting Routines                                                             Page   64
0Current Usings:  (CP,R11) (CV,R12)
0Loc    Object Code    Addr1 Addr2  Stmt Lv Lineno    Source Statement           (Hibal 5, Asmedit 3.3)  HLASM R4.0  2004/03/15 12.45
+___    ______ ____    _____ _____  ____ __ ______    ______ _________
0                                  15972              ¿þþþþþþþþþþþþþþþþþþþþþþþþþþþþþþþþþþþþþþþþþþþþþþþþþþþþþþþþþþþþþþþþþþþþþÜ
                                   15973              Ÿ                                                                     Ÿ
                                   15974              Ÿ                                                                     Ÿ
                                   15975              Ÿ  FFORMAT - FORMAT XPROC                                             Ÿ
                                   15976              Ÿ                                                                     Ÿ
                                   15977              Ÿ  ON ENTRY:                                                          Ÿ
                                   15978              Ÿ       R0 - OPTIONS                                                  Ÿ
                                   15979              Ÿ             C'    ' - DEFAULT FORMATTING                            Ÿ
                                   15980              Ÿ             C'M   ' - MARK ACTIVE, FORMATED (DEFAULT FOR MARK)      Ÿ
                                   15981              Ÿ             C'MU  ' - MARK ACTIVE, UNFORMATED                       Ÿ
                                   15982              Ÿ       R1 - INDENT VALUE                                             Ÿ
                                   15983              Ÿ                                                                     Ÿ
                                   15984              Ÿ  ON EXIT:                                                           Ÿ
                                   15985              Ÿ       R15 - CC=ZERO,  ALL ERRORS EXIT VIA CVERROR                   Ÿ
                                   15986              Ÿ       ACTIVE FILE FORMATED  AND/OR  MARKED.                         Ÿ
                                   15987              Ÿ                                                                     Ÿ
                                   15988              Ÿ  NOTES:                                                             Ÿ
                                   15989              Ÿ    FILE MUST BE XSCANNED PRIOR TO CALLING THIS ROUTINE.             Ÿ
                                   15990              Ÿ    THIS ACCOMPLISHES THE FOLLOWING:                                 Ÿ
                                   15991              Ÿ       1. SYNTAX IS ALREADY SCANNED AND OK                           Ÿ
                                   15992              Ÿ       2. CONTINUATATION LINES ARE CONCATENATED                      Ÿ
                                   15993              Ÿ       3. SCANNED FILE IS IN TEMP EXEC FILE                          Ÿ
                                   15994              Ÿ                                                                     Ÿ
                                   15995              Ÿ    WE NOTE THAT THE TEMP EXEC FILE IS DIFFERENT THAN THE            Ÿ
                                   15996              Ÿ    ACTIVE FILE IN THE FOLLOWING RESPECTS:                           Ÿ
                                   15997              Ÿ       1. CONTINUATION LINES ARE CONCATENATED.                       Ÿ
                                   15998              Ÿ       2. COMMENT LINES ARE DELETED                                  Ÿ
                                   15999              Ÿ       3. BLANK (NULL) LINES ARE DELETED                             Ÿ
                                   16000              Ÿ                                                                     Ÿ
                                   16001              Ÿ    THE STRATEGY IS:                                                 Ÿ
                                   16002              Ÿ    WE SCAN THE TEMP EXEC FILE FOR BEGIN/END NESTING.                Ÿ
                                   16003              Ÿ    THIS NESTING DETERMINES THE ACTIVE FILE INDENTING..              Ÿ
                                   16004              Ÿ    WE READ FROM THE ACTIVE AND REWRITE TO THE ACTIVE                Ÿ
                                   16005              Ÿ    PROPERLY INDENTED LINES.   LINES THAT EXIST IN THE               Ÿ
                                   16006              Ÿ    ACTIVE FILE BUT ARE NOT IN THE TEMP LOADED EXEC                  Ÿ
                                   16007              Ÿ    ARE CONTINUATION LINES, UNLESS THEY ARE COMMENT                  Ÿ
                                   16008              Ÿ    LINES OR BLANK LINES.                                            Ÿ
                                   16009              Ÿ                                                                     Ÿ
                                   16010              Ÿ    NOTE:  IT MAY BE BEST AT SOME POINT TO RECODE THIS               Ÿ
                                   16011              Ÿ    ROUTINE TO SCAN FOR BEGIN/END, CONTINUATIONS, ETC. ETC.          Ÿ
                                   16012              Ÿ    DIRECTLY FROM THE ACTIVE FILE.  IF YOU GOT THE TIME,,,           Ÿ
                                   16013              Ÿ                                                                     Ÿ
                                   16014              Ÿ  *** CAUTION ***                                                    Ÿ
                                   16015              Ÿ  CAUTION:  ACTIVE FILE MUST BE XSCANNED (INSURES SYNTACTICAL        Ÿ
                                   16016              Ÿ    VALIDITY) BEFORE CALLING FFORMAT.   IE. TEMP LOAD FILE           Ÿ
                                   16017              Ÿ    MUST CONTAIN XSCANNED ACTIVE FILE.                               Ÿ
                                   16018              Ÿ                                                                     Ÿ
                                   16019              Ÿ                                                                     Ÿ
                                                      ¾þþþþþþþþþþþþþþþþþþþþþþþþþþþþþþþþþþþþþþþþþþþþþþþþþþþþþþþþþþþþþþþþþþþþþ»
0000000                00000 002F3 16020              FFWA     RECORD BEGIN
 000000                            16028  1           FFOPTS     DS    CL4                 FORMAT OPTIONS
 000004                            16029  1           FFINDENT   DS    F                   FORMAT INDENT SPACING
 000008 00                         16030  1           FFOPTION   FLAG  ,                   FORMAT OPTIONS
1FLOW     (FLOW2025) (12:45) (15MAR04) EXEC Formatting Routines                                                             Page   65
0Current Usings:  (CP,R11) (CV,R12)
0Loc    Object Code    Addr1 Addr2  Stmt Lv Lineno    Source Statement           (Hibal 5, Asmedit 3.3)  HLASM R4.0  2004/03/15 12.45
+___    ______ ____    _____ _____  ____ __ ______    ______ _________
0FFOPTION.FFFMARK  80 ONES         16034  1                      FLAG  FFFMARK             MARK
 FFOPTION.FFFUNFMT 40 ONES         16039  1                      FLAG  FFFUNFMT            UNFORMATED
 00000C                            16044  1           FFLEVEL    DS    F                   LEVEL OF NESTING
 000010                            16045  1           FFSPACE    DS    F                   CURRENT SPACING
 000014                            16046  1           FFLNO      DS    F                   ACTIVE FILE LINE NUMBER
 000018                            16047  1           FFINLEN    DS    F                   INPUT LINE LENGTH
                                   16048  1           FFINBUF    DS    CL(&LINESZ)         INPUT BUFFER
 00001C                                   1          +FFINBUF    DS    CL(235)             INPUT BUFFER
 000108                            16049  1           FFOUTLEN   DS    F                   OUTPUT LINE LENGTH (NOT INCL MARK)
 00010C                            16050  1           FFMARK     DS    CL6                 MARK           -- KEEP TOGETHER !!
                                   16051  1           FFOUTBUF   DS    CL(&LINESZ)         OUTPUT BUFFER  -- KEEP TOGETHER !!
 000112                                   1          +FFOUTBUF   DS    CL(235)             OUTPUT BUFFER  -- KEEP TOGETHER !!
                                   16052  1           FFMARKID   EQU   FFMARK+1,1          MARK ID
                                   16053  1           FFMARKLV   EQU   FFMARK+3,2          MARK LEVEL
 000200                            16054  1           FFXLNO     DS    F                   EXEC INPUT LINE NUMBER
 000204                            16055  1           FFXLEN     DS    F                   EXEC INPUT LINE LENGTH
                                   16056  1           FFXBUF     DS    CL(&LINESZ)         EXEC INPUT LINE BUFFER
 000208                                   1          +FFXBUF     DS    CL(235)             EXEC INPUT LINE BUFFER
 0002F3                002F3 002F3 16057                       END
                                   16066              *
                                   16067              *
 001FA2 50E0 D000/9008_      00000 16068              FFORMAT  XPROC FFWA
 USING  *,R7
 USING  FFWA-(4+36),R8
                                   16119
                                   16120                       COMMENT                   SET UP WORK AREA
 001FBC 5000 8028            00000 16121                       ST    R0,FFOPTS
 001FC0 5010 802C            00004 16122                       ST    R1,FFINDENT
 001FC4 9200 8030      00008       16123                       CLEAR FFOPTION
 001FC8 D703 8034 8034 0000C 0000C 16130                       CLEAR FFLEVEL
 001FCE D703 8038 8038 00010 00010 16137                       CLEAR FFSPACE
 001FD4 D703 803C 803C 00014 00014 16144                       CLEAR FFLNO
 001FDA D703 8228 8228 00200 00200 16151                       CLEAR FFXLNO
 001FE0 D205 8134 77B4 0010C 02770 16158                       MVC   FFMARK,=CL6'      '
 001FE6 D503 7754 8028_02710 00000 16159                       IF    (FFOPTS,EQ,'    '),BEGIN
 001FF0                            16176                       END
 001FF0 7038/47F0 7046_01FF0 01FEE 16180                       ELSEIF (FFOPTS,EQ,'M   '),BEGIN
 001FFE 9680 8030      00008       16206  1                      SET   FFFMARK
 002002                            16212                       END
 002002 704A/47F0 705C_02002 01FFC 16216                       ELSEIF (FFOPTS,EQ,'MU  '),BEGIN
 002010 9680 8030      00008       16242  1                      SET   FFFMARK
 002014 9640 8030      00008       16248  1                      SET   FFFUNFMT
 002018                            16254                       END
 002018 7060/47F0 7062 02018 0200E 16258                       ELSE  BEGIN
 00201C 0000                       16269  1                      BOMB
 00201E                            16271                       END
                                   16275
                                   16276                       COMMENT                   GET FIRST EXEC FILE LINE,,
 00201E 4100 00EB            000EB 16277                       LA    R0,L'FFXBUF
 002022 4110 8230            00208 16278                       LA    R1,FFXBUF
 002026 4120 8228            00200 16279                       LA    R2,FFXLNO
 00202A 58E0 7760/0DEE       0271C 16280                       ACALL FFXFIRST
 002030 5000 822C            00204 16284                       ST    R0,FFXLEN
 002034 12FF/4780 7084             16285                       IF    (R15,NZ),BEGIN
1FLOW     (FLOW2025) (12:45) (15MAR04) EXEC Formatting Routines                                                             Page   66
0Current Usings:  (*,R7) (FFWA-(4+36),R8) (CP,R11) (CV,R12)
0Loc    Object Code    Addr1 Addr2  Stmt Lv Lineno    Source Statement           (Hibal 5, Asmedit 3.3)  HLASM R4.0  2004/03/15 12.45
+___    ______ ____    _____ _____  ____ __ ______    ______ _________
000203A D203 8228 C15C 00200 0015C 16299  1                      MVC   FFXLNO,CVMAXLNO
 002040                            16300                       END
                                   16304
                                   16305                       COMMENT                   CHECK FOR LEADING COMMENTS,
                                   16306                       COMMENT                   OR CONTIUATION LINES
 002040 4100 00EB            000EB 16307                       LA    R0,L'FFINBUF        GET FIRST ACTIVE FILE LINE
 002044 4110 8044            0001C 16308                       LA    R1,FFINBUF
 002048 4120 803C            00014 16309                       LA    R2,FFLNO
 00204C 58E0 7764/0DEE       02720 16310                       ACALL FFFIRST
 002052 5000 8040            00018 16314                       ST    R0,FFINLEN
                                   16315                       COMMENT                   IF IN ACTIVE AND NOT EXEC,,,
 002056 12FF/4770 70FE_            16316                       WHILE ((R15,Z),AND,(FFLNO,LT,FFXLNO)),BEGIN     COMM. LINE
 002066 58E0 7768/0DEE_      02724 16349  1                      IF    ('ACALL FFCCOMM',Z),BEGIN
 002070 4110 8028            00000 16365  2                        LA    R1,FFWA
 002074 58E0 776C/0DEE       02728 16366  2                        ACALL FFPCOMM
 00207A                            16370  1                      END
 00207A 70C2/47F0 70D6_0207A 0206E 16374  1                      ELSEIF ('ACALL FFCBLANK',Z),BEGIN
 002088 4110 8028            00000 16399  2                        LA    R1,FFWA
 00208C 58E0 7774/0DEE       02730 16400  2                        ACALL FFPLINE
 002092                            16404  1                      END
 002092 70DA/47F0 70E4 02092 02086 16408  1                      ELSE  BEGIN
 002096 4110 8028            00000 16419  2                        LA    R1,FFWA
 00209A 58E0 7778/0DEE       02734 16420  2                        ACALL FFPCONT
 0020A0                            16424  1                      END
 0020A0 4100 00EB            000EB 16428  1                      LA    R0,L'FFINBUF
 0020A4 4110 8044            0001C 16429  1                      LA    R1,FFINBUF
 0020A8 4120 803C            00014 16430  1                      LA    R2,FFLNO
 0020AC 58E0 777C/0DEE       02738 16431  1                      ACALL FFNEXT
 0020B2 5000 8040            00018 16435  1                      ST    R0,FFINLEN
 0020B6 47F0 709A            02056 16436                       END
                                   16441                        ¿þþþþþþþþþþþþþþþþþþþþþþþÜ
                                   16442                        Ÿ  MAIN FORMATING LOOP  Ÿ
                                   16443                        ¾þþþþþþþþþþþþþþþþþþþþþþþ»
                                   16444                       COMMENT                   LOOP PROCESSING ALL LINES
 0020BA 12FF/4770 7216             16445                       WHILE (R15,Z),BEGIN       WHILE LINES !
                                   16461  1
                                   16462  1                      COMMENT                   SCAN EXEC LINES
 0020C0 5800 822C            00204 16463  1                      L     R0,FFXLEN           R1,R0 - EXEC LINE LOC, LEN
 0020C4 4110 8230            00208 16464  1                      LA    R1,FFXBUF
                                   16465  1           *
                                   16466  1           *
                                   16467  1                      COMMENT                   IF BEGIN LINE
 0020C8 58E0 7780/0DEE_      0273C 16468  1                      IF    ('ACALL FFCBEGIN',Z),BEGIN
 0020D2 4110 8028            00000 16484  2                        LA    R1,FFWA
 0020D6 58E0 7784/0DEE       02740 16485  2                        ACALL FFPBEGIN
 0020DC                            16489  1                      END
                                   16493  1           *
                                   16494  1           *
                                   16495  1                      COMMENT                   IF END LINE
 0020DC 7124/47F0 7138_020DC 020D0 16496  1                      ELSEIF ('ACALL FFCEND',Z),BEGIN
 0020EA 4110 8028            00000 16521  2                        LA    R1,FFWA
 0020EE 58E0 778C/0DEE       02748 16522  2                        ACALL FFPEND
 0020F4                            16526  1                      END
                                   16530  1           *
1FLOW     (FLOW2025) (12:45) (15MAR04) EXEC Formatting Routines                                                             Page   67
0Current Usings:  (*,R7) (FFWA-(4+36),R8) (CP,R11) (CV,R12)
0Loc    Object Code    Addr1 Addr2  Stmt Lv Lineno    Source Statement           (Hibal 5, Asmedit 3.3)  HLASM R4.0  2004/03/15 12.45
+___    ______ ____    _____ _____  ____ __ ______    ______ _________
0                                  16531  1           *
                                   16532  1                      COMMENT                   IF COMMENT LINE
 0020F4 713C/47F0 7150_020F4 020E8 16533  1                      ELSEIF ('ACALL FFCCOMM',Z),BEGIN
 002102 4110 8028            00000 16558  2                        LA    R1,FFWA
 002106 58E0 776C/0DEE       02728 16559  2                        ACALL FFPCOMM
 00210C                            16563  1                      END
                                   16567  1           *
                                   16568  1           *
                                   16569  1                      COMMENT                   IF LABEL LINE
 00210C 7154/47F0 7168_0210C 02100 16570  1                      ELSEIF ('ACALL FFCLABEL',Z),BEGIN
 00211A 4110 8028            00000 16595  2                        LA    R1,FFWA
 00211E 58E0 7794/0DEE       02750 16596  2                        ACALL FFPLABEL
 002124                            16600  1                      END
                                   16604  1           *
                                   16605  1           *
                                   16606  1                      COMMENT                   ALL OTHER LINES, GET SPACED
 002124 716C/47F0 7176 02124 02118 16607  1                      ELSE  BEGIN
 002128 4110 8028            00000 16618  2                        LA    R1,FFWA
 00212C 58E0 7774/0DEE       02730 16619  2                        ACALL FFPLINE
 002132                            16623  1                      END
                                   16627  1           *
                                   16628  1           *
                                   16629  1                      COMMENT                   GET NEXT EXEC FILE LINE,,
 002132 4100 00EB            000EB 16630  1                      LA    R0,L'FFXBUF
 002136 4110 8230            00208 16631  1                      LA    R1,FFXBUF
 00213A 4120 8228            00200 16632  1                      LA    R2,FFXLNO
 00213E 58E0 7798/0DEE       02754 16633  1                      ACALL FFXNEXT
 002144 5000 822C            00204 16637  1                      ST    R0,FFXLEN
 002148 12FF/4780 7198             16638  1                      IF    (R15,NZ),BEGIN
 00214E D203 8228 C15C 00200 0015C 16652  2                        MVC   FFXLNO,CVMAXLNO
 002154                            16653  1                      END
                                   16657  1
                                   16658  1                      COMMENT                   CHECK FOR ANY CONTINUATION LINES
 002154 4100 00EB            000EB 16659  1                      LA    R0,L'FFINBUF        GET NEXT ACTIVE FILE LINE
 002158 4110 8044            0001C 16660  1                      LA    R1,FFINBUF
 00215C 4120 803C            00014 16661  1                      LA    R2,FFLNO
 002160 58E0 777C/0DEE       02738 16662  1                      ACALL FFNEXT
 002166 5000 8040            00018 16666  1                      ST    R0,FFINLEN
                                   16667  1                      COMMENT                   IF IN ACTIVE AND NOT EXEC,,,
 00216A 12FF/4770 7212_            16668  1                      WHILE ((R15,Z),AND,(FFLNO,LT,FFXLNO)),BEGIN     CONT. LINE
 00217A 58E0 7768/0DEE_      02724 16701  2                        IF    ('ACALL FFCCOMM',Z),BEGIN
 002184 4110 8028            00000 16717  3                          LA    R1,FFWA
 002188 58E0 776C/0DEE       02728 16718  3                          ACALL FFPCOMM
 00218E                            16722  2                        END
 00218E 71D6/47F0 71EA_0218E 02182 16726  2                        ELSEIF ('ACALL FFCBLANK',Z),BEGIN
 00219C 4110 8028            00000 16751  3                          LA    R1,FFWA
 0021A0 58E0 7774/0DEE       02730 16752  3                          ACALL FFPLINE
 0021A6                            16756  2                        END
 0021A6 71EE/47F0 71F8 021A6 0219A 16760  2                        ELSE  BEGIN
 0021AA 4110 8028            00000 16771  3                          LA    R1,FFWA
 0021AE 58E0 7778/0DEE       02734 16772  3                          ACALL FFPCONT
 0021B4                            16776  2                        END
 0021B4 4100 00EB            000EB 16780  2                        LA    R0,L'FFINBUF
 0021B8 4110 8044            0001C 16781  2                        LA    R1,FFINBUF
1FLOW     (FLOW2025) (12:45) (15MAR04) EXEC Formatting Routines                                                             Page   68
0Current Usings:  (*,R7) (FFWA-(4+36),R8) (CP,R11) (CV,R12)
0Loc    Object Code    Addr1 Addr2  Stmt Lv Lineno    Source Statement           (Hibal 5, Asmedit 3.3)  HLASM R4.0  2004/03/15 12.45
+___    ______ ____    _____ _____  ____ __ ______    ______ _________
00021BC 4120 803C            00014 16782  2                        LA    R2,FFLNO
 0021C0 58E0 777C/0DEE       02738 16783  2                        ACALL FFNEXT
 0021C6 5000 8040            00018 16787  2                        ST    R0,FFINLEN
 0021CA 47F0 71AE            0216A 16788  1                      END
                                   16793  1
                                   16794  1                      COMMENT                   LOOP PROCESSING NEXT LINE
 0021CE 47F0 70FE            020BA 16795                       END
                                   16800
 0021D2 1BFF                       16801                       CLEAR R15
 0021D4 18D8/9808 D004_            16805                       PEND  ,
 DROP   FFWA-(4+36),R8
 DROP   *,R7
1FLOW     (FLOW2025) (12:45) (15MAR04) EXEC Formatting Routines                                                             Page   69
0Current Usings:  (CP,R11) (CV,R12)
0Loc    Object Code    Addr1 Addr2  Stmt Lv Lineno    Source Statement           (Hibal 5, Asmedit 3.3)  HLASM R4.0  2004/03/15 12.45
+___    ______ ____    _____ _____  ____ __ ______    ______ _________
0                                  16831              ¿þþþþþþþþþþþþþþþþþþþþþþþþþþþþþþþþþþþþþþþþþþþþþþþþþþþþþþþþþþþþþþþþþþþþþÜ
                                   16832              Ÿ                                                                     Ÿ
                                   16833              Ÿ                                                                     Ÿ
                                   16834              Ÿ  FFPLINE - PROCESS NORMAL LINE                                      Ÿ
                                   16835              Ÿ                                                                     Ÿ
                                   16836              Ÿ  ON ENTRY:                                                          Ÿ
                                   16837              Ÿ       R1 - FFWA, FORMATTING WORK AREA                               Ÿ
                                   16838              Ÿ                                                                     Ÿ
                                   16839              Ÿ                                                                     Ÿ
                                   16840              Ÿ                                                                     Ÿ
                                                      ¾þþþþþþþþþþþþþþþþþþþþþþþþþþþþþþþþþþþþþþþþþþþþþþþþþþþþþþþþþþþþþþþþþþþþþ»
00021E2 50E0 D000/9008_      00000 16841              FFPLINE  PROC  ,
 USING  *,R7
 USING  FFWA,R6                    16880                       USING FFWA,R6
 0021FC 1861                       16889                       LR    R6,R1
                                   16890
                                   16891                       COMMENT                   PROCESS NORMAL LINE
 0021FE 9180 6008/4710_00008       16892                       IF    ~FFFMARK,BEGIN
 002206 5800 6018            00018 16907  1                      L     R0,FFINLEN
 00220A 4110 601C            0001C 16908  1                      LA    R1,FFINBUF
 00220E 58E0 755C/0DEE       02758 16909  1                      ACALL FFLTRIM             TRIM LINE
 002214 1840                       16913  1                      LR    R4,R0
 002216 5A40 6010            00010 16914  1                      A     R4,FFSPACE
 00221A 5040 6108            00108 16915  1                      ST    R4,FFOUTLEN
 00221E 4120 6112            00112 16916  1                      LA    R2,FFOUTBUF
 002222 4130 00EB            000EB 16917  1                      LA    R3,L'FFOUTBUF
 002226 5840 6010            00010 16918  1                      L     R4,FFSPACE
 00222A 4150 6014            00014 16919  1                      LA    R5,FFLNO
 00222E 58E0 7560/0DEE       0275C 16920  1                      ACALL FFMOVE              SPACE OUT LINE
 002234 5800 6108            00108 16924  1                      L     R0,FFOUTLEN
 002238 4110 6112            00112 16925  1                      LA    R1,FFOUTBUF
 00223C 4120 6014            00014 16926  1                      LA    R2,FFLNO
 002240 58E0 7564/0DEE       02760 16927  1                      ACALL FFPUT               WRITE OUT LINE
 002246                            16931                       END
                                   16935                       COMMENT                   OR IF MARK SPECIFIED
 002246 704E/47F0 70A4 02246 02204 16936                       ELSE  BEGIN
 00224A 9240 610D      0010D       16947  1                      MVI   FFMARKID,C' '       CREATE MARK
 00224E 5800 600C            0000C 16948  1                      L     R0,FFLEVEL
 002252 4110 610F            0010F 16949  1                      LA    R1,FFMARKLV
 002256 58E0 7568/0DEE       02764 16950  1                      ACALL FFMRKLVL
 00225C 5800 6018            00018 16954  1                      L     R0,FFINLEN
 002260 4110 601C            0001C 16955  1                      LA    R1,FFINBUF
 002264 9140 6008/4710_00008       16956  1                      IF    ~FFFUNFMT,BEGIN
 00226C 58E0 755C/0DEE       02758 16971  2                        ACALL FFLTRIM             TRIM LINE, UNLESS UNFORMATED MARK
 002272                            16975  1                      END
 002272 5000 6108            00108 16979  1                      ST    R0,FFOUTLEN
 002276 4120 6112            00112 16980  1                      LA    R2,FFOUTBUF
 00227A 4130 00E5            000E5 16981  1                      LA    R3,L'FFOUTBUF-L'FFMARK
 00227E 1B44                       16982  1                      CLEAR R4
 002280 4150 6014            00014 16986  1                      LA    R5,FFLNO
 002284 58E0 7560/0DEE       0275C 16987  1                      ACALL FFMOVE              MOVE LINE
 00228A 5800 6108            00108 16991  1                      L     R0,FFOUTLEN
 00228E 5A00 756C            02768 16992  1                      A     R0,=A(L'FFMARK)
1FLOW     (FLOW2025) (12:45) (15MAR04) EXEC Formatting Routines                                                             Page   70
0Current Usings:  (FFWA,R6) (*,R7) (CP,R11) (CV,R12)
0Loc    Object Code    Addr1 Addr2  Stmt Lv Lineno    Source Statement           (Hibal 5, Asmedit 3.3)  HLASM R4.0  2004/03/15 12.45
+___    ______ ____    _____ _____  ____ __ ______    ______ _________
0002292 4110 610C            0010C 16993  1                      LA    R1,FFMARK
 002296 4120 6014            00014 16994  1                      LA    R2,FFLNO
 00229A 58E0 7564/0DEE       02760 16995  1                      ACALL FFPUT               WRITE OUT LINE
 0022A0                            16999                       END
                                   17003
 0022A0 1BFF                       17004                       CLEAR R15
 0022A2 18D8/9808 D004_            17008                       PEND  ,
 DROP   *,R7
 DROP   FFWA,R6                    17028                       DROP  R6
1FLOW     (FLOW2025) (12:45) (15MAR04) EXEC Formatting Routines                                                             Page   71
0Current Usings:  (CP,R11) (CV,R12)
0Loc    Object Code    Addr1 Addr2  Stmt Lv Lineno    Source Statement           (Hibal 5, Asmedit 3.3)  HLASM R4.0  2004/03/15 12.45
+___    ______ ____    _____ _____  ____ __ ______    ______ _________
0                                  17036              ¿þþþþþþþþþþþþþþþþþþþþþþþþþþþþþþþþþþþþþþþþþþþþþþþþþþþþþþþþþþþþþþþþþþþþþÜ
                                   17037              Ÿ                                                                     Ÿ
                                   17038              Ÿ                                                                     Ÿ
                                   17039              Ÿ  FFPBEGIN - PROCESS BEGIN LINE                                      Ÿ
                                   17040              Ÿ                                                                     Ÿ
                                   17041              Ÿ  ON ENTRY:                                                          Ÿ
                                   17042              Ÿ       R1 - FFWA, FORMATTING WORK AREA                               Ÿ
                                   17043              Ÿ                                                                     Ÿ
                                   17044              Ÿ                                                                     Ÿ
                                   17045              Ÿ                                                                     Ÿ
                                                      ¾þþþþþþþþþþþþþþþþþþþþþþþþþþþþþþþþþþþþþþþþþþþþþþþþþþþþþþþþþþþþþþþþþþþþþ»
00022B0 50E0 D000/9008_      00000 17046              FFPBEGIN PROC  ,
 USING  *,R7
 USING  FFWA,R6                    17085                       USING FFWA,R6
 0022CA 1861                       17094                       LR    R6,R1
                                   17095
                                   17096                       COMMENT                   PROCESS BEGIN LINE
 0022CC 9180 6008/4710_00008       17097                       IF    ~FFFMARK,BEGIN
 0022D4 5800 6018            00018 17112  1                      L     R0,FFINLEN
 0022D8 4110 601C            0001C 17113  1                      LA    R1,FFINBUF
 0022DC 58E0 748E/0DEE       02758 17114  1                      ACALL FFLTRIM             TRIM LINE
 0022E2 1840                       17118  1                      LR    R4,R0
 0022E4 5A40 6010            00010 17119  1                      A     R4,FFSPACE
 0022E8 5040 6108            00108 17120  1                      ST    R4,FFOUTLEN
 0022EC 4120 6112            00112 17121  1                      LA    R2,FFOUTBUF
 0022F0 4130 00EB            000EB 17122  1                      LA    R3,L'FFOUTBUF
 0022F4 5840 6010            00010 17123  1                      L     R4,FFSPACE
 0022F8 4150 6014            00014 17124  1                      LA    R5,FFLNO
 0022FC 58E0 7492/0DEE       0275C 17125  1                      ACALL FFMOVE              SPACE OUT LINE
 002302 5800 6108            00108 17129  1                      L     R0,FFOUTLEN
 002306 4110 6112            00112 17130  1                      LA    R1,FFOUTBUF
 00230A 4120 6014            00014 17131  1                      LA    R2,FFLNO
 00230E 58E0 7496/0DEE       02760 17132  1                      ACALL FFPUT               WRITE OUT LINE
 002314                            17136                       END
                                   17140                       COMMENT                   OR IF MARK SPECIFIED
 002314 704E/47F0 70A8 02314 022D2 17141                       ELSE  BEGIN
 002318 92C2 610D      0010D       17152  1                      MVI   FFMARKID,C'B'       CREATE MARK
 00231C 5800 600C            0000C 17153  1                      L     R0,FFLEVEL
 002320 5A00 74A2            0276C 17154  1                      A     R0,=F'1'
 002324 4110 610F            0010F 17155  1                      LA    R1,FFMARKLV
 002328 58E0 749A/0DEE       02764 17156  1                      ACALL FFMRKLVL
 00232E 5800 6018            00018 17160  1                      L     R0,FFINLEN
 002332 4110 601C            0001C 17161  1                      LA    R1,FFINBUF
 002336 9140 6008/4710_00008       17162  1                      IF    ~FFFUNFMT,BEGIN
 00233E 58E0 748E/0DEE       02758 17177  2                        ACALL FFLTRIM             TRIM LINE, UNLESS UNFORMATED MARK
 002344                            17181  1                      END
 002344 5000 6108            00108 17185  1                      ST    R0,FFOUTLEN
 002348 4120 6112            00112 17186  1                      LA    R2,FFOUTBUF
 00234C 4130 00E5            000E5 17187  1                      LA    R3,L'FFOUTBUF-L'FFMARK
 002350 1B44                       17188  1                      CLEAR R4
 002352 4150 6014            00014 17192  1                      LA    R5,FFLNO
 002356 58E0 7492/0DEE       0275C 17193  1                      ACALL FFMOVE              MOVE LINE
 00235C 5800 6108            00108 17197  1                      L     R0,FFOUTLEN
1FLOW     (FLOW2025) (12:45) (15MAR04) EXEC Formatting Routines                                                             Page   72
0Current Usings:  (FFWA,R6) (*,R7) (CP,R11) (CV,R12)
0Loc    Object Code    Addr1 Addr2  Stmt Lv Lineno    Source Statement           (Hibal 5, Asmedit 3.3)  HLASM R4.0  2004/03/15 12.45
+___    ______ ____    _____ _____  ____ __ ______    ______ _________
0002360 5A00 749E            02768 17198  1                      A     R0,=A(L'FFMARK)
 002364 4110 610C            0010C 17199  1                      LA    R1,FFMARK
 002368 4120 6014            00014 17200  1                      LA    R2,FFLNO
 00236C 58E0 7496/0DEE       02760 17201  1                      ACALL FFPUT               WRITE OUT LINE
 002372                            17205                       END
                                   17209                       COMMENT                   UPDATE LEVEL, SPACING, VALUES
 002372 5810 600C            0000C 17210                       L     R1,FFLEVEL
 002376 5A10 74A2            0276C 17211                       A     R1,=F'1'
 00237A 5010 600C            0000C 17212                       ST    R1,FFLEVEL
 00237E 5810 6010            00010 17213                       L     R1,FFSPACE
 002382 5A10 6004            00004 17214                       A     R1,FFINDENT
 002386 5010 6010            00010 17215                       ST    R1,FFSPACE
                                   17216
 00238A 1BFF                       17217                       CLEAR R15
 00238C 18D8/9808 D004_            17221                       PEND  ,
 DROP   *,R7
 DROP   FFWA,R6                    17241                       DROP  R6
1FLOW     (FLOW2025) (12:45) (15MAR04) EXEC Formatting Routines                                                             Page   73
0Current Usings:  (CP,R11) (CV,R12)
0Loc    Object Code    Addr1 Addr2  Stmt Lv Lineno    Source Statement           (Hibal 5, Asmedit 3.3)  HLASM R4.0  2004/03/15 12.45
+___    ______ ____    _____ _____  ____ __ ______    ______ _________
0                                  17249              ¿þþþþþþþþþþþþþþþþþþþþþþþþþþþþþþþþþþþþþþþþþþþþþþþþþþþþþþþþþþþþþþþþþþþþþÜ
                                   17250              Ÿ                                                                     Ÿ
                                   17251              Ÿ                                                                     Ÿ
                                   17252              Ÿ  FFPEND - PROCESS END LINE                                          Ÿ
                                   17253              Ÿ                                                                     Ÿ
                                   17254              Ÿ  ON ENTRY:                                                          Ÿ
                                   17255              Ÿ       R1 - FFWA, FORMATTING WORK AREA                               Ÿ
                                   17256              Ÿ                                                                     Ÿ
                                   17257              Ÿ                                                                     Ÿ
                                   17258              Ÿ                                                                     Ÿ
                                                      ¾þþþþþþþþþþþþþþþþþþþþþþþþþþþþþþþþþþþþþþþþþþþþþþþþþþþþþþþþþþþþþþþþþþþþþ»
000239A 50E0 D000/9008_      00000 17259              FFPEND   PROC  ,
 USING  *,R7
 USING  FFWA,R6                    17298                       USING FFWA,R6
 0023B4 1861                       17307                       LR    R6,R1
                                   17308
                                   17309                       COMMENT                   PROCESS END LINE
 0023B6 9180 6008/4710_00008       17310                       IF    ~FFFMARK,BEGIN
 0023BE 5800 6018            00018 17325  1                      L     R0,FFINLEN
 0023C2 4110 601C            0001C 17326  1                      LA    R1,FFINBUF
 0023C6 58E0 73A4/0DEE       02758 17327  1                      ACALL FFLTRIM             TRIM LINE
 0023CC 1840                       17331  1                      LR    R4,R0
 0023CE 5A40 6010            00010 17332  1                      A     R4,FFSPACE
 0023D2 5B40 6004            00004 17333  1                      S     R4,FFINDENT
 0023D6 5040 6108            00108 17334  1                      ST    R4,FFOUTLEN
 0023DA 4120 6112            00112 17335  1                      LA    R2,FFOUTBUF
 0023DE 4130 00EB            000EB 17336  1                      LA    R3,L'FFOUTBUF
 0023E2 5840 6010            00010 17337  1                      L     R4,FFSPACE
 0023E6 5B40 6004            00004 17338  1                      S     R4,FFINDENT
 0023EA 4150 6014            00014 17339  1                      LA    R5,FFLNO
 0023EE 58E0 73A8/0DEE       0275C 17340  1                      ACALL FFMOVE              SPACE OUT LINE
 0023F4 5800 6108            00108 17344  1                      L     R0,FFOUTLEN
 0023F8 4110 6112            00112 17345  1                      LA    R1,FFOUTBUF
 0023FC 4120 6014            00014 17346  1                      LA    R2,FFLNO
 002400 58E0 73AC/0DEE       02760 17347  1                      ACALL FFPUT               WRITE OUT LINE
 002406                            17351                       END
                                   17355                       COMMENT                   OR IF MARK SPECIFIED
 002406 7056/47F0 70AC 02406 023BC 17356                       ELSE  BEGIN
 00240A 92C5 610D      0010D       17367  1                      MVI   FFMARKID,C'E'       CREATE MARK
 00240E 5800 600C            0000C 17368  1                      L     R0,FFLEVEL
 002412 4110 610F            0010F 17369  1                      LA    R1,FFMARKLV
 002416 58E0 73B0/0DEE       02764 17370  1                      ACALL FFMRKLVL
 00241C 5800 6018            00018 17374  1                      L     R0,FFINLEN
 002420 4110 601C            0001C 17375  1                      LA    R1,FFINBUF
 002424 9140 6008/4710_00008       17376  1                      IF    ~FFFUNFMT,BEGIN
 00242C 58E0 73A4/0DEE       02758 17391  2                        ACALL FFLTRIM             TRIM LINE, UNLESS UNFORMATED MARK
 002432                            17395  1                      END
 002432 5000 6108            00108 17399  1                      ST    R0,FFOUTLEN
 002436 4120 6112            00112 17400  1                      LA    R2,FFOUTBUF
 00243A 4130 00E5            000E5 17401  1                      LA    R3,L'FFOUTBUF-L'FFMARK
 00243E 1B44                       17402  1                      CLEAR R4
 002440 4150 6014            00014 17406  1                      LA    R5,FFLNO
 002444 58E0 73A8/0DEE       0275C 17407  1                      ACALL FFMOVE              MOVE LINE
1FLOW     (FLOW2025) (12:45) (15MAR04) EXEC Formatting Routines                                                             Page   74
0Current Usings:  (FFWA,R6) (*,R7) (CP,R11) (CV,R12)
0Loc    Object Code    Addr1 Addr2  Stmt Lv Lineno    Source Statement           (Hibal 5, Asmedit 3.3)  HLASM R4.0  2004/03/15 12.45
+___    ______ ____    _____ _____  ____ __ ______    ______ _________
000244A 5800 6108            00108 17411  1                      L     R0,FFOUTLEN
 00244E 5A00 73B4            02768 17412  1                      A     R0,=A(L'FFMARK)
 002452 4110 610C            0010C 17413  1                      LA    R1,FFMARK
 002456 4120 6014            00014 17414  1                      LA    R2,FFLNO
 00245A 58E0 73AC/0DEE       02760 17415  1                      ACALL FFPUT               WRITE OUT LINE
 002460                            17419                       END
                                   17423                       COMMENT                   UPDATE LEVEL, SPACING, VALUES
 002460 5810 600C            0000C 17424                       L     R1,FFLEVEL
 002464 5B10 73B8            0276C 17425                       S     R1,=F'1'
 002468 5010 600C            0000C 17426                       ST    R1,FFLEVEL
 00246C 5810 6010            00010 17427                       L     R1,FFSPACE
 002470 5B10 6004            00004 17428                       S     R1,FFINDENT
 002474 5010 6010            00010 17429                       ST    R1,FFSPACE
                                   17430
 002478 1BFF                       17431                       CLEAR R15
 00247A 18D8/9808 D004_            17435                       PEND  ,
 DROP   *,R7
 DROP   FFWA,R6                    17455                       DROP  R6
1FLOW     (FLOW2025) (12:45) (15MAR04) EXEC Formatting Routines                                                             Page   75
0Current Usings:  (CP,R11) (CV,R12)
0Loc    Object Code    Addr1 Addr2  Stmt Lv Lineno    Source Statement           (Hibal 5, Asmedit 3.3)  HLASM R4.0  2004/03/15 12.45
+___    ______ ____    _____ _____  ____ __ ______    ______ _________
0                                  17463              ¿þþþþþþþþþþþþþþþþþþþþþþþþþþþþþþþþþþþþþþþþþþþþþþþþþþþþþþþþþþþþþþþþþþþþþÜ
                                   17464              Ÿ                                                                     Ÿ
                                   17465              Ÿ                                                                     Ÿ
                                   17466              Ÿ  FFPCOMM - PROCESS COMMENT LINE                                     Ÿ
                                   17467              Ÿ                                                                     Ÿ
                                   17468              Ÿ  ON ENTRY:                                                          Ÿ
                                   17469              Ÿ       R1 - FFWA, FORMATTING WORK AREA                               Ÿ
                                   17470              Ÿ                                                                     Ÿ
                                   17471              Ÿ                                                                     Ÿ
                                   17472              Ÿ                                                                     Ÿ
                                                      ¾þþþþþþþþþþþþþþþþþþþþþþþþþþþþþþþþþþþþþþþþþþþþþþþþþþþþþþþþþþþþþþþþþþþþþ»
0002488 50E0 D000/9008_      00000 17473              FFPCOMM  PROC  ,
 USING  *,R7
 USING  FFWA,R6                    17512                       USING FFWA,R6
 0024A2 1861                       17521                       LR    R6,R1
                                   17522
                                   17523                       COMMENT                   PROCESS COMMENT LINE
 0024A4 9180 6008/4710_00008       17524                       IF    ~FFFMARK,BEGIN
 0024AC 5800 6018            00018 17539  1                      L     R0,FFINLEN
 0024B0 4110 601C            0001C 17540  1                      LA    R1,FFINBUF
 0024B4 58E0 72B6/0DEE       02758 17541  1                      ACALL FFLTRIM             TRIM LINE
 0024BA 1840                       17545  1                      LR    R4,R0
 0024BC 5A40 6010            00010 17546  1                      A     R4,FFSPACE
 0024C0 5040 6108            00108 17547  1                      ST    R4,FFOUTLEN
 0024C4 4120 6112            00112 17548  1                      LA    R2,FFOUTBUF
 0024C8 4130 00EB            000EB 17549  1                      LA    R3,L'FFOUTBUF
 0024CC 5840 6010            00010 17550  1                      L     R4,FFSPACE
 0024D0 955E 601C/4770_0001C       17551  1                      IF    (FFINBUF,EQ,';'),BEGIN  IF ';'1 ,, DO NOT SPACE
 0024D8 1B44                       17568  2                        CLEAR R4
 0024DA 5850 6108            00108 17572  2                        L     R5,FFOUTLEN
 0024DE 5B50 6010            00010 17573  2                        S     R5,FFSPACE
 0024E2 5050 6108            00108 17574  2                        ST    R5,FFOUTLEN
 0024E6                            17575  1                      END
 0024E6 4150 6014            00014 17579  1                      LA    R5,FFLNO
 0024EA 58E0 72BA/0DEE       0275C 17580  1                      ACALL FFMOVE              SPACE OUT LINE
 0024F0 5800 6108            00108 17584  1                      L     R0,FFOUTLEN
 0024F4 4110 6112            00112 17585  1                      LA    R1,FFOUTBUF
 0024F8 4120 6014            00014 17586  1                      LA    R2,FFLNO
 0024FC 58E0 72BE/0DEE       02760 17587  1                      ACALL FFPUT               WRITE OUT LINE
 002502                            17591                       END
                                   17595                       COMMENT                   OR IF MARK SPECIFIED
 002502 7064/47F0 70BA 02502 024AA 17596                       ELSE  BEGIN
 002506 92C3 610D      0010D       17607  1                      MVI   FFMARKID,C'C'       CREATE MARK
 00250A 5800 600C            0000C 17608  1                      L     R0,FFLEVEL
 00250E 4110 610F            0010F 17609  1                      LA    R1,FFMARKLV
 002512 58E0 72C2/0DEE       02764 17610  1                      ACALL FFMRKLVL
 002518 5800 6018            00018 17614  1                      L     R0,FFINLEN
 00251C 4110 601C            0001C 17615  1                      LA    R1,FFINBUF
 002520 9140 6008/4710_00008       17616  1                      IF    ~FFFUNFMT,BEGIN
 002528 58E0 72B6/0DEE       02758 17631  2                        ACALL FFLTRIM             TRIM LINE, UNLESS UNFORMATED MARK
 00252E                            17635  1                      END
 00252E 5000 6108            00108 17639  1                      ST    R0,FFOUTLEN
 002532 4120 6112            00112 17640  1                      LA    R2,FFOUTBUF
1FLOW     (FLOW2025) (12:45) (15MAR04) EXEC Formatting Routines                                                             Page   76
0Current Usings:  (FFWA,R6) (*,R7) (CP,R11) (CV,R12)
0Loc    Object Code    Addr1 Addr2  Stmt Lv Lineno    Source Statement           (Hibal 5, Asmedit 3.3)  HLASM R4.0  2004/03/15 12.45
+___    ______ ____    _____ _____  ____ __ ______    ______ _________
0002536 4130 00E5            000E5 17641  1                      LA    R3,L'FFOUTBUF-L'FFMARK
 00253A 1B44                       17642  1                      CLEAR R4
 00253C 4150 6014            00014 17646  1                      LA    R5,FFLNO
 002540 58E0 72BA/0DEE       0275C 17647  1                      ACALL FFMOVE              MOVE LINE
 002546 5800 6108            00108 17651  1                      L     R0,FFOUTLEN
 00254A 5A00 72C6            02768 17652  1                      A     R0,=A(L'FFMARK)
 00254E 4110 610C            0010C 17653  1                      LA    R1,FFMARK
 002552 4120 6014            00014 17654  1                      LA    R2,FFLNO
 002556 58E0 72BE/0DEE       02760 17655  1                      ACALL FFPUT               WRITE OUT LINE
 00255C                            17659                       END
                                   17663
 00255C 1BFF                       17664                       CLEAR R15
 00255E 18D8/9808 D004_            17668                       PEND  ,
 DROP   *,R7
 DROP   FFWA,R6                    17688                       DROP  R6
1FLOW     (FLOW2025) (12:45) (15MAR04) EXEC Formatting Routines                                                             Page   77
0Current Usings:  (CP,R11) (CV,R12)
0Loc    Object Code    Addr1 Addr2  Stmt Lv Lineno    Source Statement           (Hibal 5, Asmedit 3.3)  HLASM R4.0  2004/03/15 12.45
+___    ______ ____    _____ _____  ____ __ ______    ______ _________
0                                  17696              ¿þþþþþþþþþþþþþþþþþþþþþþþþþþþþþþþþþþþþþþþþþþþþþþþþþþþþþþþþþþþþþþþþþþþþþÜ
                                   17697              Ÿ                                                                     Ÿ
                                   17698              Ÿ                                                                     Ÿ
                                   17699              Ÿ  FFPLABEL - PROCESS LABEL LINE                                      Ÿ
                                   17700              Ÿ                                                                     Ÿ
                                   17701              Ÿ  ON ENTRY:                                                          Ÿ
                                   17702              Ÿ       R1 - FFWA, FORMATTING WORK AREA                               Ÿ
                                   17703              Ÿ                                                                     Ÿ
                                   17704              Ÿ                                                                     Ÿ
                                   17705              Ÿ                                                                     Ÿ
                                                      ¾þþþþþþþþþþþþþþþþþþþþþþþþþþþþþþþþþþþþþþþþþþþþþþþþþþþþþþþþþþþþþþþþþþþþþ»
000256C 50E0 D000/9008_      00000 17706              FFPLABEL PROC  ,
 USING  *,R7
 USING  FFWA,R6                    17745                       USING FFWA,R6
 002586 1861                       17754                       LR    R6,R1
                                   17755
                                   17756                       COMMENT                   PROCESS LABEL LINE
 002588 9180 6008/4710_00008       17757                       IF    ~FFFMARK,BEGIN
 002590 5800 6018            00018 17772  1                      L     R0,FFINLEN
 002594 4110 601C            0001C 17773  1                      LA    R1,FFINBUF
 002598 58E0 71D2/0DEE       02758 17774  1                      ACALL FFLTRIM             TRIM LINE
 00259E 1840                       17778  1                      LR    R4,R0
 0025A0 5040 6108            00108 17779  1                      ST    R4,FFOUTLEN
 0025A4 4120 6112            00112 17780  1                      LA    R2,FFOUTBUF
 0025A8 4130 00EB            000EB 17781  1                      LA    R3,L'FFOUTBUF
 0025AC 1B44                       17782  1                      CLEAR R4
 0025AE 4150 6014            00014 17786  1                      LA    R5,FFLNO
 0025B2 58E0 71D6/0DEE       0275C 17787  1                      ACALL FFMOVE              SPACE OUT LINE
 0025B8 5800 6108            00108 17791  1                      L     R0,FFOUTLEN
 0025BC 4110 6112            00112 17792  1                      LA    R1,FFOUTBUF
 0025C0 4120 6014            00014 17793  1                      LA    R2,FFLNO
 0025C4 58E0 71DA/0DEE       02760 17794  1                      ACALL FFPUT               WRITE OUT LINE
 0025CA                            17798                       END
                                   17802                       COMMENT                   OR IF MARK SPECIFIED
 0025CA 7048/47F0 709E 025CA 0258E 17803                       ELSE  BEGIN
 0025CE 92D3 610D      0010D       17814  1                      MVI   FFMARKID,C'L'       CREATE MARK
 0025D2 5800 600C            0000C 17815  1                      L     R0,FFLEVEL
 0025D6 4110 610F            0010F 17816  1                      LA    R1,FFMARKLV
 0025DA 58E0 71DE/0DEE       02764 17817  1                      ACALL FFMRKLVL
 0025E0 5800 6018            00018 17821  1                      L     R0,FFINLEN
 0025E4 4110 601C            0001C 17822  1                      LA    R1,FFINBUF
 0025E8 9140 6008/4710_00008       17823  1                      IF    ~FFFUNFMT,BEGIN
 0025F0 58E0 71D2/0DEE       02758 17838  2                        ACALL FFLTRIM             TRIM LINE, UNLESS UNFORMATED MARK
 0025F6                            17842  1                      END
 0025F6 5000 6108            00108 17846  1                      ST    R0,FFOUTLEN
 0025FA 4120 6112            00112 17847  1                      LA    R2,FFOUTBUF
 0025FE 4130 00E5            000E5 17848  1                      LA    R3,L'FFOUTBUF-L'FFMARK
 002602 1B44                       17849  1                      CLEAR R4
 002604 4150 6014            00014 17853  1                      LA    R5,FFLNO
 002608 58E0 71D6/0DEE       0275C 17854  1                      ACALL FFMOVE              MOVE LINE
 00260E 5800 6108            00108 17858  1                      L     R0,FFOUTLEN
 002612 5A00 71E2            02768 17859  1                      A     R0,=A(L'FFMARK)
 002616 4110 610C            0010C 17860  1                      LA    R1,FFMARK
1FLOW     (FLOW2025) (12:45) (15MAR04) EXEC Formatting Routines                                                             Page   78
0Current Usings:  (FFWA,R6) (*,R7) (CP,R11) (CV,R12)
0Loc    Object Code    Addr1 Addr2  Stmt Lv Lineno    Source Statement           (Hibal 5, Asmedit 3.3)  HLASM R4.0  2004/03/15 12.45
+___    ______ ____    _____ _____  ____ __ ______    ______ _________
000261A 4120 6014            00014 17861  1                      LA    R2,FFLNO
 00261E 58E0 71DA/0DEE       02760 17862  1                      ACALL FFPUT               WRITE OUT LINE
 002624                            17866                       END
                                   17870
 002624 1BFF                       17871                       CLEAR R15
 002626 18D8/9808 D004_            17875                       PEND  ,
 DROP   *,R7
 DROP   FFWA,R6                    17895                       DROP  R6
1FLOW     (FLOW2025) (12:45) (15MAR04) EXEC Formatting Routines                                                             Page   79
0Current Usings:  (CP,R11) (CV,R12)
0Loc    Object Code    Addr1 Addr2  Stmt Lv Lineno    Source Statement           (Hibal 5, Asmedit 3.3)  HLASM R4.0  2004/03/15 12.45
+___    ______ ____    _____ _____  ____ __ ______    ______ _________
0                                  17903              ¿þþþþþþþþþþþþþþþþþþþþþþþþþþþþþþþþþþþþþþþþþþþþþþþþþþþþþþþþþþþþþþþþþþþþþÜ
                                   17904              Ÿ                                                                     Ÿ
                                   17905              Ÿ                                                                     Ÿ
                                   17906              Ÿ  FFPCONT - PROCESS CONTINUE LINE                                    Ÿ
                                   17907              Ÿ                                                                     Ÿ
                                   17908              Ÿ  ON ENTRY:                                                          Ÿ
                                   17909              Ÿ       R1 - FFWA, FORMATTING WORK AREA                               Ÿ
                                   17910              Ÿ                                                                     Ÿ
                                   17911              Ÿ                                                                     Ÿ
                                   17912              Ÿ                                                                     Ÿ
                                                      ¾þþþþþþþþþþþþþþþþþþþþþþþþþþþþþþþþþþþþþþþþþþþþþþþþþþþþþþþþþþþþþþþþþþþþþ»
0002634 50E0 D000/9008_      00000 17913              FFPCONT  PROC  ,
 USING  *,R7
 USING  FFWA,R6                    17952                       USING FFWA,R6
 00264E 1861                       17961                       LR    R6,R1
                                   17962
                                   17963                       COMMENT                   PROCESS CONTINUE LINE
 002650 9180 6008/4710_00008       17964                       IF    ~FFFMARK,BEGIN
 002658 5800 6018            00018 17979  1                      L     R0,FFINLEN
 00265C 4110 601C            0001C 17980  1                      LA    R1,FFINBUF
 002660 58E0 710A/0DEE       02758 17981  1                      ACALL FFLTRIM             TRIM LINE
 002666 1840                       17985  1                      LR    R4,R0
 002668 5A40 6010            00010 17986  1                      A     R4,FFSPACE
 00266C 5A40 6004            00004 17987  1                      A     R4,FFINDENT
 002670 5040 6108            00108 17988  1                      ST    R4,FFOUTLEN
 002674 4120 6112            00112 17989  1                      LA    R2,FFOUTBUF
 002678 4130 00EB            000EB 17990  1                      LA    R3,L'FFOUTBUF
 00267C 5840 6010            00010 17991  1                      L     R4,FFSPACE
 002680 5A40 6004            00004 17992  1                      A     R4,FFINDENT
 002684 4150 6014            00014 17993  1                      LA    R5,FFLNO
 002688 58E0 710E/0DEE       0275C 17994  1                      ACALL FFMOVE              SPACE OUT LINE
 00268E 5800 6108            00108 17998  1                      L     R0,FFOUTLEN
 002692 4110 6112            00112 17999  1                      LA    R1,FFOUTBUF
 002696 4120 6014            00014 18000  1                      LA    R2,FFLNO
 00269A 58E0 7112/0DEE       02760 18001  1                      ACALL FFPUT               WRITE OUT LINE
 0026A0                            18005                       END
                                   18009                       COMMENT                   OR IF MARK SPECIFIED
 0026A0 7056/47F0 70AC 026A0 02656 18010                       ELSE  BEGIN
 0026A4 924E 610D      0010D       18021  1                      MVI   FFMARKID,C'+'       CREATE MARK
 0026A8 5800 600C            0000C 18022  1                      L     R0,FFLEVEL
 0026AC 4110 610F            0010F 18023  1                      LA    R1,FFMARKLV
 0026B0 58E0 7116/0DEE       02764 18024  1                      ACALL FFMRKLVL
 0026B6 5800 6018            00018 18028  1                      L     R0,FFINLEN
 0026BA 4110 601C            0001C 18029  1                      LA    R1,FFINBUF
 0026BE 9140 6008/4710_00008       18030  1                      IF    ~FFFUNFMT,BEGIN
 0026C6 58E0 710A/0DEE       02758 18045  2                        ACALL FFLTRIM             TRIM LINE, UNLESS UNFORMATED MARK
 0026CC                            18049  1                      END
 0026CC 5000 6108            00108 18053  1                      ST    R0,FFOUTLEN
 0026D0 4120 6112            00112 18054  1                      LA    R2,FFOUTBUF
 0026D4 4130 00E5            000E5 18055  1                      LA    R3,L'FFOUTBUF-L'FFMARK
 0026D8 1B44                       18056  1                      CLEAR R4
 0026DA 4150 6014            00014 18060  1                      LA    R5,FFLNO
 0026DE 58E0 710E/0DEE       0275C 18061  1                      ACALL FFMOVE              MOVE LINE
1FLOW     (FLOW2025) (12:45) (15MAR04) EXEC Formatting Routines                                                             Page   80
0Current Usings:  (FFWA,R6) (*,R7) (CP,R11) (CV,R12)
0Loc    Object Code    Addr1 Addr2  Stmt Lv Lineno    Source Statement           (Hibal 5, Asmedit 3.3)  HLASM R4.0  2004/03/15 12.45
+___    ______ ____    _____ _____  ____ __ ______    ______ _________
00026E4 5800 6108            00108 18065  1                      L     R0,FFOUTLEN
 0026E8 5A00 711A            02768 18066  1                      A     R0,=A(L'FFMARK)
 0026EC 4110 610C            0010C 18067  1                      LA    R1,FFMARK
 0026F0 4120 6014            00014 18068  1                      LA    R2,FFLNO
 0026F4 58E0 7112/0DEE       02760 18069  1                      ACALL FFPUT               WRITE OUT LINE
 0026FA                            18073                       END
                                   18077
 0026FA 1BFF                       18078                       CLEAR R15
 0026FC 18D8/9808 D004_            18082                       PEND  ,
 DROP   *,R7
 DROP   FFWA,R6                    18102                       DROP  R6
                                   18109
                                   18110                       QLTORG
1FLOW     (FLOW2025) (12:45) (15MAR04) EXEC Formatting Routines                                                             Page   81
0Current Usings:  (CP,R11) (CV,R12)
0Loc    Object Code    Addr1 Addr2  Stmt Lv Lineno    Source Statement           (Hibal 5, Asmedit 3.3)  HLASM R4.0  2004/03/15 12.45
+___    ______ ____    _____ _____  ____ __ ______    ______ _________
0                                  18148              ¿þþþþþþþþþþþþþþþþþþþþþþþþþþþþþþþþþþþþþþþþþþþþþþþþþþþþþþþþþþþþþþþþþþþþþÜ
                                   18149              Ÿ                                                                     Ÿ
                                   18150              Ÿ                                                                     Ÿ
                                   18151              Ÿ  FFCBEGIN - CHECK LINE FOR BEGIN                                    Ÿ
                                   18152              Ÿ                                                                     Ÿ
                                   18153              Ÿ  ON ENTRY:                                                          Ÿ
                                   18154              Ÿ       R0 - LINE LENGTH                                              Ÿ
                                   18155              Ÿ       R1 - LINE LOCATION                                            Ÿ
                                   18156              Ÿ                                                                     Ÿ
                                   18157              Ÿ  ON EXIT:                                                           Ÿ
                                   18158              Ÿ       R15 - CC=ZERO, BEGIN FOUND                                    Ÿ
                                   18159              Ÿ             CC=NZ, BEGIN NOT FOUND                                  Ÿ
                                   18160              Ÿ                                                                     Ÿ
                                   18161              Ÿ  NOTE: IT IS ASSUMED LINE IS ALREADY SCANNED (BY XSCAN)             Ÿ
                                   18162              Ÿ       FOR SYNTAX.                                                   Ÿ
                                   18163              Ÿ                                                                     Ÿ
                                   18164              Ÿ                                                                     Ÿ
                                                      ¾þþþþþþþþþþþþþþþþþþþþþþþþþþþþþþþþþþþþþþþþþþþþþþþþþþþþþþþþþþþþþþþþþþþþþ»
0002776 50E0 D000/9008_      00000 18165              FFCBEGIN PROC  ,
 USING  *,R7
                                   18204
                                   18205                       COMMENT                   SCAN FOR BEGIN BLOCKS
 002790 58E0 B08C/501E_      0008C 18206                       SCINIT (R1),(R0)
 00279E 5810 B08C/1B00_      0008C 18226                       SCAN FFBEPRT
 0027F0 58E0 77D8/0DEE       02F68 18258                       SCANCHK
 0027F6 59F0 77DC/4770_      02F6C 18263                       IF    (R15,EQ,4),' CLEAR R15 '    BEGIN FOUND
 002800 59F0 77E0/4770_      02F70 18289                       IF    (R15,EQ,8),' LA R15,4  '    BEGIN NOT FOUND
 00280C 18D8/9808 D004_            18312                       PEND  ,
 DROP   *,R7
-
0                                  18333                       ¿þþþþþþþþþþþþþþþþþþþþþþþþþþþþþþþÜ
                                   18334                       Ÿ  SCAN TABLE FOR BEGIN BLOCKS  Ÿ
                                   18335                       ¾þþþþþþþþþþþþþþþþþþþþþþþþþþþþþþþ»
 00281C 4040404040404040_          18336              FFBEPRT  SCKW  ,FFSNONE,NULL
 002844 E6C8C9D3C5404040_          18351                       SCKW  WHILE,FFSXPR
 00286C C9C6404040404040_          18366                       SCKW  IF,FFSXPR
 002894 C5D3E2C5C9C64040_          18381                       SCKW  ELSEIF,FFSXPR
 0028BC C5D3E2C540404040_          18396                       SCKW  ELSE,FFSNOXPR
 0028E4 D9C5D7C5C1E34040_          18411                       SCKW  REPEAT,FFSNOXPR
 00290C C3C1E2C5E2404040_          18426                       SCKW  CASES,FFSNOXPR
 002934 C3C1E2C540404040_          18441                       SCKW  CASE,FFSXPR
 00295C E7D7D9D6C3404040_          18456                       SCKW  XPROC,FFSXPR
 002984 D7D9D6C340404040_          18471                       SCKW  PROC,FFSPROC
 0029AC 4040404040404040_          18486                       SCKW  ,FFSNONE
-
1FLOW     (FLOW2025) (12:45) (15MAR04) EXEC Formatting Routines                                                             Page   82
0Current Usings:  (CP,R11) (CV,R12)
0Loc    Object Code    Addr1 Addr2  Stmt Lv Lineno    Source Statement           (Hibal 5, Asmedit 3.3)  HLASM R4.0  2004/03/15 12.45
+___    ______ ____    _____ _____  ____ __ ______    ______ _________
0                                  18502                       ¿þþþþþþþþþþþþþþþþþþþþþþþþþþþþþþþþþþÜ
                                   18503                       Ÿ  SCAN ROUTINES FOR BEGIN BLOCKS  Ÿ
                                   18504                       ¾þþþþþþþþþþþþþþþþþþþþþþþþþþþþþþþþþþ»
 0029D4 50E0 D000/9008_      00000 18505              FFSNONE  PROC  ,                   NO BEGIN
 USING  *,R7
 0029EE 41F0 0008            00008 18544                       LA    R15,8
 0029F2 18D8/9808 D004_            18545                       PEND  ,
 DROP   *,R7
                                   18565
 002A00 50E0 D000/9008_      00000 18566              FFSXPR   PROC  ,                   LOOK FOR BEGIN, AFTER EXPRESSION
 USING  *,R7
 002A1A 58E0 B08C/581E_      0008C 18605                       SCINFO
 002A28 58E0 755A/0DEE       02F74 18614                       ACALL SKIPEXPR
 002A2E 58E0 B08C/501E_      0008C 18618                       SCINIT (R1),(R0)
 002A3C 58E0 755E/0DEE       02F78 18638                       ACALL SCNBEGIN
 002A42 4770 7030            02A4A 18642                       IF    Z,BEGIN
 002A46 41F0 0004            00004 18653  1                      LA    R15,4
 002A4A                            18654                       END
 002A4A 7034/47F0 7038 02A4A 02A44 18658                       ELSE  BEGIN
 002A4E 41F0 0008            00008 18669  1                      LA    R15,8
 002A52                            18670                       END
 002A52 18D8/9808 D004_            18674                       PEND  ,
 DROP   *,R7
                                   18694
 002A60 50E0 D000/9008_      00000 18695              FFSNOXPR PROC  ,                   LOOK FOR BEGIN, WITHOUT EXPR
 USING  *,R7
 002A7A 58E0 74FE/0DEE       02F78 18734                       ACALL SCNBEGIN
 002A80 4770 700E            02A88 18738                       IF    Z,BEGIN
 002A84 41F0 0004            00004 18749  1                      LA    R15,4
 002A88                            18750                       END
 002A88 7012/47F0 7016 02A88 02A82 18754                       ELSE  BEGIN
 002A8C 41F0 0008            00008 18765  1                      LA    R15,8
 002A90                            18766                       END
 002A90 18D8/9808 D004_            18770                       PEND  ,
 DROP   *,R7
                                   18790
 002A9E 50E0 D000/9008_      00000 18791              FFSPROC  PROC  ,                   LOOK FOR BEGIN, ON PROC STATEMENT
 USING  *,R7
 002AB8 5810 B08C/1B00_      0008C 18830                       SCAN  ,                   SKIP PAST PROC NAME
 002B06 58E0 74B0/0DEE       02F68 18861                       SCANCHK
 002B0C 58E0 B08C/581E_      0008C 18866                       SCINFO
 002B1A 58E0 74BC/0DEE       02F74 18875                       ACALL SKIPEXPR
 002B20 58E0 B08C/501E_      0008C 18879                       SCINIT (R1),(R0)
 002B2E 58E0 74C0/0DEE       02F78 18899                       ACALL SCNBEGIN
 002B34 4770 7084            02B3C 18903                       IF    Z,BEGIN
 002B38 41F0 0004            00004 18914  1                      LA    R15,4
 002B3C                            18915                       END
 002B3C 7088/47F0 708C 02B3C 02B36 18919                       ELSE  BEGIN
 002B40 41F0 0008            00008 18930  1                      LA    R15,8
 002B44                            18931                       END
 002B44 18D8/9808 D004_            18935                       PEND  ,
 DROP   *,R7
1FLOW     (FLOW2025) (12:45) (15MAR04) EXEC Formatting Routines                                                             Page   83
0Current Usings:  (CP,R11) (CV,R12)
0Loc    Object Code    Addr1 Addr2  Stmt Lv Lineno    Source Statement           (Hibal 5, Asmedit 3.3)  HLASM R4.0  2004/03/15 12.45
+___    ______ ____    _____ _____  ____ __ ______    ______ _________
0                                  18956              ¿þþþþþþþþþþþþþþþþþþþþþþþþþþþþþþþþþþþþþþþþþþþþþþþþþþþþþþþþþþþþþþþþþþþþþÜ
                                   18957              Ÿ                                                                     Ÿ
                                   18958              Ÿ                                                                     Ÿ
                                   18959              Ÿ  FFCEND - CHECK LINE FOR END                                        Ÿ
                                   18960              Ÿ                                                                     Ÿ
                                   18961              Ÿ  ON ENTRY:                                                          Ÿ
                                   18962              Ÿ       R0 - LINE LENGTH                                              Ÿ
                                   18963              Ÿ       R1 - LINE LOCATION                                            Ÿ
                                   18964              Ÿ                                                                     Ÿ
                                   18965              Ÿ  ON EXIT:                                                           Ÿ
                                   18966              Ÿ       R15 - CC=ZERO, END FOUND                                      Ÿ
                                   18967              Ÿ           - CC=NZ, END NOT FOUND                                    Ÿ
                                   18968              Ÿ                                                                     Ÿ
                                   18969              Ÿ  NOTE: IT IS ASSUMMED LINE IS ALREADY SCANNED (BY XSCAN)            Ÿ
                                   18970              Ÿ       FOR SYNTAX.                                                   Ÿ
                                   18971              Ÿ                                                                     Ÿ
                                   18972              Ÿ                                                                     Ÿ
                                                      ¾þþþþþþþþþþþþþþþþþþþþþþþþþþþþþþþþþþþþþþþþþþþþþþþþþþþþþþþþþþþþþþþþþþþþþ»
0002B52 50E0 D000/9008_      00000 18973              FFCEND   PROC  ,
 USING  *,R7
                                   19012
                                   19013                       COMMENT                   SCAN FOR END
 002B6C 58E0 B08C/501E_      0008C 19014                       SCINIT (R1),(R0)
 002B7A 5810 B08C/1B00_      0008C 19034                       SCAN  ,
 002BC8 5830 B08C/4133_      0008C 19065                       SCUPTOK R3
 002BD0 1200/4780 7076_            19069                       IF    ((R0,NZ),AND,(@R3,EQ,'END ')),BEGIN
 002BE0 1BFF                       19098  1                      CLEAR R15
 002BE2                            19102                       END
 002BE2 707A/707A/47F0_02BE2 02BD4 19106                       ELSE  BEGIN
 002BE6 41F0 0004            00004 19119  1                      LA    R15,4
 002BEA                            19120                       END
                                   19124
 002BEA 18D8/9808 D004_            19125                       PEND  ,
 DROP   *,R7
1FLOW     (FLOW2025) (12:45) (15MAR04) EXEC Formatting Routines                                                             Page   84
0Current Usings:  (CP,R11) (CV,R12)
0Loc    Object Code    Addr1 Addr2  Stmt Lv Lineno    Source Statement           (Hibal 5, Asmedit 3.3)  HLASM R4.0  2004/03/15 12.45
+___    ______ ____    _____ _____  ____ __ ______    ______ _________
0                                  19146              ¿þþþþþþþþþþþþþþþþþþþþþþþþþþþþþþþþþþþþþþþþþþþþþþþþþþþþþþþþþþþþþþþþþþþþþÜ
                                   19147              Ÿ                                                                     Ÿ
                                   19148              Ÿ                                                                     Ÿ
                                   19149              Ÿ  FFCLABEL - SCAN FOR LABEL                                          Ÿ
                                   19150              Ÿ                                                                     Ÿ
                                   19151              Ÿ  ON ENTRY:                                                          Ÿ
                                   19152              Ÿ       R0 - LINE LENGTH                                              Ÿ
                                   19153              Ÿ       R1 - LINE LOCATION                                            Ÿ
                                   19154              Ÿ                                                                     Ÿ
                                   19155              Ÿ  ON EXIT:                                                           Ÿ
                                   19156              Ÿ       R15 - CC=ZERO, LABEL FOUND                                    Ÿ
                                   19157              Ÿ           - CC=NZ, LABEL NOT FOUND                                  Ÿ
                                   19158              Ÿ                                                                     Ÿ
                                   19159              Ÿ  NOTE: IT IS ASSUMMED LINE IS ALREADY SCANNED (BY XSCAN)            Ÿ
                                   19160              Ÿ       FOR SYNTAX.                                                   Ÿ
                                   19161              Ÿ                                                                     Ÿ
                                   19162              Ÿ                                                                     Ÿ
                                                      ¾þþþþþþþþþþþþþþþþþþþþþþþþþþþþþþþþþþþþþþþþþþþþþþþþþþþþþþþþþþþþþþþþþþþþþ»
0000000                00000 00010 19163              FFLAWA   RECORD BEGIN
 000000                            19171  1           FFLATEMP   DS    XL(L'FWNAME)        TEMP LABEL NAME AREA
 000010                00010 00010 19172                       END
                                   19181              *
                                   19182              *
 002BF8 50E0 D000/9008_      00000 19183              FFCLABEL PROC  FFLAWA
 USING  *,R7
 USING  FFLAWA-(4+36),R8
                                   19233
                                   19234                       COMMENT                    SCAN FOR LABEL
 002C12 4120 8028            00000 19235                       LA    R2,FFLATEMP
 002C16 58E0 736E/0DEE       02F80 19236                       ACALL SCNLABEL
                                   19240
 002C1C 18D8/9808 D004_            19241                       PEND  ,
 DROP   FFLAWA-(4+36),R8
 DROP   *,R7
1FLOW     (FLOW2025) (12:45) (15MAR04) EXEC Formatting Routines                                                             Page   85
0Current Usings:  (CP,R11) (CV,R12)
0Loc    Object Code    Addr1 Addr2  Stmt Lv Lineno    Source Statement           (Hibal 5, Asmedit 3.3)  HLASM R4.0  2004/03/15 12.45
+___    ______ ____    _____ _____  ____ __ ______    ______ _________
0                                  19267              ¿þþþþþþþþþþþþþþþþþþþþþþþþþþþþþþþþþþþþþþþþþþþþþþþþþþþþþþþþþþþþþþþþþþþþþÜ
                                   19268              Ÿ                                                                     Ÿ
                                   19269              Ÿ                                                                     Ÿ
                                   19270              Ÿ  FFCCOMM - SCAN FOR COMM                                            Ÿ
                                   19271              Ÿ                                                                     Ÿ
                                   19272              Ÿ  ON ENTRY:                                                          Ÿ
                                   19273              Ÿ       R0 - LINE LENGTH                                              Ÿ
                                   19274              Ÿ       R1 - LINE LOCATION                                            Ÿ
                                   19275              Ÿ                                                                     Ÿ
                                   19276              Ÿ  ON EXIT:                                                           Ÿ
                                   19277              Ÿ       R15 - CC=ZERO, COMM FOUND                                     Ÿ
                                   19278              Ÿ           - CC=NZ, COMM NOT FOUND                                   Ÿ
                                   19279              Ÿ                                                                     Ÿ
                                   19280              Ÿ  NOTE: IT IS ASSUMMED LINE IS ALREADY SCANNED (BY XSCAN)            Ÿ
                                   19281              Ÿ       FOR SYNTAX.                                                   Ÿ
                                   19282              Ÿ                                                                     Ÿ
                                   19283              Ÿ                                                                     Ÿ
                                                      ¾þþþþþþþþþþþþþþþþþþþþþþþþþþþþþþþþþþþþþþþþþþþþþþþþþþþþþþþþþþþþþþþþþþþþþ»
0002C2A 50E0 D000/9008_      00000 19284              FFCCOMM  PROC  ,
 USING  *,R7
                                   19323
                                   19324                       COMMENT                   SCAN FOR ';'
 002C44 1A01                       19325                       AR    R0,R1
 002C46 9540 1000/4770_00000       19326                       WHILE ((@R1,EQ,' '),AND,(R1,LT,R0)),BEGIN
 002C54 4111 0001            00001 19358  1                      LA    R1,1(R1)
 002C58 47F0 7002            02C46 19359                       END
 002C5C 955E 1000/4770_00000       19364                       IF    ((@R1,EQ,';'),AND,(R1,LT,R0)),BEGIN
 002C6A 1BFF                       19394  1                      CLEAR R15
 002C6C                            19398                       END
 002C6C 702C/702C/47F0_02C6C 02C62 19402                       ELSE  BEGIN
 002C70 41F0 0004            00004 19415  1                      LA    R15,4
 002C74                            19416                       END
                                   19420
 002C74 18D8/9808 D004_            19421                       PEND  ,
 DROP   *,R7
1FLOW     (FLOW2025) (12:45) (15MAR04) EXEC Formatting Routines                                                             Page   86
0Current Usings:  (CP,R11) (CV,R12)
0Loc    Object Code    Addr1 Addr2  Stmt Lv Lineno    Source Statement           (Hibal 5, Asmedit 3.3)  HLASM R4.0  2004/03/15 12.45
+___    ______ ____    _____ _____  ____ __ ______    ______ _________
0                                  19442              ¿þþþþþþþþþþþþþþþþþþþþþþþþþþþþþþþþþþþþþþþþþþþþþþþþþþþþþþþþþþþþþþþþþþþþþÜ
                                   19443              Ÿ                                                                     Ÿ
                                   19444              Ÿ                                                                     Ÿ
                                   19445              Ÿ  FFCBLANK - SCAN FOR BLANK LINE                                     Ÿ
                                   19446              Ÿ                                                                     Ÿ
                                   19447              Ÿ  ON ENTRY:                                                          Ÿ
                                   19448              Ÿ       R0 - LINE LENGTH                                              Ÿ
                                   19449              Ÿ       R1 - LINE LOCATION                                            Ÿ
                                   19450              Ÿ                                                                     Ÿ
                                   19451              Ÿ  ON EXIT:                                                           Ÿ
                                   19452              Ÿ       R15 - CC=ZERO, BLANK FOUND                                    Ÿ
                                   19453              Ÿ           - CC=NZ, BLANK NOT FOUND                                  Ÿ
                                   19454              Ÿ                                                                     Ÿ
                                   19455              Ÿ  NOTE: IT IS ASSUMMED LINE IS ALREADY SCANNED (BY XSCAN)            Ÿ
                                   19456              Ÿ       FOR SYNTAX.                                                   Ÿ
                                   19457              Ÿ                                                                     Ÿ
                                   19458              Ÿ                                                                     Ÿ
                                                      ¾þþþþþþþþþþþþþþþþþþþþþþþþþþþþþþþþþþþþþþþþþþþþþþþþþþþþþþþþþþþþþþþþþþþþþ»
0002C82 50E0 D000/9008_      00000 19459              FFCBLANK PROC  ,
 USING  *,R7
                                   19498
                                   19499                       COMMENT                   SCAN FOR ';'
 002C9C 1A01                       19500                       AR    R0,R1
 002C9E 9540 1000/4770_00000       19501                       WHILE ((@R1,EQ,' '),AND,(R1,LT,R0)),BEGIN
 002CAC 4111 0001            00001 19533  1                      LA    R1,1(R1)
 002CB0 47F0 7002            02C9E 19534                       END
 002CB4 1910/4750 7020             19539                       IF    (R1,GE,R0),BEGIN
 002CBA 1BFF                       19554  1                      CLEAR R15
 002CBC                            19558                       END
 002CBC 7024/47F0 7028 02CBC 02CB8 19562                       ELSE  BEGIN
 002CC0 41F0 0004            00004 19573  1                      LA    R15,4
 002CC4                            19574                       END
                                   19578
 002CC4 18D8/9808 D004_            19579                       PEND  ,
 DROP   *,R7
1FLOW     (FLOW2025) (12:45) (15MAR04) EXEC Formatting Routines                                                             Page   87
0Current Usings:  (CP,R11) (CV,R12)
0Loc    Object Code    Addr1 Addr2  Stmt Lv Lineno    Source Statement           (Hibal 5, Asmedit 3.3)  HLASM R4.0  2004/03/15 12.45
+___    ______ ____    _____ _____  ____ __ ______    ______ _________
0                                  19600              ¿þþþþþþþþþþþþþþþþþþþþþþþþþþþþþþþþþþþþþþþþþþþþþþþþþþþþþþþþþþþþþþþþþþþþþÜ
                                   19601              Ÿ                                                                     Ÿ
                                   19602              Ÿ                                                                     Ÿ
                                   19603              Ÿ  FFLTRIM - TRIM LEFT HAND BLANKS                                    Ÿ
                                   19604              Ÿ                                                                     Ÿ
                                   19605              Ÿ  ON ENTRY:                                                          Ÿ
                                   19606              Ÿ       R0 - INPUT LENGTH                                             Ÿ
                                   19607              Ÿ       R1 - INPUT LOCATION                                           Ÿ
                                   19608              Ÿ                                                                     Ÿ
                                   19609              Ÿ  ON EXIT:                                                           Ÿ
                                   19610              Ÿ       R0 - NEW LINE LENGTH                                          Ÿ
                                   19611              Ÿ       R1 - NEW LINE LOCATION                                        Ÿ
                                   19612              Ÿ      R15 - CC=ZERO                                                  Ÿ
                                   19613              Ÿ                                                                     Ÿ
                                   19614              Ÿ                                                                     Ÿ
                                                      ¾þþþþþþþþþþþþþþþþþþþþþþþþþþþþþþþþþþþþþþþþþþþþþþþþþþþþþþþþþþþþþþþþþþþþþ»
0002CD2 50E0 D000/9008_      00000 19615              FFLTRIM  PROC  ,
 USING  *,R7
                                   19654
                                   19655                       COMMENT                   TRIM IT DUDE
 002CEC 1A01                       19656                       AR    R0,R1
 002CEE 9540 1000/4770_00000       19657                       WHILE ((@R1,EQ,' '),AND,(R1,LT,R0)),BEGIN
 002CFC 4111 0001            00001 19689  1                      LA    R1,1(R1)
 002D00 47F0 7002            02CEE 19690                       END
 002D04 1B01                       19695                       SR    R0,R1
                                   19696
 002D06 1BFF                       19697                       CLEAR R15
 002D08 9001 8004            00004 19701                       PRETURN (R0,R1)
 002D0C 18D8/9808 D004_            19703                       PEND  ,
 DROP   *,R7
1FLOW     (FLOW2025) (12:45) (15MAR04) EXEC Formatting Routines                                                             Page   88
0Current Usings:  (CP,R11) (CV,R12)
0Loc    Object Code    Addr1 Addr2  Stmt Lv Lineno    Source Statement           (Hibal 5, Asmedit 3.3)  HLASM R4.0  2004/03/15 12.45
+___    ______ ____    _____ _____  ____ __ ______    ______ _________
0                                  19724              ¿þþþþþþþþþþþþþþþþþþþþþþþþþþþþþþþþþþþþþþþþþþþþþþþþþþþþþþþþþþþþþþþþþþþþþÜ
                                   19725              Ÿ                                                                     Ÿ
                                   19726              Ÿ                                                                     Ÿ
                                   19727              Ÿ  FFMOVE - MOVE AND ADD SPACES                                       Ÿ
                                   19728              Ÿ                                                                     Ÿ
                                   19729              Ÿ  ON ENTRY:                                                          Ÿ
                                   19730              Ÿ       R0 - INPUT LENGTH                                             Ÿ
                                   19731              Ÿ       R1 - INPUT LOCATION                                           Ÿ
                                   19732              Ÿ       R2 - OUTPUT LOCATION                                          Ÿ
                                   19733              Ÿ       R3 - MAXIMUM OUTPUT LENGTH                                    Ÿ
                                   19734              Ÿ       R4 - AMOUNT OF SPACES TO ADD                                  Ÿ
                                   19735              Ÿ      @R5 - LINE NUMBER                                              Ÿ
                                   19736              Ÿ                                                                     Ÿ
                                   19737              Ÿ  ON EXIT:                                                           Ÿ
                                   19738              Ÿ       SPACES THEN TEXT MOVED TO OUTPUT BUFFER                       Ÿ
                                   19739              Ÿ       R15 - CC=ZERO, LENGTH ERRORS EXIT VIA CVERROR                 Ÿ
                                   19740              Ÿ                                                                     Ÿ
                                   19741              Ÿ                                                                     Ÿ
                                   19742              Ÿ                                                                     Ÿ
                                                      ¾þþþþþþþþþþþþþþþþþþþþþþþþþþþþþþþþþþþþþþþþþþþþþþþþþþþþþþþþþþþþþþþþþþþþþ»
0002D1A 50E0 D000/9008_      00000 19743              FFMOVE   PROC  ,
 USING  *,R7
                                   19782
                                   19783                       COMMENT                   CHECK FOR LENGTH OVERFLOW
 002D34 1860                       19784                       LR    R6,R0
 002D36 1A64                       19785                       AR    R6,R4
 002D38 1963/47D0 7044             19786                       IF    (R6,GT,R3),BEGIN
 002D3E 4110 729E/4100_      02FD2 19801  1                      TSEG  'Text overflow in line '
 002D50 5805 0000            00000 19819  1                      L     R0,0(R5)
 002D54 58E0 7254/0DEE       02F88 19820  1                      VCALL CVEXNO
 002D5A 4110 BC88/4100_      00C88 19824  1                      TSEG  CPDOUB,9
 002D6C 4110 72B4/4100_      02FE8 19854  1                      ERROR ', formatting stopped.'
 002D78                            19861                       END
                                   19865
                                   19866                       COMMENT                   CHECK FOR VALID SPACING VALUE
 002D78 1244/47B0 7084             19867                       IF    (R4,NEG),BEGIN
 002D7E 4110 7258/4100_      02F8C 19881  1                      TSEG  'BEGIN-END mismatch detected at line '
 002D90 5805 0000            00000 19899  1                      L     R0,0(R5)
 002D94 58E0 7254/0DEE       02F88 19900  1                      VCALL CVEXNO
 002D9A 4110 BC88/4100_      00C88 19904  1                      TSEG  CPDOUB,9
 002DAC 4110 72B4/4100_      02FE8 19934  1                      ERROR ', formatting stopped.'
 002DB8                            19941                       END
                                   19945
                                   19946                       COMMENT                   MOVE IN SPACES, TEXT
                                   19947                       COMMENT ,                 REGS JUGGLED, SEE ENTRY COMMENTS
 002DB8 1834                       19948                       LR    R3,R4
 002DBA 58F0 727C            02FB0 19949                       L     R15,=X'40000000'
 002DBE 0E2E                       19950                       MVCL  R2,R14              SPACES
 002DC0 1830                       19951                       LR    R3,R0
 002DC2 1841                       19952                       LR    R4,R1
 002DC4 1850                       19953                       LR    R5,R0
 002DC6 0E24                       19954                       MVCL  R2,R4               TEXT
                                   19955
1FLOW     (FLOW2025) (12:45) (15MAR04) EXEC Formatting Routines                                                             Page   89
0Current Usings:  (*,R7) (CP,R11) (CV,R12)
0Loc    Object Code    Addr1 Addr2  Stmt Lv Lineno    Source Statement           (Hibal 5, Asmedit 3.3)  HLASM R4.0  2004/03/15 12.45
+___    ______ ____    _____ _____  ____ __ ______    ______ _________
0002DC8 1BFF                       19956                       CLEAR R15
 002DCA 18D8/9808 D004_            19960                       PEND  ,
 DROP   *,R7
1FLOW     (FLOW2025) (12:45) (15MAR04) EXEC Formatting Routines                                                             Page   90
0Current Usings:  (CP,R11) (CV,R12)
0Loc    Object Code    Addr1 Addr2  Stmt Lv Lineno    Source Statement           (Hibal 5, Asmedit 3.3)  HLASM R4.0  2004/03/15 12.45
+___    ______ ____    _____ _____  ____ __ ______    ______ _________
0                                  19981              ¿þþþþþþþþþþþþþþþþþþþþþþþþþþþþþþþþþþþþþþþþþþþþþþþþþþþþþþþþþþþþþþþþþþþþþÜ
                                   19982              Ÿ                                                                     Ÿ
                                   19983              Ÿ                                                                     Ÿ
                                   19984              Ÿ  FFMRKLVL - MARK LEVEL                                              Ÿ
                                   19985              Ÿ                                                                     Ÿ
                                   19986              Ÿ  ON ENTRY:                                                          Ÿ
                                   19987              Ÿ       R0 - LEVEL NUMBER (0-99)                                      Ÿ
                                   19988              Ÿ       R1 - PLACE TO PUT 2 DIGIT LEVEL NUMBER (00-99)                Ÿ
                                   19989              Ÿ                                                                     Ÿ
                                   19990              Ÿ  ON EXIT:                                                           Ÿ
                                   19991              Ÿ       LEVEL NUMBER STUFFED                                          Ÿ
                                   19992              Ÿ       R15 - CC=ZERO                                                 Ÿ
                                   19993              Ÿ                                                                     Ÿ
                                   19994              Ÿ                                                                     Ÿ
                                                      ¾þþþþþþþþþþþþþþþþþþþþþþþþþþþþþþþþþþþþþþþþþþþþþþþþþþþþþþþþþþþþþþþþþþþþþ»
0002DD8 50E0 D000/9008_      00000 19995              FFMRKLVL PROC  ,
 USING  *,R7
                                   20034
                                   20035                       COMMENT                   CHECK LEVEL RANGE
 002DF2 1200/47B0 7008             20036                       IF    (R0,NEG),BEGIN
 002DF8 0000                       20050  1                      BOMB
 002DFA                            20052                       END
 002DFA 5900 71C2/47D0_      02FB4 20056                       CEIL  R0,99               RARE BIRD THAT 99
                                   20075
                                   20076                       COMMENT                   DIVIDE AND STUFF NUMBER
 002E06 1830                       20077                       LR    R3,R0
 002E08 1B22                       20078                       CLEAR R2
 002E0A 4140 000A            0000A 20082                       LA    R4,10
 002E0E 1D24                       20083                       DR    R2,R4               DIVIDE NUMBER BY 10
 002E10 4230 1000            00000 20084                       STC   R3,@R1              QUOTIENT IN 1ST BYTE
 002E14 96F0 1000      00000       20085                       OI    @R1,C'0'
 002E18 4220 1001            00001 20086                       STC   R2,@R1+1            REMAINDER IN 2ND BYTE
 002E1C 96F0 1001      00001       20087                       OI    @R1+1,C'0'
                                   20088
 002E20 1BFF                       20089                       CLEAR R15
 002E22 18D8/9808 D004_            20093                       PEND  ,
 DROP   *,R7
1FLOW     (FLOW2025) (12:45) (15MAR04) EXEC Formatting Routines                                                             Page   91
0Current Usings:  (CP,R11) (CV,R12)
0Loc    Object Code    Addr1 Addr2  Stmt Lv Lineno    Source Statement           (Hibal 5, Asmedit 3.3)  HLASM R4.0  2004/03/15 12.45
+___    ______ ____    _____ _____  ____ __ ______    ______ _________
0                                  20114              ¿þþþþþþþþþþþþþþþþþþþþþþþþþþþþþþþþþþþþþþþþþþþþþþþþþþþþþþþþþþþþþþþþþþþþþÜ
                                   20115              Ÿ                                                                     Ÿ
                                   20116              Ÿ                                                                     Ÿ
                                   20117              Ÿ  FFFIRST - GET FIRST LINE TO FORMAT FROM ACTIVE                     Ÿ
                                   20118              Ÿ                                                                     Ÿ
                                   20119              Ÿ  ON ENTRY:                                                          Ÿ
                                   20120              Ÿ       R0 - BUFFER LENGTH  (=&LINESZ)                                Ÿ
                                   20121              Ÿ       R1 - BUFFER LOCATION                                          Ÿ
                                   20122              Ÿ      @R2 - LINE NUMBER                                              Ÿ
                                   20123              Ÿ                                                                     Ÿ
                                   20124              Ÿ  ON EXIT:                                                           Ÿ
                                   20125              Ÿ       BUFFER CONTAINS FIRST LINE OF ACTIVE                          Ÿ
                                   20126              Ÿ       @R2 - LINE NUMBER                                             Ÿ
                                   20127              Ÿ       R15 - CC=ZERO, IF EXISTS                                      Ÿ
                                   20128              Ÿ             CC=NZ, LINE DOES NOT EXIST                              Ÿ
                                   20129              Ÿ                                                                     Ÿ
                                   20130              Ÿ                                                                     Ÿ
                                   20131              Ÿ                                                                     Ÿ
                                                      ¾þþþþþþþþþþþþþþþþþþþþþþþþþþþþþþþþþþþþþþþþþþþþþþþþþþþþþþþþþþþþþþþþþþþþþ»
0002E30 50E0 D000/9008_      00000 20132              FFFIRST  PROC  ,
 USING  *,R7
                                   20171
 002E4A 1B33                       20172                       CLEAR R3                  USE CURRENT ACTIVE FILE
 002E4C 58E0 716E/0DEE       02FB8 20176                       VCALL GTFRST
                                   20180
 002E52 5008 0004            00004 20181                       PRETURN (R0)
 002E56 18D8/9808 D004_            20183                       PEND  ,
 DROP   *,R7
1FLOW     (FLOW2025) (12:45) (15MAR04) EXEC Formatting Routines                                                             Page   92
0Current Usings:  (CP,R11) (CV,R12)
0Loc    Object Code    Addr1 Addr2  Stmt Lv Lineno    Source Statement           (Hibal 5, Asmedit 3.3)  HLASM R4.0  2004/03/15 12.45
+___    ______ ____    _____ _____  ____ __ ______    ______ _________
0                                  20204              ¿þþþþþþþþþþþþþþþþþþþþþþþþþþþþþþþþþþþþþþþþþþþþþþþþþþþþþþþþþþþþþþþþþþþþþÜ
                                   20205              Ÿ                                                                     Ÿ
                                   20206              Ÿ                                                                     Ÿ
                                   20207              Ÿ  FFNEXT - GET NEXT LINE TO FORMAT FROM ACTIVE                       Ÿ
                                   20208              Ÿ                                                                     Ÿ
                                   20209              Ÿ  ON ENTRY:                                                          Ÿ
                                   20210              Ÿ       R0 - BUFFER LENGTH  (=&LINESZ)                                Ÿ
                                   20211              Ÿ       R1 - BUFFER LOCATION                                          Ÿ
                                   20212              Ÿ      @R2 - LINE NUMBER                                              Ÿ
                                   20213              Ÿ                                                                     Ÿ
                                   20214              Ÿ  ON EXIT:                                                           Ÿ
                                   20215              Ÿ       BUFFER CONTAINS FIRST LINE OF ACTIVE                          Ÿ
                                   20216              Ÿ       @R2 - LINE NUMBER                                             Ÿ
                                   20217              Ÿ       R15 - CC=ZERO, IF EXISTS                                      Ÿ
                                   20218              Ÿ             CC=NZ, LINE DOES NOT EXIST                              Ÿ
                                   20219              Ÿ                                                                     Ÿ
                                   20220              Ÿ                                                                     Ÿ
                                   20221              Ÿ                                                                     Ÿ
                                                      ¾þþþþþþþþþþþþþþþþþþþþþþþþþþþþþþþþþþþþþþþþþþþþþþþþþþþþþþþþþþþþþþþþþþþþþ»
0002E64 50E0 D000/9008_      00000 20222              FFNEXT   PROC  ,
 USING  *,R7
                                   20261
 002E7E 1B33                       20262                       CLEAR R3                  USE CURRENT ACTIVE FILE
 002E80 58E0 713E/0DEE       02FBC 20266                       VCALL GTNEXT
                                   20270
 002E86 5008 0004            00004 20271                       PRETURN (R0)
 002E8A 18D8/9808 D004_            20273                       PEND  ,
 DROP   *,R7
1FLOW     (FLOW2025) (12:45) (15MAR04) EXEC Formatting Routines                                                             Page   93
0Current Usings:  (CP,R11) (CV,R12)
0Loc    Object Code    Addr1 Addr2  Stmt Lv Lineno    Source Statement           (Hibal 5, Asmedit 3.3)  HLASM R4.0  2004/03/15 12.45
+___    ______ ____    _____ _____  ____ __ ______    ______ _________
0                                  20294              ¿þþþþþþþþþþþþþþþþþþþþþþþþþþþþþþþþþþþþþþþþþþþþþþþþþþþþþþþþþþþþþþþþþþþþþÜ
                                   20295              Ÿ                                                                     Ÿ
                                   20296              Ÿ                                                                     Ÿ
                                   20297              Ÿ  FFPUT - PUT FORMATTED LINE INTO ACTIVE FILE                        Ÿ
                                   20298              Ÿ                                                                     Ÿ
                                   20299              Ÿ  ON ENTRY:                                                          Ÿ
                                   20300              Ÿ       R0 - LINE LENGTH                                              Ÿ
                                   20301              Ÿ       R1 - LINE LOCATION                                            Ÿ
                                   20302              Ÿ      @R2 - LINE NUMBER                                              Ÿ
                                   20303              Ÿ                                                                     Ÿ
                                   20304              Ÿ  ON EXIT:                                                           Ÿ
                                   20305              Ÿ       LINE PUT                                                      Ÿ
                                   20306              Ÿ       R15 - CC=ZERO, IF ERRORS, PUTLINE ROUITINE DOES NOT RETURN    Ÿ
                                   20307              Ÿ                                                                     Ÿ
                                   20308              Ÿ                                                                     Ÿ
                                   20309              Ÿ                                                                     Ÿ
                                                      ¾þþþþþþþþþþþþþþþþþþþþþþþþþþþþþþþþþþþþþþþþþþþþþþþþþþþþþþþþþþþþþþþþþþþþþ»
0002E98 50E0 D000/9008_      00000 20310              FFPUT    PROC  ,
 USING  *,R7
                                   20349
 002EB2 58F2 0000            00000 20350                       L     R15,0(R2)           R15 - LINE NUMBER
                                   20351                       COMMENT                   R1,R0 - LINE LOC, LEN
 002EB6 58E0 710E/0DEE       02FC0 20352                       VCALL PUTLINE             PUT LINE
                                   20356
 002EBC 18D8/9808 D004_            20357                       PEND  ,
 DROP   *,R7
1FLOW     (FLOW2025) (12:45) (15MAR04) EXEC Formatting Routines                                                             Page   94
0Current Usings:  (CP,R11) (CV,R12)
0Loc    Object Code    Addr1 Addr2  Stmt Lv Lineno    Source Statement           (Hibal 5, Asmedit 3.3)  HLASM R4.0  2004/03/15 12.45
+___    ______ ____    _____ _____  ____ __ ______    ______ _________
0                                  20378              ¿þþþþþþþþþþþþþþþþþþþþþþþþþþþþþþþþþþþþþþþþþþþþþþþþþþþþþþþþþþþþþþþþþþþþþÜ
                                   20379              Ÿ                                                                     Ÿ
                                   20380              Ÿ                                                                     Ÿ
                                   20381              Ÿ  FFXFIRST - GET FIRST LINE TO FORMAT FROM TEMP EXEC                 Ÿ
                                   20382              Ÿ                                                                     Ÿ
                                   20383              Ÿ  ON ENTRY:                                                          Ÿ
                                   20384              Ÿ       R0 - BUFFER LENGTH  (=&LINESZ)                                Ÿ
                                   20385              Ÿ       R1 - BUFFER LOCATION                                          Ÿ
                                   20386              Ÿ      @R2 - LINE NUMBER                                              Ÿ
                                   20387              Ÿ                                                                     Ÿ
                                   20388              Ÿ  ON EXIT:                                                           Ÿ
                                   20389              Ÿ       BUFFER CONTAINS FIRST LINE OF TEMP EXEC                       Ÿ
                                   20390              Ÿ       @R2 - LINE NUMBER                                             Ÿ
                                   20391              Ÿ       R15 - CC=ZERO, IF EXISTS                                      Ÿ
                                   20392              Ÿ             CC=NZ, LINE DOES NOT EXIST                              Ÿ
                                   20393              Ÿ                                                                     Ÿ
                                   20394              Ÿ                                                                     Ÿ
                                   20395              Ÿ                                                                     Ÿ
                                                      ¾þþþþþþþþþþþþþþþþþþþþþþþþþþþþþþþþþþþþþþþþþþþþþþþþþþþþþþþþþþþþþþþþþþþþþ»
0002ECA 50E0 D000/9008_      00000 20396              FFXFIRST PROC  ,
 USING  *,R7
                                   20435
                                   20436                       COMMENT                   SET EXEC SET NUMBER
 002EE4 41F0 B4A4            004A4 20437                       LA    R15,CPEXEC
 002EE8 4100 0004            00004 20438                       LA    R0,CP#XTEMP
 002EEC 58E0 70E0/0DEE       02FC4 20439                       VCALL XSETSET
                                   20443
                                   20444                       COMMENT                   LOCATE EXEC LINE
 002EF2 41F0 B4A4            004A4 20445                       LA    R15,CPEXEC
 002EF6 4100 00EB            000EB 20446                       LA    R0,&LINESZ
                                   20447                       COMMENT @R1 - LINE AREA
                                   20448                       COMMENT @R2 - LINENO
 002EFA 58E0 70E4/0DEE       02FC8 20449                       VCALL XGETFRST
                                   20453
 002F00 5008 0004            00004 20454                       PRETURN (R0)
 002F04 18D8/9808 D004_            20456                       PEND  ,
 DROP   *,R7
1FLOW     (FLOW2025) (12:45) (15MAR04) EXEC Formatting Routines                                                             Page   95
0Current Usings:  (CP,R11) (CV,R12)
0Loc    Object Code    Addr1 Addr2  Stmt Lv Lineno    Source Statement           (Hibal 5, Asmedit 3.3)  HLASM R4.0  2004/03/15 12.45
+___    ______ ____    _____ _____  ____ __ ______    ______ _________
0                                  20477              ¿þþþþþþþþþþþþþþþþþþþþþþþþþþþþþþþþþþþþþþþþþþþþþþþþþþþþþþþþþþþþþþþþþþþþþÜ
                                   20478              Ÿ                                                                     Ÿ
                                   20479              Ÿ                                                                     Ÿ
                                   20480              Ÿ  FFXNEXT - GET NEXT LINE TO FORMAT FROM TEMP EXEC                   Ÿ
                                   20481              Ÿ                                                                     Ÿ
                                   20482              Ÿ  ON ENTRY:                                                          Ÿ
                                   20483              Ÿ       R0 - BUFFER LENGTH  (=&LINESZ)                                Ÿ
                                   20484              Ÿ       R1 - BUFFER LOCATION                                          Ÿ
                                   20485              Ÿ      @R2 - LINE NUMBER                                              Ÿ
                                   20486              Ÿ                                                                     Ÿ
                                   20487              Ÿ  ON EXIT:                                                           Ÿ
                                   20488              Ÿ       BUFFER CONTAINS FIRST LINE OF TEMP EXEC                       Ÿ
                                   20489              Ÿ       @R2 - LINE NUMBER                                             Ÿ
                                   20490              Ÿ       R15 - CC=ZERO, IF EXISTS                                      Ÿ
                                   20491              Ÿ             CC=NZ, LINE DOES NOT EXIST                              Ÿ
                                   20492              Ÿ                                                                     Ÿ
                                   20493              Ÿ                                                                     Ÿ
                                   20494              Ÿ                                                                     Ÿ
                                                      ¾þþþþþþþþþþþþþþþþþþþþþþþþþþþþþþþþþþþþþþþþþþþþþþþþþþþþþþþþþþþþþþþþþþþþþ»
0002F12 50E0 D000/9008_      00000 20495              FFXNEXT  PROC  ,
 USING  *,R7
                                   20534
                                   20535                       COMMENT                   SET EXEC SET NUMBER
 002F2C 41F0 B4A4            004A4 20536                       LA    R15,CPEXEC
 002F30 4100 0004            00004 20537                       LA    R0,CP#XTEMP
 002F34 58E0 7098/0DEE       02FC4 20538                       VCALL XSETSET
                                   20542
                                   20543                       COMMENT                   LOCATE EXEC LINE
 002F3A 41F0 B4A4            004A4 20544                       LA    R15,CPEXEC
 002F3E 4100 00EB            000EB 20545                       LA    R0,&LINESZ
                                   20546                       COMMENT @R1 - LINE AREA
                                   20547                       COMMENT @R2 - LINENO
 002F42 58E0 70A0/0DEE       02FCC 20548                       VCALL XGETNEXT
                                   20552
 002F48 5008 0004            00004 20553                       PRETURN (R0)
 002F4C 18D8/9808 D004_            20555                       PEND  ,
 DROP   *,R7
1FLOW     (FLOW2025) (12:45) (15MAR04) EXEC Formatting Routines                                                             Page   96
0Current Usings:  (CP,R11) (CV,R12)
0Loc    Object Code    Addr1 Addr2  Stmt Lv Lineno    Source Statement           (Hibal 5, Asmedit 3.3)  HLASM R4.0  2004/03/15 12.45
+___    ______ ____    _____ _____  ____ __ ______    ______ _________
0                                  20576                       QLTORG
1FLOW     (FLOW2025) (12:45) (15MAR04) FLOW CONTROL SCANNING/PROCESSING                                                     Page   97
0Current Usings:  (CP,R11) (CV,R12)
0Loc    Object Code    Addr1 Addr2  Stmt Lv Lineno    Source Statement           (Hibal 5, Asmedit 3.3)  HLASM R4.0  2004/03/15 12.45
+___    ______ ____    _____ _____  ____ __ ______    ______ _________
0                                  20612              ¿þþþþþþþþþþþþþþþþþþþþþþþþþþþþþþþþþþþþþþþþþþþþþþþþþþþþþþþþþþþþþþþþþþþþþÜ
                                   20613              Ÿ                                                                     Ÿ
                                   20614              Ÿ                                                                     Ÿ
                                   20615              Ÿ  FLOWCTRL - FLOW CONTROL SCANNING/PROCESSING                        Ÿ
                                   20616              Ÿ                                                                     Ÿ
                                   20617              Ÿ  ON ENTRY:                                                          Ÿ
                                   20618              Ÿ       CP#XLOAD - SET NUMBER OF EXEC/FLOW INFO                       Ÿ
                                   20619              Ÿ       CPRGLOAD - EXEC RECORD GROUP INFO POINTER                     Ÿ
                                   20620              Ÿ       CPRGFC   - FLOW CONTROL RECORD GROUP POINTER                  Ÿ
                                   20621              Ÿ                                                                     Ÿ
                                   20622              Ÿ  ON EXIT:                                                           Ÿ
                                   20623              Ÿ      R15 - ZERO                                                     Ÿ
                                   20624              Ÿ            ALL ERRORS CALL 'LDABORT' ROUTINE AND                    Ÿ
                                   20625              Ÿ            EXIT VIA CVERROR.                                        Ÿ
                                   20626              Ÿ                                                                     Ÿ
                                   20627              Ÿ  THIS ROUTINE EVALUATES THE CONTROL FLOW OF AN EXEC FILE.           Ÿ
                                   20628              Ÿ  FLOW CONTROL INFORMATION IS SAVED IN THE FLOW RECORD GROUP         Ÿ
                                   20629              Ÿ  WHICH IS ESSENTIALLY A SHADOW FILE OF THE EXEC FILE.               Ÿ
                                   20630              Ÿ                                                                     Ÿ
                                   20631              Ÿ                                                                     Ÿ
                                                      ¾þþþþþþþþþþþþþþþþþþþþþþþþþþþþþþþþþþþþþþþþþþþþþþþþþþþþþþþþþþþþþþþþþþþþþ»
0000000                00000 000EF 20632              XFCWA    RECORD BEGIN
 000000                            20640  1           XFCLNO     DS    F                   LINE NUMBER
 000004                            20641  1           XFCLINE    DS    XL(XLINESZ)         LINE BUFFER
 0000EF                000EF 000EF 20642                       END
                                   20651              *
                                   20652              *
 002FFE 50E0 D000/9008_      00000 20653              FLOWCTRL XPROC XFCWA
 USING  *,R7
 USING  XFCWA-(4+36),R8
 003018 D703 8028 8028 00000 00000 20704                       CLEAR XFCLNO
                                   20711
                                   20712                       COMMENT                   SET EXEC AND FLOW CONTROL FILES
 00301E 5800 B784            00784 20713                       L     R0,CP#XLOAD
 003022 58F0 B788            00788 20714                       L     R15,CPRGLOAD
 003026 58E0 77A0/0DEE       037B8 20715                       VCALL XSETSET
 00302C 5800 B784            00784 20719                       L     R0,CP#XLOAD
 003030 58F0 B78C            0078C 20720                       L     R15,CPRGFC
 003034 58E0 77A0/0DEE       037B8 20721                       VCALL XSETSET
                                   20725
                                   20726                       COMMENT                   CHECK FOR XPROC
 00303A 4110 802C            00004 20727                       LA    R1,XFCLINE
 00303E 4120 8028            00000 20728                       LA    R2,XFCLNO
 003042 58E0 77A4/0DEE       037BC 20729                       ACALL CHKXPROC                  (IE. EXTENDED EXEC)
                                   20733
                                   20734                       COMMENT                   IF EXTENDED EXEC,,
                                   20735                       COMMENT                      WE SCAN FOR ALL CONSTRUCTS
 003048 4770 7064            0307C 20736                       IF    Z,BEGIN
 00304C 4110 802C            00004 20747  1                      LA    R1,XFCLINE
 003050 4120 8028            00000 20748  1                      LA    R2,XFCLNO
 003054 58E0 77A8/0DEE       037C0 20749  1                      ACALL FCXPROC             SCAN FLOW CONTROL FOR XPROC
 00305A 58E0 77AC/0DEE       037C4 20753  1                      ACALL CHKPROC
 003060 4770 7064            0307C 20757  1                      WHILE Z,BEGIN             WHILE PROCS FOUND,
1FLOW     (FLOW2025) (12:45) (15MAR04) FLOW CONTROL SCANNING/PROCESSING                                                     Page   98
0Current Usings:  (*,R7) (XFCWA-(4+36),R8) (CP,R11) (CV,R12)
0Loc    Object Code    Addr1 Addr2  Stmt Lv Lineno    Source Statement           (Hibal 5, Asmedit 3.3)  HLASM R4.0  2004/03/15 12.45
+___    ______ ____    _____ _____  ____ __ ______    ______ _________
0003064 4110 802C            00004 20770  2                        LA    R1,XFCLINE
 003068 4120 8028            00000 20771  2                        LA    R2,XFCLNO
 00306C 58E0 77B0/0DEE       037C8 20772  2                        ACALL FCPROC              SCAN FLOW CONTROL FOR PROCS
 003072 58E0 77AC/0DEE       037C4 20776  2                        ACALL CHKPROC
 003078 47F0 7048            03060 20780  1                      END
 00307C                            20785                       END
                                   20789
                                   20790                       COMMENT                   IF SIMPLE EXEC,
                                   20791                       COMMENT                       SCAN FOR LABELS ONLY
 00307C 7068/47F0 7086 0307C 0304A 20792                       ELSE  BEGIN
 003080 4110 7818/4100_      03830 20803  1                      FCERR 'Missing XPROC statement. '
 003090 4110 802C            00004 20817  1                      LA    R1,XFCLINE
 003094 4120 8028            00000 20818  1                      LA    R2,XFCLNO
 003098 58E0 77B8/0DEE       037D0 20819  1                      ACALL FCSIMPLE            SCAN SIMPLE CONSTRUCTS ONLY
 00309E                            20823                       END
                                   20827
 00309E 1BFF                       20828                       CLEAR R15
 0030A0 18D8/9808 D004_            20832                       PEND  ,
 DROP   XFCWA-(4+36),R8
 DROP   *,R7
1FLOW     (FLOW2025) (12:45) (15MAR04) FLOW CONTROL SCANNING/PROCESSING                                                     Page   99
0Current Usings:  (CP,R11) (CV,R12)
0Loc    Object Code    Addr1 Addr2  Stmt Lv Lineno    Source Statement           (Hibal 5, Asmedit 3.3)  HLASM R4.0  2004/03/15 12.45
+___    ______ ____    _____ _____  ____ __ ______    ______ _________
0                                  20858              ¿þþþþþþþþþþþþþþþþþþþþþþþþþþþþþþþþþþþþþþþþþþþþþþþþþþþþþþþþþþþþþþþþþþþþþÜ
                                   20859              Ÿ                                                                     Ÿ
                                   20860              Ÿ                                                                     Ÿ
                                   20861              Ÿ  FCXPROC - SCAN XPROC FLOW CONTROL                                  Ÿ
                                   20862              Ÿ                                                                     Ÿ
                                   20863              Ÿ  ON ENTRY:                                                          Ÿ
                                   20864              Ÿ      @R1 - LINE AREA                                                Ÿ
                                   20865              Ÿ      @R2 - LINE NUMBER (OF XPROC)                                   Ÿ
                                   20866              Ÿ                                                                     Ÿ
                                   20867              Ÿ  ON EXIT:                                                           Ÿ
                                   20868              Ÿ      R15 - CC=ZERO                                                  Ÿ
                                   20869              Ÿ            ALL ERROR EXIT VIA CVERROR                               Ÿ
                                   20870              Ÿ                                                                     Ÿ
                                   20871              Ÿ                                                                     Ÿ
                                   20872              Ÿ                                                                     Ÿ
                                                      ¾þþþþþþþþþþþþþþþþþþþþþþþþþþþþþþþþþþþþþþþþþþþþþþþþþþþþþþþþþþþþþþþþþþþþþ»
0000000                00000 002A0 20873              FXPWA    RECORD BEGIN
 000000                            20881  1           FXPAREA    DS    F                   LINE AREA POINTER
 000004                            20882  1           FXPLPTR    DS    F                   CURRENT LINE NUMBER POINTER
 000008                            20883  1           FXPLINE    DS    F                   XPROC LINE NUMBER
 00000C                            20884  1           FXPLINE2   DS    F                   XPROC ENDING LINE NUMBER
 000010                            20885  1           FXPNTRY    DS    XL(L'FWENTRY)       XPROC FLOW ENTRY
 000030                            20886  1           FXPNTRY2   DS    XL(L'FWENTRY)       XPROC ENDING FLOW ENTRY
 000050                            20887  1           FXPNLIST   DS    XL(L'NLIST)         XPROC PARAMETER NAME LIST
 000150                            20888  1           FXPNAME    DS    XL(L'VPARM)         XPROC NAME AREA (IF ANY)
 0002A0                002A0 002A0 20889                       END
                                   20898              *
                                   20899              *
 0030AE 50E0 D000/9008_      00000 20900              FCXPROC  PROC  FXPWA
 USING  *,R7
 USING  FXPWA-(4+36),R8
 USING  FWENTRY,R6                 20950                       USING FWENTRY,R6
 0030C8 4160 8038            00010 20959                       LA    R6,FXPNTRY
 0030CC 5010 8028            00000 20960                       ST    R1,FXPAREA
 0030D0 5020 802C            00004 20961                       ST    R2,FXPLPTR
                                   20962
                                   20963                       COMMENT                   FORMAT XPROC FLOW ENTRY
 0030D4 D71F 6000 6000 00000 00000 20964                       CLEAR FWENTRY
 0030DA 9201 6010      00010       20971                       SET   FWXPROC
 0030DE D20F 6000 7660 00000 03728 20977                       MVC   FWNAME,=CL16'XPROC           '
 0030E4 D203 6014 2000 00014 00000 20978                       MVC   FWSCOPE,0(R2)
                                   20979
                                   20980                       COMMENT                   GET XPROC COMMAND
 0030EA 5810 8028            00000 20981                       L     R1,FXPAREA
 0030EE 5820 802C            00004 20982                       L     R2,FXPLPTR
 0030F2 58E0 770C/0DEE       037D4 20983                       ACALL FCGET
 0030F8 4780 7036            030FE 20987                       IF    NZ,BEGIN
 0030FC 0000                       20998  1                      BOMB
 0030FE                            21000                       END
 0030FE 58E0 B08C/501E_      0008C 21004                       SCINIT (R1),(R0)
 00310C 5810 B08C/1B00_      0008C 21024                       SCAN   ,
 00315A 58E0 7714/0DEE       037DC 21055                       SCANCHK
 003160 5830 B08C/4133_      0008C 21060                       SCUPTOK R3
1FLOW     (FLOW2025) (12:45) (15MAR04) FLOW CONTROL SCANNING/PROCESSING                                                     Page  100
0Current Usings:  (FWENTRY,R6) (*,R7) (FXPWA-(4+36),R8) (CP,R11) (CV,R12)
0Loc    Object Code    Addr1 Addr2  Stmt Lv Lineno    Source Statement           (Hibal 5, Asmedit 3.3)  HLASM R4.0  2004/03/15 12.45
+___    ______ ____    _____ _____  ____ __ ______    ______ _________
0003168 D507 7670 3000_03738 00000 21064                       IF    (@R3,NE,'XPROC   '),BEGIN
 003172 0000                       21080  1                      BOMB
 003174                            21082                       END
                                   21086
                                   21087                       COMMENT                   SCAN OPTIONAL XPROC NAME
                                   21088                       COMMENT                   NOT YET IMPLEMENTED
                                   21089                       COMMENT
                                   21090
                                   21091                       COMMENT                   PROCESS PARAMETER NAME LIST
 003174 5810 B08C/1B00_      0008C 21092                       SCAN
 0031C2 58E0 7714/0DEE       037DC 21123                       SCANCHK
 0031C8 1200/4780 710E_            21128                       IF    ((R0,Z),OR,(@R1,NE,'(')),BEGIN
 0031D6 4110 774A/4100_      03812 21157  1                      FCERR 'Missing XPROC parameter list. ',LPTR=FXPLPTR
 0031E8                            21171                       END
 0031E8 4120 8078            00050 21175                       LA    R2,FXPNLIST         PROCESS ARGUMENT LIST
 0031EC 58E0 7718/0DEE       037E0 21176                       VCALL SCNNLIST
 0031F2 4780 7140            03208 21180                       IF    NZ,BEGIN
 0031F6 4110 7781/4100_      03849 21191  1                      FCERR ' ',LPTR=FXPLPTR
 003208                            21205                       END
 003208 4100 0100            00100 21209                       LA    R0,L'NLIST
 00320C 4110 8078            00050 21210                       LA    R1,FXPNLIST
 003210 4120 7678            03740 21211                       LA    R2,=CL16'XPROC_NLIST     '
 003214 5830 B784            00784 21212                       L     R3,CP#XLOAD
 003218 5840 B78C            0078C 21213                       L     R4,CPRGFC
 00321C 58E0 771C/0DEE       037E4 21214                       ACALL SAVFINFO            SAVE PARAMETER NAME LIST
                                   21218
                                   21219                       COMMENT                   LOOK FOR BEGIN
 003222 5810 B08C/1B00_      0008C 21220                       SCAN
 003270 58E0 7714/0DEE       037DC 21251                       SCANCHK
 003276 5830 B08C/4133_      0008C 21256                       SCUPTOK R3
 00327E D507 7688 3000_03750 00000 21260                       IF    (@R3,NE,'BEGIN   '),BEGIN
 003288 4110 7690/4100_      03758 21276  1                      FCERR 'Missing BEGIN on XPROC command. ',,LPTR=FXPLPTR
 00329A                            21290                       END
                                   21294
                                   21295                       COMMENT                   SCAN FOR XPROC END
 00329A 5810 8028            00000 21296                       L     R1,FXPAREA
 00329E 5820 802C            00004 21297                       L     R2,FXPLPTR
 0032A2 58E0 7720/0DEE       037E8 21298                       ACALL FINDEND
                                   21302
                                   21303                       COMMENT                   FIX XPROC END LINENO,
                                   21304                       COMMENT                   SAVE XPROC ENTRY
 0032A8 5820 802C            00004 21305                       L     R2,FXPLPTR
 0032AC D203 6018 2000 00018 00000 21306                       MVC   FWSCOPND,0(R2)
 0032B2 4110 6000            00000 21307                       LA    R1,FWENTRY
 0032B6 58E0 7724/0DEE       037EC 21308                       ACALL SAVEFLOW
                                   21312
                                   21313                       COMMENT                   CREATE XPROC END ENTRY
 0032BC 4160 8058            00030 21314                       LA    R6,FXPNTRY2
 0032C0 D71F 6000 6000 00000 00000 21315                       CLEAR FWENTRY
 0032C6 920E 6010      00010       21322                       SET   FWEND
 0032CA 5820 802C            00004 21328                       L     R2,FXPLPTR
 0032CE D203 6000 2000 00000 00000 21329                       MVC   FWNLINE,0(R2)
 0032D4 D207 6004 76B0 00004 03778 21330                       MVC   FWNNAME,=CL8'END     '
 0032DA 9203 6011      00011       21331                       SET   FWXRETN
1FLOW     (FLOW2025) (12:45) (15MAR04) FLOW CONTROL SCANNING/PROCESSING                                                     Page  101
0Current Usings:  (FWENTRY,R6) (*,R7) (FXPWA-(4+36),R8) (CP,R11) (CV,R12)
0Loc    Object Code    Addr1 Addr2  Stmt Lv Lineno    Source Statement           (Hibal 5, Asmedit 3.3)  HLASM R4.0  2004/03/15 12.45
+___    ______ ____    _____ _____  ____ __ ______    ______ _________
0                                  21337
                                   21338                       COMMENT                   SAVE XPROC END ENTRY
 0032DE 4110 6000            00000 21339                       LA    R1,FWENTRY
 0032E2 58E0 7724/0DEE       037EC 21340                       ACALL SAVEFLOW
                                   21344
 0032E8 1BFF                       21345                       CLEAR R15
 0032EA 18D8/9808 D004_            21349                       PEND  ,
 DROP   FXPWA-(4+36),R8
 DROP   *,R7
 DROP   FWENTRY,R6                 21374                       DROP  R6
1FLOW     (FLOW2025) (12:45) (15MAR04) FLOW CONTROL SCANNING/PROCESSING                                                     Page  102
0Current Usings:  (CP,R11) (CV,R12)
0Loc    Object Code    Addr1 Addr2  Stmt Lv Lineno    Source Statement           (Hibal 5, Asmedit 3.3)  HLASM R4.0  2004/03/15 12.45
+___    ______ ____    _____ _____  ____ __ ______    ______ _________
0                                  21382              ¿þþþþþþþþþþþþþþþþþþþþþþþþþþþþþþþþþþþþþþþþþþþþþþþþþþþþþþþþþþþþþþþþþþþþþÜ
                                   21383              Ÿ                                                                     Ÿ
                                   21384              Ÿ                                                                     Ÿ
                                   21385              Ÿ  FCPROC - SCAN PROC FLOW CONTROL                                    Ÿ
                                   21386              Ÿ                                                                     Ÿ
                                   21387              Ÿ  ON ENTRY:                                                          Ÿ
                                   21388              Ÿ      @R1 - LINE AREA                                                Ÿ
                                   21389              Ÿ      @R2 - LINE NUMBER (OF PROC)                                    Ÿ
                                   21390              Ÿ                                                                     Ÿ
                                   21391              Ÿ  ON EXIT:                                                           Ÿ
                                   21392              Ÿ      R15 - CC=ZERO                                                  Ÿ
                                   21393              Ÿ            ALL ERROR EXIT VIA CVERROR VIA FCERR                     Ÿ
                                   21394              Ÿ                                                                     Ÿ
                                   21395              Ÿ                                                                     Ÿ
                                   21396              Ÿ                                                                     Ÿ
                                                      ¾þþþþþþþþþþþþþþþþþþþþþþþþþþþþþþþþþþþþþþþþþþþþþþþþþþþþþþþþþþþþþþþþþþþþþ»
0000000                00000 00160 21397              FPWA     RECORD BEGIN
 000000                            21405  1           FPAREA     DS    F                   LINE AREA POINTER
 000004                            21406  1           FPLPTR     DS    F                   CURRENT LINE NUMBER POINTER
 000008                            21407  1           FPLINE     DS    F                   PROC LINE NUMBER
 00000C                            21408  1           FPLINE2    DS    F                   PROC ENDING LINE NUMBER
 000010                            21409  1           FPNTRY     DS    XL(L'FWENTRY)       PROC FLOW ENTRY
 000030                            21410  1           FPNTRY2    DS    XL(L'FWENTRY)       PROC ENDING FLOW ENTRY
 000050                            21411  1           FPNLIST    DS    XL(L'NLIST)         PROC PARAMETER NAME LIST
 000150                            21412  1           FPNLISTN   DS    CL(L'FWNAME)        NAME LIST NAME, '....PROC_NLIST'
 000160                00160 00160 21413                       END
                                   21422              *
                                   21423              *
 0032F8 50E0 D000/9008_      00000 21424              FCPROC   PROC  FPWA
 USING  *,R7
 USING  FPWA-(4+36),R8
 USING  FWENTRY,R6                 21474                       USING FWENTRY,R6
 003312 4160 8038            00010 21483                       LA    R6,FPNTRY
 003316 5010 8028            00000 21484                       ST    R1,FPAREA
 00331A 5020 802C            00004 21485                       ST    R2,FPLPTR
 00331E D203 8030 2000 00008 00000 21486                       MVC   FPLINE,0(R2)
                                   21487
                                   21488                       COMMENT                   FORMAT PROC FLOW ENTRY
 003324 D71F 6000 6000 00000 00000 21489                       CLEAR FWENTRY
 00332A 9202 6010      00010       21496                       SET   FWPROC
 00332E D20F 6000 746E 00000 03780 21502                       MVC   FWNAME,=CL16'PROC NAME       '
 003334 D203 6014 2000 00014 00000 21503                       MVC   FWSCOPE,0(R2)
                                   21504
                                   21505                       COMMENT                   GET PROC COMMAND
 00333A 5810 8028            00000 21506                       L     R1,FPAREA
 00333E 5820 802C            00004 21507                       L     R2,FPLPTR
 003342 58E0 74C2/0DEE       037D4 21508                       ACALL FCGET
 003348 4780 703C            0334E 21512                       IF    NZ,BEGIN
 00334C 0000                       21523  1                      BOMB
 00334E                            21525                       END
 00334E 58E0 B08C/501E_      0008C 21529                       SCINIT (R1),(R0)
 00335C 5810 B08C/1B00_      0008C 21549                       SCAN
 0033AA 58E0 74CA/0DEE       037DC 21580                       SCANCHK
1FLOW     (FLOW2025) (12:45) (15MAR04) FLOW CONTROL SCANNING/PROCESSING                                                     Page  103
0Current Usings:  (FWENTRY,R6) (*,R7) (FPWA-(4+36),R8) (CP,R11) (CV,R12)
0Loc    Object Code    Addr1 Addr2  Stmt Lv Lineno    Source Statement           (Hibal 5, Asmedit 3.3)  HLASM R4.0  2004/03/15 12.45
+___    ______ ____    _____ _____  ____ __ ______    ______ _________
00033B0 5830 B08C/4133_      0008C 21585                       SCUPTOK R3
 0033B8 D507 747E 3000_03790 00000 21589                       IF    (@R3,NE,'PROC    '),BEGIN
 0033C2 0000                       21605  1                      BOMB
 0033C4                            21607                       END
                                   21611
                                   21612                       COMMENT                   SCAN, SAVE PROC NAME
 0033C4 4120 6000            00000 21613                       LA    R2,FWNAME
 0033C8 58E0 74DE/0DEE       037F0 21614                       ACALL SCNPNAME
 0033CE 4780 70D2            033E4 21618                       IF    NZ,BEGIN
 0033D2 4110 7537/4100_      03849 21629  1                      FCERR ' ',,LPTR=FPLPTR
 0033E4                            21643                       END
                                   21647
                                   21648                       COMMENT                   CHECK IF PREVIOUSLY DEFINED
 0033E4 4110 6000            00000 21649                       LA    R1,FWNAME
 0033E8 58E0 74E2/0DEE       037F4 21650                       ACALL CHKDEF
 0033EE 4770 7102            03414 21654                       IF    Z,BEGIN
 0033F2 4110 6000/4100_      00000 21665  1                      TSEG  FWNAME,L'FWNAME,T
 003404 4110 7538/4100_      0384A 21695  1                      FCERR ': previously defined label/procedure name. '
 003414                            21709                       END
                                   21713
                                   21714                       COMMENT                   PROCESS PARAMETER NAME LIST
 003414 5810 B08C/1B00_      0008C 21715                       SCAN
 003462 58E0 74CA/0DEE       037DC 21746                       SCANCHK
 003468 1200/4780 7164_            21751                       IF    ((R0,Z),OR,(@R1,NE,'(')),BEGIN
 003476 4110 7563/4100_      03875 21780  1                      FCERR 'Missing PROC parameter list. ',LPTR=FPLPTR
 003488                            21794                       END
 003488 4120 8078            00050 21798                       LA    R2,FPNLIST         PROCESS ARGUMENT LIST
 00348C 58E0 74CE/0DEE       037E0 21799                       VCALL SCNNLIST
 003492 4780 7196            034A8 21803                       IF    NZ,BEGIN
 003496 4110 7537/4100_      03849 21814  1                      FCERR ' ',LPTR=FPLPTR
 0034A8                            21828                       END
 0034A8 D20F 8178 7486 00150 03798 21832                       MVC   FPNLISTN,=CL16'....PROC_NLIST  '
 0034AE D203 8178 8030 00150 00008 21833                       MVC   FPNLISTN(4),FPLINE
 0034B4 4100 0100            00100 21834                       LA    R0,L'NLIST
 0034B8 4110 8078            00050 21835                       LA    R1,FPNLIST
 0034BC 4120 8178            00150 21836                       LA    R2,FPNLISTN
 0034C0 5830 B784            00784 21837                       L     R3,CP#XLOAD
 0034C4 5840 B78C            0078C 21838                       L     R4,CPRGFC
 0034C8 58E0 74D2/0DEE       037E4 21839                       ACALL SAVFINFO            SAVE PARAMETER NAME LIST
                                   21843
                                   21844                       COMMENT                   LOOK FOR BEGIN
 0034CE 5810 B08C/1B00_      0008C 21845                       SCAN
 00351C 58E0 74CA/0DEE       037DC 21876                       SCANCHK
 003522 5830 B08C/4133_      0008C 21881                       SCUPTOK R3
 00352A D507 743E 3000_03750 00000 21885                       IF    (@R3,NE,'BEGIN   '),BEGIN
 003534 4110 7580/4100_      03892 21901  1                      FCERR 'Missing BEGIN on PROC command. ',,LPTR=FPLPTR
 003546                            21915                       END
                                   21919
                                   21920                       COMMENT                   SCAN FOR PROC END
 003546 5810 8028            00000 21921                       L     R1,FPAREA
 00354A 5820 802C            00004 21922                       L     R2,FPLPTR
 00354E 58E0 74D6/0DEE       037E8 21923                       ACALL FINDEND
                                   21927
                                   21928                       COMMENT                   CHECK IF PREVIOUSLY DEFINED
1FLOW     (FLOW2025) (12:45) (15MAR04) FLOW CONTROL SCANNING/PROCESSING                                                     Page  104
0Current Usings:  (FWENTRY,R6) (*,R7) (FPWA-(4+36),R8) (CP,R11) (CV,R12)
0Loc    Object Code    Addr1 Addr2  Stmt Lv Lineno    Source Statement           (Hibal 5, Asmedit 3.3)  HLASM R4.0  2004/03/15 12.45
+___    ______ ____    _____ _____  ____ __ ______    ______ _________
0                                  21929                       COMMENT ,                 (WE CHECK TWICE, LABEL MAY HAVE
                                   21930                       COMMENT                    BEEN DEFINED IN THIS PROC)
 003554 4110 6000            00000 21931                       LA    R1,FWNAME
 003558 58E0 74E2/0DEE       037F4 21932                       ACALL CHKDEF
 00355E 4770 7272            03584 21936                       IF    Z,BEGIN
 003562 4110 6000/4100_      00000 21947  1                      TSEG  FWNAME,L'FWNAME,T
 003574 4110 7538/4100_      0384A 21977  1                      FCERR ': previously defined label/procedure name. '
 003584                            21991                       END
                                   21995
                                   21996                       COMMENT                   FIX PROC END LINENO,
                                   21997                       COMMENT                   SAVE PROC ENTRY
 003584 5820 802C            00004 21998                       L     R2,FPLPTR
 003588 D203 6018 2000 00018 00000 21999                       MVC   FWSCOPND,0(R2)
 00358E 4110 6000            00000 22000                       LA    R1,FWENTRY
 003592 58E0 74DA/0DEE       037EC 22001                       ACALL SAVEFLOW
                                   22005
                                   22006                       COMMENT                   CREATE PROC END ENTRY
 003598 4160 8058            00030 22007                       LA    R6,FPNTRY2
 00359C D71F 6000 6000 00000 00000 22008                       CLEAR FWENTRY
 0035A2 920E 6010      00010       22015                       SET   FWEND
 0035A6 5820 802C            00004 22021                       L     R2,FPLPTR
 0035AA D203 6000 2000 00000 00000 22022                       MVC   FWNLINE,0(R2)
 0035B0 D207 6004 7466 00004 03778 22023                       MVC   FWNNAME,=CL8'END     '
 0035B6 9204 6011      00011       22024                       SET   FWPRETN
                                   22030
                                   22031                       COMMENT                   SAVE PROC END ENTRY
 0035BA 4110 6000            00000 22032                       LA    R1,FWENTRY
 0035BE 58E0 74DA/0DEE       037EC 22033                       ACALL SAVEFLOW
                                   22037
 0035C4 1BFF                       22038                       CLEAR R15
 0035C6 18D8/9808 D004_            22042                       PEND  ,
 DROP   FPWA-(4+36),R8
 DROP   *,R7
 DROP   FWENTRY,R6                 22067                       DROP  R6
1FLOW     (FLOW2025) (12:45) (15MAR04) FLOW CONTROL SCANNING/PROCESSING                                                     Page  105
0Current Usings:  (CP,R11) (CV,R12)
0Loc    Object Code    Addr1 Addr2  Stmt Lv Lineno    Source Statement           (Hibal 5, Asmedit 3.3)  HLASM R4.0  2004/03/15 12.45
+___    ______ ____    _____ _____  ____ __ ______    ______ _________
0                                  22075              ¿þþþþþþþþþþþþþþþþþþþþþþþþþþþþþþþþþþþþþþþþþþþþþþþþþþþþþþþþþþþþþþþþþþþþþÜ
                                   22076              Ÿ                                                                     Ÿ
                                   22077              Ÿ                                                                     Ÿ
                                   22078              Ÿ  FCWHILE - WHILE FLOW PROCESSING                                    Ÿ
                                   22079              Ÿ                                                                     Ÿ
                                   22080              Ÿ  ON ENTRY:                                                          Ÿ
                                   22081              Ÿ       @R1 - LINE AREA                                               Ÿ
                                   22082              Ÿ       @R2 - LINE NUMBER (OF WHILE)                                  Ÿ
                                   22083              Ÿ                                                                     Ÿ
                                   22084              Ÿ  ON EXIT:                                                           Ÿ
                                   22085              Ÿ       @R2 - LINE NUMBER (OF END OF WHILE STRUCTURE)                 Ÿ
                                   22086              Ÿ       R15 - CC=ZERO                                                 Ÿ
                                   22087              Ÿ             ERRORS EXIT VIA FCERR, THEN CVERROR                     Ÿ
                                   22088              Ÿ                                                                     Ÿ
                                   22089              Ÿ                                                                     Ÿ
                                   22090              Ÿ                                                                     Ÿ
                                                      ¾þþþþþþþþþþþþþþþþþþþþþþþþþþþþþþþþþþþþþþþþþþþþþþþþþþþþþþþþþþþþþþþþþþþþþ»
0000000                00000 00054 22091              FCWHWA   RECORD BEGIN
 000000                            22099  1           FCWHAREA   DS    F                   LINE AREA POINTER
 000004                            22100  1           FCWHLPTR   DS    F                   CURRENT LINE NUMBER POINTER
 000008                            22101  1           FCWHLINE   DS    F                   WHILE LINE NUMBER
 00000C                            22102  1           FCWHLIN2   DS    F                   WHILE-END LINE NUMBER IF ANY
 000010                            22103  1           FCWHLIN3   DS    F                   WHILE-END LINE NUMBER OR WHILE++
 000014                            22104  1           FCWHNTRY   DS    XL(L'FWENTRY)       WHILE FLOW ENTRY
 000034                            22105  1           FCWHNTR2   DS    XL(L'FWENTRY)       WHILE-END FLOW ENTRY
 000054                00054 00054 22106                       END
                                   22115              *
                                   22116              *
 0035D4 50E0 D000/9008_      00000 22117              FCWHILE  PROC  FCWHWA
 USING  *,R7
 USING  FCWHWA-(4+36),R8
 USING  FWENTRY,R6                 22167                       USING FWENTRY,R6
 0035EE 5010 8028            00000 22176                       ST    R1,FCWHAREA
 0035F2 5020 802C            00004 22177                       ST    R2,FCWHLPTR
 0035F6 D203 8030 2000 00008 00000 22178                       MVC   FCWHLINE(4),0(R2)
                                   22179
                                   22180                       COMMENT                   GET LINE THAT CONTAINS WHILE
 0035FC 58E0 71E6/0DEE       037D4 22181                       ACALL FCGET
                                   22185
                                   22186                       COMMENT                   SCAN PAST WHILE
 003602 58E0 720E/0DEE       037FC 22187                       ACALL SCANCMD
 003608 5830 B08C/4133_      0008C 22191                       SCUPTOK R3
 003610 D507 71BA 3000_037A8 00000 22195                       IF    (@R3,NE,'WHILE   '),BEGIN
 00361A 0000                       22211  1                      BOMB
 00361C                            22213                       END
                                   22217
                                   22218                       COMMENT                   SKIP CONDITIONAL EXPR AFTER WHILE
 00361C 58E0 7212/0DEE       03800 22219                       ACALL SKIPEXPR
 003622 4780 7048            03636 22223                       IF    NZ,BEGIN
 003626 4110 725B/4100_      03849 22234  1                      FCERR ' ',,LPTR=(R2)
 003636                            22248                       END
                                   22252
                                   22253                       COMMENT                   SCAN FOR 'BEGIN'
1FLOW     (FLOW2025) (12:45) (15MAR04) FLOW CONTROL SCANNING/PROCESSING                                                     Page  106
0Current Usings:  (FWENTRY,R6) (*,R7) (FCWHWA-(4+36),R8) (CP,R11) (CV,R12)
0Loc    Object Code    Addr1 Addr2  Stmt Lv Lineno    Source Statement           (Hibal 5, Asmedit 3.3)  HLASM R4.0  2004/03/15 12.45
+___    ______ ____    _____ _____  ____ __ ______    ______ _________
0003636 58E0 B08C/501E_      0008C 22254                       SCINIT (R1),(R0)
 003644 58E0 7216/0DEE       03804 22274                       ACALL SCNBEGIN
 00364A 5810 8028            00000 22278                       L     R1,FCWHAREA
 00364E 5820 802C            00004 22279                       L     R2,FCWHLPTR
                                   22280                       ¿þþþþþþþþþþþþþþþþþþþþþþþþþþþþþþþþþþþþþþþþþþþÜ
                                   22281                       Ÿ  if we have:   while (expression), begin  Ÿ
                                   22282                       ¾þþþþþþþþþþþþþþþþþþþþþþþþþþþþþþþþþþþþþþþþþþþ»
                                   22283                       COMMENT                   FIND END OF WHILE BEGIN
 003652 4770 70E4            036D2 22284                       IF    Z,BEGIN
 003656 5810 8028            00000 22295  1                      L     R1,FCWHAREA
 00365A 5820 802C            00004 22296  1                      L     R2,FCWHLPTR
 00365E 58E0 71FA/0DEE       037E8 22297  1                      ACALL FINDEND             FIND MATCHING END
 003664 D203 8034 2000 0000C 00000 22301  1                      MVC   FCWHLIN2,0(R2)      SAVE MATCHING END LINE NUMBER
                                   22302  1
                                   22303  1                      COMMENT                   SAVE LINE AFTER WHILE-END
 00366A 58E0 721A/0DEE       03808 22304  1                      ACALL FCNEXTLN
 003670 5000 8038            00010 22308  1                      ST    R0,FCWHLIN3
                                   22309  1
                                   22310  1                      COMMENT                   SAVE WHILE ENTRY
 003674 4160 803C            00014 22311  1                      LA    R6,FCWHNTRY
 003678 D71F 6000 6000 00000 00000 22312  1                      CLEAR FWENTRY
 00367E D203 6000 8030 00000 00008 22319  1                      MVC   FWNLINE,FCWHLINE
 003684 D207 6004 71C2 00004 037B0 22320  1                      MVC   FWNNAME,=CL8'WHILE   '
 00368A 9208 6010      00010       22321  1                      SET   FWWHILE
 00368E D203 6014 721E 00014 0380C 22327  1                      MVC   FWTRUE,=CL4'NEXT'
 003694 D203 6018 8038 00018 00010 22328  1                      MVC   FWFALSE,FCWHLIN3
 00369A 4110 6000            00000 22329  1                      LA    R1,FWENTRY
 00369E 58E0 71FE/0DEE       037EC 22330  1                      ACALL SAVEFLOW
                                   22334  1
                                   22335  1                      COMMENT                   SAVE END ENTRY
 0036A4 4160 805C            00034 22336  1                      LA    R6,FCWHNTR2
 0036A8 D71F 6000 6000 00000 00000 22337  1                      CLEAR FWENTRY
 0036AE D203 6000 8034 00000 0000C 22344  1                      MVC   FWNLINE,FCWHLIN2
 0036B4 D207 6004 718A 00004 03778 22345  1                      MVC   FWNNAME,=CL8'END     '
 0036BA 920E 6010      00010       22346  1                      SET   FWEND
 0036BE 9202 6011      00011       22352  1                      SET   FWBRANCH
 0036C2 D203 6014 8030 00014 00008 22358  1                      MVC   FWBLINE,FCWHLINE
 0036C8 4110 6000            00000 22359  1                      LA    R1,FWENTRY
 0036CC 58E0 71FE/0DEE       037EC 22360  1                      ACALL SAVEFLOW
 0036D2                            22364                       END   ,                   OF ELSE BEGIN
                                   22368                       ¿þþþþþþþþþþþþþþþþþþþþþþþþþþþþþþþþþþþþþþþþþþþþþþþÜ
                                   22369                       Ÿ  if we have:   while (expression), statement  Ÿ
                                   22370                       ¾þþþþþþþþþþþþþþþþþþþþþþþþþþþþþþþþþþþþþþþþþþþþþþþ»
 0036D2 70E8/47F0 712A 036D2 03654 22371                       ELSE BEGIN
                                   22382  1
                                   22383  1                      COMMENT                   SAVE LINE AFTER WHILE-END
 0036D6 5810 8028            00000 22384  1                      L     R1,FCWHAREA
 0036DA 5820 802C            00004 22385  1                      L     R2,FCWHLPTR
 0036DE 58E0 721A/0DEE       03808 22386  1                      ACALL FCNEXTLN
 0036E4 5000 8038            00010 22390  1                      ST    R0,FCWHLIN3
                                   22391  1
                                   22392  1                      COMMENT                   SAVE WHILE ENTRY
 0036E8 4160 803C            00014 22393  1                      LA    R6,FCWHNTRY
 0036EC D71F 6000 6000 00000 00000 22394  1                      CLEAR FWENTRY
1FLOW     (FLOW2025) (12:45) (15MAR04) FLOW CONTROL SCANNING/PROCESSING                                                     Page  107
0Current Usings:  (FWENTRY,R6) (*,R7) (FCWHWA-(4+36),R8) (CP,R11) (CV,R12)
0Loc    Object Code    Addr1 Addr2  Stmt Lv Lineno    Source Statement           (Hibal 5, Asmedit 3.3)  HLASM R4.0  2004/03/15 12.45
+___    ______ ____    _____ _____  ____ __ ______    ______ _________
00036F2 D203 6000 8030 00000 00008 22401  1                      MVC   FWNLINE,FCWHLINE
 0036F8 D207 6004 71C2 00004 037B0 22402  1                      MVC   FWNNAME,=CL8'WHILE   '
 0036FE 9208 6010      00010       22403  1                      SET   FWWHILE
 003702 D203 6014 8030 00014 00008 22409  1                      MVC   FWTRUE,FCWHLINE
 003708 D203 6018 8038 00018 00010 22410  1                      MVC   FWFALSE,FCWHLIN3
 00370E 4110 6000            00000 22411  1                      LA    R1,FWENTRY
 003712 58E0 71FE/0DEE       037EC 22412  1                      ACALL SAVEFLOW
 003718                            22416                       END
                                   22420
 003718 1BFF                       22421                       CLEAR R15
 00371A 18D8/9808 D004_            22425                       PEND  ,
 DROP   FCWHWA-(4+36),R8
 DROP   *,R7
 DROP   FWENTRY,R6                 22450                       DROP  R6
1FLOW     (FLOW2025) (12:45) (15MAR04) FLOW CONTROL SCANNING/PROCESSING                                                     Page  108
0Current Usings:  (CP,R11) (CV,R12)
0Loc    Object Code    Addr1 Addr2  Stmt Lv Lineno    Source Statement           (Hibal 5, Asmedit 3.3)  HLASM R4.0  2004/03/15 12.45
+___    ______ ____    _____ _____  ____ __ ______    ______ _________
0                                  22458                       QLTORG
1FLOW     (FLOW2025) (12:45) (15MAR04) FLOW CONTROL SCANNING/PROCESSING                                                     Page  109
0Current Usings:  (CP,R11) (CV,R12)
0Loc    Object Code    Addr1 Addr2  Stmt Lv Lineno    Source Statement           (Hibal 5, Asmedit 3.3)  HLASM R4.0  2004/03/15 12.45
+___    ______ ____    _____ _____  ____ __ ______    ______ _________
0                                  22511              ¿þþþþþþþþþþþþþþþþþþþþþþþþþþþþþþþþþþþþþþþþþþþþþþþþþþþþþþþþþþþþþþþþþþþþþÜ
                                   22512              Ÿ                                                                     Ÿ
                                   22513              Ÿ                                                                     Ÿ
                                   22514              Ÿ  FCIF -  IF FLOW PROCESSING                                         Ÿ
                                   22515              Ÿ                                                                     Ÿ
                                   22516              Ÿ  ON ENTRY:                                                          Ÿ
                                   22517              Ÿ      @R1 - LINE AREA                                                Ÿ
                                   22518              Ÿ      @R2 - LINE NUMBER (OF IF STATEMENT)                            Ÿ
                                   22519              Ÿ                                                                     Ÿ
                                   22520              Ÿ  ON EXIT:                                                           Ÿ
                                   22521              Ÿ      @R2 - LINE NUMBER (OF END OF IF STRUCTURE)                     Ÿ
                                   22522              Ÿ      R15 - CC=ZERO                                                  Ÿ
                                   22523              Ÿ            ERRORS EXIT VIA FCERR, THEN CVERROR                      Ÿ
                                   22524              Ÿ                                                                     Ÿ
                                   22525              Ÿ  IF FLOW PROCESSING IS A BIT COMPLICATED BY TWO UNUSUAL             Ÿ
                                   22526              Ÿ  CONDITIONS.  FIRST, AN IF DOES NOT REQUIRE A BEGIN-END BLOCK.      Ÿ
                                   22527              Ÿ  THAT IS AN IF MAY BE FOLLOWED DIRECTLY BY A SINGLE STATEMENT.      Ÿ
                                   22528              Ÿ  THIS IS ALLOWED FOR CONVENIENCE REASONS.  SECOND, AN IF BLOCK      Ÿ
                                   22529              Ÿ  MAY BE FOLLOWED BY AN 'ELSE' OR 'ELSEIF' BLOCK.  DIG IT.           Ÿ
                                   22530              Ÿ                                                                     Ÿ
                                   22531              Ÿ                                                                     Ÿ
                                                      ¾þþþþþþþþþþþþþþþþþþþþþþþþþþþþþþþþþþþþþþþþþþþþþþþþþþþþþþþþþþþþþþþþþþþþþ»
0000000                00000 00058 22532              FCIFWA   RECORD BEGIN ,
 000000                            22540  1           FCIFAREA   DS    F                   LINE AREA POINTER
 000004                            22541  1           FCIFLPTR   DS    F                   CURRENT LINE NUMBER POINTER
 000008                            22542  1           FCIFLINE   DS    F                   IF LINE NUMBER
 00000C                            22543  1           FCIFLIN2   DS    F                   IF-END LINE NUMBER (IF ANY)
 000010                            22544  1           FCIFLIN3   DS    F                   ELSE LINE NUMBER OR IF-END++
 000014                            22545  1           FCIFLIN4   DS    F                   ELSE-END LINE NUMBER
 000018                            22546  1           FCIFNTRY   DS    XL(L'FWENTRY)       IF FLOW ENTRY
 000038                            22547  1           FCIFNTR2   DS    XL(L'FWENTRY)       IF-END FLOW ENTRY IF ANY
 000058                00058 00058 22548                       END
                                   22557              *
                                   22558              *
 0038B2 50E0 D000/9008_      00000 22559              FCIF     PROC  FCIFWA
 USING  *,R7
 USING  FCIFWA-(4+36),R8
 USING  FWENTRY,R6                 22609                       USING FWENTRY,R6
 0038CC 5010 8028            00000 22618                       ST    R1,FCIFAREA         CLEAR/INIT WORK AREA
 0038D0 5020 802C            00004 22619                       ST    R2,FCIFLPTR
 0038D4 D203 8030 2000 00008 00000 22620                       MVC   FCIFLINE(4),0(R2)
                                   22621
                                   22622                       COMMENT                   GET LINE THAT CONTAINS IF
 0038DA 58E0 7684/0DEE       03F50 22623                       ACALL  FCGET
                                   22627
                                   22628                       COMMENT                   SCAN PAST IF
 0038E0 58E0 7688/0DEE       03F54 22629                       ACALL SCANCMD
 0038E6 5830 B08C/4133_      0008C 22633                       SCUPTOK R3
 0038EE D507 7634 3000_03F00 00000 22637                       IF    (@R3,NE,'IF      '),BEGIN
 0038F8 0000                       22653  1                      BOMB
 0038FA                            22655                       END
                                   22659
                                   22660                       COMMENT                   SKIP CONDITIONAL EXPR AFTER IF
1FLOW     (FLOW2025) (12:45) (15MAR04) FLOW CONTROL SCANNING/PROCESSING                                                     Page  110
0Current Usings:  (FWENTRY,R6) (*,R7) (FCIFWA-(4+36),R8) (CP,R11) (CV,R12)
0Loc    Object Code    Addr1 Addr2  Stmt Lv Lineno    Source Statement           (Hibal 5, Asmedit 3.3)  HLASM R4.0  2004/03/15 12.45
+___    ______ ____    _____ _____  ____ __ ______    ______ _________
00038FA 58E0 768C/0DEE       03F58 22661                       ACALL SKIPEXPR
 003900 4780 7048            03914 22665                       IF    NZ,BEGIN
 003904 4110 76C0/4100_      03F8C 22676  1                      FCERR ' ',,LPTR=(R2)
 003914                            22690                       END
                                   22694
                                   22695                       COMMENT                   SCAN FOR 'BEGIN'
 003914 58E0 B08C/501E_      0008C 22696                       SCINIT (R1),(R0)
 003922 58E0 7694/0DEE       03F60 22716                       ACALL SCNBEGIN
 003928 5810 8028            00000 22720                       L     R1,FCIFAREA
 00392C 5820 802C            00004 22721                       L     R2,FCIFLPTR
                                   22722                       ¿þþþþþþþþþþþþþþþþþþþþþþþþþþþþþþþþþþþþþþþÜ
                                   22723                       Ÿ  if we have:  if (expression), begin  Ÿ
                                   22724                       ¾þþþþþþþþþþþþþþþþþþþþþþþþþþþþþþþþþþþþþþþ»
                                   22725                       COMMENT                   FIND END OF IF BEGIN-END
 003930 12FF/4770 7128             22726                       IF    (R15,Z),BEGIN
 003936 5810 8028            00000 22740  1                      L     R1,FCIFAREA
 00393A 5820 802C            00004 22741  1                      L     R2,FCIFLPTR
 00393E 58E0 7698/0DEE       03F64 22742  1                      ACALL FINDEND             FIND MATCHING END
 003944 D203 8034 2000 0000C 00000 22746  1                      MVC   FCIFLIN2,0(R2)      SAVE MATCHING END LINE NUMBER
                                   22747  1
                                   22748  1                      COMMENT                   SAVE LINE AFTER IF-END
 00394A 58E0 769C/0DEE       03F68 22749  1                      ACALL FCNEXTLN
 003950 5000 8038            00010 22753  1                      ST    R0,FCIFLIN3
                                   22754  1
                                   22755  1                      COMMENT                   CHEKC FOR ELSE/ELSEIF
 003954 58E0 76A0/0DEE_      03F6C 22756  1                      IF    (' ACALL CHKELSE ',Z),BEGIN    IF ELSE
 00395E 58E0 76A4/0DEE       03F70 22772  2                        ACALL FCELSE
 003964 58E0 769C/0DEE       03F68 22776  2                        ACALL FCNEXTLN
 00396A 5000 803C            00014 22780  2                        ST    R0,FCIFLIN4
 00396E                            22781  1                      END
 00396E 70A6/47F0 70C0_0396E 0395C 22785  1                      ELSEIF (' ACALL CHKELSF ',Z),BEGIN   IF ELSEIF
 00397C 58E0 76AC/0DEE       03F78 22810  2                        ACALL FCELSEIF
 003982 58E0 769C/0DEE       03F68 22814  2                        ACALL FCNEXTLN
 003988 5000 803C            00014 22818  2                        ST    R0,FCIFLIN4
 00398C                            22819  1                      END
 00398C 70C4/47F0 70CA 0398C 0397A 22823  1                      ELSE  BEGIN                          IF NO ELSE/ELSEIF,
 003990 D203 803C 8038 00014 00010 22834  2                        MVC   FCIFLIN4,FCIFLIN3              ELSE-END IS IF-END++
 003996                            22835  1                      END
                                   22839  1
                                   22840  1                      COMMENT                   SAVE IF ENTRY
 003996 4160 8040            00018 22841  1                      LA    R6,FCIFNTRY
 00399A D71F 6000 6000 00000 00000 22842  1                      CLEAR FWENTRY
 0039A0 D203 6000 8030 00000 00008 22849  1                      MVC   FWNLINE,FCIFLINE
 0039A6 D207 6004 763C 00004 03F08 22850  1                      MVC   FWNNAME,=CL8'IF      '
 0039AC 9204 6010      00010       22851  1                      SET   FWIF
 0039B0 D203 6014 76B0 00014 03F7C 22857  1                      MVC   FWTRUE,=CL4'NEXT'
 0039B6 D203 6018 8038 00018 00010 22858  1                      MVC   FWFALSE,FCIFLIN3
 0039BC 4110 6000            00000 22859  1                      LA    R1,FWENTRY
 0039C0 58E0 76B4/0DEE       03F80 22860  1                      ACALL SAVEFLOW
                                   22864  1
                                   22865  1                      COMMENT                   SAVE IF-END ENTRY
 0039C6 4160 8060            00038 22866  1                      LA    R6,FCIFNTR2
 0039CA D71F 6000 6000 00000 00000 22867  1                      CLEAR FWENTRY
 0039D0 D203 6000 8034 00000 0000C 22874  1                      MVC   FWNLINE,FCIFLIN2
1FLOW     (FLOW2025) (12:45) (15MAR04) FLOW CONTROL SCANNING/PROCESSING                                                     Page  111
0Current Usings:  (FWENTRY,R6) (*,R7) (FCIFWA-(4+36),R8) (CP,R11) (CV,R12)
0Loc    Object Code    Addr1 Addr2  Stmt Lv Lineno    Source Statement           (Hibal 5, Asmedit 3.3)  HLASM R4.0  2004/03/15 12.45
+___    ______ ____    _____ _____  ____ __ ______    ______ _________
00039D6 D207 6004 7644 00004 03F10 22875  1                      MVC   FWNNAME,=CL8'END     '
 0039DC 920E 6010      00010       22876  1                      SET   FWEND
 0039E0 9202 6011      00011       22882  1                      SET   FWBRANCH
 0039E4 D203 6014 803C 00014 00014 22888  1                      MVC   FWBLINE,FCIFLIN4
 0039EA 4110 6000            00000 22889  1                      LA    R1,FWENTRY
 0039EE 58E0 76B4/0DEE       03F80 22890  1                      ACALL SAVEFLOW
 0039F4                            22894                       END   ,                   OF IF <EXPRESSION>, BEGIN
                                   22898                       ¿þþþþþþþþþþþþþþþþþþþþþþþþþþþþþþþþþþþþþþþþþþþþÜ
                                   22899                       Ÿ  if we have:   if (expression), statement  Ÿ
                                   22900                       ¾þþþþþþþþþþþþþþþþþþþþþþþþþþþþþþþþþþþþþþþþþþþþ»
 0039F4 712C/47F0 71B0 039F4 03934 22901                       ELSE  BEGIN
                                   22912  1
                                   22913  1                      COMMENT                   SAVE LINE AFTER IF-END
 0039F8 5810 8028            00000 22914  1                      L     R1,FCIFAREA
 0039FC 5820 802C            00004 22915  1                      L     R2,FCIFLPTR
 003A00 58E0 769C/0DEE       03F68 22916  1                      ACALL FCNEXTLN
 003A06 5000 8038            00010 22920  1                      ST    R0,FCIFLIN3
                                   22921  1
                                   22922  1                      COMMENT                   CHEKC FOR ELSE/ELSEIF
 003A0A 58E0 76A0/0DEE_      03F6C 22923  1                      IF    (' ACALL CHKELSE ',Z),BEGIN    IF ELSE
 003A14 58E0 76A4/0DEE       03F70 22939  2                        ACALL FCELSE
 003A1A 58E0 769C/0DEE       03F68 22943  2                        ACALL FCNEXTLN
 003A20 5000 803C            00014 22947  2                        ST    R0,FCIFLIN4
 003A24                            22948  1                      END
 003A24 715C/47F0 7176_03A24 03A12 22952  1                      ELSEIF (' ACALL CHKELSF ',Z),BEGIN   IF ELSEIF
 003A32 58E0 76AC/0DEE       03F78 22977  2                        ACALL FCELSEIF                          WE LOVE RECURSION
 003A38 58E0 769C/0DEE       03F68 22981  2                        ACALL FCNEXTLN
 003A3E 5000 803C            00014 22985  2                        ST    R0,FCIFLIN4
 003A42                            22986  1                      END
 003A42 717A/47F0 7180 03A42 03A30 22990  1                      ELSE  BEGIN                          IF NO ELSE/ELSEIF,
 003A46 D203 803C 8038 00014 00010 23001  2                        MVC   FCIFLIN4,FCIFLIN3              ELSE-END IS IF-END++
 003A4C                            23002  1                      END
                                   23006  1
                                   23007  1                      COMMENT                   SAVE IF ENTRY
 003A4C 4160 8040            00018 23008  1                      LA    R6,FCIFNTRY
 003A50 D71F 6000 6000 00000 00000 23009  1                      CLEAR FWENTRY
 003A56 D203 6000 8030 00000 00008 23016  1                      MVC   FWNLINE,FCIFLINE
 003A5C D207 6004 763C 00004 03F08 23017  1                      MVC   FWNNAME,=CL8'IF      '
 003A62 9204 6010      00010       23018  1                      SET   FWIF
 003A66 D203 6014 803C 00014 00014 23024  1                      MVC   FWTRUE,FCIFLIN4
 003A6C D203 6018 8038 00018 00010 23025  1                      MVC   FWFALSE,FCIFLIN3
 003A72 4110 6000            00000 23026  1                      LA    R1,FWENTRY
 003A76 58E0 76B4/0DEE       03F80 23027  1                      ACALL SAVEFLOW
 003A7C                            23031                       END
                                   23035
 003A7C 1BFF                       23036                       CLEAR R15
 003A7E 18D8/9808 D004_            23040                       PEND  ,
 DROP   FCIFWA-(4+36),R8
 DROP   *,R7
 DROP   FWENTRY,R6                 23065                       DROP  R6
1FLOW     (FLOW2025) (12:45) (15MAR04) FLOW CONTROL SCANNING/PROCESSING                                                     Page  112
0Current Usings:  (CP,R11) (CV,R12)
0Loc    Object Code    Addr1 Addr2  Stmt Lv Lineno    Source Statement           (Hibal 5, Asmedit 3.3)  HLASM R4.0  2004/03/15 12.45
+___    ______ ____    _____ _____  ____ __ ______    ______ _________
0                                  23073              ¿þþþþþþþþþþþþþþþþþþþþþþþþþþþþþþþþþþþþþþþþþþþþþþþþþþþþþþþþþþþþþþþþþþþþþÜ
                                   23074              Ÿ                                                                     Ÿ
                                   23075              Ÿ                                                                     Ÿ
                                   23076              Ÿ  FCELSE - ELSE FLOW PROCESSING                                      Ÿ
                                   23077              Ÿ                                                                     Ÿ
                                   23078              Ÿ  ON ENTRY:                                                          Ÿ
                                   23079              Ÿ       @R1 - LINE AREA                                               Ÿ
                                   23080              Ÿ       @R2 - LINE NUMBER (OF ELSE)                                   Ÿ
                                   23081              Ÿ                                                                     Ÿ
                                   23082              Ÿ  ON EXIT:                                                           Ÿ
                                   23083              Ÿ       @R2 - LINE NUMBER (OF END OF ELSE STRUCTURE)                  Ÿ
                                   23084              Ÿ       R15 - CC=ZERO                                                 Ÿ
                                   23085              Ÿ             ERRORS EXIT VIA FCERR, THEN CVERROR                     Ÿ
                                   23086              Ÿ                                                                     Ÿ
                                   23087              Ÿ  THIS ROUTINE IS CALLED BY THE 'IF' FLOW CONTROL ROUTINE.           Ÿ
                                   23088              Ÿ  IT IS COMPLICATED BY ONE ITEM,  WE ALLOW BOTH 'ELSE BEGIN'         Ÿ
                                   23089              Ÿ  AND 'ELSE <statement>'.                                            Ÿ
                                   23090              Ÿ                                                                     Ÿ
                                   23091              Ÿ                                                                     Ÿ
                                                      ¾þþþþþþþþþþþþþþþþþþþþþþþþþþþþþþþþþþþþþþþþþþþþþþþþþþþþþþþþþþþþþþþþþþþþþ»
0000000                00000 00050 23092              FCELWA   RECORD BEGIN
 000000                            23100  1           FCELAREA   DS    F                   LINE AREA POINTER
 000004                            23101  1           FCELLPTR   DS    F                   CURRENT LINE NUMBER POINTER
 000008                            23102  1           FCELLINE   DS    F                   ELSE LINE NUMBER
 00000C                            23103  1           FCELLIN2   DS    F                   ELSE-END LINE NUMBER OR ELSE++
 000010                            23104  1           FCELNTRY   DS    XL(L'FWENTRY)       ELSE FLOW ENTRY
 000030                            23105  1           FCELNTR2   DS    XL(L'FWENTRY)       ELSE-END FLOW ENTRY
 000050                00050 00050 23106                       END
                                   23115              *
                                   23116              *
 003A8C 50E0 D000/9008_      00000 23117              FCELSE   PROC  FCELWA
 USING  *,R7
 USING  FCELWA-(4+36),R8
 USING  FWENTRY,R6                 23167                       USING FWENTRY,R6
 003AA6 5010 8028            00000 23176                       ST    R1,FCELAREA
 003AAA 5020 802C            00004 23177                       ST    R2,FCELLPTR
 003AAE D203 8030 2000 00008 00000 23178                       MVC   FCELLINE(4),0(R2)
                                   23179
                                   23180                       COMMENT                   GET LINE THAT CONTAINS ELSE
 003AB4 58E0 74AA/0DEE       03F50 23181                       ACALL FCGET
                                   23185
                                   23186                       COMMENT                   PROCESS LABEL, IF ANY
 003ABA 58E0 74DE/0DEE       03F84 23187                       ACALL FCLABEL             ***LABEL TRICK
                                   23191
                                   23192                       COMMENT                   SCAN PAST ELSE
 003AC0 58E0 74AE/0DEE       03F54 23193                       ACALL SCANCMD
 003AC6 5830 B08C/4133_      0008C 23197                       SCUPTOK R3
 003ACE D507 7472 3000_03F18 00000 23201                       IF    (@R3,NE,'ELSE    '),BEGIN
 003AD8 0000                       23217  1                      BOMB
 003ADA                            23219                       END
                                   23223
                                   23224                       COMMENT                   SCAN FOR 'BEGIN'
 003ADA 58E0 B08C/501E_      0008C 23225                       SCINIT (R1),(R0)
1FLOW     (FLOW2025) (12:45) (15MAR04) FLOW CONTROL SCANNING/PROCESSING                                                     Page  113
0Current Usings:  (FWENTRY,R6) (*,R7) (FCELWA-(4+36),R8) (CP,R11) (CV,R12)
0Loc    Object Code    Addr1 Addr2  Stmt Lv Lineno    Source Statement           (Hibal 5, Asmedit 3.3)  HLASM R4.0  2004/03/15 12.45
+___    ______ ____    _____ _____  ____ __ ______    ______ _________
0003AE8 58E0 74BA/0DEE       03F60 23245                       ACALL SCNBEGIN
 003AEE 5810 8028            00000 23249                       L     R1,FCELAREA
 003AF2 5820 802C            00004 23250                       L     R2,FCELLPTR
                                   23251                       ¿þþþþþþþþþþþþþþþþþþþþþþþþþþþþÜ
                                   23252                       Ÿ  if we have:   else begin  Ÿ
                                   23253                       ¾þþþþþþþþþþþþþþþþþþþþþþþþþþþþ»
                                   23254                       COMMENT                   FIND END OF ELSE BEGIN
 003AF6 4770 70B4            03B5A 23255                       IF    Z,BEGIN
 003AFA 5810 8028            00000 23266  1                      L     R1,FCELAREA
 003AFE 5820 802C            00004 23267  1                      L     R2,FCELLPTR
 003B02 58E0 74BE/0DEE       03F64 23268  1                      ACALL FINDEND
 003B08 D203 8034 2000 0000C 00000 23272  1                      MVC   FCELLIN2,0(R2)
                                   23273  1
                                   23274  1                      COMMENT                   SAVE ELSE ENTRY
 003B0E 4160 8038            00010 23275  1                      LA    R6,FCELNTRY
 003B12 D71F 6000 6000 00000 00000 23276  1                      CLEAR FWENTRY
 003B18 D203 6000 8030 00000 00008 23283  1                      MVC   FWNLINE,FCELLINE
 003B1E D207 6004 747A 00004 03F20 23284  1                      MVC   FWNNAME,=CL8'ELSE    '
 003B24 9205 6010      00010       23285  1                      SET   FWELSE
 003B28 4110 6000            00000 23291  1                      LA    R1,FWENTRY
 003B2C 58E0 74DA/0DEE       03F80 23292  1                      ACALL SAVEFLOW
                                   23296  1
                                   23297  1                      COMMENT                   SAVE END ENTRY
 003B32 4160 8058            00030 23298  1                      LA    R6,FCELNTR2
 003B36 D71F 6000 6000 00000 00000 23299  1                      CLEAR FWENTRY
 003B3C D203 6000 8034 00000 0000C 23306  1                      MVC   FWNLINE,FCELLIN2
 003B42 D207 6004 746A 00004 03F10 23307  1                      MVC   FWNNAME,=CL8'END     '
 003B48 920E 6010      00010       23308  1                      SET   FWEND
 003B4C 9201 6011      00011       23314  1                      SET   FWNOOP
 003B50 4110 6000            00000 23320  1                      LA    R1,FWENTRY
 003B54 58E0 74DA/0DEE       03F80 23321  1                      ACALL SAVEFLOW
 003B5A                            23325                       END   ,                   OF ELSE BEGIN
                                   23329                       ¿þþþþþþþþþþþþþþþþþþþþþþþþþþþþþþþþÜ
                                   23330                       Ÿ  if we have:   else statement  Ÿ
                                   23331                       ¾þþþþþþþþþþþþþþþþþþþþþþþþþþþþþþþþ»
 003B5A 70B8/47F0 70DC 03B5A 03AF8 23332                       ELSE BEGIN
                                   23343  1
                                   23344  1                      COMMENT                   SIMPLY SAVE ELSE ENTRY
 003B5E 4160 8038            00010 23345  1                      LA    R6,FCELNTRY
 003B62 D71F 6000 6000 00000 00000 23346  1                      CLEAR FWENTRY
 003B68 D203 6000 8030 00000 00008 23353  1                      MVC   FWNLINE,FCELLINE
 003B6E D207 6004 747A 00004 03F20 23354  1                      MVC   FWNNAME,=CL8'ELSE    '
 003B74 9205 6010      00010       23355  1                      SET   FWELSE
 003B78 4110 6000            00000 23361  1                      LA    R1,FWENTRY
 003B7C 58E0 74DA/0DEE       03F80 23362  1                      ACALL SAVEFLOW
 003B82                            23366                       END
                                   23370
 003B82 1BFF                       23371                       CLEAR R15
 003B84 18D8/9808 D004_            23375                       PEND  ,
 DROP   FCELWA-(4+36),R8
 DROP   *,R7
 DROP   FWENTRY,R6                 23400                       DROP  R6
1FLOW     (FLOW2025) (12:45) (15MAR04) FLOW CONTROL SCANNING/PROCESSING                                                     Page  114
0Current Usings:  (CP,R11) (CV,R12)
0Loc    Object Code    Addr1 Addr2  Stmt Lv Lineno    Source Statement           (Hibal 5, Asmedit 3.3)  HLASM R4.0  2004/03/15 12.45
+___    ______ ____    _____ _____  ____ __ ______    ______ _________
0                                  23408              ¿þþþþþþþþþþþþþþþþþþþþþþþþþþþþþþþþþþþþþþþþþþþþþþþþþþþþþþþþþþþþþþþþþþþþþÜ
                                   23409              Ÿ                                                                     Ÿ
                                   23410              Ÿ                                                                     Ÿ
                                   23411              Ÿ  FCELSEIF -  ELSEIF FLOW PROCESSING                                 Ÿ
                                   23412              Ÿ                                                                     Ÿ
                                   23413              Ÿ  ON ENTRY:                                                          Ÿ
                                   23414              Ÿ      @R1 - LINE AREA                                                Ÿ
                                   23415              Ÿ      @R2 - LINE NUMBER (OF ELSEIF STATEMENT)                        Ÿ
                                   23416              Ÿ                                                                     Ÿ
                                   23417              Ÿ  ON EXIT:                                                           Ÿ
                                   23418              Ÿ      @R2 - LINE NUMBER (OF END OF ELSEIF STRUCTURE)                 Ÿ
                                   23419              Ÿ      R15 - CC=ZERO                                                  Ÿ
                                   23420              Ÿ            ERRORS EXIT VIA FCERR, THEN CVERROR                      Ÿ
                                   23421              Ÿ                                                                     Ÿ
                                   23422              Ÿ  THIS ROUTINE IS VERY SIMILAR TO THE 'IF' FLOW CONTROL ROUTINE.     Ÿ
                                   23423              Ÿ  IT IS (AS IS THE 'IF' ROUTINE) COMPLICATED BY TWO UNUSUAL          Ÿ
                                   23424              Ÿ  CONDITIONS.  FIRST, AN ELSEIF DOES NOT REQUIRE A BEGIN-END BLOCK.  Ÿ
                                   23425              Ÿ  THAT IS AN ELSEIF MAY BE FOLLOWED DIRECTLY BY A SINGLE STATEMENT.  Ÿ
                                   23426              Ÿ  THIS IS ALLOWED FOR CONVENIENCE REASONS.  SECOND, AN ELSEIF        Ÿ
                                   23427              Ÿ  BLOCK MAY BE FOLLOWED BY AN 'ELSE' OR 'ELSEIF' BLOCK. DIG IT.      Ÿ
                                   23428              Ÿ                                                                     Ÿ
                                   23429              Ÿ                                                                     Ÿ
                                                      ¾þþþþþþþþþþþþþþþþþþþþþþþþþþþþþþþþþþþþþþþþþþþþþþþþþþþþþþþþþþþþþþþþþþþþþ»
0000000                00000 00058 23430              FCEFWA   RECORD BEGIN ,
 000000                            23438  1           FCEFAREA   DS    F                   LINE AREA POINTER
 000004                            23439  1           FCEFLPTR   DS    F                   CURRENT LINE NUMBER POINTER
 000008                            23440  1           FCEFLINE   DS    F                   ELSEIF LINE NUMBER
 00000C                            23441  1           FCEFLIN2   DS    F                   IF-END LINE NUMBER (IF ANY)
 000010                            23442  1           FCEFLIN3   DS    F                   ELSE LINE NUMBER OR IF-END++
 000014                            23443  1           FCEFLIN4   DS    F                   ELSE-END LINE NUMBER
 000018                            23444  1           FCEFNTRY   DS    XL(L'FWENTRY)       ELSEIF FLOW ENTRY
 000038                            23445  1           FCEFNTR2   DS    XL(L'FWENTRY)       ELSEIF-END FLOW ENTRY IF ANY
 000058                00058 00058 23446                       END
                                   23455              *
                                   23456              *
 003B92 50E0 D000/9008_      00000 23457              FCELSEIF PROC  FCEFWA
 USING  *,R7
 USING  FCEFWA-(4+36),R8
 USING  FWENTRY,R6                 23507                       USING FWENTRY,R6
 003BAC 5010 8028            00000 23516                       ST    R1,FCEFAREA         CLEAR/INIT WORK AREA
 003BB0 5020 802C            00004 23517                       ST    R2,FCEFLPTR
 003BB4 D203 8030 2000 00008 00000 23518                       MVC   FCEFLINE(4),0(R2)
                                   23519
                                   23520                       COMMENT                   GET LINE THAT CONTAINS ELSEIF
 003BBA 58E0 73A4/0DEE       03F50 23521                       ACALL  FCGET
                                   23525
                                   23526                       COMMENT                   PROCESS LABEL, IF ANY
 003BC0 58E0 73D8/0DEE       03F84 23527                       ACALL FCLABEL             ***LABEL TRICK
                                   23531
                                   23532                       COMMENT                   SCAN PASE ELSEIF
 003BC6 58E0 73A8/0DEE       03F54 23533                       ACALL SCANCMD
 003BCC 5830 B08C/4133_      0008C 23537                       SCUPTOK R3
 003BD4 D507 737C 3000_03F28 00000 23541                       IF    (@R3,NE,'ELSEIF  '),BEGIN
1FLOW     (FLOW2025) (12:45) (15MAR04) FLOW CONTROL SCANNING/PROCESSING                                                     Page  115
0Current Usings:  (FWENTRY,R6) (*,R7) (FCEFWA-(4+36),R8) (CP,R11) (CV,R12)
0Loc    Object Code    Addr1 Addr2  Stmt Lv Lineno    Source Statement           (Hibal 5, Asmedit 3.3)  HLASM R4.0  2004/03/15 12.45
+___    ______ ____    _____ _____  ____ __ ______    ______ _________
0003BDE 0000                       23557  1                      BOMB
 003BE0                            23559                       END
                                   23563
                                   23564                       COMMENT                   SKIP CONDITIONAL EXPR AFTER ELSEIF
 003BE0 58E0 73AC/0DEE       03F58 23565                       ACALL SKIPEXPR
 003BE6 4780 704E            03BFA 23569                       IF    NZ,BEGIN
 003BEA 4110 73E0/4100_      03F8C 23580  1                      FCERR ' ',,LPTR=(R2)
 003BFA                            23594                       END
                                   23598
                                   23599                       COMMENT                   SCAN FOR 'BEGIN'
 003BFA 58E0 B08C/501E_      0008C 23600                       SCINIT (R1),(R0)
 003C08 58E0 73B4/0DEE       03F60 23620                       ACALL SCNBEGIN
 003C0E 5810 8028            00000 23624                       L     R1,FCEFAREA
 003C12 5820 802C            00004 23625                       L     R2,FCEFLPTR
                                   23626                       ¿þþþþþþþþþþþþþþþþþþþþþþþþþþþþþþþþþþþþþþþþþþþÜ
                                   23627                       Ÿ  if we have:  elseif (expression), begin  Ÿ
                                   23628                       ¾þþþþþþþþþþþþþþþþþþþþþþþþþþþþþþþþþþþþþþþþþþþ»
                                   23629                       COMMENT                   FIND END OF ELSEIF BEGIN-END
 003C16 4770 712C            03CD8 23630                       IF    Z,BEGIN
 003C1A 5810 8028            00000 23641  1                      L     R1,FCEFAREA
 003C1E 5820 802C            00004 23642  1                      L     R2,FCEFLPTR
 003C22 58E0 73B8/0DEE       03F64 23643  1                      ACALL FINDEND             FIND MATCHING END
 003C28 D203 8034 2000 0000C 00000 23647  1                      MVC   FCEFLIN2,0(R2)      SAVE MATCHING END LINE NUMBER
                                   23648  1
                                   23649  1                      COMMENT                   SAVE LINE AFTER ELSEIF-END
 003C2E 58E0 73BC/0DEE       03F68 23650  1                      ACALL FCNEXTLN
 003C34 5000 8038            00010 23654  1                      ST    R0,FCEFLIN3
                                   23655  1
                                   23656  1                      COMMENT                   CHEKC FOR ELSE/ELSEIF
 003C38 58E0 73C0/0DEE_      03F6C 23657  1                      IF    (' ACALL CHKELSE ',Z),BEGIN    IF ELSE
 003C42 58E0 73C4/0DEE       03F70 23673  2                        ACALL FCELSE
 003C48 58E0 73BC/0DEE       03F68 23677  2                        ACALL FCNEXTLN
 003C4E 5000 803C            00014 23681  2                        ST    R0,FCEFLIN4
 003C52                            23682  1                      END
 003C52 70AA/47F0 70C4_03C52 03C40 23686  1                      ELSEIF (' ACALL CHKELSF ',Z),BEGIN   IF ELSEIF
 003C60 58E0 73CC/0DEE       03F78 23711  2                        ACALL FCELSEIF                          WE LOVE RECURSION
 003C66 58E0 73BC/0DEE       03F68 23715  2                        ACALL FCNEXTLN
 003C6C 5000 803C            00014 23719  2                        ST    R0,FCEFLIN4
 003C70                            23720  1                      END
 003C70 70C8/47F0 70CE 03C70 03C5E 23724  1                      ELSE  BEGIN                          IF NO ELSE/ELSEIF,
 003C74 D203 803C 8038 00014 00010 23735  2                        MVC   FCEFLIN4,FCEFLIN3              JUST DEFAULT IT
 003C7A                            23736  1                      END
                                   23740  1
                                   23741  1                      COMMENT                   SAVE ELSEIF ENTRY
 003C7A 4160 8040            00018 23742  1                      LA    R6,FCEFNTRY
 003C7E D71F 6000 6000 00000 00000 23743  1                      CLEAR FWENTRY
 003C84 D203 6000 8030 00000 00008 23750  1                      MVC   FWNLINE,FCEFLINE
 003C8A D207 6004 7384 00004 03F30 23751  1                      MVC   FWNNAME,=CL8'ELSEIF  '
 003C90 9206 6010      00010       23752  1                      SET   FWELSEIF
 003C94 D203 6014 73D0 00014 03F7C 23758  1                      MVC   FWTRUE,=CL4'NEXT'
 003C9A D203 6018 8038 00018 00010 23759  1                      MVC   FWFALSE,FCEFLIN3
 003CA0 4110 6000            00000 23760  1                      LA    R1,FWENTRY
 003CA4 58E0 73D4/0DEE       03F80 23761  1                      ACALL SAVEFLOW
                                   23765  1
1FLOW     (FLOW2025) (12:45) (15MAR04) FLOW CONTROL SCANNING/PROCESSING                                                     Page  116
0Current Usings:  (FWENTRY,R6) (*,R7) (FCEFWA-(4+36),R8) (CP,R11) (CV,R12)
0Loc    Object Code    Addr1 Addr2  Stmt Lv Lineno    Source Statement           (Hibal 5, Asmedit 3.3)  HLASM R4.0  2004/03/15 12.45
+___    ______ ____    _____ _____  ____ __ ______    ______ _________
0                                  23766  1                      COMMENT                   SAVE ELSEIF-END ENTRY
 003CAA 4160 8060            00038 23767  1                      LA    R6,FCEFNTR2
 003CAE D71F 6000 6000 00000 00000 23768  1                      CLEAR FWENTRY
 003CB4 D203 6000 8034 00000 0000C 23775  1                      MVC   FWNLINE,FCEFLIN2
 003CBA D207 6004 7364 00004 03F10 23776  1                      MVC   FWNNAME,=CL8'END     '
 003CC0 920E 6010      00010       23777  1                      SET   FWEND
 003CC4 9202 6011      00011       23783  1                      SET   FWBRANCH
 003CC8 D203 6014 803C 00014 00014 23789  1                      MVC   FWBLINE,FCEFLIN4
 003CCE 4110 6000            00000 23790  1                      LA    R1,FWENTRY
 003CD2 58E0 73D4/0DEE       03F80 23791  1                      ACALL SAVEFLOW
 003CD8                            23795                       END   ,                   OF ELSEIF <EXPRESSION>, BEGIN
                                   23799                       ¿þþþþþþþþþþþþþþþþþþþþþþþþþþþþþþþþþþþþþþþþþþþþþþþþÜ
                                   23800                       Ÿ  if we have:   elseif (expression), statement  Ÿ
                                   23801                       ¾þþþþþþþþþþþþþþþþþþþþþþþþþþþþþþþþþþþþþþþþþþþþþþþþ»
 003CD8 7130/47F0 71B4 03CD8 03C18 23802                       ELSE  BEGIN
                                   23813  1
                                   23814  1                      COMMENT                   SAVE LINE AFTER ELSEIF-END
 003CDC 5810 8028            00000 23815  1                      L     R1,FCEFAREA
 003CE0 5820 802C            00004 23816  1                      L     R2,FCEFLPTR
 003CE4 58E0 73BC/0DEE       03F68 23817  1                      ACALL FCNEXTLN
 003CEA 5000 8038            00010 23821  1                      ST    R0,FCEFLIN3
                                   23822  1
                                   23823  1                      COMMENT                   CHEKC FOR ELSE/ELSEIF
 003CEE 58E0 73C0/0DEE_      03F6C 23824  1                      IF    (' ACALL CHKELSE ',Z),BEGIN    IF ELSE
 003CF8 58E0 73C4/0DEE       03F70 23840  2                        ACALL FCELSE
 003CFE 58E0 73BC/0DEE       03F68 23844  2                        ACALL FCNEXTLN
 003D04 5000 803C            00014 23848  2                        ST    R0,FCEFLIN4
 003D08                            23849  1                      END
 003D08 7160/47F0 717A_03D08 03CF6 23853  1                      ELSEIF (' ACALL CHKELSF ',Z),BEGIN   IF ELSEIF
 003D16 58E0 73CC/0DEE       03F78 23878  2                        ACALL FCELSEIF                          WE LOVE RECURSION
 003D1C 58E0 73BC/0DEE       03F68 23882  2                        ACALL FCNEXTLN
 003D22 5000 803C            00014 23886  2                        ST    R0,FCEFLIN4
 003D26                            23887  1                      END
 003D26 717E/47F0 7184 03D26 03D14 23891  1                      ELSE  BEGIN                          IF NO ELSE/ELSEIF,
 003D2A D203 803C 8038 00014 00010 23902  2                        MVC   FCEFLIN4,FCEFLIN3              JUST DEFAULT IT
 003D30                            23903  1                      END
                                   23907  1
                                   23908  1                      COMMENT                   SAVE ELSEIF ENTRY
 003D30 4160 8040            00018 23909  1                      LA    R6,FCEFNTRY
 003D34 D71F 6000 6000 00000 00000 23910  1                      CLEAR FWENTRY
 003D3A D203 6000 8030 00000 00008 23917  1                      MVC   FWNLINE,FCEFLINE
 003D40 D207 6004 7384 00004 03F30 23918  1                      MVC   FWNNAME,=CL8'ELSEIF  '
 003D46 9206 6010      00010       23919  1                      SET   FWELSEIF
 003D4A D203 6014 803C 00014 00014 23925  1                      MVC   FWTRUE,FCEFLIN4
 003D50 D203 6018 8038 00018 00010 23926  1                      MVC   FWFALSE,FCEFLIN3
 003D56 4110 6000            00000 23927  1                      LA    R1,FWENTRY
 003D5A 58E0 73D4/0DEE       03F80 23928  1                      ACALL SAVEFLOW
 003D60                            23932                       END
                                   23936
 003D60 1BFF                       23937                       CLEAR R15
 003D62 18D8/9808 D004_            23941                       PEND  ,
 DROP   FCEFWA-(4+36),R8
 DROP   *,R7
 DROP   FWENTRY,R6                 23966                       DROP  R6
1FLOW     (FLOW2025) (12:45) (15MAR04) FLOW CONTROL SCANNING/PROCESSING                                                     Page  117
0Current Usings:  (CP,R11) (CV,R12)
0Loc    Object Code    Addr1 Addr2  Stmt Lv Lineno    Source Statement           (Hibal 5, Asmedit 3.3)  HLASM R4.0  2004/03/15 12.45
+___    ______ ____    _____ _____  ____ __ ______    ______ _________
0                                  23974              ¿þþþþþþþþþþþþþþþþþþþþþþþþþþþþþþþþþþþþþþþþþþþþþþþþþþþþþþþþþþþþþþþþþþþþþÜ
                                   23975              Ÿ                                                                     Ÿ
                                   23976              Ÿ                                                                     Ÿ
                                   23977              Ÿ  FCREPEAT - REPEAT FLOW PROCESSING                                  Ÿ
                                   23978              Ÿ                                                                     Ÿ
                                   23979              Ÿ  ON ENTRY:                                                          Ÿ
                                   23980              Ÿ      @R1 - LINE AREA                                                Ÿ
                                   23981              Ÿ      @R2 - LINE NUMBER (OF IF STATEMENT)                            Ÿ
                                   23982              Ÿ                                                                     Ÿ
                                   23983              Ÿ  ON EXIT:                                                           Ÿ
                                   23984              Ÿ      @R2 - LINE NUMBER (OF END OF REPEAT STRUCTURE)                 Ÿ
                                   23985              Ÿ      R15 - CC=ZERO                                                  Ÿ
                                   23986              Ÿ            ERRORS EXIT VIA FCERR, THEN CVERROR                      Ÿ
                                   23987              Ÿ                                                                     Ÿ
                                   23988              Ÿ  REPEAT FLOW PROCESSING HAS ONE COMPLICATION. EACH REPEAT           Ÿ
                                   23989              Ÿ  OR REPEAT BLOCK MUST BE FOLLOWED BY A 'UNTIL' STATEMENT.           Ÿ
                                   23990              Ÿ  OR ELSE !!                                                         Ÿ
                                   23991              Ÿ                                                                     Ÿ
                                   23992              Ÿ                                                                     Ÿ
                                                      ¾þþþþþþþþþþþþþþþþþþþþþþþþþþþþþþþþþþþþþþþþþþþþþþþþþþþþþþþþþþþþþþþþþþþþþ»
0000000                00000 00074 23993              FCRPWA   RECORD BEGIN ,
 000000                            24001  1           FCRPAREA   DS    F                   LINE AREA POINTER
 000004                            24002  1           FCRPLPTR   DS    F                   CURRENT LINE NUMBER POINTER
 000008                            24003  1           FCRPLINE   DS    F                   REPEAT LINE NUMBER
 00000C                            24004  1           FCRPLIN2   DS    F                   REPEAT-END LINE NUMBER, IF ANY
 000010                            24005  1           FCRPLIN3   DS    F                   UNTIL LINE NUMBER
 000014                            24006  1           FCRPNTRY   DS    XL(L'FWENTRY)       REPEAT FLOW ENTRY
 000034                            24007  1           FCRPNTR2   DS    XL(L'FWENTRY)       REPEAT-END FLOW ENTRY
 000054                            24008  1           FCRPNTR3   DS    XL(L'FWENTRY)       UNTIL FLOW ENTRY
 000074                00074 00074 24009                       END
                                   24018              *
                                   24019              *
 003D70 50E0 D000/9008_      00000 24020              FCREPEAT PROC  FCRPWA
 USING  *,R7
 USING  FCRPWA-(4+36),R8
 USING  FWENTRY,R6                 24070                       USING FWENTRY,R6
 003D8A 5010 8028            00000 24079                       ST    R1,FCRPAREA         CLEAR/INIT WORK AREA
 003D8E 5020 802C            00004 24080                       ST    R2,FCRPLPTR
 003D92 D203 8030 2000 00008 00000 24081                       MVC   FCRPLINE(4),0(R2)
                                   24082
                                   24083                       COMMENT                   GET LINE THAT CONTAINS REPEAT
 003D98 58E0 71C6/0DEE       03F50 24084                       ACALL  FCGET
                                   24088
                                   24089                       COMMENT                   SCAN PAST REPEAT
 003D9E 58E0 71CA/0DEE       03F54 24090                       ACALL SCANCMD
 003DA4 5830 B08C/4133_      0008C 24094                       SCUPTOK R3
 003DAC D507 71AE 3000_03F38 00000 24098                       IF    (@R3,NE,'REPEAT  '),BEGIN
 003DB6 0000                       24114  1                      BOMB
 003DB8                            24116                       END
                                   24120
                                   24121                       COMMENT                   SCAN FOR 'BEGIN'
 003DB8 58E0 B08C/501E_      0008C 24122                       SCINIT (R1),(R0)
 003DC6 58E0 71D6/0DEE       03F60 24142                       ACALL SCNBEGIN
1FLOW     (FLOW2025) (12:45) (15MAR04) FLOW CONTROL SCANNING/PROCESSING                                                     Page  118
0Current Usings:  (FWENTRY,R6) (*,R7) (FCRPWA-(4+36),R8) (CP,R11) (CV,R12)
0Loc    Object Code    Addr1 Addr2  Stmt Lv Lineno    Source Statement           (Hibal 5, Asmedit 3.3)  HLASM R4.0  2004/03/15 12.45
+___    ______ ____    _____ _____  ____ __ ______    ______ _________
0003DCC 5810 8028            00000 24146                       L     R1,FCRPAREA
 003DD0 5820 802C            00004 24147                       L     R2,FCRPLPTR
                                   24148                       ¿þþþþþþþþþþþþþþþþþþþþþþþþþþþþþÜ
                                   24149                       Ÿ  if we have:  repeat begin  Ÿ
                                   24150                       ¾þþþþþþþþþþþþþþþþþþþþþþþþþþþþþ»
                                   24151                       COMMENT                   FIND END OF IF BEGIN-END
 003DD4 12FF/4770 70F4             24152                       IF    (R15,Z),BEGIN
 003DDA 5810 8028            00000 24166  1                      L     R1,FCRPAREA
 003DDE 5820 802C            00004 24167  1                      L     R2,FCRPLPTR
 003DE2 58E0 71DA/0DEE       03F64 24168  1                      ACALL FINDEND             FIND MATCHING END
 003DE8 D203 8034 2000 0000C 00000 24172  1                      MVC   FCRPLIN2,0(R2)      SAVE MATCHING END LINE NUMBER
                                   24173  1
                                   24174  1                      COMMENT                   GET UNTIL
 003DEE 5810 8028            00000 24175  1                      L     R1,FCRPAREA
 003DF2 5820 802C            00004 24176  1                      L     R2,FCRPLPTR
 003DF6 58E0 71FE/0DEE       03F88 24177  1                      ACALL CHKUNTIL
 003DFC D203 8038 2000 00010 00000 24181  1                      MVC   FCRPLIN3,0(R2)      SAVE UNTIL LINE NUMBER
                                   24182  1
                                   24183  1                      COMMENT                   SAVE REPEAT ENTRY
 003E02 4160 803C            00014 24184  1                      LA    R6,FCRPNTRY
 003E06 D71F 6000 6000 00000 00000 24185  1                      CLEAR FWENTRY
 003E0C D203 6000 8030 00000 00008 24192  1                      MVC   FWNLINE,FCRPLINE
 003E12 D207 6004 71B6 00004 03F40 24193  1                      MVC   FWNNAME,=CL8'REPEAT  '
 003E18 920B 6010      00010       24194  1                      SET   FWREPEAT
 003E1C 4110 6000            00000 24200  1                      LA    R1,FWENTRY
 003E20 58E0 71F6/0DEE       03F80 24201  1                      ACALL SAVEFLOW
                                   24205  1
                                   24206  1                      COMMENT                   SAVE REPEAT END ENTRY
 003E26 4160 805C            00034 24207  1                      LA    R6,FCRPNTR2
 003E2A D71F 6000 6000 00000 00000 24208  1                      CLEAR FWENTRY
 003E30 D203 6000 8034 00000 0000C 24215  1                      MVC   FWNLINE,FCRPLIN2
 003E36 D207 6004 7186 00004 03F10 24216  1                      MVC   FWNNAME,=CL8'END     '
 003E3C 920E 6010      00010       24217  1                      SET   FWEND
 003E40 9201 6011      00011       24223  1                      SET   FWNOOP
 003E44 4110 6000            00000 24229  1                      LA    R1,FWENTRY
 003E48 58E0 71F6/0DEE       03F80 24230  1                      ACALL SAVEFLOW
                                   24234  1
                                   24235  1                      COMMENT                   SAVE UNTIL ENTRY
 003E4E 4160 805C            00034 24236  1                      LA    R6,FCRPNTR2
 003E52 D71F 6000 6000 00000 00000 24237  1                      CLEAR FWENTRY
 003E58 D203 6000 8038 00000 00010 24244  1                      MVC   FWNLINE,FCRPLIN3
 003E5E D207 6004 71BE 00004 03F48 24245  1                      MVC   FWNNAME,=CL8'UNTIL   '
 003E64 920C 6010      00010       24246  1                      SET   FWUNTIL
 003E68 D203 6014 71F2 00014 03F7C 24252  1                      MVC   FWTRUE,=CL4'NEXT'
 003E6E D203 6018 8030 00018 00008 24253  1                      MVC   FWFALSE,FCRPLINE
 003E74 4110 6000            00000 24254  1                      LA    R1,FWENTRY
 003E78 58E0 71F6/0DEE       03F80 24255  1                      ACALL SAVEFLOW
 003E7E                            24259                       END   ,                   OF REPEAT BEGIN
                                   24263                       ¿þþþþþþþþþþþþþþþþþþþþþþþþþþþþþþþþþþÜ
                                   24264                       Ÿ  if we have:   repeat statement  Ÿ
                                   24265                       ¾þþþþþþþþþþþþþþþþþþþþþþþþþþþþþþþþþþ»
 003E7E 70F8/47F0 7160 03E7E 03DD8 24266                       ELSE  BEGIN
                                   24277  1
                                   24278  1                      COMMENT                   GET UNTIL
1FLOW     (FLOW2025) (12:45) (15MAR04) FLOW CONTROL SCANNING/PROCESSING                                                     Page  119
0Current Usings:  (FWENTRY,R6) (*,R7) (FCRPWA-(4+36),R8) (CP,R11) (CV,R12)
0Loc    Object Code    Addr1 Addr2  Stmt Lv Lineno    Source Statement           (Hibal 5, Asmedit 3.3)  HLASM R4.0  2004/03/15 12.45
+___    ______ ____    _____ _____  ____ __ ______    ______ _________
0003E82 5810 8028            00000 24279  1                      L     R1,FCRPAREA
 003E86 5820 802C            00004 24280  1                      L     R2,FCRPLPTR
 003E8A 58E0 71FE/0DEE       03F88 24281  1                      ACALL CHKUNTIL
 003E90 D203 8038 2000 00010 00000 24285  1                      MVC   FCRPLIN3,0(R2)      SAVE UNTIL LINE NUMBER
                                   24286  1
                                   24287  1                      COMMENT                   SAVE REPEAT ENTRY
 003E96 4160 803C            00014 24288  1                      LA    R6,FCRPNTRY
 003E9A D71F 6000 6000 00000 00000 24289  1                      CLEAR FWENTRY
 003EA0 D203 6000 8030 00000 00008 24296  1                      MVC   FWNLINE,FCRPLINE
 003EA6 D207 6004 71B6 00004 03F40 24297  1                      MVC   FWNNAME,=CL8'REPEAT  '
 003EAC 920B 6010      00010       24298  1                      SET   FWREPEAT
 003EB0 4110 6000            00000 24304  1                      LA    R1,FWENTRY
 003EB4 58E0 71F6/0DEE       03F80 24305  1                      ACALL SAVEFLOW
                                   24309  1
                                   24310  1                      COMMENT                   SAVE UNTIL ENTRY
 003EBA 4160 805C            00034 24311  1                      LA    R6,FCRPNTR2
 003EBE D71F 6000 6000 00000 00000 24312  1                      CLEAR FWENTRY
 003EC4 D203 6000 8038 00000 00010 24319  1                      MVC   FWNLINE,FCRPLIN3
 003ECA D207 6004 71BE 00004 03F48 24320  1                      MVC   FWNNAME,=CL8'UNTIL   '
 003ED0 920C 6010      00010       24321  1                      SET   FWUNTIL
 003ED4 D203 6014 71F2 00014 03F7C 24327  1                      MVC   FWTRUE,=CL4'NEXT'
 003EDA D203 6018 8030 00018 00008 24328  1                      MVC   FWFALSE,FCRPLINE
 003EE0 4110 6000            00000 24329  1                      LA    R1,FWENTRY
 003EE4 58E0 71F6/0DEE       03F80 24330  1                      ACALL SAVEFLOW
 003EEA                            24334                       END   , ######
                                   24338
 003EEA 1BFF                       24339                       CLEAR R15
 003EEC 18D8/9808 D004_            24343                       PEND  ,
 DROP   FCRPWA-(4+36),R8
 DROP   *,R7
 DROP   FWENTRY,R6                 24368                       DROP  R6
1FLOW     (FLOW2025) (12:45) (15MAR04) FLOW CONTROL SCANNING/PROCESSING                                                     Page  120
0Current Usings:  (CP,R11) (CV,R12)
0Loc    Object Code    Addr1 Addr2  Stmt Lv Lineno    Source Statement           (Hibal 5, Asmedit 3.3)  HLASM R4.0  2004/03/15 12.45
+___    ______ ____    _____ _____  ____ __ ______    ______ _________
0                                  24376                       QLTORG
1FLOW     (FLOW2025) (12:45) (15MAR04) FLOW CONTROL SCANNING/PROCESSING                                                     Page  121
0Current Usings:  (CP,R11) (CV,R12)
0Loc    Object Code    Addr1 Addr2  Stmt Lv Lineno    Source Statement           (Hibal 5, Asmedit 3.3)  HLASM R4.0  2004/03/15 12.45
+___    ______ ____    _____ _____  ____ __ ______    ______ _________
0                                  24415              ¿þþþþþþþþþþþþþþþþþþþþþþþþþþþþþþþþþþþþþþþþþþþþþþþþþþþþþþþþþþþþþþþþþþþþþÜ
                                   24416              Ÿ                                                                     Ÿ
                                   24417              Ÿ                                                                     Ÿ
                                   24418              Ÿ  FCCASES -  CASES BEGIN FLOW PROCESSING                             Ÿ
                                   24419              Ÿ                                                                     Ÿ
                                   24420              Ÿ  ON ENTRY:                                                          Ÿ
                                   24421              Ÿ      @R1 - LINE AREA                                                Ÿ
                                   24422              Ÿ      @R2 - LINE NUMBER (OF CASES STATEMENT)                         Ÿ
                                   24423              Ÿ                                                                     Ÿ
                                   24424              Ÿ  ON EXIT:                                                           Ÿ
                                   24425              Ÿ      @R2 - LINE NUMBER (OF END OF CASES STRUCTURE)                  Ÿ
                                   24426              Ÿ      R15 - CC=ZERO                                                  Ÿ
                                   24427              Ÿ            ERRORS EXIT VIA FCERR, THEN CVERROR                      Ÿ
                                   24428              Ÿ                                                                     Ÿ
                                   24429              Ÿ  CASES FLOW PROCESSING IS A BIT COMPLICATED BY THE FACT THAT IT     Ÿ
                                   24430              Ÿ  MUST BE FOLLOWES BY ONE OR MORE CASE STATEMENTS.  ALL OTHER        Ÿ
                                   24431              Ÿ  STATEMENTS ARE INVALID UNLESS THEY ARE PART OF A CASE BEGIN-END    Ÿ
                                   24432              Ÿ  BLOCK.                                                             Ÿ
                                   24433              Ÿ                                                                     Ÿ
                                   24434              Ÿ                                                                     Ÿ
                                                      ¾þþþþþþþþþþþþþþþþþþþþþþþþþþþþþþþþþþþþþþþþþþþþþþþþþþþþþþþþþþþþþþþþþþþþþ»
0000000                00000 00050 24435              FCCBWA   RECORD BEGIN ,
 000000                            24443  1           FCCBAREA   DS    F                   LINE AREA POINTER
 000004                            24444  1           FCCBLPTR   DS    F                   CURRENT LINE NUMBER POINTER
 000008                            24445  1           FCCBLINE   DS    F                   CASES LINE NUMBER
 00000C                            24446  1           FCCBLIN2   DS    F                   CASES END LINE NUMBER
 000010                            24447  1           FCCBNTRY   DS    XL(L'FWENTRY)       CASES FLOW ENTRY
 000030                            24448  1           FCCBNTR2   DS    XL(L'FWENTRY)       CASES-END FLOW ENTRY
 000050                00050 00050 24449                       END
                                   24458              *
                                   24459              *
 003F8E 50E0 D000/9008_      00000 24460              FCCASES  PROC  FCCBWA
 USING  *,R7
 USING  FCCBWA-(4+36),R8
 USING  FWENTRY,R6                 24510                       USING FWENTRY,R6
 003FA8 5010 8028            00000 24519                       ST    R1,FCCBAREA         CLEAR/INIT WORK AREA
 003FAC 5020 802C            00004 24520                       ST    R2,FCCBLPTR
 003FB0 D203 8030 2000 00008 00000 24521                       MVC   FCCBLINE(4),0(R2)
                                   24522
                                   24523                       COMMENT                   GET LINE THAT CONTAINS IF
 003FB6 58E0 7BC0/0DEE       04B68 24524                       ACALL  FCGET
                                   24528
                                   24529                       COMMENT                   SCAN PAST CASES
 003FBC 58E0 7BC4/0DEE       04B6C 24530                       ACALL SCANCMD
 003FC2 5830 B08C/4133_      0008C 24534                       SCUPTOK R3
 003FCA D507 7BA0 3000_04B48 00000 24538                       IF    (@R3,NE,'CASES   '),BEGIN
 003FD4 0000                       24554  1                      BOMB
 003FD6                            24556                       END
                                   24560
                                   24561                       COMMENT                   SCAN FOR 'BEGIN'
 003FD6 58E0 B08C/501E_      0008C 24562                       SCINIT (R1),(R0)
 003FE4 58E0 7BC8/0DEE       04B70 24582                       ACALL SCNBEGIN
 003FEA 4780 7056            03FFE 24586                       IF    NZ,BEGIN
1FLOW     (FLOW2025) (12:45) (15MAR04) FLOW CONTROL SCANNING/PROCESSING                                                     Page  122
0Current Usings:  (FWENTRY,R6) (*,R7) (FCCBWA-(4+36),R8) (CP,R11) (CV,R12)
0Loc    Object Code    Addr1 Addr2  Stmt Lv Lineno    Source Statement           (Hibal 5, Asmedit 3.3)  HLASM R4.0  2004/03/15 12.45
+___    ______ ____    _____ _____  ____ __ ______    ______ _________
0003FEE 4110 7C6A/4100_      04C12 24597  1                      FCERR 'CASES BEGIN must be specified. '
 003FFE                            24611                       END
 003FFE 5810 8028            00000 24615                       L     R1,FCCBAREA
 004002 5820 802C            00004 24616                       L     R2,FCCBLPTR
                                   24617                       ¿þþþþþþþþþþþþþþþþþþþþþþþþÜ
                                   24618                       Ÿ  we have: cases begin  Ÿ
                                   24619                       ¾þþþþþþþþþþþþþþþþþþþþþþþþ»
                                   24620                       COMMENT                   CHECK FOR CASE STATEMENTS
 004006 58E0 7BD0/0DEE       04B78 24621                       ACALL CHKCASE
 00400C 4770 7076            0401E 24625                       IF    Z,BEGIN             IF CASE,
 004010 5810 8028            00000 24636  1                      L     R1,FCCBAREA
 004014 5820 802C            00004 24637  1                      L     R2,FCCBLPTR
 004018 58E0 7BD4/0DEE       04B7C 24638  1                      ACALL FCCASE              FCCASE WILL RECURSE THRU ALL CASES
 00401E                            24642                       END
                                   24646
                                   24647                       COMMENT                   GET LINE AFTER ALL CASES
 00401E 5800 8030            00008 24648                       L     R0,FCCBLINE
 004022 5810 8028            00000 24649                       L     R1,FCCBAREA
 004026 5820 802C            00004 24650                       L     R2,FCCBLPTR
 00402A 58E0 7BD8/0DEE       04B80 24651                       ACALL CHKEND
 004030 D203 8034 2000 0000C 00000 24655                       MVC   FCCBLIN2,0(R2)      SAVE CASES-END LINE NUMBER
                                   24656
                                   24657                       COMMENT                   SAVE CASES ENTRY
 004036 4160 8038            00010 24658                       LA    R6,FCCBNTRY
 00403A D71F 6000 6000 00000 00000 24659                       CLEAR FWENTRY
 004040 D203 6000 8030 00000 00008 24666                       MVC   FWNLINE,FCCBLINE
 004046 D207 6004 7BA8 00004 04B50 24667                       MVC   FWNNAME,=CL8'CASES   '
 00404C 9209 6010      00010       24668                       SET   FWCASES
 004050 4110 6000            00000 24674                       LA    R1,FWENTRY
 004054 58E0 7BDC/0DEE       04B84 24675                       ACALL SAVEFLOW
                                   24679
                                   24680                       COMMENT                   SAVE CASES-END ENTRY
 00405A 4160 8058            00030 24681                       LA    R6,FCCBNTR2
 00405E D71F 6000 6000 00000 00000 24682                       CLEAR FWENTRY
 004064 D203 6000 8034 00000 0000C 24689                       MVC   FWNLINE,FCCBLIN2
 00406A D207 6004 7BB0 00004 04B58 24690                       MVC   FWNNAME,=CL8'END     '
 004070 920E 6010      00010       24691                       SET   FWEND
 004074 9201 6011      00011       24697                       SET   FWNOOP
 004078 4110 6000            00000 24703                       LA    R1,FWENTRY
 00407C 58E0 7BDC/0DEE       04B84 24704                       ACALL SAVEFLOW
                                   24708
 004082 1BFF                       24709                       CLEAR R15
 004084 18D8/9808 D004_            24713                       PEND  ,
 DROP   FCCBWA-(4+36),R8
 DROP   *,R7
 DROP   FWENTRY,R6                 24738                       DROP  R6
1FLOW     (FLOW2025) (12:45) (15MAR04) FLOW CONTROL SCANNING/PROCESSING                                                     Page  123
0Current Usings:  (CP,R11) (CV,R12)
0Loc    Object Code    Addr1 Addr2  Stmt Lv Lineno    Source Statement           (Hibal 5, Asmedit 3.3)  HLASM R4.0  2004/03/15 12.45
+___    ______ ____    _____ _____  ____ __ ______    ______ _________
0                                  24746              ¿þþþþþþþþþþþþþþþþþþþþþþþþþþþþþþþþþþþþþþþþþþþþþþþþþþþþþþþþþþþþþþþþþþþþþÜ
                                   24747              Ÿ                                                                     Ÿ
                                   24748              Ÿ                                                                     Ÿ
                                   24749              Ÿ  FCCASE -  CASE FLOW PROCESSING                                     Ÿ
                                   24750              Ÿ                                                                     Ÿ
                                   24751              Ÿ  ON ENTRY:                                                          Ÿ
                                   24752              Ÿ      @R1 - LINE AREA                                                Ÿ
                                   24753              Ÿ      @R2 - LINE NUMBER (OF CASE STATEMENT)                          Ÿ
                                   24754              Ÿ                                                                     Ÿ
                                   24755              Ÿ  ON EXIT:                                                           Ÿ
                                   24756              Ÿ      @R2 - LINE NUMBER (OF END OF CASE STRUCTURE)                   Ÿ
                                   24757              Ÿ      R15 - CC=ZERO                                                  Ÿ
                                   24758              Ÿ            ERRORS EXIT VIA FCERR, THEN CVERROR                      Ÿ
                                   24759              Ÿ                                                                     Ÿ
                                   24760              Ÿ  CASE FLOW PROCESSING IS A BIT COMPLICATED BY THE FACT THAT IT      Ÿ
                                   24761              Ÿ  MUST BE FOLLOWED BY ONE OR MORE CASE STATEMENTS. ALL OTHER         Ÿ
                                   24762              Ÿ  STATEMENTS ARE INVALID UNLESS THEY ARE PART OF A CASE BEGIN-END    Ÿ
                                   24763              Ÿ  BLOCK.                                                             Ÿ
                                   24764              Ÿ                                                                     Ÿ
                                   24765              Ÿ                                                                     Ÿ
                                                      ¾þþþþþþþþþþþþþþþþþþþþþþþþþþþþþþþþþþþþþþþþþþþþþþþþþþþþþþþþþþþþþþþþþþþþþ»
0000000                00000 00058 24766              FCCSWA   RECORD BEGIN ,
 000000                            24774  1           FCCSAREA   DS    F                   LINE AREA POINTER
 000004                            24775  1           FCCSLPTR   DS    F                   CURRENT LINE NUMBER POINTER
 000008                            24776  1           FCCSLINE   DS    F                   CASE LINE NUMBER
 00000C                            24777  1           FCCSLIN2   DS    F                   CASE-END LINE NUMBER (IF ANY)
 000010                            24778  1           FCCSLIN3   DS    F                   CASE-END++ LINE NUMBER (IF ANY)
 000014                            24779  1           FCCSLIN4   DS    F                   CASES-END LINE NUMBER
 000018                            24780  1           FCCSNTRY   DS    XL(L'FWENTRY)       CASE FLOW ENTRY
 000038                            24781  1           FCCSNTR2   DS    XL(L'FWENTRY)       CASE-END FLOW ENTRY IF ANY
 000058                00058 00058 24782                       END
                                   24791              *
                                   24792              *
 004092 50E0 D000/9008_      00000 24793              FCCASE   PROC  FCCSWA
 USING  *,R7
 USING  FCCSWA-(4+36),R8
 USING  FWENTRY,R6                 24843                       USING FWENTRY,R6
 0040AC 5010 8028            00000 24852                       ST    R1,FCCSAREA         CLEAR/INIT WORK AREA
 0040B0 5020 802C            00004 24853                       ST    R2,FCCSLPTR
 0040B4 D203 8030 2000 00008 00000 24854                       MVC   FCCSLINE(4),0(R2)
                                   24855
                                   24856                       COMMENT                   GET LINE THAT CONTAINS CASE
 0040BA 58E0 7ABC/0DEE       04B68 24857                       ACALL  FCGET
                                   24861
                                   24862                       COMMENT                   PROCESS LABEL, IF ANY
 0040C0 58E0 7ADC/0DEE       04B88 24863                       ACALL FCLABEL             ***LABEL TRICK
                                   24867
                                   24868                       COMMENT                   SCAN PAST CASE
 0040C6 58E0 7AC0/0DEE       04B6C 24869                       ACALL SCANCMD
 0040CC 5830 B08C/4133_      0008C 24873                       SCUPTOK R3
 0040D4 D505 7B5C 3000_04C08 00000 24877                       IF    (@R3,NE,'CASE  '),BEGIN
 0040DE 0000                       24893  1                      BOMB
 0040E0                            24895                       END
1FLOW     (FLOW2025) (12:45) (15MAR04) FLOW CONTROL SCANNING/PROCESSING                                                     Page  124
0Current Usings:  (FWENTRY,R6) (*,R7) (FCCSWA-(4+36),R8) (CP,R11) (CV,R12)
0Loc    Object Code    Addr1 Addr2  Stmt Lv Lineno    Source Statement           (Hibal 5, Asmedit 3.3)  HLASM R4.0  2004/03/15 12.45
+___    ______ ____    _____ _____  ____ __ ______    ______ _________
0                                  24899
                                   24900                       COMMENT                   SKIP CONDITIONAL EXPR AFTER CASE
 0040E0 58E0 7AE0/0DEE       04B8C 24901                       ACALL SKIPEXPR
 0040E6 4780 704E            040FA 24905                       IF    NZ,BEGIN
 0040EA 4110 7B85/4100_      04C31 24916  1                      FCERR ' ',,LPTR=(R2)
 0040FA                            24930                       END
                                   24934
                                   24935                       COMMENT                   SCAN FOR 'BEGIN'
 0040FA 58E0 B08C/501E_      0008C 24936                       SCINIT (R1),(R0)
 004108 58E0 7AC4/0DEE       04B70 24956                       ACALL SCNBEGIN
 00410E 5810 8028            00000 24960                       L     R1,FCCSAREA
 004112 5820 802C            00004 24961                       L     R2,FCCSLPTR
                                   24962                       ¿þþþþþþþþþþþþþþþþþþþþþþþþþþþþþþþþþþþþþþþþþþþÜ
                                   24963                       Ÿ  if we have:  elseif (expression), begin  Ÿ
                                   24964                       ¾þþþþþþþþþþþþþþþþþþþþþþþþþþþþþþþþþþþþþþþþþþþ»
                                   24965                       COMMENT                   FIND END OF CASE BEGIN-END
 004116 4770 7116            041C2 24966                       IF    Z,BEGIN
 00411A 5810 8028            00000 24977  1                      L     R1,FCCSAREA
 00411E 5820 802C            00004 24978  1                      L     R2,FCCSLPTR
 004122 58E0 7AE4/0DEE       04B90 24979  1                      ACALL FINDEND             FIND MATCHING END
 004128 D203 8034 2000 0000C 00000 24983  1                      MVC   FCCSLIN2,0(R2)      SAVE MATCHING END LINE NUMBER
                                   24984  1
                                   24985  1                      COMMENT                   SAVE LINE AFTER CASE-END
 00412E 58E0 7AE8/0DEE       04B94 24986  1                      ACALL FCNEXTLN
 004134 5000 8038            00010 24990  1                      ST    R0,FCCSLIN3
                                   24991  1
                                   24992  1                      COMMENT                   CHECK FOR MORE CASE STATEMENTS
 004138 58E0 7ACC/0DEE       04B78 24993  1                      ACALL CHKCASE
 00413E 12FF/4770 70A8             24997  1                      IF    (R15,Z),BEGIN       IF CASE,
 004144 58E0 7AD0/0DEE       04B7C 25011  2                        ACALL FCCASE               WE LOVE RECURSION
 00414A 58E0 7AE8/0DEE       04B94 25015  2                        ACALL FCNEXTLN
 004150 5000 803C            00014 25019  2                        ST    R0,FCCSLIN4
 004154                            25020  1                      END
 004154 70AC/47F0 70B8_04154 04142 25024  1                      ELSEIF (R15,NZ),BEGIN     IF NOT CASE,
 00415E D203 803C 8038 00014 00010 25047  2                        MVC   FCCSLIN4,FCCSLIN3
 004164                            25048  1                      END
                                   25052  1
                                   25053  1                      COMMENT                   SAVE CASE ENTRY
 004164 4160 8040            00018 25054  1                      LA    R6,FCCSNTRY
 004168 D71F 6000 6000 00000 00000 25055  1                      CLEAR FWENTRY
 00416E D203 6000 8030 00000 00008 25062  1                      MVC   FWNLINE,FCCSLINE
 004174 D207 6004 7AB4 00004 04B60 25063  1                      MVC   FWNNAME,=CL8'CASE  '
 00417A 920A 6010      00010       25064  1                      SET   FWCASE
 00417E D203 6014 7AEC 00014 04B98 25070  1                      MVC   FWTRUE,=CL4'NEXT'
 004184 D203 6018 8038 00018 00010 25071  1                      MVC   FWFALSE,FCCSLIN3
 00418A 4110 6000            00000 25072  1                      LA    R1,FWENTRY
 00418E 58E0 7AD8/0DEE       04B84 25073  1                      ACALL SAVEFLOW
                                   25077  1
                                   25078  1                      COMMENT                   SAVE CASE-END ENTRY
 004194 4160 8060            00038 25079  1                      LA    R6,FCCSNTR2
 004198 D71F 6000 6000 00000 00000 25080  1                      CLEAR FWENTRY
 00419E D203 6000 8034 00000 0000C 25087  1                      MVC   FWNLINE,FCCSLIN2
 0041A4 D207 6004 7AAC 00004 04B58 25088  1                      MVC   FWNNAME,=CL8'END     '
 0041AA 920E 6010      00010       25089  1                      SET   FWEND
1FLOW     (FLOW2025) (12:45) (15MAR04) FLOW CONTROL SCANNING/PROCESSING                                                     Page  125
0Current Usings:  (FWENTRY,R6) (*,R7) (FCCSWA-(4+36),R8) (CP,R11) (CV,R12)
0Loc    Object Code    Addr1 Addr2  Stmt Lv Lineno    Source Statement           (Hibal 5, Asmedit 3.3)  HLASM R4.0  2004/03/15 12.45
+___    ______ ____    _____ _____  ____ __ ______    ______ _________
00041AE 9202 6011      00011       25095  1                      SET   FWBRANCH
 0041B2 D203 6014 803C 00014 00014 25101  1                      MVC   FWBLINE,FCCSLIN4
 0041B8 4110 6000            00000 25102  1                      LA    R1,FWENTRY
 0041BC 58E0 7AD8/0DEE       04B84 25103  1                      ACALL SAVEFLOW
 0041C2                            25107                       END   ,                   OF CASE <EXPRESSION>, BEGIN
                                   25111                       ¿þþþþþþþþþþþþþþþþþþþþþþþþþþþþþþþþþþþþþþþþþþþþþþþþÜ
                                   25112                       Ÿ  if we have:   elseif (expression), statement  Ÿ
                                   25113                       ¾þþþþþþþþþþþþþþþþþþþþþþþþþþþþþþþþþþþþþþþþþþþþþþþþ»
 0041C2 711A/47F0 7188 041C2 04118 25114                       ELSE  BEGIN
                                   25125  1
                                   25126  1                      COMMENT                   SAVE LINE AFTER CASE-END
 0041C6 5810 8028            00000 25127  1                      L     R1,FCCSAREA
 0041CA 5820 802C            00004 25128  1                      L     R2,FCCSLPTR
 0041CE 58E0 7AE8/0DEE       04B94 25129  1                      ACALL FCNEXTLN
 0041D4 5000 8038            00010 25133  1                      ST    R0,FCCSLIN3
                                   25134  1           *
                                   25135  1           *
                                   25136  1                      COMMENT                   CHECK FOR MORE CASE STATMENTS
 0041D8 58E0 7ACC/0DEE       04B78 25137  1                      ACALL CHKCASE
 0041DE 12FF/4770 7148             25141  1                      IF    (R15,Z),BEGIN       IF CASE,
 0041E4 58E0 7AD0/0DEE       04B7C 25155  2                        ACALL FCCASE               WE LOVE RECURSION
 0041EA 58E0 7AE8/0DEE       04B94 25159  2                        ACALL FCNEXTLN
 0041F0 5000 803C            00014 25163  2                        ST    R0,FCCSLIN4
 0041F4                            25164  1                      END
 0041F4 714C/47F0 7158_041F4 041E2 25168  1                      ELSEIF (R15,NZ),BEGIN     IF NOT CASE,
 0041FE D203 803C 8038 00014 00010 25191  2                        MVC   FCCSLIN4,FCCSLIN3
 004204                            25192  1                      END
                                   25196  1
                                   25197  1                      COMMENT                   SAVE CASE ENTRY
 004204 4160 8040            00018 25198  1                      LA    R6,FCCSNTRY
 004208 D71F 6000 6000 00000 00000 25199  1                      CLEAR FWENTRY
 00420E D203 6000 8030 00000 00008 25206  1                      MVC   FWNLINE,FCCSLINE
 004214 D207 6004 7AB4 00004 04B60 25207  1                      MVC   FWNNAME,=CL8'CASE  '
 00421A 920A 6010      00010       25208  1                      SET   FWCASE
 00421E D203 6014 803C 00014 00014 25214  1                      MVC   FWTRUE,FCCSLIN4
 004224 D203 6018 8038 00018 00010 25215  1                      MVC   FWFALSE,FCCSLIN3
 00422A 4110 6000            00000 25216  1                      LA    R1,FWENTRY
 00422E 58E0 7AD8/0DEE       04B84 25217  1                      ACALL SAVEFLOW
 004234                            25221                       END
                                   25225
 004234 1BFF                       25226                       CLEAR R15
 004236 18D8/9808 D004_            25230                       PEND  ,
 DROP   FCCSWA-(4+36),R8
 DROP   *,R7
 DROP   FWENTRY,R6                 25255                       DROP  R6
1FLOW     (FLOW2025) (12:45) (15MAR04) FLOW CONTROL SCANNING/PROCESSING                                                     Page  126
0Current Usings:  (CP,R11) (CV,R12)
0Loc    Object Code    Addr1 Addr2  Stmt Lv Lineno    Source Statement           (Hibal 5, Asmedit 3.3)  HLASM R4.0  2004/03/15 12.45
+___    ______ ____    _____ _____  ____ __ ______    ______ _________
0                                  25263              ¿þþþþþþþþþþþþþþþþþþþþþþþþþþþþþþþþþþþþþþþþþþþþþþþþþþþþþþþþþþþþþþþþþþþþþÜ
                                   25264              Ÿ                                                                     Ÿ
                                   25265              Ÿ                                                                     Ÿ
                                   25266              Ÿ  FCLABEL - PROCESS LABEL, IF ANY                                    Ÿ
                                   25267              Ÿ                                                                     Ÿ
                                   25268              Ÿ                                                                     Ÿ
                                   25269              Ÿ  ON ENTRY:                                                          Ÿ
                                   25270              Ÿ       R0 - LINE LENGTH                                              Ÿ
                                   25271              Ÿ       R1 - LINE LOCATION                                            Ÿ
                                   25272              Ÿ      @R2 - LINE NUMBER                                              Ÿ
                                   25273              Ÿ                                                                     Ÿ
                                   25274              Ÿ  ON EXIT:                                                           Ÿ
                                   25275              Ÿ       R0 - LINE LENGTH EXCLUDING LABEL, IF ANY                      Ÿ
                                   25276              Ÿ       R1 - LINE LOCATION EXCLUDING LABEL, IF ANY                    Ÿ
                                   25277              Ÿ      R15 - CC=ZERO                                                  Ÿ
                                   25278              Ÿ            ERRORS EXIT VIA FCERROR, THEN CVERROR                    Ÿ
                                   25279              Ÿ                                                                     Ÿ
                                   25280              Ÿ                                                                     Ÿ
                                                      ¾þþþþþþþþþþþþþþþþþþþþþþþþþþþþþþþþþþþþþþþþþþþþþþþþþþþþþþþþþþþþþþþþþþþþþ»
0000000                00000 0003C 25281              FCLBWA   RECORD BEGIN
 000000                            25289  1           FCLBLPTR   DS    F                   CURRENT LINE NUMBER POINTER
 000004                            25290  1           FCLBLOC    DS    F                   LINE LOCATION WITHOUT LABEL
 000008                            25291  1           FCLBLEN    DS    F                   LINE LENGTH WITHOUT LABEL
 00000C                            25292  1           FCLBL      DS    XL(L'FWENTRY)       LABEL FLOW ENTRY
 00002C                            25293  1           FCLBNAME   DS    XL(L'FWNAME)        NAME OF LABEL, IF ANY
 00003C                0003C 0003C 25294                       END
                                   25303              *
                                   25304              *
 004244 50E0 D000/9008_      00000 25305              FCLABEL  PROC  FCLBWA
 USING  *,R7
 USING  FCLBWA-(4+36),R8
 USING  FWENTRY,R6                 25355                       USING FWENTRY,R6
 00425E 4160 8034            0000C 25364                       LA    R6,FCLBL
 004262 5020 8028            00000 25365                       ST    R2,FCLBLPTR
                                   25366
                                   25367                       COMMENT                   SCAN FOR LABEL
 004266 4120 8054            0002C 25368                       LA    R2,FCLBNAME
 00426A 58E0 793E/0DEE       04B9C 25369                       ACALL SCNLABEL
 004270 5000 8030            00008 25373                       ST    R0,FCLBLEN          SAVE LINE LOC,LEN WITHOUT LABEL
 004274 5010 802C            00004 25374                       ST    R1,FCLBLOC
                                   25375
                                   25376                       COMMENT                   IF VALID LABEL
 004278 12FF/4770 7090             25377                       IF    (R15,Z),BEGIN
 00427E 58E0 7942/0DEE       04BA0 25391  1                      ACALL CHKLABEL            CHECK FOR VALID LABEL STATEMENT
 004284 4780 703C            0429A 25395  1                      IF    NZ,BEGIN
 004288 4110 79D3/4100_      04C31 25406  2                        FCERR ' ',,LPTR=FCLBLPTR
 00429A                            25420  1                      END
 00429A 4110 8054            0002C 25424  1                      LA    R1,FCLBNAME         CHECK IF PREVIOUSLY DEFINED
 00429E 58E0 7946/0DEE       04BA4 25425  1                      ACALL CHKDEF
 0042A4 4770 706C            042CA 25429  1                      IF    Z,BEGIN
 0042A8 4110 8054/4100_      0002C 25440  2                        TSEG  FCLBNAME,L'FCLBNAME,T
 0042BA 4110 79D4/4100_      04C32 25470  2                        FCERR ': previously defined label/procedure name. '
 0042CA                            25484  1                      END
1FLOW     (FLOW2025) (12:45) (15MAR04) FLOW CONTROL SCANNING/PROCESSING                                                     Page  127
0Current Usings:  (FWENTRY,R6) (*,R7) (FCLBWA-(4+36),R8) (CP,R11) (CV,R12)
0Loc    Object Code    Addr1 Addr2  Stmt Lv Lineno    Source Statement           (Hibal 5, Asmedit 3.3)  HLASM R4.0  2004/03/15 12.45
+___    ______ ____    _____ _____  ____ __ ______    ______ _________
00042CA D71F 6000 6000 00000 00000 25488  1                      CLEAR FWENTRY             SAVE LABEL FLOW ENTRY
 0042D0 D20F 6000 8054 00000 0002C 25495  1                      MVC   FWNAME,FCLBNAME
 0042D6 9203 6010      00010       25496  1                      SET   FWLABEL
 0042DA 5820 8028            00000 25502  1                      L     R2,FCLBLPTR
 0042DE D203 6014 2000 00014 00000 25503  1                      MVC   FWLBLINE(4),0(R2)
 0042E4 4110 6000            00000 25504  1                      LA    R1,FWENTRY
 0042E8 58E0 7926/0DEE       04B84 25505  1                      ACALL SAVEFLOW
 0042EE                            25509                       END
                                   25513
                                   25514                       COMMENT                   IF INVALID LABEL, GIVE ERROR
 0042EE 7094/47F0 70B6_042EE 0427C 25515                       ELSEIF (R15,M),BEGIN
 0042F8 41F0 B050/58E0_      00050 25538  1                      TSEG  (R1),(R0)
 004302 4110 79FF/4100_      04C5D 25562  1                      FCERR ': invalid label name.',,LPTR=FCLBLPTR
 004314                            25576                       END
                                   25580
                                   25581                       COMMENT                   IF NO LABEL, JUST RETURN
 004314 70BA/47F0 70C0_04314 042F6 25582                       ELSEIF (R15,POS),BEGIN
 00431E                            25605                       END
                                   25609
 00431E 5800 8030            00008 25610                       L     R0,FCLBLEN          RETURN LINE LOC,LEN WITHOUT LABEL
 004322 5810 802C            00004 25611                       L     R1,FCLBLOC
 004326 1BFF                       25612                       CLEAR R15
 004328 9001 8004            00004 25616                       PRETURN (R0,R1)
 00432C 18D8/9808 D004_            25618                       PEND  ,
 DROP   FCLBWA-(4+36),R8
 DROP   *,R7
 DROP   FWENTRY,R6                 25643                       DROP  R6
1FLOW     (FLOW2025) (12:45) (15MAR04) FLOW CONTROL SCANNING/PROCESSING                                                     Page  128
0Current Usings:  (CP,R11) (CV,R12)
0Loc    Object Code    Addr1 Addr2  Stmt Lv Lineno    Source Statement           (Hibal 5, Asmedit 3.3)  HLASM R4.0  2004/03/15 12.45
+___    ______ ____    _____ _____  ____ __ ______    ______ _________
0                                  25651              ¿þþþþþþþþþþþþþþþþþþþþþþþþþþþþþþþþþþþþþþþþþþþþþþþþþþþþþþþþþþþþþþþþþþþþþÜ
                                   25652              Ÿ                                                                     Ÿ
                                   25653              Ÿ                                                                     Ÿ
                                   25654              Ÿ  FINDEND - FIND MATCHING END                                        Ÿ
                                   25655              Ÿ                                                                     Ÿ
                                   25656              Ÿ  ON ENTRY:                                                          Ÿ
                                   25657              Ÿ       R0 - FLAGS                                                    Ÿ
                                   25658              Ÿ            NOT USED...                                              Ÿ
                                   25659              Ÿ      @R1 - LINE AREA                                                Ÿ
                                   25660              Ÿ      @R2 - LINE NUMBER (OF INSTRUCTION CONTAINING BEGIN)            Ÿ
                                   25661              Ÿ                                                                     Ÿ
                                   25662              Ÿ  ON EXIT:                                                           Ÿ
                                   25663              Ÿ      @R2 - LINE NUMBER OF MATCHING END                              Ÿ
                                   25664              Ÿ      R15 - CC=ZERO, MATCHING END FOUND                              Ÿ
                                   25665              Ÿ            ERRORS EXIT VIA FCERR, THEN CVERROR                      Ÿ
                                   25666              Ÿ                                                                     Ÿ
                                   25667              Ÿ  COMMENTS: THIS ROUTINE IS THE HEART OF THE FLOW CONTROL SCAN       Ÿ
                                   25668              Ÿ  ROUTINES.  IT IS CALLED RECURSIVELY.  AS THIS ROUTINE SCANS        Ÿ
                                   25669              Ÿ  FOR ITS MATCHING END,, IT WILL BRANCH OFF TO PROCESS ANY FLOW      Ÿ
                                   25670              Ÿ  CONTROL STATEMENTS IT ENCOUNTERS.  (EG. IF, WHILE, DO ...)         Ÿ
                                   25671              Ÿ  EACH OF THESE ROUTINES IN TURN WILL CALL THIS ROUTINE TO FIND      Ÿ
                                   25672              Ÿ  THEIR MATCHING END.  DIG IT !                                      Ÿ
                                   25673              Ÿ                                                                     Ÿ
                                   25674              Ÿ                                                                     Ÿ
                                                      ¾þþþþþþþþþþþþþþþþþþþþþþþþþþþþþþþþþþþþþþþþþþþþþþþþþþþþþþþþþþþþþþþþþþþþþ»
0000000                00000 00010 25675              FDDWA    RECORD BEGIN
 000000                            25683  1           FDDFLAGS   DS    4CL1                FIND FLAGS (PASSED IN R0)
 000004                            25684  1           FDDAREA    DS    F                   LINE AREA POINTER
 000008                            25685  1           FDDLPTR    DS    F                   CURRENT LINE NUMBER POINTER
 00000C                            25686  1           FDDBEGIN   DS    F                   LINE NUMBER FOR BEGIN LINE
 000010                00010 00010 25687                       END
                                   25696              FDFIF    EQU   10
                                   25697              FDFDO    EQU   11
                                   25698              FDFWHILE EQU   12
                                   25699              FDFCASES EQU   13
                                   25700              FDFBEGIN EQU   14
                                   25701              FDFRPEAT EQU   15
                                   25702              *
                                   25703              *
 00433A 50E0 D000/9008_      00000 25704              FINDEND  PROC  FDDWA
 USING  *,R7
 USING  FDDWA-(4+36),R8
 004354 4160 8028            00000 25754                       LA    R6,FDDWA
 USING  FDDWA,R6                   25755                       USING FDDWA,R6
 004358 5000 6000            00000 25764                       ST    R0,FDDFLAGS
 00435C 5010 6004            00004 25765                       ST    R1,FDDAREA
 004360 5020 6008            00008 25766                       ST    R2,FDDLPTR
 004364 D203 600C 2000 0000C 00000 25767                       MVC   FDDBEGIN(4),0(R2)
                                   25768
                                   25769                       COMMENT                   SCAN LINES FOR END,
                                   25770                       COMMENT                      AND OTHER CONTROL STATEMENTS
 00436A 5810 6004            00004 25771                       L     R1,FDDAREA
 00436E 5820 6008            00008 25772                       L     R2,FDDLPTR
1FLOW     (FLOW2025) (12:45) (15MAR04) FLOW CONTROL SCANNING/PROCESSING                                                     Page  129
0Current Usings:  (FDDWA,R6) (*,R7) (FDDWA-(4+36),R8) (CP,R11) (CV,R12)
0Loc    Object Code    Addr1 Addr2  Stmt Lv Lineno    Source Statement           (Hibal 5, Asmedit 3.3)  HLASM R4.0  2004/03/15 12.45
+___    ______ ____    _____ _____  ____ __ ______    ______ _________
0004372 58E0 785C/0DEE       04BB0 25773                       ACALL FCNEXT
 004378 4770 7124            04478 25777                       WHILE Z,BEGIN             WHILE LINES, LOOP SCANNING FOR END
 00437C 58E0 7834/0DEE       04B88 25790  1                      ACALL FCLABEL             PROCESS LABEL, IF ANY
 004382 58E0 B08C/501E_      0008C 25794  1                      SCINIT (R1),(R0)
 004390 1B44                       25814  1                      CLEAR R4                  SCKW ROUTINES WILL SET R4
 004392 5810 B08C/1B00_      0008C 25818  1                      SCAN  FINDPRT             SCAN FOR END, ETC.
                                   25850  1           *        SCANCHK                   SKIP ERRORS WITHIN CONSTRUCTS
 0043E4 59F0 7868/4780_      04BBC 25851  1                      IF    (R15,EQ,4),FINDYES     R15=4,   END FOUND
 0043EC 1BFF                       25871  1                      CLEAR R15                 R15=8,   RECURSE LOOKING FOR END
                                   25875  1
                                   25876  1                      COMMENT                   IF CONTROL CONSTRUCT, RECURSE
 0043EE 1244/4780 7112             25877  1                      IF    (R4,NZ),BEGIN
 0043F4 5810 6004            00004 25891  2                        L     R1,FDDAREA
 0043F8 5820 6008            00008 25892  2                        L     R2,FDDLPTR
 0043FC 5940 786C/4770_      04BC0 25893  2                        IF     (R4,EQ,FDFIF),'ACALL FCIF'
 00440A 70BA/47F0 70C8_0440A 04402 25919  2                        ELSEIF (R4,EQ,FDFDO),'ACALL FCDO'
 00441C 70CC/47F0 70DA_0441C 04414 25954  2                        ELSEIF (R4,EQ,FDFWHILE),'ACALL FCWHILE'
 00442E 70DE/47F0 70EC_0442E 04426 25989  2                        ELSEIF (R4,EQ,FDFCASES),'ACALL FCCASES'
 004440 70F0/47F0 70FE_04440 04438 26024  2                        ELSEIF (R4,EQ,FDFBEGIN),'ACALL FCBEGIN'
 004452 7102/47F0 7110_04452 0444A 26059  2                        ELSEIF (R4,EQ,FDFRPEAT),'ACALL FCREPEAT'
 004464 1B44                       26094  2                        CLEAR  R4
 004466                            26098  1                      END
 004466 5810 6004            00004 26102  1                      L     R1,FDDAREA
 00446A 5820 6008            00008 26103  1                      L     R2,FDDLPTR
 00446E 58E0 785C/0DEE       04BB0 26104  1                      ACALL FCNEXT
 004474 47F0 7024            04378 26108                       END
                                   26113
                                   26114                       COMMENT                   IF NO END FOUND
 004478 58E0 789C/0DEE       04BF0 26115                       ACALL NOENDMSG
 00447E 4110 791E/4100_      04C72 26119                       FCERR 'Missing END occurs before END OF FILE. '
 00448E 0000                       26133                       BOMB  ,,                  NO RETURN FROM FCERR
                                   26135
 004490                            26136              FINDNO   LABEL ,
 004490 41F0 0004            00004 26138                       LA    R15,4
 004494 47F0 714A            0449E 26139                       B     FINDDONE
                                   26140
 004498                            26141              FINDYES  LABEL ,
 004498 1BFF                       26143                       CLEAR R15
 00449A 47F0 714A            0449E 26147                       B     FINDDONE
                                   26148
 00449E                            26149              FINDDONE LABEL ,
 00449E 18D8/9808 D004_            26151                       PEND  ,
 DROP   FDDWA-(4+36),R8
 DROP   *,R7
1FLOW     (FLOW2025) (12:45) (15MAR04) FLOW CONTROL SCANNING/PROCESSING                                                     Page  130
0Current Usings:  (FDDWA,R6) (CP,R11) (CV,R12)
0Loc    Object Code    Addr1 Addr2  Stmt Lv Lineno    Source Statement           (Hibal 5, Asmedit 3.3)  HLASM R4.0  2004/03/15 12.45
+___    ______ ____    _____ _____  ____ __ ______    ______ _________
0                                  26177                       ¿þþþþþþþþþþþþþþþþþþþþþþþþþþþÜ
                                   26178                       Ÿ  FLOW CONTROL SCAN TABLE  Ÿ
                                   26179                       ¾þþþþþþþþþþþþþþþþþþþþþþþþþþþ»
 0044AC 4040404040404040_          26180              FINDPRT  SCKW  ,FDNONE,NULL
 0044D4 C5D5C44040404040_          26195                       SCKW  END,FDEND
 0044FC E6C8C9D3C5404040_          26210                       SCKW  WHILE,FDWHILE
 004524 C9C6404040404040_          26225                       SCKW  IF,FDIF
 00454C C5D3E2C540404040_          26240                       SCKW  ELSE,FDELSE,A
 004574 C5D3E2C5C9C64040_          26255                       SCKW  ELSEIF,FDELSEIF
 00459C D9C5D7C5C1E34040_          26270                       SCKW  REPEAT,FDREPEAT
 0045C4 E4D5E3C9D3404040_          26285                       SCKW  UNTIL,FDUNTIL
 0045EC C3C1E2C5E2404040_          26300                       SCKW  CASES,FDCASES
 004614 C3C1E2C540404040_          26315                       SCKW  CASE,FDCASE
 00463C C2C5C7C9D5404040_          26330                       SCKW  BEGIN,FDBEGIN
 004664 C4D6404040404040_          26345                       SCKW  DO,FDDO
 00468C E7D7D9D6C3404040_          26360                       SCKW  XPROC,FDXPROC
 0046B4 D7D9D6C340404040_          26375                       SCKW  PROC,FDPROC
 0046DC C5E7C5C340404040_          26390                       SCKW  EXEC,FDEXEC,A
 004704 4040404040404040_          26405                       SCKW  ,FDNONE
-
-                                  26421                       ¿þþþþþþþþþþþþþþþþþþþþþþþþþþþþþþþþþþþþþþþþþþþþþþþÜ
                                   26422                       Ÿ  IF NOT CONTROL CONSTRUCT,,, IF NOT 'END',,,  Ÿ
                                   26423                       Ÿ  LOOP SCANNING LINES FOR END                  Ÿ
                                   26424                       ¾þþþþþþþþþþþþþþþþþþþþþþþþþþþþþþþþþþþþþþþþþþþþþþþ»
 00472C 50E0 D000/9008_      00000 26425              FDNONE   PROC  ,                   IF NONE OF THE ABOVE
 USING  *,R7
 004746 41F0 0008            00008 26464                       LA    R15,8
 00474A 18D8/9808 D004_            26465                       PEND  , ,                  LOOP SCANNING
 DROP   *,R7
-
-                                  26486                       ¿þþþþþþþÜ
                                   26487                       Ÿ  END  Ÿ
                                   26488                       ¾þþþþþþþ»
 004758 50E0 D000/9008_      00000 26489              FDEND    PROC  ,                   FOUND END !! HOORAY
 USING  *,R7
 004772 41F0 0004            00004 26528                       LA    R15,4
 004776 18D8/9808 D004_            26529                       PEND  ,
 DROP   *,R7
-                                  26550                       ¿þþþþþþÜ
                                   26551                       Ÿ  IF  Ÿ
                                   26552                       ¾þþþþþþ»
 004784 50E0 D000/9008_      00000 26553              FDIF     PROC  ,
 USING  *,R7
 00479E 4140 000A            0000A 26592                       LA    R4,FDFIF
1FLOW     (FLOW2025) (12:45) (15MAR04) FLOW CONTROL SCANNING/PROCESSING                                                     Page  131
0Current Usings:  (FDDWA,R6) (*,R7) (CP,R11) (CV,R12)
0Loc    Object Code    Addr1 Addr2  Stmt Lv Lineno    Source Statement           (Hibal 5, Asmedit 3.3)  HLASM R4.0  2004/03/15 12.45
+___    ______ ____    _____ _____  ____ __ ______    ______ _________
00047A2 5048 0014            00014 26593                       PRETURN (R4)
 0047A6 41F0 0008            00008 26595                       LA    R15,8
 0047AA 18D8/9808 D004_            26596                       PEND  ,
 DROP   *,R7
-                                  26617                       ¿þþþþþþÜ
                                   26618                       Ÿ  DO  Ÿ
                                   26619                       ¾þþþþþþ»
 0047B8 50E0 D000/9008_      00000 26620              FDDO     PROC  ,
 USING  *,R7
 0047D2 4140 000B            0000B 26659                       LA    R4,FDFDO
 0047D6 5048 0014            00014 26660                       PRETURN (R4)
 0047DA 41F0 0008            00008 26662                       LA    R15,8
 0047DE 18D8/9808 D004_            26663                       PEND  ,
 DROP   *,R7
-                                  26684                       ¿þþþþþþþþþÜ
                                   26685                       Ÿ  WHILE  Ÿ
                                   26686                       ¾þþþþþþþþþ»
 0047EC 50E0 D000/9008_      00000 26687              FDWHILE  PROC  ,
 USING  *,R7
 004806 4140 000C            0000C 26726                       LA    R4,FDFWHILE
 00480A 5048 0014            00014 26727                       PRETURN (R4)
 00480E 41F0 0008            00008 26729                       LA    R15,8
 004812 18D8/9808 D004_            26730                       PEND  ,
 DROP   *,R7
-                                  26751                       ¿þþþþþþþþþÜ
                                   26752                       Ÿ  CASES  Ÿ
                                   26753                       ¾þþþþþþþþþ»
 004820 50E0 D000/9008_      00000 26754              FDCASES  PROC  ,
 USING  *,R7
 00483A 4140 000D            0000D 26793                       LA    R4,FDFCASES
 00483E 5048 0014            00014 26794                       PRETURN (R4)
 004842 41F0 0008            00008 26796                       LA    R15,8
 004846 18D8/9808 D004_            26797                       PEND  ,
 DROP   *,R7
-                                  26818                       ¿þþþþþþþþþÜ
                                   26819                       Ÿ  BEGIN  Ÿ
                                   26820                       ¾þþþþþþþþþ»
 004854 50E0 D000/9008_      00000 26821              FDBEGIN  PROC  ,
 USING  *,R7
 00486E 4140 000E            0000E 26860                       LA    R4,FDFBEGIN
 004872 5048 0014            00014 26861                       PRETURN (R4)
 004876 41F0 0008            00008 26863                       LA    R15,8
 00487A 18D8/9808 D004_            26864                       PEND  ,
 DROP   *,R7
1FLOW     (FLOW2025) (12:45) (15MAR04) FLOW CONTROL SCANNING/PROCESSING                                                     Page  132
0Current Usings:  (FDDWA,R6) (CP,R11) (CV,R12)
0Loc    Object Code    Addr1 Addr2  Stmt Lv Lineno    Source Statement           (Hibal 5, Asmedit 3.3)  HLASM R4.0  2004/03/15 12.45
+___    ______ ____    _____ _____  ____ __ ______    ______ _________
0                                  26885                       ¿þþþþþþþþþþÜ
                                   26886                       Ÿ  REPEAT  Ÿ
                                   26887                       ¾þþþþþþþþþþ»
 004888 50E0 D000/9008_      00000 26888              FDREPEAT PROC  ,
 USING  *,R7
 0048A2 4140 000F            0000F 26927                       LA    R4,FDFRPEAT
 0048A6 5048 0014            00014 26928                       PRETURN (R4)
 0048AA 41F0 0008            00008 26930                       LA    R15,8
 0048AE 18D8/9808 D004_            26931                       PEND  ,
 DROP   *,R7
-                                  26952                       ¿þþþþþþþþþþþþþþþþþÜ
                                   26953                       Ÿ  UNTIL - ERROR  Ÿ
                                   26954                       ¾þþþþþþþþþþþþþþþþþ»
 0048BC 50E0 D000/9008_      00000 26955              FDUNTIL  PROC  ,
 USING  *,R7
                                   26994                       COMMENT                   IF UNTIL NOT ALLOWED ,,,
 0048D6 4110 73C3/4100_      04C99 26995                       TSEG  'UNTIL statement must follow REPEAT statement '
 0048E8 4110 73F0/4100_      04CC6 27013                       FCERR '(block). ',,LPTR=FDDLPTR
 0048FA 18D8/9808 D004_            27027                       PEND  ,
 DROP   *,R7
-                                  27048                       ¿þþþþþþþþþþþþþþþþþþþÜ
                                   27049                       Ÿ  XPROC - ILLEGAL  Ÿ
                                   27050                       ¾þþþþþþþþþþþþþþþþþþþ»
 004908 50E0 D000/9008_      00000 27051              FDXPROC  PROC  ,
 USING  *,R7
 004922 4110 73AD/4100_      04CCF 27090                       FCERR 'Multiple XPROC statements are invalid. ',,LPTR=FDDLPTR
 004934 18D8/9808 D004_            27104                       PEND  ,
 DROP   *,R7
-                                  27125                       ¿þþþþþþþþþþþþþþþþÜ
                                   27126                       Ÿ  PROC - ERROR  Ÿ
                                   27127                       ¾þþþþþþþþþþþþþþþþ»
 004942 50E0 D000/9008_      00000 27128              FDPROC   PROC  ,
 USING  *,R7
 00495C 58E0 7294/0DEE       04BF0 27167                       ACALL NOENDMSG
 004962 4110 739A/4100_      04CF6 27171                       TSEG 'Missing END before PROCEDURE statement found in line '
 004974 5800 B784            00784 27189                       L     R0,CP#XLOAD
 004978 5810 B788            00788 27190                       L     R1,CPRGLOAD
 00497C 5820 6008            00008 27191                       L     R2,FDDLPTR
 004980 58E0 7298/0DEE       04BF4 27192                       VCALL SEGXLNO
 004986 4110 72B4/4100_      04C10 27196                       FCERR '. '
 004996 18D8/9808 D004_            27210                       PEND  ,
 DROP   *,R7
-                                  27231                       ¿þþþþþþþþþþþþþþþþþþÜ
                                   27232                       Ÿ  ELSE - INVALID  Ÿ
                                   27233                       ¾þþþþþþþþþþþþþþþþþþ»
 0049A4 50E0 D000/9008_      00000 27234              FDELSE   PROC  ,
1FLOW     (FLOW2025) (12:45) (15MAR04) FLOW CONTROL SCANNING/PROCESSING                                                     Page  133
0Current Usings:  (FDDWA,R6) (*,R7) (CP,R11) (CV,R12)
0Loc    Object Code    Addr1 Addr2  Stmt Lv Lineno    Source Statement           (Hibal 5, Asmedit 3.3)  HLASM R4.0  2004/03/15 12.45
+___    ______ ____    _____ _____  ____ __ ______    ______ _________
0USING  *,R7
 0049BE 4110 736D/4100_      04D2B 27273                       TSEG  'ELSE statement must follow IF statement (block). '
 0049D0 4110 7273/4100_      04C31 27291                       FCERR ' ',,LPTR=FDDLPTR
 0049E2 18D8/9808 D004_            27305                       PEND  ,
 DROP   *,R7
-                                  27326                       ¿þþþþþþþþþþþþþþþþþþþþÜ
                                   27327                       Ÿ  ELSEIF - INVALID  Ÿ
                                   27328                       ¾þþþþþþþþþþþþþþþþþþþþ»
 0049F0 50E0 D000/9008_      00000 27329              FDELSEIF PROC  ,
 USING  *,R7
 004A0A 4110 7352/4100_      04D5C 27368                       TSEG  'ELSEIF statement must follow IF statement (block). '
 004A1C 4110 7227/4100_      04C31 27386                       FCERR ' ',,LPTR=FDDLPTR
 004A2E 18D8/9808 D004_            27400                       PEND  ,
 DROP   *,R7
-                                  27421                       ¿þþþþþþþþþþþþþþþþþþÜ
                                   27422                       Ÿ  CASE - INVALID  Ÿ
                                   27423                       ¾þþþþþþþþþþþþþþþþþþ»
 004A3C 50E0 D000/9008_      00000 27424              FDCASE   PROC  ,
 USING  *,R7
 004A56 4110 7339/4100_      04D8F 27463                       TSEG  'CASE statement must follow CASE(S) statement '
 004A68 4110 7270/4100_      04CC6 27481                       FCERR '(block). ',,LPTR=FDDLPTR
 004A7A 18D8/9808 D004_            27495                       PEND  ,
 DROP   *,R7
-                                  27516                       ¿þþþþþþþþþþþþþþþþþþÜ
                                   27517                       Ÿ  EXEC - INVALID  Ÿ
                                   27518                       ¾þþþþþþþþþþþþþþþþþþ»
 004A88 50E0 D000/9008_      00000 27519              FDEXEC   PROC  ,
 USING  *,R7
 004AA2 4110 731A/4100_      04DBC 27558                       TSEG  'EXEC statement not allowed within PROCEDURES.  '
 004AB4 4110 718F/4100_      04C31 27576                       FCERR ' ',,LPTR=FDDLPTR
 004AC6 18D8/9808 D004_            27590                       PEND  ,
 DROP   *,R7
-
-
0                                  27612                       ¿þþþþþþþþþþþþþþþþþþþþþþþþþþþþþþþþþþþþþþþþþÜ
                                   27613                       Ÿ                                         Ÿ
                                   27614                       Ÿ  NOENDMSG - NO END FOUND ERROR MESSAGE  Ÿ
                                   27615                       Ÿ                                         Ÿ
                                   27616                       ¾þþþþþþþþþþþþþþþþþþþþþþþþþþþþþþþþþþþþþþþþþ»
 004AD4 50E0 D000/9008_      00000 27617              NOENDMSG PROC  ,
 USING  *,R7
 004AEE 4110 710A/4100_      04BF8 27656                       TSEG  'Missing END.',,CR
 004B00 4110 72FD/4100_      04DEB 27674                       TSEG  'No matching END for BEGIN in '
1FLOW     (FLOW2025) (12:45) (15MAR04) FLOW CONTROL SCANNING/PROCESSING                                                     Page  134
0Current Usings:  (FDDWA,R6) (*,R7) (CP,R11) (CV,R12)
0Loc    Object Code    Addr1 Addr2  Stmt Lv Lineno    Source Statement           (Hibal 5, Asmedit 3.3)  HLASM R4.0  2004/03/15 12.45
+___    ______ ____    _____ _____  ____ __ ______    ______ _________
0004B12 5800 B784            00784 27692                       L     R0,CP#XLOAD
 004B16 5810 B788            00788 27693                       L     R1,CPRGLOAD
 004B1A 4120 600C            0000C 27694                       LA    R2,FDDBEGIN
 004B1E 58E0 7106/0DEE       04BF4 27695                       VCALL SEGXLNO
 004B24 4110 7122/4100_      04C10 27699                       TSEG  '. ',,CR
 004B36 18D8/9808 D004_            27717                       PEND  ,
 DROP   *,R7
 DROP   FDDWA,R6                   27737                       DROP  R6
1FLOW     (FLOW2025) (12:45) (15MAR04) FLOW CONTROL SCANNING/PROCESSING                                                     Page  135
0Current Usings:  (CP,R11) (CV,R12)
0Loc    Object Code    Addr1 Addr2  Stmt Lv Lineno    Source Statement           (Hibal 5, Asmedit 3.3)  HLASM R4.0  2004/03/15 12.45
+___    ______ ____    _____ _____  ____ __ ______    ______ _________
0                                  27745                       QLTORG
1FLOW     (FLOW2025) (12:45) (15MAR04) FLOW CONTROL SCANNING/PROCESSING - Common Routines                                   Page  136
0Current Usings:  (CP,R11) (CV,R12)
0Loc    Object Code    Addr1 Addr2  Stmt Lv Lineno    Source Statement           (Hibal 5, Asmedit 3.3)  HLASM R4.0  2004/03/15 12.45
+___    ______ ____    _____ _____  ____ __ ______    ______ _________
0                                  27817              ¿þþþþþþþþþþþþþþþþþþþþþþþþþþþþþþþþþþþþþþþþþþþþþþþþþþþþþþþþþþþþþþþþþþþþþÜ
                                   27818              Ÿ                                                                     Ÿ
                                   27819              Ÿ                                                                     Ÿ
                                   27820              Ÿ  SKIPEXPR - SKIP CONDITIONAL EXPRESSION                             Ÿ
                                   27821              Ÿ                                                                     Ÿ
                                   27822              Ÿ  ON ENTRY:                                                          Ÿ
                                   27823              Ÿ       R0 - LENGTH OF TEXT                                           Ÿ
                                   27824              Ÿ       R1 - LOCATION OF TEXT, (AT OR BEFORE '(')                     Ÿ
                                   27825              Ÿ      @R2 - LINE NUMBER                                              Ÿ
                                   27826              Ÿ                                                                     Ÿ
                                   27827              Ÿ  ON EXIT:                                                           Ÿ
                                   27828              Ÿ       R0 - LENGTH OF REMAINING TEXT                                 Ÿ
                                   27829              Ÿ       R1 - LOCATION OF REMAINING TEXT, (JUST AFTER ')')             Ÿ
                                   27830              Ÿ      R15 - CC=ZERO, EXPRESSION SKIPPED OK                           Ÿ
                                   27831              Ÿ            IF ERROR, WE EXIT VIA CVERROR, VIA FCERROR.              Ÿ
                                   27832              Ÿ                                                                     Ÿ
                                   27833              Ÿ  NOTE, EXPRESSION SKIPPED MUST BE IN PARENTHESIS                    Ÿ
                                   27834              Ÿ                                                                     Ÿ
                                   27835              Ÿ                                                                     Ÿ
                                                      ¾þþþþþþþþþþþþþþþþþþþþþþþþþþþþþþþþþþþþþþþþþþþþþþþþþþþþþþþþþþþþþþþþþþþþþ»
0004E08 50E0 D000/9008_      00000 27836              SKIPEXPR PROC  ,
 USING  *,R7
                                   27875
                                   27876                       COMMENT                   SKIP LEADING BLANKS AND '('
 004E22 9540 1000/4770_00000       27877                       WHILE ((@R1,EQ,' '),AND,(R0,POS)),BEGIN
 004E30 5E10 74E6            05308 27908  1                      INCR  R1
 004E34 0600                       27911  1                      DECR  R0
 004E36 47F0 7000            04E22 27913                       END
 004E3A 954D 1000/4770_00000       27918                       IF    ((@R1,EQ,'('),AND,(R0,POS)),BEGIN
 004E48 5E10 74E6            05308 27947  1                      INCR  R1
 004E4C 0600                       27950  1                      DECR  R0
 004E4E                            27952                       END
 004E4E 7030/7030/47F0_04E4E 04E40 27956                       ELSE  BEGIN
 004E52 58E0 74EA/0DEE       0530C 27969  1                      VCALL CHECKEND
 004E58 4110 74EE/4100_      05310 27973  1                      TSEG  'Missing conditional expression. (Expression '
 004E6A 4110 7552/4100_      05374 27991  1                      FCERR 'must be in parenthesis.) ',,LPTR=(R2)
 004E7A                            28005                       END
                                   28009
                                   28010                       COMMENT                   FIND CLOSE PARENTHESIS
 004E7A 1842                       28011                       LR    R4,R2
 004E7C 58E0 7522/0DEE       05344 28012                       ACALL FINDPREN
                                   28016
 004E82 1BFF                       28017                       CLEAR R15
 004E84 9001 8004            00004 28021                       PRETURN (R0,R1)
 004E88 18D8/9808 D004_            28023                       PEND  ,
 DROP   *,R7
1FLOW     (FLOW2025) (12:45) (15MAR04) FLOW CONTROL SCANNING/PROCESSING - Common Routines                                   Page  137
0Current Usings:  (CP,R11) (CV,R12)
0Loc    Object Code    Addr1 Addr2  Stmt Lv Lineno    Source Statement           (Hibal 5, Asmedit 3.3)  HLASM R4.0  2004/03/15 12.45
+___    ______ ____    _____ _____  ____ __ ______    ______ _________
0                                  28044                       ¿þþþþþþþþþþþþþþþþþþþþþþþþþþþþþþþþþþþþþþþþþþþþþÜ
                                   28045                       Ÿ  FIND CLOSE PARENTHESIS                     Ÿ
                                   28046                       Ÿ                                             Ÿ
                                   28047                       Ÿ  ON ENTRY:                                  Ÿ
                                   28048                       Ÿ  R0,R1 - TEXT LOC, LENGTH  (JUST PAST '(')  Ÿ
                                   28049                       Ÿ  @R4 - LINE NUMBER                          Ÿ
                                   28050                       Ÿ  ON EXIT:                                   Ÿ
                                   28051                       Ÿ  R0,R1 - TEXT LOC, LENGTH  (JUST PAST ')')  Ÿ
                                   28052                       Ÿ  ERRORS EXIT VIA CVERROR, VIA FCERROR       Ÿ
                                   28053                       ¾þþþþþþþþþþþþþþþþþþþþþþþþþþþþþþþþþþþþþþþþþþþþþ»
 004E96 50E0 D000/9008_      00000 28054              FINDPREN PROC  ,
 USING  *,R7
                                   28093
                                   28094                       COMMENT                   LOOK FOR ')'
 004EB0 1200/47D0 701C             28095                       IF    (R0,POS),BEGIN
 004EB6 1A01                       28109  1                      AR    R0,R1               R0 - END OF STRING
 004EB8 1830                       28110  1                      LR    R3,R0
 004EBA 1B31                       28111  1                      SR    R3,R1               R3 - LENGTH OF STRING
 004EBC 1B22                       28112  1                      CLEAR R2
 004EBE 0630/4430 7500_            28116  1                      DEX   R3,' TRT 0(0,R1),FINDTABL '
 004EC4 4770 701A            04ECA 28135  1                      IF    Z,BEGIN
 004EC8 1810                       28146  2                        LR    R1,R0
 004ECA                            28147  1                      END
 004ECA 1B01                       28151  1                      SR    R0,R1
 004ECC                            28152                       END
                                   28156
                                   28157                       COMMENT                   IF END OF TEXT, BEGIN
 004ECC 1200/4770 7032             28158                       IF    (R0,Z),BEGIN
 004ED2 4110 74DD/4100_      0538D 28172  1                      FCERR 'Unmatched Parenthesis. Missing '')''.',,LPTR=(R4)
 004EE2                            28186                       END
                                   28190
                                   28191                       COMMENT                   PROCESS SINGLE QUOTE
 004EE2 7036/47F0 7050_04EE2 04ED0 28192                       ELSEIF (@R1,EQ,''''),BEGIN
 004EEE 5E10 7458            05308 28217  1                      INCR  R1
 004EF2 0600                       28220  1                      DECR  R0
 004EF4 58E0 7498/0DEE       05348 28222  1                      ACALL FINDSQUO
 004EFA 58E0 7494/0DEE       05344 28226  1                      ACALL FINDPREN
 004F00                            28230                       END
                                   28234
                                   28235                       COMMENT                   PROCESS DOUBLE QUOTE
 004F00 7054/47F0 706E_04F00 04EEC 28236                       ELSEIF (@R1,EQ,'"'),BEGIN
 004F0C 5E10 7458            05308 28261  1                      INCR  R1
 004F10 0600                       28264  1                      DECR  R0
 004F12 58E0 749C/0DEE       0534C 28266  1                      ACALL FINDDQUO
 004F18 58E0 7494/0DEE       05344 28270  1                      ACALL FINDPREN
 004F1E                            28274                       END
                                   28278
                                   28279                       COMMENT                   PROCESS PARENTHESIS PAIR
 004F1E 7072/47F0 708C_04F1E 04F0A 28280                       ELSEIF (@R1,EQ,'('),BEGIN
 004F2A 5E10 7458            05308 28305  1                      INCR  R1
 004F2E 0600                       28308  1                      DECR  R0
 004F30 58E0 7494/0DEE       05344 28310  1                      ACALL FINDPREN
 004F36 58E0 7494/0DEE       05344 28314  1                      ACALL FINDPREN
 004F3C                            28318                       END
1FLOW     (FLOW2025) (12:45) (15MAR04) FLOW CONTROL SCANNING/PROCESSING - Common Routines                                   Page  138
0Current Usings:  (*,R7) (CP,R11) (CV,R12)
0Loc    Object Code    Addr1 Addr2  Stmt Lv Lineno    Source Statement           (Hibal 5, Asmedit 3.3)  HLASM R4.0  2004/03/15 12.45
+___    ______ ____    _____ _____  ____ __ ______    ______ _________
0                                  28322
                                   28323                       COMMENT                   GOT IT !!, SKIP IT, AND EXIT
 004F3C 7090/47F0 709E_04F3C 04F28 28324                       ELSEIF (@R1,EQ,')'),BEGIN
 004F48 5E10 7458            05308 28349  1                      INCR  R1
 004F4C 0600                       28352  1                      DECR  R0
 004F4E                            28354                       END
                                   28358
                                   28359                       COMMENT                    IF NONE OF THE ABOVE, BOMB
 004F4E 70A2/47F0 70A4 04F4E 04F46 28360                       ELSE  BEGIN
 004F52 0000                       28371  1                      BOMB
 004F54                            28373                       END
                                   28377
 004F54 9001 8004            00004 28378                       PRETURN (R0,R1)
 004F58 1BFF                       28380                       CLEAR R15
 004F5A 18D8/9808 D004_            28384                       PEND  ,
 DROP   *,R7
1FLOW     (FLOW2025) (12:45) (15MAR04) FLOW CONTROL SCANNING/PROCESSING - Common Routines                                   Page  139
0Current Usings:  (CP,R11) (CV,R12)
0Loc    Object Code    Addr1 Addr2  Stmt Lv Lineno    Source Statement           (Hibal 5, Asmedit 3.3)  HLASM R4.0  2004/03/15 12.45
+___    ______ ____    _____ _____  ____ __ ______    ______ _________
0                                  28405                       ¿þþþþþþþþþþþþþþþþþþþþþþþþþþþþþþþþþþþþþþþþþþþþþþÜ
                                   28406                       Ÿ  FIND SINGLE QUOTE                           Ÿ
                                   28407                       Ÿ                                              Ÿ
                                   28408                       Ÿ  ON ENTRY:                                   Ÿ
                                   28409                       Ÿ  R0,R1 - TEXT LOC, LENGTH  (JUST PAST '''')  Ÿ
                                   28410                       Ÿ  @R4 - LINE NUMBER                           Ÿ
                                   28411                       Ÿ  ON EXIT:                                    Ÿ
                                   28412                       Ÿ  R0,R1 - TEXT LOC, LENGTH  (JUST PAST '''')  Ÿ
                                   28413                       Ÿ  ERRORS EXIT VIA CVERROR, VIA FCERROR        Ÿ
                                   28414                       ¾þþþþþþþþþþþþþþþþþþþþþþþþþþþþþþþþþþþþþþþþþþþþþþ»
 004F68 50E0 D000/9008_      00000 28415              FINDSQUO PROC  ,
 USING  *,R7
                                   28454
                                   28455                       COMMENT                   LOOK FOR ''''
 004F82 1200/47D0 701C             28456                       IF    (R0,POS),BEGIN
 004F88 1A01                       28470  1                      AR    R0,R1               R0 - END OF STRING
 004F8A 1830                       28471  1                      LR    R3,R0
 004F8C 1B31                       28472  1                      SR    R3,R1               R3 - LENGTH OF STRING
 004F8E 1B22                       28473  1                      CLEAR R2
 004F90 0630/4430 7434_            28477  1                      DEX   R3,' TRT 0(0,R1),FINDTABL '
 004F96 4770 701A            04F9C 28496  1                      IF    Z,BEGIN
 004F9A 1810                       28507  2                        LR    R1,R0
 004F9C                            28508  1                      END
 004F9C 1B01                       28512  1                      SR    R0,R1
 004F9E                            28513                       END
                                   28517
                                   28518                       COMMENT                   IF END OF TEXT, BEGIN
 004F9E 1200/4770 7032             28519                       IF    (R0,Z),BEGIN
 004FA4 4110 73DE/4100_      05360 28533  1                      FCERR 'Unmatched Quotes. ',,LPTR=(R4)
 004FB4                            28547                       END
                                   28551
                                   28552                       COMMENT                   PROCESS SINGLE QUOTE
 004FB4 7036/47F0 7044_04FB4 04FA2 28553                       ELSEIF (@R1,EQ,''''),BEGIN  GOT IT, SKIP IT, EXIT
 004FC0 5E10 7386            05308 28578  1                      INCR  R1
 004FC4 0600                       28581  1                      DECR  R0
 004FC6                            28583                       END
                                   28587
                                   28588                       COMMENT                   PROCESS DOUBLE QUOTE
 004FC6 7048/47F0 705C_04FC6 04FBE 28589                       ELSEIF (@R1,EQ,'"'),BEGIN WITHIN QUOTES, JUST SKIP
 004FD2 5E10 7386            05308 28614  1                      INCR  R1
 004FD6 0600                       28617  1                      DECR  R0
 004FD8 58E0 73C6/0DEE       05348 28619  1                      ACALL FINDSQUO
 004FDE                            28623                       END
                                   28627
                                   28628                       COMMENT                   PROCESS PARENTHESIS PAIR
 004FDE 7060/47F0 7074_04FDE 04FD0 28629                       ELSEIF (@R1,EQ,'('),BEGIN WITHIN QUOTES, JUST SKIP
 004FEA 5E10 7386            05308 28654  1                      INCR  R1
 004FEE 0600                       28657  1                      DECR  R0
 004FF0 58E0 73C6/0DEE       05348 28659  1                      ACALL FINDSQUO
 004FF6                            28663                       END
                                   28667
                                   28668                       COMMENT                   PROCESS CLOSING PARENTHESIS
 004FF6 7078/47F0 708C_04FF6 04FE8 28669                       ELSEIF (@R1,EQ,')'),BEGIN  WITHIN QUOTES, JUST SKIP
 005002 5E10 7386            05308 28694  1                      INCR  R1
1FLOW     (FLOW2025) (12:45) (15MAR04) FLOW CONTROL SCANNING/PROCESSING - Common Routines                                   Page  140
0Current Usings:  (*,R7) (CP,R11) (CV,R12)
0Loc    Object Code    Addr1 Addr2  Stmt Lv Lineno    Source Statement           (Hibal 5, Asmedit 3.3)  HLASM R4.0  2004/03/15 12.45
+___    ______ ____    _____ _____  ____ __ ______    ______ _________
0005006 0600                       28697  1                      DECR  R0
 005008 58E0 73C6/0DEE       05348 28699  1                      ACALL FINDSQUO
 00500E                            28703                       END
                                   28707
                                   28708                       COMMENT                    IF NONE OF THE ABOVE, BOMB
 00500E 7090/47F0 7092 0500E 05000 28709                       ELSE  BEGIN
 005012 0000                       28720  1                      BOMB
 005014                            28722                       END
                                   28726
 005014 9001 8004            00004 28727                       PRETURN (R0,R1)
 005018 1BFF                       28729                       CLEAR R15
 00501A 18D8/9808 D004_            28733                       PEND  ,
 DROP   *,R7
1FLOW     (FLOW2025) (12:45) (15MAR04) FLOW CONTROL SCANNING/PROCESSING - Common Routines                                   Page  141
0Current Usings:  (CP,R11) (CV,R12)
0Loc    Object Code    Addr1 Addr2  Stmt Lv Lineno    Source Statement           (Hibal 5, Asmedit 3.3)  HLASM R4.0  2004/03/15 12.45
+___    ______ ____    _____ _____  ____ __ ______    ______ _________
0                                  28754                       ¿þþþþþþþþþþþþþþþþþþþþþþþþþþþþþþþþþþþþþþþþþþþþþÜ
                                   28755                       Ÿ  FIND DOUBLE QUOTE                          Ÿ
                                   28756                       Ÿ                                             Ÿ
                                   28757                       Ÿ  ON ENTRY:                                  Ÿ
                                   28758                       Ÿ  R0,R1 - TEXT LOC, LENGTH  (JUST PAST '"')  Ÿ
                                   28759                       Ÿ  @R4 - LINE NUMBER                          Ÿ
                                   28760                       Ÿ  ON EXIT:                                   Ÿ
                                   28761                       Ÿ  R0,R1 - TEXT LOC, LENGTH  (JUST PAST '"')  Ÿ
                                   28762                       Ÿ  ERRORS EXIT VIA CVERROR, VIA FCERROR       Ÿ
                                   28763                       ¾þþþþþþþþþþþþþþþþþþþþþþþþþþþþþþþþþþþþþþþþþþþþþ»
 005028 50E0 D000/9008_      00000 28764              FINDDQUO PROC  ,
 USING  *,R7
                                   28803
                                   28804                       COMMENT                   LOOK FOR '"'
 005042 1200/47D0 701C             28805                       IF    (R0,POS),BEGIN
 005048 1A01                       28819  1                      AR    R0,R1               R0 - END OF STRING
 00504A 1830                       28820  1                      LR    R3,R0
 00504C 1B31                       28821  1                      SR    R3,R1               R3 - LENGTH OF STRING
 00504E 1B22                       28822  1                      CLEAR R2
 005050 0630/4430 737A_            28826  1                      DEX   R3,' TRT 0(0,R1),FINDTABL '
 005056 4770 701A            0505C 28845  1                      IF    Z,BEGIN
 00505A 1810                       28856  2                        LR    R1,R0
 00505C                            28857  1                      END
 00505C 1B01                       28861  1                      SR    R0,R1
 00505E                            28862                       END
                                   28866
                                   28867                       COMMENT                   IF END OF TEXT, BEGIN
 00505E 1200/4770 7032             28868                       IF    (R0,Z),BEGIN
 005064 4110 731E/4100_      05360 28882  1                      FCERR 'Unmatched Quotes. ',,LPTR=(R4)
 005074                            28896                       END
                                   28900
                                   28901                       COMMENT                   PROCESS SINGLE QUOTE
 005074 7036/47F0 704A_05074 05062 28902                       ELSEIF (@R1,EQ,''''),BEGIN WITHIN QUOTES, JUST SKIP
 005080 5E10 72C6            05308 28927  1                      INCR  R1
 005084 0600                       28930  1                      DECR  R0
 005086 58E0 730A/0DEE       0534C 28932  1                      ACALL FINDDQUO
 00508C                            28936                       END
                                   28940
                                   28941                       COMMENT                   PROCESS DOUBLE QUOTE
 00508C 704E/47F0 705C_0508C 0507E 28942                       ELSEIF (@R1,EQ,'"'),BEGIN GOT IT, SKIP IT, EXIT !
 005098 5E10 72C6            05308 28967  1                      INCR  R1
 00509C 0600                       28970  1                      DECR  R0
 00509E                            28972                       END
                                   28976
                                   28977                       COMMENT                   PROCESS PARENTHESIS PAIR
 00509E 7060/47F0 7074_0509E 05096 28978                       ELSEIF (@R1,EQ,'('),BEGIN WITHIN QUOTES, JUST SKIP
 0050AA 5E10 72C6            05308 29003  1                      INCR  R1
 0050AE 0600                       29006  1                      DECR  R0
 0050B0 58E0 730A/0DEE       0534C 29008  1                      ACALL FINDDQUO
 0050B6                            29012                       END
                                   29016
                                   29017                       COMMENT                   PROCESS CLOSING PARENTHESIS
 0050B6 7078/47F0 708C_050B6 050A8 29018                       ELSEIF (@R1,EQ,')'),BEGIN  WITHIN QUOTES, JUST SKIP
 0050C2 5E10 72C6            05308 29043  1                      INCR  R1
1FLOW     (FLOW2025) (12:45) (15MAR04) FLOW CONTROL SCANNING/PROCESSING - Common Routines                                   Page  142
0Current Usings:  (*,R7) (CP,R11) (CV,R12)
0Loc    Object Code    Addr1 Addr2  Stmt Lv Lineno    Source Statement           (Hibal 5, Asmedit 3.3)  HLASM R4.0  2004/03/15 12.45
+___    ______ ____    _____ _____  ____ __ ______    ______ _________
00050C6 0600                       29046  1                      DECR  R0
 0050C8 58E0 730A/0DEE       0534C 29048  1                      ACALL FINDDQUO
 0050CE                            29052                       END
                                   29056
                                   29057                       COMMENT                    IF NONE OF THE ABOVE, BOMB
 0050CE 7090/47F0 7092 050CE 050C0 29058                       ELSE  BEGIN
 0050D2 0000                       29069  1                      BOMB
 0050D4                            29071                       END
                                   29075
 0050D4 9001 8004            00004 29076                       PRETURN (R0,R1)
 0050D8 1BFF                       29078                       CLEAR R15
 0050DA 18D8/9808 D004_            29082                       PEND  ,
 DROP   *,R7
-
-                                  29103                       ¿þþþþþþþþþþþþþþþþþþþþþþþþþþþþþþþþþþþþþþþþþþþþþþþþþþþþþþþþþþþþþþÜ
                                   29104                       Ÿ  FINDTABL - EXPRESSION SKIPPING TABLE                        Ÿ
                                   29105                       Ÿ                                                              Ÿ
                                   29106                       Ÿ  USED FOR FINDING AND MATCHING QUOTE AND PARENTHESIS PAIRS.  Ÿ
                                   29107                       Ÿ                                                              Ÿ
                                   29108                       ¾þþþþþþþþþþþþþþþþþþþþþþþþþþþþþþþþþþþþþþþþþþþþþþþþþþþþþþþþþþþþþþ»
 0050E8                            29109              FINDTABL LABEL ,
 0050E8 0000000000000000           29111                       DC    256X'0'
 0051E8                051E8 05135 29112                       ORG   FINDTABL+C'('
 005135 04                         29113                       DC    X'4'
 005136                05136 05145 29114                       ORG   FINDTABL+C')'
 005145 04                         29115                       DC    X'4'
 005146                05146 05167 29116                       ORG   FINDTABL+C'"'
 005167 04                         29117                       DC    X'4'
 005168                05168 05165 29118                       ORG   FINDTABL+C''''
 005165 04                         29119                       DC    X'4'
 005166                05166 051E8 29120                       ORG
1FLOW     (FLOW2025) (12:45) (15MAR04) FLOW CONTROL SCANNING/PROCESSING - Common Routines                                   Page  143
0Current Usings:  (CP,R11) (CV,R12)
0Loc    Object Code    Addr1 Addr2  Stmt Lv Lineno    Source Statement           (Hibal 5, Asmedit 3.3)  HLASM R4.0  2004/03/15 12.45
+___    ______ ____    _____ _____  ____ __ ______    ______ _________
0                                  29122              ¿þþþþþþþþþþþþþþþþþþþþþþþþþþþþþþþþþþþþþþþþþþþþþþþþþþþþþþþþþþþþþþþþþþþþþÜ
                                   29123              Ÿ                                                                     Ÿ
                                   29124              Ÿ                                                                     Ÿ
                                   29125              Ÿ  SKIPNULL - SKIP NULL LINES                                         Ÿ
                                   29126              Ÿ                                                                     Ÿ
                                   29127              Ÿ  ON ENTRY:                                                          Ÿ
                                   29128              Ÿ      @R1 - LINE AREA                                                Ÿ
                                   29129              Ÿ      @R2 - LINE NUMBER TO START CHECKING/SKIPING                    Ÿ
                                   29130              Ÿ                                                                     Ÿ
                                   29131              Ÿ  ON EXIT:                                                           Ÿ
                                   29132              Ÿ      @R2 - LINE NUMBER OF FIRST NON NULL (;) LINE                   Ÿ
                                   29133              Ÿ      R15 - CC=ZERO, NON NULL LINE FOUND                             Ÿ
                                   29134              Ÿ            CC=NZ, NO NON NULL LINES                                 Ÿ
                                   29135              Ÿ                                                                     Ÿ
                                   29136              Ÿ                                                                     Ÿ
                                   29137              Ÿ                                                                     Ÿ
                                                      ¾þþþþþþþþþþþþþþþþþþþþþþþþþþþþþþþþþþþþþþþþþþþþþþþþþþþþþþþþþþþþþþþþþþþþþ»
00051E8 50E0 D000/9008_      00000 29138              SKIPNULL PROC  ,
 USING  *,R7
 005202 1851                       29177                       LR    R5,R1               R5 - LINE AREA POINTER
 005204 1862                       29178                       LR    R6,R2               R6 - LINE NUMBER POINTER
                                   29179
                                   29180                       COMMENT                   GET FIRST LINE IN RANGE
 005206 58E0 714E/0DEE       05350 29181                       ACALL FCFIRST
 00520C 4770 70F0            052F2 29185                       BNZ   NOLINES
                                   29186
                                   29187                       COMMENT                   SKIP NULL LINES
 005210 58E0 B08C/501E_      0008C 29188                       SCINIT (R1),(R0)
 00521E 5810 B08C/1B00_      0008C 29208                       SCAN
 00526C 58E0 7156/0DEE       05358 29239                       SCANCHK
 005272 1200/4770 70EA             29244                       WHILE (R0,Z),BEGIN
 005278 1815                       29260  1                      LR    R1,R5
 00527A 1826                       29261  1                      LR    R2,R6
 00527C 58E0 715A/0DEE       0535C 29262  1                      ACALL FCNEXT
 005282 4770 70F0            052F2 29266  1                      BNZ   NOLINES
 005286 58E0 B08C/501E_      0008C 29267  1                      SCINIT (R1),(R0)
 005294 5810 B08C/1B00_      0008C 29287  1                      SCAN
 0052E2 58E0 7156/0DEE       05358 29318  1                      SCANCHK
 0052E8 47F0 7070            05272 29323                       END
 0052EC 1BFF                       29328                       CLEAR R15                 GOT NON-NULL LINES
 0052EE 47F0 70F8            052FA 29332                       B     SKIPDONE
                                   29333
 0052F2                            29334              NOLINES  LABEL ,
 0052F2 41F0 0004            00004 29336                       LA    R15,4
 0052F6 47F0 70F8            052FA 29337                       B     SKIPDONE
                                   29338
 0052FA                            29339              SKIPDONE LABEL ,
 0052FA 18D8/9808 D004_            29341                       PEND  ,
 DROP   *,R7
1FLOW     (FLOW2025) (12:45) (15MAR04) FLOW CONTROL SCANNING/PROCESSING - Common Routines                                   Page  144
0Current Usings:  (CP,R11) (CV,R12)
0Loc    Object Code    Addr1 Addr2  Stmt Lv Lineno    Source Statement           (Hibal 5, Asmedit 3.3)  HLASM R4.0  2004/03/15 12.45
+___    ______ ____    _____ _____  ____ __ ______    ______ _________
0                                  29362                       QLTORG
1FLOW     (FLOW2025) (12:45) (15MAR04) FLOW CONTROL SCANNING/PROCESSING - Common Routines                                   Page  145
0Current Usings:  (CP,R11) (CV,R12)
0Loc    Object Code    Addr1 Addr2  Stmt Lv Lineno    Source Statement           (Hibal 5, Asmedit 3.3)  HLASM R4.0  2004/03/15 12.45
+___    ______ ____    _____ _____  ____ __ ______    ______ _________
0                                  29391              ¿þþþþþþþþþþþþþþþþþþþþþþþþþþþþþþþþþþþþþþþþþþþþþþþþþþþþþþþþþþþþþþþþþþþþþÜ
                                   29392              Ÿ                                                                     Ÿ
                                   29393              Ÿ                                                                     Ÿ
                                   29394              Ÿ  CHKXPROC - CHECK FOR XPROC AS FIRST LINE                           Ÿ
                                   29395              Ÿ                                                                     Ÿ
                                   29396              Ÿ  ON ENTRY:                                                          Ÿ
                                   29397              Ÿ      @R1 - EXEC LINE AREA                                           Ÿ
                                   29398              Ÿ      @R2 - EXEC LINE NUMBER, WE START AT ZERO                       Ÿ
                                   29399              Ÿ                                                                     Ÿ
                                   29400              Ÿ  ON EXIT:                                                           Ÿ
                                   29401              Ÿ      @R1 - LINE CONTAINING XPROC                                    Ÿ
                                   29402              Ÿ      @R2 - LINE NUMBER OF LINE CONTAINING XPROC, IF ANY             Ÿ
                                   29403              Ÿ      R15 - CC=ZERO, XPROC FOUND                                     Ÿ
                                   29404              Ÿ            CC=NZ, XPROC NOT FOUND                                   Ÿ
                                   29405              Ÿ                                                                     Ÿ
                                   29406              Ÿ                                                                     Ÿ
                                   29407              Ÿ                                                                     Ÿ
                                                      ¾þþþþþþþþþþþþþþþþþþþþþþþþþþþþþþþþþþþþþþþþþþþþþþþþþþþþþþþþþþþþþþþþþþþþþ»
0000000                00000 0001C 29408              CHKWA    RECORD BEGIN
 000000                            29416  1           CHKINFO    DS    F
 000004                            29417  1           CHKAREA    DS    F
 000008                            29418  1           CHKLPTR    DS    F
 00000C                            29419  1           CHKTEMP    DS    XL(L'FWNAME)
 00001C                0001C 0001C 29420                       END
                                   29429              *
                                   29430              *
 0053C2 50E0 D000/9008_      00000 29431              CHKXPROC PROC  CHKWA
 USING  *,R7
 USING  CHKWA-(4+36),R8
 0053DC 5010 802C            00004 29481                       ST    R1,CHKAREA
 0053E0 5020 8030            00008 29482                       ST    R2,CHKLPTR
                                   29483
                                   29484                       COMMENT                   SKIP NULL LINES
 0053E4 1B00                       29485                       CLEAR R0                       STARTING AT LINE ZERO
 0053E6 5002 0000            00000 29489                       ST    R0,0(R2)
 0053EA 58E0 78DC/0DEE       05CB8 29490                       ACALL SKIPNULL
 0053F0 4770 714E            0552A 29494                       IF    Z,BEGIN
                                   29505  1
                                   29506  1                      COMMENT                   GET NON-NULL LINE
 0053F4 5810 802C            00004 29507  1                      L     R1,CHKAREA
 0053F8 5820 8030            00008 29508  1                      L     R2,CHKLPTR
 0053FC 58E0 78E0/0DEE       05CBC 29509  1                      ACALL FCGET
 005402 4780 702C            05408 29513  1                      IF    NZ,BEGIN
 005406 0000                       29524  2                        BOMB
 005408                            29526  1                      END
                                   29530  1
                                   29531  1                      COMMENT                   CHECK FOR LABEL
                                   29532  1                      COMMENT                   R1,R0 - LOC,LEN OF LINE
 005408 4120 8034            0000C 29533  1                      LA    R2,CHKTEMP          R2 - WORK AREA FOR LABEL NAME
 00540C 58E0 78E4/0DEE       05CC0 29534  1                      ACALL SCNLABEL
 005412 9001 D000/41D0_      00000 29538  1                      XPUSH R0,R1
 00541A 12FF/4720 70C8             29541  1                      IF    (R15,NP),BEGIN
 005420 58E0 B08C/501E_      0008C 29555  2                        SCINIT (R1),(R0)
1FLOW     (FLOW2025) (12:45) (15MAR04) FLOW CONTROL SCANNING/PROCESSING - Common Routines                                   Page  146
0Current Usings:  (*,R7) (CHKWA-(4+36),R8) (CP,R11) (CV,R12)
0Loc    Object Code    Addr1 Addr2  Stmt Lv Lineno    Source Statement           (Hibal 5, Asmedit 3.3)  HLASM R4.0  2004/03/15 12.45
+___    ______ ____    _____ _____  ____ __ ______    ______ _________
000542E 5810 B08C/1B00_      0008C 29575  2                        SCAN  ,
 00547C 58E0 78EC/0DEE       05CC8 29606  2                        SCANCHK
 005482 5830 B08C/4133_      0008C 29611  2                        SCUPTOK R3
 00548A D507 786C 3000_05C48 00000 29615  2                        IF    (@R3,EQ,'XPROC   '),BEGIN
 005494 4110 7954/4100_      05D30 29631  3                          FCERR 'Labels are invalid on XPROC statement. '
 0054A4                            29645  2                        END
 0054A4                            29649  1                      END
 0054A4 4BD0 7932/9801_      05D0E 29653  1                      XPOP R0,R1
                                   29656  1
                                   29657  1                      COMMENT                   CHECK FOR XPROC
 0054AC 58E0 B08C/501E_      0008C 29658  1                      SCINIT (R1),(R0)
 0054BA 5810 B08C/1B00_      0008C 29678  1                      SCAN
 005508 58E0 78EC/0DEE       05CC8 29709  1                      SCANCHK
 00550E 5830 B08C/4133_      0008C 29714  1                      SCUPTOK R3
 005516 D507 786C 3000_05C48 00000 29718  1                      IF    (@R3,EQ,'XPROC   '),BEGIN
 005520 1BFF                       29734  2                        CLEAR R15
 005522                            29738  1                      END
 005522 714A/47F0 714E 05522 0551E 29742  1                      ELSE  BEGIN
 005526 41F0 0004            00004 29753  2                        LA    R15,4
 00552A                            29754  1                      END
                                   29758  1
 00552A                            29759                       END
                                   29763
 00552A 18D8/9808 D004_            29764                       PEND  ,
 DROP   CHKWA-(4+36),R8
 DROP   *,R7
1FLOW     (FLOW2025) (12:45) (15MAR04) FLOW CONTROL SCANNING/PROCESSING - Common Routines                                   Page  147
0Current Usings:  (CP,R11) (CV,R12)
0Loc    Object Code    Addr1 Addr2  Stmt Lv Lineno    Source Statement           (Hibal 5, Asmedit 3.3)  HLASM R4.0  2004/03/15 12.45
+___    ______ ____    _____ _____  ____ __ ______    ______ _________
0                                  29790              ¿þþþþþþþþþþþþþþþþþþþþþþþþþþþþþþþþþþþþþþþþþþþþþþþþþþþþþþþþþþþþþþþþþþþþþÜ
                                   29791              Ÿ                                                                     Ÿ
                                   29792              Ÿ                                                                     Ÿ
                                   29793              Ÿ  CHKPROC - GET LINE CONTAINING PROC STATEMENT, IF ANY               Ÿ
                                   29794              Ÿ                                                                     Ÿ
                                   29795              Ÿ  ON ENTRY:                                                          Ÿ
                                   29796              Ÿ      @R1 - EXEC LINE AREA                                           Ÿ
                                   29797              Ÿ      @R2 - LINE NUMBER, START SEARCH AT NEXT LINE NUMBER            Ÿ
                                   29798              Ÿ                                                                     Ÿ
                                   29799              Ÿ  ON EXIT:                                                           Ÿ
                                   29800              Ÿ      @R1 - LINE CONTAINING PROC                                     Ÿ
                                   29801              Ÿ      @R2 - LINE NUMBER OF LINE CONTAINING PROC, IF ANY              Ÿ
                                   29802              Ÿ      R15 - CC=ZERO, PROC FOUND                                      Ÿ
                                   29803              Ÿ            CC=NZ, NO MORE LINE FOUND                                Ÿ
                                   29804              Ÿ      IF NEXT NON-NULL LINE IS NOT 'PROC' WE EXIT VIA FCERROR!       Ÿ
                                   29805              Ÿ                                                                     Ÿ
                                   29806              Ÿ                                                                     Ÿ
                                   29807              Ÿ                                                                     Ÿ
                                                      ¾þþþþþþþþþþþþþþþþþþþþþþþþþþþþþþþþþþþþþþþþþþþþþþþþþþþþþþþþþþþþþþþþþþþþþ»
0005538 50E0 D000/9008_      00000 29808              CHKPROC  PROC  CHKWA
 USING  *,R7
 USING  CHKWA-(4+36),R8
 005552 5010 802C            00004 29858                       ST    R1,CHKAREA
 005556 5020 8030            00008 29859                       ST    R2,CHKLPTR
 00555A 1862                       29860                       LR    R6,R2               R6 - LINE NUMBER POINTER
                                   29861
                                   29862                       COMMENT                   GET NEXT NON-NULL LINE
 00555C 58E0 777E/0DEE       05CD0 29863                       ACALL FCNEXT
 005562 12FF/4770 701C             29867                       IF    (R15,Z),BEGIN
 005568 58E0 7766/0DEE       05CB8 29881  1                      ACALL SKIPNULL
 00556E                            29885                       END
 00556E 12FF/4770 7180             29889                       IF    (R15,Z),BEGIN       WE GOT NON-NULL LINE
                                   29903  1
                                   29904  1                      COMMENT                   GET NEXT NON-NULL LINE
 005574 5810 802C            00004 29905  1                      L     R1,CHKAREA
 005578 5820 8030            00008 29906  1                      L     R2,CHKLPTR
 00557C 58E0 776A/0DEE       05CBC 29907  1                      ACALL FCGET
 005582 4780 7036            05588 29911  1                      IF    NZ,BEGIN
 005586 0000                       29922  2                        BOMB
 005588                            29924  1                      END
                                   29928  1
                                   29929  1                      COMMENT                   CHECK FOR LABEL
                                   29930  1                      COMMENT                   R1,R0 - LOC, LEN OF LINE
 005588 4120 8034            0000C 29931  1                      LA    R2,CHKTEMP          R2 - WORK AREA FOR LABEL NAME
 00558C 58E0 776E/0DEE       05CC0 29932  1                      ACALL SCNLABEL
 005592 9001 D000/41D0_      00000 29936  1                      XPUSH R0,R1
 00559A 12FF/4720 70D2             29939  1                      IF    (R15,NP),BEGIN
 0055A0 58E0 B08C/501E_      0008C 29953  2                        SCINIT (R1),(R0)
 0055AE 5810 B08C/1B00_      0008C 29973  2                        SCAN  ,
 0055FC 58E0 7776/0DEE       05CC8 30004  2                        SCANCHK
 005602 5830 B08C/4133_      0008C 30009  2                        SCUPTOK R3
 00560A D507 76FE 3000_05C50 00000 30013  2                        IF    (@R3,EQ,'PROC    '),BEGIN
 005614 4110 7805/4100_      05D57 30029  3                          FCERR 'Labels are invalid on PROC statements. ',,LPTR=(R6)
1FLOW     (FLOW2025) (12:45) (15MAR04) FLOW CONTROL SCANNING/PROCESSING - Common Routines                                   Page  148
0Current Usings:  (*,R7) (CHKWA-(4+36),R8) (CP,R11) (CV,R12)
0Loc    Object Code    Addr1 Addr2  Stmt Lv Lineno    Source Statement           (Hibal 5, Asmedit 3.3)  HLASM R4.0  2004/03/15 12.45
+___    ______ ____    _____ _____  ____ __ ______    ______ _________
0005624                            30043  2                        END
 005624                            30047  1                      END
 005624 4BD0 77BC/9801_      05D0E 30051  1                      XPOP R0,R1
                                   30054  1
                                   30055  1                      COMMENT                   CHECK FOR PROC
 00562C 58E0 B08C/501E_      0008C 30056  1                      SCINIT (R1),(R0)
 00563A 5810 B08C/1B00_      0008C 30076  1                      SCAN
 005688 58E0 7776/0DEE       05CC8 30107  1                      SCANCHK
 00568E 5830 B08C/4133_      0008C 30112  1                      SCUPTOK R3
 005696 D507 76FE 3000_05C50 00000 30116  1                      IF    (@R3,EQ,'PROC    '),BEGIN
 0056A0 1BFF                       30132  2                        CLEAR R15
 0056A2                            30136  1                      END
 0056A2 7154/47F0 7180 056A2 0569E 30140  1                      ELSE  BEGIN
 0056A6 41F0 B050/58E0_      00050 30151  2                        TSEG (R1),(R0)
 0056B0 4110 782C/4100_      05D7E 30175  2                        TSEG ': invalid.  Statement must occur within a PROC/XPROC.'
 0056C2 4110 7861/4100_      05DB3 30193  2                        FCERR ' ',,LPTR=(R6)
 0056D2                            30207  1                      END
                                   30211  1
 0056D2                            30212                       END
                                   30216
 0056D2 18D8/9808 D004_            30217                       PEND  ,
 DROP   CHKWA-(4+36),R8
 DROP   *,R7
1FLOW     (FLOW2025) (12:45) (15MAR04) FLOW CONTROL SCANNING/PROCESSING - Common Routines                                   Page  149
0Current Usings:  (CP,R11) (CV,R12)
0Loc    Object Code    Addr1 Addr2  Stmt Lv Lineno    Source Statement           (Hibal 5, Asmedit 3.3)  HLASM R4.0  2004/03/15 12.45
+___    ______ ____    _____ _____  ____ __ ______    ______ _________
0                                  30243              ¿þþþþþþþþþþþþþþþþþþþþþþþþþþþþþþþþþþþþþþþþþþþþþþþþþþþþþþþþþþþþþþþþþþþþþÜ
                                   30244              Ÿ                                                                     Ÿ
                                   30245              Ÿ                                                                     Ÿ
                                   30246              Ÿ  CHKELSE - CHECK IF NEXT LINE IS ELSE STATEMENT                     Ÿ
                                   30247              Ÿ                                                                     Ÿ
                                   30248              Ÿ  ON ENTRY:                                                          Ÿ
                                   30249              Ÿ      @R1 - EXEC LINE AREA                                           Ÿ
                                   30250              Ÿ      @R2 - LINE NUMBER, START SEARCH AT NEXT LINE NUMBER            Ÿ
                                   30251              Ÿ                                                                     Ÿ
                                   30252              Ÿ  ON EXIT:                                                           Ÿ
                                   30253              Ÿ      @R1 - LINE CONTAINING ELSE                                     Ÿ
                                   30254              Ÿ      @R2 - LINE NUMBER OF LINE CONTAINING ELSE, IF ANY              Ÿ
                                   30255              Ÿ      R15 - CC=ZERO, ELSE FOUND                                      Ÿ
                                   30256              Ÿ            CC=NZ, ELSE NOT FOUND, LINENO RESET                      Ÿ
                                   30257              Ÿ                                                                     Ÿ
                                   30258              Ÿ                                                                     Ÿ
                                                      ¾þþþþþþþþþþþþþþþþþþþþþþþþþþþþþþþþþþþþþþþþþþþþþþþþþþþþþþþþþþþþþþþþþþþþþ»
00056E0 50E0 D000/9008_      00000 30259              CHKELSE  PROC  CHKWA
 USING  *,R7
 USING  CHKWA-(4+36),R8
 0056FA 5010 802C            00004 30309                       ST    R1,CHKAREA
 0056FE 5020 8030            00008 30310                       ST    R2,CHKLPTR
                                   30311
                                   30312                       COMMENT                   GET NEXT NON-NULL LINE
 005702 58E0 75D6/0DEE       05CD0 30313                       ACALL FCNEXT
 005708 12FF/4770 701A             30317                       IF    (R15,Z),BEGIN
 00570E 58E0 75BE/0DEE       05CB8 30331  1                      ACALL SKIPNULL
 005714                            30335                       END
                                   30339
                                   30340                       COMMENT                   IF GOT NON-NULL LINE
 005714 12FF/4770 706A             30341                       IF    (R15,Z),BEGIN
 00571A 5810 802C            00004 30355  1                      L     R1,CHKAREA
 00571E 5820 8030            00008 30356  1                      L     R2,CHKLPTR
 005722 58E0 75C2/0DEE       05CBC 30357  1                      ACALL FCGET               GET LINE
 005728 4780 7034            0572E 30361  1                      IF    NZ,BEGIN
 00572C 0000                       30372  2                        BOMB
 00572E                            30374  1                      END
 00572E 58E0 75DE/0DEE       05CD8 30378  1                      ACALL SCANCMD             CHECK FOR ELSE
 005734 5830 B08C/4133_      0008C 30382  1                      SCUPTOK R3
 00573C D507 755E 3000_05C58 00000 30386  1                      IF    (@R3,EQ,'ELSE    '),BEGIN
 005746 1BFF                       30402  2                        CLEAR R15                 IF ELSE
 005748                            30406  1                      END
 005748 7052/47F0 706A 05748 05744 30410  1                      ELSE  BEGIN               IF NOT ELSE, RESET LINE NUMBER
 00574C 5810 802C            00004 30421  2                        L     R1,CHKAREA
 005750 5820 8030            00008 30422  2                        L     R2,CHKLPTR
 005754 58E0 75E2/0DEE       05CDC 30423  2                        ACALL FCPREV
 00575A 4780 7066            05760 30427  2                        IF    NZ,BEGIN
 00575E 0000                       30438  3                          BOMB
 005760                            30440  2                        END
 005760 41F0 0004            00004 30444  2                        LA    R15,4
 005764                            30445  1                      END
 005764                            30449                       END
                                   30453
1FLOW     (FLOW2025) (12:45) (15MAR04) FLOW CONTROL SCANNING/PROCESSING - Common Routines                                   Page  150
0Current Usings:  (CP,R11) (CV,R12)
0Loc    Object Code    Addr1 Addr2  Stmt Lv Lineno    Source Statement           (Hibal 5, Asmedit 3.3)  HLASM R4.0  2004/03/15 12.45
+___    ______ ____    _____ _____  ____ __ ______    ______ _________
0005764 18D8/9808 D004_            30454                       PEND  ,
 DROP   CHKWA-(4+36),R8
 DROP   *,R7
1FLOW     (FLOW2025) (12:45) (15MAR04) FLOW CONTROL SCANNING/PROCESSING - Common Routines                                   Page  151
0Current Usings:  (CP,R11) (CV,R12)
0Loc    Object Code    Addr1 Addr2  Stmt Lv Lineno    Source Statement           (Hibal 5, Asmedit 3.3)  HLASM R4.0  2004/03/15 12.45
+___    ______ ____    _____ _____  ____ __ ______    ______ _________
0                                  30480              ¿þþþþþþþþþþþþþþþþþþþþþþþþþþþþþþþþþþþþþþþþþþþþþþþþþþþþþþþþþþþþþþþþþþþþþÜ
                                   30481              Ÿ                                                                     Ÿ
                                   30482              Ÿ                                                                     Ÿ
                                   30483              Ÿ  CHKELSF - CHECK IF NEXT LINE IS ELSEIF STATEMENT                   Ÿ
                                   30484              Ÿ                                                                     Ÿ
                                   30485              Ÿ  ON ENTRY:                                                          Ÿ
                                   30486              Ÿ      @R1 - EXEC LINE AREA                                           Ÿ
                                   30487              Ÿ      @R2 - LINE NUMBER, START SEARCH AT NEXT LINE NUMBER            Ÿ
                                   30488              Ÿ                                                                     Ÿ
                                   30489              Ÿ  ON EXIT:                                                           Ÿ
                                   30490              Ÿ      @R1 - LINE CONTAINING ELSEIF                                   Ÿ
                                   30491              Ÿ      @R2 - LINE NUMBER OF LINE CONTAINING ELSEIF, IF ANY            Ÿ
                                   30492              Ÿ      R15 - CC=ZERO, ELSEIF FOUND                                    Ÿ
                                   30493              Ÿ            CC=NZ, ELSEIF NOT FOUND, LINENO RESET                    Ÿ
                                   30494              Ÿ                                                                     Ÿ
                                   30495              Ÿ                                                                     Ÿ
                                                      ¾þþþþþþþþþþþþþþþþþþþþþþþþþþþþþþþþþþþþþþþþþþþþþþþþþþþþþþþþþþþþþþþþþþþþþ»
0005772 50E0 D000/9008_      00000 30496              CHKELSF  PROC  CHKWA
 USING  *,R7
 USING  CHKWA-(4+36),R8
 00578C 5010 802C            00004 30546                       ST    R1,CHKAREA
 005790 5020 8030            00008 30547                       ST    R2,CHKLPTR
                                   30548
                                   30549                       COMMENT                   GET NEXT NON-NULL LINE
 005794 58E0 7544/0DEE       05CD0 30550                       ACALL FCNEXT
 00579A 12FF/4770 701A             30554                       IF    (R15,Z),BEGIN
 0057A0 58E0 752C/0DEE       05CB8 30568  1                      ACALL SKIPNULL
 0057A6                            30572                       END
                                   30576
                                   30577                       COMMENT                   IF GOT NON-NULL LINE
 0057A6 12FF/4770 706A             30578                       IF    (R15,Z),BEGIN
 0057AC 5810 802C            00004 30592  1                      L     R1,CHKAREA
 0057B0 5820 8030            00008 30593  1                      L     R2,CHKLPTR
 0057B4 58E0 7530/0DEE       05CBC 30594  1                      ACALL FCGET               GET LINE
 0057BA 4780 7034            057C0 30598  1                      IF    NZ,BEGIN
 0057BE 0000                       30609  2                        BOMB
 0057C0                            30611  1                      END
 0057C0 58E0 754C/0DEE       05CD8 30615  1                      ACALL SCANCMD             CHECK FOR ELSEIF
 0057C6 5830 B08C/4133_      0008C 30619  1                      SCUPTOK R3
 0057CE D507 74D4 3000_05C60 00000 30623  1                      IF    (@R3,EQ,'ELSEIF  '),BEGIN
 0057D8 1BFF                       30639  2                        CLEAR R15                 IF ELSEIF
 0057DA                            30643  1                      END
 0057DA 7052/47F0 706A 057DA 057D6 30647  1                      ELSE  BEGIN               IF NOT ELSEIF, RESET LINE NUMBER
 0057DE 5810 802C            00004 30658  2                        L     R1,CHKAREA
 0057E2 5820 8030            00008 30659  2                        L     R2,CHKLPTR
 0057E6 58E0 7550/0DEE       05CDC 30660  2                        ACALL FCPREV
 0057EC 4780 7066            057F2 30664  2                        IF    NZ,BEGIN
 0057F0 0000                       30675  3                          BOMB
 0057F2                            30677  2                        END
 0057F2 41F0 0004            00004 30681  2                        LA    R15,4
 0057F6                            30682  1                      END
 0057F6                            30686                       END
                                   30690
1FLOW     (FLOW2025) (12:45) (15MAR04) FLOW CONTROL SCANNING/PROCESSING - Common Routines                                   Page  152
0Current Usings:  (CP,R11) (CV,R12)
0Loc    Object Code    Addr1 Addr2  Stmt Lv Lineno    Source Statement           (Hibal 5, Asmedit 3.3)  HLASM R4.0  2004/03/15 12.45
+___    ______ ____    _____ _____  ____ __ ______    ______ _________
00057F6 18D8/9808 D004_            30691                       PEND  ,
 DROP   CHKWA-(4+36),R8
 DROP   *,R7
1FLOW     (FLOW2025) (12:45) (15MAR04) FLOW CONTROL SCANNING/PROCESSING - Common Routines                                   Page  153
0Current Usings:  (CP,R11) (CV,R12)
0Loc    Object Code    Addr1 Addr2  Stmt Lv Lineno    Source Statement           (Hibal 5, Asmedit 3.3)  HLASM R4.0  2004/03/15 12.45
+___    ______ ____    _____ _____  ____ __ ______    ______ _________
0                                  30717              ¿þþþþþþþþþþþþþþþþþþþþþþþþþþþþþþþþþþþþþþþþþþþþþþþþþþþþþþþþþþþþþþþþþþþþþÜ
                                   30718              Ÿ                                                                     Ÿ
                                   30719              Ÿ                                                                     Ÿ
                                   30720              Ÿ  CHKUNTIL - CHECK IF NEXT LINE IS UNTIL STATEMENT                   Ÿ
                                   30721              Ÿ                                                                     Ÿ
                                   30722              Ÿ  ON ENTRY:                                                          Ÿ
                                   30723              Ÿ      @R1 - EXEC LINE AREA                                           Ÿ
                                   30724              Ÿ      @R2 - LINE NUMBER, START SEARCH AT NEXT LINE NUMBER            Ÿ
                                   30725              Ÿ                                                                     Ÿ
                                   30726              Ÿ  ON EXIT:                                                           Ÿ
                                   30727              Ÿ      @R1 - LINE CONTAINING UNTIL                                    Ÿ
                                   30728              Ÿ      @R2 - LINE NUMBER OF LINE CONTAINING UNTIL, IF ANY             Ÿ
                                   30729              Ÿ      R15 - CC=ZERO, UNTIL FOUND                                     Ÿ
                                   30730              Ÿ      IF UNTIL NOT FOUND, WE GIVE ERROR MESSAGE AND EXIT VIA FCERR   Ÿ
                                   30731              Ÿ                                                                     Ÿ
                                   30732              Ÿ                                                                     Ÿ
                                                      ¾þþþþþþþþþþþþþþþþþþþþþþþþþþþþþþþþþþþþþþþþþþþþþþþþþþþþþþþþþþþþþþþþþþþþþ»
0005804 50E0 D000/9008_      00000 30733              CHKUNTIL PROC  CHKWA
 USING  *,R7
 USING  CHKWA-(4+36),R8
 00581E 5010 802C            00004 30783                       ST    R1,CHKAREA
 005822 5020 8030            00008 30784                       ST    R2,CHKLPTR
                                   30785
                                   30786                       COMMENT                   GET NEXT NON-NULL LINE
 005826 58E0 74B2/0DEE       05CD0 30787                       ACALL FCNEXT
 00582C 12FF/4770 701A             30791                       IF    (R15,Z),BEGIN
 005832 58E0 749A/0DEE       05CB8 30805  1                      ACALL SKIPNULL
 005838                            30809                       END
                                   30813
                                   30814                       COMMENT                   IF GOT NON-NULL LINE
 005838 12FF/4770 706E             30815                       IF    (R15,Z),BEGIN
 00583E 5810 802C            00004 30829  1                      L     R1,CHKAREA
 005842 5820 8030            00008 30830  1                      L     R2,CHKLPTR
 005846 58E0 749E/0DEE       05CBC 30831  1                      ACALL FCGET               GET LINE
 00584C 4780 7034            05852 30835  1                      IF    NZ,BEGIN
 005850 0000                       30846  2                        BOMB
 005852                            30848  1                      END
 005852 58E0 74BA/0DEE       05CD8 30852  1                      ACALL SCANCMD             CHECK FOR UNTIL
 005858 5830 B08C/4133_      0008C 30856  1                      SCUPTOK R3
 005860 D507 744A 3000_05C68 00000 30860  1                      IF    (@R3,NE,'UNTIL   '),BEGIN
 00586A 4110 7452/4100_      05C70 30876  2                        TSEG  'REPEAT statement (block) not followed by UNTIL. '
 00587C 4110 7595/4100_      05DB3 30894  2                        FCERR ' ',,LPTR=(R2)
 00588C                            30908  1                      END
 00588C                            30912                       END
                                   30916
                                   30917                       COMMENT                   IF EOF, AND NO UNTIL FOUND
 00588C 7072/47F0 7094 0588C 0583C 30918                       ELSE  BEGIN
 005890 4110 7452/4100_      05C70 30929  1                      TSEG  'REPEAT statement (block) not followed by UNTIL. '
 0058A2 4110 7595/4100_      05DB3 30947  1                      FCERR ' ',,LPTR=(R2)
 0058B2                            30961                       END
                                   30965
 0058B2 1BFF                       30966                       CLEAR R15
 0058B4 18D8/9808 D004_            30970                       PEND  ,
1FLOW     (FLOW2025) (12:45) (15MAR04) FLOW CONTROL SCANNING/PROCESSING - Common Routines                                   Page  154
0Current Usings:  (CP,R11) (CV,R12)
0Loc    Object Code    Addr1 Addr2  Stmt Lv Lineno    Source Statement           (Hibal 5, Asmedit 3.3)  HLASM R4.0  2004/03/15 12.45
+___    ______ ____    _____ _____  ____ __ ______    ______ _________
0DROP   CHKWA-(4+36),R8
 DROP   *,R7
1FLOW     (FLOW2025) (12:45) (15MAR04) FLOW CONTROL SCANNING/PROCESSING - Common Routines                                   Page  155
0Current Usings:  (CP,R11) (CV,R12)
0Loc    Object Code    Addr1 Addr2  Stmt Lv Lineno    Source Statement           (Hibal 5, Asmedit 3.3)  HLASM R4.0  2004/03/15 12.45
+___    ______ ____    _____ _____  ____ __ ______    ______ _________
0                                  30996              ¿þþþþþþþþþþþþþþþþþþþþþþþþþþþþþþþþþþþþþþþþþþþþþþþþþþþþþþþþþþþþþþþþþþþþþÜ
                                   30997              Ÿ                                                                     Ÿ
                                   30998              Ÿ                                                                     Ÿ
                                   30999              Ÿ  CHKCASE - CHECK IF NEXT LINE IS CASE STATEMENT                     Ÿ
                                   31000              Ÿ                                                                     Ÿ
                                   31001              Ÿ  ON ENTRY:                                                          Ÿ
                                   31002              Ÿ      @R1 - EXEC LINE AREA                                           Ÿ
                                   31003              Ÿ      @R2 - LINE NUMBER, START SEARCH AT NEXT LINE NUMBER            Ÿ
                                   31004              Ÿ                                                                     Ÿ
                                   31005              Ÿ  ON EXIT:                                                           Ÿ
                                   31006              Ÿ      @R1 - LINE CONTAINING CASE                                     Ÿ
                                   31007              Ÿ      @R2 - LINE NUMBER OF LINE CONTAINING CASE, IF ANY              Ÿ
                                   31008              Ÿ      R15 - CC=ZERO, CASE FOUND                                      Ÿ
                                   31009              Ÿ            CC=NZ, CASE NOT FOUND, LINENO RESET                      Ÿ
                                   31010              Ÿ                                                                     Ÿ
                                   31011              Ÿ                                                                     Ÿ
                                                      ¾þþþþþþþþþþþþþþþþþþþþþþþþþþþþþþþþþþþþþþþþþþþþþþþþþþþþþþþþþþþþþþþþþþþþþ»
00058C2 50E0 D000/9008_      00000 31012              CHKCASE  PROC  CHKWA
 USING  *,R7
 USING  CHKWA-(4+36),R8
 0058DC 5010 802C            00004 31062                       ST    R1,CHKAREA
 0058E0 5020 8030            00008 31063                       ST    R2,CHKLPTR
                                   31064
                                   31065                       COMMENT                   GET NEXT NON-NULL LINE
 0058E4 58E0 73F4/0DEE       05CD0 31066                       ACALL FCNEXT
 0058EA 12FF/4770 701A             31070                       IF    (R15,Z),BEGIN
 0058F0 58E0 73DC/0DEE       05CB8 31084  1                      ACALL SKIPNULL
 0058F6                            31088                       END
                                   31092
                                   31093                       COMMENT                   IF GOT NON-NULL LINE
 0058F6 12FF/4770 706A             31094                       IF    (R15,Z),BEGIN
 0058FC 5810 802C            00004 31108  1                      L     R1,CHKAREA
 005900 5820 8030            00008 31109  1                      L     R2,CHKLPTR
 005904 58E0 73E0/0DEE       05CBC 31110  1                      ACALL FCGET               GET LINE
 00590A 4780 7034            05910 31114  1                      IF    NZ,BEGIN
 00590E 0000                       31125  2                        BOMB
 005910                            31127  1                      END
 005910 58E0 73FC/0DEE       05CD8 31131  1                      ACALL SCANCMD             CHECK FOR CASE
 005916 5830 B08C/4133_      0008C 31135  1                      SCUPTOK R3
 00591E D507 73C4 3000_05CA0 00000 31139  1                      IF    (@R3,EQ,'CASE    '),BEGIN
 005928 1BFF                       31155  2                        CLEAR R15                 IF CASE
 00592A                            31159  1                      END
 00592A 7052/47F0 706A 0592A 05926 31163  1                      ELSE  BEGIN               IF NOT CASE, RESET LINE NUMBER
 00592E 5810 802C            00004 31174  2                        L     R1,CHKAREA
 005932 5820 8030            00008 31175  2                        L     R2,CHKLPTR
 005936 58E0 7400/0DEE       05CDC 31176  2                        ACALL FCPREV
 00593C 4780 7066            05942 31180  2                        IF    NZ,BEGIN
 005940 0000                       31191  3                          BOMB
 005942                            31193  2                        END
 005942 41F0 0004            00004 31197  2                        LA    R15,4
 005946                            31198  1                      END
 005946                            31202                       END
                                   31206
1FLOW     (FLOW2025) (12:45) (15MAR04) FLOW CONTROL SCANNING/PROCESSING - Common Routines                                   Page  156
0Current Usings:  (CP,R11) (CV,R12)
0Loc    Object Code    Addr1 Addr2  Stmt Lv Lineno    Source Statement           (Hibal 5, Asmedit 3.3)  HLASM R4.0  2004/03/15 12.45
+___    ______ ____    _____ _____  ____ __ ______    ______ _________
0005946 18D8/9808 D004_            31207                       PEND  ,
 DROP   CHKWA-(4+36),R8
 DROP   *,R7
1FLOW     (FLOW2025) (12:45) (15MAR04) FLOW CONTROL SCANNING/PROCESSING - Common Routines                                   Page  157
0Current Usings:  (CP,R11) (CV,R12)
0Loc    Object Code    Addr1 Addr2  Stmt Lv Lineno    Source Statement           (Hibal 5, Asmedit 3.3)  HLASM R4.0  2004/03/15 12.45
+___    ______ ____    _____ _____  ____ __ ______    ______ _________
0                                  31233              ¿þþþþþþþþþþþþþþþþþþþþþþþþþþþþþþþþþþþþþþþþþþþþþþþþþþþþþþþþþþþþþþþþþþþþþÜ
                                   31234              Ÿ                                                                     Ÿ
                                   31235              Ÿ                                                                     Ÿ
                                   31236              Ÿ  CHKEND - CHECK IF NEXT LINE IS END STATEMENT                       Ÿ
                                   31237              Ÿ                                                                     Ÿ
                                   31238              Ÿ  ON ENTRY:                                                          Ÿ
                                   31239              Ÿ       R0 - LINE NUMBER OF BEGIN TO MATCH                            Ÿ
                                   31240              Ÿ      @R1 - EXEC LINE AREA                                           Ÿ
                                   31241              Ÿ      @R2 - LINE NUMBER, START SEARCH AT NEXT LINE NUMBER            Ÿ
                                   31242              Ÿ                                                                     Ÿ
                                   31243              Ÿ  ON EXIT:                                                           Ÿ
                                   31244              Ÿ      @R1 - LINE CONTAINING END                                      Ÿ
                                   31245              Ÿ      @R2 - LINE NUMBER OF LINE CONTAINING END, IF ANY               Ÿ
                                   31246              Ÿ      R15 - CC=ZERO, END FOUND                                       Ÿ
                                   31247              Ÿ      IF END NOT FOUND, WE GIVE ERROR MESSAGE AND EXIT VIA FCERR     Ÿ
                                   31248              Ÿ                                                                     Ÿ
                                   31249              Ÿ  NOTE: CALLED FROM 'FCCASES' TO GET 'END' OF 'CASES BEGIN'          Ÿ
                                   31250              Ÿ                                                                     Ÿ
                                   31251              Ÿ                                                                     Ÿ
                                                      ¾þþþþþþþþþþþþþþþþþþþþþþþþþþþþþþþþþþþþþþþþþþþþþþþþþþþþþþþþþþþþþþþþþþþþþ»
0005954 50E0 D000/9008_      00000 31252              CHKEND   PROC  CHKWA
 USING  *,R7
 USING  CHKWA-(4+36),R8
 00596E 5000 8028            00000 31302                       ST    R0,CHKINFO
 005972 5010 802C            00004 31303                       ST    R1,CHKAREA
 005976 5020 8030            00008 31304                       ST    R2,CHKLPTR
                                   31305
                                   31306                       COMMENT                   GET NEXT NON-NULL LINE
 00597A 58E0 7362/0DEE       05CD0 31307                       ACALL FCNEXT
 005980 12FF/4770 701E             31311                       IF    (R15,Z),BEGIN
 005986 58E0 734A/0DEE       05CB8 31325  1                      ACALL SKIPNULL
 00598C                            31329                       END
                                   31333
                                   31334                       COMMENT                   IF GOT NON-NULL LINE
 00598C 12FF/4770 70CC             31335                       IF    (R15,Z),BEGIN
 005992 5810 802C            00004 31349  1                      L     R1,CHKAREA
 005996 5820 8030            00008 31350  1                      L     R2,CHKLPTR
 00599A 58E0 734E/0DEE       05CBC 31351  1                      ACALL FCGET               GET LINE
 0059A0 4780 7038            059A6 31355  1                      IF    NZ,BEGIN
 0059A4 0000                       31366  2                        BOMB
 0059A6                            31368  1                      END
 0059A6 58E0 736A/0DEE       05CD8 31372  1                      ACALL SCANCMD             CHECK FOR END
 0059AC 5830 B08C/4133_      0008C 31376  1                      SCUPTOK R3
 0059B4 D507 733A 3000_05CA8 00000 31380  1                      IF    (@R3,NE,'END     '),BEGIN
 0059BE 4110 7372/4100_      05CE0 31396  2                        TSEG  'Missing END.',,CR
 0059D0 4110 7446/4100_      05DB4 31414  2                        TSEG  'No matching END for BEGIN in '
 0059E2 5800 B784            00784 31432  2                        L     R0,CP#XLOAD
 0059E6 5810 B788            00788 31433  2                        L     R1,CPRGLOAD
 0059EA 4120 8028            00000 31434  2                        LA    R2,CHKINFO
 0059EE 58E0 7382/0DEE       05CF0 31435  2                        VCALL SEGXLNO
 0059F4 4110 7463/4100_      05DD1 31439  2                        TSEG  '.',,CR
 005A06 4110 7464/4100_      05DD2 31457  2                        TSEG  'Missing END expected at or before line '
 005A18 5800 B784            00784 31475  2                        L     R0,CP#XLOAD
1FLOW     (FLOW2025) (12:45) (15MAR04) FLOW CONTROL SCANNING/PROCESSING - Common Routines                                   Page  158
0Current Usings:  (*,R7) (CHKWA-(4+36),R8) (CP,R11) (CV,R12)
0Loc    Object Code    Addr1 Addr2  Stmt Lv Lineno    Source Statement           (Hibal 5, Asmedit 3.3)  HLASM R4.0  2004/03/15 12.45
+___    ______ ____    _____ _____  ____ __ ______    ______ _________
0005A1C 5810 B788            00788 31476  2                        L     R1,CPRGLOAD
 005A20 5820 8030            00008 31477  2                        L     R2,CHKLPTR
 005A24 58E0 7382/0DEE       05CF0 31478  2                        VCALL SEGXLNO
 005A2A 4110 73A2/4100_      05D10 31482  2                        FCERR '. '
 005A3A                            31496  1                      END
 005A3A                            31500                       END
                                   31504
                                   31505                       COMMENT                   IF END OF FILE, AND NO END FOUND
 005A3A 70D0/47F0 7128 05A3A 05990 31506                       ELSE  BEGIN
 005A3E 4110 7372/4100_      05CE0 31517  1                      TSEG  'Missing END.',,CR
 005A50 4110 7446/4100_      05DB4 31535  1                      TSEG  'No matching END for BEGIN in '
 005A62 5800 B784            00784 31553  1                      L     R0,CP#XLOAD
 005A66 5810 B788            00788 31554  1                      L     R1,CPRGLOAD
 005A6A 4120 8028            00000 31555  1                      LA    R2,CHKINFO
 005A6E 58E0 7382/0DEE       05CF0 31556  1                      VCALL SEGXLNO
 005A74 4110 7463/4100_      05DD1 31560  1                      TSEG  '.',,CR
 005A86 4110 748B/4100_      05DF9 31578  1                      FCERR 'Missing END occurs before END OF FILE. '
 005A96                            31592                       END
                                   31596
 005A96 1BFF                       31597                       CLEAR R15
 005A98 18D8/9808 D004_            31601                       PEND  ,
 DROP   CHKWA-(4+36),R8
 DROP   *,R7
1FLOW     (FLOW2025) (12:45) (15MAR04) FLOW CONTROL SCANNING/PROCESSING - Common Routines                                   Page  159
0Current Usings:  (CP,R11) (CV,R12)
0Loc    Object Code    Addr1 Addr2  Stmt Lv Lineno    Source Statement           (Hibal 5, Asmedit 3.3)  HLASM R4.0  2004/03/15 12.45
+___    ______ ____    _____ _____  ____ __ ______    ______ _________
0                                  31627              ¿þþþþþþþþþþþþþþþþþþþþþþþþþþþþþþþþþþþþþþþþþþþþþþþþþþþþþþþþþþþþþþþþþþþþþÜ
                                   31628              Ÿ                                                                     Ÿ
                                   31629              Ÿ                                                                     Ÿ
                                   31630              Ÿ  CHKLABEL - CHECK LABEL STATMENT,                                   Ÿ
                                   31631              Ÿ             WE ALLOW:     <label name>:  LABEL                      Ÿ
                                   31632              Ÿ                           <label name>:                             Ÿ
                                   31633              Ÿ             NOT ALLOWED:  <label name>:  COMMAND                    Ÿ
                                   31634              Ÿ                                                                     Ÿ
                                   31635              Ÿ  ON ENTRY:                                                          Ÿ
                                   31636              Ÿ       R0 - LENGTH OF STRING AFTER LABEL:                            Ÿ
                                   31637              Ÿ       R1 - LOCATION OF STRING (POINTS JUST PAST ':')                Ÿ
                                   31638              Ÿ                                                                     Ÿ
                                   31639              Ÿ  ON EXIT:                                                           Ÿ
                                   31640              Ÿ       R15 - CC=ZERO, ALL OK                                         Ÿ
                                   31641              Ÿ             CC=NZ, INVALID LABEL, ERROR MESSAGE TSEG'D              Ÿ
                                   31642              Ÿ                                                                     Ÿ
                                   31643              Ÿ  THIS ROUTINE CHECKS LABEL STATMENT.  A COMMAND MAY NOT FOLLOW      Ÿ
                                   31644              Ÿ  A LABEL.  SEE EXEC FILE MANUAL FOR LABEL RESTRICTIONS.             Ÿ
                                   31645              Ÿ                                                                     Ÿ
                                   31646              Ÿ                                                                     Ÿ
                                                      ¾þþþþþþþþþþþþþþþþþþþþþþþþþþþþþþþþþþþþþþþþþþþþþþþþþþþþþþþþþþþþþþþþþþþþþ»
0005AA6 50E0 D000/9008_      00000 31647              CHKLABEL PROC  ,
 USING  *,R7
                                   31686
 005AC0 58E0 B08C/501E_      0008C 31687                       SCINIT (R1),(R0)
 005ACE 5810 B08C/1B00_      0008C 31707                       SCAN
 005B1C 58E0 7208/0DEE       05CC8 31738                       SCANCHK
 005B22 5830 B08C/4133_      0008C 31743                       SCUPTOK R3
                                   31747
                                   31748                       COMMENT                   NO LABEL SPECIFICATION
 005B2A 1200/4770 7072             31749                       IF    (R0,Z),BEGIN
 005B30 1BFF                       31763  1                      CLEAR R15
 005B32                            31767                       END
                                   31771
                                   31772                       COMMENT                   CHECK FOR LABEL SPECIFICATION
 005B32 7076/47F0 70C0_05B32 05B2E 31773                       ELSEIF (@R3,NE,'LABEL   '),BEGIN
 005B40 58E0 B08C/581E_      0008C 31798  1                      SCTOK
 005B4E 41F0 B050/58E0_      00050 31807  1                      TSEG  (R1),(R0)
 005B58 4110 7234/4100_      05CF4 31831  1                      TSEG  ': invalid.  '
 005B6A 4110 7252/4100_      05D12 31849  1                      TSEG  'Command may not follow label. '
 005B7C 41F0 0004            00004 31867  1                      LA    R15,4
 005B80                            31868                       END
                                   31872
                                   31873                       COMMENT                   CHECK FOR GARBAGE AFTER LABEL
 005B80 70C4/47F0 70D4_05B80 05B3E 31874                       ELSEIF  (@R3,EQ,'LABEL   '),BEGIN
 005B8E 58E0 7240/0DEE       05D00 31899  1                      ACALL CHKOPTS
 005B94                            31903                       END
                                   31907
 005B94 18D8/9808 D004_            31908                       PEND  ,
 DROP   *,R7
1FLOW     (FLOW2025) (12:45) (15MAR04) FLOW CONTROL SCANNING/PROCESSING - Common Routines                                   Page  160
0Current Usings:  (CP,R11) (CV,R12)
0Loc    Object Code    Addr1 Addr2  Stmt Lv Lineno    Source Statement           (Hibal 5, Asmedit 3.3)  HLASM R4.0  2004/03/15 12.45
+___    ______ ____    _____ _____  ____ __ ______    ______ _________
0                                  31929              ¿þþþþþþþþþþþþþþþþþþþþþþþþþþþþþþþþþþþþþþþþþþþþþþþþþþþþþþþþþþþþþþþþþþþþþÜ
                                   31930              Ÿ                                                                     Ÿ
                                   31931              Ÿ                                                                     Ÿ
                                   31932              Ÿ  CHKDEF - CHECK IF DEFINED                                          Ÿ
                                   31933              Ÿ                                                                     Ÿ
                                   31934              Ÿ                                                                     Ÿ
                                   31935              Ÿ  ON ENTRY:                                                          Ÿ
                                   31936              Ÿ      @R1 - NAME OF LABEL/PROCEDURE                                  Ÿ
                                   31937              Ÿ                                                                     Ÿ
                                   31938              Ÿ  ON EXIT:                                                           Ÿ
                                   31939              Ÿ      R15 - CC=ZERO, DEFINED                                         Ÿ
                                   31940              Ÿ            CC=NZ, NOT DEFINED                                       Ÿ
                                   31941              Ÿ                                                                     Ÿ
                                   31942              Ÿ  NOTE: ROUTINE CALLS GETFINFO TO TRY TO GET A PREVIOUS ENTRY.       Ÿ
                                   31943              Ÿ        THE PARMS FOR GETFINFO ARE A BIT WILD AND WOOLLY             Ÿ
                                   31944              Ÿ        THE GETFLOW ROUTINE CANNOT BE USED HERE BECAUSE IT           Ÿ
                                   31945              Ÿ        READS FROM THE EXECUTING EXEC FILE NOT THE LOADING           Ÿ
                                   31946              Ÿ        EXEC FILE.                                                   Ÿ
                                   31947              Ÿ                                                                     Ÿ
                                   31948              Ÿ  CAUTION: THIS ROUTINE IS USED FOR CHECKING TO SEE IF A NAME        Ÿ
                                   31949              Ÿ        IS PREVIOUSLY DEFINED.  THIS ROUTINE SHOULD BE USED          Ÿ
                                   31950              Ÿ        EXCLUSIVELY DURING FLOW CONTROL PROCESSING AS IT CHECKS      Ÿ
                                   31951              Ÿ        THE FLOW CONTROL INFO FOR THE EXEC BEING LOADED AND NOT      Ÿ
                                   31952              Ÿ        THE EXEC THAT IS BEING EXECUTED.                             Ÿ
                                   31953              Ÿ                                                                     Ÿ
                                   31954              Ÿ                                                                     Ÿ
                                                      ¾þþþþþþþþþþþþþþþþþþþþþþþþþþþþþþþþþþþþþþþþþþþþþþþþþþþþþþþþþþþþþþþþþþþþþ»
0000000                00000 00020 31955              CHKDWA   RECORD BEGIN
 000000                            31963  1           CHKDNTRY   DS    XL(L'FWENTRY)       FLOW ENTRY FOR NAME
 000020                00020 00020 31964                       END
                                   31973              *
                                   31974              *
 005BA2 50E0 D000/9008_      00000 31975              CHKDEF   PROC  CHKDWA
 USING  *,R7
 USING  CHKDWA-(4+36),R8
 USING  FWENTRY,R6                 32025                       USING FWENTRY,R6
 005BBC 4160 8028            00000 32034                       LA    R6,CHKDNTRY
                                   32035
                                   32036                       COMMENT                   CREATE ENTRY FOR NAME
 005BC0 D71F 6000 6000 00000 00000 32037                       CLEAR FWENTRY
 005BC6 D20F 6000 1000 00000 00000 32044                       MVC   FWNAME,@R1
                                   32045
                                   32046                       COMMENT                   GET ENTRY FOR NAME IF ANY
 005BCC 4100 0010            00010 32047                       LA    R0,L'FWENTRY-L'FWNAME
 005BD0 4110 6010            00010 32048                       LA    R1,FWENTRY+L'FWNAME
 005BD4 4120 6000            00000 32049                       LA    R2,FWNAME
 005BD8 5830 B784            00784 32050                       L     R3,CP#XLOAD
 005BDC 5840 B78C            0078C 32051                       L     R4,CPRGFC
 005BE0 58E0 7148/0DEE       05D04 32052                       ACALL GETFINFO
                                   32056
                                   32057                       COMMENT                   RETURNS R15 - CC=Z, IF DEFINED
                                   32058                       COMMENT                           R15 - CC=NZ, IF NOT
                                   32059
1FLOW     (FLOW2025) (12:45) (15MAR04) FLOW CONTROL SCANNING/PROCESSING - Common Routines                                   Page  161
0Current Usings:  (FWENTRY,R6) (CP,R11) (CV,R12)
0Loc    Object Code    Addr1 Addr2  Stmt Lv Lineno    Source Statement           (Hibal 5, Asmedit 3.3)  HLASM R4.0  2004/03/15 12.45
+___    ______ ____    _____ _____  ____ __ ______    ______ _________
0005BE6 18D8/9808 D004_            32060                       PEND  ,
 DROP   CHKDWA-(4+36),R8
 DROP   *,R7
 DROP   FWENTRY,R6                 32085                       DROP  R6
1FLOW     (FLOW2025) (12:45) (15MAR04) FLOW CONTROL SCANNING/PROCESSING - Common Routines                                   Page  162
0Current Usings:  (CP,R11) (CV,R12)
0Loc    Object Code    Addr1 Addr2  Stmt Lv Lineno    Source Statement           (Hibal 5, Asmedit 3.3)  HLASM R4.0  2004/03/15 12.45
+___    ______ ____    _____ _____  ____ __ ______    ______ _________
0                                  32093              ¿þþþþþþþþþþþþþþþþþþþþþþþþþþþþþþþþþþþþþþþþþþþþþþþþþþþþþþþþþþþþþþþþþþþþþÜ
                                   32094              Ÿ                                                                     Ÿ
                                   32095              Ÿ                                                                     Ÿ
                                   32096              Ÿ  CHKPDEF - CHECK IF PROC IS DEFINED                                 Ÿ
                                   32097              Ÿ                                                                     Ÿ
                                   32098              Ÿ                                                                     Ÿ
                                   32099              Ÿ  ON ENTRY:                                                          Ÿ
                                   32100              Ÿ      @R1 - NAME OF LABEL/PROCEDURE                                  Ÿ
                                   32101              Ÿ                                                                     Ÿ
                                   32102              Ÿ  ON EXIT:                                                           Ÿ
                                   32103              Ÿ      R15 - CC=ZERO, DEFINED AS PROCEDURE                            Ÿ
                                   32104              Ÿ            CC=NZ, NOT DEFINED OR NOT PROCEDURE                      Ÿ
                                   32105              Ÿ                                                                     Ÿ
                                   32106              Ÿ  NOTE: THIS ROUTINE IS CALLED TO VERIFY THAT NAME IS DEFINED        Ÿ
                                   32107              Ÿ        IN CURRENTLY EXECUTING EXEC AS A PROCEDURE.                  Ÿ
                                   32108              Ÿ                                                                     Ÿ
                                   32109              Ÿ                                                                     Ÿ
                                                      ¾þþþþþþþþþþþþþþþþþþþþþþþþþþþþþþþþþþþþþþþþþþþþþþþþþþþþþþþþþþþþþþþþþþþþþ»
0000000                00000 00020 32110              CHKPWA   RECORD BEGIN
 000000                            32118  1           CHKPNTRY   DS    XL(L'FWENTRY)       FLOW ENTRY FOR NAME
 000020                00020 00020 32119                       END
                                   32128              *
                                   32129              *
 005BF4 50E0 D000/9008_      00000 32130              CHKPDEF  XPROC CHKPWA
 USING  *,R7
 USING  CHKPWA-(4+36),R8
 USING  FWENTRY,R6                 32181                       USING FWENTRY,R6
 005C0E 4160 8028            00000 32190                       LA    R6,CHKPNTRY
                                   32191
                                   32192                       COMMENT                   CREATE ENTRY WITH NAME
 005C12 D71F 6000 6000 00000 00000 32193                       CLEAR FWENTRY
 005C18 D20F 6000 1000 00000 00000 32200                       MVC   FWNAME,@R1
                                   32201
                                   32202                       COMMENT                   GET ENTRY FOR NAME IF ANY
 005C1E 4110 6000            00000 32203                       LA    R1,FWENTRY
 005C22 58E0 70FA/0DEE       05D08 32204                       ACALL GETFLOW
                                   32208
                                   32209                       COMMENT                   RETURNS R15 - CC=Z, IF DEFINED
                                   32210                       COMMENT                           R15 - CC=NZ, IF NOT
                                   32211
                                   32212                       COMMENT                   IF DEFINED, MAKE SURE IT IS PROC
 005C28 12FF/4770 702C_            32213                       IF    ((R15,Z),AND,~FWPROC),BEGIN
 005C36 41F0 0004            00004 32241  1                      LA    R15,4
 005C3A                            32242                       END
                                   32246
 005C3A 18D8/9808 D004_            32247                       PEND  ,
 DROP   CHKPWA-(4+36),R8
 DROP   *,R7
 DROP   FWENTRY,R6                 32272                       DROP  R6
1FLOW     (FLOW2025) (12:45) (15MAR04) FLOW CONTROL SCANNING/PROCESSING - Common Routines                                   Page  163
0Current Usings:  (CP,R11) (CV,R12)
0Loc    Object Code    Addr1 Addr2  Stmt Lv Lineno    Source Statement           (Hibal 5, Asmedit 3.3)  HLASM R4.0  2004/03/15 12.45
+___    ______ ____    _____ _____  ____ __ ______    ______ _________
0                                  32280                       QLTORG
1FLOW     (FLOW2025) (12:45) (15MAR04) FLOW CONTROL SCANNING/PROCESSING - Common Routines                                   Page  164
0Current Usings:  (CP,R11) (CV,R12)
0Loc    Object Code    Addr1 Addr2  Stmt Lv Lineno    Source Statement           (Hibal 5, Asmedit 3.3)  HLASM R4.0  2004/03/15 12.45
+___    ______ ____    _____ _____  ____ __ ______    ______ _________
0                                  32331              ¿þþþþþþþþþþþþþþþþþþþþþþþþþþþþþþþþþþþþþþþþþþþþþþþþþþþþþþþþþþþþþþþþþþþþþÜ
                                   32332              Ÿ                                                                     Ÿ
                                   32333              Ÿ                                                                     Ÿ
                                   32334              Ÿ  SCNBEGIN - SCAN FOR BEGIN                                          Ÿ
                                   32335              Ÿ                                                                     Ÿ
                                   32336              Ÿ  ON ENTRY:                                                          Ÿ
                                   32337              Ÿ       @R2 - LINE NUMBER                                             Ÿ
                                   32338              Ÿ       SCANCB - SCAN CONTROL BLOCK SET                               Ÿ
                                   32339              Ÿ                                                                     Ÿ
                                   32340              Ÿ  ON EXIT:                                                           Ÿ
                                   32341              Ÿ       SCANCB - CHANGED                                              Ÿ
                                   32342              Ÿ       R15 - CC=Z, 'BEGIN' FOUND                                     Ÿ
                                   32343              Ÿ             CC=NZ, 'BEGIN' NOT FOUND                                Ÿ
                                   32344              Ÿ                                                                     Ÿ
                                   32345              Ÿ  THIS ROUTINE ALSO CHECKS FOR COMPOUND CONTROL STATEMENTS,          Ÿ
                                   32346              Ÿ  EG 'IF (...) IF (...), BEGIN ' , IF THIS ERROR IS DETECTED         Ÿ
                                   32347              Ÿ  WE EXIT VIA CVERROR VIA FCERR.                                     Ÿ
                                   32348              Ÿ                                                                     Ÿ
                                   32349              Ÿ                                                                     Ÿ
                                                      ¾þþþþþþþþþþþþþþþþþþþþþþþþþþþþþþþþþþþþþþþþþþþþþþþþþþþþþþþþþþþþþþþþþþþþþ»
0005E20 50E0 D000/9008_      00000 32350              SCNBEGIN PROC  ,
 USING  *,R7
                                   32389
                                   32390                       COMMENT                   SCAN FOR BEGIN
 005E3A 1842                       32391                       LR    R4,R2               R4 - LINE NUMBER POINTER
 005E3C 5810 B08C/1B00_      0008C 32392                       SCAN  BEGINPRT
                                   32424              *        SCANCHK                   SKIP ERRORS WITHIN CONSTRUCTS
 005E8E 12FF/47B0 705E_            32425                       IF    (R15,NEG),'LA R15,4'     IF ERR, TREAT AS NO BEGIN
 005E98 59F0 767E/4770_      064B8 32445                       IF    (R15,EQ,4),'CLEAR R15'   FOUND BEGIN
 005EA2 706C/47F0 7070_05EA2 05E9E 32471                       ELSE  'LA R15,4'               BEGIN NOT FOUND
 005EAA 18D8/9808 D004_            32488                       PEND  ,
 DROP   *,R7
-
-                                  32509                       ¿þþþþþþþþþþþþþþþþþþÜ
                                   32510                       Ÿ  BEGIN KEYWORDS  Ÿ
                                   32511                       ¾þþþþþþþþþþþþþþþþþþ»
 005EB8 4040404040404040_          32512              BEGINPRT SCKW  ,NOBEGIN,NULL
 005EE0 C2C5C7C9D5404040_          32527                       SCKW  BEGIN,GOTBEGIN
 005F08 C9C6404040404040_          32542                       SCKW  IF,BADBEGIN
 005F30 C5D3E2C540404040_          32557                       SCKW  ELSE,BADBEGIN
 005F58 E3C8C5D540404040_          32572                       SCKW  THEN,BADBEGIN
 005F80 C5D3E2C5C9C64040_          32587                       SCKW  ELSEIF,BADBEGIN
 005FA8 C4D6404040404040_          32602                       SCKW  DO,BADBEGIN
 005FD0 E6C8C9D3C5404040_          32617                       SCKW  WHILE,BADBEGIN
 005FF8 D7D9D6C340404040_          32632                       SCKW  PROC,BADBEGIN
 006020 E7D7D9D6C3404040_          32647                       SCKW  XPROC,BADBEGIN
 006048 C3C1E2C5E2404040_          32662                       SCKW  CASES,BADBEGIN
 006070 C3C1E2C540404040_          32677                       SCKW  CASE,BADBEGIN
 006098 D9C5D7C5C1E34040_          32692                       SCKW  REPEAT,BADBEGIN
1FLOW     (FLOW2025) (12:45) (15MAR04) FLOW CONTROL SCANNING/PROCESSING - Common Routines                                   Page  165
0Current Usings:  (CP,R11) (CV,R12)
0Loc    Object Code    Addr1 Addr2  Stmt Lv Lineno    Source Statement           (Hibal 5, Asmedit 3.3)  HLASM R4.0  2004/03/15 12.45
+___    ______ ____    _____ _____  ____ __ ______    ______ _________
00060C0 E4D5E3C9D3404040_          32707                       SCKW  UNTIL,BADBEGIN
 0060E8 C5D5C44040404040_          32722                       SCKW  END,BADBEGIN
 006110 4040404040404040_          32737                       SCKW  ,NOBEGIN
-
-                                  32753                       ¿þþþþþþþþþþþþþþþÜ
                                   32754                       Ÿ  begin found  Ÿ
                                   32755                       ¾þþþþþþþþþþþþþþþ»
 006138 50E0 D000/9008_      00000 32756              GOTBEGIN PROC  ,                   GOT BEGIN
 USING  *,R7
 006152 58E0 736A/0DEE       064BC 32795                       ACALL CHKOPTS                  CHECK ADDIIONAL TRASH
 006158 4780 701A            0616C 32799                       IF    NZ,BEGIN
 00615C 4110 7396/4100_      064E8 32810  1                      FCERR ' ',,LPTR=(R4)
 00616C                            32824                       END
 00616C 41F0 0004            00004 32828                       LA    R15,4
 006170 18D8/9808 D004_            32829                       PEND  ,
 DROP   *,R7
-
-                                  32850                       ¿þþþþþþþþþþþþÜ
                                   32851                       Ÿ  no begin  Ÿ
                                   32852                       ¾þþþþþþþþþþþþ»
 00617E 50E0 D000/9008_      00000 32853              NOBEGIN  PROC  ,
 USING  *,R7
 006198 41F0 0008            00008 32892                       LA    R15,8
 00619C 18D8/9808 D004_            32893                       PEND  ,
 DROP   *,R7
-
-                                  32914                       ¿þþþþþþþþþþþþþþþþþþþþþþþþþÜ
                                   32915                       Ÿ  invalid keyword found  Ÿ
                                   32916                       ¾þþþþþþþþþþþþþþþþþþþþþþþþþ»
 0061AA 50E0 D000/9008_      00000 32917              BADBEGIN PROC  ,
 USING  *,R7
 0061C4 58E0 B08C/581E_      0008C 32956                       SCTOK
 0061D2 41F0 B050/58E0_      00050 32965                       TSEG  (R1),(R0)
 0061DC 4110 731A/4100_      064DE 32989                       TSEG  ': invalid.',,CR
 0061EE 4110 7325/4100_      064E9 33007                       TSEG  'Compound control statements not allowed. '
 006200 4110 7324/4100_      064E8 33025                       FCERR ' ',,LPTR=(R4)
                                   33039                       COMMENT                   BYE BYE. WE DO NOT RETURN !
 006210 18D8/9808 D004_            33040                       PEND  ,
 DROP   *,R7
1FLOW     (FLOW2025) (12:45) (15MAR04) FLOW CONTROL SCANNING/PROCESSING - Common Routines                                   Page  166
0Current Usings:  (CP,R11) (CV,R12)
0Loc    Object Code    Addr1 Addr2  Stmt Lv Lineno    Source Statement           (Hibal 5, Asmedit 3.3)  HLASM R4.0  2004/03/15 12.45
+___    ______ ____    _____ _____  ____ __ ______    ______ _________
0                                  33061              ¿þþþþþþþþþþþþþþþþþþþþþþþþþþþþþþþþþþþþþþþþþþþþþþþþþþþþþþþþþþþþþþþþþþþþþÜ
                                   33062              Ÿ                                                                     Ÿ
                                   33063              Ÿ                                                                     Ÿ
                                   33064              Ÿ  SCANCMD - SCAN COMMAND, SKIP ANY LABEL                             Ÿ
                                   33065              Ÿ                                                                     Ÿ
                                   33066              Ÿ  ON ENTRY:                                                          Ÿ
                                   33067              Ÿ       R0 - TEXT LENGTH                                              Ÿ
                                   33068              Ÿ       R1 - TEXT LOCATION                                            Ÿ
                                   33069              Ÿ                                                                     Ÿ
                                   33070              Ÿ  ON EXIT:                                                           Ÿ
                                   33071              Ÿ       R0 - REMAINING LENGTH                                         Ÿ
                                   33072              Ÿ       R1 - REMAINING TEXT                                           Ÿ
                                   33073              Ÿ       SCANCB - SET UP                                               Ÿ
                                   33074              Ÿ       SCAN CB - COMMAND NAME IN NSCNCTOK (USE SCUPTOK RX FOR PTR)   Ÿ
                                   33075              Ÿ                                                                     Ÿ
                                   33076              Ÿ  NOTE: ROUTINE WILL SKIP ANY LABEL, BUT DOES NOT CHECK FOR          Ÿ
                                   33077              Ÿ    LABEL VALIDITY.                                                  Ÿ
                                   33078              Ÿ                                                                     Ÿ
                                   33079              Ÿ                                                                     Ÿ
                                                      ¾þþþþþþþþþþþþþþþþþþþþþþþþþþþþþþþþþþþþþþþþþþþþþþþþþþþþþþþþþþþþþþþþþþþþþ»
000621E 50E0 D000/9008_      00000 33080              SCANCMD  PROC  ,
 USING  *,R7
                                   33119
 006238 58E0 B08C/501E_      0008C 33120                       SCINIT (R1),(R0)         SET UP SCAN CONTROL BLOCK
 006246 5810 B08C/1B00_      0008C 33140                       SCAN  ,
 006294 58E0 7294/0DEE       064CC 33171                       SCANCHK
 00629A 1200/47D0 70C8             33176                       IF    (R0,POS),BEGIN
 0062A0 1A10                       33190  1                      AR    R1,R0
 0062A2 0610                       33191  1                      DECR  R1
 0062A4 957A 1000/4770_00000       33193  1                      IF    (@R1,EQ,':'),BEGIN  IF LABEL, SCAN AGAIN
 0062AC 5810 B08C/1B00_      0008C 33209  2                        SCAN  ,
 0062FA 58E0 7294/0DEE       064CC 33240  2                        SCANCHK
 006300                            33245  1                      END
 006300                            33249                       END
                                   33253
 006300 58E0 B08C/581E_      0008C 33254                       SCINFO ,                 SET UP R0,R1 RETURNS
 00630E 1BFF                       33263                       CLEAR R15
 006310 9001 8004            00004 33267                       PRETURN (R0,R1)
 006314 18D8/9808 D004_            33269                       PEND  ,
 DROP   *,R7
1FLOW     (FLOW2025) (12:45) (15MAR04) FLOW CONTROL SCANNING/PROCESSING - Common Routines                                   Page  167
0Current Usings:  (CP,R11) (CV,R12)
0Loc    Object Code    Addr1 Addr2  Stmt Lv Lineno    Source Statement           (Hibal 5, Asmedit 3.3)  HLASM R4.0  2004/03/15 12.45
+___    ______ ____    _____ _____  ____ __ ______    ______ _________
0                                  33290              ¿þþþþþþþþþþþþþþþþþþþþþþþþþþþþþþþþþþþþþþþþþþþþþþþþþþþþþþþþþþþþþþþþþþþþþÜ
                                   33291              Ÿ                                                                     Ÿ
                                   33292              Ÿ                                                                     Ÿ
                                   33293              Ÿ  SCNLABEL - SCAN LABEL,  IF ANY                                     Ÿ
                                   33294              Ÿ                                                                     Ÿ
                                   33295              Ÿ  ON ENTRY:                                                          Ÿ
                                   33296              Ÿ       R0 - LENGTH OF LINE                                           Ÿ
                                   33297              Ÿ       R1 - LOCATION OF LINE                                         Ÿ
                                   33298              Ÿ      @R2 - LABEL RETURN AREA                                        Ÿ
                                   33299              Ÿ                                                                     Ÿ
                                   33300              Ÿ  ON EXIT:                                                           Ÿ
                                   33301              Ÿ      @R2 - LABEL, IF ANY  (LEFT JUSTIFIED PADDED W/BLANKS)          Ÿ
                                   33302              Ÿ      R15 - CC=ZERO, LABEL FOUND                                     Ÿ
                                   33303              Ÿ            R1, R0 - LINE LOC, LEN EXCLUDING LABEL                   Ÿ
                                   33304              Ÿ      R15 - CC=NEG, INVALID LABEL                                    Ÿ
                                   33305              Ÿ            R1, R0 - LOC LEN OF INVALID LABEL                        Ÿ
                                   33306              Ÿ      R15 - CC=POS, NO LABEL FOUND                                   Ÿ
                                   33307              Ÿ            R1, R0 - LOC, LEN OF LINE; SAME AS ON ENTRY              Ÿ
                                   33308              Ÿ                                                                     Ÿ
                                   33309              Ÿ                                                                     Ÿ
                                   33310              Ÿ                                                                     Ÿ
                                                      ¾þþþþþþþþþþþþþþþþþþþþþþþþþþþþþþþþþþþþþþþþþþþþþþþþþþþþþþþþþþþþþþþþþþþþþ»
0000000                00000 0005C 33311              SCLBWA   RECORD BEGIN
 000000                            33319  1           SCLBLOC    DS    F                   LOCATION OF LINE AT ENTRY
 000004                            33320  1           SCLBLEN    DS    F                   LENGTH OF LINE AT ENTRY
 000008                            33321  1           SCLBAREA   DS    F                   ADDRESS OF LABEL SAVE AREA
 00000C                            33322  1           SCLBTEMP   DS    XL(L'VNENTRY)       TEMP WORK AREA FOR NAME
 00005C                            33323  1                      DS    0S(L'VNNAME-L'FWNAME)    FLOW,VAR NAMES MUST
 00005C                            33324  1                      DS    0S(L'FWNAME-L'VNNAME)    BE SAME LENGTH
 00005C                0005C 0005C 33325                       END
                                   33334              *
                                   33335              *
 006322 50E0 D000/9008_      00000 33336              SCNLABEL PROC  SCLBWA
 USING  *,R7
 USING  SCLBWA-(4+36),R8
 USING  VNENTRY,R6                 33386                       USING VNENTRY,R6
 00633C 4160 8034            0000C 33395                       LA    R6,SCLBTEMP
 006340 5000 802C            00004 33396                       ST    R0,SCLBLEN
 006344 5010 8028            00000 33397                       ST    R1,SCLBLOC
 006348 5020 8030            00008 33398                       ST    R2,SCLBAREA
                                   33399
                                   33400                       COMMENT                   SCAN FOR LABEL
 00634C 58E0 B08C/501E_      0008C 33401                       SCINIT (R1),(R0)
 00635A 5810 B08C/1B00_      0008C 33421                       SCAN  ,
 0063A8 58E0 7190/0DEE       064CC 33452                       SCANCHK
                                   33457
                                   33458                       COMMENT                   IF NULL STRING, NO LABEL
 0063AE 1200/4770 7084             33459                       IF    (R0,Z),BEGIN
 0063B4 5800 802C            00004 33473  1                      L     R0,SCLBLEN
 0063B8 5810 8028            00000 33474  1                      L     R1,SCLBLOC
 0063BC 41F0 0004            00004 33475  1                      LA    R15,4
 0063C0                            33476                       END
 0063C0 7088/47F0 715E 063C0 063B2 33480                       ELSE  BEGIN
1FLOW     (FLOW2025) (12:45) (15MAR04) FLOW CONTROL SCANNING/PROCESSING - Common Routines                                   Page  168
0Current Usings:  (VNENTRY,R6) (*,R7) (SCLBWA-(4+36),R8) (CP,R11) (CV,R12)
0Loc    Object Code    Addr1 Addr2  Stmt Lv Lineno    Source Statement           (Hibal 5, Asmedit 3.3)  HLASM R4.0  2004/03/15 12.45
+___    ______ ____    _____ _____  ____ __ ______    ______ _________
0                                  33491  1
                                   33492  1                      COMMENT                   IF NO ':', NO LABEL
 0063C4 1A10                       33493  1                      AR    R1,R0
 0063C6 0610                       33494  1                      DECR  R1                  R1 - AT ':'
 0063C8 957A 1000/4780_00000       33496  1                      IF    (@R1,NE,':'),BEGIN
 0063D0 5800 802C            00004 33512  2                        L     R0,SCLBLEN
 0063D4 5810 8028            00000 33513  2                        L     R1,SCLBLOC
 0063D8 41F0 0004            00004 33514  2                        LA    R15,4
 0063DC                            33515  1                      END
 0063DC 70A4/47F0 715E 063DC 063CE 33519  1                      ELSE  BEGIN
                                   33530  2
                                   33531  2                        COMMENT                   WE HAVE <name>: ,,,
 0063E0 1851                       33532  2                        LR    R5,R1               R5 - END OF LABEL
                                   33533  2
                                   33534  2                        COMMENT                   RESCAN LABEL NAME,,
 0063E2 5800 802C            00004 33535  2                        L     R0,SCLBLEN
 0063E6 5810 8028            00000 33536  2                        L     R1,SCLBLOC
 0063EA 4120 8034            0000C 33537  2                        LA    R2,SCLBTEMP
 0063EE 58E0 7194/0DEE       064D0 33538  2                        VCALL SCNVNAME
                                   33542  2
                                   33543  2                        COMMENT                   IF VALID LABEL
                                   33544  2                        COMMENT
                                   33545  2         C              IF    ((R15,Z),AND,(VNPREFIX,EQ,0),AND,
 0063F4 12FF/4770 70EC_                   2                              (@R1,EQ,':'),AND,(R0,POS),AND,(R1,EQ,R5)),BEGIN
 006416 5820 8030            00008 33612  3                          L     R2,SCLBAREA
 00641A D20F 2000 6000 00000 00000 33613  3                          MVC   0(L'FWNAME,R2),VNNAME     SAVE NAME
 006420 5E10 7198            064D4 33614  3                          INCR  R1                        SKIP ':'
 006424 0600                       33617  3                          DECR  R0
 006426 1BFF                       33619  3                          CLEAR R15
 006428                            33623  2                        END
                                   33627  2
                                   33628  2                        COMMENT                   IF INVALID LABEL
 006428 70F0/70F0/70F0_06428 063F8 33629  2                        ELSE  BEGIN
 00642C 5800 802C            00004 33648  3                          L     R0,SCLBLEN
 006430 5810 8028            00000 33649  3                          L     R1,SCLBLOC
 006434 58E0 B08C/501E_      0008C 33650  3                          SCINIT (R1),(R0)
 006442 5810 B08C/1B00_      0008C 33670  3                          SCAN  ,
 006490 58E0 7190/0DEE       064CC 33701  3                          SCANCHK
 006496 58F0 719C            064D8 33706  3                          L     R15,=F'-4'
 00649A                            33707  2                        END
 00649A                            33711  1                      END
 00649A                            33715                       END
                                   33719
 00649A 9001 8004            00004 33720                       PRETURN (R0,R1)
 00649E 18D8/9808 D004_            33722                       PEND  ,
 DROP   SCLBWA-(4+36),R8
 DROP   *,R7
 DROP   VNENTRY,R6                 33747                       DROP  R6
1FLOW     (FLOW2025) (12:45) (15MAR04) FLOW CONTROL SCANNING/PROCESSING - Common Routines                                   Page  169
0Current Usings:  (CP,R11) (CV,R12)
0Loc    Object Code    Addr1 Addr2  Stmt Lv Lineno    Source Statement           (Hibal 5, Asmedit 3.3)  HLASM R4.0  2004/03/15 12.45
+___    ______ ____    _____ _____  ____ __ ______    ______ _________
0                                  33755                       QLTORG
1FLOW     (FLOW2025) (12:45) (15MAR04) FLOW CONTROL SCANNING/PROCESSING - Common Routines                                   Page  170
0Current Usings:  (CP,R11) (CV,R12)
0Loc    Object Code    Addr1 Addr2  Stmt Lv Lineno    Source Statement           (Hibal 5, Asmedit 3.3)  HLASM R4.0  2004/03/15 12.45
+___    ______ ____    _____ _____  ____ __ ______    ______ _________
0                                  33783              ¿þþþþþþþþþþþþþþþþþþþþþþþþþþþþþþþþþþþþþþþþþþþþþþþþþþþþþþþþþþþþþþþþþþþþþÜ
                                   33784              Ÿ                                                                     Ÿ
                                   33785              Ÿ                                                                     Ÿ
                                   33786              Ÿ  FCGET - GET LINE FROM EXEC                                         Ÿ
                                   33787              Ÿ                                                                     Ÿ
                                   33788              Ÿ  ON ENTRY:                                                          Ÿ
                                   33789              Ÿ      @R1 - LINE AREA                                                Ÿ
                                   33790              Ÿ      @R2 - LINE NUMBER                                              Ÿ
                                   33791              Ÿ                                                                     Ÿ
                                   33792              Ÿ  ON EXIT:                                                           Ÿ
                                   33793              Ÿ       R0 - LINE LENGTH                                              Ÿ
                                   33794              Ÿ       R1 - LINE LOCATION                                            Ÿ
                                   33795              Ÿ      @R2 - LINE NUMBER                                              Ÿ
                                   33796              Ÿ      R15 - CC=ZERO, LINE GOT                                        Ÿ
                                   33797              Ÿ            CC=NZ, LINE NOT FOUND                                    Ÿ
                                   33798              Ÿ                                                                     Ÿ
                                   33799              Ÿ                                                                     Ÿ
                                                      ¾þþþþþþþþþþþþþþþþþþþþþþþþþþþþþþþþþþþþþþþþþþþþþþþþþþþþþþþþþþþþþþþþþþþþþ»
0006512 50E0 D000/9008_      00000 33800              FCGET    PROC  ,
 USING  *,R7
                                   33839
                                   33840                       COMMENT                   SET EXEC SET NUMBER
 00652C 5800 B784            00784 33841                       L     R0,CP#XLOAD
 006530 58F0 B788            00788 33842                       L     R15,CPRGLOAD
 006534 58E0 7184/0DEE       066B0 33843                       VCALL XSETSET
                                   33847
                                   33848                       COMMENT                   LOCATE EXEC LINE
 00653A 58F0 B788            00788 33849                       L     R15,CPRGLOAD
 00653E 4100 00EB            000EB 33850                       LA    R0,&LINESZ
                                   33851                       COMMENT @R1 - LINE AREA
                                   33852                       COMMENT @R2 - LINENO
 006542 58E0 7188/0DEE       066B4 33853                       VCALL XGET
                                   33857
 006548 5008 0004            00004 33858                       PRETURN (R0)
 00654C 18D8/9808 D004_            33860                       PEND  ,
 DROP   *,R7
1FLOW     (FLOW2025) (12:45) (15MAR04) FLOW CONTROL SCANNING/PROCESSING - Common Routines                                   Page  171
0Current Usings:  (CP,R11) (CV,R12)
0Loc    Object Code    Addr1 Addr2  Stmt Lv Lineno    Source Statement           (Hibal 5, Asmedit 3.3)  HLASM R4.0  2004/03/15 12.45
+___    ______ ____    _____ _____  ____ __ ______    ______ _________
0                                  33881              ¿þþþþþþþþþþþþþþþþþþþþþþþþþþþþþþþþþþþþþþþþþþþþþþþþþþþþþþþþþþþþþþþþþþþþþÜ
                                   33882              Ÿ                                                                     Ÿ
                                   33883              Ÿ                                                                     Ÿ
                                   33884              Ÿ  FCFIRST - GET FIRST LINE IN RANGE FROM EXEC                        Ÿ
                                   33885              Ÿ                                                                     Ÿ
                                   33886              Ÿ  ON ENTRY:                                                          Ÿ
                                   33887              Ÿ      @R1 - LINE AREA                                                Ÿ
                                   33888              Ÿ      @R2 - LINE NUMBER (START OF RANGE)                             Ÿ
                                   33889              Ÿ                                                                     Ÿ
                                   33890              Ÿ  ON EXIT:                                                           Ÿ
                                   33891              Ÿ       R0 - LINE LENGTH                                              Ÿ
                                   33892              Ÿ       R1 - LINE LOCATION                                            Ÿ
                                   33893              Ÿ      @R2 - LINE NUMBER                                              Ÿ
                                   33894              Ÿ      R15 - CC=ZERO, LINE GOT                                        Ÿ
                                   33895              Ÿ            CC=NZ, LINE NOT FOUND                                    Ÿ
                                   33896              Ÿ                                                                     Ÿ
                                   33897              Ÿ                                                                     Ÿ
                                                      ¾þþþþþþþþþþþþþþþþþþþþþþþþþþþþþþþþþþþþþþþþþþþþþþþþþþþþþþþþþþþþþþþþþþþþþ»
000655A 50E0 D000/9008_      00000 33898              FCFIRST  PROC  ,
 USING  *,R7
                                   33937
                                   33938                       COMMENT                   SET EXEC SET NUMBER
 006574 5800 B784            00784 33939                       L     R0,CP#XLOAD
 006578 58F0 B788            00788 33940                       L     R15,CPRGLOAD
 00657C 58E0 713C/0DEE       066B0 33941                       VCALL XSETSET
                                   33945
                                   33946                       COMMENT                   LOCATE EXEC LINE
 006582 58F0 B788            00788 33947                       L     R15,CPRGLOAD
 006586 4100 00EB            000EB 33948                       LA    R0,&LINESZ
                                   33949                       COMMENT @R1 - LINE AREA
                                   33950                       COMMENT @R2 - LINENO
 00658A 58E0 7144/0DEE       066B8 33951                       VCALL XGETFRST
                                   33955
 006590 5008 0004            00004 33956                       PRETURN (R0)
 006594 18D8/9808 D004_            33958                       PEND  ,
 DROP   *,R7
1FLOW     (FLOW2025) (12:45) (15MAR04) FLOW CONTROL SCANNING/PROCESSING - Common Routines                                   Page  172
0Current Usings:  (CP,R11) (CV,R12)
0Loc    Object Code    Addr1 Addr2  Stmt Lv Lineno    Source Statement           (Hibal 5, Asmedit 3.3)  HLASM R4.0  2004/03/15 12.45
+___    ______ ____    _____ _____  ____ __ ______    ______ _________
0                                  33979              ¿þþþþþþþþþþþþþþþþþþþþþþþþþþþþþþþþþþþþþþþþþþþþþþþþþþþþþþþþþþþþþþþþþþþþþÜ
                                   33980              Ÿ                                                                     Ÿ
                                   33981              Ÿ                                                                     Ÿ
                                   33982              Ÿ  FCNEXT - GET LINE FROM EXEC                                        Ÿ
                                   33983              Ÿ                                                                     Ÿ
                                   33984              Ÿ  ON ENTRY:                                                          Ÿ
                                   33985              Ÿ      @R1 - LINE AREA                                                Ÿ
                                   33986              Ÿ      @R2 - LINE NUMBER (CURRENT)                                    Ÿ
                                   33987              Ÿ                                                                     Ÿ
                                   33988              Ÿ  ON EXIT:                                                           Ÿ
                                   33989              Ÿ       R0 - LINE LENGTH                                              Ÿ
                                   33990              Ÿ       R1 - LINE LOCATION                                            Ÿ
                                   33991              Ÿ      @R2 - LINE NUMBER (NEXT)                                       Ÿ
                                   33992              Ÿ      R15 - CC=ZERO, LINE FOUND                                      Ÿ
                                   33993              Ÿ            CC=NZ, LINE NOT FOUND                                    Ÿ
                                   33994              Ÿ                                                                     Ÿ
                                   33995              Ÿ                                                                     Ÿ
                                                      ¾þþþþþþþþþþþþþþþþþþþþþþþþþþþþþþþþþþþþþþþþþþþþþþþþþþþþþþþþþþþþþþþþþþþþþ»
00065A2 50E0 D000/9008_      00000 33996              FCNEXT   PROC  ,
 USING  *,R7
 0065BC 1831                       34035                       LR    R3,R1               LINE AREA
 0065BE 5842 0000            00000 34036                       L     R4,0(R2)            CURRENT LINE NUMBER
                                   34037
                                   34038                       COMMENT                   SET EXEC SET NUMBER
 0065C2 58F0 B788            00788 34039                       L     R15,CPRGLOAD
 0065C6 5800 B784            00784 34040                       L     R0,CP#XLOAD
 0065CA 58E0 70F4/0DEE       066B0 34041                       VCALL XSETSET
                                   34045
                                   34046                       COMMENT                   LOCATE NEXT LINE NUMBER
 0065D0 58F0 B788            00788 34047                       L     R15,CPRGLOAD
 0065D4 4100 00EB            000EB 34048                       LA    R0,&LINESZ
                                   34049                       COMMENT @R1 - LINE AREA
                                   34050                       COMMENT @R2 - LINENO
 0065D8 58E0 7100/0DEE       066BC 34051                       VCALL XGETNEXT
                                   34055
                                   34056                       COMMENT                   IF NO NEXT,
 0065DE 4780 703C            065F8 34057                       IF    NZ,BEGIN               RESET POINTERS TO CURRENT
 0065E2 1813                       34068  1                      LR    R1,R3
 0065E4 5042 0000            00000 34069  1                      ST    R4,0(R2)
 0065E8 58E0 7104/0DEE       066C0 34070  1                      ACALL FCGET
 0065EE 4780 7038            065F4 34074  1                      IF    NZ,BEGIN
 0065F2 0000                       34085  2                        BOMB
 0065F4                            34087  1                      END
 0065F4 41F0 0004            00004 34091  1                      LA    R15,4
 0065F8                            34092                       END
                                   34096
 0065F8 5008 0004            00004 34097                       PRETURN (R0)
 0065FC 18D8/9808 D004_            34099                       PEND  ,
 DROP   *,R7
1FLOW     (FLOW2025) (12:45) (15MAR04) FLOW CONTROL SCANNING/PROCESSING - Common Routines                                   Page  173
0Current Usings:  (CP,R11) (CV,R12)
0Loc    Object Code    Addr1 Addr2  Stmt Lv Lineno    Source Statement           (Hibal 5, Asmedit 3.3)  HLASM R4.0  2004/03/15 12.45
+___    ______ ____    _____ _____  ____ __ ______    ______ _________
0                                  34120              ¿þþþþþþþþþþþþþþþþþþþþþþþþþþþþþþþþþþþþþþþþþþþþþþþþþþþþþþþþþþþþþþþþþþþþþÜ
                                   34121              Ÿ                                                                     Ÿ
                                   34122              Ÿ                                                                     Ÿ
                                   34123              Ÿ  FCNEXTLN - GET NEXT LINE NUMBER IN EXEC                            Ÿ
                                   34124              Ÿ                                                                     Ÿ
                                   34125              Ÿ  ON ENTRY:                                                          Ÿ
                                   34126              Ÿ      @R1 - LINE AREA                                                Ÿ
                                   34127              Ÿ      @R2 - LINE NUMBER (CURRENT)                                    Ÿ
                                   34128              Ÿ                                                                     Ÿ
                                   34129              Ÿ  ON EXIT:                                                           Ÿ
                                   34130              Ÿ       R0 - NEXT LINE NUMBER                                         Ÿ
                                   34131              Ÿ      @R1 - UNCHANGED                                                Ÿ
                                   34132              Ÿ      @R2 - UNCHANGED                                                Ÿ
                                   34133              Ÿ      R15 - CC=ZERO, LINE FOUND                                      Ÿ
                                   34134              Ÿ            CC=NZ, LINE NOT FOUND                                    Ÿ
                                   34135              Ÿ                                                                     Ÿ
                                   34136              Ÿ  IF NO NEXT,,, WE RETURN MAX+1 SIZED LINENO  (IE. R0=C'END ')       Ÿ
                                   34137              Ÿ                                                                     Ÿ
                                                      ¾þþþþþþþþþþþþþþþþþþþþþþþþþþþþþþþþþþþþþþþþþþþþþþþþþþþþþþþþþþþþþþþþþþþþþ»
000660A 50E0 D000/9008_      00000 34138              FCNEXTLN PROC  ,
 USING  *,R7
 006624 5842 0000            00000 34177                       L     R4,0(R2)            CURRENT LINE NUMBER
                                   34178
                                   34179                       COMMENT                   SET EXEC SET NUMBER
 006628 58F0 B788            00788 34180                       L     R15,CPRGLOAD
 00662C 5800 B784            00784 34181                       L     R0,CP#XLOAD
 006630 58E0 708C/0DEE       066B0 34182                       VCALL XSETSET
                                   34186
                                   34187                       COMMENT                   LOCATE NEXT LINE
 006636 58F0 B788            00788 34188                       L     R15,CPRGLOAD
                                   34189                       COMMENT @R2 - LINENO
 00663A 58E0 70A0/0DEE       066C4 34190                       VCALL XLOCNEXT
 006640 5802 0000            00000 34194                       L     R0,0(R2)
 006644 5042 0000            00000 34195                       ST    R4,0(R2)            RESET LINE NUMBER
 006648 4780 702C            06650 34196                       IF    NZ,BEGIN
 00664C 5800 70A4            066C8 34207  1                      L     R0,=CL4'END '
 006650                            34208                       END
                                   34212
 006650 5008 0004            00004 34213                       PRETURN (R0)
 006654 18D8/9808 D004_            34215                       PEND  ,
 DROP   *,R7
1FLOW     (FLOW2025) (12:45) (15MAR04) FLOW CONTROL SCANNING/PROCESSING - Common Routines                                   Page  174
0Current Usings:  (CP,R11) (CV,R12)
0Loc    Object Code    Addr1 Addr2  Stmt Lv Lineno    Source Statement           (Hibal 5, Asmedit 3.3)  HLASM R4.0  2004/03/15 12.45
+___    ______ ____    _____ _____  ____ __ ______    ______ _________
0                                  34236              ¿þþþþþþþþþþþþþþþþþþþþþþþþþþþþþþþþþþþþþþþþþþþþþþþþþþþþþþþþþþþþþþþþþþþþþÜ
                                   34237              Ÿ                                                                     Ÿ
                                   34238              Ÿ                                                                     Ÿ
                                   34239              Ÿ  FCPREV - GET PREVIOUS LINE FROM EXEC                               Ÿ
                                   34240              Ÿ                                                                     Ÿ
                                   34241              Ÿ  ON ENTRY:                                                          Ÿ
                                   34242              Ÿ      @R1 - LINE AREA                                                Ÿ
                                   34243              Ÿ      @R2 - LINE NUMBER (CURRENT)                                    Ÿ
                                   34244              Ÿ                                                                     Ÿ
                                   34245              Ÿ  ON EXIT:                                                           Ÿ
                                   34246              Ÿ       R0 - LINE LENGTH                                              Ÿ
                                   34247              Ÿ       R1 - LINE LOCATION                                            Ÿ
                                   34248              Ÿ      @R2 - LINE NUMBER (PREVIOUS)                                   Ÿ
                                   34249              Ÿ      R15 - CC=ZERO, LINE GOT                                        Ÿ
                                   34250              Ÿ            IF NO PREVIOUS LINE, WE BOMB !!!@#$%^*&^%$#!!!!!         Ÿ
                                   34251              Ÿ                                                                     Ÿ
                                   34252              Ÿ                                                                     Ÿ
                                                      ¾þþþþþþþþþþþþþþþþþþþþþþþþþþþþþþþþþþþþþþþþþþþþþþþþþþþþþþþþþþþþþþþþþþþþþ»
0006662 50E0 D000/9008_      00000 34253              FCPREV   PROC  ,
 USING  *,R7
                                   34292
                                   34293                       COMMENT                   SET EXEC SET NUMBER
 00667C 58F0 B788            00788 34294                       L     R15,CPRGLOAD
 006680 5800 B784            00784 34295                       L     R0,CP#XLOAD
 006684 58E0 7034/0DEE       066B0 34296                       VCALL XSETSET
                                   34300
                                   34301                       COMMENT                   LOCATE PREV LINE NUMBER
 00668A 58F0 B788            00788 34302                       L     R15,CPRGLOAD
 00668E 4100 00EB            000EB 34303                       LA    R0,&LINESZ
                                   34304                       COMMENT @R1 - LINE AREA
                                   34305                       COMMENT @R2 - LINENO
 006692 58E0 7050/0DEE       066CC 34306                       VCALL XGETPREV
 006698 4780 7022            0669E 34310                       IF    NZ,BEGIN
 00669C 0000                       34321  1                      BOMB
 00669E                            34323                       END
                                   34327
 00669E 9001 8004            00004 34328                       PRETURN (R0,R1)
 0066A2 18D8/9808 D004_            34330                       PEND  ,
 DROP   *,R7
1FLOW     (FLOW2025) (12:45) (15MAR04) FLOW CONTROL SCANNING/PROCESSING - Common Routines                                   Page  175
0Current Usings:  (CP,R11) (CV,R12)
0Loc    Object Code    Addr1 Addr2  Stmt Lv Lineno    Source Statement           (Hibal 5, Asmedit 3.3)  HLASM R4.0  2004/03/15 12.45
+___    ______ ____    _____ _____  ____ __ ______    ______ _________
0                                  34351                       QLTORG
1FLOW     (FLOW2025) (12:45) (15MAR04) GET/SAVE Flow Control Entries, Information                                           Page  176
0Current Usings:  (CP,R11) (CV,R12)
0Loc    Object Code    Addr1 Addr2  Stmt Lv Lineno    Source Statement           (Hibal 5, Asmedit 3.3)  HLASM R4.0  2004/03/15 12.45
+___    ______ ____    _____ _____  ____ __ ______    ______ _________
0                                  34372              ¿þþþþþþþþþþþþþþþþþþþþþþþþþþþþþþþþþþþþþþþþþþþþþþþþþþþþþþþþþþþþþþþþþþþþþÜ
                                   34373              Ÿ                                                                     Ÿ
                                   34374              Ÿ                                                                     Ÿ
                                   34375              Ÿ  GETFLOW - GET FLOW INFORMATION ENTRY                               Ÿ
                                   34376              Ÿ                                                                     Ÿ
                                   34377              Ÿ  ON ENTRY:                                                          Ÿ
                                   34378              Ÿ       R1 - FLOW ENTRY, WITH ENTRY NAME FILLED IN                    Ÿ
                                   34379              Ÿ       CP#XSET - FLOW SET NUMBER (CURRENT EXEC SET # TOO!)           Ÿ
                                   34380              Ÿ       CPRGFLOW - CURRENT FLOW RECORD GROUP POINTER                  Ÿ
                                   34381              Ÿ                                                                     Ÿ
                                   34382              Ÿ  ON EXIT:                                                           Ÿ
                                   34383              Ÿ      @R1 - FLOW ENTRY RETURNED                                      Ÿ
                                   34384              Ÿ      R15 - CC=ZERO, ALL OK                                          Ÿ
                                   34385              Ÿ            CC=NZ, ENTRY NOT FOUND                                   Ÿ
                                   34386              Ÿ                                                                     Ÿ
                                   34387              Ÿ  NOTE: GETFLOW AND SAVEFLOW ROUTINES ARE DIFFERENT IN THAT:         Ÿ
                                   34388              Ÿ    SAVEFLOW ROUTINE IS ONLY CALLED DURING EXEC LOAD AND USES        Ÿ
                                   34389              Ÿ    SPECIAL LOAD RECORD GROUP POINTERS, WHILE GETFLOW IS             Ÿ
                                   34390              Ÿ    CALLED ONLY DURING EXEC EXCUTION AND USES CURRENT EXEC FLOW      Ÿ
                                   34391              Ÿ    RECORD GROUP POINTERS.                                           Ÿ
                                   34392              Ÿ                                                                     Ÿ
                                   34393              Ÿ                                                                     Ÿ
                                                      ¾þþþþþþþþþþþþþþþþþþþþþþþþþþþþþþþþþþþþþþþþþþþþþþþþþþþþþþþþþþþþþþþþþþþþþ»
00066D0 50E0 D000/9008_      00000 34394              GETFLOW  PROC  ,
 USING  *,R7
 USING  FWENTRY,R6                 34433                       USING FWENTRY,R6
 0066EA 1861                       34442                       LR    R6,R1
                                   34443
                                   34444                       COMMENT                   SET FLOW SET NUMBER
 0066EC 58F0 B780            00780 34445                       L     R15,CPRGFLOW
 0066F0 5800 B778            00778 34446                       L     R0,CP#XSET
 0066F4 58E0 713E/0DEE       06828 34447                       VCALL XSETSET
                                   34451
                                   34452                       COMMENT
 0066FA 58F0 B780            00780 34453                       L     R15,CPRGFLOW
 0066FE 4100 0010            00010 34454                       LA    R0,L'FWENTRY-L'FWNAME
 006702 4110 6010            00010 34455                       LA    R1,FWENTRY+L'FWNAME
 006706 4120 6000            00000 34456                       LA    R2,FWNAME
 00670A 58E0 7142/0DEE       0682C 34457                       VCALL XGET
                                   34461
 006710 18D8/9808 D004_            34462                       PEND  ,
 DROP   *,R7
 DROP   FWENTRY,R6                 34482                       DROP  R6
1FLOW     (FLOW2025) (12:45) (15MAR04) GET/SAVE Flow Control Entries, Information                                           Page  177
0Current Usings:  (CP,R11) (CV,R12)
0Loc    Object Code    Addr1 Addr2  Stmt Lv Lineno    Source Statement           (Hibal 5, Asmedit 3.3)  HLASM R4.0  2004/03/15 12.45
+___    ______ ____    _____ _____  ____ __ ______    ______ _________
0                                  34490              ¿þþþþþþþþþþþþþþþþþþþþþþþþþþþþþþþþþþþþþþþþþþþþþþþþþþþþþþþþþþþþþþþþþþþþþÜ
                                   34491              Ÿ                                                                     Ÿ
                                   34492              Ÿ                                                                     Ÿ
                                   34493              Ÿ  SAVEFLOW - SAVE FLOW INFORMATION                                   Ÿ
                                   34494              Ÿ                                                                     Ÿ
                                   34495              Ÿ  ON ENTRY:                                                          Ÿ
                                   34496              Ÿ       R1 - FLOW ENTRY                                               Ÿ
                                   34497              Ÿ       CP#XLOAD - FLOW SET NUMBER                                    Ÿ
                                   34498              Ÿ       CPRGFC   - FLOW RECORD GROUP INFO POINTER                     Ÿ
                                   34499              Ÿ                                                                     Ÿ
                                   34500              Ÿ  ON EXIT:                                                           Ÿ
                                   34501              Ÿ       ENTRY SAVED, R15 - CC=ZERO                                    Ÿ
                                   34502              Ÿ                                                                     Ÿ
                                   34503              Ÿ  NOTE, FLOW INFO IS SAVED ONLY DURING THE LOADING PHASE.            Ÿ
                                   34504              Ÿ     LOAD RECD GROUP, NOT CURRENT RECD GROUP POINTERS USED.          Ÿ
                                   34505              Ÿ                                                                     Ÿ
                                   34506              Ÿ                                                                     Ÿ
                                                      ¾þþþþþþþþþþþþþþþþþþþþþþþþþþþþþþþþþþþþþþþþþþþþþþþþþþþþþþþþþþþþþþþþþþþþþ»
000671E 50E0 D000/9008_      00000 34507              SAVEFLOW PROC  ,
 USING  *,R7
                                   34546
                                   34547                       COMMENT                   SET FLOW SET NUMBER
 006738 58F0 B78C            0078C 34548                       L     R15,CPRGFC
 00673C 5800 B784            00784 34549                       L     R0,CP#XLOAD
 006740 58E0 70F0/0DEE       06828 34550                       VCALL XSETSET
                                   34554
                                   34555                       COMMENT                   SAVE FLOW INFO
 006746 58F0 B78C            0078C 34556                       L     R15,CPRGFC
 00674A 4100 0010            00010 34557                       LA    R0,L'FWENTRY-L'FWNAME
 00674E 1821                       34558                       LR    R2,R1
 006750 4111 0010            00010 34559                       LA    R1,L'FWNAME(R1)
 006754 58E0 70F8/0DEE       06830 34560                       VCALL XPUT
 00675A 47B0 703E            06776 34564                       IF    NEG,BEGIN
 00675E 900F C780/4DE0_      00780 34575  1                      KAPUT FLOWFULL,'EXEC flow control information overflow. '
 006776                            34582                       END
 006776 47D0 7044            0677C 34586                       IF    POS,BEGIN
 00677A 0000                       34597  1                      BOMB
 00677C                            34599                       END
                                   34603
 00677C 18D8/9808 D004_            34604                       PEND  ,
 DROP   *,R7
1FLOW     (FLOW2025) (12:45) (15MAR04) GET/SAVE Flow Control Entries, Information                                           Page  178
0Current Usings:  (CP,R11) (CV,R12)
0Loc    Object Code    Addr1 Addr2  Stmt Lv Lineno    Source Statement           (Hibal 5, Asmedit 3.3)  HLASM R4.0  2004/03/15 12.45
+___    ______ ____    _____ _____  ____ __ ______    ______ _________
0                                  34625              ¿þþþþþþþþþþþþþþþþþþþþþþþþþþþþþþþþþþþþþþþþþþþþþþþþþþþþþþþþþþþþþþþþþþþþþÜ
                                   34626              Ÿ                                                                     Ÿ
                                   34627              Ÿ                                                                     Ÿ
                                   34628              Ÿ  GETFINFO - GET FLOW INFORMATION (UNFORMATED)                       Ÿ
                                   34629              Ÿ                                                                     Ÿ
                                   34630              Ÿ  ON ENTRY:                                                          Ÿ
                                   34631              Ÿ       R0 - LENGTH OF INFO AREA                                      Ÿ
                                   34632              Ÿ       R1 - LOCATION OF INFO AREA                                    Ÿ
                                   34633              Ÿ       R2 - 16 CHARACTER INFO NAME                                   Ÿ
                                   34634              Ÿ       R3 - FLOW SET #                                               Ÿ
                                   34635              Ÿ       R4 - FLOW RECORD GROUP INFORMATION DSECT ADDRESS              Ÿ
                                   34636              Ÿ                                                                     Ÿ
                                   34637              Ÿ  ON EXIT:                                                           Ÿ
                                   34638              Ÿ       R0 - LENGTH OF INFO RETURNED                                  Ÿ
                                   34639              Ÿ      @R1 - AREA CONTAINING INFO RETURNED                            Ÿ
                                   34640              Ÿ      R15 - CC=ZERO, ALL OK                                          Ÿ
                                   34641              Ÿ            CC=NZ, ENTRY NOT FOUND                                   Ÿ
                                   34642              Ÿ                                                                     Ÿ
                                   34643              Ÿ  NOTE: THIS ROUTINE IS USED TO GET UNFORMATTED FLOW INFO (IE.       Ÿ
                                   34644              Ÿ    NLISTS) AND AND INFO FROM NON-CURRENT SET NUMBERS, ETC.          Ÿ
                                   34645              Ÿ                                                                     Ÿ
                                   34646              Ÿ                                                                     Ÿ
                                                      ¾þþþþþþþþþþþþþþþþþþþþþþþþþþþþþþþþþþþþþþþþþþþþþþþþþþþþþþþþþþþþþþþþþþþþþ»
000678A 50E0 D000/9008_      00000 34647              GETFINFO PROC  ,
 USING  *,R7
 USING  FWENTRY,R6                 34686                       USING FWENTRY,R6
 0067A4 1850                       34695                       LR    R5,R0               ALL REGISTER/PARMS DESCRIBED ABOVE
                                   34696
                                   34697                       COMMENT                   SET FLOW SET NUMBER
 0067A6 18F4                       34698                       LR    R15,R4
 0067A8 1803                       34699                       LR    R0,R3
 0067AA 58E0 7084/0DEE       06828 34700                       VCALL XSETSET
                                   34704
                                   34705                       COMMENT                   GET SPECIFIED FLOW INFO
 0067B0 18F4                       34706                       LR    R15,R4
 0067B2 1805                       34707                       LR    R0,R5
 0067B4 58E0 7088/0DEE       0682C 34708                       VCALL XGET
                                   34712
 0067BA 18D8/9808 D004_            34713                       PEND  ,
 DROP   *,R7
 DROP   FWENTRY,R6                 34733                       DROP  R6
1FLOW     (FLOW2025) (12:45) (15MAR04) GET/SAVE Flow Control Entries, Information                                           Page  179
0Current Usings:  (CP,R11) (CV,R12)
0Loc    Object Code    Addr1 Addr2  Stmt Lv Lineno    Source Statement           (Hibal 5, Asmedit 3.3)  HLASM R4.0  2004/03/15 12.45
+___    ______ ____    _____ _____  ____ __ ______    ______ _________
0                                  34741              ¿þþþþþþþþþþþþþþþþþþþþþþþþþþþþþþþþþþþþþþþþþþþþþþþþþþþþþþþþþþþþþþþþþþþþþÜ
                                   34742              Ÿ                                                                     Ÿ
                                   34743              Ÿ                                                                     Ÿ
                                   34744              Ÿ  SAVFINFO - SAVE FLOW INFORMATION (UNFORMATTED)                     Ÿ
                                   34745              Ÿ                                                                     Ÿ
                                   34746              Ÿ  ON ENTRY:                                                          Ÿ
                                   34747              Ÿ       R0 - LENGTH OF INFO AREA                                      Ÿ
                                   34748              Ÿ       R1 - LOCATION OF INFO AREA                                    Ÿ
                                   34749              Ÿ       R2 - 16 CHARACTER INFO NAME                                   Ÿ
                                   34750              Ÿ       R3 - FLOW SET #                                               Ÿ
                                   34751              Ÿ       R4 - FLOW RECORD GROUP INFORMATION DSECT ADDRESS              Ÿ
                                   34752              Ÿ                                                                     Ÿ
                                   34753              Ÿ  ON EXIT:                                                           Ÿ
                                   34754              Ÿ      R15 - CC=ZERO, ALL OK                                          Ÿ
                                   34755              Ÿ                                                                     Ÿ
                                   34756              Ÿ                                                                     Ÿ
                                   34757              Ÿ  NOTE: THIS ROUTINE IS USED TO SAVE UNFORMATTED FLOW INFO (IE.      Ÿ
                                   34758              Ÿ    NLISTS) AND TO SAVE INFO INTO NON-CURRENT SET NUMBERS, ETC.      Ÿ
                                   34759              Ÿ                                                                     Ÿ
                                   34760              Ÿ                                                                     Ÿ
                                                      ¾þþþþþþþþþþþþþþþþþþþþþþþþþþþþþþþþþþþþþþþþþþþþþþþþþþþþþþþþþþþþþþþþþþþþþ»
00067C8 50E0 D000/9008_      00000 34761              SAVFINFO PROC  ,
 USING  *,R7
 USING  FWENTRY,R6                 34800                       USING FWENTRY,R6
 0067E2 1850                       34809                       LR    R5,R0               ALL REGISTER/PARMS DESCRIBED ABOVE
                                   34810
                                   34811                       COMMENT                   SET FLOW SET NUMBER
 0067E4 18F4                       34812                       LR    R15,R4
 0067E6 1803                       34813                       LR    R0,R3
 0067E8 58E0 7046/0DEE       06828 34814                       VCALL XSETSET
                                   34818
                                   34819                       COMMENT                   SAVE SPECIFIED FLOW INFO
 0067EE 18F4                       34820                       LR    R15,R4
 0067F0 1805                       34821                       LR    R0,R5
 0067F2 58E0 704E/0DEE       06830 34822                       VCALL XPUT
 0067F8 4780 7032            06814 34826                       IF    NZ,BEGIN
 0067FC 900F C780/4DE0_      00780 34837  1                      KAPUT FLOWFULL,'Exec Flow Control info overflow. '
 006814                            34844                       END
                                   34848
 006814 18D8/9808 D004_            34849                       PEND  ,
 DROP   *,R7
 DROP   FWENTRY,R6                 34869                       DROP  R6
1FLOW     (FLOW2025) (12:45) (15MAR04) GET/SAVE Flow Control Entries, Information                                           Page  180
0Current Usings:  (CP,R11) (CV,R12)
0Loc    Object Code    Addr1 Addr2  Stmt Lv Lineno    Source Statement           (Hibal 5, Asmedit 3.3)  HLASM R4.0  2004/03/15 12.45
+___    ______ ____    _____ _____  ____ __ ______    ______ _________
0                                  34877                       QLTORG
1FLOW     (FLOW2025) (12:45) (15MAR04) GET/SAVE Flow Control Entries, Information                                           Page  181
0Current Usings:  (CP,R11) (CV,R12)
0Loc    Object Code    Addr1 Addr2  Stmt Lv Lineno    Source Statement           (Hibal 5, Asmedit 3.3)  HLASM R4.0  2004/03/15 12.45
+___    ______ ____    _____ _____  ____ __ ______    ______ _________
0                                  34893              ¿þþþþþþþþþþþþþþþþþþþþþþþþþþþþþþþþþþþþþþþþþþþþþþþþþþþþþþþþþþþþþþþþþþþþþÜ
                                   34894              Ÿ                                                                     Ÿ
                                   34895              Ÿ                                                                     Ÿ
                                   34896              Ÿ  GTXSCOPE - GET SCOPE OF XPROC                                      Ÿ
                                   34897              Ÿ                                                                     Ÿ
                                   34898              Ÿ  ON ENTRY:                                                          Ÿ
                                   34899              Ÿ       R0 - XPROC SET NUMBER                                         Ÿ
                                   34900              Ÿ       R1 - FLOW RECORD GROUP POINTER ADDRESS                        Ÿ
                                   34901              Ÿ                                                                     Ÿ
                                   34902              Ÿ  ON EXIT:                                                           Ÿ
                                   34903              Ÿ       R0 - START OF SCOPE (LINE CONTAINING XPROC STATEMENT)         Ÿ
                                   34904              Ÿ       R1 - END OF SCOPE                                             Ÿ
                                   34905              Ÿ                                                                     Ÿ
                                   34906              Ÿ  NOTE: EXEC MUST EXIST AND BE LOADED, OTHERWISE WE BOMB !           Ÿ
                                   34907              Ÿ  NOTE2: WE USE ACKWARD FORM OF GET FLOW INFO, 'GETFINFO'.           Ÿ
                                   34908              Ÿ    THIS IS NECESSARY AS WE ARE NOT NECESSARILY GETTING              Ÿ
                                   34909              Ÿ    SCOPE INFO ABOUT THE CURRENT EXEC.                               Ÿ
                                   34910              Ÿ                                                                     Ÿ
                                   34911              Ÿ                                                                     Ÿ
                                                      ¾þþþþþþþþþþþþþþþþþþþþþþþþþþþþþþþþþþþþþþþþþþþþþþþþþþþþþþþþþþþþþþþþþþþþþ»
0000000                00000 00020 34912              GTXSWA   RECORD BEGIN
 000000                            34920  1           GTXSFLOW   DS    XL(L'FWENTRY)       XPROC FLOW INFORMATION ENTRY
 000020                00020 00020 34921                       END
                                   34930              *
                                   34931              *
 006834 50E0 D000/9008_      00000 34932              GTXSCOPE XPROC GTXSWA
 USING  *,R7
 USING  GTXSWA-(4+36),R8
 USING  FWENTRY,R6                 34983                       USING FWENTRY,R6
 00684E 4160 8028            00000 34992                       LA    R6,GTXSFLOW
 006852 1830                       34993                       LR    R3,R0
 006854 1841                       34994                       LR    R4,R1
                                   34995
 006856 D20F 6000 C4D8 00000 004D8 34996                       MVC   FWNAME,CVBLANKS
 00685C D20F 6000 731A 00000 06B68 34997                       MVC   FWNAME,=CL16'XPROC           '
 006862 4100 0010            00010 34998                       LA    R0,L'FWENTRY-L'FWNAME
 006866 4110 6010            00010 34999                       LA    R1,FWENTRY+L'FWNAME
 00686A 4120 6000            00000 35000                       LA    R2,FWNAME
                                   35001                       COMMENT R3 - XPROC SET#
                                   35002                       COMMENT R4 - FLOW RG POINTER
 00686E 58E0 7382/0DEE       06BD0 35003                       ACALL GETFINFO            GET XPROC FLOW INFO ENTRY
 006874 4780 702C            0687A 35007                       IF    NZ,BEGIN
 006878 0000                       35018  1                      BOMB
 00687A                            35020                       END
                                   35024
                                   35025                       COMMENT                   RETURN SCOPE START, END
 00687A 5800 6014            00014 35026                       L     R0,FWSCOPE
 00687E 5810 6018            00018 35027                       L     R1,FWSCOPND
                                   35028
 006882 1BFF                       35029                       CLEAR R15
 006884 9001 8004            00004 35033                       PRETURN (R0,R1)
 006888 18D8/9808 D004_            35035                       PEND  ,
 DROP   GTXSWA-(4+36),R8
1FLOW     (FLOW2025) (12:45) (15MAR04) GET/SAVE Flow Control Entries, Information                                           Page  182
0Current Usings:  (FWENTRY,R6) (CP,R11) (CV,R12)
0Loc    Object Code    Addr1 Addr2  Stmt Lv Lineno    Source Statement           (Hibal 5, Asmedit 3.3)  HLASM R4.0  2004/03/15 12.45
+___    ______ ____    _____ _____  ____ __ ______    ______ _________
0DROP   *,R7
 DROP   FWENTRY,R6                 35060                       DROP  R6
1FLOW     (FLOW2025) (12:45) (15MAR04) GET/SAVE Flow Control Entries, Information                                           Page  183
0Current Usings:  (CP,R11) (CV,R12)
0Loc    Object Code    Addr1 Addr2  Stmt Lv Lineno    Source Statement           (Hibal 5, Asmedit 3.3)  HLASM R4.0  2004/03/15 12.45
+___    ______ ____    _____ _____  ____ __ ______    ______ _________
0                                  35068              ¿þþþþþþþþþþþþþþþþþþþþþþþþþþþþþþþþþþþþþþþþþþþþþþþþþþþþþþþþþþþþþþþþþþþþþÜ
                                   35069              Ÿ                                                                     Ÿ
                                   35070              Ÿ                                                                     Ÿ
                                   35071              Ÿ  GTPSCOPE - GET SCOPE OF PROCEDURE                                  Ÿ
                                   35072              Ÿ                                                                     Ÿ
                                   35073              Ÿ  ON ENTRY:                                                          Ÿ
                                   35074              Ÿ       R1 - PROCEDURE NAME                                           Ÿ
                                   35075              Ÿ       CP#XSET - SET NUMBER                                          Ÿ
                                   35076              Ÿ       CPRGFLOW - FLOW RECORD GROUP                                  Ÿ
                                   35077              Ÿ                                                                     Ÿ
                                   35078              Ÿ  ON EXIT:                                                           Ÿ
                                   35079              Ÿ       R0 - START OF SCOPE (LINE CONTAINING XPROC STATEMENT)         Ÿ
                                   35080              Ÿ       R1 - END OF SCOPE                                             Ÿ
                                   35081              Ÿ                                                                     Ÿ
                                   35082              Ÿ                                                                     Ÿ
                                                      ¾þþþþþþþþþþþþþþþþþþþþþþþþþþþþþþþþþþþþþþþþþþþþþþþþþþþþþþþþþþþþþþþþþþþþþ»
0000000                00000 00020 35083              GTPSWA   RECORD BEGIN
 000000                            35091  1           GTPSFLOW   DS    XL(L'FWENTRY)       XPROC FLOW INFORMATION ENTRY
 000020                00020 00020 35092                       END
                                   35101              *
                                   35102              *
 006896 50E0 D000/9008_      00000 35103              GTPSCOPE XPROC GTPSWA
 USING  *,R7
 USING  GTPSWA-(4+36),R8
 USING  FWENTRY,R6                 35154                       USING FWENTRY,R6
 0068B0 4160 8028            00000 35163                       LA    R6,GTPSFLOW
                                   35164
 0068B4 D20F 6000 1000 00000 00000 35165                       MVC   FWNAME,0(R1)
 0068BA 4110 6000            00000 35166                       LA    R1,FWENTRY
 0068BE 58E0 7324/0DEE       06BD4 35167                       ACALL GETFLOW             GET PROCEURE FLOW INFO ENTRY
 0068C4 4780 701A            068CA 35171                       IF    NZ,BEGIN
 0068C8 0000                       35182  1                      BOMB
 0068CA                            35184                       END
                                   35188
                                   35189                       COMMENT                   RETURN SCOPE START, END
 0068CA 5800 6014            00014 35190                       L     R0,FWSCOPE
 0068CE 5810 6018            00018 35191                       L     R1,FWSCOPND
                                   35192
 0068D2 1BFF                       35193                       CLEAR R15
 0068D4 9001 8004            00004 35197                       PRETURN (R0,R1)
 0068D8 18D8/9808 D004_            35199                       PEND  ,
 DROP   GTPSWA-(4+36),R8
 DROP   *,R7
 DROP   FWENTRY,R6                 35224                       DROP  R6
1FLOW     (FLOW2025) (12:45) (15MAR04) GET/SAVE Flow Control Entries, Information                                           Page  184
0Current Usings:  (CP,R11) (CV,R12)
0Loc    Object Code    Addr1 Addr2  Stmt Lv Lineno    Source Statement           (Hibal 5, Asmedit 3.3)  HLASM R4.0  2004/03/15 12.45
+___    ______ ____    _____ _____  ____ __ ______    ______ _________
0                                  35232              ¿þþþþþþþþþþþþþþþþþþþþþþþþþþþþþþþþþþþþþþþþþþþþþþþþþþþþþþþþþþþþþþþþþþþþþÜ
                                   35233              Ÿ                                                                     Ÿ
                                   35234              Ÿ                                                                     Ÿ
                                   35235              Ÿ  GTXNLIST - GET XPROC NAME LIST                                     Ÿ
                                   35236              Ÿ                                                                     Ÿ
                                   35237              Ÿ  ON ENTRY:                                                          Ÿ
                                   35238              Ÿ       R0 - EXEC SET NUMBER                                          Ÿ
                                   35239              Ÿ      @R1 - FLOW RECORD GROUP INFO BLOCK                             Ÿ
                                   35240              Ÿ      @R2 - NAME LIST AREA                                           Ÿ
                                   35241              Ÿ                                                                     Ÿ
                                   35242              Ÿ  ON EXIT:                                                           Ÿ
                                   35243              Ÿ      @R2 - XPROC NAME LIST                                          Ÿ
                                   35244              Ÿ      R15 - CC=ZERO                                                  Ÿ
                                   35245              Ÿ            ANY INVALID REQUESTS BOMB !                              Ÿ
                                   35246              Ÿ                                                                     Ÿ
                                   35247              Ÿ                                                                     Ÿ
                                                      ¾þþþþþþþþþþþþþþþþþþþþþþþþþþþþþþþþþþþþþþþþþþþþþþþþþþþþþþþþþþþþþþþþþþþþþ»
0000000                00000 00020 35248              GTXNWA   RECORD BEGIN
 000000                            35256  1           GTXNFLOW   DS    XL(L'FWENTRY)
 000020                00020 00020 35257                       END
                                   35266              *
                                   35267              *
 0068E6 50E0 D000/9008_      00000 35268              GTXNLIST XPROC GTXNWA
 USING  *,R7
 USING  GTXNWA-(4+36),R8
                                   35319
                                   35320                       COMMENT                   GET XPROC NAME LIST
 006900 1841                       35321                       LR    R4,R1               (SEE GETFINFO CONVENTIONS)
 006902 1830                       35322                       LR    R3,R0
 006904 4100 0100            00100 35323                       LA    R0,L'NLIST
 006908 1812                       35324                       LR    R1,R2
 00690A 4120 7278            06B78 35325                       LA    R2,=CL16'XPROC_NLIST     '
 00690E 58E0 72D0/0DEE       06BD0 35326                       ACALL GETFINFO            GET XPROC NAME LIST
 006914 4780 701A            0691A 35330                       IF    NZ,BEGIN
 006918 0000                       35341  1                      BOMB
 00691A                            35343                       END
                                   35347
 00691A 1BFF                       35348                       CLEAR R15
 00691C 18D8/9808 D004_            35352                       PEND  ,
 DROP   GTXNWA-(4+36),R8
 DROP   *,R7
1FLOW     (FLOW2025) (12:45) (15MAR04) GET/SAVE Flow Control Entries, Information                                           Page  185
0Current Usings:  (CP,R11) (CV,R12)
0Loc    Object Code    Addr1 Addr2  Stmt Lv Lineno    Source Statement           (Hibal 5, Asmedit 3.3)  HLASM R4.0  2004/03/15 12.45
+___    ______ ____    _____ _____  ____ __ ______    ______ _________
0                                  35378              ¿þþþþþþþþþþþþþþþþþþþþþþþþþþþþþþþþþþþþþþþþþþþþþþþþþþþþþþþþþþþþþþþþþþþþþÜ
                                   35379              Ÿ                                                                     Ÿ
                                   35380              Ÿ                                                                     Ÿ
                                   35381              Ÿ  GTPNLIST - GET XPROC NAME LIST                                     Ÿ
                                   35382              Ÿ                                                                     Ÿ
                                   35383              Ÿ  ON ENTRY:                                                          Ÿ
                                   35384              Ÿ      @R1 - PROCEDURE NAME                                           Ÿ
                                   35385              Ÿ      @R2 - NAME LIST AREA                                           Ÿ
                                   35386              Ÿ       CP#XSET - EXEC SET NUMBER                                     Ÿ
                                   35387              Ÿ       CPRGFLOW - FLOW RECORD GROUP INFO BLOCK                       Ÿ
                                   35388              Ÿ                                                                     Ÿ
                                   35389              Ÿ  ON EXIT:                                                           Ÿ
                                   35390              Ÿ      @R2 - PROC NAME LIST                                           Ÿ
                                   35391              Ÿ      R15 - CC=ZERO                                                  Ÿ
                                   35392              Ÿ            ANY INVALID REQUESTS BOMB !                              Ÿ
                                   35393              Ÿ                                                                     Ÿ
                                   35394              Ÿ                                                                     Ÿ
                                                      ¾þþþþþþþþþþþþþþþþþþþþþþþþþþþþþþþþþþþþþþþþþþþþþþþþþþþþþþþþþþþþþþþþþþþþþ»
0000000                00000 00020 35395              GTPNWA   RECORD BEGIN
 000000                            35403  1           GTPNFLOW   DS    XL(L'FWENTRY)
 000020                00020 00020 35404                       END
                                   35413              *
                                   35414              *
 00692A 50E0 D000/9008_      00000 35415              GTPNLIST XPROC GTPNWA
 USING  *,R7
 USING  GTPNWA-(4+36),R8
 USING  FWENTRY,R6                 35466                       USING FWENTRY,R6
 006944 4160 8028            00000 35475                       LA    R6,GTPNFLOW
                                   35476
                                   35477                       COMMENT                   GET PROC LINENO
 006948 58E0 7294/0DEE       06BD8 35478                       ACALL GTPSCOPE
                                   35482                       COMMENT                   RETURNS R0 - PROC LINENO
                                   35483
                                   35484                       COMMENT                   CREATE NLIST NAME
 00694E D20F 6000 7244 00000 06B88 35485                       MVC   FWNAME,=CL16'....PROC_NLIST  '
 006954 5000 6000            00000 35486                       ST    R0,FWNAME
                                   35487
                                   35488                       COMMENT                   GET XPROC NAME LIST
 006958 5840 B780            00780 35489                       L     R4,CPRGFLOW         (SEE GETFINFO CONVENTIONS)
 00695C 5830 B778            00778 35490                       L     R3,CP#XSET
 006960 4100 0100            00100 35491                       LA    R0,L'NLIST
 006964 1812                       35492                       LR    R1,R2
 006966 4120 6000            00000 35493                       LA    R2,FWNAME
 00696A 58E0 728C/0DEE       06BD0 35494                       ACALL GETFINFO            GET XPROC NAME LIST
 006970 4780 7032            06976 35498                       IF    NZ,BEGIN
 006974 0000                       35509  1                      BOMB
 006976                            35511                       END
                                   35515
 006976 1BFF                       35516                       CLEAR R15
 006978 18D8/9808 D004_            35520                       PEND  ,
 DROP   GTPNWA-(4+36),R8
 DROP   *,R7
 DROP   FWENTRY,R6                 35545                       DROP  R6
1FLOW     (FLOW2025) (12:45) (15MAR04) GET/SAVE Flow Control Entries, Information                                           Page  186
0Current Usings:  (CP,R11) (CV,R12)
0Loc    Object Code    Addr1 Addr2  Stmt Lv Lineno    Source Statement           (Hibal 5, Asmedit 3.3)  HLASM R4.0  2004/03/15 12.45
+___    ______ ____    _____ _____  ____ __ ______    ______ _________
0                                  35553              ¿þþþþþþþþþþþþþþþþþþþþþþþþþþþþþþþþþþþþþþþþþþþþþþþþþþþþþþþþþþþþþþþþþþþþþÜ
                                   35554              Ÿ                                                                     Ÿ
                                   35555              Ÿ                                                                     Ÿ
                                   35556              Ÿ  DELFLOW - DELETE FLOW INFO                                         Ÿ
                                   35557              Ÿ                                                                     Ÿ
                                   35558              Ÿ  ON ENTRY:                                                          Ÿ
                                   35559              Ÿ      R0 - FLOW SET NUMBER                                           Ÿ
                                   35560              Ÿ      R1 - FLOW RECORD GROUP INFO                                    Ÿ
                                   35561              Ÿ                                                                     Ÿ
                                   35562              Ÿ  ON EXIT:                                                           Ÿ
                                   35563              Ÿ      R15 - CC=ZERO                                                  Ÿ
                                   35564              Ÿ                                                                     Ÿ
                                   35565              Ÿ                                                                     Ÿ
                                                      ¾þþþþþþþþþþþþþþþþþþþþþþþþþþþþþþþþþþþþþþþþþþþþþþþþþþþþþþþþþþþþþþþþþþþþþ»
0006986 50E0 D000/9008_      00000 35566              DELFLOW  XPROC ,
 USING  *,R7
 0069A0 18F1                       35606                       LR    R15,R1
 0069A2 1800                       35607                       LR    R0,R0
 0069A4 58E0 723C/0DEE       06BDC 35608                       VCALL XDELSET
 0069AA 1BFF                       35612                       CLEAR R15
 0069AC 18D8/9808 D004_            35616                       PEND  ,
 DROP   *,R7
1FLOW     (FLOW2025) (12:45) (15MAR04) FLOW ERROR ROUTINES                                                                  Page  187
0Current Usings:  (CP,R11) (CV,R12)
0Loc    Object Code    Addr1 Addr2  Stmt Lv Lineno    Source Statement           (Hibal 5, Asmedit 3.3)  HLASM R4.0  2004/03/15 12.45
+___    ______ ____    _____ _____  ____ __ ______    ______ _________
0                                  35638              ¿þþþþþþþþþþþþþþþþþþþþþþþþþþþþþþþþþþþþþþþþþþþþþþþþþþþþþþþþþþþþþþþþþþþþþÜ
                                   35639              Ÿ                                                                     Ÿ
                                   35640              Ÿ                                                                     Ÿ
                                   35641              Ÿ  FCERROR - FLOW CONTROL ERROR PROCESSING                            Ÿ
                                   35642              Ÿ                                                                     Ÿ
                                   35643              Ÿ  ON ENTRY:                                                          Ÿ
                                   35644              Ÿ       R0 - ERROR MSG LENGTH                                         Ÿ
                                   35645              Ÿ       R1 - ERROR MSG LOCATION                                       Ÿ
                                   35646              Ÿ     @R15 - LINE NUMBER (ZERO IF NONE)                               Ÿ
                                   35647              Ÿ                                                                     Ÿ
                                   35648              Ÿ  ON EXIT:                                                           Ÿ
                                   35649              Ÿ       WE PRINT ERROR MESSAGES AND CALL LDABORT ROUTINE              Ÿ
                                   35650              Ÿ       WHICH EXITS VIA CVERROR.                                      Ÿ
                                   35651              Ÿ                                                                     Ÿ
                                   35652              Ÿ                                                                     Ÿ
                                   35653              Ÿ                                                                     Ÿ
                                                      ¾þþþþþþþþþþþþþþþþþþþþþþþþþþþþþþþþþþþþþþþþþþþþþþþþþþþþþþþþþþþþþþþþþþþþþ»
00069BA 50E0 D000/9008_      00000 35654              FCERROR  PROC  ,
 USING  *,R7
 0069D4 182F                       35693                       LR    R2,R15              @R2 - LINE NUMBER
                                   35694
                                   35695                       COMMENT                   SEG ERROR MESSAGE
 0069D6 41F0 B050/58E0_      00050 35696                       TSEG  (R1),(R0),CR
                                   35720
                                   35721                       COMMENT                   SEG ERROR LINE NUMBER
 0069E0 1222/4780 704C             35722                       IF    (R2,NZ),BEGIN       IF LINE NUMBER SPECIFIED
 0069E6 4110 7248/4100_      06C1C 35736  1                      TSEG  'Error in line '       ERROR IN LINE ...
 0069F8 5800 B784            00784 35754  1                      L     R0,CP#XLOAD
 0069FC 5810 B788            00788 35755  1                      L     R1,CPRGLOAD
                                   35756  1                      COMMENT @R2-LINENO
 006A00 58E0 7214/0DEE       06BE8 35757  1                      VCALL SEGXLNO
 006A06 1B00/41F0 B050_            35761  1                      TCR
 006A12 5800 B784            00784 35786  1                      L     R0,CP#XLOAD         SEG ERROR LINE
 006A16 5810 B788            00788 35787  1                      L     R1,CPRGLOAD
                                   35788  1                      COMMENT @R2-LINENO
 006A1A 58E0 7218/0DEE       06BEC 35789  1                      VCALL SEGXLINE
 006A20                            35793                       END
                                   35797
                                   35798                       COMMENT                   ABORT XLOAD
 006A20 58E0 721C/0DEE       06BF0 35799                       VCALL LDABORT             DELETES EXEC/FLOW LINES
 006A26 0000                       35803                       BOMB                        AND EXITS VIA CVERROR !@!!
                                   35805
 006A28 0000                       35806                       BOMB                      NOT USED
 006A2A 18D8/9808 D004_            35808                       PEND  ,              NOT USED
 DROP   *,R7
1FLOW     (FLOW2025) (12:45) (15MAR04) FLOW ERROR ROUTINES                                                                  Page  188
0Current Usings:  (CP,R11) (CV,R12)
0Loc    Object Code    Addr1 Addr2  Stmt Lv Lineno    Source Statement           (Hibal 5, Asmedit 3.3)  HLASM R4.0  2004/03/15 12.45
+___    ______ ____    _____ _____  ____ __ ______    ______ _________
0                                  35829              ¿þþþþþþþþþþþþþþþþþþþþþþþþþþþþþþþþþþþþþþþþþþþþþþþþþþþþþþþþþþþþþþþþþþþþþÜ
                                   35830              Ÿ                                                                     Ÿ
                                   35831              Ÿ                                                                     Ÿ
                                   35832              Ÿ  NOPAREN - Missing closing parenthesis                              Ÿ
                                   35833              Ÿ                                                                     Ÿ
                                   35834              Ÿ  ON ENTRY:                                                          Ÿ
                                   35835              Ÿ       R1,R0 - TEXT LOC,LEN WHERE ")" IS EXPECTED                    Ÿ
                                   35836              Ÿ                                                                     Ÿ
                                   35837              Ÿ                                                                     Ÿ
                                                      ¾þþþþþþþþþþþþþþþþþþþþþþþþþþþþþþþþþþþþþþþþþþþþþþþþþþþþþþþþþþþþþþþþþþþþþ»
0006A38 50E0 D000/9008_      00000 35838              NOPAREN  PROC  ,
 USING  *,R7
 006A52 9001 D000/41D0_      00000 35877                       XPUSH R0,R1
 006A5A 4110 7146/4100_      06B98 35880                       TSEG  'Expecting ")".  '
 006A6C 4BD0 71D8/9801_      06C2A 35898                       XPOP  R0,R1
 006A74 58E0 71A2/0DEE       06BF4 35901                       VCALL CHECKEND
 006A7A 4770 C7D6            007D6 35905                       BNZ   CVERROR
 006A7E 4110 71A6/4100_      06BF8 35906                       ERROR 'Unmatched parenthesis in expression.'
 006A8A 0000                       35913                       BOMB  ,                   ERROR DOES NOT RETURN
 006A8C 18D8/9808 D004_            35915                       PEND  ,              NEVER EXECUTED
 DROP   *,R7
1FLOW     (FLOW2025) (12:45) (15MAR04) FLOW ERROR ROUTINES                                                                  Page  189
0Current Usings:  (CP,R11) (CV,R12)
0Loc    Object Code    Addr1 Addr2  Stmt Lv Lineno    Source Statement           (Hibal 5, Asmedit 3.3)  HLASM R4.0  2004/03/15 12.45
+___    ______ ____    _____ _____  ____ __ ______    ______ _________
0                                  35936              ¿þþþþþþþþþþþþþþþþþþþþþþþþþþþþþþþþþþþþþþþþþþþþþþþþþþþþþþþþþþþþþþþþþþþþþÜ
                                   35937              Ÿ                                                                     Ÿ
                                   35938              Ÿ                                                                     Ÿ
                                   35939              Ÿ  NOTBOOL - invalid boolean expression                               Ÿ
                                   35940              Ÿ                                                                     Ÿ
                                   35941              Ÿ                                                                     Ÿ
                                                      ¾þþþþþþþþþþþþþþþþþþþþþþþþþþþþþþþþþþþþþþþþþþþþþþþþþþþþþþþþþþþþþþþþþþþþþ»
0006A9A 50E0 D000/9008_      00000 35942              NOTBOOL  PROC  ,
 USING  *,R7
 006AB4 4110 70F4/4100_      06BA8 35981                       TSEG  'Expression does not evaluate to boolean '
 006AC6 4110 7178/4100_      06C2C 35999                       TSEG  '(i.e. true or false). '
 006AD8 47F0 C7D6            007D6 36017                       B     CVERROR             DOES NOT RETURN
 006ADC 0000                       36018                       BOMB
 006ADE 18D8/9808 D004_            36020                       PEND  ,              NEVER EXECUTED
 DROP   *,R7
1FLOW     (FLOW2025) (12:45) (15MAR04) FLOW ERROR ROUTINES                                                                  Page  190
0Current Usings:  (CP,R11) (CV,R12)
0Loc    Object Code    Addr1 Addr2  Stmt Lv Lineno    Source Statement           (Hibal 5, Asmedit 3.3)  HLASM R4.0  2004/03/15 12.45
+___    ______ ____    _____ _____  ____ __ ______    ______ _________
0                                  36041                       ¿þþþþþþþþþþþþþþþþþþþþþþþÜ
                                   36042                       Ÿ  LEFT TO WRITE !@!!!  Ÿ
                                   36043                       ¾þþþþþþþþþþþþþþþþþþþþþþþ»
 006AEC 50E0 D000/9008_      00000 36044              FCSIMPLE PROC  ,
 USING  *,R7
 006B06 18D8/9808 D004_            36083                       PEND  ,
 DROP   *,R7
 006B14 50E0 D000/9008_      00000 36103              FCDO     PROC  ,
 USING  *,R7
 006B2E 18D8/9808 D004_            36142                       PEND  ,
 DROP   *,R7
 006B3C 50E0 D000/9008_      00000 36162              FCBEGIN  PROC  ,
 USING  *,R7
 006B56 18D8/9808 D004_            36201                       PEND  ,
 DROP   *,R7
1FLOW     (FLOW2025) (12:45) (15MAR04) FLOW ERROR ROUTINES                                                                  Page  191
0Current Usings:  (CP,R11) (CV,R12)
0Loc    Object Code    Addr1 Addr2  Stmt Lv Lineno    Source Statement           (Hibal 5, Asmedit 3.3)  HLASM R4.0  2004/03/15 12.45
+___    ______ ____    _____ _____  ____ __ ______    ______ _________
0                                  36222                       QLTORG
                                   36253                       VLTORG
 006C90                06C90 06C90 36263                       END   .

1FLOW     (FLOW2025) (12:45) (15MAR04) Relocation Dictionary                                                                Page  192
-   Pos.Id   Rel.Id   Flags    Address                                                       HLASM R4.0  2004/03/15 12.45
0  00000001 00000001    0C    00000A94
   00000001 00000001    0C    00000A98
   00000001 00000001    0C    00000A9C
   00000001 00000001    0C    00000AB0
   00000001 00000001    0C    00000AC4
   00000001 00000001    0C    00001220
   00000001 00000001    0C    00001234
   00000001 00000001    0C    00001240
   00000001 00000001    0C    00001248
   00000001 00000001    0C    0000124C
   00000001 00000001    0C    00001584
   00000001 00000001    0C    000015AC
   00000001 00000001    0C    000015D4
   00000001 00000001    0C    000015FC
   00000001 00000001    0C    00001624
   00000001 00000001    0C    0000164C
   00000001 00000001    0C    00001674
   00000001 00000001    0C    0000169C
   00000001 00000001    0C    000016C4
   00000001 00000001    0C    000016EC
   00000001 00000001    0C    00001714
   00000001 00000001    0C    0000173C
   00000001 00000001    0C    00001764
   00000001 00000001    0C    0000178C
   00000001 00000001    0C    000017B4
   00000001 00000001    0C    000017DC
   00000001 00000001    0C    00001EAC
   00000001 00000001    0C    00001EB0
   00000001 00000001    0C    00001EB8
   00000001 00000001    0C    00001EC8
   00000001 00000001    0C    00001ED4
   00000001 00000001    0C    00001ED8
   00000001 00000001    0C    0000271C
   00000001 00000001    0C    00002720
   00000001 00000001    0C    00002724
   00000001 00000001    0C    00002728
   00000001 00000001    0C    0000272C
   00000001 00000001    0C    00002730
   00000001 00000001    0C    00002734
   00000001 00000001    0C    00002738
   00000001 00000001    0C    0000273C
   00000001 00000001    0C    00002740
   00000001 00000001    0C    00002744
   00000001 00000001    0C    00002748
   00000001 00000001    0C    0000274C
   00000001 00000001    0C    00002750
   00000001 00000001    0C    00002754
   00000001 00000001    0C    00002758
   00000001 00000001    0C    0000275C
   00000001 00000001    0C    00002760
   00000001 00000001    0C    00002764
   00000001 00000001    0C    00002840
   00000001 00000001    0C    00002868
   00000001 00000001    0C    00002890
   00000001 00000001    0C    000028B8
1FLOW     (FLOW2025) (12:45) (15MAR04) Relocation Dictionary                                                                Page  193
   00000001 00000001    0C    000028E0
   00000001 00000001    0C    00002908
   00000001 00000001    0C    00002930
   00000001 00000001    0C    00002958
   00000001 00000001    0C    00002980
   00000001 00000001    0C    000029A8
   00000001 00000001    0C    000029D0
   00000001 00000001    0C    00002F60
   00000001 00000001    0C    00002F74
   00000001 00000001    0C    00002F78
   00000001 00000001    0C    00002F80
   00000001 00000001    0C    000037BC
   00000001 00000001    0C    000037C0
   00000001 00000001    0C    000037C4
   00000001 00000001    0C    000037C8
   00000001 00000001    0C    000037CC
   00000001 00000001    0C    000037D0
   00000001 00000001    0C    000037D4
   00000001 00000001    0C    000037E4
   00000001 00000001    0C    000037E8
   00000001 00000001    0C    000037EC
   00000001 00000001    0C    000037F0
   00000001 00000001    0C    000037F4
   00000001 00000001    0C    000037FC
   00000001 00000001    0C    00003800
   00000001 00000001    0C    00003804
   00000001 00000001    0C    00003808
   00000001 00000001    0C    00003F50
   00000001 00000001    0C    00003F54
   00000001 00000001    0C    00003F58
   00000001 00000001    0C    00003F5C
   00000001 00000001    0C    00003F60
   00000001 00000001    0C    00003F64
   00000001 00000001    0C    00003F68
   00000001 00000001    0C    00003F6C
   00000001 00000001    0C    00003F70
   00000001 00000001    0C    00003F74
   00000001 00000001    0C    00003F78
   00000001 00000001    0C    00003F80
   00000001 00000001    0C    00003F84
   00000001 00000001    0C    00003F88
   00000001 00000001    0C    000044D0
   00000001 00000001    0C    000044F8
   00000001 00000001    0C    00004520
   00000001 00000001    0C    00004548
   00000001 00000001    0C    00004570
   00000001 00000001    0C    00004598
   00000001 00000001    0C    000045C0
   00000001 00000001    0C    000045E8
   00000001 00000001    0C    00004610
   00000001 00000001    0C    00004638
   00000001 00000001    0C    00004660
   00000001 00000001    0C    00004688
   00000001 00000001    0C    000046B0
   00000001 00000001    0C    000046D8
   00000001 00000001    0C    00004700
   00000001 00000001    0C    00004728
   00000001 00000001    0C    00004B68
   00000001 00000001    0C    00004B6C
1FLOW     (FLOW2025) (12:45) (15MAR04) Relocation Dictionary                                                                Page  194
   00000001 00000001    0C    00004B70
   00000001 00000001    0C    00004B74
   00000001 00000001    0C    00004B78
   00000001 00000001    0C    00004B7C
   00000001 00000001    0C    00004B80
   00000001 00000001    0C    00004B84
   00000001 00000001    0C    00004B88
   00000001 00000001    0C    00004B8C
   00000001 00000001    0C    00004B90
   00000001 00000001    0C    00004B94
   00000001 00000001    0C    00004B9C
   00000001 00000001    0C    00004BA0
   00000001 00000001    0C    00004BA4
   00000001 00000001    0C    00004BB0
   00000001 00000001    0C    00004BB4
   00000001 00000001    0C    00004BC4
   00000001 00000001    0C    00004BCC
   00000001 00000001    0C    00004BD4
   00000001 00000001    0C    00004BDC
   00000001 00000001    0C    00004BE4
   00000001 00000001    0C    00004BEC
   00000001 00000001    0C    00004BF0
   00000001 00000001    0C    00005340
   00000001 00000001    0C    00005344
   00000001 00000001    0C    00005348
   00000001 00000001    0C    0000534C
   00000001 00000001    0C    00005350
   00000001 00000001    0C    0000535C
   00000001 00000001    0C    00005CB8
   00000001 00000001    0C    00005CBC
   00000001 00000001    0C    00005CC0
   00000001 00000001    0C    00005CCC
   00000001 00000001    0C    00005CD0
   00000001 00000001    0C    00005CD8
   00000001 00000001    0C    00005CDC
   00000001 00000001    0C    00005D00
   00000001 00000001    0C    00005D04
   00000001 00000001    0C    00005D08
   00000001 00000001    0C    00005EDC
   00000001 00000001    0C    00005F04
   00000001 00000001    0C    00005F2C
   00000001 00000001    0C    00005F54
   00000001 00000001    0C    00005F7C
   00000001 00000001    0C    00005FA4
   00000001 00000001    0C    00005FCC
   00000001 00000001    0C    00005FF4
   00000001 00000001    0C    0000601C
   00000001 00000001    0C    00006044
   00000001 00000001    0C    0000606C
   00000001 00000001    0C    00006094
   00000001 00000001    0C    000060BC
   00000001 00000001    0C    000060E4
   00000001 00000001    0C    0000610C
   00000001 00000001    0C    00006134
   00000001 00000001    0C    000064B0
   00000001 00000001    0C    000064BC
   00000001 00000001    0C    000064C0
   00000001 00000001    0C    000066C0
   00000001 00000001    08    00006773
1FLOW     (FLOW2025) (12:45) (15MAR04) Relocation Dictionary                                                                Page  195
   00000001 00000001    08    00006811
   00000001 00000001    0C    00006BD0
   00000001 00000001    0C    00006BD4
   00000001 00000001    0C    00006BD8
   00000001 00000002    1C    00000A90
   00000001 00000002    1C    000011E0
   00000001 00000002    1C    00001ECC
   00000001 00000002    1C    00004C04
   00000001 00000002    1C    00005CEC
   00000001 00000002    1C    000064C8
   00000001 00000002    1C    00006BE0
   00000001 00000003    1C    00000AA0
   00000001 00000003    1C    00001254
   00000001 00000004    1C    00000AA4
   00000001 00000004    1C    00001238
   00000001 00000004    1C    00001E98
   00000001 00000004    1C    00002F64
   00000001 00000004    1C    000037D8
   00000001 00000004    1C    00004BB8
   00000001 00000004    1C    00005354
   00000001 00000004    1C    00005CC4
   00000001 00000004    1C    000064B4
   00000001 00000005    1C    00000AA8
   00000001 00000005    1C    0000123C
   00000001 00000005    1C    00001E9C
   00000001 00000005    1C    00002F68
   00000001 00000005    1C    000037DC
   00000001 00000005    1C    00005358
   00000001 00000005    1C    00005CC8
   00000001 00000005    1C    000064CC
   00000001 00000006    1C    00000AAC
   00000001 00000007    1C    00000AB4
   00000001 00000008    1C    00000AB8
   00000001 00000009    1C    00000AC0
   00000001 00000009    1C    0000121C
   00000001 00000009    1C    00001EC4
   00000001 0000000A    1C    00001218
   00000001 0000000B    1C    00001224
   00000001 0000000B    1C    00001ED0
   00000001 0000000B    1C    00002F84
   00000001 0000000B    1C    00004BAC
   00000001 0000000B    1C    0000533C
   00000001 0000000B    1C    00005CD4
   00000001 0000000B    1C    000064C4
   00000001 0000000B    1C    00006BE4
   00000001 0000000C    1C    0000122C
   00000001 0000000D    1C    00001230
   00000001 0000000E    1C    00001244
   00000001 0000000F    1C    00001250
   00000001 00000010    1C    00001580
   00000001 00000010    1C    0000283C
   00000001 00000010    1C    000044CC
   00000001 00000010    1C    00005ED8
   00000001 00000011    1C    000015A8
   00000001 00000011    1C    000015D0
   00000001 00000011    1C    000015F8
   00000001 00000011    1C    00001620
   00000001 00000011    1C    00001648
   00000001 00000011    1C    00001670
1FLOW     (FLOW2025) (12:45) (15MAR04) Relocation Dictionary                                                                Page  196
   00000001 00000011    1C    00001698
   00000001 00000011    1C    000016C0
   00000001 00000011    1C    000016E8
   00000001 00000011    1C    00001710
   00000001 00000011    1C    00001738
   00000001 00000011    1C    00001760
   00000001 00000011    1C    00001788
   00000001 00000011    1C    000017B0
   00000001 00000011    1C    00002864
   00000001 00000011    1C    0000288C
   00000001 00000011    1C    000028B4
   00000001 00000011    1C    000028DC
   00000001 00000011    1C    00002904
   00000001 00000011    1C    0000292C
   00000001 00000011    1C    00002954
   00000001 00000011    1C    0000297C
   00000001 00000011    1C    000029A4
   00000001 00000011    1C    000044F4
   00000001 00000011    1C    0000451C
   00000001 00000011    1C    00004544
   00000001 00000011    1C    0000456C
   00000001 00000011    1C    00004594
   00000001 00000011    1C    000045BC
   00000001 00000011    1C    000045E4
   00000001 00000011    1C    0000460C
   00000001 00000011    1C    00004634
   00000001 00000011    1C    0000465C
   00000001 00000011    1C    00004684
   00000001 00000011    1C    000046AC
   00000001 00000011    1C    000046D4
   00000001 00000011    1C    000046FC
   00000001 00000011    1C    00005F00
   00000001 00000011    1C    00005F28
   00000001 00000011    1C    00005F50
   00000001 00000011    1C    00005F78
   00000001 00000011    1C    00005FA0
   00000001 00000011    1C    00005FC8
   00000001 00000011    1C    00005FF0
   00000001 00000011    1C    00006018
   00000001 00000011    1C    00006040
   00000001 00000011    1C    00006068
   00000001 00000011    1C    00006090
   00000001 00000011    1C    000060B8
   00000001 00000011    1C    000060E0
   00000001 00000011    1C    00006108
   00000001 00000012    1C    000017D8
   00000001 00000012    1C    000029CC
   00000001 00000012    1C    00004724
   00000001 00000012    1C    00006130
   00000001 00000013    1C    00001EA0
   00000001 00000014    1C    00001EA8
   00000001 00000015    1C    00001EDC
   00000001 00000015    1C    000037F8
   00000001 00000015    1C    00004BA8
   00000001 00000016    1C    00001F04
   00000001 00000016    1C    000064D0
   00000001 00000017    1C    00002F88
   00000001 00000018    1C    00002FB8
   00000001 00000019    1C    00002FBC
1FLOW     (FLOW2025) (12:45) (15MAR04) Relocation Dictionary                                                                Page  197
   00000001 0000001A    1C    00002FC0
   00000001 0000001B    1C    00002FC4
   00000001 0000001B    1C    000037B8
   00000001 0000001B    1C    000066B0
   00000001 0000001B    1C    00006828
   00000001 0000001C    1C    00002FC8
   00000001 0000001C    1C    000066B8
   00000001 0000001D    1C    00002FCC
   00000001 0000001D    1C    000066BC
   00000001 0000001E    1C    000037E0
   00000001 0000001F    1C    00004BF4
   00000001 0000001F    1C    00005CF0
   00000001 0000001F    1C    00006BE8
   00000001 00000020    1C    0000530C
   00000001 00000020    1C    00006BF4
   00000001 00000021    1C    000066B4
   00000001 00000021    1C    0000682C
   00000001 00000022    1C    000066C4
   00000001 00000023    1C    000066CC
   00000001 00000024    1C    00006830
   00000001 00000025    1C    00006BDC
   00000001 00000026    1C    00006BEC
   00000001 00000027    1C    00006BF0

1FLOW     (FLOW2025) (12:45) (15MAR04) Ordinary Symbol and Literal Cross Reference                                          Page  198
-Symbol   Length   Value     Id    R Type   Defn References                                  HLASM R4.0  2004/03/15 12.45
0$$$@R0        1 00000000 FFFFFFFE     J     705  1007
 $$$@R10       1 00000000 FFFFFFF4     J     835  1071
 $$$@R11       1 00000000 FFFFFFF3     J     848  1084
 $$$@R12       1 00000000 FFFFFFF2     J     861  1097
 $$$@R13       1 00000000 FFFFFFF1     J     874  1110
 $$$@R14       1 00000000 FFFFFFF0     J     887  1123
 $$$@R7        1 00000000 FFFFFFF7     J     796  1020
 $$$@R8        1 00000000 FFFFFFF6     J     809  1033   1045
 $$$@R9        1 00000000 FFFFFFF5     J     822  1058
 $$$C1WYLFLOW
               1 00000050 00000001     J    7535  7537   7568   7980   8513   8900   9257   9669  10037  10416  10759
 $$$C10WYLFLOW
               1 000053C2 00000001     J   29385 29387  29427  31971  32126
 $$$C11WYLFLOW
               1 00005E20 00000001     J   32325 32327  33332
 $$$C12WYLFLOW
               1 00006512 00000001     J   33777 33779
 $$$C13WYLFLOW
               1 000066D0 00000001     J   34366 34368
 $$$C14WYLFLOW
               1 00006834 00000001     J   34887 34889  34928  35099  35264  35411
 $$$C15WYLFLOW
               1 00006C42 00000001     J   36248 36250
 $$$C16WYLFLOW
               1 00006C90 00000001     J   36266 36268
 $$$C2WYLFLOW
               1 00000CC5 00000001     J   11200 11202  11447  12182  12249  12499
 $$$C3WYLFLOW
               1 000013B0 00000001     J   12946 12948  12988  14259  14598  14936  15427
 $$$C4WYLFLOW
               1 00001FA2 00000001     J   15966 15968  16064
 $$$C5WYLFLOW
               1 00002776 00000001     J   18142 18144  19179
 $$$C6WYLFLOW
               1 00002FFD 00000001     J   20606 20608  20649  20896  21420  22113
 $$$C7WYLFLOW
               1 000038B1 00000001     J   22505 22507  22555  23113  23453  24016
 $$$C8WYLFLOW
               1 00003F8D 00000001     J   24409 24411  24456  24789  25301  25694
 $$$C9WYLFLOW
               1 00004E08 00000001     J   27811 27813  28133  28494  28843
 $$$D2WYLFLOW
               1 000013A9 00000001     J   11201 12171
 $$$D9WYLFLOW
               1 000053B0 00000001     J   27812 28122  28483  28832
 $$$RCASESWA
               1 00000000 FFFFFFDA     J   10402 10415  10415
 $$$RCASEWA
               1 00000000 FFFFFFD9     J   10745 10758  10758
 $$$RCHKDWA
               1 00000000 FFFFFFC1     J   31957 31970  31970
 $$$RCHKPWA
               1 00000000 FFFFFFC0     J   32112 32125  32125
 $$$RCHKWA
               1 00000000 FFFFFFC2     J   29410 29426  29426
1FLOW     (FLOW2025) (12:45) (15MAR04) Ordinary Symbol and Literal Cross Reference                                          Page  199
 $$$RCP        1 00000000 FFFFFFEC     J    2454  4714   6188   6188
 $$$RCV        1 00000000 FFFFFFEE     J    1179  2364   2364
 $$$RDEV       1 00000000 FFFFFFEB     J    4668  4713   4713
 $$$RECWA      1 00000000 FFFFFFD5     J   12974 12987  12987
 $$$RELSEWA
               1 00000000 FFFFFFDE     J    8886  8899   8899
 $$$RENDWA
               1 00000000 FFFFFFD8     J   11433 11446  11446
 $$$RFCCBWA
               1 00000000 FFFFFFC6     J   24437 24455  24455
 $$$RFCCSWA
               1 00000000 FFFFFFC5     J   24768 24788  24788
 $$$RFCEFWA
               1 00000000 FFFFFFC8     J   23432 23452  23452
 $$$RFCELWA
               1 00000000 FFFFFFC9     J   23094 23112  23112
 $$$RFCIFWA
               1 00000000 FFFFFFCA     J   22534 22554  22554
 $$$RFCLBWA
               1 00000000 FFFFFFC4     J   25283 25300  25300
 $$$RFCRPWA
               1 00000000 FFFFFFC7     J   23995 24015  24015
 $$$RFCWHWA
               1 00000000 FFFFFFCB     J   22093 22112  22112
 $$$RFDDWA
               1 00000000 FFFFFFC3     J   25677 25693  25693
 $$$RFFLAWA
               1 00000000 FFFFFFCF     J   19165 19178  19178
 $$$RFFWA      1 00000000 FFFFFFD0     J   16022 16063  16063
 $$$RFPWA      1 00000000 FFFFFFCC     J   21399 21419  21419
 $$$RFWENTRY
               1 00000000 FFFFFFE2     J    7182  7447   7447
 $$$RFXPWA
               1 00000000 FFFFFFCD     J   20875 20895  20895
 $$$RGOTOWA
               1 00000000 FFFFFFD7     J   12235 12248  12248
 $$$RGTPNWA
               1 00000000 FFFFFFBB     J   35397 35410  35410
 $$$RGTPSWA
               1 00000000 FFFFFFBD     J   35085 35098  35098
 $$$RGTXNWA
               1 00000000 FFFFFFBC     J   35250 35263  35263
 $$$RGTXSWA
               1 00000000 FFFFFFBE     J   34914 34927  34927
 $$$RIFWA      1 00000000 FFFFFFE0     J    7966  7979   7979
 $$$RJCB       1 00000000 FFFFFFE9     J    6306  6580   6580
 $$$RLLWA      1 00000000 FFFFFFD4     J   14245 14258  14258
 $$$RLSIFWA
               1 00000000 FFFFFFDD     J    9243  9256   9256
 $$$RNLIST
               1 00000000 FFFFFFE6     J    6979  6992   6992
 $$$RNSCNCB
               1 00000000 FFFFFFED     J    2375  2448   2448
 $$$RPLIST
               1 00000000 FFFFFFE4     J    7017  7030   7030
 $$$RREPEATWA
               1 00000000 FFFFFFDC     J    9655  9668   9668
 $$$RSCLBWA
               1 00000000 FFFFFFBF     J   33313 33331  33331
1FLOW     (FLOW2025) (12:45) (15MAR04) Ordinary Symbol and Literal Cross Reference                                          Page  200
 $$$RSCNLWA
               1 00000000 FFFFFFD2     J   14917 14935  14935
 $$$RSCNPWA
               1 00000000 FFFFFFD1     J   15408 15426  15426
 $$$RTTYPE
               1 00000000 FFFFFFEA     J    6199  6300   6300
 $$$RUNTILWA
               1 00000000 FFFFFFDB     J   10023 10036  10036
 $$$RVLIST
               1 00000000 FFFFFFE5     J    6998  7011   7011
 $$$RVNENTRY
               1 00000000 FFFFFFE8     J    6629  6928   6928
 $$$RVPARM
               1 00000000 FFFFFFE7     J    6941  6955   6955
 $$$RWHILEWA
               1 00000000 FFFFFFE1     J    7554  7567   7567
 $$$RXFCWA
               1 00000000 FFFFFFCE     J   20634 20648  20648
 $$$RXITWA
               1 00000000 FFFFFFD6     J   12485 12498  12498
 $$$RXLLWA
               1 00000000 FFFFFFD3     J   14584 14597  14597
 $$$RXSENTRY
               1 00000000 FFFFFFE3     J    7062  7169   7169
 $$$RZAPWA
               1 00000000 FFFFFFDF     J    8499  8512   8512
 $$$SEGCB0
               4 00000050 FFFFFFEC     F    2485  2571   2571
 $$$V01       40 00006C42 00000001     C   36259 34581
 $$$V02       33 00006C6A 00000001     C   36260 34843
 $$$100F       2 00000256 00000001     H    8256  8162B
 $$$100T       2 00000214 00000001     H    8165  8152B
 $$$102B       4 00000222 00000001     I    8189  8230
 $$$102F       2 00000246 00000001     H    8225  8189B  8229
 $$$105E       2 0000024A 00000001     H    8237  8231
 $$$105F       2 00000252 00000001     H    8251  8233B
 $$$107F       2 00000260 00000001     H    8283  8273B
 $$$108F       2 0000029E 00000001     H    8339  8306B
 $$$109F       2 000002A8 00000001     H    8360  8350B
 $$$110B       4 000002B0 00000001     I    8378  8434
 $$$110F       2 000002E0 00000001     H    8429  8378B  8433
 $$$111F       2 000002DC 00000001     H    8423  8394B
 $$$113E       2 000002E4 00000001     H    8441  8435
 $$$113F       2 000002EE 00000001     H    8448  8437B
 $$$114        1 00000070 00000001 A   U    8475  8472   8474
 $$$116B       1 00000318 00000001     X    8542  8549U
 $$$118F       2 0000034E 00000001     H    8646  8624B  8636B
 $$$118S       2 00000338 00000001     H    8614  8645B
 $$$124F       2 0000038A 00000001     H    8739  8730B
 $$$125F       2 000003A0 00000001     H    8777  8755B  8767B
 $$$125S       2 0000038A 00000001     H    8745  8776B
 $$$128F       2 000003BA 00000001     H    8816  8794B  8806B
 $$$128S       2 000003A4 00000001     H    8784  8815B
 $$$131F       2 000003C6 00000001     H    8837  8828B
 $$$132        1 000001A0 00000001 A   U    8863  8860   8862
 $$$134B       1 000003EE 00000001     X    8930  8937U
 $$$135F       2 00000426 00000001     H    9044  8995B
 $$$135T       2 00000402 00000001     H    8998  8985B
 $$$137F       2 00000422 00000001     H    9039  9011B
1FLOW     (FLOW2025) (12:45) (15MAR04) Ordinary Symbol and Literal Cross Reference                                          Page  201
 $$$140F       2 00000430 00000001     H    9071  9061B
 $$$141F       2 0000046E 00000001     H    9127  9094B
 $$$142F       2 00000478 00000001     H    9148  9138B
 $$$143F       2 000004A0 00000001     H    9191  9162B
 $$$145        1 00000070 00000001 A   U    9220  9217   9219
 $$$147B       1 000004CE 00000001     X    9287  9294U
 $$$148F       2 000004F8 00000001     H    9367  9334B
 $$$149F       2 0000051E 00000001     H    9413  9380B
 $$$150F       2 00000528 00000001     H    9440  9430B
 $$$151F       2 00000566 00000001     H    9496  9463B
 $$$152F       2 00000570 00000001     H    9517  9507B
 $$$153B       4 00000578 00000001     I    9535  9591
 $$$153F       2 000005A8 00000001     H    9586  9535B  9590
 $$$154F       2 000005A4 00000001     H    9580  9551B
 $$$156E       2 000005AC 00000001     H    9598  9592
 $$$156F       2 000005B6 00000001     H    9605  9594B
 $$$157        1 00000070 00000001 A   U    9632  9629   9631
 $$$159B       1 000005E0 00000001     X    9699  9706U
 $$$160F       2 0000060A 00000001     H    9779  9746B
 $$$161F       2 00000630 00000001     H    9825  9792B
 $$$162F       2 0000063A 00000001     H    9852  9842B
 $$$163F       2 00000678 00000001     H    9908  9875B
 $$$164F       2 00000682 00000001     H    9929  9919B
 $$$165F       2 000006A4 00000001     H    9971  9942B
 $$$167        1 00000070 00000001 A   U   10000  9997   9999
 $$$169B       1 000006D2 00000001     X   10067 10074U
 $$$170F       2 000006FC 00000001     H   10147 10114B
 $$$171F       2 00000722 00000001     H   10193 10160B
 $$$172F       2 0000072C 00000001     H   10220 10210B
 $$$173F       2 0000076A 00000001     H   10276 10243B
 $$$174F       2 00000774 00000001     H   10297 10287B
 $$$175B       4 0000077C 00000001     I   10315 10334
 $$$175F       2 00000790 00000001     H   10329 10315B 10333
 $$$176E       2 00000794 00000001     H   10341 10335
 $$$176F       2 000007A4 00000001     H   10352 10337B
 $$$177        1 00000070 00000001 A   U   10379 10376  10378
 $$$179B       1 000007CE 00000001     X   10446 10453U
 $$$180F       2 000007F8 00000001     H   10526 10493B
 $$$181F       2 0000081E 00000001     H   10572 10539B
 $$$182F       2 00000828 00000001     H   10599 10589B
 $$$183F       2 00000866 00000001     H   10655 10622B
 $$$184F       2 00000870 00000001     H   10676 10666B
 $$$185        1 00000070 00000001 A   U   10722 10719  10721
 $$$187B       1 000008B6 00000001     X   10789 10796U
 $$$188F       2 000008E0 00000001     H   10869 10836B
 $$$189F       2 00000906 00000001     H   10915 10882B
 $$$190F       2 00000910 00000001     H   10942 10932B
 $$$191F       2 0000094E 00000001     H   10998 10965B
 $$$192F       2 00000958 00000001     H   11019 11009B
 $$$193B       4 00000960 00000001     I   11037 11093
 $$$193F       2 00000990 00000001     H   11088 11037B 11092
 $$$194F       2 0000098C 00000001     H   11082 11053B
 $$$196E       2 00000994 00000001     H   11100 11094
 $$$196F       2 0000099E 00000001     H   11107 11096B
 $$$197        1 00000070 00000001 A   U   11134 11131  11133
 $$$199B       1 00000CE0 00000001     X   11241 11248U
 $$$200F       2 00000D06 00000001     H   11302 11269B
 $$$201F       2 00000D2C 00000001     H   11348 11315B
 $$$202F       2 00000D36 00000001     H   11371 11361B
1FLOW     (FLOW2025) (12:45) (15MAR04) Ordinary Symbol and Literal Cross Reference                                          Page  202
 $$$203        1 00000050 00000001 A   U   11417 11414  11416
 $$$205B       1 00000D80 00000001     X   11477 11484U
 $$$206F       2 00000D96 00000001     H   11546 11524B
 $$$207F       2 00000DA8 00000001     H   11573 11560B
 $$$208F       2 00000DB2 00000001     H   11598 11588B
 $$$209F       2 00000DF6 00000001     H   11660 11627B
 $$$210F       2 00000E00 00000001     H   11681 11671B
 $$$211F       2 00000E0C 00000001     H   11703 11694B
 $$$212F       2 00000E1E 00000001     H   11726 11716B
 $$$213F       2 00000E42 00000001     H   11778 11739B
 $$$214F       2 00000E66 00000001     H   11830 11791B
 $$$215F       2 00000E70 00000001     H   11853 11843B
 $$$216        1 00000070 00000001 A   U   11881 11878  11880
 $$$218B       1 00000E9A 00000001     X   11928 11935U
 $$$219F       2 00000EC0 00000001     H   11989 11956B
 $$$220F       2 00000EEE 00000001     H   12050 12011B
 $$$221F       2 00000F5C 00000001     H   12132 12057B
 $$$222F       2 00000F7C 00000001     H   12187 12163B
 $$$223        6 000013AA 00000001     I   12177 12169X
 $$$224        6 000013AA 00000001     I   12176 12177  12177
 $$$226        1 00000050 00000001 A   U   12219 12216  12218
 $$$228B       1 00000FB6 00000001     X   12279 12286U
 $$$229F       2 00000FE0 00000001     H   12359 12326B
 $$$230F       2 00001006 00000001     H   12405 12372B
 $$$231F       2 00001010 00000001     H   12432 12422B
 $$$232        1 00000070 00000001 A   U   12469 12466  12468
 $$$234B       1 0000104E 00000001     X   12529 12536U
 $$$235F       2 00001078 00000001     H   12602 12569B
 $$$236F       2 0000109E 00000001     H   12648 12615B
 $$$237F       2 000010A8 00000001     H   12675 12665B
 $$$238        1 00000070 00000001 A   U   12722 12719  12721
 $$$240B       1 000010EC 00000001     X   12757 12764U
 $$$241F       2 00001120 00000001     H   12848 12799B
 $$$241T       2 000010FC 00000001     H   12802 12789B
 $$$243F       2 0000111C 00000001     H   12843 12815B
 $$$246F       2 0000112A 00000001     H   12871 12861B
 $$$247        1 00000050 00000001 A   U   12900 12897  12899
 $$$249B       1 000013CA 00000001     X   13017 13024U
 $$$250F       2 00001430 00000001     H   13116 13104B
 $$$252F       2 00001462 00000001     H   13186 13174B
 $$$252T       2 0000145C 00000001     H   13177 13163B
 $$$254F       2 00001470 00000001     H   13209 13197B
 $$$255F       2 00001486 00000001     H   13230 13221B
 $$$256F       2 00001496 00000001     H   13251 13239B
 $$$257F       2 0000149E 00000001     H   13271 13261B
 $$$258        1 000001A0 00000001 A   U   13295 13292  13294
 $$$260B       1 000014C6 00000001     X   13351 13358U
 $$$261F       2 00001536 00000001     H   13437 13424B
 $$$262F       2 00001542 00000001     H   13460 13450B
 $$$263        1 00000050 00000001 A   U   13484 13481  13483
 $$$265B       1 000017FA 00000001     X   13758 13765U
 $$$266        1 00000050 00000001 A   U   13796 13793  13795
 $$$268B       1 0000182C 00000001     X   13826 13833U
 $$$269        1 00000050 00000001 A   U   13860 13857  13859
 $$$271B       1 00001858 00000001     X   13890 13897U
 $$$272F       2 00001886 00000001     H   13952 13920B
 $$$273F       2 00001886 00000001     H   13948 13935B
 $$$274F       2 000018B4 00000001     H   14027 13980B 13995B
 $$$276        1 00000050 00000001 A   U   14052 14049  14051
1FLOW     (FLOW2025) (12:45) (15MAR04) Ordinary Symbol and Literal Cross Reference                                          Page  203
 $$$278B       1 000018E8 00000001     X   14092 14099U
 $$$279F       2 00001962 00000001     H   14204 14153B
 $$$280        1 00000050 00000001 A   U   14222 14219  14221
 $$$282B       1 0000198A 00000001     X   14289 14296U
 $$$283F       2 000019CA 00000001     H   14396 14351B
 $$$284F       2 000019F0 00000001     H   14452 14407B
 $$$285F       2 00001A22 00000001     H   14529 14484B
 $$$285T       2 00001A04 00000001     H   14487 14472B
 $$$287        1 00000070 00000001 A   U   14561 14558  14560
 $$$289B       1 00001A54 00000001     X   14628 14635U
 $$$290F       2 00001A94 00000001     H   14728 14683B
 $$$291F       2 00001ABA 00000001     H   14784 14739B
 $$$292F       2 00001AEC 00000001     H   14861 14816B
 $$$292T       2 00001ACE 00000001     H   14819 14804B
 $$$294        1 00000070 00000001 A   U   14893 14890  14892
 $$$296B       1 00001B1E 00000001     X   14965 14972U
 $$$297B       4 00001B58 00000001     I   15053 15075
 $$$297F       2 00001B68 00000001     H   15067 15038B 15053B 15072
 $$$298B       4 00001B50 00000001     I   15038 15073
 $$$299B       4 00001B6E 00000001     I   15090 15111
 $$$299E       2 00001B6C 00000001     H   15082 15074  15076
 $$$299F       2 00001B7E 00000001     H   15105 15078B 15090B 15110
 $$$301B       4 00001B84 00000001     I   15126 15228
 $$$301E       2 00001B82 00000001     H   15118 15112
 $$$301F       2 00001C08 00000001     H   15223 15114B 15126B 15227
 $$$303E       2 00001C0C 00000001     H   15235 15229
 $$$303F       2 00001C8C 00000001     H   15329 15231B
 $$$304        1 000000AC 00000001 A   U   15377 15374  15376
 $$$306B       1 00001CC4 00000001     X   15457 15464U
 $$$307B       4 00001CFE 00000001     I   15542 15564
 $$$307F       2 00001D0E 00000001     H   15556 15527B 15542B 15561
 $$$308B       4 00001CF6 00000001     I   15527 15562
 $$$309B       4 00001D14 00000001     I   15579 15612
 $$$309E       2 00001D12 00000001     H   15571 15563  15565
 $$$309F       2 00001D2E 00000001     H   15606 15567B 15579B 15611
 $$$311B       4 00001D34 00000001     I   15627 15736
 $$$311E       2 00001D32 00000001     H   15619 15613
 $$$311F       2 00001DBC 00000001     H   15731 15615B 15627B 15735
 $$$313E       2 00001DC0 00000001     H   15743 15737
 $$$313F       2 00001E4A 00000001     H   15849 15739B
 $$$314F       2 00001E60 00000001     H   15893 15861B
 $$$315        1 000000AC 00000001 A   U   15918 15915  15917
 $$$317B       1 00001FBC 00000001     X   16094 16101U
 $$$318B       4 00001FEC 00000001     I   16171 16183
 $$$318F       2 00001FF0 00000001     H   16179 16171B 16182
 $$$319B       4 00001FFA 00000001     I   16201 16219
 $$$319E       2 00001FF4 00000001     H   16190 16184
 $$$319F       2 00002002 00000001     H   16215 16186B 16201B 16218
 $$$321B       4 0000200C 00000001     I   16237 16260
 $$$321E       2 00002006 00000001     H   16226 16220
 $$$321F       2 00002018 00000001     H   16257 16222B 16237B 16259
 $$$323E       2 0000201C 00000001     H   16267 16261
 $$$323F       2 0000201E 00000001     H   16274 16263B
 $$$324F       2 00002040 00000001     H   16303 16294B
 $$$325F       2 000020BA 00000001     H   16440 16329B 16344B
 $$$325S       2 00002056 00000001     H   16321 16439B
 $$$328B       4 0000206C 00000001     I   16360 16377
 $$$328F       2 0000207A 00000001     H   16373 16360B 16376
 $$$329B       4 00002084 00000001     I   16394 16410
1FLOW     (FLOW2025) (12:45) (15MAR04) Ordinary Symbol and Literal Cross Reference                                          Page  204
 $$$329E       2 0000207E 00000001     H   16384 16378
 $$$329F       2 00002092 00000001     H   16407 16380B 16394B 16409
 $$$331E       2 00002096 00000001     H   16417 16411
 $$$331F       2 000020A0 00000001     H   16427 16413B
 $$$332F       2 000021D2 00000001     H   16799 16456B
 $$$332S       2 000020BA 00000001     H   16450 16798B
 $$$334B       4 000020CE 00000001     I   16479 16499
 $$$334F       2 000020DC 00000001     H   16492 16479B 16498
 $$$335B       4 000020E6 00000001     I   16516 16536
 $$$335E       2 000020E0 00000001     H   16506 16500
 $$$335F       2 000020F4 00000001     H   16529 16502B 16516B 16535
 $$$337B       4 000020FE 00000001     I   16553 16573
 $$$337E       2 000020F8 00000001     H   16543 16537
 $$$337F       2 0000210C 00000001     H   16566 16539B 16553B 16572
 $$$339B       4 00002116 00000001     I   16590 16609
 $$$339E       2 00002110 00000001     H   16580 16574
 $$$339F       2 00002124 00000001     H   16603 16576B 16590B 16608
 $$$341E       2 00002128 00000001     H   16616 16610
 $$$341F       2 00002132 00000001     H   16626 16612B
 $$$342F       2 00002154 00000001     H   16656 16647B
 $$$343F       2 000021CE 00000001     H   16792 16681B 16696B
 $$$343S       2 0000216A 00000001     H   16673 16791B
 $$$346B       4 00002180 00000001     I   16712 16729
 $$$346F       2 0000218E 00000001     H   16725 16712B 16728
 $$$347B       4 00002198 00000001     I   16746 16762
 $$$347E       2 00002192 00000001     H   16736 16730
 $$$347F       2 000021A6 00000001     H   16759 16732B 16746B 16761
 $$$349E       2 000021AA 00000001     H   16769 16763
 $$$349F       2 000021B4 00000001     H   16779 16765B
 $$$350        1 00000344 00000001 A   U   16827 16824  16826
 $$$352B       1 000021FC 00000001     X   16864 16871U
 $$$353B       4 00002202 00000001     I   16902 16938
 $$$353F       2 00002246 00000001     H   16934 16902B 16937
 $$$354E       2 0000224A 00000001     H   16945 16939
 $$$354F       2 000022A0 00000001     H   17002 16941B
 $$$355F       2 00002272 00000001     H   16978 16966B
 $$$356        1 00000050 00000001 A   U   17025 17022  17024
 $$$358B       1 000022CA 00000001     X   17069 17076U
 $$$359B       4 000022D0 00000001     I   17107 17143
 $$$359F       2 00002314 00000001     H   17139 17107B 17142
 $$$360E       2 00002318 00000001     H   17150 17144
 $$$360F       2 00002372 00000001     H   17208 17146B
 $$$361F       2 00002344 00000001     H   17184 17172B
 $$$362        1 00000050 00000001 A   U   17238 17235  17237
 $$$364B       1 000023B4 00000001     X   17282 17289U
 $$$365B       4 000023BA 00000001     I   17320 17358
 $$$365F       2 00002406 00000001     H   17354 17320B 17357
 $$$366E       2 0000240A 00000001     H   17365 17359
 $$$366F       2 00002460 00000001     H   17422 17361B
 $$$367F       2 00002432 00000001     H   17398 17386B
 $$$368        1 00000050 00000001 A   U   17452 17449  17451
 $$$370B       1 000024A2 00000001     X   17496 17503U
 $$$371B       4 000024A8 00000001     I   17534 17598
 $$$371F       2 00002502 00000001     H   17594 17534B 17597
 $$$372F       2 000024E6 00000001     H   17578 17563B
 $$$373E       2 00002506 00000001     H   17605 17599
 $$$373F       2 0000255C 00000001     H   17662 17601B
 $$$374F       2 0000252E 00000001     H   17638 17626B
 $$$375        1 00000050 00000001 A   U   17685 17682  17684
1FLOW     (FLOW2025) (12:45) (15MAR04) Ordinary Symbol and Literal Cross Reference                                          Page  205
 $$$377B       1 00002586 00000001     X   17729 17736U
 $$$378B       4 0000258C 00000001     I   17767 17805
 $$$378F       2 000025CA 00000001     H   17801 17767B 17804
 $$$379E       2 000025CE 00000001     H   17812 17806
 $$$379F       2 00002624 00000001     H   17869 17808B
 $$$380F       2 000025F6 00000001     H   17845 17833B
 $$$381        1 00000050 00000001 A   U   17892 17889  17891
 $$$383B       1 0000264E 00000001     X   17936 17943U
 $$$384B       4 00002654 00000001     I   17974 18012
 $$$384F       2 000026A0 00000001     H   18008 17974B 18011
 $$$385E       2 000026A4 00000001     H   18019 18013
 $$$385F       2 000026FA 00000001     H   18076 18015B
 $$$386F       2 000026CC 00000001     H   18052 18040B
 $$$387        1 00000050 00000001 A   U   18099 18096  18098
 $$$389B       1 00002790 00000001     X   18188 18195U
 $$$390F       2 00002800 00000001     H   18288 18275B
 $$$391F       2 0000280C 00000001     H   18311 18301B
 $$$392        1 00000050 00000001 A   U   18329 18326  18328
 $$$394B       1 000029EE 00000001     X   18528 18535U
 $$$395        1 00000050 00000001 A   U   18562 18559  18561
 $$$397B       1 00002A1A 00000001     X   18589 18596U
 $$$398B       4 00002A42 00000001     I   18648 18660
 $$$398F       2 00002A4A 00000001     H   18657 18648B 18659
 $$$399E       2 00002A4E 00000001     H   18667 18661
 $$$399F       2 00002A52 00000001     H   18673 18663B
 $$$400        1 00000050 00000001 A   U   18691 18688  18690
 $$$402B       1 00002A7A 00000001     X   18718 18725U
 $$$403B       4 00002A80 00000001     I   18744 18756
 $$$403F       2 00002A88 00000001     H   18753 18744B 18755
 $$$404E       2 00002A8C 00000001     H   18763 18757
 $$$404F       2 00002A90 00000001     H   18769 18759B
 $$$405        1 00000050 00000001 A   U   18787 18784  18786
 $$$407B       1 00002AB8 00000001     X   18814 18821U
 $$$408B       4 00002B34 00000001     I   18909 18921
 $$$408F       2 00002B3C 00000001     H   18918 18909B 18920
 $$$409E       2 00002B40 00000001     H   18928 18922
 $$$409F       2 00002B44 00000001     H   18934 18924B
 $$$410        1 00000050 00000001 A   U   18952 18949  18951
 $$$412B       1 00002B6C 00000001     X   18996 19003U
 $$$413B       4 00002BDC 00000001     I   19093 19110
 $$$413F       2 00002BE2 00000001     H   19105 19080B 19093B 19107
 $$$414B       4 00002BD2 00000001     I   19080 19108
 $$$415E       2 00002BE6 00000001     H   19117 19109  19111
 $$$415F       2 00002BEA 00000001     H   19123 19113B
 $$$416        1 00000050 00000001 A   U   19142 19139  19141
 $$$418B       1 00002C12 00000001     X   19208 19215U
 $$$419        1 00000060 00000001 A   U   19263 19260  19262
 $$$421B       1 00002C44 00000001     X   19307 19314U
 $$$422F       2 00002C5C 00000001     H   19363 19341B 19353B
 $$$422S       2 00002C46 00000001     H   19331 19362B
 $$$425B       4 00002C66 00000001     I   19389 19406
 $$$425F       2 00002C6C 00000001     H   19401 19377B 19389B 19403
 $$$426B       4 00002C60 00000001     I   19377 19404
 $$$427E       2 00002C70 00000001     H   19413 19405  19407
 $$$427F       2 00002C74 00000001     H   19419 19409B
 $$$428        1 00000050 00000001 A   U   19438 19435  19437
 $$$430B       1 00002C9C 00000001     X   19482 19489U
 $$$431F       2 00002CB4 00000001     H   19538 19516B 19528B
 $$$431S       2 00002C9E 00000001     H   19506 19537B
1FLOW     (FLOW2025) (12:45) (15MAR04) Ordinary Symbol and Literal Cross Reference                                          Page  206
 $$$434B       4 00002CB6 00000001     I   19549 19564
 $$$434F       2 00002CBC 00000001     H   19561 19549B 19563
 $$$435E       2 00002CC0 00000001     H   19571 19565
 $$$435F       2 00002CC4 00000001     H   19577 19567B
 $$$436        1 00000050 00000001 A   U   19596 19593  19595
 $$$438B       1 00002CEC 00000001     X   19638 19645U
 $$$439F       2 00002D04 00000001     H   19694 19672B 19684B
 $$$439S       2 00002CEE 00000001     H   19662 19693B
 $$$442        1 00000050 00000001 A   U   19720 19717  19719
 $$$444B       1 00002D34 00000001     X   19766 19773U
 $$$445F       2 00002D78 00000001     H   19864 19796B
 $$$446F       2 00002DB8 00000001     H   19944 19876B
 $$$447        1 00000050 00000001 A   U   19977 19974  19976
 $$$449B       1 00002DF2 00000001     X   20018 20025U
 $$$450F       2 00002DFA 00000001     H   20055 20045B
 $$$451F       2 00002E06 00000001     H   20074 20065B
 $$$452        1 00000050 00000001 A   U   20110 20107  20109
 $$$454B       1 00002E4A 00000001     X   20155 20162U
 $$$455        1 00000050 00000001 A   U   20200 20197  20199
 $$$457B       1 00002E7E 00000001     X   20245 20252U
 $$$458        1 00000050 00000001 A   U   20290 20287  20289
 $$$460B       1 00002EB2 00000001     X   20333 20340U
 $$$461        1 00000050 00000001 A   U   20374 20371  20373
 $$$463B       1 00002EE4 00000001     X   20419 20426U
 $$$464        1 00000050 00000001 A   U   20473 20470  20472
 $$$466B       1 00002F2C 00000001     X   20518 20525U
 $$$467        1 00000050 00000001 A   U   20572 20569  20571
 $$$469B       1 00003018 00000001     X   20679 20686U
 $$$470B       4 00003048 00000001     I   20742 20794
 $$$470F       2 0000307C 00000001     H   20788 20742B 20793
 $$$471F       2 0000307C 00000001     H   20784 20765B
 $$$471S       2 00003060 00000001     H   20762 20783B
 $$$473E       2 00003080 00000001     H   20801 20795
 $$$473F       2 0000309E 00000001     H   20826 20797B
 $$$474        1 00000140 00000001 A   U   20854 20851  20853
 $$$476B       1 000030C8 00000001     X   20925 20932U
 $$$477F       2 000030FE 00000001     H   21003 20993B
 $$$478F       2 00003174 00000001     H   21085 21075B
 $$$479F       2 000031E8 00000001     H   21174 21152B
 $$$479T       2 000031D6 00000001     H   21155 21141B
 $$$481F       2 00003208 00000001     H   21208 21186B
 $$$482F       2 0000329A 00000001     H   21293 21271B
 $$$483        1 000002F0 00000001 A   U   21371 21368  21370
 $$$485B       1 00003312 00000001     X   21449 21456U
 $$$486F       2 0000334E 00000001     H   21528 21518B
 $$$487F       2 000033C4 00000001     H   21610 21600B
 $$$488F       2 000033E4 00000001     H   21646 21624B
 $$$489F       2 00003414 00000001     H   21712 21660B
 $$$490F       2 00003488 00000001     H   21797 21775B
 $$$490T       2 00003476 00000001     H   21778 21764B
 $$$492F       2 000034A8 00000001     H   21831 21809B
 $$$493F       2 00003546 00000001     H   21918 21896B
 $$$494F       2 00003584 00000001     H   21994 21942B
 $$$495        1 000001B0 00000001 A   U   22064 22061  22063
 $$$497B       1 000035EE 00000001     X   22142 22149U
 $$$498F       2 0000361C 00000001     H   22216 22206B
 $$$499F       2 00003636 00000001     H   22251 22229B
 $$$500B       4 00003652 00000001     I   22290 22373
 $$$500F       2 000036D2 00000001     H   22367 22290B 22372
1FLOW     (FLOW2025) (12:45) (15MAR04) Ordinary Symbol and Literal Cross Reference                                          Page  207
 $$$501E       2 000036D6 00000001     H   22380 22374
 $$$501F       2 00003718 00000001     H   22419 22376B
 $$$502        1 000000A4 00000001 A   U   22447 22444  22446
 $$$504B       1 000038CC 00000001     X   22584 22591U
 $$$505F       2 000038FA 00000001     H   22658 22648B
 $$$506F       2 00003914 00000001     H   22693 22671B
 $$$507B       4 00003932 00000001     I   22735 22903
 $$$507F       2 000039F4 00000001     H   22897 22735B 22902
 $$$508B       4 0000395A 00000001     I   22767 22788
 $$$508F       2 0000396E 00000001     H   22784 22767B 22787
 $$$509B       4 00003978 00000001     I   22805 22825
 $$$509E       2 00003972 00000001     H   22795 22789
 $$$509F       2 0000398C 00000001     H   22822 22791B 22805B 22824
 $$$511E       2 00003990 00000001     H   22832 22826
 $$$511F       2 00003996 00000001     H   22838 22828B
 $$$512E       2 000039F8 00000001     H   22910 22904
 $$$512F       2 00003A7C 00000001     H   23034 22906B
 $$$513B       4 00003A10 00000001     I   22934 22955
 $$$513F       2 00003A24 00000001     H   22951 22934B 22954
 $$$514B       4 00003A2E 00000001     I   22972 22992
 $$$514E       2 00003A28 00000001     H   22962 22956
 $$$514F       2 00003A42 00000001     H   22989 22958B 22972B 22991
 $$$516E       2 00003A46 00000001     H   22999 22993
 $$$516F       2 00003A4C 00000001     H   23005 22995B
 $$$517        1 000000A8 00000001 A   U   23062 23059  23061
 $$$519B       1 00003AA6 00000001     X   23142 23149U
 $$$520F       2 00003ADA 00000001     H   23222 23212B
 $$$521B       4 00003AF6 00000001     I   23261 23334
 $$$521F       2 00003B5A 00000001     H   23328 23261B 23333
 $$$522E       2 00003B5E 00000001     H   23341 23335
 $$$522F       2 00003B82 00000001     H   23369 23337B
 $$$523        1 000000A0 00000001 A   U   23397 23394  23396
 $$$525B       1 00003BAC 00000001     X   23482 23489U
 $$$526F       2 00003BE0 00000001     H   23562 23552B
 $$$527F       2 00003BFA 00000001     H   23597 23575B
 $$$528B       4 00003C16 00000001     I   23636 23804
 $$$528F       2 00003CD8 00000001     H   23798 23636B 23803
 $$$529B       4 00003C3E 00000001     I   23668 23689
 $$$529F       2 00003C52 00000001     H   23685 23668B 23688
 $$$530B       4 00003C5C 00000001     I   23706 23726
 $$$530E       2 00003C56 00000001     H   23696 23690
 $$$530F       2 00003C70 00000001     H   23723 23692B 23706B 23725
 $$$532E       2 00003C74 00000001     H   23733 23727
 $$$532F       2 00003C7A 00000001     H   23739 23729B
 $$$533E       2 00003CDC 00000001     H   23811 23805
 $$$533F       2 00003D60 00000001     H   23935 23807B
 $$$534B       4 00003CF4 00000001     I   23835 23856
 $$$534F       2 00003D08 00000001     H   23852 23835B 23855
 $$$535B       4 00003D12 00000001     I   23873 23893
 $$$535E       2 00003D0C 00000001     H   23863 23857
 $$$535F       2 00003D26 00000001     H   23890 23859B 23873B 23892
 $$$537E       2 00003D2A 00000001     H   23900 23894
 $$$537F       2 00003D30 00000001     H   23906 23896B
 $$$538        1 000000A8 00000001 A   U   23963 23960  23962
 $$$540B       1 00003D8A 00000001     X   24045 24052U
 $$$541F       2 00003DB8 00000001     H   24119 24109B
 $$$542B       4 00003DD6 00000001     I   24161 24268
 $$$542F       2 00003E7E 00000001     H   24262 24161B 24267
 $$$543E       2 00003E82 00000001     H   24275 24269
1FLOW     (FLOW2025) (12:45) (15MAR04) Ordinary Symbol and Literal Cross Reference                                          Page  208
 $$$543F       2 00003EEA 00000001     H   24337 24271B
 $$$544        1 000000C4 00000001 A   U   24365 24362  24364
 $$$546B       1 00003FA8 00000001     X   24485 24492U
 $$$547F       2 00003FD6 00000001     H   24559 24549B
 $$$548F       2 00003FFE 00000001     H   24614 24592B
 $$$549F       2 0000401E 00000001     H   24645 24631B
 $$$550        1 000000A0 00000001 A   U   24735 24732  24734
 $$$552B       1 000040AC 00000001     X   24818 24825U
 $$$553F       2 000040E0 00000001     H   24898 24888B
 $$$554F       2 000040FA 00000001     H   24933 24911B
 $$$555B       4 00004116 00000001     I   24972 25116
 $$$555F       2 000041C2 00000001     H   25110 24972B 25115
 $$$556B       4 00004140 00000001     I   25006 25027
 $$$556F       2 00004154 00000001     H   25023 25006B 25026
 $$$557E       2 00004158 00000001     H   25034 25028
 $$$557F       2 00004164 00000001     H   25051 25030B 25042B
 $$$559E       2 000041C6 00000001     H   25123 25117
 $$$559F       2 00004234 00000001     H   25224 25119B
 $$$560B       4 000041E0 00000001     I   25150 25171
 $$$560F       2 000041F4 00000001     H   25167 25150B 25170
 $$$561E       2 000041F8 00000001     H   25178 25172
 $$$561F       2 00004204 00000001     H   25195 25174B 25186B
 $$$563        1 000000A8 00000001 A   U   25252 25249  25251
 $$$565B       1 0000425E 00000001     X   25330 25337U
 $$$566B       4 0000427A 00000001     I   25386 25518
 $$$566F       2 000042EE 00000001     H   25512 25386B 25517
 $$$567F       2 0000429A 00000001     H   25423 25401B
 $$$568F       2 000042CA 00000001     H   25487 25435B
 $$$569B       4 000042F4 00000001     I   25533 25585
 $$$569E       2 000042F2 00000001     H   25525 25519
 $$$569F       2 00004314 00000001     H   25579 25521B 25533B 25584
 $$$571E       2 00004318 00000001     H   25592 25586
 $$$571F       2 0000431E 00000001     H   25608 25588B 25600B
 $$$573        1 0000008C 00000001 A   U   25640 25637  25639
 $$$575B       1 00004354 00000001     X   25729 25736U
 $$$576F       2 00004478 00000001     H   26112 25785B
 $$$576S       2 00004378 00000001     H   25782 26111B
 $$$579F       2 00004466 00000001     H   26101 25886B
 $$$580B       4 00004400 00000001     I   25905 25922
 $$$580F       2 0000440A 00000001     H   25918 25905B 25921
 $$$581B       4 00004412 00000001     I   25940 25957
 $$$581E       2 0000440E 00000001     H   25929 25923
 $$$581F       2 0000441C 00000001     H   25953 25925B 25940B 25956
 $$$583B       4 00004424 00000001     I   25975 25992
 $$$583E       2 00004420 00000001     H   25964 25958
 $$$583F       2 0000442E 00000001     H   25988 25960B 25975B 25991
 $$$585B       4 00004436 00000001     I   26010 26027
 $$$585E       2 00004432 00000001     H   25999 25993
 $$$585F       2 00004440 00000001     H   26023 25995B 26010B 26026
 $$$587B       4 00004448 00000001     I   26045 26062
 $$$587E       2 00004444 00000001     H   26034 26028
 $$$587F       2 00004452 00000001     H   26058 26030B 26045B 26061
 $$$589E       2 00004456 00000001     H   26069 26063
 $$$589F       2 00004464 00000001     H   26093 26065B 26080B
 $$$591        1 00000060 00000001 A   U   26173 26170  26172
 $$$593B       1 00004746 00000001     X   26448 26455U
 $$$594        1 00000050 00000001 A   U   26482 26479  26481
 $$$596B       1 00004772 00000001     X   26512 26519U
 $$$597        1 00000050 00000001 A   U   26546 26543  26545
1FLOW     (FLOW2025) (12:45) (15MAR04) Ordinary Symbol and Literal Cross Reference                                          Page  209
 $$$599B       1 0000479E 00000001     X   26576 26583U
 $$$600        1 00000050 00000001 A   U   26613 26610  26612
 $$$602B       1 000047D2 00000001     X   26643 26650U
 $$$603        1 00000050 00000001 A   U   26680 26677  26679
 $$$605B       1 00004806 00000001     X   26710 26717U
 $$$606        1 00000050 00000001 A   U   26747 26744  26746
 $$$608B       1 0000483A 00000001     X   26777 26784U
 $$$609        1 00000050 00000001 A   U   26814 26811  26813
 $$$611B       1 0000486E 00000001     X   26844 26851U
 $$$612        1 00000050 00000001 A   U   26881 26878  26880
 $$$614B       1 000048A2 00000001     X   26911 26918U
 $$$615        1 00000050 00000001 A   U   26948 26945  26947
 $$$617B       1 000048D6 00000001     X   26978 26985U
 $$$618        1 00000050 00000001 A   U   27044 27041  27043
 $$$620B       1 00004922 00000001     X   27074 27081U
 $$$621        1 00000050 00000001 A   U   27121 27118  27120
 $$$623B       1 0000495C 00000001     X   27151 27158U
 $$$624        1 00000050 00000001 A   U   27227 27224  27226
 $$$626B       1 000049BE 00000001     X   27257 27264U
 $$$627        1 00000050 00000001 A   U   27322 27319  27321
 $$$629B       1 00004A0A 00000001     X   27352 27359U
 $$$630        1 00000050 00000001 A   U   27417 27414  27416
 $$$632B       1 00004A56 00000001     X   27447 27454U
 $$$633        1 00000050 00000001 A   U   27512 27509  27511
 $$$635B       1 00004AA2 00000001     X   27542 27549U
 $$$636        1 00000050 00000001 A   U   27607 27604  27606
 $$$638B       1 00004AEE 00000001     X   27640 27647U
 $$$639        1 00000050 00000001 A   U   27734 27731  27733
 $$$641B       1 00004E22 00000001     X   27859 27866U
 $$$642F       2 00004E3A 00000001     H   27917 27892B 27903B
 $$$642S       2 00004E22 00000001     H   27882 27916B
 $$$645B       4 00004E44 00000001     I   27942 27960
 $$$645F       2 00004E4E 00000001     H   27955 27931B 27942B 27957
 $$$646B       4 00004E3E 00000001     I   27931 27958
 $$$647E       2 00004E52 00000001     H   27967 27959  27961
 $$$647F       2 00004E7A 00000001     H   28008 27963B
 $$$648        1 00000050 00000001 A   U   28040 28037  28039
 $$$650B       1 00004EB0 00000001     X   28077 28084U
 $$$651F       2 00004ECC 00000001     H   28155 28104B
 $$$652        6 000053B0 00000001     I   28128 28120X
 $$$653        6 000053B0 00000001     I   28127 28128  28128
 $$$654F       2 00004ECA 00000001     H   28150 28141B
 $$$655B       4 00004ECE 00000001     I   28167 28195
 $$$655F       2 00004EE2 00000001     H   28189 28167B 28194
 $$$656B       4 00004EEA 00000001     I   28212 28239
 $$$656E       2 00004EE6 00000001     H   28202 28196
 $$$656F       2 00004F00 00000001     H   28233 28198B 28212B 28238
 $$$658B       4 00004F08 00000001     I   28256 28283
 $$$658E       2 00004F04 00000001     H   28246 28240
 $$$658F       2 00004F1E 00000001     H   28277 28242B 28256B 28282
 $$$660B       4 00004F26 00000001     I   28300 28327
 $$$660E       2 00004F22 00000001     H   28290 28284
 $$$660F       2 00004F3C 00000001     H   28321 28286B 28300B 28326
 $$$662B       4 00004F44 00000001     I   28344 28362
 $$$662E       2 00004F40 00000001     H   28334 28328
 $$$662F       2 00004F4E 00000001     H   28357 28330B 28344B 28361
 $$$664E       2 00004F52 00000001     H   28369 28363
 $$$664F       2 00004F54 00000001     H   28376 28365B
 $$$665        1 00000050 00000001 A   U   28401 28398  28400
1FLOW     (FLOW2025) (12:45) (15MAR04) Ordinary Symbol and Literal Cross Reference                                          Page  210
 $$$667B       1 00004F82 00000001     X   28438 28445U
 $$$668F       2 00004F9E 00000001     H   28516 28465B
 $$$669        6 000053B6 00000001     I   28489 28481X
 $$$670        6 000053B6 00000001     I   28488 28489  28489
 $$$671F       2 00004F9C 00000001     H   28511 28502B
 $$$672B       4 00004FA0 00000001     I   28528 28556
 $$$672F       2 00004FB4 00000001     H   28550 28528B 28555
 $$$673B       4 00004FBC 00000001     I   28573 28592
 $$$673E       2 00004FB8 00000001     H   28563 28557
 $$$673F       2 00004FC6 00000001     H   28586 28559B 28573B 28591
 $$$675B       4 00004FCE 00000001     I   28609 28632
 $$$675E       2 00004FCA 00000001     H   28599 28593
 $$$675F       2 00004FDE 00000001     H   28626 28595B 28609B 28631
 $$$677B       4 00004FE6 00000001     I   28649 28672
 $$$677E       2 00004FE2 00000001     H   28639 28633
 $$$677F       2 00004FF6 00000001     H   28666 28635B 28649B 28671
 $$$679B       4 00004FFE 00000001     I   28689 28711
 $$$679E       2 00004FFA 00000001     H   28679 28673
 $$$679F       2 0000500E 00000001     H   28706 28675B 28689B 28710
 $$$681E       2 00005012 00000001     H   28718 28712
 $$$681F       2 00005014 00000001     H   28725 28714B
 $$$682        1 00000050 00000001 A   U   28750 28747  28749
 $$$684B       1 00005042 00000001     X   28787 28794U
 $$$685F       2 0000505E 00000001     H   28865 28814B
 $$$686        6 000053BC 00000001     I   28838 28830X
 $$$687        6 000053BC 00000001     I   28837 28838  28838
 $$$688F       2 0000505C 00000001     H   28860 28851B
 $$$689B       4 00005060 00000001     I   28877 28905
 $$$689F       2 00005074 00000001     H   28899 28877B 28904
 $$$690B       4 0000507C 00000001     I   28922 28945
 $$$690E       2 00005078 00000001     H   28912 28906
 $$$690F       2 0000508C 00000001     H   28939 28908B 28922B 28944
 $$$692B       4 00005094 00000001     I   28962 28981
 $$$692E       2 00005090 00000001     H   28952 28946
 $$$692F       2 0000509E 00000001     H   28975 28948B 28962B 28980
 $$$694B       4 000050A6 00000001     I   28998 29021
 $$$694E       2 000050A2 00000001     H   28988 28982
 $$$694F       2 000050B6 00000001     H   29015 28984B 28998B 29020
 $$$696B       4 000050BE 00000001     I   29038 29060
 $$$696E       2 000050BA 00000001     H   29028 29022
 $$$696F       2 000050CE 00000001     H   29055 29024B 29038B 29059
 $$$698E       2 000050D2 00000001     H   29067 29061
 $$$698F       2 000050D4 00000001     H   29074 29063B
 $$$699        1 00000050 00000001 A   U   29099 29096  29098
 $$$701B       1 00005202 00000001     X   29161 29168U
 $$$702F       2 000052EC 00000001     H   29327 29255B
 $$$702S       2 00005272 00000001     H   29249 29326B
 $$$704        1 00000050 00000001 A   U   29358 29355  29357
 $$$706B       1 000053DC 00000001     X   29456 29463U
 $$$707F       2 0000552A 00000001     H   29762 29500B
 $$$708F       2 00005408 00000001     H   29529 29519B
 $$$709F       2 000054A4 00000001     H   29652 29550B
 $$$710F       2 000054A4 00000001     H   29648 29626B
 $$$711B       4 0000551C 00000001     I   29729 29744
 $$$711F       2 00005522 00000001     H   29741 29729B 29743
 $$$712E       2 00005526 00000001     H   29751 29745
 $$$712F       2 0000552A 00000001     H   29757 29747B
 $$$713        1 0000006C 00000001 A   U   29786 29783  29785
 $$$715B       1 00005552 00000001     X   29833 29840U
1FLOW     (FLOW2025) (12:45) (15MAR04) Ordinary Symbol and Literal Cross Reference                                          Page  211
 $$$716F       2 0000556E 00000001     H   29888 29876B
 $$$717F       2 000056D2 00000001     H   30215 29898B
 $$$718F       2 00005588 00000001     H   29927 29917B
 $$$719F       2 00005624 00000001     H   30050 29948B
 $$$720F       2 00005624 00000001     H   30046 30024B
 $$$721B       4 0000569C 00000001     I   30127 30142
 $$$721F       2 000056A2 00000001     H   30139 30127B 30141
 $$$722E       2 000056A6 00000001     H   30149 30143
 $$$722F       2 000056D2 00000001     H   30210 30145B
 $$$723        1 0000006C 00000001 A   U   30239 30236  30238
 $$$725B       1 000056FA 00000001     X   30284 30291U
 $$$726F       2 00005714 00000001     H   30338 30326B
 $$$727F       2 00005764 00000001     H   30452 30350B
 $$$728F       2 0000572E 00000001     H   30377 30367B
 $$$729B       4 00005742 00000001     I   30397 30412
 $$$729F       2 00005748 00000001     H   30409 30397B 30411
 $$$730E       2 0000574C 00000001     H   30419 30413
 $$$730F       2 00005764 00000001     H   30448 30415B
 $$$731F       2 00005760 00000001     H   30443 30433B
 $$$732        1 0000006C 00000001 A   U   30476 30473  30475
 $$$734B       1 0000578C 00000001     X   30521 30528U
 $$$735F       2 000057A6 00000001     H   30575 30563B
 $$$736F       2 000057F6 00000001     H   30689 30587B
 $$$737F       2 000057C0 00000001     H   30614 30604B
 $$$738B       4 000057D4 00000001     I   30634 30649
 $$$738F       2 000057DA 00000001     H   30646 30634B 30648
 $$$739E       2 000057DE 00000001     H   30656 30650
 $$$739F       2 000057F6 00000001     H   30685 30652B
 $$$740F       2 000057F2 00000001     H   30680 30670B
 $$$741        1 0000006C 00000001 A   U   30713 30710  30712
 $$$743B       1 0000581E 00000001     X   30758 30765U
 $$$744F       2 00005838 00000001     H   30812 30800B
 $$$745B       4 0000583A 00000001     I   30824 30920
 $$$745F       2 0000588C 00000001     H   30915 30824B 30919
 $$$746F       2 00005852 00000001     H   30851 30841B
 $$$747F       2 0000588C 00000001     H   30911 30871B
 $$$748E       2 00005890 00000001     H   30927 30921
 $$$748F       2 000058B2 00000001     H   30964 30923B
 $$$749        1 0000006C 00000001 A   U   30992 30989  30991
 $$$751B       1 000058DC 00000001     X   31037 31044U
 $$$752F       2 000058F6 00000001     H   31091 31079B
 $$$753F       2 00005946 00000001     H   31205 31103B
 $$$754F       2 00005910 00000001     H   31130 31120B
 $$$755B       4 00005924 00000001     I   31150 31165
 $$$755F       2 0000592A 00000001     H   31162 31150B 31164
 $$$756E       2 0000592E 00000001     H   31172 31166
 $$$756F       2 00005946 00000001     H   31201 31168B
 $$$757F       2 00005942 00000001     H   31196 31186B
 $$$758        1 0000006C 00000001 A   U   31229 31226  31228
 $$$760B       1 0000596E 00000001     X   31277 31284U
 $$$761F       2 0000598C 00000001     H   31332 31320B
 $$$762B       4 0000598E 00000001     I   31344 31508
 $$$762F       2 00005A3A 00000001     H   31503 31344B 31507
 $$$763F       2 000059A6 00000001     H   31371 31361B
 $$$764F       2 00005A3A 00000001     H   31499 31391B
 $$$765E       2 00005A3E 00000001     H   31515 31509
 $$$765F       2 00005A96 00000001     H   31595 31511B
 $$$766        1 0000006C 00000001 A   U   31623 31620  31622
 $$$768B       1 00005AC0 00000001     X   31670 31677U
1FLOW     (FLOW2025) (12:45) (15MAR04) Ordinary Symbol and Literal Cross Reference                                          Page  212
 $$$769B       4 00005B2C 00000001     I   31758 31776
 $$$769F       2 00005B32 00000001     H   31770 31758B 31775
 $$$770B       4 00005B3C 00000001     I   31793 31877
 $$$770E       2 00005B36 00000001     H   31783 31777
 $$$770F       2 00005B80 00000001     H   31871 31779B 31793B 31876
 $$$772E       2 00005B84 00000001     H   31884 31878
 $$$772F       2 00005B94 00000001     H   31906 31880B 31894B
 $$$774        1 00000050 00000001 A   U   31925 31922  31924
 $$$776B       1 00005BBC 00000001     X   32000 32007U
 $$$777        1 00000070 00000001 A   U   32082 32079  32081
 $$$779B       1 00005C0E 00000001     X   32156 32163U
 $$$780F       2 00005C3A 00000001     H   32245 32224B 32236B
 $$$782        1 00000070 00000001 A   U   32269 32266  32268
 $$$784B       1 00005E3A 00000001     X   32373 32380U
 $$$785F       2 00005E98 00000001     H   32444 32434B
 $$$786B       4 00005E9C 00000001     I   32457 32473
 $$$786F       2 00005EA2 00000001     H   32470 32457B 32472
 $$$787E       2 00005EA6 00000001     H   32480 32474
 $$$787F       2 00005EAA 00000001     H   32487 32476B
 $$$788        1 00000050 00000001 A   U   32505 32502  32504
 $$$790B       1 00006152 00000001     X   32779 32786U
 $$$791F       2 0000616C 00000001     H   32827 32805B
 $$$792        1 00000050 00000001 A   U   32846 32843  32845
 $$$794B       1 00006198 00000001     X   32876 32883U
 $$$795        1 00000050 00000001 A   U   32910 32907  32909
 $$$797B       1 000061C4 00000001     X   32940 32947U
 $$$798        1 00000050 00000001 A   U   33057 33054  33056
 $$$800B       1 00006238 00000001     X   33103 33110U
 $$$801F       2 00006300 00000001     H   33252 33185B
 $$$802F       2 00006300 00000001     H   33248 33204B
 $$$803        1 00000050 00000001 A   U   33286 33283  33285
 $$$805B       1 0000633C 00000001     X   33361 33368U
 $$$806B       4 000063B0 00000001     I   33468 33482
 $$$806F       2 000063C0 00000001     H   33479 33468B 33481
 $$$807E       2 000063C4 00000001     H   33489 33483
 $$$807F       2 0000649A 00000001     H   33718 33485B
 $$$808B       4 000063CC 00000001     I   33507 33521
 $$$808F       2 000063DC 00000001     H   33518 33507B 33520
 $$$809E       2 000063E0 00000001     H   33528 33522
 $$$809F       2 0000649A 00000001     H   33714 33524B
 $$$810B       4 00006412 00000001     I   33607 33639
 $$$810F       2 00006428 00000001     H   33626 33556B 33571B 33584B 33595B 33607B 33630
 $$$811B       4 000063F6 00000001     I   33556 33631
 $$$812B       4 000063FE 00000001     I   33571 33633
 $$$813B       4 00006406 00000001     I   33584 33635
 $$$814B       4 0000640C 00000001     I   33595 33637
 $$$815E       2 0000642C 00000001     H   33646 33632  33634  33636  33638  33640
 $$$815F       2 0000649A 00000001     H   33710 33642B
 $$$816        1 000000AC 00000001 A   U   33744 33741  33743
 $$$818B       1 0000652C 00000001     X   33823 33830U
 $$$819        1 00000050 00000001 A   U   33877 33874  33876
 $$$82B        1 0000003A 00000001     X    7487  7494U
 $$$821B       1 00006574 00000001     X   33921 33928U
 $$$822        1 00000050 00000001 A   U   33975 33972  33974
 $$$824B       1 000065BC 00000001     X   34019 34026U
 $$$825F       2 000065F8 00000001     H   34095 34063B
 $$$826F       2 000065F4 00000001     H   34090 34080B
 $$$827        1 00000050 00000001 A   U   34116 34113  34115
 $$$829B       1 00006624 00000001     X   34161 34168U
1FLOW     (FLOW2025) (12:45) (15MAR04) Ordinary Symbol and Literal Cross Reference                                          Page  213
 $$$83         1 00000050 00000001 A   U    7524  7521   7523
 $$$830F       2 00006650 00000001     H   34211 34202B
 $$$831        1 00000050 00000001 A   U   34232 34229  34231
 $$$833B       1 0000667C 00000001     X   34276 34283U
 $$$834F       2 0000669E 00000001     H   34326 34316B
 $$$835        1 00000050 00000001 A   U   34347 34344  34346
 $$$837B       1 000066EA 00000001     X   34417 34424U
 $$$838        1 00000050 00000001 A   U   34479 34476  34478
 $$$840B       1 00006738 00000001     X   34530 34537U
 $$$841F       2 00006776 00000001     H   34585 34570B
 $$$842F       2 0000677C 00000001     H   34602 34592B
 $$$843        1 00000050 00000001 A   U   34621 34618  34620
 $$$845B       1 000067A4 00000001     X   34670 34677U
 $$$846        1 00000050 00000001 A   U   34730 34727  34729
 $$$848B       1 000067E2 00000001     X   34784 34791U
 $$$849F       2 00006814 00000001     H   34847 34832B
 $$$85B        1 0000006A 00000001     X    7598  7605U
 $$$850        1 00000050 00000001 A   U   34866 34863  34865
 $$$852B       1 0000684E 00000001     X   34958 34965U
 $$$853F       2 0000687A 00000001     H   35023 35013B
 $$$854        1 00000070 00000001 A   U   35057 35054  35056
 $$$856B       1 000068B0 00000001     X   35129 35136U
 $$$857F       2 000068CA 00000001     H   35187 35177B
 $$$858        1 00000070 00000001 A   U   35221 35218  35220
 $$$86F        2 00000094 00000001     H    7678  7645B
 $$$860B       1 00006900 00000001     X   35294 35301U
 $$$861F       2 0000691A 00000001     H   35346 35336B
 $$$862        1 00000070 00000001 A   U   35374 35371  35373
 $$$864B       1 00006944 00000001     X   35441 35448U
 $$$865F       2 00006976 00000001     H   35514 35504B
 $$$866        1 00000070 00000001 A   U   35542 35539  35541
 $$$868B       1 000069A0 00000001     X   35590 35597U
 $$$869        1 00000050 00000001 A   U   35633 35630  35632
 $$$87F        2 000000BA 00000001     H    7724  7691B
 $$$871B       1 000069D4 00000001     X   35677 35684U
 $$$872F       2 00006A20 00000001     H   35796 35731B
 $$$873        1 00000050 00000001 A   U   35825 35822  35824
 $$$875B       1 00006A52 00000001     X   35861 35868U
 $$$876        1 00000050 00000001 A   U   35932 35929  35931
 $$$878B       1 00006AB4 00000001     X   35965 35972U
 $$$879        1 00000050 00000001 A   U   36037 36034  36036
 $$$88F        2 000000C4 00000001     H    7751  7741B
 $$$881B       1 00006B06 00000001     X   36067 36074U
 $$$882        1 00000050 00000001 A   U   36100 36097  36099
 $$$884B       1 00006B2E 00000001     X   36126 36133U
 $$$885        1 00000050 00000001 A   U   36159 36156  36158
 $$$887B       1 00006B56 00000001     X   36185 36192U
 $$$888        1 00000050 00000001 A   U   36218 36215  36217
 $$$89F        2 00000102 00000001     H    7807  7774B
 $$$90F        2 0000010C 00000001     H    7828  7818B
 $$$91B        4 00000114 00000001     I    7846  7902
 $$$91F        2 00000144 00000001     H    7897  7846B  7901
 $$$92F        2 00000140 00000001     H    7891  7862B
 $$$94E        2 00000148 00000001     H    7909  7903
 $$$94F        2 00000152 00000001     H    7916  7905B
 $$$95         1 00000070 00000001 A   U    7943  7940   7942
 $$$97B        1 0000017C 00000001     X    8010  8017U
 $$$98F        2 00000204 00000001     H    8131  8108B  8119B
 @RAR          0 00000000 FFFFFFF0     @    1124  2162   2170B
1FLOW     (FLOW2025) (12:45) (15MAR04) Ordinary Symbol and Literal Cross Reference                                          Page  214
 @R0           0 00000000 FFFFFFFE     @     706   982U
 @R1           0 00000000 FFFFFFFD     @     719   978U  2168   2169   8107   8623   8647   8710   8729   8735M  8754
                                                  8793   8827   8833M 12176  13103  13173  19340  19376  19515  19671
                                                 20084M 20085M 20086M 20087M 21151  21774  27891  27930  28211  28255
                                                 28299  28343  28572  28608  28648  28688  28921  28961  28997  29037
                                                 32044  32200  33203  33506  33583
 @R10          0 00000000 FFFFFFF4     @     836   942U
 @R11          0 00000000 FFFFFFF3     @     849   938U
 @R12          0 00000000 FFFFFFF2     @     862   934U
 @R13          0 00000000 FFFFFFF1     @     875   930U  8094  13466
 @R14          0 00000000 FFFFFFF0     @     888   926U
 @R15          0 00000000 FFFFFFEF     @     901   922U
 @R2           0 00000000 FFFFFFFC     @     732   974U  8871U
 @R3           0 00000000 FFFFFFFB     @     745   970U 19092  21074  21270  21599  21895  22205  22647  23211  23551
                                                 24108  24548  24887  29625  29728  30023  30126  30396  30633  30870
                                                 31149  31390  31792  31893
 @R4           0 00000000 FFFFFFFA     @     758   966U
 @R5           0 00000000 FFFFFFF9     @     771   962U
 @R6           0 00000000 FFFFFFF8     @     784   958U  7951U  8483U  9228U  9640U 10008U 10387U 10730U 11142U 11889U
                                                 13049U 13303U 14997U 15385U 15926U 17033U 17246U 17460U 17693U 17900U
                                                 18107U 21379U 22072U 22455U 23070U 23405U 23971U 24373U 24743U 25260U
                                                 25648U 27742U 32090U 32277U 33752U 34487U 34738U 34874U 35065U 35229U
                                                 35550U
 @R7           0 00000000 FFFFFFF7     @     797   954U  7513U  7932U  8464U  8852U  9209U  9621U  9989U 10368U 10711U
                                                 11123U 11406U 11870U 12208U 12458U 12711U 12889U 13284U 13473U 13785U
                                                 13849U 14041U 14211U 14550U 14882U 15366U 15907U 16816U 17014U 17227U
                                                 17441U 17674U 17881U 18088U 18318U 18551U 18680U 18776U 18941U 19131U
                                                 19252U 19427U 19585U 19709U 19966U 20099U 20189U 20279U 20363U 20462U
                                                 20561U 20843U 21360U 22053U 22436U 23051U 23386U 23952U 24354U 24724U
                                                 25241U 25629U 26162U 26471U 26535U 26602U 26669U 26736U 26803U 26870U
                                                 26937U 27033U 27110U 27216U 27311U 27406U 27501U 27596U 27723U 28029U
                                                 28390U 28739U 29088U 29347U 29775U 30228U 30465U 30702U 30981U 31218U
                                                 31612U 31914U 32071U 32258U 32494U 32835U 32899U 33046U 33275U 33733U
                                                 33866U 33964U 34105U 34221U 34336U 34468U 34610U 34719U 34855U 35046U
                                                 35210U 35363U 35531U 35622U 35814U 35921U 36026U 36089U 36148U 36207U
 @R8           0 00000000 FFFFFFF6     @     810   950U  7927U  8459U  8847U  9204U  9616U  9984U 10363U 10706U 11118U
                                                 11865U 12453U 12706U 13279U 14545U 14877U 15361U 15902U 16811U 19247U
                                                 20838U 21355U 22048U 22431U 23046U 23381U 23947U 24349U 24719U 25236U
                                                 25624U 26157U 29770U 30223U 30460U 30697U 30976U 31213U 31607U 32066U
                                                 32253U 33728U 35041U 35205U 35358U 35526U
 @R9           0 00000000 FFFFFFF5     @     823   946U
 ABSCENT       1 00000000 00000000 A   T    2178  2178
 ASCTBL        1 00000000 00000000 A   T    2186  2186
 BADBEGIN      2 000061AA 00000001     H   32921 32556  32571  32586  32601  32616  32631  32646  32661  32676  32691
                                                 32706  32721  32736
 BADCMD        2 0000183E 00000001     H   13871 13535  13550  13565  13580  13595  13610  13625  13640  13655  13670
                                                 13685  13700  13715
 BEGIN         2 00000CC6 00000001     H   11222 11218
 BEGINPRT      4 00005EB8 00000001     F   32514 33762
 BLTBL         1 00000000 00000000 A   T    2188  2188
 BR            7 00000007 00000001 A   #    1014  7482M  7593M  8005M  8537M  8925M  9282M  9694M 10062M 10441M 10784M
                                                 11236M 11472M 11923M 12274M 12524M 12752M 13012M 13346M 13753M 13821M
                                                 13885M 14087M 14284M 14623M 14960M 15452M 16089M 16859M 17064M 17277M
                                                 17491M 17724M 17931M 18183M 18523M 18584M 18713M 18809M 18991M 19203M
                                                 19302M 19477M 19633M 19761M 20013M 20150M 20240M 20328M 20414M 20513M
                                                 20674M 20920M 21444M 22137M 22579M 23137M 23477M 24040M 24480M 24813M
                                                 25325M 25724M 26443M 26507M 26571M 26638M 26705M 26772M 26839M 26906M
                                                 26973M 27069M 27146M 27252M 27347M 27442M 27537M 27635M 27854M 28072M
                                                 28433M 28782M 29156M 29451M 29828M 30279M 30516M 30753M 31032M 31272M
1FLOW     (FLOW2025) (12:45) (15MAR04) Ordinary Symbol and Literal Cross Reference                                          Page  215
                                                 31665M 31995M 32151M 32368M 32774M 32871M 32935M 33098M 33356M 33818M
                                                 33916M 34014M 34156M 34271M 34412M 34525M 34665M 34779M 34953M 35124M
                                                 35289M 35436M 35585M 35672M 35856M 35960M 36062M 36121M 36180M
 CASE          2 0000089C 00000001     H   10768 10764
 CASEFLOW     32 00000000 FFFFFFD9     X   10751 10823
 CASES         2 000007B4 00000001     H   10425 10421
 CASESFLW     32 00000000 FFFFFFDA     X   10408 10480
 CASESWA      32 00000000 FFFFFFDA     J   10415 10438  10467U 10719  10721  10722
 CASEWA       32 00000000 FFFFFFD9     J   10758 10781  10810U 11131  11133  11134
 CHECKEND      1 00000000 00000020     T   29370 29370  36243
 CHECKIOB      1 00000000 00000000 A   T    2234  2234
 CHECKPRT      4 00001560 00000001     F   13493 15945
 CHKAREA       4 00000004 FFFFFFC2     F   29417 29481M 29507  29858M 29905  30309M 30355  30421  30546M 30592  30658
                                                 30783M 30829  31062M 31108  31174  31303M 31349
 CHKBEGIN      2 000014AC 00000001     H   13332 11169
 CHKCASE       2 000058C2 00000001     H   31016 27760
 CHKDEF        2 00005BA2 00000001     H   31979 22491  27771
 CHKDNTRY     32 00000000 FFFFFFC1     X   31963 32034
 CHKDWA       32 00000000 FFFFFFC1     J   31970 31992  32021U 32079  32081  32082
 CHKELSE       2 000056E0 00000001     H   30263 24400
 CHKELSF       2 00005772 00000001     H   30500 24402
 CHKEND        2 00005954 00000001     H   31256 27762
 CHKINFO       4 00000000 FFFFFFC2     F   29416 31302M 31434  31555
 CHKLABEL      2 00005AA6 00000001     H   31651 12929  27770
 CHKLPTR       4 00000008 FFFFFFC2     F   29418 29482M 29508  29859M 29906  30310M 30356  30422  30547M 30593  30659
                                                 30784M 30830  31063M 31109  31175  31304M 31350  31477
 CHKOPTS       2 000018CE 00000001     H   14073 11179  15949  32310  33765
 CHKPDEF       2 00005BF4 00000001     H   32135 32131
 CHKPNTRY     32 00000000 FFFFFFC0     X   32118 32190
 CHKPROC       2 00005538 00000001     H   29812 22479
 CHKPWA       32 00000000 FFFFFFC0     J   32125 32148  32177U 32266  32268  32269
 CHKTEMP      16 0000000C FFFFFFC2     X   29419 29533  29931
 CHKUNTIL      2 00005804 00000001     H   30737 24407
 CHKWA        28 00000000 FFFFFFC2     J   29426 29448  29477U 29783  29785  29786  29825  29854U 30236  30238  30239
                                                 30276  30305U 30473  30475  30476  30513  30542U 30710  30712  30713
                                                 30750  30779U 30989  30991  30992  31029  31058U 31226  31228  31229
                                                 31269  31298U 31620  31622  31623
 CHKXPROC      2 000053C2 00000001     H   29435 22477
 CMDBEGIN      2 000017E0 00000001     H   13739 13520
 COMMAND       1 00000000 00000000 A   T    2174  2174
 COMMSEG       1 00000000 00000000 A   T    2175  2175
 CP         4096 00000000 FFFFFFEC     J    6188  1163U
 CP#XLOAD      4 00000784 FFFFFFEC     F    4155 20713  20719  21212  21837  27189  27692  31432  31475  31553  32050
                                                 33841  33939  34040  34181  34295  34549  35754  35786
 CP#XSET       4 00000778 FFFFFFEC     F    4151 34446  35490
 CP#XSTK       1 00000010 FFFFFFEC A   U    3920  3921
 CP#XTEMP      1 00000004 FFFFFFEC A   U    3919 20438  20537
 CPACFLG       1 000005D5 FFFFFFEC     R    4023  4027   4032   4037   4042   4047
 CPACFLN       4 000005C4 FFFFFFEC     F    4015  4050   4050
 CPAFLAG       1 000005C3 FFFFFFEC     R    3987  3991   3996   4001   4006
 CPANAME       8 00000588 FFFFFFEC     C    3969  4065   4065
 CPAUTFLG      1 000008A9 FFFFFFEC     R    4333  4337   4342   4347   4352
 CPCHFLAG      1 00000B68 FFFFFFEC     R    4960  4964
 CPCMD       235 00000242 FFFFFFEC     C    2813 12176M 12188
 CPCMDLEN      2 00000240 FFFFFFEC     H    2812 12148M
 CPDFLG        1 0000084C FFFFFFEC     R    4220  4224   4229   4234   4239   4244
 CPDFLG2       1 0000084D FFFFFFEC     R    4249  4253   4258   4263   4268   4273   4278
 CPDOUB        8 00000C88 FFFFFFEC     D    5206 19834  19914
 CPEXEC       32 000004A4 FFFFFFEC     X    3894 20437  20445  20536  20544
1FLOW     (FLOW2025) (12:45) (15MAR04) Ordinary Symbol and Literal Cross Reference                                          Page  216
 CPEXFLG       1 00000758 FFFFFFEC     R    4089  4093
 CPEXFLG2      1 00000759 FFFFFFEC     R    4099  4108   4118
 CPEXFLG3      1 0000075A FFFFFFEC     R    4125  4129   4134
 CPEXLINE      4 0000075C FFFFFFEC     F    4142  7761   8293   9081   9450   9862  10230  10609  10952  11614
 CPEXNEXT      4 00000760 FFFFFFEC     F    4143  7851M  7911M  8383M  8443M  9151M  9540M  9600M 10320M 10343M 11042M
                                                 11102M 11721M 12445M
 CPEXTFLG      1 00000E28 FFFFFFEC     R    5771  5775   5780   5785   5790   5795   5800
 CPFABORT    128 00000D5A FFFFFFEC         5537  2138M  2138   2143M  2143
 CPFERROR     64 00000D5A FFFFFFEC         5542  2137M  2137   2142M  2142
 CPFEXEC     128 00000758 FFFFFFEC         4093  7644   8149   8982   9333   9745  10113  10492  10835  11268  11523
                                                 11955  12325  12568  12786
 CPFNPREP      1 00000080 FFFFFFEC A   U    3585  7872   8205   8404   9020   9172   9561   9952  11063  12193  12824
 CPFNTEX       1 00000040 FFFFFFEC A   U    5389  5390
 CPFRDRNG      1 00000D88 FFFFFFEC     R    5657  5661   5666   5671   5676   5681   5686   5691
 CPFRDSRC      1 00000D89 FFFFFFEC     R    5696  5705   5715   5725
 CPFUNUM       1 00000080 FFFFFFEC A   U    5388  5390
 CPFXDFLG      1 000007E4 FFFFFFEC     R    4167  4171   4176
 CPFXOLD       2 00000759 FFFFFFEC         4118  7690   8161   8994   9379   9791  10159  10538  10881  11314  11559
                                                 12371  12614  12798
 CPFXTEND      1 00000759 FFFFFFEC         4108  7740   8272   9060   9429   9841  10209  10588  10931  11360  11587
                                                 12421  12664  12860
 CPFZAPIF     64 00000D5C FFFFFFEC         5577  8670M  8681M
 CPF4TRUE      1 00000020 FFFFFFEC A   U    3587  8198   8244   9008  12812
 CPGFLG1       1 00000474 FFFFFFEC     R    3530  3534   3539   3544   3549   3554   3884   3884
 CPGFLG10      1 0000047D FFFFFFEC     R    3767  3771   3776   3781   3786   3791   3796
 CPGFLG11      1 0000047E FFFFFFEC     R    3802  3806   3811
 CPGFLG12      1 0000047F FFFFFFEC     R    3817  3821   3826   3831
 CPGFLG13      1 00000480 FFFFFFEC     R    3837  3841
 CPGFLG14      1 00000481 FFFFFFEC     R    3847  3851   3856   3861   3866   3871
 CPGFLG4       1 00000477 FFFFFFEC     R    3583  3594   3603   3612   3621   3630   7874M  8200M  8207M  8246M  8406M
                                                  9010   9022M  9174M  9563M  9954M 11065M 12195M 12814  12826M
 CPGFLG5       1 00000478 FFFFFFEC     R    3636  3640   3645   3650   3655   3660   3665   3670   3675
 CPGFLG6       1 00000479 FFFFFFEC     R    3681  3685   3690   3695
 CPGFLG7       1 0000047A FFFFFFEC     R    3701  3705   3710   3715   3720
 CPGFLG8       1 0000047B FFFFFFEC     R    3726  3730   3735   3740   3745
 CPGFLG9       1 0000047C FFFFFFEC     R    3751  3755   3761
 CPINIT        1 00000174 FFFFFFEC     U    2700  6157
 CPJESFLG      1 000009E1 FFFFFFEC     R    4432  4436   4441   4446   4451   4456   4461   4466   4471
 CPJESFLY      1 000009FD FFFFFFEC     R    4482  4486   4491   4496
 CPJESHFL      1 000009E0 FFFFFFEC     R    4417  4421   4426   4505   4505
 CPLFLG10      1 00000D59 FFFFFFEC     R    5523  5527
 CPLFLG11      1 00000D5A FFFFFFEC     R    5533  5537   5542   5547   5552
 CPLFLG12      1 00000D5B FFFFFFEC     R    5558  5562
 CPLFLG14      1 00000D5C FFFFFFEC     R    5568  5572   5577   5582   5587   5592
 CPLFLG6       1 00000D55 FFFFFFEC     R    5398  5402   5407   5412   5417   5422   5427
 CPLFLG7       1 00000D56 FFFFFFEC     R    5433  5437   5442   5447   5452   5457
 CPLFLG8       1 00000D57 FFFFFFEC     R    5463  5467   5472   5477   5482
 CPLFLG9       1 00000D58 FFFFFFEC     R    5488  5492   5497   5502   5507   5512   5517
 CPLOCALZ      1 00000C48 FFFFFFEC     U    4990  6151   6151
 CPMFLG        1 0000084F FFFFFFEC     R    4287  4291
 CPMODFLG      1 00000C78 FFFFFFEC     R    5018  5022   5027   5032   5037   5042
 CPNAMELN      1 00000010 FFFFFFEC A   U    3913  4160
 CPNEDPFX     10 00000E29 FFFFFFEC     X    5804  5805   5806
 CPNSCANP      4 0000008C FFFFFFEC     A    2573  7877   8049   8055   8062   8077   8091   8210   8409   8579   9025
                                                  9177   9566   9957  11068  11762  11814  11994  12064  12071  12086
                                                 12829  13059  13066  13081  13371  13377  13384  13400  13463  13909
                                                 14110  14117  14132  15005  15146  15155  15162  15177  15252  15261
                                                 15268  15283  15344  15494  15647  15656  15663  15678  15760  15769
                                                 15776  15791  15879  18219  18228  18235  18251  18607  18631  18832
1FLOW     (FLOW2025) (12:45) (15MAR04) Ordinary Symbol and Literal Cross Reference                                          Page  217
                                                 18839  18854  18868  18892  19027  19036  19043  19058  19067  21017
                                                 21026  21033  21048  21062  21094  21101  21116  21222  21229  21244
                                                 21258  21542  21551  21558  21573  21587  21717  21724  21739  21847
                                                 21854  21869  21883  22193  22267  22635  22709  23199  23238  23539
                                                 23613  24096  24135  24536  24575  24875  24949  25807  25820  25827
                                                 25843  29201  29210  29217  29232  29280  29289  29296  29311  29568
                                                 29577  29584  29599  29613  29671  29680  29687  29702  29716  29966
                                                 29975  29982  29997  30011  30069  30078  30085  30100  30114  30384
                                                 30621  30858  31137  31378  31700  31709  31716  31731  31745  31800
                                                 32394  32401  32417  32958  33133  33142  33149  33164  33211  33218
                                                 33233  33256  33414  33423  33430  33445  33663  33672  33679  33694
 CPNUMFLG      1 00000C79 FFFFFFEC     R    5048  5060
 CPORVCMD      1 00000140 FFFFFFEC     R    2582  2586   2591   2596   2601   2606   2611   2616   2621   2626   2626
                                                  2677   2677
 CPORVFLG      1 00000149 FFFFFFEC     R    2633  2637   2642   2647   2652   2657   2662   2667   2672
 CPORVWF       1 00000150 FFFFFFEC     R    2685  2689
 CPOSCANX      4 00000CA8 FFFFFFEC     F    5217  5284   5284
 CPPLIMIT      1 00000008 FFFFFFEC A   U    4213  6985   7004   7023
 CPR          11 0000000B 00000001 A   #    1078  1163U
 CPRACBAD     16 000001FC FFFFFFEC         2751  2785   2785   2786   2786
 CPRACF1       1 000001FC FFFFFFEC     R    2732  2736   2741   2746   2751   2756   2761   2766   2771   2787
 CPRACPSW     32 000001FC FFFFFFEC         2746  2784   2784   2786   2786
 CPRACUND     64 000001FC FFFFFFEC         2741  2784   2784   2785   2785
 CPRCVCUR      4 00000730 FFFFFFEC     A    4068  4070   4070
 CPRFLG        1 000008AA FFFFFFEC     R    4358  4362   4367   4372   4377   4382   4387
 CPRGFC        4 0000078C FFFFFFEC     F    4157 20720  21213  21838  32051  34548  34556
 CPRGFLOW      4 00000780 FFFFFFEC     F    4153 34445  34453  35489
 CPRGLOAD      4 00000788 FFFFFFEC     F    4156 20714  27190  27693  31433  31476  31554  33842  33849  33940  33947
                                                 34039  34047  34180  34188  34294  34302  35755  35787
 CPS         254 00000344 FFFFFFEC     X    3502  3505   3506   3508   3508
 CPSACCT       5 000003B4 FFFFFFEC     C    3101  3264   3264
 CPSAMCOD      1 00000A22 FFFFFFEC     R    4554  4562   4572   4582   4591   4600   4609   4619   4628   4637
 CPSAMFLG      1 00000A21 FFFFFFEC     R    4514  4518   4523   4528   4533   4538   4543   4548   4659   4659
 CPSCNFLG      1 00000CD0 FFFFFFEC     R    5230  5241   5250   5261
 CPSCNF2       1 00000CD1 FFFFFFEC     R    5266  5270
 CPSCNMAX      1 00000014 FFFFFFEC A   U    5282  5283
 CPSCOPD       4 0000076C FFFFFFEC     F    4147 14483
 CPSCOPE       4 00000768 FFFFFFEC     F    4146 14469
 CPSCRI        2 00000434 FFFFFFEC     H    3491  3496   3496
 CPSEG        60 00000050 FFFFFFEC     X    2571  7663   7709   7792   8324   9112   9352   9398   9481   9764   9810
                                                  9893  10132  10178  10261  10511  10557  10640  10854  10900  10983
                                                 11287  11333  11385  11645  11974  12035  12117  12344  12390  12587
                                                 12633  14019  14177  14195  14381  14437  14514  14713  14769  14846
                                                 15208  15314  15597  15704  15722  15822  15840  19814  19849  19894
                                                 19929  21690  21972  25465  25557  27008  27184  27286  27381  27476
                                                 27571  27669  27687  27712  27986  30170  30188  30889  30942  31409
                                                 31427  31452  31470  31530  31548  31573  31826  31844  31862  32984
                                                 33002  33020  35715  35749  35781  35893  35994  36012
 CPSEGCOD      1 00000050 FFFFFFEC     R    2488  2497   2507   2517   2527   2537   2547   2557
 CPSEGLENF
               4 0000005C FFFFFFEC     A    2563 13979M 13979  13994
 CPSEGMRKF
               4 00000058 FFFFFFEC     A    2562 13994
 CPSFL         1 00000384 FFFFFFEC     R    2839  2843   2848   2853   2858   2863
 CPSFLG        1 000003F8 FFFFFFEC     R    3379  3383   3388   3393   3398   3403   3408   3413   3418
 CPSFLG2       1 000003F9 FFFFFFEC     R    3424  3428   3433   3438
 CPSFL2        1 00000385 FFFFFFEC     R    2869  2873   2878   2883   2888
 CPSFL3        1 00000386 FFFFFFEC     R    2894  2898   2903   2908
 CPSFL4        1 00000387 FFFFFFEC     R    2914  2918   2923   2928
1FLOW     (FLOW2025) (12:45) (15MAR04) Ordinary Symbol and Literal Cross Reference                                          Page  218
 CPSFL5        1 00000388 FFFFFFEC     R    2934  2938   2943   2948
 CPSKAFL       1 000003BF FFFFFFEC     R    3235  3239   3244   3249   3254   3259
 CPSKIFL       1 000003BE FFFFFFEC     R    3190  3194   3199   3204   3209   3214   3219   3224   3229
 CPSOF         1 000001F8 FFFFFFEC     X    2722  2724   2724
 CPSOFLAG      1 00000416 FFFFFFEC     R    3449  3453   3458   3463   3468   3473
 CPSOPST       4 000003C4 FFFFFFEC     F    3269  3498   3498
 CPSPORT       8 00000354 FFFFFFEC     C    2833  2953   2953
 CPSQFLG       1 000003EC FFFFFFEC     R    3298  3302
 CPSSFLG       1 000003BB FFFFFFEC     R    3108  3112   3117   3122   3127   3132   3137
 CPSSTART      4 00000344 FFFFFFEC     F    2825  2829   2829   3265   3265   3370   3370   3502   3502
 CPSSTAT       1 0000038F FFFFFFEC     R    3045  3049   3054   3059   3064   3069   3074   3079
 CPSTACF       1 000003BC FFFFFFEC     R    3143  3147   3152   3157   3162   3167   3172   3177   3182
 CPSTART       4 00000000 FFFFFFEC     C    2461  6155   6159
 CPSTFLAG      1 000003EA FFFFFFEC     R    3276  3280   3285   3290
 CPSTYPE       1 0000038C FFFFFFEC     R    2958  2967   2977   2987   2997   3007   3017   3027   3037
 CPSUFLG       1 000003EE FFFFFFEC     R    3313  3317   3322   3327   3332   3337   3342   3347   3352
 CPSUFLG2      1 000003EF FFFFFFEC     R    3358  3362   3367
 CPSVPGM       8 0000039C FFFFFFEC     C    3091  3097   3097
 CPS1ST        4 0000038C FFFFFFEC     F    2955  3500   3500
 CPTEMPP#      1 0000005F FFFFFFEC A   U    4408  4410
 CPTRMFL1      1 00000C7A FFFFFFEC     R    5066  5070   5075   5080   5204   5204
 CPTRMFL2      1 00000C7B FFFFFFEC     R    5086  5090   5095   5100   5105   5110   5115
 CPTRMFL3      1 00000C7C FFFFFFEC     R    5121  5125   5130   5135   5140   5145   5150   5155
 CPTRMFL4      1 00000C7D FFFFFFEC     R    5161  5165   5170   5175   5180   5185   5190   5195
 CPUSED        1 00000FBC FFFFFFEC A   U    6155  6156
 CPVACURS      8 00000AF0 FFFFFFEC     D    4933  4934   4935
 CPVCURS       8 00000AE0 FFFFFFEC     D    4927  4928   4929
 CPVFLAG       1 00000AC8 FFFFFFEC     R    4728  4732   4737   4742   4747   4752
 CPVFLAG2      1 00000AC9 FFFFFFEC     R    4758  4762   4767   4772   4777   4782   4787
 CPVFLAG3      1 00000ACA FFFFFFEC     R    4793  4797   4802   4807   4812   4817   4822
 CPVFLAG4      1 00000ACB FFFFFFEC     R    4828  4832   4837   4842
 CPVLFLAG      1 00000ACE FFFFFFEC     R    4897  4901   4906   4911
 CPVMODE       1 00000ACC FFFFFFEC     R    4850  4854   4859   4864   4869   4874   4879   4884   4889
 CPVTWID       2 00000AD0 FFFFFFEC     H    4917  4920   4920
 CPWK1         4 00000D60 FFFFFFEC     F    5601  5616   5639
 CPWK2         4 00000D64 FFFFFFEC     F    5602  5617   5631
 CPWK3         4 00000D68 FFFFFFEC     F    5603  5618   5632
 CPWK4         4 00000D6C FFFFFFEC     F    5604  5619   5633
 CPWK5         4 00000D70 FFFFFFEC     F    5605  5621   5626   5634
 CPWK6         4 00000D74 FFFFFFEC     F    5606  5622   5627   5635   5642   5644
 CPWK7         4 00000D78 FFFFFFEC     F    5607  5620   5636
 CPXFLAG       1 000007FD FFFFFFEC     R    4195  4199
 CPXSCOPD      4 00000774 FFFFFFEC     F    4149 14815
 CPXSCOPE      4 00000770 FFFFFFEC     F    4148 14801
 CPXSTATE      4 000007F8 FFFFFFEC     F    4189  4202   4202
 CV         4016 00000000 FFFFFFEE     J    2364  1172U
 CVABSENT      4 000007F0 FFFFFFEE     I    2153 13128B 13147B
 CVABSRTN      4 0000088C FFFFFFEE     V    2178  2153
 CVBLANKS    235 000004D8 FFFFFFEE     C    1958 34996
 CVBRMSK       1 00000751 FFFFFFEE     X    2094  2095   2096
 CVCFLAG       1 00000A00 FFFFFFEE     R    2259  2263   2268   2273   2278   2283
 CVCHKST       8 000009F0 FFFFFFEE     D    2249  2339   2339
 CVCHKST2      8 00000E28 FFFFFFEE     D    2342  2345   2345
 CVCOMRTN      4 0000087C FFFFFFEE     V    2174  2144
 CVDBGFLG      1 000004CC FFFFFFEE     R    1948  1952
 CVENT         4 0000074C FFFFFFEE     I    2092  7482B  7593B  8005B  8537B  8925B  9282B  9694B 10062B 10441B 10784B
                                                 11236B 11472B 11923B 12274B 12524B 12752B 13012B 13346B 13753B 13821B
                                                 13885B 14087B 14284B 14623B 14960B 15452B 16089B 16859B 17064B 17277B
                                                 17491B 17724B 17931B 18183B 18523B 18584B 18713B 18809B 18991B 19203B
1FLOW     (FLOW2025) (12:45) (15MAR04) Ordinary Symbol and Literal Cross Reference                                          Page  219
                                                 19302B 19477B 19633B 19761B 20013B 20150B 20240B 20328B 20414B 20513B
                                                 20674B 20920B 21444B 22137B 22579B 23137B 23477B 24040B 24480B 24813B
                                                 25325B 25724B 26443B 26507B 26571B 26638B 26705B 26772B 26839B 26906B
                                                 26973B 27069B 27146B 27252B 27347B 27442B 27537B 27635B 27854B 28072B
                                                 28433B 28782B 29156B 29451B 29828B 30279B 30516B 30753B 31032B 31272B
                                                 31665B 31995B 32151B 32368B 32774B 32871B 32935B 33098B 33356B 33818B
                                                 33916B 34014B 34156B 34271B 34412B 34525B 34665B 34779B 34953B 35124B
                                                 35289B 35436B 35585B 35672B 35856B 35960B 36062B 36121B 36180B
 CVENTBR       2 00000750 FFFFFFEE     I    2093  2094
 CVERRMSG      4 000007C8 FFFFFFEE     I    2137  7674B  7720B  7803B  8335B  9123B  9363B  9409B  9492B  9775B  9821B
                                                  9904B 10143B 10189B 10272B 10522B 10568B 10651B 10695B 10865B 10911B
                                                 10994B 11298B 11344B 11396B 11656B 11985B 12046B 12128B 12355B 12401B
                                                 12598B 12644B 12878B 14034B 14392B 14448B 14525B 14724B 14780B 14857B
                                                 15101B 15219B 15325B 19860B 19940B 35912B
 CVERROR       4 000007D6 FFFFFFEE     I    2142  2158B  8693B 12142B 13146B 35905B 36017B
 CVEXIRTN      4 0000077C FFFFFFEE     V    2122  2118
 CVEXNO        1 00000000 00000017     T   20593 20593
 CVFCHRKBPR
               8 000004C9 FFFFFFEE         1863  1879   1879
 CVFCHRKBSE
               4 000004C9 FFFFFFEE         1868  1879   1879
 CVFCHRKCPR
               2 000004C9 FFFFFFEE         1885  1901   1901
 CVFCHRKCSE
               1 000004C9 FFFFFFEE         1890  1901   1901
 CVFCHRUBPR
             128 000004C9 FFFFFFEE         1819  1835   1835
 CVFCHRUBSE
              64 000004C9 FFFFFFEE         1824  1835   1835
 CVFCHRUCPR
              32 000004C9 FFFFFFEE         1841  1857   1857
 CVFCHRUCSE
              16 000004C9 FFFFFFEE         1846  1857   1857
 CVFL          1 000004C4 FFFFFFEE     R    1615  1619   1624   1629   1634   1639   1644   1649   1654
 CVFL2         1 000004C5 FFFFFFEE     R    1660  1664   1669   1674   1679   1684   1689   1694   1699
 CVFL3         1 000004C6 FFFFFFEE     R    1705  1709   1714   1719   1724   1729   1734   1739   1744
 CVFL4         1 000004C7 FFFFFFEE     R    1750  1754   1759   1764   1769   1774   1779   1784
 CVFL5         1 000004C8 FFFFFFEE     R    1790  1794   1799   1804   1809
 CVFL6         1 000004C9 FFFFFFEE     R    1815  1819   1824   1836   1841   1846   1858   1863   1868   1880   1885
                                                  1890   1902
 CVHEAP#       1 00000200 FFFFFFEE A   U    1521  1522
 CVINVRTN      4 00000888 FFFFFFEE     V    2177  2147
 CVJESFLG      1 000004CA FFFFFFEE     R    1908  1912
 CVLNKRGS      4 00000780 FFFFFFEE     F    2124  2099M  2125  34578M 34840M
 CVLNKRTN      4 000007B0 FFFFFFEE     U    2125  2114M
 CVLOCK1       1 00000088 FFFFFFEE     R    1266  1270   1275
 CVLOCK2       1 00000089 FFFFFFEE     R    1280  1284
 CVLOCK3       1 0000008A FFFFFFEE     R    1289  1293
 CVLOCK4       1 0000008B FFFFFFEE     R    1298  1302
 CVLOGMOD      1 00000068 FFFFFFEE     R    1253  1257
 CVMACH        1 00000067 FFFFFFEE     R    1213  1217   1222   1227   1232   1237   1242   1247
 CVMAXLNO      4 0000015C FFFFFFEE     A    1407 16299  16652
 CVMILRTN      4 00000884 FFFFFFEE     V    2176  2156
 CVNEXT        4 000007DE FFFFFFEE     I    2144  7893B  7912B  8221B  8247B  8252B  8425B  8444B  9040B  9193B  9582B
                                                  9601B  9973B 10325B 10348B 10683B 11084B 11103B 11398B 11537B 11569B
                                                 11699B 11722B 12143B 12200B 12446B 12698B 12844B
 CVNOARTN      4 00000890 FFFFFFEE     V    2179  2150
 CVNWDATE      4 00000608 FFFFFFEE     F    1981  1985   1985
 CVNWMPG#      1 00000008 FFFFFFEE A   U    1983  1984
1FLOW     (FLOW2025) (12:45) (15MAR04) Ordinary Symbol and Literal Cross Reference                                          Page  220
 CVPFXRTN      1 00000000 00000000 A   T    2122  2122
 CVPGFLAG      1 00000A01 FFFFFFEE     R    2289  2293   2298   2303
 CVPIOSZ       1 00004F80 FFFFFFEE A   U    1352  1354
 CVPKONE      12 000005D0 FFFFFFEE     X    1961 13213
 CVPKZERO     12 000005C4 FFFFFFEE     X    1960 13231
 CVPPDBQH      4 0000009C FFFFFFEE     A    1310  1311
 CVPSFNO       1 000003E9 FFFFFFEE A   N    1474  1476
 CVPSLNO       1 000007CF FFFFFFEE A   N    1475  1476
 CVPXSZ        1 00000008 FFFFFFEE A   U    1353  1354
 CVR          12 0000000C 00000001 A   #    1091  1172U
 CVRKEY        1 00000008 FFFFFFEE A   U    2047  2048
 CVSEGRTN      4 00000880 FFFFFFEE     V    2175  2139
 CVSTACK#      1 00000080 FFFFFFEE A   U    1513  1514
 CVSTART       4 00000000 FFFFFFEE     C    1186  2357
 CVTRC         4 00000768 FFFFFFEE     I    2114  2100B 34579B 34841B
 CVTRCRTN      4 00000778 FFFFFFEE     V    2121  2115
 CVUSFNO       1 00000001 FFFFFFEE A   N    1481  1483
 CVUSLNO       1 000003E7 FFFFFFEE A   N    1482  1483
 CVVOL#        1 00000005 FFFFFFEE A   U    2332  2333
 CVWTOFLG      1 000004CB FFFFFFEE     R    1918  1922   1927   1932   1937   1942
 DEBUGSG       1 00000000 00000000 A   T    2075  2075
 DELFLOW       2 00006986 00000001     H   35571 35567
 DEV          12 00000000 FFFFFFEB     J    4713  4721
 DEVMAX#       1 00000002 FFFFFFEC A   U    4664  4721
 DEVTYPE       1 00000001 FFFFFFEB     R    4681  4690   4700
 DOTTBL        1 00000000 00000000 A   T    2191  2191
 DRENCFLG      1 00000F9F FFFFFFEC     R    6119  6123   6128   6133   6138   6143
 DRENPROT      1 00000F9E FFFFFFEC     R    6106  6114
 DSNON        40 00000E90 FFFFFFEC     C    5839  5840
 DSNWADSN     44 00000E5C FFFFFFEC     C    5826  5827   5828   5829   5838   5846   6077   6083   6085   6091   6094
                                                  6096   6099   6148
 DSNWAF4       1 00000F37 FFFFFFEC     R    5894  5898   5903   5908   5913   5918   5923   5928   5933
 DSNWAF5       1 00000F38 FFFFFFEC     R    5939  5943   5948   5953   5958   5963   5968   5973   5978
 DSNWAF6       1 00000F39 FFFFFFEC     R    5984  5988   5993   5998   6003   6008   6013   6018   6023
 DSNWAF7       1 00000F3A FFFFFFEC     R    6029  6033   6038   6043   6048
 DSNXG         1 00000004 FFFFFFEC A   U    5831  5833
 DSNXGL        1 00000003 FFFFFFEC A   U    5832  5833
 DSNXU         1 00000007 FFFFFFEC A   U    5833  5835
 DSNXUL        1 00000004 FFFFFFEC A   U    5834  5835
 DSSIZ         1 00000108 FFFFFFEC A   U    6077  6085   6094   6099
 EBCTBL        1 00000000 00000000 A   T    2187  2187
 EBCTBL7       1 00000000 00000000 A   T    2190  2190
 ECBLIST       1 00000000 00000000 A   T    2050  2050
 ECVAL       336 00000000 FFFFFFD5     X   12980 13054
 ECWA        336 00000000 FFFFFFD5     J   12987 13009  13038U 13292  13294  13295
 EDTCOM        1 00000000 0000000E     T   12930 12930
 EDTCOMMV      1 00000000 00000003     T   11170 11170  12934
 ELSE          2 000003D4 00000001     H    8909  8905
 ELSEFLOW     32 00000000 FFFFFFDE     X    8892  8964
 ELSEIF        2 000004B4 00000001     H    9266  9262
 ELSEWA       32 00000000 FFFFFFDE     J    8899  8922   8951U  9217   9219   9220
 END           2 00000D66 00000001     H   11456 11452
 ENDFLOW      32 00000000 FFFFFFD8     X   11439 11511
 ENDWA        32 00000000 FFFFFFD8     J   11446 11469  11498U 11878  11880  11881
 EPARTBL       1 00000000 00000000 A   T    2182  2182
 EVALCOND      2 000013B0 00000001     H   12996 11168
 EVALEXPR      1 00000000 00000014     T   15941 15941
 FCBEGIN       2 00006B3C 00000001     H   36166 27787
 FCCASE        2 00004092 00000001     H   24797 27761
1FLOW     (FLOW2025) (12:45) (15MAR04) Ordinary Symbol and Literal Cross Reference                                          Page  221
 FCCASES       2 00003F8E 00000001     H   24464 27785
 FCCBAREA      4 00000000 FFFFFFC6     F   24443 24519M 24615  24636  24649
 FCCBLINE      4 00000008 FFFFFFC6     F   24445 24521M 24648  24666
 FCCBLIN2      4 0000000C FFFFFFC6     F   24446 24655M 24689
 FCCBLPTR      4 00000004 FFFFFFC6     F   24444 24520M 24616  24637  24650
 FCCBNTRY     32 00000010 FFFFFFC6     X   24447 24658
 FCCBNTR2     32 00000030 FFFFFFC6     X   24448 24681
 FCCBWA       80 00000000 FFFFFFC6     J   24455 24477  24506U 24732  24734  24735
 FCCSAREA      4 00000000 FFFFFFC5     F   24774 24852M 24960  24977  25127
 FCCSLINE      4 00000008 FFFFFFC5     F   24776 24854M 25062  25206
 FCCSLIN2      4 0000000C FFFFFFC5     F   24777 24983M 25087
 FCCSLIN3      4 00000010 FFFFFFC5     F   24778 24990M 25047  25071  25133M 25191  25215
 FCCSLIN4      4 00000014 FFFFFFC5     F   24779 25019M 25047M 25101  25163M 25191M 25214
 FCCSLPTR      4 00000004 FFFFFFC5     F   24775 24853M 24961  24978  25128
 FCCSNTRY     32 00000018 FFFFFFC5     X   24780 25054  25198
 FCCSNTR2     32 00000038 FFFFFFC5     X   24781 25079
 FCCSWA       88 00000000 FFFFFFC5     J   24788 24810  24839U 25249  25251  25252
 FCDO          2 00006B14 00000001     H   36107 27781
 FCEFAREA      4 00000000 FFFFFFC8     F   23438 23516M 23624  23641  23815
 FCEFLINE      4 00000008 FFFFFFC8     F   23440 23518M 23750  23917
 FCEFLIN2      4 0000000C FFFFFFC8     F   23441 23647M 23775
 FCEFLIN3      4 00000010 FFFFFFC8     F   23442 23654M 23735  23759  23821M 23902  23926
 FCEFLIN4      4 00000014 FFFFFFC8     F   23443 23681M 23719M 23735M 23789  23848M 23886M 23902M 23925
 FCEFLPTR      4 00000004 FFFFFFC8     F   23439 23517M 23625  23642  23816
 FCEFNTRY     32 00000018 FFFFFFC8     X   23444 23742  23909
 FCEFNTR2     32 00000038 FFFFFFC8     X   23445 23767
 FCEFWA       88 00000000 FFFFFFC8     J   23452 23474  23503U 23960  23962  23963
 FCELAREA      4 00000000 FFFFFFC9     F   23100 23176M 23249  23266
 FCELLINE      4 00000008 FFFFFFC9     F   23102 23178M 23283  23353
 FCELLIN2      4 0000000C FFFFFFC9     F   23103 23272M 23306
 FCELLPTR      4 00000004 FFFFFFC9     F   23101 23177M 23250  23267
 FCELNTRY     32 00000010 FFFFFFC9     X   23104 23275  23345
 FCELNTR2     32 00000030 FFFFFFC9     X   23105 23298
 FCELSE        2 00003A8C 00000001     H   23121 24401
 FCELSEIF      2 00003B92 00000001     H   23461 24403
 FCELWA       80 00000000 FFFFFFC9     J   23112 23134  23163U 23394  23396  23397
 FCERROR       2 000069BA 00000001     H   35658 22481  24396  27759  29373  32301  33766
 FCFIRST       2 0000655A 00000001     H   33902 29377
 FCGET         2 00006512 00000001     H   33804 22483  24393  27756  32297  34362
 FCIF          2 000038B2 00000001     H   22563 27779
 FCIFAREA      4 00000000 FFFFFFCA     F   22540 22618M 22720  22740  22914
 FCIFLINE      4 00000008 FFFFFFCA     F   22542 22620M 22849  23016
 FCIFLIN2      4 0000000C FFFFFFCA     F   22543 22746M 22874
 FCIFLIN3      4 00000010 FFFFFFCA     F   22544 22753M 22834  22858  22920M 23001  23025
 FCIFLIN4      4 00000014 FFFFFFCA     F   22545 22780M 22818M 22834M 22888  22947M 22985M 23001M 23024
 FCIFLPTR      4 00000004 FFFFFFCA     F   22541 22619M 22721  22741  22915
 FCIFNTRY     32 00000018 FFFFFFCA     X   22546 22841  23008
 FCIFNTR2     32 00000038 FFFFFFCA     X   22547 22866
 FCIFWA       88 00000000 FFFFFFCA     J   22554 22576  22605U 23059  23061  23062
 FCLABEL       2 00004244 00000001     H   25309 24406  27764
 FCLBL        32 0000000C FFFFFFC4     X   25292 25364
 FCLBLEN       4 00000008 FFFFFFC4     F   25291 25373M 25610
 FCLBLOC       4 00000004 FFFFFFC4     F   25290 25374M 25611
 FCLBLPTR      4 00000000 FFFFFFC4     F   25289 25365M 25415  25502  25571
 FCLBNAME     16 0000002C FFFFFFC4     X   25293 25368  25424  25450  25457  25495
 FCLBWA       60 00000000 FFFFFFC4     J   25300 25322  25351U 25637  25639  25640
 FCNEXT        2 000065A2 00000001     H   34000 27774  29380  32302
 FCNEXTLN      2 0000660A 00000001     H   34142 22496  24399  27767
 FCPREV        2 00006662 00000001     H   34257 32305
1FLOW     (FLOW2025) (12:45) (15MAR04) Ordinary Symbol and Literal Cross Reference                                          Page  222
 FCPROC        2 000032F8 00000001     H   21428 22480
 FCREPEAT      2 00003D70 00000001     H   24024 27789
 FCRPAREA      4 00000000 FFFFFFC7     F   24001 24079M 24146  24166  24175  24279
 FCRPLINE      4 00000008 FFFFFFC7     F   24003 24081M 24192  24253  24296  24328
 FCRPLIN2      4 0000000C FFFFFFC7     F   24004 24172M 24215
 FCRPLIN3      4 00000010 FFFFFFC7     F   24005 24181M 24244  24285M 24319
 FCRPLPTR      4 00000004 FFFFFFC7     F   24002 24080M 24147  24167  24176  24280
 FCRPNTRY     32 00000014 FFFFFFC7     X   24006 24184  24288
 FCRPNTR2     32 00000034 FFFFFFC7     X   24007 24207  24236  24311
 FCRPWA      116 00000000 FFFFFFC7     J   24015 24037  24066U 24362  24364  24365
 FCSIMPLE      2 00006AEC 00000001     H   36048 22482
 FCWHAREA      4 00000000 FFFFFFCB     F   22099 22176M 22278  22295  22384
 FCWHILE       2 000035D4 00000001     H   22121 27783
 FCWHLINE      4 00000008 FFFFFFCB     F   22101 22178M 22319  22358  22401  22409
 FCWHLIN2      4 0000000C FFFFFFCB     F   22102 22301M 22344
 FCWHLIN3      4 00000010 FFFFFFCB     F   22103 22308M 22328  22390M 22410
 FCWHLPTR      4 00000004 FFFFFFCB     F   22100 22177M 22279  22296  22385
 FCWHNTRY     32 00000014 FFFFFFCB     X   22104 22311  22393
 FCWHNTR2     32 00000034 FFFFFFCB     X   22105 22336
 FCWHWA       84 00000000 FFFFFFCB     J   22112 22134  22163U 22444  22446  22447
 FCXPROC       2 000030AE 00000001     H   20904 22478
 FDBEGIN       2 00004854 00000001     H   26825 26344
 FDCASE        2 00004A3C 00000001     H   27428 26329
 FDCASES       2 00004820 00000001     H   26758 26314
 FDDAREA       4 00000004 FFFFFFC3     F   25684 25765M 25771  25891  26102
 FDDBEGIN      4 0000000C FFFFFFC3     F   25686 25767M 27694
 FDDFLAGS      1 00000000 FFFFFFC3     C   25683 25764M
 FDDLPTR       4 00000008 FFFFFFC3     F   25685 25766M 25772  25892  26103  27022  27099  27191  27300  27395  27490
                                                 27585
 FDDO          2 000047B8 00000001     H   26624 26359
 FDDWA        16 00000000 FFFFFFC3     J   25693 25721  25750U 25754  25762U 26170  26172  26173
 FDELSE        2 000049A4 00000001     H   27238 26254
 FDELSEIF      2 000049F0 00000001     H   27333 26269
 FDEND         2 00004758 00000001     H   26493 26209
 FDEXEC        2 00004A88 00000001     H   27523 26404
 FDFBEGIN      1 0000000E 00000001 A   U   25700 26860  27786
 FDFCASES      1 0000000D 00000001 A   U   25699 26793  27784
 FDFDO         1 0000000B 00000001 A   U   25697 26659  27780
 FDFIF         1 0000000A 00000001 A   U   25696 26592  27778
 FDFRPEAT      1 0000000F 00000001 A   U   25701 26927  27788
 FDFWHILE      1 0000000C 00000001 A   U   25698 26726  27782
 FDIF          2 00004784 00000001     H   26557 26239
 FDNONE        2 0000472C 00000001     H   26429 26194  26419
 FDPROC        2 00004942 00000001     H   27132 26389
 FDREPEAT      2 00004888 00000001     H   26892 26284
 FDUNTIL       2 000048BC 00000001     H   26959 26299
 FDWHILE       2 000047EC 00000001     H   26691 26224
 FDXPROC       2 00004908 00000001     H   27055 26374
 FFBEPRT       4 0000281C 00000001     F   18338 20583
 FFCBEGIN      2 00002776 00000001     H   18169 18128
 FFCBLANK      2 00002C82 00000001     H   19463 18124
 FFCCOMM       2 00002C2A 00000001     H   19288 18122
 FFCEND        2 00002B52 00000001     H   18977 18130
 FFCLABEL      2 00002BF8 00000001     H   19187 18132
 FFFIRST       2 00002E30 00000001     H   20136 18121
 FFFMARK     128 00000008 FFFFFFD0        16036 16211M 16247M 16901  17106  17319  17533  17766  17973
 FFFUNFMT     64 00000008 FFFFFFD0        16041 16253M 16965  17171  17385  17625  17832  18039
 FFINBUF     235 0000001C FFFFFFD0     C   16048 16307  16308  16428  16429  16659  16660  16780  16781  16908  16955
                                                 17113  17161  17326  17375  17540  17562  17615  17773  17822  17980
1FLOW     (FLOW2025) (12:45) (15MAR04) Ordinary Symbol and Literal Cross Reference                                          Page  223
                                                 18029
 FFINDENT      4 00000004 FFFFFFD0     F   16029 16122M 17214  17333  17338  17428  17987  17992
 FFINLEN       4 00000018 FFFFFFD0     F   16047 16314M 16435M 16666M 16787M 16907  16954  17112  17160  17325  17374
                                                 17539  17614  17772  17821  17979  18028
 FFLATEMP     16 00000000 FFFFFFCF     X   19171 19235
 FFLAWA       16 00000000 FFFFFFCF     J   19178 19200  19229U 19260  19262  19263
 FFLEVEL       4 0000000C FFFFFFD0     F   16044 16136M 16136  16948  17153  17210  17212M 17368  17424  17426M 17608
                                                 17815  18022
 FFLNO         4 00000014 FFFFFFD0     F   16046 16150M 16150  16309  16343  16430  16661  16695  16782  16919  16926
                                                 16986  16994  17124  17131  17192  17200  17339  17346  17406  17414
                                                 17579  17586  17646  17654  17786  17793  17853  17861  17993  18000
                                                 18060  18068
 FFLTRIM       2 00002CD2 00000001     H   19619 18135
 FFMARK        6 0000010C FFFFFFD0     C   16050 16052  16053  16158M 16981  16993  17187  17199  17401  17413  17641
                                                 17653  17848  17860  18055  18067  18139
 FFMARKID      1 0000010D FFFFFFD0     U   16052 16947M 17152M 17367M 17607M 17814M 18021M
 FFMARKLV      2 0000010F FFFFFFD0     U   16053 16949  17155  17369  17609  17816  18023
 FFMOVE        2 00002D1A 00000001     H   19747 18136
 FFMRKLVL      2 00002DD8 00000001     H   19999 18138
 FFNEXT        2 00002E64 00000001     H   20226 18127
 FFOPTION      1 00000008 FFFFFFD0     R   16032 16036  16041  16129M
 FFOPTS        4 00000000 FFFFFFD0     C   16028 16121M 16170  16200  16236
 FFORMAT       2 00001FA2 00000001     H   16073 16069
 FFOUTBUF    235 00000112 FFFFFFD0     C   16051 16916  16917  16925  16980  16981  17121  17122  17130  17186  17187
                                                 17335  17336  17345  17400  17401  17548  17549  17585  17640  17641
                                                 17780  17781  17792  17847  17848  17989  17990  17999  18054  18055
 FFOUTLEN      4 00000108 FFFFFFD0     F   16049 16915M 16924  16979M 16991  17120M 17129  17185M 17197  17334M 17344
                                                 17399M 17411  17547M 17572  17574M 17584  17639M 17651  17779M 17791
                                                 17846M 17858  17988M 17998  18053M 18065
 FFPBEGIN      2 000022B0 00000001     H   17050 18129
 FFPCOMM       2 00002488 00000001     H   17477 18123
 FFPCONT       2 00002634 00000001     H   17917 18126
 FFPEND        2 0000239A 00000001     H   17263 18131
 FFPLABEL      2 0000256C 00000001     H   17710 18133
 FFPLINE       2 000021E2 00000001     H   16845 18125
 FFPUT         2 00002E98 00000001     H   20314 18137
 FFSNONE       2 000029D4 00000001     H   18509 18350  18500
 FFSNOXPR      2 00002A60 00000001     H   18699 18410  18425  18440
 FFSPACE       4 00000010 FFFFFFD0     F   16045 16143M 16143  16914  16918  17119  17123  17213  17215M 17332  17337
                                                 17427  17429M 17546  17550  17573  17986  17991
 FFSPROC       2 00002A9E 00000001     H   18795 18485
 FFSXPR        2 00002A00 00000001     H   18570 18365  18380  18395  18455  18470
 FFWA        755 00000000 FFFFFFD0     J   16063 16086  16115U 16365  16399  16419  16484  16521  16558  16595  16618
                                                 16717  16751  16771  16824  16826  16827  16887U 17092U 17305U 17519U
                                                 17752U 17959U
 FFXBUF      235 00000208 FFFFFFD0     C   16056 16277  16278  16464  16630  16631
 FFXFIRST      2 00002ECA 00000001     H   20400 18120
 FFXLEN        4 00000204 FFFFFFD0     F   16055 16284M 16463  16637M
 FFXLNO        4 00000200 FFFFFFD0     F   16054 16157M 16157  16279  16299M 16343  16632  16652M 16695
 FFXNEXT       2 00002F12 00000001     H   20499 18134
 FINDDONE      2 0000449E 00000001     H   26150 26139B 26147B
 FINDDQUO      2 00005028 00000001     H   28768 29376
 FINDEND       2 0000433A 00000001     H   25708 22488  24398  27766
 FINDPREN      2 00004E96 00000001     H   28058 29374
 FINDPRT       4 000044AC 00000001     F   26182 27775
 FINDSQUO      2 00004F68 00000001     H   28419 29375
 FINDTABL      2 000050E8 00000001     H   29110 28127  28488  28837  29112  29114  29116  29118
 FINDYES       2 00004498 00000001     H   26142 25865B
 FLOWCTRL      2 00002FFE 00000001     H   20658 20654
1FLOW     (FLOW2025) (12:45) (15MAR04) Ordinary Symbol and Literal Cross Reference                                          Page  224
 FLOW2025      1 00000000 00000001     R    1137  1135
 FPAREA        4 00000000 FFFFFFCC     F   21405 21484M 21506  21921
 FPLINE        4 00000008 FFFFFFCC     F   21407 21486M 21833
 FPLPTR        4 00000004 FFFFFFCC     F   21406 21485M 21507  21638  21789  21823  21910  21922  21998  22021
 FPNLIST     256 00000050 FFFFFFCC     X   21411 21798  21835
 FPNLISTN     16 00000150 FFFFFFCC     C   21412 21832M 21833M 21836
 FPNTRY       32 00000010 FFFFFFCC     X   21409 21483
 FPNTRY2      32 00000030 FFFFFFCC     X   21410 22007
 FPWA        352 00000000 FFFFFFCC     J   21419 21441  21470U 22061  22063  22064
 FSR           0 00000000 00000001 A   #    1001  7477   7521M  7587   7940M  7999   8472M  8531   8860M  8919   9217M
                                                  9276   9629M  9688   9997M 10056  10376M 10435  10719M 10778  11131M
                                                 11231  11414M 11466  11878M 11918  12216M 12268  12466M 12518  12719M
                                                 12747  12897M 13006  13292M 13341  13481M 13748  13793M 13816  13857M
                                                 13880  14049M 14082  14219M 14278  14538M 14558M 14617  14870M 14890M
                                                 14954  15374M 15446  15915M 16083  16824M 16854  17022M 17059  17235M
                                                 17272  17449M 17486  17682M 17719  17889M 17926  18096M 18178  18326M
                                                 18518  18559M 18579  18688M 18708  18784M 18804  18949M 18986  19139M
                                                 19197  19260M 19297  19435M 19472  19593M 19628  19702M 19717M 19756
                                                 19974M 20008  20107M 20145  20182M 20197M 20235  20272M 20287M 20323
                                                 20371M 20409  20455M 20470M 20508  20554M 20569M 20668  20851M 20914
                                                 21368M 21438  22061M 22131  22444M 22573  23059M 23131  23394M 23471
                                                 23960M 24034  24362M 24474  24732M 24807  25249M 25319  25617M 25637M
                                                 25718  26170M 26438  26479M 26502  26543M 26566  26594M 26610M 26633
                                                 26661M 26677M 26700  26728M 26744M 26767  26795M 26811M 26834  26862M
                                                 26878M 26901  26929M 26945M 26968  27041M 27064  27118M 27141  27224M
                                                 27247  27319M 27342  27414M 27437  27509M 27532  27604M 27630  27731M
                                                 27849  28022M 28037M 28067  28379M 28398M 28428  28728M 28747M 28777
                                                 29077M 29096M 29151  29355M 29445  29783M 29822  30236M 30273  30473M
                                                 30510  30710M 30747  30989M 31026  31226M 31266  31620M 31660  31922M
                                                 31989  32079M 32145  32266M 32363  32502M 32769  32843M 32866  32907M
                                                 32930  33054M 33093  33268M 33283M 33350  33721M 33741M 33813  33859M
                                                 33874M 33911  33957M 33972M 34009  34098M 34113M 34151  34214M 34229M
                                                 34266  34329M 34344M 34407  34476M 34520  34618M 34660  34727M 34774
                                                 34863M 34947  35034M 35054M 35118  35198M 35218M 35283  35371M 35430
                                                 35539M 35580  35630M 35667  35822M 35851  35929M 35955  36034M 36057
                                                 36097M 36116  36156M 36175  36215M
 FWBLINE       4 00000014 FFFFFFE2     F    7434 11721  22358M 22888M 23789M 25101M
 FWBRANCH      2 00000011 FFFFFFE2         7401 11715  22357M 22887M 23788M 25100M
 FWCASE       10 00000010 FFFFFFE2         7305 11008  25069M 25213M
 FWCASES       9 00000010 FFFFFFE2         7295 10665  24673M
 FWCOMMON     15 00000011 FFFFFFE2     X    7348  7351   7359   7363   7369   7373   7378
 FWDFLAGS      1 00000011 FFFFFFE2     R    7382  7391   7401   7411   7421   7431
 FWDOLOOP      5 00000011 FFFFFFE2         7431 11842
 FWELSE        5 00000010 FFFFFFE2         7255  9137  23290M 23360M
 FWELSEIF      6 00000010 FFFFFFE2         7265  9506  23757M 23924M
 FWEND        14 00000010 FFFFFFE2         7345 11670  21327M 22020M 22351M 22881M 23313M 23782M 24222M 24696M 25094M
 FWENTRY      32 00000000 FFFFFFE2     J    7447  7560   7630U  7760M  7760   7763   7972   8042U  8292M  8292   8295
                                                  8892   8962U  9080M  9080   9083   9249   9319U  9449M  9449   9452
                                                  9661   9731U  9861M  9861   9864  10029  10099U 10229M 10229  10232
                                                 10408  10478U 10608M 10608  10611  10751  10821U 10951M 10951  10954
                                                 11439  11509U 11613M 11613  11616  12241  12311U 12491  14251  14321U
                                                 14332M 14332  14340  14590  14664M 14664  14672  20885  20886  20957U
                                                 20970M 20970  21307  21321M 21321  21339  21409  21410  21481U 21495M
                                                 21495  22000  22014M 22014  22032  22104  22105  22174U 22318M 22318
                                                 22329  22343M 22343  22359  22400M 22400  22411  22546  22547  22616U
                                                 22848M 22848  22859  22873M 22873  22889  23015M 23015  23026  23104
                                                 23105  23174U 23282M 23282  23291  23305M 23305  23320  23352M 23352
                                                 23361  23444  23445  23514U 23749M 23749  23760  23774M 23774  23790
                                                 23916M 23916  23927  24006  24007  24008  24077U 24191M 24191  24200
1FLOW     (FLOW2025) (12:45) (15MAR04) Ordinary Symbol and Literal Cross Reference                                          Page  225
                                                 24214M 24214  24229  24243M 24243  24254  24295M 24295  24304  24318M
                                                 24318  24329  24447  24448  24517U 24665M 24665  24674  24688M 24688
                                                 24703  24780  24781  24850U 25061M 25061  25072  25086M 25086  25102
                                                 25205M 25205  25216  25292  25362U 25494M 25494  25504  31963  32032U
                                                 32043M 32043  32047  32048  32118  32188U 32199M 32199  32203  34440U
                                                 34454  34455  34557  34693U 34807U 34920  34990U 34998  34999  35091
                                                 35161U 35166  35256  35403  35473U
 FWFALSE       4 00000018 FFFFFFE2     F    7366  7911   8443   9600  10343  11102  22328M 22410M 22858M 23025M 23759M
                                                 23926M 24253M 24328M 25071M 25215M
 FWIF          4 00000010 FFFFFFE2         7245  8349  22856M 23023M
 FWINFO       16 00000010 FFFFFFE2     X    7199  7201   7349   7349   7357   7357   7362   7362   7367   7367   7376
                                                  7376   7437   7437   7438   7438
 FWLABEL       3 00000010 FFFFFFE2         7235 14406  14738  25501M
 FWLBLINE      4 00000014 FFFFFFE2     F    7361 14455  14532  14787  14864  25503M
 FWNAME       16 00000000 FFFFFFE2     X    7191  7192  14333  14366  14373  14422  14429  14499  14506  14665  14698
                                                 14705  14754  14761  14831  14838  14927  14928  15059  15418  15419
                                                 15548  19171  20977M 21412  21502M 21613  21649  21675  21682  21931
                                                 21957  21964  25293  25495M 29419  32044M 32047  32048  32049  32200M
                                                 33323  33324  33613  34454  34455  34456  34557  34559  34996M 34997M
                                                 34998  34999  35000  35165M 35485M 35486M 35493
 FWNLINE       4 00000000 FFFFFFE2     F    7193  7761M  8293M  9081M  9450M  9862M 10230M 10609M 10952M 11614M 21329M
                                                 22022M 22319M 22344M 22401M 22849M 22874M 23016M 23283M 23306M 23353M
                                                 23750M 23775M 23917M 24192M 24215M 24244M 24296M 24319M 24666M 24689M
                                                 25062M 25087M 25206M
 FWNNAME       8 00000004 FFFFFFE2     C    7194  7762M  8294M  9082M  9451M  9863M 10231M 10610M 10953M 11615M 21330M
                                                 22023M 22320M 22345M 22402M 22850M 22875M 23017M 23284M 23307M 23354M
                                                 23751M 23776M 23918M 24193M 24216M 24245M 24297M 24320M 24667M 24690M
                                                 25063M 25088M 25207M
 FWNOOP        1 00000011 FFFFFFE2         7391 11693  23319M 24228M 24702M
 FWPRETN       4 00000011 FFFFFFE2         7421 11790  22029M
 FWPROC        2 00000010 FFFFFFE2         7225 21501M 32235
 FWREPEAT     11 00000010 FFFFFFE2         7315  9918  24199M 24303M
 FWSCOPE       4 00000014 FFFFFFE2     F    7353 20978M 21503M 35026  35190
 FWSCOPND      4 00000018 FFFFFFE2     F    7354 21306M 21999M 35027  35191
 FWTRUE        4 00000014 FFFFFFE2     F    7365  7851   8383   9540  10320  11042  22327M 22409M 22857M 23024M 23758M
                                                 23925M 24252M 24327M 25070M 25214M
 FWTYPES       1 00000010 FFFFFFE2     R    7204  7205   7215   7225   7235   7245   7255   7265   7275   7285   7295
                                                  7305   7315   7325   7335   7345
 FWUNTIL      12 00000010 FFFFFFE2         7325 10286  24251M 24326M
 FWWHILE       8 00000010 FFFFFFE2         7285  7817  22326M 22408M
 FWXPROC       1 00000010 FFFFFFE2         7215 20976M
 FWXRETN       3 00000011 FFFFFFE2         7411 11738  21336M
 FXPAREA       4 00000000 FFFFFFCD     F   20881 20960M 20981  21296
 FXPLPTR       4 00000004 FFFFFFCD     F   20882 20961M 20982  21166  21200  21285  21297  21305  21328
 FXPNLIST    256 00000050 FFFFFFCD     X   20887 21175  21210
 FXPNTRY      32 00000010 FFFFFFCD     X   20885 20959
 FXPNTRY2     32 00000030 FFFFFFCD     X   20886 21314
 FXPWA       672 00000000 FFFFFFCD     J   20895 20917  20946U 21368  21370  21371
 GETFINFO      2 0000678A 00000001     H   34651 32311  36234
 GETFLOW       2 000066D0 00000001     H   34398 11167  12921  15953  32312  36235
 GOTBEGIN      2 00006138 00000001     H   32760 32541
 GOTO          2 00000F9C 00000001     H   12258 12254
 GOTOFLOW     32 00000000 FFFFFFD7     X   12241 12313
 GOTOWA       32 00000000 FFFFFFD7     J   12248 12271  12300U 12466  12468  12469
 GTFRST        1 00000000 00000018     T   20597 20597
 GTNEXT        1 00000000 00000019     T   20598 20598
 GTPNFLOW     32 00000000 FFFFFFBB     X   35403 35475
 GTPNLIST      2 0000692A 00000001     H   35420 35416
 GTPNWA       32 00000000 FFFFFFBB     J   35410 35433  35462U 35539  35541  35542
1FLOW     (FLOW2025) (12:45) (15MAR04) Ordinary Symbol and Literal Cross Reference                                          Page  226
 GTPSCOPE      2 00006896 00000001     H   35108 35104  36236
 GTPSFLOW     32 00000000 FFFFFFBD     X   35091 35163
 GTPSWA       32 00000000 FFFFFFBD     J   35098 35121  35150U 35218  35220  35221
 GTXNLIST      2 000068E6 00000001     H   35273 35269
 GTXNWA       32 00000000 FFFFFFBC     J   35263 35286  35315U 35371  35373  35374
 GTXSCOPE      2 00006834 00000001     H   34937 34933
 GTXSFLOW     32 00000000 FFFFFFBE     X   34920 34992
 GTXSWA       32 00000000 FFFFFFBE     J   34927 34950  34979U 35054  35056  35057
 HIBAL         1 00000000 FFFFFFFF     J     691   707    720    733    746    759    772    785    798    811    824
                                                   837    850    863    876    889    902
 IF            2 00000162 00000001     H    7989  7985
 IFFLOW       32 00000000 FFFFFFE0     X    7972  8044
 IFWA         32 00000000 FFFFFFE0     J    7979  8002   8031U  8472   8474   8475
 IMPLYEND      1 00000000 0000000A     T   12919 12919
 INITFLOW      2 00000020 00000001     H    7468  7464
 INVALID       1 00000000 00000000 A   T    2177  2177
 JCBAFL        1 00000062 FFFFFFE9     R    6425  6429   6434   6439   6444   6449   6454   6459   6464
 JCBBFL        1 00000063 FFFFFFE9     R    6470  6474   6479   6484   6489   6494   6499   6504
 JCBBILLX      8 00000088 FFFFFFE9     D    6555  6563   6563
 JCBRSCF1      1 00000064 FFFFFFE9     R    6510  6514   6519   6524
 JCBSFLG1      1 00000065 FFFFFFE9     R    6530  6534   6539
 JCBWFL        1 00000060 FFFFFFE9     R    6354  6358   6363   6368   6373   6378   6383   6388   6393   6421
 JCBWWFL       1 00000061 FFFFFFE9     R    6399  6403   6408   6413   6418
 LABEL         2 00000E80 00000001     H   11909 11905
 LABELLNO      2 00001970 00000001     H   14268 12931  14264
 LDABORT       1 00000000 00000027     T   36242 36242
 LLFLOW       32 00000000 FFFFFFD4     X   14251 14323
 LLWA         32 00000000 FFFFFFD4     J   14258 14281  14310U 14558  14560  14561
 LOWTBL        1 00000000 00000000 A   T    2185  2185
 LSIFFLOW     32 00000000 FFFFFFDD     X    9249  9321
 LSIFWA       32 00000000 FFFFFFDD     J    9256  9279   9308U  9629   9631   9632
 LSR           8 00000008 00000001 A   #    1039  7477   7521M  7587   7940M  7999   8472M  8531   8860M  8919   9217M
                                                  9276   9629M  9688   9997M 10056  10376M 10435  10719M 10778  11131M
                                                 11231  11414M 11466  11878M 11918  12216M 12268  12466M 12518  12719M
                                                 12747  12897M 13006  13292M 13341  13481M 13748  13793M 13816  13857M
                                                 13880  14049M 14082  14219M 14278  14558M 14617  14890M 14954  15374M
                                                 15446  15915M 16083  16824M 16854  17022M 17059  17235M 17272  17449M
                                                 17486  17682M 17719  17889M 17926  18096M 18178  18326M 18518  18559M
                                                 18579  18688M 18708  18784M 18804  18949M 18986  19139M 19197  19260M
                                                 19297  19435M 19472  19593M 19628  19717M 19756  19974M 20008  20107M
                                                 20145  20197M 20235  20287M 20323  20371M 20409  20470M 20508  20569M
                                                 20668  20851M 20914  21368M 21438  22061M 22131  22444M 22573  23059M
                                                 23131  23394M 23471  23960M 24034  24362M 24474  24732M 24807  25249M
                                                 25319  25637M 25718  26170M 26438  26479M 26502  26543M 26566  26610M
                                                 26633  26677M 26700  26744M 26767  26811M 26834  26878M 26901  26945M
                                                 26968  27041M 27064  27118M 27141  27224M 27247  27319M 27342  27414M
                                                 27437  27509M 27532  27604M 27630  27731M 27849  28037M 28067  28398M
                                                 28428  28747M 28777  29096M 29151  29355M 29445  29783M 29822  30236M
                                                 30273  30473M 30510  30710M 30747  30989M 31026  31226M 31266  31620M
                                                 31660  31922M 31989  32079M 32145  32266M 32363  32502M 32769  32843M
                                                 32866  32907M 32930  33054M 33093  33283M 33350  33741M 33813  33874M
                                                 33911  33972M 34009  34113M 34151  34229M 34266  34344M 34407  34476M
                                                 34520  34618M 34660  34727M 34774  34863M 34947  35054M 35118  35218M
                                                 35283  35371M 35430  35539M 35580  35630M 35667  35822M 35851  35929M
                                                 35955  36034M 36057  36097M 36116  36156M 36175  36215M
 MALL          1 00000000 00000012     T   13729 13729  18499  26418  32750
 MAXSTRLN      1 00000100 FFFFFFE8 A   N    6920  6921   6948
 MILERR        1 00000000 00000000 A   T    2176  2176
 MNULL         1 00000000 00000010     T   13504 13504  18349  26193  32525
1FLOW     (FLOW2025) (12:45) (15MAR04) Ordinary Symbol and Literal Cross Reference                                          Page  227
 MTOKEN        1 00000000 00000011     T   13519 13519  13534  13549  13564  13579  13594  13609  13624  13639  13654
                                                 13669  13684  13699  13714  18364  18379  18394  18409  18424  18439
                                                 18454  18469  18484  26208  26223  26238  26253  26268  26283  26298
                                                 26313  26328  26343  26358  26373  26388  26403  32540  32555  32570
                                                 32585  32600  32615  32630  32645  32660  32675  32690  32705  32720
                                                 32735
 NBLTBL        1 00000000 00000000 A   T    2189  2189
 NL            1 0000000C FFFFFFE8 A   N    6919 13214  13214  13232  13232
 NLIST       256 00000000 FFFFFFE6     J    6992 20887  21209  21411  21834  35323  35491
 NOACTION      1 00000000 00000000 A   T    2179  2179
 NOBEGIN       2 0000617E 00000001     H   32857 32526  32751
 NOENDMSG      2 00004AD4 00000001     H   27621 27790
 NOLINES       2 000052F2 00000001     H   29335 29185B 29266B
 NOOPTS        1 00000000 00000009     T   11178 11178  12920  15948
 NOPAREN       2 00006A38 00000001     H   35842 15942
 NOTBEGIN      2 00001812 00000001     H   13807 13505  13730
 NOTBOOL       2 00006A9A 00000001     H   35946 15943
 NOTVALID      1 00000000 00000013     T   15939 15939
 NPARTBL       1 00000000 00000000 A   T    2183  2183
 NSCAN         1 00000000 00000004     T   11171 11171  12927  15937  20584  22484  27776  29378  32299  33763
 NSCNCB      176 00000000 FFFFFFED     J    2448  2574   7878   7879   8050   8052   8063   8064   8065   8068M  8069M
                                                  8070M  8080M  8081M  8082M  8094   8211   8212   8410   8411   8580
                                                  8581   9026   9027   9178   9179   9567   9568   9958   9959  11069
                                                 11070  11181  11763M 11764M 11815M 11816M 11995  11996  12072  12073
                                                 12074  12077M 12078M 12079M 12089M 12090M 12091M 12830  12831  13067
                                                 13068  13069  13072M 13073M 13074M 13084M 13085M 13086M 13372  13374
                                                 13385  13386  13387  13390M 13391M 13393M 13403M 13404M 13405M 13466
                                                 13910  13925  13940  13941  13942M 13942  13943  13944M 13957M 14118
                                                 14119  14120  14123M 14124M 14125M 14135M 14136M 14137M 15006  15007
                                                 15147M 15148M 15163  15164  15165  15168M 15169M 15170M 15180M 15181M
                                                 15182M 15253M 15254M 15269  15270  15271  15274M 15275M 15276M 15286M
                                                 15287M 15288M 15345M 15346M 15495  15496  15648M 15649M 15664  15665
                                                 15666  15669M 15670M 15671M 15681M 15682M 15683M 15761M 15762M 15777
                                                 15778  15779  15782M 15783M 15784M 15794M 15795M 15796M 15880M 15881M
                                                 15958  18220M 18221M 18236  18237  18238  18241M 18242M 18244M 18254M
                                                 18255M 18256M 18608  18609  18632M 18633M 18840  18841  18842  18845M
                                                 18846M 18847M 18857M 18858M 18859M 18869  18870  18893M 18894M 19028M
                                                 19029M 19044  19045  19046  19049M 19050M 19051M 19061M 19062M 19063M
                                                 19068  21018M 21019M 21034  21035  21036  21039M 21040M 21041M 21051M
                                                 21052M 21053M 21063  21102  21103  21104  21107M 21108M 21109M 21119M
                                                 21120M 21121M 21230  21231  21232  21235M 21236M 21237M 21247M 21248M
                                                 21249M 21259  21543M 21544M 21559  21560  21561  21564M 21565M 21566M
                                                 21576M 21577M 21578M 21588  21725  21726  21727  21730M 21731M 21732M
                                                 21742M 21743M 21744M 21855  21856  21857  21860M 21861M 21862M 21872M
                                                 21873M 21874M 21884  22194  22268M 22269M 22636  22710M 22711M 23200
                                                 23239M 23240M 23540  23614M 23615M 24097  24136M 24137M 24537  24576M
                                                 24577M 24876  24950M 24951M 25808M 25809M 25828  25829  25830  25833M
                                                 25834M 25836M 25846M 25847M 25848M 29202M 29203M 29218  29219  29220
                                                 29223M 29224M 29225M 29235M 29236M 29237M 29281M 29282M 29297  29298
                                                 29299  29302M 29303M 29304M 29314M 29315M 29316M 29569M 29570M 29585
                                                 29586  29587  29590M 29591M 29592M 29602M 29603M 29604M 29614  29672M
                                                 29673M 29688  29689  29690  29693M 29694M 29695M 29705M 29706M 29707M
                                                 29717  29967M 29968M 29983  29984  29985  29988M 29989M 29990M 30000M
                                                 30001M 30002M 30012  30070M 30071M 30086  30087  30088  30091M 30092M
                                                 30093M 30103M 30104M 30105M 30115  30385  30622  30859  31138  31379
                                                 31701M 31702M 31717  31718  31719  31722M 31723M 31724M 31734M 31735M
                                                 31736M 31746  31801  31802  32402  32403  32404  32407M 32408M 32410M
                                                 32420M 32421M 32422M 32959  32960  33134M 33135M 33150  33151  33152
                                                 33155M 33156M 33157M 33167M 33168M 33169M 33219  33220  33221  33224M
1FLOW     (FLOW2025) (12:45) (15MAR04) Ordinary Symbol and Literal Cross Reference                                          Page  228
                                                 33225M 33226M 33236M 33237M 33238M 33257  33258  33415M 33416M 33431
                                                 33432  33433  33436M 33437M 33438M 33448M 33449M 33450M 33664M 33665M
                                                 33680  33681  33682  33685M 33686M 33687M 33697M 33698M 33699M
 NSCNFLGS      1 00000008 FFFFFFED     R    2385  2389   2394
 NSCNKWS       4 00000028 FFFFFFED     A    2434  8063   8070M  8080M 12072  12079M 12089M 13067  13074M 13084M 13385
                                                 13393M 13403M 14118  14125M 14135M 15163  15170M 15180M 15269  15276M
                                                 15286M 15664  15671M 15681M 15777  15784M 15794M 18236  18244M 18254M
                                                 18840  18847M 18857M 19044  19051M 19061M 21034  21041M 21051M 21102
                                                 21109M 21119M 21230  21237M 21247M 21559  21566M 21576M 21725  21732M
                                                 21742M 21855  21862M 21872M 25828  25836M 25846M 29218  29225M 29235M
                                                 29297  29304M 29314M 29585  29592M 29602M 29688  29695M 29705M 29983
                                                 29990M 30000M 30086  30093M 30103M 31717  31724M 31734M 32402  32410M
                                                 32420M 33150  33157M 33167M 33219  33226M 33236M 33431  33438M 33448M
                                                 33680  33687M 33697M
 NSCNLEN       4 00000004 FFFFFFED     F    2382  7879   8212   8411   8581   9027   9179   9568   9959  11070  11764M
                                                 11816M 11996  12831  13943  13944M 15007  15148M 15254M 15346M 15496
                                                 15649M 15762M 15881M 18221M 18609  18633M 18870  18894M 19029M 21019M
                                                 21544M 22269M 22711M 23240M 23615M 24137M 24577M 24951M 25809M 29203M
                                                 29282M 29570M 29673M 29968M 30071M 31702M 33135M 33258  33416M 33665M
 NSCNLOC       4 00000000 FFFFFFED     A    2381  7878   8211   8410   8580   9026   9178   9567   9958  11069  11763M
                                                 11815M 11995  12830  13940  13942M 15006  15147M 15253M 15345M 15495
                                                 15648M 15761M 15880M 18220M 18608  18632M 18869  18893M 19028M 21018M
                                                 21543M 22268M 22710M 23239M 23614M 24136M 24576M 24950M 25808M 29202M
                                                 29281M 29569M 29672M 29967M 30070M 31701M 33134M 33257  33415M 33664M
 NSCNSKIP      4 00000024 FFFFFFED     A    2433  8064   8068M  8081M 12073  12077M 12090M 13068  13072M 13085M 13386
                                                 13390M 13404M 14119  14123M 14136M 15164  15168M 15181M 15270  15274M
                                                 15287M 15665  15669M 15682M 15778  15782M 15795M 18237  18241M 18255M
                                                 18841  18845M 18858M 19045  19049M 19062M 21035  21039M 21052M 21103
                                                 21107M 21120M 21231  21235M 21248M 21560  21564M 21577M 21726  21730M
                                                 21743M 21856  21860M 21873M 25829  25833M 25847M 29219  29223M 29236M
                                                 29298  29302M 29315M 29586  29590M 29603M 29689  29693M 29706M 29984
                                                 29988M 30001M 30087  30091M 30104M 31718  31722M 31735M 32403  32407M
                                                 32421M 33151  33155M 33168M 33220  33224M 33237M 33432  33436M 33449M
                                                 33681  33685M 33698M
 NSCNSTOP      4 00000020 FFFFFFED     A    2432  8065   8069M  8082M 12074  12078M 12091M 13069  13073M 13086M 13387
                                                 13391M 13405M 14120  14124M 14137M 15165  15169M 15182M 15271  15275M
                                                 15288M 15666  15670M 15683M 15779  15783M 15796M 18238  18242M 18256M
                                                 18842  18846M 18859M 19046  19050M 19063M 21036  21040M 21053M 21104
                                                 21108M 21121M 21232  21236M 21249M 21561  21565M 21578M 21727  21731M
                                                 21744M 21857  21861M 21874M 25830  25834M 25848M 29220  29224M 29237M
                                                 29299  29303M 29316M 29587  29591M 29604M 29690  29694M 29707M 29985
                                                 29989M 30002M 30088  30092M 30105M 31719  31723M 31736M 32404  32408M
                                                 32422M 33152  33156M 33169M 33221  33225M 33238M 33433  33437M 33450M
                                                 33682  33686M 33699M
 NSCNTLEN      4 00000014 FFFFFFED     F    2400 13910  13957M 31802  32960
 NSCNTLOC      4 00000010 FFFFFFED     A    2399 13925  13941  13942  31801  32959
 NSCNTOK      16 00000030 FFFFFFED     C    2436 19068  21063  21259  21588  21884  22194  22636  23200  23540  24097
                                                 24537  24876  29614  29717  30012  30115  30385  30622  30859  31138
                                                 31379  31746
 NSCNTYPE      1 00000018 FFFFFFED     R    2403  2407   2412   2417   2422   2427
 ORVCPASS      1 00000000 00000006     T   11173 11173
 PRETURN       1 00000000 0000000D     T   12925 12925
 PUTLINE       1 00000000 0000001A     T   20599 20599
 RAR          14 0000000E 00000001 A   #    1117  2114   2115M  2116B  2118M  2119B  2139M  2140B  2144M  2145B  2147M
                                                  2148B  2150M  2151B  2153M  2154B  2156M  2157M  2157B  2163   7474
                                                  7523M  7526B  7584   7666M  7667M  7667B  7712M  7713M  7713B  7766M
                                                  7767M  7767B  7795M  7796M  7796B  7833M  7834M  7834B  7854M  7855M
                                                  7855B  7886M  7887M  7887B  7942M  7945B  7996   8073M  8074M  8074B
                                                  8087M  8088M  8088B  8126M  8127M  8127B  8170M  8171M  8171B  8176M
1FLOW     (FLOW2025) (12:45) (15MAR04) Ordinary Symbol and Literal Cross Reference                                          Page  229
                                                  8177M  8177B  8219M  8220M  8220B  8298M  8299M  8299B  8327M  8328M
                                                  8328B  8365M  8366M  8366B  8386M  8387M  8387B  8418M  8419M  8419B
                                                  8474M  8477B  8528   8589M  8590M  8590B  8673M  8674M  8674B  8862M
                                                  8865B  8916   9034M  9035M  9035B  9086M  9087M  9087B  9115M  9116M
                                                  9116B  9154M  9155M  9155B  9186M  9187M  9187B  9219M  9222B  9273
                                                  9355M  9356M  9356B  9401M  9402M  9402B  9455M  9456M  9456B  9484M
                                                  9485M  9485B  9522M  9523M  9523B  9543M  9544M  9544B  9575M  9576M
                                                  9576B  9631M  9634B  9685   9767M  9768M  9768B  9813M  9814M  9814B
                                                  9867M  9868M  9868B  9896M  9897M  9897B  9934M  9935M  9935B  9966M
                                                  9967M  9967B  9999M 10002B 10053  10135M 10136M 10136B 10181M 10182M
                                                 10182B 10235M 10236M 10236B 10264M 10265M 10265B 10302M 10303M 10303B
                                                 10323M 10324M 10324B 10346M 10347M 10347B 10378M 10381B 10432  10514M
                                                 10515M 10515B 10560M 10561M 10561B 10614M 10615M 10615B 10643M 10644M
                                                 10644B 10681M 10682M 10682B 10687M 10688M 10688B 10721M 10724B 10775
                                                 10857M 10858M 10858B 10903M 10904M 10904B 10957M 10958M 10958B 10986M
                                                 10987M 10987B 11024M 11025M 11025B 11045M 11046M 11046B 11077M 11078M
                                                 11078B 11133M 11136B 11228  11290M 11291M 11291B 11336M 11337M 11337B
                                                 11388M 11389M 11389B 11416M 11419B 11463  11535M 11536M 11536B 11567M
                                                 11568M 11568B 11603M 11604M 11604B 11619M 11620M 11620B 11648M 11649M
                                                 11649B 11771M 11772M 11772B 11823M 11824M 11824B 11880M 11883B 11915
                                                 11977M 11978M 11978B 12003M 12004M 12004B 12038M 12039M 12039B 12082M
                                                 12083M 12083B 12096M 12097M 12097B 12120M 12121M 12121B 12140M 12141M
                                                 12141B 12198M 12199M 12199B 12218M 12221B 12265  12347M 12348M 12348B
                                                 12393M 12394M 12394B 12437M 12438M 12438B 12442M 12443M 12443B 12468M
                                                 12471B 12515  12590M 12591M 12591B 12636M 12637M 12637B 12680M 12681M
                                                 12681B 12685M 12686M 12686B 12693M 12694M 12694B 12721M 12724B 12744
                                                 12838M 12839M 12839B 12899M 12902B 13003  13077M 13078M 13078B 13091M
                                                 13092M 13092B 13111M 13112M 13112B 13144M 13145M 13145B 13181M 13182M
                                                 13182B 13204M 13205M 13205B 13294M 13297B 13338  13396M 13397M 13397B
                                                 13410M 13411M 13411B 13483M 13486B 13745  13776M 13777M 13777B 13795M
                                                 13798B 13813  13859M 13862B 13877  13964M 13965M 13965B 14022M 14023M
                                                 14023B 14051M 14054B 14079  14128M 14129M 14129B 14142M 14143M 14143B
                                                 14180M 14181M 14181B 14198M 14199M 14199B 14221M 14224B 14275  14336M
                                                 14337M 14337B 14343M 14344M 14344B 14384M 14385M 14385B 14440M 14441M
                                                 14441B 14517M 14518M 14518B 14560M 14563B 14614  14668M 14669M 14669B
                                                 14675M 14676M 14676B 14716M 14717M 14717B 14772M 14773M 14773B 14849M
                                                 14850M 14850B 14892M 14895B 14951  15022M 15023M 15023B 15173M 15174M
                                                 15174B 15187M 15188M 15188B 15211M 15212M 15212B 15279M 15280M 15280B
                                                 15293M 15294M 15294B 15317M 15318M 15318B 15376M 15379B 15443  15511M
                                                 15512M 15512B 15600M 15601M 15601B 15674M 15675M 15675B 15707M 15708M
                                                 15708B 15725M 15726M 15726B 15787M 15788M 15788B 15801M 15802M 15802B
                                                 15825M 15826M 15826B 15843M 15844M 15844B 15917M 15920B 16080  16282M
                                                 16283M 16283B 16312M 16313M 16313B 16358M 16359M 16359B 16368M 16369M
                                                 16369B 16392M 16393M 16393B 16402M 16403M 16403B 16422M 16423M 16423B
                                                 16433M 16434M 16434B 16477M 16478M 16478B 16487M 16488M 16488B 16514M
                                                 16515M 16515B 16524M 16525M 16525B 16551M 16552M 16552B 16561M 16562M
                                                 16562B 16588M 16589M 16589B 16598M 16599M 16599B 16621M 16622M 16622B
                                                 16635M 16636M 16636B 16664M 16665M 16665B 16710M 16711M 16711B 16720M
                                                 16721M 16721B 16744M 16745M 16745B 16754M 16755M 16755B 16774M 16775M
                                                 16775B 16785M 16786M 16786B 16826M 16829B 16851  16911M 16912M 16912B
                                                 16922M 16923M 16923B 16929M 16930M 16930B 16952M 16953M 16953B 16973M
                                                 16974M 16974B 16989M 16990M 16990B 16997M 16998M 16998B 17024M 17027B
                                                 17056  17116M 17117M 17117B 17127M 17128M 17128B 17134M 17135M 17135B
                                                 17158M 17159M 17159B 17179M 17180M 17180B 17195M 17196M 17196B 17203M
                                                 17204M 17204B 17237M 17240B 17269  17329M 17330M 17330B 17342M 17343M
                                                 17343B 17349M 17350M 17350B 17372M 17373M 17373B 17393M 17394M 17394B
                                                 17409M 17410M 17410B 17417M 17418M 17418B 17451M 17454B 17483  17543M
                                                 17544M 17544B 17582M 17583M 17583B 17589M 17590M 17590B 17612M 17613M
                                                 17613B 17633M 17634M 17634B 17649M 17650M 17650B 17657M 17658M 17658B
1FLOW     (FLOW2025) (12:45) (15MAR04) Ordinary Symbol and Literal Cross Reference                                          Page  230
                                                 17684M 17687B 17716  17776M 17777M 17777B 17789M 17790M 17790B 17796M
                                                 17797M 17797B 17819M 17820M 17820B 17840M 17841M 17841B 17856M 17857M
                                                 17857B 17864M 17865M 17865B 17891M 17894B 17923  17983M 17984M 17984B
                                                 17996M 17997M 17997B 18003M 18004M 18004B 18026M 18027M 18027B 18047M
                                                 18048M 18048B 18063M 18064M 18064B 18071M 18072M 18072B 18098M 18101B
                                                 18175  18247M 18248M 18248B 18261M 18262M 18262B 18328M 18331B 18515
                                                 18561M 18564B 18576  18616M 18617M 18617B 18640M 18641M 18641B 18690M
                                                 18693B 18705  18736M 18737M 18737B 18786M 18789B 18801  18850M 18851M
                                                 18851B 18864M 18865M 18865B 18877M 18878M 18878B 18901M 18902M 18902B
                                                 18951M 18954B 18983  19054M 19055M 19055B 19141M 19144B 19194  19238M
                                                 19239M 19239B 19262M 19265B 19294  19437M 19440B 19469  19595M 19598B
                                                 19625  19719M 19722B 19753  19817M 19818M 19818B 19822M 19823M 19823B
                                                 19852M 19853M 19853B 19897M 19898M 19898B 19902M 19903M 19903B 19932M
                                                 19933M 19933B 19976M 19979B 20005  20109M 20112B 20142  20178M 20179M
                                                 20179B 20199M 20202B 20232  20268M 20269M 20269B 20289M 20292B 20320
                                                 20354M 20355M 20355B 20373M 20376B 20406  20441M 20442M 20442B 20451M
                                                 20452M 20452B 20472M 20475B 20505  20540M 20541M 20541B 20550M 20551M
                                                 20551B 20571M 20574B 20665  20717M 20718M 20718B 20723M 20724M 20724B
                                                 20731M 20732M 20732B 20751M 20752M 20752B 20755M 20756M 20756B 20774M
                                                 20775M 20775B 20778M 20779M 20779B 20815M 20816M 20816B 20821M 20822M
                                                 20822B 20853M 20856B 20911  20985M 20986M 20986B 21044M 21045M 21045B
                                                 21058M 21059M 21059B 21112M 21113M 21113B 21126M 21127M 21127B 21169M
                                                 21170M 21170B 21178M 21179M 21179B 21203M 21204M 21204B 21216M 21217M
                                                 21217B 21240M 21241M 21241B 21254M 21255M 21255B 21288M 21289M 21289B
                                                 21300M 21301M 21301B 21310M 21311M 21311B 21342M 21343M 21343B 21370M
                                                 21373B 21435  21510M 21511M 21511B 21569M 21570M 21570B 21583M 21584M
                                                 21584B 21616M 21617M 21617B 21641M 21642M 21642B 21652M 21653M 21653B
                                                 21693M 21694M 21694B 21707M 21708M 21708B 21735M 21736M 21736B 21749M
                                                 21750M 21750B 21792M 21793M 21793B 21801M 21802M 21802B 21826M 21827M
                                                 21827B 21841M 21842M 21842B 21865M 21866M 21866B 21879M 21880M 21880B
                                                 21913M 21914M 21914B 21925M 21926M 21926B 21934M 21935M 21935B 21975M
                                                 21976M 21976B 21989M 21990M 21990B 22003M 22004M 22004B 22035M 22036M
                                                 22036B 22063M 22066B 22128  22183M 22184M 22184B 22189M 22190M 22190B
                                                 22221M 22222M 22222B 22246M 22247M 22247B 22276M 22277M 22277B 22299M
                                                 22300M 22300B 22306M 22307M 22307B 22332M 22333M 22333B 22362M 22363M
                                                 22363B 22388M 22389M 22389B 22414M 22415M 22415B 22446M 22449B 22570
                                                 22625M 22626M 22626B 22631M 22632M 22632B 22663M 22664M 22664B 22688M
                                                 22689M 22689B 22718M 22719M 22719B 22744M 22745M 22745B 22751M 22752M
                                                 22752B 22765M 22766M 22766B 22774M 22775M 22775B 22778M 22779M 22779B
                                                 22803M 22804M 22804B 22812M 22813M 22813B 22816M 22817M 22817B 22862M
                                                 22863M 22863B 22892M 22893M 22893B 22918M 22919M 22919B 22932M 22933M
                                                 22933B 22941M 22942M 22942B 22945M 22946M 22946B 22970M 22971M 22971B
                                                 22979M 22980M 22980B 22983M 22984M 22984B 23029M 23030M 23030B 23061M
                                                 23064B 23128  23183M 23184M 23184B 23189M 23190M 23190B 23195M 23196M
                                                 23196B 23247M 23248M 23248B 23270M 23271M 23271B 23294M 23295M 23295B
                                                 23323M 23324M 23324B 23364M 23365M 23365B 23396M 23399B 23468  23523M
                                                 23524M 23524B 23529M 23530M 23530B 23535M 23536M 23536B 23567M 23568M
                                                 23568B 23592M 23593M 23593B 23622M 23623M 23623B 23645M 23646M 23646B
                                                 23652M 23653M 23653B 23666M 23667M 23667B 23675M 23676M 23676B 23679M
                                                 23680M 23680B 23704M 23705M 23705B 23713M 23714M 23714B 23717M 23718M
                                                 23718B 23763M 23764M 23764B 23793M 23794M 23794B 23819M 23820M 23820B
                                                 23833M 23834M 23834B 23842M 23843M 23843B 23846M 23847M 23847B 23871M
                                                 23872M 23872B 23880M 23881M 23881B 23884M 23885M 23885B 23930M 23931M
                                                 23931B 23962M 23965B 24031  24086M 24087M 24087B 24092M 24093M 24093B
                                                 24144M 24145M 24145B 24170M 24171M 24171B 24179M 24180M 24180B 24203M
                                                 24204M 24204B 24232M 24233M 24233B 24257M 24258M 24258B 24283M 24284M
                                                 24284B 24307M 24308M 24308B 24332M 24333M 24333B 24364M 24367B 24471
                                                 24526M 24527M 24527B 24532M 24533M 24533B 24584M 24585M 24585B 24609M
                                                 24610M 24610B 24623M 24624M 24624B 24640M 24641M 24641B 24653M 24654M
1FLOW     (FLOW2025) (12:45) (15MAR04) Ordinary Symbol and Literal Cross Reference                                          Page  231
                                                 24654B 24677M 24678M 24678B 24706M 24707M 24707B 24734M 24737B 24804
                                                 24859M 24860M 24860B 24865M 24866M 24866B 24871M 24872M 24872B 24903M
                                                 24904M 24904B 24928M 24929M 24929B 24958M 24959M 24959B 24981M 24982M
                                                 24982B 24988M 24989M 24989B 24995M 24996M 24996B 25013M 25014M 25014B
                                                 25017M 25018M 25018B 25075M 25076M 25076B 25105M 25106M 25106B 25131M
                                                 25132M 25132B 25139M 25140M 25140B 25157M 25158M 25158B 25161M 25162M
                                                 25162B 25219M 25220M 25220B 25251M 25254B 25316  25371M 25372M 25372B
                                                 25393M 25394M 25394B 25418M 25419M 25419B 25427M 25428M 25428B 25468M
                                                 25469M 25469B 25482M 25483M 25483B 25507M 25508M 25508B 25560M 25561M
                                                 25561B 25574M 25575M 25575B 25639M 25642B 25715  25775M 25776M 25776B
                                                 25792M 25793M 25793B 25839M 25840M 25840B 25913M 25914M 25914B 25948M
                                                 25949M 25949B 25983M 25984M 25984B 26018M 26019M 26019B 26053M 26054M
                                                 26054B 26088M 26089M 26089B 26106M 26107M 26107B 26117M 26118M 26118B
                                                 26131M 26132M 26132B 26172M 26175B 26435  26481M 26484B 26499  26545M
                                                 26548B 26563  26612M 26615B 26630  26679M 26682B 26697  26746M 26749B
                                                 26764  26813M 26816B 26831  26880M 26883B 26898  26947M 26950B 26965
                                                 27011M 27012M 27012B 27025M 27026M 27026B 27043M 27046B 27061  27102M
                                                 27103M 27103B 27120M 27123B 27138  27169M 27170M 27170B 27187M 27188M
                                                 27188B 27194M 27195M 27195B 27208M 27209M 27209B 27226M 27229B 27244
                                                 27289M 27290M 27290B 27303M 27304M 27304B 27321M 27324B 27339  27384M
                                                 27385M 27385B 27398M 27399M 27399B 27416M 27419B 27434  27479M 27480M
                                                 27480B 27493M 27494M 27494B 27511M 27514B 27529  27574M 27575M 27575B
                                                 27588M 27589M 27589B 27606M 27609B 27627  27672M 27673M 27673B 27690M
                                                 27691M 27691B 27697M 27698M 27698B 27715M 27716M 27716B 27733M 27736B
                                                 27846  27971M 27972M 27972B 27989M 27990M 27990B 28003M 28004M 28004B
                                                 28014M 28015M 28015B 28039M 28042B 28064  28184M 28185M 28185B 28224M
                                                 28225M 28225B 28228M 28229M 28229B 28268M 28269M 28269B 28272M 28273M
                                                 28273B 28312M 28313M 28313B 28316M 28317M 28317B 28400M 28403B 28425
                                                 28545M 28546M 28546B 28621M 28622M 28622B 28661M 28662M 28662B 28701M
                                                 28702M 28702B 28749M 28752B 28774  28894M 28895M 28895B 28934M 28935M
                                                 28935B 29010M 29011M 29011B 29050M 29051M 29051B 29098M 29101B 29148
                                                 29183M 29184M 29184B 29228M 29229M 29229B 29242M 29243M 29243B 29264M
                                                 29265M 29265B 29307M 29308M 29308B 29321M 29322M 29322B 29357M 29360B
                                                 29442  29492M 29493M 29493B 29511M 29512M 29512B 29536M 29537M 29537B
                                                 29595M 29596M 29596B 29609M 29610M 29610B 29643M 29644M 29644B 29698M
                                                 29699M 29699B 29712M 29713M 29713B 29785M 29788B 29819  29865M 29866M
                                                 29866B 29883M 29884M 29884B 29909M 29910M 29910B 29934M 29935M 29935B
                                                 29993M 29994M 29994B 30007M 30008M 30008B 30041M 30042M 30042B 30096M
                                                 30097M 30097B 30110M 30111M 30111B 30173M 30174M 30174B 30191M 30192M
                                                 30192B 30205M 30206M 30206B 30238M 30241B 30270  30315M 30316M 30316B
                                                 30333M 30334M 30334B 30359M 30360M 30360B 30380M 30381M 30381B 30425M
                                                 30426M 30426B 30475M 30478B 30507  30552M 30553M 30553B 30570M 30571M
                                                 30571B 30596M 30597M 30597B 30617M 30618M 30618B 30662M 30663M 30663B
                                                 30712M 30715B 30744  30789M 30790M 30790B 30807M 30808M 30808B 30833M
                                                 30834M 30834B 30854M 30855M 30855B 30892M 30893M 30893B 30906M 30907M
                                                 30907B 30945M 30946M 30946B 30959M 30960M 30960B 30991M 30994B 31023
                                                 31068M 31069M 31069B 31086M 31087M 31087B 31112M 31113M 31113B 31133M
                                                 31134M 31134B 31178M 31179M 31179B 31228M 31231B 31263  31309M 31310M
                                                 31310B 31327M 31328M 31328B 31353M 31354M 31354B 31374M 31375M 31375B
                                                 31412M 31413M 31413B 31430M 31431M 31431B 31437M 31438M 31438B 31455M
                                                 31456M 31456B 31473M 31474M 31474B 31480M 31481M 31481B 31494M 31495M
                                                 31495B 31533M 31534M 31534B 31551M 31552M 31552B 31558M 31559M 31559B
                                                 31576M 31577M 31577B 31590M 31591M 31591B 31622M 31625B 31657  31727M
                                                 31728M 31728B 31741M 31742M 31742B 31829M 31830M 31830B 31847M 31848M
                                                 31848B 31865M 31866M 31866B 31901M 31902M 31902B 31924M 31927B 31986
                                                 32054M 32055M 32055B 32081M 32084B 32142  32206M 32207M 32207B 32268M
                                                 32271B 32360  32413M 32414M 32414B 32504M 32507B 32766  32797M 32798M
                                                 32798B 32822M 32823M 32823B 32845M 32848B 32863  32909M 32912B 32927
                                                 32987M 32988M 32988B 33005M 33006M 33006B 33023M 33024M 33024B 33037M
1FLOW     (FLOW2025) (12:45) (15MAR04) Ordinary Symbol and Literal Cross Reference                                          Page  232
                                                 33038M 33038B 33056M 33059B 33090  33160M 33161M 33161B 33174M 33175M
                                                 33175B 33229M 33230M 33230B 33243M 33244M 33244B 33285M 33288B 33347
                                                 33441M 33442M 33442B 33455M 33456M 33456B 33540M 33541M 33541B 33690M
                                                 33691M 33691B 33704M 33705M 33705B 33743M 33746B 33810  33845M 33846M
                                                 33846B 33855M 33856M 33856B 33876M 33879B 33908  33943M 33944M 33944B
                                                 33953M 33954M 33954B 33974M 33977B 34006  34043M 34044M 34044B 34053M
                                                 34054M 34054B 34072M 34073M 34073B 34115M 34118B 34148  34184M 34185M
                                                 34185B 34192M 34193M 34193B 34231M 34234B 34263  34298M 34299M 34299B
                                                 34308M 34309M 34309B 34346M 34349B 34404  34449M 34450M 34450B 34459M
                                                 34460M 34460B 34478M 34481B 34517  34552M 34553M 34553B 34562M 34563M
                                                 34563B 34620M 34623B 34657  34702M 34703M 34703B 34710M 34711M 34711B
                                                 34729M 34732B 34771  34816M 34817M 34817B 34824M 34825M 34825B 34865M
                                                 34868B 34944  35005M 35006M 35006B 35056M 35059B 35115  35169M 35170M
                                                 35170B 35220M 35223B 35280  35328M 35329M 35329B 35373M 35376B 35427
                                                 35480M 35481M 35481B 35496M 35497M 35497B 35541M 35544B 35577  35610M
                                                 35611M 35611B 35632M 35635B 35664  35718M 35719M 35719B 35752M 35753M
                                                 35753B 35759M 35760M 35760B 35784M 35785M 35785B 35791M 35792M 35792B
                                                 35801M 35802M 35802B 35824M 35827B 35848  35896M 35897M 35897B 35903M
                                                 35904M 35904B 35931M 35934B 35952  35997M 35998M 35998B 36015M 36016M
                                                 36016B 36036M 36039B 36054  36099M 36102B 36113  36158M 36161B 36172
                                                 36217M 36220B
 REPEAT        2 000005C6 00000001     H    9678  9674
 REPEATWA     32 00000000 FFFFFFDC     J    9668  9691   9720U  9997   9999  10000
 REPTFLOW     32 00000000 FFFFFFDC     X    9661  9733
 R0            0 00000000 FFFFFFFF A   #     699  2099   2168M  7655M  7673M  7701M  7719M  7784M  7802M  7879M  8059M
                                                  8059   8068   8069   8070   8118M  8118   8212M  8316M  8334M  8411M
                                                  8581M  8599M  8599   8608M  8635   8663M  8699M  8766   8805   9027M
                                                  9104M  9122M  9179M  9344M  9362M  9390M  9408M  9473M  9491M  9568M
                                                  9756M  9774M  9802M  9820M  9885M  9903M  9959M 10124M 10142M 10170M
                                                 10188M 10253M 10271M 10503M 10521M 10549M 10567M 10632M 10650M 10694M
                                                 10846M 10864M 10892M 10910M 10975M 10993M 11070M 11279M 11297M 11325M
                                                 11343M 11377M 11395M 11637M 11655M 11748M 11748  11764  11800M 11800
                                                 11816  11966M 11984M 11996M 12045M 12068M 12068  12077  12078  12079
                                                 12127M 12148  12149  12336M 12354M 12382M 12400M 12439  12579M 12597M
                                                 12625M 12643M 12682  12690M 12831M 12877M 13063M 13063  13072  13073
                                                 13074  13125M 13125  13140M 13160M 13160  13381M 13381  13390  13391
                                                 14011M 14011  14033M 14114M 14114  14123  14124  14125  14152M 14152
                                                 14187M 14373M 14391M 14429M 14447M 14506M 14524M 14532M 14538  14538M
                                                 14705M 14723M 14761M 14779M 14838M 14856M 14864M 14870  14870M 15007M
                                                 15012  15017M 15100M 15131M 15148  15159M 15159  15168  15169  15170
                                                 15218M 15237M 15254  15265M 15265  15274  15275  15276  15324M 15346
                                                 15496M 15501  15506M 15589M 15632M 15649  15660M 15660  15669  15670
                                                 15671  15714M 15745M 15762  15773M 15773  15782  15783  15784  15832M
                                                 15881  16121  16277M 16284  16307M 16314  16428M 16435  16463M 16630M
                                                 16637  16659M 16666  16780M 16787  16907M 16913  16924M 16948M 16954M
                                                 16979  16991M 16992M 17112M 17118  17129M 17153M 17154M 17160M 17185
                                                 17197M 17198M 17325M 17331  17344M 17368M 17374M 17399  17411M 17412M
                                                 17539M 17545  17584M 17608M 17614M 17639  17651M 17652M 17772M 17778
                                                 17791M 17815M 17821M 17846  17858M 17859M 17979M 17985  17998M 18022M
                                                 18028M 18053  18065M 18066M 18221  18232M 18232  18241  18242  18609M
                                                 18633  18836M 18836  18845  18846  18847  18870M 18894  19029  19040M
                                                 19040  19049  19050  19051  19079M 19079  19325M 19352  19388  19500M
                                                 19527  19548  19656M 19683  19695M 19702  19702M 19784  19806M 19819M
                                                 19841M 19859M 19886M 19899M 19921M 19939M 19951  19953  20044M 20044
                                                 20058  20070M 20077  20182  20182M 20272  20272M 20438M 20446M 20455
                                                 20455M 20537M 20545M 20554  20554M 20713M 20719M 20808M 21019  21030M
                                                 21030  21039  21040  21041  21098M 21098  21107  21108  21109  21138M
                                                 21138  21162M 21196M 21209M 21226M 21226  21235  21236  21237  21281M
                                                 21544  21555M 21555  21564  21565  21566  21634M 21682M 21700M 21721M
1FLOW     (FLOW2025) (12:45) (15MAR04) Ordinary Symbol and Literal Cross Reference                                          Page  233
                                                 21721  21730  21731  21732  21761M 21761  21785M 21819M 21834M 21851M
                                                 21851  21860  21861  21862  21906M 21964M 21982M 22239M 22269  22308
                                                 22390  22681M 22711  22753  22780  22818  22920  22947  22985  23240
                                                 23585M 23615  23654  23681  23719  23821  23848  23886  24137  24577
                                                 24602M 24648M 24921M 24951  24990  25019  25133  25163  25373  25411M
                                                 25457M 25475M 25567M 25610M 25617  25617M 25764  25809  25824M 25824
                                                 25833  25834  26124M 27000M 27018M 27095M 27176M 27189M 27201M 27278M
                                                 27296M 27373M 27391M 27468M 27486M 27563M 27581M 27661M 27679M 27692M
                                                 27704M 27902M 27902  27912M 27941M 27941  27951M 27978M 27996M 28022
                                                 28022M 28103M 28103  28109M 28110  28146  28151M 28166M 28166  28177M
                                                 28221M 28265M 28309M 28353M 28379  28379M 28464M 28464  28470M 28471
                                                 28507  28512M 28527M 28527  28538M 28582M 28618M 28658M 28698M 28728
                                                 28728M 28813M 28813  28819M 28820  28856  28861M 28876M 28876  28887M
                                                 28931M 28971M 29007M 29047M 29077  29077M 29203  29214M 29214  29223
                                                 29224  29225  29254M 29254  29282  29293M 29293  29302  29303  29304
                                                 29488M 29488  29489  29539  29540  29540  29540  29570  29581M 29581
                                                 29590  29591  29592  29636M 29655M 29673  29684M 29684  29693  29694
                                                 29695  29937  29938  29938  29938  29968  29979M 29979  29988  29989
                                                 29990  30034M 30053M 30071  30082M 30082  30091  30092  30093  30180M
                                                 30198M 30881M 30899M 30934M 30952M 31302  31401M 31419M 31432M 31444M
                                                 31462M 31475M 31487M 31522M 31540M 31553M 31565M 31583M 31702  31713M
                                                 31713  31722  31723  31724  31757M 31757  31802M 31836M 31854M 32047M
                                                 32314  32314  32314  32398M 32398  32407  32408  32815M 32960M 32994M
                                                 33012M 33030M 33135  33146M 33146  33155  33156  33157  33184M 33184
                                                 33190  33215M 33215  33224  33225  33226  33258M 33268  33268M 33396
                                                 33416  33427M 33427  33436  33437  33438  33467M 33467  33473M 33493
                                                 33512M 33535M 33594M 33594  33618M 33648M 33665  33676M 33676  33685
                                                 33686  33687  33721  33721M 33841M 33850M 33859  33859M 33939M 33948M
                                                 33957  33957M 34040M 34048M 34098  34098M 34181M 34194M 34207M 34214
                                                 34214M 34295M 34303M 34329  34329M 34446M 34454M 34549M 34557M 34578
                                                 34695  34699M 34707M 34809  34813M 34821M 34840  34993  34998M 35026M
                                                 35034  35034M 35190M 35198  35198M 35322  35323M 35486  35491M 35607M
                                                 35607  35741M 35754M 35773M 35773  35786M 35878  35879  35879  35879
                                                 35885M 35900M 35911M 35986M 36004M 36246  36246  36246
 R1            1 00000001 FFFFFFFF A   #     712  2162M  2163M  2169M  7654M  7672M  7700M  7718M  7763M  7783M  7801M
                                                  7878M  8055M  8068   8069   8070   8211M  8295M  8315M  8333M  8410M
                                                  8580M  8608   8635   8641M  8641   8662M  8662   8663   8699   8766
                                                  8772M  8772   8778M  8778   8805   8811M  8811   9026M  9083M  9103M
                                                  9121M  9178M  9343M  9361M  9389M  9407M  9452M  9472M  9490M  9567M
                                                  9755M  9773M  9801M  9819M  9864M  9884M  9902M  9958M 10123M 10141M
                                                 10169M 10187M 10232M 10252M 10270M 10502M 10520M 10548M 10566M 10611M
                                                 10631M 10649M 10693M 10845M 10863M 10891M 10909M 10954M 10974M 10992M
                                                 11069M 11278M 11296M 11324M 11342M 11376M 11394M 11616M 11636M 11654M
                                                 11744M 11763  11796M 11815  11965M 11983M 11995M 12044M 12064M 12077
                                                 12078  12079  12126M 12188M 12335M 12353M 12381M 12399M 12578M 12596M
                                                 12624M 12642M 12830M 12876M 13059M 13072  13073  13074  13138M 13377M
                                                 13390  13391  13393  14032M 14110M 14123  14124  14125  14186M 14340M
                                                 14366M 14390M 14422M 14446M 14455M 14469  14483  14499M 14523M 14672M
                                                 14698M 14722M 14754M 14778M 14787M 14801  14815  14831M 14855M 15006M
                                                 15013  15018M 15099M 15132M 15147  15155M 15168  15169  15170  15217M
                                                 15238M 15253  15261M 15274  15275  15276  15323M 15345  15495M 15502
                                                 15507M 15588M 15633M 15648  15656M 15669  15670  15671  15713M 15746M
                                                 15761  15769M 15782  15783  15784  15831M 15880  16122  16278M 16308M
                                                 16365M 16399M 16419M 16429M 16464M 16484M 16521M 16558M 16595M 16618M
                                                 16631M 16660M 16717M 16751M 16771M 16781M 16889  16908M 16925M 16949M
                                                 16955M 16993M 17094  17113M 17130M 17155M 17161M 17199M 17210M 17211M
                                                 17212  17213M 17214M 17215  17307  17326M 17345M 17369M 17375M 17413M
                                                 17424M 17425M 17426  17427M 17428M 17429  17521  17540M 17585M 17609M
                                                 17615M 17653M 17754  17773M 17792M 17816M 17822M 17860M 17961  17980M
1FLOW     (FLOW2025) (12:45) (15MAR04) Ordinary Symbol and Literal Cross Reference                                          Page  234
                                                 17999M 18023M 18029M 18067M 18220  18228M 18241  18242  18244  18608M
                                                 18632  18832M 18845  18846  18847  18869M 18893  19028  19036M 19049
                                                 19050  19051  19325  19352  19358M 19358  19388  19500  19527  19533M
                                                 19533  19548  19656  19683  19689M 19689  19695  19702  19805M 19834M
                                                 19858M 19885M 19914M 19938M 19952  20727M 20747M 20770M 20807M 20817M
                                                 20960  20981M 21018  21026M 21039  21040  21041  21094M 21107  21108
                                                 21109  21161M 21195M 21210M 21222M 21235  21236  21237  21280M 21296M
                                                 21307M 21339M 21484  21506M 21543  21551M 21564  21565  21566  21633M
                                                 21649M 21675M 21699M 21717M 21730  21731  21732  21784M 21818M 21835M
                                                 21847M 21860  21861  21862  21905M 21921M 21931M 21957M 21981M 22000M
                                                 22032M 22176  22238M 22268  22278M 22295M 22329M 22359M 22384M 22411M
                                                 22618  22680M 22710  22720M 22740M 22859M 22889M 22914M 23026M 23176
                                                 23239  23249M 23266M 23291M 23320M 23361M 23516  23584M 23614  23624M
                                                 23641M 23760M 23790M 23815M 23927M 24079  24136  24146M 24166M 24175M
                                                 24200M 24229M 24254M 24279M 24304M 24329M 24519  24576  24601M 24615M
                                                 24636M 24649M 24674M 24703M 24852  24920M 24950  24960M 24977M 25072M
                                                 25102M 25127M 25216M 25374  25410M 25424M 25450M 25474M 25504M 25566M
                                                 25611M 25617  25765  25771M 25808  25820M 25833  25834  25836  25891M
                                                 26102M 26123M 26999M 27017M 27094M 27175M 27190M 27200M 27277M 27295M
                                                 27372M 27390M 27467M 27485M 27562M 27580M 27660M 27678M 27693M 27703M
                                                 27910M 27949M 27977M 27995M 28022  28109  28111  28127  28146M 28151
                                                 28176M 28219M 28263M 28307M 28351M 28379  28470  28472  28488  28507M
                                                 28512  28537M 28580M 28616M 28656M 28696M 28728  28819  28821  28837
                                                 28856M 28861  28886M 28929M 28969M 29005M 29045M 29077  29177  29202
                                                 29210M 29223  29224  29225  29260M 29281  29289M 29302  29303  29304
                                                 29481  29507M 29539  29540  29540  29540  29569  29577M 29590  29591
                                                 29592  29635M 29655M 29672  29680M 29693  29694  29695  29858  29905M
                                                 29937  29938  29938  29938  29967  29975M 29988  29989  29990  30033M
                                                 30053M 30070  30078M 30091  30092  30093  30179M 30197M 30309  30355M
                                                 30421M 30546  30592M 30658M 30783  30829M 30880M 30898M 30933M 30951M
                                                 31062  31108M 31174M 31303  31349M 31400M 31418M 31433M 31443M 31461M
                                                 31476M 31486M 31521M 31539M 31554M 31564M 31582M 31701  31709M 31722
                                                 31723  31724  31801M 31835M 31853M 32048M 32203M 32314  32314  32314
                                                 32394M 32407  32408  32410  32814M 32959M 32993M 33011M 33029M 33134
                                                 33142M 33155  33156  33157  33190M 33192M 33211M 33224  33225  33226
                                                 33257M 33268  33397  33415  33423M 33436  33437  33438  33474M 33493M
                                                 33495M 33513M 33532  33536M 33606  33616M 33649M 33664  33672M 33685
                                                 33686  33687  33721  34035  34068M 34329  34442  34455M 34558  34559M
                                                 34559  34994  34999M 35027M 35034  35165  35166M 35191M 35198  35321
                                                 35324M 35492M 35606  35740M 35755M 35787M 35878  35879  35879  35879
                                                 35884M 35900M 35910M 35985M 36003M 36246  36246  36246
 R12          12 0000000C FFFFFFFF A   #     855  2125
 R13          13 0000000D FFFFFFFF A   #     868  8050   8063   8064   8065   8080   8081   8082  12072  12073  12074
                                                 12089  12090  12091  13067  13068  13069  13084  13085  13086  13372
                                                 13385  13386  13387  13403  13404  13405  14118  14119  14120  14135
                                                 14136  14137  15163  15164  15165  15180  15181  15182  15269  15270
                                                 15271  15286  15287  15288  15664  15665  15666  15681  15682  15683
                                                 15777  15778  15779  15794  15795  15796  18236  18237  18238  18254
                                                 18255  18256  18840  18841  18842  18857  18858  18859  19044  19045
                                                 19046  19061  19062  19063  21034  21035  21036  21051  21052  21053
                                                 21102  21103  21104  21119  21120  21121  21230  21231  21232  21247
                                                 21248  21249  21559  21560  21561  21576  21577  21578  21725  21726
                                                 21727  21742  21743  21744  21855  21856  21857  21872  21873  21874
                                                 25828  25829  25830  25846  25847  25848  29218  29219  29220  29235
                                                 29236  29237  29297  29298  29299  29314  29315  29316  29585  29586
                                                 29587  29602  29603  29604  29688  29689  29690  29705  29706  29707
                                                 29983  29984  29985  30000  30001  30002  30086  30087  30088  30103
                                                 30104  30105  31717  31718  31719  31734  31735  31736  32402  32403
                                                 32404  32420  32421  32422  33150  33151  33152  33167  33168  33169
1FLOW     (FLOW2025) (12:45) (15MAR04) Ordinary Symbol and Literal Cross Reference                                          Page  235
                                                 33219  33220  33221  33236  33237  33238  33431  33432  33433  33448
                                                 33449  33450  33680  33681  33682  33697  33698  33699
 R14          14 0000000E FFFFFFFF A   #     881  2100M  7877M  7878   7879   7883M  7883   8049M  8050   8062M  8063
                                                  8064   8065   8077M  8080   8081   8082   8091M  8094   8210M  8211
                                                  8212   8216M  8216   8409M  8410   8411   8415M  8415   8579M  8580
                                                  8581   8585M  8585   9025M  9026   9027   9031M  9031   9177M  9178
                                                  9179   9183M  9183   9566M  9567   9568   9572M  9572   9957M  9958
                                                  9959   9963M  9963  11068M 11069  11070  11074M 11074  11762M 11763
                                                 11764  11768M 11768  11814M 11815  11816  11820M 11820  11994M 11995
                                                 11996  12000M 12000  12071M 12072  12073  12074  12086M 12089  12090
                                                 12091  12829M 12830  12831  12835M 12835  13066M 13067  13068  13069
                                                 13081M 13084  13085  13086  13371M 13372  13384M 13385  13386  13387
                                                 13392M 13393  13400M 13403  13404  13405  13463M 13466  13909M 13910
                                                 13925  13940  13941  13942  13942  13943  13944  13957  13961M 13961
                                                 14117M 14118  14119  14120  14132M 14135  14136  14137  15005M 15006
                                                 15007  15011M 15011  15146M 15147  15148  15152M 15152  15162M 15163
                                                 15164  15165  15177M 15180  15181  15182  15252M 15253  15254  15258M
                                                 15258  15268M 15269  15270  15271  15283M 15286  15287  15288  15344M
                                                 15345  15346  15350M 15350  15494M 15495  15496  15500M 15500  15647M
                                                 15648  15649  15653M 15653  15663M 15664  15665  15666  15678M 15681
                                                 15682  15683  15760M 15761  15762  15766M 15766  15776M 15777  15778
                                                 15779  15791M 15794  15795  15796  15879M 15880  15881  15885M 15885
                                                 18219M 18220  18221  18225M 18225  18235M 18236  18237  18238  18243M
                                                 18244  18251M 18254  18255  18256  18607M 18608  18609  18613M 18613
                                                 18631M 18632  18633  18637M 18637  18839M 18840  18841  18842  18854M
                                                 18857  18858  18859  18868M 18869  18870  18874M 18874  18892M 18893
                                                 18894  18898M 18898  19027M 19028  19029  19033M 19033  19043M 19044
                                                 19045  19046  19058M 19061  19062  19063  19950M 21017M 21018  21019
                                                 21023M 21023  21033M 21034  21035  21036  21048M 21051  21052  21053
                                                 21101M 21102  21103  21104  21116M 21119  21120  21121  21229M 21230
                                                 21231  21232  21244M 21247  21248  21249  21542M 21543  21544  21548M
                                                 21548  21558M 21559  21560  21561  21573M 21576  21577  21578  21724M
                                                 21725  21726  21727  21739M 21742  21743  21744  21854M 21855  21856
                                                 21857  21869M 21872  21873  21874  22267M 22268  22269  22273M 22273
                                                 22709M 22710  22711  22715M 22715  23238M 23239  23240  23244M 23244
                                                 23613M 23614  23615  23619M 23619  24135M 24136  24137  24141M 24141
                                                 24575M 24576  24577  24581M 24581  24949M 24950  24951  24955M 24955
                                                 25807M 25808  25809  25813M 25813  25827M 25828  25829  25830  25835M
                                                 25836  25843M 25846  25847  25848  29201M 29202  29203  29207M 29207
                                                 29217M 29218  29219  29220  29232M 29235  29236  29237  29280M 29281
                                                 29282  29286M 29286  29296M 29297  29298  29299  29311M 29314  29315
                                                 29316  29568M 29569  29570  29574M 29574  29584M 29585  29586  29587
                                                 29599M 29602  29603  29604  29671M 29672  29673  29677M 29677  29687M
                                                 29688  29689  29690  29702M 29705  29706  29707  29966M 29967  29968
                                                 29972M 29972  29982M 29983  29984  29985  29997M 30000  30001  30002
                                                 30069M 30070  30071  30075M 30075  30085M 30086  30087  30088  30100M
                                                 30103  30104  30105  31700M 31701  31702  31706M 31706  31716M 31717
                                                 31718  31719  31731M 31734  31735  31736  31800M 31801  31802  31806M
                                                 31806  32401M 32402  32403  32404  32409M 32410  32417M 32420  32421
                                                 32422  32958M 32959  32960  32964M 32964  33133M 33134  33135  33139M
                                                 33139  33149M 33150  33151  33152  33164M 33167  33168  33169  33218M
                                                 33219  33220  33221  33233M 33236  33237  33238  33256M 33257  33258
                                                 33262M 33262  33414M 33415  33416  33420M 33420  33430M 33431  33432
                                                 33433  33445M 33448  33449  33450  33663M 33664  33665  33669M 33669
                                                 33679M 33680  33681  33682  33694M 33697  33698  33699  34579M 34841M
 R15          15 0000000F FFFFFFFF A   #     894  2099   7506M  7506   7525M  7525   7663M  7709M  7792M  7845M  7845
                                                  7944M  7944   8083M  8083   8188M  8188   8324M  8377M  8377   8476M
                                                  8476   8690M  8690   8864M  8864   9112M  9221M  9221   9352M  9398M
                                                  9481M  9534M  9534   9633M  9633   9764M  9810M  9893M 10001M 10001
1FLOW     (FLOW2025) (12:45) (15MAR04) Ordinary Symbol and Literal Cross Reference                                          Page  236
                                                 10132M 10178M 10261M 10314M 10314  10380M 10380  10511M 10557M 10640M
                                                 10723M 10723  10854M 10900M 10983M 11036M 11036  11135M 11135  11287M
                                                 11333M 11385M 11418M 11418  11645M 11882M 11882  11974M 12035M 12092M
                                                 12092  12117M 12220M 12220  12344M 12390M 12470M 12470  12587M 12633M
                                                 12723M 12723  12901M 12901  13087M 13087  13212M 13226M 13247M 13247
                                                 13260M 13260  13296M 13296  13406M 13406  13423  13433M 13433  13449
                                                 13456M 13485M 13485  13778M 13797M 13797  13842M 13861M 13861  13910M
                                                 13919M 13919  13925M 13934M 13934  13940M 13941M 13943M 13944  13956M
                                                 13956  13957  14019M 14053M 14053  14138M 14138  14177M 14195M 14200M
                                                 14223M 14223  14381M 14437M 14514M 14536M 14536  14562M 14562  14713M
                                                 14769M 14846M 14868M 14868  14894M 14894  15037M 15037  15063M 15063
                                                 15089M 15089  15125M 15125  15183M 15183  15208M 15289M 15289  15314M
                                                 15354M 15354  15378M 15378  15526M 15526  15552M 15552  15578M 15578
                                                 15597M 15602M 15626M 15626  15684M 15684  15704M 15722M 15727M 15797M
                                                 15797  15822M 15840M 15845M 15860M 15860  15889M 15889  15919M 15919
                                                 16293M 16293  16328M 16328  16455M 16455  16646M 16646  16680M 16680
                                                 16804M 16804  16828M 16828  17007M 17007  17026M 17026  17220M 17220
                                                 17239M 17239  17434M 17434  17453M 17453  17667M 17667  17686M 17686
                                                 17874M 17874  17893M 17893  18081M 18081  18100M 18100  18257M 18257
                                                 18274  18284M 18284  18300  18307M 18330M 18330  18544M 18563M 18563
                                                 18653M 18669M 18692M 18692  18749M 18765M 18788M 18788  18860M 18860
                                                 18914M 18930M 18953M 18953  19064M 19064  19101M 19101  19119M 19143M
                                                 19143  19264M 19264  19397M 19397  19415M 19439M 19439  19557M 19557
                                                 19573M 19597M 19597  19700M 19700  19721M 19721  19814M 19849M 19894M
                                                 19929M 19949M 19959M 19959  19978M 19978  20092M 20092  20111M 20111
                                                 20201M 20201  20291M 20291  20350M 20375M 20375  20437M 20445M 20474M
                                                 20474  20536M 20544M 20573M 20573  20714M 20720M 20812M 20812  20831M
                                                 20831  20855M 20855  21054M 21054  21122M 21122  21166M 21200M 21250M
                                                 21250  21285M 21348M 21348  21372M 21372  21579M 21579  21638M 21690M
                                                 21704M 21704  21745M 21745  21789M 21823M 21875M 21875  21910M 21972M
                                                 21986M 21986  22041M 22041  22065M 22065  22243M 22424M 22424  22448M
                                                 22448  22685M 22734M 22734  23039M 23039  23063M 23063  23374M 23374
                                                 23398M 23398  23589M 23940M 23940  23964M 23964  24160M 24160  24342M
                                                 24342  24366M 24366  24606M 24606  24712M 24712  24736M 24736  24925M
                                                 25005M 25005  25041M 25041  25149M 25149  25185M 25185  25229M 25229
                                                 25253M 25253  25385M 25385  25415M 25465M 25479M 25479  25532M 25532
                                                 25557M 25571M 25599M 25599  25615M 25615  25641M 25641  25849M 25849
                                                 25862  25874M 25874  26128M 26128  26138M 26146M 26146  26174M 26174
                                                 26464M 26483M 26483  26528M 26547M 26547  26595M 26614M 26614  26662M
                                                 26681M 26681  26729M 26748M 26748  26796M 26815M 26815  26863M 26882M
                                                 26882  26930M 26949M 26949  27008M 27022M 27045M 27045  27099M 27122M
                                                 27122  27184M 27205M 27205  27228M 27228  27286M 27300M 27323M 27323
                                                 27381M 27395M 27418M 27418  27476M 27490M 27513M 27513  27571M 27585M
                                                 27608M 27608  27669M 27687M 27712M 27735M 27735  27986M 28000M 28020M
                                                 28020  28041M 28041  28181M 28383M 28383  28402M 28402  28542M 28732M
                                                 28732  28751M 28751  28891M 29081M 29081  29100M 29100  29238M 29238
                                                 29317M 29317  29331M 29331  29336M 29359M 29359  29549M 29549  29605M
                                                 29605  29640M 29640  29708M 29708  29737M 29737  29753M 29787M 29787
                                                 29875M 29875  29897M 29897  29947M 29947  30003M 30003  30038M 30106M
                                                 30106  30135M 30135  30170M 30188M 30202M 30240M 30240  30325M 30325
                                                 30349M 30349  30405M 30405  30444M 30477M 30477  30562M 30562  30586M
                                                 30586  30642M 30642  30681M 30714M 30714  30799M 30799  30823M 30823
                                                 30889M 30903M 30942M 30956M 30969M 30969  30993M 30993  31078M 31078
                                                 31102M 31102  31158M 31158  31197M 31230M 31230  31319M 31319  31343M
                                                 31343  31409M 31427M 31452M 31470M 31491M 31491  31530M 31548M 31573M
                                                 31587M 31587  31600M 31600  31624M 31624  31737M 31737  31766M 31766
                                                 31826M 31844M 31862M 31867M 31926M 31926  32083M 32083  32223M 32223
                                                 32241M 32270M 32270  32423M 32423  32433M 32433  32440M 32456  32466M
                                                 32466  32483M 32506M 32506  32819M 32828M 32847M 32847  32892M 32911M
1FLOW     (FLOW2025) (12:45) (15MAR04) Ordinary Symbol and Literal Cross Reference                                          Page  237
                                                 32911  32984M 33002M 33020M 33034M 33058M 33058  33170M 33170  33239M
                                                 33239  33266M 33266  33287M 33287  33451M 33451  33475M 33514M 33555M
                                                 33555  33622M 33622  33700M 33700  33706M 33745M 33745  33842M 33849M
                                                 33878M 33878  33940M 33947M 33976M 33976  34039M 34047M 34091M 34117M
                                                 34117  34180M 34188M 34233M 34233  34294M 34302M 34348M 34348  34445M
                                                 34453M 34480M 34480  34548M 34556M 34578  34622M 34622  34698M 34706M
                                                 34731M 34731  34812M 34820M 34840  34867M 34867  35032M 35032  35058M
                                                 35058  35196M 35196  35222M 35222  35351M 35351  35375M 35375  35519M
                                                 35519  35543M 35543  35606M 35615M 35615  35634M 35634  35693  35715M
                                                 35749M 35781M 35826M 35826  35893M 35933M 35933  35994M 36012M 36038M
                                                 36038  36101M 36101  36160M 36160  36219M 36219
 R2            2 00000002 FFFFFFFF A   #     725  8574U  8576M  8664M 12439M 12445  12682M 12690  13141M 14333M 14665M
                                                 15014  15019M 15058M 15059  15503  15508M 15547M 15548  16279M 16309M
                                                 16430M 16632M 16661M 16782M 16916M 16926M 16980M 16994M 17121M 17131M
                                                 17186M 17200M 17335M 17346M 17400M 17414M 17548M 17586M 17640M 17654M
                                                 17780M 17793M 17847M 17861M 17989M 18000M 18054M 18068M 19235M 19950M
                                                 19954M 20081M 20081  20083M 20086  20350  20728M 20748M 20771M 20818M
                                                 20961  20978  20982M 21175M 21211M 21297M 21305M 21306  21328M 21329
                                                 21485  21486  21503  21507M 21613M 21798M 21836M 21922M 21998M 21999
                                                 22021M 22022  22177  22178  22243  22279M 22296M 22301  22385M 22619
                                                 22620  22685  22721M 22741M 22746  22915M 23177  23178  23250M 23267M
                                                 23272  23517  23518  23589  23625M 23642M 23647  23816M 24080  24081
                                                 24147M 24167M 24172  24176M 24181  24280M 24285  24520  24521  24616M
                                                 24637M 24650M 24655  24853  24854  24925  24961M 24978M 24983  25128M
                                                 25365  25368M 25502M 25503  25766  25767  25772M 25892M 26103M 27191M
                                                 27694M 28000  28011  28115M 28115  28476M 28476  28825M 28825  29178
                                                 29261M 29482  29489  29508M 29533M 29859  29860  29906M 29931M 30310
                                                 30356M 30422M 30547  30593M 30659M 30784  30830M 30903  30956  31063
                                                 31109M 31175M 31304  31350M 31434M 31477M 31555M 32049M 32391  33398
                                                 33537M 33612M 33613  34036  34069  34177  34194  34195  34456M 34558M
                                                 35000M 35324  35325M 35492  35493M 35693M 35730M 35730
 R3            3 00000003 FFFFFFFF A   #     738 12149M 12153M 12162M 12162  12169  16917M 16981M 17122M 17187M 17336M
                                                 17401M 17549M 17641M 17781M 17848M 17990M 18055M 19067M 19068M 19068
                                                 19795  19948M 19951M 20077M 20084  20175M 20175  20265M 20265  21062M
                                                 21063M 21063  21212M 21258M 21259M 21259  21587M 21588M 21588  21837M
                                                 21883M 21884M 21884  22193M 22194M 22194  22635M 22636M 22636  23199M
                                                 23200M 23200  23539M 23540M 23540  24096M 24097M 24097  24536M 24537M
                                                 24537  24875M 24876M 24876  28110M 28111M 28118M 28120  28471M 28472M
                                                 28479M 28481  28820M 28821M 28828M 28830  29613M 29614M 29614  29716M
                                                 29717M 29717  30011M 30012M 30012  30114M 30115M 30115  30384M 30385M
                                                 30385  30621M 30622M 30622  30858M 30859M 30859  31137M 31138M 31138
                                                 31378M 31379M 31379  31745M 31746M 31746  32050M 34035M 34068  34699
                                                 34813  34993M 35322M 35490M
 R4            4 00000004 FFFFFFFF A   #     751 13213M 13214  13231M 13232  16913M 16914M 16915  16918M 16985M 16985
                                                 17118M 17119M 17120  17123M 17191M 17191  17331M 17332M 17333M 17334
                                                 17337M 17338M 17405M 17405  17545M 17546M 17547  17550M 17571M 17571
                                                 17645M 17645  17778M 17779  17785M 17785  17852M 17852  17985M 17986M
                                                 17987M 17988  17991M 17992M 18059M 18059  19785  19875M 19875  19948
                                                 19952M 19954M 20082M 20083  21213M 21838M 25817M 25817  25885M 25885
                                                 25904  25939  25974  26009  26044  26079  26097M 26097  26592M 26594
                                                 26594M 26659M 26661  26661M 26726M 26728  26728M 26793M 26795  26795M
                                                 26860M 26862  26862M 26927M 26929  26929M 28011M 28181  28542  28891
                                                 32051M 32391M 32819  33034  34036M 34069  34177M 34195  34698  34706
                                                 34812  34820  34994M 35321M 35489M
 R5            5 00000005 FFFFFFFF A   #     764 16919M 16986M 17124M 17192M 17339M 17406M 17572M 17573M 17574  17579M
                                                 17646M 17786M 17853M 17993M 18060M 19819  19899  19953M 29177M 29260
                                                 33532M 33606  34695M 34707  34809M 34821
 R6            6 00000006 FFFFFFFF A   #     777  7630U  7632M  8042U  8044M  8962U  8964M  9319U  9321M  9731U  9733M
                                                 10099U 10101M 10478U 10480M 10821U 10823M 11509U 11511M 12311U 12313M
1FLOW     (FLOW2025) (12:45) (15MAR04) Ordinary Symbol and Literal Cross Reference                                          Page  238
                                                 12556M 13052U 13054M 14321U 14323M 14655M 15000U 15002M 15489U 15491M
                                                 16887U 16889M 17092U 17094M 17305U 17307M 17519U 17521M 17752U 17754M
                                                 17959U 17961M 19784M 19785M 19795  20957U 20959M 21314M 21481U 21483M
                                                 22007M 22174U 22311M 22336M 22393M 22616U 22841M 22866M 23008M 23174U
                                                 23275M 23298M 23345M 23514U 23742M 23767M 23909M 24077U 24184M 24207M
                                                 24236M 24288M 24311M 24517U 24658M 24681M 24850U 25054M 25079M 25198M
                                                 25362U 25364M 25754M 25762U 29178M 29261  29860M 30038  30202  32032U
                                                 32034M 32188U 32190M 33393U 33395M 34440U 34442M 34693U 34807U 34990U
                                                 34992M 35161U 35163M 35473U 35475M
 R7            7 00000007 FFFFFFFF A   #     790  2092M  2092   2093B  2105B
 R8            8 00000008 FFFFFFFF A   #     803  7619U  8031U  8563U  8951U  9308U  9720U 10088U 10467U 10810U 11498U
                                                 12300U 12550U 13038U 14310U 14649U 14986U 15478U 16115U 19229U 20700U
                                                 20946U 21470U 22163U 22605U 23163U 23503U 24066U 24506U 24839U 25351U
                                                 25750U 29477U 29854U 30305U 30542U 30779U 31058U 31298U 32021U 32177U
                                                 33382U 34979U 35150U 35315U 35462U
 SAVEFLOW      2 0000671E 00000001     H   34511 22489  24405  27763
 SAVFINFO      2 000067C8 00000001     H   34765 22487
 SCANCHK       1 00000000 00000005     T   11172 11172  12928  15938  20585  22485  29379  32300  33769
 SCANCMD       2 0000621E 00000001     H   33084 22493  24394  27757  32304
 SCANEXPR      1 00000000 00000008     T   11176 11176
 SCINFO        1 00000000 00000007     T   11175 11175
 SCLBAREA      4 00000008 FFFFFFBF     F   33321 33398M 33612
 SCLBLEN       4 00000004 FFFFFFBF     F   33320 33396M 33473  33512  33535  33648
 SCLBLOC       4 00000000 FFFFFFBF     F   33319 33397M 33474  33513  33536  33649
 SCLBTEMP     80 0000000C FFFFFFBF     X   33322 33395  33537
 SCLBWA       92 00000000 FFFFFFBF     J   33331 33353  33382U 33741  33743  33744
 SCNBEGIN      2 00005E20 00000001     H   32354 20589  22495  24397  27758
 SCNLABEL      2 00006322 00000001     H   33340 12926  20591  27769  32298
 SCNLAREA      4 00000008 FFFFFFD2     F   14925 15014M 15058
 SCNLLEN       4 00000004 FFFFFFD2     F   14924 15012M 15017  15131  15237
 SCNLLOC       4 00000000 FFFFFFD2     F   14923 15013M 15018  15132  15238
 SCNLNAME      2 00001B04 00000001     H   14944 15952
 SCNLTEMP     80 0000000C FFFFFFD2     X   14926 15002  15019
 SCNLWA       92 00000000 FFFFFFD2     J   14935 14957  14986U 15374  15376  15377
 SCNNLIST      1 00000000 0000001E     T   22486 22486
 SCNPAREA      4 00000008 FFFFFFD1     F   15416 15503M 15547
 SCNPLEN       4 00000004 FFFFFFD1     F   15415 15501M 15506  15632  15745
 SCNPLOC       4 00000000 FFFFFFD1     F   15414 15502M 15507  15633  15746
 SCNPNAME      2 00001CAA 00000001     H   15436 15432  22490
 SCNPTEMP     80 0000000C FFFFFFD1     X   15417 15491  15508
 SCNPWA       92 00000000 FFFFFFD1     J   15426 15449  15478U 15915  15917  15918
 SCNVNAME      1 00000000 00000016     T   15956 15956  33770
 SDSNQSZ       1 0000002C FFFFFFEC A   U    6080  6081   6082
 SEG           1 00000000 0000000B     T   12922 12922  15951  20592  27773  29372  32303  33767  36239
 SEGCR         1 00000000 00000002     T   11166 11166  12917  15950  27793  32307  33768  36238
 SEGT          1 00000000 00000015     T   15954 15954  22492  27772
 SEGXLINE      1 00000000 00000026     T   36241 36241
 SEGXLNO       1 00000000 0000001F     T   27791 27791  32308  36240
 SKIPDONE      2 000052FA 00000001     H   29340 29332B 29337B
 SKIPEXPR      2 00004E08 00000001     H   27840 20588  22494  24395  27765
 SKIPNULL      2 000051E8 00000001     H   29142 32296
 SPR          13 0000000D 00000001 A   #    1104  7474   7477   7478   7479M  7479   7517M  7521   7523   7584   7587
                                                  7589   7590M  7590   7936M  7940   7942   7996   7999   8001   8002M
                                                  8002   8468M  8472   8474   8528   8531   8533   8534M  8534   8856M
                                                  8860   8862   8916   8919   8921   8922M  8922   9213M  9217   9219
                                                  9273   9276   9278   9279M  9279   9625M  9629   9631   9685   9688
                                                  9690   9691M  9691   9993M  9997   9999  10053  10056  10058  10059M
                                                 10059  10372M 10376  10378  10432  10435  10437  10438M 10438  10715M
                                                 10719  10721  10775  10778  10780  10781M 10781  11127M 11131  11133
1FLOW     (FLOW2025) (12:45) (15MAR04) Ordinary Symbol and Literal Cross Reference                                          Page  239
                                                 11228  11231  11232  11233M 11233  11410M 11414  11416  11463  11466
                                                 11468  11469M 11469  11874M 11878  11880  11915  11918  11919  11920M
                                                 11920  12212M 12216  12218  12265  12268  12270  12271M 12271  12462M
                                                 12466  12468  12515  12518  12520  12521M 12521  12715M 12719  12721
                                                 12744  12747  12748  12749M 12749  12893M 12897  12899  13003  13006
                                                 13008  13009M 13009  13288M 13292  13294  13338  13341  13342  13343M
                                                 13343  13477M 13481  13483  13745  13748  13749  13750M 13750  13789M
                                                 13793  13795  13813  13816  13817  13818M 13818  13853M 13857  13859
                                                 13877  13880  13881  13882M 13882  14045M 14049  14051  14079  14082
                                                 14083  14084M 14084  14215M 14219  14221  14275  14278  14280  14281M
                                                 14281  14554M 14558  14560  14614  14617  14619  14620M 14620  14886M
                                                 14890  14892  14951  14954  14956  14957M 14957  15370M 15374  15376
                                                 15443  15446  15448  15449M 15449  15911M 15915  15917  16080  16083
                                                 16085  16086M 16086  16820M 16824  16826  16851  16854  16855  16856M
                                                 16856  17018M 17022  17024  17056  17059  17060  17061M 17061  17231M
                                                 17235  17237  17269  17272  17273  17274M 17274  17445M 17449  17451
                                                 17483  17486  17487  17488M 17488  17678M 17682  17684  17716  17719
                                                 17720  17721M 17721  17885M 17889  17891  17923  17926  17927  17928M
                                                 17928  18092M 18096  18098  18175  18178  18179  18180M 18180  18322M
                                                 18326  18328  18515  18518  18519  18520M 18520  18555M 18559  18561
                                                 18576  18579  18580  18581M 18581  18684M 18688  18690  18705  18708
                                                 18709  18710M 18710  18780M 18784  18786  18801  18804  18805  18806M
                                                 18806  18945M 18949  18951  18983  18986  18987  18988M 18988  19135M
                                                 19139  19141  19194  19197  19199  19200M 19200  19256M 19260  19262
                                                 19294  19297  19298  19299M 19299  19431M 19435  19437  19469  19472
                                                 19473  19474M 19474  19589M 19593  19595  19625  19628  19629  19630M
                                                 19630  19713M 19717  19719  19753  19756  19757  19758M 19758  19970M
                                                 19974  19976  20005  20008  20009  20010M 20010  20103M 20107  20109
                                                 20142  20145  20146  20147M 20147  20193M 20197  20199  20232  20235
                                                 20236  20237M 20237  20283M 20287  20289  20320  20323  20324  20325M
                                                 20325  20367M 20371  20373  20406  20409  20410  20411M 20411  20466M
                                                 20470  20472  20505  20508  20509  20510M 20510  20565M 20569  20571
                                                 20665  20668  20670  20671M 20671  20847M 20851  20853  20911  20914
                                                 20916  20917M 20917  21364M 21368  21370  21435  21438  21440  21441M
                                                 21441  22057M 22061  22063  22128  22131  22133  22134M 22134  22440M
                                                 22444  22446  22570  22573  22575  22576M 22576  23055M 23059  23061
                                                 23128  23131  23133  23134M 23134  23390M 23394  23396  23468  23471
                                                 23473  23474M 23474  23956M 23960  23962  24031  24034  24036  24037M
                                                 24037  24358M 24362  24364  24471  24474  24476  24477M 24477  24728M
                                                 24732  24734  24804  24807  24809  24810M 24810  25245M 25249  25251
                                                 25316  25319  25321  25322M 25322  25633M 25637  25639  25715  25718
                                                 25720  25721M 25721  26166M 26170  26172  26435  26438  26439  26440M
                                                 26440  26475M 26479  26481  26499  26502  26503  26504M 26504  26539M
                                                 26543  26545  26563  26566  26567  26568M 26568  26606M 26610  26612
                                                 26630  26633  26634  26635M 26635  26673M 26677  26679  26697  26700
                                                 26701  26702M 26702  26740M 26744  26746  26764  26767  26768  26769M
                                                 26769  26807M 26811  26813  26831  26834  26835  26836M 26836  26874M
                                                 26878  26880  26898  26901  26902  26903M 26903  26941M 26945  26947
                                                 26965  26968  26969  26970M 26970  27037M 27041  27043  27061  27064
                                                 27065  27066M 27066  27114M 27118  27120  27138  27141  27142  27143M
                                                 27143  27220M 27224  27226  27244  27247  27248  27249M 27249  27315M
                                                 27319  27321  27339  27342  27343  27344M 27344  27410M 27414  27416
                                                 27434  27437  27438  27439M 27439  27505M 27509  27511  27529  27532
                                                 27533  27534M 27534  27600M 27604  27606  27627  27630  27631  27632M
                                                 27632  27727M 27731  27733  27846  27849  27850  27851M 27851  28033M
                                                 28037  28039  28064  28067  28068  28069M 28069  28394M 28398  28400
                                                 28425  28428  28429  28430M 28430  28743M 28747  28749  28774  28777
                                                 28778  28779M 28779  29092M 29096  29098  29148  29151  29152  29153M
                                                 29153  29351M 29355  29357  29442  29445  29447  29448M 29448  29779M
1FLOW     (FLOW2025) (12:45) (15MAR04) Ordinary Symbol and Literal Cross Reference                                          Page  240
                                                 29783  29785  29819  29822  29824  29825M 29825  30232M 30236  30238
                                                 30270  30273  30275  30276M 30276  30469M 30473  30475  30507  30510
                                                 30512  30513M 30513  30706M 30710  30712  30744  30747  30749  30750M
                                                 30750  30985M 30989  30991  31023  31026  31028  31029M 31029  31222M
                                                 31226  31228  31263  31266  31268  31269M 31269  31616M 31620  31622
                                                 31657  31660  31661  31662M 31662  31918M 31922  31924  31986  31989
                                                 31991  31992M 31992  32075M 32079  32081  32142  32145  32147  32148M
                                                 32148  32262M 32266  32268  32360  32363  32364  32365M 32365  32498M
                                                 32502  32504  32766  32769  32770  32771M 32771  32839M 32843  32845
                                                 32863  32866  32867  32868M 32868  32903M 32907  32909  32927  32930
                                                 32931  32932M 32932  33050M 33054  33056  33090  33093  33094  33095M
                                                 33095  33279M 33283  33285  33347  33350  33352  33353M 33353  33737M
                                                 33741  33743  33810  33813  33814  33815M 33815  33870M 33874  33876
                                                 33908  33911  33912  33913M 33913  33968M 33972  33974  34006  34009
                                                 34010  34011M 34011  34109M 34113  34115  34148  34151  34152  34153M
                                                 34153  34225M 34229  34231  34263  34266  34267  34268M 34268  34340M
                                                 34344  34346  34404  34407  34408  34409M 34409  34472M 34476  34478
                                                 34517  34520  34521  34522M 34522  34614M 34618  34620  34657  34660
                                                 34661  34662M 34662  34723M 34727  34729  34771  34774  34775  34776M
                                                 34776  34859M 34863  34865  34944  34947  34949  34950M 34950  35050M
                                                 35054  35056  35115  35118  35120  35121M 35121  35214M 35218  35220
                                                 35280  35283  35285  35286M 35286  35367M 35371  35373  35427  35430
                                                 35432  35433M 35433  35535M 35539  35541  35577  35580  35581  35582M
                                                 35582  35626M 35630  35632  35664  35667  35668  35669M 35669  35818M
                                                 35822  35824  35848  35851  35852  35853M 35853  35925M 35929  35931
                                                 35952  35955  35956  35957M 35957  36030M 36034  36036  36054  36057
                                                 36058  36059M 36059  36093M 36097  36099  36113  36116  36117  36118M
                                                 36118  36152M 36156  36158  36172  36175  36176  36177M 36177  36211M
                                                 36215  36217
 THEN          2 000010D2 00000001     H   12738 12734
 TRC           1 00000000 00000000 A   T    2121  2121
 TTYFLAG       1 00000004 FFFFFFEA     R    6209  6213
 TTYMAX#       1 00000006 FFFFFFEA A   U    6265  6266
 TTYTFLAG      1 00000005 FFFFFFEA     R    6219  6223   6228   6233   6238   6243   6248   6253
 UNTIL         2 000006B8 00000001     H   10046 10042
 UNTILWA      32 00000000 FFFFFFDB     J   10036 10059  10088U 10376  10378  10379
 UNTLFLOW     32 00000000 FFFFFFDB     X   10029 10101
 UPPTBL        1 00000000 00000000 A   T    2184  2184
 VNADATA      48 00000020 FFFFFFE8     X    6716  6893   6893
 VNAFLAGS      1 00000011 FFFFFFE8     R    6697  6701
 VNAREA        1 00000024 FFFFFFE8     U    6834  6836   6840   6846   6895   6901   6906   6912
 VNARRAY       4 00000020 FFFFFFE8         6760  7152   7152
 VNATYPE       1 00000030 FFFFFFE8     R    6853  6862   6872   6882
 VNBOOL        3 00000020 FFFFFFE8         6750  7148   7148
 VNDATA       16 00000020 FFFFFFE8     X    6712  6713   6715   6717   6899   6899   6904   6904   6910   6910   6915
                                                  6915
 VNDEBUG       1 00000021 FFFFFFE8     R    6795  6799   6804   6809   6814
 VNDESC       32 00000000 FFFFFFE8     X    6638  6639   6707   6707   6985   7023   7077   7138   7138   7437
 VNENTRY      80 00000000 FFFFFFE8     J    6928  6947   7069   7077   7138   7143   7146   7148   7150   7152   7155
                                                  7157   7159  14926  15000U 15417  15489U 33322  33393U
 VNFLAGS1      1 00000022 FFFFFFE8     R    6819  6823
 VNNAME       16 00000000 FFFFFFE8     C    6640  6892   7143   7143  14927  14928  15059  15418  15419  15548  33323
                                                 33324  33613
 VNNUMB        2 00000020 FFFFFFE8         6740  7146   7146
 VNPREFIX      1 00000010 FFFFFFE8     R    6643  6652   6662   6672   6682   6692  15052  15541  33570
 VNSDATA       6 00000020 FFFFFFE8     X    6714  6844   6844
 VNSTRING      1 00000020 FFFFFFE8         6730  7150   7150
 VNSTRLEN      2 00000024 FFFFFFE8     H    6842  7159   7159
 VNSTRLOC      1 00000026 FFFFFFE8     C    6843  7157   7157
1FLOW     (FLOW2025) (12:45) (15MAR04) Ordinary Symbol and Literal Cross Reference                                          Page  241
 VNTYPE        1 00000020 FFFFFFE8     R    6721  6730   6740   6750   6760   6770   6780   6790
 VNVALUE      12 00000024 FFFFFFE8     X    6838  6919   7155   7155
 VPARM       336 00000000 FFFFFFE7     J    6955  7004   7071   7161   7162  12980  20888
 WAR           8 00000008 00000001 A   #    1027  7478M  7517   7589M  7936   8001M  8468   8533M  8856   8921M  9213
                                                  9278M  9625   9690M  9993  10058M 10372  10437M 10715  10780M 11127
                                                 11232M 11410  11468M 11874  11919M 12212  12270M 12462  12520M 12715
                                                 12748M 12893  13008M 13288  13342M 13477  13749M 13789  13817M 13853
                                                 13881M 14045  14083M 14215  14280M 14538  14554  14619M 14870  14886
                                                 14956M 15370  15448M 15911  16085M 16820  16855M 17018  17060M 17231
                                                 17273M 17445  17487M 17678  17720M 17885  17927M 18092  18179M 18322
                                                 18519M 18555  18580M 18684  18709M 18780  18805M 18945  18987M 19135
                                                 19199M 19256  19298M 19431  19473M 19589  19629M 19702  19713  19757M
                                                 19970  20009M 20103  20146M 20182  20193  20236M 20272  20283  20324M
                                                 20367  20410M 20455  20466  20509M 20554  20565  20670M 20847  20916M
                                                 21364  21440M 22057  22133M 22440  22575M 23055  23133M 23390  23473M
                                                 23956  24036M 24358  24476M 24728  24809M 25245  25321M 25617  25633
                                                 25720M 26166  26439M 26475  26503M 26539  26567M 26594  26606  26634M
                                                 26661  26673  26701M 26728  26740  26768M 26795  26807  26835M 26862
                                                 26874  26902M 26929  26941  26969M 27037  27065M 27114  27142M 27220
                                                 27248M 27315  27343M 27410  27438M 27505  27533M 27600  27631M 27727
                                                 27850M 28022  28033  28068M 28379  28394  28429M 28728  28743  28778M
                                                 29077  29092  29152M 29351  29447M 29779  29824M 30232  30275M 30469
                                                 30512M 30706  30749M 30985  31028M 31222  31268M 31616  31661M 31918
                                                 31991M 32075  32147M 32262  32364M 32498  32770M 32839  32867M 32903
                                                 32931M 33050  33094M 33268  33279  33352M 33721  33737  33814M 33859
                                                 33870  33912M 33957  33968  34010M 34098  34109  34152M 34214  34225
                                                 34267M 34329  34340  34408M 34472  34521M 34614  34661M 34723  34775M
                                                 34859  34949M 35034  35050  35120M 35198  35214  35285M 35367  35432M
                                                 35535  35581M 35626  35668M 35818  35852M 35925  35956M 36030  36058M
                                                 36093  36117M 36152  36176M 36211
 WHILE         2 00000050 00000001     H    7577  7573
 WHILEWA      32 00000000 FFFFFFE1     J    7567  7590   7619U  7940   7942   7943
 WHILFLOW     32 00000000 FFFFFFE1     X    7560  7632
 WTOSG         1 00000000 00000000 A   T    2081  2081
 WYLFLOW       1 00000000 00000001     J     991   993   1009   1022   1035   1047   1060   1073   1086   1099   1112
                                                  1125   2365   2449   6189   6301   6581   6585   6588   6929   6956
                                                  6993   7012   7031   7170   7448
 XDELSET       1 00000000 00000025     T   36237 36237
 XEXIT         2 00001034 00000001     H   12508 12504
 XFCLINE     235 00000004 FFFFFFCE     X   20641 20727  20747  20770  20817
 XFCLNO        4 00000000 FFFFFFCE     F   20640 20710M 20710  20728  20748  20771  20818
 XFCWA       239 00000000 FFFFFFCE     J   20648 20671  20700U 20851  20853  20854
 XGET          1 00000000 00000021     T   34359 34359  34885
 XGETFRST      1 00000000 0000001C     T   20601 20601  34360
 XGETNEXT      1 00000000 0000001D     T   20602 20602  34361
 XGETPREV      1 00000000 00000023     T   34365 34365
 XITFLOW      32 00000000 FFFFFFD6     X   12491 12556
 XITWA        32 00000000 FFFFFFD6     J   12498 12521  12550U 12719  12721  12722
 XLBLLNO       2 00001A3A 00000001     H   14607 12932  14603
 XLINESZ       1 000000EB 00000001 A   U    6617 20641
 XLLFLOW      32 00000000 FFFFFFD3     X   14590 14655
 XLLWA        32 00000000 FFFFFFD3     J   14597 14620  14649U 14890  14892  14893
 XLOCNEXT      1 00000000 00000022     T   34363 34363
 XPUT          1 00000000 00000024     T   34886 34886
 XRETURN       1 00000000 0000000C     T   12924 12924
 XSBOOL        3 00000020 FFFFFFE3 C       7148 13196
 XSENTRY      80 00000000 FFFFFFE3     J    7169  7143   7146   7148   7150   7155   7157   7159   8574U 13052U 13141
 XSETSET       1 00000000 0000001B     T   20600 20600  22476  34358  34884
 XSLENTRY    336 00000000 FFFFFFE3     U    7071  7161   7162   8505
1FLOW     (FLOW2025) (12:45) (15MAR04) Ordinary Symbol and Literal Cross Reference                                          Page  242
 XSTYPE        1 00000000 FFFFFFE3     R    7080  7089   7099   7109   7119   7129
 XSVALUE      12 00000024 FFFFFFE3 C   X    7155 13214  13232
 XXSSTART      8 00000000 FFFFFFE3     D    7068  7071   7077   7138
 XXXEXIT       1 00000000 0000000F     T   12933 12933
 ZAPDONE       2 000003C6 00000001     H    8840  8602B  8656B  8713B
 ZAPIF         2 000002FE 00000001     H    8521 11174
 ZAPVALUE    336 00000000 FFFFFFDF     X    8505  8576   8664
 ZAPWA       336 00000000 FFFFFFDF     J    8512  8534   8563U  8860   8862   8863
 =A(BEGINPRT)
               4 000064B0 00000001     A   33762 32409
 =A(CHECKPRT)
               4 00001EB8 00000001     A   15945 13392
 =A(CHKBEGIN)
               4 00000A9C 00000001     A   11169  7854   8386   9154   9543   9934  10681  11045
 =A(CHKCASE)
               4 00004B78 00000001     A   27760 24623  24995  25139
 =A(CHKDEF)
               4 000037F4 00000001     A   22491 21652  21934
 =A(CHKDEF)
               4 00004BA4 00000001     A   27771 25427
 =A(CHKELSE)
               4 00003F6C 00000001     A   24400 22765  22932  23666  23833
 =A(CHKELSF)
               4 00003F74 00000001     A   24402 22803  22970  23704  23871
 =A(CHKEND)
               4 00004B80 00000001     A   27762 24653
 =A(CHKLABEL)
               4 00001240 00000001     A   12929 12140
 =A(CHKLABEL)
               4 00004BA0 00000001     A   27770 25393
 =A(CHKOPTS)
               4 00000AC4 00000001     A   11179 10687
 =A(CHKOPTS)
               4 00001EC8 00000001     A   15949 13964
 =A(CHKOPTS)
               4 00005D00 00000001     A   32310 31901
 =A(CHKOPTS)
               4 000064BC 00000001     A   33765 32797
 =A(CHKPROC)
               4 000037C4 00000001     A   22479 20755  20778
 =A(CHKUNTIL)
               4 00003F88 00000001     A   24407 24179  24283
 =A(CHKXPROC)
               4 000037BC 00000001     A   22477 20731
 =A(EVALCOND)
               4 00000A98 00000001     A   11168  7833   8176   8365   9522  10302  11024
 =A(FCBEGIN)
               4 00004BE4 00000001     A   27787 26053
 =A(FCCASE)
               4 00004B7C 00000001     A   27761 24640  25013  25157
 =A(FCCASES)
               4 00004BDC 00000001     A   27785 26018
 =A(FCDO)      4 00004BCC 00000001     A   27781 25948
 =A(FCELSE)
               4 00003F70 00000001     A   24401 22774  22941  23675  23842
 =A(FCELSEIF)
               4 00003F78 00000001     A   24403 22812  22979  23713  23880
 =A(FCERROR)
               4 000037CC 00000001     A   22481 20815  21169  21203  21288  21641  21707  21792  21826  21913  21989
1FLOW     (FLOW2025) (12:45) (15MAR04) Ordinary Symbol and Literal Cross Reference                                          Page  243
                                                 22246
 =A(FCERROR)
               4 00003F5C 00000001     A   24396 22688  23592
 =A(FCERROR)
               4 00004B74 00000001     A   27759 24609  24928  25418  25482  25574  26131  27025  27102  27208  27303
                                                 27398  27493  27588
 =A(FCERROR)
               4 00005340 00000001     A   29373 28003  28184  28545  28894
 =A(FCERROR)
               4 00005CCC 00000001     A   32301 29643  30041  30205  30906  30959  31494  31590
 =A(FCERROR)
               4 000064C0 00000001     A   33766 32822  33037
 =A(FCFIRST)
               4 00005350 00000001     A   29377 29183
 =A(FCGET)
               4 000037D4 00000001     A   22483 20985  21510  22183
 =A(FCGET)
               4 00003F50 00000001     A   24393 22625  23183  23523  24086
 =A(FCGET)
               4 00004B68 00000001     A   27756 24526  24859
 =A(FCGET)
               4 00005CBC 00000001     A   32297 29511  29909  30359  30596  30833  31112  31353
 =A(FCGET)
               4 000066C0 00000001     A   34362 34072
 =A(FCIF)      4 00004BC4 00000001     A   27779 25913
 =A(FCLABEL)
               4 00003F84 00000001     A   24406 23189  23529
 =A(FCLABEL)
               4 00004B88 00000001     A   27764 24865  25792
 =A(FCNEXT)
               4 00004BB0 00000001     A   27774 25775  26106
 =A(FCNEXT)
               4 0000535C 00000001     A   29380 29264
 =A(FCNEXT)
               4 00005CD0 00000001     A   32302 29865  30315  30552  30789  31068  31309
 =A(FCNEXTLN)
               4 00003808 00000001     A   22496 22306  22388
 =A(FCNEXTLN)
               4 00003F68 00000001     A   24399 22751  22778  22816  22918  22945  22983  23652  23679  23717  23819
                                                 23846  23884
 =A(FCNEXTLN)
               4 00004B94 00000001     A   27767 24988  25017  25131  25161
 =A(FCPREV)
               4 00005CDC 00000001     A   32305 30425  30662  31178
 =A(FCPROC)
               4 000037C8 00000001     A   22480 20774
 =A(FCREPEAT)
               4 00004BEC 00000001     A   27789 26088
 =A(FCSIMPLE)
               4 000037D0 00000001     A   22482 20821
 =A(FCWHILE)
               4 00004BD4 00000001     A   27783 25983
 =A(FCXPROC)
               4 000037C0 00000001     A   22478 20751
 =A(FDFBEGIN)
               4 00004BE0 00000001     A   27786 26044
 =A(FDFCASES)
               4 00004BD8 00000001     A   27784 26009
 =A(FDFDO)
1FLOW     (FLOW2025) (12:45) (15MAR04) Ordinary Symbol and Literal Cross Reference                                          Page  244
               4 00004BC8 00000001     A   27780 25939
 =A(FDFIF)
               4 00004BC0 00000001     A   27778 25904
 =A(FDFRPEAT)
               4 00004BE8 00000001     A   27788 26079
 =A(FDFWHILE)
               4 00004BD0 00000001     A   27782 25974
 =A(FFBEPRT)
               4 00002F60 00000001     A   20583 18243
 =A(FFCBEGIN)
               4 0000273C 00000001     A   18128 16477
 =A(FFCBLANK)
               4 0000272C 00000001     A   18124 16392  16744
 =A(FFCCOMM)
               4 00002724 00000001     A   18122 16358  16551  16710
 =A(FFCEND)
               4 00002744 00000001     A   18130 16514
 =A(FFCLABEL)
               4 0000274C 00000001     A   18132 16588
 =A(FFFIRST)
               4 00002720 00000001     A   18121 16312
 =A(FFLTRIM)
               4 00002758 00000001     A   18135 16911  16973  17116  17179  17329  17393  17543  17633  17776  17840
                                                 17983  18047
 =A(FFMOVE)
               4 0000275C 00000001     A   18136 16922  16989  17127  17195  17342  17409  17582  17649  17789  17856
                                                 17996  18063
 =A(FFMRKLVL)
               4 00002764 00000001     A   18138 16952  17158  17372  17612  17819  18026
 =A(FFNEXT)
               4 00002738 00000001     A   18127 16433  16664  16785
 =A(FFPBEGIN)
               4 00002740 00000001     A   18129 16487
 =A(FFPCOMM)
               4 00002728 00000001     A   18123 16368  16561  16720
 =A(FFPCONT)
               4 00002734 00000001     A   18126 16422  16774
 =A(FFPEND)
               4 00002748 00000001     A   18131 16524
 =A(FFPLABEL)
               4 00002750 00000001     A   18133 16598
 =A(FFPLINE)
               4 00002730 00000001     A   18125 16402  16621  16754
 =A(FFPUT)
               4 00002760 00000001     A   18137 16929  16997  17134  17203  17349  17417  17589  17657  17796  17864
                                                 18003  18071
 =A(FFXFIRST)
               4 0000271C 00000001     A   18120 16282
 =A(FFXNEXT)
               4 00002754 00000001     A   18134 16635
 =A(FINDDQUO)
               4 0000534C 00000001     A   29376 28268  28934  29010  29050
 =A(FINDEND)
               4 000037E8 00000001     A   22488 21300  21925  22299
 =A(FINDEND)
               4 00003F64 00000001     A   24398 22744  23270  23645  24170
 =A(FINDEND)
               4 00004B90 00000001     A   27766 24981
 =A(FINDPREN)
1FLOW     (FLOW2025) (12:45) (15MAR04) Ordinary Symbol and Literal Cross Reference                                          Page  245
               4 00005344 00000001     A   29374 28014  28228  28272  28312  28316
 =A(FINDPRT)
               4 00004BB4 00000001     A   27775 25835
 =A(FINDSQUO)
               4 00005348 00000001     A   29375 28224  28621  28661  28701
 =A(GETFINFO)
               4 00005D04 00000001     A   32311 32054
 =A(GETFINFO)
               4 00006BD0 00000001     A   36234 35005  35328  35496
 =A(GETFLOW)
               4 00000A94 00000001     A   11167  7766   8298   9086   9455   9867  10235  10614  10957
 =A(GETFLOW)
               4 00001220 00000001     A   12921 11619
 =A(GETFLOW)
               4 00001ED8 00000001     A   15953 14343  14675
 =A(GETFLOW)
               4 00005D08 00000001     A   32312 32206
 =A(GETFLOW)
               4 00006BD4 00000001     A   36235 35169
 =A(GTPSCOPE)
               4 00006BD8 00000001     A   36236 35480
 =A(L'FFMARK)
               4 00002768 00000001     A   18139 16992  17198  17412  17652  17859  18066
 =A(LABELLNO)
               4 00001248 00000001     A   12931 12437
 =A(NOENDMSG)
               4 00004BF0 00000001     A   27790 26117  27169
 =A(NOPAREN)
               4 00001EAC 00000001     A   15942 13181
 =A(NOTBOOL)
               4 00001EB0 00000001     A   15943 13204
 =A(SAVEFLOW)
               4 000037EC 00000001     A   22489 21310  21342  22003  22035  22332  22362  22414
 =A(SAVEFLOW)
               4 00003F80 00000001     A   24405 22862  22892  23029  23294  23323  23364  23763  23793  23930  24203
                                                 24232  24257  24307  24332
 =A(SAVEFLOW)
               4 00004B84 00000001     A   27763 24677  24706  25075  25105  25219  25507
 =A(SAVFINFO)
               4 000037E4 00000001     A   22487 21216  21841
 =A(SCANCMD)
               4 000037FC 00000001     A   22493 22189
 =A(SCANCMD)
               4 00003F54 00000001     A   24394 22631  23195  23535  24092
 =A(SCANCMD)
               4 00004B6C 00000001     A   27757 24532  24871
 =A(SCANCMD)
               4 00005CD8 00000001     A   32304 30380  30617  30854  31133  31374
 =A(SCNBEGIN)
               4 00002F78 00000001     A   20589 18640  18736  18901
 =A(SCNBEGIN)
               4 00003804 00000001     A   22495 22276
 =A(SCNBEGIN)
               4 00003F60 00000001     A   24397 22718  23247  23622  24144
 =A(SCNBEGIN)
               4 00004B70 00000001     A   27758 24584  24958
 =A(SCNLABEL)
               4 00001234 00000001     A   12926 12003
 =A(SCNLABEL)
1FLOW     (FLOW2025) (12:45) (15MAR04) Ordinary Symbol and Literal Cross Reference                                          Page  246
               4 00002F80 00000001     A   20591 19238
 =A(SCNLABEL)
               4 00004B9C 00000001     A   27769 25371
 =A(SCNLABEL)
               4 00005CC0 00000001     A   32298 29536  29934
 =A(SCNLNAME)
               4 00001ED4 00000001     A   15952 14336  14668
 =A(SCNPNAME)
               4 000037F0 00000001     A   22490 21616
 =A(SKIPEXPR)
               4 00002F74 00000001     A   20588 18616  18877
 =A(SKIPEXPR)
               4 00003800 00000001     A   22494 22221
 =A(SKIPEXPR)
               4 00003F58 00000001     A   24395 22663  23567
 =A(SKIPEXPR)
               4 00004B8C 00000001     A   27765 24903
 =A(SKIPNULL)
               4 00005CB8 00000001     A   32296 29492  29883  30333  30570  30807  31086  31327
 =A(XLBLLNO)
               4 0000124C 00000001     A   12932 12680
 =A(ZAPIF)
               4 00000AB0 00000001     A   11174  8170
 =A(1)         4 00001EA4 00000001     A   15940 13138
 =A(1)         4 00005308 00000001     A   29369 27910  27949  28219  28263  28307  28351  28580  28616  28656  28696
                                                 28929  28969  29005  29045
 =A(1)         4 000064D4 00000001     A   33771 33616
 =A(4)         4 00001EBC 00000001     A   15946 13423
 =A(4)         4 00002F6C 00000001     A   20586 18274
 =A(4)         4 00004BBC 00000001     A   27777 25862
 =A(4)         4 000064B8 00000001     A   33764 32456
 =A(8)         4 00001EC0 00000001     A   15947 13449
 =A(8)         4 00002F70 00000001     A   20587 18300
 =A(99)        4 00002FB4 00000001     A   20596 20058  20070
 =C'    '      4 00002710 00000001     C   18117 16170
 =C' '         1 00003849 00000001     C   22501 21195  21633  21818  22238
 =C' '         1 00003F8C 00000001     C   24408 22680  23584
 =C' '         1 00004C31 00000001     C   27798 24920  25410  27295  27390  27580
 =C' '         1 00005DB3 00000001     C   32320 30197  30898  30951
 =C' '         1 000064E8 00000001     C   33775 32814  33029
 =C'. '        2 00004C10 00000001     C   27796 27200  27703
 =C'. '        2 00005D10 00000001     C   32315 31486
 =C'.'         1 00005DD1 00000001     C   32322 31443  31564
 =C'(block). '
               9 00004CC6 00000001     C   27803 27017  27485
 =C'(i.e. true or false). '
              22 00006C2C 00000001     C   36247 36003
 =C', formatting stopped.'
              21 00002FE8 00000001     C   20605 19858  19938
 =C': invalid label name.'
              21 00001331 00000001     C   12942 12044  12126
 =C': invalid label name.'
              21 00001F5D 00000001     C   15963 15217  15323
 =C': invalid label name.'
              21 00004C5D 00000001     C   27800 25566
 =C': invalid procedure name.'
              25 00001F89 00000001     C   15965 15713  15831
 =C': invalid.  '
              12 00005CF4 00000001     C   32309 31835
1FLOW     (FLOW2025) (12:45) (15MAR04) Ordinary Symbol and Literal Cross Reference                                          Page  247
 =C': invalid.  Statement must occur within a PROC/XPROC.'
              53 00005D7E 00000001     C   32319 30179
 =C': invalid.'
              10 00001F0C 00000001     C   15959 14186
 =C': invalid.'
              10 000064DE 00000001     C   33774 32993
 =C': not in scope of current procedure.'
              36 00001EE0 00000001     C   15955 14523
 =C': not in scope of XPROC procedure.'
              34 00001F28 00000001     C   15961 14855
 =C': previously defined label/procedure name. '
              43 0000384A 00000001     C   22502 21699  21981
 =C': previously defined label/procedure name. '
              43 00004C32 00000001     C   27799 25474
 =C': undefined label.'
              18 00001F16 00000001     C   15960 14390  14446  14722  14778
 =C'must be in parenthesis.) '
              25 00005374 00000001     C   29383 27995
 =C'BEGIN   '
               8 00003750 00000001     C   22468 21270  21895
 =C'BEGIN must follow IF, ELSE, WHILE, ..etc. statement.'
              52 000011E4 00000001     C   12918 11394
 =C'BEGIN-END blocks valid only in Extended EXEC mode.'
              50 00001258 00000001     C   12935 11342
 =C'BEGIN-END mismatch detected at line '
              36 00002F8C 00000001     C   20594 19885
 =C'BEGIN: statement ignored.'
              25 000012C8 00000001     C   12939 11278
 =C'BEGIN: statement invalid.'
              25 00001318 00000001     C   12941 11324  11376
 =C'Command ignored.'
              16 000011A0 00000001     C   12914 11983
 =C'Command may not follow label. '
              30 00005D12 00000001     C   32316 31853
 =C'Compound control statements not allowed. '
              41 000064E9 00000001     C   33776 33011
 =C'Compound control statements not allowed.'
              40 00001E70 00000001     C   15936 14032
 =C'CASE    '
               8 00005CA0 00000001     C   32293 31149
 =C'CASE  '
               6 00004C08 00000001     C   27794 24887
 =C'CASE statement must follow CASE(S) statement '
              45 00004D8F 00000001     C   27808 27467
 =C'CASE: statement ignored.'
              24 00000A58 00000001     C   11163 10845
 =C'CASE: statement invalid.'
              24 00000A70 00000001     C   11164 10891
 =C'CASES   '
               8 00004B48 00000001     C   27752 24548
 =C'CASES BEGIN must be specified. '
              31 00004C12 00000001     C   27797 24601
 =C'CASES BEGIN must be specified.'
              30 00000B34 00000001     C   11186 10693
 =C'CASES: statement ignored.'
              25 00000C7C 00000001     C   11197 10502
 =C'CASES: statement invalid.'
              25 00000C95 00000001     C   11198 10548
 =C'Dynamic flow control statements invalid.'
1FLOW     (FLOW2025) (12:45) (15MAR04) Ordinary Symbol and Literal Cross Reference                                          Page  248
              40 000009D0 00000001     C   11154  7801   8333   9121   9490   9902  10270  10649  10992
 =C'Dynamic flow control statements invalid.'
              40 00001150 00000001     C   12912 11654
 =C'Error in line '
              14 00006C1C 00000001     C   36245 35740
 =C'Expecting ")".  '
              16 00006B98 00000001     C   36232 35884
 =C'Expression does not evaluate to boolean '
              40 00006BA8 00000001     C   36233 35985
 =C'ELSE    '
               8 00003F18 00000001     C   24386 23211
 =C'ELSE    '
               8 00005C58 00000001     C   32289 30396
 =C'ELSE statement must follow IF statement (block). '
              49 00004D2B 00000001     C   27806 27277
 =C'ELSEIF  '
               8 00003F28 00000001     C   24388 23551
 =C'ELSEIF  '
               8 00005C60 00000001     C   32290 30633
 =C'ELSEIF statement must follow IF statement (block). '
              51 00004D5C 00000001     C   27807 27372
 =C'ELSEIF: statement ignored.'
              26 00000ACC 00000001     C   11182  9343
 =C'ELSEIF: statement invalid.'
              26 00000AE6 00000001     C   11183  9389
 =C'END     '
               8 00005CA8 00000001     C   32294 31390
 =C'END '      4 00002F7C 00000001     C   20590 19092
 =C'EXEC statement not allowed within PROCEDURES.  '
              47 00004DBC 00000001     C   27809 27562
 =C'Flow control statements may be used only in EXEC files.'
              55 00000B6B 00000001     C   11188  7672   9361   9773  10141  10520  10863
 =C'Flow control statements may be used only in EXEC files.'
              55 000012E1 00000001     C   12940 11296  12353  12596
 =C'GOTO: statement ignored.'
              24 000011B0 00000001     C   12915 12335
 =C'GOTO: statement invalid.'
              24 000011C8 00000001     C   12916 12381
 =C'Invalid CASE statement.'
              23 00000CAE 00000001     C   11199 10974
 =C'Invalid CASES statement.'
              24 00000A40 00000001     C   11162 10631
 =C'Invalid ELSE statement.'
              23 00000C01 00000001     C   11192  9103
 =C'Invalid ELSEIF statement.'
              25 00000C18 00000001     C   11193  9472
 =C'Invalid END.  '
              14 0000128A 00000001     C   12936 11636
 =C'Invalid IF statement.'
              21 00000BEC 00000001     C   11191  8315
 =C'Invalid REPEAT statement.'
              25 00000C31 00000001     C   11194  9884
 =C'Invalid UNTIL statement.'
              24 00000A20 00000001     C   11160 10252
 =C'Invalid WHILE statement.'
              24 000009B8 00000001     C   11153  7783
 =C'IF      '
               8 00003F00 00000001     C   24383 22647
 =C'Labels are invalid on PROC statements. '
1FLOW     (FLOW2025) (12:45) (15MAR04) Ordinary Symbol and Literal Cross Reference                                          Page  249
              39 00005D57 00000001     C   32318 30033
 =C'Labels are invalid on XPROC statement. '
              39 00005D30 00000001     C   32317 29635
 =C'Labels may be used only in EXEC files.  '
              40 00001178 00000001     C   12913 11965
 =C'LABEL   '
               8 00005CB0 00000001     C   32295 31792  31893
 =C'M   '      4 00002714 00000001     C   18118 16200
 =C'Missing conditional expression. (Expression '
              44 00005310 00000001     C   29371 27977
 =C'Missing label name.'
              19 00001F4A 00000001     C   15962 15099
 =C'Missing BEGIN on PROC command. '
              31 00003892 00000001     C   22504 21905
 =C'Missing BEGIN on XPROC command. '
              32 00003758 00000001     C   22469 21280
 =C'Missing END before PROCEDURE statement found in line '
              53 00004CF6 00000001     C   27805 27175
 =C'Missing END expected at or before line '
              39 00005DD2 00000001     C   32323 31461
 =C'Missing END occurs before END OF FILE. '
              39 00004C72 00000001     C   27801 26123
 =C'Missing END occurs before END OF FILE. '
              39 00005DF9 00000001     C   32324 31582
 =C'Missing END.'
              12 00004BF8 00000001     C   27792 27660
 =C'Missing END.'
              12 00005CE0 00000001     C   32306 31400  31521
 =C'Missing Procedure Name.'
              23 00001F72 00000001     C   15964 15588
 =C'Missing PROC parameter list. '
              29 00003875 00000001     C   22503 21784
 =C'Missing XPROC parameter list. '
              30 00003812 00000001     C   22499 21161
 =C'Missing XPROC statement. '
              25 00003830 00000001     C   22500 20807
 =C'Multiple XPROC statements are invalid. '
              39 00004CCF 00000001     C   27804 27094
 =C'MU  '      4 00002718 00000001     C   18119 16236
 =C'No matching END for BEGIN in '
              29 00004DEB 00000001     C   27810 27678
 =C'No matching END for BEGIN in '
              29 00005DB4 00000001     C   32321 31418  31539
 =C'PROC    '
               8 00003790 00000001     C   22472 21599
 =C'PROC    '
               8 00005C50 00000001     C   32288 30023  30126
 =C'REPEAT  '
               8 00003F38 00000001     C   24390 24108
 =C'REPEAT statement (block) not followed by UNTIL. '
              48 00005C70 00000001     C   32292 30880  30933
 =C'REPEAT: statement ignored.'
              26 00000B00 00000001     C   11184  9755
 =C'REPEAT: statement invalid.'
              26 00000B1A 00000001     C   11185  9801
 =C'Statement may be used only in Extended EXEC mode.'
              49 00000BBB 00000001     C   11190  7718   9407   9819  10187  10566  10909
 =C'Statement may be used only in Extended EXEC mode.'
              49 00001346 00000001     C   12943 12399  12642
1FLOW     (FLOW2025) (12:45) (15MAR04) Ordinary Symbol and Literal Cross Reference                                          Page  250
 =C'Text overflow in line '
              22 00002FD2 00000001     C   20604 19805
 =C'THEN statement invalid in Extended EXEC files.'
              46 0000129A 00000001     C   12938 12876
 =C'Unmatched parenthesis in expression.'
              36 00006BF8 00000001     C   36244 35910
 =C'Unmatched Parenthesis. Missing '')''.'
              35 0000538D 00000001     C   29384 28176
 =C'Unmatched Quotes. '
              18 00005360 00000001     C   29381 28537  28886
 =C'UNTIL   '
               8 00005C68 00000001     C   32291 30870
 =C'UNTIL statement must follow REPEAT statement '
              45 00004C99 00000001     C   27802 26999
 =C'UNTIL: statement ignored.'
              25 00000C4A 00000001     C   11195 10123
 =C'UNTIL: statement invalid.'
              25 00000C63 00000001     C   11196 10169
 =C'WHILE   '
               8 000037A8 00000001     C   22474 22205
 =C'WHILE: statement ignored.'
              25 00000B52 00000001     C   11187  7654
 =C'WHILE: statement invalid.'
              25 00000BA2 00000001     C   11189  7700
 =C'XEXIT: statement ignored.'
              25 00001377 00000001     C   12944 12578
 =C'XEXIT: statement invalid.'
              25 00001390 00000001     C   12945 12624
 =C'XPROC   '
               8 00003738 00000001     C   22466 21074
 =C'XPROC   '
               8 00005C48 00000001     C   32287 29625  29728
 =CL16'....PROC_NLIST  '
              16 00003798 00000001     C   22473 21832
 =CL16'....PROC_NLIST  '
              16 00006B88 00000001     C   36231 35485
 =CL16'PROC NAME       '
              16 00003780 00000001     C   22471 21502
 =CL16'XPROC           '
              16 00003728 00000001     C   22465 20977
 =CL16'XPROC           '
              16 00006B68 00000001     C   36229 34997
 =CL16'XPROC_NLIST     '
              16 00003740 00000001     C   22467 21211
 =CL16'XPROC_NLIST     '
              16 00006B78 00000001     C   36230 35325
 =CL4'    '
               4 00001228 00000001     C   12923 11744  11796
 =CL4'END '
               4 000066C8 00000001     C   34364 34207
 =CL4'NEXT'
               4 00000ABC 00000001     C   11177  9151
 =CL4'NEXT'
               4 0000380C 00000001     C   22497 22327
 =CL4'NEXT'
               4 00003F7C 00000001     C   24404 22857  23758  24252  24327
 =CL4'NEXT'
               4 00004B98 00000001     C   27768 25070
 =CL6'      '
1FLOW     (FLOW2025) (12:45) (15MAR04) Ordinary Symbol and Literal Cross Reference                                          Page  251
               6 00002770 00000001     C   18141 16158
 =CL8'CASE    '
               8 00000A88 00000001     C   11165 10953
 =CL8'CASE  '
               8 00004B60 00000001     C   27755 25063  25207
 =CL8'CASES   '
               8 00000A38 00000001     C   11161 10610
 =CL8'CASES   '
               8 00004B50 00000001     C   27753 24667
 =CL8'ELSE    '
               8 00000A00 00000001     C   11156  9082
 =CL8'ELSE    '
               8 00003F20 00000001     C   24387 23284  23354
 =CL8'ELSEIF  '
               8 00000A08 00000001     C   11157  9451
 =CL8'ELSEIF  '
               8 00003F30 00000001     C   24389 23751  23918
 =CL8'END     '
               8 00001148 00000001     C   12911 11615
 =CL8'END     '
               8 00003778 00000001     C   22470 21330  22023  22345
 =CL8'END     '
               8 00003F10 00000001     C   24385 22875  23307  23776  24216
 =CL8'END     '
               8 00004B58 00000001     C   27754 24690  25088
 =CL8'IF      '
               8 000009F8 00000001     C   11155  8294
 =CL8'IF      '
               8 00003F08 00000001     C   24384 22850  23017
 =CL8'REPEAT  '
               8 00000A10 00000001     C   11158  9863
 =CL8'REPEAT  '
               8 00003F40 00000001     C   24391 24193  24297
 =CL8'UNTIL   '
               8 00000A18 00000001     C   11159 10231
 =CL8'UNTIL   '
               8 00003F48 00000001     C   24392 24245  24320
 =CL8'WHILE   '
               8 000009B0 00000001     C   11152  7762
 =CL8'WHILE   '
               8 000037B0 00000001     C   22475 22320  22402
 =F'-1'        4 00001EB4 00000001     F   15944 13212
 =F'-4'        4 000064D8 00000001     F   33772 33706
 =F'1'         4 0000276C 00000001     F   18140 17154  17211  17425
 =V(CHECKEND)
               4 0000530C 00000001     V   29370 27971
 =V(CHECKEND)
               4 00006BF4 00000001     V   36243 35903
 =V(CVEXNO)
               4 00002F88 00000001     V   20593 19822  19902
 =V(EDTCOM)
               4 00001244 00000001     V   12930 12198
 =V(EDTCOMMV)
               4 00000AA0 00000001     V   11170  7886   8219   8418   9034   9186   9575   9966  11077
 =V(EDTCOMMV)
               4 00001254 00000001     V   12934 12838
 =V(EVALEXPR)
               4 00001EA8 00000001     V   15941 13144
 =V(GTFRST)
1FLOW     (FLOW2025) (12:45) (15MAR04) Ordinary Symbol and Literal Cross Reference                                          Page  252
               4 00002FB8 00000001     V   20597 20178
 =V(GTNEXT)
               4 00002FBC 00000001     V   20598 20268
 =V(IMPLYEND)
               4 00001218 00000001     V   12919 11535  11567
 =V(LDABORT)
               4 00006BF0 00000001     V   36242 35801
 =V(NOOPTS)
               4 00000AC0 00000001     V   11178 10323  10346
 =V(NOOPTS)
               4 0000121C 00000001     V   12920 11603  12442  12685
 =V(NOOPTS)
               4 00001EC4 00000001     V   15948 13776
 =V(NOTVALID)
               4 00001EA0 00000001     V   15939 13111
 =V(NSCAN)
               4 00000AA4 00000001     V   11171  8073
 =V(NSCAN)
               4 00001238 00000001     V   12927 12082
 =V(NSCAN)
               4 00001E98 00000001     V   15937 13077  13396  14128  15173  15279  15674  15787
 =V(NSCAN)
               4 00002F64 00000001     V   20584 18247  18850  19054
 =V(NSCAN)
               4 000037D8 00000001     V   22484 21044  21112  21240  21569  21735  21865
 =V(NSCAN)
               4 00004BB8 00000001     V   27776 25839
 =V(NSCAN)
               4 00005354 00000001     V   29378 29228  29307
 =V(NSCAN)
               4 00005CC4 00000001     V   32299 29595  29698  29993  30096  31727
 =V(NSCAN)
               4 000064B4 00000001     V   33763 32413  33160  33229  33441  33690
 =V(ORVCPASS)
               4 00000AAC 00000001     V   11173  8126
 =V(PRETURN)
               4 00001230 00000001     V   12925 11823
 =V(PUTLINE)
               4 00002FC0 00000001     V   20599 20354
 =V(SCANCHK)
               4 00000AA8 00000001     V   11172  8087
 =V(SCANCHK)
               4 0000123C 00000001     V   12928 12096
 =V(SCANCHK)
               4 00001E9C 00000001     V   15938 13091  13410  14142  15187  15293  15801
 =V(SCANCHK)
               4 00002F68 00000001     V   20585 18261  18864
 =V(SCANCHK)
               4 000037DC 00000001     V   22485 21058  21126  21254  21583  21749  21879
 =V(SCANCHK)
               4 00005358 00000001     V   29379 29242  29321
 =V(SCANCHK)
               4 00005CC8 00000001     V   32300 29609  29712  30007  30110  31741
 =V(SCANCHK)
               4 000064CC 00000001     V   33769 33174  33243  33455  33704
 =V(SCANEXPR)
               4 00000AB8 00000001     V   11176  8673
 =V(SCINFO)
               4 00000AB4 00000001     V   11175  8589
1FLOW     (FLOW2025) (12:45) (15MAR04) Ordinary Symbol and Literal Cross Reference                                          Page  253
 =V(SCNNLIST)
               4 000037E0 00000001     V   22486 21178  21801
 =V(SCNVNAME)
               4 00001F04 00000001     V   15956 15022  15511
 =V(SCNVNAME)
               4 000064D0 00000001     V   33770 33540
 =V(SEG)       4 00001224 00000001     V   12922 11648  11977  12038  12120
 =V(SEG)       4 00001ED0 00000001     V   15951 14180  15211  15317  15707  15825
 =V(SEG)       4 00002F84 00000001     V   20592 19817  19852  19897  19932
 =V(SEG)       4 00004BAC 00000001     V   27773 25560  27011  27187  27289  27384  27479  27574  27690
 =V(SEG)       4 0000533C 00000001     V   29372 27989
 =V(SEG)       4 00005CD4 00000001     V   32303 30173  30191  30892  30945  31430  31473  31551  31829  31847  31865
 =V(SEG)       4 000064C4 00000001     V   33767 32987  33023
 =V(SEG)       4 00006BE4 00000001     V   36239 35752  35896  35997  36015
 =V(SEGCR)
               4 00000A90 00000001     V   11166  7666   7712   7795   8327   9115   9355   9401   9484   9767   9813
                                                  9896  10135  10181  10264  10514  10560  10643  10857  10903  10986
 =V(SEGCR)
               4 000011E0 00000001     V   12917 11290  11336  11388  12347  12393  12590  12636
 =V(SEGCR)
               4 00001ECC 00000001     V   15950 14022  14198  15600  15725  15843
 =V(SEGCR)
               4 00004C04 00000001     V   27793 27672  27715
 =V(SEGCR)
               4 00005CEC 00000001     V   32307 31412  31455  31533  31576
 =V(SEGCR)
               4 000064C8 00000001     V   33768 33005
 =V(SEGCR)
               4 00006BE0 00000001     V   36238 35718  35784
 =V(SEGT)      4 00001EDC 00000001     V   15954 14384  14440  14517  14716  14772  14849
 =V(SEGT)      4 000037F8 00000001     V   22492 21693  21975
 =V(SEGT)      4 00004BA8 00000001     V   27772 25468
 =V(SEGXLINE)
               4 00006BEC 00000001     V   36241 35791
 =V(SEGXLNO)
               4 00004BF4 00000001     V   27791 27194  27697
 =V(SEGXLNO)
               4 00005CF0 00000001     V   32308 31437  31480  31558
 =V(SEGXLNO)
               4 00006BE8 00000001     V   36240 35759
 =V(XDELSET)
               4 00006BDC 00000001     V   36237 35610
 =V(XGET)      4 000066B4 00000001     V   34359 33855
 =V(XGET)      4 0000682C 00000001     V   34885 34459  34710
 =V(XGETFRST)
               4 00002FC8 00000001     V   20601 20451
 =V(XGETFRST)
               4 000066B8 00000001     V   34360 33953
 =V(XGETNEXT)
               4 00002FCC 00000001     V   20602 20550
 =V(XGETNEXT)
               4 000066BC 00000001     V   34361 34053
 =V(XGETPREV)
               4 000066CC 00000001     V   34365 34308
 =V(XLOCNEXT)
               4 000066C4 00000001     V   34363 34192
 =V(XPUT)      4 00006830 00000001     V   34886 34562  34824
 =V(XRETURN)
               4 0000122C 00000001     V   12924 11771
1FLOW     (FLOW2025) (12:45) (15MAR04) Ordinary Symbol and Literal Cross Reference                                          Page  254
 =V(XSETSET)
               4 00002FC4 00000001     V   20600 20441  20540
 =V(XSETSET)
               4 000037B8 00000001     V   22476 20717  20723
 =V(XSETSET)
               4 000066B0 00000001     V   34358 33845  33943  34043  34184  34298
 =V(XSETSET)
               4 00006828 00000001     V   34884 34449  34552  34702  34816
 =V(XXXEXIT)
               4 00001250 00000001     V   12933 12693
 =X'40000000'
               4 00002FB0 00000001     X   20595 19949
 =Y((L'NSCNCB+3)/4*4)
               2 00000ACA 00000001     Y   11181  8093
 =Y((L'NSCNCB+3)/4*4)
               2 00001F0A 00000001     Y   15958 13465
 =Y((R1+1-(R0)+16*((R0)/(R1+1))/((R0)/(R1+1)))*4)
               2 00005D0E 00000001     Y   32314 29654  30052
 =Y((R1+1-(R0)+16*((R0)/(R1+1))/((R0)/(R1+1)))*4)
               2 00006C2A 00000001     Y   36246 35899
 =Y((12+3)/4*4)
               2 00000AC8 00000001     Y   11180  8079
 =Y((12+3)/4*4)
               2 00001298 00000001     Y   12937 12088
 =Y((12+3)/4*4)
               2 00001F08 00000001     Y   15957 13083  13402  14134  15179  15285  15680  15793
 =Y((12+3)/4*4)
               2 00002FD0 00000001     Y   20603 18253  18856  19060
 =Y((12+3)/4*4)
               2 00003810 00000001     Y   22498 21050  21118  21246  21575  21741  21871
 =Y((12+3)/4*4)
               2 00004C0E 00000001     Y   27795 25845
 =Y((12+3)/4*4)
               2 00005372 00000001     Y   29382 29234  29313
 =Y((12+3)/4*4)
               2 00005D0C 00000001     Y   32313 29601  29704  29999  30102  31733
 =Y((12+3)/4*4)
               2 000064DC 00000001     Y   33773 32419  33166  33235  33447  33696

1FLOW     (FLOW2025) (12:45) (15MAR04) Macro and Copy Code Source Summary                                                   Page  255
- Con Source                                        Volume    Members                        HLASM R4.0  2004/03/15 12.45
0     PRIMARY INPUT                                           CSECT    DROP     END      EX       FCERR    LTORG    POP
                                                              PRINT    PUSH     SAMEAS   START    USING
   L1 WYL.GS.WYL.WYLBUR.MACLIB                      SYSB05    AINFO    BASE     BOMB     COLINFO  COMMENT  CONTROL  CP
                                                              CPLOCAL  CV       CVLOCAL  ERROR    JCB      KAPUT
                                                              OSCINFO  RG       SCAN     SCANCB   SCANCHK  SCBKUP
                                                              SCCBADR  SCINFO   SCINIT   SCKW     SCPOP    SCPUSH
                                                              SCTOK    SCUPTOK  TCCR     TCR      TSEG     TTYPE
                                                              VLTORG   VNENTRY  VPARM    XSENTRY  XTRACE
   L2 WYL.GG.SYS.MACLIB                             SYSB05    $BC      $BFLKUP  $BV      $CCLKUP  $CRS     $CSS     $L
                                                              $LA      $LBLAD   $LEXP    $LOR     $REL     $RGLKUP
                                                              $USLKUP  ACALL    BEGIN    CEIL     CLEAR    COMPROC
                                                              CSECT    DATA     DECR     DEFCC    DEX      DROP     DTEX
                                                              ELSE     ELSEIF   END      EX       FLAG     GEN
                                                              HIBAL    IDENT    IF       INCR     LABEL    LC       LS
                                                              LTORG    MOVE     PEND     POP      PRETURN  PRINT    PROC
                                                              PUSH     QLTORG   RECORD   REG      REGS     SET
                                                              SETMSG   START    USING    VCALL    WHILE    WITH
                                                              XPROC
   L3 SYS3.IS.MACLIB                                SYSB05    SEG      SEGCB    SEGCR    SEGLD    SIB      SYSDEFN  XPOP
                                                              XPUSH

1FLOW     (FLOW2025) (12:45) (15MAR04) Dsect Cross Reference                                                                Page  256
-Dsect     Length      Id       Defn                                                         HLASM R4.0  2004/03/15 12.45
0$$$@R0   00000000  FFFFFFFE     705
 $$$@R1   00000000  FFFFFFFD     718
 $$$@R10  00000000  FFFFFFF4     835
 $$$@R11  00000000  FFFFFFF3     848
 $$$@R12  00000000  FFFFFFF2     861
 $$$@R13  00000000  FFFFFFF1     874
 $$$@R14  00000000  FFFFFFF0     887
 $$$@R15  00000000  FFFFFFEF     900
 $$$@R2   00000000  FFFFFFFC     731
 $$$@R3   00000000  FFFFFFFB     744
 $$$@R4   00000000  FFFFFFFA     757
 $$$@R5   00000000  FFFFFFF9     770
 $$$@R6   00000000  FFFFFFF8     783
 $$$@R7   00000000  FFFFFFF7     796
 $$$@R8   00000000  FFFFFFF6     809
 $$$@R9   00000000  FFFFFFF5     822
 $$$RCASESWA
          00000020  FFFFFFDA   10402
 $$$RCASEWA
          00000020  FFFFFFD9   10745
 $$$RCHKDWA
          00000020  FFFFFFC1   31957
 $$$RCHKPWA
          00000020  FFFFFFC0   32112
 $$$RCHKWA
          0000001C  FFFFFFC2   29410
 $$$RCP   00001000  FFFFFFEC    2454
 $$$RCV   00000FB0  FFFFFFEE    1179
 $$$RDEV  0000000C  FFFFFFEB    4668
 $$$RECWA 00000150  FFFFFFD5   12974
 $$$RELSEWA
          00000020  FFFFFFDE    8886
 $$$RENDWA
          00000020  FFFFFFD8   11433
 $$$RFCCBWA
          00000050  FFFFFFC6   24437
 $$$RFCCSWA
          00000058  FFFFFFC5   24768
 $$$RFCEFWA
          00000058  FFFFFFC8   23432
 $$$RFCELWA
          00000050  FFFFFFC9   23094
 $$$RFCIFWA
          00000058  FFFFFFCA   22534
 $$$RFCLBWA
          0000003C  FFFFFFC4   25283
 $$$RFCRPWA
          00000074  FFFFFFC7   23995
 $$$RFCWHWA
          00000054  FFFFFFCB   22093
 $$$RFDDWA
          00000010  FFFFFFC3   25677
 $$$RFFLAWA
          00000010  FFFFFFCF   19165
 $$$RFFWA 000002F3  FFFFFFD0   16022
1FLOW     (FLOW2025) (12:45) (15MAR04) Dsect Cross Reference                                                                Page  257
 $$$RFPWA 00000160  FFFFFFCC   21399
 $$$RFWENTRY
          00000020  FFFFFFE2    7182
 $$$RFXPWA
          000002A0  FFFFFFCD   20875
 $$$RGOTOWA
          00000020  FFFFFFD7   12235
 $$$RGTPNWA
          00000020  FFFFFFBB   35397
 $$$RGTPSWA
          00000020  FFFFFFBD   35085
 $$$RGTXNWA
          00000020  FFFFFFBC   35250
 $$$RGTXSWA
          00000020  FFFFFFBE   34914
 $$$RIFWA 00000020  FFFFFFE0    7966
 $$$RJCB  000000D0  FFFFFFE9    6306
 $$$RLLWA 00000020  FFFFFFD4   14245
 $$$RLSIFWA
          00000020  FFFFFFDD    9243
 $$$RNLIST
          00000100  FFFFFFE6    6979
 $$$RNSCNCB
          000000B0  FFFFFFED    2375
 $$$RPLIST
          00000100  FFFFFFE4    7017
 $$$RREPEATWA
          00000020  FFFFFFDC    9655
 $$$RSCLBWA
          0000005C  FFFFFFBF   33313
 $$$RSCNLWA
          0000005C  FFFFFFD2   14917
 $$$RSCNPWA
          0000005C  FFFFFFD1   15408
 $$$RTTYPE
          0000010C  FFFFFFEA    6199
 $$$RUNTILWA
          00000020  FFFFFFDB   10023
 $$$RVLIST
          00000A80  FFFFFFE5    6998
 $$$RVNENTRY
          00000050  FFFFFFE8    6629
 $$$RVPARM
          00000150  FFFFFFE7    6941
 $$$RWHILEWA
          00000020  FFFFFFE1    7554
 $$$RXFCWA
          000000EF  FFFFFFCE   20634
 $$$RXITWA
          00000020  FFFFFFD6   12485
 $$$RXLLWA
          00000020  FFFFFFD3   14584
 $$$RXSENTRY
          00000050  FFFFFFE3    7062
 $$$RZAPWA
          00000150  FFFFFFDF    8499
 HIBAL    00000000  FFFFFFFF     691

1FLOW     (FLOW2025) (12:45) (15MAR04) Using Map                                                                            Page  258
-                                                                                            HLASM R4.0  2004/03/15 12.45
   Stmt  -----Location----- Action ----------------Using----------------- Reg Max    Last  Label and Using Text
           Count      Id           Type          Value    Range     Id        Disp   Stmt
0   922  00000000  FFFFFFFF USING  ORDINARY    00000000 00001000 FFFFFFEF  15 000          @R15,15
    926  00000000  FFFFFFFF USING  ORDINARY    00000000 00001000 FFFFFFF0  14 002    2170  @R14,14
    930  00000000  FFFFFFFF USING  ORDINARY    00000000 00001000 FFFFFFF1  13 000   13466  @R13,13
    934  00000000  FFFFFFFF USING  ORDINARY    00000000 00001000 FFFFFFF2  12 000          @R12,12
    938  00000000  FFFFFFFF USING  ORDINARY    00000000 00001000 FFFFFFF3  11 000          @R11,11
    942  00000000  FFFFFFFF USING  ORDINARY    00000000 00001000 FFFFFFF4  10 000          @R10,10
    946  00000000  FFFFFFFF USING  ORDINARY    00000000 00001000 FFFFFFF5   9 000          @R9,9
    950  00000000  FFFFFFFF USING  ORDINARY    00000000 00001000 FFFFFFF6   8 000          @R8,8
    954  00000000  FFFFFFFF USING  ORDINARY    00000000 00001000 FFFFFFF7   7 000          @R7,7
    958  00000000  FFFFFFFF USING  ORDINARY    00000000 00001000 FFFFFFF8   6 000          @R6,6
    962  00000000  FFFFFFFF USING  ORDINARY    00000000 00001000 FFFFFFF9   5 000          @R5,5
    966  00000000  FFFFFFFF USING  ORDINARY    00000000 00001000 FFFFFFFA   4 000          @R4,4
    970  00000000  FFFFFFFF USING  ORDINARY    00000000 00001000 FFFFFFFB   3 000   31893  @R3,3
    974  00000000  FFFFFFFF USING  ORDINARY    00000000 00001000 FFFFFFFC   2 000          @R2,2
    978  00000000  FFFFFFFF USING  ORDINARY    00000000 00001000 FFFFFFFD   1 001   33583  @R1,1
    982  00000000  FFFFFFFF USING  ORDINARY    00000000 00001000 FFFFFFFE   0 000          @R0,0
    983  00000000  FFFFFFFF DROP                                            0              0
   1163  00000017  00000001 USING  ORDINARY    00000000 00001000 FFFFFFEC  11 D5C   36012  CP,CPR
   1172  00000017  00000001 USING  ORDINARY    00000000 00001000 FFFFFFEE  12 890   36180  CV,CVR
   7494  0000003A  00000001 USING  ORDINARY    0000003A 00001000 00000001   7 000          $$$82B,7
   7513  0000003C  00000001 USING  ORDINARY    00000000 00001000 FFFFFFF7   7 000          @R7,7
   7605  0000006A  00000001 USING  ORDINARY    0000006A 00001000 00000001   7 B51    7905  $$$85B,7
   7619  0000006A  00000001 USING  ORDINARY    FFFFFFD8 00001000 FFFFFFE1   8 028    7632  WHILEWA-(4+36),R8
   7630  0000006A  00000001 USING  ORDINARY    00000000 00001000 FFFFFFE2   6 018    7911  FWENTRY,R6
   7927  00000154  00000001 USING  ORDINARY    00000000 00001000 FFFFFFF6   8 000          @R8,8
   7932  00000154  00000001 USING  ORDINARY    00000000 00001000 FFFFFFF7   7 000          @R7,7
   7951  00000162  00000001 USING  ORDINARY    00000000 00001000 FFFFFFF8   6 000          @R6,6
   8017  0000017C  00000001 USING  ORDINARY    0000017C 00001000 00000001   7 A70    8437  $$$97B,7
   8031  0000017C  00000001 USING  ORDINARY    FFFFFFD8 00001000 FFFFFFE0   8 028    8044  IFWA-(4+36),R8
   8042  0000017C  00000001 USING  ORDINARY    00000000 00001000 FFFFFFE2   6 018    8443  FWENTRY,R6
   8459  000002F0  00000001 USING  ORDINARY    00000000 00001000 FFFFFFF6   8 000          @R8,8
   8464  000002F0  00000001 USING  ORDINARY    00000000 00001000 FFFFFFF7   7 000          @R7,7
   8483  000002FE  00000001 USING  ORDINARY    00000000 00001000 FFFFFFF8   6 000          @R6,6
   8549  00000318  00000001 USING  ORDINARY    00000318 00001000 00000001   7 7A0    8828  $$$116B,7
   8563  00000318  00000001 USING  ORDINARY    FFFFFFD8 00001000 FFFFFFDF   8 028    8664  ZAPWA-(4+36),R8
   8574  00000318  00000001 USING  ORDINARY    00000000 00001000 FFFFFFE3   2 000          XSENTRY,R2
   8847  000003C6  00000001 USING  ORDINARY    00000000 00001000 FFFFFFF6   8 000          @R8,8
   8852  000003C6  00000001 USING  ORDINARY    00000000 00001000 FFFFFFF7   7 000          @R7,7
   8871  000003D4  00000001 USING  ORDINARY    00000000 00001000 FFFFFFFC   2 000          @R2,2
   8937  000003EE  00000001 USING  ORDINARY    000003EE 00001000 00000001   7 813    9186  $$$134B,7
   8951  000003EE  00000001 USING  ORDINARY    FFFFFFD8 00001000 FFFFFFDE   8 028    8964  ELSEWA-(4+36),R8
   8962  000003EE  00000001 USING  ORDINARY    00000000 00001000 FFFFFFE2   6 010    9137  FWENTRY,R6
   9204  000004A6  00000001 USING  ORDINARY    00000000 00001000 FFFFFFF6   8 000          @R8,8
   9209  000004A6  00000001 USING  ORDINARY    00000000 00001000 FFFFFFF7   7 000          @R7,7
   9228  000004B4  00000001 USING  ORDINARY    00000000 00001000 FFFFFFF8   6 000          @R6,6
   9294  000004CE  00000001 USING  ORDINARY    000004CE 00001000 00000001   7 74A    9594  $$$147B,7
   9308  000004CE  00000001 USING  ORDINARY    FFFFFFD8 00001000 FFFFFFDD   8 028    9321  LSIFWA-(4+36),R8
   9319  000004CE  00000001 USING  ORDINARY    00000000 00001000 FFFFFFE2   6 018    9600  FWENTRY,R6
   9616  000005B8  00000001 USING  ORDINARY    00000000 00001000 FFFFFFF6   8 000          @R8,8
   9621  000005B8  00000001 USING  ORDINARY    00000000 00001000 FFFFFFF7   7 000          @R7,7
   9640  000005C6  00000001 USING  ORDINARY    00000000 00001000 FFFFFFF8   6 000          @R6,6
   9706  000005E0  00000001 USING  ORDINARY    000005E0 00001000 00000001   7 651    9966  $$$159B,7
   9720  000005E0  00000001 USING  ORDINARY    FFFFFFD8 00001000 FFFFFFDC   8 028    9733  REPEATWA-(4+36),R8
1FLOW     (FLOW2025) (12:45) (15MAR04) Using Map                                                                            Page  259
   9731  000005E0  00000001 USING  ORDINARY    00000000 00001000 FFFFFFE2   6 010    9918  FWENTRY,R6
   9984  000006AA  00000001 USING  ORDINARY    00000000 00001000 FFFFFFF6   8 000          @R8,8
   9989  000006AA  00000001 USING  ORDINARY    00000000 00001000 FFFFFFF7   7 000          @R7,7
  10008  000006B8  00000001 USING  ORDINARY    00000000 00001000 FFFFFFF8   6 000          @R6,6
  10074  000006D2  00000001 USING  ORDINARY    000006D2 00001000 00000001   7 591   10346  $$$169B,7
  10088  000006D2  00000001 USING  ORDINARY    FFFFFFD8 00001000 FFFFFFDB   8 028   10101  UNTILWA-(4+36),R8
  10099  000006D2  00000001 USING  ORDINARY    00000000 00001000 FFFFFFE2   6 018   10343  FWENTRY,R6
  10363  000007A6  00000001 USING  ORDINARY    00000000 00001000 FFFFFFF6   8 000          @R8,8
  10368  000007A6  00000001 USING  ORDINARY    00000000 00001000 FFFFFFF7   7 000          @R7,7
  10387  000007B4  00000001 USING  ORDINARY    00000000 00001000 FFFFFFF8   6 000          @R6,6
  10453  000007CE  00000001 USING  ORDINARY    000007CE 00001000 00000001   7 4C7   10693  $$$179B,7
  10467  000007CE  00000001 USING  ORDINARY    FFFFFFD8 00001000 FFFFFFDA   8 028   10480  CASESWA-(4+36),R8
  10478  000007CE  00000001 USING  ORDINARY    00000000 00001000 FFFFFFE2   6 010   10665  FWENTRY,R6
  10706  0000088E  00000001 USING  ORDINARY    00000000 00001000 FFFFFFF6   8 000          @R8,8
  10711  0000088E  00000001 USING  ORDINARY    00000000 00001000 FFFFFFF7   7 000          @R7,7
  10730  0000089C  00000001 USING  ORDINARY    00000000 00001000 FFFFFFF8   6 000          @R6,6
  10796  000008B6  00000001 USING  ORDINARY    000008B6 00001000 00000001   7 3F8   11096  $$$187B,7
  10810  000008B6  00000001 USING  ORDINARY    FFFFFFD8 00001000 FFFFFFD9   8 028   10823  CASEWA-(4+36),R8
  10821  000008B6  00000001 USING  ORDINARY    00000000 00001000 FFFFFFE2   6 018   11102  FWENTRY,R6
  11118  000009A0  00000001 USING  ORDINARY    00000000 00001000 FFFFFFF6   8 000          @R8,8
  11123  000009A0  00000001 USING  ORDINARY    00000000 00001000 FFFFFFF7   7 000          @R7,7
  11142  000009AE  00000001 USING  ORDINARY    00000000 00001000 FFFFFFF8   6 000          @R6,6
  11248  00000CE0  00000001 USING  ORDINARY    00000CE0 00001000 00000001   7 638   11394  $$$199B,7
  11406  00000D58  00000001 USING  ORDINARY    00000000 00001000 FFFFFFF7   7 000          @R7,7
  11484  00000D80  00000001 USING  ORDINARY    00000D80 00001000 00000001   7 50A   11843  $$$205B,7
  11498  00000D80  00000001 USING  ORDINARY    FFFFFFD8 00001000 FFFFFFD8   8 028   11511  ENDWA-(4+36),R8
  11509  00000D80  00000001 USING  ORDINARY    00000000 00001000 FFFFFFE2   6 014   11842  FWENTRY,R6
  11865  00000E72  00000001 USING  ORDINARY    00000000 00001000 FFFFFFF6   8 000          @R8,8
  11870  00000E72  00000001 USING  ORDINARY    00000000 00001000 FFFFFFF7   7 000          @R7,7
  11889  00000E80  00000001 USING  ORDINARY    00000000 00001000 FFFFFFF8   6 000          @R6,6
  11935  00000E9A  00000001 USING  ORDINARY    00000E9A 00001000 00000001   7 510   12198  $$$218B,7
  12208  00000F8E  00000001 USING  ORDINARY    00000000 00001000 FFFFFFF7   7 000          @R7,7
  12286  00000FB6  00000001 USING  ORDINARY    00000FB6 00001000 00000001   7 390   12442  $$$228B,7
  12300  00000FB6  00000001 USING  ORDINARY    FFFFFFD8 00001000 FFFFFFD7   8 028   12313  GOTOWA-(4+36),R8
  12311  00000FB6  00000001 USING  ORDINARY    00000000 00001000 FFFFFFE2   6 000          FWENTRY,R6
  12453  00001026  00000001 USING  ORDINARY    00000000 00001000 FFFFFFF6   8 000          @R8,8
  12458  00001026  00000001 USING  ORDINARY    00000000 00001000 FFFFFFF7   7 000          @R7,7
  12536  0000104E  00000001 USING  ORDINARY    0000104E 00001000 00000001   7 342   12693  $$$234B,7
  12550  0000104E  00000001 USING  ORDINARY    FFFFFFD8 00001000 FFFFFFD6   8 028   12556  XITWA-(4+36),R8
  12706  000010C4  00000001 USING  ORDINARY    00000000 00001000 FFFFFFF6   8 000          @R8,8
  12711  000010C4  00000001 USING  ORDINARY    00000000 00001000 FFFFFFF7   7 000          @R7,7
  12764  000010EC  00000001 USING  ORDINARY    000010EC 00001000 00000001   7 1AE   12876  $$$240B,7
  12889  00001138  00000001 USING  ORDINARY    00000000 00001000 FFFFFFF7   7 000          @R7,7
  13024  000013CA  00000001 USING  ORDINARY    000013CA 00001000 00000001   7 B3E   13261  $$$249B,7
  13038  000013CA  00000001 USING  ORDINARY    FFFFFFD8 00001000 FFFFFFD5   8 028   13054  ECWA-(4+36),R8
  13049  000013CA  00000001 USING  ORDINARY    00000000 00001000 FFFFFFF8   6 000          @R6,6
  13052  000013CA  00000001 USING  ORDINARY    00000000 00001000 FFFFFFE3   6 024   13232  XSENTRY,R6
  13279  0000149E  00000001 USING  ORDINARY    00000000 00001000 FFFFFFF6   8 000          @R8,8
  13284  0000149E  00000001 USING  ORDINARY    00000000 00001000 FFFFFFF7   7 000          @R7,7
  13303  000014AC  00000001 USING  ORDINARY    00000000 00001000 FFFFFFF8   6 000          @R6,6
  13358  000014C6  00000001 USING  ORDINARY    000014C6 00001000 00000001   7 A44   13465  $$$260B,7
  13473  00001550  00000001 USING  ORDINARY    00000000 00001000 FFFFFFF7   7 000          @R7,7
  13765  000017FA  00000001 USING  ORDINARY    000017FA 00001000 00000001   7 6CA   13776  $$$265B,7
  13785  00001804  00000001 USING  ORDINARY    00000000 00001000 FFFFFFF7   7 000          @R7,7
  13833  0000182C  00000001 USING  ORDINARY    0000182C 00001000 00000001   7 000          $$$268B,7
  13849  00001830  00000001 USING  ORDINARY    00000000 00001000 FFFFFFF7   7 000          @R7,7
  13897  00001858  00000001 USING  ORDINARY    00001858 00001000 00000001   7 674   14032  $$$271B,7
  14041  000018C0  00000001 USING  ORDINARY    00000000 00001000 FFFFFFF7   7 000          @R7,7
  14099  000018E8  00000001 USING  ORDINARY    000018E8 00001000 00000001   7 624   14198  $$$278B,7
1FLOW     (FLOW2025) (12:45) (15MAR04) Using Map                                                                            Page  260
  14211  00001962  00000001 USING  ORDINARY    00000000 00001000 FFFFFFF7   7 000          @R7,7
  14296  0000198A  00000001 USING  ORDINARY    0000198A 00001000 00000001   7 58C   14523  $$$282B,7
  14310  0000198A  00000001 USING  ORDINARY    FFFFFFD8 00001000 FFFFFFD4   8 028   14323  LLWA-(4+36),R8
  14321  0000198A  00000001 USING  ORDINARY    00000000 00001000 FFFFFFE2   6 014   14864  FWENTRY,R6
  14545  00001A2C  00000001 USING  ORDINARY    00000000 00001000 FFFFFFF6   8 000          @R8,8
  14550  00001A2C  00000001 USING  ORDINARY    00000000 00001000 FFFFFFF7   7 000          @R7,7
  14635  00001A54  00000001 USING  ORDINARY    00001A54 00001000 00000001   7 4D4   14855  $$$289B,7
  14649  00001A54  00000001 USING  ORDINARY    FFFFFFD8 00001000 FFFFFFD3   8 028   14655  XLLWA-(4+36),R8
  14877  00001AF6  00000001 USING  ORDINARY    00000000 00001000 FFFFFFF6   8 000          @R8,8
  14882  00001AF6  00000001 USING  ORDINARY    00000000 00001000 FFFFFFF7   7 000          @R7,7
  14972  00001B1E  00000001 USING  ORDINARY    00001B1E 00001000 00000001   7 43F   15323  $$$296B,7
  14986  00001B1E  00000001 USING  ORDINARY    FFFFFFD8 00001000 FFFFFFD2   8 034   15238  SCNLWA-(4+36),R8
  14997  00001B1E  00000001 USING  ORDINARY    00000000 00001000 FFFFFFF8   6 000          @R6,6
  15000  00001B1E  00000001 USING  ORDINARY    00000000 00001000 FFFFFFE8   6 010   15059  VNENTRY,R6
  15361  00001C9C  00000001 USING  ORDINARY    00000000 00001000 FFFFFFF6   8 000          @R8,8
  15366  00001C9C  00000001 USING  ORDINARY    00000000 00001000 FFFFFFF7   7 000          @R7,7
  15385  00001CAA  00000001 USING  ORDINARY    00000000 00001000 FFFFFFF8   6 000          @R6,6
  15464  00001CC4  00000001 USING  ORDINARY    00001CC4 00001000 00000001   7 2C5   15861  $$$306B,7
  15478  00001CC4  00000001 USING  ORDINARY    FFFFFFD8 00001000 FFFFFFD1   8 034   15746  SCNPWA-(4+36),R8
  15489  00001CC4  00000001 USING  ORDINARY    00000000 00001000 FFFFFFE8   6 010   15548  VNENTRY,R6
  15902  00001E60  00000001 USING  ORDINARY    00000000 00001000 FFFFFFF6   8 000          @R8,8
  15907  00001E60  00000001 USING  ORDINARY    00000000 00001000 FFFFFFF7   7 000          @R7,7
  15926  00001E6E  00000001 USING  ORDINARY    00000000 00001000 FFFFFFF8   6 000          @R6,6
  16101  00001FBC  00000001 USING  ORDINARY    00001FBC 00001000 00000001   7 7B4   16798  $$$317B,7
  16115  00001FBC  00000001 USING  ORDINARY    FFFFFFD8 00001000 FFFFFFD0   8 230   16787  FFWA-(4+36),R8
  16811  000021D4  00000001 USING  ORDINARY    00000000 00001000 FFFFFFF6   8 000          @R8,8
  16816  000021D4  00000001 USING  ORDINARY    00000000 00001000 FFFFFFF7   7 000          @R7,7
  16871  000021FC  00000001 USING  ORDINARY    000021FC 00001000 00000001   7 56C   16997  $$$352B,7
  16887  000021FC  00000001 USING  ORDINARY    00000000 00001000 FFFFFFD0   6 112   16994  FFWA,R6
  17014  000022A2  00000001 USING  ORDINARY    00000000 00001000 FFFFFFF7   7 000          @R7,7
  17033  000022B0  00000001 USING  ORDINARY    00000000 00001000 FFFFFFF8   6 000          @R6,6
  17076  000022CA  00000001 USING  ORDINARY    000022CA 00001000 00000001   7 4A2   17211  $$$358B,7
  17092  000022CA  00000001 USING  ORDINARY    00000000 00001000 FFFFFFD0   6 112   17215  FFWA,R6
  17227  0000238C  00000001 USING  ORDINARY    00000000 00001000 FFFFFFF7   7 000          @R7,7
  17246  0000239A  00000001 USING  ORDINARY    00000000 00001000 FFFFFFF8   6 000          @R6,6
  17289  000023B4  00000001 USING  ORDINARY    000023B4 00001000 00000001   7 3B8   17425  $$$364B,7
  17305  000023B4  00000001 USING  ORDINARY    00000000 00001000 FFFFFFD0   6 112   17429  FFWA,R6
  17441  0000247A  00000001 USING  ORDINARY    00000000 00001000 FFFFFFF7   7 000          @R7,7
  17460  00002488  00000001 USING  ORDINARY    00000000 00001000 FFFFFFF8   6 000          @R6,6
  17503  000024A2  00000001 USING  ORDINARY    000024A2 00001000 00000001   7 2C6   17657  $$$370B,7
  17519  000024A2  00000001 USING  ORDINARY    00000000 00001000 FFFFFFD0   6 112   17654  FFWA,R6
  17674  0000255E  00000001 USING  ORDINARY    00000000 00001000 FFFFFFF7   7 000          @R7,7
  17693  0000256C  00000001 USING  ORDINARY    00000000 00001000 FFFFFFF8   6 000          @R6,6
  17736  00002586  00000001 USING  ORDINARY    00002586 00001000 00000001   7 1E2   17864  $$$377B,7
  17752  00002586  00000001 USING  ORDINARY    00000000 00001000 FFFFFFD0   6 112   17861  FFWA,R6
  17881  00002626  00000001 USING  ORDINARY    00000000 00001000 FFFFFFF7   7 000          @R7,7
  17900  00002634  00000001 USING  ORDINARY    00000000 00001000 FFFFFFF8   6 000          @R6,6
  17943  0000264E  00000001 USING  ORDINARY    0000264E 00001000 00000001   7 11A   18071  $$$383B,7
  17959  0000264E  00000001 USING  ORDINARY    00000000 00001000 FFFFFFD0   6 112   18068  FFWA,R6
  18088  000026FC  00000001 USING  ORDINARY    00000000 00001000 FFFFFFF7   7 000          @R7,7
  18107  0000270A  00000001 USING  ORDINARY    00000000 00001000 FFFFFFF8   6 000          @R6,6
  18195  00002790  00000001 USING  ORDINARY    00002790 00001000 00000001   7 840   18301  $$$389B,7
  18318  0000280C  00000001 USING  ORDINARY    00000000 00001000 FFFFFFF7   7 000          @R7,7
  18535  000029EE  00000001 USING  ORDINARY    000029EE 00001000 00000001   7 000          $$$394B,7
  18551  000029F2  00000001 USING  ORDINARY    00000000 00001000 FFFFFFF7   7 000          @R7,7
  18596  00002A1A  00000001 USING  ORDINARY    00002A1A 00001000 00000001   7 55E   18663  $$$397B,7
  18680  00002A52  00000001 USING  ORDINARY    00000000 00001000 FFFFFFF7   7 000          @R7,7
  18725  00002A7A  00000001 USING  ORDINARY    00002A7A 00001000 00000001   7 4FE   18759  $$$402B,7
  18776  00002A90  00000001 USING  ORDINARY    00000000 00001000 FFFFFFF7   7 000          @R7,7
1FLOW     (FLOW2025) (12:45) (15MAR04) Using Map                                                                            Page  261
  18821  00002AB8  00000001 USING  ORDINARY    00002AB8 00001000 00000001   7 518   18924  $$$407B,7
  18941  00002B44  00000001 USING  ORDINARY    00000000 00001000 FFFFFFF7   7 000          @R7,7
  19003  00002B6C  00000001 USING  ORDINARY    00002B6C 00001000 00000001   7 464   19113  $$$412B,7
  19131  00002BEA  00000001 USING  ORDINARY    00000000 00001000 FFFFFFF7   7 000          @R7,7
  19215  00002C12  00000001 USING  ORDINARY    00002C12 00001000 00000001   7 36E   19238  $$$418B,7
  19229  00002C12  00000001 USING  ORDINARY    FFFFFFD8 00001000 FFFFFFCF   8 028   19235  FFLAWA-(4+36),R8
  19247  00002C1C  00000001 USING  ORDINARY    00000000 00001000 FFFFFFF6   8 000          @R8,8
  19252  00002C1C  00000001 USING  ORDINARY    00000000 00001000 FFFFFFF7   7 000          @R7,7
  19314  00002C44  00000001 USING  ORDINARY    00002C44 00001000 00000001   7 030   19409  $$$421B,7
  19427  00002C74  00000001 USING  ORDINARY    00000000 00001000 FFFFFFF7   7 000          @R7,7
  19489  00002C9C  00000001 USING  ORDINARY    00002C9C 00001000 00000001   7 028   19567  $$$430B,7
  19585  00002CC4  00000001 USING  ORDINARY    00000000 00001000 FFFFFFF7   7 000          @R7,7
  19645  00002CEC  00000001 USING  ORDINARY    00002CEC 00001000 00000001   7 018   19693  $$$438B,7
  19709  00002D0C  00000001 USING  ORDINARY    00000000 00001000 FFFFFFF7   7 000          @R7,7
  19773  00002D34  00000001 USING  ORDINARY    00002D34 00001000 00000001   7 2B4   19949  $$$444B,7
  19966  00002DCA  00000001 USING  ORDINARY    00000000 00001000 FFFFFFF7   7 000          @R7,7
  20025  00002DF2  00000001 USING  ORDINARY    00002DF2 00001000 00000001   7 1C2   20070  $$$449B,7
  20099  00002E22  00000001 USING  ORDINARY    00000000 00001000 FFFFFFF7   7 000          @R7,7
  20162  00002E4A  00000001 USING  ORDINARY    00002E4A 00001000 00000001   7 16E   20178  $$$454B,7
  20189  00002E56  00000001 USING  ORDINARY    00000000 00001000 FFFFFFF7   7 000          @R7,7
  20252  00002E7E  00000001 USING  ORDINARY    00002E7E 00001000 00000001   7 13E   20268  $$$457B,7
  20279  00002E8A  00000001 USING  ORDINARY    00000000 00001000 FFFFFFF7   7 000          @R7,7
  20340  00002EB2  00000001 USING  ORDINARY    00002EB2 00001000 00000001   7 10E   20354  $$$460B,7
  20363  00002EBC  00000001 USING  ORDINARY    00000000 00001000 FFFFFFF7   7 000          @R7,7
  20426  00002EE4  00000001 USING  ORDINARY    00002EE4 00001000 00000001   7 0E4   20451  $$$463B,7
  20462  00002F04  00000001 USING  ORDINARY    00000000 00001000 FFFFFFF7   7 000          @R7,7
  20525  00002F2C  00000001 USING  ORDINARY    00002F2C 00001000 00000001   7 0A0   20550  $$$466B,7
  20561  00002F4C  00000001 USING  ORDINARY    00000000 00001000 FFFFFFF7   7 000          @R7,7
  20686  00003018  00000001 USING  ORDINARY    00003018 00001000 00000001   7 818   20821  $$$469B,7
  20700  00003018  00000001 USING  ORDINARY    FFFFFFD8 00001000 FFFFFFCE   8 02C   20818  XFCWA-(4+36),R8
  20838  000030A0  00000001 USING  ORDINARY    00000000 00001000 FFFFFFF6   8 000          @R8,8
  20843  000030A0  00000001 USING  ORDINARY    00000000 00001000 FFFFFFF7   7 000          @R7,7
  20932  000030C8  00000001 USING  ORDINARY    000030C8 00001000 00000001   7 781   21342  $$$476B,7
  20946  000030C8  00000001 USING  ORDINARY    FFFFFFD8 00001000 FFFFFFCD   8 078   21328  FXPWA-(4+36),R8
  20957  000030C8  00000001 USING  ORDINARY    00000000 00001000 FFFFFFE2   6 018   21339  FWENTRY,R6
  21355  000032EA  00000001 USING  ORDINARY    00000000 00001000 FFFFFFF6   8 000          @R8,8
  21360  000032EA  00000001 USING  ORDINARY    00000000 00001000 FFFFFFF7   7 000          @R7,7
  21379  000032F8  00000001 USING  ORDINARY    00000000 00001000 FFFFFFF8   6 000          @R6,6
  21456  00003312  00000001 USING  ORDINARY    00003312 00001000 00000001   7 580   22035  $$$485B,7
  21470  00003312  00000001 USING  ORDINARY    FFFFFFD8 00001000 FFFFFFCC   8 178   22021  FPWA-(4+36),R8
  21481  00003312  00000001 USING  ORDINARY    00000000 00001000 FFFFFFE2   6 018   22032  FWENTRY,R6
  22048  000035C6  00000001 USING  ORDINARY    00000000 00001000 FFFFFFF6   8 000          @R8,8
  22053  000035C6  00000001 USING  ORDINARY    00000000 00001000 FFFFFFF7   7 000          @R7,7
  22072  000035D4  00000001 USING  ORDINARY    00000000 00001000 FFFFFFF8   6 000          @R6,6
  22149  000035EE  00000001 USING  ORDINARY    000035EE 00001000 00000001   7 25B   22414  $$$497B,7
  22163  000035EE  00000001 USING  ORDINARY    FFFFFFD8 00001000 FFFFFFCB   8 05C   22410  FCWHWA-(4+36),R8
  22174  000035EE  00000001 USING  ORDINARY    00000000 00001000 FFFFFFE2   6 018   22411  FWENTRY,R6
  22431  0000371A  00000001 USING  ORDINARY    00000000 00001000 FFFFFFF6   8 000          @R8,8
  22436  0000371A  00000001 USING  ORDINARY    00000000 00001000 FFFFFFF7   7 000          @R7,7
  22455  00003728  00000001 USING  ORDINARY    00000000 00001000 FFFFFFF8   6 000          @R6,6
  22591  000038CC  00000001 USING  ORDINARY    000038CC 00001000 00000001   7 6C0   23029  $$$504B,7
  22605  000038CC  00000001 USING  ORDINARY    FFFFFFD8 00001000 FFFFFFCA   8 060   23025  FCIFWA-(4+36),R8
  22616  000038CC  00000001 USING  ORDINARY    00000000 00001000 FFFFFFE2   6 018   23026  FWENTRY,R6
  23046  00003A7E  00000001 USING  ORDINARY    00000000 00001000 FFFFFFF6   8 000          @R8,8
  23051  00003A7E  00000001 USING  ORDINARY    00000000 00001000 FFFFFFF7   7 000          @R7,7
  23070  00003A8C  00000001 USING  ORDINARY    00000000 00001000 FFFFFFF8   6 000          @R6,6
  23149  00003AA6  00000001 USING  ORDINARY    00003AA6 00001000 00000001   7 4DE   23364  $$$519B,7
  23163  00003AA6  00000001 USING  ORDINARY    FFFFFFD8 00001000 FFFFFFC9   8 058   23353  FCELWA-(4+36),R8
  23174  00003AA6  00000001 USING  ORDINARY    00000000 00001000 FFFFFFE2   6 011   23361  FWENTRY,R6
1FLOW     (FLOW2025) (12:45) (15MAR04) Using Map                                                                            Page  262
  23381  00003B84  00000001 USING  ORDINARY    00000000 00001000 FFFFFFF6   8 000          @R8,8
  23386  00003B84  00000001 USING  ORDINARY    00000000 00001000 FFFFFFF7   7 000          @R7,7
  23405  00003B92  00000001 USING  ORDINARY    00000000 00001000 FFFFFFF8   6 000          @R6,6
  23489  00003BAC  00000001 USING  ORDINARY    00003BAC 00001000 00000001   7 3E0   23930  $$$525B,7
  23503  00003BAC  00000001 USING  ORDINARY    FFFFFFD8 00001000 FFFFFFC8   8 060   23926  FCEFWA-(4+36),R8
  23514  00003BAC  00000001 USING  ORDINARY    00000000 00001000 FFFFFFE2   6 018   23927  FWENTRY,R6
  23947  00003D62  00000001 USING  ORDINARY    00000000 00001000 FFFFFFF6   8 000          @R8,8
  23952  00003D62  00000001 USING  ORDINARY    00000000 00001000 FFFFFFF7   7 000          @R7,7
  23971  00003D70  00000001 USING  ORDINARY    00000000 00001000 FFFFFFF8   6 000          @R6,6
  24052  00003D8A  00000001 USING  ORDINARY    00003D8A 00001000 00000001   7 1FE   24332  $$$540B,7
  24066  00003D8A  00000001 USING  ORDINARY    FFFFFFD8 00001000 FFFFFFC7   8 05C   24328  FCRPWA-(4+36),R8
  24077  00003D8A  00000001 USING  ORDINARY    00000000 00001000 FFFFFFE2   6 018   24329  FWENTRY,R6
  24349  00003EEC  00000001 USING  ORDINARY    00000000 00001000 FFFFFFF6   8 000          @R8,8
  24354  00003EEC  00000001 USING  ORDINARY    00000000 00001000 FFFFFFF7   7 000          @R7,7
  24373  00003EFA  00000001 USING  ORDINARY    00000000 00001000 FFFFFFF8   6 000          @R6,6
  24492  00003FA8  00000001 USING  ORDINARY    00003FA8 00001000 00000001   7 C6A   24706  $$$546B,7
  24506  00003FA8  00000001 USING  ORDINARY    FFFFFFD8 00001000 FFFFFFC6   8 058   24689  FCCBWA-(4+36),R8
  24517  00003FA8  00000001 USING  ORDINARY    00000000 00001000 FFFFFFE2   6 011   24703  FWENTRY,R6
  24719  00004084  00000001 USING  ORDINARY    00000000 00001000 FFFFFFF6   8 000          @R8,8
  24724  00004084  00000001 USING  ORDINARY    00000000 00001000 FFFFFFF7   7 000          @R7,7
  24743  00004092  00000001 USING  ORDINARY    00000000 00001000 FFFFFFF8   6 000          @R6,6
  24825  000040AC  00000001 USING  ORDINARY    000040AC 00001000 00000001   7 B85   25219  $$$552B,7
  24839  000040AC  00000001 USING  ORDINARY    FFFFFFD8 00001000 FFFFFFC5   8 060   25215  FCCSWA-(4+36),R8
  24850  000040AC  00000001 USING  ORDINARY    00000000 00001000 FFFFFFE2   6 018   25216  FWENTRY,R6
  25236  00004236  00000001 USING  ORDINARY    00000000 00001000 FFFFFFF6   8 000          @R8,8
  25241  00004236  00000001 USING  ORDINARY    00000000 00001000 FFFFFFF7   7 000          @R7,7
  25260  00004244  00000001 USING  ORDINARY    00000000 00001000 FFFFFFF8   6 000          @R6,6
  25337  0000425E  00000001 USING  ORDINARY    0000425E 00001000 00000001   7 9FF   25600  $$$565B,7
  25351  0000425E  00000001 USING  ORDINARY    FFFFFFD8 00001000 FFFFFFC4   8 054   25611  FCLBWA-(4+36),R8
  25362  0000425E  00000001 USING  ORDINARY    00000000 00001000 FFFFFFE2   6 014   25504  FWENTRY,R6
  25624  0000432C  00000001 USING  ORDINARY    00000000 00001000 FFFFFFF6   8 000          @R8,8
  25629  0000432C  00000001 USING  ORDINARY    00000000 00001000 FFFFFFF7   7 000          @R7,7
  25648  0000433A  00000001 USING  ORDINARY    00000000 00001000 FFFFFFF8   6 000          @R6,6
  25736  00004354  00000001 USING  ORDINARY    00004354 00001000 00000001   7 91E   26147  $$$575B,7
  25750  00004354  00000001 USING  ORDINARY    FFFFFFD8 00001000 FFFFFFC3   8 028   25754  FDDWA-(4+36),R8
  25762  00004358  00000001 USING  ORDINARY    00000000 00001000 FFFFFFC3   6 00C   27694  FDDWA,R6
  26157  0000449E  00000001 USING  ORDINARY    00000000 00001000 FFFFFFF6   8 000          @R8,8
  26162  0000449E  00000001 USING  ORDINARY    00000000 00001000 FFFFFFF7   7 000          @R7,7
  26455  00004746  00000001 USING  ORDINARY    00004746 00001000 00000001   7 000          $$$593B,7
  26471  0000474A  00000001 USING  ORDINARY    00000000 00001000 FFFFFFF7   7 000          @R7,7
  26519  00004772  00000001 USING  ORDINARY    00004772 00001000 00000001   7 000          $$$596B,7
  26535  00004776  00000001 USING  ORDINARY    00000000 00001000 FFFFFFF7   7 000          @R7,7
  26583  0000479E  00000001 USING  ORDINARY    0000479E 00001000 00000001   7 000          $$$599B,7
  26602  000047AA  00000001 USING  ORDINARY    00000000 00001000 FFFFFFF7   7 000          @R7,7
  26650  000047D2  00000001 USING  ORDINARY    000047D2 00001000 00000001   7 000          $$$602B,7
  26669  000047DE  00000001 USING  ORDINARY    00000000 00001000 FFFFFFF7   7 000          @R7,7
  26717  00004806  00000001 USING  ORDINARY    00004806 00001000 00000001   7 000          $$$605B,7
  26736  00004812  00000001 USING  ORDINARY    00000000 00001000 FFFFFFF7   7 000          @R7,7
  26784  0000483A  00000001 USING  ORDINARY    0000483A 00001000 00000001   7 000          $$$608B,7
  26803  00004846  00000001 USING  ORDINARY    00000000 00001000 FFFFFFF7   7 000          @R7,7
  26851  0000486E  00000001 USING  ORDINARY    0000486E 00001000 00000001   7 000          $$$611B,7
  26870  0000487A  00000001 USING  ORDINARY    00000000 00001000 FFFFFFF7   7 000          @R7,7
  26918  000048A2  00000001 USING  ORDINARY    000048A2 00001000 00000001   7 000          $$$614B,7
  26937  000048AE  00000001 USING  ORDINARY    00000000 00001000 FFFFFFF7   7 000          @R7,7
  26985  000048D6  00000001 USING  ORDINARY    000048D6 00001000 00000001   7 3F0   27025  $$$617B,7
  27033  000048FA  00000001 USING  ORDINARY    00000000 00001000 FFFFFFF7   7 000          @R7,7
  27081  00004922  00000001 USING  ORDINARY    00004922 00001000 00000001   7 3AD   27102  $$$620B,7
  27110  00004934  00000001 USING  ORDINARY    00000000 00001000 FFFFFFF7   7 000          @R7,7
  27158  0000495C  00000001 USING  ORDINARY    0000495C 00001000 00000001   7 39A   27208  $$$623B,7
1FLOW     (FLOW2025) (12:45) (15MAR04) Using Map                                                                            Page  263
  27216  00004996  00000001 USING  ORDINARY    00000000 00001000 FFFFFFF7   7 000          @R7,7
  27264  000049BE  00000001 USING  ORDINARY    000049BE 00001000 00000001   7 36D   27303  $$$626B,7
  27311  000049E2  00000001 USING  ORDINARY    00000000 00001000 FFFFFFF7   7 000          @R7,7
  27359  00004A0A  00000001 USING  ORDINARY    00004A0A 00001000 00000001   7 352   27398  $$$629B,7
  27406  00004A2E  00000001 USING  ORDINARY    00000000 00001000 FFFFFFF7   7 000          @R7,7
  27454  00004A56  00000001 USING  ORDINARY    00004A56 00001000 00000001   7 339   27493  $$$632B,7
  27501  00004A7A  00000001 USING  ORDINARY    00000000 00001000 FFFFFFF7   7 000          @R7,7
  27549  00004AA2  00000001 USING  ORDINARY    00004AA2 00001000 00000001   7 31A   27588  $$$635B,7
  27596  00004AC6  00000001 USING  ORDINARY    00000000 00001000 FFFFFFF7   7 000          @R7,7
  27647  00004AEE  00000001 USING  ORDINARY    00004AEE 00001000 00000001   7 2FD   27715  $$$638B,7
  27723  00004B36  00000001 USING  ORDINARY    00000000 00001000 FFFFFFF7   7 000          @R7,7
  27742  00004B44  00000001 USING  ORDINARY    00000000 00001000 FFFFFFF8   6 000          @R6,6
  27866  00004E22  00000001 USING  ORDINARY    00004E22 00001000 00000001   7 552   28014  $$$641B,7
  28029  00004E88  00000001 USING  ORDINARY    00000000 00001000 FFFFFFF7   7 000          @R7,7
  28084  00004EB0  00000001 USING  ORDINARY    00004EB0 00001000 00000001   7 500   28365  $$$650B,7
  28390  00004F5A  00000001 USING  ORDINARY    00000000 00001000 FFFFFFF7   7 000          @R7,7
  28445  00004F82  00000001 USING  ORDINARY    00004F82 00001000 00000001   7 434   28714  $$$667B,7
  28739  0000501A  00000001 USING  ORDINARY    00000000 00001000 FFFFFFF7   7 000          @R7,7
  28794  00005042  00000001 USING  ORDINARY    00005042 00001000 00000001   7 37A   29063  $$$684B,7
  29088  000050DA  00000001 USING  ORDINARY    00000000 00001000 FFFFFFF7   7 000          @R7,7
  29168  00005202  00000001 USING  ORDINARY    00005202 00001000 00000001   7 170   29337  $$$701B,7
  29347  000052FA  00000001 USING  ORDINARY    00000000 00001000 FFFFFFF7   7 000          @R7,7
  29463  000053DC  00000001 USING  ORDINARY    000053DC 00001000 00000001   7 954   29747  $$$706B,7
  29477  000053DC  00000001 USING  ORDINARY    FFFFFFD8 00001000 FFFFFFC2   8 034   29533  CHKWA-(4+36),R8
  29770  0000552A  00000001 USING  ORDINARY    00000000 00001000 FFFFFFF6   8 000          @R8,8
  29775  0000552A  00000001 USING  ORDINARY    00000000 00001000 FFFFFFF7   7 000          @R7,7
  29840  00005552  00000001 USING  ORDINARY    00005552 00001000 00000001   7 861   30205  $$$715B,7
  29854  00005552  00000001 USING  ORDINARY    FFFFFFD8 00001000 FFFFFFC2   8 034   29931  CHKWA-(4+36),R8
  30223  000056D2  00000001 USING  ORDINARY    00000000 00001000 FFFFFFF6   8 000          @R8,8
  30228  000056D2  00000001 USING  ORDINARY    00000000 00001000 FFFFFFF7   7 000          @R7,7
  30291  000056FA  00000001 USING  ORDINARY    000056FA 00001000 00000001   7 5E2   30433  $$$725B,7
  30305  000056FA  00000001 USING  ORDINARY    FFFFFFD8 00001000 FFFFFFC2   8 030   30422  CHKWA-(4+36),R8
  30460  00005764  00000001 USING  ORDINARY    00000000 00001000 FFFFFFF6   8 000          @R8,8
  30465  00005764  00000001 USING  ORDINARY    00000000 00001000 FFFFFFF7   7 000          @R7,7
  30528  0000578C  00000001 USING  ORDINARY    0000578C 00001000 00000001   7 550   30670  $$$734B,7
  30542  0000578C  00000001 USING  ORDINARY    FFFFFFD8 00001000 FFFFFFC2   8 030   30659  CHKWA-(4+36),R8
  30697  000057F6  00000001 USING  ORDINARY    00000000 00001000 FFFFFFF6   8 000          @R8,8
  30702  000057F6  00000001 USING  ORDINARY    00000000 00001000 FFFFFFF7   7 000          @R7,7
  30765  0000581E  00000001 USING  ORDINARY    0000581E 00001000 00000001   7 595   30959  $$$743B,7
  30779  0000581E  00000001 USING  ORDINARY    FFFFFFD8 00001000 FFFFFFC2   8 030   30830  CHKWA-(4+36),R8
  30976  000058B4  00000001 USING  ORDINARY    00000000 00001000 FFFFFFF6   8 000          @R8,8
  30981  000058B4  00000001 USING  ORDINARY    00000000 00001000 FFFFFFF7   7 000          @R7,7
  31044  000058DC  00000001 USING  ORDINARY    000058DC 00001000 00000001   7 400   31186  $$$751B,7
  31058  000058DC  00000001 USING  ORDINARY    FFFFFFD8 00001000 FFFFFFC2   8 030   31175  CHKWA-(4+36),R8
  31213  00005946  00000001 USING  ORDINARY    00000000 00001000 FFFFFFF6   8 000          @R8,8
  31218  00005946  00000001 USING  ORDINARY    00000000 00001000 FFFFFFF7   7 000          @R7,7
  31284  0000596E  00000001 USING  ORDINARY    0000596E 00001000 00000001   7 48B   31590  $$$760B,7
  31298  0000596E  00000001 USING  ORDINARY    FFFFFFD8 00001000 FFFFFFC2   8 030   31555  CHKWA-(4+36),R8
  31607  00005A98  00000001 USING  ORDINARY    00000000 00001000 FFFFFFF6   8 000          @R8,8
  31612  00005A98  00000001 USING  ORDINARY    00000000 00001000 FFFFFFF7   7 000          @R7,7
  31677  00005AC0  00000001 USING  ORDINARY    00005AC0 00001000 00000001   7 252   31901  $$$768B,7
  31914  00005B94  00000001 USING  ORDINARY    00000000 00001000 FFFFFFF7   7 000          @R7,7
  32007  00005BBC  00000001 USING  ORDINARY    00005BBC 00001000 00000001   7 148   32054  $$$776B,7
  32021  00005BBC  00000001 USING  ORDINARY    FFFFFFD8 00001000 FFFFFFC1   8 028   32034  CHKDWA-(4+36),R8
  32032  00005BBC  00000001 USING  ORDINARY    00000000 00001000 FFFFFFE2   6 010   32049  FWENTRY,R6
  32066  00005BE6  00000001 USING  ORDINARY    00000000 00001000 FFFFFFF6   8 000          @R8,8
  32071  00005BE6  00000001 USING  ORDINARY    00000000 00001000 FFFFFFF7   7 000          @R7,7
  32090  00005BF4  00000001 USING  ORDINARY    00000000 00001000 FFFFFFF8   6 000          @R6,6
  32163  00005C0E  00000001 USING  ORDINARY    00005C0E 00001000 00000001   7 0FA   32236  $$$779B,7
1FLOW     (FLOW2025) (12:45) (15MAR04) Using Map                                                                            Page  264
  32177  00005C0E  00000001 USING  ORDINARY    FFFFFFD8 00001000 FFFFFFC0   8 028   32190  CHKPWA-(4+36),R8
  32188  00005C0E  00000001 USING  ORDINARY    00000000 00001000 FFFFFFE2   6 010   32235  FWENTRY,R6
  32253  00005C3A  00000001 USING  ORDINARY    00000000 00001000 FFFFFFF6   8 000          @R8,8
  32258  00005C3A  00000001 USING  ORDINARY    00000000 00001000 FFFFFFF7   7 000          @R7,7
  32277  00005C48  00000001 USING  ORDINARY    00000000 00001000 FFFFFFF8   6 000          @R6,6
  32380  00005E3A  00000001 USING  ORDINARY    00005E3A 00001000 00000001   7 6A2   32476  $$$784B,7
  32494  00005EAA  00000001 USING  ORDINARY    00000000 00001000 FFFFFFF7   7 000          @R7,7
  32786  00006152  00000001 USING  ORDINARY    00006152 00001000 00000001   7 396   32822  $$$790B,7
  32835  00006170  00000001 USING  ORDINARY    00000000 00001000 FFFFFFF7   7 000          @R7,7
  32883  00006198  00000001 USING  ORDINARY    00006198 00001000 00000001   7 000          $$$794B,7
  32899  0000619C  00000001 USING  ORDINARY    00000000 00001000 FFFFFFF7   7 000          @R7,7
  32947  000061C4  00000001 USING  ORDINARY    000061C4 00001000 00000001   7 325   33037  $$$797B,7
  33046  00006210  00000001 USING  ORDINARY    00000000 00001000 FFFFFFF7   7 000          @R7,7
  33110  00006238  00000001 USING  ORDINARY    00006238 00001000 00000001   7 2A4   33243  $$$800B,7
  33275  00006314  00000001 USING  ORDINARY    00000000 00001000 FFFFFFF7   7 000          @R7,7
  33368  0000633C  00000001 USING  ORDINARY    0000633C 00001000 00000001   7 1A0   33706  $$$805B,7
  33382  0000633C  00000001 USING  ORDINARY    FFFFFFD8 00001000 FFFFFFBF   8 034   33649  SCLBWA-(4+36),R8
  33393  0000633C  00000001 USING  ORDINARY    00000000 00001000 FFFFFFE8   6 010   33613  VNENTRY,R6
  33728  0000649E  00000001 USING  ORDINARY    00000000 00001000 FFFFFFF6   8 000          @R8,8
  33733  0000649E  00000001 USING  ORDINARY    00000000 00001000 FFFFFFF7   7 000          @R7,7
  33752  000064AC  00000001 USING  ORDINARY    00000000 00001000 FFFFFFF8   6 000          @R6,6
  33830  0000652C  00000001 USING  ORDINARY    0000652C 00001000 00000001   7 188   33855  $$$818B,7
  33866  0000654C  00000001 USING  ORDINARY    00000000 00001000 FFFFFFF7   7 000          @R7,7
  33928  00006574  00000001 USING  ORDINARY    00006574 00001000 00000001   7 144   33953  $$$821B,7
  33964  00006594  00000001 USING  ORDINARY    00000000 00001000 FFFFFFF7   7 000          @R7,7
  34026  000065BC  00000001 USING  ORDINARY    000065BC 00001000 00000001   7 104   34080  $$$824B,7
  34105  000065FC  00000001 USING  ORDINARY    00000000 00001000 FFFFFFF7   7 000          @R7,7
  34168  00006624  00000001 USING  ORDINARY    00006624 00001000 00000001   7 0A4   34207  $$$829B,7
  34221  00006654  00000001 USING  ORDINARY    00000000 00001000 FFFFFFF7   7 000          @R7,7
  34283  0000667C  00000001 USING  ORDINARY    0000667C 00001000 00000001   7 050   34316  $$$833B,7
  34336  000066A2  00000001 USING  ORDINARY    00000000 00001000 FFFFFFF7   7 000          @R7,7
  34424  000066EA  00000001 USING  ORDINARY    000066EA 00001000 00000001   7 142   34459  $$$837B,7
  34440  000066EA  00000001 USING  ORDINARY    00000000 00001000 FFFFFFE2   6 010   34456  FWENTRY,R6
  34468  00006710  00000001 USING  ORDINARY    00000000 00001000 FFFFFFF7   7 000          @R7,7
  34487  0000671E  00000001 USING  ORDINARY    00000000 00001000 FFFFFFF8   6 000          @R6,6
  34537  00006738  00000001 USING  ORDINARY    00006738 00001000 00000001   7 0F8   34592  $$$840B,7
  34610  0000677C  00000001 USING  ORDINARY    00000000 00001000 FFFFFFF7   7 000          @R7,7
  34677  000067A4  00000001 USING  ORDINARY    000067A4 00001000 00000001   7 088   34710  $$$845B,7
  34693  000067A4  00000001 USING  ORDINARY    00000000 00001000 FFFFFFE2   6 000          FWENTRY,R6
  34719  000067BA  00000001 USING  ORDINARY    00000000 00001000 FFFFFFF7   7 000          @R7,7
  34738  000067C8  00000001 USING  ORDINARY    00000000 00001000 FFFFFFF8   6 000          @R6,6
  34791  000067E2  00000001 USING  ORDINARY    000067E2 00001000 00000001   7 04E   34832  $$$848B,7
  34807  000067E2  00000001 USING  ORDINARY    00000000 00001000 FFFFFFE2   6 000          FWENTRY,R6
  34855  00006814  00000001 USING  ORDINARY    00000000 00001000 FFFFFFF7   7 000          @R7,7
  34874  00006822  00000001 USING  ORDINARY    00000000 00001000 FFFFFFF8   6 000          @R6,6
  34965  0000684E  00000001 USING  ORDINARY    0000684E 00001000 00000001   7 382   35013  $$$852B,7
  34979  0000684E  00000001 USING  ORDINARY    FFFFFFD8 00001000 FFFFFFBE   8 028   34992  GTXSWA-(4+36),R8
  34990  0000684E  00000001 USING  ORDINARY    00000000 00001000 FFFFFFE2   6 018   35027  FWENTRY,R6
  35041  00006888  00000001 USING  ORDINARY    00000000 00001000 FFFFFFF6   8 000          @R8,8
  35046  00006888  00000001 USING  ORDINARY    00000000 00001000 FFFFFFF7   7 000          @R7,7
  35065  00006896  00000001 USING  ORDINARY    00000000 00001000 FFFFFFF8   6 000          @R6,6
  35136  000068B0  00000001 USING  ORDINARY    000068B0 00001000 00000001   7 324   35177  $$$856B,7
  35150  000068B0  00000001 USING  ORDINARY    FFFFFFD8 00001000 FFFFFFBD   8 028   35163  GTPSWA-(4+36),R8
  35161  000068B0  00000001 USING  ORDINARY    00000000 00001000 FFFFFFE2   6 018   35191  FWENTRY,R6
  35205  000068D8  00000001 USING  ORDINARY    00000000 00001000 FFFFFFF6   8 000          @R8,8
  35210  000068D8  00000001 USING  ORDINARY    00000000 00001000 FFFFFFF7   7 000          @R7,7
  35229  000068E6  00000001 USING  ORDINARY    00000000 00001000 FFFFFFF8   6 000          @R6,6
  35301  00006900  00000001 USING  ORDINARY    00006900 00001000 00000001   7 2D0   35336  $$$860B,7
  35315  00006900  00000001 USING  ORDINARY    FFFFFFD8 00001000 FFFFFFBC   8 000          GTXNWA-(4+36),R8
1FLOW     (FLOW2025) (12:45) (15MAR04) Using Map                                                                            Page  265
  35358  0000691C  00000001 USING  ORDINARY    00000000 00001000 FFFFFFF6   8 000          @R8,8
  35363  0000691C  00000001 USING  ORDINARY    00000000 00001000 FFFFFFF7   7 000          @R7,7
  35448  00006944  00000001 USING  ORDINARY    00006944 00001000 00000001   7 294   35504  $$$864B,7
  35462  00006944  00000001 USING  ORDINARY    FFFFFFD8 00001000 FFFFFFBB   8 028   35475  GTPNWA-(4+36),R8
  35473  00006944  00000001 USING  ORDINARY    00000000 00001000 FFFFFFE2   6 000   35493  FWENTRY,R6
  35526  00006978  00000001 USING  ORDINARY    00000000 00001000 FFFFFFF6   8 000          @R8,8
  35531  00006978  00000001 USING  ORDINARY    00000000 00001000 FFFFFFF7   7 000          @R7,7
  35550  00006986  00000001 USING  ORDINARY    00000000 00001000 FFFFFFF8   6 000          @R6,6
  35597  000069A0  00000001 USING  ORDINARY    000069A0 00001000 00000001   7 23C   35610  $$$868B,7
  35622  000069AC  00000001 USING  ORDINARY    00000000 00001000 FFFFFFF7   7 000          @R7,7
  35684  000069D4  00000001 USING  ORDINARY    000069D4 00001000 00000001   7 248   35801  $$$871B,7
  35814  00006A2A  00000001 USING  ORDINARY    00000000 00001000 FFFFFFF7   7 000          @R7,7
  35868  00006A52  00000001 USING  ORDINARY    00006A52 00001000 00000001   7 1D8   35910  $$$875B,7
  35921  00006A8C  00000001 USING  ORDINARY    00000000 00001000 FFFFFFF7   7 000          @R7,7
  35972  00006AB4  00000001 USING  ORDINARY    00006AB4 00001000 00000001   7 178   36015  $$$878B,7
  36026  00006ADE  00000001 USING  ORDINARY    00000000 00001000 FFFFFFF7   7 000          @R7,7
  36074  00006B06  00000001 USING  ORDINARY    00006B06 00001000 00000001   7 000          $$$881B,7
  36089  00006B06  00000001 USING  ORDINARY    00000000 00001000 FFFFFFF7   7 000          @R7,7
  36133  00006B2E  00000001 USING  ORDINARY    00006B2E 00001000 00000001   7 000          $$$884B,7
  36148  00006B2E  00000001 USING  ORDINARY    00000000 00001000 FFFFFFF7   7 000          @R7,7
  36192  00006B56  00000001 USING  ORDINARY    00006B56 00001000 00000001   7 000          $$$887B,7
  36207  00006B56  00000001 USING  ORDINARY    00000000 00001000 FFFFFFF7   7 000          @R7,7

