1ACT      (ACT2025) (12:40) (15MAR04) Ordinary Symbol and Literal Cross Reference                                           Page  259
                                                  8686M  8686B  8872M  8873M  8873B  8903M  8904M  8904B  8931M  8934B
                                                  8979   9062M  9063M  9063B  9070M  9071M  9071B  9109M  9110M  9110B
                                                  9134M  9135M  9135B  9158M  9159M  9159B  9288M  9291B  9338   9429M
                                                  9430M  9430B  9446M  9447M  9447B  9490M  9491M  9491B  9617M  9620B
                                                  9667   9758M  9759M  9759B  9774M  9775M  9775B  9818M  9819M  9819B
                                                  9945M  9948B  9995  10086M 10087M 10087B 10100M 10101M 10101B 10144M
                                                 10145M 10145B 10273M 10276B 10323  10437M 10438M 10438B 10451M 10452M
                                                 10452B 10495M 10496M 10496B 10625M 10628B 10675  10732M 10733M 10733B
                                                 10870M 10871M 10871B 10913M 10914M 10914B 10974M 10975M 10975B 11017M
                                                 11018M 11018B 11049M 11050M 11050B 11057M 11058M 11058B 11064M 11065M
                                                 11065B 11088M 11089M 11089B 11095M 11096M 11096B 11143M 11146B 11168
                                                 11240M 11243B 11296  11442M 11443M 11443B 11477M 11478M 11478B 11535M
                                                 11536M 11536B 11597M 11600B 11626  11712M 11713M 11713B 11725M 11726M
                                                 11726B 11735M 11736M 11736B 11759M 11762B 11786  11872M 11873M 11873B
                                                 11884M 11885M 11885B 11893M 11894M 11894B 11920M 11923B 11967  12023M
                                                 12024M 12024B 12053M 12054M 12054B 12080M 12083B 12127  12184M 12185M
                                                 12185B 12221M 12222M 12222B 12229M 12230M 12230B 12257M 12260B 12303
                                                 12375M 12376M 12376B 12397M 12398M 12398B 12452M 12455B 12485  12522M
                                                 12523M 12523B 12544M 12545M 12545B 12583M 12584M 12584B 12612M 12615B
                                                 12695  12742M 12743M 12743B 12862M 12863M 12863B 13115M 13118B 13143
                                                 13255M 13256M 13256B 13281M 13282M 13282B 13311M 13312M 13312B 13340M
                                                 13341M 13341B 13387M 13388M 13388B 13437M 13438M 13438B 13456M 13457M
                                                 13457B 13572M 13573M 13573B 13591M 13592M 13592B 13626M 13627M 13627B
                                                 13653M 13654M 13654B 13694M 13695M 13695B 13722M 13723M 13723B 13754M
                                                 13755M 13755B 13779M 13780M 13780B 13797M 13798M 13798B 13833M 13834M
                                                 13834B 13855M 13856M 13856B 13873M 13874M 13874B 13908M 13909M 13909B
                                                 13951M 13952M 13952B 13973M 13974M 13974B 13991M 13992M 13992B 14031M
                                                 14032M 14032B 14059M 14060M 14060B 14077M 14078M 14078B 14116M 14117M
                                                 14117B 14154M 14155M 14155B 14192M 14193M 14193B 14222M 14223M 14223B
                                                 14245M 14248B 14293  14372M 14373M 14373B 14395M 14396M 14396B 14424M
                                                 14425M 14425B 14500M 14501M 14501B 14538M 14539M 14539B 14550M 14551M
                                                 14551B 14748M 14749M 14749B 14768M 14769M 14769B 14831M 14832M 14832B
                                                 14859M 14862B 14885  14931M 14934B 14973  15068M 15069M 15069B 15109M
                                                 15110M 15110B 15143M 15144M 15144B 15165M 15166M 15166B 15185M 15186M
                                                 15186B 15219M 15220M 15220B 15276M 15277M 15277B 15309M 15310M 15310B
                                                 15323M 15324M 15324B 15338M 15339M 15339B 15362M 15365B 15382  15453M
                                                 15454M 15454B 15471M 15472M 15472B 15682M 15683M 15683B 15704M 15705M
                                                 15705B 15724M 15725M 15725B 15747M 15750B 15895  16153M 16154M 16154B
                                                 16175M 16176M 16176B 16205M 16206M 16206B 16233M 16234M 16234B 16251M
                                                 16252M 16252B 16273M 16274M 16274B 16328M 16329M 16329B 16354M 16355M
                                                 16355B 16398M 16399M 16399B 16412M 16413M 16413B 16560M 16561M 16561B
                                                 16576M 16577M 16577B 16596M 16597M 16597B 16618M 16619M 16619B 16659M
                                                 16660M 16660B 16695M 16698B 16878  16923M 16924M 16924B 16942M 16945B
                                                 16957  17014M 17017B 17029  17086M 17089B 17101  17147M 17150B 17292
                                                 17384M 17387B 17447  17496M 17497M 17497B 17618M 17621B 17672  17703M
                                                 17704M 17704B 17723M 17726B 17754  17789M 17790M 17790B 17809M 17812B
                                                 17831  17896M 17897M 17897B 17911M 17912M 17912B 18084M 18085M 18085B
                                                 18116M 18119B 18175  18206M 18207M 18207B 18224M 18227B 18250  18282M
                                                 18283M 18283B 18300M 18303B 18322  18404M 18405M 18405B 18428M 18429M
                                                 18429B 18633M 18634M 18634B 18673M 18674M 18674B 18696M 18697M 18697B
                                                 18726M 18727M 18727B 18766M 18767M 18767B 18930M 18931M 18931B 18964M
                                                 18967B 19109  19216M 19217M 19217B 19372M 19373M 19373B 19740M 19741M
                                                 19741B 19796M 19797M 19797B 19834M 19837B 19914  20083M 20084M 20084B
                                                 20299M 20300M 20300B 20754M 20755M 20755B 20872M 20875B 20901  20950M
                                                 20951M 20951B 21008M 21011B 21108  21171M 21172M 21172B 21235M 21236M
                                                 21236B 21305M 21306M 21306B 21357M 21358M 21358B 21434M 21435M 21435B
                                                 21487M 21488M 21488B 21609M 21610M 21610B 21638M 21641B 21707  21801M
                                                 21802M 21802B 21820M 21821M 21821B 21908M 21909M 21909B 21947M 21948M
                                                 21948B 22263M 22266B 22360  22453M 22454M 22454B 22565M 22566M 22566B
1ACT      (ACT2025) (12:40) (15MAR04) Ordinary Symbol and Literal Cross Reference                                           Page  260
                                                 22874M 22875M 22875B 22881M 22882M 22882B 23224M 23227B 23274  23324M
                                                 23325M 23325B 23349M 23352B 23448  23562M 23563M 23563B 23768M 23769M
                                                 23769B 23810M 23811M 23811B 24168M 24171B 24240  24298M 24299M 24299B
                                                 24308M 24309M 24309B 24521M 24522M 24522B 24635M 24636M 24636B 24744M
                                                 24745M 24745B 24826M 24827M 24827B 24932M 24933M 24933B 24991M 24994B
                                                 25061  25132M 25133M 25133B 25229M 25230M 25230B 25252M 25253M 25253B
                                                 25342M 25343M 25343B 25373M 25374M 25374B 25430M 25433B 25467  25499M
                                                 25500M 25500B 25547M 25548M 25548B 25578M 25579M 25579B 25629M 25632B
                                                 25708  25745M 25746M 25746B 25802M 25805B 25836  25875M 25876M 25876B
                                                 25932M 25935B 25966  26015M 26016M 26016B 26044M 26045M 26045B 26064M
                                                 26065M 26065B 26146M 26147M 26147B 26193M 26196B 26227  26264M 26265M
                                                 26265B 26321M 26324B 26355  26388M 26389M 26389B 26403M 26404M 26404B
                                                 26428M 26431B 26503  26551M 26552M 26552B 26575M 26578B 26608  26656M
                                                 26657M 26657B 26698M 26701B 26731  26779M 26780M 26780B 26821M 26824B
                                                 26854  26902M 26903M 26903B 26944M 26947B 26977  27025M 27026M 27026B
                                                 27067M 27070B 27098  27147M 27148M 27148B 27176M 27177M 27177B 27209M
                                                 27210M 27210B 27238M 27239M 27239B 27262M 27263M 27263B 27291M 27292M
                                                 27292B 27307M 27308M 27308B 27356M 27359B 27389  27470M 27471M 27471B
                                                 27497M 27498M 27498B 27526M 27527M 27527B 27546M 27547M 27547B 27567M
                                                 27568M 27568B 27615M 27618B 27647  27698M 27699M 27699B 27727M 27728M
                                                 27728B 27744M 27745M 27745B 27774M 27775M 27775B 27813M 27814M 27814B
                                                 27829M 27830M 27830B 27850M 27851M 27851B 27898M 27901B 27931  28012M
                                                 28013M 28013B 28039M 28040M 28040B 28068M 28069M 28069B 28089M 28090M
                                                 28090B 28110M 28111M 28111B 28158M 28161B 28191  28272M 28273M 28273B
                                                 28299M 28300M 28300B 28328M 28329M 28329B 28349M 28350M 28350B 28370M
                                                 28371M 28371B 28418M 28421B 28503  28546M 28547M 28547B 28605M 28606M
                                                 28606B 28629M 28632B 28650  28749M 28750M 28750B 28754M 28755M 28755B
                                                 28778M 28779M 28779B 28796M 28797M 28797B 28876M 28877M 28877B 28898M
                                                 28901B 28930  29139M 29142B 29167  29269M 29272B 29296  29327M 29328M
                                                 29328B 29335M 29336M 29336B 29358M 29361B 29392  29508M 29509M 29509B
                                                 29513M 29514M 29514B 29537M 29538M 29538B 29686M 29689B 29711  29794M
                                                 29795M 29795B 29812M 29813M 29813B 29817M 29818M 29818B 29857M 29858M
                                                 29858B 29875M 29876M 29876B 29919M 29920M 29920B 29937M 29938M 29938B
                                                 29958M 29959M 29959B 29991M 29992M 29992B 30032M 30035B 30212  30362M
                                                 30363M 30363B 30366M 30367M 30367B 30371M 30372M 30372B 30409M 30410M
                                                 30410B 30443M 30444M 30444B 30457M 30458M 30458B 30589M 30592B 30805
                                                 30911M 30914B 30926  31090M 31093B 31106  31166M 31169B 31347  31399M
                                                 31402B 31414  31465M 31466M 31466B 31490M 31493B 31505  31754M 31757B
                                                 31769  31829M 31832B 31844  31893M 31894M 31894B 31987M 31990B 32009
                                                 32111M 32114B 32126  32189M 32190M 32190B 32240M 32241M 32241B 32317M
                                                 32320B 32347  32403M 32404M 32404B 32417M 32418M 32418B 32480M 32481M
                                                 32481B 32632M 32633M 32633B 32646M 32647M 32647B 32708M 32711B 32815
                                                 32867M 32870B 32882  32931M 32934B 32946  32977M 32978M 32978B 32995M
                                                 32998B 33010  33062M 33065B 33077  33127M 33128M 33128B 33155M 33156M
                                                 33156B 33180M 33183B 33195  33226M 33227M 33227B 33244M 33247B 33959
                                                 34011M 34014B 34026  34071M 34072M 34072B 34075M 34076M 34076B 34093M
                                                 34096B 34108  34210M 34213B 34234  34342M 34345B 34357  34465M 34468B
                                                 34480  34554M 34557B 34569  34643M 34646B 34658  34732M 34735B 34747
                                                 34827M 34830B 34842  34916M 34919B 34931  35011M 35014B 35026  35100M
                                                 35103B 35115  35195M 35198B 35222  35394M 35395M 35395B 35465M 35466M
                                                 35466B 35481M 35482M 35482B 35561M 35562M 35562B 35596M 35597M 35597B
                                                 35632M 35633M 35633B 35665M 35666M 35666B 35681M 35682M 35682B 35769M
                                                 35772B 35784  35874M 35875M 35875B 35896M 35897M 35897B 35935M 35938B
                                                 35950  35995M 35996M 35996B 36140M 36143B 36172  36306M 36307M 36307B
                                                 36363M 36364M 36364B 36377M 36378M 36378B 36418M 36421B 36433  36578M
                                                 36581B 36593  36683M 36686B 36874M 36875M 36875B 36878M 36879M 36879B
                                                 36883M 36884M 36884B 36923M 36924M 36924B 36975M 36976M 36976B 37260M
                                                 37261M 37261B 37419M 37420M 37420B 37514M 37515M 37515B 37556M 37557M
                                                 37557B 37619M 37620M 37620B 37645M 37646M 37646B 37681M 37682M 37682B
1ACT      (ACT2025) (12:40) (15MAR04) Ordinary Symbol and Literal Cross Reference                                           Page  261
                                                 37842M 37843M 37843B 37865M 37866M 37866B 37888M 37889M 37889B 37921M
                                                 37922M 37922B 37955M 37956M 37956B 37977M 37978M 37978B 38003M 38004M
                                                 38004B 38053M 38054M 38054B 38124M 38125M 38125B 38206M 38207M 38207B
                                                 38241M 38242M 38242B 38274M 38275M 38275B 38287M 38288M 38288B 38308M
                                                 38309M 38309B 38456  38493M 38494M 38494B 38497M 38498M 38498B 38565M
                                                 38568B 38588  38637M 38638M 38638B 38666M 38669B 38686  38740M 38741M
                                                 38741B 38763M 38764M 38764B 38800M 38801M 38801B 38818M 38819M 38819B
                                                 38848M 38851B 38967  39014M 39015M 39015B 39150M 39151M 39151B 39275M
                                                 39276M 39276B 39321M 39322M 39322B 39367M 39368M 39368B 39445M 39446M
                                                 39446B 39470M 39471M 39471B 39496M 39497M 39497B 39556M 39557M 39557B
                                                 39564M 39565M 39565B 39699M 39700M 39700B 39789M 39790M 39790B 39884M
                                                 39885M 39885B 39940M 39943B 39961  40031M 40032M 40032B 40055M 40056M
                                                 40056B 40097M 40098M 40098B 40123M 40124M 40124B 40146M 40147M 40147B
                                                 40311M 40314B 40327  40390M 40393B 40404  40467M 40470B 40481  40544M
                                                 40547B 40558  40621M 40624B 40687  40726M 40727M 40727B 40751M 40754B
                                                 40843  41126M 41127M 41127B 41177M 41178M 41178B 41235M 41236M 41236B
                                                 41273M 41274M 41274B 41376M 41377M 41377B 41437M 41438M 41438B 41641M
                                                 41642M 41642B 41685M 41686M 41686B 42194M 42195M 42195B 42487M 42488M
                                                 42488B 42491M 42492M 42492B 42509M 42510M 42510B 42585M 42586M 42586B
                                                 42619M 42620M 42620B 42663M 42666B 42723  42938M 42941B 43001  43224M
                                                 43225M 43225B 43501M 43502M 43502B 43902M 43905B 43951  44144M 44147B
                                                 44172  44264M 44265M 44265B 44287M 44288M 44288B 44292M 44293M 44293B
                                                 44316M 44317M 44317B 44334M 44337B 44353  44385M 44386M 44386B 44409M
                                                 44410M 44410B 44445M 44446M 44446B 44466M 44467M 44467B 44484M 44485M
                                                 44485B 44538M 44539M 44539B 44543M 44544M 44544B 44567M 44568M 44568B
                                                 44624M 44625M 44625B 44633M 44634M 44634B 44657M 44658M 44658B 44712M
                                                 44713M 44713B 44717M 44718M 44718B 44741M 44742M 44742B 44782M 44783M
                                                 44783B 44804M 44805M 44805B 44822M 44823M 44823B 44854M 44857B 44987
                                                 45052M 45053M 45053B 45061M 45062M 45062B 45085M 45086M 45086B 45155M
                                                 45156M 45156B 45184M 45187B 45236  45302M 45303M 45303B 45311M 45312M
                                                 45312B 45382M 45383M 45383B 45411M 45414B 45529  46464M 46465M 46465B
                                                 46633M 46634M 46634B 46677M 46678M 46678B 46751M 46752M 46752B 47014M
                                                 47015M 47015B 47036M 47037M 47037B 47391M 47394B 47448  47641M 47644B
                                                 47667  47787M 47790B 47870  48080M 48083B
 RDRNG         2 000075B6 00000001     H   40836 40832
 RDRNG         1 00000000 00000052     T   44891 44891
 REPLDONE      2 00003FDE 00000001     H   28141 28015B 28071B
 REPLINE       2 00003F40 00000001     H   27925 27921
 RESTORS       6 000066FE 00000001     I   37215 38254B 38426
 RETFMEM       1 00000000 00000021     T   17169 17169
 RETFNAME      1 00000000 00000024     T   17176 17176
 RGCHECK       1 00000000 0000000C     T    7869  7869
 RGHTWUN       2 00006B08 00000001     H   38234 38225B
 RNGABORT      2 00007E72 00000001     H   44166 44162  44897
 RNGPRT2       1 00006B9C 00000001     R   38342 37743
 RNGPRT3       1 00006BA9 00000001     R   38348 37756
 RNGPRT5       1 00006BB2 00000001     R   38351 37803  38345
 RNGPRT5A      1 00006BE1 00000001     R   38372 37273
 RNGPRT6       1 00006BC9 00000001     R   38360 37894
 RRACT       128 00000001 FFFFFFC3        40802 40988M 41116  42068
 RREXEC       64 00000001 FFFFFFC3        40807 40966M 41048  41167  42088  42524
 RRFLAGS       1 00000000 FFFFFFC3     R   40794 40902M 40916  40954  41365  41426  41451  42621
 RRFROM       32 00000001 FFFFFFC3        40812 40928M 41030  41223  42150  42319  42548
 RRFSLN        4 00000008 FFFFFFC3     F   40816 40993M 41440  42252
 RRLINE      512 00000014 FFFFFFC3     X   40818 41123  41173  41229M 41230  41268M 41269  41997  42003  42119
 RRLINELN      4 00000010 FFFFFFC3     F   40817 41129M 41180M 41297M 41998  42120
 RRLINE2     512 00000214 FFFFFFC3     X   40819 41555M 41568M 41584
 RRRTNAD       4 00000004 FFFFFFC3     A   40815 40903M 42123
 RRSELECT      1 00000001 FFFFFFC3     R   40798 40802  40807  40812
1ACT      (ACT2025) (12:40) (15MAR04) Ordinary Symbol and Literal Cross Reference                                           Page  262
 RRWA       1044 00000000 FFFFFFC3     J   40826 40849  40881U 40891M 40891  40892M 40892  40893M 40893  40894M 40894
                                                 40895M 40895  42661  42663  42664
 RTRIM         1 00000000 00000019     T   12661 12661
 R0            0 00000000 FFFFFFFF A   #     699  2126   2195M  6904   6913M  6938M  6938   6957M  6973M  6973   6988M
                                                  6988   7006M  7025M  7047M  7047   7072M  7072   7091M  7113M  7113
                                                  7138M  7138   7157M  7179M  7179   7204M  7204   7223M  7245M  7245
                                                  7263M  7285M  7285   7303M  7328M  7328   7353M  7353   7372M  7394M
                                                  7394   7419M  7419   7438M  7460M  7460   7485M  7485   7510M  7510
                                                  7529M  7554M  7579M  7579   7604M  7604   7639M  7649M  7688M  7688
                                                  7706M  7730M  7764M  7789M  7807M  7948M  7957M  8045M  8067M  8067
                                                  8077M  8195M  8252M  8273M  8278M  8285M  8351M  8371   8396M  8416
                                                  8458M  8478   8503M  8523   8682M  8703M  9034   9059M  9105M  9130M
                                                  9154M  9426M  9442M  9471   9486M  9507   9755M  9770M  9799   9814M
                                                  9835  10083M 10096M 10125  10140M 10161  10434M 10447M 10476  10491M
                                                 10512  10729M 10866M 10887  10909M 10930  10970M 10991  11013M 11034
                                                 11053M 11060M 11079M 11438M 11458  11473M 11494  11552  11676  11705
                                                 11706  11706  11706  11708M 11721M 11731M 11836  11865  11866  11866
                                                 11866  11868M 11881M 11889M 12020M 12050M 12180M 12201M 12201  12371M
                                                 12515  12539M 12573M 12591M 12671  12671  12671  12859M 12864  13206M
                                                 13228M 13270M 13300M 13329M 13376M 13426M 13453M 13471  13545M 13588M
                                                 13601M 13601  13608  13609  13609  13609  13615M 13630M 13683M 13711M
                                                 13743M 13768M 13786M 13822M 13844M 13844  13862M 13897M 13940M 13962M
                                                 13962  13980M 14020M 14048M 14066M 14105M 14143M 14181M 14211M 14211
                                                 14368M 14388  14420M 14541M 14555  14556M 14557  14764M 14827M 15044M
                                                 15098M 15132M 15154M 15216M 15236  15273M 15306M 15333M 15333  15677M
                                                 15677  16142M 16164M 16164  16194M 16222M 16240M 16262M 16262  16278M
                                                 16301M 16347M 16372  16383M 16383  16392  16393  16654M 16654  16912M
                                                 17214  17214  17214  17334  17346M 17354  17362  17362M 17706  17706M
                                                 17792  17792M 17892M 17981  17993M 17998  18057M 18057  18080M 18094
                                                 18094M 18399M 18401M 18435M 18462M 18477M 18477  18487M 18487  18494
                                                 18506M 18515  18526M 18526  18554M 18560  18643  18645  18650  18703M
                                                 18722M 18773M 18799M 18799  18817  18820  18927M 19171  19218  19278M
                                                 19287  19423M 19441M 19450M 19737M 19793M 20001  20043M 20044M 20045M
                                                 20078M 20079M 20079  20085  20296M 20751M 21147  21160  21274  21278
                                                 21322  21348M 21374  21451  21504  21606M 21754  21814  21816M 21905M
                                                 21944M 22238M 22241  22241M 22407  22478M 22478  22485  22548M 22558
                                                 22581  22615M 22615  22637M 22661  22662  22765M 22766M 22779  22877M
                                                 22878  23202  23202M 23313  23316M 23327  23327M 23496  23522M 23537M
                                                 23537  23546  23764M 23803M 23813  24002  24002  24011  24043  24069M
                                                 24092M 24115M 24138M 24143  24287  24294M 24301M 24302M 24335  24343M
                                                 24362M 24385M 24408M 24447M 24452  24497M 24538  24567  24587  24596
                                                 24608M 24609M 24652  24681  24717M 24718M 24761  24790  24802M 24843
                                                 24872  24892  24901  24919M 24920M 24952  24962M 24965  24965M 25107
                                                 25128M 25149  25248M 25291  25327  25327M 25359  25390  25532  25532M
                                                 25564  25595  25785  25785M 25915  25915M 26176  26176M 26304  26304M
                                                 26411  26411M 26543  26648  26669M 26671  26671M 26771  26792M 26794
                                                 26794M 26894  26915M 26917  26917M 27017  27038M 27040  27040M 27165M
                                                 27178M 27227M 27240M 27280M 27293M 27339  27339M 27420  27459M 27515M
                                                 27542M 27678  27716M 27802M 27821  27825M 27962  28001M 28057M 28084M
                                                 28222  28261M 28317M 28344M 28549  28602M 28738M 28751M 28785M 28801M
                                                 28823M 28849M 28979M 29022M 29023M 29024  29044  29055  29076M 29078
                                                 29078M 29113M 29115  29115M 29200M 29250M 29252  29252M 29341  29341M
                                                 29423  29439M 29439  29462M 29470  29497M 29510M 29666M 29668  29668M
                                                 29783M 29783  29801M 29814M 29846M 29846  29864M 29908M 29908  29926M
                                                 29947M 29947  29963M 30368  30373  30428M 30428  30437  30438  30481M
                                                 30507M 30887M 31008M 31381M 31472M 31646M 31683M 31698  31715  31889
                                                 31890  31917M 31917  31923M 31928  32225M 32232  32280M 32287  32376
                                                 32389M 32389  32398  32399  32400  32433  32465M 32465  32474  32475
                                                 32491M 32512M 32518M 32565  32588M 32590M 32606  32617M 32617  32626
1ACT      (ACT2025) (12:40) (15MAR04) Ordinary Symbol and Literal Cross Reference                                           Page  263
                                                 32627  32654M 32655M 32684M 32691  32691M 32849M 32911  33044M 33106
                                                 33113M 33113  33122  33123  33124  33146M 33146  33993M 34060M 34284M
                                                 34407M 35271M 35368  35369  35369  35369  35370  35371M 35387M 35409M
                                                 35487  35640M 35692  35729M 35730  35824M 35824  35838  35849M 35855M
                                                 35856  35858  35980M 36017M 36032M 36066M 36067M 36082M 36105  36291M
                                                 36328  36348M 36348  36357  36358  36485M 36493  36494  36513  36530M
                                                 36626  36643M 36649  36730  36730  36730  36880  36885  36964M 36981M
                                                 37003M 37029M 37055M 37081M 37107M 37133M 37159M 37185M 37264M 37267M
                                                 37274  37277  37285M 37392  37393  37393  37393  37394  37395M 37412M
                                                 37480M 37559  37689M 37699  37736M 37737  37817M 37825M 37928M 37938
                                                 37967  37979M 37980M 38011M 38060M 38098M 38105  38179  38195M 38246
                                                 38249  38257M 38489M 38511M 38517  38517M 38530M 38530  38537  38732
                                                 38732  38752M 38789M 38807M 38894  38894  38894  39033M 39047M 39047
                                                 39073M 39073  39120  39166M 39166  39244  39282M 39377M 39417M 39417
                                                 39427M 39436M 39436  39531M 39531  39803M 39840M 39840  39863M 39902M
                                                 39903M 39906M 39909M 39911  39911M 40013M 40022M 40022  40137M 40137
                                                 40284M 40287  40287M 40365M 40442M 40519M 40596M 40719M 40720M 40902
                                                 41129  41180  41231M 41270M 41297  41322M 41543  41599  41998M 42120M
                                                 42172M 42191M 42197  42207  42294M 42370M 42406M 42456M 42498M 42514M
                                                 42514  42534M 42558M 42590M 43047  43056  43149M 43185M 43185  43374M
                                                 43392M 43466M 43679M 43738M 43738  43751M 43774M 43858M 44037  44060
                                                 44092M 44095M 44122  44122M 44253M 44253  44276M 44289M 44382M 44434M
                                                 44455M 44455  44473M 44527M 44540M 44613M 44630M 44701M 44714M 44771M
                                                 44793M 44793  44811M 45049M 45082M 45299M 46285M 46379M 46423M 46423
                                                 46614M 46637M 46716M 46929M 46992M 46992  47005M 47040M 47369  47369M
                                                 47534  47557  47589M 47592M 47619  47619M 47913  47925M 47936  47943M
                                                 47987  47993  48025  48027  48029  48032  48056M 48058  48058M
 R1            1 00000001 FFFFFFFF A   #     712  2189M  2190M  2196M  6912M  6956M  6984M  7005M  7024M  7043M  7090M
                                                  7109M  7156M  7175M  7222M  7241M  7262M  7281M  7302M  7371M  7390M
                                                  7437M  7456M  7528M  7547M  7638M  7648M  7707M  7729M  7763M  7782M
                                                  7806M  7949M  8069M  8069   8247M  8270M  8272   8346M  8391M  8453M
                                                  8498M  8677M  8702M  9054M  9149M  9393M  9393   9421M  9481M  9722M
                                                  9722   9750M  9809M 10050M 10050  10078M 10135M 10378M 10378  10429M
                                                 10486M 10724M 10861M 10904M 10965M 11008M 11051  11080M 11097M 11110
                                                 11468M 11675  11705  11706  11706  11706  11721M 11835  11865  11866
                                                 11866  11866  11881M 12015M 12045M 12175M 12203M 12203  12366M 12514
                                                 12534M 12572M 12590M 12671  12671  12671  12854M 12944M 12945  12963
                                                 13172  13199M 13227M 13263M 13293M 13324M 13371M 13425M 13448M 13544M
                                                 13583M 13608  13609  13609  13609  13614M 13630M 13682M 13706M 13761M
                                                 13785M 13821M 13840M 13861M 13896M 13939M 13958M 13979M 14019M 14043M
                                                 14065M 14104M 14142M 14180M 14415M 14542M 14759M 15043M 15097M 15131M
                                                 15153M 15181M 15211M 15268M 15305M 15335M 15335  15449M 15679M 15679
                                                 16141M 16160M 16187M 16217M 16239M 16258M 16277M 16300M 16346M 16371
                                                 16379M 16392  16393  16395  16556M 16656M 16656  16911M 17214  17214
                                                 17214  17353  17706  17792  17871  17891  17899M 17978  18079  18086M
                                                 18398M 18434M 18461M 18514  18644  18649M 18650  18702M 18722M 18772M
                                                 19170  19274M 19346M 19424M 19433M 19433  19440  19447M 19449  19514M
                                                 19538  19733M 19789M 20000  20073M 20291M 20746M 21147  21160  21349M
                                                 21606M 21798M 21823  21826M 21827M 21901M 21939M 22239M 22241  22421
                                                 22435  22442M 22447  22450M 22484  22562M 22635M 22756M 22867M 22878M
                                                 23200M 23202  23313  23317M 23521M 23564M 23576M 23581  23592M 23595M
                                                 23596  23597M 23609  23625M 23628  23640M 23645  23651  23652  23657M
                                                 23666M 23666  23675M 23675  23690M 23690  23711M 23716  23717M 23718M
                                                 23730  23736M 23741  23765M 23770M 23771M 23774M 23783  23804M 23812
                                                 23813M 23822M 23823M 23835  23841M 23846  23865M 23866M 23875M 23875
                                                 23884M 23884  23899M 23899  23920M 23925  23932M 23954M 23954  23968
                                                 23974M 23984  24034  24062  24085  24108  24131  24143M 24146  24146M
                                                 24288  24295M 24303M 24305M 24313M 24326  24343  24355  24378  24401
                                                 24426  24462M 24463  24472M 24473  24474M 24475M 24476  24498M 24610M
1ACT      (ACT2025) (12:40) (15MAR04) Ordinary Symbol and Literal Cross Reference                                           Page  264
                                                 24612M 24719M 24721M 24803M 24926M 24927  24928M 24929M 24963M 24965
                                                 25129M 25208M 25231  25232  26542  26546M 26647  26651M 26770  26774M
                                                 26893  26897M 27016  27020M 27128  27164M 27226M 27279M 27302  27303
                                                 27303  27303  27328M 27419  27458M 27514M 27543M 27677  27715M 27801M
                                                 27826M 27961  28000M 28056M 28085M 28221  28260M 28316M 28345M 28443
                                                 28443  28443  28542  28543M 28549  28602M 28737M 28784M 28800M 28822M
                                                 28848M 28978M 28993M 28994  29015  29065M 29065  29072M 29074M 29075
                                                 29076  29085M 29085  29104  29112M 29115  29199M 29200  29218M 29242M
                                                 29250  29331  29332  29332  29332  29339M 29341  29424  29469  29496M
                                                 29661M 29668  29779M 29800M 29842M 29863M 29904M 29925M 29943M 29962M
                                                 30424M 30437  30438  30440  30480M 30506M 30886M 31007M 31205  31205
                                                 31205  31380M 31471M 31647M 31682M 31698  31716  32224M 32279M 32385M
                                                 32398  32399  32400  32461M 32474  32475  32477  32511M 32586M 32605
                                                 32613M 32626  32627  32629  32848M 33043M 33109M 33122  33123  33124
                                                 33992M 34059M 34283M 34406M 35270M 35368  35369  35369  35369  35397
                                                 35405  35409M 35639M 35848M 36031M 36081M 36312M 36327  36344M 36357
                                                 36358  36360  36484M 36529M 36642M 36730  36730  36730  36913M 36963M
                                                 36980M 37002M 37028M 37054M 37080M 37106M 37132M 37158M 37184M 37257M
                                                 37284M 37392  37393  37393  37393  37434  37465  37470  37480M 37688M
                                                 37816M 37827M 37862M 37885M 37894M 37918M 37927M 37952M 37970M 37971
                                                 37980  38010M 38061M 38097M 38106  38121M 38194M 38211M 38259M 38284M
                                                 38305M 38305  38488M 38489  38490M 38517  38751M 38788M 38806M 38894
                                                 38894  38894  39032M 39281M 39281  39375M 39425M 39801M 39861M 39901M
                                                 39903  39911  40011M 40283M 40287  40364M 40441M 40518M 40595M 40721M
                                                 40722M 40723M 40903  41067M 41068M 41069  41089M 41091M 41092  41123M
                                                 41173M 41230M 41269M 41321M 41556M 41584M 41997M 42003M 42119M 42121
                                                 42190M 42200M 42201M 42204  42228M 42232M 42233M 42233  42293M 42369M
                                                 42497M 42533M 42557M 42589M 42782M 42828M 42846  42895M 42896  43048
                                                 43117M 43147M 43369M 43390M 43390  43464M 43497  43498M 43503  43504M
                                                 43522M 43674M 43746M 43772M 43772  44062  44090  44122  44275M 44433M
                                                 44451M 44472M 44526M 44612M 44700M 44770M 44789M 44810M 45034M 45043M
                                                 45043  45054  45284M 45293M 45293  45304  45587  45998M 46049M 46070M
                                                 46143  46197M 46238  46257M 46263  46265M 46284M 46347M 46377M 46609M
                                                 46635M 46635  46714M 46747  46748M 46753  46754M 46772M 46924M 47016M
                                                 47038M 47038  47130  47369  47559  47587  47619  47706M 47765M 47766
                                                 47909  47942M 47942  47965M 47966  47967  47968  47986M 47990M 47991
                                                 47992  47993  47995  47999M 48001  48017  48029M 48038M 48058
 R12          12 0000000C FFFFFFFF A   #     855  2152
 R13          13 0000000D FFFFFFFF A   #     868 16338  16387  16388  16389  16405  16406  16407  30432  30433  30434
                                                 30450  30451  30452  32380  32393  32394  32395  32410  32411  32412
                                                 32469  32470  32471  32487  32488  32489  32581  32621  32622  32623
                                                 32639  32640  32641  33117  33118  33119  33134  33135  33136  36288
                                                 36352  36353  36354  36370  36371  36372  47935M 48016M 48016  48024M
                                                 48034M
 R14          14 0000000E FFFFFFFF A   #     881  2127M  8372M  8417M  8479M  8524M  9035M  9508M  9836M 10162M 10513M
                                                 10888M 10931M 10992M 11035M 11495M 11553M 15237M 16337M 16338  16370M
                                                 16371  16372  16376M 16376  16386M 16387  16388  16389  16394M 16395
                                                 16402M 16405  16406  16407  16440M 16443  20031M 20036M 20044  20045M
                                                 21323M 21375M 21452M 21505M 23547M 24012M 24044M 24336M 24539M 24568M
                                                 24597M 24653M 24682M 24762M 24791M 24844M 24873M 24902M 24953M 25150M
                                                 25292M 25360M 25391M 25565M 25596M 30431M 30432  30433  30434  30439M
                                                 30440  30447M 30450  30451  30452  31019M 31020  31035  31050  31051
                                                 31052  31052  31053  31054  31067  31071M 31071  31577M 31578  31593
                                                 31608  31609  31610  31610  31611  31612  31625  31629M 31629  31720M
                                                 31721  31725M 31725  31957M 31958  31962M 31962  32041M 32042  32057
                                                 32072  32073  32074  32074  32075  32076  32089  32093M 32093  32379M
                                                 32380  32392M 32393  32394  32395  32407M 32410  32411  32412  32468M
                                                 32469  32470  32471  32476M 32477  32484M 32487  32488  32489  32580M
                                                 32581  32604M 32605  32606  32610M 32610  32620M 32621  32622  32623
1ACT      (ACT2025) (12:40) (15MAR04) Ordinary Symbol and Literal Cross Reference                                           Page  265
                                                 32628M 32629  32636M 32639  32640  32641  32650M 32653  32680M 32683
                                                 33116M 33117  33118  33119  33131M 33134  33135  33136  34140M 34141
                                                 34156  34171  34172  34173  34173  34174  34175  34188  34192M 34192
                                                 34312M 34313  34317M 34317  34435M 34436  34440M 34440  34524M 34525
                                                 34529M 34529  34613M 34614  34618M 34618  34702M 34703  34707M 34707
                                                 34797M 34798  34802M 34802  34886M 34887  34891M 34891  34981M 34982
                                                 34986M 34986  35070M 35071  35075M 35075  35165M 35166  35170M 35170
                                                 35502M 35739M 35740  35744M 35744  35905M 35906  35910M 35910  36110M
                                                 36111  36115M 36115  36222M 36223  36238  36253  36254  36255  36255
                                                 36256  36257  36270  36274M 36274  36287M 36288  36326M 36327  36328
                                                 36332M 36332  36351M 36352  36353  36354  36359M 36360  36367M 36370
                                                 36371  36372  36381M 36384  36388M 36389  36393M 36393  36548M 36549
                                                 36553M 36553  36653M 36654  36658M 36658  36756  37428M 37463M 37464
                                                 37574M 40103M 40104M 40114  42026M 42033M 42036M 42123M 42126M 42126B
 R15          15 0000000F FFFFFFFF A   #     894  2126   6899M  6921M  6946M  6965M  6974M  6984   6996M  7014M  7033M
                                                  7055M  7080M  7099M  7121M  7146M  7165M  7187M  7212M  7231M  7253M
                                                  7271M  7293M  7311M  7336M  7361M  7380M  7402M  7427M  7446M  7468M
                                                  7493M  7518M  7537M  7562M  7587M  7612M  7657M  7671M  7696M  7704M
                                                  7738M  7758   7772M  7797M  7815M  7845M  7845   7942M  7951M  7958M
                                                  8036M  8037M  8038   8039   8046M  8078M  8102M  8102   8196M  8201
                                                  8203M  8213U  8286M  8297M  8325M  8326M  8326   8371   8382M  8416
                                                  8432M  8433M  8433   8478   8489M  8523   8564M  8564   8668M  8826M
                                                  8827M  8828   8847M  8848M  8849   8861M  8862M  8863   8869M  8933M
                                                  8933   9018   9034   9091M  9106M  9131M  9136   9155M  9187M  9188M
                                                  9189   9227M  9228M  9229   9249M  9250M  9251   9266M  9290M  9290
                                                  9406   9443M  9463M  9463   9487M  9507   9595M  9619M  9619   9735
                                                  9771M  9791M  9791   9815M  9835   9923M  9947M  9947  10063  10097M
                                                 10117M 10117  10141M 10161  10251M 10275M 10275  10391  10448M 10468M
                                                 10468  10492M 10512  10603M 10627M 10627  10714  10778M 10791M 10792M
                                                 10793  10795M 10796M 10797  10799M 10800M 10801  10867M 10887  10910M
                                                 10930  10971M 10991  11014M 11034  11054M 11061M 11085M 11145M 11145
                                                 11200M 11200  11219M 11242M 11242  11439M 11474M 11494  11532M 11552
                                                 11599M 11599  11669  11708  11709M 11714  11722M 11727  11732M 11742M
                                                 11761M 11761  11829  11868  11869M 11874  11890M 11903M 11903  11922M
                                                 11922  12082M 12082  12181M 12235M 12235  12259M 12259  12342  12357M
                                                 12394M 12430M 12430  12454M 12454  12519M 12541M 12561  12580M 12614M
                                                 12614  13117M 13117  13187  13252M 13278M 13308M 13337M 13384M 13434M
                                                 13569M 13623M 13650M 13691M 13719M 13751M 13776M 13794M 13830M 13852M
                                                 13870M 13905M 13948M 13970M 13988M 14028M 14056M 14074M 14113M 14151M
                                                 14189M 14219M 14247M 14247  14369M 14392M 14421M 14497M 14535M 14547M
                                                 14552  14553M 14554  14631M 14632M 14633  14687M 14688M 14689  14709M
                                                 14710M 14711  14745M 14765M 14804M 14805M 14806  14807  14828M 14837M
                                                 14837  14861M 14861  14914M 14933M 14933  15106M 15140M 15162M 15182M
                                                 15202  15236  15259M 15364M 15364  15450M 15477M 15502M 15502  15516
                                                 15622M 15623M 15624  15643M 15644M 15645  15653M 15654M 15655  15695M
                                                 15749M 15749  15980M 16005M 16005  16019  16150M 16172M 16202M 16230M
                                                 16248M 16270M 16325M 16351M 16351  16408M 16408  16425  16437M 16437
                                                 16514M 16515M 16516  16535M 16536M 16537  16545M 16546M 16547  16557M
                                                 16697M 16697  16920M 16925M 16944M 16944  16997M 17016M 17016  17069M
                                                 17088M 17088  17149M 17149  17386M 17386  17486  17487  17489  17490
                                                 17492M 17511M 17547M 17582M 17620M 17620  17725M 17725  17811M 17811
                                                 17872  17873  17891  17893M 17898  17899M 17907M 17926M 17962M 18022M
                                                 18047M 18047  18079  18081M 18086M 18118M 18118  18226M 18226  18302M
                                                 18302  18363  18374M 18374  18388  18425M 18514M 18515M 18517M 18553M
                                                 18602M 18603M 18604  18624M 18625M 18626  18693M 18723M 18750  18757M
                                                 18763M 18807M 18808M 18809  18812M 18813M 18814  18816M 18817M 18818
                                                 18819M 18820M 18821  18836M 18837M 18838  18842M 18843M 18844  18856
                                                 18918M 18919M 18920  18922M 18923M 18924  18941M 18941  18966M 18966
                                                 19156  19287M 19311M 19320M 19320  19327  19349  19369M 19393M 19394M
1ACT      (ACT2025) (12:40) (15MAR04) Ordinary Symbol and Literal Cross Reference                                           Page  266
                                                 19395  19414M 19414  19479M 19497  19509M 19514  19521M 19523  19564M
                                                 19565M 19566  19726M 19726  19782M 19806M 19806  19836M 19836  19968M
                                                 19968  20080M 20233M 20260M 20262  20282M 20320M 20321M 20322  20334M
                                                 20335M 20336  20356M 20357M 20358  20367M 20367  20374M 20542M 20569M
                                                 20571  20626M 20636  20655M 20655  20678M 20687M 20687  20694  20724M
                                                 20737M 20775M 20776M 20777  20789M 20790M 20791  20811M 20812M 20813
                                                 20822M 20822  20829M 20844M 20844  20874M 20874  20947M 20964M 20986M
                                                 21010M 21010  21168M 21206M 21214M 21248M 21266  21270  21273M 21274M
                                                 21275  21277M 21278M 21279  21302M 21322  21354M 21374  21431M 21451
                                                 21484M 21504  21571M 21572M 21573  21592M 21593M 21594  21615M 21615
                                                 21640M 21640  21797  21817M 21822  21823M 21824  21828M 21829M 21845M
                                                 21845  21850  21854M 21863M 21863  21870  21892M 21930M 21974M 21975M
                                                 21992  22004M 22009  22052M 22053M 22070  22082M 22087  22156M 22157M
                                                 22157  22169M 22172  22184M 22191  22203M 22208  22232M 22232  22265M
                                                 22265  22448  22484M 22485M 22487M 22560M 22561M 22602M 22602  22634M
                                                 22651M 22651  22660  22662M 22666M 22675M 22675  22682  22767M 22790M
                                                 22794M 22803M 22803  22810  22858M 22906M 22907M 22920M 22925M 22928
                                                 22940M 22947  22959M 22964  23007M 23008M 23021M 23026M 23029  23041M
                                                 23048  23060M 23065  23098M 23099M 23099  23111M 23124M 23129M 23132
                                                 23144M 23151  23163M 23172  23192M 23192  23226M 23226  23315M 23351M
                                                 23351  23497  23511  23546  23558M 23559M 23770  24011  24043  24144M
                                                 24170M 24170  24300  24310  24335  24538  24567  24596  24652  24681
                                                 24761  24790  24843  24872  24901  24943M 24943  24952  24969M 24969
                                                 24993M 24993  25149  25201M 25207  25221M 25249M 25266  25291  25320M
                                                 25320  25339M 25359  25370M 25390  25402M 25402  25432M 25432  25496M
                                                 25511M 25511  25525  25544M 25564  25575M 25595  25607M 25607  25631M
                                                 25631  25740M 25762M 25762  25778M 25804M 25804  25868M 25869M 25892M
                                                 25892  25908M 25934M 25934  26012M 26028M 26034  26060M 26081M 26081
                                                 26097M 26119M 26141  26143M 26167M 26195M 26195  26259M 26281M 26281
                                                 26297M 26323M 26323  26430M 26430  26577M 26577  26700M 26700  26823M
                                                 26823  26946M 26946  27069M 27069  27173M 27179M 27206M 27235M 27241M
                                                 27257  27288M 27294M 27302  27303  27303  27303  27304M 27328M 27358M
                                                 27358  27467M 27472M 27494M 27523M 27528M 27534  27541M 27564M 27595M
                                                 27595  27617M 27617  27695M 27724M 27729M 27735  27771M 27810M 27815M
                                                 27824M 27847M 27878M 27878  27900M 27900  28009M 28014M 28036M 28065M
                                                 28070M 28076  28083M 28107M 28138M 28138  28160M 28160  28269M 28274M
                                                 28296M 28325M 28330M 28336  28343M 28367M 28398M 28398  28420M 28420
                                                 28443  28443  28443  28542M 28548  28601M 28631M 28631  28688M 28689M
                                                 28689  28746M 28775M 28793M 28873M 28900M 28900  29003M 29003  29021M
                                                 29022  29025M 29026  29045  29070M 29071M 29072  29079M 29094M 29094
                                                 29116M 29117M 29117  29141M 29141  29241M 29243M 29249M 29271M 29271
                                                 29331  29332  29332  29332  29339M 29360M 29360  29421  29423M 29424M
                                                 29426M 29460M 29505M 29534M 29582M 29583M 29583  29596M 29610  29619M
                                                 29620M 29621  29669M 29688M 29688  29791M 29809M 29854M 29872M 29880M
                                                 29881M 29881  29894M 29904  29916M 29934M 29955M 29988M 30034M 30034
                                                 30453M 30453  30567M 30567  30591M 30591  30894M 30913M 30913  31020M
                                                 31029M 31029  31035M 31044M 31044  31050M 31051M 31053M 31054  31066M
                                                 31066  31067  31073M 31092M 31092  31149M 31168M 31168  31205  31205
                                                 31205  31401M 31401  31462M 31492M 31492  31578M 31587M 31587  31593M
                                                 31602M 31602  31608M 31609M 31611M 31612  31624M 31624  31625  31630M
                                                 31729M 31729  31733M 31733  31756M 31756  31812M 31831M 31831  31903M
                                                 31903  31966M 31966  31970M 31970  31989M 31989  32042M 32051M 32051
                                                 32057M 32066M 32066  32072M 32073M 32075M 32076  32088M 32088  32089
                                                 32094M 32113M 32113  32250M 32250  32300M 32300  32319M 32319  32413M
                                                 32413  32490M 32490  32522M 32522  32642M 32642  32659M 32659  32685M
                                                 32710M 32710  32869M 32869  32914M 32933M 32933  32997M 32997  33064M
                                                 33064  33137M 33137  33163M 33182M 33182  33246M 33246  34013M 34013
                                                 34068M 34095M 34095  34141M 34150M 34150  34156M 34165M 34165  34171M
                                                 34172M 34174M 34175  34187M 34187  34188  34193M 34212M 34212  34321M
1ACT      (ACT2025) (12:40) (15MAR04) Ordinary Symbol and Literal Cross Reference                                           Page  267
                                                 34321  34325M 34325  34344M 34344  34444M 34444  34448M 34448  34467M
                                                 34467  34533M 34533  34537M 34537  34556M 34556  34622M 34622  34626M
                                                 34626  34645M 34645  34711M 34711  34715M 34715  34734M 34734  34806M
                                                 34806  34810M 34810  34829M 34829  34895M 34895  34899M 34899  34918M
                                                 34918  34990M 34990  34994M 34994  35013M 35013  35079M 35079  35083M
                                                 35083  35102M 35102  35174M 35174  35178M 35178  35197M 35197  35462M
                                                 35487M 35505M 35507  35558M 35563  35593M 35629M 35662M 35692M 35748M
                                                 35748  35752M 35752  35771M 35771  35914M 35914  35918M 35918  35937M
                                                 35937  36119M 36119  36123M 36123  36142M 36142  36223M 36232M 36232
                                                 36238M 36247M 36247  36253M 36254M 36256M 36257  36269M 36269  36270
                                                 36275M 36373M 36373  36397M 36397  36401M 36401  36420M 36420  36557M
                                                 36557  36561M 36561  36580M 36580  36662M 36662  36666M 36666  36685M
                                                 36685  36972M 37289M 37293M 37297M 37304M 37304  37406  37493M 37493
                                                 37511M 37540  37553M 37559M 37577M 37579  37616M 37621  37642M 37678M
                                                 37699M 37747M 37748  37750  37759M 37777M 37794M 37795M 37801  37872
                                                 37875  37876  37897  37899  38000M 38203M 38299  38521M 38521  38537M
                                                 38567M 38567  38622M 38623M 38623  38668M 38668  38760M 38797M 38815M
                                                 38850M 38850  39009  39011M 39129M 39129  39253M 39345M 39387  39388
                                                 39579  39633  39645  39671  39724  39738  39745M 39748M 39750  39765M
                                                 39770  39900M 39942M 39942  40037M 40065M 40065  40072M 40088  40104
                                                 40313M 40313  40392M 40392  40469M 40469  40546M 40546  40623M 40623
                                                 40719  40721  40753M 40753  41122M 41250M 41250  41288M 41288  41372
                                                 41380M 41460M 41543M 41559M 41561  41651M 41651  41668M 41668  41695M
                                                 41695  41712M 41712  42025M 42032M 42106M 42107M 42108  42121M 42122M
                                                 42484M 42506M 42582M 42616M 42626M 42626  42665M 42665  42811M 42813M
                                                 42813  42838M 42839  42904M 42912M 42912  42940M 42940  43056M 43065M
                                                 43067  43240  43513M 43513  43522  43871M 43871  43876M 43904M 43904
                                                 44044M 44045M 44045  44056M 44058M 44058  44090M 44091M 44092  44112M
                                                 44113M 44113  44146M 44146  44261M 44284M 44313M 44336M 44336  44406M
                                                 44442M 44463M 44481M 44535M 44564M 44621M 44626M 44628M 44629  44654M
                                                 44709M 44738M 44779M 44801M 44819M 44856M 44856  45033M 45081M 45134M
                                                 45134  45152M 45162M 45186M 45186  45378M 45379  45389M 45413M 45413
                                                 45578  45718M 45720M 45721  45722M 45763  45814  45860  46036M 46037
                                                 46044M 46046M 46046  46163M 46165  46198M 46225  46231  46237M 46238M
                                                 46287M 46480  46630M 46674M 46763M 46763  46772  47011M 47033M 47157M
                                                 47158M 47160M 47326M 47326  47344M 47345M 47345  47363M 47393M 47393
                                                 47541M 47542M 47542  47553M 47555M 47555  47587M 47588M 47589  47609M
                                                 47610M 47610  47643M 47643  47696  47707M 47734  47741  47789M 47789
                                                 47910  48082M 48082
 R2            2 00000002 FFFFFFFF A   #     725  7708M  7758M  7782   7950M  8238M  8279M  8294M  8303   9045M  9140M
                                                  9412M  9741M 10069M 10420M 10836M 10895  10951M 10951  10971  11014
                                                 11084M 11084  11675M 11679M 11718M 11835M 11839M 11878M 12036M 12166M
                                                 12372M 12799M 12804M 12813M 12813  12820  12864M 12873M 12873  12881
                                                 12893M 12902M 12911M 12911  12918  12945M 12946M 12947  13005M 13014M
                                                 13014  13022  13034M 13043M 13052M 13052  13059  14406M 14496M 14534M
                                                 14546M 14546  14717  14718  14718  14718  14719M 14723M 14726M 14744M
                                                 17221  17221  17221  17353M 17359M 17493M 17563M 17575  17587  17786M
                                                 17786  17879  17892  17908M 17978M 18001M 18003M 18015  18027  18279M
                                                 18644M 18646M 18721M 19347M 19439M 19441M 19448M 19450M 19518M 19518
                                                 19576M 19576  19606  19643  19675M 19675  19717M 19717  20138M 20190M
                                                 20257M 20566M 20946M 21167M 21265M 21266M 21267  21269M 21270M 21271
                                                 21301M 21353M 21353  21430M 21483M 22706M 22718  22734M 22734  22756
                                                 22758M 22759  22765  22789  22886M 22925  23026  23129  23321M 23321
                                                 23587M 23587  23596M 23649M 23649  23651M 23652M 23778M 23778  23783M
                                                 23805M 23933M 23936M 23937  23948M 23948  23956M 24289  24458M 24458
                                                 24463M 24470M 24470  24473M 24499M 24558  24613M 24672  24722M 24781
                                                 24804M 24863  24924M 24924  24927M 25161M 25161  25207M 25232M 25234
                                                 25234M 25338M 25369M 25543M 25574M 25737  25742M 25865  25872M 25995
                                                 26256  26261M 26547M 26652M 26775M 26898M 27021M 27421M 27421  27434M
1ACT      (ACT2025) (12:40) (15MAR04) Ordinary Symbol and Literal Cross Reference                                           Page  268
                                                 27434  27448  27541  27821M 27824  27963M 27963  27976M 27976  27990
                                                 28083  28086M 28223M 28223  28236M 28236  28250  28343  28346M 28553M
                                                 28571M 28593M 29211M 29243  29742M 29743M 29743  29769  29842  31887U
                                                 32162U 35857M 35858M 35859  36758  36902M 36913  37249M 37257  37273M
                                                 37314M 37314  37394M 37743M 37749M 37750M 37751  37756M 37803M 37906M
                                                 37906  37970M 37971M 37971  37979  38179  38182M 38183M 38184  38186
                                                 38187M 38246  38247M 38247  38248  38336  38337M 38337  39131M 39141
                                                 39256M 39266  39348M 39358  39389  39477M 39487  39627  39680M 39690
                                                 39770M 39770  39780  39825  40103  40999M 40999  41000  41001  41002
                                                 41174M 41262  41298  41299  41311  41339  41386M 41396U 42022M 42023M
                                                 42024  42027  42029  42229M 42230  42238M 42243  42896M 42897M 42898
                                                 43086M 43118M 43148M 43240M 43372M 43391M 43391  43465M 43498  43503M
                                                 43677M 43749M 43773M 43773  44592M 44592  44602  44626  44627M 44666
                                                 44695M 44765M 45283M 45588  45702M 45702  45712  45718  45719M 45733
                                                 45804M 45839M 46239M 46241  46289M 46348M 46378M 46480M 46612M 46636M
                                                 46636  46715M 46748  46753M 46927M 47003M 47039M 47039  47830  47944M
                                                 48023  48024  48033
 R3            3 00000003 FFFFFFFF A   #     738  8201M  8285   8295M  8304  10837M 10847M 10847  10867  10910  10999
                                                 11067M 11676M 11714M 11731  11836M 11874M 11889  12540M 12947M 12949M
                                                 12963  12996M 13004M 13005  14720M 15245M 15255U 17354M 17998M 17999M
                                                 18645M 18720M 19440M 19449M 19538M 19539M 19565  19583M 19588  19589
                                                 20119M 20138  20149M 20149  20192M 20207M 20207  20214M 20233  20296
                                                 20385  20386  22789M 23588M 23589M 23591M 23597  23650M 23653  23779M
                                                 23780M 23782M 23797  24290  24459M 24461M 24464M 24465  24471M 24475
                                                 24500M 24614M 24723M 24805M 24925M 24929  25107  25162M 25174  25181M
                                                 25186M 25187M 25187  25188M 25208  25248M 25742  25872  26006M 26006
                                                 26012  26034M 26134M 26134  26143  26261  26542M 26647M 26770M 26893M
                                                 27016M 27128M 27139M 27139  27198M 27198  27206  27257M 27304  27488M
                                                 27488  27494  27534M 27558M 27558  27564  27689M 27689  27695  27735M
                                                 27765M 27765  27771  27841M 27841  27847  28030M 28030  28036  28076M
                                                 28101M 28101  28107  28290M 28290  28296  28336M 28361M 28361  28367
                                                 29061M 29062M 29063M 29064  29214M 30546M 30549  32201M 32213  32231M
                                                 32232  32233M 32236M 32237  32256M 32268  32286M 32287  32288M 32291M
                                                 32292  32491  32501  32654  32911M 32913  32913M 33106M 33162  33162M
                                                 35370M 35396M 35405  35416M 35416  35433M 35438  36906M 36906  37248M
                                                 37272M 37272  37288M 37292M 37296M 37333M 37333  37484  38178M 38188B
                                                 38245M 38335M 39009M 39057  39058  39062M 39062  39388M 39626M 39654M
                                                 39671M 39824M 39900  41232M 41262  41599M 42829M 42835  42837M 42838
                                                 42841M 42842M 42845M 42848  42898M 43250M 43254M 43256  43389M 43390
                                                 43391  43392  43434M 43447  43459M 43464  43465  43466  43532M 43545
                                                 43552M 43559M 43561  43697M 43710  43772  43773  43774  43795M 43810
                                                 43830M 43835  44060M 44061M 44064  44629M 45721M 46143M 46257  46263M
                                                 46264M 46264  46266  46490M 46494M 46496  46629M 46635  46636  46637
                                                 46684M 46697  46709M 46714  46715  46716  46782M 46795  46802M 46809M
                                                 46811  46947M 46960  46969M 46969  47000M 47016  47017M 47038  47039
                                                 47040  47061M 47076  47096M 47101  47130M 47131M 47148M 47153M 47156M
                                                 47170M 47170  47178M 47180  47557M 47558M 47561  47938M 47965  47967M
                                                 47986  47990  48017M 48017  48032M
 R4            4 00000004 FFFFFFFF A   #     751  8308M  8318U  8709M  8719U  9515M  9525U  9843M  9853U 10169M 10179U
                                                 10520M 10530U 10748M 10758U 11051M 11097  11109M 11110M 11111  11502M
                                                 11512U 11677M 11679M 11837M 11839M 12342M 12372  13187M 13218  13263
                                                 14721M 14723M 15173M 15173  15182  15202M 15259  15417M 15417  15436M
                                                 15530M 15530  15537M 15695  17359M 17871M 18001M 18642M 18646M 19171M
                                                 19260M 19260  19447  19453M 19479  19589M 20001M 20007  20019M 20036
                                                 20078  20085M 20107  20386M 20413M 20413  20455M 20488  20492M 20501M
                                                 20501  20508  20542  20636  20666M 20666  20751  23807M 24291  25737M
                                                 25740  25758  25865M 25868  25888  25995M 26041  26059  26060  26077
                                                 26256M 26259  26277  27419M 27543  27677M 27826  27961M 28085  28221M
                                                 28345  28999M 29025  29216M 29219M 29221  29241  29242  29470M 29485
1ACT      (ACT2025) (12:40) (15MAR04) Ordinary Symbol and Literal Cross Reference                                           Page  269
                                                 29491M 29610  29634  29641  29666  30529M 30529  30547  30548M 30555
                                                 32376M 32501  32684  35315M 35315  35332M 35353M 35358M 35359  36341M
                                                 36491M 36492M 36493  36494  36509M 36511M 36512M 36513  36622M 36624M
                                                 36625M 36626  36649  36910M 36910  37274  37276M 37276  37277M 37344M
                                                 37344  37428  38299M 38331  38336  39057M 39131  39389M 39477  39627M
                                                 39678M 39678  39680  39825M 39902  42846M 42897  43158M 43835M 43835
                                                 46006M 46037M 46071M 46090M 46115  46117M 46137M 46137  46145M 46147
                                                 46266M 46397M 47101M 47101  47966M 47987  47989M 47995M 47996  48025M
                                                 48027M 48028  48030M 48030
 R5            5 00000005 FFFFFFFF A   #     764  6904M  7547   7706   8191M  8192M  8193   8195   8297   8380   8487
                                                  8648M  8662M  8662   8668   8741M  8763M  8763   8869   9018M  9084
                                                  9091   9105   9128   9130   9136M  9266   9406M  9440M  9442   9471M
                                                  9487   9595   9735M  9768M  9770   9799M  9815   9923  10063M 10096
                                                 10125M 10141  10238M 10251  10391M 10403  10410M 10447  10476M 10492
                                                 10590M 10603  10714M 10816  11053  11077  11078  11364M 11364  11436M
                                                 11438  11458M 11474  11532  11678M 11684M 11684  11727M 11742  11838M
                                                 11844M 11844  12349M 12349  12357  12392M 12394  12400M 12412  12515M
                                                 12539  13172M 13182U 14360M 14360  14388M 14712  14717  14718  14718
                                                 14718  14722M 14726M 14740  15442M 15450  15474M 15475M 17221  17221
                                                 17221  17358M 17358  18000M 18643M 19170M 19448  19452M 19462  19539
                                                 19588M 19671  19744  20000M 20046M 20385M 20453M 27420M 27542  27678M
                                                 27825  27962M 28084  28222M 28344  28990M 28992  28994M 29015  29104
                                                 29206M 29208M 29208  29213M 29214  29215M 29216  29217M 29218  29221M
                                                 29224M 29226  29469M 29661  30523U 30525M 30540M 30540  30549M 35209U
                                                 35297M 35306M 35306  35397M 35406  35813M 35979M 36339M 36339  36340
                                                 36462M 36474  36491  36503M 36503  36509  36540M 36543M 36544  37245U
                                                 37470M 37850M 37850  37851  37869M 37870  37891  39505M 39505  39619M
                                                 39619  39625  39626  39708M 39708  39724M 39817M 39817  39823  39824
                                                 41730M 41749  41769  41789  41809  41829  41849  41864M 41884  41904
                                                 41924  41944  41964  41984  42769M 42784  42838  42842  42879  44003M
                                                 44016  44023M 44037  44061  45980M 46001M 46049  46197  47500M 47513
                                                 47520M 47534  47558  47936M 47946M 47949  47968M 47970  47986  47992M
                                                 48018M 48018  48039M 48041
 R6            6 00000006 FFFFFFFF A   #     777 12514M 12534  14427M 14437U 17879M 17898M 18073M 18073  18080  19156M
                                                 19166U 19995U 21754M 21757  21769M 21776  21788M 21793  21795M 21827
                                                 21829  21924  21944  21975  22053  22144  22169  28998M 28998  29024M
                                                 29026M 29038  29044M 29045M 29046M 29047M 29047  29055M 29063  29210M
                                                 29219  29421M 29510  29622  29669  30251M 30259U 36901M 37852M 37874M
                                                 37874  37907M 37943M 38112M 38212M 38231M 39010M 39141  39266  39358
                                                 39487  39690  39780  40114  41516M 41524U 41996M 42682U 45619M 45632
                                                 45670  45763  45814  45860  45870  45897M 45905U 47316M 47317M 47317
                                                 47696M 47704U 47934M 47934  47991M 47991  48023M 48033M 48037  48056
 R7            7 00000007 FFFFFFFF A   #     790  2119M  2119   2120B  2132B
 R8            8 00000008 FFFFFFFF A   #     803  8181U  8644U  9014U  9373U  9702U 10030U 10358U 10710U 11331U 12002U
                                                 12162U 12338U 14328U 15008U 15930U 17327U 17482U 17866U 18357U 19144U
                                                 19949U 21143U 21742U 22395U 23309U 23483U 24275U 25096U 26538U 26643U
                                                 26766U 26889U 27012U 28538U 30247U 36758  36759M 39005U 40881U 42758U
                                                 43036U 43986U 45022U 45271U 45564U 47483U 47830  47905U
 SCAN          1 00000000 0000004A     T   38870 38870
 SCANCHK       1 00000000 0000002E     T   17208 17208  31203  33923  36725
 SCANGAN       6 000069CC 00000001     I   37940 38180B
 SCANGEN       6 00006A7C 00000001     I   38111 37969B 38108B 38250B
 SCANGEN1      4 00006A82 00000001     I   38112 38333B 38339B
 SCANSTR       2 00006720 00000001     H   37252 37275B 37278B
 SCINIT        1 00000000 0000004B     T   38880 38880
 SCNINVAL      1 00000000 00000043     T   33828 33828  33874
 SCNRES        1 00000000 0000004D     T   38882 38882
 SCTELL        1 00000000 0000004C     T   38881 38881
 SDSNQSZ       1 0000002C FFFFFFEC A   U    6107  6108   6109
1ACT      (ACT2025) (12:40) (15MAR04) Ordinary Symbol and Literal Cross Reference                                           Page  270
 SEEKDONE      2 00007E60 00000001     H   44120 44046B
 SEG           1 00000000 00000005     T    7858  7858  17172  21029  28436  31185  33915  36717  38871  44909
 SEGB          1 00000000 00000022     T   17174 17174  38883  44907
 SEGCOL        1 00000000 00000025     T   17180 17180
 SEGCR         1 00000000 00000004     T    7857  7857  17182  31187  36707  38889  44910
 SEGDC         1 00000000 00000007     T    7860  7860  17173  31194  44915
 SEGHX         1 00000000 00000008     T    7862  7862
 SEGMARK       1 00000000 0000000A     T    7865  7865
 SEGRNG        2 00007EEA 00000001     H   44347 44908
 SEGT          1 00000000 00000023     T   17175 17175
 SEGWR         1 00000000 0000000B     T    7866  7866
 SELDELTA      1 00000000 00000036     T   25654 25654
 SETACT        2 000065D6 00000001     H   36840 36831B
 SETEXEC       4 000065FA 00000001     I   36874 36813B
 SETEXT        2 000065EA 00000001     H   36863 36795B
 SETMOD        4 00006ABE 00000001     I   38182 38178B 38245B 38335B
 SETMODB       4 00006AD8 00000001     I   38194 38185B
 SETNOT        2 00005D80 00000001     H   34563 30732  33342
 SETNOTT       4 00006718 00000001     I   37248 38372  38389
 SETPDONE      2 000012D4 00000001     H   13098 12839B 12937B 13078B
 SETPFXNS      1 00000000 00000020     T   17167 17167
 SETVINFO      1 00000000 00000010     T   12637 12637  17199
 SHOWAINF      2 00000016 00000001     H    6857  6853
 SMTRTTAB    256 00000000 FFFFFFC2     X   42700 42813  42855
 SPR          13 0000000D 00000001 A   #    1139  6863   6866   6867   6868M  6868   7837M  7841   7843   7908   7911
                                                  7912   7913M  7913   8094M  8098   8100   8146   8149   8151   8152M
                                                  8152   8556M  8560   8562   8609   8612   8614   8615M  8615   8925M
                                                  8929   8931   8979   8982   8984   8985M  8985   9282M  9286   9288
                                                  9338   9341   9343   9344M  9344   9611M  9615   9617   9667   9670
                                                  9672   9673M  9673   9939M  9943   9945   9995   9998  10000  10001M
                                                 10001  10267M 10271  10273  10323  10326  10328  10329M 10329  10619M
                                                 10623  10625  10675  10678  10680  10681M 10681  11137M 11141  11143
                                                 11168  11171  11172  11173M 11173  11234M 11238  11240  11296  11299
                                                 11301  11302M 11302  11591M 11595  11597  11626  11629  11630  11631M
                                                 11631  11753M 11757  11759  11786  11789  11790  11791M 11791  11914M
                                                 11918  11920  11967  11970  11972  11973M 11973  12074M 12078  12080
                                                 12127  12130  12132  12133M 12133  12251M 12255  12257  12303  12306
                                                 12308  12309M 12309  12446M 12450  12452  12485  12488  12489  12490M
                                                 12490  12606M 12610  12612  12695  12698  12699  12700M 12700  13109M
                                                 13113  13115  13143  13146  13147  13148M 13148  14239M 14243  14245
                                                 14293  14296  14298  14299M 14299  14853M 14857  14859  14885  14888
                                                 14889  14890M 14890  14925M 14929  14931  14973  14976  14978  14979M
                                                 14979  15356M 15360  15362  15382  15385  15386  15387M 15387  15741M
                                                 15745  15747  15895  15898  15900  15901M 15901  16689M 16693  16695
                                                 16878  16881  16882  16883M 16883  16936M 16940  16942  16957  16960
                                                 16961  16962M 16962  17008M 17012  17014  17029  17032  17033  17034M
                                                 17034  17080M 17084  17086  17101  17104  17105  17106M 17106  17141M
                                                 17145  17147  17292  17295  17297  17298M 17298  17378M 17382  17384
                                                 17447  17450  17452  17453M 17453  17612M 17616  17618  17672  17675
                                                 17676  17677M 17677  17717M 17721  17723  17754  17757  17758  17759M
                                                 17759  17803M 17807  17809  17831  17834  17836  17837M 17837  18110M
                                                 18114  18116  18175  18178  18179  18180M 18180  18218M 18222  18224
                                                 18250  18253  18254  18255M 18255  18294M 18298  18300  18322  18325
                                                 18327  18328M 18328  18958M 18962  18964  19109  19112  19114  19115M
                                                 19115  19828M 19832  19834  19914  19917  19919  19920M 19920  20866M
                                                 20870  20872  20901  20904  20905  20906M 20906  21002M 21006  21008
                                                 21108  21111  21113  21114M 21114  21632M 21636  21638  21707  21710
                                                 21712  21713M 21713  22257M 22261  22263  22360  22363  22365  22366M
                                                 22366  23218M 23222  23224  23274  23277  23279  23280M 23280  23343M
1ACT      (ACT2025) (12:40) (15MAR04) Ordinary Symbol and Literal Cross Reference                                           Page  271
                                                 23347  23349  23448  23451  23453  23454M 23454  24162M 24166  24168
                                                 24240  24243  24245  24246M 24246  24985M 24989  24991  25061  25064
                                                 25066  25067M 25067  25424M 25428  25430  25467  25470  25471  25472M
                                                 25472  25623M 25627  25629  25708  25711  25712  25713M 25713  25796M
                                                 25800  25802  25836  25839  25840  25841M 25841  25926M 25930  25932
                                                 25966  25969  25970  25971M 25971  26187M 26191  26193  26227  26230
                                                 26231  26232M 26232  26315M 26319  26321  26355  26358  26359  26360M
                                                 26360  26422M 26426  26428  26503  26506  26508  26509M 26509  26569M
                                                 26573  26575  26608  26611  26613  26614M 26614  26692M 26696  26698
                                                 26731  26734  26736  26737M 26737  26815M 26819  26821  26854  26857
                                                 26859  26860M 26860  26938M 26942  26944  26977  26980  26982  26983M
                                                 26983  27061M 27065  27067  27098  27101  27102  27103M 27103  27350M
                                                 27354  27356  27389  27392  27393  27394M 27394  27609M 27613  27615
                                                 27647  27650  27651  27652M 27652  27892M 27896  27898  27931  27934
                                                 27935  27936M 27936  28152M 28156  28158  28191  28194  28195  28196M
                                                 28196  28412M 28416  28418  28503  28506  28508  28509M 28509  28623M
                                                 28627  28629  28650  28653  28654  28655M 28655  28892M 28896  28898
                                                 28930  28933  28934  28935M 28935  29133M 29137  29139  29167  29170
                                                 29171  29172M 29172  29263M 29267  29269  29296  29299  29300  29301M
                                                 29301  29352M 29356  29358  29392  29395  29396  29397M 29397  29680M
                                                 29684  29686  29711  29714  29715  29716M 29716  30026M 30030  30032
                                                 30212  30215  30217  30218M 30218  30583M 30587  30589  30805  30808
                                                 30809  30810M 30810  30905M 30909  30911  30926  30929  30930  30931M
                                                 30931  31084M 31088  31090  31106  31109  31110  31111M 31111  31160M
                                                 31164  31166  31347  31350  31351  31352M 31352  31393M 31397  31399
                                                 31414  31417  31418  31419M 31419  31484M 31488  31490  31505  31508
                                                 31509  31510M 31510  31748M 31752  31754  31769  31772  31773  31774M
                                                 31774  31823M 31827  31829  31844  31847  31848  31849M 31849  31981M
                                                 31985  31987  32009  32012  32013  32014M 32014  32105M 32109  32111
                                                 32126  32129  32130  32131M 32131  32311M 32315  32317  32347  32350
                                                 32351  32352M 32352  32702M 32706  32708  32815  32818  32819  32820M
                                                 32820  32861M 32865  32867  32882  32885  32886  32887M 32887  32925M
                                                 32929  32931  32946  32949  32950  32951M 32951  32989M 32993  32995
                                                 33010  33013  33014  33015M 33015  33056M 33060  33062  33077  33080
                                                 33081  33082M 33082  33174M 33178  33180  33195  33198  33199  33200M
                                                 33200  33238M 33242  33244  33959  33962  33963  33964M 33964  34005M
                                                 34009  34011  34026  34029  34030  34031M 34031  34087M 34091  34093
                                                 34108  34111  34112  34113M 34113  34204M 34208  34210  34234  34237
                                                 34238  34239M 34239  34336M 34340  34342  34357  34360  34361  34362M
                                                 34362  34459M 34463  34465  34480  34483  34484  34485M 34485  34548M
                                                 34552  34554  34569  34572  34573  34574M 34574  34637M 34641  34643
                                                 34658  34661  34662  34663M 34663  34726M 34730  34732  34747  34750
                                                 34751  34752M 34752  34821M 34825  34827  34842  34845  34846  34847M
                                                 34847  34910M 34914  34916  34931  34934  34935  34936M 34936  35005M
                                                 35009  35011  35026  35029  35030  35031M 35031  35094M 35098  35100
                                                 35115  35118  35119  35120M 35120  35189M 35193  35195  35222  35225
                                                 35226  35227M 35227  35763M 35767  35769  35784  35787  35788  35789M
                                                 35789  35929M 35933  35935  35950  35953  35954  35955M 35955  36134M
                                                 36138  36140  36172  36175  36176  36177M 36177  36412M 36416  36418
                                                 36433  36436  36437  36438M 36438  36572M 36576  36578  36593  36596
                                                 36597  36598M 36598  36677M 36681  36683  38456  38459  38460  38461M
                                                 38461  38559M 38563  38565  38588  38591  38592  38593M 38593  38660M
                                                 38664  38666  38686  38689  38690  38691M 38691  38842M 38846  38848
                                                 38967  38970  38972  38973M 38973  39934M 39938  39940  39961  39964
                                                 39965  39966M 39966  40305M 40309  40311  40327  40330  40331  40332M
                                                 40332  40384M 40388  40390  40404  40407  40408  40409M 40409  40461M
                                                 40465  40467  40481  40484  40485  40486M 40486  40538M 40542  40544
                                                 40558  40561  40562  40563M 40563  40615M 40619  40621  40687  40690
                                                 40691  40692M 40692  40745M 40749  40751  40843  40846  40848  40849M
1ACT      (ACT2025) (12:40) (15MAR04) Ordinary Symbol and Literal Cross Reference                                           Page  272
                                                 40849  42657M 42661  42663  42723  42726  42728  42729M 42729  42932M
                                                 42936  42938  43001  43004  43006  43007M 43007  43896M 43900  43902
                                                 43951  43954  43956  43957M 43957  44138M 44142  44144  44172  44175
                                                 44176  44177M 44177  44328M 44332  44334  44353  44356  44357  44358M
                                                 44358  44848M 44852  44854  44987  44990  44992  44993M 44993  45178M
                                                 45182  45184  45236  45239  45241  45242M 45242  45405M 45409  45411
                                                 45529  45532  45534  45535M 45535  47385M 47389  47391  47448  47451
                                                 47453  47454M 47454  47635M 47639  47641  47667  47670  47671  47672M
                                                 47672  47781M 47785  47787  47870  47873  47875  47876M 47876  48074M
                                                 48078  48080
 STOW          2 00004160 00000001     H   28496 28492
 STOWLNO       4 00000000 FFFFFFC7     F   28461 28548M 28601
 STOWPTRS      4 00000004 FFFFFFC7     A   28462 28549M 28602
 STOWTEXT    235 0000000C FFFFFFC7     C   28463 28543
 STOWWA      247 00000000 FFFFFFC7     J   28470 28509  28538U 28627  28629  28630
 STRFND        4 0000786C 00000001     I   41864 41612B 41654B 41698B
 STRMATCH      2 00007AFA 00000001     H   42716 44899
 STRMDONE      2 00007BAA 00000001     H   42916 42905B 42913B
 STRMWA      256 00000000 FFFFFFC2     J   42707 42729  42758U 42768M 42768  42936  42938  42939
 STRNFND       4 00007836 00000001     I   41730 41613B 41620B 41671B 41715B
 STRNMAT       2 00007B9C 00000001     H   42903 42800B 42871B 42900B
 STRYMAT       2 00007BA4 00000001     H   42908 42799B 42894B
 TIDLEWR       1 00000000 00000055     T   44896 44896
 TRC           1 00000000 00000000 A   T    2148  2148
 TREADQ        1 00000000 0000002C     T   17205 17205
 TRNSMATE      4 000078F2 00000001     I   42036 42031B
 TRNSMIT       2 00007900 00000001     H   42045 41512B 42016B 42030B 42036B 42038B
 TRYNXMD       4 000078D2 00000001     I   42027 42033B
 TSTCNT        4 00006B2E 00000001     I   38253 38421
 TSTKICK       2 0000794C 00000001     H   42142 41083B 41093B
 TSTRNGTP      4 0000798C 00000001     I   42198 42163B 42173B
 TTYFLAG       1 00000004 FFFFFFEA     R    6236  6240
 TTYMAX#       1 00000006 FFFFFFEA A   U    6292  6293
 TTYTFLAG      1 00000005 FFFFFFEA     R    6246  6250   6255   6260   6265   6270   6275   6280
 UNPRESS       2 0000434C 00000001     H   29161 29157
 UNPRESS       1 00000000 0000003B     T   31180 31180
 UPPTBL        1 00000000 00000000 A   T    2211  2211
 WAR           8 00000008 00000001 A   #    1062  6867M  7837   7912M  8094   8151M  8556   8614M  8925   8984M  9282
                                                  9343M  9611   9672M  9939  10000M 10267  10328M 10619  10680M 11137
                                                 11172M 11234  11301M 11591  11630M 11753  11790M 11914  11972M 12074
                                                 12132M 12251  12308M 12446  12489M 12606  12699M 13109  13147M 14239
                                                 14298M 14853  14889M 14925  14978M 15356  15386M 15741  15900M 16689
                                                 16882M 16936  16961M 17008  17033M 17080  17105M 17141  17297M 17362
                                                 17378  17452M 17612  17676M 17706  17717  17758M 17792  17803  17836M
                                                 18094  18110  18179M 18218  18254M 18294  18327M 18958  19114M 19828
                                                 19919M 20866  20905M 21002  21113M 21632  21712M 22241  22257  22365M
                                                 23202  23218  23279M 23327  23343  23453M 24146  24162  24245M 24965
                                                 24985  25066M 25234  25327  25424  25471M 25532  25623  25712M 25785
                                                 25796  25840M 25915  25926  25970M 26176  26187  26231M 26304  26315
                                                 26359M 26411  26422  26508M 26569  26613M 26671  26692  26736M 26794
                                                 26815  26859M 26917  26938  26982M 27040  27061  27102M 27339  27350
                                                 27393M 27609  27651M 27892  27935M 28152  28195M 28412  28508M 28623
                                                 28654M 28892  28934M 29078  29115  29133  29171M 29252  29263  29300M
                                                 29341  29352  29396M 29668  29680  29715M 30026  30217M 30583  30809M
                                                 30905  30930M 31084  31110M 31160  31351M 31393  31418M 31484  31509M
                                                 31748  31773M 31823  31848M 31981  32013M 32105  32130M 32311  32351M
                                                 32691  32702  32819M 32861  32886M 32913  32925  32950M 32989  33014M
                                                 33056  33081M 33162  33174  33199M 33238  33963M 34005  34030M 34087
                                                 34112M 34204  34238M 34336  34361M 34459  34484M 34548  34573M 34637
1ACT      (ACT2025) (12:40) (15MAR04) Ordinary Symbol and Literal Cross Reference                                           Page  273
                                                 34662M 34726  34751M 34821  34846M 34910  34935M 35005  35030M 35094
                                                 35119M 35189  35226M 35763  35788M 35929  35954M 36134  36176M 36412
                                                 36437M 36572  36597M 36677  38460M 38517  38559  38592M 38660  38690M
                                                 38842  38972M 39911  39934  39965M 40287  40305  40331M 40384  40408M
                                                 40461  40485M 40538  40562M 40615  40691M 40745  40848M 42657  42728M
                                                 42932  43006M 43896  43956M 44122  44138  44176M 44328  44357M 44848
                                                 44992M 45178  45241M 45405  45534M 47369  47385  47453M 47619  47635
                                                 47671M 47781  47875M 48058  48074
 WTOSG         1 00000000 00000000 A   T    2108  2108
 WYLACT        1 00000000 00000001     J     990   992   1044   1057   1070   1082   1095   1108   1121   1134   1147
                                                  1160   2392   2476   6216   6328   6608   6665   6669   6794   6845
 XCHKSET       1 00000000 00000013     T   12649 12649  45425
 XCNTRECS      1 00000000 00000028     T   17189 17189  23374
 XDELETE       1 00000000 00000029     T   17192 17192  23363
 XDELRECS      1 00000000 00000018     T   12654 12654  23364
 XDELSET       1 00000000 00000011     T   12638 12638
 XFRSTSET      1 00000000 00000016     T   12652 12652  17183
 XGET          1 00000000 00000014     T   12650 12650  17186
 XGETINFO      1 00000000 00000003     T    7856  7856
 XLASTSET      1 00000000 00000015     T   12651 12651
 XLOCLAST      1 00000000 00000027     T   17188 17188  23365  25658
 XLOCLINE      1 00000000 00000026     T   17187 17187  21021  23361  25657
 XLOCPREV      1 00000000 00000034     T   21050 21050
 XPUT          1 00000000 0000002A     T   17193 17193
 XPUTLINE      1 00000000 0000001B     T   12666 12666  21037
 XREPLACE      1 00000000 0000001A     T   12664 12664
 XSETSET       1 00000000 0000000F     T   12635 12635  17184  21023
 XSETSPLT      1 00000000 00000006     T    7859  7859  12633
 YESREQ        1 00000000 00000009     T    7863  7863  17198
 ZDETRNG       4 000065A0 00000001     I   36756 36755
 =A($CR)       4 00002AFC 00000001     A   21044 19606
 =A($LF)       4 00002B00 00000001     A   21045 19643
 =A(-4)        4 00006DF0 00000001     A   38877 37540
 =A(-8)        4 00006DE4 00000001     A   38874 37406
 =A(ACTDEL)
               4 00001174 00000001     A   12660 11535
 =A(ACTDISP)
               4 00001FB8 00000001     A   17197 15276
 =A(ACTFIRST)
               4 00001FC4 00000001     A   17200 15453
 =A(ACTGINFO)
               4 00001134 00000001     A   12644  8354   8461   8685   9490   9818  10144  10495  10732  10870  10974
                                                 11477
 =A(ACTGINFO)
               4 00001FB4 00000001     A   17196 15219
 =A(ACTLAST)
               4 00001FF0 00000001     A   17211 16560
 =A(ACTNEXT)
               4 00001FB0 00000001     A   17195 15185
 =A(ACTOPEN)
               4 00001FD0 00000001     A   17203 15724  16576  16618
 =A(ACTPFX)
               4 00002ACC 00000001     A   21032 18633
 =A(ACTPICK)
               4 00001130 00000001     A   12643  8300   8872
 =A(ACTPICK)
               4 00001FC8 00000001     A   17201 15471  16596
 =A(ACTPICK)
               4 00003BA0 00000001     A   26442 26015
1ACT      (ACT2025) (12:40) (15MAR04) Ordinary Symbol and Literal Cross Reference                                           Page  274
 =A(ACTPICK)
               4 000040B8 00000001     A   28438 27209  27307  27497  27567  27698  27774  27850  28039  28110  28299
                                                 28370
 =A(ACTPURGE)
               4 00002AD4 00000001     A   21034 18673
 =A(ACTSINFO)
               4 00001138 00000001     A   12645  8399   8506  10913  11017
 =A(ACTVSAVE)
               4 00001144 00000001     A   12648  9070
 =A(ACTXPUT)
               4 00001124 00000001     A   12640  8255   8282   9062   9429   9758  10086  10437  11884  12053
 =A(AUTONUMB)
               4 00003960 00000001     A   25648 23810
 =A(CHKLINES)
               4 000031B0 00000001     A   23371 21820
 =A(CLRMULT)
               4 00001FAC 00000001     A   17194 15068  15323
 =A(CLRTEXT)
               4 00001140 00000001     A   12647  8903
 =A(CLRTPRT)
               4 00001FDC 00000001     A   17206 16394
 =A(CNTRANGE)
               4 0000318C 00000001     A   23362 21235
 =A(CNTRANGE)
               4 0000395C 00000001     A   25647 23768  24298  24308  24932  25132
 =A(CPATBIG#)
               4 0000116C 00000001     A   12658 11404
 =A(CPATLIM#)
               4 00002AD8 00000001     A   21035 18687
 =A(CPATLIM#-32768)
               4 00001160 00000001     A   12655 11212
 =A(CPATMAX#)
               4 00001164 00000001     A   12656 11349
 =A(CPATMAX#)
               4 00002AD0 00000001     A   21033 18665
 =A(CPATMIN#)
               4 00001168 00000001     A   12657 11383
 =A(DELRANGE)
               4 000031B8 00000001     A   23373 22881
 =A(DOXLINE2)
               4 00005AA0 00000001     A   33917 31893  32240
 =A(DRCOL)
               4 00006474 00000001     A   36718 35740
 =A(DRCOL2)
               4 00006480 00000001     A   36721 35906
 =A(DRCOL3)
               4 00006484 00000001     A   36722 36111
 =A(DRIN)      4 00006494 00000001     A   36726 36389
 =A(DROLIST)
               4 00006488 00000001     A   36723 36359  36654
 =A(DROLIST2)
               4 000064A0 00000001     A   36729 36549
 =A(DRPRT)
               4 00004ADC 00000001     A   31201 30439
 =A(DRSTR)
               4 00006450 00000001     A   36709 34313  34436
 =A(DRSTR2)
               4 00006458 00000001     A   36711 34614
 =A(DRSTR3)
1ACT      (ACT2025) (12:40) (15MAR04) Ordinary Symbol and Literal Cross Reference                                           Page  275
               4 0000645C 00000001     A   36712 34703  34798  34887  34982  35071  35166
 =A(ENDLNO)
               4 000040AC 00000001     A   28435 27147  27262  27744
 =A(EXRNG)
               4 00006454 00000001     A   36710 34525
 =A(EXRNGDIS)
               4 00005A9C 00000001     A   33916 31721  31958
 =A(EX2COUNT)
               4 00005AF4 00000001     A   33928 32628
 =A(EX2SYMLN)
               4 00005ABC 00000001     A   33924 32476
 =A(GENTBL)
               4 00008A30 00000001     A   47808 46287
 =A(GETGEN)
               4 0000746C 00000001     A   40645 39564
 =A(GETLBASE)
               4 00002A8C 00000001     A   21022 17703  17789
 =A(GETLINE)
               4 000031AC 00000001     A   23370 21801  22453  22565
 =A(GETLINE)
               4 00003BA8 00000001     A   26444 26064
 =A(GETLINE)
               4 00008180 00000001     A   44893 41126
 =A(GETLINE)
               4 0000839C 00000001     A   45424 45061
 =A(GETLINEX)
               4 0000117C 00000001     A   12662 12375
 =A(GETLINEX)
               4 00003B98 00000001     A   26440 25745  25875  26264
 =A(GETLNO)
               4 00003948 00000001     A   25642 23562
 =A(GTFRST)
               4 000040A4 00000001     A   28433 26902
 =A(GTLAST)
               4 000040A8 00000001     A   28434 27025
 =A(GTLINE)
               4 00003BB0 00000001     A   26446 26388
 =A(GTLINE)
               4 00004098 00000001     A   28430 26551
 =A(GTNEXT)
               4 0000409C 00000001     A   28431 26656
 =A(GTPREV)
               4 00003BB4 00000001     A   26447 26403
 =A(GTPREV)
               4 000040A0 00000001     A   28432 26779
 =A(INCOMPLT)
               4 00007474 00000001     A   40647 40031  40146
 =A(ITSNIL)
               4 00006E18 00000001     A   38887 38637
 =A(L'CPANAME)
               4 00001F44 00000001     A   17170 12881  12893  13022  13034
 =A(L'LNINFO)
               4 00002118 00000001     A   17396 17334  17346
 =A(L'PLINAREA)
               4 00002B08 00000001     A   21047 20007  20019
 =A(LENCHK)
               4 00004A78 00000001     A   31190 29327
 =A(LMSGCHK)
               4 00004A7C 00000001     A   31191 29335
1ACT      (ACT2025) (12:40) (15MAR04) Ordinary Symbol and Literal Cross Reference                                           Page  276
 =A(MATSEEK)
               4 00008A34 00000001     A   47809 46464  46751
 =A(MATSETR)
               4 00008A3C 00000001     A   47811 46633  46677  47014  47036
 =A(NUMRANGE)
               4 00003974 00000001     A   25653 24521  24635  24744  24826
 =A(PATMAXL)
               4 0000745C 00000001     A   40641 39150  39275  39367  39496  39699  39789  40097  40123
 =A(PATNULL)
               4 00007468 00000001     A   40644 39470
 =A(PATSEEK)
               4 000081C8 00000001     A   44911 43224  43501
 =A(PENCODE)
               4 00006468 00000001     A   36715 35561
 =A(PENCODE)
               4 00006DF4 00000001     A   38878 37619
 =A(PMATCH)
               4 00008194 00000001     A   44898 41641
 =A(PREVLNO)
               4 00003BA4 00000001     A   26443 26044
 =A(PUNBAL)
               4 00007464 00000001     A   40643 39321  39445  39556  39884
 =A(PUTBLINE)
               4 00002B04 00000001     A   21046 19740  19796
 =A(PUTLBASE)
               4 00002A9C 00000001     A   21026 18206  18282
 =A(PUTLINE)
               4 00001180 00000001     A   12663 12397
 =A(PUTLINE)
               4 00002B10 00000001     A   21049 20299
 =A(PUTLINE)
               4 000031B4 00000001     A   23372 21908  21947  22874
 =A(PUTLINE)
               4 000040BC 00000001     A   28439 27546  27829  28089  28349
 =A(PUTLINEX)
               4 00004A60 00000001     A   31184 28605
 =A(RNGABORT)
               4 00008190 00000001     A   44897 41437
 =A(SEGRNG)
               4 000081BC 00000001     A   44908 42491
 =A(STRMATCH)
               4 00008198 00000001     A   44899 41685
 =A(X'40000000')
               4 00002A98 00000001     A   21025 17999
 =A(0)         4 0000819C 00000001     A   44900 41749  41884
 =A(1)         4 00001F48 00000001     A   17171 13004
 =A(1)         4 00002AE8 00000001     A   21039 18856
 =A(1)         4 000031A4 00000001     A   23368 21757  21769  22172  22184  22421  22548  22928  22940  23029  23041
                                                 23132  23144
 =A(1)         4 0000394C 00000001     A   25643 23595  23774  23936
 =A(1)         4 00004AA4 00000001     A   31193 29769
 =A(1)         4 00005AB0 00000001     A   33921 32236  32291  32433  32586
 =A(1)         4 0000649C 00000001     A   36728 36543
 =A(1)         4 00007460 00000001     A   40642 39253  39256  39345  39348  39375  39425  39654  39738  39801  39861
                                                 39906  39909  40011
 =A(1)         4 000081CC 00000001     A   44912 43369  43372  43389  43674  43677  43746  43749  44095
 =A(1)         4 00008A38 00000001     A   47810 46609  46612  46629  46924  46927  47000  47003  47156  47592  47765
 =A(10)        4 00003968 00000001     A   25650 24034  24062  24326  24355
 =A(10)        4 00005AAC 00000001     A   33920 32213  32268
1ACT      (ACT2025) (12:40) (15MAR04) Ordinary Symbol and Literal Cross Reference                                           Page  277
 =A(10)        4 00006498 00000001     A   36727 36474
 =A(100)       4 0000396C 00000001     A   25651 24085  24378
 =A(1000)      4 00003950 00000001     A   25644 23628  23640  24108  24401
 =A(11)        4 00001F60 00000001     A   17177 13471
 =A(12)        4 00002AE4 00000001     A   21038 18750
 =A(12)        4 000081A8 00000001     A   44903 41809  41944
 =A(16)        4 00003990 00000001     A   25660 25525
 =A(16)        4 000081AC 00000001     A   44904 41829  41964
 =A(2)         4 00005AF0 00000001     A   33927 32565
 =A(2)         4 00007458 00000001     A   40640 39120  39244
 =A(20)        4 000081B0 00000001     A   44905 41849  41984
 =A(200)       4 0000747C 00000001     A   40649 40088
 =A(235)       4 00002A94 00000001     A   21024 17981  17993  18494  18506
 =A(235)       4 000031A8 00000001     A   23369 21776  21788  21992  22004  22070  22082  22191  22203  22435  22718
                                                 22947  22959  23048  23060  23151  23163
 =A(235)       4 00004A70 00000001     A   31188 29038  29485
 =A(235)       4 00008D60 00000001     A   48102 47913  47925
 =A(235-1)
               4 00006478 00000001     A   36719 35838
 =A(255)       4 00007470 00000001     A   40646 39579  39645
 =A(255)       4 000081D0 00000001     A   44913 43447  43545  43710  43810  44016
 =A(255)       4 00008A40 00000001     A   47812 46697  46795  46960  47076  47513
 =A(256)       4 00002AF8 00000001     A   21043 19497  19509
 =A(4)         4 00001190 00000001     A   12667 12561
 =A(4)         4 00003980 00000001     A   25656 25266
 =A(4)         4 000081A0 00000001     A   44901 41769  41904
 =A(8)         4 00001FE8 00000001     A   17209 16425
 =A(8)         4 000081A4 00000001     A   44902 41789  41924
 =AL2(12)      2 00008A46 00000001     R   47814 45937
 =AL2(235)
               2 00002B4A 00000001     R   21054 19192
 =AL2(235)
               2 00004AE8 00000001     R   31204 29046
 =AL2(235)
               2 000081F2 00000001     R   44919 42835  42839
 =AL2(235-1)
               2 000064B4 00000001     R   36732 35859
 =AL2(235-1)
               2 00006E4C 00000001     R   38896 37751
 =AL2(8)       2 00008A44 00000001     R   47813 45922
 =AL4(L'CPANAME)
               4 00001F3C 00000001     R   17168 12793
 =AL4(1)       4 00001170 00000001     R   12659 11422
 =AL4(1)       4 00001FD4 00000001     R   17204 16291
 =AL4(10)      4 00003954 00000001     R   25645 23705  23914
 =AL4(1000)
               4 00003970 00000001     R   25652 24441
 =AL4(20)      4 00003958 00000001     R   25646 23756
 =AL4(3)       4 00003964 00000001     R   25649 23859
 =C'  Highest Active file number = '
              31 00000416 00000001     C    7880  7222
 =C'  Master page number = '
              23 00000436 00000001     C    7882  7528
 =C'  Number of cleared Actives = '
              30 00000378 00000001     C    7872  7156
 =C'  Number of TEMP    Actives = '
              30 0000035A 00000001     C    7871  7090
 =C'  Number of TEXT    Actives = '
              30 0000033C 00000001     C    7870  7024
1ACT      (ACT2025) (12:40) (15MAR04) Ordinary Symbol and Literal Cross Reference                                           Page  278
 =C'  Split factor = '
              17 00000405 00000001     C    7879  6956
 =C'  Total number of bytes = '
              26 000003BA 00000001     C    7875  7437
 =C'  Total number of lines = '
              26 000003A0 00000001     C    7874  7371
 =C' ('        2 00002012 00000001     C   17219 14019
 =C' (current='
              10 00000396 00000001     C    7873  7262
 =C' (defined)'
              10 00002008 00000001     C   17218 13896
 =C' (Cleared)'
              10 00002014 00000001     C   17220 14104
 =C' (Locked)'
               9 0000202B 00000001     C   17227 14180
 =C' (Protected)'
              12 00001F70 00000001     C   17181 14142
 =C' bytes'
               6 00002002 00000001     C   17217 13861
 =C' change.'
               8 00001F30 00000001     C   17166 16300
 =C' changes.'
               9 0000208D 00000001     C   17235 16277
 =C' changes'
               8 00001F10 00000001     C   17162 13979
 =C' characters (longest was '
              25 00004B42 00000001     C   31215 29925
 =C' characters in line '
              20 00004AAC 00000001     C   31195 29800
 =C' characters).'
              13 00004B5B 00000001     C   31216 29962
 =C' copied.'
               8 00004A20 00000001     C   31178 28822
 =C' for ALIGN.'
              11 00006EDE 00000001     C   38909 37132
 =C' for CENTER.'
              12 00006DD8 00000001     C   38873 37184
 =C' for DELETE.'
              12 00006DCC 00000001     C   38872 37002
 =C' for JOIN.'
              10 00006E24 00000001     C   38890 37028
 =C' for JUSTIFY.'
              13 00006EEC 00000001     C   38911 37158
 =C' for MOVE.'
              10 00006E2E 00000001     C   38891 37106
 =C' for REPLACE.'
              13 00006ECB 00000001     C   38906 37080
 =C' for SPLIT.'
              11 00006EC0 00000001     C   38905 37054
 =C' has '
               5 00002088 00000001     C   17234 16239
 =C' is not a valid line-number.'
              28 00002AAC 00000001     C   21030 18434
 =C' is the last line'
              17 00004AF3 00000001     C   31208 28784
 =C' lines over '
              12 00004AC0 00000001     C   31196 29863
 =C' lines'
               6 00001FFA 00000001     C   17215 13785
1ACT      (ACT2025) (12:40) (15MAR04) Ordinary Symbol and Literal Cross Reference                                           Page  279
 =C' moved.'
               7 00004B0B 00000001     C   31212 28848
 =C' not in '
               8 00008168 00000001     C   44889 42497
 =C' on '      4 00001F68 00000001     C   17179 13682
 =C'....'      4 00000334 00000001     C    7868  7708
 =C'....'      4 00001188 00000001     C   12665 12540
 =C'....'      4 00002AA0 00000001     C   21027 18279
 =C'....'      4 00004A54 00000001     C   31181 28553
 =C'.'         1 00004B04 00000001     C   31209 28800
 =C'.'         1 00006EBF 00000001     C   38904 36980
 =C'<<'        2 000074AC 00000001     C   40651 39106  39217
 =C'( ): invalid.  Incomplete range. '
              33 00005B8C 00000001     C   33939 33043
 =C'('         1 0000824B 00000001     C   44927 44433  44770
 =C'(The command "GUESS word" can be used to '
              41 00006F9A 00000001     C   38921 38788
 =C')'         1 00000435 00000001     C    7881  7302   7806
 =C')'         1 0000202A 00000001     C   17226 14065
 =C')'         1 0000824C 00000001     C   44928 44472  44810
 =C'/: invalid.  Incomplete range. '
              31 00005B6D 00000001     C   33938 32848
 =C'/'         1 0000824D 00000001     C   44929 44526  44700
 =C'/128'      4 00000310 00000001     C    7861  7005
 =C', '        2 00002000 00000001     C   17216 13821  13939
 =C', '        2 0000820E 00000001     C   44921 44612
 =C'>>'        2 000074AE 00000001     C   40652 39230
 =C': bad range (line-numbers are decreasing).'
              42 00006E54 00000001     C   38900 38010
 =C': invalid hex.'
              14 000064A6 00000001     C   36731 35639
 =C': invalid hex.'
              14 00006E3E 00000001     C   38895 37688
 =C': invalid.  Expecting explicit range.'
              37 00005B2D 00000001     C   33934 31471
 =C'#'         1 00002029 00000001     C   17225 13614
 =C'=>'        2 00001FF4 00000001     C   17212 13227
 =C'changed '
               8 00001F28 00000001     C   17165 15131
 =C'check the spelling of a word.)'
              30 00006E94 00000001     C   38902 38806
 =C'file.'
               5 00008246 00000001     C   44926 42589
 =C'Active '
               7 00002081 00000001     C   17233 16141
 =C'Active file logic error.'
              24 000010D8 00000001     C   12627 12572
 =C'Active file record group information:'
              37 000003E0 00000001     C    7878  6912
 =C'Active file space is full.'
              26 000011CA 00000001     C   12672 12590
 =C'Active file space is full.'
              26 00002B30 00000001     C   21053 18702  18772
 =C'Active file specified does not exist. '
              38 000040F0 00000001     C   28444 27514  27715  28056  28316
 =C'Active file(s):'
              15 00002067 00000001     C   17231 15153
 =C'Answer YES, NO or KEEP.'
              23 000020AF 00000001     C   17237 16911
1ACT      (ACT2025) (12:40) (15MAR04) Ordinary Symbol and Literal Cross Reference                                           Page  280
 =C'ACTDEBUG'
               8 00001F08 00000001     C   17161 13811
 =C'ALI'       3 00006EDB 00000001     C   38908 37123
 =C'Bad generic character specification (must be A,N,S,B,C or X).'
              61 000074B2 00000001     C   40654 40283
 =C'BLOCK is not defined.'
              21 00005B58 00000001     C   33937 31682
 =C'BLOCK is not defined.'
              21 00006F73 00000001     C   38918 38097
 =C'Can''t add line.  Line '
              22 00002B1A 00000001     C   21052 18398
 =C'Checking... '
              12 0000031C 00000001     C    7864  7648
 =C'CEN'       3 00006EF9 00000001     C   38912 37175
 =C'CLEARED'
               7 00002034 00000001     C   17228 14594
 =C'COP'       3 00004B05 00000001     C   31210 28813
 =C'Delta too big.  Command incomplete.'
              35 00008210 00000001     C   44922 41321
 =C'Do validity check'
              17 0000044D 00000001     C    7883  7638
 =C'Error (at '
              10 000003D6 00000001     C    7877  7763
 =C'EXEC '
               5 00008238 00000001     C   44924 42533
 =C'EXTERNAL '
               9 0000823D 00000001     C   44925 42557
 =C'From '
               5 00002024 00000001     C   17224 13425
 =C'Generics are required between angle brackets.'
              45 000074EF 00000001     C   40655 40364
 =C'I...'      4 000040C4 00000001     C   28441 28346
 =C'I...'      4 00004A58 00000001     C   31182 28571
 =C'Invalid column specification.'
              29 00006522 00000001     C   36740 35848
 =C'Invalid edit format line.'
              25 00004B29 00000001     C   31214 29112
 =C'Invalid line number (negative or too large)'
              43 00004135 00000001     C   28446 27458  28000  28260
 =C'Invalid line number (too large)'
              31 00004116 00000001     C   28445 27164  27279  27801
 =C'Invalid range.  Line-numbers are decreasing.'
              44 00005AC0 00000001     C   33925 32511
 =C'JUS'       3 00006EE9 00000001     C   38910 37149
 =C'KEEP option not allowed here.'
              29 0000203B 00000001     C   17229 15043
 =C'Line '
               5 00004AEE 00000001     C   31207 28737
 =C'Line-number is too big.'
              23 00004B12 00000001     C   31213 28978
 =C'Lines'
               5 00008233 00000001     C   44923 42369
 =C'Missing (invalid) quotes for pattern string.'
              44 0000742C 00000001     C   40639 39032
 =C'Missing explicit range. '
              24 00006420 00000001     C   36704 35270
 =C'Missing explicit range.'
              23 00004B68 00000001     C   31217 30506
 =C'Missing explicit range.'
1ACT      (ACT2025) (12:40) (15MAR04) Ordinary Symbol and Literal Cross Reference                                           Page  281
              23 00005B16 00000001     C   33933 31380
 =C'Missing explicit range.'
              23 00006F56 00000001     C   38915 37927
 =C'Missing generic following repetition factor.'
              44 00007480 00000001     C   40650 40518
 =C'Missing quoted string. '
              23 000064E4 00000001     C   36738 34059
 =C'Missing range.  Quoted string expected. '
              40 00004A28 00000001     C   31179 30480
 =C'Missing range.  Quoted string expected. '
              40 000063F0 00000001     C   36702 33992
 =C'Missing range. '
              15 00004B7F 00000001     C   31218 30886  31007
 =C'Missing range'
              13 00006EB2 00000001     C   38903 36963
 =C'Mixed AND/OR is not allowed in a range.'
              39 000064FB 00000001     C   36739 34283  34406
 =C'Mixed AND/OR is not allowed in a range.'
              39 00006EFC 00000001     C   38913 37284
 =C'Multiple Active file logic problem (ACTCLOSE).'
              46 00001198 00000001     C   12669  8702
 =C'MOV'       3 00004B08 00000001     C   31211 28839
 =C'MOV'       3 00006ED8 00000001     C   38907 37097
 =C'No lines in range.'
              18 000081DE 00000001     C   44917 42293
 =C'No ACTIVE file.'
              15 00006F88 00000001     C   38919 38751
 =C'OK to Clear (Yes/No/Keep)'
              25 00002096 00000001     C   17236 16346
 =C'OK to Clear'
              11 00002076 00000001     C   17232 15305
 =C'OK'        2 000003D4 00000001     C    7876  7729
 =C'Pattern specification is too long to use.'
              41 00007549 00000001     C   40657 40595
 =C'PRI'       3 00005B52 00000001     C   33935 31554
 =C'PRI'       3 00006F6D 00000001     C   38916 38031
 =C'R...'      4 000040C0 00000001     C   28440 28086
 =C'R...'      4 00004A5C 00000001     C   31183 28593
 =C'Range modification list not ascending. '
              39 00006572 00000001     C   36742 36529  36642
 =C'Range modification list too big. (>10)'
              38 000064BE 00000001     C   36737 36484
 =C'Range stopped before line '
              26 000081F4 00000001     C   44920 44275
 =C'RUN'       3 00005B55 00000001     C   33936 31568
 =C'RUN'       3 00006F70 00000001     C   38917 38045
 =C'Specified active file does not exist. '
              38 000040C8 00000001     C   28442 27226
 =C'String is too long to fit within specified columns.'
              51 0000653F 00000001     C   36741 36031  36081
 =C'String is too long to fit within specified columns.'
              51 00006F23 00000001     C   38914 37816
 =C'SPE'       3 00006F97 00000001     C   38920 38778
 =C'This Active file can not be modified.'
              37 00002B4E 00000001     C   21056 18461
 =C'Too many line-numbers.'
              22 00005AFC 00000001     C   33930 32224  32279
 =C'Too many line-numbers.'
              22 00006E7E 00000001     C   38901 38194
1ACT      (ACT2025) (12:40) (15MAR04) Ordinary Symbol and Literal Cross Reference                                           Page  282
 =C'Truncated to 235 characters in line '
              36 00004A80 00000001     C   31192 29496
 =C'TEMP'      4 0000113C 00000001     C   12646  8817   9217
 =C'TEMP'      4 00001FA0 00000001     C   17191 14677  15613  16505
 =C'TEMP'      4 00002AC8 00000001     C   21031 18592
 =C'TEMP'      4 0000319C 00000001     C   23366 21562
 =C'Unbalanced angle brackets in generic pattern.'
              45 0000751C 00000001     C   40656 40441
 =C'WYL.'      4 00001F64 00000001     C   17178 13484
 =C'You can''t have lines after line 99999.999'
              41 00003994 00000001     C   25661 23521
 =C'You still have '
              15 00002058 00000001     C   17230 15097
 =CL4'.R..'
               4 00001100 00000001     C   12631  7950
 =CL4'INFO'
               4 00001120 00000001     C   12639  8238   9045   9140   9412   9741  10069  10420  11718  11878
 =CL4'INFO'
               4 00001F88 00000001     C   17185 14406  14744
 =CL4'TEXT'
               4 00000330 00000001     C    7867  7707
 =CL4'TEXT'
               4 000010FC 00000001     C   12630  7949
 =CL4'VIEW'
               4 0000112C 00000001     C   12642  8279  12036  12166
 =CL8'ABORTRNG'
               8 00008170 00000001     C   44890 44270
 =CL8'ACTFULL'
               8 000010F0 00000001     C   12628 12580
 =CL8'ACTFULL'
               8 00002A80 00000001     C   21020 18693  18763
 =CL8'BADRNG'
               8 00006DA0 00000001     C   38864 38005
 =CL8'BIGSTRRG'
               8 00006440 00000001     C   36706 36035  36085
 =CL8'BIGSTRRG'
               8 00006D98 00000001     C   38863 37818
 =CL8'DUMMY'
               8 00001F20 00000001     C   17164 14817
 =CL8'INVHEX'
               8 00006438 00000001     C   36705 35636
 =CL8'INVHEX'
               8 00006D90 00000001     C   38862 37685
 =CL8'MANYLNOS'
               8 00005A90 00000001     C   33914 32221  32276
 =CL8'MANYLNOS'
               8 00006DA8 00000001     C   38865 38208
 =CL8'MISSRNG'
               8 00006D80 00000001     C   38860 36977
 =CL8'MIXANDOR'
               8 00006418 00000001     C   36703 34280  34403
 =CL8'MIXANDOR'
               8 00006D88 00000001     C   38861 37281
 =CL8'NEW'
               8 000010B8 00000001     C   12624  8060   8226
 =CL8'NEW'
               8 00001F00 00000001     C   17160 12756  14459  16648
 =CL8'NOACTIVE'
               8 00006DB0 00000001     C   38866 38765
1ACT      (ACT2025) (12:40) (15MAR04) Ordinary Symbol and Literal Cross Reference                                           Page  283
 =CL8'PATGENBD'
               8 00007400 00000001     C   40633 40280
 =CL8'PATMISG'
               8 00007418 00000001     C   40636 40515
 =CL8'PATNULL'
               8 00007408 00000001     C   40634 40361
 =CL8'PATOMAX'
               8 00007420 00000001     C   40637 40592
 =CL8'PATUNBAL'
               8 00007410 00000001     C   40635 40438
 =CL8'TEXT'
               8 000010C0 00000001     C   12625  8061   8227
 =CL8'TEXT'
               8 00001F18 00000001     C   17163 14009  14481  14606  14705  14818  15181  15429  15449  16556
 =F'-1'        4 00001FEC 00000001     F   17210 16557
 =F'-1000'
               4 00001114 00000001     F   12636  8062   8228
 =F'-1000'
               4 00001F9C 00000001     F   17190 14559  14819  16649
 =F'-1000'
               4 000040B4 00000001     F   28437 27178  27240  27293
 =F'-1000'
               4 00006E14 00000001     F   38886 38511
 =F'-1000'
               4 0000817C 00000001     F   44892 41057
 =F'1'         4 0000110C 00000001     F   12634  7982   7983
 =F'1'         4 00003B9C 00000001     F   26441 25869
 =F'1'         4 0000647C 00000001     F   36720 35855
 =H'-4'        2 00002B18 00000001     H   21051 17511  17547  17926  17962  18757  20964
 =H'-4'        2 00006E38 00000001     H   38892 37293
 =H'-8'        2 00002B4C 00000001     H   21055 20986
 =H'-8'        2 00006E3A 00000001     H   38893 37297
 =H'1'         2 000064B6 00000001     H   36733 36067
 =H'1'         2 00006E4E 00000001     H   38897 37795
 =H'1'         2 000081F0 00000001     H   44918 42448
 =H'10'        2 00006E52 00000001     H   38899 37870  38184
 =H'11'        2 00001FF6 00000001     H   17213 13545
 =H'2'         2 000064B8 00000001     H   36734 36291
 =H'2'         2 00006E50 00000001     H   38898 37825  38257
 =H'2'         2 000074B0 00000001     H   40653 39282  39765
 =V(ACTPICK)
               4 00001FCC 00000001     V   17202 15704
 =V(ACTPICK)
               4 00003BAC 00000001     V   26445 26146
 =V(ADDER)
               4 00006E10 00000001     V   38885 38497
 =V(ADDER)
               4 000081B4 00000001     V   44906 42194
 =V(COLLOPTS)
               4 000002F8 00000001     V    7855  6894
 =V(CVEXNO)
               4 00002AA4 00000001     V   21028 18404
 =V(CVEXNO)
               4 00004A68 00000001     V   31186 28754  29513  29817
 =V(CVEXNO)
               4 000081D4 00000001     V   44914 44292  44385  44543  44633  44717
 =V(DEQSTR)
               4 00006464 00000001     V   36714 35465  35665
 =V(DEQSTR)
1ACT      (ACT2025) (12:40) (15MAR04) Ordinary Symbol and Literal Cross Reference                                           Page  284
               4 00006DEC 00000001     V   38876 37514  37556
 =V(DEQSTR)
               4 00007428 00000001     V   40638 39014
 =V(DETAB)
               4 00002B0C 00000001     V   21048 20083
 =V(DTB)       4 00007478 00000001     V   40648 40055
 =V(ENDLNO)
               4 00002AF0 00000001     V   21041 19216
 =V(EXECHK)
               4 00004ACC 00000001     V   31197 30362
 =V(EXECHK)
               4 00006DB8 00000001     V   38867 36874
 =V(EXFRST)
               4 00008184 00000001     V   44894 41177
 =V(EXFRST)
               4 000083A8 00000001     V   45427 45311
 =V(EXFRSTLN)
               4 00004AD0 00000001     V   31198 30366
 =V(EXFRSTLN)
               4 00006DBC 00000001     V   38868 36878
 =V(EXLASTLN)
               4 00004AD4 00000001     V   31199 30371
 =V(EXLASTLN)
               4 00006DC0 00000001     V   38869 36883
 =V(EXTREAD)
               4 00008188 00000001     V   44895 41235  41273
 =V(FREERG)
               4 000010F8 00000001     V   12629  7945
 =V(GETCPU)
               4 00001158 00000001     V   12653 11049  11095
 =V(GETHEAP)
               4 00006460 00000001     V   36713 35394
 =V(GETHEAP)
               4 00006DE8 00000001     V   38875 37419
 =V(GETHEAP)
               4 00008398 00000001     V   45423 45052  45302
 =V(GETVINFO)
               4 00001128 00000001     V   12641  8276  12023
 =V(HEXSTR)
               4 0000646C 00000001     V   36716 35596
 =V(HEXSTR)
               4 00006DF8 00000001     V   38879 37645
 =V(INITRG)
               4 00001104 00000001     V   12632  7954
 =V(ITSNIL)
               4 00004AD8 00000001     V   31200 30409
 =V(LOGCMD)
               4 00001194 00000001     V   12668 12583
 =V(LOGCMD)
               4 00002ADC 00000001     V   21036 18696  18766
 =V(LOWMULT)
               4 00006E0C 00000001     V   38884 38493
 =V(NNUMBER)
               4 0000397C 00000001     V   25655 25252
 =V(NNUMFACT)
               4 0000398C 00000001     V   25659 25499
 =V(NOTVALID)
               4 00005AA8 00000001     V   33919 32189  32977  33155  33226
 =V(NOTVALID)
1ACT      (ACT2025) (12:40) (15MAR04) Ordinary Symbol and Literal Cross Reference                                           Page  285
               4 0000644C 00000001     V   36708 34075  35481  35681  35874  35896  35995  36306
 =V(NSCAN)
               4 00001FE0 00000001     V   17207 16398
 =V(NSCAN)
               4 00004AE0 00000001     V   31202 30443
 =V(NSCAN)
               4 00005AB4 00000001     V   33922 32403  32480  32632  33127
 =V(NSCAN)
               4 0000648C 00000001     V   36724 36363
 =V(ORVCPASS)
               4 00006E1C 00000001     V   38888 38740
 =V(PAGEDEL)
               4 000031A0 00000001     V   23367 21609
 =V(PAGEMARK)
               4 00002AEC 00000001     V   21040 18930
 =V(PRESS)
               4 000083A4 00000001     V   45426 45155  45382
 =V(PUTLINE)
               4 00002AF4 00000001     V   21042 19372  20754
 =V(RDRNG)
               4 00008178 00000001     V   44891 40726
 =V(RETFMEM)
               4 00001F40 00000001     V   17169 12862  13591
 =V(RETFNAME)
               4 00001F5C 00000001     V   17176 13456
 =V(RGCHECK)
               4 00000338 00000001     V    7869  7711
 =V(RTRIM)
               4 00001178 00000001     V   12661 12221
 =V(SCAN)      4 00006DC4 00000001     V   38870 36923  37260  37865  37888  37921  37955  38124  38241  38287  38308
 =V(SCANCHK)
               4 00001FE4 00000001     V   17208 16412
 =V(SCANCHK)
               4 00004AE4 00000001     V   31203 30457
 =V(SCANCHK)
               4 00005AB8 00000001     V   33923 32417  32646
 =V(SCANCHK)
               4 00006490 00000001     V   36725 36377
 =V(SCINIT)
               4 00006DFC 00000001     V   38880 37842  38274
 =V(SCNRES)
               4 00006E04 00000001     V   38882 38053
 =V(SCTELL)
               4 00006E00 00000001     V   38881 37977
 =V(SEG)       4 00000304 00000001     V    7858  6968   7036   7102   7168   7234   7274   7314   7383   7449   7540
                                                  7660   7741   7775   7818
 =V(SEG)       4 00001F4C 00000001     V   17172 13255  13311  13437  13572  13626  13653  13694  13722  13797  13833
                                                 13873  13908  13951  13991  14031  14077  14116  14154  14192  15109
                                                 15143  16153  16205  16251
 =V(SEG)       4 00002AA8 00000001     V   21029 18428
 =V(SEG)       4 000040B0 00000001     V   28436 27176  27238  27291  27470  27526  27727  27813  28012  28068  28272
                                                 28328
 =V(SEG)       4 00004A64 00000001     V   31185 28749  28778  28796  29508  29812  29875  29937
 =V(SEG)       4 00005A98 00000001     V   33915 31465
 =V(SEG)       4 00006470 00000001     V   36717 35632
 =V(SEG)       4 00006DC8 00000001     V   38871 36975  37681  38003  38800
 =V(SEG)       4 000081C0 00000001     V   44909 42509  42585  44287  44409  44445  44484  44538  44567  44624  44657
                                                 44712  44741  44782  44822
 =V(SEGB)      4 00001F54 00000001     V   17174 13340
1ACT      (ACT2025) (12:40) (15MAR04) Ordinary Symbol and Literal Cross Reference                                           Page  286
 =V(SEGB)      4 00006E08 00000001     V   38883 38206
 =V(SEGB)      4 000081B8 00000001     V   44907 42487
 =V(SEGCOL)
               4 00001F6C 00000001     V   17180 13754
 =V(SEGCR)
               4 00000300 00000001     V    7857  6924   6949   7017   7083   7149   7215   7339   7364   7430   7496
                                                  7521   7590   7615
 =V(SEGCR)
               4 00001F7C 00000001     V   17182 14222  15165  16328  16923
 =V(SEGCR)
               4 00004A6C 00000001     V   31187 28876  29537  29991
 =V(SEGCR)
               4 00006448 00000001     V   36707 34071
 =V(SEGCR)
               4 00006E20 00000001     V   38889 38763  38818
 =V(SEGCR)
               4 000081C4 00000001     V   44910 42619  44264  44316
 =V(SEGDC)
               4 0000030C 00000001     V    7860  6999   7058   7124   7190   7256   7296   7405   7471
 =V(SEGDC)
               4 00001F50 00000001     V   17173 13281  13779  13855  13973  16175  16273
 =V(SEGDC)
               4 00004AA8 00000001     V   31194 29794  29857  29919  29958
 =V(SEGDC)
               4 000081D8 00000001     V   44915 44466  44804
 =V(SEGHX)
               4 00000314 00000001     V    7862  7565   7800
 =V(SEGMARK)
               4 00000328 00000001     V    7865  7674
 =V(SEGT)      4 00001F58 00000001     V   17175 13387  14059  16233
 =V(SEGWR)
               4 0000032C 00000001     V    7866  7699
 =V(SELDELTA)
               4 00003978 00000001     V   25654 25229
 =V(SETPFXNS)
               4 00001F38 00000001     V   17167 12742
 =V(SETVINFO)
               4 00001118 00000001     V   12637  8072  12229
 =V(SETVINFO)
               4 00001FC0 00000001     V   17199 15338  15682  16659
 =V(TIDLEWR)
               4 0000818C 00000001     V   44896 41376
 =V(TREADQ)
               4 00001FD8 00000001     V   17205 16354
 =V(UNPRESS)
               4 00004A50 00000001     V   31180 28546
 =V(XCHKSET)
               4 00001148 00000001     V   12649  9109
 =V(XCHKSET)
               4 000083A0 00000001     V   45425 45085
 =V(XCNTRECS)
               4 00001F98 00000001     V   17189 14550
 =V(XCNTRECS)
               4 000031BC 00000001     V   23374 23324
 =V(XDELETE)
               4 00001FA4 00000001     V   17192 14748
 =V(XDELETE)
               4 00003190 00000001     V   23363 21305
 =V(XDELRECS)
1ACT      (ACT2025) (12:40) (15MAR04) Ordinary Symbol and Literal Cross Reference                                           Page  287
               4 0000115C 00000001     V   12654 11088
 =V(XDELRECS)
               4 00003194 00000001     V   23364 21357
 =V(XDELSET)
               4 0000111C 00000001     V   12638  8081  11057
 =V(XFRSTSET)
               4 00001154 00000001     V   12652  9774  10100  11442
 =V(XFRSTSET)
               4 00001F80 00000001     V   17183 14372
 =V(XGET)      4 0000114C 00000001     V   12650  9158  11725  12184
 =V(XGET)      4 00001F8C 00000001     V   17186 14424
 =V(XGETINFO)
               4 000002FC 00000001     V    7856  6902
 =V(XLASTSET)
               4 00001150 00000001     V   12651  9446  10451
 =V(XLOCLAST)
               4 00001F94 00000001     V   17188 14538
 =V(XLOCLAST)
               4 00003198 00000001     V   23365 21487
 =V(XLOCLAST)
               4 00003988 00000001     V   25658 25373  25578
 =V(XLOCLINE)
               4 00001F90 00000001     V   17187 14500
 =V(XLOCLINE)
               4 00002A88 00000001     V   21021 17496  17911
 =V(XLOCLINE)
               4 00003188 00000001     V   23361 21171  21434
 =V(XLOCLINE)
               4 00003984 00000001     V   25657 25342  25547
 =V(XLOCPREV)
               4 00002B14 00000001     V   21050 20950
 =V(XPUT)      4 00001FA8 00000001     V   17193 14768
 =V(XPUTLINE)
               4 0000118C 00000001     V   12666 12544
 =V(XPUTLINE)
               4 00002AE0 00000001     V   21037 18726
 =V(XREPLACE)
               4 00001184 00000001     V   12664 12522
 =V(XSETSET)
               4 00001110 00000001     V   12635  8049   8199   8289   9134  11064  11712  11735  11872  11893
 =V(XSETSET)
               4 00001F84 00000001     V   17184 14395  14831
 =V(XSETSET)
               4 00002A90 00000001     V   21023 17896  18084
 =V(XSETSPLT)
               4 00000308 00000001     V    7859  6977
 =V(XSETSPLT)
               4 00001108 00000001     V   12633  7961
 =V(YESREQ)
               4 00000318 00000001     V    7863  7642
 =V(YESREQ)
               4 00001FBC 00000001     V   17198 15309
 =X'C0000000'
               4 00005AEC 00000001     X   33926 32518
 =X'0FFFFFFF'
               4 00005AA4 00000001     X   33918 31923
 =X'000000F0'
               4 00004A74 00000001     X   31189 29062
 =X'40000000'
1ACT      (ACT2025) (12:40) (15MAR04) Ordinary Symbol and Literal Cross Reference                                           Page  288
               4 00005AF8 00000001     X   33929 32655
 =Y((L'NSCNCB+3)/4*4)
               2 00002022 00000001     Y   17223 16442
 =Y((L'NSCNCB+3)/4*4)
               2 00005B14 00000001     Y   33932 32652  32682
 =Y((L'NSCNCB+3)/4*4)
               2 000064BC 00000001     Y   36736 36383
 =Y((R1+1-(R0)+16*((R0)/(R1+1))/((R0)/(R1+1)))*4)
               2 000011C8 00000001     Y   12671 11720  11880
 =Y((R1+1-(R0)+16*((R0)/(R1+1))/((R0)/(R1+1)))*4)
               2 00001FF8 00000001     Y   17214 13629
 =Y((R1+1-(R0)+16*((R0)/(R1+1))/((R0)/(R1+1)))*4)
               2 000064A4 00000001     Y   36730 35408
 =Y((R1+1-(R0)+16*((R0)/(R1+1))/((R0)/(R1+1)))*4)
               2 00006E3C 00000001     Y   38894 37479
 =Y((R1+1-(R15)+16*((R15)/(R1+1))/((R15)/(R1+1)))*4)
               2 000040EE 00000001     Y   28443 27327
 =Y((R1+1-(R15)+16*((R15)/(R1+1))/((R15)/(R1+1)))*4)
               2 00004AEA 00000001     Y   31205 29338
 =Y((R5+1-(R2)+16*((R2)/(R5+1))/((R2)/(R5+1)))*4)
               2 0000201E 00000001     Y   17221 14725
 =Y((12+3)/4*4)
               2 00002020 00000001     Y   17222 16404
 =Y((12+3)/4*4)
               2 00004AEC 00000001     Y   31206 30449
 =Y((12+3)/4*4)
               2 00005B12 00000001     Y   33931 32409  32486  32638  33133
 =Y((12+3)/4*4)
               2 000064BA 00000001     Y   36735 36369
 =Y((32+3)/4*4)
               2 000011C6 00000001     Y   12670 11091
 =Y(4)         2 00003BB8 00000001     Y   26448 26166
 =Y(4)         2 000081DC 00000001     Y   44916 41379
 =16X'FF'      1 000010C8 00000001     X   12626 11076

1ACT      (ACT2025) (12:40) (15MAR04) Macro and Copy Code Source Summary                                                    Page  289
- Con Source                                        Volume    Members                        HLASM R4.0  2004/03/15 12.40
0     PRIMARY INPUT                                           CSECT    DROP     END      EX       LTORG    POP
                                                              PRINT    PUSH     START    USING
   L1 WYL.GS.WYL.WYLBUR.MACLIB                      SYSB05    ABORT    AINFO    ASRWA    BASE     BOMB     CALLRTNP
                                                              COLINFO  COMMENT  CONTROL  CP       CPLOCAL  CV
                                                              CVLOCAL  DIOWAHDR ERROR    FAIL     JCB      KAPUT
                                                              OSCAN    OSCINIT  OSCKW    OSCRSTR  OSCSAVE  OSCTELL
                                                              PUTCB    RG       RSCHDR   SCAN     SCANCB   SCANCHK
                                                              SCBKUP   SCCBADR  SCINIT   SCKW     SCPOP    SCPUSH
                                                              SETSCKWS TCCR     TCOL     TCR      THEX     TMARK    TNUM
                                                              TREAD    TSEG     TTYPE    TWRITE   VLTORG   XENTER
                                                              XEXIT    XSA      XTRACE
   L2 WYL.GG.SYS.MACLIB                             SYSB05    $BC      $BFLKUP  $BV      $CCLKUP  $CRS     $CSS     $L
                                                              $LA      $LBLAD   $LEXP    $LOR     $REL     $RGLKUP
                                                              $USLKUP  ACALL    BEGIN    CEIL     CLEAR    CMPR
                                                              COMPROC  CSECT    DATA     DECR     DEFCC    DEX      DROP
                                                              DTEX     ELSE     ELSEIF   END      EX       EXIT     FLAG
                                                              FLIP     FLOOR    GEN      HIBAL    IDENT    IF       INCR
                                                              LABEL    LC       LOOP     LS       LT       LTH
                                                              LTORG    MOVE     MOVEL    PEND     POP      PRETURN
                                                              PRINT    PROC     PUSH     QLTORG   RECORD   REG      REGS
                                                              SET      SETMSG   START    TDEX     USING    VCALL
                                                              WHILE    WITH     XPROC
   L3 SYS3.IS.MACLIB                                SYSB05    SEG      SEGCB    SEGCOL   SEGCR    SEGDC    SEGHX
                                                              SEGLD    SEGMARK  SEGWR    SIB      SYSDEFN  XPOP
                                                              XPUSH

1ACT      (ACT2025) (12:40) (15MAR04) Dsect Cross Reference                                                                 Page  290
-Dsect     Length      Id       Defn                                                         HLASM R4.0  2004/03/15 12.40
0$$$@R0   00000000  FFFFFFFE     705
 $$$@R1   00000000  FFFFFFFD     718
 $$$@R10  00000000  FFFFFFF4     835
 $$$@R11  00000000  FFFFFFF3     848
 $$$@R12  00000000  FFFFFFF2     861
 $$$@R13  00000000  FFFFFFF1     874
 $$$@R14  00000000  FFFFFFF0     887
 $$$@R15  00000000  FFFFFFEF     900
 $$$@R2   00000000  FFFFFFFC     731
 $$$@R3   00000000  FFFFFFFB     744
 $$$@R4   00000000  FFFFFFFA     757
 $$$@R5   00000000  FFFFFFF9     770
 $$$@R6   00000000  FFFFFFF8     783
 $$$@R7   00000000  FFFFFFF7     796
 $$$@R8   00000000  FFFFFFF6     809
 $$$@R9   00000000  FFFFFFF5     822
 $$$RACLRWA
          000001A8  FFFFFFD8   14938
 $$$RACLSWA
          000001A8  FFFFFFE4    8569
 $$$RADELWA
          000001A8  FFFFFFDE   10632
 $$$RADUPWA
          000000EB  FFFFFFDA   12264
 $$$RAFRSTWA
          000001B0  FFFFFFE0    9952
 $$$RAINFO
          000001A8  FFFFFFE7    6677
 $$$RALASTWA
          000001B0  FFFFFFDF   10280
 $$$RANEXTWA
          000001B0  FFFFFFE1    9624
 $$$RANWA 00000024  FFFFFFCA   24179
 $$$RAOPENWA
          000001A8  FFFFFFE5    8107
 $$$RAPICKWA
          00000080  FFFFFFE3    8950
 $$$RAPREVWA
          000001B0  FFFFFFE2    9295
 $$$RAPURGEWA
          000001B0  FFFFFFDD   11247
 $$$RARCVYWA
          000001A8  FFFFFFD9   14252
 $$$RASRWA
          00000010  FFFFFFC6   30046
 $$$RAVRESTWA
          00000080  FFFFFFDB   12087
 $$$RAVSAVEWA
          00000080  FFFFFFDC   11927
 $$$RCHKWA
          0000001C  FFFFFFCB   23383
 $$$RCHOPWA
          00000212  FFFFFFCE   21645
 $$$RCNTWA
          00000008  FFFFFFCC   23231
1ACT      (ACT2025) (12:40) (15MAR04) Dsect Cross Reference                                                                 Page  291
 $$$RCP   00001000  FFFFFFEC    2481
 $$$RCTXTWA
          000001A8  FFFFFFD7   15754
 $$$RCV   00000FB0  FFFFFFEE    1206
 $$$RDEV  0000000C  FFFFFFEB    4695
 $$$RDISKWA
          00000128  FFFFFFE8    6613
 $$$RDRNGWA
          0000000C  FFFFFFCF   21065
 $$$RDRWA 00000003  FFFFFFC5   30126
 $$$RGLINEWA
          00000014  FFFFFFD4   17625
 $$$RGLINFOWA
          00000008  FFFFFFD6   17246
 $$$RGLNOWA
          00000008  FFFFFFD5   17405
 $$$RGTLNWA
          000000EF  FFFFFFC8   26472
 $$$RJCB  000000D0  FFFFFFE9    6333
 $$$RJOINWA
          00000212  FFFFFFCD   22270
 $$$RLEXWA
          000000F3  FFFFFFBE   45191
 $$$RLNINFO
          00000008  FFFFFFE6    6827
 $$$RLOCWA
          00000004  FFFFFFBF   44938
 $$$RMATWA
          000002F6  FFFFFFBD   45436
 $$$RMSWA 00000104  FFFFFFBC   47418
 $$$RNSCNCB
          000000B0  FFFFFFED    2402
 $$$RNUMRWA
          00000014  FFFFFFC9   24998
 $$$RPCWA 000000EF  FFFFFFC4   38938
 $$$RPLINEWA
          000000FF  FFFFFFD3   18123
 $$$RPLINWA
          00000801  FFFFFFD0   19870
 $$$RPMWA 000000F4  FFFFFFC1   42954
 $$$RPRSWA
          00000128  FFFFFFBB   47823
 $$$RPSWA 00000104  FFFFFFC0   43921
 $$$RPUTBWA
          00000A06  FFFFFFD1   19075
 $$$RPUTCB
          000002FC  FFFFFFD2   18971
 $$$RRRWA 00000414  FFFFFFC3   40786
 $$$RSTOWWA
          000000F7  FFFFFFC7   28455
 $$$RSTRMWA
          00000100  FFFFFFC2   42694
 $$$RTTYPE
          0000010C  FFFFFFEA    6226
 HIBAL    00000000  FFFFFFFF     691

1ACT      (ACT2025) (12:40) (15MAR04) Using Map                                                                             Page  292
-                                                                                            HLASM R4.0  2004/03/15 12.40
   Stmt  -----Location----- Action ----------------Using----------------- Reg Max    Last  Label and Using Text
           Count      Id           Type          Value    Range     Id        Disp   Stmt
0   922  00000000  FFFFFFFF USING  ORDINARY    00000000 00001000 FFFFFFEF  15 000          @R15,15
    926  00000000  FFFFFFFF USING  ORDINARY    00000000 00001000 FFFFFFF0  14 002   37586  @R14,14
    930  00000000  FFFFFFFF USING  ORDINARY    00000000 00001000 FFFFFFF1  13 010   48034  @R13,13
    934  00000000  FFFFFFFF USING  ORDINARY    00000000 00001000 FFFFFFF2  12 000          @R12,12
    938  00000000  FFFFFFFF USING  ORDINARY    00000000 00001000 FFFFFFF3  11 000          @R11,11
    942  00000000  FFFFFFFF USING  ORDINARY    00000000 00001000 FFFFFFF4  10 000          @R10,10
    946  00000000  FFFFFFFF USING  ORDINARY    00000000 00001000 FFFFFFF5   9 000          @R9,9
    950  00000000  FFFFFFFF USING  ORDINARY    00000000 00001000 FFFFFFF6   8 000          @R8,8
    954  00000000  FFFFFFFF USING  ORDINARY    00000000 00001000 FFFFFFF7   7 000          @R7,7
    958  00000000  FFFFFFFF USING  ORDINARY    00000000 00001000 FFFFFFF8   6 000          @R6,6
    962  00000000  FFFFFFFF USING  ORDINARY    00000000 00001000 FFFFFFF9   5 001   11436  @R5,5
    966  00000000  FFFFFFFF USING  ORDINARY    00000000 00001000 FFFFFFFA   4 000          @R4,4
    970  00000000  FFFFFFFF USING  ORDINARY    00000000 00001000 FFFFFFFB   3 010   13066  @R3,3
    974  00000000  FFFFFFFF USING  ORDINARY    00000000 00001000 FFFFFFFC   2 001   22758  @R2,2
    978  00000000  FFFFFFFF USING  ORDINARY    00000000 00001000 FFFFFFFD   1 00B   48048  @R1,1
    982  00000000  FFFFFFFF USING  ORDINARY    00000000 00001000 FFFFFFFE   0 000          @R0,0
    983  00000000  FFFFFFFF DROP                                            0              0
   1190  00000016  00000001 USING  ORDINARY    00000000 00001000 FFFFFFEC  11 E26   45897  CP,CPR
   1199  00000016  00000001 USING  ORDINARY    00000000 00001000 FFFFFFEE  12 8C0   47879  CV,CVR
   6883  00000030  00000001 USING  ORDINARY    00000030 00001000 00000001   7 41D    7818  $$$43B,7
   7833  000002E4  00000001 USING  ORDINARY    00000000 00001000 FFFFFFF7   7 000          @R7,7
   7928  00000478  00000001 USING  ORDINARY    00000478 00001000 00000001   7 CA4    8081  $$$49B,7
   8090  00000536  00000001 USING  ORDINARY    00000000 00001000 FFFFFFF7   7 000          @R7,7
   8167  0000055E  00000001 USING  ORDINARY    0000055E 00001000 00000001   7 BDA    8515  $$$54B,7
   8181  0000055E  00000001 USING  ORDINARY    FFFFFFD8 00001000 FFFFFFE5   8 028    8308  AOPENWA-(4+36),R8
   8213  0000057C  00000001 USING  ORDINARY    00000000 00001000 FFFFFFE7  15 100    8228  AINFO,R15
   8235  0000059A  00000001 USING  ORDINARY    00000000 00001000 FFFFFFEF  15 006   42032  @R15,15
   8318  000005F8  00000001 USING  ORDINARY    00000000 00001000 FFFFFFE7   4 014    8487  AINFO,R4
   8542  000006BC  00000001 USING  ORDINARY    00000000 00001000 FFFFFFFA   4 000          @R4,4
   8547  000006BC  00000001 USING  ORDINARY    00000000 00001000 FFFFFFF6   8 000          @R8,8
   8552  000006BC  00000001 USING  ORDINARY    00000000 00001000 FFFFFFF7   7 000          @R7,7
   8630  000006E4  00000001 USING  ORDINARY    000006E4 00001000 00000001   7 AB4    8903  $$$63B,7
   8644  000006E4  00000001 USING  ORDINARY    FFFFFFD8 00001000 FFFFFFE4   8 028    8709  ACLSWA-(4+36),R8
   8719  00000712  00000001 USING  ORDINARY    00000000 00001000 FFFFFFE7   4 03B    8741  AINFO,R4
   8747  0000071E  00000001 USING  ORDINARY    00000000 00001000 FFFFFFFA   4 000          @R4,4
   8916  00000782  00000001 USING  ORDINARY    00000000 00001000 FFFFFFF6   8 000          @R8,8
   8921  00000782  00000001 USING  ORDINARY    00000000 00001000 FFFFFFF7   7 000          @R7,7
   9000  000007AA  00000001 USING  ORDINARY    000007AA 00001000 00000001   7 9A2    9239  $$$76B,7
   9014  000007AA  00000001 USING  ORDINARY    FFFFFFD8 00001000 FFFFFFE3   8 000          APICKWA-(4+36),R8
   9273  0000086E  00000001 USING  ORDINARY    00000000 00001000 FFFFFFF6   8 000          @R8,8
   9278  0000086E  00000001 USING  ORDINARY    00000000 00001000 FFFFFFF7   7 000          @R7,7
   9359  00000896  00000001 USING  ORDINARY    00000896 00001000 00000001   7 8BA    9591  $$$86B,7
   9373  00000896  00000001 USING  ORDINARY    FFFFFFD8 00001000 FFFFFFE2   8 128    9574  APREVWA-(4+36),R8
   9525  0000090C  00000001 USING  ORDINARY    00000000 00001000 FFFFFFE7   4 03B    9574  AINFO,R4
   9588  00000928  00000001 USING  ORDINARY    00000000 00001000 FFFFFFFA   4 000          @R4,4
   9602  0000092E  00000001 USING  ORDINARY    00000000 00001000 FFFFFFF6   8 000          @R8,8
   9607  0000092E  00000001 USING  ORDINARY    00000000 00001000 FFFFFFF7   7 000          @R7,7
   9688  00000956  00000001 USING  ORDINARY    00000956 00001000 00000001   7 7FE    9919  $$$96B,7
   9702  00000956  00000001 USING  ORDINARY    FFFFFFD8 00001000 FFFFFFE1   8 128    9902  ANEXTWA-(4+36),R8
   9853  000009CE  00000001 USING  ORDINARY    00000000 00001000 FFFFFFE7   4 03B    9902  AINFO,R4
   9916  000009EA  00000001 USING  ORDINARY    00000000 00001000 FFFFFFFA   4 000          @R4,4
   9930  000009F0  00000001 USING  ORDINARY    00000000 00001000 FFFFFFF6   8 000          @R8,8
   9935  000009F0  00000001 USING  ORDINARY    00000000 00001000 FFFFFFF7   7 000          @R7,7
1ACT      (ACT2025) (12:40) (15MAR04) Using Map                                                                             Page  293
  10016  00000A18  00000001 USING  ORDINARY    00000A18 00001000 00000001   7 73C   10247  $$$106B,7
  10030  00000A18  00000001 USING  ORDINARY    FFFFFFD8 00001000 FFFFFFE0   8 128   10228  AFRSTWA-(4+36),R8
  10179  00000A8C  00000001 USING  ORDINARY    00000000 00001000 FFFFFFE7   4 03B   10228  AINFO,R4
  10244  00000AAC  00000001 USING  ORDINARY    00000000 00001000 FFFFFFFA   4 000          @R4,4
  10258  00000AB2  00000001 USING  ORDINARY    00000000 00001000 FFFFFFF6   8 000          @R8,8
  10263  00000AB2  00000001 USING  ORDINARY    00000000 00001000 FFFFFFF7   7 000          @R7,7
  10344  00000ADA  00000001 USING  ORDINARY    00000ADA 00001000 00000001   7 676   10599  $$$116B,7
  10358  00000ADA  00000001 USING  ORDINARY    FFFFFFD8 00001000 FFFFFFDF   8 128   10579  ALASTWA-(4+36),R8
  10530  00000B5A  00000001 USING  ORDINARY    00000000 00001000 FFFFFFE7   4 03B   10579  AINFO,R4
  10596  00000B78  00000001 USING  ORDINARY    00000000 00001000 FFFFFFFA   4 000          @R4,4
  10610  00000B7E  00000001 USING  ORDINARY    00000000 00001000 FFFFFFF6   8 000          @R8,8
  10615  00000B7E  00000001 USING  ORDINARY    00000000 00001000 FFFFFFF7   7 000          @R7,7
  10696  00000BA6  00000001 USING  ORDINARY    00000BA6 00001000 00000001   7 620   11104  $$$127B,7
  10710  00000BA6  00000001 USING  ORDINARY    FFFFFFD8 00001000 FFFFFFDE   8 028   10748  ADELWA-(4+36),R8
  10758  00000BBE  00000001 USING  ORDINARY    00000000 00001000 FFFFFFE7   4 03B   10999  AINFO,R4
  11123  00000D2C  00000001 USING  ORDINARY    00000000 00001000 FFFFFFFA   4 000          @R4,4
  11128  00000D2C  00000001 USING  ORDINARY    00000000 00001000 FFFFFFF6   8 000          @R8,8
  11133  00000D2C  00000001 USING  ORDINARY    00000000 00001000 FFFFFFF7   7 000          @R7,7
  11188  00000D54  00000001 USING  ORDINARY    00000D54 00001000 00000001   7 40C   11213  $$$141B,7
  11230  00000D64  00000001 USING  ORDINARY    00000000 00001000 FFFFFFF7   7 000          @R7,7
  11317  00000D8C  00000001 USING  ORDINARY    00000D8C 00001000 00000001   7 3E8   11572  $$$145B,7
  11331  00000D8C  00000001 USING  ORDINARY    FFFFFFD8 00001000 FFFFFFDD   8 028   11502  APURGEWA-(4+36),R8
  11512  00000DFC  00000001 USING  ORDINARY    00000000 00001000 FFFFFFE7   4 03B   11526  AINFO,R4
  11569  00000E28  00000001 USING  ORDINARY    00000000 00001000 FFFFFFFA   4 002   47553  @R4,4
  11582  00000E2C  00000001 USING  ORDINARY    00000000 00001000 FFFFFFF6   8 000          @R8,8
  11587  00000E2C  00000001 USING  ORDINARY    00000000 00001000 FFFFFFF7   7 000          @R7,7
  11646  00000E54  00000001 USING  ORDINARY    00000E54 00001000 00000001   7 374   11735  $$$157B,7
  11749  00000EAC  00000001 USING  ORDINARY    00000000 00001000 FFFFFFF7   7 000          @R7,7
  11806  00000ED4  00000001 USING  ORDINARY    00000ED4 00001000 00000001   7 2F4   11893  $$$162B,7
  11910  00000F26  00000001 USING  ORDINARY    00000000 00001000 FFFFFFF7   7 000          @R7,7
  11988  00000F4E  00000001 USING  ORDINARY    00000F4E 00001000 00000001   7 1DE   12053  $$$167B,7
  12002  00000F4E  00000001 USING  ORDINARY    FFFFFFD8 00001000 FFFFFFDC   8 028   12045  AVSAVEWA-(4+36),R8
  12065  00000F78  00000001 USING  ORDINARY    00000000 00001000 FFFFFFF6   8 000          @R8,8
  12070  00000F78  00000001 USING  ORDINARY    00000000 00001000 FFFFFFF7   7 000          @R7,7
  12148  00000FA0  00000001 USING  ORDINARY    00000FA0 00001000 00000001   7 1D8   12229  $$$171B,7
  12162  00000FA0  00000001 USING  ORDINARY    FFFFFFD8 00001000 FFFFFFDB   8 028   12175  AVRESTWA-(4+36),R8
  12242  00000FD0  00000001 USING  ORDINARY    00000000 00001000 FFFFFFF6   8 000          @R8,8
  12247  00000FD0  00000001 USING  ORDINARY    00000000 00001000 FFFFFFF7   7 000          @R7,7
  12324  00000FF8  00000001 USING  ORDINARY    00000FF8 00001000 00000001   7 188   12424  $$$176B,7
  12338  00000FF8  00000001 USING  ORDINARY    FFFFFFD8 00001000 FFFFFFDA   8 028   12366  ADUPWA-(4+36),R8
  12437  00001030  00000001 USING  ORDINARY    00000000 00001000 FFFFFFF6   8 000          @R8,8
  12442  00001030  00000001 USING  ORDINARY    00000000 00001000 FFFFFFF7   7 000          @R7,7
  12505  00001058  00000001 USING  ORDINARY    00001058 00001000 00000001   7 172   12590  $$$182B,7
  12602  000010AA  00000001 USING  ORDINARY    00000000 00001000 FFFFFFF7   7 000          @R7,7
  12715  000011FE  00000001 USING  ORDINARY    000011FE 00001000 00000001   7 ED4   13078  $$$186B,7
  13105  000012D4  00000001 USING  ORDINARY    00000000 00001000 FFFFFFF7   7 000          @R7,7
  13163  000012FC  00000001 USING  ORDINARY    000012FC 00001000 00000001   7 D2F   14222  $$$211B,7
  13182  000012FE  00000001 USING  ORDINARY    00000000 00001000 FFFFFFE7   5 128   14169  AINFO,R5
  14230  000015B8  00000001 USING  ORDINARY    00000000 00001000 FFFFFFF9   5 001   20578  @R5,5
  14235  000015B8  00000001 USING  ORDINARY    00000000 00001000 FFFFFFF7   7 000          @R7,7
  14314  000015E0  00000001 USING  ORDINARY    000015E0 00001000 00000001   7 A54   14831  $$$233B,7
  14328  000015E0  00000001 USING  ORDINARY    FFFFFFD8 00001000 FFFFFFD9   8 128   14427  ARCVYWA-(4+36),R8
  14437  00001632  00000001 USING  ORDINARY    00000000 00001000 FFFFFFE7   6 03B   14721  AINFO,R6
  14777  00001778  00000001 USING  ORDINARY    00000000 00001000 FFFFFFF8   6 000          @R6,6
  14844  000017C4  00000001 USING  ORDINARY    00000000 00001000 FFFFFFF6   8 000          @R8,8
  14849  000017C4  00000001 USING  ORDINARY    00000000 00001000 FFFFFFF7   7 000          @R7,7
  14905  000017EC  00000001 USING  ORDINARY    000017EC 00001000 00000001   7 000          $$$248B,7
  14921  000017F0  00000001 USING  ORDINARY    00000000 00001000 FFFFFFF7   7 000          @R7,7
  14994  00001818  00000001 USING  ORDINARY    00001818 00001000 00000001   7 85E   15338  $$$251B,7
1ACT      (ACT2025) (12:40) (15MAR04) Using Map                                                                             Page  294
  15008  00001818  00000001 USING  ORDINARY    FFFFFFD8 00001000 FFFFFFD8   8 128   15245  ACLRWA-(4+36),R8
  15255  000018D0  00000001 USING  ORDINARY    00000000 00001000 FFFFFFE7   3 000          AINFO,R3
  15297  000018E2  00000001 USING  ORDINARY    00000000 00001000 FFFFFFFB   3 0C8   42837  @R3,3
  15347  00001908  00000001 USING  ORDINARY    00000000 00001000 FFFFFFF6   8 000          @R8,8
  15352  00001908  00000001 USING  ORDINARY    00000000 00001000 FFFFFFF7   7 000          @R7,7
  15402  00001930  00000001 USING  ORDINARY    00001930 00001000 00000001   7 6A0   15724  $$$262B,7
  15737  000019F2  00000001 USING  ORDINARY    00000000 00001000 FFFFFFF7   7 000          @R7,7
  15916  00001A1A  00000001 USING  ORDINARY    00001A1A 00001000 00000001   7 67C   16659  $$$279B,7
  15930  00001A1A  00000001 USING  ORDINARY    FFFFFFD8 00001000 FFFFFFD7   8 03C   16646  CTXTWA-(4+36),R8
  16680  00001C62  00000001 USING  ORDINARY    00000000 00001000 FFFFFFF6   8 000          @R8,8
  16685  00001C62  00000001 USING  ORDINARY    00000000 00001000 FFFFFFF7   7 000          @R7,7
  16898  00001E42  00000001 USING  ORDINARY    00001E42 00001000 00000001   7 26D   16923  $$$301B,7
  16932  00001E58  00000001 USING  ORDINARY    00000000 00001000 FFFFFFF7   7 000          @R7,7
  16977  00001E80  00000001 USING  ORDINARY    00001E80 00001000 00000001   7 000          $$$304B,7
  17004  00001E8C  00000001 USING  ORDINARY    00000000 00001000 FFFFFFF7   7 000          @R7,7
  17049  00001EB4  00000001 USING  ORDINARY    00001EB4 00001000 00000001   7 000          $$$307B,7
  17076  00001EC0  00000001 USING  ORDINARY    00000000 00001000 FFFFFFF7   7 000          @R7,7
  17121  00001EE8  00000001 USING  ORDINARY    00001EE8 00001000 00000001   7 000          $$$310B,7
  17137  00001EEC  00000001 USING  ORDINARY    00000000 00001000 FFFFFFF7   7 000          @R7,7
  17313  000020F2  00000001 USING  ORDINARY    000020F2 00001000 00000001   7 026   17346  $$$313B,7
  17327  000020F2  00000001 USING  ORDINARY    FFFFFFD8 00001000 FFFFFFD6   8 000          GLINFOWA-(4+36),R8
  17369  0000210A  00000001 USING  ORDINARY    00000000 00001000 FFFFFFF6   8 000          @R8,8
  17374  0000210A  00000001 USING  ORDINARY    00000000 00001000 FFFFFFF7   7 000          @R7,7
  17468  00002136  00000001 USING  ORDINARY    00002136 00001000 00000001   7 9E2   17576  $$$317B,7
  17482  00002136  00000001 USING  ORDINARY    FFFFFFD8 00001000 FFFFFFD5   8 02C   17575  GLNOWA-(4+36),R8
  17603  00002192  00000001 USING  ORDINARY    00000000 00001000 FFFFFFF6   8 000          @R8,8
  17608  00002192  00000001 USING  ORDINARY    00000000 00001000 FFFFFFF7   7 000          @R7,7
  17692  000021BA  00000001 USING  ORDINARY    000021BA 00001000 00000001   7 8D2   17703  $$$325B,7
  17713  000021C4  00000001 USING  ORDINARY    00000000 00001000 FFFFFFF7   7 000          @R7,7
  17774  000021EC  00000001 USING  ORDINARY    000021EC 00001000 00000001   7 8A0   17789  $$$328B,7
  17799  000021F8  00000001 USING  ORDINARY    00000000 00001000 FFFFFFF7   7 000          @R7,7
  17852  00002220  00000001 USING  ORDINARY    00002220 00001000 00000001   7 8F8   18084  $$$331B,7
  17866  00002220  00000001 USING  ORDINARY    FFFFFFD8 00001000 FFFFFFD4   8 030   18086  GLINEWA-(4+36),R8
  18101  000022D8  00000001 USING  ORDINARY    00000000 00001000 FFFFFFF6   8 000          @R8,8
  18106  000022D8  00000001 USING  ORDINARY    00000000 00001000 FFFFFFF7   7 000          @R7,7
  18195  00002300  00000001 USING  ORDINARY    00002300 00001000 00000001   7 79C   18206  $$$343B,7
  18214  00002306  00000001 USING  ORDINARY    00000000 00001000 FFFFFFF7   7 000          @R7,7
  18270  0000232E  00000001 USING  ORDINARY    0000232E 00001000 00000001   7 772   18282  $$$346B,7
  18290  00002338  00000001 USING  ORDINARY    00000000 00001000 FFFFFFF7   7 000          @R7,7
  18343  00002360  00000001 USING  ORDINARY    00002360 00001000 00000001   7 7EE   18930  $$$349B,7
  18357  00002360  00000001 USING  ORDINARY    FFFFFFD8 00001000 FFFFFFD3   8 03C   18927  PLINEWA-(4+36),R8
  18949  00002556  00000001 USING  ORDINARY    00000000 00001000 FFFFFFF6   8 000          @R8,8
  18954  00002556  00000001 USING  ORDINARY    00000000 00001000 FFFFFFF7   7 000          @R7,7
  19130  0000257E  00000001 USING  ORDINARY    0000257E 00001000 00000001   7 602   19796  $$$371B,7
  19144  0000257E  00000001 USING  ORDINARY    FFFFFFD8 00001000 FFFFFFD1   8 02E   19793  PUTBWA-(4+36),R8
  19166  00002586  00000001 USING  ORDINARY    00000000 00001000 FFFFFFD2   6 0FC   19703  PUTCB,R6
  19814  00002706  00000001 USING  ORDINARY    00000000 00001000 FFFFFFF8   6 000          @R6,6
  19819  00002706  00000001 USING  ORDINARY    00000000 00001000 FFFFFFF6   8 000          @R8,8
  19824  00002706  00000001 USING  ORDINARY    00000000 00001000 FFFFFFF7   7 000          @R7,7
  19935  0000282E  00000001 USING  ORDINARY    0000282E 00001000 00000001   7 36A   20830  $$$401B,7
  19949  0000282E  00000001 USING  ORDINARY    FFFFFFD8 00001000 FFFFFFD0   8 029   20701  PLINWA-(4+36),R8
  19995  0000283C  00000001 USING  ORDINARY    00000000 00001000 FFFFFFD2   6 0FC   20813  PUTCB,R6
  20852  00002A1E  00000001 USING  ORDINARY    00000000 00001000 FFFFFFF8   6 001   29065  @R6,6
  20857  00002A1E  00000001 USING  ORDINARY    00000000 00001000 FFFFFFF6   8 000          @R8,8
  20862  00002A1E  00000001 USING  ORDINARY    00000000 00001000 FFFFFFF7   7 000          @R7,7
  20921  00002A46  00000001 USING  ORDINARY    00002A46 00001000 00000001   7 106   20986  $$$447B,7
  20998  00002A6E  00000001 USING  ORDINARY    00000000 00001000 FFFFFFF7   7 000          @R7,7
  21129  00002BB8  00000001 USING  ORDINARY    00002BB8 00001000 00000001   7 5E8   21609  $$$453B,7
  21143  00002BB8  00000001 USING  ORDINARY    FFFFFFD8 00001000 FFFFFFCF   8 030   21606  DRNGWA-(4+36),R8
1ACT      (ACT2025) (12:40) (15MAR04) Using Map                                                                             Page  295
  21623  00002D58  00000001 USING  ORDINARY    00000000 00001000 FFFFFFF6   8 000          @R8,8
  21628  00002D58  00000001 USING  ORDINARY    00000000 00001000 FFFFFFF7   7 000          @R7,7
  21728  00002D80  00000001 USING  ORDINARY    00002D80 00001000 00000001   7 440   22203  $$$473B,7
  21742  00002D80  00000001 USING  ORDINARY    FFFFFFD8 00001000 FFFFFFCE   8 13A   22239  CHOPWA-(4+36),R8
  22248  00002EDE  00000001 USING  ORDINARY    00000000 00001000 FFFFFFF6   8 000          @R8,8
  22253  00002EDE  00000001 USING  ORDINARY    00000000 00001000 FFFFFFF7   7 000          @R7,7
  22381  00002F06  00000001 USING  ORDINARY    00002F06 00001000 00000001   7 2C6   23163  $$$499B,7
  22395  00002F06  00000001 USING  ORDINARY    FFFFFFD8 00001000 FFFFFFCD   8 13A   23200  JOINWA-(4+36),R8
  23209  00003136  00000001 USING  ORDINARY    00000000 00001000 FFFFFFF6   8 000          @R8,8
  23214  00003136  00000001 USING  ORDINARY    00000000 00001000 FFFFFFF7   7 000          @R7,7
  23295  0000315E  00000001 USING  ORDINARY    0000315E 00001000 00000001   7 05E   23324  $$$541B,7
  23309  0000315E  00000001 USING  ORDINARY    FFFFFFD8 00001000 FFFFFFCC   8 02C   23317  CNTWA-(4+36),R8
  23334  0000317A  00000001 USING  ORDINARY    00000000 00001000 FFFFFFF6   8 000          @R8,8
  23339  0000317A  00000001 USING  ORDINARY    00000000 00001000 FFFFFFF7   7 000          @R7,7
  23469  000031EC  00000001 USING  ORDINARY    000031EC 00001000 00000001   7 7A8   24132  $$$544B,7
  23483  000031EC  00000001 USING  ORDINARY    FFFFFFD8 00001000 FFFFFFCB   8 040   24144  CHKWA-(4+36),R8
  24153  00003414  00000001 USING  ORDINARY    00000000 00001000 FFFFFFF6   8 000          @R8,8
  24158  00003414  00000001 USING  ORDINARY    00000000 00001000 FFFFFFF7   7 000          @R7,7
  24261  00003442  00000001 USING  ORDINARY    00003442 00001000 00000001   7 532   24944  $$$573B,7
  24275  00003442  00000001 USING  ORDINARY    FFFFFFD8 00001000 FFFFFFCA   8 048   24963  ANWA-(4+36),R8
  24976  00003732  00000001 USING  ORDINARY    00000000 00001000 FFFFFFF6   8 000          @R8,8
  24981  00003732  00000001 USING  ORDINARY    00000000 00001000 FFFFFFF7   7 000          @R7,7
  25082  0000375A  00000001 USING  ORDINARY    0000375A 00001000 00000001   7 22E   25382  $$$599B,7
  25096  0000375A  00000001 USING  ORDINARY    FFFFFFD8 00001000 FFFFFFC9   8 038   25305  NUMRWA-(4+36),R8
  25415  00003890  00000001 USING  ORDINARY    00000000 00001000 FFFFFFF6   8 000          @R8,8
  25420  00003890  00000001 USING  ORDINARY    00000000 00001000 FFFFFFF7   7 000          @R7,7
  25487  000038B8  00000001 USING  ORDINARY    000038B8 00001000 00000001   7 0D8   25587  $$$612B,7
  25619  00003936  00000001 USING  ORDINARY    00000000 00001000 FFFFFFF7   7 000          @R7,7
  25728  000039D8  00000001 USING  ORDINARY    000039D8 00001000 00000001   7 1C0   25772  $$$619B,7
  25792  000039FE  00000001 USING  ORDINARY    00000000 00001000 FFFFFFF7   7 000          @R7,7
  25856  00003A26  00000001 USING  ORDINARY    00003A26 00001000 00000001   7 176   25902  $$$624B,7
  25922  00003A50  00000001 USING  ORDINARY    00000000 00001000 FFFFFFF7   7 000          @R7,7
  25986  00003A78  00000001 USING  ORDINARY    00003A78 00001000 00000001   7 140   26166  $$$629B,7
  26183  00003AFA  00000001 USING  ORDINARY    00000000 00001000 FFFFFFF7   7 000          @R7,7
  26247  00003B22  00000001 USING  ORDINARY    00003B22 00001000 00000001   7 076   26291  $$$640B,7
  26311  00003B48  00000001 USING  ORDINARY    00000000 00001000 FFFFFFF7   7 000          @R7,7
  26375  00003B70  00000001 USING  ORDINARY    00003B70 00001000 00000001   7 044   26403  $$$645B,7
  26418  00003B84  00000001 USING  ORDINARY    00000000 00001000 FFFFFFF7   7 000          @R7,7
  26524  00003BD4  00000001 USING  ORDINARY    00003BD4 00001000 00000001   7 4C4   26551  $$$649B,7
  26538  00003BD4  00000001 USING  ORDINARY    FFFFFFD8 00001000 FFFFFFC8   8 02C   26547  GTLNWA-(4+36),R8
  26560  00003BE8  00000001 USING  ORDINARY    00000000 00001000 FFFFFFF6   8 000          @R8,8
  26565  00003BE8  00000001 USING  ORDINARY    00000000 00001000 FFFFFFF7   7 000          @R7,7
  26629  00003C10  00000001 USING  ORDINARY    00003C10 00001000 00000001   7 48C   26664  $$$652B,7
  26643  00003C10  00000001 USING  ORDINARY    FFFFFFD8 00001000 FFFFFFC8   8 02C   26669  GTLNWA-(4+36),R8
  26683  00003C30  00000001 USING  ORDINARY    00000000 00001000 FFFFFFF6   8 000          @R8,8
  26688  00003C30  00000001 USING  ORDINARY    00000000 00001000 FFFFFFF7   7 000          @R7,7
  26752  00003C58  00000001 USING  ORDINARY    00003C58 00001000 00000001   7 448   26787  $$$656B,7
  26766  00003C58  00000001 USING  ORDINARY    FFFFFFD8 00001000 FFFFFFC8   8 02C   26792  GTLNWA-(4+36),R8
  26806  00003C78  00000001 USING  ORDINARY    00000000 00001000 FFFFFFF6   8 000          @R8,8
  26811  00003C78  00000001 USING  ORDINARY    00000000 00001000 FFFFFFF7   7 000          @R7,7
  26875  00003CA0  00000001 USING  ORDINARY    00003CA0 00001000 00000001   7 404   26910  $$$660B,7
  26889  00003CA0  00000001 USING  ORDINARY    FFFFFFD8 00001000 FFFFFFC8   8 02C   26915  GTLNWA-(4+36),R8
  26929  00003CC0  00000001 USING  ORDINARY    00000000 00001000 FFFFFFF6   8 000          @R8,8
  26934  00003CC0  00000001 USING  ORDINARY    00000000 00001000 FFFFFFF7   7 000          @R7,7
  26998  00003CE8  00000001 USING  ORDINARY    00003CE8 00001000 00000001   7 3C0   27033  $$$664B,7
  27012  00003CE8  00000001 USING  ORDINARY    FFFFFFD8 00001000 FFFFFFC8   8 02C   27038  GTLNWA-(4+36),R8
  27052  00003D08  00000001 USING  ORDINARY    00000000 00001000 FFFFFFF6   8 000          @R8,8
  27057  00003D08  00000001 USING  ORDINARY    00000000 00001000 FFFFFFF7   7 000          @R7,7
  27118  00003D30  00000001 USING  ORDINARY    00003D30 00001000 00000001   7 3E6   27327  $$$668B,7
1ACT      (ACT2025) (12:40) (15MAR04) Using Map                                                                             Page  296
  27346  00003DD4  00000001 USING  ORDINARY    00000000 00001000 FFFFFFF7   7 000          @R7,7
  27409  00003DFC  00000001 USING  ORDINARY    00003DFC 00001000 00000001   7 339   27575  $$$678B,7
  27605  00003E7C  00000001 USING  ORDINARY    00000000 00001000 FFFFFFF7   7 000          @R7,7
  27667  00003EA4  00000001 USING  ORDINARY    00003EA4 00001000 00000001   7 272   27858  $$$687B,7
  27888  00003F32  00000001 USING  ORDINARY    00000000 00001000 FFFFFFF7   7 000          @R7,7
  27951  00003F5A  00000001 USING  ORDINARY    00003F5A 00001000 00000001   7 1DB   28118  $$$697B,7
  28148  00003FDE  00000001 USING  ORDINARY    00000000 00001000 FFFFFFF7   7 000          @R7,7
  28211  00004006  00000001 USING  ORDINARY    00004006 00001000 00000001   7 12F   28378  $$$706B,7
  28408  0000408A  00000001 USING  ORDINARY    00000000 00001000 FFFFFFF7   7 000          @R7,7
  28524  0000417A  00000001 USING  ORDINARY    0000417A 00001000 00000001   7 8E6   28605  $$$715B,7
  28538  0000417A  00000001 USING  ORDINARY    FFFFFFD8 00001000 FFFFFFC7   8 034   28602  STOWWA-(4+36),R8
  28614  000041B8  00000001 USING  ORDINARY    00000000 00001000 FFFFFFF6   8 008   29070  @R8,8
  28619  000041B8  00000001 USING  ORDINARY    00000000 00001000 FFFFFFF7   7 000          @R7,7
  28670  000041E0  00000001 USING  ORDINARY    000041E0 00001000 00000001   7 92B   28876  $$$722B,7
  28888  00004268  00000001 USING  ORDINARY    00000000 00001000 FFFFFFF7   7 000          @R7,7
  28950  00004290  00000001 USING  ORDINARY    00004290 00001000 00000001   7 899   29112  $$$731B,7
  28987  000042A6  00000001 DROP                                            5              5
  28991  000042AC  00000001 USING  ORDINARY    00000000 00001000 FFFFFFF9   5 000          @R5,5
  29129  0000433E  00000001 USING  ORDINARY    00000000 00001000 FFFFFFF7   7 000          @R7,7
  29187  00004366  00000001 USING  ORDINARY    00004366 00001000 00000001   7 828   29243  $$$740B,7
  29203  0000437C  00000001 DROP                                            5              5
  29207  00004382  00000001 USING  ORDINARY    00000000 00001000 FFFFFFF9   5 000          @R5,5
  29259  000043C2  00000001 USING  ORDINARY    00000000 00001000 FFFFFFF7   7 000          @R7,7
  29316  000043EA  00000001 USING  ORDINARY    000043EA 00001000 00000001   7 700   29338  $$$745B,7
  29348  0000440A  00000001 USING  ORDINARY    00000000 00001000 FFFFFFF7   7 000          @R7,7
  29412  00004432  00000001 USING  ORDINARY    00004432 00001000 00000001   7 64E   29635  $$$748B,7
  29676  000044D2  00000001 USING  ORDINARY    00000000 00001000 FFFFFFF7   7 000          @R7,7
  29731  000044FA  00000001 USING  ORDINARY    000044FA 00001000 00000001   7 661   29991  $$$760B,7
  30022  000045BE  00000001 USING  ORDINARY    00000000 00001000 FFFFFFF7   7 000          @R7,7
  30233  000045E6  00000001 USING  ORDINARY    000045E6 00001000 00000001   7 582   30553  $$$767B,7
  30247  000045E6  00000001 USING  ORDINARY    FFFFFFD8 00001000 FFFFFFC5   8 028   30251  DRWA-(4+36),R8
  30259  000045EA  00000001 USING  ORDINARY    00000000 00001000 FFFFFFC5   6 002   35587  DRWA,R6
  30523  000046DC  00000001 USING  ORDINARY    00000000 00001000 FFFFFFC6   5 000   30548  ASRWA,R5
  30561  000046FE  00000001 USING  ORDINARY    00000000 00001000 FFFFFFF9   5 000          @R5,5
  30574  00004700  00000001 USING  ORDINARY    00000000 00001000 FFFFFFF6   8 020   37973  @R8,8
  30579  00004700  00000001 USING  ORDINARY    00000000 00001000 FFFFFFF7   7 000          @R7,7
  30825  00004932  00000001 USING  ORDINARY    00004932 00001000 00000001   7 24D   30886  $$$780B,7
  30901  00004956  00000001 USING  ORDINARY    00000000 00001000 FFFFFFF7   7 000          @R7,7
  30946  0000497E  00000001 USING  ORDINARY    0000497E 00001000 00000001   7 201   31045  $$$788B,7
  31080  000049D8  00000001 USING  ORDINARY    00000000 00001000 FFFFFFF7   7 000          @R7,7
  31126  00004A00  00000001 USING  ORDINARY    00004A00 00001000 00000001   7 000          $$$798B,7
  31156  00004A0C  00000001 USING  ORDINARY    00000000 00001000 FFFFFFF7   7 000          @R7,7
  31367  00004CC6  00000001 USING  ORDINARY    00004CC6 00001000 00000001   7 E50   31380  $$$802B,7
  31389  00004CD2  00000001 USING  ORDINARY    00000000 00001000 FFFFFFF7   7 000          @R7,7
  31434  00004CFA  00000001 USING  ORDINARY    00004CFA 00001000 00000001   7 E33   31471  $$$805B,7
  31480  00004D10  00000001 USING  ORDINARY    00000000 00001000 FFFFFFF7   7 000          @R7,7
  31525  00004D38  00000001 USING  ORDINARY    00004D38 00001000 00000001   7 E20   31721  $$$808B,7
  31744  00004DD6  00000001 USING  ORDINARY    00000000 00001000 FFFFFFF7   7 000          @R7,7
  31789  00004DFE  00000001 USING  ORDINARY    00004DFE 00001000 00000001   7 000          $$$819B,7
  31819  00004E0A  00000001 USING  ORDINARY    00000000 00001000 FFFFFFF7   7 000          @R7,7
  31864  00004E32  00000001 USING  ORDINARY    00004E32 00001000 00000001   7 C72   31958  $$$823B,7
  31887  00004E36  00000001 USING  ORDINARY    00000000 00001000 FFFFFFED   2 000          NSCNCB,R2
  31977  00004E70  00000001 USING  ORDINARY    00000000 00001000 FFFFFFF7   7 000          @R7,7
  31996  00004E7E  00000001 USING  ORDINARY    00000000 00001000 FFFFFFFC   2 000          @R2,2
  32029  00004E98  00000001 USING  ORDINARY    00004E98 00001000 00000001   7 02E   32067  $$$829B,7
  32101  00004ED2  00000001 USING  ORDINARY    00000000 00001000 FFFFFFF7   7 000          @R7,7
  32146  00004EFA  00000001 USING  ORDINARY    00004EFA 00001000 00000001   7 C02   32291  $$$834B,7
  32162  00004EFA  00000001 USING  ORDINARY    00000000 00001000 FFFFFFED   2 000          NSCNCB,R2
  32307  00004F82  00000001 USING  ORDINARY    00000000 00001000 FFFFFFF7   7 000          @R7,7
1ACT      (ACT2025) (12:40) (15MAR04) Using Map                                                                             Page  297
  32326  00004F90  00000001 USING  ORDINARY    00000000 00001000 FFFFFFFC   2 00E   39757  @R2,2
  32367  00004FAA  00000001 USING  ORDINARY    00004FAA 00001000 00000001   7 B6A   32682  $$$841B,7
  32698  00005154  00000001 USING  ORDINARY    00000000 00001000 FFFFFFF7   7 000          @R7,7
  32835  0000526E  00000001 USING  ORDINARY    0000526E 00001000 00000001   7 8FF   32848  $$$851B,7
  32857  0000527A  00000001 USING  ORDINARY    00000000 00001000 FFFFFFF7   7 000          @R7,7
  32902  000052A2  00000001 USING  ORDINARY    000052A2 00001000 00000001   7 000          $$$854B,7
  32921  000052AC  00000001 USING  ORDINARY    00000000 00001000 FFFFFFF7   7 000          @R7,7
  32966  000052D4  00000001 USING  ORDINARY    000052D4 00001000 00000001   7 7D4   32977  $$$857B,7
  32985  000052DA  00000001 USING  ORDINARY    00000000 00001000 FFFFFFF7   7 000          @R7,7
  33030  00005302  00000001 USING  ORDINARY    00005302 00001000 00000001   7 88A   33043  $$$860B,7
  33052  0000530E  00000001 USING  ORDINARY    00000000 00001000 FFFFFFF7   7 000          @R7,7
  33097  00005336  00000001 USING  ORDINARY    00005336 00001000 00000001   7 7DC   33155  $$$863B,7
  33170  0000539A  00000001 USING  ORDINARY    00000000 00001000 FFFFFFF7   7 000          @R7,7
  33215  000053C2  00000001 USING  ORDINARY    000053C2 00001000 00000001   7 6E6   33226  $$$867B,7
  33234  000053C8  00000001 USING  ORDINARY    00000000 00001000 FFFFFFF7   7 000          @R7,7
  33979  00005BC8  00000001 USING  ORDINARY    00005BC8 00001000 00000001   7 828   33992  $$$870B,7
  34001  00005BD4  00000001 USING  ORDINARY    00000000 00001000 FFFFFFF7   7 000          @R7,7
  34046  00005BFC  00000001 USING  ORDINARY    00005BFC 00001000 00000001   7 8E8   34075  $$$873B,7
  34083  00005C14  00000001 USING  ORDINARY    00000000 00001000 FFFFFFF7   7 000          @R7,7
  34128  00005C3C  00000001 USING  ORDINARY    00005C3C 00001000 00000001   7 02E   34166  $$$876B,7
  34200  00005C76  00000001 USING  ORDINARY    00000000 00001000 FFFFFFF7   7 000          @R7,7
  34254  00005C9E  00000001 USING  ORDINARY    00005C9E 00001000 00000001   7 85D   34313  $$$881B,7
  34332  00005CD4  00000001 USING  ORDINARY    00000000 00001000 FFFFFFF7   7 000          @R7,7
  34377  00005CFC  00000001 USING  ORDINARY    00005CFC 00001000 00000001   7 7FF   34436  $$$885B,7
  34455  00005D32  00000001 USING  ORDINARY    00000000 00001000 FFFFFFF7   7 000          @R7,7
  34500  00005D5A  00000001 USING  ORDINARY    00005D5A 00001000 00000001   7 6FA   34525  $$$889B,7
  34544  00005D72  00000001 USING  ORDINARY    00000000 00001000 FFFFFFF7   7 000          @R7,7
  34589  00005D9A  00000001 USING  ORDINARY    00005D9A 00001000 00000001   7 6BE   34614  $$$892B,7
  34633  00005DB2  00000001 USING  ORDINARY    00000000 00001000 FFFFFFF7   7 000          @R7,7
  34678  00005DDA  00000001 USING  ORDINARY    00005DDA 00001000 00000001   7 682   34703  $$$895B,7
  34722  00005DF2  00000001 USING  ORDINARY    00000000 00001000 FFFFFFF7   7 000          @R7,7
  34767  00005E1A  00000001 USING  ORDINARY    00005E1A 00001000 00000001   7 642   34798  $$$898B,7
  34817  00005E36  00000001 USING  ORDINARY    00000000 00001000 FFFFFFF7   7 000          @R7,7
  34862  00005E5E  00000001 USING  ORDINARY    00005E5E 00001000 00000001   7 5FE   34887  $$$901B,7
  34906  00005E76  00000001 USING  ORDINARY    00000000 00001000 FFFFFFF7   7 000          @R7,7
  34951  00005E9E  00000001 USING  ORDINARY    00005E9E 00001000 00000001   7 5BE   34982  $$$904B,7
  35001  00005EBA  00000001 USING  ORDINARY    00000000 00001000 FFFFFFF7   7 000          @R7,7
  35046  00005EE2  00000001 USING  ORDINARY    00005EE2 00001000 00000001   7 57A   35071  $$$907B,7
  35090  00005EFA  00000001 USING  ORDINARY    00000000 00001000 FFFFFFF7   7 000          @R7,7
  35135  00005F22  00000001 USING  ORDINARY    00005F22 00001000 00000001   7 53A   35166  $$$910B,7
  35185  00005F3E  00000001 USING  ORDINARY    00000000 00001000 FFFFFFF7   7 000          @R7,7
  35209  00005F4C  00000001 USING  ORDINARY    00000000 00001000 FFFFFFC6   5 010   36106  ASRWA,R5
  35242  00005F66  00000001 USING  ORDINARY    00005F66 00001000 00000001   7 634   35740  $$$913B,7
  35759  000060C0  00000001 USING  ORDINARY    00000000 00001000 FFFFFFF7   7 000          @R7,7
  35804  000060E8  00000001 USING  ORDINARY    000060E8 00001000 00000001   7 43A   35906  $$$939B,7
  35925  00006144  00000001 USING  ORDINARY    00000000 00001000 FFFFFFF7   7 000          @R7,7
  35970  0000616C  00000001 USING  ORDINARY    0000616C 00001000 00000001   7 3D3   36111  $$$946B,7
  36130  000061DA  00000001 USING  ORDINARY    00000000 00001000 FFFFFFF7   7 000          @R7,7
  36150  000061E8  00000001 USING  ORDINARY    00000000 00001000 FFFFFFF9   5 000          @R5,5
  36192  00006202  00000001 USING  ORDINARY    00006202 00001000 00000001   7 2BA   36389  $$$955B,7
  36408  000062FA  00000001 USING  ORDINARY    00000000 00001000 FFFFFFF7   7 000          @R7,7
  36453  00006322  00000001 USING  ORDINARY    00006322 00001000 00000001   7 250   36549  $$$962B,7
  36568  00006386  00000001 USING  ORDINARY    00000000 00001000 FFFFFFF7   7 000          @R7,7
  36613  000063AE  00000001 USING  ORDINARY    000063AE 00001000 00000001   7 1C4   36654  $$$968B,7
  36673  000063E0  00000001 USING  ORDINARY    00000000 00001000 FFFFFFF7   7 000          @R7,7
  36692  000063EE  00000001 USING  ORDINARY    00000000 00001000 FFFFFFF8   6 002   37899  @R6,6
  36771  000065BA  00000001 USING  ORDINARY    000065BA 00001000 00000001   7 A0A   38339  $$$971B,BR
  37245  00006718  00000001 USING  ORDINARY    00000000 00001000 FFFFFFC6   5 010   37802  ASRWA,R5
  37811  00006902  00000001 USING  ORDINARY    00000000 00001000 FFFFFFF9   5 001   37869  @R5,5
1ACT      (ACT2025) (12:40) (15MAR04) Using Map                                                                             Page  298
  38476  00006C8E  00000001 USING  ORDINARY    00000000 00001000 FFFFFFF7   7 000          @R7,7
  38479  00006C8E  00000001 USING  ORDINARY    00006C8E 00001000 00000001   7 186   38531  $$$1026B,7
  38552  00006CBA  00000001 USING  ORDINARY    00000000 00001000 FFFFFFF7   7 000          @R7,7
  38555  00006CBA  00000001 USING  ORDINARY    000065BA 00001000 00000001   7 000          $$$971B,7
  38608  00006CE2  00000001 USING  ORDINARY    00000000 00001000 FFFFFFF7   7 000          @R7,7
  38611  00006CE2  00000001 USING  ORDINARY    00006CE2 00001000 00000001   7 136   38637  $$$1031B,7
  38653  00006CF2  00000001 USING  ORDINARY    00000000 00001000 FFFFFFF7   7 000          @R7,7
  38656  00006CF2  00000001 USING  ORDINARY    000065BA 00001000 00000001   7 000          $$$971B,7
  38706  00006D1A  00000001 USING  ORDINARY    00000000 00001000 FFFFFFF7   7 000          @R7,7
  38709  00006D1A  00000001 USING  ORDINARY    00006D1A 00001000 00000001   7 280   38818  $$$1035B,7
  38835  00006D70  00000001 USING  ORDINARY    00000000 00001000 FFFFFFF7   7 000          @R7,7
  38838  00006D70  00000001 USING  ORDINARY    000065BA 00001000 00000001   7 000          $$$971B,7
  38988  00006FE4  00000001 USING  ORDINARY    00000000 00001000 FFFFFFF7   7 000          @R7,7
  38991  00006FE4  00000001 USING  ORDINARY    00006FE4 00001000 00000001   7 58E   39909  $$$1040B,7
  39005  00006FE4  00000001 USING  ORDINARY    FFFFFFD8 00001000 FFFFFFC4   8 02C   39901  PCWA-(4+36),R8
  39918  00007230  00000001 USING  ORDINARY    00000000 00001000 FFFFFFF6   8 000          @R8,8
  39927  00007230  00000001 USING  ORDINARY    00000000 00001000 FFFFFFF7   7 000          @R7,7
  39930  00007230  00000001 USING  ORDINARY    000065BA 00001000 00000001   7 000          $$$971B,7
  39981  00007258  00000001 USING  ORDINARY    00000000 00001000 FFFFFFF7   7 000          @R7,7
  39984  00007258  00000001 USING  ORDINARY    00007258 00001000 00000001   7 25A   40283  $$$1088B,7
  40298  00007304  00000001 USING  ORDINARY    00000000 00001000 FFFFFFF7   7 000          @R7,7
  40301  00007304  00000001 USING  ORDINARY    000065BA 00001000 00000001   7 000          $$$971B,7
  40347  0000732C  00000001 USING  ORDINARY    00000000 00001000 FFFFFFF7   7 000          @R7,7
  40350  0000732C  00000001 USING  ORDINARY    0000732C 00001000 00000001   7 1C3   40364  $$$1104B,7
  40377  0000733E  00000001 USING  ORDINARY    00000000 00001000 FFFFFFF7   7 000          @R7,7
  40380  0000733E  00000001 USING  ORDINARY    000065BA 00001000 00000001   7 000          $$$971B,7
  40424  00007366  00000001 USING  ORDINARY    00000000 00001000 FFFFFFF7   7 000          @R7,7
  40427  00007366  00000001 USING  ORDINARY    00007366 00001000 00000001   7 1B6   40441  $$$1107B,7
  40454  00007378  00000001 USING  ORDINARY    00000000 00001000 FFFFFFF7   7 000          @R7,7
  40457  00007378  00000001 USING  ORDINARY    000065BA 00001000 00000001   7 000          $$$971B,7
  40501  000073A0  00000001 USING  ORDINARY    00000000 00001000 FFFFFFF7   7 000          @R7,7
  40504  000073A0  00000001 USING  ORDINARY    000073A0 00001000 00000001   7 0E0   40518  $$$1110B,7
  40531  000073B2  00000001 USING  ORDINARY    00000000 00001000 FFFFFFF7   7 000          @R7,7
  40534  000073B2  00000001 USING  ORDINARY    000065BA 00001000 00000001   7 000          $$$971B,7
  40578  000073DA  00000001 USING  ORDINARY    00000000 00001000 FFFFFFF7   7 000          @R7,7
  40581  000073DA  00000001 USING  ORDINARY    000073DA 00001000 00000001   7 16F   40595  $$$1113B,7
  40608  000073EC  00000001 USING  ORDINARY    00000000 00001000 FFFFFFF7   7 000          @R7,7
  40611  000073EC  00000001 USING  ORDINARY    000065BA 00001000 00000001   7 000          $$$971B,7
  40707  00007592  00000001 USING  ORDINARY    00000000 00001000 FFFFFFF7   7 000          @R7,7
  40710  00007592  00000001 USING  ORDINARY    00007592 00001000 00000001   7 BE6   40726  $$$1116B,7
  40738  000075A8  00000001 USING  ORDINARY    00000000 00001000 FFFFFFF7   7 000          @R7,7
  40741  000075A8  00000001 USING  ORDINARY    000065BA 00001000 00000001   7 000          $$$971B,7
  40864  000075D0  00000001 USING  ORDINARY    00000000 00001000 FFFFFFF7   7 000          @R7,7
  40867  000075D0  00000001 USING  ORDINARY    000075D0 00001000 00000001   7 C7E   42619  $$$1119B,7
  40881  000075D0  00000001 USING  ORDINARY    FFFFFFD8 00001000 FFFFFFC3   8 428   42621  RRWA-(4+36),R8
  41396  00007788  00000001 USING  ORDINARY    00000000 00001000 FFFFFFE9   2 062   41410  JCB,R2
  41472  000077B4  00000001 USING  ORDINARY    00000000 00001000 FFFFFFFC   2 001   46981  @R2,2
  41524  000077CC  00000001 USING  ORDINARY    00000000 00001000 FFFFFFC6   6 006   41996  ASRWA,R6
  42180  00007972  00000001 USING  ORDINARY    00000000 00001000 FFFFFFF8   6 000          @R6,6
  42641  00007AEC  00000001 USING  ORDINARY    00000000 00001000 FFFFFFF6   8 000          @R8,8
  42650  00007AEC  00000001 USING  ORDINARY    00000000 00001000 FFFFFFF7   7 000          @R7,7
  42653  00007AEC  00000001 USING  ORDINARY    000065BA 00001000 00000001   7 000          $$$971B,7
  42672  00007AFA  00000001 USING  ORDINARY    00000000 00001000 FFFFFFF7   7 000          @R7,7
  42682  00007AFA  00000001 USING  ORDINARY    00000000 00001000 FFFFFFC6   6 010   43652  ASRWA,R6
  42744  00007B14  00000001 USING  ORDINARY    00007B14 00001000 00000001   7 74C   42913  $$$1196B,7
  42758  00007B14  00000001 USING  ORDINARY    FFFFFFD8 00001000 FFFFFFC2   8 028   42855  STRMWA-(4+36),R8
  42808  00007B36  00000001 DROP                                           15              15
  42812  00007B3C  00000001 USING  ORDINARY    00000000 00001000 FFFFFFEF  15 000   42814  @R15,15
  42923  00007BAA  00000001 USING  ORDINARY    00000000 00001000 FFFFFFF6   8 000          @R8,8
1ACT      (ACT2025) (12:40) (15MAR04) Using Map                                                                             Page  299
  42928  00007BAA  00000001 USING  ORDINARY    00000000 00001000 FFFFFFF7   7 000          @R7,7
  43022  00007BD2  00000001 USING  ORDINARY    00007BD2 00001000 00000001   7 6A0   43877  $$$1208B,7
  43036  00007BD2  00000001 USING  ORDINARY    FFFFFFD8 00001000 FFFFFFC1   8 031   43858  PMWA-(4+36),R8
  43247  00007C50  00000001 DROP                                            3              3
  43251  00007C56  00000001 USING  ORDINARY    00000000 00001000 FFFFFFFB   3 000          @R3,3
  43431  00007CBC  00000001 DROP                                            3              3
  43435  00007CC2  00000001 USING  ORDINARY    00000000 00001000 FFFFFFFB   3 000          @R3,3
  43529  00007CFE  00000001 DROP                                            3              3
  43533  00007D04  00000001 USING  ORDINARY    00000000 00001000 FFFFFFFB   3 000          @R3,3
  43694  00007D58  00000001 DROP                                            3              3
  43698  00007D5E  00000001 USING  ORDINARY    00000000 00001000 FFFFFFFB   3 000          @R3,3
  43792  00007D96  00000001 DROP                                            3              3
  43796  00007D9C  00000001 USING  ORDINARY    00000000 00001000 FFFFFFFB   3 004   45840  @R3,3
  43887  00007DD6  00000001 USING  ORDINARY    00000000 00001000 FFFFFFF6   8 000          @R8,8
  43892  00007DD6  00000001 USING  ORDINARY    00000000 00001000 FFFFFFF7   7 000          @R7,7
  43972  00007DFE  00000001 USING  ORDINARY    00007DFE 00001000 00000001   7 47A   44105  $$$1257B,7
  43986  00007DFE  00000001 USING  ORDINARY    FFFFFFD8 00001000 FFFFFFC0   8 128   44091  PSWA-(4+36),R8
  44000  00007E0A  00000001 DROP                                            5              5
  44004  00007E10  00000001 USING  ORDINARY    00000000 00001000 FFFFFFF9   5 000   45997  @R5,5
  44053  00007E2C  00000001 DROP                                           15              15
  44057  00007E32  00000001 USING  ORDINARY    00000000 00001000 FFFFFFEF  15 000   44059  @R15,15
  44129  00007E64  00000001 USING  ORDINARY    00000000 00001000 FFFFFFF6   8 000          @R8,8
  44134  00007E64  00000001 USING  ORDINARY    00000000 00001000 FFFFFFF7   7 000          @R7,7
  44153  00007E72  00000001 USING  ORDINARY    00000000 00001000 FFFFFFF8   6 000          @R6,6
  44192  00007E8C  00000001 USING  ORDINARY    00007E8C 00001000 00000001   7 368   44316  $$$1266B,7
  44324  00007EDC  00000001 USING  ORDINARY    00000000 00001000 FFFFFFF7   7 000          @R7,7
  44373  00007F04  00000001 USING  ORDINARY    00007F04 00001000 00000001   7 349   44831  $$$1271B,7
  44844  00008056  00000001 USING  ORDINARY    00000000 00001000 FFFFFFF7   7 000          @R7,7
  45008  00008298  00000001 USING  ORDINARY    00008298 00001000 00000001   7 10C   45155  $$$1286B,7
  45022  00008298  00000001 USING  ORDINARY    FFFFFFD8 00001000 FFFFFFBF   8 028   45033  LOCWA-(4+36),R8
  45169  000082FE  00000001 USING  ORDINARY    00000000 00001000 FFFFFFF6   8 000          @R8,8
  45174  000082FE  00000001 USING  ORDINARY    00000000 00001000 FFFFFFF7   7 000          @R7,7
  45257  00008326  00000001 USING  ORDINARY    00008326 00001000 00000001   7 082   45382  $$$1297B,7
  45271  00008326  00000001 USING  ORDINARY    FFFFFFD8 00001000 FFFFFFBE   8 02C   45378  LEXWA-(4+36),R8
  45396  00008384  00000001 USING  ORDINARY    00000000 00001000 FFFFFFF6   8 000          @R8,8
  45401  00008384  00000001 USING  ORDINARY    00000000 00001000 FFFFFFF7   7 000          @R7,7
  45550  000083C6  00000001 USING  ORDINARY    000083C6 00001000 00000001   7 6A0   47352  $$$1306B,7
  45564  000083C6  00000001 USING  ORDINARY    FFFFFFD8 00001000 FFFFFFBD   8 228   47363  MATWA-(4+36),R8
  45905  00008490  00000001 USING  ORDINARY    00000000 00001000 FFFFFFC6   6 010   47316  ASRWA,R6
  46041  000084E6  00000001 DROP                                           15              15
  46045  000084EC  00000001 USING  ORDINARY    00000000 00001000 FFFFFFEF  15 000   47358  @R15,15
  46487  00008612  00000001 DROP                                            3              3
  46491  00008618  00000001 USING  ORDINARY    00000000 00001000 FFFFFFFB   3 000          @R3,3
  46681  00008692  00000001 DROP                                            3              3
  46685  00008698  00000001 USING  ORDINARY    00000000 00001000 FFFFFFFB   3 000          @R3,3
  46779  000086D4  00000001 DROP                                            3              3
  46783  000086DA  00000001 USING  ORDINARY    00000000 00001000 FFFFFFFB   3 000          @R3,3
  46944  0000872E  00000001 DROP                                            3              3
  46948  00008734  00000001 USING  ORDINARY    00000000 00001000 FFFFFFFB   3 000          @R3,3
  47058  00008788  00000001 DROP                                            3              3
  47062  0000878E  00000001 USING  ORDINARY    00000000 00001000 FFFFFFFB   3 000   48031  @R3,3
  47376  0000884A  00000001 USING  ORDINARY    00000000 00001000 FFFFFFF6   8 000          @R8,8
  47381  0000884A  00000001 USING  ORDINARY    00000000 00001000 FFFFFFF7   7 000          @R7,7
  47401  00008858  00000001 USING  ORDINARY    00000000 00001000 FFFFFFF8   6 000          @R6,6
  47469  00008872  00000001 USING  ORDINARY    00008872 00001000 00000001   7 1FA   47602  $$$1412B,7
  47483  00008872  00000001 USING  ORDINARY    FFFFFFD8 00001000 FFFFFFBC   8 128   47588  MSWA-(4+36),R8
  47497  0000887E  00000001 DROP                                            5              5
  47501  00008884  00000001 USING  ORDINARY    00000000 00001000 FFFFFFF9   5 000          @R5,5
  47550  000088A0  00000001 DROP                                           15              15
1ACT      (ACT2025) (12:40) (15MAR04) Using Map                                                                             Page  300
  47554  000088A6  00000001 USING  ORDINARY    00000000 00001000 FFFFFFEF  15 000   47556  @R15,15
  47626  000088D8  00000001 USING  ORDINARY    00000000 00001000 FFFFFFF6   8 000          @R8,8
  47631  000088D8  00000001 USING  ORDINARY    00000000 00001000 FFFFFFF7   7 000          @R7,7
  47687  00008900  00000001 USING  ORDINARY    00008900 00001000 00000001   7 138   47765  $$$1421B,7
  47704  00008902  00000001 USING  ORDINARY    00000000 00001000 FFFFFFBD   6 01C   47766  MATWA,R6
  47777  00008932  00000001 USING  ORDINARY    00000000 00001000 FFFFFFF7   7 000          @R7,7
  47796  00008940  00000001 USING  ORDINARY    00000000 00001000 FFFFFFF8   6 004   48039  @R6,6
  47891  00008A8C  00000001 USING  ORDINARY    00008A8C 00001000 00000001   7 2EA   48041  $$$1427B,7
  47905  00008A8C  00000001 USING  ORDINARY    FFFFFFD8 00001000 FFFFFFBB   8 054   48048  PRSWA-(4+36),R8
  48065  00008B4E  00000001 USING  ORDINARY    00000000 00001000 FFFFFFF6   8 000          @R8,8
  48070  00008B4E  00000001 USING  ORDINARY    00000000 00001000 FFFFFFF7   7 000          @R7,7

1         (ACT2025) (12:40) (15MAR04) General Purpose Register Cross Reference                                              Page  301
- Register  References (M=modified, B=branch, U=USING, D=DROP, N=index)                      HLASM R4.0  2004/03/15 12.40
0    0(0)      982U   983D  2126   2194M  2194   2195M  6866   6904   6913M  6938M  6938   6957M  6973M  6973   6988M
              6988   7006M  7025M  7047M  7047   7072M  7072   7091M  7113M  7113   7138M  7138   7157M  7179M  7179
              7204M  7204   7223M  7245M  7245   7263M  7285M  7285   7303M  7328M  7328   7353M  7353   7372M  7394M
              7394   7419M  7419   7438M  7460M  7460   7485M  7485   7510M  7510   7529M  7554M  7579M  7579   7604M
              7604   7639M  7649M  7688M  7688   7706M  7730M  7764M  7789M  7807M  7841M  7911   7948M  7957M  8045M
              8067M  8067   8077M  8098M  8149   8195M  8252M  8273M  8278M  8285M  8351M  8371   8396M  8416   8458M
              8478   8503M  8523   8560M  8612   8682M  8703M  8929M  8982   9034   9059M  9105M  9130M  9154M  9286M
              9341   9426M  9442M  9471   9486M  9507   9615M  9670   9755M  9770M  9799   9814M  9835   9943M  9998
             10083M 10096M 10125  10140M 10161  10271M 10326  10434M 10447M 10476  10491M 10512  10623M 10678  10729M
             10866M 10887  10909M 10930  10970M 10991  11013M 11034  11053M 11060M 11079M 11141M 11171  11238M 11299
             11438M 11458  11473M 11494  11552  11595M 11629  11676  11705  11708M 11721M 11731M 11757M 11789  11836
             11865  11868M 11881M 11889M 11918M 11970  12020M 12050M 12078M 12130  12180M 12201M 12201  12255M 12306
             12371M 12450M 12488  12515  12539M 12573M 12591M 12610M 12698  12859M 12864  13113M 13146  13206M 13228M
             13270M 13300M 13329M 13376M 13426M 13453M 13471  13545M 13588M 13601M 13601  13608  13615M 13630M 13683M
             13711M 13743M 13768M 13786M 13822M 13844M 13844  13862M 13897M 13940M 13962M 13962  13980M 14020M 14048M
             14066M 14105M 14143M 14181M 14211M 14211  14243M 14296  14368M 14388  14420M 14541M 14555  14556M 14557
             14764M 14827M 14857M 14888  14929M 14976  15044M 15098M 15132M 15154M 15216M 15236  15273M 15306M 15333M
             15333  15360M 15385  15677M 15677  15745M 15898  16142M 16164M 16164  16194M 16222M 16240M 16262M 16262
             16278M 16301M 16347M 16372  16383M 16383  16392  16393  16654M 16654  16693M 16881  16912M 16940M 16960
             17012M 17032  17084M 17104  17145M 17295  17334  17346M 17354  17362  17382M 17450  17616M 17675  17706
             17721M 17757  17792  17807M 17834  17891  17892M 17899M 17981  17993M 17998  18057M 18057  18079  18080M
             18086M 18094  18114M 18178  18222M 18253  18298M 18325  18399M 18401M 18435M 18462M 18477M 18477  18487M
             18487  18494  18506M 18515  18526M 18526  18554M 18560  18643  18645  18650  18703M 18722M 18773M 18799M
             18799  18817  18820  18927M 18962M 19112  19171  19218  19278M 19287  19423M 19441M 19450M 19737M 19793M
             19832M 19917  20001  20043M 20045M 20078M 20079M 20079  20085  20296M 20751M 20870M 20904  21006M 21111
             21147  21160  21274  21278  21322  21348M 21374  21451  21504  21606M 21636M 21710  21754  21814  21816M
             21905M 21944M 22238M 22241  22261M 22363  22407  22478M 22478  22485  22548M 22558  22581  22615M 22615
             22637M 22661  22662  22765M 22766M 22779  22877M 22878  23202  23222M 23277  23313  23316M 23327  23347M
             23451  23496  23522M 23537M 23537  23546  23764M 23803M 23813  24002  24002  24011  24043  24069M 24092M
             24115M 24138M 24143  24166M 24243  24287  24294M 24301M 24302M 24335  24343M 24362M 24385M 24408M 24447M
             24452  24497M 24538  24567  24587  24596  24608M 24609M 24652  24681  24717M 24718M 24761  24790  24802M
             24843  24872  24892  24901  24919M 24920M 24952  24962M 24965  24989M 25064  25107  25128M 25149  25248M
             25291  25327  25359  25390  25428M 25470  25532  25564  25595  25627M 25711  25785  25800M 25839  25915
             25930M 25969  26176  26191M 26230  26304  26319M 26358  26411  26426M 26506  26543  26573M 26611  26648
             26669M 26671  26696M 26734  26771  26792M 26794  26819M 26857  26894  26915M 26917  26942M 26980  27017
             27038M 27040  27065M 27101  27165M 27178M 27227M 27240M 27280M 27293M 27302  27328M 27339  27354M 27392
             27420  27459M 27515M 27542M 27613M 27650  27678  27716M 27802M 27821  27825M 27896M 27934  27962  28001M
             28057M 28084M 28156M 28194  28222  28261M 28317M 28344M 28416M 28506  28549  28602M 28627M 28653  28738M
             28751M 28785M 28801M 28823M 28849M 28896M 28933  28979M 29022M 29023M 29024  29044  29055  29076M 29078
             29113M 29115  29137M 29170  29200M 29250M 29252  29267M 29299  29331  29339M 29341  29356M 29395  29423
             29439M 29439  29462M 29470  29497M 29510M 29666M 29668  29684M 29714  29783M 29783  29801M 29814M 29846M
             29846  29864M 29908M 29908  29926M 29947M 29947  29963M 30030M 30215  30368  30373  30428M 30428  30437
             30438  30481M 30507M 30587M 30808  30887M 30909M 30929  31008M 31088M 31109  31164M 31350  31381M 31397M
             31417  31472M 31488M 31508  31646M 31683M 31698  31715  31752M 31772  31827M 31847  31889  31890  31917M
             31917  31923M 31928  31985M 32012  32109M 32129  32225M 32232  32280M 32287  32315M 32350  32376  32389M
             32389  32398  32399  32400  32433  32465M 32465  32474  32475  32491M 32512M 32518M 32565  32588M 32590M
             32606  32617M 32617  32626  32627  32654M 32655M 32684M 32691  32706M 32818  32849M 32865M 32885  32911
             32929M 32949  32993M 33013  33044M 33060M 33080  33106  33113M 33113  33122  33123  33124  33146M 33146
             33178M 33198  33242M 33962  33993M 34009M 34029  34060M 34091M 34111  34208M 34237  34284M 34340M 34360
             34407M 34463M 34483  34552M 34572  34641M 34661  34730M 34750  34825M 34845  34914M 34934  35009M 35029
             35098M 35118  35193M 35225  35271M 35368  35370  35371M 35387M 35409M 35487  35640M 35692  35729M 35730
             35767M 35787  35824M 35824  35838  35849M 35855M 35856  35858  35933M 35953  35980M 36017M 36032M 36066M
             36067M 36082M 36105  36138M 36175  36291M 36328  36348M 36348  36357  36358  36416M 36436  36485M 36493
             36494  36513  36530M 36576M 36596  36626  36643M 36649  36681M 36880  36885  36964M 36981M 37003M 37029M
             37055M 37081M 37107M 37133M 37159M 37185M 37264M 37267M 37274  37277  37285M 37392  37394  37395M 37412M
1         (ACT2025) (12:40) (15MAR04) General Purpose Register Cross Reference                                              Page  302
             37480M 37559  37689M 37699  37736M 37737  37817M 37825M 37928M 37938  37967  37979M 37980M 38011M 38060M
             38098M 38105  38179  38195M 38246  38249  38257M 38459  38489M 38511M 38517  38530M 38530  38537  38563M
             38591  38664M 38689  38732  38732  38752M 38789M 38807M 38846M 38970  39033M 39047M 39047  39073M 39073
             39120  39166M 39166  39244  39282M 39377M 39417M 39417  39427M 39436M 39436  39531M 39531  39803M 39840M
             39840  39863M 39902M 39903M 39906M 39909M 39911  39938M 39964  40013M 40022M 40022  40137M 40137  40284M
             40287  40309M 40330  40365M 40388M 40407  40442M 40465M 40484  40519M 40542M 40561  40596M 40619M 40690
             40719M 40720M 40749M 40846  40902  41129  41180  41231M 41270M 41297  41322M 41543  41599  41998M 42120M
             42172M 42191M 42197  42207  42294M 42370M 42406M 42456M 42498M 42514M 42514  42534M 42558M 42590M 42661M
             42726  42936M 43004  43047  43056  43149M 43185M 43185  43374M 43392M 43466M 43679M 43738M 43738  43751M
             43774M 43858M 43900M 43954  44037  44060  44092M 44095M 44122  44142M 44175  44253M 44253  44276M 44289M
             44332M 44356  44382M 44434M 44455M 44455  44473M 44527M 44540M 44613M 44630M 44701M 44714M 44771M 44793M
             44793  44811M 44852M 44990  45049M 45082M 45182M 45239  45299M 45409M 45532  46285M 46379M 46423M 46423
             46614M 46637M 46716M 46929M 46992M 46992  47005M 47040M 47369  47389M 47451  47534  47557  47589M 47592M
             47619  47639M 47670  47785M 47873  47913  47925M 47936  47943M 47987  47993  48025  48027  48029  48032
             48056M 48058  48078M
     1(1)      978U  2126   2189M  2190M  2196M  6866   6912M  6956M  6984M  7005M  7024M  7043M  7090M  7109M  7156M
              7175M  7222M  7241M  7262M  7281M  7302M  7371M  7390M  7437M  7456M  7528M  7547M  7638M  7648M  7707M
              7729M  7763M  7782M  7806M  7841M  7911   7949M  8069M  8069   8098M  8149   8247M  8270M  8272   8346M
              8371   8391M  8416   8453M  8478   8498M  8523   8560M  8612   8677M  8702M  8929M  8982   9034   9054M
              9149M  9286M  9341   9393M  9393   9421M  9481M  9507   9615M  9670   9722M  9722   9750M  9809M  9835
              9943M  9998  10050M 10050  10078M 10135M 10161  10271M 10326  10378M 10378  10429M 10486M 10512  10623M
             10678  10724M 10861M 10887  10904M 10930  10965M 10991  11008M 11034  11051  11080M 11097M 11110  11141M
             11171  11238M 11299  11468M 11494  11552  11595M 11629  11675  11705  11721M 11757M 11789  11835  11865
             11881M 11918M 11970  12015M 12045M 12078M 12130  12175M 12203M 12203  12255M 12306  12366M 12450M 12488
             12514  12534M 12572M 12590M 12610M 12698  12854M 12944M 12945  12963  13113M 13146  13172  13199M 13227M
             13263M 13293M 13324M 13371M 13425M 13448M 13544M 13583M 13608  13614M 13630M 13682M 13706M 13761M 13785M
             13821M 13840M 13861M 13896M 13939M 13958M 13979M 14019M 14043M 14065M 14104M 14142M 14180M 14243M 14296
             14415M 14542M 14759M 14857M 14888  14929M 14976  15043M 15097M 15131M 15153M 15181M 15211M 15236  15268M
             15305M 15335M 15335  15360M 15385  15449M 15679M 15679  15745M 15898  16141M 16160M 16187M 16217M 16239M
             16258M 16277M 16300M 16346M 16371  16379M 16392N 16393N 16395N 16556M 16656M 16656  16693M 16881  16911M
             16940M 16960  17012M 17032  17084M 17104  17145M 17295  17353  17382M 17450  17616M 17675  17706  17721M
             17757  17792  17807M 17834  17871  17891  17899M 17978  18079  18086M 18114M 18178  18222M 18253  18298M
             18325  18398M 18434M 18461M 18514  18644  18649M 18650  18702M 18722M 18772M 18962M 19112  19170  19274M
             19346M 19424M 19433M 19433  19440  19441M 19447M 19449  19450M 19514M 19530M 19538  19733M 19789M 19832M
             19917  20000  20044M 20045M 20073M 20291M 20746M 20870M 20904  21006M 21111  21147  21160  21322  21349M
             21374  21451  21504  21606M 21636M 21710  21798M 21823  21826M 21827M 21901M 21939M 22239M 22241  22261M
             22363  22421  22435  22442M 22447  22450M 22484  22562M 22635M 22756M 22867M 22878M 23200M 23202  23222M
             23277  23313  23317M 23347M 23451  23521M 23546  23564M 23576M 23581  23592M 23595M 23596  23597M 23609
             23625M 23628  23640M 23645  23651  23652  23657M 23666M 23666  23675M 23675  23690M 23690  23711M 23716
             23717M 23718M 23730  23736M 23741  23765M 23770M 23771M 23774M 23783  23804M 23812  23813M 23822M 23823M
             23835  23841M 23846  23865M 23866M 23875M 23875  23884M 23884  23899M 23899  23920M 23925  23932M 23954M
             23954  23968  23974M 23984  24011  24034  24043  24062  24085  24108  24131  24143M 24146  24166M 24243
             24288  24295M 24303M 24305M 24313M 24326  24335  24343  24355  24378  24401  24426  24462M 24463  24472M
             24473  24474M 24475M 24476  24498M 24538  24567  24596  24610M 24612M 24652  24681  24719M 24721M 24761
             24790  24803M 24843  24872  24901  24926M 24927  24928M 24929M 24952  24963M 24965  24989M 25064  25107
             25129M 25149  25208M 25231  25232  25248M 25291  25359  25390  25428M 25470  25564  25595  25627M 25711
             25800M 25839  25930M 25969  26191M 26230  26319M 26358  26426M 26506  26542  26546M 26573M 26611  26647
             26651M 26696M 26734  26770  26774M 26819M 26857  26893  26897M 26942M 26980  27016  27020M 27065M 27101
             27128  27164M 27226M 27279M 27302  27328M 27354M 27392  27419  27458M 27514M 27543M 27613M 27650  27677
             27715M 27801M 27826M 27896M 27934  27961  28000M 28056M 28085M 28156M 28194  28221  28260M 28316M 28345M
             28416M 28506  28542  28543M 28549  28602M 28627M 28653  28737M 28784M 28800M 28822M 28848M 28896M 28933
             28978M 28993M 28994  29015  29065M 29065N 29072M 29074M 29075  29076  29085M 29085N 29104  29112M 29115
             29137M 29170  29199M 29200  29218M 29242M 29250  29267M 29299  29331  29339M 29341  29356M 29395  29424
             29469  29496M 29661M 29668  29684M 29714  29779M 29800M 29842M 29863M 29904M 29925M 29943M 29962M 30030M
             30215  30424M 30437N 30438N 30440N 30480M 30506M 30587M 30808  30886M 30909M 30929  31007M 31088M 31109
             31164M 31350  31380M 31397M 31417  31471M 31488M 31508  31647M 31682M 31698  31716  31752M 31772  31827M
             31847  31985M 32012  32109M 32129  32224M 32279M 32315M 32350  32385M 32398N 32399N 32400N 32461M 32474N
             32475N 32477N 32511M 32586M 32605  32613M 32626N 32627N 32629N 32706M 32818  32848M 32865M 32885  32929M
             32949  32993M 33013  33043M 33060M 33080  33109M 33122N 33123N 33124N 33178M 33198  33242M 33962  33992M
1         (ACT2025) (12:40) (15MAR04) General Purpose Register Cross Reference                                              Page  303
             34009M 34029  34059M 34091M 34111  34208M 34237  34283M 34340M 34360  34406M 34463M 34483  34552M 34572
             34641M 34661  34730M 34750  34825M 34845  34914M 34934  35009M 35029  35098M 35118  35193M 35225  35270M
             35368  35397  35405N 35409M 35639M 35767M 35787  35848M 35933M 35953  36031M 36081M 36138M 36175  36312M
             36327  36344M 36357N 36358N 36360N 36416M 36436  36484M 36529M 36576M 36596  36642M 36681M 36913M 36963M
             36980M 37002M 37028M 37054M 37080M 37106M 37132M 37158M 37184M 37257M 37284M 37392  37434  37465  37470
             37480M 37688M 37816M 37827M 37862M 37885M 37894M 37918M 37927M 37952M 37970M 37971N 37980  38010M 38061M
             38097M 38106  38121M 38194M 38211M 38259M 38284M 38305M 38305  38459  38488M 38489  38490M 38517  38563M
             38591  38664M 38689  38751M 38788M 38806M 38846M 38970  39032M 39281M 39281N 39375M 39425M 39801M 39861M
             39901M 39903  39911  39938M 39964  40011M 40283M 40287  40309M 40330  40364M 40388M 40407  40441M 40465M
             40484  40518M 40542M 40561  40595M 40619M 40690  40721M 40722M 40723M 40749M 40846  40903  41067M 41068M
             41069  41089M 41091M 41092  41123M 41173M 41230M 41269M 41321M 41556M 41584M 41997M 42003M 42119M 42121
             42190M 42200M 42201M 42204  42228M 42232M 42233M 42233N 42293M 42369M 42497M 42533M 42557M 42589M 42661M
             42726  42782M 42828M 42846  42855M 42895M 42896  42936M 43004  43048  43117M 43147M 43369M 43390M 43390N
             43464M 43497  43498M 43503  43504M 43522M 43674M 43746M 43772M 43772  43900M 43954  44062  44071M 44090
             44122  44142M 44175  44275M 44332M 44356  44433M 44451M 44472M 44526M 44612M 44700M 44770M 44789M 44810M
             44852M 44990  45034M 45043M 45043  45054  45182M 45239  45284M 45293M 45293  45304  45409M 45532  45587
             45998M 46049M 46070M 46143  46154M 46197M 46238  46257M 46263  46265M 46284M 46347M 46377M 46609M 46635M
             46635N 46714M 46747  46748M 46753  46754M 46772M 46924M 47016M 47038M 47038  47130  47369  47389M 47451
             47559  47568M 47587  47619  47639M 47670  47706M 47765M 47766  47785M 47873  47909  47942M 47942  47956M
             47965M 47966  47967  47968  47977M 47986M 47990M 47991  47992  47993  47995  47999M 48001  48017  48029M
             48038M 48058  48078M
     2(2)      974U  2126   6866   7708M  7758M  7782   7841M  7911   7950M  8098M  8149   8238M  8279M  8294M  8303
              8371   8416   8478   8523   8560M  8612   8929M  8982   9034   9045M  9140M  9286M  9341   9412M  9507
              9615M  9670   9741M  9835   9943M  9998  10069M 10161  10271M 10326  10420M 10512  10623M 10678  10836M
             10887  10895  10930  10951M 10951  10971  10991  11014  11034  11084M 11084  11141M 11171  11238M 11299
             11494  11552  11595M 11629  11675M 11679M 11718M 11757M 11789  11835M 11839M 11878M 11918M 11970  12036M
             12078M 12130  12166M 12255M 12306  12372M 12450M 12488  12610M 12698  12799M 12804M 12813M 12813  12820
             12864M 12873M 12873  12881  12893M 12902M 12911M 12911  12918  12945M 12946M 12947  13005M 13014M 13014
             13022  13034M 13043M 13052M 13052  13059  13113M 13146  14243M 14296  14406M 14496M 14534M 14546M 14546
             14717  14719M 14723M 14726M 14744M 14857M 14888  14929M 14976  15236  15360M 15385  15745M 15898  16693M
             16881  16940M 16960  17012M 17032  17084M 17104  17145M 17295  17353M 17359M 17382M 17450  17493M 17563M
             17575  17587  17616M 17675  17721M 17757  17786M 17786  17807M 17834  17879  17892  17908M 17978M 18001M
             18003M 18015  18027  18114M 18178  18222M 18253  18279M 18298M 18325  18644M 18646M 18721M 18962M 19112
             19347M 19439M 19441M 19448M 19450M 19518M 19518  19530M 19576M 19576  19606  19643  19675M 19675  19717M
             19717  19832M 19917  20138M 20190M 20257M 20566M 20870M 20904  20946M 21006M 21111  21167M 21265M 21266M
             21267  21269M 21270M 21271  21301M 21322  21353M 21353  21374  21430M 21451  21483M 21504  21636M 21710
             22261M 22363  22706M 22718  22734M 22734  22756N 22758M 22759  22765  22789N 22886M 22925  23026  23129
             23222M 23277  23321M 23321  23347M 23451  23546  23587M 23587  23596M 23649M 23649  23651M 23652M 23778M
             23778  23783M 23805M 23933M 23936M 23937  23948M 23948  23956M 24011  24043  24166M 24243  24289  24335
             24458M 24458  24463M 24470M 24470  24473M 24499M 24538  24558  24567  24596  24613M 24652  24672  24681
             24722M 24761  24781  24790  24804M 24843  24863  24872  24901  24924M 24924  24927M 24952  24989M 25064
             25107  25149  25161M 25161  25207M 25232M 25234  25248M 25291  25338M 25359  25369M 25390  25428M 25470
             25543M 25564  25574M 25595  25627M 25711  25737  25742M 25800M 25839  25865  25872M 25930M 25969  25995
             26191M 26230  26256  26261M 26319M 26358  26426M 26506  26547M 26573M 26611  26652M 26696M 26734  26775M
             26819M 26857  26898M 26942M 26980  27021M 27065M 27101  27354M 27392  27421M 27421N 27434M 27434  27448
             27541  27613M 27650  27821M 27824  27896M 27934  27963M 27963N 27976M 27976  27990  28083  28086M 28156M
             28194  28223M 28223N 28236M 28236  28250  28343  28346M 28416M 28506  28553M 28571M 28593M 28627M 28653
             28896M 28933  29137M 29170  29211M 29243  29267M 29299  29356M 29395  29684M 29714  29742M 29743M 29743
             29769  29842  30030M 30215  30587M 30808  30909M 30929  31088M 31109  31164M 31350  31397M 31417  31488M
             31508  31752M 31772  31827M 31847  31887U 31985M 31996U 32012  32109M 32129  32162U 32315M 32326U 32350
             32706M 32818  32865M 32885  32929M 32949  32993M 33013  33060M 33080  33178M 33198  33242M 33962  34009M
             34029  34091M 34111  34208M 34237  34340M 34360  34463M 34483  34552M 34572  34641M 34661  34730M 34750
             34825M 34845  34914M 34934  35009M 35029  35098M 35118  35193M 35225  35767M 35787  35857M 35858M 35859
             35933M 35953  36138M 36175  36416M 36436  36576M 36596  36681M 36758  36902M 36913  37229M 37249M 37257
             37273M 37314M 37314  37394M 37743M 37749M 37750M 37751  37756M 37803M 37906M 37906  37970M 37971M 37971
             37979  38179N 38182M 38183M 38184  38186  38187M 38246N 38247M 38247N 38248  38336N 38337M 38337N 38459
             38563M 38591  38664M 38689  38846M 38970  39131M 39141  39256M 39266  39348M 39358  39389  39477M 39487
             39627  39680M 39690  39770M 39770  39780  39825  39938M 39964  40103  40309M 40330  40388M 40407  40465M
             40484  40542M 40561  40619M 40690  40749M 40846  40999M 40999  41000  41001  41002  41174M 41262  41298
1         (ACT2025) (12:40) (15MAR04) General Purpose Register Cross Reference                                              Page  304
             41299  41311  41339  41386M 41396U 41472U 42022M 42023M 42024  42027  42029  42229M 42230  42238M 42243
             42661M 42726  42855M 42896M 42897M 42898  42936M 43004  43086M 43118M 43148M 43240M 43372M 43391M 43391N
             43465M 43498  43503M 43677M 43749M 43773M 43773  43900M 43954  44071M 44142M 44175  44332M 44356  44592M
             44592  44602  44626  44627M 44666  44695M 44765M 44852M 44990  45182M 45239  45283M 45409M 45532  45588
             45702M 45702  45712  45718  45719M 45733  45804M 45839M 46154M 46239M 46241  46289M 46348M 46378M 46480M
             46612M 46636M 46636N 46715M 46748  46753M 46927M 47003M 47039M 47039  47389M 47451  47568M 47639M 47670
             47785M 47873  47944M 47956M 47977M 48023  48024  48033  48078M
     3(3)      970U  2126   6866   7841M  7911   8098M  8149   8201M  8285   8295M  8304   8371   8416   8478   8523
              8560M  8612   8929M  8982   9034   9286M  9341   9507   9615M  9670   9835   9943M  9998  10161  10271M
             10326  10512  10623M 10678  10837M 10847M 10847  10867  10887  10910  10930  10991  10999  11034  11067M
             11141M 11171  11238M 11299  11494  11552  11595M 11629  11676M 11679M 11714M 11731  11757M 11789  11836M
             11839M 11874M 11889  11918M 11970  12078M 12130  12255M 12306  12450M 12488  12540M 12610M 12698  12947M
             12949M 12963  12996M 13004M 13005  13113M 13146  14243M 14296  14717  14720M 14723M 14726M 14857M 14888
             14929M 14976  15236  15245M 15255U 15268  15297U 15360M 15385  15745M 15898  16693M 16881  16940M 16960
             17012M 17032  17084M 17104  17145M 17295  17354M 17359M 17382M 17450  17616M 17675  17721M 17757  17807M
             17834  17998M 17999M 18001M 18114M 18178  18222M 18253  18298M 18325  18645M 18646M 18720M 18962M 19112
             19440M 19441M 19449M 19450M 19538M 19539M 19565  19583M 19588  19589  19832M 19917  20119M 20138N 20149M
             20149  20192M 20207M 20207  20214M 20233  20296  20385  20386  20870M 20904  21006M 21111  21322  21374
             21451  21504  21636M 21710  22261M 22363  22789M 23222M 23277  23347M 23451  23546  23588M 23589M 23591M
             23596M 23597  23650M 23651M 23652M 23653  23779M 23780M 23782M 23783M 23797  24011  24043  24166M 24243
             24290  24335  24459M 24461M 24463M 24464M 24465  24471M 24473M 24475  24500M 24538  24567  24596  24614M
             24652  24681  24723M 24761  24790  24805M 24843  24872  24901  24925M 24927M 24929  24952  24989M 25064
             25107  25149  25162M 25174  25181M 25186M 25187M 25187  25188M 25207M 25208  25248M 25291  25359  25390
             25428M 25470  25564  25595  25627M 25711  25742  25800M 25839  25872  25930M 25969  26006M 26006  26012
             26034M 26134M 26134  26143  26191M 26230  26261  26319M 26358  26426M 26506  26542M 26573M 26611  26647M
             26696M 26734  26770M 26819M 26857  26893M 26942M 26980  27016M 27065M 27101  27128M 27139M 27139  27198M
             27198  27206  27257M 27304  27354M 27392  27488M 27488  27494  27534M 27558M 27558  27564  27613M 27650
             27689M 27689  27695  27735M 27765M 27765  27771  27841M 27841  27847  27896M 27934  28030M 28030  28036
             28076M 28101M 28101  28107  28156M 28194  28290M 28290  28296  28336M 28361M 28361  28367  28416M 28506
             28627M 28653  28896M 28933  29061M 29062M 29063M 29064  29137M 29170  29214M 29243  29267M 29299  29356M
             29395  29684M 29714  30030M 30215  30546M 30549  30587M 30808  30909M 30929  31088M 31109  31164M 31350
             31397M 31417  31488M 31508  31752M 31772  31827M 31847  31985M 32012  32109M 32129  32201M 32213  32231M
             32232N 32233M 32236M 32237  32256M 32268  32286M 32287N 32288M 32291M 32292  32315M 32350  32491  32501
             32654  32706M 32818  32865M 32885  32911M 32913  32929M 32949  32993M 33013  33060M 33080  33106M 33162
             33178M 33198  33242M 33962  34009M 34029  34091M 34111  34208M 34237  34340M 34360  34463M 34483  34552M
             34572  34641M 34661  34730M 34750  34825M 34845  34914M 34934  35009M 35029  35098M 35118  35193M 35225
             35370M 35396M 35405  35416M 35416  35433M 35438  35767M 35787  35933M 35953  36138M 36175  36416M 36436
             36576M 36596  36681M 36758  36906M 36906  37229M 37248M 37272M 37272  37288M 37292M 37296M 37333M 37333
             37484  38178M 38188B 38245M 38335M 38459  38563M 38591  38664M 38689  38846M 38970  39009M 39057  39058
             39062M 39062  39388M 39626M 39654M 39671M 39824M 39900  39938M 39964  40309M 40330  40388M 40407  40465M
             40484  40542M 40561  40619M 40690  40749M 40846  41232M 41262  41599M 42661M 42726  42829M 42835  42837M
             42838N 42841M 42842M 42845M 42848  42898M 42936M 43004  43247D 43249M 43249  43250M 43251U 43254M 43256
             43389M 43390  43391  43392  43431D 43433M 43433  43434M 43435U 43447  43459M 43464  43465  43466  43529D
             43531M 43531  43532M 43533U 43545  43552M 43559M 43561  43694D 43696M 43696  43697M 43698U 43710  43772N
             43773N 43774  43792D 43794M 43794  43795M 43796U 43810  43830M 43835N 43900M 43954  44060M 44061M 44064
             44142M 44175  44332M 44356  44629M 44852M 44990  45182M 45239  45409M 45532  45721M 46143M 46257  46263M
             46264M 46264  46266  46487D 46489M 46489  46490M 46491U 46494M 46496  46629M 46635  46636  46637  46681D
             46683M 46683  46684M 46685U 46697  46709M 46714  46715  46716  46779D 46781M 46781  46782M 46783U 46795
             46802M 46809M 46811  46944D 46946M 46946  46947M 46948U 46960  46969M 46969  47000M 47016  47017M 47038N
             47039N 47040  47058D 47060M 47060  47061M 47062U 47076  47096M 47101N 47130M 47131M 47148M 47153M 47156M
             47170M 47170  47178M 47180  47389M 47451  47557M 47558M 47561  47639M 47670  47785M 47873  47938M 47965
             47967M 47986N 47990  48017M 48017N 48032M 48078M
     4(4)      966U  2126   6866   7841M  7911   8098M  8149   8308M  8318U  8346   8371   8391   8416   8453   8478
              8498   8523   8542U  8560M  8612   8709M  8719U  8747U  8929M  8982   9034   9286M  9341   9507   9515M
              9525U  9588U  9615M  9670   9835   9843M  9853U  9916U  9943M  9998  10161  10169M 10179U 10244U 10271M
             10326  10512  10520M 10530U 10596U 10623M 10678  10748M 10758U 10861  10887  10904  10930  10965  10991
             11008  11034  11051M 11097  11109M 11110M 11111  11123U 11141M 11171  11238M 11299  11494  11502M 11512U
             11552  11569U 11595M 11629  11677M 11679M 11757M 11789  11837M 11839M 11918M 11970  12078M 12130  12255M
             12306  12342M 12372  12450M 12488  12610M 12698  13113M 13146  13187M 13218  13263  14243M 14296  14717
1         (ACT2025) (12:40) (15MAR04) General Purpose Register Cross Reference                                              Page  305
             14721M 14723M 14726M 14857M 14888  14929M 14976  15173M 15173  15182  15202M 15236  15259  15360M 15385
             15417M 15417  15436M 15530M 15530  15537M 15695  15745M 15898  16693M 16881  16940M 16960  17012M 17032
             17084M 17104  17145M 17295  17359M 17382M 17450  17616M 17675  17721M 17757  17807M 17834  17871M 18001M
             18114M 18178  18222M 18253  18298M 18325  18642M 18646M 18962M 19112  19171M 19260M 19260  19447  19453M
             19479  19589M 19832M 19917  20001M 20007  20019M 20036  20078  20085M 20107  20386M 20413M 20413  20455M
             20488  20492M 20501M 20501  20508  20542  20636  20666M 20666  20751  20870M 20904  21006M 21111  21322
             21374  21451  21504  21636M 21710  22261M 22363  23222M 23277  23347M 23451  23546  23807M 24011  24043
             24166M 24243  24291  24335  24538  24567  24596  24652  24681  24761  24790  24843  24872  24901  24952
             24989M 25064  25149  25291  25359  25390  25428M 25470  25564  25595  25627M 25711  25737M 25740N 25758
             25800M 25839  25865M 25868N 25888  25930M 25969  25995M 26041  26059  26060N 26077  26191M 26230  26256M
             26259N 26277  26319M 26358  26426M 26506  26573M 26611  26696M 26734  26819M 26857  26942M 26980  27065M
             27101  27354M 27392  27419M 27543  27613M 27650  27677M 27826  27896M 27934  27961M 28085  28156M 28194
             28221M 28345  28416M 28506  28627M 28653  28896M 28933  28999M 29025  29137M 29170  29216M 29219M 29221
             29241  29242  29267M 29299  29356M 29395  29470M 29485  29491M 29610  29634  29641  29666  29684M 29714
             30030M 30215  30529M 30529  30547  30548M 30555  30587M 30808  30909M 30929  31088M 31109  31164M 31350
             31397M 31417  31488M 31508  31752M 31772  31827M 31847  31985M 32012  32109M 32129  32315M 32350  32376M
             32501  32684  32706M 32818  32865M 32885  32929M 32949  32993M 33013  33060M 33080  33178M 33198  33242M
             33962  34009M 34029  34091M 34111  34208M 34237  34340M 34360  34463M 34483  34552M 34572  34641M 34661
             34730M 34750  34825M 34845  34914M 34934  35009M 35029  35098M 35118  35193M 35225  35315M 35315  35332M
             35353M 35358M 35359  35767M 35787  35933M 35953  36138M 36175  36341M 36416M 36436  36491M 36492M 36493N
             36494N 36509M 36511M 36512M 36513N 36576M 36596  36622M 36624M 36625M 36626N 36649N 36681M 36758  36910M
             36910  37229M 37274  37276M 37276  37277M 37344M 37344  37428  38299M 38331  38336  38459  38563M 38591
             38664M 38689  38846M 38970  39057M 39131N 39389M 39477N 39627M 39678M 39678N 39680N 39825M 39902  39938M
             39964  40309M 40330  40388M 40407  40465M 40484  40542M 40561  40619M 40690  40749M 40846  42661M 42726
             42846M 42897  42936M 43004  43158M 43835M 43835  43900M 43954  44142M 44175  44332M 44356  44852M 44990
             45182M 45239  45409M 45532  46006M 46037M 46071M 46090M 46115  46117M 46137M 46137  46145M 46147  46266M
             46397M 47101M 47101  47389M 47451  47639M 47670  47785M 47873  47966M 47987  47989M 47995M 47996  48025M
             48027M 48028  48030M 48030  48078M
     5(5)      962U  2126   6866   6904M  7547   7706   7841M  7911   8098M  8149   8191M  8192M  8193   8195   8297
              8371   8380   8416   8478   8487   8523   8560M  8612   8648M  8662M  8662   8668   8741M  8763M  8763
              8869   8929M  8982   9018M  9034   9084   9091   9105   9128   9130   9136M  9266   9286M  9341   9406M
              9440M  9442   9471M  9487   9507   9595   9615M  9670   9735M  9768M  9770   9799M  9815   9835   9923
              9943M  9998  10063M 10096  10125M 10141  10161  10238M 10251  10271M 10326  10391M 10403  10410M 10447
             10476M 10492  10512  10590M 10603  10623M 10678  10714M 10816  10887  10930  10991  11034  11053  11077
             11078  11141M 11171  11238M 11299  11364M 11364  11436M 11438  11458M 11474  11494  11532  11552  11595M
             11629  11678M 11679M 11684M 11684  11727M 11742  11757M 11789  11838M 11839M 11844M 11844  11918M 11970
             12078M 12130  12255M 12306  12349M 12349  12357  12392M 12394  12400M 12412  12450M 12488  12515M 12539
             12610M 12698  13113M 13146  13172M 13182U 14230U 14243M 14296  14360M 14360  14388M 14712  14717  14722M
             14723M 14726M 14740  14857M 14888  14929M 14976  15236  15360M 15385  15442M 15450  15474M 15475M 15745M
             15898  16693M 16881  16940M 16960  17012M 17032  17084M 17104  17145M 17295  17358M 17358  17359M 17382M
             17450  17616M 17675  17721M 17757  17807M 17834  18000M 18001M 18114M 18178  18222M 18253  18298M 18325
             18643M 18646M 18962M 19112  19170M 19448  19452M 19462  19539  19588M 19671  19744  19832M 19917  20000M
             20043  20046M 20073  20291  20385M 20453M 20746  20870M 20904  21006M 21111  21322  21374  21451  21504
             21636M 21710  22261M 22363  23222M 23277  23347M 23451  23546  24011  24043  24166M 24243  24335  24538
             24567  24596  24652  24681  24761  24790  24843  24872  24901  24952  24989M 25064  25149  25291  25359
             25390  25428M 25470  25564  25595  25627M 25711  25800M 25839  25930M 25969  26191M 26230  26319M 26358
             26426M 26506  26573M 26611  26696M 26734  26819M 26857  26942M 26980  27065M 27101  27354M 27392  27420M
             27542  27613M 27650  27678M 27825  27896M 27934  27962M 28084  28156M 28194  28222M 28344  28416M 28506
             28627M 28653  28896M 28933  28987D 28989M 28989  28990M 28991U 28992  28994M 29015  29104  29137M 29170
             29203D 29205M 29205  29206M 29207U 29208M 29208  29213M 29214N 29215M 29216  29217M 29218  29221M 29224M
             29226  29267M 29299  29356M 29395  29469M 29661  29684M 29714  30030M 30215  30523U 30525M 30540M 30540
             30549M 30561U 30587M 30808  30909M 30929  31088M 31109  31164M 31350  31397M 31417  31488M 31508  31752M
             31772  31827M 31847  31985M 32012  32109M 32129  32315M 32350  32706M 32818  32865M 32885  32929M 32949
             32993M 33013  33060M 33080  33178M 33198  33242M 33962  34009M 34029  34091M 34111  34208M 34237  34340M
             34360  34463M 34483  34552M 34572  34641M 34661  34730M 34750  34825M 34845  34914M 34934  35009M 35029
             35098M 35118  35193M 35209U 35225  35297M 35306M 35306  35397M 35406  35767M 35787  35813M 35933M 35953
             35979M 36138M 36150U 36175  36339M 36339  36340  36416M 36436  36462M 36474  36491  36503M 36503  36509
             36540M 36543M 36544  36576M 36596  36681M 36758  37229M 37245U 37470M 37811U 37850M 37850  37851  37869M
             37870  37891  38459  38563M 38591  38664M 38689  38846M 38970  39505M 39505  39619M 39619  39625  39626
1         (ACT2025) (12:40) (15MAR04) General Purpose Register Cross Reference                                              Page  306
             39708M 39708  39724M 39817M 39817  39823  39824  39938M 39964  40309M 40330  40388M 40407  40465M 40484
             40542M 40561  40619M 40690  40749M 40846  41730M 41749  41769  41789  41809  41829  41849  41864M 41884
             41904  41924  41944  41964  41984  42661M 42726  42769M 42784  42838  42842  42879  42936M 43004  43900M
             43954  44000D 44002M 44002  44003M 44004U 44016  44023M 44037  44061  44142M 44175  44332M 44356  44852M
             44990  45182M 45239  45409M 45532  45980M 46001M 46049  46197  47389M 47451  47497D 47499M 47499  47500M
             47501U 47513  47520M 47534  47558  47639M 47670  47785M 47873  47936M 47946M 47949  47968M 47970  47986
             47992M 48018M 48018  48039M 48041  48078M
     6(6)      958U  2126   6866   7841M  7911   8098M  8149   8371   8416   8478   8523   8560M  8612   8929M  8982
              9034   9286M  9341   9507   9615M  9670   9835   9943M  9998  10161  10271M 10326  10512  10623M 10678
             10887  10930  10991  11034  11141M 11171  11238M 11299  11494  11552  11595M 11629  11757M 11789  11918M
             11970  12078M 12130  12255M 12306  12450M 12488  12514M 12534  12610M 12698  13113M 13146  14243M 14296
             14427M 14437U 14759  14777U 14857M 14888  14929M 14976  15236  15360M 15385  15745M 15898  16693M 16881
             16940M 16960  17012M 17032  17084M 17104  17145M 17295  17382M 17450  17616M 17675  17721M 17757  17807M
             17834  17879M 17898M 18073M 18073  18080  18114M 18178  18222M 18253  18298M 18325  18962M 19112  19156M
             19166U 19814U 19832M 19917  19995U 20852U 20870M 20904  21006M 21111  21322  21374  21451  21504  21636M
             21710  21754M 21757  21769M 21776  21788M 21793  21795M 21827  21829  21924  21944  21975  22053  22144
             22169  22261M 22363  23222M 23277  23347M 23451  23546  24011  24043  24166M 24243  24335  24538  24567
             24596  24652  24681  24761  24790  24843  24872  24901  24952  24989M 25064  25149  25291  25359  25390
             25428M 25470  25564  25595  25627M 25711  25800M 25839  25930M 25969  26191M 26230  26319M 26358  26426M
             26506  26573M 26611  26696M 26734  26819M 26857  26942M 26980  27065M 27101  27354M 27392  27613M 27650
             27896M 27934  28156M 28194  28416M 28506  28627M 28653  28896M 28933  28998M 28998  29024M 29026M 29038
             29044M 29045M 29046M 29047M 29047  29055M 29063  29137M 29170  29210M 29219  29267M 29299  29356M 29395
             29421M 29510  29622  29669  29684M 29714  30030M 30215  30251M 30259U 30587M 30808  30909M 30929  31088M
             31109  31164M 31350  31397M 31417  31488M 31508  31752M 31772  31827M 31847  31985M 32012  32109M 32129
             32315M 32350  32706M 32818  32865M 32885  32929M 32949  32993M 33013  33060M 33080  33178M 33198  33242M
             33962  34009M 34029  34091M 34111  34208M 34237  34340M 34360  34463M 34483  34552M 34572  34641M 34661
             34730M 34750  34825M 34845  34914M 34934  35009M 35029  35098M 35118  35193M 35225  35767M 35787  35933M
             35953  36138M 36175  36416M 36436  36576M 36596  36681M 36692U 36758  36901M 37229M 37852M 37874M 37874N
             37907M 37943M 38112M 38212M 38231M 38459  38563M 38591  38664M 38689  38846M 38970  39010M 39141  39266
             39358  39487  39690  39780  39938M 39964  40114  40309M 40330  40388M 40407  40465M 40484  40542M 40561
             40619M 40690  40749M 40846  41516M 41524U 41996M 42180U 42661M 42682U 42726  42936M 43004  43900M 43954
             44142M 44153U 44175  44332M 44356  44852M 44990  45182M 45239  45409M 45532  45619M 45632  45670  45763
             45814  45860  45870  45897M 45905U 47316M 47317M 47317  47389M 47401U 47451  47639M 47670  47696M 47704U
             47785M 47796U 47873  47934M 47934  47991M 47991N 48023M 48033M 48037  48056  48078M
     7(7)      954U  2119M  2119   2120B  2126   2132B  6866   6871M  6883U  7833U  7841M  7911   7916M  7928U  8090U
              8098M  8149   8155M  8167U  8371   8416   8478   8523   8552U  8560M  8612   8618M  8630U  8921U  8929M
              8982   8988M  9000U  9034   9278U  9286M  9341   9347M  9359U  9507   9607U  9615M  9670   9676M  9688U
              9835   9935U  9943M  9998  10004M 10016U 10161  10263U 10271M 10326  10332M 10344U 10512  10615U 10623M
             10678  10684M 10696U 10887  10930  10991  11034  11133U 11141M 11171  11176M 11188U 11230U 11238M 11299
             11305M 11317U 11494  11552  11587U 11595M 11629  11634M 11646U 11749U 11757M 11789  11794M 11806U 11910U
             11918M 11970  11976M 11988U 12070U 12078M 12130  12136M 12148U 12247U 12255M 12306  12312M 12324U 12442U
             12450M 12488  12493M 12505U 12602U 12610M 12698  12703M 12715U 13105U 13113M 13146  13151M 13163U 14235U
             14243M 14296  14302M 14314U 14849U 14857M 14888  14893M 14905U 14921U 14929M 14976  14982M 14994U 15236
             15352U 15360M 15385  15390M 15402U 15737U 15745M 15898  15904M 15916U 16685U 16693M 16881  16886M 16898U
             16932U 16940M 16960  16965M 16977U 17004U 17012M 17032  17037M 17049U 17076U 17084M 17104  17109M 17121U
             17137U 17145M 17295  17301M 17313U 17374U 17382M 17450  17456M 17468U 17608U 17616M 17675  17680M 17692U
             17713U 17721M 17757  17762M 17774U 17799U 17807M 17834  17840M 17852U 18106U 18114M 18178  18183M 18195U
             18214U 18222M 18253  18258M 18270U 18290U 18298M 18325  18331M 18343U 18954U 18962M 19112  19118M 19130U
             19824U 19832M 19917  19923M 19935U 20862U 20870M 20904  20909M 20921U 20998U 21006M 21111  21117M 21129U
             21322  21374  21451  21504  21628U 21636M 21710  21716M 21728U 22253U 22261M 22363  22369M 22381U 23214U
             23222M 23277  23283M 23295U 23339U 23347M 23451  23457M 23469U 23546  24011  24043  24158U 24166M 24243
             24249M 24261U 24335  24538  24567  24596  24652  24681  24761  24790  24843  24872  24901  24952  24981U
             24989M 25064  25070M 25082U 25149  25291  25359  25390  25420U 25428M 25470  25475M 25487U 25564  25595
             25619U 25627M 25711  25716M 25728U 25792U 25800M 25839  25844M 25856U 25922U 25930M 25969  25974M 25986U
             26183U 26191M 26230  26235M 26247U 26311U 26319M 26358  26363M 26375U 26418U 26426M 26506  26512M 26524U
             26565U 26573M 26611  26617M 26629U 26688U 26696M 26734  26740M 26752U 26811U 26819M 26857  26863M 26875U
             26934U 26942M 26980  26986M 26998U 27057U 27065M 27101  27106M 27118U 27346U 27354M 27392  27397M 27409U
             27605U 27613M 27650  27655M 27667U 27888U 27896M 27934  27939M 27951U 28148U 28156M 28194  28199M 28211U
             28408U 28416M 28506  28512M 28524U 28619U 28627M 28653  28658M 28670U 28888U 28896M 28933  28938M 28950U
1         (ACT2025) (12:40) (15MAR04) General Purpose Register Cross Reference                                              Page  307
             29129U 29137M 29170  29175M 29187U 29259U 29267M 29299  29304M 29316U 29348U 29356M 29395  29400M 29412U
             29676U 29684M 29714  29719M 29731U 30022U 30030M 30215  30221M 30233U 30579U 30587M 30808  30813M 30825U
             30901U 30909M 30929  30934M 30946U 31080U 31088M 31109  31114M 31126U 31156U 31164M 31350  31355M 31367U
             31389U 31397M 31417  31422M 31434U 31480U 31488M 31508  31513M 31525U 31744U 31752M 31772  31777M 31789U
             31819U 31827M 31847  31852M 31864U 31977U 31985M 32012  32017M 32029U 32101U 32109M 32129  32134M 32146U
             32307U 32315M 32350  32355M 32367U 32698U 32706M 32818  32823M 32835U 32857U 32865M 32885  32890M 32902U
             32921U 32929M 32949  32954M 32966U 32985U 32993M 33013  33018M 33030U 33052U 33060M 33080  33085M 33097U
             33170U 33178M 33198  33203M 33215U 33234U 33242M 33962  33967M 33979U 34001U 34009M 34029  34034M 34046U
             34083U 34091M 34111  34116M 34128U 34200U 34208M 34237  34242M 34254U 34332U 34340M 34360  34365M 34377U
             34455U 34463M 34483  34488M 34500U 34544U 34552M 34572  34577M 34589U 34633U 34641M 34661  34666M 34678U
             34722U 34730M 34750  34755M 34767U 34817U 34825M 34845  34850M 34862U 34906U 34914M 34934  34939M 34951U
             35001U 35009M 35029  35034M 35046U 35090U 35098M 35118  35123M 35135U 35185U 35193M 35225  35230M 35242U
             35759U 35767M 35787  35792M 35804U 35925U 35933M 35953  35958M 35970U 36130U 36138M 36175  36180M 36192U
             36408U 36416M 36436  36441M 36453U 36568U 36576M 36596  36601M 36613U 36673U 36681M 36758  36761M 36771U
             37229M 38459  38464M 38476U 38479U 38552U 38555U 38563M 38591  38596M 38608U 38611U 38653U 38656U 38664M
             38689  38694M 38706U 38709U 38835U 38838U 38846M 38970  38976M 38988U 38991U 39927U 39930U 39938M 39964
             39969M 39981U 39984U 40298U 40301U 40309M 40330  40335M 40347U 40350U 40377U 40380U 40388M 40407  40412M
             40424U 40427U 40454U 40457U 40465M 40484  40489M 40501U 40504U 40531U 40534U 40542M 40561  40566M 40578U
             40581U 40608U 40611U 40619M 40690  40695M 40707U 40710U 40738U 40741U 40749M 40846  40852M 40864U 40867U
             42650U 42653U 42661M 42672U 42726  42732M 42744U 42928U 42936M 43004  43010M 43022U 43892U 43900M 43954
             43960M 43972U 44134U 44142M 44175  44180M 44192U 44324U 44332M 44356  44361M 44373U 44844U 44852M 44990
             44996M 45008U 45174U 45182M 45239  45245M 45257U 45401U 45409M 45532  45538M 45550U 47381U 47389M 47451
             47457M 47469U 47631U 47639M 47670  47675M 47687U 47777U 47785M 47873  47879M 47891U 48070U 48078M
     8(8)      950U  2126   6866   6867M  7837   7841M  7911   7912M  8094   8098M  8149   8151M  8181U  8371   8416
              8478   8523   8547U  8556   8560M  8612   8614M  8644U  8916U  8925   8929M  8982   8984M  9014U  9034
              9273U  9282   9286M  9341   9343M  9373U  9507   9602U  9611   9615M  9670   9672M  9702U  9835   9930U
              9939   9943M  9998  10000M 10030U 10161  10258U 10267  10271M 10326  10328M 10358U 10512  10610U 10619
             10623M 10678  10680M 10710U 10887  10930  10991  11034  11128U 11137  11141M 11171  11172M 11234  11238M
             11299  11301M 11331U 11494  11552  11582U 11591  11595M 11629  11630M 11753  11757M 11789  11790M 11914
             11918M 11970  11972M 12002U 12065U 12074  12078M 12130  12132M 12162U 12242U 12251  12255M 12306  12308M
             12338U 12437U 12446  12450M 12488  12489M 12606  12610M 12698  12699M 13109  13113M 13146  13147M 14239
             14243M 14296  14298M 14328U 14844U 14853  14857M 14888  14889M 14925  14929M 14976  14978M 15008U 15236
             15347U 15356  15360M 15385  15386M 15741  15745M 15898  15900M 15930U 16680U 16689  16693M 16881  16882M
             16936  16940M 16960  16961M 17008  17012M 17032  17033M 17080  17084M 17104  17105M 17141  17145M 17295
             17297M 17327U 17362N 17369U 17378  17382M 17450  17452M 17482U 17603U 17612  17616M 17675  17676M 17706
             17717  17721M 17757  17758M 17792  17803  17807M 17834  17836M 17866U 18094N 18101U 18110  18114M 18178
             18179M 18218  18222M 18253  18254M 18294  18298M 18325  18327M 18357U 18949U 18958  18962M 19112  19114M
             19144U 19819U 19828  19832M 19917  19919M 19949U 20857U 20866  20870M 20904  20905M 21002  21006M 21111
             21113M 21143U 21322  21374  21451  21504  21623U 21632  21636M 21710  21712M 21742U 22241  22248U 22257
             22261M 22363  22365M 22395U 23202  23209U 23218  23222M 23277  23279M 23309U 23327N 23334U 23343  23347M
             23451  23453M 23483U 23546  24011  24043  24146N 24153U 24162  24166M 24243  24245M 24275U 24335  24538
             24567  24596  24652  24681  24761  24790  24843  24872  24901  24952  24965  24976U 24985  24989M 25064
             25066M 25096U 25149  25234N 25291  25327N 25359  25390  25415U 25424  25428M 25470  25471M 25532N 25564
             25595  25623  25627M 25711  25712M 25785N 25796  25800M 25839  25840M 25915N 25926  25930M 25969  25970M
             26176N 26187  26191M 26230  26231M 26304N 26315  26319M 26358  26359M 26411N 26422  26426M 26506  26508M
             26538U 26560U 26569  26573M 26611  26613M 26643U 26671N 26683U 26692  26696M 26734  26736M 26766U 26794N
             26806U 26815  26819M 26857  26859M 26889U 26917N 26929U 26938  26942M 26980  26982M 27012U 27040N 27052U
             27061  27065M 27101  27102M 27339N 27350  27354M 27392  27393M 27609  27613M 27650  27651M 27892  27896M
             27934  27935M 28152  28156M 28194  28195M 28412  28416M 28506  28508M 28538U 28614U 28623  28627M 28653
             28654M 28892  28896M 28933  28934M 29078N 29115  29133  29137M 29170  29171M 29252N 29263  29267M 29299
             29300M 29341  29352  29356M 29395  29396M 29668  29680  29684M 29714  29715M 30026  30030M 30215  30217M
             30247U 30574U 30583  30587M 30808  30809M 30905  30909M 30929  30930M 31084  31088M 31109  31110M 31160
             31164M 31350  31351M 31393  31397M 31417  31418M 31484  31488M 31508  31509M 31748  31752M 31772  31773M
             31823  31827M 31847  31848M 31981  31985M 32012  32013M 32105  32109M 32129  32130M 32311  32315M 32350
             32351M 32691N 32702  32706M 32818  32819M 32861  32865M 32885  32886M 32913N 32925  32929M 32949  32950M
             32989  32993M 33013  33014M 33056  33060M 33080  33081M 33162N 33174  33178M 33198  33199M 33238  33242M
             33962  33963M 34005  34009M 34029  34030M 34087  34091M 34111  34112M 34204  34208M 34237  34238M 34336
             34340M 34360  34361M 34459  34463M 34483  34484M 34548  34552M 34572  34573M 34637  34641M 34661  34662M
             34726  34730M 34750  34751M 34821  34825M 34845  34846M 34910  34914M 34934  34935M 35005  35009M 35029
1         (ACT2025) (12:40) (15MAR04) General Purpose Register Cross Reference                                              Page  308
             35030M 35094  35098M 35118  35119M 35189  35193M 35225  35226M 35763  35767M 35787  35788M 35929  35933M
             35953  35954M 36134  36138M 36175  36176M 36412  36416M 36436  36437M 36572  36576M 36596  36597M 36677
             36681M 36758  36759M 37227  37229M 38459  38460M 38517  38559  38563M 38591  38592M 38660  38664M 38689
             38690M 38842  38846M 38970  38972M 39005U 39911  39918U 39934  39938M 39964  39965M 40287  40305  40309M
             40330  40331M 40384  40388M 40407  40408M 40461  40465M 40484  40485M 40538  40542M 40561  40562M 40615
             40619M 40690  40691M 40745  40749M 40846  40848M 40881U 42641U 42657  42661M 42726  42728M 42758U 42923U
             42932  42936M 43004  43006M 43036U 43887U 43896  43900M 43954  43956M 43986U 44122  44129U 44138  44142M
             44175  44176M 44328  44332M 44356  44357M 44848  44852M 44990  44992M 45022U 45169U 45178  45182M 45239
             45241M 45271U 45396U 45405  45409M 45532  45534M 45564U 47369  47376U 47385  47389M 47451  47453M 47483U
             47619  47626U 47635  47639M 47670  47671M 47781  47785M 47873  47875M 47905U 48058  48065U 48074  48078M
     9(9)      946U  2126   8371   8416   8478   8523   9034   9507   9835  10161  10512  10887  10930  10991  11034
             11494  11552  15236  21322  21374  21451  21504  23546  24011  24043  24335  24538  24567  24596  24652
             24681  24761  24790  24843  24872  24901  24952  25149  25291  25359  25390  25564  25595
    10(A)      942U  2126   8371   8416   8478   8523   9034   9507   9835  10161  10512  10887  10930  10991  11034
             11494  11552  15236  21322  21374  21451  21504  23546  24011  24043  24335  24538  24567  24596  24652
             24681  24761  24790  24843  24872  24901  24952  25149  25291  25359  25390  25564  25595
    11(B)      938U  1190U  2126   8371   8416   8478   8523   9034   9507   9835  10161  10512  10887  10930  10991
             11034  11494  11552  15236  21322  21374  21451  21504  23546  24011  24043  24335  24538  24567  24596
             24652  24681  24761  24790  24843  24872  24901  24952  25149  25291  25359  25390  25564  25595
    12(C)      934U  1199U  2126   8371   8416   8478   8523   9034   9507   9835  10161  10512  10887  10930  10991
             11034  11494  11552  15236  21322  21374  21451  21504  23546  24011  24043  24335  24538  24567  24596
             24652  24681  24761  24790  24843  24872  24901  24952  25149  25291  25359  25390  25564  25595
    13(D)      930U  2126   6863   6866   6867   6868M  6868   7704   7705M  7705   7837M  7841   7843   7908   7911
              7912   7913M  7913   8094M  8098   8100   8146   8149   8151   8152M  8152   8270   8271M  8271   8371
              8416   8478   8523   8556M  8560   8562   8609   8612   8614   8615M  8615   8925M  8929   8931   8979
              8982   8984   8985M  8985   9034   9282M  9286   9288   9338   9341   9343   9344M  9344   9507   9611M
              9615   9617   9667   9670   9672   9673M  9673   9835   9939M  9943   9945   9995   9998  10000  10001M
             10001  10161  10267M 10271  10273  10323  10326  10328  10329M 10329  10512  10619M 10623  10625  10675
             10678  10680  10681M 10681  10887  10930  10991  11034  11067  11068M 11068  11091M 11137M 11141  11143
             11168  11171  11172  11173M 11173  11234M 11238  11240  11296  11299  11301  11302M 11302  11494  11552
             11591M 11595  11597  11626  11629  11630  11631M 11631  11705  11706M 11706  11720M 11721  11753M 11757
             11759  11786  11789  11790  11791M 11791  11865  11866M 11866  11880M 11881  11914M 11918  11920  11967
             11970  11972  11973M 11973  12074M 12078  12080  12127  12130  12132  12133M 12133  12251M 12255  12257
             12303  12306  12308  12309M 12309  12446M 12450  12452  12485  12488  12489  12490M 12490  12606M 12610
             12612  12695  12698  12699  12700M 12700  13109M 13113  13115  13143  13146  13147  13148M 13148  13608
             13609M 13609  13629M 13630  14239M 14243  14245  14293  14296  14298  14299M 14299  14717  14718M 14718
             14725M 14726  14853M 14857  14859  14885  14888  14889  14890M 14890  14925M 14929  14931  14973  14976
             14978  14979M 14979  15236  15356M 15360  15362  15382  15385  15386  15387M 15387  15741M 15745  15747
             15895  15898  15900  15901M 15901  16338  16340M 16340  16387  16388  16389  16391M 16391  16404M 16405
             16406  16407  16442M 16689M 16693  16695  16878  16881  16882  16883M 16883  16936M 16940  16942  16957
             16960  16961  16962M 16962  17008M 17012  17014  17029  17032  17033  17034M 17034  17080M 17084  17086
             17101  17104  17105  17106M 17106  17141M 17145  17147  17292  17295  17297  17298M 17298  17378M 17382
             17384  17447  17450  17452  17453M 17453  17612M 17616  17618  17672  17675  17676  17677M 17677  17717M
             17721  17723  17754  17757  17758  17759M 17759  17803M 17807  17809  17831  17834  17836  17837M 17837
             18110M 18114  18116  18175  18178  18179  18180M 18180  18218M 18222  18224  18250  18253  18254  18255M
             18255  18294M 18298  18300  18322  18325  18327  18328M 18328  18958M 18962  18964  19109  19112  19114
             19115M 19115  19828M 19832  19834  19914  19917  19919  19920M 19920  20866M 20870  20872  20901  20904
             20905  20906M 20906  21002M 21006  21008  21108  21111  21113  21114M 21114  21322  21374  21451  21504
             21632M 21636  21638  21707  21710  21712  21713M 21713  22257M 22261  22263  22360  22363  22365  22366M
             22366  23218M 23222  23224  23274  23277  23279  23280M 23280  23343M 23347  23349  23448  23451  23453
             23454M 23454  23546  24011  24043  24162M 24166  24168  24240  24243  24245  24246M 24246  24335  24538
             24567  24596  24652  24681  24761  24790  24843  24872  24901  24952  24985M 24989  24991  25061  25064
             25066  25067M 25067  25149  25291  25359  25390  25424M 25428  25430  25467  25470  25471  25472M 25472
             25564  25595  25623M 25627  25629  25708  25711  25712  25713M 25713  25796M 25800  25802  25836  25839
             25840  25841M 25841  25926M 25930  25932  25966  25969  25970  25971M 25971  26141  26142M 26142  26166M
             26167  26187M 26191  26193  26227  26230  26231  26232M 26232  26315M 26319  26321  26355  26358  26359
             26360M 26360  26422M 26426  26428  26503  26506  26508  26509M 26509  26569M 26573  26575  26608  26611
             26613  26614M 26614  26692M 26696  26698  26731  26734  26736  26737M 26737  26815M 26819  26821  26854
             26857  26859  26860M 26860  26938M 26942  26944  26977  26980  26982  26983M 26983  27061M 27065  27067
1         (ACT2025) (12:40) (15MAR04) General Purpose Register Cross Reference                                              Page  309
             27098  27101  27102  27103M 27103  27302  27303M 27303  27327M 27328  27350M 27354  27356  27389  27392
             27393  27394M 27394  27609M 27613  27615  27647  27650  27651  27652M 27652  27892M 27896  27898  27931
             27934  27935  27936M 27936  28152M 28156  28158  28191  28194  28195  28196M 28196  28412M 28416  28418
             28503  28506  28508  28509M 28509  28623M 28627  28629  28650  28653  28654  28655M 28655  28892M 28896
             28898  28930  28933  28934  28935M 28935  29133M 29137  29139  29167  29170  29171  29172M 29172  29263M
             29267  29269  29296  29299  29300  29301M 29301  29331  29332M 29332  29338M 29339  29352M 29356  29358
             29392  29395  29396  29397M 29397  29680M 29684  29686  29711  29714  29715  29716M 29716  30026M 30030
             30032  30212  30215  30217  30218M 30218  30432  30433  30434  30436M 30436  30449M 30450  30451  30452
             30583M 30587  30589  30805  30808  30809  30810M 30810  30905M 30909  30911  30926  30929  30930  30931M
             30931  31084M 31088  31090  31106  31109  31110  31111M 31111  31160M 31164  31166  31347  31350  31351
             31352M 31352  31393M 31397  31399  31414  31417  31418  31419M 31419  31484M 31488  31490  31505  31508
             31509  31510M 31510  31748M 31752  31754  31769  31772  31773  31774M 31774  31823M 31827  31829  31844
             31847  31848  31849M 31849  31981M 31985  31987  32009  32012  32013  32014M 32014  32105M 32109  32111
             32126  32129  32130  32131M 32131  32311M 32315  32317  32347  32350  32351  32352M 32352  32380  32382M
             32382  32393  32394  32395  32397M 32397  32409M 32410  32411  32412  32469  32470  32471  32473M 32473
             32486M 32487  32488  32489  32581  32583M 32583  32621  32622  32623  32625M 32625  32638M 32639  32640
             32641  32652M 32682M 32702M 32706  32708  32815  32818  32819  32820M 32820  32861M 32865  32867  32882
             32885  32886  32887M 32887  32925M 32929  32931  32946  32949  32950  32951M 32951  32989M 32993  32995
             33010  33013  33014  33015M 33015  33056M 33060  33062  33077  33080  33081  33082M 33082  33117  33118
             33119  33121M 33121  33133M 33134  33135  33136  33174M 33178  33180  33195  33198  33199  33200M 33200
             33238M 33242  33244  33959  33962  33963  33964M 33964  34005M 34009  34011  34026  34029  34030  34031M
             34031  34087M 34091  34093  34108  34111  34112  34113M 34113  34204M 34208  34210  34234  34237  34238
             34239M 34239  34336M 34340  34342  34357  34360  34361  34362M 34362  34459M 34463  34465  34480  34483
             34484  34485M 34485  34548M 34552  34554  34569  34572  34573  34574M 34574  34637M 34641  34643  34658
             34661  34662  34663M 34663  34726M 34730  34732  34747  34750  34751  34752M 34752  34821M 34825  34827
             34842  34845  34846  34847M 34847  34910M 34914  34916  34931  34934  34935  34936M 34936  35005M 35009
             35011  35026  35029  35030  35031M 35031  35094M 35098  35100  35115  35118  35119  35120M 35120  35189M
             35193  35195  35222  35225  35226  35227M 35227  35368  35369M 35369  35408M 35409  35763M 35767  35769
             35784  35787  35788  35789M 35789  35929M 35933  35935  35950  35953  35954  35955M 35955  36134M 36138
             36140  36172  36175  36176  36177M 36177  36288  36290M 36290  36352  36353  36354  36356M 36356  36369M
             36370  36371  36372  36383M 36412M 36416  36418  36433  36436  36437  36438M 36438  36572M 36576  36578
             36593  36596  36597  36598M 36598  36677M 36681  36683  36758  36759  36760M 36760  37227M 37228  37229
             37392  37393M 37393  37479M 37480  38456  38459  38460  38461M 38461  38559M 38563  38565  38588  38591
             38592  38593M 38593  38660M 38664  38666  38686  38689  38690  38691M 38691  38842M 38846  38848  38967
             38970  38972  38973M 38973  39934M 39938  39940  39961  39964  39965  39966M 39966  40305M 40309  40311
             40327  40330  40331  40332M 40332  40384M 40388  40390  40404  40407  40408  40409M 40409  40461M 40465
             40467  40481  40484  40485  40486M 40486  40538M 40542  40544  40558  40561  40562  40563M 40563  40615M
             40619  40621  40687  40690  40691  40692M 40692  40745M 40749  40751  40843  40846  40848  40849M 40849
             41372  41373M 41373  41379M 41380  42657M 42661  42663  42723  42726  42728  42729M 42729  42932M 42936
             42938  43001  43004  43006  43007M 43007  43896M 43900  43902  43951  43954  43956  43957M 43957  44138M
             44142  44144  44172  44175  44176  44177M 44177  44328M 44332  44334  44353  44356  44357  44358M 44358
             44848M 44852  44854  44987  44990  44992  44993M 44993  45178M 45182  45184  45236  45239  45241  45242M
             45242  45405M 45409  45411  45529  45532  45534  45535M 45535  47385M 47389  47391  47448  47451  47453
             47454M 47454  47635M 47639  47641  47667  47670  47671  47672M 47672  47781M 47785  47787  47870  47873
             47875  47876M 47876  47935M 48016M 48016N 48024M 48034M 48074M 48078  48080
    14(E)      926U  2126   2127M  2141   2142M  2143B  2145M  2146B  2166M  2167B  2171M  2172B  2174M  2175B  2177M
              2178B  2180M  2181B  2183M  2184M  2184B  2190   6863   6894M  6895M  6895B  6902M  6903M  6903B  6924M
              6925M  6925B  6949M  6950M  6950B  6968M  6969M  6969B  6977M  6978M  6978B  6999M  7000M  7000B  7017M
              7018M  7018B  7036M  7037M  7037B  7058M  7059M  7059B  7083M  7084M  7084B  7102M  7103M  7103B  7124M
              7125M  7125B  7149M  7150M  7150B  7168M  7169M  7169B  7190M  7191M  7191B  7215M  7216M  7216B  7234M
              7235M  7235B  7256M  7257M  7257B  7274M  7275M  7275B  7296M  7297M  7297B  7314M  7315M  7315B  7339M
              7340M  7340B  7364M  7365M  7365B  7383M  7384M  7384B  7405M  7406M  7406B  7430M  7431M  7431B  7449M
              7450M  7450B  7471M  7472M  7472B  7496M  7497M  7497B  7521M  7522M  7522B  7540M  7541M  7541B  7565M
              7566M  7566B  7590M  7591M  7591B  7615M  7616M  7616B  7642M  7643M  7643B  7660M  7661M  7661B  7674M
              7675M  7675B  7699M  7700M  7700B  7711M  7712M  7712B  7741M  7742M  7742B  7775M  7776M  7776B  7800M
              7801M  7801B  7818M  7819M  7819B  7843M  7846B  7908   7945M  7946M  7946B  7954M  7955M  7955B  7961M
              7962M  7962B  8049M  8050M  8050B  8072M  8073M  8073B  8081M  8082M  8082B  8100M  8103B  8146   8199M
              8200M  8200B  8255M  8256M  8256B  8276M  8277M  8277B  8282M  8283M  8283B  8289M  8290M  8290B  8300M
              8301M  8301B  8354M  8355M  8355B  8371   8372M  8399M  8400M  8400B  8416   8417M  8461M  8462M  8462B
1         (ACT2025) (12:40) (15MAR04) General Purpose Register Cross Reference                                              Page  310
              8478   8479M  8506M  8507M  8507B  8523   8524M  8562M  8565B  8609   8685M  8686M  8686B  8872M  8873M
              8873B  8903M  8904M  8904B  8931M  8934B  8979   9034   9035M  9062M  9063M  9063B  9070M  9071M  9071B
              9109M  9110M  9110B  9134M  9135M  9135B  9158M  9159M  9159B  9288M  9291B  9338   9429M  9430M  9430B
              9446M  9447M  9447B  9490M  9491M  9491B  9507   9508M  9617M  9620B  9667   9758M  9759M  9759B  9774M
              9775M  9775B  9818M  9819M  9819B  9835   9836M  9945M  9948B  9995  10086M 10087M 10087B 10100M 10101M
             10101B 10144M 10145M 10145B 10161  10162M 10273M 10276B 10323  10437M 10438M 10438B 10451M 10452M 10452B
             10495M 10496M 10496B 10512  10513M 10625M 10628B 10675  10732M 10733M 10733B 10870M 10871M 10871B 10887
             10888M 10913M 10914M 10914B 10930  10931M 10974M 10975M 10975B 10991  10992M 11017M 11018M 11018B 11034
             11035M 11049M 11050M 11050B 11057M 11058M 11058B 11064M 11065M 11065B 11088M 11089M 11089B 11095M 11096M
             11096B 11143M 11146B 11168  11240M 11243B 11296  11442M 11443M 11443B 11477M 11478M 11478B 11494  11495M
             11535M 11536M 11536B 11552  11553M 11597M 11600B 11626  11712M 11713M 11713B 11725M 11726M 11726B 11735M
             11736M 11736B 11759M 11762B 11786  11872M 11873M 11873B 11884M 11885M 11885B 11893M 11894M 11894B 11920M
             11923B 11967  12023M 12024M 12024B 12053M 12054M 12054B 12080M 12083B 12127  12184M 12185M 12185B 12221M
             12222M 12222B 12229M 12230M 12230B 12257M 12260B 12303  12375M 12376M 12376B 12397M 12398M 12398B 12452M
             12455B 12485  12522M 12523M 12523B 12544M 12545M 12545B 12583M 12584M 12584B 12612M 12615B 12695  12742M
             12743M 12743B 12862M 12863M 12863B 13115M 13118B 13143  13255M 13256M 13256B 13281M 13282M 13282B 13311M
             13312M 13312B 13340M 13341M 13341B 13387M 13388M 13388B 13437M 13438M 13438B 13456M 13457M 13457B 13572M
             13573M 13573B 13591M 13592M 13592B 13626M 13627M 13627B 13653M 13654M 13654B 13694M 13695M 13695B 13722M
             13723M 13723B 13754M 13755M 13755B 13779M 13780M 13780B 13797M 13798M 13798B 13833M 13834M 13834B 13855M
             13856M 13856B 13873M 13874M 13874B 13908M 13909M 13909B 13951M 13952M 13952B 13973M 13974M 13974B 13991M
             13992M 13992B 14031M 14032M 14032B 14059M 14060M 14060B 14077M 14078M 14078B 14116M 14117M 14117B 14154M
             14155M 14155B 14192M 14193M 14193B 14222M 14223M 14223B 14245M 14248B 14293  14372M 14373M 14373B 14395M
             14396M 14396B 14424M 14425M 14425B 14500M 14501M 14501B 14538M 14539M 14539B 14550M 14551M 14551B 14748M
             14749M 14749B 14768M 14769M 14769B 14831M 14832M 14832B 14859M 14862B 14885  14931M 14934B 14973  15068M
             15069M 15069B 15109M 15110M 15110B 15143M 15144M 15144B 15165M 15166M 15166B 15185M 15186M 15186B 15219M
             15220M 15220B 15236  15237M 15276M 15277M 15277B 15309M 15310M 15310B 15323M 15324M 15324B 15338M 15339M
             15339B 15362M 15365B 15382  15453M 15454M 15454B 15471M 15472M 15472B 15682M 15683M 15683B 15704M 15705M
             15705B 15724M 15725M 15725B 15747M 15750B 15895  16153M 16154M 16154B 16175M 16176M 16176B 16205M 16206M
             16206B 16233M 16234M 16234B 16251M 16252M 16252B 16273M 16274M 16274B 16328M 16329M 16329B 16337M 16338
             16354M 16355M 16355B 16370M 16371N 16372N 16376M 16376  16386M 16387  16388  16389  16394M 16395  16398M
             16399M 16399B 16402M 16405  16406  16407  16412M 16413M 16413B 16440M 16443  16560M 16561M 16561B 16576M
             16577M 16577B 16596M 16597M 16597B 16618M 16619M 16619B 16659M 16660M 16660B 16695M 16698B 16878  16923M
             16924M 16924B 16942M 16945B 16957  17014M 17017B 17029  17086M 17089B 17101  17147M 17150B 17292  17384M
             17387B 17447  17496M 17497M 17497B 17618M 17621B 17672  17703M 17704M 17704B 17723M 17726B 17754  17789M
             17790M 17790B 17809M 17812B 17831  17896M 17897M 17897B 17911M 17912M 17912B 18084M 18085M 18085B 18116M
             18119B 18175  18206M 18207M 18207B 18224M 18227B 18250  18282M 18283M 18283B 18300M 18303B 18322  18404M
             18405M 18405B 18428M 18429M 18429B 18633M 18634M 18634B 18673M 18674M 18674B 18696M 18697M 18697B 18726M
             18727M 18727B 18766M 18767M 18767B 18930M 18931M 18931B 18964M 18967B 19109  19216M 19217M 19217B 19372M
             19373M 19373B 19740M 19741M 19741B 19796M 19797M 19797B 19834M 19837B 19914  20031M 20045M 20083M 20084M
             20084B 20299M 20300M 20300B 20754M 20755M 20755B 20872M 20875B 20901  20950M 20951M 20951B 21008M 21011B
             21108  21171M 21172M 21172B 21235M 21236M 21236B 21305M 21306M 21306B 21322  21323M 21357M 21358M 21358B
             21374  21375M 21434M 21435M 21435B 21451  21452M 21487M 21488M 21488B 21504  21505M 21609M 21610M 21610B
             21638M 21641B 21707  21801M 21802M 21802B 21820M 21821M 21821B 21908M 21909M 21909B 21947M 21948M 21948B
             22263M 22266B 22360  22453M 22454M 22454B 22565M 22566M 22566B 22874M 22875M 22875B 22881M 22882M 22882B
             23224M 23227B 23274  23324M 23325M 23325B 23349M 23352B 23448  23546  23547M 23562M 23563M 23563B 23768M
             23769M 23769B 23810M 23811M 23811B 24011  24012M 24043  24044M 24168M 24171B 24240  24298M 24299M 24299B
             24308M 24309M 24309B 24335  24336M 24521M 24522M 24522B 24538  24539M 24567  24568M 24596  24597M 24635M
             24636M 24636B 24652  24653M 24681  24682M 24744M 24745M 24745B 24761  24762M 24790  24791M 24826M 24827M
             24827B 24843  24844M 24872  24873M 24901  24902M 24932M 24933M 24933B 24952  24953M 24991M 24994B 25061
             25132M 25133M 25133B 25149  25150M 25229M 25230M 25230B 25252M 25253M 25253B 25291  25292M 25342M 25343M
             25343B 25359  25360M 25373M 25374M 25374B 25390  25391M 25430M 25433B 25467  25499M 25500M 25500B 25547M
             25548M 25548B 25564  25565M 25578M 25579M 25579B 25595  25596M 25629M 25632B 25708  25745M 25746M 25746B
             25802M 25805B 25836  25875M 25876M 25876B 25932M 25935B 25966  26015M 26016M 26016B 26044M 26045M 26045B
             26064M 26065M 26065B 26146M 26147M 26147B 26193M 26196B 26227  26264M 26265M 26265B 26321M 26324B 26355
             26388M 26389M 26389B 26403M 26404M 26404B 26428M 26431B 26503  26551M 26552M 26552B 26575M 26578B 26608
             26656M 26657M 26657B 26698M 26701B 26731  26779M 26780M 26780B 26821M 26824B 26854  26902M 26903M 26903B
             26944M 26947B 26977  27025M 27026M 27026B 27067M 27070B 27098  27147M 27148M 27148B 27176M 27177M 27177B
             27209M 27210M 27210B 27238M 27239M 27239B 27262M 27263M 27263B 27291M 27292M 27292B 27307M 27308M 27308B
             27356M 27359B 27389  27470M 27471M 27471B 27497M 27498M 27498B 27526M 27527M 27527B 27546M 27547M 27547B
1         (ACT2025) (12:40) (15MAR04) General Purpose Register Cross Reference                                              Page  311
             27567M 27568M 27568B 27615M 27618B 27647  27698M 27699M 27699B 27727M 27728M 27728B 27744M 27745M 27745B
             27774M 27775M 27775B 27813M 27814M 27814B 27829M 27830M 27830B 27850M 27851M 27851B 27898M 27901B 27931
             28012M 28013M 28013B 28039M 28040M 28040B 28068M 28069M 28069B 28089M 28090M 28090B 28110M 28111M 28111B
             28158M 28161B 28191  28272M 28273M 28273B 28299M 28300M 28300B 28328M 28329M 28329B 28349M 28350M 28350B
             28370M 28371M 28371B 28418M 28421B 28503  28546M 28547M 28547B 28605M 28606M 28606B 28629M 28632B 28650
             28749M 28750M 28750B 28754M 28755M 28755B 28778M 28779M 28779B 28796M 28797M 28797B 28876M 28877M 28877B
             28898M 28901B 28930  29139M 29142B 29167  29269M 29272B 29296  29327M 29328M 29328B 29335M 29336M 29336B
             29358M 29361B 29392  29508M 29509M 29509B 29513M 29514M 29514B 29537M 29538M 29538B 29686M 29689B 29711
             29794M 29795M 29795B 29812M 29813M 29813B 29817M 29818M 29818B 29857M 29858M 29858B 29875M 29876M 29876B
             29919M 29920M 29920B 29937M 29938M 29938B 29958M 29959M 29959B 29991M 29992M 29992B 30032M 30035B 30212
             30362M 30363M 30363B 30366M 30367M 30367B 30371M 30372M 30372B 30409M 30410M 30410B 30431M 30432  30433
             30434  30439M 30440  30443M 30444M 30444B 30447M 30450  30451  30452  30457M 30458M 30458B 30589M 30592B
             30805  30911M 30914B 30926  31019M 31020N 31035N 31050N 31051N 31052  31052  31053N 31054N 31067N 31071M
             31071  31090M 31093B 31106  31166M 31169B 31347  31399M 31402B 31414  31465M 31466M 31466B 31490M 31493B
             31505  31577M 31578N 31593N 31608N 31609N 31610  31610  31611N 31612N 31625N 31629M 31629  31720M 31721
             31725M 31725  31754M 31757B 31769  31829M 31832B 31844  31893M 31894M 31894B 31957M 31958  31962M 31962
             31987M 31990B 32009  32041M 32042N 32057N 32072N 32073N 32074  32074  32075N 32076N 32089N 32093M 32093
             32111M 32114B 32126  32189M 32190M 32190B 32240M 32241M 32241B 32317M 32320B 32347  32379M 32380  32392M
             32393  32394  32395  32403M 32404M 32404B 32407M 32410  32411  32412  32417M 32418M 32418B 32468M 32469
             32470  32471  32476M 32477  32480M 32481M 32481B 32484M 32487  32488  32489  32580M 32581  32604M 32605N
             32606N 32610M 32610  32620M 32621  32622  32623  32628M 32629  32632M 32633M 32633B 32636M 32639  32640
             32641  32646M 32647M 32647B 32650M 32653  32680M 32683  32708M 32711B 32815  32867M 32870B 32882  32931M
             32934B 32946  32977M 32978M 32978B 32995M 32998B 33010  33062M 33065B 33077  33116M 33117  33118  33119
             33127M 33128M 33128B 33131M 33134  33135  33136  33155M 33156M 33156B 33180M 33183B 33195  33226M 33227M
             33227B 33244M 33247B 33959  34011M 34014B 34026  34071M 34072M 34072B 34075M 34076M 34076B 34093M 34096B
             34108  34140M 34141N 34156N 34171N 34172N 34173  34173  34174N 34175N 34188N 34192M 34192  34210M 34213B
             34234  34312M 34313  34317M 34317  34342M 34345B 34357  34435M 34436  34440M 34440  34465M 34468B 34480
             34524M 34525  34529M 34529  34554M 34557B 34569  34613M 34614  34618M 34618  34643M 34646B 34658  34702M
             34703  34707M 34707  34732M 34735B 34747  34797M 34798  34802M 34802  34827M 34830B 34842  34886M 34887
             34891M 34891  34916M 34919B 34931  34981M 34982  34986M 34986  35011M 35014B 35026  35070M 35071  35075M
             35075  35100M 35103B 35115  35165M 35166  35170M 35170  35195M 35198B 35222  35394M 35395M 35395B 35465M
             35466M 35466B 35481M 35482M 35482B 35502M 35561M 35562M 35562B 35596M 35597M 35597B 35632M 35633M 35633B
             35665M 35666M 35666B 35681M 35682M 35682B 35739M 35740  35744M 35744  35769M 35772B 35784  35874M 35875M
             35875B 35896M 35897M 35897B 35905M 35906  35910M 35910  35935M 35938B 35950  35995M 35996M 35996B 36110M
             36111  36115M 36115  36140M 36143B 36172  36222M 36223N 36238N 36253N 36254N 36255  36255  36256N 36257N
             36270N 36274M 36274  36287M 36288  36306M 36307M 36307B 36326M 36327N 36328N 36332M 36332  36351M 36352
             36353  36354  36359M 36360  36363M 36364M 36364B 36367M 36370  36371  36372  36377M 36378M 36378B 36381M
             36384  36388M 36389  36393M 36393  36418M 36421B 36433  36548M 36549  36553M 36553  36578M 36581B 36593
             36653M 36654  36658M 36658  36683M 36686B 36756  36874M 36875M 36875B 36878M 36879M 36879B 36883M 36884M
             36884B 36923M 36924M 36924B 36975M 36976M 36976B 37228M 37230B 37260M 37261M 37261B 37419M 37420M 37420B
             37428M 37463M 37464  37514M 37515M 37515B 37556M 37557M 37557B 37574M 37619M 37620M 37620B 37645M 37646M
             37646B 37681M 37682M 37682B 37842M 37843M 37843B 37865M 37866M 37866B 37888M 37889M 37889B 37921M 37922M
             37922B 37955M 37956M 37956B 37977M 37978M 37978B 38003M 38004M 38004B 38053M 38054M 38054B 38124M 38125M
             38125B 38206M 38207M 38207B 38241M 38242M 38242B 38274M 38275M 38275B 38287M 38288M 38288B 38308M 38309M
             38309B 38456  38493M 38494M 38494B 38497M 38498M 38498B 38565M 38568B 38588  38637M 38638M 38638B 38666M
             38669B 38686  38740M 38741M 38741B 38763M 38764M 38764B 38800M 38801M 38801B 38818M 38819M 38819B 38848M
             38851B 38967  39014M 39015M 39015B 39150M 39151M 39151B 39275M 39276M 39276B 39321M 39322M 39322B 39367M
             39368M 39368B 39445M 39446M 39446B 39470M 39471M 39471B 39496M 39497M 39497B 39556M 39557M 39557B 39564M
             39565M 39565B 39699M 39700M 39700B 39789M 39790M 39790B 39884M 39885M 39885B 39940M 39943B 39961  40031M
             40032M 40032B 40055M 40056M 40056B 40097M 40098M 40098B 40103M 40104M 40114  40123M 40124M 40124B 40146M
             40147M 40147B 40311M 40314B 40327  40390M 40393B 40404  40467M 40470B 40481  40544M 40547B 40558  40621M
             40624B 40687  40726M 40727M 40727B 40751M 40754B 40843  41126M 41127M 41127B 41177M 41178M 41178B 41235M
             41236M 41236B 41273M 41274M 41274B 41376M 41377M 41377B 41437M 41438M 41438B 41641M 41642M 41642B 41685M
             41686M 41686B 42026M 42033M 42036M 42123M 42126M 42126B 42194M 42195M 42195B 42487M 42488M 42488B 42491M
             42492M 42492B 42509M 42510M 42510B 42585M 42586M 42586B 42619M 42620M 42620B 42663M 42666B 42723  42938M
             42941B 43001  43224M 43225M 43225B 43501M 43502M 43502B 43902M 43905B 43951  44144M 44147B 44172  44264M
             44265M 44265B 44287M 44288M 44288B 44292M 44293M 44293B 44316M 44317M 44317B 44334M 44337B 44353  44385M
             44386M 44386B 44409M 44410M 44410B 44445M 44446M 44446B 44466M 44467M 44467B 44484M 44485M 44485B 44538M
             44539M 44539B 44543M 44544M 44544B 44567M 44568M 44568B 44624M 44625M 44625B 44633M 44634M 44634B 44657M
1         (ACT2025) (12:40) (15MAR04) General Purpose Register Cross Reference                                              Page  312
             44658M 44658B 44712M 44713M 44713B 44717M 44718M 44718B 44741M 44742M 44742B 44782M 44783M 44783B 44804M
             44805M 44805B 44822M 44823M 44823B 44854M 44857B 44987  45052M 45053M 45053B 45061M 45062M 45062B 45085M
             45086M 45086B 45155M 45156M 45156B 45184M 45187B 45236  45302M 45303M 45303B 45311M 45312M 45312B 45382M
             45383M 45383B 45411M 45414B 45529  46464M 46465M 46465B 46633M 46634M 46634B 46677M 46678M 46678B 46751M
             46752M 46752B 47014M 47015M 47015B 47036M 47037M 47037B 47391M 47394B 47448  47641M 47644B 47667  47787M
             47790B 47870  48080M 48083B
    15(F)      922U  2126   6899M  6921M  6946M  6965M  6974M  6984   6996M  7014M  7033M  7055M  7080M  7099M  7121M
              7146M  7165M  7187M  7212M  7231M  7253M  7271M  7293M  7311M  7336M  7361M  7380M  7402M  7427M  7446M
              7468M  7493M  7518M  7537M  7562M  7587M  7612M  7657M  7671M  7696M  7704M  7738M  7758   7772M  7797M
              7815M  7845M  7845   7942M  7951M  7958M  8036M  8037M  8038   8039   8046M  8078M  8102M  8102   8196M
              8201   8203M  8213U  8235U  8286M  8297M  8325M  8326M  8326   8371   8382M  8416   8432M  8433M  8433
              8478   8489M  8523   8564M  8564   8668M  8826M  8827M  8828   8847M  8848M  8849   8861M  8862M  8863
              8869M  8933M  8933   9018   9034   9091M  9106M  9131M  9136   9155M  9187M  9188M  9189   9227M  9228M
              9229   9249M  9250M  9251   9266M  9290M  9290   9406   9443M  9463M  9463   9487M  9507   9595M  9619M
              9619   9735   9771M  9791M  9791   9815M  9835   9923M  9947M  9947  10063  10097M 10117M 10117  10141M
             10161  10251M 10275M 10275  10391  10448M 10468M 10468  10492M 10512  10603M 10627M 10627  10714  10778M
             10791M 10792M 10793  10795M 10796M 10797  10799M 10800M 10801  10867M 10887  10910M 10930  10971M 10991
             11014M 11034  11054M 11061M 11085M 11145M 11145  11200M 11200  11219M 11242M 11242  11439M 11474M 11494
             11532M 11552  11599M 11599  11669  11708  11709M 11714  11722M 11727  11732M 11742M 11761M 11761  11829
             11868  11869M 11874  11890M 11903M 11903  11922M 11922  12082M 12082  12181M 12235M 12235  12259M 12259
             12342  12357M 12394M 12430M 12430  12454M 12454  12519M 12541M 12561  12580M 12614M 12614  13117M 13117
             13187  13252M 13278M 13308M 13337M 13384M 13434M 13569M 13623M 13650M 13691M 13719M 13751M 13776M 13794M
             13830M 13852M 13870M 13905M 13948M 13970M 13988M 14028M 14056M 14074M 14113M 14151M 14189M 14219M 14247M
             14247  14369M 14392M 14421M 14497M 14535M 14547M 14552  14553M 14554  14631M 14632M 14633  14687M 14688M
             14689  14709M 14710M 14711  14745M 14765M 14804M 14805M 14806  14807  14828M 14837M 14837  14861M 14861
             14914M 14933M 14933  15106M 15140M 15162M 15182M 15202  15236  15259M 15364M 15364  15450M 15477M 15502M
             15502  15516  15622M 15623M 15624  15643M 15644M 15645  15653M 15654M 15655  15695M 15749M 15749  15980M
             16005M 16005  16019  16150M 16172M 16202M 16230M 16248M 16270M 16325M 16351M 16351  16408M 16408  16425
             16437M 16437  16514M 16515M 16516  16535M 16536M 16537  16545M 16546M 16547  16557M 16697M 16697  16920M
             16925M 16944M 16944  16997M 17016M 17016  17069M 17088M 17088  17149M 17149  17386M 17386  17486  17487
             17489  17490  17492M 17511M 17547M 17582M 17620M 17620  17725M 17725  17811M 17811  17872  17873  17891
             17893M 17898  17899M 17907M 17926M 17962M 18022M 18047M 18047  18079  18081M 18086M 18118M 18118  18226M
             18226  18302M 18302  18363  18374M 18374  18388  18425M 18514M 18515M 18517M 18553M 18602M 18603M 18604
             18624M 18625M 18626  18693M 18723M 18750  18757M 18763M 18807M 18808M 18809  18812M 18813M 18814  18816M
             18817M 18818  18819M 18820M 18821  18836M 18837M 18838  18842M 18843M 18844  18856  18918M 18919M 18920
             18922M 18923M 18924  18941M 18941  18966M 18966  19156  19287M 19311M 19320M 19320  19327  19349  19369M
             19393M 19394M 19395  19414M 19414  19479M 19497  19509M 19514N 19521M 19523  19564M 19565M 19566  19726M
             19726  19782M 19806M 19806  19836M 19836  19968M 19968  20036M 20044  20045M 20080M 20233M 20260M 20262
             20282M 20320M 20321M 20322  20334M 20335M 20336  20356M 20357M 20358  20367M 20367  20374M 20542M 20569M
             20571  20626M 20636  20655M 20655  20678M 20687M 20687  20694  20724M 20737M 20775M 20776M 20777  20789M
             20790M 20791  20811M 20812M 20813  20822M 20822  20829M 20844M 20844  20874M 20874  20947M 20964M 20986M
             21010M 21010  21168M 21206M 21214M 21248M 21266  21270  21273M 21274M 21275  21277M 21278M 21279  21302M
             21322  21354M 21374  21431M 21451  21484M 21504  21571M 21572M 21573  21592M 21593M 21594  21615M 21615
             21640M 21640  21797  21817M 21822  21823M 21824  21828M 21829M 21845M 21845  21850  21854M 21863M 21863
             21870  21892M 21930M 21974M 21975M 21992  22004M 22009  22052M 22053M 22070  22082M 22087  22156M 22157M
             22157  22169M 22172  22184M 22191  22203M 22208  22232M 22232  22265M 22265  22448  22484M 22485M 22487M
             22560M 22561M 22602M 22602  22634M 22651M 22651  22660  22662M 22666M 22675M 22675  22682  22767M 22790M
             22794M 22803M 22803  22810  22858M 22906M 22907M 22920M 22925M 22928  22940M 22947  22959M 22964  23007M
             23008M 23021M 23026M 23029  23041M 23048  23060M 23065  23098M 23099M 23099  23111M 23124M 23129M 23132
             23144M 23151  23163M 23172  23192M 23192  23226M 23226  23315M 23351M 23351  23497  23511  23546  23558M
             23559M 23770  24011  24043  24144M 24170M 24170  24300  24310  24335  24538  24567  24596  24652  24681
             24761  24790  24843  24872  24901  24943M 24943  24952  24969M 24969  24993M 24993  25149  25201M 25207
             25221M 25249M 25266  25291  25320M 25320  25339M 25359  25370M 25390  25402M 25402  25432M 25432  25496M
             25511M 25511  25525  25544M 25564  25575M 25595  25607M 25607  25631M 25631  25740M 25762M 25762  25778M
             25804M 25804  25868M 25869M 25892M 25892  25908M 25934M 25934  26012M 26028M 26034  26060M 26081M 26081
             26097M 26119M 26141  26143M 26167M 26195M 26195  26259M 26281M 26281  26297M 26323M 26323  26430M 26430
             26577M 26577  26700M 26700  26823M 26823  26946M 26946  27069M 27069  27173M 27179M 27206M 27235M 27241M
             27257  27288M 27294M 27302  27304M 27328M 27358M 27358  27467M 27472M 27494M 27523M 27528M 27534  27541M
             27564M 27595M 27595  27617M 27617  27695M 27724M 27729M 27735  27771M 27810M 27815M 27824M 27847M 27878M
1         (ACT2025) (12:40) (15MAR04) General Purpose Register Cross Reference                                              Page  313
             27878  27900M 27900  28009M 28014M 28036M 28065M 28070M 28076  28083M 28107M 28138M 28138  28160M 28160
             28269M 28274M 28296M 28325M 28330M 28336  28343M 28367M 28398M 28398  28420M 28420  28542M 28548  28601M
             28631M 28631  28688M 28689M 28689  28746M 28775M 28793M 28873M 28900M 28900  29003M 29003  29021M 29022
             29025M 29026  29045  29070M 29071M 29072  29079M 29094M 29094  29116M 29117M 29117  29141M 29141  29241M
             29243M 29249M 29271M 29271  29331  29339M 29360M 29360  29421  29423M 29424M 29426M 29460M 29505M 29534M
             29582M 29583M 29583  29596M 29610  29619M 29620M 29621  29669M 29688M 29688  29791M 29809M 29854M 29872M
             29880M 29881M 29881  29894M 29904  29916M 29934M 29955M 29988M 30034M 30034  30453M 30453  30567M 30567
             30591M 30591  30894M 30913M 30913  31020M 31029M 31029  31035M 31044M 31044  31050M 31051M 31053M 31054
             31066M 31066  31067  31073M 31092M 31092  31149M 31168M 31168  31401M 31401  31462M 31492M 31492  31578M
             31587M 31587  31593M 31602M 31602  31608M 31609M 31611M 31612  31624M 31624  31625  31630M 31729M 31729
             31733M 31733  31756M 31756  31812M 31831M 31831  31903M 31903  31966M 31966  31970M 31970  31989M 31989
             32042M 32051M 32051  32057M 32066M 32066  32072M 32073M 32075M 32076  32088M 32088  32089  32094M 32113M
             32113  32250M 32250  32300M 32300  32319M 32319  32413M 32413  32490M 32490  32522M 32522  32642M 32642
             32659M 32659  32685M 32710M 32710  32869M 32869  32914M 32933M 32933  32997M 32997  33064M 33064  33137M
             33137  33163M 33182M 33182  33246M 33246  34013M 34013  34068M 34095M 34095  34141M 34150M 34150  34156M
             34165M 34165  34171M 34172M 34174M 34175  34187M 34187  34188  34193M 34212M 34212  34321M 34321  34325M
             34325  34344M 34344  34444M 34444  34448M 34448  34467M 34467  34533M 34533  34537M 34537  34556M 34556
             34622M 34622  34626M 34626  34645M 34645  34711M 34711  34715M 34715  34734M 34734  34806M 34806  34810M
             34810  34829M 34829  34895M 34895  34899M 34899  34918M 34918  34990M 34990  34994M 34994  35013M 35013
             35079M 35079  35083M 35083  35102M 35102  35174M 35174  35178M 35178  35197M 35197  35462M 35487M 35505M
             35507  35558M 35563  35593M 35629M 35662M 35692M 35748M 35748  35752M 35752  35771M 35771  35914M 35914
             35918M 35918  35937M 35937  36119M 36119  36123M 36123  36142M 36142  36223M 36232M 36232  36238M 36247M
             36247  36253M 36254M 36256M 36257  36269M 36269  36270  36275M 36373M 36373  36397M 36397  36401M 36401
             36420M 36420  36557M 36557  36561M 36561  36580M 36580  36662M 36662  36666M 36666  36685M 36685  36972M
             37289M 37293M 37297M 37304M 37304  37406  37493M 37493  37511M 37540  37553M 37559M 37577M 37579  37616M
             37621  37642M 37678M 37699M 37747M 37748  37750  37759M 37777M 37794M 37795M 37801  37872  37875  37876
             37897  37899  38000M 38203M 38299  38521M 38521  38537M 38567M 38567  38622M 38623M 38623  38668M 38668
             38760M 38797M 38815M 38850M 38850  39009  39011M 39129M 39129  39253M 39345M 39387  39388  39579  39633
             39645  39671  39724  39738  39745M 39748M 39750  39765M 39770N 39900M 39942M 39942  40037M 40065M 40065
             40072M 40088  40104  40313M 40313  40392M 40392  40469M 40469  40546M 40546  40623M 40623  40719  40721
             40753M 40753  41122M 41250M 41250  41288M 41288  41372  41380M 41460M 41543M 41559M 41561  41651M 41651
             41668M 41668  41695M 41695  41712M 41712  42025M 42032M 42106M 42107M 42108  42121M 42122M 42484M 42506M
             42582M 42616M 42626M 42626  42665M 42665  42808D 42810M 42810  42811M 42812U 42813M 42813N 42838M 42839
             42904M 42912M 42912  42940M 42940  43056M 43065M 43067  43240  43513M 43513  43522  43871M 43871  43876M
             43904M 43904  44044M 44045M 44045  44053D 44055M 44055  44056M 44057U 44058M 44058N 44090M 44091M 44092
             44112M 44113M 44113  44146M 44146  44261M 44284M 44313M 44336M 44336  44406M 44442M 44463M 44481M 44535M
             44564M 44621M 44626M 44628M 44629N 44654M 44709M 44738M 44779M 44801M 44819M 44856M 44856  45033M 45081M
             45134M 45134  45152M 45162M 45186M 45186  45378M 45379  45389M 45413M 45413  45578  45718M 45720M 45721N
             45722M 45763  45814  45860  46036M 46037  46041D 46043M 46043  46044M 46045U 46046M 46046N 46163M 46165
             46198M 46225  46231  46237M 46238M 46287M 46480  46630M 46674M 46763M 46763  46772  47011M 47033M 47157M
             47158M 47160M 47326M 47326  47344M 47345M 47345  47363M 47393M 47393  47541M 47542M 47542  47550D 47552M
             47552  47553M 47554U 47555M 47555N 47587M 47588M 47589  47609M 47610M 47610  47643M 47643  47696  47707M
             47734  47741  47789M 47789  47910  48082M 48082

1ACT      (ACT2025) (12:40) (15MAR04) Diagnostic Cross Reference and Assembler Summary                                      Page  314
-                                                                                            HLASM R4.0  2004/03/15 12.40
0     No Statements Flagged in this Assembly
 HIGH LEVEL ASSEMBLER, 5696-234, RELEASE 4.0, PTF P72483
0SYSTEM: OS/390 02.10.00            JOBNAME: WYL#ACT     STEPNAME: ASM        PROCSTEP: (NOPROC)
0Datasets Allocated for this Assembly
  Con DDname   Dataset Name                                 Volume  Member
   P1 SYSIN    WYL.GS.WYL.WYLBUR.SOURCE                     SYSB05  ACT
   L1 SYSLIB   WYL.GS.WYL.WYLBUR.MACLIB                     SYSB05
   L2          WYL.GG.SYS.MACLIB                            SYSB05
   L3          SYS3.IS.MACLIB                               SYSB05
   L4          SYS3.MACLIB                                  SYSB02
   L5          SYS1.MACLIB                                  MVSBR9
   L6          SYS1.MODGEN                                  MVSBR9
      SYSPRINT SYS04075.T124010.RA000.WYL#ACT.PRINT.H01     SCR101
      SYSTERM  GG$SLP.WYL#ACT.JOB03505.D0000101.?

    3668K allocated to Buffer Pool,         5709K would be required for this to be an In-Storage Assembly
    7150 Primary Input Records Read         7655 Library Records Read                451 Work File Reads
       0 ASMAOPT Records Read              27790 Primary Print Records Written       514 Work File Writes
       0 Punch Records Written                 0 ADATA Records Written
0Assembly Start Time: 12.40.11 Stop Time: 12.40.35 Processor Time: 00.00.09.2606
 Return Code 000
