1                        J E S 2  J O B  L O G  --  S Y S T E M  S Y S B  --  N O D E  R L G
0
 12.50.53 JOB03552 ---- MONDAY,    15 MAR 2004 ----
 12.50.53 JOB03552  ICH70001I GG$SLP   LAST ACCESS AT 12:50:45 ON MONDAY, MARCH 15, 2004
 12.50.53 JOB03552  $HASP373 WYL#OSCN STARTED - INIT 6    - CLASS B - SYS SYSB
 12.50.53 JOB03552  ***  HCMD      STEP $$QUIET
 12.50.53 JOB03552  PUR * Q OUT MUL
 12.50.53 JOB03552  JOB 5413 WYL#OSCN WILL BE PURGED
 12.50.54 JOB03552  WYL#OSCN.$$QUIET .         RC=Zero TapeIO=0000 DiskIO=0000 CPU=  .01s Elapsed=53.16s
 12.50.56 JOB03552  WYL#OSCN.ASM     .         RC=Zero TapeIO=0000 DiskIO=0403 CPU= 1.39s Elapsed=54.19s
 12.50.57 JOB03552  WYL#OSCN.EDIT    .         RC=Zero TapeIO=0000 DiskIO=0054 CPU=  .20s Elapsed=56.84s
 12.50.57 JOB03552  WYL#OSCN Ended.  Name=Assemble OSCN                  Total CPU= 1.60s Elapsed=53.16s
 12.50.57 JOB03552
 12.50.57 JOB03552  Execution charges   Priority=Standard   Block=Day
 12.50.57 JOB03552
 12.50.57 JOB03552  CPU Usage          29.06          $18.01   Standard Processing Unit Equivalent
 12.50.57 JOB03552                                   =======
 12.50.57 JOB03552                                    $18.01   Total Job execution charge
 12.50.57 JOB03552
 12.50.57 JOB03552  See back separator page for print charges
 12.50.57 JOB03552
 12.50.57 JOB03552  $HASP395 WYL#OSCN ENDED  ASM=0, EDIT=0
1        1 //WYL#OSCN JOB SLP$GG,'Assemble OSCN',TIME=4,REGION=4M                  JOB03552
           //*
           /*JOBPARM LINES=99,COPIES=1
           /*JOBPARM FORMS=3HOL,PFORMAT=LAND,CHARS=BD13,DUPLEX=YES,FLASH=BAR4
           //*
           /*JOBPARM NOTIFY=GG.SLP,HOLD=OUTPUT                                     WYLGEN
         2 //$$QUIET EXEC PGM=HCMDX,PARM='PUR * Q OUT MUL'
           //*
         3 //ASM    EXEC PGM=ASMA90,REGION=8M,
           //            PARM=('NORENT,TERM,FLAG(NOCONT),US(MAP,WARN(10)),NODECK',
           //            'LC(32767),XREF(SHORT),ESD,DXREF,NOOBJECT')
         4 //STEPLIB DD DSN=SYS3.IS.TESTASM,DISP=SHR
         5 //SYSLIB   DD  DSN=WYL.GS.WYL.WYLBUR.MACLIB,DISP=SHR
         6 //         DD  DSN=WYL.GG.SYS.MACLIB,DISP=SHR
         7 //         DD  DSN=SYS3.IS.MACLIB,DISP=SHR
         8 //         DD  DSN=SYS3.MACLIB,DISP=SHR
         9 //         DD  DSN=SYS1.MACLIB,DISP=SHR
        10 //         DD  DSN=SYS1.MODGEN,DISP=SHR
        11 //SYSUT1   DD DSN=&&SYSUT1,UNIT=VIO,DISP=(,DELETE),
           //            SPACE=(4088,(500,250),,CONTIG,ROUND)
        12 //SYSTERM  DD SYSOUT=T
        13 //SYSPRINT DD DSN=&&PRINT,UNIT=SYSDA,DISP=(,PASS),
           //            SPACE=(6650,(250,250),RLSE),
           //            DCB=(BLKSIZE=6650,LRECL=133,RECFM=FB)
        14 //SYSUDUMP DD SYSOUT=A
        15 //SYSIN    DD  DSN=WYL.GS.WYL.WYLBUR.SOURCE(OSCN),DISP=SHR
           //*
        16 //EDIT    EXEC PGM=ASMEDIT,TIME=2,REGION=4000K,
           //             PARM='STMT'
        17 //STEPLIB  DD  DSN=WYL.GG.SYS.LINKLIB,DISP=SHR
        18 //ASMOUT   DD  DSN=&PRINT,DISP=(OLD,DELETE)
        19 //SYSPRINT DD  SYSOUT=A
1 STMT NO. MESSAGE
 -
        11 IGD01010I STORCLAS= TEMP STORGROUP =
        11 IGD01010I STORGRP=VIO ASSIGNED.
        13 IGD01010I STORCLAS= TEMP STORGROUP =
        13 IGD01010I STORGRP=VIO ASSIGNED.
 ICH70001I GG$SLP   LAST ACCESS AT 12:50:45 ON MONDAY, MARCH 15, 2004
 IEF142I WYL#OSCN $$QUIET - STEP WAS EXECUTED - COND CODE 0000
 *********************************************************************************
 *   WYL#OSCN/$$QUIET /                    Return Code      Zero                 *
 *   Region used      260K (16K user + 244K system)                              *
 *   Extended region  9692K (4K user + 9688K system)                             *
 *                                                                               *
 *   Paging              In      Out                                             *
 *   Private <-> Aux      0        0       CPU time (TCB)   00:00:00.01          *
 *   Private <-> Exp      0        0       CPU time (SRB)   00:00:00.00          *
 *   VIO                  0        0       Elapsed time    917:36:59.80          *
 *   Common               0      ---                                             *
 *                                                                               *
 *                                                                               *
 *   CPU Usage          0.18         $0.11  Standard Processing Unit Equivalent  *
 *                                   $0.11  Total Step execution charge          *
 *                                                                               *
 *    I/O count  DDname   Type Addr           I/O count  DDname   Type Addr      *
 *                         *** No I/O for this step ***                          *
 *********************************************************************************
 IEF373I STEP/$$QUIET /START 2004075.1250
 IEF374I STEP/$$QUIET /STOP  2004075.1250 CPU    0MIN 00.01SEC SRB    0MIN 00.00SEC VIRT    16K SYS   244K EXT       4K SYS    9688K
 IEF236I ALLOC. FOR WYL#OSCN ASM
 IEF237I 04DC ALLOCATED TO STEPLIB
 IEF237I 04DC ALLOCATED TO SYSLIB
 IEF237I 04DC ALLOCATED TO
 IEF237I 04DC ALLOCATED TO
 IEF237I 0402 ALLOCATED TO
 IEF237I 04A0 ALLOCATED TO
 IEF237I 04A0 ALLOCATED TO
 IGD101I SMS ALLOCATED TO DDNAME (SYSUT1  )
         DSN (SYS04075.T125053.RA000.WYL#OSCN.SYSUT1.H01  )
         STORCLAS (TEMP) MGMTCLAS (        ) DATACLAS (        )
         VOL SER NOS= VIO
 IEF237I JES2 ALLOCATED TO SYSTERM
 IGD101I SMS ALLOCATED TO DDNAME (SYSPRINT)
         DSN (SYS04075.T125053.RA000.WYL#OSCN.PRINT.H01   )
         STORCLAS (TEMP) MGMTCLAS (        ) DATACLAS (        )
         VOL SER NOS= SCR100
 IEF237I JES2 ALLOCATED TO SYSUDUMP
 IEF237I 04DC ALLOCATED TO SYSIN
 IEF142I WYL#OSCN ASM - STEP WAS EXECUTED - COND CODE 0000
 IEF285I   SYS3.IS.TESTASM                              KEPT
 IEF285I   VOL SER NOS= SYSB05.
 IEF285I   WYL.GS.WYL.WYLBUR.MACLIB                     KEPT
 IEF285I   VOL SER NOS= SYSB05.
 IEF285I   WYL.GG.SYS.MACLIB                            KEPT
 IEF285I   VOL SER NOS= SYSB05.
 IEF285I   SYS3.IS.MACLIB                               KEPT
 IEF285I   VOL SER NOS= SYSB05.
 IEF285I   SYS3.MACLIB                                  KEPT
 IEF285I   VOL SER NOS= SYSB02.
 IEF285I   SYS1.MACLIB                                  KEPT
 IEF285I   VOL SER NOS= MVSBR9.
 IEF285I   SYS1.MODGEN                                  KEPT
 IEF285I   VOL SER NOS= MVSBR9.
 IGD105I SYS04075.T125053.RA000.WYL#OSCN.SYSUT1.H01   DELETED,   DDNAME=SYSUT1
 IEF285I   GG$SLP.WYL#OSCN.JOB03552.D0000101.?          SYSOUT
 IGD106I SYS04075.T125053.RA000.WYL#OSCN.PRINT.H01    PASSED,    DDNAME=SYSPRINT
 IEF285I   GG$SLP.WYL#OSCN.JOB03552.D0000102.?          SYSOUT
 IEF285I   WYL.GS.WYL.WYLBUR.SOURCE                     KEPT
 IEF285I   VOL SER NOS= SYSB05.
 *********************************************************************************
 *   WYL#OSCN/ASM     /                    Return Code      Zero                 *
 *   Region used      4376K (4096K user + 280K system)                           *
 *   Extended region  10292K (412K user + 9880K system)                          *
 *                                                                               *
 *   Paging              In      Out                                             *
 *   Private <-> Aux      0        0       CPU time (TCB)   00:00:01.35          *
 *   Private <-> Exp      0        0       CPU time (SRB)   00:00:00.04          *
 *   VIO                  0        0       Elapsed time    917:36:58.77          *
 *   Common               0      ---                                             *
 *                                                                               *
 *                                                                               *
 *   CPU Usage         25.31        $15.69  Standard Processing Unit Equivalent  *
 *                                  $15.69  Total Step execution charge          *
 *                                                                               *
 *    I/O count  DDname   Type Addr           I/O count  DDname   Type Addr      *
 *           83  STEPLIB  Disk 04DC                 265  SYSLIB   Disk 04DC      *
 *            0  SYSLIB   Disk 04DC                   0  SYSLIB   Disk 04DC      *
 *            0  SYSLIB   Disk 0402                   0  SYSLIB   Disk 04A0      *
 *            0  SYSLIB   Disk 04A0                   0  SYSUT1   VIO  ----      *
 *            0  SYSTERM       ----                  51  SYSPRINT Disk 038B      *
 *            0  SYSUDUMP      ----                   4  SYSIN    Disk 04DC      *
 *********************************************************************************
 IEF373I STEP/ASM     /START 2004075.1250
 IEF374I STEP/ASM     /STOP  2004075.1250 CPU    0MIN 01.35SEC SRB    0MIN 00.04SEC VIRT  4096K SYS   280K EXT     412K SYS    9880K
 IEF236I ALLOC. FOR WYL#OSCN EDIT
 IEF237I 0402 ALLOCATED TO STEPLIB
 IGD103I SMS ALLOCATED TO DDNAME ASMOUT
 IEF237I JES2 ALLOCATED TO SYSPRINT
 IEF142I WYL#OSCN EDIT - STEP WAS EXECUTED - COND CODE 0000
 IEF285I   WYL.GG.SYS.LINKLIB                           KEPT
 IEF285I   VOL SER NOS= SYSB02.
 IGD105I SYS04075.T125053.RA000.WYL#OSCN.PRINT.H01    DELETED,   DDNAME=ASMOUT
 IEF285I   GG$SLP.WYL#OSCN.JOB03552.D0000103.?          SYSOUT
 *********************************************************************************
 *   WYL#OSCN/EDIT    /                    Return Code      Zero                 *
 *   Region used      380K (116K user + 264K system)                             *
 *   Extended region  9812K (4K user + 9808K system)                             *
 *                                                                               *
 *   Paging              In      Out                                             *
 *   Private <-> Aux      0        0       CPU time (TCB)   00:00:00.19          *
 *   Private <-> Exp      0        0       CPU time (SRB)   00:00:00.01          *
 *   VIO                  0        0       Elapsed time    917:36:56.12          *
 *   Common               0      ---                                             *
 *                                                                               *
 *                                                                               *
 *   CPU Usage          3.56         $2.20  Standard Processing Unit Equivalent  *
 *                                   $2.20  Total Step execution charge          *
 *                                                                               *
 *    I/O count  DDname   Type Addr           I/O count  DDname   Type Addr      *
 *            2  STEPLIB  Disk 0402                  52  ASMOUT   Disk 038B      *
 *            0  SYSPRINT      ----                                              *
 *********************************************************************************
 IEF373I STEP/EDIT    /START 2004075.1250
 IEF374I STEP/EDIT    /STOP  2004075.1250 CPU    0MIN 00.19SEC SRB    0MIN 00.01SEC VIRT   116K SYS   264K EXT       4K SYS    9808K
 *********************************************************************************
 *                                                                               *
 *                      S t a n f o r d   U n i v e r s i t y                    *
 *                                                                               *
 *                              *** Job Summary ***                              *
 *                                                                               *
 *   System Id      SYSB                   Input time     12:39:23  Mar 15, 2004 *
 *                                                                               *
 *   System Release SP6.1.0                Start time     12:50:53  Mar 15, 2004 *
 *                                                                               *
 *   Job name       WYL#OSCN               Stop  time     00:00:00  Mar 15, 2004 *
 *                                                                               *
 *   Account        SLP$GG                 Elapsed time  917:36:59.80            *
 *                                                                               *
 *   User Name      Assemble OSCN          CPU time       00:00:01.55            *
 *                                                                               *
 *   Job class      B                      SRB Time       00:00:00.05            *
 *                                                                               *
 *********************************************************************************
 IEF375I  JOB/WYL#OSCN/START 2004075.1250
 IEF376I  JOB/WYL#OSCN/STOP  2004075.1250 CPU    0MIN 01.55SEC SRB    0MIN 00.05SEC
1Assembler Done OSCN No Statements Flagged
1         High Level Assembler Option Summary                   (PTF P72483 )                                               Page    1
-                                                                                            HLASM R4.0  2004/03/15 12.50
0  No Overriding ASMAOPT Parameters
   Overriding Parameters-  NORENT,TERM,FLAG(NOCONT),US(MAP,WARN(10)),NODECK,LC(32767),XREF(SHORT),ESD,DXREF,NOOBJECT
   No Process Statements


   Options for this Assembly
0  NOADATA
     ALIGN
   NOASA
     BATCH
     CODEPAGE(047C)
   NOCOMPAT
   NODBCS
 3 NODECK
 3   DXREF
 3   ESD
   NOEXIT
 3   FLAG(0,ALIGN,NOCONT,NOIMPLEN,NOPAGE0,PUSH,RECORD,NOSUBSTR,USING0)
   NOFOLD
   NOGOFF
   NOINFO
     LANGUAGE(EN)
   NOLIBMAC
 3   LINECOUNT(32767)
     LIST(121)
     MXREF(SOURCE)
 3 NOOBJECT
     OPTABLE(UNI,NOLIST)
   NOPCONTROL
   NOPESTOP
   NOPROFILE
   NORA2
 3 NORENT
     RLD
     RXREF
     SIZE(MAX)
     SYSPARM()
 3   TERM(WIDE)
   NOTEST
     THREAD
   NOTRANSLATE
 3   USING(NOLIMIT,MAP,WARN(10))
 3   XREF(SHORT)

   No Overriding DD Names

1OSCN     External Symbol Dictionary                                                                                        Page    2
-Symbol   Type   Id     Address  Length     LD ID  Flags Alias-of                            HLASM R4.0  2004/03/15 12.50
0WYLOSCN   SD 00000001 00000000 00000AB8             00
 OSCN7024  LD          00000000           00000001
 SCINIT    LD          00000018           00000001
 SCSET     LD          0000002C           00000001
 SCTELL    LD          00000036           00000001
 SCINFO    LD          00000040           00000001
 SCDONE    LD          00000050           00000001
 SCAN      LD          0000005E           00000001
 SCNCON    LD          0000045C           00000001
 SCNRES    LD          0000048A           00000001
 SEG       ER 00000002
 SEGB      ER 00000003
 SCANTOK   LD          000008A4           00000001
 SCANWTOK  LD          00000974           00000001
 BLNKTOK   LD          00000A64           00000001

1OSCN     WYLBUR's Scanner                                                                                                  Page    3
0Loc    Object Code    Addr1 Addr2  Stmt Lv Lineno    Source Statement                    (Asmedit 3.3)  HLASM R4.0  2004/03/15 12.50
+___    ______ ____    _____ _____  ____ __ ______    ______ _________
0                                      2              *******************************************************************
                                       3              *                                                                 *
                                       4              *     WYLBUR/370 - Release VI - Class I - Stanford Proprietary    *
                                       5              *                                                                 *
                                       6              *******************************************************************
                                       7                       HIBAL
                                     988
                                     989                       SYSDEFN
                                     990
 000000                00000 00AB8   991              WYLOSCN  CSECT
                                     995                       REGS  FSR,,,,,,,BR,(WAR,LSR),PAR,PBR,CPR,CVR,SPR,RAR
                                    1131
                                    1132              OSCN     IDENT 7024                08:41:37 01/24/97  (MPD)
                                    1135             +
                                    1136    01-IDENT +         ENTRY OSCN7024
                                    1137             +
 000000 16D6E2C3D5F7F0F2            1138    01-IDENT +OSCN7024 DC    AL1(22),C'OSCN7024,15MAR04,12:50'
                                    1139             +*
-USING  SA,R8                       1142                       USING SA,WAR              ##
 USING  CV,R12                      1151                       USING CV
1OSCN     (OSCN7024) (12:50) (15MAR04) Local DSECTS and Work Areas                                                          Page    4
0Current Usings:  (SA,R8) (CV,R12)
0Loc    Object Code    Addr1 Addr2  Stmt Lv Lineno    Source Statement           (Hibal 5, Asmedit 3.3)  HLASM R4.0  2004/03/15 12.50
+___    ______ ____    _____ _____  ____ __ ______    ______ _________
0                                   1161              * save area
                                    1162              *
 000000                00000 0003F  1163              SA       RECORD BEGIN
 000000                             1171  1                      DS    F
 000004                             1172  1                      DS    (12-2+1)F
 000030                             1173  1           WORD       DS    2F
 000038                             1174  1           SV15       DS    F
 00003C                             1175  1           PCNT       DS    H
 00003E                             1176  1           FL         DS    X
                                    1177  1           FSQS       EQU   X'80'               Single quoted string
                                    1178  1           FDQS       EQU   X'40'               Double quoted string
                                    1179  1           FPS        EQU   X'20'               Parened string
 00003F                0003F 0003F  1180                       END
1OSCN     (OSCN7024) (12:50) (15MAR04) Local DSECTS and Work Areas                                                          Page    5
0Current Usings:  (SA,R8) (CV,R12)
0Loc    Object Code    Addr1 Addr2  Stmt Lv Lineno    Source Statement           (Hibal 5, Asmedit 3.3)  HLASM R4.0  2004/03/15 12.50
+___    ______ ____    _____ _____  ____ __ ______    ______ _________
0                                   1190              FTBLE    EQU   X'F8'               New table pointer
                                    1191              FLAST    EQU   X'FF'               End
                                    1192              FPARM    EQU   X'80'               Parm
                                    1193              FLINNO   EQU   X'60'               Line no. conv
                                    1194              FINTEG   EQU   X'40'               Integer 0 or gtr
                                    1195              FINTEGP  EQU   X'20'               Integer gtr 0
                                    1196              FCMSET   EQU   X'10'               Set 3 command chars
                                    1197              FLIMIT   EQU   X'10'               Limit
                                    1198              FABBREV  EQU   X'08'               Abbreviation
                                    1199                       PUSH  DSECTS
 USING  CP,R11                      1210             =         USING (CP),(CV)
 000017                00000 00AB8  1222             =         POP   PRINT
-                                   6356              *  work area
                                    6357              *
 001000                00000 01000  6358              $$$RCP   DSECT
 001000                01000 00CA8  6359                       ORG   CPOSCAN
 000CA8                             6360              LOC      DS    F
 000CAC                             6361              LEN      DS    H
 000CAE                             6362              KW       DS    CL8
 000CB6                             6363              PRTSTACK DS    H                   Relative pointer to prt stack
 000CB8                             6364              RA       DS    F
 000CBC                             6365              PRT      DS    F
1OSCN     (OSCN7024) (12:50) (15MAR04) WYLBUR's Scanner                                                                     Page    6
0Current Usings:  (SA,R8) (CP,R11) (CV,R12)
0D-Loc  Object Code    Addr1 Addr2  Stmt Lv Lineno    Source Statement           (Hibal 5, Asmedit 3.3)  HLASM R4.0  2004/03/15 12.50
+_____  ______ ____    _____ _____  ____ __ ______    ______ _________
0000017                00000 00AB8  6367              WYLOSCN  CSECT
                                    6369              * initialize
                                    6370              *
                                    6371                       ENTRY SCINIT
 000018 D77B BCA8 BCA8 00CA8 00CA8  6372              SCINIT   CLEAR CPOSCAN             Reset scan control block
 00001E 4110 1000            00000  6380                       LA    R1,@R1
 000022 5010 BCA8            00CA8  6381                       ST    R1,LOC              Save location
 000026 4000 BCAC            00CAC  6382                       STH   R0,LEN              Save length
 00002A 07FE                        6383                       BR    RAR
                                    6384                       ¿þþþþþþþþþþþþþþþþþþþþþþþþþþþþþþþþþþþþþþþþþþþþþþþþþþþþþþþþþþþþþþþÜ
                                    6385                       Ÿ  scset added by ch, same as SCINIT except only location, and  Ÿ
                                    6386                       Ÿ  length are set.  Note that the return address in NOT reset.  Ÿ
                                    6387                       ¾þþþþþþþþþþþþþþþþþþþþþþþþþþþþþþþþþþþþþþþþþþþþþþþþþþþþþþþþþþþþþþþ»
                                    6388                       ENTRY SCSET
 00002C                             6389              SCSET    LABEL ,
 00002C 5010 BCA8            00CA8  6391                       ST    R1,LOC
 000030 4000 BCAC            00CAC  6392                       STH   R0,LEN
 000034 07FE                        6393                       BR    RAR
1OSCN     (OSCN7024) (12:50) (15MAR04) WYLBUR's Scanner                                                                     Page    7
0Current Usings:  (SA,R8) (CP,R11) (CV,R12)
0Loc    Object Code    Addr1 Addr2  Stmt Lv Lineno    Source Statement           (Hibal 5, Asmedit 3.3)  HLASM R4.0  2004/03/15 12.50
+___    ______ ____    _____ _____  ____ __ ______    ______ _________
0                                   6395              *  tell location and length
                                    6396              *
                                    6397                       ENTRY SCTELL
 000036                             6398              SCTELL   LABEL ,
 000036 4800 BCAC            00CAC  6400                       LH    R0,LEN              Length
 00003A 5810 BCA8            00CA8  6401                       L     R1,LOC              Location
 00003E 07FE                        6402                       BR    RAR
                                    6403                      ¿þþþþþþþþþþþþþþþþþþþþþþþþþþþþþþþþþþþþþþþþþþþþþþþþþþþþþþþþþþþþþþþþÜ
                                    6404                      Ÿ  scinfo added by ch, same as SCTELL except R0 never negative.  Ÿ
                                    6405                      Ÿ                                                                Ÿ
                                    6406                      Ÿ   notes: only known place that needs negative return is in     Ÿ
                                    6407                      Ÿ    LINE near label IMPLIED.  For now we add SCINFO, simple     Ÿ
                                    6408                      Ÿ    but a bit yucky (having 2 flavors of SCTELL).               Ÿ
                                    6409                      ¾þþþþþþþþþþþþþþþþþþþþþþþþþþþþþþþþþþþþþþþþþþþþþþþþþþþþþþþþþþþþþþþþ»
                                    6410                       ENTRY SCINFO
 000040                             6411              SCINFO   LABEL ,
 000040 4800 BCAC            00CAC  6413                       LH    R0,LEN              Length
 000044 5810 BCA8            00CA8  6414                       L     R1,LOC              Location
 000048 1200                        6415                       LTR   R0,R0
 00004A 07BE                        6416                       BNMR  RAR                 If R0 negative, clear R0
 00004C 1B00                        6417                       SR    R0,R0
 00004E 07FE                        6418                       BR    RAR
1OSCN     (OSCN7024) (12:50) (15MAR04) WYLBUR's Scanner                                                                     Page    8
0Current Usings:  (SA,R8) (CP,R11) (CV,R12)
0Loc    Object Code    Addr1 Addr2  Stmt Lv Lineno    Source Statement           (Hibal 5, Asmedit 3.3)  HLASM R4.0  2004/03/15 12.50
+___    ______ ____    _____ _____  ____ __ ______    ______ _________
0                                   6420              *  return to point after scan call
                                    6421              *
                                    6422                       ENTRY SCDONE
 000050 D701 BCAC BCAC 00CAC 00CAC  6423              SCDONE   CLEAR LEN                 Set nothing left to scan
 000056 58E0 BCB8            00CB8  6431                       L     RAR,RA
 00005A 12FF                        6432                       LTR   R15,R15             SET CC, (SCDONE MACRO SETS CC=NZ)
 00005C 07FE                        6433                       BR    RAR
1OSCN     (OSCN7024) (12:50) (15MAR04) WYLBUR's Scanner                                                                     Page    9
0Current Usings:  (SA,R8) (CP,R11) (CV,R12)
0Loc    Object Code    Addr1 Addr2  Stmt Lv Lineno    Source Statement           (Hibal 5, Asmedit 3.3)  HLASM R4.0  2004/03/15 12.50
+___    ______ ____    _____ _____  ____ __ ______    ______ _________
0                                   6435              ¿þþþþþþþþþþþþþþþþþþþþþþþþþþþþþþþþþþþþþþþþþþþþþþþþþþþþþþþþþþþþþþþþþþþþþÜ
                                    6436              Ÿ                                                                     Ÿ
                                    6437              Ÿ  Some is better than none !                                         Ÿ
                                    6438              Ÿ                                                                     Ÿ
                                    6439              Ÿ                                                                     Ÿ
                                    6440              Ÿ  Some scan documentation for: SCAN [<sckw table>],RETURN=YES        Ÿ
                                    6441              Ÿ                                                                     Ÿ
                                    6442              Ÿ  On entry:                                                          Ÿ
                                    6443              Ÿ        scancb - must be set up                                      Ÿ
                                    6444              Ÿ        <SCKW table> is optional                                     Ÿ
                                    6445              Ÿ                                                                     Ÿ
                                    6446              Ÿ  On exit:                                                           Ÿ
                                    6447              Ÿ        CC=zero, scan terminated with null scan                      Ÿ
                                    6448              Ÿ        CC=pos, r1,r0 are token loc len                              Ÿ
                                    6449              Ÿ           (can this return happen if SCKW table present ??)         Ÿ
                                    6450              Ÿ        CC=neg, invalid scan, or missing parm                        Ÿ
                                    6451              Ÿ           r1,r0 are invalid token, CPSCNKW is blanked.              Ÿ
                                    6452              Ÿ                                                                     Ÿ
                                    6453              Ÿ  NOTES:                                                             Ÿ
                                    6454              Ÿ  CC is not based on any register.  R15 value unknown.               Ÿ
                                    6455              Ÿ                                                                     Ÿ
                                    6456              Ÿ  Generally if no <SCKW table> is specified,  R0,R1 - will           Ÿ
                                    6457              Ÿ  return the token scanned and an appropriate CC return              Ÿ
                                    6458              Ÿ  code.  This case is very straight forward.                         Ÿ
                                    6459              Ÿ                                                                     Ÿ
                                    6460              Ÿ  IF a <SCKW table> is specified.  Then the line will be scanned     Ÿ
                                    6461              Ÿ  and for each keyword found the specified routine will be called    Ÿ
                                    6462              Ÿ  with r15,r0,r1 containing the value of keywords or parms,, the     Ÿ
                                    6463              Ÿ  exact nature of r15,r0,r1 parms in unknown and must be             Ÿ
                                    6464              Ÿ  determined by looking at the code.  If no general match SCKW is    Ÿ
                                    6465              Ÿ  specified and the token does not match any table entry i am        Ÿ
                                    6466              Ÿ  not exactly sure what happens.                                     Ÿ
                                    6467              Ÿ                                                                     Ÿ
                                    6468              Ÿ  RETURN=YES works the same as a SCAN [<SCKW table>] call            Ÿ
                                    6469              Ÿ  except the call will always return.  In the case of an invalid     Ÿ
                                    6470              Ÿ  scan, the return values will be as specified above.                Ÿ
                                    6471              Ÿ                                                                     Ÿ
                                    6472              Ÿ  If you know some detail of how scan works,, you may want to        Ÿ
                                    6473              Ÿ  add your comments here!   Remember:                                Ÿ
                                    6474              Ÿ                                                                     Ÿ
                                    6475              Ÿ                                                                     Ÿ
                                    6476              Ÿ    *** Some is better than none.                                    Ÿ
                                    6477              Ÿ                                                                     Ÿ
                                                      ¾þþþþþþþþþþþþþþþþþþþþþþþþþþþþþþþþþþþþþþþþþþþþþþþþþþþþþþþþþþþþþþþþþþþþþ»
1OSCN     (OSCN7024) (12:50) (15MAR04) WYLBUR's Scanner                                                                     Page   10
0Current Usings:  (SA,R8) (CP,R11) (CV,R12)
0Loc    Object Code    Addr1 Addr2  Stmt Lv Lineno    Source Statement           (Hibal 5, Asmedit 3.3)  HLASM R4.0  2004/03/15 12.50
+___    ______ ____    _____ _____  ____ __ ______    ______ _________
0                                   6479                       ¿þþþþþþþþþþþþþþþþþþþþþþþþþþÜ
                                    6480                       Ÿ  Scan main entry point.  Ÿ
                                    6481                       Ÿ                          Ÿ
                                    6482                       Ÿ                          Ÿ
                                    6483                       ¾þþþþþþþþþþþþþþþþþþþþþþþþþþ»
 00005E 50E0 D000/902C_      00000  6484              SCAN     XENTER R2,R12,0           Save regs
 USING  *,R7
                                    6502                       USING SA,WAR
 000074                             6504              BASE     LABEL
 000074 50E0 BCB8            00CB8  6506                       ST    RAR,RA              Return addr
 000078 5010 BCBC            00CBC  6507                       ST    R1,PRT              Routing table
 00007C D205 BCC0 BCA8 00CC0 00CA8  6508              GOSCAN   MVC   CPSCANBK,CPOSCAN    Save prev ptrs
 000082 4850 BCAC            00CAC  6509                       LH    R5,LEN              Get length
 000086 5860 BCA8            00CA8  6510                       L     R6,LOC              Get location
 00008A 1B44/5040 BCCC              6511                       CLEAR R4,CPLSTSCK
 000090 9200 803E      0003E        6520                       CLEAR FL                  Clear flags
 000094 47F0 702C            000A0  6527                       B     RESCAN
                                    6528
 000098 4160 6001            00001  6529              RESCANB  LA    R6,@R6+1            Step past blanks
 00009C 5060 BCA8            00CA8  6530              RESCANC  ST    R6,LOC              Save new token  start
 0000A0 4115 6000            00000  6531              RESCAN   LA    R1,@R6(R5)          Point R1 to start of trt
 0000A4 5B50 C4D0            004D0  6532                       S     R5,CVONE            Decrease count by one
 0000A8 4740 7066            000DA  6533                       BM    DONETST             Br if none left
 0000AC 1B22                        6534                       CLEAR R2                  Clear trt reg
 0000AE 4450 76DC            00750  6538                       EX    R5,TRT
 0000B2 47F2 7042            000B6  6540                       B     *+4(R2)             Br on delim code
 0000B6 47F0 7076            000EA  6541                       B     EOS                 0  end of string
 0000BA 47F0 708A            000FE  6542                       B     BLKCOM              4  blank-comma
 0000BE 47F0 70EA            0015E  6543                       B     SQUOTE              8  single quote
 0000C2 47F0 7156            001CA  6544                       B     DQUOTE              12 double quote
 0000C6 47F0 718C            00200  6545                       B     LPAR                16 left paren
 0000CA 47F0 71C4            00238  6546                       B     RPAR                20 right paren
 0000CE 47F0 70C8            0013C  6547                       B     SLASH               24 slash
 0000D2 47F0 70A8            0011C  6548                       B     SEMI                28 semicolon
 0000D6 47F0 71EE            00262  6549                       B     ASTERISK            32 asterisk
                                    6550                       ¿þþþþþþþþþþþþþþþþþþþþþþþþþÜ
                                    6551                       Ÿ  process end of string  Ÿ
                                    6552                       ¾þþþþþþþþþþþþþþþþþþþþþþþþþ»
 0000DA 5960 BCA8/4770_      00CA8  6553              DONETST  IF    (R6,EQ,LOC),'LA R5,@R5+1; B DONE'  all done
 0000EA 91E0 803E      0003E        6578              EOS      TM    FL,FSQS+FDQS+FPS    String?
 0000EE 4780 7092            00106  6579                       BZ    PREND               Br if not
 0000F2 1801                        6580              ILLSTR   LR    R0,R1               Compute string ptr
 0000F4 5810 BCA8            00CA8  6581                       L     R1,LOC
 0000F8 1B01                        6582                       SR    R0,R1
 0000FA 47F0 760C            00680  6583                       B     BADSCAN
                                    6584              *
                                    6585              * process blanks
                                    6586              *
 0000FE 91E0 803E      0003E        6587              BLKCOM   TM    FL,FSQS+FDQS+FPS    String being collected?
 000102 4770 71F6            0026A  6588                       BNZ   GOSTRING            Br if so
 000106 1801                        6589              PREND    LR    R0,R1               Calculate
 000108 5B00 BCA8            00CA8  6590                       S     R0,LOC              Length of token
 00010C 4780 7024            00098  6591                       BZ    RESCANB             No token if zero
 000110 1B51                        6592                       SR    R5,R1               Update remaining
1OSCN     (OSCN7024) (12:50) (15MAR04) WYLBUR's Scanner                                                                     Page   11
0Current Usings:  (*,R7) (SA,R8) (CP,R11) (CV,R12)
0Loc    Object Code    Addr1 Addr2  Stmt Lv Lineno    Source Statement           (Hibal 5, Asmedit 3.3)  HLASM R4.0  2004/03/15 12.50
+___    ______ ____    _____ _____  ____ __ ______    ______ _________
0000112 1A56                        6593                       AR    R5,R6               Character count
 000114 4160 1001            00001  6594                       LA    R6,@R1+1            Update remaining pointer
 000118 47F0 7202            00276  6595                       B     TOKEN               Go process token
                                    6596              *
                                    6597              * process semicolon
                                    6598              *
 00011C 91E0 803E/4770_0003E        6599              SEMI     IF    FL.FSQS+FDQS+FPS,GOSTRING  string being collected
 000124 1B51                        6625                       SR    R5,R1               Update remaining
 000126 1A56                        6626                       AR    R5,R6               ... char count
 000128 1355                        6627                       LCR   R5,R5               Flip to indicate done
 00012A 4160 1001            00001  6628                       LA    R6,@R1+1            Update remaining ptr
 00012E 1801                        6629                       LR    R0,R1               Calc
 000130 5B00 BCA8            00CA8  6630                       S     R0,LOC              ... token len
 000134 4780 7024            00098  6631                       BZ    RESCANB             No token
 000138 47F0 7202            00276  6632                       B     TOKEN
1OSCN     (OSCN7024) (12:50) (15MAR04) WYLBUR's Scanner                                                                     Page   12
0Current Usings:  (*,R7) (SA,R8) (CP,R11) (CV,R12)
0Loc    Object Code    Addr1 Addr2  Stmt Lv Lineno    Source Statement           (Hibal 5, Asmedit 3.3)  HLASM R4.0  2004/03/15 12.50
+___    ______ ____    _____ _____  ____ __ ______    ______ _________
0                                   6634              *  process slash
                                    6635              *
 00013C 91E0 803E      0003E        6636              SLASH    TM    FL,FSQS+FDQS+FPS    String being collected?
 000140 4770 71F6            0026A  6637                       BNZ   GOSTRING            Br if so
 000144 9110 BCD0/4710_00CD0        6638                       IF    CPFSNSEP,GOSTRING   don't separate these chars
 00014C 5910 BCA8            00CA8  6656                       C     R1,LOC              Is this token or previous tok
 000150 4770 7144            001B8  6657                       BNE   PREVTOK             Br if previous token
 000154 4100 0001            00001  6658                       LA    R0,1                Set length to 1 for this token
 000158 1A60                        6659                       AR    R6,0                Set remaining pointer past it
 00015A 47F0 7202            00276  6660                       B     TOKEN               Process
                                    6661                       ¿þþþþþþþþþþþþþþþþþþþþþþþþÜ
                                    6662                       Ÿ  process single quote  Ÿ
                                    6663                       ¾þþþþþþþþþþþþþþþþþþþþþþþþ»
 00015E 9140 803E      0003E        6664              SQUOTE   TM    FL,FDQS             "string"?
 000162 4770 71F6            0026A  6665                       BNZ   GOSTRING            Br if so
 000166 9180 803E      0003E        6666                       TM    FL,FSQS             Old string?
 00016A 4710 7112            00186  6667                       BO    CSQ                 Br if so
 00016E 9120 803E      0003E        6668                       TM    FL,FPS              Is it middle of paren string
 000172 4710 710A            0017E  6669                       BO    SQUOTE1             Yes, only set flag
 000176 5910 BCA8            00CA8  6670                       C     R1,LOC              See if previous token
 00017A 4770 7144            001B8  6671                       BNE   PREVTOK             Br if previous token
 00017E 9680 803E      0003E        6672              SQUOTE1  OI    FL,FSQS             Set string scan
 000182 47F0 71F6            0026A  6673                       B     GOSTRING
                                    6674
 000186 1A56                        6675              CSQ      AR    R5,R6               Bump ptr
 000188 1861                        6676                       LR    R6,R1
 00018A 1B51                        6677                       SR    R5,R1
 00018C 47D0 7130            001A4  6678                       BNP   CSQETST             Br if end
 000190 D500 6000 6001 00000 00001  6679                       CLC   0(1,R6),1(R6)       Same kind of quote doubled
 000196 4770 7130            001A4  6680                       BNE   CSQETST             Br if not
 00019A 0650                        6681                       DECR  R5                  Eliminate 2nd quote
 00019C 4160 6002            00002  6683                       LA    R6,2(,R6)
 0001A0 47F0 702C            000A0  6684                       B     RESCAN
                                    6685
 0001A4 9120 803E      0003E        6686              CSQETST  TM    FL,FPS              Is this string within parens
 0001A8 4780 717E            001F2  6687                       BE    ESTR                No, go end normally
 0001AC 943F 803E      0003E        6688                       NI    FL,255-FSQS-FDQS    Yes, turn off string flags
 0001B0 4160 6001            00001  6689                       LA    R6,@R6+1            Point beyond string
 0001B4 47F0 702C            000A0  6690                       B     RESCAN              Go finish parens
                                    6691
 0001B8 1B61                        6692              PREVTOK  SR    R6,R1               Get neg of this part length
 0001BA 4156 5001            00001  6693                       LA    R5,1(R6,R5)         Set remaining count
 0001BE 1861                        6694                       LR    R6,R1               Set remaining pointer
 0001C0 5B10 BCA8            00CA8  6695                       S     R1,LOC              Calculate lenght of prevtok
 0001C4 1801                        6696                       LR    R0,R1               Put count in r0
 0001C6 47F0 7202            00276  6697                       B     TOKEN               Go process
1OSCN     (OSCN7024) (12:50) (15MAR04) WYLBUR's Scanner                                                                     Page   13
0Current Usings:  (*,R7) (SA,R8) (CP,R11) (CV,R12)
0Loc    Object Code    Addr1 Addr2  Stmt Lv Lineno    Source Statement           (Hibal 5, Asmedit 3.3)  HLASM R4.0  2004/03/15 12.50
+___    ______ ____    _____ _____  ____ __ ______    ______ _________
0                                   6699              *  process double quote
                                    6700              *
 0001CA 9180 803E      0003E        6701              DQUOTE   TM    FL,FSQS             'string'?
 0001CE 4770 71F6            0026A  6702                       BNZ   GOSTRING            Br if so
 0001D2 9140 803E      0003E        6703                       TM    FL,FDQS             Old string?
 0001D6 4710 7112            00186  6704                       BO    CSQ                 Br if so
 0001DA 9120 803E      0003E        6705                       TM    FL,FPS              Is it middle of paren string
 0001DE 4710 7176            001EA  6706                       BO    DQUOTE1             Yes, only set flag
 0001E2 5910 BCA8            00CA8  6707                       C     R1,LOC              See if previous token
 0001E6 4770 7144            001B8  6708                       BNE   PREVTOK
 0001EA 9640 803E      0003E        6709              DQUOTE1  OI    FL,FDQS             Set string scan
 0001EE 47F0 71F6            0026A  6710                       B     GOSTRING
                                    6711
 0001F2 4160 6001            00001  6712              ESTR     LA    R6,@R6+1
 0001F6 1806                        6713                       LR    R0,R6               Compute token size
 0001F8 5B00 BCA8            00CA8  6714                       S     R0,LOC
 0001FC 47F0 7202            00276  6715                       B     TOKEN
                                    6716                       ¿þþþþþþþþþþþþþþþþþþþþþþÜ
                                    6717                       Ÿ  process left paren  Ÿ
                                    6718                       ¾þþþþþþþþþþþþþþþþþþþþþþ»
 000200 91C0 803E      0003E        6719              LPAR     TM    FL,FSQS+FDQS        Quoted string?
 000204 4770 71F6            0026A  6720                       BNZ   GOSTRING            Br if so
 000208 9120 803E      0003E        6721                       TM    FL,FPS              Paren string?
 00020C 4710 71B4            00228  6722                       BO    INP                 Br if so
 000210 5910 BCA8            00CA8  6723                       C     R1,LOC              See if previous token
 000214 4770 7144            001B8  6724                       BNE   PREVTOK             Br if previous token
 000218 9620 803E      0003E        6725                       OI    FL,FPS              Set paren scan
 00021C 4120 0001            00001  6726                       LA    R2,1
 000220 4020 803C            0003C  6727                       STH   R2,PCNT
 000224 47F0 71F6            0026A  6728                       B     GOSTRING
                                    6729
 000228 4820 803C            0003C  6730              INP      LH    R2,PCNT             Paren count
 00022C 4120 2001            00001  6731                       LA    R2,@R2+1
 000230 4020 803C            0003C  6732                       STH   R2,PCNT
 000234 47F0 71F6            0026A  6733                       B     GOSTRING
1OSCN     (OSCN7024) (12:50) (15MAR04) WYLBUR's Scanner                                                                     Page   14
0Current Usings:  (*,R7) (SA,R8) (CP,R11) (CV,R12)
0Loc    Object Code    Addr1 Addr2  Stmt Lv Lineno    Source Statement           (Hibal 5, Asmedit 3.3)  HLASM R4.0  2004/03/15 12.50
+___    ______ ____    _____ _____  ____ __ ______    ______ _________
0                                   6735              *  process right paren
                                    6736              *
 000238 91C0 803E      0003E        6737              RPAR     TM    FL,FSQS+FDQS        Quoted string?
 00023C 4770 71F6            0026A  6738                       BNZ   GOSTRING            Br if so
 000240 9120 803E      0003E        6739                       TM    FL,FPS              Paren string?
 000244 4780 707E            000F2  6740                       BZ    ILLSTR              Br if not
 000248 4820 803C            0003C  6741                       LH    R2,PCNT             Decr count
 00024C 0620                        6742                       DECR  R2
 00024E 4020 803C            0003C  6744                       STH   R2,PCNT
 000252 1222                        6745                       LTR   R2,R2
 000254 4770 71F6            0026A  6746                       BNZ   GOSTRING
 000258 1B51                        6747                       SR    R5,R1               Update str ptr
 00025A 1A56                        6748                       AR    R5,R6
 00025C 1861                        6749                       LR    R6,R1
 00025E 47F0 717E            001F2  6750                       B     ESTR
                                    6751
 000262 9104 BCD0      00CD0        6752              ASTERISK TM    CPSCNFLG,CPFSCNAS   Is asterisk separate token
 000266 4710 70C8            0013C  6753                       BO    SLASH               Yes, handle as if slash
 00026A 1B51                        6754              GOSTRING SR    R5,R1               Update string ptrs
 00026C 1A56                        6755                       AR    R5,R6
 00026E 4160 1001            00001  6756                       LA    R6,@R1+1
 000272 47F0 702C            000A0  6757                       B     RESCAN
1OSCN     (OSCN7024) (12:50) (15MAR04) WYLBUR's Scanner                                                                     Page   15
0Current Usings:  (*,R7) (SA,R8) (CP,R11) (CV,R12)
0Loc    Object Code    Addr1 Addr2  Stmt Lv Lineno    Source Statement           (Hibal 5, Asmedit 3.3)  HLASM R4.0  2004/03/15 12.50
+___    ______ ____    _____ _____  ____ __ ______    ______ _________
0                                   6759              *  process a token
                                    6760              *
                                    6761              * r0 = length of token on entry -- loc = start of token
 000276 5810 BCA8            00CA8  6762              TOKEN    L     R1,LOC              Get location
 00027A 18F0                        6763                       LR    R15,R0
 00027C D207 BCAE C4D8 00CAE 004D8  6764                       MVC   KW,CVBLANKS         Blank kw
 000282 D701 BCB6 BCB6 00CB6 00CB6  6765                       CLEAR PRTSTACK            Init prt value
 000288 91E0 803E      0003E        6772                       TM    FL,FSQS+FDQS+FPS    Quote or paren string?
 00028C 4770 7246            002BA  6773                       BNZ   PRKW                Br if quote or paren string
 000290 9108 BCD0/4710_00CD0        6774                       IF    ~CPFSUPLO,BEGIN     Force upper case ...
 000298 1820                        6789  1                      LR    R2,R0               Count
 00029A 1831                        6790  1                      LR    R3,R1               Ptr
 00029C 5830 C8A8            008A8  6791  1                      L     R3,CVUPPTBL
 0002A0 1820                        6792  1                      LR    R2,R0
 0002A2 0620/4420 782A_             6793  1                      DEX   R2,'TR @R1(0),@R3'     Convert to upper case
 0002A8                             6812                       END
 0002A8 55F0 77F4            00868  6816                       CL    R15,=A(8)           Max len is 8
 0002AC 4740 7240            002B4  6817                       BL    *+8                 Br if too long
 0002B0 41F0 0008            00008  6818                       LA    R15,8               Set to move first 8
 0002B4 06F0/44F0 76E2              6819                       DEX   R15,MVT             Move kw
 0002BA 1244                        6824              PRKW     LTR   R4,R4               Routine?
 0002BC 4770 735C            003D0  6825                       BNZ   SETSR               Br if so
 0002C0 5820 BCBC/1222       00CBC  6826                       LT    R2,PRT              Routing table
 0002C6 4720 7262            002D6  6830                       BP    KWSRCH              Br if normal table
 0002CA 5840 BCB8            00CB8  6831                       L     R4,RA
 0002CE 47F0 7360            003D4  6832                       B     GORTN
                                    6833              *
                                    6834              *
 0002D2 4123 2005            00005  6835              KWNEX    LA    R2,5(R3,R2)         Try next
 0002D6 5020 BCCC            00CCC  6836              KWSRCH   ST    R2,CPLSTSCK         Save last sckw addr
 0002DA 91F8 2000      00000        6837                       TM    @R2,FTBLE           Is it push, pop, or end
 0002DE 4710 72C6            0033A  6838                       BO    KWFND               Br if so
 0002E2 4330 2000            00000  6839                       IC    R3,@R2              Extract (len-1)
 0002E6 5430 77F8            0086C  6840                       N     R3,=A(7)
 0002EA 91E0 803E      0003E        6841                       TM    FL,FSQS+FDQS+FPS    Quote or paren string?
 0002EE 4770 72AE            00322  6842                       BNZ   NXTRY               Br if quote or paren string
 0002F2 1233                        6843                       LTR   R3,R3               Test token len
 0002F4 4770 728C            00300  6844                       BNZ   COMPOK              User kw exists
 0002F8 9540 2004      00004        6845                       CLI   @R2+4,C' '          Blank?
 0002FC 4780 72C6            0033A  6846                       BE    KWFND               Yes
 000300 193F                        6847              COMPOK   CR    R3,R15              Len ok?
 000302 4740 72AE            00322  6848                       BL    NXTRY               No, go on
 000306 4780 72A6            0031A  6849                       BE    DOCOMP              Equal, go compare
 00030A 9108 2000      00000        6850                       TM    @R2,FABBREV         Try abbreviation?
 00030E 4780 72AE            00322  6851                       BZ    NXTRY               No
 000312 4900 7820            00894  6852                       CH    R0,=Y(3)            3-chars?
 000316 4740 72AE            00322  6853                       BL    NXTRY               No
 00031A 44F0 76E8            0075C  6854              DOCOMP   EX    R15,CLC             Compare keywords
 00031E 4780 72C6            0033A  6856                       BE    KWFND               Br if found
 000322 9110 2000      00000        6857              NXTRY    TM    @R2,FLIMIT          Limit?
 000326 4780 725E            002D2  6858                       BZ    KWNEX               No
 00032A 9160 2000      00000        6859                       TM    @R2,FINTEG+FINTEGP  Integer?
 00032E 47B0 725E            002D2  6860                       BNM   KWNEX               No
 000332 4122 3009            00009  6861                       LA    R2,@R3+9(R2)        Try next
1OSCN     (OSCN7024) (12:50) (15MAR04) WYLBUR's Scanner                                                                     Page   16
0Current Usings:  (*,R7) (SA,R8) (CP,R11) (CV,R12)
0Loc    Object Code    Addr1 Addr2  Stmt Lv Lineno    Source Statement           (Hibal 5, Asmedit 3.3)  HLASM R4.0  2004/03/15 12.50
+___    ______ ____    _____ _____  ____ __ ______    ______ _________
0000336 47F0 7262            002D6  6862                       B     KWSRCH
1OSCN     (OSCN7024) (12:50) (15MAR04) WYLBUR's Scanner                                                                     Page   17
0Current Usings:  (*,R7) (SA,R8) (CP,R11) (CV,R12)
0Loc    Object Code    Addr1 Addr2  Stmt Lv Lineno    Source Statement           (Hibal 5, Asmedit 3.3)  HLASM R4.0  2004/03/15 12.50
+___    ______ ____    _____ _____  ____ __ ______    ______ _________
000033A 941F 803E      0003E        6864              KWFND    NI    FL,255-FSQS-FDQS-FPS  reset string scan
 00033E 94DF BCD0      00CD0        6865                       NI    CPSCNFLG,255-CPFSPRM  reset parm scan
 000342 1F44/BF47 2001              6866                       L3    R4,@R2+1            Routine
 000348 91F8 2000      00000        6874                       TM    @R2,FTBLE           Is it push, pop, or end
 00034C 4710 7304            00378  6875                       BO    TSTLAST             Yes br if so
 000350 9101 BCD0/4710_00CD0        6876                       IF    CPSCNFLG.CPFSNRTN,GORTN  ignore any parm if nsckw
 000358 9180 2000      00000        6894                       TM    @R2,FPARM           Parm?
 00035C 4780 7360            003D4  6895                       BZ    GORTN               Br if no parm
 000360 5640 77FC            00870  6896                       O     R4,=A(X'7F000000')  Make sure r4 is non-zero
 000364 9023 8030            00030  6897                       STM   R2,R3,WORD          Save r2/r3 values
 000368 5010 BD48            00D48  6898                       ST    R1,CPSCNKLC         Save scanner keyword addr
 00036C 5000 BD4C            00D4C  6899                       ST    R0,CPSCNKLN         Save keyword length
 000370 9620 BCD0      00CD0        6900                       OI    CPSCNFLG,CPFSPRM    Have keyword.. look for prm
 000374 47F0 7028            0009C  6901                       B     RESCANC             Find parm
                                    6902
 000378 9107 2000      00000        6903              TSTLAST  TM    @R2,255-FTBLE       Is it last
 00037C 4710 7360            003D4  6904                       BO    GORTN               All on, yes
 000380 4740 733C            003B0  6905                       BM    GOPOP               Mixed, go pop up one level
                                    6906              * push down current scan table pointer
 000384 4120 2004            00004  6907                       LA    R2,@R2+4            Set for next after pop
 000388 1244/4780 7262              6908                       IF    (R4,Z),KWSRCH       Br if no table to push to
 00038E 48E0 BCB6            00CB6  6925                       LH    R14,PRTSTACK        Get current stack offset
 000392 41E0 E004            00004  6926                       LA    R14,@R14+4
 000396 59E0 7800/47D0_      00874  6927                       CEIL  R14,CPSCNMAX*4      Not too deep
 0003A2 40E0 BCB6            00CB6  6946                       STH   R14,PRTSTACK        Replace stack offset
 0003A6 502E BCD0            00CD0  6947                       ST    R2,CPSCNSTK-4(R14)  Save current prt pointer
 0003AA 1824                        6948                       LR    R2,R4               Set new prt address
 0003AC 47F0 7262            002D6  6949                       B     KWSRCH              Go search this table
                                    6950              *
                                    6951              * pop up a save scan table pointer -- ignore if at top level
 0003B0 48E0 BCB6            00CB6  6952              GOPOP    LH    R14,PRTSTACK        Get current stack pointer
 0003B4 4BE0 7822            00896  6953                       SH    R14,=H'4'
 0003B8 4740 7354            003C8  6954                       BM    NXTRY1              Ignore if top level
 0003BC 40E0 BCB6            00CB6  6955                       STH   R14,PRTSTACK        Put back stack pointer
 0003C0 582E BCD4            00CD4  6956                       L     R2,CPSCNSTK(R14)    Pick up old prt pointer
 0003C4 47F0 7262            002D6  6957                       B     KWSRCH              Br to continue search
                                    6958
 0003C8 4120 2001            00001  6959              NXTRY1   LA    R2,@R2+1            Step past ignored pop
 0003CC 47F0 7262            002D6  6960                       B     KWSRCH              Continue in same table
1OSCN     (OSCN7024) (12:50) (15MAR04) WYLBUR's Scanner                                                                     Page   18
0Current Usings:  (*,R7) (SA,R8) (CP,R11) (CV,R12)
0Loc    Object Code    Addr1 Addr2  Stmt Lv Lineno    Source Statement           (Hibal 5, Asmedit 3.3)  HLASM R4.0  2004/03/15 12.50
+___    ______ ____    _____ _____  ____ __ ______    ______ _________
00003D0 9823 8030            00030  6962              SETSR    LM    R2,R3,WORD          Reset r2/r3 values
 0003D4 41E0 7008            0007C  6963              GORTN    LA    R14,GOSCAN          Point at return point
 0003D8 9102 BCD0/47E0_00CD0        6964                       IF    CPSCNFLG.CPFGSBLK,'SET CPSCNFLG.CPFSBLK'  set default
 0003E4 9101 BCD0/47E0_00CD0        6992                       IF    CPSCNFLG.CPFSNRTN,'L R4,RA'
 0003F0 4050 BCAC            00CAC  7013                       STH   R5,LEN              Save length
 0003F4 5060 BCA8            00CA8  7014                       ST    R6,LOC              Save location
 0003F8 9001 BC9C            00C9C  7015                       STM   R0,R1,CPSAVE        Save ptrs
 0003FC 50F0 8038            00038  7016                       ST    R15,SV15            Save 15
 000400 8940 0008/8840_      00008  7017                       CLRHI R4                  Clear high order byte
 000408 1244/4780 7406              7020                       IF    (R4,Z),CHKBLNK      Br if no routine
 00040E 1222                        7037                       LTR   R2,R2               Prt?
 000410 4780 73D2            00446  7038                       BZ    NTCMV               Br if not
 000414 95FF 2000      00000        7039                       CLI   @R2,FLAST           End?
 000418 4780 73D2            00446  7040                       BE    NTCMV               Br if so
                                    7041
 00041C 9101 BCD0/47E0_00CD0        7042                       IF    (~CPSCNFLG.CPFSNRTN,OR,(@R2+4,EQ,' ')),BEGIN
 00042C 9160 2000      00000        7072  1                      TM    @R2,FLINNO          Integer or line no conv?
 000430 4710 74A2            00516  7073  1                      BO    LINNOCV             Line no. conv
 000434 4740 7472            004E6  7074  1                      BM    INTGRCV             Integer conv
 000438                             7075                       END
                                    7079
 000438 9110 2000/47E0_00000        7080                       IF    @R2.FCMSET,'MVC CPCMNM,KW'  Set command chars
 000446 41F0 BCAE            00CAE  7102              NTCMV    LA    R15,KW              Kw ptr
 00044A 18E4                        7103              NOTKWPS  LR    R14,R4              Get ep
 00044C 982C D004            00004  7104              GORTN1   LM    R2,R12,@R13+4
 000450 89E0 0008/88E0_      00008  7105                       CLRHI RAR                 Needed for XA
 000458 1200                        7108                       LTR   R0,R0               Set cc
 00045A 0DEE                        7109                       BASR  RAR,RAR             Go to parm routine
 00045C 50E0 D000/902C_      00000  7110              SCNCON   XENTER R2,R12,0           Save regs
 DROP   *,R7
 USING  *,R7
 000472 5870 7406            00878  7131                       BASE  BASE
 DROP   *,R7
 USING  BASE,R7
 000476 41E0 7008            0007C  7149                       LA    R14,GOSCAN          Point at return point
 00047A 9180 BCD0      00CD0        7150              CHKBLNK  TM    CPSCNFLG,CPFSBLK    Blank this token?
 00047E 078E                        7151                       BZR   R14                 Br if not
 000480 4530 75A4            00618  7152                       BAL   R3,BLANKIT          Go blank token
 000484 94DF BCD0      00CD0        7153                       NI    CPSCNFLG,255-CPFSPRM  reset parm scan flag
 000488 07FE                        7154                       BR    R14                 Continue scan
                                    7155
 00048A 50E0 D000/902C_      00000  7156              SCNRES   XENTER R2,R12,0
 DROP   BASE,R7
 USING  *,R7
 0004A0 5870 73D8            00878  7177                       BASE  BASE
 DROP   *,R7
 USING  BASE,R7
 0004A4 9200 803E      0003E        7195                       CLEAR FL
 0004A8 5860 BCA8            00CA8  7202                       L     R6,LOC
 0004AC 4850 BCAC            00CAC  7203                       LH    R5,LEN
 0004B0 18F0                        7204                       LR    R15,R0
 0004B2 59F0 77F4/47D0_      00868  7205                       IF    (R15,GT,8),'LA R15,8'
 0004BE 06F0                        7228                       DECR  R15
 0004C0 1200/47D0 75E2              7230                       IF    (R0,~POS),RTN       Too late -- just return
1OSCN     (OSCN7024) (12:50) (15MAR04) WYLBUR's Scanner                                                                     Page   19
0Current Usings:  (BASE,R7) (SA,R8) (CP,R11) (CV,R12)
0Loc    Object Code    Addr1 Addr2  Stmt Lv Lineno    Source Statement           (Hibal 5, Asmedit 3.3)  HLASM R4.0  2004/03/15 12.50
+___    ______ ____    _____ _____  ____ __ ______    ______ _________
00004C6 5820 BCCC            00CCC  7247                       L     R2,CPLSTSCK
 0004CA 95FF 2000/4770_00000        7248                       IF    (@R2,EQ,X'FF'),BEGIN  resume after "end" sckw...
 0004D2 4120 2004            00004  7264  1                      LA    R2,@R2+4
 0004D6 47F0 7262            002D6  7265  1                      B     KWSRCH
 0004DA                             7266                       END
 0004DA 4330 2000            00000  7270                       IC    R3,@R2              Len in sckw entry
 0004DE 5430 77F8            0086C  7271                       N     R3,=A(7)
 0004E2 47F0 725E            002D2  7272                       B     KWNEX               Resume scan
1OSCN     (OSCN7024) (12:50) (15MAR04) WYLBUR's Scanner                                                                     Page   20
0Current Usings:  (BASE,R7) (SA,R8) (CP,R11) (CV,R12)
0Loc    Object Code    Addr1 Addr2  Stmt Lv Lineno    Source Statement           (Hibal 5, Asmedit 3.3)  HLASM R4.0  2004/03/15 12.50
+___    ______ ____    _____ _____  ____ __ ______    ______ _________
0                                   7274              * decimal to binary conv rtn for scan
                                    7275              *
 0004E6 4DE0 7556            005CA  7276              INTGRCV  LCALL DOINT               Go do cv
 0004EA 9120 2000      00000        7278                       TM    @R2,FINTEGP         Pos int?
 0004EE 4780 7484            004F8  7279                       BZ    ANYI                No
 0004F2 1200                        7280                       LTR   R0,R0               Test integ
 0004F4 47D0 7586            005FA  7281                       BNP   BOO                 Ng
 0004F8 9110 2000      00000        7282              ANYI     TM    @R2,FLIMIT          Limit?
 0004FC 4780 74E4            00558  7283                       BZ    NTRSET              No
 000500 5000 8030            00030  7284                       ST    R0,WORD             For clc
 000504 4162 3005            00005  7285                       LA    R6,5(R2,R3)         Pt at limit
 000508 D503 8030 6000 00030 00000  7286                       CLC   WORD(4),@R6         Check limit
 00050E 47D0 74E4            00558  7287                       BNH   NTRSET              Ok
 000512 47F0 7586            005FA  7288                       B     BOO                 Ng
1OSCN     (OSCN7024) (12:50) (15MAR04) WYLBUR's Scanner                                                                     Page   21
0Current Usings:  (BASE,R7) (SA,R8) (CP,R11) (CV,R12)
0Loc    Object Code    Addr1 Addr2  Stmt Lv Lineno    Source Statement           (Hibal 5, Asmedit 3.3)  HLASM R4.0  2004/03/15 12.50
+___    ______ ____    _____ _____  ____ __ ______    ______ _________
0                                   7290                     ¿þþþþþþþþþþþþþþþþþþþþþþþþþþþþþþþþþþþþþþþþþþþþþþþþþþþþþþþþþþþþþþþþþÜ
                                    7291                     Ÿ  process line number, max lineno is (F5.8) truncated to (F5.3)  Ÿ
                                    7292                     ¾þþþþþþþþþþþþþþþþþþþþþþþþþþþþþþþþþþþþþþþþþþþþþþþþþþþþþþþþþþþþþþþþþ»
 000516 5500 7808            0087C  7293              LINNOCV  CL    R0,=A(14)           Max length is 14 (F5.8)
 00051A 4720 7586            005FA  7294                       BH    BOO                 Too big
 00051E 1BFF                        7295                       CLEAR R15                 Zero counter
 000520 1861                        7299                       LR    R6,1                Ptr
 000522 954B 6000      00000        7300              CHKMR    CLI   @R6,C'.'            Period?
 000526 4780 74C6            0053A  7301                       BE    HVPRD               Yes
 00052A 41F0 F001            00001  7302                       LA    R15,@R15+1          Kick counter
 00052E 4160 6001            00001  7303                       LA    R6,@R6+1            Kick ptr
 000532 4600 74AE            00522  7304                       BCT   R0,CHKMR            More?
 000536 47F0 74CA            0053E  7305                       B     WHOL                Integer line no
                                    7306
 00053A 4600 74EE            00562  7307              HVPRD    BCT   R0,CHKFR            Fraction?
 00053E 120F                        7308              WHOL     LTR   R0,R15              Integ count
 000540 47D0 7586            005FA  7309                       BNP   BOO                 "." not legal
 000544 1BFF                        7310                       CLEAR R15                 Zero fraction
 000546 5500 780C            00880  7314              WHOLDO   CL    R0,=A(5)            Max length is 5
 00054A 4720 7586            005FA  7315                       BH    BOO
 00054E 4DE0 7556            005CA  7316                       LCALL DOINT               Conv
 000552 4C00 7824            00898  7318                       MH    R0,=H'1000'         Set integer value
 000556 1A0F                        7319                       AR    R0,R15              Add in fraction
 000558 18F0                        7320              NTRSET   LR    R15,R0              Set return value into r15
 00055A 9801 BC9C            00C9C  7321                       LM    R0,R1,CPSAVE        Reset ptrs
 00055E 47F0 73D6            0044A  7322                       B     NOTKWPS             Ready to return
                                    7323
 000562 5500 7810            00884  7324              CHKFR    CL    R0,=A(9)            8 is max, we truncate to 3
 000566 47B0 7586            005FA  7325                       BNL   BOO                 Ng
 00056A 18E0                        7326                       LR    R14,R0              * fix by noid 2/86, 11 lines *
 00056C 1856                        7327                       LR    R5,R6               check to see that all chars
 00056E 0600                        7328                       DECR  R0                  are numeric
 000570 4166 0001            00001  7330                       LA    R6,1(R6)
 000574 1200/47D0 7520              7331                       WHILE (R0,POS),BEGIN
 00057A 95F0 6000/4740_00000        7347  1                      IF    ((@R6,LT,'0'),OR,(@R6,GT,'9')),BOO
 00058A 0600                        7381  1                      DECR  R0
 00058C 4166 0001            00001  7383  1                      LA    R6,1(R6)
 000590 47F0 7500            00574  7384                       END
 000594 180E                        7389                       LR    R0,R14
 000596 1865                        7390                       LR    R6,R5               * fix done *
 000598 D201 8031 7826 00031 0089A  7391                       MVC   WORD+1(2),=C'00'    Put zeros
 00059E 18E0                        7392                       LR    R14,R0              Count
 0005A0 06E0/44E0 7550              7393                       DEX   R14,MVFR            Mvc   word(0),1(r6)
 0005A6 4100 0003            00003  7398                       LA    R0,3                Cv count  (truncated to 3)
 0005AA 4110 8030            00030  7399                       LA    R1,WORD             Ptr
 0005AE 4DE0 7556            005CA  7400                       LCALL DOINT               Cv
 0005B2 125F                        7402                       LTR   R5,R15              Any integ count?
 0005B4 47D0 74E4            00558  7403                       BNP   NTRSET              Fin
 0005B8 18F0                        7404                       LR    R15,R0              Save frac
 0005BA 1805                        7405                       LR    R0,R5               Integ count
 0005BC 5810 BCA0            00CA0  7406                       L     R1,CPSAVE+4         Reset start ptr
 0005C0 47F0 74D2            00546  7407                       B     WHOLDO              Integer line no
                                    7408
 0005C4 D200 8030 6001 00030 00001  7409              MVFR     MVC   WORD(*-*),@R6+1
1OSCN     (OSCN7024) (12:50) (15MAR04) WYLBUR's Scanner                                                                     Page   22
0Current Usings:  (BASE,R7) (SA,R8) (CP,R11) (CV,R12)
0Loc    Object Code    Addr1 Addr2  Stmt Lv Lineno    Source Statement           (Hibal 5, Asmedit 3.3)  HLASM R4.0  2004/03/15 12.50
+___    ______ ____    _____ _____  ____ __ ______    ______ _________
00005CA 5500 7810            00884  7411              DOINT    CL    R0,=A(9)            Max len is 9
 0005CE 4720 7586            005FA  7412                       BH    BOO                 Ng
 0005D2 1850                        7413                       LR    R5,R0               Count
 0005D4 1861                        7414                       LR    R6,R1               Ptr
 0005D6 95F0 1000      00000        7415              CHNEXT   CLI   @R1,C'0'            Too small?
 0005DA 4740 7586            005FA  7416                       BL    BOO                 Yes
 0005DE 95F9 1000      00000        7417                       CLI   @R1,C'9'            Too big?
 0005E2 4720 7586            005FA  7418                       BH    BOO                 Yes
 0005E6 4110 1001            00001  7419                       LA    R1,@R1+1            Next
 0005EA 4600 7562            005D6  7420                       BCT   R0,CHNEXT           More?
 0005EE 0650/4450 76EE              7421                       DEX   R5,CHPACK           Pack
 0005F4 4F00 BC88            00C88  7426                       CVB   R0,CPDOUB           Convert
 0005F8 07FE                        7427                       BR    RAR                 Return
1OSCN     (OSCN7024) (12:50) (15MAR04) WYLBUR's Scanner                                                                     Page   23
0Current Usings:  (BASE,R7) (SA,R8) (CP,R11) (CV,R12)
0Loc    Object Code    Addr1 Addr2  Stmt Lv Lineno    Source Statement           (Hibal 5, Asmedit 3.3)  HLASM R4.0  2004/03/15 12.50
+___    ______ ____    _____ _____  ____ __ ______    ______ _________
00005FA 1B44                        7429              BOO      CLEAR R4                  Unset routine
 0005FC 4850 BCAC            00CAC  7434                       LH    R5,LEN              Get length
 000600 5860 BCA8            00CA8  7435                       L     R6,LOC              Get location
 000604 9801 BC9C            00C9C  7436                       LM    R0,R1,CPSAVE        Ptrs
 000608 9180 2000      00000        7437                       TM    @R2,FPARM           Parm?
 00060C 58F0 8038            00038  7438                       L     R15,SV15            Set 15
 000610 4780 72AE            00322  7439                       BZ    NXTRY               No
 000614 47F0 760C            00680  7440                       B     BADSCAN             Yuckkk
-
-
 000618 947F BCD0      00CD0        7442              BLANKIT  NI    CPSCNFLG,255-CPFSBLK  reset blank request
 00061C 9801 BC9C            00C9C  7443                       LM    R0,R1,CPSAVE        Get token pointer
 000620 4520 75C0            00634  7444                       BAL   R2,BLNK             Go blnk token
 000624 9120 BCD0      00CD0        7445                       TM    CPSCNFLG,CPFSPRM    Is it parm token?
 000628 0783                        7446                       BZR   R3                  Br if not
 00062A 5810 BD48            00D48  7447                       L     R1,CPSCNKLC         Get keyword pointers
 00062E 5800 BD4C            00D4C  7448                       L     R0,CPSCNKLN         Get keyword length
 000632 1823                        7449                       LR    R2,R3               Set return address
                                    7450
 000634 12F0                        7451              BLNK     LTR   R15,R0              Copy length
 000636 07D2                        7452                       BNPR  R2                  Return not positive
 000638 9240 1000      00000        7453                       MVI   @R1,X'40'           Insert the blank
 00063C 46F0 75CE            00642  7454                       BCT   R15,*+6             ** must stay **
 000640 07F2                        7455                       BR    R2                  ** together  **
 000642 06F0                        7456                       DECR  R15                 ** these ins **
 000644 44F0 75D6            0064A  7458                       EX    R15,BLNMVC          Blank it out
 000648 07F2                        7460                       BR    R2                  Return to caller
                                    7461
 00064A D200 1001 1000 00001 00000  7462              BLNMVC   MVC   @R1+1(*-*),@R1      ** executed mvc **
1OSCN     (OSCN7024) (12:50) (15MAR04) WYLBUR's Scanner                                                                     Page   24
0Current Usings:  (BASE,R7) (SA,R8) (CP,R11) (CV,R12)
0Loc    Object Code    Addr1 Addr2  Stmt Lv Lineno    Source Statement           (Hibal 5, Asmedit 3.3)  HLASM R4.0  2004/03/15 12.50
+___    ______ ____    _____ _____  ____ __ ______    ______ _________
0                                   7464              *  terminal processing
                                    7465              *
 000650                             7466              DONE     LABEL
 000650 1244/4770 762E              7468                       IF    (R4,NZ),NOPARM      If missing parm, error >>
                                    7485
 000656 1B00/1B11                   7486              RTN      CLEAR R0,R1               Zot loc and len
 00065A 5000 BCCC            00CCC  7493                       ST    R0,CPLSTSCK         Reset last sckw ptr
 00065E D207 BCAE C4D8 00CAE 004D8  7494                       MVC   KW,CVBLANKS         Clear kw
 000664 4050 BCAC            00CAC  7495                       STH   R5,LEN              Save length
 000668 5060 BCA8            00CA8  7496                       ST    R6,LOC              Save location
 00066C 9001 BC9C            00C9C  7497                       STM   R0,R1,CPSAVE        Save ptrs
 000670 58E0 BCB8            00CB8  7498                       L     RAR,RA              Return addr
 000674 41F0 BCAE            00CAE  7499                       LA    R15,KW
 000678 982C D004            00004  7500                       LM    R2,R12,@R13+4
 00067C 1200                        7501                       LTR   R0,R0
 00067E 07FE                        7502                       BR    RAR
1OSCN     (OSCN7024) (12:50) (15MAR04) WYLBUR's Scanner                                                                     Page   25
0Current Usings:  (BASE,R7) (SA,R8) (CP,R11) (CV,R12)
0Loc    Object Code    Addr1 Addr2  Stmt Lv Lineno    Source Statement           (Hibal 5, Asmedit 3.3)  HLASM R4.0  2004/03/15 12.50
+___    ______ ____    _____ _____  ____ __ ______    ______ _________
0                                   7504                       ¿þþþþþþþþþþþþþþþþþþþþþþþþþþþþþþþÜ
                                    7505                       Ÿ  Invalid scan, we have error  Ÿ
                                    7506                       ¾þþþþþþþþþþþþþþþþþþþþþþþþþþþþþþþ»
 000680                             7507              BADSCAN  LABEL ,
 000680 1200/4770 7616              7509                       IF    (R0,Z),BEGIN        Imposible, give 1st char min.
 000686 4100 0001            00001  7523  1                      LA    R0,1
 00068A                             7524                       END
 00068A 9001 BC9C            00C9C  7528                       STM   R0,R1,CPSAVE        Set for call to CVNVALID
                                    7529                       COMMENT                   If error exit, take exit
 00068E 9140 BCD0/4710_00CD0        7530                       IF    CPSCNFLG.CPFRTNER,ERREXIT
 000696 9180 BCD1/4710_00CD1        7549                       IF    CPFSRETN,ERREXIT
 00069E 47F0 C7E4            007E4  7567                       B     CVNVALID            Otherwise, return invalid
-
                                    7569                        ¿þþþþþþþþþþþþþþþþþþþþþþþþþþþþþþþþÜ
                                    7570                        Ÿ  No parm found, we have error  Ÿ
                                    7571                        ¾þþþþþþþþþþþþþþþþþþþþþþþþþþþþþþþþ»
 0006A2                             7572              NOPARM   LABEL ,
 0006A2 5810 BD48            00D48  7574                       L     R1,CPSCNKLC         Set R0,R1 for error exit
 0006A6 5800 BD4C            00D4C  7575                       L     R0,CPSCNKLN
                                    7576                       COMMENT                   If error exit, take exit
 0006AA 9140 BCD0/4710_00CD0        7577                       IF    CPSCNFLG.CPFRTNER,ERREXIT
 0006B2 9180 BCD1/4710_00CD1        7596                       IF    CPFSRETN,ERREXIT
                                    7614                       COMMENT                   Missing parm, give error
 0006BA 5810 8030            00030  7615                       L     R1,WORD             Prt address
 0006BE 1211                        7616                       LTR   R1,R1
 0006C0 4780 C7F0            007F0  7617                       BZ    CVABSENT            None
 0006C4 8910 0008/8810_      00008  7618                       CLRHI R1                  For 31-bit addressing mode
 0006CC 43F0 1000            00000  7621                       IC    R15,@R1
 0006D0 54F0 7814            00888  7622                       N     R15,=F'7'           Kw length-1
 0006D4 4110 1004/4100_      00004  7623                       TSEG  @R1+4,@R15+1        Add kw w/o parm
 0006E6 4110 7828/4100_      0089C  7653                       TSEG  ':',,B
 0006F8 47F0 C7F0            007F0  7671                       B     CVABSENT            Finish up msg
1OSCN     (OSCN7024) (12:50) (15MAR04) WYLBUR's Scanner                                                                     Page   26
0Current Usings:  (BASE,R7) (SA,R8) (CP,R11) (CV,R12)
0Loc    Object Code    Addr1 Addr2  Stmt Lv Lineno    Source Statement           (Hibal 5, Asmedit 3.3)  HLASM R4.0  2004/03/15 12.50
+___    ______ ____    _____ _____  ____ __ ______    ______ _________
0                                   7673                     ¿þþþþþþþþþþþþþþþþþþþþþþþþþþþþþþþþþþþþþþþþþþþþþþþþþþþþþþþþþþþþþþþþþÜ
                                    7674                     Ÿ  Error exit, return to caller w/error, or to callers err exit.  Ÿ
                                    7675                     ¾þþþþþþþþþþþþþþþþþþþþþþþþþþþþþþþþþþþþþþþþþþþþþþþþþþþþþþþþþþþþþþþþþ»
 0006FC                             7676              ERREXIT  LABEL ,
                                    7678
 0006FC 9180 BCD1/47E0_00CD1        7679                       IF    CPFSRETN,BEGIN      return to caller w/error
 000704 947F BCD1      00CD1        7694  1                      CLEAR CPFSRETN
 000708 D207 BCAE C4D8 00CAE 004D8  7701  1                      MVC   CPSCNKW,CVBLANKS
 00070E 58E0 BCB8            00CB8  7702  1                      L     RAR,RA
 000712 89E0 0008/88E0_      00008  7703  1                      CLRHI RAR
 00071A 982C D004            00004  7706  1                      LM    R2,R12,@R13+4
 00071E D503 C4D0 C4D4 004D0 004D4  7707  1                      CLC   CVONE,CVFOUR        set CC=neg
 000724 0DEE                        7708  1                      BASR  RAR,RAR
 000726                             7709                       END
                                    7713
 000726 76B6/47F0 76D6_00726 00702  7714                       ELSEIF CPSCNFLG.CPFRTNER,BEGIN return to caller's err exit
 000732 94BF BCD0      00CD0        7739  1                      CLEAR CPSCNFLG.CPFRTNER
 000736 58E0 BCC8            00CC8  7747  1                      L     RAR,CPSCNERT
 00073A 89E0 0008/88E0_      00008  7748  1                      CLRHI RAR
 000742 982C D004            00004  7751  1                      LM    R2,R12,@R13+4
 000746 1200                        7752  1                      LTR   R0,R0
 000748 0DEE                        7753  1                      BASR  RAR,RAR
 00074A                             7754                       END
                                    7758
 00074A 76DA/47F0 76DC 0074A 00730  7759                       ELSE  BEGIN               no other valid case
 00074E 0000                        7770  1                      BOMB
 000750                             7772                       END
1OSCN     (OSCN7024) (12:50) (15MAR04) WYLBUR's Scanner                                                                     Page   27
0Current Usings:  (BASE,R7) (SA,R8) (CP,R11) (CV,R12)
0Loc    Object Code    Addr1 Addr2  Stmt Lv Lineno    Source Statement           (Hibal 5, Asmedit 3.3)  HLASM R4.0  2004/03/15 12.50
+___    ______ ____    _____ _____  ____ __ ______    ______ _________
0                                   7777              *  constants
                                    7778              *
 000750 DD00 6000 76F4 00000 00768  7779              TRT      TRT   @R6(*-*),CLTBL      Scan
 000756 D200 BCAE 1000 00CAE 00000  7780              MVT      MVC   KW(0),@R1           Move token
 00075C D500 BCAE 2004 00CAE 00004  7781              CLC      CLC   KW(0),@R2+4         Compare keywords
 000762 F270 BC88 6000 00C88 00000  7782              CHPACK   PACK  CPDOUB(8),@R6(0)    Pack instr for ex
                                    7783
 DROP   SA,R8                       7784                       DROP  SA
1OSCN     (OSCN7024) (12:50) (15MAR04) WYLBUR's Scanner                                                                     Page   28
0Current Usings:  (BASE,R7) (CP,R11) (CV,R12)
0Loc    Object Code    Addr1 Addr2  Stmt Lv Lineno    Source Statement           (Hibal 5, Asmedit 3.3)  HLASM R4.0  2004/03/15 12.50
+___    ______ ____    _____ _____  ____ __ ______    ______ _________
0                                   7793              ***
                                    7794              ***  Class Table
                                    7795              ***
 000768 0404040404040404            7796              CLTBL    DC    256AL1(4)
 000868                00868 007E9  7797                       ORG   CLTBL+C'a'
 0007E9 0000000000000000            7798                       DC    9X'00'
 0007F2                007F2 007F9  7799                       ORG   CLTBL+C'j'
 0007F9 0000000000000000            7800                       DC    9X'00'
 000802                00802 0080A  7801                       ORG   CLTBL+C's'
 00080A 0000000000000000            7802                       DC    8X'00'
 000812                00812 00829  7803                       ORG   CLTBL+C'A'
 000829 0000000000000000            7804                       DC    9X'00'
 000832                00832 00839  7805                       ORG   CLTBL+C'J'
 000839 0000000000000000            7806                       DC    9X'00'
 000842                00842 0084A  7807                       ORG   CLTBL+C'S'
 00084A 0000000000000000            7808                       DC    8X'00'
 000852                00852 00858  7809                       ORG   CLTBL+C'0'
 000858 0000000000000000            7810                       DC    10X'00'
 000862                00862 007B3  7811                       ORG   CLTBL+C'.'
 0007B3 00                          7812                       DC    X'00'
 0007B4                007B4 007C3  7813                       ORG   CLTBL+C'$'
 0007C3 00                          7814                       DC    X'00'
 0007C4                007C4 007E4  7815                       ORG   CLTBL+C'@'
 0007E4 00                          7816                       DC    X'00'
 0007E5                007E5 007E3  7817                       ORG   CLTBL+C'#'
 0007E3 00                          7818                       DC    X'00'
 0007E4                007E4 007B8  7819                       ORG   CLTBL+C'&&'
 0007B8 00                          7820                       DC    X'00'
 0007B9                007B9 007D5  7821                       ORG   CLTBL+C'_'
 0007D5 00                          7822                       DC    X'00'
 0007D6                007D6 007B6  7823                       ORG   CLTBL+C'+'
 0007B6 18                          7824                       DC    AL1(24)
 0007B7                007B7 007C8  7825                       ORG   CLTBL+C'-'
 0007C8 18                          7826                       DC    AL1(24)
 0007C9                007C9 007B2  7827                       ORG   CLTBL+C'^'          Cent sign
 0007B2 00                          7828                       DC    X'00'
 0007B3                007B3 007C2  7829                       ORG   CLTBL+C'!'          Exp. point
 0007C2 00                          7830                       DC    X'00'
 0007C3                007C3 007B4  7831                       ORG   CLTBL+C'<'
 0007B4 00                          7832                       DC    X'00'
 0007B5                007B5 007D6  7833                       ORG   CLTBL+C'>'
 0007D6 00                          7834                       DC    X'00'
 0007D7                007D7 007E2  7835                       ORG   CLTBL+C':'
 0007E2 00                          7836                       DC    X'00'
 0007E3                007E3 007C6  7837                       ORG   CLTBL+C';'
 0007C6 1C                          7838                       DC    AL1(28)
 0007C7                007C7 007D4  7839                       ORG   CLTBL+C'%'
 0007D4 00                          7840                       DC    X'00'
 0007D5                007D5 00815  7841                       ORG   CLTBL+C'['
 000815 00                          7842                       DC    X'00'
 000816                00816 00825  7843                       ORG   CLTBL+C']'
 000825 00                          7844                       DC    X'00'
 000826                00826 00828  7845                       ORG   CLTBL+C'{'
 000828 00                          7846                       DC    X'00'
1OSCN     (OSCN7024) (12:50) (15MAR04) WYLBUR's Scanner                                                                     Page   29
0Current Usings:  (BASE,R7) (CP,R11) (CV,R12)
0Loc    Object Code    Addr1 Addr2  Stmt Lv Lineno    Source Statement           (Hibal 5, Asmedit 3.3)  HLASM R4.0  2004/03/15 12.50
+___    ______ ____    _____ _____  ____ __ ______    ______ _________
0000829                00829 00838  7847                       ORG   CLTBL+C'}'
 000838 00                          7848                       DC    X'00'
 000839                00839 00848  7849                       ORG   CLTBL+C'\'
 000848 00                          7850                       DC    X'00'
 000849                00849 007E1  7851                       ORG   CLTBL+C'`'
 0007E1 00                          7852                       DC    X'00'
 0007E2                007E2 007B7  7853                       ORG   CLTBL+C'|'
 0007B7 18                          7854                       DC    AL1(24)
 0007B8                007B8 007D7  7855                       ORG   CLTBL+C'?'
 0007D7 00                          7856                       DC    X'00'
 0007D8                007D8 007E5  7857                       ORG   CLTBL+C''''
 0007E5 08                          7858                       DC    AL1(8)
 0007E6                007E6 007E7  7859                       ORG   CLTBL+C'"'
 0007E7 0C                          7860                       DC    AL1(12)
 0007E8                007E8 007B5  7861                       ORG   CLTBL+C'('
 0007B5 10                          7862                       DC    AL1(16)
 0007B6                007B6 007C5  7863                       ORG   CLTBL+C')'
 0007C5 14                          7864                       DC    AL1(20)
 0007C6                007C6 007C9  7865                       ORG   CLTBL+C'/'
 0007C9 18                          7866                       DC    AL1(24)
 0007CA                007CA 007C7  7867                       ORG   CLTBL+C'~'          Add ~ to trt table
 0007C7 18                          7868                       DC    AL1(24)
 0007C8                007C8 007C4  7869                       ORG   CLTBL+C'*'
 0007C4 20                          7870                       DC    AL1(32)
 0007C5                007C5 00868  7871                       ORG
1OSCN     (OSCN7024) (12:50) (15MAR04) WYLBUR's Scanner                                                                     Page   30
0Current Usings:  (BASE,R7) (CP,R11) (CV,R12)
0Loc    Object Code    Addr1 Addr2  Stmt Lv Lineno    Source Statement           (Hibal 5, Asmedit 3.3)  HLASM R4.0  2004/03/15 12.50
+___    ______ ____    _____ _____  ____ __ ______    ______ _________
0                                   7873                       QLTORG
                                    7901              ¿þþþþþþþþþþþþþþþþþþþþþþþþþþþþþþþþþþþþþþþþþþþþþþþþþþþþþþþþþþþþþþþþþþþþþÜ
                                    7902              Ÿ                                                                     Ÿ
                                    7903              Ÿ   SCANTOK -- Routine to scan off the next token; bypassing          Ÿ
                                    7904              Ÿ     all the scanner's complicated rules and upper casing.           Ÿ
                                    7905              Ÿ                                                                     Ÿ
                                    7906              Ÿ     On exit, R15 (and cc):                                          Ÿ
                                    7907              Ÿ       R15   - 0: token returned; 4: no more text                    Ÿ
                                    7908              Ÿ       R1,R0 - token loc, len                                        Ÿ
                                    7909              Ÿ       (scan loc, len updated)                                       Ÿ
                                    7910              Ÿ                                                                     Ÿ
                                    7911              Ÿ       CPTOKEN  - 16 byte isolated token                             Ÿ
                                    7912              Ÿ       CPUPPTOK - 16 byte capitalized token                          Ÿ
                                    7913              Ÿ                                                                     Ÿ
                                                      ¾þþþþþþþþþþþþþþþþþþþþþþþþþþþþþþþþþþþþþþþþþþþþþþþþþþþþþþþþþþþþþþþþþþþþþ»
00008A4 50E0 D000/9028_      00000  7914              SCANTOK  XPROC (R2,LSR)
 DROP   BASE,R7
 USING  *,R7
 0008BE D20F BD28 C4D8 00D28 004D8  7957                       MVC   CPTOKEN,CVBLANKS
 0008C4 D20F BD38 C4D8 00D38 004D8  7958                       MVC   CPUPPTOK,CVBLANKS
                                    7959
 0008CA 4820 BCAC            00CAC  7960                       LH    R2,LEN
 0008CE 5830 BCA8            00CA8  7961                       L     R3,LOC              Get remaining len and addr
                                    7962                       ¿þþþþþþþþþþþþþþþþþþþþþþþþþþþþÜ
                                    7963                       Ÿ  Skip leading separators.  Ÿ
                                    7964                       ¾þþþþþþþþþþþþþþþþþþþþþþþþþþþþ»
                                    7965            C          WHILE ((R2,POS),AND,
 0008D2 1222/47D0 703C_                                              ((@R3,EQ,' '),OR,(@R3,EQ,','),OR,(@R3,EQ,'='))),BEGIN
 0008F0 5E30 71E2            00AA0  8024  1                      INCR R3
 0008F4 0620                        8027  1                      DECR R2
 0008F6 47F0 7014            008D2  8029                       END
                                    8034                       ¿þþþþþþþþþþþþþþþþþþþþþþþþþþþþÜ
                                    8035                       Ÿ  Scan off the next token.  Ÿ
                                    8036                       ¾þþþþþþþþþþþþþþþþþþþþþþþþþþþþ»
 0008FA 1222/47D0 709C              8037                       IF    (R2,POS),BEGIN      We have some text...
                                    8051  1                      ¿þþþþþþþþþþþþþþþþþþþþþþþþþþÜ
                                    8052  1                      Ÿ  Find ending separator.  Ÿ
                                    8053  1                      ¾þþþþþþþþþþþþþþþþþþþþþþþþþþ»
 000900 1813                        8054  1                      LR    R1,R3               Save start of token ptr
                                    8055  1
                                    8056  1         C            WHILE ((R2,POS),AND,
                                          1         C                  (@R3,NE,' '),AND,
 000902 1222/47D0 7064_                   1                            (@R3,NE,',')),BEGIN
 000918 5E30 71E2            00AA0  8100  2                        INCR R3
 00091C 0620                        8103  2                        DECR R2
 00091E 47F0 7044            00902  8105  1                      END
                                    8110  1
 000922 1803                        8111  1                      LR    R0,R3               Compute
 000924 1B01                        8112  1                      SR    R0,R1                 token length
                                    8113  1
 000926 4020 BCAC            00CAC  8114  1                      STH   R2,LEN
 00092A 5030 BCA8            00CA8  8115  1                      ST    R3,LOC              Update scanner info
                                    8116  1
1OSCN     (OSCN7024) (12:50) (15MAR04) WYLBUR's Scanner                                                                     Page   31
0Current Usings:  (*,R7) (CP,R11) (CV,R12)
0Loc    Object Code    Addr1 Addr2  Stmt Lv Lineno    Source Statement           (Hibal 5, Asmedit 3.3)  HLASM R4.0  2004/03/15 12.50
+___    ______ ____    _____ _____  ____ __ ______    ______ _________
000092E 1820                        8117  1                      LR    R2,R0
 000930 5920 71E6/47D0_      00AA4  8118  1                      CEIL  R2,L'CPTOKEN
 00093C 0620/1222/4740_             8137  1                      MOVE  R2,CPTOKEN,@R1      Save token
                                    8175  1
 000948 D20F BD38 BD28 00D38 00D28  8176  1                      MVC   CPUPPTOK,CPTOKEN    Copy it
 00094E 58F0 C8A8            008A8  8177  1                      L     R15,CVUPPTBL
 000952 DC0F BD38 F000 00D38 00000  8178  1                      TR    CPUPPTOK,@R15       Capitalized token
                                    8179  1
 000958 1BFF                        8180  1                      CLEAR R15                 Set A-ok RC
 00095A                             8184                       END
                                    8188                       ¿þþþþþþþþþþþþþþþþþþþþþþþþþÜ
                                    8189                       Ÿ  No more text to scan.  Ÿ
                                    8190                       ¾þþþþþþþþþþþþþþþþþþþþþþþþþ»
 00095A 70A0/47F0 70A8 0095A 008FE  8191                       ELSE  BEGIN               No more text...
 00095E 1B00/1B11                   8202  1                      CLEAR R0,R1               Null token
 000962 41F0 0004            00004  8208  1                      LA    R15,4               Set RC
 000966                             8209                       END
                                    8213
 000966 18D8/9828 D004_             8214                       PEND
 DROP   *,R7
 USING  BASE,R7
1OSCN     (OSCN7024) (12:50) (15MAR04) WYLBUR's Scanner                                                                     Page   32
0Current Usings:  (BASE,R7) (CP,R11) (CV,R12)
0Loc    Object Code    Addr1 Addr2  Stmt Lv Lineno    Source Statement           (Hibal 5, Asmedit 3.3)  HLASM R4.0  2004/03/15 12.50
+___    ______ ____    _____ _____  ____ __ ______    ______ _________
0                                   8242              ¿þþþþþþþþþþþþþþþþþþþþþþþþþþþþþþþþþþþþþþþþþþþþþþþþþþþþþþþþþþþþþþþþþþþþþÜ
                                    8243              Ÿ                                                                     Ÿ
                                    8244              Ÿ   SCANWTOK -- Routine to scan off the next token; bypassing         Ÿ
                                    8245              Ÿ     all the scanner's complicated rules and upper casing.           Ÿ
                                    8246              Ÿ                                                                     Ÿ
                                    8247              Ÿ     SCANWTOK will scan treat ";" as an end of line terminator       Ÿ
                                    8248              Ÿ     which is what Wylbur commands generally require.  If you        Ÿ
                                    8249              Ÿ     don't want this then use the SCANTOK routine.                   Ÿ
                                    8250              Ÿ                                                                     Ÿ
                                    8251              Ÿ     On exit, R15 (and cc):                                          Ÿ
                                    8252              Ÿ       R15   - 0: token returned; 4: no more text                    Ÿ
                                    8253              Ÿ       R1,R0 - token loc, len                                        Ÿ
                                    8254              Ÿ       (scan loc, len updated)                                       Ÿ
                                    8255              Ÿ                                                                     Ÿ
                                    8256              Ÿ       CPTOKEN  - 16 byte isolated token                             Ÿ
                                    8257              Ÿ       CPUPPTOK - 16 byte capitalized token                          Ÿ
                                    8258              Ÿ                                                                     Ÿ
                                                      ¾þþþþþþþþþþþþþþþþþþþþþþþþþþþþþþþþþþþþþþþþþþþþþþþþþþþþþþþþþþþþþþþþþþþþþ»
0000974 50E0 D000/9028_      00000  8259              SCANWTOK XPROC (R2,LSR)
 DROP   BASE,R7
 USING  *,R7
 00098E D20F BD28 C4D8 00D28 004D8  8302                       MVC   CPTOKEN,CVBLANKS
 000994 D20F BD38 C4D8 00D38 004D8  8303                       MVC   CPUPPTOK,CVBLANKS
                                    8304
 00099A 4820 BCAC            00CAC  8305                       LH    R2,LEN
 00099E 5830 BCA8            00CA8  8306                       L     R3,LOC              Get remaining len and addr
                                    8307                       ¿þþþþþþþþþþþþþþþþþþþþþþþþþþþþÜ
                                    8308                       Ÿ  Scan off the next token.  Ÿ
                                    8309                       ¾þþþþþþþþþþþþþþþþþþþþþþþþþþþþ»
 0009A2 1222/47D0 70BC              8310                       IF    (R2,POS),BEGIN      We have some text...
                                    8324  1                      ¿þþþþþþþþþþþþþþþþþþþþþþþþþþþþÜ
                                    8325  1                      Ÿ  Skip leading separators.  Ÿ
                                    8326  1                      ¾þþþþþþþþþþþþþþþþþþþþþþþþþþþþ»
                                    8327  1         C            WHILE ((R2,POS),AND,
 0009A8 1222/47D0 7042_                   1                            ((@R3,EQ,' '),OR,(@R3,EQ,','),OR,(@R3,EQ,'='))),BEGIN
 0009C6 5E30 7112            00AA0  8386  2                        INCR R3
 0009CA 0620                        8389  2                        DECR R2
 0009CC 47F0 701A            009A8  8391  1                      END
                                    8396  1                      ¿þþþþþþþþþþþþþþþþþþþþþþþþþþÜ
                                    8397  1                      Ÿ  Find ending separator.  Ÿ
                                    8398  1                      ¾þþþþþþþþþþþþþþþþþþþþþþþþþþ»
 0009D0 1813                        8399  1                      LR    R1,R3               Save start of token ptr
                                    8400  1
                                    8401  1         C            WHILE ((R2,POS),AND,
                                          1         C                  (@R3,NE,';'),AND,
                                          1         C                  (@R3,NE,' '),AND,
 0009D2 1222/47D0 706C_                   1                            (@R3,NE,',')),BEGIN
 0009F0 5E30 7112            00AA0  8458  2                        INCR R3
 0009F4 0620                        8461  2                        DECR R2
 0009F6 47F0 7044            009D2  8463  1                      END
                                    8468  1
 0009FA 1803                        8469  1                      LR    R0,R3               Compute
 0009FC 1B01                        8470  1                      SR    R0,R1                 token length
1OSCN     (OSCN7024) (12:50) (15MAR04) WYLBUR's Scanner                                                                     Page   33
0Current Usings:  (*,R7) (CP,R11) (CV,R12)
0Loc    Object Code    Addr1 Addr2  Stmt Lv Lineno    Source Statement           (Hibal 5, Asmedit 3.3)  HLASM R4.0  2004/03/15 12.50
+___    ______ ____    _____ _____  ____ __ ______    ______ _________
0                                   8471  1
 0009FE 4020 BCAC            00CAC  8472  1                      STH   R2,LEN
 000A02 5030 BCA8            00CA8  8473  1                      ST    R3,LOC              Update scanner info
                                    8474  1
 000A06 1820                        8475  1                      LR    R2,R0
 000A08 5920 7116/47D0_      00AA4  8476  1                      CEIL  R2,L'CPTOKEN
 000A14 0620/1222/4740_             8495  1                      MOVE  R2,CPTOKEN,@R1      Save token
                                    8533  1
 000A20 D20F BD38 BD28 00D38 00D28  8534  1                      MVC   CPUPPTOK,CPTOKEN    Copy it
 000A26 58F0 C8A8            008A8  8535  1                      L     R15,CVUPPTBL
 000A2A DC0F BD38 F000 00D38 00000  8536  1                      TR    CPUPPTOK,@R15       Capitalized token
                                    8537  1
 000A30 1BFF                        8538  1                      CLEAR R15                 Set A-ok RC
                                    8542  1                      ¿þþþþþþþþþþþþþþþþþþþþþþþþþþþþþþþþþþþþþþþþþþþþþþþþþþþþþþÜ
                                    8543  1                      Ÿ  Are we at the end of the line (at the semi-colon).  Ÿ
                                    8544  1                      ¾þþþþþþþþþþþþþþþþþþþþþþþþþþþþþþþþþþþþþþþþþþþþþþþþþþþþþþ»
 000A32 1222/47D0 70BC_             8545  1                      IF    ((R2,POS),AND,(@R3,EQ,';')),BEGIN  At ";"...
 000A40 1200/4770 70BC_             8574  2                        IF    (R0,Z),'LA R15,4'   Nothing left, set RC
 000A4A                             8594  1                      END
 000A4A                             8598                       END
                                    8602                       ¿þþþþþþþþþþþþþþþþþþþþþþþþþÜ
                                    8603                       Ÿ  No more text to scan.  Ÿ
                                    8604                       ¾þþþþþþþþþþþþþþþþþþþþþþþþþ»
 000A4A 70C0/47F0 70C8 00A4A 009A6  8605                       ELSE  BEGIN               No more text...
 000A4E 1B00/1B11                   8616  1                      CLEAR R0,R1               Null token
 000A52 41F0 0004            00004  8622  1                      LA    R15,4               Set RC
 000A56                             8623                       END
                                    8627
 000A56 18D8/9828 D004_             8628                       PEND
 DROP   *,R7
 USING  BASE,R7
1OSCN     (OSCN7024) (12:50) (15MAR04) WYLBUR's Scanner                                                                     Page   34
0Current Usings:  (BASE,R7) (CP,R11) (CV,R12)
0Loc    Object Code    Addr1 Addr2  Stmt Lv Lineno    Source Statement           (Hibal 5, Asmedit 3.3)  HLASM R4.0  2004/03/15 12.50
+___    ______ ____    _____ _____  ____ __ ______    ______ _________
0                                   8656              *
                                    8657              *   blank last token
                                    8658              *
 000A64 50E0 D000/90F8_      00000  8659              BLNKTOK  XENTER R15,R8,*
 DROP   BASE,R7
 USING  *,R7
 000A7E 9180 BCD0/47E0_00CD0        8681                       IF    CPSCNFLG.CPFSBLK,BEGIN   do if token blanking...
 000A86 5870 702A            00AA8  8697  1                      BASE  BASE
 DROP   *,R7
 USING  BASE,R7
 000A8A 4530 75A4            00618  8715  1                      BAL   R3,BLANKIT          Blank token
 000A8E                             8716                       END
 000A8E 18D8/58E0 D000_             8720                       XEXIT R15,R8
 DROP   BASE,R7                     8725                       DROP  BR
                                    8732
                                    8733                       QLTORG ,                  ,,, DEBUG OF DETRNG
1OSCN     (OSCN7024) (12:50) (15MAR04) WYLBUR's Scanner                                                                     Page   35
0Current Usings:  (CP,R11) (CV,R12)
0Loc    Object Code    Addr1 Addr2  Stmt Lv Lineno    Source Statement           (Hibal 5, Asmedit 3.3)  HLASM R4.0  2004/03/15 12.50
+___    ______ ____    _____ _____  ____ __ ______    ______ _________
0                                   8749                       VLTORG
 000AB8                00AB8 00AB8  8757                       END   .

1OSCN     (OSCN7024) (12:50) (15MAR04) Relocation Dictionary                                                                Page   36
-   Pos.Id   Rel.Id   Flags    Address                                                       HLASM R4.0  2004/03/15 12.50
0  00000001 00000001    0C    00000878
   00000001 00000001    0C    00000AA8
   00000001 00000002    1C    0000088C
   00000001 00000003    1C    00000890

1OSCN     (OSCN7024) (12:50) (15MAR04) Ordinary Symbol and Literal Cross Reference                                          Page   37
-Symbol   Length   Value     Id    R Type   Defn References                                  HLASM R4.0  2004/03/15 12.50
0$$$@R0        1 00000000 FFFFFFFE     J     705 1008
 $$$@R10       1 00000000 FFFFFFF4     J     835 1072
 $$$@R11       1 00000000 FFFFFFF3     J     848 1085
 $$$@R12       1 00000000 FFFFFFF2     J     861 1098
 $$$@R13       1 00000000 FFFFFFF1     J     874 1111
 $$$@R14       1 00000000 FFFFFFF0     J     887 1124
 $$$@R7        1 00000000 FFFFFFF7     J     796 1021
 $$$@R8        1 00000000 FFFFFFF6     J     809 1034  1046
 $$$@R9        1 00000000 FFFFFFF5     J     822 1059
 $$$C1WYLOSCN
               1 000008A4 00000001     J    7896 7898  8169  8527
 $$$C2WYLOSCN
               1 00000AB8 00000001     J    8743 8745
 $$$C3WYLOSCN
               1 00000AB8 00000001     J    8760 8762
 $$$D0WYLOSCN
               1 0000089D 00000001     J     993 6799
 $$$D1WYLOSCN
               1 00000AAC 00000001     J    7897 8158  8516
 $$$RCP        1 00000000 FFFFFFEB     J    2502 4762  6236  6236  6358
 $$$RCV        1 00000000 FFFFFFED     J    1227 2412  2412
 $$$RDEV       1 00000000 FFFFFFEA     J    4716 4761  4761
 $$$RNSCNCB
               1 00000000 FFFFFFEC     J    2423 2496  2496
 $$$RSA        1 00000000 FFFFFFEE     J    1165 1186  1186
 $$$RTTYPE
               1 00000000 FFFFFFE9     J    6247 6348  6348
 $$$SEGCB0
               4 00000050 FFFFFFEB     F    2533 2619  2619
 $$$100B       4 000008FC 00000001     I    8046 8193
 $$$100F       2 0000095A 00000001     H    8187 8046B 8192
 $$$101F       2 00000922 00000001     H    8109 8069B 8082B 8095B
 $$$101S       2 00000902 00000001     H    8061 8108B
 $$$105F       2 0000093C 00000001     H    8136 8127B
 $$$106F       2 00000948 00000001     H    8174 8150B
 $$$107        6 00000AAC 00000001     I    8164 8156X
 $$$108        6 00000AAC 00000001     I    8163 8164  8164
 $$$109E       2 0000095E 00000001     H    8200 8194
 $$$109F       2 00000966 00000001     H    8212 8196B
 $$$110        1 00000040 00000001 A   U    8238 8235  8237
 $$$112B       1 0000098E 00000001     X    8283 8293U
 $$$113B       4 000009A4 00000001     I    8319 8607
 $$$113F       2 00000A4A 00000001     H    8601 8319B 8606
 $$$114F       2 000009D0 00000001     H    8395 8340B 8381B
 $$$114S       2 000009A8 00000001     H    8332 8394B
 $$$114T       2 000009C6 00000001     H    8384 8357B 8370B
 $$$119F       2 000009FA 00000001     H    8467 8414B 8427B 8440B 8453B
 $$$119S       2 000009D2 00000001     H    8406 8466B
 $$$124F       2 00000A14 00000001     H    8494 8485B
 $$$125F       2 00000A20 00000001     H    8532 8508B
 $$$126        6 00000AB2 00000001     I    8522 8514X
 $$$127        6 00000AB2 00000001     I    8521 8522  8522
 $$$128F       2 00000A4A 00000001     H    8597 8556B 8569B
 $$$130F       2 00000A4A 00000001     H    8593 8583B
 $$$131E       2 00000A4E 00000001     H    8614 8608
1OSCN     (OSCN7024) (12:50) (15MAR04) Ordinary Symbol and Literal Cross Reference                                          Page   38
 $$$131F       2 00000A56 00000001     H    8626 8610B
 $$$132        1 00000040 00000001 A   U    8652 8649  8651
 $$$133B       1 00000A7E 00000001     X    8669 8679U
 $$$134F       2 00000A8E 00000001     H    8719 8692B
 $$$42B        1 00000074 00000001     X    6493 6500U
 $$$44F        2 000000EA 00000001     H    6577 6566B
 $$$50F        2 000002A8 00000001     H    6815 6784B
 $$$51         6 0000089E 00000001     I    6805 6797X
 $$$52         6 0000089E 00000001     I    6804 6805  6805
 $$$57F        2 000003A2 00000001     H    6945 6936B
 $$$58F        2 000003E4 00000001     H    6991 6975B
 $$$61F        2 000003F0 00000001     H    7012 7002B
 $$$63F        2 00000438 00000001     H    7078 7067B
 $$$63T        2 0000042C 00000001     H    7070 7056B
 $$$65F        2 00000446 00000001     H    7101 7091B
 $$$67B        1 00000472 00000001     X    7119 7129U
 $$$68B        1 000004A0 00000001     X    7165 7175U
 $$$69F        2 000004BE 00000001     H    7227 7217B
 $$$71F        2 000004DA 00000001     H    7269 7259B
 $$$72F        2 00000594 00000001     H    7388 7342B
 $$$72S        2 00000574 00000001     H    7336 7387B
 $$$80F        2 0000068A 00000001     H    7527 7518B
 $$$87B        4 00000700 00000001     I    7689 7717
 $$$87F        2 00000726 00000001     H    7712 7689B 7716
 $$$88B        4 0000072E 00000001     I    7734 7761
 $$$88E        2 0000072A 00000001     H    7724 7718
 $$$88F        2 0000074A 00000001     H    7757 7720B 7734B 7760
 $$$92E        2 0000074E 00000001     H    7768 7762
 $$$92F        2 00000750 00000001     H    7775 7764B
 $$$94B        1 000008BE 00000001     X    7938 7948U
 $$$95F        2 000008FA 00000001     H    8033 7978B 8019B
 $$$95S        2 000008D2 00000001     H    7970 8032B
 $$$95T        2 000008F0 00000001     H    8022 7995B 8008B
 @RAR          0 00000000 FFFFFFF0     @    1125 2210  2218B
 @R0           0 00000000 FFFFFFFE     @     706  982U
 @R1           0 00000000 FFFFFFFD     @     719  978U 2216  2217  6380  6594  6628  6756  6804M 7415  7417  7419  7453M
                                                 7462M 7462  7621  7633  7780  8163  8521
 @R10          0 00000000 FFFFFFF4     @     836  942U
 @R11          0 00000000 FFFFFFF3     @     849  938U
 @R12          0 00000000 FFFFFFF2     @     862  934U
 @R13          0 00000000 FFFFFFF1     @     875  930U 6486M 7104  7112M 7158M 7500  7706  7751  8661M
 @R14          0 00000000 FFFFFFF0     @     888  926U 6926
 @R15          0 00000000 FFFFFFEF     @     901  922U 7302  7640  8178  8536
 @R2           0 00000000 FFFFFFFC     @     732  974U 6731  6837  6839  6845  6850  6857  6859  6872  6874  6894  6903
                                                 6907  6959  7039  7066  7072  7090  7258  7264  7270  7278  7282  7437
                                                 7781
 @R3           0 00000000 FFFFFFFB     @     745  970U 6804  6861  7992  8005  8018  8081  8094  8354  8367  8380  8426
                                                 8439  8452  8568
 @R4           0 00000000 FFFFFFFA     @     758  966U 6873U
 @R5           0 00000000 FFFFFFF9     @     771  962U 6572
 @R6           0 00000000 FFFFFFF8     @     784  958U 6529  6531  6689  6712  7286  7300  7303  7359  7372  7409  7779
                                                 7782
 @R7           0 00000000 FFFFFFF7     @     797  954U 7126U 7144U 7172U 7190U 7945U 8224U 8290U 8638U 8676U 8710U 8730U
 @R8           0 00000000 FFFFFFF6     @     810  950U 7790U
 @R9           0 00000000 FFFFFFF5     @     823  946U
 ABSCENT       1 00000000 00000000 A   T    2226 2226
 ANYI          4 000004F8 00000001     I    7282 7279B
 ASCTBL        1 00000000 00000000 A   T    2234 2234
 ASTERISK      4 00000262 00000001     I    6752 6549B
1OSCN     (OSCN7024) (12:50) (15MAR04) Ordinary Symbol and Literal Cross Reference                                          Page   39
 BADSCAN       2 00000680 00000001     H    7508 6583B 7440B
 BASE          2 00000074 00000001     H    6505 7147U 7193U 7884  8227U 8641U 8713U 8742
 BLANKIT       4 00000618 00000001     I    7442 7152B 8715B
 BLKCOM        4 000000FE 00000001     I    6587 6542B
 BLNK          2 00000634 00000001     I    7451 7444B
 BLNKTOK       4 00000A64 00000001     I    8661 8660
 BLNMVC        6 0000064A 00000001     I    7462 7459X
 BLTBL         1 00000000 00000000 A   T    2236 2236
 BOO           2 000005FA 00000001     H    7431 7281B 7288B 7294B 7309B 7315B 7325B 7362B 7375B 7412B 7416B 7418B
 BR            7 00000007 00000001 A   #    1015 6490M 6500U 7116M 7129U 7162M 7175U 7933M 8278M 8666M 8679U
 CHECKIOB      1 00000000 00000000 A   T    2282 2282
 CHKBLNK       4 0000047A 00000001     I    7150 7031B
 CHKFR         4 00000562 00000001     I    7324 7307B
 CHKMR         4 00000522 00000001     I    7300 7304B
 CHNEXT        4 000005D6 00000001     I    7415 7420B
 CHPACK        6 00000762 00000001     I    7782 7425X
 CLC           6 0000075C 00000001     I    7781 6855X
 CLTBL         1 00000768 00000001     R    7796 7779  7797  7799  7801  7803  7805  7807  7809  7811  7813  7815  7817
                                                 7819  7821  7823  7825  7827  7829  7831  7833  7835  7837  7839  7841
                                                 7843  7845  7847  7849  7851  7853  7855  7857  7859  7861  7863  7865
                                                 7867  7869
 COMMAND       1 00000000 00000000 A   T    2222 2222
 COMMSEG       1 00000000 00000000 A   T    2223 2223
 COMPOK        2 00000300 00000001     I    6847 6844B
 CP         4096 00000000 FFFFFFEB     J    6236 1218U
 CP#XSTK       1 00000010 FFFFFFEB A   U    3968 3969
 CPACFLG       1 000005D5 FFFFFFEB     R    4071 4075  4080  4085  4090  4095
 CPACFLN       4 000005C4 FFFFFFEB     F    4063 4098  4098
 CPAFLAG       1 000005C3 FFFFFFEB     R    4035 4039  4044  4049  4054
 CPANAME       8 00000588 FFFFFFEB     C    4017 4113  4113
 CPAUTFLG      1 000008A9 FFFFFFEB     R    4381 4385  4390  4395  4400
 CPCHFLAG      1 00000B68 FFFFFFEB     R    5008 5012
 CPCMNM        3 00000D24 FFFFFFEB     C    5334 7097M
 CPDFLG        1 0000084C FFFFFFEB     R    4268 4272  4277  4282  4287  4292
 CPDFLG2       1 0000084D FFFFFFEB     R    4297 4301  4306  4311  4316  4321  4326
 CPDOUB        8 00000C88 FFFFFFEB     D    5254 7426  7782M
 CPEXFLG       1 00000758 FFFFFFEB     R    4137 4141
 CPEXFLG2      1 00000759 FFFFFFEB     R    4147 4156  4166
 CPEXFLG3      1 0000075A FFFFFFEB     R    4173 4177  4182
 CPEXTFLG      1 00000E28 FFFFFFEB     R    5819 5823  5828  5833  5838  5843  5848
 CPFABORT    128 00000D5A FFFFFFEB         5585 2186M 2186  2191M 2191
 CPFERROR     64 00000D5A FFFFFFEB         5590 2185M 2185  2190M 2190
 CPFGSBLK      1 00000002 FFFFFFEB A   U    5302 6972
 CPFNTEX       1 00000040 FFFFFFEB A   U    5437 5438
 CPFRDRNG      1 00000D88 FFFFFFEB     R    5705 5709  5714  5719  5724  5729  5734  5739
 CPFRDSRC      1 00000D89 FFFFFFEB     R    5744 5753  5763  5773
 CPFRTNER      1 00000040 FFFFFFEB A   U    5281 7538  7585  7731  7744
 CPFSBLK       1 00000080 FFFFFFEB A   U    5280 6985  7150  7442  8689
 CPFSCNAS      1 00000004 FFFFFFEB A   U    5301 6752
 CPFSNSEP     16 00000CD0 FFFFFFEB         5289 6647
 CPFSPRM       1 00000020 FFFFFFEB A   U    5282 6865  6900  7153  7445
 CPFSRETN    128 00000CD1 FFFFFFEB         5318 7558  7605  7688  7700M
 CPFSUPLO      8 00000CD0 FFFFFFEB         5298 6783
 CPFUNUM       1 00000080 FFFFFFEB A   U    5436 5438
 CPFXDFLG      1 000007E4 FFFFFFEB     R    4215 4219  4224
 CPGFLG1       1 00000474 FFFFFFEB     R    3578 3582  3587  3592  3597  3602  3932  3932
 CPGFLG10      1 0000047D FFFFFFEB     R    3815 3819  3824  3829  3834  3839  3844
 CPGFLG11      1 0000047E FFFFFFEB     R    3850 3854  3859
 CPGFLG12      1 0000047F FFFFFFEB     R    3865 3869  3874  3879
1OSCN     (OSCN7024) (12:50) (15MAR04) Ordinary Symbol and Literal Cross Reference                                          Page   40
 CPGFLG13      1 00000480 FFFFFFEB     R    3885 3889
 CPGFLG14      1 00000481 FFFFFFEB     R    3895 3899  3904  3909  3914  3919
 CPGFLG4       1 00000477 FFFFFFEB     R    3631 3642  3651  3660  3669  3678
 CPGFLG5       1 00000478 FFFFFFEB     R    3684 3688  3693  3698  3703  3708  3713  3718  3723
 CPGFLG6       1 00000479 FFFFFFEB     R    3729 3733  3738  3743
 CPGFLG7       1 0000047A FFFFFFEB     R    3749 3753  3758  3763  3768
 CPGFLG8       1 0000047B FFFFFFEB     R    3774 3778  3783  3788  3793
 CPGFLG9       1 0000047C FFFFFFEB     R    3799 3803  3809
 CPINIT        1 00000174 FFFFFFEB     U    2748 6205
 CPJESFLG      1 000009E1 FFFFFFEB     R    4480 4484  4489  4494  4499  4504  4509  4514  4519
 CPJESFLY      1 000009FD FFFFFFEB     R    4530 4534  4539  4544
 CPJESHFL      1 000009E0 FFFFFFEB     R    4465 4469  4474  4553  4553
 CPLFLG10      1 00000D59 FFFFFFEB     R    5571 5575
 CPLFLG11      1 00000D5A FFFFFFEB     R    5581 5585  5590  5595  5600
 CPLFLG12      1 00000D5B FFFFFFEB     R    5606 5610
 CPLFLG14      1 00000D5C FFFFFFEB     R    5616 5620  5625  5630  5635  5640
 CPLFLG6       1 00000D55 FFFFFFEB     R    5446 5450  5455  5460  5465  5470  5475
 CPLFLG7       1 00000D56 FFFFFFEB     R    5481 5485  5490  5495  5500  5505
 CPLFLG8       1 00000D57 FFFFFFEB     R    5511 5515  5520  5525  5530
 CPLFLG9       1 00000D58 FFFFFFEB     R    5536 5540  5545  5550  5555  5560  5565
 CPLOCALZ      1 00000C48 FFFFFFEB     U    5038 6199  6199
 CPLSTSCK      4 00000CCC FFFFFFEB     F    5274 6519M 6836M 7247  7493M
 CPMFLG        1 0000084F FFFFFFEB     R    4335 4339
 CPMODFLG      1 00000C78 FFFFFFEB     R    5066 5070  5075  5080  5085  5090
 CPNAMELN      1 00000010 FFFFFFEB A   U    3961 4208
 CPNEDPFX     10 00000E29 FFFFFFEB     X    5852 5853  5854
 CPNUMFLG      1 00000C79 FFFFFFEB     R    5096 5108
 CPORVCMD      1 00000140 FFFFFFEB     R    2630 2634  2639  2644  2649  2654  2659  2664  2669  2674  2674  2725  2725
 CPORVFLG      1 00000149 FFFFFFEB     R    2681 2685  2690  2695  2700  2705  2710  2715  2720
 CPORVWF       1 00000150 FFFFFFEB     R    2733 2737
 CPOSCAN     124 00000CA8 FFFFFFEB     X    5332 6359  6379M 6379  6508
 CPOSCANX      4 00000CA8 FFFFFFEB     F    5265 5332  5332
 CPR          11 0000000B 00000001 A   #    1079 1218U
 CPRACBAD     16 000001FC FFFFFFEB         2799 2833  2833  2834  2834
 CPRACF1       1 000001FC FFFFFFEB     R    2780 2784  2789  2794  2799  2804  2809  2814  2819  2835
 CPRACPSW     32 000001FC FFFFFFEB         2794 2832  2832  2834  2834
 CPRACUND     64 000001FC FFFFFFEB         2789 2832  2832  2833  2833
 CPRCVCUR      4 00000730 FFFFFFEB     A    4116 4118  4118
 CPRFLG        1 000008AA FFFFFFEB     R    4406 4410  4415  4420  4425  4430  4435
 CPS         254 00000344 FFFFFFEB     X    3550 3553  3554  3556  3556
 CPSACCT       5 000003B4 FFFFFFEB     C    3149 3312  3312
 CPSAMCOD      1 00000A22 FFFFFFEB     R    4602 4610  4620  4630  4639  4648  4657  4667  4676  4685
 CPSAMFLG      1 00000A21 FFFFFFEB     R    4562 4566  4571  4576  4581  4586  4591  4596  4707  4707
 CPSAVE        4 00000C9C FFFFFFEB     A    5259 7015M 7321  7406  7436  7443  7497M 7528M
 CPSCANBK      6 00000CC0 FFFFFFEB     X    5272 6508M
 CPSCNERT      4 00000CC8 FFFFFFEB     A    5273 7747
 CPSCNFLG      1 00000CD0 FFFFFFEB     R    5278 5289  5298  5309  6752  6865M 6885  6900M 6974  6987M 7001  7053  7150
                                                 7153M 7442M 7445  7540  7587  7733  7746M 8691
 CPSCNF2       1 00000CD1 FFFFFFEB     R    5314 5318
 CPSCNKLC      4 00000D48 FFFFFFEB     F    5340 6898M 7447  7574
 CPSCNKLN      4 00000D4C FFFFFFEB     F    5341 6899M 7448  7575
 CPSCNKW       8 00000CAE FFFFFFEB     C    5268 7701M
 CPSCNMAX      1 00000014 FFFFFFEB A   U    5330 5331  7883
 CPSCNSTK      4 00000CD4 FFFFFFEB     F    5331 6947M 6956
 CPSCRI        2 00000434 FFFFFFEB     H    3539 3544  3544
 CPSEG        60 00000050 FFFFFFEB     X    2619 7648  7666
 CPSEGCOD      1 00000050 FFFFFFEB     R    2536 2545  2555  2565  2575  2585  2595  2605
 CPSFL         1 00000384 FFFFFFEB     R    2887 2891  2896  2901  2906  2911
 CPSFLG        1 000003F8 FFFFFFEB     R    3427 3431  3436  3441  3446  3451  3456  3461  3466
1OSCN     (OSCN7024) (12:50) (15MAR04) Ordinary Symbol and Literal Cross Reference                                          Page   41
 CPSFLG2       1 000003F9 FFFFFFEB     R    3472 3476  3481  3486
 CPSFL2        1 00000385 FFFFFFEB     R    2917 2921  2926  2931  2936
 CPSFL3        1 00000386 FFFFFFEB     R    2942 2946  2951  2956
 CPSFL4        1 00000387 FFFFFFEB     R    2962 2966  2971  2976
 CPSFL5        1 00000388 FFFFFFEB     R    2982 2986  2991  2996
 CPSKAFL       1 000003BF FFFFFFEB     R    3283 3287  3292  3297  3302  3307
 CPSKIFL       1 000003BE FFFFFFEB     R    3238 3242  3247  3252  3257  3262  3267  3272  3277
 CPSOF         1 000001F8 FFFFFFEB     X    2770 2772  2772
 CPSOFLAG      1 00000416 FFFFFFEB     R    3497 3501  3506  3511  3516  3521
 CPSOPST       4 000003C4 FFFFFFEB     F    3317 3546  3546
 CPSPORT       8 00000354 FFFFFFEB     C    2881 3001  3001
 CPSQFLG       1 000003EC FFFFFFEB     R    3346 3350
 CPSSFLG       1 000003BB FFFFFFEB     R    3156 3160  3165  3170  3175  3180  3185
 CPSSTART      4 00000344 FFFFFFEB     F    2873 2877  2877  3313  3313  3418  3418  3550  3550
 CPSSTAT       1 0000038F FFFFFFEB     R    3093 3097  3102  3107  3112  3117  3122  3127
 CPSTACF       1 000003BC FFFFFFEB     R    3191 3195  3200  3205  3210  3215  3220  3225  3230
 CPSTART       4 00000000 FFFFFFEB     C    2509 6203  6207
 CPSTFLAG      1 000003EA FFFFFFEB     R    3324 3328  3333  3338
 CPSTYPE       1 0000038C FFFFFFEB     R    3006 3015  3025  3035  3045  3055  3065  3075  3085
 CPSUFLG       1 000003EE FFFFFFEB     R    3361 3365  3370  3375  3380  3385  3390  3395  3400
 CPSUFLG2      1 000003EF FFFFFFEB     R    3406 3410  3415
 CPSVPGM       8 0000039C FFFFFFEB     C    3139 3145  3145
 CPS1ST        4 0000038C FFFFFFEB     F    3003 3548  3548
 CPTEMPP#      1 0000005F FFFFFFEB A   U    4456 4458
 CPTOKEN      16 00000D28 FFFFFFEB     C    5337 7957M 8163M 8176  8302M 8521M 8534  8741
 CPTRMFL1      1 00000C7A FFFFFFEB     R    5114 5118  5123  5128  5252  5252
 CPTRMFL2      1 00000C7B FFFFFFEB     R    5134 5138  5143  5148  5153  5158  5163
 CPTRMFL3      1 00000C7C FFFFFFEB     R    5169 5173  5178  5183  5188  5193  5198  5203
 CPTRMFL4      1 00000C7D FFFFFFEB     R    5209 5213  5218  5223  5228  5233  5238  5243
 CPUPPTOK     16 00000D38 FFFFFFEB     C    5338 7958M 8176M 8178M 8303M 8534M 8536M
 CPUSED        1 00000FBC FFFFFFEB A   U    6203 6204
 CPVACURS      8 00000AF0 FFFFFFEB     D    4981 4982  4983
 CPVCURS       8 00000AE0 FFFFFFEB     D    4975 4976  4977
 CPVFLAG       1 00000AC8 FFFFFFEB     R    4776 4780  4785  4790  4795  4800
 CPVFLAG2      1 00000AC9 FFFFFFEB     R    4806 4810  4815  4820  4825  4830  4835
 CPVFLAG3      1 00000ACA FFFFFFEB     R    4841 4845  4850  4855  4860  4865  4870
 CPVFLAG4      1 00000ACB FFFFFFEB     R    4876 4880  4885  4890
 CPVLFLAG      1 00000ACE FFFFFFEB     R    4945 4949  4954  4959
 CPVMODE       1 00000ACC FFFFFFEB     R    4898 4902  4907  4912  4917  4922  4927  4932  4937
 CPVTWID       2 00000AD0 FFFFFFEB     H    4965 4968  4968
 CPWK1         4 00000D60 FFFFFFEB     F    5649 5664  5687
 CPWK2         4 00000D64 FFFFFFEB     F    5650 5665  5679
 CPWK3         4 00000D68 FFFFFFEB     F    5651 5666  5680
 CPWK4         4 00000D6C FFFFFFEB     F    5652 5667  5681
 CPWK5         4 00000D70 FFFFFFEB     F    5653 5669  5674  5682
 CPWK6         4 00000D74 FFFFFFEB     F    5654 5670  5675  5683  5690  5692
 CPWK7         4 00000D78 FFFFFFEB     F    5655 5668  5684
 CPXFLAG       1 000007FD FFFFFFEB     R    4243 4247
 CPXSTATE      4 000007F8 FFFFFFEB     F    4237 4250  4250
 CSQ           2 00000186 00000001     I    6675 6667B 6704B
 CSQETST       4 000001A4 00000001     I    6686 6678B 6680B
 CV         4016 00000000 FFFFFFED     J    2412 1158U
 CVABSENT      4 000007F0 FFFFFFED     I    2201 7617B 7671B
 CVABSRTN      4 0000088C FFFFFFED     V    2226 2201
 CVBLANKS    235 000004D8 FFFFFFED     C    2006 6764  7494  7701  7957  7958  8302  8303
 CVBRMSK       1 00000751 FFFFFFED     X    2142 2143  2144
 CVCFLAG       1 00000A00 FFFFFFED     R    2307 2311  2316  2321  2326  2331
 CVCHKST       8 000009F0 FFFFFFED     D    2297 2387  2387
 CVCHKST2      8 00000E28 FFFFFFED     D    2390 2393  2393
1OSCN     (OSCN7024) (12:50) (15MAR04) Ordinary Symbol and Literal Cross Reference                                          Page   42
 CVCOMRTN      4 0000087C FFFFFFED     V    2222 2192
 CVDBGFLG      1 000004CC FFFFFFED     R    1996 2000
 CVENT         4 0000074C FFFFFFED     I    2140 6490B 7116B 7162B 7933B 8278B 8666B
 CVENTBR       2 00000750 FFFFFFED     I    2141 2142
 CVERROR       4 000007D6 FFFFFFED     I    2190 2206B
 CVEXIRTN      4 0000077C FFFFFFED     V    2170 2166
 CVFCHRKBPR
               8 000004C9 FFFFFFED         1911 1927  1927
 CVFCHRKBSE
               4 000004C9 FFFFFFED         1916 1927  1927
 CVFCHRKCPR
               2 000004C9 FFFFFFED         1933 1949  1949
 CVFCHRKCSE
               1 000004C9 FFFFFFED         1938 1949  1949
 CVFCHRUBPR
             128 000004C9 FFFFFFED         1867 1883  1883
 CVFCHRUBSE
              64 000004C9 FFFFFFED         1872 1883  1883
 CVFCHRUCPR
              32 000004C9 FFFFFFED         1889 1905  1905
 CVFCHRUCSE
              16 000004C9 FFFFFFED         1894 1905  1905
 CVFL          1 000004C4 FFFFFFED     R    1663 1667  1672  1677  1682  1687  1692  1697  1702
 CVFL2         1 000004C5 FFFFFFED     R    1708 1712  1717  1722  1727  1732  1737  1742  1747
 CVFL3         1 000004C6 FFFFFFED     R    1753 1757  1762  1767  1772  1777  1782  1787  1792
 CVFL4         1 000004C7 FFFFFFED     R    1798 1802  1807  1812  1817  1822  1827  1832
 CVFL5         1 000004C8 FFFFFFED     R    1838 1842  1847  1852  1857
 CVFL6         1 000004C9 FFFFFFED     R    1863 1867  1872  1884  1889  1894  1906  1911  1916  1928  1933  1938  1950
 CVFOUR        4 000004D4 FFFFFFED     F    2005 7707
 CVHEAP#       1 00000200 FFFFFFED A   U    1569 1570
 CVINVRTN      4 00000888 FFFFFFED     V    2225 2195
 CVJESFLG      1 000004CA FFFFFFED     R    1956 1960
 CVLNKRGS      4 00000780 FFFFFFED     F    2172 2147M 2173
 CVLNKRTN      4 000007B0 FFFFFFED     U    2173 2162M
 CVLOCK1       1 00000088 FFFFFFED     R    1314 1318  1323
 CVLOCK2       1 00000089 FFFFFFED     R    1328 1332
 CVLOCK3       1 0000008A FFFFFFED     R    1337 1341
 CVLOCK4       1 0000008B FFFFFFED     R    1346 1350
 CVLOGMOD      1 00000068 FFFFFFED     R    1301 1305
 CVMACH        1 00000067 FFFFFFED     R    1261 1265  1270  1275  1280  1285  1290  1295
 CVMILRTN      4 00000884 FFFFFFED     V    2224 2204
 CVNOARTN      4 00000890 FFFFFFED     V    2227 2198
 CVNVALID      4 000007E4 FFFFFFED     I    2195 7567B
 CVNWDATE      4 00000608 FFFFFFED     F    2029 2033  2033
 CVNWMPG#      1 00000008 FFFFFFED A   U    2031 2032
 CVONE         4 000004D0 FFFFFFED     F    2004 6532  7707
 CVPFXRTN      1 00000000 00000000 A   T    2170 2170
 CVPGFLAG      1 00000A01 FFFFFFED     R    2337 2341  2346  2351
 CVPIOSZ       1 00004F80 FFFFFFED A   U    1400 1402
 CVPPDBQH      4 0000009C FFFFFFED     A    1358 1359
 CVPSFNO       1 000003E9 FFFFFFED A   N    1522 1524
 CVPSLNO       1 000007CF FFFFFFED A   N    1523 1524
 CVPXSZ        1 00000008 FFFFFFED A   U    1401 1402
 CVR          12 0000000C 00000001 A   #    1092 1158U
 CVRKEY        1 00000008 FFFFFFED A   U    2095 2096
 CVSEGRTN      4 00000880 FFFFFFED     V    2223 2187
 CVSTACK#      1 00000080 FFFFFFED A   U    1561 1562
 CVSTART       4 00000000 FFFFFFED     C    1234 2405
 CVTRC         4 00000768 FFFFFFED     I    2162 2148B
1OSCN     (OSCN7024) (12:50) (15MAR04) Ordinary Symbol and Literal Cross Reference                                          Page   43
 CVTRCRTN      4 00000778 FFFFFFED     V    2169 2163
 CVUPPTBL      4 000008A8 FFFFFFED     V    2232 6791  8177  8535
 CVUSFNO       1 00000001 FFFFFFED A   N    1529 1531
 CVUSLNO       1 000003E7 FFFFFFED A   N    1530 1531
 CVVOL#        1 00000005 FFFFFFED A   U    2380 2381
 CVWTOFLG      1 000004CB FFFFFFED     R    1966 1970  1975  1980  1985  1990
 DEBUGSG       1 00000000 00000000 A   T    2123 2123
 DEV          12 00000000 FFFFFFEA     J    4761 4769
 DEVMAX#       1 00000002 FFFFFFEB A   U    4712 4769
 DEVTYPE       1 00000001 FFFFFFEA     R    4729 4738  4748
 DOCOMP        4 0000031A 00000001     I    6855 6849B
 DOINT         4 000005CA 00000001     I    7411 7277B 7317B 7401B
 DONE          2 00000650 00000001     H    7467 6573B
 DONETST       2 000000DA 00000001     H    6555 6533B
 DOTTBL        1 00000000 00000000 A   T    2239 2239
 DQUOTE        4 000001CA 00000001     I    6701 6544B
 DQUOTE1       4 000001EA 00000001     I    6709 6706B
 DRENCFLG      1 00000F9F FFFFFFEB     R    6167 6171  6176  6181  6186  6191
 DRENPROT      1 00000F9E FFFFFFEB     R    6154 6162
 DSNON        40 00000E90 FFFFFFEB     C    5887 5888
 DSNWADSN     44 00000E5C FFFFFFEB     C    5874 5875  5876  5877  5886  5894  6125  6131  6133  6139  6142  6144  6147
                                                 6196
 DSNWAF4       1 00000F37 FFFFFFEB     R    5942 5946  5951  5956  5961  5966  5971  5976  5981
 DSNWAF5       1 00000F38 FFFFFFEB     R    5987 5991  5996  6001  6006  6011  6016  6021  6026
 DSNWAF6       1 00000F39 FFFFFFEB     R    6032 6036  6041  6046  6051  6056  6061  6066  6071
 DSNWAF7       1 00000F3A FFFFFFEB     R    6077 6081  6086  6091  6096
 DSNXG         1 00000004 FFFFFFEB A   U    5879 5881
 DSNXGL        1 00000003 FFFFFFEB A   U    5880 5881
 DSNXU         1 00000007 FFFFFFEB A   U    5881 5883
 DSNXUL        1 00000004 FFFFFFEB A   U    5882 5883
 DSSIZ         1 00000108 FFFFFFEB A   U    6125 6133  6142  6147
 EBCTBL        1 00000000 00000000 A   T    2235 2235
 EBCTBL7       1 00000000 00000000 A   T    2238 2238
 ECBLIST       1 00000000 00000000 A   T    2098 2098
 EOS           4 000000EA 00000001     I    6578 6541B
 EPARTBL       1 00000000 00000000 A   T    2230 2230
 ERREXIT       2 000006FC 00000001     H    7677 7543B 7561B 7590B 7608B
 ESTR          4 000001F2 00000001     I    6712 6687B 6750B
 FABBREV       1 00000008 00000001 A   U    1198 6850
 FCMSET        1 00000010 00000001 A   U    1196 7088
 FDQS          1 00000040 FFFFFFEE A   U    1178 6578  6587  6611  6636  6664  6688  6703  6709  6719  6737  6772  6841
                                                 6864
 FINTEG        1 00000040 00000001 A   U    1194 6859
 FINTEGP       1 00000020 00000001 A   U    1195 6859  7278
 FL            1 0000003E FFFFFFEE     X    1176 6526M 6578  6587  6616  6636  6664  6666  6668  6672M 6686  6688M 6701
                                                 6703  6705  6709M 6719  6721  6725M 6737  6739  6772  6841  6864M 7201M
 FLAST         1 000000FF 00000001 A   U    1191 7039
 FLIMIT        1 00000010 00000001 A   U    1197 6857  7282
 FLINNO        1 00000060 00000001 A   U    1193 7072
 FPARM         1 00000080 00000001 A   U    1192 6894  7437
 FPS           1 00000020 FFFFFFEE A   U    1179 6578  6587  6614  6636  6668  6686  6705  6721  6725  6739  6772  6841
                                                 6864
 FSQS          1 00000080 FFFFFFEE A   U    1177 6578  6587  6608  6636  6666  6672  6688  6701  6719  6737  6772  6841
                                                 6864
 FTBLE         1 000000F8 00000001 A   U    1190 6837  6874  6903
 GOPOP         4 000003B0 00000001     I    6952 6905B
 GORTN         4 000003D4 00000001     I    6963 6832B 6888B 6895B 6904B
 GOSCAN        6 0000007C 00000001     I    6508 6963  7149
 GOSTRING      2 0000026A 00000001     I    6754 6588B 6619B 6637B 6650B 6665B 6673B 6702B 6710B 6720B 6728B 6733B 6738B
1OSCN     (OSCN7024) (12:50) (15MAR04) Ordinary Symbol and Literal Cross Reference                                          Page   44
                                                 6746B
 HIBAL         1 00000000 FFFFFFFF     J     691  707   720   733   746   759   772   785   798   811   824   837   850
                                                  863   876   889   902
 HVPRD         4 0000053A 00000001     I    7307 7301B
 ILLSTR        2 000000F2 00000001     I    6580 6740B
 INP           4 00000228 00000001     I    6730 6722B
 INTGRCV       4 000004E6 00000001     I    7277 7074B
 INVALID       1 00000000 00000000 A   T    2225 2225
 KW            8 00000CAE FFFFFFEB     C    6362 6764M 7097  7102  7494M 7499  7780M 7781
 KWFND         4 0000033A 00000001     I    6864 6838B 6846B 6856B
 KWNEX         4 000002D2 00000001     I    6835 6858B 6860B 7272B
 KWSRCH        4 000002D6 00000001     I    6836 6830B 6862B 6919B 6949B 6957B 6960B 7265B
 LEN           2 00000CAC FFFFFFEB     H    6361 6382M 6392M 6400  6413  6430M 6430  6509  7013M 7203  7434  7495M 7960
                                                 8114M 8305  8472M
 LINNOCV       4 00000516 00000001     I    7293 7073B
 LOC           4 00000CA8 FFFFFFEB     F    6360 6381M 6391M 6401  6414  6510  6530M 6565  6581  6590  6630  6656  6670
                                                 6695  6707  6714  6723  6762  7014M 7202  7435  7496M 7961  8115M 8306
                                                 8473M
 LOWTBL        1 00000000 00000000 A   T    2233 2233
 LPAR          4 00000200 00000001     I    6719 6545B
 LSR           8 00000008 00000001 A   #    1040 7928  8235M 8273  8649M
 MILERR        1 00000000 00000000 A   T    2224 2224
 MVFR          6 000005C4 00000001     I    7409 7397X
 MVT           6 00000756 00000001     I    7780 6823X
 NBLTBL        1 00000000 00000000 A   T    2237 2237
 NOACTION      1 00000000 00000000 A   T    2227 2227
 NOPARM        2 000006A2 00000001     H    7573 7479B
 NOTKWPS       2 0000044A 00000001     I    7103 7322B
 NPARTBL       1 00000000 00000000 A   T    2231 2231
 NSCNCB      176 00000000 FFFFFFEC     J    2496 2622
 NSCNFLGS      1 00000008 FFFFFFEC     R    2433 2437  2442
 NSCNTYPE      1 00000018 FFFFFFEC     R    2451 2455  2460  2465  2470  2475
 NTCMV         4 00000446 00000001     I    7102 7038B 7040B
 NTRSET        2 00000558 00000001     I    7320 7283B 7287B 7403B
 NXTRY         4 00000322 00000001     I    6857 6842B 6848B 6851B 6853B 7439B
 NXTRY1        4 000003C8 00000001     I    6959 6954B
 OSCN7024      1 00000000 00000001     R    1138 1136
 PCNT          2 0000003C FFFFFFEE     H    1175 6727M 6730  6732M 6741  6744M
 PREND         2 00000106 00000001     I    6589 6579B
 PREVTOK       2 000001B8 00000001     I    6692 6657B 6671B 6708B 6724B
 PRKW          2 000002BA 00000001     I    6824 6773B
 PRT           4 00000CBC FFFFFFEB     F    6365 6507M 6828
 PRTSTACK      2 00000CB6 FFFFFFEB     H    6363 6771M 6771  6925  6946M 6952  6955M
 RA            4 00000CB8 FFFFFFEB     F    6364 6431  6506M 6831  7008  7498  7702
 RAR          14 0000000E 00000001 A   #    1118 2162  2163M 2164B 2166M 2167B 2187M 2188B 2192M 2193B 2195M 2196B 2198M
                                                 2199B 2201M 2202B 2204M 2205M 2205B 2211  6383B 6393B 6402B 6416B 6418B
                                                 6431M 6433B 6506  7106M 7107M 7109M 7109B 7277M 7317M 7401M 7427B 7498M
                                                 7502B 7651M 7652M 7652B 7669M 7670M 7670B 7702M 7704M 7705M 7708M 7708B
                                                 7747M 7749M 7750M 7753M 7753B 7925  8237M 8240B 8270  8651M 8654B
 RESCAN        4 000000A0 00000001     I    6531 6527B 6684B 6690B 6757B
 RESCANB       4 00000098 00000001     I    6529 6591B 6631B
 RESCANC       4 0000009C 00000001     I    6530 6901B
 RPAR          4 00000238 00000001     I    6737 6546B
 RTN           2 00000656 00000001     H    7488 7241B
 R0            0 00000000 FFFFFFFF A   #     699 2147  2216M 6382  6392  6400M 6413M 6415M 6415  6417M 6417  6580M 6582M
                                                 6589M 6590M 6629M 6630M 6658M 6696M 6713M 6714M 6763  6789  6792  6852
                                                 6899  7015  7108M 7108  7204  7238M 7238  7280M 7280  7284  7293  7304M
                                                 7307M 7308M 7314  7318M 7319M 7320  7321M 7324  7326  7329M 7341M 7341
                                                 7382M 7389M 7392  7398M 7404  7405M 7411  7413  7420M 7426M 7436M 7443M
1OSCN     (OSCN7024) (12:50) (15MAR04) Ordinary Symbol and Literal Cross Reference                                          Page   45
                                                 7448M 7451  7490M 7490  7493  7497  7501M 7501  7517M 7517  7523M 7528
                                                 7575M 7640M 7658M 7752M 7752  8111M 8112M 8117  8205M 8205  8469M 8470M
                                                 8475  8582M 8582  8619M 8619
 R1            1 00000001 FFFFFFFF A   #     712 2210M 2211M 2217M 6380M 6381  6391  6401M 6414M 6507  6531M 6580  6581M
                                                 6582  6589  6592  6625  6629  6656  6670  6676  6677  6692  6694  6695M
                                                 6696  6707  6723  6747  6749  6754  6762M 6790  6898  7015  7321M 7399M
                                                 7406M 7414  7419M 7436M 7443M 7447M 7492M 7492  7497  7528  7574M 7615M
                                                 7616M 7616  7619M 7620M 7633M 7657M 8054M 8112  8207M 8207  8399M 8470
                                                 8621M 8621
 R12          12 0000000C FFFFFFFF A   #     855 2173  6488  7104M 7114  7160  7500M 7706M 7751M
 R14          14 0000000E FFFFFFFF A   #     881 2148M 6486  6925M 6926M 6929  6941M 6946  6947  6952M 6953M 6955  6956
                                                 6963M 7103M 7112  7149M 7151B 7154B 7158  7326M 7389  7392M 7395M 7397
                                                 8661
 R15          15 0000000F FFFFFFFF A   #     894 2147  6432M 6432  6763M 6816  6818M 6821M 6823  6847  6855  7016  7102M
                                                 7204M 7216  7223M 7229M 7298M 7298  7302M 7308  7313M 7313  7319  7320M
                                                 7402  7404M 7438M 7451M 7454M 7457M 7459  7499M 7621M 7622M 7648M 7666M
                                                 8177M 8183M 8183  8208M 8239M 8239  8535M 8541M 8541  8589M 8622M 8653M
                                                 8653  8663  8665  8665  8665  8723M
 R2            2 00000002 FFFFFFFF A   #     725 6488  6537M 6537  6540B 6726M 6727  6730M 6731M 6732  6741M 6743M 6744
                                                 6745M 6745  6789M 6792M 6795M 6797  6828M 6829M 6829  6835M 6835  6836
                                                 6861M 6861  6897  6907M 6947  6948M 6956M 6959M 6962M 7037M 7037  7104M
                                                 7114  7160  7247M 7264M 7285  7444M 7449M 7452B 7455B 7460B 7500M 7706M
                                                 7751M 7928  7960M 7977M 7977  8028M 8045M 8045  8068M 8068  8104M 8114
                                                 8117M 8120  8132M 8140M 8149M 8149  8156  8235M 8273  8305M 8318M 8318
                                                 8339M 8339  8390M 8413M 8413  8462M 8472  8475M 8478  8490M 8498M 8507M
                                                 8507  8514  8555M 8555  8649M
 R3            3 00000003 FFFFFFFF A   #     738 6790M 6791M 6835  6839M 6840M 6843M 6843  6847  6897  6962M 7152M 7270M
                                                 7271M 7285  7446B 7449  7961M 8026M 8054  8102M 8111  8115  8306M 8388M
                                                 8399  8460M 8469  8473  8715M
 R4            4 00000004 FFFFFFFF A   #     751 6514M 6514  6824M 6824  6831M 6872M 6896M 6916M 6916  6948  7008M 7018M
                                                 7019M 7028M 7028  7103  7433M 7433  7476M 7476
 R5            5 00000005 FFFFFFFF A   #     764 6509M 6531  6532M 6539  6572M 6592M 6593M 6625M 6626M 6627M 6627  6675M
                                                 6677M 6682M 6693M 6693  6747M 6748M 6754M 6755M 7013  7203M 7327M 7390
                                                 7402M 7405  7413M 7423M 7425  7434M 7495
 R6            6 00000006 FFFFFFFF A   #     777 6510M 6529M 6530  6565  6593  6594M 6626  6628M 6659M 6675  6676M 6679
                                                 6679  6683M 6683  6689M 6692M 6693  6694M 6712M 6713  6748  6749M 6755
                                                 6756M 7014  7202M 7285M 7299M 7303M 7327  7330M 7330  7383M 7383  7390M
                                                 7414M 7435M 7496
 R7            7 00000007 FFFFFFFF A   #     790 2140M 2140  2141B 2153B
 R8            8 00000008 FFFFFFFF A   #     803 6489M 7115M 7161M 8663  8664M 8665  8665  8665  8723M
 SA           63 00000000 FFFFFFEE     J    1186 1149U
 SCAN          4 0000005E 00000001     I    6486 6485
 SCANTOK       2 000008A4 00000001     H    7919 7915
 SCANWTOK      2 00000974 00000001     H    8264 8260
 SCDONE        2 00000050 00000001     H    6425 6422
 SCINFO        2 00000040 00000001     H    6412 6410
 SCINIT        2 00000018 00000001     H    6374 6371
 SCNCON        4 0000045C 00000001     I    7112 7111
 SCNRES        4 0000048A 00000001     I    7158 7157
 SCSET         2 0000002C 00000001     H    6390 6388
 SCTELL        2 00000036 00000001     H    6399 6397
 SDSNQSZ       1 0000002C FFFFFFEB A   U    6128 6129  6130
 SEG           1 00000000 00000002     T    7889 7889
 SEGB          1 00000000 00000003     T    7890 7890
 SEMI          2 0000011C 00000001     H    6601 6548B
 SETSR         4 000003D0 00000001     I    6962 6825B
 SLASH         4 0000013C 00000001     I    6636 6547B 6753B
 SPR          13 0000000D 00000001 A   #    1105 7925  7928  7929  7930M 7930  8231M 8235  8237  8270  8273  8274  8275M
                                                 8275  8645M 8649  8651
1OSCN     (OSCN7024) (12:50) (15MAR04) Ordinary Symbol and Literal Cross Reference                                          Page   46
 SQUOTE        4 0000015E 00000001     I    6664 6543B
 SQUOTE1       4 0000017E 00000001     I    6672 6669B
 SV15          4 00000038 FFFFFFEE     F    1174 7016M 7438
 TOKEN         4 00000276 00000001     I    6762 6595B 6632B 6660B 6697B 6715B
 TRC           1 00000000 00000000 A   T    2169 2169
 TRT           6 00000750 00000001     I    7779 6539X
 TSTLAST       4 00000378 00000001     I    6903 6875B
 TTYFLAG       1 00000004 FFFFFFE9     R    6257 6261
 TTYMAX#       1 00000006 FFFFFFE9 A   U    6313 6314
 TTYTFLAG      1 00000005 FFFFFFE9     R    6267 6271  6276  6281  6286  6291  6296  6301
 UPPTBL        1 00000000 00000000 A   T    2232 2232
 WAR           8 00000008 00000001 A   #    1028 1149U 7929M 8231  8274M 8645
 WHOL          2 0000053E 00000001     I    7308 7305B
 WHOLDO        4 00000546 00000001     I    7314 7407B
 WORD          4 00000030 FFFFFFEE     F    1173 6897M 6962  7284M 7286  7391M 7399  7409M 7615
 WTOSG         1 00000000 00000000 A   T    2129 2129
 WYLOSCN       1 00000000 00000001     J     992  994  1010  1023  1036  1048  1061  1074  1087  1100  1113  1126  1187
                                                 2413  2497  6237  6349  6353  6368  6810
 =A(BASE)      4 00000878 00000001     A    7884 7135  7181
 =A(BASE)      4 00000AA8 00000001     A    8742 8701
 =A(CPSCNMAX*4)
               4 00000874 00000001     A    7883 6929  6941
 =A(L'CPTOKEN)
               4 00000AA4 00000001     A    8741 8120  8132  8478  8490
 =A(X'7F000000')
               4 00000870 00000001     A    7882 6896
 =A(1)         4 00000AA0 00000001     A    8740 8026  8102  8388  8460
 =A(14)        4 0000087C 00000001     A    7885 7293
 =A(5)         4 00000880 00000001     A    7886 7314
 =A(7)         4 0000086C 00000001     A    7881 6840  7271
 =A(8)         4 00000868 00000001     A    7880 6816  7216
 =A(9)         4 00000884 00000001     A    7887 7324  7411
 =C':'         1 0000089C 00000001     C    7895 7657
 =C'00'        2 0000089A 00000001     C    7894 7391
 =F'7'         4 00000888 00000001     F    7888 7622
 =H'1000'      2 00000898 00000001     H    7893 7318
 =H'4'         2 00000896 00000001     H    7892 6953
 =V(SEG)       4 0000088C 00000001     V    7889 7651
 =V(SEGB)      4 00000890 00000001     V    7890 7669
 =Y(3)         2 00000894 00000001     Y    7891 6852

1OSCN     (OSCN7024) (12:50) (15MAR04) Macro and Copy Code Source Summary                                                   Page   47
- Con Source                                        Volume    Members                        HLASM R4.0  2004/03/15 12.50
0     PRIMARY INPUT                                           CSECT    DROP     END      EX       LTORG    POP
                                                              PRINT    PUSH     START    USING
   L1 WYL.GS.WYL.WYLBUR.MACLIB                      SYSB05    AINFO    BASE     BOMB     COLINFO  COMMENT  CONTROL  CP
                                                              CPLOCAL  CV       CVLOCAL  RG       SCANCB   TSEG
                                                              TTYPE    VLTORG   XENTER   XEXIT    XTRACE
   L2 WYL.GG.SYS.MACLIB                             SYSB05    $BC      $BFLKUP  $BV      $CCLKUP  $CRS     $CSS     $L
                                                              $LA      $LBLAD   $LEXP    $LOR     $REL     $RGLKUP
                                                              $USLKUP  BEGIN    CEIL     CLEAR    COMPROC  CSECT    DATA
                                                              DECR     DEFCC    DEX      DROP     DTEX     ELSE
                                                              ELSEIF   END      EX       FLAG     GEN      HIBAL
                                                              IDENT    IF       INCR     LABEL    LC       LCALL    LCM
                                                              LS       LT       LTORG    L3       MOVE     PEND     POP
                                                              PRINT    PUSH     QLTORG   RECORD   REG      REGS     SET
                                                              SETMSG   START    USING    VCALL    WHILE    WITH
                                                              XPROC
   L3 SYS3.IS.MACLIB                                SYSB05    CLRHI    SEG      SEGCB    SEGLD    SIB      SYSDEFN
                                                              XPUSH

1OSCN     (OSCN7024) (12:50) (15MAR04) Dsect Cross Reference                                                                Page   48
-Dsect     Length      Id       Defn                                                         HLASM R4.0  2004/03/15 12.50
0$$$@R0   00000000  FFFFFFFE     705
 $$$@R1   00000000  FFFFFFFD     718
 $$$@R10  00000000  FFFFFFF4     835
 $$$@R11  00000000  FFFFFFF3     848
 $$$@R12  00000000  FFFFFFF2     861
 $$$@R13  00000000  FFFFFFF1     874
 $$$@R14  00000000  FFFFFFF0     887
 $$$@R15  00000000  FFFFFFEF     900
 $$$@R2   00000000  FFFFFFFC     731
 $$$@R3   00000000  FFFFFFFB     744
 $$$@R4   00000000  FFFFFFFA     757
 $$$@R5   00000000  FFFFFFF9     770
 $$$@R6   00000000  FFFFFFF8     783
 $$$@R7   00000000  FFFFFFF7     796
 $$$@R8   00000000  FFFFFFF6     809
 $$$@R9   00000000  FFFFFFF5     822
 $$$RCP   00001000  FFFFFFEB    2502
 $$$RCV   00000FB0  FFFFFFED    1227
 $$$RDEV  0000000C  FFFFFFEA    4716
 $$$RNSCNCB
          000000B0  FFFFFFEC    2423
 $$$RSA   0000003F  FFFFFFEE    1165
 $$$RTTYPE
          0000010C  FFFFFFE9    6247
 HIBAL    00000000  FFFFFFFF     691

1OSCN     (OSCN7024) (12:50) (15MAR04) Using Map                                                                            Page   49
-                                                                                            HLASM R4.0  2004/03/15 12.50
   Stmt  -----Location----- Action ----------------Using----------------- Reg Max    Last  Label and Using Text
           Count      Id           Type          Value    Range     Id        Disp   Stmt
0   922  00000000  FFFFFFFF USING  ORDINARY    00000000 00001000 FFFFFFEF  15 001    8536  @R15,15
    926  00000000  FFFFFFFF USING  ORDINARY    00000000 00001000 FFFFFFF0  14 004    6926  @R14,14
    930  00000000  FFFFFFFF USING  ORDINARY    00000000 00001000 FFFFFFF1  13 004    8661  @R13,13
    934  00000000  FFFFFFFF USING  ORDINARY    00000000 00001000 FFFFFFF2  12 000          @R12,12
    938  00000000  FFFFFFFF USING  ORDINARY    00000000 00001000 FFFFFFF3  11 000          @R11,11
    942  00000000  FFFFFFFF USING  ORDINARY    00000000 00001000 FFFFFFF4  10 000          @R10,10
    946  00000000  FFFFFFFF USING  ORDINARY    00000000 00001000 FFFFFFF5   9 000          @R9,9
    950  00000000  FFFFFFFF USING  ORDINARY    00000000 00001000 FFFFFFF6   8 000          @R8,8
    954  00000000  FFFFFFFF USING  ORDINARY    00000000 00001000 FFFFFFF7   7 000          @R7,7
    958  00000000  FFFFFFFF USING  ORDINARY    00000000 00001000 FFFFFFF8   6 001    7782  @R6,6
    962  00000000  FFFFFFFF USING  ORDINARY    00000000 00001000 FFFFFFF9   5 001    6572  @R5,5
    966  00000000  FFFFFFFF USING  ORDINARY    00000000 00001000 FFFFFFFA   4 000          @R4,4
    970  00000000  FFFFFFFF USING  ORDINARY    00000000 00001000 FFFFFFFB   3 009    8568  @R3,3
    974  00000000  FFFFFFFF USING  ORDINARY    00000000 00001000 FFFFFFFC   2 004    7781  @R2,2
    978  00000000  FFFFFFFF USING  ORDINARY    00000000 00001000 FFFFFFFD   1 004    8521  @R1,1
    982  00000000  FFFFFFFF USING  ORDINARY    00000000 00001000 FFFFFFFE   0 000          @R0,0
    983  00000000  FFFFFFFF DROP                                            0              0
   1149  00000017  00000001 USING  ORDINARY    00000000 00001000 FFFFFFEE   8 03E    7615  SA,WAR
   1158  00000017  00000001 USING  ORDINARY    00000000 00001000 FFFFFFED  12 8A8    8666  CV,CVR
   1218  00000017  00000001 USING  ORDINARY    00000000 00001000 FFFFFFEB  11 D5A    8691  CP,CPR
   6500  00000074  00000001 USING  ORDINARY    00000074 00001000 00000001   7 82A    7091  $$$42B,BR
   6869  00000342  00000001 DROP                                            4              4
   6873  00000348  00000001 USING  ORDINARY    00000000 00001000 FFFFFFFA   4 000          @R4,4
   7126  00000472  00000001 USING  ORDINARY    00000000 00001000 FFFFFFF7   7 000          @R7,7
   7129  00000472  00000001 USING  ORDINARY    00000472 00001000 00000001   7 406    7135  $$$67B,BR
   7144  00000476  00000001 USING  ORDINARY    00000000 00001000 FFFFFFF7   7 000          @R7,7
   7147  00000476  00000001 USING  ORDINARY    00000074 00001000 00000001   7 5A4    7152  BASE,7
   7172  000004A0  00000001 USING  ORDINARY    00000000 00001000 FFFFFFF7   7 000          @R7,7
   7175  000004A0  00000001 USING  ORDINARY    000004A0 00001000 00000001   7 3D8    7181  $$$68B,BR
   7190  000004A4  00000001 USING  ORDINARY    00000000 00001000 FFFFFFF7   7 000          @R7,7
   7193  000004A4  00000001 USING  ORDINARY    00000074 00001000 00000001   7 828    7779  BASE,7
   7790  00000768  00000001 USING  ORDINARY    00000000 00001000 FFFFFFF6   8 000          @R8,8
   7945  000008BE  00000001 USING  ORDINARY    00000000 00001000 FFFFFFF7   7 000          @R7,7
   7948  000008BE  00000001 USING  ORDINARY    000008BE 00001000 00000001   7 1EE    8196  $$$94B,7
   8224  00000966  00000001 USING  ORDINARY    00000000 00001000 FFFFFFF7   7 000          @R7,7
   8227  00000966  00000001 USING  ORDINARY    00000074 00001000 00000001   7 000          BASE,7
   8290  0000098E  00000001 USING  ORDINARY    00000000 00001000 FFFFFFF7   7 000          @R7,7
   8293  0000098E  00000001 USING  ORDINARY    0000098E 00001000 00000001   7 124    8610  $$$112B,7
   8638  00000A56  00000001 USING  ORDINARY    00000000 00001000 FFFFFFF7   7 000          @R7,7
   8641  00000A56  00000001 USING  ORDINARY    00000074 00001000 00000001   7 000          BASE,7
   8676  00000A7E  00000001 USING  ORDINARY    00000000 00001000 FFFFFFF7   7 000          @R7,7
   8679  00000A7E  00000001 USING  ORDINARY    00000A7E 00001000 00000001   7 02A    8701  $$$133B,BR
   8710  00000A8A  00000001 USING  ORDINARY    00000000 00001000 FFFFFFF7   7 000          @R7,7
   8713  00000A8A  00000001 USING  ORDINARY    00000074 00001000 00000001   7 5A4    8715  BASE,7
   8730  00000A9A  00000001 USING  ORDINARY    00000000 00001000 FFFFFFF7   7 000          @R7,7

1         (OSCN7024) (12:50) (15MAR04) General Purpose Register Cross Reference                                             Page   50
- Register  References (M=modified, B=branch, U=USING, D=DROP, N=index)                      HLASM R4.0  2004/03/15 12.50
0    0(0)     982U  983D 2147  2215M 2215  2216M 6382  6392  6400M 6413M 6415M 6415  6417M 6417  6580M 6582M 6589M 6590M
             6629M 6630M 6658M 6659  6696M 6713M 6714M 6763  6789  6792  6852  6899  7015  7108M 7108  7204  7238M 7238
             7280M 7280  7284  7293  7304M 7307M 7308M 7314  7318M 7319M 7320  7321M 7324  7326  7329M 7341M 7341  7382M
             7389M 7392  7398M 7404  7405M 7411  7413  7420M 7426M 7436M 7443M 7448M 7451  7490M 7490  7493  7497  7501M
             7501  7517M 7517  7523M 7528  7575M 7640M 7658M 7752M 7752  8111M 8112M 8117  8205M 8205  8469M 8470M 8475
             8582M 8582  8619M 8619  8663  8723M
     1(1)     978U 2147  2210M 2211M 2217M 6380M 6381  6391  6401M 6414M 6507  6531M 6580  6581M 6582  6589  6592  6625
             6629  6656  6670  6676  6677  6692  6694  6695M 6696  6707  6723  6747  6749  6754  6762M 6790  6898  7015
             7299  7321M 7399M 7406M 7414  7419M 7436M 7443M 7447M 7492M 7492  7497  7528  7574M 7615M 7616M 7616  7619M
             7620M 7633M 7657M 7779M 8054M 8112  8207M 8207  8399M 8470  8621M 8621  8663  8723M
     2(2)     974U 2147  6488  6537M 6537  6540N 6726M 6727  6730M 6731M 6732  6741M 6743M 6744  6745M 6745  6789M 6792M
             6795M 6797  6828M 6829M 6829  6835M 6835  6836  6861M 6861N 6897  6907M 6947  6948M 6956M 6959M 6962M 7037M
             7037  7104M 7114  7160  7247M 7264M 7285N 7444M 7449M 7452B 7455B 7460B 7500M 7706M 7751M 7779M 7928  7960M
             7977M 7977  8028M 8045M 8045  8068M 8068  8104M 8114  8117M 8120  8132M 8140M 8149M 8149  8156  8235M 8273
             8305M 8318M 8318  8339M 8339  8390M 8413M 8413  8462M 8472  8475M 8478  8490M 8498M 8507M 8507  8514  8555M
             8555  8649M 8663  8723M
     3(3)     970U 2147  6488  6790M 6791M 6835N 6839M 6840M 6843M 6843  6847  6897  6962M 7104M 7114  7152M 7160  7270M
             7271M 7285  7446B 7449  7500M 7706M 7751M 7928  7961M 8026M 8054  8102M 8111  8115  8235M 8273  8306M 8388M
             8399  8460M 8469  8473  8649M 8663  8715M 8723M
     4(4)     966U 2147  6488  6514M 6514  6519  6824M 6824  6831M 6869D 6871M 6871  6872M 6873U 6896M 6916M 6916  6948
             7008M 7018M 7019M 7028M 7028  7103  7104M 7114  7160  7433M 7433  7476M 7476  7500M 7706M 7751M 7928  8235M
             8273  8649M 8663  8723M
     5(5)     962U 2147  6488  6509M 6531N 6532M 6539  6572M 6592M 6593M 6625M 6626M 6627M 6627  6675M 6677M 6682M 6693M
             6693  6747M 6748M 6754M 6755M 7013  7104M 7114  7160  7203M 7327M 7390  7402M 7405  7413M 7423M 7425  7434M
             7495  7500M 7706M 7751M 7928  8235M 8273  8649M 8663  8723M
     6(6)     958U 2147  6488  6510M 6529M 6530  6565  6593  6594M 6626  6628M 6659M 6675  6676M 6679  6679  6683M 6683
             6689M 6692M 6693N 6694M 6712M 6713  6748  6749M 6755  6756M 7014  7104M 7114  7160  7202M 7285M 7299M 7303M
             7327  7330M 7330N 7383M 7383N 7390M 7414M 7435M 7496  7500M 7706M 7751M 7928  8235M 8273  8649M 8663  8723M
     7(7)     954U 2140M 2140  2141B 2147  2153B 6488  6490M 6500U 7104M 7114  7116M 7126U 7129U 7135M 7144U 7147U 7160
             7162M 7172U 7175U 7181M 7190U 7193U 7500M 7706M 7751M 7928  7933M 7945U 7948U 8224U 8227U 8235M 8273  8278M
             8290U 8293U 8638U 8641U 8649M 8663  8666M 8676U 8679U 8701M 8710U 8713U 8723M 8730U
     8(8)     950U 1149U 2147  6488  6489M 7104M 7114  7115M 7160  7161M 7500M 7706M 7751M 7790U 7928  7929M 8231  8235M
             8273  8274M 8645  8649M 8663  8664M 8721  8723M
     9(9)     946U 2147  6488  7104M 7114  7160  7500M 7706M 7751M
    10(A)     942U 2147  6488  7104M 7114  7160  7500M 7706M 7751M
    11(B)     938U 1218U 2147  6488  7104M 7114  7160  7500M 7706M 7751M
    12(C)     934U 1158U 2147  6488  7104M 7114  7160  7500M 7706M 7751M
    13(D)     930U 2147  6488  6489  7114  7115  7160  7161  7925  7928  7929  7930M 7930  8231M 8235  8237  8270  8273
             8274  8275M 8275  8645M 8649  8651  8663  8664  8665M 8665  8721M 8722  8723
    14(E)     926U 2147  2148M 2162  2163M 2164B 2166M 2167B 2187M 2188B 2192M 2193B 2195M 2196B 2198M 2199B 2201M 2202B
             2204M 2205M 2205B 2211  6383B 6393B 6402B 6416B 6418B 6431M 6433B 6486  6506  6925M 6926M 6929  6941M 6946
             6947N 6952M 6953M 6955  6956N 6963M 7103M 7106M 7107M 7109M 7109B 7112  7149M 7151B 7154B 7158  7277M 7317M
             7326M 7389  7392M 7395M 7397  7401M 7427B 7498M 7502B 7651M 7652M 7652B 7669M 7670M 7670B 7702M 7704M 7705M
             7708M 7708B 7747M 7749M 7750M 7753M 7753B 7925  8237M 8240B 8270  8651M 8654B 8661  8722M 8724B
    15(F)     922U 2147  6432M 6432  6763M 6816  6818M 6821M 6823  6847  6855  7016  7102M 7204M 7216  7223M 7229M 7298M
             7298  7302M 7308  7313M 7313  7319  7320M 7402  7404M 7438M 7451M 7454M 7457M 7459  7499M 7621M 7622M 7648M
             7666M 8177M 8183M 8183  8208M 8239M 8239  8535M 8541M 8541  8589M 8622M 8653M 8653  8663  8723M

1OSCN     (OSCN7024) (12:50) (15MAR04) Diagnostic Cross Reference and Assembler Summary                                     Page   51
-                                                                                            HLASM R4.0  2004/03/15 12.50
0     No Statements Flagged in this Assembly
 HIGH LEVEL ASSEMBLER, 5696-234, RELEASE 4.0, PTF P72483
0SYSTEM: OS/390 02.10.00            JOBNAME: WYL#OSCN    STEPNAME: ASM        PROCSTEP: (NOPROC)
0Datasets Allocated for this Assembly
  Con DDname   Dataset Name                                 Volume  Member
   P1 SYSIN    WYL.GS.WYL.WYLBUR.SOURCE                     SYSB05  OSCN
   L1 SYSLIB   WYL.GS.WYL.WYLBUR.MACLIB                     SYSB05
   L2          WYL.GG.SYS.MACLIB                            SYSB05
   L3          SYS3.IS.MACLIB                               SYSB05
   L4          SYS3.MACLIB                                  SYSB02
   L5          SYS1.MACLIB                                  MVSBR9
   L6          SYS1.MODGEN                                  MVSBR9
      SYSPRINT SYS04075.T125053.RA000.WYL#OSCN.PRINT.H01    SCR100
      SYSTERM  GG$SLP.WYL#OSCN.JOB03552.D0000101.?

    3668K allocated to Buffer Pool,         1257K would be required for this to be an In-Storage Assembly
     921 Primary Input Records Read         6072 Library Records Read                  0 Work File Reads
       0 ASMAOPT Records Read               2506 Primary Print Records Written         0 Work File Writes
       0 Punch Records Written                 0 ADATA Records Written
0Assembly Start Time: 12.50.54 Stop Time: 12.50.56 Processor Time: 00.00.01.2467
 Return Code 000
