1                        J E S 2  J O B  L O G  --  S Y S T E M  S Y S B  --  N O D E  R L G
0
 12.59.55 JOB03586 ---- MONDAY,    15 MAR 2004 ----
 12.59.55 JOB03586  ICH70001I GG$SLP   LAST ACCESS AT 12:59:52 ON MONDAY, MARCH 15, 2004
 12.59.55 JOB03586  $HASP373 WYL#VETS STARTED - INIT 7    - CLASS B - SYS SYSB
 12.59.55 JOB03586  ***  HCMD      STEP $$QUIET
 12.59.55 JOB03586  PUR * Q OUT MUL
 12.59.55 JOB03586  JOB 5448 WYL#VETS WILL BE PURGED
 12.59.56 JOB03586  WYL#VETS.$$QUIET .         RC=Zero TapeIO=0000 DiskIO=0000 CPU=  .01s Elapsed=95.22s
 13.00.21 JOB03586  WYL#VETS.ASM     .         RC=Zero TapeIO=0000 DiskIO=1416 CPU=11.65s Elapsed=96.32s
 13.00.23 JOB03586  WYL#VETS.EDIT    .         RC=Zero TapeIO=0000 DiskIO=0540 CPU= 1.64s Elapsed=21.03s
 13.00.23 JOB03586  WYL#VETS Ended.  Name=Assemble VETS                  Total CPU=13.30s Elapsed=95.22s
 13.00.23 JOB03586
 13.00.23 JOB03586  Execution charges   Priority=Standard   Block=Day
 13.00.23 JOB03586
 13.00.23 JOB03586  CPU Usage         246.18         $152.63   Standard Processing Unit Equivalent
 13.00.23 JOB03586                                   =======
 13.00.23 JOB03586                                   $152.63   Total Job execution charge
 13.00.23 JOB03586
 13.00.23 JOB03586  See back separator page for print charges
 13.00.23 JOB03586
 13.00.23 JOB03586  $HASP395 WYL#VETS ENDED  ASM=0, EDIT=0
1        1 //WYL#VETS JOB SLP$GG,'Assemble VETS',TIME=4,REGION=4M                  JOB03586
           //*
           /*JOBPARM LINES=99,COPIES=1
           /*JOBPARM FORMS=3HOL,PFORMAT=LAND,CHARS=BD13,DUPLEX=YES,FLASH=BAR4
           //*
           /*JOBPARM NOTIFY=GG.SLP,HOLD=OUTPUT                                     WYLGEN
         2 //$$QUIET EXEC PGM=HCMDX,PARM='PUR * Q OUT MUL'
           //*
         3 //ASM    EXEC PGM=ASMA90,REGION=8M,
           //            PARM=('NORENT,TERM,FLAG(NOCONT),US(MAP,WARN(10)),NODECK',
           //            'LC(32767),XREF(SHORT),ESD,DXREF,NOOBJECT')
         4 //STEPLIB DD DSN=SYS3.IS.TESTASM,DISP=SHR
         5 //SYSLIB   DD  DSN=WYL.GS.WYL.WYLBUR.MACLIB,DISP=SHR
         6 //         DD  DSN=WYL.GG.SYS.MACLIB,DISP=SHR
         7 //         DD  DSN=SYS3.IS.MACLIB,DISP=SHR
         8 //         DD  DSN=SYS3.MACLIB,DISP=SHR
         9 //         DD  DSN=SYS1.MACLIB,DISP=SHR
        10 //         DD  DSN=SYS1.MODGEN,DISP=SHR
        11 //SYSUT1   DD DSN=&&SYSUT1,UNIT=VIO,DISP=(,DELETE),
           //            SPACE=(4088,(500,250),,CONTIG,ROUND)
        12 //SYSTERM  DD SYSOUT=T
        13 //SYSPRINT DD DSN=&&PRINT,UNIT=SYSDA,DISP=(,PASS),
           //            SPACE=(6650,(250,250),RLSE),
           //            DCB=(BLKSIZE=6650,LRECL=133,RECFM=FB)
        14 //SYSUDUMP DD SYSOUT=A
        15 //SYSIN    DD  DSN=WYL.GS.WYL.WYLBUR.SOURCE(VETS),DISP=SHR
           //*
        16 //EDIT    EXEC PGM=ASMEDIT,TIME=2,REGION=4000K,
           //             PARM='STMT'
        17 //STEPLIB  DD  DSN=WYL.GG.SYS.LINKLIB,DISP=SHR
        18 //ASMOUT   DD  DSN=&PRINT,DISP=(OLD,DELETE)
        19 //SYSPRINT DD  SYSOUT=A
1 STMT NO. MESSAGE
 -
        11 IGD01010I STORCLAS= TEMP STORGROUP =
        11 IGD01010I STORGRP=VIO ASSIGNED.
        13 IGD01010I STORCLAS= TEMP STORGROUP =
        13 IGD01010I STORGRP=VIO ASSIGNED.
 ICH70001I GG$SLP   LAST ACCESS AT 12:59:52 ON MONDAY, MARCH 15, 2004
 IEF142I WYL#VETS $$QUIET - STEP WAS EXECUTED - COND CODE 0000
 *********************************************************************************
 *   WYL#VETS/$$QUIET /                    Return Code      Zero                 *
 *   Region used      260K (16K user + 244K system)                              *
 *   Extended region  9580K (4K user + 9576K system)                             *
 *                                                                               *
 *   Paging              In      Out                                             *
 *   Private <-> Aux      0        0       CPU time (TCB)   00:00:00.01          *
 *   Private <-> Exp      0        0       CPU time (SRB)   00:00:00.00          *
 *   VIO                  0        0       Elapsed time    917:27:57.74          *
 *   Common               0      ---                                             *
 *                                                                               *
 *                                                                               *
 *   CPU Usage          0.18         $0.11  Standard Processing Unit Equivalent  *
 *                                   $0.11  Total Step execution charge          *
 *                                                                               *
 *    I/O count  DDname   Type Addr           I/O count  DDname   Type Addr      *
 *                         *** No I/O for this step ***                          *
 *********************************************************************************
 IEF373I STEP/$$QUIET /START 2004075.1259
 IEF374I STEP/$$QUIET /STOP  2004075.1259 CPU    0MIN 00.01SEC SRB    0MIN 00.00SEC VIRT    16K SYS   244K EXT       4K SYS    9576K
 IEF236I ALLOC. FOR WYL#VETS ASM
 IEF237I 04DC ALLOCATED TO STEPLIB
 IEF237I 04DC ALLOCATED TO SYSLIB
 IEF237I 04DC ALLOCATED TO
 IEF237I 04DC ALLOCATED TO
 IEF237I 0402 ALLOCATED TO
 IEF237I 04A0 ALLOCATED TO
 IEF237I 04A0 ALLOCATED TO
 IGD101I SMS ALLOCATED TO DDNAME (SYSUT1  )
         DSN (SYS04075.T125955.RA000.WYL#VETS.SYSUT1.H01  )
         STORCLAS (TEMP) MGMTCLAS (        ) DATACLAS (        )
         VOL SER NOS= VIO
 IEF237I JES2 ALLOCATED TO SYSTERM
 IGD101I SMS ALLOCATED TO DDNAME (SYSPRINT)
         DSN (SYS04075.T125955.RA000.WYL#VETS.PRINT.H01   )
         STORCLAS (TEMP) MGMTCLAS (        ) DATACLAS (        )
         VOL SER NOS= SCR100
 IEF237I JES2 ALLOCATED TO SYSUDUMP
 IEF237I 04DC ALLOCATED TO SYSIN
 IEF142I WYL#VETS ASM - STEP WAS EXECUTED - COND CODE 0000
 IEF285I   SYS3.IS.TESTASM                              KEPT
 IEF285I   VOL SER NOS= SYSB05.
 IEF285I   WYL.GS.WYL.WYLBUR.MACLIB                     KEPT
 IEF285I   VOL SER NOS= SYSB05.
 IEF285I   WYL.GG.SYS.MACLIB                            KEPT
 IEF285I   VOL SER NOS= SYSB05.
 IEF285I   SYS3.IS.MACLIB                               KEPT
 IEF285I   VOL SER NOS= SYSB05.
 IEF285I   SYS3.MACLIB                                  KEPT
 IEF285I   VOL SER NOS= SYSB02.
 IEF285I   SYS1.MACLIB                                  KEPT
 IEF285I   VOL SER NOS= MVSBR9.
 IEF285I   SYS1.MODGEN                                  KEPT
 IEF285I   VOL SER NOS= MVSBR9.
 IGD105I SYS04075.T125955.RA000.WYL#VETS.SYSUT1.H01   DELETED,   DDNAME=SYSUT1
 IEF285I   GG$SLP.WYL#VETS.JOB03586.D0000101.?          SYSOUT
 IGD106I SYS04075.T125955.RA000.WYL#VETS.PRINT.H01    PASSED,    DDNAME=SYSPRINT
 IEF285I   GG$SLP.WYL#VETS.JOB03586.D0000102.?          SYSOUT
 IEF285I   WYL.GS.WYL.WYLBUR.SOURCE                     KEPT
 IEF285I   VOL SER NOS= SYSB05.
 *********************************************************************************
 *   WYL#VETS/ASM     /                    Return Code      Zero                 *
 *   Region used      4376K (4096K user + 280K system)                           *
 *   Extended region  10212K (412K user + 9800K system)                          *
 *                                                                               *
 *   Paging              In      Out                                             *
 *   Private <-> Aux      0        0       CPU time (TCB)   00:00:11.53          *
 *   Private <-> Exp      0        0       CPU time (SRB)   00:00:00.12          *
 *   VIO                  0        0       Elapsed time    917:27:56.64          *
 *   Common               0      ---                                             *
 *                                                                               *
 *                                                                               *
 *   CPU Usage        216.18       $134.03  Standard Processing Unit Equivalent  *
 *                                 $134.03  Total Step execution charge          *
 *                                                                               *
 *    I/O count  DDname   Type Addr           I/O count  DDname   Type Addr      *
 *           88  STEPLIB  Disk 04DC                 327  SYSLIB   Disk 04DC      *
 *            0  SYSLIB   Disk 04DC                   0  SYSLIB   Disk 04DC      *
 *            0  SYSLIB   Disk 0402                 444  SYSLIB   Disk 04A0      *
 *            0  SYSLIB   Disk 04A0               2,678  SYSUT1   VIO  ----      *
 *            0  SYSTERM       ----                 537  SYSPRINT Disk 038B      *
 *            0  SYSUDUMP      ----                  20  SYSIN    Disk 04DC      *
 *********************************************************************************
 IEF373I STEP/ASM     /START 2004075.1259
 IEF374I STEP/ASM     /STOP  2004075.1300 CPU    0MIN 11.53SEC SRB    0MIN 00.12SEC VIRT  4096K SYS   280K EXT     412K SYS    9800K
 IEF236I ALLOC. FOR WYL#VETS EDIT
 IEF237I 0402 ALLOCATED TO STEPLIB
 IGD103I SMS ALLOCATED TO DDNAME ASMOUT
 IEF237I JES2 ALLOCATED TO SYSPRINT
 IEF142I WYL#VETS EDIT - STEP WAS EXECUTED - COND CODE 0000
 IEF285I   WYL.GG.SYS.LINKLIB                           KEPT
 IEF285I   VOL SER NOS= SYSB02.
 IGD105I SYS04075.T125955.RA000.WYL#VETS.PRINT.H01    DELETED,   DDNAME=ASMOUT
 IEF285I   GG$SLP.WYL#VETS.JOB03586.D0000103.?          SYSOUT
 *********************************************************************************
 *   WYL#VETS/EDIT    /                    Return Code      Zero                 *
 *   Region used      380K (116K user + 264K system)                             *
 *   Extended region  9700K (4K user + 9696K system)                             *
 *                                                                               *
 *   Paging              In      Out                                             *
 *   Private <-> Aux      0        0       CPU time (TCB)   00:00:01.59          *
 *   Private <-> Exp      0        0       CPU time (SRB)   00:00:00.05          *
 *   VIO                  0        0       Elapsed time    917:27:31.93          *
 *   Common               0      ---                                             *
 *                                                                               *
 *                                                                               *
 *   CPU Usage         29.81        $18.48  Standard Processing Unit Equivalent  *
 *                                  $18.48  Total Step execution charge          *
 *                                                                               *
 *    I/O count  DDname   Type Addr           I/O count  DDname   Type Addr      *
 *            2  STEPLIB  Disk 0402                 538  ASMOUT   Disk 038B      *
 *            0  SYSPRINT      ----                                              *
 *********************************************************************************
 IEF373I STEP/EDIT    /START 2004075.1300
 IEF374I STEP/EDIT    /STOP  2004075.1300 CPU    0MIN 01.59SEC SRB    0MIN 00.05SEC VIRT   116K SYS   264K EXT       4K SYS    9696K
 *********************************************************************************
 *                                                                               *
 *                      S t a n f o r d   U n i v e r s i t y                    *
 *                                                                               *
 *                              *** Job Summary ***                              *
 *                                                                               *
 *   System Id      SYSB                   Input time     12:39:38  Mar 15, 2004 *
 *                                                                               *
 *   System Release SP6.1.0                Start time     12:59:55  Mar 15, 2004 *
 *                                                                               *
 *   Job name       WYL#VETS               Stop  time     00:00:00  Mar 15, 2004 *
 *                                                                               *
 *   Account        SLP$GG                 Elapsed time  917:27:57.74            *
 *                                                                               *
 *   User Name      Assemble VETS          CPU time       00:00:13.13            *
 *                                                                               *
 *   Job class      B                      SRB Time       00:00:00.17            *
 *                                                                               *
 *********************************************************************************
 IEF375I  JOB/WYL#VETS/START 2004075.1259
 IEF376I  JOB/WYL#VETS/STOP  2004075.1300 CPU    0MIN 13.13SEC SRB    0MIN 00.17SEC
1Assembler Done VETS No Statements Flagged
1         High Level Assembler Option Summary                   (PTF P72483 )                                               Page    1
-                                                                                            HLASM R4.0  2004/03/15 12.59
0  No Overriding ASMAOPT Parameters
   Overriding Parameters-  NORENT,TERM,FLAG(NOCONT),US(MAP,WARN(10)),NODECK,LC(32767),XREF(SHORT),ESD,DXREF,NOOBJECT
   No Process Statements


   Options for this Assembly
0  NOADATA
     ALIGN
   NOASA
     BATCH
     CODEPAGE(047C)
   NOCOMPAT
   NODBCS
 3 NODECK
 3   DXREF
 3   ESD
   NOEXIT
 3   FLAG(0,ALIGN,NOCONT,NOIMPLEN,NOPAGE0,PUSH,RECORD,NOSUBSTR,USING0)
   NOFOLD
   NOGOFF
   NOINFO
     LANGUAGE(EN)
   NOLIBMAC
 3   LINECOUNT(32767)
     LIST(121)
     MXREF(SOURCE)
 3 NOOBJECT
     OPTABLE(UNI,NOLIST)
   NOPCONTROL
   NOPESTOP
   NOPROFILE
   NORA2
 3 NORENT
     RLD
     RXREF
     SIZE(MAX)
     SYSPARM()
 3   TERM(WIDE)
   NOTEST
     THREAD
   NOTRANSLATE
 3   USING(NOLIMIT,MAP,WARN(10))
 3   XREF(SHORT)

   No Overriding DD Names

1VETS     External Symbol Dictionary                                                                                        Page    2
-Symbol   Type   Id     Address  Length     LD ID  Flags Alias-of                            HLASM R4.0  2004/03/15 12.59
0WYLVETS   SD 00000001 00000000 000080E2             00
 VETS2025  LD          00000000           00000001
 SETVOPT   LD          00000018           00000001
 VLOGCHK   LD          000001E6           00000001
 VSESCHK   LD          00000220           00000001
 SHOWVOPT  LD          0000025C           00000001
 SHOWVSES  LD          0000060E           00000001
 SETVSES   LD          0000066A           00000001
 VLOGON    LD          000006B4           00000001
 SEG       ER 00000002
 NSCAN     ER 00000003
 SCANCHK   ER 00000004
 DTB       ER 00000005
 SEGTB     ER 00000006
 SEGCR     ER 00000007
 SEGCOL    ER 00000008
 SEGDC     ER 00000009
 SEGHX     ER 0000000A
 PAGETCHK  ER 0000000B
 GETCORE   ER 0000000C
 WAITECB   ER 0000000D
 VLOGOFF   LD          000011D8           00000001
 VATTN     LD          0000143C           00000001
 VGO       LD          000014A6           00000001
 VDEBUG    LD          00001540           00000001
 VETSFREE  LD          0000158A           00000001
 FREECORE  ER 0000000E
 VIEWTRC   ER 0000000F
 SEGWR     ER 00000010
 TREAD     ER 00000011
 SEGMARK   ER 00000012
 WAITER    ER 00000013
 VTAMDISP  LD          00007316           00000001
 TBREAK    ER 00000014
 CV        ER 00000015

1VETS     WYLBUR's VTAM Emulated Terminal Support                                                                           Page    3
0Loc    Object Code    Addr1 Addr2  Stmt Lv Lineno    Source Statement                    (Asmedit 3.3)  HLASM R4.0  2004/03/15 12.59
+___    ______ ____    _____ _____  ____ __ ______    ______ _________
0                                      2              *******************************************************************
                                       3              *                                                                 *
                                       4              *     WYLBUR/370 - Release VI - Class I - Stanford Proprietary    *
                                       5              *                                                                 *
                                       6              *******************************************************************
                                       7                       HIBAL
                                     988
 000000                00000 080E2   989              WYLVETS  CSECT
                                     993                       REGS  FSR,,,,,,,BR,(WAR,LSR),PAR,PBR,CPR,CVR,SPR,RAR
                                    1129              VTWAR    REG   R6                  Assumed in All Local Routines
                                    1141
                                    1142              VETS     IDENT 2025                11:49:37 01/25/02  (SLP)
                                    1145             +
                                    1146    01-IDENT +         ENTRY VETS2025
                                    1147             +
 000000 16E5C5E3E2F2F0F2            1148    01-IDENT +VETS2025 DC    AL1(22),C'VETS2025,15MAR04,12:59'
                                    1149             +*
                                    1151              *
                                    1152                       SYSDEFN ,                 DEFINE INSTALLATION VALUES
-                                   1154              &BRANCH  SETC  'YES'              BRANCH ENTRY TO VTAM YES OR NO
-                                   1156                       MACRO
                                    1157                       APPLSYN  ,                GENERATE THE APPLICATION NAME
                                    1158                       LCLA  &COUNT              SYNONYM TABLE
                                    1159              &COUNT   SETA  1
                                    1160              APPLTABL DATA  BEGIN
                                    1161              .APPLTAB DC    CL8'&SYSLIST(&COUNT,1)',CL8'&SYSLIST(&COUNT,2)'
                                    1162              &COUNT   SETA  &COUNT+1
                                    1163                       AIF   (&COUNT LE N'&SYSLIST).APPLTAB
                                    1164              APPLEND  EQU   *
                                    1165                       END
                                    1166                       MEND
0                                   1168              *        APPLSYN  (ENTERED NAME,NAME OF APPLICATION)
                                    1169            C          APPLSYN  (WYLBUR,WYLA),(WYL,WYLA),(TSO,SDTS),(TSOA,SDTS),
 000932 E6E8D3C2E4D940_00932 080E2                                   (IBMIN,IBM0MON2)
1VETS     (VETS2025) (12:59) (15MAR04) WYLBUR's VTAM Emulated Terminal Support                                              Page    4
0Loc    Object Code    Addr1 Addr2  Stmt Lv Lineno    Source Statement           (Hibal 5, Asmedit 3.3)  HLASM R4.0  2004/03/15 12.59
+___    ______ ____    _____ _____  ____ __ ______    ______ _________
0                                   1190              *        Note: In The following comments, SEND and RECEIVE refer to
                                    1191              *        communicating with the VTAM application - VTAM macros are
                                    1192              *        used.  --  READ and WRITE refer to communicating with the
                                    1193              *        ASCII terminal - TSEG macros are used.
                                    1194              *
                                    1195              *        OUTBOUND indicates data flow from the IBM Application
                                    1196              *        (VTAM RECEIVE)- to This Module - to MILTEN (TSEG WRITE)
                                    1197              *        - to the User Terminal.
                                    1198              *
                                    1199              *        INBOUND indicates data flow from the User Terminal -
                                    1200              *        from MILTEN (READ) - to This Module - to the IBM APPLICATION
                                    1201              *        - (VTAM SEND).
                                    1202              *
                                    1203              *        Representative APPL definition statements are:
                                    1204              *
                                    1205              *        A070   APPL AUTH=ACQ,EAS=2,VPACING=2,MODETAB=S3278,SESSLIM=YES
                                    1206              *        A071   APPL AUTH=ACQ,EAS=2,VPACING=2,MODETAB=S3278,SESSLIM=YES
                                    1207              *        A072   APPL AUTH=ACQ,EAS=2,VPACING=2,MODETAB=S3278,SESSLIM=YES
                                    1208              *        A073   APPL AUTH=ACQ,EAS=2,VPACING=2,MODETAB=S3278,SESSLIM=YES
                                    1209              *
                                    1210              *        The "SESSLIM=YES" parameter is not required, but recommended.
                                    1211              *
                                    1212              *        Note that the same Mode Table is used as with real terminals.
                                    1213              *
                                    1214              *        The following non-standard Stanford AID codes are used
                                    1215              *
                                    1216              *            AID     ESC Seq    Meaning
                                    1217              *
                                    1218              *            67      ESC-C      Clear-Screen
                                    1219              *            65      ESC-A      ATTN
                                    1220              *            83      ESC-S      PA1
                                    1221              *            68      ESC-D      PA2
                                    1222              *            70      ESC-F      PA3
                                    1223              *
-
                                    1225                       PUSH  DSECTS
 USING  CP,R11                      2568             =         USING (CP),(CV)
 USING  CV,R12
 000017                00000 080E2  2587             =         POP   PRINT
1VETS     (VETS2025) (12:59) (15MAR04) VTAM CONTROL BLOCKS                                                                  Page    5
0Current Usings:  (CP,R11) (CV,R12)
0Loc    Object Code    Addr1 Addr2  Stmt Lv Lineno    Source Statement           (Hibal 5, Asmedit 3.3)  HLASM R4.0  2004/03/15 12.59
+___    ______ ____    _____ _____  ____ __ ______    ______ _________
0000017                00000 080E2  8001                       PUSH  DSECTS
000006C                00000 000B4  8842              IFGACB   DSECT ,                   ACB - WYLBUR EXTENSION
                                    8843
                                    8844              ACBWOFFS EQU   *+16-IFGACB
 00006C                0006C 00080  8845                       ORG   IFGACB+(ACBWOFFS+31)/32*32
 000080                             8846              ACBWSTRT DS    0F                  START OF WYLBUR EXTENSION
 000080                             8847              ACBWNEXT DS    F                   PTR TO NEXT IN CHAIN (circular)
 000084                             8848              ACBWVTWA DS    F                   PTR TO USER VTWA
 000088 00                          8849              ACBWFLAG FLAG  ,                   FLAGS
 ACBWFLAG.ACBWON   80 ONES          8853                       FLAG  ACBWON               ON = TERMINAL ENABLED
 ACBWFLAG.ACBWALLO 40 ONES          8858                       FLAG  ACBWALLO             ON = TERMINAL ALLOCATED
 ACBWFLAG.ACBNAVAL 20 ONES          8863                       FLAG  ACBNAVAL             ON = NOT AVAILABLE (FOR SHOW VOPT)
 000089                             8868              ACBWAPLT DS    X                   LENGTH OF APPLICATION NAME
 00008A                             8869              ACBWAPPL DS    CL8                 APPLICATION NAME (terminal ID)
 000092                             8870              ACBWPSLT DS    X                   LENGTH OF PASSWORD
 000093                             8871              ACBWPSWD DS    CL8                 PASSWORD
 00009B 00/80/000000                8872              ACBOLIST OPEN  (ACB),MF=L          LIST FOR OPEN MACRO
 0000A0                             8876              ACBNRRPL DS    A                   RPL FOR NORMAL FLOW RECEIVE DATA
 0000A4                             8877              ACBNSRPL DS    A                   RPL FOR NORMAL FLOW SEND DATA
 0000A8                             8878              ACBEIRPL DS    A                   RPL FOR EXPEDITED INPUT  & RESPONSES
 0000AC                             8879              ACBEORPL DS    A                   RPL FOR EXPEDITED OUTPUT & RESPONSES
 0000B0                             8880              ACBBTRPL DS    A                   PHONY RPL TO BREAK TERMINAL READ
 0000B4                             8881              ACBWEND  DS    0F                  END OF WYLBUR EXTENSION
0                                   8883              ACB      EQU   IFGACB,ACBWSTRT-IFGACB,C'X'
                                    8884              ACBWYL   EQU   IFGACB,ACBWEND-IFGACB,C'X'
 0000B4                00000 000B4  8885                       PUSH DSECTS
-
 000070                00000 00088 12949              IFGRPL   DSECT ,                   RPL - WYLBUR EXTENSION
                                   12950
                                   12951              RPLWOFFS EQU   RPLSIGDA+4+16-IFGRPL
 000070                00070 00080 12952                       ORG   IFGRPL+(RPLWOFFS+31)/32*32
 000080                            12953              RPLWSTRT DS    0F                  START OF WYLBUR EXTENSION
 000080                            12954              RPLWNEXT DS    A                   PTR TO NEXT RPL IN QUEUE
 000084                            12955              RPLWVTWA DS    A                   PTR TO VTWA
 000088                            12956              RPLWEND  DS    0F                  END OF WYLBUR EXTENSION
0                                  12958              *                                  WYLBUR EQUATES
 RPLVTFL2.RPLNDR1  02 NZ           12959              RPLNDR1  EQF RPLVTFL2,RPLNFME,C=' NOT DR1'
 RPLVTFL2.RPLDR2   01 NZ           12971              RPLDR2   EQF RPLVTFL2,RPLRRN,C=' DR2'
 RPLVTFL2.RPLERI   04 NZ           12983              RPLERI   EQF RPLVTFL2,RPLEX,C=' ERROR INDICATOR'
 RPLRH3.RPLCDI     20 NZ           12995              RPLCDI   EQF RPLRH3,RPLCMD,C=' CHANGE DIRECTION COMMAND INDICATOR'
 RPLRH3.RPLALT     08 NZ           13007              RPLALT   EQF RPLRH3,RPLCSI,C=' ALTERNATE CHARACTER SET (1=ASCII)'
 RPLOPT12.RPLFMH   01 NZ           13019              RPLFMH   EQF RPLOPT12,RPLFMHDR,C=' FORMAT HEADER INDICATOR'
 RPLCHN.RPLCBITS   F0 NZ           13031              RPLCBITS EQF RPLCHN,RPLFIRST+RPLMIDLE+RPLLAST+RPLONLY,C=' CHAIN BITS'
 RPLCHN.RPLCFE     80 NZ           13052              RPLCFE   EQF RPLCHN,RPLFIRST,C='  CHAIN FIRST ELEMENT'
 RPLCHN.RPLCME     40 NZ           13064              RPLCME   EQF RPLCHN,RPLMIDLE,C='  CHAIN MIDDLE ELEMENT'
 RPLCHN.RPLCLE     20 NZ           13076              RPLCLE   EQF RPLCHN,RPLLAST,C='  CHAIN LAST ELEMENT'
 RPLCHN.RPLCOE     10 NZ           13088              RPLCOE   EQF RPLCHN,RPLONLY,C='  CHAIN ONLY ELEMENT'
 RPLRH3.RPLBBI     80 NZ           13100              RPLBBI   EQF RPLRH3,RPLBB,C=' BEGIN BRACKET INDICATOR'
 RPLRH3.RPLEBI     40 NZ           13112              RPLEBI   EQF RPLRH3,RPLEB,C=' END BRACKET INDICATOR'
1VETS     (VETS2025) (12:59) (15MAR04) VTAM CONTROL BLOCKS                                                                  Page    6
0Current Usings:  (CP,R11) (CV,R12)
0Loc    Object Code    Addr1 Addr2  Stmt Lv Lineno    Source Statement           (Hibal 5, Asmedit 3.3)  HLASM R4.0  2004/03/15 12.59
+___    ______ ____    _____ _____  ____ __ ______    ______ _________
0                                  13124              RPLRSENS EQU RPLSSEI,4,C'X'        RECEIVE LOGICAL UNIT SENSE
                                   13125              RPLSSENS EQU RPLSSEO,4,C'X'        SEND LOGICAL UNIT SENSE
0                                  13127              RPL      EQU   IFGRPL,RPLWSTRT-IFGRPL,C'X'
                                   13128              RPLWYL   EQU   IFGRPL,RPLWEND-IFGRPL,C'X'
1VETS     (VETS2025) (12:59) (15MAR04) LOCAL CONTROL BLOCKS                                      VTWA                       Page    7
0Current Usings:  (CP,R11) (CV,R12)
0D-Loc  Object Code    Addr1 Addr2  Stmt Lv Lineno    Source Statement           (Hibal 5, Asmedit 3.3)  HLASM R4.0  2004/03/15 12.59
+_____  ______ ____    _____ _____  ____ __ ______    ______ _________
0000017                00000 080E2 13130              WYLVETS  CSECT
0                                  13133              ***
                                   13134              ***  VTWA --
                                   13135              ***    Vtam terminal work area.  This control block is allocated
                                   13136              ***    when a user first creates a VTAM terminal session and
                                   13137              ***    remains allocated to that user until a VLOGOFF command is
                                   13138              ***    issued, or until he logs off.
                                   13139              ***
 000000                00000 000A4 13140              VTWA     RECORD BEGIN              Page work area
 000000                            13148  1           VTWID      DS    CL4                 SELF IDENTIFICATION ("VTWA")
                                   13149  1
 000004 00                         13150  1           VTWFLAG1   FLAG
 VTWFLAG1.VTWFUACT 80 ONES         13154  1                      FLAG  VTWFUACT             USER IS ACTIVE
 VTWFLAG1.VTWF14B  40 ONES         13159  1                      FLAG  VTWF14B              14 BIT BUFFER ADDRESSING IN USE
 VTWFLAG1.VTWFFMT  20 ONES         13164  1                      FLAG  VTWFFMT              SCREEN IS FORMATED (HAS A FAC)
 VTWFLAG1.VTWFHATT 10 ONES         13169  1                      FLAG  VTWFHATT             ATTENTION RECEIVED FROM HOST
 VTWFLAG1.VTWFFREZ 08 ONES         13174  1                      FLAG  VTWFFREZ             ERROR 10A RECEIVED - FREEZE SESSION
 VTWFLAG1.VTWFRNXT 04 ONES         13179  1                      FLAG  VTWFRNXT             RENEX TRANSPARENCY MODE
 VTWFLAG1.VTWFALT  02 ONES         13184  1                      FLAG  VTWFALT              ALTERNATE SCREEN SIZE IN USE
 VTWFLAG1.VTWFLPR  01 ONES         13189  1                      FLAG  VTWFLPR              LAST PART OF RU RECEIVED
 000005 00                         13194  1           VTWFLAG2   FLAG
 VTWFLAG2.VTWIWFDR 80 ONES         13198  1                      FLAG  VTWIWFDR             INBOUND WAITING FOR DEF RESP
 VTWFLAG2.VTWFDR   40 ONES         13203  1                      FLAG  VTWFDR               TERMINAL MAY REQ DEF RESP
 VTWFLAG2.VTWFER   20 ONES         13208  1                      FLAG  VTWFER               TERMINAL MAY REQ EXCEPT RESP
 VTWFLAG2.VTWFBUSQ 10 ONES         13213  1                      FLAG  VTWFBUSQ             BIND-UNBIND SEQUENCE
 VTWFLAG2.VTWFSHUT 08 ONES         13218  1                      FLAG  VTWFSHUT             SHUT DOWN REQUESTED
 VTWFLAG2.VTWFLOST 04 ONES         13223  1                      FLAG  VTWFLOST             LOST TERM RECEIVED
 VTWFLAG2.VTWFCLNU 02 ONES         13228  1                      FLAG  VTWFCLNU             DO NO VTAM IO - CLEANUP
 VTWFLAG2.VTWFTEND 01 ONES         13233  1                      FLAG  VTWFTEND             VTAM HAS ENDED
 000006 00                         13238  1           VTWFLAG3   FLAG
 VTWFLAG3.VTWFWSCR 80 ONES         13242  1                      FLAG  VTWFWSCR             CHANGED SCREEN TO WRITE
 VTWFLAG3.VTWFRCDI 40 ONES         13247  1                      FLAG  VTWFRCDI             CHANGE DIRECTION RECEIVED
 VTWFLAG3.VTWFREBI 20 ONES         13252  1                      FLAG  VTWFREBI             END BRACKET RECEIVED
 VTWFLAG3.VTWFSCDI 10 ONES         13257  1                      FLAG  VTWFSCDI             CHANGE DIRECTION TO SEND
 VTWFLAG3.VTWFSBBI 08 ONES         13262  1                      FLAG  VTWFSBBI             BEGIN BRACKET TO SEND
 VTWFLAG3.VTWFSDR  04 ONES         13267  1                      FLAG  VTWFSDR              SEND DEFINITE RESPONSE
 VTWFLAG3.VTWFSR1  02 ONES         13272  1                      FLAG  VTWFSR1              SEND DR1/ER1
 VTWFLAG3.VTWFSR2  01 ONES         13277  1                      FLAG  VTWFSR2              SEND DR2/ER2
 000007 00                         13282  1           VTWFLAG4   FLAG
 VTWFLAG4.VTWF3270 80 ONES         13286  1                      FLAG  VTWF3270             USER IS AT A REAL 3270 TERMINAL
 VTWFLAG4.VTWFCOLO 40 ONES         13291  1                      FLAG  VTWFCOLOR            COLOR TERMINAL
 VTWFLAG4.VTWFHI   20 ONES         13296  1                      FLAG  VTWFHI               3270 EXTENDED ATTRIBUTES
 VTWFLAG4.VTWFGE   10 ONES         13301  1                      FLAG  VTWFGE               3270 GRAPHIC ESCAPE
 VTWFLAG4.VTWFBEL  08 ONES         13306  1                      FLAG  VTWFBEL              BELL CHARACTER TO BE SENT
 VTWFLAG4.VTWFKLOK 04 ONES         13311  1                      FLAG  VTWFKLOK             KEYBOARD IS LOCKED
0000008                            13317  1           VSSTATE    DS    X                   STATE OF THE VTAM SESSION
                                   13318  1           VSNOACB    EQS   VSSTATE,00           NO ACB ATTACHED
 VSSTATE.VSNOACB   EQ              13319  1 01-EQS   +VSNOACB    EQU   VSSTATE,00,24
                                   13321  1           VSACBCLO   EQS   VSSTATE,01           ACB CLOSED
 VSSTATE.VSACBCLO  EQ              13322  1 01-EQS   +VSACBCLO   EQU   VSSTATE,01,24
                                   13324  1           VSACBOPE   EQS   VSSTATE,02           ACB OPENED
 VSSTATE.VSACBOPE  EQ              13325  1 01-EQS   +VSACBOPE   EQU   VSSTATE,02,24
1VETS     (VETS2025) (12:59) (15MAR04) LOCAL CONTROL BLOCKS                                      VTWA                       Page    8
0Current Usings:  (CP,R11) (CV,R12)
0D-Loc  Object Code    Addr1 Addr2  Stmt Lv Lineno    Source Statement           (Hibal 5, Asmedit 3.3)  HLASM R4.0  2004/03/15 12.59
+_____  ______ ____    _____ _____  ____ __ ______    ______ _________
0                                  13327  1           VSWFBIND   EQS   VSSTATE,03           WAITING FOR A BIND
 VSSTATE.VSWFBIND  EQ              13328  1 01-EQS   +VSWFBIND   EQU   VSSTATE,03,24
                                   13330  1           VSWFSDT    EQS   VSSTATE,04           WAITING FOR SDT
 VSSTATE.VSWFSDT   EQ              13331  1 01-EQS   +VSWFSDT    EQU   VSSTATE,04,24
                                   13333  1           VSCONT     EQS   VSSTATE,05           CONTENTION
 VSSTATE.VSCONT    EQ              13334  1 01-EQS   +VSCONT     EQU   VSSTATE,05,24
                                   13336  1           VSCONT1    EQS   VSSTATE,06           CONTENTION - KEYBOARD LOCKED
 VSSTATE.VSCONT1   EQ              13337  1 01-EQS   +VSCONT1    EQU   VSSTATE,06,24
                                   13339  1           VSCONT2    EQS   VSSTATE,07           CONTENTION - BID RECEIVED
 VSSTATE.VSCONT2   EQ              13340  1 01-EQS   +VSCONT2    EQU   VSSTATE,07,24
                                   13342  1           VSINB      EQS   VSSTATE,08           INBOUND (TO APPL)
 VSSTATE.VSINB     EQ              13343  1 01-EQS   +VSINB      EQU   VSSTATE,08,24
                                   13345  1           VSOUTB     EQS   VSSTATE,09           OUTBOUND (TO TERMINAL)
 VSSTATE.VSOUTB    EQ              13346  1 01-EQS   +VSOUTB     EQU   VSSTATE,09,24
                                   13348  1           VSOUTBSS   EQS   VSSTATE,10           OUTBOUND SIGNAL SENT
 VSSTATE.VSOUTBSS  EQ              13349  1 01-EQS   +VSOUTBSS   EQU   VSSTATE,10,24
                                   13351  1           VSUNBIND   EQS   VSSTATE,11           UNBIND RECEIVED
 VSSTATE.VSUNBIND  EQ              13352  1 01-EQS   +VSUNBIND   EQU   VSSTATE,11,24
                                   13354  1           VSLOSTER   EQS   VSSTATE,12           LOSTERM RECEIVED
 VSSTATE.VSLOSTER  EQ              13355  1 01-EQS   +VSLOSTER   EQU   VSSTATE,12,24
                                   13357  1           VSCLEAN    EQS   VSSTATE,13           CLEANUP RECEIVED
 VSSTATE.VSCLEAN   EQ              13358  1 01-EQS   +VSCLEAN    EQU   VSSTATE,13,24
                                   13360  1           VSVEND     EQS   VSSTATE,14           VTAM HAS ENDED
 VSSTATE.VSVEND    EQ              13361  1 01-EQS   +VSVEND     EQU   VSSTATE,14,24
0000009 00                         13364  1           POSTREAS   FLAG  ,                   POST REASON
 POSTREAS.POSTSDT  80 ONES         13368  1                      FLAG  POSTSDT              START DATA TRAFFIC RECEIVED
 POSTREAS.POSTSENC 40 ONES         13373  1                      FLAG  POSTSENC             SEND COMPLETED
 POSTREAS.POSTRCVC 20 ONES         13378  1                      FLAG  POSTRCVC             RECEIVE COMPLETED
 POSTREAS.POSTBIND 10 ONES         13383  1                      FLAG  POSTBIND             BIND RECEIVED
 POSTREAS.POSTUBIR 08 ONES         13388  1                      FLAG  POSTUBIR             UNBIND RECEIVED
 POSTREAS.POSTLOST 04 ONES         13393  1                      FLAG  POSTLOST             LOSTERM RECEIVED
 POSTREAS.POSTSHUT 02 ONES         13398  1                      FLAG  POSTSHUT             SHUTDOWN RECEIVED
000000A                            13404  1           VTWR       DS    X               COMMAND TO RESPOND TO IF VTWFSR1+VTWFSR2
                                   13405  1           VTWRUD     EQS   VTWR,01              USER DATA
 VTWR.VTWRUD    EQ                 13406  1 01-EQS   +VTWRUD     EQU   VTWR,01,24
                                   13408  1           VTWRCAN    EQS   VTWR,02              CANCEL
 VTWR.VTWRCAN   EQ                 13409  1 01-EQS   +VTWRCAN    EQU   VTWR,02,24
                                   13411  1           VTWRLUS    EQS   VTWR,03              LUGICAL UNIT STATUS
 VTWR.VTWRLUS   EQ                 13412  1 01-EQS   +VTWRLUS    EQU   VTWR,03,24
                                   13414  1           VTWRBID    EQS   VTWR,04              BID
 VTWR.VTWRBID   EQ                 13415  1 01-EQS   +VTWRBID    EQU   VTWR,04,24
000000B                            13418  1           RS3270     DS    X                   READ STATE OF THE 3270
                                   13419  1           RSNORM     EQS   RS3270,1             NORMAL READ
 RS3270.RSNORM    EQ               13420  1 01-EQS   +RSNORM     EQU   RS3270,1,24
                                   13422  1           RSRETRYE   EQS   RS3270,5             RETRY ENTER (USER AID)
 RS3270.RSRETRYE  EQ               13423  1 01-EQS   +RSRETRYE   EQU   RS3270,5,24
                                   13425  1           RSRETRYR   EQS   RS3270,6             RETRY READ  (QUERY)
 RS3270.RSRETRYR  EQ               13426  1 01-EQS   +RSRETRYR   EQU   RS3270,6,24
000000C                            13429  1           AID3270R   DS    X                   AID CHARACTER RECEIVED
 00000D                            13430  1           AID3270    DS    X                   3270 AID CHARACTER RECEIVED
1VETS     (VETS2025) (12:59) (15MAR04) LOCAL CONTROL BLOCKS                                      VTWA                       Page    9
0Current Usings:  (CP,R11) (CV,R12)
0D-Loc  Object Code    Addr1 Addr2  Stmt Lv Lineno    Source Statement           (Hibal 5, Asmedit 3.3)  HLASM R4.0  2004/03/15 12.59
+_____  ______ ____    _____ _____  ____ __ ______    ______ _________
000000E                            13431  1           VTWRCMD    DS    X                   READ COMMAND TO BE PROCESSED
 00000F                            13432  1           VTWRMODE   DS    X                   REPLY MODE (0,1, OR 2)
 000010                            13433  1           VTWQLIST   DS    XL16                LIST FOR QUERY REPLY
                                   13434  1
 000020                            13435  1                      DS    0F
 000020                            13436  1           VTWHEI     DS    H                   SCREEN HEIGHT CURRENT
 000022                            13437  1           VTWWID     DS    H                   SCREEN WIDTH
 000024                            13438  1           VTWBUFL    DS    F                   Buffer length (height*width)
                                   13439  1
 000028                            13440  1           VTWHEID    DS    H                   SCREEN HEIGHT DEFAULT
 00002A                            13441  1           VTWWIDD    DS    H                   SCREEN WIDTH
 00002C                            13442  1           VTWBUFLD   DS    F                   BUFFER LENGTH (HEIGHT*WIDTH)
                                   13443  1
 000030                            13444  1           VTWHEIA    DS    H                   SCREEN HEIGHT ALTERNATE
 000032                            13445  1           VTWWIDA    DS    H                   SCREEN WIDTH
 000034                            13446  1           VTWBUFLA   DS    F                   BUFFER LENGTH (HEIGHT*WIDTH)
                                   13447  1
 000038                            13448  1           VTWHEIT    DS    H                   SCREEN HEIGHT PHYSICAL TERMINAL
 00003A                            13449  1           VTWWIDT    DS    H                   SCREEN WIDTH
                                   13450  1
 00003C                            13451  1           VTWBUFGC   DS    F                   GETCORE SIZE OF SCREEN BUFFERS
                                   13452  1
 000040                            13453  1           VTWAECB    DS    F                   ECB FOR VTAM ASYNCHRONOUS OPERATIONS
 000044                            13454  1           VTWSECB    DS    F                   ECB FOR IN=LINE WAITS
 000048                            13455  1           VTWBINDP   DS    A                   POINTER TO BIND IMAGE
 00004C                            13456  1           VTWAAPPL   DS    CL8                 NAME OF PRIMARY LU
 000054                            13457  1           VTWACID    DS    F                   CID OF VTAM SESSION WITH APPLICATION
 000058                            13458  1           VTWAACBP   DS    A                   POINTER TO VTAM ACB
 00005C                            13459  1           VTWANIBP   DS    A                   POINTER TO VTAM NIB (WHEN PRESENT)
 000060                            13460  1           VTWRSIZI   DS    F                   VTAM RUSIZE INBOUND (TO APPLICATION)
 000064                            13461  1           VTWRSIZO   DS    F                   RUSIZE OUTBOUND (FROM APPLICATION)
 000068                            13462  1           VTWIRUC    DS    F                   HEAD OF INBOUND RU CHAIN
 00006C                            13463  1           VTWORUC    DS    F                   HEAD OF OUTBOUND RU CHAIN
 000070                            13464  1           VTWIBLST   DS    F                   POINTER TO VTAM BUFFLST
 000074                            13465  1           VTWSRSEQ   DS    H                   SEQ NUMBER TO RESPOND TO
 000078                            13466  1           VTWSSENS   DS    F                   LU SENSE TO BE SENT
 00007C                            13467  1           VTWRSENS   DS    F                   RECEIVED LU SENSE | LU STATUS
 000080                            13468  1           VTWSRTNC   DS    0F                  SEND ABNORMAL RETURN CODES
 000080                            13469  1           VTWSRTN    DS    H
 000082                            13470  1           VTWSFDBK   DS    H
 000084                            13471  1           VTWRRTNC   DS    0F                  RECEIVE ABNORMAL RETURN CODES
 000084                            13472  1           VTWRRTN    DS    H
 000086                            13473  1           VTWRFDBK   DS    H
 000088                            13474  1           VTWCPSAV   DS    F                   SAV CPR ON LOGON
 00008C                            13475  1           VTWLNSAV   DS    F                   SAV LINE NUMBER ON LOGON
                                   13476  1
 000090                            13477  1           VTWICPOS   DS    F                   Insert Cursor Index
                                   13478  1           *
                                   13479  1           *  Screen image:
                                   13480  1           *     Each character that is to be displayed on the screen has
                                   13481  1           *     information in each of the following buffers. These buffers
                                   13482  1           *     are maintained in 3270 format.
                                   13483  1           *
                                   13484  1           *     Field attribute characters (FAC) are stored as text.  They are
1VETS     (VETS2025) (12:59) (15MAR04) LOCAL CONTROL BLOCKS                                      VTWA                       Page   10
0Current Usings:  (CP,R11) (CV,R12)
0D-Loc  Object Code    Addr1 Addr2  Stmt Lv Lineno    Source Statement           (Hibal 5, Asmedit 3.3)  HLASM R4.0  2004/03/15 12.59
+_____  ______ ____    _____ _____  ____ __ ______    ______ _________
0                                  13485  1           *     identified as being less than X'40', but not Null (X'00').
                                   13486  1           *     The X'02' bit (Reserved in IBM's definition) is turned on
                                   13487  1           *     when any FAC is stored, so that a X'00' FAC will not appear as
                                   13488  1           *     a character "NULL".
                                   13489  1           *
                                   13490  1           *   Because the Wylbur Model Terminal does not distinguish between
                                   13491  1           *     NULL (X'00') and SPace (X'40'), NULLs will be changed to SPaces
                                   13492  1           *     when data is read from the ASCII terminal, and trailing SPaces
                                   13493  1           *     (in addition to NULLs) will be stripped from incoming fields.
                                   13494  1           *
 000094                            13495  1           VTWTEXTP   DS    A                   Screen Text PTR
 000098                            13496  1           VTWHIP     DS    A                   Screen Highlight PTR
 00009C                            13497  1           VTWCOLP    DS    A                   Screen Color PTR
 0000A0                            13498  1           VTWCSP     DS    A                   Screen Character Set
 0000A4                000A4 000A4 13499                       END
1VETS     (VETS2025) (12:59) (15MAR04) LOCAL CONTROL BLOCKS                                      VTBH                       Page   11
0Current Usings:  (CP,R11) (CV,R12)
0Loc    Object Code    Addr1 Addr2  Stmt Lv Lineno    Source Statement           (Hibal 5, Asmedit 3.3)  HLASM R4.0  2004/03/15 12.59
+___    ______ ____    _____ _____  ____ __ ______    ______ _________
0                                  13509              ***
                                   13510              ***  VTBH --
                                   13511              ***    VTAM TERMINAL BUFFER HEADER.  THIS CONTROL BLOCK IS PLACED
                                   13512              ***    BEFORE THE VTAM RU, IN ORDER TO FORM A CHAIN OF BUFFERS
                                   13513              ***    IN MEMORY
                                   13514              ***
-000000                00000 00010 13516              VTBHEAD  RECORD BEGIN              BUFFER HEADER
 000000                            13524  1           VTBID      DS    CL4                 SELF IDENTIFICATION ("VTBH")
 000004                            13525  1           VTBNEXT    DS    A                   POINTER TO NEXT BUFFER (0=LAST)
 000008                            13526  1           VTBDLENG   DS    H                   LENGTH OF DATA AREA IN BUFFER
 00000A                            13527  1           VTBCOUNT   DS    H                   COUNT OF DATA IN BUFFER
 00000C                            13528  1           VTBSEQNO   DS    H                   VTAM SEQUENCE NUMBER
 00000E 00                         13529  1           VTBFLAG1   FLAG  ,                   FLAGS
 VTBFLAG1.VTBFPROC 80 ONES         13533  1                      FLAG  VTBFPROC             THIS BUFFER HAS BEEN PROCESSED
 VTBFLAG1.VTBFLIC  40 ONES         13538  1                      FLAG  VTBFLIC              THIS BUFFER IS LAST IN CHAIN
 VTBFLAG1.VTBFALT  20 ONES         13543  1                      FLAG  VTBFALT              ALTERNATE CHARACTER SET INDICATOR
 VTBFLAG1.VTBFCDI  10 ONES         13548  1                      FLAG  VTBFCDI              CHANGE DIRECTION INDICATOR RECEIVED
 VTBFLAG1.VTBFBBI  08 ONES         13553  1                      FLAG  VTBFBBI              THIS BUFFER IS BEGINNING OF BRACKET
 VTBFLAG1.VTBFEBI  04 ONES         13558  1                      FLAG  VTBFEBI              THIS BUFFER IS END OF BRACKET
 00000F                            13563  1                      DS    X
 000010                            13564  1           VTBDATA    DS    0X                  DATA FOR THE RU
 000010                00010 00010 13565                       END
1VETS     (VETS2025) (12:59) (15MAR04) LOCAL MACROS                                                                         Page   12
0Current Usings:  (CP,R11) (CV,R12)
0Loc    Object Code    Addr1 Addr2  Stmt Lv Lineno    Source Statement           (Hibal 5, Asmedit 3.3)  HLASM R4.0  2004/03/15 12.59
+___    ______ ____    _____ _____  ____ __ ______    ______ _________
0                                  13575                       MACRO
                                   13576              &LABEL   ERROR &STRING
                                   13577              &KSTRING SETA  K'&STRING
                                   13578              &LABEL   BAL   R15,ERR&SYSNDX
                                   13579                       DC    AL2(&KSTRING-2),C&STRING
                                   13580              ERR&SYSNDX DS  0H
                                   13581                       MEND
1VETS     (VETS2025) (12:59) (15MAR04) User Command                  SETVOPT -- SET VOPTIONS command                        Page   13
0Current Usings:  (CP,R11) (CV,R12)
0Loc    Object Code    Addr1 Addr2  Stmt Lv Lineno    Source Statement           (Hibal 5, Asmedit 3.3)  HLASM R4.0  2004/03/15 12.59
+___    ______ ____    _____ _____  ____ __ ______    ______ _________
0                                  13583              *
                                   13584              **  SETVOPT -- SET VOPTIONS Command.
                                   13585              *
                                   13586              *  SET VOPT [terminal_name[,number]] [,{ON|OFF}]
                                   13587              *
                                   13588              *  "terminal_name" omitted enables|disables entire interface
                                   13589              *  "number" indicates number of consecutive terminals
                                   13590              *  "number" omitted defines only one terminal
                                   13591              *  "ON" (default) defines and enables the terminals or interface
                                   13592              *  "OFF" defines and disables the terminals or interface
                                   13593              *
0000982                00932 080E2 13595                       DATA  BEGIN
 000982 00                         13600  1           VETSFLG    FLAG  ,                   FLAGS
 VETSFLG.VACTIVE   80 ONES         13604  1                      FLAG  VACTIVE             INTERFACE HAS BEEN REFERENCED
 VETSFLG.VON       40 ONES         13609  1                      FLAG  VON                 INTERFACE IS ENABLED
 VETSFLG.SHOVA     20 ONES         13614  1                      FLAG  SHOVA               FOR SHO VOPT (parm "A" specified)
 VETSFLG.SHOVSHON  10 ONES         13619  1                      FLAG  SHOVSHON            FOR SHO VOPT (some terminal shown)
 000983 00                                1
 000984 00000000                   13624  1           ACBPTR     DC    A(0)                POINTER TO ACB (TERMINAL) LIST
 000988 00000000                   13625  1           LASTAACB   DC    A(0)                POINTER TO LAST ASSIGNED
 00098C 4040404040404040           13626  1           TERMNAME   DC    CL8' '              WORK AREA FOR NEXTNAME
 000994 00000000                   13627  1           TERMILIM   DC    F'0'
 000998 00000000                   13628  1           TERMNUMB   DC    F'0'
 000017                00000 080E2 13629                       END
0                                  13636              *
                                   13637              **    REGISTER USE FOR THIS ROUTINE:
                                   13638              **       R2 =  NUMBER OF TERMINALS
                                   13639              **       R3 =  L'NAME
                                   13640              **       R4 =  NAME
                                   13641              **       R5 =  ACB
                                   13642              **       R6 =  ON/OFF REMEMBERANCE
                                   13643              *
0000018 188D/4570 C74C_            13645              SETVOPT  GENTER
 USING  *,R7
                                   13662              *QSNAP 'ENTERED SETVOPT'
 000026 9102 C4C5/4710_004C5       13663                       IF    ~CVFTEST,BEGIN      Production Wylbur...
 00002E 4110 7898/4100_      008BE 13678  1                      TSEG  'Command not yet available in '
 000040 4110 781E/4100_      00844 13696  1                      ABORT 'production Wylbur.'
 00004C                            13703                       END
                                   13707
 00004C 9110 B3BE/4710_003BE       13708                       IF    (~CPSFOPR),'ABORT "Invalid command"'
0000060 9180 795C/4710_00982       13736                       IF    (~VACTIVE),'SET VACTIVE+VON'        ACTIVATE INTERFACE
 00006C 1B44/1B22                  13765                       CLEAR R4,R2               NO NAME OR NUMBER YET
 000070 4160 0001            00001 13771                       LA    R6,1                DEFAULT ON
 000074                            13772                       LOOP  BEGIN               BEGIN LOOP
 000074 5810 B08C/1B00_      0008C 13778  1                      SCAN  ,                   GET PARM
 0000C2 58E0 776A/0DEE       00790 13809  1                      SCANCHK
 0000C8 1200/4780 7116             13814  1                      IF    (R0,Z),EXIT         EXIT NO MORE
                                   13831  1         C            IF    ((R0,EQ,X'2'),AND,((@R1,EQ,C'ON'),OR,(@R1,EQ,C'on'))),
 0000CE 5900 776E/4770_      00794        1                            'LA R6,1'
1VETS     (VETS2025) (12:59) (15MAR04) User Command                  SETVOPT -- SET VOPTIONS command                        Page   14
0Current Usings:  (*,R7) (CP,R11) (CV,R12)
0Loc    Object Code    Addr1 Addr2  Stmt Lv Lineno    Source Statement           (Hibal 5, Asmedit 3.3)  HLASM R4.0  2004/03/15 12.59
+___    ______ ____    _____ _____  ____ __ ______    ______ _________
0                                  13884  1         C           ELSEIF ((R0,EQ,X'3'),AND,((@R1,EQ,C'OFF'),OR,(@R1,EQ,C'off'))),
 0000EE 70CC/70CC/47F0_000EE 000D4        1                            'CLEAR R6'
 000110 70EE/70EE/47F0_00110 000F8 13951  1                      ELSEIF (@R1,GE,X'F0'),BEGIN         IF NUMBER
 00011C 58E0 7776/0DEE       0079C 13978  2                        DTB   @R1,(R0)
 000122 182F                       13995  2                        LR    R2,R15
 000124                            13996  1                      END   ,                             END NUMBER
 000124 7102/47F0 7112 00124 0011A 14000  1                      ELSE  BEGIN                         ELSE NAME
 000128 1830                       14011  2                        LR    R3,R0
 00012A 5930 777A/47D0_      007A0 14012  2                        CEIL  R3,8
 000136 1841                       14031  2                        LR    R4,R1
 000138                            14032  1                      END   ,                             END NAME
 000138 47F0 704E            00074 14036                       END   ,                             END LOOP
000013C 1244/4770 712E             14042                       IF    (R4,ZERO),BEGIN               IF NO NAME
 000142 1266/47D0 7126_            14056  1                      IF    (R6,POS),'SET VON'
 00014C 712A/47F0 712E_0014C 00146 14081  1                      ELSE  'CLEAR VON'
 000154                            14104                       END   ,                             END NO NAME
0000154 7132/47F0 71BC 00154 00140 14109                       ELSE  BEGIN                         ELSE NAME
 000158 1803                       14120  1                      LR    R0,R3
 00015A 1814                       14121  1                      LR    R1,R4
 00015C 4DE0 74C6            004EC 14122  1                      LCALL NEXTNAME                      GET THE FIRST NAME
0000160 1211/4780 71BC             14125  1                      WHILE (R1,NZ),BEGIN                 WHILE MORE TERMINALS
 000166 4DE0 758C            005B2 14141  2                        LCALL FINDNAME                      FIND THE ACB
 00016A 1251                       14143  2                        LTR   R5,R1
 USING  ACBWYL,R5                  14144  2                        WITH  (ACBWYL,R5)
 00016C 4770 71A0            001C6 14157  2                        IF    (ZERO),BEGIN                  IF NO ACB
 000170 58E0 777E/0DEE       007A4 14168  3                          ACALL GENACB                        GENERATE ONE
 000176 1251                       14172  3                          LTR   R5,R1
 000178 4770 7162/4110_      00188 14173  3                          IF    (ZERO),'ABORT "GENACB FAILED"'
 000188 4230 5089            00089 14196  3                          STC   R3,ACBWAPLT                   MOVE IN NAME
 00018C D207 508A 7966 0008A 0098C 14197  3                          MVC   ACBWAPPL,TERMNAME
 000192 5810 795E/1211       00984 14198  3                          LT    R1,ACBPTR                     ADD TO LIST
 000198 4770 7182            001A8 14202  3                          IF    (ZERO),BEGIN                  IF EMPTY
 00019C 5050 5080            00080 14213  4                            ST    R5,ACBWNEXT
 0001A0 5050 795E            00984 14214  4                            ST    R5,ACBPTR
 0001A4 5050 7962            00988 14215  4                            ST    R5,LASTAACB
 0001A8                            14216  3                          END   ,                             END EMPTY
00001A8 7186/47F0 71A0 001A8 0019A 14221  3                          ELSE  BEGIN                         ELSE ADD
 0001AC 5010 5080            00080 14232  4                            ST    R1,ACBWNEXT
 0001B0 1821                       14233  4                            LR    R2,R1
 DROP   ACBWYL,R5                  14234  4                            WITH  (ACBWYL,R2),BEGIN
 USING  ACBWYL,R2
 0001B2 5910 2080/4780_      00080 14256  5                              WHILE (R1,NE,ACBWNEXT),'L R2,ACBWNEXT'
 0001C2 5050 2080            00080 14282  5                              ST    R5,ACBWNEXT
 USING  ACBWYL,R5                  14283  4                            END
 DROP   ACBWYL,R2
 0001C6                            14300  3                          END   ,                             END ADD
 0001C6                            14304  2                        END   ,                             END NO ACB
00001C6 1266/47D0 71AA_            14309  2                        IF    (R6,POS),'SET ACBWON'
 0001D0 71AE/47F0 71B2_001D0 001CA 14334  2                        ELSE  'CLEAR ACBWON'
1VETS     (VETS2025) (12:59) (15MAR04) User Command                  SETVOPT -- SET VOPTIONS command                        Page   15
0Current Usings:  (ACBWYL,R5) (*,R7) (CP,R11) (CV,R12)
0Loc    Object Code    Addr1 Addr2  Stmt Lv Lineno    Source Statement           (Hibal 5, Asmedit 3.3)  HLASM R4.0  2004/03/15 12.59
+___    ______ ____    _____ _____  ____ __ ______    ______ _________
00001D8 1B00                       14358  2                        CLEAR R0
 0001DA 4DE0 74C6            004EC 14362  2                        LCALL NEXTNAME                      GET NEXT NAME
 0001DE 47F0 713A            00160 14364  1                      END   ,                             END MORE TERMINALS
 DROP   ACBWYL,R5
 0001E2                            14374                       END   ,                             END NAME
00001E2 47F0 C7DE            007DE 14379                       B     CVNEXT                        RETURN
 DROP   *,R7                       14380                       DROP  BR
1VETS     (VETS2025) (12:59) (15MAR04) VLOGCHK -- Check to see if VLOGONs are allowed                                       Page   16
0Current Usings:  (CP,R11) (CV,R12)
0Loc    Object Code    Addr1 Addr2  Stmt Lv Lineno    Source Statement           (Hibal 5, Asmedit 3.3)  HLASM R4.0  2004/03/15 12.59
+___    ______ ____    _____ _____  ____ __ ______    ______ _________
0                                  14388
                                   14389
                                   14390                VLOGCHK -- Routine to check to see if VLOGONs are allowed.
                                   14391                  Called from the VLOGON function.
                                   14392
                                   14393                  On exit, R15 (and cc):
                                   14394                    0 - allowed
                                   14395                    1 - not allowed
                                   14396

00001E6 50E0 D000/9008_      00000 14397              VLOGCHK  XPROC
 USING  *,R7
 000200 9140 7782/47E0_00982       14437                       IF    VON,'CLEAR R15'     VLOGONs are allowed
 00020A 700E/47F0 7012_0020A 00206 14461                       ELSE  'LA R15,1'
 000212 18D8/9808 D004_            14478                       PEND
 DROP   *,R7
1VETS     (VETS2025) (12:59) (15MAR04) VSESCHK -- Check to see if a VLOGON session is active                                Page   17
0Current Usings:  (CP,R11) (CV,R12)
0Loc    Object Code    Addr1 Addr2  Stmt Lv Lineno    Source Statement           (Hibal 5, Asmedit 3.3)  HLASM R4.0  2004/03/15 12.59
+___    ______ ____    _____ _____  ____ __ ______    ______ _________
0                                  14499
                                   14500
                                   14501                VSESCHK -- Routine to check to see if a VLOGON session is
                                   14502                  currently active.  Called from the VSESSION function.
                                   14503
                                   14504                  On exit, R15 (and cc):
                                   14505                    0 - no
                                   14506                    1 - yes
                                   14507

0000220 50E0 D000/9008_      00000 14508              VSESCHK  XPROC
 USING  *,R7
 00023A D603 B1E8 B1E8_001E8 001E8 14548                       IF    (CPVTWAP,Z),'CLEAR R15'  No session
 000246 7010/47F0 7014_00246 00242 14573                       ELSE  'LA R15,1'          Yes, a session is active
 00024E 18D8/9808 D004_            14590                       PEND
 DROP   *,R7
1VETS     (VETS2025) (12:59) (15MAR04) User Command                 SHOWVOPT -- SHOW VOPTIONS command                       Page   18
0Current Usings:  (CP,R11) (CV,R12)
0Loc    Object Code    Addr1 Addr2  Stmt Lv Lineno    Source Statement           (Hibal 5, Asmedit 3.3)  HLASM R4.0  2004/03/15 12.59
+___    ______ ____    _____ _____  ____ __ ______    ______ _________
0                                  14611              *
                                   14612              **  SHOWVOPT -- SHOW VOPTIONS command.
                                   14613              *
0                                  14615              *
                                   14616              **    REGISTER USE FOR THIS ROUTINE:
                                   14617              **       R2 =
                                   14618              **       R3 = FIRST ACB
                                   14619              **       R4 = USER CONTROL PAGE
                                   14620              **       R5 = ACB
                                   14621              **       R6 = VTWA
                                   14622              *
000025C 188D/4570 C74C_            14624              SHOWVOPT GENTER
 USING  *,R7
 00026A 9102 C4C5/4710_004C5       14641                       IF    ~CVFTEST,BEGIN      Production Wylbur...
 000272 4110 7654/4100_      008BE 14656  1                      TSEG  'Command not yet available in '
 000284 4110 75DA/4100_      00844 14674  1                      ABORT 'production Wylbur.'
 000290                            14681                       END
                                   14685
 000290 94CF 7718      00982       14686                       CLEAR SHOVA+SHOVSHON
 000294 5810 B08C/1B00_      0008C 14696                       SCAN  ,                   GET PARM
 0002E2 58E0 7526/0DEE       00790 14727                       SCANCHK
 0002E8 1200/47D0 7090_            14732                       IF    ((R0,POS),AND,(@R1,EQ,C'A')),'SET SHOVA'
00002FA 4110 C028/4100_      00028 14773                       TSEG  CVWYLSSN,,TB
 00030C 4110 7693/4100_      008FD 14801                       TSEG  'Interface  '
 00031E 9140 7718/47E0_00982       14819                       IF    (VON),'TSEG "ON   "'
 000338 70D2/47F0 70E4_00338 00324 14857                       ELSE  'TSEG "OFF  "'
 00034E 9180 7718/4710_00982       14891                       IF    (~VACTIVE),'TSEG "Inactive",,CR'
0000368 7102/47F0 727E 00368 00354 14930                       ELSE  BEGIN               ELSE INTERFACE IS ACTIVE
 00036C 4110 75F2/4100_      0085C 14941  1                      TSEG  'Active',,CR
 00037E 5850 771A            00984 14959  1                      L     R5,ACBPTR           R5 := TERMINAL ACB
 USING  ACBWYL,R5                  14960  1                      WITH  (ACBWYL,R5)
 000382 1235                       14973  1                      LTR   R3,R5               SAVE FIRST ACB
 000384 4770 7130/4110_      0039A 14974  1                      IF    (ZERO),'TSEG "No Terminals exist",,CR'
 00039A 7134/47F0 727E 0039A 00386 15008  1                      ELSE  BEGIN               ELSE (TERMINALS EXIST)
 00039E 4110 76A8/4100_      00912 15019  2                        TSEG   'V-Terminal     Line Application',,CR
 0003B0                            15037  2                        LOOP  BEGIN               TERMINAL LOOP
 0003B0 9120 7718/47E0_00982       15043  3                          IF    (~SHOVA,OR,ACBWALLO),BEGIN    IF SHOW
 0003C0 9610 7718      00982       15072  4                            SET   SHOVSHON
 0003C4 4110 508A/4100_      0008A 15078  4                            TSEG  ACBWAPPL
 0003D6 4100 000C/41F0_      0000C 15106  4                            TCOL  12
 0003E4 9180 5088/47E0_00088       15127  4                            IF    (ACBWON),'TSEG "ON  "'
 0003FE 7198/47F0 71AA_003FE 003EA 15165  4                            ELSE  'TSEG "OFF "'
 000414 9140 5088/47E0_00088       15199  4                            IF    (ACBWALLO),BEGIN    IF ALLOCATED
 00041C 5860 5084            00084 15214  5                              L     R6,ACBWVTWA         R6 := A(USER VTWA)
 USING  VTWA,R6                    15215  5                              WITH  (VTWA,R6)
 000420 5840 6088            00088 15228  5                              L     R4,VTWCPSAV         R4 := USER CONTROL PAGE
 000424 4820 4348            00348 15229  5                              WITH  (CP,R4),'LH R2,CPSNO'
 DROP   CP,R11
 USING  CP,R4
 USING  CP,R11
1VETS     (VETS2025) (12:59) (15MAR04) User Command                 SHOWVOPT -- SHOW VOPTIONS command                       Page   19
0Current Usings:  (ACBWYL,R5) (VTWA,R6) (*,R7) (CP,R11) (CV,R12)
0Loc    Object Code    Addr1 Addr2  Stmt Lv Lineno    Source Statement           (Hibal 5, Asmedit 3.3)  HLASM R4.0  2004/03/15 12.59
+___    ______ ____    _____ _____  ____ __ ______    ______ _________
0DROP   CP,R4
 000428 1812/1B00/41F0_            15270  5                              TNUM  (R2)
 000436 4100 0015/41F0_      00015 15292  5                              TCOL   21
                                   15313  5         C                    IF    ((VTWAAPPL,EQ,X'00'),OR,(VTWAAPPL,EQ,X'40')),
 000444 9500 604C/4780_0004C              5                                    'TSEG "   -- "'
 000466 7200/47F0 7212_00466 00452 15369  5                              ELSE  'TSEG VTWAAPPL'
 00047C 1B00/41F0 B050_            15413  5                              TCR
0DROP   VTWA,R6                    15439  4                            END   ,                   END ALLOCATED
0000488 7222/47F0 7248 00488 0041A 15449  4                            ELSE  BEGIN               ELSE (NOT ALLOCATED)
 00048C 9120 5088/47E0_00088       15460  5                              IF    (ACBNAVAL),'TSEG "V-Terminal not available"'
 0004A6 1B00/41F0 B050_            15498  5                              TCR
 0004B2                            15523  4                            END   ,                   END (NOT ALLOCATED)
 0004B2                            15527  3                          END   ,                             END SHOW
00004B2 5850 5080            00080 15532  3                          L     R5,ACBWNEXT         STEP TO NEXT TERMINAL
 0004B6 1255/4780 725C_            15533  3                          IF    ((R5,ZERO),OR,(R5,EQ,R3)),EXIT
 0004C2 47F0 7146            003B0 15564  2                        END   ,                   END TERMINAL LOOP
0                                  15570  2         C              IF    (SHOVA,AND,~SHOVSHON),
 0004C6 9120 7718/47E0_00982              2                              'TSEG "No Allocated Terminals Exist",,CR'
 0004E8                            15622  1                      END   ,                   END TERMINALS EXIST
 DROP   ACBWYL,R5                  15626                       END   ,                   END INTERFACE IS ACTIVE
00004E8 47F0 C7DE            007DE 15636                       B     CVNEXT              EXIT
 DROP   *,R7                       15637                       DROP  BR
1VETS     (VETS2025) (12:59) (15MAR04) NEXTNAME -- Returns Next Terminal Name                                               Page   20
0Current Usings:  (CP,R11) (CV,R12)
0Loc    Object Code    Addr1 Addr2  Stmt Lv Lineno    Source Statement           (Hibal 5, Asmedit 3.3)  HLASM R4.0  2004/03/15 12.59
+___    ______ ____    _____ _____  ____ __ ______    ______ _________
0                                  15645              *
                                   15646              **  NEXTNAME -- Routine to return the next name of a terminal when
                                   15647              **              the first name and binary count are known.
                                   15648              **
                                   15649              *
                                   15650              **    On entry:
                                   15651              **      R0 = L'name for initial call
                                   15652              **      R0 = 0 for sucessive calls
                                   15653              **      R1 = @name for initial call
                                   15654              **      r2 = 0 for only 1 terminal
                                   15655              **      r2 = binary number of sucessive terminals
                                   15656              *
                                   15657              **    On exit:
                                   15658              **      R1 = @name of terminal, 8 characters blank filled
                                   15659              **      R0 = 0 indicates all applicable names have been delivered
                                   15660              **
                                   15661              ** Note: Trailing digits in the name are incremented, until the number
                                   15662              **       has been satisfied, or until all digits are "9".
                                   15663              **       The initialization call will always return the name entered,
                                   15664              **       with trailing spaces.
                                   15665              *
0                                  15667              *
                                   15668              **    REGISTER USE FOR THIS ROUTINE:
                                   15669              **       R2 = NUMBER OF TERMINALS (INITIAL CALL ONLY)
                                   15670              **       R3 = WORK
                                   15671              **       R4 = INDEX
                                   15672              **       R5 = INDEX LIMIT
                                   15673              **       R6 =
                                   15674              *
00004EC 50E0 D000/9008_      00000 15676              NEXTNAME PROC  ,                   DELIVER NAME OF NEXT TERMINAL
 USING  *,R7
                                   15715              *QSNAP 'ENTERED NEXTNAME'
 000506 1250/4780 7034             15716                       IF    ('LTR R5,R0',NZ),BEGIN        IF INITIAL CALL
 00050C D207 7486 7252 0098C 00758 15729  1                      MVC   TERMNAME,=X'4040404040404040'
 000512 5950 729A/47D0_      007A0 15730  1                      CEIL  R5,8
 00051E 0650/4450 7496_            15749  1                      DEX   R5,'MVC TERMNAME(0),@R1'      SAVE NAME
 000524 5050 748E            00994 15768  1                      ST    R5,TERMILIM                   SAV INDEX LIMIT
 000528 1222/4720 702C_            15769  1                      IF    (R2,NP),'LA R2,1'
 000532 5020 7492            00998 15789  1                      ST    R2,TERMNUMB
 000536 4110 7486            0098C 15790  1                      LA    R1,TERMNAME
 00053A                            15791                       END   ,                             END INITIAL CALL
000053A 7038/47F0 7090 0053A 0050A 15796              TERM2ND  ELSE  BEGIN                         ELSE 2ND CALL
 00053E 1B11                       15808  1                      CLEAR R1
 000540 D603 7492 7492_00998 00998 15812  1                      IF    (TERMNUMB,NZ),BEGIN           IF NUMBER NOT EXAUSTED
 00054A 4110 7486            0098C 15828  2                        LA    R1,TERMNAME
 00054E 5840 748E            00994 15829  2                        L     R4,TERMILIM
 000552 1F33/4334 7486             15830  2                        LC    R3,TERMNAME(R4)               R3 := DEC DIGIT
0000558 1244/47D0 708E_            15838  2           TERMLOOP     WHILE ((R4,POS),AND,(R3,GE,X'F0')),BEGIN
 000566 5E30 72DA            007E0 15871  3                          INCR  R3                            ADD 1
 00056A 5930 72DE/4730_      007E4 15874  3                          IF    (R3,LE,X'F9'),BEGIN           IF NO CARRY
1VETS     (VETS2025) (12:59) (15MAR04) NEXTNAME -- Returns Next Terminal Name                                               Page   21
0Current Usings:  (*,R7) (CP,R11) (CV,R12)
0Loc    Object Code    Addr1 Addr2  Stmt Lv Lineno    Source Statement           (Hibal 5, Asmedit 3.3)  HLASM R4.0  2004/03/15 12.59
+___    ______ ____    _____ _____  ____ __ ______    ______ _________
0000572 4234 7486            0098C 15891  4                            STC   R3,TERMNAME(R4)
 000576 4110 7486            0098C 15892  4                            LA    R1,TERMNAME
 00057A 47F0 7090            00596 15893  4                            EXIT  TERM2ND                       EXIT
 00057E                            15896  3                          END   ,                             END NO CARRY
 00057E 707C/47F0 708A 0057E 00570 15900  3                          ELSE  BEGIN                         ELSE CARRY
 000582 4330 742B            00931 15911  4                            IC    R3,=X'F0'
 000586 4234 7486            0098C 15912  4                            STC   R3,TERMNAME(R4)
 00058A 0640                       15913  4                            DECR  R4
 00058C 4334 7486            0098C 15915  4                            IC    R3,TERMNAME(R4)
 000590                            15916  3                          END   ,                             END CARRY
 000590 47F0 7052            00558 15920  2                        END   ,                             END TERMLOOP
 000594 1B11                       15925  2                        CLEAR R1                            CARRIED TOO FAR
 000596                            15929  1                      END   ,                             END NUMBER NOT EXHAUSTED
 000596                            15933                       END   ,                             END 2ND CALL
0000596 58F0 7492/06F0_      00998 15938                       DECR  R15,TERMNUMB
 0005A0 5018 0008            00008 15943                       PRETURN R1
 0005A4 18D8/9808 D004_            15945                       PEND
 DROP   *,R7
1VETS     (VETS2025) (12:59) (15MAR04) FINDNAME -- Returns Terminal ACB                                                     Page   22
0Current Usings:  (CP,R11) (CV,R12)
0Loc    Object Code    Addr1 Addr2  Stmt Lv Lineno    Source Statement           (Hibal 5, Asmedit 3.3)  HLASM R4.0  2004/03/15 12.59
+___    ______ ____    _____ _____  ____ __ ______    ______ _________
0                                  15966              *
                                   15967              **  FINDNAME -- Routine to return the ACB of a terminal when
                                   15968              **              the terminal name is known.
                                   15969              **
                                   15970              *
                                   15971              **    On entry:
                                   15972              **      TERMNAME contains the name of the terminal
                                   15973              *
                                   15974              **    On exit:
                                   15975              **      R1 = @ACB of the terminal
                                   15976              **      R1 = 0 indicates the ACB does not exist
                                   15977              *
0                                  15979              *
                                   15980              **    REGISTER USE FOR THIS ROUTINE:
                                   15981              **       R2 =
                                   15982              **       R3 =
                                   15983              **       R4 = STARTING ACB
                                   15984              **       R5 = CURRENT ACB
                                   15985              **       R6 =
                                   15986              *
00005B2 50E0 D000/9008_      00000 15988              FINDNAME PROC  ,                   FIND ACB BASED ON NAME
 USING  *,R7
                                   16027              *QSNAP 'ENTERED FINDNAME'
 0005CC 1B11                       16028                       CLEAR R1
 0005CE 5850 73B8            00984 16032                       L     R5,ACBPTR
 0005D2 1245                       16033                       LTR   R4,R5
 0005D4 4780 7030            005FC 16034                       IF    (NZ),BEGIN          IF  SOME PRESENT
 USING  ACBWYL,R5                  16045  1                      WITH  (ACBWYL,R5)
 0005D8 D507 73C0 508A_0098C 0008A 16058  1                      WHILE (TERMNAME,NE,ACBWAPPL),BEGIN  LOOP
 0005E2 5850 5080            00080 16078  2                        L     R5,ACBWNEXT
 0005E6 1954/4780 7024             16079  2                        IF    (R5,EQ,R4),EXIT
 0005EC 47F0 700C            005D8 16097  1                      END   ,                             END LOOP
00005F0 D507 73C0 508A_0098C 0008A 16103  1                      IF    (TERMNAME,EQ,ACBWAPPL),'LR R1,R5'
 DROP   ACBWYL,R5                  16127                       END   ,                   END SOME PRESENT
00005FC 5018 0008            00008 16137                       PRETURN R1
 000600 18D8/9808 D004_            16139                       PEND
 DROP   *,R7
1VETS     (VETS2025) (12:59) (15MAR04) User Command                 SHOWVSES -- SHOW VSESSION command                       Page   23
0Current Usings:  (CP,R11) (CV,R12)
0Loc    Object Code    Addr1 Addr2  Stmt Lv Lineno    Source Statement           (Hibal 5, Asmedit 3.3)  HLASM R4.0  2004/03/15 12.59
+___    ______ ____    _____ _____  ____ __ ______    ______ _________
0                                  16160              *
                                   16161              **  SHOWVSES -- SHOW VSESSION command.
                                   16162              *
000060E 188D/4570 C74C_            16164              SHOWVSES GENTER
 USING  *,R7
                                   16181              *QSNAP 'ENTERED SHOWVSES'
 00061C 9102 C4C5/4710_004C5       16182                       IF    ~CVFTEST,BEGIN      Production Wylbur...
 000624 4110 72A2/4100_      008BE 16197  1                      TSEG  'Command not yet available in '
 000636 4110 7228/4100_      00844 16215  1                      ABORT 'production Wylbur.'
 000642                            16222                       END
                                   16226
 000642 4110 7144/4100_      00760 16227                       TSEG  'VTWA at '
 000654 5810 B1E8/4100_      001E8 16245                       THEX  L:CPVTWAP,8
                                   16270
 000666 47F0 C7DE            007DE 16271                       B     CVNEXT
                                   16272
 DROP   *,R7                       16273                       DROP  BR
1VETS     (VETS2025) (12:59) (15MAR04) User Command                   SETVSES -- SET VSESSION command                       Page   24
0Current Usings:  (CP,R11) (CV,R12)
0Loc    Object Code    Addr1 Addr2  Stmt Lv Lineno    Source Statement           (Hibal 5, Asmedit 3.3)  HLASM R4.0  2004/03/15 12.59
+___    ______ ____    _____ _____  ____ __ ______    ______ _________
0                                  16281              *
                                   16282              **  SETVSES -- SET VSESSION Command.
                                   16283              *
000066A 188D/4570 C74C_            16285              SETVSES  GENTER
 USING  *,R7
                                   16302              *QSNAP 'ENTERED SETVSES'
 000678 9102 C4C5/4710_004C5       16303                       IF    ~CVFTEST,BEGIN      Production Wylbur...
 000680 4110 7246/4100_      008BE 16318  1                      TSEG  'Command not yet available in '
 000692 4110 71CC/4100_      00844 16336  1                      ABORT 'production Wylbur.'
 00069E                            16343                       END
                                   16347
 00069E 4110 70F0/4100_      00768 16348                       TSEG  'SET VSESSION is not implemented.'
 0006B0 47F0 C7DE            007DE 16366                       B     CVNEXT
                                   16367
 DROP   *,R7                       16368                       DROP  BR
1VETS     (VETS2025) (12:59) (15MAR04) User Command                          VLOGON -- VLOGON command                       Page   25
0Current Usings:  (CP,R11) (CV,R12)
0Loc    Object Code    Addr1 Addr2  Stmt Lv Lineno    Source Statement           (Hibal 5, Asmedit 3.3)  HLASM R4.0  2004/03/15 12.59
+___    ______ ____    _____ _____  ____ __ ______    ______ _________
0                                  16376              *
                                   16377              **  VLOGON -- VLOGON Command.
0                                  16379              *
                                   16380              **    REGISTER USE FOR THIS ROUTINE:
                                   16381              **       R2 =
                                   16382              **       R3 =
                                   16383              **       R4 =
                                   16384              **       R5 =
                                   16385              **       R6 = VTWA
                                   16386              *
00006B4 188D/4570 C74C_            16388              VLOGON   GENTER
 USING  *,R7
                                   16405              *QSNAP 'ENTERED VLOGON'
 0006C2 9102 C4C5/4710_004C5       16406                       IF    ~CVFTEST,BEGIN      Production Wylbur...
 0006CA 4110 712A/4100_      007EC 16421  1                      TSEG  'VLOGON command not yet available in '
 0006DC 4110 7182/4100_      00844 16439  1                      ABORT 'production Wylbur.'
 0006E8                            16446                       END
                                   16450
 0006E8 5860 B1E8/1266       001E8 16451                       LT    R6,CPVTWAP
 0006EE 4780 704E            00710 16455                       IF    NZ,BEGIN
 0006F2 4110 714E/4100_      00810 16466  1                      TSEG  'You are already logged on to a VTAM session.',,CR
 000704 4110 71B8/4100_      0087A 16484  1                      ABORT 'Type VGO to continue that session.'
 000710                            16491                       END
                                   16495
 000710 9140 72C0/4710_00982       16496                       IF    (~VON),BEGIN
 000718 4110 71DA/4100_      0089C 16511  1                      ABORT 'The VLOGON interface is not active'
 000724                            16518                       END
                                   16522
 000724 58E0 717A/0DEE       0083C 16523                       VCALL PAGETCHK            TERMINAL MUST BE PAGE MODE
                                   16527
 00072A 4DE0 72E0            009A2 16528                       LCALL LOGON               DO THE WORK (returns @VTWA in R6)
000072E 9610 BC7B      00C7B       16531                       SET CPFDISP
 000732 5870 717E            00840 16537                       L     BR,=A(MAINLINE)     BRANCH TO MAINLINE
 000736 07F7                       16538                       BR    BR
 000738                            16539                       LTORG
 000738 C9958183A389A585           16541                             =C'Inactive'
 000740 E560E38599948995           16542                             =C'V-Terminal not available'
 000758 4040404040404040           16543                             =X'4040404040404040'
 000760 E5E3E6C14081A340           16544                             =C'VTWA at '
 000768 E2C5E340E5E2C5E2           16545                             =C'SET VSESSION is not implemented.'
 000788 00000000                   16546                             =V(SEG)
 00078C 00000000                   16547                             =V(NSCAN)
 000790 00000000                   16548                             =V(SCANCHK)
 000794 00000002                   16549                             =A(X'2')
 000798 00000003                   16550                             =A(X'3')
 00079C 00000000                   16551                             =V(DTB)
 0007A0 00000008                   16552                             =A(8)
 0007A4 00006C3C                   16553                             =A(GENACB)
 0007A8 00000000                   16554                             =V(SEGTB)
 0007AC 00000000                   16555                             =V(SEGCR)
 0007B0 00000000                   16556                             =V(SEGCOL)
1VETS     (VETS2025) (12:59) (15MAR04) User Command                          VLOGON -- VLOGON command                       Page   26
0Current Usings:  (*,R7) (CP,R11) (CV,R12)
0Loc    Object Code    Addr1 Addr2  Stmt Lv Lineno    Source Statement           (Hibal 5, Asmedit 3.3)  HLASM R4.0  2004/03/15 12.59
+___    ______ ____    _____ _____  ____ __ ______    ______ _________
00007B4 D6D54040                   16557                             =C'ON  '
 0007B8 D6C6C640                   16558                             =C'OFF '
 0007BC 00000000                   16559                             =V(SEGDC)
 0007C0 D59640C193939683           16560                             =C'No Allocated Terminals Exist'
 0007DC 000000F0                   16561                             =A(X'F0')
 0007E0 00000001                   16562                             =A(1)
 0007E4 000000F9                   16563                             =A(X'F9')
 0007E8 00000000                   16564                             =V(SEGHX)
 0007EC E5D3D6C7D6D54083           16565                             =C'VLOGON command not yet available in '
 000810 E896A44081998540           16566                             =C'You are already logged on to a VTAM session.'
 00083C 00000000                   16567                             =V(PAGETCHK)
 000840 00001770                   16568                             =A(MAINLINE)
 000844 97999684A483A389           16569                             =C'production Wylbur.'
 000856 000C                       16570                             =Y((12+3)/4*4)
 000858 D6D5                       16571                             =C'ON'
 00085A 9695                       16572                             =C'on'
 00085C C183A389A585               16573                             =C'Active'
 000862 D59640E385999489           16574                             =C'No Terminals exist'
 000874 404040606040               16575                             =C'   -- '
 00087A E3A8978540E5C7D6           16576                             =C'Type VGO to continue that session.'
 00089C E3888540E5D3D6C7           16577                             =C'The VLOGON interface is not active'
 0008BE C396949481958440           16578                             =C'Command not yet available in '
 0008DB C995A58193898440           16579                             =C'Invalid command'
 0008EA D6C6C6                     16580                             =C'OFF'
 0008ED 968686                     16581                             =C'off'
 0008F0 C7C5D5C1C3C240C6           16582                             =C'GENACB FAILED'
 0008FD C995A38599868183           16583                             =C'Interface  '
 000908 D6D5404040                 16584                             =C'ON   '
 00090D D6C6C64040                 16585                             =C'OFF  '
 000912 E560E38599948995           16586                             =C'V-Terminal     Line Application'
 000931 F0                         16587                             =X'F0'
1VETS     (VETS2025) (12:59) (15MAR04) LOGON -- Process the VLOGON command                                                  Page   27
0Current Usings:  (*,R7) (CP,R11) (CV,R12)
0Loc    Object Code    Addr1 Addr2  Stmt Lv Lineno    Source Statement           (Hibal 5, Asmedit 3.3)  HLASM R4.0  2004/03/15 12.59
+___    ______ ____    _____ _____  ____ __ ______    ______ _________
0                                  16592              *
                                   16593              **   LOGON -- Routine to process the VLOGON command.  Called in order
                                   16594              **            to obtain a work area.
                                   16595              **
                                   16596              **    On entry:
                                   16597              **      logon parameters to be obtained.
                                   16598              **
                                   16599              **    On exit:
                                   16600              **      R6 = @VTWA returned.
                                   16601              **      VLOGON control blocks have been obtained
                                   16602              **      and session has been requested.  The next
                                   16603              **      expected activity is the receipt of a BIND.
                                   16604              *
0000000                00000 00014 16606              LOGONWA  RECORD BEGIN              WORK AREA
 000000                            16614  1           MODENL     DS    F                   LENGTH OF LOGMODE_NAME
 000004                            16615  1           MODEN      DS    CL8                 LOGMODE_NAME
 00000C                            16616  1           UDATAL     DS    F                   LENGTH OF USER_DATA
 000010                            16617  1           UDATA      DS    A                   @ USER_DATA
 000014                00014 00014 16618                       END
0                                  16628              *
                                   16629              **    REGISTER USE FOR THIS ROUTINE:
                                   16630              **       R2 =
                                   16631              **       R3 = RPL
                                   16632              **       R4 = NIB
                                   16633              **       R5 = ACB
                                   16634              **       R6 = VTWA
                                   16635              *
00009A2 50E0 D000/9008_      00000 16637              LOGON    PROC  LOGONWA             PROCESS LOGON COMMAND
 DROP   *,R7
 USING  *,R7
 USING  LOGONWA-(4+36),R8
                                   16690              *QSNAP 'ENTERED LOGON'
00009BC D713 8028 8028 00000 00000 16692                       CLEAR LOGONWA
00009C2 58E0 76A4/0DEE       01060 16700                       ACALL GETVTWA             GET A VTWA
 0009C8 5860 B1E8            001E8 16704                       L     R6,CPVTWAP
 USING  VTWA,R6                    16705                       USING VTWA,R6
 0009CC 9680 6004      00004       16714                       SET VTWFUACT              SET THE USER ACTIVE
0                                  16721
00009D0 5810 B08C/1B00_      0008C 16723                       SCAN   ,                   GET THE APPLICATION NAME
 000A1E 58E0 76AC/0DEE       01068 16754                       SCANCHK
 000A24 1200/4770 7090             16759                       IF    (R0,Z),BEGIN
 000A2A 45F0 708C/0018_      00A48 16773  1                      ERROR 'MISSING APPLICATION NAME'
 000A48 47F0 765A            01016 16777  1                      B     VLERROR
 000A4C                            16778                       END
0000A4C 1820                       16783                       LR    R2,R0
 000A4E 5920 76B0/47D0_      0106C 16784                       CEIL  R2,8
1VETS     (VETS2025) (12:59) (15MAR04) LOGON -- Process the VLOGON command                                                  Page   28
0Current Usings:  (VTWA,R6) (*,R7) (LOGONWA-(4+36),R8) (CP,R11) (CV,R12)
0Loc    Object Code    Addr1 Addr2  Stmt Lv Lineno    Source Statement           (Hibal 5, Asmedit 3.3)  HLASM R4.0  2004/03/15 12.59
+___    ______ ____    _____ _____  ____ __ ______    ______ _________
0000A5A 0620/4420 7710_            16803                       DEX   R2,'MVC VTWAAPPL(0),@R1'  SAVE THE APPLICATION NAME
0000A60 D607 604C 7694 0004C 01050 16823                       OC    VTWAAPPL,=X'4040404040404040'  FORCE UPPER
 000A66 1B22                       16824                       CLEAR R2                  CHECK FOR A SYNONYM
 000A68 58F0 76B4            01070 16828                       L     R15,=A(APPLTABL)
 000A6C 5920 76B8/47B0_      01074 16829              SYNONYM  WHILE (R2,LT,APPLEND-APPLTABL),BEGIN
 000A74 4112 F000            00000 16849  1                      LA    R1,@R15(R2)
 000A78 D507 604C 1000 0004C 00000 16850  1                      CLC   VTWAAPPL,@R1
 000A7E 4770 70D0/D207_      00A8C 16851  1                      IF    (EQ),'MVC VTWAAPPL,@R1+8; EXIT SYNONYM'
 000A8C 4120 2010            00010 16871  1                      LA    R2,@R2+16
 000A90 47F0 70B0            00A6C 16872                       END   ,
0000A94 DD07 604C 771C 0004C 010D8 16878                       TRT   VTWAAPPL,CHARCHK    CHECK FOR INVALID CHARACTERS
 000A9A 4780 7104            00AC0 16879                       IF    (NZ),BEGIN
 000A9E 45F0 7100/0018_      00ABC 16890  1                      ERROR 'INVALID APPLICATION NAME'
 000ABC 47F0 765A            01016 16894  1                      B     VLERROR
 000AC0                            16895                       END
0000AC0                            16900              LOGPARMS LOOP  BEGIN,              GET ADDITIONAL PARMS
 000AC0 5810 B08C/1B00_      0008C 16907  1                      SCAN  ,
 000B0E 58E0 76AC/0DEE       01068 16938  1                      SCANCHK
 000B14 1200/4780 724C             16943  1                      IF    (R0,Z),EXIT
 000B1A 1820                       16960  1                      LR    R2,R0               PARM AVAILABLE
 000B1C 5920 76BC/4770_      01078 16961  1                      IF    ((R2,EQ,=F'1'),AND,(@R1,EQ,C'M')),BEGIN  IF M=LOGMODE
 000B2C 5810 B08C/1B00_      0008C 16992  2                        SCAN  ,
 000B7A 58E0 76AC/0DEE       01068 17023  2                        SCANCHK
 000B80 1200/4770 71CE_            17028  2                        IF    (R0,Z),'EXIT LOGPARMS'
 000B8A 1820                       17050  2                        LR    R2,R0               LOGMODE NAME AVAILABLE
 000B8C 5920 76B0/47D0_      0106C 17051  2                        CEIL  R2,8
 000B98 D603 8028 8028_00000 00000 17070  2                        IF    (MODENL,ZERO),BEGIN
 000BA2 5020 8028            00000 17086  3                          ST    R2,MODENL
 000BA6 0620/4420 7716_            17087  3                          DEX   R2,'MVC MODEN(0),@R1'
 000BAC D607 802C 7694 00004 01050 17106  3                          OC    MODEN,=X'4040404040404040'  FORCE UPPER
 000BB2 DD07 802C 771C 00004 010D8 17107  3                          TRT   MODEN,CHARCHK       CHECK FOR INVALID CHARACTERS
 000BB8 4780 7222            00BDE 17108  3                          IF    (NZ),BEGIN
 000BBC 45F0 721E/0017_      00BDA 17119  4                            ERROR 'INVALID LOGON_MODE NAME'
 000BDA 47F0 765A            01016 17123  4                            B     VLERROR
 000BDE                            17124  3                          END
0000BDE                            17129  2                        END   ,
 000BDE                            17133  1                      END   ,                                       END M=LOGMODE
0000BDE 7226/7226/47F0_00BDE 00B22 17138  1                      ELSE  BEGIN               ELSE USER DATA
 000BE2 D603 8034 8034_0000C 0000C 17151  2                        IF    (UDATAL,ZERO),BEGIN
 000BEC 957D 1000/4770_00000       17167  3                          IF    (@R1,EQ,X'7D'),BEGIN IF QUOTED STRING
 000BF4 5E10 76C0            0107C 17183  4                            INCR  R1                  DEQUOTE THE STRING
 000BF8 5F20 76C4            01080 17186  4                            SL    R2,=F'2'
 000BFC                            17187  3                          END   ,                   END QUOTED STRING
0000BFC 5020 8034            0000C 17192  3                          ST    R2,UDATAL
 000C00 5010 8038            00010 17193  3                          ST    R1,UDATA
 000C04                            17194  2                        END   ,
 000C04                            17198  1                      END   ,                   END USER DATA
 000C04 47F0 7104            00AC0 17202                       END   ,                   END GET ADDITIONAL PARMS
1VETS     (VETS2025) (12:59) (15MAR04) LOGON -- Process the VLOGON command                                                  Page   29
0Current Usings:  (VTWA,R6) (*,R7) (LOGONWA-(4+36),R8) (CP,R11) (CV,R12)
0Loc    Object Code    Addr1 Addr2  Stmt Lv Lineno    Source Statement           (Hibal 5, Asmedit 3.3)  HLASM R4.0  2004/03/15 12.59
+___    ______ ____    _____ _____  ____ __ ______    ______ _________
0                                  17208
 000C08 58E0 76C8/0DEE       01084 17209                       ACALL GETACB              GET AN OPEN ACB
                                   17213
 000C0E 1211/4770 765A             17214                       IF    (R1,NZ),VLERROR     ERROR IF NOT OPENED
0                                  17232                       COMMENT                   ELSE OPEN SUCCESSFUL
 000C14 9202 6008      00008       17233                       SET   VSACBOPE            SET THE STATE
 USING  ACB,R5                     17239                       USING ACB,R5              R5 := @ACB
 000C18 5050 6058            00058 17248                       ST    R5,VTWAACBP
 000C1C 5060 5084            00084 17249                       ST    R6,ACBWVTWA
0000C20 5830 50A0            000A0 17251                       L     R3,ACBNRRPL
 USING  RPL,R3                     17252                       USING RPL,R3
 000C24 5060 3084            00084 17261                       ST    R6,RPLWVTWA
 000C28 5830 50A4            000A4 17262                       L     R3,ACBNSRPL
 000C2C 5060 3084            00084 17263                       ST    R6,RPLWVTWA
 000C30 5830 50A8            000A8 17264                       L     R3,ACBEIRPL
 000C34 5060 3084            00084 17265                       ST    R6,RPLWVTWA
 000C38 5830 50AC            000AC 17266                       L     R3,ACBEORPL
 000C3C 5060 3084            00084 17267                       ST    R6,RPLWVTWA
 000C40 5830 50B0            000B0 17268                       L     R3,ACBBTRPL
 000C44 5060 3084            00084 17269                       ST    R6,RPLWVTWA
0                                  17271
 000C48 5840 605C/1244       0005C 17272                       LT    R4,VTWANIBP         GET THE NIB
 000C4E 4770 7342            00CFE 17276                       IF    (ZERO),BEGIN        IF NIB NOT PRESENT
 000C52 4120 0040            00040 17287  1                      LA    R2,NIBLNIB          R2 := L'NIB
 000C56 1802                       17288  1                      LR    R0,R2
 000C58 58E0 76CC/0DEE       01088 17289  1                      VCALL GETCORE
 000C5E 1841                       17293  1                      LR    R4,R1               R4 := @NIB
 USING  ISTDNIB,R4                 17294  1                      USING ISTDNIB,R4
 000C60 5040 605C            0005C 17303  1                      ST    R4,VTWANIBP
0                                  17305  1         C            GENCB BLK=NIB,AM=VTAM,WAREA=(R4),LENGTH=(R2),PROC=KEEP,
 000C64 5040 72D4/4020_      00C90        1                            USERFLD=0,MODE=RECORD,SDT=SYSTEM,RESPLIM=1,LISTEND=YES
 000CE0 12FF/4780 7342_            17362  1                      FAIL  (R15,NZ),VLOGON,'GENERATE NIB REFUSED'
 000CFE                            17388                       END   ,                   END NIB NOT PRESENT
0                                  17393              *                                  DO A SETLOGON
                                   17394              *QSNAP 'DO A SETLOGON'
 000CFE 5830 50AC            000AC 17395              SLOGON   L     R3,ACBEORPL         R3 := @ RPL
                                   17396                       USING RPL,R3
0000D02 D703 6044 6044 00044 00044 17399                       CLEAR VTWSECB
 000D08 1813/0700/91FF_            17406                       SETLOGON RPL=(R3),OPTCD=(ASY,START),ECB=VTWSECB
 000D60 1B00                       17459                       CLEAR R0
 000D62 4110 6044            00044 17463                       LA    R1,VTWSECB
 000D66 58E0 76D0/0DEE       0108C 17464                       VCALL WAITECB
0000D6C 1813/4100 0002_            17469                       CHECK RPL=(R3)
 000D7C 1B22                       17476                       CLEAR R2
 000D7E 49F0 770A/47D0_      010C6 17480                       IF    (R15,GT,=H'4'),'LH R1,=H"28"'
 000D8A 73D2/47F0 73EA 00D8A 00D84 17502                       ELSE  BEGIN
 000D8E 4900 770E/4770_      010CA 17513  1                      IF    (R0,EQ,=H'24'),'LR R1,R0'
1VETS     (VETS2025) (12:59) (15MAR04) LOGON -- Process the VLOGON command                                                  Page   30
0Current Usings:  (RPL,R3) (ISTDNIB,R4) (ACB,R5) (VTWA,R6) (*,R7) (LOGONWA-(4+36),R8) (CP,R11) (CV,R12)
0Loc    Object Code    Addr1 Addr2  Stmt Lv Lineno    Source Statement           (Hibal 5, Asmedit 3.3)  HLASM R4.0  2004/03/15 12.59
+___    ______ ____    _____ _____  ____ __ ______    ______ _________
0000D98 73E0/47F0 73EA 00D98 00D94 17535  1                      ELSE  BEGIN
 000D9C 1F11/4310 300D             17546  2                        LC    R1,RPLRTNCD         R1 := RTNCD
 000DA2 4320 300E            0000E 17553  2                        IC    R2,RPLFDB2          R2 := FDBK2
 000DA6                            17554  1                      END
 000DA6                            17558                       END
 000DA6 5910 76D4/47D0_      01090 17562                       CEIL  R1,28
                                   17581              *QSNAP (R1,R2)
0000DB2 58F1 73FC            00DB8 17583                       L     R15,SLOGTABL(R1)
 000DB6 07FF                       17584                       BR    R15                 BRANCH TO PROCESS
 000DB8 00000E2C                   17585              SLOGTABL DC    A(SLOGNORM)         NORMAL
 000DBC 00000E0A                   17586                       DC    A(SLOGERR)          ERROR SYNAD
 000DC0 00000CFE                   17587                       DC    A(SLOGON)           RETRY
 000DC4 00000E0A                   17588                       DC    A(SLOGERR)          ERROR INTEGRETY
 000DC8 00000DDE                   17589                       DC    A(SLOGENV)          ERROR ENVIRONMENT
 000DCC 00000E0A                   17590                       DC    A(SLOGERR)          ERROR LOGIC
 000DD0 00000E0A                   17591                       DC    A(SLOGERR)          ERROR BAD RPL
 000DD4 00000DD8                   17592                       DC    A(SLOGACB)          ERROR ACB NOT OPEN
-
 000DD8                            17594              SLOGACB  LABEL                     ACB NOT OPEN
 000DD8 58E0 76D8/0DEE       01094 17596                       ACALL PATHBRKN
0000DDE                            17601              SLOGENV  LABEL                     ENVIRONMENT ERROR
 000DDE 5920 76DC/4770_      01098 17603                       IF    (R2,EQ,=A(X'000A')),'ACALL ERROR10A'  VTAM FAILED
                                   17628            C          IF   ((R2,EQ,=A(X'0003')),OR,            VTAM HALT ISSUED
                                                    C                (R2,EQ,=A(X'000D')),OR,            ACB CLOSED
 000DEC 5920 76E4/4780_      010A0                                   (R2,EQ,=A(X'000E'))),'ACALL PATHBRKN'   VTAM ERROR
 000E0A                            17681              SLOGERR  LABEL
 000E0A 5830 3058            00058 17683                       L     R3,RPLRSENS
 000E0E 58E0 76F0/0DEE       010AC 17684                       ACALL FREEVTWA
 000E14 900F C780/4DE0_      00780 17688                       KAPUT SETLOGON,'UNEXPECTED VTAM RETURN CODE'
-000E2C                            17696              SLOGNORM LABEL                     NORMAL COMPLETION
0                                  17699              *                                  REQUEST THE SESSION
0000E2C D207 400C 604C 0000C 0004C 17701              REQSESS  MVC   NIBSYM,VTWAAPPL     APPLICATION TO LOGON TO
 000E32 D603 8028 8028_00000 00000 17702                       IF    (MODENL,ZERO),'MVC NIBLMODE,=CL8"M2"'  LOGMODE TO USE
 000E42 748A/47F0 7490_00E42 00E3A 17724                       ELSE  'MVC NIBLMODE,MODEN'
0                                  17742              *                                  REQUEST THE SESSION
 000E4C 9203 6008      00008       17743                       SET   VSWFBIND            SET STATE
0                                  17750              *QSNAP 'DO A REQUEST SESSION'
 000E50 D703 6044 6044_00044 00044 17751                       CLEAR VTWSECB,NIBCID,RPLRLEN
 000E62 D603 8034 8034_0000C 0000C 17768                       IF    (UDATAL,NZ),BEGIN   IF USER DATA
 000E6C D203 3020 8038 00020 00010 17784  1                      MVC   RPLAREA,UDATA
 000E72 D203 3030 8034 00030 0000C 17785  1                      MVC   RPLRLEN,UDATAL
 000E78                            17786                       END   ,                   END USER DATA
0                                  17791            C          REQSESS RPL=(R3),NIB=(R4),
1VETS     (VETS2025) (12:59) (15MAR04) LOGON -- Process the VLOGON command                                                  Page   31
0Current Usings:  (RPL,R3) (ISTDNIB,R4) (ACB,R5) (VTWA,R6) (*,R7) (LOGONWA-(4+36),R8) (CP,R11) (CV,R12)
0Loc    Object Code    Addr1 Addr2  Stmt Lv Lineno    Source Statement           (Hibal 5, Asmedit 3.3)  HLASM R4.0  2004/03/15 12.59
+___    ______ ____    _____ _____  ____ __ ______    ______ _________
0000E78 1813/0700/91FF_                                              AAREA=0,BRANCH=NO,OPTCD=(ASY,NQ),ECB=VTWSECB
 000ED4 1B00                       17837                       CLEAR R0
 000ED6 4110 6044            00044 17841                       LA    R1,VTWSECB
 000EDA 58E0 76D0/0DEE       0108C 17842                       VCALL WAITECB
0000EE0 1813/4100 0002_            17847                       CHECK RPL=(R3)
 000EF0 1B22                       17854                       CLEAR R2
 000EF2 49F0 770A/47D0_      010C6 17858                       IF    (R15,GT,=H'4'),'LH R1,=H"28"'
 000EFE 7546/47F0 755E 00EFE 00EF8 17880                       ELSE  BEGIN
 000F02 4900 770E/4770_      010CA 17891  1                      IF    (R0,EQ,=H'24'),'LR R1,R0'
 000F0C 7554/47F0 755E 00F0C 00F08 17913  1                      ELSE  BEGIN
 000F10 1F11/4310 300D             17924  2                        LC    R1,RPLRTNCD         R1 := RTNCD
 000F16 4320 300E            0000E 17931  2                        IC    R2,RPLFDB2          R2 := FDBK2
 000F1A                            17932  1                      END
 000F1A                            17936                       END
 000F1A 5910 76D4/47D0_      01090 17940                       CEIL  R1,28
                                   17959              *QSNAP (R1,R2)
0000F26 58F1 7570            00F2C 17961                       L     R15,REQSTABL(R1)
 000F2A 07FF                       17962                       BR    R15                 BRANCH TO PROCESS
 000F2C 00001038                   17963              REQSTABL DC    A(REQSNORM)         NORMAL
 000F30 00000FF4                   17964                       DC    A(REQSERR)          ERROR SYNAD
 000F34 00000E2C                   17965                       DC    A(REQSESS)          RETRY
 000F38 00000FF4                   17966                       DC    A(REQSERR)          ERROR INTEGRETY
 000F3C 00000F52                   17967                       DC    A(REQSENV)          ERROR ENVIRONMENT
 000F40 00000FC4                   17968                       DC    A(REQSLOGC)         ERROR LOGIC
 000F44 00000FF4                   17969                       DC    A(REQSERR)          ERROR BAD RPL
 000F48 00000F4C                   17970                       DC    A(REQSACB)          ERROR ACB NOT OPEN
-
 000F4C                            17972              REQSACB  LABEL                     ACB NOT OPEN
 000F4C 58E0 76D8/0DEE       01094 17974                       ACALL PATHBRKN
-000F52                            17979              REQSENV  LABEL                     ENVIRONMENT ERROR
 000F52 5920 76DC/4770_      01098 17981                       IF    (R2,EQ,=A(X'000A')),'ACALL ERROR10A'  VTAM FAILED
                                   18006            C          IF   ((R2,EQ,=A(X'0000')),OR,            LU NOT AVAILABLE
                                                    C                (R2,EQ,=A(X'0002')),OR,            LU INHIBITED
 000F60 5920 76F4/4780_      010B0                                   (R2,EQ,=A(X'0012'))),BEGIN         INSTRUCTION FAILED
 000F78 45F0 75E2/0020_      00F9E 18050  1                      ERROR 'THE APPLICATION IS NOT AVAILABLE'
 000F9E 47F0 765A            01016 18054  1                      B     VLERROR
 000FA2                            18055                       END
0                                  18060            C          IF   ((R2,EQ,=A(X'0003')),OR,            VTAM HALT ISSUED
                                                    C                (R2,EQ,=A(X'000D')),OR,            ACB CLOSED
 000FA2 5920 76E4/4780_      010A0                                   (R2,EQ,=A(X'000E'))),'ACALL PATHBRKN'   VTAM ERROR
 000FC0 47F0 7638            00FF4 18113                       B     REQSERR
-000FC4                            18115              REQSLOGC LABEL                     LOGIC ERROR
 000FC4 5920 7700/4770_      010BC 18117                       IF    (R2,EQ,=A(X'004B')),BEGIN     IF NOT FOUND
 000FCC 45F0 7630/001A_      00FEC 18133  1                      ERROR 'LOGON_MODE ENTRY NOT FOUND'
 000FEC 47F0 765A            01016 18137  1                      B     VLERROR
1VETS     (VETS2025) (12:59) (15MAR04) LOGON -- Process the VLOGON command                                                  Page   32
0Current Usings:  (RPL,R3) (ISTDNIB,R4) (ACB,R5) (VTWA,R6) (*,R7) (LOGONWA-(4+36),R8) (CP,R11) (CV,R12)
0Loc    Object Code    Addr1 Addr2  Stmt Lv Lineno    Source Statement           (Hibal 5, Asmedit 3.3)  HLASM R4.0  2004/03/15 12.59
+___    ______ ____    _____ _____  ____ __ ______    ______ _________
0000FF0                            18138                       END   ,                             END NOT FOUND
0000FF0 47F0 7638            00FF4 18143                       B     REQSERR
-000FF4                            18145              REQSERR  LABEL
 000FF4 5830 3058            00058 18147                       L     R3,RPLRSENS
 000FF8 58E0 76F0/0DEE       010AC 18148                       ACALL FREEVTWA
 000FFE 900F C780/4DE0_      00780 18152                       KAPUT REQSESS,'UNEXPECTED VTAM RETURN CODE'
-001016                            18160              VLERROR  LABEL                     VLOGON ERROR
 001016 94EF BC7B      00C7B       18162                       CLEAR CPFDISP
 00101A 1F00/BF03 F000             18169                       L2    R0,@R15
 001020 4110 F002            00002 18175                       LA    R1,@R15+2
 001024 41F0 B050/58E0_      00050 18176                       TSEG  (R1),(R0),CR        SEG THE ERROR MESSAGE
 00102E 58E0 76F0/0DEE       010AC 18200                       ACALL FREEVTWA            ABANDON THE COMMAND
 001034 47F0 C7DA            007DA 18204                       ABORT ,                   RETURN TO WYLBUR
-
 001038 5068 001C            0001C 18208              REQSNORM PRETURN R6                NORMAL COMPLETION
 00103C 18D8/9808 D004_            18210                       PEND  ,
 DROP   LOGONWA-(4+36),R8
 DROP   *,R7
 USING  *,R7
 DROP   RPL,R3                     18242                       DROP  R3,R4,R5,R6,BR
 DROP   ISTDNIB,R4
 DROP   ACB,R5
 DROP   VTWA,R6
 DROP   *,R7
 001050                            18273                       LTORG
 001050 4040404040404040           18275                             =X'4040404040404040'
 001058 D4F2404040404040           18276                             =CL8'M2'
 001060 00006960                   18277                             =A(GETVTWA)
 001064 00000000                   18278                             =V(NSCAN)
 001068 00000000                   18279                             =V(SCANCHK)
 00106C 00000008                   18280                             =A(8)
 001070 00000932                   18281                             =A(APPLTABL)
 001074 00000050                   18282                             =A(APPLEND-APPLTABL)
 001078 00000001                   18283                             =F'1'
 00107C 00000001                   18284                             =A(1)
 001080 00000002                   18285                             =F'2'
 001084 00006FF4                   18286                             =A(GETACB)
 001088 00000000                   18287                             =V(GETCORE)
 00108C 00000000                   18288                             =V(WAITECB)
 001090 0000001C                   18289                             =A(28)
 001094 000057E8                   18290                             =A(PATHBRKN)
 001098 0000000A                   18291                             =A(X'000A')
 00109C 00005842                   18292                             =A(ERROR10A)
 0010A0 00000003                   18293                             =A(X'0003')
 0010A4 0000000D                   18294                             =A(X'000D')
 0010A8 0000000E                   18295                             =A(X'000E')
 0010AC 00006A3C                   18296                             =A(FREEVTWA)
1VETS     (VETS2025) (12:59) (15MAR04) LOGON -- Process the VLOGON command                                                  Page   33
0Current Usings:  (CP,R11) (CV,R12)
0Loc    Object Code    Addr1 Addr2  Stmt Lv Lineno    Source Statement           (Hibal 5, Asmedit 3.3)  HLASM R4.0  2004/03/15 12.59
+___    ______ ____    _____ _____  ____ __ ______    ______ _________
00010B0 00000000                   18297                             =A(X'0000')
 0010B4 00000002                   18298                             =A(X'0002')
 0010B8 00000012                   18299                             =A(X'0012')
 0010BC 0000004B                   18300                             =A(X'004B')
 0010C0 00000000                   18301                             =V(SEGCR)
 0010C4 000C                       18302                             =Y((12+3)/4*4)
 0010C6 0004                       18303                             =H'4'
 0010C8 001C                       18304                             =H'28'
 0010CA 0018                       18305                             =H'24'
1VETS     (VETS2025) (12:59) (15MAR04) LOGON -- Process the VLOGON command                                                  Page   34
0Current Usings:  (CP,R11) (CV,R12)
0Loc    Object Code    Addr1 Addr2  Stmt Lv Lineno    Source Statement           (Hibal 5, Asmedit 3.3)  HLASM R4.0  2004/03/15 12.59
+___    ______ ____    _____ _____  ____ __ ______    ______ _________
0                                  18310              *
                                   18311              *
                                   18312              * THIS CHECKS THE APPLICATION AND LOGMODE NAME FOR BAD CHARACTERS
                                   18313              *
 0010D8                            18314              CHARCHK  DS        0XL256
                                   18315              *                     0 1 2 3 4 5 6 7 8 9 A B C D E F
 0010D8 FF01020304050607           18316                       DC        X'FF0102030405060708090A0B0C0D0E0F'      00
 0010E8 1011121314151617           18317                       DC        X'101112131415161718191A1B1C1D1E1F'      10
 0010F8 2021222324252627           18318                       DC        X'202122232425262728292A2B2C2D2E2F'      20
 001108 3031323334353637           18319                       DC        X'303132333435363738393A3B3C3D3E3F'      30
 001118 0041424344454647           18320                       DC        X'004142434445464748494A4B4C4D4E4F'      40
 001128 5051525354555657           18321                       DC        X'505152535455565758595A5B5C5D5E5F'      50
 001138 6061626364656667           18322                       DC        X'606162636465666768696A6B6C6D6E6F'      60
 001148 7071727374757677           18323                       DC        X'707172737475767778797A7B7C7D7E7F'      70
 001158 8081828384858687           18324                       DC        X'808182838485868788898A8B8C8D8E8F'      80
 001168 9091929394959697           18325                       DC        X'909192939495969798999A9B9C9D9E9F'      90
 001178 A0A1A2A3A4A5A6A7           18326                       DC        X'A0A1A2A3A4A5A6A7A8A9AAABACADAEAF'      A0
 001188 B0B1B2B3B4B5B6B7           18327                       DC        X'B0B1B2B3B4B5B6B7B8B9BABBBCBDBEBF'      B0
 001198 C000000000000000           18328                       DC        X'C0000000000000000000CACBCCCDCECF'      C0
 0011A8 D000000000000000           18329                       DC        X'D0000000000000000000DADBDCDDDEDF'      D0
 0011B8 E0E1000000000000           18330                       DC        X'E0E10000000000000000EAEBECEDEEEF'      E0
 0011C8 0000000000000000           18331                       DC        X'00000000000000000000FAFBFCFDFEFF'      F0
                                   18332              *                     0 1 2 3 4 5 6 7 8 9 A B C D E F
                                   18333              *
1VETS     (VETS2025) (12:59) (15MAR04) User Command                        VLOGOFF -- VLOGOFF command                       Page   35
0Current Usings:  (CP,R11) (CV,R12)
0Loc    Object Code    Addr1 Addr2  Stmt Lv Lineno    Source Statement           (Hibal 5, Asmedit 3.3)  HLASM R4.0  2004/03/15 12.59
+___    ______ ____    _____ _____  ____ __ ______    ______ _________
0                                  18335              *
                                   18336              **  VLOGOFF -- VLOGOFF Command.
                                   18337              *
0                                  18339              *
                                   18340              **    REGISTER USE FOR THIS ROUTINE:
                                   18341              **       R2 =
                                   18342              **       R3 =
                                   18343              **       R4 = @ PARAMETER
                                   18344              **       R5 = RPL
                                   18345              **       R6 = VTWA
                                   18346              *
00011D8 188D/4570 C74C_            18348              VLOGOFF  GENTER
 USING  *,R7
                                   18365              *QSNAP 'ENTERED VLOGOFF'
 0011E6 9102 C4C5/4710_004C5       18366                       IF    ~CVFTEST,BEGIN      Production Wylbur...
 0011EE 4110 7486/4100_      0166C 18381  1                      TSEG  'VLOGOFF command not yet available in '
 001200 4110 7452/4100_      01638 18399  1                      ABORT 'production Wylbur.'
 00120C                            18406                       END
000120C 5860 B1E8/1266       001E8 18411                       LT    R6,CPVTWAP          ESTABLISH THE VTWA
 USING  VTWA,R6                    18415                       USING VTWA,R6
 001212 4770 703C            01222 18424                       IF    (Z),BEGIN
 001216 4110 74AB/4100_      01691 18435  1                      ABORT 'You are NOT Logged On to a VTAM application'
 001222                            18442                       END
0001222 9680 6004      00004       18447                       SET   VTWFUACT            SET USER ACTIVE
0001226 5850 6058            00058 18454                       L     R5,VTWAACBP                   SEND A TERMSESS
 USING  ACB,R5                     18455                       WITH  (ACB,R5),BEGIN
 00122A 1255/4780 704E_            18469  1                      IF    (R5,NZ),'L R5,ACBEORPL'       R5 := @ RPL
 DROP   ACB,R5                     18489                       END
 USING  RPL,R5                     18497                       USING (RPL,R5)
 001234 1255/4780 7244             18507                       IF    (R5,ZERO),TERMNORM               IF NO RPL, IGNORE
 00123A 95FF 5045/4770_00045       18524                       FAIL  (RPLACTIV,EQ,X'FF'),VLOGOFF,'RPL BUSY'
000125A D703 5064 5064 00064 00064 18554                       CLEAR RPLSSENS
 001260 94EF 5039/94F7_00039       18561                       CLEAR RPLOPT6.RPLCOND,RPLOPT6.RPLNCOND,RPLOPT10.RPLUNBND
000126C 5810 B08C/1B00_      0008C 18582                       SCAN   ,                   GET THE PARAMETER
 0012BA 58E0 73EA/0DEE       015D0 18613                       SCANCHK
 0012C0 1200/4770 70E4_            18618                       IF    (R0,Z),'SET RPLOPT6.RPLCOND'  IF NO PARAMETER, NORMAL
 0012CA 70E8/47F0 710C 012CA 012C4 18644                       ELSE  BEGIN
 0012CE 95C6 F000/4770_00000       18655  1                      IF     (@R15,EQ,'F'),'SET RPLOPT10.RPLUNBND'        IF F
 0012DA 70F8/47F0 7104_012DA 012D4 18683  1                      ELSEIF (@R15,EQ,'I'),'SET RPLOPT6.RPLNCOND'         IF I
 0012EA 7108/47F0 710C_012EA 012E4 18720  1                      ELSE   'SET RPLOPT6.RPLCOND'         ELSE NORMAL
 0012F2                            18743                       END
00012F2                            18748              TERMSESS LABEL
                                   18750              *QSNAP 'ABOUT TO DO A TERMSESS'
 0012F2 D703 6044 6044 00044 00044 18751                       CLEAR VTWSECB
 0012F8 1815/0700/91FF_            18758                       TERMSESS RPL=(R5),BRANCH=NO,OPTCD=(ASY,NSONCODE),ECB=VTWSECB
 001354 1B00                       18812                       CLEAR R0
1VETS     (VETS2025) (12:59) (15MAR04) User Command                        VLOGOFF -- VLOGOFF command                       Page   36
0Current Usings:  (RPL,R5) (VTWA,R6) (*,R7) (CP,R11) (CV,R12)
0Loc    Object Code    Addr1 Addr2  Stmt Lv Lineno    Source Statement           (Hibal 5, Asmedit 3.3)  HLASM R4.0  2004/03/15 12.59
+___    ______ ____    _____ _____  ____ __ ______    ______ _________
0001356 4110 6044            00044 18816                       LA    R1,VTWSECB
 00135A 58E0 73EE/0DEE       015D4 18817                       VCALL WAITECB
0001360 1815/4100 0002_            18822                       CHECK RPL=(R5)
 001370 1B22                       18829                       CLEAR R2
 001372 49F0 7466/47D0_      0164C 18833                       IF    (R15,GT,=H'4'),'LH R1,=H"28"'
 00137E 719C/47F0 71B4 0137E 01378 18855                       ELSE  BEGIN
 001382 4900 746A/4770_      01650 18866  1                      IF    (R0,EQ,=H'24'),'LR R1,R0'
 00138C 71AA/47F0 71B4 0138C 01388 18888  1                      ELSE  BEGIN
 001390 1F11/4310 500D             18899  2                        LC    R1,RPLRTNCD         R1 := RTNCD
 001396 4320 500E            0000E 18906  2                        IC    R2,RPLFDB2          R2 := FDBK2
 00139A                            18907  1                      END
 00139A                            18911                       END
 00139A 5910 73F2/47D0_      015D8 18915                       CEIL  R1,28
                                   18934              *QSNAP (R1,R2)
00013A6 58F1 71C6            013AC 18936                       L     R15,TERMTABL(R1)
 0013AA 07FF                       18937                       BR    R15                 BRANCH TO PROCESS
 0013AC 0000142A                   18938              TERMTABL DC    A(TERMNORM)         NORMAL
 0013B0 000013F6                   18939                       DC    A(TERMERR)          ERROR SYNAD
 0013B4 000012F2                   18940                       DC    A(TERMSESS)         RETRY
 0013B8 000013F6                   18941                       DC    A(TERMERR)          ERROR INTEGRETY
 0013BC 000013D2                   18942                       DC    A(TERMENV)          ERROR ENVIRONMENT
 0013C0 00001418                   18943                       DC    A(TERMLOGC)         ERROR LOGIC
 0013C4 000013F6                   18944                       DC    A(TERMERR)          ERROR BAD RPL
 0013C8 000013CC                   18945                       DC    A(TERMACB)          ERROR ACB NOT OPEN
-
 0013CC                            18947              TERMACB  LABEL                     ACB NOT OPEN
 0013CC 58E0 73F6/0DEE       015DC 18949                       ACALL PATHBRKN
00013D2                            18954              TERMENV  LABEL                     ENVIRONMENT ERROR
 0013D2 5920 73FA/4770_      015E0 18956                       IF    (R2,EQ,=A(X'000A')),'ACALL ERROR10A'  VTAM FAILED
                                   18981            C          IF   ((R2,EQ,=A(X'000D')),OR,            ACB CLOSED
 0013E0 5920 7402/4780_      015E8                                   (R2,EQ,=A(X'000E'))),'ACALL PATHBRKN'   VTAM ERROR
 0013F6                            19021              TERMERR  LABEL
 0013F6 5830 5058            00058 19023                       L     R3,RPLRSENS
 0013FA 58E0 740A/0DEE       015F0 19024                       ACALL FREEVTWA
 001400 900F C780/4DE0_      00780 19028                       KAPUT TERMSESS,'UNEXPECTED VTAM RETURN CODE'
 001418                            19035              TERMLOGC LABEL                     LOGIC ERROR
 001418 5920 740E/4770_      015F4 19037                       IF    (R2,EQ,=A(X'0013')),'ACALL PROCLOST'    IF BAD CID
 001426 47F0 7210            013F6 19062                       B     TERMERR
-00142A                            19064              TERMNORM LABEL                     NORMAL COMPLETION
 00142A 9104 5061/47E0_00061       19066                       IF    (RPLOPT10.RPLUNBND),'ACALL PROCLOST'  RETURNS TO VTAM
0001438 47F0 72C0            014A6 19092                       B     VGO                 BRANCH TO VGO
0DROP   RPL,R5                     19094                       DROP  R5,R6,BR
 DROP   VTWA,R6
 DROP   *,R7
1VETS     (VETS2025) (12:59) (15MAR04) User Command                            VATTN -- VATTN command                       Page   37
0Current Usings:  (CP,R11) (CV,R12)
0Loc    Object Code    Addr1 Addr2  Stmt Lv Lineno    Source Statement           (Hibal 5, Asmedit 3.3)  HLASM R4.0  2004/03/15 12.59
+___    ______ ____    _____ _____  ____ __ ______    ______ _________
0                                  19114              *
                                   19115              **  VATTN -- VATTN command.
                                   19116              *
0                                  19118              *
                                   19119              **    REGISTER USE FOR THIS ROUTINE:
                                   19120              **       R2 =
                                   19121              **       R3 =
                                   19122              **       R4 =
                                   19123              **       R5 =
                                   19124              **       R6 = VTWA
                                   19125              *
000143C 188D/4570 C74C_            19127              VATTN    GENTER
 USING  *,R7
                                   19144              *QSNAP 'ENTERED VATTN'
 00144A 9102 C4C5/4710_004C5       19145                       IF    ~CVFTEST,BEGIN      Production Wylbur...
 001452 4110 7272/4100_      016BC 19160  1                      TSEG  'VATTN command not yet available in '
 001464 4110 71EE/4100_      01638 19178  1                      ABORT 'production Wylbur.'
 001470                            19185                       END
0001470 5860 B1E8/1266       001E8 19190                       LT    R6,CPVTWAP          ESTABLISH THE VTWA
 USING  VTWA,R6                    19194                       USING VTWA,R6
 001476 4770 704E            01498 19203                       IF    (Z),BEGIN
 00147A 4110 7295/4100_      016DF 19214  1                      TSEG  'You are NOT logged-on to a VTAM application'
 00148C 4110 7208/4100_      01652 19232  1                      ABORT 'Type VLOGON name to LOGON.'
 001498                            19239                       END
0001498 9680 6004      00004       19244                       SET   VTWFUACT            SET USER ACTIVE
000149C 58E0 71B2/0DEE       015FC 19251                       ACALL SSIGNAL             SEND THE SIGNAL
 0014A2 47F0 705C            014A6 19255                       B     VGO                 BRANCH TO VGO
0DROP   VTWA,R6                    19257                       DROP  R6,BR
 DROP   *,R7
1VETS     (VETS2025) (12:59) (15MAR04) User Command                                VGO -- VGO command                       Page   38
0Current Usings:  (CP,R11) (CV,R12)
0Loc    Object Code    Addr1 Addr2  Stmt Lv Lineno    Source Statement           (Hibal 5, Asmedit 3.3)  HLASM R4.0  2004/03/15 12.59
+___    ______ ____    _____ _____  ____ __ ______    ______ _________
0                                  19271              *
                                   19272              **  VGO -- VGO Command.
                                   19273              *
00014A6 188D/4570 C74C_            19275              VGO      GENTER
 USING  *,R7
                                   19292              *QSNAP 'ENTERED VGO'
 0014B4 9102 C4C5/4710_004C5       19293                       IF    ~CVFTEST,BEGIN      Production Wylbur...
 0014BC 4110 7256/4100_      0170A 19308  1                      TSEG  'VGO command not yet available in '
 0014CE 4110 7184/4100_      01638 19326  1                      ABORT 'production Wylbur.'
 0014DA                            19333                       END
00014DA 5860 B1E8/1266       001E8 19338                       LT    R6,CPVTWAP          ESTABLISH THE VTWA
 USING  VTWA,R6                    19342                       USING VTWA,R6
 0014E0 4770 704E            01502 19351                       IF    (Z),BEGIN
 0014E4 4110 7277/4100_      0172B 19362  1                      TSEG  'YOU ARE NOT LOGGED-ON TO A VTAM APPLICATION',,CR
 0014F6 4110 719E/4100_      01652 19380  1                      ABORT 'Type VLOGON name to LOGON.'
 001502                            19387                       END
0001502 9680 6004      00004       19392                       SET   VTWFUACT            SET USER ACTIVE
 001506 9610 BC7B      00C7B       19398                       SET   CPFDISP
 00150A D603 6024 6024_00024 00024 19404                       IF    (VTWBUFL,ZERO),BEGIN    IF NO SCREEN BUFFER
 001514 5870 7150            01604 19420  1                      L     BR,=A(MAINLINE)         BRANCH TO MAINLINE
 001518 07F7                       19421  1                      BR    BR
 00151A                            19422                       END
000151A 4100 0001            00001 19427                       LA    R0,1                    ELSE CLEAR THE SCREEN
 00151E 58E0 7154/0DEE       01608 19428                       ACALL CLEARSCR
0001524 9680 6006      00006       19433                       SET   VTWFWSCR
 001528 9509 6008/4780_00008       19439                       IF    (~VSOUTB),'ACALL WRITESCR'
 001536 58F0 715C            01610 19463                       L     R15,=A(MAINLIN1)
 00153A 5870 7150            01604 19464                       L     BR,=A(MAINLINE)
 00153E 07FF                       19465                       BR    R15                 BRANCH TO MAINLNE1
                                   19466
 DROP   VTWA,R6                    19467                       DROP  R6,BR
 DROP   *,R7
1VETS     (VETS2025) (12:59) (15MAR04) User Command                          VDEBUG -- VDEBUG command                       Page   39
0Current Usings:  (CP,R11) (CV,R12)
0Loc    Object Code    Addr1 Addr2  Stmt Lv Lineno    Source Statement           (Hibal 5, Asmedit 3.3)  HLASM R4.0  2004/03/15 12.59
+___    ______ ____    _____ _____  ____ __ ______    ______ _________
0                                  19481              *
                                   19482              **  VDEBUG -- VDEBUG Command.
                                   19483              *
0001540 188D/4570 C74C_            19485              VDEBUG   GENTER
 USING  *,R7
                                   19502              *QSNAP 'ENTERED VDEBUG'
 00154E 9102 C4C5/4710_004C5       19503                       IF    ~CVFTEST,BEGIN      Production Wylbur...
 001556 4110 70C6/4100_      01614 19518  1                      TSEG  'VDEBUG command not yet available in '
 001568 4110 70EA/4100_      01638 19536  1                      ABORT 'production Wylbur.'
 001574                            19543                       END
                                   19547              *
                                   19548              *  VTAM COMMAND GOES HERE.
                                   19549              *
 001574 4110 7208/4100_      01756 19550                       TSEG  'VDEBUG COMMAND GOES HERE!'
 001586 47F0 C7DE            007DE 19568                       B     CVNEXT
                                   19569
 DROP   *,R7                       19570                       DROP  BR
1VETS     (VETS2025) (12:59) (15MAR04) WYLBUR Cleanup           VETSFREE - Release terminal work area                       Page   40
0Current Usings:  (CP,R11) (CV,R12)
0Loc    Object Code    Addr1 Addr2  Stmt Lv Lineno    Source Statement           (Hibal 5, Asmedit 3.3)  HLASM R4.0  2004/03/15 12.59
+___    ______ ____    _____ _____  ____ __ ______    ______ _________
0                                  19578              *
                                   19579              **  VETSFREE -- Routine to release the Vtam terminal work
                                   19580              **    area if one is allocated.
                                   19581              **
                                   19582              **    This routine is called when the user logs off.
                                   19583              *
000158A 50E0 D000/9008_      00000 19585              VETSFREE XPROC
 USING  *,R7
 0015A4 5860 B1E8/1266       001E8 19625                       LT    R6,CPVTWAP          Is there a VTWA?
 0015AA 4780 7010            015B4 19629                       IF    NZ,BEGIN
 0015AE 58E0 704C/0DEE       015F0 19640  1                      ACALL FREEVTWA
 0015B4                            19644                       END
00015B4 18D8/9808 D004_            19649                       PEND
 DROP   *,R7
 0015C8                            19669                       LTORG
 0015C8 00000000                   19671                             =V(SEG)
 0015CC 00000000                   19672                             =V(NSCAN)
 0015D0 00000000                   19673                             =V(SCANCHK)
 0015D4 00000000                   19674                             =V(WAITECB)
 0015D8 0000001C                   19675                             =A(28)
 0015DC 000057E8                   19676                             =A(PATHBRKN)
 0015E0 0000000A                   19677                             =A(X'000A')
 0015E4 00005842                   19678                             =A(ERROR10A)
 0015E8 0000000D                   19679                             =A(X'000D')
 0015EC 0000000E                   19680                             =A(X'000E')
 0015F0 00006A3C                   19681                             =A(FREEVTWA)
 0015F4 00000013                   19682                             =A(X'0013')
 0015F8 000025C8                   19683                             =A(PROCLOST)
 0015FC 000067B6                   19684                             =A(SSIGNAL)
 001600 00000000                   19685                             =V(SEGCR)
 001604 00001770                   19686                             =A(MAINLINE)
 001608 000059FA                   19687                             =A(CLEARSCR)
 00160C 00005BCA                   19688                             =A(WRITESCR)
 001610 00001832                   19689                             =A(MAINLIN1)
 001614 E5C4C5C2E4C74083           19690                             =C'VDEBUG command not yet available in '
 001638 97999684A483A389           19691                             =C'production Wylbur.'
 00164A 000C                       19692                             =Y((12+3)/4*4)
 00164C 0004                       19693                             =H'4'
 00164E 001C                       19694                             =H'28'
 001650 0018                       19695                             =H'24'
 001652 E3A8978540E5D3D6           19696                             =C'Type VLOGON name to LOGON.'
 00166C E5D3D6C7D6C6C640           19697                             =C'VLOGOFF command not yet available in '
 001691 E896A44081998540           19698                             =C'You are NOT Logged On to a VTAM application'
 0016BC E5C1E3E3D5408396           19699                             =C'VATTN command not yet available in '
 0016DF E896A44081998540           19700                             =C'You are NOT logged-on to a VTAM application'
 00170A E5C7D64083969494           19701                             =C'VGO command not yet available in '
 00172B E8D6E440C1D9C540           19702                             =C'YOU ARE NOT LOGGED-ON TO A VTAM APPLICATION'
 001756 E5C4C5C2E4C740C3           19703                             =C'VDEBUG COMMAND GOES HERE!'
-
 USING  VTWA,R6                    19708                       USING VTWA,VTWAR          ASSUMED IN ALL LOCAL ROUTINES
1VETS     (VETS2025) (12:59) (15MAR04) MAINLINE -- Main processing loop                                                     Page   41
0Current Usings:  (VTWA,R6) (CP,R11) (CV,R12)
0Loc    Object Code    Addr1 Addr2  Stmt Lv Lineno    Source Statement           (Hibal 5, Asmedit 3.3)  HLASM R4.0  2004/03/15 12.59
+___    ______ ____    _____ _____  ____ __ ______    ______ _________
0                                  19718              *
                                   19719              **  MAINLINE -- This is the main processing loop.  It receives
                                   19720              **              commands from the host application, and causes them
                                   19721              **              to be executed.  This generally involves reading
                                   19722              **              and writing to the terminal.
                                   19723              **
                                   19724              *
                                   19725              **    ENTRY is by BRANCH to MAINLINE or MAINLINE1 from the WYLBUR
                                   19726              **    command routines VLOGON, VLOGOFF, VGO, and VATTN
                                   19727              **
                                   19728              **      BR = @ MAINLINE
                                   19729              *
                                   19730              **    Exit is by BRANCH to CVNEXT, and is made within proc
                                   19731              **    WRITESCR, PROCUBIR, PROCLOST, DOCONT, READSEND, or UPDATSCR
                                   19732              *
0                                  19734              *
                                   19735              **    REGISTER USE FOR THIS ROUTINE:
                                   19736              **       R2 =
                                   19737              **       R3 =
                                   19738              **       R4 = @ RPL FOR SEND RESPONSE
                                   19739              **       R5 = @ RPL FOR RECEIVE EXPEDITID
                                   19740              **       R6 = VTWA
                                   19741              *
0001770                            19743              MAINLINE LABEL                               MAINLINE FROM VLOGON
 USING  MAINLINE,R7                19745                       USING MAINLINE,BR
0                                  19755              *QSNAP 'MAINLINE'
 001770                            19756              MAINLINA LABEL
                                   19758              *                                            CHECK REASON FOR POST
0001770 9104 6009/47E0_00009       19760                       IF     (POSTLOST),'CLEAR POSTLOST; ACALL PROCLOST'  LOSTERM
 001782 7016/47F0 7028_01782 01776 19791                       ELSEIF (POSTUBIR),'CLEAR POSTUBIR; ACALL PROCUBIR'  UNBIND
 001798 702C/47F0 703E_01798 0178C 19831                       ELSEIF (POSTBIND),'CLEAR POSTBIND; ACALL PROCBIND'  BIND
 0017AE 7042/47F0 7054_017AE 017A2 19871                       ELSEIF (POSTSDT),'CLEAR POSTSDT; ACALL PROCSDT'     SDT
 0017C4 7058/47F0 706A_017C4 017B8 19911                       ELSEIF (POSTSENC),'CLEAR POSTSENC; ACALL PROCSENC'  SEND
 0017DA 706E/47F0 7080_017DA 017CE 19951                       ELSEIF (POSTRCVC),'CLEAR POSTRCVC; ACALL PROCRCVC'  RECEIVE
 0017F0 7084/47F0 7090_017F0 017E4 19991                       ELSEIF (POSTSHUT),'EXIT'                            SHUTDOWN
 001800 7094/47F0 70C2 01800 017FA 20023                       ELSE  BEGIN                         ELSE WAIT
0001804 4100 0001            00001 20035  1                      LA    R0,1
 001808 4110 6040            00040 20036  1                      LA    R1,VTWAECB
 00180C 58E0 7CD8/0DEE       02448 20037  1                      VCALL WAITECB                       => WAIT <=
 001812 4780 70B8            01828 20041  1                      IF    (NZ),BEGIN                    IF ATTN
 001816 947F 6004/94EF_00004       20052  2                        CLEAR VTWFUACT,CPFDISP,VTWAECB   CLEAR USER ACTIVE
                                   20069  2           *QSNAP 'RETURN TO WYLBUR'
 001824 47F0 C7DE            007DE 20070  2                        B     CVNEXT              RETURN TO WYLBUR
                                   20071  2           ********************************************************************
                                   20072  2           *                 CONTROL HAS BEEN RETURNED TO WYLBUR              *
                                   20073  2           ********************************************************************
 001828                            20074  1                      END   ,                             END ATTN
0001828 D703 6040 6040 00040 00040 20079  1                      CLEAR VTWAECB
1VETS     (VETS2025) (12:59) (15MAR04) MAINLINE -- Main processing loop                                                     Page   42
0Current Usings:  (VTWA,R6) (MAINLINE,R7) (CP,R11) (CV,R12)
0Loc    Object Code    Addr1 Addr2  Stmt Lv Lineno    Source Statement           (Hibal 5, Asmedit 3.3)  HLASM R4.0  2004/03/15 12.59
+___    ______ ____    _____ _____  ____ __ ______    ______ _________
000182E 47F0 7000            01770 20086  1                      B     MAINLINA
 001832                            20087                       END   ,                             END WAIT
-001832                            20092              MAINLIN1 LABEL                               MAINLIN1 FROM VGO
0001832 D603 607C 607C_0007C 0007C 20095                       IF    (VTWRSENS,NZ),BEGIN           A SENSE HAS BEEN RECEIVED
 00183C 9209 6008      00008       20111  1                      SET   VSOUTB                        HOST RECOVERS
 001840 947F 6004/94EF_00004       20117  1                      CLEAR VTWFUACT,CPFDISP
 001848 4110 7D7C/4100_      024EC 20129  1                      TSEG  'A Sense of '
 00185A 5810 607C/4100_      0007C 20147  1                      THEX  L:VTWRSENS,8
 00186C 4110 7D87/4100_      024F7 20172  1                      TSEG  ' has been received from the Application',,CR
 00187E 4110 7DAE/4100_      0251E 20190  1                      TSEG  'Enter VGO to continue'
0001890 D703 607C 607C 0007C 0007C 20209  1                      CLEAR VTWRSENS
                                   20216  1           *QSNAP 'RETURN TO WYLBUR'
 001896 47F0 C7DE            007DE 20217  1                      B     CVNEXT              RETURN TO WYLBUR
                                   20218  1           ********************************************************************
                                   20219  1           *                 CONTROL HAS BEEN RETURNED TO WYLBUR              *
                                   20220  1           ********************************************************************
000189A                            20222                       END   ,                         END A SENSE HAS BEEN RECEIVED
-                                  20227              *                                           CHECK STATE OF VTAM SESSION
000189A 9509 6008/4770_00008       20229                       IF     (VSOUTB),'ACALL DOOUTB'      OUTBOUND (FROM APPL)
 0018A8 713C/47F0 714A_018A8 018A0 20253                       ELSEIF (VSINB),'ACALL DOINB'        INBOUND (TO APPL)
 0018BA 714E/47F0 715C_018BA 018B2 20286                       ELSEIF (VSOUTBSS),'ACALL DOOUTB'    OUTBOUND SIGNAL SENT
 0018CC 7160/47F0 716E_018CC 018C4 20319                       ELSEIF (VSCONT),'ACALL DOCONT'      CONTENTION
 0018DE 7172/47F0 7180_018DE 018D6 20352                       ELSEIF (VSCONT1),'ACALL SRECEIVE'   CONTENTION-KEYBOARD LOCKED
 0018F0 7184/47F0 7198_018F0 018E8 20385                       ELSEIF (VSCONT2),'ACALL SENDRESP; ACALL SRECEIVE' BID RECEIVED
 001908 719C/47F0 71A0_01908 018FA 20422                       ELSE   'B MAINLINE'
-                                  20440              *                                  MISCELLANEOUS CLEANUP
-                                  20442              *                                  START THE EXPEDITED RECEIVE
 001910 5850 6058            00058 20443                       L     R5,VTWAACBP         WILL USUALLY NOT BE NEEDED
 001914 5850 50A8            000A8 20444                       WITH  (ACB,R5),'L R5,ACBEIRPL'
 USING  ACB,R5
 DROP   ACB,R5
 USING  RPL,R5                     20468                       WITH  (RPL,R5),BEGIN
 001918 9500 5045/4770_00045       20482  1                      IF    (RPLACTIV,Z),BEGIN  IF NOT ACTIVE
                                   20498  2           *QSNAP 'START RECEIVE EXPEDITED'
                                   20499  2                        AIF   ('&BRANCH' EQ 'NO').MODE11
 001920 4510 71B8/0000_      01928 20500  2                        MODESET MODE=SUP              ********* ENTER SUPERVISOR STATE
 00192E 5820 7CFC            0246C 20507  2           .MODE11      L     R2,=A(SRBROUT)
                                   20508  2         C              RECEIVE RPL=(R5),
                                          2         C                    OPTCD=(ASY,CA,ANY,NIBTK,Q),AREALEN=0,
 001932 1815/91FF 1045_                   2                              RTYPE=(NDFSYN,DFASY,RESP),BRANCH=&BRANCH,EXIT=(R2)
 0019CA 182F                       20605  2                        LR    R2,R15
 0019CC 4510 7264/0000_      019D4 20606  2                        MODESET MODE=PROB             ********* LEAVE SUPERVISOR STATE
1VETS     (VETS2025) (12:59) (15MAR04) MAINLINE -- Main processing loop                                                     Page   43
0Current Usings:  (RPL,R5) (VTWA,R6) (MAINLINE,R7) (CP,R11) (CV,R12)
0Loc    Object Code    Addr1 Addr2  Stmt Lv Lineno    Source Statement           (Hibal 5, Asmedit 3.3)  HLASM R4.0  2004/03/15 12.59
+___    ______ ____    _____ _____  ____ __ ______    ______ _________
0                                  20614  2           *QSNAP (R2)
 0019DA 1222/4780 7288_            20615  2                        FAIL  (R2,NZ),MAINLINE,'RECEIVE EXPEDITED REFUSED'
 0019F8                            20641  1                      END
 DROP   RPL,R5                     20645                       END   ,                   END NOT ACTIVE
-0019F8 9108 6005/47E0_00005       20654                       IF    (VTWFSHUT),BEGIN              IF SHUTDOWN COMPLETE
 001A00 94F7 6005/94FD_00005       20669  1           SHUTC      CLEAR VTWFSHUT,POSTSHUT
 001A08 5840 6058            00058 20682  1                      L     R4,VTWAACBP
 001A0C 5840 40AC            000AC 20683  1                      WITH  (ACB,R4),'L R4,ACBEORPL'
 USING  ACB,R4
 DROP   ACB,R4
 USING  RPL,R4                     20707  1                      WITH  (RPL,R4)            GET THE RPL
 001A10 9500 4045/4780_00045       20720  1                      FAIL  (RPLACTIV,NZ),MAINLINE,'RESPONSE RPL NOT FREE'
0                                  20749  1           *QSNAP 'ABOUT TO START A SEND SHUTC'
 001A30 D703 6044 6044 00044 00044 20750  1                      CLEAR VTWSECB
                                   20757  1         C            SEND  RPL=(R4),
                                          1         C                  OPTCD=(ASY,CA),ECB=VTWSECB,
 001A36 1814/91FF 1045_                   1                            STYPE=REQ,CONTROL=SHUTC,BRANCH=NO
 001A8E 1B00                       20802  1                      CLEAR R0
 001A90 4110 6044            00044 20806  1                      LA    R1,VTWSECB
 001A94 58E0 7CD8/0DEE       02448 20807  1                      VCALL WAITECB
0001A9A 1814/4100 0002_            20812  1                      CHECK RPL=(R4)
 001AAA 1B22                       20819  1                      CLEAR R2
 001AAC 49F0 7D64/47D0_      024D4 20823  1                      IF    (R15,GT,=H'4'),'LH R1,=H"28"'
 001AB8 734C/47F0 7364 01AB8 01AB2 20845  1                      ELSE  BEGIN
 001ABC 4900 7D68/4770_      024D8 20856  2                        IF    (R0,EQ,=H'24'),'LR R1,R0'
 001AC6 735A/47F0 7364 01AC6 01AC2 20878  2                        ELSE  BEGIN
 001ACA 1F11/4310 400D             20889  3                          LC    R1,RPLRTNCD         R1 := RTNCD
 001AD0 4320 400E            0000E 20896  3                          IC    R2,RPLFDB2          R2 := FDBK2
 001AD4                            20897  2                        END
 001AD4                            20901  1                      END
 001AD4 5910 7D00/47D0_      02470 20905  1                      CEIL  R1,28
                                   20924  1           *QSNAP (R1,R2)
0001AE0 58F1 7378            01AE8 20926  1                      L     R15,SHUTTBLE(R1)
 001AE4 07FF                       20927  1                      BR    R15                 BRANCH TO PROCESS
 001AE6 0000                              1
 001AE8 00001B5E                   20928  1           SHUTTBLE   DC    A(MAINLIN3)         NORMAL
 001AEC 00001B3C                   20929  1                      DC    A(SHUTERR)          ERROR SYNAD
 001AF0 00001A00                   20930  1                      DC    A(SHUTC)            RETRY
 001AF4 00001B5E                   20931  1                      DC    A(MAINLIN3)         ERROR INTEGRETY
 001AF8 00001B08                   20932  1                      DC    A(SHUTENV)          ERROR ENVIRONMENT
 001AFC 00001B3C                   20933  1                      DC    A(SHUTERR)          ERROR LOGIC
 001B00 00001B3C                   20934  1                      DC    A(SHUTERR)          ERROR BAD RPL
 001B04 00001B5E                   20935  1                      DC    A(MAINLIN3)         ERROR ACB NOT OPEN
-                                         1
 001B08                            20937  1           SHUTENV    LABEL                     ENVIRONMENT ERROR
 001B08 5920 7D04/4770_      02474 20939  1                      IF    (R2,EQ,=A(X'000A')),'ACALL ERROR10A'  VTAM FAILED
                                   20964  1         C            IF   ((R2,EQ,=A(X'0003')),OR,            VTAM HALT ISSUED
1VETS     (VETS2025) (12:59) (15MAR04) MAINLINE -- Main processing loop                                                     Page   44
0Current Usings:  (RPL,R4) (VTWA,R6) (MAINLINE,R7) (CP,R11) (CV,R12)
0Loc    Object Code    Addr1 Addr2  Stmt Lv Lineno    Source Statement           (Hibal 5, Asmedit 3.3)  HLASM R4.0  2004/03/15 12.59
+___    ______ ____    _____ _____  ____ __ ______    ______ _________
0                                         1         C                  (R2,EQ,=A(X'0007')),OR,            CANCELLED BY VARY
                                          1         C                  (R2,EQ,=A(X'0009')),OR,            LOGOFF RECEIVED
 001B16 5920 7D0C/4780_      0247C        1                            (R2,EQ,=A(X'000E'))),'ACALL PATHBRKN'    VTAM ERROR
 001B3C                            21030  1           SHUTERR    LABEL
 001B3C 5830 4058            00058 21032  1                      L     R3,RPLRSENS
 001B40 58E0 7D20/0DEE       02490 21033  1                      ACALL FREEVTWA
 001B46 900F C780/4DE0_      00780 21037  1                      KAPUT MAINLINE,'SHUTC UNEXPECTED VTAM RETURN CODE'
-001B5E                            21045  1           MAINLIN3   LABEL                     SHUTC HAS BEEN SENT
 001B5E 47F0 7000            01770 21047  1                      B     MAINLINE
 DROP   RPL,R4                     21048                       END   ,                   END SHUTDOWN COMPLETE
-001B62 9505 6008/4780_00008       21058                       IF    (VSCONT,OR,VSCONT1),'ACALL DOCONT'   IF CONTENTION STATE
 001B78 47F0 7000            01770 21096                       B     MAINLINE
0DROP   MAINLINE,R7                21098                       DROP  BR
1VETS     (VETS2025) (12:59) (15MAR04) Post Routines           PROCRCVC -- Process RECEIVE completion                       Page   45
0Current Usings:  (VTWA,R6) (CP,R11) (CV,R12)
0Loc    Object Code    Addr1 Addr2  Stmt Lv Lineno    Source Statement           (Hibal 5, Asmedit 3.3)  HLASM R4.0  2004/03/15 12.59
+___    ______ ____    _____ _____  ____ __ ______    ______ _________
0                                  21106              *
                                   21107              **  PROCRCVC -- Routine to process the completion of a data RECEIVE
                                   21108              **              (outbound) from the Application.
                                   21109              **
                                   21110              **           The purpose of this routine is to handle error conditions.
                                   21111              **
                                   21112              **
                                   21113              **    On entry:
                                   21114              **      VTWORUC POINTS TO THE OUTBOUND BUFFER CHAIN
                                   21115              **      R6 = @ VTWA
                                   21116              *
                                   21117              **    On exit:
                                   21118              **      NO change of state.
                                   21119              *
0                                  21121              *
                                   21122              **    REGISTER USE FOR THIS ROUTINE:
                                   21123              **       R2 = RTNCD & FDBK2
                                   21124              **       R3 =
                                   21125              **       R4 =
                                   21126              **       R5 = @ BUFFERS
                                   21127              **       R6 = VTWA
                                   21128              *
0001B7C 50E0 D000/9008_      00000 21130              PROCRCVC PROC  ,                   PROCESS RECEIVE COMPLETION
 USING  *,R7
                                   21169              *QSNAP 'ENTERED PROCRCVC'
 001B96 5820 6084            00084 21170                       L     R2,VTWRRTNC         LOADS RTNCD AND FDBK2
 001B9A 1222/4780 70C6             21171                       IF    (R2,NZ),BEGIN       IF ERROR
0001BA0 5850 606C            0006C 21186  1                      L     R5,VTWORUC          RELEASE THE RECEIVE BUFFERS
 USING  VTBHEAD,R5                 21187  1                      WITH  (VTBHEAD,R5)
 001BA4 1845                       21200  1                      LR    R4,R5
 001BA6 1244/4780 704A             21201  1                      WHILE (R4,NZ),BEGIN       WHILE IN BUFFER
 001BAC 1854                       21217  2                        LR    R5,R4
 001BAE 5840 5004            00004 21218  2                        L     R4,VTBNEXT
 001BB2 1815                       21219  2                        LR    R1,R5
 001BB4 D503 78FE 5000_02494 00000 21220  2                        FAIL  (VTBID,NE,C'VTBH'),PROCRCVC,'BAD OUTBOUND BUFFER'
 001BD6 58E0 7902/0DEE       02498 21249  2                        VCALL FREECORE
 001BDC 47F0 7010            01BA6 21253  1                      END   ,                   END IN BUFFERS
0001BE0 D703 606C 606C 0006C 0006C 21259  1                      CLEAR VTWORUC
-001BE6 5920 7906/4770_      0249C 21267  1                      IF   (R2,EQ,=A(X'0010000A')),'ACALL ERROR10A'     VTAM FAIL
0                                  21293  1         C            IF   ((R2,EQ,=A(X'00040003')),OR,                  EXR
                                          1         C                  (R2,EQ,=A(X'000C000C')),OR,                  CLEAR
 001BF4 5920 790A/4780_      024A0        1                            (R2,EQ,=A(X'0010000D'))),RCVCRTN             CLOSED
0                                  21341  1         C            IF   ((R2,EQ,=A(X'000C000B')),OR,        SESSION TERMINATED
                                          1         C                  (R2,EQ,=A(X'00100003')),OR,        VTAM HALT ISSUED
                                          1         C                  (R2,EQ,=A(X'00100007')),OR,        CANCELLED BY VARY
                                          1         C                  (R2,EQ,=A(X'00100009')),OR,        LOGOFF RECEIVED
1VETS     (VETS2025) (12:59) (15MAR04) Post Routines           PROCRCVC -- Process RECEIVE completion                       Page   46
0Current Usings:  (VTBHEAD,R5) (VTWA,R6) (*,R7) (CP,R11) (CV,R12)
0Loc    Object Code    Addr1 Addr2  Stmt Lv Lineno    Source Statement           (Hibal 5, Asmedit 3.3)  HLASM R4.0  2004/03/15 12.59
+___    ______ ____    _____ _____  ____ __ ______    ______ _________
0001C0C 5920 7916/4780_      024AC        1                            (R2,EQ,=A(X'0010000E'))),'ACALL PATHBRKN'
0001C3A 5830 607C            0007C 21421  1                      L     R3,VTWRSENS
 001C3E 58E0 78FA/0DEE       02490 21422  1                      ACALL FREEVTWA
 001C44 900F C780/4DE0_      00780 21426  1                      KAPUT PROCRCVC,'UNEXPECTED VTAM RETURN CODE'
 DROP   VTBHEAD,R5                 21433                       END   ,                            END ERROR
 001C5C                            21442              RCVCRTN  LABEL                     RETURN
 001C5C D703 6084 6084 00084 00084 21444                       CLEAR VTWRRTNC
 001C62 18D8/9808 D004_            21451                       PEND  ,                   RETURN
 DROP   *,R7
1VETS     (VETS2025) (12:59) (15MAR04) Post Routines   PROCSENC -- Routine to process SEND completion                       Page   47
0Current Usings:  (VTWA,R6) (CP,R11) (CV,R12)
0Loc    Object Code    Addr1 Addr2  Stmt Lv Lineno    Source Statement           (Hibal 5, Asmedit 3.3)  HLASM R4.0  2004/03/15 12.59
+___    ______ ____    _____ _____  ____ __ ______    ______ _________
0                                  21472              *
                                   21473              **  PROCSENC -- Routine to process the completion of a data SEND
                                   21474              **              (inbound) to the Application.
                                   21475              **
                                   21476              **    On entry:
                                   21477              **      VTWIRUC POINTS TO THE INBOUND BUFFER CHAIN
                                   21478              **      VTWIBLST POINTS TO THE VTAM BUFFLST IF USED
                                   21479              **      R6 = @ VTWA
                                   21480              *
                                   21481              **    On exit:
                                   21482              **      Inbound buffers have been freed.
                                   21483              **      NO change of state.
                                   21484              *
0                                  21486              *
                                   21487              **    REGISTER USE FOR THIS ROUTINE:
                                   21488              **       R2 =
                                   21489              **       R3 =
                                   21490              **       R4 = @ BUFFERS
                                   21491              **       R5 =
                                   21492              **       R6 = VTWA
                                   21493              *
0001C70 50E0 D000/9008_      00000 21495              PROCSENC PROC  ,                   PROCESS SEND COMPLETION
 USING  *,R7
                                   21534              *QSNAP 'ENTERED PROCSENC'
 001C8A 5810 6070/1211       00070 21535                       LT    R1,VTWIBLST
 001C90 4780 7016            01CA0 21539                       IF    (NZ),BEGIN          IF BUFFLST
 001C94 58E0 780E/0DEE       02498 21550  1                      VCALL FREECORE            FREE IT
 001C9A D703 6070 6070 00070 00070 21554  1                      CLEAR VTWIBLST
 001CA0                            21561                       END
0001CA0 5840 6068            00068 21566                       L     R4,VTWIRUC          CLEAN UP THE INBOUND BUFFERS
 USING  VTBHEAD,R4                 21567                       WITH  (VTBHEAD,R4)
 001CA4 1824                       21580                       LR    R2,R4
 001CA6 1222/4780 7056             21581                       WHILE (R2,NZ),BEGIN       WHILE IN BUFFER
 001CAC 1842                       21597  1                      LR    R4,R2
 001CAE 5820 4004            00004 21598  1                      L     R2,VTBNEXT
 001CB2 1814                       21599  1                      LR    R1,R4
 001CB4 D503 780A 4000_02494 00000 21600  1                      FAIL  (VTBID,NE,C'VTBH'),PROCSENC,'BAD INBOUND BUFFER'
 001CD6 58E0 780E/0DEE       02498 21629  1                      VCALL FREECORE
 001CDC 47F0 701C            01CA6 21633                       END   ,                   END IN BUFFERS
0001CE0 D703 6068 6068 00068 00068 21639                       CLEAR VTWIRUC
-001CE6 5820 6080            00080 21647                       L     R2,VTWSRTNC         LOADS RTNCD AND FDBK2
 001CEA 1222/4780 70C4             21648                       IF    (R2,NZ),BEGIN       IF ERROR
 001CF0 5920 7812/4770_      0249C 21662  1                      IF   (R2,EQ,=A(X'0010000A')),'ACALL ERROR10A'     VTAM FAIL
 001CFE 5920 781E/4780_      024A8 21687  1                      IF    (R2,EQ,=A(X'0010000D')),SENDRTN             CLOSED
0                                  21707  1         C            IF   ((R2,EQ,=A(X'00100003')),OR,        VTAM HALT ISSUED
                                          1         C                  (R2,EQ,=A(X'00100007')),OR,        CANCELLED BY VARY
                                          1         C                  (R2,EQ,=A(X'00100009')),OR,        LOGOFF RECEIVED
1VETS     (VETS2025) (12:59) (15MAR04) Post Routines   PROCSENC -- Routine to process SEND completion                       Page   48
0Current Usings:  (VTBHEAD,R4) (VTWA,R6) (*,R7) (CP,R11) (CV,R12)
0Loc    Object Code    Addr1 Addr2  Stmt Lv Lineno    Source Statement           (Hibal 5, Asmedit 3.3)  HLASM R4.0  2004/03/15 12.59
+___    ______ ____    _____ _____  ____ __ ______    ______ _________
0001D06 5920 7826/4780_      024B0        1                            (R2,EQ,=A(X'0010000E'))),'ACALL PATHBRKN'
0001D2C 5830 607C            0007C 21774  1                      L     R3,VTWRSENS
 001D30 58E0 7806/0DEE       02490 21775  1                      ACALL FREEVTWA
 001D36 900F C780/4DE0_      00780 21779  1                      KAPUT PROCSENC,'UNEXPECTED VTAM RETURN CODE'
 001D4E                            21786                       END   ,                            END ERROR
0001D4E                            21791              SENDRTN  LABEL                     RETURN
 001D4E D703 6080 6080 00080 00080 21793                       CLEAR VTWSRTNC
 001D54 18D8/9808 D004_            21800                       PEND  ,                   RETURN
 DROP   VTBHEAD,R4
 DROP   *,R7
1VETS     (VETS2025) (12:59) (15MAR04) Post Routines  PROCSDT -- Start Data Traffic has been received                       Page   49
0Current Usings:  (VTWA,R6) (CP,R11) (CV,R12)
0Loc    Object Code    Addr1 Addr2  Stmt Lv Lineno    Source Statement           (Hibal 5, Asmedit 3.3)  HLASM R4.0  2004/03/15 12.59
+___    ______ ____    _____ _____  ____ __ ______    ______ _________
0                                  21826              *
                                   21827              **  PROCSDT -- Routine to process receipt of a  Start Data Traffic
                                   21828              **             message from VTAM.
                                   21829              *
                                   21830              **    On entry:
                                   21831              **      R6 = @ VTWA
                                   21832              *
                                   21833              **    On exit:
                                   21834              **      STATE HAS BEEN CHANGED TO VSCONT OR VSCONT1
                                   21835              *
0                                  21837              *
                                   21838              **    REGISTER USE FOR THIS ROUTINE:
                                   21839              **       R2 =
                                   21840              **       R3 =
                                   21841              **       R4 =
                                   21842              **       R5 = @RPL
                                   21843              **       R6 = VTWA
                                   21844              *
0001D62 50E0 D000/9008_      00000 21846              PROCSDT  PROC  ,                   PROCESS START DATA TRAFFIC
 USING  *,R7
                                   21885              *QSNAP 'ENTERED PROCSDT'
                                   21886                       COMMENT                   VTAM HAS ALREADY SENT RESPONSE
0001D7C 9504 6008/4770_00008       21888                       IF    (VSWFSDT),BEGIN     IF WAITING FOR SDT
 001D84 9104 6007/47E0_00007       21903  1                      IF    (VTWFKLOK),'SET VSCONT1'  SET CONTENTION
 001D90 7018/47F0 701C_01D90 01D8A 21929  1                      ELSE  'SET VSCONT'
 001D98 1B00                       21951  1                      CLEAR R0
 001D9A 58E0 7744/0DEE       024C0 21955  1                      ACALL CLEARSCR            CLEAR THE SCREEN
 001DA0                            21959                       END   ,                    END WAITING FOR SDT
0001DA0 18D8/9808 D004_            21964                       PEND  ,                   DOCONT WILL DO THE CONTENTION
 DROP   *,R7
1VETS     (VETS2025) (12:59) (15MAR04) Post Routines            PROCBIND -- Process receipt of a bind                       Page   50
0Current Usings:  (VTWA,R6) (CP,R11) (CV,R12)
0Loc    Object Code    Addr1 Addr2  Stmt Lv Lineno    Source Statement           (Hibal 5, Asmedit 3.3)  HLASM R4.0  2004/03/15 12.59
+___    ______ ____    _____ _____  ____ __ ______    ______ _________
0                                  21985              *
                                   21986              **  PROCBIND -- Routine to process the receipt of a BIND message
                                   21987              **            from the  Application.
                                   21988              **
                                   21989              **    On entry:
                                   21990              **      VTWBINDP points to the bind image
                                   21991              **      R6 = @ VTWA
                                   21992              **
                                   21993              *
 002533                02533 080E2 21994                       DATA  BEGIN
                                   21999  1           *
                                   22000  1           * MODEL TABLE ....SCREEN SIZE BY MODEL NUMBER
                                   22001  1           *
 002533 00                                1
 002534 D4D6C47B                   22002  1           MODTAB     DC        0F'0',C'MOD#'
 002538 000C0050                   22003  1                      DC        H'12,80'            MODEL 1
 00253C 00180050                   22004  1                      DC        H'24,80'            MODEL 2
 002540 00200050                   22005  1                      DC        H'32,80'            MODEL 3
 002544 002B0050                   22006  1                      DC        H'43,80'            MODEL 4
 002548 001B0084                   22007  1                      DC        H'27,132'           MODEL 5
                                   22008  1           *
                                   22009  1           *
 001DAE                0176F 080E2 22010                       END
-                                  22017              *
                                   22018              **    REGISTER USE FOR THIS ROUTINE:
                                   22019              **       R2 =
                                   22020              **       R3 = @ RPL
                                   22021              **       R4 = BIND IMAGE ADDRESS | @ NIB
                                   22022              **       R5 = @ ACB
                                   22023              **       R6 = VTWA
                                   22024              *
0001DAE 50E0 D000/9008_      00000 22026              PROCBIND PROC  ,                   PROCESS BIND
 USING  *,R7
                                   22065              *QSNAP 'ENTERED PROCBIND'
 001DC8 5840 605C/1244       0005C 22066                       LT    R4,VTWANIBP         GET A NIB
 001DCE 4770 70B6            01E7E 22070                       IF    (ZERO),BEGIN        IF NIB NOT PRESENT
 001DD2 4120 0040            00040 22081  1                      LA    R2,NIBLNIB          R2 := L'NIB
 001DD6 1802                       22082  1                      LR    R0,R2
 001DD8 58E0 76FC/0DEE       024C4 22083  1                      VCALL GETCORE
 001DDE 1841                       22087  1                      LR    R4,R1               R4 := @NIB
 001DE0 5040 605C            0005C 22088  1                      ST    R4,VTWANIBP
0                                  22090  1         C            GENCB BLK=NIB,AM=VTAM,WAREA=(R4),LENGTH=(R2),PROC=KEEP,
 001DE4 5040 7048/4020_      01E10        1                            USERFLD=0,MODE=RECORD,SDT=SYSTEM,RESPLIM=1,LISTEND=YES
 001E60 12FF/4780 70B6_            22147  1                      FAIL  (R15,NZ),PROCBIND,'GENERATE NIB REFUSED'
 001E7E                            22173                       END   ,                   END NIB NOT PRESENT
0001E7E 5840 6048/1244       00048 22178                       LT    R4,VTWBINDP         LOAD BIND IMAGE
 001E84 4770 70D8/900F_      01EA0 22182                       FAIL  (Z),PROCBIND,'NO BIND IMAGE AVAILABLE'
 USING  ISTDBIND,R4                22205                       WITH  (ISTDBIND,R4)
 001EA0 D207 604C 401B 0004C 0001B 22218                       MVC   VTWAAPPL,BINPRIMN   SAVE APPLICATION NAME
1VETS     (VETS2025) (12:59) (15MAR04) Post Routines            PROCBIND -- Process receipt of a bind                       Page   51
0Current Usings:  (ISTDBIND,R4) (VTWA,R6) (*,R7) (CP,R11) (CV,R12)
0Loc    Object Code    Addr1 Addr2  Stmt Lv Lineno    Source Statement           (Hibal 5, Asmedit 3.3)  HLASM R4.0  2004/03/15 12.59
+___    ______ ____    _____ _____  ____ __ ______    ______ _________
0                                  22219              *QSNAP VTWAAPPL,8
                                   22220              *                                  CHECK THE BIND IMAGE
                                   22221            C          IF    ((BINFM,NE,X'03'),OR,(BINTS,NE,X'03'),OR,
 001EA6 9503 4001/4770_00001                                         (BINLUP,NE,X'02')),BEGIN
 001EBE 45F0 7104/0008_      01ECC 22268  1                      ERROR 'BAD BIND'
 001ECC 47F0 7588            02350 22272  1                      B     REFUBIND
 001ED0                            22273                       END   ,
0001ED0 949F 6005      00005       22278                       CLEAR VTWFDR+VTWFER
 001ED4 9130 4004/47E0_00004       22288                       IF    (BINSECP.BINNYRSP),'SET VTWFDR+VTWFER'
 001EE0 9120 4004/47E0_00004       22318                       IF    (BINSECP.BINDFRSP),'SET VTWFDR'
 001EEC 9110 4004/47E0_00004       22345                       IF    (BINSECP.BINEXRSP),'SET VTWFER'
 001EF8 1F00/4300 4009             22372                       LC    R0,BINSRUSZ         R0 := A MANSISSA
 001EFE 1810                       22377                       LR    R1,R0               R1 := B EXPONENT
 001F00 8800 0004            00004 22378                       SRL   R0,4
 001F04 5410 7700            024C8 22379                       N     R1,=F'15'
 001F08 8900 1000            00000 22380                       SLL   R0,0(R1)
 001F0C 5000 6060            00060 22381                       ST    R0,VTWRSIZI
 001F10 1F00/4300 400A             22382                       LC    R0,BINPRUSZ         R0 := A MANSISSA
 001F16 1810                       22387                       LR    R1,R0               R1 := B EXPONENT
 001F18 8800 0004            00004 22388                       SRL   R0,4
 001F1C 5410 7700            024C8 22389                       N     R1,=F'15'
 001F20 8900 1000            00000 22390                       SLL   R0,0(R1)
 001F24 5000 6064            00064 22391                       ST    R0,VTWRSIZO
                                   22392              *
                                   22393              * DECIDE ON SCREEN SIZE
                                   22394              *
 001F28 9170 4017      00017       22395                       TM        BINPRESZ,X'70'      ARE MOST BITS ON?
 001F2C 4770 7216            01FDE 22396                       IF        OFF,BEGIN
                                   22407  1           *
                                   22408  1           * IF NO IT GOES BY THE MODEL NUMBER
                                   22409  1           *
 001F30 1B11                       22410  1                      SR        R1,R1               CLEAR THIS FOR A SEC
 001F32 4310 4017            00017 22411  1                      IC        R1,BINPRESZ         GET THE MODEL NUMBER
0001F36 4910 7712/4770_      024DA 22413  1                      IF        (R1,EQ,=H'3'),BEGIN IF QUERY FOR SIZE
 001F3E D203 6028 7774 00028 0253C 22429  2                        MVC       VTWHEID(4),MODTAB+8 DEFAULT IS A MODEL 2
0001F44 D201 6032 603A 00032 0003A 22431  2                        MVC       VTWWIDA,VTWWIDT     ALTERNATE WIDTH
0001F4A 4820 6038            00038 22433  2                        LH        R2,VTWHEIT
 001F4E 4920 7714/4730_      024DC 22434  2                        IF        (R2,LE,=H'27'),'STH R2,VTWHEIA'  STANDARD HEIGHTS
 001F5A 7196/47F0 71A2_01F5A 01F54 22456  2                        ELSEIF    (R2,EQ,=H'32'),'STH R2,VTWHEIA'
 001F6A 71A6/47F0 71B2_01F6A 01F64 22487  2                        ELSEIF    (R2,EQ,=H'43'),'STH R2,VTWHEIA'
 001F7A 71B6/47F0 71C2_01F7A 01F74 22518  2                        ELSEIF    (R2,EQ,=H'31'),'STH R2,VTWHEIA'
 001F8A 71C6/47F0 71D2_01F8A 01F84 22549  2                        ELSEIF    (R2,EQ,=H'50'),'STH R2,VTWHEIA'
 001F9A 71D6/47F0 71E2_01F9A 01F94 22580  2                        ELSEIF    (R2,EQ,=H'62'),'STH R2,VTWHEIA'
 001FAA 71E6/47F0 71EC_01FAA 01FA4 22611  2                        ELSE      'DECR R2; STH R2,VTWHEIA'        ELSE ONE SMALLER
 001FB4                            22630  1                      END       ,                   END QUERY FOR SIZE
0001FB4 71F0/47F0 7216 01FB4 01F3C 22635  1                      ELSE      BEGIN
 001FB8 1211/4780 71FE_            22646  2                        IF        ((R1,Z),OR,(R1,GT,=H'2')),'LA R1,2' ASSUME M2
 001FCA 8910 0002            00002 22681  2                        SLL       R1,2                4 BYTES EACH
 001FCE 4111 776C            02534 22682  2                        LA        R1,MODTAB(R1)       GET THE ADDRESS
1VETS     (VETS2025) (12:59) (15MAR04) Post Routines            PROCBIND -- Process receipt of a bind                       Page   52
0Current Usings:  (ISTDBIND,R4) (VTWA,R6) (*,R7) (CP,R11) (CV,R12)
0Loc    Object Code    Addr1 Addr2  Stmt Lv Lineno    Source Statement           (Hibal 5, Asmedit 3.3)  HLASM R4.0  2004/03/15 12.59
+___    ______ ____    _____ _____  ____ __ ______    ______ _________
0001FD2 D203 6030 1000 00030 00000 22683  2                        MVC       VTWHEIA(4),0(R1)    MOVE IT INTO THE SPOT
 001FD8 D203 6028 7774 00028 0253C 22684  2                        MVC       VTWHEID(4),MODTAB+8 DEFAULT IS A MODEL 2
 001FDE                            22685  1                      END       ,
 001FDE                            22689                       END       ,                   END IT GOES BY MODEL NUMBER
0                                  22694              *
                                   22695              * IF ON THEN THE SCREEN SIZE IS SPECIFIED ANOTHER LOCATION
                                   22696              *
 001FDE 721A/47F0 7232 01FDE 01F2E 22697                       ELSE  BEGIN
 001FE2 D200 6029 4013 00029 00013 22708  1                      MVC       VTWHEID+1(1),BINSPRIR         MOVE IN ROWS
 001FE8 D200 602B 4014 0002B 00014 22709  1                      MVC       VTWWIDD+1(1),BINSPRIC         AND THE COLS
 001FEE D200 6031 4015 00031 00015 22710  1                      MVC       VTWHEIA+1(1),BINSALTR         MOVE IN ALTERNATE ROWS
 001FF4 D200 6033 4016 00033 00016 22711  1                      MVC       VTWWIDA+1(1),BINSALTC         AND ALTERNATE COLS
 001FFA                            22712                       END       ,
0001FFA D601 6028 6028_00028 00028 22717                       IF    (VTWHEID,ZERO),'MVC VTWHEID,=H"24"'   CHECK FOR ZERO
 00200A D601 602A 602A_0002A 0002A 22739                       IF    (VTWWIDD,ZERO),'MVC VTWWIDD,=H"80"'
 00201A D601 6030 6030_00030 00030 22761                       IF    (VTWHEIA,ZERO),'MVC VTWHEIA,VTWHEID'
 00202A D601 6032 6032_00032 00032 22783                       IF    (VTWWIDA,ZERO),'MVC VTWWIDA,VTWWIDD'
000203A 4820 6028            00028 22806                       LH    R2,VTWHEID
 00203E 4C20 602A            0002A 22807                       MH    R2,VTWWIDD
 002042 5020 602C            0002C 22808                       ST    R2,VTWBUFLD
 002046 4820 6030            00030 22809                       LH    R2,VTWHEIA
 00204A 4C20 6032            00032 22810                       MH    R2,VTWWIDA
 00204E 5020 6034            00034 22811                       ST    R2,VTWBUFLA
 002052 D207 6020 6028 00020 00028 22812                       MVC   VTWHEI(8),VTWHEID
0002058 5810 603C            0003C 22814                       L     R1,VTWBUFGC
 00205C 5920 602C/47B0_      0002C 22815                       IF    (R2,LT,VTWBUFLD),'L R2,VTWBUFLD'
 002068 1921/47D0 7308             22838                       IF    (R2,GT,R1),BEGIN    IF BUFFERS NOT LARGE ENOUGH
 00206E 1211/4780 72D4             22853  1                      IF    (R1,NZ),BEGIN       IF OLD BUFFERS
 002074 5810 6094            00094 22867  2                        L     R1,VTWTEXTP
 002078 58E0 76D0/0DEE       02498 22868  2                        VCALL FREECORE
 00207E 5810 6098            00098 22872  2                        L     R1,VTWHIP
 002082 58E0 76D0/0DEE       02498 22873  2                        VCALL FREECORE
 002088 5810 609C            0009C 22877  2                        L     R1,VTWCOLP
 00208C 58E0 76D0/0DEE       02498 22878  2                        VCALL FREECORE
 002092 5810 60A0            000A0 22882  2                        L     R1,VTWCSP
 002096 58E0 76D0/0DEE       02498 22883  2                        VCALL FREECORE
 00209C                            22887  1                      END   ,                   END OLD BUFFERS
0                                  22892  1           *
                                   22893  1           *  Now allocate and initialize screen buffers.
                                   22894  1           *
                                   22895  1           *
 00209C 5020 603C            0003C 22896  1                      ST    R2,VTWBUFGC
                                   22897  1
 0020A0 1802                       22898  1                      LR    R0,R2
 0020A2 58E0 76FC/0DEE       024C4 22899  1                      VCALL GETCORE             Get text buffer
 0020A8 5010 6094            00094 22903  1                      ST    R1,VTWTEXTP         Save buffer ptr
                                   22904  1
 0020AC 1802                       22905  1                      LR    R0,R2
 0020AE 58E0 76FC/0DEE       024C4 22906  1                      VCALL GETCORE             GET Highlights buffer
1VETS     (VETS2025) (12:59) (15MAR04) Post Routines            PROCBIND -- Process receipt of a bind                       Page   53
0Current Usings:  (ISTDBIND,R4) (VTWA,R6) (*,R7) (CP,R11) (CV,R12)
0Loc    Object Code    Addr1 Addr2  Stmt Lv Lineno    Source Statement           (Hibal 5, Asmedit 3.3)  HLASM R4.0  2004/03/15 12.59
+___    ______ ____    _____ _____  ____ __ ______    ______ _________
00020B4 5010 6098            00098 22910  1                      ST    R1,VTWHIP           Save buffer ptr
                                   22911  1
 0020B8 1802                       22912  1                      LR    R0,R2
 0020BA 58E0 76FC/0DEE       024C4 22913  1                      VCALL GETCORE             Get colors buffer
 0020C0 5010 609C            0009C 22917  1                      ST    R1,VTWCOLP          Save buffer ptr
                                   22918  1
 0020C4 1802                       22919  1                      LR    R0,R2
 0020C6 58E0 76FC/0DEE       024C4 22920  1                      VCALL GETCORE             Get character set buffer
 0020CC 5010 60A0            000A0 22924  1                      ST    R1,VTWCSP           Save buffer ptr
                                   22925  1
 0020D0                            22926                       END   ,                   END BUFFERS NOT LARGE ENOUGH
0DROP   ISTDBIND,R4                22931                       DROP  R4       AT THIS POINT WE ARE FINISHED WITH THE BIND
00020D0 5840 605C            0005C 22939              OPNSEC   L     R4,VTWANIBP         R4 := @NIB
 USING  ISTDNIB,R4                 22940                       WITH  (ISTDNIB,R4)
 0020D4 5850 6058            00058 22953                       L     R5,VTWAACBP         R5 := @ ACB
 USING  ACB,R5                     22954                       WITH  (ACB,R5)
 0020D8 5830 50AC            000AC 22967                       L     R3,ACBEORPL         R3 := @ RPL
 USING  RPL,R3                     22968                       WITH  (RPL,R3)
0                                  22982              *QSNAP 'ABOUT TO ACCEPT THE BIND'
 0020DC D207 400C 604C 0000C 0004C 22983                       MVC   NIBSYM,VTWAAPPL
 0020E2 5060 4008            00008 22984                       ST    R6,NIBUSER
 0020E6 D703 6044 6044_00044 00044 22985                       CLEAR VTWSECB,NIBCID
 0020F2 1813/91FF 1045_            22997                       OPNSEC RPL=(R3),NIB=(R4),BRANCH=NO,OPTCD=(ASY,CA),ECB=VTWSECB
 002144 1B00                       23041                       CLEAR R0
 002146 4110 6044            00044 23045                       LA    R1,VTWSECB
 00214A 58E0 7680/0DEE       02448 23046                       VCALL WAITECB
0002150 1813/4100 0002_            23051                       CHECK RPL=(R3)
 002160 1B22                       23058                       CLEAR R2
 002162 49F0 770C/47D0_      024D4 23062                       IF    (R15,GT,=H'4'),'LH R1,=H"28"'
 00216E 73AA/47F0 73C2 0216E 02168 23084                       ELSE  BEGIN
 002172 4900 7710/4770_      024D8 23095  1                      IF    (R0,EQ,=H'24'),'LR R1,R0'
 00217C 73B8/47F0 73C2 0217C 02178 23117  1                      ELSE  BEGIN
 002180 1F11/4310 300D             23128  2                        LC    R1,RPLRTNCD         R1 := RTNCD
 002186 4320 300E            0000E 23135  2                        IC    R2,RPLFDB2          R2 := FDBK2
 00218A                            23136  1                      END
 00218A                            23140                       END
 00218A 5910 76A8/47D0_      02470 23144                       CEIL  R1,28
                                   23163              *QSNAP (R1,R2)
 002196 58F1 73D4            0219C 23164                       L     R15,OPNSTABL(R1)
 00219A 07FF                       23165                       BR    R15                 BRANCH TO PROCESS
 00219C 0000228A                   23166              OPNSTABL DC    A(OPNSNORM)         NORMAL
 0021A0 00002220                   23167                       DC    A(OPNSERR)          ERROR SYNAD
 0021A4 000020D0                   23168                       DC    A(OPNSEC)           RETRY
 0021A8 000021C2                   23169                       DC    A(OPNSENV)          ERROR INTEGRETY
 0021AC 000021C2                   23170                       DC    A(OPNSENV)          ERROR ENVIRONMENT
 0021B0 00002220                   23171                       DC    A(OPNSERR)          ERROR LOGIC
 0021B4 00002220                   23172                       DC    A(OPNSERR)          ERROR BAD RPL
 0021B8 000021BC                   23173                       DC    A(OPNSACB)          ERROR ACB NOT OPEN
1VETS     (VETS2025) (12:59) (15MAR04) Post Routines            PROCBIND -- Process receipt of a bind                       Page   54
0Current Usings:  (RPL,R3) (ISTDNIB,R4) (ACB,R5) (VTWA,R6) (*,R7) (CP,R11) (CV,R12)
0Loc    Object Code    Addr1 Addr2  Stmt Lv Lineno    Source Statement           (Hibal 5, Asmedit 3.3)  HLASM R4.0  2004/03/15 12.59
+___    ______ ____    _____ _____  ____ __ ______    ______ _________
0
 0021BC                            23175              OPNSACB  LABEL                     ACB NOT OPEN
 0021BC 58E0 76C4/0DEE       0248C 23177                       ACALL PATHBRKN
00021C2                            23182              OPNSENV  LABEL                     ENVIRONMENT ERROR
 0021C2 5920 76AC/4770_      02474 23184                       IF    (R2,EQ,=A(X'000A')),'ACALL ERROR10A'  VTAM FAILED
 0021D0 5920 7704/4770_      024CC 23209                       IF    (R2,EQ,=A(X'0000')),BEGIN          LU NOT AVAILABLE
 0021D8 45F0 7436/0020_      021FE 23225  1                      ERROR 'THE APPLICATION IS NOT AVAILABLE'
 0021FE 47F0 7638            02400 23229  1                      B     PROCBERR
 002202                            23230                       END
                                   23234            C          IF   ((R2,EQ,=A(X'0003')),OR,            VTAM HALT ISSUED
                                                    C                (R2,EQ,=A(X'000D')),OR,            ACB CLOSED
 002202 5920 76B4/4780_      0247C                                   (R2,EQ,=A(X'000E'))),'ACALL PATHBRKN'   VTAM ERROR
 002220                            23287              OPNSERR  LABEL
 002220 5830 3058            00058 23289                       L     R3,RPLRSENS
 002224 58E0 76C8/0DEE       02490 23290                       ACALL FREEVTWA
 00222A 900F C780/4DE0_      00780 23294                       KAPUT OPNSEC,'UNEXPECTED VTAM RETURN CODE'
-002242                            23302              OPNSENVI LABEL                     ENVIRONMENT EROR
 002242 1222/4770 7498_            23304                       FAIL  (R2,ZERO),OPNSEC,'NO OUTSTANDING BIND'
 002260 45F0 74BE/001F_      02286 23330                       ERROR 'APPLICATION NO LONGER AVAILABLE'
 002286 47F0 7638            02400 23334                       B     PROCBERR
 00228A                            23335              OPNSNORM LABEL                     NORMAL COMPLETION
 00228A D203 6054 3024 00054 00024 23337                       MVC   VTWACID,RPLARG      SAVE THE SESSION ID
 002290 1814                       23338                       LR    R1,R4
 002292 58E0 76D0/0DEE       02498 23339                       VCALL FREECORE            FREE THE NIB
 002298 1B44/5040 605C             23343                       CLEAR R4,VTWANIBP
0                                  23353              *                                  SET DEFAULTS IN THE RPLS
 00229E 5830 50A4            000A4 23354                       L     R3,ACBNSRPL          R3 := @ NORMAL FLOW SEND RPL
 0022A2 1233/4770 74F8_            23355                       FAIL  (R3,Z),PROCBIND,'MISSING NS RPL'
 0022C0 D203 3024 6054 00024 00054 23381                       MVC   RPLARG,VTWACID
00022C6 5830 50A0            000A0 23383                       L     R3,ACBNRRPL          R3 := @ NORMAL FLOW RECEIVE RPL
 0022CA 1233/4770 7520_            23384                       FAIL  (R3,Z),PROCBIND,'MISSING NR RPL'
 0022E8 D203 3024 6054 00024 00054 23410                       MVC   RPLARG,VTWACID
00022EE 5830 50A8            000A8 23412                       L     R3,ACBEIRPL         R3 := @ EXPIDETED INPUT RPL
 0022F2 1233/4770 7548_            23413                       FAIL  (R3,Z),PROCBIND,'MISSING EI RPL'
 002310 D203 3024 6054 00024 00054 23439                       MVC   RPLARG,VTWACID
0002316 5830 50AC            000AC 23441                       L     R3,ACBEORPL         R3 := @ EXPEDITED OUTPUT & RESPONSES
 00231A 1233/4770 7570_            23442                       FAIL  (R3,Z),PROCBIND,'MISSING EO RPL'
 002338 D203 3024 6054 00024 00054 23468                       MVC   RPLARG,VTWACID
000233E 9503 6008/4770_00008       23470                       IF    (VSWFBIND),'SET VSWFSDT'     WAIT FOR START DATA TRAFFIC
 00234A 1BFF                       23496                       CLEAR R15
 00234C 47F0 765A            02422 23500                       EXIT  PROCBIND            NORMAL RETURN
-
 002350                            23504              REFUBIND LABEL                     REFUSE THE BIND
1VETS     (VETS2025) (12:59) (15MAR04) Post Routines            PROCBIND -- Process receipt of a bind                       Page   55
0Current Usings:  (RPL,R3) (ISTDNIB,R4) (ACB,R5) (VTWA,R6) (*,R7) (CP,R11) (CV,R12)
0Loc    Object Code    Addr1 Addr2  Stmt Lv Lineno    Source Statement           (Hibal 5, Asmedit 3.3)  HLASM R4.0  2004/03/15 12.59
+___    ______ ____    _____ _____  ____ __ ______    ______ _________
0002350 5840 605C            0005C 23507                       L     R4,VTWANIBP         R4 := @NIB
                                   23508                       WITH  (ISTDNIB,R4)
 002354 5850 6058            00058 23512                       L     R5,VTWAACBP         R5 := @ ACB
                                   23513                       WITH  (ACB,R5)
 002358 5830 50AC            000AC 23517                       L     R3,ACBEORPL         R3 := @ RPL
                                   23518                       WITH  (RPL,R3)
000235C 94EF BC7B      00C7B       23523                       CLEAR CPFDISP
 002360 1F00/BF03 F000             23530                       L2    R0,@R15
 002366 4110 F002            00002 23536                       LA    R1,@R15+2
 00236A 41F0 B050/58E0_      00050 23537                       TSEG  (R1),(R0),CR        SEG THE ERROR MESSAGE
0                                  23562              *QSNAP 'REFUSE THE BIND'
 002374 D207 400C 604C 0000C 0004C 23563                       MVC   NIBSYM,VTWAAPPL
 00237A D703 6044 6044_00044 00044 23564                       CLEAR VTWSECB,NIBCID
                                   23576            C          SESSIONC RPL=(R3),NIB=(R4),OPTCD=(ASY,CA),ECB=VTWSECB,
 002386 1813/91FF 1045_                                              CONTROL=BIND,STYPE=RESP,RESPOND=(EX,FME)
 0023EA 1B00                       23631                       CLEAR R0
 0023EC 4110 6044            00044 23635                       LA    R1,VTWSECB
 0023F0 58E0 7680/0DEE       02448 23636                       VCALL WAITECB
00023F6 58E0 76C8/0DEE       02490 23641                       ACALL FREEVTWA
00023FC 47F0 C7DA            007DA 23646                       ABORT ,
0002400                            23650              PROCBERR LABEL                     ERROR
 002400 94EF BC7B      00C7B       23652                       CLEAR CPFDISP
 002404 1F00/BF03 F000             23659                       L2    R0,@R15
 00240A 4110 F002            00002 23665                       LA    R1,@R15+2
 00240E 41F0 B050/58E0_      00050 23666                       TSEG  (R1),(R0),CR        SEG THE ERROR MESSAGE
0002418 58E0 76C8/0DEE       02490 23691                       ACALL FREEVTWA
000241E 47F0 C7DA            007DA 23696                       ABORT ,                   RETURN TO  WYLBUR
 002422 18D8/9808 D004_            23699                       PEND
 DROP   RPL,R3
 DROP   ACB,R5
 DROP   ISTDNIB,R4
 DROP   *,R7
 002430                            23736                       LTORG
 002430 000025C8                   23738                             =A(PROCLOST)
 002434 0000254C                   23739                             =A(PROCUBIR)
 002438 00001DAE                   23740                             =A(PROCBIND)
 00243C 00001D62                   23741                             =A(PROCSDT)
 002440 00001C70                   23742                             =A(PROCSENC)
 002444 00001B7C                   23743                             =A(PROCRCVC)
 002448 00000000                   23744                             =V(WAITECB)
 00244C 00000000                   23745                             =V(SEG)
 002450 00000000                   23746                             =V(SEGHX)
 002454 00000000                   23747                             =V(SEGCR)
 002458 00002634                   23748                             =A(DOOUTB)
 00245C 00003218                   23749                             =A(DOINB)
 002460 0000313E                   23750                             =A(DOCONT)
 002464 0000666C                   23751                             =A(SRECEIVE)
1VETS     (VETS2025) (12:59) (15MAR04) Post Routines            PROCBIND -- Process receipt of a bind                       Page   56
0Current Usings:  (VTWA,R6) (CP,R11) (CV,R12)
0Loc    Object Code    Addr1 Addr2  Stmt Lv Lineno    Source Statement           (Hibal 5, Asmedit 3.3)  HLASM R4.0  2004/03/15 12.59
+___    ______ ____    _____ _____  ____ __ ______    ______ _________
0002468 000055A2                   23752                             =A(SENDRESP)
 00246C 00007DC8                   23753                             =A(SRBROUT)
 002470 0000001C                   23754                             =A(28)
 002474 0000000A                   23755                             =A(X'000A')
 002478 00005842                   23756                             =A(ERROR10A)
 00247C 00000003                   23757                             =A(X'0003')
 002480 00000007                   23758                             =A(X'0007')
 002484 00000009                   23759                             =A(X'0009')
 002488 0000000E                   23760                             =A(X'000E')
 00248C 000057E8                   23761                             =A(PATHBRKN)
 002490 00006A3C                   23762                             =A(FREEVTWA)
 002494 E5E3C2C8                   23763                             =C'VTBH'
 002498 00000000                   23764                             =V(FREECORE)
 00249C 0010000A                   23765                             =A(X'0010000A')
 0024A0 00040003                   23766                             =A(X'00040003')
 0024A4 000C000C                   23767                             =A(X'000C000C')
 0024A8 0010000D                   23768                             =A(X'0010000D')
 0024AC 000C000B                   23769                             =A(X'000C000B')
 0024B0 00100003                   23770                             =A(X'00100003')
 0024B4 00100007                   23771                             =A(X'00100007')
 0024B8 00100009                   23772                             =A(X'00100009')
 0024BC 0010000E                   23773                             =A(X'0010000E')
 0024C0 000059FA                   23774                             =A(CLEARSCR)
 0024C4 00000000                   23775                             =V(GETCORE)
 0024C8 0000000F                   23776                             =F'15'
 0024CC 00000000                   23777                             =A(X'0000')
 0024D0 0000000D                   23778                             =A(X'000D')
 0024D4 0004                       23779                             =H'4'
 0024D6 001C                       23780                             =H'28'
 0024D8 0018                       23781                             =H'24'
 0024DA 0003                       23782                             =H'3'
 0024DC 001B                       23783                             =H'27'
 0024DE 0020                       23784                             =H'32'
 0024E0 002B                       23785                             =H'43'
 0024E2 001F                       23786                             =H'31'
 0024E4 0032                       23787                             =H'50'
 0024E6 003E                       23788                             =H'62'
 0024E8 0002                       23789                             =H'2'
 0024EA 0050                       23790                             =H'80'
 0024EC C140E28595A28540           23791                             =C'A Sense of '
 0024F7 408881A240828585           23792                             =C' has been received from the Application'
 00251E C595A3859940E5C7           23793                             =C'Enter VGO to continue'
1VETS     (VETS2025) (12:59) (15MAR04) Post Routines                       PROCUBIR - UNBIND received                       Page   57
0Current Usings:  (VTWA,R6) (CP,R11) (CV,R12)
0Loc    Object Code    Addr1 Addr2  Stmt Lv Lineno    Source Statement           (Hibal 5, Asmedit 3.3)  HLASM R4.0  2004/03/15 12.59
+___    ______ ____    _____ _____  ____ __ ______    ______ _________
0                                  23798              *
                                   23799              **  PROCUBIR -- UNBIND received - clean up the control blocks.
                                   23800              **
                                   23801              **  This is a normal LOGOFF from an application
                                   23802              **
                                   23803              **    On entry:
                                   23804              **      R6 = @ VTWA
                                   23805              *
                                   23806              **    On exit:
                                   23807              **      Return user to Wylbur
                                   23808              *
0                                  23810              *
                                   23811              **    REGISTER USE FOR THIS ROUTINE:
                                   23812              **       R2 =
                                   23813              **       R3 =
                                   23814              **       R4 =
                                   23815              **       R5 =
                                   23816              **       R6 = VTWA
                                   23817              *
000254C 50E0 D000/9008_      00000 23819              PROCUBIR PROC  ,                   UNBIND RECEIVED
 USING  *,R7
                                   23858              *QSNAP 'ENTERED PROCUBIR'
 002566 94EF BC7B      00C7B       23859                       CLEAR CPFDISP
 00256A 9504 6008/4780_00008       23866                       IF    (VSWFSDT,OR,VSWFBIND),EXIT    BR CLSDST PASS
 00257A 4110 7A96/4100_      02FFC 23898                       TSEG  'You have been Logged-Off from the '
 00258C 4110 798A/4100_      02EF0 23916                       TSEG  'VTAM application',,CR
 00259E 4110 7AB8/4100_      0301E 23934                       TSEG  'Returning to Wylbur'
00025B0 58E0 79A2/0DEE       02F08 23953                       ACALL FREEVTWA
0                                  23958              *QSNAP 'RETURN TO WYLBUR'
 0025B6 47F0 C7DE            007DE 23959                       B     CVNEXT              RETURN TO WYLBUR
                                   23960              ********************************************************************
                                   23961              *                 CONTROL HAS BEEN RETURNED TO WYLBUR              *
                                   23962              ********************************************************************
 0025BA 18D8/9808 D004_            23963                       PEND
 DROP   *,R7
1VETS     (VETS2025) (12:59) (15MAR04) Post Routines            PROCLOST- LOSTERM or CLEANUP received                       Page   58
0Current Usings:  (VTWA,R6) (CP,R11) (CV,R12)
0Loc    Object Code    Addr1 Addr2  Stmt Lv Lineno    Source Statement           (Hibal 5, Asmedit 3.3)  HLASM R4.0  2004/03/15 12.59
+___    ______ ____    _____ _____  ____ __ ______    ______ _________
0                                  23984              *
                                   23985              **  PROCLOST -- LOSTERM or CLEANUP received.
                                   23986              **  ALSO CALLED BY "VLOGOFF F"
                                   23987              **
                                   23988              **    On entry:
                                   23989              **      R6 = @ VTWA
                                   23990              *
                                   23991              **    On exit:
                                   23992              **      Return user to Wylbur
                                   23993              *
0                                  23995              *
                                   23996              **    REGISTER USE FOR THIS ROUTINE:
                                   23997              **       R2 =
                                   23998              **       R3 =
                                   23999              **       R4 =
                                   24000              **       R5 =
                                   24001              **       R6 = VTWA
                                   24002              *
00025C8 50E0 D000/9008_      00000 24004              PROCLOST PROC  ,                   LOSTERM or CLEANUP received
 USING  *,R7
                                   24043              *QSNAP 'ENTERED PROCLOST'
 0025E2 94EF BC7B      00C7B       24044                       CLEAR CPFDISP
 0025E6 4110 792A/4100_      02F0C 24051                       TSEG  'You have been disconnected from the '
 0025F8 4110 790E/4100_      02EF0 24069                       TSEG  'VTAM application',,CR
 00260A 4110 7A3C/4100_      0301E 24087                       TSEG  'Returning to Wylbur'
000261C 58E0 7926/0DEE       02F08 24106                       ACALL FREEVTWA
0                                  24111              *QSNAP 'RETURN TO WYLBUR'
 002622 47F0 C7DE            007DE 24112                       B     CVNEXT              RETURN TO WYLBUR
                                   24113              ********************************************************************
                                   24114              *                 CONTROL HAS BEEN RETURNED TO WYLBUR              *
                                   24115              ********************************************************************
 002626 18D8/9808 D004_            24116                       PEND
 DROP   *,R7
1VETS     (VETS2025) (12:59) (15MAR04) State Routines       DOOUTB -- Do Outbound Terminal Processing                       Page   59
0Current Usings:  (VTWA,R6) (CP,R11) (CV,R12)
0Loc    Object Code    Addr1 Addr2  Stmt Lv Lineno    Source Statement           (Hibal 5, Asmedit 3.3)  HLASM R4.0  2004/03/15 12.59
+___    ______ ____    _____ _____  ____ __ ______    ______ _________
0                                  24137              *
                                   24138              **  DOOUTB -- Routine to do outbound terminal message processing
                                   24139              **
                                   24140              **    On entry:
                                   24141              **      R6 = @ VTWA
                                   24142              **      VTWORUC POINTS TO BUFFER CHAIN
                                   24143              **
                                   24144              *
0000000                00000 0000C 24146              DOOUTBWA RECORD BEGIN
 000000                            24154  1           DOOUT345   DS    3F                  REGISTER 3,4,5 SAVE
 00000C                0000C 0000C 24155                       END
0                                  24165              *
                                   24166              **    REGISTER USE FOR THIS ROUTINE:
                                   24167              **       R2 =
                                   24168              **       R3 = COUNT REMAINING IN STRUCTURED FIELD
                                   24169              **       R4 = INPUT BUFFER DATA INDEX | @ RPL
                                   24170              **       R5 = INPUT BUFFER ADDRESS
                                   24171              **       R6 = VTWA
                                   24172              *
0                                  24174                       MACRO
                                   24175                       INCR4O ,                  INCREMENT R4 AND STEP TO NEXT BUFFER
                                   24176                       LA    R4,@R4+1
                                   24177                       IF    (R4,GE,VTBCOUNT),BEGIN
                                   24178                       SET   VTBFPROC            SET THIS BUFFER PROCESSED
                                   24179                       CLEAR R4
                                   24180                       L     R5,VTBNEXT
                                   24181                       WHILE ((R5,NZ),AND,(VTBCOUNT,ZERO)),'L R5,VTBNEXT'
                                   24182                       END
                                   24183                       DECR  R3
                                   24184                       MEND
-002634 50E0 D000/9008_      00000 24186              DOOUTB   PROC  DOOUTBWA            DO OUTBOUND TERMINAL PROCESSING
 USING  *,R7
 USING  DOOUTBWA-(4+36),R8
                                   24236              *QSNAP 'ENTERED DOOUTB'
 00264E D70B 8028 8028 00000 00000 24237                       CLEAR DOOUTBWA
 002654 1B11/1B00/94FB_            24244                       CLEAR R1,R0,VTWFRNXT
 00265C 58E0 78E2/0DEE       02F30 24255              DOOUTB1  ACALL PRCESSCR            UPDATE THE SCREEN IMAGE
0002662 4780 7020            0266E 24260                       IF    (NZ),BEGIN          IF ERROR
 002666 1841                       24271  1                      LR    R4,R1
 002668 1850                       24272  1                      LR    R5,R0
 00266A 47F0 77FA            02E48 24273  1                      B     DOOERROR
 00266E                            24274                       END
000266E 1841                       24279                       LR     R4,R1              R4 := INDEX
 002670 1250                       24280                       LTR    R5,R0              R5 := @ BUFFER
 USING  VTBHEAD,R5                 24281                       WITH  (VTBHEAD,R5)
 002672 4780 7716            02D64 24294                       IF    (NZ),BEGIN          IF MORE OUTPUT TO WRITE
 002676 5830 78E6            02F34 24305  1                      L     R3,=A(X'7FFFFFF')   R3 := L'STRUCTURE
1VETS     (VETS2025) (12:59) (15MAR04) State Routines       DOOUTB -- Do Outbound Terminal Processing                       Page   60
0Current Usings:  (VTBHEAD,R5) (VTWA,R6) (*,R7) (DOOUTBWA-(4+36),R8) (CP,R11) (CV,R12)
0Loc    Object Code    Addr1 Addr2  Stmt Lv Lineno    Source Statement           (Hibal 5, Asmedit 3.3)  HLASM R4.0  2004/03/15 12.59
+___    ______ ____    _____ _____  ____ __ ______    ______ _________
000267A 9104 6004/47E0_00004       24307  1                      IF    (VTWFRNXT),BEGIN    IF RENEX TRANSPARENCY MODE
                                   24322  2           *QSNAP 'RENEX TRANSPARENCY'
 002682 4114 5010            00010 24323  2                        LA    R1,VTBDATA(R4)
 002686 9570 1000/4780_00000       24324  2                        FAIL  (@R1,NE,X'70'),DOOUTB,'RENEX NOT X70'
 0026A6 4140 4001/4940_      00001 24352  2                        INCR4O                    STEP TO NEXT DATA CHARACTER
 0026D6 1255/4780 7094_            24426  2                        IF    ((R5,Z),OR,(R3,Z)),'L R15,=A(X"10050001"); B DOOERROR'
 0026EA 9680 BC7C      00C7C       24460  2                        SET   CPFTRAN            SET TRANSPARENT DATA
 0026EE 1255/4780 70F2             24466  2                        WHILE (R5,NZ),BEGIN
 0026F4 4114 5010            00010 24482  3                          LA    R1,VTBDATA(R4)
 0026F8 4800 500A            0000A 24483  3                          LH    R0,VTBCOUNT
 0026FC 1200/47D0 70D4             24484  3                          WHILE (R0,POS),BEGIN
 002702 1820                       24500  4                            LR    R2,R0
 002704 5920 78EE/47D0_      02F3C 24501  4                            IF    (R2,GT,255),'LA R2,255'
 002710 0620/4420 79EA_            24524  4                            DEX   R2,'TR @R1(0),EVENPAR'        TRANSLATE TO EVEN PARITY
 002716 4120 2001            00001 24543  4                            LA    R2,@R2+1
 00271A 1A12                       24544  4                            AR    R1,R2
 00271C 1B02                       24545  4                            SR    R0,R2
 00271E 47F0 70AE            026FC 24546  3                          END
0002722 4114 5010            00010 24552  3                          LA    R1,VTBDATA(R4)
 002726 4800 500A            0000A 24553  3                          LH    R0,VTBCOUNT
 00272A 1B04                       24554  3                          SR    R0,R4
 00272C 41F0 B050/58E0_      00050 24555  3                          TSEG  (R1),(R0)           WRITE DATA
 002736 1B44                       24579  3                          CLEAR R4
 002738 5850 5004            00004 24583  3                          L     R5,VTBNEXT
 00273C 47F0 70A0            026EE 24584  2                        END
                                   24589  2
                                   24590  2                          Do output buffer tracing.
                                   24591  2
 002740 1BFF                       24592  2                        CLEAR R15                 Indicate output buffer
 002742 5810 B070/5800_      00070 24596  2                        SETMSG L:CPSEGLOC,L:CPSEGLENF
 00274A 58E0 78F2/0DEE       02F40 24608  2                        VCALL VIEWTRC             Do any tracing
0002750 1B00/41F0 B050_            24613  2                        TWRITE
 00275C                            24638  1                      END   ,                   END RENEX TRANSPARENCY MODE
000275C 7112/47F0 711C_0275C 02680 24643  1                      ELSEIF (VTWRCMD,NZ),'CLEAR R5' IF READ COMMAND
000276A 7120/47F0 7716 0276A 02766 24678  1                      ELSE  BEGIN               ELSE STRUCTURED FIELD
 00276E 9045 802C            00004 24689  2                        STM   4,5,DOOUT345+4
 002772 1F22/4324 5010             24690  2                        LC    R2,VTBDATA(R4)      GET LENGTH
 002778 4140 4001/4940_      00001 24697  2                        INCR4O
 0027A8 1255/4780 7166_            24771  2                        IF    ((R5,Z),OR,(R3,Z)),'L R15,=A(X"10050002"); B DOOERROR'
 0027BC 8920 0008            00008 24805  2                        SLL   R2,8
 0027C0 4324 5010            00010 24806  2                        IC    R2,VTBDATA(R4)
 0027C4 1222/4780 717E_            24807  2                        IF    (R2,NZ),'LR R3,R2'
 0027CC 5030 8028            00000 24827  2                        ST    R3,DOOUT345
 0027D0 5B30 78FE            02F4C 24828  2                        S     R3,=F'1'            ALREADY PROCESSED 2 BYTES
 0027D4 4140 4001/4940_      00001 24829  2                        INCR4O
 002804 1255/4780 71C2_            24903  2                        IF    ((R5,Z),OR,(R3,Z)),'L R15,=A(X"10050003"); B DOOERROR'
 002818 1F22/4324 5010             24937  2                        LC    R2,VTBDATA(R4)      GET STRUCTURE ID
-                                         2
1VETS     (VETS2025) (12:59) (15MAR04) State Routines       DOOUTB -- Do Outbound Terminal Processing                       Page   61
0Current Usings:  (VTBHEAD,R5) (VTWA,R6) (*,R7) (DOOUTBWA-(4+36),R8) (CP,R11) (CV,R12)
0Loc    Object Code    Addr1 Addr2  Stmt Lv Lineno    Source Statement           (Hibal 5, Asmedit 3.3)  HLASM R4.0  2004/03/15 12.59
+___    ______ ____    _____ _____  ____ __ ______    ______ _________
000281E 5920 7906/4770_      02F54 24945  2                        IF    (R2,EQ,=A(X'03')),BEGIN       IF ERASE/RESET
                                   24961  3           *QSNAP 'ERASE/RESET'
 002826 4140 4001/4940_      00001 24962  3                          INCR4O
 002856 1255/4780 7214_            25036  3                          IF    ((R5,Z),OR,(R3,Z)),'L R15,=A(X"10050048"); B DOOERROR'
 00286A 4324 5010            00010 25070  3                          IC    R2,VTBDATA(R4)      GET IMPLICIT PARTITION SIZE
 00286E 5420 790E            02F5C 25071  3                          N     R2,=A(X'80000000')
 002872 4770 7232/94FD_      02880 25072  3                          IF    (ZERO),'CLEAR VTWFALT; MVC VTWHEI(8),VTWHEID'
 002880 7236/47F0 7240_02880 02874 25096  3                          ELSE  'SET VTWFALT; MVC VTWHEI(8),VTWHEIA'
 00288E 9200 600F      0000F       25119  3                          CLEAR VTWRMODE
 002892 1B00                       25126  3                          CLEAR R0
 002894 58E0 7912/0DEE       02F60 25130  3                          ACALL CLEARSCR                      DO THE ERASE
 00289A                            25134  2                        END   ,                             END ERASE/RESET
-                                         2
 00289A 7250/47F0 74B8_0289A 02824 25139  2                        ELSEIF (R2,EQ,=A(X'01')),BEGIN      IF READ PARTITION
                                   25164  3           *QSNAP 'READ PARTITION'
 0028A6 4140 4001/4940_      00001 25165  3                          INCR4O
 0028D6 1255/4780 7294_            25239  3                          IF    ((R5,Z),OR,(R3,Z)),'L R15,=A(X"10050004"); B DOOERROR'
 0028EA 1F22/4324 5010             25273  3                          LC    R2,VTBDATA(R4)      GET PARTITION ID
-0028F0 5920 791E/4770_      02F6C 25281  3                          IF    (R2,EQ,=A(X'00')),BEGIN       IF READ PARTITION ZERO
 0028F8 4140 4001/4940_      00001 25297  4                            INCR4O
 002928 1255/4780 72E6_            25371  4                            IF    ((R5,Z),OR,(R3,Z)),'L R15,=A(X"10050046"); B DOOERROR'
 00293C 1F22/4324 5010             25405  4                            LC    R2,VTBDATA(R4)                GET TYPE
 002942 5920 7926/4770_      02F74 25412  4                            IF     (R2,EQ,=A(X'6E')),'MVI VTWRCMD,X"6E"'  IF READ MOD ALL
 00294E 7304/47F0 7310_0294E 02948 25434  4                            ELSEIF (R2,EQ,=A(X'F2')),'MVI VTWRCMD,X"F2"'  IF READ BUFFER
 00295E 7314/47F0 7320_0295E 02958 25465  4                            ELSEIF (R2,EQ,=A(X'6E')),'MVI VTWRCMD,X"F6"'  IF READ MODIFIED
 00296E 7324/47F0 732C_0296E 02968 25496  4                            ELSE   'L R15,=A(X"10050047"); B DOOERROR' ELSE BAD TYPE
 00297A                            25514  3                          END   ,                             END READ PARTITION ZERO
-00297A 7330/47F0 74AC_0297A 028F6 25519  3                          ELSEIF (R2,EQ,=A(X'FF')),BEGIN      IF READ PARTITION QUERY
0002986 9505 600B/4770_0000B       25545  4                            IF    (RSRETRYE),'L R15,=A(X"10050006"); B DOOERROR'
 002996 9206 600B      0000B       25567  4                            SET   RSRETRYR
 00299A D70F 6010 6010 00010 00010 25573  4                            CLEAR VTWQLIST
 0029A0 4140 4001/4940_      00001 25580  4                            INCR4O
 0029D0 1255/4780 738E_            25654  4                            IF    ((R5,Z),OR,(R3,Z)),'L R15,=A(X"10050007"); B DOOERROR'
 0029E4 1F22/4324 5010             25688  4                            LC    R2,VTBDATA(R4)      GET TYPE OF QUERY
 0029EA 5920 793E/4770_      02F8C 25695  4                            IF    (R2,EQ,=F'2'),'MVC VTWQLIST(7),=X"808185868788A6"'
                                   25717  4           *  SUMMARY, USABLE AREA, CHAR SET, COLOR, HIGH, R M, IMPLICIT PARTITION
00029F8 73AE/47F0 7496_029F8 029F0 25719  4                            ELSEIF (R2,EQ,=F'3'),BEGIN          IF Q LIST
 002A04 4140 4001/4940_      00001 25744  5                              INCR4O
 002A34 1255/4780 73F2_            25818  5                              IF    ((R5,Z),OR,(R3,Z)),'L R15,=A(X"10050008"); B DOOERROR'
 002A48 4140 4001/4940_      00001 25852  5                              INCR4O
 002A78 1255/4780 7436_            25926  5                              IF    ((R5,Z),OR,(R3,Z)),'L R15,=A(X"10050009"); B DOOERROR'
 002A8C 1B11                       25960  5                              CLEAR R1
 002A8E 1244/4780 7496_            25964  5                              WHILE ((R4,NZ),AND,(R3,POS),AND,(R1,LT,=A(L'VTWQLIST))),BEGIN
 002AA2 1F00/4304 5010             26006  6                                LC    R0,VTBDATA(R4)
 002AA8 4201 6010            00010 26011  6                                STC   R0,VTWQLIST(R1)
 002AAC 4140 4001/4940_      00001 26012  6                                INCR4O
1VETS     (VETS2025) (12:59) (15MAR04) State Routines       DOOUTB -- Do Outbound Terminal Processing                       Page   62
0Current Usings:  (VTBHEAD,R5) (VTWA,R6) (*,R7) (DOOUTBWA-(4+36),R8) (CP,R11) (CV,R12)
0Loc    Object Code    Addr1 Addr2  Stmt Lv Lineno    Source Statement           (Hibal 5, Asmedit 3.3)  HLASM R4.0  2004/03/15 12.59
+___    ______ ____    _____ _____  ____ __ ______    ______ _________
0002ADC 4110 1001            00001 26086  6                                LA    R1,@R1+1
 002AE0 47F0 7440            02A8E 26087  5                              END
 002AE4                            26092  4                            END   ,                             END Q LIST
0002AE4 749A/47F0 74A2_02AE4 02A02 26097  4                            ELSE  'L R15,=A(X"10050010"); B DOOERROR'
0002AF0 58E0 7956/0DEE       02FA4 26116  4                            ACALL SENDQR              SEND THE QUERY RESPONSE
 002AF6 94BF 6006      00006       26120  4                            CLEAR VTWFRCDI
 002AFA                            26127  3                          END   ,                   END READ PARTITION QUERY
-002AFA 74B0/47F0 74B8_02AFA 02984 26132  3                          ELSE  'L R15,=A(X"10050005"); B DOOERROR' BAD PARTITION ID
 002B06                            26150  2                        END   ,                   END READ PARTITION
-                                         2
 002B06 74BC/47F0 75E8_02B06 028A4 26155  2                        ELSEIF (R2,EQ,=A(X'09')),BEGIN      IF SET REPLY MODE
                                   26180  3           *QSNAP 'SET REPLY MODE'
 002B12 4140 4001/4940_      00001 26181  3                          INCR4O
 002B42 1255/4780 7500_            26255  3                          IF    ((R5,Z),OR,(R3,Z)),'L R15,=A(X"10050049"); B DOOERROR'
 002B56 1F22/4324 5010             26289  3                          LC    R2,VTBDATA(R4)      GET PARTITION ID
 002B5C 5920 791E/4780_      02F6C 26296  3                          IF    (R2,NE,=A(X'00')),'L R15,=A(X"10050050"); B DOOERROR'
 002B6C 4140 4001/4940_      00001 26319  3                          INCR4O
 002B9C 1255/4780 755A_            26393  3                          IF    ((R5,Z),OR,(R3,Z)),'L R15,=A(X"10050051"); B DOOERROR'
 002BB0 1F22/4324 5010             26427  3                          LC    R2,VTBDATA(R4)                GET MODE
 002BB6 5920 791E/4770_      02F6C 26434  3                          IF    (R2,EQ,=A(X'00')),'MVI VTWRMODE,X"00"'
 002BC2 7578/47F0 7584_02BC2 02BBC 26456  3                          ELSEIF (R2,EQ,=A(X'01')),'MVI VTWRMODE,X"01"'
 002BD2 7588/47F0 7594_02BD2 02BCC 26487  3                          ELSEIF (R2,EQ,=A(X'02')),'MVI VTWRMODE,X"02"'
 002BE2 7598/47F0 75A0_02BE2 02BDC 26518  3                          ELSE   'L R15,=A(X"10050052"); B DOOERROR'
 002BEE 4140 4001/4940_      00001 26536  3                          INCR4O  ,                           READ NEXT CHARACTER
 002C1E 1255/4780 770A_            26610  3                          IF    ((R5,Z),OR,(R3,Z)),DOOUTB2    SHOULD BE NONE
 002C2A 58F0 7976            02FC4 26640  3                          L     R15,=A(X'10050053')           ERROR: FIELD TOO LONG
 002C2E 47F0 77FA            02E48 26641  3                          B     DOOERROR
 002C32 47F0 770A            02D58 26642  3                          B     DOOUTB2
 002C36                            26643  2                        END   ,                             END SET REPLY MODE
-                                         2
 002C36 75EC/47F0 7656_02C36 02B10 26648  2                        ELSEIF (R2,EQ,=A(X'0F')),BEGIN      IF 0FXX
 002C42 4140 4001/4940_      00001 26673  3                          INCR4O
 002C72 1255/4780 7630_            26747  3                          IF    ((R5,Z),OR,(R3,Z)),'L R15,=A(X"10050054"); B DOOERROR'
 002C86 1F22/4324 5010             26781  3                          LC    R2,VTBDATA(R4)      GET SECOND CHARACTER OF ID
 002C8C 5920 796E/4780_      02FBC 26788  3                          IF    (R2,EQ,=A(X'02')),WRITESF     IF DESTINATION/ORG
 002C94 5920 7982/4780_      02FD0 26807  3                          IF    (R2,EQ,=A(X'1F')),WRITESF     IF OEM DATA
 002C9C 58F0 7986            02FD4 26826  3                          L     R15,=A(X'10050055')           OTHER 0FXX
 002CA0 47F0 77FA            02E48 26827  3                          B     DOOERROR
 002CA4                            26828  2                        END   ,                             END 0FXX
-                                         2
 002CA4 765A/47F0 76C8_02CA4 02C40 26833  2                        ELSEIF (R2,EQ,=A(X'D0')),BEGIN      IF DATA TRANSFER
 002CB0                            26858  3           WRITESF        LABEL                     WRITE ENTIRE STRUCTURED FIELD
                                   26860  3           *QSNAP 'WRITE ENTIRE STRUCTURED FIELD'
 002CB0 9835 8028            00000 26861  3                          LM    R3,R5,DOOUT345
1VETS     (VETS2025) (12:59) (15MAR04) State Routines       DOOUTB -- Do Outbound Terminal Processing                       Page   63
0Current Usings:  (VTBHEAD,R5) (VTWA,R6) (*,R7) (DOOUTBWA-(4+36),R8) (CP,R11) (CV,R12)
0Loc    Object Code    Addr1 Addr2  Stmt Lv Lineno    Source Statement           (Hibal 5, Asmedit 3.3)  HLASM R4.0  2004/03/15 12.59
+___    ______ ____    _____ _____  ____ __ ______    ______ _________
0002CB4 9680 BC7C      00C7C       26862  3                          SET   CPFTRAN                       SET TRANSPARENT
 002CB8 1255/4780 76AC_            26868  3                          WHILE ((R5,NZ),AND,(R3,POS)),BEGIN
 002CC4 4114 5010            00010 26897  4                            LA    R1,VTBDATA(R4)
 002CC8 4800 500A            0000A 26898  4                            LH    R0,VTBCOUNT
 002CCC 1B04                       26899  4                            SR    R0,R4
 002CCE 1903/47D0 7688_            26900  4                            IF    (R0,GT,R3),'LR R0,R3'
 002CD6 1B30                       26921  4                            SR    R3,R0               STEP COUNTERS
 002CD8 1A40                       26922  4                            AR    R4,R0
 002CDA 41F0 B050/58E0_      00050 26923  4                            TSEG  (R1),(R0)
 002CE4 4940 500A/4750_      0000A 26947  4                            IF    (R4,GE,VTBCOUNT),'SET VTBFPROC; L R5,VTBNEXT; CLEAR R4'
 002CF6 47F0 766A            02CB8 26980  3                          END   ,
                                   26985  3
                                   26986  3                            Do output buffer tracing.
                                   26987  3
 002CFA 1BFF                       26988  3                          CLEAR R15                 Indicate output buffer
 002CFC 5810 B070/5800_      00070 26992  3                          SETMSG L:CPSEGLOC,L:CPSEGLENF
 002D04 58E0 78F2/0DEE       02F40 27004  3                          VCALL VIEWTRC             Do any tracing
0002D0A 1B00/41F0 B050_            27009  3                          TWRITE
 002D16                            27034  2                        END   ,                   END DATA TRANSFER
-                                         2
 002D16 76CC/47F0 76D4 02D16 02CAE 27039  2                        ELSE  BEGIN               ELSE UNKNOWN
                                   27050  3           *QSNAP 'UNKNOWN STRUCTURED FIELD'
 002D1A 58F0 798E            02FDC 27051  3                          L     R15,=A(X'10050056')
 002D1E 47F0 77FA            02E48 27052  3                          B     DOOERROR
 002D22                            27053  2                        END   ,                   END UNKNOWN
-                                         2
 002D22 1255/47D0 770A_            27058  2                        IF    (R5,POS),'INCR4O'   ADVANCE TO NEXT STRUCTURED FIELD
 002D58 1205                       27151  2           DOOUTB2      LTR   R0,R5
 002D5A 4780 7716            02D64 27152  2                        IF    (NZ),BEGIN          IF MORE DATA
 002D5E 1814                       27163  3                          LR    R1,R4
 002D60 47F0 700E            0265C 27164  3                          B     DOOUTB1
 002D64                            27165  2                        END   ,                   END MORE DATA
 002D64                            27169  1                      END   ,                   END STRUCTURED FIELD
 002D64                            27173                       END   ,                   END MORE OUTPUT TO WRITE
0002D64                            27178              DOODONE  LABEL                     WE ARE NOW DONE WITH THE DATA
 002D64 9180 BC7C/47E0_00C7C       27180                       IF    (CPFTRAN,AND,~VTWFRNXT),'CLEAR CPFTRAN'
0002D78 9180 6006/47E0_00006       27222                       IF    (VTWFWSCR),'ACALL WRITESCR'
 002D86 5850 606C            0006C 27246                       L     R5,VTWORUC          CLEAN UP THE RECEIVE BUFFERS
                                   27247                       WITH  (VTBHEAD,R5)
 002D8A 1825                       27251                       LR    R2,R5
 002D8C 1222/4780 7778             27252                       WHILE (R2,NZ),BEGIN       WHILE IN BUFFER
 002D92 1852                       27268  1                      LR    R5,R2
 002D94 5820 5004            00004 27269  1                      L     R2,VTBNEXT
 002D98 1815                       27270  1                      LR    R1,R5
 002D9A D503 7996 5000_02FE4 00000 27271  1                      FAIL  (VTBID,NE,C'VTBH'),DOOUTB,'BAD OUTBOUND BUFFER'
 002DBC 58E0 799A/0DEE       02FE8 27300  1                      VCALL FREECORE
 002DC2 47F0 773E            02D8C 27304                       END   ,                   END IN BUFFERS
1VETS     (VETS2025) (12:59) (15MAR04) State Routines       DOOUTB -- Do Outbound Terminal Processing                       Page   64
0Current Usings:  (VTBHEAD,R5) (VTWA,R6) (*,R7) (DOOUTBWA-(4+36),R8) (CP,R11) (CV,R12)
0Loc    Object Code    Addr1 Addr2  Stmt Lv Lineno    Source Statement           (Hibal 5, Asmedit 3.3)  HLASM R4.0  2004/03/15 12.59
+___    ______ ____    _____ _____  ____ __ ______    ______ _________
0002DC6 D703 606C 606C 0006C 0006C 27310                       CLEAR VTWORUC
 DROP   VTBHEAD,R5                 27317                       DROP  R5
0002DCC 9160 6006/4770_00006       27325                       IF    (~VTWFRCDI*~VTWFREBI),BEGIN   IF NOT CHANGE STATE
                                   27343  1           *                                            CONTINUE OUTBOUND
 002DD4 9509 6008/4780_00008       27344  1                      IF    (~VSOUTB,AND,~VSOUTBSS),DOOEXIT
 002DE4 58E0 799E/0DEE       02FEC 27376  1                      ACALL SENDRESP
 002DEA 58E0 79A2/0DEE       02FF0 27380  1                      ACALL SRECEIVE                      START ANOTHER RECEIVE
0002DF0                            27385                       END   ,                             END NOT CHANGE STATE
0002DF0 77A6/47F0 77F6 02DF0 02DD2 27390                       ELSE  BEGIN                         STATE HAS CHANGED
 002DF4 9120 6006/47E0_00006       27401  1                      IF    (VTWFREBI),BEGIN    IF END BRACKET
 002DFC 9201 600B      0000B       27416  2                        SET   RSNORM
 002E00 9104 6007/47E0_00007       27422  2                        IF    (VTWFKLOK),'SET VSCONT1'  SET CONTENTION
 002E0C 77C2/47F0 77C6_02E0C 02E06 27448  2                        ELSE  'SET VSCONT'
 002E14                            27470  1                      END   ,                   END END BRACKET
-002E14 77CA/47F0 77F6 02E14 02DFA 27475  1                      ELSE  BEGIN               ELSE CHANGE DIRECTION
 002E18 9208 6008      00008       27486  2                        SET   VSINB
 002E1C 9506 600B/4780_0000B       27492  2                        IF    (RSRETRYR),DOOEXIT
 002E24 9500 600E/4780_0000E       27510  2                        IF    (VTWRCMD,NZ),BEGIN  IF EXPLICIT READ COMMAND
 002E2C 58E0 79A6/0DEE       02FF4 27526  3                          ACALL SENDSCR             SEND SCREEN TO APPLICATION
 002E32                            27530  2                        END   ,                   END EXPLICIT READ COMMAND
0002E32 77E8/47F0 77F2 02E32 02E2A 27535  2                        ELSE  BEGIN
 002E36 9201 600B      0000B       27546  3                          SET   RSNORM
 002E3A 58E0 79AA/0DEE       02FF8 27552  3                          ACALL READSEND            READ THE TERMINAL AND SEND TO APPL
 002E40                            27556  2                        END
 002E40 94BF 6006      00006       27560  2                        CLEAR VTWFRCDI
 002E44                            27567  1                      END   ,                   END CHANGE DIRECTION
 002E44                            27571                       END   ,                         END STATE HAS CHANGED
0002E44 47F0 7860            02EAE 27576                       B     DOOEXIT             RETURN
-002E48                            27578              DOOERROR LABEL                     ERROR ROUTINE
 USING  VTBHEAD,R5                 27580                       WITH  (VTBHEAD,R5)        ASSUMED
                                   27593              *QSNAP 'DOOERROR'
                                   27594              *QSNAP (R0,R1,R2,R3,R4,R15)
                                   27595              *QSNAP VTBHEAD,200
 002E48 9103 6006/4780_00006       27596                       IF    (~VTWFSR1*~VTWFSR2),DOODONE
 002E50 D603 6078 6078_00078 00078 27617                       IF    (VTWSSENS,Z),BEGIN  SEND A NEGATIVE RESPONSE
 002E5A 50F0 6078            00078 27633  1                      ST    R15,VTWSSENS        R15 = NEW SENSE CODE
 002E5E D201 6074 500C 00074 0000C 27634  1                      MVC   VTWSRSEQ,VTBSEQNO
 002E64 9201 600A      0000A       27635  1                      SET   VTWRUD
 002E68                            27641                       END
0002E68 5850 606C            0006C 27646                       L     R5,VTWORUC          CLEAN UP THE RECEIVE BUFFERS
                                   27647                       WITH  (VTBHEAD,R5)
 002E6C 1825                       27651                       LR    R2,R5
 002E6E 1222/4780 785A             27652                       WHILE (R2,NZ),BEGIN       WHILE IN BUFFER
 002E74 1852                       27668  1                      LR    R5,R2
1VETS     (VETS2025) (12:59) (15MAR04) State Routines       DOOUTB -- Do Outbound Terminal Processing                       Page   65
0Current Usings:  (VTBHEAD,R5) (VTWA,R6) (*,R7) (DOOUTBWA-(4+36),R8) (CP,R11) (CV,R12)
0Loc    Object Code    Addr1 Addr2  Stmt Lv Lineno    Source Statement           (Hibal 5, Asmedit 3.3)  HLASM R4.0  2004/03/15 12.59
+___    ______ ____    _____ _____  ____ __ ______    ______ _________
0002E76 5820 5004            00004 27669  1                      L     R2,VTBNEXT
 002E7A 1815                       27670  1                      LR    R1,R5
 002E7C D503 7996 5000_02FE4 00000 27671  1                      FAIL  (VTBID,NE,C'VTBH'),DOOUTB,'BAD OUTBOUND BUFFER'
 002E9E 58E0 799A/0DEE       02FE8 27700  1                      VCALL FREECORE
 002EA4 47F0 7820            02E6E 27704                       END   ,                   END IN BUFFERS
0002EA8 D703 606C 606C 0006C 0006C 27710                       CLEAR VTWORUC
 DROP   VTBHEAD,R5                 27717                       DROP  R5
-
 002EAE                            27725              DOOEXIT  LABEL ,                   EXIT
                                   27727              *                                  SEND RESPONSE
 002EAE 5850 6078            00078 27728                       L     R5,VTWSSENS         REMEMBER SENSE
 002EB2 58E0 799E/0DEE       02FEC 27729                       ACALL SENDRESP            SEND THE RESPONSE
0002EB8 1255/4780 7892             27734                       IF    (R5,NZ),BEGIN       IF NEG RESPONSE
 002EBE 58E0 79A2/0DEE       02FF0 27748  1                      ACALL SRECEIVE            START ANOTHER RECEIVE
 002EC4 9505 6008/4780_00008       27752  1                      IF    (~VSCONT,AND,~VSCONT1,AND,~VSCONT2),'SET VSOUTB'
 002EE0                            27804                       END   ,                   END NEG RESPONSE
 002EE0 18D8/9808 D004_            27808                       PEND  ,                   RETURN
 DROP   DOOUTBWA-(4+36),R8
 DROP   *,R7
 002EF0                            27837                       LTORG
 002EF0 E5E3C1D440819797           27839                             =C'VTAM application'
 002F00 00000000                   27840                             =V(SEG)
 002F04 00000000                   27841                             =V(SEGCR)
 002F08 00006A3C                   27842                             =A(FREEVTWA)
 002F0C E896A4408881A585           27843                             =C'You have been disconnected from the '
 002F30 00003CCC                   27844                             =A(PRCESSCR)
 002F34 07FFFFFF                   27845                             =A(X'7FFFFFF')
 002F38 10050001                   27846                             =A(X'10050001')
 002F3C 000000FF                   27847                             =A(255)
 002F40 00000000                   27848                             =V(VIEWTRC)
 002F44 00000000                   27849                             =V(SEGWR)
 002F48 10050002                   27850                             =A(X'10050002')
 002F4C 00000001                   27851                             =F'1'
 002F50 10050003                   27852                             =A(X'10050003')
 002F54 00000003                   27853                             =A(X'03')
 002F58 10050048                   27854                             =A(X'10050048')
 002F5C 80000000                   27855                             =A(X'80000000')
 002F60 000059FA                   27856                             =A(CLEARSCR)
 002F64 00000001                   27857                             =A(X'01')
 002F68 10050004                   27858                             =A(X'10050004')
 002F6C 00000000                   27859                             =A(X'00')
 002F70 10050046                   27860                             =A(X'10050046')
 002F74 0000006E                   27861                             =A(X'6E')
 002F78 000000F2                   27862                             =A(X'F2')
 002F7C 10050047                   27863                             =A(X'10050047')
 002F80 000000FF                   27864                             =A(X'FF')
 002F84 10050006                   27865                             =A(X'10050006')
 002F88 10050007                   27866                             =A(X'10050007')
 002F8C 00000002                   27867                             =F'2'
 002F90 00000003                   27868                             =F'3'
1VETS     (VETS2025) (12:59) (15MAR04) State Routines       DOOUTB -- Do Outbound Terminal Processing                       Page   66
0Current Usings:  (VTWA,R6) (CP,R11) (CV,R12)
0Loc    Object Code    Addr1 Addr2  Stmt Lv Lineno    Source Statement           (Hibal 5, Asmedit 3.3)  HLASM R4.0  2004/03/15 12.59
+___    ______ ____    _____ _____  ____ __ ______    ______ _________
0002F94 10050008                   27869                             =A(X'10050008')
 002F98 10050009                   27870                             =A(X'10050009')
 002F9C 00000010                   27871                             =A(L'VTWQLIST)
 002FA0 10050010                   27872                             =A(X'10050010')
 002FA4 00005062                   27873                             =A(SENDQR)
 002FA8 10050005                   27874                             =A(X'10050005')
 002FAC 00000009                   27875                             =A(X'09')
 002FB0 10050049                   27876                             =A(X'10050049')
 002FB4 10050050                   27877                             =A(X'10050050')
 002FB8 10050051                   27878                             =A(X'10050051')
 002FBC 00000002                   27879                             =A(X'02')
 002FC0 10050052                   27880                             =A(X'10050052')
 002FC4 10050053                   27881                             =A(X'10050053')
 002FC8 0000000F                   27882                             =A(X'0F')
 002FCC 10050054                   27883                             =A(X'10050054')
 002FD0 0000001F                   27884                             =A(X'1F')
 002FD4 10050055                   27885                             =A(X'10050055')
 002FD8 000000D0                   27886                             =A(X'D0')
 002FDC 10050056                   27887                             =A(X'10050056')
 002FE0 00005BCA                   27888                             =A(WRITESCR)
 002FE4 E5E3C2C8                   27889                             =C'VTBH'
 002FE8 00000000                   27890                             =V(FREECORE)
 002FEC 000055A2                   27891                             =A(SENDRESP)
 002FF0 0000666C                   27892                             =A(SRECEIVE)
 002FF4 00004A1C                   27893                             =A(SENDSCR)
 002FF8 0000324A                   27894                             =A(READSEND)
 002FFC E896A4408881A585           27895                             =C'You have been Logged-Off from the '
 00301E D985A3A499958995           27896                             =C'Returning to Wylbur'
 003031 808185868788A6             27897                             =X'808185868788A6'
1VETS     (VETS2025) (12:59) (15MAR04) State Routines       DOOUTB -- Do Outbound Terminal Processing                       Page   67
0Current Usings:  (VTWA,R6) (CP,R11) (CV,R12)
0Loc    Object Code    Addr1 Addr2  Stmt Lv Lineno    Source Statement           (Hibal 5, Asmedit 3.3)  HLASM R4.0  2004/03/15 12.59
+___    ______ ____    _____ _____  ____ __ ______    ______ _________
0                                  27902              *
                                   27903              *
                                   27904              * THIS IS THE RENEX TRANSPARENCY EVEN PARITY TABLE
                                   27905              *
 00303E                            27906              EVENPAR  DS        0XL256
                                   27907              *                     0 1 2 3 4 5 6 7 8 9 A B C D E F
 00303E 0081820384050687           27908                       DC        X'008182038405068788090A8B0C8D8E0F'      00
 00304E 9011129314959617           27909                       DC        X'901112931495961718999A1B9C1D1E9F'      10
 00305E A02122A324A5A627           27910                       DC        X'A02122A324A5A62728A9AA2BAC2D2EAF'      20
 00306E 30B1B233B43536B7           27911                       DC        X'30B1B233B43536B7B8393ABB3CBDBE3F'      30
 00307E C04142C344C5C647           27912                       DC        X'C04142C344C5C64748C9CA4BCC4D4ECF'      40
 00308E 50D1D253D45556D7           27913                       DC        X'50D1D253D45556D7D8595ADB5CDDDE5F'      50
 00309E 60E1E263E46566E7           27914                       DC        X'60E1E263E46566E7E8696AEB6CEDEE6F'      60
 0030AE F07172F374F5F677           27915                       DC        X'F07172F374F5F67778F9FA7BFC7D7EFF'      70
 0030BE 0081820384050687           27916                       DC        X'008182038405068788090A8B0C8D8E0F'      80
 0030CE 9011129314959617           27917                       DC        X'901112931495961718999A1B9C1D1E9F'      90
 0030DE A02122A324A5A627           27918                       DC        X'A02122A324A5A62728A9AA2BAC2D2EAF'      A0
 0030EE 30B1B233B43536B7           27919                       DC        X'30B1B233B43536B7B8393ABB3CBDBE3F'      B0
 0030FE C04142C344C5C647           27920                       DC        X'C04142C344C5C64748C9CA4BCC4D4ECF'      C0
 00310E 50D1D253D45556D7           27921                       DC        X'50D1D253D45556D7D8595ADB5CDDDE5F'      D0
 00311E 60E1E263E46566E7           27922                       DC        X'60E1E263E46566E7E8696AEB6CEDEE6F'      E0
 00312E F07172F374F5F677           27923                       DC        X'F07172F374F5F67778F9FA7BFC7D7EFF'      F0
                                   27924              *                     0 1 2 3 4 5 6 7 8 9 A B C D E F
                                   27925              *
1VETS     (VETS2025) (12:59) (15MAR04) State Routines               DOCONT -- Set up Contention State                       Page   68
0Current Usings:  (VTWA,R6) (CP,R11) (CV,R12)
0Loc    Object Code    Addr1 Addr2  Stmt Lv Lineno    Source Statement           (Hibal 5, Asmedit 3.3)  HLASM R4.0  2004/03/15 12.59
+___    ______ ____    _____ _____  ____ __ ______    ______ _________
0                                  27927              *
                                   27928              **  DOCONT -- Routine to Set up Contention State
                                   27929              **
                                   27930              **    On entry:
                                   27931              **      R6 = @ VTWA
                                   27932              **
                                   27933              *
0                                  27935              *
                                   27936              **    REGISTER USE FOR THIS ROUTINE:
                                   27937              **       R2 =
                                   27938              **       R3 =
                                   27939              **       R4 = @ BUFFER
                                   27940              **       R5 = @ RPL
                                   27941              **       R6 = VTWA
                                   27942              *
                                   27943              **       Note: This routine may be called when the user has
                                   27944              **       just entered the "GO" or "ATTN" command.
                                   27945              *
000313E 50E0 D000/9008_      00000 27947              DOCONT   PROC  ,                   SET UP CONTENTION STATE
 USING  *,R7
                                   27986              *QSNAP 'ENTERED DOCONT'
 003158 949F 6006      00006       27987                       CLEAR VTWFREBI+VTWFRCDI
0                                  27998              *QSNAP 'RECEIVE FOR CONTENTION STATE'
 00315C 58E0 70A8/0DEE       03200 27999                       ACALL SRECEIVE
0003162 9104 6007/47E0_00007       28004                       IF    (VTWFKLOK),BEGIN    IF LOCKED
                                   28019  1           *QSNAP 'KEYBOARD LOCKED'
 00316A 9206 6008      00008       28020  1                      SET   VSCONT1
 00316E 47F0 7098            031F0 28026  1                      EXIT  DOCONT
 003172                            28029                       END   ,                   END LOCKED
0003172 9118 6009/4780_00009       28034                       IF    (POSTBIND+POSTUBIR),'EXIT DOCONT' EXIT IF BIND HAPPENED
 00317E 9610 BC7B      00C7B       28060                       SET CPFDISP
 003182 9509 6008/4780_00008       28066                       IF    (~VSOUTB),BEGIN     IF NOT ALREADY RECEIVED
                                   28081  1           *QSNAP 'ABOUT TO READ FROM TERMINAL FOR CONTENTION'
 00318A 1B00/1BFF/58E0_            28082  1           DOCONT1    TREAD ,                   READ FROM THE TERMINAL
0                                  28098  1           ********************************************************************
                                   28099  1           *                          WE NOW HAVE A CONTENTION STATE          *
                                   28100  1           ********************************************************************
0                                  28102  1           *QSNAP (R0,R1,R15)
 003194 47B0 704E            031A6 28103  1                      IF    (NEG),BEGIN         IF LOGGING OFF
 003198 58E0 70B0/0DEE       03208 28114  2                        ACALL FREEVTWA
000319E 94EF BC7B      00C7B       28119  2                        CLEAR CPFDISP
                                   28126  2           *QSNAP 'RETURN TO WYLBUR'
 0031A2 47F0 C7DE            007DE 28127  2                        B     CVNEXT
 0031A6                            28128  1                      END   ,                   END LOGGING OFF
 0031A6                            28132                       END   ,                   END NOT ALREADY RECEIVED
1VETS     (VETS2025) (12:59) (15MAR04) State Routines               DOCONT -- Set up Contention State                       Page   69
0Current Usings:  (VTWA,R6) (*,R7) (CP,R11) (CV,R12)
0Loc    Object Code    Addr1 Addr2  Stmt Lv Lineno    Source Statement           (Hibal 5, Asmedit 3.3)  HLASM R4.0  2004/03/15 12.59
+___    ______ ____    _____ _____  ____ __ ______    ______ _________
00031A6 9509 6008/4770_00008       28137                       IF    (VSOUTB),BEGIN      IF ENDED BY BREAK
                                   28152  1                      COMMENT                   APPLICATION HAS GAINED BRACKET
                                   28153  1           *QSNAP 'APPLICATION GAINS BRACKET'
 0031AE 47F0 7092            031EA 28154  1                      B     DOCEXIT
 0031B2                            28155                       END   ,                   END ENDED BY BREAK
00031B2 9505 6008/4780_00008       28160                       IF    (VSCONT,OR,VSINB),BEGIN       IF TERMINAL GAINS BRACKET
                                   28189  1           *QSNAP 'TERMINAL GAINS BRACKET'
                                   28190  1           *QSNAP @R1,255
 0031C2 9208 6008/9608_00008       28191  1                      SET   VSINB,VTWFSBBI
 0031CA 58E0 70B4/0DEE       0320C 28201  1                      ACALL UPDATSCR            UPDATE SCREEN & SEND TO APPLICATION
 0031D0 95FE 600C/4770_0000C       28205  1                      IF    (AID3270R,EQ,X'FE'),'ACALL SSIGNAL'      ESC-A RECEIVED
 0031DE 95FE 600C/47A0_0000C       28231  1                      IF    (AID3270R,GE,X'FE'),DOCONT1       BR NOT RECOGNIZED AID
 0031E6 47F0 7098            031F0 28251  1                      EXIT  DOCONT
 0031EA                            28254                       END   ,                   END TERMINAL GAINS BRACKET
0                                  28259                       COMMENT                   ELSE OTHER RECEIVED
                                   28260              *QSNAP 'OTHER SENSED - BID'
00031EA                            28262              DOCEXIT  LABEL ,                   EXIT
 0031EA 58E0 70BC/0DEE       03214 28264                       ACALL SENDRESP            SEND THE RESPONSE
 0031F0 18D8/9808 D004_            28268                       PEND  ,                   RETURN
 DROP   *,R7
 003200                            28288                       LTORG
 003200 0000666C                   28290                             =A(SRECEIVE)
 003204 00000000                   28291                             =V(TREAD)
 003208 00006A3C                   28292                             =A(FREEVTWA)
 00320C 000033C4                   28293                             =A(UPDATSCR)
 003210 000067B6                   28294                             =A(SSIGNAL)
 003214 000055A2                   28295                             =A(SENDRESP)
1VETS     (VETS2025) (12:59) (15MAR04) State Routines                       DOINB -- Complete Inbound                       Page   70
0Current Usings:  (VTWA,R6) (CP,R11) (CV,R12)
0Loc    Object Code    Addr1 Addr2  Stmt Lv Lineno    Source Statement           (Hibal 5, Asmedit 3.3)  HLASM R4.0  2004/03/15 12.59
+___    ______ ____    _____ _____  ____ __ ______    ______ _________
0                                  28300              *
                                   28301              **  DOINB -- Conplete Inbound
                                   28302              **           Set state to Outbound
                                   28303              **           Start a Receive from the Application
                                   28304              **
                                   28305              **    On entry:
                                   28306              **      R6 = @ VTWA
                                   28307              **
                                   28308              *
0                                  28310              *
                                   28311              **    REGISTER USE FOR THIS ROUTINE:
                                   28312              **       R2 =
                                   28313              **       R3 =
                                   28314              **       R4 =
                                   28315              **       R5 =
                                   28316              **       R6 = VTWA
                                   28317              *
0003218 50E0 D000/9008_      00000 28319              DOINB    PROC  ,                   DO INBOUND - COMPLETE INBOUND
 USING  *,R7
                                   28358              *QSNAP 'ENTERED DOINB'
 003232 9209 6008      00008       28359                       SET   VSOUTB              SET STATE TO OUTBOUND
0003236 58E0 716E/0DEE       033A0 28366                       ACALL SRECEIVE            START A RECEIVE
000323C 18D8/9808 D004_            28371                       PEND  ,                   RETURN
 DROP   *,R7
1VETS     (VETS2025) (12:59) (15MAR04) READSEND -- READ Terminal and SEND to Application                                    Page   71
0Current Usings:  (VTWA,R6) (CP,R11) (CV,R12)
0Loc    Object Code    Addr1 Addr2  Stmt Lv Lineno    Source Statement           (Hibal 5, Asmedit 3.3)  HLASM R4.0  2004/03/15 12.59
+___    ______ ____    _____ _____  ____ __ ______    ______ _________
0                                  28392              *
                                   28393              **  READSEND -- Read Terminal and Send to Application
                                   28394              **
                                   28395              **    On entry:
                                   28396              **      R6 = @ VTWA
                                   28397              **
                                   28398              *
0                                  28400              *
                                   28401              **    REGISTER USE FOR THIS ROUTINE:
                                   28402              **       R2 =
                                   28403              **       R3 =
                                   28404              **       R4 =
                                   28405              **       R5 =
                                   28406              **       R6 = VTWA
                                   28407              *
0                                  28409              *
                                   28410              **       Note: This routine is normally called from DOOUTB,
                                   28411              **       but may be called from MAINLINE when the user has
                                   28412              **       just entered the "VGO" or "VATTN" command.
                                   28413              *
000324A 50E0 D000/9008_      00000 28415              READSEND PROC  ,                   READ TERMINAL - SEND TO APPLICATION
 USING  *,R7
                                   28454              *QSNAP 'ENTERED READSEND'
 003264                            28455              RSEND1   LABEL
                                   28457              *QSNAP 'RESEND1'
 003264 58E0 7140/0DEE       033A4 28458                       ACALL SENDRESP
 00326A 9208 6008      00008       28462                       SET   VSINB
 00326E 9110 6004/4710_00004       28468                       IF    (VTWFHATT),SENDNULL
 003276 9500 600E/4780_0000E       28486                       IF    (VTWRCMD,NZ),'ACALL SENDSCR'  IF 3270 READ COMMAND
 003284 7024/47F0 7128 03284 0327C 28511                       ELSE  BEGIN
                                   28522  1           *QSNAP 'ABOUT TO READ FROM THE TERMINAL'
 003288 1B00/1BFF/58E0_            28523  1                      TREAD ,                   READ FROM THE TERMINAL
                                   28537  1           *QSNAP (R0,R1,R15)
                                   28538  1           *QSNAP @R1,32
 003292 47B0 7040            032A4 28539  1                      IF    (NEG),BEGIN         IF LOGGING OFF
 003296 58E0 714C/0DEE       033B0 28550  2                        ACALL FREEVTWA
000329C 94EF BC7B      00C7B       28555  2                        CLEAR CPFDISP
                                   28562  2           *QSNAP 'RETURN TO WYLBUR'
 0032A0 47F0 C7DE            007DE 28563  2                        B     CVNEXT
 0032A4                            28564  1                      END   ,                   END LOGGING OFF
00032A4 9508 6008/4780_00008       28569  1                      IF    (~VSINB),'B READSENX'
 0032B0 59F0 7150/4770_      033B4 28590  1                      IF    (R15,EQ,X'65'),BEGIN  IF ENDED BY BREAK
 0032B8 5850 6058            00058 28607  2           SENDNULL     L     R5,VTWAACBP         SEND A NULL CDI TO APPLICATION
 0032BC 5850 50A4            000A4 28608  2                        WITH  (ACB,R5),'L R5,ACBNSRPL'
 USING  ACB,R5
 DROP   ACB,R5
 USING  RPL,R5                     28632  2                        WITH  (RPL,R5)
 0032C0 9500 5045/4780_00045       28645  2                        FAIL  (RPLACTIV,NZ),READSEND,'RPL NOT FREE'
1VETS     (VETS2025) (12:59) (15MAR04) READSEND -- READ Terminal and SEND to Application                                    Page   72
0Current Usings:  (RPL,R5) (VTWA,R6) (*,R7) (CP,R11) (CV,R12)
0Loc    Object Code    Addr1 Addr2  Stmt Lv Lineno    Source Statement           (Hibal 5, Asmedit 3.3)  HLASM R4.0  2004/03/15 12.59
+___    ______ ____    _____ _____  ____ __ ______    ______ _________
0                                  28674  2           *QSNAP 'SEND NULL CDI'
                                   28675  2                        AIF   ('&BRANCH' EQ 'NO').MODE4
 0032E0 4510 7084/0000_      032E8 28676  2                        MODESET MODE=SUP              ********* ENTER SUPERVISOR STATE
 0032EE 5820 7154            033B8 28683  2           .MODE4       L     R2,=A(SRBROUT)
                                   28684  2         C              SEND  RPL=(R5),RECLEN=0,
                                          2         C                    OPTCD=(ASY,CA,NBUFFLST),BRACKET=(NBB,NEB) ,
                                          2         C                    CHAIN=ONLY,CHNGDIR=CMD,
 0032F2 1815/91FF 1045_                   2                              STYPE=REQ,CONTROL=DATA,BRANCH=&BRANCH,EXIT=(R2)
 00333C 182F                       28733  2                        LR    R2,R15
 00333E 0700/4510 70E4_            28734  2                        MODESET MODE=PROB             ********* LEAVE SUPERVISOR STATE
000334E 1222/4770 70F4_            28742  2                        IF    (R2,Z),'B READSENX'           RETURN
0003358 900F C780/4DE0_      00780 28763  2                        KAPUT  READSEND,'SEND REFUSED'
 DROP   RPL,R5                     28770  1                      END   ,                   END ENDED BY BREAK
-003370 58E0 7158/0DEE       033BC 28780  1                      ACALL UPDATSCR            UPDATE SCREEN & SEND TO APPLICATION
 003376 95FE 600C/4770_0000C       28784  1                      IF    (AID3270R,EQ,X'FE'),'ACALL SSIGNAL'      ESC-A RECEIVED
 003384 95FE 600C/47A0_0000C       28810  1                      IF    (AID3270R,GE,X'FE'),RSEND1        BR NOT RECOGNIZED AID
 00338C                            28830                       END
000338C 94EF 6004      00004       28835              READSENX CLEAR VTWFHATT
 003390 18D8/9808 D004_            28843                       PEND  ,                   RETURN
 DROP   *,R7
 0033A0                            28863                       LTORG
 0033A0 0000666C                   28865                             =A(SRECEIVE)
 0033A4 000055A2                   28866                             =A(SENDRESP)
 0033A8 00004A1C                   28867                             =A(SENDSCR)
 0033AC 00000000                   28868                             =V(TREAD)
 0033B0 00006A3C                   28869                             =A(FREEVTWA)
 0033B4 00000065                   28870                             =A(X'65')
 0033B8 00007DC8                   28871                             =A(SRBROUT)
 0033BC 000033C4                   28872                             =A(UPDATSCR)
 0033C0 000067B6                   28873                             =A(SSIGNAL)
1VETS     (VETS2025) (12:59) (15MAR04) UPDATSCR -- Routine to update screen image from terminal                             Page   73
0Current Usings:  (VTWA,R6) (CP,R11) (CV,R12)
0Loc    Object Code    Addr1 Addr2  Stmt Lv Lineno    Source Statement           (Hibal 5, Asmedit 3.3)  HLASM R4.0  2004/03/15 12.59
+___    ______ ____    _____ _____  ____ __ ______    ______ _________
0                                  28878              *
                                   28879              **  UPDATSCR -- Routine to update the 3270 screen image with data read
                                   28880              **              from the terminal, and send it to the application.
                                   28881              **
                                   28882              **    On entry:
                                   28883              **      R0,R1,R15  Contain indicate results of the last terminal read
                                   28884              **
                                   28885              **    On exit:
                                   28886              **      Data has been sent to the application
                                   28887              *
0000000                00000 0009C 28889              UPDATSWA RECORD BEGIN              WORK AREA
 000000                            28897  1           SCANA      DS    A                   @ AREA TO SCAN
 000004                            28898  1           SCANL      DS    F                   LENGTH TO SCAN
 000008                            28899  1           LSCANND    DS    F                   LENGTH JUST SCANNED
 00000C                            28900  1           SCRENLOC   DS    F                   CURRENT SCREEN ADDRESS
 000010                            28901  1           ENDFAC     DS    A                   @ ENDING FAC
 000014                            28902  1           NPARMS     DS    F                   NUMBER OF CSI PARMS
 000018 00                         28903  1           UPDSCRF    FLAG  ,                   FLAGS
 UPDSCRF.UNFORMAT  80 ONES         28907  1                      FLAG  UNFORMAT             UNFORMATTED SCREEN
 UPDSCRF.MFDATA    40 ONES         28912  1                      FLAG  MFDATA               MODIFIED FIELD DATA EXPECTED
 UPDSCRF.PROTECT   20 ONES         28917  1                      FLAG  PROTECT              PROTECTED FIELD
 UPDSCRF.WRAPTOP   10 ONES         28922  1                      FLAG  WRAPTOP              FIELD WRAPS ON TOP
 UPDSCRF.FIELDFUL  08 ONES         28927  1                      FLAG  FIELDFUL             THE FIELD IS FULL - IGNORE DATA
 000019                            28932  1           STOPCHAR   DS    X                   STOPPING CHARACTER
 00001A                            28933  1           PRIVPRE    DS    X                   PRIVATE PREFEX (<)
 00001B                            28934  1           CSIFUNC    DS    X                   CSI FUNCTION CODE
 00001C                            28935  1           PARMS      DS    64H                 CSI PARMS
 00009C                0009C 0009C 28936                       END
0                                  28946              *
                                   28947              **    REGISTER USE FOR THIS ROUTINE:
                                   28948              **       R0,R1   = MOVE TO ADDRESS, LENGTH
                                   28949              **       R2 =
                                   28950              **       R3 =
                                   28951              **       R4 =
                                   28952              **       R5 =
                                   28953              **       R6      = VTWA
                                   28954              **       R14,R15 = MOVE FROM ADDRESS, LENGTH
                                   28955              *
00033C4 50E0 D000/9008_      00000 28957              UPDATSCR PROC  UPDATSWA            UPDATE SCREEN
 USING  *,R7
 USING  UPDATSWA-(4+36),R8
                                   29007              *QSNAP 'ENTERED UPDATSCR'
 0033DE 12FF/4720 7574             29008                       IF    (R15,POS),BREAK     BR RC FROM TREAD WAS ATTN
 0033E4 D79B 8028 8028 00000 00000 29025                       CLEAR UPDATSWA
00033EA 5010 8028            00000 29033                       ST    R1,SCANA            SET UP INITIAL SCAN AREA
 0033EE 5000 802C            00004 29034                       ST    R0,SCANL
00033F2 9104 6004/4710_00004       29036                       IF    (VTWFRNXT,OR,CPFTRAN),BEGIN  IF TRANSPARENT DATA
 003402 1B55                       29065  1           TRANSPAR   CLEAR R5
 USING  VTBHEAD,R5                 29070  1                      WITH  (VTBHEAD,R5)
1VETS     (VETS2025) (12:59) (15MAR04) UPDATSCR -- Routine to update screen image from terminal                             Page   74
0Current Usings:  (VTBHEAD,R5) (VTWA,R6) (*,R7) (UPDATSWA-(4+36),R8) (CP,R11) (CV,R12)
0Loc    Object Code    Addr1 Addr2  Stmt Lv Lineno    Source Statement           (Hibal 5, Asmedit 3.3)  HLASM R4.0  2004/03/15 12.59
+___    ______ ____    _____ _____  ____ __ ______    ______ _________
0003404 5820 802C/1222_      00004 29083  1                      WHILE ('LT R2,SCANL',POS),BEGIN     WHILE DATA TO MOVE
 00340E 5840 6060            00060 29101  2                        L     R4,VTWRSIZI                   GET THE NEXT BUFFER
 003412 4100 4010            00010 29102  2                        LA    R0,@R4+VTBDATA-VTBHEAD
 003416 58E0 769A/0DEE       03A78 29103  2                        VCALL GETCORE
 00341C D603 6068 6068_00068 00068 29107  2                        IF    (VTWIRUC,Z),'ST R1,VTWIRUC'
 00342A 7050/47F0 7054_0342A 03424 29129  2                        ELSE  'ST R1,VTBNEXT'
 003432 1851                       29146  2                        LR    R5,R1
 003434 D70F 5000 5000 00000 00000 29147  2                        XC    VTBHEAD(VTBDATA-VTBHEAD),VTBHEAD
 00343A D203 5000 769E 00000 03A7C 29148  2                        MVC   VTBID,=C'VTBH'
 003440 4040 5008            00008 29149  2                        STH   R4,VTBDLENG
0003444 4100 5010            00010 29151  2                        LA    R0,VTBDATA          R0  := TO ADDRESS
 003448 1814                       29152  2                        LR    R1,R4
 00344A 58E0 8028            00000 29153  2                        L     R14,SCANA           R14 := FROM ADDRESS
 00344E 18F1                       29154  2                        LR    R15,R1
 003450 19F2/47D0 707A_            29155  2                        CEIL  R15,R2
 003458 40F0 500A            0000A 29161  2                        STH   R15,VTBCOUNT
000345C 183E                       29163  2                        LR    R3,R14
 00345E 1A3F                       29164  2                        AR    R3,R15
 003460 5030 8028            00000 29165  2                        ST    R3,SCANA
 003464 133F                       29166  2                        LCR   R3,R15
 003466 1A32                       29167  2                        AR    R3,R2
 003468 5030 802C            00004 29168  2                        ST    R3,SCANL
000346C 0E0E                       29170  2                        MVCL  R0,R14              MOVE THE DATA
 00346E 47F0 7026            03404 29171  1                      END   ,                   END DATA TO MOVE
0003472 58E0 76A2/0DEE       03A80 29177  1                      ACALL SENDCHAN            SEND TO APPLICATION
 003478 947F BC7C      00C7C       29181  1                      CLEAR CPFTRAN
 00347C 47F0 768A            03A68 29188  1                      EXIT  UPDATSCR            RETURN
 DROP   VTBHEAD,R5                 29191                       END   ,                             END TRANSPARENT DATA
1VETS     (VETS2025) (12:59) (15MAR04) UPDATSCR -- Routine to update screen image from terminal                             Page   75
0Current Usings:  (VTWA,R6) (*,R7) (UPDATSWA-(4+36),R8) (CP,R11) (CV,R12)
0Loc    Object Code    Addr1 Addr2  Stmt Lv Lineno    Source Statement           (Hibal 5, Asmedit 3.3)  HLASM R4.0  2004/03/15 12.59
+___    ______ ____    _____ _____  ____ __ ______    ______ _________
0                                  29201                       COMMENT                   CHECK FOR UNFORMATTED SCREEN
 003480 1B11                       29202                       CLEAR R1
 003482 58E0 76A6/0DEE       03A84 29206                       ACALL FINDNFAC
 003488 4780 70B2            03490 29210                       IF    (NZ),BEGIN          IF NO FAC FOUND
 00348C 9680 8040      00018       29221  1                      SET   UNFORMAT            SET UNFORMATTED
 003490                            29227                       END
0003490                            29232              SCAN     LABEL                     SCANNER LOOP
 003490 5830 8028            00000 29234                       L     R3,SCANA
 003494 5820 802C            00004 29235                       L     R2,SCANL
 003498 1222/47D0 7670             29236                       IF    (R2,NP),UPDAEND     IF NO MORE, END PROCESSING
000349E D703 8030 8030_00008 00008 29254                       CLEAR LSCANND,STOPCHAR,PRIVPRE
 0034AC 1222/47D0 7126             29271                       WHILE (R2,POS),BEGIN      WHILE MORE TO SCAN
 0034B2 5920 76AA/47D0_      03A88 29287  1                      CEIL  R2,256
 0034BE 0620/4420 76E8_            29306  1                      DEX   R2,'TRT @R3(0),UPDTABL'
 0034C4 4780 7108            034E6 29325  1                      IF    (NZ),BEGIN          IF FOUND
 0034C8 4220 8041            00019 29336  2                        STC   R2,STOPCHAR         SAVE THE STOP CHAR
 0034CC 1B13                       29337  2                        SR    R1,R3               R1 =  LENGTH SCANNED
 0034CE 18E1                       29338  2                        LR    R14,R1
 0034D0 5AE0 8030            00008 29339  2                        A     R14,LSCANND         R14 = TOTAL LENGTH SCANNED
 0034D4 50E0 8030            00008 29340  2                        ST    R14,LSCANND
 0034D8 1311                       29341  2                        LCR   R1,R1
 0034DA 5A10 802C            00004 29342  2                        A     R1,SCANL
 0034DE 5010 802C            00004 29343  2                        ST    R1,SCANL            R1  = REMAINING TO SCAN
 0034E2 47F0 7126            03504 29344  2                        B     MOVEDATA
 0034E6                            29345  1                      END   ,                   END FOUND
00034E6 710C/47F0 7122 034E6 034C6 29350  1                      ELSE  BEGIN               ELSE NOT FOUND
 0034EA 4120 2001            00001 29361  2                        LA    R2,@R2+1
 0034EE 4130 3002            00002 29362  2                        LA    R3,@R3+R2           R3 = NEW START
 0034F2 5A20 8030            00008 29363  2                        A     R2,LSCANND
 0034F6 5020 8030            00008 29364  2                        ST    R2,LSCANND
 0034FA 1322                       29365  2                        LCR   R2,R2               MAKE NEGATIVE
 0034FC 5A20 802C            00004 29366  2                        A     R2,SCANL            R2 = REMAIN TO SCAN
 003500                            29367  1                      END   ,                   END NOT FOUND
 003500 47F0 70CE            034AC 29371                       END   ,                   END MORE TO SCAN
-
 003504                            29377              MOVEDATA LABEL                     FIRST MOVE THE DATA STRING
 003504 58F0 8030            00008 29379                       L     R15,LSCANND
 003508 12FF/47D0 7288             29380                       IF    (R15,POS),BEGIN               IF DATA TO MV
 00350E 94BF 8040      00018       29394  1                      CLEAR MFDATA
 003512 9128 8040/4780_00018       29401  1                      IF    ((~PROTECT*~FIELDFUL),OR,(UNFORMAT)),BEGIN
 003522 5810 8028            00000 29433  2                        L     R1,SCANA            CONVERT TRAILING BLANKS TO NULLS
 003526 182F                       29434  2                        LR    R2,R15              R2 := COUNT
 003528 1A12                       29435  2                        AR    R1,R2
 00352A 0610                       29436  2                        DECR  R1                  R1 := CHARACTER ADDRESS
 00352C 1222/47D0 7168_            29438  2                        WHILE ((R2,POS),AND,('CLI @R1,X"40"',EQ)),BEGIN
 00353A 9200 1000      00000       29466  3                          MVI   @R1,X'00'
 00353E 0610                       29467  3                          DECR  R1
 003540 0620                       29469  3                          DECR  R2
 003542 47F0 714E            0352C 29471  2                        END
1VETS     (VETS2025) (12:59) (15MAR04) UPDATSCR -- Routine to update screen image from terminal                             Page   76
0Current Usings:  (VTWA,R6) (*,R7) (UPDATSWA-(4+36),R8) (CP,R11) (CV,R12)
0Loc    Object Code    Addr1 Addr2  Stmt Lv Lineno    Source Statement           (Hibal 5, Asmedit 3.3)  HLASM R4.0  2004/03/15 12.59
+___    ______ ____    _____ _____  ____ __ ______    ______ _________
0003546 5800 8034            0000C 29477  2                        L     R0,SCRENLOC         R0 := STARTING TO LOCATION
000354A 9190 8040/4780_00018       29479  2                        IF    (WRAPTOP+UNFORMAT),BEGIN      IF WRAP TOP
 003552 5810 6024            00024 29497  3                          L     R1,VTWBUFL
 003556 1B10                       29498  3                          SR    R1,R0
0003558 58E0 8028            00000 29500  3                          L     R14,SCANA           R14 := FROM ADDRESS
                                   29501  3           *                                        R15 = FROM COUNT
000355C 191F/47D0 7186_            29503  3                          IF    (R1,GT,R15),'LR R1,R15'
 003564 718A/47F0 718C_03564 03560 29524  3                          ELSE  'LR R15,R1'
 00356A 1821                       29541  3                          LR    R2,R1
 00356C 5A20 8028            00000 29542  3                          A     R2,SCANA
 003570 5020 8028            00000 29543  3                          ST    R2,SCANA
 003574 1321                       29544  3                          LCR   R2,R1
 003576 5A20 8030            00008 29545  3                          A     R2,LSCANND
 00357A 5020 8030            00008 29546  3                          ST    R2,LSCANND
000357E 1820                       29548  3                          LR    R2,R0               MOVE THE DATA   R2 = SCREENLOC
 003580 1831                       29549  3                          LR    R3,R1                               R3 = LENGTH
 003582 5A00 6094            00094 29550  3                          A     R0,VTWTEXTP
 003586 0E0E                       29551  3                          MVCL  R0,R14
 003588 1802                       29552  3                          LR    R0,R2               CLEAR THE CHARACTER ATTRIBUTES
 00358A 1813                       29553  3                          LR    R1,R3
 00358C 1BEE/1BFF                  29554  3                          CLEAR R14,R15
 003590 5A00 6098            00098 29560  3                          A     R0,VTWHIP
 003594 0E0E                       29561  3                          MVCL  R0,R14
 003596 1802                       29562  3                          LR    R0,R2
 003598 1813                       29563  3                          LR    R1,R3
 00359A 5A00 609C            0009C 29564  3                          A     R0,VTWCOLP
 00359E 0E0E                       29565  3                          MVCL  R0,R14
 0035A0 1802                       29566  3                          LR    R0,R2
 0035A2 1813                       29567  3                          LR    R1,R3
 0035A4 5A00 60A0            000A0 29568  3                          A     R0,VTWCSP
 0035A8 0E0E                       29569  3                          MVCL  R0,R14
00035AA D703 8034 8034_0000C 0000C 29571  3                          CLEAR SCRENLOC,R0,WRAPTOP
 0035B6                            29585  2                        END   ,                             END WRAP TOP
00035B6 58E0 8028            00000 29590  2                        L     R14,SCANA           MOVE THE BOTTOM HALF
 0035BA 58F0 8030/12FF       00008 29591  2                        LT    R15,LSCANND
 0035C0 47D0 7244            03622 29595  2                        IF    (POS),BEGIN         IF MORE DATA
 0035C4 5810 8038            00010 29606  3                          L     R1,ENDFAC
 0035C8 1B10                       29607  3                          SR    R1,R0
00035CA 191F/47D0 71F4_            29609  3                          IF    (R1,GT,R15),'LR R1,R15'
 0035D2 71F8/47F0 71FA_035D2 035CE 29630  3                          ELSE  'LR R15,R1'
 0035D8 1821                       29647  3                          LR    R2,R1
 0035DA 5A20 8034            0000C 29648  3                          A     R2,SCRENLOC
 0035DE 5020 8034            0000C 29649  3                          ST    R2,SCRENLOC
 0035E2 1821                       29650  3                          LR    R2,R1
 0035E4 5A20 8028            00000 29651  3                          A     R2,SCANA
 0035E8 5020 8028            00000 29652  3                          ST    R2,SCANA
 0035EC 1321                       29653  3                          LCR   R2,R1
1VETS     (VETS2025) (12:59) (15MAR04) UPDATSCR -- Routine to update screen image from terminal                             Page   77
0Current Usings:  (VTWA,R6) (*,R7) (UPDATSWA-(4+36),R8) (CP,R11) (CV,R12)
0Loc    Object Code    Addr1 Addr2  Stmt Lv Lineno    Source Statement           (Hibal 5, Asmedit 3.3)  HLASM R4.0  2004/03/15 12.59
+___    ______ ____    _____ _____  ____ __ ______    ______ _________
00035EE 5A20 8030            00008 29654  3                          A     R2,LSCANND
 0035F2 5020 8030            00008 29655  3                          ST    R2,LSCANND
00035F6 1820                       29657  3                          LR    R2,R0               MOVE THE DATA
 0035F8 1831                       29658  3                          LR    R3,R1
 0035FA 5A00 6094            00094 29659  3                          A     R0,VTWTEXTP
 0035FE 0E0E                       29660  3                          MVCL  R0,R14
 003600 1802                       29661  3                          LR    R0,R2               CLEAR THE CHARACTER ATTRIBUTES
 003602 1813                       29662  3                          LR    R1,R3
 003604 1BEE/1BFF                  29663  3                          CLEAR R14,R15
 003608 5A00 6098            00098 29669  3                          A     R0,VTWHIP
 00360C 0E0E                       29670  3                          MVCL  R0,R14
 00360E 1802                       29671  3                          LR    R0,R2
 003610 1813                       29672  3                          LR    R1,R3
 003612 5A00 609C            0009C 29673  3                          A     R0,VTWCOLP
 003616 0E0E                       29674  3                          MVCL  R0,R14
 003618 1802                       29675  3                          LR    R0,R2
 00361A 1813                       29676  3                          LR    R1,R3
 00361C 5A00 60A0            000A0 29677  3                          A     R0,VTWCSP
 003620 0E0E                       29678  3                          MVCL  R0,R14
 003622                            29679  2                        END   ,                   END MORE DATA
0003622 5810 8030            00008 29684  2                        L     R1,LSCANND
 003626 1211/47D0 7262             29685  2                        IF    (R1,POS),BEGIN      IF DATA REMAINING
 00362C 9608 8040      00018       29699  3                          SET   FIELDFUL
 003630 1821                       29705  3                          LR    R2,R1               IGNORE IT
 003632 5A20 8028            00000 29706  3                          A     R2,SCANA
 003636 5020 8028            00000 29707  3                          ST    R2,SCANA
 00363A D703 8030 8030 00008 00008 29708  3                          CLEAR LSCANND
 003640                            29715  2                        END   ,                   END DATA REMAINING
0003640 D503 8034 6024_0000C 00024 29720  2                        IF    (SCRENLOC,GE,VTWBUFL),'CLEAR SCRENLOC'
 003650 D503 8034 8038_0000C 00010 29750  2                        IF    (SCRENLOC,EQ,ENDFAC),'SET FIELDFUL'
 00365E 47B0 7288/4550_      03666 29779  2                        IF    (LT),'BAL R5,MOVENULL' IF MORE FIELD
 003666                            29796  1                      END   ,
 003666                            29800                       END   ,                   END DATA TO MOVE
-
 003666 9140 8040/47E0_00018       29805                       IF    (MFDATA),'BAL R5,MOVENULL' IF MF DATA EXPECTED
-
 003672 1FFF/43F0 8041             29827                       LC    R15,STOPCHAR        PROCESS STOPPING CHARACTER
 003678 59F0 76AE/4780_      03A8C 29834                       IF    (R15,EQ,X'27'),ESC            ESC
 003680 59F0 76B2/4770_      03A90 29854                       IF    (R15,EQ,X'FF'),BEGIN          IGNORE CHARACTER
 003688 4110 0001/5E10_      00001 29871  1                      INCR  R1,SCANA
 003694 5810 802C/0610_      00004 29877  1                      DECR  R1,SCANL
 00369E                            29882                       END
000369E 59F0 76B6/4780_      03A94 29887                       IF    (R15,EQ,X'40'),BLANK          STORE BLANK
 0036A6 59F0 76BA/4780_      03A98 29907                       IF    (R15,EQ,X'3B'),CSI            CSI
 0036AE 12FF/4780 7670             29927                       IF    (R15,ZERO),UPDAEND            END OF DATA
 0036B4 47F0 72DA            036B8 29944                       B     BLANK                         UNRECOGNIZED, STORE BLANK
1VETS     (VETS2025) (12:59) (15MAR04) UPDATSCR -- Routine to update screen image from terminal                             Page   78
0Current Usings:  (VTWA,R6) (*,R7) (UPDATSWA-(4+36),R8) (CP,R11) (CV,R12)
0Loc    Object Code    Addr1 Addr2  Stmt Lv Lineno    Source Statement           (Hibal 5, Asmedit 3.3)  HLASM R4.0  2004/03/15 12.59
+___    ______ ____    _____ _____  ____ __ ______    ______ _________
0
 0036B8                            29946              BLANK    LABEL                     INVALID CHARACTER - STORE BLANK
 0036B8 5820 8034            0000C 29948                       L     R2,SCRENLOC
 0036BC 1812                       29949                       LR    R1,R2               STORE THE BLANK
 0036BE 5A10 6094            00094 29950                       A     R1,VTWTEXTP
 0036C2 9240 1000      00000       29951                       MVI   @R1,X'40'
 0036C6 1812                       29952                       LR    R1,R2               CLEAR THE ATTRIBUTES
 0036C8 5A10 6098            00098 29953                       A     R1,VTWHIP
 0036CC 9200 1000      00000       29954                       MVI   @R1,X'00'
 0036D0 1812                       29955                       LR    R1,R2
 0036D2 5A10 609C            0009C 29956                       A     R1,VTWCOLP
 0036D6 9200 1000      00000       29957                       MVI   @R1,X'00'
 0036DA 1812                       29958                       LR    R1,R2
 0036DC 5A10 60A0            000A0 29959                       A     R1,VTWCSP
 0036E0 9200 1000      00000       29960                       MVI   @R1,X'00'
00036E4 4120 2001            00001 29962                       LA    R2,@R2+1
 0036E8 5920 6024/4750_      00024 29963                       IF    (R2,GE,VTWBUFL),'CLEAR R2'
 0036F2 5020 8034            0000C 29989                       ST    R2,SCRENLOC
 0036F6 5920 8038/4770_      00010 29990                       IF    (R2,EQ,ENDFAC),'SET FIELDFUL'
 003702 4110 0001/5E10_      00001 30018                       INCR  R1,SCANA
 00370E 5810 802C/0610_      00004 30024                       DECR  R1,SCANL
 003718 47F0 70B2            03490 30029                       B     SCAN
-
 00371C                            30031              ESC      LABEL                     PROCESS ESCAPE CHARACTER
 00371C 5810 8028            00000 30033                       L     R1,SCANA
 003720 1F22/4320 1001             30034                       LC    R2,@R1+1            R2 := ESC PARM
 003726 5920 76BE/4770_      03A9C 30041                       IF    (R2,EQ,C'['),BEGIN  IF CSI
 00372E 4220 8042            0001A 30058  1                      STC   R2,PRIVPRE
 003732 4110 0001/5E10_      00001 30059  1                      INCR  R1,SCANA
 00373E 5810 802C/0610_      00004 30065  1                      DECR  R1,SCANL
 003748 47F0 7372            03750 30070  1                      B     CSI
 00374C                            30071                       END   ,                   END CSI
000374C 47F0 72DA            036B8 30076                       B     BLANK               ELSE STORE BLANK
-
 003750                            30078              CSI      LABEL                     PROCESS CSI
 003750 9200 8042      0001A       30080                       CLEAR PRIVPRE
 003754 5810 802C/0610_      00004 30087                       DECR  R1,SCANL
 00375E 4110 0001/5E10_      00001 30092                       INCR  R1,SCANA
                                   30098            C          IF    ((@R1,EQ,C'<'),OR,(@R1,EQ,C'='),OR,(@R1,EQ,C'>'),OR,(@R1
 00376A 954C 1000/4780_00000                                         ,EQ,C'?')),BEGIN    IF LOCAL PREFEX
 00378A D200 8042 1000 0001A 00000 30155  1                      MVC   PRIVPRE,@R1
 003790 4110 0001/5E10_      00001 30156  1                      INCR  R1,SCANA
 00379C 5820 802C/0620_      00004 30162  1                      DECR  R2,SCANL
 0037A6                            30167                       END   ,                   END LOCAL PREFEX
00037A6 D77F 8044 8044 0001C 0001C 30172                       XC    PARMS(128),PARMS    CLEAR ALL THE PARMS FOR NOW
 0037AC 1B33                       30173                       CLEAR R3                  COUNTER
 0037AE 95F0 1000/47B0_00000       30177                       IF    ((@R1,LT,C'0'),AND,(@R1,GT,C',')),CSIDONE
1VETS     (VETS2025) (12:59) (15MAR04) UPDATSCR -- Routine to update screen image from terminal                             Page   79
0Current Usings:  (VTWA,R6) (*,R7) (UPDATSWA-(4+36),R8) (CP,R11) (CV,R12)
0Loc    Object Code    Addr1 Addr2  Stmt Lv Lineno    Source Statement           (Hibal 5, Asmedit 3.3)  HLASM R4.0  2004/03/15 12.59
+___    ______ ____    _____ _____  ____ __ ______    ______ _________
00037BE 4100 000A            0000A 30211              CSILOOP  LA    R0,10               LENGTH TO SCAN
 0037C2 58E0 76C2/0DEE       03AA0 30212                       VCALL DTB                 CALL WYLBUR CONV ROUTINE
 0037C8 40F3 8044            0001C 30216                       STH   R15,PARMS(R3)       STORE THIS PARM
 0037CC 4130 3002            00002 30217                       LA    R3,2(,R3)           INCREMENT COUNTER
 0037D0 955E 1000/4780_00000       30218                       IF    ((@R1,NE,C';'),AND,(@R1,NE,C',')),CSIDONE
 0037E0 4110 1001            00001 30252                       LA    R1,1(,R1)           POINT PAST SEMI
 0037E4 4930 76E6            03AC4 30253                       CH    R3,=H'128'          TOO MANY PARMS?
 0037E8 4740 73E0            037BE 30254                       BL    CSILOOP             LOOP IF NOT
 0037EC 18F3                       30255              CSIDONE  LR    R15,R3              CALCULATE # OF PARMS
 0037EE 88F0 0001            00001 30256                       SRL   R15,1
 0037F2 50F0 803C            00014 30257                       ST    R15,NPARMS
 0037F6 1F22/4320 1000             30258                       LC    R2,@R1              R2 = FUNCTION CHAR
 0037FC 4220 8043            0001B 30265                       STC   R2,CSIFUNC
 003800 4110 1001            00001 30266                       LA    R1,@R1+1            STEP PAST FUNCTION CHAR
 003804 1801                       30267                       LR    R0,R1               FIND LENGTH SCANNED
 003806 5B00 8028            00000 30268                       S     R0,SCANA
 00380A 5010 8028            00000 30269                       ST    R1,SCANA
 00380E 1300                       30270                       LCR   R0,R0
 003810 5A00 802C            00004 30271                       A     R0,SCANL
 003814 5000 802C            00004 30272                       ST    R0,SCANL
0003818 954C 8042/4770_0001A       30274                       IF    (PRIVPRE,EQ,C'<'),BEGIN
 003820 5920 76C6/4780_      03AA4 30291  1                      IF    (R2,EQ,=A(C'V')),AID          AID CHARACTER
 003828 5920 76CA/4780_      03AA8 30310  1                      IF    (R2,EQ,=A(C'C')),READCA       ADDRESS AT END OF READ
 003830 5920 76CE/4780_      03AAC 30329  1                      IF    (R2,EQ,=A(C'R')),MODIFYF      MODIFIED FIELD ADDRESS
 003838                            30348                       END
 003838 47F0 70B2            03490 30352                       B     SCAN                          ELSE IGNORE
-00383C                            30354              MODIFYF  LABEL                     MODIFIED FIELD
 00383C 4810 8044            0001C 30356                       LH    R1,PARMS            R1 = ROW
 003840 1211/47D0 746A_            30357                       IF    (R1,POS),'DECR R1'
 003848 4C10 6022            00022 30378                       MH    R1,VTWWID
 00384C 4850 8046            0001E 30379                       LH    R5,PARMS+2          R5 = COL
 003850 1255/47D0 747A_            30380                       IF    (R5,POS),'DECR R5'
 003858 1A51                       30401                       AR    R5,R1               R5 = BUFFER ADDRESS
 00385A 5950 6024/4750_      00024 30402                       IF    (R5,GE,VTWBUFL),'CLEAR R5'
 003864 5050 8034            0000C 30428                       ST    R5,SCRENLOC
0003868 9180 8040/4710_00018       30430                       IF    (UNFORMAT),SCAN     IF UNFORMATTED, IGNORE FIELDS
 003870 94C7 8040      00018       30448                       CLEAR PROTECT+WRAPTOP+FIELDFUL
 003874 5810 8034            0000C 30462                       L     R1,SCRENLOC         FIND THE START OF THE FIELD
 003878 58E0 76D2/0DEE       03AB0 30463                       ACALL FINDPFAC
 00387E 4780 74E4            038C2 30467                       IF    (NE),BEGIN          IF NOT FOUND, BOTTOM WRAPS
 003882 5810 6024            00024 30478  1                      L     R1,VTWBUFL
 003886 58E0 76D2/0DEE       03AB0 30479  1                      ACALL FINDPFAC
 00388C 4780 74B6/9680_      03894 30483  1                      IF    (NE),'SET UNFORMAT' IF UNFORMATTED SCREEN
0003894 74BA/47F0 74E4 03894 0388E 30506  1                      ELSE  BEGIN               ELSE START REALLY WRAPS
 003898 5820 6094            00094 30517  2                        L     R2,VTWTEXTP
 00389C 1A21                       30518  2                        AR    R2,R1
 00389E 9120 2000      00000       30519  2                        TM    @R2,X'20'
 0038A2 47E0 74CC/9620_      038AA 30520  2                        IF    (ON),'SET PROTECT'  IF PROTECTED
 0038AA 74D0/47F0 74E4 038AA 038A4 30542  2                        ELSE  BEGIN               ELSE PROCESS FIELD
1VETS     (VETS2025) (12:59) (15MAR04) UPDATSCR -- Routine to update screen image from terminal                             Page   80
0Current Usings:  (VTWA,R6) (*,R7) (UPDATSWA-(4+36),R8) (CP,R11) (CV,R12)
0Loc    Object Code    Addr1 Addr2  Stmt Lv Lineno    Source Statement           (Hibal 5, Asmedit 3.3)  HLASM R4.0  2004/03/15 12.59
+___    ______ ____    _____ _____  ____ __ ______    ______ _________
00038AE 9601 2000      00000       30553  3                          OI    @R2,X'01'           SET MODIFIED TAG
 0038B2 9640 8040      00018       30554  3                          SET   MFDATA
 0038B6 1B11                       30560  3                          CLEAR R1
 0038B8 58E0 76A6/0DEE       03A84 30564  3                          ACALL FINDNFAC
 0038BE 5010 8038            00010 30568  3                          ST    R1,ENDFAC
 0038C2                            30569  2                        END   ,                   END MODIFIED FIELD
 0038C2                            30573  1                      END   ,                   END START REALLY WRAPS
 0038C2                            30577                       END   ,                   END START WRAPS
00038C2 74E8/47F0 7524 038C2 03880 30582                       ELSE  BEGIN               ELSE NORMAL FIELD
 0038C6 5820 6094            00094 30593  1                      L     R2,VTWTEXTP
 0038CA 1A21                       30594  1                      AR    R2,R1
 0038CC 9120 2000      00000       30595  1                      TM    @R2,X'20'
 0038D0 47E0 74FA/9620_      038D8 30596  1                      IF    (ON),'SET PROTECT'  IF PROTECTED
 0038D8 74FE/47F0 7520 038D8 038D2 30618  1                      ELSE  BEGIN               ESLE UNPROTECTED
 0038DC 9601 2000      00000       30629  2                        OI    @R2,X'01'           SET MODIFIED TAG
 0038E0 9640 8040      00018       30630  2                        SET   MFDATA
 0038E4 4110 1001            00001 30636  2                        LA    R1,@R1+1
 0038E8 58E0 76A6/0DEE       03A84 30637  2                        ACALL FINDNFAC
 0038EE 4780 7520            038FE 30641  2                        IF    (NE),BEGIN          IF TOP WRAPS
 0038F2 9610 8040      00018       30652  3                          SET   WRAPTOP
 0038F6 1B11                       30658  3                          CLEAR R1
 0038F8 58E0 76A6/0DEE       03A84 30662  3                          ACALL FINDNFAC
 0038FE                            30666  2                        END   ,                   END TOP WRAPS
 0038FE                            30670  1                      END   ,                   END UNPROTECTED
 0038FE 5010 8038            00010 30674  1                      ST    R1,ENDFAC
 003902                            30675                       END   ,                   END NORMAL FIELD
 003902 47F0 70B2            03490 30679                       B     SCAN
-003906                            30681              READCA   LABEL                     UPDATE READ CURSOR ADDRESS
 003906 4810 8044            0001C 30683                       LH    R1,PARMS            R1 = ROW
 00390A 1211/47D0 7534_            30684                       IF    (R1,POS),'DECR R1'
 003912 4C10 6022            00022 30705                       MH    R1,VTWWID
 003916 4850 8046            0001E 30706                       LH    R5,PARMS+2          R5 = COL
 00391A 1255/47D0 7544_            30707                       IF    (R5,POS),'DECR R5'
 003922 1A51                       30728                       AR    R5,R1               R5 = BUFFER ADDRESS
 003924 5950 6024/4750_      00024 30729                       IF    (R5,GE,VTWBUFL),'L R5,VTWBUFL; DECR R5'
 003932 5050 6090            00090 30754                       ST    R5,VTWICPOS         STORE AS INSERT CURSOR ADDRESS
 003936 47F0 70B2            03490 30755                       B     SCAN
-00393A                            30757              AID      LABEL                     READ AID CHARACTER
 00393A 4810 8044            0001C 30759                       LH    R1,PARMS            R1 := AID CHARACTER
 00393E 5910 76D6/47D0_      03AB4 30760                       CEIL  R1,255
 00394A 5910 76DA/4770_      03AB8 30779                       IF    (R1,EQ,=F'130'),BEGIN IF <BREAK>
 003952 947F 6004/94EF_00004       30795  1           BREAK      CLEAR VTWFUACT,CPFDISP   CLEAR USER ACTIVE
 00395A 9108 6006/47E0_00006       30808  1                      IF    (VTWFSBBI),BEGIN    IF CONTENTION
 003962 9205 6008      00008       30823  2                        SET   VSCONT
 003966 94F7 6006      00006       30829  2                        CLEAR VTWFSBBI
 00396A                            30836  1                      END   ,                   END CONTENTION
000396A 7590/47F0 7594_0396A 03960 30841  1                      ELSE  'SET VSOUTB'        ESLE STILL OUTBOUND
                                   30863  1           *QSNAP 'RETURN TO WYLBUR'
1VETS     (VETS2025) (12:59) (15MAR04) UPDATSCR -- Routine to update screen image from terminal                             Page   81
0Current Usings:  (VTWA,R6) (*,R7) (UPDATSWA-(4+36),R8) (CP,R11) (CV,R12)
0Loc    Object Code    Addr1 Addr2  Stmt Lv Lineno    Source Statement           (Hibal 5, Asmedit 3.3)  HLASM R4.0  2004/03/15 12.59
+___    ______ ____    _____ _____  ____ __ ______    ______ _________
0003972 47F0 C7DE            007DE 30864  1                      B     CVNEXT              RETURN TO WYLBUR
                                   30865  1           ********************************************************************
                                   30866  1           *                 CONTROL HAS BEEN RETURNED TO WYLBUR              *
                                   30867  1           ********************************************************************
 003976                            30868                       END   ,                    END <BREAK>
0003976 4311 77EE            03BCC 30873                       IC    R1,AIDTABL(R1)
 00397A 5910 76DE/4770_      03ABC 30874                       IF    (R1,EQ,X'88'),'B TRANSPAR'    BR STRUCTURED FIELD
 003986 4210 600C            0000C 30897                       STC   R1,AID3270R
 00398A 5910 76B2/4780_      03A90 30898                       IF    (R1,NE,X'FF'),'STC R1,AID3270'
 003996 9205 600B/9604_0000B       30921                       SET   RSRETRYE,VTWFKLOK
 00399E 47F0 70B2            03490 30931                       B     SCAN
-
                                   30933              *
                                   30934              *  This routine suplies NULLS for a modified field,
                                   30935              *  when no data or short data has been received.
                                   30936              *
                                   30937              *  It is patterened after the MOVEDATA routine.
                                   30938              *
 0039A2                            30939              MOVENULL LABEL                     MOVE NULLS IN PLACE OF DATA
 0039A2 94BF 8040      00018       30941                       CLEAR MFDATA
 0039A6 9128 8040/4770_00018       30948                       IF    (~PROTECT*~FIELDFUL),BEGIN    IF NULLS TO MOVE
 0039AE 5800 8034            0000C 30966  1                      L     R0,SCRENLOC         R0 := STARTING TO LOCATION
00039B2 9190 8040/4780_00018       30968  1                      IF    (WRAPTOP+UNFORMAT),BEGIN      IF WRAP TOP
 0039BA 5810 6024            00024 30986  2                        L     R1,VTWBUFL
 0039BE 1B10                       30987  2                        SR    R1,R0
00039C0 1BEE/1BFF                  30989  2                        CLEAR R14,R15             R14 := FROM ADDRESS
                                   30995  2           *                                    R15 = FROM COUNT
00039C4 1820                       30997  2                        LR    R2,R0               MOVE NULLS
 0039C6 1831                       30998  2                        LR    R3,R1
 0039C8 5A00 6094            00094 30999  2                        A     R0,VTWTEXTP
 0039CC 0E0E                       31000  2                        MVCL  R0,R14
 0039CE 1802                       31001  2                        LR    R0,R2               CLEAR THE CHARACTER ATTRIBUTES
 0039D0 1813                       31002  2                        LR    R1,R3
 0039D2 5A00 6098            00098 31003  2                        A     R0,VTWHIP
 0039D6 0E0E                       31004  2                        MVCL  R0,R14
 0039D8 1802                       31005  2                        LR    R0,R2
 0039DA 1813                       31006  2                        LR    R1,R3
 0039DC 5A00 609C            0009C 31007  2                        A     R0,VTWCOLP
 0039E0 0E0E                       31008  2                        MVCL  R0,R14
 0039E2 1802                       31009  2                        LR    R0,R2
 0039E4 1813                       31010  2                        LR    R1,R3
 0039E6 5A00 60A0            000A0 31011  2                        A     R0,VTWCSP
 0039EA 0E0E                       31012  2                        MVCL  R0,R14
00039EC D703 8034 8034_0000C 0000C 31014  2                        CLEAR SCRENLOC,R0,WRAPTOP
 0039F8                            31028  1                      END   ,                             END WRAP TOP
00039F8 1BEE/1BFF                  31033  1                      CLEAR R14,R15             MOVE THE BOTTOM HALF
1VETS     (VETS2025) (12:59) (15MAR04) UPDATSCR -- Routine to update screen image from terminal                             Page   82
0Current Usings:  (VTWA,R6) (*,R7) (UPDATSWA-(4+36),R8) (CP,R11) (CV,R12)
0Loc    Object Code    Addr1 Addr2  Stmt Lv Lineno    Source Statement           (Hibal 5, Asmedit 3.3)  HLASM R4.0  2004/03/15 12.59
+___    ______ ____    _____ _____  ____ __ ______    ______ _________
00039FC 5810 8038            00010 31039  1                      L     R1,ENDFAC
 003A00 1B10                       31040  1                      SR    R1,R0
0003A02 1821                       31042  1                      LR    R2,R1
 003A04 5A20 8034            0000C 31043  1                      A     R2,SCRENLOC
 003A08 5020 8034            0000C 31044  1                      ST    R2,SCRENLOC
0003A0C 1820                       31046  1                      LR    R2,R0               MOVE NULLS
 003A0E 1831                       31047  1                      LR    R3,R1
 003A10 5A00 6094            00094 31048  1                      A     R0,VTWTEXTP
 003A14 0E0E                       31049  1                      MVCL  R0,R14
 003A16 1802                       31050  1                      LR    R0,R2               CLEAR THE CHARACTER ATTRIBUTES
 003A18 1813                       31051  1                      LR    R1,R3
 003A1A 1BEE/1BFF                  31052  1                      CLEAR R14,R15
 003A1E 5A00 6098            00098 31058  1                      A     R0,VTWHIP
 003A22 0E0E                       31059  1                      MVCL  R0,R14
 003A24 1802                       31060  1                      LR    R0,R2
 003A26 1813                       31061  1                      LR    R1,R3
 003A28 5A00 609C            0009C 31062  1                      A     R0,VTWCOLP
 003A2C 0E0E                       31063  1                      MVCL  R0,R14
 003A2E 1802                       31064  1                      LR    R0,R2
 003A30 1813                       31065  1                      LR    R1,R3
 003A32 5A00 60A0            000A0 31066  1                      A     R0,VTWCSP
 003A36 0E0E                       31067  1                      MVCL  R0,R14
0003A38 9608 8040      00018       31069  1                      SET   FIELDFUL
 003A3C D503 8034 6024_0000C 00024 31075  1                      IF    (SCRENLOC,GE,VTWBUFL),'CLEAR SCRENLOC'
 003A4C                            31105                       END   ,                   END NULLS TO MOVE
 003A4C 07F5                       31109                       BR    R5                  RETURN
-
 003A4E                            31111              UPDAEND  LABEL                     END OF PROCESSING
 003A4E 9140 8040/47E0_00018       31113                       IF    (MFDATA),'BAL R5,MOVENULL' IF MF DATA EXPECTED
 003A5A 95FE 600C/47B0_0000C       31134                       IF    (AID3270R,LT,X'FE'),'ACALL SENDSCR' SEND SCREEN TO APPPL
 003A68 18D8/9808 D004_            31160                       PEND  ,                   RETURN
 DROP   UPDATSWA-(4+36),R8
 DROP   *,R7
 003A78                            31185                       LTORG
 003A78 00000000                   31187                             =V(GETCORE)
 003A7C E5E3C2C8                   31188                             =C'VTBH'
 003A80 000053FE                   31189                             =A(SENDCHAN)
 003A84 00004892                   31190                             =A(FINDNFAC)
 003A88 00000100                   31191                             =A(256)
 003A8C 00000027                   31192                             =A(X'27')
 003A90 000000FF                   31193                             =A(X'FF')
 003A94 00000040                   31194                             =A(X'40')
 003A98 0000003B                   31195                             =A(X'3B')
 003A9C 000000AD                   31196                             =A(C'[')
 003AA0 00000000                   31197                             =V(DTB)
 003AA4 000000E5                   31198                             =A(C'V')
 003AA8 000000C3                   31199                             =A(C'C')
 003AAC 000000D9                   31200                             =A(C'R')
 003AB0 000048F6                   31201                             =A(FINDPFAC)
1VETS     (VETS2025) (12:59) (15MAR04) UPDATSCR -- Routine to update screen image from terminal                             Page   83
0Current Usings:  (VTWA,R6) (CP,R11) (CV,R12)
0Loc    Object Code    Addr1 Addr2  Stmt Lv Lineno    Source Statement           (Hibal 5, Asmedit 3.3)  HLASM R4.0  2004/03/15 12.59
+___    ______ ____    _____ _____  ____ __ ______    ______ _________
0003AB4 000000FF                   31202                             =A(255)
 003AB8 00000082                   31203                             =F'130'
 003ABC 00000088                   31204                             =A(X'88')
 003AC0 00004A1C                   31205                             =A(SENDSCR)
 003AC4 0080                       31206                             =H'128'
1VETS     (VETS2025) (12:59) (15MAR04) UPDATSCR -- Routine to update screen image from terminal                             Page   84
0Current Usings:  (VTWA,R6) (CP,R11) (CV,R12)
0Loc    Object Code    Addr1 Addr2  Stmt Lv Lineno    Source Statement           (Hibal 5, Asmedit 3.3)  HLASM R4.0  2004/03/15 12.59
+___    ______ ____    _____ _____  ____ __ ______    ______ _________
0                                  31211              *
                                   31212              *
                                   31213              * THIS IS THE INPUT TRT TABLE
                                   31214              *
 003ACC                            31215              UPDTABL  DS        0XL256
                                   31216              *                     0 1 2 3 4 5 6 7 8 9 A B C D E F
 003ACC 0040404040404040           31217                       DC        X'0040404040404040FF40404040404040'      00
 003ADC 4040404040404040           31218                       DC        X'40404040404040404040404040404040'      10
 003AEC 4040404040404027           31219                       DC        X'40404040404040274040404040404040'      20
 003AFC 4040404040404040           31220                       DC        X'40404040404040404040403B40404040'      30
 003B0C 0000000000000000           31221                       DC        X'00000000000000000000000000000000'      40
 003B1C 0000000000000000           31222                       DC        X'00000000000000000000000000000000'      50
 003B2C 0000000000000000           31223                       DC        X'00000000000000000000000000000000'      60
 003B3C 0000000000000000           31224                       DC        X'00000000000000000000000000000000'      70
 003B4C 0000000000000000           31225                       DC        X'00000000000000000000000000000000'      80
 003B5C 0000000000000000           31226                       DC        X'00000000000000000000000000000000'      90
 003B6C 0000000000000000           31227                       DC        X'00000000000000000000000000000000'      A0
 003B7C 0000000000000000           31228                       DC        X'00000000000000000000000000000000'      B0
 003B8C 0000000000000000           31229                       DC        X'00000000000000000000000000000000'      C0
 003B9C 0000000000000000           31230                       DC        X'00000000000000000000000000000000'      D0
 003BAC 0000000000000000           31231                       DC        X'00000000000000000000000000000000'      E0
 003BBC 0000000000000000           31232                       DC        X'00000000000000000000000000000000'      F0
                                   31233              *                     0 1 2 3 4 5 6 7 8 9 A B C D E F
                                   31234              *
                                   31235              *
                                   31236              * THIS IS THE AID EQUIVALENCE TABLE.  THIS GIVE THE IBM CODE
                                   31237              * FOR THE AID RECEIVED
                                   31238              *
 003BCC                            31239              AIDTABL  DS        0XL256
                                   31240              *                     0 1 2 3 4 5 6 7 8 9 A B C D E F
 003BCC 7DFFFFFFFFFFFFFF           31241                       DC        X'7DFFFFFFFFFFFFFFFFFFFFFFFFFFFFFF'      00
 003BDC FFFFFFFFFFFFFFFF           31242                       DC        X'FFFFFFFFFFFFFFFFFFFFFFFFFFFFFFFF'      10
 003BEC FFFFFFFFFFFFFFFF           31243                       DC        X'FFFFFFFFFFFFFFFFFFFFFFFFFFFFFFFF'      20
 003BFC FFFFFFFFFFFFFFFF           31244                       DC        X'FFFFFFFFFFFFFFFFFFFFFFFFFFFFFFFF'      30
 003C0C FFFEFF6D6EFF6BFF           31245                       DC        X'FFFEFF6D6EFF6BFFFFFFFFFFFFFFFFFF'      40
 003C1C FFFFFF6CFFFFFFFF           31246                       DC        X'FFFFFF6CFFFFFFFFFFFFFFFFFFFFFFFF'      50
 003C2C FFFFFFFFFFEFFFFF           31247                       DC        X'FFFFFFFFFFEFFFFFFFFFFFFFFFFFFFFF'      60
 003C3C FFFFFFFFFFFFFFFF           31248                       DC        X'FFFFFFFFFFFFFFFFFFFFFFFFFFFFFFFF'      70
 003C4C FFFFFFFFFFFFFFFF           31249                       DC        X'FFFFFFFFFFFFFFFF88FFFFFFFFFFFFFF'      80
 003C5C FFFFFFFFFFFFFFFF           31250                       DC        X'FFFFFFFFFFFFFFFFFFFFFFFFFFFFFFFF'      90
 003C6C FF6D7E6A7F7DE67D           31251                       DC        X'FF6D7E6A7F7DE67D88E8606C6E6BFFFF'      A0
 003C7C E77D7D7D7D7D7D7D           31252                       DC        X'E77D7D7D7D7D7D7D7D7D7D7D7D7D7D7D'      B0
 003C8C FFFFFFFFFFFFFFFF           31253                       DC        X'FFFFFFFFFFFFFFFFFFF1F2F3F4F5F6F7'      C0
 003C9C F8F97A7B7CC1C2C3           31254                       DC        X'F8F97A7B7CC1C2C3C4C5C6C7C8C94A4B'      D0
 003CAC 4CFFFFFFFFFFFFFF           31255                       DC        X'4CFFFFFFFFFFFFFFFFFFFFFFFFFFFFFF'      E0
 003CBC FFFFFFFFFFFFFFFF           31256                       DC        X'FFFFFFFFFFFFFFFFFFFFFFFFFFFFFFFF'      F0
                                   31257              *                     0 1 2 3 4 5 6 7 8 9 A B C D E F
                                   31258              *
                                   31259              *  X'FF' indicates unrecognized AID, X'EF' indicates ATTN
1VETS     (VETS2025) (12:59) (15MAR04) PRCESSCR -- Routine to update 3270 buffer image from host                            Page   85
0Current Usings:  (VTWA,R6) (CP,R11) (CV,R12)
0Loc    Object Code    Addr1 Addr2  Stmt Lv Lineno    Source Statement           (Hibal 5, Asmedit 3.3)  HLASM R4.0  2004/03/15 12.59
+___    ______ ____    _____ _____  ____ __ ______    ______ _________
0                                  31261              *
                                   31262              **  PRCESSCR -- Routine to process received buffer updates
                                   31263              **            from the  Application, and update the 3270 buffer image.
                                   31264              **
                                   31265              **    On entry:
                                   31266              **      VTWOBRUC points to the first buffer header
                                   31267              **      R1 = Offset in data to start processing
                                   31268              **      R0 = 0 Start processing with first buffer
                                   31269              **      R0 = @ Buffer to start processing structure
                                   31270              **
                                   31271              **    On exit: R15 = 0 or contains error sense code
                                   31272              **             R0  = @ current beffer
                                   31273              **             R0  = 0 if entire buffer was screen data
                                   31274              **             R1  = Data offset of non screen structured field
                                   31275              **                   or offset of X'70' for RENEX Transparent Data
                                   31276              **    The following indicates that additional proceessing must be done:
                                   31277              **       R0 ~= 0      Indicates non screen output to be done
                                   31278              **       VTWRCMD ~= 0 Indicates a READ command to be processed
                                   31279              **       VTWFRNXT ON  Indicates RENEX transparency mode
                                   31280              **
                                   31281              ** => Note: This routine may be called from the Receive Dispatcher
                                   31282              **          Routine, so that the screen image may be updated
                                   31283              **          while the user is NOT active. <=
                                   31284              *
0000000                00000 0000E 31286              PRCSWA   RECORD BEGIN             WORK AREA
 000000                            31294  1           PRCSSCRF   DS    F                   FULL WORD SCRATCH AREA
 000004                            31295  1           PRCSFLEN   DS    F                   STRUCTURED FIELD LENGTH
 000008                            31296  1           RCVPAIRC   DS    H                   SFE, SA, MF PAIR COUNT
 00000A                            31297  1           RCVCAHI    DS    X                   CHARACTER HIGHLIGHT
 00000B                            31298  1           RCVCACOL   DS    X                   CHARACTER COLOR
 00000C                            31299  1           RCVCACS    DS    X                   CHARACTER CHARACTER SET
 00000D 00                         31300  1           PRCSFLA    FLAG  ,                   FLAGS
 PRCSFLA.LASTFACP  80 ONES         31304  1                      FLAG  LASTFACP             LAST FAC WAS PROTECTED
 PRCSFLA.GESC      40 ONES         31309  1                      FLAG  GESC                 NEXT CHARACTER FROM F1 SET
 PRCSFLA.PTEN      20 ONES         31314  1                      FLAG  PTEN                 PROGRAM TAB ORDER ENTERS NULLS
 00000E                0000E 0000E 31319                       END
0                                  31329              *
                                   31330              **    REGISTER USE FOR THIS ROUTINE:
                                   31331              **       R2 = CHARACTER BEING PROCESSED
                                   31332              **       R3 = SCREEN CURRENT INDEX
                                   31333              **       R4 = INPUT BUFFER DATA INDEX
                                   31334              **       R5 = INPUT BUFFER ADDRESS
                                   31335              **       R6 = VTWA
                                   31336              *
1VETS     (VETS2025) (12:59) (15MAR04) PRCESSCR -- Routine to update 3270 buffer image from host                            Page   86
0Current Usings:  (VTWA,R6) (CP,R11) (CV,R12)
0Loc    Object Code    Addr1 Addr2  Stmt Lv Lineno    Source Statement           (Hibal 5, Asmedit 3.3)  HLASM R4.0  2004/03/15 12.59
+___    ______ ____    _____ _____  ____ __ ______    ______ _________
0                                  31338                       MACRO
                                   31339                       INCR4 ,                   INCREMENT R4 AND STEP TO NEXT BUFFER
                                   31340                       BAL   R14,INCR4
                                   31341                       MEND
0                                  31343                       MACRO
                                   31344                       INCR3 ,                   INCREMENT R3 AND WRAP TO ZERO
                                   31345                       LA    R3,@R3+1
                                   31346                       IF    (R3,GE,VTWBUFL),'CLEAR R3'
                                   31347                       MEND
-003CCC 50E0 D000/9008_      00000 31349              PRCESSCR PROC  PRCSWA           PROCESS RECEIVED SCREEN UPDATES
 USING  *,R7
 USING  PRCSWA-(4+36),R8
                                   31399              *QSNAP 'ENTERED PRCESSCR'
 003CE6 D70D 8028 8028_00000 00000 31400                       CLEAR PRCSWA,VTWFRNXT
 003CF0 D203 802C 7AA2 00004 04788 31412                       MVC   PRCSFLEN,=A(X'7FFFFFFF')
                                   31413
 003CF6 1841                       31414                       LR    R4,R1               R4 = BUFFER DATA INDEX
 003CF8 1250/4770 7062             31415                       IF    ('LTR R5,R0',NZ),PRCSTR
 003CFE 5850 606C            0006C 31431                       L     R5,VTWORUC          R5=BUFFER BASE
 USING  VTBHEAD,R5                 31432                       WITH  (VTBHEAD,R5)
 003D02 1255/4780 7034_            31445                       WHILE ((R5,NZ),AND,(VTBCOUNT,ZERO)),'L R5,VTBNEXT'
 003D1A 1205/4770 7042_            31483                       IF    ('LTR R0,R5',ZERO),'CLEAR R1,R15; B PSCREXIT'
0003D28 1F22/4324 5010             31509                       LC    R2,VTBDATA(R4)      GET FIRST CHARACTER
                                   31516              *                                  SHOULD BE A COMMAND
 003D2E 5920 7AA6/4770_      0478C 31517                       IF    (R2,EQ,X'F3'),BEGIN           IF STRUCTURED FIELD
 003D36 45E0 7A4C            04732 31534  1                      INCR4
 003D3A 4770 7062/58F0_      03D48 31536  1                      IF    (Z),'L R15,=A(X"10050015"); LR R0,R5; B PSCREXIT'
 003D48                            31555  1           PRCSTR     LABEL                     RECEIVE STRUCTURE
 003D48 1814                       31557  1                      LR    R1,R4               SAV OFFSET TO STRUCTURED FILED
 003D4A 1805                       31558  1                      LR    R0,R5               AND BUFFER ADDRESS
 003D4C 1F22/4324 5010             31559  1                      LC    R2,VTBDATA(R4)       GET COUNT
 003D52 45E0 7A4C            04732 31566  1                      INCR4
 003D56 4770 707E/58F0_      03D64 31568  1                      IF    (Z),'L R15,=A(X"10050016"); LR R0,R5; B PSCREXIT'
 003D64 8920 0008            00008 31587  1                      SLL   R2,8
 003D68 4324 5010            00010 31588  1                      IC    R2,VTBDATA(R4)
 003D6C 1222/4770 7090_            31589  1                      IF    (R2,Z),'L R2,=A(X"7FFFFFFF")'
 003D76 5B20 7AB2            04798 31609  1                      S     R2,=F'1'            ALREADY PROCESSED 2 BYTES
 003D7A 5020 802C            00004 31610  1                      ST    R2,PRCSFLEN
 003D7E 45E0 7A4C            04732 31611  1                      INCR4
 003D82 4770 70AA/58F0_      03D90 31613  1                      IF    (Z),'L R15,=A(X"10050017"); LR R0,R5; B PSCREXIT'
 003D90 1F22/4324 5010             31632  1                      LC    R2,VTBDATA(R4)
 003D96 5920 7ABA/4780_      047A0 31639  1                      IF    (R2,NE,X'40'),BEGIN           IF NOT SCREEN
 003D9E 1BFF                       31656  2                        CLEAR R15
 003DA0 47F0 7A44            0472A 31660  2                        B     PSCREXIT
 003DA4                            31661  1                      END   ,                             END NOT SCREEN
0003DA4 45E0 7A4C            04732 31666  1                      INCR4
 003DA8 4770 70D0/58F0_      03DB6 31668  1                      IF    (Z),'L R15,=A(X"10050018"); LR R0,R5; B PSCREXIT'
 003DB6 1F22/4324 5010             31687  1                      LC    R2,VTBDATA(R4)
 003DBC 1222/4780 70E6             31694  1                      IF    (R2,NZ),BEGIN                 IF NOT PARTITION 0
1VETS     (VETS2025) (12:59) (15MAR04) PRCESSCR -- Routine to update 3270 buffer image from host                            Page   87
0Current Usings:  (VTBHEAD,R5) (VTWA,R6) (*,R7) (PRCSWA-(4+36),R8) (CP,R11) (CV,R12)
0Loc    Object Code    Addr1 Addr2  Stmt Lv Lineno    Source Statement           (Hibal 5, Asmedit 3.3)  HLASM R4.0  2004/03/15 12.59
+___    ______ ____    _____ _____  ____ __ ______    ______ _________
0003DC2 58F0 7AC2            047A8 31708  2                        L     R15,=A(X'10050019')  PID > MAXIMUM
 003DC6 1805                       31709  2                        LR    R0,R5
 003DC8 47F0 7A44            0472A 31710  2                        B     PSCREXIT
 003DCC                            31711  1                      END   ,                             END NOT PARTITION 0
0003DCC 45E0 7A4C            04732 31716  1                      INCR4
 003DD0 4770 70F8/58F0_      03DDE 31718  1                      IF    (Z),'L R15,=A(X"10050020"); LR R0,R5; B PSCREXIT'
 003DDE 1F22/4324 5010             31737  1                      LC    R2,VTBDATA(R4)       GET COMMAND
 003DE4                            31744                       END   ,                             END STRUCTURED FIELD
0003DE4 7102/47F0 7108_03DE4 03D34 31749                       ELSE  'MVC PRCSFLEN,=A(X"7FFFFFFF")'
0                                  31767            C          IF   ((R2,EQ,X'F2'),OR,
                                                    C                (R2,EQ,X'F6'),OR,
 003DEE 5920 7ACA/4780_      047B0                                   (R2,EQ,X'6E')),BEGIN         IF READ COMMAND
 003E06 4220 600E            0000E 31814  1                      STC   R2,VTWRCMD
 003E0A 1814                       31815  1                      LR    R1,R4
 003E0C 1805                       31816  1                      LR    R0,R5
 003E0E 1BFF                       31817  1                      CLEAR R15
 003E10 47F0 7A44            0472A 31821  1                      B     PSCREXIT
 003E14                            31822                       END   ,                             END READ COMMAND
0                                  31827              *                                            ELSE WRITE COMMAND
 003E14 5920 7AD6/4770_      047BC 31828                       IF    (R2,EQ,X'6F'),BEGIN           IF ERASE ALL UNPROTECTED
 003E1C 947F 8035/D703_0000D       31845  1                      CLEAR LASTFACP,VTWICPOS
 003E26 1B33                       31857  1                      CLEAR R3                            START FROM ZERO
 003E28 58E0 6094            00094 31861  1                      L     R14,VTWTEXTP                  FIND FAC
 003E2C 1FFF/43F0 E000             31862  1                      LC    R15,@R14                      FIRST TRY LOC 0
 003E32 59F0 7ABA/47B0_      047A0 31869  1                      IF    ((R15,LT,X'40'),AND,(R15,NZ)),BEGIN
 003E40 4100 0020            00020 31899  2                        LA    R0,X'20'                      IF LOC 0 IS A FAC
 003E44 140F                       31900  2                        NR    R0,R15
 003E46 4770 7168            03E4E 31901  2                        IF    (Z),BEGIN           IF UNPROTECTED
 003E4A 94FE E000      00000       31912  3                          NI    @R14,B'11111110'
 003E4E                            31913  2                        END   ,                   END UNPROTECTED
 003E4E 716C/47F0 7170_03E4E 03E48 31917  2                        ELSE  'SET LASTFACP'
0003E56 4130 3001            00001 31940  2                        LA    R3,@R3+1
 003E5A                            31941  1                      END   ,                             END LOC 0 IS A FAC
0003E5A 7178/7178/47F0_03E5A 03E38 31946  1                      ELSE  BEGIN                         ELSE LOC 0 ~ A FAC
 003E5E 5810 6024            00024 31959  2                        L     R1,VTWBUFL                    PROTECTION IS WRAPPED
 003E62 58E0 7ADA/0DEE       047C0 31960  2                        ACALL FINDPFAC                      FIND HIGHEST FAC
 003E68 4770 71AE            03E94 31964  2                        IF    (EQ),BEGIN          IF FOUND
 003E6C 58E0 6094            00094 31975  3                          L     R14,VTWTEXTP
 003E70 41E1 E000            00000 31976  3                          LA    R14,@R14(R1)
 003E74 1FFF/43F0 E000             31977  3                          LC    R15,@R14
 003E7A 4100 0020            00020 31984  3                          LA    R0,X'20'
 003E7E 140F                       31985  3                          NR    R0,R15
 003E80 4770 71A6            03E8C 31986  3                          IF    (Z),BEGIN           IF UNPROTECTED
 003E84 5010 6090            00090 31997  4                            ST    R1,VTWICPOS
 003E88 94FE E000      00000       31998  4                            NI    @R14,B'11111110'
 003E8C                            31999  3                          END   ,                   END UNPROTECTED
 003E8C 71AA/47F0 71AE_03E8C 03E82 32003  3                          ELSE  'SET LASTFACP'
 003E94                            32025  2                        END   ,                   END FOUND
1VETS     (VETS2025) (12:59) (15MAR04) PRCESSCR -- Routine to update 3270 buffer image from host                            Page   88
0Current Usings:  (VTBHEAD,R5) (VTWA,R6) (*,R7) (PRCSWA-(4+36),R8) (CP,R11) (CV,R12)
0Loc    Object Code    Addr1 Addr2  Stmt Lv Lineno    Source Statement           (Hibal 5, Asmedit 3.3)  HLASM R4.0  2004/03/15 12.59
+___    ______ ____    _____ _____  ____ __ ______    ______ _________
0003E94                            32029  1                      END   ,                             END LOC 0 ~ A FAC
0003E94 5930 6024/47B0_      00024 32034  1                      WHILE (R3,LT,VTWBUFL),BEGIN         ERASE LOOP
 003E9C 1813                       32053  2                        LR    R1,R3
 003E9E 58E0 7ADE/0DEE       047C4 32054  2                        ACALL FINDNFAC
 003EA4 4780 71C6/5810_      03EAC 32058  2                        IF    (NE),'L R1,VTWBUFL'
 003EAC 1B00                       32075  2                        CLEAR R0
 003EAE 9180 8035/4710_0000D       32079  2                        IF    (~LASTFACP),'ACALL REPEATOA'
 003EBC 1831                       32103  2                        LR    R3,R1
0003EBE 5930 6024/47B0_      00024 32105  2                        IF    (R3,LT,VTWBUFL),BEGIN
 003EC6 58E0 6094            00094 32122  3                          L     R14,VTWTEXTP
 003ECA 41E3 E000            00000 32123  3                          LA    R14,@R14(R3)
 003ECE 1FFF/43F0 E000             32124  3                          LC    R15,@R14
 003ED4 4100 0020            00020 32131  3                          LA    R0,X'20'
 003ED8 140F                       32132  3                          NR    R0,R15
 003EDA 4770 720C            03EF2 32133  3                          IF    (Z),BEGIN           IF UNPROTECTED
 003EDE 947F 8035      0000D       32144  4                            CLEAR LASTFACP
 003EE2 5930 6090/47B0_      00090 32151  4                            IF    (R3,LT,VTWICPOS),'ST R3,VTWICPOS'
 003EEE 94FE E000      00000       32174  4                            NI    @R14,B'11111110'
 003EF2                            32175  3                          END   ,                   END UNPROTECTED
0003EF2 7210/47F0 7214_03EF2 03EDC 32180  3                          ELSE  'SET LASTFACP'
 003EFA                            32202  2                        END
 003EFA 5E30 7AE6            047CC 32206  2                        INCR  R3                            STEP SCREEN POSITION
 003EFE 47F0 71AE            03E94 32209  1                      END   ,                             END ERASE LOOP
0003F02 9201 600B      0000B       32215  1                      SET   RSNORM
 003F06 9200 600D/94FB_0000D       32221  1                      CLEAR AID3270,VTWFKLOK
 003F0E 1813                       32233  1                      LR    R1,R3
 003F10 1805                       32234  1                      LR    R0,R5
 003F12 1BFF                       32235  1                      CLEAR R15
 003F14 9680 6006      00006       32239  1                      SET   VTWFWSCR
 003F18 47F0 7A44            0472A 32245  1                      B     PSCREXIT
 003F1C                            32246                       END   ,                             END ERASE ALL UNPROTECTED
0003F1C 723A/47F0 7288 03F1C 03E1A 32251                       ELSE  BEGIN                         ELSE ~ EAU
                                   32262  1         C            IF   ((R2,EQ,X'F5'),OR,
 003F20 5920 7AEA/4780_      047D0        1                            (R2,EQ,X'7E')),BEGIN          IF ERASE
 003F30 5920 7AEA/4770_      047D0 32295  2                        IF    (R2,EQ,X'F5'),'CLEAR VTWFALT; MVC VTWHEI(8),VTWHEID'
 003F42 7260/47F0 726A_03F42 03F36 32325  2                        ELSE  'SET VTWFALT; MVC VTWHEI(8),VTWHEIA'
 003F50 1B00                       32348  2                        CLEAR R0
 003F52 58E0 7AF2/0DEE       047D8 32352  2                        ACALL CLEARSCR                      DO THE ERASE
 003F58                            32356  1                      END   ,                             END ERASE
0003F58 7276/47F0 7288 03F58 03F2E 32361  1                      ELSE  BEGIN                         ELSE ~ ERASE
 003F5C 5920 7AF6/4780_      047DC 32372  2                        IF    (R2,NE,X'F1'),BEGIN           IF NOT WRITE
 003F64 58F0 7AFA            047E0 32389  3                          L     R15,=A(X'10030021')  INVALID CMD BYTE
 003F68 1805                       32390  3                          LR    R0,R5
 003F6A 47F0 7A44            0472A 32391  3                          B     PSCREXIT
 003F6E                            32392  2                        END   ,                             END NOT WRITE
 003F6E                            32396  1                      END   ,                             END ~ ERASE
 003F6E                            32400                       END   ,                             END ~ EAU
1VETS     (VETS2025) (12:59) (15MAR04) PRCESSCR -- Routine to update 3270 buffer image from host                            Page   89
0Current Usings:  (VTBHEAD,R5) (VTWA,R6) (*,R7) (PRCSWA-(4+36),R8) (CP,R11) (CV,R12)
0Loc    Object Code    Addr1 Addr2  Stmt Lv Lineno    Source Statement           (Hibal 5, Asmedit 3.3)  HLASM R4.0  2004/03/15 12.59
+___    ______ ____    _____ _____  ____ __ ______    ______ _________
0003F6E 45E0 7A4C            04732 32405                       INCR4                     PROCESS THE WCC
 003F72 4770 729A/58F0_      03F80 32407                       IF    (Z),'L R15,=A(X"10050022"); LR R0,R5; B PSCREXIT'
 003F80 1F22/4324 5010             32426                       LC    R2,VTBDATA(R4)
 003F86 4110 0004            00004 32433                       LA    R1,X'04'
 003F8A 1412                       32434                       NR    R1,R2
 003F8C 4780 72AE/9608_      03F94 32435                       IF    (NZ),'SET VTWFBEL'
 003F94 4110 0002            00002 32457                       LA    R1,X'02'
 003F98 1412                       32458                       NR    R1,R2
 003F9A 4780 72C0/94FB_      03FA6 32459                       IF    (NZ),'CLEAR VTWFKLOK,AID3270'
 003FA6 4110 0040            00040 32487                       LA    R1,X'40'
 003FAA 1412                       32488                       NR    R1,R2
 003FAC 4780 72D6/9200_      03FBC 32489                       IF    (NZ),'CLEAR AID3270,VTWRMODE; SET RSNORM'
 003FBC 4110 0001            00001 32523                       LA    R1,X'01'
 003FC0 1412                       32524                       NR    R1,R2
 003FC2 4780 730E            03FF4 32525                       IF    (NZ),BEGIN          IF RESET MDT
 003FC6 5820 6024            00024 32536  1                      L     R2,VTWBUFL
 003FCA 5830 6094            00094 32537  1                      L     R3,VTWTEXTP
 003FCE 1B11                       32538  1                      CLEAR R1
 003FD0 1912/47B0 730A             32542  1                      WHILE (R1,LT,R2),BEGIN              RESET LOOP
 003FD6 58E0 7ADE/0DEE       047C4 32559  2                        ACALL FINDNFAC
 003FDC 4770 730A            03FF0 32563  2                        IF    (NE),EXIT
 003FE0 41F1 3000            00000 32577  2                        LA    R15,@R3(R1)
 003FE4 94FE F000      00000       32578  2                        NI    @R15,B'11111110'
 003FE8 4110 1001            00001 32579  2                        LA    R1,@R1+1
 003FEC 47F0 72EA            03FD0 32580  1                      END   ,                             END RESET LOOP
 003FF0 9201 600B      0000B       32585  1                      SET   RSNORM
 003FF4                            32591                       END   ,                   END RESET MDT
 003FF4 94DF 8035      0000D       32595                       CLEAR PTEN
0003FF8 45E0 7A4C            04732 32603                       INCR4                     GET THE FIRST SCREEN DATA
 003FFC 4770 732C            04012 32605                       IF    (Z),BEGIN
 004000 9680 6006      00006       32616  1                      SET   VTWFWSCR
 004004 1205/4770 7062             32622  1                      IF    ('LTR R0,R5',NZ),PRCSTR    IF MORE INPUT, NEXT STRUCTURE
 00400A 1B11/1BFF                  32638  1                      CLEAR  R1,R15
 00400E 47F0 7A44            0472A 32644  1                      B     PSCREXIT
 004012                            32645                       END
0004012 1B33                       32650                       CLEAR R3                  R3 = DISPLAY BUFFER OFFSET
0004014 1F22/4324 5010             32655                       LC    R2,VTBDATA(R4)      PROCESS FIRST DATA CHARACTER
 00401A 5920 7B02/4770_      047E8 32662                       IF    (R2,EQ,X'70'),BEGIN           IF RENEX TRANSPARENT
 004022 9604 6004      00004       32679  1                      SET   VTWFRNXT            SET RENEX TRANSPARENT
 004026 1805                       32685  1                      LR    R0,R5
 004028 1814                       32686  1                      LR    R1,R4
 00402A 1BFF                       32687  1                      CLEAR R15
 00402C 47F0 7A44            0472A 32691  1                      B     PSCREXIT
 004030                            32692                       END   ,                             END RENEX TRANSPARENT
0004030 9680 6006      00006       32697                       SET   VTWFWSCR
1VETS     (VETS2025) (12:59) (15MAR04) PRCESSCR -- Routine to update 3270 buffer image from host                            Page   90
0Current Usings:  (VTBHEAD,R5) (VTWA,R6) (*,R7) (PRCSWA-(4+36),R8) (CP,R11) (CV,R12)
0Loc    Object Code    Addr1 Addr2  Stmt Lv Lineno    Source Statement           (Hibal 5, Asmedit 3.3)  HLASM R4.0  2004/03/15 12.59
+___    ______ ____    _____ _____  ____ __ ______    ______ _________
0004034                            32704                       LOOP  BEGIN                         PROCESS SCREEN ORDER LOOP
 004034 5920 7ABA/47A0_      047A0 32710  1                      IF    ((R2,GE,X'40'),OR,(R2,ZERO)),DISPLAYC    ~ SCREEN ORDER
0004042 5920 7B06/4770_      047EC 32744  1                      IF    (R2,EQ,X'1D'),BEGIN          *IF START FIELD (SF)*
 00404A 45E0 7A4C            04732 32761  2                        INCR4
 00404E 4770 7376/58F0_      0405C 32763  2                        IF    (Z),'L R15,=A(X"10050023"); LR R0,R5; B PSCREXIT'
 00405C 1F22/4324 5010             32782  2                        LC    R2,VTBDATA(R4)
 004062 5420 7B0E            047F4 32789  2                        N     R2,=A(X'3F')
 004066 5620 7B12            047F8 32790  2                        O     R2,=F'2'            MAKE FAC NON NULL
 00406A 5810 6094            00094 32791  2                        L     R1,VTWTEXTP         TEXT BUFFER
 00406E 4223 1000            00000 32792  2                        STC   R2,@R1(R3)
 004072 1B22                       32793  2                        CLEAR R2
 004074 5810 6098            00098 32797  2                        L     R1,VTWHIP           HIGHLIGHT BUFFER
 004078 4223 1000            00000 32798  2                        STC   R2,@R1(R3)
 00407C 5810 609C            0009C 32799  2                        L     R1,VTWCOLP          COLOR BUFFER
 004080 4223 1000            00000 32800  2                        STC   R2,@R1(R3)
 004084 5810 60A0            000A0 32801  2                        L     R1,VTWCSP           CHARACTER SET
 004088 4223 1000            00000 32802  2                        STC   R2,@R1(R3)
 00408C 4130 3001/5930_      00001 32803  2                        INCR3
 00409A 94DF 8035      0000D       32831  2                        CLEAR PTEN
 00409E                            32838  1                      END   ,                             END START FILED
000409E 73BC/47F0 74C0_0409E 04048 32843  1                      ELSEIF (R2,EQ,X'29'),BEGIN         *IF START FIELD EXTENDED*
 0040AA 4120 0002            00002 32869  2                        LA    R2,2                CLEAR ATTRIBUTES
 0040AE 5810 6094            00094 32870  2                        L     R1,VTWTEXTP         TEXT BUFFER
 0040B2 4223 1000            00000 32871  2                        STC   R2,@R1(R3)
 0040B6 1B22                       32872  2                        CLEAR R2
 0040B8 5810 6098            00098 32876  2                        L     R1,VTWHIP           HIGHLIGHT BUFFER
 0040BC 4223 1000            00000 32877  2                        STC   R2,@R1(R3)
 0040C0 5810 609C            0009C 32878  2                        L     R1,VTWCOLP          COLOR BUFFER
 0040C4 4223 1000            00000 32879  2                        STC   R2,@R1(R3)
 0040C8 5810 60A0            000A0 32880  2                        L     R1,VTWCSP           CHARACTER SET
 0040CC 4223 1000            00000 32881  2                        STC   R2,@R1(R3)
 0040D0 45E0 7A4C            04732 32882  2                        INCR4
 0040D4 4770 73FC/58F0_      040E2 32884  2                        IF    (Z),'L R15,=A(X"10050024"); LR R0,R5; B PSCREXIT'
 0040E2 1F11/4314 5010             32903  2                        LC    R1,VTBDATA(R4)
 0040E8 4210 8031            00009 32910  2                        STC   R1,RCVPAIRC+1       NUMBER OF PAIRS
 0040EC 1211/47D0 74AE             32911  2                        WHILE (R1,POS),BEGIN      PROCESS PAIRS
 0040F2 45E0 7A4C            04732 32927  3                          INCR4
 0040F6 4770 741E/58F0_      04104 32929  3                          IF    (Z),'L R15,=A(X"10050025"); LR R0,R5; B PSCREXIT'
 004104 1F22/4324 5010             32948  3                          LC    R2,VTBDATA(R4)
 00410A 1805                       32955  3                          LR    R0,R5
 00410C 1B11                       32956  3                          CLEAR R1
 00410E 5920 7B22/4770_      04808 32960  3                          IF     (R2,EQ,X'C0'),'L R1,VTWTEXTP' FIELD
 00411A 7438/47F0 7444_0411A 04114 32983  3                          ELSEIF (R2,EQ,X'41'),'L R1,VTWHIP'   HIGHLIGHT
 00412A 7448/47F0 7454_0412A 04124 33015  3                          ELSEIF (R2,EQ,X'42'),'L R1,VTWCOLP'  COLOR
 00413A 7458/47F0 7464_0413A 04134 33047  3                          ELSEIF (R2,EQ,X'43'),'L R1,VTWCSP'   CHARACTER SET
 00414A 45E0 7A4C            04732 33079  3                          INCR4
 00414E 4770 7476/58F0_      0415C 33081  3                          IF    (Z),'L R15,=A(X"10050026"); LR R0,R5; B PSCREXIT'
 00415C 1211/4770 7486_            33100  3                          IF    (R1,Z),'L R15,=A(X"10050027"); LR R0,R5; B PSCREXIT'
 00416C 1F22/4324 5010             33122  3                          LC    R2,VTBDATA(R4)
 004172 5910 6094/4770_      00094 33129  3                          IF    (R1,EQ,VTWTEXTP),BEGIN
 00417A 5420 7B0E            047F4 33146  4                            N     R2,=A(X'3F')
 00417E 5620 7B12            047F8 33147  4                            O     R2,=F'2'            MAKE FAC NON NULL
1VETS     (VETS2025) (12:59) (15MAR04) PRCESSCR -- Routine to update 3270 buffer image from host                            Page   91
0Current Usings:  (VTBHEAD,R5) (VTWA,R6) (*,R7) (PRCSWA-(4+36),R8) (CP,R11) (CV,R12)
0Loc    Object Code    Addr1 Addr2  Stmt Lv Lineno    Source Statement           (Hibal 5, Asmedit 3.3)  HLASM R4.0  2004/03/15 12.59
+___    ______ ____    _____ _____  ____ __ ______    ______ _________
0004182                            33148  3                          END
0004182 4223 1000            00000 33153  3                          STC   R2,@R1(R3)
 004186 4810 8030/0610_      00008 33154  3                          DECR  R1,RCVPAIRC
 004190 47F0 7406            040EC 33159  2                        END   ,                   END PROCESS PAIRS
 004194 4130 3001/5930_      00001 33164  2                        INCR3
 0041A2 94DF 8035      0000D       33192  2                        CLEAR PTEN
 0041A6                            33199  1                      END   ,                   END START FIELD EXTENDED
00041A6 74C4/47F0 751C_041A6 040A8 33204  1                      ELSEIF (R2,EQ,X'11'),BEGIN         *IF SBA*
 0041B2 45E0 7A4C            04732 33230  2                        INCR4
 0041B6 4770 74DE/58F0_      041C4 33232  2                        IF    (Z),'L R15,=A(X"10050028"); LR R0,R5; B PSCREXIT'
 0041C4 1F11/4314 5010             33251  2                        LC    R1,VTBDATA(R4)
 0041CA 8910 0008            00008 33258  2                        SLL   R1,8
 0041CE 45E0 7A4C            04732 33259  2                        INCR4
 0041D2 4770 74FA/58F0_      041E0 33261  2                        IF    (Z),'L R15,=A(X"10050029"); LR R0,R5; B PSCREXIT'
 0041E0 4314 5010            00010 33280  2                        IC    R1,VTBDATA(R4)
 0041E4 58E0 7B46/0DEE       0482C 33281  2                        ACALL DISTOBUF
                                   33285  2         C              IF    (R1,GE,VTWBUFL),
 0041EA 5910 6024/4750_      00024        2                              'L R15,=A(X"10050045"); LR R0,R5; B PSCREXIT'
 0041FC 1831                       33310  2                        LR    R3,R1
 0041FE 94DF 8035      0000D       33311  2                        CLEAR PTEN
 004202                            33318  1                      END   ,                             END SBA
0004202 7520/47F0 75B2_04202 041B0 33323  1                      ELSEIF (R2,EQ,X'28'),BEGIN         *IF SET ATTRIBUTE (SA)*
 00420E 45E0 7A4C            04732 33349  2                        INCR4
 004212 1F22/4324 5010             33351  2                        LC    R2,VTBDATA(R4)
 004218 1B11                       33358  2                        CLEAR R1
 00421A 1222/4770 7552             33362  2                        IF    (R2,ZERO),BEGIN
 004220 D702 8032 8032 0000A 0000A 33376  3                          CLEAR (RCVCAHI,3)         ALL DEFAULT
 004226 45E0 7A4C            04732 33383  3                          INCR4
 00422A 4770 7552/58F0_      04238 33385  3                          IF    (Z),'L R15,=A(X"10050030"); LR R0,R5; B PSCREXIT'
 004238                            33404  2                        END
0004238 7556/47F0 75AE 04238 0421E 33409  2                        ELSE  BEGIN
 00423C 5920 7B26/4770_      0480C 33420  3                          IF     (R2,EQ,X'41'),'LA R1,RCVCAHI'  HIGHLIGHT
 004248 7566/47F0 7572_04248 04242 33443  3                          ELSEIF (R2,EQ,X'42'),'LA R1,RCVCACOL' COLOR
 004258 7576/47F0 7582_04258 04252 33475  3                          ELSEIF (R2,EQ,X'43'),'LA R1,RCVCACS'  CHARACTER SET
 004268 45E0 7A4C            04732 33507  3                          INCR4
 00426C 4770 7594/58F0_      0427A 33509  3                          IF    (Z),'L R15,=A(X"10050031"); LR R0,R5; B PSCREXIT'
 00427A 1211/4770 75A4_            33528  3                          IF    (R1,Z),'L R15,=A(X"10050032"); LR R0,R5; B PSCREXIT'
 00428A 1F22/4324 5010             33550  3                          LC    R2,VTBDATA(R4)
 004290 4220 1000            00000 33557  3                          STC   R2,@R1
 004294                            33558  2                        END
0004294 94DF 8035      0000D       33563  2                        CLEAR PTEN
 004298                            33570  1                      END   ,                             END SET ATTRIBUTE (SA)
1VETS     (VETS2025) (12:59) (15MAR04) PRCESSCR -- Routine to update 3270 buffer image from host                            Page   92
0Current Usings:  (VTBHEAD,R5) (VTWA,R6) (*,R7) (PRCSWA-(4+36),R8) (CP,R11) (CV,R12)
0Loc    Object Code    Addr1 Addr2  Stmt Lv Lineno    Source Statement           (Hibal 5, Asmedit 3.3)  HLASM R4.0  2004/03/15 12.59
+___    ______ ____    _____ _____  ____ __ ______    ______ _________
0004298 75B6/47F0 76B4_04298 0420C 33575  1                      ELSEIF (R2,EQ,X'2C'),BEGIN         *IF MODIFY FIELD (MF)*
 0042A4 5810 6094            00094 33601  2                        L     R1,VTWTEXTP         VERIFY EXISTANCE OF FAC
 0042A8 1FEE/43E3 1000             33602  2                        LC    R14,@R1(R3)
                                   33609  2         C              IF    ((R14,Z),OR,(R14,GE,X'40')),
 0042AE 12EE/4780 75D6_                   2                              'L R15,=A(X"10050033"); LR R0,R5; B PSCREXIT'
 0042C6 45E0 7A4C            04732 33647  2                        INCR4
 0042CA 4770 75F2/58F0_      042D8 33649  2                        IF    (Z),'L R15,=A(X"10050034"); LR R0,R5; B PSCREXIT'
 0042D8 1F11/4314 5010             33668  2                        LC    R1,VTBDATA(R4)
 0042DE 4210 8031            00009 33675  2                        STC   R1,RCVPAIRC+1       NUMBER OF PAIRS
 0042E2 1211/47D0 76A2             33676  2                        WHILE (R1,POS),BEGIN      PROCESS PAIRS
 0042E8 45E0 7A4C            04732 33692  3                          INCR4
 0042EC 4770 7614/58F0_      042FA 33694  3                          IF    (Z),'L R15,=A(X"10050035"); LR R0,R5; B PSCREXIT'
 0042FA 1F22/4324 5010             33713  3                          LC    R2,VTBDATA(R4)
 004300 1B11                       33720  3                          CLEAR R1
 004302 5920 7B22/4770_      04808 33724  3                          IF     (R2,EQ,X'C0'),'L R1,VTWTEXTP' FIELD
 00430E 762C/47F0 7638_0430E 04308 33747  3                          ELSEIF (R2,EQ,X'41'),'L R1,VTWHIP'   HIGHLIGHT
 00431E 763C/47F0 7648_0431E 04318 33779  3                          ELSEIF (R2,EQ,X'42'),'L R1,VTWCOLP'  COLOR
 00432E 764C/47F0 7658_0432E 04328 33811  3                          ELSEIF (R2,EQ,X'43'),'L R1,VTWCSP'   CHARACTER SET
 00433E 45E0 7A4C            04732 33843  3                          INCR4
 004342 4770 766A/58F0_      04350 33845  3                          IF    (Z),'L R15,=A(X"10050036"); LR R0,R5; B PSCREXIT'
 004350 1211/4770 767A_            33864  3                          IF    (R1,Z),'L R15,=A(X"10050037"); LR R0,R5; B PSCREXIT'
 004360 1F22/4324 5010             33886  3                          LC    R2,VTBDATA(R4)
 004366 5910 6094/4770_      00094 33893  3                          IF    (R1,EQ,VTWTEXTP),BEGIN
 00436E 5420 7B0E            047F4 33910  4                            N     R2,=A(X'3F')
 004372 5620 7B12            047F8 33911  4                            O     R2,=F'2'            MAKE FAC NON NULL
 004376                            33912  3                          END
0004376 4223 1000            00000 33917  3                          STC   R2,@R1(R3)
 00437A 4810 8030/0610_      00008 33918  3                          DECR  R1,RCVPAIRC
 004384 47F0 75FC            042E2 33923  2                        END   ,                   END PROCESS PAIRS
 004388 4130 3001/5930_      00001 33928  2                        INCR3
 004396 94DF 8035      0000D       33956  2                        CLEAR PTEN
 00439A                            33963  1                      END   ,                             END MODIFY FIELD (MF)
000439A 76B8/47F0 76C8_0439A 042A2 33968  1                      ELSEIF (R2,EQ,X'13'),BEGIN         *IF INSERT CURSOR (IC)*
 0043A6 5030 6090            00090 33994  2                        ST    R3,VTWICPOS                   SAVE THE CURSOR POSITION
 0043AA 94DF 8035      0000D       33995  2                        CLEAR PTEN
 0043AE                            34002  1                      END   ,                             END INSERT CURSOR
00043AE 76CC/47F0 7726_043AE 043A4 34007  1                      ELSEIF (R2,EQ,X'05'),BEGIN         *IF PROGRAM TAB (PT)*
 0043BA                            34033  2                        LOOP  BEGIN               BEGIN LOOP
 0043BA 1813                       34039  3                          LR    R1,R3
 0043BC 58E0 7ADE/0DEE       047C4 34040  3                          ACALL FINDNFAC
 0043C2 4780 76E4/5810_      043CA 34044  3                          IF    (NE),'L R1,VTWBUFL'
 0043CA 9120 8035/47E0_0000D       34061  3                          IF    (PTEN),BEGIN        IF PROGRAM TAB ENTERS NULL
 0043D2 1B00                       34076  4                            CLEAR R0
 0043D4 58E0 7AE2/0DEE       047C8 34080  4                            ACALL REPEATOA
 0043DA                            34084  3                          END   ,                   END PROGTAM TAB ENTERS NULL
00043DA 1831                       34089  3                          LR    R3,R1
 0043DC 5930 6024/4750_      00024 34090  3                          IF    (R3,GE,VTWBUFL),BEGIN
 0043E4 1B33                       34107  4                            CLEAR R3
 0043E6 47F0 7726            0440C 34111  4                            B     PTDONE
 0043EA                            34112  3                          END
1VETS     (VETS2025) (12:59) (15MAR04) PRCESSCR -- Routine to update 3270 buffer image from host                            Page   93
0Current Usings:  (VTBHEAD,R5) (VTWA,R6) (*,R7) (PRCSWA-(4+36),R8) (CP,R11) (CV,R12)
0Loc    Object Code    Addr1 Addr2  Stmt Lv Lineno    Source Statement           (Hibal 5, Asmedit 3.3)  HLASM R4.0  2004/03/15 12.59
+___    ______ ____    _____ _____  ____ __ ______    ______ _________
00043EA 58E0 6094            00094 34117  3                          L     R14,VTWTEXTP
 0043EE 41E3 E000            00000 34118  3                          LA    R14,@R14(R3)
 0043F2 9120 E000      00000       34119  3                          TM    @R14,X'20'          TEST PROTECTED
 0043F6 4780 7718            043FE 34120  3                          IF    (ZERO),EXIT
 0043FA 47F0 76D4            043BA 34134  2                        END   ,                   END LOOP
 0043FE 4130 3001/5930_      00001 34139  2                        INCR3
 00440C                            34167  1           PTDONE     END   ,                             END PROGRAM TAB
000440C 772A/47F0 781E_0440C 043B8 34173  1                      ELSEIF (R2,EQ,X'3C'),BEGIN         *IF REPEAT TO ADDRESS (RA)*
 004418 45E0 7A4C            04732 34199  2                        INCR4
 00441C 4770 7744/58F0_      0442A 34201  2                        IF    (Z),'L R15,=A(X"10050038"); LR R0,R5; B PSCREXIT'
 00442A 1F11/4314 5010             34220  2                        LC    R1,VTBDATA(R4)
 004430 8910 0008            00008 34227  2                        SLL   R1,8
 004434 45E0 7A4C            04732 34228  2                        INCR4
 004438 4770 7760/58F0_      04446 34230  2                        IF    (Z),'L R15,=A(X"10050039"); LR R0,R5; B PSCREXIT'
 004446 4314 5010            00010 34249  2                        IC    R1,VTBDATA(R4)
 00444A 58E0 7B46/0DEE       0482C 34250  2                        ACALL DISTOBUF            R1 = STOP ADDRESS
                                   34254  2         C              IF    (R1,GT,VTWBUFL),
 004450 5910 6024/47D0_      00024        2                              'L R15,=A(X"10050047"); LR R0,R5; B PSCREXIT'
 004462 45E0 7A4C            04732 34279  2                        INCR4
 004466 4770 778E/58F0_      04474 34281  2                        IF    (Z),'L R15,=A(X"10050040"); LR R0,R5; B PSCREXIT'
 004474 1F00/4304 5010             34300  2                        LC    R0,VTBDATA(R4)       R2 = CHARACTER TO REPEAT
 00447A 5920 7B92/4770_      04878 34305  2                        IF    (R2,EQ,X'08'),BEGIN           IF GRAPHIC ESCAPE
 004482 9640 8035      0000D       34322  3                          SET   GESC                          SET THE FLAG
 004486 45E0 7A4C            04732 34328  3                          INCR4
 00448A 4770 77B2/58F0_      04498 34330  3                          IF    (Z),'L R15,=A(X"10050041"); LR R0,R5; B PSCREXIT'
 004498 1F00/4304 5010             34349  3                          LC    R0,VTBDATA(R4)                 GET THE CHARACTER
 00449E                            34354  2                        END   ,                             END GRAPHIC ESCAPE
000449E 1200/4780 77CA_            34359  2                        IF    ((R0,NZ),AND,(R0,LT,X'40')),'LA R0,X"40"'
 0044B0 9140 8035/47E0_0000D       34395  2                        IF    (GESC),'ICM R0,B"1000",=X"F1"; CLEAR GESC'
 0044C0 77DE/47F0 77E2_044C0 044B6 34423  2                        ELSE  'ICM R0,B"1000",RCVCACS'
 0044C8 BF04 8033            0000B 34440  2                        ICM   R0,B'0100',RCVCACOL
 0044CC BF02 8032            0000A 34441  2                        ICM   R0,B'0010',RCVCAHI
0                                  34443  2           *                                            DO THE REPEAT
 0044D0 1913/4730 7808             34444  2                        IF    (R1,LE,R3),BEGIN    IF WRAP
 0044D6 5000 8028            00000 34459  3                          ST    R0,PRCSSCRF         SAVE IN SCRATCH AREA
 0044DA 1821                       34460  3                          LR    R2,R1               SAVE IN R2
 0044DC 5810 6024            00024 34461  3                          L     R1,VTWBUFL
 0044E0 58E0 7AE2/0DEE       047C8 34462  3                          ACALL REPEATOA
 0044E6 5800 8028            00000 34466  3                          L     R0,PRCSSCRF
 0044EA 1812                       34467  3                          LR    R1,R2
 0044EC 1B33                       34468  3                          CLEAR R3
 0044EE                            34472  2                        END   ,                   END WRAP
 0044EE 58E0 7AE2/0DEE       047C8 34476  2                        ACALL REPEATOA
 0044F4 1831                       34480  2                        LR    R3,R1
 0044F6 5930 6024/4750_      00024 34481  2                        IF    (R3,GE,VTWBUFL),'CLEAR R3'
 004500 94DF 8035      0000D       34507  2                        CLEAR PTEN
 004504                            34514  1                      END   ,                             END REPEAT TO ADDRESS
0004504 7822/47F0 79B6_04504 04416 34519  1                      ELSEIF (R2,EQ,X'12'),BEGIN        *IF ERASE UNPROTECTED (EUA)*
 004510 45E0 7A4C            04732 34545  2                        INCR4
 004514 4770 783C/58F0_      04522 34547  2                        IF    (Z),'L R15,=A(X"10050042"); LR R0,R5; B PSCREXIT'
1VETS     (VETS2025) (12:59) (15MAR04) PRCESSCR -- Routine to update 3270 buffer image from host                            Page   94
0Current Usings:  (VTBHEAD,R5) (VTWA,R6) (*,R7) (PRCSWA-(4+36),R8) (CP,R11) (CV,R12)
0Loc    Object Code    Addr1 Addr2  Stmt Lv Lineno    Source Statement           (Hibal 5, Asmedit 3.3)  HLASM R4.0  2004/03/15 12.59
+___    ______ ____    _____ _____  ____ __ ______    ______ _________
0004522 1F11/4314 5010             34566  2                        LC    R1,VTBDATA(R4)
 004528 8910 0008            00008 34573  2                        SLL   R1,8
 00452C 45E0 7A4C            04732 34574  2                        INCR4
 004530 4770 7858/58F0_      0453E 34576  2                        IF    (Z),'L R15,=A(X"10050043"); LR R0,R5; B PSCREXIT'
 00453E 4314 5010            00010 34595  2                        IC    R1,VTBDATA(R4)
 004542 58E0 7B46/0DEE       0482C 34596  2                        ACALL DISTOBUF
 004548 1821                       34600  2                        LR    R2,R1               R2 = ENDING POSITION
                                   34601  2         C              IF    (R2,GT,VTWBUFL),
 00454A 5920 6024/47D0_      00024        2                              'L R15,=A(X"10050044"); LR R0,R5; B PSCREXIT'
 00455C 947F 8035      0000D       34626  2                        CLEAR LASTFACP
 004560 1813                       34633  2                        LR    R1,R3               FIND PREVIOUS FAC
 004562 58E0 7ADA/0DEE       047C0 34634  2                        ACALL FINDPFAC
 004568 4780 7890/5810_      04576 34638  2                        IF    (NE),'L R1,VTWBUFL; ACALL FINDPFAC'
 004576 4770 78A8            0458E 34659  2                        IF    (EQ),BEGIN
 00457A 58E0 6094            00094 34670  3                          L     R14,VTWTEXTP
 00457E 41F1 E000            00000 34671  3                          LA    R15,@R14(R1)
 004582 9120 F000      00000       34672  3                          TM    @R15,X'20'
 004586 47E0 78A8/9680_      0458E 34673  3                          IF    (ON),'SET LASTFACP'
 00458E                            34695  2                        END
0                                  34700  2           *                                            ERASE
 00458E 1923/4730 7920             34701  2                        IF    (R2,LE,R3),BEGIN              IF WRAP
 004594 58E0 6094            00094 34716  3                          L     R14,VTWTEXTP                  DO HIGH PART
 004598 58F3 E000            00000 34717  3                          L     R15,@R14(R3)
 00459C 59F0 7ABA/47B0_      047A0 34718  3                          IF    ((R15,LT,X'40'),AND,(R15,NZ)),'LA R1,@R1+1'
 0045AE 5930 6024/47B0_      00024 34754  3                          WHILE (R3,LT,VTWBUFL),BEGIN         ERASE LOOP
 0045B6 1813                       34773  4                            LR    R1,R3
 0045B8 58E0 7ADE/0DEE       047C4 34774  4                            ACALL FINDNFAC
 0045BE 4780 78E0/5810_      045C6 34778  4                            IF    (NE),'L R1,VTWBUFL'
 0045C6 1B00                       34795  4                            CLEAR R0
 0045C8 9180 8035/4710_0000D       34799  4                            IF    (~LASTFACP),'ACALL REPEATOA'
 0045D6 1831                       34823  4                            LR    R3,R1
 0045D8 5930 6024/47B0_      00024 34824  4                            IF    (R3,LT,VTWBUFL),BEGIN
 0045E0 58E0 6094            00094 34841  5                              L     R14,VTWTEXTP
 0045E4 41F3 E000            00000 34842  5                              LA    R15,@R14(R3)
 0045E8 9120 F000      00000       34843  5                              TM    @R15,X'20'
 0045EC 4710 790E/947F_      045F4 34844  5                              IF    (NO),'CLEAR LASTFACP'
 0045F4 7912/47F0 7916_045F4 045EE 34867  5                              ELSE  'SET LASTFACP'
 0045FC                            34889  4                            END
 0045FC 5E30 7AE6            047CC 34893  4                            INCR  R3                            STEP SCREEN POSITION
 004600 47F0 78C8            045AE 34896  3                          END   ,                             END ERASE LOOP
 004604 1B33                       34901  3                          CLEAR R3
 004606                            34905  2                        END   ,                             END WRAP
0004606 58E0 6094            00094 34910  2                        L     R14,VTWTEXTP                  DO LOW PART
 00460A 1FFF/43F3 E000             34911  2                        LC    R15,@R14(R3)
 004610 59F0 7ABA/47B0_      047A0 34918  2                        IF    ((R15,LT,X'40'),AND,(R15,NZ)),BEGIN
 00461E 4100 0020            00020 34948  3                          LA    R0,X'20'
 004622 140F                       34949  3                          NR    R0,R15
 004624 4710 7946/947F_      0462C 34950  3                          IF    (NO),'CLEAR LASTFACP'
 00462C 794A/47F0 794E_0462C 04626 34973  3                          ELSE  'SET LASTFACP'
 004634 5E30 7AE6            047CC 34995  3                          INCR  R3
 004638                            34998  2                        END
1VETS     (VETS2025) (12:59) (15MAR04) PRCESSCR -- Routine to update 3270 buffer image from host                            Page   95
0Current Usings:  (VTBHEAD,R5) (VTWA,R6) (*,R7) (PRCSWA-(4+36),R8) (CP,R11) (CV,R12)
0Loc    Object Code    Addr1 Addr2  Stmt Lv Lineno    Source Statement           (Hibal 5, Asmedit 3.3)  HLASM R4.0  2004/03/15 12.59
+___    ______ ____    _____ _____  ____ __ ______    ______ _________
0004638 1932/47B0 79AC             35003  2                        WHILE (R3,LT,R2),BEGIN              ERASE LOOP
 00463E 1813                       35020  3                          LR    R1,R3
 004640 58E0 7ADE/0DEE       047C4 35021  3                          ACALL FINDNFAC
 004646 4780 7968/5810_      0464E 35025  3                          IF    (NE),'L R1,VTWBUFL'
 00464E 1912/47D0 7970_            35042  3                          IF    (R1,GT,R2),'LR R1,R2'
 004656 1B00                       35063  3                          CLEAR R0
 004658 9180 8035/4710_0000D       35067  3                          IF    (~LASTFACP),'ACALL REPEATOA'
 004666 1831                       35091  3                          LR    R3,R1
 004668 1932/47B0 79A4             35092  3                          IF    (R3,LT,R2),BEGIN
 00466E 58E0 6094            00094 35107  4                            L     R14,VTWTEXTP
 004672 41F3 E000            00000 35108  4                            LA    R15,@R14(R3)
 004676 9120 F000      00000       35109  4                            TM    @R15,X'20'
 00467A 4710 799C/947F_      04682 35110  4                            IF    (NO),'CLEAR LASTFACP'
 004682 79A0/47F0 79A4_04682 0467C 35133  4                            ELSE  'SET LASTFACP'
 00468A                            35155  3                          END
 00468A 5E30 7AE6            047CC 35159  3                          INCR  R3                            STEP SCREEN POSITION
 00468E 47F0 7952            04638 35162  2                        END   ,                             END ERASE LOOP
 004692 5930 6024/4750_      00024 35167  2                        IF    (R3,GE,VTWBUFL),'CLEAR R3'
 00469C                            35193  1                      END   ,                             END ERASE UNPROTECTED
000469C 79BA/47F0 79CE_0469C 0450E 35198  1                      ELSEIF (R2,EQ,X'08'),BEGIN         *IF GRAPHIC ESCAPE (GE)*
 0046A8 9110 6007/47E0_00007       35224  2                        IF    (VTWFGE),'SET GESC'
 0046B4                            35250  1                      END
00046B4 79D2/47F0 7A28 046B4 046A6 35255  1                      ELSE  BEGIN                       *ELSE DISPLAYABLE CHARACTER*
 0046B8 4120 0040            00040 35266  2                        LA    R2,X'40'                      MAKE IT A SPACE
 0046BC                            35267  2           DISPLAYC     LABEL                               DISPLAY THE CHARACTER
 0046BC 5810 6094            00094 35269  2                        L     R1,VTWTEXTP         TEXT
 0046C0 4223 1000            00000 35270  2                        STC   R2,@R1(R3)
 0046C4 5810 6098            00098 35271  2                        L     R1,VTWHIP           HIGHLIGHT
 0046C8 4320 8032            0000A 35272  2                        IC    R2,RCVCAHI
 0046CC 4223 1000            00000 35273  2                        STC   R2,@R1(R3)
 0046D0 5810 609C            0009C 35274  2                        L     R1,VTWCOLP          COLOR
 0046D4 4320 8033            0000B 35275  2                        IC    R2,RCVCACOL
 0046D8 4223 1000            00000 35276  2                        STC   R2,@R1(R3)
 0046DC 5810 60A0            000A0 35277  2                        L     R1,VTWCSP           CHARACTER SET
 0046E0 9140 8035/47E0_0000D       35278  2                        IF    (GESC),'LA R2,X"F1"; CLEAR GESC'
 0046F0 7A0E/47F0 7A12_046F0 046E6 35306  2                        ELSE  'IC R2,RCVCACS'
 0046F8 4223 1000            00000 35323  2                        STC   R2,@R1(R3)
 0046FC 4130 3001/5930_      00001 35324  2                        INCR3
 00470A 9620 8035      0000D       35352  2                        SET   PTEN
 00470E                            35358  1                      END   ,                             END DISPLAYABLE CHARACTER
0                                  35363  1           *                                            STEP TO NEXT CHARACTER
 00470E 45E0 7A4C            04732 35364  1                      INCR4
 004712 4780 7A3A            04720 35366  1                      IF    (Z),EXIT
 004716 1F22/4324 5010             35380  1                      LC    R2,VTBDATA(R4)      LOAD NEXT CHARACTER
 00471C 47F0 734E            04034 35387                       END   ,                   END PROCESS SCREEN ORDER LOOP
-004720 1205/4770 7062             35393                       IF    ('LTR R0,R5',NZ),PRCSTR    IF MORE INPUT, NEXT STRUCTURE
 004726 1B11/1BFF                  35409                       CLEAR R1,R15
 00472A 9001 8004            00004 35415              PSCREXIT PRETURN (R0,R1)
 00472E 47F0 7A8E            04774 35417                       EXIT
1VETS     (VETS2025) (12:59) (15MAR04) PRCESSCR -- Routine to update 3270 buffer image from host                            Page   96
0Current Usings:  (VTBHEAD,R5) (VTWA,R6) (*,R7) (PRCSWA-(4+36),R8) (CP,R11) (CV,R12)
0Loc    Object Code    Addr1 Addr2  Stmt Lv Lineno    Source Statement           (Hibal 5, Asmedit 3.3)  HLASM R4.0  2004/03/15 12.59
+___    ______ ____    _____ _____  ____ __ ______    ______ _________
0004732                            35421              INCR4    LABEL ,                   INCREMENT R4 AND STEP TO NEXT BUFFER
 004732 4140 4001            00001 35423                       LA    R4,@R4+1
 004736 4940 500A/4750_      0000A 35424                       IF    (R4,GE,VTBCOUNT),BEGIN
 00473E 9680 500E      0000E       35441  1                      SET   VTBFPROC            SET THIS BUFFER PROCESSED
 004742 1B44                       35447  1                      CLEAR R4
 004744 5850 5004            00004 35451  1                      L     R5,VTBNEXT
 004748 1255/4780 7A7A_            35452  1                      WHILE ((R5,NZ),AND,(VTBCOUNT,ZERO)),'L R5,VTBNEXT'
 004760                            35490                       END
 004760 58F0 802C            00004 35494                       L     R15,PRCSFLEN
 004764 5BF0 7AB2            04798 35495                       S     R15,=F'1'
 004768 50F0 802C            00004 35496                       ST    R15,PRCSFLEN        (Z) = NO MORE IN STRUCTURE
 00476C 4780 7A8C/1255       04772 35497                       IF    (NZ),'LTR R5,R5'    (Z) = NO MORE BUFFERS
 004772 07FE                       35514                       BR    R14                 RETURN
0004774 18D8/9808 D004_            35516                       PEND
 DROP   VTBHEAD,R5
 DROP   PRCSWA-(4+36),R8
 DROP   *,R7
 004788                            35546                       LTORG
 004788 7FFFFFFF                   35548                             =A(X'7FFFFFFF')
 00478C 000000F3                   35549                             =A(X'F3')
 004790 10050015                   35550                             =A(X'10050015')
 004794 10050016                   35551                             =A(X'10050016')
 004798 00000001                   35552                             =F'1'
 00479C 10050017                   35553                             =A(X'10050017')
 0047A0 00000040                   35554                             =A(X'40')
 0047A4 10050018                   35555                             =A(X'10050018')
 0047A8 10050019                   35556                             =A(X'10050019')
 0047AC 10050020                   35557                             =A(X'10050020')
 0047B0 000000F2                   35558                             =A(X'F2')
 0047B4 000000F6                   35559                             =A(X'F6')
 0047B8 0000006E                   35560                             =A(X'6E')
 0047BC 0000006F                   35561                             =A(X'6F')
 0047C0 000048F6                   35562                             =A(FINDPFAC)
 0047C4 00004892                   35563                             =A(FINDNFAC)
 0047C8 00004956                   35564                             =A(REPEATOA)
 0047CC 00000001                   35565                             =A(1)
 0047D0 000000F5                   35566                             =A(X'F5')
 0047D4 0000007E                   35567                             =A(X'7E')
 0047D8 000059FA                   35568                             =A(CLEARSCR)
 0047DC 000000F1                   35569                             =A(X'F1')
 0047E0 10030021                   35570                             =A(X'10030021')
 0047E4 10050022                   35571                             =A(X'10050022')
 0047E8 00000070                   35572                             =A(X'70')
 0047EC 0000001D                   35573                             =A(X'1D')
 0047F0 10050023                   35574                             =A(X'10050023')
 0047F4 0000003F                   35575                             =A(X'3F')
 0047F8 00000002                   35576                             =F'2'
 0047FC 00000029                   35577                             =A(X'29')
 004800 10050024                   35578                             =A(X'10050024')
 004804 10050025                   35579                             =A(X'10050025')
 004808 000000C0                   35580                             =A(X'C0')
 00480C 00000041                   35581                             =A(X'41')
 004810 00000042                   35582                             =A(X'42')
1VETS     (VETS2025) (12:59) (15MAR04) PRCESSCR -- Routine to update 3270 buffer image from host                            Page   97
0Current Usings:  (VTWA,R6) (CP,R11) (CV,R12)
0Loc    Object Code    Addr1 Addr2  Stmt Lv Lineno    Source Statement           (Hibal 5, Asmedit 3.3)  HLASM R4.0  2004/03/15 12.59
+___    ______ ____    _____ _____  ____ __ ______    ______ _________
0004814 00000043                   35583                             =A(X'43')
 004818 10050026                   35584                             =A(X'10050026')
 00481C 10050027                   35585                             =A(X'10050027')
 004820 00000011                   35586                             =A(X'11')
 004824 10050028                   35587                             =A(X'10050028')
 004828 10050029                   35588                             =A(X'10050029')
 00482C 00006618                   35589                             =A(DISTOBUF)
 004830 10050045                   35590                             =A(X'10050045')
 004834 00000028                   35591                             =A(X'28')
 004838 10050030                   35592                             =A(X'10050030')
 00483C 10050031                   35593                             =A(X'10050031')
 004840 10050032                   35594                             =A(X'10050032')
 004844 0000002C                   35595                             =A(X'2C')
 004848 10050033                   35596                             =A(X'10050033')
 00484C 10050034                   35597                             =A(X'10050034')
 004850 10050035                   35598                             =A(X'10050035')
 004854 10050036                   35599                             =A(X'10050036')
 004858 10050037                   35600                             =A(X'10050037')
 00485C 00000013                   35601                             =A(X'13')
 004860 00000005                   35602                             =A(X'05')
 004864 0000003C                   35603                             =A(X'3C')
 004868 10050038                   35604                             =A(X'10050038')
 00486C 10050039                   35605                             =A(X'10050039')
 004870 10050047                   35606                             =A(X'10050047')
 004874 10050040                   35607                             =A(X'10050040')
 004878 00000008                   35608                             =A(X'08')
 00487C 10050041                   35609                             =A(X'10050041')
 004880 00000012                   35610                             =A(X'12')
 004884 10050042                   35611                             =A(X'10050042')
 004888 10050043                   35612                             =A(X'10050043')
 00488C 10050044                   35613                             =A(X'10050044')
 004890 F1                         35614                             =X'F1'
1VETS     (VETS2025) (12:59) (15MAR04) FINDNFAC -- Routine to Find the Next FAC in the Screen Image                         Page   98
0Current Usings:  (VTWA,R6) (CP,R11) (CV,R12)
0Loc    Object Code    Addr1 Addr2  Stmt Lv Lineno    Source Statement           (Hibal 5, Asmedit 3.3)  HLASM R4.0  2004/03/15 12.59
+___    ______ ____    _____ _____  ____ __ ______    ______ _________
0                                  35619              *
                                   35620              ** FINDNFAC - Routine to find the next Field Attribute
                                   35621              **            Character in the 3270 buffer image.
                                   35622              **
                                   35623              **    On entry:
                                   35624              **      R1 = current buffer index
                                   35625              **      R6 = @VTWA
                                   35626              **      VTWTEXTP = pointer to screen buffer
                                   35627              **      VTWBUFL  = Buffer Length
                                   35628              **
                                   35629              **    On exit: R1  = -1 If no FAC is encountered before end of buffer.
                                   35630              **             R1  = Buffer Index of next FAC character. If R1 points
                                   35631              **                   to a FAC on input, R1 is not changed.
                                   35632              **             CC  = (EQ) If Found, (NE) If Not Found
                                   35633              *
0                                  35635              *
                                   35636              **    REGISTER USE FOR THIS ROUTINE:
                                   35637              **       R1 = BUFFER INDEX
                                   35638              **       R2 = BUFFER CHARACTER
                                   35639              **       R3 =
                                   35640              **       R4 = BUFFER LENGTH
                                   35641              **       R5 = @BUFFER
                                   35642              **       R6 = VTWA
                                   35643              *
0004892 50E0 D000/9008_      00000 35645              FINDNFAC PROC  ,                   FIND THE NEXT FAC
 USING  *,R7
 0048AC 1B22                       35684                       CLEAR R2
 0048AE 5850 6094            00094 35688                       L     R5,VTWTEXTP
 0048B2 5840 6024            00024 35689                       L     R4,VTWBUFL
 0048B6 1914/47B0 7030             35690                       WHILE (R1,LT,R4),BEGIN
 0048BC 4321 5000            00000 35707  1                      IC    R2,@R5(R1)
                                   35708  1         C            IF    ((R2,LT,X'40'),AND,(R2,NZ)),
 0048C0 5920 7164/47B0_      04A10        1                            'CLEAR R15; B FINDNXIT'
 0048D4 4110 1001            00001 35748  1                      LA    R1,@R1+1
 0048D8 47F0 700A            048B6 35749                       END
 0048DC 41F0 0001            00001 35754                       LA    R15,1               NOT FOUND
 0048E0 5810 7168            04A14 35755                       L     R1,=F'-1'
 0048E4 5018 0008            00008 35756              FINDNXIT PRETURN R1
 0048E8 18D8/9808 D004_            35758                       PEND  ,                   RETURN
 DROP   *,R7
1VETS     (VETS2025) (12:59) (15MAR04) FINDPFAC-- Routine to find the previous FAC                                          Page   99
0Current Usings:  (VTWA,R6) (CP,R11) (CV,R12)
0Loc    Object Code    Addr1 Addr2  Stmt Lv Lineno    Source Statement           (Hibal 5, Asmedit 3.3)  HLASM R4.0  2004/03/15 12.59
+___    ______ ____    _____ _____  ____ __ ______    ______ _________
0                                  35779              *
                                   35780              ** FINDPFAC - Routine to find the previous Field Attribute
                                   35781              **            character in the 3270 buffer image.
                                   35782              **
                                   35783              **    On entry:
                                   35784              **      R1 = current buffer index
                                   35785              **      R6 = @VTWA
                                   35786              **      VTWTEXTP = pointer to screen buffer
                                   35787              **
                                   35788              **    On exit: R1  = -1 If no FAC is encountered before start of buffer
                                   35789              **             R1  = Buffer index of previous FAC character. If R1
                                   35790              **                   points to a FAC on input, R1 is not changed.
                                   35791              **             CC  = (EQ) If Found, (NE) If Not Found
                                   35792              *
0                                  35794              *
                                   35795              **    REGISTER USE FOR THIS ROUTINE:
                                   35796              **       R1 = BUFFER index
                                   35797              **       R2 = BUFFER CHARACTER
                                   35798              **       R3 =
                                   35799              **       R4 =
                                   35800              **       R5 = @BUFFER
                                   35801              **       R6 = VTWA
                                   35802              *
00048F6 50E0 D000/9008_      00000 35804              FINDPFAC PROC  ,                   FIND THE PREVIOUS FAC
 USING  *,R7
 004910 1B22                       35843                       CLEAR R2
 004912 5850 6094            00094 35847                       L     R5,VTWTEXTP
 004916 1211/4740 702C             35848                       WHILE (R1,NNEG),BEGIN
 00491C 4321 5000            00000 35864  1                      IC    R2,@R5(R1)
                                   35865  1         C            IF    ((R2,LT,X'40'),AND,(R2,NZ)),
 004920 5920 7100/47B0_      04A10        1                            'CLEAR R15; B FINDPXIT'
 004934 5B10 7108            04A18 35905  1                      S     R1,=F'1'
 004938 47F0 7006            04916 35906                       END
 00493C 41F0 0001            00001 35911                       LA    R15,1               NOT FOUND
 004940 5810 7104            04A14 35912                       L     R1,=F'-1'
 004944 5018 0008            00008 35913              FINDPXIT PRETURN R1
 004948 18D8/9808 D004_            35915                       PEND  ,                   RETURN
 DROP   *,R7
1VETS     (VETS2025) (12:59) (15MAR04) REPEATOA -- Routine to Repeat to Address in the Screen Image                         Page  100
0Current Usings:  (VTWA,R6) (CP,R11) (CV,R12)
0Loc    Object Code    Addr1 Addr2  Stmt Lv Lineno    Source Statement           (Hibal 5, Asmedit 3.3)  HLASM R4.0  2004/03/15 12.59
+___    ______ ____    _____ _____  ____ __ ______    ______ _________
0                                  35936              *
                                   35937              ** REPEATOA - Routine to Repeat To Address - place multiple instances
                                   35938              **            of a Character in the 3270 buffer image, including
                                   35939              **            attributes. This routine stops at the end of the buffer,
                                   35940              **            it will NOT wrap.
                                   35941              **
                                   35942              **    On entry:
                                   35943              **      R0 = Character to store, and Attributes as:
                                   35944              **           CS|COL|HI|Text
                                   35945              **      R1 = Ending Buffer Index +1
                                   35946              **      R3 = Current Buffer Index
                                   35947              **      R6 = @VTWA
                                   35948              **      VTWTEXTP etc = pointer to screen buffer
                                   35949              **      VTWBUFL  = Buffer Length
                                   35950              **
                                   35951              **    On exit: CC  = (EQ) If Performed, (NE) If No characters placed
                                   35952              *
0                                  35954              *
                                   35955              **    REGISTER USE FOR THIS ROUTINE:
                                   35956              **       R0 = CHARACTER TO INSERT (FROM ENTRY)
                                   35957              **       R1 = ENDING BUFFER INDEX+1 FROM ENTRY)
                                   35958              **       R2 = WORKING BUFFER INDEX
                                   35959              **       R3 = CURRENT BUFFER INDEX (FROM ENTRY)
                                   35960              **       R4 = BUFFER LENGTH
                                   35961              **       R5 = @BUFFER
                                   35962              **       R6 = VTWA
                                   35963              *
0004956 50E0 D000/9008_      00000 35965              REPEATOA PROC  ,                   REPEAT TO ADDRESS
 USING  *,R7
 004970 5840 6024            00024 36004                       L     R4,VTWBUFL
 004974 1914/47D0 700C_            36005                       IF    (R1,GT,R4),'LR R1,R4'
 00497C 1821                       36026                       LR    R2,R1               R2 := ENDING POSITION +1
 00497E 1B23                       36027                       SR    R2,R3               R2 := ENDING+1 - START
 004980 5920 70A8/47B0_      04A18 36028                       IF    (R2,LT,=F'1'),'LA R15,1; EXIT REPEATOA'
0004990 5850 6094            00094 36054                       L     R5,VTWTEXTP         TEXT
 004994 1823                       36055                       LR    R2,R3               R2 := START
 004996 1921/47B0 7038             36056                       WHILE (R2,LT,R1),BEGIN    R1 = END+1
 00499C 4202 5000            00000 36073  1                      STC   R0,@R5(R2)
 0049A0 4120 2001            00001 36074  1                      LA    R2,@R2+1
 0049A4 47F0 7026            04996 36075                       END
00049A8 8800 0008            00008 36081                       SRL   R0,8
 0049AC 5850 6098            00098 36082                       L     R5,VTWHIP           HIGHLIGHT
 0049B0 1823                       36083                       LR    R2,R3
 0049B2 1921/47B0 7054             36084                       WHILE (R2,LT,R1),BEGIN
 0049B8 4202 5000            00000 36101  1                      STC   R0,@R5(R2)
 0049BC 4120 2001            00001 36102  1                      LA    R2,@R2+1
 0049C0 47F0 7042            049B2 36103                       END
00049C4 8800 0008            00008 36109                       SRL   R0,8
 0049C8 5850 609C            0009C 36110                       L     R5,VTWCOLP          COLOR
1VETS     (VETS2025) (12:59) (15MAR04) REPEATOA -- Routine to Repeat to Address in the Screen Image                         Page  101
0Current Usings:  (VTWA,R6) (*,R7) (CP,R11) (CV,R12)
0Loc    Object Code    Addr1 Addr2  Stmt Lv Lineno    Source Statement           (Hibal 5, Asmedit 3.3)  HLASM R4.0  2004/03/15 12.59
+___    ______ ____    _____ _____  ____ __ ______    ______ _________
00049CC 1823                       36111                       LR    R2,R3
 0049CE 1921/47B0 7070             36112                       WHILE (R2,LT,R1),BEGIN
 0049D4 4202 5000            00000 36129  1                      STC   R0,@R5(R2)
 0049D8 4120 2001            00001 36130  1                      LA    R2,@R2+1
 0049DC 47F0 705E            049CE 36131                       END
00049E0 8800 0008            00008 36137                       SRL   R0,8
 0049E4 5850 60A0            000A0 36138                       L     R5,VTWCSP           CHARACTER SET
 0049E8 1823                       36139                       LR    R2,R3
 0049EA 1921/47B0 708C             36140                       WHILE (R2,LT,R1),BEGIN
 0049F0 4202 5000            00000 36157  1                      STC   R0,@R5(R2)
 0049F4 4120 2001            00001 36158  1                      LA    R2,@R2+1
 0049F8 47F0 707A            049EA 36159                       END
00049FC 5018 0008            00008 36165                       PRETURN R1
 004A00 1BFF                       36167                       CLEAR R15
 004A02 18D8/9808 D004_            36171                       PEND  ,                   RETURN
 DROP   *,R7
 004A10                            36191                       LTORG
 004A10 00000040                   36193                             =A(X'40')
 004A14 FFFFFFFF                   36194                             =F'-1'
 004A18 00000001                   36195                             =F'1'
1VETS     (VETS2025) (12:59) (15MAR04) SENDSCR -- Routine to send screen to application                                     Page  102
0Current Usings:  (VTWA,R6) (CP,R11) (CV,R12)
0Loc    Object Code    Addr1 Addr2  Stmt Lv Lineno    Source Statement           (Hibal 5, Asmedit 3.3)  HLASM R4.0  2004/03/15 12.59
+___    ______ ____    _____ _____  ____ __ ______    ______ _________
0                                  36200              *
                                   36201              **  SENDSCR -- Routine to send 3270 buffer image to the application.
                                   36202              **
                                   36203              **  Note: Orders and data from partition zero, are never transmitted
                                   36204              **        as a structured field.
                                   36205              **
                                   36206              **    On entry:
                                   36207              **      VTWTEXTP = @ 3270 screen buffer
                                   36208              **      VTWBUFL  = length of above
                                   36209              **      VTWICPOS = current insert cursor buffer position
                                   36210              **      VTWRCMD  = read command received (zero if none)
                                   36211              **      RS3270   = the hardware Read State
                                   36212              **      AID3270  = AID received
                                   36213              **      VTWRMODE = Reply Mode (1,2,or 3)
                                   36214              **
                                   36215              **    On exit: R15 = 0 or points to error message.
                                   36216              *
0000000                00000 00010 36218              SENDSWA  RECORD BEGIN
 000000                            36226  1           SENDTYPE   DS    X                   SEND TYPE
                                   36227  1           SENDFS     EQS   SENDTYPE,1           SEND FULL SCREEN
 SENDTYPE.SENDFS    EQ             36228  1 01-EQS   +SENDFS     EQU   SENDTYPE,1,24
                                   36230  1           SENDMF     EQS   SENDTYPE,2           SEND MODIFIED FIELDS
 SENDTYPE.SENDMF    EQ             36231  1 01-EQS   +SENDMF     EQU   SENDTYPE,2,24
                                   36233  1           SENDSF     EQS   SENDTYPE,3           SEND SHORT FORM
 SENDTYPE.SENDSF    EQ             36234  1 01-EQS   +SENDSF     EQU   SENDTYPE,3,24
 000001                            36236  1           SENDVCNT   DS    X                   COUNT FOR SFE
 000004                            36237  1           SENDVLOC   DS    A                   LOCATION TO PUT COUNT FOR SFE
 000008                            36238  1           SENDSP     DS    F                   STARTING PONT IN BUFFER
 00000C                            36239  1           SENDEP     DS    F                   ENDING POINT IN BUFFER
 000010                00010 00010 36240                       END
0                                  36250              *
                                   36251              **    REGISTER USE FOR THIS ROUTINE:
                                   36252              **       R2 = CHARACTER BEING PROCESSED
                                   36253              **       R3 = SCREEN CURRENT INDEX
                                   36254              **       R4 = OUTPUT BUFFER DATA INDEX
                                   36255              **       R5 = OUTPUT BUFFER ADDRESS
                                   36256              **       R6 = VTWA
                                   36257              *
0                                  36259                       MACRO
                                   36260                       INCR4S ,                  INCREMENT R4 AND STEP TO NEXT BUFFER
                                   36261                       LA    R4,@R4+1
                                   36262                       IF    (R4,GE,VTBDLENG),BEGIN
                                   36263                       STH   R4,VTBCOUNT
                                   36264                       L     R4,VTWRSIZI                   GET THE NEXT BUFFER
                                   36265                       LA    R0,@R4+VTBDATA-VTBHEAD
                                   36266                       VCALL GETCORE
                                   36267                       ST    R1,VTBNEXT
                                   36268                       LR    R5,R1
                                   36269                       XC    VTBHEAD(VTBDATA-VTBHEAD),VTBHEAD
                                   36270                       MVC   VTBID,=C'VTBH'
                                   36271                       STH   R4,VTBDLENG
1VETS     (VETS2025) (12:59) (15MAR04) SENDSCR -- Routine to send screen to application                                     Page  103
0Current Usings:  (VTWA,R6) (CP,R11) (CV,R12)
0Loc    Object Code    Addr1 Addr2  Stmt Lv Lineno    Source Statement           (Hibal 5, Asmedit 3.3)  HLASM R4.0  2004/03/15 12.59
+___    ______ ____    _____ _____  ____ __ ______    ______ _________
0                                  36272                       CLEAR R4
                                   36273                       END
                                   36274                       MEND
0004A1C 50E0 D000/9008_      00000 36276              SENDSCR  PROC  SENDSWA             SEND SCREEN TO THE APPLICATION
 USING  *,R7
 USING  SENDSWA-(4+36),R8
                                   36326              *QSNAP 'ENTERED SENDSCR'
 004A36 D70F 8028 8028 00000 00000 36327                       CLEAR SENDSWA
0004A3C 5840 6060            00060 36335                       L     R4,VTWRSIZI                   GET THE FIRST BUFFER
 004A40 4100 4010            00010 36336                       LA    R0,@R4+VTBDATA-VTBHEAD
 004A44 58E0 7E72/0DEE       058A8 36337                       VCALL GETCORE
 004A4A 1851                       36341                       LR    R5,R1                         R5 := @ BUFFER
 USING  VTBHEAD,R5                 36342                       WITH  (VTBHEAD,R5)
 004A4C D70F 5000 5000 00000 00000 36355                       XC    VTBHEAD(VTBDATA-VTBHEAD),VTBHEAD
 004A52 D203 5000 7E76 00000 058AC 36356                       MVC   VTBID,=C'VTBH'
 004A58 4040 5008            00008 36357                       STH   R4,VTBDLENG
 004A5C 5050 6068            00068 36358                       ST    R5,VTWIRUC                    CHAIN IT
 004A60 1B44                       36359                       CLEAR R4
0004A62 9260 5010      00010       36364                       MVI   VTBDATA,X'60'                 AID = NONE
                                   36365              *                                  FIND TYPE TO PERFORM
 004A66 9500 600E/4780_0000E       36366                       IF    (VTWRCMD,NZ),BEGIN            IF READ COMMAND
 004A6E 95F6 600E/4770_0000E       36382  1                      IF    (VTWRCMD,EQ,X'F6'),BEGIN      IF READ MODIFIED
 004A76 9505 600B/4770_0000B       36399  2                        IF    (RSRETRYE),'B USEAID'         BR IF IF RETRY ENTER
 004A82 7050/47F0 7054_04A82 04A7C 36420  2                        ELSE  'SET SENDMF'
 004A8A                            36442  1                      END   ,                             END READ MODIFIED
0004A8A 7058/47F0 7064_04A8A 04A74 36447  1                      ELSEIF (VTWRCMD,EQ,X'6E'),'SET SENDMF'  IF RMA
 004A9A 7068/47F0 7074_04A9A 04A94 36484  1                      ELSEIF (VTWRCMD,EQ,X'F2'),'SET SENDFS'  IF RB
 004AAA                            36521                       END   ,                             END READ COMMAND
0004AAA 7078/47F0 70C8 04AAA 04A6C 36526              USEAID   ELSE  BEGIN                             ELSE RM
 004AAE D200 5010 600D 00010 0000D 36538  1                      MVC   VTBDATA(1),AID3270            USE THE AID
                                   36539  1         C            IF   ((AID3270,EQ,X'6C'),OR,                    IF PA1 OR
                                          1         C                  (AID3270,EQ,X'6E'),OR,(AID3270,EQ,X'6B')),   PA2 OR PA3
 004AB4 956C 600D/4780_0000D              1                            'SET SENDSF'                  SET SHORT FORM
0004AD0 709E/47F0 70C0_04AD0 04ACA 36598  1                      ELSEIF (AID3270,EQ,X'6D'),BEGIN                    IF CLEAR
 004ADC 9203 8028      00000       36624  2                        SET   SENDSF
 004AE0 94FD 6004      00004       36630  2                        CLEAR VTWFALT                       SET DEFAULT SIZE
 004AE4 D207 6020 6028 00020 00028 36637  2                        MVC   VTWHEI(8),VTWHEID
 004AEA 9200 600F      0000F       36638  2                        CLEAR VTWRMODE
 004AEE 1B00                       36645  2                        CLEAR R0
 004AF0 58E0 7E7A/0DEE       058B0 36649  2                        ACALL CLEARSCR                      DO THE ERASE
 004AF6                            36653  1                      END   ,                             END CLEAR
0004AF6 70C4/47F0 70C8_04AF6 04ADA 36658  1                      ELSE  'SET SENDMF'                  ELSE MODIFIED FIELDS
 004AFE                            36680                       END   ,                             END RM
0004AFE 5810 6090            00090 36685                       L     R1,VTWICPOS                   FINISH PREFEX
 004B02 58E0 7E7E/0DEE       058B4 36686                       ACALL BUFTODIS
 004B08 40105011                   36690                       ST2   R1,VTBDATA+1
1VETS     (VETS2025) (12:59) (15MAR04) SENDSCR -- Routine to send screen to application                                     Page  104
0Current Usings:  (VTBHEAD,R5) (VTWA,R6) (*,R7) (SENDSWA-(4+36),R8) (CP,R11) (CV,R12)
0Loc    Object Code    Addr1 Addr2  Stmt Lv Lineno    Source Statement           (Hibal 5, Asmedit 3.3)  HLASM R4.0  2004/03/15 12.59
+___    ______ ____    _____ _____  ____ __ ______    ______ _________
0004B0C 4140 0003            00003 36692                       LA    R4,3
0004B10 9503 8028/4770_00000       36694                       IF    (SENDSF),'LA R4,1; B SENDSEND'   BR SHORT FORM
0004B20 1B11                       36717                       CLEAR R1                            FIND FIRST FAC
 004B22 58E0 7E82/0DEE       058B8 36721                       ACALL FINDNFAC
 004B28 1211/47B0 70FA_            36725                       IF    (R1,NEG),'CLEAR R1'           R1 = STARTING POINT
 004B30 9501 8028/4770_00000       36748                       IF    (SENDFS),'CLEAR R1'
 004B3A 1831                       36772                       LR    R3,R1
0004B3C 5010 8030            00008 36774                       ST    R1,SENDSP
 004B40 D203 8034 6024 0000C 00024 36775                       MVC   SENDEP,VTWBUFL
0004B46                            36777              SENDFBLO LOOP  BEGIN                         FULL BUFFER LOOP
 004B46 5930 8034/47B0_      0000C 36784  1           SENDBHLO   WHILE (R3,LT,SENDEP),BEGIN          BOTTOM HALF LOOP
 004B4E 58F0 6094            00094 36804  2                        L     R15,VTWTEXTP
 004B52 1F22/4323 F000             36805  2                        LC    R2,@R15(R3)
 004B58 5920 7E86/47B0_      058BC 36812  2                        IF    (R2,LT,X'40'),BEGIN           IF FAC OR NULL
 004B60 1222/4770 713C             36829  3                          IF    (R2,Z),BEGIN                  IF NULL
 004B66 9501 8028/4770_00000       36843  4                            IF    (~SENDFS),NEXTCH
 004B6E 47F0 75B8            04FEE 36861  4                            B     SENDCH
 004B72                            36862  3                          END   ,                             END NULL
0                                  36867  3           *                                                  ELSE (R2=FAC)
 004B72 9501 8028/4770_00000       36868  3                          IF    (SENDFS),BEGIN                IF FULL SCREEN
 004B7A 9500 600F/4770_0000F       36883  4                            IF    (VTWRMODE,ZERO),BEGIN         IF REPLY MODE 0
 004B82 4110 001D            0001D 36899  5                              LA    R1,X'1D'                      SF ORDER
 004B86 4214 5010            00010 36900  5                              STC   R1,VTBDATA(R4)
 004B8A 4140 4001/4940_      00001 36901  5                              INCR4S
 004BC0 5420 7E8A            058C0 36940  5                              N     R2,=A(B'00111101')            REMOVE NON-NULL FLAG
 004BC4 4224 5010            00010 36941  5                              STC   R2,VTBDATA(R4)                ATTRIBUTE
 004BC8 4140 4001/4940_      00001 36942  5                              INCR4S
 004BFE                            36981  4                            END   ,                             END REPLY MODE 0
0                                  36986  4           *              Note: For Reply Mode 2, character level attributes are
                                   36987  4           *              not handled properly.
0004BFE 71CC/47F0 74A2 04BFE 04B80 36989  4                            ELSE  BEGIN                         ELSE REPLY MODE OTHER
 004C02 4110 0029            00029 37000  5                              LA    R1,X'29'                      SFE ORDER
 004C06 4214 5010            00010 37001  5                              STC   R1,VTBDATA(R4)
 004C0A 4140 4001/4940_      00001 37002  5                              INCR4S
 004C40 4114 5010            00010 37041  5                              LA    R1,VTBDATA(R4)                R1 := A(COUNT CHARACTER)
 004C44 5010 802C            00004 37042  5                              ST    R1,SENDVLOC
 004C48 4140 4001/4940_      00001 37043  5                              INCR4S
 004C7E 9200 8029      00001       37082  5                              CLEAR SENDVCNT
0004C82 5420 7E8A            058C0 37090  5                              N     R2,=A(B'00111101')            REMOVE NON-NULL FLAG
 004C86 4780 72D8            04D0E 37091  5                              IF    (NZ),BEGIN
 004C8A 4110 00C0            000C0 37102  6                                LA    R1,X'C0'
 004C8E 4214 5010            00010 37103  6                                STC   R1,VTBDATA(R4)
 004C92 4140 4001/4940_      00001 37104  6                                INCR4S
 004CC8 4224 5010            00010 37143  6                                STC   R2,VTBDATA(R4)
 004CCC 4140 4001/4940_      00001 37144  6                                INCR4S
 004D02 BF11 8029/4110_      00001 37183  6                                INCR  R1,SENDVCNT
1VETS     (VETS2025) (12:59) (15MAR04) SENDSCR -- Routine to send screen to application                                     Page  105
0Current Usings:  (VTBHEAD,R5) (VTWA,R6) (*,R7) (SENDSWA-(4+36),R8) (CP,R11) (CV,R12)
0Loc    Object Code    Addr1 Addr2  Stmt Lv Lineno    Source Statement           (Hibal 5, Asmedit 3.3)  HLASM R4.0  2004/03/15 12.59
+___    ______ ____    _____ _____  ____ __ ______    ______ _________
0004D0E                            37189  5                              END
0004D0E 58F0 6098            00098 37194  5                              L     R15,VTWHIP
 004D12 1F22/4323 F000             37195  5                              LC    R2,@R15(R3)
 004D18 1222/4780 736C             37202  5                              IF    (R2,NZ),BEGIN                 IF HIGHLIGHTING
 004D1E 4110 0041            00041 37216  6                                LA    R1,X'41'
 004D22 4214 5010            00010 37217  6                                STC   R1,VTBDATA(R4)
 004D26 4140 4001/4940_      00001 37218  6                                INCR4S
 004D5C 4224 5010            00010 37257  6                                STC   R2,VTBDATA(R4)
 004D60 4140 4001/4940_      00001 37258  6                                INCR4S
 004D96 BF11 8029/4110_      00001 37297  6                                INCR  R1,SENDVCNT
 004DA2                            37303  5                              END
0004DA2 58F0 609C            0009C 37308  5                              L     R15,VTWCOLP
 004DA6 1F22/4323 F000             37309  5                              LC    R2,@R15(R3)
 004DAC 1222/4780 7400             37316  5                              IF    (R2,NZ),BEGIN                 IF COLOR
 004DB2 4110 0042            00042 37330  6                                LA    R1,X'42'
 004DB6 4214 5010            00010 37331  6                                STC   R1,VTBDATA(R4)
 004DBA 4140 4001/4940_      00001 37332  6                                INCR4S
 004DF0 4224 5010            00010 37371  6                                STC   R2,VTBDATA(R4)
 004DF4 4140 4001/4940_      00001 37372  6                                INCR4S
 004E2A BF11 8029/4110_      00001 37411  6                                INCR  R1,SENDVCNT
 004E36                            37417  5                              END
0004E36 58F0 60A0            000A0 37422  5                              L     R15,VTWCSP
 004E3A 1F22/4323 F000             37423  5                              LC    R2,@R15(R3)
 004E40 1222/4780 7494             37430  5                              IF    (R2,NZ),BEGIN                 IF CHARACTER SET
 004E46 4110 0043            00043 37444  6                                LA    R1,X'43'
 004E4A 4214 5010            00010 37445  6                                STC   R1,VTBDATA(R4)
 004E4E 4140 4001/4940_      00001 37446  6                                INCR4S
 004E84 4224 5010            00010 37485  6                                STC   R2,VTBDATA(R4)
 004E88 4140 4001/4940_      00001 37486  6                                INCR4S
 004EBE BF11 8029/4110_      00001 37525  6                                INCR  R1,SENDVCNT
 004ECA                            37531  5                              END
0004ECA 1F11/4310 8029             37536  5                              LC    R1,SENDVCNT
 004ED0 58F0 802C            00004 37543  5                              L     R15,SENDVLOC
 004ED4 4210 F000            00000 37544  5                              STC   R1,@R15
 004ED8                            37545  4                            END   ,                             END REPLY MODE OTHER
 004ED8                            37549  3                          END   ,                             END FULL SCREEN
0004ED8 74A6/47F0 75B4 04ED8 04B78 37554  3                          ELSE  BEGIN                         ELSE SEND MF
 004EDC 4100 0001            00001 37565  4                            LA    R0,B'1'
 004EE0 1402                       37566  4                            NR    R0,R2
 004EE2 4770 74E2            04F18 37567  4                            IF    (ZERO),BEGIN        IF NOT MODIFIED
 004EE6 1813                       37578  5                              LR    R1,R3               SKIP THIS FIELD
 004EE8 4110 1001            00001 37579  5                              LA    R1,@R1+1
 004EEC 58E0 7E82/0DEE       058B8 37580  5                              ACALL FINDNFAC
 004EF2 1231                       37584  5                              LTR   R3,R1
 004EF4 47B0 74DE            04F14 37585  5                              IF    (NEG),BEGIN
 004EF8 D203 8034 8030 0000C 00008 37596  6                                MVC   SENDEP,SENDSP
 004EFE 1B11                       37597  6                                CLEAR R1
 004F00 58E0 7E82/0DEE       058B8 37601  6                                ACALL FINDNFAC
 004F06 1831                       37605  6                                LR    R3,R1
1VETS     (VETS2025) (12:59) (15MAR04) SENDSCR -- Routine to send screen to application                                     Page  106
0Current Usings:  (VTBHEAD,R5) (VTWA,R6) (*,R7) (SENDSWA-(4+36),R8) (CP,R11) (CV,R12)
0Loc    Object Code    Addr1 Addr2  Stmt Lv Lineno    Source Statement           (Hibal 5, Asmedit 3.3)  HLASM R4.0  2004/03/15 12.59
+___    ______ ____    _____ _____  ____ __ ______    ______ _________
0004F08 5930 8034/4750_      0000C 37606  6                                IF    (R3,GE,SENDEP),'EXIT SENDFBLO'
 004F14                            37631  5                              END
 004F14 47F0 7110            04B46 37635  5                              B     SENDBHLO
 004F18                            37636  4                            END   ,                   END NOT MODIFIED
0004F18 4110 0011            00011 37641  4                            LA    R1,X'11'                      SBA ORDER
 004F1C 4214 5010            00010 37642  4                            STC   R1,VTBDATA(R4)
 004F20 4140 4001/4940_      00001 37643  4                            INCR4S
 004F56 1813                       37682  4                            LR    R1,R3
 004F58 4110 1001            00001 37683  4                            LA    R1,@R1+1
 004F5C 5910 6024/4750_      00024 37684  4                            IF    (R1,GE,VTWBUFL),'CLEAR R1'
 004F66 58E0 7E7E/0DEE       058B4 37710  4                            ACALL BUFTODIS
 004F6C 1821                       37714  4                            LR    R2,R1
 004F6E 41F4 5010            00010 37715  4                            LA    R15,VTBDATA(R4)
 004F72 BE22 F000            00000 37716  4                            STCM  R2,B'10',@R15                 ADDRESS
 004F76 4140 4001/4940_      00001 37717  4                            INCR4S
 004FAC 41F4 5010            00010 37756  4                            LA    R15,VTBDATA(R4)
 004FB0 BE21 F000            00000 37757  4                            STCM  R2,B'01',@R15
 004FB4 4140 4001/4940_      00001 37758  4                            INCR4S
 004FEA                            37797  3                          END   ,                             END SEND MF
 004FEA                            37801  2                        END   ,                             END FAC OR NULL
0004FEA 75B8/47F0 75F2 04FEA 04B5E 37806  2           SENDCH       ELSE  BEGIN                         ELSE CHARACTER
 004FEE 4224 5010            00010 37818  3                          STC   R2,VTBDATA(R4)
 004FF2 4140 4001/4940_      00001 37819  3                          INCR4S
 005028                            37858  2                        END   ,                             END CHARACTER
0005028 4130 3001            00001 37863  2           NEXTCH       LA    R3,@R3+1
 00502C 47F0 7110            04B46 37864  1                      END   ,                             END BOTTOM HALF LOOP
0005030 5930 8030/4730_      00008 37870  1                      IF    (R3,LE,SENDSP),'EXIT SENDFBLO'
 00503C D203 8034 8030 0000C 00008 37895  1                      MVC   SENDEP,SENDSP
 005042 1B33                       37896  1                      CLEAR R3
 005044 47F0 7110            04B46 37900                       END   ,                             END FULL BUFFER LOOP
0005048 4040 500A            0000A 37906              SENDSEND STH   R4,VTBCOUNT
 00504C 4DE0 79C8            053FE 37907                       LCALL SENDCHAN                      SEND THE DATA CHAIN
 005050 9200 600E      0000E       37909                       CLEAR VTWRCMD
 005054 18D8/9808 D004_            37916                       PEND  ,                             RETURN
 DROP   VTBHEAD,R5
 DROP   SENDSWA-(4+36),R8
 DROP   *,R7
1VETS     (VETS2025) (12:59) (15MAR04) SENDQR -- Routine to send Query Reply to Application                                 Page  107
0Current Usings:  (VTWA,R6) (CP,R11) (CV,R12)
0Loc    Object Code    Addr1 Addr2  Stmt Lv Lineno    Source Statement           (Hibal 5, Asmedit 3.3)  HLASM R4.0  2004/03/15 12.59
+___    ______ ____    _____ _____  ____ __ ______    ______ _________
0                                  37947              *
                                   37948              **  SENDQR -- Routine to format and send Query Responses to the
                                   37949              **            Application
                                   37950              **
                                   37951              **    On entry:
                                   37952              **      VTWQLIST = list of replies to be sent
                                   37953              **
                                   37954              **    On exit: R15 = 0 or points to error message.
                                   37955              **             Terminal Read State set to Retry Read
                                   37956              *
                                   37957              *
                                   37958              **    REGISTER USE FOR THIS ROUTINE:
                                   37959              **       R2 =
                                   37960              **       R3 = VTWQLIST INDEX
                                   37961              **       R4 = OUTPUT BUFFER DATA INDEX
                                   37962              **       R5 = OUTPUT BUFFER ADDRESS
                                   37963              **       R6 = VTWA
                                   37964              *
0                                  37966                       MACRO
                                   37967                       CHECKSPA ,                CHECK SPACE AND STEP TO NEXT BUFFER
                                   37968                       IF    (R1,GE,VTBDLENG),BEGIN
                                   37969                       STH   R4,VTBCOUNT
                                   37970                       L     R4,VTWRSIZI                   GET THE NEXT BUFFER
                                   37971                       LA    R0,@R4+VTBDATA-VTBHEAD
                                   37972                       VCALL GETCORE
                                   37973                       ST    R1,VTBNEXT
                                   37974                       LR    R5,R1
                                   37975                       XC    VTBHEAD(VTBDATA-VTBHEAD),VTBHEAD
                                   37976                       MVC   VTBID,=C'VTBH'
                                   37977                       STH   R4,VTBDLENG
                                   37978                       CLEAR R4
                                   37979                       END
                                   37980                       MEND
0005062 50E0 D000/9008_      00000 37982              SENDQR   PROC  ,                   SEND QUERY REPLY
 USING  *,R7
                                   38021              *QSNAP 'ENTERED SENDQR'
 00507C 5840 6060            00060 38022                       L     R4,VTWRSIZI                   GET THE FIRST BUFFER
 005080 4100 4010            00010 38023                       LA    R0,@R4+VTBDATA-VTBHEAD
 005084 58E0 782C/0DEE       058A8 38024                       VCALL GETCORE
 00508A 1851                       38028                       LR    R5,R1                         R5 := @ BUFFER
 USING  VTBHEAD,R5                 38029                       WITH  (VTBHEAD,R5)
 00508C D70F 5000 5000 00000 00000 38042                       XC    VTBHEAD(VTBDATA-VTBHEAD),VTBHEAD
 005092 D203 5000 7830 00000 058AC 38043                       MVC   VTBID,=C'VTBH'
 005098 4040 5008            00008 38044                       STH   R4,VTBDLENG
 00509C 5050 6068            00068 38045                       ST    R5,VTWIRUC                    CHAIN IT
 0050A0 1B44                       38046                       CLEAR R4
00050A2 9288 5010      00010       38051                       MVI   VTBDATA,X'88'                 STRUCTURED FIELD
 0050A6 4140 0001            00001 38052                       LA    R4,1
 0050AA 1B33                       38053                       CLEAR R3
00050AC 5930 7848/47B0_      058C4 38058                       WHILE (R3,LT,=A(L'VTWQLIST)),BEGIN  QUERY LOOP
1VETS     (VETS2025) (12:59) (15MAR04) SENDQR -- Routine to send Query Reply to Application                                 Page  108
0Current Usings:  (VTBHEAD,R5) (VTWA,R6) (*,R7) (CP,R11) (CV,R12)
0Loc    Object Code    Addr1 Addr2  Stmt Lv Lineno    Source Statement           (Hibal 5, Asmedit 3.3)  HLASM R4.0  2004/03/15 12.59
+___    ______ ____    _____ _____  ____ __ ______    ______ _________
00050B4 1F22/4323 6010             38076  1                      LC    R2,VTWQLIST(R3)
00050BA 5920 784C/4770_      058C8 38084  1                      IF    (R2,EQ,X'85'),BEGIN           IF CHARACTER SET
 0050C2 9110 6007/47E0_00007       38101  2                        IF    (VTWFGE),BEGIN      IF GE BEING SIMULATED
 0050CA 4110 401B            0001B 38116  3                          LA    R1,@R4+27
 0050CE 4910 5008/4750_      00008 38117  3                          CHECKSPA
 005100 4114 5010            00010 38155  3                          LA    R1,VTBDATA(R4)
 005104 D20C 1000 78FE 00000 0597A 38156  3                          MVC   @R1(13),=X'001B81858200,0910,0000000007'
 00510A D20D 100D 78A4 0000D 05920 38157  3                          MVC   @R1+13(14),=X'00000000650025,0100F1017E0136'
 005110 4140 401B            0001B 38158  3                          LA    R4,@R4+27
 005114                            38159  2                        END   ,                   END GE BEING SIMULATED
0005114 709C/47F0 70E6 05114 050C8 38164  2                        ELSE  BEGIN               ELSE NOT GE
 005118 4110 4014            00014 38175  3                          LA    R1,@R4+20
 00511C 4910 5008/4750_      00008 38176  3                          CHECKSPA
 00514E 4114 5010            00010 38214  3                          LA    R1,VTBDATA(R4)
 005152 D20C 1000 790B 00000 05987 38215  3                          MVC   @R1(13),=X'001481850200,0910,0000000007'
 005158 D206 100D 7918 0000D 05994 38216  3                          MVC   @R1+13(07),=X'00000000650025'
 00515E 4140 4014            00014 38217  3                          LA    R4,@R4+20
 005162                            38218  2                        END   ,                   END NOT GE
 005162                            38222  1                      END   ,                             END CHARACTER SET
0005162 70EA/47F0 7144_05162 050C0 38227  1                      ELSEIF (R2,EQ,X'86'),BEGIN          IF COLOR
 00516E 9140 6007/47E0_00007       38253  2                        IF    (~VTWFCOLOR),EXIT
 005176 4110 4016            00016 38271  2                        LA    R1,@R4+22
 00517A 4910 5008/4750_      00008 38272  2                        CHECKSPA
 0051AC 4114 5010            00010 38310  2                        LA    R1,VTBDATA(R4)
 0051B0 D207 1000 7824 00000 058A0 38311  2                        MVC   @R1(8),=X'001681860008,00F4'
 0051B6 D20D 1008 78B2 00008 0592E 38312  2                        MVC   @R1+8(14),=X'F1F1,F2F2,F3F3,F4F4,F5F5,F6F6,F7F7'
 0051BC 4140 4016            00016 38313  2                        LA    R4,@R4+22
 0051C0                            38314  1                      END   ,                             END COLOR
00051C0 7148/47F0 719C_051C0 0516C 38319  1                      ELSEIF (R2,EQ,X'87'),BEGIN          IF HIGHLIGHTING
 0051CC 9120 6007/47E0_00007       38345  2                        IF    (~VTWFHI),EXIT
 0051D4 4110 400D            0000D 38363  2                        LA    R1,@R4+X'0D'
 0051D8 4910 5008/4750_      00008 38364  2                        CHECKSPA
 00520A 4114 5010            00010 38402  2                        LA    R1,VTBDATA(R4)
 00520E D20C 1000 791F 00000 0599B 38403  2                        MVC   @R1(X'0D'),=X'000D81,8704,00F0,F1F1,F2F2,F4F4'
 005214 4140 400D            0000D 38404  2                        LA    R4,@R4+X'0D'        '
 005218                            38405  1                      END   ,                             END HIGHLIGHTING
0005218 71A0/47F0 71EC_05218 051CA 38410  1                      ELSEIF (R2,EQ,X'88'),BEGIN          IF REPLY MODES
 005224 4110 4006            00006 38436  2                        LA    R1,@R4+X'06'
 005228 4910 5008/4750_      00008 38437  2                        CHECKSPA
 00525A 4114 5010            00010 38475  2                        LA    R1,VTBDATA(R4)
 00525E D205 1000 78C0 00000 0593C 38476  2                        MVC   @R1(X'06'),=X'000681,880001'
 005264 4140 4006            00006 38477  2                        LA    R4,@R4+X'06'
 005268                            38478  1                      END   ,                             END REPLY MODES
0005268 71F0/47F0 7282_05268 05222 38483  1                      ELSEIF (R2,EQ,X'81'),BEGIN          IF USABLE AREA
 005274 4110 4017            00017 38509  2                        LA    R1,@R4+23
 005278 4910 5008/4750_      00008 38510  2                        CHECKSPA
 0052AA 4114 5010            00010 38548  2                        LA    R1,VTBDATA(R4)
 0052AE D205 1000 78C6 00000 05942 38549  2                        MVC   @R1(6),=X'00178181,0100'
1VETS     (VETS2025) (12:59) (15MAR04) SENDQR -- Routine to send Query Reply to Application                                 Page  109
0Current Usings:  (VTBHEAD,R5) (VTWA,R6) (*,R7) (CP,R11) (CV,R12)
0Loc    Object Code    Addr1 Addr2  Stmt Lv Lineno    Source Statement           (Hibal 5, Asmedit 3.3)  HLASM R4.0  2004/03/15 12.59
+___    ______ ____    _____ _____  ____ __ ______    ______ _________
00052B4 4140 4006            00006 38550  2                        LA    R4,@R4+6
 0052B8 4114 5010            00010 38551  2                        LA    R1,VTBDATA(R4)
 0052BC D201 1000 6032 00000 00032 38552  2                        MVC   @R1(2),VTWWIDA
 0052C2 D201 1002 6030 00002 00030 38553  2                        MVC   @R1+2(2),VTWHEIA
 0052C8 D503 602C 6034_0002C 00034 38554  2                        IF    (VTWBUFLD,GT,VTWBUFLA),BEGIN
 0052D2 D201 1000 602A 00000 0002A 38572  3                          MVC   @R1(2),VTWWIDD
 0052D8 D201 1002 6028 00002 00028 38573  3                          MVC   @R1+2(2),VTWHEID
 0052DE                            38574  2                        END
 0052DE 4140 4004            00004 38578  2                        LA    R4,@R4+4
 0052E2 4114 5010            00010 38579  2                        LA    R1,VTBDATA(R4)
 0052E6 D20A 1000 792C 00000 059A8 38580  2                        MVC   @R1(11),=X'00,000A02E5,0002006F,090C'
 0052EC 4140 400B            0000B 38581  2                        LA    R4,@R4+11
 0052F0 4114 5010            00010 38582  2                        LA    R1,VTBDATA(R4)
 0052F4 D201 1000 603E 00000 0003E 38583  2                        MVC   @R1(2),VTWBUFGC+2
 0052FA 4140 4002            00002 38584  2                        LA    R4,@R4+2            '
 0052FE                            38585  1                      END   ,                             END USABLE AREA
00052FE 7286/47F0 72F2_052FE 05272 38590  1                      ELSEIF (R2,EQ,X'A6'),BEGIN          IF IMPLICIT PARTITION
 00530A 4110 4017            00017 38616  2                        LA    R1,@R4+X'17'
 00530E 4910 5008/4750_      00008 38617  2                        CHECKSPA
 005340 4114 5010            00010 38655  2                        LA    R1,VTBDATA(R4)
 005344 D208 1000 7937 00000 059B3 38656  2                        MVC   @R1(9),=X'001181A6,0000,0B0100'
 00534A 4140 4009            00009 38657  2                        LA    R4,@R4+9
 00534E 4114 5010            00010 38658  2                        LA    R1,VTBDATA(R4)
 005352 D201 1000 602A 00000 0002A 38659  2                        MVC   @R1(2),VTWWIDD
 005358 D201 1002 6028 00002 00028 38660  2                        MVC   @R1+2(2),VTWHEID
 00535E D201 1004 6032 00004 00032 38661  2                        MVC   @R1+4(2),VTWWIDA
 005364 D201 1006 6030 00006 00030 38662  2                        MVC   @R1+6(2),VTWHEIA
 00536A 4140 4008            00008 38663  2                        LA    R4,@R4+8
 00536E                            38664  1                      END   ,                             END IMPLICIT PARTITION
000536E 72F6/47F0 7342_0536E 05308 38669  1                      ELSEIF (R2,EQ,X'80'),BEGIN          IF SUMMARY
 00537A 4110 400B            0000B 38695  2                        LA    R1,@R4+11
 00537E 4910 5008/4750_      00008 38696  2                        CHECKSPA
 0053B0 4114 5010            00010 38734  2                        LA    R1,VTBDATA(R4)
 0053B4 D20A 1000 7940 00000 059BC 38735  2                        MVC   @R1(11),=X'000B8180,808185868788A6'
 0053BA 4140 400B            0000B 38736  2                        LA    R4,@R4+11
 0053BE                            38737  1                      END   ,                             END SUMMARY
00053BE 4130 3001            00001 38742  1                      LA    R3,@R3+1
 0053C2 47F0 7030            050AC 38743                       END   ,                             END QUERY LOOP
-0053C6 5940 7868/4730_      058E4 38749                       IF    ((R4,LE,=F'1'),AND,(R5,EQ,VTWIRUC)),BEGIN   IF NONE
 0053D6 4114 5010            00010 38781  1                      LA    R1,VTBDATA(R4)
 0053DA D203 1000 786C 00000 058E8 38782  1                      MVC   @R1(4),=X'000481FF'           SEND NULL
 0053E0 4140 4004            00004 38783  1                      LA    R4,@R4+4
 0053E4                            38784                       END   ,                                           END NONE
-0053E4 4040 500A            0000A 38789                       STH   R4,VTBCOUNT
 0053E8 9206 600B      0000B       38790                       SET   RSRETRYR
0                                  38797              *QSNAP VTBHEAD,107
1VETS     (VETS2025) (12:59) (15MAR04) SENDQR -- Routine to send Query Reply to Application                                 Page  110
0Current Usings:  (VTBHEAD,R5) (VTWA,R6) (*,R7) (CP,R11) (CV,R12)
0Loc    Object Code    Addr1 Addr2  Stmt Lv Lineno    Source Statement           (Hibal 5, Asmedit 3.3)  HLASM R4.0  2004/03/15 12.59
+___    ______ ____    _____ _____  ____ __ ______    ______ _________
00053EC 4DE0 7382            053FE 38798                       LCALL SENDCHAN                      SEND THE DATA CHAIN
 0053F0 18D8/9808 D004_            38800                       PEND  ,                             RETURN
 DROP   VTBHEAD,R5
 DROP   *,R7
1VETS     (VETS2025) (12:59) (15MAR04) SENDCHAN -- Routine to SEND buffer chain to application                              Page  111
0Current Usings:  (VTWA,R6) (CP,R11) (CV,R12)
0Loc    Object Code    Addr1 Addr2  Stmt Lv Lineno    Source Statement           (Hibal 5, Asmedit 3.3)  HLASM R4.0  2004/03/15 12.59
+___    ______ ____    _____ _____  ____ __ ______    ______ _________
0                                  38826              *
                                   38827              **  SENDCHAN -- Routine to send inbound buffer (RU) chain
                                   38828              **              to the application.
                                   38829              **
                                   38830              **    On entry:
                                   38831              **      VTWIRUC  = Head of inbound RU chain
                                   38832              **      VTWFERP1 = ON if 3270 ERP1 state is being simulated
                                   38833              **      VTWFSBBI = ON if currently between brackets
                                   38834              **
                                   38835              **    ON EXIT:
                                   38836              *
                                   38837              *
                                   38838              **    REGISTER USE FOR THIS ROUTINE:
                                   38839              **       R2 =
                                   38840              **       R3 = @ RPL
                                   38841              **       R4 = @ VTAM BUFFLIST
                                   38842              **       R5 = @ BUFFER
                                   38843              **       R6 = VTWA
                                   38844              *
-
 000000                00000 00000 38846                       RECORD BEGIN
                                   38854  1                      ISTBLENT
                                   38855  1          +***********************************************************************
                                   38856  1          +**                                                                   **
                                   38857  1          +** MACRO-NAME:                                                       **
                                   38858  1          +**       ISTBLENT                                                    **
                                   38859  1          +**                                                                   **
                                   38860  1          +** COPYRIGHT: LICENSED MATERIALS - PROPERTY OF IBM                   **
                                   38861  1          +**                                                                   **
                                   38862  1          +**            THIS PRODUCT CONTAINS "RESTRICTED MATERIALS OF IBM"    **
                                   38863  1          +**                                                                   **
                                   38864  1          +**            5685-085 (C) COPYRIGHT IBM CORP. 1981, 1991.           **
                                   38865  1          +**            ALL RIGHTS RESERVED.                                   **
                                   38866  1          +**                                                                   **
                                   38867  1          +**            U.S. GOVERNMENT USERS RESTRICTED RIGHTS -              **
                                   38868  1          +**            USE, DUPLICATION OR DISCLOSURE RESTRICTED BY           **
                                   38869  1          +**            GSA ADP SCHEDULE CONTRACT WITH IBM CORP.               **
                                   38870  1          +**                                                                   **
                                   38871  1          +**            SEE COPYRIGHT INSTRUCTIONS.                            **
                                   38872  1          +**                                                                   **
                                   38873  1          +** MACRO-DESCRIPTIVE-NAME:                                           **
                                   38874  1          +**       VTAM BUFFER LIST ENTRY MAPPING MACRO                        **
                                   38875  1          +**                                                                   **
                                   38876  1          +**  $MAC(ISTBLENT),COMP(SMS),PROD(VTAM): BUFFER LIST ENTRY           **
                                   38877  1          +**                                                                   **
                                   38878  1          +**  FLAG REASON   RELEASE DATE   ORIGIN  FLAG DESCRIPTORS            **
                                   38879  1          +**  ---- -------- ------- ------ ------  ---------------------       **
                                   38880  1          +**  $BB= ACC@@AMS HVT3401 891025 615520: PL/AS CONVERSION            **
                                   38881  1          +**  $D1= IA@@@MST V51APPC 941026 226653: APPC SENDRCV SUPPORT        **
                                   38882  1          +**                                                                   **
                                   38883  1          +***********************************************************************
 000000                00000 00010 38884  1 01-ISTBL +ISTBLENT   DSECT
1VETS     (VETS2025) (12:59) (15MAR04) SENDCHAN -- Routine to SEND buffer chain to application                              Page  112
0Current Usings:  (VTWA,R6) (CP,R11) (CV,R12)
0Loc    Object Code    Addr1 Addr2  Stmt Lv Lineno    Source Statement           (Hibal 5, Asmedit 3.3)  HLASM R4.0  2004/03/15 12.59
+___    ______ ____    _____ _____  ____ __ ______    ______ _________
0000000                            38885  1 01-ISTBL +           DS    0F
 000000                            38886  1 01-ISTBL +BLENT      DS    0XL16                   BUFFER LIST ENTRY
 000000                            38887  1 01-ISTBL +BLERECLN   DS    0F                      RECEIVE DATA LENGTH
 000000                            38888  1 01-ISTBL +BLEFLAGS   DS    X                       FLAGS
                                   38889  1 01-ISTBL +BLELMPEO   EQU   B'11000000'             LMPEO CONTROL FLAGS --
                                   38890  1          +*                                      RESERVED UNLESS OPTCD=LMPEO
                                   38891  1 01-ISTBL +BLEBEGRU   EQU   B'10000000'             THIS ENTRY BEGINS AN RU --
                                   38892  1          +*                                      VTAM MAY NOT BREAK UP THE RU
                                   38893  1 01-ISTBL +BLEENDRU   EQU   B'01000000'             THIS ENTRY ENDS AN RU --
                                   38894  1          +*                                      VTAM WILL BEGIN (WITH THE NEXT
                                   38895  1          +*                                      BUFFER LIST ENTRY) TO BREAK UP
                                   38896  1          +*                                      THE NEXT SET OF DATA UNLESS
                                   38897  1          +*                                      THE NEXT BUFFER LIST ENTRY
                                   38898  1          +*                                      PRECLUDES IT
                                   38899  1          +*        EQU   B'00111111'             RESERVED - NOT AVAILABLE
0000001                            38901  1 01-ISTBL +BLERH      DS    XL3                     REQUEST HEADER
 000004                            38902  1 01-ISTBL +BLEBUFL    DS    F                       RECEIVE AREA LENGTH
 000008                            38903  1 01-ISTBL +BLEAREA    DS    A                       POINTER TO USER DATA
 00000C                            38904  1 01-ISTBL +BLERLEN    DS    F                       LENGTH OF DATA
 000010                00010 00010 38905                       END
-
 0053FE 50E0 D000/9008_      00000 38914              SENDCHAN PROC  ,                   SEND RU CHAIN
 USING  *,R7
                                   38953              *QSNAP 'ENTERED SENDCHAN'
 005418 4DE0 718A            055A2 38954                       LCALL SENDRESP
000541C 5830 6058            00058 38957                       L     R3,VTWAACBP                   GET THE RPL
 005420 5830 30A4            000A4 38958                       WITH  (ACB,R3),'L R3,ACBNSRPL'
 USING  ACB,R3
 DROP   ACB,R3
 USING  RPL,R3                     38982                       WITH  (RPL,R3)
 005424 9500 3045/4780_00045       38995                       FAIL  (RPLACTIV,NZ),SENDCHAN,'SEND RPL NOT FREE'
0005444 5850 6068            00068 39024                       L     R5,VTWIRUC          R5 : @ FIRST BUFFER
 USING  VTBHEAD,R5                 39025                       WITH  (VTBHEAD,R5)
 005448 D603 5004 5004_00004 00004 39038                       IF    (VTBNEXT,NZ),BEGIN  IF MORE THAN ONE RU
 005452 9602 3039      00039       39054  1                      SET   RPLOPT6.RPLBUFFL    SET BUFFER LIST
 005456 9601 303A      0003A       39061  1                      SET   RPLOPT7.RPLLMPEO    SET LMPEO
 00545A 4120 0001            00001 39068  1                      LA    R2,1                COUNT THE BUFFERS
 00545E D603 5004 5004_00004 00004 39069  1                      WHILE (VTBNEXT,NZ),'LA R2,@R2+1; L R5,VTBNEXT'
 005474 4C20 7530            05948 39095  1                      MH    R2,=Y(L'BLENT)
 005478 5020 3030            00030 39096  1                      ST    R2,RPLRLEN
 00547C 1802                       39097  1                      LR    R0,R2
 00547E 58E0 7490/0DEE       058A8 39098  1                      VCALL GETCORE
 005484 1841                       39102  1                      LR    R4,R1               R4 := @ BUFFER LIST
 USING  ISTBLENT,R4                39103  1                      WITH  (ISTBLENT,R4)
 005486 5040 3020            00020 39116  1                      ST    R4,RPLAREA
 00548A 5040 6070            00070 39117  1                      ST    R4,VTWIBLST
 00548E 5850 6068            00068 39118  1                      L     R5,VTWIRUC
0005492 1255/4780 70A0             39120  1                      WHILE (R5,NZ),BEGIN
1VETS     (VETS2025) (12:59) (15MAR04) SENDCHAN -- Routine to SEND buffer chain to application                              Page  113
0Current Usings:  (RPL,R3) (ISTBLENT,R4) (VTBHEAD,R5) (VTWA,R6) (*,R7) (CP,R11) (CV,R12)
0Loc    Object Code    Addr1 Addr2  Stmt Lv Lineno    Source Statement           (Hibal 5, Asmedit 3.3)  HLASM R4.0  2004/03/15 12.59
+___    ______ ____    _____ _____  ____ __ ______    ______ _________
0005498 D70F 4000 4000 00000 00000 39136  2                        CLEAR BLENT
 00549E 4110 5010            00010 39143  2                        LA    R1,VTBDATA
 0054A2 5010 4008            00008 39144  2                        ST    R1,BLEAREA
 0054A6 D201 400E 500A 0000E 0000A 39145  2                        MVC   BLERLEN+2(2),VTBCOUNT
                                   39146  2           *QSNAP @R1,8
 0054AC 4140 4010            00010 39147  2                        LA    R4,BLENT+L'BLENT
 0054B0 5850 5004            00004 39148  2                        L     R5,VTBNEXT
 0054B4 47F0 707A            05492 39149  1                      END
 DROP   ISTBLENT,R4                39154                       END   ,                   END MORE THAN ONE RU
00054B8 70A4/47F0 70BC 054B8 05450 39164                       ELSE  BEGIN               ELSE ONLY ONE
 0054BC 94FD 3039      00039       39175  1                      CLEAR RPLOPT6.RPLBUFFL    CLEAR BUFFER LIST
 0054C0 94FE 303A      0003A       39183  1                      CLEAR RPLOPT7.RPLLMPEO    CLEAR LMPEO
 0054C4 4110 5010            00010 39191  1                      LA    R1,VTBDATA
 0054C8 5010 3020            00020 39192  1                      ST    R1,RPLAREA
                                   39193  1           *QSNAP @R1,8
 0054CC 4810 500A            0000A 39194  1                      LH    R1,VTBCOUNT
 0054D0 5010 3030            00030 39195  1                      ST    R1,RPLRLEN
 0054D4                            39196                       END   ,                   END ONLY ONE
00054D4 9108 6006/47E0_00006       39201                       IF    (VTWFSBBI),'SET RPLBBI'
 0054E0 70CC/47F0 70D0_054E0 054DA 39227                       ELSE  'CLEAR RPLBBI'
0                                  39251              *QSNAP 'ABOUT TO START A SEND CHAIN'
                                   39252                       AIF   ('&BRANCH' EQ 'NO').MODE5
 0054E8 4510 70D8/0000_      054F0 39253                       MODESET MODE=SUP              ********* ENTER SUPERVISOR STATE
 0054F6 5840 74D4            058EC 39260              .MODE5   L     R4,=A(SRBROUT)
                                   39261            C          SEND  RPL=(R3),OPTCD=(ASY,CA),
                                                    C                RESPOND=(EX,FME,NRRN),
                                                    C                STYPE=REQ,CONTROL=DATA,CHNGDIR=CMD,POST=SCHED,EXIT=(R4),
 0054FA 1813/91FF 1045_                                              BRANCH=&BRANCH
 005562 182F                       39324                       LR    R2,R15
 005564 4510 7154/0000_      0556C 39325                       MODESET MODE=PROB             ********* LEAVE SUPERVISOR STATE
0                                  39333              *QSNAP (R2)
 005572 1222/4770 7164_            39334                       IF    (R2,Z),'EXIT SENDCHAN'        RETURN
000557C 900F C780/4DE0_      00780 39357                       KAPUT  SENDCHAN,'SEND REFUSED'
0005594 18D8/9808 D004_            39365                       PEND
 DROP   VTBHEAD,R5
 DROP   RPL,R3
 DROP   *,R7
1VETS     (VETS2025) (12:59) (15MAR04) SENDRESP -- Routine to SEND RESPONSE to the application                              Page  114
0Current Usings:  (VTWA,R6) (CP,R11) (CV,R12)
0Loc    Object Code    Addr1 Addr2  Stmt Lv Lineno    Source Statement           (Hibal 5, Asmedit 3.3)  HLASM R4.0  2004/03/15 12.59
+___    ______ ____    _____ _____  ____ __ ______    ______ _________
0                                  39396              *
                                   39397              **  SENDRESP -- Routine to send response to the application.
                                   39398              **
                                   39399              **    On entry:
                                   39400              **      VTWFSR1, VTWFSR2, VTWSSENS, and VTWR contain parameters
                                   39401              **      for the response.
                                   39402              **
                                   39403              **    ON EXIT: Response has geen sent.
                                   39404              *
                                   39405              *
                                   39406              **    REGISTER USE FOR THIS ROUTINE:
                                   39407              **       R2 =
                                   39408              **       R3 =
                                   39409              **       R4 = @ RPL
                                   39410              **       R5 =
                                   39411              **       R6 = VTWA
                                   39412              *
-
 0055A2 50E0 D000/9008_      00000 39414              SENDRESP PROC  ,                   SEND RESPONSE
 USING  *,R7
                                   39453              *QSNAP 'ENTERED SENDRESP'
                                   39454              *QSNAP (RAR)
 0055BC 9103 6006/4780_00006       39455                       IF    (VTWFSR1+VTWFSR2),BEGIN       IF RESPONSE TO SEND
 0055C4 58F0 6078/12FF_      00078 39473  1                      IF    (('LT R15,VTWSSENS',NZ),OR,(VTWFSDR)),BEGIN
00055D6 5840 6058            00058 39504  2           RESP1        L     R4,VTWAACBP
 0055DA 5840 40AC            000AC 39505  2                        WITH  (ACB,R4),'L R4,ACBEORPL'
 USING  ACB,R4
 DROP   ACB,R4
 USING  RPL,R4                     39529  2                        WITH  (RPL,R4)            GET THE RPL
 0055DE 9500 4045/4780_00045       39542  2                        FAIL  (RPLACTIV,NZ),SENDRESP,'RESPONSE RPL NOT FREE'
00055FE 94F8 4014/D702_00014       39571  2                        CLEAR RPLNDR1+RPLDR2+RPLERI,RPLCNTRL   CLEAR THE INDICATORS
 005608 D201 4042 6074 00042 00074 39590  2                        MVC   RPLSEQNO,VTWSRSEQ
000560E 12FF/4780 7090             39592  2                        IF    (R15,NZ),BEGIN      IF EXCEPTION RESPONSE TO SEND
 005614 50F0 4064            00064 39606  3                          ST    R15,RPLSSENS
 005618 9604 4014      00014       39607  3                          SET   RPLERI
 00561C 9120 6006/47E0_00006       39613  3                          IF    (VTWFREBI),BEGIN    AND END BRACKET
 005624 9201 600B      0000B       39628  4                            SET   RSNORM
 005628 9104 6006/47E0_00006       39634  4                            IF    (VTWFSDR),'SET VSOUTB'        BRACKET TERMINATION RULE 1
 005634 707C/47F0 7090 05634 0562E 39660  4                            ELSE  BEGIN
 005638 9104 6007/47E0_00007       39671  5                              IF    (VTWFKLOK),'SET VSCONT1'  SET CONTENTION
 005644 708C/47F0 7090_05644 0563E 39697  5                              ELSE  'SET VSCONT'
 00564C                            39719  4                            END
 00564C                            39723  3                          END   ,                   END AND END BRACKET
 00564C                            39727  2                        END   ,                   END EXCEPTION RESPONSE TO SEND
000564C 9102 6006/4710_00006       39732  2                        IF    (~VTWFSR1),'SET RPLNDR1'
 005658 9101 6006/47E0_00006       39758  2                        IF    (VTWFSR2),'SET RPLDR2'
 005664 9501 600A/4770_0000A       39784  2                        IF     (VTWRUD),'SET RPLCNTDF.RPLDATA'
 005670 70B8/47F0 70C4_05670 0566A 39811  2                        ELSEIF (VTWRCAN),'SET RPLCNTDF.RPLCNCEL'
1VETS     (VETS2025) (12:59) (15MAR04) SENDRESP -- Routine to SEND RESPONSE to the application                              Page  115
0Current Usings:  (RPL,R4) (VTWA,R6) (*,R7) (CP,R11) (CV,R12)
0Loc    Object Code    Addr1 Addr2  Stmt Lv Lineno    Source Statement           (Hibal 5, Asmedit 3.3)  HLASM R4.0  2004/03/15 12.59
+___    ______ ____    _____ _____  ____ __ ______    ______ _________
0005680 70C8/47F0 70D4_05680 0567A 39847  2                        ELSEIF (VTWRLUS),'SET RPLCNTDC.RPLLUS'
 005690 70D8/47F0 70E4_05690 0568A 39883  2                        ELSEIF (VTWRBID),'SET RPLCNTDC.RPLBID'
0                                  39920  2           *QSNAP 'ABOUT TO START A SEND RESPONSE'
                                   39921  2           *QSNAP RPLSSENS,4
 0056A0 D703 6044 6044 00044 00044 39922  2                        CLEAR VTWSECB
                                   39929  2         C              SEND  RPL=(R4),
                                          2         C                    OPTCD=(ASY,CA),BRACKET=(NBB,NEB),ECB=VTWSECB,
 0056A6 1814/91FF 1045_                   2                              STYPE=RESP,BRANCH=NO
 0056FC 1B00                       39981  2                        CLEAR R0
 0056FE 4110 6044            00044 39985  2                        LA    R1,VTWSECB
 005702 58E0 7334/0DEE       058F0 39986  2                        VCALL WAITECB
0005708 1814/4100 0002_            39991  2                        CHECK RPL=(R4)
 005718 1B22                       39998  2                        CLEAR R2
 00571A 49F0 738E/47D0_      0594A 40002  2                        IF    (R15,GT,=H'4'),'LH R1,=H"28"'
 005726 716E/47F0 7186 05726 05720 40024  2                        ELSE  BEGIN
 00572A 4900 7392/4770_      0594E 40035  3                          IF    (R0,EQ,=H'24'),'LR R1,R0'
 005734 717C/47F0 7186 05734 05730 40057  3                          ELSE  BEGIN
 005738 1F11/4310 400D             40068  4                            LC    R1,RPLRTNCD         R1 := RTNCD
 00573E 4320 400E            0000E 40075  4                            IC    R2,RPLFDB2          R2 := FDBK2
 005742                            40076  3                          END
 005742                            40080  2                        END
 005742 5910 7338/47D0_      058F4 40084  2                        CEIL  R1,28
                                   40103  2           *QSNAP (R1,R2)
000574E 58F1 7198            05754 40105  2                        L     R15,RESPTBLE(R1)
 005752 07FF                       40106  2                        BR    R15                 BRANCH TO PROCESS
 005754 000057CA                   40107  2           RESPTBLE     DC    A(SREXIT)           NORMAL
 005758 000057A8                   40108  2                        DC    A(RESPERR)          ERROR SYNAD
 00575C 000055D6                   40109  2                        DC    A(RESP1)            RETRY
 005760 000057CA                   40110  2                        DC    A(SREXIT)           ERROR INTEGRETY
 005764 00005774                   40111  2                        DC    A(RESPENV)          ERROR ENVIRONMENT
 005768 000057CA                   40112  2                        DC    A(SREXIT)           ERROR LOGIC
 00576C 000057A8                   40113  2                        DC    A(RESPERR)          ERROR BAD RPL
 005770 000057CA                   40114  2                        DC    A(SREXIT)           ERROR ACB NOT OPEN
-                                         2
 005774                            40116  2           RESPENV      LABEL                     ENVIRONMENT ERROR
 005774 5920 733C/4770_      058F8 40118  2                        IF    (R2,EQ,=A(X'000A')),'ACALL ERROR10A'  VTAM FAILED
                                   40143  2         C              IF   ((R2,EQ,=A(X'0003')),OR,            VTAM HALT ISSUED
                                          2         C                    (R2,EQ,=A(X'0007')),OR,            CANCELLED BY VARY
                                          2         C                    (R2,EQ,=A(X'0009')),OR,            LOGOFF RECEIVED
 005782 5920 7344/4780_      05900        2                              (R2,EQ,=A(X'000E'))),'ACALL PATHBRKN'   VTAM ERROR
 0057A8                            40209  2           RESPERR      LABEL
 0057A8 5830 4058            00058 40211  2                        L     R3,RPLRSENS
 0057AC 58E0 7358/0DEE       05914 40212  2                        ACALL FREEVTWA
 0057B2 900F C780/4DE0_      00780 40216  2                        KAPUT SENDRESP,'UNEXPECTED VTAM RETURN CODE'
-DROP   RPL,R4                     40224  1                      END
 0057CA                            40233                       END   ,                   END RESPONSE TO SEND
1VETS     (VETS2025) (12:59) (15MAR04) SENDRESP -- Routine to SEND RESPONSE to the application                              Page  116
0Current Usings:  (VTWA,R6) (*,R7) (CP,R11) (CV,R12)
0Loc    Object Code    Addr1 Addr2  Stmt Lv Lineno    Source Statement           (Hibal 5, Asmedit 3.3)  HLASM R4.0  2004/03/15 12.59
+___    ______ ____    _____ _____  ____ __ ______    ______ _________
00057CA                            40238              SREXIT   LABEL
 0057CA 94F8 6006/D703_00006       40240                       CLEAR VTWFSR1+VTWFSR2+VTWFSDR,VTWSSENS,VTWSRSEQ
 0057DA 18D8/9808 D004_            40264                       PEND  ,                   RETURN
 DROP   *,R7
1VETS     (VETS2025) (12:59) (15MAR04) PATHBRKN -- Routine to issue Path Broaken message to user                            Page  117
0Current Usings:  (VTWA,R6) (CP,R11) (CV,R12)
0Loc    Object Code    Addr1 Addr2  Stmt Lv Lineno    Source Statement           (Hibal 5, Asmedit 3.3)  HLASM R4.0  2004/03/15 12.59
+___    ______ ____    _____ _____  ____ __ ______    ______ _________
0                                  40285              *
                                   40286              **  PATHBRKN -- Routine to issue Path Broaken message to user
                                   40287              **
                                   40288              **    On entry:
                                   40289              **      no entry parameters.
                                   40290              **
                                   40291              **    ON EXIT:
                                   40292              **       Message has been written to user
                                   40293              **       VTWA has been cleared
                                   40294              **       Control is returned to Wylbur
                                   40295              *
                                   40296              *
                                   40297              **    REGISTER USE FOR THIS ROUTINE:
                                   40298              **       R2 =
                                   40299              **       R3 =
                                   40300              **       R4 =
                                   40301              **       R5 =
                                   40302              **       R6 = VTWA
                                   40303              *
-
 0057E8 50E0 D000/9008_      00000 40305              PATHBRKN PROC  ,                   PATH BROAKEN
 USING  *,R7
                                   40344              *QSNAP 'ENTERED PATHBRKN'
 005802 94EF BC7B      00C7B       40345                       CLEAR CPFDISP
 005806 4110 71C5/4100_      059C7 40352                       TSEG  'Your VTAM path has been broaken',,CR
 005818 4110 71E4/4100_      059E6 40370                       TSEG  'Returning to Wylbur'
000582A 58E0 7112/0DEE       05914 40389                       ACALL FREEVTWA
0                                  40394              *QSNAP 'RETURN TO WYLBUR'
 005830 47F0 C7DE            007DE 40395                       B     CVNEXT              RETURN TO WYLBUR
                                   40396              ********************************************************************
                                   40397              *                 CONTROL HAS BEEN RETURNED TO WYLBUR              *
                                   40398              ********************************************************************
0005834 18D8/9808 D004_            40400                       PEND  ,                   NOT EXECUTED
 DROP   *,R7
1VETS     (VETS2025) (12:59) (15MAR04) ERROR10A -- Routine to handle 0100 000A error                                        Page  118
0Current Usings:  (VTWA,R6) (CP,R11) (CV,R12)
0Loc    Object Code    Addr1 Addr2  Stmt Lv Lineno    Source Statement           (Hibal 5, Asmedit 3.3)  HLASM R4.0  2004/03/15 12.59
+___    ______ ____    _____ _____  ____ __ ______    ______ _________
0                                  40421              *
                                   40422              **  ERROR10A -- Routine to issue Catastrophic VTAM failure message
                                   40423              **
                                   40424              **    On entry:
                                   40425              **      no entry parameters.
                                   40426              **
                                   40427              **    ON EXIT:
                                   40428              **       Message has been written to user
                                   40429              **       Session has been Frozen
                                   40430              **       VTWA has been disconnected from user
                                   40431              **       Control is returned to Wylbur
                                   40432              *
                                   40433              *
                                   40434              **    REGISTER USE FOR THIS ROUTINE:
                                   40435              **       R2 =
                                   40436              **       R3 =
                                   40437              **       R4 =
                                   40438              **       R5 =
                                   40439              **       R6 = VTWA
                                   40440              *
-
 005842 50E0 D000/9008_      00000 40442              ERROR10A PROC  ,                   CATASTROPHIC VTAM ERROR
 USING  *,R7
                                   40481              *QSNAP 'ENTERED ERROR10A'
 00585C 9608 6004      00004       40482                       SET   VTWFFREZ
 005860 94EF BC7B      00C7B       40488                       CLEAR CPFDISP
 005864 4110 70F4/4100_      05950 40495                       TSEG  'There has been a catastrophic VTAM failure',,CR
 005876 4110 718A/4100_      059E6 40513                       TSEG  'Returning to Wylbur'
0005888 58E0 70B8/0DEE       05914 40532                       ACALL FREEVTWA
0                                  40537              *QSNAP 'RETURN TO WYLBUR'
 00588E 47F0 C7DE            007DE 40538                       B     CVNEXT              RETURN TO WYLBUR
                                   40539              ********************************************************************
                                   40540              *                 CONTROL HAS BEEN RETURNED TO WYLBUR              *
                                   40541              ********************************************************************
0005892 18D8/9808 D004_            40543                       PEND  ,                   NOT EXECUTED
 DROP   *,R7
 0058A0                            40563                       LTORG
 0058A0 00168186000800F4           40565                             =X'001681860008,00F4'
 0058A8 00000000                   40566                             =V(GETCORE)
 0058AC E5E3C2C8                   40567                             =C'VTBH'
 0058B0 000059FA                   40568                             =A(CLEARSCR)
 0058B4 00006552                   40569                             =A(BUFTODIS)
 0058B8 00004892                   40570                             =A(FINDNFAC)
 0058BC 00000040                   40571                             =A(X'40')
 0058C0 0000003D                   40572                             =A(B'00111101')
 0058C4 00000010                   40573                             =A(L'VTWQLIST)
 0058C8 00000085                   40574                             =A(X'85')
 0058CC 00000086                   40575                             =A(X'86')
 0058D0 00000087                   40576                             =A(X'87')
1VETS     (VETS2025) (12:59) (15MAR04) ERROR10A -- Routine to handle 0100 000A error                                        Page  119
0Current Usings:  (VTWA,R6) (CP,R11) (CV,R12)
0Loc    Object Code    Addr1 Addr2  Stmt Lv Lineno    Source Statement           (Hibal 5, Asmedit 3.3)  HLASM R4.0  2004/03/15 12.59
+___    ______ ____    _____ _____  ____ __ ______    ______ _________
00058D4 00000088                   40577                             =A(X'88')
 0058D8 00000081                   40578                             =A(X'81')
 0058DC 000000A6                   40579                             =A(X'A6')
 0058E0 00000080                   40580                             =A(X'80')
 0058E4 00000001                   40581                             =F'1'
 0058E8 000481FF                   40582                             =X'000481FF'
 0058EC 00007DC8                   40583                             =A(SRBROUT)
 0058F0 00000000                   40584                             =V(WAITECB)
 0058F4 0000001C                   40585                             =A(28)
 0058F8 0000000A                   40586                             =A(X'000A')
 0058FC 00005842                   40587                             =A(ERROR10A)
 005900 00000003                   40588                             =A(X'0003')
 005904 00000007                   40589                             =A(X'0007')
 005908 00000009                   40590                             =A(X'0009')
 00590C 0000000E                   40591                             =A(X'000E')
 005910 000057E8                   40592                             =A(PATHBRKN)
 005914 00006A3C                   40593                             =A(FREEVTWA)
 005918 00000000                   40594                             =V(SEGCR)
 00591C 00000000                   40595                             =V(SEG)
 005920 0000000065002501           40596                             =X'00000000650025,0100F1017E0136'
 00592E F1F1F2F2F3F3F4F4           40597                             =X'F1F1,F2F2,F3F3,F4F4,F5F5,F6F6,F7F7'
 00593C 000681880001               40598                             =X'000681,880001'
 005942 001781810100               40599                             =X'00178181,0100'
 005948 0010                       40600                             =Y(L'BLENT)
 00594A 0004                       40601                             =H'4'
 00594C 001C                       40602                             =H'28'
 00594E 0018                       40603                             =H'24'
 005950 E388859985408881           40604                             =C'There has been a catastrophic VTAM failure'
 00597A 001B818582000910           40605                             =X'001B81858200,0910,0000000007'
 005987 0014818502000910           40606                             =X'001481850200,0910,0000000007'
 005994 00000000650025             40607                             =X'00000000650025'
 00599B 000D81870400F0F1           40608                             =X'000D81,8704,00F0,F1F1,F2F2,F4F4'
 0059A8 00000A02E5000200           40609                             =X'00,000A02E5,0002006F,090C'
 0059B3 001181A600000B01           40610                             =X'001181A6,0000,0B0100'
 0059BC 000B818080818586           40611                             =X'000B8180,808185868788A6'
 0059C7 E896A49940E5E3C1           40612                             =C'Your VTAM path has been broaken'
 0059E6 D985A3A499958995           40613                             =C'Returning to Wylbur'
1VETS     (VETS2025) (12:59) (15MAR04) Model Terminal Control Sequences                                                     Page  120
0Current Usings:  (VTWA,R6) (CP,R11) (CV,R12)
0Loc    Object Code    Addr1 Addr2  Stmt Lv Lineno    Source Statement           (Hibal 5, Asmedit 3.3)  HLASM R4.0  2004/03/15 12.59
+___    ______ ____    _____ _____  ____ __ ______    ______ _________
00063CD                063CD 080E2 40618                       DATA  BEGIN
                                   40623  1           ***
                                   40624  1           ***  Model terminal control sequences.
                                   40625  1           ***
                                   40626  1           $CSI       EQU   *,2,C'X'            Control sequence prefix
 0063CD 27AD4C                     40627  1           $LCSI      DC    X'27AD4C'           Local control sequence introducer
 0063D0 27AD8627ADF2D1             40628  1           $CS        DC    X'27AD8627ADF2D1'   Home & clear screen
 0063D7 27AD86                     40629  1           $CSVTAM    DC    X'27AD86'           Home cursor (and that's all!)
 0063DA 27ADD1                     40630  1           $CREM      DC    X'27ADD1'           Clear from cursor to end screen
 0063DD E9                         40631  1           $BCT       DC    C'Z'                Blank count
 0063DE 27AD4CF1C6                 40632  1           $FPROT     DC    X'27AD4CF1C6'       Protected field
 0063E3 27AD4CF15EF1F1C6           40633  1           $FPROTS    DC    X'27AD4CF15EF1F1C6' Protected skip field
 0063EB 27AD4CC6                   40634  1           $FUNPROT   DC    X'27AD4CC6'         Unprotected field
 0063EF 27AD4CC5                   40635  1           $FEND      DC    X'27AD4CC5'         End of field
 0063F3 275DF2                     40636  1           $SETRULE   DC    X'275DF2'           Set ruling alternate char set
 0063F6 0F                         40637  1           $SI        DC    X'0F'               SHIFT IN TO NORMAL CHAR SET
 0063F7 0E                         40638  1           $SO        DC    X'0E'               SHIFT OUT TO ALTERNATE CHAR SET
 0063F8 2F                         40639  1           $BEL       DC    X'2F'               Ring the Bell
                                   40640  1
 0063F9 27AD4CE6                   40641  1           $SETTAB    DC    X'27AD4CE6'         Set a tab here
 0063FD 27AD4CC9                   40642  1           $SETTRIG   DC    X'27AD4CC9'         Set a trigger point here
 006401 27AD4CC7                   40643  1           $SETTROW   DC    X'27AD4CC7'         Set a trigger row
 006405 27AD4C81                   40644  1           $SETFBLK   DC    X'27AD4C81'         Set an FBLOCK point
 006409 27AD4C82                   40645  1           $SETLBLK   DC    X'27AD4C82'         Set an LBLOCK point
 00640D 27AD4CC8                   40646  1           $SETHOME   DC    X'27AD4CC8'         Set a home point
 006411 27AD4CC1                   40647  1           $ALTHOME   DC    X'27AD4CC1'         Set an alternate home point
 006415 27AD4CE3                   40648  1           $SETTOP    DC    X'27AD4CE3'         Set top point
 006419 27AD4CC2                   40649  1           $SETBOT    DC    X'27AD4CC2'         Set bottom point
 00641D 27AD4CF5D4                 40650  1           $CLRMSG    DC    X'27AD4CF5D4'       Clear message area
 006422 27AD4CD4                   40651  1           $SETMSG    DC    X'27AD4CD4'         Set message area
                                   40652  1
 006426 27AD4CF5E6                 40653  1           $CLRTABS   DC    X'27AD4CF5E6'       Clear all tabs
 00642B 27AD4CF5C9                 40654  1           $CLRTRIG   DC    X'27AD4CF5C9'       Clear all trigger points
 006430 27AD4CF5C7                 40655  1           $CLRTROW   DC    X'27AD4CF5C7'       Clear all trigger rows
 006435 27AD4C81                   40656  1           $CLRBLK    DC    X'27AD4C81'         Clear marked block points
                                   40657  1           $CLRFMT    EQU   $CLRTABS,*-$CLRTABS,C'X'
                                   40658  1
 006439 E2                         40659  1           $SEM       DC    C'S'                Set editing mode
 00643A E5                         40660  1           $RFC       DC    C'V'                Report ending function code
 00643B C3                         40661  1           $RCP       DC    C'C'                Report ending cursor position
 00643C D9                         40662  1           $RFP       DC    C'R'                Report cursor position
                                   40663  1
 0059F9                059F9 080E2 40664                       END
1VETS     (VETS2025) (12:59) (15MAR04) CLEARSCR -- Routine to clear the screen of the ASCII Terminal                        Page  121
0Current Usings:  (VTWA,R6) (CP,R11) (CV,R12)
0Loc    Object Code    Addr1 Addr2  Stmt Lv Lineno    Source Statement           (Hibal 5, Asmedit 3.3)  HLASM R4.0  2004/03/15 12.59
+___    ______ ____    _____ _____  ____ __ ______    ______ _________
0                                  40671              *
                                   40672              **  CLEARSCR -- Routine to clear the internal screen image buffers
                                   40673              **              and TSEG CLEAR sequences to the ASCII terminal.
                                   40674              **
                                   40675              **    On entry:
                                   40676              **      VTWAR = @VTWA
                                   40677              **      R0=0  Clear external screen and internal buffers
                                   40678              **      R0~=0 Clear only external screen
                                   40679              *
00059FA 50E0 D000/9008_      00000 40681              CLEARSCR PROC  ,                   CLEAR THE SCREEN
 USING  *,R7
                                   40720              *QSNAP 'ENTERED CLEARSCR'
 005A14 94BF 6004      00004       40721                       CLEAR VTWF14B             CLEAR 14 BIT ADDRESSING
 005A18 D503 7904 6024_06318 00024 40728                       IF    (VTWBUFL,GT,=A(X'FFF')),'SET VTWF14B'
0005A26 1200/4770 704A             40757                       IF    (R0,ZERO),BEGIN     IF CLEAR INTERNAL
 005A2C D703 6090 6090 00090 00090 40771  1                      CLEAR VTWICPOS
 005A32 5840 603C            0003C 40778  1                      L     R4,VTWBUFGC
 005A36 58E0 6094            00094 40779  1                      L     R14,VTWTEXTP        GET TEXT BUFFER
 005A3A 18F4/1B11/0EE0             40780  1                      ZOT   @R14,(R4)           CLEAR BUFFER
                                   40794  1
 005A40 58E0 6098            00098 40795  1                      L     R14,VTWHIP          GET HIGHLIGHTS BUFFER
 005A44 18F4/1B11/0EE0             40796  1                      ZOT   @R14,(R4)           CLEAR BUFFER
                                   40810  1
 005A4A 58E0 609C            0009C 40811  1                      L     R14,VTWCOLP         GET COLORS BUFFER
 005A4E 18F4/1B11/0EE0             40812  1                      ZOT   @R14,(R4)           CLEAR BUFFER
                                   40826  1
 005A54 58E0 60A0            000A0 40827  1                      L     R14,VTWCSP          GET CHARACTER SET BUFFER
 005A58 18F4/1B11/0EE0             40828  1                      ZOT   @R14,(R4)           CLEAR BUFFER
                                   40842  1
 005A5E                            40843                       END   ,                   END CLEAR INTERNAL
0005A5E 9180 6004/4710_00004       40848                       IF    (~VTWFUACT),'EXIT CLEARSCR'
0                                  40872              *
                                   40873              *  Calculate real terminal screen height and width.
                                   40874              *
 005A6A 5850 B468            00468 40875                       L     R5,CPTTYPEP
 USING  TTYPE,R5                   40876                       WITH  (TTYPE,R5),BEGIN
 005A6E                            40890  1                      BEGIN ,                   HEIGHT
 005A6E 48F0 B41C/12FF       0041C 40894  2                        LTH   R15,CPSHEI          Get session default
 005A74 4770 7072            05A86 40898  2                        IF    NZ,EXIT             Got it, scram
 005A78 48F0 5008/12FF       00008 40912  2                        LTH   R15,TTYHEI          Terminal height
 005A7E 4770 7072            05A86 40916  2                        IF    NZ,EXIT             Got it, scram
 005A82 41F0 0018            00018 40930  2                        LA    R15,24              Universal default
 005A86                            40931  1                      END
 005A86 40F0 6038            00038 40935  1                      STH   R15,VTWHEIT         SAVE HEIGHT
                                   40936  1
 005A8A                            40937  1                      BEGIN ,                   WIDTH
 005A8A 48F0 B418/12FF       00418 40941  2                        LTH   R15,CPSWID          Get session default
 005A90 4770 708E            05AA2 40945  2                        IF    NZ,EXIT             Got it, scram
 005A94 48F0 500A/12FF       0000A 40959  2                        LTH   R15,TTYWID          Terminal width
 005A9A 4770 708E            05AA2 40963  2                        IF    NZ,EXIT             Got it, scram
1VETS     (VETS2025) (12:59) (15MAR04) CLEARSCR -- Routine to clear the screen of the ASCII Terminal                        Page  122
0Current Usings:  (TTYPE,R5) (VTWA,R6) (*,R7) (CP,R11) (CV,R12)
0Loc    Object Code    Addr1 Addr2  Stmt Lv Lineno    Source Statement           (Hibal 5, Asmedit 3.3)  HLASM R4.0  2004/03/15 12.59
+___    ______ ____    _____ _____  ____ __ ______    ______ _________
0005A9E 41F0 0050            00050 40977  2                        LA    R15,80              Universal default
 005AA2                            40978  1                      END
 005AA2 40F0 603A            0003A 40982  1                      STH   R15,VTWWIDT         SAVE WIDTH
0005AA6 9102 5005/47E0_00005       40984  1                      IF    (TTYFCOLOR),'SET VTWFCOLOR'   IF COLOR TERMINAL
 005AB2 70A2/47F0 70A6_05AB2 05AAC 41010  1                      ELSE  'CLEAR VTWFCOLOR'
 DROP   TTYPE,R5                   41033                       END
0005ABA D501 6020 6038_00020 00038 41042                       IF    ((VTWHEI,GT,VTWHEIT),OR,(VTWWID,GT,VTWWIDT)),BEGIN
 005ACE 58E0 7908/0DEE       0631C 41077  1                      ACALL FREEVTWA
 005AD4 94EF BC7B      00C7B       41081  1                      CLEAR CPFDISP
 005AD8 4110 790C/4100_      06320 41088  1                      ABORT 'Real terminal screen is smaller than simulated 3270.'
 005AE4                            41095                       END
0005AE4 41F0 B050/58E0_      00050 41100                       TMARK
 005AEE 9180 6007/47E0_00007       41114                       IF    (VTWF3270),'TSEG $CS'
 005B08 70F8/47F0 7176 05B08 05AF4 41162                       ELSE  BEGIN
 005B0C 4110 79B9/4100_      063CD 41173  1                      TSEG  $LCSI               RESET SCREEN IMAGE
 005B1E 4820 6020            00020 41201  1                      LH    R2,VTWHEI
 005B22 1812/1B00/41F0_            41202  1                      TNUM  (R2)
 005B30 4110 79AA/4100_      063BE 41224  1                      TSEG  ';'
 005B42 4820 6022            00022 41242  1                      LH    R2,VTWWID
 005B46 1812/1B00/41F0_            41243  1                      TNUM  (R2)
 005B54 4110 79AA/4100_      063BE 41265  1                      TSEG  ';'
 005B66 4820 603A            0003A 41283  1                      LH    R2,VTWWIDT
 005B6A 1812/1B00/41F0_            41284  1                      TNUM  (R2)
 005B78 4110 79AB/4100_      063BF 41306  1                      TSEG  'i'
 005B8A                            41324                       END
0                                  41329
                                   41330                         Do output buffer tracing.
                                   41331
 005B8A 1BFF                       41332                       CLEAR R15                 Indicate output buffer
 005B8C 5810 B070/5800_      00070 41336                       SETMSG L:CPSEGLOC,L:CPSEGLENF
 005B94 58E0 794C/0DEE       06360 41348                       VCALL VIEWTRC             Do any tracing
0                                  41353              *QSNAP 'ABOUT TO TWRITE'
 005B9A 58F0 B048            00048 41354               L R15,CPSEGBP
 005B9E 1B00/41F0 B050_            41355                       TWRITE ,                  FLUSH SEG BUFFER TO TERMINAL
                                   41380              *QSNAP (R15)
 005BAA 12FF/47D0 71A8             41381                       IF    (R15,POS),BEGIN     IF ATTN
 005BB0 947F 6004/94EF_00004       41395  1                      CLEAR VTWFUACT,CPFDISP    CLEAR USER ACTIVE
                                   41407  1           *QSNAP 'RETURN TO WYLBUR'
 005BB8 47F0 C7DE            007DE 41408  1                      B     CVNEXT              RETURN TO WYLBUR
                                   41409  1           ********************************************************************
                                   41410  1           *                 CONTROL HAS BEEN RETURNED TO WYLBUR              *
                                   41411  1           ********************************************************************
 005BBC                            41412                       END
 005BBC 18D8/9808 D004_            41416                       PEND
 DROP   *,R7
1VETS     (VETS2025) (12:59) (15MAR04) WRITESCR -- Routine to write screen to ASCII terminal                                Page  123
0Current Usings:  (VTWA,R6) (CP,R11) (CV,R12)
0Loc    Object Code    Addr1 Addr2  Stmt Lv Lineno    Source Statement           (Hibal 5, Asmedit 3.3)  HLASM R4.0  2004/03/15 12.59
+___    ______ ____    _____ _____  ____ __ ______    ______ _________
0                                  41437              *
                                   41438              **  WRITESCR -- Routine to write a 3270 buffer image to the ASCII
                                   41439              **              (model) terminal.
                                   41440              **
                                   41441              **    On entry:
                                   41442              **      VTWAR = @VTWA
                                   41443              **
                                   41444              **    On exit: R15 = 0 or points to error message.
                                   41445              *
0000000                00000 00012 41447              WRITEWA  RECORD BEGIN
 000000                            41455  1           ENDOFLIN   DS    F                   END OF CURRENT LINE
 000004                            41456  1           TRANSLAT   DS    A                   @ CURRENT TRANSLATE TABLE
 000008 00                         41457  1           WRITEF     FLAG  ,                   FLAGS
 WRITEF.CSISTART   80 ONES         41461  1                      FLAG  CSISTART
 WRITEF.PRIVATE    40 ONES         41466  1                      FLAG  PRIVATE
 WRITEF.BRIGHT     20 ONES         41471  1                      FLAG  BRIGHT
 WRITEF.SETTAB     10 ONES         41476  1                      FLAG  SETTAB
 WRITEF.HOMESET    08 ONES         41481  1                      FLAG  HOMESET
 000009                            41486  1           FLDFAC     DS    X
 00000A                            41487  1           FLDHI      DS    X
 00000B                            41488  1           FLDCOL     DS    X
 00000C                            41489  1           FLDCS      DS    X
 00000D                            41490  1           LASTHI     DS    X
 00000E                            41491  1           LASTCOL    DS    X
 00000F                            41492  1           LASTCS     DS    X
 000010                            41493  1           SOSET      DS    X
 000011                            41494  1           WSCRATCH   DS    X                   SCRATCH AREA
 000012                00012 00012 41495                       END
0                                  41505              *
                                   41506              **    REGISTER USE FOR THIS ROUTINE:
                                   41507              **       R2 = FIELD ATTRIBUTE | CHARACTER BEING PROCESSED
                                   41508              **       R3 = CHARACTER ATTRIBUTE BEING PROCESSED
                                   41509              **       R4 =
                                   41510              **       R5 = SCREEN BUFFER INDEX
                                   41511              **       R6 = VTWA
                                   41512              *
0005BCA 50E0 D000/9008_      00000 41514              WRITESCR PROC  WRITEWA             WRITE THE SCREEN TO THE TERMINAL
 USING  *,R7
 USING  WRITEWA-(4+36),R8
                                   41564              *QSNAP 'ENTERED WRITESCR'
 005BE4 D711 8028 8028_00000 00000 41565                       CLEAR WRITEWA,VTWFWSCR
 005BEE 9610 BC7B      00C7B       41577                       SET CPFDISP
 005BF2 41F0 B050/58E0_      00050 41583                       TMARK
 005BFC 4110 7842/4100_      06426 41597                       TSEG  $CLRTABS
 005C0E 5810 6024            00024 41625                       L     R1,VTWBUFL
 005C12 58E0 7784/0DEE       06368 41626                       ACALL FINDPFAC
 005C18 4780 703E/D703_      05C22 41630                       IF    (NZ),'CLEAR (FLDFAC,4)'       IF NO FAC IN BUFFER
0005C22 7042/47F0 70BC 05C22 05C1A 41654                       ELSE  BEGIN                         ELSE FAC IN BUFFER
 005C26 1851                       41665  1                      LR    R5,R1
 005C28 D202 8035 77DC 0000D 063C0 41666  1                      MVC    LASTHI(3),=X'FFFFFF' FORCE HIGHLIGHT CHANGE
1VETS     (VETS2025) (12:59) (15MAR04) WRITESCR -- Routine to write screen to ASCII terminal                                Page  124
0Current Usings:  (VTWA,R6) (*,R7) (WRITEWA-(4+36),R8) (CP,R11) (CV,R12)
0Loc    Object Code    Addr1 Addr2  Stmt Lv Lineno    Source Statement           (Hibal 5, Asmedit 3.3)  HLASM R4.0  2004/03/15 12.59
+___    ______ ____    _____ _____  ____ __ ______    ______ _________
0                                  41667  1           *                                  SAVE THE FIELD ATTRIBUTES
 005C2E 5810 6094            00094 41668  1                      L     R1,VTWTEXTP                   ACCESS THE FAC
 005C32 1F22/4325 1000             41669  1                      LC    R2,@R1(R5)
 005C38 4220 8031            00009 41676  1                      STC   R2,FLDFAC
 005C3C 4110 000C            0000C 41677  1                      LA    R1,X'0C'
 005C40 1412                       41678  1                      NR    R1,R2
 005C42 4780 706A/5910_      05C4E 41679  1                      IF    ((Z),OR,(R1,EQ,X'04')),BEGIN  IF  NORMAL
 005C4E 94DF 8030      00008       41706  2                        CLEAR BRIGHT
 005C52 94BF 8030      00008       41713  2                        CLEAR PRIVATE
 005C56                            41720  1                      END   ,                             END NORMAL
0005C56 7076/47F0 7086_05C56 05C4C 41725  1                      ELSEIF (R1,EQ,X'08'),BEGIN          IF BRIGHT
 005C62 9620 8030      00008       41751  2                        SET BRIGHT
 005C66 94BF 8030      00008       41757  2                        CLEAR PRIVATE
 005C6A                            41764  1                      END   ,                             END BRIGHT
0005C6A 708A/47F0 7092 05C6A 05C60 41769  1                      ELSE  BEGIN                         ELSE PRIVATE
 005C6E 94DF 8030      00008       41780  2                        CLEAR BRIGHT
 005C72 9640 8030      00008       41787  2                        SET PRIVATE
 005C76                            41793  1                      END   ,                             END PRIVATE
0005C76 5810 6098            00098 41798  1                      L     R1,VTWHIP           ACCESS THE HIGHLIGHT
 005C7A 1F33/4335 1000             41799  1                      LC    R3,@R1(R5)
 005C80 4230 8032            0000A 41806  1                      STC   R3,FLDHI            SAVE THE FIELD HIGHLIGHT
0005C84 5810 609C            0009C 41808  1                      L     R1,VTWCOLP          ACCESS THE COLOR
 005C88 1F33/4335 1000             41809  1                      LC    R3,@R1(R5)
 005C8E 4230 8033            0000B 41816  1                      STC   R3,FLDCOL           SAVE THE FIELD COLOR
0005C92 5810 60A0            000A0 41818  1                      L     R1,VTWCSP           ACCESS THE CHARACTER SET
 005C96 1F33/4335 1000             41819  1                      LC    R3,@R1(R5)
 005C9C 4230 8034            0000C 41826  1                      STC   R3,FLDCS            SAVE THE CHARACTER SET
0005CA0                            41828                       END   ,                   END FAC IN BUFFER
1VETS     (VETS2025) (12:59) (15MAR04) WRITESCR -- Routine to write screen to ASCII terminal                                Page  125
0Current Usings:  (VTWA,R6) (*,R7) (WRITEWA-(4+36),R8) (CP,R11) (CV,R12)
0Loc    Object Code    Addr1 Addr2  Stmt Lv Lineno    Source Statement           (Hibal 5, Asmedit 3.3)  HLASM R4.0  2004/03/15 12.59
+___    ______ ____    _____ _____  ____ __ ______    ______ _________
0005CA0 1B55                       41833                       CLEAR R5                  R5 = BUFFER INDEX
 005CA2 5950 6024/47B0_      00024 41837                       WHILE (R5,LT,VTWBUFL),BEGIN         BUFFER LOOP
 005CAA 1815                       41856  1                      LR    R1,R5
 005CAC 4DE0 76A8            0628C 41857  1                      LCALL SEGCURS                       POSITION CURSOR
 005CB0 1825                       41859  1                      LR    R2,R5
 005CB2 4A20 6022            00022 41860  1                      AH    R2,VTWWID
 005CB6 5020 8028            00000 41861  1                      ST    R2,ENDOFLIN
0005CBA 5950 8028/47B0_      00000 41863  1                      WHILE (R5,LT,ENDOFLIN),BEGIN        LINE LOOP
 005CC2 5810 6094            00094 41882  2                        L     R1,VTWTEXTP                   ACCESS THE CHARACTER
 005CC6 1F22/4325 1000             41883  2                        LC    R2,@R1(R5)
0005CCC 1222/4780 72F2_            41891  2                        IF    ((R2,NZ),AND,(R2,LT,X'40')),BEGIN       FIELD ATTRIBUTE
 005CDA 41F0 B050/58E0_      00050 41921  3                          TMARK
 005CE4 9180 6007/4710_00007       41935  3                          IF    (~VTWF3270),BEGIN             IF FAC NOT OCCUPIES SPACE
 005CEC 9120 8031/4770_00009       41950  4                            IF    ('TM FLDFAC,X"20"',OFF),'TSEG  $FPROT'  PROTECT THE FAC
 005D06                            41996  3                          END   ,                             END FAC NOT OCCUPIES SPACE
0005D06 4110 77E9/4100_      063CD 42001  3                          TSEG  $CSI
                                   42029  3           *                                  WRITE THE FAC SPACE
 005D18 4110 77B8/4100_      0639C 42030  3                          TSEG  'm '                RESET HIGHLIGHT, OUTPUT BLANK
 005D2A D201 8035 77BA 0000D 0639E 42048  3                          MVC    LASTHI(2),=X'FFFF' FORCE HIGHLIGHT CHANGE
0                                  42050  3           *                                  SAVE THE FIELD ATTRIBUTES
 005D30 4220 8031            00009 42051  3                          STC   R2,FLDFAC
 005D34 4110 000C            0000C 42052  3                          LA    R1,X'0C'
 005D38 1412                       42053  3                          NR    R1,R2
 005D3A 4780 7162/5910_      05D46 42054  3                          IF    ((Z),OR,(R1,EQ,X'04')),BEGIN  IF  NORMAL
 005D46 94DF 8030      00008       42081  4                            CLEAR BRIGHT
 005D4A 94BF 8030      00008       42088  4                            CLEAR PRIVATE
 005D4E                            42095  3                          END   ,                             END NORMAL
0005D4E 716E/47F0 71AA_05D4E 05D44 42100  3                          ELSEIF (R1,EQ,X'08'),BEGIN          IF BRIGHT
 005D5A 9620 8030      00008       42126  4                            SET BRIGHT
 005D5E 94BF 8030      00008       42132  4                            CLEAR PRIVATE
 005D62 9180 6007/47E0_00007       42139  4                            IF    (VTWF3270),'TSEG $CSI; TSEG "1m"'
 005D8E                            42205  3                          END   ,                             END BRIGHT
0005D8E 71AE/47F0 71E2 05D8E 05D58 42210  3                          ELSE  BEGIN                         ELSE PRIVATE
 005D92 94DF 8030      00008       42221  4                            CLEAR BRIGHT
 005D96 9640 8030      00008       42228  4                            SET PRIVATE
 005D9A 9180 6007/47E0_00007       42234  4                            IF    (VTWF3270),'TSEG $CSI; TSEG "8m"'
 005DC6                            42300  3                          END   ,                             END PRIVATE
0005DC6 5810 6098            00098 42305  3                          L     R1,VTWHIP           ACCESS THE HIGHLIGHT
 005DCA 1F33/4335 1000             42306  3                          LC    R3,@R1(R5)
 005DD0 4230 8032            0000A 42313  3                          STC   R3,FLDHI            SAVE THE FIELD HIGHLIGHT
0005DD4 5810 609C            0009C 42315  3                          L     R1,VTWCOLP          ACCESS THE COLOR
 005DD8 1F33/4335 1000             42316  3                          LC    R3,@R1(R5)
 005DDE 4230 8033            0000B 42323  3                          STC   R3,FLDCOL           SAVE THE FIELD COLOR
0005DE2 5810 60A0            000A0 42325  3                          L     R1,VTWCSP           ACCESS THE CHARACTER SET
 005DE6 1F33/4335 1000             42326  3                          LC    R3,@R1(R5)
1VETS     (VETS2025) (12:59) (15MAR04) WRITESCR -- Routine to write screen to ASCII terminal                                Page  126
0Current Usings:  (VTWA,R6) (*,R7) (WRITEWA-(4+36),R8) (CP,R11) (CV,R12)
0Loc    Object Code    Addr1 Addr2  Stmt Lv Lineno    Source Statement           (Hibal 5, Asmedit 3.3)  HLASM R4.0  2004/03/15 12.59
+___    ______ ____    _____ _____  ____ __ ______    ______ _________
0005DEC 4430 785A/00/9_      0643E 42333  3                          EX    R3,'CLI FLDCS,0'
 005DF0 4780 7220            05E04 42349  3                          IF    (NE),BEGIN          IF CHARACTER SET CHANGE
 005DF4 4230 8034            0000C 42360  4                            STC   R3,FLDCS            SAVE THE CHARACTER SET
 005DF8 9500 8037/4770_0000F       42361  4                            IF    (LASTCS,ZERO),'MVI LASTCS,X"FF"'
 005E04                            42383  3                          END   ,                   END CHARACTER SET CHANGE
0005E04 4110 77E9/4100_      063CD 42388  3                          TSEG  $LCSI               START THE FIELD
 005E16 4110 0020            00020 42416  3                          LA    R1,X'20'
 005E1A 1412                       42417  3                          NR    R1,R2               R2 = FIELD FAC
 005E1C 4780 726E            05E52 42418  3                          IF    (NZ),BEGIN          IF PROTECTED
 005E20 4110 77DF/4100_      063C3 42429  4                            TSEG  '1'
 005E32 94EF 8030      00008       42447  4                            CLEAR SETTAB
 005E36 4110 7794            06378 42454  4                            LA    R1,=A(X'10')
 005E3A 1412                       42455  4                            NR    R1,R2
 005E3C 4780 726E/4110_      05E52 42456  4                            IF    (NZ),'TSEG ";12"'   IF AUTO SKIP
 005E52                            42490  3                          END   ,                   END PROTECTED
0005E52 7272/47F0 72A8 05E52 05E1E 42495  3                          ELSE  BEGIN               ELSE UNPROTECTED
 005E56 9610 8030      00008       42506  4                            SET   SETTAB
 005E5A 4110 0010            00010 42512  4                            LA    R1,X'10'
 005E5E 1412                       42513  4                            NR    R1,R2
 005E60 4780 7292/4110_      05E76 42514  4                            IF    (NZ),'TSEG "3"'     IF NUMERIC
 005E76 7296/47F0 72A8_05E76 05E62 42548  4                            ELSE  'TSEG "2"'          ELSE ACCEPT ALL
 005E8C                            42582  3                          END   ,                   END UNPROTECTED
0005E8C 4110 77E5/4100_      063C9 42587  3                          TSEG  'F'                 START FIELD FINAL
 005E9E 9110 8030/47E0_00008       42605  3                          IF    (SETTAB),BEGIN      IF UNPROTECTED
 005EA6 4110 7815/4100_      063F9 42620  4                            TSEG  $SETTAB
 005EB8 9108 8030/4710_00008       42648  4                            IF    (~HOMESET),BEGIN    IF HOME HAS NOT BEEN SET
 005EC0 9608 8030      00008       42663  5                              SET   HOMESET
 005EC4 4110 7829/4100_      0640D 42669  5                              TSEG  $SETHOME
 005ED6                            42697  4                            END   ,                   END HOME HAS NOT BEEN SET
 005ED6                            42701  3                          END   ,                   END UNPROTECTED
 005ED6                            42705  2                        END   ,                                   END FIELD ATTRUBUTE
-005ED6 72F6/72F6/47F0_05ED6 05CD0 42710  2                        ELSE  BEGIN                            ELSE DISPLAY CHARACTER
 005EDA 947F 8030      00008       42723  3                          CLEAR CSISTART
 005EDE 5810 6098            00098 42730  3                          L     R1,VTWHIP           ACCESS THE HIGHLIGHT
 005EE2 1F33/4335 1000             42731  3                          LC    R3,@R1(R5)
 005EE8 4430 785E/9500_      06442 42738  3                          EX    R3,'CLI LASTHI,0'
 005EEC 4780 73EC            05FD0 42754  3                          IF    NE,BEGIN            IF HIGHLIGHT CHANGE
 005EF0 41F0 B050/58E0_      00050 42765  4                            TMARK
 005EFA 4230 8035            0000D 42779  4                            STC   R3,LASTHI
 005EFE 1233/4770 7324_            42780  4                            IF    (R3,ZERO),'IC R3,FLDHI'  IF FIELD INHERIT
0005F08 9120 8030/47E0_00008       42801  4                            IF    (BRIGHT),'TSEG $CSI; TSEG "1"' BRIGHT
 005F34 7354/47F0 7378_05F34 05F0E 42867  4                            ELSE  'TSEG $CSI; TSEG "0"'          NORMAL
 005F5C 9680 8030      00008       42929  4                            SET   CSISTART
0005F60 5930 7798/4770_      0637C 42936  4                            IF     (R3,EQ,X'F1'),'TSEG ";5"'     BLINK
 005F7A 739A/47F0 73B4_05F7A 05F66 42976  4                            ELSEIF (R3,EQ,X'F2'),'TSEG ";7"'     REVERSE VIDEO
 005F98 73B8/47F0 73D2_05F98 05F84 43025  4                            ELSEIF (R3,EQ,X'F4'),'TSEG ";4"'     UNDERSCORE
1VETS     (VETS2025) (12:59) (15MAR04) WRITESCR -- Routine to write screen to ASCII terminal                                Page  127
0Current Usings:  (VTWA,R6) (*,R7) (WRITEWA-(4+36),R8) (CP,R11) (CV,R12)
0Loc    Object Code    Addr1 Addr2  Stmt Lv Lineno    Source Statement           (Hibal 5, Asmedit 3.3)  HLASM R4.0  2004/03/15 12.59
+___    ______ ____    _____ _____  ____ __ ______    ______ _________
0005FB6 9140 8030/47E0_00008       43075  4                            IF    (PRIVATE),'TSEG ";8"'          IF BLANKED
0005FD0                            43114  3                          END   ,                   END HIGHLIGHT CHANGE
0005FD0 5810 609C            0009C 43119  3                          L     R1,VTWCOLP          ACCESS THE COLOR
 005FD4 1F33/4335 1000             43120  3                          LC    R3,@R1(R5)
 005FDA 4430 7862/9500_      06446 43127  3                          EX    R3,'CLI LASTCOL,0'
 005FDE 4780 7534            06118 43143  3                          IF    NE,BEGIN            IF COLOR CHANGE
 005FE2 4230 8036            0000E 43154  4                            STC   R3,LASTCOL
 005FE6 1233/4770 740C_            43155  4                            IF    (R3,ZERO),'IC R3,FLDCOL' IF FIELD INHERIT
0005FF0 9180 8030/4710_00008       43176  4                            IF    (~CSISTART),'TMARK; TSEG $CSI; SET CSISTART'
 006018 7438/47F0 744A_06018 05FF6 43244  4                            ELSE  'TSEG ";"'
000602E 1233/4770 7462_            43279  4                            IF     (R3,ZERO),'TSEG "38"'         DEFAULT
 006046 7466/47F0 7480_06046 06032 43316  4                            ELSEIF (R3,EQ,X'F1'),'TSEG "34"'     BLUE
 006064 7484/47F0 749E_06064 06050 43365  4                            ELSEIF (R3,EQ,X'F2'),'TSEG "31"'     RED
 006082 74A2/47F0 74BC_06082 0606E 43414  4                            ELSEIF (R3,EQ,X'F3'),'TSEG "35"'     PINK
 0060A0 74C0/47F0 74DA_060A0 0608C 43463  4                            ELSEIF (R3,EQ,X'F4'),'TSEG "32"'     GREEN
 0060BE 74DE/47F0 74F8_060BE 060AA 43512  4                            ELSEIF (R3,EQ,X'F5'),'TSEG "36"'     TURQUOISE
 0060DC 74FC/47F0 7516_060DC 060C8 43561  4                            ELSEIF (R3,EQ,X'F6'),'TSEG "33"'     YELLOW
 0060FA 751A/47F0 7534_060FA 060E6 43610  4                            ELSEIF (R3,EQ,X'F7'),'TSEG "37"'     WHITE
0006118                            43660  3                          END   ,                   END COLOR CHANGE
0006118 9180 8030/47E0_00008       43665  3                          IF    (CSISTART),'TSEG "m"'          SEG SGR FINAL
0006132 5810 60A0            000A0 43704  3                          L     R1,VTWCSP           ACCESS THE CHARACTER SET
 006136 1F33/4335 1000             43705  3                          LC    R3,@R1(R5)
 00613C 4430 7866/9500_      0644A 43712  3                          EX    R3,'CLI LASTCS,0'
 006140 4780 75FC            061E0 43728  3                          IF    NE,BEGIN            IF CHARACTER SET CHANGE
 006144 41F0 B050/58E0_      00050 43739  4                            TMARK
 00614E 4230 8037            0000F 43753  4                            STC   R3,LASTCS
 006152 D703 802C 802C 00004 00004 43754  4                            CLEAR TRANSLAT
 006158 1233/4770 757E_            43761  4                            IF    (R3,ZERO),'IC R3,FLDCS' IF FIELD INHERIT
0006162 1233/4770 7596_            43782  4                            IF    (R3,ZERO),'TSEG $SI'          DEFAULT
 00617A 759A/47F0 75FC 0617A 06166 43829  4                            ELSE   BEGIN                        ELSE SHIFT-OUT SET
 00617E 4430 786A/9500_      0644E 43840  5                              EX    R3,'CLI SOSET,0'
 006182 4780 75DC            061C0 43856  5                              IF    (NE),BEGIN
 006186 4230 8038            00010 43867  6                                STC   R3,SOSET
 00618A 1843                       43868  6                                LR    R4,R3
 00618C 5930 7798/4770_      0637C 43869  6                                IF    (R3,EQ,X'F1'),'LA R4,X"F2"'   IF IBM APL/TEXT:
 006198 4110 77D8/4100_      063BC 43892  6                                TSEG  =X'275D',2                    SET SO CHARACTER SET
 0061AA 4240 8039            00011 43922  6                                STC   R4,WSCRATCH
 0061AE 4110 8039/4100_      00011 43923  6                                TSEG  WSCRATCH,1
 0061C0                            43953  5                              END
 0061C0 5930 7798/4770_      0637C 43957  5                              IF    (R3,EQ,X'F1'),'MVC TRANSLAT,=A(APLTEXT)'
 0061CE 4110 7813/4100_      063F7 43980  5                              TSEG  $SO
 0061E0                            44008  4                            END   ,                             END SHIFT-OUT SET
 0061E0                            44012  3                          END   ,                   END CHARACTER SET CHANGE
0                                  44017  3           *                                  NOW OUTPUT THE CHARACTER
                                   44018  3           *                                  R2 = THE CHARACTER
1VETS     (VETS2025) (12:59) (15MAR04) WRITESCR -- Routine to write screen to ASCII terminal                                Page  128
0Current Usings:  (VTWA,R6) (*,R7) (WRITEWA-(4+36),R8) (CP,R11) (CV,R12)
0Loc    Object Code    Addr1 Addr2  Stmt Lv Lineno    Source Statement           (Hibal 5, Asmedit 3.3)  HLASM R4.0  2004/03/15 12.59
+___    ______ ____    _____ _____  ____ __ ______    ______ _________
00061E0 1222/4770 7606_            44019  3                          IF    (R2,ZERO),'LA R2,X"40"' CHANGE NULL TO BLANK
 0061EA 58F0 802C            00004 44039  3                          L     R15,TRANSLAT
 0061EE 12FF/4780 7614_            44040  3                          IF    (R15,NZ),'IC R2,@R15(R2)' IF NEED TO TRANSLATE
 0061F8 4220 8039            00011 44060  3                          STC   R2,WSCRATCH
 0061FC 4110 8039/4100_      00011 44061  3                          TSEG  WSCRATCH,1
 00620E                            44091  2                        END   ,                   END DISPLAY CHARACTER
000620E 4150 5001            00001 44096  2                        LA    R5,@R5+1            STEP INDEX
 006212 47F0 70D6            05CBA 44097  1                      END   ,                   END OF LINE LOOP
0006216 47F0 70BE            05CA2 44103                       END   ,                   END OF BUFFER LOOP
000621A 41F0 B050/58E0_      00050 44109                       TMARK
 006224 9108 6007/47E0_00007       44123                       IF    (VTWFBEL),'TSEG $BEL; CLEAR VTWFBEL'
 006242 5810 6090            00090 44178                       L     R1,VTWICPOS         INSERT CURSOR
 006246 4DE0 76A8            0628C 44179                       LCALL SEGCURS
0                                  44182
                                   44183                         Do output buffer tracing.
                                   44184
 00624A 1BFF                       44185                       CLEAR R15                 Indicate output buffer
 00624C 5810 B070/5800_      00070 44189                       SETMSG L:CPSEGLOC,L:CPSEGLENF
 006254 58E0 777C/0DEE       06360 44201                       VCALL VIEWTRC             Do any tracing
0                                  44206              *QSNAP 'ABOUT TO TWRITE'
 00625A 58F0 B048            00048 44207               L R15,CPSEGBP
 00625E 1B00/41F0 B050_            44208                       TWRITE ,                  FLUSH SEG BUFFER TO TERMINAL
                                   44233              *QSNAP (R15)
 00626A 12FF/47D0 7698             44234                       IF    (R15,POS),BEGIN     IF ATTN
 006270 947F 6004/94EF_00004       44248  1                      CLEAR VTWFUACT,CPFDISP    CLEAR USER ACTIVE
                                   44260  1           *QSNAP 'RETURN TO WYLBUR'
 006278 47F0 C7DE            007DE 44261  1                      B     CVNEXT              RETURN TO WYLBUR
                                   44262  1           ********************************************************************
                                   44263  1           *                 CONTROL HAS BEEN RETURNED TO WYLBUR              *
                                   44264  1           ********************************************************************
 00627C                            44265                       END
000627C 1BFF                       44270                       CLEAR R15
 00627E 18D8/9808 D004_            44274                       PEND
 DROP   WRITEWA-(4+36),R8
 DROP   *,R7
1VETS     (VETS2025) (12:59) (15MAR04) SEGCURS -- Routine to seg cursor addressing characters                               Page  129
0Current Usings:  (VTWA,R6) (CP,R11) (CV,R12)
0Loc    Object Code    Addr1 Addr2  Stmt Lv Lineno    Source Statement           (Hibal 5, Asmedit 3.3)  HLASM R4.0  2004/03/15 12.59
+___    ______ ____    _____ _____  ____ __ ______    ______ _________
0                                  44300              *
                                   44301              **  SEGCURS -- Routine to seg cursor addressing characters.
                                   44302              **
                                   44303              **    On entry:
                                   44304              **      R1 - BUFFER OFFSET RELATIVE TO ZERO
                                   44305              **
                                   44306              **  Note: Row and columns are relative to one (not zero).
                                   44307              *
000628C 50E0 D000/9008_      00000 44309              SEGCURS  PROC  ,                   SEG CURSOR POS TO TERMINAL
 USING  *,R7
 0062A6 1851                       44348                       LR    R5,R1               SAVE POSITION
 0062A8 1B44                       44349                       CLEAR R4
                                   44353
 0062AA 4820 6022            00022 44354                       LH    R2,VTWWID           DIVIDE BY WIDTH OF 3270
 0062AE 1D42                       44355                       DR    R4,R2
 0062B0 4140 4001            00001 44356                       LA    R4,@R4+1            R4 = COLLUMN
 0062B4 4150 5001            00001 44357                       LA    R5,@R5+1            R5 = ROW
                                   44358
 0062B8 4110 7127/4100_      063CD 44359                       TSEG  $CSI                Start of sequence
 0062CA 1815/1B00/41F0_            44387                       TNUM  (R5)                ROW (HORIZONTAL)
 0062D8 4110 7118/4100_      063BE 44409                       TSEG  ';'
 0062EA 1814/1B00/41F0_            44427                       TNUM  (R4)                COLUMN (VERTICAL)
 0062F8 4110 7126/4100_      063CC 44449                       TSEG  'f'                 Position cursor verb
 00630A 18D8/9808 D004_            44467                       PEND
 DROP   *,R7
                                   44487
 006318                            44488                       LTORG
 006318 00000FFF                   44490                             =A(X'FFF')
 00631C 00006A3C                   44491                             =A(FREEVTWA)
 006320 D985819340A38599           44492                             =C'Real terminal screen is smaller than simulated 3270.'
 006354 00000000                   44493                             =V(SEGMARK)
 006358 00000000                   44494                             =V(SEG)
 00635C 00000000                   44495                             =V(SEGDC)
 006360 00000000                   44496                             =V(VIEWTRC)
 006364 00000000                   44497                             =V(SEGWR)
 006368 000048F6                   44498                             =A(FINDPFAC)
 00636C 00000004                   44499                             =A(X'04')
 006370 00000008                   44500                             =A(X'08')
 006374 00000040                   44501                             =A(X'40')
 006378 00000010                   44502                             =A(X'10')
 00637C 000000F1                   44503                             =A(X'F1')
 006380 000000F2                   44504                             =A(X'F2')
 006384 000000F4                   44505                             =A(X'F4')
 006388 000000F3                   44506                             =A(X'F3')
 00638C 000000F5                   44507                             =A(X'F5')
 006390 000000F6                   44508                             =A(X'F6')
 006394 000000F7                   44509                             =A(X'F7')
 006398 00006452                   44510                             =A(APLTEXT)
 00639C 9440                       44511                             =C'm '
 00639E FFFF                       44512                             =X'FFFF'
 0063A0 F194                       44513                             =C'1m'
 0063A2 F894                       44514                             =C'8m'
 0063A4 5EF5                       44515                             =C';5'
1VETS     (VETS2025) (12:59) (15MAR04) SEGCURS -- Routine to seg cursor addressing characters                               Page  130
0Current Usings:  (VTWA,R6) (CP,R11) (CV,R12)
0Loc    Object Code    Addr1 Addr2  Stmt Lv Lineno    Source Statement           (Hibal 5, Asmedit 3.3)  HLASM R4.0  2004/03/15 12.59
+___    ______ ____    _____ _____  ____ __ ______    ______ _________
00063A6 5EF7                       44516                             =C';7'
 0063A8 5EF4                       44517                             =C';4'
 0063AA 5EF8                       44518                             =C';8'
 0063AC F3F8                       44519                             =C'38'
 0063AE F3F4                       44520                             =C'34'
 0063B0 F3F1                       44521                             =C'31'
 0063B2 F3F5                       44522                             =C'35'
 0063B4 F3F2                       44523                             =C'32'
 0063B6 F3F6                       44524                             =C'36'
 0063B8 F3F3                       44525                             =C'33'
 0063BA F3F7                       44526                             =C'37'
 0063BC 275D                       44527                             =X'275D'
 0063BE 5E                         44528                             =C';'
 0063BF 89                         44529                             =C'i'
 0063C0 FFFFFF                     44530                             =X'FFFFFF'
 0063C3 F1                         44531                             =C'1'
 0063C4 5EF1F2                     44532                             =C';12'
 0063C7 F3                         44533                             =C'3'
 0063C8 F2                         44534                             =C'2'
 0063C9 C6                         44535                             =C'F'
 0063CA F0                         44536                             =C'0'
 0063CB 94                         44537                             =C'm'
 0063CC 86                         44538                             =C'f'
1VETS     (VETS2025) (12:59) (15MAR04) WRITESCR -- Translation Tables                                                       Page  131
0Current Usings:  (VTWA,R6) (CP,R11) (CV,R12)
0Loc    Object Code    Addr1 Addr2  Stmt Lv Lineno    Source Statement           (Hibal 5, Asmedit 3.3)  HLASM R4.0  2004/03/15 12.59
+___    ______ ____    _____ _____  ____ __ ______    ______ _________
0
-                                  44544              *
                                   44545              *
                                   44546              * This is the table for the IBM "F1" APL/TEXT II character set
                                   44547              * (Translation is to the Stanford "F2" Ruling character set
                                   44548              *
-
 006452                            44550              APLTEXT  DS        0XL256
                                   44551              *                     0 1 2 3 4 5 6 7 8 9 A B C D E F
 006452 0040404040404040           44552                       DC        X'00404040404040404040404040404040'      00
 006462 4040404040404040           44553                       DC        X'40404040404040404040404040404040'      10
 006472 4040404040404040           44554                       DC        X'40404040404040404040404040404040'      20
 006482 4040404040404040           44555                       DC        X'40404040404040404040404040404040'      30
 006492 40C1C2C3C4C5C6C7           44556                       DC        X'40C1C2C3C4C5C6C7C8C9404040404040'      40
 0064A2 40D1D2D3D4D5D6D7           44557                       DC        X'40D1D2D3D4D5D6D7D8D9404040404040'      50
 0064B2 4040E2E3E4E5E6E7           44558                       DC        X'4040E2E3E4E5E6E7E8E9404040404040'      60
 0064C2 4040404040404040           44559                       DC        X'40404040404040404040404040404040'      70
 0064D2 406D887A7BA74040           44560                       DC        X'406D887A7BA740404040616FA893946E'      80
 0064E2 407C6C97997E4040           44561                       DC        X'407C6C97997E40404040404079408760'      90
 0064F2 9886985F40404040           44562                       DC        X'9886985F4040404040404040A5ADA95F'      A0
 006502 4040404040404040           44563                       DC        X'404040404040404040404040A6BD4FA7'      B0
 006512 404040799493A3A5           44564                       DC        X'404040799493A3A5D0404040405F405F'      C0
 006522 404040959192A4A6           44565                       DC        X'404040959192A4A6C040404040404040'      D0
 006532 40F1F2F340404040           44566                       DC        X'40F1F2F34040404040404040405F405F'      E0
 006542 F0F1F2F3F4F5F6F7           44567                       DC        X'F0F1F2F3F4F5F6F7F8F94040405F5F40'      F0
                                   44568              *                     0 1 2 3 4 5 6 7 8 9 A B C D E F
                                   44569              *
1VETS     (VETS2025) (12:59) (15MAR04) BUFTODIS-- Translate buffer address to display bytes                                 Page  132
0Current Usings:  (VTWA,R6) (CP,R11) (CV,R12)
0Loc    Object Code    Addr1 Addr2  Stmt Lv Lineno    Source Statement           (Hibal 5, Asmedit 3.3)  HLASM R4.0  2004/03/15 12.59
+___    ______ ____    _____ _____  ____ __ ______    ______ _________
0                                  44571              *
                                   44572              **  BUFTODIS -- Routine to translate binary buffer address
                                   44573              **              to 3270 display characters
                                   44574              **
                                   44575              **    On entry:
                                   44576              **      R1 - Buffer Offset Relative To ZERO
                                   44577              **
                                   44578              **    On exit:
                                   44579              **      R1 - 3270 characters in 2 low order positions
                                   44580              *
0006552 50E0 D000/9008_      00000 44582              BUFTODIS PROC  ,                   TRANSLATE BUFFER BINARY TO DISPLAY
 USING  *,R7
 00656C 5510 766C            06BD8 44621                       CL    R1,=A(X'3FFF')
 006570 47D0 7020/900F_      0658C 44622                       FAIL  (GT),BUFTODIS,'BUFFER ADDRESS > 14-BIT'
 00658C 9140 6004/4710_00004       44645                       IF    ((VTWF14B),OR,(R1,GT,=A(X'FFF'))),'SET VTWF14B'
                                   44686              *                           14-BIT VALUE IS ALREADY PROPERLY FOREMATTED
00065A0 7038/47F0 7058 065A0 0659A 44688                       ELSE  BEGIN                         DO 12-BIT
 0065A4 4150 003F            0003F 44699  1                      LA    R5,X'3F'               LOAD LOW ORDER 6 BITS
 0065A8 1451                       44700  1                      NR    R5,R1
 0065AA 4140 0FC0            00FC0 44701  1                      LA    R4,X'FC0'              LOAD HI ORDER 6 BITS
 0065AE 1441                       44702  1                      NR    R4,R1
 0065B0 8840 0006            00006 44703  1                      SRL   R4,6
 0065B4 4355 706C            065D8 44704  1                      IC    R5,DCHARTAB(R5)     LOOKUP CHARACTER
 0065B8 4344 706C            065D8 44705  1                      IC    R4,DCHARTAB(R4)
 0065BC 1815                       44706  1                      LR    R1,R5               FORM RESULT
 0065BE 8940 0008            00008 44707  1                      SLL   R4,8
 0065C2 1614                       44708  1                      OR    R1,R4
 0065C4                            44709                       END   ,                             END DO 12-BIT
00065C4 1BFF                       44714                       CLEAR R15
 0065C6 5018 0008            00008 44718                       PRETURN R1
 0065CA 18D8/9808 D004_            44720                       PEND
 DROP   *,R7
00065D8                            44741              DCHARTAB OTR3270                   DISPLAY CHARACTER TABLE
                                   44747+            +
                                   44748+            +                   0 1 2 3 4 5 6 7 8 9 A B C D E F
                                   44749+            +
 0065D8 40C1C2C3C4C5C6C7_          44750    01-OTR32 +         DC   X'40C1C2C3C4C5C6C7C8C94A4B4C4D4E4F'    0
1VETS     (VETS2025) (12:59) (15MAR04) DISTOBUF-- Translate display bytes to buffer address                                 Page  133
0Current Usings:  (VTWA,R6) (CP,R11) (CV,R12)
0Loc    Object Code    Addr1 Addr2  Stmt Lv Lineno    Source Statement           (Hibal 5, Asmedit 3.3)  HLASM R4.0  2004/03/15 12.59
+___    ______ ____    _____ _____  ____ __ ______    ______ _________
0                                  44760              *
                                   44761              **  DISTOBUF -- Routine to translate 3270 display characters
                                   44762              **              to binary buffer address
                                   44763              **
                                   44764              **    On entry:
                                   44765              **      R1 - 3270 characters in 2 low order positions
                                   44766              **
                                   44767              **    On exit:
                                   44768              **      R1 - Buffer Offset Relative to ZERO
                                   44769              *
0006618 50E0 D000/9008_      00000 44771              DISTOBUF PROC  ,
 USING  *,R7
 006632 5850 75AE            06BE0 44810                       L     R5,=A(X'C000')
 006636 1451                       44811                       NR    R5,R1
 006638 4770 7012            06644 44812                       IF    (ZERO),BEGIN                  IF 14-BIT
 00663C 5410 75A6            06BD8 44823  1                      N     R1,=A(X'3FFF')                ISOLATE 14-BITS
 006640 9640 6004      00004       44824  1                      SET   VTWF14B
 006644                            44830                       END   ,                             END 14-BIT
0006644 7016/47F0 7026 06644 0663A 44835                       ELSE  BEGIN                         ELSE 12-BIT
 006648 5840 75B2            06BE4 44846  1                      L     R4,=A(X'3F00')           LOAD HI ORDER 6 BITS
 00664C 1441                       44847  1                      NR    R4,R1
 00664E 8840 0002            00002 44848  1                      SRL   R4,2
 006652 5410 75B6            06BE8 44849  1                      N     R1,=A(X'3F')           ISOLATE LOW ORDER 6 BITS
 006656 1614                       44850  1                      OR    R1,R4                  FORM RESULT
 006658                            44851                       END   ,                             END 12-BIT
0006658 5018 0008            00008 44856                       PRETURN R1                EXIT
 00665C 1BFF                       44858                       CLEAR R15
 00665E 18D8/9808 D004_            44862                       PEND
 DROP   *,R7
1VETS     (VETS2025) (12:59) (15MAR04) SRECEIVE - Start a data receive going                                                Page  134
0Current Usings:  (VTWA,R6) (CP,R11) (CV,R12)
0Loc    Object Code    Addr1 Addr2  Stmt Lv Lineno    Source Statement           (Hibal 5, Asmedit 3.3)  HLASM R4.0  2004/03/15 12.59
+___    ______ ____    _____ _____  ____ __ ______    ______ _________
0                                  44883              *
                                   44884              **  SRECEIVE -- Routine to start a data receive going
                                   44885              **
                                   44886              **    On entry:
                                   44887              **      No entry parameters
                                   44888              **
                                   44889              **    On exit:
                                   44890              **      Receive has been started
                                   44891              *
                                   44892              **  Note: May be called from a Dispatcher Routine
                                   44893              *
000666C 50E0 D000/9008_      00000 44895              SRECEIVE PROC  ,                   START A DATA RECEIVE
 USING  *,R7
                                   44934              *QSNAP 'ENTERED SRECEIVE'
                                   44935              *QSNAP (RAR)
 006686 5840 6058            00058 44936                       L     R4,VTWAACBP
 00668A 5840 40A0            000A0 44937                       WITH  (ACB,R4),'L R4,ACBNRRPL'
 USING  ACB,R4
 DROP   ACB,R4
 USING  RPL,R4                     44961                       WITH  (RPL,R4)            GET THE RPL
 00668E 9500 4045/4770_00045       44974                       IF    (RPLACTIV,Z),BEGIN
 006696 5850 4020            00020 44990  1                      L     R5,RPLAREA
 00669A 5830 4034            00034 44991  1                      L     R3,RPLBUFL
 00669E 1255/4770 7030             44992  1                      IF    (R5,Z),BEGIN
 0066A4 5830 6064            00064 45006  2                        L     R3,VTWRSIZO
 0066A8 4120 3010            00010 45007  2                        LA    R2,@R3+VTBDATA-VTBHEAD
 0066AC 1802                       45008  2                        LR    R0,R2
 0066AE 58E0 7566/0DEE       06BEC 45009  2                        VCALL GETCORE             GET A BUFFER
 0066B4 1851                       45013  2                        LR    R5,R1
 0066B6                            45014  1                      END
 0066B6 7034/47F0 7038_066B6 066A2 45018  1                      ELSE  'S R5,=A(VTBDATA-VTBHEAD)'
 USING  VTBHEAD,R5                 45035  1                      WITH  (VTBHEAD,R5)
 0066BE D70F 5000 5000 00000 00000 45048  1                      XC    VTBHEAD(VTBDATA-VTBHEAD),VTBHEAD
 0066C4 D203 5000 756E 00000 06BF4 45049  1                      MVC   VTBID,=C'VTBH'
 0066CA 4030 5008            00008 45050  1                      STH   R3,VTBDLENG
0                                  45052  1           *QSNAP 'START RECEIVE DATA'
                                   45053  1                      AIF   ('&BRANCH' EQ 'NO').MODE6
 0066CE 0700/4510 7052_            45054  1                      MODESET MODE=SUP              ********* ENTER SUPERVISOR STATE
 0066DE 5820 7572            06BF8 45061  1           .MODE6     L     R2,=A(SRBROUT)
                                   45062  1         C            RECEIVE RPL=(R4),AREA=VTBDATA,AREALEN=(R3),
                                          1         C                  OPTCD=(ASY,CA,ANY,NIBTK,Q),
 0066E2 1814/91FF 1045_                   1                            RTYPE=(DFSYN,NDFASY,NRESP),BRANCH=&BRANCH,EXIT=(R2)
 006776 182F                       45158  1                      LR    R2,R15
 006778 4510 70FA/0000_      06780 45159  1                      MODESET MODE=PROB             ********* LEAVE SUPERVISOR STATE
0                                  45167  1           *QSNAP (R2)
 006786 1222/4770 710A_            45168  1                      IF    (R2,Z),'EXIT SRECEIVE'        RETURN
0006790 900F C780/4DE0_      00780 45191  1                      KAPUT  DRCVE,'****ERROR CODE - RECEIVE REFUSED'
 DROP   VTBHEAD,R5                 45198                       END
00067A8 18D8/9808 D004_            45208                       PEND
1VETS     (VETS2025) (12:59) (15MAR04) SRECEIVE - Start a data receive going                                                Page  135
0Current Usings:  (VTWA,R6) (CP,R11) (CV,R12)
0Loc    Object Code    Addr1 Addr2  Stmt Lv Lineno    Source Statement           (Hibal 5, Asmedit 3.3)  HLASM R4.0  2004/03/15 12.59
+___    ______ ____    _____ _____  ____ __ ______    ______ _________
0DROP   RPL,R4
 DROP   *,R7
1VETS     (VETS2025) (12:59) (15MAR04) SSIGNAL - Start a send signal going                                                  Page  136
0Current Usings:  (VTWA,R6) (CP,R11) (CV,R12)
0Loc    Object Code    Addr1 Addr2  Stmt Lv Lineno    Source Statement           (Hibal 5, Asmedit 3.3)  HLASM R4.0  2004/03/15 12.59
+___    ______ ____    _____ _____  ____ __ ______    ______ _________
0                                  45234              *
                                   45235              **  SSIGNAL -- Routine to send an ATTN signal
                                   45236              **
                                   45237              **    On entry:
                                   45238              **      No entry parameters
                                   45239              **
                                   45240              **    On exit:
                                   45241              **      SIGNAL has been sent
                                   45242              *
0                                  45244              *
                                   45245              **    REGISTER USE FOR THIS ROUTINE:
                                   45246              **       R2 =
                                   45247              **       R3 =
                                   45248              **       R4 =
                                   45249              **       R5 = RPL
                                   45250              **       R6 = VTWA
                                   45251              *
00067B6 50E0 D000/9008_      00000 45253              SSIGNAL  PROC  ,                   SEND A SIGNAL
 USING  *,R7
                                   45292              *QSNAP 'ENTERED SSIGNAL'
 0067D0 950A 6008/4770_00008       45293                       IF    (VSOUTBSS),'EXIT'   DO NOT SEND TWICE
 0067DC 5850 6058            00058 45316              VATTN1   L     R5,VTWAACBP                   SEND A SIGNAL
 0067E0 5850 50AC            000AC 45317                       WITH  (ACB,R5),'L R5,ACBEORPL'      R5 := @ RPL
 USING  ACB,R5
 DROP   ACB,R5
 USING  RPL,R5                     45341                       USING RPL,R5
 0067E4 95FF 5045/4770_00045       45350                       FAIL  (RPLACTIV,EQ,X'FF'),VATTN,'RPL BUSY'
0                                  45380              *QSNAP 'ABOUT TO SEND A SIGNAL'
 006804 D703 6044 6044 00044 00044 45381                       CLEAR VTWSECB
                                   45388            C          SEND  RPL=(R5),STYPE=REQ,CONTROL=SIGNAL,CHNGDIR=NCMD,
 00680A 1815/91FF 1045_                                              SIGDATA=X'00010000',BRANCH=NO,OPTCD=(ASY,CA),ECB=VTWSECB
 006876 1B00                       45446                       CLEAR R0
 006878 4110 6044            00044 45450                       LA    R1,VTWSECB
 00687C 58E0 742C/0DEE       06BFC 45451                       VCALL WAITECB
0006882 1815/4100 0002_            45456                       CHECK RPL=(R5)
 006892 1B22                       45463                       CLEAR R2
 006894 49F0 7460/47D0_      06C30 45467                       IF    (R15,GT,=H'4'),'LH R1,=H"28"'
 0068A0 70D4/47F0 70EC 068A0 0689A 45489                       ELSE  BEGIN
 0068A4 4900 7464/4770_      06C34 45500  1                      IF    (R0,EQ,=H'24'),'LR R1,R0'
 0068AE 70E2/47F0 70EC 068AE 068AA 45522  1                      ELSE  BEGIN
 0068B2 1F11/4310 500D             45533  2                        LC    R1,RPLRTNCD         R1 := RTNCD
 0068B8 4320 500E            0000E 45540  2                        IC    R2,RPLFDB2          R2 := FDBK2
 0068BC                            45541  1                      END
 0068BC                            45545                       END
 0068BC 5910 7430/47D0_      06C00 45549                       CEIL  R1,28
                                   45568              *QSNAP (R1,R2)
00068C8 58F1 7100            068D0 45570                       L     R15,SIGLTABL(R1)
 0068CC 07FF                       45571                       BR    R15                 BRANCH TO PROCESS
 0068CE 0000
1VETS     (VETS2025) (12:59) (15MAR04) SSIGNAL - Start a send signal going                                                  Page  137
0Current Usings:  (RPL,R5) (VTWA,R6) (*,R7) (CP,R11) (CV,R12)
0Loc    Object Code    Addr1 Addr2  Stmt Lv Lineno    Source Statement           (Hibal 5, Asmedit 3.3)  HLASM R4.0  2004/03/15 12.59
+___    ______ ____    _____ _____  ____ __ ______    ______ _________
00068D0 00006946                   45572              SIGLTABL DC    A(SIGLNORM)         NORMAL
 0068D4 00006924                   45573                       DC    A(SIGLERR)          ERROR SYNAD
 0068D8 000067DC                   45574                       DC    A(VATTN1)           RETRY
 0068DC 00006946                   45575                       DC    A(SIGLNORM)         ERROR INTEGRETY
 0068E0 000068F0                   45576                       DC    A(SIGLENV)          ERROR ENVIRONMENT
 0068E4 00006924                   45577                       DC    A(SIGLERR)          ERROR LOGIC
 0068E8 00006924                   45578                       DC    A(SIGLERR)          ERROR BAD RPL
 0068EC 00006946                   45579                       DC    A(SIGLNORM)         ERROR ACB NOT OPEN
-
 0068F0                            45581              SIGLENV  LABEL                     ENVIRONMENT ERROR
 0068F0 5920 7434/4770_      06C04 45583                       IF    (R2,EQ,=A(X'000A')),'ACALL ERROR10A'  VTAM FAILED
                                   45608            C          IF   ((R2,EQ,=A(X'0003')),OR,            VTAM HALT ISSUED
                                                    C                (R2,EQ,=A(X'0007')),OR,            CANCELLED BY VARY
                                                    C                (R2,EQ,=A(X'0009')),OR,            LOGOFF RECEIVED
 0068FE 5920 743C/4780_      06C0C                                   (R2,EQ,=A(X'000E'))),'ACALL PATHBRKN'     VTAM ERROR
 006924                            45674              SIGLERR  LABEL
 006924 5830 5058            00058 45676                       L     R3,RPLRSENS
 006928 58E0 7450/0DEE       06C20 45677                       ACALL FREEVTWA
 00692E 900F C780/4DE0_      00780 45681                       KAPUT SSIGNAL,'UNEXPECTED VTAM RETURN CODE'
-006946                            45689              SIGLNORM LABEL                     NORMAL COMPLETION
 006946 9509 6008/4770_00008       45691                       IF    (VSOUTB),'SET VSOUTBSS'       SET OUTBOUND SIGNAL SENT
0006952 18D8/9808 D004_            45718                       PEND
 DROP   *,R7
1VETS     (VETS2025) (12:59) (15MAR04) GETVTWA -- Create terminal work area                                                 Page  138
0Current Usings:  (RPL,R5) (VTWA,R6) (CP,R11) (CV,R12)
0Loc    Object Code    Addr1 Addr2  Stmt Lv Lineno    Source Statement           (Hibal 5, Asmedit 3.3)  HLASM R4.0  2004/03/15 12.59
+___    ______ ____    _____ _____  ____ __ ______    ______ _________
0                                  45739              *
                                   45740              **  GETVTWA -- ROUTINE TO CREATE AND INITIALIZE A VTAM TERMINAL
                                   45741              **  WORK AREA.
                                   45742              **
                                   45743              **    On exit:
                                   45744              **       CPVTWAP - address of user's VTWA
                                   45745              *
0006960 50E0 D000/9008_      00000 45747              GETVTWA  PROC  ,                   GET A VTWA
 USING  *,R7
                                   45786              *QSNAP 'ENTERED GETVTWA'
 00697A D603 B1E8 B1E8_001E8 001E8 45787                       FAIL  (CPVTWAP,NZ),GETVTWA,'VTWA ALREADY ALLOCATED.'
                                   45815
 00699C 4100 00A4            000A4 45816                       LA    R0,L'VTWA
 0069A0 58E0 7272/0DEE       06BEC 45817                       VCALL GETCORE             Get memory for VTWA
 0069A6 1861                       45821                       LR    R6,R1
                                   45822              *        WITH  (VTWA,R6)
                                   45823              *
 0069A8 18E6/41F0 00A4_            45824                       ZOT   VTWA
 0069B2 D203 6000 72AA 00000 06C24 45841                       MVC   VTWID,=C'VTWA'     SET SELF-IDENTIFICATION
                                   45842              *
                                   45843              *  Calculate screen height and width.
                                   45844              *
 0069B8 5850 B468            00468 45845                       L     R5,CPTTYPEP
 DROP   RPL,R5                     45846                       WITH  (TTYPE,R5),BEGIN
 USING  TTYPE,R5
 0069BC                            45863  1                      BEGIN ,                   HEIGHT
 0069BC 48F0 B41C/12FF       0041C 45867  2                        LTH   R15,CPSHEI          Get session default
 0069C2 4770 705A            069D4 45871  2                        IF    NZ,EXIT             Got it, scram
 0069C6 48F0 5008/12FF       00008 45885  2                        LTH   R15,TTYHEI          Terminal height
 0069CC 4770 705A            069D4 45889  2                        IF    NZ,EXIT             Got it, scram
 0069D0 41F0 0018            00018 45903  2                        LA    R15,24              Universal default
 0069D4                            45904  1                      END
 0069D4 40F0 6038            00038 45908  1                      STH   R15,VTWHEIT         SAVE HEIGHT
                                   45909  1
 0069D8                            45910  1                      BEGIN ,                   WIDTH
 0069D8 48F0 B418/12FF       00418 45914  2                        LTH   R15,CPSWID          Get session default
 0069DE 4770 7076            069F0 45918  2                        IF    NZ,EXIT             Got it, scram
 0069E2 48F0 500A/12FF       0000A 45932  2                        LTH   R15,TTYWID          Terminal width
 0069E8 4770 7076            069F0 45936  2                        IF    NZ,EXIT             Got it, scram
 0069EC 41F0 0050            00050 45950  2                        LA    R15,80              Universal default
 0069F0                            45951  1                      END
 0069F0 40F0 603A            0003A 45955  1                      STH   R15,VTWWIDT         SAVE WIDTH
00069F4 9102 5005/47E0_00005       45957  1                      IF    (TTYFCOLOR),'SET VTWFCOLOR'   IF COLOR TERMINAL
 006A00 9104 5005/47E0_00005       45983  1                      IF    (TTYFVTAM),'SET VTWF3270'     IF 3270 TERMINAL
 006A0C D504 72BC B41E_06C36 0041E 46009  1                      IF    (CPSTTYPE,NE,C'3278B'),'SET VTWFHI+VTWFGE'  3270 EA
 DROP   TTYPE,R5                   46040                       END
 USING  RPL,R5
                                   46055
 006A1A 50B0 6088            00088 46056                       ST    CPR,VTWCPSAV
 006A1E 5060 B1E8            001E8 46057                       ST    R6,CPVTWAP          Save VTWA ptr
 006A22 58F0 C1C8            001C8 46058                       L     R15,CVCURJCB
 006A26 4800 F048            00048 46059                       WITH  (JCB,R15),'LH R0,JCBSEQ'
1VETS     (VETS2025) (12:59) (15MAR04) GETVTWA -- Create terminal work area                                                 Page  139
0Current Usings:  (RPL,R5) (VTWA,R6) (*,R7) (CP,R11) (CV,R12)
0Loc    Object Code    Addr1 Addr2  Stmt Lv Lineno    Source Statement           (Hibal 5, Asmedit 3.3)  HLASM R4.0  2004/03/15 12.59
+___    ______ ____    _____ _____  ____ __ ______    ______ _________
0USING  JCB,R15
 DROP   JCB,R15
 006A2A 5000 608C            0008C 46083                       ST    R0,VTWLNSAV         SAVE LINE NUMBER
 006A2E 18D8/9808 D004_            46084                       PEND
 DROP   *,R7
1VETS     (VETS2025) (12:59) (15MAR04) FREEVTWA - Free the VTWA and other control blocks                                    Page  140
0Current Usings:  (RPL,R5) (VTWA,R6) (CP,R11) (CV,R12)
0Loc    Object Code    Addr1 Addr2  Stmt Lv Lineno    Source Statement           (Hibal 5, Asmedit 3.3)  HLASM R4.0  2004/03/15 12.59
+___    ______ ____    _____ _____  ____ __ ______    ______ _________
0                                  46105              *
                                   46106              ** FREEVTWA -- Free the VTWA and associated control blocks.
                                   46107              *              Closes the ACB.
                                   46108              *
                                   46109              * INPUT: none
                                   46110              *
                                   46111              * OUTPUT: VTWA has been freed
                                   46112              *
                                   46113              *
0                                  46115              *
                                   46116              **    REGISTER USE FOR THIS ROUTINE:
                                   46117              **       R2 =
                                   46118              **       R3 =
                                   46119              **       R4 =
                                   46120              **       R5 =
                                   46121              **       R6 = VTWA
                                   46122              *
                                   46123              *
0006A3C 50E0 D000/9008_      00000 46125              FREEVTWA PROC  ,                   FREE THE VTWA
 USING  *,R7
                                   46164              *QSNAP 'ENTERED FREEVTWA'
 006A56 5860 B1E8/1266       001E8 46165                       LT    R6,CPVTWAP
 006A5C 4770 700E/47F0_      06A64 46169                       IF    (Z),'EXIT FREEVTWA'
0006A64 9108 6004/47E0_00004       46189                       IF    (VTWFFREZ),BEGIN    IF SESSION FROZEN
 006A6C D703 B1E8 B1E8 001E8 001E8 46204  1                      CLEAR CPVTWAP             DISCONNECT VTWA
 006A72 47F0 716E            06BC4 46211  1                      EXIT  FREEVTWA            RETURN
 006A76                            46214                       END   ,                   END SESSION FROZEN
0006A76 58E0 71D2/0DEE       06C28 46219                       ACALL FREEACB             CLOSE AND FREE THE ACB
0006A7C 5810 6070            00070 46224                       L     R1,VTWIBLST         CHECK INBOUND BUFFERS
 006A80 D703 6070 6070 00070 00070 46225                       CLEAR VTWIBLST
 006A86 1211/4780 703C             46232                       IF    (R1,NZ),BEGIN       IF BUFFLST
 006A8C 58E0 71D6/0DEE       06C2C 46246  1                      VCALL FREECORE            FREE IT
 006A92                            46250                       END
0006A92 5840 6068            00068 46255                       L     R4,VTWIRUC          CLEAN UP THE INBOUND BUFFERS
 006A96 D703 6068 6068 00068 00068 46256                       CLEAR VTWIRUC
 USING  VTBHEAD,R4                 46263                       WITH  (VTBHEAD,R4)
 006A9C 1824                       46276                       LR    R2,R4
 006A9E 1222/4780 7082             46277                       WHILE (R2,NZ),BEGIN       WHILE IN BUFFER
 006AA4 1842                       46293  1                      LR    R4,R2
 006AA6 5820 4004            00004 46294  1                      L     R2,VTBNEXT
 006AAA 1814                       46295  1                      LR    R1,R4
 006AAC D503 719E 4000_06BF4 00000 46296  1                      FAIL  (VTBID,NE,C'VTBH'),FREEVTWA,'BAD INBOUND BUFFER'
 006ACE 58E0 71D6/0DEE       06C2C 46325  1                      VCALL FREECORE
 006AD4 47F0 7048            06A9E 46329                       END   ,                   END IN BUFFERS
0006AD8 5840 606C            0006C 46335                       L     R4,VTWORUC          CLEAN UP THE RECEIVE BUFFERS
 006ADC D703 606C 606C 0006C 0006C 46336                       CLEAR VTWORUC
                                   46343                       WITH  (VTBHEAD,R4)
1VETS     (VETS2025) (12:59) (15MAR04) FREEVTWA - Free the VTWA and other control blocks                                    Page  141
0Current Usings:  (VTBHEAD,R4) (RPL,R5) (VTWA,R6) (*,R7) (CP,R11) (CV,R12)
0Loc    Object Code    Addr1 Addr2  Stmt Lv Lineno    Source Statement           (Hibal 5, Asmedit 3.3)  HLASM R4.0  2004/03/15 12.59
+___    ______ ____    _____ _____  ____ __ ______    ______ _________
0006AE2 1824                       46347                       LR    R2,R4
 006AE4 1222/4780 70C8             46348                       WHILE (R2,NZ),BEGIN       WHILE IN BUFFER
 006AEA 1842                       46364  1                      LR    R4,R2
 006AEC 5820 4004            00004 46365  1                      L     R2,VTBNEXT
 006AF0 1814                       46366  1                      LR    R1,R4
 006AF2 D503 719E 4000_06BF4 00000 46367  1                      FAIL  (VTBID,NE,C'VTBH'),FREEVTWA,'BAD OUTBOUND BUFFER'
 006B14 58E0 71D6/0DEE       06C2C 46396  1                      VCALL FREECORE
 006B1A 47F0 708E            06AE4 46400                       END   ,                   END IN BUFFERS
0006B1E 5810 6048            00048 46406                       L     R1,VTWBINDP         CHECK BIND IMAGE
 006B22 D703 6048 6048 00048 00048 46407                       CLEAR VTWBINDP
 006B28 1211/4780 70F2             46414                       IF    (R1,NZ),BEGIN
 006B2E 0700/47F0 70E6_            46428  1                      FREEMAIN RC,LV=36,A=(R1)
 006B48                            46441                       END
0006B48 5810 605C            0005C 46446                       L     R1,VTWANIBP         CHECK NIB
 006B4C D703 605C 605C 0005C 0005C 46447                       CLEAR VTWANIBP
 006B52 1211/4780 7108             46454                       IF    (R1,NZ),BEGIN
 006B58 58E0 71D6/0DEE       06C2C 46468  1                      VCALL FREECORE
 006B5E                            46472                       END
0006B5E 5810 6094            00094 46477                       L     R1,VTWTEXTP         SCREEN BUFFERS
 006B62 D703 6094 6094 00094 00094 46478                       CLEAR VTWTEXTP
 006B68 1211/4780 711E             46485                       IF    (R1,NZ),BEGIN
 006B6E 58E0 71D6/0DEE       06C2C 46499  1                      VCALL FREECORE
 006B74                            46503                       END
0006B74 5810 6098            00098 46508                       L     R1,VTWHIP
 006B78 D703 6098 6098 00098 00098 46509                       CLEAR VTWHIP
 006B7E 1211/4780 7134             46516                       IF    (R1,NZ),BEGIN
 006B84 58E0 71D6/0DEE       06C2C 46530  1                      VCALL FREECORE
 006B8A                            46534                       END
0006B8A 5810 609C            0009C 46539                       L     R1,VTWCOLP
 006B8E D703 609C 609C 0009C 0009C 46540                       CLEAR VTWCOLP
 006B94 1211/4780 714A             46547                       IF    (R1,NZ),BEGIN
 006B9A 58E0 71D6/0DEE       06C2C 46561  1                      VCALL FREECORE
 006BA0                            46565                       END
0006BA0 5810 60A0            000A0 46570                       L     R1,VTWCSP
 006BA4 D703 60A0 60A0 000A0 000A0 46571                       CLEAR VTWCSP
 006BAA 1211/4780 7160             46578                       IF    (R1,NZ),BEGIN
 006BB0 58E0 71D6/0DEE       06C2C 46592  1                      VCALL FREECORE
 006BB6                            46596                       END
0006BB6 D703 B1E8 B1E8 001E8 001E8 46601                       CLEAR CPVTWAP             THE VTWA ITSELF
 006BBC 1816                       46608                       LR    R1,R6
 006BBE 58E0 71D6/0DEE       06C2C 46609                       VCALL FREECORE
0006BC4 18D8/9808 D004_            46614                       PEND
 DROP   VTBHEAD,R4
 DROP   *,R7
 006BD8                            46639                       LTORG
 006BD8 00003FFF                   46641                             =A(X'3FFF')
1VETS     (VETS2025) (12:59) (15MAR04) FREEVTWA - Free the VTWA and other control blocks                                    Page  142
0Current Usings:  (RPL,R5) (VTWA,R6) (CP,R11) (CV,R12)
0Loc    Object Code    Addr1 Addr2  Stmt Lv Lineno    Source Statement           (Hibal 5, Asmedit 3.3)  HLASM R4.0  2004/03/15 12.59
+___    ______ ____    _____ _____  ____ __ ______    ______ _________
0006BDC 00000FFF                   46642                             =A(X'FFF')
 006BE0 0000C000                   46643                             =A(X'C000')
 006BE4 00003F00                   46644                             =A(X'3F00')
 006BE8 0000003F                   46645                             =A(X'3F')
 006BEC 00000000                   46646                             =V(GETCORE)
 006BF0 00000010                   46647                             =A(VTBDATA-VTBHEAD)
 006BF4 E5E3C2C8                   46648                             =C'VTBH'
 006BF8 00007DC8                   46649                             =A(SRBROUT)
 006BFC 00000000                   46650                             =V(WAITECB)
 006C00 0000001C                   46651                             =A(28)
 006C04 0000000A                   46652                             =A(X'000A')
 006C08 00005842                   46653                             =A(ERROR10A)
 006C0C 00000003                   46654                             =A(X'0003')
 006C10 00000007                   46655                             =A(X'0007')
 006C14 00000009                   46656                             =A(X'0009')
 006C18 0000000E                   46657                             =A(X'000E')
 006C1C 000057E8                   46658                             =A(PATHBRKN)
 006C20 00006A3C                   46659                             =A(FREEVTWA)
 006C24 E5E3E6C1                   46660                             =C'VTWA'
 006C28 000072A2                   46661                             =A(FREEACB)
 006C2C 00000000                   46662                             =V(FREECORE)
 006C30 0004                       46663                             =H'4'
 006C32 001C                       46664                             =H'28'
 006C34 0018                       46665                             =H'24'
 006C36 F3F2F7F8C2                 46666                             =C'3278B'
1VETS     (VETS2025) (12:59) (15MAR04) GENACB - Generate an VTAM ACB                                                        Page  143
0Current Usings:  (RPL,R5) (VTWA,R6) (CP,R11) (CV,R12)
0Loc    Object Code    Addr1 Addr2  Stmt Lv Lineno    Source Statement           (Hibal 5, Asmedit 3.3)  HLASM R4.0  2004/03/15 12.59
+___    ______ ____    _____ _____  ____ __ ______    ______ _________
0                                  46671              *
                                   46672              ** GENACB -- Generate an VTAM ACB
                                   46673              **
                                   46674              ** GENERATES THE VTAM ACB AND RPL CONTROL BLOCKS
                                   46675              **
                                   46676              ** INPUT:  none
                                   46677              **
                                   46678              ** OUTPUT: R1 = @ACBWYL
                                   46679              ** OUTPUT: R1 = 0 if generate failed
                                   46680              *
0                                  46682              *
                                   46683              **    REGISTER USE FOR THIS ROUTINE:
                                   46684              **       R2 =
                                   46685              **       R3 =
                                   46686              **       R4 = @ RPL
                                   46687              **       R5 = @ ACB
                                   46688              **       R6 =
                                   46689              *
0006C3C 50E0 D000/9008_      00000 46691              GENACB   PROC  ,                   GENERATE THE ACB
 USING  *,R7
                                   46730              *QSNAP 'ENTERED GENACB'
                                   46731              *                                            GENERATE THE ACB
 006C56 4100 00B4            000B4 46732                       LA    R0,L'ACBWYL
 006C5A 4510 7008/0A0A       06C5E 46733                       GETMAIN R,LV=(0)                    ACB MUST BE BELOW 16M
 006C60 1851                       46737                       LR    R5,R1
 DROP   RPL,R5                     46738                       WITH  (ACB,R5)
 USING  ACB,R5
 006C62 D733 5080 5080 00080 00080 46754                       CLEAR (ACBWSTRT,ACBWEND-ACBWSTRT)
 006C68 9280 509C      0009C       46761                       MVI   ACBOLIST,X'80'
 006C6C 4130 5089            00089 46762                       LA    R3,ACBWAPLT
0                                  46764            C          GENCB AM=VTAM,BLK=ACB,WAREA=(R5),LENGTH=L'ACB,
 006C70 5050 703A/5030_      06C90                                   EXLST=ALIST,APPLID=(R3)
 006CC0 12FF/4780 7088_            46811                       FAIL  (R15,NZ),GETACB,'GENACB REFUSED'
0                                  46838              *                                            GENERATE THE RPLS
0006CDE 4100 0088            00088 46840                       LA    R0,L'RPLWYL         GENERATE THE DATA RPLS
 006CE2 58E0 739A/0DEE       06FF0 46841                       VCALL GETCORE
 006CE8 1841                       46845                       LR    R4,R1
 USING  RPL,R4                     46846                       WITH  (RPL,R4)
 006CEA 5040 50A4            000A4 46859                       ST    R4,ACBNSRPL
 006CEE D707 4080 4080 00080 00080 46860                       CLEAR (RPLWSTRT,RPLWEND-RPLWSTRT)
0                                  46868            C          GENCB AM=VTAM,BLK=RPL,WAREA=(R4),LENGTH=L'RPL,ACB=(R5),
                                                    C                POST=SCHED,OPTCD=(ASY,CA),EXIT=SRBROUT,
                                                    C                RESPOND=(EX,FME,NRRN),
 006CF4 5040 70DA/5050_      06D30                                   STYPE=REQ,CONTROL=DATA,CHNGDIR=CMD,BRANCH=&BRANCH
 006DA0 12FF/4780 7168_            46968                       FAIL  (R15,NZ),GETACB,'GEN NS RPL REFUSED'
0006DBE 4100 0088            00088 46995                       LA    R0,L'RPLWYL
 006DC2 58E0 739A/0DEE       06FF0 46996                       VCALL GETCORE
1VETS     (VETS2025) (12:59) (15MAR04) GENACB - Generate an VTAM ACB                                                        Page  144
0Current Usings:  (RPL,R4) (ACB,R5) (VTWA,R6) (*,R7) (CP,R11) (CV,R12)
0Loc    Object Code    Addr1 Addr2  Stmt Lv Lineno    Source Statement           (Hibal 5, Asmedit 3.3)  HLASM R4.0  2004/03/15 12.59
+___    ______ ____    _____ _____  ____ __ ______    ______ _________
0006DC8 1841                       47000                       LR    R4,R1
 006DCA 5040 50A0            000A0 47001                       ST    R4,ACBNRRPL
 006DCE D707 4080 4080 00080 00080 47002                       CLEAR (RPLWSTRT,RPLWEND-RPLWSTRT)
0                                  47010            C          GENCB AM=VTAM,BLK=RPL,WAREA=(R4),LENGTH=L'RPL,ACB=(R5),
                                                    C                OPTCD=(ASY,CA,ANY,NIBTK,Q),EXIT=SRBROUT,
 006DD4 5040 71AA/5050_      06E00                                   RTYPE=(DFSYN,NDFASY,NRESP),BRANCH=&BRANCH
 006E50 12FF/4780 7218_            47090                       FAIL  (R15,NZ),GETACB,'GEN NR RPL REFUSED'
0006E6E 4100 0088            00088 47117                       LA    R0,L'RPLWYL         GENERATE THE EXPEDITED INPUT RPL
 006E72 58E0 739A/0DEE       06FF0 47118                       VCALL GETCORE
 006E78 1841                       47122                       LR    R4,R1
 006E7A 5040 50A8            000A8 47123                       ST    R4,ACBEIRPL
 006E7E D707 4080 4080 00080 00080 47124                       CLEAR (RPLWSTRT,RPLWEND-RPLWSTRT)
0                                  47132            C          GENCB AM=VTAM,BLK=RPL,WAREA=(R4),LENGTH=L'RPL,ACB=(R5),
                                                    C                OPTCD=(ASY,CA,ANY,NIBTK,Q),AREALEN=0,EXIT=SRBROUT,
 006E84 5040 725E/5050_      06EB4                                   RTYPE=(NDFSYN,DFASY,RESP),BRANCH=&BRANCH
 006F0C 12FF/4780 72D4_            47217                       FAIL  (R15,NZ),GETACB,'GEN EI RPL REFUSED'
0006F2A 4100 0088            00088 47244                       LA    R0,L'RPLWYL         GENERATE THE EXPEDITED OUTPUT RPL
 006F2E 58E0 739A/0DEE       06FF0 47245                       VCALL GETCORE
 006F34 1841                       47249                       LR    R4,R1
 006F36 5040 50AC            000AC 47250                       ST    R4,ACBEORPL
 006F3A D707 4080 4080 00080 00080 47251                       CLEAR (RPLWSTRT,RPLWEND-RPLWSTRT)
0                                  47259            C          GENCB AM=VTAM,BLK=RPL,WAREA=(R4),LENGTH=L'RPL,ACB=(R5),
 006F40 5040 730E/5050_      06F64                                   POST=SCHED,OPTCD=(ASY,CA)
 006FA4 12FF/4780 736C_            47329                       FAIL  (R15,NZ),GETACB,'GEN EO RPL REFUSED'
0006FC2 4100 0088            00088 47356                       LA    R0,L'RPLWYL     GENERATE THE PHONY BREAK TERMINAL RPL
 006FC6 58E0 739A/0DEE       06FF0 47357                       VCALL GETCORE
 006FCC 1841                       47361                       LR    R4,R1
 006FCE 5040 50B0            000B0 47362                       ST    R4,ACBBTRPL
 006FD2 D787 4000 4000 00000 00000 47363                       CLEAR RPLWYL
 006FD8 5050 4018            00018 47370                       ST    R5,RPLDACB
0006FDC 1815                       47372                       LR    R1,R5                         NORMAL RETURN
 006FDE 5018 0008            00008 47373                       PRETURN R1
 006FE2 18D8/9808 D004_            47375                       PEND
 DROP   RPL,R4
 DROP   ACB,R5
 USING  RPL,R5
 DROP   *,R7
 006FF0                            47412                       LTORG
 006FF0 00000000                   47414                             =V(GETCORE)
1VETS     (VETS2025) (12:59) (15MAR04) GETACB - Get a VTAM ACB                                                              Page  145
0Current Usings:  (RPL,R5) (VTWA,R6) (CP,R11) (CV,R12)
0Loc    Object Code    Addr1 Addr2  Stmt Lv Lineno    Source Statement           (Hibal 5, Asmedit 3.3)  HLASM R4.0  2004/03/15 12.59
+___    ______ ____    _____ _____  ____ __ ______    ______ _________
0                                  47419              *
                                   47420              ** GETACB -- GET A VTAM ACB
                                   47421              **
                                   47422              ** GETS A VTAM ACB AND RPL CONTROL BLOCKS FROM THE POOL
                                   47423              **
                                   47424              ** INPUT:  R6 = @ VTWA
                                   47425              **
                                   47426              ** OUTPUT: R1 = 0 OPEN SUCCESSFUL, R5 = @ ACBWYL
                                   47427              **         R1 = @ERROR MESSAGE, VTWA NOT UPDATED
                                   47428              **         R0 = L'ERROR MESSAGE
                                   47429              *
0000000                00000 00004 47431              GETACBWA RECORD BEGIN
 000000                            47439  1           FIRSTTRI   DS    A                   FIRST ACB TRIED
 000004                00004 00004 47440                       END
0                                  47450              *
                                   47451              **    REGISTER USE FOR THIS ROUTINE:
                                   47452              **       R2 =
                                   47453              **       R3 = @ LASTAACB
                                   47454              **       R4 = @ RPL
                                   47455              **       R5 = @ ACB
                                   47456              **       R6 = VTWA
                                   47457              *
0006FF4 50E0 D000/9008_      00000 47459              GETACB   PROC  GETACBWA            GET THE ACB
 USING  *,R7
 USING  GETACBWA-(4+36),R8
                                   47509              *QSNAP 'ENTERED GETACB'
 DROP   RPL,R5                     47510                       WITH  (ACBWYL,R5)
 USING  ACBWYL,R5
000700E 5830 72FA            07308 47527                       L     R3,=A(LASTAACB)
 007012 5850 3000/1255       00000 47528                       LT    R5,@R3
 007018 4770 7034            07042 47532                       IF    (ZERO),BEGIN
 00701C 45F0 7030/001B_      0703E 47543  1                      ERROR 'NO VLOGON TERMINALS DEFINED'
 00703E 47F0 727E            0728C 47547  1                      B     GETACBR
 007042                            47548                       END
0007042 5050 8028            00000 47553                       ST    R5,FIRSTTRI
 007046 47F0 704A            07058 47554                       B     GETACB2
000704A D503 5080 8028_00080 00000 47556              GETACB1  WHILE (ACBWNEXT,NE,FIRSTTRI),BEGIN GETACB1     FIND AN ACB
 007054 5850 5080            00080 47577  1                      L     R5,ACBWNEXT         STEP TO NEXT
 007058 9180 5088/47E0_00088       47578  1           GETACB2    IF    (ACBWON,AND,~ACBWALLO),GETACB3
 007068 47F0 703C            0704A 47611                       END   ,                      END GETACB1 LOOP
000706C D503 5080 8028_00080 00000 47617                       IF    (ACBWNEXT,EQ,FIRSTTRI),BEGIN
 007076 45F0 708E/001F_      0709C 47635  1                      ERROR 'ALL VLOGON TERMINALS ARE IN USE'
 00709C 47F0 727E            0728C 47639  1                      B     GETACBR
 0070A0                            47640                       END
00070A0 D501 7306 5000_07314 00000 47645                       FAIL  (ACB,NE,X'A020'),GETACB,'OPEN NOT ACB'
1VETS     (VETS2025) (12:59) (15MAR04) GETACB - Get a VTAM ACB                                                              Page  146
0Current Usings:  (ACBWYL,R5) (VTWA,R6) (*,R7) (GETACBWA-(4+36),R8) (CP,R11) (CV,R12)
0Loc    Object Code    Addr1 Addr2  Stmt Lv Lineno    Source Statement           (Hibal 5, Asmedit 3.3)  HLASM R4.0  2004/03/15 12.59
+___    ______ ____    _____ _____  ____ __ ______    ______ _________
00070C2                            47675              GETACB3  LABEL                                        FOUND ONE
 0070C2 9620 5088      00088       47677                       SET   ACBNAVAL           PRESET NOT AVAILABLE FOR SHO VOPT
 0070C6 4110 509C/43E1_      0009C 47683                       OPEN  ((R5)),MF=(E,ACBOLIST)
                                   47690              *QSNAP 'ACB OPENED'
                                   47691              *QSNAP ACBERFLG,1
00070D8 9110 5030/4710_00030       47693                       IF    (~ACBOFLGS.ACBOPEN),BEGIN     IF OPEN FAIL
 0070E0 9514 5031/4770_00031       47709  1                      IF    (ACBERFLG,EQ,ACBONVRT),BEGIN
 0070E8 45F0 7106/0025_      07114 47727  2                        ERROR 'OPEN FAILED - NOT ENOUGH VTAM STORAGE'
 007114 47F0 727E            0728C 47731  2                        B     GETACBR
 007118                            47732  1                      END
0007118 9524 5031/4770_00031       47737  1                      IF    (ACBERFLG,EQ,X'24'),BEGIN
 007120 45F0 7140/0027_      0714E 47754  2                        ERROR 'OPEN FAILED - INCORRECT SYSTEM PASSWORD'
 00714E 47F0 727E            0728C 47758  2                        B     GETACBR
 007152                            47759  1                      END
0007152 9550 5031/4770_00031       47764  1                      IF    (ACBERFLG,EQ,ACBOANAT),BEGIN
 00715A 45F0 7178/0025_      07186 47782  2                        ERROR 'VTAM NOT INCLUDED IN OPERATING SYSTEM'
 007186 47F0 727E            0728C 47786  2                        B     GETACBR
 00718A                            47787  1                      END
000718A 9552 5031/4780_00031       47792  1                      IF    ((ACBERFLG,EQ,ACBOAHLT),OR,(ACBERFLG,EQ,ACBOVINA)),BEGIN
 00719A 45F0 71A2/000F_      071B0 47827  2                        ERROR 'VTAM NOT ACTIVE'
 0071B0 47F0 727E            0728C 47831  2                        B     GETACBR
 0071B4                            47832  1                      END
0                                  47837  1         C            IF    ((ACBERFLG,EQ,ACBOAVFY),OR,(ACBERFLG,EQ,ACBOANSN),OR,
 0071B4 9554 5031/4780_00031              1                            (ACBERFLG,EQ,ACBOAPLE)),'B GETACB1'
                                   47893  1                      COMMENT INVALID VTAM TERMINAL NAME
00071D0 955A 5031/4770_00031       47895  1                      IF    (ACBERFLG,EQ,ACBOAPNM),'B GETACB1'
                                   47919  1                      COMMENT NO MATCHING VTAM TERMINAL NAME
00071DC 9558 5031/4770_00031       47921  1                      IF    (ACBERFLG,EQ,ACBOAPAA),' B GETACB1'
                                   47945  1                      COMMENT VTAM TERMINAL ID ALREADY ACTIVE
00071E8 9560 5031/4770_00031       47947  1                      IF    (ACBERFLG,EQ,ACBOUNDF),BEGIN
 0071F0 45F0 7206/001D_      07214 47965  2                        ERROR 'OPEN ERROR - IBM SYSTEM ERROR'
 007214 47F0 727E            0728C 47969  2                        B     GETACBR
 007218                            47970  1                      END
0                                  47975  1         C            FAIL  ((ACBERFLG,EQ,ACBOACT),OR,(ACBERFLG,EQ,ACBCBUSY)),
 007218 95BC 5031/4780_00031              1                            VLOGON,'ACB ALREADY OPENED'
0007240 45F0 724C/0013_      0725A 48023  1                      ERROR 'UNKNOWN OPEN RETURN'
 00725A 47F0 727E            0728C 48027  1                      B     GETACBR
 00725E                            48028                       END   ,                             END OPEN FAIL
0                                  48033              *                                            ELSE OPEN SUCCESSFUL
 00725E 94DF 5088      00088       48034                       CLEAR ACBNAVAL
 007262 9640 5088      00088       48041                       SET   ACBWALLO
 007266 5050 3000            00000 48047                       ST    R5,@R3 LASTAACB
 USING  RPL,R1                     48048                       WITH  (RPL,R1)
1VETS     (VETS2025) (12:59) (15MAR04) GETACB - Get a VTAM ACB                                                              Page  147
0Current Usings:  (RPL,R1) (ACBWYL,R5) (VTWA,R6) (*,R7) (GETACBWA-(4+36),R8) (CP,R11) (CV,R12)
0Loc    Object Code    Addr1 Addr2  Stmt Lv Lineno    Source Statement           (Hibal 5, Asmedit 3.3)  HLASM R4.0  2004/03/15 12.59
+___    ______ ____    _____ _____  ____ __ ______    ______ _________
000726A 5810 50A0            000A0 48061                       L     R1,ACBNRRPL                   SET RPLS NOT ACTIVE
 00726E 9200 1045      00045       48062                       CLEAR RPLACTIV
 007272 5810 50A4            000A4 48069                       L     R1,ACBNSRPL
 007276 9200 1045      00045       48070                       CLEAR RPLACTIV
 00727A 5810 50A8            000A8 48077                       L     R1,ACBEIRPL
 00727E 9200 1045      00045       48078                       CLEAR RPLACTIV
 007282 5810 50AC            000AC 48085                       L     R1,ACBEORPL
 007286 9200 1045      00045       48086                       CLEAR RPLACTIV
 00728A 1B11                       48093                       CLEAR R1                            SET SUCCESSFUL RETURN
 00728C 9001 8004            00004 48097              GETACBR  PRETURN (R0,R1)                     RETURN
 007290 5058 0018            00018 48099                       PRETURN R5
 007294 18D8/9808 D004_            48101                       PEND
 DROP   RPL,R1
 DROP   ACBWYL,R5
 USING  RPL,R5
 DROP   GETACBWA-(4+36),R8
 DROP   *,R7
1VETS     (VETS2025) (12:59) (15MAR04) FREEACB - Close the ACB and mark it not allocated                                    Page  148
0Current Usings:  (RPL,R5) (VTWA,R6) (CP,R11) (CV,R12)
0Loc    Object Code    Addr1 Addr2  Stmt Lv Lineno    Source Statement           (Hibal 5, Asmedit 3.3)  HLASM R4.0  2004/03/15 12.59
+___    ______ ____    _____ _____  ____ __ ______    ______ _________
0                                  48144              *
                                   48145              ** FREEACB -- Close the ACB.
                                   48146              *             Mark the ACB as not allocated.
                                   48147              *
                                   48148              * INPUT: none
                                   48149              *
                                   48150              * OUTPUT: ACB has been closed
                                   48151              *
                                   48152              *
0                                  48154              *
                                   48155              **    REGISTER USE FOR THIS ROUTINE:
                                   48156              **       R2 =
                                   48157              **       R3 =
                                   48158              **       R4 =
                                   48159              **       R5 = @ ACB
                                   48160              **       R6 = VTWA
                                   48161              *
                                   48162              *
00072A2 50E0 D000/9008_      00000 48164              FREEACB  PROC  ,                   FREE THE ACB
 USING  *,R7
                                   48203              *QSNAP 'ENTERED FREEACB'
 0072BC 5850 6058/1255       00058 48204                       LT    R5,VTWAACBP
 0072C2 4770 700E/47F0_      072CA 48208                       IF    (Z),'EXIT FREEACB'
 DROP   RPL,R5                     48227                       WITH  (ACB,R5)
 USING  ACB,R5
00072CA                            48244                       BEGIN ,                          CLOSE THE ACB
 0072CA D501 7058 5000_07314 00000 48248  1                      IF    (ACB,NE,X'A020'),EXIT
                                   48268  1           *QSNAP 'ABOUT TO CLOSE ACB'
 0072D4 4110 509C/43E1_      0009C 48269  1                      CLOSE ((R5)),MF=(E,ACBOLIST)
 0072E6 58F0 7050            0730C 48276  1                      L     R15,=F'50'          .5 second wait
 0072EA 58E0 7054/0DEE       07310 48277  1                      VCALL WAITER              ALLOW DISPATCHER ROUTINES TO EXECUTE
 0072F0                            48281                       END   ,                          END CLOSE THE ACB
00072F0 94BF 5088      00088       48286                       CLEAR ACBWALLO                   MARK NOT ALLOCATED
00072F4 18D8/9808 D004_            48294                       PEND
 DROP   ACB,R5
 USING  RPL,R5
 DROP   *,R7
 DROP   VTWA,R6                    48326                       DROP  R6,R11
 DROP   CP,R11
 007308                            48339                       LTORG
 007308 00000988                   48341                             =A(LASTAACB)
 00730C 00000032                   48342                             =F'50'
 007310 00000000                   48343                             =V(WAITER)
 007314 A020                       48344                             =X'A020'
1VETS     (VETS2025) (12:59) (15MAR04) Dispatcher Routines                   VTAMDISP - Entry Routine                       Page  149
0Current Usings:  (RPL,R5) (CV,R12)
0Loc    Object Code    Addr1 Addr2  Stmt Lv Lineno    Source Statement           (Hibal 5, Asmedit 3.3)  HLASM R4.0  2004/03/15 12.59
+___    ______ ____    _____ _____  ____ __ ______    ______ _________
0                                  48349              *
                                   48350              **  VTAMDISP - This Wylbur Dispatcher routine is scheduled from
                                   48351              **             a VTAM SRB whenever an asynchronous RPL operation
                                   48352              **             completes.  See SRBROUT at the end of this assembly.
                                   48353              **
                                   48354              **
                                   48355              **    On entry:
                                   48356              **      CVR = @ CV
                                   48357              **      CVVTAMQH = @ RPL
                                   48358              **
                                   48359              **    On exit: Normal environment has been established and
                                   48360              **             the proper dispatcher routine has been executed.
                                   48361              *
0                                  48363              *
                                   48364              **    REGISTER USE FOR THIS ROUTINE:
                                   48365              **       R2 =
                                   48366              **       R3 =
                                   48367              **       R4 = RPL
                                   48368              **       R5 =
                                   48369              **       R6 = VTWA
                                   48370              *
                                   48371              *
0007316 50E0 D000/9008_      00000 48373              VTAMDISP XPROC  ,               DISPATCHER ROUTINES ENTRY
 USING  *,R7
 007330                            48413                       LOOP  BEGIN               DISPATCHER LOOP
0007330                            48420  1                      LOOP  BEGIN               REMOVE RPL FROM Q
 DROP   RPL,R5                     48426  2                        WITH  (RPL,R2)
 USING  RPL,R2
 007330 9823 C0C8            000C8 48447  2                        LM    R2,R3,CVVTAMQH
 007334 1222/4770 700E_            48448  2                        IF    (R2,ZERO),'EXIT VTAMDISP'
 00733E 5840 2080/1244       00080 48470  2                        LT    R4,RPLWNEXT
 007344 4770 701A/1B55       0734A 48474  2                        IF    (Z),'CLEAR R5'
 00734A 701E/47F0 7020_0734A 07346 48494  2                        ELSE  'LR R5,R3'
 007350 BB24 C0C8            000C8 48511  2                        CDS   R2,R4,CVVTAMQH
 007354 4780 702C            0735C 48512  2                        IF    (EQ),EXIT
 007358 47F0 7000            07330 48526  1                      END   ,                   END REMOVE RPL
 USING  RPL,R5
 DROP   RPL,R2
000735C 1842                       48546  1                      LR    R4,R2
 DROP   RPL,R5                     48547  1                      WITH  (RPL,R4)
 USING  RPL,R4
 00735E 5860 4084            00084 48568  1                      L     R6,RPLWVTWA
 USING  VTWA,R6                    48569  1                      USING (VTWA,R6)
 007362 58B0 6088            00088 48579  1                      L     CPR,VTWCPSAV
 USING  CP,R11                     48580  1                      USING (CP,CPR)
0007366 9123 4002/47E0_00002       48591  1                      IF    (RPLREQ.RPLRCVCD),BEGIN             IF RECEIVE
 00736E 9104 4011/4710_00011       48607  2                        IF    (~RPLSRTYP.RPLNFSYN),'LCALL DRCVE'
 00737A 704E/47F0 7052_0737A 07374 48630  2                        ELSE  'LCALL DRCVERE'
 007382                            48648  1                      END   ,                                   END RECEIVE
1VETS     (VETS2025) (12:59) (15MAR04) Dispatcher Routines                   VTAMDISP - Entry Routine                       Page  150
0Current Usings:  (RPL,R4) (VTWA,R6) (*,R7) (CP,R11) (CV,R12)
0Loc    Object Code    Addr1 Addr2  Stmt Lv Lineno    Source Statement           (Hibal 5, Asmedit 3.3)  HLASM R4.0  2004/03/15 12.59
+___    ______ ____    _____ _____  ____ __ ______    ______ _________
0007382 7056/47F0 7062_07382 0736C 48653  1                      ELSEIF (RPLREQ.RPLSNDCD),'LCALL DSENDE'   IF SEND
0007392 7066/47F0 7072_07392 0738C 48686  1                      ELSEIF (RPLREQ,EQ,X'01'),'LCALL DBREAK'   IF BREAK TERMINAL
00073A2 7076/47F0 708E_073A2 0739C 48720  1                      ELSE  'KAPUT VTAMDISP,"UNIDENTIFIED RPL REQ CODE"'
 0073BE 47F0 7000            07330 48743                       END   ,                   END DISPATCH LOOP
 USING  RPL,R5
 DROP   RPL,R4
00073C2 18D8/9808 D004_            48763                       PEND
 DROP   *,R7
1VETS     (VETS2025) (12:59) (15MAR04) Dispatcher Routines                      DRCVE - Receive Ended                       Page  151
0Current Usings:  (RPL,R5) (VTWA,R6) (CP,R11) (CV,R12)
0Loc    Object Code    Addr1 Addr2  Stmt Lv Lineno    Source Statement           (Hibal 5, Asmedit 3.3)  HLASM R4.0  2004/03/15 12.59
+___    ______ ____    _____ _____  ____ __ ______    ______ _________
0                                  48784              *
                                   48785              **  DRCVE -- Asynchronous routine to process normal flow receive
                                   48786              **           completions, from the application.  If user is
                                   48787              **           NOT active, updates the 3270 screen image.
                                   48788              **
                                   48789              **
                                   48790              **    On entry:
                                   48791              **      R4 = @ RPL WHICH COMPLETED (CHECK HAS NOT BEEN DONE)
                                   48792              **      R6 = @ VTWA
                                   48793              **
                                   48794              **    On exit: VTWERRR contains 0 or @ error message.
                                   48795              **             VTWAECB and POSTREAS posted if END OF CHAIN.
                                   48796              **             VTWORUC points to head of received message chain.
                                   48797              *
0                                  48799              *
                                   48800              **    REGISTER USE FOR THIS ROUTINE:
                                   48801              **       R2 =
                                   48802              **       R3 =
                                   48803              **       R4 = RPL
                                   48804              **       R5 = DATA BUFFER
                                   48805              **       R6 = VTWA
                                   48806              *
                                   48807              *
00073D0 50E0 D000/9008_      00000 48809              DRCVE    PROC  ,                PROCESS RECEIVE SCREEN ENDING
 USING  *,R7
                                   48848              *QSNAP '*ENTERED DRCVE'
 DROP   RPL,R5                     48849                       WITH  (RPL,R4)
 USING  RPL,R4
00073EA 5850 4020            00020 48871                       L     R5,RPLAREA
 0073EE 5B50 7C9E            08088 48872                       S     R5,=A(VTBDATA-VTBHEAD)
 USING  VTBHEAD,R5                 48873                       WITH  (VTBHEAD,R5)
00073F2 1814/4100 0002_            48887                       CHECK RPL=(R4)
 007402 D201 500C 4042 0000C 00042 48894                       MVC   VTBSEQNO,RPLSEQNO
0007408 1B22                       48896                       CLEAR R2
 00740A 49F0 7CEA/47D0_      080D4 48900                       IF    (R15,GT,=H'4'),'LH R1,=H"28"'
 007416 7030/47F0 7048 07416 07410 48922                       ELSE  BEGIN
 00741A 4900 7CEE/4770_      080D8 48933  1                      IF    (R0,EQ,=H'24'),'LR R1,R0'
 007424 703E/47F0 7048 07424 07420 48955  1                      ELSE  BEGIN
 007428 1F11/4310 400D             48966  2                        LC    R1,RPLRTNCD         R1 := RTNCD
 00742E 4320 400E            0000E 48973  2                        IC    R2,RPLFDB2          R2 := FDBK2
 007432                            48974  1                      END
 007432                            48978                       END
 007432 5910 7CA2/47D0_      0808C 48982                       CEIL  R1,28
                                   49001              *QSNAP (R1,R2)
                                   49002              *QSNAP RPLRH3,8
000743E 58F1 705A            07444 49004                       L     R15,DRCVTABL(R1)
 007442 07FF                       49005                       BR    R15                 BRANCH TO PROCESS
 007444 000074CC                   49006              DRCVTABL DC    A(DRCVNORM)         NORMAL
1VETS     (VETS2025) (12:59) (15MAR04) Dispatcher Routines                      DRCVE - Receive Ended                       Page  152
0Current Usings:  (RPL,R4) (VTBHEAD,R5) (VTWA,R6) (*,R7) (CP,R11) (CV,R12)
0Loc    Object Code    Addr1 Addr2  Stmt Lv Lineno    Source Statement           (Hibal 5, Asmedit 3.3)  HLASM R4.0  2004/03/15 12.59
+___    ______ ____    _____ _____  ____ __ ______    ______ _________
0007448 00007464                   49007                       DC    A(DRCVSNAD)         ERROR SYNAD
 00744C 000077BC                   49008                       DC    A(DRCVSRCV)         RETRY
 007450 000074BA                   49009                       DC    A(DRCVERR)          ERROR INTEGRETY
 007454 000074BA                   49010                       DC    A(DRCVERR)          ERROR ENVIRONMENT
 007458 000074BA                   49011                       DC    A(DRCVERR)          ERROR LOGIC
 00745C 000074BA                   49012                       DC    A(DRCVERR)          ERROR BAD RPL
 007460 000077C2                   49013                       DC    A(DRCVEXIT)         ERROR ACB NOT OPEN
-
 007464                            49015              DRCVSNAD LABEL                     SYNAD ERROR
 007464 5920 7CA6/4770_      08090 49017                       IF    (R2,EQ,X'03'),BEGIN           IF EXR
 00746C D603 6078 6078_00078 00078 49034  1                      IF    (VTWSSENS,Z),BEGIN
 007476 D203 6078 4058 00078 00058 49050  2                        MVC   VTWSSENS,RPLRSENS
 00747C D201 6074 4042 00074 00042 49051  2                        MVC   VTWSRSEQ,RPLSEQNO
 007482 9140 4015/47E0_00015       49052  2                        IF    (RPLCNTDF.RPLCNCEL),'SET VTWRCAN'
 00748E 70A8/47F0 70B4_0748E 07488 49079  2                        ELSEIF (RPLCNTDC.RPLLUS),'SET VTWRLUS'
 00749E 70B8/47F0 70C4_0749E 07498 49115  2                        ELSEIF (RPLCNTDC.RPLBID),'SET VTWRBID'
 0074AE 70C8/47F0 70CC_074AE 074A8 49151  2                        ELSE  'SET VTWRUD'
 0074B6                            49173  1                      END
 0074B6 47F0 70E2            074CC 49177  1                      B     DRCVNORM
 0074BA                            49178                       END   ,                             END EXR
00074BA                            49183              DRCVERR  LABEL                               ERROR RECEIVED
 0074BA D603 6084 6084_00084 00084 49185                       IF    (VTWRRTNC,Z),BEGIN
 0074C4 4010 6084            00084 49201  1                      STH   R1,VTWRRTN          SAVE RETURN CODES
 0074C8 4020 6086            00086 49202  1                      STH   R2,VTWRFDBK
 0074CC                            49203                       END   ,                             END ERROR RECEIVED
00074CC                            49208              DRCVNORM LABEL                     NORMAL COMPLETION
 0074CC 5810 4030            00030 49210                       L     R1,RPLRLEN          SAVE DATA COUNT
 0074D0 5820 4034            00034 49211                       L     R2,RPLBUFL
 0074D4 1912/47D0 70F8_            49212                       IF    (R1,GT,R2),'CLEAR VTWFLPR; STH R2,VTBCOUNT'
 0074E2 70FC/47F0 7110 074E2 074D8 49240                       ELSE  BEGIN               IF LAST PART
 0074E6 9601 6004      00004       49251  1                      SET   VTWFLPR
 0074EA 4010 500A            0000A 49257  1                      STH   R1,VTBCOUNT
 0074EE 9130 4012/4780_00012       49258  1                      IF    (RPLCLE+RPLCOE),'SET VTBFLIC'
 0074FA                            49287                       END   ,                   END LAST PART
00074FA 94BF 6006      00006       49292                       CLEAR VTWFRCDI
 0074FE 9180 4010/4780_00010       49299                       IF    (RPLBBI),'SET VTBFBBI'
 00750A 9140 4010/4780_00010       49325                       IF    (RPLEBI),'SET VTBFEBI,VTWFREBI'
 00751A 9120 4010/4780_00010       49355                       IF    (RPLCDI),'SET VTBFCDI,VTWFRCDI'
 00752A 9108 4010/4780_00010       49385                       IF    (RPLALT),'SET VTBFALT'
 007536 D201 6074 4042 00074 00042 49411                       MVC   VTWSRSEQ,RPLSEQNO
 00753C 9102 4014/4770_00014       49412                       IF    (~RPLNDR1),'SET VTWFSR1'
 007548 9101 4014/4780_00014       49438                       IF    (RPLDR2),'SET VTWFSR2'
 007554 9201 600A      0000A       49464                       SET   VTWRUD
 007558 9104 4014/4770_00014       49470                       IF    (~RPLERI),'SET VTWFSDR'
                                   49496              *                                            FIND COMMAND TYPE
-007564 9180 4015/47E0_00015       49498                       IF    (RPLCNTDF.RPLDATA),BEGIN      IF USER DATA
                                   49514  1           *QSNAP '*USER DATA'
1VETS     (VETS2025) (12:59) (15MAR04) Dispatcher Routines                      DRCVE - Receive Ended                       Page  153
0Current Usings:  (RPL,R4) (VTBHEAD,R5) (VTWA,R6) (*,R7) (CP,R11) (CV,R12)
0Loc    Object Code    Addr1 Addr2  Stmt Lv Lineno    Source Statement           (Hibal 5, Asmedit 3.3)  HLASM R4.0  2004/03/15 12.59
+___    ______ ____    _____ _____  ____ __ ______    ______ _________
0                                  49515  1           *QSNAP VTBDATA
 00756C 9505 6008/4780_00008       49516  1           DRCVEUD    IF    (VSCONT,OR,VSCONT1,OR,VSCONT2),BEGIN  IF CONTENTION
 007584 9180 4010/4780_00010       49558  2                        IF    (~RPLBBI),DRCVSRCV  IF NOT BB IGNORE
 00758C 9209 6008      00008       49576  2                        SET   VSOUTB
0007590 9180 6004/47E0_00004       49583  2                        IF    (VTWFUACT),BEGIN    IF USER IS ACTIVE
 007598 5800 608C            0008C 49598  3                          L     R0,VTWLNSAV         BREAK THE TERMINAL READ
 00759C 58E0 7CAA/0DEE       08094 49599  3                          VCALL TBREAK
 0075A2                            49603  2                        END   ,                   END USER IS ACTIVE
 0075A2                            49607  1                      END   ,                                    END CONTENTION
00075A2 71BC/47F0 71E0_075A2 07582 49612  1                      ELSEIF (RPLBBI),BEGIN     IF NOT CONTENTION AND BBI
 0075AE 9201 600A      0000A       49636  2                        SET VTWRUD
 0075B2 9103 6006/4770_00006       49642  2                        IF    (~VTWFSR1*~VTWFSR2),'SET VTWFSR1'
 0075BE D203 6078 7CAE 00078 08098 49671  2                        MVC   VTWSSENS,=X'080B0000' BRACKET RACE ERROR
 0075C4 D701 500A 500A 0000A 0000A 49672  2                        CLEAR VTBCOUNT
 0075CA                            49679  1                      END   ,                  END NOT CONTENTION AND BBI
00075CA                            49684  1           DRCVEUD1   LABEL
 0075CA D703 5004 5004 00004 00004 49686  1                      CLEAR VTBNEXT
 0075D0 D703 4020 4020 00020 00020 49693  1                      CLEAR RPLAREA             UNCHAIN FROM RPL
 0075D6 5810 606C            0006C 49700  1                      L     R1,VTWORUC          ADD TO BUFFER CHAIN
 0075DA 1221/4770 71FA_            49701  1                      IF    ('LTR R2,R1',ZERO),'ST R5,VTWORUC'
 0075E4 71FE/47F0 7212 075E4 075DE 49720  1                      ELSE  BEGIN
 DROP   VTBHEAD,R5                 49731  2                        WITH  (VTBHEAD,R1)
 USING  VTBHEAD,R1
 0075E8 1222/4780 720E_            49752  2                        WHILE (R2,NZ),'LR R1,R2; L R2,VTBNEXT'
 0075F8 5050 1004            00004 49776  2                        ST    R5,VTBNEXT
 USING  VTBHEAD,R5                 49777  1                      END   ,
 DROP   VTBHEAD,R1
00075FC 9140 500E/47E0_0000E       49796  1                      IF    (~VTBFLIC),DRCVSRCV IF NOT LAST IN CHAIN
0007604 9180 6004/47E0_00004       49815  1                      IF    (VTWFUACT),BEGIN    IF USER ACTIVE
 00760C 9620 6009      00009       49830  2                        SET   POSTRCVC
 007610 1B00/4110 6040_            49836  2                        POST  VTWAECB             POST AND EXIT
 007618 47F0 73D8            077C2 49842  2                        B     DRCVEXIT
 00761C                            49843  1                      END   ,                   END USER ACTIVE
-                                         1
                                   49848  1           *                                  USER NOT ACTIVE
 00761C 7236/47F0 72B6 0761C 0760A 49849  1                      ELSE  BEGIN
0007620 1B11                       49861  2                        CLEAR R1
 007622 58E0 7CB2/0DEE       0809C 49865  2                        ACALL PRCESSCR            PROCESS THE SCREEN
0007628 4770 7258/1211_      07642 49870  2                        IF    ((NZ),OR,(R1,NZ),OR,(VTWRCMD,NZ),OR,(VTWFRNXT)),BEGIN
 007642 9620 6009      00009       49919  3                          SET   POSTRCVC            IF ERROR OR MORE PROCESSING NEEDED
 007646 47F0 73D8            077C2 49925  3                          B     DRCVEXIT            EXIT
 00764A                            49926  2                        END
000764A 9140 6006/47E0_00006       49931  2                        IF    (VTWFRCDI),'B DRCVEXIT' IF CDI, EXIT
 007656 5850 606C            0006C 49952  2                        L     R5,VTWORUC          ELSE FREE THE BUFFERS
1VETS     (VETS2025) (12:59) (15MAR04) Dispatcher Routines                      DRCVE - Receive Ended                       Page  154
0Current Usings:  (RPL,R4) (VTBHEAD,R5) (VTWA,R6) (*,R7) (CP,R11) (CV,R12)
0Loc    Object Code    Addr1 Addr2  Stmt Lv Lineno    Source Statement           (Hibal 5, Asmedit 3.3)  HLASM R4.0  2004/03/15 12.59
+___    ______ ____    _____ _____  ____ __ ______    ______ _________
0                                  49953  2                        WITH  (VTBHEAD,R5)
 00765A 1825                       49957  2                        LR    R2,R5
 00765C 1222/4780 72AC             49958  2                        WHILE (R2,NZ),BEGIN       WHILE IN BUFFERS
 007662 1852                       49974  3                          LR    R5,R2
 007664 5820 5004            00004 49975  3                          L     R2,VTBNEXT
 007668 1815                       49976  3                          LR    R1,R5
 00766A D503 7CB6 5000_080A0 00000 49977  3                          FAIL  (VTBID,NE,C'VTBH'),DRCVE,'BAD OUTBOUND BUFFER'
 00768C 58E0 7CBA/0DEE       080A4 50006  3                          VCALL FREECORE
 007692 47F0 7272            0765C 50010  2                        END   ,                   END IN BUFFERS
 007696 D703 606C 606C 0006C 0006C 50015  2                        CLEAR VTWORUC
000769C 47F0 73D2            077BC 50023  2                        B     DRCVSRCV            START A NEW RECEIVE
 0076A0                            50024  1                      END   ,                   END USER NOT ACTIVE
 0076A0                            50028                       END   ,                             END USER DATA
-0076A0 72BA/47F0 7340_076A0 0756A 50033                       ELSEIF (RPLCNTDF.RPLCNCEL),BEGIN    IF CANCEL
                                   50058  1           *QSNAP '*CANCEL'
 0076AC 9202 600A      0000A       50059  1                      SET   VTWRCAN
 0076B0 5810 606C            0006C 50065  1                      L     R1,VTWORUC                    ADD TO BUFFER CHAIN
 0076B4 1221/4770 72D4_            50066  1                      IF    ('LTR R2,R1',ZERO),'ST R5,VTWORUC'
 0076BE 72D8/47F0 72EC 076BE 076B8 50085  1                      ELSE  BEGIN
 DROP   VTBHEAD,R5                 50096  2                        WITH  (VTBHEAD,R1)
 USING  VTBHEAD,R1
 0076C2 1222/4780 72E8_            50117  2                        WHILE (R2,NZ),'LR R1,R2; L R2,VTBNEXT'
 0076D2 5050 1004            00004 50141  2                        ST    R5,VTBNEXT
 USING  VTBHEAD,R5                 50142  1                      END   ,
 DROP   VTBHEAD,R1
 0076D6 D703 5004 5004 00004 00004 50160  1                      CLEAR VTBNEXT
 0076DC D703 4020 4020 00020 00020 50167  1                      CLEAR RPLAREA             UNCHAIN FROM RPL
00076E2 9640 500E      0000E       50175  1                      SET   VTBFLIC             CANCEL ACTS AS LAST IN CHAIN
00076E6 5850 606C            0006C 50182  1                      L     R5,VTWORUC          SET DATA COUNTS TO ZERO
 0076EA 1255/4780 7314_            50183  1                      WHILE (R5,NZ),'CLEAR VTBCOUNT; L R5,VTBNEXT'
00076FE 9180 6004/47E0_00004       50214  1                      IF    (VTWFUACT),BEGIN    IF USER ACTIVE
 007706 9620 6009      00009       50229  2                        SET   POSTRCVC
 00770A 1B00/4110 6040_            50235  2                        POST  VTWAECB             POST AND EXIT
 007712 47F0 73D8            077C2 50241  2                        B     DRCVEXIT
 007716                            50242  1                      END   ,                   END USER ACTIVE
-                                         1
 007716 7330/47F0 7340 07716 07704 50247  1                      ELSE  BEGIN               ELSE USER NOT ACTIVE
 00771A 9140 6006/47E0_00006       50258  2                        IF    (VTWFRCDI),'B DRCVEXIT' IF CDI, EXIT
 007726 47F0 73D2            077BC 50279  2                        B     DRCVSRCV             ELSE START A NEW RECEIVE
 00772A                            50280  1                      END   ,                   END USER NOT ACTIVE
 00772A                            50284                       END   ,                             END CANCEL
-00772A 7344/47F0 7360_0772A 076AA 50289                       ELSEIF (RPLCNTDC.RPLLUS),BEGIN      IF LUS
                                   50314  1           *QSNAP '*LUS'
 007736 9203 600A      0000A       50315  1                      SET   VTWRLUS
1VETS     (VETS2025) (12:59) (15MAR04) Dispatcher Routines                      DRCVE - Receive Ended                       Page  155
0Current Usings:  (RPL,R4) (VTBHEAD,R5) (VTWA,R6) (*,R7) (CP,R11) (CV,R12)
0Loc    Object Code    Addr1 Addr2  Stmt Lv Lineno    Source Statement           (Hibal 5, Asmedit 3.3)  HLASM R4.0  2004/03/15 12.59
+___    ______ ____    _____ _____  ____ __ ______    ______ _________
000773A D203 607C 4058 0007C 00058 50321  1                      MVC   VTWRSENS,RPLRSENS             SAVE THE SENSE
 007740 D701 500A 500A 0000A 0000A 50322  1                      CLEAR VTBCOUNT
 007746 47F0 71E0            075CA 50329  1                      B     DRCVEUD1            HANDLE AS USER DATA
 00774A                            50330                       END   ,                             END LUS
-00774A 7364/47F0 73C4_0774A 07734 50335                       ELSEIF (RPLCNTDC.RPLBID),BEGIN      IF BID
                                   50360  1           *QSNAP '*BID'
 007756 9204 600A      0000A       50361  1                      SET VTWRBID
 00775A 9103 6006/4770_00006       50367  1                      IF    (~VTWFSR1*~VTWFSR2),'SET VTWFSR1'
 007766 9505 6008/4780_00008       50396  1                      IF    (VSCONT,OR,VSCONT1,OR,VSCONT2),BEGIN   IF CONTENTION
 00777E D703 6078 6078 00078 00078 50437  2                        CLEAR VTWSSENS           SET POSITIVE RESPONSE
 007784 9207 6008      00008       50444  2                        SET   VSCONT2
 007788 9180 6004/47E0_00004       50450  2                        IF    (VTWFUACT),BEGIN    IF USER IS ACTIVE
 007790 5800 608C            0008C 50465  3                          L     R0,VTWLNSAV         BREAK THE TERMINAL READ
 007794 58E0 7CAA/0DEE       08094 50466  3                          VCALL TBREAK
 00779A                            50470  2                        END   ,                   END USER IS ACTIVE
 00779A                            50474  1                      END   ,                                     END CONTENTION
000779A 73B4/47F0 73BA 0779A 0777C 50479  1                      ELSE  BEGIN               ELSE ERROR
 00779E D203 6078 7CBE 00078 080A8 50490  2                        MVC   VTWSSENS,=X'08130000' PERMISSION DENIED
 0077A4                            50491  1                      END   ,                   END ERROR
00077A4 D701 500A 500A 0000A 0000A 50496  1                      CLEAR VTBCOUNT
 0077AA 47F0 71E0            075CA 50503  1                      B     DRCVEUD1            HANDLE AS USER DATA
 0077AE                            50504                       END   ,                             END BID
-0077AE 73C8/47F0 73D2 077AE 07754 50509                       ELSE  BEGIN                         IF ANYTHING ELSE
 0077B2 D701 500A 500A 0000A 0000A 50520  1                      CLEAR VTBCOUNT
 0077B8 47F0 7182            0756C 50527  1                      B     DRCVEUD             HANDLE AS USER DATA
 0077BC                            50528                       END   ,                             END ENYTHING ELSE
-0077BC                            50533              DRCVSRCV LABEL                     START ANOTHER RECEIVE
                                   50535              *QSNAP '*START RECEIVE DATA FROM DISPATCHER ROUTINE'
 0077BC 58E0 7CC2/0DEE       080AC 50536                       ACALL SRECEIVE
00077C2                            50541              DRCVEXIT LABEL
 0077C2 18D8/9808 D004_            50543                       PEND
 DROP   VTBHEAD,R5
 USING  RPL,R5
 DROP   RPL,R4
 DROP   *,R7
1VETS     (VETS2025) (12:59) (15MAR04) Dispatcher Routines                        DSENDE - Send Ended                       Page  156
0Current Usings:  (RPL,R5) (VTWA,R6) (CP,R11) (CV,R12)
0Loc    Object Code    Addr1 Addr2  Stmt Lv Lineno    Source Statement           (Hibal 5, Asmedit 3.3)  HLASM R4.0  2004/03/15 12.59
+___    ______ ____    _____ _____  ____ __ ______    ______ _________
0                                  50583              *
                                   50584              **  DSENDE -- Asynchronous routine to process normal flow send
                                   50585              **            completions, to the application.
                                   50586              **
                                   50587              **
                                   50588              **    On entry:
                                   50589              **      R4 = @ RPL WHICH COMPLETED (CHECK HAS NOT BEEN DONE)
                                   50590              **      R6 = @ VTWA
                                   50591              **
                                   50592              **    On exit: VTWAECB and POSTREAS posted
                                   50593              *
0                                  50595              *
                                   50596              **    REGISTER USE FOR THIS ROUTINE:
                                   50597              **       R2 =
                                   50598              **       R3 =
                                   50599              **       R4 = RPL
                                   50600              **       R5 = DATA BUFFER
                                   50601              **       R6 = VTWA
                                   50602              *
                                   50603              *
00077D0 50E0 D000/9008_      00000 50605              DSENDE   PROC  ,                PROCESS SEND SCREEN ENDING
 USING  *,R7
                                   50644              *QSNAP '*ENTERED DSENDE'
 DROP   RPL,R5                     50645                       WITH  (RPL,R4)
 USING  RPL,R4
00077EA 5850 4020            00020 50667                       L     R5,RPLAREA
 0077EE 5B50 789E            08088 50668                       S     R5,=A(VTBDATA-VTBHEAD)
 USING  VTBHEAD,R5                 50669                       WITH  (VTBHEAD,R5)
00077F2 1814/4100 0002_            50683                       CHECK RPL=(R4)
0007802 1B22                       50691                       CLEAR R2
 007804 49F0 78EA/47D0_      080D4 50695                       IF    (R15,GT,=H'4'),'LH R1,=H"28"'
 007810 702A/47F0 7042 07810 0780A 50717                       ELSE  BEGIN
 007814 4900 78EE/4770_      080D8 50728  1                      IF    (R0,EQ,=H'24'),'LR R1,R0'
 00781E 7038/47F0 7042 0781E 0781A 50750  1                      ELSE  BEGIN
 007822 1F11/4310 400D             50761  2                        LC    R1,RPLRTNCD         R1 := RTNCD
 007828 4320 400E            0000E 50768  2                        IC    R2,RPLFDB2          R2 := FDBK2
 00782C                            50769  1                      END
 00782C                            50773                       END
 00782C 5910 78A2/47D0_      0808C 50777                       CEIL  R1,28
                                   50796              *QSNAP (R1,R2)
0007838 58F1 7056            07840 50798                       L     R15,DSENTABL(R1)
 00783C 07FF                       50799                       BR    R15                 BRANCH TO PROCESS
 00783E 0000
 007840 0000789E                   50800              DSENTABL DC    A(DSENNORM)         NORMAL
 007844 0000788C                   50801                       DC    A(DSENERR)          ERROR SYNAD
 007848 000078B2                   50802                       DC    A(DSENRTRY)         RETRY
 00784C 00007860                   50803                       DC    A(DSEINTEG)         ERROR INTEGRETY
 007850 00007904                   50804                       DC    A(DSENEXIT)         ERROR ENVIRONMENT
1VETS     (VETS2025) (12:59) (15MAR04) Dispatcher Routines                        DSENDE - Send Ended                       Page  157
0Current Usings:  (RPL,R4) (VTBHEAD,R5) (VTWA,R6) (*,R7) (CP,R11) (CV,R12)
0Loc    Object Code    Addr1 Addr2  Stmt Lv Lineno    Source Statement           (Hibal 5, Asmedit 3.3)  HLASM R4.0  2004/03/15 12.59
+___    ______ ____    _____ _____  ____ __ ______    ______ _________
0007854 0000787C                   50805                       DC    A(DSELOGIC)         ERROR LOGIC
 007858 0000788C                   50806                       DC    A(DSENERR)          ERROR BAD RPL
 00785C 00007904                   50807                       DC    A(DSENEXIT)         ERROR ACB NOT OPEN
-
 007860                            50809              DSEINTEG LABEL                     INTEGRITY ERROR
 007860 5920 78C6/4780_      080B0 50811                       IF    (R2,EQ,X'0B'),DSENEXIT
 007868 5920 78CA/4780_      080B4 50831                       IF    ((R2,EQ,X'0C'),OR,(R2,EQ,X'0D')),DSENNORM
 007878 47F0 70A2            0788C 50867                       B     DSENERR
000787C                            50869              DSELOGIC LABEL                     LOGIC ERROR
 00787C 5920 78D2/4780_      080BC 50871                       IF    ((R2,EQ,X'12'),OR,(R2,EQ,X'13')),DSENEXIT
 00788C                            50907              DSENERR  LABEL                                         ERROR RETURNED
 00788C D603 6080 6080_00080 00080 50909                       IF    (VTWSRTNC,Z),BEGIN
 007896 4010 6080            00080 50925  1                      STH   R1,VTWSRTN          SAVE RETURN CODES
 00789A 4020 6082            00082 50926  1                      STH   R2,VTWSFDBK
 00789E                            50927                       END
-00789E                            50932              DSENNORM LABEL                     NORMAL COMPLETION
 00789E 94F7 6006      00006       50934                       CLEAR VTWFSBBI            WE ARE IN BRACKET
00078A2 9640 6009      00009       50942                       SET   POSTSENC
 0078A6 1B00/4110 6040_            50948                       POST  VTWAECB             POST AND EXIT
 0078AE 47F0 711A            07904 50954                       B     DSENEXIT
-
 0078B2                            50956              DSENRTRY LABEL                     RETRY THE SEND
                                   50958              *QSNAP '*RESTART THE SEND DATA'
                                   50959                       AIF   ('&BRANCH' EQ 'NO').MODE8
 0078B2 0700/4510 70D2_            50960                       MODESET MODE=SUP              ********* ENTER SUPERVISOR STATE
 0078C2 1814/4100 0026_            50967              .MODE8   EXECRPL RPL=(R4)
 0078D2 182F                       50981                       LR    R2,R15
 0078D4 4510 70F2/0000_      078DC 50982                       MODESET MODE=PROB             ********* LEAVE SUPERVISOR STATE
0                                  50990              *QSNAP (R2)
 0078E2 1222/4770 7102_            50991                       IF    (R2,Z),'B DSENEXIT'           RETURN
00078EC 900F C780/4DE0_      00780 51012                       KAPUT  DSENDE,'RESTART SEND REFUSED'
0007904                            51020              DSENEXIT LABEL
 007904 18D8/9808 D004_            51022                       PEND
 DROP   VTBHEAD,R5
 USING  RPL,R5
 DROP   RPL,R4
 DROP   *,R7
1VETS     (VETS2025) (12:59) (15MAR04) Dispatcher Routines DRCVERE - Receive Expedited and RESP Ended                       Page  158
0Current Usings:  (RPL,R5) (VTWA,R6) (CP,R11) (CV,R12)
0Loc    Object Code    Addr1 Addr2  Stmt Lv Lineno    Source Statement           (Hibal 5, Asmedit 3.3)  HLASM R4.0  2004/03/15 12.59
+___    ______ ____    _____ _____  ____ __ ______    ______ _________
0                                  51062              *
                                   51063              **  DRCVERE -- Asynchronous routine to process Expedited Flow and
                                   51064              **             Response receive completion.
                                   51065              **
                                   51066              **
                                   51067              **    On entry:
                                   51068              **      R4 = @ RPL WHICH COMPLETED (CHECK HAS NOT BEEN DONE)
                                   51069              **      R6 = @ VTWA
                                   51070              **
                                   51071              **    On exit: Appropriate flags are set in VTWA, and the
                                   51072              **             receive is re-started.
                                   51073              *
0                                  51075              *
                                   51076              **    REGISTER USE FOR THIS ROUTINE:
                                   51077              **       R2 =
                                   51078              **       R3 =
                                   51079              **       R4 = RPL
                                   51080              **       R5 =
                                   51081              **       R6 = VTWA
                                   51082              *
                                   51083              *
0007912 50E0 D000/9008_      00000 51085              DRCVERE  PROC  ,                PROCESS RECEIVE EXP FLOW AND RESP
 USING  *,R7
                                   51124              *QSNAP '*ENTERED DRCVERE'
 DROP   RPL,R5                     51125                       WITH  (RPL,R4)
 USING  RPL,R4
000792C 1814/4100 0002_            51147                       CHECK RPL=(R4)
000793C 1B22                       51155                       CLEAR R2
 00793E 49F0 77A8/47D0_      080D4 51159                       IF    (R15,GT,=H'4'),'LH R1,=H"28"'
 00794A 7022/47F0 703A 0794A 07944 51181                       ELSE  BEGIN
 00794E 4900 77AC/4770_      080D8 51192  1                      IF    (R0,EQ,=H'24'),'LR R1,R0'
 007958 7030/47F0 703A 07958 07954 51214  1                      ELSE  BEGIN
 00795C 1F11/4310 400D             51225  2                        LC    R1,RPLRTNCD         R1 := RTNCD
 007962 4320 400E            0000E 51232  2                        IC    R2,RPLFDB2          R2 := FDBK2
 007966                            51233  1                      END
 007966                            51237                       END
 007966 5910 7760/47D0_      0808C 51241                       CEIL  R1,28
                                   51260              *QSNAP (R1,R2)
0007972 58F1 704C            07978 51262                       L     R15,DRERTABL(R1)
 007976 07FF                       51263                       BR    R15                 BRANCH TO PROCESS
 007978 000079A4                   51264              DRERTABL DC    A(DRERNORM)         NORMAL
 00797C 00007998                   51265                       DC    A(DRERSNAD)         ERROR SYNAD
 007980 00007AE8                   51266                       DC    A(DREREXIT)         RETRY
 007984 00007AE8                   51267                       DC    A(DREREXIT)         ERROR INTEGRETY
 007988 00007AE8                   51268                       DC    A(DREREXIT)         ERROR ENVIRONMENT
 00798C 00007AE8                   51269                       DC    A(DREREXIT)         ERROR LOGIC
 007990 00007AE8                   51270                       DC    A(DREREXIT)         ERROR BAD RPL
 007994 00007AE8                   51271                       DC    A(DREREXIT)         ERROR ACB NOT OPEN
1VETS     (VETS2025) (12:59) (15MAR04) Dispatcher Routines DRCVERE - Receive Expedited and RESP Ended                       Page  159
0Current Usings:  (RPL,R4) (VTWA,R6) (*,R7) (CP,R11) (CV,R12)
0Loc    Object Code    Addr1 Addr2  Stmt Lv Lineno    Source Statement           (Hibal 5, Asmedit 3.3)  HLASM R4.0  2004/03/15 12.59
+___    ______ ____    _____ _____  ____ __ ______    ______ _________
0
 007998                            51273              DRERSNAD LABEL                     SYNAD ERROR
 007998 5920 7798/4780_      080C4 51275                       IF    (R2,EQ,X'04'),NEGRESP
 0079A0 47F0 71BC            07AE8 51295                       B     DREREXIT
00079A4                            51297              DRERNORM LABEL                     NORMAL COMPLETION
00079A4 9108 4011/47E0_00011       51300                       IF    (RPLSRTYP.RPLRRESP),BEGIN     IF RESPONSE
 0079AC 9104 4014/4780_00014       51316  1                      IF    (RPLERI),BEGIN      IF NEG RESPONSE
 0079B4 D203 607C 4058 0007C 00058 51331  2           NEGRESP      MVC   VTWRSENS,RPLRSENS
 0079BA 47F0 70DE            07A0A 51332  2                        B     DRERRCV             BR TO RESTART RECEIVE
 0079BE                            51333  1                      END   ,                   END NEG RESPONSE
 0079BE                            51337                       END   ,                             END RESPONSE
00079BE 9102 4011/47E0_00011       51342                       IF    (RPLSRTYP.RPLDFASY),BEGIN     IF EXPEDITED FLOW
 0079C6 9110 4016/47E0_00016       51358  1                      IF    (RPLCNTDC.RPLSIGNL),BEGIN     IF SIGNAL
                                   51374  2           *QSNAP '*SIGNAL'
 0079CE D501 77AE 406C_080DA 0006C 51375  2                        IF    (RPLSIGDA,EQ,X'0001'),BEGIN   IF ATTN
 0079D8 9610 6004      00004       51392  3                          SET   VTWFHATT
 0079DC 9508 6008/4770_00008       51398  3                          IF    (VSINB),BEGIN                 IF STATE IS INBOUND
 0079E4 5800 608C            0008C 51413  4                            L     R0,VTWLNSAV         SEND BREAK TO BREAK TERMINAL READ
 0079E8 58E0 7768/0DEE       08094 51414  4                            VCALL TBREAK
 0079EE                            51418  3                          END   ,                             END STATE INBOUND
 0079EE                            51422  2                        END   ,                             END ATTN
 0079EE                            51426  1                      END   ,                             END SIGNAL
00079EE 70C6/47F0 70DE_079EE 079CC 51431  1                      ELSEIF (RPLCNTSC.RPLSHUTD),BEGIN    IF SHUTDOWN
                                   51456  2           *QSNAP '*SHUTD'
 0079FA 9608 6005/9602_00005       51457  2                        SET   VTWFSHUT,POSTSHUT
 007A02 1B00/4110 6040_            51467  2                        POST  VTWAECB                       POST
0007A0A                            51474  1                      END   ,                             END SHUTDOWN
 007A0A                            51478                       END   ,                             END EXPEDITIE FLOW
0                                  51483              *                                            IGNORE ANYTHING ELSE
0007A0A                            51485              DRERRCV  LABEL                               RESTART THE RECEIVE
                                   51487              *QSNAP '*START RECEIVE EXPEDITED'
                                   51488                       AIF   ('&BRANCH' EQ 'NO').MODE7
 007A0A 0700/4510 70E8_            51489                       MODESET MODE=SUP              ********* ENTER SUPERVISOR STATE
 007A1A 5820 779C            080C8 51496              .MODE7   L     R2,=A(SRBROUT)
                                   51497            C          RECEIVE RPL=(R4),
                                                    C                OPTCD=(ASY,CA,ANY,NIBTK,Q),AREALEN=0,
 007A1E 1814/91FF 1045_                                              RTYPE=(NDFSYN,DFASY,RESP),BRANCH=&BRANCH,EXIT=(R2)
 007AB6 182F                       51594                       LR    R2,R15
 007AB8 4510 7194/0000_      07AC0 51595                       MODESET MODE=PROB             ********* LEAVE SUPERVISOR STATE
0                                  51603              *QSNAP (R2)
 007AC6 1222/4770 71A4_            51604                       IF    (R2,Z),'EXIT DRCVERE'         RETURN
0007AD0 900F C780/4DE0_      00780 51627                       KAPUT  DRCVERE,'RECEIVE REFUSED'
0007AE8                            51635              DREREXIT LABEL
 007AE8 18D8/9808 D004_            51637                       PEND
1VETS     (VETS2025) (12:59) (15MAR04) Dispatcher Routines DRCVERE - Receive Expedited and RESP Ended                       Page  160
0Current Usings:  (RPL,R5) (VTWA,R6) (CP,R11) (CV,R12)
0Loc    Object Code    Addr1 Addr2  Stmt Lv Lineno    Source Statement           (Hibal 5, Asmedit 3.3)  HLASM R4.0  2004/03/15 12.59
+___    ______ ____    _____ _____  ____ __ ______    ______ _________
0USING  RPL,R5
 DROP   RPL,R4
 DROP   *,R7
1VETS     (VETS2025) (12:59) (15MAR04) Dispatcher Routines              DBREAK - Issue Terminal BREAK                       Page  161
0Current Usings:  (RPL,R5) (VTWA,R6) (CP,R11) (CV,R12)
0Loc    Object Code    Addr1 Addr2  Stmt Lv Lineno    Source Statement           (Hibal 5, Asmedit 3.3)  HLASM R4.0  2004/03/15 12.59
+___    ______ ____    _____ _____  ____ __ ______    ______ _________
0                                  51672              *
                                   51673              **  DBREAK -- Asynchronous routine to issue BREAK to terminal
                                   51674              **            Used when an UNBIND is received on the VTAM session.
                                   51675              **            No check is done to insure that terminal is actually
                                   51676              **            in a read state.
                                   51677              **
                                   51678              **
                                   51679              **    On entry:
                                   51680              **      R4 = @ RPL
                                   51681              **      R6 = @ VTWA
                                   51682              **
                                   51683              **    ON EXIT: BREAK HAS BEEN SENT TO TERMINAL.
                                   51684              *
0                                  51686              *
                                   51687              **    REGISTER USE FOR THIS ROUTINE:
                                   51688              **       R2 =
                                   51689              **       R3 =
                                   51690              **       R4 = @RPL
                                   51691              **       R5 = @ACB
                                   51692              **       R6 = VTWA
                                   51693              *
                                   51694              *
0007AF6 50E0 D000/9008_      00000 51696              DBREAK   PROC  ,                ISSUE TERMINAL BREAK
 USING  *,R7
                                   51735              *QSNAP '*ENTERED DBREAK'
 DROP   RPL,R5                     51736                       WITH  (RPL,R4)
 USING  RPL,R4
 007B10 5850 4018            00018 51757                       L     R5,RPLDACB          IS ACB STILL OPEN
 USING  ACB,R5                     51758                       WITH  (ACB,R5)
 007B14 9110 5030/47E0_00030       51771                       IF    (ACBOFLGS.ACBOPEN),BEGIN IF ACB IS OPEN
 007B1C 9180 6004/47E0_00004       51787  1                      IF    (VTWFUACT),BEGIN    IF USER IS ACTIVE
 007B24 5800 608C            0008C 51802  2                        L     R0,VTWLNSAV         BREAK THE TERMINAL READ
 007B28 58E0 7584/0DEE       08094 51803  2                        VCALL TBREAK
 007B2E                            51807  1                      END   ,                   END USER IS ACTIVE
 007B2E                            51811                       END   ,                        END ACB IS OPEN
0007B2E 18D8/9808 D004_            51816                       PEND
 DROP   ACB,R5
 USING  RPL,R5
 DROP   RPL,R4
 DROP   *,R7
 DROP   CV,R12                     51855                       DROP
 DROP   CP,R11
 DROP   VTWA,R6
 DROP   RPL,R5
1VETS     (VETS2025) (12:59) (15MAR04) ACB Exit Routines                       EXLST - Address vector                       Page  162
0Loc    Object Code    Addr1 Addr2  Stmt Lv Lineno    Source Statement           (Hibal 5, Asmedit 3.3)  HLASM R4.0  2004/03/15 12.59
+___    ______ ____    _____ _____  ____ __ ______    ______ _________
0                                  51901              *                                  ACB EXIT LIST - ADDRESS VECTOR
-
-
                                   51903            C ALIST    EXLST AM=VTAM,TPEND=TPEND,LOSTERM=LOSTERM,SCIP=SCIP,
 007B3C 81/20/0046/00/00_                                            NSEXIT=NSEXIT
1VETS     (VETS2025) (12:59) (15MAR04) ACB Exit Routines                  TPEND - Teleprocesing Ended                       Page  163
0Loc    Object Code    Addr1 Addr2  Stmt Lv Lineno    Source Statement           (Hibal 5, Asmedit 3.3)  HLASM R4.0  2004/03/15 12.59
+___    ______ ____    _____ _____  ____ __ ______    ______ _________
0                                  51937              *
                                   51938              **  TPEND -- IRB Asynchronous routine which receives control when
                                   51939              **           VTAM termintes.
                                   51940              **
                                   51941              **    On entry:
                                   51942              **      R1  = @ parameter list
                                   51943              **      R14 = address to return to
                                   51944              **      R15 = address of entry
                                   51945              **      There is NO R13 save area
                                   51946              **
                                   51947              **    On exit: MAINLINE is posted.
                                   51948              *
0                                  51950              *
                                   51951              **    REGISTER USE FOR THIS ROUTINE:
                                   51952              **       R2 =
                                   51953              **       R3 =
                                   51954              **       R4 = RETURN ADDRESS
                                   51955              **       R5 = @ ACB
                                   51956              **       R6 = @ VTWA
                                   51957              *
0007B82                            51959              TPEND    LABEL                     VTAM IS ENDING
 007B82 187F                       51961                       LR    BR,R15
 USING  TPEND,R7                   51962                       USING TPEND,BR
                                   51971              *QSNAP '*ENTERED TPEND'
 007B84 184E                       51972                       LR    R4,R14
 007B86 5850 1000            00000 51973                       L     R5,@R1
 USING  ACB,R5                     51974                       USING ACB,R5
 007B8A 5860 5084            00084 51983                       L     R6,ACBWVTWA
 USING  VTWA,R6                    51984                       USING VTWA,R6
 007B8E 58B0 6088            00088 51993                       L     CPR,VTWCPSAV
 USING  CP,R11                     51994                       USING CP,CPR
 007B92 58C0 754A            080CC 52003                       L     CVR,=V(CV)
 USING  CV,R12                     52004                       USING CV,CVR
0007B96 920E 6008/9601_00008       52014                       SET   VSVEND,VTWFTEND,POSTLOST  SET THE VTAM STATE
 007BA2 1B00/4110 6040_            52028                       POST  VTWAECB             POST MAINLINE
0007BAA 18E4                       52035                       LR    R14,R4              RETURN
 007BAC 07FE                       52036                       BR    R14
0DROP   CV,R12                     52038                       DROP
 DROP   CP,R11
 DROP   TPEND,R7
 DROP   VTWA,R6
 DROP   ACB,R5
1VETS     (VETS2025) (12:59) (15MAR04) ACB exit Routines                      LOSTERM - Lost Terminal                       Page  164
0Loc    Object Code    Addr1 Addr2  Stmt Lv Lineno    Source Statement           (Hibal 5, Asmedit 3.3)  HLASM R4.0  2004/03/15 12.59
+___    ______ ____    _____ _____  ____ __ ______    ______ _________
0                                  52087              *
                                   52088              **  LOSTERM -- IRB Asynchronous routine which receives control when
                                   52089              **             the application program is terminated.
                                   52090              **
                                   52091              **    On entry:
                                   52092              **      R1  = @ parameter list
                                   52093              **      R14 = address to return to
                                   52094              **      R15 = address of entry
                                   52095              **      There is NO R13 save area
                                   52096              **
                                   52097              **    On exit: MAINLINE is posted.
                                   52098              *
0                                  52100              *
                                   52101              **    REGISTER USE FOR THIS ROUTINE:
                                   52102              **       R2 =
                                   52103              **       R3 =
                                   52104              **       R4 = RETURN ADDRESS
                                   52105              **       R5 = @ ACB
                                   52106              **       R6 = @ VTWA
                                   52107              *
0007BAE                            52109              LOSTERM  LABEL                     LOST TERMINAL
 007BAE 187F                       52111                       LR    BR,R15
 USING  LOSTERM,R7                 52112                       USING LOSTERM,BR
                                   52121              *QSNAP '*ENTERED LOSTERM'
 007BB0 184E                       52122                       LR    R4,R14
 007BB2 5850 1000            00000 52123                       L     R5,@R1
 USING  ACB,R5                     52124                       USING ACB,R5
 007BB6 5860 5084            00084 52133                       L     R6,ACBWVTWA
 USING  VTWA,R6                    52134                       USING VTWA,R6
 007BBA 58B0 6088            00088 52143                       L     CPR,VTWCPSAV
 USING  CP,R11                     52144                       USING CP,CPR
 007BBE 58C0 751E            080CC 52153                       L     CVR,=V(CV)
 USING  CV,R12                     52154                       USING CV,CVR
0007BC2 920C 6008/9604_00008       52164                       SET   VSLOSTER,VTWFLOST,POSTLOST   SET THE STATE
 007BCE 1B00/4110 6040_            52178                       POST  VTWAECB             POST MAINLINE
 007BD6 18E4                       52184                       LR    R14,R4              RETURN
 007BD8 07FE                       52185                       BR    R14
0DROP   CV,R12                     52187                       DROP
 DROP   CP,R11
 DROP   LOSTERM,R7
 DROP   VTWA,R6
 DROP   ACB,R5
1VETS     (VETS2025) (12:59) (15MAR04) ACB Exit Routines    SCIP - Session Control Inbound Processing                       Page  165
0Loc    Object Code    Addr1 Addr2  Stmt Lv Lineno    Source Statement           (Hibal 5, Asmedit 3.3)  HLASM R4.0  2004/03/15 12.59
+___    ______ ____    _____ _____  ____ __ ______    ______ _________
0                                  52236              *
                                   52237              **  SCIP -- IRB Asynchronous routine which receives control when
                                   52238              **          certian session control information is received
                                   52239              **
                                   52240              **    On entry:
                                   52241              **      R1  = @ parameter list
                                   52242              **      R14 = address to return to
                                   52243              **      r15 = address of entry
                                   52244              **      There is NO R13 save area
                                   52245              **
                                   52246              **    On exit: MAINLINE is posted.
                                   52247              *
0                                  52249              *
                                   52250              **    REGISTER USE FOR THIS ROUTINE:
                                   52251              **       R2 =
                                   52252              **       R3 =
                                   52253              **       R4 =
                                   52254              **       R5 = @ ACB
                                   52255              **       R6 = @ VTWA
                                   52256              **       R7 = BR
                                   52257              **       R8 = RETURN ADDRESS
                                   52258              **       R9 = @ RU
                                   52259              *
0007BDA                            52261              SCIP     LABEL                     SESSION CONTROL RECEIVED
 007BDA 187F                       52263                       LR    BR,R15
 USING  SCIP,R7                    52264                       USING SCIP,BR
                                   52273              *QSNAP '*ENTERED SCIP'
 007BDC 188E                       52274                       LR    R8,R14
 007BDE 5850 1000            00000 52275                       L     R5,@R1
 USING  ACB,R5                     52276                       USING ACB,R5
 007BE2 5860 5084            00084 52285                       L     R6,ACBWVTWA
 USING  VTWA,R6                    52286                       USING VTWA,R6
 007BE6 58B0 6088            00088 52295                       L     CPR,VTWCPSAV
 USING  CP,R11                     52296                       USING CP,CPR
 007BEA 58C0 74F2            080CC 52305                       L     CVR,=V(CV)
 USING  CV,R12                     52306                       USING CV,CVR
 007BEE 5830 1010            00010 52315                       L     R3,@R1+16
 USING  RPL,R3                     52316                       USING RPL,R3
0007BF2 5890 3020            00020 52326                       L     R9,RPLAREA          R9 := @ RU
0007BF6 9108 3016/47E0_00016       52328                       IF    (RPLCNTDC.RPLTBIND),BEGIN     IF BIND
                                   52344  1           *QSNAP '*BIND RECEIVED'
 007BFE 9110 6005/47E0_00005       52345  1                      IF    (VTWFBUSQ),'CLEAR VTWFBUSQ'
 007C0A 7034/47F0 7038_07C0A 07C04 52372  1                      ELSE  'SET VTWFBUSQ'
 007C12 5890 100C            0000C 52394  1                      L     R9,@R1+12           R9 := @ BIND IMAGE
 USING  ISTDBIND,R9                52395  1                      WITH  (ISTDBIND,R9)
 007C16 5810 6048/1211_      00048 52408  1                      IF    ('LT R1,VTWBINDP',Z),BEGIN
 007C20 4100 0024/4510_      00024 52424  2                        GETMAIN R,LV=36           GET AREA FOR BIND IMAGE
0007C2A 12FF/4770 705A_            52430  2                        IF    (R15,Z),'ST R1,VTWBINDP'
 007C34 705E/47F0 7060_07C34 07C2E 52450  2                        ELSE  'CLEAR R1'
 007C3A                            52470  1                      END
1VETS     (VETS2025) (12:59) (15MAR04) ACB Exit Routines    SCIP - Session Control Inbound Processing                       Page  166
0Current Usings:  (RPL,R3) (ACB,R5) (VTWA,R6) (SCIP,R7) (ISTDBIND,R9) (CP,R11) (CV,R12)
0Loc    Object Code    Addr1 Addr2  Stmt Lv Lineno    Source Statement           (Hibal 5, Asmedit 3.3)  HLASM R4.0  2004/03/15 12.59
+___    ______ ____    _____ _____  ____ __ ______    ______ _________
0007C3A 1211/4780 706C             52475  1                      IF    (R1,NZ),BEGIN
 007C40 D223 1000 9000 00000 00000 52489  2                        MVC   @R1(36),ISTDBIND    COPY THE BIND IMAGE
 007C46                            52490  1                      END
0007C46 9204 6008/9610_00008       52495  1                      SET   VSWFSDT,POSTBIND    SET THE VTAM STATE
 007C4E 1B00/4110 6040_            52505  1                      POST  VTWAECB             POST MAINLINE
 DROP   ISTDBIND,R9                52511                       END   ,                             END BIND
0007C56 7080/47F0 7112_07C56 07BFC 52521                       ELSEIF (RPLCNTDC.RPLTUNBD),BEGIN    IF UNBIND
                                   52546  1           *QSNAP '*UNBIND RECEIVED'
 007C62 9501 9001/4770_00001       52547  1                      IF     (@R9+1,EQ,X'01'),'SET VSUNBIND' IF NORMAL LOGOFF
 007C6E 7098/47F0 70B4_07C6E 07C68 52574  1                      ELSEIF (@R9+1,EQ,X'02'),BEGIN          ELSE CLSDST PASS
                                   52599  2           *QSNAP '*PASS'
 007C7A 9110 6005/4710_00005       52600  2                        IF    (~VTWFBUSQ),BEGIN             IF MISSING UNBIND
 007C82 47F0 7166            07D40 52615  3                          B     SCIPRETN                      IGNORE
 007C86                            52616  2                        END   ,                             END MISSING UNBIND
0007C86 9203 6008      00008       52621  2                        SET   VSWFBIND
 007C8A 94EF 6005      00005       52627  2                        CLEAR VTWFBUSQ
 007C8E                            52634  1                      END   ,                                END CLSDST PASS
0007C8E 70B8/47F0 70C0_07C8E 07C78 52639  1                      ELSE   'SET VSLOSTER,VTWFLOST'
0007C9A 9608 6009      00009       52666  1                      SET   POSTUBIR
 007C9E 1B00/4110 6040_            52672  1                      POST  VTWAECB             POST MAINLINE
 007CA6 9180 6004/47E0_00004       52678  1                      IF    (VTWFUACT),BEGIN    IF USER IS ACTIVE
                                   52693  2           *                                  BREAK THE TERMINAL READ
 007CAE 5810 6058            00058 52694  2                        L     R1,VTWAACBP
 007CB2 5810 10B0            000B0 52695  2                        WITH  (ACB,R1),'L R1,ACBBTRPL'   SCHEDULE DISPATCHER ROUTINE
 DROP   ACB,R5
 USING  ACB,R1
 USING  ACB,R5
 DROP   ACB,R1
 DROP   RPL,R3                     52736  2                        WITH  (RPL,R1)                   USING THE PHONY RPL
 USING  RPL,R1
 007CB6 9201 1002      00002       52757  2                        MVI   RPLREQ,X'01'               FUNNY CODE
0DROP   ACB,R5                     52759  2                        DROP  R5
 007CBA                            52766  2                        LOOP  BEGIN               QUEUE THE RPL
 007CBA D703 1080 1080 00080 00080 52772  3                          CLEAR RPLWNEXT
 007CC0 9823 C0C8            000C8 52779  3                          LM    R2,R3,CVVTAMQH
 007CC4 1242                       52780  3                          LTR   R4,R2
 007CC6 4770 70F4/1841_      07CCE 52781  3                          IF    (Z),'LR R4,R1; LR R5,R1'
 007CCE 70F8/47F0 70FE 07CCE 07CC8 52799  3                          ELSE  BEGIN
 007CD2 5010 3080            00080 52810  4                            WITH  (RPL,R3),'ST R1,RPLWNEXT'
 USING  RPL,R3
 DROP   RPL,R3
 007CD6 1851                       52834  4                            LR    R5,R1
 007CD8                            52835  3                          END
 007CD8 BB24 C0C8            000C8 52839  3                          CDS   R2,R4,CVVTAMQH
 007CDC 4780 710A            07CE4 52840  3                          IF    (EQ),EXIT
 007CE0 47F0 70E0            07CBA 52854  2                        END   ,                   END QUEUE THE RPL
0007CE4 1B00/4110 C720_            52860  2                        POST  CVECB
1VETS     (VETS2025) (12:59) (15MAR04) ACB Exit Routines    SCIP - Session Control Inbound Processing                       Page  167
0Current Usings:  (RPL,R3) (VTWA,R6) (SCIP,R7) (CP,R11) (CV,R12)
0Loc    Object Code    Addr1 Addr2  Stmt Lv Lineno    Source Statement           (Hibal 5, Asmedit 3.3)  HLASM R4.0  2004/03/15 12.59
+___    ______ ____    _____ _____  ____ __ ______    ______ _________
0USING  RPL,R3                     52866  1                      END   ,                   END USER IS ACTIVE
 DROP   RPL,R1
0007CEC                            52885                       END   ,                             END UNBIND
0007CEC 7116/47F0 7146_07CEC 07C60 52890                       ELSEIF (RPLCNTSC.RPLSDT),BEGIN      IF START DATA TRAFFIC
                                   52915  1           *QSNAP '*START DATA TRAFFIC RECEIVED'
 007CF8 9504 6008/4770_00008       52916  1                      IF    (~VSWFSDT),SCIPRETN           IF NOT WAITING, IGNORE
 007D00 9680 6009      00009       52934  1                      SET   POSTSDT
 007D04 9104 6007/47E0_00007       52940  1                      IF    (VTWFKLOK),'SET VSCONT1'  SET CONTENTION
 007D10 713A/47F0 713E_07D10 07D0A 52966  1                      ELSE  'SET VSCONT'
 007D18 1B00/4110 6040_            52988  1                      POST  VTWAECB
 007D20                            52994                       END   ,                             END START DATA TRAFFIC
0007D20 714A/47F0 7156_07D20 07CF6 52999                       ELSEIF (RPLCNTSC.RPLCLEAR),BEGIN    IF CLEAR
                                   53024  1           *QSNAP '*CLEAR RECEIVED'
 007D2C 47F0 7166            07D40 53025  1                      B     SCIPRETN                      IGNORE
 007D30                            53026                       END
0007D30 715A/47F0 7166_07D30 07D2A 53031                       ELSEIF (RPLCNTSC.RPLSTSN),BEGIN     IF STSN
                                   53056  1           *QSNAP '*STSN RECEIVED'
 007D3C 47F0 7166            07D40 53057  1                      B     SCIPRETN                      IGNORE
 007D40                            53058                       END
0007D40 18E8                       53063              SCIPRETN LR    R14,R8              RETURN
 007D42 07FE                       53064                       BR    R14
0DROP   CV,R12                     53066                       DROP
 DROP   CP,R11
 DROP   SCIP,R7
 DROP   VTWA,R6
 DROP   RPL,R3
1VETS     (VETS2025) (12:59) (15MAR04) ACB Exit Routines        NSEXIT - Network Services RU recdived                       Page  168
0Loc    Object Code    Addr1 Addr2  Stmt Lv Lineno    Source Statement           (Hibal 5, Asmedit 3.3)  HLASM R4.0  2004/03/15 12.59
+___    ______ ____    _____ _____  ____ __ ______    ______ _________
0                                  53115              *
                                   53116              **  NSEXIT -- IRB Asynchronous routine which receives control when
                                   53117              **            certian Network Service Request Units are received.
                                   53118              **
                                   53119              **    On entry:
                                   53120              **      R1  = @ parameter list
                                   53121              **      R14 = address to return to
                                   53122              **      r15 = address of entry
                                   53123              **      There is NO R13 save area
                                   53124              **
                                   53125              **    On exit: MAINLINE is posted.
                                   53126              *
0                                  53128              *
                                   53129              **    REGISTER USE FOR THIS ROUTINE:
                                   53130              **       R2 = @ RU
                                   53131              **       R3 = @ RPL
                                   53132              **       R4 = RETURN ADDRESS
                                   53133              **       R5 = @ ACB
                                   53134              **       R6 = @ VTWA
                                   53135              *
0007D44                            53137              NSEXIT   LABEL                     NETWORK SERVICE RU RECEIVED
 007D44 187F                       53139                       LR    BR,R15
 USING  NSEXIT,R7                  53140                       USING NSEXIT,BR
                                   53149              *QSNAP '*ENTERED NSEXIT'
 007D46 184E                       53150                       LR    R4,R14
 007D48 5850 1000            00000 53151                       L     R5,@R1
 USING  ACB,R5                     53152                       USING ACB,R5
 007D4C 5860 5084            00084 53161                       L     R6,ACBWVTWA
 USING  VTWA,R6                    53162                       USING VTWA,R6
 007D50 58B0 6088            00088 53171                       L     CPR,VTWCPSAV
 USING  CP,R11                     53172                       USING CP,CPR
 007D54 58C0 7388            080CC 53181                       L     CVR,=V(CV)
 USING  CV,R12                     53182                       USING CV,CVR
 007D58 5830 1010            00010 53191                       L     R3,@R1+16
 USING  RPL,R3                     53192                       USING RPL,R3
0007D5C 5820 3020            00020 53202                       L     R2,RPLAREA          R2 := @ RU
0007D60 D502 7398 2000_080DC 00000 53204                       IF    (@R2,EQ,X'810629'),BEGIN      IF CLEANUP
                                   53220  1           *QSNAP '*CLEANUP RECEIVED'
 007D6A 920D 6008/9602_00008       53221  1                      SET   VSCLEAN,VTWFCLNU,POSTLOST
 007D76                            53235                       END
0007D76 7036/47F0 704C_07D76 07D68 53240                       ELSEIF (@R2,EQ,X'81062003'),BEGIN   IF NOTIFY
                                   53265  1           *QSNAP '*NOTIFY RECEIVED'
 007D84 920D 6008/9602_00008       53266  1                      SET   VSCLEAN,VTWFCLNU,POSTLOST
 007D90                            53280                       END
0007D90 7050/47F0 7066_07D90 07D82 53285                       ELSEIF (@R2,EQ,X'010604'),BEGIN     IF NSPE (PROCEDURE ERROR)
                                   53310  1           *QSNAP '*NSPE RECEIVED'
 007D9E 920D 6008/9602_00008       53311  1                      SET   VSCLEAN,VTWFCLNU,POSTLOST
 007DAA                            53325                       END
0007DAA 706A/47F0 7074 07DAA 07D9C 53330                       ELSE  BEGIN                         ELSE NOT UNDERSTOOD
1VETS     (VETS2025) (12:59) (15MAR04) ACB Exit Routines        NSEXIT - Network Services RU recdived                       Page  169
0Current Usings:  (RPL,R3) (ACB,R5) (VTWA,R6) (NSEXIT,R7) (CP,R11) (CV,R12)
0Loc    Object Code    Addr1 Addr2  Stmt Lv Lineno    Source Statement           (Hibal 5, Asmedit 3.3)  HLASM R4.0  2004/03/15 12.59
+___    ______ ____    _____ _____  ____ __ ______    ______ _________
0007DAE 1B00                       53341  1                      CLEAR R0
 007DB0 41F0 0004            00004 53345  1                      LA    R15,4               NOT UNDERSTOOD
 007DB4 18E4                       53346  1                      LR    R14,R4              RETURN
 007DB6 07FE                       53347  1                      BR    R14
 007DB8                            53348                       END
0007DB8 1B00/4110 6040_            53353                       POST  VTWAECB             POST MAINLINE
 007DC0 1B00/1BFF                  53359                       CLEAR R0,R15              UNDERSTOOD
 007DC4 18E4                       53365                       LR    R14,R4              RETURN
 007DC6 07FE                       53366                       BR    R14
0DROP   CV,R12                     53368                       DROP
 DROP   CP,R11
 DROP   NSEXIT,R7
 DROP   VTWA,R6
 DROP   ACB,R5
 DROP   RPL,R3
1VETS     (VETS2025) (12:59) (15MAR04) SRB Exit Routine                 SRBROUT - RPL operation ended                       Page  170
0Loc    Object Code    Addr1 Addr2  Stmt Lv Lineno    Source Statement           (Hibal 5, Asmedit 3.3)  HLASM R4.0  2004/03/15 12.59
+___    ______ ____    _____ _____  ____ __ ______    ______ _________
0                                  53420              *
                                   53421              **  SRBROUT -- SRB Asynchronous routine which is dispatched by VTAM
                                   53422              **              when an asynchronous SEND or RECEIVE RPL operation
                                   53423              **              completes.
                                   53424              **
                                   53425              **    On entry:
                                   53426              **      R1  = @ RPL
                                   53427              **      R14 = address to return to
                                   53428              **      R15 = address of entry
                                   53429              **      There is NO R13 save area
                                   53430              **
                                   53431              **    ON EXIT: VTAMDISP is scheduled to run as a dispatcher routine
                                   53432              **             using the RPL as a Q element.
                                   53433              *
0                                  53435              *
                                   53436              **    REGISTER USE FOR THIS ROUTINE:
                                   53437              **       R2 = OLD CVVTAMQH
                                   53438              **       R3 = OLD CVVTAMQT
                                   53439              **       R4 = NEW CVVTAMQH
                                   53440              **       R5 = NEW CVVTAMQT
                                   53441              **       R6 = @ RPL
                                   53442              **       R8 = R14 SAVE
                                   53443              *
0007DC8                            53445              SRBROUT  LABEL                     RPL HAS COMPLETED
 007DC8 187F                       53447                       LR    BR,R15
 USING  SRBROUT,R7                 53448                       USING SRBROUT,BR
 007DCA 188E                       53457                       LR    R8,R14
 007DCC 58C0 7304            080CC 53458                       L     CVR,=V(CV)
 USING  CV,R12                     53459                       USING CV,CVR
 007DD0 1861                       53468                       LR    R6,R1
 USING  RPL,R6                     53469                       USING RPL,R6
0007DD2                            53479                       LOOP  BEGIN               QUEUE THE RPL
 007DD2 D703 6080 6080 00080 00080 53485  1                      CLEAR RPLWNEXT
 007DD8 9823 C0C8            000C8 53492  1                      LM    R2,R3,CVVTAMQH
 007DDC 1242                       53493  1                      LTR   R4,R2
 007DDE 4770 701E/1846_      07DE6 53494  1                      IF    (Z),'LR R4,R6; LR R5,R6'
 007DE6 7022/47F0 7028 07DE6 07DE0 53512  1                      ELSE  BEGIN
 007DEA 5060 3080            00080 53523  2                        WITH  (RPL,R3),'ST R6,RPLWNEXT'
 DROP   RPL,R6
 USING  RPL,R3
 USING  RPL,R6
 DROP   RPL,R3
 007DEE 1856                       53564  2                        LR    R5,R6
 007DF0                            53565  1                      END
 007DF0 BB24 C0C8            000C8 53569  1                      CDS   R2,R4,CVVTAMQH
 007DF4 4780 7034            07DFC 53570  1                      IF    (EQ),EXIT
 007DF8 47F0 700A            07DD2 53584                       END   ,                   END QUEUE THE RPL
0                                  53590                       AIF   ('&BRANCH' EQ 'NO').MODE9
                                   53591            C LOCK     SETLOCK OBTAIN,TYPE=LOCAL,MODE=UNCOND,REGS=USE,
 007DFC 18FB/180C/181D_                                              RELATED=(LOCAL,AUTHPATH(UNLOCK))
 007E14 1BAA/41B0 C720_            53605                       POST  CVECB,LINKAGE=BRANCH  Post WYLBUR
                                   53613            C UNLOCK   SETLOCK RELEASE,TYPE=LOCAL,REGS=USE,
1VETS     (VETS2025) (12:59) (15MAR04) SRB Exit Routine                 SRBROUT - RPL operation ended                       Page  171
0Current Usings:  (RPL,R6) (SRBROUT,R7) (CV,R12)
0Loc    Object Code    Addr1 Addr2  Stmt Lv Lineno    Source Statement           (Hibal 5, Asmedit 3.3)  HLASM R4.0  2004/03/15 12.59
+___    ______ ____    _____ _____  ____ __ ______    ______ _________
0007E24 18FB/180C/181D_                                              RELATED=(LOCAL,AUTHPATH(LOCK))
                                   53627                       AGO   .MODE10
 007E3C 18E8                       53628              .MODE10  LR    R14,R8
 007E3E 07FE                       53629                       BR    R14                 RETURN
 DROP   CV,R12                     53630                       DROP
 DROP   SRBROUT,R7
 DROP   RPL,R6
0                                  53673                       VLTORG
 008088                            53712                       END .
 008088 00000010                   53715                             =A(VTBDATA-VTBHEAD)
 00808C 0000001C                   53716                             =A(28)
 008090 00000003                   53717                             =A(X'03')
 008094 00000000                   53718                             =V(TBREAK)
 008098 080B0000                   53719                             =X'080B0000'
 00809C 00003CCC                   53720                             =A(PRCESSCR)
 0080A0 E5E3C2C8                   53721                             =C'VTBH'
 0080A4 00000000                   53722                             =V(FREECORE)
 0080A8 08130000                   53723                             =X'08130000'
 0080AC 0000666C                   53724                             =A(SRECEIVE)
 0080B0 0000000B                   53725                             =A(X'0B')
 0080B4 0000000C                   53726                             =A(X'0C')
 0080B8 0000000D                   53727                             =A(X'0D')
 0080BC 00000012                   53728                             =A(X'12')
 0080C0 00000013                   53729                             =A(X'13')
 0080C4 00000004                   53730                             =A(X'04')
 0080C8 00007DC8                   53731                             =A(SRBROUT)
 0080CC 00000000                   53732                             =V(CV)
 0080D0 81062003                   53733                             =X'81062003'
 0080D4 0004                       53734                             =H'4'
 0080D6 001C                       53735                             =H'28'
 0080D8 0018                       53736                             =H'24'
 0080DA 0001                       53737                             =X'0001'
 0080DC 810629                     53738                             =X'810629'
 0080DF 010604                     53739                             =X'010604'

1VETS     (VETS2025) (12:59) (15MAR04) Relocation Dictionary                                                                Page  172
-   Pos.Id   Rel.Id   Flags    Address                                                       HLASM R4.0  2004/03/15 12.59
0  00000001 00000001    0C    000007A4
   00000001 00000001    0C    00000840
   00000001 00000001    0C    00000C70
   00000001 00000001    0C    00000C74
   00000001 00000001    0C    00000C78
   00000001 00000001    0C    00000C7C
   00000001 00000001    0C    00000C80
   00000001 00000001    0C    00000C84
   00000001 00000001    0C    00000C88
   00000001 00000001    08    00000CFB
   00000001 00000001    0C    00000DB8
   00000001 00000001    0C    00000DBC
   00000001 00000001    0C    00000DC0
   00000001 00000001    0C    00000DC4
   00000001 00000001    0C    00000DC8
   00000001 00000001    0C    00000DCC
   00000001 00000001    0C    00000DD0
   00000001 00000001    0C    00000DD4
   00000001 00000001    08    00000E29
   00000001 00000001    0C    00000F2C
   00000001 00000001    0C    00000F30
   00000001 00000001    0C    00000F34
   00000001 00000001    0C    00000F38
   00000001 00000001    0C    00000F3C
   00000001 00000001    0C    00000F40
   00000001 00000001    0C    00000F44
   00000001 00000001    0C    00000F48
   00000001 00000001    08    00001013
   00000001 00000001    0C    00001060
   00000001 00000001    0C    00001070
   00000001 00000001    0C    00001084
   00000001 00000001    0C    00001094
   00000001 00000001    0C    0000109C
   00000001 00000001    0C    000010AC
   00000001 00000001    08    00001257
   00000001 00000001    0C    000013AC
   00000001 00000001    0C    000013B0
   00000001 00000001    0C    000013B4
   00000001 00000001    0C    000013B8
   00000001 00000001    0C    000013BC
   00000001 00000001    0C    000013C0
   00000001 00000001    0C    000013C4
   00000001 00000001    0C    000013C8
   00000001 00000001    08    00001415
   00000001 00000001    0C    000015DC
   00000001 00000001    0C    000015E4
   00000001 00000001    0C    000015F0
   00000001 00000001    0C    000015F8
   00000001 00000001    0C    000015FC
   00000001 00000001    0C    00001604
   00000001 00000001    0C    00001608
   00000001 00000001    0C    0000160C
   00000001 00000001    0C    00001610
   00000001 00000001    08    000019F5
   00000001 00000001    08    00001A2D
1VETS     (VETS2025) (12:59) (15MAR04) Relocation Dictionary                                                                Page  173
   00000001 00000001    0C    00001AE8
   00000001 00000001    0C    00001AEC
   00000001 00000001    0C    00001AF0
   00000001 00000001    0C    00001AF4
   00000001 00000001    0C    00001AF8
   00000001 00000001    0C    00001AFC
   00000001 00000001    0C    00001B00
   00000001 00000001    0C    00001B04
   00000001 00000001    08    00001B5B
   00000001 00000001    08    00001BD3
   00000001 00000001    08    00001C59
   00000001 00000001    08    00001CD3
   00000001 00000001    08    00001D4B
   00000001 00000001    0C    00001DF0
   00000001 00000001    0C    00001DF4
   00000001 00000001    0C    00001DF8
   00000001 00000001    0C    00001DFC
   00000001 00000001    0C    00001E00
   00000001 00000001    0C    00001E04
   00000001 00000001    0C    00001E08
   00000001 00000001    08    00001E7B
   00000001 00000001    08    00001E9D
   00000001 00000001    0C    0000219C
   00000001 00000001    0C    000021A0
   00000001 00000001    0C    000021A4
   00000001 00000001    0C    000021A8
   00000001 00000001    0C    000021AC
   00000001 00000001    0C    000021B0
   00000001 00000001    0C    000021B4
   00000001 00000001    0C    000021B8
   00000001 00000001    08    0000223F
   00000001 00000001    08    0000225D
   00000001 00000001    08    000022BD
   00000001 00000001    08    000022E5
   00000001 00000001    08    0000230D
   00000001 00000001    08    00002335
   00000001 00000001    0C    00002430
   00000001 00000001    0C    00002434
   00000001 00000001    0C    00002438
   00000001 00000001    0C    0000243C
   00000001 00000001    0C    00002440
   00000001 00000001    0C    00002444
   00000001 00000001    0C    00002458
   00000001 00000001    0C    0000245C
   00000001 00000001    0C    00002460
   00000001 00000001    0C    00002464
   00000001 00000001    0C    00002468
   00000001 00000001    0C    0000246C
   00000001 00000001    0C    00002478
   00000001 00000001    0C    0000248C
   00000001 00000001    0C    00002490
   00000001 00000001    0C    000024C0
   00000001 00000001    08    000026A3
   00000001 00000001    08    00002DB9
   00000001 00000001    08    00002E9B
   00000001 00000001    0C    00002F08
   00000001 00000001    0C    00002F30
   00000001 00000001    0C    00002F60
   00000001 00000001    0C    00002FA4
1VETS     (VETS2025) (12:59) (15MAR04) Relocation Dictionary                                                                Page  174
   00000001 00000001    0C    00002FE0
   00000001 00000001    0C    00002FEC
   00000001 00000001    0C    00002FF0
   00000001 00000001    0C    00002FF4
   00000001 00000001    0C    00002FF8
   00000001 00000001    0C    00003200
   00000001 00000001    0C    00003208
   00000001 00000001    0C    0000320C
   00000001 00000001    0C    00003210
   00000001 00000001    0C    00003214
   00000001 00000001    08    000032DD
   00000001 00000001    08    0000336D
   00000001 00000001    0C    000033A0
   00000001 00000001    0C    000033A4
   00000001 00000001    0C    000033A8
   00000001 00000001    0C    000033B0
   00000001 00000001    0C    000033B8
   00000001 00000001    0C    000033BC
   00000001 00000001    0C    000033C0
   00000001 00000001    0C    00003A80
   00000001 00000001    0C    00003A84
   00000001 00000001    0C    00003AB0
   00000001 00000001    0C    00003AC0
   00000001 00000001    0C    000047C0
   00000001 00000001    0C    000047C4
   00000001 00000001    0C    000047C8
   00000001 00000001    0C    000047D8
   00000001 00000001    0C    0000482C
   00000001 00000001    08    00005441
   00000001 00000001    08    00005591
   00000001 00000001    08    000055FB
   00000001 00000001    0C    00005754
   00000001 00000001    0C    00005758
   00000001 00000001    0C    0000575C
   00000001 00000001    0C    00005760
   00000001 00000001    0C    00005764
   00000001 00000001    0C    00005768
   00000001 00000001    0C    0000576C
   00000001 00000001    0C    00005770
   00000001 00000001    08    000057C7
   00000001 00000001    0C    000058B0
   00000001 00000001    0C    000058B4
   00000001 00000001    0C    000058B8
   00000001 00000001    0C    000058EC
   00000001 00000001    0C    000058FC
   00000001 00000001    0C    00005910
   00000001 00000001    0C    00005914
   00000001 00000001    0C    0000631C
   00000001 00000001    0C    00006368
   00000001 00000001    0C    00006398
   00000001 00000001    08    00006589
   00000001 00000001    08    000067A5
   00000001 00000001    08    00006801
   00000001 00000001    0C    000068D0
   00000001 00000001    0C    000068D4
   00000001 00000001    0C    000068D8
   00000001 00000001    0C    000068DC
   00000001 00000001    0C    000068E0
   00000001 00000001    0C    000068E4
1VETS     (VETS2025) (12:59) (15MAR04) Relocation Dictionary                                                                Page  175
   00000001 00000001    0C    000068E8
   00000001 00000001    0C    000068EC
   00000001 00000001    08    00006943
   00000001 00000001    08    00006999
   00000001 00000001    08    00006ACB
   00000001 00000001    08    00006B11
   00000001 00000001    0C    00006BF8
   00000001 00000001    0C    00006C08
   00000001 00000001    0C    00006C1C
   00000001 00000001    0C    00006C20
   00000001 00000001    0C    00006C28
   00000001 00000001    0C    00006C7C
   00000001 00000001    0C    00006C80
   00000001 00000001    0C    00006C84
   00000001 00000001    0C    00006C88
   00000001 00000001    0C    00006C9C
   00000001 00000001    08    00006CDB
   00000001 00000001    0C    00006D00
   00000001 00000001    0C    00006D04
   00000001 00000001    0C    00006D08
   00000001 00000001    0C    00006D0C
   00000001 00000001    0C    00006D10
   00000001 00000001    0C    00006D14
   00000001 00000001    0C    00006D18
   00000001 00000001    0C    00006D1C
   00000001 00000001    0C    00006D20
   00000001 00000001    0C    00006D24
   00000001 00000001    0C    00006D28
   00000001 00000001    0C    00006D7C
   00000001 00000001    08    00006DBB
   00000001 00000001    0C    00006DE0
   00000001 00000001    0C    00006DE4
   00000001 00000001    0C    00006DE8
   00000001 00000001    0C    00006DEC
   00000001 00000001    0C    00006DF0
   00000001 00000001    0C    00006DF4
   00000001 00000001    0C    00006DF8
   00000001 00000001    0C    00006E2C
   00000001 00000001    08    00006E6B
   00000001 00000001    0C    00006E90
   00000001 00000001    0C    00006E94
   00000001 00000001    0C    00006E98
   00000001 00000001    0C    00006E9C
   00000001 00000001    0C    00006EA0
   00000001 00000001    0C    00006EA4
   00000001 00000001    0C    00006EA8
   00000001 00000001    0C    00006EAC
   00000001 00000001    0C    00006EE8
   00000001 00000001    08    00006F27
   00000001 00000001    0C    00006F4C
   00000001 00000001    0C    00006F50
   00000001 00000001    0C    00006F54
   00000001 00000001    0C    00006F58
   00000001 00000001    0C    00006F5C
   00000001 00000001    08    00006FBF
   00000001 00000001    08    000070BF
   00000001 00000001    08    0000723D
   00000001 00000001    0C    00007308
   00000001 00000001    08    000073BB
1VETS     (VETS2025) (12:59) (15MAR04) Relocation Dictionary                                                                Page  176
   00000001 00000001    0C    00007444
   00000001 00000001    0C    00007448
   00000001 00000001    0C    0000744C
   00000001 00000001    0C    00007450
   00000001 00000001    0C    00007454
   00000001 00000001    0C    00007458
   00000001 00000001    0C    0000745C
   00000001 00000001    0C    00007460
   00000001 00000001    08    00007689
   00000001 00000001    0C    00007840
   00000001 00000001    0C    00007844
   00000001 00000001    0C    00007848
   00000001 00000001    0C    0000784C
   00000001 00000001    0C    00007850
   00000001 00000001    0C    00007854
   00000001 00000001    0C    00007858
   00000001 00000001    0C    0000785C
   00000001 00000001    08    00007901
   00000001 00000001    0C    00007978
   00000001 00000001    0C    0000797C
   00000001 00000001    0C    00007980
   00000001 00000001    0C    00007984
   00000001 00000001    0C    00007988
   00000001 00000001    0C    0000798C
   00000001 00000001    0C    00007990
   00000001 00000001    0C    00007994
   00000001 00000001    08    00007AE5
   00000001 00000001    0C    00007B51
   00000001 00000001    0C    00007B65
   00000001 00000001    0C    00007B79
   00000001 00000001    0C    00007B7E
   00000001 00000001    0C    0000809C
   00000001 00000001    0C    000080AC
   00000001 00000001    0C    000080C8
   00000001 00000002    1C    00000788
   00000001 00000002    1C    000015C8
   00000001 00000002    1C    0000244C
   00000001 00000002    1C    00002F00
   00000001 00000002    1C    0000591C
   00000001 00000002    1C    00006358
   00000001 00000003    1C    0000078C
   00000001 00000003    1C    00001064
   00000001 00000003    1C    000015CC
   00000001 00000004    1C    00000790
   00000001 00000004    1C    00001068
   00000001 00000004    1C    000015D0
   00000001 00000005    1C    0000079C
   00000001 00000005    1C    00003AA0
   00000001 00000006    1C    000007A8
   00000001 00000007    1C    000007AC
   00000001 00000007    1C    000010C0
   00000001 00000007    1C    00001600
   00000001 00000007    1C    00002454
   00000001 00000007    1C    00002F04
   00000001 00000007    1C    00005918
   00000001 00000008    1C    000007B0
   00000001 00000009    1C    000007BC
   00000001 00000009    1C    0000635C
   00000001 0000000A    1C    000007E8
1VETS     (VETS2025) (12:59) (15MAR04) Relocation Dictionary                                                                Page  177
   00000001 0000000A    1C    00002450
   00000001 0000000B    1C    0000083C
   00000001 0000000C    1C    00001088
   00000001 0000000C    1C    000024C4
   00000001 0000000C    1C    00003A78
   00000001 0000000C    1C    000058A8
   00000001 0000000C    1C    00006BEC
   00000001 0000000C    1C    00006FF0
   00000001 0000000D    1C    0000108C
   00000001 0000000D    1C    000015D4
   00000001 0000000D    1C    00002448
   00000001 0000000D    1C    000058F0
   00000001 0000000D    1C    00006BFC
   00000001 0000000E    1C    00002498
   00000001 0000000E    1C    00002FE8
   00000001 0000000E    1C    00006C2C
   00000001 0000000E    1C    000080A4
   00000001 0000000F    1C    00002F40
   00000001 0000000F    1C    00006360
   00000001 00000010    1C    00002F44
   00000001 00000010    1C    00006364
   00000001 00000011    1C    00003204
   00000001 00000011    1C    000033AC
   00000001 00000012    1C    00006354
   00000001 00000013    1C    00007310
   00000001 00000014    1C    00008094
   00000001 00000015    1C    000080CC

1VETS     (VETS2025) (12:59) (15MAR04) Ordinary Symbol and Literal Cross Reference                                          Page  178
-Symbol   Length   Value     Id    R Type   Defn References                                  HLASM R4.0  2004/03/15 12.59
0$$$@R0        1 00000000 FFFFFFFE     J     705  1006
 $$$@R10       1 00000000 FFFFFFF4     J     835  1070
 $$$@R11       1 00000000 FFFFFFF3     J     848  1083
 $$$@R12       1 00000000 FFFFFFF2     J     861  1096
 $$$@R13       1 00000000 FFFFFFF1     J     874  1109
 $$$@R14       1 00000000 FFFFFFF0     J     887  1122
 $$$@R6        1 00000000 FFFFFFF8     J     783  1136
 $$$@R7        1 00000000 FFFFFFF7     J     796  1019
 $$$@R8        1 00000000 FFFFFFF6     J     809  1032   1044
 $$$@R9        1 00000000 FFFFFFF5     J     822  1057
 $$$C1WYLVETS
               1 000009A2 00000001     J   16588 16590  16625  16820  17104
 $$$C10WYLVETS
               1 00004A1C 00000001     J   36196 36198  36247  38911
 $$$C11WYLVETS
               1 000059F9 00000001     J   40614 40616  40668  41502  42347  42752  43141  43726  43854
 $$$C12WYLVETS
               1 00006452 00000001     J   44539 44541
 $$$C13WYLVETS
               1 00006C3B 00000001     J   46667 46669
 $$$C14WYLVETS
               1 00006FF4 00000001     J   47415 47417  47447
 $$$C15WYLVETS
               1 00007316 00000001     J   48345 48347
 $$$C16WYLVETS
               1 000080E2 00000001     J   53740 53742
 $$$C2WYLVETS
               1 000010D8 00000001     J   18306 18308
 $$$C3WYLVETS
               1 0000176F 00000001     J   19704 19706  22014
 $$$C4WYLVETS
               1 0000254C 00000001     J   23794 23796  24162  24541
 $$$C5WYLVETS
               1 0000303E 00000001     J   27898 27900
 $$$C6WYLVETS
               1 00003218 00000001     J   28296 28298
 $$$C7WYLVETS
               1 000033C4 00000001     J   28874 28876  28943  29323
 $$$C8WYLVETS
               1 00003ACC 00000001     J   31207 31209  31326
 $$$C9WYLVETS
               1 00004891 00000001     J   35615 35617
 $$$DAPPLTABL
               2 00000932 00000001     H    1172  1186   1186
 $$$D0WYLVETS
               1 00000932 00000001     J     991  1171  13596  15755
 $$$D1WYLVETS
               1 000010CC 00000001     J   16589 16809  17093
 $$$D11WYLVETS
               1 000063CD 00000001     J   40615 40619  42336  42741  43130  43715  43843
 $$$D3WYLVETS
               1 00002533 00000001     J   19705 21995
 $$$D4WYLVETS
               1 00003038 00000001     J   23795 24530
 $$$D7WYLVETS
1VETS     (VETS2025) (12:59) (15MAR04) Ordinary Symbol and Literal Cross Reference                                          Page  179
               1 00003AC6 00000001     J   28875 29312
 $$$RCP        1 00000000 FFFFFFE8     J    3867  6127   7601   7601
 $$$RCV        1 00000000 FFFFFFEA     J    2592  3777   3777
 $$$RDEV       1 00000000 FFFFFFE7     J    6081  6126   6126
 $$$RDOOUTBWA
               1 00000000 FFFFFFDA     J   24148 24161  24161
 $$$RGETACBWA
               1 00000000 FFFFFFD3     J   47433 47446  47446
 $$$RJCB       1 00000000 FFFFFFE5     J    7719  7993   7993
 $$$RLOGONWA
               1 00000000 FFFFFFDB     J   16608 16624  16624
 $$$RNSCNCB
               1 00000000 FFFFFFE9     J    3788  3861   3861
 $$$RPRCSWA
               1 00000000 FFFFFFD8     J   31288 31325  31325
 $$$RSENDSWA
               1 00000000 FFFFFFD7     J   36220 36246  36246
 $$$RTTYPE
               1 00000000 FFFFFFE6     J    7612  7713   7713
 $$$RUPDATSWA
               1 00000000 FFFFFFD9     J   28891 28942  28942
 $$$RVTBHEAD
               1 00000000 FFFFFFDC     J   13518 13571  13571
 $$$RVTWA      1 00000000 FFFFFFDD     J   13142 13505  13505
 $$$RWRITEWA
               1 00000000 FFFFFFD4     J   41449 41501  41501
 $$$SEGCB0
               4 00000050 FFFFFFE8     F    3898  3984   3984
 $$$V01       20 00007E40 00000001     C   53679 17383  22168
 $$$V010      19 00007F02 00000001     C   53688 23325
 $$$V011      14 00007F15 00000001     C   53689 23376
 $$$V012      14 00007F23 00000001     C   53690 23405
 $$$V013      14 00007F31 00000001     C   53691 23434
 $$$V014      14 00007F3F 00000001     C   53692 23463
 $$$V015      13 00007F4D 00000001     C   53693 24347
 $$$V016      12 00007F5A 00000001     C   53694 28668
 $$$V017      12 00007F66 00000001     C   53695 28769  39363
 $$$V018      17 00007F72 00000001     C   53696 39018
 $$$V019      23 00007F83 00000001     C   53697 44640
 $$$V02       27 00007E54 00000001     C   53680 17694  18158  19034  21432  21785  23300  40222  45687
 $$$V020      32 00007F9A 00000001     C   53698 45197
 $$$V021      23 00007FBA 00000001     C   53699 45810
 $$$V022      14 00007FD1 00000001     C   53700 46832
 $$$V023      18 00007FDF 00000001     C   53701 46989
 $$$V024      18 00007FF1 00000001     C   53702 47111
 $$$V025      18 00008003 00000001     C   53703 47238
 $$$V026      18 00008015 00000001     C   53704 47350
 $$$V027      12 00008027 00000001     C   53705 47669
 $$$V028      18 00008033 00000001     C   53706 48017
 $$$V029      25 00008045 00000001     C   53707 48738
 $$$V03        8 00007E6F 00000001     C   53681 18548  45374
 $$$V030      20 0000805E 00000001     C   53708 51018
 $$$V031      15 00008072 00000001     C   53709 51633
 $$$V04       25 00007E77 00000001     C   53682 20636
 $$$V05       21 00007E90 00000001     C   53683 20743  39565
 $$$V06       33 00007EA5 00000001     C   53684 21043
 $$$V07       19 00007EC6 00000001     C   53685 21244  27295  27695  46391  50001
 $$$V08       18 00007ED9 00000001     C   53686 21624  46320
 $$$V09       23 00007EEB 00000001     C   53687 22200
1VETS     (VETS2025) (12:59) (15MAR04) Ordinary Symbol and Literal Cross Reference                                          Page  180
 $$$100F       2 00000290 00000001     H   14684 14651B
 $$$1000E      2 000054E4 00000001     H   39236 39230
 $$$1000F      2 000054E8 00000001     H   39249 39232B
 $$$1001F      2 0000557C 00000001     H   39355 39343B
 $$$1002       1 00000050 00000001 A   U   39392 39389  39391
 $$$1004B      1 000055BC 00000001     X   39437 39444U
 $$$1005F      2 000057CA 00000001     H   40236 39468B
 $$$1006F      2 000057CA 00000001     H   40232 39498B
 $$$1006T      2 000055D6 00000001     H   39501 39488B
 $$$1008F      2 000055FE 00000001     H   39569 39554B
 $$$1009F      2 0000564C 00000001     H   39730 39601B
 $$$101F       2 000002FA 00000001     H   14771 14743B 14756B
 $$$1010F      2 0000564C 00000001     H   39726 39623B
 $$$1011B      4 0000562C 00000001     I   39644 39662
 $$$1011F      2 00005634 00000001     H   39659 39644B 39661
 $$$1012E      2 00005638 00000001     H   39669 39663
 $$$1012F      2 0000564C 00000001     H   39722 39665B
 $$$1013B      4 0000563C 00000001     I   39681 39699
 $$$1013F      2 00005644 00000001     H   39696 39681B 39698
 $$$1014E      2 00005648 00000001     H   39706 39700
 $$$1014F      2 0000564C 00000001     H   39718 39702B
 $$$1015F      2 00005658 00000001     H   39757 39742B
 $$$1016F      2 00005664 00000001     H   39783 39768B
 $$$1017B      4 00005668 00000001     I   39794 39814
 $$$1017F      2 00005670 00000001     H   39810 39794B 39813
 $$$1019B      4 00005678 00000001     I   39830 39850
 $$$1019E      2 00005674 00000001     H   39821 39815
 $$$1019F      2 00005680 00000001     H   39846 39817B 39830B 39849
 $$$1022B      4 00005688 00000001     I   39866 39886
 $$$1022E      2 00005684 00000001     H   39857 39851
 $$$1022F      2 00005690 00000001     H   39882 39853B 39866B 39885
 $$$1025E      2 00005694 00000001     H   39893 39887
 $$$1025F      2 000056A0 00000001     H   39918 39889B 39902B
 $$$1028B      4 0000571E 00000001     I   40013 40026
 $$$1028F      2 00005726 00000001     H   40023 40013B 40025
 $$$1029E      2 0000572A 00000001     H   40033 40027
 $$$1029F      2 00005742 00000001     H   40083 40029B
 $$$103B       4 00000322 00000001     I   14829 14859
 $$$103F       2 00000338 00000001     H   14856 14829B 14858
 $$$1030B      4 0000572E 00000001     I   40046 40059
 $$$1030F      2 00005734 00000001     H   40056 40046B 40058
 $$$1031E      2 00005738 00000001     H   40066 40060
 $$$1031F      2 00005742 00000001     H   40079 40062B
 $$$1032F      2 0000574E 00000001     H   40102 40093B
 $$$1033F      2 00005782 00000001     H   40142 40129B
 $$$1034F      2 000057A8 00000001     H   40208 40195B
 $$$1034T      2 000057A2 00000001     H   40198 40158B 40171B 40184B
 $$$1038       1 00000050 00000001 A   U   40281 40278  40280
 $$$104E       2 0000033C 00000001     H   14866 14860
 $$$104F       2 0000034E 00000001     H   14890 14862B
 $$$1040B      1 00005802 00000001     X   40328 40335U
 $$$1041       1 00000050 00000001 A   U   40417 40414  40416
 $$$1043B      1 0000585C 00000001     X   40465 40472U
 $$$1044       1 00000050 00000001 A   U   40560 40557  40559
 $$$1045F      2 00005BBC 00000001     H   41424 40866B
 $$$1046B      1 00005A14 00000001     X   40704 40711U
 $$$1047F      2 00005A26 00000001     H   40755 40740B
 $$$1048F      2 00005A5E 00000001     H   40846 40766B
 $$$1049F      2 00005A6A 00000001     H   40870 40858B
1VETS     (VETS2025) (12:59) (15MAR04) Ordinary Symbol and Literal Cross Reference                                          Page  181
 $$$105B       4 00000352 00000001     I   14901 14932
 $$$105F       2 00000368 00000001     H   14928 14901B 14931
 $$$1050F      2 00005A86 00000001     H   40934 40906B 40924B
 $$$1053F      2 00005AA2 00000001     H   40981 40953B 40971B
 $$$1056B      4 00005AAA 00000001     I   40994 41012
 $$$1056F      2 00005AB2 00000001     H   41009 40994B 41011
 $$$1057E      2 00005AB6 00000001     H   41019 41013
 $$$1057F      2 00005ABA 00000001     H   41032 41015B
 $$$1058F      2 00005AE4 00000001     H   41098 41072B
 $$$1058T      2 00005ACE 00000001     H   41075 41059B
 $$$106E       2 0000036C 00000001     H   14939 14933
 $$$106F       2 000004E8 00000001     H   15634 14935B
 $$$1060B      4 00005AF2 00000001     I   41124 41164
 $$$1060F      2 00005B08 00000001     H   41161 41124B 41163
 $$$1061E      2 00005B0C 00000001     H   41171 41165
 $$$1061F      2 00005B8A 00000001     H   41327 41167B
 $$$1062F      2 00005BBC 00000001     H   41415 41390B
 $$$1063       1 00000050 00000001 A   U   41433 41430  41432
 $$$1065B      1 00005BE4 00000001     X   41539 41546U
 $$$1066B      4 00005C18 00000001     I   41636 41656
 $$$1066F      2 00005C22 00000001     H   41652 41636B 41655
 $$$1068E      2 00005C26 00000001     H   41663 41657
 $$$1068F      2 00005CA0 00000001     H   41831 41659B
 $$$1069B      4 00005C4A 00000001     I   41701 41728
 $$$1069F      2 00005C56 00000001     H   41723 41701B 41727
 $$$1069T      2 00005C4E 00000001     H   41704 41689B
 $$$107B       4 00000384 00000001     I   14980 15010
 $$$107F       2 0000039A 00000001     H   15007 14980B 15009
 $$$1071B      4 00005C5E 00000001     I   41746 41771
 $$$1071E      2 00005C5A 00000001     H   41735 41729
 $$$1071F      2 00005C6A 00000001     H   41767 41731B 41746B 41770
 $$$1073E      2 00005C6E 00000001     H   41778 41772
 $$$1073F      2 00005C76 00000001     H   41796 41774B
 $$$1074F      2 0000621A 00000001     H   44107 41851B
 $$$1074S      2 00005CA2 00000001     H   41842 44106B
 $$$1076F      2 00006216 00000001     H   44101 41877B
 $$$1076S      2 00005CBA 00000001     H   41868 44100B
 $$$1078B      4 00005CD6 00000001     I   41916 42714
 $$$1078F      2 00005ED6 00000001     H   42708 41902B 41916B 42711
 $$$1079B      4 00005CCE 00000001     I   41902 42712
 $$$108E       2 0000039E 00000001     H   15017 15011
 $$$108F       2 000004E8 00000001     H   15625 15013B
 $$$1080F      2 00005D06 00000001     H   41999 41945B
 $$$1081F      2 00005D06 00000001     H   41995 41958B
 $$$1082B      4 00005D42 00000001     I   42076 42103
 $$$1082F      2 00005D4E 00000001     H   42098 42076B 42102
 $$$1082T      2 00005D46 00000001     H   42079 42064B
 $$$1084B      4 00005D56 00000001     I   42121 42212
 $$$1084E      2 00005D52 00000001     H   42110 42104
 $$$1084F      2 00005D8E 00000001     H   42208 42106B 42121B 42211
 $$$1086F      2 00005D8E 00000001     H   42204 42149B
 $$$1087E      2 00005D92 00000001     H   42219 42213
 $$$1087F      2 00005DC6 00000001     H   42303 42215B
 $$$1088F      2 00005DC6 00000001     H   42299 42244B
 $$$1089       4 0000643E 00000001     I   42342 42334X
 $$$109F       2 000004C6 00000001     H   15568 15546B 15558B
 $$$109S       2 000003B0 00000001     H   15041 15567B
 $$$1090       4 0000643E 00000001     I   42341 42342  42342
 $$$1091F      2 00005E04 00000001     H   42386 42355B
1VETS     (VETS2025) (12:59) (15MAR04) Ordinary Symbol and Literal Cross Reference                                          Page  182
 $$$1092F      2 00005E04 00000001     H   42382 42372B
 $$$1093B      4 00005E1C 00000001     I   42424 42497
 $$$1093F      2 00005E52 00000001     H   42493 42424B 42496
 $$$1094F      2 00005E52 00000001     H   42489 42462B
 $$$1095E      2 00005E56 00000001     H   42504 42498
 $$$1095F      2 00005E8C 00000001     H   42585 42500B
 $$$1096B      4 00005E60 00000001     I   42520 42550
 $$$1096F      2 00005E76 00000001     H   42547 42520B 42549
 $$$1097E      2 00005E7A 00000001     H   42557 42551
 $$$1097F      2 00005E8C 00000001     H   42581 42553B
 $$$1098F      2 00005ED6 00000001     H   42704 42615B
 $$$1099F      2 00005ED6 00000001     H   42700 42658B
 $$$110F       2 000004B2 00000001     H   15530 15067B
 $$$110T       2 000003C0 00000001     H   15070 15057B
 $$$1100E      2 00005EDA 00000001     H   42721 42713  42715
 $$$1100F      2 0000620E 00000001     H   44094 42717B
 $$$1101       4 00006442 00000001     I   42747 42739X
 $$$1102       4 00006442 00000001     I   42746 42747  42747
 $$$1103F      2 00005FD0 00000001     H   43117 42760B
 $$$1104F      2 00005F08 00000001     H   42799 42789B
 $$$1105B      4 00005F0C 00000001     I   42811 42869
 $$$1105F      2 00005F34 00000001     H   42866 42811B 42868
 $$$1106E      2 00005F38 00000001     H   42876 42870
 $$$1106F      2 00005F5C 00000001     H   42928 42872B
 $$$1107B      4 00005F64 00000001     I   42948 42979
 $$$1107F      2 00005F7A 00000001     H   42975 42948B 42978
 $$$1108B      4 00005F82 00000001     I   42997 43028
 $$$1108E      2 00005F7E 00000001     H   42986 42980
 $$$1108F      2 00005F98 00000001     H   43024 42982B 42997B 43027
 $$$1110E      2 00005F9C 00000001     H   43035 43029
 $$$1110F      2 00005FB6 00000001     H   43073 43031B 43046B
 $$$1112F      2 00005FD0 00000001     H   43112 43085B
 $$$1113       4 00006446 00000001     I   43136 43128X
 $$$1114       4 00006446 00000001     I   43135 43136  43136
 $$$1115F      2 00006118 00000001     H   43663 43149B
 $$$1116F      2 00005FF0 00000001     H   43174 43164B
 $$$1117B      4 00005FF4 00000001     I   43186 43246
 $$$1117F      2 00006018 00000001     H   43243 43186B 43245
 $$$1118E      2 0000601C 00000001     H   43253 43247
 $$$1118F      2 0000602E 00000001     H   43277 43249B
 $$$1119B      4 00006030 00000001     I   43288 43319
 $$$1119F      2 00006046 00000001     H   43315 43288B 43318
 $$$112B       4 000003E8 00000001     I   15137 15167
 $$$112F       2 000003FE 00000001     H   15164 15137B 15166
 $$$1120B      4 0000604E 00000001     I   43337 43368
 $$$1120E      2 0000604A 00000001     H   43326 43320
 $$$1120F      2 00006064 00000001     H   43364 43322B 43337B 43367
 $$$1122B      4 0000606C 00000001     I   43386 43417
 $$$1122E      2 00006068 00000001     H   43375 43369
 $$$1122F      2 00006082 00000001     H   43413 43371B 43386B 43416
 $$$1124B      4 0000608A 00000001     I   43435 43466
 $$$1124E      2 00006086 00000001     H   43424 43418
 $$$1124F      2 000060A0 00000001     H   43462 43420B 43435B 43465
 $$$1126B      4 000060A8 00000001     I   43484 43515
 $$$1126E      2 000060A4 00000001     H   43473 43467
 $$$1126F      2 000060BE 00000001     H   43511 43469B 43484B 43514
 $$$1128B      4 000060C6 00000001     I   43533 43564
 $$$1128E      2 000060C2 00000001     H   43522 43516
 $$$1128F      2 000060DC 00000001     H   43560 43518B 43533B 43563
1VETS     (VETS2025) (12:59) (15MAR04) Ordinary Symbol and Literal Cross Reference                                          Page  183
 $$$113E       2 00000402 00000001     H   15174 15168
 $$$113F       2 00000414 00000001     H   15198 15170B
 $$$1130B      4 000060E4 00000001     I   43582 43613
 $$$1130E      2 000060E0 00000001     H   43571 43565
 $$$1130F      2 000060FA 00000001     H   43609 43567B 43582B 43612
 $$$1132E      2 000060FE 00000001     H   43620 43614
 $$$1132F      2 00006118 00000001     H   43658 43616B 43631B
 $$$1134F      2 00006132 00000001     H   43702 43675B
 $$$1135       4 0000644A 00000001     I   43721 43713X
 $$$1136       4 0000644A 00000001     I   43720 43721  43721
 $$$1137F      2 000061E0 00000001     H   44015 43734B
 $$$1138F      2 00006162 00000001     H   43780 43770B
 $$$1139B      4 00006164 00000001     I   43791 43831
 $$$1139F      2 0000617A 00000001     H   43828 43791B 43830
 $$$114B       4 00000418 00000001     I   15209 15451
 $$$114F       2 00000488 00000001     H   15447 15209B 15450
 $$$1140E      2 0000617E 00000001     H   43838 43832
 $$$1140F      2 000061E0 00000001     H   44011 43834B
 $$$1141       4 0000644E 00000001     I   43849 43841X
 $$$1142       4 0000644E 00000001     I   43848 43849  43849
 $$$1143F      2 000061C0 00000001     H   43956 43862B
 $$$1144F      2 00006198 00000001     H   43891 43881B
 $$$1145F      2 000061CE 00000001     H   43979 43969B
 $$$1146F      2 000061EA 00000001     H   44038 44028B
 $$$1147F      2 000061F8 00000001     H   44059 44049B
 $$$1148F      2 00006242 00000001     H   44177 44133B
 $$$1149F      2 0000627C 00000001     H   44268 44243B
 $$$115B       4 00000450 00000001     I   15341 15371
 $$$115F       2 00000466 00000001     H   15368 15341B 15370
 $$$115T       2 00000454 00000001     H   15344 15329B
 $$$1150       1 00000064 00000001 A   U   44296 44293  44295
 $$$1152B      1 000062A6 00000001     X   44332 44339U
 $$$1153       1 00000050 00000001 A   U   44484 44481  44483
 $$$1155B      1 0000656C 00000001     X   44605 44612U
 $$$1156F      2 0000658C 00000001     H   44644 44629B
 $$$1157B      4 00006598 00000001     I   44670 44690
 $$$1157F      2 000065A0 00000001     H   44685 44670B 44689
 $$$1157T      2 0000659C 00000001     H   44673 44659B
 $$$1159E      2 000065A4 00000001     H   44697 44691
 $$$1159F      2 000065C4 00000001     H   44712 44693B
 $$$1160       1 00000050 00000001 A   U   44737 44734  44736
 $$$1162B      1 00006632 00000001     X   44794 44801U
 $$$1163B      4 00006638 00000001     I   44818 44837
 $$$1163F      2 00006644 00000001     H   44833 44818B 44836
 $$$1164E      2 00006648 00000001     H   44844 44838
 $$$1164F      2 00006658 00000001     H   44854 44840B
 $$$1165       1 00000050 00000001 A   U   44879 44876  44878
 $$$1166F      2 000067A8 00000001     H   45221 45185B
 $$$1167B      1 00006686 00000001     X   44918 44925U
 $$$1168F      2 000067A8 00000001     H   45206 44985B
 $$$1169B      4 000066A0 00000001     I   45001 45020
 $$$1169F      2 000066B6 00000001     H   45017 45001B 45019
 $$$117E       2 0000046A 00000001     H   15378 15372
 $$$117F       2 0000047C 00000001     H   15412 15374B
 $$$1170E      2 000066BA 00000001     H   45027 45021
 $$$1170F      2 000066BE 00000001     H   45034 45023B
 $$$1171F      2 00006790 00000001     H   45189 45177B
 $$$1172       1 00000050 00000001 A   U   45230 45227  45229
 $$$1174B      1 000067D0 00000001     X   45276 45283U
1VETS     (VETS2025) (12:59) (15MAR04) Ordinary Symbol and Literal Cross Reference                                          Page  184
 $$$1175F      2 000067DC 00000001     H   45315 45303B 45311B
 $$$1176F      2 00006804 00000001     H   45378 45363B
 $$$1177B      4 00006898 00000001     I   45478 45491
 $$$1177F      2 000068A0 00000001     H   45488 45478B 45490
 $$$1178E      2 000068A4 00000001     H   45498 45492
 $$$1178F      2 000068BC 00000001     H   45548 45494B
 $$$1179B      4 000068A8 00000001     I   45511 45524
 $$$1179F      2 000068AE 00000001     H   45521 45511B 45523
 $$$118E       2 0000048C 00000001     H   15458 15452
 $$$118F       2 000004B2 00000001     H   15526 15454B
 $$$1180E      2 000068B2 00000001     H   45531 45525
 $$$1180F      2 000068BC 00000001     H   45544 45527B
 $$$1181F      2 000068C8 00000001     H   45567 45558B
 $$$1182F      2 000068FE 00000001     H   45607 45594B
 $$$1183F      2 00006924 00000001     H   45673 45660B
 $$$1183T      2 0000691E 00000001     H   45663 45623B 45636B 45649B
 $$$1187F      2 00006952 00000001     H   45716 45701B
 $$$1188       1 00000050 00000001 A   U   45735 45732  45734
 $$$119F       2 000004A6 00000001     H   15497 15470B
 $$$1190B      1 0000697A 00000001     X   45770 45777U
 $$$1191F      2 0000699C 00000001     H   45814 45799B
 $$$1192F      2 000069D4 00000001     H   45907 45879B 45897B
 $$$1195F      2 000069F0 00000001     H   45954 45926B 45944B
 $$$1198F      2 00006A00 00000001     H   45982 45967B
 $$$1199F      2 00006A0C 00000001     H   46008 45993B
 $$$1200F      2 00006A1A 00000001     H   46039 46021B
 $$$1201       1 00000050 00000001 A   U   46101 46098  46100
 $$$1202F      2 00006BC4 00000001     H   46627 46183B 46213B
 $$$1203B      1 00006A56 00000001     X   46148 46155U
 $$$1204F      2 00006A64 00000001     H   46187 46175B
 $$$1205F      2 00006A76 00000001     H   46217 46199B
 $$$1206F      2 00006A92 00000001     H   46253 46241B
 $$$1207F      2 00006AD8 00000001     H   46333 46288B
 $$$1207S      2 00006A9E 00000001     H   46282 46332B
 $$$1209F      2 00006ACE 00000001     H   46324 46309B
 $$$1210F      2 00006B1E 00000001     H   46404 46359B
 $$$1210S      2 00006AE4 00000001     H   46353 46403B
 $$$1212F      2 00006B14 00000001     H   46395 46380B
 $$$1213F      2 00006B48 00000001     H   46444 46423B
 $$$1214F      2 00006B5E 00000001     H   46475 46463B
 $$$1215F      2 00006B74 00000001     H   46506 46494B
 $$$1216F      2 00006B8A 00000001     H   46537 46525B
 $$$1217F      2 00006BA0 00000001     H   46568 46556B
 $$$1218F      2 00006BB6 00000001     H   46599 46587B
 $$$1219       1 00000050 00000001 A   U   46636 46633  46635
 $$$122F       2 000004E8 00000001     H   15621 15582B 15594B
 $$$1221B      1 00006C56 00000001     X   46714 46721U
 $$$1223F      2 00006CDE 00000001     H   46836 46821B
 $$$1225F      2 00006DBE 00000001     H   46993 46978B
 $$$1227F      2 00006E6E 00000001     H   47115 47100B
 $$$1229F      2 00006F2A 00000001     H   47242 47227B
 $$$1231F      2 00006FC2 00000001     H   47354 47339B
 $$$1232       1 00000050 00000001 A   U   47409 47406  47408
 $$$1234B      1 0000700E 00000001     X   47484 47491U
 $$$1235F      2 00007042 00000001     H   47551 47538B
 $$$1236F      2 0000706C 00000001     H   47615 47572B
 $$$1236S      2 0000704A 00000001     H   47562 47614B
 $$$1238F      2 00007068 00000001     H   47608 47591B
 $$$1240F      2 000070A0 00000001     H   47643 47630B
1VETS     (VETS2025) (12:59) (15MAR04) Ordinary Symbol and Literal Cross Reference                                          Page  185
 $$$1241F      2 000070C2 00000001     H   47673 47658B
 $$$1242F      2 0000725E 00000001     H   48031 47704B
 $$$1244F      2 00007118 00000001     H   47735 47722B
 $$$1245F      2 00007152 00000001     H   47762 47749B
 $$$1246F      2 0000718A 00000001     H   47790 47777B
 $$$1247F      2 000071B4 00000001     H   47835 47822B
 $$$1247T      2 0000719A 00000001     H   47825 47809B
 $$$1249F      2 000071D0 00000001     H   47892 47882B
 $$$1249T      2 000071CC 00000001     H   47885 47854B 47869B
 $$$125B       1 00000506 00000001     X   15699 15706U
 $$$1252F      2 000071DC 00000001     H   47918 47908B
 $$$1253F      2 000071E8 00000001     H   47944 47934B
 $$$1254F      2 00007218 00000001     H   47973 47960B
 $$$1255F      2 00007240 00000001     H   48021 48006B
 $$$1255T      2 00007228 00000001     H   48009 47993B
 $$$1257       1 00000054 00000001 A   U   48140 48137  48139
 $$$1258F      2 000072F4 00000001     H   48314 48222B
 $$$1259B      1 000072BC 00000001     X   48187 48194U
 $$$126B       4 00000508 00000001     I   15724 15798
 $$$126F       2 0000053A 00000001     H   15794 15724B 15797
 $$$1260F      2 000072CA 00000001     H   48226 48214B
 $$$1261F      2 000072F0 00000001     H   48284 48262B
 $$$1263       1 00000050 00000001 A   U   48323 48320  48322
 $$$1264F      2 000073C2 00000001     H   48771 48465B
 $$$1265B      1 00007330 00000001     X   48397 48404U
 $$$1266S      2 00007330 00000001     H   48417 48760B
 $$$1267F      2 0000735C 00000001     H   48544 48520B
 $$$1267S      2 00007330 00000001     H   48424 48543B
 $$$1268F      2 0000733E 00000001     H   48469 48457B
 $$$1269B      4 00007344 00000001     I   48480 48496
 $$$1269F      2 0000734A 00000001     H   48493 48480B 48495
 $$$127F       2 0000051E 00000001     H   15748 15739B
 $$$1270E      2 0000734E 00000001     H   48503 48497
 $$$1270F      2 00007350 00000001     H   48510 48499B
 $$$1272B      4 0000736A 00000001     I   48602 48656
 $$$1272F      2 00007382 00000001     H   48651 48602B 48655
 $$$1274B      4 00007372 00000001     I   48618 48632
 $$$1274F      2 0000737A 00000001     H   48629 48618B 48631
 $$$1276E      2 0000737E 00000001     H   48639 48633
 $$$1276F      2 00007382 00000001     H   48647 48635B
 $$$1277B      4 0000738A 00000001     I   48673 48689
 $$$1277E      2 00007386 00000001     H   48663 48657
 $$$1277F      2 00007392 00000001     H   48684 48659B 48673B 48688
 $$$128        6 0000099C 00000001     I   15761 15753X
 $$$1280B      4 0000739A 00000001     I   48707 48722
 $$$1280E      2 00007396 00000001     H   48696 48690
 $$$1280F      2 000073A2 00000001     H   48718 48692B 48707B 48721
 $$$1282E      2 000073A6 00000001     H   48729 48723
 $$$1282F      2 000073BE 00000001     H   48742 48725B
 $$$1283       1 00000050 00000001 A   U   48780 48777  48779
 $$$1285B      1 000073EA 00000001     X   48832 48839U
 $$$1286B      4 0000740E 00000001     I   48911 48924
 $$$1286F      2 00007416 00000001     H   48921 48911B 48923
 $$$1287E      2 0000741A 00000001     H   48931 48925
 $$$1287F      2 00007432 00000001     H   48981 48927B
 $$$1288B      4 0000741E 00000001     I   48944 48957
 $$$1288F      2 00007424 00000001     H   48954 48944B 48956
 $$$1289E      2 00007428 00000001     H   48964 48958
 $$$1289F      2 00007432 00000001     H   48977 48960B
1VETS     (VETS2025) (12:59) (15MAR04) Ordinary Symbol and Literal Cross Reference                                          Page  186
 $$$129        6 0000099C 00000001     I   15760 15761  15761
 $$$1290F      2 0000743E 00000001     H   49000 48991B
 $$$1291F      2 000074BA 00000001     H   49181 49029B
 $$$1292F      2 000074B6 00000001     H   49176 49045B
 $$$1293B      4 00007486 00000001     I   49063 49082
 $$$1293F      2 0000748E 00000001     H   49078 49063B 49081
 $$$1295B      4 00007496 00000001     I   49099 49118
 $$$1295E      2 00007492 00000001     H   49089 49083
 $$$1295F      2 0000749E 00000001     H   49114 49085B 49099B 49117
 $$$1298B      4 000074A6 00000001     I   49135 49153
 $$$1298E      2 000074A2 00000001     H   49125 49119
 $$$1298F      2 000074AE 00000001     H   49150 49121B 49135B 49152
 $$$130F       2 00000532 00000001     H   15788 15778B
 $$$1301E      2 000074B2 00000001     H   49160 49154
 $$$1301F      2 000074B6 00000001     H   49172 49156B
 $$$1302F      2 000074CC 00000001     H   49206 49196B
 $$$1303B      4 000074D6 00000001     I   49222 49242
 $$$1303F      2 000074E2 00000001     H   49239 49222B 49241
 $$$1304E      2 000074E6 00000001     H   49249 49243
 $$$1304F      2 000074FA 00000001     H   49290 49245B
 $$$1305F      2 000074FA 00000001     H   49286 49271B
 $$$1306F      2 0000750A 00000001     H   49324 49309B
 $$$1307F      2 0000751A 00000001     H   49354 49335B
 $$$1308F      2 0000752A 00000001     H   49384 49365B
 $$$1309F      2 00007536 00000001     H   49410 49395B
 $$$131E       2 0000053E 00000001     H   15806 15799
 $$$131F       2 00000596 00000001     H   15936 15801B 15895B
 $$$1310F      2 00007548 00000001     H   49437 49422B
 $$$1311F      2 00007554 00000001     H   49463 49448B
 $$$1312F      2 00007564 00000001     H   49495 49480B
 $$$1313B      4 00007568 00000001     I   49509 50036
 $$$1313F      2 000076A0 00000001     H   50031 49509B 50035
 $$$1315B      4 00007580 00000001     I   49553 49615
 $$$1315F      2 000075A2 00000001     H   49610 49553B 49614
 $$$1315T      2 00007584 00000001     H   49556 49531B 49543B
 $$$1319F      2 000075A2 00000001     H   49606 49593B
 $$$132F       2 00000596 00000001     H   15932 15823B
 $$$1320E      2 000075A6 00000001     H   49622 49616
 $$$1320F      2 000075CA 00000001     H   49682 49618B 49631B
 $$$1322F      2 000075BE 00000001     H   49670 49655B
 $$$1323B      4 000075DC 00000001     I   49709 49722
 $$$1323F      2 000075E4 00000001     H   49719 49709B 49721
 $$$1324E      2 000075E8 00000001     H   49729 49723
 $$$1324F      2 000075FC 00000001     H   49794 49725B
 $$$1325F      2 000075F8 00000001     H   49775 49763B
 $$$1325S      2 000075E8 00000001     H   49757 49774B
 $$$1328B      4 00007608 00000001     I   49825 49851
 $$$1328F      2 0000761C 00000001     H   49846 49825B 49850
 $$$1329E      2 00007620 00000001     H   49858 49852
 $$$1329F      2 000076A0 00000001     H   50027 49854B
 $$$133F       2 00000594 00000001     H   15924 15852B 15866B
 $$$133S       2 00000558 00000001     H   15844 15923B
 $$$1330F      2 0000764A 00000001     H   49929 49914B
 $$$1330T      2 00007642 00000001     H   49917 49880B 49891B 49904B
 $$$1334F      2 00007656 00000001     H   49951 49941B
 $$$1335F      2 00007696 00000001     H   50014 49969B
 $$$1335S      2 0000765C 00000001     H   49963 50013B
 $$$1337F      2 0000768C 00000001     H   50005 49990B
 $$$1338B      4 000076A8 00000001     I   50053 50292
1VETS     (VETS2025) (12:59) (15MAR04) Ordinary Symbol and Literal Cross Reference                                          Page  187
 $$$1338E      2 000076A4 00000001     H   50043 50037
 $$$1338F      2 0000772A 00000001     H   50287 50039B 50053B 50291
 $$$1341B      4 000076B6 00000001     I   50074 50087
 $$$1341F      2 000076BE 00000001     H   50084 50074B 50086
 $$$1342E      2 000076C2 00000001     H   50094 50088
 $$$1342F      2 000076D6 00000001     H   50159 50090B
 $$$1343F      2 000076D2 00000001     H   50140 50128B
 $$$1343S      2 000076C2 00000001     H   50122 50139B
 $$$1345F      2 000076FE 00000001     H   50212 50194B
 $$$1345S      2 000076EA 00000001     H   50188 50211B
 $$$1347B      4 00007702 00000001     I   50224 50249
 $$$1347F      2 00007716 00000001     H   50245 50224B 50248
 $$$1348E      2 0000771A 00000001     H   50256 50250
 $$$1348F      2 0000772A 00000001     H   50283 50252B
 $$$1349F      2 00007726 00000001     H   50278 50268B
 $$$1350B      4 00007732 00000001     I   50309 50338
 $$$1350E      2 0000772E 00000001     H   50299 50293
 $$$1350F      2 0000774A 00000001     H   50333 50295B 50309B 50337
 $$$1353B      4 00007752 00000001     I   50355 50511
 $$$1353E      2 0000774E 00000001     H   50345 50339
 $$$1353F      2 000077AE 00000001     H   50507 50341B 50355B 50510
 $$$1356F      2 00007766 00000001     H   50395 50380B
 $$$1357B      4 0000777A 00000001     I   50432 50481
 $$$1357F      2 0000779A 00000001     H   50477 50432B 50480
 $$$1357T      2 0000777E 00000001     H   50435 50410B 50422B
 $$$136B       4 0000056E 00000001     I   15886 15902
 $$$136F       2 0000057E 00000001     H   15899 15886B 15901
 $$$1360F      2 0000779A 00000001     H   50473 50460B
 $$$1361E      2 0000779E 00000001     H   50488 50482
 $$$1361F      2 000077A4 00000001     H   50494 50484B
 $$$1362E      2 000077B2 00000001     H   50518 50512
 $$$1362F      2 000077BC 00000001     H   50531 50514B
 $$$1363       1 00000050 00000001 A   U   50579 50576  50578
 $$$1365B      1 000077EA 00000001     X   50628 50635U
 $$$1366B      4 00007808 00000001     I   50706 50719
 $$$1366F      2 00007810 00000001     H   50716 50706B 50718
 $$$1367E      2 00007814 00000001     H   50726 50720
 $$$1367F      2 0000782C 00000001     H   50776 50722B
 $$$1368B      4 00007818 00000001     I   50739 50752
 $$$1368F      2 0000781E 00000001     H   50749 50739B 50751
 $$$1369E      2 00007822 00000001     H   50759 50753
 $$$1369F      2 0000782C 00000001     H   50772 50755B
 $$$137E       2 00000582 00000001     H   15909 15903
 $$$137F       2 00000590 00000001     H   15919 15905B
 $$$1370F      2 00007838 00000001     H   50795 50786B
 $$$1376F      2 0000789E 00000001     H   50930 50920B
 $$$1377F      2 000078EC 00000001     H   51010 51000B
 $$$1378       1 00000050 00000001 A   U   51058 51055  51057
 $$$1379F      2 00007AE8 00000001     H   51659 51621B
 $$$138        1 00000050 00000001 A   U   15962 15959  15961
 $$$1380B      1 0000792C 00000001     X   51108 51115U
 $$$1381B      4 00007942 00000001     I   51170 51183
 $$$1381F      2 0000794A 00000001     H   51180 51170B 51182
 $$$1382E      2 0000794E 00000001     H   51190 51184
 $$$1382F      2 00007966 00000001     H   51240 51186B
 $$$1383B      4 00007952 00000001     I   51203 51216
 $$$1383F      2 00007958 00000001     H   51213 51203B 51215
 $$$1384E      2 0000795C 00000001     H   51223 51217
 $$$1384F      2 00007966 00000001     H   51236 51219B
1VETS     (VETS2025) (12:59) (15MAR04) Ordinary Symbol and Literal Cross Reference                                          Page  188
 $$$1385F      2 00007972 00000001     H   51259 51250B
 $$$1387F      2 000079BE 00000001     H   51340 51311B
 $$$1389F      2 000079BE 00000001     H   51336 51326B
 $$$1390F      2 00007A0A 00000001     H   51481 51353B
 $$$1392B      4 000079CA 00000001     I   51369 51434
 $$$1392F      2 000079EE 00000001     H   51429 51369B 51433
 $$$1394F      2 000079EE 00000001     H   51425 51387B
 $$$1395F      2 000079EE 00000001     H   51421 51408B
 $$$1396E      2 000079F2 00000001     H   51441 51435
 $$$1396F      2 00007A0A 00000001     H   51477 51437B 51451B
 $$$1399F      2 00007AD0 00000001     H   51625 51613B
 $$$140B       1 000005CC 00000001     X   16011 16018U
 $$$1400       1 00000050 00000001 A   U   51668 51665  51667
 $$$1402B      1 00007B10 00000001     X   51719 51726U
 $$$1403F      2 00007B2E 00000001     H   51814 51782B
 $$$1405F      2 00007B2E 00000001     H   51810 51797B
 $$$1406       1 00000050 00000001 A   U   51852 51849  51851
 $$$1407B      4 00007BFA 00000001     I   52339 52524
 $$$1407F      2 00007C56 00000001     H   52519 52339B 52523
 $$$1409B      4 00007C02 00000001     I   52355 52374
 $$$1409F      2 00007C0A 00000001     H   52371 52355B 52373
 $$$141F       2 000005FC 00000001     H   16135 16040B
 $$$1410E      2 00007C0E 00000001     H   52381 52375
 $$$1410F      2 00007C12 00000001     H   52393 52377B
 $$$1411F      2 00007C3A 00000001     H   52473 52419B
 $$$1412B      4 00007C2C 00000001     I   52439 52452
 $$$1412F      2 00007C34 00000001     H   52449 52439B 52451
 $$$1413E      2 00007C38 00000001     H   52459 52453
 $$$1413F      2 00007C3A 00000001     H   52469 52455B
 $$$1414F      2 00007C46 00000001     H   52493 52484B
 $$$1415B      4 00007C5E 00000001     I   52541 52893
 $$$1415E      2 00007C5A 00000001     H   52531 52525
 $$$1415F      2 00007CEC 00000001     H   52888 52527B 52541B 52892
 $$$1418B      4 00007C66 00000001     I   52558 52577
 $$$1418F      2 00007C6E 00000001     H   52573 52558B 52576
 $$$1419B      4 00007C76 00000001     I   52594 52641
 $$$1419E      2 00007C72 00000001     H   52584 52578
 $$$1419F      2 00007C8E 00000001     H   52637 52580B 52594B 52640
 $$$142F       2 000005F0 00000001     H   16101 16073B 16091B
 $$$142S       2 000005D8 00000001     H   16063 16100B
 $$$1421F      2 00007C86 00000001     H   52619 52610B
 $$$1422E      2 00007C92 00000001     H   52648 52642
 $$$1422F      2 00007C9A 00000001     H   52664 52644B
 $$$1423F      2 00007CEC 00000001     H   52883 52688B
 $$$1424F      2 00007CE4 00000001     H   52858 52848B
 $$$1424S      2 00007CBA 00000001     H   52770 52857B
 $$$1425B      4 00007CC6 00000001     I   52787 52801
 $$$1425F      2 00007CCE 00000001     H   52798 52787B 52800
 $$$1426E      2 00007CD2 00000001     H   52808 52802
 $$$1426F      2 00007CD8 00000001     H   52838 52804B
 $$$1428B      4 00007CF4 00000001     I   52910 53002
 $$$1428E      2 00007CF0 00000001     H   52900 52894
 $$$1428F      2 00007D20 00000001     H   52997 52896B 52910B 53001
 $$$1432B      4 00007D08 00000001     I   52950 52968
 $$$1432F      2 00007D10 00000001     H   52965 52950B 52967
 $$$1433E      2 00007D14 00000001     H   52975 52969
 $$$1433F      2 00007D18 00000001     H   52987 52971B
 $$$1434B      4 00007D28 00000001     I   53019 53034
 $$$1434E      2 00007D24 00000001     H   53009 53003
1VETS     (VETS2025) (12:59) (15MAR04) Ordinary Symbol and Literal Cross Reference                                          Page  189
 $$$1434F      2 00007D30 00000001     H   53029 53005B 53019B 53033
 $$$1437E      2 00007D34 00000001     H   53041 53035
 $$$1437F      2 00007D40 00000001     H   53061 53037B 53051B
 $$$1440B      4 00007D66 00000001     I   53215 53243
 $$$1440F      2 00007D76 00000001     H   53238 53215B 53242
 $$$1441B      4 00007D80 00000001     I   53260 53288
 $$$1441E      2 00007D7A 00000001     H   53250 53244
 $$$1441F      2 00007D90 00000001     H   53283 53246B 53260B 53287
 $$$1443B      4 00007D9A 00000001     I   53305 53332
 $$$1443E      2 00007D94 00000001     H   53295 53289
 $$$1443F      2 00007DAA 00000001     H   53328 53291B 53305B 53331
 $$$1445E      2 00007DAE 00000001     H   53339 53333
 $$$1445F      2 00007DB8 00000001     H   53351 53335B
 $$$1446F      2 00007DFC 00000001     H   53588 53578B
 $$$1446S      2 00007DD2 00000001     H   53483 53587B
 $$$1447B      4 00007DDE 00000001     I   53500 53514
 $$$1447F      2 00007DE6 00000001     H   53511 53500B 53513
 $$$1448E      2 00007DEA 00000001     H   53521 53515
 $$$1448F      2 00007DF0 00000001     H   53568 53517B
 $$$145F       2 000005FC 00000001     H   16126 16116B
 $$$146        1 00000050 00000001 A   U   16156 16153  16155
 $$$147B       1 0000061C 00000001     X   16172 16179U
 $$$148F       2 00000642 00000001     H   16225 16192B
 $$$149B       1 00000678 00000001     X   16293 16300U
 $$$150F       2 0000069E 00000001     H   16346 16313B
 $$$151B       1 000006C2 00000001     X   16396 16403U 18228U
 $$$152F       2 000006E8 00000001     H   16449 16416B
 $$$153F       2 00000710 00000001     H   16494 16461B
 $$$154F       2 00000724 00000001     H   16521 16506B
 $$$156B       1 000009BC 00000001     X   16662 16672U
 $$$157F       2 00000A4C 00000001     H   16781 16768B
 $$$158F       2 00000A5A 00000001     H   16802 16793B
 $$$159        6 000010CC 00000001     I   16815 16807X
 $$$160        6 000010CC 00000001     I   16814 16815  16815
 $$$161F       2 00000A94 00000001     H   16876 16844B 16866B
 $$$161S       2 00000A6C 00000001     H   16835 16875B
 $$$163F       2 00000A8C 00000001     H   16870 16857B
 $$$164F       2 00000AC0 00000001     H   16898 16885B
 $$$165F       2 00000C08 00000001     H   17206 16954B 17045B
 $$$165S       2 00000AC0 00000001     H   16905 17205B
 $$$167B       4 00000B28 00000001     I   16987 17142
 $$$167F       2 00000BDE 00000001     H   17136 16974B 16987B 17139
 $$$168B       4 00000B20 00000001     I   16974 17140
 $$$169F       2 00000B8A 00000001     H   17049 17037B
 $$$170F       2 00000B98 00000001     H   17069 17060B
 $$$171F       2 00000BDE 00000001     H   17132 17081B
 $$$172        6 000010D2 00000001     I   17099 17091X
 $$$173        6 000010D2 00000001     I   17098 17099  17099
 $$$174F       2 00000BDE 00000001     H   17127 17114B
 $$$175E       2 00000BE2 00000001     H   17149 17141  17143
 $$$175F       2 00000C04 00000001     H   17201 17145B
 $$$176F       2 00000C04 00000001     H   17197 17162B
 $$$177F       2 00000BFC 00000001     H   17190 17178B
 $$$179F       2 00000CFE 00000001     H   17391 17282B
 $$$180F       2 00000CFE 00000001     H   17387 17372B
 $$$181B       4 00000D82 00000001     I   17491 17504
 $$$181F       2 00000D8A 00000001     H   17501 17491B 17503
 $$$182E       2 00000D8E 00000001     H   17511 17505
 $$$182F       2 00000DA6 00000001     H   17561 17507B
1VETS     (VETS2025) (12:59) (15MAR04) Ordinary Symbol and Literal Cross Reference                                          Page  190
 $$$183B       4 00000D92 00000001     I   17524 17537
 $$$183F       2 00000D98 00000001     H   17534 17524B 17536
 $$$184E       2 00000D9C 00000001     H   17544 17538
 $$$184F       2 00000DA6 00000001     H   17557 17540B
 $$$185F       2 00000DB2 00000001     H   17580 17571B
 $$$186F       2 00000DEC 00000001     H   17627 17614B
 $$$187F       2 00000E0A 00000001     H   17680 17667B
 $$$187T       2 00000E04 00000001     H   17670 17643B 17656B
 $$$190B       4 00000E38 00000001     I   17713 17726
 $$$190F       2 00000E42 00000001     H   17723 17713B 17725
 $$$191E       2 00000E46 00000001     H   17733 17727
 $$$191F       2 00000E4C 00000001     H   17740 17729B
 $$$192F       2 00000E78 00000001     H   17789 17779B
 $$$193B       4 00000EF6 00000001     I   17869 17882
 $$$193F       2 00000EFE 00000001     H   17879 17869B 17881
 $$$194E       2 00000F02 00000001     H   17889 17883
 $$$194F       2 00000F1A 00000001     H   17939 17885B
 $$$195B       4 00000F06 00000001     I   17902 17915
 $$$195F       2 00000F0C 00000001     H   17912 17902B 17914
 $$$196E       2 00000F10 00000001     H   17922 17916
 $$$196F       2 00000F1A 00000001     H   17935 17918B
 $$$197F       2 00000F26 00000001     H   17958 17949B
 $$$198F       2 00000F60 00000001     H   18005 17992B
 $$$199F       2 00000FA2 00000001     H   18058 18045B
 $$$199T       2 00000F78 00000001     H   18048 18021B 18034B
 $$$202F       2 00000FC0 00000001     H   18112 18099B
 $$$202T       2 00000FBA 00000001     H   18102 18075B 18088B
 $$$205F       2 00000FF0 00000001     H   18141 18128B
 $$$206        1 00000064 00000001 A   U   18239 18236  18238
 $$$207B       1 000011E6 00000001     X   18356 18363U
 $$$208F       2 0000120C 00000001     H   18409 18376B
 $$$209F       2 00001222 00000001     H   18445 18430B
 $$$210F       2 00001234 00000001     H   18488 18478B
 $$$212F       2 0000125A 00000001     H   18552 18537B
 $$$216B       4 000012C2 00000001     I   18627 18646
 $$$216F       2 000012CA 00000001     H   18643 18627B 18645
 $$$218E       2 000012CE 00000001     H   18653 18647
 $$$218F       2 000012F2 00000001     H   18746 18649B
 $$$219B       4 000012D2 00000001     I   18666 18686
 $$$219F       2 000012DA 00000001     H   18682 18666B 18685
 $$$221B       4 000012E2 00000001     I   18703 18722
 $$$221E       2 000012DE 00000001     H   18693 18687
 $$$221F       2 000012EA 00000001     H   18719 18689B 18703B 18721
 $$$224E       2 000012EE 00000001     H   18729 18723
 $$$224F       2 000012F2 00000001     H   18742 18725B
 $$$226B       4 00001376 00000001     I   18844 18857
 $$$226F       2 0000137E 00000001     H   18854 18844B 18856
 $$$227E       2 00001382 00000001     H   18864 18858
 $$$227F       2 0000139A 00000001     H   18914 18860B
 $$$228B       4 00001386 00000001     I   18877 18890
 $$$228F       2 0000138C 00000001     H   18887 18877B 18889
 $$$229E       2 00001390 00000001     H   18897 18891
 $$$229F       2 0000139A 00000001     H   18910 18893B
 $$$230F       2 000013A6 00000001     H   18933 18924B
 $$$231F       2 000013E0 00000001     H   18980 18967B
 $$$232F       2 000013F6 00000001     H   19020 19007B
 $$$232T       2 000013F0 00000001     H   19010 18996B
 $$$234F       2 00001426 00000001     H   19061 19048B
 $$$235F       2 00001438 00000001     H   19090 19077B
1VETS     (VETS2025) (12:59) (15MAR04) Ordinary Symbol and Literal Cross Reference                                          Page  191
 $$$237B       1 0000144A 00000001     X   19135 19142U
 $$$238F       2 00001470 00000001     H   19188 19155B
 $$$239F       2 00001498 00000001     H   19242 19209B
 $$$240B       1 000014B4 00000001     X   19283 19290U
 $$$241F       2 000014DA 00000001     H   19336 19303B
 $$$242F       2 00001502 00000001     H   19390 19357B
 $$$243F       2 0000151A 00000001     H   19425 19415B
 $$$244F       2 00001536 00000001     H   19462 19449B
 $$$245B       1 0000154E 00000001     X   19493 19500U
 $$$246F       2 00001574 00000001     H   19546 19513B
 $$$248B       1 000015A4 00000001     X   19609 19616U
 $$$249F       2 000015B4 00000001     H   19647 19635B
 $$$250        1 00000050 00000001 A   U   19666 19663  19665
 $$$251B       4 00001774 00000001     I   19770 19794
 $$$251F       2 00001782 00000001     H   19790 19770B 19793
 $$$252B       4 0000178A 00000001     I   19810 19834
 $$$252E       2 00001786 00000001     H   19801 19795
 $$$252F       2 00001798 00000001     H   19830 19797B 19810B 19833
 $$$254B       4 000017A0 00000001     I   19850 19874
 $$$254E       2 0000179C 00000001     H   19841 19835
 $$$254F       2 000017AE 00000001     H   19870 19837B 19850B 19873
 $$$256B       4 000017B6 00000001     I   19890 19914
 $$$256E       2 000017B2 00000001     H   19881 19875
 $$$256F       2 000017C4 00000001     H   19910 19877B 19890B 19913
 $$$258B       4 000017CC 00000001     I   19930 19954
 $$$258E       2 000017C8 00000001     H   19921 19915
 $$$258F       2 000017DA 00000001     H   19950 19917B 19930B 19953
 $$$260B       4 000017E2 00000001     I   19970 19994
 $$$260E       2 000017DE 00000001     H   19961 19955
 $$$260F       2 000017F0 00000001     H   19990 19957B 19970B 19993
 $$$262B       4 000017F8 00000001     I   20010 20025
 $$$262E       2 000017F4 00000001     H   20001 19995
 $$$262F       2 00001800 00000001     H   20022 19997B 20010B 20018B 20024
 $$$264E       2 00001804 00000001     H   20032 20026
 $$$264F       2 00001832 00000001     H   20090 20028B
 $$$265F       2 00001828 00000001     H   20077 20047B
 $$$266F       2 0000189A 00000001     H   20225 20106B
 $$$267B       4 0000189E 00000001     I   20239 20256
 $$$267F       2 000018A8 00000001     H   20252 20239B 20255
 $$$268B       4 000018B0 00000001     I   20272 20289
 $$$268E       2 000018AC 00000001     H   20263 20257
 $$$268F       2 000018BA 00000001     H   20285 20259B 20272B 20288
 $$$270B       4 000018C2 00000001     I   20305 20322
 $$$270E       2 000018BE 00000001     H   20296 20290
 $$$270F       2 000018CC 00000001     H   20318 20292B 20305B 20321
 $$$272B       4 000018D4 00000001     I   20338 20355
 $$$272E       2 000018D0 00000001     H   20329 20323
 $$$272F       2 000018DE 00000001     H   20351 20325B 20338B 20354
 $$$274B       4 000018E6 00000001     I   20371 20388
 $$$274E       2 000018E2 00000001     H   20362 20356
 $$$274F       2 000018F0 00000001     H   20384 20358B 20371B 20387
 $$$276B       4 000018F8 00000001     I   20404 20424
 $$$276E       2 000018F4 00000001     H   20395 20389
 $$$276F       2 00001908 00000001     H   20421 20391B 20404B 20423
 $$$278E       2 0000190C 00000001     H   20431 20425
 $$$278F       2 00001910 00000001     H   20438 20427B
 $$$279F       2 000019F8 00000001     H   20644 20493B
 $$$280F       2 000019F8 00000001     H   20640 20625B
 $$$281F       2 00001B62 00000001     H   21056 20664B
1VETS     (VETS2025) (12:59) (15MAR04) Ordinary Symbol and Literal Cross Reference                                          Page  192
 $$$282F       2 00001A30 00000001     H   20747 20732B
 $$$283B       4 00001AB0 00000001     I   20834 20847
 $$$283F       2 00001AB8 00000001     H   20844 20834B 20846
 $$$284E       2 00001ABC 00000001     H   20854 20848
 $$$284F       2 00001AD4 00000001     H   20904 20850B
 $$$285B       4 00001AC0 00000001     I   20867 20880
 $$$285F       2 00001AC6 00000001     H   20877 20867B 20879
 $$$286E       2 00001ACA 00000001     H   20887 20881
 $$$286F       2 00001AD4 00000001     H   20900 20883B
 $$$287F       2 00001AE0 00000001     H   20923 20914B
 $$$288F       2 00001B16 00000001     H   20963 20950B
 $$$289F       2 00001B3C 00000001     H   21029 21016B
 $$$289T       2 00001B36 00000001     H   21019 20979B 20992B 21005B
 $$$293F       2 00001B78 00000001     H   21095 21082B
 $$$293T       2 00001B72 00000001     H   21085 21072B
 $$$296B       1 00001B96 00000001     X   21153 21160U
 $$$297F       2 00001C5C 00000001     H   21441 21180B
 $$$298F       2 00001BE0 00000001     H   21257 21212B
 $$$298S       2 00001BA6 00000001     H   21206 21256B
 $$$300F       2 00001BD6 00000001     H   21248 21233B
 $$$301F       2 00001BF4 00000001     H   21291 21278B
 $$$305F       2 00001C3A 00000001     H   21419 21406B
 $$$305T       2 00001C34 00000001     H   21409 21356B 21369B 21382B 21395B
 $$$310        1 00000050 00000001 A   U   21468 21465  21467
 $$$312B       1 00001C8A 00000001     X   21518 21525U
 $$$313F       2 00001CA0 00000001     H   21564 21545B
 $$$314F       2 00001CE0 00000001     H   21637 21592B
 $$$314S       2 00001CA6 00000001     H   21586 21636B
 $$$316F       2 00001CD6 00000001     H   21628 21613B
 $$$317F       2 00001D4E 00000001     H   21789 21657B
 $$$318F       2 00001CFE 00000001     H   21686 21673B
 $$$320F       2 00001D2C 00000001     H   21772 21759B
 $$$320T       2 00001D26 00000001     H   21762 21722B 21735B 21748B
 $$$324        1 00000050 00000001 A   U   21822 21819  21821
 $$$326B       1 00001D7C 00000001     X   21869 21876U
 $$$327F       2 00001DA0 00000001     H   21962 21898B
 $$$328B       4 00001D88 00000001     I   21913 21931
 $$$328F       2 00001D90 00000001     H   21928 21913B 21930
 $$$329E       2 00001D94 00000001     H   21938 21932
 $$$329F       2 00001D98 00000001     H   21950 21934B
 $$$330        1 00000050 00000001 A   U   21981 21978  21980
 $$$331F       2 00002422 00000001     H   23724 23502B
 $$$332B       1 00001DC8 00000001     X   22049 22056U
 $$$333F       2 00001E7E 00000001     H   22176 22076B
 $$$334F       2 00001E7E 00000001     H   22172 22157B
 $$$335F       2 00001EA0 00000001     H   22204 22189B
 $$$336F       2 00001ED0 00000001     H   22276 22263B
 $$$336T       2 00001EBE 00000001     H   22266 22237B 22251B
 $$$339F       2 00001EE0 00000001     H   22317 22299B
 $$$341F       2 00001EEC 00000001     H   22344 22329B
 $$$343F       2 00001EF8 00000001     H   22371 22356B
 $$$345B       4 00001F2C 00000001     I   22402 22699
 $$$345F       2 00001FDE 00000001     H   22692 22402B 22698
 $$$346B       4 00001F3A 00000001     I   22424 22637
 $$$346F       2 00001FB4 00000001     H   22633 22424B 22636
 $$$347B       4 00001F52 00000001     I   22445 22459
 $$$347F       2 00001F5A 00000001     H   22455 22445B 22458
 $$$348B       4 00001F62 00000001     I   22476 22490
 $$$348E       2 00001F5E 00000001     H   22466 22460
1VETS     (VETS2025) (12:59) (15MAR04) Ordinary Symbol and Literal Cross Reference                                          Page  193
 $$$348F       2 00001F6A 00000001     H   22486 22462B 22476B 22489
 $$$350B       4 00001F72 00000001     I   22507 22521
 $$$350E       2 00001F6E 00000001     H   22497 22491
 $$$350F       2 00001F7A 00000001     H   22517 22493B 22507B 22520
 $$$352B       4 00001F82 00000001     I   22538 22552
 $$$352E       2 00001F7E 00000001     H   22528 22522
 $$$352F       2 00001F8A 00000001     H   22548 22524B 22538B 22551
 $$$354B       4 00001F92 00000001     I   22569 22583
 $$$354E       2 00001F8E 00000001     H   22559 22553
 $$$354F       2 00001F9A 00000001     H   22579 22555B 22569B 22582
 $$$356B       4 00001FA2 00000001     I   22600 22613
 $$$356E       2 00001F9E 00000001     H   22590 22584
 $$$356F       2 00001FAA 00000001     H   22610 22586B 22600B 22612
 $$$358E       2 00001FAE 00000001     H   22620 22614
 $$$358F       2 00001FB4 00000001     H   22629 22616B
 $$$359E       2 00001FB8 00000001     H   22644 22638
 $$$359F       2 00001FDE 00000001     H   22688 22640B
 $$$360F       2 00001FCA 00000001     H   22680 22670B
 $$$360T       2 00001FC6 00000001     H   22673 22659B
 $$$362E       2 00001FE2 00000001     H   22706 22700
 $$$362F       2 00001FFA 00000001     H   22715 22702B
 $$$363F       2 0000200A 00000001     H   22738 22728B
 $$$364F       2 0000201A 00000001     H   22760 22750B
 $$$365F       2 0000202A 00000001     H   22782 22772B
 $$$366F       2 0000203A 00000001     H   22804 22794B
 $$$367F       2 00002068 00000001     H   22837 22827B
 $$$368F       2 000020D0 00000001     H   22929 22848B
 $$$369F       2 0000209C 00000001     H   22890 22862B
 $$$370B       4 00002166 00000001     I   23073 23086
 $$$370F       2 0000216E 00000001     H   23083 23073B 23085
 $$$371E       2 00002172 00000001     H   23093 23087
 $$$371F       2 0000218A 00000001     H   23143 23089B
 $$$372B       4 00002176 00000001     I   23106 23119
 $$$372F       2 0000217C 00000001     H   23116 23106B 23118
 $$$373E       2 00002180 00000001     H   23126 23120
 $$$373F       2 0000218A 00000001     H   23139 23122B
 $$$374F       2 00002196 00000001     H   23162 23153B
 $$$375F       2 000021D0 00000001     H   23208 23195B
 $$$376F       2 00002202 00000001     H   23233 23220B
 $$$377F       2 00002220 00000001     H   23286 23273B
 $$$377T       2 0000221A 00000001     H   23276 23249B 23262B
 $$$380F       2 00002260 00000001     H   23329 23314B
 $$$381F       2 000022C0 00000001     H   23380 23365B
 $$$382F       2 000022E8 00000001     H   23409 23394B
 $$$383F       2 00002310 00000001     H   23438 23423B
 $$$384F       2 00002338 00000001     H   23467 23452B
 $$$385F       2 0000234A 00000001     H   23495 23480B
 $$$386        1 00000050 00000001 A   U   23733 23730  23732
 $$$387F       2 000025BA 00000001     H   23971 23880B 23892B
 $$$388B       1 00002566 00000001     X   23842 23849U
 $$$391        1 00000050 00000001 A   U   23980 23977  23979
 $$$393B       1 000025E2 00000001     X   24027 24034U
 $$$394        1 00000050 00000001 A   U   24133 24130  24132
 $$$396B       1 0000264E 00000001     X   24211 24218U
 $$$397F       2 0000266E 00000001     H   24277 24266B
 $$$398F       2 00002D64 00000001     H   27176 24300B
 $$$399B       4 0000267E 00000001     I   24317 24646
 $$$399F       2 0000275C 00000001     H   24641 24317B 24645
 $$$400F       2 000026A6 00000001     H   24351 24336B
1VETS     (VETS2025) (12:59) (15MAR04) Ordinary Symbol and Literal Cross Reference                                          Page  194
 $$$401F       2 000026D4 00000001     H   24423 24366B
 $$$402F       2 000026D4 00000001     H   24419 24395B 24408B
 $$$402S       2 000026BC 00000001     H   24387 24418B
 $$$405F       2 000026EA 00000001     H   24459 24448B
 $$$405T       2 000026E2 00000001     H   24451 24439B
 $$$407F       2 00002740 00000001     H   24588 24477B
 $$$407S       2 000026EE 00000001     H   24471 24587B
 $$$409F       2 00002722 00000001     H   24550 24495B
 $$$409S       2 000026FC 00000001     H   24489 24549B
 $$$411F       2 00002710 00000001     H   24523 24513B
 $$$412        6 00003038 00000001     I   24536 24528X
 $$$413        6 00003038 00000001     I   24535 24536  24536
 $$$414B       4 00002764 00000001     I   24663 24680
 $$$414E       2 00002760 00000001     H   24653 24647
 $$$414F       2 0000276A 00000001     H   24676 24649B 24663B 24679
 $$$416E       2 0000276E 00000001     H   24687 24681
 $$$416F       2 00002D64 00000001     H   27172 24683B
 $$$417F       2 000027A6 00000001     H   24768 24711B
 $$$418F       2 000027A6 00000001     H   24764 24740B 24753B
 $$$418S       2 0000278E 00000001     H   24732 24763B
 $$$421F       2 000027BC 00000001     H   24804 24793B
 $$$421T       2 000027B4 00000001     H   24796 24784B
 $$$423F       2 000027CC 00000001     H   24826 24816B
 $$$424F       2 00002802 00000001     H   24900 24843B
 $$$425F       2 00002802 00000001     H   24896 24872B 24885B
 $$$425S       2 000027EA 00000001     H   24864 24895B
 $$$428F       2 00002818 00000001     H   24936 24925B
 $$$428T       2 00002810 00000001     H   24928 24916B
 $$$430B       4 00002822 00000001     I   24956 25142
 $$$430F       2 0000289A 00000001     H   25137 24956B 25141
 $$$431F       2 00002854 00000001     H   25033 24976B
 $$$432F       2 00002854 00000001     H   25029 25005B 25018B
 $$$432S       2 0000283C 00000001     H   24997 25028B
 $$$435F       2 0000286A 00000001     H   25069 25058B
 $$$435T       2 00002862 00000001     H   25061 25049B
 $$$437B       4 00002872 00000001     I   25078 25098
 $$$437F       2 00002880 00000001     H   25095 25078B 25097
 $$$438E       2 00002884 00000001     H   25105 25099
 $$$438F       2 0000288E 00000001     H   25118 25101B
 $$$439B       4 000028A2 00000001     I   25159 26158
 $$$439E       2 0000289E 00000001     H   25149 25143
 $$$439F       2 00002B06 00000001     H   26153 25145B 25159B 26157
 $$$441F       2 000028D4 00000001     H   25236 25179B
 $$$442F       2 000028D4 00000001     H   25232 25208B 25221B
 $$$442S       2 000028BC 00000001     H   25200 25231B
 $$$445F       2 000028EA 00000001     H   25272 25261B
 $$$445T       2 000028E2 00000001     H   25264 25252B
 $$$447B       4 000028F4 00000001     I   25292 25522
 $$$447F       2 0000297A 00000001     H   25517 25292B 25521
 $$$448F       2 00002926 00000001     H   25368 25311B
 $$$449F       2 00002926 00000001     H   25364 25340B 25353B
 $$$449S       2 0000290E 00000001     H   25332 25363B
 $$$452F       2 0000293C 00000001     H   25404 25393B
 $$$452T       2 00002934 00000001     H   25396 25384B
 $$$454B       4 00002946 00000001     I   25423 25437
 $$$454F       2 0000294E 00000001     H   25433 25423B 25436
 $$$455B       4 00002956 00000001     I   25454 25468
 $$$455E       2 00002952 00000001     H   25444 25438
 $$$455F       2 0000295E 00000001     H   25464 25440B 25454B 25467
1VETS     (VETS2025) (12:59) (15MAR04) Ordinary Symbol and Literal Cross Reference                                          Page  195
 $$$457B       4 00002966 00000001     I   25485 25498
 $$$457E       2 00002962 00000001     H   25475 25469
 $$$457F       2 0000296E 00000001     H   25495 25471B 25485B 25497
 $$$459E       2 00002972 00000001     H   25505 25499
 $$$459F       2 0000297A 00000001     H   25513 25501B
 $$$460B       4 00002982 00000001     I   25539 26134
 $$$460E       2 0000297E 00000001     H   25529 25523
 $$$460F       2 00002AFA 00000001     H   26130 25525B 25539B 26133
 $$$462F       2 00002996 00000001     H   25566 25555B
 $$$463F       2 000029CE 00000001     H   25651 25594B
 $$$464F       2 000029CE 00000001     H   25647 25623B 25636B
 $$$464S       2 000029B6 00000001     H   25615 25646B
 $$$467F       2 000029E4 00000001     H   25687 25676B
 $$$467T       2 000029DC 00000001     H   25679 25667B
 $$$469B       4 000029EE 00000001     I   25706 25722
 $$$469F       2 000029F8 00000001     H   25716 25706B 25721
 $$$470B       4 00002A00 00000001     I   25739 26099
 $$$470E       2 000029FC 00000001     H   25729 25723
 $$$470F       2 00002AE4 00000001     H   26095 25725B 25739B 26098
 $$$472F       2 00002A32 00000001     H   25815 25758B
 $$$473F       2 00002A32 00000001     H   25811 25787B 25800B
 $$$473S       2 00002A1A 00000001     H   25779 25810B
 $$$476F       2 00002A48 00000001     H   25851 25840B
 $$$476T       2 00002A40 00000001     H   25843 25831B
 $$$478F       2 00002A76 00000001     H   25923 25866B
 $$$479F       2 00002A76 00000001     H   25919 25895B 25908B
 $$$479S       2 00002A5E 00000001     H   25887 25918B
 $$$482F       2 00002A8C 00000001     H   25959 25948B
 $$$482T       2 00002A84 00000001     H   25951 25939B
 $$$484F       2 00002AE4 00000001     H   26091 25977B 25988B 26001B
 $$$484S       2 00002A8E 00000001     H   25969 26090B
 $$$488F       2 00002ADA 00000001     H   26083 26026B
 $$$489F       2 00002ADA 00000001     H   26079 26055B 26068B
 $$$489S       2 00002AC2 00000001     H   26047 26078B
 $$$492E       2 00002AE8 00000001     H   26106 26100
 $$$492F       2 00002AF0 00000001     H   26114 26102B
 $$$493E       2 00002AFE 00000001     H   26141 26135
 $$$493F       2 00002B06 00000001     H   26149 26137B
 $$$494B       4 00002B0E 00000001     I   26175 26651
 $$$494E       2 00002B0A 00000001     H   26165 26159
 $$$494F       2 00002C36 00000001     H   26646 26161B 26175B 26650
 $$$496F       2 00002B40 00000001     H   26252 26195B
 $$$497F       2 00002B40 00000001     H   26248 26224B 26237B
 $$$497S       2 00002B28 00000001     H   26216 26247B
 $$$500F       2 00002B56 00000001     H   26288 26277B
 $$$500T       2 00002B4E 00000001     H   26280 26268B
 $$$502F       2 00002B6C 00000001     H   26318 26307B
 $$$503F       2 00002B9A 00000001     H   26390 26333B
 $$$504F       2 00002B9A 00000001     H   26386 26362B 26375B
 $$$504S       2 00002B82 00000001     H   26354 26385B
 $$$507F       2 00002BB0 00000001     H   26426 26415B
 $$$507T       2 00002BA8 00000001     H   26418 26406B
 $$$509B       4 00002BBA 00000001     I   26445 26459
 $$$509F       2 00002BC2 00000001     H   26455 26445B 26458
 $$$510B       4 00002BCA 00000001     I   26476 26490
 $$$510E       2 00002BC6 00000001     H   26466 26460
 $$$510F       2 00002BD2 00000001     H   26486 26462B 26476B 26489
 $$$512B       4 00002BDA 00000001     I   26507 26520
 $$$512E       2 00002BD6 00000001     H   26497 26491
1VETS     (VETS2025) (12:59) (15MAR04) Ordinary Symbol and Literal Cross Reference                                          Page  196
 $$$512F       2 00002BE2 00000001     H   26517 26493B 26507B 26519
 $$$514E       2 00002BE6 00000001     H   26527 26521
 $$$514F       2 00002BEE 00000001     H   26535 26523B
 $$$515F       2 00002C1C 00000001     H   26607 26550B
 $$$516F       2 00002C1C 00000001     H   26603 26579B 26592B
 $$$516S       2 00002C04 00000001     H   26571 26602B
 $$$521B       4 00002C3E 00000001     I   26668 26836
 $$$521E       2 00002C3A 00000001     H   26658 26652
 $$$521F       2 00002CA4 00000001     H   26831 26654B 26668B 26835
 $$$523F       2 00002C70 00000001     H   26744 26687B
 $$$524F       2 00002C70 00000001     H   26740 26716B 26729B
 $$$524S       2 00002C58 00000001     H   26708 26739B
 $$$527F       2 00002C86 00000001     H   26780 26769B
 $$$527T       2 00002C7E 00000001     H   26772 26760B
 $$$531B       4 00002CAC 00000001     I   26853 27041
 $$$531E       2 00002CA8 00000001     H   26843 26837
 $$$531F       2 00002D16 00000001     H   27037 26839B 26853B 27040
 $$$533F       2 00002CFA 00000001     H   26984 26881B 26892B
 $$$533S       2 00002CB8 00000001     H   26873 26983B
 $$$536F       2 00002CD6 00000001     H   26920 26910B
 $$$537F       2 00002CF6 00000001     H   26979 26959B
 $$$538E       2 00002D1A 00000001     H   27048 27042
 $$$538F       2 00002D22 00000001     H   27056 27044B
 $$$539F       2 00002D58 00000001     H   27150 27067B
 $$$540F       2 00002D56 00000001     H   27144 27087B
 $$$541F       2 00002D56 00000001     H   27140 27116B 27129B
 $$$541S       2 00002D3E 00000001     H   27108 27139B
 $$$544F       2 00002D64 00000001     H   27168 27158B
 $$$545F       2 00002D78 00000001     H   27220 27192B 27204B
 $$$547F       2 00002D86 00000001     H   27245 27232B
 $$$548F       2 00002DC6 00000001     H   27308 27263B
 $$$548S       2 00002D8C 00000001     H   27257 27307B
 $$$550F       2 00002DBC 00000001     H   27299 27284B
 $$$551B       4 00002DD0 00000001     I   27338 27392
 $$$551F       2 00002DF0 00000001     H   27388 27338B 27391
 $$$552F       2 00002DE4 00000001     H   27373 27356B
 $$$554E       2 00002DF4 00000001     H   27399 27393
 $$$554F       2 00002E44 00000001     H   27574 27395B
 $$$555B       4 00002DF8 00000001     I   27411 27477
 $$$555F       2 00002E14 00000001     H   27473 27411B 27476
 $$$556B       4 00002E04 00000001     I   27432 27450
 $$$556F       2 00002E0C 00000001     H   27447 27432B 27449
 $$$557E       2 00002E10 00000001     H   27457 27451
 $$$557F       2 00002E14 00000001     H   27469 27453B
 $$$558E       2 00002E18 00000001     H   27484 27478
 $$$558F       2 00002E44 00000001     H   27570 27480B
 $$$560B       4 00002E28 00000001     I   27521 27537
 $$$560F       2 00002E32 00000001     H   27533 27521B 27536
 $$$561E       2 00002E36 00000001     H   27544 27538
 $$$561F       2 00002E40 00000001     H   27559 27540B
 $$$563F       2 00002E68 00000001     H   27644 27628B
 $$$564F       2 00002EA8 00000001     H   27708 27663B
 $$$564S       2 00002E6E 00000001     H   27657 27707B
 $$$566F       2 00002E9E 00000001     H   27699 27684B
 $$$567F       2 00002EE0 00000001     H   27807 27743B
 $$$568F       2 00002EE0 00000001     H   27803 27764B 27776B 27788B
 $$$571        1 0000005C 00000001 A   U   27834 27831  27833
 $$$572F       2 000031F0 00000001     H   28276 28028B 28055B 28253B
 $$$573B       1 00003158 00000001     X   27970 27977U
1VETS     (VETS2025) (12:59) (15MAR04) Ordinary Symbol and Literal Cross Reference                                          Page  197
 $$$574F       2 00003172 00000001     H   28032 28014B
 $$$575F       2 0000317E 00000001     H   28059 28047B
 $$$576F       2 000031A6 00000001     H   28135 28076B
 $$$577F       2 000031A6 00000001     H   28131 28109B
 $$$578F       2 000031B2 00000001     H   28158 28147B
 $$$579F       2 000031EA 00000001     H   28257 28184B
 $$$579T       2 000031C2 00000001     H   28187 28174B
 $$$58B        1 00000026 00000001     X   13653 13660U
 $$$581F       2 000031DE 00000001     H   28230 28217B
 $$$583        1 00000050 00000001 A   U   28285 28282  28284
 $$$585B       1 00003232 00000001     X   28342 28349U
 $$$586        1 00000050 00000001 A   U   28388 28385  28387
 $$$588B       1 00003264 00000001     X   28438 28445U
 $$$59F        2 0000004C 00000001     H   13706 13673B
 $$$590B       4 0000327A 00000001     I   28497 28513
 $$$590F       2 00003284 00000001     H   28510 28497B 28512
 $$$591E       2 00003288 00000001     H   28520 28514
 $$$591F       2 0000338C 00000001     H   28833 28516B
 $$$592F       2 000032A4 00000001     H   28567 28545B
 $$$593F       2 000032B0 00000001     H   28589 28579B
 $$$594F       2 00003370 00000001     H   28778 28602B
 $$$595F       2 000032E0 00000001     H   28672 28657B
 $$$596F       2 00003358 00000001     H   28761 28751B
 $$$597F       2 00003384 00000001     H   28809 28796B
 $$$599        1 00000050 00000001 A   U   28860 28857  28859
 $$$60F        2 00000060 00000001     H   13734 13718B
 $$$600F       2 00003A68 00000001     H   31173 29190B
 $$$601B       1 000033DE 00000001     X   28982 28989U
 $$$603F       2 00003480 00000001     H   29199 29060B
 $$$603T       2 00003402 00000001     H   29063 29050B
 $$$605F       2 00003472 00000001     H   29175 29096B
 $$$605S       2 00003404 00000001     H   29088 29174B
 $$$607B       4 00003422 00000001     I   29118 29131
 $$$607F       2 0000342A 00000001     H   29128 29118B 29130
 $$$608E       2 0000342E 00000001     H   29138 29132
 $$$608F       2 00003432 00000001     H   29145 29134B
 $$$609F       2 00003490 00000001     H   29230 29216B
 $$$61F        2 0000006C 00000001     H   13764 13746B
 $$$611F       2 00003504 00000001     H   29375 29282B
 $$$611S       2 000034AC 00000001     H   29276 29374B
 $$$613F       2 000034BE 00000001     H   29305 29296B
 $$$614        6 00003AC6 00000001     I   29318 29310X
 $$$615        6 00003AC6 00000001     I   29317 29318  29318
 $$$616B       4 000034C4 00000001     I   29331 29352
 $$$616F       2 000034E6 00000001     H   29348 29331B 29351
 $$$617E       2 000034EA 00000001     H   29359 29353
 $$$617F       2 00003500 00000001     H   29370 29355B
 $$$618F       2 00003666 00000001     H   29803 29389B
 $$$619F       2 00003666 00000001     H   29799 29428B
 $$$619T       2 00003522 00000001     H   29431 29418B
 $$$62F        2 0000013C 00000001     H   14040 13825B
 $$$62S        2 00000074 00000001     H   13776 14039B
 $$$621F       2 00003546 00000001     H   29475 29451B 29461B
 $$$621S       2 0000352C 00000001     H   29443 29474B
 $$$624F       2 000035B6 00000001     H   29588 29492B
 $$$625B       4 0000355E 00000001     I   29513 29526
 $$$625F       2 00003564 00000001     H   29523 29513B 29525
 $$$626E       2 00003568 00000001     H   29533 29527
 $$$626F       2 0000356A 00000001     H   29540 29529B
1VETS     (VETS2025) (12:59) (15MAR04) Ordinary Symbol and Literal Cross Reference                                          Page  198
 $$$627F       2 00003622 00000001     H   29682 29601B
 $$$628B       4 000035CC 00000001     I   29619 29632
 $$$628F       2 000035D2 00000001     H   29629 29619B 29631
 $$$629E       2 000035D6 00000001     H   29639 29633
 $$$629F       2 000035D8 00000001     H   29646 29635B
 $$$630F       2 00003640 00000001     H   29718 29694B
 $$$631F       2 00003650 00000001     H   29749 29733B
 $$$632F       2 0000365E 00000001     H   29778 29763B
 $$$633F       2 00003666 00000001     H   29795 29785B
 $$$634F       2 00003672 00000001     H   29825 29815B
 $$$636F       2 0000369E 00000001     H   29885 29866B
 $$$64B        4 000000E6 00000001     I   13873 13889
 $$$64F        2 000000EE 00000001     H   13883 13845B 13873B 13886
 $$$64T        2 000000EA 00000001     H   13876 13862B
 $$$640F       2 000036F2 00000001     H   29988 29975B
 $$$641F       2 00003702 00000001     H   30017 30002B
 $$$642F       2 0000374C 00000001     H   30074 30053B
 $$$643F       2 000037A6 00000001     H   30170 30150B
 $$$643T       2 0000378A 00000001     H   30153 30113B 30126B 30139B
 $$$647F       2 000037BE 00000001     H   30208 30190B
 $$$649F       2 000037E0 00000001     H   30249 30231B
 $$$65B        4 000000D2 00000001     I   13845 13887
 $$$651F       2 00003838 00000001     H   30351 30286B
 $$$655F       2 00003848 00000001     H   30377 30366B
 $$$656F       2 00003858 00000001     H   30400 30389B
 $$$657F       2 00003864 00000001     H   30427 30414B
 $$$659B       4 0000387E 00000001     I   30473 30584
 $$$659F       2 000038C2 00000001     H   30580 30473B 30583
 $$$660B       4 0000388C 00000001     I   30489 30508
 $$$660F       2 00003894 00000001     H   30504 30489B 30507
 $$$661E       2 00003898 00000001     H   30515 30509
 $$$661F       2 000038C2 00000001     H   30576 30511B
 $$$662B       4 000038A2 00000001     I   30526 30544
 $$$662F       2 000038AA 00000001     H   30541 30526B 30543
 $$$663E       2 000038AE 00000001     H   30551 30545
 $$$663F       2 000038C2 00000001     H   30572 30547B
 $$$664E       2 000038C6 00000001     H   30591 30585
 $$$664F       2 00003902 00000001     H   30678 30587B
 $$$665B       4 000038D0 00000001     I   30602 30620
 $$$665F       2 000038D8 00000001     H   30617 30602B 30619
 $$$666E       2 000038DC 00000001     H   30627 30621
 $$$666F       2 000038FE 00000001     H   30673 30623B
 $$$667F       2 000038FE 00000001     H   30669 30647B
 $$$668F       2 00003912 00000001     H   30704 30693B
 $$$669F       2 00003922 00000001     H   30727 30716B
 $$$67B        4 0000010A 00000001     I   13937 13956
 $$$67E        2 000000F2 00000001     H   13896 13888  13890
 $$$67F        2 00000110 00000001     H   13950 13892B 13909B 13937B 13953
 $$$67T        2 0000010E 00000001     H   13940 13926B
 $$$670F       2 00003932 00000001     H   30753 30741B
 $$$671F       2 0000394A 00000001     H   30778 30769B
 $$$672F       2 00003976 00000001     H   30871 30790B
 $$$673B       4 0000395E 00000001     I   30818 30843
 $$$673F       2 0000396A 00000001     H   30839 30818B 30842
 $$$674E       2 0000396E 00000001     H   30850 30844
 $$$674F       2 00003972 00000001     H   30862 30846B
 $$$675F       2 00003986 00000001     H   30896 30886B
 $$$676F       2 00003996 00000001     H   30920 30910B
 $$$677F       2 00003A4C 00000001     H   31108 30961B
1VETS     (VETS2025) (12:59) (15MAR04) Ordinary Symbol and Literal Cross Reference                                          Page  199
 $$$678F       2 000039F8 00000001     H   31031 30981B
 $$$679F       2 00003A4C 00000001     H   31104 31088B
 $$$680F       2 00003A5A 00000001     H   31133 31123B
 $$$681F       2 00003A68 00000001     H   31159 31146B
 $$$682        1 000000EC 00000001 A   U   31182 31179  31181
 $$$683F       2 00004774 00000001     H   35534 35419B
 $$$684B       1 00003CE6 00000001     X   31374 31381U
 $$$686F       2 00003D1A 00000001     H   31482 31458B 31471B
 $$$686S       2 00003D02 00000001     H   31450 31481B
 $$$689F       2 00003D28 00000001     H   31507 31491B
 $$$69B        4 000000F6 00000001     I   13909 13954
 $$$690B       4 00003D32 00000001     I   31529 31751
 $$$690F       2 00003DE4 00000001     H   31747 31529B 31750
 $$$691F       2 00003D48 00000001     H   31554 31542B
 $$$692F       2 00003D64 00000001     H   31586 31574B
 $$$693F       2 00003D76 00000001     H   31608 31598B
 $$$694F       2 00003D90 00000001     H   31631 31619B
 $$$695F       2 00003DA4 00000001     H   31664 31651B
 $$$696F       2 00003DB6 00000001     H   31686 31674B
 $$$697F       2 00003DCC 00000001     H   31714 31703B
 $$$698F       2 00003DDE 00000001     H   31736 31724B
 $$$699E       2 00003DE8 00000001     H   31758 31752
 $$$699F       2 00003DEE 00000001     H   31765 31754B
 $$$700F       2 00003E14 00000001     H   31825 31809B
 $$$700T       2 00003E06 00000001     H   31812 31783B 31797B
 $$$703B       4 00003E18 00000001     I   31840 32253
 $$$703F       2 00003F1C 00000001     H   32249 31840B 32252
 $$$704B       4 00003E3C 00000001     I   31894 31950
 $$$704F       2 00003E5A 00000001     H   31944 31883B 31894B 31947
 $$$705B       4 00003E36 00000001     I   31883 31948
 $$$706B       4 00003E46 00000001     I   31907 31919
 $$$706F       2 00003E4E 00000001     H   31916 31907B 31918
 $$$707E       2 00003E52 00000001     H   31926 31920
 $$$707F       2 00003E56 00000001     H   31938 31922B
 $$$708E       2 00003E5E 00000001     H   31957 31949  31951
 $$$708F       2 00003E94 00000001     H   32032 31953B
 $$$709F       2 00003E94 00000001     H   32028 31970B
 $$$71B        4 00000118 00000001     I   13973 14002
 $$$71E        2 00000114 00000001     H   13963 13955  13957
 $$$71F        2 00000124 00000001     H   13999 13959B 13973B 14001
 $$$710B       4 00003E80 00000001     I   31992 32005
 $$$710F       2 00003E8C 00000001     H   32002 31992B 32004
 $$$711E       2 00003E90 00000001     H   32012 32006
 $$$711F       2 00003E94 00000001     H   32024 32008B
 $$$712F       2 00003F02 00000001     H   32213 32048B
 $$$712S       2 00003E94 00000001     H   32039 32212B
 $$$714F       2 00003EAC 00000001     H   32074 32064B
 $$$715F       2 00003EBC 00000001     H   32102 32089B
 $$$716F       2 00003EFA 00000001     H   32205 32117B
 $$$717B       4 00003EDA 00000001     I   32139 32182
 $$$717F       2 00003EF2 00000001     H   32178 32139B 32181
 $$$718F       2 00003EEE 00000001     H   32173 32163B
 $$$719E       2 00003EF6 00000001     H   32189 32183
 $$$719F       2 00003EFA 00000001     H   32201 32185B
 $$$720E       2 00003F20 00000001     H   32260 32254
 $$$720F       2 00003F6E 00000001     H   32403 32256B
 $$$721B       4 00003F2C 00000001     I   32290 32363
 $$$721F       2 00003F58 00000001     H   32359 32290B 32362
 $$$721T       2 00003F30 00000001     H   32293 32278B
1VETS     (VETS2025) (12:59) (15MAR04) Ordinary Symbol and Literal Cross Reference                                          Page  200
 $$$723B       4 00003F34 00000001     I   32307 32327
 $$$723F       2 00003F42 00000001     H   32324 32307B 32326
 $$$724E       2 00003F46 00000001     H   32334 32328
 $$$724F       2 00003F50 00000001     H   32347 32330B
 $$$725E       2 00003F5C 00000001     H   32370 32364
 $$$725F       2 00003F6E 00000001     H   32399 32366B
 $$$726F       2 00003F6E 00000001     H   32395 32384B
 $$$727F       2 00003F80 00000001     H   32425 32413B
 $$$728F       2 00003F94 00000001     H   32456 32441B
 $$$729F       2 00003FA6 00000001     H   32486 32465B
 $$$73E        2 00000128 00000001     H   14009 14003
 $$$73F        2 00000138 00000001     H   14035 14005B
 $$$730F       2 00003FBC 00000001     H   32522 32495B
 $$$731F       2 00003FF4 00000001     H   32594 32531B
 $$$732F       2 00003FF0 00000001     H   32584 32554B 32571B
 $$$732S       2 00003FD0 00000001     H   32547 32583B
 $$$735F       2 00004012 00000001     H   32648 32611B
 $$$737F       2 00004030 00000001     H   32695 32674B
 $$$738F       2 00004720 00000001     H   35391 35374B
 $$$738S       2 00004034 00000001     H   32708 35390B
 $$$74F        2 00000136 00000001     H   14030 14021B
 $$$741B       4 00004046 00000001     I   32756 32846
 $$$741F       2 0000409E 00000001     H   32841 32756B 32845
 $$$742F       2 0000405C 00000001     H   32781 32769B
 $$$743F       2 0000409A 00000001     H   32830 32817B
 $$$744B       4 000040A6 00000001     I   32864 33207
 $$$744E       2 000040A2 00000001     H   32853 32847
 $$$744F       2 000041A6 00000001     H   33202 32849B 32864B 33206
 $$$746F       2 000040E2 00000001     H   32902 32890B
 $$$747F       2 00004194 00000001     H   33163 32922B
 $$$747S       2 000040EC 00000001     H   32916 33162B
 $$$749F       2 00004104 00000001     H   32947 32935B
 $$$75B        4 0000013E 00000001     I   14051 14111
 $$$75F        2 00000154 00000001     H   14107 14051B 14110
 $$$750B       4 00004112 00000001     I   32972 32986
 $$$750F       2 0000411A 00000001     H   32982 32972B 32985
 $$$751B       4 00004122 00000001     I   33004 33018
 $$$751E       2 0000411E 00000001     H   32993 32987
 $$$751F       2 0000412A 00000001     H   33014 32989B 33004B 33017
 $$$753B       4 00004132 00000001     I   33036 33050
 $$$753E       2 0000412E 00000001     H   33025 33019
 $$$753F       2 0000413A 00000001     H   33046 33021B 33036B 33049
 $$$755E       2 0000413E 00000001     H   33057 33051
 $$$755F       2 0000414A 00000001     H   33078 33053B 33068B
 $$$757F       2 0000415C 00000001     H   33099 33087B
 $$$758F       2 0000416C 00000001     H   33121 33109B
 $$$759F       2 00004182 00000001     H   33151 33141B
 $$$76B        4 00000144 00000001     I   14065 14083
 $$$76F        2 0000014C 00000001     H   14080 14065B 14082
 $$$760F       2 000041A2 00000001     H   33191 33178B
 $$$761B       4 000041AE 00000001     I   33225 33326
 $$$761E       2 000041AA 00000001     H   33214 33208
 $$$761F       2 00004202 00000001     H   33321 33210B 33225B 33325
 $$$763F       2 000041C4 00000001     H   33250 33238B
 $$$764F       2 000041E0 00000001     H   33279 33267B
 $$$765F       2 000041FC 00000001     H   33309 33297B
 $$$766B       4 0000420A 00000001     I   33344 33578
 $$$766E       2 00004206 00000001     H   33333 33327
 $$$766F       2 00004298 00000001     H   33573 33329B 33344B 33577
1VETS     (VETS2025) (12:59) (15MAR04) Ordinary Symbol and Literal Cross Reference                                          Page  201
 $$$768B       4 0000421C 00000001     I   33371 33411
 $$$768F       2 00004238 00000001     H   33407 33371B 33410
 $$$77E        2 00000150 00000001     H   14090 14084
 $$$77F        2 00000154 00000001     H   14103 14086B
 $$$770F       2 00004238 00000001     H   33403 33391B
 $$$771E       2 0000423C 00000001     H   33418 33412
 $$$771F       2 00004294 00000001     H   33561 33414B
 $$$772B       4 00004240 00000001     I   33432 33446
 $$$772F       2 00004248 00000001     H   33442 33432B 33445
 $$$773B       4 00004250 00000001     I   33464 33478
 $$$773E       2 0000424C 00000001     H   33453 33447
 $$$773F       2 00004258 00000001     H   33474 33449B 33464B 33477
 $$$775E       2 0000425C 00000001     H   33485 33479
 $$$775F       2 00004268 00000001     H   33506 33481B 33496B
 $$$777F       2 0000427A 00000001     H   33527 33515B
 $$$778F       2 0000428A 00000001     H   33549 33537B
 $$$779B       4 000042A0 00000001     I   33596 33971
 $$$779E       2 0000429C 00000001     H   33585 33579
 $$$779F       2 0000439A 00000001     H   33966 33581B 33596B 33970
 $$$78E        2 00000158 00000001     H   14118 14112
 $$$78F        2 000001E2 00000001     H   14377 14114B
 $$$781F       2 000042C6 00000001     H   33646 33634B
 $$$781T       2 000042BC 00000001     H   33637 33622B
 $$$783F       2 000042D8 00000001     H   33667 33655B
 $$$784F       2 00004388 00000001     H   33927 33687B
 $$$784S       2 000042E2 00000001     H   33681 33926B
 $$$786F       2 000042FA 00000001     H   33712 33700B
 $$$787B       4 00004306 00000001     I   33736 33750
 $$$787F       2 0000430E 00000001     H   33746 33736B 33749
 $$$788B       4 00004316 00000001     I   33768 33782
 $$$788E       2 00004312 00000001     H   33757 33751
 $$$788F       2 0000431E 00000001     H   33778 33753B 33768B 33781
 $$$79F        2 000001E2 00000001     H   14373 14136B
 $$$79S        2 00000160 00000001     H   14130 14372B
 $$$790B       4 00004326 00000001     I   33800 33814
 $$$790E       2 00004322 00000001     H   33789 33783
 $$$790F       2 0000432E 00000001     H   33810 33785B 33800B 33813
 $$$792E       2 00004332 00000001     H   33821 33815
 $$$792F       2 0000433E 00000001     H   33842 33817B 33832B
 $$$794F       2 00004350 00000001     H   33863 33851B
 $$$795F       2 00004360 00000001     H   33885 33873B
 $$$796F       2 00004376 00000001     H   33915 33905B
 $$$797F       2 00004396 00000001     H   33955 33942B
 $$$798B       4 000043A2 00000001     I   33989 34010
 $$$798E       2 0000439E 00000001     H   33978 33972
 $$$798F       2 000043AE 00000001     H   34005 33974B 33989B 34009
 $$$800B       4 000043B6 00000001     I   34028 34176
 $$$800E       2 000043B2 00000001     H   34017 34011
 $$$800F       2 0000440C 00000001     H   34171 34013B 34028B 34175
 $$$802F       2 000043FE 00000001     H   34138 34128B
 $$$802S       2 000043BA 00000001     H   34037 34137B
 $$$803F       2 000043CA 00000001     H   34060 34050B
 $$$804F       2 000043DA 00000001     H   34087 34071B
 $$$805F       2 000043EA 00000001     H   34115 34102B
 $$$807F       2 0000440C 00000001     H   34166 34153B
 $$$808B       4 00004414 00000001     I   34194 34522
 $$$808E       2 00004410 00000001     H   34183 34177
 $$$808F       2 00004504 00000001     H   34517 34179B 34194B 34521
 $$$81F        2 000001C6 00000001     H   14307 14163B
1VETS     (VETS2025) (12:59) (15MAR04) Ordinary Symbol and Literal Cross Reference                                          Page  202
 $$$810F       2 0000442A 00000001     H   34219 34207B
 $$$811F       2 00004446 00000001     H   34248 34236B
 $$$812F       2 00004462 00000001     H   34278 34266B
 $$$813F       2 00004474 00000001     H   34299 34287B
 $$$814F       2 0000449E 00000001     H   34357 34317B
 $$$815F       2 00004498 00000001     H   34348 34336B
 $$$816F       2 000044B0 00000001     H   34394 34370B 34384B
 $$$818B       4 000044B4 00000001     I   34405 34425
 $$$818F       2 000044C0 00000001     H   34422 34405B 34424
 $$$819E       2 000044C4 00000001     H   34432 34426
 $$$819F       2 000044C8 00000001     H   34439 34428B
 $$$82F        2 00000188 00000001     H   14195 14179B
 $$$820F       2 000044EE 00000001     H   34475 34454B
 $$$821F       2 00004500 00000001     H   34506 34493B
 $$$822B       4 0000450C 00000001     I   34540 35201
 $$$822E       2 00004508 00000001     H   34529 34523
 $$$822F       2 0000469C 00000001     H   35196 34525B 34540B 35200
 $$$824F       2 00004522 00000001     H   34565 34553B
 $$$825F       2 0000453E 00000001     H   34594 34582B
 $$$826F       2 0000455C 00000001     H   34625 34613B
 $$$827F       2 00004576 00000001     H   34658 34644B
 $$$828F       2 0000458E 00000001     H   34698 34665B
 $$$829F       2 0000458E 00000001     H   34694 34679B
 $$$83B        4 00000198 00000001     I   14208 14223
 $$$83F        2 000001A8 00000001     H   14219 14208B 14222
 $$$830F       2 00004606 00000001     H   34908 34711B
 $$$831F       2 000045AE 00000001     H   34753 34732B 34743B
 $$$833F       2 00004604 00000001     H   34900 34768B
 $$$833S       2 000045AE 00000001     H   34759 34899B
 $$$835F       2 000045C6 00000001     H   34794 34784B
 $$$836F       2 000045D6 00000001     H   34822 34809B
 $$$837F       2 000045FC 00000001     H   34892 34836B
 $$$838B       4 000045EC 00000001     I   34850 34869
 $$$838F       2 000045F4 00000001     H   34866 34850B 34868
 $$$839E       2 000045F8 00000001     H   34876 34870
 $$$839F       2 000045FC 00000001     H   34888 34872B
 $$$84E        2 000001AC 00000001     H   14230 14224
 $$$84F        2 000001C6 00000001     H   14303 14226B
 $$$840F       2 00004638 00000001     H   35001 34932B 34943B
 $$$842B       4 00004624 00000001     I   34956 34975
 $$$842F       2 0000462C 00000001     H   34972 34956B 34974
 $$$843E       2 00004630 00000001     H   34982 34976
 $$$843F       2 00004634 00000001     H   34994 34978B
 $$$844F       2 00004692 00000001     H   35166 35015B
 $$$844S       2 00004638 00000001     H   35008 35165B
 $$$846F       2 0000464E 00000001     H   35041 35031B
 $$$847F       2 00004656 00000001     H   35062 35052B
 $$$848F       2 00004666 00000001     H   35090 35077B
 $$$849F       2 0000468A 00000001     H   35158 35102B
 $$$85F        2 000001C2 00000001     H   14281 14270B
 $$$85S        2 000001B2 00000001     H   14261 14280B
 $$$850B       4 0000467A 00000001     I   35116 35135
 $$$850F       2 00004682 00000001     H   35132 35116B 35134
 $$$851E       2 00004686 00000001     H   35142 35136
 $$$851F       2 0000468A 00000001     H   35154 35138B
 $$$852F       2 0000469C 00000001     H   35192 35179B
 $$$853B       4 000046A4 00000001     I   35219 35257
 $$$853E       2 000046A0 00000001     H   35208 35202
 $$$853F       2 000046B4 00000001     H   35253 35204B 35219B 35256
1VETS     (VETS2025) (12:59) (15MAR04) Ordinary Symbol and Literal Cross Reference                                          Page  203
 $$$855F       2 000046B4 00000001     H   35249 35234B
 $$$856E       2 000046B8 00000001     H   35264 35258
 $$$856F       2 0000470E 00000001     H   35361 35260B
 $$$857B       4 000046E4 00000001     I   35288 35308
 $$$857F       2 000046F0 00000001     H   35305 35288B 35307
 $$$858E       2 000046F4 00000001     H   35315 35309
 $$$858F       2 000046F8 00000001     H   35322 35311B
 $$$859F       2 0000470A 00000001     H   35351 35338B
 $$$862F       2 00004760 00000001     H   35493 35436B
 $$$863F       2 00004760 00000001     H   35489 35465B 35478B
 $$$863S       2 00004748 00000001     H   35457 35488B
 $$$866F       2 00004772 00000001     H   35513 35503B
 $$$867        1 00000060 00000001 A   U   35543 35540  35542
 $$$869B       1 000048AC 00000001     X   35668 35675U
 $$$87B        4 000001C8 00000001     I   14318 14336
 $$$87F        2 000001D0 00000001     H   14333 14318B 14335
 $$$870F       2 000048DC 00000001     H   35753 35702B
 $$$870S       2 000048B6 00000001     H   35695 35752B
 $$$872F       2 000048D4 00000001     H   35747 35722B 35733B
 $$$874        1 00000050 00000001 A   U   35775 35772  35774
 $$$876B       1 00004910 00000001     X   35827 35834U
 $$$877F       2 0000493C 00000001     H   35910 35859B
 $$$877S       2 00004916 00000001     H   35853 35909B
 $$$879F       2 00004934 00000001     H   35904 35879B 35890B
 $$$88E        2 000001D4 00000001     H   14343 14337
 $$$88F        2 000001D8 00000001     H   14356 14339B
 $$$881        1 00000050 00000001 A   U   35932 35929  35931
 $$$882F       2 00004A02 00000001     H   36179 36048B
 $$$883B       1 00004970 00000001     X   35988 35995U
 $$$884F       2 0000497C 00000001     H   36025 36015B
 $$$885F       2 00004990 00000001     H   36052 36039B
 $$$886F       2 000049A8 00000001     H   36079 36068B
 $$$886S       2 00004996 00000001     H   36061 36078B
 $$$888F       2 000049C4 00000001     H   36107 36096B
 $$$888S       2 000049B2 00000001     H   36089 36106B
 $$$890F       2 000049E0 00000001     H   36135 36124B
 $$$890S       2 000049CE 00000001     H   36117 36134B
 $$$892F       2 000049FC 00000001     H   36163 36152B
 $$$892S       2 000049EA 00000001     H   36145 36162B
 $$$894        1 00000050 00000001 A   U   36188 36185  36187
 $$$896B       1 00004A36 00000001     X   36301 36308U
 $$$897B       4 00004A6A 00000001     I   36377 36528
 $$$897F       2 00004AAA 00000001     H   36524 36377B 36527
 $$$898B       4 00004A72 00000001     I   36394 36450
 $$$898F       2 00004A8A 00000001     H   36445 36394B 36449
 $$$899B       4 00004A7A 00000001     I   36409 36422
 $$$899F       2 00004A82 00000001     H   36419 36409B 36421
 $$$90B        1 00000200 00000001     X   14421 14428U
 $$$900E       2 00004A86 00000001     H   36429 36423
 $$$900F       2 00004A8A 00000001     H   36441 36425B
 $$$901B       4 00004A92 00000001     I   36468 36487
 $$$901E       2 00004A8E 00000001     H   36457 36451
 $$$901F       2 00004A9A 00000001     H   36483 36453B 36468B 36486
 $$$903E       2 00004A9E 00000001     H   36494 36488
 $$$903F       2 00004AAA 00000001     H   36520 36490B 36505B
 $$$905E       2 00004AAE 00000001     H   36536 36529
 $$$905F       2 00004AFE 00000001     H   36683 36531B
 $$$906B       4 00004AC8 00000001     I   36581 36601
 $$$906F       2 00004AD0 00000001     H   36596 36581B 36600
1VETS     (VETS2025) (12:59) (15MAR04) Ordinary Symbol and Literal Cross Reference                                          Page  204
 $$$906T       2 00004ACC 00000001     H   36584 36555B 36569B
 $$$909B       4 00004AD8 00000001     I   36619 36660
 $$$909E       2 00004AD4 00000001     H   36608 36602
 $$$909F       2 00004AF6 00000001     H   36656 36604B 36619B 36659
 $$$91B        4 00000204 00000001     I   14447 14463
 $$$91F        2 0000020A 00000001     H   14460 14447B 14462
 $$$911E       2 00004AFA 00000001     H   36667 36661
 $$$911F       2 00004AFE 00000001     H   36679 36663B
 $$$912F       2 00004B20 00000001     H   36715 36704B
 $$$913F       2 00004B30 00000001     H   36747 36734B
 $$$914F       2 00004B3A 00000001     H   36771 36758B
 $$$915F       2 00005048 00000001     H   37904 37626B 37890B
 $$$915S       2 00004B46 00000001     H   36782 37903B
 $$$916F       2 00005030 00000001     H   37868 36799B
 $$$916S       2 00004B46 00000001     H   36790 37867B
 $$$918B       4 00004B5C 00000001     I   36824 37808
 $$$918F       2 00004FEA 00000001     H   37804 36824B 37807
 $$$919F       2 00004B72 00000001     H   36865 36838B
 $$$92E        2 0000020E 00000001     H   14470 14464
 $$$92F        2 00000212 00000001     H   14477 14466B
 $$$921B       4 00004B76 00000001     I   36878 37556
 $$$921F       2 00004ED8 00000001     H   37552 36878B 37555
 $$$922B       4 00004B7E 00000001     I   36894 36991
 $$$922F       2 00004BFE 00000001     H   36984 36894B 36990
 $$$923F       2 00004BC0 00000001     H   36939 36915B
 $$$924F       2 00004BFE 00000001     H   36980 36956B
 $$$925E       2 00004C02 00000001     H   36998 36992
 $$$925F       2 00004ED8 00000001     H   37548 36994B
 $$$926F       2 00004C40 00000001     H   37040 37016B
 $$$927F       2 00004C7E 00000001     H   37081 37057B
 $$$928F       2 00004D0E 00000001     H   37192 37097B
 $$$929F       2 00004CC8 00000001     H   37142 37118B
 $$$93         1 00000050 00000001 A   U   14495 14492  14494
 $$$930F       2 00004D02 00000001     H   37182 37158B
 $$$931F       2 00004DA2 00000001     H   37306 37211B
 $$$932F       2 00004D5C 00000001     H   37256 37232B
 $$$933F       2 00004D96 00000001     H   37296 37272B
 $$$934F       2 00004E36 00000001     H   37420 37325B
 $$$935F       2 00004DF0 00000001     H   37370 37346B
 $$$936F       2 00004E2A 00000001     H   37410 37386B
 $$$937F       2 00004ECA 00000001     H   37534 37439B
 $$$938F       2 00004E84 00000001     H   37484 37460B
 $$$939F       2 00004EBE 00000001     H   37524 37500B
 $$$940E       2 00004EDC 00000001     H   37563 37557
 $$$940F       2 00004FEA 00000001     H   37800 37559B
 $$$941F       2 00004F18 00000001     H   37639 37573B
 $$$942F       2 00004F14 00000001     H   37634 37591B
 $$$943F       2 00004F14 00000001     H   37630 37618B
 $$$944F       2 00004F56 00000001     H   37681 37657B
 $$$945F       2 00004F66 00000001     H   37709 37696B
 $$$946F       2 00004FAC 00000001     H   37755 37731B
 $$$947F       2 00004FEA 00000001     H   37796 37772B
 $$$948E       2 00004FEE 00000001     H   37816 37809
 $$$948F       2 00005028 00000001     H   37861 37811B
 $$$949F       2 00005028 00000001     H   37857 37833B
 $$$95B        1 0000023A 00000001     X   14532 14539U
 $$$950F       2 0000503C 00000001     H   37894 37882B
 $$$951        1 00000060 00000001 A   U   37943 37940  37942
 $$$953B       1 0000507C 00000001     X   38005 38012U
1VETS     (VETS2025) (12:59) (15MAR04) Ordinary Symbol and Literal Cross Reference                                          Page  205
 $$$954F       2 000053C6 00000001     H   38747 38071B
 $$$954S       2 000050AC 00000001     H   38063 38746B
 $$$956B       4 000050BE 00000001     I   38096 38230
 $$$956F       2 00005162 00000001     H   38225 38096B 38229
 $$$957B       4 000050C6 00000001     I   38111 38166
 $$$957F       2 00005114 00000001     H   38162 38111B 38165
 $$$958F       2 00005100 00000001     H   38154 38130B
 $$$959E       2 00005118 00000001     H   38173 38167
 $$$959F       2 00005162 00000001     H   38221 38169B
 $$$96B        4 00000240 00000001     I   14559 14575
 $$$96F        2 00000246 00000001     H   14572 14559B 14574
 $$$960F       2 0000514E 00000001     H   38213 38189B
 $$$961B       4 0000516A 00000001     I   38248 38322
 $$$961E       2 00005166 00000001     H   38237 38231
 $$$961F       2 000051C0 00000001     H   38317 38233B 38248B 38265B 38321
 $$$964F       2 000051AC 00000001     H   38309 38285B
 $$$965B       4 000051C8 00000001     I   38340 38413
 $$$965E       2 000051C4 00000001     H   38329 38323
 $$$965F       2 00005218 00000001     H   38408 38325B 38340B 38357B 38412
 $$$968F       2 0000520A 00000001     H   38401 38377B
 $$$969B       4 00005220 00000001     I   38431 38486
 $$$969E       2 0000521C 00000001     H   38420 38414
 $$$969F       2 00005268 00000001     H   38481 38416B 38431B 38485
 $$$97E        2 0000024A 00000001     H   14582 14576
 $$$97F        2 0000024E 00000001     H   14589 14578B
 $$$971F       2 0000525A 00000001     H   38474 38450B
 $$$972B       4 00005270 00000001     I   38504 38593
 $$$972E       2 0000526C 00000001     H   38493 38487
 $$$972F       2 000052FE 00000001     H   38588 38489B 38504B 38592
 $$$974F       2 000052AA 00000001     H   38547 38523B
 $$$975F       2 000052DE 00000001     H   38577 38567B
 $$$976B       4 00005306 00000001     I   38611 38672
 $$$976E       2 00005302 00000001     H   38600 38594
 $$$976F       2 0000536E 00000001     H   38667 38596B 38611B 38671
 $$$978F       2 00005340 00000001     H   38654 38630B
 $$$979E       2 00005372 00000001     H   38679 38673
 $$$979F       2 000053BE 00000001     H   38740 38675B 38690B
 $$$98         1 00000050 00000001 A   U   14607 14604  14606
 $$$981F       2 000053B0 00000001     H   38733 38709B
 $$$982F       2 000053E4 00000001     H   38787 38762B 38776B
 $$$984        1 00000050 00000001 A   U   38822 38819  38821
 $$$986F       2 00005594 00000001     H   39383 39351B
 $$$987B       1 00005418 00000001     X   38937 38944U
 $$$988F       2 00005444 00000001     H   39022 39007B
 $$$989B       4 0000544E 00000001     I   39049 39166
 $$$989F       2 000054B8 00000001     H   39162 39049B 39165
 $$$99B        1 0000026A 00000001     X   14632 14639U
 $$$992F       2 00005474 00000001     H   39094 39082B
 $$$992S       2 0000545E 00000001     H   39074 39093B
 $$$994F       2 000054B8 00000001     H   39153 39131B
 $$$994S       2 00005492 00000001     H   39125 39152B
 $$$996E       2 000054BC 00000001     H   39173 39167
 $$$996F       2 000054D4 00000001     H   39199 39169B
 $$$999B       4 000054D8 00000001     I   39211 39229
 $$$999F       2 000054E0 00000001     H   39226 39211B 39228
 $BEL          1 000063F8 00000001     X   40639 44149  44154
 $CLRTABS      5 00006426 00000001     X   40653 40657  40657  41607  41612
 $CS           7 000063D0 00000001     X   40628 41140  41145
 $CSI          2 000063CD 00000001     X   40626 42011  42016  42165  42170  42260  42265  42827  42832  42889  42894
1VETS     (VETS2025) (12:59) (15MAR04) Ordinary Symbol and Literal Cross Reference                                          Page  206
                                                 43216  43221  44369  44374
 $FPROT        5 000063DE 00000001     X   40632 41974  41979
 $LCSI         3 000063CD 00000001     X   40627 41183  41188  42398  42403
 $SETHOME      4 0000640D 00000001     X   40646 42679  42684
 $SETTAB       4 000063F9 00000001     X   40641 42630  42635
 $SI           1 000063F6 00000001     X   40637 43807  43812
 $SO           1 000063F7 00000001     X   40638 43990  43995
 @RAR          0 00000000 FFFFFFF0     @    1123  3575   3583B
 @R0           0 00000000 FFFFFFFE     @     706   982U 11208U
 @R1           0 00000000 FFFFFFFD     @     719   978U  3581   3582  13859  13872  13923  13936  13972  14755  15760
                                                 16814  16850  16863  16986  17098  17177  17552U 17930U 18905U 20895U
                                                 23134U 24335  24535M 26086  29460  29466M 29951M 29954M 29957M 29960M
                                                 30039  30110  30123  30136  30149  30155  30189  30202  30230  30243
                                                 30263  30266  30636  32579  32792M 32798M 32800M 32802M 32871M 32877M
                                                 32879M 32881M 32909U 33153M 33257U 33557M 33607  33674U 33917M 34226U
                                                 34572U 34749  35270M 35273M 35276M 35323M 35748  37187  37301  37415
                                                 37529  37542U 37579  37683  38156M 38157M 38215M 38216M 38311M 38312M
                                                 38403M 38476M 38549M 38552M 38553M 38572M 38573M 38580M 38583M 38656M
                                                 38659M 38660M 38661M 38662M 38735M 38782M 40074U 41674  41804  41814
                                                 41824  41888  42311  42321  42331  42736  43125  43710  45539U 48107U
                                                 48972U 49791U 50156U 50767U 51231U 51973  52123  52275  52315  52394
                                                 52489M 52734U 52880U 53151  53191
 @R10          0 00000000 FFFFFFF4     @     836   942U
 @R11          0 00000000 FFFFFFF3     @     849   938U 15243U 48337U 51870U 52053U 52202U 53081U 53383U
 @R12          0 00000000 FFFFFFF2     @     862   934U 51865U 52048U 52197U 53076U 53378U 53640U
 @R13          0 00000000 FFFFFFF1     @     875   930U
 @R14          0 00000000 FFFFFFF0     @     888   926U 31867  31912M 31976  31982  31998M 32123  32129  32174M 33608U
                                                 34118  34119  34671  34717  34842  34916  35108
 @R15          0 00000000 FFFFFFEF     @     901   922U 16849  18174  18175  18665  18702  23535  23536  23664  23665
                                                 29833U 31868U 31983U 32130U 32578M 34672  34843  34917U 35109  36810
                                                 37200  37314  37428  37544M 37716M 37757M 44055  46081U
 @R2           0 00000000 FFFFFFFC     @     732   974U 14298U 16871  24543  24696U 24943U 25279U 25411U 25694U 26295U
                                                 26433U 26787U 29361  29962  30040U 30264U 30519  30553M 30595  30629M
                                                 31515U 31565U 31638U 31693U 31743U 32432U 32661U 32788U 32954U 33128U
                                                 33357U 33556U 33719U 33892U 35386U 36074  36102  36130  36158  36811U
                                                 37201U 37315U 37429U 38082U 39088  41675U 41889U 48540U 53214  53259
                                                 53304
 @R3           0 00000000 FFFFFFFB     @     745   970U 15836U 18247U 23705U 29317  29362  31940  32577  32804  33165
                                                 33929  34140  35325  37863  38742  38980U 39376U 41805U 41815U 41825U
                                                 42312U 42322U 42332U 42737U 43126U 43711U 45007  47530  48047M 52750U
                                                 52832U 53106U 53411U 53562U
 @R4           0 00000000 FFFFFFFA     @     758   966U 15268U 18253U 20705U 21053U 21806U 22936U 23715U 24353  24698
                                                 24830  24963  25166  25298  25581  25745  25853  26013  26182  26320
                                                 26537  26674  27074  29102  35423  36336  36902  36922  36943  36963
                                                 37003  37023  37044  37064  37105  37125  37145  37165  37219  37239
                                                 37259  37279  37333  37353  37373  37393  37447  37467  37487  37507
                                                 37644  37664  37718  37738  37759  37779  37820  37840  38023  38116
                                                 38137  38158  38175  38196  38217  38271  38292  38313  38363  38384
                                                 38404  38436  38457  38477  38509  38530  38550  38578  38581  38584
                                                 38616  38637  38657  38663  38695  38716  38736  38783  39159U 39527U
                                                 40229U 44356  44959U 45214U 46620U 47381U 48757U 50563U 51042U 51652U
                                                 51836U
 @R5           0 00000000 FFFFFFF9     @     771   962U 14248U 14369U 15631U 16132U 18259U 18495U 19099U 20466U 20651U
                                                 21438U 23710U 27322U 27722U 28630U 28775U 29196U 35522U 35707  35864
                                                 36073M 36101M 36129M 36157M 37922U 38806U 39371U 41039U 44096  44357
                                                 45203U 45339U 45855U 46050U 46747U 47390U 47519U 48116U 48236U 48304U
                                                 48440U 48561U 48863U 49745U 50110U 50549U 50659U 51028U 51139U 51750U
                                                 51822U 51888U 52074U 52223U 52709U 52764U 53404U
 @R6           0 00000000 FFFFFFF8     @     784   958U 15444U 18265U 19105U 19262U 19472U 48331U 51883U 52069U 52218U
1VETS     (VETS2025) (12:59) (15MAR04) Ordinary Symbol and Literal Cross Reference                                          Page  207
                                                 53097U 53399U 53537U 53658U
 @R7           0 00000000 FFFFFFF7     @     797   954U 14385U 14484U 14596U 15642U 15951U 16145U 16278U 16373U 16669U
                                                 18225U 18271U 19111U 19268U 19478U 19575U 19655U 21103U 21457U 21811U
                                                 21970U 23722U 23969U 24122U 27823U 28274U 28377U 28849U 31171U 35532U
                                                 35764U 35921U 36177U 37932U 38811U 39381U 40270U 40406U 40549U 41422U
                                                 44285U 44473U 44726U 44868U 45219U 45724U 46090U 46625U 47398U 48129U
                                                 48312U 48769U 50568U 51047U 51657U 51841U 52064U 52213U 53092U 53394U
                                                 53653U
 @R8           0 00000000 FFFFFFF6     @     810   950U 18216U 27818U 31166U 35527U 37927U 44280U 48124U
 @R9           0 00000000 FFFFFFF5     @     823   946U 52516U 52557  52593
 ABSCENT       1 00000000 00000000 A   T    3591  3591
 ACB         128 00000000 FFFFFFE4     X    8883  8875  17246U 18464U 20453U 20692U 22963U 28617U 38967U 39514U 44946U
                                                 45326U 46750U 46795  47657  48239U 48259  51767U 51981U 52131U 52283U
                                                 52712U 52729U 53159U
 ACBBTRPL      4 000000B0 FFFFFFE4     A    8880 17268  47362M 52718
 ACBCBUSY      1 000000BC FFFFFFE4 A   U    8599 48005
 ACBCCTYP      1 00000019 FFFFFFE4     B    8306  8315
 ACBDDNM       8 00000028 FFFFFFE4     C    8347  8353
 ACBDEB        3 0000002D FFFFFFE4     R    8377  8520
 ACBEIRPL      4 000000A8 FFFFFFE4     A    8878 17264  20459  23412  47123M 48077
 ACBEORPL      4 000000AC FFFFFFE4     A    8879 17266  17395  18484  20698  22967  23441  23517  39520  45332  47250M
                                                 48085
 ACBERFLG      1 00000031 FFFFFFE4     B    8403 47721  47748  47776  47806  47821  47851  47866  47881  47907  47933
                                                 47959  47990  48005
 ACBJBUF       2 00000016 FFFFFFE4     H    8297  8299   8300
 ACBNAVAL     32 00000088 FFFFFFE4         8865 15469  47682M 48040M
 ACBNRRPL      4 000000A0 FFFFFFE4     A    8876 17251  23383  44952  47001M 48061
 ACBNSRPL      4 000000A4 FFFFFFE4     A    8877 17262  23354  28623  38973  46859M 48069
 ACBOACT       1 000000BC FFFFFFE4 A   U    8598 47990
 ACBOAHLT      1 00000052 FFFFFFE4 A   U    8536 47806
 ACBOANAT      1 00000050 FFFFFFE4 A   U    8535 47776
 ACBOANSN      1 00000056 FFFFFFE4 A   U    8540 47866
 ACBOAPAA      1 00000058 FFFFFFE4 A   U    8543 47933
 ACBOAPLE      1 00000062 FFFFFFE4 A   U    8556 47881
 ACBOAPNM      1 0000005A FFFFFFE4 A   U    8546 47907
 ACBOAVFY      1 00000054 FFFFFFE4 A   U    8538 47851
 ACBOFLGS      1 00000030 FFFFFFE4     B    8379 47703  51781
 ACBOLIST      4 0000009C FFFFFFE4     F    8873 46761M 47685  48271
 ACBONVRT      1 00000014 FFFFFFE4 A   U    8525 47721
 ACBOPEN       1 00000010 FFFFFFE4 A   U    8383 47701  51779
 ACBOUNDF      1 00000060 FFFFFFE4 A   U    8554 47959
 ACBOVINA      1 0000005C FFFFFFE4 A   U    8549 47821
 ACBPTR        4 00000984 00000001     A   13624 14200  14214M 14959  16032
 ACBWALLO     64 00000088 FFFFFFE4         8860 15066  15208  47602  48046M 48292M
 ACBWAPLT      1 00000089 FFFFFFE4     X    8868 14196M 46762
 ACBWAPPL      8 0000008A FFFFFFE4     C    8869 14197M 15088  15093  16072  16115
 ACBWEND       4 000000B4 FFFFFFE4     F    8881  8884  46759
 ACBWFLAG      1 00000088 FFFFFFE4     R    8851  8855   8860   8865
 ACBWNEXT      4 00000080 FFFFFFE4     F    8847 14213M 14232M 14269  14276  14282M 15532  16078  47571  47577  47629
 ACBWOFFS      1 0000007C FFFFFFE4 A   U    8844  8845
 ACBWON      128 00000088 FFFFFFE4         8855 14329M 14352M 15136  47590
 ACBWSTRT      4 00000080 FFFFFFE4     F    8846  8883  46759  46760M 46760
 ACBWVTWA      4 00000084 FFFFFFE4     F    8848 15214  17249M 51983  52133  52285  53161
 ACBWYL      180 00000000 FFFFFFE4     X    8884 14153U 14251U 14293U 14969U 16054U 46732  47522U
 AHLHEAD       1 00000000 00000000 A   T    1637  1637
 AHLVCCR8      1 00000000 00000000 A   T    2128  2128
 AID           2 0000393A 00000001     H   30758 30304B
 AIDTABL     256 00003BCC 00000001     X   31239 30873
 AID3270       1 0000000D FFFFFFDD     X   13430 30916M 32227M 32482M 32507M 36538  36552  36566  36580  36618
1VETS     (VETS2025) (12:59) (15MAR04) Ordinary Symbol and Literal Cross Reference                                          Page  208
 AID3270R      1 0000000C FFFFFFDD     X   13429 28216  28242  28795  28821  30897M 31145
 ALIST         4 00007B3C 00000001     F   51905 46800
 APLTEXT     256 00006452 00000001     X   44550 44510
 APPLEND       1 00000982 00000001     U    1181 18282
 APPLTABL     80 00000932 00000001     H    1186 18281  18282
 ASCTBL        1 00000000 00000000 A   T    3599  3599
 ASMVT         1 00000000 00000000 A   T    2017  2017
 BINDFRSP      1 00000020 FFFFFFE3 A   U    8954 22326
 BINEXRSP      1 00000010 FFFFFFE3 A   U    8955 22353
 BINFM         1 00000001 FFFFFFE3     C    8904 22234
 BINLUP        1 0000000D FFFFFFE3     C    9103 22262
 BINNYRSP      1 00000030 FFFFFFE3 A   U    8952 22296
 BINPRESZ      1 00000017 FFFFFFE3     G    9327 22395  22411
 BINPRIMN      8 0000001B FFFFFFE3     C    9048  9052  22218
 BINPRSVC     12 0000000D FFFFFFE3     C    9024  9102
 BINPRUSZ      1 0000000A FFFFFFE3     C    9077 22386
 BINPSCHR     11 0000000E FFFFFFE3     C    9114  9121   9316   9353   9383   9486   9577
 BINSALTC      1 00000016 FFFFFFE3     G    9326 22711
 BINSALTR      1 00000015 FFFFFFE3     G    9325 22710
 BINSECP       1 00000004 FFFFFFE3     C    8937 22298  22328  22355
 BINSPRIC      1 00000014 FFFFFFE3     G    9323 22709
 BINSPRIR      1 00000013 FFFFFFE3     G    9321 22708
 BINSRUSZ      1 00000009 FFFFFFE3     C    9075 22376
 BINTS         1 00000002 FFFFFFE3     C    8908 22248
 BINTSU        6 00000007 FFFFFFE3     C    9023  9060
 BLANK         2 000036B8 00000001     H   29947 29901B 29944B 30076B
 BLEAREA       4 00000008 FFFFFFD5     A   38903 39144M
 BLENT        16 00000000 FFFFFFD5     X   38886 39142M 39142  39147  39147  40600
 BLERLEN       4 0000000C FFFFFFD5     F   38904 39145M
 BLTBL         1 00000000 00000000 A   T    3601  3601
 BR            7 00000007 00000001 A   #    1013 14416M 14527M 15694M 16006M 16537M 16538B 16657M 19420M 19421B 19464M
                                                 19604M 19752U 21148M 21513M 21864M 22044M 23837M 24022M 24206M 27965M
                                                 28337M 28433M 28977M 31369M 35663M 35822M 35983M 36296M 38000M 38932M
                                                 39432M 40323M 40460M 40699M 41534M 44327M 44600M 44789M 44913M 45271M
                                                 45765M 46143M 46709M 47479M 48182M 48392M 48827M 50623M 51103M 51714M
                                                 51961M 51969U 52111M 52119U 52263M 52271U 53139M 53147U 53447M 53455U
 BREAK         2 00003952 00000001     H   30797 29019B
 BRIGHT       32 00000008 FFFFFFD4        41473 41712M 41756M 41786M 42087M 42131M 42227M 42810
 BUFTODIS      2 00006552 00000001     H   44586 40569
 CBBRANCH      1 00000000 00000000 A   T    2173  2173
 CHARCHK     256 000010D8 00000001     X   18314 16878  17107
 CHECKIOB      1 00000000 00000000 A   T    3647  3647
 CLEARSCR      2 000059FA 00000001     H   40685 19687  23774  27856  35568  40568
 COMMAND       1 00000000 00000000 A   T    3587  3587
 COMMSEG       1 00000000 00000000 A   T    3588  3588
 CP         4096 00000000 FFFFFFE8     J    7601  2576U 15246U 15263U 48588U 52001U 52151U 52303U 53179U
 CP#XSTK       1 00000010 FFFFFFE8 A   U    5333  5334
 CPACFLG       1 000005D5 FFFFFFE8     R    5436  5440   5445   5450   5455   5460
 CPACFLN       4 000005C4 FFFFFFE8     F    5428  5463   5463
 CPAFLAG       1 000005C3 FFFFFFE8     R    5400  5404   5409   5414   5419
 CPANAME       8 00000588 FFFFFFE8     C    5382  5478   5478
 CPAUTFLG      1 000008A9 FFFFFFE8     R    5746  5750   5755   5760   5765
 CPCHFLAG      1 00000B68 FFFFFFE8     R    6373  6377
 CPDFLG        1 0000084C FFFFFFE8     R    5633  5637   5642   5647   5652   5657
 CPDFLG2       1 0000084D FFFFFFE8     R    5662  5666   5671   5676   5681   5686   5691
 CPEXFLG       1 00000758 FFFFFFE8     R    5502  5506
 CPEXFLG2      1 00000759 FFFFFFE8     R    5512  5521   5531
 CPEXFLG3      1 0000075A FFFFFFE8     R    5538  5542   5547
 CPEXTFLG      1 00000E28 FFFFFFE8     R    7184  7188   7193   7198   7203   7208   7213
1VETS     (VETS2025) (12:59) (15MAR04) Ordinary Symbol and Literal Cross Reference                                          Page  209
 CPFABORT    128 00000D5A FFFFFFE8         6950  3551M  3551   3556M  3556
 CPFDISP      16 00000C7B FFFFFFE8         6518 16536M 18168M 19403M 20063M 20128M 23529M 23658M 23865M 24050M 28065M
                                                 28125M 28561M 30807M 40351M 40494M 41087M 41406M 41582M 44259M
 CPFERROR     64 00000D5A FFFFFFE8         6955  3550M  3550   3555M  3555
 CPFNTEX       1 00000040 FFFFFFE8 A   U    6802  6803
 CPFRDRNG      1 00000D88 FFFFFFE8     R    7070  7074   7079   7084   7089   7094   7099   7104
 CPFRDSRC      1 00000D89 FFFFFFE8     R    7109  7118   7128   7138
 CPFTRAN     128 00000C7C FFFFFFE8         6538 24465M 26867M 27191  27216M 29059  29187M
 CPFUNUM       1 00000080 FFFFFFE8 A   U    6801  6803
 CPFXDFLG      1 000007E4 FFFFFFE8     R    5580  5584   5589
 CPGFLG1       1 00000474 FFFFFFE8     R    4943  4947   4952   4957   4962   4967   5297   5297
 CPGFLG10      1 0000047D FFFFFFE8     R    5180  5184   5189   5194   5199   5204   5209
 CPGFLG11      1 0000047E FFFFFFE8     R    5215  5219   5224
 CPGFLG12      1 0000047F FFFFFFE8     R    5230  5234   5239   5244
 CPGFLG13      1 00000480 FFFFFFE8     R    5250  5254
 CPGFLG14      1 00000481 FFFFFFE8     R    5260  5264   5269   5274   5279   5284
 CPGFLG4       1 00000477 FFFFFFE8     R    4996  5007   5016   5025   5034   5043
 CPGFLG5       1 00000478 FFFFFFE8     R    5049  5053   5058   5063   5068   5073   5078   5083   5088
 CPGFLG6       1 00000479 FFFFFFE8     R    5094  5098   5103   5108
 CPGFLG7       1 0000047A FFFFFFE8     R    5114  5118   5123   5128   5133
 CPGFLG8       1 0000047B FFFFFFE8     R    5139  5143   5148   5153   5158
 CPGFLG9       1 0000047C FFFFFFE8     R    5164  5168   5174
 CPINIT        1 00000174 FFFFFFE8     U    4113  7570
 CPJESFLG      1 000009E1 FFFFFFE8     R    5845  5849   5854   5859   5864   5869   5874   5879   5884
 CPJESFLY      1 000009FD FFFFFFE8     R    5895  5899   5904   5909
 CPJESHFL      1 000009E0 FFFFFFE8     R    5830  5834   5839   5918   5918
 CPLFLG10      1 00000D59 FFFFFFE8     R    6936  6940
 CPLFLG11      1 00000D5A FFFFFFE8     R    6946  6950   6955   6960   6965
 CPLFLG12      1 00000D5B FFFFFFE8     R    6971  6975
 CPLFLG14      1 00000D5C FFFFFFE8     R    6981  6985   6990   6995   7000   7005
 CPLFLG6       1 00000D55 FFFFFFE8     R    6811  6815   6820   6825   6830   6835   6840
 CPLFLG7       1 00000D56 FFFFFFE8     R    6846  6850   6855   6860   6865   6870
 CPLFLG8       1 00000D57 FFFFFFE8     R    6876  6880   6885   6890   6895
 CPLFLG9       1 00000D58 FFFFFFE8     R    6901  6905   6910   6915   6920   6925   6930
 CPLOCALZ      1 00000C48 FFFFFFE8     U    6403  7564   7564
 CPMFLG        1 0000084F FFFFFFE8     R    5700  5704
 CPMODFLG      1 00000C78 FFFFFFE8     R    6431  6435   6440   6445   6450   6455
 CPNAMELN      1 00000010 FFFFFFE8 A   U    5326  5573
 CPNEDPFX     10 00000E29 FFFFFFE8     X    7217  7218   7219
 CPNSCANP      4 0000008C FFFFFFE8     A    3986 13780  13787  13802  14698  14705  14720  16725  16732  16747  16909
                                                 16916  16931  16994  17001  17016  18584  18591  18606
 CPNUMFLG      1 00000C79 FFFFFFE8     R    6461  6473
 CPORVCMD      1 00000140 FFFFFFE8     R    3995  3999   4004   4009   4014   4019   4024   4029   4034   4039   4039
                                                  4090   4090
 CPORVFLG      1 00000149 FFFFFFE8     R    4046  4050   4055   4060   4065   4070   4075   4080   4085
 CPORVWF       1 00000150 FFFFFFE8     R    4098  4102
 CPOSCANX      4 00000CA8 FFFFFFE8     F    6630  6697   6697
 CPR          11 0000000B 00000001 A   #    1077  2576U 46056  48579M 48588U 51993M 52001U 52143M 52151U 52295M 52303U
                                                 53171M 53179U
 CPRACBAD     16 000001FC FFFFFFE8         4164  4198   4198   4199   4199
 CPRACF1       1 000001FC FFFFFFE8     R    4145  4149   4154   4159   4164   4169   4174   4179   4184   4200
 CPRACPSW     32 000001FC FFFFFFE8         4159  4197   4197   4199   4199
 CPRACUND     64 000001FC FFFFFFE8         4154  4197   4197   4198   4198
 CPRCVCUR      4 00000730 FFFFFFE8     A    5481  5483   5483
 CPRFLG        1 000008AA FFFFFFE8     R    5771  5775   5780   5785   5790   5795   5800
 CPS         254 00000344 FFFFFFE8     X    4915  4918   4919   4921   4921
 CPSACCT       5 000003B4 FFFFFFE8     C    4514  4677   4677
 CPSAMCOD      1 00000A22 FFFFFFE8     R    5967  5975   5985   5995   6004   6013   6022   6032   6041   6050
 CPSAMFLG      1 00000A21 FFFFFFE8     R    5927  5931   5936   5941   5946   5951   5956   5961   6072   6072
1VETS     (VETS2025) (12:59) (15MAR04) Ordinary Symbol and Literal Cross Reference                                          Page  210
 CPSCNFLG      1 00000CD0 FFFFFFE8     R    6643  6654   6663   6674
 CPSCNF2       1 00000CD1 FFFFFFE8     R    6679  6683
 CPSCNMAX      1 00000014 FFFFFFE8 A   U    6695  6696
 CPSCRI        2 00000434 FFFFFFE8     H    4904  4909   4909
 CPSEG        60 00000050 FFFFFFE8     X    3984 13691  14669  14796  14814  14848  14882  14920  14954  14999  15032
                                                 15101  15122  15156  15190  15287  15308  15360  15404  15433  15489
                                                 15518  15613  16210  16240  16265  16331  16361  16434  16479  18195
                                                 18394  19173  19227  19321  19375  19531  19563  20142  20167  20185
                                                 20203  23556  23685  23911  23929  23947  24064  24082  24100  24574
                                                 24633  26942  27029  40365  40383  40508  40526  41109  41153  41196
                                                 41219  41237  41260  41278  41301  41319  41375  41592  41620  41930
                                                 41987  42024  42043  42178  42196  42273  42291  42411  42442  42481
                                                 42539  42573  42600  42643  42692  42774  42840  42858  42902  42920
                                                 42967  43016  43065  43104  43201  43229  43269  43307  43356  43405
                                                 43454  43503  43552  43601  43650  43694  43748  43820  43917  43948
                                                 44003  44086  44118  44162  44228  44382  44404  44422  44444  44462
 CPSEGBP       4 00000048 FFFFFFE8     A    3893 41354  44207
 CPSEGCOD      1 00000050 FFFFFFE8     R    3901  3910   3920   3930   3940   3950   3960   3970
 CPSEGLENF
               4 0000005C FFFFFFE8     A    3976 24607  27003  41347  44200
 CPSEGLOC      4 00000070 FFFFFFE8     A    3980 24602  26998  41342  44195
 CPSFL         1 00000384 FFFFFFE8     R    4252  4256   4261   4266   4271   4276
 CPSFLG        1 000003F8 FFFFFFE8     R    4792  4796   4801   4806   4811   4816   4821   4826   4831
 CPSFLG2       1 000003F9 FFFFFFE8     R    4837  4841   4846   4851
 CPSFL2        1 00000385 FFFFFFE8     R    4282  4286   4291   4296   4301
 CPSFL3        1 00000386 FFFFFFE8     R    4307  4311   4316   4321
 CPSFL4        1 00000387 FFFFFFE8     R    4327  4331   4336   4341
 CPSFL5        1 00000388 FFFFFFE8     R    4347  4351   4356   4361
 CPSFOPR      16 000003BE FFFFFFE8         4622 13717
 CPSHEI        2 0000041C FFFFFFE8     H    4892 40896  45869
 CPSKAFL       1 000003BF FFFFFFE8     R    4648  4652   4657   4662   4667   4672
 CPSKIFL       1 000003BE FFFFFFE8     R    4603  4607   4612   4617   4622   4627   4632   4637   4642
 CPSNO         2 00000348 FFFFFFE8     H    4240 15252
 CPSOF         1 000001F8 FFFFFFE8     X    4135  4137   4137
 CPSOFLAG      1 00000416 FFFFFFE8     R    4862  4866   4871   4876   4881   4886
 CPSOPST       4 000003C4 FFFFFFE8     F    4682  4911   4911
 CPSPORT       8 00000354 FFFFFFE8     C    4246  4366   4366
 CPSQFLG       1 000003EC FFFFFFE8     R    4711  4715
 CPSSFLG       1 000003BB FFFFFFE8     R    4521  4525   4530   4535   4540   4545   4550
 CPSSTART      4 00000344 FFFFFFE8     F    4238  4242   4242   4678   4678   4783   4783   4915   4915
 CPSSTAT       1 0000038F FFFFFFE8     R    4458  4462   4467   4472   4477   4482   4487   4492
 CPSTACF       1 000003BC FFFFFFE8     R    4556  4560   4565   4570   4575   4580   4585   4590   4595
 CPSTART       4 00000000 FFFFFFE8     C    3874  7568   7572
 CPSTFLAG      1 000003EA FFFFFFE8     R    4689  4693   4698   4703
 CPSTTYPE      8 0000041E FFFFFFE8     C    4894 46020
 CPSTYPE       1 0000038C FFFFFFE8     R    4371  4380   4390   4400   4410   4420   4430   4440   4450
 CPSUFLG       1 000003EE FFFFFFE8     R    4726  4730   4735   4740   4745   4750   4755   4760   4765
 CPSUFLG2      1 000003EF FFFFFFE8     R    4771  4775   4780
 CPSVPGM       8 0000039C FFFFFFE8     C    4504  4510   4510
 CPSWID        2 00000418 FFFFFFE8     H    4890 40943  45916
 CPS1ST        4 0000038C FFFFFFE8     F    4368  4913   4913
 CPTEMPP#      1 0000005F FFFFFFE8 A   U    5821  5823
 CPTRMFL1      1 00000C7A FFFFFFE8     R    6479  6483   6488   6493   6617   6617
 CPTRMFL2      1 00000C7B FFFFFFE8     R    6499  6503   6508   6513   6518   6523   6528
 CPTRMFL3      1 00000C7C FFFFFFE8     R    6534  6538   6543   6548   6553   6558   6563   6568
 CPTRMFL4      1 00000C7D FFFFFFE8     R    6574  6578   6583   6588   6593   6598   6603   6608
 CPTTYPEP      4 00000468 FFFFFFE8     A    4934 40875  45845
 CPUSED        1 00000FBC FFFFFFE8 A   U    7568  7569
 CPVACURS      8 00000AF0 FFFFFFE8     D    6346  6347   6348
1VETS     (VETS2025) (12:59) (15MAR04) Ordinary Symbol and Literal Cross Reference                                          Page  211
 CPVCURS       8 00000AE0 FFFFFFE8     D    6340  6341   6342
 CPVFLAG       1 00000AC8 FFFFFFE8     R    6141  6145   6150   6155   6160   6165
 CPVFLAG2      1 00000AC9 FFFFFFE8     R    6171  6175   6180   6185   6190   6195   6200
 CPVFLAG3      1 00000ACA FFFFFFE8     R    6206  6210   6215   6220   6225   6230   6235
 CPVFLAG4      1 00000ACB FFFFFFE8     R    6241  6245   6250   6255
 CPVLFLAG      1 00000ACE FFFFFFE8     R    6310  6314   6319   6324
 CPVMODE       1 00000ACC FFFFFFE8     R    6263  6267   6272   6277   6282   6287   6292   6297   6302
 CPVTWAP       4 000001E8 FFFFFFE8     A    4128 14558M 14558  16250  16453  16704  18413  19192  19340  19627  45798M
                                                 45798  46057M 46167  46210M 46210  46607M 46607
 CPVTWID       2 00000AD0 FFFFFFE8     H    6330  6333   6333
 CPWK1         4 00000D60 FFFFFFE8     F    7014  7029   7052
 CPWK2         4 00000D64 FFFFFFE8     F    7015  7030   7044
 CPWK3         4 00000D68 FFFFFFE8     F    7016  7031   7045
 CPWK4         4 00000D6C FFFFFFE8     F    7017  7032   7046
 CPWK5         4 00000D70 FFFFFFE8     F    7018  7034   7039   7047
 CPWK6         4 00000D74 FFFFFFE8     F    7019  7035   7040   7048   7055   7057
 CPWK7         4 00000D78 FFFFFFE8     F    7020  7033   7049
 CPXFLAG       1 000007FD FFFFFFE8     R    5608  5612
 CPXSTATE      4 000007F8 FFFFFFE8     F    5602  5615   5615
 CRBRANCH      1 00000000 00000000 A   T    1914  1914
 CSI           2 00003750 00000001     H   30079 29921B 30070B
 CSIDONE       2 000037EC 00000001     I   30255 30205B 30246B
 CSIFUNC       1 0000001B FFFFFFD9     X   28934 30265M
 CSILOOP       4 000037BE 00000001     I   30211 30254B
 CSISTART    128 00000008 FFFFFFD4        41463 42729M 42934M 43185  43239M 43674
 CSRTABLE      1 00000000 00000000 A   T    1934  1934
 CSVARMGR      1 00000000 00000000 A   T    1982  1982
 CSVEXIT       1 00000000 00000000 A   T    1855  1855
 CSVLLCB       1 00000000 00000000 A   T    1455  1455
 CSVLLTRM      1 00000000 00000000 A   T    1456  1456
 CSVMEM        1 00000000 00000000 A   T    1683  1683
 CSVVFGET      1 00000000 00000000 A   T    2247  2247
 CSVVFIND      1 00000000 00000000 A   T    2245  2245
 CV         4016 00000000 FFFFFFEA     J    3777  2585U 52011U 52161U 52313U 53189U 53466U
 CV            1 00000000 00000015     T   53732 53732
 CVABORT       4 000007DA FFFFFFEA     I    3556 18206B 23648B 23698B
 CVABSRTN      4 0000088C FFFFFFEA     V    3591  3566
 CVABTMSG      4 000007CC FFFFFFEA     I    3551 13702B 13730B 14191B 14680B 16221B 16342B 16445B 16490B 16517B 18405B
                                                 18441B 19184B 19238B 19332B 19386B 19542B 41094B
 CVBRMSK       1 00000751 FFFFFFEA     X    3507  3508   3509
 CVCFLAG       1 00000A00 FFFFFFEA     R    3672  3676   3681   3686   3691   3696
 CVCHKST       8 000009F0 FFFFFFEA     D    3662  3752   3752
 CVCHKST2      8 00000E28 FFFFFFEA     D    3755  3758   3758
 CVCOMRTN      4 0000087C FFFFFFEA     V    3587  3557
 CVCURJCB      4 000001C8 FFFFFFEA     A    2856 46058
 CVDBGFLG      1 000004CC FFFFFFEA     R    3361  3365
 CVECB         4 00000720 FFFFFFEA     F    3479 52864  53609
 CVENT         4 0000074C FFFFFFEA     I    3505 13650B 14416B 14527B 14629B 15694B 16006B 16169B 16290B 16393B 16657B
                                                 18353B 19132B 19280B 19490B 19604B 21148B 21513B 21864B 22044B 23837B
                                                 24022B 24206B 27965B 28337B 28433B 28977B 31369B 35663B 35822B 35983B
                                                 36296B 38000B 38932B 39432B 40323B 40460B 40699B 41534B 44327B 44600B
                                                 44789B 44913B 45271B 45765B 46143B 46709B 47479B 48182B 48392B 48827B
                                                 50623B 51103B 51714B
 CVENTBR       2 00000750 FFFFFFEA     I    3506  3507
 CVERROR       4 000007D6 FFFFFFEA     I    3555  3571B
 CVEXIRTN      4 0000077C FFFFFFEA     V    3535  3531
 CVFCHRKBPR
               8 000004C9 FFFFFFEA         3276  3292   3292
 CVFCHRKBSE
1VETS     (VETS2025) (12:59) (15MAR04) Ordinary Symbol and Literal Cross Reference                                          Page  212
               4 000004C9 FFFFFFEA         3281  3292   3292
 CVFCHRKCPR
               2 000004C9 FFFFFFEA         3298  3314   3314
 CVFCHRKCSE
               1 000004C9 FFFFFFEA         3303  3314   3314
 CVFCHRUBPR
             128 000004C9 FFFFFFEA         3232  3248   3248
 CVFCHRUBSE
              64 000004C9 FFFFFFEA         3237  3248   3248
 CVFCHRUCPR
              32 000004C9 FFFFFFEA         3254  3270   3270
 CVFCHRUCSE
              16 000004C9 FFFFFFEA         3259  3270   3270
 CVFL          1 000004C4 FFFFFFEA     R    3028  3032   3037   3042   3047   3052   3057   3062   3067
 CVFL2         1 000004C5 FFFFFFEA     R    3073  3077   3082   3087   3092   3097   3102   3107   3112
 CVFL3         1 000004C6 FFFFFFEA     R    3118  3122   3127   3132   3137   3142   3147   3152   3157
 CVFL4         1 000004C7 FFFFFFEA     R    3163  3167   3172   3177   3182   3187   3192   3197
 CVFL5         1 000004C8 FFFFFFEA     R    3203  3207   3212   3217   3222
 CVFL6         1 000004C9 FFFFFFEA     R    3228  3232   3237   3249   3254   3259   3271   3276   3281   3293   3298
                                                  3303   3315
 CVFTEST       2 000004C5 FFFFFFEA         3107 13672  14650  16191  16312  16415  18375  19154  19302  19512
 CVHEAP#       1 00000200 FFFFFFEA A   U    2934  2935
 CVINVRTN      4 00000888 FFFFFFEA     V    3590  3560
 CVJESFLG      1 000004CA FFFFFFEA     R    3321  3325
 CVLNKRGS      4 00000780 FFFFFFEA     F    3537  3512M  3538  17380M 17691M 18155M 18545M 19031M 20633M 20740M 21040M
                                                 21241M 21429M 21621M 21782M 22165M 22197M 23297M 23322M 23373M 23402M
                                                 23431M 23460M 24344M 27292M 27692M 28665M 28766M 39015M 39360M 39562M
                                                 40219M 44637M 45194M 45371M 45684M 45807M 46317M 46388M 46829M 46986M
                                                 47108M 47235M 47347M 47666M 48014M 48735M 49998M 51015M 51630M
 CVLNKRTN      4 000007B0 FFFFFFEA     U    3538  3527M
 CVLOCK1       1 00000088 FFFFFFEA     R    2679  2683   2688
 CVLOCK2       1 00000089 FFFFFFEA     R    2693  2697
 CVLOCK3       1 0000008A FFFFFFEA     R    2702  2706
 CVLOCK4       1 0000008B FFFFFFEA     R    2711  2715
 CVLOGMOD      1 00000068 FFFFFFEA     R    2666  2670
 CVMACH        1 00000067 FFFFFFEA     R    2626  2630   2635   2640   2645   2650   2655   2660
 CVMILRTN      4 00000884 FFFFFFEA     V    3589  3569
 CVNEXT        4 000007DE FFFFFFEA     I    3557 14379B 15636B 16271B 16366B 19568B 20070B 20217B 23959B 24112B 28127B
                                                 28563B 30864B 40395B 40538B 41408B 44261B
 CVNOARTN      4 00000890 FFFFFFEA     V    3592  3563
 CVNWDATE      4 00000608 FFFFFFEA     F    3394  3398   3398
 CVNWMPG#      1 00000008 FFFFFFEA A   U    3396  3397
 CVPFXRTN      1 00000000 00000000 A   T    3535  3535
 CVPGFLAG      1 00000A01 FFFFFFEA     R    3702  3706   3711   3716
 CVPIOSZ       1 00004F80 FFFFFFEA A   U    2765  2767
 CVPPDBQH      4 0000009C FFFFFFEA     A    2723  2724
 CVPSFNO       1 000003E9 FFFFFFEA A   N    2887  2889
 CVPSLNO       1 000007CF FFFFFFEA A   N    2888  2889
 CVPXSZ        1 00000008 FFFFFFEA A   U    2766  2767
 CVR          12 0000000C 00000001 A   #    1090  2585U 52003M 52011U 52153M 52161U 52305M 52313U 53181M 53189U 53458M
                                                 53466U
 CVRKEY        1 00000008 FFFFFFEA A   U    3460  3461
 CVSEGRTN      4 00000880 FFFFFFEA     V    3588  3552
 CVSTACK#      1 00000080 FFFFFFEA A   U    2926  2927
 CVSTART       4 00000000 FFFFFFEA     C    2599  3770
 CVTBRET       2 00000052 FFFFFFEE     H    1480  1993   2072
 CVTMAP        1 00000000 FFFFFFEE     U    1430 53611
 CVTRC         4 00000768 FFFFFFEA     I    3527  3513B 17381B 17692B 18156B 18546B 19032B 20634B 20741B 21041B 21242B
                                                 21430B 21622B 21783B 22166B 22198B 23298B 23323B 23374B 23403B 23432B
1VETS     (VETS2025) (12:59) (15MAR04) Ordinary Symbol and Literal Cross Reference                                          Page  213
                                                 23461B 24345B 27293B 27693B 28666B 28767B 39016B 39361B 39563B 40220B
                                                 44638B 45195B 45372B 45685B 45808B 46318B 46389B 46830B 46987B 47109B
                                                 47236B 47348B 47667B 48015B 48736B 49999B 51016B 51631B
 CVTRCRTN      4 00000778 FFFFFFEA     V    3534  3528
 CVTVSTGX      1 00000000 FFFFFFED     J    2445  2309
 CVTXTNT1      1 00000000 FFFFFFEC     J    2484  1652
 CVTXTNT2      1 00000000 FFFFFFEB     J    2492  1722   3778   3862   7602   7714   7994
 CVT0PT01      4 00000098 FFFFFFEE     V    1534 53611
 CVT4MS1       1 00000010 FFFFFFEE A   U    1505  1513
 CVT6DAT       1 00000002 FFFFFFEE A   U    1509  1513
 CVUSFNO       1 00000001 FFFFFFEA A   N    2894  2896
 CVUSLNO       1 000003E7 FFFFFFEA A   N    2895  2896
 CVVOL#        1 00000005 FFFFFFEA A   U    3745  3746
 CVVTAMQH      4 000000C8 FFFFFFEA     A    2746 48447  48511M 52779  52839M 53492  53569M
 CVWTOFLG      1 000004CB FFFFFFEA     R    3331  3335   3340   3345   3350   3355
 CVWYLSSN      8 00000028 FFFFFFEA     C    2611 14783  14788
 DBREAK        2 00007AF6 00000001     H   51700 48714B
 DCHARTAB     64 000065D8 00000001     X   44746 44704  44705
 DEBUGSG       1 00000000 00000000 A   T    3488  3488
 DEV          12 00000000 FFFFFFE7     J    6126  6134
 DEVMAX#       1 00000002 FFFFFFE8 A   U    6077  6134
 DEVSHCH       1 0000001C FFFFFFE2     B    9628  9629
 DEVTCODE      1 0000001D FFFFFFE2     B    9639  9640
 DEVTYPE       1 00000001 FFFFFFE7     R    6094  6103   6113
 DFAIDTAB      1 00000000 00000000 A   T    2322  2322
 DISPLAYC      2 000046BC 00000001     H   35268 32726B 32737B
 DISPLOCK      1 00000000 00000000 A   T   10309 10309
 DISTOBUF      2 00006618 00000001     H   44775 35589
 DOCEXIT       2 000031EA 00000001     H   28263 28154B
 DOCONT        2 0000313E 00000001     H   27951 23750
 DOCONT1       2 0000318A 00000001     H   28084 28245B
 DOINB         2 00003218 00000001     H   28323 23749
 DOODONE       2 00002D64 00000001     H   27179 27611B
 DOOERROR      2 00002E48 00000001     H   27579 24273B 24455B 24800B 24932B 25065B 25268B 25400B 25509B 25562B 25683B
                                                 25847B 25955B 26110B 26145B 26284B 26314B 26422B 26531B 26641B 26776B
                                                 26827B 27052B
 DOOEXIT       2 00002EAE 00000001     H   27726 27370B 27504B 27576B
 DOOUTB        2 00002634 00000001     H   24190 23748
 DOOUTBWA     12 00000000 FFFFFFDA     J   24161 24203  24232U 24243M 24243  27831  27833  27834
 DOOUTB1       4 0000265C 00000001     I   24257 27164B
 DOOUTB2       2 00002D58 00000001     I   27151 26623B 26634B 26642B
 DOOUT345      4 00000000 FFFFFFDA     F   24154 24689M 24827M 26861
 DOTTBL        1 00000000 00000000 A   T    3604  3604
 DRCVE         2 000073D0 00000001     H   48813 48625B
 DRCVERE       2 00007912 00000001     H   51089 48643B
 DRCVERR       2 000074BA 00000001     H   49184 49009  49010  49011  49012
 DRCVEUD       2 0000756C 00000001     H   49518 50527B
 DRCVEUD1      2 000075CA 00000001     H   49685 50329B 50503B
 DRCVEXIT      2 000077C2 00000001     H   50542 49013  49842B 49925B 49947B 50241B 50274B
 DRCVNORM      2 000074CC 00000001     H   49209 49006  49177B
 DRCVSNAD      2 00007464 00000001     H   49016 49007
 DRCVSRCV      2 000077BC 00000001     H   50534 49008  49570B 49808B 50023B 50279B
 DRCVTABL      4 00007444 00000001     A   49006 49004
 DRENCFLG      1 00000F9F FFFFFFE8     R    7532  7536   7541   7546   7551   7556
 DRENPROT      1 00000F9E FFFFFFE8     R    7519  7527
 DREREXIT      2 00007AE8 00000001     H   51636 51266  51267  51268  51269  51270  51271  51295B
 DRERNORM      2 000079A4 00000001     H   51298 51264
 DRERRCV       2 00007A0A 00000001     H   51486 51332B
 DRERSNAD      2 00007998 00000001     H   51274 51265
1VETS     (VETS2025) (12:59) (15MAR04) Ordinary Symbol and Literal Cross Reference                                          Page  214
 DRERTABL      4 00007978 00000001     A   51264 51262
 DSEINTEG      2 00007860 00000001     H   50810 50803
 DSELOGIC      2 0000787C 00000001     H   50870 50805
 DSENDE        2 000077D0 00000001     H   50609 48680B
 DSENERR       2 0000788C 00000001     H   50908 50801  50806  50867B
 DSENEXIT      2 00007904 00000001     H   51021 50804  50807  50825B 50887B 50901B 50954B 51006B
 DSENNORM      2 0000789E 00000001     H   50933 50800  50847B 50861B
 DSENRTRY      2 000078B2 00000001     H   50957 50802
 DSENTABL      4 00007840 00000001     A   50800 50798
 DSNON        40 00000E90 FFFFFFE8     C    7252  7253
 DSNWADSN     44 00000E5C FFFFFFE8     C    7239  7240   7241   7242   7251   7259   7490   7496   7498   7504   7507
                                                  7509   7512   7561
 DSNWAF4       1 00000F37 FFFFFFE8     R    7307  7311   7316   7321   7326   7331   7336   7341   7346
 DSNWAF5       1 00000F38 FFFFFFE8     R    7352  7356   7361   7366   7371   7376   7381   7386   7391
 DSNWAF6       1 00000F39 FFFFFFE8     R    7397  7401   7406   7411   7416   7421   7426   7431   7436
 DSNWAF7       1 00000F3A FFFFFFE8     R    7442  7446   7451   7456   7461
 DSNXG         1 00000004 FFFFFFE8 A   U    7244  7246
 DSNXGL        1 00000003 FFFFFFE8 A   U    7245  7246
 DSNXU         1 00000007 FFFFFFE8 A   U    7246  7248
 DSNXUL        1 00000004 FFFFFFE8 A   U    7247  7248
 DSSIZ         1 00000108 FFFFFFE8 A   U    7490  7498   7507   7512
 DTB           1 00000000 00000005     T   16551 16551  31197
 EBCTBL        1 00000000 00000000 A   T    3600  3600
 EBCTBL7       1 00000000 00000000 A   T    3603  3603
 ECBLIST       1 00000000 00000000 A   T    3463  3463
 ENDFAC        4 00000010 FFFFFFD9     A   28901 29606  29762  30001  30568M 30674M 31039
 ENDOFLIN      4 00000000 FFFFFFD4     F   41455 41861M 41876
 EPARTBL       1 00000000 00000000 A   T    3595  3595
 ERROR10A      2 00005842 00000001     H   40446 18292  19678  23756  40587  46653
 ERR20288      2 0000703E 00000001     H   47546 47544B
 ERR20348      2 0000709C 00000001     H   47638 47636B
 ERR20403      2 00007114 00000001     H   47730 47728B
 ERR20419      2 0000714E 00000001     H   47757 47755B
 ERR20436      2 00007186 00000001     H   47785 47783B
 ERR20467      2 000071B0 00000001     H   47830 47828B
 ERR20564      2 00007214 00000001     H   47968 47966B
 ERR20601      2 0000725A 00000001     H   48026 48024B
 ERR3231       2 00000A48 00000001     H   16776 16774B
 ERR3294       2 00000ABC 00000001     H   16893 16891B
 ERR3420       2 00000BDA 00000001     H   17122 17120B
 ERR3860       2 00000F9E 00000001     H   18053 18051B
 ERR3914       2 00000FEC 00000001     H   18136 18134B
 ERR6126       2 00001ECC 00000001     H   22271 22269B
 ERR6625       2 000021FE 00000001     H   23228 23226B
 ERR6687       2 00002286 00000001     H   23333 23331B
 ESC           2 0000371C 00000001     H   30032 29848B
 EVENPAR     256 0000303E 00000001     X   27906 24535
 FIELDFUL      8 00000018 FFFFFFD9        28929 29414  29414  29704M 29774M 30013M 30459  30459  30460  30460  30959
                                                 30959  31074M
 FINDNAME      2 000005B2 00000001     H   15992 14142B
 FINDNFAC      2 00004892 00000001     H   35649 31190  35563  40570
 FINDNXIT      4 000048E4 00000001     I   35757 35743B
 FINDPFAC      2 000048F6 00000001     H   35808 31201  35562  44498
 FINDPXIT      4 00004944 00000001     I   35914 35900B
 FIRSTTRI      4 00000000 FFFFFFD3     A   47439 47553M 47571  47629
 FLCEAMDID
               1 000000A3 FFFFFFE0     C   11109 11110  11112
 FLCEFACILITIESLIST
               4 000000C8 FFFFFFE0     C   11139 11140
1VETS     (VETS2025) (12:59) (15MAR04) Ordinary Symbol and Literal Cross Reference                                          Page  215
 FLCEFACILITIESLISTBYTE0
               1 000000C8 FFFFFFE0     B   11141 11142  11146
 FLCEICOD      2 00000086 FFFFFFE0     H   10049 10050
 FLCENPSW      4 00000058 FFFFFFE0     X   10025 10027
 FLCEOPSW      8 00000018 FFFFFFE0     X   10008 10009
 FLCEPDATA
               4 0000008C FFFFFFE0     C   11060 11061  11077
 FLCEPDATABYTE0
               2 0000008C FFFFFFE0     C   11062 11063  11068
 FLCEPER       8 00000098 FFFFFFE0     C   11102 11103
 FLCEPERATMID
               1 00000097 FFFFFFE0     B   11092 11093
 FLCEPERCODE
               2 00000096 FFFFFFE0     C   11083 11084  11101
 FLCEPERCODE0
               1 00000096 FFFFFFE0     B   11085 11086  11091
 FLCEPICODE
               2 0000008E FFFFFFE0     C   11069 11070
 FLCEPICODE1
               1 0000008F FFFFFFE0     G   11072 11073
 FLCEPIINFORMATION
               4 00000090 FFFFFFE0     C   11078 11079
 FLCEPILC      1 0000008D FFFFFFE0     G   11065 11066
 FLCESAME      8 00000000 FFFFFFE0     D   11042 11171
 FLCESDATA
               4 00000088 FFFFFFE0     C   11050 11051
 FLCESDATABYTE0
               2 00000088 FFFFFFE0     C   11052 11053  11058
 FLCESILC      1 00000089 FFFFFFE0     G   11055 11056
 FLCETEA       8 000000A8 FFFFFFE0     C   11116 11117
 FLCETEASNINFO
               8 000000A8 FFFFFFE0     C   11125 11126
 FLCETEA7      1 000000AF FFFFFFE0     B   11119 11120
 FLCETEID      8 000000A8 FFFFFFE0     C   11114 11115  11124  11129
 FLCETEPCINFO
               8 000000A8 FFFFFFE0     C   11130 11131
 FLCINPSW      4 00000078 FFFFFFE0     X   10039 10041
 FLCIOPSW      8 00000038 FFFFFFE0     X   10017 10018
 FLCIPPSW      8 00000000 FFFFFFE0     C    9998 10001
 FLCMNPSW      4 00000070 FFFFFFE0     X   10035 10038
 FLCMOPSW      8 00000030 FFFFFFE0     X   10015 10016
 FLCPICOD      2 0000008E FFFFFFE0     H   10073 10074
 FLCPIILC      1 0000008D FFFFFFE0     G   10066 10072
 FLCPNPSW      4 00000068 FFFFFFE0     X   10031 10034
 FLCPOPSW      8 00000028 FFFFFFE0     X   10013 10014
 FLCSNPSW      4 00000060 FFFFFFE0     X   10028 10030
 FLCSOPSW      8 00000020 FFFFFFE0     X   10010 10012
 FLCSVCN       2 0000008A FFFFFFE0     H   10060 10063
 FLCSVILC      1 00000089 FFFFFFE0     G   10054 10059
 FLDCOL        1 0000000B FFFFFFD4     X   41488 41816M 42323M 43170
 FLDCS         1 0000000C FFFFFFD4     X   41489 41826M 42341  42360M 43776
 FLDFAC        1 00000009 FFFFFFD4     X   41486 41648M 41648  41676M 41957  42051M
 FLDHI         1 0000000A FFFFFFD4     X   41487 41806M 42313M 42795
 FMBRANCH      1 00000000 00000000 A   T    2098  2098
 FREEACB       2 000072A2 00000001     H   48168 46661
 FREECORE      1 00000000 0000000E     T   23764 23764  27890  46662  53722
 FREEVTWA      2 00006A3C 00000001     H   46129 18296  19681  23762  27842  28292  28869  40593  44491  46659
 FSR           0 00000000 00000001 A   #    1000 14411  14492M 14522  14604M 15689  15944M 15959M 16001  16138M 16153M
                                                 16651  18209M 18236M 19599  19663M 21143  21465M 21508  21819M 21859
1VETS     (VETS2025) (12:59) (15MAR04) Ordinary Symbol and Literal Cross Reference                                          Page  216
                                                 21978M 22039  23730M 23832  23977M 24017  24130M 24200  27831M 27960
                                                 28282M 28332  28385M 28428  28857M 28971  31179M 31363  35416M 35540M
                                                 35658  35757M 35772M 35817  35914M 35929M 35978  36166M 36185M 36290
                                                 37940M 37995  38819M 38927  39389M 39427  40278M 40318  40414M 40455
                                                 40557M 40694  41430M 41528  44293M 44322  44481M 44595  44719M 44734M
                                                 44784  44857M 44876M 44908  45227M 45266  45732M 45760  46098M 46138
                                                 46633M 46704  47374M 47406M 47473  48098M 48100M 48137M 48177  48320M
                                                 48387  48777M 48822  50576M 50618  51055M 51098  51665M 51709  51849M
 GENACB        2 00006C3C 00000001     H   46695 16553
 GESC         64 0000000D FFFFFFD8        31311 34327M 34404  34418M 35245M 35287  35301M
 GETACB        2 00006FF4 00000001     H   47463 18286
 GETACBR       4 0000728C 00000001     I   48098 47547B 47639B 47731B 47758B 47786B 47831B 47969B 48027B
 GETACBWA      4 00000000 FFFFFFD3     J   47446 47476  47505U 48137  48139  48140
 GETACB1       2 0000704A 00000001     H   47559 47888B 47914B 47940B
 GETACB2       2 00007058 00000001     H   47580 47554B
 GETACB3       2 000070C2 00000001     H   47676 47605B
 GETCORE       1 00000000 0000000C     T   18287 18287  23775  31187  40566  46646  47414
 GETVTWA       2 00006960 00000001     H   45751 18277
 GLBRANCH      1 00000000 00000000 A   T    2004  2004
 GMBRANCH      1 00000000 00000000 A   T    2100  2100
 GVT           1 00000000 00000000 A   T    1866  1866
 HIBAL         1 00000000 FFFFFFFF     J     691   707    720    733    746    759    772    785    798    811    824
                                                   837    850    863    876    889    902
 HOMESET       8 00000008 FFFFFFD4        41483 42657  42668M
 IARMPVT       1 00000000 00000000 A   T    1741  1741
 IARMRRCE      1 00000000 00000000 A   T    2286  2286
 IARPIBR       1 00000000 00000000 A   T    2256  2256
 IARPSIV       1 00000000 00000000 A   T    2080  2080
 IARPSXM       1 00000000 00000000 A   T    2229  2229
 IARXKEY       1 00000000 00000000 A   T    2187  2187
 IARXVIO       1 00000000 00000000 A   T    2081  2081
 ICYMMVTC      1 00000000 00000000 A   T    2512  2512
 IDA121CV      1 00000000 00000000 A   T    2019  2019
 IDA19913A
               4 00006C7C 00000001     A   46787 46783M 46784M 46786B 46788  46789  46790
 IDA19964A
               4 00006D00 00000001     A   46914 46910M 46911M 46913B 46915  46916  46917  46918  46919  46920  46921
                                                 46922  46923  46924
 IDA20027A
               4 00006DE0 00000001     A   47052 47048M 47049M 47051B 47053  47054  47055  47056  47057  47058
 IDA20086A
               4 00006E90 00000001     A   47175 47171M 47172M 47174B 47176  47177  47178  47179  47180  47181  47182
 IDA20146A
               4 00006F4C 00000001     A   47299 47295M 47296M 47298B 47300  47301  47302  47303
 IDA3519A      4 00000C70 00000001     A   17325 17321M 17322M 17324B 17326  17327  17328  17329  17330  17331
 IDA6033A      4 00001DF0 00000001     A   22110 22106M 22107M 22109B 22111  22112  22113  22114  22115  22116
 IEABEND       1 00000000 00000000 A   T    1603  1603
 IEACLTE       1 00000000 00000000 A   T   10631 10631
 IEACVT        1 00000000 00000000 A   T   10005 10005  10020
 IEADQIQE      1 00000000 00000000 A   T    1999  1999
 IEAECVT       1 00000000 00000000 A   T    1528  1528
 IEAGSMQ       1 00000000 00000000 A   T    1976  1976
 IEAIHASU      1 00000000 00000000 A   T    2216  2216
 IEALKPT       1 00000000 00000000 A   T   10624 10624
 IEALSMQ       1 00000000 00000000 A   T    1978  1978
 IEAMASCB      1 00000000 00000000 A   T    1946  1946   1950  10158
 IEAPATCH      1 00000000 00000000 A   T    1611  1611
 IEAPDSRT      1 00000000 00000000 A   T    1874  1874
 IEAPTRV       1 00000000 00000000 A   T    1690  1690
1VETS     (VETS2025) (12:59) (15MAR04) Ordinary Symbol and Literal Cross Reference                                          Page  217
 IEAQCDSR      1 00000000 00000000 A   T    1594  1594
 IEAQCS01      1 00000000 00000000 A   T    1986  1986
 IEAQEX00      1 00000000 00000000 A   T   10026 10026
 IEAQIO00      1 00000000 00000000 A   T   10040 10040
 IEAQLPAQ      1 00000000 00000000 A   T    1595  1595
 IEAQPK00      1 00000000 00000000 A   T   10033 10033
 IEAQSC00      1 00000000 00000000 A   T   10029 10029
 IEAQTD00      1 00000000 00000000 A   T    1491  1491
 IEAQTE00      1 00000000 00000000 A   T    1489  1489
 IEARPOST      1 00000000 00000000 A   T    2001  2001
 IEASMFEX      1 00000000 00000000 A   T    1878  1878
 IEASMFSP      1 00000000 00000000 A   T    2224  2224
 IEASPOST      1 00000000 00000000 A   T    2021  2021
 IEASVDCB      1 00000000 00000000 A   T    1482  1482
 IEATCBP       1 00000000 00000000 A   T    1432  1432
 IEATPC        1 00000000 00000000 A   T    1484  1484
 IEATRSCN      1 00000000 00000000 A   T    1842  1842
 IEAVAR02      1 00000000 00000000 A   T    1926  1926
 IEAVBLDP      1 00000000 00000000 A   T    1910  1910
 IEAVDELP      1 00000000 00000000 A   T    1913  1913
 IEAVEAC0      1 00000000 00000000 A   T    2003  2003
 IEAVEADV      1 00000000 00000000 A   T    2161  2161
 IEAVEDR1      1 00000000 00000000 A   T    2046  2046
 IEAVELRM      1 00000000 00000000 A   T    1995  1995
 IEAVELT1      1 00000000 00000000 A   T   10395 10395
 IEAVELT2      1 00000000 00000000 A   T   10629 10629
 IEAVENLU      1 00000000 00000000 A   T    2342  2342
 IEAVENQ2      1 00000000 00000000 A   T    1992  1992
 IEAVEQV1      1 00000000 00000000 A   T    2149  2149
 IEAVEQV2      1 00000000 00000000 A   T    2152  2152
 IEAVEQV3      1 00000000 00000000 A   T    2155  2155
 IEAVERI1      1 00000000 00000000 A   T    2048  2048
 IEAVERP1      1 00000000 00000000 A   T    2050  2050
 IEAVERX1      1 00000000 00000000 A   T    2238  2238
 IEAVESC1      1 00000000 00000000 A   T    2177  2177  10921
 IEAVESC2      1 00000000 00000000 A   T   10923 10923
 IEAVESC7      1 00000000 00000000 A   T   10917 10917
 IEAVESC8      1 00000000 00000000 A   T   10919 10919
 IEAVESPR      1 00000000 00000000 A   T    2106  2106
 IEAVESTU      1 00000000 00000000 A   T    2340  2340
 IEAVESVT      1 00000000 00000000 A   T    2112  2112  10925
 IEAVETOT      1 00000000 00000000 A   T   10778 10778
 IEAVETVT      1 00000000 00000000 A   T   10776 10776
 IEAVET6E      1 00000000 00000000 A   T    2212  2212
 IEAVEVT2      1 00000000 00000000 A   T    2166  2166
 IEAVEXPR      1 00000000 00000000 A   T    1974  1974
 IEAVEXP1      1 00000000 00000000 A   T    2143  2143
 IEAVFRCL      1 00000000 00000000 A   T    1912  1912
 IEAVGSDA      1 00000000 00000000 A   T    2157  2157
 IEAVGTCL      1 00000000 00000000 A   T    1911  1911
 IEAVGWSA      1 00000000 00000000 A   T    2006  2006
 IEAVLKRM      1 00000000 00000000 A   T    1713  1713
 IEAVMFRM      1 00000000 00000000 A   T    2091  2091
 IEAVMSGS      1 00000000 00000000 A   T    1660  1660
 IEAVNVT0      1 00000000 00000000 A   T    2325  2325
 IEAVRSTR      1 00000000 00000000 A   T   10000 10000
 IEAVRSUH      1 00000000 00000000 A   T    2204  2204
 IEAVRT03      1 00000000 00000000 A   T    1818  1818
 IEAVSPND      1 00000000 00000000 A   T    2214  2214
1VETS     (VETS2025) (12:59) (15MAR04) Ordinary Symbol and Literal Cross Reference                                          Page  218
 IEAVSTAG      1 00000000 00000000 A   T    1954  1954
 IEAVSVTX      1 00000000 00000000 A   T   10927 10927
 IEAVTCTL      1 00000000 00000000 A   T    2206  2206
 IEAVTEST      1 00000000 00000000 A   T    1717  1717
 IEAVTRGR      1 00000000 00000000 A   T    2014  2014
 IEAVTRG1      1 00000000 00000000 A   T    1463  1463
 IEAVTRV3      1 00000000 00000000 A   T    1710  1710
 IEAVTSBP      1 00000000 00000000 A   T    1960  1960
 IEAVTSFR      1 00000000 00000000 A   T    1681  1681
 IEAVTSGL      1 00000000 00000000 A   T    1958  1958
 IEAVVMSR      1 00000000 00000000 A   T    1739  1739
 IEAVWAIT      1 00000000 00000000 A   T    1981  1981
 IEAVWSAC      1 00000000 00000000 A   T    2012  2012
 IEAVWSAG      1 00000000 00000000 A   T    2010  2010
 IEAVWSAL      1 00000000 00000000 A   T    2008  2008
 IEAVXEXT      1 00000000 00000000 A   T    2089  2089
 IEAVXSFT      1 00000000 00000000 A   T    2056  2056
 IEAVXSTN      1 00000000 00000000 A   T    2062  2062
 IEAVXSTS      1 00000000 00000000 A   T    2060  2060
 IEAVXUNN      1 00000000 00000000 A   T    2085  2085
 IEAVXUNS      1 00000000 00000000 A   T    2064  2064
 IEAWTCB       1 00000000 00000000 A   T    2121  2121
 IEA0DS        1 00000000 00000000 A   T    1527  1527
 IEA0EF00      1 00000000 00000000 A   T    1433  1433
 IEA0EF01      1 00000000 00000000 A   T    1473  1473
 IEA0PT0E      1 00000000 00000000 A   T    2193  2193
 IEA0PT01      1 00000000 00000000 A   T    1534  1534
 IEA0PT02      1 00000000 00000000 A   T    2118  2118
 IEA0PT03      1 00000000 00000000 A   T    2195  2195
 IEA0VL00      1 00000000 00000000 A   T    1444  1444
 IEA0VL01      1 00000000 00000000 A   T    1851  1851
 IECIXAVL      1 00000000 00000000 A   T    1519  1519
 IECPCNVT      1 00000000 00000000 A   T    1447  1447
 IECPRLTV      1 00000000 00000000 A   T    1451  1451
 IECVEXCL      1 00000000 00000000 A   T    2083  2083
 IECXAPG       1 00000000 00000000 A   T    1442  1442
 IECXITP       1 00000000 00000000 A   T    1472  1472
 IECXTLER      1 00000000 00000000 A   T    1458  1458
 IEC0SCR1      1 00000000 00000000 A   T    1617  1617
 IEECUCB       1 00000000 00000000 A   T    1488  1488
 IEEMSER       1 00000000 00000000 A   T    1466  1466   1532
 IEEVEXSN      1 00000000 00000000 A   T    1821  1821
 IEEVSTOP      1 00000000 00000000 A   T    2131  2131
 IEFAQTOP      1 00000000 00000000 A   T    1938  1938
 IEFAUSDM      1 00000000 00000000 A   T    1438  1438
 IEFENFDM      1 00000000 00000000 A   T    1597  1597
 IEFJESCT      1 00000000 00000000 A   T    1697  1697
 IEFLINK       1 00000000 00000000 A   T    1435  1435
 IEFQMWR       1 00000000 00000000 A   T    1548  1548
 IEWFBOSV      1 00000000 00000000 A   T    1525  1525
 IEWMSEPT      1 00000000 00000000 A   T    2030  2030
 IFBDCB        1 00000000 00000000 A   T    1514  1514
 IFDOLT0A      1 00000000 00000000 A   T    1876  1876
 IFGACB        1 00000000 FFFFFFE4     J    8189  8842   8844   8845   8883   8883   8884   8884  12946
 IFGDEBVR      1 00000000 00000000 A   T    2507  2507
 IFGRPL        1 00000000 FFFFFFDF     J   11260 12914  12949  12951  12952  13127  13127  13128  13128
 IGC043BR      1 00000000 00000000 A   T    1922  1922
 IGC044R2      1 00000000 00000000 A   T    2032  2032
 IGC062R1      1 00000000 00000000 A   T    2002  2002
1VETS     (VETS2025) (12:59) (15MAR04) Ordinary Symbol and Literal Cross Reference                                          Page  219
 IGC07903      1 00000000 00000000 A   T    2147  2147
 IGC124        1 00000000 00000000 A   T    2163  2163
 IGFPMAIN      1 00000000 00000000 A   T   10036 10036
 IGFRVT        1 00000000 00000000 A   T    1612  1612
 IGVCPBDB      1 00000000 00000000 A   T    2278  2278
 IGVCPDLB      1 00000000 00000000 A   T    2280  2280
 IGVCPFRE      1 00000000 00000000 A   T    2270  2270
 IGVCPGTC      1 00000000 00000000 A   T    2268  2268
 IGVCPGUB      1 00000000 00000000 A   T    2262  2262
 IGVCPGUP      1 00000000 00000000 A   T    2265  2265
 IGVCPGUS      1 00000000 00000000 A   T    2288  2288
 IGVGCAS       1 00000000 00000000 A   T    1916  1916
 IGVGFAS       1 00000000 00000000 A   T    1920  1920
 IGVGRRGN      1 00000000 00000000 A   T    2292  2292
 IGVGVRGN      1 00000000 00000000 A   T    2294  2294
 IGVQSPET      1 00000000 00000000 A   T    1918  1918
 IGVSLIST      1 00000000 00000000 A   T    2272  2272
 IGVSLOC       1 00000000 00000000 A   T    2276  2276
 IGVSREGN      1 00000000 00000000 A   T    2274  2274
 IGVSTSKI      1 00000000 00000000 A   T    2259  2259
 IHAMPL        1 00000000 00000000 A   T   10114 10114
 IHB15641      1 00005554 00000001     U   39319 39272B
 IHB16021      1 000056EE 00000001     U   39976 39940B
 IHB19028      1 00006768 00000001     U   45153 45073B
 IHB19161      1 00006868 00000001     U   45441 45399B
 IHB19747F
               1 00006B38 00000001     B   46433 46439
 IHB22668      1 00007AA8 00000001     U   51589 51508B
 IHB3558       1 00000D52 00000001     U   17454 17417B
 IHB3742       1 00000EC6 00000001     U   17832 17802B
 IHB4250       1 00001346 00000001     U   18807 18769B
 IHB5192       1 000019BC 00000001     U   20600 20519B
 IHB5291       1 00001A80 00000001     U   20797 20768B
 IHB6529       1 00002136 00000001     U   23036 23008B
 IHB6834       1 000023DC 00000001     U   23626 23587B
 IHB9823       1 0000332E 00000001     U   28728 28695B
 ILRJTERM      1 00000000 00000000 A   T    2201  2201
 INCR4         2 00004732 00000001     H   35422 31535B 31567B 31612B 31667B 31717B 32406B 32604B 32762B 32883B 32928B
                                                 33080B 33231B 33260B 33350B 33384B 33508B 33648B 33693B 33844B 34200B
                                                 34229B 34280B 34329B 34546B 34575B 35365B
 INVALID       1 00000000 00000000 A   T    3590  3590
 IOSLOCK       1 00000000 00000000 A   T   10339 10339
 IOSVDEVN      1 00000000 00000000 A   T    2218  2218
 IOSVHID       1 00000000 00000000 A   T    2228  2228
 IOSVSUCB      1 00000000 00000000 A   T    2231  2231
 IRARMCNS      1 00000000 00000000 A   T    1972  1972
 IRARMEPS      1 00000000 00000000 A   T    2190  2190
 IRARMI00      1 00000000 00000000 A   T    1929  1929
 ISNBRNCH      1 00000000 00000000 A   T    2087  2087
 ISTBLENT      1 00000000 FFFFFFD5     J   38884 39112U
 ISTDBIND      1 00000000 FFFFFFE3     J    8894 22214U 52404U 52489
 ISTDNIB       1 00000000 FFFFFFE2     J    9595  9596   9892  17301U 22949U
 ISTDPROC      4 00000024 FFFFFFE2     C    9755  9756   9804
 ISTDVCHR      8 0000001C FFFFFFE2     C    9626  9627
 JCB         208 00000000 FFFFFFE5     J    7993 46068U
 JCBAFL        1 00000062 FFFFFFE5     R    7838  7842   7847   7852   7857   7862   7867   7872   7877
 JCBBFL        1 00000063 FFFFFFE5     R    7883  7887   7892   7897   7902   7907   7912   7917
 JCBBILLX      8 00000088 FFFFFFE5     D    7968  7976   7976
 JCBRSCF1      1 00000064 FFFFFFE5     R    7923  7927   7932   7937
1VETS     (VETS2025) (12:59) (15MAR04) Ordinary Symbol and Literal Cross Reference                                          Page  220
 JCBSEQ        2 00000048 FFFFFFE5     H    7754 46074
 JCBSFLG1      1 00000065 FFFFFFE5     R    7943  7947   7952
 JCBWFL        1 00000060 FFFFFFE5     R    7767  7771   7776   7781   7786   7791   7796   7801   7806   7834
 JCBWWFL       1 00000061 FFFFFFE5     R    7812  7816   7821   7826   7831
 LASTAACB      4 00000988 00000001     A   13625 14215M 48341
 LASTCOL       1 0000000E FFFFFFD4     X   41491 43135  43154M
 LASTCS        1 0000000F FFFFFFD4     X   41492 42371  42378M 43720  43753M
 LASTFACP    128 0000000D FFFFFFD8        31306 31851M 31934M 32020M 32088  32150M 32197M 34632M 34690M 34808  34862M
                                                 34884M 34968M 34990M 35076  35128M 35150M
 LASTHI        1 0000000D FFFFFFD4     X   41490 41666M 42048M 42746  42779M
 LOGON         2 000009A2 00000001     H   16641 16529B
 LOGONWA      20 00000000 FFFFFFDB     J   16624 16654  16686U 16698M 16698  18236  18238  18239
 LOSTERM       2 00007BAE 00000001     H   52110 51925  52119U
 LOWTBL        1 00000000 00000000 A   T    3598  3598
 LSCANND       4 00000008 FFFFFFD9     F   28899 29260M 29260  29339  29340M 29363  29364M 29379  29545  29546M 29593
                                                 29654  29655M 29684  29714M 29714
 LSR           8 00000008 00000001 A   #    1038 14411  14492M 14522  14604M 15689  15959M 16001  16153M 16651  18236M
                                                 19599  19663M 21143  21465M 21508  21819M 21859  21978M 22039  23730M
                                                 23832  23977M 24017  24130M 24200  27831M 27960  28282M 28332  28385M
                                                 28428  28857M 28971  31179M 31363  35540M 35658  35772M 35817  35929M
                                                 35978  36185M 36290  37940M 37995  38819M 38927  39389M 39427  40278M
                                                 40318  40414M 40455  40557M 40694  41430M 41528  44293M 44322  44481M
                                                 44595  44734M 44784  44876M 44908  45227M 45266  45732M 45760  46098M
                                                 46138  46633M 46704  47406M 47473  48137M 48177  48320M 48387  48777M
                                                 48822  50576M 50618  51055M 51098  51665M 51709  51849M
 MAINLINA      2 00001770 00000001     H   19757 20086B
 MAINLINE      2 00001770 00000001     H   19744 16568  19686  19752U 20434B 21047B 21096B
 MAINLIN1      2 00001832 00000001     H   20093 19689
 MAINLIN3      2 00001B5E 00000001     H   21046 20928  20931  20935
 MFDATA       64 00000018 FFFFFFD9        28914 29400M 29814  30559M 30635M 30947M 31122
 MILERR        1 00000000 00000000 A   T    3589  3589
 MODEN         8 00000004 FFFFFFDB     C   16615 17098M 17106M 17107  17736
 MODENL        4 00000000 FFFFFFDB     F   16614 17080M 17080  17086M 17712M 17712
 MODIFYF       2 0000383C 00000001     H   30355 30342B
 MODTAB        4 00002534 00000001     F   22002 22429  22682  22684
 MOVEDATA      2 00003504 00000001     H   29378 29344B
 MOVENULL      2 000039A2 00000001     H   30940 29791B 29821B 31129B
 NBLTBL        1 00000000 00000000 A   T    3602  3602
 NEGRESP       6 000079B4 00000001     I   51331 51289B
 NEXTCH        4 00005028 00000001     I   37863 36855B
 NEXTNAME      2 000004EC 00000001     H   15680 14123B 14363B
 NIBCID        4 00000004 FFFFFFE2     C    9615 17762M 17762  22996M 22996  23575M 23575
 NIBEND        1 00000040 FFFFFFE2     U    9874  9876
 NIBFLGS       1 00000028 FFFFFFE2     B    9832  9833
 NIBLMODE      8 00000030 FFFFFFE2     C    9862 17719M 17736M
 NIBLNIB       1 00000040 FFFFFFE2 A   U    9876 17287  22081
 NIBMODE       8 00000014 FFFFFFE2     C    9619  9620
 NIBRPRM       1 00000000 FFFFFFE1     J    9877  9882
 NIBRSQPP      4 00000008 FFFFFFE1     A    9885  9886
 NIBST         1 00000000 FFFFFFE2     U    9597  9876
 NIBSYM        8 0000000C FFFFFFE2     C    9617 17701M 22983M 23563M
 NIBUSER       4 00000008 FFFFFFE2     C    9616 22984M
 NOACTION      1 00000000 00000000 A   T    3592  3592
 NPARMS        4 00000014 FFFFFFD9     F   28902 30257M
 NPARTBL       1 00000000 00000000 A   T    3596  3596
 NSCAN         1 00000000 00000003     T   16547 16547  18278  19672
 NSCNCB      176 00000000 FFFFFFE9     J    3861  3987  13788  13789  13790  13793M 13794M 13795M 13805M 13806M 13807M
                                                 14706  14707  14708  14711M 14712M 14713M 14723M 14724M 14725M 16733
                                                 16734  16735  16738M 16739M 16740M 16750M 16751M 16752M 16917  16918
1VETS     (VETS2025) (12:59) (15MAR04) Ordinary Symbol and Literal Cross Reference                                          Page  221
                                                 16919  16922M 16923M 16924M 16934M 16935M 16936M 17002  17003  17004
                                                 17007M 17008M 17009M 17019M 17020M 17021M 18592  18593  18594  18597M
                                                 18598M 18599M 18609M 18610M 18611M
 NSCNFLGS      1 00000008 FFFFFFE9     R    3798  3802   3807
 NSCNKWS       4 00000028 FFFFFFE9     A    3847 13788  13795M 13805M 14706  14713M 14723M 16733  16740M 16750M 16917
                                                 16924M 16934M 17002  17009M 17019M 18592  18599M 18609M
 NSCNSKIP      4 00000024 FFFFFFE9     A    3846 13789  13793M 13806M 14707  14711M 14724M 16734  16738M 16751M 16918
                                                 16922M 16935M 17003  17007M 17020M 18593  18597M 18610M
 NSCNSTOP      4 00000020 FFFFFFE9     A    3845 13790  13794M 13807M 14708  14712M 14725M 16735  16739M 16752M 16919
                                                 16923M 16936M 17004  17008M 17021M 18594  18598M 18611M
 NSCNTYPE      1 00000018 FFFFFFE9     R    3816  3820   3825   3830   3835   3840
 NSEXIT        2 00007D44 00000001     H   53138 51935  53147U
 OPNSACB       2 000021BC 00000001     H   23176 23173
 OPNSEC        4 000020D0 00000001     I   22939 23168
 OPNSENV       2 000021C2 00000001     H   23183 23169  23170
 OPNSERR       2 00002220 00000001     H   23288 23167  23171  23172
 OPNSNORM      2 0000228A 00000001     H   23336 23166
 OPNSTABL      4 0000219C 00000001     A   23166 23164
 OPTLOCK       1 00000000 00000000 A   T   10320 10320
 PAGETCHK      1 00000000 0000000B     T   16567 16567
 PARMS         2 0000001C FFFFFFD9     H   28935 30172M 30172  30216M 30356  30379  30683  30706  30759
 PATHBRKN      2 000057E8 00000001     H   40309 18290  19676  23761  40592  46658
 POSTBIND     16 00000009 FFFFFFDD        13385 19849  19862M 28045  28045  28046  52504M
 POSTLOST      4 00000009 FFFFFFDD        13395 19769  19782M 52027M 52177M 53234M 53279M 53324M
 POSTRCVC     32 00000009 FFFFFFDD        13380 19969  19982M 49835M 49924M 50234M
 POSTREAS      1 00000009 FFFFFFDD     R   13366 13370  13375  13380  13385  13390  13395  13400
 POSTSDT     128 00000009 FFFFFFDD        13370 19889  19902M 52939M
 POSTSENC     64 00000009 FFFFFFDD        13375 19929  19942M 50947M
 POSTSHUT      2 00000009 FFFFFFDD        13400 20009  20681M 51466M
 POSTUBIR      8 00000009 FFFFFFDD        13390 19809  19822M 28045  28045  52671M
 PRCESSCR      2 00003CCC 00000001     H   31353 27844  53720
 PRCSFLA       1 0000000D FFFFFFD8     R   31302 31306  31311  31316
 PRCSFLEN      4 00000004 FFFFFFD8     F   31295 31412M 31610M 31761M 35494  35496M
 PRCSSCRF      4 00000000 FFFFFFD8     F   31294 34459M 34466
 PRCSTR        2 00003D48 00000001     H   31556 31425B 32632B 35403B
 PRCSWA       14 00000000 FFFFFFD8     J   31325 31366  31395U 31406M 31406  35540  35542  35543
 PRIVATE      64 00000008 FFFFFFD4        41468 41719M 41763M 41792M 42094M 42138M 42233M 43084
 PRIVPRE       1 0000001A FFFFFFD9     X   28933 29270M 30058M 30086M 30155M 30285
 PROCBERR      2 00002400 00000001     H   23651 23229B 23334B
 PROCBIND      2 00001DAE 00000001     H   22030 23740
 PROCLOST      2 000025C8 00000001     H   24008 19683  23738
 PROCRCVC      2 00001B7C 00000001     H   21134 23743
 PROCSDT       2 00001D62 00000001     H   21850 23741
 PROCSENC      2 00001C70 00000001     H   21499 23742
 PROCUBIR      2 0000254C 00000001     H   23823 23739
 PROPROC       4 00000024 FFFFFFE2     B    9757  9758
 PROPROCS      4 00000024 FFFFFFE2     C    9805  9806
 PROSETMS      3 00000025 FFFFFFE2     C    9808  9809   9814   9821
 PROTECT      32 00000018 FFFFFFD9        28919 29414  29414  29415  30458  30458  30459  30459  30461M 30537M 30613M
                                                 30959  30959  30960
 PSA           1 00000000 FFFFFFE0     J    9996  9994U 10942  11172  53598  53620
 PSADTSAV      8 000006C0 FFFFFFE0     D   10742 10745  10746
 PSAEMS2S      4 0000026C FFFFFFE0     F   10275 10279
 PSAGSAV      64 000008A8 FFFFFFE0     X   10827 10829  10830
 PSAIPCIN      4 00000268 FFFFFFE0     F   10268 10272
 PSAJSTSA     64 00000998 FFFFFFE0     X   10876 10880  10881
 PSALITA       4 000002FC FFFFFFE0     V   10395 53598  53620
 PSARTM1R      4 000003FC FFFFFFE0     F   10502 10507
 PSARV7E8      4 000007E8 FFFFFFE0     X   10758 10759  10760
1VETS     (VETS2025) (12:59) (15MAR04) Ordinary Symbol and Literal Cross Reference                                          Page  222
 PSASLSA      72 00000950 FFFFFFE0     X   10868 10874  10875
 PSASTOSM      4 00000270 FFFFFFE0     F   10282 10291
 PSATNEW       4 00000218 FFFFFFE0     A   10152 10155
 PSCREXIT      4 0000472A 00000001     I   35416 31503B 31550B 31582B 31627B 31660B 31682B 31710B 31732B 31821B 32245B
                                                 32391B 32421B 32644B 32691B 32777B 32898B 32943B 33095B 33117B 33246B
                                                 33275B 33305B 33399B 33523B 33545B 33642B 33663B 33708B 33859B 33881B
                                                 34215B 34244B 34274B 34295B 34344B 34561B 34590B 34621B
 PTDONE        2 0000440C 00000001     H   34169 34111B
 PTEN         32 0000000D FFFFFFD8        31316 32601M 32837M 33198M 33317M 33569M 33962M 34001M 34070  34513M 35357M
 RAR          14 0000000E 00000001 A   #    1116  3527   3528M  3529B  3531M  3532B  3552M  3553B  3557M  3558B  3560M
                                                  3561B  3563M  3564B  3566M  3567B  3569M  3570M  3570B  3576  13694M
                                                 13695M 13695B 13798M 13799M 13799B 13812M 13813M 13813B 13993M 13994M
                                                 13994B 14123M 14142M 14170M 14171M 14171B 14363M 14408  14494M 14497B
                                                 14519  14606M 14609B 14672M 14673M 14673B 14716M 14717M 14717B 14730M
                                                 14731M 14731B 14799M 14800M 14800B 14817M 14818M 14818B 14851M 14852M
                                                 14852B 14885M 14886M 14886B 14923M 14924M 14924B 14957M 14958M 14958B
                                                 15002M 15003M 15003B 15035M 15036M 15036B 15104M 15105M 15105B 15125M
                                                 15126M 15126B 15159M 15160M 15160B 15193M 15194M 15194B 15290M 15291M
                                                 15291B 15311M 15312M 15312B 15363M 15364M 15364B 15407M 15408M 15408B
                                                 15436M 15437M 15437B 15492M 15493M 15493B 15521M 15522M 15522B 15616M
                                                 15617M 15617B 15686  15961M 15964B 15998  16155M 16158B 16213M 16214M
                                                 16214B 16243M 16244M 16244B 16268M 16269M 16269B 16334M 16335M 16335B
                                                 16364M 16365M 16365B 16437M 16438M 16438B 16482M 16483M 16483B 16525M
                                                 16526M 16526B 16529M 16648  16702M 16703M 16703B 16743M 16744M 16744B
                                                 16757M 16758M 16758B 16927M 16928M 16928B 16941M 16942M 16942B 17012M
                                                 17013M 17013B 17026M 17027M 17027B 17211M 17212M 17212B 17291M 17292M
                                                 17292B 17466M 17467M 17467B 17598M 17599M 17599B 17622M 17623M 17623B
                                                 17675M 17676M 17676B 17686M 17687M 17687B 17844M 17845M 17845B 17976M
                                                 17977M 17977B 18000M 18001M 18001B 18107M 18108M 18108B 18150M 18151M
                                                 18151B 18198M 18199M 18199B 18202M 18203M 18203B 18238M 18241B 18397M
                                                 18398M 18398B 18602M 18603M 18603B 18616M 18617M 18617B 18819M 18820M
                                                 18820B 18951M 18952M 18952B 18975M 18976M 18976B 19015M 19016M 19016B
                                                 19026M 19027M 19027B 19056M 19057M 19057B 19085M 19086M 19086B 19176M
                                                 19177M 19177B 19230M 19231M 19231B 19253M 19254M 19254B 19324M 19325M
                                                 19325B 19378M 19379M 19379B 19430M 19431M 19431B 19457M 19458M 19458B
                                                 19534M 19535M 19535B 19566M 19567M 19567B 19596  19642M 19643M 19643B
                                                 19665M 19668B 19785M 19786M 19786B 19825M 19826M 19826B 19865M 19866M
                                                 19866B 19905M 19906M 19906B 19945M 19946M 19946B 19985M 19986M 19986B
                                                 20039M 20040M 20040B 20145M 20146M 20146B 20170M 20171M 20171B 20188M
                                                 20189M 20189B 20206M 20207M 20207B 20247M 20248M 20248B 20280M 20281M
                                                 20281B 20313M 20314M 20314B 20346M 20347M 20347B 20379M 20380M 20380B
                                                 20412M 20413M 20413B 20416M 20417M 20417B 20809M 20810M 20810B 20958M
                                                 20959M 20959B 21024M 21025M 21025B 21035M 21036M 21036B 21090M 21091M
                                                 21091B 21140  21251M 21252M 21252B 21286M 21287M 21287B 21414M 21415M
                                                 21415B 21424M 21425M 21425B 21467M 21470B 21505  21552M 21553M 21553B
                                                 21631M 21632M 21632B 21681M 21682M 21682B 21767M 21768M 21768B 21777M
                                                 21778M 21778B 21821M 21824B 21856  21957M 21958M 21958B 21980M 21983B
                                                 22036  22085M 22086M 22086B 22870M 22871M 22871B 22875M 22876M 22876B
                                                 22880M 22881M 22881B 22885M 22886M 22886B 22901M 22902M 22902B 22908M
                                                 22909M 22909B 22915M 22916M 22916B 22922M 22923M 22923B 23048M 23049M
                                                 23049B 23179M 23180M 23180B 23203M 23204M 23204B 23281M 23282M 23282B
                                                 23292M 23293M 23293B 23341M 23342M 23342B 23559M 23560M 23560B 23638M
                                                 23639M 23639B 23643M 23644M 23644B 23688M 23689M 23689B 23693M 23694M
                                                 23694B 23732M 23735B 23829  23914M 23915M 23915B 23932M 23933M 23933B
                                                 23950M 23951M 23951B 23955M 23956M 23956B 23979M 23982B 24014  24067M
                                                 24068M 24068B 24085M 24086M 24086B 24103M 24104M 24104B 24108M 24109M
                                                 24109B 24132M 24135B 24197  24257M 24258M 24258B 24577M 24578M 24578B
                                                 24610M 24611M 24611B 24636M 24637M 24637B 25132M 25133M 25133B 26118M
                                                 26119M 26119B 26945M 26946M 26946B 27006M 27007M 27007B 27032M 27033M
1VETS     (VETS2025) (12:59) (15MAR04) Ordinary Symbol and Literal Cross Reference                                          Page  223
                                                 27033B 27240M 27241M 27241B 27302M 27303M 27303B 27378M 27379M 27379B
                                                 27382M 27383M 27383B 27528M 27529M 27529B 27554M 27555M 27555B 27702M
                                                 27703M 27703B 27731M 27732M 27732B 27750M 27751M 27751B 27833M 27836B
                                                 27957  28001M 28002M 28002B 28095M 28096M 28096B 28116M 28117M 28117B
                                                 28203M 28204M 28204B 28225M 28226M 28226B 28266M 28267M 28267B 28284M
                                                 28287B 28329  28368M 28369M 28369B 28387M 28390B 28425  28460M 28461M
                                                 28461B 28505M 28506M 28506B 28535M 28536M 28536B 28552M 28553M 28553B
                                                 28782M 28783M 28783B 28804M 28805M 28805B 28859M 28862B 28968  29105M
                                                 29106M 29106B 29179M 29180M 29180B 29208M 29209M 29209B 30214M 30215M
                                                 30215B 30465M 30466M 30466B 30481M 30482M 30482B 30566M 30567M 30567B
                                                 30639M 30640M 30640B 30664M 30665M 30665B 31154M 31155M 31155B 31181M
                                                 31184B 31360  31962M 31963M 31963B 32056M 32057M 32057B 32097M 32098M
                                                 32098B 32354M 32355M 32355B 32561M 32562M 32562B 33283M 33284M 33284B
                                                 34042M 34043M 34043B 34082M 34083M 34083B 34252M 34253M 34253B 34464M
                                                 34465M 34465B 34478M 34479M 34479B 34598M 34599M 34599B 34636M 34637M
                                                 34637B 34653M 34654M 34654B 34776M 34777M 34777B 34817M 34818M 34818B
                                                 35023M 35024M 35024B 35085M 35086M 35086B 35542M 35545B 35655  35774M
                                                 35777B 35814  35931M 35934B 35975  36187M 36190B 36287  36339M 36340M
                                                 36340B 36651M 36652M 36652B 36688M 36689M 36689B 36723M 36724M 36724B
                                                 36925M 36926M 36926B 36966M 36967M 36967B 37026M 37027M 37027B 37067M
                                                 37068M 37068B 37128M 37129M 37129B 37168M 37169M 37169B 37242M 37243M
                                                 37243B 37282M 37283M 37283B 37356M 37357M 37357B 37396M 37397M 37397B
                                                 37470M 37471M 37471B 37510M 37511M 37511B 37582M 37583M 37583B 37603M
                                                 37604M 37604B 37667M 37668M 37668B 37712M 37713M 37713B 37741M 37742M
                                                 37742B 37782M 37783M 37783B 37843M 37844M 37844B 37908M 37942M 37945B
                                                 37992  38026M 38027M 38027B 38140M 38141M 38141B 38199M 38200M 38200B
                                                 38295M 38296M 38296B 38387M 38388M 38388B 38460M 38461M 38461B 38533M
                                                 38534M 38534B 38640M 38641M 38641B 38719M 38720M 38720B 38799M 38821M
                                                 38824B 38924  38955M 39100M 39101M 39101B 39391M 39394B 39424  39988M
                                                 39989M 39989B 40137M 40138M 40138B 40203M 40204M 40204B 40214M 40215M
                                                 40215B 40280M 40283B 40315  40368M 40369M 40369B 40386M 40387M 40387B
                                                 40391M 40392M 40392B 40416M 40419B 40452  40511M 40512M 40512B 40529M
                                                 40530M 40530B 40534M 40535M 40535B 40559M 40562B 40691  41079M 41080M
                                                 41080B 41112M 41113M 41113B 41156M 41157M 41157B 41199M 41200M 41200B
                                                 41222M 41223M 41223B 41240M 41241M 41241B 41263M 41264M 41264B 41281M
                                                 41282M 41282B 41304M 41305M 41305B 41322M 41323M 41323B 41350M 41351M
                                                 41351B 41378M 41379M 41379B 41432M 41435B 41525  41595M 41596M 41596B
                                                 41623M 41624M 41624B 41628M 41629M 41629B 41858M 41933M 41934M 41934B
                                                 41990M 41991M 41991B 42027M 42028M 42028B 42046M 42047M 42047B 42181M
                                                 42182M 42182B 42199M 42200M 42200B 42276M 42277M 42277B 42294M 42295M
                                                 42295B 42414M 42415M 42415B 42445M 42446M 42446B 42484M 42485M 42485B
                                                 42542M 42543M 42543B 42576M 42577M 42577B 42603M 42604M 42604B 42646M
                                                 42647M 42647B 42695M 42696M 42696B 42777M 42778M 42778B 42843M 42844M
                                                 42844B 42861M 42862M 42862B 42905M 42906M 42906B 42923M 42924M 42924B
                                                 42970M 42971M 42971B 43019M 43020M 43020B 43068M 43069M 43069B 43107M
                                                 43108M 43108B 43204M 43205M 43205B 43232M 43233M 43233B 43272M 43273M
                                                 43273B 43310M 43311M 43311B 43359M 43360M 43360B 43408M 43409M 43409B
                                                 43457M 43458M 43458B 43506M 43507M 43507B 43555M 43556M 43556B 43604M
                                                 43605M 43605B 43653M 43654M 43654B 43697M 43698M 43698B 43751M 43752M
                                                 43752B 43823M 43824M 43824B 43920M 43921M 43921B 43951M 43952M 43952B
                                                 44006M 44007M 44007B 44089M 44090M 44090B 44121M 44122M 44122B 44165M
                                                 44166M 44166B 44180M 44203M 44204M 44204B 44231M 44232M 44232B 44295M
                                                 44298B 44319  44385M 44386M 44386B 44407M 44408M 44408B 44425M 44426M
                                                 44426B 44447M 44448M 44448B 44465M 44466M 44466B 44483M 44486B 44592
                                                 44736M 44739B 44781  44878M 44881B 44905  45011M 45012M 45012B 45229M
                                                 45232B 45263  45453M 45454M 45454B 45602M 45603M 45603B 45668M 45669M
                                                 45669B 45679M 45680M 45680B 45734M 45737B 45757  45819M 45820M 45820B
                                                 46100M 46103B 46135  46221M 46222M 46222B 46248M 46249M 46249B 46327M
                                                 46328M 46328B 46398M 46399M 46399B 46470M 46471M 46471B 46501M 46502M
1VETS     (VETS2025) (12:59) (15MAR04) Ordinary Symbol and Literal Cross Reference                                          Page  224
                                                 46502B 46532M 46533M 46533B 46563M 46564M 46564B 46594M 46595M 46595B
                                                 46611M 46612M 46612B 46635M 46638B 46701  46843M 46844M 46844B 46998M
                                                 46999M 46999B 47120M 47121M 47121B 47247M 47248M 47248B 47359M 47360M
                                                 47360B 47408M 47411B 47470  48139M 48142B 48174  48279M 48280M 48280B
                                                 48322M 48325B 48384  48625M 48643M 48680M 48714M 48779M 48782B 48819
                                                 49601M 49602M 49602B 49867M 49868M 49868B 50008M 50009M 50009B 50468M
                                                 50469M 50469B 50538M 50539M 50539B 50578M 50581B 50615  51057M 51060B
                                                 51095  51416M 51417M 51417B 51667M 51670B 51706  51805M 51806M 51806B
                                                 51851M 51854B
 RCVCACOL      1 0000000B FFFFFFD8     X   31298 33470  34440  35275
 RCVCACS       1 0000000C FFFFFFD8     X   31299 33502  34435  35318
 RCVCAHI       1 0000000A FFFFFFD8     X   31297 33382M 33382  33438  34441  35272
 RCVCRTN       2 00001C5C 00000001     H   21443 21308B 21321B 21334B
 RCVPAIRC      2 00000008 FFFFFFD8     H   31296 32910M 33156  33158M 33675M 33920  33922M
 READCA        2 00003906 00000001     H   30682 30323B
 READSEND      2 0000324A 00000001     H   28419 27894
 READSENX      2 0000338C 00000001     H   28837 28585B 28757B
 REFUBIND      2 00002350 00000001     H   23505 22272B
 REPEATOA      2 00004956 00000001     H   35969 35564
 REQSACB       2 00000F4C 00000001     H   17973 17970
 REQSENV       2 00000F52 00000001     H   17980 17967
 REQSERR       2 00000FF4 00000001     H   18146 17964  17966  17969  18113B 18143B
 REQSESS       6 00000E2C 00000001     I   17701 17965
 REQSLOGC      2 00000FC4 00000001     H   18116 17968
 REQSNORM      4 00001038 00000001     I   18209 17963
 REQSTABL      4 00000F2C 00000001     A   17963 17961
 RESPENV       2 00005774 00000001     H   40117 40111
 RESPERR       2 000057A8 00000001     H   40210 40108  40113
 RESPTBLE      4 00005754 00000001     A   40107 40105
 RESP1         4 000055D6 00000001     I   39504 40109
 RMBRANCH      1 00000000 00000000 A   T    2097  2097
 RPL         128 00000000 FFFFFFDF     X   13127 17259U 18505U 20477U 20716U 22977U 28641U 38991U 39538U 44970U 45348U
                                                 46053U 46855U 46929  47063  47187  47308  47393U 48057U 48119U 48307U
                                                 48443U 48535U 48564U 48752U 48866U 50558U 50662U 51037U 51142U 51647U
                                                 51753U 51831U 52323U 52753U 52819U 52875U 53199U 53476U 53540U 53557U
 RPLACTIV      1 00000045 FFFFFFDF     X   11651 18536  20492  20731  28656  39006  39553  44984  45362  48068M 48076M
                                                 48084M 48092M
 RPLALT        8 00000010 FFFFFFDF        13015 49394
 RPLAREA       4 00000020 FFFFFFDF     A   11429 17784M 39116M 39192M 44990  48871  49699M 49699  50173M 50173  50667
                                                 52326  53202
 RPLARG        4 00000024 FFFFFFDF     A   11431 23337  23381M 23410M 23439M 23468M
 RPLBB         1 00000080 FFFFFFDF A   U   11815 13106
 RPLBBI      128 00000010 FFFFFFDF        13108 39222M 39245M 49308  49567  49630
 RPLBID        1 00000080 FFFFFFDF A   U   11907 39912  49132  50352
 RPLBUFFL      1 00000002 FFFFFFDF A   U   12001 39058  39180
 RPLBUFL       4 00000034 FFFFFFDF     A   11521 44991  49211
 RPLCCHAR      4 00000014 FFFFFFDF     A   11422 11425
 RPLCDI       32 00000010 FFFFFFDF        13003 49364
 RPLCHN        1 00000012 FFFFFFDF     X   11837 13048  13060  13072  13084  13096
 RPLCLE       32 00000012 FFFFFFDF        13084 49269  49269  49270
 RPLCLEAR      1 00000040 FFFFFFDF A   U   11918 53016
 RPLCMD        1 00000020 FFFFFFDF A   U   11817 13001
 RPLCNCEL      1 00000040 FFFFFFDF A   U   11895 39840  49060  50050
 RPLCNTDC      1 00000016 FFFFFFDF     X   11906 39878M 39914M 49098  49134  50308  50354  51368  52338  52540
 RPLCNTDF      1 00000015 FFFFFFDF     X   11892 39806M 39842M 49062  49508  50052
 RPLCNTRL      3 00000015 FFFFFFDF     X   11890 39589M 39589
 RPLCNTSC      1 00000017 FFFFFFDF     X   11916 51450  52909  53018  53050
 RPLCOE       16 00000012 FFFFFFDF        13096 49269  49269
 RPLCOND       1 00000010 FFFFFFDF A   U   11559 18566  18637  18736
1VETS     (VETS2025) (12:59) (15MAR04) Ordinary Symbol and Literal Cross Reference                                          Page  225
 RPLCSI        1 00000008 FFFFFFDF A   U   11821 13013
 RPLDACB       4 00000018 FFFFFFDF     A   11427 47370M 51757
 RPLDATA       1 00000080 FFFFFFDF A   U   11893 39804  49506
 RPLDFASY      1 00000002 FFFFFFDF A   U   11834 51350
 RPLDR2        1 00000014 FFFFFFDF        12979 39581  39581  39583  39583  39779M 49447
 RPLEB         1 00000040 FFFFFFDF A   U   11816 13118
 RPLEBI       64 00000010 FFFFFFDF        13120 49334
 RPLECB        4 00000008 FFFFFFDF     A   11332 11808
 RPLERI        4 00000014 FFFFFFDF        12991 39582  39582  39583  39583  39612M 49479  51325
 RPLEX         1 00000004 FFFFFFDF A   U   11875 12989
 RPLEXTDS      1 00000044 FFFFFFDF     X   11636 12065
 RPLFDB2       1 0000000E FFFFFFDF     X   11390 17553  17931  18906  20896  23135  40075  45540  48973  50768  51232
 RPLFIRST      1 00000080 FFFFFFDF A   U   11839 13037  13058
 RPLFMHDR      1 00000001 FFFFFFDF A   U   11787 13025
 RPLKEYLE      2 00000010 FFFFFFDF     H   11416 11813
 RPLLAST       1 00000020 FFFFFFDF A   U   11841 13043  13082
 RPLLMPEO      1 00000001 FFFFFFDF A   U   12009 39065  39188
 RPLLUS        1 00000020 FFFFFFDF A   U   11910 39876  49096  50306
 RPLMIDLE      1 00000040 FFFFFFDF A   U   11840 13040  13070
 RPLNCOND      1 00000008 FFFFFFDF A   U   11562 18572  18713
 RPLNDR1       2 00000014 FFFFFFDF        12967 39581  39581  39582  39582  39584M 39753M 49421
 RPLNFME       1 00000002 FFFFFFDF A   U   11880 12965
 RPLNFSYN      1 00000004 FFFFFFDF A   U   11831 48615
 RPLONLY       1 00000010 FFFFFFDF A   U   11842 13046  13094
 RPLOPTC2      4 00000038 FFFFFFDF     X   11522 11626
 RPLOPT10      1 00000061 FFFFFFDF     X   11732 18580M 18678M 19076
 RPLOPT12      1 00000063 FFFFFFDF     X   11767 13027
 RPLOPT3       1 0000002A FFFFFFDF     B   11464 11477
 RPLOPT4       1 0000002B FFFFFFDF     B   11490 11933
 RPLOPT5       1 00000038 FFFFFFDF     X   11523 11985
 RPLOPT6       1 00000039 FFFFFFDF     X   11551 11996  18568M 18574M 18639M 18715M 18738M 39060M 39182M
 RPLOPT7       1 0000003A FFFFFFDF     X   11569 12005  39067M 39190M
 RPLOPT8       1 0000003B FFFFFFDF     X   11599 12011
 RPLRBAR       8 0000003C FFFFFFDF     C   11631 12019
 RPLRCVCD      1 00000023 FFFFFFDF A   U   11319 48599
 RPLREQ        1 00000002 FFFFFFDF     X   11276 48601  48672  48706  52757M
 RPLRH3        1 00000010 FFFFFFDF     X   11814 13003  13015  13108  13120
 RPLRLEN       4 00000030 FFFFFFDF     A   11520 17767M 17767  17785M 39096M 39195M 49210
 RPLRRESP      1 00000008 FFFFFFDF A   U   11829 51308
 RPLRRN        1 00000001 FFFFFFDF A   U   11885 12977
 RPLRSENS      4 00000058 FFFFFFDF     X   13124 17683  18147  19023  21032  23289  40211  45676  49050  50321  51331
 RPLRTNCD      1 0000000D FFFFFFDF     X   11343 17551  17929  18904  20894  23133  40073  45538  48971  50766  51230
 RPLSDT        1 00000080 FFFFFFDF A   U   11917 52907
 RPLSEQNO      2 00000042 FFFFFFDF     R   12063 39590M 48894  49051  49411
 RPLSHUTD      1 00000010 FFFFFFDF A   U   11922 51448
 RPLSIGDA      4 0000006C FFFFFFDF     X   11806 12951  51386
 RPLSIGNL      1 00000010 FFFFFFDF A   U   11911 51366
 RPLSNDCD      1 00000022 FFFFFFDF A   U   11318 48670
 RPLSRTYP      1 00000011 FFFFFFDF     X   11825 48617  51310  51352
 RPLSSEI       1 00000058 FFFFFFDF     X   11678 13124
 RPLSSENS      4 00000064 FFFFFFDF     X   13125 18560M 18560  39606M
 RPLSSEO       1 00000064 FFFFFFDF     X   11793 13125
 RPLSTAT       1 0000000C FFFFFFDF     X   11340 11341
 RPLSTRID      2 00000012 FFFFFFDF     H   11419 11420
 RPLSTSN       1 00000020 FFFFFFDF A   U   11920 53048
 RPLTBIND      1 00000008 FFFFFFDF A   U   11912 52336
 RPLTCBPT      4 0000001C FFFFFFDF     A   11428 11929
 RPLTUNBD      1 00000004 FFFFFFDF A   U   11913 52538
 RPLUNBND      1 00000004 FFFFFFDF A   U   11743 18578  18676  19074
1VETS     (VETS2025) (12:59) (15MAR04) Ordinary Symbol and Literal Cross Reference                                          Page  226
 RPLVTFL2      1 00000014 FFFFFFDF     X   11868 12967  12979  12991
 RPLWEND       4 00000088 FFFFFFDF     F   12956 13128  46865  47007  47129  47256
 RPLWNEXT      4 00000080 FFFFFFDF     A   12954 48472  52778M 52778  52825M 53491M 53491  53546M
 RPLWOFFS      4 00000080 FFFFFFDF A   U   12951 12952
 RPLWSTRT      4 00000080 FFFFFFDF     F   12953 13127  46865  46866M 46866  47007  47008M 47008  47129  47130M 47130
                                                 47256  47257M 47257
 RPLWVTWA      4 00000084 FFFFFFDF     A   12955 17261M 17263M 17265M 17267M 17269M 48568
 RPLWYL      136 00000000 FFFFFFDF     X   13128 46840  46995  47117  47244  47356  47369M 47369
 RSEND1        2 00003264 00000001     H   28456 28824B
 RSMLOCK       1 00000000 00000000 A   T   10332 10332
 RSNORM        1 0000000B FFFFFFDD        13420 27421M 27551M 32220M 32518M 32590M 39633M
 RSRETRYE      5 0000000B FFFFFFDD        13423 25554  30926M 36408
 RSRETRYR      6 0000000B FFFFFFDD        13426 25572M 27501  38795M
 RS3270        1 0000000B FFFFFFDD     X   13418 13420  13423  13426
 R0            0 00000000 FFFFFFFF A   #     699  3512   3581M 13683M 13701M 13729M 13784M 13784  13793  13794  13795
                                                 13822M 13822  13844  13908  14011  14120M 14190M 14361M 14361  14661M
                                                 14679M 14702M 14702  14711  14712  14713  14742M 14742  14788M 14806M
                                                 14840M 14874M 14912M 14946M 14991M 15024M 15093M 15114M 15148M 15182M
                                                 15279M 15279  15300M 15352M 15396M 15425M 15425  15481M 15510M 15510
                                                 15605M 15723  16202M 16220M 16232M 16257M 16323M 16341M 16353M 16426M
                                                 16444M 16471M 16489M 16516M 16729M 16729  16738  16739  16740  16767M
                                                 16767  16783  16913M 16913  16922  16923  16924  16951M 16951  16960
                                                 16998M 16998  17007  17008  17009  17036M 17036  17050  17288M 17380
                                                 17462M 17462  17523  17530  17691  17840M 17840  17901  17908  18155
                                                 18174M 18386M 18404M 18440M 18545  18588M 18588  18597  18598  18599
                                                 18626M 18626  18815M 18815  18876  18883  19031  19165M 19183M 19219M
                                                 19237M 19313M 19331M 19367M 19385M 19427M 19523M 19541M 19555M 20035M
                                                 20134M 20159M 20177M 20195M 20633  20740  20805M 20805  20866  20873
                                                 21040  21241  21429  21621  21782  21954M 21954  22082M 22165  22197
                                                 22376M 22377  22378M 22380M 22381  22386M 22387  22388M 22390M 22391
                                                 22898M 22905M 22912M 22919M 23044M 23044  23105  23112  23297  23322
                                                 23373  23402  23431  23460  23535M 23634M 23634  23664M 23903M 23921M
                                                 23939M 24056M 24074M 24092M 24249M 24249  24272  24280  24344  24483M
                                                 24494M 24494  24500  24545M 24553M 24554M 24607M 24625M 24625  25129M
                                                 25129  26010M 26011  26898M 26899M 26909  26916M 26921  26922  27003M
                                                 27021M 27021  27151M 27292  27692  28088M 28088  28528M 28528  28665
                                                 28766  29034  29102M 29151M 29170M 29477M 29498  29548  29550M 29551M
                                                 29552M 29560M 29561M 29562M 29564M 29565M 29566M 29568M 29569M 29579M
                                                 29579  29607  29657  29659M 29660M 29661M 29669M 29670M 29671M 29673M
                                                 29674M 29675M 29677M 29678M 30211M 30267M 30268M 30270M 30270  30271M
                                                 30272  30966M 30987  30997  30999M 31000M 31001M 31003M 31004M 31005M
                                                 31007M 31008M 31009M 31011M 31012M 31022M 31022  31040  31046  31048M
                                                 31049M 31050M 31058M 31059M 31060M 31062M 31063M 31064M 31066M 31067M
                                                 31422  31490M 31549M 31558M 31581M 31626M 31681M 31709M 31731M 31816M
                                                 31899M 31900M 31984M 31985M 32078M 32078  32131M 32132M 32234M 32351M
                                                 32351  32390M 32420M 32629M 32685M 32776M 32897M 32942M 32955M 33094M
                                                 33116M 33245M 33274M 33304M 33398M 33522M 33544M 33641M 33662M 33707M
                                                 33858M 33880M 34079M 34079  34214M 34243M 34273M 34294M 34304M 34343M
                                                 34353M 34369M 34369  34383  34390M 34411M 34435M 34440M 34441M 34459
                                                 34466M 34560M 34589M 34620M 34798M 34798  34948M 34949M 35066M 35066
                                                 35400M 35416  35416M 36073  36081M 36101  36109M 36129  36137M 36157
                                                 36336M 36648M 36648  36922M 36963M 37023M 37064M 37125M 37165M 37239M
                                                 37279M 37353M 37393M 37467M 37507M 37565M 37566M 37664M 37738M 37779M
                                                 37840M 38023M 38137M 38196M 38292M 38384M 38457M 38530M 38637M 38716M
                                                 39015  39097M 39360  39562  39984M 39984  40045  40052  40219  40357M
                                                 40375M 40500M 40518M 40765M 40765  40792M 40792  40793M 40808M 40808
                                                 40809M 40824M 40824  40825M 40840M 40840  40841M 41093M 41145M 41188M
                                                 41211M 41211  41229M 41252M 41252  41270M 41293M 41293  41311M 41347M
                                                 41367M 41367  41612M 41979M 42016M 42035M 42170M 42188M 42265M 42283M
1VETS     (VETS2025) (12:59) (15MAR04) Ordinary Symbol and Literal Cross Reference                                          Page  227
                                                 42403M 42434M 42473M 42531M 42565M 42592M 42635M 42684M 42832M 42850M
                                                 42894M 42912M 42959M 43008M 43057M 43096M 43221M 43261M 43299M 43348M
                                                 43397M 43446M 43495M 43544M 43593M 43642M 43686M 43812M 43909M 43940M
                                                 43995M 44078M 44154M 44200M 44220M 44220  44374M 44396M 44396  44414M
                                                 44436M 44436  44454M 44637  45008M 45194  45371  45449M 45449  45510
                                                 45517  45684  45807  45816M 45839M 45839  45840M 46074M 46083  46317
                                                 46388  46732M 46829  46840M 46986  46995M 47108  47117M 47235  47244M
                                                 47347  47356M 47666  48014  48098  48098M 48735  48943  48950  49598M
                                                 49998  50465M 50738  50745  51015  51202  51209  51413M 51630  51802M
                                                 53344M 53344  53362M 53362
 R1            1 00000001 FFFFFFFF A   #     712  3575M  3576M  3582M 13682M 13700M 13728M 13780M 13793  13794  13795
                                                 14031  14121M 14135M 14135  14143  14172  14189M 14200M 14201M 14201
                                                 14232  14233  14269  14660M 14678M 14698M 14711  14712  14713  14783M
                                                 14805M 14839M 14873M 14911M 14945M 14990M 15023M 15088M 15147M 15181M
                                                 15275M 15351M 15391M 15480M 15604M 15790M 15811M 15811  15828M 15892M
                                                 15928M 15928  15944  15944M 16031M 16031  16122M 16138  16138M 16201M
                                                 16219M 16231M 16250M 16322M 16340M 16352M 16425M 16443M 16470M 16488M
                                                 16515M 16725M 16738  16739  16740  16849M 16909M 16922  16923  16924
                                                 16994M 17007  17008  17009  17185M 17193  17222M 17222  17293  17463M
                                                 17497M 17530M 17551M 17564  17576M 17583  17841M 17875M 17908M 17929M
                                                 17942  17954M 17961  18175M 18385M 18403M 18439M 18584M 18597  18598
                                                 18599  18816M 18850M 18883M 18904M 18917  18929M 18936  19164M 19182M
                                                 19218M 19236M 19312M 19330M 19366M 19384M 19522M 19540M 19554M 20036M
                                                 20133M 20152M 20176M 20194M 20806M 20840M 20873M 20894M 20907  20919M
                                                 20926  21219M 21537M 21538M 21538  21599M 22087  22377M 22379M 22380
                                                 22387M 22389M 22390  22410M 22410  22411M 22423  22656M 22656  22669
                                                 22676M 22681M 22682M 22682  22683  22814M 22847  22861M 22861  22867M
                                                 22872M 22877M 22882M 22903  22910  22917  22924  23045M 23079M 23112M
                                                 23133M 23146  23158M 23164  23338M 23536M 23635M 23665M 23902M 23920M
                                                 23938M 24055M 24073M 24091M 24247M 24247  24271  24279  24323M 24482M
                                                 24544M 24552M 24602M 25963M 25963  26000  26011  26086M 26897M 26998M
                                                 27163M 27270M 27670M 29033  29124  29141  29146  29152M 29154  29205M
                                                 29205  29337M 29338  29341M 29341  29342M 29343  29433M 29435M 29437M
                                                 29468M 29497M 29498M 29512  29519M 29536  29541  29544  29549  29553M
                                                 29563M 29567M 29606M 29607M 29618  29625M 29642  29647  29650  29653
                                                 29658  29662M 29672M 29676M 29684M 29693M 29693  29705  29874M 29875M
                                                 29876  29879M 29880M 29881  29949M 29950M 29952M 29953M 29955M 29956M
                                                 29958M 29959M 30021M 30022M 30023  30026M 30027M 30028  30033M 30062M
                                                 30063M 30064  30067M 30068M 30069  30089M 30090M 30091  30095M 30096M
                                                 30097  30159M 30160M 30161  30252M 30252  30266M 30267  30269  30356M
                                                 30365M 30365  30373M 30378M 30401  30462M 30478M 30518  30563M 30563
                                                 30568  30594  30636M 30661M 30661  30674  30683M 30692M 30692  30700M
                                                 30705M 30728  30759M 30762  30774M 30789  30873M 30873  30885  30897
                                                 30909  30916  30986M 30987M 30998  31002M 31006M 31010M 31039M 31040M
                                                 31042  31047  31051M 31061M 31065M 31414  31500M 31500  31557M 31815M
                                                 31959M 31976  31997  32053M 32070M 32103  32233M 32433M 32434M 32457M
                                                 32458M 32487M 32488M 32523M 32524M 32541M 32541  32553  32577  32579M
                                                 32641M 32641  32686M 32791M 32797M 32799M 32801M 32870M 32876M 32878M
                                                 32880M 32908M 32910  32921M 32921  32959M 32959  32978M 33010M 33042M
                                                 33074M 33108M 33108  33140  33156M 33157M 33158  33256M 33258M 33280M
                                                 33296  33310  33361M 33361  33438M 33470M 33502M 33536M 33536  33601M
                                                 33673M 33675  33686M 33686  33723M 33723  33742M 33774M 33806M 33838M
                                                 33872M 33872  33904  33920M 33921M 33922  34039M 34056M 34089  34225M
                                                 34227M 34249M 34265  34453  34460  34461M 34467M 34480  34571M 34573M
                                                 34595M 34600  34633M 34650M 34671  34749M 34773M 34790M 34823  35020M
                                                 35037M 35051  35058M 35091  35269M 35271M 35274M 35277M 35412M 35412
                                                 35416  35701  35707  35748M 35755M 35757  35757M 35858M 35858  35864
                                                 35905M 35912M 35914  35914M 36014  36021M 36026  36067  36095  36123
                                                 36151  36166  36166M 36341  36685M 36691  36720M 36720  36733M 36733
1VETS     (VETS2025) (12:59) (15MAR04) Ordinary Symbol and Literal Cross Reference                                          Page  228
                                                 36743M 36743  36767M 36767  36772  36774  36899M 36900  36927  36928
                                                 36968  36969  37000M 37001  37028  37029  37041M 37042  37069  37070
                                                 37102M 37103  37130  37131  37170  37171  37186M 37187M 37188  37216M
                                                 37217  37244  37245  37284  37285  37300M 37301M 37302  37330M 37331
                                                 37358  37359  37398  37399  37414M 37415M 37416  37444M 37445  37472
                                                 37473  37512  37513  37528M 37529M 37530  37541M 37544  37578M 37579M
                                                 37584  37600M 37600  37605  37641M 37642  37669  37670  37682M 37683M
                                                 37695  37705M 37705  37714  37743  37744  37784  37785  37845  37846
                                                 38028  38116M 38129  38142  38143  38155M 38175M 38188  38201  38202
                                                 38214M 38271M 38284  38297  38298  38310M 38363M 38376  38389  38390
                                                 38402M 38436M 38449  38462  38463  38475M 38509M 38522  38535  38536
                                                 38548M 38551M 38579M 38582M 38616M 38629  38642  38643  38655M 38658M
                                                 38695M 38708  38721  38722  38734M 38781M 39102  39143M 39144  39191M
                                                 39192  39194M 39195  39985M 40019M 40052M 40073M 40086  40098M 40105
                                                 40356M 40374M 40499M 40517M 41092M 41140M 41183M 41207M 41228M 41248M
                                                 41269M 41289M 41310M 41342M 41607M 41625M 41665  41668M 41677M 41678M
                                                 41700  41745  41798M 41808M 41818M 41856M 41882M 41974M 42011M 42034M
                                                 42052M 42053M 42075  42120  42165M 42187M 42260M 42282M 42305M 42315M
                                                 42325M 42398M 42416M 42417M 42433M 42454M 42455M 42472M 42512M 42513M
                                                 42530M 42564M 42591M 42630M 42679M 42730M 42827M 42849M 42889M 42911M
                                                 42958M 43007M 43056M 43095M 43119M 43216M 43260M 43298M 43347M 43396M
                                                 43445M 43494M 43543M 43592M 43641M 43685M 43704M 43807M 43902M 43933M
                                                 43990M 44071M 44149M 44178M 44195M 44348  44369M 44392M 44413M 44432M
                                                 44453M 44621  44669  44700  44702  44706M 44708M 44719  44719M 44811
                                                 44823M 44847  44849M 44850M 44857  44857M 45013  45450M 45484M 45517M
                                                 45538M 45551  45563M 45570  45821  46224M 46240M 46240  46295M 46366M
                                                 46406M 46422M 46422  46438  46446M 46462M 46462  46477M 46493M 46493
                                                 46508M 46524M 46524  46539M 46555M 46555  46570M 46586M 46586  46608M
                                                 46737  46845  47000  47122  47249  47361  47372M 47374  47374M 48057U
                                                 48061M 48069M 48077M 48085M 48096M 48096  48098  48917M 48950M 48971M
                                                 48984  48996M 49004  49201  49210M 49221  49257  49700M 49708  49748U
                                                 49769M 49864M 49864  49888M 49888  49976M 50065M 50073  50113U 50134M
                                                 50712M 50745M 50766M 50779  50791M 50798  50925  51176M 51209M 51230M
                                                 51243  51255M 51262  52417M 52418M 52418  52445  52465M 52465  52483M
                                                 52483  52694M 52712U 52718M 52753U 52793  52794  52825  52834  53468
 R12          12 0000000C FFFFFFFF A   #     855  3538
 R13          13 0000000D FFFFFFFF A   #     868 13649  13788  13789  13790  13805  13806  13807  14628  14706  14707
                                                 14708  14723  14724  14725  16168  16289  16392  16733  16734  16735
                                                 16750  16751  16752  16917  16918  16919  16934  16935  16936  17002
                                                 17003  17004  17019  17020  17021  18352  18592  18593  18594  18609
                                                 18610  18611  19131  19279  19489
 R14          14 0000000E FFFFFFFF A   #     881  3513M 13787M 13788  13789  13790  13802M 13805  13806  13807  14705M
                                                 14706  14707  14708  14720M 14723  14724  14725  16732M 16733  16734
                                                 16735  16747M 16750  16751  16752  16916M 16917  16918  16919  16931M
                                                 16934  16935  16936  17001M 17002  17003  17004  17016M 17019  17020
                                                 17021  17381M 17692M 18156M 18546M 18591M 18592  18593  18594  18606M
                                                 18609  18610  18611  19032M 20634M 20741M 21041M 21242M 21430M 21622M
                                                 21783M 22166M 22198M 23298M 23323M 23374M 23403M 23432M 23461M 24345M
                                                 27293M 27693M 28666M 28767M 29153M 29163  29170M 29338M 29339M 29340
                                                 29500M 29551M 29557M 29557  29561M 29565M 29569M 29590M 29660M 29666M
                                                 29666  29670M 29674M 29678M 30992M 30992  31000M 31004M 31008M 31012M
                                                 31036M 31036  31049M 31055M 31055  31059M 31063M 31067M 31535M 31567M
                                                 31612M 31667M 31717M 31861M 31975M 31976M 32122M 32123M 32406M 32604M
                                                 32762M 32883M 32928M 33080M 33231M 33260M 33350M 33384M 33508M 33607M
                                                 33619M 33619  33633  33648M 33693M 33844M 34117M 34118M 34200M 34229M
                                                 34280M 34329M 34546M 34575M 34670M 34716M 34841M 34910M 35107M 35365M
                                                 35514B 39016M 39361M 39563M 40220M 40779M 40791M 40793M 40795M 40807M
                                                 40809M 40811M 40823M 40825M 40827M 40839M 40841M 44638M 45195M 45372M
                                                 45685M 45808M 45831M 45838M 45840M 46318M 46389M 46830M 46987M 47109M
1VETS     (VETS2025) (12:59) (15MAR04) Ordinary Symbol and Literal Cross Reference                                          Page  229
                                                 47236M 47348M 47667M 48015M 48736M 49999M 51016M 51631M 51972  52035M
                                                 52036B 52122  52184M 52185B 52274  53063M 53064B 53150  53346M 53347B
                                                 53365M 53366B 53457  53628M 53629B
 R15          15 0000000F FFFFFFFF A   #     894  3512  13691M 13808M 13808  13995  14456M 14456  14473M 14496M 14496
                                                 14568M 14568  14585M 14608M 14608  14669M 14726M 14726  14796M 14814M
                                                 14848M 14882M 14920M 14954M 14999M 15032M 15101M 15122M 15156M 15190M
                                                 15287M 15308M 15360M 15404M 15433M 15489M 15518M 15613M 15940M 15941M
                                                 15942  15963M 15963  16157M 16157  16210M 16240M 16265M 16331M 16361M
                                                 16434M 16479M 16753M 16753  16774M 16828M 16891M 16937M 16937  17022M
                                                 17022  17120M 17371M 17371  17380  17490  17583M 17584B 17691  17868
                                                 17961M 17962B 18051M 18134M 18155  18195M 18240M 18240  18394M 18545
                                                 18612M 18612  18843  18936M 18937B 19031  19173M 19227M 19321M 19375M
                                                 19463M 19465B 19531M 19563M 19667M 19667  20142M 20167M 20185M 20203M
                                                 20605  20633  20740  20833  20926M 20927B 21040  21241  21429  21469M
                                                 21469  21621  21782  21823M 21823  21982M 21982  22156M 22156  22165
                                                 22197  22269M 23072  23164M 23165B 23226M 23297  23322  23331M 23373
                                                 23402  23431  23460  23499M 23499  23556M 23685M 23734M 23734  23911M
                                                 23929M 23947M 23981M 23981  24064M 24082M 24100M 24134M 24134  24344
                                                 24454M 24574M 24595M 24595  24633M 24799M 24931M 25064M 25267M 25399M
                                                 25508M 25561M 25682M 25846M 25954M 26109M 26144M 26283M 26313M 26421M
                                                 26530M 26640M 26775M 26826M 26942M 26991M 26991  27029M 27051M 27292
                                                 27633  27692  27835M 27835  28092M 28092  28286M 28286  28389M 28389
                                                 28532M 28532  28601  28665  28733  28766  28861M 28861  29016M 29016
                                                 29154M 29158  29160M 29161  29164  29166  29379M 29388M 29388  29434
                                                 29512  29519  29536M 29559M 29559  29593M 29594M 29594  29618  29625
                                                 29642M 29668M 29668  29832M 29845  29865  29898  29918  29935M 29935
                                                 30216  30255M 30256M 30257  30994M 30994  31038M 31038  31057M 31057
                                                 31183M 31183  31502M 31502  31548M 31580M 31625M 31659M 31659  31680M
                                                 31708M 31730M 31820M 31820  31867M 31882  31893M 31893  31900  31982M
                                                 31985  32129M 32132  32238M 32238  32389M 32419M 32577M 32643M 32643
                                                 32690M 32690  32775M 32896M 32941M 33093M 33115M 33244M 33273M 33303M
                                                 33397M 33521M 33543M 33640M 33661M 33706M 33857M 33879M 34213M 34242M
                                                 34272M 34293M 34342M 34559M 34588M 34619M 34671M 34717M 34731  34742M
                                                 34742  34842M 34916M 34931  34942M 34942  34949  35108M 35414M 35414
                                                 35494M 35495M 35496  35544M 35544  35742M 35742  35754M 35776M 35776
                                                 35899M 35899  35911M 35933M 35933  36045M 36170M 36170  36189M 36189
                                                 36804M 37194M 37308M 37422M 37543M 37715M 37756M 37944M 37944  38823M
                                                 38823  39015  39324  39360  39393M 39393  39484M 39485M 39485  39562
                                                 39600M 39600  39606  40012  40105M 40106B 40219  40282M 40282  40365M
                                                 40383M 40418M 40418  40508M 40526M 40561M 40561  40896M 40897M 40897
                                                 40914M 40915M 40915  40930M 40935  40943M 40944M 40944  40961M 40962M
                                                 40962  40977M 40982  41109M 41153M 41196M 41219M 41237M 41260M 41278M
                                                 41301M 41319M 41335M 41335  41354M 41375M 41389M 41389  41434M 41434
                                                 41592M 41620M 41930M 41987M 42024M 42043M 42178M 42196M 42273M 42291M
                                                 42411M 42442M 42481M 42539M 42573M 42600M 42643M 42692M 42774M 42840M
                                                 42858M 42902M 42920M 42967M 43016M 43065M 43104M 43201M 43229M 43269M
                                                 43307M 43356M 43405M 43454M 43503M 43552M 43601M 43650M 43694M 43748M
                                                 43820M 43917M 43948M 44003M 44039M 44048M 44048  44086M 44118M 44162M
                                                 44188M 44188  44207M 44228M 44242M 44242  44273M 44273  44297M 44297
                                                 44382M 44404M 44422M 44444M 44462M 44485M 44485  44637  44717M 44717
                                                 44738M 44738  44861M 44861  44880M 44880  45158  45194  45231M 45231
                                                 45371  45477  45570M 45571B 45684  45736M 45736  45807  45869M 45870M
                                                 45870  45887M 45888M 45888  45903M 45908  45916M 45917M 45917  45934M
                                                 45935M 45935  45950M 45955  46058M 46068U 46102M 46102  46317  46388
                                                 46637M 46637  46820M 46820  46829  46977M 46977  46986  47099M 47099
                                                 47108  47226M 47226  47235  47338M 47338  47347  47410M 47410  47544M
                                                 47636M 47666  47728M 47755M 47783M 47828M 47966M 48014  48024M 48141M
                                                 48141  48276M 48324M 48324  48735  48781M 48781  48910  49004M 49005B
                                                 49998  50580M 50580  50705  50798M 50799B 50981  51015  51059M 51059
1VETS     (VETS2025) (12:59) (15MAR04) Ordinary Symbol and Literal Cross Reference                                          Page  230
                                                 51169  51262M 51263B 51594  51630  51669M 51669  51853M 51853  51961
                                                 52111  52263  52438M 52438  53139  53345M 53364M 53364  53447
 R2            2 00000002 FFFFFFFF A   #     725 13770M 13770  13995M 14233M 14251U 14276M 15252M 15275  15777M 15777
                                                 15784M 15789  16783M 16786  16798M 16805M 16807  16827M 16827  16843
                                                 16849  16871M 16960M 16973  17050M 17053  17065M 17086  17089M 17091
                                                 17186M 17192  17287M 17288  17322  17479M 17479  17553M 17613  17640
                                                 17653  17666  17857M 17857  17931M 17991  18018  18031  18044  18072
                                                 18085  18098  18127  18832M 18832  18906M 18966  18993  19006  19047
                                                 20507M 20524  20605M 20624M 20624  20822M 20822  20896M 20949  20976
                                                 20989  21002  21015  21170M 21179M 21179  21277  21305  21318  21331
                                                 21353  21366  21379  21392  21405  21580M 21591M 21591  21597  21598M
                                                 21647M 21656M 21656  21672  21697  21719  21732  21745  21758  22081M
                                                 22082  22107  22433M 22444  22451  22475  22482  22506  22513  22537
                                                 22544  22568  22575  22599  22606  22624M 22625  22806M 22807M 22808
                                                 22809M 22810M 22811  22826  22833M 22847  22896  22898  22905  22912
                                                 22919  23061M 23061  23135M 23194  23219  23246  23259  23272  23313M
                                                 23313  24500M 24512  24519M 24526M 24528  24543M 24544  24545  24695M
                                                 24805M 24806M 24815M 24815  24822  24942M 24955  25070M 25071M 25158
                                                 25278M 25291  25410M 25422  25453  25484  25538  25693M 25705  25738
                                                 26174  26294M 26306  26432M 26444  26475  26506  26667  26786M 26798
                                                 26817  26852  27251M 27262M 27262  27268  27269M 27651M 27662M 27662
                                                 27668  27669M 28683M 28733M 28750M 28750  29094M 29095M 29095  29158
                                                 29160  29167  29235M 29244M 29244  29281M 29281  29289  29301M 29308M
                                                 29310  29336  29361M 29362  29363M 29364  29365M 29365  29366M 29434M
                                                 29435  29450M 29450  29470M 29541M 29542M 29543  29544M 29545M 29546
                                                 29548M 29552  29562  29566  29647M 29648M 29649  29650M 29651M 29652
                                                 29653M 29654M 29655  29657M 29661  29671  29675  29705M 29706M 29707
                                                 29948M 29949  29952  29955  29958  29962M 29974  29984M 29984  29989
                                                 30001  30039M 30052  30058  30164M 30165M 30166  30263M 30265  30301
                                                 30320  30339  30517M 30518M 30593M 30594M 30997M 31001  31005  31009
                                                 31042M 31043M 31044  31046M 31050  31060  31064  31514M 31528  31564M
                                                 31587M 31588M 31597M 31597  31604M 31609M 31610  31637M 31650  31692M
                                                 31702M 31702  31742M 31780  31794  31808  31814  31839  32275  32289
                                                 32306  32383  32431M 32434  32458  32488  32524  32536M 32553  32660M
                                                 32673  32723  32734M 32734  32755  32787M 32789M 32790M 32792  32796M
                                                 32796  32798  32800  32802  32863  32869M 32871  32875M 32875  32877
                                                 32879  32881  32953M 32971  33003  33035  33067  33127M 33146M 33147M
                                                 33153  33224  33343  33356M 33370M 33370  33431  33463  33495  33555M
                                                 33557  33595  33718M 33735  33767  33799  33831  33891M 33910M 33911M
                                                 33917  33988  34027  34193  34316  34460M 34467  34539  34600M 34612
                                                 34710  35014  35051  35058  35101  35218  35266M 35270  35272M 35273
                                                 35275M 35276  35294M 35318M 35323  35385M 35687M 35687  35707M 35721
                                                 35732M 35732  35846M 35846  35864M 35878  35889M 35889  36026M 36027M
                                                 36038  36055M 36067  36073  36074M 36083M 36095  36101  36102M 36111M
                                                 36123  36129  36130M 36139M 36151  36157  36158M 36810M 36823  36837M
                                                 36837  36940M 36941  37090M 37143  37200M 37210M 37210  37257  37314M
                                                 37324M 37324  37371  37428M 37438M 37438  37485  37566  37714M 37716
                                                 37757  37818  38081M 38095  38247  38339  38430  38503  38610  38689
                                                 39068M 39088M 39095M 39096  39097  39324M 39342M 39342  40001M 40001
                                                 40075M 40128  40155  40168  40181  40194  41201M 41207  41242M 41248
                                                 41283M 41289  41674M 41676  41678  41859M 41860M 41861  41888M 41901M
                                                 41901  41915  42051  42053  42417  42455  42513  44027M 44027  44034M
                                                 44055M 44055  44060  44354M 44355  45007M 45008  45061M 45077  45158M
                                                 45176M 45176  45466M 45466  45540M 45593  45620  45633  45646  45659
                                                 46276M 46287M 46287  46293  46294M 46347M 46358M 46358  46364  46365M
                                                 48443U 48447M 48456M 48456  48511M 48546  48899M 48899  48973M 49028
                                                 49202  49211M 49221  49235  49708M 49762M 49762  49769  49770M 49957M
                                                 49968M 49968  49974  49975M 50073M 50127M 50127  50134  50135M 50694M
                                                 50694  50768M 50822  50844  50858  50884  50898  50926  50981M 50999M
1VETS     (VETS2025) (12:59) (15MAR04) Ordinary Symbol and Literal Cross Reference                                          Page  231
                                                 50999  51158M 51158  51232M 51286  51496M 51513  51594M 51612M 51612
                                                 52779M 52780  52839M 53202M 53492M 53493  53569M
 R3            3 00000003 FFFFFFFF A   #     738 14011M 14014  14026M 14120  14196  14973M 15555  15835M 15865  15873M
                                                 15885  15891  15911M 15912  15915M 17251M 17259U 17262M 17264M 17266M
                                                 17268M 17395M 17414  17471  17683M 17799  17849  18147M 19023M 21032M
                                                 21421M 21774M 22967M 22977U 23005  23053  23289M 23354M 23364M 23364
                                                 23383M 23393M 23393  23412M 23422M 23422  23441M 23451M 23451  23517M
                                                 23584  24305M 24425M 24447M 24447  24770M 24792M 24792  24822M 24827
                                                 24828M 24902M 24924M 24924  25035M 25057M 25057  25238M 25260M 25260
                                                 25370M 25392M 25392  25653M 25675M 25675  25817M 25839M 25839  25925M
                                                 25947M 25947  25987M 25987  26085M 26254M 26276M 26276  26392M 26414M
                                                 26414  26609M 26631M 26631  26746M 26768M 26768  26861M 26891M 26891
                                                 26909  26916  26921M 27146M 29163M 29164M 29165  29166M 29167M 29168
                                                 29234M 29337  29362M 29549M 29553  29563  29567  29658M 29662  29672
                                                 29676  30176M 30176  30216  30217M 30217  30253  30255  30998M 31002
                                                 31006  31010  31047M 31051  31061  31065  31860M 31860  31940M 32047
                                                 32053  32103M 32116  32123  32162  32169  32208M 32233  32537M 32653M
                                                 32653  32792  32798  32800  32802  32804M 32816  32826M 32826  32871
                                                 32877  32879  32881  33153  33165M 33177  33187M 33187  33310M 33607
                                                 33917  33929M 33941  33951M 33951  33994  34039  34089M 34101  34110M
                                                 34110  34118  34140M 34152  34162M 34162  34453  34471M 34471  34480M
                                                 34492  34502M 34502  34633  34710  34717  34767  34773  34823M 34835
                                                 34842  34895M 34904M 34904  34916  34997M 35014  35020  35091M 35101
                                                 35108  35161M 35178  35188M 35188  35270  35273  35276  35323  35325M
                                                 35337  35347M 35347  36027  36055  36083  36111  36139  36772M 36798
                                                 36810  37200  37314  37428  37578  37584M 37605M 37617  37682  37863M
                                                 37881  37899M 37899  38056M 38056  38070  38081  38742M 38957M 38967U
                                                 38973M 38991U 39269  40211M 41804M 41806  41814M 41816  41824M 41826
                                                 42311M 42313  42321M 42323  42331M 42334  42360  42736M 42739  42779
                                                 42788M 42788  42795M 42947  42996  43045  43125M 43128  43154  43163M
                                                 43163  43170M 43287M 43287  43336  43385  43434  43483  43532  43581
                                                 43630  43710M 43713  43753  43769M 43769  43776M 43790M 43790  43841
                                                 43867  43868  43880  43968  44991M 45006M 45050  45076  45676M 46762M
                                                 46784  47527M 48447M 48506  52315M 52323U 52779M 52819U 53191M 53199U
                                                 53492M 53540U
 R4            4 00000004 FFFFFFFF A   #     751 13768M 13768  14031M 14050M 14050  14121  15228M 15246U 15829M 15835
                                                 15851M 15851  15891  15912  15914M 15915  16033M 16088  17274M 17275M
                                                 17275  17293M 17301U 17303  17321  17805  20682M 20692U 20698M 20716U
                                                 20765  20814  21200M 21211M 21211  21217  21218M 21566M 21576U 21580
                                                 21597M 21599  22068M 22069M 22069  22087M 22088  22106  22180M 22181M
                                                 22181  22214U 22939M 22949U 23009  23338  23346M 23346  23507M 23588
                                                 24271M 24279M 24323  24353M 24365  24380M 24380  24482  24552  24554
                                                 24582M 24582  24695  24698M 24710  24725M 24725  24806  24830M 24842
                                                 24857M 24857  24942  24963M 24975  24990M 24990  25070  25166M 25178
                                                 25193M 25193  25278  25298M 25310  25325M 25325  25410  25581M 25593
                                                 25608M 25608  25693  25745M 25757  25772M 25772  25853M 25865  25880M
                                                 25880  25976M 25976  26010  26013M 26025  26040M 26040  26182M 26194
                                                 26209M 26209  26294  26320M 26332  26347M 26347  26432  26537M 26549
                                                 26564M 26564  26674M 26686  26701M 26701  26786  26897  26899  26922M
                                                 26958  26975M 26975  27074M 27086  27101M 27101  27163  29101M 29149
                                                 29152  31414M 31514  31557  31564  31588  31637  31692  31742  31815
                                                 32431  32660  32686  32787  32908  32953  33127  33256  33280  33356
                                                 33555  33673  33718  33891  34225  34249  34304  34353  34571  34595
                                                 35385  35423M 35435  35450M 35450  35689M 35701  36004M 36014  36021
                                                 36335M 36357  36362M 36362  36692M 36710M 36900  36902M 36914  36920
                                                 36921M 36931  36935M 36935  36941  36943M 36955  36961  36962M 36972
                                                 36976M 36976  37001  37003M 37015  37021  37022M 37032  37036M 37036
                                                 37041  37044M 37056  37062  37063M 37073  37077M 37077  37103  37105M
                                                 37117  37123  37124M 37134  37138M 37138  37143  37145M 37157  37163
1VETS     (VETS2025) (12:59) (15MAR04) Ordinary Symbol and Literal Cross Reference                                          Page  232
                                                 37164M 37174  37178M 37178  37217  37219M 37231  37237  37238M 37248
                                                 37252M 37252  37257  37259M 37271  37277  37278M 37288  37292M 37292
                                                 37331  37333M 37345  37351  37352M 37362  37366M 37366  37371  37373M
                                                 37385  37391  37392M 37402  37406M 37406  37445  37447M 37459  37465
                                                 37466M 37476  37480M 37480  37485  37487M 37499  37505  37506M 37516
                                                 37520M 37520  37642  37644M 37656  37662  37663M 37673  37677M 37677
                                                 37715  37718M 37730  37736  37737M 37747  37751M 37751  37756  37759M
                                                 37771  37777  37778M 37788  37792M 37792  37818  37820M 37832  37838
                                                 37839M 37849  37853M 37853  37906  38022M 38044  38049M 38049  38052M
                                                 38135  38136M 38146  38150M 38150  38155  38158M 38194  38195M 38205
                                                 38209M 38209  38214  38217M 38290  38291M 38301  38305M 38305  38310
                                                 38313M 38382  38383M 38393  38397M 38397  38402  38404M 38455  38456M
                                                 38466  38470M 38470  38475  38477M 38528  38529M 38539  38543M 38543
                                                 38548  38550M 38551  38578M 38579  38581M 38582  38584M 38635  38636M
                                                 38646  38650M 38650  38655  38657M 38658  38663M 38714  38715M 38725
                                                 38729M 38729  38734  38736M 38761  38781  38783M 38789  39102M 39112U
                                                 39116  39117  39147M 39260M 39273  39504M 39514U 39520M 39538U 39937
                                                 39993  40778M 40791  40807  40823  40839  43868M 43887M 43922  44352M
                                                 44352  44355M 44356M 44432  44701M 44702M 44703M 44705M 44705  44707M
                                                 44708  44846M 44847M 44848M 44850  44936M 44946U 44952M 44970U 45070
                                                 46255M 46272U 46276  46293M 46295  46335M 46347  46364M 46366  46845M
                                                 46855U 46859  46910  47000M 47001  47048  47122M 47123  47171  47249M
                                                 47250  47295  47361M 47362  48472M 48473M 48473  48511  48546M 48564U
                                                 48866U 48889  50662U 50685  50975  51142U 51149  51505  51753U 51972M
                                                 52035  52122M 52184  52780M 52793M 52839  53150M 53346  53365  53493M
                                                 53506M 53569
 R5            5 00000005 FFFFFFFF A   #     764 14143M 14153U 14172M 14213  14214  14215  14282  14959M 14969U 14973
                                                 15532M 15543M 15543  15555  15723M 15732  15744M 15751M 15753  15768
                                                 16032M 16033  16054U 16078M 16088  16122  17246U 17248  18454M 18464U
                                                 18477M 18477  18484M 18505U 18515M 18515  18766  18824  20443M 20453U
                                                 20459M 20477U 20516  21186M 21196U 21200  21217M 21219  22953M 22963U
                                                 23512M 24272M 24280M 24290U 24381M 24394M 24394  24414M 24436M 24436
                                                 24476M 24476  24583M 24672M 24672  24726M 24739M 24739  24759M 24781M
                                                 24781  24858M 24871M 24871  24891M 24913M 24913  24991M 25004M 25004
                                                 25024M 25046M 25046  25194M 25207M 25207  25227M 25249M 25249  25326M
                                                 25339M 25339  25359M 25381M 25381  25609M 25622M 25622  25642M 25664M
                                                 25664  25773M 25786M 25786  25806M 25828M 25828  25881M 25894M 25894
                                                 25914M 25936M 25936  26041M 26054M 26054  26074M 26210M 26223M 26223
                                                 26243M 26265M 26265  26348M 26361M 26361  26381M 26403M 26403  26565M
                                                 26578M 26578  26598M 26620M 26620  26702M 26715M 26715  26735M 26757M
                                                 26757  26861M 26880M 26880  26971M 27066M 27066  27102M 27115M 27115
                                                 27135M 27151  27246M 27251  27268M 27270  27589U 27646M 27651  27668M
                                                 27670  27728M 27742M 27742  28607M 28617U 28623M 28641U 28692  29069M
                                                 29069  29079U 29146M 29791M 29821M 30379M 30388M 30388  30396M 30401M
                                                 30413  30423M 30423  30428  30706M 30715M 30715  30723M 30728M 30740
                                                 30747M 30749M 30754  31109B 31129M 31422M 31431M 31441U 31457M 31457
                                                 31477M 31490  31549  31558  31581  31626  31681  31709  31731  31816
                                                 32234  32390  32420  32629  32685  32776  32897  32942  32955  33094
                                                 33116  33245  33274  33304  33398  33522  33544  33641  33662  33707
                                                 33858  33880  34214  34243  34273  34294  34343  34560  34589  34620
                                                 35400  35451M 35464M 35464  35484M 35509M 35509  35688M 35847M 36054M
                                                 36082M 36110M 36138M 36341M 36351U 36358  36928M 36969M 37029M 37070M
                                                 37131M 37171M 37245M 37285M 37359M 37399M 37473M 37513M 37670M 37744M
                                                 37785M 37846M 38028M 38038U 38045  38143M 38202M 38298M 38390M 38463M
                                                 38536M 38643M 38722M 38775  39024M 39034U 39089M 39118M 39130M 39130
                                                 39148M 40875M 40885U 41665M 41674  41804  41814  41824  41836M 41836
                                                 41850  41856  41859  41876  41888  42311  42321  42331  42736  43125
                                                 43710  44096M 44348M 44357M 44392  44699M 44700M 44704M 44704  44706
                                                 44810M 44811M 44990M 45000M 45000  45013M 45030M 45044U 45316M 45326U
1VETS     (VETS2025) (12:59) (15MAR04) Ordinary Symbol and Literal Cross Reference                                          Page  233
                                                 45332M 45348U 45396  45458  45845M 45858U 46737M 46750U 46783  46911
                                                 47049  47172  47296  47370  47372  47522U 47530M 47531M 47531  47553
                                                 47577M 47687  48047  48100  48100M 48206M 48207M 48207  48239U 48273
                                                 48489M 48489  48506M 48871M 48872M 48882U 49715  49776  49952M 49957
                                                 49974M 49976  50080  50141  50182M 50193M 50193  50207M 50667M 50668M
                                                 50678U 51757M 51767U 51973M 51981U 52123M 52131U 52275M 52283U 52794M
                                                 52834M 53151M 53159U 53507M 53564M
 R6            6 00000006 FFFFFFFF A   #     777  1130   1130  13771M 13879M 13946M 13946  14064M 14064  14317M 14317
                                                 15214M 15224U 16453M 16454M 16454  16704M 16712U 17249  17261  17263
                                                 17265  17267  17269  18209  18209M 18413M 18414M 18414  18422U 19192M
                                                 19193M 19193  19201U 19340M 19341M 19341  19349U 19627M 19628M 19628
                                                 22984  45821M 46057  46167M 46168M 46168  46608  48568M 48577U 51983M
                                                 51991U 52133M 52141U 52285M 52293U 53161M 53169U 53468M 53476U 53506
                                                 53507  53546  53564
 R7            7 00000007 FFFFFFFF A   #     790  3505M  3505   3506B  3518B 13650M 13660U 14629M 14639U 16169M 16179U
                                                 16290M 16300U 16393M 16403U 18353M 18363U 19132M 19142U 19280M 19290U
                                                 19490M 19500U
 R8            8 00000008 FFFFFFFF A   #     803 13649M 14628M 16168M 16289M 16392M 16686U 18352M 19131M 19279M 19489M
                                                 24232U 29003U 31395U 36322U 41560U 47505U 52274M 53063  53457M 53628
 R9            9 00000009 FFFFFFFF A   #     816 52326M 52394M 52404U
 SALCLOCK      1 00000000 00000000 A   T   10312 10312
 SCAN          2 00003490 00000001     H   29233 30029B 30352B 30442B 30679B 30755B 30931B
 SCANA         4 00000000 FFFFFFD9     A   28897 29033M 29153  29165M 29234  29433  29500  29542  29543M 29590  29651
                                                 29652M 29706  29707M 29875  29876M 30022  30023M 30033  30063  30064M
                                                 30096  30097M 30160  30161M 30268  30269M
 SCANCHK       1 00000000 00000004     T   16548 16548  18279  19673
 SCANL         4 00000004 FFFFFFD9     F   28898 29034M 29094  29168M 29235  29342  29343M 29366  29879  29881M 30026
                                                 30028M 30067  30069M 30089  30091M 30164  30166M 30271  30272M
 SCIP          2 00007BDA 00000001     H   52262 51917  52271U
 SCIPRETN      2 00007D40 00000001     I   53063 52615B 52928B 53025B 53057B
 SCRENLOC      4 0000000C FFFFFFD9     F   28900 29477  29577M 29577  29648  29649M 29732  29745M 29745  29762  29948
                                                 29989M 30428M 30462  30966  31020M 31020  31043  31044M 31087  31100M
                                                 31100
 SDSNQSZ       1 0000002C FFFFFFE8 A   U    7493  7494   7495
 SEG           1 00000000 00000002     T   16546 16546  19671  23745  27840  40595  44494
 SEGCOL        1 00000000 00000008     T   16556 16556
 SEGCR         1 00000000 00000007     T   16555 16555  18301  19685  23747  27841  40594
 SEGCURS       2 0000628C 00000001     H   44313 41858B 44180B
 SEGDC         1 00000000 00000009     T   16559 16559  44495
 SEGHX         1 00000000 0000000A     T   16564 16564  23746
 SEGMARK       1 00000000 00000012     T   44493 44493
 SEGTB         1 00000000 00000006     T   16554 16554
 SEGWR         1 00000000 00000010     T   27849 27849  44497
 SENDBHLO      2 00004B46 00000001     H   36787 37635B
 SENDCH        2 00004FEE 00000001     H   37813 36861B
 SENDCHAN      2 000053FE 00000001     H   38918 31189  37908B 38799B
 SENDEP        4 0000000C FFFFFFD7     F   36239 36775M 36798  37596M 37617  37895M
 SENDFS        1 00000000 FFFFFFD7        36228 36516M 36757  36852  36877
 SENDMF        2 00000000 FFFFFFD7        36231 36437M 36479M 36675M
 SENDNULL      4 000032B8 00000001     I   28607 28480B
 SENDQR        2 00005062 00000001     H   37986 27873
 SENDRESP      2 000055A2 00000001     H   39418 23752  27891  28295  28866  38955B
 SENDRTN       2 00001D4E 00000001     H   21792 21700B
 SENDSCR       2 00004A1C 00000001     H   36280 27893  28867  31205
 SENDSEND      4 00005048 00000001     I   37906 36711B
 SENDSF        3 00000000 FFFFFFD7        36234 36592M 36629M 36703
 SENDSP        4 00000008 FFFFFFD7     F   36238 36774M 37596  37881  37895
 SENDSWA      16 00000000 FFFFFFD7     J   36246 36293  36322U 36333M 36333  37940  37942  37943
 SENDTYPE      1 00000000 FFFFFFD7     X   36226 36228  36231  36234
1VETS     (VETS2025) (12:59) (15MAR04) Ordinary Symbol and Literal Cross Reference                                          Page  234
 SENDVCNT      1 00000001 FFFFFFD7     X   36236 37088M 37186  37188M 37300  37302M 37414  37416M 37528  37530M 37541
 SENDVLOC      4 00000004 FFFFFFD7     A   36237 37042M 37543
 SETTAB       16 00000008 FFFFFFD4        41478 42453M 42511M 42614
 SETVOPT       2 00000018 00000001     H   13648 13646
 SETVSES       2 0000066A 00000001     H   16288 16286
 SHOVA        32 00000982 00000001        13616 14694  14694  14695M 14767M 15054  15581
 SHOVSHON     16 00000982 00000001        13621 14694  14694  15077M 15593
 SHOWVOPT      2 0000025C 00000001     H   14627 14625
 SHOWVSES      2 0000060E 00000001     H   16167 16165
 SHUTC         2 00001A00 00000001     H   20671 20930
 SHUTENV       2 00001B08 00000001     H   20938 20932
 SHUTERR       2 00001B3C 00000001     H   21031 20929  20933  20934
 SHUTTBLE      4 00001AE8 00000001     A   20928 20926
 SIGLENV       2 000068F0 00000001     H   45582 45576
 SIGLERR       2 00006924 00000001     H   45675 45573  45577  45578
 SIGLNORM      2 00006946 00000001     H   45690 45572  45575  45579
 SIGLTABL      4 000068D0 00000001     A   45572 45570
 SLOGACB       2 00000DD8 00000001     H   17595 17592
 SLOGENV       2 00000DDE 00000001     H   17602 17589
 SLOGERR       2 00000E0A 00000001     H   17682 17586  17588  17590  17591
 SLOGNORM      2 00000E2C 00000001     H   17697 17585
 SLOGON        4 00000CFE 00000001     I   17395 17587
 SLOGTABL      4 00000DB8 00000001     A   17585 17583
 SOSET         1 00000010 FFFFFFD4     X   41493 43848  43867M
 SPR          13 0000000D 00000001 A   #    1103 14408  14411  14412  14413M 14413  14488M 14492  14494  14519  14522
                                                 14523  14524M 14524  14600M 14604  14606  15686  15689  15690  15691M
                                                 15691  15955M 15959  15961  15998  16001  16002  16003M 16003  16149M
                                                 16153  16155  16648  16651  16653  16654M 16654  18232M 18236  18238
                                                 19596  19599  19600  19601M 19601  19659M 19663  19665  21140  21143
                                                 21144  21145M 21145  21461M 21465  21467  21505  21508  21509  21510M
                                                 21510  21815M 21819  21821  21856  21859  21860  21861M 21861  21974M
                                                 21978  21980  22036  22039  22040  22041M 22041  23726M 23730  23732
                                                 23829  23832  23833  23834M 23834  23973M 23977  23979  24014  24017
                                                 24018  24019M 24019  24126M 24130  24132  24197  24200  24202  24203M
                                                 24203  27827M 27831  27833  27957  27960  27961  27962M 27962  28278M
                                                 28282  28284  28329  28332  28333  28334M 28334  28381M 28385  28387
                                                 28425  28428  28429  28430M 28430  28853M 28857  28859  28968  28971
                                                 28973  28974M 28974  31175M 31179  31181  31360  31363  31365  31366M
                                                 31366  35536M 35540  35542  35655  35658  35659  35660M 35660  35768M
                                                 35772  35774  35814  35817  35818  35819M 35819  35925M 35929  35931
                                                 35975  35978  35979  35980M 35980  36181M 36185  36187  36287  36290
                                                 36292  36293M 36293  37936M 37940  37942  37992  37995  37996  37997M
                                                 37997  38815M 38819  38821  38924  38927  38928  38929M 38929  39385M
                                                 39389  39391  39424  39427  39428  39429M 39429  40274M 40278  40280
                                                 40315  40318  40319  40320M 40320  40410M 40414  40416  40452  40455
                                                 40456  40457M 40457  40553M 40557  40559  40691  40694  40695  40696M
                                                 40696  41426M 41430  41432  41525  41528  41530  41531M 41531  44289M
                                                 44293  44295  44319  44322  44323  44324M 44324  44477M 44481  44483
                                                 44592  44595  44596  44597M 44597  44730M 44734  44736  44781  44784
                                                 44785  44786M 44786  44872M 44876  44878  44905  44908  44909  44910M
                                                 44910  45223M 45227  45229  45263  45266  45267  45268M 45268  45728M
                                                 45732  45734  45757  45760  45761  45762M 45762  46094M 46098  46100
                                                 46135  46138  46139  46140M 46140  46629M 46633  46635  46701  46704
                                                 46705  46706M 46706  47402M 47406  47408  47470  47473  47475  47476M
                                                 47476  48133M 48137  48139  48174  48177  48178  48179M 48179  48316M
                                                 48320  48322  48384  48387  48388  48389M 48389  48773M 48777  48779
                                                 48819  48822  48823  48824M 48824  50572M 50576  50578  50615  50618
                                                 50619  50620M 50620  51051M 51055  51057  51095  51098  51099  51100M
                                                 51100  51661M 51665  51667  51706  51709  51710  51711M 51711  51845M
1VETS     (VETS2025) (12:59) (15MAR04) Ordinary Symbol and Literal Cross Reference                                          Page  235
                                                 51849  51851
 SRBROUT       2 00007DC8 00000001     H   53446 23753  28871  40583  46649  46957  47079  47206  53455U 53731
 SRECEIVE      2 0000666C 00000001     H   44899 23751  27892  28290  28865  53724
 SREXIT        2 000057CA 00000001     H   40239 40107  40110  40112  40114
 SSIGNAL       2 000067B6 00000001     H   45257 19684  28294  28873
 STOPCHAR      1 00000019 FFFFFFD9     X   28932 29265M 29336M 29832
 TBREAK        1 00000000 00000014     T   53718 53718
 TERMACB       2 000013CC 00000001     H   18948 18945
 TERMENV       2 000013D2 00000001     H   18955 18942
 TERMERR       2 000013F6 00000001     H   19022 18939  18941  18944  19062B
 TERMILIM      4 00000994 00000001     F   13627 15768M 15829
 TERMLOGC      2 00001418 00000001     H   19036 18943
 TERMNAME      8 0000098C 00000001     C   13626 14197  15729M 15760M 15790  15828  15835  15891M 15892  15912M 15915
                                                 16072  16115
 TERMNORM      2 0000142A 00000001     H   19065 18518B 18938
 TERMNUMB      4 00000998 00000001     F   13628 15789M 15822M 15822  15940  15942M
 TERMSESS      2 000012F2 00000001     H   18749 18940
 TERMTABL      4 000013AC 00000001     A   18938 18936
 TPEND         2 00007B82 00000001     H   51960 51933  51969U
 TRANSLAT      4 00000004 FFFFFFD4     A   41456 43760M 43760  43975M 44039
 TRANSPAR      2 00003402 00000001     H   29067 30892B
 TRC           1 00000000 00000000 A   T    3534  3534
 TRCELOCK      1 00000000 00000000 A   T   10336 10336
 TREAD         1 00000000 00000011     T   28291 28291  28868
 TTYFCOLOR
               2 00000005 FFFFFFE6         7666 40993  45966
 TTYFLAG       1 00000004 FFFFFFE6     R    7622  7626
 TTYFVTAM      4 00000005 FFFFFFE6         7661 45992
 TTYHEI        2 00000008 FFFFFFE6     H    7672 40914  45887
 TTYMAX#       1 00000006 FFFFFFE6 A   U    7678  7679
 TTYPE       268 00000000 FFFFFFE6     J    7713 40885U 45858U
 TTYTFLAG      1 00000005 FFFFFFE6     R    7632  7636   7641   7646   7651   7656   7661   7666
 TTYWID        2 0000000A FFFFFFE6     H    7673 40961  45934
 UDATA         4 00000010 FFFFFFDB     A   16617 17193M 17784
 UDATAL        4 0000000C FFFFFFDB     F   16616 17161M 17161  17192M 17778M 17778  17785
 UNFORMAT    128 00000018 FFFFFFD9        28909 29226M 29427  29490  29490  30439  30500M 30979  30979
 UPDAEND       2 00003A4E 00000001     H   31112 29247B 29938B
 UPDATSCR      2 000033C4 00000001     H   28961 28293  28872
 UPDATSWA    156 00000000 FFFFFFD9     J   28942 28974  29003U 29031M 29031  31179  31181  31182
 UPDSCRF       1 00000018 FFFFFFD9     R   28905 28909  28914  28919  28924  28929
 UPDTABL     256 00003ACC 00000001     X   31215 29317
 UPPTBL        1 00000000 00000000 A   T    3597  3597
 USEAID        2 00004AAE 00000001     H   36533 36415B
 VACTIVE     128 00000982 00000001        13606 13745  13759  13759  13760M 14900
 VATTN         2 0000143C 00000001     H   19130 19128
 VATTN1        4 000067DC 00000001     I   45316 45574
 VDEBUG        2 00001540 00000001     H   19488 19486
 VETSFLG       1 00000982 00000001     R   13602 13606  13611  13616  13621
 VETSFREE      2 0000158A 00000001     H   19590 19586
 VETS2025      1 00000000 00000001     R    1148  1146
 VFIXLOCK      1 00000000 00000000 A   T   10322 10322
 VGO           2 000014A6 00000001     H   19278 19092B 19255B 19276
 VIEWTRC       1 00000000 0000000F     T   27848 27848  44496
 VLERROR       2 00001016 00000001     H   18161 16777B 16894B 17123B 17225B 18054B 18137B
 VLOGCHK       2 000001E6 00000001     H   14402 14398
 VLOGOFF       2 000011D8 00000001     H   18351 18349
 VLOGON        2 000006B4 00000001     H   16391 16389
 VON          64 00000982 00000001        13611 13759  13759  14076M 14099M 14446  14828  16505
 VPAGLOCK      1 00000000 00000000 A   T   10327 10327
1VETS     (VETS2025) (12:59) (15MAR04) Ordinary Symbol and Literal Cross Reference                                          Page  236
 VSACBOPE      2 00000008 FFFFFFDD        13325 17238M
 VSCLEAN      13 00000008 FFFFFFDD        13358 53226M 53271M 53316M
 VSCONT        5 00000008 FFFFFFDD        13334 20337  21069  21946M 27465M 27763  28171  30828M 39714M 49528  50407
                                                 52983M
 VSCONT1       6 00000008 FFFFFFDD        13337 20370  21081  21924M 27443M 27775  28025M 39692M 49540  50419  52961M
 VSCONT2       7 00000008 FFFFFFDD        13340 20403  27787  49552  50431  50449M
 VSESCHK       2 00000220 00000001     H   14513 14509
 VSINB         8 00000008 FFFFFFDD        13343 20271  27491M 28183  28196M 28467M 28578  51407
 VSLOSTER     12 00000008 FFFFFFDD        13355 52169M 52656M
 VSOUTB        9 00000008 FFFFFFDD        13346 19448  20116M 20238  27355  27799M 28075  28146  28364M 30858M 39655M
                                                 45700  49581M
 VSOUTBSS     10 00000008 FFFFFFDD        13349 20304  27367  45302  45712M
 VSSTATE       1 00000008 FFFFFFDD     X   13317 13319  13322  13325  13328  13331  13334  13337  13340  13343  13346
                                                 13349  13352  13355  13358  13361
 VSUNBIND     11 00000008 FFFFFFDD        13352 52569M
 VSVEND       14 00000008 FFFFFFDD        13361 52019M
 VSWFBIND      3 00000008 FFFFFFDD        13328 17748M 23479  23889  52626M
 VSWFSDT       4 00000008 FFFFFFDD        13331 21897  23491M 23877  52500M 52925
 VTAMDISP      2 00007316 00000001     H   48378 48374
 VTBCOUNT      2 0000000A FFFFFFDC     H   13527 24365  24407M 24407  24483  24553  24710  24752M 24752  24842  24884M
                                                 24884  24975  25017M 25017  25178  25220M 25220  25310  25352M 25352
                                                 25593  25635M 25635  25757  25799M 25799  25865  25907M 25907  26025
                                                 26067M 26067  26194  26236M 26236  26332  26374M 26374  26549  26591M
                                                 26591  26686  26728M 26728  26898  26958  27086  27128M 27128  29161M
                                                 31470M 31470  35435  35477M 35477  36920M 36961M 37021M 37062M 37123M
                                                 37163M 37237M 37277M 37351M 37391M 37465M 37505M 37662M 37736M 37777M
                                                 37838M 37906M 38135M 38194M 38290M 38382M 38455M 38528M 38635M 38714M
                                                 38789M 39145  39194  49235M 49257M 49678M 49678  50206M 50206  50328M
                                                 50328  50502M 50502  50526M 50526
 VTBDATA       1 00000010 FFFFFFDC     X   13564 24323  24482  24552  24695  24806  24942  25070  25278  25410  25693
                                                 26010  26294  26432  26786  26897  29102  29147  29151  31514  31564
                                                 31588  31637  31692  31742  32431  32660  32787  32908  32953  33127
                                                 33256  33280  33356  33555  33673  33718  33891  34225  34249  34304
                                                 34353  34571  34595  35385  36336  36355  36364M 36538M 36691  36900M
                                                 36922  36929  36941M 36963  36970  37001M 37023  37030  37041  37064
                                                 37071  37103M 37125  37132  37143M 37165  37172  37217M 37239  37246
                                                 37257M 37279  37286  37331M 37353  37360  37371M 37393  37400  37445M
                                                 37467  37474  37485M 37507  37514  37642M 37664  37671  37715  37738
                                                 37745  37756  37779  37786  37818M 37840  37847  38023  38042  38051M
                                                 38137  38144  38155  38196  38203  38214  38292  38299  38310  38384
                                                 38391  38402  38457  38464  38475  38530  38537  38548  38551  38579
                                                 38582  38637  38644  38655  38658  38716  38723  38734  38781  39143
                                                 39191  45007  45048  45074  46647  53715
 VTBDLENG      2 00000008 FFFFFFDC     H   13526 29149M 36357M 36914  36931M 36955  36972M 37015  37032M 37056  37073M
                                                 37117  37134M 37157  37174M 37231  37248M 37271  37288M 37345  37362M
                                                 37385  37402M 37459  37476M 37499  37516M 37656  37673M 37730  37747M
                                                 37771  37788M 37832  37849M 38044M 38129  38146M 38188  38205M 38284
                                                 38301M 38376  38393M 38449  38466M 38522  38539M 38629  38646M 38708
                                                 38725M 45050M
 VTBFALT      32 0000000E FFFFFFDC        13545 49406M
 VTBFBBI       8 0000000E FFFFFFDC        13555 49320M
 VTBFCDI      16 0000000E FFFFFFDC        13550 49376M
 VTBFEBI       4 0000000E FFFFFFDC        13560 49346M
 VTBFLAG1      1 0000000E FFFFFFDC     R   13531 13535  13540  13545  13550  13555  13560
 VTBFLIC      64 0000000E FFFFFFDC        13540 49282M 49805  50180M
 VTBFPROC    128 0000000E FFFFFFDC        13535 24376M 24721M 24853M 24986M 25189M 25321M 25604M 25768M 25876M 26036M
                                                 26205M 26343M 26560M 26697M 26970M 27097M 35446M
 VTBHEAD      16 00000000 FFFFFFDC     J   13571 21196U 21576U 24290U 27589U 29079U 29102  29147  29147M 29147  31441U
                                                 36336  36351U 36355  36355M 36355  36922  36929  36929M 36929  36963
1VETS     (VETS2025) (12:59) (15MAR04) Ordinary Symbol and Literal Cross Reference                                          Page  237
                                                 36970  36970M 36970  37023  37030  37030M 37030  37064  37071  37071M
                                                 37071  37125  37132  37132M 37132  37165  37172  37172M 37172  37239
                                                 37246  37246M 37246  37279  37286  37286M 37286  37353  37360  37360M
                                                 37360  37393  37400  37400M 37400  37467  37474  37474M 37474  37507
                                                 37514  37514M 37514  37664  37671  37671M 37671  37738  37745  37745M
                                                 37745  37779  37786  37786M 37786  37840  37847  37847M 37847  38023
                                                 38038U 38042  38042M 38042  38137  38144  38144M 38144  38196  38203
                                                 38203M 38203  38292  38299  38299M 38299  38384  38391  38391M 38391
                                                 38457  38464  38464M 38464  38530  38537  38537M 38537  38637  38644
                                                 38644M 38644  38716  38723  38723M 38723  39034U 45007  45044U 45048
                                                 45048M 45048  46272U 46647  48882U 49748U 49786U 50113U 50151U 50678U
                                                 53715
 VTBID         4 00000000 FFFFFFDC     C   13524 21232  21612  27283  27683  29148M 36356M 36930M 36971M 37031M 37072M
                                                 37133M 37173M 37247M 37287M 37361M 37401M 37475M 37515M 37672M 37746M
                                                 37787M 37848M 38043M 38145M 38204M 38300M 38392M 38465M 38538M 38645M
                                                 38724M 45049M 46308  46379  49989
 VTBNEXT       4 00000004 FFFFFFDC     A   13525 21218  21598  24381  24414  24583  24726  24759  24858  24891  24991
                                                 25024  25194  25227  25326  25359  25609  25642  25773  25806  25881
                                                 25914  26041  26074  26210  26243  26348  26381  26565  26598  26702
                                                 26735  26971  27102  27135  27269  27669  29141M 31477  35451  35484
                                                 36927M 36968M 37028M 37069M 37130M 37170M 37244M 37284M 37358M 37398M
                                                 37472M 37512M 37669M 37743M 37784M 37845M 38142M 38201M 38297M 38389M
                                                 38462M 38535M 38642M 38721M 39048M 39048  39081M 39081  39089  39148
                                                 46294  46365  49692M 49692  49770  49776M 49975  50135  50141M 50166M
                                                 50166  50207
 VTBSEQNO      2 0000000C FFFFFFDC     H   13528 27634  48894M
 VTWA        164 00000000 FFFFFFDD     J   13505 15224U 16712U 18422U 19201U 19349U 19715U 45816  45838  48577U 51991U
                                                 52141U 52293U 53169U
 VTWAACBP      4 00000058 FFFFFFDD     A   13458 17248M 18454  20443  20682  22953  23512  28607  38957  39504  44936
                                                 45316  48206  52694
 VTWAAPPL      8 0000004C FFFFFFDD     C   13456 15326  15340  15391  15396  16814M 16823M 16850  16863M 16878  17701
                                                 22218M 22983  23563
 VTWACID       4 00000054 FFFFFFDD     F   13457 23337M 23381  23410  23439  23468
 VTWAECB       4 00000040 FFFFFFDD     F   13453 20036  20068M 20068  20085M 20085  49840  50239  50952  51471  52032
                                                 52182  52509  52676  52992  53357
 VTWANIBP      4 0000005C FFFFFFDD     A   13459 17274  17303M 22068  22088M 22939  23351M 23507  46446  46453M 46453
 VTWAR         6 00000006 00000001 A   #    1130 19715U
 VTWBINDP      4 00000048 FFFFFFDD     A   13455 22180  46406  46413M 46413  52417  52445M
 VTWBUFGC      4 0000003C FFFFFFDD     F   13451 22814  22896M 38583  40778
 VTWBUFL       4 00000024 FFFFFFDD     F   13438 19414M 19414  29497  29732  29974  30413  30478  30740  30747  30986
                                                 31087  31959  32047  32070  32116  32536  32816  33177  33296  33941
                                                 34056  34101  34152  34265  34461  34492  34612  34650  34767  34790
                                                 34835  35037  35178  35337  35689  36004  36775  37695  40739  41625
                                                 41850
 VTWBUFLA      4 00000034 FFFFFFDD     F   13446 22811M 38566
 VTWBUFLD      4 0000002C FFFFFFDD     F   13442 22808M 22826  22833  38566
 VTWCOLP       4 0000009C FFFFFFDD     A   13497 22877  22917M 29564  29673  29956  31007  31062  32799  32878  33042
                                                 33806  35274  36110  37308  40811  41808  42315  43119  46539  46546M
                                                 46546
 VTWCPSAV      4 00000088 FFFFFFDD     F   13474 15228  46056M 48579  51993  52143  52295  53171
 VTWCSP        4 000000A0 FFFFFFDD     A   13498 22882  22924M 29568  29677  29959  31011  31066  32801  32880  33074
                                                 33838  35277  36138  37422  40827  41818  42325  43704  46570  46577M
                                                 46577
 VTWFALT       2 00000004 FFFFFFDD        13186 25090M 25113M 32319M 32342M 36636M
 VTWFBEL       8 00000007 FFFFFFDD        13308 32452M 44132  44173M
 VTWFBUSQ     16 00000005 FFFFFFDD        13215 52354  52367M 52389M 52609  52633M
 VTWFCLNU      2 00000005 FFFFFFDD        13230 53230M 53275M 53320M
 VTWFCOLOR
              64 00000007 FFFFFFDD        13293 38262  41005M 41028M 45978M
1VETS     (VETS2025) (12:59) (15MAR04) Ordinary Symbol and Literal Cross Reference                                          Page  238
 VTWFDR       64 00000005 FFFFFFDD        13205 22286  22286  22287M 22312  22312  22313M 22340M
 VTWFER       32 00000005 FFFFFFDD        13210 22286  22286  22312  22312  22367M
 VTWFFREZ      8 00000004 FFFFFFDD        13176 40487M 46198
 VTWFGE       16 00000007 FFFFFFDD        13303 35233  38110  46034  46034
 VTWFHATT     16 00000004 FFFFFFDD        13171 28477  28842M 51397M
 VTWFHI       32 00000007 FFFFFFDD        13298 38354  46034  46034  46035M
 VTWFKLOK      4 00000007 FFFFFFDD        13313 21912  27431  28013  30930M 32232M 32477M 39680  52949
 VTWFLAG1      1 00000004 FFFFFFDD     R   13152 13156  13161  13166  13171  13176  13181  13186  13191
 VTWFLAG2      1 00000005 FFFFFFDD     R   13196 13200  13205  13210  13215  13220  13225  13230  13235
 VTWFLAG3      1 00000006 FFFFFFDD     R   13240 13244  13249  13254  13259  13264  13269  13274  13279
 VTWFLAG4      1 00000007 FFFFFFDD     R   13284 13288  13293  13298  13303  13308  13313
 VTWFLOST      4 00000005 FFFFFFDD        13225 52173M 52660M
 VTWFLPR       1 00000004 FFFFFFDD        13191 49234M 49256M
 VTWFRCDI     64 00000006 FFFFFFDD        13249 26126M 27336  27336  27337  27566M 27995  27995  49298M 49380M 49940
                                                 50267
 VTWFREBI     32 00000006 FFFFFFDD        13254 27336  27336  27410  27995  27995  27996M 39622  49350M
 VTWFRNXT      4 00000004 FFFFFFDD        13181 24254M 24316  27203  29047  31411M 32684M 49913
 VTWFSBBI      8 00000006 FFFFFFDD        13264 28200M 30817  30835M 39210  50940M
 VTWFSDR       4 00000006 FFFFFFDD        13269 39497  39643  40251  40251  40252  40252  49491M
 VTWFSHUT      8 00000005 FFFFFFDD        13220 20663  20676M 51462M
 VTWFSR1       2 00000006 FFFFFFDD        13274 27607  27607  27608  39466  39466  39467  39741  40250  40250  40251
                                                 40251  40253M 49433M 49653  49653  49654  49666M 50378  50378  50379
                                                 50391M
 VTWFSR2       1 00000006 FFFFFFDD        13279 27607  27607  39466  39466  39767  40250  40250  40252  40252  49459M
                                                 49653  49653  50378  50378
 VTWFTEND      1 00000005 FFFFFFDD        13235 52023M
 VTWFUACT    128 00000004 FFFFFFDD        13156 16719M 18452M 19249M 19397M 20058M 20123M 30802M 40857  41401M 44254M
                                                 49592  49824  50223  50459  51796  52687
 VTWFWSCR    128 00000006 FFFFFFDD        13244 19438M 27231  32244M 32621M 32702M 41576M
 VTWF14B      64 00000004 FFFFFFDD        13161 40727M 40751M 44656  44681M 44829M
 VTWF3270    128 00000007 FFFFFFDD        13288 41123  41944  42148  42243  46004M
 VTWHEI        2 00000020 FFFFFFDD     H   13436 22812M 25091M 25114M 32320M 32343M 36637M 41056  41201
 VTWHEIA       2 00000030 FFFFFFDD     H   13444 22451M 22482M 22513M 22544M 22575M 22606M 22625M 22683M 22710M 22771M
                                                 22771  22778M 22809  25114  32343  38553  38662
 VTWHEID       2 00000028 FFFFFFDD     H   13440 22429M 22684M 22708M 22727M 22727  22734M 22778  22806  22812  25091
                                                 32320  36637  38573  38660
 VTWHEIT       2 00000038 FFFFFFDD     H   13448 22433  40935M 41056  45908M
 VTWHIP        4 00000098 FFFFFFDD     A   13496 22872  22910M 29560  29669  29953  31003  31058  32797  32876  33010
                                                 33774  35271  36082  37194  40795  41798  42305  42730  46508  46515M
                                                 46515
 VTWIBLST      4 00000070 FFFFFFDD     F   13464 21537  21560M 21560  39117M 46224  46231M 46231
 VTWICPOS      4 00000090 FFFFFFDD     F   13477 30754M 31856M 31856  31997M 32162  32169M 33994M 36685  40777M 40777
                                                 44178
 VTWID         4 00000000 FFFFFFDD     C   13148 45841M
 VTWIRUC       4 00000068 FFFFFFDD     F   13462 21566  21645M 21645  29117M 29117  29124M 36358M 38045M 38775  39024
                                                 39118  46255  46262M 46262
 VTWLNSAV      4 0000008C FFFFFFDD     F   13475 46083M 49598  50465  51413  51802
 VTWORUC       4 0000006C FFFFFFDD     F   13463 21186  21265M 21265  27246  27316M 27316  27646  27716M 27716  31431
                                                 46335  46342M 46342  49700  49715M 49952  50021M 50021  50065  50080M
                                                 50182
 VTWQLIST     16 00000010 FFFFFFDD     X   13433 25579M 25579  25712M 26011M 27871  38081  40573
 VTWR          1 0000000A FFFFFFDD     X   13404 13406  13409  13412  13415
 VTWRBID       4 0000000A FFFFFFDD        13415 39901  49146M 50366M
 VTWRCAN       2 0000000A FFFFFFDD        13409 39829  49074M 50064M
 VTWRCMD       1 0000000E FFFFFFDD     X   13431 24662  25429M 25460M 25491M 27520  28496  31814M 36376  36393  36467
                                                 36504  37915M 49901
 VTWRFDBK      2 00000086 FFFFFFDD     H   13473 49202M
 VTWRLUS       3 0000000A FFFFFFDD        13412 39865  49110M 50320M
 VTWRMODE      1 0000000F FFFFFFDD     X   13432 25125M 26451M 26482M 26513M 32512M 36644M 36893
1VETS     (VETS2025) (12:59) (15MAR04) Ordinary Symbol and Literal Cross Reference                                          Page  239
 VTWRRTN       2 00000084 FFFFFFDD     H   13472 49201M
 VTWRRTNC      4 00000084 FFFFFFDD     F   13471 21170  21450M 21450  49195M 49195
 VTWRSENS      4 0000007C FFFFFFDD     F   13467 20105M 20105  20152  20215M 20215  21421  21774  50321M 51331M
 VTWRSIZI      4 00000060 FFFFFFDD     F   13460 22381M 29101  36335  36921  36962  37022  37063  37124  37164  37238
                                                 37278  37352  37392  37466  37506  37663  37737  37778  37839  38022
                                                 38136  38195  38291  38383  38456  38529  38636  38715
 VTWRSIZO      4 00000064 FFFFFFDD     F   13461 22391M 45006
 VTWRUD        1 0000000A FFFFFFDD        13406 27640M 39793  49168M 49469M 49641M
 VTWSECB       4 00000044 FFFFFFDD     F   13454 17405M 17405  17418  17463  17757M 17757  17807  17841  18757M 18757
                                                 18770  18816  20756M 20756  20769  20806  22991M 22991  23011  23045
                                                 23570M 23570  23590  23635  39928M 39928  39941  39985  45387M 45387
                                                 45400  45450
 VTWSFDBK      2 00000082 FFFFFFDD     H   13470 50926M
 VTWSRSEQ      2 00000074 FFFFFFDD     H   13465 27634M 39590  40263M 40263  49051M 49411M
 VTWSRTN       2 00000080 FFFFFFDD     H   13469 50925M
 VTWSRTNC      4 00000080 FFFFFFDD     F   13468 21647  21799M 21799  50919M 50919
 VTWSSENS      4 00000078 FFFFFFDD     F   13466 27627M 27627  27633M 27728  39484  40258M 40258  49044M 49044  49050M
                                                 49671M 50443M 50443  50490M
 VTWTEXTP      4 00000094 FFFFFFDD     A   13495 22867  22903M 29550  29659  29950  30517  30593  30999  31048  31861
                                                 31975  32122  32537  32791  32870  32978  33140  33601  33742  33904
                                                 34117  34670  34716  34841  34910  35107  35269  35688  35847  36054
                                                 36804  40779  41668  41882  46477  46484M 46484
 VTWWID        2 00000022 FFFFFFDD     H   13437 30378  30705  41071  41242  41860  44354
 VTWWIDA       2 00000032 FFFFFFDD     H   13445 22431M 22711M 22793M 22793  22800M 22810  38552  38661
 VTWWIDD       2 0000002A FFFFFFDD     H   13441 22709M 22749M 22749  22756M 22800  22807  38572  38659
 VTWWIDT       2 0000003A FFFFFFDD     H   13449 22431  40982M 41071  41283  45955M
 WAITECB       1 00000000 0000000D     T   18288 18288  19674  23744  40584  46650
 WAITER        1 00000000 00000013     T   48343 48343
 WAR           8 00000008 00000001 A   #    1026 14412M 14488  14523M 14600  15690M 15944  15955  16002M 16138  16149
                                                 16653M 18209  18232  19600M 19659  21144M 21461  21509M 21815  21860M
                                                 21974  22040M 23726  23833M 23973  24018M 24126  24202M 27827  27961M
                                                 28278  28333M 28381  28429M 28853  28973M 31175  31365M 35416  35536
                                                 35659M 35757  35768  35818M 35914  35925  35979M 36166  36181  36292M
                                                 37936  37996M 38815  38928M 39385  39428M 40274  40319M 40410  40456M
                                                 40553  40695M 41426  41530M 44289  44323M 44477  44596M 44719  44730
                                                 44785M 44857  44872  44909M 45223  45267M 45728  45761M 46094  46139M
                                                 46629  46705M 47374  47402  47475M 48098  48100  48133  48178M 48316
                                                 48388M 48773  48823M 50572  50619M 51051  51099M 51661  51710M 51845
 WRAPTOP      16 00000018 FFFFFFD9        28924 29490  29490  29491  29584M 30458  30458  30460  30460  30657M 30979
                                                 30979  30980  31027M
 WRITEF        1 00000008 FFFFFFD4     R   41459 41463  41468  41473  41478  41483
 WRITESCR      2 00005BCA 00000001     H   41518 19688  27888
 WRITESF       2 00002CB0 00000001     H   26859 26801B 26820B
 WRITEWA      18 00000000 FFFFFFD4     J   41501 41531  41560U 41571M 41571  44293  44295  44296
 WSCRATCH      1 00000011 FFFFFFD4     X   41494 43922M 43933  44060M 44071
 WTOSG         1 00000000 00000000 A   T    3494  3494
 WYLVETS       1 00000000 00000001     J     990   992   1008   1021   1034   1046   1059   1072   1085   1098   1111
                                                  1124   1138   1187   7998   8839  13131  13506  13572  13633  15766
 =A(APLTEXT)
               4 00006398 00000001     A   44510 43975
 =A(APPLEND-APPLTABL)
               4 00001074 00000001     A   18282 16843
 =A(APPLTABL)
               4 00001070 00000001     A   18281 16828
 =A(B'00111101')
               4 000058C0 00000001     A   40572 36940  37090
 =A(BUFTODIS)
               4 000058B4 00000001     A   40569 36688  37712
 =A(C'[')      4 00003A9C 00000001     A   31196 30052
1VETS     (VETS2025) (12:59) (15MAR04) Ordinary Symbol and Literal Cross Reference                                          Page  240
 =A(C'C')      4 00003AA8 00000001     A   31199 30320
 =A(C'R')      4 00003AAC 00000001     A   31200 30339
 =A(C'V')      4 00003AA4 00000001     A   31198 30301
 =A(CLEARSCR)
               4 00001608 00000001     A   19687 19430
 =A(CLEARSCR)
               4 000024C0 00000001     A   23774 21957
 =A(CLEARSCR)
               4 00002F60 00000001     A   27856 25132
 =A(CLEARSCR)
               4 000047D8 00000001     A   35568 32354
 =A(CLEARSCR)
               4 000058B0 00000001     A   40568 36651
 =A(DISTOBUF)
               4 0000482C 00000001     A   35589 33283  34252  34598
 =A(DOCONT)
               4 00002460 00000001     A   23750 20346  21090
 =A(DOINB)
               4 0000245C 00000001     A   23749 20280
 =A(DOOUTB)
               4 00002458 00000001     A   23748 20247  20313
 =A(ERROR10A)
               4 0000109C 00000001     A   18292 17622  18000
 =A(ERROR10A)
               4 000015E4 00000001     A   19678 18975
 =A(ERROR10A)
               4 00002478 00000001     A   23756 20958  21286  21681  23203
 =A(ERROR10A)
               4 000058FC 00000001     A   40587 40137
 =A(ERROR10A)
               4 00006C08 00000001     A   46653 45602
 =A(FINDNFAC)
               4 00003A84 00000001     A   31190 29208  30566  30639  30664
 =A(FINDNFAC)
               4 000047C4 00000001     A   35563 32056  32561  34042  34776  35023
 =A(FINDNFAC)
               4 000058B8 00000001     A   40570 36723  37582  37603
 =A(FINDPFAC)
               4 00003AB0 00000001     A   31201 30465  30481
 =A(FINDPFAC)
               4 000047C0 00000001     A   35562 31962  34636  34653
 =A(FINDPFAC)
               4 00006368 00000001     A   44498 41628
 =A(FREEACB)
               4 00006C28 00000001     A   46661 46221
 =A(FREEVTWA)
               4 000010AC 00000001     A   18296 17686  18150  18202
 =A(FREEVTWA)
               4 000015F0 00000001     A   19681 19026  19642
 =A(FREEVTWA)
               4 00002490 00000001     A   23762 21035  21424  21777  23292  23643  23693
 =A(FREEVTWA)
               4 00002F08 00000001     A   27842 23955  24108
 =A(FREEVTWA)
               4 00003208 00000001     A   28292 28116
 =A(FREEVTWA)
               4 000033B0 00000001     A   28869 28552
 =A(FREEVTWA)
               4 00005914 00000001     A   40593 40214  40391  40534
1VETS     (VETS2025) (12:59) (15MAR04) Ordinary Symbol and Literal Cross Reference                                          Page  241
 =A(FREEVTWA)
               4 0000631C 00000001     A   44491 41079
 =A(FREEVTWA)
               4 00006C20 00000001     A   46659 45679
 =A(GENACB)
               4 000007A4 00000001     A   16553 14170
 =A(GETACB)
               4 00001084 00000001     A   18286 17211
 =A(GETVTWA)
               4 00001060 00000001     A   18277 16702
 =A(L'VTWQLIST)
               4 00002F9C 00000001     A   27871 26000
 =A(L'VTWQLIST)
               4 000058C4 00000001     A   40573 38070
 =A(LASTAACB)
               4 00007308 00000001     A   48341 47527
 =A(MAINLINE)
               4 00000840 00000001     A   16568 16537
 =A(MAINLINE)
               4 00001604 00000001     A   19686 19420  19464
 =A(MAINLIN1)
               4 00001610 00000001     A   19689 19463
 =A(PATHBRKN)
               4 00001094 00000001     A   18290 17598  17675  17976  18107
 =A(PATHBRKN)
               4 000015DC 00000001     A   19676 18951  19015
 =A(PATHBRKN)
               4 0000248C 00000001     A   23761 21024  21414  21767  23179  23281
 =A(PATHBRKN)
               4 00005910 00000001     A   40592 40203
 =A(PATHBRKN)
               4 00006C1C 00000001     A   46658 45668
 =A(PRCESSCR)
               4 00002F30 00000001     A   27844 24257
 =A(PRCESSCR)
               4 0000809C 00000001     A   53720 49867
 =A(PROCBIND)
               4 00002438 00000001     A   23740 19865
 =A(PROCLOST)
               4 000015F8 00000001     A   19683 19056  19085
 =A(PROCLOST)
               4 00002430 00000001     A   23738 19785
 =A(PROCRCVC)
               4 00002444 00000001     A   23743 19985
 =A(PROCSDT)
               4 0000243C 00000001     A   23741 19905
 =A(PROCSENC)
               4 00002440 00000001     A   23742 19945
 =A(PROCUBIR)
               4 00002434 00000001     A   23739 19825
 =A(READSEND)
               4 00002FF8 00000001     A   27894 27554
 =A(REPEATOA)
               4 000047C8 00000001     A   35564 32097  34082  34464  34478  34817  35085
 =A(SENDCHAN)
               4 00003A80 00000001     A   31189 29179
 =A(SENDQR)
               4 00002FA4 00000001     A   27873 26118
 =A(SENDRESP)
1VETS     (VETS2025) (12:59) (15MAR04) Ordinary Symbol and Literal Cross Reference                                          Page  242
               4 00002468 00000001     A   23752 20412
 =A(SENDRESP)
               4 00002FEC 00000001     A   27891 27378  27731
 =A(SENDRESP)
               4 00003214 00000001     A   28295 28266
 =A(SENDRESP)
               4 000033A4 00000001     A   28866 28460
 =A(SENDSCR)
               4 00002FF4 00000001     A   27893 27528
 =A(SENDSCR)
               4 000033A8 00000001     A   28867 28505
 =A(SENDSCR)
               4 00003AC0 00000001     A   31205 31154
 =A(SRBROUT)
               4 0000246C 00000001     A   23753 20507
 =A(SRBROUT)
               4 000033B8 00000001     A   28871 28683
 =A(SRBROUT)
               4 000058EC 00000001     A   40583 39260
 =A(SRBROUT)
               4 00006BF8 00000001     A   46649 45061
 =A(SRBROUT)
               4 000080C8 00000001     A   53731 51496
 =A(SRECEIVE)
               4 00002464 00000001     A   23751 20379  20416
 =A(SRECEIVE)
               4 00002FF0 00000001     A   27892 27382  27750
 =A(SRECEIVE)
               4 00003200 00000001     A   28290 28001
 =A(SRECEIVE)
               4 000033A0 00000001     A   28865 28368
 =A(SRECEIVE)
               4 000080AC 00000001     A   53724 50538
 =A(SSIGNAL)
               4 000015FC 00000001     A   19684 19253
 =A(SSIGNAL)
               4 00003210 00000001     A   28294 28225
 =A(SSIGNAL)
               4 000033C0 00000001     A   28873 28804
 =A(UPDATSCR)
               4 0000320C 00000001     A   28293 28203
 =A(UPDATSCR)
               4 000033BC 00000001     A   28872 28782
 =A(VTBDATA-VTBHEAD)
               4 00006BF0 00000001     A   46647 45030
 =A(VTBDATA-VTBHEAD)
               4 00008088 00000001     A   53715 48872  50668
 =A(WRITESCR)
               4 0000160C 00000001     A   19688 19457
 =A(WRITESCR)
               4 00002FE0 00000001     A   27888 27240
 =A(X'A6')
               4 000058DC 00000001     A   40579 38610
 =A(X'C0')
               4 00004808 00000001     A   35580 32971  33735
 =A(X'C000')
               4 00006BE0 00000001     A   46643 44810
 =A(X'D0')
               4 00002FD8 00000001     A   27886 26852
1VETS     (VETS2025) (12:59) (15MAR04) Ordinary Symbol and Literal Cross Reference                                          Page  243
 =A(X'FF')
               4 00002F80 00000001     A   27864 25538
 =A(X'FF')
               4 00003A90 00000001     A   31193 29865  30909
 =A(X'FFF')
               4 00006318 00000001     A   44490 40739
 =A(X'FFF')
               4 00006BDC 00000001     A   46642 44669
 =A(X'F0')
               4 000007DC 00000001     A   16561 15865
 =A(X'F1')
               4 000047DC 00000001     A   35569 32383
 =A(X'F1')
               4 0000637C 00000001     A   44503 42947  43336  43880  43968
 =A(X'F2')
               4 00002F78 00000001     A   27862 25453
 =A(X'F2')
               4 000047B0 00000001     A   35558 31780
 =A(X'F2')
               4 00006380 00000001     A   44504 42996  43385
 =A(X'F3')
               4 0000478C 00000001     A   35549 31528
 =A(X'F3')
               4 00006388 00000001     A   44506 43434
 =A(X'F4')
               4 00006384 00000001     A   44505 43045  43483
 =A(X'F5')
               4 000047D0 00000001     A   35566 32275  32306
 =A(X'F5')
               4 0000638C 00000001     A   44507 43532
 =A(X'F6')
               4 000047B4 00000001     A   35559 31794
 =A(X'F6')
               4 00006390 00000001     A   44508 43581
 =A(X'F7')
               4 00006394 00000001     A   44509 43630
 =A(X'F9')
               4 000007E4 00000001     A   16563 15885
 =A(X'0B')
               4 000080B0 00000001     A   53725 50822
 =A(X'0C')
               4 000080B4 00000001     A   53726 50844
 =A(X'0D')
               4 000080B8 00000001     A   53727 50858
 =A(X'0F')
               4 00002FC8 00000001     A   27882 26667
 =A(X'00')
               4 00002F6C 00000001     A   27859 25291  26306  26444
 =A(X'000A')
               4 00001098 00000001     A   18291 17613  17991
 =A(X'000A')
               4 000015E0 00000001     A   19677 18966
 =A(X'000A')
               4 00002474 00000001     A   23755 20949  23194
 =A(X'000A')
               4 000058F8 00000001     A   40586 40128
 =A(X'000A')
               4 00006C04 00000001     A   46652 45593
 =A(X'000C000B')
1VETS     (VETS2025) (12:59) (15MAR04) Ordinary Symbol and Literal Cross Reference                                          Page  244
               4 000024AC 00000001     A   23769 21353
 =A(X'000C000C')
               4 000024A4 00000001     A   23767 21318
 =A(X'000D')
               4 000010A4 00000001     A   18294 17653  18085
 =A(X'000D')
               4 000015E8 00000001     A   19679 18993
 =A(X'000D')
               4 000024D0 00000001     A   23778 23259
 =A(X'000E')
               4 000010A8 00000001     A   18295 17666  18098
 =A(X'000E')
               4 000015EC 00000001     A   19680 19006
 =A(X'000E')
               4 00002488 00000001     A   23760 21015  23272
 =A(X'000E')
               4 0000590C 00000001     A   40591 40194
 =A(X'000E')
               4 00006C18 00000001     A   46657 45659
 =A(X'0000')
               4 000010B0 00000001     A   18297 18018
 =A(X'0000')
               4 000024CC 00000001     A   23777 23219
 =A(X'0002')
               4 000010B4 00000001     A   18298 18031
 =A(X'0003')
               4 000010A0 00000001     A   18293 17640  18072
 =A(X'0003')
               4 0000247C 00000001     A   23757 20976  23246
 =A(X'0003')
               4 00005900 00000001     A   40588 40155
 =A(X'0003')
               4 00006C0C 00000001     A   46654 45620
 =A(X'00040003')
               4 000024A0 00000001     A   23766 21305
 =A(X'0007')
               4 00002480 00000001     A   23758 20989
 =A(X'0007')
               4 00005904 00000001     A   40589 40168
 =A(X'0007')
               4 00006C10 00000001     A   46655 45633
 =A(X'0009')
               4 00002484 00000001     A   23759 21002
 =A(X'0009')
               4 00005908 00000001     A   40590 40181
 =A(X'0009')
               4 00006C14 00000001     A   46656 45646
 =A(X'0010000A')
               4 0000249C 00000001     A   23765 21277  21672
 =A(X'0010000D')
               4 000024A8 00000001     A   23768 21331  21697
 =A(X'0010000E')
               4 000024BC 00000001     A   23773 21405  21758
 =A(X'00100003')
               4 000024B0 00000001     A   23770 21366  21719
 =A(X'00100007')
               4 000024B4 00000001     A   23771 21379  21732
 =A(X'00100009')
               4 000024B8 00000001     A   23772 21392  21745
1VETS     (VETS2025) (12:59) (15MAR04) Ordinary Symbol and Literal Cross Reference                                          Page  245
 =A(X'0012')
               4 000010B8 00000001     A   18299 18044
 =A(X'0013')
               4 000015F4 00000001     A   19682 19047
 =A(X'004B')
               4 000010BC 00000001     A   18300 18127
 =A(X'01')
               4 00002F64 00000001     A   27857 25158  26475
 =A(X'02')
               4 00002FBC 00000001     A   27879 26506  26798
 =A(X'03')
               4 00002F54 00000001     A   27853 24955
 =A(X'03')
               4 00008090 00000001     A   53717 49028
 =A(X'04')
               4 0000636C 00000001     A   44499 41700  42075
 =A(X'04')
               4 000080C4 00000001     A   53730 51286
 =A(X'05')
               4 00004860 00000001     A   35602 34027
 =A(X'08')
               4 00004878 00000001     A   35608 34316  35218
 =A(X'08')
               4 00006370 00000001     A   44500 41745  42120
 =A(X'09')
               4 00002FAC 00000001     A   27875 26174
 =A(X'1D')
               4 000047EC 00000001     A   35573 32755
 =A(X'1F')
               4 00002FD0 00000001     A   27884 26817
 =A(X'10')
               4 00006378 00000001     A   44502 42454
 =A(X'10030021')
               4 000047E0 00000001     A   35570 32389
 =A(X'10050001')
               4 00002F38 00000001     A   27846 24454
 =A(X'10050002')
               4 00002F48 00000001     A   27850 24799
 =A(X'10050003')
               4 00002F50 00000001     A   27852 24931
 =A(X'10050004')
               4 00002F68 00000001     A   27858 25267
 =A(X'10050005')
               4 00002FA8 00000001     A   27874 26144
 =A(X'10050006')
               4 00002F84 00000001     A   27865 25561
 =A(X'10050007')
               4 00002F88 00000001     A   27866 25682
 =A(X'10050008')
               4 00002F94 00000001     A   27869 25846
 =A(X'10050009')
               4 00002F98 00000001     A   27870 25954
 =A(X'10050010')
               4 00002FA0 00000001     A   27872 26109
 =A(X'10050015')
               4 00004790 00000001     A   35550 31548
 =A(X'10050016')
               4 00004794 00000001     A   35551 31580
 =A(X'10050017')
1VETS     (VETS2025) (12:59) (15MAR04) Ordinary Symbol and Literal Cross Reference                                          Page  246
               4 0000479C 00000001     A   35553 31625
 =A(X'10050018')
               4 000047A4 00000001     A   35555 31680
 =A(X'10050019')
               4 000047A8 00000001     A   35556 31708
 =A(X'10050020')
               4 000047AC 00000001     A   35557 31730
 =A(X'10050022')
               4 000047E4 00000001     A   35571 32419
 =A(X'10050023')
               4 000047F0 00000001     A   35574 32775
 =A(X'10050024')
               4 00004800 00000001     A   35578 32896
 =A(X'10050025')
               4 00004804 00000001     A   35579 32941
 =A(X'10050026')
               4 00004818 00000001     A   35584 33093
 =A(X'10050027')
               4 0000481C 00000001     A   35585 33115
 =A(X'10050028')
               4 00004824 00000001     A   35587 33244
 =A(X'10050029')
               4 00004828 00000001     A   35588 33273
 =A(X'10050030')
               4 00004838 00000001     A   35592 33397
 =A(X'10050031')
               4 0000483C 00000001     A   35593 33521
 =A(X'10050032')
               4 00004840 00000001     A   35594 33543
 =A(X'10050033')
               4 00004848 00000001     A   35596 33640
 =A(X'10050034')
               4 0000484C 00000001     A   35597 33661
 =A(X'10050035')
               4 00004850 00000001     A   35598 33706
 =A(X'10050036')
               4 00004854 00000001     A   35599 33857
 =A(X'10050037')
               4 00004858 00000001     A   35600 33879
 =A(X'10050038')
               4 00004868 00000001     A   35604 34213
 =A(X'10050039')
               4 0000486C 00000001     A   35605 34242
 =A(X'10050040')
               4 00004874 00000001     A   35607 34293
 =A(X'10050041')
               4 0000487C 00000001     A   35609 34342
 =A(X'10050042')
               4 00004884 00000001     A   35611 34559
 =A(X'10050043')
               4 00004888 00000001     A   35612 34588
 =A(X'10050044')
               4 0000488C 00000001     A   35613 34619
 =A(X'10050045')
               4 00004830 00000001     A   35590 33303
 =A(X'10050046')
               4 00002F70 00000001     A   27860 25399
 =A(X'10050047')
               4 00002F7C 00000001     A   27863 25508
1VETS     (VETS2025) (12:59) (15MAR04) Ordinary Symbol and Literal Cross Reference                                          Page  247
 =A(X'10050047')
               4 00004870 00000001     A   35606 34272
 =A(X'10050048')
               4 00002F58 00000001     A   27854 25064
 =A(X'10050049')
               4 00002FB0 00000001     A   27876 26283
 =A(X'10050050')
               4 00002FB4 00000001     A   27877 26313
 =A(X'10050051')
               4 00002FB8 00000001     A   27878 26421
 =A(X'10050052')
               4 00002FC0 00000001     A   27880 26530
 =A(X'10050053')
               4 00002FC4 00000001     A   27881 26640
 =A(X'10050054')
               4 00002FCC 00000001     A   27883 26775
 =A(X'10050055')
               4 00002FD4 00000001     A   27885 26826
 =A(X'10050056')
               4 00002FDC 00000001     A   27887 27051
 =A(X'11')
               4 00004820 00000001     A   35586 33224
 =A(X'12')
               4 00004880 00000001     A   35610 34539
 =A(X'12')
               4 000080BC 00000001     A   53728 50884
 =A(X'13')
               4 0000485C 00000001     A   35601 33988
 =A(X'13')
               4 000080C0 00000001     A   53729 50898
 =A(X'2')      4 00000794 00000001     A   16549 13844
 =A(X'2C')
               4 00004844 00000001     A   35595 33595
 =A(X'27')
               4 00003A8C 00000001     A   31192 29845
 =A(X'28')
               4 00004834 00000001     A   35591 33343
 =A(X'29')
               4 000047FC 00000001     A   35577 32863
 =A(X'3')      4 00000798 00000001     A   16550 13908
 =A(X'3B')
               4 00003A98 00000001     A   31195 29918
 =A(X'3C')
               4 00004864 00000001     A   35603 34193
 =A(X'3F')
               4 000047F4 00000001     A   35575 32789  33146  33910
 =A(X'3F')
               4 00006BE8 00000001     A   46645 44849
 =A(X'3FFF')
               4 00006BD8 00000001     A   46641 44621  44823
 =A(X'3F00')
               4 00006BE4 00000001     A   46644 44846
 =A(X'40')
               4 00003A94 00000001     A   31194 29898
 =A(X'40')
               4 000047A0 00000001     A   35554 31650  31882  32723  33633  34383  34731  34931
 =A(X'40')
               4 00004A10 00000001     A   36193 35721  35878
 =A(X'40')
1VETS     (VETS2025) (12:59) (15MAR04) Ordinary Symbol and Literal Cross Reference                                          Page  248
               4 000058BC 00000001     A   40571 36823
 =A(X'40')
               4 00006374 00000001     A   44501 41915
 =A(X'41')
               4 0000480C 00000001     A   35581 33003  33431  33767
 =A(X'42')
               4 00004810 00000001     A   35582 33035  33463  33799
 =A(X'43')
               4 00004814 00000001     A   35583 33067  33495  33831
 =A(X'6E')
               4 00002F74 00000001     A   27861 25422  25484
 =A(X'6E')
               4 000047B8 00000001     A   35560 31808
 =A(X'6F')
               4 000047BC 00000001     A   35561 31839
 =A(X'65')
               4 000033B4 00000001     A   28870 28601
 =A(X'7E')
               4 000047D4 00000001     A   35567 32289
 =A(X'7FFFFFF')
               4 00002F34 00000001     A   27845 24305
 =A(X'7FFFFFFF')
               4 00004788 00000001     A   35548 31412  31604  31761
 =A(X'70')
               4 000047E8 00000001     A   35572 32673
 =A(X'80')
               4 000058E0 00000001     A   40580 38689
 =A(X'80000000')
               4 00002F5C 00000001     A   27855 25071
 =A(X'81')
               4 000058D8 00000001     A   40578 38503
 =A(X'85')
               4 000058C8 00000001     A   40574 38095
 =A(X'86')
               4 000058CC 00000001     A   40575 38247
 =A(X'87')
               4 000058D0 00000001     A   40576 38339
 =A(X'88')
               4 00003ABC 00000001     A   31204 30885
 =A(X'88')
               4 000058D4 00000001     A   40577 38430
 =A(1)         4 000007E0 00000001     A   16562 15873
 =A(1)         4 0000107C 00000001     A   18284 17185
 =A(1)         4 000047CC 00000001     A   35565 32208  34895  34997  35161
 =A(255)       4 00002F3C 00000001     A   27847 24512
 =A(255)       4 00003AB4 00000001     A   31202 30762  30774
 =A(256)       4 00003A88 00000001     A   31191 29289  29301
 =A(28)        4 00001090 00000001     A   18289 17564  17576  17942  17954
 =A(28)        4 000015D8 00000001     A   19675 18917  18929
 =A(28)        4 00002470 00000001     A   23754 20907  20919  23146  23158
 =A(28)        4 000058F4 00000001     A   40585 40086  40098
 =A(28)        4 00006C00 00000001     A   46651 45551  45563
 =A(28)        4 0000808C 00000001     A   53716 48984  48996  50779  50791  51243  51255
 =A(8)         4 000007A0 00000001     A   16552 14014  14026  15732  15744
 =A(8)         4 0000106C 00000001     A   18280 16786  16798  17053  17065
 =C'   -- '
               6 00000874 00000001     C   16575 15351
 =C' has been received from the Application'
              39 000024F7 00000001     C   23792 20176
1VETS     (VETS2025) (12:59) (15MAR04) Ordinary Symbol and Literal Cross Reference                                          Page  249
 =C';'         1 000063BE 00000001     C   44528 41228  41269  43260  44413
 =C';12'       3 000063C4 00000001     C   44532 42472
 =C';4'        2 000063A8 00000001     C   44517 43056
 =C';5'        2 000063A4 00000001     C   44515 42958
 =C';7'        2 000063A6 00000001     C   44516 43007
 =C';8'        2 000063AA 00000001     C   44518 43095
 =C'f'         1 000063CC 00000001     C   44538 44453
 =C'i'         1 000063BF 00000001     C   44529 41310
 =C'm '        2 0000639C 00000001     C   44511 42034
 =C'm'         1 000063CB 00000001     C   44537 43685
 =C'off'       3 000008ED 00000001     C   16581 13936
 =C'on'        2 0000085A 00000001     C   16572 13872
 =C'production Wylbur.'
              18 00000844 00000001     C   16569 13700  14678  16219  16340  16443
 =C'production Wylbur.'
              18 00001638 00000001     C   19691 18403  19182  19330  19540
 =C'A Sense of '
              11 000024EC 00000001     C   23791 20133
 =C'Active'
               6 0000085C 00000001     C   16573 14945
 =C'Command not yet available in '
              29 000008BE 00000001     C   16578 13682  14660  16201  16322
 =C'Enter VGO to continue'
              21 0000251E 00000001     C   23793 20194
 =C'F'         1 000063C9 00000001     C   44535 42591
 =C'GENACB FAILED'
              13 000008F0 00000001     C   16582 14189
 =C'Inactive'
               8 00000738 00000001     C   16541 14911
 =C'Interface  '
              11 000008FD 00000001     C   16583 14805
 =C'Invalid command'
              15 000008DB 00000001     C   16579 13728
 =C'No Allocated Terminals Exist'
              28 000007C0 00000001     C   16560 15604
 =C'No Terminals exist'
              18 00000862 00000001     C   16574 14990
 =C'OFF  '
               5 0000090D 00000001     C   16585 14873
 =C'OFF '      4 000007B8 00000001     C   16558 15181
 =C'OFF'       3 000008EA 00000001     C   16580 13923
 =C'ON   '
               5 00000908 00000001     C   16584 14839
 =C'ON  '      4 000007B4 00000001     C   16557 15147
 =C'ON'        2 00000858 00000001     C   16571 13859
 =C'Real terminal screen is smaller than simulated 3270.'
              52 00006320 00000001     C   44492 41092
 =C'Returning to Wylbur'
              19 0000301E 00000001     C   27896 23938  24091
 =C'Returning to Wylbur'
              19 000059E6 00000001     C   40613 40374  40517
 =C'SET VSESSION is not implemented.'
              32 00000768 00000001     C   16545 16352
 =C'The VLOGON interface is not active'
              34 0000089C 00000001     C   16577 16515
 =C'There has been a catastrophic VTAM failure'
              42 00005950 00000001     C   40604 40499
 =C'Type VGO to continue that session.'
              34 0000087A 00000001     C   16576 16488
1VETS     (VETS2025) (12:59) (15MAR04) Ordinary Symbol and Literal Cross Reference                                          Page  250
 =C'Type VLOGON name to LOGON.'
              26 00001652 00000001     C   19696 19236  19384
 =C'V-Terminal     Line Application'
              31 00000912 00000001     C   16586 15023
 =C'V-Terminal not available'
              24 00000740 00000001     C   16542 15480
 =C'VATTN command not yet available in '
              35 000016BC 00000001     C   19699 19164
 =C'VDEBUG command not yet available in '
              36 00001614 00000001     C   19690 19522
 =C'VDEBUG COMMAND GOES HERE!'
              25 00001756 00000001     C   19703 19554
 =C'VGO command not yet available in '
              33 0000170A 00000001     C   19701 19312
 =C'VLOGOFF command not yet available in '
              37 0000166C 00000001     C   19697 18385
 =C'VLOGON command not yet available in '
              36 000007EC 00000001     C   16565 16425
 =C'VTAM application'
              16 00002EF0 00000001     C   27839 23920  24073
 =C'VTBH'      4 00002494 00000001     C   23763 21232  21612
 =C'VTBH'      4 00002FE4 00000001     C   27889 27283  27683
 =C'VTBH'      4 00003A7C 00000001     C   31188 29148
 =C'VTBH'      4 000058AC 00000001     C   40567 36356  36930  36971  37031  37072  37133  37173  37247  37287  37361
                                                 37401  37475  37515  37672  37746  37787  37848  38043  38145  38204
                                                 38300  38392  38465  38538  38645  38724
 =C'VTBH'      4 00006BF4 00000001     C   46648 45049  46308  46379
 =C'VTBH'      4 000080A0 00000001     C   53721 49989
 =C'VTWA at '
               8 00000760 00000001     C   16544 16231
 =C'VTWA'      4 00006C24 00000001     C   46660 45841
 =C'You are already logged on to a VTAM session.'
              44 00000810 00000001     C   16566 16470
 =C'You are NOT logged-on to a VTAM application'
              43 000016DF 00000001     C   19700 19218
 =C'You are NOT Logged On to a VTAM application'
              43 00001691 00000001     C   19698 18439
 =C'You have been disconnected from the '
              36 00002F0C 00000001     C   27843 24055
 =C'You have been Logged-Off from the '
              34 00002FFC 00000001     C   27895 23902
 =C'Your VTAM path has been broaken'
              31 000059C7 00000001     C   40612 40356
 =C'YOU ARE NOT LOGGED-ON TO A VTAM APPLICATION'
              43 0000172B 00000001     C   19702 19366
 =C'0'         1 000063CA 00000001     C   44536 42911
 =C'1'         1 000063C3 00000001     C   44531 42433  42849
 =C'1m'        2 000063A0 00000001     C   44513 42187
 =C'2'         1 000063C8 00000001     C   44534 42564
 =C'3'         1 000063C7 00000001     C   44533 42530
 =C'31'        2 000063B0 00000001     C   44521 43396
 =C'32'        2 000063B4 00000001     C   44523 43494
 =C'3278B'
               5 00006C36 00000001     C   46666 46020
 =C'33'        2 000063B8 00000001     C   44525 43592
 =C'34'        2 000063AE 00000001     C   44520 43347
 =C'35'        2 000063B2 00000001     C   44522 43445
 =C'36'        2 000063B6 00000001     C   44524 43543
 =C'37'        2 000063BA 00000001     C   44526 43641
1VETS     (VETS2025) (12:59) (15MAR04) Ordinary Symbol and Literal Cross Reference                                          Page  251
 =C'38'        2 000063AC 00000001     C   44519 43298
 =C'8m'        2 000063A2 00000001     C   44514 42282
 =CL8'M2'      8 00001058 00000001     C   18276 17719
 =F'-1'        4 00004A14 00000001     F   36194 35755  35912
 =F'1'         4 00001078 00000001     F   18283 16973
 =F'1'         4 00002F4C 00000001     F   27851 24828
 =F'1'         4 00004798 00000001     F   35552 31609  35495
 =F'1'         4 00004A18 00000001     F   36195 35905  36038
 =F'1'         4 000058E4 00000001     F   40581 38761
 =F'130'       4 00003AB8 00000001     F   31203 30789
 =F'15'        4 000024C8 00000001     F   23776 22379  22389
 =F'2'         4 00001080 00000001     F   18285 17186
 =F'2'         4 00002F8C 00000001     F   27867 25705
 =F'2'         4 000047F8 00000001     F   35576 32790  33147  33911
 =F'3'         4 00002F90 00000001     F   27868 25738
 =F'50'        4 0000730C 00000001     F   48342 48276
 =H'128'       2 00003AC4 00000001     H   31206 30253
 =H'2'         2 000024E8 00000001     H   23789 22669
 =H'24'        2 000010CA 00000001     H   18305 17523  17901
 =H'24'        2 00001650 00000001     H   19695 18876
 =H'24'        2 000024D8 00000001     H   23781 20866  22734  23105
 =H'24'        2 0000594E 00000001     H   40603 40045
 =H'24'        2 00006C34 00000001     H   46665 45510
 =H'24'        2 000080D8 00000001     H   53736 48943  50738  51202
 =H'27'        2 000024DC 00000001     H   23783 22444
 =H'28'        2 000010C8 00000001     H   18304 17497  17875
 =H'28'        2 0000164E 00000001     H   19694 18850
 =H'28'        2 000024D6 00000001     H   23780 20840  23079
 =H'28'        2 0000594C 00000001     H   40602 40019
 =H'28'        2 00006C32 00000001     H   46664 45484
 =H'28'        2 000080D6 00000001     H   53735 48917  50712  51176
 =H'3'         2 000024DA 00000001     H   23782 22423
 =H'31'        2 000024E2 00000001     H   23786 22537
 =H'32'        2 000024DE 00000001     H   23784 22475
 =H'4'         2 000010C6 00000001     H   18303 17490  17868
 =H'4'         2 0000164C 00000001     H   19693 18843
 =H'4'         2 000024D4 00000001     H   23779 20833  23072
 =H'4'         2 0000594A 00000001     H   40601 40012
 =H'4'         2 00006C30 00000001     H   46663 45477
 =H'4'         2 000080D4 00000001     H   53734 48910  50705  51169
 =H'43'        2 000024E0 00000001     H   23785 22506
 =H'50'        2 000024E4 00000001     H   23787 22568
 =H'62'        2 000024E6 00000001     H   23788 22599
 =H'80'        2 000024EA 00000001     H   23790 22756
 =V(CV)        4 000080CC 00000001     V   53732 52003  52153  52305  53181  53458
 =V(DTB)       4 0000079C 00000001     V   16551 13993
 =V(DTB)       4 00003AA0 00000001     V   31197 30214
 =V(FREECORE)
               4 00002498 00000001     V   23764 21251  21552  21631  22870  22875  22880  22885  23341
 =V(FREECORE)
               4 00002FE8 00000001     V   27890 27302  27702
 =V(FREECORE)
               4 00006C2C 00000001     V   46662 46248  46327  46398  46470  46501  46532  46563  46594  46611
 =V(FREECORE)
               4 000080A4 00000001     V   53722 50008
 =V(GETCORE)
               4 00001088 00000001     V   18287 17291
 =V(GETCORE)
               4 000024C4 00000001     V   23775 22085  22901  22908  22915  22922
1VETS     (VETS2025) (12:59) (15MAR04) Ordinary Symbol and Literal Cross Reference                                          Page  252
 =V(GETCORE)
               4 00003A78 00000001     V   31187 29105
 =V(GETCORE)
               4 000058A8 00000001     V   40566 36339  36925  36966  37026  37067  37128  37168  37242  37282  37356
                                                 37396  37470  37510  37667  37741  37782  37843  38026  38140  38199
                                                 38295  38387  38460  38533  38640  38719  39100
 =V(GETCORE)
               4 00006BEC 00000001     V   46646 45011  45819
 =V(GETCORE)
               4 00006FF0 00000001     V   47414 46843  46998  47120  47247  47359
 =V(NSCAN)
               4 0000078C 00000001     V   16547 13798  14716
 =V(NSCAN)
               4 00001064 00000001     V   18278 16743  16927  17012
 =V(NSCAN)
               4 000015CC 00000001     V   19672 18602
 =V(PAGETCHK)
               4 0000083C 00000001     V   16567 16525
 =V(SCANCHK)
               4 00000790 00000001     V   16548 13812  14730
 =V(SCANCHK)
               4 00001068 00000001     V   18279 16757  16941  17026
 =V(SCANCHK)
               4 000015D0 00000001     V   19673 18616
 =V(SEG)       4 00000788 00000001     V   16546 13694  14672  14817  14851  14885  15104  15159  15193  15363  15407
                                                 15492  16213  16243  16334  16364  16437
 =V(SEG)       4 000015C8 00000001     V   19671 18397  19176  19230  19324  19534  19566
 =V(SEG)       4 0000244C 00000001     V   23745 20145  20206
 =V(SEG)       4 00002F00 00000001     V   27840 23914  23950  24067  24103  24577  26945
 =V(SEG)       4 0000591C 00000001     V   40595 40386  40529
 =V(SEG)       4 00006358 00000001     V   44494 41156  41199  41240  41281  41322  41623  41990  42027  42046  42181
                                                 42199  42276  42294  42414  42445  42484  42542  42576  42603  42646
                                                 42695  42843  42861  42905  42923  42970  43019  43068  43107  43232
                                                 43272  43310  43359  43408  43457  43506  43555  43604  43653  43697
                                                 43823  43920  43951  44006  44089  44165  44385  44425  44465
 =V(SEGCOL)
               4 000007B0 00000001     V   16556 15125  15311
 =V(SEGCR)
               4 000007AC 00000001     V   16555 14923  14957  15002  15035  15436  15521  15616  16482
 =V(SEGCR)
               4 000010C0 00000001     V   18301 18198
 =V(SEGCR)
               4 00001600 00000001     V   19685 19378
 =V(SEGCR)
               4 00002454 00000001     V   23747 20188  23559  23688
 =V(SEGCR)
               4 00002F04 00000001     V   27841 23932  24085
 =V(SEGCR)
               4 00005918 00000001     V   40594 40368  40511
 =V(SEGDC)
               4 000007BC 00000001     V   16559 15290
 =V(SEGDC)
               4 0000635C 00000001     V   44495 41222  41263  41304  44407  44447
 =V(SEGHX)
               4 000007E8 00000001     V   16564 16268
 =V(SEGHX)
               4 00002450 00000001     V   23746 20170
 =V(SEGMARK)
               4 00006354 00000001     V   44493 41112  41595  41933  42777  43204  43751  44121
1VETS     (VETS2025) (12:59) (15MAR04) Ordinary Symbol and Literal Cross Reference                                          Page  253
 =V(SEGTB)
               4 000007A8 00000001     V   16554 14799
 =V(SEGWR)
               4 00002F44 00000001     V   27849 24636  27032
 =V(SEGWR)
               4 00006364 00000001     V   44497 41378  44231
 =V(TBREAK)
               4 00008094 00000001     V   53718 49601  50468  51416  51805
 =V(TREAD)
               4 00003204 00000001     V   28291 28095
 =V(TREAD)
               4 000033AC 00000001     V   28868 28535
 =V(VIEWTRC)
               4 00002F40 00000001     V   27848 24610  27006
 =V(VIEWTRC)
               4 00006360 00000001     V   44496 41350  44203
 =V(WAITECB)
               4 0000108C 00000001     V   18288 17466  17844
 =V(WAITECB)
               4 000015D4 00000001     V   19674 18819
 =V(WAITECB)
               4 00002448 00000001     V   23744 20039  20809  23048  23638
 =V(WAITECB)
               4 000058F0 00000001     V   40584 39988
 =V(WAITECB)
               4 00006BFC 00000001     V   46650 45453
 =V(WAITER)
               4 00007310 00000001     V   48343 48279
 =X'A020'      2 00007314 00000001     X   48344 47657  48259
 =X'FFFF'      2 0000639E 00000001     X   44512 42048
 =X'FFFFFF'
               3 000063C0 00000001     X   44530 41666
 =X'F0'        1 00000931 00000001     X   16587 15911
 =X'F1'        1 00004890 00000001     X   35614 34411
 =X'F1F1,F2F2,F3F3,F4F4,F5F5,F6F6,F7F7'
               2 0000592E 00000001     X   40597 38312
 =X'00,000A02E5,0002006F,090C'
               1 000059A8 00000001     X   40609 38580
 =X'000B8180,808185868788A6'
               4 000059BC 00000001     X   40611 38735
 =X'000D81,8704,00F0,F1F1,F2F2,F4F4'
               3 0000599B 00000001     X   40608 38403
 =X'00000000650025,0100F1017E0136'
               7 00005920 00000001     X   40596 38157
 =X'00000000650025'
               7 00005994 00000001     X   40607 38216
 =X'0001'      2 000080DA 00000001     X   53737 51386
 =X'000481FF'
               4 000058E8 00000001     X   40582 38782
 =X'000681,880001'
               3 0000593C 00000001     X   40598 38476
 =X'001B81858200,0910,0000000007'
               6 0000597A 00000001     X   40605 38156
 =X'001181A6,0000,0B0100'
               4 000059B3 00000001     X   40610 38656
 =X'001481850200,0910,0000000007'
               6 00005987 00000001     X   40606 38215
 =X'001681860008,00F4'
               6 000058A0 00000001     X   40565 38311
1VETS     (VETS2025) (12:59) (15MAR04) Ordinary Symbol and Literal Cross Reference                                          Page  254
 =X'00178181,0100'
               4 00005942 00000001     X   40599 38549
 =X'010604'
               3 000080DF 00000001     X   53739 53304
 =X'080B0000'
               4 00008098 00000001     X   53719 49671
 =X'08130000'
               4 000080A8 00000001     X   53723 50490
 =X'275D'      2 000063BC 00000001     X   44527 43902
 =X'4040404040404040'
               8 00000758 00000001     X   16543 15729
 =X'4040404040404040'
               8 00001050 00000001     X   18275 16823  17106
 =X'808185868788A6'
               7 00003031 00000001     X   27897 25712
 =X'81062003'
               4 000080D0 00000001     X   53733 53259
 =X'810629'
               3 000080DC 00000001     X   53738 53214
 =Y((12+3)/4*4)
               2 00000856 00000001     Y   16570 13804  14722
 =Y((12+3)/4*4)
               2 000010C4 00000001     Y   18302 16749  16933  17018
 =Y((12+3)/4*4)
               2 0000164A 00000001     Y   19692 18608
 =Y(L'BLENT)
               2 00005948 00000001     Y   40600 39095

1VETS     (VETS2025) (12:59) (15MAR04) Macro and Copy Code Source Summary                                                   Page  255
- Con Source                                        Volume    Members                        HLASM R4.0  2004/03/15 12.59
0     PRIMARY INPUT                                           APPLSYN  CHECKSPA CSECT    DROP     END      ERROR    EX
                                                              INCR3    INCR4    INCR4O   INCR4S   LTORG    POP
                                                              PRINT    PUSH     START    USING
   L1 WYL.GS.WYL.WYLBUR.MACLIB                      SYSB05    ABORT    AINFO    BASE     COLINFO  COMMENT  CONTROL  CP
                                                              CPLOCAL  CV       CVLOCAL  DTB      FAIL     GENTER   JCB
                                                              KAPUT    RG       SCAN     SCANCB   SCANCHK  SCCBADR
                                                              SCPOP    SCPUSH   TCOL     TCR      THEX     TMARK    TNUM
                                                              TREAD    TSEG     TTYPE    TWRITE   VLTORG   XTRACE
   L2 WYL.GG.SYS.MACLIB                             SYSB05    $BC      $BFLKUP  $BV      $CCLKUP  $CRS     $CSS     $L
                                                              $LA      $LBLAD   $LEXP    $LOR     $REL     $RGLKUP
                                                              $USLKUP  ACALL    BEGIN    CEIL     CLEAR    COMPROC
                                                              CSECT    DATA     DECR     DEFCC    DEX      DROP     ELSE
                                                              ELSEIF   END      EQF      EQS      EX       EXIT     FLAG
                                                              GEN      HIBAL    IDENT    IF       INCR     LABEL    LC
                                                              LCALL    LCM      LOOP     LS       LT       LTH
                                                              LTORG    L2       PEND     POP      PRETURN  PRINT    PROC
                                                              PUSH     RECORD   REG      REGS     SET      SETMSG
                                                              START    ST2      USING    VCALL    WHILE    WITH
                                                              XPROC    ZOT
   L3 SYS3.IS.MACLIB                                SYSB05    OTR3270  SEG      SEGCB    SEGCOL   SEGCR    SEGDC
                                                              SEGHX    SEGLD    SEGMARK  SEGWR    SIB      SYSDEFN  XPOP
                                                              XPUSH
   L5 SYS1.MACLIB                                   MVSBR9    CHECK    CLOSE    CVT      EXECRPL  EXLST    FREEMAIN
                                                              GENCB    GETMAIN  IDACBACB IDACBNIB IDACBOPT IDACBPRC
                                                              IDACBRPL IDACB1   IDACB2   IDACB3   IHAPSA   IHAPSAE
                                                              IHBINNRA IHBRDWRA ISTACBEX ISTBLENT ISTDBIND ISTDNIB
                                                              ISTDPROC ISTDVCHR ISTEXL1  ISTGAPPC ISTGLBAL ISTRPLEX
                                                              ISTRPLFB ISTRPL6X MODESET  OPEN     OPNSEC   POST
                                                              RECEIVE  REQSESS  SEND     SESSIONC SETLOCK  SETLOGON
                                                              SPLEVEL  SYSSTATE TERMSESS
   L6 SYS1.MODGEN                                   MVSBR9    IFGACB   IFGACBVS IFGRPL   IFGRPLVS

1VETS     (VETS2025) (12:59) (15MAR04) Dsect Cross Reference                                                                Page  256
-Dsect     Length      Id       Defn                                                         HLASM R4.0  2004/03/15 12.59
0$$$@R0   00000000  FFFFFFFE     705
 $$$@R1   00000000  FFFFFFFD     718
 $$$@R10  00000000  FFFFFFF4     835
 $$$@R11  00000000  FFFFFFF3     848
 $$$@R12  00000000  FFFFFFF2     861
 $$$@R13  00000000  FFFFFFF1     874
 $$$@R14  00000000  FFFFFFF0     887
 $$$@R15  00000000  FFFFFFEF     900
 $$$@R2   00000000  FFFFFFFC     731
 $$$@R3   00000000  FFFFFFFB     744
 $$$@R4   00000000  FFFFFFFA     757
 $$$@R5   00000000  FFFFFFF9     770
 $$$@R6   00000000  FFFFFFF8     783
 $$$@R7   00000000  FFFFFFF7     796
 $$$@R8   00000000  FFFFFFF6     809
 $$$@R9   00000000  FFFFFFF5     822
 $$$RCP   00001000  FFFFFFE8    3867
 $$$RCV   00000FB0  FFFFFFEA    2592
 $$$RDEV  0000000C  FFFFFFE7    6081
 $$$RDOOUTBWA
          0000000C  FFFFFFDA   24148
 $$$RGETACBWA
          00000004  FFFFFFD3   47433
 $$$RJCB  000000D0  FFFFFFE5    7719
 $$$RLOGONWA
          00000014  FFFFFFDB   16608
 $$$RNSCNCB
          000000B0  FFFFFFE9    3788
 $$$RPRCSWA
          0000000E  FFFFFFD8   31288
 $$$RSENDSWA
          00000010  FFFFFFD7   36220
 $$$RTTYPE
          0000010C  FFFFFFE6    7612
 $$$RUPDATSWA
          0000009C  FFFFFFD9   28891
 $$$RVTBHEAD
          00000010  FFFFFFDC   13518
 $$$RVTWA 000000A4  FFFFFFDD   13142
 $$$RWRITEWA
          00000012  FFFFFFD4   41449
 $$$R985  00000000  FFFFFFD6   38848
 CVT      00000500  FFFFFFEE    1425
 CVTVSTGX 00000050  FFFFFFED    2445
 CVTXTNT1 0000000C  FFFFFFEC    2484
 CVTXTNT2 00000084  FFFFFFEB    2492
 HIBAL    00000000  FFFFFFFF     691
 IFGACB   000000B4  FFFFFFE4    8189
 IFGRPL   00000088  FFFFFFDF   11260
 ISTBLENT 00000010  FFFFFFD5   38884
 ISTDBIND 00000024  FFFFFFE3    8894
 ISTDNIB  00000040  FFFFFFE2    9595
 ISTRPL6X 00000070  FFFFFFDE   12583
 NIBRPRM  0000001C  FFFFFFE1    9877
 PSA      00001000  FFFFFFE0    9996
1VETS     (VETS2025) (12:59) (15MAR04) Dsect Cross Reference                                                                Page  257

1VETS     (VETS2025) (12:59) (15MAR04) Using Map                                                                            Page  258
-                                                                                            HLASM R4.0  2004/03/15 12.59
   Stmt  -----Location----- Action ----------------Using----------------- Reg Max    Last  Label and Using Text
           Count      Id           Type          Value    Range     Id        Disp   Stmt
0   922  00000000  FFFFFFFF USING  ORDINARY    00000000 00001000 FFFFFFEF  15 002   23665  @R15,15
    926  00000000  FFFFFFFF USING  ORDINARY    00000000 00001000 FFFFFFF0  14 002   32174  @R14,14
    930  00000000  FFFFFFFF USING  ORDINARY    00000000 00001000 FFFFFFF1  13 000          @R13,13
    934  00000000  FFFFFFFF USING  ORDINARY    00000000 00001000 FFFFFFF2  12 000          @R12,12
    938  00000000  FFFFFFFF USING  ORDINARY    00000000 00001000 FFFFFFF3  11 000          @R11,11
    942  00000000  FFFFFFFF USING  ORDINARY    00000000 00001000 FFFFFFF4  10 000          @R10,10
    946  00000000  FFFFFFFF USING  ORDINARY    00000000 00001000 FFFFFFF5   9 000          @R9,9
    950  00000000  FFFFFFFF USING  ORDINARY    00000000 00001000 FFFFFFF6   8 000          @R8,8
    954  00000000  FFFFFFFF USING  ORDINARY    00000000 00001000 FFFFFFF7   7 000          @R7,7
    958  00000000  FFFFFFFF USING  ORDINARY    00000000 00001000 FFFFFFF8   6 000          @R6,6
    962  00000000  FFFFFFFF USING  ORDINARY    00000000 00001000 FFFFFFF9   5 000          @R5,5
    966  00000000  FFFFFFFF USING  ORDINARY    00000000 00001000 FFFFFFFA   4 000          @R4,4
    970  00000000  FFFFFFFF USING  ORDINARY    00000000 00001000 FFFFFFFB   3 000          @R3,3
    974  00000000  FFFFFFFF USING  ORDINARY    00000000 00001000 FFFFFFFC   2 000          @R2,2
    978  00000000  FFFFFFFF USING  ORDINARY    00000000 00001000 FFFFFFFD   1 008   17177  @R1,1
    982  00000000  FFFFFFFF USING  ORDINARY    00000000 00001000 FFFFFFFE   0 000          @R0,0
    983  00000000  FFFFFFFF DROP                                            0              0
   2576  00000084  FFFFFFEB USING  ORDINARY    00000000 00001000 FFFFFFE8  11 D5A   15190  CP,CPR
   2585  00000084  FFFFFFEB USING  ORDINARY    00000000 00001000 FFFFFFEA  12 890   51714  CV,CVR
   9994  00000040  FFFFFFE2 USING  ORDINARY    00000000 00001000 FFFFFFE0   0 000          PSA,0
  11208  00001000  FFFFFFE0 USING  ORDINARY    00000000 00001000 FFFFFFFE   0 000          @R0,0
  11209  00001000  FFFFFFE0 DROP                                            0              0
  13660  00000026  00000001 USING  ORDINARY    00000026 00001000 00000001   7 966   14372  $$$58B,R7
  14153  0000016C  00000001 USING  ORDINARY    00000000 00001000 FFFFFFE4   5 08A   14232  ACBWYL,R5
  14248  000001B2  00000001 USING  ORDINARY    00000000 00001000 FFFFFFF9   5 000          @R5,5
  14251  000001B2  00000001 USING  ORDINARY    00000000 00001000 FFFFFFE4   2 080   14282  ACBWYL,R2
  14293  000001C6  00000001 USING  ORDINARY    00000000 00001000 FFFFFFE4   5 088   14352  ACBWYL,5
  14298  000001C6  00000001 USING  ORDINARY    00000000 00001000 FFFFFFFC   2 010   24543  @R2,2
  14369  000001DE  00000001 USING  ORDINARY    00000000 00001000 FFFFFFF9   5 000          @R5,5
  14385  000001E6  00000001 USING  ORDINARY    00000000 00001000 FFFFFFF7   7 000          @R7,7
  14428  00000200  00000001 USING  ORDINARY    00000200 00001000 00000001   7 782   14466  $$$90B,7
  14484  00000212  00000001 USING  ORDINARY    00000000 00001000 FFFFFFF7   7 000          @R7,7
  14539  0000023A  00000001 USING  ORDINARY    0000023A 00001000 00000001   7 014   14578  $$$95B,7
  14596  0000024E  00000001 USING  ORDINARY    00000000 00001000 FFFFFFF7   7 000          @R7,7
  14639  0000026A  00000001 USING  ORDINARY    0000026A 00001000 00000001   7 71A   15616  $$$99B,R7
  14969  00000382  00000001 USING  ORDINARY    00000000 00001000 FFFFFFE4   5 08A   15532  ACBWYL,R5
  15224  00000420  00000001 USING  ORDINARY    00000000 00001000 FFFFFFDD   6 088   15391  VTWA,R6
  15243  00000424  00000001 USING  ORDINARY    00000000 00001000 FFFFFFF3  11 000          @R11,11
  15246  00000424  00000001 USING  ORDINARY    00000000 00001000 FFFFFFE8   4 348   15252  CP,R4
  15263  00000428  00000001 USING  ORDINARY    00000000 00001000 FFFFFFE8  11 C7C   46607  CP,11
  15268  00000428  00000001 USING  ORDINARY    00000000 00001000 FFFFFFFA   4 000          @R4,4
  15444  00000488  00000001 USING  ORDINARY    00000000 00001000 FFFFFFF8   6 000          @R6,6
  15631  000004E8  00000001 USING  ORDINARY    00000000 00001000 FFFFFFF9   5 000          @R5,5
  15642  000004EC  00000001 USING  ORDINARY    00000000 00001000 FFFFFFF7   7 000          @R7,7
  15706  00000506  00000001 USING  ORDINARY    00000506 00001000 00000001   7 496   15942  $$$125B,7
  15832  00000552  00000001 DROP                                            3              3
  15836  00000558  00000001 USING  ORDINARY    00000000 00001000 FFFFFFFB   3 000          @R3,3
  15951  000005A4  00000001 USING  ORDINARY    00000000 00001000 FFFFFFF7   7 000          @R7,7
  16018  000005CC  00000001 USING  ORDINARY    000005CC 00001000 00000001   7 3C0   16116  $$$140B,7
  16054  000005D8  00000001 USING  ORDINARY    00000000 00001000 FFFFFFE4   5 08A   16115  ACBWYL,R5
  16132  000005FC  00000001 USING  ORDINARY    00000000 00001000 FFFFFFF9   5 000          @R5,5
  16145  00000600  00000001 USING  ORDINARY    00000000 00001000 FFFFFFF7   7 000          @R7,7
  16179  0000061C  00000001 USING  ORDINARY    0000061C 00001000 00000001   7 2A2   16268  $$$147B,R7
1VETS     (VETS2025) (12:59) (15MAR04) Using Map                                                                            Page  259
  16278  0000066A  00000001 USING  ORDINARY    00000000 00001000 FFFFFFF7   7 000          @R7,7
  16300  00000678  00000001 USING  ORDINARY    00000678 00001000 00000001   7 246   16364  $$$149B,R7
  16373  000006B4  00000001 USING  ORDINARY    00000000 00001000 FFFFFFF7   7 000          @R7,7
  16403  000006C2  00000001 USING  ORDINARY    000006C2 00001000 00000001   7 2E0   16537  $$$151B,R7
  16669  000009BC  00000001 USING  ORDINARY    00000000 00001000 FFFFFFF7   7 000          @R7,7
  16672  000009BC  00000001 USING  ORDINARY    000009BC 00001000 00000001   7 71C   18202  $$$156B,7
  16686  000009BC  00000001 USING  ORDINARY    FFFFFFD8 00001000 FFFFFFDB   8 038   17785  LOGONWA-(4+36),R8
  16712  000009CC  00000001 USING  ORDINARY    00000000 00001000 FFFFFFDD   6 05C   17841  VTWA,R6
  17246  00000C18  00000001 USING  ORDINARY    00000000 00001000 FFFFFFE4   5 0B0   17395  ACB,R5
  17259  00000C24  00000001 USING  ORDINARY    00000000 00001000 FFFFFFDF   3 084   18147  RPL,R3
  17301  00000C60  00000001 USING  ORDINARY    00000000 00001000 FFFFFFE2   4 030   17762  ISTDNIB,R4
  17548  00000D9C  00000001 DROP                                            1              1
  17552  00000DA2  00000001 USING  ORDINARY    00000000 00001000 FFFFFFFD   1 000          @R1,1
  17926  00000F10  00000001 DROP                                            1              1
  17930  00000F16  00000001 USING  ORDINARY    00000000 00001000 FFFFFFFD   1 000          @R1,1
  18216  0000103C  00000001 USING  ORDINARY    00000000 00001000 FFFFFFF6   8 000          @R8,8
  18225  0000103C  00000001 USING  ORDINARY    00000000 00001000 FFFFFFF7   7 000          @R7,7
  18228  0000103C  00000001 USING  ORDINARY    000006C2 00001000 00000001   7 000          $$$151B,7
  18247  0000104A  00000001 USING  ORDINARY    00000000 00001000 FFFFFFFB   3 000          @R3,3
  18253  0000104A  00000001 USING  ORDINARY    00000000 00001000 FFFFFFFA   4 000          @R4,4
  18259  0000104A  00000001 USING  ORDINARY    00000000 00001000 FFFFFFF9   5 000          @R5,5
  18265  0000104A  00000001 USING  ORDINARY    00000000 00001000 FFFFFFF8   6 000          @R6,6
  18271  0000104A  00000001 USING  ORDINARY    00000000 00001000 FFFFFFF7   7 000          @R7,7
  18363  000011E6  00000001 USING  ORDINARY    000011E6 00001000 00000001   7 4AB   19092  $$$207B,R7
  18422  00001212  00000001 USING  ORDINARY    00000000 00001000 FFFFFFDD   6 058   18816  VTWA,R6
  18464  0000122A  00000001 USING  ORDINARY    00000000 00001000 FFFFFFE4   5 0AC   18484  ACB,R5
  18495  00001234  00000001 USING  ORDINARY    00000000 00001000 FFFFFFF9   5 000          @R5,5
  18505  00001234  00000001 USING  ORDINARY    00000000 00001000 FFFFFFDF   5 064   19076  RPL,R5
  18901  00001390  00000001 DROP                                            1              1
  18905  00001396  00000001 USING  ORDINARY    00000000 00001000 FFFFFFFD   1 000          @R1,1
  19099  0000143C  00000001 USING  ORDINARY    00000000 00001000 FFFFFFF9   5 000          @R5,5
  19105  0000143C  00000001 USING  ORDINARY    00000000 00001000 FFFFFFF8   6 000          @R6,6
  19111  0000143C  00000001 USING  ORDINARY    00000000 00001000 FFFFFFF7   7 000          @R7,7
  19142  0000144A  00000001 USING  ORDINARY    0000144A 00001000 00000001   7 295   19255  $$$237B,R7
  19201  00001476  00000001 USING  ORDINARY    00000000 00001000 FFFFFFDD   6 004   19249  VTWA,R6
  19262  000014A6  00000001 USING  ORDINARY    00000000 00001000 FFFFFFF8   6 000          @R6,6
  19268  000014A6  00000001 USING  ORDINARY    00000000 00001000 FFFFFFF7   7 000          @R7,7
  19290  000014B4  00000001 USING  ORDINARY    000014B4 00001000 00000001   7 277   19464  $$$240B,R7
  19349  000014E0  00000001 USING  ORDINARY    00000000 00001000 FFFFFFDD   6 024   19448  VTWA,R6
  19472  00001540  00000001 USING  ORDINARY    00000000 00001000 FFFFFFF8   6 000          @R6,6
  19478  00001540  00000001 USING  ORDINARY    00000000 00001000 FFFFFFF7   7 000          @R7,7
  19500  0000154E  00000001 USING  ORDINARY    0000154E 00001000 00000001   7 208   19566  $$$245B,R7
  19575  0000158A  00000001 USING  ORDINARY    00000000 00001000 FFFFFFF7   7 000          @R7,7
  19616  000015A4  00000001 USING  ORDINARY    000015A4 00001000 00000001   7 04C   19642  $$$248B,7
  19655  000015B4  00000001 USING  ORDINARY    00000000 00001000 FFFFFFF7   7 000          @R7,7
  19715  0000176F  00000001 USING  ORDINARY    00000000 00001000 FFFFFFDD   6 0A0   48206  VTWA,VTWAR
  19752  00001770  00000001 USING  ORDINARY    00001770 00001000 00000001   7 DAE   21096  MAINLINE,BR
  20453  00001914  00000001 USING  ORDINARY    00000000 00001000 FFFFFFE4   5 0A8   20459  ACB,R5
  20466  00001918  00000001 USING  ORDINARY    00000000 00001000 FFFFFFF9   5 000          @R5,5
  20477  00001918  00000001 USING  ORDINARY    00000000 00001000 FFFFFFDF   5 045   20492  RPL,R5
  20651  000019F8  00000001 USING  ORDINARY    00000000 00001000 FFFFFFF9   5 000          @R5,5
  20692  00001A0C  00000001 USING  ORDINARY    00000000 00001000 FFFFFFE4   4 0AC   20698  ACB,R4
  20705  00001A10  00000001 USING  ORDINARY    00000000 00001000 FFFFFFFA   4 000          @R4,4
  20716  00001A10  00000001 USING  ORDINARY    00000000 00001000 FFFFFFDF   4 058   21032  RPL,R4
  20891  00001ACA  00000001 DROP                                            1              1
  20895  00001AD0  00000001 USING  ORDINARY    00000000 00001000 FFFFFFFD   1 000          @R1,1
  21053  00001B62  00000001 USING  ORDINARY    00000000 00001000 FFFFFFFA   4 000          @R4,4
  21103  00001B7C  00000001 USING  ORDINARY    00000000 00001000 FFFFFFF7   7 000          @R7,7
  21160  00001B96  00000001 USING  ORDINARY    00001B96 00001000 00000001   7 926   21424  $$$296B,7
