1                        J E S 2  J O B  L O G  --  S Y S T E M  S Y S B  --  N O D E  R L G
0
 12.50.06 JOB03549 ---- MONDAY,    15 MAR 2004 ----
 12.50.06 JOB03549  ICH70001I GG$SLP   LAST ACCESS AT 12:49:54 ON MONDAY, MARCH 15, 2004
 12.50.06 JOB03549  $HASP373 WYL#NPAT STARTED - INIT 9    - CLASS B - SYS SYSB
 12.50.06 JOB03549  ***  HCMD      STEP $$QUIET
 12.50.06 JOB03549  PUR * Q OUT MUL
 12.50.06 JOB03549  JOB 5410 WYL#NPAT WILL BE PURGED
 12.50.07 JOB03549  WYL#NPAT.$$QUIET .         RC=Zero TapeIO=0000 DiskIO=0000 CPU=  .01s Elapsed=06.28s
 12.50.21 JOB03549  WYL#NPAT.ASM     .         RC=Zero TapeIO=0000 DiskIO=0894 CPU= 7.35s Elapsed=07.32s
 12.50.24 JOB03549  WYL#NPAT.EDIT    .         RC=Zero TapeIO=0000 DiskIO=0363 CPU= 1.14s Elapsed=21.87s
 12.50.24 JOB03549  WYL#NPAT Ended.  Name=Assemble NPAT                  Total CPU= 8.50s Elapsed=06.28s
 12.50.24 JOB03549
 12.50.24 JOB03549  Execution charges   Priority=Standard   Block=Day
 12.50.24 JOB03549
 12.50.24 JOB03549  CPU Usage         157.50          $97.65   Standard Processing Unit Equivalent
 12.50.24 JOB03549                                   =======
 12.50.24 JOB03549                                    $97.65   Total Job execution charge
 12.50.24 JOB03549
 12.50.24 JOB03549  See back separator page for print charges
 12.50.24 JOB03549
 12.50.24 JOB03549  $HASP395 WYL#NPAT ENDED  ASM=0, EDIT=0
1        1 //WYL#NPAT JOB SLP$GG,'Assemble NPAT',TIME=4,REGION=4M                  JOB03549
           //*
           /*JOBPARM LINES=99,COPIES=1
           /*JOBPARM FORMS=3HOL,PFORMAT=LAND,CHARS=BD13,DUPLEX=YES,FLASH=BAR4
           //*
           /*JOBPARM NOTIFY=GG.SLP,HOLD=OUTPUT                                     WYLGEN
         2 //$$QUIET EXEC PGM=HCMDX,PARM='PUR * Q OUT MUL'
           //*
         3 //ASM    EXEC PGM=ASMA90,REGION=8M,
           //            PARM=('NORENT,TERM,FLAG(NOCONT),US(MAP,WARN(10)),NODECK',
           //            'LC(32767),XREF(SHORT),ESD,DXREF,NOOBJECT')
         4 //STEPLIB DD DSN=SYS3.IS.TESTASM,DISP=SHR
         5 //SYSLIB   DD  DSN=WYL.GS.WYL.WYLBUR.MACLIB,DISP=SHR
         6 //         DD  DSN=WYL.GG.SYS.MACLIB,DISP=SHR
         7 //         DD  DSN=SYS3.IS.MACLIB,DISP=SHR
         8 //         DD  DSN=SYS3.MACLIB,DISP=SHR
         9 //         DD  DSN=SYS1.MACLIB,DISP=SHR
        10 //         DD  DSN=SYS1.MODGEN,DISP=SHR
        11 //SYSUT1   DD DSN=&&SYSUT1,UNIT=VIO,DISP=(,DELETE),
           //            SPACE=(4088,(500,250),,CONTIG,ROUND)
        12 //SYSTERM  DD SYSOUT=T
        13 //SYSPRINT DD DSN=&&PRINT,UNIT=SYSDA,DISP=(,PASS),
           //            SPACE=(6650,(250,250),RLSE),
           //            DCB=(BLKSIZE=6650,LRECL=133,RECFM=FB)
        14 //SYSUDUMP DD SYSOUT=A
        15 //SYSIN    DD  DSN=WYL.GS.WYL.WYLBUR.SOURCE(NPAT),DISP=SHR
           //*
        16 //EDIT    EXEC PGM=ASMEDIT,TIME=2,REGION=4000K,
           //             PARM='STMT'
        17 //STEPLIB  DD  DSN=WYL.GG.SYS.LINKLIB,DISP=SHR
        18 //ASMOUT   DD  DSN=&PRINT,DISP=(OLD,DELETE)
        19 //SYSPRINT DD  SYSOUT=A
1 STMT NO. MESSAGE
 -
        11 IGD01010I STORCLAS= TEMP STORGROUP =
        11 IGD01010I STORGRP=VIO ASSIGNED.
        13 IGD01010I STORCLAS= TEMP STORGROUP =
        13 IGD01010I STORGRP=VIO ASSIGNED.
 ICH70001I GG$SLP   LAST ACCESS AT 12:49:54 ON MONDAY, MARCH 15, 2004
 IEF142I WYL#NPAT $$QUIET - STEP WAS EXECUTED - COND CODE 0000
 *********************************************************************************
 *   WYL#NPAT/$$QUIET /                    Return Code      Zero                 *
 *   Region used      260K (16K user + 244K system)                              *
 *   Extended region  9464K (4K user + 9460K system)                             *
 *                                                                               *
 *   Paging              In      Out                                             *
 *   Private <-> Aux      0        0       CPU time (TCB)   00:00:00.01          *
 *   Private <-> Exp      0        0       CPU time (SRB)   00:00:00.00          *
 *   VIO                  0        0       Elapsed time    917:37:46.68          *
 *   Common               0      ---                                             *
 *                                                                               *
 *                                                                               *
 *   CPU Usage          0.18         $0.11  Standard Processing Unit Equivalent  *
 *                                   $0.11  Total Step execution charge          *
 *                                                                               *
 *    I/O count  DDname   Type Addr           I/O count  DDname   Type Addr      *
 *                         *** No I/O for this step ***                          *
 *********************************************************************************
 IEF373I STEP/$$QUIET /START 2004075.1250
 IEF374I STEP/$$QUIET /STOP  2004075.1250 CPU    0MIN 00.01SEC SRB    0MIN 00.00SEC VIRT    16K SYS   244K EXT       4K SYS    9460K
 IEF236I ALLOC. FOR WYL#NPAT ASM
 IEF237I 04DC ALLOCATED TO STEPLIB
 IEF237I 04DC ALLOCATED TO SYSLIB
 IEF237I 04DC ALLOCATED TO
 IEF237I 04DC ALLOCATED TO
 IEF237I 0402 ALLOCATED TO
 IEF237I 04A0 ALLOCATED TO
 IEF237I 04A0 ALLOCATED TO
 IGD101I SMS ALLOCATED TO DDNAME (SYSUT1  )
         DSN (SYS04075.T125006.RA000.WYL#NPAT.SYSUT1.H01  )
         STORCLAS (TEMP) MGMTCLAS (        ) DATACLAS (        )
         VOL SER NOS= VIO
 IEF237I JES2 ALLOCATED TO SYSTERM
 IGD101I SMS ALLOCATED TO DDNAME (SYSPRINT)
         DSN (SYS04075.T125006.RA000.WYL#NPAT.PRINT.H01   )
         STORCLAS (TEMP) MGMTCLAS (        ) DATACLAS (        )
         VOL SER NOS= SCR101
 IEF237I JES2 ALLOCATED TO SYSUDUMP
 IEF237I 04DC ALLOCATED TO SYSIN
 IEF142I WYL#NPAT ASM - STEP WAS EXECUTED - COND CODE 0000
 IEF285I   SYS3.IS.TESTASM                              KEPT
 IEF285I   VOL SER NOS= SYSB05.
 IEF285I   WYL.GS.WYL.WYLBUR.MACLIB                     KEPT
 IEF285I   VOL SER NOS= SYSB05.
 IEF285I   WYL.GG.SYS.MACLIB                            KEPT
 IEF285I   VOL SER NOS= SYSB05.
 IEF285I   SYS3.IS.MACLIB                               KEPT
 IEF285I   VOL SER NOS= SYSB05.
 IEF285I   SYS3.MACLIB                                  KEPT
 IEF285I   VOL SER NOS= SYSB02.
 IEF285I   SYS1.MACLIB                                  KEPT
 IEF285I   VOL SER NOS= MVSBR9.
 IEF285I   SYS1.MODGEN                                  KEPT
 IEF285I   VOL SER NOS= MVSBR9.
 IGD105I SYS04075.T125006.RA000.WYL#NPAT.SYSUT1.H01   DELETED,   DDNAME=SYSUT1
 IEF285I   GG$SLP.WYL#NPAT.JOB03549.D0000101.?          SYSOUT
 IGD106I SYS04075.T125006.RA000.WYL#NPAT.PRINT.H01    PASSED,    DDNAME=SYSPRINT
 IEF285I   GG$SLP.WYL#NPAT.JOB03549.D0000102.?          SYSOUT
 IEF285I   WYL.GS.WYL.WYLBUR.SOURCE                     KEPT
 IEF285I   VOL SER NOS= SYSB05.
 *********************************************************************************
 *   WYL#NPAT/ASM     /                    Return Code      Zero                 *
 *   Region used      4376K (4096K user + 280K system)                           *
 *   Extended region  10080K (412K user + 9668K system)                          *
 *                                                                               *
 *   Paging              In      Out                                             *
 *   Private <-> Aux      0        0       CPU time (TCB)   00:00:07.28          *
 *   Private <-> Exp      0        0       CPU time (SRB)   00:00:00.07          *
 *   VIO                  0        0       Elapsed time    917:37:45.64          *
 *   Common               0      ---                                             *
 *                                                                               *
 *                                                                               *
 *   CPU Usage        136.50        $84.63  Standard Processing Unit Equivalent  *
 *                                  $84.63  Total Step execution charge          *
 *                                                                               *
 *    I/O count  DDname   Type Addr           I/O count  DDname   Type Addr      *
 *           83  STEPLIB  Disk 04DC                 361  SYSLIB   Disk 04DC      *
 *            0  SYSLIB   Disk 04DC                   0  SYSLIB   Disk 04DC      *
 *            7  SYSLIB   Disk 0402                  68  SYSLIB   Disk 04A0      *
 *            0  SYSLIB   Disk 04A0                 520  SYSUT1   VIO  ----      *
 *            0  SYSTERM       ----                 360  SYSPRINT Disk 04E3      *
 *            0  SYSUDUMP      ----                  15  SYSIN    Disk 04DC      *
 *********************************************************************************
 IEF373I STEP/ASM     /START 2004075.1250
 IEF374I STEP/ASM     /STOP  2004075.1250 CPU    0MIN 07.28SEC SRB    0MIN 00.07SEC VIRT  4096K SYS   280K EXT     412K SYS    9668K
 IEF236I ALLOC. FOR WYL#NPAT EDIT
 IEF237I 0402 ALLOCATED TO STEPLIB
 IGD103I SMS ALLOCATED TO DDNAME ASMOUT
 IEF237I JES2 ALLOCATED TO SYSPRINT
 IEF142I WYL#NPAT EDIT - STEP WAS EXECUTED - COND CODE 0000
 IEF285I   WYL.GG.SYS.LINKLIB                           KEPT
 IEF285I   VOL SER NOS= SYSB02.
 IGD105I SYS04075.T125006.RA000.WYL#NPAT.PRINT.H01    DELETED,   DDNAME=ASMOUT
 IEF285I   GG$SLP.WYL#NPAT.JOB03549.D0000103.?          SYSOUT
 *********************************************************************************
 *   WYL#NPAT/EDIT    /                    Return Code      Zero                 *
 *   Region used      384K (120K user + 264K system)                             *
 *   Extended region  9584K (4K user + 9580K system)                             *
 *                                                                               *
 *   Paging              In      Out                                             *
 *   Private <-> Aux      0        0       CPU time (TCB)   00:00:01.11          *
 *   Private <-> Exp      0        0       CPU time (SRB)   00:00:00.03          *
 *   VIO                  0        0       Elapsed time    917:37:31.09          *
 *   Common               0      ---                                             *
 *                                                                               *
 *                                                                               *
 *   CPU Usage         20.81        $12.90  Standard Processing Unit Equivalent  *
 *                                  $12.90  Total Step execution charge          *
 *                                                                               *
 *    I/O count  DDname   Type Addr           I/O count  DDname   Type Addr      *
 *            2  STEPLIB  Disk 0402                 361  ASMOUT   Disk 04E3      *
 *            0  SYSPRINT      ----                                              *
 *********************************************************************************
 IEF373I STEP/EDIT    /START 2004075.1250
 IEF374I STEP/EDIT    /STOP  2004075.1250 CPU    0MIN 01.11SEC SRB    0MIN 00.03SEC VIRT   120K SYS   264K EXT       4K SYS    9580K
 *********************************************************************************
 *                                                                               *
 *                      S t a n f o r d   U n i v e r s i t y                    *
 *                                                                               *
 *                              *** Job Summary ***                              *
 *                                                                               *
 *   System Id      SYSB                   Input time     12:39:23  Mar 15, 2004 *
 *                                                                               *
 *   System Release SP6.1.0                Start time     12:50:06  Mar 15, 2004 *
 *                                                                               *
 *   Job name       WYL#NPAT               Stop  time     00:00:00  Mar 15, 2004 *
 *                                                                               *
 *   Account        SLP$GG                 Elapsed time  917:37:46.68            *
 *                                                                               *
 *   User Name      Assemble NPAT          CPU time       00:00:08.40            *
 *                                                                               *
 *   Job class      B                      SRB Time       00:00:00.10            *
 *                                                                               *
 *********************************************************************************
 IEF375I  JOB/WYL#NPAT/START 2004075.1250
 IEF376I  JOB/WYL#NPAT/STOP  2004075.1250 CPU    0MIN 08.40SEC SRB    0MIN 00.10SEC
1Assembler Done NPAT No Statements Flagged
1         High Level Assembler Option Summary                   (PTF P72483 )                                               Page    1
-                                                                                            HLASM R4.0  2004/03/15 12.50
0  No Overriding ASMAOPT Parameters
   Overriding Parameters-  NORENT,TERM,FLAG(NOCONT),US(MAP,WARN(10)),NODECK,LC(32767),XREF(SHORT),ESD,DXREF,NOOBJECT
   No Process Statements


   Options for this Assembly
0  NOADATA
     ALIGN
   NOASA
     BATCH
     CODEPAGE(047C)
   NOCOMPAT
   NODBCS
 3 NODECK
 3   DXREF
 3   ESD
   NOEXIT
 3   FLAG(0,ALIGN,NOCONT,NOIMPLEN,NOPAGE0,PUSH,RECORD,NOSUBSTR,USING0)
   NOFOLD
   NOGOFF
   NOINFO
     LANGUAGE(EN)
   NOLIBMAC
 3   LINECOUNT(32767)
     LIST(121)
     MXREF(SOURCE)
 3 NOOBJECT
     OPTABLE(UNI,NOLIST)
   NOPCONTROL
   NOPESTOP
   NOPROFILE
   NORA2
 3 NORENT
     RLD
     RXREF
     SIZE(MAX)
     SYSPARM()
 3   TERM(WIDE)
   NOTEST
     THREAD
   NOTRANSLATE
 3   USING(NOLIMIT,MAP,WARN(10))
 3   XREF(SHORT)

   No Overriding DD Names

1NPAT     External Symbol Dictionary                                                                                        Page    2
-Symbol   Type   Id     Address  Length     LD ID  Flags Alias-of                            HLASM R4.0  2004/03/15 12.50
0WYLNPAT   SD 00000001 00000000 00005330             00
 NPAT2193  LD          00000000           00000001
 NPATFREE  LD          00000090           00000001
 NPATALLO  LD          00000118           00000001
 NPATSETU  LD          000002EE           00000001
 NPATCLRU  LD          00000370           00000001
 NPATGET   LD          000003F0           00000001
 NPATCTRL  ER 00000002
 GETPOOL   ER 00000003
 SEGINIT   ER 00000004
 SEGINITR  ER 00000005
 EVALSTR   ER 00000006
 NPATOPEN  LD          0000052A           00000001
 NPATCTRL  LD          00000858           00000001
 NPATREAD  LD          00000922           00000001
 NPATXRD   LD          00000AB8           00000001
 PATHALLO  ER 00000007
 PATHOPEN  ER 00000008
 SEG       ER 00000009
 SEGDC     ER 0000000A
 SEGT      ER 0000000B
 SEGWR     ER 0000000C
 RTRIM     ER 0000000D
 SERVTRC   ER 0000000E
 FREECORE  ER 0000000F
 SLICECHK  ER 00000010
 NPATTALK  LD          000013E0           00000001
 ACTPICK   ER 00000011
 GETLINE   ER 00000012
 DELRANGE  ER 00000013
 TOASCII   ER 00000014
 PUTBYTES  ER 00000015
 TOEBCDIC  ER 00000016
 SEGMARK   ER 00000017
 TREAD     ER 00000018
 TOEBC7    ER 00000019
 NPATVIEW  LD          00001D16           00000001
 TCURS     ER 0000001A
 TREND     ER 0000001B
 BTD       ER 0000001C
 GTLASTLN  ER 0000001D
 GTPREVLN  ER 0000001E
 GTFRSTLN  ER 0000001F
 NPATWAIT  LD          000030B8           00000001
 NPATQ     LD          00003236           00000001
 NPATDEQ   LD          0000330C           00000001
 NETFMT    LD          00003366           00000001
 GTNEXTLN  ER 00000020
 SEGCOL    ER 00000021
 VIEWTRC   ER 00000022
 DTB       ER 00000023
 SENCRYPT  ER 00000024
 PATHWRIT  ER 00000025
 DISPATCH  ER 00000026
 NETDISP   ER 00000027
1NPAT     External Symbol Dictionary                                                                                        Page    3
 NTRCDISP  LD          0000350C           00000001
 DISPUNET  LD          0000372A           00000001
 SEGCR     ER 00000028
 FMTTIME   ER 00000029
 SEGB      ER 0000002A
 SEGTB     ER 0000002B
 HEXDUMP   ER 0000002C
 SEGHX     ER 0000002D
 NPATCHK   LD          00004272           00000001
 NPATPOST  LD          000042B6           00000001
 NPATCLS   LD          00004590           00000001
 NPATPCLS  LD          0000471C           00000001
 GETRSC    ER 0000002E
 TBREAK    ER 0000002F
 TIMERDQ   ER 00000030
 PATHREAD  ER 00000031
 GETCORE   ER 00000032
 PATHCLS   ER 00000033
 SDECRYPT  ER 00000034
 FREEETRC  LD          00005038           00000001
 FREEPOOL  ER 00000035
 SERVPOST  ER 00000036
 LOCALTOD  ER 00000037

1NPAT     WYLBUR's Network Path Interface                                                                                   Page    4
0Loc    Object Code    Addr1 Addr2  Stmt Lv Lineno    Source Statement                    (Asmedit 3.3)  HLASM R4.0  2004/03/15 12.50
+___    ______ ____    _____ _____  ____ __ ______    ______ _________
0                                      2              *******************************************************************
                                       3              *                                                                 *
                                       4              *     WYLBUR/370 - Release VI - Class I - Stanford Proprietary    *
                                       5              *                                                                 *
                                       6              *******************************************************************
                                       7                       HIBAL
                                     988
                                     989                       SYSDEFN
                                     990              *
                                     991              *  Modification history:
                                     992              *
                                     993              *    7-July-1997 - M. Durket
                                     994              *
                                     995              *        Removed all calls to TOEVENP. WYLBUR should NOT be
                                     996              *        generating parity on data destined for terminals.
                                     997              *        That's the job of the front ends.
                                     998              *
                                     999              *        Added checking in the NET_TALK routines for
                                    1000              *        to detect when we're talking to a RSH daemon,
                                    1001              *        so that we can suppress the leading X'00' or
                                    1002              *        X'01' reply. This is to correct a problem noted
                                    1003              *        by LTM in an email (namely, that the WYLBUR ON <host>
                                    1004              *        command couldn't be used in a Forsythe RPC because the
                                    1005              *        leading null terminated the RPC read in the server and
                                    1006              *        killed the session.
                                    1007              *
 000000                00000 05330  1008              WYLNPAT  CSECT
                                    1012
                                    1013              NPAT     IDENT 2193                15:11:46 07/12/02  (SLP)
                                    1016             +
                                    1017    01-IDENT +         ENTRY NPAT2193
                                    1018             +
 000000 16D5D7C1E3F2F1F9            1019    01-IDENT +NPAT2193 DC    AL1(22),C'NPAT2193,15MAR04,12:50'
                                    1020             +*
                                    1022                       REGS  FSR,,,,,,,BR,(WAR,LSR),PAR,PBR,CPR,CVR,SPR,RAR
                                    1158
                                    1159                       PUSH  DSECTS
 USING  CP,R11                      1170             =         USING (CP),(CV)
 USING  CV,R12
 000017                00000 05330  1189             =         POP   PRINT
1NPAT     (NPAT2193) (12:50) (15MAR04) Common Control Blocks                                                                Page    5
0Current Usings:  (CP,R11) (CV,R12)
0Loc    Object Code    Addr1 Addr2  Stmt Lv Lineno    Source Statement           (Hibal 5, Asmedit 3.3)  HLASM R4.0  2004/03/15 12.50
+___    ______ ____    _____ _____  ____ __ ______    ______ _________
0000000                00000 000B0  6921              UPATH    RECORD BEGIN
                                    6929  1           UPAT       UPATH
                                    6930+ 1          +¿þþþþþþþþþþþþþþþþþþþþþþþþþþþþþþþþþþþþþþþþþþþþþþþþþþþþþþþþþþþþþþþþþþþþþÜ
                                    6931+ 1          +Ÿ                                                                     Ÿ
                                    6932+ 1          +Ÿ    User Path control block.                                         Ÿ
                                    6933+ 1          +Ÿ                                                                     Ÿ
                                          1           ¾þþþþþþþþþþþþþþþþþþþþþþþþþþþþþþþþþþþþþþþþþþþþþþþþþþþþþþþþþþþþþþþþþþþþþ»
0000000                             6934  1 01-UPATH +           DS    0F
 000000 D7C1E3C8                    6935  1 01-UPATH +           DC    CL4'PATH'
 000004 00000000                    6936  1 01-UPATH +UPATPNO    DC    F'0'                Path number
 000008 00000000                    6937  1 01-UPATH +UPATJCBP   DC    A(0)                Owner's JCB ptr
 00000C 00000000                    6938  1 01-UPATH +UPATLINK   DC    A(0)                Next UPATH on waiting queue
                                    6939  1          +
 000010 00000000                    6940  1 01-UPATH +UPATWRQH   DC    A(0)                Pending write queue head
 000014 00000000                    6941  1 01-UPATH +UPATWRQT   DC    A(0)                Pending write queue tail
 000018 00                          6942  1          +*
 UPATFLG1.UPATFGLO 80 ONES
 UPATFLG1.UPATFNOW 40 ONES
 UPATFLG1.UPATFOPE 20 ONES
 UPATFLG1.UPATFINT 10 ONES
 UPATFLG1.UPATFHDR 08 ONES
 UPATFLG1.UPATFNOF 04 ONES
                                    6977  1          +*
 00001C                             6978  1 01-UPATH +UPATRC     DS    F                   Return code
 000020                             6979  1 01-UPATH +UPATRCMP   DS    2A                  Return code message ptrs
                                    6980  1          +
 000028 00000000                    6981  1 01-UPATH +UPATWAIT   DC    F'0'                Max no of secs to wait (0=nolim)
                                    6982  1          +
 00002C 00000000                    6983  1 01-UPATH +UPATDLOC   DC    A(0)                Remaining data location
 000030 00000000                    6984  1 01-UPATH +UPATDLEN   DC    A(0)                Remaining data length
                                    6985  1          +
 000034 00000000                    6986  1 01-UPATH +UPATXCLK   DC    F'0'                TOD Clock at timeout
                                    6987  1          +
 000038 00000000                    6988  1 01-UPATH +UPATPASC   DC    F'0'                Partner's ASCB ptr
 00003C 0000                        6989  1 01-UPATH +UPATPLNO   DC    H'0'                Partner's line number
 00003E 0000000000000000            6990  1 01-UPATH +UPATPJOB   DC    XL8'00'             Partner's jobname
 000046 0000000000000000            6991  1 01-UPATH +UPATPACT   DC    XL8'00'             Partner's account
 00004E 0000000000000000            6992  1 01-UPATH +UPATPNAM   DC    XL20'00'            Partner's user name
 000062 0000000000000000            6993  1 01-UPATH +UPATPTAG   DC    XL16'00'            Partner's session tag
                                    6994  1          +
 000072 0000                              1          +
 000074                             6996  1 02-PATH  +UPAT       DC    0F'0'
 000074 00000000                    6998  1 03-DEFIN +UPATMGC    DC    AL4(0)
 000078 00000000                    7000  1 03-DEFIN +UPATDJNM   DC    AL4(0)
 00007C D4E8E3C1C7404040            7002  1 03-DEFIN +UPATMY     DC    CL8'MYTAG'
 000084 FFFFFFFFFFFFFFFF            7004  1 03-DEFIN +UPATYOU    DC    XL8'FFFFFFFFFFFFFFFF'
 00008C 80                          7006  1 03-DEFIN +UPATMFL    DC    AL1(1*X'80'+0*X'40'+0*X'20')
                                    7007  1          +
                                    7008  1 02-PATH  +UPATVER2    EQU  X'80'         CALLER IS USING VERSION 2
                                    7009  1 02-PATH  +UPATMCTL    EQU  X'40'         CALLER ASKS TERMINATION CONTROL
                                    7010  1 02-PATH  +UPATMNAM    EQU  X'20'         CALLER PROVIDES CALLEE NAME
                                    7011  1 02-PATH  +UPATMDP1    EQU  X'10'         DUPLICATE TAGS FOUND: MY=PCBO, YOU=PCBA
                                    7012  1 02-PATH  +UPATMDP2    EQU  X'08'         DUPLICATE TAGS FOUND: MY=PCBA, YOU=PCBO
1NPAT     (NPAT2193) (12:50) (15MAR04) Common Control Blocks                                                                Page    6
0Current Usings:  (CP,R11) (CV,R12)
0Loc    Object Code    Addr1 Addr2  Stmt Lv Lineno    Source Statement           (Hibal 5, Asmedit 3.3)  HLASM R4.0  2004/03/15 12.50
+___    ______ ____    _____ _____  ____ __ ______    ______ _________
0                                   7013  1          +
 00008D 000000                      7015  1 03-DEFIN +UPATOECB   DC    AL3(0)
 000090 00004000                    7017  1 03-DEFIN +UPATBUF    DC    AL4(16384)
 000094 000000AC                    7019  1 03-DEFIN +UPATECBF   DC    AL4(UPATSFLG)
                                    7020  1          +
                                    7021  1 02-PATH  +UPATFCLS    EQU   X'80'         I AM POSTED BECAUSE HE CLOSED
                                    7022  1 02-PATH  +UPATFFQE    EQU   X'40'         I AM POSTED BECAUSE HIS FULL Q EMPTIED
                                    7023  1 02-PATH  +UPATFNI     EQU   X'20'         I AM POSTED BECAUSE NEW INFO IN MY Q
                                    7024  1 02-PATH  +UPATFDP     EQU   X'10'         I AM POSTED AT HIS DISCRETION
                                    7025  1 02-PATH  +UPATFOPN    EQU   X'08'         I AM POSTED BECAUSE HE OPENED
                                    7026  1 02-PATH  +UPATFCLC    EQU   X'04'         I AM POSTED BECAUSE MY CLOSE IS COMPLETE
                                    7027  1          +
 000098 D7D9D6C4                    7029  1 03-DEFIN +UPATPASS   DC    CL4'PROD'
 00009C 00000000                    7031  1 03-DEFIN +UPATECB    DC    AL4(*-*)
 0000A0 00000000                    7033  1 03-DEFIN +UPATEXIT   DC    AL4(0)
 0000A4 00000000                    7035  1 03-DEFIN +UPATPINP   DC    XL4'0'
 0000A8 00000000                    7037  1 03-DEFIN +UPATRESV   DC    XL4'0'
                                    7038  1          +*
                                    7039  1          +*  VERSION 2 RETURN CODES
                                    7040  1          +*
                                    7041  1 02-PATH  +UPATROK     EQU  0                       COMPLETE OK
                                    7042  1 02-PATH  +UPATRIFC    EQU  4                       INVALID FUNCTION CODE
                                    7043  1 02-PATH  +UPATRPMW    EQU  8                       INVALID PATH MAGIC WORD
                                    7044  1 02-PATH  +UPATRBAF    EQU  12                      PARTNER'S BUFFER AREA FULL
                                    7045  1 02-PATH  +UPATRNOP    EQU  16                      PARTNER NOT THERE
                                    7046  1 02-PATH  +UPATRBOM    EQU  20                      BUFFER OVER PARTNER'S MAXIMUM
                                    7047  1 02-PATH  +UPATRIBS    EQU  24                      RECEIVE BUFFER TOO SMALL
                                    7048  1 02-PATH  +UPATRBPI    EQU  28                      INVALID BUFFER POINTER
                                    7049  1 02-PATH  +UPATRIAD    EQU  32                      INVALID ADDRESS
                                    7050  1 02-PATH  +UPATRES1    EQU  36                      RESERVED
                                    7051  1 02-PATH  +UPATRES2    EQU  40                      RESERVED
                                    7052  1 02-PATH  +UPATRES3    EQU  44                      RESERVED
                                    7053  1 02-PATH  +UPATRES4    EQU  48                      RESERVED
                                    7054  1          +
                                    7055  1 02-PATH  +UPATSIZE    EQU  *-UPAT        LENGTH OF PATH BLOCK
                                    7056  1          +
 0000AC 00                          7057  1 01-UPATH +UPATSFLG   DC    X'00'               Suzan post flag
 0000AD 00                          7058  1 01-UPATH +UPATPMSK   DC    X'00'               PATHWAIT post mask
 0000AE 0000                        7059  1 01-UPATH +           DC    XL2'00'             Reserved
 0000B0                000B0 000B0  7060                       END
1NPAT     (NPAT2193) (12:50) (15MAR04) Common Control Blocks                                                                Page    7
0Current Usings:  (CP,R11) (CV,R12)
0Loc    Object Code    Addr1 Addr2  Stmt Lv Lineno    Source Statement           (Hibal 5, Asmedit 3.3)  HLASM R4.0  2004/03/15 12.50
+___    ______ ____    _____ _____  ____ __ ______    ______ _________
0000000                00000 00278  7070              UNET     RECORD BEGIN
                                    7078  1           UNET       UNET
                                    7079+ 1          +¿þþþþþþþþþþþþþþþþþþþþþþþþþþþþþþþþþþþþþþþþþþþþþþþþþþþþþþþþþþþþþþþþþþþþþÜ
                                    7080+ 1          +Ÿ                                                                     Ÿ
                                    7081+ 1          +Ÿ    User Network communications control block.                       Ÿ
                                    7082+ 1          +Ÿ                                                                     Ÿ
                                          1           ¾þþþþþþþþþþþþþþþþþþþþþþþþþþþþþþþþþþþþþþþþþþþþþþþþþþþþþþþþþþþþþþþþþþþþþ»
0000000                             7083  1 01-UNET  +           DS    0F
 000000 E4D5C5E3                    7084  1 01-UNET  +           DC    CL4'UNET'
 000004 6F6F6F6F6F                  7085  1 01-UNET  +UNETACCT   DC    CL5'?????'          Owner's account ("uuugg" form)
                                    7086  1 01-UNET  +UNETUSER   EQU   UNETACCT,3,C'C'     .uuu
                                    7087  1 01-UNET  +UNETGRP    EQU   UNETACCT+3,2,C'C'   .gg
 000009 00                                1          +
 00000A 0000                        7088  1 01-UNET  +UNETSNO    DC    H'0'                Milten session number
                                    7089  1          +
 00000C 00000000                    7090  1 01-UNET  +UNETPNO    DC    F'0'                UNET number
 000010 00000000                    7091  1 01-UNET  +UNETJCBP   DC    A(0)                Owner's JCB ptr
 000014 00000000                    7092  1 01-UNET  +UNETLINK   DC    A(0)                Next UNET on waiting queue
                                    7093  1          +
 000018 C1D4C5D3C9C14040            7094  1 01-UNET  +UNETAMY    DC    CL8'AMELIA'         Amelia path name (AMELIA/TESTAMY)
 000020 00000000                    7095  1 01-UNET  +UNETPATP   DC    A(0)                Amelia UPATH ptr
 000024 00000000                    7096  1 01-UNET  +UNETSVIB   DC    A(0)                SVIB ptr (if server connection)
                                    7097  1          +
 000028 00000000                    7098  1 01-UNET  +UNETCTR1   DC    F'0'                (Temp) count of full queue stops
 00002C 00                          7099  1          +*
 UNETFLG1.UNETFGLO 80 ONES
 UNETFLG1.UNETFNOW 40 ONES
 UNETFLG1.UNETFNOP 20 ONES
 UNETFLG1.UNETFINT 10 ONES
 UNETFLG1.UNETFOPE 08 ONES
 UNETFLG1.UNETFHDR 04 ONES
 UNETFLG1.UNETFPRI 02 ONES
 00002D 00                          7139  1          +*
 UNETFLG2.UNETFCRY 80 ONES
 UNETFLG2.UNETFSAM 40 ONES
 UNETFLG2.UNETFASC 20 ONES
 UNETFLG2.UNETFBSI 10 ONES
                                    7164  1          +*
 00002E                             7165  1 01-UNET  +UNETEMSG   DS    CL64                Saved error message text
                                    7166  1          +
 00006E 0000                              1          +
 000070 00000000                    7167  1 01-UNET  +UNETWAIT   DC    F'0'                Max no of secs to wait (0=nolim)
                                    7168  1          +
 000074 00000000                    7169  1 01-UNET  +UNETDLOC   DC    A(0)                Remaining data location
 000078 00000000                    7170  1 01-UNET  +UNETDLEN   DC    A(0)                Remaining data length
                                    7171  1          +
 00007C 0000000000000000            7172  1 01-UNET  +UNETINCRYPT   DC XL64'00'            Input stream crypt work area
 0000BC 0000000000000000            7173  1 01-UNET  +UNETOUTCRYPT   DC XL64'00'           Output stream crypt work area
                                    7174  1          +
 0000FC 00000000                    7175  1 01-UNET  +UNETXCLK   DC    F'0'                TOD Clock at timeout
                                    7176  1          +
                                    7177  1 01-UNET  +UNETBUF#   EQU   4000,,C'N'          Working buffer size
 000100                             7178  1 01-UNET  +UNETBUFP   DS    A                   Working buffer ptr
1NPAT     (NPAT2193) (12:50) (15MAR04) Common Control Blocks                                                                Page    8
0Current Usings:  (CP,R11) (CV,R12)
0Loc    Object Code    Addr1 Addr2  Stmt Lv Lineno    Source Statement           (Hibal 5, Asmedit 3.3)  HLASM R4.0  2004/03/15 12.50
+___    ______ ____    _____ _____  ____ __ ______    ______ _________
0                                   7179  1          +*
 000104 00                          7180  1          +*
 UNETSGFLG.UNETFCT 80 ONES
 UNETSGFLG.UNETFNO 40 ONES
 UNETSGFLG.UNETFNP 20 ONES
 UNETSGFLG.UNETFWR 10 ONES
                                    7205  1 01-UNET  +UNETSINIT   EQU  UNETSGFLG,*-UNETSGFLG,C'X'
                                    7206  1          +
 000108                             7207  1 01-UNET  +UNETOBUFP   DS   A                   Output seg buffer (@ prefix)
                                    7208  1 01-UNET  +UNETPFXL#   EQU  20,,C'N'            Length of "prefix" before segbuf
 00010C 00                          7210  1 02-SEGCB +$$$SEGCB50   DS  0F
 UNETOUTSGCOD.UNET 01 EQ
 UNETOUTSGCOD.UNET 02 EQ
 UNETOUTSGCOD.UNET 03 EQ
 UNETOUTSGCOD.UNET 04 EQ
 UNETOUTSGCOD.UNET 05 EQ
 UNETOUTSGCOD.UNET 06 EQ
 UNETOUTSGCOD.UNET 07 EQ
 00010D 00                          7285  1 02-SEGCB +           DC    X'00'               Reserved
 00010E 0000                              1          +
 000110 00000000                    7286  1 02-SEGCB +UNETOUTSGMAXF   DC A(0)              Maximum buffer length
 000114 00000000                    7287  1 02-SEGCB +UNETOUTSGMRKF   DC A(0)              Length at last mark
 000118 00000000                    7288  1 02-SEGCB +UNETOUTSGLENF   DC A(0)              Current length
 00011C 00000000                    7289  1 02-SEGCB +UNETOUTSGINDF   DC A(0)              Overflow/indent count
 000120 00000000                    7290  1 02-SEGCB +UNETOUTSGERR   DC A(0)               Address of error recovery routine
 000124 0000000000000000            7291  1 02-SEGCB +           DC    2F'0'               Reserved
 00012C 00000000                    7292  1 02-SEGCB +UNETOUTSGLOC   DC A(0)               Location of buffer
 000130 00000000                    7293  1 02-SEGCB +UNETOUTSGRTN   DC A(0)               Processing routine
 000134 0000000000000000            7294  1 02-SEGCB +           DC    4F'0'               Reserved
 000144 00000000                    7295  1 02-SEGCB +UNETOUTSGUSR   DC A(0)               USER field
                                    7296  1 02-SEGCB +UNETOUTSG   EQU  $$$SEGCB50,*-$$$SEGCB50,C'X'
                                    7297  1          +
                                    7298  1 01-UNET  +UNETINMX#   EQU  128*1024,,C'N'      Can't handle more than this
                                    7299  1 01-UNET  +UNETINHI#   EQU  30*1024,,C'N'       Stop buffering any more data
                                    7300  1 01-UNET  +UNETINLO#   EQU  2*1024,,C'N'        Start buffering data again
                                    7301  1          +
 000148                             7302  1 01-UNET  +UNETINQH   DS    A                   Input buffer queue head ptr
 00014C                             7303  1 01-UNET  +UNETINQT   DS    A                   Input buffer queue tail ptr
 000150                             7304  1 01-UNET  +UNETINOLD   DS   A                   Old input buf (pending delete)
 000154                             7305  1 01-UNET  +UNETINL    DS    A                   Total length of input buffers
                                    7306  1          +
 000158                             7307  1 01-UNET  +UNETINCUR   DS   2A                  Current buf loc, len (READLINE)
                                    7308  1          +
 000160 00                          7309  1 01-UNET  +UNETSTATE   DC   X'00'               Current connection state
                                    7310  1 01-UNET  +UNETSFINITIAL    EQU    1            - Initial state
                                    7311  1 01-UNET  +UNETSFOPENING    EQU    2            - Opening TCP connection
                                    7312  1 01-UNET  +UNETSFOPENSTOP   EQU    3            - Open but can't send anything
                                    7313  1 01-UNET  +UNETSFOPEN       EQU    4            - Connection established
                                    7314  1 01-UNET  +UNETSFDATASTOP   EQU    5            - New data; but we can't send
                                    7315  1 01-UNET  +UNETSFDATA       EQU    6            - New data waiting
                                    7316  1 01-UNET  +UNETSFABORT      EQU    7            - Connection aborted by Amelia
                                    7317  1 01-UNET  +UNETSFCLOSING    EQU    8            - Closing TCP connection
                                    7318  1 01-UNET  +UNETSFPATHCLS    EQU    9            - Amelia path connection closed
                                    7319  1 01-UNET  +UNETSFCLOSE      EQU    10           - Connection closed
1NPAT     (NPAT2193) (12:50) (15MAR04) Common Control Blocks                                                                Page    9
0Current Usings:  (CP,R11) (CV,R12)
0Loc    Object Code    Addr1 Addr2  Stmt Lv Lineno    Source Statement           (Hibal 5, Asmedit 3.3)  HLASM R4.0  2004/03/15 12.50
+___    ______ ____    _____ _____  ____ __ ______    ______ _________
0                                   7320  1          +
 000161 00                          7321  1 01-UNET  +UNETPOST   DC    X'00'               GE state will post completion
                                    7322  1          +
 000162 00                          7323  1 01-UNET  +UNETTALK   DC    X'00'               NET_TALK mode
                                    7324  1 01-UNET  +UNETTALKCHAR     EQU    1            - Character mode talking
                                    7325  1 01-UNET  +UNETTALKLINE     EQU    2            - Line mode talking
                                    7326  1 01-UNET  +UNETTALKVTAM     EQU    3            - Vtam "half duplex" mode talking
 000163 00                          7327  1          +*
 UNETAFLG1.UNETFIA 80 ONES
 UNETAFLG1.UNETFIA 40 ONES
 UNETAFLG1.UNETFCR 20 ONES
 000164 00                          7347  1          +*
 UNETAFLG2.UNETFOU 80 ONES
 UNETAFLG2.UNETFOU 40 ONES
 UNETAFLG2.UNETFOU 20 ONES
 UNETAFLG2.UNETFOU 10 ONES
 UNETAFLG2.UNETFIN 08 ONES
 UNETAFLG2.UNETFIN 04 ONES
 UNETAFLG2.UNETFIN 02 ONES
 UNETAFLG2.UNETFIN 01 ONES
 000165 00                          7392  1          +*
 UNETAFLG3.UNETFNO 80 ONES
 UNETAFLG3.UNETFWR 40 ONES
 UNETAFLG3.UNETFKE 20 ONES
 000166 00                          7412  1          +*
 UNETINMODE.UNETIN 00 EQ
 UNETINMODE.UNETIN 01 EQ
 000167 00                          7437  1          +*
 UNETOUTMODE.UNETO 00 EQ
 UNETOUTMODE.UNETO 01 EQ
                                    7462  1          +*
 000168 0000                        7463  1 01-UNET  +UNETMAXL   DC    H'0'                Maximum length line
                                    7464  1          +
 00016A 0000                              1          +
 00016C 00000000                    7465  1 01-UNET  +UNETLNO    DC    F'0'                Working line-number
                                    7466  1          +
 000170 00000000                    7467  1 01-UNET  +UNETAID    DC    F'0'                Amelia connection ID
                                    7468  1          +
 000174 00000000                    7469  1 01-UNET  +UNETLIP    DC    F'0'                Our host IP address
 000178 00000000                    7470  1 01-UNET  +UNETLPORT   DC   F'0'                Our TCP port number
                                    7471  1          +
 00017C 4040404040404040            7472  1 01-UNET  +UNETRNAME   DC   CL80' '             Remote host name
 0001CC 00000000                    7473  1 01-UNET  +UNETRIP    DC    F'0'                Remote host IP address
 0001D0 00000000                    7474  1 01-UNET  +UNETRPORT   DC   F'0'                Remote TCP port number
                                    7475  1          +
 0001D4 00000000                    7476  1 01-UNET  +UNETFLOWL   DC   F'0'                Flow control: low water mark
 0001D8 00000000                    7477  1 01-UNET  +UNETFLOWH   DC   F'0'                Flow control: high water mark
                                    7478  1          +
 0001DC                             7479  1 01-UNET  +UNETTERM   DS    CL32                Terminal type (for TELNET)
                                    7480  1          +
 0001FC 00000000                    7481  1 01-UNET  +UNETTTBL   DC    A(0)                Connection trace table
 000200 00000000                    7482  1 01-UNET  +UNETTTNX   DC    F'0'                Index of next entry to be used
                                    7483  1          +
 000204                             7484  1 01-UNET  +           DS    XL24                Reserved
1NPAT     (NPAT2193) (12:50) (15MAR04) Common Control Blocks                                                                Page   10
0Current Usings:  (CP,R11) (CV,R12)
0Loc    Object Code    Addr1 Addr2  Stmt Lv Lineno    Source Statement           (Hibal 5, Asmedit 3.3)  HLASM R4.0  2004/03/15 12.50
+___    ______ ____    _____ _____  ____ __ ______    ______ _________
000021C 00/00                       7485  1          +*
 UNETVFLG1.UNETFPF 80 ONES
 00021E 0000                        7499  1 01-UNET  +UNETVHEI   DC    H'0'                NET_VIEW:  Screen height
 000220 0000                        7500  1 01-UNET  +UNETVWID   DC    H'0'                NET_VIEW:  Screen width
 000222 0000                        7501  1 01-UNET  +UNETNTXT   DC    H'0'                NET_VIEW:  No. of text lines
 000224 000000000000                7502  1 01-UNET  +           DC    3H'0'               NET_VIEW:  Reserved
 00022A 0000                        7503  1 01-UNET  +UNETPFKR   DC    H'0'                NET_VIEW:  Row of PFK line
 00022C 0000000000000000            7504  1 01-UNET  +UNETPFKC   DC    XL(2*9)'00'         NET_VIEW:  Start col for each PF
 00023E 0000                        7505  1 01-UNET  +UNETPRPF   DC    H'0'                NET_VIEW:  PF key for "prev"
 000240 0000                        7506  1 01-UNET  +UNETNXPF   DC    H'0'                NET_VIEW:  PF key for "next"
 000242 0000                        7507  1 01-UNET  +UNETMKPF   DC    H'0'                NET_VIEW:  PF key for "mark"
 000244 0000                        7508  1 01-UNET  +UNETXXPF   DC    H'0'                NET_VIEW:  PF key for "secure"
 000246 0000                        7509  1 01-UNET  +UNETSNPF   DC    H'0'                NET_VIEW:  PF key for "send"
 000248 00000000                    7510  1 01-UNET  +           DC    2H'0'               NET_VIEW:  Reserved
                                    7511  1          +
                                    7512  1 01-UNET  +UNETLMX#   EQU   500,,C'N'           NET_VIEW:  No lines meaning lots
 00024C 00000000                    7513  1 01-UNET  +UNETTOPL   DC    F'0'                NET_VIEW:  Current top lineno
 000250 00000000                    7514  1 01-UNET  +UNETBOTC   DC    F'0'                NET_VIEW:  No lines that follow
 000254 00000000                    7515  1 01-UNET  +UNETFIXL   DC    F'0'                NET_VIEW:  Fixed top lineno
 000258 00000000                    7516  1 01-UNET  +UNETBYCT   DC    F'0'                NET_VIEW:  Cur act byte count
 00025C 00000000                    7517  1 01-UNET  +UNETLLNO   DC    F'0'                NET_VIEW:  Cur last lineno
 000260 00000000                    7518  1 01-UNET  +UNETMRKL   DC    F'0'                NET_VIEW:  Marked lineno
 000264 00000000                    7519  1 01-UNET  +UNETINPL   DC    F'0'                NET_VIEW:  Last lineno @ input
 000268 00000000                    7520  1 01-UNET  +UNETCURL   DC    F'0'                NET_VIEW:  Current cursor lineno
 00026C 0000000000000000            7521  1 01-UNET  +           DC    XL12'00'            Reserved
 000278                00278 00278  7522                       END
1NPAT     (NPAT2193) (12:50) (15MAR04) Common Control Blocks                                                                Page   11
0Current Usings:  (CP,R11) (CV,R12)
0Loc    Object Code    Addr1 Addr2  Stmt Lv Lineno    Source Statement           (Hibal 5, Asmedit 3.3)  HLASM R4.0  2004/03/15 12.50
+___    ______ ____    _____ _____  ____ __ ______    ______ _________
0000000                00000 00020  7532              CTRC     RECORD BEGIN
 000000                             7540  1           CTRCCLCK   DS    D                   Timestamp
 000008                             7541  1           CTRCSR     DS    C                   0 = output, 1 = input
 000009                             7542  1           CTRCCOD    DS    X                   Packet type code (unused for now)
                                    7543  1           *
                                    7544  1           *
 00000A                             7545  1           CTRCLEN    DS    H
 00000C                             7546  1           CTRCPKT    DS    CL20                Data sent/recvd (includes hdr)
 000020                00020 00020  7547                       END
                                    7556              CTRC#    EQU   256                 Number of trace entries/UNET
                                    7557              CTRCSHFT EQU   5                   Trace entry size must be power of 2
                                    7558
                                    7559                       COPY  SCRYPTWA            Encrypt/decrypt work area
                                    7560             =*
                                    7561             =*  SCRYPTWA - SIMPLE CRYPT WORK AREA
                                    7562             =*
 000000                00000 0002C  7563             =SCRYPTWA RECORD BEGIN
 000000                             7571  1          =SCXN       DS    F
 000004                             7572  1          =SCXNM3     DS    F
 000008                             7573  1          =SCXNM31    DS    F
 00000C                             7574  1          =SCKEY      DS    CL32
 00002C                0002C 0002C  7575             =         END
 000018                             7584                       DS    0S(L'UNETINCRYPT-L'SCRYPTWA)  Err if CRYPTWA too big
 000018                             7585                       DS    0S(L'UNETOUTCRYPT-L'SCRYPTWA)  Err if CRYPTWA too big
 000018 C3C5D3D3C2D3D6D2_           7586              UNETCELL CELLBLOK SIZE=L'UNET
 000040 C3C5D3D3C2D3D6D2_           7597              UNETSGBF CELLBLOK SIZE=UNETBUF#
 000068 C3C5D3D3C2D3D6D2_           7608              CTRCCELL CELLBLOK SIZE=(CTRC#*L'CTRC)
1NPAT     (NPAT2193) (12:50) (15MAR04) Common Control Blocks                                                                Page   12
0Current Usings:  (CP,R11) (CV,R12)
0Loc    Object Code    Addr1 Addr2  Stmt Lv Lineno    Source Statement           (Hibal 5, Asmedit 3.3)  HLASM R4.0  2004/03/15 12.50
+___    ______ ____    _____ _____  ____ __ ______    ______ _________
0                                   7620                       ¿þþþþþþþþþþþþþþþþþþþþþþþþþþþþþþþþþþþþþþþÜ
                                    7621                       Ÿ  Special telnet control byte values.  Ÿ
                                    7622                       ¾þþþþþþþþþþþþþþþþþþþþþþþþþþþþþþþþþþþþþþþ»
                                    7623              $CTRLC   EQU   X'03',,C'N'         ASCII ctrl-C (treated as break)
                                    7624              $TAB     EQU   X'09',,C'N'         ASCII tab
                                    7625              $LF      EQU   X'0A',,C'N'         ASCII line-feed
                                    7626              $CR      EQU   X'0D',,C'N'         ASCII carriage return
                                    7627              $BLANK   EQU   X'20',,C'N'         ASCII blank
                                    7628
                                    7629              $SE      EQU   X'F0',,C'N'         240: End of subparms
                                    7630              $NOP     EQU   X'F1',,C'N'         241: No operation
                                    7631              $DM      EQU   X'F2',,C'N'         242: Data mark
                                    7632              $BRK     EQU   X'F3',,C'N'         243: Break
                                    7633              $IP      EQU   X'F4',,C'N'         244: Interrupt process
                                    7634              $ABORT   EQU   X'F5',,C'N'         245: Abort output
                                    7635              $AYT     EQU   X'F6',,C'N'         246: Are you there
                                    7636              $EC      EQU   X'F7',,C'N'         247: Erase character
                                    7637              $EL      EQU   X'F8',,C'N'         248: Erase line
                                    7638              $GA      EQU   X'F9',,C'N'         249: Go ahead
                                    7639              $SB      EQU   X'FA',,C'N'         250: Start of subparms
                                    7640              $WILL    EQU   X'FB',,C'N'         251: Will
                                    7641              $WONT    EQU   X'FC',,C'N'         252: Won't
                                    7642              $DO      EQU   X'FD',,C'N'         253: Do
                                    7643              $DONT    EQU   X'FE',,C'N'         254: Don't
                                    7644              $IAC     EQU   X'FF',,C'N'         255: I am a control byte
                                    7645
                                    7646              $BINARY  EQU   X'00',,C'N'         0:   Transmit-binary
                                    7647              $ECHO    EQU   X'01',,C'N'         1:   Echo
                                    7648              $SGA     EQU   X'03',,C'N'         3:   Suppress go ahead
                                    7649              $TTYPE   EQU   X'18',,C'N'         24:  Terminal type
                                    7650
                                    7651              $CRLF    EQU   1000,,C'N'          Our internal code for CR/LF
                                    7652              $STOP    EQU   1001,,C'N'          Our internal code for "stop!"
1NPAT     (NPAT2193) (12:50) (15MAR04) Common Control Blocks                                                                Page   13
0Current Usings:  (CP,R11) (CV,R12)
0Loc    Object Code    Addr1 Addr2  Stmt Lv Lineno    Source Statement           (Hibal 5, Asmedit 3.3)  HLASM R4.0  2004/03/15 12.50
+___    ______ ____    _____ _____  ____ __ ______    ______ _________
0                                   7654              ¿þþþþþþþþþþþþþþþþþþþþþþþþþþþþþþþþþþþþþþþþþþþþþþþþþþþþþþþþþþþþþþþþþþþþþÜ
                                    7655              Ÿ                                                                     Ÿ
                                    7656              Ÿ  UNET Input buffer queue entry                                      Ÿ
                                    7657              Ÿ                                                                     Ÿ
                                                      ¾þþþþþþþþþþþþþþþþþþþþþþþþþþþþþþþþþþþþþþþþþþþþþþþþþþþþþþþþþþþþþþþþþþþþþ»
0000000                00000 00008  7658              INBUF    RECORD BEGIN
 000000                             7666  1           INBUFLNK   DS    A                   Next INBUF ptr
 000004                             7667  1           INBUFLEN   DS    F                   Length of data which follows
                                    7668  1           INBUFDAT   EQU   *                   Start of data
 000008                00008 00008  7669                       END
                                    7678              ¿þþþþþþþþþþþþþþþþþþþþþþþþþþþþþþþþþþþþþþþþþþþþþþþþþþþþþþþþþþþþþþþþþþþþþÜ
                                    7679              Ÿ                                                                     Ÿ
                                    7680              Ÿ  ETRC -- Network file-transfer trace entry                          Ÿ
                                    7681              Ÿ                                                                     Ÿ
                                                      ¾þþþþþþþþþþþþþþþþþþþþþþþþþþþþþþþþþþþþþþþþþþþþþþþþþþþþþþþþþþþþþþþþþþþþþ»
0000000                00000 0001A  7682              ETRC     RECORD BEGIN
 000000                             7690  1           ETRCSTRT   DS    CL4'ETRC'           Self identification
 000004                             7691  1           ETRCLINK   DS    A                   Next ETRC ptr (or zero)
 000008                             7692  1           ETRCCLCK   DS    D                   Time stamp
                                    7693  1
 000010                             7694  1           ETRCSNO    DS    H                   Session number
 000012                             7695  1           ETRCACCT   DS    CL5                 Session account (uuugg)
                                    7696  1
 000017 00                          7697  1           ETRCFLAG   FLAG
 ETRCFLAG.ETRCFOUT 80 ONES          7701  1                      FLAG  ETRCFOUT            - Output buffer
 ETRCFLAG.ETRCFIN  40 ONES          7706  1                      FLAG  ETRCFIN             - Input buffer
                                    7711  1
 000018                             7712  1           ETRCDLEN   DS    H                   Data length
                                    7713  1           ETRCHDR    EQU   ETRCSTRT,*-ETRCSTRT,C'X'
                                    7714  1
 00001A                             7715  1           ETRCDATA   DS    0X                  Data starts here (variable len)
 00001A                0001A 0001A  7716                       END
1NPAT     (NPAT2193) (12:50) (15MAR04) Network Interface Routines                                                           Page   14
0Current Usings:  (CP,R11) (CV,R12)
0Loc    Object Code    Addr1 Addr2  Stmt Lv Lineno    Source Statement           (Hibal 5, Asmedit 3.3)  HLASM R4.0  2004/03/15 12.50
+___    ______ ____    _____ _____  ____ __ ______    ______ _________
0                                   7726              ¿þþþþþþþþþþþþþþþþþþþþþþþþþþþþþþþþþþþþþþþþþþþþþþþþþþþþþþþþþþþþþþþþþþþþþÜ
                                    7727              Ÿ                                                                     Ÿ
                                    7728              Ÿ  NPATFREE -- Routine to free up all open user network connections.  Ÿ
                                    7729              Ÿ    This routine is called at the end of a user session.             Ÿ
                                    7730              Ÿ                                                                     Ÿ
                                                      ¾þþþþþþþþþþþþþþþþþþþþþþþþþþþþþþþþþþþþþþþþþþþþþþþþþþþþþþþþþþþþþþþþþþþþþ»
0000090 50E0 D000/9008_      00000  7731              NPATFREE XPROC
 USING  *,R7
 0000AA 4120 0001            00001  7771                       LA    R2,1                Path number
 0000AE 5830 C0A8            000A8  7772                       L     R3,CVNETP           Start of net path table
 0000B2 5920 73F6/4730_      004A0  7773                       WHILE (R2,LE,CVNET#),BEGIN  Go through entries...
 0000BA 5840 3000/1244_      00000  7792  1                      IF    ('LT R4,@R3',NZ),BEGIN  Close it...
 USING  UNET,R4                     7808  2                        WITH  (UNET,R4)
 0000C4 D503 4010 C1C8_00010 001C8  7821  2                        IF    (UNETJCBP,EQ,CVCURJCB),BEGIN  Our UNET path...
                                    7839  3                          ¿þþþþþþþþþþþþþþþþþþþþþþþþþþþþþþþþþþþþþÜ
                                    7840  3                          Ÿ  Try to abort the open connection.  Ÿ
                                    7841  3                          ¾þþþþþþþþþþþþþþþþþþþþþþþþþþþþþþþþþþþþþ»
 0000CE 9120 4164/4710_00164        7842  3                          IF    ~UNETFOUTABORT,BEGIN  We haven't sent an abort...
 0000D6 9102 4164/4710_00164        7857  4                            IF    UNETFINABORT,EXIT   We don't need to if Amy aborts
 0000DE 4110 7442            004EC  7875  4                            LA    R1,=C'ABORT'
 0000E2 41F0 4000            00000  7876  4                            LA    R15,UNET
 0000E6 58E0 73FA/0DEE       004A4  7877  4                            VCALL NPATCTRL            Send abort
 0000EC                             7881  3                          END
                                    7885  3                          ¿þþþþþþþþþþþþþþþþþþþþþþþþþþþþþÜ
                                    7886  3                          Ÿ  Now close the connection.  Ÿ
                                    7887  3                          ¾þþþþþþþþþþþþþþþþþþþþþþþþþþþþþ»
 0000EC 41F0 4000            00000  7888  3                          LA    R15,UNET
 0000F0 58E0 73FE/0DEE       004A8  7889  3                          ACALL NPATCLS             Close and free it
 0000F6                             7893  2                        END
 DROP   UNET,R4                     7897  1                      END
                                    7906  1
 0000F6 4130 3004            00004  7907  1                      LA    R3,@R3+4            Next entry
 0000FA 4120 2001            00001  7908  1                      LA    R2,@R2+1
 0000FE 47F0 7008            000B2  7909                       END
                                    7914
 000102 D701 B222 B222 00222 00222  7915                       CLEAR CPNNETS             No UNETs for this user any more
                                    7922
 000108 1BFF                        7923                       CLEAR R15                 A-ok
 00010A 18D8/9808 D004_             7927                       PEND
 DROP   *,R7
1NPAT     (NPAT2193) (12:50) (15MAR04) Network Interface Routines                                                           Page   15
0Current Usings:  (CP,R11) (CV,R12)
0Loc    Object Code    Addr1 Addr2  Stmt Lv Lineno    Source Statement           (Hibal 5, Asmedit 3.3)  HLASM R4.0  2004/03/15 12.50
+___    ______ ____    _____ _____  ____ __ ______    ______ _________
0                                   7948              ¿þþþþþþþþþþþþþþþþþþþþþþþþþþþþþþþþþþþþþþþþþþþþþþþþþþþþþþþþþþþþþþþþþþþþþÜ
                                    7949              Ÿ                                                                     Ÿ
                                    7950              Ÿ  NPATALLO -- Routine to allocate a network path.                    Ÿ
                                    7951              Ÿ                                                                     Ÿ
                                    7952              Ÿ    On entry:                                                        Ÿ
                                    7953              Ÿ      R0 -  0 = user path                                            Ÿ
                                    7954              Ÿ            1 = global path (won't "belong" to this user)            Ÿ
                                    7955              Ÿ                                                                     Ÿ
                                    7956              Ÿ    On exit, R15 (and cc):                                           Ÿ
                                    7957              Ÿ      0 - allocated                                                  Ÿ
                                    7958              Ÿ            R0 = net path number                                     Ÿ
                                    7959              Ÿ            R1 = UNET ptr                                            Ÿ
                                    7960              Ÿ      4 - not allocated                                              Ÿ
                                    7961              Ÿ            R1,R0 = error msg loc, len                               Ÿ
                                    7962              Ÿ                                                                     Ÿ
                                                      ¾þþþþþþþþþþþþþþþþþþþþþþþþþþþþþþþþþþþþþþþþþþþþþþþþþþþþþþþþþþþþþþþþþþþþþ»
0000118 50E0 D000/9028_      00000  7963              NPATALLO XPROC (R2,LSR)
 USING  *,R7
 000132 1850                        8003                       LR    R5,R0               Save option flag
                                    8004                       ¿þþþþþþþþþþþþþþþþþþþþþþþþþþþþþþþþþþþþþþþþþþþþþþþþþþþþþþþþþþþþþÜ
                                    8005                       Ÿ  Check to see if the user can open another net connection.  Ÿ
                                    8006                       ¾þþþþþþþþþþþþþþþþþþþþþþþþþþþþþþþþþþþþþþþþþþþþþþþþþþþþþþþþþþþþþ»
 000134 1255/4770 7020              8007                       IF    (R5,Z),BEGIN        User path...
 00013A 9519 B222/4740_00222        8021  1                      IF    (CPNNETS,LT,CVUNMAX#),EXIT  OK, not too many
 000142 4110 73BF/4100_      004F1  8042  1                      SETMSG 'TOO MANY CONNECTIONS OPEN'
 00014A 41F0 0004            00004  8046  1                      LA    R15,4               Bad news
 00014E 47F0 71AE            002E0  8047  1                      EXIT  NPATALLO
 000152                             8050                       END
                                    8054                       ¿þþþþþþþþþþþþþþþþþþþþþþþþþþþþþþþþþþþþÜ
                                    8055                       Ÿ  Find available path index entry.  Ÿ
                                    8056                       ¾þþþþþþþþþþþþþþþþþþþþþþþþþþþþþþþþþþþþ»
 000152 4120 0001            00001  8057                       LA    R2,1
 000156 5830 C0A8            000A8  8058                       L     R3,CVNETP           Start of path table
 00015A 5920 736E/4730_      004A0  8059                       WHILE (R2,LE,CVNET#),BEGIN  Find available path entry...
 000162 D603 3000 3000_00000 00000  8078  1                      IF    ('OC @R3(4),@R3',Z),BEGIN  It's available...
                                    8091  2                        ¿þþþþþþþþþþþþþþþþþþþþþþþþþþþþþþþþþþþþþþÜ
                                    8092  2                        Ÿ  Get memory for UNET control block.  Ÿ
                                    8093  2                        ¾þþþþþþþþþþþþþþþþþþþþþþþþþþþþþþþþþþþþþþ»
                                    8094  2           *
 00016C 58F0 737A            004AC  8095  2                        L     R15,=A(UNETCELL)
 000170 58E0 737E/0DEE       004B0  8096  2                        VCALL GETPOOL
                                    8100  2
 000176 1841                        8101  2                        LR    R4,R1
 USING  UNET,R4                     8102  2                        WITH  (UNET,R4)
                                    8115  2
 000178 D7FF 4000 4000_00000 00000  8116  2                        CLEAR UNET
 00018A D203 4000 7382 00000 004B4  8125  2                        MVC   UNET(4),=C'UNET'    Set UNET id
                                    8126  2                        ¿þþþþþþþþþþþþþþþþþþþþþþþþþþþþþþÜ
                                    8127  2                        Ÿ  Set network path defaults.  Ÿ
                                    8128  2                        ¾þþþþþþþþþþþþþþþþþþþþþþþþþþþþþþ»
 000190 5040 3000            00000  8129  2                        ST    R4,@R3              Save UNET ptr in index table
 000194 5020 400C            0000C  8130  2                        ST    R2,UNETPNO          Save our net path id
                                    8131  2
1NPAT     (NPAT2193) (12:50) (15MAR04) Network Interface Routines                                                           Page   16
0Current Usings:  (UNET,R4) (*,R7) (CP,R11) (CV,R12)
0Loc    Object Code    Addr1 Addr2  Stmt Lv Lineno    Source Statement           (Hibal 5, Asmedit 3.3)  HLASM R4.0  2004/03/15 12.50
+___    ______ ____    _____ _____  ____ __ ______    ______ _________
0000198 9640 4165      00165        8132  2                        SET   UNETFWRAP           Default is to wrap lines
 00019C D201 4168 73A6 00168 004D8  8138  2                        MVC   UNETMAXL,=AL2(&LINESZ)  Maximum length line allowed
 0001A2 D203 41D4 7386 001D4 004B8  8139  2                        MVC   UNETFLOWL,=F'4000'  Flow control low water mark
 0001A8 D203 41D8 738A 001D8 004BC  8140  2                        MVC   UNETFLOWH,=F'8000'  Flow control high water mark
                                    8141  2                        ¿þþþþþþþþþþþþþþþþþþþþþþþþþþþþþþþþþþþþþþþþþþþþþþþþþþþþþþþþÜ
                                    8142  2                        Ÿ  Fill in information for a global network connection.  Ÿ
                                    8143  2                        ¾þþþþþþþþþþþþþþþþþþþþþþþþþþþþþþþþþþþþþþþþþþþþþþþþþþþþþþþþ»
 0001AE 1255/4780 708C              8144  2                        IF    (R5,NZ),BEGIN       Global UNET...
 0001B4 9680 402C      0002C        8158  3                          SET   UNETFGLOBAL         It's a global UNET
 0001B8 D703 4010 4010 00010 00010  8164  3                          CLEAR UNETJCBP            No owner yet (see NPATSETU)
 0001BE                             8171  2                        END
                                    8175  2                        ¿þþþþþþþþþþþþþþþþþþþþþþþþþþþþþþþþþþþþþþþþþþþþþþÜ
                                    8176  2                        Ÿ  Fill in information for a user connection.  Ÿ
                                    8177  2                        ¾þþþþþþþþþþþþþþþþþþþþþþþþþþþþþþþþþþþþþþþþþþþþþþ»
 0001BE 7090/47F0 70B0 001BE 001B2  8178  2                        ELSE  BEGIN               User UNET...
 0001C2 41F0 0001/4AF0_      00001  8189  3                          INCR  R15,CPNNETS         Count our net connection
                                    8195  3
 0001CE 58F0 C1C8            001C8  8196  3                          L     R15,CVCURJCB
 0001D2 50F0 4010            00010  8197  3                          ST    R15,UNETJCBP        Save our JCB ptr
 USING  JCB,R15                     8198  3                          WITH  (JCB,R15),BEGIN
 0001D6 D204 4004 F04A 00004 0004A  8212  4                            MVC   UNETACCT,JCBACCT    Save account
 0001DC D201 400A F048 0000A 00048  8213  4                            MVC   UNETSNO,JCBSEQ      Save Milten session number
 DROP   JCB,R15                     8214  3                          END
 0001E2                             8222  2                        END
                                    8226  2
 0001E2 58F0 738E            004C0  8227  2                        L     R15,=A(CTRCCELL)    Get trace table
 0001E6 58E0 737E/0DEE       004B0  8228  2                        VCALL GETPOOL
 0001EC 5010 41FC            001FC  8232  2                        ST    R1,UNETTTBL
                                    8233  2
 0001F0 58F0 7392            004C4  8234  2                        L     R15,=A(UNETSGBF)    Get a working buffer
 0001F4 58E0 737E/0DEE       004B0  8235  2                        VCALL GETPOOL
 0001FA 5010 4100            00100  8239  2                        ST    R1,UNETBUFP         Save working buffer ptr
                                    8240  2
 0001FE 58F0 7392            004C4  8241  2                        L     R15,=A(UNETSGBF)    Get an output seg buffer
 000202 58E0 737E/0DEE       004B0  8242  2                        VCALL GETPOOL
 000208 5010 4108            00108  8246  2                        ST    R1,UNETOBUFP        Save seg buffer ptr
 00020C 4110 1014            00014  8247  2                        LA    R1,@R1+UNETPFXL#    Skip past prefix
 000210 4B00 73A8            004DA  8248  2                        SH    R0,=AL2(UNETPFXL#)  Adjust length appropriately
 000214 41F0 410C/58E0_      0010C  8249  2                        SEGINIT (R1),(R0),UNETOUTSG,RTN=NPATSEG  Init output buf
                                    8287  2
 00022C 41F0 4000            00000  8288  2                        LA    R15,UNET
 000230 50F0 4144            00144  8289  2                        ST    R15,UNETOUTSGUSR    Set UNET ptr in SEGCB
                                    8290  2                        ¿þþþþþþþþþþþþþþþþþþþþþþþþþþþþþþþþþþþþþþþþþþþþþþþþþþþþþþþþþþþÜ
                                    8291  2                        Ÿ  Allow the user to override the path name for the AMELIA  Ÿ
                                    8292  2                        Ÿ    connection.  Normally:                                 Ÿ
                                    8293  2                        Ÿ                                                           Ÿ
                                    8294  2                        Ÿ    ses.amelia = 'AMELIA'                                  Ÿ
                                    8295  2                        ¾þþþþþþþþþþþþþþþþþþþþþþþþþþþþþþþþþþþþþþþþþþþþþþþþþþþþþþþþþþþ»
 000234 D207 4018 735E 00018 00490  8296  2                        MVC   UNETAMY,=CL8'AMELIA'  Assume AMELIA
                                    8297  2
 00023A 18ED/41D0 D43C_             8298  2                        TPUSH
 00026E 182D/41D0 D020              8336  2                        XPUSH ,,32,PTR=R2         Get variable result wa
                                    8339  2
 000274 4130 0020            00020  8340  2                        LA    R3,32
1NPAT     (NPAT2193) (12:50) (15MAR04) Network Interface Routines                                                           Page   17
0Current Usings:  (UNET,R4) (*,R7) (CP,R11) (CV,R12)
0Loc    Object Code    Addr1 Addr2  Stmt Lv Lineno    Source Statement           (Hibal 5, Asmedit 3.3)  HLASM R4.0  2004/03/15 12.50
+___    ______ ____    _____ _____  ____ __ ______    ______ _________
0000278 D21F 2000 C4D8 00000 004D8  8341  2                        MVC   @R2(32),CVBLANKS
 00027E 4110 73AC/4100_      004DE  8342  2                        SETMSG 'SES.AMELIA'
 000286 58E0 73A2/0DEE       004D4  8346  2                        VCALL EVALSTR             Get expression value
 00028C 4720 717A            002AC  8350  2                        IF    NP,BEGIN            It's defined...
 000290 1233/47D0 717A              8361  3                          IF    (R3,NP),EXIT        Variable is null, forget it
 000296 D61F 2000 C4D8 00000 004D8  8378  3                          OC    @R2(32),CVBLANKS    Convert to upper case
 00029C D507 2000 C4D8 00000 004D8  8379  3                          CLC   @R2(8),CVBLANKS     All blank?
 0002A2 4780 717A            002AC  8380  3                          IF    EQ,EXIT             Yes, scram
 0002A6 D207 4018 2000 00018 00000  8394  3                          MVC   UNETAMY,@R2         Save AMELIA name
 0002AC                             8395  2                        END
                                    8399  2
 0002AC 4BD0 73B6            004E8  8400  2                        XPOP  ,,32
 0002B0 4BD0 73B8/D23B_      004EA  8402  2                        TPOP  JUNK
                                    8407  2
 0002BA 4110 4000            00000  8408  2                        LA    R1,UNET             UNET ptr
 0002BE 5800 400C            0000C  8409  2                        L     R0,UNETPNO          UNET number
 0002C2 1BFF                        8410  2                        CLEAR R15                 A-ok
 0002C4 47F0 71AE            002E0  8414  2                        EXIT  NPATALLO
 DROP   UNET,R4                     8417  1                      END
                                    8426  1
 0002C8 4130 3004            00004  8427  1                      LA    R3,@R3+4            Next entry
 0002CC 4120 2001            00001  8428  1                      LA    R2,@R2+1
 0002D0 47F0 7028            0015A  8429                       END
                                    8434                       ¿þþþþþþþþþþþþþþþþþþþþþþþþþþþþþþþþþþþþþþþþþþþþþþþþþþþÜ
                                    8435                       Ÿ  Fall through if we can't allocate the net path.  Ÿ
                                    8436                       ¾þþþþþþþþþþþþþþþþþþþþþþþþþþþþþþþþþþþþþþþþþþþþþþþþþþþ»
 0002D4 4110 73D8/4100_      0050A  8437                       SETMSG 'NO MORE NET PATHS'
 0002DC 41F0 0004            00004  8441                       LA    R15,4               Bad news
                                    8442
 0002E0 18D8/9828 D004_             8443                       PEND
 DROP   *,R7
1NPAT     (NPAT2193) (12:50) (15MAR04) Network Interface Routines                                                           Page   18
0Current Usings:  (CP,R11) (CV,R12)
0Loc    Object Code    Addr1 Addr2  Stmt Lv Lineno    Source Statement           (Hibal 5, Asmedit 3.3)  HLASM R4.0  2004/03/15 12.50
+___    ______ ____    _____ _____  ____ __ ______    ______ _________
0                                   8464              ¿þþþþþþþþþþþþþþþþþþþþþþþþþþþþþþþþþþþþþþþþþþþþþþþþþþþþþþþþþþþþþþþþþþþþþÜ
                                    8465              Ÿ                                                                     Ÿ
                                    8466              Ÿ  NPATSETU -- Routine to make us the UNET owner.  This routine       Ÿ
                                    8467              Ÿ    must be called to make a global UNET belong to the current       Ÿ
                                    8468              Ÿ    user (before the global UNET can be used).                       Ÿ
                                    8469              Ÿ                                                                     Ÿ
                                    8470              Ÿ    On entry:                                                        Ÿ
                                    8471              Ÿ      R15 - UNET ptr                                                 Ÿ
                                    8472              Ÿ                                                                     Ÿ
                                    8473              Ÿ    On exit, R15 (and cc):                                           Ÿ
                                    8474              Ÿ      0 - ok                                                         Ÿ
                                    8475              Ÿ                                                                     Ÿ
                                                      ¾þþþþþþþþþþþþþþþþþþþþþþþþþþþþþþþþþþþþþþþþþþþþþþþþþþþþþþþþþþþþþþþþþþþþþ»
00002EE 50E0 D000/9008_      00000  8476              NPATSETU XPROC
 USING  *,R7
 000308 186F                        8516                       LR    R6,R15
 USING  UNET,R6                     8517                       WITH  (UNET,R6)
 00030A D503 71AC 6000_004B4 00000  8530                       FAIL  (UNET,NE,'UNET'),NPATSETU,'UNET logic problem.'
 00032C 9180 602C/4710_0002C        8559                       FAIL  ~UNETFGLOBAL,NPATSETU,'Global UNET problem.'
                                    8586
 00034C 5850 C1C8            001C8  8587                       L     R5,CVCURJCB
 000350 5050 6010            00010  8588                       ST    R5,UNETJCBP         Save our JCB ptr
 USING  JCB,R5                      8589                       WITH  (JCB,R5),BEGIN
 000354 D204 6004 504A 00004 0004A  8603  1                      MVC   UNETACCT,JCBACCT    Save account
 00035A D201 600A 5048 0000A 00048  8604  1                      MVC   UNETSNO,JCBSEQ      Save Milten session number
 DROP   JCB,R5                      8605                       END
                                    8613
 000360 1BFF                        8614                       CLEAR R15                 A-ok
 000362 18D8/9808 D004_             8618                       PEND
 DROP   UNET,R6
 DROP   *,R7
-                                   8644              ¿þþþþþþþþþþþþþþþþþþþþþþþþþþþþþþþþþþþþþþþþþþþþþþþþþþþþþþþþþþþþþþþþþþþþþÜ
                                    8645              Ÿ                                                                     Ÿ
                                    8646              Ÿ  NPATCLRU -- Routine to reset owner information for this global     Ÿ
                                    8647              Ÿ    UNET (we are done with it).                                      Ÿ
                                    8648              Ÿ                                                                     Ÿ
                                    8649              Ÿ    On entry:                                                        Ÿ
                                    8650              Ÿ      R15 - UNET ptr                                                 Ÿ
                                    8651              Ÿ                                                                     Ÿ
                                    8652              Ÿ    On exit, R15 (and cc):                                           Ÿ
                                    8653              Ÿ      0 - ok                                                         Ÿ
                                    8654              Ÿ                                                                     Ÿ
                                                      ¾þþþþþþþþþþþþþþþþþþþþþþþþþþþþþþþþþþþþþþþþþþþþþþþþþþþþþþþþþþþþþþþþþþþþþ»
0000370 50E0 D000/9008_      00000  8655              NPATCLRU XPROC
 USING  *,R7
 00038A 186F                        8695                       LR    R6,R15
 USING  UNET,R6                     8696                       WITH  (UNET,R6)
 00038C D503 712A 6000_004B4 00000  8709                       FAIL  (UNET,NE,'UNET'),NPATCLRU,'UNET logic problem.'
 0003AE 9180 602C/4710_0002C        8738                       FAIL  ~UNETFGLOBAL,NPATCLRU,'Global UNET problem.'
                                    8765
1NPAT     (NPAT2193) (12:50) (15MAR04) Network Interface Routines                                                           Page   19
0Current Usings:  (UNET,R6) (*,R7) (CP,R11) (CV,R12)
0Loc    Object Code    Addr1 Addr2  Stmt Lv Lineno    Source Statement           (Hibal 5, Asmedit 3.3)  HLASM R4.0  2004/03/15 12.50
+___    ______ ____    _____ _____  ____ __ ______    ______ _________
00003CE D703 6010 6010 00010 00010  8766                       CLEAR UNETJCBP            Reset
 0003D4 D704 6004 6004 00004 00004  8773                       CLEAR UNETACCT            Ditto
 0003DA D701 600A 600A 0000A 0000A  8780                       CLEAR UNETSNO             Ditto
                                    8787
 0003E0 1BFF                        8788                       CLEAR R15                 A-ok
 0003E2 18D8/9808 D004_             8792                       PEND
 DROP   UNET,R6
 DROP   *,R7
1NPAT     (NPAT2193) (12:50) (15MAR04) Network Interface Routines                                                           Page   20
0Current Usings:  (CP,R11) (CV,R12)
0Loc    Object Code    Addr1 Addr2  Stmt Lv Lineno    Source Statement           (Hibal 5, Asmedit 3.3)  HLASM R4.0  2004/03/15 12.50
+___    ______ ____    _____ _____  ____ __ ______    ______ _________
0                                   8818              ¿þþþþþþþþþþþþþþþþþþþþþþþþþþþþþþþþþþþþþþþþþþþþþþþþþþþþþþþþþþþþþþþþþþþþþÜ
                                    8819              Ÿ                                                                     Ÿ
                                    8820              Ÿ  NPATGET -- Routine to get a network path ptr given it's            Ÿ
                                    8821              Ÿ     path number.                                                    Ÿ
                                    8822              Ÿ                                                                     Ÿ
                                    8823              Ÿ  On entry:                                                          Ÿ
                                    8824              Ÿ    R0 - path number                                                 Ÿ
                                    8825              Ÿ                                                                     Ÿ
                                    8826              Ÿ  On exit, R15 (and cc):                                             Ÿ
                                    8827              Ÿ    0 - found                                                        Ÿ
                                    8828              Ÿ          R0 = path number                                           Ÿ
                                    8829              Ÿ          R1 = UNET ptr                                              Ÿ
                                    8830              Ÿ    4 - not found;          R1,R0 = error msg loc, len               Ÿ
                                    8831              Ÿ                                                                     Ÿ
                                                      ¾þþþþþþþþþþþþþþþþþþþþþþþþþþþþþþþþþþþþþþþþþþþþþþþþþþþþþþþþþþþþþþþþþþþþþ»
00003F0 50E0 D000/9028_      00000  8832              NPATGET  XPROC (R2,LSR)
 USING  *,R7
                                    8872                       ¿þþþþþþþþþþþþþþþþþþþþþþþþþþþþþþþþþþþþþþþþþþþþþþþþþþþþþÜ
                                    8873                       Ÿ  Make sure path number is within acceptable range.  Ÿ
                                    8874                       ¾þþþþþþþþþþþþþþþþþþþþþþþþþþþþþþþþþþþþþþþþþþþþþþþþþþþþþ»
 00040A 1200/47D0 700E_             8875                       IF    ((R0,NP),OR,(R0,GT,CVNET#)),BEGIN
 000418 4110 7111/4100_      0051B  8905  1                      SETMSG 'BAD PATH NUMBER'
 000420 41F0 0004            00004  8909  1                      LA    R15,4               Boo
 000424 47F0 7072            0047C  8910  1                      EXIT  NPATGET
 000428                             8913                       END
                                    8917                       ¿þþþþþþþþþþþþþþþþþÜ
                                    8918                       Ÿ  Get UNET ptr.  Ÿ
                                    8919                       ¾þþþþþþþþþþþþþþþþþ»
 000428 1820                        8920                       LR    R2,R0               Path number
 00042A 0620                        8921                       DECR  R2                  Relative to zero, not one
 00042C 8920 0002            00002  8923                       SLL   R2,2                Times 4 for word offset
 000430 5A20 C0A8            000A8  8924                       A     R2,CVNETP           Ptr to appropriate table entry
 000434 5810 2000/1211       00000  8925                       LT    R1,@R2              Get UNET ptr
 00043A 4780 7060            0046A  8929                       BZ    NGETNONE            No path here
                                    8930
 USING  UNET,R1                     8931                       WITH  (UNET,R1),BEGIN
 00043E D503 70AA 1000_004B4 00000  8945  1                      FAIL  (UNET,NE,'UNET'),NPATGET,'UNET logic error.'
 000460 D503 1010 C1C8_00010 001C8  8974  1                      IF    (UNETJCBP,NE,CVCURJCB),BEGIN  Not your path...
 00046A 4110 708E/4100_      00498  8992  2           NGETNONE     SETMSG 'NOT OPEN'
 000472 41F0 0004            00004  8996  2                        LA    R15,4
 000476 47F0 7072            0047C  8997  2                        EXIT  NPATGET
 00047A                             9000  1                      END
 DROP   UNET,R1                     9004                       END
                                    9012
 00047A 1BFF                        9013                       CLEAR R15                 A-ok
 00047C 18D8/9828 D004_             9017                       PEND
 DROP   *,R7
                                    9037
                                    9038                       QLTORG
1NPAT     (NPAT2193) (12:50) (15MAR04) Network Interface Routines                                                           Page   21
0Current Usings:  (CP,R11) (CV,R12)
0Loc    Object Code    Addr1 Addr2  Stmt Lv Lineno    Source Statement           (Hibal 5, Asmedit 3.3)  HLASM R4.0  2004/03/15 12.50
+___    ______ ____    _____ _____  ____ __ ______    ______ _________
0                                   9077              ¿þþþþþþþþþþþþþþþþþþþþþþþþþþþþþþþþþþþþþþþþþþþþþþþþþþþþþþþþþþþþþþþþþþþþþÜ
                                    9078              Ÿ                                                                     Ÿ
                                    9079              Ÿ  NPATOPEN -- Routine to open a network connection.                  Ÿ
                                    9080              Ÿ                                                                     Ÿ
                                    9081              Ÿ    On entry:                                                        Ÿ
                                    9082              Ÿ      R15 - UNET ptr                                                 Ÿ
                                    9083              Ÿ                                                                     Ÿ
                                    9084              Ÿ    On exit, R15 (and cc):                                           Ÿ
                                    9085              Ÿ      0  - ok;             R1,R0 = "OK"                              Ÿ
                                    9086              Ÿ      nz - can't open;     R1,R0 = error msg loc, len                Ÿ
                                    9087              Ÿ                                                                     Ÿ
                                                      ¾þþþþþþþþþþþþþþþþþþþþþþþþþþþþþþþþþþþþþþþþþþþþþþþþþþþþþþþþþþþþþþþþþþþþþ»
0000000                00000 00028  9088              NPOWA    RECORD BEGIN
 000000                             9096  1           NPOID      DS    CL16                Amelia ID (e.g., TCP_OPEN:)
 000010                             9097  1           NPOW1      DS    F                   Parm 1
 000014                             9098  1           NPOW2      DS    F                   Parm 2
 000018                             9099  1           NPOW3      DS    F                   Parm 3
 00001C                             9100  1           NPOW4      DS    F                   Parm 4
 000020                             9101  1           NPOW5      DS    F                   Parm 5
 000024                             9102  1           NPOW6      DS    F                   Parm 6
 000028                00028 00028  9103                       END
                                    9112              þþþþ
 00052A 50E0 D000/9028_      00000  9113              NPATOPEN XPROC (R2,LSR),NPOWA
 USING  *,R7
 USING  NPOWA-(4+28),R8
 000544 D727 8020 8020 00000 00000  9163                       CLEAR NPOWA
                                    9170
 00054A 186F                        9171                       LR    R6,R15
 USING  UNET,R6                     9172                       WITH  (UNET,R6)
 00054C D503 7D1C 6000_01260 00000  9185                       FAIL  (UNET,NE,'UNET'),NPATOPEN,'UNET logic problem.'
                                    9214                       ¿þþþþþþþþþþþþþþþþþþþþþþþþþþþþþþþþþþþþþþþþþþþþþþÜ
                                    9215                       Ÿ  Check to see if network access is allowed.  Ÿ
                                    9216                       ¾þþþþþþþþþþþþþþþþþþþþþþþþþþþþþþþþþþþþþþþþþþþþþþ»
 00056E 9110 CA00/47E0_00A00        9217                       IF    CVFNONET,BEGIN      It's turned off...
 000576 4110 7D88/4100_      012CC  9232  1                      SETMSG 'WYLBUR NETWORK ACCESS DISABLED'
 00057E 41F0 0004            00004  9236  1                      LA    R15,4
 000582 47F0 7306            0084A  9237  1                      B     NPOEXIT
 000586                             9238                       END
                                    9242                       ¿þþþþþþþþþþþþþþþþþþþþþþþþþþþþþþþþþþþÜ
                                    9243                       Ÿ  Do a little parameter checking.  Ÿ
                                    9244                       ¾þþþþþþþþþþþþþþþþþþþþþþþþþþþþþþþþþþþ»
 000586 D64F 617C 617C_0017C 0017C  9245                       IF    ((UNETRNAME,Z),OR,(UNETRNAME,EQ,CVBLANKS)),BEGIN
 00059A 4110 7DE4/4100_      01328  9278  1                      SETMSG 'HOST NAME NOT SPECIFIED'
 0005A2 41F0 0004            00004  9282  1                      LA    R15,4
 0005A6 47F0 7306            0084A  9283  1                      B     NPOEXIT
 0005AA                             9284                       END
                                    9288
 0005AA 1B44                        9289                       CLEAR R4
 0005AC D507 7CBC 6018_01200 00018  9293                       IF    (UNETAMY,EQ,'AMELIA  '),'LA R4,CVAMYP'
 0005BA D507 7CC4 6018_01208 00018  9316                       IF    (UNETAMY,EQ,'TESTAMY '),'LA R4,CVTAMYP'
 0005C8 1244/4770 709A              9339                       IF    (R4,Z),BEGIN        SES.AMELIA has a funny value...
 0005CE 4110 7DA6/4100_      012EA  9353  1                      SETMSG 'AMELIA VALUE NOT SUPPORTED'
 0005D6 41F0 0004            00004  9357  1                      LA    R15,4
1NPAT     (NPAT2193) (12:50) (15MAR04) Network Interface Routines                                                           Page   22
0Current Usings:  (UNET,R6) (*,R7) (NPOWA-(4+28),R8) (CP,R11) (CV,R12)
0Loc    Object Code    Addr1 Addr2  Stmt Lv Lineno    Source Statement           (Hibal 5, Asmedit 3.3)  HLASM R4.0  2004/03/15 12.50
+___    ______ ____    _____ _____  ____ __ ______    ______ _________
00005DA 47F0 7306            0084A  9358  1                      B     NPOEXIT
 0005DE                             9359                       END
                                    9363                       ¿þþþþþþþþþþþþþþþþþþþþþþþþþþþþþþþþþþþþþþþþþþþþþþþþþþþþþþþþþþþÜ
                                    9364                       Ÿ  If we are the first user to open a network connection    Ÿ
                                    9365                       Ÿ    then we must also allocate and open a path to Amelia.  Ÿ
                                    9366                       ¾þþþþþþþþþþþþþþþþþþþþþþþþþþþþþþþþþþþþþþþþþþþþþþþþþþþþþþþþþþþ»
 0005DE 5850 4000/1255       00000  9367                       LT    R5,@R4              Get UPATH ptr (if any)
 0005E4 4770 70F8            0063C  9371                       IF    Z,BEGIN             Not yet allocated...
 0005E8 4100 0001            00001  9382  1                      LA    R0,1                Allocate global UPATH
 0005EC 58E0 7D20/0DEE       01264  9383  1                      VCALL PATHALLO            Get a new UPATH
 0005F2 4770 7306            0084A  9387  1                      BNZ   NPOEXIT             Can't get a new path
 0005F6 1851                        9388  1                      LR    R5,R1
 USING  UPATH,R5                    9389  1                      WITH  (UPATH,R5)
 0005F8 9620 508C      0008C        9402  1                      SET   UPATMFL.UPATMNAM    Specific callee needed
 0005FC D207 5084 6018 00084 00018  9409  1                      MVC   UPATYOU,UNETAMY     Set AMELIA YOURTAG name
                                    9410  1
 000602 94F7 5018      00018        9411  1                      CLEAR UPATFHDR            Don't use multiple line format
 000606 9640 5018      00018        9418  1                      SET   UPATFNOWAIT         No wait for path I/O completion
                                    9424  1
 00060A D203 5090 7D24 00090 01268  9425  1                      MVC   UPATBUF,=A(128*1024)  Use 128K Suzan buffer
                                    9426  1
 000610 1B11                        9427  1                      CLEAR R1                  No caller ID
 000612 41F0 5000            00000  9431  1                      LA    R15,UPATH
 000616 58E0 7D28/0DEE       0126C  9432  1                      VCALL PATHOPEN            Open path
 00061C 4780 70F4/900F_      00638  9436  1                      FAIL  NZ,NETPOPEN,'Network PATHOPEN failed'
                                    9459  1
 000638 5050 4000            00000  9460  1                      ST    R5,@R4              Save UPATH ptr
 DROP   UPATH,R5                    9461                       END
                                    9470
 00063C 5050 6020            00020  9471                       ST    R5,UNETPATP         Save our UPATH ptr
                                    9472                       ¿þþþþþþþþþþþþþþþþþþþþþþþþþþþþþþþþþþþþþþþþþþþþþþþþþÜ
                                    9473                       Ÿ  Establish TCP connection by sending TCP_OPEN.  Ÿ
                                    9474                       ¾þþþþþþþþþþþþþþþþþþþþþþþþþþþþþþþþþþþþþþþþþþþþþþþþþ»
 000640 9201 6160      00160        9475                       MVI   UNETSTATE,UNETSFINITIAL  Initial state
                                    9476
 000644 9680 6104      00104        9477                       SET   UNETFCTRL           Sending control info
 000648 4110 7CCC/4100_      01210  9483                       SEG   LA:=CL16'TCP_OPEN:',16
 00065A 4110 600C/4100_      0000C  9510                       SEG   UNETPNO             Our id
                                    9537
 00066C 4110 7DFB/4100_      0133F  9538                       SEG   'HOST='
 00067E D603 61CC 61CC_001CC 001CC  9555                       IF    (UNETRIP,NZ),BEGIN  Connect to IP address...
 000688 1F11/4310 61CC_             9571  1                      SEGDC LC:UNETRIP
 00069A 4110 7E00/4100_      01344  9597  1                      SEG   '.'
 0006AC 1F11/4310 61CD_             9614  1                      SEGDC LC:UNETRIP+1
 0006BE 4110 7E00/4100_      01344  9640  1                      SEG   '.'
 0006D0 1F11/4310 61CE_             9657  1                      SEGDC LC:UNETRIP+2
 0006E2 4110 7E00/4100_      01344  9683  1                      SEG   '.'
 0006F4 1F11/4310 61CF_             9700  1                      SEGDC LC:UNETRIP+3
 000706                             9726                       END
 000706 71C6/47F0 71D8_00706 00686  9730                       ELSE  'SEGT UNETRNAME'    Connect to host name
                                    9774
 00071C 4110 7E01/4100_      01345  9775                       SEG   ' LPORT='
 00072E 5810 6178/1B00_      00178  9792                       SEGDC L:UNETLPORT         Our TCP port number (0=new id)
 00073E D603 61D0 61D0_001D0 001D0  9813                       IF    (UNETRPORT,Z),'SEG " PASSIVE"'
1NPAT     (NPAT2193) (12:50) (15MAR04) Network Interface Routines                                                           Page   23
0Current Usings:  (UNET,R6) (*,R7) (NPOWA-(4+28),R8) (CP,R11) (CV,R12)
0Loc    Object Code    Addr1 Addr2  Stmt Lv Lineno    Source Statement           (Hibal 5, Asmedit 3.3)  HLASM R4.0  2004/03/15 12.50
+___    ______ ____    _____ _____  ____ __ ______    ______ _________
000075A 721A/47F0 723C_0075A 00746  9851                       ELSE  'SEG " RPORT="; SEGDC L:UNETRPORT'  Remote port
 000780 4110 7E0F/4100_      01353  9905                       SEG   ' FLOWL='
 000792 5810 61D4/1B00_      001D4  9922                       SEGDC L:UNETFLOWL         Flow control low water mark
 0007A2 4110 7E16/4100_      0135A  9943                       SEG   ' FLOWH='
 0007B4 5810 61D8/1B00_      001D8  9960                       SEGDC L:UNETFLOWH         Flow control high water mark
 0007C4 9102 602C/47E0_0002C        9981                       IF    UNETFPRIV,'SEG " PRIV"'  Privileged port
                                   10018
 0007DE 1B00/41F0 610C_            10019                       SEGWR
 0007EA 947F 6104      00104       10043                       CLEAR UNETFCTRL           Reset
                                   10050                       ¿þþþþþþþþþþþþþþþþþþþþþþþþþþþþþþÜ
                                   10051                       Ÿ  Wait for open to complete.  Ÿ
                                   10052                       ¾þþþþþþþþþþþþþþþþþþþþþþþþþþþþþþ»
 0007EE 5800 6070            00070 10053                       L     R0,UNETWAIT         Timeout value (0=no timeout)
 0007F2 9140 602C/47E0_0002C       10054                       IF    UNETFNOWAIT,'LA R0,2'  Convert NOWAIT to 2 sec wait
 0007FE 4110 0004            00004 10075                       LA    R1,UNETSFOPEN       Wait for path to open
 000802 D603 61D0 61D0_001D0 001D0 10076                       IF    (UNETRPORT,Z),'LA R1,UNETSFOPENING'  Opening is ok
 000810 41F0 6000            00000 10098                       LA    R15,UNET
 000814 58E0 7D3C/0DEE       01280 10099                       ACALL NPATWAIT            Wait for connection to open
 00081A 4770 7306            0084A 10103                       BNZ   NPOEXIT
                                   10104
 00081E 41F0 0004            00004 10105                       LA    R15,4               Assume error
 000822 4110 602E/4100_      0002E 10106                       SETMSG UNETEMSG            Saved error message text
 00082A 58E0 7D40/0DEE       01284 10120                       VCALL RTRIM
 000830 1200/4780 72FC_            10124                       IF    ((R0,Z),OR,(UNETEMSG,Z)),'CLEAR R15; SETMSG "OK"'
                                   10166
 00084A 18D8/9828 D004_            10167              NPOEXIT  PEND
 DROP   UNET,R6
 DROP   NPOWA-(4+28),R8
 DROP   *,R7
1NPAT     (NPAT2193) (12:50) (15MAR04) Network Interface Routines                                                           Page   24
0Current Usings:  (CP,R11) (CV,R12)
0Loc    Object Code    Addr1 Addr2  Stmt Lv Lineno    Source Statement           (Hibal 5, Asmedit 3.3)  HLASM R4.0  2004/03/15 12.50
+___    ______ ____    _____ _____  ____ __ ______    ______ _________
0                                  10199              ¿þþþþþþþþþþþþþþþþþþþþþþþþþþþþþþþþþþþþþþþþþþþþþþþþþþþþþþþþþþþþþþþþþþþþþÜ
                                   10200              Ÿ                                                                     Ÿ
                                   10201              Ÿ  NPATCTRL -- Routine to do network path control function.           Ÿ
                                   10202              Ÿ                                                                     Ÿ
                                   10203              Ÿ    On entry:                                                        Ÿ
                                   10204              Ÿ      R1  - control function id, specifically:                       Ÿ
                                   10205              Ÿ              "EOF"   -- send end of file indicator                  Ÿ
                                   10206              Ÿ              "ABORT" -- send abort                                  Ÿ
                                   10207              Ÿ      R15 - UNET ptr                                                 Ÿ
                                   10208              Ÿ                                                                     Ÿ
                                   10209              Ÿ    On exit, R15 (and cc):                                           Ÿ
                                   10210              Ÿ      0 = ok;          R1,R0 = msg ("OK")                            Ÿ
                                   10211              Ÿ      4 = error;       R1,R0 = error msg loc, len                    Ÿ
                                   10212              Ÿ                                                                     Ÿ
                                                      ¾þþþþþþþþþþþþþþþþþþþþþþþþþþþþþþþþþþþþþþþþþþþþþþþþþþþþþþþþþþþþþþþþþþþþþ»
0000858 50E0 D000/9028_      00000 10213              NPATCTRL XPROC (R2,LSR)
 USING  *,R7
 000872 186F                       10253                       LR    R6,R15
 USING  UNET,R6                    10254                       WITH  (UNET,R6)
 000874 D503 79EE 6000_01260 00000 10267                       FAIL  (UNET,NE,'UNET'),NPATCTRL,'Bad UNET ptr'
                                   10296
 000896 1851                       10297                       LR    R5,R1               Save option string ptr
                                   10298                       ¿þþþþþþþþþþþþþþþþþþþþþþþþþþþþþþþÜ
                                   10299                       Ÿ  Check for network requests.  Ÿ
                                   10300                       ¾þþþþþþþþþþþþþþþþþþþþþþþþþþþþþþþ»
 000898 58E0 7A16/0DEE       01288 10301                       ACALL NPATCHK             Check for new network requests
                                   10305                       ¿þþþþþþþþþþþþþþþþþþþþþþþþþþþþþþþþþþþþþþþþþþþþþþþþþþþþþþþþþþþþÜ
                                   10306                       Ÿ  Send TCP_EOF or TCP_ABORT if connection is still active.  Ÿ
                                   10307                       ¾þþþþþþþþþþþþþþþþþþþþþþþþþþþþþþþþþþþþþþþþþþþþþþþþþþþþþþþþþþþþ»
 00089E 950A 6160/47B0_00160       10308                       IF    (UNETSTATE,LT,UNETSFCLOSE),BEGIN  Connection open...
 0008A6 D603 6170 6170_00170 00170 10326  1                      IF    (UNETAID,Z),EXIT    Never opened, forget it
                                   10345  1
 0008B0 D502 7AF4 5000_01366 00000 10346  1                      IF    (@R5,EQ,'EOF'),BEGIN  EOF...
 0008BA 9502 6160/47C0_00160       10362  2                        IF    (UNETSTATE,LE,UNETSFOPENING),NCTRLOK  Ignore if n/c
 0008C2 9640 6164      00164       10383  2                        SET   UNETFOUTEOF         EOF sent
 0008C6 4110 79B6            01228 10389  2                        LA    R1,=CL16'TCP_EOF:'
 0008CA                            10390  1                      END
                                   10394  1
 0008CA 705C/47F0 7064 008CA 008B8 10395  1                      ELSE  BEGIN               ABORT...
 0008CE 9620 6164      00164       10406  2                        SET   UNETFOUTABORT       ABORT sent
 0008D2 4110 79C6            01238 10412  2                        LA    R1,=CL16'TCP_ABORT:'
 0008D6                            10413  1                      END
                                   10417  1
 0008D6 9680 6104      00104       10418  1                      SET   UNETFCTRL           Sending control info
 0008DA 4100 0010/41F0_      00010 10424  1                      SEG   (R1),16,UNETOUTSG
 0008E8 4110 6170/4100_      00170 10450  1                      SEG   UNETAID             Amelia session ID
 0008FA 1B00/41F0 610C_            10477  1                      SEGWR
 000906 947F 6104      00104       10501  1                      CLEAR UNETFCTRL           Reset
 00090A                            10508                       END
                                   10512
 00090A 4110 7A92/4100_      01304 10513              NCTRLOK  SETMSG 'OK'
 000912 1BFF                       10517                       CLEAR R15
 000914 18D8/9828 D004_            10521                       PEND
1NPAT     (NPAT2193) (12:50) (15MAR04) Network Interface Routines                                                           Page   25
0Current Usings:  (CP,R11) (CV,R12)
0Loc    Object Code    Addr1 Addr2  Stmt Lv Lineno    Source Statement           (Hibal 5, Asmedit 3.3)  HLASM R4.0  2004/03/15 12.50
+___    ______ ____    _____ _____  ____ __ ______    ______ _________
0DROP   UNET,R6
 DROP   *,R7
1NPAT     (NPAT2193) (12:50) (15MAR04) Network Interface Routines                                                           Page   26
0Current Usings:  (CP,R11) (CV,R12)
0Loc    Object Code    Addr1 Addr2  Stmt Lv Lineno    Source Statement           (Hibal 5, Asmedit 3.3)  HLASM R4.0  2004/03/15 12.50
+___    ______ ____    _____ _____  ____ __ ______    ______ _________
0                                  10548              ¿þþþþþþþþþþþþþþþþþþþþþþþþþþþþþþþþþþþþþþþþþþþþþþþþþþþþþþþþþþþþþþþþþþþþþÜ
                                   10549              Ÿ                                                                     Ÿ
                                   10550              Ÿ  NPATREAD -- Routine to get the next "line" of data from the        Ÿ
                                   10551              Ÿ    input data stream.  This routine handles all the splitting       Ÿ
                                   10552              Ÿ    and wrapping of lines that are too long.                         Ÿ
                                   10553              Ÿ                                                                     Ÿ
                                   10554              Ÿ    On entry:                                                        Ÿ
                                   10555              Ÿ      R15 - UNET ptr                                                 Ÿ
                                   10556              Ÿ                                                                     Ÿ
                                   10557              Ÿ    On exit, R15 (and cc):                                           Ÿ
                                   10558              Ÿ      0 - ok;                           R1,R0 = line loc, len        Ÿ
                                   10559              Ÿ      1 - no data now/end of file;      R1,R0 = error msg text       Ÿ
                                   10560              Ÿ                                                                     Ÿ
                                                      ¾þþþþþþþþþþþþþþþþþþþþþþþþþþþþþþþþþþþþþþþþþþþþþþþþþþþþþþþþþþþþþþþþþþþþþ»
0000922 50E0 D000/9028_      00000 10561              NPATREAD XPROC (R2,LSR)
 USING  *,R7
 00093C 186F                       10601                       LR    R6,R15
 USING  UNET,R6                    10602                       WITH  (UNET,R6)
 00093E D503 7924 6000_01260 00000 10615                       FAIL  (UNET,NE,'UNET'),NPATREAD,'Bad UNET ptr'
                                   10644
 000960 1B22                       10645                       CLEAR R2                  Working length (for loop below)
 000962 5830 6100            00100 10649                       L     R3,UNETBUFP         Dest buffer (for loop below)
                                   10650                       ¿þþþþþþþþþþþþþþþþþþþþþþþþþþþþþþþþþþþþþþþþþþþþþþþþþþþþþþþþþþÜ
                                   10651                       Ÿ  Keep processing input data until we can return a line.  Ÿ
                                   10652                       ¾þþþþþþþþþþþþþþþþþþþþþþþþþþþþþþþþþþþþþþþþþþþþþþþþþþþþþþþþþþ»
 000966                            10653                       LOOP  BEGIN
 000966 9845 6158            00158 10659  1                      LM    R4,R5,UNETINCUR     Get current source buffer ptrs
                                   10660  1
 00096A 1244/4720 7054             10661  1                      IF    (R4,NP),BEGIN       Get the next buffer...
 000970 41F0 6000            00000 10675  2                        LA    R15,UNET
 000974 58E0 7950/0DEE       0128C 10676  2                        ACALL READDATA            Get more input data
 00097A 4780 7050            0098C 10680  2                        IF    NZ,BEGIN            Something's wrong...
 00097E 1222/4780 716E             10691  3                          IF    (R2,Z),NRDEXIT      No partial data, scram
 000984 1B44/1B55                  10708  3                          CLEAR R4,R5               No more text
 000988 47F0 7106            00A42 10714  3                          B     NRDDONE             Add final line of text
 00098C                            10715  2                        END
                                   10719  2
 00098C 1840                       10720  2                        LR    R4,R0               Input buffer length
 00098E 1851                       10721  2                        LR    R5,R1               Input buffer loc
 000990                            10722  1                      END
                                   10726  1                      ¿þþþþþþþþþþþþþþþþþþþþþþþþþþþþþþþþþþþþþþþþþþþþþþþþþÜ
                                   10727  1                      Ÿ  Process the input data a character at a time.  Ÿ
                                   10728  1                      ¾þþþþþþþþþþþþþþþþþþþþþþþþþþþþþþþþþþþþþþþþþþþþþþþþþ»
 000990 1244/47D0 70FE             10729  1           NRDLOOP    WHILE (R4,POS),BEGIN      Go through data...
 000996 D200 3000 5000 00000 00000 10746  2                        MVC   @R3(1),@R5          Copy data character
 00099C 9120 602D/4710_0002D       10747  2                        IF    ~UNETFASCII8,'NI @R3,X"7F"'  Zot MSB
                                   10768  2
 0009A8 4150 5001            00001 10769  2                        LA    R5,@R5+1            Kick input character ptr
 0009AC 0640                       10770  2                        DECR  R4                  Decr remaining length
1NPAT     (NPAT2193) (12:50) (15MAR04) Network Interface Routines                                                           Page   27
0Current Usings:  (UNET,R6) (*,R7) (CP,R11) (CV,R12)
0Loc    Object Code    Addr1 Addr2  Stmt Lv Lineno    Source Statement           (Hibal 5, Asmedit 3.3)  HLASM R4.0  2004/03/15 12.50
+___    ______ ____    _____ _____  ____ __ ______    ______ _________
0                                  10772  2                        ¿þþþþþþþþþþþþþþþþþþþþþþþþþþþþþÜ
                                   10773  2                        Ÿ  Expand the TAB character.  Ÿ
                                   10774  2                        ¾þþþþþþþþþþþþþþþþþþþþþþþþþþþþþ»
 0009AE 9509 3000/4770_00000       10775  2                        IF    (@R3,EQ,$TAB),BEGIN  ASCII tab character...
 0009B6 9120 6165/4710_00165       10792  3                          IF    UNETFKEEPTABS,EXIT  Don't expand tab character, scram
                                   10810  3
 0009BE                            10811  3                          LOOP  BEGIN               Fill with blanks...
 0009BE 9220 3000      00000       10817  4                            MVI   @R3,$BLANK          ASCII blank
 0009C2 4130 3001            00001 10818  4                            LA    R3,@R3+1            Next position
 0009C6 4120 2001            00001 10819  4                            LA    R2,@R2+1            Kick length
                                   10820  4           *
                                   10821  4           * WYLBUR didn't check during tab expansion to see if it would
                                   10822  4           * cause the buffer to be overrun. If it will, we merely terminate
                                   10823  4           * the input line.
                                   10824  4           *
                                   10825  4           *   MPD 4/14/97
                                   10826  4           *
 0009CA 4920 6168/47A0_      00168 10827  4                            IF    (R2,GE,UNETMAXL),NRDDONE  Too long, stop
 0009D2 18F2                       10847  4                            LR    R15,R2
 0009D4 54F0 7954            01290 10848  4                            N     R15,=A(X'7')        Is it modulo 8?
 0009D8 4780 70A4            009E0 10849  4                            UNTIL Z
 0009DC 47F0 7082            009BE 10864  3                          END
                                   10869  3
 0009E0 47F0 7054            00990 10870  3                          B     NRDLOOP             Go back for more
 0009E4                            10871  2                        END
                                   10875  2                        ¿þþþþþþþþþþþþþþþþþþþþþþþþþþþþþþþþþþþþþþþþþþþþþþþþþþþþþþþþÜ
                                   10876  2                        Ÿ  CR ends the line; we must also check for an optional  Ÿ
                                   10877  2                        Ÿ      LF after the CR.                                  Ÿ
                                   10878  2                        ¾þþþþþþþþþþþþþþþþþþþþþþþþþþþþþþþþþþþþþþþþþþþþþþþþþþþþþþþþ»
 0009E4 950D 3000/4770_00000       10879  2                        IF    (@R3,EQ,X'0D'),BEGIN  ASCII CR...
 0009EC 1244/47D0 70C4_            10895  3                          IF    ((R4,POS),AND,(@R5,EQ,X'0A')),BEGIN  CR LF...
 0009FA 4150 5001            00001 10924  4                            LA    R5,@R5+1            Kick input character ptr
 0009FE 0640                       10925  4                            DECR  R4                  Decr remaining length
 000A00                            10927  3                          END
 000A00 70C8/70C8/47F0_00A00 009F0 10931  3                          ELSE  'SET UNETFCR'       Must check if LF follows this CR
 000A08 47F0 7106            00A42 10955  3                          B     NRDDONE
 000A0C                            10956  2                        END
                                   10960  2                        ¿þþþþþþþþþþþþþþþþþþþþþþþþþþþþþÜ
                                   10961  2                        Ÿ  LF can also end the line.  Ÿ
                                   10962  2                        ¾þþþþþþþþþþþþþþþþþþþþþþþþþþþþþ»
 000A0C 950A 3000/4770_00000       10963  2                        IF    (@R3,EQ,X'0A'),BEGIN  ASCII LF...
 000A14 9120 6163/47E0_00163       10979  3                          IF    ~UNETFCR,NRDDONE    End of line, scram
                                   10997  3
 000A1C 94DF 6163      00163       10998  3                          CLEAR UNETFCR             Reset CR found flag
 000A20 1222/4780 7054             11005  3                          IF    (R2,Z),NRDLOOP      Trailing LF in CR LF, loop back
 000A26                            11022  2                        END
                                   11026  2
 000A26 4130 3001            00001 11027  2                        LA    R3,@R3+1            Kick output buffer ptr
 000A2A 4120 2001            00001 11028  2                        LA    R2,@R2+1            Kick working length
1NPAT     (NPAT2193) (12:50) (15MAR04) Network Interface Routines                                                           Page   28
0Current Usings:  (UNET,R6) (*,R7) (CP,R11) (CV,R12)
0Loc    Object Code    Addr1 Addr2  Stmt Lv Lineno    Source Statement           (Hibal 5, Asmedit 3.3)  HLASM R4.0  2004/03/15 12.50
+___    ______ ____    _____ _____  ____ __ ______    ______ _________
0                                  11029  2                        ¿þþþþþþþþþþþþþþþþþþþþþþþþþþþþþþþþþþþþþþþþþþþþþþþþþþþþþþþþþþþþþþþÜ
                                   11030  2                        Ÿ  Split the line if it is longer than UNETMAXL.  If WRAP mode  Ÿ
                                   11031  2                        Ÿ    then split the line at the last blank before UNETMAXL.     Ÿ
                                   11032  2                        ¾þþþþþþþþþþþþþþþþþþþþþþþþþþþþþþþþþþþþþþþþþþþþþþþþþþþþþþþþþþþþþþþ»
                                   11033  2           * !!!!!!!  what do we do about WRAP mode???
 000A2E 4920 6168/47A0_      00168 11034  2                        IF    (R2,GE,UNETMAXL),NRDDONE  Too long, stop
 000A36 47F0 7054            00990 11054  1                      END
                                   11059  1
 000A3A 9045 6158            00158 11060  1                      STM   R4,R5,UNETINCUR     Save current source buffer ptrs
 000A3E 47F0 702A            00966 11061                       END
                                   11066                       ¿þþþþþþþþþþþþþþþþþþþþþþþþþþþþþþþþþþþþþþþþÜ
                                   11067                       Ÿ  Translate line from ASCII to EBCDIC.  Ÿ
                                   11068                       ¾þþþþþþþþþþþþþþþþþþþþþþþþþþþþþþþþþþþþþþþþ»
 000A42 9045 6158            00158 11069              NRDDONE  STM   R4,R5,UNETINCUR     Save current source buffer ptrs
                                   11070
 000A46 5810 6100/1802       00100 11071                       SETMSG L:UNETBUFP,(R2)     Working copy of line
                                   11083
 000A4C 5820 C8C0            008C0 11084                       L     R2,CVEB7TBL         Assume 7-bit ASCII
 000A50 9120 602D/47E0_0002D       11085                       IF    UNETFASCII8,'L R2,CVEBCTBL'  Nope, it's 8-bit
                                   11106
 000A5C 9001 D000/41D0_      00000 11107                       XPUSH R0,R1
                                   11110
 000A64 5900 7958/47D0_      01294 11111                       WHILE (R0,GT,256),BEGIN   Do 256 bytes at a time...
 000A6C DCFF 1000 2000 00000 00000 11130  1                      TR    @R1(256),@R2        Translate string to EBCDIC
 000A72 4110 1100            00100 11131  1                      LA    R1,@R1+256
 000A76 4B00 79CA            01306 11132  1                      SH    R0,=H'256'
 000A7A 47F0 7128            00A64 11133                       END
                                   11138
 000A7E 18F0                       11139                       LR    R15,R0
 000A80 12FF/47D0 7150_            11140                       TDEX  R15,'TR @R1(0),@R2'    Translate remainder to EBCDIC
                                   11178
 000A8C 4BD0 79CC/9801_      01308 11179                       XPOP  R0,R1
                                   11182                       ¿þþþþþþþþþþþþþþþþþþþþþþþþþþþþþþþþþþþþþþÜ
                                   11183                       Ÿ  Trace input line for server paths.  Ÿ
                                   11184                       ¾þþþþþþþþþþþþþþþþþþþþþþþþþþþþþþþþþþþþþþ»
 000A94 58F0 6024/12FF_      00024 11185                       IF    ('LT R15,UNETSVIB',NZ),BEGIN  Server path...
                                   11201  1                      SETMSG (R1),(R0)
 000A9E 4120 7A2D            01369 11211  1                      LA    R2,=C'<<<'          Input
 000AA2 58E0 795C/0DEE       01298 11212  1                      VCALL SERVTRC             Trace input
 000AA8                            11216                       END
                                   11220
 000AA8 1BFF                       11221                       CLEAR R15                 Set A-ok return code
                                   11225
 000AAA 18D8/9828 D004_            11226              NRDEXIT  PEND
 DROP   UNET,R6
 DROP   *,R7
1NPAT     (NPAT2193) (12:50) (15MAR04) Network Interface Routines                                                           Page   29
0Current Usings:  (CP,R11) (CV,R12)
0Loc    Object Code    Addr1 Addr2  Stmt Lv Lineno    Source Statement           (Hibal 5, Asmedit 3.3)  HLASM R4.0  2004/03/15 12.50
+___    ______ ____    _____ _____  ____ __ ______    ______ _________
0                                  11253              ¿þþþþþþþþþþþþþþþþþþþþþþþþþþþþþþþþþþþþþþþþþþþþþþþþþþþþþþþþþþþþþþþþþþþþþÜ
                                   11254              Ÿ                                                                     Ÿ
                                   11255              Ÿ  NPATXRD -- Local routine to read the next "transparent line"       Ÿ
                                   11256              Ÿ    of data from the current input data stream.                      Ÿ
                                   11257              Ÿ                                                                     Ÿ
                                   11258              Ÿ    The data is in Samson transparent data format.                   Ÿ
                                   11259              Ÿ                                                                     Ÿ
                                   11260              Ÿ    On entry:                                                        Ÿ
                                   11261              Ÿ      R0 - 0=EBCDIC, 1=ASCII                                         Ÿ
                                   11262              Ÿ      R15 - UNET ptr                                                 Ÿ
                                   11263              Ÿ                                                                     Ÿ
                                   11264              Ÿ    On exit, R15 (and cc):                                           Ÿ
                                   11265              Ÿ      0 - ok;                           R1,R0 = line loc, len        Ÿ
                                   11266              Ÿ      1 - no data now/end of file;      R1,R0 = error msg text       Ÿ
                                   11267              Ÿ                                                                     Ÿ
                                                      ¾þþþþþþþþþþþþþþþþþþþþþþþþþþþþþþþþþþþþþþþþþþþþþþþþþþþþþþþþþþþþþþþþþþþþþ»
0                                  11268              XRDLEN#  EQU   64,,C'N'            Length of a transparent line
                                   11269              þþþþ
 000000                00000 00001 11270              NPXRWA   RECORD BEGIN
 000000 00                         11278  1           NPXROPT    FLAG
 NPXROPT.NPXRFEBCD 00 EQ           11282  1                      FLAG  (NPXRFEBCDIC,0,EQ)  - EBCDIC mode
 NPXROPT.NPXRFASCI 01 EQ           11292  1                      FLAG  (NPXRFASCII,1,EQ)   - ASCII mode
 000001                00001 00001 11302                       END
                                   11311              þþþþ
 000AB8 50E0 D000/9028_      00000 11312              NPATXRD  XPROC (R2,LSR),NPXRWA
 USING  *,R7
 USING  NPXRWA-(4+28),R8
 000AD2 9200 8020      00000       11362                       CLEAR NPXRWA
 000AD6 4200 8020            00000 11369                       STC   R0,NPXROPT          Save option byte
                                   11370
 000ADA 186F                       11371                       LR    R6,R15
 USING  UNET,R6                    11372                       WITH  (UNET,R6)
 000ADC D503 778E 6000_01260 00000 11385                       FAIL  (UNET,NE,'UNET'),READTRAN,'Bad UNET ptr'
                                   11414
 000AFE 5830 6100            00100 11415                       L     R3,UNETBUFP         Dest buffer (for loop below)
 000B02 4130 3001            00001 11416                       LA    R3,@R3+1            Skip past spot for "guard char"
 000B06 4120 0040            00040 11417                       LA    R2,XRDLEN#          Maximum data length
                                   11418
 000B0A 9845 6158            00158 11419                       LM    R4,R5,UNETINCUR     Current READDATA buf position
                                   11420                       ¿þþþþþþþþþþþþþþþþþþþþþþþþþþþþþþþþþþþþþþþþþþþþþþþþþþþþþþþþþþÜ
                                   11421                       Ÿ  Keep processing input data until we can return a line.  Ÿ
                                   11422                       ¾þþþþþþþþþþþþþþþþþþþþþþþþþþþþþþþþþþþþþþþþþþþþþþþþþþþþþþþþþþ»
 000B0E                            11423              RDTLOOP  LOOP  BEGIN
 000B0E 1244/4720 70A0             11430  1                      IF    (R4,NP),BEGIN       Get the next buffer...
 000B14 D707 6158 6158 00158 00158 11444  2                        CLEAR (UNETINCUR,8)       Reset buffer ptrs
                                   11451  2
 000B1A 41F0 6000            00000 11452  2                        LA    R15,UNET
 000B1E 58E0 77BA/0DEE       0128C 11453  2                        ACALL READDATA            Get more input data
 000B24 4780 7062            00B34 11457  2                        IF    NZ,BEGIN            Something's wrong...
 000B28 5920 77CA/4780_      0129C 11468  3                          IF    (R2,EQ,XRDLEN#),RDTEXIT  No partial data, scram
 000B30 47F0 70DA            00BAC 11488  3                          B     RDTDONE             Add final line of text
 000B34                            11489  2                        END
1NPAT     (NPAT2193) (12:50) (15MAR04) Network Interface Routines                                                           Page   30
0Current Usings:  (UNET,R6) (*,R7) (NPXRWA-(4+28),R8) (CP,R11) (CV,R12)
0Loc    Object Code    Addr1 Addr2  Stmt Lv Lineno    Source Statement           (Hibal 5, Asmedit 3.3)  HLASM R4.0  2004/03/15 12.50
+___    ______ ____    _____ _____  ____ __ ______    ______ _________
0                                  11493  2                        ¿þþþþþþþþþþþþþþþþþþþþþþþþþþþþþþþþþþþþþþþþþþþþþþþþþþþþþþþþþþþþþþÜ
                                   11494  2                        Ÿ  Check for "SAMDATA:" header and skip over it.  This check   Ÿ
                                   11495  2                        Ÿ    should really be done in the SAM module.  Unfortunately,  Ÿ
                                   11496  2                        Ÿ    the external routines are not set up to make that easy.   Ÿ
                                   11497  2                        ¾þþþþþþþþþþþþþþþþþþþþþþþþþþþþþþþþþþþþþþþþþþþþþþþþþþþþþþþþþþþþþþ»
 000B34 9140 602D/47E0_0002D       11498  2                        IF    UNETFSAMDATA,BEGIN  Check for Samson header...
 000B3C 5900 77CE/4740_      012A0 11513  3                          IF    ((R0,LT,8),OR,(@R1,NE,X'53414D444154413A')),BEGIN
 000B4E 4110 789A/4100_      0136C 11545  4                            SETMSG 'Network file transfer error, ftp header is missing.'
 000B56 41F0 0001            00001 11549  4                            LA    R15,1               Error
 000B5A 47F0 710A            00BDC 11550  4                            EXIT  NPATXRD
 000B5E                            11553  3                          END
                                   11557  3
 000B5E 94BF 602D      0002D       11558  3                          CLEAR UNETFSAMDATA        Don't check any more
 000B62 4110 1008            00008 11565  3                          LA    R1,@R1+8            Skip past header
 000B66 4B00 7838            0130A 11566  3                          SH    R0,=H'8'
 000B6A 4780 703C            00B0E 11567  3                          BZ    RDTLOOP             No real read, go back
 000B6E                            11568  2                        END
                                   11572  2
 000B6E 1840                       11573  2                        LR    R4,R0               Input buffer length
 000B70 1851                       11574  2                        LR    R5,R1               Input buffer location
 000B72                            11575  1                      END
                                   11579  1                      ¿þþþþþþþþþþþþþþþþþþþþþþþþþþþþþþþþþþþþþþþþþþþþþþþþþþþþþþþþþÜ
                                   11580  1                      Ÿ  Now try to save enough data for a "transparent line".  Ÿ
                                   11581  1                      ¾þþþþþþþþþþþþþþþþþþþþþþþþþþþþþþþþþþþþþþþþþþþþþþþþþþþþþþþþþ»
 000B72 18F4                       11582  1                      LR    R15,R4              Get total remaining length
 000B74 19F2/47D0 70AA_            11583  1                      CEIL  R15,R2              Not more than our max
 000B7C 50F0 D000/41D0_      00000 11589  1                      XPUSH R15
 000B84 06F0/12FF/4740_            11592  1                      MOVE  R15,@R3,@R5         Save the data
 000B90 4BD0 783A/58F0_      0130C 11630  1                      XPOP  R15
 000B98 1A5F                       11633  1                      AR    R5,R15              Kick data ptr
 000B9A 1B4F                       11634  1                      SR    R4,R15              Deduct amount taken from buffer
 000B9C 1A3F                       11635  1                      AR    R3,R15              Kick our destination buffer ptr
 000B9E 1B2F                       11636  1                      SR    R2,R15              Keep our remaining len accurate
 000BA0 47D0 70D6            00BA8 11637  1                      UNTIL NP
 000BA4 47F0 703C            00B0E 11652                       END
                                   11657
 000BA8 9045 6158            00158 11658                       STM   R4,R5,UNETINCUR     Save updated buffer ptrs
                                   11659                       ¿þþþþþþþþþþþþþþþþþþþþþþþþþþþþþþþþþþþþþþþþþþþþþþþþþþþþþþþþþþÜ
                                   11660                       Ÿ  We now have the data for a transparent line.  Add the   Ÿ
                                   11661                       Ÿ    guard characters and convert it to EBCDIC to make it  Ÿ
                                   11662                       Ÿ    Samson transparent line format.                       Ÿ
                                   11663                       ¾þþþþþþþþþþþþþþþþþþþþþþþþþþþþþþþþþþþþþþþþþþþþþþþþþþþþþþþþþþ»
 000BAC 4140 0040            00040 11664              RDTDONE  LA    R4,XRDLEN#
 000BB0 1B42                       11665                       SR    R4,R2               Line length
                                   11666
 000BB2 5850 6100            00100 11667                       L     R5,UNETBUFP         Working line area
 000BB6 927C 5000      00000       11668                       MVI   @R5,C'@'            Starting guard character
 000BBA 41F5 4001            00001 11669                       LA    R15,@R4+1(R5)
 000BBE 927C F000      00000       11670                       MVI   @R15,C'@'           Ending guard character
1NPAT     (NPAT2193) (12:50) (15MAR04) Network Interface Routines                                                           Page   31
0Current Usings:  (UNET,R6) (*,R7) (NPXRWA-(4+28),R8) (CP,R11) (CV,R12)
0Loc    Object Code    Addr1 Addr2  Stmt Lv Lineno    Source Statement           (Hibal 5, Asmedit 3.3)  HLASM R4.0  2004/03/15 12.50
+___    ______ ____    _____ _____  ____ __ ______    ______ _________
0                                  11671                       ¿þþþþþþþþþþþþþþþþþþþþþþþþþþþþþþþþþþþþþþþþÜ
                                   11672                       Ÿ  Translate line from ASCII to EBCDIC.  Ÿ
                                   11673                       ¾þþþþþþþþþþþþþþþþþþþþþþþþþþþþþþþþþþþþþþþþ»
 000BC2 9500 8020/4770_00000       11674                       IF    NPXRFEBCDIC,BEGIN   Convert to EBCDIC...
 000BCA 5820 C8B4            008B4 11689  1                      L     R2,CVEBCTBL         ASCII to EBCDIC xl table
 000BCE DC41 5000 2000 00000 00000 11690  1                      TR    @R5(XRDLEN#+2),@R2
 000BD4                            11691                       END
                                   11695
 000BD4 1815/4100 4002             11696                       SETMSG @R5,@R4+2           Transparent data line
 000BDA 1BFF                       11712                       CLEAR R15                 A-ok
                                   11716
 000BDC 18D8/9828 D004_            11717              RDTEXIT  PEND
 DROP   UNET,R6
 DROP   NPXRWA-(4+28),R8
 DROP   *,R7
1NPAT     (NPAT2193) (12:50) (15MAR04) Network Interface Routines                                                           Page   32
0Current Usings:  (CP,R11) (CV,R12)
0Loc    Object Code    Addr1 Addr2  Stmt Lv Lineno    Source Statement           (Hibal 5, Asmedit 3.3)  HLASM R4.0  2004/03/15 12.50
+___    ______ ____    _____ _____  ____ __ ______    ______ _________
0                                  11749              ¿þþþþþþþþþþþþþþþþþþþþþþþþþþþþþþþþþþþþþþþþþþþþþþþþþþþþþþþþþþþþþþþþþþþþþÜ
                                   11750              Ÿ                                                                     Ÿ
                                   11751              Ÿ  READDATA -- Local routine to read data from the current data       Ÿ
                                   11752              Ÿ    stream.  This routine also deletes the previously processed      Ÿ
                                   11753              Ÿ    read data.                                                       Ÿ
                                   11754              Ÿ                                                                     Ÿ
                                   11755              Ÿ    On entry:                                                        Ÿ
                                   11756              Ÿ      R15 - UNET ptr                                                 Ÿ
                                   11757              Ÿ                                                                     Ÿ
                                   11758              Ÿ    On exit, R15 (and cc):                                           Ÿ
                                   11759              Ÿ      0 - line returned;            R1,R0 - line loc,len             Ÿ
                                   11760              Ÿ      1 - attn/timeout/eof/closed;  R1,R0 - error msg loc, len       Ÿ
                                   11761              Ÿ                                                                     Ÿ
                                                      ¾þþþþþþþþþþþþþþþþþþþþþþþþþþþþþþþþþþþþþþþþþþþþþþþþþþþþþþþþþþþþþþþþþþþþþ»
0000BEA 50E0 D000/9028_      00000 11762              READDATA PROC  (R2,LSR)
 USING  *,R7
 000C04 186F                       11801                       LR    R6,R15
 USING  UNET,R6                    11802                       WITH  (UNET,R6)
                                   11815                       ¿þþþþþþþþþþþþþþþþþþþþþþþþþÜ
                                   11816                       Ÿ  Free previous buffer.  Ÿ
                                   11817                       ¾þþþþþþþþþþþþþþþþþþþþþþþþþ»
 000C06 5810 6150/1211_      00150 11818              RDATLOOP IF    ('LT R1,UNETINOLD',NZ),BEGIN
 000C10 D703 6150 6150 00150 00150 11835  1                      CLEAR UNETINOLD           Reset old buffer ptr
 000C16 5820 1004            00004 11842  1                      WITH  (INBUF,R1),'L R2,INBUFLEN'  This buffer's length
 USING  INBUF,R1
 DROP   INBUF,R1
                                   11866  1
 000C1A 58E0 76A0/0DEE       012A4 11867  1                      VCALL FREECORE            Free memory
                                   11871  1
 000C20 58F0 6154            00154 11872  1                      L     R15,UNETINL         Total input buffer byte count
 000C24 1BF2                       11873  1                      SR    R15,R2              Deduct buffer just freed
 000C26 50F0 6154            00154 11874  1                      ST    R15,UNETINL         Save it
                                   11875  1                      ¿þþþþþþþþþþþþþþþþþþþþþþþþþþþþþþþþþþþþþþþþþþþþþþþþþþþþþþþþþÜ
                                   11876  1                      Ÿ  If we have previously told Amelia to stop sending new  Ÿ
                                   11877  1                      Ÿ    data and we now have enough buffer space then send   Ÿ
                                   11878  1                      Ÿ    a TCP_START.                                         Ÿ
                                   11879  1                      ¾þþþþþþþþþþþþþþþþþþþþþþþþþþþþþþþþþþþþþþþþþþþþþþþþþþþþþþþþþ»
 000C2A 9108 6164/47E0_00164       11880  1                      IF    UNETFINSTOP,BEGIN   We told Amelia to stop...
                                   11895  2
 000C32 D503 76A4 6154_012A8 00154 11896  2                        IF    (UNETINL,GT,UNETINLO#),EXIT  Stay stopped, scram
                                   11917  2
 000C3C D603 6118 6118_00118 00118 11918  2                        IF    (UNETOUTSGLENF,NZ),EXIT  We can't use the seg buffer
                                   11937  2
                                   11938  2                        SEGDEF UNETOUTSG
 000C46 D200 D000 6104 00000 00104 11939  2                        MVC   @R13(1),UNETSGFLG   Save seg flags
 000C4C 41D0 D004            00004 11940  2                        XPUSH ,,4
 000C50 9290 6104      00104       11942  2                        SET   (UNETFCTRL+UNETFWRONLY,EQ)  Our control flags
                                   11952  2
 000C54 4110 764C/4100_      01250 11953  2                        SEG   LA:=CL16'TCP_START:',16
 000C66 4110 6170/4100_      00170 11980  2                        SEG   UNETAID             Amelia ID
 000C78 1B00/41F0 610C_            12007  2                        SEGWR
 000C84 4BD0 770A            0130E 12031  2                        XPOP  ,,4
 000C88 D200 6104 D000 00104 00000 12033  2                        MVC   UNETSGFLG,@R13      Restore
1NPAT     (NPAT2193) (12:50) (15MAR04) Network Interface Routines                                                           Page   33
0Current Usings:  (UNET,R6) (*,R7) (CP,R11) (CV,R12)
0Loc    Object Code    Addr1 Addr2  Stmt Lv Lineno    Source Statement           (Hibal 5, Asmedit 3.3)  HLASM R4.0  2004/03/15 12.50
+___    ______ ____    _____ _____  ____ __ ______    ______ _________
0                                  12034  2                        SEGDEF DUMMY              (Safety)
                                   12035  2
 000C8E 94F7 6164      00164       12036  2                        CLEAR UNETFINSTOP         No longer stopped
 000C92                            12043  1                      END
 000C92                            12047                       END
                                   12051                       ¿þþþþþþþþþþþþþþþþþþþþþþþþþþþþþþþþþþþþþþþþþþþþþþÜ
                                   12052                       Ÿ  Return the next input buffer in the queue.  Ÿ
                                   12053                       ¾þþþþþþþþþþþþþþþþþþþþþþþþþþþþþþþþþþþþþþþþþþþþþþ»
 000C92 5850 6148/1255       00148 12054                       LT    R5,UNETINQH         Get first input buffer ptr
 000C98 4780 70DE            00CE2 12058                       IF    NZ,BEGIN            We have something...
 USING  INBUF,R5                   12069  1                      WITH  (INBUF,R5)
                                   12082  1
 000C9C D203 6148 5000 00148 00000 12083  1                      MVC   UNETINQH,INBUFLNK   De-queue this entry
 000CA2 D603 6148 6148_00148 00148 12084  1                      IF    (UNETINQH,Z),'CLEAR UNETINQT'  Nothing in the queue
                                   12112  1
 000CB2 D203 5000 76A8 00000 012AC 12113  1                      MVC   INBUFLNK,=F'-1'     Zap link ptr
 000CB8 5050 6150            00150 12114  1                      ST    R5,UNETINOLD        Save old buffer ptr (for delete)
                                   12115  1
 000CBC 4110 5008/5800_      00008 12116  1                      SETMSG INBUFDAT,L:INBUFLEN  Return this buffer
                                   12130  1
 000CC4 9180 6163/47E0_00163       12131  1                      IF    UNETFIAC,BEGIN      We need to process IACs...
 000CCC 41F0 6000            00000 12146  2                        LA    R15,UNET
 000CD0 58E0 76AC/0DEE       012B0 12147  2                        ACALL IACCHK              Process IAC sequences now
 000CD6 1200/47D0 7002             12151  2                        IF    (R0,NP),RDATLOOP    No non-IAC data, loop back
 000CDC                            12168  1                      END
                                   12172  1
 000CDC 1BFF                       12173  1                      CLEAR R15                 A-ok
 000CDE 47F0 7162            00D66 12177  1                      B     RDATEXIT
 DROP   INBUF,R5                   12178                       END
                                   12187                       ¿þþþþþþþþþþþþþþþþþþþþþþþþþþþþþþþþþþþþþþÜ
                                   12188                       Ÿ  No input data currently available.  Ÿ
                                   12189                       ¾þþþþþþþþþþþþþþþþþþþþþþþþþþþþþþþþþþþþþþ»
 000CE2 9506 6160/4770_00160       12190                       IF    (UNETSTATE,EQ,UNETSFDATA),BEGIN  No data waiting...
 000CEA 9204 6160      00160       12208  1                      MVI   UNETSTATE,UNETSFOPEN
 000CEE                            12209                       END
                                   12213
 000CEE 9505 6160/4770_00160       12214                       IF    (UNETSTATE,EQ,UNETSFDATASTOP),BEGIN  No data...
 000CF6 9203 6160      00160       12232  1                      MVI   UNETSTATE,UNETSFOPENSTOP
 000CFA                            12233                       END
                                   12237                       ¿þþþþþþþþþþþþþþþþþþþþþþþþþþþþþþþþþþþþþþþþþþþþþþþþþþþþþþþþþþþþþþÜ
                                   12238                       Ÿ  Check to see if end of file is pending, if it is we return  Ÿ
                                   12239                       Ÿ    the 'end of file' return code.                            Ÿ
                                   12240                       ¾þþþþþþþþþþþþþþþþþþþþþþþþþþþþþþþþþþþþþþþþþþþþþþþþþþþþþþþþþþþþþþ»
 000CFA 9104 6164/47E0_00164       12241                       IF    UNETFINEOF,BEGIN    End of file pending...
 000D02 4110 779B/4100_      0139F 12256  1                      SETMSG 'END OF FILE'
 000D0A 41F0 0001            00001 12260  1                      LA    R15,1
 000D0E 47F0 7162            00D66 12261  1                      B     RDATEXIT
 000D12                            12262                       END
                                   12266
 000D12 9507 6160/4750_00160       12267                       IF    (UNETSTATE,GE,UNETSFABORT),BEGIN
 000D1A 4110 77A6/4100_      013AA 12285  1                      SETMSG 'CONNECTION CLOSED'
 000D22 41F0 0001            00001 12289  1                      LA    R15,1
 000D26 47F0 7162            00D66 12290  1                      B     RDATEXIT
 000D2A                            12291                       END
1NPAT     (NPAT2193) (12:50) (15MAR04) Network Interface Routines                                                           Page   34
0Current Usings:  (UNET,R6) (*,R7) (CP,R11) (CV,R12)
0Loc    Object Code    Addr1 Addr2  Stmt Lv Lineno    Source Statement           (Hibal 5, Asmedit 3.3)  HLASM R4.0  2004/03/15 12.50
+___    ______ ____    _____ _____  ____ __ ______    ______ _________
0                                  12295                       ¿þþþþþþþþþþþþþþþþþþþþþþþþþþþþþþþþþþþþþþþþþþþþþþþþþþþþÜ
                                   12296                       Ÿ  Wait for more data (if wait mode was specified).  Ÿ
                                   12297                       ¾þþþþþþþþþþþþþþþþþþþþþþþþþþþþþþþþþþþþþþþþþþþþþþþþþþþþ»
 000D2A 9140 602C/4710_0002C       12298                       IF    ~UNETFNOWAIT,BEGIN  Wait mode...
 000D32 5800 6070            00070 12313  1           RDATWAIT   L     R0,UNETWAIT         Timeout specifed
 000D36 4110 0005            00005 12314  1                      LA    R1,UNETSFDATASTOP   Wait for new data
 000D3A 41F0 6000            00000 12315  1                      LA    R15,UNET
 000D3E 58E0 767C/0DEE       01280 12316  1                      ACALL NPATWAIT            Wait for data connection to open
 000D44 4780 714C            00D50 12320  1                      IF    NZ,BEGIN            Attn or timeout...
 000D48 41F0 0001            00001 12331  2                        LA    R15,1               Set rc (msg already set)
 000D4C 47F0 7162            00D66 12332  2                        B     RDATEXIT            Scram
 000D50                            12333  1                      END
 000D50 47F0 7002            00C06 12337  1                      B     RDATLOOP            Try it again
 000D54                            12338                       END
                                   12342
 000D54 58E0 76B0/0DEE       012B4 12343                       VCALL SLICECHK            For safety against loops
                                   12347
 000D5A 4110 77B7/4100_      013BB 12348                       SETMSG 'NO DATA'
 000D62 41F0 0001            00001 12352                       LA    R15,1               No data right now
                                   12353
 000D66 18D8/9828 D004_            12354              RDATEXIT PEND
 DROP   UNET,R6
 DROP   *,R7
                                   12380
                                   12381                       SEGDEF  DUMMY             (Safety)
1NPAT     (NPAT2193) (12:50) (15MAR04) Network Interface Routines                                                           Page   35
0Current Usings:  (CP,R11) (CV,R12)
0Loc    Object Code    Addr1 Addr2  Stmt Lv Lineno    Source Statement           (Hibal 5, Asmedit 3.3)  HLASM R4.0  2004/03/15 12.50
+___    ______ ____    _____ _____  ____ __ ______    ______ _________
0                                  12383              ¿þþþþþþþþþþþþþþþþþþþþþþþþþþþþþþþþþþþþþþþþþþþþþþþþþþþþþþþþþþþþþþþþþþþþþÜ
                                   12384              Ÿ                                                                     Ÿ
                                   12385              Ÿ  IACCHK -- Local routine to process Telnet IAC control sequences    Ÿ
                                   12386              Ÿ    in the input data stream.  This routine processes all IAC        Ÿ
                                   12387              Ÿ    sequences, and returns the data buffer with the IAC sequences    Ÿ
                                   12388              Ÿ    removed.                                                         Ÿ
                                   12389              Ÿ                                                                     Ÿ
                                   12390              Ÿ    On entry:                                                        Ÿ
                                   12391              Ÿ      R1,R0 - data location, length                                  Ÿ
                                   12392              Ÿ      R15 - UNET ptr                                                 Ÿ
                                   12393              Ÿ                                                                     Ÿ
                                   12394              Ÿ    On exit:                                                         Ÿ
                                   12395              Ÿ      R0 - new data length (will be shorter if IAC sequences         Ÿ
                                   12396              Ÿ             were removed)                                           Ÿ
                                   12397              Ÿ                                                                     Ÿ
                                                      ¾þþþþþþþþþþþþþþþþþþþþþþþþþþþþþþþþþþþþþþþþþþþþþþþþþþþþþþþþþþþþþþþþþþþþþ»
0000D74 50E0 D000/9008_      00000 12398              IACCHK   PROC
 USING  *,R7
 000D8E 186F                       12437                       LR    R6,R15
 USING  UNET,R6                    12438                       WITH  (UNET,R6)
                                   12451
 000D90 1851                       12452                       LR    R5,R1               Input data ptr
 000D92 1240                       12453                       LTR   R4,R0               Input data length
 000D94 47D0 7410            0119E 12454                       BNP   ICHKDONE            No data, scram
                                   12455                       ¿þþþþþþþþþþþþþþþþþþþþþþþþþþþþþþþþþþþþþþþþþþþþþþÜ
                                   12456                       Ÿ  Look for IAC sequences in the data stream.  Ÿ
                                   12457                       ¾þþþþþþþþþþþþþþþþþþþþþþþþþþþþþþþþþþþþþþþþþþþþþþ»
 000D98 1244/47D0 705A             12458              IACLOOP  WHILE (R4,POS),BEGIN      Look for control sequences...
 000D9E 18F4                       12475  1                      LR    R15,R4
 000DA0 59F0 7506/47D0_      01294 12476  1                      CEIL  R15,256
 000DAC 411F 5000            00000 12495  1                      LA    R1,@R5(R15)
 000DB0 1B22                       12496  1                      CLEAR R2
 000DB2 06F0/44F0 764C_            12500  1                      DEX   R15,'TRT @R5(0),IACTRT'  Look for IAC character
 000DB8 1831                       12519  1                      LR    R3,R1
 000DBA 1B35                       12520  1                      SR    R3,R5               Data length before IAC
                                   12521  1
 000DBC 1A53                       12522  1                      AR    R5,R3               Skip past data characters
 000DBE 1B43                       12523  1                      SR    R4,R3               Keep length accurate
 000DC0 47D0 705A            00DE8 12524  1                      IF    NP,EXIT             Nothing left, scram
                                   12538  1                      ¿þþþþþþþþþþþþþþþþþþþþþþþþþþþþþþþþþþþþþþþþþþþþþþþþþþþþþÜ
                                   12539  1                      Ÿ  Call appropriate routine to process IAC sequence.  Ÿ
                                   12540  1                      ¾þþþþþþþþþþþþþþþþþþþþþþþþþþþþþþþþþþþþþþþþþþþþþþþþþþþþþ»
 000DC4 1222/4780 7056             12541  1                      IF    (R2,NZ),BEGIN       Process IAC sequence...
 000DCA 1F22/4320 5001             12555  2                        LC    R2,@R5+1            Opcode after IAC
 000DD0 4B20 7582            01310 12562  2                        SH    R2,=AL2(239)        Valid opcodes are 240-255
 000DD4 47B0 704C/1B22       00DDA 12563  2                        IF    NEG,'CLEAR R2'
                                   12583  2
 000DDA 8920 0002            00002 12584  2                        SLL   R2,2                Times 4
 000DDE 58E2 716A            00EF8 12585  2                        L     RAR,IACTABLE(R2)
 000DE2 07FE                       12586  2                        BR    RAR                 Go do IAC function
 000DE4                            12587  1                      END
 000DE4 47F0 700A            00D98 12591                       END
                                   12596
1NPAT     (NPAT2193) (12:50) (15MAR04) Network Interface Routines                                                           Page   36
0Current Usings:  (UNET,R6) (*,R7) (CP,R11) (CV,R12)
0Loc    Object Code    Addr1 Addr2  Stmt Lv Lineno    Source Statement           (Hibal 5, Asmedit 3.3)  HLASM R4.0  2004/03/15 12.50
+___    ______ ____    _____ _____  ____ __ ______    ______ _________
0000DE8 5818 0008            00008 12597                       PRESTORE (R1)             Get original line ptr
 000DEC 1B51                       12599                       SR    R5,R1               New line length
 000DEE 1805                       12600                       LR    R0,R5
 000DF0 5008 0004            00004 12601                       PRETURN (R0)              Save new length
                                   12603
 000DF4 47F0 7410            0119E 12604                       B     ICHKDONE
1NPAT     (NPAT2193) (12:50) (15MAR04) Network Interface Routines                                                           Page   37
0Current Usings:  (UNET,R6) (*,R7) (CP,R11) (CV,R12)
0Loc    Object Code    Addr1 Addr2  Stmt Lv Lineno    Source Statement           (Hibal 5, Asmedit 3.3)  HLASM R4.0  2004/03/15 12.50
+___    ______ ____    _____ _____  ____ __ ______    ______ _________
0                                  12606                       ¿þþþþþþþþþþþþþþþþþþþþþþþþþþþþþþþþÜ
                                   12607                       Ÿ  Telnet IAC control sequences  Ÿ
                                   12608                       ¾þþþþþþþþþþþþþþþþþþþþþþþþþþþþþþþþ»
 000DF8 0000000000000000           12609              IACTRT   DC    256X'00'            Non-zero for telnet control chars
 000EF8                00EF8 00EF7 12610                       ORG   IACTRT+X'FF'
 000EF7 FF                         12611                       DC    X'FF'               IAC
 000EF8                00EF8 00EF8 12612                       ORG
                                   12613
 000EF8 00000F3C                   12614              IACTABLE DC    A(IACERROR)
 000EFC 00000F48                   12615                       DC    A(IACNOP)      240: End of subnegotiation parms
 000F00 00000F48                   12616                       DC    A(IACNOP)      241: No operation
 000F04 00000F48                   12617                       DC    A(IACNOP)      242: Data mark
 000F08 00000F54                   12618                       DC    A(IACBREAK)    243: Break
 000F0C 00000F54                   12619                       DC    A(IACBREAK)    244: Interrupt process
 000F10 00000F54                   12620                       DC    A(IACBREAK)    245: Abort output
 000F14 00000F64                   12621                       DC    A(IACAYT)      246: Are you there
 000F18 00000F82                   12622                       DC    A(IACEC)       247: Erase character
 000F1C 00000F92                   12623                       DC    A(IACEL)       248: Erase line
 000F20 00000F48                   12624                       DC    A(IACNOP)      249: The "go ahead" signal
 000F24 000010CE                   12625                       DC    A(IACSB)       250: Sub-option follows
 000F28 00000FA2                   12626                       DC    A(IACWILL)     251: He will do the following option
 000F2C 00000FFE                   12627                       DC    A(IACWONT)     252: He wont do the following option
 000F30 00001022                   12628                       DC    A(IACDO)       253: He wants us to do  " "    "  "
 000F34 000010AA                   12629                       DC    A(IACDONT)     254: He wants us to stop doing "  "
 000F38 000010C2                   12630                       DC    A(IAC255)      255: Data byte of 255
-                                  12632                       ¿þþþþþþþþþþþþþþþþþþþþþþþþþþþþþÜ
                                   12633                       Ÿ  Bad IAC control sequence.  Ÿ
                                   12634                       ¾þþþþþþþþþþþþþþþþþþþþþþþþþþþþþ»
 000F3C 41F0 0002            00002 12635              IACERROR LA    R15,2
 000F40 4DE0 742A            011B8 12636                       LCALL IACDEL              Delete IAC xxx
 000F44 47F0 700A            00D98 12638                       B     IACLOOP             Skip past bad IAC byte
-                                  12640                       ¿þþþþþþþþþþþþþþþþþÜ
                                   12641                       Ÿ  No operation.  Ÿ
                                   12642                       ¾þþþþþþþþþþþþþþþþþ»
 000F48 41F0 0002            00002 12643              IACNOP   LA    R15,2
 000F4C 4DE0 742A            011B8 12644                       LCALL IACDEL              Delete IAC NOP
 000F50 47F0 700A            00D98 12646                       B     IACLOOP
-                                  12648                       ¿þþþþþþþþþþþþþþþþþþþþþþþþþþþþÜ
                                   12649                       Ÿ  Break/Interrupt process.  Ÿ
                                   12650                       ¾þþþþþþþþþþþþþþþþþþþþþþþþþþþþ»
 000F54 41F0 0001            00001 12651              IACBREAK LA    R15,1
 000F58 4DE0 742A            011B8 12652                       LCALL IACDEL
 000F5C 9203 5000      00000       12654                       MVI   @R5,$CTRLC          Plant ctrl-C
                                   12655
 000F60 47F0 700A            00D98 12656                       B     IACLOOP
1NPAT     (NPAT2193) (12:50) (15MAR04) Network Interface Routines                                                           Page   38
0Current Usings:  (UNET,R6) (*,R7) (CP,R11) (CV,R12)
0Loc    Object Code    Addr1 Addr2  Stmt Lv Lineno    Source Statement           (Hibal 5, Asmedit 3.3)  HLASM R4.0  2004/03/15 12.50
+___    ______ ____    _____ _____  ____ __ ______    ______ _________
0                                  12658                       ¿þþþþþþþþþþþþþþþþþþþþþþþþþþþþþþþþþþþþþþÜ
                                   12659                       Ÿ  Remote is asking "Are you there?".  Ÿ
                                   12660                       ¾þþþþþþþþþþþþþþþþþþþþþþþþþþþþþþþþþþþþþþ»
 000F64 41F0 0002            00002 12661              IACAYT   LA    R15,2
 000F68 4DE0 742A            011B8 12662                       LCALL IACDEL              Delete IAC AYT
 000F6C 4110 7584/4100_      01312 12664                       SEG   '(We are here!)',,.UNETOUTSG  Add it to output
 000F7E 47F0 700A            00D98 12681                       B     IACLOOP
-                                  12683                       ¿þþþþþþþþþþþþþþþþþþþþÜ
                                   12684                       Ÿ  Erase character.  Ÿ
                                   12685                       ¾þþþþþþþþþþþþþþþþþþþþ»
 000F82 41F0 0001            00001 12686              IACEC    LA    R15,1
 000F86 4DE0 742A            011B8 12687                       LCALL IACDEL              Delete IAC (but leave "EC")
 000F8A 9208 5000      00000       12689                       MVI   @R5,X'08'           Plant backspace
 000F8E 47F0 700A            00D98 12690                       B     IACLOOP
-                                  12692                       ¿þþþþþþþþþþþþþþþÜ
                                   12693                       Ÿ  Erase line.  Ÿ
                                   12694                       ¾þþþþþþþþþþþþþþþ»
 000F92 41F0 0001            00001 12695              IACEL    LA    R15,1
 000F96 4DE0 742A            011B8 12696                       LCALL IACDEL              Delete IAC (but leave "EL")
 000F9A 9218 5000      00000       12698                       MVI   @R5,X'18'           Plant ctrl-X
 000F9E 47F0 700A            00D98 12699                       B     IACLOOP
-                                  12701                       ¿þþþþþþþþþþþþþþþþþþþþþþþþþþþþþþþþþþþþþþþþþþþþþþþþþþþþþþþþÜ
                                   12702                       Ÿ  Remote host is telling us that it will do something.  Ÿ
                                   12703                       ¾þþþþþþþþþþþþþþþþþþþþþþþþþþþþþþþþþþþþþþþþþþþþþþþþþþþþþþþþ»
 000FA2 1244/47D0 7410             12704              IACWILL  IF    (R4,NP),ICHKDONE    Incomplete sequence, scram
 000FA8 1F22/4320 5002             12722                       LC    R2,@R5+2            Will "opcode"
                                   12729
 000FAE 5920 752A/4770_      012B8 12730                       IF    (R2,EQ,$ECHO),BEGIN  They will echo their chars...
 000FB6 9680 6165      00165       12747  1                      SET   UNETFNOECHO         Don't echo for remote host
 000FBA                            12753                       END
                                   12757
 000FBA 7230/47F0 7264 00FBA 00FB4 12758                       ELSE  BEGIN               Reject unrecognized WILL..
 000FBE 5920 752E/4780_      012BC 12769  1                      IF    (R2,NE,$SGA),BEGIN
 000FC6 9640 6104      00104       12786  2                        SET   UNETFNOXL           Seg w/o translation
 000FCA 4110 7592/4100_      01320 12792  2                        SEG   LA:=AL1($IAC,$DONT),2,.UNETOUTSG  Don't
 000FDC 4110 5002/4100_      00002 12819  2                        SEG   @R5+2,1,.UNETOUTSG  Whatever
 000FEE 94BF 6104      00104       12848  2                        CLEAR UNETFNOXL           Reset
 000FF2                            12855  1                      END
 000FF2                            12859                       END
                                   12863
 000FF2 41F0 0003            00003 12864                       LA    R15,3
 000FF6 4DE0 742A            011B8 12865                       LCALL IACDEL              Delete IAC WILL opcode
 000FFA 47F0 700A            00D98 12867                       B     IACLOOP
1NPAT     (NPAT2193) (12:50) (15MAR04) Network Interface Routines                                                           Page   39
0Current Usings:  (UNET,R6) (*,R7) (CP,R11) (CV,R12)
0Loc    Object Code    Addr1 Addr2  Stmt Lv Lineno    Source Statement           (Hibal 5, Asmedit 3.3)  HLASM R4.0  2004/03/15 12.50
+___    ______ ____    _____ _____  ____ __ ______    ______ _________
0                                  12869                       ¿þþþþþþþþþþþþþþþþþþþþþþþþþþþþþþþþþþþþþþþþþþþþþþþþþþþþþþþþþÜ
                                   12870                       Ÿ  Remote host is telling us that it won't do something.  Ÿ
                                   12871                       ¾þþþþþþþþþþþþþþþþþþþþþþþþþþþþþþþþþþþþþþþþþþþþþþþþþþþþþþþþþ»
 000FFE 1244/47D0 7410             12872              IACWONT  IF    (R4,NP),ICHKDONE    Incomplete sequence, scram
 001004 1F22/4320 5000             12890                       LC    R2,@R5              Won't "opcode"
                                   12897
 00100A 5920 752A/4770_      012B8 12898                       IF    (R2,EQ,$ECHO),BEGIN  They won't echo their chars...
 001012 947F 6165      00165       12915  1                      CLEAR UNETFNOECHO         Echo for remote host
 001016                            12922                       END
                                   12926
 001016 41F0 0003            00003 12927                       LA    R15,3
 00101A 4DE0 742A            011B8 12928                       LCALL IACDEL              Delete IAC WONT opcode
 00101E 47F0 700A            00D98 12930                       B     IACLOOP
-                                  12932                       ¿þþþþþþþþþþþþþþþþþþþþþþþþþþþþþþþþþþþþþþþþþþþþþþþþþþÜ
                                   12933                       Ÿ  Remote host is demanding that we do something.  Ÿ
                                   12934                       ¾þþþþþþþþþþþþþþþþþþþþþþþþþþþþþþþþþþþþþþþþþþþþþþþþþþ»
 001022 1244/47D0 7410             12935              IACDO    IF    (R4,NP),ICHKDONE    Incomplete sequence, scram
 001028 1F22/4320 5002             12953                       LC    R2,@R5+2            Do "opcode"
                                   12960
 00102E 5920 752E/4770_      012BC 12961                       IF    (R2,EQ,$SGA),''     Accept "suppress go ahead"
                                   12983
 001036 72AC/47F0 72E0_01036 01034 12984                       ELSEIF (R2,EQ,$TTYPE),BEGIN  Tell it we will send ttype
 001042 9640 6104      00104       13010  1                      SET   UNETFNOXL           Seg w/o translation
 001046 4110 7594/4100_      01322 13016  1                      SEG   LA:=AL1($IAC,$WILL),2,.UNETOUTSG  Send WILL
 001058 4110 5002/4100_      00002 13043  1                      SEG   @R5+2,1,.UNETOUTSG  followed by TTYPE code
 00106A 94BF 6104      00104       13072  1                      CLEAR UNETFNOXL           Reset
 00106E                            13079                       END
                                   13083
 00106E 72E4/47F0 7310 0106E 01040 13084                       ELSE  BEGIN               Reject unrecognized DO...
 001072 9640 6104      00104       13095  1                      SET   UNETFNOXL           Seg w/o translation
 001076 4110 7596/4100_      01324 13101  1                      SEG   LA:=AL1($IAC,$WONT),2,.UNETOUTSG  Won't
 001088 4110 5002/4100_      00002 13128  1                      SEG   @R5+2,1,.UNETOUTSG  Whatever
 00109A 94BF 6104      00104       13157  1                      CLEAR UNETFNOXL           Reset
 00109E                            13164                       END
                                   13168
 00109E 41F0 0003            00003 13169                       LA    R15,3
 0010A2 4DE0 742A            011B8 13170                       LCALL IACDEL              Delete IAC DO opcode
 0010A6 47F0 700A            00D98 13172                       B     IACLOOP
-                                  13174                       ¿þþþþþþþþþþþþþþþþþþþþþþþþþþþþþþþþþþþþþþþþþþþþþþþþþþþþþþþþþþÜ
                                   13175                       Ÿ  Remote host is demanding that we stop doing something.  Ÿ
                                   13176                       ¾þþþþþþþþþþþþþþþþþþþþþþþþþþþþþþþþþþþþþþþþþþþþþþþþþþþþþþþþþþ»
 0010AA 1244/47D0 7410             13177              IACDONT  IF    (R4,NP),ICHKDONE    Incomplete sequence, scram
 0010B0 1F22/4320 5002             13195                       LC    R2,@R5+2            Don't "opcode"
                                   13202
 0010B6 41F0 0003            00003 13203                       LA    R15,3
 0010BA 4DE0 742A            011B8 13204                       LCALL IACDEL              Delete IAC DONT opcode
 0010BE 47F0 700A            00D98 13206                       B     IACLOOP
1NPAT     (NPAT2193) (12:50) (15MAR04) Network Interface Routines                                                           Page   40
0Current Usings:  (UNET,R6) (*,R7) (CP,R11) (CV,R12)
0Loc    Object Code    Addr1 Addr2  Stmt Lv Lineno    Source Statement           (Hibal 5, Asmedit 3.3)  HLASM R4.0  2004/03/15 12.50
+___    ______ ____    _____ _____  ____ __ ______    ______ _________
0                                  13208                       ¿þþþþþþþþþþþþþþþþþþþþþÜ
                                   13209                       Ÿ  Data byte of 255.  Ÿ
                                   13210                       ¾þþþþþþþþþþþþþþþþþþþþþ»
 0010C2 41F0 0001            00001 13211              IAC255   LA    R15,1
 0010C6 4DE0 742A            011B8 13212                       LCALL IACDEL              Delete IAC character
 0010CA 47F0 700A            00D98 13214                       B     IACLOOP
                                   13215                       ¿þþþþþþþþþþþþþþþþþþþþþþþþþþþþþþþþþþþþþþþþþþþþþþþþþþþþþþþþþþÜ
                                   13216                       Ÿ  Start of sub-option.                                    Ÿ
                                   13217                       Ÿ    Currently we just scan for the end of sub-options     Ÿ
                                   13218                       Ÿ    IAC sequence, and delete the entire sequence.         Ÿ
                                   13219                       Ÿ                                                          Ÿ
                                   13220                       Ÿ    Not quite: SEND Terminal type sequence is recognized  Ÿ
                                   13221                       Ÿ               here. Fixes a bug (wherein WSYLBUR sent    Ÿ
                                   13222                       Ÿ               the terminal information in response to    Ÿ
                                   13223                       Ÿ               "DO". MPD - 6/23/97                        Ÿ
                                   13224                       ¾þþþþþþþþþþþþþþþþþþþþþþþþþþþþþþþþþþþþþþþþþþþþþþþþþþþþþþþþþþ»
 0010CE                            13225              IACSB    DS    0H
                                   13226              *
                                   13227              *   Check to see if it's a request to send the terminal type.
                                   13228              *
 0010CE 1F22/4320 5002             13229                       LC    R2,@R5+2            Get "opcode"
                                   13236
 0010D4 5920 7532/4770_      012C0 13237                       IF (R2,EQ,$TTYPE),BEGIN   Send back terminal type...
 0010DC 9640 6104      00104       13254  1                      SET   UNETFNOXL           Seg w/o translation
 0010E0 4110 7536/4100_      012C4 13260  1                      SEG   LA:=AL1($IAC,$SB,$TTYPE,0),4,.UNETOUTSG
                                   13287  1
 0010F2 94BF 6104      00104       13288  1                      CLEAR UNETFNOXL           Turn on translation
 0010F6 4110 61DC/4100_      001DC 13295  1                      SETMSG UNETTERM            Terminal type
 0010FE 58E0 74F6/0DEE       01284 13309  1                      VCALL RTRIM               Trim trailing blanks
 001104 1200/4780 7386_            13313  1                      IF    ((R0,Z),OR,(UNETTERM,Z)),BEGIN  Our default...
 001114 4110 B3E2/4100_      003E2 13342  2                        SETMSG CPSTCLS             Terminal class
 00111C 9140 B3EA/47E0_003EA       13356  2                        IF    CPSFSAM,'SETMSG "VT100"'  Samson becomes VT100
 00112C 9504 B38C/4770_0038C       13380  2                        IF    CPSTVTAM,'SETMSG "unknown"'  VTAM(3270) becomes unknown
 00113C                            13404  1                      END
 00113C 41F0 610C/58E0_      0010C 13408  1                      SEGT  (R1),(R0),.UNETOUTSG  Terminal type name
 001146 9640 6104      00104       13432  1                      SET   UNETFNOXL
                                   13438  1
 00114A 4110 7598/4100_      01326 13439  1                      SEG   LA:=AL1($IAC,$SE),2,.UNETOUTSG
 00115C 94BF 6104      00104       13466  1                      CLEAR UNETFNOXL           Reset
 001160                            13473                       END
                                   13477              *
                                   13478              *  Flush the sequence
                                   13479              *
 001160 41F0 0002            00002 13480                       LA    R15,2               Count bytes "IAC SB"
 001164 1824                       13481                       LR    R2,R4
 001166 1835                       13482                       LR    R3,R5
 001168 5920 753A/4750_      012C8 13483                       WHILE ((R2,GE,2),AND,(@R3,NE,IACSE)),BEGIN  Keep looking...
 00117A 41F0 F001            00001 13518  1                      LA    R15,@R15+1          Count this character
 00117E 4130 3001            00001 13519  1                      LA    R3,@R3+1
 001182 0620                       13520  1                      DECR  R2
 001184 47F0 73DA            01168 13522                       END
 001188 5920 753A/4750_      012C8 13527                       IF    (R2,GE,2),'LA R15,@R15+2'  Count bytes "IAC SE"
 001194 4DE0 742A            011B8 13550                       LCALL IACDEL              Delete entire sequence
 001198 47F0 700A            00D98 13552                       B     IACLOOP
1NPAT     (NPAT2193) (12:50) (15MAR04) Network Interface Routines                                                           Page   41
0Current Usings:  (UNET,R6) (*,R7) (CP,R11) (CV,R12)
0Loc    Object Code    Addr1 Addr2  Stmt Lv Lineno    Source Statement           (Hibal 5, Asmedit 3.3)  HLASM R4.0  2004/03/15 12.50
+___    ______ ____    _____ _____  ____ __ ______    ______ _________
0                                  13553
 00119C FFF0                       13554              IACSE    DC    0CL2'xx',AL1($IAC,$SE)  IAC SE
                                   13555
 00119E 1B00/41F0 610C_            13556              ICHKDONE SEGWR ,,.UNETOUTSG
                                   13581
 0011AA 18D8/9808 D004_            13582                       PEND
 DROP   UNET,R6
 DROP   *,R7
                                   13607
                                   13608                       SEGDEF DUMMY              (Safety)
1NPAT     (NPAT2193) (12:50) (15MAR04) Network Interface Routines                                                           Page   42
0Current Usings:  (CP,R11) (CV,R12)
0Loc    Object Code    Addr1 Addr2  Stmt Lv Lineno    Source Statement           (Hibal 5, Asmedit 3.3)  HLASM R4.0  2004/03/15 12.50
+___    ______ ____    _____ _____  ____ __ ______    ______ _________
0                                  13610              ¿þþþþþþþþþþþþþþþþþþþþþþþþþþþþþþþþþþþþþþþþþþþþþþþþþþþþþþþþþþþþþþþþþþþþþÜ
                                   13611              Ÿ                                                                     Ÿ
                                   13612              Ÿ  IACDEL -- Local routine to delete the number of characters         Ÿ
                                   13613              Ÿ    specified from the current position in the input buffer.         Ÿ
                                   13614              Ÿ                                                                     Ÿ
                                   13615              Ÿ    On entry:                                                        Ÿ
                                   13616              Ÿ      R15 - number of bytes to remove from buffer                    Ÿ
                                   13617              Ÿ      R5,R4 - current remaining buffer location, length              Ÿ
                                   13618              Ÿ                                                                     Ÿ
                                   13619              Ÿ    On exit:                                                         Ÿ
                                   13620              Ÿ      R5,R4 - updated remaining buffer location, length              Ÿ
                                   13621              Ÿ                                                                     Ÿ
                                                      ¾þþþþþþþþþþþþþþþþþþþþþþþþþþþþþþþþþþþþþþþþþþþþþþþþþþþþþþþþþþþþþþþþþþþþþ»
00011B8 50E0 D000/9078_      00000 13622              IACDEL   PROC  (R7,LSR)
 USING  *,R7
                                   13661
 0011D2 15F4/4750 7008_            13662                       IF    (R15,LGE,R4),'CLEAR R4'   Deleting rest of buffer
                                   13686
 0011DA 700C/47F0 701A 011DA 011D6 13687                       ELSE  BEGIN               Move buffer over...
 0011DE 1B4F                       13698  1                      SR    R4,R15              Deduct chars to be deleted
                                   13699  1
 0011E0 18E5                       13700  1                      LR    R14,R5              Dest ptr
 0011E2 410F 5000            00000 13701  1                      LA    R0,@R5(R15)         Source ptr
 0011E6 18F4                       13702  1                      LR    R15,R4              Len
 0011E8 1814                       13703  1                      LR    R1,R4               (Ditto)
 0011EA 0EE0                       13704  1                      MVCL  R14,R0              Move text over to delete chars
 0011EC                            13705                       END
                                   13709
 0011EC 18D8/9878 D004_            13710                       PEND
 DROP   *,R7
                                   13730
                                   13731                       QLTORG
1NPAT     (NPAT2193) (12:50) (15MAR04) Network Interface Routines                                                           Page   43
0Current Usings:  (CP,R11) (CV,R12)
0Loc    Object Code    Addr1 Addr2  Stmt Lv Lineno    Source Statement           (Hibal 5, Asmedit 3.3)  HLASM R4.0  2004/03/15 12.50
+___    ______ ____    _____ _____  ____ __ ______    ______ _________
0                                  13809              ¿þþþþþþþþþþþþþþþþþþþþþþþþþþþþþþþþþþþþþþþþþþþþþþþþþþþþþþþþþþþþþþþþþþþþþÜ
                                   13810              Ÿ                                                                     Ÿ
                                   13811              Ÿ  NPATTALK -- Routine to do combined terminal and network I/O.       Ÿ
                                   13812              Ÿ    This allows a user to "talk" to a network connection             Ÿ
                                   13813              Ÿ    (primarily for TELNET support).                                  Ÿ
                                   13814              Ÿ                                                                     Ÿ
                                   13815              Ÿ    On entry:                                                        Ÿ
                                   13816              Ÿ      R0  - working active file number (0=none)                      Ÿ
                                   13817              Ÿ      R1  - option string:                                           Ÿ
                                   13818              Ÿ              N...    - Don't re-prompt                              Ÿ
                                   13819              Ÿ              ...x    - "x" is the ATTN char (. = Ctrl-C)            Ÿ
                                   13820              Ÿ                                                                     Ÿ
                                   13821              Ÿ      R15 - UNET ptr                                                 Ÿ
                                   13822              Ÿ                                                                     Ÿ
                                   13823              Ÿ    On exit, R15 (and cc):                                           Ÿ
                                   13824              Ÿ      0  - OK                                                        Ÿ
                                   13825              Ÿ      nz - some sort of error                                        Ÿ
                                   13826              Ÿ      R1,R0 - error msg loc,len                                      Ÿ
                                   13827              Ÿ                                                                     Ÿ
                                                      ¾þþþþþþþþþþþþþþþþþþþþþþþþþþþþþþþþþþþþþþþþþþþþþþþþþþþþþþþþþþþþþþþþþþþþþ»
0000000                00000 0040C 13828              NTKWA    RECORD BEGIN
 000000 00                         13836  1           NTKFLAG    FLAG
 NTKFLAG.NTKFACT   80 ONES         13840  1                      FLAG  NTKFACT             - Working Active file specified
 NTKFLAG.NTKFATTN  40 ONES         13845  1                      FLAG  NTKFATTN            - Read ended with ATTN
 NTKFLAG.NTKFNPR   20 ONES         13850  1                      FLAG  NTKFNPR             - Don't re-prompt
 NTKFLAG.NTKFNOWAI 10 ONES         13855  1                      FLAG  NTKFNOWAIT          - No wait mode
 NTKFLAG.NTKFRSHD  08 ONES         13860  1                      FLAG  NTKFRSHD            - You're talking to an rshd
                                   13865  1
 000001                            13866  1           NTKATTNC   DS    X                   Attention character (in ASCII)
                                   13867  1
 000004                            13868  1           NTKOLDA    DS    F                   Original active file number
                                   13869  1
 000008                            13870  1           NTKSAVE    DS    3A                  Register save area
                                   13871  1
                                   13872  1           NTKWORKL   DS    CL(&LINESZ)         Working line text
 000014                                   1          +NTKWORKL   DS    CL(235)             Working line text
                                   13873  1
 0000FF                            13874  1           NTKTRM     DS    CL(L'CPTRM)         Saved terminal options
                                   13875  1
                                   13876  1           NTKPUTCB   PUTCB PFX=NTK             PUTBYTES options
                                   13877+ 1          +           ¿þþþþþþþþþþþþþþþþþþþþþþþþþþþþþþþþþþþþþþþþþþþþÜ
                                   13878+ 1          +           Ÿ  PUTBYTES Control Block (see ACT module).  Ÿ
                                   13879+ 1          +           ¾þþþþþþþþþþþþþþþþþþþþþþþþþþþþþþþþþþþþþþþþþþþþ»
 000110 00                         13880  1 01-PUTCB +NTKSTART     DS  0F
 NTKFL.NTKFTRAN    80 ONES
 NTKFL.NTKFWRAP    40 ONES
 NTKFL.NTKFNECHO   20 ONES
 NTKFL.NTKFTABS    10 ONES
 NTKFL.NTKFSTOP    08 ONES
 000111 00                         13910  1          +*
 NTKFL2.NTKFGOTCR  80 ONES
 NTKFL2.NTKFACTCT  40 ONES
                                   13925  1          +*
1NPAT     (NPAT2193) (12:50) (15MAR04) Network Interface Routines                                                           Page   44
0Current Usings:  (CP,R11) (CV,R12)
0Loc    Object Code    Addr1 Addr2  Stmt Lv Lineno    Source Statement           (Hibal 5, Asmedit 3.3)  HLASM R4.0  2004/03/15 12.50
+___    ______ ____    _____ _____  ____ __ ______    ______ _________
0000112                            13926  1 01-PUTCB +NTKMAXLN     DS  H                   Max line length
                                   13927  1          +
 000114                            13928  1 01-PUTCB +NTKCOUNT     DS  F                   Max number of lines to add
 000118                            13929  1 01-PUTCB +NTKLNO       DS  F                   Current line-number
                                   13930  1          +
 00011C                            13931  1 01-PUTCB +NTKSTLEN     DS  H                   Stop text length
 00011E                            13932  1 01-PUTCB +NTKSTOP      DS  CL(235)             Stop text
                                   13933  1          +
 00020A                            13934  1 01-PUTCB +NTKRESLN     DS  H                   Current residual buffer length
 00020C                            13935  1 01-PUTCB +NTKRESBF     DS  XL512               Residual buffer data saved here
                                   13936  1          +
                                   13937  1 01-PUTCB +NTKPUTCB   EQU   NTKSTART,*-NTKSTART,C'X'
 00040C                0040C 0040C 13938                       END
                                   13947              þþþþ
 0013E0 50E0 D000/9028_      00000 13948              NPATTALK XPROC (R2,LSR),NTKWA
 USING  *,R7
 USING  NTKWA-(4+28),R8
 0013FA 186F                       13998                       LR    R6,R15
 USING  UNET,R6                    13999                       WITH  (UNET,R6)
 0013FC D503 78AE 6000_01CA8 00000 14012                       FAIL  (UNET,NE,'UNET'),NPATTALK,'Bad UNET ptr'
                                   14041
 00141E 4150 8020            00000 14042                       LA    R5,NTKWA
 USING  NTKWA,R5                   14043                       WITH  (NTKWA,R5)
                                   14056
 001422 1820                       14057                       LR    R2,R0               Save actno
 001424 1831                       14058                       LR    R3,R1               Option string ptr
 001426 18E5/41F0 040C_            14059                       ZOT   NTKWA
                                   14076
 001430 D503 78B2 61D0_01CAC 001D0 14077                       IF    (UNETRPORT,EQ,514),'SET NTKFRSHD'
                                   14106
 00143E 9500 6162/4770_00162       14107                       IF    (UNETTALK,Z),BEGIN  Set default talk mode...
 001446 9201 6162      00162       14123  1                      MVI   UNETTALK,UNETTALKCHAR  Char mode talking
 00144A 9504 B38C/4770_0038C       14124  1                      IF    CPSTVTAM,'MVI UNETTALK,UNETTALKVTAM'  Vtam
 001456 9505 B38C/4770_0038C       14145  1                      IF    CPSTVIRT,'MVI UNETTALK,UNETTALKLINE'  Line
 001462                            14166                       END
                                   14170
 001462 95D5 3000/4770_00000       14171                       IF    (@R3,EQ,'N'),'SET NTKFNPR'  Don't re-prompt
 00146E 9140 602C/47E0_0002C       14198                       IF    UNETFNOWAIT,'SET NTKFNOWAIT'  No wait mode
                                   14224
 00147A D200 5001 3003 00001 00003 14225                       MVC   NTKATTNC,@R3+3      Save attention character
 001480 954B 5001/4770_00001       14226                       IF    (NTKATTNC,EQ,'.'),'MVI NTKATTNC,X"03"'  Default
                                   14249
                                   14250                       SEGDEF UNETOUTSG
                                   14251                       ¿þþþþþþþþþþþþþþþþþþþþþþþþþþþþþþþþþþþþþþþþþÜ
                                   14252                       Ÿ  Switch in to the working Active file.  Ÿ
                                   14253                       ¾þþþþþþþþþþþþþþþþþþþþþþþþþþþþþþþþþþþþþþþþþ»
 00148C 12F2                       14254                       LTR   R15,R2              Actno
 00148E 4780 70AA            014A4 14255                       IF    NZ,BEGIN            Working Active file specified...
 001492 58E0 78B6/0DEE       01CB0 14266  1                      VCALL ACTPICK             Pick it
 001498 47D0 70A6/9680_      014A0 14270  1                      IF    POS,'SET NTKFACT'   We found the working active
 0014A0 50F0 5004            00004 14292  1                      ST    R15,NTKOLDA         Save original Active file no
 0014A4                            14293                       END
1NPAT     (NPAT2193) (12:50) (15MAR04) Network Interface Routines                                                           Page   45
0Current Usings:  (NTKWA,R5) (UNET,R6) (*,R7) (NTKWA-(4+28),R8) (CP,R11) (CV,R12)
0Loc    Object Code    Addr1 Addr2  Stmt Lv Lineno    Source Statement           (Hibal 5, Asmedit 3.3)  HLASM R4.0  2004/03/15 12.50
+___    ______ ____    _____ _____  ____ __ ______    ______ _________
0                                  14297                       ¿þþþþþþþþþþþþþþþþþþþþþþþþþþþþþþþþþþþþþþþþþþþþþþþþþþþþþþþþþþþþþþþÜ
                                   14298                       Ÿ  Get any old prompt from the working Active file.             Ÿ
                                   14299                       Ÿ    If the line ends with our "[]" characters it is a prompt.  Ÿ
                                   14300                       ¾þþþþþþþþþþþþþþþþþþþþþþþþþþþþþþþþþþþþþþþþþþþþþþþþþþþþþþþþþþþþþþþ»
 0014A4 9180 5000/47E0_00000       14301                       IF    NTKFACT,BEGIN       Only if we have a working act...
 0014AC 58F0 B5A4            005A4 14316  1                      L     R15,CPALLNO         Last lineno
 0014B0 4110 5014/4100_      00014 14317  1                      SETMSG NTKWORKL            Prompt line area
 0014B8 58E0 78BA/0DEE       01CB4 14331  1                      VCALL GETLINE             Get last line
                                   14335  1
 0014BE 5900 78BE/4750_      01CB8 14336  1                      IF    (R0,GE,2),BEGIN     Check for our ending chars...
 0014C6 1821                       14353  2                        LR    R2,R1
 0014C8 1A20                       14354  2                        AR    R2,R0
 0014CA 4B20 78F2            01CEC 14355  2                        SH    R2,=H'2'
 0014CE D501 78F4 2000_01CEE 00000 14356  2                        IF    (@R2,EQ,'[]'),BEGIN  It's our prompt...
 0014D8 4B00 78F2            01CEC 14372  3                          SH    R0,=H'2'            Deduct length of "[]" chars
 0014DC 1820                       14373  3                          LR    R2,R0               Save true line length
                                   14374  3
 0014DE 5800 B5A4            005A4 14375  3                          L     R0,CPALLNO          First line to delete
 0014E2 1810                       14376  3                          LR    R1,R0               Last line to delete
 0014E4 58E0 78C2/0DEE       01CBC 14377  3                          VCALL DELRANGE            Delete the line
                                   14381  3
 0014EA 4110 5014/1802       00014 14382  3                          SETMSG NTKWORKL,(R2)       Prompt text
 0014F0 58E0 78C6/0DEE       01CC0 14396  3                          VCALL TOASCII             Convert EBCDIC to ASCII
 0014F6 41F0 5110            00110 14400  3                          LA    R15,NTKPUTCB
 0014FA 58E0 78CA/0DEE       01CC4 14401  3                          VCALL PUTBYTES            Save prompt text in Active file
                                   14405  3
 001500 9120 5000/4710_00000       14406  3                          IF    ~NTKFNPR,BEGIN      Write out the prompt again...
 001508 9501 6162/4770_00162       14421  4                            IF    (UNETTALK,EQ,UNETTALKCHAR),BEGIN  Wr transparent...
 001510 9680 BC7C      00C7C       14439  5                              SET   CPFTRAN             Transparent I/O
 001514                            14445  4                            END
                                   14449  4
 001514 711E/47F0 7124_01514 0150E 14450  4                            ELSE  'VCALL TOEBCDIC'    Convert back to EBCDIC
                                   14470  4
 00151E 41F0 B050/58E0_      00050 14471  4                            TSEG  (R1),(R0)           Write prompt
 001528 41F0 B050/58E0_      00050 14495  4                            TMARK
 001532 1B00/41F0 B050_            14509  4                            TWRITE
 00153E 947F BC7C      00C7C       14534  4                            CLEAR CPFTRAN
 001542                            14541  3                          END
 001542                            14545  2                        END
 001542                            14549  1                      END
 001542                            14553                       END
                                   14557                       ¿þþþþþþþþþþþþþþþþþþþþþþþþþþþþþþþþþþþþþþÜ
                                   14558                       Ÿ  Send initial Telnet IAC sequences.  Ÿ
                                   14559                       ¾þþþþþþþþþþþþþþþþþþþþþþþþþþþþþþþþþþþþþþ»
 001542 9140 6163/4710_00163       14560                       IF    ~UNETFIACSENT,BEGIN  Initial IACs not yet sent...
 00154A 9640 6163      00163       14575  1                      SET   UNETFIACSENT        Only go through this the 1st time
 00154E 9180 6163/47E0_00163       14581  1                      IF    ~UNETFIAC,EXIT      Don't send telnet IACs, scram
                                   14599  1
 001556 9640 6104      00104       14600  1                      SET   UNETFNOXL
 00155A 4110 78F6/4100_      01CF0 14606  1                      SEG   LA:=AL1($IAC,$DO,$SGA,$IAC,$WILL,$SGA),6
                                   14633  1
 00156C 9501 6162/4770_00162       14634  1                      IF    (UNETTALK,EQ,UNETTALKCHAR),BEGIN  Do remote echo...
 001574 4110 790A/4100_      01D04 14652  2                        SEG   LA:=AL1($IAC,$DO,$ECHO),3
 001586                            14679  1                      END
1NPAT     (NPAT2193) (12:50) (15MAR04) Network Interface Routines                                                           Page   46
0Current Usings:  (NTKWA,R5) (UNET,R6) (*,R7) (NTKWA-(4+28),R8) (CP,R11) (CV,R12)
0Loc    Object Code    Addr1 Addr2  Stmt Lv Lineno    Source Statement           (Hibal 5, Asmedit 3.3)  HLASM R4.0  2004/03/15 12.50
+___    ______ ____    _____ _____  ____ __ ______    ______ _________
0                                  14683  1                      ¿þþþþþþþþþþþþþþþþþþþþþþþþþþþþþþþþþþþþþþþþþþþþþþþþþþþþþÜ
                                   14684  1                      Ÿ  Think about what to send for VTAM TALK...  !!!!!!  Ÿ
                                   14685  1                      ¾þþþþþþþþþþþþþþþþþþþþþþþþþþþþþþþþþþþþþþþþþþþþþþþþþþþþþ»
 001586 9503 6162/4770_00162       14686  1                      IF    (UNETTALK,EQ,UNETTALKVTAM),BEGIN  Do remote echo...
 00158E 4110 790A/4100_      01D04 14704  2                        SEG   LA:=AL1($IAC,$DO,$ECHO),3
 0015A0                            14731  1                      END
                                   14735  1
 0015A0 4110 790D/4100_      01D07 14736  1                      SEG   LA:=AL1($IAC,$WILL,$TTYPE),3  We will answer ttype
                                   14763  1
 0015B2 1B00/41F0 610C_            14764  1                      SEGWR
 0015BE 94BF 6104      00104       14788  1                      CLEAR UNETFNOXL
 0015C2                            14795                       END
                                   14799
 0015C2 9501 6162/4770_00162       14800                       IF    (UNETTALK,EQ,UNETTALKCHAR),'LCALL CHARTALK'
 0015CE 71D8/47F0 71E4_015CE 015C8 14825                       ELSEIF (UNETTALK,EQ,UNETTALKLINE),'LCALL LINETALK'
 0015DE 71E8/47F0 71F4_015DE 015D8 14859                       ELSEIF (UNETTALK,EQ,UNETTALKVTAM),'LCALL VTAMTALK'
 0015EE 71F8/47F0 7210_015EE 015E8 14893                       ELSE  'KAPUT BADTALK,"NET TALK error."'
                                   14916
 00160A 90F1 5008            00008 14917                       STM   R15,R1,NTKSAVE      Save return regs
                                   14918                       ¿þþþþþþþþþþþþþþþþþþþþþþþþþþþþþþþþþþþþþþþþþþþþþþþþþþþþþþþþþþÜ
                                   14919                       Ÿ  If we have a working Active file then save the last     Ÿ
                                   14920                       Ÿ    partial line (a prompt probably) in the Active file.  Ÿ
                                   14921                       ¾þþþþþþþþþþþþþþþþþþþþþþþþþþþþþþþþþþþþþþþþþþþþþþþþþþþþþþþþþþ»
 00160E 9180 5000/47E0_00000       14922                       IF    NTKFACT,BEGIN       We have a working Active...
 001616 4110 78FC/4100_      01CF6 14937  1                      SETMSG X'5B5D'             Ascii "[]"
 00161E 41F0 5110            00110 14941  1                      LA    R15,NTKPUTCB
 001622 58E0 78CA/0DEE       01CC4 14942  1                      VCALL PUTBYTES            Add prompt suffix
                                   14946  1
 001628 4800 78FE            01CF8 14947  1                      LH    R0,=H'-1'
 00162C 41F0 5110            00110 14948  1                      LA    R15,NTKPUTCB
 001630 58E0 78CA/0DEE       01CC4 14949  1                      VCALL PUTBYTES            Flush buffer
                                   14953  1
 001636 58F0 5004            00004 14954  1                      L     R15,NTKOLDA
 00163A 58E0 78B6/0DEE       01CB0 14955  1                      VCALL ACTPICK             Restore current Active file
 001640                            14959                       END
                                   14963
 001640 9110 5000/4710_00000       14964                       IF    ~NTKFNOWAIT,'CLEAR UNETFNOWAIT'  Restore path wait
                                   14991
 00164C 98F1 5008            00008 14992                       LM    R15,R1,NTKSAVE      Restore regs
                                   14993
 001650 18D8/9828 D004_            14994              NTKEXIT  PEND
 DROP   NTKWA,R5
 DROP   UNET,R6
 DROP   NTKWA-(4+28),R8
 DROP   *,R7
1NPAT     (NPAT2193) (12:50) (15MAR04) Network Interface Routines                                                           Page   47
0Current Usings:  (CP,R11) (CV,R12)
0Loc    Object Code    Addr1 Addr2  Stmt Lv Lineno    Source Statement           (Hibal 5, Asmedit 3.3)  HLASM R4.0  2004/03/15 12.50
+___    ______ ____    _____ _____  ____ __ ______    ______ _________
0                                  15031              ¿þþþþþþþþþþþþþþþþþþþþþþþþþþþþþþþþþþþþþþþþþþþþþþþþþþþþþþþþþþþþþþþþþþþþþÜ
                                   15032              Ÿ                                                                     Ÿ
                                   15033              Ÿ  CHARTALK -- Local routine to do character at a time terminal       Ÿ
                                   15034              Ÿ    input.                                                           Ÿ
                                   15035              Ÿ                                                                     Ÿ
                                   15036              Ÿ    Anything typed at the terminal is send across the                Ÿ
                                   15037              Ÿ    network path and anything sent across the network path is        Ÿ
                                   15038              Ÿ    typed at the terminal.                                           Ÿ
                                   15039              Ÿ                                                                     Ÿ
                                   15040              Ÿ    On exit, R15 (and cc):                                           Ÿ
                                   15041              Ÿ      1 - done talking;  R1,R0 = error msg loc, len                  Ÿ
                                   15042              Ÿ                                                                     Ÿ
                                                      ¾þþþþþþþþþþþþþþþþþþþþþþþþþþþþþþþþþþþþþþþþþþþþþþþþþþþþþþþþþþþþþþþþþþþþþ»
000165E 50E0 D000/9028_      00000 15043              CHARTALK PROC  (R2,LSR)
 USING  *,R7
 USING  UNET,R6                    15082                       WITH  (UNET,R6),(NTKWA,R5)
 USING  NTKWA,R5
 001678 9640 602C      0002C       15105                       SET   UNETFNOWAIT         Force no wait on READDATA
                                   15111                       ¿þþþþþþþþþþþþþþþþþþþþþþþþþþþþþþþþþþþþþþþþþÜ
                                   15112                       Ÿ  Talk loop for character echoing mode.  Ÿ
                                   15113                       ¾þþþþþþþþþþþþþþþþþþþþþþþþþþþþþþþþþþþþþþþþþ»
 00167C 41F0 6000            00000 15114              CHARLP   LA    R15,UNET
 001680 58E0 7660/0DEE       01CD8 15115                       ACALL READDATA            Get input data
 001686 4780 7030            016A8 15119                       IF    NZ,BEGIN            No data or end of file...
 00168A D506 7692 1000_01D0A 00000 15130  1                      IF    (@R1,NE,'NO DATA'),CTKEXIT   End of file, etc.
 001694 9110 5000/47E0_00000       15149  1                      IF    NTKFNOWAIT,'LA R15,1; B CTKEXIT'  Return if no wait
 0016A4 1B11/1B00                  15171  1                      CLEAR R1,R0               No data
 0016A8                            15177                       END
                                   15181                       ¿þþþþþþþþþþþþþþþþþþþþþþþþþþþþþþþþþþþþþþþþþþþþþþþþþþþþþþþþþÜ
                                   15182                       Ÿ  If we're talking to an rsh daemon, then eliminate the  Ÿ
                                   15183                       Ÿ  leading X'00' (or X'01' if an error occurred on the    Ÿ
                                   15184                       Ÿ  command line fed to the remote shell), so that the     Ÿ
                                   15185                       Ÿ  NET_TALK user doesn't see it.                          Ÿ
                                   15186                       ¾þþþþþþþþþþþþþþþþþþþþþþþþþþþþþþþþþþþþþþþþþþþþþþþþþþþþþþþþþ»
 0016A8 1200/47D0 7058_            15187                       IF    ((R0,POS),AND,(NTKFRSHD)),BEGIN
 0016B6 9500 1000/4780_00000       15215  1                      IF    ((@R1,EQ,X'00'),OR,(@R1,EQ,X'01')),BEGIN
 0016C6 0600                       15246  2                        DECR  R0
 0016C8 4110 1001            00001 15248  2                        LA    R1,@R1+1
 0016CC                            15249  1                      END
 0016CC 94F7 5000      00000       15253  1                      CLEAR NTKFRSHD            Do this once only
 0016D0                            15260                       END
                                   15264                       ¿þþþþþþþþþþþþþþþþþþþþþþþþþþþþþþþþþþþþþþþþþþþþþþþþþþþþþÜ
                                   15265                       Ÿ  Save the data we received from the network in the  Ÿ
                                   15266                       Ÿ    working Active file (if one was specified).      Ÿ
                                   15267                       ¾þþþþþþþþþþþþþþþþþþþþþþþþþþþþþþþþþþþþþþþþþþþþþþþþþþþþþ»
 0016D0 9180 5000/47E0_00000       15268                       IF    NTKFACT,BEGIN       Save text in working Active...
 0016D8 41F0 5110            00110 15283  1                      LA    R15,NTKPUTCB
 0016DC 58E0 764C/0DEE       01CC4 15284  1                      VCALL PUTBYTES            Save output text in Active file
 0016E2                            15288                       END
1NPAT     (NPAT2193) (12:50) (15MAR04) Network Interface Routines                                                           Page   48
0Current Usings:  (NTKWA,R5) (UNET,R6) (*,R7) (CP,R11) (CV,R12)
0Loc    Object Code    Addr1 Addr2  Stmt Lv Lineno    Source Statement           (Hibal 5, Asmedit 3.3)  HLASM R4.0  2004/03/15 12.50
+___    ______ ____    _____ _____  ____ __ ______    ______ _________
0                                  15292                       ¿þþþþþþþþþþþþþþþþþþþþþþþþþþþþþþþþþþþþþþþþþþþþþþþþþþþþþþþþþþÜ
                                   15293                       Ÿ  Send what we read from the network to the terminal.     Ÿ
                                   15294                       Ÿ    Two things are done to the data:                      Ÿ
                                   15295                       Ÿ                                                          Ÿ
                                   15296                       Ÿ    1.  It is changed to even parity; since that is what  Ÿ
                                   15297                       Ÿ          is what our terminals expect.                   Ÿ
                                   15298                       Ÿ                                                          Ÿ
                                   15299                       Ÿ        Eliminated 7/7/97 by MPD. Parity generation       Ÿ
                                   15300                       Ÿ        is properly the front end's job, not the          Ÿ
                                   15301                       Ÿ        mainframes, and WYLBUR should not be doing it.    Ÿ
                                   15302                       Ÿ                                                          Ÿ
                                   15303                       Ÿ    2.  The end of line character(s) are replaced with a  Ÿ
                                   15304                       Ÿ          CR-LF.                                          Ÿ
                                   15305                       ¾þþþþþþþþþþþþþþþþþþþþþþþþþþþþþþþþþþþþþþþþþþþþþþþþþþþþþþþþþþ»
 0016E2 D20D 50FF BC7A 000FF 00C7A 15306                       MVC   NTKTRM,CPTRM        Save terminal options
 0016E8 9680 BC7C/9640_00C7C       15307                       SET   CPFTRAN,CPFNECHO,CPFBUFIO
                                   15321
 0016F4 1200/47D0 70FA             15322                       IF    (R0,POS),BEGIN      We have some data to write...
                                   15336  1                      ¿þþþþþþþþþþþþþþþþÜ
                                   15337  1                      Ÿ  Outdata=CRLF  Ÿ
                                   15338  1                      ¾þþþþþþþþþþþþþþþþ»
 0016FA 9500 6167/4770_00167       15339  1                      IF    UNETOUTFCRLF,BEGIN  Outdata mode is CRLF...
 001702 41F0 B050/58E0_      00050 15354  2                        TSEG  (R1),(R0)           Write data exactly as is
 00170C                            15378  1                      END
                                   15382  1                      ¿þþþþþþþþþþþþþþÜ
                                   15383  1                      Ÿ  Outdata=LF  Ÿ
                                   15384  1                      ¾þþþþþþþþþþþþþþ»
 00170C 7098/47F0 70FA 0170C 01700 15385  1                      ELSE  BEGIN               Outdata mode is LF...
 001710 1841                       15396  2                        LR    R4,R1               Start of output data ptr
 001712 1830                       15397  2                        LR    R3,R0               Data length
                                   15398  2
 001714 1233/47D0 70FA             15399  2                        WHILE (R3,POS),BEGIN      Write the data...
 00171A 1814                       15415  3                          LR    R1,R4
 00171C 1233/47D0 70BC_            15416  3                          WHILE ((R3,POS),AND,(@R4,NE,X'0A')),'DECR R3; LA R4,@R4+1'
 001734 1804                       15456  3                          LR    R0,R4
 001736 1B01                       15457  3                          SR    R0,R1               Length of text before LF
                                   15458  3
 001738 1233/4780 70E8             15459  3                          IF    (R3,NZ),BEGIN       Ended with LF...
 00173E 41F0 B050/58E0_      00050 15473  4                            TSEG  (R1),(R0)           Write what we have
 001748 4110 7682/4100_      01CFA 15497  4                            TSEG  X'0D0A'             CR-LF
 00175A 4140 4001            00001 15515  4                            LA    R4,@R4+1
 00175E 0630                       15516  4                            DECR  R3
 001760                            15518  3                          END
                                   15522  3
 001760 70EC/47F0 70F6_01760 0173C 15523  3                          ELSE  'TSEG (R1),(R0)'    Write final piece of text
 00176E 47F0 709C            01714 15563  2                        END
 001772                            15568  1                      END
 001772                            15572                       END
1NPAT     (NPAT2193) (12:50) (15MAR04) Network Interface Routines                                                           Page   49
0Current Usings:  (NTKWA,R5) (UNET,R6) (*,R7) (CP,R11) (CV,R12)
0Loc    Object Code    Addr1 Addr2  Stmt Lv Lineno    Source Statement           (Hibal 5, Asmedit 3.3)  HLASM R4.0  2004/03/15 12.50
+___    ______ ____    _____ _____  ____ __ ______    ______ _________
0                                  15576                       ¿þþþþþþþþþþþþþþþþþþþþþþþþþþþþþþþþþþþþþþþþþþþþþþþþþþþþþþþþþþþþÜ
                                   15577                       Ÿ  If we have an unusual network state then just write out   Ÿ
                                   15578                       Ÿ    what we have to the terminal and then loop back.  This  Ÿ
                                   15579                       Ÿ    happens when the other side writes a bunch of data and  Ÿ
                                   15580                       Ÿ    then closes it's side of the path.                      Ÿ
                                   15581                       ¾þþþþþþþþþþþþþþþþþþþþþþþþþþþþþþþþþþþþþþþþþþþþþþþþþþþþþþþþþþþþ»
 001772 9504 6160/47D0_00160       15582                       IF    (UNETSTATE,GT,UNETSFOPEN),BEGIN  Write current...
 00177A 41F0 B050/58E0_      00050 15600  1                      TMARK
 001784 1B00/41F0 B050_            15614  1                      TWRITE
 001790 D20D BC7A 50FF 00C7A 000FF 15639  1                      MVC   CPTRM,NTKTRM        Restore terminal I/O options
 001796 47F0 7004            0167C 15640  1                      B     CHARLP              Loop back
 00179A                            15641                       END
                                   15645                       ¿þþþþþþþþþþþþþþþþþþþþþþþþþþþþþþþþþþþþþþþþþþþþþþþþþþþþþþþþþþþþþþÜ
                                   15646                       Ÿ  Do an interruptable terminal read for any immediately       Ÿ
                                   15647                       Ÿ    available characters.  If no characters have been typed,  Ÿ
                                   15648                       Ÿ    then this will wait for one character.  (This is a        Ÿ
                                   15649                       Ÿ    "buffered transparent" terminal read.)                    Ÿ
                                   15650                       ¾þþþþþþþþþþþþþþþþþþþþþþþþþþþþþþþþþþþþþþþþþþþþþþþþþþþþþþþþþþþþþþ»
 00179A D201 BC80 7684 00C80 01CFC 15651                       MVC   CPTRMIN,=H'256'     Maximum amount of terminal input
 0017A0 D501 7686 B34C_01CFE 0034C 15652                       IF    (CPSFE,EQ,'11'),'MVC CPTRMIN,=H"1"'  Pre-ALF limit
 0017B0 9620 BC7D      00C7D       15675                       SET   CPFTINT             Allow term I/O to be interrupted
 0017B4 9610 602C      0002C       15681                       SET   UNETFINT            Path is interruptable
                                   15687
 0017B8 1B00/1BFF/58E0_            15688                       TREAD ,                   Get data from terminal
                                   15702
 0017C2 D20D BC7A 50FF 00C7A 000FF 15703                       MVC   CPTRM,NTKTRM        Restore terminal options
 0017C8 94EF 602C      0002C       15704                       CLEAR UNETFINT            Path is interruptable
                                   15711
 0017CC 12FF                       15712                       LTR   R15,R15             Test TREAD return code
 0017CE 4740 724E            018C6 15713                       BM    CTKEXIT             Logging off
 0017D2 47D0 717A            017F2 15714                       IF    POS,BEGIN           Attn or interrupt...
 0017D6 59F0 7668/4780_      01CE0 15725  1                      IF    (R15,EQ,101),EXIT   It's an interrupt, scram
 0017DE 5820 C1C8            001C8 15745  1                      L     R2,CVCURJCB
 0017E2 94FD 2062/94F7_00062       15746  1                      WITH  (JCB,R2),'CLEAR JCBFATTN,JCBFPATN'  Don't EXEC BREAK
 USING  JCB,R2
 DROP   JCB,R2
 0017EA 4110 7699/4100_      01D11 15781  1                      SETMSG X'03'               Assume ASCII Ctrl-C
 0017F2                            15785                       END
                                   15789
 0017F2 1200/47D0 724A             15790                       IF    (R0,POS),BEGIN      Terminal chars to send...
                                   15804  1                      ¿þþþþþþþþþþþþþþþþþþþþþþþþþþþþþþþþþþþþþþþþþþþþþþþþþþþþþþþþþþþþþþÜ
                                   15805  1                      Ÿ  Send exactly what we read from the terminal to the          Ÿ
                                   15806  1                      Ÿ    network.  The only modification is that our end of line   Ÿ
                                   15807  1                      Ÿ    CR will get sent as LF or CR-LF depending on the outdata  Ÿ
                                   15808  1                      Ÿ    mode.                                                     Ÿ
                                   15809  1                      ¾þþþþþþþþþþþþþþþþþþþþþþþþþþþþþþþþþþþþþþþþþþþþþþþþþþþþþþþþþþþþþþ»
 0017F8 9640 6104      00104       15810  1                      SET   UNETFNOXL           Data is already in ASCII
                                   15816  1
 0017FC 1841                       15817  1                      LR    R4,R1
 0017FE 1830                       15818  1                      LR    R3,R0
 001800                            15819  1                      LOOP  BEGIN
 001800 947F 4000      00000       15825  2                        NI    @R4,X'7F'           Clear MSB of input ASCII data
                                   15826  2
 001804 1814/4100 0001             15827  2                        SETMSG @R4,1               A char at a time
1NPAT     (NPAT2193) (12:50) (15MAR04) Network Interface Routines                                                           Page   50
0Current Usings:  (NTKWA,R5) (UNET,R6) (*,R7) (CP,R11) (CV,R12)
0Loc    Object Code    Addr1 Addr2  Stmt Lv Lineno    Source Statement           (Hibal 5, Asmedit 3.3)  HLASM R4.0  2004/03/15 12.50
+___    ______ ____    _____ _____  ____ __ ______    ______ _________
0                                  15843  2                        ¿þþþþþþþþþþþþþþþþþþþþþþþþþþþþþþþþþþþþþþþþþþÜ
                                   15844  2                        Ÿ  Convert backspace to delete character.  Ÿ
                                   15845  2                        ¾þþþþþþþþþþþþþþþþþþþþþþþþþþþþþþþþþþþþþþþþþþ»
 00180A 9110 602D/47E0_0002D       15846  2                        IF    UNETFBSISDEL,BEGIN  Backspace is delete...
 001812 9508 4000/4770_00000       15861  3                          IF    (@R4,EQ,X'08'),'MVI @R4,X"7F"'  Change to DEL
 00181E                            15883  2                        END
                                   15887  2                        ¿þþþþþþþþþþþþþþþþþþþþþþþþþþþþþþþþþþþþþþþþþþþþþÜ
                                   15888  2                        Ÿ  Stop if we found the attention character.  Ÿ
                                   15889  2                        ¾þþþþþþþþþþþþþþþþþþþþþþþþþþþþþþþþþþþþþþþþþþþþþ»
 00181E D500 5001 4000_00001 00000 15890  2                        IF    (@R4,EQ,NTKATTNC),BEGIN  Attention char...
 001828 1B00/41F0 610C_            15907  3                          SEGWR
 001834 94BF 6104      00104       15931  3                          CLEAR UNETFNOXL           Reset
                                   15938  3
 001838 4110 766C/4100_      01CE4 15939  3                          SETMSG 'ATTN'
 001840 41F0 0001            00001 15943  3                          LA    R15,1
 001844 47F0 724E            018C6 15944  3                          B     CTKEXIT             Scram
 001848                            15945  2                        END
                                   15949  2
 001848 950D 4000/4770_00000       15950  2                        IF    (@R4,EQ,X'0D'),BEGIN  CR...
 001850 9180 6165/4710_00165       15966  3                          IF    ~UNETFNOECHO,'TSEG X"0D0A"'  Echo CR LF locally
 00186A 4110 7682/4100_      01CFA 16004  3                          SETMSG X'0D0A'             Assume "outdata=crlf"
 001872 9501 6166/4770_00166       16008  3                          IF    UNETINFLF,'SETMSG X"0A"'  Just LF if "outdata=lf"
 001882                            16032  2                        END
                                   16036  2
 001882 720E/47F0 7220 01882 0184E 16037  2                        ELSE  BEGIN               Not a CR...
 001886 9180 6165/4710_00165       16048  3                          IF    ~UNETFNOECHO,'TSEG (R1),(R0)'  Echo data locally
 001898                            16092  2                        END
                                   16096  2
 001898 41F0 610C/58E0_      0010C 16097  2                        SEG   (R1),(R0)           Seg data
                                   16120  2
 0018A2 4140 4001            00001 16121  2                        LA    R4,@R4+1            Next character
 0018A6 0630                       16122  2                        DECR  R3
 0018A8 1233/47D0 723A             16124  2                        IF    (R3,NP),EXIT        All done, scram
 0018AE 47F0 7188            01800 16141  1                      END
                                   16146  1
 0018B2 1B00/41F0 610C_            16147  1                      SEGWR
 0018BE 94BF 6104      00104       16171  1                      CLEAR UNETFNOXL           Reset
 0018C2                            16178                       END
                                   16182
 0018C2 47F0 7004            0167C 16183                       B     CHARLP              Loop back
                                   16184
 0018C6 18D8/9828 D004_            16185              CTKEXIT  PEND
 DROP   NTKWA,R5
 DROP   UNET,R6
 DROP   *,R7
1NPAT     (NPAT2193) (12:50) (15MAR04) Network Interface Routines                                                           Page   51
0Current Usings:  (CP,R11) (CV,R12)
0Loc    Object Code    Addr1 Addr2  Stmt Lv Lineno    Source Statement           (Hibal 5, Asmedit 3.3)  HLASM R4.0  2004/03/15 12.50
+___    ______ ____    _____ _____  ____ __ ______    ______ _________
0                                  16217              ¿þþþþþþþþþþþþþþþþþþþþþþþþþþþþþþþþþþþþþþþþþþþþþþþþþþþþþþþþþþþþþþþþþþþþþÜ
                                   16218              Ÿ                                                                     Ÿ
                                   16219              Ÿ  VTAMTALK -- Local routine to do "half duplex" style                Ÿ
                                   16220              Ÿ    character at a time I/O.                                         Ÿ
                                   16221              Ÿ                                                                     Ÿ
                                   16222              Ÿ    The best we can do is have the user press ATTN any time          Ÿ
                                   16223              Ÿ    before he wants to enter terminal input.                         Ÿ
                                   16224              Ÿ                                                                     Ÿ
                                   16225              Ÿ    On exit, R15 (and cc):                                           Ÿ
                                   16226              Ÿ      1 - done talking;  R1,R0 = error msg loc, len                  Ÿ
                                   16227              Ÿ                                                                     Ÿ
                                                      ¾þþþþþþþþþþþþþþþþþþþþþþþþþþþþþþþþþþþþþþþþþþþþþþþþþþþþþþþþþþþþþþþþþþþþþ»
00018D4 50E0 D000/9028_      00000 16228              VTAMTALK PROC  (R2,LSR)
 USING  *,R7
 USING  UNET,R6                    16267                       WITH  (UNET,R6),(NTKWA,R5)
 USING  NTKWA,R5
 0018EE 94BF 602C      0002C       16290                       CLEAR UNETFNOWAIT         Force wait on READDATA
                                   16297                       ¿þþþþþþþþþþþþþþþþþþþþþþþþþþþþþþþþþþþÜ
                                   16298                       Ÿ  Talk loop for half-duplex mode.  Ÿ
                                   16299                       ¾þþþþþþþþþþþþþþþþþþþþþþþþþþþþþþþþþþþ»
 0018F2 41F0 6000            00000 16300              HTKLOOP  LA    R15,UNET
 0018F6 58E0 73EA/0DEE       01CD8 16301                       ACALL READDATA            Get input data
 0018FC 4780 703A            01928 16305                       IF    NZ,BEGIN            No data or end of file...
 001900 D503 73F6 1000_01CE4 00000 16316  1                      IF    (@R1,EQ,'ATTN'),HTKREAD  ATTN means read for terminal
 00190A D506 741C 1000_01D0A 00000 16335  1                      IF    (@R1,NE,'NO DATA'),HTKEXIT   End of file, etc.
 001914 9110 5000/47E0_00000       16354  1                      IF    NTKFNOWAIT,'LA R15,1; B HTKEXIT'  Return if no wait
 001924 1B11/1B00                  16376  1                      CLEAR R1,R0               No data
 001928                            16382                       END
                                   16386                       ¿þþþþþþþþþþþþþþþþþþþþþþþþþþþþþþþþþþþþþþþþþþþþþþþþþþþþþÜ
                                   16387                       Ÿ  Save the data we received from the network in the  Ÿ
                                   16388                       Ÿ    working Active file (if one was specified).      Ÿ
                                   16389                       ¾þþþþþþþþþþþþþþþþþþþþþþþþþþþþþþþþþþþþþþþþþþþþþþþþþþþþþ»
 001928 9180 5000/47E0_00000       16390                       IF    NTKFACT,BEGIN       Save text in working Active...
 001930 41F0 5110            00110 16405  1                      LA    R15,NTKPUTCB
 001934 58E0 73D6/0DEE       01CC4 16406  1                      VCALL PUTBYTES            Save output text in Active file
 00193A                            16410                       END
                                   16414                       ¿þþþþþþþþþþþþþþþþþþþþþþþþþþþþþþþþþþþþþþþþþþþþþþþþþþþþþþþþþþþþþÜ
                                   16415                       Ÿ  Send exactly what we read from the network to the          Ÿ
                                   16416                       Ÿ    terminal.  The only thing special we need to do is look  Ÿ
                                   16417                       Ÿ    for their end of line character(s) and send a CR-LF to   Ÿ
                                   16418                       Ÿ    the terminal.                                            Ÿ
                                   16419                       ¾þþþþþþþþþþþþþþþþþþþþþþþþþþþþþþþþþþþþþþþþþþþþþþþþþþþþþþþþþþþþþ»
 00193A D20D 50FF BC7A 000FF 00C7A 16420                       MVC   NTKTRM,CPTRM        Save terminal options
                                   16421
 001940 1200/47D0 7160             16422                       IF    (R0,POS),BEGIN      We have some data to write...
                                   16436  1                      ¿þþþþþþþþþþþþþþþþÜ
                                   16437  1                      Ÿ  Outdata=CRLF  Ÿ
                                   16438  1                      ¾þþþþþþþþþþþþþþþþ»
 001946 9500 6167/4770_00167       16439  1                      IF    UNETOUTFCRLF,BEGIN  Outdata mode is CRLF...
 00194E 1841                       16454  2                        LR    R4,R1               Start of output data ptr
 001950 1830                       16455  2                        LR    R3,R0               Data length
                                   16456  2
 001952 1233/47D0 70EC             16457  2                        WHILE (R3,POS),BEGIN      Write the data...
1NPAT     (NPAT2193) (12:50) (15MAR04) Network Interface Routines                                                           Page   52
0Current Usings:  (NTKWA,R5) (UNET,R6) (*,R7) (CP,R11) (CV,R12)
0Loc    Object Code    Addr1 Addr2  Stmt Lv Lineno    Source Statement           (Hibal 5, Asmedit 3.3)  HLASM R4.0  2004/03/15 12.50
+___    ______ ____    _____ _____  ____ __ ______    ______ _________
0001958 1814                       16473  3                          LR    R1,R4
                                   16474  3         C                WHILE ((R3,POS),
                                          3         C                      AND,(@R4,NE,X'0D'),AND,(@R4,NE,X'8D')),
 00195A 1233/47D0 708C_                   3                                'DECR R3; LA R4,@R4+1'
 00197A 1804                       16527  3                          LR    R0,R4
 00197C 1B01                       16528  3                          SR    R0,R1               Length of text before CR
                                   16529  3
 00197E 58E0 73FA/0DEE       01CE8 16530  3                          VCALL TOEBC7              Convert ASCII-7 to EBCDIC
                                   16534  3
 001984 1233/4780 70DA             16535  3                          IF    (R3,NZ),BEGIN       Ended with CR...
 00198A 41F0 B050/58E0_      00050 16549  4                            TSEG  (R1),(R0)           Write what we have
 001994 4110 7425/4100_      01D13 16573  4                            TSEG  X'15'               NL
 0019A6 4140 4001            00001 16591  4                            LA    R4,@R4+1
 0019AA 0630                       16592  4                            DECR  R3
                                   16594  4
                                   16595  4         C                  IF    ((R3,POS),
                                          4         C                        AND,((@R4,EQ,X'0A'),OR,(@R4,EQ,X'8A'))),
 0019AC 1233/47D0 70DA_                   4                                  'LA R4,@R4+1; DECR R3'
 0019C8                            16647  3                          END
                                   16651  3
 0019C8 70DE/47F0 70E8_019C8 01988 16652  3                          ELSE  'TSEG (R1),(R0)'    Write final piece of text
 0019D6 47F0 7064            01952 16692  2                        END
 0019DA                            16697  1                      END
                                   16701  1                      ¿þþþþþþþþþþþþþþÜ
                                   16702  1                      Ÿ  Outdata=LF  Ÿ
                                   16703  1                      ¾þþþþþþþþþþþþþþ»
 0019DA 70F0/47F0 7160 019DA 0194C 16704  1                      ELSE  BEGIN               Outdata mode is LF...
 0019DE 1841                       16715  2                        LR    R4,R1               Start of output data ptr
 0019E0 1830                       16716  2                        LR    R3,R0               Data length
                                   16717  2
 0019E2 1233/47D0 7160             16718  2                        WHILE (R3,POS),BEGIN      Write the data...
 0019E8 1814                       16734  3                          LR    R1,R4
                                   16735  3         C                WHILE ((R3,POS),
                                          3         C                      AND,(@R4,NE,X'0A'),AND,(@R4,NE,X'8A')),
 0019EA 1233/47D0 711C_                   3                                'LA R4,@R4+1; DECR R3'
 001A0A 1804                       16788  3                          LR    R0,R4
 001A0C 1B01                       16789  3                          SR    R0,R1               Length of text before LF
                                   16790  3
 001A0E 58E0 73FA/0DEE       01CE8 16791  3                          VCALL TOEBC7              Convert ASCII-7 to EBCDIC
                                   16795  3
 001A14 1233/4780 714E             16796  3                          IF    (R3,NZ),BEGIN       Ended with LF...
 001A1A 41F0 B050/58E0_      00050 16810  4                            TSEG  (R1),(R0)           Write what we have
 001A24 4110 7425/4100_      01D13 16834  4                            TSEG  X'15'               NL
 001A36 4140 4001            00001 16852  4                            LA    R4,@R4+1
 001A3A 0630                       16853  4                            DECR  R3
 001A3C                            16855  3                          END
                                   16859  3
 001A3C 7152/47F0 715C_01A3C 01A18 16860  3                          ELSE  'TSEG (R1),(R0)'    Write final piece of text
 001A4A 47F0 70F4            019E2 16900  2                        END
 001A4E                            16905  1                      END
 001A4E                            16909                       END
1NPAT     (NPAT2193) (12:50) (15MAR04) Network Interface Routines                                                           Page   53
0Current Usings:  (NTKWA,R5) (UNET,R6) (*,R7) (CP,R11) (CV,R12)
0Loc    Object Code    Addr1 Addr2  Stmt Lv Lineno    Source Statement           (Hibal 5, Asmedit 3.3)  HLASM R4.0  2004/03/15 12.50
+___    ______ ____    _____ _____  ____ __ ______    ______ _________
0                                  16913                       ¿þþþþþþþþþþþþþþþþþþþþþþþþþþþþþþþþþþþþþþþþþþþþþþþþþþþþþþþþþþþÜ
                                   16914                       Ÿ  Write whatever we got from the network to the terminal.  Ÿ
                                   16915                       ¾þþþþþþþþþþþþþþþþþþþþþþþþþþþþþþþþþþþþþþþþþþþþþþþþþþþþþþþþþþþ»
 001A4E 41F0 B050/58E0_      00050 16916                       TMARK
 001A58 1B00/41F0 B050_            16930                       TWRITE
                                   16955
 001A64 D20D BC7A 50FF 00C7A 000FF 16956                       MVC   CPTRM,NTKTRM        Restore terminal I/O options
 001A6A 47F0 7004            018F2 16957                       B     HTKLOOP             Loop back
                                   16958                       ¿þþþþþþþþþþþþþþþþþþþþþþþþþþþþþþþþþþþþþþþþþþþþþþþþþþþþþþþþþþþÜ
                                   16959                       Ÿ  Do terminal read.                                        Ÿ
                                   16960                       Ÿ                                                           Ÿ
                                   16961                       Ÿ  We use a maximum input count of 80 characters to try to  Ÿ
                                   16962                       Ÿ  avoid the MILTEN/VTAM code from blanking out more text   Ÿ
                                   16963                       Ÿ  that it needs to.                                        Ÿ
                                   16964                       ¾þþþþþþþþþþþþþþþþþþþþþþþþþþþþþþþþþþþþþþþþþþþþþþþþþþþþþþþþþþþ»
 001A6E D201 BC80 7414 00C80 01D02 16965              HTKREAD  MVC   CPTRMIN,=H'80'      Shorten max input count
 001A74 4110 7426/4100_      01D14 16966                       TREAD X'2F'               Prompt with BELL
 001A84 D701 BC80 BC80 00C80 00C80 16980                       CLEAR CPTRMIN
                                   16987
 001A8A D20D BC7A 50FF 00C7A 000FF 16988                       MVC   CPTRM,NTKTRM        Restore terminal options
 001A90 12FF                       16989                       LTR   R15,R15             Test TREAD return code
 001A92 4740 7224            01B12 16990                       BM    HTKEXIT             Logging off
 001A96 47D0 71BC            01AAA 16991                       IF    POS,BEGIN           Attn or interrupt...
 001A9A 9640 5000      00000       17002  1                      SET   NTKFATTN            Read ended with ATTN
 001A9E 5820 C1C8            001C8 17008  1                      L     R2,CVCURJCB
 001AA2 94FD 2062/94F7_00062       17009  1                      WITH  (JCB,R2),'CLEAR JCBFATTN,JCBFPATN'  Don't EXEC BREAK
 USING  JCB,R2
 DROP   JCB,R2
 001AAA                            17044                       END
                                   17048
 001AAA 1200/47D0 7208             17049                       IF    (R0,POS),BEGIN      Terminal chars to send...
 001AB0 9640 6104      00104       17063  1                      SET   UNETFNOXL           We want to send ASCII data
                                   17069  1
 001AB4 58E0 73D2/0DEE       01CC0 17070  1                      VCALL TOASCII             Convert text to ASCII
 001ABA 41F0 610C/58E0_      0010C 17074  1                      SEG   (R1),(R0)           Data
 001AC4 4110 740C/4100_      01CFA 17097  1                      SETMSG X'0D0A'             Assume "outdata=crlf"
 001ACC 9501 6166/4770_00166       17101  1                      IF    UNETINFLF,'SETMSG X"0A"'  Just LF if "outdata=lf"
 001ADC 41F0 610C/58E0_      0010C 17125  1                      SEG   (R1),(R0)           CR
 001AE6 1B00/41F0 610C_            17148  1                      SEGWR
                                   17172  1
 001AF2 94BF 6104      00104       17173  1                      CLEAR UNETFNOXL           Reset
 001AF6                            17180                       END
                                   17184
 001AF6 9140 5000/47E0_00000       17185                       IF    NTKFATTN,'SETMSG "ATTN"; LA R15,1; B HTKEXIT'
 001B0E 47F0 7004            018F2 17211                       B     HTKLOOP             Loop back
                                   17212
 001B12 18D8/9828 D004_            17213              HTKEXIT  PEND
 DROP   NTKWA,R5
 DROP   UNET,R6
 DROP   *,R7
1NPAT     (NPAT2193) (12:50) (15MAR04) Network Interface Routines                                                           Page   54
0Current Usings:  (CP,R11) (CV,R12)
0Loc    Object Code    Addr1 Addr2  Stmt Lv Lineno    Source Statement           (Hibal 5, Asmedit 3.3)  HLASM R4.0  2004/03/15 12.50
+___    ______ ____    _____ _____  ____ __ ______    ______ _________
0                                  17245              ¿þþþþþþþþþþþþþþþþþþþþþþþþþþþþþþþþþþþþþþþþþþþþþþþþþþþþþþþþþþþþþþþþþþþþþÜ
                                   17246              Ÿ                                                                     Ÿ
                                   17247              Ÿ  LINETALK -- Local routine to do output only.                       Ÿ
                                   17248              Ÿ                                                                     Ÿ
                                   17249              Ÿ    On exit, R15 (and cc):                                           Ÿ
                                   17250              Ÿ      1 - done talking;  R1,R0 = error msg loc, len                  Ÿ
                                   17251              Ÿ                                                                     Ÿ
                                                      ¾þþþþþþþþþþþþþþþþþþþþþþþþþþþþþþþþþþþþþþþþþþþþþþþþþþþþþþþþþþþþþþþþþþþþþ»
0001B20 50E0 D000/9028_      00000 17252              LINETALK PROC  (R2,LSR)
 USING  *,R7
 USING  UNET,R6                    17291                       WITH  (UNET,R6),(NTKWA,R5)
 USING  NTKWA,R5
 001B3A 94BF 602C      0002C       17314                       CLEAR UNETFNOWAIT         Force wait on READDATA
                                   17321                       ¿þþþþþþþþþþþþþþþþþþþþþþþþþþþþÜ
                                   17322                       Ÿ  Talk loop for line mode.  Ÿ
                                   17323                       ¾þþþþþþþþþþþþþþþþþþþþþþþþþþþþ»
 001B3E 41F0 6000            00000 17324              LTKLOOP  LA    R15,UNET
 001B42 58E0 719E/0DEE       01CD8 17325                       ACALL READDATA            Get input data
 001B48 4780 7030            01B6A 17329                       IF    NZ,BEGIN            No data or end of file...
 001B4C D506 71D0 1000_01D0A 00000 17340  1                      IF    (@R1,NE,'NO DATA'),LTKEXIT   End of file, etc.
 001B56 9110 5000/47E0_00000       17359  1                      IF    NTKFNOWAIT,'LA R15,1; B LTKEXIT'  Return if no wait
 001B66 1B11/1B00                  17381  1                      CLEAR R1,R0               No data
 001B6A                            17387                       END
                                   17391                       ¿þþþþþþþþþþþþþþþþþþþþþþþþþþþþþþþþþþþþþþþþþþþþþþþþþþþþþÜ
                                   17392                       Ÿ  Save the data we received from the network in the  Ÿ
                                   17393                       Ÿ    working Active file (if one was specified).      Ÿ
                                   17394                       ¾þþþþþþþþþþþþþþþþþþþþþþþþþþþþþþþþþþþþþþþþþþþþþþþþþþþþþ»
 001B6A 9180 5000/47E0_00000       17395                       IF    NTKFACT,BEGIN       Save text in working Active...
 001B72 41F0 5110            00110 17410  1                      LA    R15,NTKPUTCB
 001B76 58E0 718A/0DEE       01CC4 17411  1                      VCALL PUTBYTES            Save output text in Active file
 001B7C                            17415                       END
                                   17419                       ¿þþþþþþþþþþþþþþþþþþþþþþþþþþþþþþþþþþþþþþþþþþþþþþþþþþþþþþþþþþþþþÜ
                                   17420                       Ÿ  Send exactly what we read from the network to the          Ÿ
                                   17421                       Ÿ    terminal.  The only thing special we need to do is look  Ÿ
                                   17422                       Ÿ    for their end of line character(s) and send a CR-LF to   Ÿ
                                   17423                       Ÿ    the terminal.                                            Ÿ
                                   17424                       ¾þþþþþþþþþþþþþþþþþþþþþþþþþþþþþþþþþþþþþþþþþþþþþþþþþþþþþþþþþþþþþ»
 001B7C D20D 50FF BC7A 000FF 00C7A 17425                       MVC   NTKTRM,CPTRM        Save terminal options
                                   17426
 001B82 1200/47D0 713E             17427                       IF    (R0,POS),BEGIN      We have some data to write...
                                   17441  1                      ¿þþþþþþþþþþþþþþþþÜ
                                   17442  1                      Ÿ  Outdata=CRLF  Ÿ
                                   17443  1                      ¾þþþþþþþþþþþþþþþþ»
 001B88 9500 6167/4770_00167       17444  1                      IF    UNETOUTFCRLF,BEGIN  Outdata mode is CRLF...
 001B90 1841                       17459  2                        LR    R4,R1               Start of output data ptr
 001B92 1830                       17460  2                        LR    R3,R0               Data length
                                   17461  2
 001B94 1233/47D0 70D2             17462  2                        WHILE (R3,POS),BEGIN      Write the data...
 001B9A 1814                       17478  3                          LR    R1,R4
 001B9C 1233/47D0 707A_            17479  3                          WHILE ((R3,POS),AND,(@R4,NE,X'0D')),'DECR R3; LA R4,@R4+1'
 001BB4 1804                       17519  3                          LR    R0,R4
 001BB6 1B01                       17520  3                          SR    R0,R1               Length of text before CR
                                   17521  3
1NPAT     (NPAT2193) (12:50) (15MAR04) Network Interface Routines                                                           Page   55
0Current Usings:  (NTKWA,R5) (UNET,R6) (*,R7) (CP,R11) (CV,R12)
0Loc    Object Code    Addr1 Addr2  Stmt Lv Lineno    Source Statement           (Hibal 5, Asmedit 3.3)  HLASM R4.0  2004/03/15 12.50
+___    ______ ____    _____ _____  ____ __ ______    ______ _________
0001BB8 58E0 71AE/0DEE       01CE8 17522  3                          VCALL TOEBC7              Convert ASCII-7 to EBCDIC
                                   17526  3
 001BBE 1233/4780 70C0             17527  3                          IF    (R3,NZ),BEGIN       Ended with CR...
 001BC4 41F0 B050/58E0_      00050 17541  4                            TSEG  (R1),(R0)           Write what we have
 001BCE 4110 71D9/4100_      01D13 17565  4                            TSEG  X'15'               NL
 001BE0 4140 4001            00001 17583  4                            LA    R4,@R4+1
 001BE4 0630                       17584  4                            DECR  R3
                                   17586  4
 001BE6 1233/47D0 70C0_            17587  4                            IF    ((R3,POS),AND,(@R4,EQ,X'0A')),'LA R4,@R4+1; DECR R3'
 001BFA                            17624  3                          END
                                   17628  3
 001BFA 70C4/47F0 70CE_01BFA 01BC2 17629  3                          ELSE  'TSEG (R1),(R0)'    Write final piece of text
 001C08 47F0 705A            01B94 17669  2                        END
 001C0C                            17674  1                      END
                                   17678  1                      ¿þþþþþþþþþþþþþþÜ
                                   17679  1                      Ÿ  Outdata=LF  Ÿ
                                   17680  1                      ¾þþþþþþþþþþþþþþ»
 001C0C 70D6/47F0 713E 01C0C 01B8E 17681  1                      ELSE  BEGIN               Outdata mode is LF...
 001C10 1841                       17692  2                        LR    R4,R1               Start of output data ptr
 001C12 1830                       17693  2                        LR    R3,R0               Data length
                                   17694  2
 001C14 1233/47D0 713E             17695  2                        WHILE (R3,POS),BEGIN      Write the data...
 001C1A 1814                       17711  3                          LR    R1,R4
 001C1C 1233/47D0 70FA_            17712  3                          WHILE ((R3,POS),AND,(@R4,NE,X'0A')),'LA R4,@R4+1; DECR R3'
 001C34 1804                       17752  3                          LR    R0,R4
 001C36 1B01                       17753  3                          SR    R0,R1               Length of text before LF
                                   17754  3
 001C38 58E0 71AE/0DEE       01CE8 17755  3                          VCALL TOEBC7              Convert ASCII-7 to EBCDIC
                                   17759  3
 001C3E 1233/4780 712C             17760  3                          IF    (R3,NZ),BEGIN       Ended with LF...
 001C44 41F0 B050/58E0_      00050 17774  4                            TSEG  (R1),(R0)           Write what we have
 001C4E 4110 71D9/4100_      01D13 17798  4                            TSEG  X'15'               NL
 001C60 4140 4001            00001 17816  4                            LA    R4,@R4+1
 001C64 0630                       17817  4                            DECR  R3
 001C66                            17819  3                          END
                                   17823  3
 001C66 7130/47F0 713A_01C66 01C42 17824  3                          ELSE  'TSEG (R1),(R0)'    Write final piece of text
 001C74 47F0 70DA            01C14 17864  2                        END
 001C78                            17869  1                      END
 001C78                            17873                       END
                                   17877                       ¿þþþþþþþþþþþþþþþþþþþþþþþþþþþþþþþþþþþþþþþþþþþþþþþþþþþþþþþþþþþÜ
                                   17878                       Ÿ  Write whatever we got from the network to the terminal.  Ÿ
                                   17879                       ¾þþþþþþþþþþþþþþþþþþþþþþþþþþþþþþþþþþþþþþþþþþþþþþþþþþþþþþþþþþþ»
 001C78 41F0 B050/58E0_      00050 17880                       TMARK
 001C82 1B00/41F0 B050_            17894                       TWRITE
                                   17919
 001C8E D20D BC7A 50FF 00C7A 000FF 17920                       MVC   CPTRM,NTKTRM        Restore terminal I/O options
 001C94 47F0 7004            01B3E 17921                       B     LTKLOOP             Loop back
                                   17922
 001C98 18D8/9828 D004_            17923              LTKEXIT  PEND
 DROP   NTKWA,R5
 DROP   UNET,R6
 DROP   *,R7
                                   17954
1NPAT     (NPAT2193) (12:50) (15MAR04) Network Interface Routines                                                           Page   56
0Current Usings:  (CP,R11) (CV,R12)
0Loc    Object Code    Addr1 Addr2  Stmt Lv Lineno    Source Statement           (Hibal 5, Asmedit 3.3)  HLASM R4.0  2004/03/15 12.50
+___    ______ ____    _____ _____  ____ __ ______    ______ _________
0                                  17955                       QLTORG
1NPAT     (NPAT2193) (12:50) (15MAR04) Network Interface Routines                                                           Page   57
0Current Usings:  (CP,R11) (CV,R12)
0Loc    Object Code    Addr1 Addr2  Stmt Lv Lineno    Source Statement           (Hibal 5, Asmedit 3.3)  HLASM R4.0  2004/03/15 12.50
+___    ______ ____    _____ _____  ____ __ ______    ______ _________
0                                  18002              ¿þþþþþþþþþþþþþþþþþþþþþþþþþþþþþþþþþþþþþþþþþþþþþþþþþþþþþþþþþþþþþþþþþþþþþÜ
                                   18003              Ÿ                                                                     Ÿ
                                   18004              Ÿ  NPATVIEW -- Routine to do combined terminal and network I/O        Ÿ
                                   18005              Ÿ    in full screen mode.  This is primarily for VTAM 3270 style      Ÿ
                                   18006              Ÿ    terminals (for TELNET support).                                  Ÿ
                                   18007              Ÿ                                                                     Ÿ
                                   18008              Ÿ    On entry:                                                        Ÿ
                                   18009              Ÿ      R0  - working active file number (0=none)                      Ÿ
                                   18010              Ÿ      R1  - option string:                                           Ÿ
                                   18011              Ÿ              ....    - Reserved                                     Ÿ
                                   18012              Ÿ      R15 - UNET ptr                                                 Ÿ
                                   18013              Ÿ                                                                     Ÿ
                                   18014              Ÿ    On exit, R15 (and cc):                                           Ÿ
                                   18015              Ÿ      0  - OK                                                        Ÿ
                                   18016              Ÿ      nz - some sort of error                                        Ÿ
                                   18017              Ÿ      R1,R0 - error msg loc,len                                      Ÿ
                                   18018              Ÿ                                                                     Ÿ
                                                      ¾þþþþþþþþþþþþþþþþþþþþþþþþþþþþþþþþþþþþþþþþþþþþþþþþþþþþþþþþþþþþþþþþþþþþþ»
0000000                00000 00414 18019              NVWWA    RECORD BEGIN
 000000 00                         18027  1           NVWFLAG    FLAG
 NVWFLAG.NVWFATTN  80 ONES         18031  1                      FLAG  NVWFATTN            - Read ended with ATTN
 NVWFLAG.NVWFNOWAI 40 ONES         18036  1                      FLAG  NVWFNOWAIT          - No wait mode
 NVWFLAG.NVWFPRESE 20 ONES         18041  1                      FLAG  NVWFPRESERVE        - Preserve input text
 NVWFLAG.NVWFSECUR 10 ONES         18046  1                      FLAG  NVWFSECURE          - Secure input mode
                                   18051  1
 000004                            18052  1           NVWOLDA    DS    F                   Original active file number
                                   18053  1
 000008                            18054  1           NVWSAVE    DS    3A                  Register save area
 000014                            18055  1           NVWPTRS    DS    2A                  Saved input text ptrs
                                   18056  1
                                   18057  1           NVWWORKL   DS    CL(&LINESZ)         Working line text
 00001C                                   1          +NVWWORKL   DS    CL(235)             Working line text
                                   18058  1
 000107                            18059  1           NVWTRM     DS    CL(L'CPTRM)         Saved terminal options
                                   18060  1
                                   18061  1           NVWPUTCB   PUTCB PFX=NVW             PUTBYTES options
                                   18062+ 1          +           ¿þþþþþþþþþþþþþþþþþþþþþþþþþþþþþþþþþþþþþþþþþþþþÜ
                                   18063+ 1          +           Ÿ  PUTBYTES Control Block (see ACT module).  Ÿ
                                   18064+ 1          +           ¾þþþþþþþþþþþþþþþþþþþþþþþþþþþþþþþþþþþþþþþþþþþþ»
 000118 00                         18065  1 01-PUTCB +NVWSTART     DS  0F
 NVWFL.NVWFTRAN    80 ONES
 NVWFL.NVWFWRAP    40 ONES
 NVWFL.NVWFNECHO   20 ONES
 NVWFL.NVWFTABS    10 ONES
 NVWFL.NVWFSTOP    08 ONES
 000119 00                         18095  1          +*
 NVWFL2.NVWFGOTCR  80 ONES
 NVWFL2.NVWFACTCT  40 ONES
                                   18110  1          +*
 00011A                            18111  1 01-PUTCB +NVWMAXLN     DS  H                   Max line length
                                   18112  1          +
 00011C                            18113  1 01-PUTCB +NVWCOUNT     DS  F                   Max number of lines to add
 000120                            18114  1 01-PUTCB +NVWLNO       DS  F                   Current line-number
1NPAT     (NPAT2193) (12:50) (15MAR04) Network Interface Routines                                                           Page   58
0Current Usings:  (CP,R11) (CV,R12)
0Loc    Object Code    Addr1 Addr2  Stmt Lv Lineno    Source Statement           (Hibal 5, Asmedit 3.3)  HLASM R4.0  2004/03/15 12.50
+___    ______ ____    _____ _____  ____ __ ______    ______ _________
0                                  18115  1          +
 000124                            18116  1 01-PUTCB +NVWSTLEN     DS  H                   Stop text length
 000126                            18117  1 01-PUTCB +NVWSTOP      DS  CL(235)             Stop text
                                   18118  1          +
 000212                            18119  1 01-PUTCB +NVWRESLN     DS  H                   Current residual buffer length
 000214                            18120  1 01-PUTCB +NVWRESBF     DS  XL512               Residual buffer data saved here
                                   18121  1          +
                                   18122  1 01-PUTCB +NVWPUTCB   EQU   NVWSTART,*-NVWSTART,C'X'
 000414                00414 00414 18123                       END
                                   18132              þþþþ
 001D16 50E0 D000/9028_      00000 18133              NPATVIEW XPROC (R2,LSR),NVWWA
 USING  *,R7
 USING  NVWWA-(4+28),R8
 001D30 186F                       18183                       LR    R6,R15
 USING  UNET,R6                    18184                       WITH  (UNET,R6)
 001D32 D503 7430 6000_02160 00000 18197                       FAIL  (UNET,NE,'UNET'),NPATTALK,'Bad UNET ptr'
                                   18226
 001D54 4150 8020            00000 18227                       LA    R5,NVWWA
 USING  NVWWA,R5                   18228                       WITH  (NVWWA,R5)
                                   18241
 001D58 1820                       18242                       LR    R2,R0               Save actno
 001D5A 1831                       18243                       LR    R3,R1               Option string ptr
 001D5C 18E5/41F0 0414_            18244                       ZOT   NVWWA
                                   18261
 001D66 9140 602C/47E0_0002C       18262                       IF    UNETFNOWAIT,'SET NVWFNOWAIT'  No wait mode
                                   18288
                                   18289                       SEGDEF UNETOUTSG
                                   18290                       ¿þþþþþþþþþþþþþþþþþþþþþþþþþþþþþþþþþþþþþþþþþÜ
                                   18291                       Ÿ  Switch in to the working Active file.  Ÿ
                                   18292                       ¾þþþþþþþþþþþþþþþþþþþþþþþþþþþþþþþþþþþþþþþþþ»
 001D72 12F2                       18293                       LTR   R15,R2              Actno
 001D74 58E0 7434/0DEE       02164 18294                       VCALL ACTPICK             Pick it
 001D7A 50F0 5004            00004 18298                       ST    R15,NVWOLDA         Save original Active file no
                                   18299                       ¿þþþþþþþþþþþþþþþþþþþþþþþþþþþþþþþþþþþþþþþþþþþþþþþþþþþþþþþþþþþþþþþÜ
                                   18300                       Ÿ  Get any old prompt from the working Active file.             Ÿ
                                   18301                       Ÿ    If the line ends with our "[]" characters it is a prompt.  Ÿ
                                   18302                       ¾þþþþþþþþþþþþþþþþþþþþþþþþþþþþþþþþþþþþþþþþþþþþþþþþþþþþþþþþþþþþþþþ»
 001D7E 58F0 B5A4            005A4 18303                       L     R15,CPALLNO         Last lineno
 001D82 4110 501C/4100_      0001C 18304                       SETMSG NVWWORKL            Prompt line area
 001D8A 58E0 7438/0DEE       02168 18318                       VCALL GETLINE             Get last line
                                   18322
 001D90 5900 743C/4750_      0216C 18323                       IF    (R0,GE,2),BEGIN     Check for our ending chars...
 001D98 1821                       18340  1                      LR    R2,R1
 001D9A 1A20                       18341  1                      AR    R2,R0
 001D9C 4B20 7490            021C0 18342  1                      SH    R2,=H'2'
 001DA0 D501 7492 2000_021C2 00000 18343  1                      IF    (@R2,EQ,'[]'),BEGIN  It's our prompt...
 001DAA 4B00 7490            021C0 18359  2                        SH    R0,=H'2'            Deduct length of "[]" chars
 001DAE 1820                       18360  2                        LR    R2,R0               Save true line length
                                   18361  2
 001DB0 5800 B5A4            005A4 18362  2                        L     R0,CPALLNO          First line to delete
 001DB4 1810                       18363  2                        LR    R1,R0               Last line to delete
 001DB6 58E0 7440/0DEE       02170 18364  2                        VCALL DELRANGE            Delete the line
                                   18368  2
 001DBC 4110 501C/1802       0001C 18369  2                        SETMSG NVWWORKL,(R2)       Prompt text
1NPAT     (NPAT2193) (12:50) (15MAR04) Network Interface Routines                                                           Page   59
0Current Usings:  (NVWWA,R5) (UNET,R6) (*,R7) (NVWWA-(4+28),R8) (CP,R11) (CV,R12)
0Loc    Object Code    Addr1 Addr2  Stmt Lv Lineno    Source Statement           (Hibal 5, Asmedit 3.3)  HLASM R4.0  2004/03/15 12.50
+___    ______ ____    _____ _____  ____ __ ______    ______ _________
0001DC2 58E0 7444/0DEE       02174 18383  2                        VCALL TOASCII             Convert EBCDIC to ASCII
 001DC8 41F0 5118            00118 18387  2                        LA    R15,NVWPUTCB
 001DCC 58E0 7448/0DEE       02178 18388  2                        VCALL PUTBYTES            Save prompt text in Active file
 001DD2                            18392  1                      END
 001DD2                            18396                       END
                                   18400                       ¿þþþþþþþþþþþþþþþþþþþþþþþþþþþþþþþþþþþþþþÜ
                                   18401                       Ÿ  Send initial Telnet IAC sequences.  Ÿ
                                   18402                       ¾þþþþþþþþþþþþþþþþþþþþþþþþþþþþþþþþþþþþþþ»
 001DD2 9140 6163/4710_00163       18403                       IF    ~UNETFIACSENT,BEGIN  Initial IACs not yet sent...
 001DDA 9640 6163      00163       18418  1                      SET   UNETFIACSENT        Only go through this the 1st time
 001DDE 9180 6163/47E0_00163       18424  1                      IF    ~UNETFIAC,EXIT      Don't send telnet IACs, scram
                                   18442  1
 001DE6 9640 6104      00104       18443  1                      SET   UNETFNOXL
 001DEA 4110 7494/4100_      021C4 18449  1                      SEG   LA:=AL1($IAC,$DO,$SGA,$IAC,$WILL,$SGA),6
 001DFC 4110 74A4/4100_      021D4 18476  1                      SEG   LA:=AL1($IAC,$DO,$ECHO),3
                                   18503  1
 001E0E 4110 74A7/4100_      021D7 18504  1                      SEG   LA:=AL1($IAC,$WILL,$TTYPE),3  We will answer ttype
                                   18531  1
 001E20 1B00/41F0 610C_            18532  1                      SEGWR
 001E2C 94BF 6104      00104       18556  1                      CLEAR UNETFNOXL
 001E30                            18563                       END
                                   18567
 001E30 4DE0 7150            01E80 18568                       LCALL VTAMVIEW            Do it
                                   18570
 001E34 90F1 5008            00008 18571                       STM   R15,R1,NVWSAVE      Save return regs
                                   18572                       ¿þþþþþþþþþþþþþþþþþþþþþþþþþþþþþþþþþþþþþþþþþþþþþþþþþþþþþþþþþþÜ
                                   18573                       Ÿ  If we have a working Active file then save the last     Ÿ
                                   18574                       Ÿ    partial line (a prompt probably) in the Active file.  Ÿ
                                   18575                       ¾þþþþþþþþþþþþþþþþþþþþþþþþþþþþþþþþþþþþþþþþþþþþþþþþþþþþþþþþþþ»
 001E38 4110 749A/4100_      021CA 18576                       SETMSG X'5B5D'             Ascii "[]"
 001E40 41F0 5118            00118 18580                       LA    R15,NVWPUTCB
 001E44 58E0 7448/0DEE       02178 18581                       VCALL PUTBYTES            Add prompt suffix
                                   18585
 001E4A 4800 749C            021CC 18586                       LH    R0,=H'-1'
 001E4E 41F0 5118            00118 18587                       LA    R15,NVWPUTCB
 001E52 58E0 7448/0DEE       02178 18588                       VCALL PUTBYTES            Flush buffer
                                   18592
 001E58 58F0 5004            00004 18593                       L     R15,NVWOLDA
 001E5C 58E0 7434/0DEE       02164 18594                       VCALL ACTPICK             Restore current Active file
                                   18598
 001E62 9140 5000/4710_00000       18599                       IF    ~NVWFNOWAIT,'CLEAR UNETFNOWAIT'  Restore path wait
                                   18626
 001E6E 98F1 5008            00008 18627                       LM    R15,R1,NVWSAVE      Restore regs
                                   18628
 001E72 18D8/9828 D004_            18629              NVWEXIT  PEND
 DROP   NVWWA,R5
 DROP   UNET,R6
 DROP   NVWWA-(4+28),R8
 DROP   *,R7
1NPAT     (NPAT2193) (12:50) (15MAR04) Network Interface Routines                                                           Page   60
0Current Usings:  (CP,R11) (CV,R12)
0Loc    Object Code    Addr1 Addr2  Stmt Lv Lineno    Source Statement           (Hibal 5, Asmedit 3.3)  HLASM R4.0  2004/03/15 12.50
+___    ______ ____    _____ _____  ____ __ ______    ______ _________
0                                  18666              ¿þþþþþþþþþþþþþþþþþþþþþþþþþþþþþþþþþþþþþþþþþþþþþþþþþþþþþþþþþþþþþþþþþþþþþÜ
                                   18667              Ÿ                                                                     Ÿ
                                   18668              Ÿ  VTAMVIEW -- Local routine to do full screen telnet for VTAM        Ÿ
                                   18669              Ÿ    terminals.                                                       Ÿ
                                   18670              Ÿ                                                                     Ÿ
                                   18671              Ÿ    Anything typed at the terminal is send across the                Ÿ
                                   18672              Ÿ    network path and anything sent across the network path is        Ÿ
                                   18673              Ÿ    typed at the terminal.                                           Ÿ
                                   18674              Ÿ                                                                     Ÿ
                                   18675              Ÿ    On exit, R15 (and cc):                                           Ÿ
                                   18676              Ÿ      1 - done talking;  R1,R0 = error msg loc, len                  Ÿ
                                   18677              Ÿ                                                                     Ÿ
                                                      ¾þþþþþþþþþþþþþþþþþþþþþþþþþþþþþþþþþþþþþþþþþþþþþþþþþþþþþþþþþþþþþþþþþþþþþ»
0001E80 50E0 D000/9028_      00000 18678              VTAMVIEW PROC  (R2,LSR)
 USING  *,R7
 USING  UNET,R6                    18717                       WITH  (UNET,R6),(NVWWA,R5)
 USING  NVWWA,R5
                                   18740                       ¿þþþþþþþþþþþþþþþþþþþþþþþþþþþþþþþþþþþþþþþþþþþþþþþþþþþþþþþÜ
                                   18741                       Ÿ  Do first time initialization of screen information.  Ÿ
                                   18742                       ¾þþþþþþþþþþþþþþþþþþþþþþþþþþþþþþþþþþþþþþþþþþþþþþþþþþþþþþþ»
 001E9A D601 621E 621E_0021E 0021E 18743                       IF    (UNETVHEI,Z),BEGIN  Initialize display info...
 001EA4 48F0 B41C/12FF       0041C 18759  1                      LTH   R15,CPSHEI          Get session default height
 001EAA 4770 7018/41F0_      01EB2 18763  1                      IF    Z,'LA R15,24'       Universal default
 001EB2 59F0 72EA/47B0_      02184 18780  1                      FLOOR R15,10              (Be reasonable)
 001EBE 40F0 621E            0021E 18799  1                      STH   R15,UNETVHEI        Save number of lines
 001EC2 4BF0 7334            021CE 18800  1                      SH    R15,=H'4'           Deduct number of control lines
 001EC6 40F0 6222            00222 18801  1                      STH   R15,UNETNTXT        Save numer of text lines
                                   18802  1
 001ECA 48F0 B418/12FF       00418 18803  1                      LTH   R15,CPSWID          Get session default width
 001ED0 4770 703E/41F0_      01ED8 18807  1                      IF    Z,'LA R15,80'       Universal default
 001ED8 59F0 72EE/47B0_      02188 18824  1                      FLOOR R15,50              (Be reasonable)
 001EE4 40F0 6220            00220 18843  1                      STH   R15,UNETVWID        Save screen width
                                   18844  1
 001EE8 D203 6254 72F2 00254 0218C 18845  1                      MVC   UNETFIXL,=F'-1000'  No fixed top lineno
 001EEE                            18846                       END
                                   18850                       ¿þþþþþþþþþþþþþþþþþþþþþþþþþþþþþþþþþþþþþþþÜ
                                   18851                       Ÿ  Write out initial formatted screen.  Ÿ
                                   18852                       ¾þþþþþþþþþþþþþþþþþþþþþþþþþþþþþþþþþþþþþþþ»
 001EEE 9610 BC7B      00C7B       18853                       SET   CPFDISP
 001EF2 4DE0 7348            021E2 18859                       LCALL VDFORMAT            Format full screen display
                                   18861                       ¿þþþþþþþþþþþþþþþþþþþþþþþþþþÜ
                                   18862                       Ÿ  Full screen talk loop.  Ÿ
                                   18863                       ¾þþþþþþþþþþþþþþþþþþþþþþþþþþ»
 001EF6 9640 602C      0002C       18864                       SET   UNETFNOWAIT         Force no wait on READDATA
                                   18870
 001EFA 41F0 6000            00000 18871              VVWLOOP  LA    R15,UNET
 001EFE 58E0 72F6/0DEE       02190 18872                       ACALL READDATA            Get input data
 001F04 4780 708C            01F26 18876                       IF    NZ,BEGIN            No data or end of file...
 001F08 D506 7340 1000_021DA 00000 18887  1                      IF    (@R1,NE,'NO DATA'),VVWEXIT   End of file, etc.
 001F12 9140 5000/47E0_00000       18906  1                      IF    NVWFNOWAIT,'LA R15,1; B VVWEXIT'  Return if no wait
 001F22 1B11/1B00                  18928  1                      CLEAR R1,R0               No data
 001F26                            18934                       END
1NPAT     (NPAT2193) (12:50) (15MAR04) Network Interface Routines                                                           Page   61
0Current Usings:  (NVWWA,R5) (UNET,R6) (*,R7) (CP,R11) (CV,R12)
0Loc    Object Code    Addr1 Addr2  Stmt Lv Lineno    Source Statement           (Hibal 5, Asmedit 3.3)  HLASM R4.0  2004/03/15 12.50
+___    ______ ____    _____ _____  ____ __ ______    ______ _________
0                                  18938                       ¿þþþþþþþþþþþþþþþþþþþþþþþþþþþþþþþþþþþþþþþþþþþþþþþþþþþþþÜ
                                   18939                       Ÿ  Save the data we received from the network in the  Ÿ
                                   18940                       Ÿ    working Active file.                             Ÿ
                                   18941                       ¾þþþþþþþþþþþþþþþþþþþþþþþþþþþþþþþþþþþþþþþþþþþþþþþþþþþþþ»
 001F26 41F0 5118            00118 18942                       LA    R15,NVWPUTCB
 001F2A 58E0 72DE/0DEE       02178 18943                       VCALL PUTBYTES            Save output text in Active file
                                   18947                       ¿þþþþþþþþþþþþþþþþþþþþþþþþþþþþþþþÜ
                                   18948                       Ÿ  Now update the screen text.  Ÿ
                                   18949                       ¾þþþþþþþþþþþþþþþþþþþþþþþþþþþþþþþ»
 001F30 4DE0 75CA            02464 18950                       LCALL VDWRITE             Write any text
                                   18952
 001F34 4DE0 794E            027E8 18953                       LCALL VDSTATUS            Update status line
                                   18955
                                   18956            C          IF    (((UNETBOTC,NZ),AND,~UNETFPFHIGH),
                                                    C                OR,((UNETBOTC,Z),AND,UNETFPFHIGH)),
 001F38 D603 6250 6250_00250 00250                                   'LCALL VDPFKS'      Re-display PF key line
                                   19022                       ¿þþþþþþþþþþþþþþþþþþþþþþþþþþþþþþþþþþþþþþÜ
                                   19023                       Ÿ  Do an interruptable terminal read.  Ÿ
                                   19024                       ¾þþþþþþþþþþþþþþþþþþþþþþþþþþþþþþþþþþþþþþ»
 001F60 4DE0 7BC6            02A60 19025                       LCALL VDREAD              Read
 001F64 4740 7230            020CA 19027                       BM    VVWEXIT             Logging off
 001F68 9001 5014            00014 19028                       STM   R0,R1,NVWPTRS       Save input text ptrs
                                   19029
 001F6C 12FF/4770 70FA             19030                       IF    (R15,Z),BEGIN       Normal completion...
 001F72 5820 6268/1222_      00268 19044  1                      IF    ('LT R2,UNETCURL',~NEG),BEGIN  Cursor on text line...
 001F7C 5020 6254            00254 19060  2                        ST    R2,UNETFIXL         Set new top line-number
 001F80 47F0 7060            01EFA 19061  2                        B     VVWLOOP
 001F84                            19062  1                      END
                                   19066  1                      ¿þþþþþþþþþþþþþþþþþþþþþþþþþþþþþþþþþþþþþþþþþþþþþþþþþþþþþþþþþþÜ
                                   19067  1                      Ÿ  Save last line-number when input is entered; then we    Ÿ
                                   19068  1                      Ÿ    will automatically pause if this line will be pushed  Ÿ
                                   19069  1                      Ÿ    off the top of the screen.                            Ÿ
                                   19070  1                      ¾þþþþþþþþþþþþþþþþþþþþþþþþþþþþþþþþþþþþþþþþþþþþþþþþþþþþþþþþþþ»
 001F84 94EF 5000      00000       19071  1                      CLEAR NVWFSECURE          Reset secure input mode
 001F88 D203 6264 B5A4 00264 005A4 19078  1                      MVC   UNETINPL,CPALLNO    Save last lineno
 001F8E D203 6254 72F2 00254 0218C 19079  1                      MVC   UNETFIXL,=F'-1000'  Reset scroll lock
 001F94                            19080                       END
                                   19084
 001F94 12FF/47D0 71E6             19085                       IF    (R15,POS),BEGIN     Attn, PF key...
 001F9A 59F0 72FA/4780_      02194 19099  1                      IF    (R15,EQ,101),VVWLOOP  Loop back
 001FA2 4110 72FE/4100_      02198 19119  1                      SETMSG 'ATTN'              Assume ATTN
                                   19123  1
 001FAA 59F0 7302/4770_      0219C 19124  1                      IF    (R15,EQ,161),BEGIN
 001FB2 58E0 7306/0DEE       021A0 19141  2                        ACALL VDFORMAT            We must re-do the formatting
 001FB8 58E0 730A/0DEE       021A4 19145  2                        ACALL VDCLEAR             Clear screen (more or less)
 001FBE 47F0 7060            01EFA 19149  2                        B     VVWLOOP
 001FC2                            19150  1                      END
                                   19154  1                      ¿þþþþþþþþþþþþþþþþþþþþþþþþþþþþþÜ
                                   19155  1                      Ÿ  Process built-in PF keys.  Ÿ
                                   19156  1                      ¾þþþþþþþþþþþþþþþþþþþþþþþþþþþþþ»
 001FC2 59F0 730E/4750_      021A8 19157  1                      IF    (R15,GE,200),BEGIN  PF key...
 001FCA 4BF0 7336            021D0 19174  2                        SH    R15,=H'200'         Get value between 0-x
 001FCE 47D0 71CC            02066 19175  2                        IF    POS,BEGIN           Check for built-in PFs...
 001FD2 49F0 623E/4770_      0023E 19186  3                          IF    (R15,EQ,UNETPRPF),BEGIN  Previous page...
1NPAT     (NPAT2193) (12:50) (15MAR04) Network Interface Routines                                                           Page   62
0Current Usings:  (NVWWA,R5) (UNET,R6) (*,R7) (CP,R11) (CV,R12)
0Loc    Object Code    Addr1 Addr2  Stmt Lv Lineno    Source Statement           (Hibal 5, Asmedit 3.3)  HLASM R4.0  2004/03/15 12.50
+___    ______ ____    _____ _____  ____ __ ______    ______ _________
0001FDA 58E0 7312/0DEE       021AC 19203  4                            ACALL VDPREV              Go back to previous page
 001FE0 9620 5000      00000       19207  4                            SET   NVWFPRESERVE        Preserve any input text
 001FE4 47F0 7060            01EFA 19213  4                            B     VVWLOOP
 001FE8                            19214  3                          END
                                   19218  3
 001FE8 49F0 6240/4770_      00240 19219  3                          IF    (R15,EQ,UNETNXPF),BEGIN  Next page...
 001FF0 58E0 7316/0DEE       021B0 19236  4                            ACALL VDNEXT              Go to next page
 001FF6 9620 5000      00000       19240  4                            SET   NVWFPRESERVE        Preserve any input text
 001FFA 47F0 7060            01EFA 19246  4                            B     VVWLOOP
 001FFE                            19247  3                          END
                                   19251  3
 001FFE 49F0 6242/4770_      00242 19252  3                          IF    (R15,EQ,UNETMKPF),BEGIN  Mark line...
 002006 58E0 731A/0DEE       021B4 19269  4                            ACALL VDMARK              Go mark the line
 00200C 47F0 7060            01EFA 19273  4                            B     VVWLOOP
 002010                            19274  3                          END
                                   19278  3
 002010 49F0 6246/4770_      00246 19279  3                          IF    (R15,EQ,UNETSNPF),BEGIN  Send w/o CR...
 002018 9801 5014            00014 19296  4                            LM    R0,R1,NVWPTRS       Get input text ptrs
 00201C 9640 6104      00104       19297  4                            SET   UNETFNOXL           We want to send ASCII data
 002020 58E0 72DA/0DEE       02174 19303  4                            VCALL TOASCII             Convert text to ASCII
 002026 41F0 610C/58E0_      0010C 19307  4                            SEGWR (R1),(R0)           Data
 002030 94BF 6104      00104       19331  4                            CLEAR UNETFNOXL           Reset
 002034 47F0 7060            01EFA 19338  4                            B     VVWLOOP
 002038                            19339  3                          END
                                   19343  3
 002038 49F0 6244/4770_      00244 19344  3                          IF    (R15,EQ,UNETXXPF),BEGIN  Secure input mode...
 002040 9710 5000      00000       19361  4                            FLIP  NVWFSECURE          Secure mode toggle
 002044 47F0 7060            01EFA 19367  4                            B     VVWLOOP
 002048                            19368  3                          END
                                   19372  3
 002048 59F0 731E/47D0_      021B8 19373  3                          CEIL  R15,31              Not too high
 002054 89F0 0002            00002 19392  3                          SLL   R15,2               Times 4
 002058 411F 7242/4100_      020DC 19393  3                          SETMSG VVWPF(R15),4        PF key name
 002060 58E0 7322/0DEE       021BC 19409  3                          VCALL RTRIM
 002066                            19413  2                        END
 002066                            19417  1                      END
                                   19421  1
 002066 D603 624C 624C_0024C 0024C 19422  1                      IF    (UNETTOPL,NZ),'MVC UNETFIXL,UNETTOPL'  Fix top line
 002076 D203 6264 B5A4 00264 005A4 19444  1                      MVC   UNETINPL,CPALLNO    Reset scroll lock lineno
 00207C 47F0 7230            020CA 19445  1                      B     VVWEXIT             Attn or PF key means exit
 002080                            19446                       END
                                   19450                       ¿þþþþþþþþþþþþþþþþþþþþþþþþþþþþþþÜ
                                   19451                       Ÿ  Send any data we received.  Ÿ
                                   19452                       ¾þþþþþþþþþþþþþþþþþþþþþþþþþþþþþþ»
 002080 9640 6104      00104       19453                       SET   UNETFNOXL           We want to send ASCII data
 002084 58E0 72DA/0DEE       02174 19459                       VCALL TOASCII             Convert text to ASCII
 00208A 41F0 610C/58E0_      0010C 19463                       SEG   (R1),(R0)           Data
 002094 4110 7338/4100_      021D2 19486                       SETMSG X'0D0A'             Assume "outdata=crlf"
 00209C 9501 6166/4770_00166       19490                       IF    UNETINFLF,'SETMSG X"0A"'  Just LF if "outdata=lf"
 0020AC 41F0 610C/58E0_      0010C 19514                       SEG   (R1),(R0)           CR
 0020B6 1B00/41F0 610C_            19537                       SEGWR
 0020C2 94BF 6104      00104       19561                       CLEAR UNETFNOXL           Reset
 0020C6 47F0 7060            01EFA 19568                       B     VVWLOOP
                                   19569
1NPAT     (NPAT2193) (12:50) (15MAR04) Network Interface Routines                                                           Page   63
0Current Usings:  (NVWWA,R5) (UNET,R6) (*,R7) (CP,R11) (CV,R12)
0Loc    Object Code    Addr1 Addr2  Stmt Lv Lineno    Source Statement           (Hibal 5, Asmedit 3.3)  HLASM R4.0  2004/03/15 12.50
+___    ______ ____    _____ _____  ____ __ ______    ______ _________
00020CA 94EF BC7B      00C7B       19570              VVWEXIT  CLEAR CPFDISP             Reset display mode
 0020CE 18D8/9828 D004_            19578                       PEND
 DROP   NVWWA,R5
 DROP   UNET,R6
 DROP   *,R7
                                   19608
 0020DC D7C6F040D7C6F140           19609              VVWPF    DC    C'PF0 PF1 PF2 PF3 PF4 PF5 PF6 PF7 '
 0020FC D7C6F840D7C6F940           19610                       DC    C'PF8 PF9 PF10PF11PF12PF13PF14PF15'
 00211C D7C6F1F6D7C6F1F7           19611                       DC    C'PF16PF17PF18PF19PF20PF21PF22PF23'
 00213C D7C6F2F4D7C6F2F5           19612                       DC    C'PF24PF25PF26PF27PF28PF29PF30PF31'
                                   19613
                                   19614                       QLTORG
1NPAT     (NPAT2193) (12:50) (15MAR04) Network Interface Routines                                                           Page   64
0Current Usings:  (CP,R11) (CV,R12)
0Loc    Object Code    Addr1 Addr2  Stmt Lv Lineno    Source Statement           (Hibal 5, Asmedit 3.3)  HLASM R4.0  2004/03/15 12.50
+___    ______ ____    _____ _____  ____ __ ______    ______ _________
0                                  19663              ¿þþþþþþþþþþþþþþþþþþþþþþþþþþþþþþþþþþþþþþþþþþþþþþþþþþþþþþþþþþþþþþþþþþþþþÜ
                                   19664              Ÿ                                                                     Ÿ
                                   19665              Ÿ  VDFORMAT -- Local routine to format the full screen telnet         Ÿ
                                   19666              Ÿ    display.  This routine sets the field attributes (protected      Ÿ
                                   19667              Ÿ    or unprotected) and the default renditions for each field.       Ÿ
                                   19668              Ÿ                                                                     Ÿ
                                   19669              Ÿ    It should be called when first switching in to display mode.     Ÿ
                                   19670              Ÿ                                                                     Ÿ
                                                      ¾þþþþþþþþþþþþþþþþþþþþþþþþþþþþþþþþþþþþþþþþþþþþþþþþþþþþþþþþþþþþþþþþþþþþþ»
0000000                00000 00127 19671              VDFMWA   RECORD BEGIN
                                   19679  1           VDFMSG     SEGCB
 000000 00                         19680  1 01-SEGCB +$$$SEGCB405   DS 0F
 VDFMSGCOD.VDFMSGS 01 EQ
 VDFMSGCOD.VDFMSGW 02 EQ
 VDFMSGCOD.VDFMSGC 03 EQ
 VDFMSGCOD.VDFMSGS 04 EQ
 VDFMSGCOD.VDFMSGO 05 EQ
 VDFMSGCOD.VDFMSGC 06 EQ
 VDFMSGCOD.VDFMSGM 07 EQ
 000001 00                         19755  1 01-SEGCB +           DC    X'00'               Reserved
 000002 0000                              1          +
 000004 00000000                   19756  1 01-SEGCB +VDFMSGMAXF   DC  A(0)                Maximum buffer length
 000008 00000000                   19757  1 01-SEGCB +VDFMSGMRKF   DC  A(0)                Length at last mark
 00000C 00000000                   19758  1 01-SEGCB +VDFMSGLENF   DC  A(0)                Current length
 000010 00000000                   19759  1 01-SEGCB +VDFMSGINDF   DC  A(0)                Overflow/indent count
 000014 00000000                   19760  1 01-SEGCB +VDFMSGERR   DC   A(0)                Address of error recovery routine
 000018 0000000000000000           19761  1 01-SEGCB +           DC    2F'0'               Reserved
 000020 00000000                   19762  1 01-SEGCB +VDFMSGLOC   DC   A(0)                Location of buffer
 000024 00000000                   19763  1 01-SEGCB +VDFMSGRTN   DC   A(0)                Processing routine
 000028 0000000000000000           19764  1 01-SEGCB +           DC    4F'0'               Reserved
 000038 00000000                   19765  1 01-SEGCB +VDFMSGUSR   DC   A(0)                USER field
                                   19766  1 01-SEGCB +VDFMSG     EQU   $$$SEGCB405,*-$$$SEGCB405,C'X'
                                   19767  1           VDFMLINE   DS    CL(&LINESZ)         Working line area
 00003C                                   1          +VDFMLINE   DS    CL(235)             Working line area
 000127                00127 00127 19768                       END
                                   19777              þþþþ
 0021E2 50E0 D000/9008_      00000 19778              VDFORMAT PROC  VDFMWA
 USING  *,R7
 USING  VDFMWA-(4+36),R8
 USING  UNET,R6                    19828                       WITH  (UNET,R6),(NVWWA,R5)
 USING  NVWWA,R5
 0021FC 4110 7C5F/4100_      02E5B 19851                       TSEG  $CS                 Clear screen
                                   19879                       ¿þþþþþþþþþþþþþþþþþþþþþþþÜ
                                   19880                       Ÿ  Set up status line.  Ÿ
                                   19881                       ¾þþþþþþþþþþþþþþþþþþþþþþþ»
 00220E 4800 6222            00222 19882                       LH    R0,UNETNTXT         Number of text lines
 002212 4A00 724C            02448 19883                       AH    R0,=H'1'            Plus one
 002216 4110 0002/58E0_      00002 19884                       TCURS (R0),2              Position to status line
 002220 41F0 005C/58E0_      0005C 19901                       TREND STAT                Use status line rendition
 00222A 4110 7C6D/4100_      02E69 19908                       TSEG  $FPROT
1NPAT     (NPAT2193) (12:50) (15MAR04) Network Interface Routines                                                           Page   65
0Current Usings:  (NVWWA,R5) (UNET,R6) (*,R7) (VDFMWA-(4+36),R8) (CP,R11) (CV,R12)
0Loc    Object Code    Addr1 Addr2  Stmt Lv Lineno    Source Statement           (Hibal 5, Asmedit 3.3)  HLASM R4.0  2004/03/15 12.50
+___    ______ ____    _____ _____  ____ __ ______    ______ _________
0                                  19936                       ¿þþþþþþþþþþþþþþþþþþþþþþÜ
                                   19937                       Ÿ  Set up input line.  Ÿ
                                   19938                       ¾þþþþþþþþþþþþþþþþþþþþþþ»
 00223C 4800 6222            00222 19939                       LH    R0,UNETNTXT         Number of text lines
 002240 4A00 724E            0244A 19940                       AH    R0,=H'2'            Plus two
 002244 4110 0002/58E0_      00002 19941                       TCURS (R0),2              Position to input row
 00224E 41F0 00FC/58E0_      000FC 19958                       TREND CMD                 Input line rendition
 002258 4110 7C6D/4100_      02E69 19965                       TSEG  $FPROT
                                   19993                       ¿þþþþþþþþþþþþþþþþþþþþþþþþÜ
                                   19994                       Ÿ  Set up message line.  Ÿ
                                   19995                       ¾þþþþþþþþþþþþþþþþþþþþþþþþ»
 00226A 4800 6222            00222 19996                       LH    R0,UNETNTXT         Number of text lines
 00226E 4A00 7250            0244C 19997                       AH    R0,=H'3'            Plus two
 002272 4110 0002/58E0_      00002 19998                       TCURS (R0),2              Position to start
 00227C 41F0 0074/58E0_      00074 20015                       TREND MSG                 Message line rendition
 002286 4110 7C6D/4100_      02E69 20022                       TSEG  $FPROT
                                   20050                       ¿þþþþþþþþþþþþþþþþþþþþÜ
                                   20051                       Ÿ  Set up PFK line.  Ÿ
                                   20052                       ¾þþþþþþþþþþþþþþþþþþþþ»
 002298 D201 622A 621E 0022A 0021E 20053                       MVC   UNETPFKR,UNETVHEI   Set PFK row
 00229E D711 622C 622C 0022C 0022C 20054                       CLEAR UNETPFKC            Initialize PFK cols array
                                   20061
 0022A4 4800 622A/4110_      0022A 20062                       TCURS LH:UNETPFKR,2       Position to PFK row
 0022B2 41F0 004C/58E0_      0004C 20079                       TREND NORM                Default rendition
 0022BC 4110 7C6D/4100_      02E69 20086                       TSEG  $FPROT              Define field
                                   20114
 0022CE 4DE0 711E            0231A 20115                       LCALL VDPFKS              Display PFK line
                                   20117                       ¿þþþþþþþþþþþþþþþþþþþþþþþþþþþþþÜ
                                   20118                       Ÿ  Set up output text lines.  Ÿ
                                   20119                       ¾þþþþþþþþþþþþþþþþþþþþþþþþþþþþþ»
 0022D2 4100 0001/4110_      00001 20120                       TCURS 1,1
 0022E0 41F0 004C/58E0_      0004C 20140                       TREND NORM                Normal line rendition
 0022EA 4110 7C6D/4100_      02E69 20147                       TSEG  $FPROT              Protected
                                   20175                       ¿þþþþþþþþþþþþþþþþþþþþþþþþþþþþþþþþþþþþþþþþþþþÜ
                                   20176                       Ÿ  Now add fixed data to formatted screen.  Ÿ
                                   20177                       ¾þþþþþþþþþþþþþþþþþþþþþþþþþþþþþþþþþþþþþþþþþþþ»
 0022FC D703 6258 6258_00258 00258 20178                       CLEAR UNETBYCT,UNETLLNO   Reset optimizing info
                                   20190
 002308 4DE0 77B6            029B2 20191                       LCALL VDMSG               Display message line
 00230C 18D8/9808 D004_            20193                       PEND
 DROP   NVWWA,R5
 DROP   UNET,R6
 DROP   VDFMWA-(4+36),R8
 DROP   *,R7
1NPAT     (NPAT2193) (12:50) (15MAR04) Network Interface Routines                                                           Page   66
0Current Usings:  (CP,R11) (CV,R12)
0Loc    Object Code    Addr1 Addr2  Stmt Lv Lineno    Source Statement           (Hibal 5, Asmedit 3.3)  HLASM R4.0  2004/03/15 12.50
+___    ______ ____    _____ _____  ____ __ ______    ______ _________
0                                  20229              ¿þþþþþþþþþþþþþþþþþþþþþþþþþþþþþþþþþþþþþþþþþþþþþþþþþþþþþþþþþþþþþþþþþþþþþÜ
                                   20230              Ÿ                                                                     Ÿ
                                   20231              Ÿ  VDPFKS -- Local routine to write the PFK line and save away the    Ÿ
                                   20232              Ÿ    starting column of each PFK's text (so the light pen logic can   Ÿ
                                   20233              Ÿ    determine which PF key was selected).                            Ÿ
                                   20234              Ÿ                                                                     Ÿ
                                                      ¾þþþþþþþþþþþþþþþþþþþþþþþþþþþþþþþþþþþþþþþþþþþþþþþþþþþþþþþþþþþþþþþþþþþþþ»
0000000                00000 00167 20235              VDPFWA   RECORD BEGIN
                                   20243  1           VDPFSG     SEGCB
 000000 00                         20244  1 01-SEGCB +$$$SEGCB416   DS 0F
 VDPFSGCOD.VDPFSGS 01 EQ
 VDPFSGCOD.VDPFSGW 02 EQ
 VDPFSGCOD.VDPFSGC 03 EQ
 VDPFSGCOD.VDPFSGS 04 EQ
 VDPFSGCOD.VDPFSGO 05 EQ
 VDPFSGCOD.VDPFSGC 06 EQ
 VDPFSGCOD.VDPFSGM 07 EQ
 000001 00                         20319  1 01-SEGCB +           DC    X'00'               Reserved
 000002 0000                              1          +
 000004 00000000                   20320  1 01-SEGCB +VDPFSGMAXF   DC  A(0)                Maximum buffer length
 000008 00000000                   20321  1 01-SEGCB +VDPFSGMRKF   DC  A(0)                Length at last mark
 00000C 00000000                   20322  1 01-SEGCB +VDPFSGLENF   DC  A(0)                Current length
 000010 00000000                   20323  1 01-SEGCB +VDPFSGINDF   DC  A(0)                Overflow/indent count
 000014 00000000                   20324  1 01-SEGCB +VDPFSGERR   DC   A(0)                Address of error recovery routine
 000018 0000000000000000           20325  1 01-SEGCB +           DC    2F'0'               Reserved
 000020 00000000                   20326  1 01-SEGCB +VDPFSGLOC   DC   A(0)                Location of buffer
 000024 00000000                   20327  1 01-SEGCB +VDPFSGRTN   DC   A(0)                Processing routine
 000028 0000000000000000           20328  1 01-SEGCB +           DC    4F'0'               Reserved
 000038 00000000                   20329  1 01-SEGCB +VDPFSGUSR   DC   A(0)                USER field
                                   20330  1 01-SEGCB +VDPFSG     EQU   $$$SEGCB416,*-$$$SEGCB416,C'X'
 00003C                            20331  1           VDPFVAR    DS    CL64                Working variable for eval
                                   20332  1           VDPFEVAL   DS    CL(&LINESZ)         Working eval result area
 00007C                                   1          +VDPFEVAL   DS    CL(235)             Working eval result area
 000167                00167 00167 20333                       END
                                   20342              þþþþ
 00231A 50E0 D000/9008_      00000 20343              VDPFKS   PROC  VDPFWA
 USING  *,R7
 USING  VDPFWA-(4+36),R8
 USING  UNET,R6                    20393                       WITH  (UNET,R6),(NVWWA,R5)
 USING  NVWWA,R5
 002334 947F 621C      0021C       20416                       CLEAR UNETFPFHIGH         Clear highlighting flag
 002338 D603 6250 6250_00250 00250 20423                       IF    (UNETBOTC,NZ),'SET UNETFPFHIGH'  We will highlight
                                   20450
 002346 41F0 0064/58E0_      00064 20451                       TREND PF                  PFK line rendition
                                   20458
 002350 4120 0002            00002 20459                       LA    R2,2                Start at column 2
 002354 4130 622C            0022C 20460                       LA    R3,UNETPFKC         Put first PF column here
 002358 4140 0001            00001 20461                       LA    R4,1                Start at PF1
 00235C 5940 7108/4730_      0243C 20462                       WHILE (R4,LE,9),BEGIN     Go through PFKs...
 002364 18F4                       20481  1                      LR    R15,R4              PFK number for BTD below
 002366 9023 D000/41D0_      00000 20482  1                      XPUSH R2,R3
 00236E 4120 80A4            0007C 20485  1                      LA    R2,VDPFEVAL         Put result here
 002372 4130 00EB            000EB 20486  1                      LA    R3,L'VDPFEVAL
1NPAT     (NPAT2193) (12:50) (15MAR04) Network Interface Routines                                                           Page   67
0Current Usings:  (NVWWA,R5) (UNET,R6) (*,R7) (VDPFWA-(4+36),R8) (CP,R11) (CV,R12)
0Loc    Object Code    Addr1 Addr2  Stmt Lv Lineno    Source Statement           (Hibal 5, Asmedit 3.3)  HLASM R4.0  2004/03/15 12.50
+___    ______ ____    _____ _____  ____ __ ______    ______ _________
0002376 D210 8064 711E 0003C 02452 20487  1                      MVC   VDPFVAR(17),=CL17'X.NET_VIEW_PF[xx]'
 00237C 4100 0002/4110_      00002 20488  1                      BTD   VDPFVAR+14,2,(R15)  Plug array number in
 00238A 4110 8064/4100_      0003C 20510  1                      SETMSG VDPFVAR,17          X.NET_VIEW_PF[R2]
 002392 58E0 7110/0DEE       02444 20526  1                      VCALL EVALSTR             Get string value, if defined
 002398 1812                       20530  1                      LR    R1,R2
 00239A 1803                       20531  1                      LR    R0,R3
 00239C 4BD0 711A/9823_      0244E 20532  1                      XPOP  R2,R3
                                   20535  1
 0023A4 12FF/4770 70E0             20536  1                      IF    (R15,Z),BEGIN       Defined...
 0023AA 9001 D000/41D0_      00000 20550  2                        XPUSH R0,R1
 0023B2 4800 622A/1812_      0022A 20553  2                        TCURS LH:UNETPFKR,(R2)    Position cursor
 0023BE 4BD0 711C/9801_      02450 20568  2                        XPOP  R0,R1
                                   20571  2
 0023C6 4020 3000            00000 20572  2                        STH   R2,@R3              Save starting col for this PF
 0023CA 1A20                       20573  2                        AR    R2,R0               Next column position
 0023CC 4120 2001            00001 20574  2                        LA    R2,@R2+1            Allow a blank
                                   20575  2
 0023D0 4940 6240/4770_      00240 20576  2                        IF    (R4,EQ,UNETNXPF),BEGIN  PF_NEXT is special...
 0023D8 9180 621C/47E0_0021C       20593  3                          IF    UNETFPFHIGH,'TREND PFHI'  We should highlight it
 0023EA 41F0 B050/58E0_      00050 20620  3                          TSEG  (R1),(R0)           "pf_next" key text
 0023F4 9180 621C/47E0_0021C       20644  3                          IF    UNETFPFHIGH,'TREND PF'
 002406                            20671  2                        END
                                   20675  2
 002406 70D6/47F0 70E0 02406 023D6 20676  2                        ELSE  BEGIN
 00240A 41F0 B050/58E0_      00050 20687  3                          TSEG  (R1),(R0)           Write the PF key text
 002414                            20711  2                        END
 002414                            20715  1                      END
                                   20719  1
 002414 4130 3002            00002 20720  1                      LA    R3,@R3+2            Next PFK column entry
 002418 4140 4001            00001 20721  1                      LA    R4,@R4+1            Next PFK number
 00241C 47F0 7028            0235C 20722                       END
                                   20727
 002420 18D8/9808 D004_            20728                       PEND
 DROP   NVWWA,R5
 DROP   UNET,R6
 DROP   VDPFWA-(4+36),R8
 DROP   *,R7
                                   20763
                                   20764                       QLTORG
1NPAT     (NPAT2193) (12:50) (15MAR04) Network Interface Routines                                                           Page   68
0Current Usings:  (CP,R11) (CV,R12)
0Loc    Object Code    Addr1 Addr2  Stmt Lv Lineno    Source Statement           (Hibal 5, Asmedit 3.3)  HLASM R4.0  2004/03/15 12.50
+___    ______ ____    _____ _____  ____ __ ______    ______ _________
0                                  20789              ¿þþþþþþþþþþþþþþþþþþþþþþþþþþþþþþþþþþþþþþþþþþþþþþþþþþþþþþþþþþþþþþþþþþþþþÜ
                                   20790              Ÿ                                                                     Ÿ
                                   20791              Ÿ  VDWRITE -- Local routine to write any new text lines to the        Ÿ
                                   20792              Ÿ    text area of the screen.  If necessary, all the text lines       Ÿ
                                   20793              Ÿ    will be re-written to simulate "scrolling up".                   Ÿ
                                   20794              Ÿ                                                                     Ÿ
                                   20795              Ÿ    The text is stored in the Active file (see PUTLINES routine).    Ÿ
                                   20796              Ÿ                                                                     Ÿ
                                                      ¾þþþþþþþþþþþþþþþþþþþþþþþþþþþþþþþþþþþþþþþþþþþþþþþþþþþþþþþþþþþþþþþþþþþþþ»
0000000                00000 000EF 20797              VDWRWA   RECORD BEGIN
 000000                            20805  1           VDWRSTLN   DS    F                   First lineno to display
                                   20806  1           VDWRLINE   DS    CL(&LINESZ)         Working line area
 000004                                   1          +VDWRLINE   DS    CL(235)             Working line area
 0000EF                000EF 000EF 20807                       END
                                   20816              þþþþ
 002464 50E0 D000/9008_      00000 20817              VDWRITE  PROC  VDWRWA
 USING  *,R7
 USING  VDWRWA-(4+36),R8
 USING  UNET,R6                    20867                       WITH  (UNET,R6),(NVWWA,R5)
 USING  NVWWA,R5
                                   20890                       ¿þþþþþþþþþþþþþþþþþþþþþþþþþþþþþþþþþþþþþþþþþþþþþþþþþþþþþþþþþþþþþÜ
                                   20891                       Ÿ  Flush the PUTBYTES buffer so we get the last partial line  Ÿ
                                   20892                       Ÿ    in the Active file.                                      Ÿ
                                   20893                       ¾þþþþþþþþþþþþþþþþþþþþþþþþþþþþþþþþþþþþþþþþþþþþþþþþþþþþþþþþþþþþþ»
 00247E 4800 721E            0269C 20894                       LH    R0,=H'-1'
 002482 41F0 5118            00118 20895                       LA    R15,NVWPUTCB
 002486 58E0 71F2/0DEE       02670 20896                       VCALL PUTBYTES            Flush buffer
                                   20900
 00248C 5850 6254/1255       00254 20901                       LT    R5,UNETFIXL         Get fixed top line-number
 002492 47B0 7056            024D4 20905                       IF    NEG,BEGIN           Nothing explicit...
                                   20916  1                      ¿þþþþþþþþþþþþþþþþþþþþþþþþþþþþþþþþþþþþþþþþþþþþþþþþþþþÜ
                                   20917  1                      Ÿ  Start at the end of the Active file and back up  Ÿ
                                   20918  1                      Ÿ    the number of text lines on the screen.        Ÿ
                                   20919  1                      ¾þþþþþþþþþþþþþþþþþþþþþþþþþþþþþþþþþþþþþþþþþþþþþþþþþþþ»
 002496 5800 C15C            0015C 20920  1                      L     R0,CVMAXLNO         Highest possible lineno
 00249A 1B11                       20921  1                      CLEAR R1
 00249C 58E0 71F6/0DEE       02674 20925  1                      VCALL GTLASTLN            Get last lineno
 0024A2 4770 7040            024BE 20929  1                      IF    Z,BEGIN             We have something...
 0024A6 4830 6222            00222 20940  2                        LH    R3,UNETNTXT         Number of lines on the screen
 0024AA 0630                       20941  2                        DECR  R3                  Deduct last line
 0024AC 1233/47D0 7040             20943  2                        WHILE (R3,POS),BEGIN      Back up...
 0024B2 58E0 71FA/0DEE       02678 20959  3                          VCALL GTPREVLN            Get previous lineno
 0024B8 0630                       20963  3                          DECR  R3
 0024BA 47F0 702E            024AC 20965  2                        END
 0024BE                            20970  1                      END
                                   20974  1
 0024BE 12FF/4780 7048_            20975  1                      IF    (R15,NZ),'CLEAR R0'  Start at first possible lineno
 0024C6 1850                       20998  1                      LR    R5,R0               Starting line-number
                                   20999  1
 0024C8 5950 624C/47B0_      0024C 21000  1                      IF    (R5,LT,UNETTOPL),'L R5,UNETTOPL'  Stay here
1NPAT     (NPAT2193) (12:50) (15MAR04) Network Interface Routines                                                           Page   69
0Current Usings:  (NVWWA,R5) (UNET,R6) (*,R7) (VDWRWA-(4+36),R8) (CP,R11) (CV,R12)
0Loc    Object Code    Addr1 Addr2  Stmt Lv Lineno    Source Statement           (Hibal 5, Asmedit 3.3)  HLASM R4.0  2004/03/15 12.50
+___    ______ ____    _____ _____  ____ __ ______    ______ _________
0                                  21023  1                      ¿þþþþþþþþþþþþþþþþþþþþþþþþþþþþþþþþþþþþþþþþþþþþþþþþþþþþþþþþþþþþÜ
                                   21024  1                      Ÿ  This is the code which automatically stops the scrolling  Ÿ
                                   21025  1                      Ÿ    if a response would write too much information.         Ÿ
                                   21026  1                      ¾þþþþþþþþþþþþþþþþþþþþþþþþþþþþþþþþþþþþþþþþþþþþþþþþþþþþþþþþþþþþ»
                                   21027  1           *!!NIZ!! IF    (R5,GE,UNETINPL),BEGIN  Attempt to scroll too far...
                                   21028  1           *!!NIZ!! L     R5,UNETINPL         Make this the new top lineno
                                   21029  1           *!!NIZ!! ST    R5,UNETFIXL         Set it
                                   21030  1           *!!NIZ!! END
 0024D4                            21031                       END
                                   21035                       ¿þþþþþþþþþþþþþþþþþþþþþþþþþþþþþþþþþþþþþþþþþþþþþþþþþþþþþþþþþþþþþþÜ
                                   21036                       Ÿ  Screen I/O optimization.  Check to see if the top line on   Ÿ
                                   21037                       Ÿ    the screen is the same as the last time.  If it is, then  Ÿ
                                   21038                       Ÿ    we need only re-write the new lines.  Further, if the     Ÿ
                                   21039                       Ÿ    Active file byte count is unchanged then we don't need    Ÿ
                                   21040                       Ÿ    to rewrite anything.                                      Ÿ
                                   21041                       ¾þþþþþþþþþþþþþþþþþþþþþþþþþþþþþþþþþþþþþþþþþþþþþþþþþþþþþþþþþþþþþþ»
 0024D4 D703 8028 8028 00000 00000 21042                       CLEAR VDWRSTLN            Assume we must write everything
                                   21049
 0024DA 5950 624C/4770_      0024C 21050                       IF    (R5,EQ,UNETTOPL),BEGIN  Same top line...
                                   21067  1         C            IF    ((UNETBYCT,EQ,CPABYCT),
 0024E2 D503 6258 B5B0_00258 005B0        1                            AND,(UNETLLNO,EQ,CPALLNO)),VDWREXIT  Nothing changed
 0024F6 D203 8028 625C 00000 0025C 21105  1                      MVC   VDWRSTLN,UNETLLNO   Rewr old last line and beyond
 0024FC                            21106                       END
                                   21110                       ¿þþþþþþþþþþþþþþþþþþþþþþþþÜ
                                   21111                       Ÿ  Now write the lines.  Ÿ
                                   21112                       ¾þþþþþþþþþþþþþþþþþþþþþþþþ»
 0024FC 5050 624C            0024C 21113                       ST    R5,UNETTOPL         Save new top lineno
 002500 D203 6258 B5B0 00258 005B0 21114                       MVC   UNETBYCT,CPABYCT    Save new byte count
 002506 D203 625C B5A4 0025C 005A4 21115                       MVC   UNETLLNO,CPALLNO    Save new last lineno
                                   21116
 00250C 4130 0001            00001 21117                       LA    R3,1                Start at row 1
 002510 4840 6222            00222 21118                       LH    R4,UNETNTXT         Number of text lines
 002514 1934/4730 71B6             21119                       WHILE (R3,LE,R4),BEGIN    Display the text lines...
 00251A 18F5                       21136  1                      LR    R15,R5              Lineno
 00251C 4110 802C            00004 21137  1                      LA    R1,VDWRLINE
 002520 58E0 71FE/0DEE       0267C 21138  1                      VCALL GETLINE             Get the line text
 002526 47B0 70F8            02576 21142  1                      IF    NEG,BEGIN           No next line...
 00252A 1803/4110 0001_            21153  2                        TCURS (R3),1              Position to this row
 002536 4110 79DA/4100_      02E58 21171  2                        TSEG  $LCSI
 002548 41F0 4001            00001 21199  2                        LA    R15,@R4+1
 00254C 1BF3                       21200  2                        SR    R15,R3              Number of unwritten rows
 00254E 4CF0 6220            00220 21201  2                        MH    R15,UNETVWID        Times row width
 002552 181F/1B00/41F0_            21202  2                        TNUM  (R15)               Blank count
 002560 4110 79EA/4100_      02E68 21224  2                        TSEG  $BCT                Repeat this many blanks
 002572 47F0 71B6            02634 21252  2                        B     VDWRFIN             We're done writing lines
 002576                            21253  1                      END
                                   21257  1
 002576 D503 B73C 8028_0073C 00000 21258  1                      IF    (CPLCNO,GE,VDWRSTLN),BEGIN  Write the line...
 002580 D503 B73C 6260_0073C 00260 21276  2                        IF    (CPLCNO,LT,UNETMRKL),'TREND DIM'  Before mark
 002594 711A/47F0 7124_02594 02588 21306  2                        ELSE  'TREND NORM'        After mark
                                   21329  2
 0025A2 1803/4110 0001_            21330  2                        TCURS (R3),1              Position to approp row
 0025AE 5820 C8C4            008C4 21348  2                        L     R2,CVDOTTBL
 0025B2 DCEA 802C 2000 00004 00000 21349  2                        TR    VDWRLINE,@R2        Convert binary chars to dots
1NPAT     (NPAT2193) (12:50) (15MAR04) Network Interface Routines                                                           Page   70
0Current Usings:  (NVWWA,R5) (UNET,R6) (*,R7) (VDWRWA-(4+36),R8) (CP,R11) (CV,R12)
0Loc    Object Code    Addr1 Addr2  Stmt Lv Lineno    Source Statement           (Hibal 5, Asmedit 3.3)  HLASM R4.0  2004/03/15 12.50
+___    ______ ____    _____ _____  ____ __ ______    ______ _________
0                                  21350  2                        ¿þþþþþþþþþþþþþþþþþþþþþþþþþþþþþþþþþþþþþþþþþþþþþþþþþþþþþþþþþþÜ
                                   21351  2                        Ÿ  When writing the line text, write any trailing blanks   Ÿ
                                   21352  2                        Ÿ    out with the "repeat blanks" model terminal sequence  Ÿ
                                   21353  2                        Ÿ    for effeciency (since this gets converted to a 3270   Ÿ
                                   21354  2                        Ÿ    repeat function).                                     Ÿ
                                   21355  2                        ¾þþþþþþþþþþþþþþþþþþþþþþþþþþþþþþþþþþþþþþþþþþþþþþþþþþþþþþþþþþ»
 0025B8 4110 802C/4800_      00004 21356  2                        SETMSG VDWRLINE,LH:UNETVWID  Display text
 0025C0 1B22                       21369  2                        CLEAR R2                  Number of trailing blanks
                                   21373  2
 0025C2 18F1                       21374  2                        LR    R15,R1
 0025C4 1AF0                       21375  2                        AR    R15,R0
 0025C6 06F0                       21376  2                        DECR  R15                 Last position in line
 0025C8 1200/47D0 7164_            21378  2                        WHILE ((R0,POS),AND,(@R15,EQ,' ')),BEGIN
 0025D6 4120 2001            00001 21409  3                          LA    R2,@R2+1            Count the trailing blank
 0025DA 0600                       21410  3                          DECR  R0                  Reduce line length
 0025DC 06F0                       21412  3                          DECR  R15                 Back up ptr
 0025DE 47F0 714A            025C8 21414  2                        END
                                   21419  2
 0025E2 41F0 B050/58E0_      00050 21420  2                        TSEG  (R1),(R0)           Write line text
 0025EC 1222/47D0 71A6             21444  2                        IF    (R2,POS),BEGIN      Zap trailing blanks...
 0025F2 4110 79DA/4100_      02E58 21458  3                          TSEG  $LCSI
 002604 1812/1B00/41F0_            21486  3                          TNUM  (R2)                Blank count
 002612 4110 79EA/4100_      02E68 21508  3                          TSEG  $BCT                Repeat this many blanks
 002624                            21536  2                        END
 002624                            21540  1                      END
                                   21544  1
 002624 5850 B73C            0073C 21545  1                      L     R5,CPLCNO           Current lineno
 002628 5A50 C4D0            004D0 21546  1                      A     R5,CVONE            Kick for next line
                                   21547  1
 00262C 4130 3001            00001 21548  1                      LA    R3,@R3+1            Next row
 002630 47F0 7096            02514 21549                       END
                                   21554                       ¿þþþþþþþþþþþþþþþþþþþþþþþþþþþþþþþþþþþþþþþþþþþþþþþþþþþþþþþþÜ
                                   21555                       Ÿ  Count the number of lines that follow the last line.  Ÿ
                                   21556                       ¾þþþþþþþþþþþþþþþþþþþþþþþþþþþþþþþþþþþþþþþþþþþþþþþþþþþþþþþþ»
 002634 1B33                       21557              VDWRFIN  CLEAR R3                  Initialize counter
 002636 1805                       21562                       LR    R0,R5               Next possible lineno
 002638 1B11                       21563                       CLEAR R1                  Current active file no
 00263A 58E0 7212/0DEE_      02690 21567                       WHILE ('VCALL GTFRSTLN',Z),BEGIN  Count the line...
 002644 5E00 7216            02694 21585  1                      INCR  R0                  Next lineno
 002648 4130 3001            00001 21588  1                      LA    R3,@R3+1            Count it
 00264C 47F0 71BC            0263A 21589                       END
                                   21594
 002650 5030 6250            00250 21595                       ST    R3,UNETBOTC         Save count of lines that follow
 002654 1233/4770 71E2_            21596                       IF    (R3,Z),'MVC UNETFIXL,=F"-1000"'  Allow scrolling
                                   21616
 002660 18D8/9808 D004_            21617              VDWREXIT PEND
 DROP   NVWWA,R5
 DROP   UNET,R6
 DROP   VDWRWA-(4+36),R8
 DROP   *,R7
                                   21653
                                   21654                       QLTORG
1NPAT     (NPAT2193) (12:50) (15MAR04) Network Interface Routines                                                           Page   71
0Current Usings:  (CP,R11) (CV,R12)
0Loc    Object Code    Addr1 Addr2  Stmt Lv Lineno    Source Statement           (Hibal 5, Asmedit 3.3)  HLASM R4.0  2004/03/15 12.50
+___    ______ ____    _____ _____  ____ __ ______    ______ _________
0                                  21679              ¿þþþþþþþþþþþþþþþþþþþþþþþþþþþþþþþþþþþþþþþþþþþþþþþþþþþþþþþþþþþþþþþþþþþþþÜ
                                   21680              Ÿ                                                                     Ÿ
                                   21681              Ÿ  VDCLEAR -- Local routine to clear the screen.                      Ÿ
                                   21682              Ÿ                                                                     Ÿ
                                                      ¾þþþþþþþþþþþþþþþþþþþþþþþþþþþþþþþþþþþþþþþþþþþþþþþþþþþþþþþþþþþþþþþþþþþþþ»
000269E 50E0 D000/9008_      00000 21683              VDCLEAR  PROC
 USING  *,R7
 USING  UNET,R6                    21722                       WITH  (UNET,R6),(NVWWA,R5)
 USING  NVWWA,R5
                                   21745                       ¿þþþþþþþþþþþþþþþþþþþþþþþþþþþþþþþþþþþþþþþþþþþþþþÜ
                                   21746                       Ÿ  Only leave the last 2 lines on the screen.  Ÿ
                                   21747                       ¾þþþþþþþþþþþþþþþþþþþþþþþþþþþþþþþþþþþþþþþþþþþþþþ»
 0026B8 5800 C15C            0015C 21748                       L     R0,CVMAXLNO         Highest possible lineno
 0026BC 1B11                       21749                       CLEAR R1
 0026BE 58E0 7D00/0DEE       033B8 21753                       VCALL GTLASTLN            Get last lineno
 0026C4 4770 702A            026E2 21757                       IF    Z,BEGIN             We have something...
 0026C8 4130 0001            00001 21768  1                      LA    R3,1                Back up 1 line
 0026CC 1233/47D0 7026             21769  1                      WHILE (R3,POS),BEGIN      Back up...
 0026D2 58E0 7D04/0DEE       033BC 21785  2                        VCALL GTPREVLN            Get previous lineno
 0026D8 0630                       21789  2                        DECR  R3
 0026DA 47F0 7014            026CC 21791  1                      END
                                   21796  1
 0026DE 5000 6254            00254 21797  1                      ST    R0,UNETFIXL         Make this the new top lineno
 0026E2                            21798                       END
                                   21802
 0026E2 18D8/9808 D004_            21803                       PEND
 DROP   NVWWA,R5
 DROP   UNET,R6
 DROP   *,R7
1NPAT     (NPAT2193) (12:50) (15MAR04) Network Interface Routines                                                           Page   72
0Current Usings:  (CP,R11) (CV,R12)
0Loc    Object Code    Addr1 Addr2  Stmt Lv Lineno    Source Statement           (Hibal 5, Asmedit 3.3)  HLASM R4.0  2004/03/15 12.50
+___    ______ ____    _____ _____  ____ __ ______    ______ _________
0                                  21834              ¿þþþþþþþþþþþþþþþþþþþþþþþþþþþþþþþþþþþþþþþþþþþþþþþþþþþþþþþþþþþþþþþþþþþþþÜ
                                   21835              Ÿ                                                                     Ÿ
                                   21836              Ÿ  VDPREV -- Local routine to scroll to the previous screen.          Ÿ
                                   21837              Ÿ                                                                     Ÿ
                                                      ¾þþþþþþþþþþþþþþþþþþþþþþþþþþþþþþþþþþþþþþþþþþþþþþþþþþþþþþþþþþþþþþþþþþþþþ»
00026F0 50E0 D000/9008_      00000 21838              VDPREV   PROC
 USING  *,R7
 USING  UNET,R6                    21877                       WITH  (UNET,R6),(NVWWA,R5)
 USING  NVWWA,R5
                                   21900                       ¿þþþþþþþþþþþþþþþþþþþþþþþþþþþÜ
                                   21901                       Ÿ  Back up NLINES-2 lines.  Ÿ
                                   21902                       ¾þþþþþþþþþþþþþþþþþþþþþþþþþþþ»
 00270A 5800 624C            0024C 21903                       L     R0,UNETTOPL         Current top lineno
 00270E 1B11                       21904                       CLEAR R1
 002710 58E0 7CAE/0DEE       033B8 21908                       VCALL GTLASTLN            Get last lineno
 002716 4770 702A            02734 21912                       IF    Z,BEGIN             We have something...
 00271A 4830 6222            00222 21923  1                      LH    R3,UNETNTXT         Number of text lines
 00271E 4B30 7D4A            03454 21924  1                      SH    R3,=AL2(2)          Keep two lines from old screen
 002722 1233/47D0 702A             21925  1                      WHILE (R3,POS),BEGIN      Back up...
 002728 58E0 7CB2/0DEE       033BC 21941  2                        VCALL GTPREVLN            Get previous lineno
 00272E 0630                       21945  2                        DECR  R3
 002730 47F0 7018            02722 21947  1                      END
 002734                            21952                       END
                                   21956
 002734 5000 6254            00254 21957                       ST    R0,UNETFIXL         Make this the new top lineno
                                   21958
 002738 18D8/9808 D004_            21959                       PEND
 DROP   NVWWA,R5
 DROP   UNET,R6
 DROP   *,R7
1NPAT     (NPAT2193) (12:50) (15MAR04) Network Interface Routines                                                           Page   73
0Current Usings:  (CP,R11) (CV,R12)
0Loc    Object Code    Addr1 Addr2  Stmt Lv Lineno    Source Statement           (Hibal 5, Asmedit 3.3)  HLASM R4.0  2004/03/15 12.50
+___    ______ ____    _____ _____  ____ __ ______    ______ _________
0                                  21990              ¿þþþþþþþþþþþþþþþþþþþþþþþþþþþþþþþþþþþþþþþþþþþþþþþþþþþþþþþþþþþþþþþþþþþþþÜ
                                   21991              Ÿ                                                                     Ÿ
                                   21992              Ÿ  VDNEXT -- Local routine to scroll to the next screen.              Ÿ
                                   21993              Ÿ                                                                     Ÿ
                                                      ¾þþþþþþþþþþþþþþþþþþþþþþþþþþþþþþþþþþþþþþþþþþþþþþþþþþþþþþþþþþþþþþþþþþþþþ»
0002746 50E0 D000/9008_      00000 21994              VDNEXT   PROC
 USING  *,R7
 USING  UNET,R6                    22033                       WITH  (UNET,R6),(NVWWA,R5)
 USING  NVWWA,R5
                                   22056                       ¿þþþþþþþþþþþþþþþþþþþþþþþþþþþþþþÜ
                                   22057                       Ÿ  Go forward NLINES-2 lines.  Ÿ
                                   22058                       ¾þþþþþþþþþþþþþþþþþþþþþþþþþþþþþþ»
 002760 5800 624C            0024C 22059                       L     R0,UNETTOPL         Current top lineno
 002764 1B11                       22060                       CLEAR R1
 002766 58E0 7C58/0DEE       033B8 22064                       VCALL GTLASTLN            Get last lineno
 00276C 4770 702A            0278A 22068                       IF    Z,BEGIN             We have something...
 002770 4830 6222            00222 22079  1                      LH    R3,UNETNTXT         Number of text lines
 002774 4B30 7CF4            03454 22080  1                      SH    R3,=AL2(2)          Keep two lines from old screen
 002778 1233/47D0 702A             22081  1                      WHILE (R3,POS),BEGIN      Back up...
 00277E 58E0 7C60/0DEE       033C0 22097  2                        VCALL GTNEXTLN            Get next lineno
 002784 0630                       22101  2                        DECR  R3
 002786 47F0 7018            02778 22103  1                      END
 00278A                            22108                       END
                                   22112
 00278A 5000 6254            00254 22113                       ST    R0,UNETFIXL         Make this the new top lineno
                                   22114
 00278E 18D8/9808 D004_            22115                       PEND
 DROP   NVWWA,R5
 DROP   UNET,R6
 DROP   *,R7
1NPAT     (NPAT2193) (12:50) (15MAR04) Network Interface Routines                                                           Page   74
0Current Usings:  (CP,R11) (CV,R12)
0Loc    Object Code    Addr1 Addr2  Stmt Lv Lineno    Source Statement           (Hibal 5, Asmedit 3.3)  HLASM R4.0  2004/03/15 12.50
+___    ______ ____    _____ _____  ____ __ ______    ______ _________
0                                  22146              ¿þþþþþþþþþþþþþþþþþþþþþþþþþþþþþþþþþþþþþþþþþþþþþþþþþþþþþþþþþþþþþþþþþþþþþÜ
                                   22147              Ÿ                                                                     Ÿ
                                   22148              Ÿ  VDMARK -- Local routine to mark a starting line.                   Ÿ
                                   22149              Ÿ                                                                     Ÿ
                                                      ¾þþþþþþþþþþþþþþþþþþþþþþþþþþþþþþþþþþþþþþþþþþþþþþþþþþþþþþþþþþþþþþþþþþþþþ»
000279C 50E0 D000/9008_      00000 22150              VDMARK   PROC
 USING  *,R7
 USING  UNET,R6                    22189                       WITH  (UNET,R6),(NVWWA,R5)
 USING  NVWWA,R5
                                   22212
 0027B6 58F0 6268/12FF       00268 22213                       LT    R15,UNETCURL        Cursor line-number
 0027BC 47B0 700E/58F0_      027C4 22217                       IF    NEG,'L R15,CPALLNO'  Or last line
 0027C4 50F0 6260            00260 22234                       ST    R15,UNETMRKL        Save marked line-number
                                   22235
 0027C8 D703 624C 624C_0024C 0024C 22236                       CLEAR UNETTOPL,UNETBYCT,UNETLLNO  Force screen update
                                   22253
 0027DA 18D8/9808 D004_            22254                       PEND
 DROP   NVWWA,R5
 DROP   UNET,R6
 DROP   *,R7
1NPAT     (NPAT2193) (12:50) (15MAR04) Network Interface Routines                                                           Page   75
0Current Usings:  (CP,R11) (CV,R12)
0Loc    Object Code    Addr1 Addr2  Stmt Lv Lineno    Source Statement           (Hibal 5, Asmedit 3.3)  HLASM R4.0  2004/03/15 12.50
+___    ______ ____    _____ _____  ____ __ ______    ______ _________
0                                  22285              ¿þþþþþþþþþþþþþþþþþþþþþþþþþþþþþþþþþþþþþþþþþþþþþþþþþþþþþþþþþþþþþþþþþþþþþÜ
                                   22286              Ÿ                                                                     Ÿ
                                   22287              Ÿ  VDSTATUS -- Local routine to update status line.                   Ÿ
                                   22288              Ÿ                                                                     Ÿ
                                                      ¾þþþþþþþþþþþþþþþþþþþþþþþþþþþþþþþþþþþþþþþþþþþþþþþþþþþþþþþþþþþþþþþþþþþþþ»
0000000                00000 00127 22289              VDSTWA   RECORD BEGIN
                                   22297  1           VDSTSG     SEGCB
 000000 00                         22298  1 01-SEGCB +$$$SEGCB482   DS 0F
 VDSTSGCOD.VDSTSGS 01 EQ
 VDSTSGCOD.VDSTSGW 02 EQ
 VDSTSGCOD.VDSTSGC 03 EQ
 VDSTSGCOD.VDSTSGS 04 EQ
 VDSTSGCOD.VDSTSGO 05 EQ
 VDSTSGCOD.VDSTSGC 06 EQ
 VDSTSGCOD.VDSTSGM 07 EQ
 000001 00                         22373  1 01-SEGCB +           DC    X'00'               Reserved
 000002 0000                              1          +
 000004 00000000                   22374  1 01-SEGCB +VDSTSGMAXF   DC  A(0)                Maximum buffer length
 000008 00000000                   22375  1 01-SEGCB +VDSTSGMRKF   DC  A(0)                Length at last mark
 00000C 00000000                   22376  1 01-SEGCB +VDSTSGLENF   DC  A(0)                Current length
 000010 00000000                   22377  1 01-SEGCB +VDSTSGINDF   DC  A(0)                Overflow/indent count
 000014 00000000                   22378  1 01-SEGCB +VDSTSGERR   DC   A(0)                Address of error recovery routine
 000018 0000000000000000           22379  1 01-SEGCB +           DC    2F'0'               Reserved
 000020 00000000                   22380  1 01-SEGCB +VDSTSGLOC   DC   A(0)                Location of buffer
 000024 00000000                   22381  1 01-SEGCB +VDSTSGRTN   DC   A(0)                Processing routine
 000028 0000000000000000           22382  1 01-SEGCB +           DC    4F'0'               Reserved
 000038 00000000                   22383  1 01-SEGCB +VDSTSGUSR   DC   A(0)                USER field
                                   22384  1 01-SEGCB +VDSTSG     EQU   $$$SEGCB482,*-$$$SEGCB482,C'X'
                                   22385  1           VDSTLINE   DS    CL(&LINESZ)         Working line area
 00003C                                   1          +VDSTLINE   DS    CL(235)             Working line area
 000127                00127 00127 22386                       END
                                   22395              þþþþ
 0027E8 50E0 D000/9008_      00000 22396              VDSTATUS PROC  VDSTWA
 USING  *,R7
 USING  VDSTWA-(4+36),R8
 USING  UNET,R6                    22446                       WITH  (UNET,R6),(NVWWA,R5)
 USING  NVWWA,R5
                                   22469                       ¿þþþþþþþþþþþþþþþþþþþþþþþÜ
                                   22470                       Ÿ  Format status line.  Ÿ
                                   22471                       ¾þþþþþþþþþþþþþþþþþþþþþþþ»
 002802 4110 8064/4100_      0003C 22472                       SEGINIT VDSTLINE,,VDSTSG
 002814 9502 6160/4730_00160       22499                       IF    (UNETSTATE,LE,UNETSFOPENING),BEGIN
 00281C 4110 7C54/4100_      03456 22517  1                      SEG   'Opening connection'
 00282E                            22534                       END
                                   22538
 00282E 7030/47F0 704A_0282E 0281A 22539                       ELSEIF (UNETSTATE,LE,UNETSFDATA),BEGIN
 00283A 4110 7CC0/4100_      034C2 22566  1                      SEG   'Connected'
 00284C                            22583                       END
                                   22587
 00284C 704E/47F0 7060 0284C 02838 22588                       ELSE  BEGIN
 002850 4110 7C66/4100_      03468 22599  1                      SEG   'Closing connection'
 002862                            22616                       END
                                   22620
1NPAT     (NPAT2193) (12:50) (15MAR04) Network Interface Routines                                                           Page   76
0Current Usings:  (NVWWA,R5) (UNET,R6) (*,R7) (VDSTWA-(4+36),R8) (CP,R11) (CV,R12)
0Loc    Object Code    Addr1 Addr2  Stmt Lv Lineno    Source Statement           (Hibal 5, Asmedit 3.3)  HLASM R4.0  2004/03/15 12.50
+___    ______ ____    _____ _____  ____ __ ______    ______ _________
0002862 D64F 617C 617C_0017C 0017C 22621                       IF    ((UNETRNAME,NZ),AND,(UNETRNAME,NE,CVBLANKS)),BEGIN
 002876 4110 7BCA/4100_      033CC 22654  1                      SEG   ' to '
 002888 4110 617C/4100_      0017C 22671  1                      SEGT  UNETRNAME
 00289A                            22699                       END
                                   22703                       ¿þþþþþþþþþþþþþþþþþþþþþþþþþþþþþþþÜ
                                   22704                       Ÿ  Check for messages waiting.  Ÿ
                                   22705                       ¾þþþþþþþþþþþþþþþþþþþþþþþþþþþþþþþ»
 00289A D601 B390 B390_00390 00390 22706                       IF    (CPSNMSG,NZ),BEGIN  We have messages waiting...
 0028A4 4110 7B9E/4100_      033A0 22722  1                      SEG   '    *** '
 0028B6 4810 B390/1B00_      00390 22739  1                      SEGDC LH:CPSNMSG
 0028C6 4110 7CC9/4100_      034CB 22759  1                      SEG   ' msgs waiting ***'
 0028D8                            22776                       END
                                   22780                       ¿þþþþþþþþþþþþþþþþþþþþþþþþþþþþþþþþþÜ
                                   22781                       Ÿ  Report how many lines follow.  Ÿ
                                   22782                       ¾þþþþþþþþþþþþþþþþþþþþþþþþþþþþþþþþþ»
 0028D8 D603 6250 6250_00250 00250 22783                       IF    (UNETBOTC,NZ),BEGIN  We are not at the end...
 0028E2 4100 0028/41F0_      00028 22799  1                      SEGCOL 40
 0028F0 4110 7BDA/4100_      033DC 22819  1                      SEG   '*** '
 002902 5810 6250/1B00_      00250 22836  1                      SEGDC L:UNETBOTC
 002912 D503 7BDE 6250_033E0 00250 22857  1                      IF    (UNETBOTC,GE,UNETLMX#),'SEG "+"'
 00292E 4110 7CDB/4100_      034DD 22897  1                      SEG   ' lines follow ***'
 002940                            22914                       END
                                   22918
 002940 4800 6220            00220 22919                       LH    R0,UNETVWID         Screen width
 002944 4B00 7C78            0347A 22920                       SH    R0,=H'11'           11 spaces from the right side
 002948 41F0 8028/58E0_      00000 22921                       SEGCOL (R0)
 002952 5810 B5AC/4100_      005AC 22938                       SEGDC L:CPALNCT,4
 002964 4110 7C7A/4100_      0347C 22962                       SEG   ' lines'
                                   22979                       ¿þþþþþþþþþþþþþþþþþþþþþþþþþþþþþþÜ
                                   22980                       Ÿ  Now write the status line.  Ÿ
                                   22981                       ¾þþþþþþþþþþþþþþþþþþþþþþþþþþþþþþ»
 002976 41F0 005C/58E0_      0005C 22982                       TREND STAT                Use status line rendition
                                   22989
 002980 4800 6222            00222 22990                       LH    R0,UNETNTXT         Number of text lines
 002984 4A00 7C80            03482 22991                       AH    R0,=H'1'            Plus one
 002988 4110 0002/58E0_      00002 22992                       TCURS (R0),2              Position to status line
 002992 4110 8064/5800_      0003C 23009                       TSEG  VDSTLINE,L:VDSTSGLENF
                                   23037
 0029A4 18D8/9808 D004_            23038                       PEND
 DROP   NVWWA,R5
 DROP   UNET,R6
 DROP   VDSTWA-(4+36),R8
 DROP   *,R7
                                   23073
                                   23074                       SEGDEF DUMMY              (Safety)
1NPAT     (NPAT2193) (12:50) (15MAR04) Network Interface Routines                                                           Page   77
0Current Usings:  (CP,R11) (CV,R12)
0Loc    Object Code    Addr1 Addr2  Stmt Lv Lineno    Source Statement           (Hibal 5, Asmedit 3.3)  HLASM R4.0  2004/03/15 12.50
+___    ______ ____    _____ _____  ____ __ ______    ______ _________
0                                  23076              ¿þþþþþþþþþþþþþþþþþþþþþþþþþþþþþþþþþþþþþþþþþþþþþþþþþþþþþþþþþþþþþþþþþþþþþÜ
                                   23077              Ÿ                                                                     Ÿ
                                   23078              Ÿ  VDMSG -- Local routine to update message line.                     Ÿ
                                   23079              Ÿ                                                                     Ÿ
                                                      ¾þþþþþþþþþþþþþþþþþþþþþþþþþþþþþþþþþþþþþþþþþþþþþþþþþþþþþþþþþþþþþþþþþþþþþ»
0000000                00000 000EB 23080              VDMSGWA  RECORD BEGIN
                                   23088  1           VDMSGTXT   DS    CL(&LINESZ)         Working line area
 000000                                   1          +VDMSGTXT   DS    CL(235)             Working line area
 0000EB                000EB 000EB 23089                       END
                                   23098              þþþþ
 0029B2 50E0 D000/9008_      00000 23099              VDMSG    PROC  VDMSGWA
 USING  *,R7
 USING  VDMSGWA-(4+36),R8
 USING  UNET,R6                    23149                       WITH  (UNET,R6),(NVWWA,R5)
 USING  NVWWA,R5
                                   23172                       ¿þþþþþþþþþþþþþþþþþþþþþþþþþþþÜ
                                   23173                       Ÿ  Write the message line.  Ÿ
                                   23174                       ¾þþþþþþþþþþþþþþþþþþþþþþþþþþþ»
 0029CC 4800 6222            00222 23175                       LH    R0,UNETNTXT         Number of text lines
 0029D0 4A00 7AB8            03484 23176                       AH    R0,=H'3'            Plus one
 0029D4 4110 0002/58E0_      00002 23177                       TCURS (R0),2              Position to status line
                                   23194
 0029DE 41F0 0074/58E0_      00074 23195                       TREND MSG                 Message line rendition
                                   23202
 0029E8 4840 6220            00220 23203                       LH    R4,UNETVWID
 0029EC 0640                       23204                       DECR  R4                  Maximum allowable length
                                   23206
 0029EE 4120 8028            00000 23207                       LA    R2,VDMSGTXT         Put result here
 0029F2 4130 00EB            000EB 23208                       LA    R3,L'VDMSGTXT
 0029F6 4110 7ABA/4100_      03486 23209                       SETMSG 'X.NET_VIEW_MSG'
 0029FE 58E0 7A20/0DEE       033EC 23213                       VCALL EVALSTR             Get string value, if defined
 002A04 1934/47D0 7040_            23217                       CEIL  R3,R4               Not too long
 002A0C 1812/1803/41F0_            23223                       TSEG  (R2),(R3)           Write message out
 002A1A 1B43                       23249                       SR    R4,R3               Number of trailing blanks
 002A1C 47D0 7086            02A52 23250                       IF    POS,BEGIN           Write trailing blanks sequence...
 002A20 4110 748C/4100_      02E58 23261  1                      TSEG  $LCSI
 002A32 1814/1B00/41F0_            23289  1                      TNUM  (R4)
 002A40 4110 749C/4100_      02E68 23311  1                      TSEG  $BCT                Multiple blank sequence
 002A52                            23339                       END
                                   23343
 002A52 18D8/9808 D004_            23344                       PEND
 DROP   NVWWA,R5
 DROP   UNET,R6
 DROP   VDMSGWA-(4+36),R8
 DROP   *,R7
1NPAT     (NPAT2193) (12:50) (15MAR04) Network Interface Routines                                                           Page   78
0Current Usings:  (CP,R11) (CV,R12)
0Loc    Object Code    Addr1 Addr2  Stmt Lv Lineno    Source Statement           (Hibal 5, Asmedit 3.3)  HLASM R4.0  2004/03/15 12.50
+___    ______ ____    _____ _____  ____ __ ______    ______ _________
0                                  23380              ¿þþþþþþþþþþþþþþþþþþþþþþþþþþþþþþþþþþþþþþþþþþþþþþþþþþþþþþþþþþþþþþþþþþþþþÜ
                                   23381              Ÿ                                                                     Ÿ
                                   23382              Ÿ  VDREAD -- Local routine to get input data from the terminal.       Ÿ
                                   23383              Ÿ    This routine must process the information returned from          Ÿ
                                   23384              Ÿ    a display mode read (see the model terminal document for         Ÿ
                                   23385              Ÿ    information on the format of what is returned).  This can        Ÿ
                                   23386              Ÿ    be pretty simple since we are only expecting one unprotected     Ÿ
                                   23387              Ÿ    field to be returned.                                            Ÿ
                                   23388              Ÿ                                                                     Ÿ
                                   23389              Ÿ    On exit, R15 (and cc):                                           Ÿ
                                   23390              Ÿ      neg - logging off                                              Ÿ
                                   23391              Ÿ        0 - OK                                                       Ÿ
                                   23392              Ÿ              R1,R0 - input text loc, len                            Ÿ
                                   23393              Ÿ        1 - ATTN or PF key pressed                                   Ÿ
                                   23394              Ÿ              R1,R0 - msg text (e.g. "PF1")                          Ÿ
                                   23395              Ÿ      101 - Read interrupted (new network data probably)             Ÿ
                                   23396              Ÿ                                                                     Ÿ
                                                      ¾þþþþþþþþþþþþþþþþþþþþþþþþþþþþþþþþþþþþþþþþþþþþþþþþþþþþþþþþþþþþþþþþþþþþþ»
0002A60 50E0 D000/9028_      00000 23397              VDREAD   PROC  (R2,LSR)
 USING  *,R7
 USING  UNET,R6                    23436                       WITH  (UNET,R6),(NVWWA,R5)
 USING  NVWWA,R5
                                   23459                       ¿þþþþþþþþþþþþþþþþþþþþþþþþþþþþþþþþþþþþþþþþþþþþþþþþþþþþþþþþþþþþÜ
                                   23460                       Ÿ  Position cursor to the start of the input area.           Ÿ
                                   23461                       Ÿ                                                            Ÿ
                                   23462                       Ÿ  In order to get the VTAM model terminal code to actually  Ÿ
                                   23463                       Ÿ  move the cursor, we have to define the unprotected field  Ÿ
                                   23464                       Ÿ  again.                                                    Ÿ
                                   23465                       ¾þþþþþþþþþþþþþþþþþþþþþþþþþþþþþþþþþþþþþþþþþþþþþþþþþþþþþþþþþþþþ»
 002A7A 9120 5000/4710_00000       23466                       IF    ~NVWFPRESERVE,BEGIN  Position cursor...
                                   23481  1                      ¿þþþþþþþþþþþþþþþþþþþþþþÜ
                                   23482  1                      Ÿ  Set up input line.  Ÿ
                                   23483  1                      ¾þþþþþþþþþþþþþþþþþþþþþþ»
 002A82 4820 6222            00222 23484  1                      LH    R2,UNETNTXT
 002A86 4A20 7A1A            03494 23485  1                      AH    R2,=H'2'
 002A8A 1802/4110 0002_            23486  1                      TCURS (R2),2              Position to input row
 002A96 41F0 00FC/58E0_      000FC 23504  1                      TREND CMD                 Input line rendition
 002AA0 4110 73DE/4100_      02E58 23511  1                      TSEG  $LCSI
 002AB2 4800 6220            00220 23539  1                      LH    R0,UNETVWID         Line width
 002AB6 0600                       23540  1                      DECR  R0                  Remember, we start in col 2
 002AB8 1810/1B00/41F0_            23542  1                      TNUM  (R0)
 002AC6 4110 7A74/4100_      034EE 23564  1                      TSEG  'X'                 Dup zeros
                                   23582  1
 002AD8 1802/4110 0002_            23583  1                      TCURS (R2),2
 002AE4 4110 73EF/4100_      02E69 23601  1                      TSEG  $FPROT
                                   23629  1
 002AF6 9110 5000/47E0_00000       23630  1                      IF    NVWFSECURE,BEGIN    Secure input mode...
 002AFE 4110 7A1C/4100_      03496 23645  2                        TSEG  'Secure input: '
 002B10 4110 73F8/4100_      02E72 23663  2                        TSEG  $SECURE             Set "blanked" rendition
 002B22                            23691  1                      END
                                   23695  1
 002B22 70AC/47F0 70BE_02B22 02AFC 23696  1                      ELSE  'TSEG "Input: "'
                                   23730  1
1NPAT     (NPAT2193) (12:50) (15MAR04) Network Interface Routines                                                           Page   79
0Current Usings:  (NVWWA,R5) (UNET,R6) (*,R7) (CP,R11) (CV,R12)
0Loc    Object Code    Addr1 Addr2  Stmt Lv Lineno    Source Statement           (Hibal 5, Asmedit 3.3)  HLASM R4.0  2004/03/15 12.50
+___    ______ ____    _____ _____  ____ __ ______    ______ _________
0002B38 4110 73F4/4100_      02E6E 23731  1                      TSEG  $FUNPROT
 002B4A                            23759                       END
                                   23763                       ¿þþþþþþþþþþþþþþþþþþþþþþþþþþþþþÜ
                                   23764                       Ÿ  Do output buffer tracing.  Ÿ
                                   23765                       ¾þþþþþþþþþþþþþþþþþþþþþþþþþþþþþ»
 002B4A 1BFF                       23766                       CLEAR R15                 Indicate output buffer
 002B4C 5810 B070/5800_      00070 23770                       SETMSG L:CPSEGLOC,L:CPSEGLENF
 002B54 58E0 7976/0DEE       033F0 23782                       VCALL VIEWTRC             Do any tracing
                                   23786                       ¿þþþþþþþþþþþþþþþþþþþþþþþþþþþþþþþþþþþþþþþþþþþþþþþþþþþþþþþþþþþþþþÜ
                                   23787                       Ÿ  Do the terminal write (we want to do this separately from   Ÿ
                                   23788                       Ÿ    the read so that it doesn't get interrupted by a reverse  Ÿ
                                   23789                       Ÿ    break).                                                   Ÿ
                                   23790                       ¾þþþþþþþþþþþþþþþþþþþþþþþþþþþþþþþþþþþþþþþþþþþþþþþþþþþþþþþþþþþþþþ»
 002B5A 9120 5000/47E0_00000       23791                       IF    NVWFPRESERVE,'SET CPFNOCURS'  Don't move cursor
                                   23817
 002B66 D603 B05C B05C_0005C 0005C 23818                       IF    (CPSEGLENF,NZ),'TWRITE; CLEAR CPREND'
                                   23871                       ¿þþþþþþþþþþþþþþþþþþþþþþþþþþþþþþþþþþþþþþþþþþþþþþþþþþþþþþþþþÜ
                                   23872                       Ÿ  Do the terminal read; allow new data to interrupt the  Ÿ
                                   23873                       Ÿ    read if we don't already have lots of new data.      Ÿ
                                   23874                       ¾þþþþþþþþþþþþþþþþþþþþþþþþþþþþþþþþþþþþþþþþþþþþþþþþþþþþþþþþþ»
 002B82 D503 7966 6250_033E0 00250 23875                       IF    (UNETBOTC,LT,UNETLMX#),BEGIN  Lots of new data...
 002B8C 9620 BC7D      00C7D       23893  1                      SET   CPFTINT             Allow term I/O to be interrupted
 002B90 9610 602C      0002C       23899  1                      SET   UNETFINT            Path can interrupt read
 002B94                            23905                       END
                                   23909
 002B94 1B00/1BFF/58E0_            23910                       TREAD
                                   23924
 002B9E 94DF BC7D      00C7D       23925                       CLEAR CPFTINT             Reset
 002BA2 94EF 602C      0002C       23932                       CLEAR UNETFINT
                                   23939
 002BA6 94DF 5000/94F7_00000       23940                       CLEAR NVWFPRESERVE,CPFNOCURS
 002BAE 59F0 7982/4770_      033FC 23952                       IF    (R15,EQ,101),'SET NVWFPRESERVE'  Preserve input
                                   23980                       ¿þþþþþþþþþþþþþþþþþþþþþþþþþþþþþþþþþþþþþþþþþþþþþþþþÜ
                                   23981                       Ÿ  Process model terminal read buffer response.  Ÿ
                                   23982                       ¾þþþþþþþþþþþþþþþþþþþþþþþþþþþþþþþþþþþþþþþþþþþþþþþþ»
 002BBA 12FF/4770 7154             23983                       IF    (R15,Z),BEGIN       Normal response...
 002BC0 41F0 0001            00001 23997  1                      LA    R15,1               Indicate input buffer
 002BC4 58E0 7976/0DEE       033F0 23998  1                      VCALL VIEWTRC             Do any tracing
                                   24002  1
 002BCA 4DE0 7162            02BDC 24003  1                      LCALL VDGET               Get first unprotected field
 002BCE                            24005                       END
                                   24009
 002BCE 18D8/9828 D004_            24010                       PEND
 DROP   NVWWA,R5
 DROP   UNET,R6
 DROP   *,R7
1NPAT     (NPAT2193) (12:50) (15MAR04) Network Interface Routines                                                           Page   80
0Current Usings:  (CP,R11) (CV,R12)
0Loc    Object Code    Addr1 Addr2  Stmt Lv Lineno    Source Statement           (Hibal 5, Asmedit 3.3)  HLASM R4.0  2004/03/15 12.50
+___    ______ ____    _____ _____  ____ __ ______    ______ _________
0                                  24041              ¿þþþþþþþþþþþþþþþþþþþþþþþþþþþþþþþþþþþþþþþþþþþþþþþþþþþþþþþþþþþþþþþþþþþþþÜ
                                   24042              Ÿ                                                                     Ÿ
                                   24043              Ÿ  VDGET -- Routine to pick out the next field in the read            Ÿ
                                   24044              Ÿ    buffer.  This routine processes the model terminal               Ÿ
                                   24045              Ÿ    sequences (which are imbedded in the read buffer).               Ÿ
                                   24046              Ÿ                                                                     Ÿ
                                   24047              Ÿ    On entry:                                                        Ÿ
                                   24048              Ÿ      R1,R0 - read buffer loc, len                                   Ÿ
                                   24049              Ÿ                                                                     Ÿ
                                   24050              Ÿ    On exit:                                                         Ÿ
                                   24051              Ÿ      R15   - ending function code (0=Normal)                        Ÿ
                                   24052              Ÿ      R1,R0 - first field data loc, len                              Ÿ
                                   24053              Ÿ                                                                     Ÿ
                                                      ¾þþþþþþþþþþþþþþþþþþþþþþþþþþþþþþþþþþþþþþþþþþþþþþþþþþþþþþþþþþþþþþþþþþþþþ»
0000000                00000 00040 24054              FIELDWA  RECORD BEGIN
 000000 00                         24062  1           FIELDFLG   FLAG
 FIELDFLG.FIELDFST 80 ONES         24066  1                      FLAG  FIELDFST            - Start of field processed
                                   24071  1
 000004                            24072  1           FIELDFNC   DS    F                   Ending function code
 000008                            24073  1           FIELDCRS   DS    D                   Ending cursor position
 000010                            24074  1           FIELDSTA   DS    A                   Start of field
                                   24075  1
 000014 00                         24076  1           FIELDCSF   FLAG
 FIELDCSF.FIELDFL  80 ONES         24080  1                      FLAG  FIELDFL             - Local CSI sequence
                                   24085  1
                                   24086  1           FIELDCS#   EQU   10                  Max no. of parms
 000016                            24087  1           FIELDCSN   DS    H                   Current no. of parms
 000018                            24088  1           FIELDCS    DS    (FIELDCS#)F         Parms
                                   24089  1           FIELDC     EQU   FIELDCSF,*-FIELDCSF,C'X'
 000040                00040 00040 24090                       END
                                   24099              þþþþ
 002BDC 50E0 D000/9028_      00000 24100              VDGET    PROC  (R2,LSR),FIELDWA
 USING  *,R7
 USING  FIELDWA-(4+28),R8
 USING  UNET,R6                    24149                       WITH  (UNET,R6)
                                   24162
 002BF6 D73F 8020 8020 00000 00000 24163                       CLEAR FIELDWA
                                   24170
 002BFC 1851                       24171                       LR    R5,R1               Data ptr
 002BFE 1840                       24172                       LR    R4,R0               Remaining length
                                   24173
 002C00 5050 8030            00010 24174              GETFNLP  ST    R5,FIELDSTA         Start of field
 002C04 1244/47D0 70FC             24175              GETFLP   IF    (R4,NP),GETFDONE    All done
 002C0A 18F4                       24193                       LR    R15,R4
 002C0C 59F0 780A/47D0_      03400 24194                       CEIL  R15,256
 002C18 1B22                       24213                       CLEAR R2
 002C1A 411F 5000            00000 24217                       LA    R1,@R5(R15)
 002C1E 06F0/44F0 790A_            24218                       DEX   R15,'TRT @R5(0),ESCTBL'  Look for ESC (start of CSI)
 002C24 1B15                       24237                       SR    R1,R5
 002C26 4155 1000            00000 24238                       LA    R5,@R1(R5)          Kick...
 002C2A 1B41                       24239                       SR    R4,R1               ...ptrs
                                   24240
 002C2C 1222/4780 700E             24241                       IF    (R2,Z),GETFLP       No match, go back
1NPAT     (NPAT2193) (12:50) (15MAR04) Network Interface Routines                                                           Page   81
0Current Usings:  (UNET,R6) (*,R7) (FIELDWA-(4+28),R8) (CP,R11) (CV,R12)
0Loc    Object Code    Addr1 Addr2  Stmt Lv Lineno    Source Statement           (Hibal 5, Asmedit 3.3)  HLASM R4.0  2004/03/15 12.50
+___    ______ ____    _____ _____  ____ __ ______    ______ _________
0002C32 D501 7262 5000_02E58 00000 24258                       IF    (@R5,NE,$CSI),BEGIN  Not a CSI...
 002C3C 4150 5001            00001 24275  1                      LA    R5,@R5+1
 002C40 0640                       24276  1                      DECR  R4
 002C42 47F0 700E            02C04 24278  1                      B     GETFLP              Go back
 002C46                            24279                       END
                                   24283
 002C46 9180 8020/4710_00000       24284                       IF    FIELDFST,GETFDONE   We have a field, scram
                                   24302                       ¿þþþþþþþþþþþþþþþþþþþþþþþþþþþþþþÜ
                                   24303                       Ÿ  Process control sequences.  Ÿ
                                   24304                       ¾þþþþþþþþþþþþþþþþþþþþþþþþþþþþþþ»
 002C4E D72B 8034 8034 00014 00014 24305                       CLEAR FIELDC
 002C54 4150 5002            00002 24312                       LA    R5,@R5+2            Start of CSI
 002C58 4B40 789E            03494 24313                       SH    R4,=H'2'
 002C5C 47D0 707C/954C_      02C72 24314                       IF    (POS,AND,(@R5,EQ,'<')),BEGIN  Local CSI seq...
 002C68 9680 8034      00014       24340  1                      SET   FIELDFL             Remember that it's a local seq
 002C6C 4150 5001            00001 24346  1                      LA    R5,@R5+1
 002C70 0640                       24347  1                      DECR  R4
 002C72                            24349                       END
                                   24353
 002C72                            24354                       LOOP  BEGIN
 002C72 1815/1804/58E0_            24360  1                      DTB   (R5),(R4)           Pick up a numeric parameter
 002C7C 4820 8036            00016 24377  1                      LH    R2,FIELDCSN         Parameter number
 002C80 5920 7812/47B0_      03408 24378  1                      IF    (R2,LT,FIELDCS#),BEGIN
 002C88 8920 0002            00002 24395  2                        SLL   R2,2
 002C8C 50F2 8038            00018 24396  2                        ST    R15,FIELDCS(R2)     Save parameter
 002C90 41F0 0001/4AF0_      00001 24397  2                        INCR  R15,FIELDCSN
 002C9C                            24403  1                      END
                                   24407  1
 002C9C 4150 1001            00001 24408  1                      LA    R5,@R1+1
 002CA0 1840                       24409  1                      LR    R4,R0
 002CA2 0640                       24410  1                      DECR  R4
 002CA4 955E 1000/4770_00000       24412  1                      UNTIL (@R1,NE,';')
 002CAC 47F0 707C            02C72 24432                       END
                                   24437
 002CB0 9180 8034/47E0_00014       24438                       IF    FIELDFL,BEGIN       Local sequence...
 002CB8 D500 7286 1000_02E7C 00000 24453  1                      IF    (@R1,EQ,$RFC),BEGIN  Ending function code...
 002CC2 D203 8024 8038 00004 00018 24470  2                        MVC   FIELDFNC,FIELDCS    Save function code
 002CC8                            24471  1                      END
                                   24475  1
 002CC8 70D6/47F0 70E6_02CC8 02CC0 24476  1                      ELSEIF (@R1,EQ,$RCP),BEGIN  Ending cursor position...
 002CD6 D207 8028 8038 00008 00018 24502  2                        MVC   FIELDCRS,FIELDCS    Save ending cursor position
 002CDC                            24503  1                      END
                                   24507  1
 002CDC 70EA/47F0 70F8_02CDC 02CD4 24508  1                      ELSEIF (@R1,EQ,$RFP),BEGIN  Field cursor position...
 002CEA 9680 8020      00000       24534  2                        SET   FIELDFST            Start of a field
 002CEE                            24540  1                      END
 002CEE                            24544                       END
                                   24548
 002CEE 47F0 700A            02C00 24549                       B     GETFNLP
1NPAT     (NPAT2193) (12:50) (15MAR04) Network Interface Routines                                                           Page   82
0Current Usings:  (UNET,R6) (*,R7) (FIELDWA-(4+28),R8) (CP,R11) (CV,R12)
0Loc    Object Code    Addr1 Addr2  Stmt Lv Lineno    Source Statement           (Hibal 5, Asmedit 3.3)  HLASM R4.0  2004/03/15 12.50
+___    ______ ____    _____ _____  ____ __ ______    ______ _________
0                                  24550                       ¿þþþþþþþþþþþþþþþþþþþþþþþþþþþþþþþþþþþþþþþþþþþþþþÜ
                                   24551                       Ÿ  Set the line-number that the cursor is on.  Ÿ
                                   24552                       ¾þþþþþþþþþþþþþþþþþþþþþþþþþþþþþþþþþþþþþþþþþþþþþþ»
 002CF2 D203 6268 7816 00268 0340C 24553              GETFDONE MVC   UNETCURL,=F'-1000'  Assume cursor lineno will be -1
                                   24554
 002CF8 5840 8028            00008 24555                       L     R4,FIELDCRS         Row number cursor is on
 002CFC 5940 781A/4750_      03410 24556                       IF    ((R4,GE,1),AND,(R4,LE,UNETNTXT)),BEGIN  Text line...
 002D0C 4130 0002            00002 24589  1                      LA    R3,2
 002D10 5800 624C            0024C 24590  1                      L     R0,UNETTOPL         Lineno of first line on screen
 002D14 1B11                       24591  1                      CLEAR R1                  (For GTNEXTLN: use cur active)
 002D16 1934/4730 7134             24595  1                      WHILE (R3,LE,R4),BEGIN    Count down rows...
 002D1C 58E0 77CA/0DEE       033C0 24612  2                        VCALL GTNEXTLN            Get next lineno
 002D22 4130 3001            00001 24616  2                        LA    R3,@R3+1            Next row
 002D26 47F0 7120            02D16 24617  1                      END
                                   24622  1
 002D2A 5000 6268            00268 24623  1                      ST    R0,UNETCURL         Save cursor lineno
 002D2E                            24624                       END
                                   24628                       ¿þþþþþþþþþþþþþþþþþþþþþþþþþþþþþþþþþþþþþþþþþþþþþþþþþþþþþþþÜ
                                   24629                       Ÿ  Return the unprotected field text in R1,R0; and the  Ÿ
                                   24630                       Ÿ    ending function code in R15.                       Ÿ
                                   24631                       ¾þþþþþþþþþþþþþþþþþþþþþþþþþþþþþþþþþþþþþþþþþþþþþþþþþþþþþþþ»
 002D2E 9180 8020/4710_00000       24632                       IF    ~FIELDFST,BEGIN     No field...
 002D36 1B00/1B11                  24647  1                      CLEAR R0,R1
 002D3A                            24653                       END
                                   24657
 002D3A 7148/47F0 7150 02D3A 02D34 24658                       ELSE  BEGIN               We have a field...
 002D3E 5810 8030            00010 24669  1                      L     R1,FIELDSTA         Start of field
 002D42 1805                       24670  1                      LR    R0,R5
 002D44 1B01                       24671  1                      SR    R0,R1               Length of field
 002D46                            24672                       END
                                   24676
 002D46 58F0 8024            00004 24677                       L     R15,FIELDFNC        Set rc with function code
 002D4A 18D8/9828 D004_            24678                       PEND
 DROP   UNET,R6
 DROP   FIELDWA-(4+28),R8
 DROP   *,R7
                                   24708
 002D58 0000000000000000           24709              ESCTBL   DC    XL256'00'
 002E58                02E58 02D7F 24710                       ORG   ESCTBL+X'27'
 002D7F 27                         24711                       DC    X'27'
 002D80                02D80 02E58 24712                       ORG
1NPAT     (NPAT2193) (12:50) (15MAR04) Network Interface Routines                                                           Page   83
0Current Usings:  (CP,R11) (CV,R12)
0Loc    Object Code    Addr1 Addr2  Stmt Lv Lineno    Source Statement           (Hibal 5, Asmedit 3.3)  HLASM R4.0  2004/03/15 12.50
+___    ______ ____    _____ _____  ____ __ ______    ______ _________
0                                  24714                       ¿þþþþþþþþþþþþþþþþþþþþþþþþþþþþþþþþþþþþþÜ
                                   24715                       Ÿ  Model terminal control sequences.  Ÿ
                                   24716                       ¾þþþþþþþþþþþþþþþþþþþþþþþþþþþþþþþþþþþþþ»
                                   24717              $CSI     EQU   *,2,C'X'            Control sequence prefix
 002E58 27AD4C                     24718              $LCSI    DC    X'27AD4C'           Local control sequence introducer
 002E5B 27AD8627ADF2D1             24719              $CS      DC    X'27AD8627ADF2D1'   Home & clear screen
 002E62 27AD86                     24720              $CSVTAM  DC    X'27AD86'           Home cursor (and that's all!)
 002E65 27ADD1                     24721              $CREM    DC    X'27ADD1'           Clear from cursor to end screen
 002E68 E9                         24722              $BCT     DC    C'Z'                Blank count
 002E69 27AD4CF1C6                 24723              $FPROT   DC    X'27AD4CF1C6'       Protected field
 002E6E 27AD4CC6                   24724              $FUNPROT DC    X'27AD4CC6'         Unprotected field
 002E72 27ADF05EF894               24725              $SECURE  DC    X'27ADF05EF894'     Blanked (secure) rendition
 002E78 27AD4CC5                   24726              $FEND    DC    X'27AD4CC5'         End of field
                                   24727
 002E7C E5                         24728              $RFC     DC    C'V'                Report ending function code
 002E7D C3                         24729              $RCP     DC    C'C'                Report ending cursor position
 002E7E D9                         24730              $RFP     DC    C'R'                Report cursor position
1NPAT     (NPAT2193) (12:50) (15MAR04) Network Interface Routines                                                           Page   84
0Current Usings:  (CP,R11) (CV,R12)
0Loc    Object Code    Addr1 Addr2  Stmt Lv Lineno    Source Statement           (Hibal 5, Asmedit 3.3)  HLASM R4.0  2004/03/15 12.50
+___    ______ ____    _____ _____  ____ __ ______    ______ _________
0                                  24732              ¿þþþþþþþþþþþþþþþþþþþþþþþþþþþþþþþþþþþþþþþþþþþþþþþþþþþþþþþþþþþþþþþþþþþþþÜ
                                   24733              Ÿ                                                                     Ÿ
                                   24734              Ÿ  NPATSEG -- Local routine to write the network path seg buffer      Ÿ
                                   24735              Ÿ    as a Network packet.                                             Ÿ
                                   24736              Ÿ                                                                     Ÿ
                                   24737              Ÿ    On entry:                                                        Ÿ
                                   24738              Ÿ      R15 - SEGCB ptr                                                Ÿ
                                   24739              Ÿ                                                                     Ÿ
                                                      ¾þþþþþþþþþþþþþþþþþþþþþþþþþþþþþþþþþþþþþþþþþþþþþþþþþþþþþþþþþþþþþþþþþþþþþ»
0002E80 50E0 D000/9008_      00000 24740              NPATSEG  PROC
 USING  *,R7
                                   24779
 002E9A 185F                       24780                       LR    R5,R15              SEGCB ptr
 USING  SEGCB,R5                   24781                       WITH  (SEGCB,R5)
 002E9C 5860 5038            00038 24794                       L     R6,SEGCBUSR         User field points to UNET
 USING  UNET,R6                    24795                       WITH  (UNET,R6)
 002EA0 D503 757A 6000_03414 00000 24808                       FAIL  (UNET,NE,'UNET'),NETERRC,'Bad UNET ptr'
                                   24837                       ¿þþþþþþþþÜ
                                   24838                       Ÿ  SEG.  Ÿ
                                   24839                       ¾þþþþþþþþ»
 002EC2 9501 5000/4770_00000       24840                       IF    SEGCBSEG,BEGIN      SEG...
 002ECA 9180 6104/4710_00104       24855  1                      IF    UNETFCTRL,SEGEXIT   Don't do anything if control data
 002ED2 1200/47D0 7210             24873  1                      IF    (R0,NP),SEGEXIT     Nothing to seg, scram
                                   24890  1
 002ED8 9140 6104/4710_00104       24891  1                      IF    ~UNETFNOXL,BEGIN    Translate to ASCII...
 002EE0 5900 757E/47D0_      03418 24906  2                        FAIL  (R0,GT,UNETBUF#),NETSEG,'Network interface error.'
                                   24935  2
 002F00 1840                       24936  2                        LR    R4,R0               Save text length
 002F02 58E0 6100/18F4_      00100 24937  2                        MOVEL L:UNETBUFP,@R1,(R4)  Copy text
                                   24957  2                        ¿þþþþþþþþþþþþþþþþþþþþþþþÜ
                                   24958  2                        Ÿ  Translate to ASCII.  Ÿ
                                   24959  2                        ¾þþþþþþþþþþþþþþþþþþþþþþþ»
 002F0E 5810 6100/1804       00100 24960  2                        SETMSG L:UNETBUFP,(R4)     Text
 002F14 5820 C8B0            008B0 24972  2                        L     R2,CVASCTBL         EBCDIC to ASCII translate table
 002F18 1200/47D0 70A4             24973  2                        WHILE (R0,POS),BEGIN      Convert to ASCII...
 002F1E 18F0                       24989  3                          LR    R15,R0              Length
 002F20 59F0 7566/47D0_      03400 24990  3                          CEIL  R15,256             Not too much
 002F2C 06F0/44F0 766C_            25009  3                          DEX   R15,'TR @R1(0),@R2'    Translate a bit at a time
                                   25028  3
 002F32 4110 1100            00100 25029  3                          LA    R1,@R1+256
 002F36 4B00 760A            034A4 25030  3                          SH    R0,=H'256'
 002F3A 47F0 707E            02F18 25031  2                        END
                                   25036  2
 002F3E 5810 6100/1804       00100 25037  2                        SETMSG L:UNETBUFP,(R4)     Copy of translated text
 002F44 9001 8004            00004 25049  2                        PRETURN (R0,R1)           Save new data ptrs
 002F48                            25051  1                      END
                                   25055  1
 002F48 47F0 7210            030AA 25056  1                      B     SEGEXIT
 002F4C                            25057                       END
1NPAT     (NPAT2193) (12:50) (15MAR04) Network Interface Routines                                                           Page   85
0Current Usings:  (SEGCB,R5) (UNET,R6) (*,R7) (CP,R11) (CV,R12)
0Loc    Object Code    Addr1 Addr2  Stmt Lv Lineno    Source Statement           (Hibal 5, Asmedit 3.3)  HLASM R4.0  2004/03/15 12.50
+___    ______ ____    _____ _____  ____ __ ______    ______ _________
0                                  25061                       ¿þþþþþþþþþþþþþþþþþþþþþþþþþþþþþþþþþþþþþþþþþþþþÜ
                                   25062                       Ÿ  SEGCR (write line separator characters).  Ÿ
                                   25063                       ¾þþþþþþþþþþþþþþþþþþþþþþþþþþþþþþþþþþþþþþþþþþþþ»
 002F4C 9506 5000/4770_00000       25064                       IF    SEGCBCR,BEGIN       SEGCR...
 002F54 9640 6104      00104       25079  1                      SET   UNETFNOXL
                                   25085  1                      SEGDEF SEGCB
 002F58 4110 760C/4100_      034A6 25086  1                      SEG   X'0D0A'             Line separator (CR,LF)
 002F68 18F5/58E0 7582_            25103  1                      SEGMARK
 002F70 94BF 6104      00104       25116  1                      CLEAR UNETFNOXL
 002F74                            25123                       END
                                   25127                       ¿þþþþþþþþþþþþþþþþþþþþþþþþÜ
                                   25128                       Ÿ  SEGWR (or overflow).  Ÿ
                                   25129                       ¾þþþþþþþþþþþþþþþþþþþþþþþþ»
 002F74 9502 5000/4780_00000       25130                       IF    (SEGCBWR,OR,SEGCBOVF),BEGIN  SEGWR...
                                   25159  1                      ¿þþþþþþþþþþþþþþþþþþþþþþþþþþþþþþþþþþþþþþþÜ
                                   25160  1                      Ÿ  Trace output line for server paths.  Ÿ
                                   25161  1                      ¾þþþþþþþþþþþþþþþþþþþþþþþþþþþþþþþþþþþþþþþ»
 002F84 58F0 6024/12FF_      00024 25162  1                      IF    ('LT R15,UNETSVIB',NZ),BEGIN  Server path...
 002F8E 9180 6104/4710_00104       25178  2                        IF    UNETFCTRL,EXIT      Don't trace Amelia controls
                                   25196  2                        SETMSG (R1),(R0)
 002F96 4120 765C            034F6 25206  2                        LA    R2,=C'>>A'          Output ("A" = ASCII)
 002F9A 58E0 7586/0DEE       03420 25207  2                        VCALL SERVTRC             Trace output
 002FA0                            25211  1                      END
                                   25215  1
 002FA0 1200/47D0 71EE             25216  1                      IF    (R0,NP),EXIT        Nothing to write, scram
                                   25233  1
 002FA6 9110 6104/4710_00104       25234  1                      IF    ~UNETFWRONLY,BEGIN  OK to check incoming...
 002FAE 58E0 758A/0DEE       03424 25249  2                        ACALL NPATCHK             Check for Amelia path activity
 002FB4                            25253  1                      END
                                   25257  1                      ¿þþþþþþþþþþþþþþþþþþþþþþþþþþþþþþþþþþþþþþþþþþþþÜ
                                   25258  1                      Ÿ  Don't ever write to a closed connection.  Ÿ
                                   25259  1                      ¾þþþþþþþþþþþþþþþþþþþþþþþþþþþþþþþþþþþþþþþþþþþþ»
 002FB4 950A 6160/4780_00160       25260  1                      IF    (UNETSTATE,EQ,UNETSFCLOSE),EXIT  Connection closed
1NPAT     (NPAT2193) (12:50) (15MAR04) Network Interface Routines                                                           Page   86
0Current Usings:  (SEGCB,R5) (UNET,R6) (*,R7) (CP,R11) (CV,R12)
0Loc    Object Code    Addr1 Addr2  Stmt Lv Lineno    Source Statement           (Hibal 5, Asmedit 3.3)  HLASM R4.0  2004/03/15 12.50
+___    ______ ____    _____ _____  ____ __ ______    ______ _________
0                                  25281  1                ¿þþþþþþþþþþþþþþþþþþþþþþþþþþþþþþþþþþþþþþþþþþþþþþþþþþþþþþþþþþþþþþþþþþþÜ
                                   25282  1                Ÿ  Check whether or not the path control block to the AMELIA        Ÿ
                                   25283  1                Ÿ  path has any buffers queued due to a prior full queue signal     Ÿ
                                   25284  1                Ÿ  from SUZAN. If this is the case, it can set up a problem         Ÿ
                                   25285  1                Ÿ  situation where the full queue emptied code in the PATH          Ÿ
                                   25286  1                Ÿ  module (PATHSNDQ) starts flushing all the previously delayed     Ÿ
                                   25287  1                Ÿ  buffers over to AMELIA. Because the PATH module is non-specific  Ÿ
                                   25288  1                Ÿ  and doesn't know it's dealing with AMELIA, it can dump more      Ÿ
                                   25289  1                Ÿ  data for one connection than AMELIA can buffer, and AMELIA's     Ÿ
                                   25290  1                Ÿ  attempts to send a TCP_STOP control packet will be ignored       Ÿ
                                   25291  1                Ÿ  because PATHSNDQ doesn't check inbound data before sending as    Ÿ
                                   25292  1                Ÿ  this routine does. AMELIA, its STOP having been ignored then     Ÿ
                                   25293  1                Ÿ  aborts the connection. This was first discovered on DEMS         Ÿ
                                   25294  1                Ÿ  FTP SAVEs to goddard.                                            Ÿ
                                   25295  1                Ÿ                                                                   Ÿ
                                   25296  1                Ÿ  What we'll do here is delay a few seconds if we see that a       Ÿ
                                   25297  1                Ÿ  send queue exists for the AMELIA path.                           Ÿ
                                   25298  1                Ÿ                                                                   Ÿ
                                   25299  1                Ÿ   MPD - 8/24/2000                                                 Ÿ
                                   25300  1                ¾þþþþþþþþþþþþþþþþþþþþþþþþþþþþþþþþþþþþþþþþþþþþþþþþþþþþþþþþþþþþþþþþþþþ»
 002FBC 58F0 6020            00020 25301  1                      L     R15,UNETPATP        Point to AMELIA path
 002FC0 59F0 758E/4780_      03428 25302  1                      IF    (R15,NE,=F'-1'),BEGIN Do this if path not closing
 USING  UPATH,R15                  25318  2                        USING UPATH,R15
 002FC8 D603 F010 F010_00010 00010 25327  2                        IF    (UPATWRQH,NZ),BEGIN Full queue - don't make it worse
 DROP   UPATH,R15                  25343  3                          DROP  R15
 002FD2 9180 6104/4710_00104       25350  3                          IF    UNETFCTRL,EXIT      Ctrl msgs not flow controlled
 002FDA 41F0 0001/5EF0_      00001 25368  3                          INCR  R15,UNETCTR1        Count this occurrence
 002FE6 4100 0002            00002 25374  3                          LA    R0,2                Wait up to 2 seconds
 002FEA 4110 0006            00006 25375  3                          LA    R1,UNETSFDATA       Unlock on data waiting also
 002FEE 41F0 6000            00000 25376  3                          LA    R15,UNET
 002FF2 58E0 7592/0DEE       0342C 25377  3                          ACALL NPATWAIT            Wait
                                   25381  3           *??????? BNZ   ...
 002FF8                            25382  2                        END
 002FF8                            25386  1                      END
                                   25390  1                      ¿þþþþþþþþþþþþþþþþþþþþþþþþþþþþþþþþþþþþþþþþþþþþþþþþþÜ
                                   25391  1                      Ÿ  Handle flow controlled output to Amelia here.  Ÿ
                                   25392  1                      Ÿ    If Amelia has told us to stop sending, then  Ÿ
                                   25393  1                      Ÿ    we must wait until it's OK to send again.    Ÿ
                                   25394  1                      ¾þþþþþþþþþþþþþþþþþþþþþþþþþþþþþþþþþþþþþþþþþþþþþþþþþ»
 002FF8 9180 6164/47E0_00164       25395  1                      IF    UNETFOUTSTOP,BEGIN  Stop sending...
 003000 9180 6104/4710_00104       25410  2                        IF    UNETFCTRL,EXIT      Ctrl msgs not flow controlled
 003008 1B00                       25428  2                        CLEAR R0                  No timeout
 00300A 4110 0004            00004 25432  2                        LA    R1,UNETSFOPEN
 00300E 9505 6160/4770_00160       25433  2                        IF    (UNETSTATE,EQ,UNETSFDATASTOP),'LA R1,UNETSFDATA'
 00301A 41F0 6000            00000 25457  2                        LA    R15,UNET
 00301E 58E0 7592/0DEE       0342C 25458  2                        ACALL NPATWAIT            Wait
                                   25462  2           *??????? BNZ   ...
 003024                            25463  1                      END
                                   25467  1                      ¿þþþþþþþþþþþþþþþþþþþþþþþþþþþþþÜ
                                   25468  1                      Ÿ  Do output buffer tracing.  Ÿ
                                   25469  1                      ¾þþþþþþþþþþþþþþþþþþþþþþþþþþþþþ»
 003024 9801 8004            00004 25470  1                      PRESTORE (R0,R1)          Text ptrs
 003028 1830                       25472  1                      LR    R3,R0               Save length processed for later
1NPAT     (NPAT2193) (12:50) (15MAR04) Network Interface Routines                                                           Page   87
0Current Usings:  (SEGCB,R5) (UNET,R6) (*,R7) (CP,R11) (CV,R12)
0Loc    Object Code    Addr1 Addr2  Stmt Lv Lineno    Source Statement           (Hibal 5, Asmedit 3.3)  HLASM R4.0  2004/03/15 12.50
+___    ______ ____    _____ _____  ____ __ ______    ______ _________
0                                  25473  1                      ¿þþþþþþþþþþþþþþþþþþþþþþþþþþþþþþþþþþþþþþþþþþþþþþþþþþþþþþþþþþþþþÜ
                                   25474  1                      Ÿ  If it's not a control write then back up the seg buffer    Ÿ
                                   25475  1                      Ÿ    and fill in the "TCP_WRITE:" prefix.  Note that we have  Ÿ
                                   25476  1                      Ÿ    specially allocated a prefix area to the seg buffer      Ÿ
                                   25477  1                      Ÿ    (see references to UNETPFXL#).                           Ÿ
                                   25478  1                      ¾þþþþþþþþþþþþþþþþþþþþþþþþþþþþþþþþþþþþþþþþþþþþþþþþþþþþþþþþþþþþþ»
 00302A 9180 6104/4710_00104       25479  1                      IF    ~UNETFCTRL,BEGIN    Back up to include prefix...
                                   25494  2                        ¿þþþþþþþþþþþþþþþþþþþþþþþþþþþþþþþþþþþþþþþþþþþþþþþþþþþþþþþþÜ
                                   25495  2                        Ÿ  Encrypt the data if necessary (this is only done for  Ÿ
                                   25496  2                        Ÿ    TCP_WRITEs).                                        Ÿ
                                   25497  2                        ¾þþþþþþþþþþþþþþþþþþþþþþþþþþþþþþþþþþþþþþþþþþþþþþþþþþþþþþþþ»
 003032 9180 602D/47E0_0002D       25498  2                        IF    UNETFCRYPT,BEGIN    Encrypt outgoing data...
 00303A 4120 60BC            000BC 25513  3                          LA    R2,UNETOUTCRYPT     Crypt work area
 00303E 58E0 7596/0DEE       03430 25514  3                          VCALL SENCRYPT            Encrypt data
 003044                            25518  2                        END
                                   25522  2
 003044 4B10 760E            034A8 25523  2                        SH    R1,=AL2(UNETPFXL#)  Back up for TCP_WRITE prefix
 003048 4A00 760E            034A8 25524  2                        AH    R0,=AL2(UNETPFXL#)  Adjust length
                                   25525  2
 00304C D20F 1000 750E 00000 033A8 25526  2                        MVC   @R1(16),=CL16'TCP_WRITE:'
 003052 D203 1010 6170 00010 00170 25527  2                        MVC   @R1+16(4),UNETAID   Amelia connection id
 003058                            25528  1                      END
                                   25532  1                      ¿þþþþþþþþþþþþþþþþþþþþþþþþþþþþþþþþþþÜ
                                   25533  1                      Ÿ  Trace the data we are sending.  Ÿ
                                   25534  1                      ¾þþþþþþþþþþþþþþþþþþþþþþþþþþþþþþþþþþ»
 003058 1B22                       25535  1                      CLEAR R2                  0 means "output buffer"
 00305A 41F0 6000            00000 25539  1                      LA    R15,UNET
 00305E 58E0 759A/0DEE       03434 25540  1                      ACALL NETTRC              Save buffer for trace
                                   25544  1                      ¿þþþþþþþþþþþþþþþþþþþþþþþþþþþþþþþþþþÜ
                                   25545  1                      Ÿ  Send the data across the path.  Ÿ
                                   25546  1                      ¾þþþþþþþþþþþþþþþþþþþþþþþþþþþþþþþþþþ»
 003064 9509 6160/4780_00160       25547  1                      IF    (UNETSTATE,NE,UNETSFPATHCLS),BEGIN  Do it...
 00306C 58F0 6020            00020 25565  2                        L     R15,UNETPATP        Get UPATH
 003070 58E0 759E/0DEE       03438 25566  2                        VCALL PATHWRIT            Send packet across Suzan path
                                   25570  2           *  Full queues are handled by the path routines.
 003076                            25571  1                      END
                                   25575  1
 003076 41F0 0001/5EF0_      00001 25576  1                      INCR  R15,CVENIO          Count network write I/O
                                   25582  1
 003082 1103                       25583  1                      LNR   R0,R3               For seg overflow: bytes processed
 003084 5008 0004            00004 25584  1                      PRETURN (R0)              Save complimented value
 003088                            25586                       END
                                   25590                       ¿þþþþþþþþþþþþþþþþþÜ
                                   25591                       Ÿ  SEGWR/SEGCLR.  Ÿ
                                   25592                       ¾þþþþþþþþþþþþþþþþþ»
 003088 9502 5000/4780_00000       25593                       IF    (SEGCBWR,OR,SEGCBOVF,OR,SEGCBCLR),BEGIN
 0030A0 9200 6104      00104       25634  1                      CLEAR UNETSINIT
 0030A4 1BFF                       25641  1                      CLEAR R15                 A-ok
 0030A6 47F0 7210            030AA 25645  1                      B     SEGEXIT
 0030AA                            25646                       END
                                   25650
 0030AA 18D8/9808 D004_            25651              SEGEXIT  PEND
 DROP   UNET,R6
 DROP   SEGCB,R5
1NPAT     (NPAT2193) (12:50) (15MAR04) Network Interface Routines                                                           Page   88
0Current Usings:  (CP,R11) (CV,R12)
0Loc    Object Code    Addr1 Addr2  Stmt Lv Lineno    Source Statement           (Hibal 5, Asmedit 3.3)  HLASM R4.0  2004/03/15 12.50
+___    ______ ____    _____ _____  ____ __ ______    ______ _________
0DROP   *,R7
1NPAT     (NPAT2193) (12:50) (15MAR04) Network Interface Routines                                                           Page   89
0Current Usings:  (CP,R11) (CV,R12)
0Loc    Object Code    Addr1 Addr2  Stmt Lv Lineno    Source Statement           (Hibal 5, Asmedit 3.3)  HLASM R4.0  2004/03/15 12.50
+___    ______ ____    _____ _____  ____ __ ______    ______ _________
0                                  25683              ¿þþþþþþþþþþþþþþþþþþþþþþþþþþþþþþþþþþþþþþþþþþþþþþþþþþþþþþþþþþþþþþþþþþþþþÜ
                                   25684              Ÿ                                                                     Ÿ
                                   25685              Ÿ  NPATWAIT -- Local routine to wait for network path to change       Ÿ
                                   25686              Ÿ    states.  Usually this just means to wait until new data          Ÿ
                                   25687              Ÿ    arrives.                                                         Ÿ
                                   25688              Ÿ                                                                     Ÿ
                                   25689              Ÿ    On entry:                                                        Ÿ
                                   25690              Ÿ      R0  - Max number of seconds before timeout (0=infinite)        Ÿ
                                   25691              Ÿ      R1  - wait for path to enter this state (see UNETSTATE)        Ÿ
                                   25692              Ÿ              or higher                                              Ÿ
                                   25693              Ÿ      R15 - UNET ptr                                                 Ÿ
                                   25694              Ÿ                                                                     Ÿ
                                   25695              Ÿ    On exit, R15 (and cc):                                           Ÿ
                                   25696              Ÿ      0 - posted (see UNETSTATE);  R1,R0 = "OK"                      Ÿ
                                   25697              Ÿ      1 - error;                   R1,R0 = error message (TIMEOUT)   Ÿ
                                   25698              Ÿ                                                                     Ÿ
                                                      ¾þþþþþþþþþþþþþþþþþþþþþþþþþþþþþþþþþþþþþþþþþþþþþþþþþþþþþþþþþþþþþþþþþþþþþ»
00030B8 50E0 D000/9028_      00000 25699              NPATWAIT XPROC (R2,LSR)
 USING  *,R7
 0030D2 185F                       25739                       LR    R5,R15
 USING  UNET,R5                    25740                       WITH  (UNET,R5)
 0030D4 5860 C1C8            001C8 25753                       L     R6,CVCURJCB
 USING  JCB,R6                     25754                       WITH  (JCB,R6)
                                   25767
 0030D8 D503 7342 5000_03414 00000 25768                       FAIL  (UNET,NE,'UNET'),NPATWT1,'Net path WAIT error.'
                                   25797
 0030FA 58F0 5010            00010 25798                       L     R15,UNETJCBP
 0030FE D603 5014 5014_00014 00014 25799                       IF    ((UNETLINK,NZ),OR,(R6,NE,R15)),BEGIN  Trouble...
 00310E 0700/0ADE/0116_            25829  1                      QSNAP 'NPATWAIT trace info...',MODE=LOG
 003118 0ADE/087800005_            25834  1                      QSNAP UNET,L'UNET
 003120                            25838                       END
                                   25842
 003120 D603 5014 5014_00014 00014 25843                       FAIL  (UNETLINK,NZ),NPATWT2,'Net path WAIT error.'
 003142 5960 5010/4780_      00010 25871                       FAIL  (R6,NE,UNETJCBP),NPATWT3,'Net path WAIT error.'
                                   25900
 003162 4210 5161            00161 25901                       STC   R1,UNETPOST         Save post state
                                   25902                       ¿þþþþþþþþþþþþþþþþþþþþþþþþþþþþþþþþþþþþþþÜ
                                   25903                       Ÿ  Save timeout clock value in UPATH.  Ÿ
                                   25904                       ¾þþþþþþþþþþþþþþþþþþþþþþþþþþþþþþþþþþþþþþ»
 003166 58F0 7356            03428 25905                       L     R15,=F'-1'          No timeout possible
 00316A 1200/4780 70A4             25906                       IF    (R0,NZ),BEGIN       Timeout specified...
 003170 58F0 C630            00630 25920  1                      L     R15,CVDSPCLK        Current TOD clock
 003174 1AF0                       25921  1                      AR    R15,R0
 003176                            25922                       END
 003176 50F0 50FC            000FC 25926                       ST    R15,UNETXCLK        Clock when timeout happens
                                   25927                       ¿þþþþþþþþþþþþþþþþþþþþþþþþþþþþþþþþþþþþþþþþþþþþþþþþÜ
                                   25928                       Ÿ  Return immediately if we are already posted.  Ÿ
                                   25929                       ¾þþþþþþþþþþþþþþþþþþþþþþþþþþþþþþþþþþþþþþþþþþþþþþþþ»
 00317A D500 5160 5161_00160 00161 25930                       IF    (UNETSTATE,GE,UNETPOST),BEGIN  Posted...
 003184 58E0 736A/0DEE       0343C 25948  1                      VCALL SLICECHK            Check for timeslice expiration
 00318A 47F0 7122            031F4 25952  1                      B     NWTDONE             All done, scram
 00318E                            25953                       END
1NPAT     (NPAT2193) (12:50) (15MAR04) Network Interface Routines                                                           Page   90
0Current Usings:  (UNET,R5) (JCB,R6) (*,R7) (CP,R11) (CV,R12)
0Loc    Object Code    Addr1 Addr2  Stmt Lv Lineno    Source Statement           (Hibal 5, Asmedit 3.3)  HLASM R4.0  2004/03/15 12.50
+___    ______ ____    _____ _____  ____ __ ______    ______ _________
0                                  25957                       ¿þþþþþþþþþþþþþþþþþþþþþþþþþþþþþþþþþþþþþþþþþþþþþþþþþÜ
                                   25958                       Ÿ  Go to the dispatcher (and wait to be posted).  Ÿ
                                   25959                       ¾þþþþþþþþþþþþþþþþþþþþþþþþþþþþþþþþþþþþþþþþþþþþþþþþþ»
 00318E D203 5014 C0B0 00014 000B0 25960                       MVC   UNETLINK,CVUNETQH   Link the rest to us
 003194 5050 C0B0            000B0 25961                       ST    R5,CVUNETQH         Save new queue head
                                   25962
 003198 9640 6061      00061       25963                       SET   JCBWWFPT            Waiting for path post
 00319C 41E0 70D8/900F_      031AA 25969                       PAUSE ,
                                   25976                       ¿þþþþþþþþþþþþþþþþþþþþþþþþþþþþþþþþþþþþþþþþþþþþþþþþþþþþþþþþþþþÜ
                                   25977                       Ÿ  Returns when either the connection state is high enough  Ÿ
                                   25978                       Ÿ    to be posted or if an ATTN has been received.          Ÿ
                                   25979                       ¾þþþþþþþþþþþþþþþþþþþþþþþþþþþþþþþþþþþþþþþþþþþþþþþþþþþþþþþþþþþ»
 0031AA 4130 C09C            0009C 25980                       LA    R3,CVUNETQH-(UNETLINK-UNET)  Dummy queue head
 0031AE                            25981                       LOOP  BEGIN
 0031AE 1823                       25987  1                      LR    R2,R3               Save prev ptr
 DROP   UNET,R5                    25988  1                      WITH  (UNET,R3)
 USING  UNET,R3
 0031B0 5830 3014/1233       00014 26009  1                      LT    R3,UNETLINK         Next queue entry
 0031B6 4780 7122            031F4 26013  1                      IF    Z,EXIT              All done, scram
 0031BA D503 7342 3000_03414 00000 26027  1                      FAIL  (UNET,NE,'UNET'),NWAIT  (Better safe than sloppy)
                                   26055  1
 0031D8 5960 3010/4770_      00010 26056  1                      IF    (R6,EQ,UNETJCBP),BEGIN  Our path...
 0031E0 58F0 3014            00014 26073  2                        L     R15,UNETLINK        Next in queue
 0031E4 D703 3014 3014 00014 00014 26074  2                        CLEAR UNETLINK            (Neatness)
 0031EA 1832                       26081  2                        LR    R3,R2               Back up
 0031EC 50F0 3014            00014 26082  2                        ST    R15,UNETLINK        This takes us out of the queue
 0031F0                            26083  1                      END
 0031F0 47F0 70DC            031AE 26087                       END
 USING  UNET,R5
 DROP   UNET,R3
                                   26106                       ¿þþþþþþþþþþþþþþÜ
                                   26107                       Ÿ  Finish up.  Ÿ
                                   26108                       ¾þþþþþþþþþþþþþþ»
 0031F4 1BFF                       26109              NWTDONE  CLEAR R15                 A-ok
 0031F6 4110 73EE/4100_      034C0 26114                       SETMSG 'OK'                Ditto
                                   26118
 0031FE D503 50FC C630_000FC 00630 26119                       IF    (UNETXCLK,LT,CVDSPCLK),BEGIN  Timeout...
 003208 41F0 0001            00001 26137  1                      LA    R15,1
 00320C 4110 7427/4100_      034F9 26138  1                      SETMSG 'TIMEOUT'
 003214                            26142                       END
                                   26146
 003214 9104 6063/47E0_00063       26147                       IF    JCBFATTNFREE,BEGIN  Attn...
 00321C 41F0 0001            00001 26162  1                      LA    R15,1
 003220 4110 7372/4100_      03444 26163  1                      SETMSG 'ATTN'
 003228                            26167                       END
                                   26171
 003228 18D8/9828 D004_            26172                       PEND
 DROP   JCB,R6
 DROP   UNET,R5
 DROP   *,R7
1NPAT     (NPAT2193) (12:50) (15MAR04) Network Interface Routines                                                           Page   91
0Current Usings:  (CP,R11) (CV,R12)
0Loc    Object Code    Addr1 Addr2  Stmt Lv Lineno    Source Statement           (Hibal 5, Asmedit 3.3)  HLASM R4.0  2004/03/15 12.50
+___    ______ ____    _____ _____  ____ __ ______    ______ _________
0                                  26203              ¿þþþþþþþþþþþþþþþþþþþþþþþþþþþþþþþþþþþþþþþþþþþþþþþþþþþþþþþþþþþþþþþþþþþþþÜ
                                   26204              Ÿ                                                                     Ÿ
                                   26205              Ÿ  NPATQ -- Routine to put all the user's paths whose posts           Ÿ
                                   26206              Ÿ    can interrupt terminal I/O on the active queue (which gets       Ÿ
                                   26207              Ÿ    checked by the dispatcher).                                      Ÿ
                                   26208              Ÿ                                                                     Ÿ
                                   26209              Ÿ    Note that NPATDEQ must be called before doing any more           Ÿ
                                   26210              Ÿ    path I/O.  Normally TREAD calls this routine before doing        Ÿ
                                   26211              Ÿ    a terminal read (if the read is interruptible) and then          Ÿ
                                   26212              Ÿ    calls NPATDEQ immediately upon completion.                       Ÿ
                                   26213              Ÿ                                                                     Ÿ
                                   26214              Ÿ    On exit, R15 (and cc):                                           Ÿ
                                   26215              Ÿ      0 - ok                                                         Ÿ
                                   26216              Ÿ      4 - a path has already been posted (no action taken)           Ÿ
                                   26217              Ÿ                                                                     Ÿ
                                                      ¾þþþþþþþþþþþþþþþþþþþþþþþþþþþþþþþþþþþþþþþþþþþþþþþþþþþþþþþþþþþþþþþþþþþþþ»
0003236 50E0 D000/9008_      00000 26218              NPATQ    XPROC
 USING  *,R7
 003250 5860 C1C8            001C8 26258                       L     R6,CVCURJCB
 USING  JCB,R6                     26259                       WITH  (JCB,R6)
                                   26272                       ¿þþþþþþþþþþþþþþþþþþþþþþþþþþþþþþþþþþþþþþþþþþþþÜ
                                   26273                       Ÿ  Go through all user network connections.  Ÿ
                                   26274                       ¾þþþþþþþþþþþþþþþþþþþþþþþþþþþþþþþþþþþþþþþþþþþþ»
 003254 4130 0001            00001 26275                       LA    R3,1
 003258 5840 C0A8            000A8 26276                       L     R4,CVNETP
 00325C 5930 71F8/4730_      03448 26277                       WHILE (R3,LE,CVNET#),BEGIN
 003264 5850 4000/1255_      00000 26296  1                      IF    ('LT R5,@R4',NZ),BEGIN
 USING  UNET,R5                    26312  2                        WITH  (UNET,R5)
 00326E 5960 5010/4770_      00010 26325  2                        IF    (R6,EQ,UNETJCBP),BEGIN  Our net path...
                                   26342  3
 003276 D503 71C4 5000_03414 00000 26343  3                          FAIL  (UNET,NE,'UNET'),NINTQ1,'NETPQ logic error.'
 003298 D603 5014 5014_00014 00014 26372  3                          FAIL  (UNETLINK,NZ),NINTQ2,'NETPQ logic error.'
 0032BA 9110 502C/47E0_0002C       26400  3                          IF    ~UNETFINT,EXIT      Skip this connection
                                   26418  3
 0032C2 9205 5161      00161       26419  3                          MVI   UNETPOST,UNETSFDATASTOP  Post if new data, etc.
                                   26420  3                          ¿þþþþþþþþþþþþþþþþþþþþþþþþþþþþþþþþþþþþþþþþþþþþþþþþþþþþþþþþþþþþþÜ
                                   26421  3                          Ÿ  Check to see if the network connection is already posted.  Ÿ
                                   26422  3                          ¾þþþþþþþþþþþþþþþþþþþþþþþþþþþþþþþþþþþþþþþþþþþþþþþþþþþþþþþþþþþþþ»
 0032C6 D500 5160 5161_00160 00161 26423  3                          IF    (UNETSTATE,GE,UNETPOST),BEGIN  Posted...
 0032D0 41F0 5000            00000 26441  4                            LA    R15,UNET
 0032D4 4DE0 70BC            0330C 26442  4                            LCALL NPATDEQ             Dequeue prev Q'd entries
 0032D8 41F0 0004            00004 26444  4                            LA    R15,4               Hey, already posted
 0032DC 47F0 70AE            032FE 26445  4                            B     NPATINQX
 0032E0                            26446  3                          END
                                   26450  3                          ¿þþþþþþþþþþþþþþþþþþþþþþþþþþþþþþþþþþþþþþþþþþþþþþþþþþþþþþþþþþþþþþÜ
                                   26451  3                          Ÿ  Add path to dispatcher's active path queue (see NPATWAIT).  Ÿ
                                   26452  3                          ¾þþþþþþþþþþþþþþþþþþþþþþþþþþþþþþþþþþþþþþþþþþþþþþþþþþþþþþþþþþþþþþ»
 0032E0 D203 50FC 71D8 000FC 03428 26453  3                          MVC   UNETXCLK,=F'-1'     No timeout
 0032E6 D203 5014 C0B0 00014 000B0 26454  3                          MVC   UNETLINK,CVUNETQH   Linked list
 0032EC 5050 C0B0            000B0 26455  3                          ST    R5,CVUNETQH         We are the new queue head
 0032F0                            26456  2                        END
 DROP   UNET,R5                    26460  1                      END
                                   26469  1
1NPAT     (NPAT2193) (12:50) (15MAR04) Network Interface Routines                                                           Page   92
0Current Usings:  (JCB,R6) (*,R7) (CP,R11) (CV,R12)
0Loc    Object Code    Addr1 Addr2  Stmt Lv Lineno    Source Statement           (Hibal 5, Asmedit 3.3)  HLASM R4.0  2004/03/15 12.50
+___    ______ ____    _____ _____  ____ __ ______    ______ _________
00032F0 4140 4004            00004 26470  1                      LA    R4,@R4+4            Next UNET ptr
 0032F4 4130 3001            00001 26471  1                      LA    R3,@R3+1            Next UNET number
 0032F8 47F0 700C            0325C 26472                       END
                                   26477
 0032FC 1BFF                       26478                       CLEAR R15                 A-ok
 0032FE 18D8/9808 D004_            26482              NPATINQX PEND
 DROP   JCB,R6
 DROP   *,R7
1NPAT     (NPAT2193) (12:50) (15MAR04) Network Interface Routines                                                           Page   93
0Current Usings:  (CP,R11) (CV,R12)
0Loc    Object Code    Addr1 Addr2  Stmt Lv Lineno    Source Statement           (Hibal 5, Asmedit 3.3)  HLASM R4.0  2004/03/15 12.50
+___    ______ ____    _____ _____  ____ __ ______    ______ _________
0                                  26509              ¿þþþþþþþþþþþþþþþþþþþþþþþþþþþþþþþþþþþþþþþþþþþþþþþþþþþþþþþþþþþþþþþþþþþþþÜ
                                   26510              Ÿ                                                                     Ÿ
                                   26511              Ÿ  NPATDEQ -- Routine to take all the user's paths off the            Ÿ
                                   26512              Ÿ    active queue.  This routine is the 'dequeue' call for            Ÿ
                                   26513              Ÿ    NPATQ; see the comments for that routine.                        Ÿ
                                   26514              Ÿ                                                                     Ÿ
                                                      ¾þþþþþþþþþþþþþþþþþþþþþþþþþþþþþþþþþþþþþþþþþþþþþþþþþþþþþþþþþþþþþþþþþþþþþ»
000330C 50E0 D000/9008_      00000 26515              NPATDEQ  XPROC
 USING  *,R7
 003326 5860 C1C8            001C8 26555                       L     R6,CVCURJCB
 USING  JCB,R6                     26556                       WITH  (JCB,R6)
                                   26569                       ¿þþþþþþþþþþþþþþþþþþþþþþþþþþþþþþþþþþþþþþþþþþþþþþþþÜ
                                   26570                       Ÿ  Take all of this user's paths off the queue.  Ÿ
                                   26571                       ¾þþþþþþþþþþþþþþþþþþþþþþþþþþþþþþþþþþþþþþþþþþþþþþþþ»
 00332A 4130 C09C            0009C 26572                       LA    R3,CVUNETQH-(UNETLINK-UNET)  Dummy queue head
 00332E                            26573                       LOOP  BEGIN
 00332E 1823                       26579  1                      LR    R2,R3               Save prev ptr
 USING  UNET,R3                    26580  1                      WITH  (UNET,R3)
 003330 5830 3014/1233       00014 26593  1                      LT    R3,UNETLINK         Next queue entry
 003336 4780 7030            03356 26597  1                      IF    Z,EXIT              All done, scram
                                   26611  1
 00333A 5960 3010/4770_      00010 26612  1                      IF    (R6,EQ,UNETJCBP),BEGIN  Our path...
 003342 58F0 3014            00014 26629  2                        L     R15,UNETLINK        Next in queue
 003346 D703 3014 3014 00014 00014 26630  2                        CLEAR UNETLINK            (Neatness)
 00334C 1832                       26637  2                        LR    R3,R2               Back up
 00334E 50F0 3014            00014 26638  2                        ST    R15,UNETLINK        This takes us out of the queue
 003352                            26639  1                      END
 003352 47F0 7008            0332E 26643                       END
 DROP   UNET,R3
                                   26653
 003356 1BFF                       26654                       CLEAR R15                 (Neatness)
 003358 18D8/9808 D004_            26658                       PEND
 DROP   JCB,R6
 DROP   *,R7
1NPAT     (NPAT2193) (12:50) (15MAR04) Network Dump Formatting Routine                                                      Page   94
0Current Usings:  (CP,R11) (CV,R12)
0Loc    Object Code    Addr1 Addr2  Stmt Lv Lineno    Source Statement           (Hibal 5, Asmedit 3.3)  HLASM R4.0  2004/03/15 12.50
+___    ______ ____    _____ _____  ____ __ ______    ______ _________
0                                  26685              ¿þþþþþþþþþþþþþþþþþþþþþþþþþþþþþþþþþþþþþþþþþþþþþþþþþþþþþþþþþþþþþþþþþþþþþÜ
                                   26686              Ÿ                                                                     Ÿ
                                   26687              Ÿ  NETFMT -- Routine to format networking information for the         Ÿ
                                   26688              Ÿ    dump formatter (called from FAIL module).                        Ÿ
                                   26689              Ÿ                                                                     Ÿ
                                                      ¾þþþþþþþþþþþþþþþþþþþþþþþþþþþþþþþþþþþþþþþþþþþþþþþþþþþþþþþþþþþþþþþþþþþþþ»
0003366 50E0 D000/9008_      00000 26690              NETFMT   XPROC
 USING  *,R7
 003380 58E0 70CC/0DEE       0344C 26730                       VCALL NETDISP             Display general information
 003386 58E0 70D0/0DEE       03450 26734                       ACALL NTRCDISP            Display trace table
 00338C 18D8/9808 D004_            26738                       PEND
 DROP   *,R7
                                   26758
                                   26759                       QLTORG
1NPAT     (NPAT2193) (12:50) (15MAR04) Network Dump Formatting Routine                                                      Page   95
0Current Usings:  (CP,R11) (CV,R12)
0Loc    Object Code    Addr1 Addr2  Stmt Lv Lineno    Source Statement           (Hibal 5, Asmedit 3.3)  HLASM R4.0  2004/03/15 12.50
+___    ______ ____    _____ _____  ____ __ ______    ______ _________
0                                  26836              ¿þþþþþþþþþþþþþþþþþþþþþþþþþþþþþþþþþþþþþþþþþþþþþþþþþþþþþþþþþþþþþþþþþþþþþÜ
                                   26837              Ÿ                                                                     Ÿ
                                   26838              Ÿ  NTRCDISP -- Routine to display the network trace table.            Ÿ
                                   26839              Ÿ                                                                     Ÿ
                                   26840              Ÿ    This routine is called by the SHOW WNET command and also the     Ÿ
                                   26841              Ÿ    dump formatter.                                                  Ÿ
                                   26842              Ÿ                                                                     Ÿ
                                                      ¾þþþþþþþþþþþþþþþþþþþþþþþþþþþþþþþþþþþþþþþþþþþþþþþþþþþþþþþþþþþþþþþþþþþþþ»
0000000                00000 00008 26843              SHTRWA   RECORD BEGIN
 000000                            26851  1           SHTRPTRS   DS    2A                  Working trace data ptrs
 000008                00008 00008 26852                       END
                                   26861              þþþþ
 00350C 50E0 D000/9008_      00000 26862              NTRCDISP XPROC SHTRWA
 USING  *,R7
 USING  SHTRWA-(4+36),R8
                                   26913                       ¿þþþþþþþþþþþþþþþþþþþþþþþþþþÜ
                                   26914                       Ÿ  Start with title line.  Ÿ
                                   26915                       ¾þþþþþþþþþþþþþþþþþþþþþþþþþþ»
 003526 D603 C2B4 C2B4_002B4 002B4 26916                       IF    (CVETRCP,Z),BEGIN   No trace entries...
 003530 4110 7B04/4100_      0402A 26932  1                      SETMSG 'Network trace table is empty.'
 003538 47F0 71F6            0371C 26936  1                      B     NTRCEXIT
 00353C                            26937                       END
                                   26941
 00353C 4110 7B21/4100_      04047 26942                       TSEG  'Network I/O trace',,CR
 00354E 4110 7B32/4100_      04058 26960                       TSEG  '-----------------',,CR
 003560 1B00/41F0 B050_            26978                       TCR
                                   27003                       ¿þþþþþþþþþþþþþþþþþþþþþþþþþþþþþþþþþþþþþþþÜ
                                   27004                       Ÿ  Step through the trace entry queue.  Ÿ
                                   27005                       ¾þþþþþþþþþþþþþþþþþþþþþþþþþþþþþþþþþþþþþþþ»
 00356C 4160 C2B0            002B0 27006                       LA    R6,CVETRCP-(ETRCLINK-ETRC)  Dummy first link
 003570                            27007                       LOOP  BEGIN
 USING  ETRC,R6                    27013  1                      WITH  (ETRC,R6)
 003570 5860 6004/1266_      00004 27026  1                      WHILE ('LT R6,ETRCLINK',NZ)  Go through buffers...
                                   27043  1                      ¿þþþþþþþþþþþþþþþþþþþþþþþþþþþÜ
                                   27044  1                      Ÿ  Format the trace entry.  Ÿ
                                   27045  1                      ¾þþþþþþþþþþþþþþþþþþþþþþþþþþþ»
 00357A D503 79BE 6000_03EE4 00000 27046  1                      IF    (ETRC,NE,'ETRC'),BEGIN  Shucks...
 003584 4110 7A62/4100_      03F88 27063  2                        SETMSG 'Bad trace entry queue!'
 00358C 47F0 71F6            0371C 27067  2                        B     NTRCEXIT
 003590                            27068  1                      END
                                   27072  1
 003590 9801 6008            00008 27073  1                      LM    R0,R1,ETRCCLCK      Get time stamp
 003594 18FD/41D0 D00C             27074  1                      XPUSH ,,11,PTR=R15
 00359A 58E0 79C2/0DEE       03EE8 27077  1                      VCALL FMTTIME             Get "hh:mm:ss.th"
 0035A0 41F0 B050/58E0_      00050 27081  1                      TSEG  (R1),(R0),B
 0035AA 4110 7B43/4100_      04069 27105  1                      TSEG  'Line '
 0035BC 4810 6010/4100_      00010 27123  1                      TNUM  LH:ETRCSNO,3        Session number
 0035CE 4110 C4D8/4100_      004D8 27147  1                      TSEG  CVBLANKS,1
 0035E0 4110 6015/4100_      00015 27177  1                      TSEG  ETRCACCT+3,2        gg
 0035F2 4110 7B48/4100_      0406E 27207  1                      TSEG  '.'
 003604 4110 6012/4100_      00012 27225  1                      TSEG  ETRCACCT,3          uuu
                                   27255  1
 003616 4110 7B49/4100_      0406F 27256  1                      SETMSG ' -- ??? -- '
1NPAT     (NPAT2193) (12:50) (15MAR04) Network Dump Formatting Routine                                                      Page   96
0Current Usings:  (ETRC,R6) (*,R7) (SHTRWA-(4+36),R8) (CP,R11) (CV,R12)
0Loc    Object Code    Addr1 Addr2  Stmt Lv Lineno    Source Statement           (Hibal 5, Asmedit 3.3)  HLASM R4.0  2004/03/15 12.50
+___    ______ ____    _____ _____  ____ __ ______    ______ _________
000361E 9180 6017/47E0_00017       27260  1                      IF    ETRCFOUT,'SETMSG " >> OUTPUT >> "'
 00362E 9140 6017/47E0_00017       27284  1                      IF    ETRCFIN,' SETMSG " << INPUT  << "'
 00363E 41F0 B050/58E0_      00050 27308  1                      TSEG  (R1),(R0)
                                   27332  1
 003648 4110 601A/4800_      0001A 27333  1                      SETMSG ETRCDATA,LH:ETRCDLEN
 003650 9001 8028            00000 27346  1                      STM   R0,R1,SHTRPTRS
                                   27347  1
 003654 5900 79D2/47D0_      03EF8 27348  1                      IF    (R0,GT,16),BEGIN
 00365C 4100 0010/41F0_      00010 27365  2                        TSEG  (R1),16,TB
 00366A 9801 8028            00000 27392  2                        LM    R0,R1,SHTRPTRS
 00366E 4110 1010            00010 27393  2                        LA    R1,@R1+16
 003672 4B00 7A94            03FBA 27394  2                        SH    R0,=H'16'
 003676 9001 8028            00000 27395  2                        STM   R0,R1,SHTRPTRS
 00367A                            27396  1                      END
                                   27400  1
 00367A 4110 7B54/4100_      0407A 27401  1                      TSEG  '('
 00368C 5810 8028/1B00_      00000 27419  1                      TNUM  L:SHTRPTRS
 00369C 4110 7B55/4100_      0407B 27441  1                      TSEG  ' bytes)',,CR
                                   27459  1
 0036AE 9801 8028            00000 27460  1                      LM    R0,R1,SHTRPTRS      Data len, loc
 0036B2 18F1                       27461  1                      LR    R15,R1
 0036B4 4BF0 7A94            03FBA 27462  1                      SH    R15,=H'16'          Back up to ID prefix
                                   27463  1
                                   27464  1         C            IF    ((@R15,EQ,'ERROR_PREV_REQ:'),
                                          1         C                  OR,(@R15,EQ,'TCP_OPEN:'),
                                          1         C                  OR,(@R15,EQ,'TCP_OPEN_INFO:'),
                                          1         C                  OR,(@R15,EQ,'TCP_INFO:'),
                                          1         C                  OR,(@R15,EQ,'TCP_CONNECT:'),
 0036B8 D50E 7B5C F000_04082 00000        1                            OR,(@R15,EQ,'TCP_ABORT:')),BEGIN
 0036F4 41F0 0001/58E0_      00001 27547  2                        HEXDUMP (R1),(R0),FORM=OFFSET,CHARSET=EBCDIC
 0036FE                            27563  1                      END
                                   27567  1
 0036FE 71DC/47F0 71E6 036FE 036F2 27568  1                      ELSE  BEGIN
 003702 41F0 0003/58E0_      00003 27579  2                        HEXDUMP (R1),(R0),FORM=OFFSET,CHARSET=ASCII
 00370C                            27595  1                      END
                                   27599  1
 00370C 1B00/41F0 B050_            27600  1                      TCR
 003718 47F0 704A            03570 27625                       END
 DROP   ETRC,R6
                                   27635
 00371C 18D8/9808 D004_            27636              NTRCEXIT PEND
 DROP   SHTRWA-(4+36),R8
 DROP   *,R7
1NPAT     (NPAT2193) (12:50) (15MAR04) Network Dump Formatting Routine                                                      Page   97
0Current Usings:  (CP,R11) (CV,R12)
0Loc    Object Code    Addr1 Addr2  Stmt Lv Lineno    Source Statement           (Hibal 5, Asmedit 3.3)  HLASM R4.0  2004/03/15 12.50
+___    ______ ____    _____ _____  ____ __ ______    ______ _________
0                                  27663              ¿þþþþþþþþþþþþþþþþþþþþþþþþþþþþþþþþþþþþþþþþþþþþþþþþþþþþþþþþþþþþþþþþþþþþþÜ
                                   27664              Ÿ                                                                     Ÿ
                                   27665              Ÿ  DISPUNET -- Routine to display formatted information about         Ÿ
                                   27666              Ÿ    the UNET specified.                                              Ÿ
                                   27667              Ÿ                                                                     Ÿ
                                   27668              Ÿ    On entry:                                                        Ÿ
                                   27669              Ÿ      R15 - UNET ptr                                                 Ÿ
                                   27670              Ÿ                                                                     Ÿ
                                                      ¾þþþþþþþþþþþþþþþþþþþþþþþþþþþþþþþþþþþþþþþþþþþþþþþþþþþþþþþþþþþþþþþþþþþþþ»
000372A 50E0 D000/9008_      00000 27671              DISPUNET XPROC
 USING  *,R7
 003744 185F                       27711                       LR    R5,R15
 USING  UNET,R5                    27712                       WITH  (UNET,R5)
                                   27725
 003746 5810 500C/1B00_      0000C 27726                       TNUM  L:UNETPNO
 003756 4110 77CC/4100_      03F10 27748                       TSEG  ' -- UNET at '
 003768 4110 5000/4100_      00000 27766                       THEX  LA:UNET,8
 00377A 4110 7890/4100_      03FD4 27791                       TSEG  ' for line '
                                   27809
 00378C 4810 500A/1B00_      0000A 27810                       TNUM  LH:UNETSNO
 00379C 4110 795F/4100_      040A3 27831                       TSEG  ' '
 0037AE 4110 5007/4100_      00007 27849                       TSEG  UNETGRP
 0037C0 4110 792A/4100_      0406E 27877                       TSEG  '.'
 0037D2 4110 5004/4100_      00004 27895                       TSEG  UNETUSER
                                   27923
 0037E4 4110 77DC/4100_      03F20 27924                       TSEG  ', Amelia ID '
 0037F6 5810 5170/1B00_      00170 27942                       TNUM  L:UNETAID
 003806 1B00/41F0 B050_            27964                       TCR
                                   27989
 003812 4110 7960/4100_      040A4 27990                       TSEG  '    JCB at '
 003824 5810 5010/4100_      00010 28008                       THEX  L:UNETJCBP,8
 003836 4110 796B/4100_      040AF 28033                       TSEG  ', AMY UPATH at '
 003848 5810 5020/4100_      00020 28051                       THEX  L:UNETPATP,8
 00385A D603 5024 5024_00024 00024 28076                       IF    (UNETSVIB,NZ),BEGIN
 003864 4110 789A/4100_      03FDE 28092  1                      TSEG  ', SVIB at '
 003876 5810 5024/4100_      00024 28110  1                      THEX  L:UNETSVIB,8
 003888                            28135                       END
 003888 1B00/41F0 B050_            28139                       TCR
                                   28164
 003894 D603 5014 5014_00014 00014 28165                       IF    (UNETLINK,NZ),BEGIN
 00389E 4110 797A/4100_      040BE 28181  1                      TSEG  '    Next UNET on waiting queue '
 0038B0 5810 5014/4100_      00014 28199  1                      THEX  L:UNETLINK,8
 0038C2 1B00/41F0 B050_            28224  1                      TCR
 0038CE                            28249                       END
                                   28253
 0038CE D603 5028 5028_00028 00028 28254                       IF    (UNETCTR1,NZ),BEGIN
 0038D8 4110 7999/4100_      040DD 28270  1                      TSEG  'Full queue suspends: '
 0038EA 5810 5028/1B00_      00028 28288  1                      TNUM  L:UNETCTR1
 0038FA 1B00/41F0 B050_            28310  1                      TCR
 003906                            28335                       END
                                   28339
 003906 4110 79AE/4100_      040F2 28340                       TSEG  '    Flags 1 and 2: '
 003918 4810 502C/4100_      0002C 28358                       THEX  LH:UNETFLG1,4
1NPAT     (NPAT2193) (12:50) (15MAR04) Network Dump Formatting Routine                                                      Page   98
0Current Usings:  (UNET,R5) (*,R7) (CP,R11) (CV,R12)
0Loc    Object Code    Addr1 Addr2  Stmt Lv Lineno    Source Statement           (Hibal 5, Asmedit 3.3)  HLASM R4.0  2004/03/15 12.50
+___    ______ ____    _____ _____  ____ __ ______    ______ _________
000392A 1B00/41F0 B050_            28382                       TCR
                                   28407
 003936 D63F 502E 502E_0002E 0002E 28408                       IF    (UNETEMSG,NZ),BEGIN
 003940 4110 78A4/4100_      03FE8 28424  1                      TSEG  '    EMSG: '
 003952 4110 502E/4100_      0002E 28442  1                      TSEG  UNETEMSG,L'UNETEMSG
 003964 1B00/41F0 B050_            28472  1                      TCR
 003970                            28497                       END
                                   28501
 003970 D603 5070 5070_00070 00070 28502                       IF    (UNETWAIT,NZ),BEGIN
 00397A 4110 79C1/4100_      04105 28518  1                      TSEG  '    Timeout value: '
 00398C 5810 5070/1B00_      00070 28536  1                      TNUM  L:UNETWAIT
 00399C 1B00/41F0 B050_            28558  1                      TCR
 0039A8                            28583                       END
                                   28587
 0039A8 D503 77E8 50FC_03F2C 000FC 28588                       IF    (UNETXCLK,NE,-1),BEGIN
 0039B2 4110 79D4/4100_      04118 28606  1                      TSEG  '    Timeout TOD: '
 0039C4 5810 50FC/4100_      000FC 28624  1                      THEX  L:UNETXCLK,8
 0039D6 1B00/41F0 B050_            28649  1                      TCR
 0039E2                            28674                       END
                                   28678
 0039E2 4110 78AE/4100_      03FF2 28679                       TSEG  '    SEG flag: '
 0039F4 1F11/4310 5104_            28697                       THEX  LC:UNETSGFLG,2
 003A08 1B00/41F0 B050_            28727                       TCR
                                   28752
 003A14 4110 79E5/4100_      04129 28753                       TSEG  '    Post completion flags: '
 003A26 1F11/4310 5161_            28771                       THEX  LC:UNETPOST,2
 003A3A 1B00/41F0 B050_            28801                       TCR
                                   28826                       ¿þþþþþþþþþþþþþþþþþþþþþþþþþþþþþÜ
                                   28827                       Ÿ  Display connection state.  Ÿ
                                   28828                       ¾þþþþþþþþþþþþþþþþþþþþþþþþþþþþþ»
 003A46 4110 78BC/4100_      04000 28829                       TSEG  '    State='
 003A58 4110 7A00/4100_      04144 28847                       SETMSG 'Unknown'
 003A60 9500 5160/4770_00160       28851                       IF    (UNETSTATE,Z),'SETMSG "Never opened"'
 003A70 9501 5160/4770_00160       28876                       IF    (UNETSTATE,EQ,UNETSFINITIAL),'SETMSG "Initializing"'
 003A80 9502 5160/4770_00160       28903                       IF    (UNETSTATE,EQ,UNETSFOPENING),'SETMSG "Opening"'
 003A90 9503 5160/4770_00160       28930                       IF    (UNETSTATE,EQ,UNETSFOPENSTOP),'SETMSG "Open/Stopped"'
 003AA0 9504 5160/4770_00160       28957                       IF    (UNETSTATE,EQ,UNETSFOPEN),'SETMSG "Open"'
 003AB0 9505 5160/4770_00160       28984                IF (UNETSTATE,EQ,UNETSFDATASTOP),'SETMSG "Data waiting/Stopped"'
 003AC0 9506 5160/4770_00160       29011                       IF    (UNETSTATE,EQ,UNETSFDATA),'SETMSG "Data waiting"'
 003AD0 9507 5160/4770_00160       29038                       IF    (UNETSTATE,EQ,UNETSFABORT),'SETMSG "Aborted"'
 003AE0 9508 5160/4770_00160       29065                       IF    (UNETSTATE,EQ,UNETSFCLOSING),'SETMSG "Closing"'
 003AF0 9509 5160/4770_00160       29092                       IF    (UNETSTATE,EQ,UNETSFPATHCLS),'SETMSG "Path closed"'
 003B00 950A 5160/4770_00160       29119                       IF    (UNETSTATE,EQ,UNETSFCLOSE),'SETMSG "Closed"'
 003B10 41F0 B050/58E0_      00050 29146                       TSEG  (R1),(R0)
                                   29170
 003B1A 9108 5164/47E0_00164       29171                       IF    UNETFINSTOP,'TSEG ", Input stopped"'
 003B34 9102 5164/47E0_00164       29209                       IF    UNETFINABORT,'TSEG ", ABORT received"'
 003B4E 9104 5164/47E0_00164       29247                       IF    UNETFINEOF,'TSEG ", EOF received"'
 003B68 9180 5164/47E0_00164       29285                       IF    UNETFOUTSTOP,'TSEG ", Output stopped"'
 003B82 9120 5164/47E0_00164       29323                       IF    UNETFOUTABORT,'TSEG ", ABORT sent"'
 003B9C 9140 5164/47E0_00164       29361                       IF    UNETFOUTEOF,'TSEG ", EOF sent"'
                                   29399
 003BB6 1B00/41F0 B050_            29400                       TCR
1NPAT     (NPAT2193) (12:50) (15MAR04) Network Dump Formatting Routine                                                      Page   99
0Current Usings:  (UNET,R5) (*,R7) (CP,R11) (CV,R12)
0Loc    Object Code    Addr1 Addr2  Stmt Lv Lineno    Source Statement           (Hibal 5, Asmedit 3.3)  HLASM R4.0  2004/03/15 12.50
+___    ______ ____    _____ _____  ____ __ ______    ______ _________
0                                  29425                       ¿þþþþþþþþþþþþþþþþþþþþþþþþþÜ
                                   29426                       Ÿ  Display IP addresses.  Ÿ
                                   29427                       ¾þþþþþþþþþþþþþþþþþþþþþþþþþ»
 003BC2 4110 7774/4100_      03EB8 29428                       TSEG  '    Our address='
 003BD4 1F11/4310 5174_            29446                       TNUM  LC:UNETLIP
 003BE6 4110 792A/4100_      0406E 29473                       TSEG  '.'
 003BF8 1F11/4310 5175_            29491                       TNUM  LC:UNETLIP+1
 003C0A 4110 792A/4100_      0406E 29518                       TSEG  '.'
 003C1C 1F11/4310 5176_            29536                       TNUM  LC:UNETLIP+2
 003C2E 4110 792A/4100_      0406E 29563                       TSEG  '.'
 003C40 1F11/4310 5177_            29581                       TNUM  LC:UNETLIP+3
 003C52 4110 7A36/4100_      0417A 29608                       TSEG  ', port '
 003C64 5810 5178/1B00_      00178 29626                       TNUM  L:UNETLPORT
 003C74 1B00/41F0 B050_            29648                       TCR
                                   29673
 003C80 4110 7A3D/4100_      04181 29674                       TSEG  '    Remote address='
 003C92 1F11/4310 51CC_            29692                       TNUM  LC:UNETRIP
 003CA4 4110 792A/4100_      0406E 29719                       TSEG  '.'
 003CB6 1F11/4310 51CD_            29737                       TNUM  LC:UNETRIP+1
 003CC8 4110 792A/4100_      0406E 29764                       TSEG  '.'
 003CDA 1F11/4310 51CE_            29782                       TNUM  LC:UNETRIP+2
 003CEC 4110 792A/4100_      0406E 29809                       TSEG  '.'
 003CFE 1F11/4310 51CF_            29827                       TNUM  LC:UNETRIP+3
 003D10 4110 7A36/4100_      0417A 29854                       TSEG  ', port '
 003D22 5810 51D0/1B00_      001D0 29872                       TNUM  L:UNETRPORT
 003D32 1B00/41F0 B050_            29894                       TCR
                                   29919
 003D3E D603 5154 5154_00154 00154 29920                       IF    (UNETINL,NZ),BEGIN
 003D48 4110 7784/4100_      03EC8 29936  1                      TSEG  '    Input buffer length='
 003D5A 5810 5154/1B00_      00154 29954  1                      TNUM  L:UNETINL
                                   29976  1
 003D6A 4110 7A50/4100_      04194 29977  1                      TSEG  ', current ptrs='
 003D7C 5810 515C/4100_      0015C 29995  1                      THEX  L:UNETINCUR+4,8
 003D8E 4110 78E4/4100_      04028 30020  1                      TSEG  ', '
 003DA0 5810 5158/4100_      00158 30038  1                      THEX  L:UNETINCUR,8
 003DB2 1B00/41F0 B050_            30063  1                      TCR
 003DBE                            30088                       END
                                   30092
 003DBE 4140 5148            00148 30093                       LA    R4,UNETINQH-(INBUFLNK-INBUF)  Dummy first link
 003DC2                            30094                       LOOP  BEGIN
 USING  INBUF,R4                   30100  1                      WITH  (INBUF,R4)
 003DC2 5840 4000/1244_      00000 30113  1                      WHILE ('LT R4,INBUFLNK',NZ)
 003DCC 1B00/41F0 B050_            30130  1                      TCR
 003DD8 4110 4008/5800_      00008 30155  1                      HEXDUMP INBUFDAT,L:INBUFLEN,FORM=OFFSET,CHARSET=ASCII
 003DEA 47F0 767E            03DC2 30175                       END
 DROP   INBUF,R4
                                   30185
 003DEE 1B00/41F0 B050_            30186                       TCR
                                   30211              *
                                   30212              * Display trace table if the connection has one
                                   30213              *
 003DFA D603 51FC 51FC_001FC 001FC 30214                       IF    (UNETTTBL,NZ),BEGIN
 003E04 4110 7A5F/4100_      041A3 30230  1                      TSEG  'Trace table: '
 003E16 1B00/41F0 B050_            30248  1                      TCR
1NPAT     (NPAT2193) (12:50) (15MAR04) Network Dump Formatting Routine                                                      Page  100
0Current Usings:  (UNET,R5) (*,R7) (CP,R11) (CV,R12)
0Loc    Object Code    Addr1 Addr2  Stmt Lv Lineno    Source Statement           (Hibal 5, Asmedit 3.3)  HLASM R4.0  2004/03/15 12.50
+___    ______ ____    _____ _____  ____ __ ______    ______ _________
0                                  30273  1           *
                                   30274  1           * Show entries from most recent to oldest
                                   30275  1           *
 003E22 5820 51FC            001FC 30276  1                      L     R2,UNETTTBL
 003E26 5830 5200            00200 30277  1                      L     R3,UNETTTNX
 003E2A 1233/4770 76F0_            30278  1                      IF    (R3,Z),'LA R3,CTRC#'
 003E34 0630                       30298  1                      BCTR  R3,0
 003E36 1863                       30299  1                      LR    R6,R3               Save endpoint here
                                   30300  1           *
                                   30301  1           *  Display most recent entry
                                   30302  1           *
 003E38 18F2                       30303  1                      LR    R15,R2
 003E3A 1803                       30304  1                      LR    R0,R3
 003E3C 8900 0005            00005 30305  1                      SLL   R0,CTRCSHFT
 003E40 1AF0                       30306  1                      AR    R15,R0
 003E42 58E0 7840/0DEE       03F84 30307  1                      ACALL DISPCTRC
 003E48 1233/4770 770E_            30311  1                      IF    (R3,Z),'LA R3,CTRC#'
 003E52 0630                       30331  1                      BCTR  R3,0
                                   30332  1           *
                                   30333  1           * Now display rest of entries
                                   30334  1           *
 003E54 1936/4780 7736             30335  1                      WHILE (R3,NE,R6),BEGIN
 003E5A 18F2                       30352  2                        LR    R15,R2
 003E5C 1803                       30353  2                        LR    R0,R3
 003E5E 8900 0005            00005 30354  2                        SLL   R0,CTRCSHFT
 003E62 1AF0                       30355  2                        AR    R15,R0
 003E64 58E0 7840/0DEE       03F84 30356  2                        ACALL DISPCTRC
 003E6A 1233/4770 7730_            30360  2                        IF    (R3,Z),'LA R3,CTRC#'
 003E74 0630                       30380  2                        BCTR  R3,0
 003E76 47F0 7710            03E54 30381  1                      END
                                   30386  1
 003E7A 1B00/41F0 B050_            30387  1                      TCR
 003E86                            30412                       END
 003E86 18D8/9808 D004_            30416                       PEND
 DROP   UNET,R5
 DROP   *,R7
                                   30441
                                   30442                       QLTORG
                                   30525              ¿þþþþþþþþþþþþþþþþþþþþþþþþþþþþþþþþþþþþþþþþþþþþþþþþþþþþþþþþþþþþþþþþþþþþþÜ
                                   30526              Ÿ                                                                     Ÿ
                                   30527              Ÿ  DISPCTRC -- Routine to display formatted information about         Ÿ
                                   30528              Ÿ    the CTRC entry specified.                                        Ÿ
                                   30529              Ÿ                                                                     Ÿ
                                   30530              Ÿ    On entry:                                                        Ÿ
                                   30531              Ÿ      R15 - CTRC ptr                                                 Ÿ
                                   30532              Ÿ                                                                     Ÿ
                                                      ¾þþþþþþþþþþþþþþþþþþþþþþþþþþþþþþþþþþþþþþþþþþþþþþþþþþþþþþþþþþþþþþþþþþþþþ»
00041B0 50E0 D000/9008_      00000 30533              DISPCTRC PROC
 USING  *,R7
 0041CA 185F                       30572                       LR    R5,R15
 USING  CTRC,R5                    30573                       WITH  (CTRC,R5)
                                   30586              *
                                   30587              *  Display entry
1NPAT     (NPAT2193) (12:50) (15MAR04) Network Dump Formatting Routine                                                      Page  101
0Current Usings:  (CTRC,R5) (*,R7) (CP,R11) (CV,R12)
0Loc    Object Code    Addr1 Addr2  Stmt Lv Lineno    Source Statement           (Hibal 5, Asmedit 3.3)  HLASM R4.0  2004/03/15 12.50
+___    ______ ____    _____ _____  ____ __ ______    ______ _________
0                                  30588              *
 0041CC D607 5000 5000_00000 00000 30589                       IF    (CTRCCLCK,NZ),BEGIN
 0041D6 9801 5000            00000 30605  1                      LM    R0,R1,CTRCCLCK      Get time stamp
 0041DA 18FD/41D0 D00C             30606  1                      XPUSH ,,11,PTR=R15
 0041E0 58E0 708E/0DEE       04258 30609  1                      VCALL FMTTIME             Get "hh:mm:ss.th"
 0041E6 41F0 B050/58E0_      00050 30613  1                      TSEG  (R1),(R0),B
 0041F0 9500 5008/4770_00008       30637  1                      IF    (CTRCSR,EQ,0),'SETMSG "Sent:"'
 004200 703A/47F0 7042_04200 041F6 30664  1                      ELSE  'SETMSG "Rcvd:"'
 00420C 41F0 B050/58E0_      00050 30684  1                      TSEG  (R1),(R0),B
 004216 4110 500C/4100_      0000C 30708  1                      TSEG  CTRCPKT,16,B
 004228 4810 500A/1B00_      0000A 30738  1                      TNUM  LH:CTRCLEN
 004238 1B00/41F0 B050_            30759  1                      TCR
 004244                            30784                       END
 004244 18D8/9808 D004_            30788                       PEND
 DROP   CTRC,R5
 DROP   *,R7
                                   30813
                                   30814                       QLTORG
                                   30832              ¿þþþþþþþþþþþþþþþþþþþþþþþþþþþþþþþþþþþþþþþþþþþþþþþþþþþþþþþþþþþþþþþþþþþþþÜ
                                   30833              Ÿ                                                                     Ÿ
                                   30834              Ÿ  NPATCHK -- Routine to check to see if there has been any new       Ÿ
                                   30835              Ÿ    activity on the Amelia paths.                                    Ÿ
                                   30836              Ÿ                                                                     Ÿ
                                                      ¾þþþþþþþþþþþþþþþþþþþþþþþþþþþþþþþþþþþþþþþþþþþþþþþþþþþþþþþþþþþþþþþþþþþþþ»
0004272 50E0 D000/9008_      00000 30837              NPATCHK  XPROC
 USING  *,R7
                                   30877                       ¿þþþþþþþþþþþþþþþþþþþþþþþþþþþþþþþþþþþþþþþþþþþþÜ
                                   30878                       Ÿ  Process new data from the network paths.  Ÿ
                                   30879                       ¾þþþþþþþþþþþþþþþþþþþþþþþþþþþþþþþþþþþþþþþþþþþþ»
 00428C 58F0 C0B4/12FF       000B4 30880                       LT    R15,CVAMYP          Production Amelia
 004292 4780 700E/4DE0_      0429A 30884                       IF    NZ,'LCALL NPATPCHK'  Check path activity
                                   30902
 00429A 58F0 C0B8/12FF       000B8 30903                       LT    R15,CVTAMYP         Test Amelia
 0042A0 4780 701C/4DE0_      042A8 30907                       IF    NZ,'LCALL NPATPCHK'  Check path activity
 0042A8 18D8/9808 D004_            30925                       PEND
 DROP   *,R7
1NPAT     (NPAT2193) (12:50) (15MAR04) Network Interface Routines -- Dispatcher Subroutines                                 Page  102
0Current Usings:  (CP,R11) (CV,R12)
0Loc    Object Code    Addr1 Addr2  Stmt Lv Lineno    Source Statement           (Hibal 5, Asmedit 3.3)  HLASM R4.0  2004/03/15 12.50
+___    ______ ____    _____ _____  ____ __ ______    ______ _________
0                                  30946              ¿þþþþþþþþþþþþþþþþþþþþþþþþþþþþþþþþþþþþþþþþþþþþþþþþþþþþþþþþþþþþþþþþþþþþþÜ
                                   30947              Ÿ                                                                     Ÿ
                                   30948              Ÿ        The following routines can be called in dispatcher or        Ÿ
                                   30949              Ÿ        user mode.  As a result, no CP addressability can be         Ÿ
                                   30950              Ÿ        assumed.                                                     Ÿ
                                   30951              Ÿ                                                                     Ÿ
                                                      ¾þþþþþþþþþþþþþþþþþþþþþþþþþþþþþþþþþþþþþþþþþþþþþþþþþþþþþþþþþþþþþþþþþþþþþ»
0DROP   CP,R11                     30952                       DROP  CP                  No CP addressability
-
0                                  30961              ¿þþþþþþþþþþþþþþþþþþþþþþþþþþþþþþþþþþþþþþþþþþþþþþþþþþþþþþþþþþþþþþþþþþþþþÜ
                                   30962              Ÿ                                                                     Ÿ
                                   30963              Ÿ  NPATPOST -- Routine to post any network connections waiting for    Ÿ
                                   30964              Ÿ    new data.  Efficiency is a concern here, since this is called    Ÿ
                                   30965              Ÿ    every time the dispatcher is posted.                             Ÿ
                                   30966              Ÿ                                                                     Ÿ
                                   30967              Ÿ    This routine is called by the dispatcher.                        Ÿ
                                   30968              Ÿ                                                                     Ÿ
                                                      ¾þþþþþþþþþþþþþþþþþþþþþþþþþþþþþþþþþþþþþþþþþþþþþþþþþþþþþþþþþþþþþþþþþþþþþ»
00042B6 50E0 D000/9008_      00000 30969              NPATPOST XPROC
 USING  *,R7
                                   31009                       ¿þþþþþþþþþþþþþþþþþþþþþþþþþþþþþþþþþþþþþþþþþþþþÜ
                                   31010                       Ÿ  Process new data from the network paths.  Ÿ
                                   31011                       ¾þþþþþþþþþþþþþþþþþþþþþþþþþþþþþþþþþþþþþþþþþþþþ»
 0042D0 58F0 C0B4/12FF       000B4 31012                       LT    R15,CVAMYP          Production Amelia
 0042D6 4780 700E/4DE0_      042DE 31016                       IF    NZ,'LCALL NPATPCHK'  Check path activity
                                   31034
 0042DE 58F0 C0B8/12FF       000B8 31035                       LT    R15,CVTAMYP         Test Amelia
 0042E4 4780 701C/4DE0_      042EC 31039                       IF    NZ,'LCALL NPATPCHK'  Check path activity
                                   31057                       ¿þþþþþþþþþþþþþþþþþþþþþþþþþþþþþþþþþþþþþþþþþþþþþþþþþþþþþþþþÜ
                                   31058                       Ÿ  Check to see if any waiting network connections have  Ÿ
                                   31059                       Ÿ    been posted.                                        Ÿ
                                   31060                       ¾þþþþþþþþþþþþþþþþþþþþþþþþþþþþþþþþþþþþþþþþþþþþþþþþþþþþþþþþ»
 0042EC 4150 C09C            0009C 31061                       LA    R5,CVUNETQH-(UNETLINK-UNET)  Dummy queue head
 0042F0                            31062                       LOOP  BEGIN
 USING  UNET,R5                    31068  1                      WITH  (UNET,R5)
 0042F0 1845                       31081  1                      LR    R4,R5               Save prev ptr
 0042F2 5850 5014/1255       00014 31082  1                      LT    R5,UNETLINK         Next queue entry
 0042F8 4780 7120            043F0 31086  1                      IF    Z,EXIT              All done, scram
 0042FC D503 76E0 5000_049B0 00000 31100  1                      FAIL  (UNET,NE,'UNET'),PPOST  (Better safe than sloppy)
                                   31128  1                      ¿þþþþþþþþþþþþþþþþþþþþþþþþþþþþþþþþþþþþþþþþþþþþþþþþþþþþþþþþþþþþÜ
                                   31129  1                      Ÿ  Dispatch the user if his connection has changed state or  Ÿ
                                   31130  1                      Ÿ    if his maximum wait time has been exceeded.             Ÿ
                                   31131  1                      ¾þþþþþþþþþþþþþþþþþþþþþþþþþþþþþþþþþþþþþþþþþþþþþþþþþþþþþþþþþþþþ»
 00431A D503 50FC C630_000FC 00630 31132  1                      IF    (UNETXCLK,LT,CVDSPCLK),PPOST  Timed out
                                   31153  1
 004324 D500 5160 5161_00160 00161 31154  1                      IF    (UNETSTATE,GE,UNETPOST),BEGIN  We are posted...
 00432E 5860 5010            00010 31172  2           PPOST        L     R6,UNETJCBP         His JCB ptr
 USING  JCB,R6                     31173  2                        WITH  (JCB,R6)
 004332 94BF 6061      00061       31186  2                        CLEAR JCBWWFPT            No longer waiting for path
1NPAT     (NPAT2193) (12:50) (15MAR04) Network Interface Routines -- Dispatcher Subroutines                                 Page  103
0Current Usings:  (UNET,R5) (JCB,R6) (*,R7) (CV,R12)
0Loc    Object Code    Addr1 Addr2  Stmt Lv Lineno    Source Statement           (Hibal 5, Asmedit 3.3)  HLASM R4.0  2004/03/15 12.50
+___    ______ ____    _____ _____  ____ __ ______    ______ _________
0004336 48F0 6060/12FF_      00060 31193  2                        IF    (('LTH R15,JCBWFL',Z),AND,~JCBAPDSP),BEGIN
 004348 18F6/9610 F062_            31223  3                          SETUP JCB
 00435E                            31251  2                        END
                                   31255  2
 00435E 7092/7092/47F0_0435E 0433E 31256  2                        ELSEIF JCBFTINT,BEGIN     Interruptible terminal I/O...
 00436A 9110 502C/47E0_0002C       31282  3                          IF    UNETFINT,BEGIN      Path post can interrupt...
 004372 4800 6048            00048 31297  4                            LH    R0,JCBSEQ           User number
 004376 58E0 76E8/0DEE       049B8 31298  4                            VCALL TBREAK              Halt his terminal I/O
 00437C                            31302  3                          END
 00437C                            31306  2                        END
                                   31310  2
 00437C 70B0/47F0 710C_0437C 04368 31311  2                        ELSEIF JCBFWINT,BEGIN     Interruptible wait...
 004388 9110 502C/47E0_0002C       31335  3                          IF    UNETFINT,BEGIN      Path post can interrupt...
 004390 58F0 600C/12FF_      0000C 31350  4                            IF    ('LT R15,JCBTIMID',Z),EXIT  No timer, scram
 00439A 58E0 76EC/0DEE       049BC 31369  4                            VCALL TIMERDQ             Purge timer
 0043A0 4770 710C            043DC 31373  4                            IF    NZ,EXIT             Timer already fired, scram
 0043A4 D703 600C 600C 0000C 0000C 31387  4                            CLEAR JCBTIMID            Reset timer id
 0043AA D203 6010 76F0 00010 049C0 31394  4                            MVC   JCBTIMQL,=F'-1'     Reser timer queue link ptr
 0043B0 94FD 6060      00060       31395  4                            CLEAR JCBWFTM             No longer waiting for timer
                                   31402  4
 0043B4 48F0 6060/12FF_      00060 31403  4                            IF    (('LTH R15,JCBWFL',Z),AND,~JCBAPDSP),'SETUP JCB'
 0043DC                            31466  3                          END
 0043DC                            31470  2                        END
                                   31474  2
 0043DC 58F0 5014            00014 31475  2                        L     R15,UNETLINK        Next in queue
 0043E0 D703 5014 5014 00014 00014 31476  2                        CLEAR UNETLINK            (Neatness)
 0043E6 1854                       31483  2                        LR    R5,R4               Back up
 0043E8 50F0 5014            00014 31484  2                        ST    R15,UNETLINK        This takes us out of the queue
 DROP   JCB,R6                     31485  1                      END
 0043EC 47F0 7020            042F0 31494                       END
 DROP   UNET,R5
                                   31504
 0043F0 18D8/9808 D004_            31505                       PEND
 DROP   *,R7
1NPAT     (NPAT2193) (12:50) (15MAR04) Network Interface Routines -- Dispatcher Subroutines                                 Page  104
0Current Usings:  (CV,R12)
0Loc    Object Code    Addr1 Addr2  Stmt Lv Lineno    Source Statement           (Hibal 5, Asmedit 3.3)  HLASM R4.0  2004/03/15 12.50
+___    ______ ____    _____ _____  ____ __ ______    ______ _________
0                                  31526              ¿þþþþþþþþþþþþþþþþþþþþþþþþþþþþþþþþþþþþþþþþþþþþþþþþþþþþþþþþþþþþþþþþþþþþþÜ
                                   31527              Ÿ                                                                     Ÿ
                                   31528              Ÿ  NPATPCHK -- Local routine to check network path for new data.      Ÿ
                                   31529              Ÿ    Note that this routine runs in "dispatcher" mode (no CP).        Ÿ
                                   31530              Ÿ                                                                     Ÿ
                                   31531              Ÿ    On entry:                                                        Ÿ
                                   31532              Ÿ      R15 - UPATH ptr                                                Ÿ
                                   31533              Ÿ                                                                     Ÿ
                                                      ¾þþþþþþþþþþþþþþþþþþþþþþþþþþþþþþþþþþþþþþþþþþþþþþþþþþþþþþþþþþþþþþþþþþþþþ»
0000000                00000 00080 31534              NPWA     RECORD BEGIN
 000000                            31542  1           NPXPTRS    DS    2F                  Packet length, location ptrs
                                   31543  1
 000008                            31544  1           NPID       DS    CL16                Packet identification
 000018                            31545  1           NPWORD1    DS    F                   Word 1 parameter
 00001C                            31546  1           NPWORD2    DS    F                   Word 2 parameter
 000020                            31547  1           NPWORD3    DS    F                   Word 3 parameter
 000024                            31548  1           NPWORD4    DS    F                   Word 4 parameter
 000028                            31549  1           NPWORD5    DS    F                   Word 5 parameter
 00002C                            31550  1           NPWORD6    DS    F                   Word 6 parameter
 000030                            31551  1                      DS    XL16                Extra stuff (possibly header)
                                   31552  1           NPHDR      EQU   NPID,*-NPID,C'X'
                                   31553  1
 000040                            31554  1           NPSEGCB    DS    XL(L'SEGCB)         Working SEGCB control block
                                   31555  1
 00007C                            31556  1           NPWAWORD   DS    F                   Working fullword
 000080                00080 00080 31557                       END
                                   31566              þþþþ
 0043FE 50E0 D000/9008_      00000 31567              NPATPCHK PROC  NPWA
 USING  *,R7
 USING  NPWA-(4+36),R8
 004418 4150 8028            00000 31617                       LA    R5,NPWA
 USING  NPWA,R5                    31618                       WITH  (NPWA,R5)           Basic assumption for TCP routines
                                   31631
 00441C 186F                       31632                       LR    R6,R15
 USING  UPATH,R6                   31633                       WITH  (UPATH,R6)
                                   31646
 00441E 9108 CA00/4710_00A00       31647                       IF    CVFNONETCHK,EXIT    No network checks (for debugging)
                                   31665                       ¿þþþþþþþþþþþþþþþþþþþþþþþþþþþþþþþþþþþþþþþþþþþþþþþþþþþþþþþþþþÜ
                                   31666                       Ÿ  Save pointer to current UPATH for failsoft recovery.    Ÿ
                                   31667                       Ÿ                                                          Ÿ
                                   31668                       Ÿ    If we get a failsoft in this routine it will be a     Ÿ
                                   31669                       Ÿ    "dispatcher failsoft" -- to avoid a failsoft loop we  Ÿ
                                   31670                       Ÿ    will close the current path.                          Ÿ
                                   31671                       ¾þþþþþþþþþþþþþþþþþþþþþþþþþþþþþþþþþþþþþþþþþþþþþþþþþþþþþþþþþþ»
 004426 5060 C180            00180 31672                       ST    R6,CVCURPATH        Save ptr to current path
                                   31673                       ¿þþþþþþþþþþþþþþþþþþþþþþþþþþþÜ
                                   31674                       Ÿ  Get new data from path.  Ÿ
                                   31675                       ¾þþþþþþþþþþþþþþþþþþþþþþþþþþþ»
 00442A                            31676                       LOOP  BEGIN
 00442A 41F0 6000            00000 31682  1                      LA    R15,UPATH
 00442E 58E0 75AC/0DEE       049C4 31683  1                      VCALL PATHREAD            Get next packet from Amelia
 004434 4770 7152            0456A 31687  1                      IF    NZ,EXIT             Nothing, scram
1NPAT     (NPAT2193) (12:50) (15MAR04) Network Interface Routines -- Dispatcher Subroutines                                 Page  105
0Current Usings:  (NPWA,R5) (UPATH,R6) (*,R7) (NPWA-(4+36),R8) (CV,R12)
0Loc    Object Code    Addr1 Addr2  Stmt Lv Lineno    Source Statement           (Hibal 5, Asmedit 3.3)  HLASM R4.0  2004/03/15 12.50
+___    ______ ____    _____ _____  ____ __ ______    ______ _________
0                                  31701  1                      ¿þþþþþþþþþþþþþþþþþþþþþþþþÜ
                                   31702  1                      Ÿ  Trace incoming data.  Ÿ
                                   31703  1                      ¾þþþþþþþþþþþþþþþþþþþþþþþþ»
 004438 9001 5000            00000 31704  1                      STM   R0,R1,NPXPTRS       Save packet ptrs for later
                                   31705  1
 00443C 18F0                       31706  1                      LR    R15,R0
 00443E 59F0 75B0/47D0_      049C8 31707  1                      CEIL  R15,L'NPHDR
 00444A 06F0/12FF/4740_            31726  1                      MOVE  R15,NPHDR,@R1       Save header information
                                   31764  1           ***      XPUSH R15,R2              !!!!!!!
                                   31765  1           ***      LR    R2,R0               !!!!!!!
                                   31766  1           ****     IF    (R2,LE,L'NPID),BEGIN !!!!!
                                   31767  1           ****     DEBUG 'NPHDR is ',NPID,'; R0=',R2    !!!!!!!
                                   31768  1           ****     END ,                     !!!!!!
                                   31769  1           ****     XPOP  R15,R2              !!!!!!
                                   31770  1           *
 004456 D508 7620 5008_04A38 00008 31771  1                      IF    (NPID,EQ,'TCP_DATA:'),BEGIN  Data...
 004460 4DE0 7406            0481E 31788  2                        LCALL TCPDATA             Handle incoming TCP data
 004464                            31790  1                      END
                                   31794  1
                                   31795  1         C            ELSEIF  ((NPID,EQ,'TCP_STOP:'),OR,
 004464 7050/47F0 7068_04464 0445E        1                            (NPID,EQ,'TCP_START:')),BEGIN
 00447C 4DE0 78BA            04CD2 31837  2                        LCALL TCPFLOW             Handle flow control
 004480                            31839  1                      END
                                   31843  1
 004480 706C/47F0 707A_04480 0447A 31844  1                      ELSEIF  (NPID,EQ,'TCP_OPEN_INFO:'),BEGIN
 00448E 4DE0 779E            04BB6 31870  2                        LCALL TCPOINFO            Save open info
 004492                            31872  1                      END
                                   31876  1
 004492 707E/47F0 708C_04492 0448C 31877  1                      ELSEIF  (NPID,EQ,'TCP_CONNECT:'),BEGIN  New session...
 0044A0 4DE0 7390            047A8 31903  2                        LCALL TCPCONN             Handle new TCP connection
 0044A4                            31905  1                      END
                                   31909  1
 0044A4 7090/47F0 709E_044A4 0449E 31910  1                      ELSEIF  (NPID,EQ,'TCP_CLOSE:'),BEGIN
 0044B2 4DE0 7648            04A60 31936  2                        LCALL TCPCLOSE            Close TCP connection
 0044B6                            31938  1                      END
                                   31942  1
 0044B6 70A2/47F0 70B0_044B6 044B0 31943  1                      ELSEIF  (NPID,EQ,'TCP_EOF:'),BEGIN
 0044C4 4DE0 7948            04D60 31969  2                        LCALL TCPEOF              End of file on TCP connection
 0044C8                            31971  1                      END
                                   31975  1
 0044C8 70B4/47F0 70C2_044C8 044C2 31976  1                      ELSEIF  (NPID,EQ,'TCP_ABORT:'),BEGIN
 0044D6 4DE0 79B4            04DCC 32002  2                        LCALL TCPABORT            Abort TCP connection
 0044DA                            32004  1                      END
                                   32008  1
 0044DA 70C6/47F0 7122_044DA 044D4 32009  1                      ELSEIF  (NPID,EQ,'ERROR_PREV_REQ:'),BEGIN
 0044E8 9801 5000            00000 32035  2                        LM    R0,R1,NPXPTRS       Packet ptrs
 0044EC 4120 0001            00001 32036  2                        LA    R2,1                1 means "input buffer"
 0044F0 1BFF                       32037  2                        CLEAR R15                 *** No UNET ***
 0044F2 58E0 75C0/0DEE       049D8 32041  2                        ACALL NETTRC              Save buffer for trace
                                   32045  2
 0044F8 41F0 0001/5EF0_      00001 32046  2                        INCR  R15,CVENERR         Count the error packet
                                   32052  2
 004504 5810 C2DC/1211_      002DC 32053  2                        IF    ('LT R1,CVENERP',NZ),'CLEAR CVENERP; VCALL FREECORE'
                                   32085  2
1NPAT     (NPAT2193) (12:50) (15MAR04) Network Interface Routines -- Dispatcher Subroutines                                 Page  106
0Current Usings:  (NPWA,R5) (UPATH,R6) (*,R7) (NPWA-(4+36),R8) (CV,R12)
0Loc    Object Code    Addr1 Addr2  Stmt Lv Lineno    Source Statement           (Hibal 5, Asmedit 3.3)  HLASM R4.0  2004/03/15 12.50
+___    ______ ____    _____ _____  ____ __ ______    ______ _________
000451A 5800 5000            00000 32086  2                        L     R0,NPXPTRS          Packet length
 00451E 4000 C2BA            002BA 32087  2                        STH   R0,CVENERL          Save error packet length
 004522 58E0 75C8/0DEE       049E0 32088  2                        VCALL GETCORE             Get space for the packet
 004528 5010 C2DC            002DC 32092  2                        ST    R1,CVENERP          Save ptr to saved error packet
 00452C 18E1/58F0 5000_            32093  2                        MOVEL @R1,L:NPXPTRS+4,L:NPXPTRS  Save packet data
 00453A                            32113  1                      END
                                   32117  1                      ¿þþþþþþþþþþþþþþþþþþþþþþþþþþþÜ
                                   32118  1                      Ÿ  Bad packet from Amelia.  Ÿ
                                   32119  1                      ¾þþþþþþþþþþþþþþþþþþþþþþþþþþþ»
 00453A 7126/47F0 714E 0453A 044E6 32120  1                      ELSE  BEGIN
 00453E 9801 5000            00000 32131  2                        LM    R0,R1,NPXPTRS       Packet ptrs
 004542 4120 0001            00001 32132  2                        LA    R2,1                1 means "input buffer"
 004546 1BFF                       32133  2                        CLEAR R15                 *** No UNET ***
 004548 58E0 75C0/0DEE       049D8 32137  2                        ACALL NETTRC              Save buffer for trace
                                   32141  2
 00454E 900F C780/4DE0_      00780 32142  2                        KAPUT BADPACK,'Bad packet type.'
 004566                            32149  1                      END
 004566 47F0 7012            0442A 32153                       END
                                   32158                       ¿þþþþþþþþþþþþþþþþþþþþþþþþþþþþþþþþþþþþþþþþÜ
                                   32159                       Ÿ  Check to see if the path is closing.  Ÿ
                                   32160                       ¾þþþþþþþþþþþþþþþþþþþþþþþþþþþþþþþþþþþþþþþþ»
 00456A 9180 60AC/47E0_000AC       32161                       IF    UPATSFLG.UPATFCLS,BEGIN  Closing...
 004572 41F0 6000            00000 32177  1                      LA    R15,UPATH
 004576 58E0 75CC/0DEE       049E4 32178  1                      VCALL PATHCLS             Close and free path
 00457C                            32182                       END
                                   32186                       ¿þþþþþþþþþþþþþþþþþþþþþþþþþþþþþþþÜ
                                   32187                       Ÿ  Reset current path pointer.  Ÿ
                                   32188                       ¾þþþþþþþþþþþþþþþþþþþþþþþþþþþþþþþ»
 00457C D703 C180 C180 00180 00180 32189                       CLEAR CVCURPATH           Reset current path
 004582 18D8/9808 D004_            32196                       PEND
 DROP   UPATH,R6
 DROP   NPWA,R5
 DROP   NPWA-(4+36),R8
 DROP   *,R7
1NPAT     (NPAT2193) (12:50) (15MAR04) Network Interface Routines -- Dispatcher Subroutines                                 Page  107
0Current Usings:  (CV,R12)
0Loc    Object Code    Addr1 Addr2  Stmt Lv Lineno    Source Statement           (Hibal 5, Asmedit 3.3)  HLASM R4.0  2004/03/15 12.50
+___    ______ ____    _____ _____  ____ __ ______    ______ _________
0                                  32232              ¿þþþþþþþþþþþþþþþþþþþþþþþþþþþþþþþþþþþþþþþþþþþþþþþþþþþþþþþþþþþþþþþþþþþþþÜ
                                   32233              Ÿ                                                                     Ÿ
                                   32234              Ÿ  NPATCLS -- Routine to close a network path.                        Ÿ
                                   32235              Ÿ                                                                     Ÿ
                                   32236              Ÿ    Note: This routine can be called while in dispatcher mode        Ÿ
                                   32237              Ÿ          so no CP addressability can be assumed.                    Ÿ
                                   32238              Ÿ                                                                     Ÿ
                                   32239              Ÿ    On entry:                                                        Ÿ
                                   32240              Ÿ      R15 - UNET ptr                                                 Ÿ
                                   32241              Ÿ                                                                     Ÿ
                                   32242              Ÿ    On exit, R15 (and cc):                                           Ÿ
                                   32243              Ÿ      0 = closed;      R1,R0 = msg ("OK")                            Ÿ
                                   32244              Ÿ      4 = not closed;  R1,R0 = error msg loc, len                    Ÿ
                                   32245              Ÿ                                                                     Ÿ
                                                      ¾þþþþþþþþþþþþþþþþþþþþþþþþþþþþþþþþþþþþþþþþþþþþþþþþþþþþþþþþþþþþþþþþþþþþþ»
0000000                00000 00004 32246              NCLSWA   RECORD BEGIN
 000000                            32254  1           NCLSJCBP   DS    A                   Path owner's JCB ptr (0=global)
 000004                00004 00004 32255                       END
                                   32264              þþþþ
 004590 50E0 D000/9028_      00000 32265              NPATCLS  XPROC (R2,LSR),NCLSWA
 USING  *,R7
 USING  NCLSWA-(4+28),R8
 0045AA D703 8020 8020 00000 00000 32315                       CLEAR NCLSWA              Initialize wa
                                   32322
 0045B0 186F                       32323                       LR    R6,R15
 USING  UNET,R6                    32324                       WITH  (UNET,R6)
 0045B2 D503 7406 6000_049B0 00000 32337                       FAIL  (UNET,NE,'UNET'),NPATCLS,'Bad UNET ptr'
                                   32366
 0045D4 1BFF                       32367                       CLEAR R15                 Assume it's a global UNET ptr
 0045D6 9180 602C/4710_0002C       32371                       IF    ~UNETFGLOBAL,'L R15,UNETJCBP'  User UNET ptr
 0045E2 50F0 8020            00000 32392                       ST    R15,NCLSJCBP        Save user UNET JCB ptr
                                   32393                       ¿þþþþþþþþþþþþþþþþþþþþþþþþþþþþþþþÜ
                                   32394                       Ÿ  Check for network requests.  Ÿ
                                   32395                       ¾þþþþþþþþþþþþþþþþþþþþþþþþþþþþþþþ»
 0045E6 58E0 743E/0DEE       049E8 32396                       ACALL NPATCHK             Check for new network requests
                                   32400                       ¿þþþþþþþþþþþþþþþþþþþþþþþþþþþþþþþþþþþþþþþþþþþþþþþþþþþþþþþþþþþþþþÜ
                                   32401                       Ÿ  Path has closed, we need to get rid of the UNET ourselves.  Ÿ
                                   32402                       ¾þþþþþþþþþþþþþþþþþþþþþþþþþþþþþþþþþþþþþþþþþþþþþþþþþþþþþþþþþþþþþþ»
 0045EC 9509 6160/4770_00160       32403                       IF    (UNETSTATE,EQ,UNETSFPATHCLS),BEGIN  Closed...
 0045F4 41F0 6000            00000 32421  1                      LA    R15,UNET
 0045F8 58E0 7442/0DEE       049EC 32422  1                      ACALL FREEUNET            Release our UNET
 0045FE 47F0 711A            046C4 32426  1                      B     NCLSFIN             Scram
 004602                            32427                       END
                                   32431                       ¿þþþþþþþþþþþþþþþþþþþþþþþþþþþþþþþÜ
                                   32432                       Ÿ  Connection is still active.  Ÿ
                                   32433                       ¾þþþþþþþþþþþþþþþþþþþþþþþþþþþþþþþ»
 004602 9508 6160/4750_00160       32434                       FAIL  (UNETSTATE,GE,UNETSFCLOSING),NPATCLS,'Net error.'
                                   32464
 004622 D603 6170 6170_00170 00170 32465                       IF    (UNETAID,Z),BEGIN   Never opened...
 00462C 41F0 6000            00000 32481  1                      LA    R15,UNET
 004630 58E0 7442/0DEE       049EC 32482  1                      ACALL FREEUNET            Release UNET ourselves
 004636 47F0 711A            046C4 32486  1                      B     NCLSFIN             Scram
 00463A                            32487                       END
1NPAT     (NPAT2193) (12:50) (15MAR04) Network Interface Routines -- Dispatcher Subroutines                                 Page  108
0Current Usings:  (UNET,R6) (*,R7) (NCLSWA-(4+28),R8) (CV,R12)
0Loc    Object Code    Addr1 Addr2  Stmt Lv Lineno    Source Statement           (Hibal 5, Asmedit 3.3)  HLASM R4.0  2004/03/15 12.50
+___    ______ ____    _____ _____  ____ __ ______    ______ _________
0                                  32491                       ¿þþþþþþþþþþþþþþþþþþþþþþþþþþþþþþþþþþþþþþþþþþþþþþþþþþÜ
                                   32492                       Ÿ  Send abort to force the connection to go away.  Ÿ
                                   32493                       ¾þþþþþþþþþþþþþþþþþþþþþþþþþþþþþþþþþþþþþþþþþþþþþþþþþþ»
 00463A 9160 6164/4770_00164       32494                       IF    (UNETFOUTEOF+UNETFOUTABORT,Z),BEGIN  Send ABORT...
 004642 9102 6164/4710_00164       32514  1                      IF    UNETFINABORT,EXIT   We got an abort, skip this
                                   32532  1
 00464A 9680 6104      00104       32533  1                      SET   UNETFCTRL           Sending control info
 00464E 4110 73D6/4100_      04980 32539  1                      SEG   LA:=CL16'TCP_ABORT:',16,UNETOUTSG
 004660 4110 6170/4100_      00170 32566  1                      SEG   UNETAID             Amelia session ID
 004672 1B00/41F0 610C_            32593  1                      SEGWR
 00467E 947F 6104      00104       32617  1                      CLEAR UNETFCTRL           Reset
 004682                            32624                       END
                                   32628                       ¿þþþþþþþþþþþþþþþþþþþþþþþþþþþþþþþþþþþþþþþþþþþþþþþþþþþþþþþþþþþþÜ
                                   32629                       Ÿ  We are done with the connection; the connection will      Ÿ
                                   32630                       Ÿ    remain in the 'closing' state until Amelia responds     Ÿ
                                   32631                       Ÿ    with a TCP_CLOSE and then we can free the UNET control  Ÿ
                                   32632                       Ÿ    block.                                                  Ÿ
                                   32633                       ¾þþþþþþþþþþþþþþþþþþþþþþþþþþþþþþþþþþþþþþþþþþþþþþþþþþþþþþþþþþþþ»
 004682 9680 6104      00104       32634                       SET   UNETFCTRL           Sending control info
 004686 4110 73E6/4100_      04990 32640                       SEG   LA:=CL16'TCP_CLOSE:',16,UNETOUTSG
 004698 4110 6170/4100_      00170 32667                       SEG   UNETAID             Amelia session ID
 0046AA 1B00/41F0 610C_            32694                       SEGWR
 0046B6 947F 6104      00104       32718                       CLEAR UNETFCTRL           Reset
                                   32725
 0046BA 9208 6160      00160       32726                       MVI   UNETSTATE,UNETSFCLOSING  Current state is closing
                                   32727
 0046BE D203 6010 7416 00010 049C0 32728                       MVC   UNETJCBP,=F'-1'     UNET no longer belongs to us
                                   32729                       ¿þþþþþþþþþþþþþþþþþþþþþþþþþþþþþþþþþþþþþþþþþþþþþþþþþþþþþþþþþþþþÜ
                                   32730                       Ÿ  The following is a check for "~UNETFGLOBAL".  We can't    Ÿ
                                   32731                       Ÿ    actually check this flag, because we just released      Ÿ
                                   32732                       Ÿ    the memory for the UNET (above).  If it's not a global  Ÿ
                                   32733                       Ÿ    UNET, then it belongs to the current user and we need   Ÿ
                                   32734                       Ÿ    to keep the use counts accurate.                        Ÿ
                                   32735                       ¾þþþþþþþþþþþþþþþþþþþþþþþþþþþþþþþþþþþþþþþþþþþþþþþþþþþþþþþþþþþþ»
 0046C4 5850 8020/1255       00000 32736              NCLSFIN  LT    R5,NCLSJCBP         Former path owner's JCB ptr
 0046CA 4780 715A            04704 32740                       IF    NZ,BEGIN            It was a user (non global) path...
 USING  JCB,R5                     32751  1                      WITH  (JCB,R5)
 0046CE 5840 5014/1244       00014 32764  1                      LT    R4,JCBCPX           Get user's CP ptr
 0046D4 4780 715A            04704 32768  1                      IF    Z,EXIT              No CP, scram
 USING  CP,R4                      32782  1                      WITH  (CP,R4)
 0046D8 D501 7486 4000_04A30 00000 32795  1                      FAIL  (CP,NE,'CP'),NPATCLS,'Network path UNET/CP error.'
 0046FA 48F0 4222/06F0_      00222 32824  1                      DECR  R15,CPNNETS         One less open connection now
 DROP   CP,R4                      32829                       END
 DROP   JCB,R5
                                   32843
 004704 4110 7488/4100_      04A32 32844                       SETMSG 'OK'
 00470C 1BFF                       32848                       CLEAR R15                 Set rc
                                   32852
 00470E 18D8/9828 D004_            32853                       PEND
 DROP   UNET,R6
 DROP   NCLSWA-(4+28),R8
 DROP   *,R7
1NPAT     (NPAT2193) (12:50) (15MAR04) Network Interface Routines -- Dispatcher Subroutines                                 Page  109
0Current Usings:  (CV,R12)
0Loc    Object Code    Addr1 Addr2  Stmt Lv Lineno    Source Statement           (Hibal 5, Asmedit 3.3)  HLASM R4.0  2004/03/15 12.50
+___    ______ ____    _____ _____  ____ __ ______    ______ _________
0                                  32884              ¿þþþþþþþþþþþþþþþþþþþþþþþþþþþþþþþþþþþþþþþþþþþþþþþþþþþþþþþþþþþþþþþþþþþþþÜ
                                   32885              Ÿ                                                                     Ÿ
                                   32886              Ÿ  NPATPCLS -- Routine to handle the closure of a Suzan path.         Ÿ
                                   32887              Ÿ    This routine is called by PATHCLS.  If it is a network path      Ÿ
                                   32888              Ÿ    then we have to update all the UNETs so that they no longer      Ÿ
                                   32889              Ÿ    point to the UPATH that is about to be freed.                    Ÿ
                                   32890              Ÿ                                                                     Ÿ
                                   32891              Ÿ    Note: This routine can be called while in dispatcher mode        Ÿ
                                   32892              Ÿ          so no CP addressability can be assumed.                    Ÿ
                                   32893              Ÿ                                                                     Ÿ
                                   32894              Ÿ    On entry:                                                        Ÿ
                                   32895              Ÿ      R15 - UPATH ptr                                                Ÿ
                                   32896              Ÿ                                                                     Ÿ
                                   32897              Ÿ    On exit, R15 (and cc):                                           Ÿ
                                   32898              Ÿ      0 - OK                                                         Ÿ
                                   32899              Ÿ                                                                     Ÿ
                                                      ¾þþþþþþþþþþþþþþþþþþþþþþþþþþþþþþþþþþþþþþþþþþþþþþþþþþþþþþþþþþþþþþþþþþþþþ»
000471C 50E0 D000/9008_      00000 32900              NPATPCLS XPROC
 USING  *,R7
 004736 186F                       32940                       LR    R6,R15
 USING  UPATH,R6                   32941                       WITH  (UPATH,R6)
                                   32954
 004738 4130 0001            00001 32955                       LA    R3,1                Net path number
 00473C 5840 C0A8            000A8 32956                       L     R4,CVNETP           Start of net path table
                                   32957
 004740 5930 72C2/4730_      049F8 32958                       WHILE (R3,LE,CVNET#),BEGIN  Go through entries...
 004748 5820 4000/1222_      00000 32977  1                      IF    ('LT R2,@R4',NZ),BEGIN  Active entry...
 USING  UNET,R2                    32993  2                        WITH  (UNET,R2)
                                   33006  2
 004752 5960 2020/4770_      00020 33007  2                        IF    (R6,EQ,UNETPATP),BEGIN  Mark this connection...
 00475A 9509 2160/47B0_00160       33024  3                          IF    (UNETSTATE,LT,UNETSFPATHCLS),BEGIN
 004762 9209 2160      00160       33042  4                            MVI   UNETSTATE,UNETSFPATHCLS  Amelia path has closed
 004766                            33043  3                          END
                                   33047  3
 004766 D203 2020 728A 00020 049C0 33048  3                          MVC   UNETPATP,=F'-1'     Reset UPATH ptr
 00476C                            33049  2                        END
 DROP   UNET,R2                    33053  1                      END
                                   33062  1
 00476C 4140 4004            00004 33063  1                      LA    R4,@R4+4            Next net path ptr
 004770 4130 3001            00001 33064  1                      LA    R3,@R3+1            Next net path number
 004774 47F0 700A            04740 33065                       END
                                   33070                       ¿þþþþþþþþþþþþþþþþþþþþþþþþþþþþþþþþþþþþÜ
                                   33071                       Ÿ  We can now safely free the path.  Ÿ
                                   33072                       ¾þþþþþþþþþþþþþþþþþþþþþþþþþþþþþþþþþþþþ»
 004778 41F0 6000            00000 33073                       LA    R15,UPATH
 00477C 59F0 C0B4/4770_      000B4 33074                       IF    (R15,EQ,CVAMYP),'CLEAR CVAMYP'  No Amelia
 00478A 59F0 C0B8/4770_      000B8 33103                       IF    (R15,EQ,CVTAMYP),'CLEAR CVTAMYP'  No Testamy
                                   33132
 004798 1BFF                       33133                       CLEAR R15                 A-OK
 00479A 18D8/9808 D004_            33137                       PEND
 DROP   UPATH,R6
 DROP   *,R7
1NPAT     (NPAT2193) (12:50) (15MAR04) Network Interface Routines -- Dispatcher Subroutines                                 Page  110
0Current Usings:  (CV,R12)
0Loc    Object Code    Addr1 Addr2  Stmt Lv Lineno    Source Statement           (Hibal 5, Asmedit 3.3)  HLASM R4.0  2004/03/15 12.50
+___    ______ ____    _____ _____  ____ __ ______    ______ _________
0                                  33163              ¿þþþþþþþþþþþþþþþþþþþþþþþþþþþþþþþþþþþþþþþþþþþþþþþþþþþþþþþþþþþþþþþþþþþþþÜ
                                   33164              Ÿ                                                                     Ÿ
                                   33165              Ÿ  TCPCONN -- Routine to process a new TCP connection.                Ÿ
                                   33166              Ÿ                                                                     Ÿ
                                   33167              Ÿ    On entry:                                                        Ÿ
                                   33168              Ÿ      R1,R0 - packet location, length                                Ÿ
                                   33169              Ÿ                                                                     Ÿ
                                                      ¾þþþþþþþþþþþþþþþþþþþþþþþþþþþþþþþþþþþþþþþþþþþþþþþþþþþþþþþþþþþþþþþþþþþþþ»
00047A8 50E0 D000/9008_      00000 33170              TCPCONN  PROC
 USING  *,R7
 USING  NPWA,R5                    33209                       WITH  (NPWA,R5)           Entry assumption
                                   33222
 0047C2 58F0 5018            00018 33223                       L     R15,NPWORD1         Our id
 0047C6 4DE0 76C8            04E8A 33224                       LCALL GETUNET             Get our UNET ptr
 0047CA 186F                       33226                       LR    R6,R15
 USING  UNET,R6                    33227                       WITH  (UNET,R6)
                                   33240
 0047CC 4120 0001            00001 33241                       LA    R2,1                1 means "input buffer"
 0047D0 41F0 6000            00000 33242                       LA    R15,UNET
 0047D4 58E0 7216/0DEE       049D8 33243                       ACALL NETTRC              Save buffer for trace
                                   33247                       ¿þþþþþþþþþþþþþþþþþþþþþþþþþþþþþþþþÜ
                                   33248                       Ÿ  Save connection information.  Ÿ
                                   33249                       ¾þþþþþþþþþþþþþþþþþþþþþþþþþþþþþþþþ»
 0047DA D203 6170 501C 00170 0001C 33250                       MVC   UNETAID,NPWORD2     Save Amelia control id
 0047E0 D203 6174 5020 00174 00020 33251                       MVC   UNETLIP,NPWORD3     Save our IP address
 0047E6 D203 6178 5024 00178 00024 33252                       MVC   UNETLPORT,NPWORD4   Save our port number
 0047EC D203 61CC 5028 001CC 00028 33253                       MVC   UNETRIP,NPWORD5     Save remote's IP address
 0047F2 D203 61D0 502C 001D0 0002C 33254                       MVC   UNETRPORT,NPWORD6   Save remote's port number
                                   33255
 0047F8 9504 6160/47B0_00160       33256                       IF    (UNETSTATE,LT,UNETSFOPEN),BEGIN
 004800 9204 6160      00160       33274  1                      MVI   UNETSTATE,UNETSFOPEN
 004804 9180 6164/47E0_00164       33275  1                      IF    UNETFOUTSTOP,'MVI UNETSTATE,UNETSFOPENSTOP'
 004810                            33296                       END
                                   33300
 004810 18D8/9808 D004_            33301                       PEND
 DROP   UNET,R6
 DROP   NPWA,R5
 DROP   *,R7
1NPAT     (NPAT2193) (12:50) (15MAR04) Network Interface Routines -- Dispatcher Subroutines                                 Page  111
0Current Usings:  (CV,R12)
0Loc    Object Code    Addr1 Addr2  Stmt Lv Lineno    Source Statement           (Hibal 5, Asmedit 3.3)  HLASM R4.0  2004/03/15 12.50
+___    ______ ____    _____ _____  ____ __ ______    ______ _________
0                                  33332              ¿þþþþþþþþþþþþþþþþþþþþþþþþþþþþþþþþþþþþþþþþþþþþþþþþþþþþþþþþþþþþþþþþþþþþþÜ
                                   33333              Ÿ                                                                     Ÿ
                                   33334              Ÿ  TCPDATA -- Routine to handle data from an existing TCP             Ÿ
                                   33335              Ÿ    connection.                                                      Ÿ
                                   33336              Ÿ                                                                     Ÿ
                                   33337              Ÿ    On entry:                                                        Ÿ
                                   33338              Ÿ      R1,R0 - packet location, length                                Ÿ
                                   33339              Ÿ                                                                     Ÿ
                                                      ¾þþþþþþþþþþþþþþþþþþþþþþþþþþþþþþþþþþþþþþþþþþþþþþþþþþþþþþþþþþþþþþþþþþþþþ»
000481E 50E0 D000/9008_      00000 33340              TCPDATA  PROC
 USING  *,R7
 USING  NPWA,R5                    33379                       WITH  (NPWA,R5)           Entry assumption
                                   33392
 004838 58F0 5018            00018 33393                       L     R15,NPWORD1         Our id
 00483C 4DE0 7652            04E8A 33394                       LCALL GETUNET             Get our UNET ptr
 004840 186F                       33396                       LR    R6,R15
 USING  UNET,R6                    33397                       WITH  (UNET,R6)
                                   33410
 004842 D603 6024 6024_00024 00024 33411                       IF    (UNETSVIB,NZ),'INCR R15,CVCSNIO'  Count "server I/O"
                                   33438                       ¿þþþþþþþþþþþþþþþþþþþþþþþþþþþþþþþÜ
                                   33439                       Ÿ  Trace the data we received.  Ÿ
                                   33440                       ¾þþþþþþþþþþþþþþþþþþþþþþþþþþþþþþþ»
 004858 4120 0001            00001 33441                       LA    R2,1                1 means "input buffer"
 00485C 41F0 6000            00000 33442                       LA    R15,UNET
 004860 58E0 71A0/0DEE       049D8 33443                       ACALL NETTRC              Save buffer for trace
                                   33447                       ¿þþþþþþþþþþþþþþþþþþþþþþþþþþþþþþþþþþþþþþþþþþþþþþþþþþþþþþþþþÜ
                                   33448                       Ÿ  We have received data after we closed the connection,  Ÿ
                                   33449                       Ÿ    now send an ABORT to try to shut the other guy up.   Ÿ
                                   33450                       Ÿ                                                         Ÿ
                                   33451                       Ÿ  For now, we can't do this -- it's not legal to send a  Ÿ
                                   33452                       Ÿ  control packet after the TCP_CLOSE.                    Ÿ
                                   33453                       ¾þþþþþþþþþþþþþþþþþþþþþþþþþþþþþþþþþþþþþþþþþþþþþþþþþþþþþþþþþ»
 004866 9508 6160/4750_00160       33454                       IF    (UNETSTATE,GE,UNETSFCLOSING),BEGIN  Extra data...
                                   33472  1           *        IF    ~UNETFOUTABORT,BEGIN  Send one ABORT...
                                   33473  1           *        SEGCLR UNETOUTSG
                                   33474  1           *        SET   UNETFCTRL           Sending control info
                                   33475  1           *        SEG   LA:=CL16'TCP_ABORT',16
                                   33476  1           *        SEG   UNETAID             Amelia session ID
                                   33477  1           **
                                   33478  1           *        SET   UNETFWRONLY         Don't check incoming packets
                                   33479  1           *        SEGWR
                                   33480  1           *        CLEAR UNETFCTRL,UNETFWRONLY  Reset
                                   33481  1           **
                                   33482  1           *        SET   UNETFOUTABORT       Abort the connection
                                   33483  1           *        END
                                   33484  1           *
 00486E 47F0 712C            04964 33485  1                      B     TCPDEXIT            Scram
 004872                            33486                       END
                                   33490
 004872 9823 5000            00000 33491                       LM    R2,R3,NPXPTRS       Get packet ptrs
 004876 4130 3014            00014 33492                       LA    R3,@R3+L'NPID+4     Skip past header...
 00487A 4B20 71FC            04A34 33493                       SH    R2,=AL2(L'NPID+4)   Keep length accurate
 00487E 47B0 704C/1B22       04884 33494                       IF    NEG,'CLEAR R2'
1NPAT     (NPAT2193) (12:50) (15MAR04) Network Interface Routines -- Dispatcher Subroutines                                 Page  112
0Current Usings:  (NPWA,R5) (UNET,R6) (*,R7) (CV,R12)
0Loc    Object Code    Addr1 Addr2  Stmt Lv Lineno    Source Statement           (Hibal 5, Asmedit 3.3)  HLASM R4.0  2004/03/15 12.50
+___    ______ ____    _____ _____  ____ __ ______    ______ _________
0                                  33514                       ¿þþþþþþþþþþþþþþþþþþþþþþÜ
                                   33515                       Ÿ  Buffer input data.  Ÿ
                                   33516                       ¾þþþþþþþþþþþþþþþþþþþþþþ»
 004884 4100 2008            00008 33517                       LA    R0,L'INBUF+@R2      Total INBUF entry length
 004888 58E0 71A8/0DEE       049E0 33518                       VCALL GETCORE             Get core for buffer entry
 00488E 1841                       33522                       LR    R4,R1
 USING  INBUF,R4                   33523                       WITH  (INBUF,R4),BEGIN
 004890 D703 4000 4000 00000 00000 33537  1                      CLEAR INBUFLNK            No next INBUF entry
 004896 5020 4004            00004 33544  1                      ST    R2,INBUFLEN         Data length
 00489A 41E0 4008/18F2_      00008 33545  1                      MOVEL INBUFDAT,@R3,(R2)   Save data
                                   33567  1                      ¿þþþþþþþþþþþþþþþþþþþþþþþþþþþþþþþþþþÜ
                                   33568  1                      Ÿ  Decrypt the data if necessary.  Ÿ
                                   33569  1                      ¾þþþþþþþþþþþþþþþþþþþþþþþþþþþþþþþþþþ»
 0048A6 9180 602D/47E0_0002D       33570  1                      IF    UNETFCRYPT,BEGIN    Decrypt...
 0048AE 4110 4008/1802       00008 33585  2                        SETMSG INBUFDAT,(R2)       Data
 0048B4 4120 607C            0007C 33599  2                        LA    R2,UNETINCRYPT      Crypt work area
 0048B8 58E0 71C4/0DEE       049FC 33600  2                        VCALL SDECRYPT            Decrypt data
 0048BE                            33604  1                      END
                                   33608  1
 0048BE 58F0 614C/12FF       0014C 33609  1                      LT    R15,UNETINQT        Get current queue tail
 0048C4 4770 7094/5040_      048CC 33613  1                      IF    Z,'ST R4,UNETINQH'   Nothing in the queue
 0048CC 7098/47F0 709C_048CC 048C6 33630  1                      ELSE  'ST R4,INBUFLNK-INBUF(,R15)'  Link us to previous
 0048D4 5040 614C            0014C 33647  1                      ST    R4,UNETINQT         We are the new queue tail
                                   33648  1
 0048D8 58F0 6154            00154 33649  1                      L     R15,UNETINL         Input buffer length
 0048DC 5AF0 4004            00004 33650  1                      A     R15,INBUFLEN        Account for buffer we just added
 0048E0 50F0 6154            00154 33651  1                      ST    R15,UNETINL         New total buffer length
 DROP   INBUF,R4                   33652                       END
                                   33660                       ¿þþþþþþþþþþþþþþþþþþþþþþþþþþþþþþþþþþþþþþþþþþþþþþþþþþþþþþþþþþþþþþÜ
                                   33661                       Ÿ  If we have buffered a lot of data then tell Amelia to       Ÿ
                                   33662                       Ÿ    stop sending us new stuff for a while until we catch up.  Ÿ
                                   33663                       ¾þþþþþþþþþþþþþþþþþþþþþþþþþþþþþþþþþþþþþþþþþþþþþþþþþþþþþþþþþþþþþþ»
 0048E4 D503 71C8 6154_04A00 00154 33664                       IF    (UNETINL,GE,UNETINHI#),BEGIN  We have lots...
                                   33682  1           *        FAIL  (UNETINL,GE,UNETINMX#),TCPD,'Too much input data'
 0048EE 9108 6164/4710_00164       33683  1                      IF    UNETFINSTOP,EXIT    We are already stopped, scram
                                   33701  1
 0048F6 D603 6118 6118_00118 00118 33702  1                      IF    (UNETOUTSGLENF,NZ),EXIT  We can't use the seg buffer
                                   33721  1
                                   33722  1                      SEGDEF UNETOUTSG
 004900 D200 D000 6104 00000 00104 33723  1                      MVC   @R13(1),UNETSGFLG   Save seg flags
 004906 41D0 D004            00004 33724  1                      XPUSH ,,4
 00490A 9290 6104      00104       33726  1                      SET   (UNETFCTRL+UNETFWRONLY,EQ)  Our control flags
 00490E 4110 7168/4100_      049A0 33736  1                      SEG   LA:=CL16'TCP_STOP:',16
 004920 4110 6170/4100_      00170 33763  1                      SEG   UNETAID             Amelia ID
 004932 1B00/41F0 610C_            33790  1                      SEGWR
 00493E 4BD0 71FE            04A36 33814  1                      XPOP  ,,4
 004942 D200 6104 D000 00104 00000 33816  1                      MVC  UNETSGFLG,@R13       Restore
                                   33817  1
 004948 9608 6164      00164       33818  1                      SET   UNETFINSTOP         We will stop getting new data
 00494C                            33824                       END
1NPAT     (NPAT2193) (12:50) (15MAR04) Network Interface Routines -- Dispatcher Subroutines                                 Page  113
0Current Usings:  (NPWA,R5) (UNET,R6) (*,R7) (CV,R12)
0Loc    Object Code    Addr1 Addr2  Stmt Lv Lineno    Source Statement           (Hibal 5, Asmedit 3.3)  HLASM R4.0  2004/03/15 12.50
+___    ______ ____    _____ _____  ____ __ ______    ______ _________
0                                  33828                       ¿þþþþþþþþþþþþþþþþþþþþþþþþþþþþþþþþþþþþþþþþþþþþþþþþþþÜ
                                   33829                       Ÿ  Change state to indicate that data is waiting.  Ÿ
                                   33830                       ¾þþþþþþþþþþþþþþþþþþþþþþþþþþþþþþþþþþþþþþþþþþþþþþþþþþ»
 00494C 9505 6160/47B0_00160       33831                       IF    (UNETSTATE,LT,UNETSFDATASTOP),BEGIN  Change state...
 004954 9206 6160      00160       33849  1                      MVI   UNETSTATE,UNETSFDATA  Data waiting
 004958 9180 6164/47E0_00164       33850  1                      IF    UNETFOUTSTOP,'MVI UNETSTATE,UNETSFDATASTOP'
 004964                            33871                       END
                                   33875
 004964 18D8/9808 D004_            33876              TCPDEXIT PEND
 DROP   UNET,R6
 DROP   NPWA,R5
 DROP   *,R7
                                   33907
                                   33908                       SEGDEF DUMMY              (Neatness)
                                   33909
                                   33910                       QLTORG
1NPAT     (NPAT2193) (12:50) (15MAR04) Network Interface Routines -- Dispatcher Subroutines                                 Page  114
0Current Usings:  (CV,R12)
0Loc    Object Code    Addr1 Addr2  Stmt Lv Lineno    Source Statement           (Hibal 5, Asmedit 3.3)  HLASM R4.0  2004/03/15 12.50
+___    ______ ____    _____ _____  ____ __ ______    ______ _________
0                                  33957              ¿þþþþþþþþþþþþþþþþþþþþþþþþþþþþþþþþþþþþþþþþþþþþþþþþþþþþþþþþþþþþþþþþþþþþþÜ
                                   33958              Ÿ                                                                     Ÿ
                                   33959              Ÿ  TCPCLOSE -- Local routine to handle the closing of the TCP         Ÿ
                                   33960              Ÿ    input stream.  This means that an "end of file" has been         Ÿ
                                   33961              Ÿ    reached in the input data stream.  The connection is still       Ÿ
                                   33962              Ÿ    valid and we can still write data.                               Ÿ
                                   33963              Ÿ                                                                     Ÿ
                                                      ¾þþþþþþþþþþþþþþþþþþþþþþþþþþþþþþþþþþþþþþþþþþþþþþþþþþþþþþþþþþþþþþþþþþþþþ»
0004A60 50E0 D000/9008_      00000 33964              TCPCLOSE PROC
 USING  *,R7
 USING  NPWA,R5                    34003                       WITH  (NPWA,R5)           Entry assumption
                                   34016
 004A7A 58F0 5018            00018 34017                       L     R15,NPWORD1         Our id
 004A7E 4DE0 7410            04E8A 34018                       LCALL GETUNET             Get our UNET ptr
 004A82 186F                       34020                       LR    R6,R15
 USING  UNET,R6                    34021                       WITH  (UNET,R6)
                                   34034
 004A84 4120 0001            00001 34035                       LA    R2,1                1 means "input buffer"
 004A88 41F0 6000            00000 34036                       LA    R15,UNET
 004A8C 58E0 76F6/0DEE       05170 34037                       ACALL NETTRC              Save buffer for trace
                                   34041                       ¿þþþþþþþþþþþþþþþþþþþþþþþþþþþþþþþþþþþþþþþþÜ
                                   34042                       Ÿ  This is a response to our TCP_CLOSE.  Ÿ
                                   34043                       ¾þþþþþþþþþþþþþþþþþþþþþþþþþþþþþþþþþþþþþþþþ»
 004A92 9508 6160/4780_00160       34044                       FAIL  (UNETSTATE,NE,UNETSFCLOSING),TCPC,'TCPCLOSE error.'
 004AB2 920A 6160      00160       34074                       MVI   UNETSTATE,UNETSFCLOSE  We are closed
                                   34075
 004AB6 41F0 6000            00000 34076                       LA    R15,UNET
 004ABA 4DE0 7052            04ACC 34077                       LCALL FREEUNET            Free UNET control block
                                   34079
 004ABE 18D8/9808 D004_            34080                       PEND
 DROP   UNET,R6
 DROP   NPWA,R5
 DROP   *,R7
1NPAT     (NPAT2193) (12:50) (15MAR04) Network Interface Routines -- Dispatcher Subroutines                                 Page  115
0Current Usings:  (CV,R12)
0Loc    Object Code    Addr1 Addr2  Stmt Lv Lineno    Source Statement           (Hibal 5, Asmedit 3.3)  HLASM R4.0  2004/03/15 12.50
+___    ______ ____    _____ _____  ____ __ ______    ______ _________
0                                  34111              ¿þþþþþþþþþþþþþþþþþþþþþþþþþþþþþþþþþþþþþþþþþþþþþþþþþþþþþþþþþþþþþþþþþþþþþÜ
                                   34112              Ÿ                                                                     Ÿ
                                   34113              Ÿ  FREEUNET -- Routine to free the UNET control block.                Ÿ
                                   34114              Ÿ                                                                     Ÿ
                                   34115              Ÿ    On entry:                                                        Ÿ
                                   34116              Ÿ      R15 - UNET ptr                                                 Ÿ
                                   34117              Ÿ                                                                     Ÿ
                                                      ¾þþþþþþþþþþþþþþþþþþþþþþþþþþþþþþþþþþþþþþþþþþþþþþþþþþþþþþþþþþþþþþþþþþþþþ»
0004ACC 50E0 D000/9008_      00000 34118              FREEUNET PROC
 USING  *,R7
 004AE6 186F                       34157                       LR    R6,R15
 USING  UNET,R6                    34158                       WITH  (UNET,R6)
                                   34171                       ¿þþþþþþþþþþþþþþþþþþþþþþþþþþþþþþþþþþþþþþþþþþþÜ
                                   34172                       Ÿ  Free the network path id for this path.  Ÿ
                                   34173                       ¾þþþþþþþþþþþþþþþþþþþþþþþþþþþþþþþþþþþþþþþþþþþ»
 004AE8 5820 600C            0000C 34174                       L     R2,UNETPNO          Net path number
 004AEC 1222/47D0 7014_            34175                       FAIL  ((R2,NP),OR,(R2,GT,CVNET#)),NPATCLS,'Net close err'
 004B12 0620                       34217                       DECR  R2                  Relative to zero, not one
 004B14 8920 0002            00002 34219                       SLL   R2,2                Times 4
 004B18 5A20 C0A8            000A8 34220                       A     R2,CVNETP           Our entry ptr
 004B1C D703 2000 2000 00000 00000 34221                       CLEAR (@R2,4)             Zero our entry ptr
                                   34228                       ¿þþþþþþþþþþþþþþþþþþþþþþÜ
                                   34229                       Ÿ  Free UNET buffers.  Ÿ
                                   34230                       ¾þþþþþþþþþþþþþþþþþþþþþþ»
 004B22 D603 6014 6014_00014 00014 34231                       FAIL  (UNETLINK,NZ),NFREE
                                   34258
 004B40 5810 61FC/1211       001FC 34259                       LT    R1,UNETTTBL         Trace table
 004B46 4780 7074            04B5A 34263                       IF    NZ,BEGIN
 004B4A 58F0 7692            05178 34274  1                      L     R15,=A(CTRCCELL)
 004B4E 58E0 7696/0DEE       0517C 34275  1                      VCALL FREEPOOL
 004B54 D703 61FC 61FC 001FC 001FC 34279  1                      CLEAR UNETTTBL
 004B5A                            34286                       END
                                   34290
 004B5A 5810 6100/1211       00100 34291                       LT    R1,UNETBUFP         Working buffer ptr
 004B60 4780 708E            04B74 34295                       IF    NZ,BEGIN            Free it...
 004B64 58F0 769A            05180 34306  1                      L     R15,=A(UNETSGBF)
 004B68 58E0 7696/0DEE       0517C 34307  1                      VCALL FREEPOOL
 004B6E D203 6100 769E 00100 05184 34311  1                      MVC   UNETBUFP,=F'-1'     (Safety)
 004B74                            34312                       END
                                   34316
 004B74 5810 6108/1211       00108 34317                       LT    R1,UNETOBUFP        Output seg buffer ptr
 004B7A 4780 70AE            04B94 34321                       IF    NZ,BEGIN            Free it...
 004B7E 58F0 769A            05180 34332  1                      L     R15,=A(UNETSGBF)
 004B82 58E0 7696/0DEE       0517C 34333  1                      VCALL FREEPOOL
 004B88 D203 6108 769E 00108 05184 34337  1                      MVC   UNETOBUFP,=F'-1'    (Safety)
 004B8E D203 612C 769E 0012C 05184 34338  1                      MVC   UNETOUTSGLOC,=F'-1'  (Safety)
 004B94                            34339                       END
                                   34343                       ¿þþþþþþþþþþþþþþÜ
                                   34344                       Ÿ  Free UNET.  Ÿ
                                   34345                       ¾þþþþþþþþþþþþþþ»
 004B94 D203 6000 76A2 00000 05188 34346                       MVC   UNET(4),=C'XNET'    Zap id
                                   34347
 004B9A 4110 6000            00000 34348                       LA    R1,UNET
1NPAT     (NPAT2193) (12:50) (15MAR04) Network Interface Routines -- Dispatcher Subroutines                                 Page  116
0Current Usings:  (UNET,R6) (*,R7) (CV,R12)
0Loc    Object Code    Addr1 Addr2  Stmt Lv Lineno    Source Statement           (Hibal 5, Asmedit 3.3)  HLASM R4.0  2004/03/15 12.50
+___    ______ ____    _____ _____  ____ __ ______    ______ _________
0004B9E 58F0 76A6            0518C 34349                       L     R15,=A(UNETCELL)
 004BA2 58E0 7696/0DEE       0517C 34350                       VCALL FREEPOOL            Release UNET memory
                                   34354
 004BA8 18D8/9808 D004_            34355                       PEND
 DROP   UNET,R6
 DROP   *,R7
1NPAT     (NPAT2193) (12:50) (15MAR04) Network Interface Routines -- Dispatcher Subroutines                                 Page  117
0Current Usings:  (CV,R12)
0Loc    Object Code    Addr1 Addr2  Stmt Lv Lineno    Source Statement           (Hibal 5, Asmedit 3.3)  HLASM R4.0  2004/03/15 12.50
+___    ______ ____    _____ _____  ____ __ ______    ______ _________
0                                  34381              ¿þþþþþþþþþþþþþþþþþþþþþþþþþþþþþþþþþþþþþþþþþþþþþþþþþþþþþþþþþþþþþþþþþþþþþÜ
                                   34382              Ÿ                                                                     Ÿ
                                   34383              Ÿ  TCPOINFO -- Local routine to save the TCP OPEN information which   Ÿ
                                   34384              Ÿ    is immediately available.                                        Ÿ
                                   34385              Ÿ                                                                     Ÿ
                                                      ¾þþþþþþþþþþþþþþþþþþþþþþþþþþþþþþþþþþþþþþþþþþþþþþþþþþþþþþþþþþþþþþþþþþþþþ»
0004BB6 50E0 D000/9008_      00000 34386              TCPOINFO PROC
 USING  *,R7
 USING  NPWA,R5                    34425                       WITH  (NPWA,R5)           Entry assumption
                                   34438
 004BD0 58F0 5018            00018 34439                       L     R15,NPWORD1         Our id
 004BD4 4DE0 72BA            04E8A 34440                       LCALL GETUNET             Get our UNET ptr
 004BD8 186F                       34442                       LR    R6,R15
 USING  UNET,R6                    34443                       WITH  (UNET,R6)
                                   34456
 004BDA 4120 0001            00001 34457                       LA    R2,1                1 means "input buffer"
 004BDE 41F0 6000            00000 34458                       LA    R15,UNET
 004BE2 58E0 75A0/0DEE       05170 34459                       ACALL NETTRC              Save buffer for trace
                                   34463
 004BE8 9508 6160/47A0_00160       34464                       IF    (UNETSTATE,GE,UNETSFCLOSING),EXIT  Ignore
                                   34485                       ¿þþþþþþþþþþþþþþþþþþþþþþþþþþþþþþþþÜ
                                   34486                       Ÿ  Save connection information.  Ÿ
                                   34487                       ¾þþþþþþþþþþþþþþþþþþþþþþþþþþþþþþþþ»
 004BF0 D203 6170 501C 00170 0001C 34488                       MVC   UNETAID,NPWORD2     Save Amelia control id
 004BF6 D203 6174 5020 00174 00020 34489                       MVC   UNETLIP,NPWORD3     Save our IP address
 004BFC D203 6178 5024 00178 00024 34490                       MVC   UNETLPORT,NPWORD4   Save our port number
 004C02 D203 61CC 5028 001CC 00028 34491                       MVC   UNETRIP,NPWORD5     Save remote's IP address
 004C08 D203 61D0 502C 001D0 0002C 34492                       MVC   UNETRPORT,NPWORD6   Save remote's port number
                                   34493
 004C0E 9502 6160/47B0_00160       34494                       IF    (UNETSTATE,LT,UNETSFOPENING),BEGIN
 004C16 9202 6160      00160       34512  1                      MVI   UNETSTATE,UNETSFOPENING
 004C1A                            34513                       END
                                   34517                       ¿þþþþþþþþþþþþþþþþþþþþþþþþþþþþþþþþþþþþþþþþþþþþþþþþþþþþþþÜ
                                   34518                       Ÿ  Give Amelia some information about the path owner.  Ÿ
                                   34519                       ¾þþþþþþþþþþþþþþþþþþþþþþþþþþþþþþþþþþþþþþþþþþþþþþþþþþþþþþ»
                                   34520                       SEGDEF UNETOUTSG
 004C1A 9680 6104      00104       34521                       SET   UNETFCTRL           Segging control sequence
 004C1E 4110 7590/4100_      05160 34527                       SEG   LA:=CL16'TCP_INFO:',16
 004C30 4110 501C/4100_      0001C 34554                       SEG   NPWORD2             Amelia ID
 004C42 4110 760C/4100_      051DC 34581                       SEG   'Line '
 004C54 4810 600A/1B00_      0000A 34598                       SEGDC LH:UNETSNO          Milten line-number
 004C64 4110 7611/4100_      051E1 34618                       SEG   ' '
 004C76 4110 6007/4100_      00007 34635                       SEG   UNETGRP             Account
 004C88 4110 7612/4100_      051E2 34662                       SEG   '.'
 004C9A 4110 6004/4100_      00004 34679                       SEG   UNETUSER
                                   34706
 004CAC 9610 6104      00104       34707                       SET   UNETFWRONLY         Don't check incoming packets
 004CB0 1B00/41F0 610C_            34713                       SEGWR
 004CBC 947F 6104/94EF_00104       34737                       CLEAR UNETFCTRL,UNETFWRONLY  Reset
                                   34749
 004CC4 18D8/9808 D004_            34750                       PEND
 DROP   UNET,R6
 DROP   NPWA,R5
1NPAT     (NPAT2193) (12:50) (15MAR04) Network Interface Routines -- Dispatcher Subroutines                                 Page  118
0Current Usings:  (CV,R12)
0Loc    Object Code    Addr1 Addr2  Stmt Lv Lineno    Source Statement           (Hibal 5, Asmedit 3.3)  HLASM R4.0  2004/03/15 12.50
+___    ______ ____    _____ _____  ____ __ ______    ______ _________
0DROP   *,R7
1NPAT     (NPAT2193) (12:50) (15MAR04) Network Interface Routines -- Dispatcher Subroutines                                 Page  119
0Current Usings:  (CV,R12)
0Loc    Object Code    Addr1 Addr2  Stmt Lv Lineno    Source Statement           (Hibal 5, Asmedit 3.3)  HLASM R4.0  2004/03/15 12.50
+___    ______ ____    _____ _____  ____ __ ______    ______ _________
0                                  34781              ¿þþþþþþþþþþþþþþþþþþþþþþþþþþþþþþþþþþþþþþþþþþþþþþþþþþþþþþþþþþþþþþþþþþþþþÜ
                                   34782              Ÿ                                                                     Ÿ
                                   34783              Ÿ  TCPFLOW -- Local routine to handle Amelia flow control requests.   Ÿ
                                   34784              Ÿ    If we get a TCP_STOP request then we simply set a flag here;     Ÿ
                                   34785              Ÿ    then when we get the next write request (see NPATSEG) we will    Ÿ
                                   34786              Ÿ    wait until a TCP_START is sent.                                  Ÿ
                                   34787              Ÿ                                                                     Ÿ
                                                      ¾þþþþþþþþþþþþþþþþþþþþþþþþþþþþþþþþþþþþþþþþþþþþþþþþþþþþþþþþþþþþþþþþþþþþþ»
0004CD2 50E0 D000/9008_      00000 34788              TCPFLOW  PROC
 USING  *,R7
 USING  NPWA,R5                    34827                       WITH  (NPWA,R5)           Entry assumption
                                   34840
 004CEC 58F0 5018            00018 34841                       L     R15,NPWORD1         Our id
 004CF0 4DE0 719E            04E8A 34842                       LCALL GETUNET             Get our UNET ptr
 004CF4 186F                       34844                       LR    R6,R15
 USING  UNET,R6                    34845                       WITH  (UNET,R6)
                                   34858
 004CF6 4120 0001            00001 34859                       LA    R2,1                1 means "input buffer"
 004CFA 41F0 6000            00000 34860                       LA    R15,UNET
 004CFE 58E0 7484/0DEE       05170 34861                       ACALL NETTRC              Save buffer for trace
                                   34865
 004D04 9508 6160/47A0_00160       34866                       IF    (UNETSTATE,GE,UNETSFCLOSING),EXIT  Ignore
                                   34887                       ¿þþþþþþþþþþþþþþþþþþþþþþþþþþþþþþþþþþþþþþþþþþþþÜ
                                   34888                       Ÿ  TCP_STOP:   Stop sending data to Amelia.  Ÿ
                                   34889                       ¾þþþþþþþþþþþþþþþþþþþþþþþþþþþþþþþþþþþþþþþþþþþþ»
 004D0C D508 74F7 5008_051E3 00008 34890                       IF    (NPID,EQ,'TCP_STOP:'),BEGIN  Stop...
 004D16 9680 6164      00164       34907  1                      SET   UNETFOUTSTOP        Stop sending data
                                   34913  1
 004D1A 9504 6160/4770_00160       34914  1                      IF    (UNETSTATE,EQ,UNETSFOPEN),BEGIN  Lower state...
 004D22 9203 6160      00160       34932  2                        MVI   UNETSTATE,UNETSFOPENSTOP
 004D26                            34933  1                      END
                                   34937  1
 004D26 9506 6160/4770_00160       34938  1                      IF    (UNETSTATE,EQ,UNETSFDATA),BEGIN
 004D2E 9205 6160      00160       34956  2                        MVI   UNETSTATE,UNETSFDATASTOP
 004D32                            34957  1                      END
 004D32                            34961                       END
                                   34965                       ¿þþþþþþþþþþþþþþþþþþþþþþþþþþþþþþþþþþþþþþþþþþþþþþþþÜ
                                   34966                       Ÿ  TCP_START:  OK to send data to Amelia again.  Ÿ
                                   34967                       ¾þþþþþþþþþþþþþþþþþþþþþþþþþþþþþþþþþþþþþþþþþþþþþþþþ»
 004D32 704A/47F0 7066 04D32 04D14 34968                       ELSE  BEGIN               Start...
 004D36 947F 6164      00164       34979  1                      CLEAR UNETFOUTSTOP        Start sending data again
                                   34986  1
 004D3A 9503 6160/4770_00160       34987  1                      IF    (UNETSTATE,EQ,UNETSFOPENSTOP),BEGIN  Raise state...
 004D42 9204 6160      00160       35005  2                        MVI   UNETSTATE,UNETSFOPEN
 004D46                            35006  1                      END
                                   35010  1
 004D46 9505 6160/4770_00160       35011  1                      IF    (UNETSTATE,EQ,UNETSFDATASTOP),BEGIN
 004D4E 9206 6160      00160       35029  2                        MVI   UNETSTATE,UNETSFDATA
 004D52                            35030  1                      END
 004D52                            35034                       END
                                   35038
 004D52 18D8/9808 D004_            35039                       PEND
 DROP   UNET,R6
1NPAT     (NPAT2193) (12:50) (15MAR04) Network Interface Routines -- Dispatcher Subroutines                                 Page  120
0Current Usings:  (CV,R12)
0Loc    Object Code    Addr1 Addr2  Stmt Lv Lineno    Source Statement           (Hibal 5, Asmedit 3.3)  HLASM R4.0  2004/03/15 12.50
+___    ______ ____    _____ _____  ____ __ ______    ______ _________
0DROP   NPWA,R5
 DROP   *,R7
1NPAT     (NPAT2193) (12:50) (15MAR04) Network Interface Routines -- Dispatcher Subroutines                                 Page  121
0Current Usings:  (CV,R12)
0Loc    Object Code    Addr1 Addr2  Stmt Lv Lineno    Source Statement           (Hibal 5, Asmedit 3.3)  HLASM R4.0  2004/03/15 12.50
+___    ______ ____    _____ _____  ____ __ ______    ______ _________
0                                  35070              ¿þþþþþþþþþþþþþþþþþþþþþþþþþþþþþþþþþþþþþþþþþþþþþþþþþþþþþþþþþþþþþþþþþþþþþÜ
                                   35071              Ÿ                                                                     Ÿ
                                   35072              Ÿ  TCPEOF -- Local routine to handle an end of file on a TCP          Ÿ
                                   35073              Ÿ    connection.                                                      Ÿ
                                   35074              Ÿ                                                                     Ÿ
                                                      ¾þþþþþþþþþþþþþþþþþþþþþþþþþþþþþþþþþþþþþþþþþþþþþþþþþþþþþþþþþþþþþþþþþþþþþ»
0004D60 50E0 D000/9008_      00000 35075              TCPEOF   PROC
 USING  *,R7
 USING  NPWA,R5                    35114                       WITH  (NPWA,R5)           Entry assumption
                                   35127
 004D7A 58F0 5018            00018 35128                       L     R15,NPWORD1         Our id
 004D7E 4DE0 7110            04E8A 35129                       LCALL GETUNET             Get our UNET ptr
 004D82 186F                       35131                       LR    R6,R15
 USING  UNET,R6                    35132                       WITH  (UNET,R6)
                                   35145
 004D84 4120 0001            00001 35146                       LA    R2,1                1 means "input buffer"
 004D88 41F0 6000            00000 35147                       LA    R15,UNET
 004D8C 58E0 73F6/0DEE       05170 35148                       ACALL NETTRC              Save buffer for trace
                                   35152
 004D92 9604 6164      00164       35153                       SET   UNETFINEOF          We received normal eof
                                   35159                       ¿þþþþþþþþþþþþþþþþþþþþþþþþþþþþþþþþþþþþþþþþþþþþþþþþþþÜ
                                   35160                       Ÿ  Change state to indicate that data is waiting.  Ÿ
                                   35161                       ¾þþþþþþþþþþþþþþþþþþþþþþþþþþþþþþþþþþþþþþþþþþþþþþþþþþ»
 004D96 9505 6160/47B0_00160       35162                       IF    (UNETSTATE,LT,UNETSFDATASTOP),BEGIN  Change state...
 004D9E 9206 6160      00160       35180  1                      MVI   UNETSTATE,UNETSFDATA  Data waiting
 004DA2 9180 6164/47E0_00164       35181  1                      IF    UNETFOUTSTOP,'MVI UNETSTATE,UNETSFDATASTOP'
 004DAE                            35202                       END
                                   35206                       ¿þþþþþþþþþþþþþþþþþþþþþþþþþþþþþþþþþþþþþþþþþþþþþþþþþþþþþþþþþþþÜ
                                   35207                       Ÿ  If this is a "server" connection then call SERVPOST      Ÿ
                                   35208                       Ÿ    (in the QUERY module) to handle the noteworthy event.  Ÿ
                                   35209                       ¾þþþþþþþþþþþþþþþþþþþþþþþþþþþþþþþþþþþþþþþþþþþþþþþþþþþþþþþþþþþ»
 004DAE 58F0 6024/12FF       00024 35210                       LT    R15,UNETSVIB
 004DB4 4780 7044/58E0_      04DBE 35214                       IF    NZ,'VCALL SERVPOST'  Call SERV
 004DBE 18D8/9808 D004_            35234                       PEND
 DROP   UNET,R6
 DROP   NPWA,R5
 DROP   *,R7
1NPAT     (NPAT2193) (12:50) (15MAR04) Network Interface Routines -- Dispatcher Subroutines                                 Page  122
0Current Usings:  (CV,R12)
0Loc    Object Code    Addr1 Addr2  Stmt Lv Lineno    Source Statement           (Hibal 5, Asmedit 3.3)  HLASM R4.0  2004/03/15 12.50
+___    ______ ____    _____ _____  ____ __ ______    ______ _________
0                                  35265              ¿þþþþþþþþþþþþþþþþþþþþþþþþþþþþþþþþþþþþþþþþþþþþþþþþþþþþþþþþþþþþþþþþþþþþþÜ
                                   35266              Ÿ                                                                     Ÿ
                                   35267              Ÿ  TCPABORT -- Local routine to handle an aborted TCP connection.     Ÿ
                                   35268              Ÿ                                                                     Ÿ
                                                      ¾þþþþþþþþþþþþþþþþþþþþþþþþþþþþþþþþþþþþþþþþþþþþþþþþþþþþþþþþþþþþþþþþþþþþþ»
0004DCC 50E0 D000/9008_      00000 35269              TCPABORT PROC
 USING  *,R7
 USING  NPWA,R5                    35308                       WITH  (NPWA,R5)           Entry assumption
                                   35321
 004DE6 58F0 5018            00018 35322                       L     R15,NPWORD1         Our id
 004DEA 4DE0 70A4            04E8A 35323                       LCALL GETUNET             Get our UNET ptr
 004DEE 186F                       35325                       LR    R6,R15
 USING  UNET,R6                    35326                       WITH  (UNET,R6)
                                   35339
 004DF0 4120 0001            00001 35340                       LA    R2,1                1 means "input buffer"
 004DF4 41F0 6000            00000 35341                       LA    R15,UNET
 004DF8 58E0 738A/0DEE       05170 35342                       ACALL NETTRC              Save buffer for trace
                                   35346              *
                                   35347              *  Check the abort message. If it's 'ERROR: DATA OVERFLOW' we've
                                   35348              *  made a bad mistake.
                                   35349              *
 004DFE 9823 5000            00000 35350                       LM    R2,R3,NPXPTRS       Get packet ptrs
 004E02 4130 3014            00014 35351                       LA    R3,@R3+L'NPID+4     Skip past header...
 004E06 4B20 73EE            051D4 35352                       SH    R2,=AL2(L'NPID+4)   Keep length accurate
 004E0A 47B0 702A/1B22       04E10 35353                       IF    NEG,'CLEAR R2'
 004E10 5920 73BA/4750_      051A0 35373                       IF    (R2,GE,20),BEGIN
 004E18 D513 73BE 3000_051A4 00000 35390  1                      FAIL  (@R3,EQ,'ERROR: DATA OVERFLOW'),TCPABORT,'Flow error'
 004E3A                            35418                       END
                                   35422                       ¿þþþþþþþþþþþþþþþþþþþþþþþþþþþþþþþþþþþþþþþþþþþþþþþþþþþþþþþþþÜ
                                   35423                       Ÿ  Connection has been aborted (the other side went away  Ÿ
                                   35424                       Ÿ    or something unusual closed the connection).         Ÿ
                                   35425                       ¾þþþþþþþþþþþþþþþþþþþþþþþþþþþþþþþþþþþþþþþþþþþþþþþþþþþþþþþþþ»
 004E3A 9602 6164      00164       35426                       SET   UNETFINABORT        We received an abort
                                   35432
 004E3E 9507 6160/47B0_00160       35433                       IF    (UNETSTATE,LT,UNETSFABORT),BEGIN  Active...
 004E46 9207 6160      00160       35451  1                      MVI   UNETSTATE,UNETSFABORT  We are closing now
 004E4A                            35452                       END
                                   35456              *
                                   35457              *
 004E4A D23F 602E C4D8 0002E 004D8 35458                       MVC   UNETEMSG,CVBLANKS
 004E50 0620/1222/4740_            35459                       MOVE  R2,UNETEMSG,@R3     Save error message text
 004E5C D53F 602E C4D8_0002E 004D8 35497                       IF    (UNETEMSG,EQ,CVBLANKS),'CLEAR UNETEMSG'
                                   35527                       ¿þþþþþþþþþþþþþþþþþþþþþþþþþþþþþþþþþþþþþþþþþþþþþþþþþþþþþþþþþþþÜ
                                   35528                       Ÿ  If this is a "server" connection then call SERVPOST      Ÿ
                                   35529                       Ÿ    (in the QUERY module) to handle the noteworthy event.  Ÿ
                                   35530                       ¾þþþþþþþþþþþþþþþþþþþþþþþþþþþþþþþþþþþþþþþþþþþþþþþþþþþþþþþþþþþ»
 004E6C 58F0 6024/12FF       00024 35531                       LT    R15,UNETSVIB
 004E72 4780 7096/58E0_      04E7C 35535                       IF    NZ,'VCALL SERVPOST'  Call SERV
 004E7C 18D8/9808 D004_            35555                       PEND
 DROP   UNET,R6
 DROP   NPWA,R5
 DROP   *,R7
1NPAT     (NPAT2193) (12:50) (15MAR04) Network Interface Routines -- Dispatcher Subroutines                                 Page  123
0Current Usings:  (CV,R12)
0Loc    Object Code    Addr1 Addr2  Stmt Lv Lineno    Source Statement           (Hibal 5, Asmedit 3.3)  HLASM R4.0  2004/03/15 12.50
+___    ______ ____    _____ _____  ____ __ ______    ______ _________
0                                  35586              ¿þþþþþþþþþþþþþþþþþþþþþþþþþþþþþþþþþþþþþþþþþþþþþþþþþþþþþþþþþþþþþþþþþþþþþÜ
                                   35587              Ÿ                                                                     Ÿ
                                   35588              Ÿ  GETUNET -- Local routine to get the UNET ptr given the network     Ÿ
                                   35589              Ÿ    path number.                                                     Ÿ
                                   35590              Ÿ                                                                     Ÿ
                                   35591              Ÿ    On entry:                                                        Ÿ
                                   35592              Ÿ      R15 - net path number                                          Ÿ
                                   35593              Ÿ                                                                     Ÿ
                                   35594              Ÿ    On exit:                                                         Ÿ
                                   35595              Ÿ      R15 - UNET ptr                                                 Ÿ
                                   35596              Ÿ                                                                     Ÿ
                                                      ¾þþþþþþþþþþþþþþþþþþþþþþþþþþþþþþþþþþþþþþþþþþþþþþþþþþþþþþþþþþþþþþþþþþþþþ»
0004E8A 50E0 D000/9008_      00000 35597              GETUNET  PROC
 USING  *,R7
 004EA4 182F                       35636                       LR    R2,R15              Path number
 004EA6 0620                       35637                       DECR  R2                  Relative to zero, not one
 004EA8 8920 0002            00002 35639                       SLL   R2,2                Times 4 for word offset
 004EAC 5A20 C0A8            000A8 35640                       A     R2,CVNETP           Ptr to appropriate table entry
 004EB0 58F0 2000/12FF       00000 35641                       LT    R15,@R2             Get UNET ptr
 004EB6 4770 702E/900F_      04ED2 35645                       FAIL  Z,GETUNET,'Bad network connection ID'
 004ED2 18D8/9808 D004_            35668                       PEND
 DROP   *,R7
1NPAT     (NPAT2193) (12:50) (15MAR04) Network Interface Routines -- Dispatcher Subroutines                                 Page  124
0Current Usings:  (CV,R12)
0Loc    Object Code    Addr1 Addr2  Stmt Lv Lineno    Source Statement           (Hibal 5, Asmedit 3.3)  HLASM R4.0  2004/03/15 12.50
+___    ______ ____    _____ _____  ____ __ ______    ______ _________
0                                  35689              ¿þþþþþþþþþþþþþþþþþþþþþþþþþþþþþþþþþþþþþþþþþþþþþþþþþþþþþþþþþþþþþþþþþþþþþÜ
                                   35690              Ÿ                                                                     Ÿ
                                   35691              Ÿ  NETTRC -- Routine to queue a trace buffer for debugging (if        Ÿ
                                   35692              Ÿ    the user has set network tracing).                               Ÿ
                                   35693              Ÿ                                                                     Ÿ
                                   35694              Ÿ    On entry:                                                        Ÿ
                                   35695              Ÿ      R1,R0 - data loc, len                                          Ÿ
                                   35696              Ÿ      R2    - type of trace:                                         Ÿ
                                   35697              Ÿ              0 = output buffer                                      Ÿ
                                   35698              Ÿ              1 = input buffer                                       Ÿ
                                   35699              Ÿ      R15   - UNET ptr (or zero if n/a)                              Ÿ
                                   35700              Ÿ                                                                     Ÿ
                                                      ¾þþþþþþþþþþþþþþþþþþþþþþþþþþþþþþþþþþþþþþþþþþþþþþþþþþþþþþþþþþþþþþþþþþþþþ»
0004EE0 50E0 D000/9008_      00000 35701              NETTRC   PROC
 USING  *,R7
                                   35740                       ¿þþþþþþþþþþþþþþþþþþþþþþþþþþþþþþþþþþþþþþþþþþþþþþþþþþþþþþþþþÜ
                                   35741                       Ÿ  Only save the buffer if network tracing is requested.  Ÿ
                                   35742                       ¾þþþþþþþþþþþþþþþþþþþþþþþþþþþþþþþþþþþþþþþþþþþþþþþþþþþþþþþþþ»
 USING  UNET,R15                   35743                       USING UNET,R15
 004EFA 12FF/4780 7026_            35752                       IF    ((R15,NZ),AND,(UNETTTBL,NZ)),BEGIN
 004F0A 90F2 D000/41D0_      00000 35781  1                      XPUSH R15,R2
 004F12 58E0 72BE/0DEE       051B8 35784  1                      ACALL UNETTRC             Do a connection trace
 004F18 4BD0 72DC/98F2_      051D6 35788  1                      XPOP  R15,R2
 004F20                            35791                       END
 DROP   UNET,R15                   35795                       DROP  R15
                                   35802
 004F20 9102 C4C4/47E0_004C4       35803                       IF    CVFNTRC,BEGIN       Net tracing...
 004F28 186F                       35818  1                      LR    R6,R15
                                   35819  1
 004F2A 1841                       35820  1                      LR    R4,R1
 004F2C 1830                       35821  1                      LR    R3,R0
                                   35822  1
 004F2E 4A00 72DE            051D8 35823  1                      AH    R0,=AL2(L'ETRCHDR)  Get a new trace buffer
 004F32 0700/47F0 7042_            35824  1                      GETMAIN RU,LV=(0),LOC=ANY
 004F44 1851                       35836  1                      LR    R5,R1
 USING  ETRC,R5                    35837  1                      WITH  (ETRC,R5)
 004F46 D719 5000 5000 00000 00000 35850  1                      CLEAR ETRCHDR
 004F4C D203 5000 72C2 00000 051BC 35857  1                      MVC   ETRC(4),=C'ETRC'    Set self-identification
 004F52 D203 5004 C2B4 00004 002B4 35858  1                      MVC   ETRCLINK,CVETRCP    Set our queue link ptr
 004F58 58E0 72C6/0DEE       051C0 35859  1                      VCALL LOCALTOD            Time stamp
 004F5E 9001 5008            00008 35863  1                      STM   R0,R1,ETRCCLCK
                                   35864  1
 004F62 5920 72CA/4770_      051C4 35865  1                      IF    (R2,EQ,0),'SET ETRCFOUT'  Output buffer
 004F6E 5920 72CE/4770_      051C8 35893  1                      IF    (R2,EQ,1),'SET ETRCFIN'   Input buffer
                                   35921  1
 004F7A D204 5012 72F2 00012 051EC 35922  1                      MVC   ETRCACCT,=C'?????'  Pre-set unknown account
 004F80 1266/4780 7098             35923  1                      IF    (R6,NZ),BEGIN       Save session info if avail...
 USING  UNET,R6                    35937  2                        WITH  (UNET,R6)
 004F86 D201 5010 600A 00010 0000A 35950  2                        MVC   ETRCSNO,UNETSNO     Save session number
 004F8C D204 5012 6004 00012 00004 35951  2                        MVC   ETRCACCT,UNETACCT   Save account
 DROP   UNET,R6                    35952  1                      END
                                   35961  1
 004F92 4030 5018            00018 35962  1                      STH   R3,ETRCDLEN         Save data length
1NPAT     (NPAT2193) (12:50) (15MAR04) Network Interface Routines -- Dispatcher Subroutines                                 Page  125
0Current Usings:  (ETRC,R5) (*,R7) (CV,R12)
0Loc    Object Code    Addr1 Addr2  Stmt Lv Lineno    Source Statement           (Hibal 5, Asmedit 3.3)  HLASM R4.0  2004/03/15 12.50
+___    ______ ____    _____ _____  ____ __ ______    ______ _________
0004F96 41E0 501A/18F3_      0001A 35963  1                      MOVEL ETRCDATA,(R4),(R3)  Save data
                                   35983  1                      ¿þþþþþþþþþþþþþþþþþþþþþþþþþþþþþþþþþþþþþþþÜ
                                   35984  1                      Ÿ  Now link this new ETRC trace entry.  Ÿ
                                   35985  1                      ¾þþþþþþþþþþþþþþþþþþþþþþþþþþþþþþþþþþþþþþþ»
 004FA2 5050 C2B4            002B4 35986  1                      ST    R5,CVETRCP          Set new ETRC queue head
                                   35987  1
 004FA6 41F0 0001/4AF0_      00001 35988  1                      INCR  R15,CVENTRC         Keep count of number of entries
                                   35994  1                      ¿þþþþþþþþþþþþþþþþþþþþþþþþÜ
                                   35995  1                      Ÿ  Free oldest entries.  Ÿ
                                   35996  1                      ¾þþþþþþþþþþþþþþþþþþþþþþþþ»
 004FB2 D501 72E0 C2B8_051DA 002B8 35997  1                      WHILE (CVENTRC,GT,=Y(CVETRC#)),'CLEAR R1; LCALL FREEETRC'
 DROP   ETRC,R5                    36028                       END
                                   36037
 004FC6 18D8/9808 D004_            36038                       PEND
 DROP   *,R7
1NPAT     (NPAT2193) (12:50) (15MAR04) Network Interface Routines -- Dispatcher Subroutines                                 Page  126
0Current Usings:  (CV,R12)
0Loc    Object Code    Addr1 Addr2  Stmt Lv Lineno    Source Statement           (Hibal 5, Asmedit 3.3)  HLASM R4.0  2004/03/15 12.50
+___    ______ ____    _____ _____  ____ __ ______    ______ _________
0                                  36059              ¿þþþþþþþþþþþþþþþþþþþþþþþþþþþþþþþþþþþþþþþþþþþþþþþþþþþþþþþþþþþþþþþþþþþþþÜ
                                   36060              Ÿ                                                                     Ÿ
                                   36061              Ÿ  UNETTRC -- Perform a connection trace                              Ÿ
                                   36062              Ÿ                                                                     Ÿ
                                   36063              Ÿ    On entry:                                                        Ÿ
                                   36064              Ÿ      R1,R0 - data loc, len                                          Ÿ
                                   36065              Ÿ      R2    - type of trace:                                         Ÿ
                                   36066              Ÿ              0 = output buffer                                      Ÿ
                                   36067              Ÿ              1 = input buffer                                       Ÿ
                                   36068              Ÿ      R15   - UNET ptr                                               Ÿ
                                   36069              Ÿ                                                                     Ÿ
                                                      ¾þþþþþþþþþþþþþþþþþþþþþþþþþþþþþþþþþþþþþþþþþþþþþþþþþþþþþþþþþþþþþþþþþþþþþ»
0004FD4 50E0 D000/9008_      00000 36070              UNETTRC  PROC
 USING  *,R7
 004FEE 186F                       36109                       LR    R6,R15
 USING  UNET,R6                    36110                       WITH  (UNET,R6)
                                   36123
 004FF0 1841                       36124                       LR    R4,R1
 004FF2 1830                       36125                       LR    R3,R0
                                   36126
 004FF4 58F0 61FC            001FC 36127                       L     R15,UNETTTBL        Get pointer to
 004FF8 5800 6200            00200 36128                       L     R0,UNETTTNX           next trace entry
 004FFC 8900 0005            00005 36129                       SLL   R0,CTRCSHFT             to be used
 005000 1AF0                       36130                       AR    R15,R0
                                   36131
 USING  CTRC,R15                   36132                       WITH  (CTRC,R15)
 005002 B205 F000      00000       36145                       STCK  CTRCCLCK            Timestamp
 005006 4220 F008            00008 36146                       STC   R2,CTRCSR           In/Out
 00500A 4030 F00A            0000A 36147                       STH   R3,CTRCLEN          Data length
 00500E D213 F00C 4000 0000C 00000 36148                       MVC   CTRCPKT(L'CTRCPKT),0(R4)    Save packet data
 DROP   CTRC,R15                   36149                       DROP  R15
                                   36156
 005014 58F0 6200            00200 36157                       L     R15,UNETTTNX        Set next index
 005018 41F0 F001            00001 36158                       LA    R15,1(,R15)
 00501C 59F0 71DE/4750_      051CC 36159                       IF    (R15,GE,CTRC#),'CLEAR R15'
 005026 50F0 6200            00200 36185                       ST    R15,UNETTTNX
                                   36186
 00502A 18D8/9808 D004_            36187                       PEND
 DROP   UNET,R6
 DROP   *,R7
1NPAT     (NPAT2193) (12:50) (15MAR04) Network Interface Routines -- Dispatcher Subroutines                                 Page  127
0Current Usings:  (CV,R12)
0Loc    Object Code    Addr1 Addr2  Stmt Lv Lineno    Source Statement           (Hibal 5, Asmedit 3.3)  HLASM R4.0  2004/03/15 12.50
+___    ______ ____    _____ _____  ____ __ ______    ______ _________
0                                  36215              ¿þþþþþþþþþþþþþþþþþþþþþþþþþþþþþþþþþþþþþþþþþþþþþþþþþþþþþþþþþþþþþþþþþþþþþÜ
                                   36216              Ÿ                                                                     Ÿ
                                   36217              Ÿ  FREEETRC -- Routine to free a trace entry.                         Ÿ
                                   36218              Ÿ                                                                     Ÿ
                                   36219              Ÿ    On entry:                                                        Ÿ
                                   36220              Ÿ      R1 - ETRC ptr of entry to free;                                Ÿ
                                   36221              Ÿ             or zero to free last (oldest) entry.                    Ÿ
                                   36222              Ÿ                                                                     Ÿ
                                   36223              Ÿ    On exit, R15 (and cc):                                           Ÿ
                                   36224              Ÿ      0 - no entries left in trace queue                             Ÿ
                                   36225              Ÿ      nz- there are still entries in the trace queue                 Ÿ
                                   36226              Ÿ                                                                     Ÿ
                                                      ¾þþþþþþþþþþþþþþþþþþþþþþþþþþþþþþþþþþþþþþþþþþþþþþþþþþþþþþþþþþþþþþþþþþþþþ»
0005038 50E0 D000/9008_      00000 36227              FREEETRC XPROC
 USING  *,R7
 005052 1861                       36267                       LR    R6,R1               ETRC ptr
                                   36268                       ¿þþþþþþþþþþþþþþþþþþþþþþþþþþþþþþþþþþþþþþþþþþþþþþþþþþþþþþþþþþþþþÜ
                                   36269                       Ÿ  Find the previous ETRC entry so we can unlink this entry.  Ÿ
                                   36270                       ¾þþþþþþþþþþþþþþþþþþþþþþþþþþþþþþþþþþþþþþþþþþþþþþþþþþþþþþþþþþþþþ»
 005054 1B55                       36271                       CLEAR R5                  Previous entry ptr
 005056 58F0 C2B4/12FF       002B4 36275                       LT    R15,CVETRCP         First entry ptr
 00505C 4770 7026/900F_      05078 36279                       FAIL  Z,ETRCERR1,'Free ETRC logic error.'
                                   36302
 005078                            36303                       LOOP  BEGIN               Go through ETRC entries...
 USING  ETRC,R15                   36309  1                      WITH  (ETRC,R15)
                                   36322  1
 005078 1266/4770 703C_            36323  1                      IF    ((R6,Z),AND,(ETRCLINK,Z)),BEGIN  Free last entry...
 005088 186F                       36352  2                        LR    R6,R15              Set current ptr to last entry
 00508A 47F0 706A            050BC 36353  2                        B     FETRCOM
 00508E                            36354  1                      END
                                   36358  1
 00508E 196F/4780 706A             36359  1                      IF    (R6,EQ,R15),FETRCOM  Matched the entry, scram
                                   36377  1
 005094 185F                       36378  1                      LR    R5,R15              Save previous entry ptr
 005096 58F0 F004/12FF       00004 36379  1                      LT    R15,ETRCLINK        Next ETRC entry
 00509C 4770 7066/900F_      050B8 36383  1                      FAIL  Z,ETRCERR2,'Free ETRC logic error.'
 0050B8 47F0 7026            05078 36406                       END
 DROP   ETRC,R15
                                   36416                       ¿þþþþþþþþþþþþþþþþþþþþþþþþþþþÜ
                                   36417                       Ÿ  Dequeue our ETRC entry.  Ÿ
                                   36418                       ¾þþþþþþþþþþþþþþþþþþþþþþþþþþþ»
 0050BC 1255/4770 7076             36419              FETRCOM  IF    (R5,Z),BEGIN        We are removing the 1st entry...
 0050C2 D203 C2B4 6004 002B4 00004 36434  1                      MVC   CVETRCP,ETRCLINK-ETRC(R6)  Set new queue head
 0050C8                            36435                       END
                                   36439
 0050C8 707A/47F0 70A2 050C8 050C0 36440                       ELSE  BEGIN               Dequeue...
 USING  ETRC,R5                    36451  1                      WITH  (ETRC,R5)
 0050CC D503 716A 5000_051BC 00000 36464  1                      FAIL  (ETRC,NE,'ETRC'),ETRCERR3,'Free ETRC logic error.'
 0050EE D203 5004 6004 00004 00004 36493  1                      MVC   ETRCLINK,ETRCLINK-ETRC(R6)  Dequeue our entry
 DROP   ETRC,R5                    36494                       END
1NPAT     (NPAT2193) (12:50) (15MAR04) Network Interface Routines -- Dispatcher Subroutines                                 Page  128
0Current Usings:  (*,R7) (CV,R12)
0Loc    Object Code    Addr1 Addr2  Stmt Lv Lineno    Source Statement           (Hibal 5, Asmedit 3.3)  HLASM R4.0  2004/03/15 12.50
+___    ______ ____    _____ _____  ____ __ ______    ______ _________
0                                  36503                       ¿þþþþþþþþþþþþþþþþþþþþþþþþÜ
                                   36504                       Ÿ  Free the ETRC entry.  Ÿ
                                   36505                       ¾þþþþþþþþþþþþþþþþþþþþþþþþ»
 USING  ETRC,R6                    36506                       WITH  (ETRC,R6),BEGIN
 0050F4 D503 716A 6000_051BC 00000 36520  1                      FAIL  (ETRC,NE,'ETRC'),ETRCERR4,'Free ETRC logic error.'
 005116 D203 6000 717E 00000 051D0 36549  1                      MVC   ETRC(4),=C'OXTR'    Neatness
 00511C D203 6004 7132 00004 05184 36550  1                      MVC   ETRCLINK,=F'-1'     (Ditto)
                                   36551  1
 005122 4110 6000            00000 36552  1                      LA    R1,ETRC
 005126 4100 001A            0001A 36553  1                      LA    R0,L'ETRCHDR        ETRC header...
 00512A 4A00 6018            00018 36554  1                      AH    R0,ETRCDLEN         ...plus buffer (variable length)
 00512E 0700/47F0 70E6_            36555  1                      FREEMAIN RU,A=(1),LV=(0)
                                   36565  1
 00513E 48F0 C2B8/06F0_      002B8 36566  1                      DECR  R15,CVENTRC         Decrement number of trace entries
 DROP   ETRC,R6                    36571                       END
                                   36579
 005148 58F0 C2B4/12FF       002B4 36580                       LT    R15,CVETRCP         Set CC for caller
 00514E 18D8/9808 D004_            36584                       PEND
 DROP   *,R7
                                   36604
                                   36605                       QLTORG
                                   36648
                                   36649                       VLTORG
 005330                05330 05330 36674                       END   .

1NPAT     (NPAT2193) (12:50) (15MAR04) Relocation Dictionary                                                                Page  129
-   Pos.Id   Rel.Id   Flags    Address                                                       HLASM R4.0  2004/03/15 12.50
0  00000001 00000001    08    00000329
   00000001 00000001    08    00000349
   00000001 00000001    08    000003AB
   00000001 00000001    08    000003CB
   00000001 00000001    08    0000045D
   00000001 00000001    0C    000004A8
   00000001 00000001    0C    000004AC
   00000001 00000001    0C    000004C0
   00000001 00000001    0C    000004C4
   00000001 00000001    0C    000004CC
   00000001 00000001    08    0000056B
   00000001 00000001    08    00000635
   00000001 00000001    08    00000893
   00000001 00000001    08    0000095D
   00000001 00000001    08    00000AFB
   00000001 00000001    0C    00000EF8
   00000001 00000001    0C    00000EFC
   00000001 00000001    0C    00000F00
   00000001 00000001    0C    00000F04
   00000001 00000001    0C    00000F08
   00000001 00000001    0C    00000F0C
   00000001 00000001    0C    00000F10
   00000001 00000001    0C    00000F14
   00000001 00000001    0C    00000F18
   00000001 00000001    0C    00000F1C
   00000001 00000001    0C    00000F20
   00000001 00000001    0C    00000F24
   00000001 00000001    0C    00000F28
   00000001 00000001    0C    00000F2C
   00000001 00000001    0C    00000F30
   00000001 00000001    0C    00000F34
   00000001 00000001    0C    00000F38
   00000001 00000001    0C    00001280
   00000001 00000001    0C    00001288
   00000001 00000001    0C    0000128C
   00000001 00000001    0C    000012B0
   00000001 00000001    08    0000141B
   00000001 00000001    08    00001607
   00000001 00000001    0C    00001CD8
   00000001 00000001    08    00001D51
   00000001 00000001    0C    00002190
   00000001 00000001    0C    000021A0
   00000001 00000001    0C    000021A4
   00000001 00000001    0C    000021AC
   00000001 00000001    0C    000021B0
   00000001 00000001    0C    000021B4
   00000001 00000001    08    00002EBF
   00000001 00000001    08    00002EFD
   00000001 00000001    08    000030F7
   00000001 00000001    08    0000313F
   00000001 00000001    08    0000315F
   00000001 00000001    08    00003295
   00000001 00000001    08    000032B7
   00000001 00000001    0C    00003424
   00000001 00000001    0C    0000342C
1NPAT     (NPAT2193) (12:50) (15MAR04) Relocation Dictionary                                                                Page  130
   00000001 00000001    0C    00003434
   00000001 00000001    0C    00003450
   00000001 00000001    0C    00003F84
   00000001 00000001    08    00004563
   00000001 00000001    08    000045D1
   00000001 00000001    08    0000461F
   00000001 00000001    08    000046F7
   00000001 00000001    0C    000049D8
   00000001 00000001    0C    000049E8
   00000001 00000001    0C    000049EC
   00000001 00000001    08    00004AAF
   00000001 00000001    08    00004B0F
   00000001 00000001    08    00004E37
   00000001 00000001    08    00004ECF
   00000001 00000001    08    00005075
   00000001 00000001    08    000050B5
   00000001 00000001    08    000050EB
   00000001 00000001    08    00005113
   00000001 00000001    0C    00005170
   00000001 00000001    0C    00005178
   00000001 00000001    0C    00005180
   00000001 00000001    0C    0000518C
   00000001 00000001    0C    000051B8
   00000001 00000002    1C    000004A4
   00000001 00000003    1C    000004B0
   00000001 00000004    1C    000004C8
   00000001 00000004    1C    000033C4
   00000001 00000005    1C    000004D0
   00000001 00000006    1C    000004D4
   00000001 00000006    1C    00002444
   00000001 00000006    1C    000033EC
   00000001 00000007    1C    00001264
   00000001 00000008    1C    0000126C
   00000001 00000009    1C    00001270
   00000001 00000009    1C    00001CCC
   00000001 00000009    1C    0000217C
   00000001 00000009    1C    00002430
   00000001 00000009    1C    00002684
   00000001 00000009    1C    000033C8
   00000001 00000009    1C    00003EF0
   00000001 00000009    1C    000049F0
   00000001 00000009    1C    00005190
   00000001 0000000A    1C    00001274
   00000001 0000000A    1C    00002688
   00000001 0000000A    1C    000033D4
   00000001 0000000A    1C    00003EF4
   00000001 0000000A    1C    00004260
   00000001 0000000A    1C    00005194
   00000001 0000000B    1C    00001278
   00000001 0000000B    1C    000033D0
   00000001 0000000C    1C    0000127C
   00000001 0000000C    1C    00001CD4
   00000001 0000000C    1C    00002180
   00000001 0000000C    1C    000033F4
   00000001 0000000C    1C    000049F4
   00000001 0000000C    1C    00005198
   00000001 0000000D    1C    00001284
   00000001 0000000D    1C    000021BC
   00000001 0000000E    1C    00001298
1NPAT     (NPAT2193) (12:50) (15MAR04) Relocation Dictionary                                                                Page  131
   00000001 0000000E    1C    00003420
   00000001 0000000F    1C    000012A4
   00000001 0000000F    1C    000049DC
   00000001 00000010    1C    000012B4
   00000001 00000010    1C    0000343C
   00000001 00000011    1C    00001CB0
   00000001 00000011    1C    00002164
   00000001 00000012    1C    00001CB4
   00000001 00000012    1C    00002168
   00000001 00000012    1C    0000267C
   00000001 00000013    1C    00001CBC
   00000001 00000013    1C    00002170
   00000001 00000014    1C    00001CC0
   00000001 00000014    1C    00002174
   00000001 00000015    1C    00001CC4
   00000001 00000015    1C    00002178
   00000001 00000015    1C    00002670
   00000001 00000016    1C    00001CC8
   00000001 00000017    1C    00001CD0
   00000001 00000017    1C    0000341C
   00000001 00000018    1C    00001CDC
   00000001 00000018    1C    000033F8
   00000001 00000019    1C    00001CE8
   00000001 0000001A    1C    00002434
   00000001 0000001A    1C    00002680
   00000001 0000001A    1C    000033E8
   00000001 0000001B    1C    00002438
   00000001 0000001B    1C    0000268C
   00000001 0000001B    1C    000033E4
   00000001 0000001C    1C    00002440
   00000001 0000001D    1C    00002674
   00000001 0000001D    1C    000033B8
   00000001 0000001E    1C    00002678
   00000001 0000001E    1C    000033BC
   00000001 0000001F    1C    00002690
   00000001 00000020    1C    000033C0
   00000001 00000021    1C    000033D8
   00000001 00000022    1C    000033F0
   00000001 00000023    1C    00003404
   00000001 00000024    1C    00003430
   00000001 00000025    1C    00003438
   00000001 00000026    1C    00003440
   00000001 00000027    1C    0000344C
   00000001 00000028    1C    00003EE0
   00000001 00000028    1C    00004264
   00000001 00000029    1C    00003EE8
   00000001 00000029    1C    00004258
   00000001 0000002A    1C    00003EEC
   00000001 0000002A    1C    0000425C
   00000001 0000002B    1C    00003EFC
   00000001 0000002C    1C    00003F0C
   00000001 0000002D    1C    00003F1C
   00000001 0000002E    1C    000049B4
   00000001 0000002F    1C    000049B8
   00000001 00000030    1C    000049BC
   00000001 00000031    1C    000049C4
   00000001 00000032    1C    000049E0
   00000001 00000033    1C    000049E4
   00000001 00000034    1C    000049FC
1NPAT     (NPAT2193) (12:50) (15MAR04) Relocation Dictionary                                                                Page  132
   00000001 00000035    1C    0000517C
   00000001 00000036    1C    0000519C
   00000001 00000037    1C    000051C0

1NPAT     (NPAT2193) (12:50) (15MAR04) Ordinary Symbol and Literal Cross Reference                                          Page  133
-Symbol   Length   Value     Id    R Type   Defn References                                  HLASM R4.0  2004/03/15 12.50
0$$$@R0        1 00000000 FFFFFFFE     J     705  1035
 $$$@R10       1 00000000 FFFFFFF4     J     835  1099
 $$$@R11       1 00000000 FFFFFFF3     J     848  1112
 $$$@R12       1 00000000 FFFFFFF2     J     861  1125
 $$$@R13       1 00000000 FFFFFFF1     J     874  1138
 $$$@R14       1 00000000 FFFFFFF0     J     887  1151
 $$$@R7        1 00000000 FFFFFFF7     J     796  1048
 $$$@R8        1 00000000 FFFFFFF6     J     809  1061   1073
 $$$@R9        1 00000000 FFFFFFF5     J     822  1086
 $$$C1WYLNPAT
               1 0000052A 00000001     J    9071  9073   9110  11172  11309  11624  12517
 $$$C10WYLNPAT
               1 00004A60 00000001     J   33951 33953  35491
 $$$C11WYLNPAT
               1 000051F8 00000001     J   36643 36645
 $$$C12WYLNPAT
               1 00005330 00000001     J   36677 36679
 $$$C2WYLNPAT
               1 000013E0 00000001     J   13803 13805  13945
 $$$C3WYLNPAT
               1 00001D15 00000001     J   17996 17998  18130
 $$$C4WYLNPAT
               1 000021E2 00000001     J   19657 19659  19775  20340
 $$$C5WYLNPAT
               1 00002463 00000001     J   20783 20785  20814
 $$$C6WYLNPAT
               1 0000269E 00000001     J   21673 21675  22393  23096  24097  24235  25026
 $$$C7WYLNPAT
               1 0000350C 00000001     J   26830 26832  26859
 $$$C8WYLNPAT
               1 000041B0 00000001     J   30520 30522
 $$$C9WYLNPAT
               1 00004272 00000001     J   30827 30829  31564  31758  32262
 $$$D1WYLNPAT
               1 000013CE 00000001     J    9072 11161  11613  12506
 $$$D10WYLNPAT
               1 000051F1 00000001     J   33952 35480
 $$$D6WYLNPAT
               1 00003500 00000001     J   21674 24224  25015
 $$$D9WYLNPAT
               1 00004A59 00000001     J   30828 31747
 $$$RCP        1 00000000 FFFFFFEC     J    2469  4729   6203   6203
 $$$RCTRC      1 00000000 FFFFFFE4     J    7534  7553   7553
 $$$RCV        1 00000000 FFFFFFEE     J    1194  2379   2379
 $$$RDEV       1 00000000 FFFFFFEB     J    4683  4728   4728
 $$$RETRC      1 00000000 FFFFFFE1     J    7684  7722   7722
 $$$RFIELDWA
               1 00000000 FFFFFFD7     J   24056 24096  24096
 $$$RINBUF
               1 00000000 FFFFFFE2     J    7660  7675   7675
 $$$RJCB       1 00000000 FFFFFFE9     J    6321  6595   6595
 $$$RKWR       1 00000000 FFFFFFE8     J    6601  6806   6806
 $$$RNCLSWA
               1 00000000 FFFFFFD4     J   32248 32261  32261
 $$$RNPOWA
1NPAT     (NPAT2193) (12:50) (15MAR04) Ordinary Symbol and Literal Cross Reference                                          Page  134
               1 00000000 FFFFFFE0     J    9090  9109   9109
 $$$RNPWA      1 00000000 FFFFFFD5     J   31536 31563  31563
 $$$RNPXRWA
               1 00000000 FFFFFFDF     J   11272 11308  11308
 $$$RNSCNCB
               1 00000000 FFFFFFED     J    2390  2463   2463
 $$$RNTKWA
               1 00000000 FFFFFFDE     J   13830 13944  13944
 $$$RNVWWA
               1 00000000 FFFFFFDD     J   18021 18129  18129
 $$$RSCRYPTWA
               1 00000000 FFFFFFE3     J    7565  7581   7581
 $$$RSEGCB
               1 00000000 FFFFFFE7     J    6812  6912   6912
 $$$RSHTRWA
               1 00000000 FFFFFFD6     J   26845 26858  26858
 $$$RTTYPE
               1 00000000 FFFFFFEA     J    6214  6315   6315
 $$$RUNET      1 00000000 FFFFFFE5     J    7072  7528   7528
 $$$RUPATH
               1 00000000 FFFFFFE6     J    6923  7066   7066
 $$$RVDFMWA
               1 00000000 FFFFFFDC     J   19673 19774  19774
 $$$RVDMSGWA
               1 00000000 FFFFFFD8     J   23082 23095  23095
 $$$RVDPFWA
               1 00000000 FFFFFFDB     J   20237 20339  20339
 $$$RVDSTWA
               1 00000000 FFFFFFD9     J   22291 22392  22392
 $$$RVDWRWA
               1 00000000 FFFFFFDA     J   20799 20813  20813
 $$$SEGCB0
               4 00000050 FFFFFFEC     F    2500  2586   2586
 $$$SEGCB405
               4 00000000 FFFFFFDC     F   19680 19766  19766
 $$$SEGCB416
               4 00000000 FFFFFFDB     F   20244 20330  20330
 $$$SEGCB482
               4 00000000 FFFFFFD9     F   22298 22384  22384
 $$$SEGCB50
               4 0000010C FFFFFFE5     F    7210  7296   7296
 $$$V01       19 000051F8 00000001     C   36655  8554   8733   9209
 $$$V010      16 000052A0 00000001     C   36664 32148
 $$$V011      10 000052B0 00000001     C   36665 32459
 $$$V012      27 000052BA 00000001     C   36666 32819
 $$$V013      15 000052D5 00000001     C   36667 34069
 $$$V014      13 000052E4 00000001     C   36668 34212
 $$$V015      10 000052F1 00000001     C   36669 35413
 $$$V016      25 000052FB 00000001     C   36670 35663
 $$$V017      22 00005314 00000001     C   36671 36297  36401  36488  36544
 $$$V02       20 0000520B 00000001     C   36656  8581   8760
 $$$V03       17 0000521F 00000001     C   36657  8969
 $$$V04       23 00005230 00000001     C   36658  9454
 $$$V05       12 00005247 00000001     C   36659 10291  10639  11409  14036  18221  24832  32361
 $$$V06       15 00005253 00000001     C   36660 14911
 $$$V07       24 00005262 00000001     C   36661 24930
 $$$V08       20 0000527A 00000001     C   36662 25792  25866  25895
 $$$V09       18 0000528E 00000001     C   36663 26367  26395
 $$$100        1 00000040 00000001 A   U    9034  9031   9033
1NPAT     (NPAT2193) (12:50) (15MAR04) Ordinary Symbol and Literal Cross Reference                                          Page  135
 $$$102B       1 00000544 00000001     X    9138  9145U
 $$$103F       2 0000056E 00000001     H    9213  9198B
 $$$104F       2 00000586 00000001     H    9241  9227B
 $$$105F       2 000005AA 00000001     H    9287  9273B
 $$$105T       2 0000059A 00000001     H    9276  9260B
 $$$107F       2 000005BA 00000001     H    9315  9305B
 $$$108F       2 000005C8 00000001     H    9338  9328B
 $$$109F       2 000005DE 00000001     H    9362  9348B
 $$$110F       2 0000063C 00000001     H    9469  9377B
 $$$112F       2 00000638 00000001     H    9458  9443B
 $$$113B       4 00000684 00000001     I    9566  9732
 $$$113F       2 00000706 00000001     H    9729  9566B  9731
 $$$114E       2 0000070A 00000001     H    9739  9733
 $$$114F       2 0000071C 00000001     H    9773  9735B
 $$$115B       4 00000744 00000001     I    9824  9853
 $$$115F       2 0000075A 00000001     H    9850  9824B  9852
 $$$116E       2 0000075E 00000001     H    9860  9854
 $$$116F       2 00000780 00000001     H    9904  9856B
 $$$117F       2 000007DE 00000001     H   10017  9991B
 $$$118F       2 000007FE 00000001     H   10074 10064B
 $$$119F       2 00000810 00000001     H   10097 10087B
 $$$120F       2 0000084A 00000001     H   10165 10148B
 $$$120T       2 00000840 00000001     H   10151 10137B
 $$$122        1 00000068 00000001 A   U   10195 10192  10194
 $$$124B       1 00000872 00000001     X   10237 10244U
 $$$125F       2 00000896 00000001     H   10295 10280B
 $$$126F       2 0000090A 00000001     H   10511 10321B 10339B
 $$$128B       4 000008B6 00000001     I   10357 10397
 $$$128F       2 000008CA 00000001     H   10393 10357B 10396
 $$$130E       2 000008CE 00000001     H   10404 10398
 $$$130F       2 000008D6 00000001     H   10416 10400B
 $$$131        1 00000040 00000001 A   U   10543 10540  10542
 $$$133B       1 0000093C 00000001     X   10585 10592U
 $$$134F       2 00000960 00000001     H   10643 10628B
 $$$135S       2 00000966 00000001     H   10657 11064B
 $$$136F       2 00000990 00000001     H   10725 10670B
 $$$137F       2 0000098C 00000001     H   10718 10686B
 $$$139F       2 00000A3A 00000001     H   11058 10741B
 $$$139S       2 00000990 00000001     H   10735 11057B
 $$$141F       2 000009A8 00000001     H   10767 10757B
 $$$142F       2 000009E4 00000001     H   10874 10787B 10804B
 $$$144F       2 000009E0 00000001     H   10868 10859B
 $$$144S       2 000009BE 00000001     H   10815 10867B
 $$$148F       2 00000A0C 00000001     H   10959 10890B
 $$$149B       4 000009F6 00000001     I   10919 10935
 $$$149F       2 00000A00 00000001     H   10930 10906B 10919B 10932
 $$$150B       4 000009EE 00000001     I   10906 10933
 $$$151E       2 00000A04 00000001     H   10942 10934  10936
 $$$151F       2 00000A08 00000001     H   10954 10938B
 $$$152F       2 00000A26 00000001     H   11025 10974B
 $$$156F       2 00000A5C 00000001     H   11105 11095B
 $$$157F       2 00000A7E 00000001     H   11137 11125B
 $$$157S       2 00000A64 00000001     H   11116 11136B
 $$$159F       2 00000A8C 00000001     H   11177 11150B
 $$$160        6 000013CE 00000001     I   11167 11159X
 $$$161        6 000013CE 00000001     I   11166 11167  11167
 $$$162F       2 00000AA8 00000001     H   11219 11196B
 $$$163        1 00000040 00000001 A   U   11249 11246  11248
 $$$166F       2 00000BDC 00000001     H   11736 11552B
1NPAT     (NPAT2193) (12:50) (15MAR04) Ordinary Symbol and Literal Cross Reference                                          Page  136
 $$$167B       1 00000AD2 00000001     X   11337 11344U
 $$$168F       2 00000AFE 00000001     H   11413 11398B
 $$$169F       2 00000BA8 00000001     H   11656 11647B
 $$$169S       2 00000B0E 00000001     H   11428 11655B
 $$$170F       2 00000B72 00000001     H   11578 11439B
 $$$172F       2 00000B34 00000001     H   11492 11463B
 $$$174F       2 00000B6E 00000001     H   11571 11508B
 $$$175F       2 00000B5E 00000001     H   11556 11540B
 $$$175T       2 00000B4E 00000001     H   11543 11529B
 $$$177F       2 00000B90 00000001     H   11629 11605B
 $$$178        6 000013D4 00000001     I   11619 11611X
 $$$179        6 000013D4 00000001     I   11618 11619  11619
 $$$182F       2 00000BD4 00000001     H   11694 11684B
 $$$183        1 00000044 00000001 A   U   11745 11742  11744
 $$$185B       1 00000C04 00000001     X   11785 11792U
 $$$186F       2 00000C92 00000001     H   12050 11830B
 $$$187F       2 00000C92 00000001     H   12046 11890B 11911B 11931B
 $$$190F       2 00000CE2 00000001     H   12186 12064B
 $$$191F       2 00000CB2 00000001     H   12111 12095B
 $$$192F       2 00000CDC 00000001     H   12171 12141B
 $$$194F       2 00000CEE 00000001     H   12212 12203B
 $$$195F       2 00000CFA 00000001     H   12236 12227B
 $$$196F       2 00000D12 00000001     H   12265 12251B
 $$$197F       2 00000D2A 00000001     H   12294 12280B
 $$$198F       2 00000D54 00000001     H   12341 12308B
 $$$199F       2 00000D50 00000001     H   12336 12326B
 $$$200        1 00000040 00000001 A   U   12377 12374  12376
 $$$202B       1 00000D8E 00000001     X   12421 12428U
 $$$203F       2 00000DE8 00000001     H   12595 12470B 12532B
 $$$203S       2 00000D98 00000001     H   12464 12594B
 $$$205F       2 00000DAC 00000001     H   12494 12485B
 $$$206        6 000013DA 00000001     I   12512 12504X
 $$$207        6 000013DA 00000001     I   12511 12512  12512
 $$$209F       2 00000DE4 00000001     H   12590 12550B
 $$$210F       2 00000DDA 00000001     H   12582 12569B
 $$$212B       4 00000FB2 00000001     I   12742 12760
 $$$212F       2 00000FBA 00000001     H   12756 12742B 12759
 $$$213E       2 00000FBE 00000001     H   12767 12761
 $$$213F       2 00000FF2 00000001     H   12862 12763B
 $$$214F       2 00000FF2 00000001     H   12858 12781B
 $$$216F       2 00001016 00000001     H   12925 12910B
 $$$218B       4 00001032 00000001     I   12973 12987
 $$$218F       2 00001036 00000001     H   12982 12973B 12986
 $$$219B       4 0000103E 00000001     I   13005 13086
 $$$219E       2 0000103A 00000001     H   12994 12988
 $$$219F       2 0000106E 00000001     H   13082 12990B 13005B 13085
 $$$221E       2 00001072 00000001     H   13093 13087
 $$$221F       2 0000109E 00000001     H   13167 13089B
 $$$223F       2 00001160 00000001     H   13476 13249B
 $$$224F       2 0000113C 00000001     H   13407 13337B
 $$$224T       2 00001114 00000001     H   13340 13326B
 $$$226F       2 0000112C 00000001     H   13379 13366B
 $$$227F       2 0000113C 00000001     H   13403 13390B
 $$$228F       2 00001188 00000001     H   13526 13499B 13513B
 $$$228S       2 00001168 00000001     H   13488 13525B
 $$$231F       2 00001194 00000001     H   13549 13539B
 $$$232        1 00000050 00000001 A   U   13604 13601  13603
 $$$234B       1 000011D2 00000001     X   13645 13652U
 $$$235B       4 000011D4 00000001     I   13672 13689
1NPAT     (NPAT2193) (12:50) (15MAR04) Ordinary Symbol and Literal Cross Reference                                          Page  137
 $$$235F       2 000011DA 00000001     H   13685 13672B 13688
 $$$236E       2 000011DE 00000001     H   13696 13690
 $$$236F       2 000011EC 00000001     H   13708 13692B
 $$$237        1 00000018 00000001 A   U   13727 13724  13726
 $$$239B       1 000013FA 00000001     X   13973 13980U
 $$$240F       2 0000141E 00000001     H   14040 14025B
 $$$241F       2 0000143E 00000001     H   14105 14090B
 $$$242F       2 00001462 00000001     H   14169 14118B
 $$$243F       2 00001456 00000001     H   14144 14134B
 $$$244F       2 00001462 00000001     H   14165 14155B
 $$$245F       2 0000146E 00000001     H   14197 14182B
 $$$246F       2 0000147A 00000001     H   14223 14208B
 $$$247F       2 0000148C 00000001     H   14248 14238B
 $$$248F       2 000014A4 00000001     H   14296 14261B
 $$$249F       2 000014A0 00000001     H   14291 14276B
 $$$250F       2 00001542 00000001     H   14556 14311B
 $$$251F       2 00001542 00000001     H   14552 14348B
 $$$252F       2 00001542 00000001     H   14548 14367B
 $$$253F       2 00001542 00000001     H   14544 14416B
 $$$254B       4 0000150C 00000001     I   14434 14452
 $$$254F       2 00001514 00000001     H   14448 14434B 14451
 $$$255E       2 00001518 00000001     H   14459 14453
 $$$255F       2 0000151E 00000001     H   14469 14455B
 $$$256F       2 000015C2 00000001     H   14798 14570B 14593B
 $$$258F       2 00001586 00000001     H   14682 14647B
 $$$259F       2 000015A0 00000001     H   14734 14699B
 $$$260B       4 000015C6 00000001     I   14813 14828
 $$$260F       2 000015CE 00000001     H   14824 14813B 14827
 $$$261B       4 000015D6 00000001     I   14847 14862
 $$$261E       2 000015D2 00000001     H   14835 14829
 $$$261F       2 000015DE 00000001     H   14858 14831B 14847B 14861
 $$$263B       4 000015E6 00000001     I   14881 14895
 $$$263E       2 000015E2 00000001     H   14869 14863
 $$$263F       2 000015EE 00000001     H   14892 14865B 14881B 14894
 $$$265E       2 000015F2 00000001     H   14902 14896
 $$$265F       2 0000160A 00000001     H   14915 14898B
 $$$266F       2 00001640 00000001     H   14962 14932B
 $$$267F       2 0000164C 00000001     H   14990 14974B
 $$$268        1 0000044C 00000001 A   U   15027 15024  15026
 $$$270B       1 00001678 00000001     X   15066 15073U
 $$$271F       2 000016A8 00000001     H   15180 15125B
 $$$273F       2 000016A4 00000001     H   15170 15159B
 $$$274F       2 000016D0 00000001     H   15263 15198B 15210B
 $$$276F       2 000016CC 00000001     H   15252 15241B
 $$$276T       2 000016C6 00000001     H   15244 15230B
 $$$278F       2 000016E2 00000001     H   15291 15278B
 $$$279F       2 00001772 00000001     H   15575 15331B
 $$$280B       4 000016FE 00000001     I   15349 15387
 $$$280F       2 0000170C 00000001     H   15381 15349B 15386
 $$$281E       2 00001710 00000001     H   15394 15388
 $$$281F       2 00001772 00000001     H   15571 15390B
 $$$282F       2 00001772 00000001     H   15567 15410B
 $$$282S       2 00001714 00000001     H   15404 15566B
 $$$284F       2 00001734 00000001     H   15455 15429B 15442B
 $$$284S       2 0000171C 00000001     H   15421 15454B
 $$$287B       4 0000173A 00000001     I   15468 15525
 $$$287F       2 00001760 00000001     H   15521 15468B 15524
 $$$288E       2 00001764 00000001     H   15532 15526
 $$$288F       2 0000176E 00000001     H   15562 15528B
1NPAT     (NPAT2193) (12:50) (15MAR04) Ordinary Symbol and Literal Cross Reference                                          Page  138
 $$$289F       2 0000179A 00000001     H   15644 15595B
 $$$290F       2 000017B0 00000001     H   15674 15664B
 $$$291F       2 000017F2 00000001     H   15788 15720B 15739B
 $$$293F       2 000018C2 00000001     H   16181 15799B
 $$$294F       2 000018B2 00000001     H   16145 16135B
 $$$294S       2 00001800 00000001     H   15823 16144B
 $$$295F       2 0000181E 00000001     H   15886 15856B
 $$$296F       2 0000181E 00000001     H   15882 15872B
 $$$297F       2 00001848 00000001     H   15948 15902B
 $$$298B       4 0000184C 00000001     I   15961 16039
 $$$298F       2 00001882 00000001     H   16035 15961B 16038
 $$$299F       2 0000186A 00000001     H   16003 15976B
 $$$300F       2 00001882 00000001     H   16031 16018B
 $$$301E       2 00001886 00000001     H   16046 16040
 $$$301F       2 00001898 00000001     H   16095 16042B
 $$$302F       2 00001898 00000001     H   16091 16058B
 $$$304        1 00000040 00000001 A   U   16213 16210  16212
 $$$306B       1 000018EE 00000001     X   16251 16258U
 $$$307F       2 00001928 00000001     H   16385 16311B
 $$$310F       2 00001924 00000001     H   16375 16364B
 $$$311F       2 0000193A 00000001     H   16413 16400B
 $$$312F       2 00001A4E 00000001     H   16912 16431B
 $$$313B       4 0000194A 00000001     I   16449 16706
 $$$313F       2 000019DA 00000001     H   16700 16449B 16705
 $$$314F       2 000019DA 00000001     H   16696 16468B
 $$$314S       2 00001952 00000001     H   16462 16695B
 $$$316F       2 0000197A 00000001     H   16526 16487B 16500B 16513B
 $$$316S       2 0000195A 00000001     H   16479 16525B
 $$$320B       4 00001986 00000001     I   16544 16654
 $$$320F       2 000019C8 00000001     H   16650 16544B 16653
 $$$321F       2 000019C8 00000001     H   16646 16606B 16634B
 $$$321T       2 000019C2 00000001     H   16637 16623B
 $$$324E       2 000019CC 00000001     H   16661 16655
 $$$324F       2 000019D6 00000001     H   16691 16657B
 $$$325E       2 000019DE 00000001     H   16713 16707
 $$$325F       2 00001A4E 00000001     H   16908 16709B
 $$$326F       2 00001A4E 00000001     H   16904 16729B
 $$$326S       2 000019E2 00000001     H   16723 16903B
 $$$328F       2 00001A0A 00000001     H   16787 16748B 16761B 16774B
 $$$328S       2 000019EA 00000001     H   16740 16786B
 $$$332B       4 00001A16 00000001     I   16805 16862
 $$$332F       2 00001A3C 00000001     H   16858 16805B 16861
 $$$333E       2 00001A40 00000001     H   16869 16863
 $$$333F       2 00001A4A 00000001     H   16899 16865B
 $$$334F       2 00001AAA 00000001     H   17047 16997B
 $$$335F       2 00001AF6 00000001     H   17183 17058B
 $$$336F       2 00001ADC 00000001     H   17124 17111B
 $$$337F       2 00001B0E 00000001     H   17210 17195B
 $$$338        1 00000040 00000001 A   U   17241 17238  17240
 $$$340B       1 00001B3A 00000001     X   17275 17282U
 $$$341F       2 00001B6A 00000001     H   17390 17335B
 $$$343F       2 00001B66 00000001     H   17380 17369B
 $$$344F       2 00001B7C 00000001     H   17418 17405B
 $$$345F       2 00001C78 00000001     H   17876 17436B
 $$$346B       4 00001B8C 00000001     I   17454 17683
 $$$346F       2 00001C0C 00000001     H   17677 17454B 17682
 $$$347F       2 00001C0C 00000001     H   17673 17473B
 $$$347S       2 00001B94 00000001     H   17467 17672B
 $$$349F       2 00001BB4 00000001     H   17518 17492B 17505B
1NPAT     (NPAT2193) (12:50) (15MAR04) Ordinary Symbol and Literal Cross Reference                                          Page  139
 $$$349S       2 00001B9C 00000001     H   17484 17517B
 $$$352B       4 00001BC0 00000001     I   17536 17631
 $$$352F       2 00001BFA 00000001     H   17627 17536B 17630
 $$$353F       2 00001BFA 00000001     H   17623 17598B 17611B
 $$$355E       2 00001BFE 00000001     H   17638 17632
 $$$355F       2 00001C08 00000001     H   17668 17634B
 $$$356E       2 00001C10 00000001     H   17690 17684
 $$$356F       2 00001C78 00000001     H   17872 17686B
 $$$357F       2 00001C78 00000001     H   17868 17706B
 $$$357S       2 00001C14 00000001     H   17700 17867B
 $$$359F       2 00001C34 00000001     H   17751 17725B 17738B
 $$$359S       2 00001C1C 00000001     H   17717 17750B
 $$$362B       4 00001C40 00000001     I   17769 17826
 $$$362F       2 00001C66 00000001     H   17822 17769B 17825
 $$$363E       2 00001C6A 00000001     H   17833 17827
 $$$363F       2 00001C74 00000001     H   17863 17829B
 $$$364        1 00000040 00000001 A   U   17951 17948  17950
 $$$366B       1 00001D30 00000001     X   18158 18165U
 $$$367F       2 00001D54 00000001     H   18225 18210B
 $$$368F       2 00001D72 00000001     H   18287 18272B
 $$$369F       2 00001DD2 00000001     H   18399 18335B
 $$$370F       2 00001DD2 00000001     H   18395 18354B
 $$$371F       2 00001E30 00000001     H   18566 18413B 18436B
 $$$373F       2 00001E6E 00000001     H   18625 18609B
 $$$374        1 00000454 00000001 A   U   18662 18659  18661
 $$$376B       1 00001E9A 00000001     X   18701 18708U
 $$$377F       2 00001EEE 00000001     H   18849 18754B
 $$$378F       2 00001EB2 00000001     H   18779 18769B
 $$$379F       2 00001EBE 00000001     H   18798 18789B
 $$$380F       2 00001ED8 00000001     H   18823 18813B
 $$$381F       2 00001EE4 00000001     H   18842 18833B
 $$$382F       2 00001F26 00000001     H   18937 18882B
 $$$384F       2 00001F22 00000001     H   18927 18916B
 $$$385F       2 00001F60 00000001     H   19021 18998B 19010B
 $$$385T       2 00001F5C 00000001     H   19013 18985B
 $$$386F       2 00001F4A 00000001     H   18988 18971B
 $$$389F       2 00001F94 00000001     H   19083 19039B
 $$$390F       2 00001F84 00000001     H   19065 19055B
 $$$391F       2 00002080 00000001     H   19449 19094B
 $$$393F       2 00001FC2 00000001     H   19153 19136B
 $$$394F       2 00002066 00000001     H   19420 19169B
 $$$395F       2 00002066 00000001     H   19416 19181B
 $$$396F       2 00001FE8 00000001     H   19217 19198B
 $$$397F       2 00001FFE 00000001     H   19250 19231B
 $$$398F       2 00002010 00000001     H   19277 19264B
 $$$399F       2 00002038 00000001     H   19342 19291B
 $$$400F       2 00002048 00000001     H   19371 19356B
 $$$401F       2 00002054 00000001     H   19391 19382B
 $$$402F       2 00002076 00000001     H   19443 19433B
 $$$403F       2 000020AC 00000001     H   19513 19500B
 $$$404        1 00000040 00000001 A   U   19605 19602  19604
 $$$414B       1 000021FC 00000001     X   19803 19810U
 $$$415        1 00000178 00000001 A   U   20225 20222  20224
 $$$425B       1 00002334 00000001     X   20368 20375U
 $$$426F       2 00002346 00000001     H   20449 20434B
 $$$427F       2 00002420 00000001     H   20726 20476B
 $$$427S       2 0000235C 00000001     H   20467 20725B
 $$$429F       2 00002414 00000001     H   20718 20545B
 $$$430B       4 000023D4 00000001     I   20588 20678
1NPAT     (NPAT2193) (12:50) (15MAR04) Ordinary Symbol and Literal Cross Reference                                          Page  140
 $$$430F       2 00002406 00000001     H   20674 20588B 20677
 $$$431F       2 000023EA 00000001     H   20619 20603B
 $$$432F       2 00002406 00000001     H   20670 20654B
 $$$433E       2 0000240A 00000001     H   20685 20679
 $$$433F       2 00002414 00000001     H   20714 20681B
 $$$434        1 000001B8 00000001 A   U   20760 20757  20759
 $$$436B       1 0000247E 00000001     X   20842 20849U
 $$$437F       2 000024D4 00000001     H   21034 20911B
 $$$438F       2 000024BE 00000001     H   20973 20935B
 $$$439F       2 000024BE 00000001     H   20969 20954B
 $$$439S       2 000024AC 00000001     H   20948 20968B
 $$$441F       2 000024C6 00000001     H   20997 20984B
 $$$442F       2 000024D4 00000001     H   21022 21012B
 $$$443F       2 000024FC 00000001     H   21109 21062B
 $$$444F       2 000024F6 00000001     H   21102 21082B
 $$$446F       2 00002634 00000001     H   21553 21131B
 $$$446S       2 00002514 00000001     H   21124 21552B
 $$$448F       2 00002576 00000001     H   21256 21148B
 $$$449F       2 00002624 00000001     H   21543 21271B
 $$$450B       4 00002586 00000001     I   21289 21308
 $$$450F       2 00002594 00000001     H   21305 21289B 21307
 $$$451E       2 00002598 00000001     H   21315 21309
 $$$451F       2 000025A2 00000001     H   21328 21311B
 $$$452F       2 000025E2 00000001     H   21418 21391B 21404B
 $$$452S       2 000025C8 00000001     H   21383 21417B
 $$$455F       2 00002624 00000001     H   21539 21453B
 $$$456F       2 00002650 00000001     H   21593 21580B
 $$$456S       2 0000263A 00000001     H   21572 21592B
 $$$458F       2 00002660 00000001     H   21615 21605B
 $$$459        1 00000140 00000001 A   U   21650 21647  21649
 $$$461B       1 000026B8 00000001     X   21706 21713U
 $$$462F       2 000026E2 00000001     H   21801 21763B
 $$$463F       2 000026DE 00000001     H   21795 21780B
 $$$463S       2 000026CC 00000001     H   21774 21794B
 $$$465        1 00000050 00000001 A   U   21830 21827  21829
 $$$467B       1 0000270A 00000001     X   21861 21868U
 $$$468F       2 00002734 00000001     H   21955 21918B
 $$$469F       2 00002734 00000001     H   21951 21936B
 $$$469S       2 00002722 00000001     H   21930 21950B
 $$$471        1 00000050 00000001 A   U   21986 21983  21985
 $$$473B       1 00002760 00000001     X   22017 22024U
 $$$474F       2 0000278A 00000001     H   22111 22074B
 $$$475F       2 0000278A 00000001     H   22107 22092B
 $$$475S       2 00002778 00000001     H   22086 22106B
 $$$477        1 00000050 00000001 A   U   22142 22139  22141
 $$$479B       1 000027B6 00000001     X   22173 22180U
 $$$480F       2 000027C4 00000001     H   22233 22223B
 $$$481        1 00000050 00000001 A   U   22281 22278  22280
 $$$491B       1 00002802 00000001     X   22421 22428U
 $$$492B       4 00002818 00000001     I   22512 22542
 $$$492F       2 0000282E 00000001     H   22537 22512B 22541
 $$$493B       4 00002836 00000001     I   22561 22590
 $$$493E       2 00002832 00000001     H   22549 22543
 $$$493F       2 0000284C 00000001     H   22586 22545B 22561B 22589
 $$$495E       2 00002850 00000001     H   22597 22591
 $$$495F       2 00002862 00000001     H   22619 22593B
 $$$496F       2 0000289A 00000001     H   22702 22634B 22649B
 $$$498F       2 000028D8 00000001     H   22779 22717B
 $$$499F       2 00002940 00000001     H   22917 22794B
1NPAT     (NPAT2193) (12:50) (15MAR04) Ordinary Symbol and Literal Cross Reference                                          Page  141
 $$$500F       2 0000292E 00000001     H   22896 22870B
 $$$501        1 00000178 00000001 A   U   23070 23067  23069
 $$$503B       1 000029CC 00000001     X   23124 23131U
 $$$504F       2 00002A52 00000001     H   23342 23256B
 $$$505        1 0000013C 00000001 A   U   23376 23373  23375
 $$$507B       1 00002A7A 00000001     X   23420 23427U
 $$$508F       2 00002B4A 00000001     H   23762 23476B
 $$$509B       4 00002AFA 00000001     I   23640 23698
 $$$509F       2 00002B22 00000001     H   23694 23640B 23697
 $$$510E       2 00002B26 00000001     H   23705 23699
 $$$510F       2 00002B38 00000001     H   23729 23701B
 $$$511F       2 00002B66 00000001     H   23816 23801B
 $$$512F       2 00002B82 00000001     H   23870 23829B
 $$$513F       2 00002B94 00000001     H   23908 23888B
 $$$514F       2 00002BBA 00000001     H   23979 23964B
 $$$515F       2 00002BCE 00000001     H   24008 23992B
 $$$516        1 00000040 00000001 A   U   24037 24034  24036
 $$$518B       1 00002BF6 00000001     X   24124 24131U
 $$$520F       2 00002C18 00000001     H   24212 24203B
 $$$521        6 00003500 00000001     I   24230 24222X
 $$$522        6 00003500 00000001     I   24229 24230  24230
 $$$524F       2 00002C46 00000001     H   24282 24270B
 $$$526F       2 00002C72 00000001     H   24352 24322B 24335B
 $$$528F       2 00002CB0 00000001     H   24436 24427B
 $$$528S       2 00002C72 00000001     H   24358 24435B
 $$$529F       2 00002C9C 00000001     H   24406 24390B
 $$$532F       2 00002CEE 00000001     H   24547 24448B
 $$$533B       4 00002CBE 00000001     I   24465 24479
 $$$533F       2 00002CC8 00000001     H   24474 24465B 24478
 $$$534B       4 00002CD2 00000001     I   24497 24511
 $$$534E       2 00002CCC 00000001     H   24486 24480
 $$$534F       2 00002CDC 00000001     H   24506 24482B 24497B 24510
 $$$536E       2 00002CE0 00000001     H   24518 24512
 $$$536F       2 00002CEE 00000001     H   24543 24514B 24529B
 $$$538F       2 00002D2E 00000001     H   24627 24570B 24584B
 $$$540F       2 00002D2A 00000001     H   24621 24607B
 $$$540S       2 00002D16 00000001     H   24600 24620B
 $$$542B       4 00002D32 00000001     I   24642 24660
 $$$542F       2 00002D3A 00000001     H   24656 24642B 24659
 $$$543E       2 00002D3E 00000001     H   24667 24661
 $$$543F       2 00002D46 00000001     H   24675 24663B
 $$$544        1 00000080 00000001 A   U   24705 24702  24704
 $$$546B       1 00002E9A 00000001     X   24763 24770U
 $$$547F       2 00002EC2 00000001     H   24836 24821B
 $$$548F       2 00002F4C 00000001     H   25060 24850B
 $$$551F       2 00002F48 00000001     H   25054 24901B
 $$$552F       2 00002F00 00000001     H   24934 24919B
 $$$553F       2 00002F3E 00000001     H   25035 24984B
 $$$553S       2 00002F18 00000001     H   24978 25034B
 $$$555F       2 00002F2C 00000001     H   25008 24999B
 $$$556        6 00003506 00000001     I   25021 25013X
 $$$557        6 00003506 00000001     I   25020 25021  25021
 $$$558F       2 00002F74 00000001     H   25126 25074B
 $$$559F       2 00003088 00000001     H   25589 25154B 25227B 25275B
 $$$559T       2 00002F84 00000001     H   25157 25144B
 $$$561F       2 00002FA0 00000001     H   25214 25173B 25190B
 $$$564F       2 00002FB4 00000001     H   25256 25244B
 $$$566F       2 00002FF8 00000001     H   25389 25313B
 $$$567F       2 00002FF8 00000001     H   25385 25338B 25362B
1NPAT     (NPAT2193) (12:50) (15MAR04) Ordinary Symbol and Literal Cross Reference                                          Page  142
 $$$569F       2 00003024 00000001     H   25466 25405B 25422B
 $$$571F       2 0000301A 00000001     H   25456 25446B
 $$$572F       2 00003058 00000001     H   25531 25489B
 $$$573F       2 00003044 00000001     H   25521 25508B
 $$$574F       2 00003076 00000001     H   25574 25560B
 $$$575F       2 000030AA 00000001     H   25649 25629B
 $$$575T       2 000030A0 00000001     H   25632 25607B 25619B
 $$$578        1 00000050 00000001 A   U   25679 25676  25678
 $$$580B       1 000030D2 00000001     X   25723 25730U
 $$$581F       2 000030FA 00000001     H   25796 25781B
 $$$582F       2 00003120 00000001     H   25841 25824B
 $$$582T       2 0000310E 00000001     H   25827 25814B
 $$$584F       2 00003142 00000001     H   25870 25855B
 $$$585F       2 00003162 00000001     H   25899 25884B
 $$$586F       2 00003176 00000001     H   25925 25915B
 $$$587F       2 0000318E 00000001     H   25956 25943B
 $$$588F       2 000031F4 00000001     H   26105 26021B
 $$$588S       2 000031AE 00000001     H   25985 26104B
 $$$590F       2 000031D8 00000001     H   26054 26040B
 $$$591F       2 000031F0 00000001     H   26086 26068B
 $$$592F       2 00003214 00000001     H   26145 26132B
 $$$593F       2 00003228 00000001     H   26170 26157B
 $$$594        1 00000040 00000001 A   U   26199 26196  26198
 $$$596B       1 00003250 00000001     X   26242 26249U
 $$$597F       2 000032FC 00000001     H   26476 26291B
 $$$597S       2 0000325C 00000001     H   26282 26475B
 $$$599F       2 000032F0 00000001     H   26468 26307B
 $$$600F       2 000032F0 00000001     H   26459 26337B 26412B
 $$$601F       2 00003298 00000001     H   26371 26356B
 $$$602F       2 000032BA 00000001     H   26399 26384B
 $$$604F       2 000032E0 00000001     H   26449 26436B
 $$$605        1 00000050 00000001 A   U   26505 26502  26504
 $$$607B       1 00003326 00000001     X   26539 26546U
 $$$608F       2 00003356 00000001     H   26652 26605B
 $$$608S       2 0000332E 00000001     H   26577 26651B
 $$$610F       2 00003352 00000001     H   26642 26624B
 $$$611        1 00000050 00000001 A   U   26680 26677  26679
 $$$613B       1 00003380 00000001     X   26714 26721U
 $$$614        1 00000050 00000001 A   U   26755 26752  26754
 $$$616B       1 00003526 00000001     X   26888 26895U
 $$$617F       2 0000353C 00000001     H   26940 26927B
 $$$618F       2 0000371C 00000001     H   27634 27038B
 $$$618S       2 00003570 00000001     H   27011 27633B
 $$$621F       2 00003590 00000001     H   27071 27058B
 $$$622F       2 0000362E 00000001     H   27283 27270B
 $$$623F       2 0000363E 00000001     H   27307 27294B
 $$$624F       2 0000367A 00000001     H   27399 27360B
 $$$625B       4 000036F0 00000001     I   27542 27570
 $$$625F       2 000036FE 00000001     H   27566 27542B 27569
 $$$625T       2 000036F4 00000001     H   27545 27479B 27492B 27505B 27518B 27531B
 $$$63B        1 000000AA 00000001     X    7755  7762U
 $$$631E       2 00003702 00000001     H   27577 27571
 $$$631F       2 0000370C 00000001     H   27598 27573B
 $$$632        1 00000058 00000001 A   U   27659 27656  27658
 $$$634B       1 00003744 00000001     X   27695 27702U
 $$$635F       2 00003888 00000001     H   28138 28087B
 $$$636F       2 000038CE 00000001     H   28252 28176B
 $$$637F       2 00003906 00000001     H   28338 28265B
 $$$638F       2 00003970 00000001     H   28500 28419B
1NPAT     (NPAT2193) (12:50) (15MAR04) Ordinary Symbol and Literal Cross Reference                                          Page  143
 $$$639F       2 000039A8 00000001     H   28586 28513B
 $$$64F        2 00000102 00000001     H    7913  7787B
 $$$64S        2 000000B2 00000001     H    7778  7912B
 $$$640F       2 000039E2 00000001     H   28677 28601B
 $$$641F       2 00003A70 00000001     H   28875 28862B
 $$$642F       2 00003A80 00000001     H   28902 28889B
 $$$643F       2 00003A90 00000001     H   28929 28916B
 $$$644F       2 00003AA0 00000001     H   28956 28943B
 $$$645F       2 00003AB0 00000001     H   28983 28970B
 $$$646F       2 00003AC0 00000001     H   29010 28997B
 $$$647F       2 00003AD0 00000001     H   29037 29024B
 $$$648F       2 00003AE0 00000001     H   29064 29051B
 $$$649F       2 00003AF0 00000001     H   29091 29078B
 $$$650F       2 00003B00 00000001     H   29118 29105B
 $$$651F       2 00003B10 00000001     H   29145 29132B
 $$$652F       2 00003B34 00000001     H   29208 29181B
 $$$653F       2 00003B4E 00000001     H   29246 29219B
 $$$654F       2 00003B68 00000001     H   29284 29257B
 $$$655F       2 00003B82 00000001     H   29322 29295B
 $$$656F       2 00003B9C 00000001     H   29360 29333B
 $$$657F       2 00003BB6 00000001     H   29398 29371B
 $$$658F       2 00003DBE 00000001     H   30091 29931B
 $$$659F       2 00003DEE 00000001     H   30184 30125B
 $$$659S       2 00003DC2 00000001     H   30098 30183B
 $$$66F        2 000000F6 00000001     H    7905  7803B
 $$$662F       2 00003E86 00000001     H   30415 30225B
 $$$663F       2 00003E34 00000001     H   30297 30287B
 $$$664F       2 00003E52 00000001     H   30330 30320B
 $$$665F       2 00003E7A 00000001     H   30385 30347B
 $$$665S       2 00003E54 00000001     H   30340 30384B
 $$$667F       2 00003E74 00000001     H   30379 30369B
 $$$668        1 00000050 00000001 A   U   30438 30435  30437
 $$$67F        2 000000F6 00000001     H    7896  7834B
 $$$670B       1 000041CA 00000001     X   30556 30563U
 $$$671F       2 00004244 00000001     H   30787 30600B
 $$$672B       4 000041F4 00000001     I   30650 30666
 $$$672F       2 00004200 00000001     H   30663 30650B 30665
 $$$673E       2 00004204 00000001     H   30673 30667
 $$$673F       2 0000420C 00000001     H   30683 30669B
 $$$674        1 00000050 00000001 A   U   30810 30807  30809
 $$$676B       1 0000428C 00000001     X   30861 30868U
 $$$677F       2 0000429A 00000001     H   30901 30890B
 $$$678F       2 000042A8 00000001     H   30924 30913B
 $$$679        1 00000050 00000001 A   U   30942 30939  30941
 $$$68F        2 000000EC 00000001     H    7884  7852B  7869B
 $$$681B       1 000042D0 00000001     X   30993 31000U
 $$$682F       2 000042DE 00000001     H   31033 31022B
 $$$683F       2 000042EC 00000001     H   31056 31045B
 $$$684F       2 000043F0 00000001     H   31503 31094B
 $$$684S       2 000042F0 00000001     H   31066 31502B
 $$$686F       2 0000431A 00000001     H   31127 31113B
 $$$688F       2 000043EC 00000001     H   31493 31167B
 $$$689B       4 00004344 00000001     I   31218 31261
 $$$689F       2 0000435E 00000001     H   31254 31206B 31218B 31258
 $$$690B       4 0000433C 00000001     I   31206 31259
 $$$691B       4 00004366 00000001     I   31277 31314
 $$$691E       2 00004362 00000001     H   31268 31260  31262
 $$$691F       2 0000437C 00000001     H   31309 31264B 31277B 31313
 $$$693F       2 0000437C 00000001     H   31305 31292B
1NPAT     (NPAT2193) (12:50) (15MAR04) Ordinary Symbol and Literal Cross Reference                                          Page  144
 $$$694E       2 00004380 00000001     H   31321 31315
 $$$694F       2 000043DC 00000001     H   31473 31317B 31330B
 $$$696F       2 000043DC 00000001     H   31469 31345B 31363B 31381B
 $$$699F       2 000043DC 00000001     H   31465 31416B 31428B
 $$$70         1 00000050 00000001 A   U    7944  7941   7943
 $$$701        1 00000050 00000001 A   U   31522 31519  31521
 $$$702F       2 00004582 00000001     H   32219 31659B
 $$$703B       1 00004418 00000001     X   31592 31599U
 $$$705F       2 0000456A 00000001     H   32157 31695B
 $$$705S       2 0000442A 00000001     H   31680 32156B
 $$$707F       2 0000444A 00000001     H   31725 31716B
 $$$708F       2 00004456 00000001     H   31763 31739B
 $$$709        6 00004A5A 00000001     I   31753 31745X
 $$$71F        2 000002E0 00000001     H    8451  8049B  8416B
 $$$710        6 00004A5A 00000001     I   31752 31753  31753
 $$$711B       4 0000445C 00000001     I   31783 31798
 $$$711F       2 00004464 00000001     H   31793 31783B 31797
 $$$712B       4 00004478 00000001     I   31832 31847
 $$$712E       2 00004468 00000001     H   31805 31799
 $$$712F       2 00004480 00000001     H   31842 31801B 31832B 31846
 $$$712T       2 0000447C 00000001     H   31835 31820B
 $$$715B       4 0000448A 00000001     I   31865 31880
 $$$715E       2 00004484 00000001     H   31854 31848
 $$$715F       2 00004492 00000001     H   31875 31850B 31865B 31879
 $$$717B       4 0000449C 00000001     I   31898 31913
 $$$717E       2 00004496 00000001     H   31887 31881
 $$$717F       2 000044A4 00000001     H   31908 31883B 31898B 31912
 $$$719B       4 000044AE 00000001     I   31931 31946
 $$$719E       2 000044A8 00000001     H   31920 31914
 $$$719F       2 000044B6 00000001     H   31941 31916B 31931B 31945
 $$$72B        1 00000132 00000001     X    7987  7994U
 $$$721B       4 000044C0 00000001     I   31964 31979
 $$$721E       2 000044BA 00000001     H   31953 31947
 $$$721F       2 000044C8 00000001     H   31974 31949B 31964B 31978
 $$$723B       4 000044D2 00000001     I   31997 32012
 $$$723E       2 000044CC 00000001     H   31986 31980
 $$$723F       2 000044DA 00000001     H   32007 31982B 31997B 32011
 $$$725B       4 000044E4 00000001     I   32030 32122
 $$$725E       2 000044DE 00000001     H   32019 32013
 $$$725F       2 0000453A 00000001     H   32116 32015B 32030B 32121
 $$$727F       2 0000451A 00000001     H   32084 32064B
 $$$728E       2 0000453E 00000001     H   32129 32123
 $$$728F       2 00004566 00000001     H   32152 32125B
 $$$729F       2 0000457C 00000001     H   32185 32172B
 $$$73F        2 00000152 00000001     H    8053  8016B  8036B
 $$$731        1 000000D0 00000001 A   U   32228 32225  32227
 $$$733B       1 000045AA 00000001     X   32290 32297U
 $$$734F       2 000045D4 00000001     H   32365 32350B
 $$$735F       2 000045E2 00000001     H   32391 32381B
 $$$736F       2 00004602 00000001     H   32430 32416B
 $$$737F       2 00004622 00000001     H   32463 32448B
 $$$738F       2 0000463A 00000001     H   32490 32476B
 $$$739F       2 00004682 00000001     H   32627 32509B 32526B
 $$$741F       2 00004704 00000001     H   32842 32746B 32776B
 $$$743F       2 000046FA 00000001     H   32823 32808B
 $$$744        1 00000044 00000001 A   U   32880 32877  32879
 $$$746B       1 00004736 00000001     X   32924 32931U
 $$$747F       2 00004778 00000001     H   33069 32972B
 $$$747S       2 00004740 00000001     H   32963 33068B
1NPAT     (NPAT2193) (12:50) (15MAR04) Ordinary Symbol and Literal Cross Reference                                          Page  145
 $$$749F       2 0000476C 00000001     H   33061 32988B
 $$$75F        2 000002D4 00000001     H    8433  8073B
 $$$75S        2 0000015A 00000001     H    8064  8432B
 $$$750F       2 0000476C 00000001     H   33052 33019B
 $$$751F       2 00004766 00000001     H   33046 33037B
 $$$752F       2 0000478A 00000001     H   33102 33086B
 $$$753F       2 00004798 00000001     H   33131 33115B
 $$$754        1 00000050 00000001 A   U   33159 33156  33158
 $$$756B       1 000047C2 00000001     X   33193 33200U
 $$$757F       2 00004810 00000001     H   33299 33269B
 $$$758F       2 00004810 00000001     H   33295 33285B
 $$$759        1 00000050 00000001 A   U   33328 33325  33327
 $$$761B       1 00004838 00000001     X   33363 33370U
 $$$762F       2 00004858 00000001     H   33437 33422B
 $$$763F       2 00004872 00000001     H   33489 33467B
 $$$764F       2 00004884 00000001     H   33513 33500B
 $$$765F       2 000048BE 00000001     H   33607 33580B
 $$$766B       4 000048C4 00000001     I   33619 33632
 $$$766F       2 000048CC 00000001     H   33629 33619B 33631
 $$$767E       2 000048D0 00000001     H   33639 33633
 $$$767F       2 000048D4 00000001     H   33646 33635B
 $$$768F       2 0000494C 00000001     H   33827 33677B 33695B 33715B
 $$$77F        2 000002C8 00000001     H    8425  8086B
 $$$771F       2 00004964 00000001     H   33874 33844B
 $$$772F       2 00004964 00000001     H   33870 33860B
 $$$773        1 00000050 00000001 A   U   33904 33901  33903
 $$$775B       1 00004A7A 00000001     X   33987 33994U
 $$$776F       2 00004AB2 00000001     H   34073 34058B
 $$$777        1 00000050 00000001 A   U   34107 34104  34106
 $$$779B       1 00004AE6 00000001     X   34141 34148U
 $$$78B        4 000001B0 00000001     I    8153  8180
 $$$78F        2 000001BE 00000001     H    8174  8153B  8179
 $$$780F       2 00004B12 00000001     H   34216 34201B
 $$$780T       2 00004AFA 00000001     H   34204 34189B
 $$$783F       2 00004B40 00000001     H   34257 34243B
 $$$784F       2 00004B5A 00000001     H   34289 34269B
 $$$785F       2 00004B74 00000001     H   34315 34301B
 $$$786F       2 00004B94 00000001     H   34342 34327B
 $$$787        1 00000050 00000001 A   U   34377 34374  34376
 $$$788F       2 00004CC4 00000001     H   34768 34479B
 $$$789B       1 00004BD0 00000001     X   34409 34416U
 $$$79E        2 000001C2 00000001     H    8187  8181
 $$$79F        2 000001E2 00000001     H    8225  8183B
 $$$791F       2 00004C1A 00000001     H   34516 34507B
 $$$792        1 00000050 00000001 A   U   34777 34774  34776
 $$$793F       2 00004D52 00000001     H   35057 34881B
 $$$794B       1 00004CEC 00000001     X   34811 34818U
 $$$796B       4 00004D12 00000001     I   34902 34970
 $$$796F       2 00004D32 00000001     H   34964 34902B 34969
 $$$797F       2 00004D26 00000001     H   34936 34927B
 $$$798F       2 00004D32 00000001     H   34960 34951B
 $$$799E       2 00004D36 00000001     H   34977 34971
 $$$799F       2 00004D52 00000001     H   35037 34973B
 $$$80F        2 000002AC 00000001     H    8398  8356B  8372B  8388B
 $$$800F       2 00004D46 00000001     H   35009 35000B
 $$$801F       2 00004D52 00000001     H   35033 35024B
 $$$802        1 00000050 00000001 A   U   35066 35063  35065
 $$$804B       1 00004D7A 00000001     X   35098 35105U
 $$$805F       2 00004DAE 00000001     H   35205 35175B
1NPAT     (NPAT2193) (12:50) (15MAR04) Ordinary Symbol and Literal Cross Reference                                          Page  146
 $$$806F       2 00004DAE 00000001     H   35201 35191B
 $$$807F       2 00004DBE 00000001     H   35233 35220B
 $$$808        1 00000050 00000001 A   U   35261 35258  35260
 $$$810B       1 00004DE6 00000001     X   35292 35299U
 $$$811F       2 00004E10 00000001     H   35372 35359B
 $$$812F       2 00004E3A 00000001     H   35421 35385B
 $$$813F       2 00004E3A 00000001     H   35417 35402B
 $$$814F       2 00004E4A 00000001     H   35455 35446B
 $$$815F       2 00004E5C 00000001     H   35496 35472B
 $$$816        6 000051F2 00000001     I   35486 35478X
 $$$817        6 000051F2 00000001     I   35485 35486  35486
 $$$818F       2 00004E6C 00000001     H   35526 35510B
 $$$819F       2 00004E7C 00000001     H   35554 35541B
 $$$820        1 00000050 00000001 A   U   35582 35579  35581
 $$$822B       1 00004EA4 00000001     X   35620 35627U
 $$$823F       2 00004ED2 00000001     H   35667 35652B
 $$$824        1 00000050 00000001 A   U   35685 35682  35684
 $$$826B       1 00004EFA 00000001     X   35724 35731U
 $$$827F       2 00004F20 00000001     H   35794 35763B 35776B
 $$$829F       2 00004FC6 00000001     H   36036 35813B
 $$$83         1 00000040 00000001 A   U    8460  8457   8459
 $$$830F       2 00004F6E 00000001     H   35892 35877B
 $$$831F       2 00004F7A 00000001     H   35920 35905B
 $$$832F       2 00004F92 00000001     H   35960 35932B
 $$$833F       2 00004FC6 00000001     H   36027 36011B
 $$$833S       2 00004FB2 00000001     H   36002 36026B
 $$$835        1 00000050 00000001 A   U   36055 36052  36054
 $$$837B       1 00004FEE 00000001     X   36093 36100U
 $$$838F       2 00005026 00000001     H   36184 36171B
 $$$839        1 00000050 00000001 A   U   36211 36208  36210
 $$$841B       1 00005052 00000001     X   36251 36258U
 $$$842F       2 00005078 00000001     H   36301 36286B
 $$$843S       2 00005078 00000001     H   36307 36414B
 $$$844F       2 0000508E 00000001     H   36357 36334B 36347B
 $$$847F       2 000050B8 00000001     H   36405 36390B
 $$$848B       4 000050BE 00000001     I   36429 36442
 $$$848F       2 000050C8 00000001     H   36438 36429B 36441
 $$$849E       2 000050CC 00000001     H   36449 36443
 $$$849F       2 000050F4 00000001     H   36502 36445B
 $$$85B        1 00000308 00000001     X    8500  8507U
 $$$850F       2 000050EE 00000001     H   36492 36477B
 $$$851F       2 00005116 00000001     H   36548 36533B
 $$$852        1 00000050 00000001 A   U   36601 36598  36600
 $$$86F        2 0000032C 00000001     H    8558  8543B
 $$$87F        2 0000034C 00000001     H    8585  8570B
 $$$88         1 00000050 00000001 A   U    8640  8637   8639
 $$$90B        1 0000038A 00000001     X    8679  8686U
 $$$91F        2 000003AE 00000001     H    8737  8722B
 $$$92F        2 000003CE 00000001     H    8764  8749B
 $$$93         1 00000050 00000001 A   U    8814  8811   8813
 $$$94F        2 0000047C 00000001     H    9025  8912B  8999B
 $$$95B        1 0000040A 00000001     X    8856  8863U
 $$$96F        2 00000428 00000001     H    8916  8900B
 $$$96T        2 00000418 00000001     H    8903  8888B
 $$$98F        2 00000460 00000001     H    8973  8958B
 $$$99F        2 0000047A 00000001     H    9003  8987B
 $BCT          1 00002E68 00000001     C   24722 21234  21239  21518  21523  23321  23326
 $BLANK        1 00000020 00000001 A   N    7627 10817
 $CS           7 00002E5B 00000001     X   24719 19861  19866
1NPAT     (NPAT2193) (12:50) (15MAR04) Ordinary Symbol and Literal Cross Reference                                          Page  147
 $CSI          2 00002E58 00000001     X   24717 24269
 $CTRLC        1 00000003 00000001 A   N    7623 12654
 $DO           1 000000FD 00000001 A   N    7642 17981  17989  19647  19653
 $DONT         1 000000FE 00000001 A   N    7643 13783
 $ECHO         1 00000001 00000001 A   N    7647 13768  17989  19653
 $FPROT        5 00002E69 00000001     X   24723 19918  19923  19975  19980  20032  20037  20096  20101  20157  20162
                                                 23611  23616
 $FUNPROT      4 00002E6E 00000001     X   24724 23741  23746
 $IAC          1 000000FF 00000001 A   N    7644 13554  13771  13783  13784  13785  13786  17981  17981  17989  17990
                                                 19647  19647  19653  19654
 $LCSI         3 00002E58 00000001     X   24718 21181  21186  21468  21473  23271  23276  23521  23526
 $RCP          1 00002E7D 00000001     C   24729 24496
 $RFC          1 00002E7C 00000001     C   24728 24464
 $RFP          1 00002E7E 00000001     C   24730 24528
 $SB           1 000000FA 00000001 A   N    7639 13771
 $SE           1 000000F0 00000001 A   N    7629 13554  13786
 $SECURE       6 00002E72 00000001     X   24725 23673  23678
 $SGA          1 00000003 00000001 A   N    7648 13769  17981  17981  19647  19647
 $TAB          1 00000009 00000001 A   N    7624 10786
 $TTYPE        1 00000018 00000001 A   N    7649 13770  13771  17990  19654
 $WILL         1 000000FB 00000001 A   N    7640 13784  17981  17990  19647  19654
 $WONT         1 000000FC 00000001 A   N    7641 13785
 @RAR          0 00000000 FFFFFFF0     @    1152  2177   2185B
 @R0           0 00000000 FFFFFFFE     @     706   982U
 @R1           0 00000000 FFFFFFFD     @     719   978U  2183   2184   8247   9010U  9580U  9623U  9666U  9709U 11130M
                                                 11131  11166M 11539  11565  11864U 15140  15227  15240  15248  16326
                                                 16345  17350  18897  24238  24408  24426  24464  24496  24528  25020M
                                                 25029  25526M 25527M 27393  28707U 28781U 29456U 29501U 29546U 29591U
                                                 29702U 29747U 29792U 29837U 31752
 @R10          0 00000000 FFFFFFF4     @     836   942U
 @R11          0 00000000 FFFFFFF3     @     849   938U 30958U
 @R12          0 00000000 FFFFFFF2     @     862   934U
 @R13          0 00000000 FFFFFFF1     @     875   930U  8406  11939M 12033  33723M 33816
 @R14          0 00000000 FFFFFFF0     @     888   926U  8303M  8335
 @R15          0 00000000 FFFFFFEF     @     901   922U  8220U 11670M 13518  13545  21403  25348U 27476  27489  27502
                                                 27515  27528  27541  35800U 36154U 36411U
 @R2           0 00000000 FFFFFFFC     @     732   974U  7908   8341M  8378M  8379   8394   8428   8927  10819  11028
                                                 11130  11166  11690  12561U 12728U 12896U 12959U 13201U 13235U 14366
                                                 15779U 17042U 18353  20574  21349  21409  25020  33058U 33517  34227M
                                                 34227  35643
 @R3           0 00000000 FFFFFFFB     @     745   970U  7801   7907   8085M  8085   8129M  8427  10746M 10763M 10786
                                                 10817M 10818  10889  10973  11027  11416  11618M 13512  13519  14181
                                                 14225  20572M 20720  21548  21588  24616  26101U 26471  26648U 33064
                                                 33492  35351  35401  35485
 @R4           0 00000000 FFFFFFFA     @     758   966U  7902U  8422U  9369   9460M 11669  11711  15441  15450  15515
                                                 15825M 15871  15878M 15901  15960  16121  16499  16512  16521  16591
                                                 16620  16633  16640  16760  16773  16780  16852  17504  17513  17583
                                                 17610  17617  17737  17744  17816  20721  21199  26305  26470  30180U
                                                 32834U 32986  33063  33658U
 @R5           0 00000000 FFFFFFF9     @     771   962U  8611U  9466U 10356  10746  10769  10918  10924  11618  11668M
                                                 11690M 12183U 12495  12511  12560  12654M 12689M 12698M 12727  12828
                                                 12895  12958  13052  13137  13200  13234  13701  15001U 16192U 17220U
                                                 17930U 18636U 19584U 20199U 20734U 21624U 21809U 21965U 22121U 22260U
                                                 23044U 23350U 24016U 24217  24229  24269  24275  24312  24334  24346
                                                 25663U 26002U 26183U 26465U 30422U 30794U 31499U 32207U 32839U 33312U
                                                 33888U 34091U 34761U 35050U 35245U 35566U 36033U 36499U
 @R6           0 00000000 FFFFFFF8     @     784   958U  8624U  8798U 10174U 10527U 11233U 11724U 12361U 13588U 15006U
                                                 16197U 17225U 17935U 18641U 19589U 20204U 20739U 21629U 21814U 21970U
                                                 22126U 22265U 23049U 23355U 24021U 24684U 25658U 26178U 26489U 26664U
1NPAT     (NPAT2193) (12:50) (15MAR04) Ordinary Symbol and Literal Cross Reference                                          Page  148
                                                 27630U 31490U 32202U 32859U 33143U 33307U 33883U 34086U 34361U 34756U
                                                 35045U 35240U 35561U 35957U 36195U 36577U
 @R7           0 00000000 FFFFFFF7     @     797   954U  7933U  8449U  8629U  8803U  9023U 10184U 10532U 11238U 11734U
                                                 12366U 13593U 13716U 15016U 16202U 17230U 17940U 18651U 19594U 20214U
                                                 20749U 21639U 21819U 21975U 22131U 22270U 23059U 23365U 24026U 24694U
                                                 25668U 26188U 26494U 26669U 26744U 27648U 30427U 30799U 30931U 31511U
                                                 32217U 32869U 33148U 33317U 33893U 34096U 34366U 34766U 35055U 35250U
                                                 35571U 35674U 36044U 36200U 36590U
 @R8           0 00000000 FFFFFFF6     @     810   950U 10179U 11729U 15011U 18646U 20209U 20744U 21634U 23054U 23360U
                                                 24689U 27643U 32212U 32864U
 @R9           0 00000000 FFFFFFF5     @     823   946U
 ABSCENT       1 00000000 00000000 A   T    2193  2193
 ACTPICK       1 00000000 00000011     T   17964 17964  19622
 ASCTBL        1 00000000 00000000 A   T    2201  2201
 BLTBL         1 00000000 00000000 A   T    2203  2203
 BR            7 00000007 00000001 A   #    1042  7750M  7982M  8495M  8674M  8851M  9133M 10232M 10580M 11332M 11780M
                                                 12416M 13640M 13968M 15061M 16246M 17270M 18153M 18696M 19798M 20363M
                                                 20837M 21701M 21856M 22012M 22168M 22416M 23119M 23415M 24119M 24758M
                                                 25718M 26237M 26534M 26709M 26883M 27690M 30551M 30856M 30988M 31587M
                                                 32285M 32919M 33188M 33358M 33982M 34136M 34404M 34806M 35093M 35287M
                                                 35615M 35719M 36088M 36246M
 BTD           1 00000000 0000001C     T   20775 20775
 CHARLP        4 0000167C 00000001     I   15114 15640B 16183B
 CHARTALK      2 0000165E 00000001     H   15047 14820B
 CHECKIOB      1 00000000 00000000 A   T    2249  2249
 COMMAND       1 00000000 00000000 A   T    2189  2189
 COMMSEG       1 00000000 00000000 A   T    2190  2190
 CP         4096 00000000 FFFFFFEC     J    6203  1178U 32791U 32807
 CP#XSTK       1 00000010 FFFFFFEC A   U    3935  3936
 CPABYCT       4 000005B0 FFFFFFEC     F    3994 21081  21114
 CPACFLG       1 000005D5 FFFFFFEC     R    4038  4042   4047   4052   4057   4062
 CPACFLN       4 000005C4 FFFFFFEC     F    4030  4065   4065
 CPAFLAG       1 000005C3 FFFFFFEC     R    4002  4006   4011   4016   4021
 CPALLNO       4 000005A4 FFFFFFEC     F    3991 14316  14375  18303  18362  19078  19444  21096  21115  22229
 CPALNCT       4 000005AC FFFFFFEC     F    3993 22942
 CPANAME       8 00000588 FFFFFFEC     C    3984  4080   4080
 CPAUTFLG      1 000008A9 FFFFFFEC     R    4348  4352   4357   4362   4367
 CPCHFLAG      1 00000B68 FFFFFFEC     R    4975  4979
 CPDFLG        1 0000084C FFFFFFEC     R    4235  4239   4244   4249   4254   4259
 CPDFLG2       1 0000084D FFFFFFEC     R    4264  4268   4273   4278   4283   4288   4293
 CPEXFLG       1 00000758 FFFFFFEC     R    4104  4108
 CPEXFLG2      1 00000759 FFFFFFEC     R    4114  4123   4133
 CPEXFLG3      1 0000075A FFFFFFEC     R    4140  4144   4149
 CPEXTFLG      1 00000E28 FFFFFFEC     R    5786  5790   5795   5800   5805   5810   5815
 CPFABORT    128 00000D5A FFFFFFEC         5552  2153M  2153   2158M  2158
 CPFBUFIO      2 00000C7C FFFFFFEC         5170 15320M
 CPFDISP      16 00000C7B FFFFFFEC         5120 18858M 19577M
 CPFERROR     64 00000D5A FFFFFFEC         5557  2152M  2152   2157M  2157
 CPFNECHO     64 00000C7B FFFFFFEC         5110 15316M
 CPFNOCURS
               8 00000C7B FFFFFFEC         5125 23812M 23951M
 CPFNTEX       1 00000040 FFFFFFEC A   U    5404  5405
 CPFRDRNG      1 00000D88 FFFFFFEC     R    5672  5676   5681   5686   5691   5696   5701   5706
 CPFRDSRC      1 00000D89 FFFFFFEC     R    5711  5720   5730   5740
 CPFTINT      32 00000C7D FFFFFFEC         5190 15680M 23898M 23931M
 CPFTRAN     128 00000C7C FFFFFFEC         5140 14444M 14540M 15312M
 CPFUNUM       1 00000080 FFFFFFEC A   U    5403  5405
 CPFXDFLG      1 000007E4 FFFFFFEC     R    4182  4186   4191
 CPGFLG1       1 00000474 FFFFFFEC     R    3545  3549   3554   3559   3564   3569   3899   3899
1NPAT     (NPAT2193) (12:50) (15MAR04) Ordinary Symbol and Literal Cross Reference                                          Page  149
 CPGFLG10      1 0000047D FFFFFFEC     R    3782  3786   3791   3796   3801   3806   3811
 CPGFLG11      1 0000047E FFFFFFEC     R    3817  3821   3826
 CPGFLG12      1 0000047F FFFFFFEC     R    3832  3836   3841   3846
 CPGFLG13      1 00000480 FFFFFFEC     R    3852  3856
 CPGFLG14      1 00000481 FFFFFFEC     R    3862  3866   3871   3876   3881   3886
 CPGFLG4       1 00000477 FFFFFFEC     R    3598  3609   3618   3627   3636   3645
 CPGFLG5       1 00000478 FFFFFFEC     R    3651  3655   3660   3665   3670   3675   3680   3685   3690
 CPGFLG6       1 00000479 FFFFFFEC     R    3696  3700   3705   3710
 CPGFLG7       1 0000047A FFFFFFEC     R    3716  3720   3725   3730   3735
 CPGFLG8       1 0000047B FFFFFFEC     R    3741  3745   3750   3755   3760
 CPGFLG9       1 0000047C FFFFFFEC     R    3766  3770   3776
 CPINIT        1 00000174 FFFFFFEC     U    2715  6172
 CPJESFLG      1 000009E1 FFFFFFEC     R    4447  4451   4456   4461   4466   4471   4476   4481   4486
 CPJESFLY      1 000009FD FFFFFFEC     R    4497  4501   4506   4511
 CPJESHFL      1 000009E0 FFFFFFEC     R    4432  4436   4441   4520   4520
 CPLCNO        4 0000073C FFFFFFEC     F    4089 21270  21288  21545
 CPLFLG10      1 00000D59 FFFFFFEC     R    5538  5542
 CPLFLG11      1 00000D5A FFFFFFEC     R    5548  5552   5557   5562   5567
 CPLFLG12      1 00000D5B FFFFFFEC     R    5573  5577
 CPLFLG14      1 00000D5C FFFFFFEC     R    5583  5587   5592   5597   5602   5607
 CPLFLG6       1 00000D55 FFFFFFEC     R    5413  5417   5422   5427   5432   5437   5442
 CPLFLG7       1 00000D56 FFFFFFEC     R    5448  5452   5457   5462   5467   5472
 CPLFLG8       1 00000D57 FFFFFFEC     R    5478  5482   5487   5492   5497
 CPLFLG9       1 00000D58 FFFFFFEC     R    5503  5507   5512   5517   5522   5527   5532
 CPLOCALZ      1 00000C48 FFFFFFEC     U    5005  6166   6166
 CPMFLG        1 0000084F FFFFFFEC     R    4302  4306
 CPMODFLG      1 00000C78 FFFFFFEC     R    5033  5037   5042   5047   5052   5057
 CPNAMELN      1 00000010 FFFFFFEC A   U    3928  4175
 CPNEDPFX     10 00000E29 FFFFFFEC     X    5819  5820   5821
 CPNNETS       2 00000222 FFFFFFEC     H    2818  7921M  7921   8033   8193   8194M 32826  32828M
 CPNUMFLG      1 00000C79 FFFFFFEC     R    5063  5075
 CPORVCMD      1 00000140 FFFFFFEC     R    2597  2601   2606   2611   2616   2621   2626   2631   2636   2641   2641
                                                  2692   2692
 CPORVFLG      1 00000149 FFFFFFEC     R    2648  2652   2657   2662   2667   2672   2677   2682   2687
 CPORVWF       1 00000150 FFFFFFEC     R    2700  2704
 CPOSCANX      4 00000CA8 FFFFFFEC     F    5232  5299   5299
 CPR          11 0000000B 00000001 A   #    1106  1178U
 CPRACBAD     16 000001FC FFFFFFEC         2766  2800   2800   2801   2801
 CPRACF1       1 000001FC FFFFFFEC     R    2747  2751   2756   2761   2766   2771   2776   2781   2786   2802
 CPRACPSW     32 000001FC FFFFFFEC         2761  2799   2799   2801   2801
 CPRACUND     64 000001FC FFFFFFEC         2756  2799   2799   2800   2800
 CPRCVCUR      4 00000730 FFFFFFEC     A    4083  4085   4085
 CPREGS        4 00000004 FFFFFFEC     A    2478 25972M
 CPREND        8 0000046C FFFFFFEC     C    3538 23866M 23866
 CPRFLG        1 000008AA FFFFFFEC     R    4373  4377   4382   4387   4392   4397   4402
 CPS         254 00000344 FFFFFFEC     X    3517  3520   3521   3523   3523
 CPSACCT       5 000003B4 FFFFFFEC     C    3116  3279   3279
 CPSAMCOD      1 00000A22 FFFFFFEC     R    4569  4577   4587   4597   4606   4615   4624   4634   4643   4652
 CPSAMFLG      1 00000A21 FFFFFFEC     R    4529  4533   4538   4543   4548   4553   4558   4563   4674   4674
 CPSCNFLG      1 00000CD0 FFFFFFEC     R    5245  5256   5265   5276
 CPSCNF2       1 00000CD1 FFFFFFEC     R    5281  5285
 CPSCNMAX      1 00000014 FFFFFFEC A   U    5297  5298
 CPSCRI        2 00000434 FFFFFFEC     H    3506  3511   3511
 CPSEG        60 00000050 FFFFFFEC     X    2586  8302   8303   8303   8307   8327   8335   8406M  9066  14490  14504
                                                 14529  15373  15492  15510  15554  15609  15634  15995  16083  16568
                                                 16586  16683  16829  16847  16891  16925  16950  17560  17578  17660
                                                 17793  17811  17855  17889  17914  19874  19931  19988  20045  20109
                                                 20170  20639  20706  21194  21219  21247  21439  21481  21503  21531
                                                 23032  23244  23284  23306  23334  23534  23559  23577  23624  23658
1NPAT     (NPAT2193) (12:50) (15MAR04) Ordinary Symbol and Literal Cross Reference                                          Page  150
                                                 23686  23721  23754  23855  26955  26973  26998  27100  27118  27142
                                                 27172  27202  27220  27250  27327  27387  27414  27436  27454  27620
                                                 27743  27761  27786  27804  27826  27844  27872  27890  27918  27937
                                                 27959  27984  28003  28028  28046  28071  28105  28130  28159  28194
                                                 28219  28244  28283  28305  28330  28353  28377  28402  28437  28467
                                                 28492  28531  28553  28578  28619  28644  28669  28692  28722  28747
                                                 28766  28796  28821  28842  29165  29200  29238  29276  29314  29352
                                                 29390  29420  29441  29468  29486  29513  29531  29558  29576  29603
                                                 29621  29643  29668  29687  29714  29732  29759  29777  29804  29822
                                                 29849  29867  29889  29914  29949  29971  29990  30015  30033  30058
                                                 30083  30150  30206  30243  30268  30407  30632  30703  30733  30754
                                                 30779
 CPSEGCOD      1 00000050 FFFFFFEC     R    2503  2512   2522   2532   2542   2552   2562   2572
 CPSEGLENF
               4 0000005C FFFFFFEC     A    2578 23781  23828M 23828
 CPSEGLOC      4 00000070 FFFFFFEC     A    2582 23776
 CPSEGRTN      4 00000074 FFFFFFEC     A    2583  8335M  8335
 CPSFE         8 0000034C FFFFFFEC     C    2846 15663
 CPSFL         1 00000384 FFFFFFEC     R    2854  2858   2863   2868   2873   2878
 CPSFLG        1 000003F8 FFFFFFEC     R    3394  3398   3403   3408   3413   3418   3423   3428   3433
 CPSFLG2       1 000003F9 FFFFFFEC     R    3439  3443   3448   3453
 CPSFL2        1 00000385 FFFFFFEC     R    2884  2888   2893   2898   2903
 CPSFL3        1 00000386 FFFFFFEC     R    2909  2913   2918   2923
 CPSFL4        1 00000387 FFFFFFEC     R    2929  2933   2938   2943
 CPSFL5        1 00000388 FFFFFFEC     R    2949  2953   2958   2963
 CPSFSAM      64 000003EA FFFFFFEC         3300 13365
 CPSHEI        2 0000041C FFFFFFEC     H    3494 18761
 CPSKAFL       1 000003BF FFFFFFEC     R    3250  3254   3259   3264   3269   3274
 CPSKIFL       1 000003BE FFFFFFEC     R    3205  3209   3214   3219   3224   3229   3234   3239   3244
 CPSNMSG       2 00000390 FFFFFFEC     H    3098 22716M 22716  22742
 CPSOF         1 000001F8 FFFFFFEC     X    2737  2739   2739
 CPSOFLAG      1 00000416 FFFFFFEC     R    3464  3468   3473   3478   3483   3488
 CPSOPST       4 000003C4 FFFFFFEC     F    3284  3513   3513
 CPSPORT       8 00000354 FFFFFFEC     C    2848  2968   2968
 CPSQFLG       1 000003EC FFFFFFEC     R    3313  3317
 CPSSFLG       1 000003BB FFFFFFEC     R    3123  3127   3132   3137   3142   3147   3152
 CPSSTART      4 00000344 FFFFFFEC     F    2840  2844   2844   3280   3280   3385   3385   3517   3517
 CPSSTAT       1 0000038F FFFFFFEC     R    3060  3064   3069   3074   3079   3084   3089   3094
 CPSTACF       1 000003BC FFFFFFEC     R    3158  3162   3167   3172   3177   3182   3187   3192   3197
 CPSTART       4 00000000 FFFFFFEC     C    2476  6170   6174
 CPSTCLS       8 000003E2 FFFFFFEC     C    3288 13350  13355
 CPSTFLAG      1 000003EA FFFFFFEC     R    3291  3295   3300   3305
 CPSTVIRT      5 0000038C FFFFFFEC         3022 14154
 CPSTVTAM      4 0000038C FFFFFFEC         3012 13389  14133
 CPSTYPE       1 0000038C FFFFFFEC     R    2973  2982   2992   3002   3012   3022   3032   3042   3052
 CPSUFLG       1 000003EE FFFFFFEC     R    3328  3332   3337   3342   3347   3352   3357   3362   3367
 CPSUFLG2      1 000003EF FFFFFFEC     R    3373  3377   3382
 CPSVPGM       8 0000039C FFFFFFEC     C    3106  3112   3112
 CPSWID        2 00000418 FFFFFFEC     H    3492 18805
 CPS1ST        4 0000038C FFFFFFEC     F    2970  3515   3515
 CPTEMPP#      1 0000005F FFFFFFEC A   U    4423  4425
 CPTRM        14 00000C7A FFFFFFEC     X    5219 13874  15306  15639M 15703M 16420  16956M 16988M 17425  17920M 18059
 CPTRMFL1      1 00000C7A FFFFFFEC     R    5081  5085   5090   5095   5219   5219
 CPTRMFL2      1 00000C7B FFFFFFEC     R    5101  5105   5110   5115   5120   5125   5130
 CPTRMFL3      1 00000C7C FFFFFFEC     R    5136  5140   5145   5150   5155   5160   5165   5170
 CPTRMFL4      1 00000C7D FFFFFFEC     R    5176  5180   5185   5190   5195   5200   5205   5210
 CPTRMIN       2 00000C80 FFFFFFEC     H    5216 15651M 15670M 16965M 16986M 16986
 CPUSED        1 00000FBC FFFFFFEC A   U    6170  6171
 CPVACURS      8 00000AF0 FFFFFFEC     D    4948  4949   4950
1NPAT     (NPAT2193) (12:50) (15MAR04) Ordinary Symbol and Literal Cross Reference                                          Page  151
 CPVCURS       8 00000AE0 FFFFFFEC     D    4942  4943   4944
 CPVFLAG       1 00000AC8 FFFFFFEC     R    4743  4747   4752   4757   4762   4767
 CPVFLAG2      1 00000AC9 FFFFFFEC     R    4773  4777   4782   4787   4792   4797   4802
 CPVFLAG3      1 00000ACA FFFFFFEC     R    4808  4812   4817   4822   4827   4832   4837
 CPVFLAG4      1 00000ACB FFFFFFEC     R    4843  4847   4852   4857
 CPVLFLAG      1 00000ACE FFFFFFEC     R    4912  4916   4921   4926
 CPVMODE       1 00000ACC FFFFFFEC     R    4865  4869   4874   4879   4884   4889   4894   4899   4904
 CPVTWID       2 00000AD0 FFFFFFEC     H    4932  4935   4935
 CPWK1         4 00000D60 FFFFFFEC     F    5616  5631   5654
 CPWK2         4 00000D64 FFFFFFEC     F    5617  5632   5646
 CPWK3         4 00000D68 FFFFFFEC     F    5618  5633   5647
 CPWK4         4 00000D6C FFFFFFEC     F    5619  5634   5648
 CPWK5         4 00000D70 FFFFFFEC     F    5620  5636   5641   5649
 CPWK6         4 00000D74 FFFFFFEC     F    5621  5637   5642   5650   5657   5659
 CPWK7         4 00000D78 FFFFFFEC     F    5622  5635   5651
 CPXFLAG       1 000007FD FFFFFFEC     R    4210  4214
 CPXSTATE      4 000007F8 FFFFFFEC     F    4204  4217   4217
 CTKEXIT       2 000018C6 00000001     H   16188 15143B 15166B 15713B 15944B
 CTRC         32 00000000 FFFFFFE4     J    7553  7615  30582U 36141U
 CTRC#         1 00000100 00000001 A   U    7556  7615  30293  30326  30375  36632
 CTRCCELL      8 00000068 00000001     D    7609  9055  36615
 CTRCCLCK      8 00000000 FFFFFFE4     D    7540 30599M 30599  30605  36145M
 CTRCLEN       2 0000000A FFFFFFE4     H    7545 30742  36147M
 CTRCPKT      20 0000000C FFFFFFE4     C    7546 30718  36148  36148M
 CTRCSHFT      1 00000005 00000001 A   U    7557 30305  30354  36129
 CTRCSR        1 00000008 FFFFFFE4     C    7541 30649  36146M
 CV         4016 00000000 FFFFFFEE     J    2379  1187U
 CVABSRTN      4 0000088C FFFFFFEE     V    2193  2168
 CVAMYP        4 000000B4 FFFFFFEE     A    1339  9311  30882  31014  33085  33098M 33098
 CVASCTBL      4 000008B0 FFFFFFEE     V    2201 24972
 CVBLANKS    235 000004D8 FFFFFFEE     C    1973  8341   8378   8379   9272  22648  27157  35458  35509
 CVBRMSK       1 00000751 FFFFFFEE     X    2109  2110   2111
 CVCFLAG       1 00000A00 FFFFFFEE     R    2274  2278   2283   2288   2293   2298
 CVCHKST       8 000009F0 FFFFFFEE     D    2264  2354   2354
 CVCHKST2      8 00000E28 FFFFFFEE     D    2357  2360   2360
 CVCOMRTN      4 0000087C FFFFFFEE     V    2189  2159
 CVCSNIO       4 00000240 FFFFFFEE     F    1514 33432  33433M
 CVCURJCB      4 000001C8 FFFFFFEE     A    1458  7833   8196   8587   8986  15745  17008  25753  26258  26555
 CVCURPATH
               4 00000180 FFFFFFEE     F    1435 31672M 32195M 32195
 CVDBGFLG      1 000004CC FFFFFFEE     R    1963  1967
 CVDOTTBL      4 000008C4 FFFFFFEE     V    2206 21348
 CVDSPCLK      8 00000630 FFFFFFEE     D    2002 25920  26131  31144
 CVEBCTBL      4 000008B4 FFFFFFEE     V    2202 11101  11689
 CVEB7TBL      4 000008C0 FFFFFFEE     V    2205 11084
 CVENERL       2 000002BA FFFFFFEE     H    1567 32087M
 CVENERP       4 000002DC FFFFFFEE     A    1577 32062  32076M 32076  32092M
 CVENERR       4 000002D8 FFFFFFEE     F    1576 32050  32051M
 CVENIO        4 000002D4 FFFFFFEE     F    1575 25580  25581M
 CVENT         4 0000074C FFFFFFEE     I    2107  7750B  7982B  8495B  8674B  8851B  9133B 10232B 10580B 11332B 11780B
                                                 12416B 13640B 13968B 15061B 16246B 17270B 18153B 18696B 19798B 20363B
                                                 20837B 21701B 21856B 22012B 22168B 22416B 23119B 23415B 24119B 24758B
                                                 25718B 26237B 26534B 26709B 26883B 27690B 30551B 30856B 30988B 31587B
                                                 32285B 32919B 33188B 33358B 33982B 34136B 34404B 34806B 35093B 35287B
                                                 35615B 35719B 36088B 36246B
 CVENTBR       2 00000750 FFFFFFEE     I    2108  2109
 CVENTRC       2 000002B8 FFFFFFEE     H    1566 35992  35993M 36010  36568  36570M
 CVERROR       4 000007D6 FFFFFFEE     I    2157  2173B
 CVETRC#       1 00000032 FFFFFFEE A   U    1564 36637
1NPAT     (NPAT2193) (12:50) (15MAR04) Ordinary Symbol and Literal Cross Reference                                          Page  152
 CVETRCP       4 000002B4 FFFFFFEE     A    1565 26926M 26926  27006  35858  35986M 36277  36434M 36582
 CVEXIRTN      4 0000077C FFFFFFEE     V    2137  2133
 CVFCHRKBPR
               8 000004C9 FFFFFFEE         1878  1894   1894
 CVFCHRKBSE
               4 000004C9 FFFFFFEE         1883  1894   1894
 CVFCHRKCPR
               2 000004C9 FFFFFFEE         1900  1916   1916
 CVFCHRKCSE
               1 000004C9 FFFFFFEE         1905  1916   1916
 CVFCHRUBPR
             128 000004C9 FFFFFFEE         1834  1850   1850
 CVFCHRUBSE
              64 000004C9 FFFFFFEE         1839  1850   1850
 CVFCHRUCPR
              32 000004C9 FFFFFFEE         1856  1872   1872
 CVFCHRUCSE
              16 000004C9 FFFFFFEE         1861  1872   1872
 CVFL          1 000004C4 FFFFFFEE     R    1630  1634   1639   1644   1649   1654   1659   1664   1669
 CVFL2         1 000004C5 FFFFFFEE     R    1675  1679   1684   1689   1694   1699   1704   1709   1714
 CVFL3         1 000004C6 FFFFFFEE     R    1720  1724   1729   1734   1739   1744   1749   1754   1759
 CVFL4         1 000004C7 FFFFFFEE     R    1765  1769   1774   1779   1784   1789   1794   1799
 CVFL5         1 000004C8 FFFFFFEE     R    1805  1809   1814   1819   1824
 CVFL6         1 000004C9 FFFFFFEE     R    1830  1834   1839   1851   1856   1861   1873   1878   1883   1895   1900
                                                  1905   1917
 CVFNONET     16 00000A00 FFFFFFEE         2293  9226
 CVFNONETCHK
               8 00000A00 FFFFFFEE         2298 31656
 CVFNTRC       2 000004C4 FFFFFFEE         1664 35812
 CVHEAP#       1 00000200 FFFFFFEE A   U    1536  1537
 CVINVRTN      4 00000888 FFFFFFEE     V    2192  2162
 CVJESFLG      1 000004CA FFFFFFEE     R    1923  1927
 CVLNKRGS      4 00000780 FFFFFFEE     F    2139  2114M  2140   8551M  8578M  8730M  8757M  8966M  9206M  9451M 10288M
                                                 10636M 11406M 14033M 14908M 18218M 24829M 24927M 25789M 25863M 25892M
                                                 26048M 26364M 26392M 31121M 32145M 32358M 32456M 32816M 34066M 34209M
                                                 34251M 35410M 35660M 36294M 36398M 36485M 36541M
 CVLNKRTN      4 000007B0 FFFFFFEE     U    2140  2129M
 CVLOCK1       1 00000088 FFFFFFEE     R    1281  1285   1290
 CVLOCK2       1 00000089 FFFFFFEE     R    1295  1299
 CVLOCK3       1 0000008A FFFFFFEE     R    1304  1308
 CVLOCK4       1 0000008B FFFFFFEE     R    1313  1317
 CVLOGMOD      1 00000068 FFFFFFEE     R    1268  1272
 CVMACH        1 00000067 FFFFFFEE     R    1228  1232   1237   1242   1247   1252   1257   1262
 CVMAXLNO      4 0000015C FFFFFFEE     A    1422 20920  21748
 CVMILRTN      4 00000884 FFFFFFEE     V    2191  2171
 CVNET#        1 000001F4 FFFFFFEE A   N    1333  9047  26804  33937  36614
 CVNETP        4 000000A8 FFFFFFEE     A    1334  7772   8058   8924  26276  32956  34220  35640
 CVNOARTN      4 00000890 FFFFFFEE     V    2194  2165
 CVNWDATE      4 00000608 FFFFFFEE     F    1996  2000   2000
 CVNWMPG#      1 00000008 FFFFFFEE A   U    1998  1999
 CVONE         4 000004D0 FFFFFFEE     F    1971 21546
 CVPFXRTN      1 00000000 00000000 A   T    2137  2137
 CVPGFLAG      1 00000A01 FFFFFFEE     R    2304  2308   2313   2318
 CVPIOSZ       1 00004F80 FFFFFFEE A   U    1367  1369
 CVPPDBQH      4 0000009C FFFFFFEE     A    1325  1326
 CVPSFNO       1 000003E9 FFFFFFEE A   N    1489  1491
 CVPSLNO       1 000007CF FFFFFFEE A   N    1490  1491
 CVPXSZ        1 00000008 FFFFFFEE A   U    1368  1369
 CVR          12 0000000C 00000001 A   #    1119  1187U
1NPAT     (NPAT2193) (12:50) (15MAR04) Ordinary Symbol and Literal Cross Reference                                          Page  153
 CVRKEY        1 00000008 FFFFFFEE A   U    2062  2063
 CVRSET        1 00000002 FFFFFFEE A   U    2056 31239  31450
 CVSEGRTN      4 00000880 FFFFFFEE     V    2190  2154
 CVSTACK#      1 00000080 FFFFFFEE A   U    1528  1529
 CVSTART       4 00000000 FFFFFFEE     C    1201  2372
 CVTAMYP       4 000000B8 FFFFFFEE     A    1340  9334  30905  31037  33114  33127M 33127
 CVTRC         4 00000768 FFFFFFEE     I    2129  2115B  8552B  8579B  8731B  8758B  8967B  9207B  9452B 10289B 10637B
                                                 11407B 14034B 14909B 18219B 24830B 24928B 25790B 25864B 25893B 26049B
                                                 26365B 26393B 31122B 32146B 32359B 32457B 32817B 34067B 34210B 34252B
                                                 35411B 35661B 36295B 36399B 36486B 36542B
 CVTRCRTN      4 00000778 FFFFFFEE     V    2136  2130
 CVUNETQH      4 000000B0 FFFFFFEE     A    1337 25960  25961M 25980  26454  26455M 26572  31061
 CVUNMAX#      1 00000019 FFFFFFEE A   N    1332  8033
 CVUSFNO       1 00000001 FFFFFFEE A   N    1496  1498
 CVUSLNO       1 000003E7 FFFFFFEE A   N    1497  1498
 CVVOL#        1 00000005 FFFFFFEE A   U    2347  2348
 CVWTOFLG      1 000004CB FFFFFFEE     R    1933  1937   1942   1947   1952   1957
 DEBUGSG       1 00000000 00000000 A   T    2090  2090
 DELRANGE      1 00000000 00000013     T   17967 17967  19625
 DEV          12 00000000 FFFFFFEB     J    4728  4736
 DEVMAX#       1 00000002 FFFFFFEC A   U    4679  4736
 DEVTYPE       1 00000001 FFFFFFEB     R    4696  4705   4715
 DISPATCH      1 00000000 00000026     T   26802 26802
 DISPCTRC      2 000041B0 00000001     H   30537 30474
 DISPUNET      2 0000372A 00000001     H   27676 27672
 DOTTBL        1 00000000 00000000 A   T    2206  2206
 DRENCFLG      1 00000F9F FFFFFFEC     R    6134  6138   6143   6148   6153   6158
 DRENPROT      1 00000F9E FFFFFFEC     R    6121  6129
 DSNON        40 00000E90 FFFFFFEC     C    5854  5855
 DSNWADSN     44 00000E5C FFFFFFEC     C    5841  5842   5843   5844   5853   5861   6092   6098   6100   6106   6109
                                                  6111   6114   6163
 DSNWAF4       1 00000F37 FFFFFFEC     R    5909  5913   5918   5923   5928   5933   5938   5943   5948
 DSNWAF5       1 00000F38 FFFFFFEC     R    5954  5958   5963   5968   5973   5978   5983   5988   5993
 DSNWAF6       1 00000F39 FFFFFFEC     R    5999  6003   6008   6013   6018   6023   6028   6033   6038
 DSNWAF7       1 00000F3A FFFFFFEC     R    6044  6048   6053   6058   6063
 DSNXG         1 00000004 FFFFFFEC A   U    5846  5848
 DSNXGL        1 00000003 FFFFFFEC A   U    5847  5848
 DSNXU         1 00000007 FFFFFFEC A   U    5848  5850
 DSNXUL        1 00000004 FFFFFFEC A   U    5849  5850
 DSSIZ         1 00000108 FFFFFFEC A   U    6092  6100   6109   6114
 DTB           1 00000000 00000023     T   26787 26787
 EBCTBL        1 00000000 00000000 A   T    2202  2202
 EBCTBL7       1 00000000 00000000 A   T    2205  2205
 ECBLIST       1 00000000 00000000 A   T    2065  2065
 EPARTBL       1 00000000 00000000 A   T    2197  2197
 ESCTBL      256 00002D58 00000001     X   24709 24229  24710
 ETRC         26 00000000 FFFFFFE1     J    7722 27006  27022U 27057  35846U 35857M 36318U 36434  36460U 36476  36493
                                                 36515U 36532  36549M 36552
 ETRCACCT      5 00000012 FFFFFFE1     C    7695 27187  27235  35922M 35951M
 ETRCCLCK      8 00000008 FFFFFFE1     D    7692 27073  35863M
 ETRCDATA      1 0000001A FFFFFFE1     X    7715 27341  35970
 ETRCDLEN      2 00000018 FFFFFFE1     H    7712 27345  35962M 36554
 ETRCFIN      64 00000017 FFFFFFE1         7708 27293  35916M
 ETRCFLAG      1 00000017 FFFFFFE1     R    7699  7703   7708
 ETRCFOUT    128 00000017 FFFFFFE1         7703 27269  35888M
 ETRCHDR      26 00000000 FFFFFFE1     X    7713 35856M 35856  36553  36636
 ETRCLINK      4 00000004 FFFFFFE1     A    7691 27006  27036  35858M 36346M 36346  36381  36434  36493M 36493  36550M
 ETRCSNO       2 00000010 FFFFFFE1     H    7694 27127  35950M
 ETRCSTRT      4 00000000 FFFFFFE1     C    7690  7713   7713
1NPAT     (NPAT2193) (12:50) (15MAR04) Ordinary Symbol and Literal Cross Reference                                          Page  154
 EVALSTR       1 00000000 00000006     T    9060  9060  20776  26781
 FETRCOM       2 000050BC 00000001     H   36421 36353B 36371B
 FIELDC       44 00000014 FFFFFFD7     X   24089 24311M 24311
 FIELDCRS      8 00000008 FFFFFFD7     D   24073 24502M 24555
 FIELDCS       4 00000018 FFFFFFD7     F   24088 24396M 24470  24502
 FIELDCS#      1 0000000A FFFFFFD7 A   U   24086 24088  26788
 FIELDCSF      1 00000014 FFFFFFD7     R   24078 24082  24089  24089
 FIELDCSN      2 00000016 FFFFFFD7     H   24087 24377  24401  24402M
 FIELDFL     128 00000014 FFFFFFD7        24082 24345M 24447
 FIELDFLG      1 00000000 FFFFFFD7     R   24064 24068
 FIELDFNC      4 00000004 FFFFFFD7     F   24072 24470M 24677
 FIELDFST    128 00000000 FFFFFFD7        24068 24293  24539M 24641
 FIELDSTA      4 00000010 FFFFFFD7     A   24074 24174M 24669
 FIELDWA      64 00000000 FFFFFFD7     J   24096 24116  24145U 24169M 24169  24702  24704  24705
 FMTTIME       1 00000000 00000029     T   30455 30455  30821
 FREECORE      1 00000000 0000000F     T   13763 13763  33930
 FREEETRC      2 00005038 00000001     H   36232 36022B 36228
 FREEPOOL      1 00000000 00000035     T   36616 36616
 FREEUNET      2 00004ACC 00000001     H   34122 33934  34078B
 FSR           0 00000000 00000001 A   #    1029  7745   7941M  8490   8637M  8669   8811M 12411  12598  12602M 13601M
                                                 19792  20222M 20357  20757M 20831  21647M 21696  21827M 21851  21983M
                                                 22007  22139M 22163  22278M 22410  23067M 23113  23373M 24753  25050M
                                                 25471  25585M 25676M 26232  26502M 26529  26677M 26704  26752M 26877
                                                 27656M 27685  30435M 30546  30807M 30851  30939M 30983  31519M 31581
                                                 32225M 32914  33156M 33183  33325M 33353  33901M 33977  34104M 34131
                                                 34374M 34399  34774M 34801  35063M 35088  35258M 35282  35579M 35610
                                                 35682M 35714  36052M 36083  36208M 36241  36598M
 GETCORE       1 00000000 00000032     T   33931 33931
 GETFDONE      6 00002CF2 00000001     I   24553 24187B 24296B
 GETFLP        2 00002C04 00000001     H   24177 24252B 24278B
 GETFNLP       4 00002C00 00000001     I   24174 24549B
 GETLINE       1 00000000 00000012     T   17965 17965  19623  21664
 GETPOOL       1 00000000 00000003     T    9051  9051
 GETRSC        1 00000000 0000002E     T   33922 33922
 GETUNET       2 00004E8A 00000001     H   35601 33225B 33395B 34019B 34441B 34843B 35130B 35324B
 GTFRSTLN      1 00000000 0000001F     T   21669 21669
 GTLASTLN      1 00000000 0000001D     T   21662 21662  26768
 GTNEXTLN      1 00000000 00000020     T   26770 26770
 GTPREVLN      1 00000000 0000001E     T   21663 21663  26769
 HEXDUMP       1 00000000 0000002C     T   30462 30462
 HIBAL         1 00000000 FFFFFFFF     J     691   707    720    733    746    759    772    785    798    811    824
                                                   837    850    863    876    889    902
 HTKEXIT       2 00001B12 00000001     H   17216 16348B 16371B 16990B 17206B
 HTKLOOP       4 000018F2 00000001     I   16300 16957B 17211B
 HTKREAD       6 00001A6E 00000001     I   16965 16329B
 IACAYT        4 00000F64 00000001     I   12661 12621
 IACBREAK      4 00000F54 00000001     I   12651 12618  12619  12620
 IACCHK        2 00000D74 00000001     H   12402 13766
 IACDEL        2 000011B8 00000001     H   13626 12637B 12645B 12653B 12663B 12688B 12697B 12866B 12929B 13171B 13205B
                                                 13213B 13551B
 IACDO         2 00001022 00000001     H   12937 12628
 IACDONT       2 000010AA 00000001     H   13179 12629
 IACEC         4 00000F82 00000001     I   12686 12622
 IACEL         4 00000F92 00000001     I   12695 12623
 IACERROR      4 00000F3C 00000001     I   12635 12614
 IACLOOP       2 00000D98 00000001     H   12461 12638B 12646B 12656B 12681B 12690B 12699B 12867B 12930B 13172B 13206B
                                                 13214B 13552B
 IACNOP        4 00000F48 00000001     I   12643 12615  12616  12617  12624
 IACSB         2 000010CE 00000001     H   13225 12625
1NPAT     (NPAT2193) (12:50) (15MAR04) Ordinary Symbol and Literal Cross Reference                                          Page  155
 IACSE         2 0000119C 00000001     C   13554 13512
 IACTABLE      4 00000EF8 00000001     A   12614 12585
 IACTRT        1 00000DF8 00000001     X   12609 12511  12610
 IACWILL       2 00000FA2 00000001     H   12706 12626
 IACWONT       2 00000FFE 00000001     H   12874 12627
 IAC255        4 000010C2 00000001     I   13211 12630
 ICHKDONE      2 0000119E 00000001     H   13564 12454B 12604B 12716B 12884B 12947B 13189B
 IHB18448C
               2 00004F3C 00000001     H   35832 35827B
 IHB18448F
               1 00004F38 00000001     B   35828 35833
 IHB18878F
               1 00005134 00000001     B   36559 36563
 INBUF         8 00000000 FFFFFFE2     J    7675 11851U 12078U 30093  30109U 33517  33532U 33642M
 INBUFDAT      1 00000008 FFFFFFE2     U    7668 12124  30164  33552  33593
 INBUFLEN      4 00000004 FFFFFFE2     F    7667 11857  12129  30169  33544M 33650
 INBUFLNK      4 00000000 FFFFFFE2     A    7666 12083  12113M 30093  30123  33543M 33543  33642M
 INVALID       1 00000000 00000000 A   T    2192  2192
 JCB         208 00000000 FFFFFFE9     J    6595  8207U  8598U 15755U 17018U 25763U 26268U 26565U 31182U 31231M 31442M
                                                 32760U
 JCBACCT       5 0000004A FFFFFFE9     C    6357  8212   8603
 JCBAFL        1 00000062 FFFFFFE9     R    6440  6444   6449   6454   6459   6464   6469   6474   6479
 JCBAPDSP     16 00000062 FFFFFFE9         6459 31217  31231M 31231  31427  31442M 31442
 JCBBFL        1 00000063 FFFFFFE9     R    6485  6489   6494   6499   6504   6509   6514   6519
 JCBBILLX      8 00000088 FFFFFFE9     D    6570  6578   6578
 JCBCPX        4 00000014 FFFFFFE9     A    6337 32766
 JCBFATTN      2 00000062 FFFFFFE9         6474 15767M 17030M
 JCBFATTNFREE
               4 00000063 FFFFFFE9         6514 26156
 JCBFPATN      8 00000062 FFFFFFE9         6464 15772M 17035M
 JCBFTINT      1 00000062 FFFFFFE9         6479 31276
 JCBFWINT     16 00000063 FFFFFFE9         6504 31329
 JCBRSCF1      1 00000064 FFFFFFE9     R    6525  6529   6534   6539
 JCBSEQ        2 00000048 FFFFFFE9     H    6356  8213   8604  31297
 JCBSFLG1      1 00000065 FFFFFFE9     R    6545  6549   6554
 JCBTIMID      4 0000000C FFFFFFE9     A    6334 31359  31393M 31393
 JCBTIMQL      4 00000010 FFFFFFE9     A    6335 31394M
 JCBWFL        1 00000060 FFFFFFE9     R    6369  6373   6378   6383   6388   6393   6398   6403   6408   6436  31204
                                                 31414
 JCBWFTM       2 00000060 FFFFFFE9         6403 31401M
 JCBWWFL       1 00000061 FFFFFFE9     R    6414  6418   6423   6428   6433
 JCBWWFPT     64 00000061 FFFFFFE9         6423 25968M 31192M
 KWRDSTRT      1 00000005 FFFFFFE8     U    6617  6779   6779
 KWRSTART      4 00000000 FFFFFFE8     F    6612  6793
 KWRUSER       3 00000000 FFFFFFE8     C    6613  6615   6615
 LINETALK      2 00001B20 00000001     H   17256 14854B
 LOCALTOD      1 00000000 00000037     T   36629 36629
 LOWTBL        1 00000000 00000000 A   T    2200  2200
 LSR           8 00000008 00000001 A   #    1067  7745   7941M  7977   8457M  8490   8637M  8669   8811M  8846   9031M
                                                  9127  10192M 10227  10540M 10575  11246M 11326  11742M 11775  12374M
                                                 12411  13601M 13635  13724M 13962  15024M 15056  16210M 16241  17238M
                                                 17265  17948M 18147  18659M 18691  19602M 19792  20222M 20357  20757M
                                                 20831  21647M 21696  21827M 21851  21983M 22007  22139M 22163  22278M
                                                 22410  23067M 23113  23373M 23410  24034M 24113  24702M 24753  25676M
                                                 25713  26196M 26232  26502M 26529  26677M 26704  26752M 26877  27656M
                                                 27685  30435M 30546  30807M 30851  30939M 30983  31519M 31581  32225M
                                                 32279  32877M 32914  33156M 33183  33325M 33353  33901M 33977  34104M
                                                 34131  34374M 34399  34774M 34801  35063M 35088  35258M 35282  35579M
                                                 35610  35682M 35714  36052M 36083  36208M 36241  36598M
1NPAT     (NPAT2193) (12:50) (15MAR04) Ordinary Symbol and Literal Cross Reference                                          Page  156
 LTKEXIT       2 00001C98 00000001     H   17926 17353B 17376B
 LTKLOOP       4 00001B3E 00000001     I   17324 17921B
 MILERR        1 00000000 00000000 A   T    2191  2191
 NBLTBL        1 00000000 00000000 A   T    2204  2204
 NCLSFIN       4 000046C4 00000001     I   32738 32426B 32486B
 NCLSJCBP      4 00000000 FFFFFFD4     A   32254 32392M 32738
 NCLSWA        4 00000000 FFFFFFD4     J   32261 32282  32311U 32321M 32321  32877  32879  32880
 NCTRLOK       4 0000090A 00000001     I   10515 10377B
 NETDISP       1 00000000 00000027     T   26805 26805
 NETFMT        2 00003366 00000001     H   26695 26691
 NETTRC        2 00004EE0 00000001     H   35705 26799  33929  36613
 NGETNONE      4 0000046A 00000001     I    8994  8929B
 NOACTION      1 00000000 00000000 A   T    2194  2194
 NPARTBL       1 00000000 00000000 A   T    2198  2198
 NPATALLO      2 00000118 00000001     H    7968  7964
 NPATCHK       2 00004272 00000001     H   30842 13756  26795  30838  33933
 NPATCLRU      2 00000370 00000001     H    8660  8656
 NPATCLS       2 00004590 00000001     H   32270  9049  32266
 NPATCTRL      2 00000858 00000001     H   10218 10214
 NPATCTRL      1 00000000 00000002     T    9048  9048
 NPATDEQ       2 0000330C 00000001     H   26520 26443B 26516
 NPATFREE      2 00000090 00000001     H    7736  7732
 NPATGET       2 000003F0 00000001     H    8837  8833
 NPATINQX      2 000032FE 00000001     H   26485 26445B
 NPATOPEN      2 0000052A 00000001     H    9118  9114
 NPATPCHK      2 000043FE 00000001     H   31571 30897B 30920B 31029B 31052B
 NPATPCLS      2 0000471C 00000001     H   32905 32901
 NPATPOST      2 000042B6 00000001     H   30974 30970
 NPATQ         2 00003236 00000001     H   26223 26219
 NPATREAD      2 00000922 00000001     H   10566 10562
 NPATSEG       2 00002E80 00000001     H   24744  9058
 NPATSETU      2 000002EE 00000001     H    8481  8477
 NPATTALK      2 000013E0 00000001     H   13953 13949
 NPATVIEW      2 00001D16 00000001     H   18138 18134
 NPATWAIT      2 000030B8 00000001     H   25704 13754  25700  26797
 NPATXRD       2 00000AB8 00000001     H   11317 11313
 NPAT2193      1 00000000 00000001     R    1019  1017
 NPHDR        56 00000008 FFFFFFD5     X   31552 31752M 33927
 NPID         16 00000008 FFFFFFD5     C   31544 31552  31552  31782  31817  31831  31864  31897  31930  31963  31996
                                                 32029  33492  33946  34901  35351  36634
 NPOEXIT       2 0000084A 00000001     H   10170  9237B  9283B  9358B  9387B 10103B
 NPOWA        40 00000000 FFFFFFE0     J    9109  9130   9159U  9169M  9169  10192  10194  10195
 NPWA        128 00000000 FFFFFFD5     J   31563 31584  31613U 31617  31627U 32225  32227  32228  33218U 33388U 34012U
                                                 34434U 34836U 35123U 35317U
 NPWORD1       4 00000018 FFFFFFD5     F   31545 33223  33393  34017  34439  34841  35128  35322
 NPWORD2       4 0000001C FFFFFFD5     F   31546 33250  34488  34563  34568
 NPWORD3       4 00000020 FFFFFFD5     F   31547 33251  34489
 NPWORD4       4 00000024 FFFFFFD5     F   31548 33252  34490
 NPWORD5       4 00000028 FFFFFFD5     F   31549 33253  34491
 NPWORD6       4 0000002C FFFFFFD5     F   31550 33254  34492
 NPXPTRS       4 00000000 FFFFFFD5     F   31542 31704M 32035  32086  32105  32110  32131  33491  35350
 NPXRFEBCDIC
               0 00000000 FFFFFFDF        11289 11683
 NPXROPT       1 00000000 FFFFFFDF     R   11280 11289  11299  11369M
 NPXRWA        1 00000000 FFFFFFDF     J   11308 11329  11358U 11368M 11742  11744  11745
 NRDDONE       4 00000A42 00000001     I   11069 10714B 10841B 10955B 10991B 11048B
 NRDEXIT       2 00000AAA 00000001     H   11229 10702B
 NRDLOOP       2 00000990 00000001     H   10732 10870B 11016B
 NSCNCB      176 00000000 FFFFFFED     J    2463  2589
1NPAT     (NPAT2193) (12:50) (15MAR04) Ordinary Symbol and Literal Cross Reference                                          Page  157
 NSCNFLGS      1 00000008 FFFFFFED     R    2400  2404   2409
 NSCNTYPE      1 00000018 FFFFFFED     R    2418  2422   2427   2432   2437   2442
 NTKATTNC      1 00000001 FFFFFFDE     X   13866 14225M 14237  14244M 15901
 NTKFACT     128 00000000 FFFFFFDE        13842 14287M 14310  14931  15277  16399  17404
 NTKFATTN     64 00000000 FFFFFFDE        13847 17007M 17194
 NTKFL         1 00000110 FFFFFFDE     R   13883 13887  13892  13897  13902  13907
 NTKFLAG       1 00000000 FFFFFFDE     R   13838 13842  13847  13852  13857  13862
 NTKFL2        1 00000111 FFFFFFDE     R   13913 13917  13922
 NTKFNOWAIT
              16 00000000 FFFFFFDE        13857 14219M 14973  15158  16363  17368
 NTKFNPR      32 00000000 FFFFFFDE        13852 14193M 14415
 NTKFRSHD      8 00000000 FFFFFFDE        13862 14101M 15209  15259M
 NTKOLDA       4 00000004 FFFFFFDE     F   13868 14292M 14954
 NTKPUTCB    764 00000110 FFFFFFDE     X   13937 14400  14941  14948  15283  16405  17410
 NTKSAVE       4 00000008 FFFFFFDE     A   13870 14917M 14992
 NTKSTART      4 00000110 FFFFFFDE     F   13880 13937  13937
 NTKTRM       14 000000FF FFFFFFDE     C   13874 15306M 15639  15703  16420M 16956  16988  17425M 17920
 NTKWA      1036 00000000 FFFFFFDE     J   13944 13965  13994U 14042  14052U 14073  15024  15026  15027  15101U 16286U
                                                 17310U
 NTKWORKL    235 00000014 FFFFFFDE     C   13872 14325  14330  14390
 NTRCDISP      2 0000350C 00000001     H   26867 26806  26863
 NTRCEXIT      2 0000371C 00000001     H   27639 26936B 27067B
 NVWFL         1 00000118 FFFFFFDD     R   18068 18072  18077  18082  18087  18092
 NVWFLAG       1 00000000 FFFFFFDD     R   18029 18033  18038  18043  18048
 NVWFL2        1 00000119 FFFFFFDD     R   18098 18102  18107
 NVWFNOWAIT
              64 00000000 FFFFFFDD        18038 18283M 18608  18915
 NVWFPRESERVE
              32 00000000 FFFFFFDD        18043 19212M 19245M 23475  23800  23946M 23975M
 NVWFSECURE
              16 00000000 FFFFFFDD        18048 19077M 19366M 23639
 NVWOLDA       4 00000004 FFFFFFDD     F   18052 18298M 18593
 NVWPTRS       4 00000014 FFFFFFDD     A   18055 19028M 19296
 NVWPUTCB    764 00000118 FFFFFFDD     X   18122 18387  18580  18587  18942  20895
 NVWSAVE       4 00000008 FFFFFFDD     A   18054 18571M 18627
 NVWSTART      4 00000118 FFFFFFDD     F   18065 18122  18122
 NVWWA      1044 00000000 FFFFFFDD     J   18129 18150  18179U 18227  18237U 18258  18659  18661  18662  18736U 19847U
                                                 20412U 20886U 21741U 21896U 22052U 22208U 22465U 23168U 23455U
 NVWWORKL    235 0000001C FFFFFFDD     C   18057 18312  18317  18377
 NWTDONE       2 000031F4 00000001     H   26111 25952B
 PATHALLO      1 00000000 00000007     T   13747 13747
 PATHCLS       1 00000000 00000033     T   33932 33932
 PATHOPEN      1 00000000 00000008     T   13749 13749
 PATHREAD      1 00000000 00000031     T   33926 33926
 PATHWRIT      1 00000000 00000025     T   26800 26800
 PPOST         4 0000432E 00000001     I   31172 31147B
 PUTBYTES      1 00000000 00000015     T   17969 17969  19627  21661
 RAR          14 0000000E 00000001 A   #    1145  2129   2130M  2131B  2133M  2134B  2154M  2155B  2159M  2160B  2162M
                                                  2163B  2165M  2166B  2168M  2169B  2171M  2172M  2172B  2178   7742
                                                  7879M  7880M  7880B  7891M  7892M  7892B  7943M  7946B  7974   8098M
                                                  8099M  8099B  8230M  8231M  8231B  8237M  8238M  8238B  8244M  8245M
                                                  8245B  8270M  8271M  8271B  8285M  8286M  8286B  8330M  8331M  8331B
                                                  8348M  8349M  8349B  8459M  8462B  8487   8639M  8642B  8666   8813M
                                                  8816B  8843   9033M  9036B  9124   9385M  9386M  9386B  9434M  9435M
                                                  9435B  9508M  9509M  9509B  9535M  9536M  9536B  9553M  9554M  9554B
                                                  9595M  9596M  9596B  9612M  9613M  9613B  9638M  9639M  9639B  9655M
                                                  9656M  9656B  9681M  9682M  9682B  9698M  9699M  9699B  9724M  9725M
                                                  9725B  9768M  9769M  9769B  9790M  9791M  9791B  9811M  9812M  9812B
                                                  9845M  9846M  9846B  9878M  9879M  9879B  9899M  9900M  9900B  9920M
1NPAT     (NPAT2193) (12:50) (15MAR04) Ordinary Symbol and Literal Cross Reference                                          Page  158
                                                  9921M  9921B  9941M  9942M  9942B  9958M  9959M  9959B  9979M  9980M
                                                  9980B 10012M 10013M 10013B 10041M 10042M 10042B 10101M 10102M 10102B
                                                 10122M 10123M 10123B 10194M 10197B 10224  10303M 10304M 10304B 10448M
                                                 10449M 10449B 10475M 10476M 10476B 10499M 10500M 10500B 10542M 10545B
                                                 10572  10678M 10679M 10679B 11214M 11215M 11215B 11248M 11251B 11323
                                                 11455M 11456M 11456B 11744M 11747B 11772  11869M 11870M 11870B 11978M
                                                 11979M 11979B 12005M 12006M 12006B 12029M 12030M 12030B 12149M 12150M
                                                 12150B 12318M 12319M 12319B 12345M 12346M 12346B 12376M 12379B 12408
                                                 12585M 12586B 12637M 12645M 12653M 12663M 12679M 12680M 12680B 12688M
                                                 12697M 12817M 12818M 12818B 12846M 12847M 12847B 12866M 12929M 13041M
                                                 13042M 13042B 13070M 13071M 13071B 13126M 13127M 13127B 13155M 13156M
                                                 13156B 13171M 13205M 13213M 13285M 13286M 13286B 13311M 13312M 13312B
                                                 13430M 13431M 13431B 13464M 13465M 13465B 13551M 13579M 13580M 13580B
                                                 13603M 13606B 13632  13726M 13729B 13959  14268M 14269M 14269B 14333M
                                                 14334M 14334B 14379M 14380M 14380B 14398M 14399M 14399B 14403M 14404M
                                                 14404B 14464M 14465M 14465B 14493M 14494M 14494B 14507M 14508M 14508B
                                                 14532M 14533M 14533B 14631M 14632M 14632B 14677M 14678M 14678B 14729M
                                                 14730M 14730B 14761M 14762M 14762B 14786M 14787M 14787B 14820M 14854M
                                                 14888M 14944M 14945M 14945B 14951M 14952M 14952B 14957M 14958M 14958B
                                                 15026M 15029B 15053  15117M 15118M 15118B 15286M 15287M 15287B 15376M
                                                 15377M 15377B 15495M 15496M 15496B 15513M 15514M 15514B 15557M 15558M
                                                 15558B 15612M 15613M 15613B 15637M 15638M 15638B 15700M 15701M 15701B
                                                 15929M 15930M 15930B 15998M 15999M 15999B 16086M 16087M 16087B 16118M
                                                 16119M 16119B 16169M 16170M 16170B 16212M 16215B 16238  16303M 16304M
                                                 16304B 16408M 16409M 16409B 16532M 16533M 16533B 16571M 16572M 16572B
                                                 16589M 16590M 16590B 16686M 16687M 16687B 16793M 16794M 16794B 16832M
                                                 16833M 16833B 16850M 16851M 16851B 16894M 16895M 16895B 16928M 16929M
                                                 16929B 16953M 16954M 16954B 16978M 16979M 16979B 17072M 17073M 17073B
                                                 17095M 17096M 17096B 17146M 17147M 17147B 17170M 17171M 17171B 17240M
                                                 17243B 17262  17327M 17328M 17328B 17413M 17414M 17414B 17524M 17525M
                                                 17525B 17563M 17564M 17564B 17581M 17582M 17582B 17663M 17664M 17664B
                                                 17757M 17758M 17758B 17796M 17797M 17797B 17814M 17815M 17815B 17858M
                                                 17859M 17859B 17892M 17893M 17893B 17917M 17918M 17918B 17950M 17953B
                                                 18144  18296M 18297M 18297B 18320M 18321M 18321B 18366M 18367M 18367B
                                                 18385M 18386M 18386B 18390M 18391M 18391B 18474M 18475M 18475B 18501M
                                                 18502M 18502B 18529M 18530M 18530B 18554M 18555M 18555B 18569M 18583M
                                                 18584M 18584B 18590M 18591M 18591B 18596M 18597M 18597B 18661M 18664B
                                                 18688  18860M 18874M 18875M 18875B 18945M 18946M 18946B 18951M 18954M
                                                 19017M 19026M 19143M 19144M 19144B 19147M 19148M 19148B 19205M 19206M
                                                 19206B 19238M 19239M 19239B 19271M 19272M 19272B 19305M 19306M 19306B
                                                 19329M 19330M 19330B 19411M 19412M 19412B 19461M 19462M 19462B 19484M
                                                 19485M 19485B 19535M 19536M 19536B 19559M 19560M 19560B 19604M 19607B
                                                 19789  19877M 19878M 19878B 19899M 19900M 19900B 19906M 19907M 19907B
                                                 19934M 19935M 19935B 19956M 19957M 19957B 19963M 19964M 19964B 19991M
                                                 19992M 19992B 20013M 20014M 20014B 20020M 20021M 20021B 20048M 20049M
                                                 20049B 20077M 20078M 20078B 20084M 20085M 20085B 20112M 20113M 20113B
                                                 20116M 20138M 20139M 20139B 20145M 20146M 20146B 20173M 20174M 20174B
                                                 20192M 20224M 20227B 20354  20456M 20457M 20457B 20508M 20509M 20509B
                                                 20528M 20529M 20529B 20566M 20567M 20567B 20614M 20615M 20615B 20642M
                                                 20643M 20643B 20665M 20666M 20666B 20709M 20710M 20710B 20759M 20762B
                                                 20828  20898M 20899M 20899B 20927M 20928M 20928B 20961M 20962M 20962B
                                                 21140M 21141M 21141B 21169M 21170M 21170B 21197M 21198M 21198B 21222M
                                                 21223M 21223B 21250M 21251M 21251B 21300M 21301M 21301B 21323M 21324M
                                                 21324B 21346M 21347M 21347B 21442M 21443M 21443B 21484M 21485M 21485B
                                                 21506M 21507M 21507B 21534M 21535M 21535B 21578M 21579M 21579B 21649M
                                                 21652B 21693  21755M 21756M 21756B 21787M 21788M 21788B 21829M 21832B
                                                 21848  21910M 21911M 21911B 21943M 21944M 21944B 21985M 21988B 22004
                                                 22066M 22067M 22067B 22099M 22100M 22100B 22141M 22144B 22160  22280M
                                                 22283B 22407  22497M 22498M 22498B 22532M 22533M 22533B 22581M 22582M
1NPAT     (NPAT2193) (12:50) (15MAR04) Ordinary Symbol and Literal Cross Reference                                          Page  159
                                                 22582B 22614M 22615M 22615B 22669M 22670M 22670B 22697M 22698M 22698B
                                                 22737M 22738M 22738B 22757M 22758M 22758B 22774M 22775M 22775B 22817M
                                                 22818M 22818B 22834M 22835M 22835B 22855M 22856M 22856B 22891M 22892M
                                                 22892B 22912M 22913M 22913B 22936M 22937M 22937B 22960M 22961M 22961B
                                                 22977M 22978M 22978B 22987M 22988M 22988B 23007M 23008M 23008B 23035M
                                                 23036M 23036B 23069M 23072B 23110  23192M 23193M 23193B 23200M 23201M
                                                 23201B 23215M 23216M 23216B 23247M 23248M 23248B 23287M 23288M 23288B
                                                 23309M 23310M 23310B 23337M 23338M 23338B 23375M 23378B 23407  23502M
                                                 23503M 23503B 23509M 23510M 23510B 23537M 23538M 23538B 23562M 23563M
                                                 23563B 23580M 23581M 23581B 23599M 23600M 23600B 23627M 23628M 23628B
                                                 23661M 23662M 23662B 23689M 23690M 23690B 23724M 23725M 23725B 23757M
                                                 23758M 23758B 23784M 23785M 23785B 23858M 23859M 23859B 23922M 23923M
                                                 23923B 24000M 24001M 24001B 24004M 24036M 24039B 24110  24375M 24376M
                                                 24376B 24614M 24615M 24615B 24704M 24707B 24750  25101M 25102M 25102B
                                                 25114M 25115M 25115B 25209M 25210M 25210B 25251M 25252M 25252B 25379M
                                                 25380M 25380B 25460M 25461M 25461B 25516M 25517M 25517B 25542M 25543M
                                                 25543B 25568M 25569M 25569B 25678M 25681B 25710  25950M 25951M 25951B
                                                 26198M 26201B 26229  26443M 26504M 26507B 26526  26679M 26682B 26701
                                                 26732M 26733M 26733B 26736M 26737M 26737B 26754M 26757B 26874  26958M
                                                 26959M 26959B 26976M 26977M 26977B 27001M 27002M 27002B 27079M 27080M
                                                 27080B 27103M 27104M 27104B 27121M 27122M 27122B 27145M 27146M 27146B
                                                 27175M 27176M 27176B 27205M 27206M 27206B 27223M 27224M 27224B 27253M
                                                 27254M 27254B 27330M 27331M 27331B 27390M 27391M 27391B 27417M 27418M
                                                 27418B 27439M 27440M 27440B 27457M 27458M 27458B 27561M 27562M 27562B
                                                 27593M 27594M 27594B 27623M 27624M 27624B 27658M 27661B 27682  27746M
                                                 27747M 27747B 27764M 27765M 27765B 27789M 27790M 27790B 27807M 27808M
                                                 27808B 27829M 27830M 27830B 27847M 27848M 27848B 27875M 27876M 27876B
                                                 27893M 27894M 27894B 27921M 27922M 27922B 27940M 27941M 27941B 27962M
                                                 27963M 27963B 27987M 27988M 27988B 28006M 28007M 28007B 28031M 28032M
                                                 28032B 28049M 28050M 28050B 28074M 28075M 28075B 28108M 28109M 28109B
                                                 28133M 28134M 28134B 28162M 28163M 28163B 28197M 28198M 28198B 28222M
                                                 28223M 28223B 28247M 28248M 28248B 28286M 28287M 28287B 28308M 28309M
                                                 28309B 28333M 28334M 28334B 28356M 28357M 28357B 28380M 28381M 28381B
                                                 28405M 28406M 28406B 28440M 28441M 28441B 28470M 28471M 28471B 28495M
                                                 28496M 28496B 28534M 28535M 28535B 28556M 28557M 28557B 28581M 28582M
                                                 28582B 28622M 28623M 28623B 28647M 28648M 28648B 28672M 28673M 28673B
                                                 28695M 28696M 28696B 28725M 28726M 28726B 28750M 28751M 28751B 28769M
                                                 28770M 28770B 28799M 28800M 28800B 28824M 28825M 28825B 28845M 28846M
                                                 28846B 29168M 29169M 29169B 29203M 29204M 29204B 29241M 29242M 29242B
                                                 29279M 29280M 29280B 29317M 29318M 29318B 29355M 29356M 29356B 29393M
                                                 29394M 29394B 29423M 29424M 29424B 29444M 29445M 29445B 29471M 29472M
                                                 29472B 29489M 29490M 29490B 29516M 29517M 29517B 29534M 29535M 29535B
                                                 29561M 29562M 29562B 29579M 29580M 29580B 29606M 29607M 29607B 29624M
                                                 29625M 29625B 29646M 29647M 29647B 29671M 29672M 29672B 29690M 29691M
                                                 29691B 29717M 29718M 29718B 29735M 29736M 29736B 29762M 29763M 29763B
                                                 29780M 29781M 29781B 29807M 29808M 29808B 29825M 29826M 29826B 29852M
                                                 29853M 29853B 29870M 29871M 29871B 29892M 29893M 29893B 29917M 29918M
                                                 29918B 29952M 29953M 29953B 29974M 29975M 29975B 29993M 29994M 29994B
                                                 30018M 30019M 30019B 30036M 30037M 30037B 30061M 30062M 30062B 30086M
                                                 30087M 30087B 30153M 30154M 30154B 30173M 30174M 30174B 30209M 30210M
                                                 30210B 30246M 30247M 30247B 30271M 30272M 30272B 30309M 30310M 30310B
                                                 30358M 30359M 30359B 30410M 30411M 30411B 30437M 30440B 30543  30611M
                                                 30612M 30612B 30635M 30636M 30636B 30706M 30707M 30707B 30736M 30737M
                                                 30737B 30757M 30758M 30758B 30782M 30783M 30783B 30809M 30812B 30848
                                                 30897M 30920M 30941M 30944B 30980  31029M 31052M 31249M 31250M 31250B
                                                 31300M 31301M 31301B 31371M 31372M 31372B 31460M 31461M 31461B 31521M
                                                 31524B 31578  31685M 31686M 31686B 31789M 31838M 31871M 31904M 31937M
                                                 31970M 32003M 32043M 32044M 32044B 32079M 32080M 32080B 32090M 32091M
                                                 32091B 32139M 32140M 32140B 32180M 32181M 32181B 32227M 32230B 32276
1NPAT     (NPAT2193) (12:50) (15MAR04) Ordinary Symbol and Literal Cross Reference                                          Page  160
                                                 32398M 32399M 32399B 32424M 32425M 32425B 32484M 32485M 32485B 32564M
                                                 32565M 32565B 32591M 32592M 32592B 32615M 32616M 32616B 32665M 32666M
                                                 32666B 32692M 32693M 32693B 32716M 32717M 32717B 32879M 32882B 32911
                                                 33158M 33161B 33180  33225M 33245M 33246M 33246B 33327M 33330B 33350
                                                 33395M 33445M 33446M 33446B 33520M 33521M 33521B 33602M 33603M 33603B
                                                 33761M 33762M 33762B 33788M 33789M 33789B 33812M 33813M 33813B 33903M
                                                 33906B 33974  34019M 34039M 34040M 34040B 34078M 34106M 34109B 34128
                                                 34277M 34278M 34278B 34309M 34310M 34310B 34335M 34336M 34336B 34352M
                                                 34353M 34353B 34376M 34379B 34396  34441M 34461M 34462M 34462B 34552M
                                                 34553M 34553B 34579M 34580M 34580B 34596M 34597M 34597B 34616M 34617M
                                                 34617B 34633M 34634M 34634B 34660M 34661M 34661B 34677M 34678M 34678B
                                                 34704M 34705M 34705B 34735M 34736M 34736B 34776M 34779B 34798  34843M
                                                 34863M 34864M 34864B 35065M 35068B 35085  35130M 35150M 35151M 35151B
                                                 35228M 35229M 35229B 35260M 35263B 35279  35324M 35344M 35345M 35345B
                                                 35549M 35550M 35550B 35581M 35584B 35607  35684M 35687B 35711  35786M
                                                 35787M 35787B 35861M 35862M 35862B 36022M 36054M 36057B 36080  36210M
                                                 36213B 36238  36600M 36603B
 RDATEXIT      2 00000D66 00000001     H   12357 12177B 12261B 12290B 12332B
 RDATLOOP      2 00000C06 00000001     H   11820 12162B 12337B
 RDTDONE       4 00000BAC 00000001     I   11664 11488B
 RDTEXIT       2 00000BDC 00000001     H   11720 11482B
 RDTLOOP       2 00000B0E 00000001     H   11425 11567B
 READDATA      2 00000BEA 00000001     H   11766 13757  17974  19633
 RTRIM         1 00000000 0000000D     T   13755 13755  19644
 R0            0 00000000 FFFFFFFF A   #     699  2114   2183M  8003   8045M  8248M  8274M  8308M  8345M  8409M  8440M
                                                  8551   8578   8730   8757   8885M  8885   8899   8908M  8920   8966
                                                  8995M  9206   9235M  9281M  9356M  9382M  9451   9497M  9524M  9542M
                                                  9584M  9584   9601M  9627M  9627   9644M  9670M  9670   9687M  9713M
                                                  9713   9757M  9779M  9800M  9800   9834M  9867M  9888M  9888   9909M
                                                  9930M  9930   9947M  9968M  9968  10001M 10030M 10030  10053M 10070M
                                                 10119M 10134M 10134  10161M 10288  10437M 10464M 10488M 10488  10516M
                                                 10636  10720  11082M 11108  11109  11109  11109  11124  11132M 11139
                                                 11181M 11369  11406  11526  11548M 11566M 11573  11711M 11967M 11994M
                                                 12018M 12018  12129M 12159M 12159  12259M 12288M 12313M 12351M 12453
                                                 12600M 12602  12602M 12668M 12806M 12835M 13030M 13059M 13115M 13144M
                                                 13274M 13308M 13323M 13323  13355M 13375M 13399M 13453M 13568M 13568
                                                 13701M 13704M 13777  13777  13777  14033  14057  14074M 14074  14075M
                                                 14330M 14347  14354  14372M 14373  14375M 14376  14395M 14521M 14521
                                                 14620M 14666M 14718M 14750M 14775M 14775  14908  14940M 14947M 15176M
                                                 15176  15197M 15197  15247M 15330M 15330  15397  15456M 15457M 15502M
                                                 15626M 15626  15693M 15693  15784M 15798M 15798  15818  15842M 15918M
                                                 15918  15942M 15987M 16007M 16027M 16158M 16158  16381M 16381  16430M
                                                 16430  16455  16527M 16528M 16578M 16716  16788M 16789M 16839M 16942M
                                                 16942  16971M 17057M 17057  17100M 17120M 17159M 17159  17204M 17386M
                                                 17386  17435M 17435  17460  17519M 17520M 17570M 17693  17752M 17753M
                                                 17803M 17906M 17906  18218  18242  18259M 18259  18260M 18317M 18334
                                                 18341  18359M 18360  18362M 18363  18382M 18463M 18490M 18518M 18543M
                                                 18543  18579M 18586M 18933M 18933  19028  19122M 19296M 19408M 19489M
                                                 19509M 19548M 19548  19866M 19882M 19883M 19923M 19939M 19940M 19980M
                                                 19996M 19997M 20037M 20067M 20101M 20128M 20162M 20498M 20525M 20531M
                                                 20551  20552  20552  20552  20558M 20570M 20573  20781  20781  20781
                                                 20894M 20920M 20993M 20993  20998  21159M 21186M 21211M 21211  21239M
                                                 21336M 21368M 21375  21390M 21390  21411M 21473M 21495M 21495  21523M
                                                 21562M 21587M 21748M 21797  21903M 21957  22059M 22113  22486M 22521M
                                                 22570M 22603M 22658M 22686M 22726M 22746M 22746  22763M 22806M 22823M
                                                 22844M 22844  22880M 22901M 22919M 22920M 22949M 22966M 22990M 22991M
                                                 23024M 23175M 23176M 23212M 23236M 23276M 23298M 23298  23326M 23492M
                                                 23526M 23539M 23541M 23547  23551M 23551  23569M 23589M 23616M 23650M
                                                 23678M 23713M 23746M 23781M 23847M 23847  23915M 23915  24172  24372M
1NPAT     (NPAT2193) (12:50) (15MAR04) Ordinary Symbol and Literal Cross Reference                                          Page  161
                                                 24409  24590M 24623  24650M 24650  24670M 24671M 24829  24881M 24881
                                                 24918  24927  24936  24954M 24955M 24956M 24971M 24983M 24983  24989
                                                 25030M 25048M 25050  25050M 25090M 25224M 25224  25374M 25431M 25431
                                                 25471M 25471  25472  25524M 25583M 25585  25585M 25789  25863  25892
                                                 25914M 25914  25921  25972  26048  26117M 26141M 26166M 26364  26392
                                                 26935M 26947M 26965M 26990M 26990  27066M 27073M 27110M 27134M 27164M
                                                 27194M 27212M 27242M 27259M 27279M 27303M 27345M 27346  27359  27379M
                                                 27392M 27394M 27395  27406M 27428M 27428  27446M 27460M 27612M 27612
                                                 27735M 27735  27753M 27778M 27796M 27818M 27818  27836M 27864M 27882M
                                                 27910M 27929M 27951M 27951  27976M 27976  27995M 28020M 28038M 28063M
                                                 28097M 28122M 28151M 28151  28186M 28211M 28236M 28236  28275M 28297M
                                                 28297  28322M 28322  28345M 28369M 28394M 28394  28429M 28459M 28484M
                                                 28484  28523M 28545M 28545  28570M 28570  28611M 28636M 28661M 28661
                                                 28684M 28714M 28739M 28739  28758M 28788M 28813M 28813  28834M 28850M
                                                 28871M 28898M 28925M 28952M 28979M 29006M 29033M 29060M 29087M 29114M
                                                 29141M 29192M 29230M 29268M 29306M 29344M 29382M 29412M 29412  29433M
                                                 29460M 29460  29478M 29505M 29505  29523M 29550M 29550  29568M 29595M
                                                 29595  29613M 29635M 29635  29660M 29660  29679M 29706M 29706  29724M
                                                 29751M 29751  29769M 29796M 29796  29814M 29841M 29841  29859M 29881M
                                                 29881  29906M 29906  29941M 29963M 29963  29982M 30007M 30025M 30050M
                                                 30075M 30075  30142M 30142  30169M 30198M 30198  30235M 30260M 30260
                                                 30304M 30305M 30306  30353M 30354M 30355  30399M 30399  30605M 30659M
                                                 30679M 30725M 30746M 30746  30771M 30771  31121  31245M 31297M 31456M
                                                 31704  31706  32035M 32086M 32087  32110M 32111M 32112M 32131M 32145
                                                 32358  32456  32553M 32580M 32604M 32604  32654M 32681M 32705M 32705
                                                 32816  32847M 33517M 33564M 33565M 33566M 33598M 33750M 33777M 33801M
                                                 33801  34066  34209  34251  34541M 34568M 34585M 34605M 34605  34622M
                                                 34649M 34666M 34693M 34724M 34724  35410  35660  35821  35823M 35863
                                                 35980M 35981M 35982M 36125  36128M 36129M 36130  36294  36398  36485
                                                 36541  36553M 36554M
 R1            1 00000001 FFFFFFFF A   #     712  2177M  2178M  2184M  7875M  8044M  8101   8232   8239   8246   8247M
                                                  8305   8306   8306   8306   8307M  8334M  8344M  8408M  8439M  8907M
                                                  8927M  8928M  8928   8940U  8994M  9063   9063   9063   9234M  9280M
                                                  9355M  9388   9430M  9430   9490M  9519M  9541M  9579M  9600M  9622M
                                                  9643M  9665M  9686M  9708M  9752M  9778M  9796M  9833M  9866M  9884M
                                                  9908M  9926M  9946M  9964M 10000M 10075M 10093M 10114M 10160M 10297
                                                 10389M 10412M 10459M 10515M 10721  11077M 11108  11109  11109  11109
                                                 11131M 11181M 11547M 11565M 11574  11704M 11828M 11829M 11829  11851U
                                                 11960M 11989M 12124M 12258M 12287M 12314M 12350M 12452  12495M 12519
                                                 12598M 12598  12599  12667M 12799M 12828M 13023M 13052M 13108M 13137M
                                                 13267M 13303M 13350M 13374M 13398M 13446M 13703M 13777  13777  13777
                                                 14058  14325M 14353  14376M 14390M 14613M 14659M 14711M 14743M 14917
                                                 14939M 14992M 15174M 15174  15248M 15396  15415M 15457  15501M 15783M
                                                 15817  15835M 15941M 15986M 16006M 16026M 16379M 16379  16454  16473M
                                                 16528  16577M 16715  16734M 16789  16838M 16970M 17099M 17119M 17203M
                                                 17384M 17384  17459  17478M 17520  17569M 17692  17711M 17753  17802M
                                                 18243  18312M 18340  18363M 18377M 18456M 18483M 18511M 18571  18578M
                                                 18627M 18931M 18931  19028  19121M 19296M 19401M 19488M 19508M 19861M
                                                 19896M 19918M 19953M 19975M 20010M 20032M 20074M 20096M 20135M 20157M
                                                 20505M 20518M 20530M 20551  20552  20552  20552  20563M 20570M 20781
                                                 20781  20781  20924M 20924  21137M 21166M 21181M 21207M 21234M 21343M
                                                 21364M 21374  21468M 21491M 21518M 21566M 21566  21752M 21752  21907M
                                                 21907  22063M 22063  22481M 22520M 22569M 22602M 22657M 22681M 22725M
                                                 22742M 22762M 22822M 22840M 22879M 22900M 22942M 22965M 23004M 23019M
                                                 23189M 23211M 23231M 23271M 23294M 23321M 23499M 23521M 23547M 23568M
                                                 23596M 23611M 23649M 23673M 23712M 23741M 23776M 24171  24217M 24237M
                                                 24239  24367M 24594M 24594  24652M 24652  24669M 24671  24966M 25029M
                                                 25043M 25050  25089M 25375M 25432M 25452M 25471M 25523M 25901  26116M
                                                 26140M 26165M 26934M 26946M 26964M 27065M 27073M 27109M 27127M 27157M
1NPAT     (NPAT2193) (12:50) (15MAR04) Ordinary Symbol and Literal Cross Reference                                          Page  162
                                                 27187M 27211M 27235M 27258M 27278M 27302M 27341M 27346  27392M 27393M
                                                 27395  27405M 27424M 27445M 27460M 27461  27731M 27752M 27771M 27795M
                                                 27814M 27835M 27859M 27881M 27905M 27928M 27947M 27994M 28013M 28037M
                                                 28056M 28096M 28115M 28185M 28204M 28274M 28293M 28344M 28362M 28428M
                                                 28452M 28522M 28541M 28610M 28629M 28683M 28706M 28757M 28780M 28833M
                                                 28849M 28870M 28897M 28924M 28951M 28978M 29005M 29032M 29059M 29086M
                                                 29113M 29140M 29191M 29229M 29267M 29305M 29343M 29381M 29432M 29455M
                                                 29477M 29500M 29522M 29545M 29567M 29590M 29612M 29631M 29678M 29701M
                                                 29723M 29746M 29768M 29791M 29813M 29836M 29858M 29877M 29940M 29959M
                                                 29981M 30000M 30024M 30043M 30164M 30234M 30605M 30658M 30678M 30718M
                                                 30742M 31239M 31450M 31704  32035M 32062M 32063M 32063  32092  32131M
                                                 32546M 32575M 32647M 32676M 32846M 33522  33593M 33743M 33772M 34261M
                                                 34262M 34262  34293M 34294M 34294  34319M 34320M 34320  34348M 34534M
                                                 34563M 34584M 34601M 34621M 34644M 34665M 34688M 35820  35836  35863
                                                 36020M 36020  36124  36267  36552M
 R12          12 0000000C FFFFFFFF A   #     855  2140
 R14          14 0000000E FFFFFFFF A   #     881  2115M  8301M  8305   8306   8306   8306   8307   8334M  8552M  8579M
                                                  8731M  8758M  8967M  9063   9063   9063   9207M  9452M 10289M 10637M
                                                 11407M 13700M 13704M 14034M 14066M 14073M 14075M 14909M 18219M 18251M
                                                 18258M 18260M 24830M 24928M 24942M 24947M 24955  24956M 25790M 25864M
                                                 25893M 25971M 26049M 26365M 26393M 31122M 32100M 32105M 32111  32112M
                                                 32146M 32359M 32457M 32817M 33552M 33557M 33565  33566M 34067M 34210M
                                                 34252M 35411M 35661M 35970M 35975M 35981  35982M 36295M 36399M 36486M
                                                 36542M
 R15          15 0000000F FFFFFFFF A   #     894  2114   7876M  7888M  7926M  7926   7945M  7945   8046M  8095M  8192M
                                                  8193M  8194   8196M  8197   8207U  8227M  8234M  8241M  8267M  8282M
                                                  8288M  8289   8327M  8413M  8413   8441M  8461M  8461   8516   8551
                                                  8578   8617M  8617   8641M  8641   8695   8730   8757   8791M  8791
                                                  8815M  8815   8909M  8966   8996M  9016M  9016   9035M  9035   9171
                                                  9206   9236M  9282M  9357M  9431M  9451   9505M  9532M  9550M  9592M
                                                  9609M  9635M  9652M  9678M  9695M  9721M  9765M  9787M  9808M  9842M
                                                  9875M  9896M  9917M  9938M  9955M  9976M 10009M 10038M 10098M 10105M
                                                 10157M 10157  10196M 10196  10253  10288  10445M 10472M 10496M 10520M
                                                 10520  10544M 10544  10601  10636  10675M 10847M 10848M 11139M 11149M
                                                 11149  11157M 11159  11194M 11195M 11195  11224M 11224  11250M 11250
                                                 11371  11406  11452M 11549M 11582M 11586  11588M 11590  11595M 11604M
                                                 11604  11611  11632M 11633  11634  11635  11636  11669M 11715M 11715
                                                 11746M 11746  11801  11872M 11873M 11874  11975M 12002M 12026M 12146M
                                                 12176M 12176  12260M 12289M 12315M 12331M 12352M 12378M 12378  12437
                                                 12475M 12478  12490M 12495  12502M 12504  12635M 12643M 12651M 12661M
                                                 12676M 12686M 12695M 12814M 12843M 12864M 12927M 13038M 13067M 13123M
                                                 13152M 13169M 13203M 13211M 13282M 13427M 13461M 13480M 13518M 13545M
                                                 13576M 13605M 13605  13671  13698  13701  13702M 13728M 13728  13998
                                                 14033  14254M 14292  14316M 14400M 14490M 14504M 14529M 14628M 14674M
                                                 14726M 14758M 14783M 14908  14917  14941M 14948M 14954M 14992M 15028M
                                                 15028  15114M 15165M 15283M 15373M 15492M 15510M 15554M 15609M 15634M
                                                 15697M 15697  15712M 15712  15736  15926M 15943M 15995M 16083M 16115M
                                                 16166M 16214M 16214  16300M 16370M 16405M 16568M 16586M 16683M 16829M
                                                 16847M 16891M 16925M 16950M 16975M 16975  16989M 16989  17092M 17143M
                                                 17167M 17205M 17242M 17242  17324M 17375M 17410M 17560M 17578M 17660M
                                                 17793M 17811M 17855M 17889M 17914M 17952M 17952  18183  18218  18293M
                                                 18298  18303M 18387M 18471M 18498M 18526M 18551M 18571  18580M 18587M
                                                 18593M 18627M 18663M 18663  18761M 18762M 18762  18775M 18782  18794M
                                                 18799  18800M 18801  18805M 18806M 18806  18819M 18826  18838M 18843
                                                 18871M 18922M 18942M 19038M 19038  19093M 19093  19110  19135  19168
                                                 19174M 19197  19230  19263  19290  19326M 19355  19375  19387M 19392M
                                                 19401  19481M 19532M 19556M 19606M 19606  19874M 19903M 19931M 19960M
                                                 19988M 20017M 20045M 20081M 20109M 20142M 20170M 20226M 20226  20453M
                                                 20481M 20544M 20544  20611M 20639M 20662M 20706M 20761M 20761  20895M
1NPAT     (NPAT2193) (12:50) (15MAR04) Ordinary Symbol and Literal Cross Reference                                          Page  163
                                                 20983M 20983  21136M 21194M 21199M 21200M 21201M 21207  21219M 21247M
                                                 21297M 21320M 21374M 21375M 21377M 21413M 21439M 21481M 21503M 21531M
                                                 21651M 21651  21831M 21831  21987M 21987  22143M 22143  22215M 22216M
                                                 22216  22229M 22234  22282M 22282  22494M 22529M 22578M 22611M 22666M
                                                 22694M 22734M 22754M 22771M 22814M 22831M 22852M 22888M 22909M 22933M
                                                 22957M 22974M 22984M 23032M 23071M 23071  23197M 23244M 23284M 23306M
                                                 23334M 23377M 23377  23506M 23534M 23559M 23577M 23624M 23658M 23686M
                                                 23721M 23754M 23769M 23769  23855M 23919M 23919  23963  23991M 23991
                                                 23997M 24038M 24038  24193M 24196  24208M 24217  24220M 24222  24396
                                                 24400M 24401M 24402  24677M 24706M 24706  24780  24829  24927  24989M
                                                 24992  25004M 25011M 25013  25098M 25111M 25171M 25172M 25172  25301M
                                                 25312  25325U 25371M 25372M 25373  25376M 25457M 25539M 25565M 25579M
                                                 25580M 25581  25644M 25644  25680M 25680  25739  25789  25798M 25823
                                                 25863  25892  25905M 25920M 25921M 25926  25972  25973M 25974B 26048
                                                 26073M 26082  26113M 26113  26137M 26162M 26200M 26200  26364  26392
                                                 26441M 26444M 26481M 26481  26506M 26506  26629M 26638  26657M 26657
                                                 26681M 26681  26756M 26756  26955M 26973M 26998M 27075M 27100M 27118M
                                                 27142M 27172M 27202M 27220M 27250M 27327M 27387M 27414M 27436M 27454M
                                                 27461M 27462M 27558M 27590M 27620M 27660M 27660  27711  27743M 27761M
                                                 27786M 27804M 27826M 27844M 27872M 27890M 27918M 27937M 27959M 27984M
                                                 28003M 28028M 28046M 28071M 28105M 28130M 28159M 28194M 28219M 28244M
                                                 28283M 28305M 28330M 28353M 28377M 28402M 28437M 28467M 28492M 28531M
                                                 28553M 28578M 28619M 28644M 28669M 28692M 28722M 28747M 28766M 28796M
                                                 28821M 28842M 29165M 29200M 29238M 29276M 29314M 29352M 29390M 29420M
                                                 29441M 29468M 29486M 29513M 29531M 29558M 29576M 29603M 29621M 29643M
                                                 29668M 29687M 29714M 29732M 29759M 29777M 29804M 29822M 29849M 29867M
                                                 29889M 29914M 29949M 29971M 29990M 30015M 30033M 30058M 30083M 30150M
                                                 30170M 30206M 30243M 30268M 30303M 30306M 30352M 30355M 30407M 30439M
                                                 30439  30572  30607M 30632M 30703M 30733M 30754M 30779M 30811M 30811
                                                 30882M 30883M 30883  30905M 30906M 30906  30943M 30943  31014M 31015M
                                                 31015  31037M 31038M 31038  31121  31204M 31205M 31205  31230M 31231
                                                 31246M 31359M 31360M 31360  31414M 31415M 31415  31441M 31442  31457M
                                                 31475M 31484  31523M 31523  31632  31682M 31706M 31709  31721M 31729M
                                                 31738M 31738  31745  32040M 32040  32049M 32050M 32051  32136M 32136
                                                 32145  32177M 32229M 32229  32323  32358  32370M 32370  32387M 32392
                                                 32421M 32456  32481M 32561M 32588M 32612M 32662M 32689M 32713M 32816
                                                 32826M 32827M 32828  32851M 32851  32881M 32881  32940  33073M 33085
                                                 33114  33136M 33136  33160M 33160  33223M 33226  33242M 33329M 33329
                                                 33393M 33396  33431M 33432M 33433  33442M 33611M 33612M 33612  33642
                                                 33649M 33650M 33651  33758M 33785M 33809M 33905M 33905  34017M 34020
                                                 34036M 34066  34076M 34108M 34108  34157  34209  34251  34274M 34306M
                                                 34332M 34349M 34378M 34378  34439M 34442  34458M 34549M 34576M 34593M
                                                 34613M 34630M 34657M 34674M 34701M 34732M 34778M 34778  34841M 34844
                                                 34860M 35067M 35067  35128M 35131  35147M 35212M 35213M 35213  35262M
                                                 35262  35322M 35325  35341M 35410  35533M 35534M 35534  35583M 35583
                                                 35636  35643M 35644M 35644  35660  35686M 35686  35750U 35762M 35762
                                                 35782  35783  35783  35783  35790M 35818  35991M 35992M 35993  36056M
                                                 36056  36109  36127M 36130M 36141U 36157M 36158M 36158  36170  36180M
                                                 36180  36185  36212M 36212  36277M 36278M 36278  36294  36318U 36352
                                                 36368  36378  36381M 36382M 36382  36398  36485  36541  36568M 36569M
                                                 36570  36582M 36583M 36583  36602M 36602  36635  36635  36635
 R2            2 00000002 FFFFFFFF A   #     725  7771M  7786   7908M  7977   8057M  8072   8130   8337M  8428M  8457M
                                                  8846   8920M  8922M  8923M  8924M  9031M  9127  10192M 10227  10540M
                                                 10575  10648M 10648  10699M 10699  10819M 10838  10847  11013M 11013
                                                 11028M 11045  11082  11084M 11101M 11211M 11246M 11326  11417M 11479
                                                 11586  11588  11636M 11665  11689M 11742M 11775  11857M 11873  12374M
                                                 12499M 12499  12549M 12549  12560M 12562M 12578M 12578  12584M 12585
                                                 12727M 12741  12780  12895M 12909  12958M 12972  13004  13200M 13234M
                                                 13248  13481M 13498  13521M 13538  13962  14057M 14254  14353M 14354M
1NPAT     (NPAT2193) (12:50) (15MAR04) Ordinary Symbol and Literal Cross Reference                                          Page  164
                                                 14355M 14373M 14395  15024M 15056  15745M 15755U 16210M 16241  17008M
                                                 17018U 17238M 17265  17948M 18147  18242M 18293  18340M 18341M 18342M
                                                 18360M 18382  18659M 18691  19053M 19054M 19054  19060  19602M 20459M
                                                 20483  20484  20484  20484  20485M 20530  20534M 20563  20572  20573M
                                                 20574M 20780  20780  20780  21348M 21372M 21372  21409M 21452M 21452
                                                 21491  23207M 23231  23410  23484M 23485M 23492  23589  24034M 24113
                                                 24216M 24216  24249M 24249  24377M 24389  24395M 24396  24702M 24972M
                                                 25206M 25513M 25538M 25538  25713  25987M 26081  26196M 26579M 26637
                                                 30276M 30303  30352  32036M 32132M 32279  32877M 32986M 32987M 32987
                                                 33002U 33241M 33441M 33491M 33493M 33509M 33509  33544  33557  33598
                                                 33599M 34035M 34174M 34186M 34186  34200  34218M 34219M 34220M 34457M
                                                 34859M 35146M 35340M 35350M 35352M 35368M 35368  35384  35462M 35471M
                                                 35471  35478  35636M 35638M 35639M 35640M 35782  35783  35783  35783
                                                 35790M 35876  35904  36146  36635  36635  36635
 R3            3 00000003 FFFFFFFF A   #     738  7772M  7907M  8058M  8340M  8369M  8369   8427M 10649M 10818M 11027M
                                                 11415M 11416M 11635M 12519M 12520M 12522  12523  13482M 13519M 14058M
                                                 15397M 15409M 15409  15428M 15428  15449M 15467M 15467  15517M 15818M
                                                 16123M 16132M 16132  16455M 16467M 16467  16486M 16486  16520M 16543M
                                                 16543  16593M 16605M 16605  16642M 16716M 16728M 16728  16747M 16747
                                                 16782M 16804M 16804  16854M 17460M 17472M 17472  17491M 17491  17512M
                                                 17535M 17535  17585M 17597M 17597  17619M 17693M 17705M 17705  17724M
                                                 17724  17746M 17768M 17768  17818M 18243M 20460M 20483  20484  20484
                                                 20484  20486M 20531  20534M 20720M 20780  20780  20780  20940M 20942M
                                                 20953M 20953  20964M 21117M 21130  21159  21200  21336  21548M 21561M
                                                 21561  21588M 21595  21604M 21604  21768M 21779M 21779  21790M 21923M
                                                 21924M 21935M 21935  21946M 22079M 22080M 22091M 22091  22102M 23208M
                                                 23220  23222M 23236  23249  24589M 24606  24616M 25472M 25583  25980M
                                                 25987  26005U 26011M 26012M 26012  26081M 26275M 26290  26471M 26572M
                                                 26579  26589U 26595M 26596M 26596  26637M 30277M 30286M 30286  30293M
                                                 30298M 30299  30304  30319M 30319  30326M 30331M 30346  30353  30368M
                                                 30368  30375M 30380M 32955M 32971  33064M 33491M 33492M 35350M 35351M
                                                 35821M 35962  35975  36125M 36147
 R4            4 00000004 FFFFFFFF A   #     751  7801M  7802M  7802   7817U  8101M  8111U  8129   9292M  9292   9311M
                                                  9334M  9347M  9347  10659M 10669M 10669  10711M 10711  10720M 10740M
                                                 10740  10771M 10905M 10905  10926M 11060  11069  11419M 11438M 11438
                                                 11573M 11582  11634M 11658  11664M 11665M 12453M 12469M 12469  12475
                                                 12523M 12713M 12713  12881M 12881  12944M 12944  13186M 13186  13481
                                                 13671  13681M 13681  13698M 13702  13703  15396M 15415  15450M 15456
                                                 15515M 15817M 16121M 16454M 16473  16521M 16527  16591M 16640M 16715M
                                                 16734  16780M 16788  16852M 17459M 17478  17513M 17519  17583M 17617M
                                                 17692M 17711  17744M 17752  17816M 20461M 20475  20481  20587  20721M
                                                 21118M 21130  23203M 23205M 23220  23222  23249M 23294  24172M 24184M
                                                 24184  24193  24239M 24277M 24313M 24348M 24372  24409M 24411M 24555M
                                                 24569  24583  24606  24936M 24947  24971  25048  26276M 26470M 30093M
                                                 30109U 30123M 30124M 30124  31081M 31483  32766M 32767M 32767  32791U
                                                 32956M 33063M 33522M 33532U 33625  33642  33647  35820M 35980  36124M
                                                 36148
 R5            5 00000005 FFFFFFFF A   #     764  8003M  8015M  8015   8152M  8152   8587M  8588   8598U  9369M  9370M
                                                  9370   9388M  9398U  9460   9471  10297M 10659M 10713M 10713  10721M
                                                 10769M 10924M 11060  11069  11419M 11574M 11633M 11658  11667M 11669
                                                 12056M 12057M 12057  12078U 12114  12452M 12520  12522M 12599M 12600
                                                 13482  13700  14042M 14052U 15101U 16286U 17310U 18227M 18237U 18736U
                                                 19847U 20412U 20886U 20903M 20904M 20904  20998M 21011  21018M 21061
                                                 21113  21136  21545M 21546M 21562  21741U 21896U 22052U 22208U 22465U
                                                 23168U 23455U 24171M 24174  24237  24238M 24238  24275M 24312M 24346M
                                                 24367  24408M 24670  24780M 24790U 25739M 25749U 25961  26305M 26306M
                                                 26306  26321U 26455  27711M 27721U 30572M 30582U 31061M 31077U 31081
                                                 31084M 31085M 31085  31483M 31617M 31627U 32738M 32739M 32739  32760U
                                                 33218U 33388U 34012U 34434U 34836U 35123U 35317U 35836M 35846U 35986
1NPAT     (NPAT2193) (12:50) (15MAR04) Ordinary Symbol and Literal Cross Reference                                          Page  165
                                                 36274M 36274  36378M 36428M 36428  36460U
 R6            6 00000006 FFFFFFFF A   #     777  8516M  8526U  8695M  8705U  9171M  9181U 10253M 10263U 10601M 10611U
                                                 11371M 11381U 11801M 11811U 12437M 12447U 13998M 14008U 15091U 16276U
                                                 17300U 18183M 18193U 18726U 19837U 20402U 20876U 21731U 21886U 22042U
                                                 22198U 22455U 23158U 23445U 24158U 24794M 24804U 25753M 25763U 25823
                                                 25883  26067  26258M 26268U 26336  26555M 26565U 26623  27006M 27022U
                                                 27036M 27037M 27037  30299M 30346  31172M 31182U 31632M 31642U 31672
                                                 32323M 32333U 32940M 32950U 33018  33226M 33236U 33396M 33406U 34020M
                                                 34030U 34157M 34167U 34442M 34452U 34844M 34854U 35131M 35141U 35325M
                                                 35335U 35818M 35931M 35931  35946U 36109M 36119U 36267M 36333M 36333
                                                 36352M 36368  36434  36493  36515U
 R7            7 00000007 FFFFFFFF A   #     790  2107M  2107   2108B  2120B 13635  13724M
 R8            8 00000008 FFFFFFFF A   #     803  9159U 11358U 13994U 18179U 19824U 20389U 20863U 22442U 23145U 24145U
                                                 26909U 31613U 32311U
 SCRYPTWA     44 00000000 FFFFFFE3     J    7581  7584   7585
 SDECRYPT      1 00000000 00000034     T   33938 33938
 SDSNQSZ       1 0000002C FFFFFFEC A   U    6095  6096   6097
 SEG           1 00000000 00000009     T   13750 13750  17971  19628  20771  21666  26772  30457  33935  36621
 SEGB          1 00000000 0000002A     T   30456 30456  30822
 SEGCB        60 00000000 FFFFFFE7     J    6912 24790U 31554
 SEGCBCLR      3 00000000 FFFFFFE7         6852 25628
 SEGCBCOD      1 00000000 FFFFFFE7     R    6823  6832   6842   6852   6862   6872   6882   6892
 SEGCBCR       6 00000000 FFFFFFE7         6882 25073
 SEGCBOVF      5 00000000 FFFFFFE7         6872 25153  25616
 SEGCBSEG      1 00000000 FFFFFFE7         6832 24849
 SEGCBUSR      4 00000038 FFFFFFE7     A    6905 24794
 SEGCBWR       2 00000000 FFFFFFE7         6842 25141  25604
 SEGCOL        1 00000000 00000021     T   26776 26776
 SEGCR         1 00000000 00000028     T   30453 30453  30824
 SEGDC         1 00000000 0000000A     T   13751 13751  21667  26775  30458  30823  36622
 SEGEXIT       2 000030AA 00000001     H   25654 24867B 24884B 25056B 25645B
 SEGHX         1 00000000 0000002D     T   30464 30464
 SEGINIT       1 00000000 00000004     T    9057  9057  26771
 SEGINITR      1 00000000 00000005     T    9059  9059
 SEGMARK       1 00000000 00000017     T   17972 17972  26793
 SEGT          1 00000000 0000000B     T   13752 13752  26774
 SEGTB         1 00000000 0000002B     T   30460 30460
 SEGWR         1 00000000 0000000C     T   13753 13753  17973  19629  26783  33936  36623
 SENCRYPT      1 00000000 00000024     T   26798 26798
 SERVPOST      1 00000000 00000036     T   36624 36624
 SERVTRC       1 00000000 0000000E     T   13760 13760  26794
 SHTRPTRS      4 00000000 FFFFFFD6     A   26851 27346M 27392  27395M 27424  27460
 SHTRWA        8 00000000 FFFFFFD6     J   26858 26880  26909U 27656  27658  27659
 SLICECHK      1 00000000 00000010     T   13767 13767  26801
 SPR          13 0000000D 00000001 A   #    1132  7742   7745   7746   7747M  7747   7937M  7941   7943   7974   7977
                                                  7978   7979M  7979   8453M  8457   8459   8487   8490   8491   8492M
                                                  8492   8633M  8637   8639   8666   8669   8670   8671M  8671   8807M
                                                  8811   8813   8843   8846   8847   8848M  8848   9027M  9031   9033
                                                  9124   9127   9129   9130M  9130  10188M 10192  10194  10224  10227
                                                 10228  10229M 10229  10536M 10540  10542  10572  10575  10576  10577M
                                                 10577  11242M 11246  11248  11323  11326  11328  11329M 11329  11738M
                                                 11742  11744  11772  11775  11776  11777M 11777  12370M 12374  12376
                                                 12408  12411  12412  12413M 12413  13597M 13601  13603  13632  13635
                                                 13636  13637M 13637  13720M 13724  13726  13959  13962  13964  13965M
                                                 13965  15020M 15024  15026  15053  15056  15057  15058M 15058  16206M
                                                 16210  16212  16238  16241  16242  16243M 16243  17234M 17238  17240
                                                 17262  17265  17266  17267M 17267  17944M 17948  17950  18144  18147
                                                 18149  18150M 18150  18655M 18659  18661  18688  18691  18692  18693M
                                                 18693  19598M 19602  19604  19789  19792  19794  19795M 19795  20218M
1NPAT     (NPAT2193) (12:50) (15MAR04) Ordinary Symbol and Literal Cross Reference                                          Page  166
                                                 20222  20224  20354  20357  20359  20360M 20360  20753M 20757  20759
                                                 20828  20831  20833  20834M 20834  21643M 21647  21649  21693  21696
                                                 21697  21698M 21698  21823M 21827  21829  21848  21851  21852  21853M
                                                 21853  21979M 21983  21985  22004  22007  22008  22009M 22009  22135M
                                                 22139  22141  22160  22163  22164  22165M 22165  22274M 22278  22280
                                                 22407  22410  22412  22413M 22413  23063M 23067  23069  23110  23113
                                                 23115  23116M 23116  23369M 23373  23375  23407  23410  23411  23412M
                                                 23412  24030M 24034  24036  24110  24113  24115  24116M 24116  24698M
                                                 24702  24704  24750  24753  24754  24755M 24755  25672M 25676  25678
                                                 25710  25713  25714  25715M 25715  26192M 26196  26198  26229  26232
                                                 26233  26234M 26234  26498M 26502  26504  26526  26529  26530  26531M
                                                 26531  26673M 26677  26679  26701  26704  26705  26706M 26706  26748M
                                                 26752  26754  26874  26877  26879  26880M 26880  27652M 27656  27658
                                                 27682  27685  27686  27687M 27687  30431M 30435  30437  30543  30546
                                                 30547  30548M 30548  30803M 30807  30809  30848  30851  30852  30853M
                                                 30853  30935M 30939  30941  30980  30983  30984  30985M 30985  31515M
                                                 31519  31521  31578  31581  31583  31584M 31584  32221M 32225  32227
                                                 32276  32279  32281  32282M 32282  32873M 32877  32879  32911  32914
                                                 32915  32916M 32916  33152M 33156  33158  33180  33183  33184  33185M
                                                 33185  33321M 33325  33327  33350  33353  33354  33355M 33355  33897M
                                                 33901  33903  33974  33977  33978  33979M 33979  34100M 34104  34106
                                                 34128  34131  34132  34133M 34133  34370M 34374  34376  34396  34399
                                                 34400  34401M 34401  34770M 34774  34776  34798  34801  34802  34803M
                                                 34803  35059M 35063  35065  35085  35088  35089  35090M 35090  35254M
                                                 35258  35260  35279  35282  35283  35284M 35284  35575M 35579  35581
                                                 35607  35610  35611  35612M 35612  35678M 35682  35684  35711  35714
                                                 35715  35716M 35716  36048M 36052  36054  36080  36083  36084  36085M
                                                 36085  36204M 36208  36210  36238  36241  36242  36243M 36243  36594M
                                                 36598  36600
 TBREAK        1 00000000 0000002F     T   33923 33923
 TCPABORT      2 00004DCC 00000001     H   35273 32003B
 TCPCLOSE      2 00004A60 00000001     H   33968 31937B
 TCPCONN       2 000047A8 00000001     H   33174 31904B
 TCPDATA       2 0000481E 00000001     H   33344 31789B
 TCPDEXIT      2 00004964 00000001     H   33879 33485B
 TCPEOF        2 00004D60 00000001     H   35079 31970B
 TCPFLOW       2 00004CD2 00000001     H   34792 31838B
 TCPOINFO      2 00004BB6 00000001     H   34390 31871B
 TCURS         1 00000000 0000001A     T   20772 20772  21665  26780
 TIMERDQ       1 00000000 00000030     T   33924 33924
 TOASCII       1 00000000 00000014     T   17968 17968  19626
 TOEBCDIC      1 00000000 00000016     T   17970 17970
 TOEBC7        1 00000000 00000019     T   17978 17978
 TRC           1 00000000 00000000 A   T    2136  2136
 TREAD         1 00000000 00000018     T   17975 17975  26784
 TREND         1 00000000 0000001B     T   20773 20773  21668  26779
 TTYCMD        8 000000FC FFFFFFEA     C    6307 19960  23506
 TTYDIM        8 000000C4 FFFFFFEA     C    6300 21297
 TTYFLAG       1 00000004 FFFFFFEA     R    6224  6228
 TTYMAX#       1 00000006 FFFFFFEA A   U    6280  6281
 TTYMSG        8 00000074 FFFFFFEA     C    6290 20017  23197
 TTYNORM       8 0000004C FFFFFFEA     C    6285 20081  20142  21320
 TTYPE       268 00000000 FFFFFFEA     J    6315 19903  19960  20017  20081  20142  20453  20611  20662  21297  21320
                                                 22984  23197  23506
 TTYPF         8 00000064 FFFFFFEA     C    6288 20453  20662
 TTYPFHI       8 0000006C FFFFFFEA     C    6289 20611
 TTYSTAT       8 0000005C FFFFFFEA     C    6287 19903  22984
 TTYTFLAG      1 00000005 FFFFFFEA     R    6234  6238   6243   6248   6253   6258   6263   6268
 UNET        632 00000000 FFFFFFE5     J    7528  7593   7817U  7876   7888   8111U  8122M  8122   8123M  8123   8124M
1NPAT     (NPAT2193) (12:50) (15MAR04) Ordinary Symbol and Literal Cross Reference                                          Page  167
                                                  8124   8125M  8288   8408   8526U  8542   8705U  8721   8940U  8957
                                                  9181U  9197  10098  10263U 10279  10611U 10627  10675  11381U 11397
                                                 11452  11811U 12146  12315  12447U 14008U 14024  15091U 15114  16276U
                                                 16300  17300U 17324  18193U 18209  18726U 18871  19837U 20402U 20876U
                                                 21731U 21886U 22042U 22198U 22455U 23158U 23445U 24158U 24804U 24820
                                                 25376  25457  25539  25749U 25780  25837  25837  25980  26005U 26039
                                                 26096U 26321U 26355  26441  26572  26589U 27721U 27771  31061  31077U
                                                 31112  32333U 32349  32421  32481  33002U 33236U 33242  33406U 33442
                                                 34030U 34036  34076  34167U 34346M 34348  34452U 34458  34854U 34860
                                                 35141U 35147  35335U 35341  35750U 35946U 36119U
 UNETACCT      5 00000004 FFFFFFE5     C    7085  7086   7087   8212M  8603M  8779M  8779  35951
 UNETAFLG1
               1 00000163 FFFFFFE5     R    7330  7334   7339   7344
 UNETAFLG2
               1 00000164 FFFFFFE5     R    7350  7354   7359   7364   7369   7374   7379   7384   7389
 UNETAFLG3
               1 00000165 FFFFFFE5     R    7395  7399   7404   7409
 UNETAID       4 00000170 FFFFFFE5     F    7467 10336M 10336  10459  10464  11989  11994  25527  27947  32475M 32475
                                                 32575  32580  32676  32681  33250M 33772  33777  34488M
 UNETAMY       8 00000018 FFFFFFE5     C    7094  8296M  8394M  9304   9327   9409
 UNETBOTC      4 00000250 FFFFFFE5     F    7514 18970M 18970  18997M 18997  20433M 20433  21595M 22793M 22793  22840
                                                 22869  23887
 UNETBUF#      1 00000FA0 FFFFFFE5 A   N    7177  7604  26792
 UNETBUFP      4 00000100 FFFFFFE5     A    7178  8239M 10649  11077  11415  11667  24942  24966  25043  34293  34311M
 UNETBYCT      4 00000258 FFFFFFE5     F    7516 20184M 20184  21081  21114M 22247M 22247
 UNETCELL      8 00000018 00000001     D    7587  9050  36620
 UNETCTR1      4 00000028 FFFFFFE5     F    7098 25372  25373M 28264M 28264  28293
 UNETCURL      4 00000268 FFFFFFE5     F    7520 19053  22215  24553M 24623M
 UNETEMSG     64 0000002E FFFFFFE5     C    7165 10114  10119  10147M 10147  28418M 28418  28452  28459  35458M 35485M
                                                 35509  35522M 35522
 UNETFASCII8
              32 0000002D FFFFFFE5         7156 10756  11094
 UNETFBSISDEL
              16 0000002D FFFFFFE5         7161 15855
 UNETFCR      32 00000163 FFFFFFE5         7344 10950M 10988  11004M
 UNETFCRYPT
             128 0000002D FFFFFFE5         7146 25507  33579
 UNETFCTRL
             128 00000104 FFFFFFE5         7187  9482M 10049M 10423M 10507M 11950  11950  11951M 24864  25187  25359
                                                 25419  25488  32538M 32623M 32639M 32724M 33734  33734  33735M 34526M
                                                 34743M
 UNETFGLOBAL
             128 0000002C FFFFFFE5         7106  8163M  8569   8748  32380
 UNETFIAC    128 00000163 FFFFFFE5         7334 12140  14590  18433
 UNETFIACSENT
              64 00000163 FFFFFFE5         7339 14569  14580M 18412  18423M
 UNETFINABORT
               2 00000164 FFFFFFE5         7384  7866  29218  32523  35431M
 UNETFINEOF
               4 00000164 FFFFFFE5         7379 12250  29256  35158M
 UNETFINSTOP
               8 00000164 FFFFFFE5         7374 11889  12042M 29180  33692  33823M
 UNETFINT     16 0000002C FFFFFFE5         7121 15686M 15710M 23904M 23938M 26409  31291  31344
 UNETFIXL      4 00000254 FFFFFFE5     F    7515 18845M 19060M 19079M 19439M 20903  21611M 21797M 21957M 22113M
 UNETFKEEPTABS
              32 00000165 FFFFFFE5         7409 10801
 UNETFLG1      1 0000002C FFFFFFE5     R    7102  7106   7111   7116   7121   7126   7131   7136  28362
 UNETFLG2      1 0000002D FFFFFFE5     R    7142  7146   7151   7156   7161
 UNETFLOWH
1NPAT     (NPAT2193) (12:50) (15MAR04) Ordinary Symbol and Literal Cross Reference                                          Page  168
               4 000001D8 FFFFFFE5     F    7477  8140M  9964
 UNETFLOWL
               4 000001D4 FFFFFFE5     F    7476  8139M  9926
 UNETFNOECHO
             128 00000165 FFFFFFE5         7399 12752M 12921M 15975  16057
 UNETFNOWAIT
              64 0000002C FFFFFFE5         7111 10063  12307  14207  14986M 15110M 16296M 17320M 18271  18621M 18869M
 UNETFNOXL
              64 00000104 FFFFFFE5         7192 12791M 12854M 13015M 13078M 13100M 13163M 13259M 13294M 13437M 13472M
                                                 14605M 14794M 15815M 15937M 16177M 17068M 17179M 18448M 18562M 19302M
                                                 19337M 19458M 19567M 24900  25084M 25122M
 UNETFOUTABORT
              32 00000164 FFFFFFE5         7364  7851  10411M 29332  32507  32507
 UNETFOUTEOF
              64 00000164 FFFFFFE5         7359 10388M 29370  32507  32507  32508
 UNETFOUTSTOP
             128 00000164 FFFFFFE5         7354 25404  29294  33284  33859  34912M 34985M 35190
 UNETFPFHIGH
             128 0000021C FFFFFFE5         7492 18982  19009  20422M 20445M 20602  20653
 UNETFPRIV
               2 0000002C FFFFFFE5         7136  9990
 UNETFSAMDATA
              64 0000002D FFFFFFE5         7151 11507  11564M
 UNETFWRAP
              64 00000165 FFFFFFE5         7404  8137M
 UNETFWRONLY
              16 00000104 FFFFFFE5         7202 11950  11950  25243  33734  33734  34712M 34748M
 UNETGRP       2 00000007 FFFFFFE5     C    7087 27859  27864  34644  34649
 UNETINCRYPT
              64 0000007C FFFFFFE5     X    7172  7584  33599
 UNETINCUR
               4 00000158 FFFFFFE5     A    7307 10659  11060M 11069M 11419  11450M 11450  11658M 30000  30043
 UNETINFLF
               1 00000166 FFFFFFE5         7434 16017  17110  19499
 UNETINHI#
               1 00007800 FFFFFFE5 A   N    7299 33939
 UNETINL       4 00000154 FFFFFFE5     A    7305 11872  11874M 11908  29930M 29930  29959  33649  33651M 33676
 UNETINLO#
               1 00000800 FFFFFFE5 A   N    7300 13764
 UNETINMODE
               1 00000166 FFFFFFE5     R    7415  7424   7434
 UNETINOLD
               4 00000150 FFFFFFE5     A    7304 11828  11841M 11841  12114M
 UNETINPL      4 00000264 FFFFFFE5     F    7519 19078M 19444M
 UNETINQH      4 00000148 FFFFFFE5     A    7302 12056  12083M 12094M 12094  30093  33625M
 UNETINQT      4 0000014C FFFFFFE5     A    7303 12107M 12107  33611  33647M
 UNETJCBP      4 00000010 FFFFFFE5     A    7091  7833   8170M  8170   8197M  8588M  8772M  8772   8986  25798  25883
                                                 26067  26336  26623  28013  31172  32387  32728M
 UNETLINK      4 00000014 FFFFFFE5     A    7092 25811M 25811  25854M 25854  25960M 25980  26011  26073  26080M 26080
                                                 26082M 26383M 26383  26454M 26572  26595  26629  26636M 26636  26638M
                                                 28175M 28175  28204  31061  31084  31475  31482M 31482  31484M 34242M
                                                 34242
 UNETLIP       4 00000174 FFFFFFE5     F    7469 29455  29500  29545  29590  33251M 34489M
 UNETLLNO      4 0000025C FFFFFFE5     F    7517 20189M 20189  21096  21105  21115M 22252M 22252
 UNETLMX#      1 000001F4 FFFFFFE5 A   N    7512 26778
 UNETLPORT
               4 00000178 FFFFFFE5     F    7470  9796  29631  33252M 34490M
 UNETMAXL      2 00000168 FFFFFFE5     H    7463  8138M 10838  11045
 UNETMKPF      2 00000242 FFFFFFE5     H    7507 19263
1NPAT     (NPAT2193) (12:50) (15MAR04) Ordinary Symbol and Literal Cross Reference                                          Page  169
 UNETMRKL      4 00000260 FFFFFFE5     F    7518 21288  22234M
 UNETNTXT      2 00000222 FFFFFFE5     H    7501 18801M 19882  19939  19996  20940  21118  21923  22079  22990  23175
                                                 23484  24583
 UNETNXPF      2 00000240 FFFFFFE5     H    7506 19230  20587
 UNETOBUFP
               4 00000108 FFFFFFE5     A    7207  8246M 34319  34337M
 UNETOUTCRYPT
              64 000000BC FFFFFFE5     X    7173  7585  25513
 UNETOUTFCRLF
               0 00000167 FFFFFFE5         7449 15348  16448  17453
 UNETOUTMODE
               1 00000167 FFFFFFE5     R    7440  7449   7459
 UNETOUTSG
              60 0000010C FFFFFFE5     X    7296  8267   8282   9505   9532   9550   9592   9609   9635   9652   9678
                                                  9695   9721   9765   9787   9808   9842   9875   9896   9917   9938
                                                  9955   9976  10009  10038  10445  10472  10496  11975  12002  12026
                                                 12676  12814  12843  13038  13067  13123  13152  13282  13427  13461
                                                 13576  14628  14674  14726  14758  14783  15926  16115  16166  17092
                                                 17143  17167  18471  18498  18526  18551  19326  19481  19532  19556
                                                 32561  32588  32612  32662  32689  32713  33758  33785  33809  34549
                                                 34576  34593  34613  34630  34657  34674  34701  34732
 UNETOUTSGCOD
               1 0000010C FFFFFFE5     R    7213  7222   7232   7242   7252   7262   7272   7282
 UNETOUTSGLENF
               4 00000118 FFFFFFE5     A    7288 11928M 11928  33712M 33712
 UNETOUTSGLOC
               4 0000012C FFFFFFE5     A    7292 34338M
 UNETOUTSGUSR
               4 00000144 FFFFFFE5     A    7295  8289M
 UNETPATP      4 00000020 FFFFFFE5     A    7095  9471M 25301  25565  28056  33018  33048M
 UNETPFKC     18 0000022C FFFFFFE5     X    7504 20060M 20060  20460
 UNETPFKR      2 0000022A FFFFFFE5     H    7503 20053M 20067  20558
 UNETPFXL#
               1 00000014 FFFFFFE5 A   N    7208  8247   9062  26819
 UNETPNO       4 0000000C FFFFFFE5     F    7090  8130M  8409   9519   9524  27731  34174
 UNETPOST      1 00000161 FFFFFFE5     X    7321 25901M 25942  26419M 26435  28780  31166
 UNETPRPF      2 0000023E FFFFFFE5     H    7505 19197
 UNETRIP       4 000001CC FFFFFFE5     F    7473  9565M  9565   9579   9622   9665   9708  29701  29746  29791  29836
                                                 33253M 34491M
 UNETRNAME
              80 0000017C FFFFFFE5     C    7472  9257M  9257   9272   9752   9757  22633M 22633  22648  22681  22686
 UNETRPORT
               4 000001D0 FFFFFFE5     F    7474  9823M  9823   9884  10086M 10086  14089  29877  33254M 34492M
 UNETSFABORT
               1 00000007 FFFFFFE5 A   U    7316 12279  29050  35445  35451
 UNETSFCLOSE
               1 0000000A FFFFFFE5 A   U    7319 10320  25272  29131  34074
 UNETSFCLOSING
               1 00000008 FFFFFFE5 A   U    7317 29077  32447  32726  33466  34057  34476  34878
 UNETSFDATA
               1 00000006 FFFFFFE5 A   U    7315 12202  22560  25375  25452  29023  33849  34950  35029  35180
 UNETSFDATASTOP
               1 00000005 FFFFFFE5 A   U    7314 12226  12314  25445  26419  28996  33843  33866  34956  35023  35174
                                                 35197
 UNETSFINITIAL
               1 00000001 FFFFFFE5 A   U    7310  9475  28888
 UNETSFOPEN
               1 00000004 FFFFFFE5 A   U    7313 10075  12208  15594  25432  28969  33268  33274  34926  35005
 UNETSFOPENING
1NPAT     (NPAT2193) (12:50) (15MAR04) Ordinary Symbol and Literal Cross Reference                                          Page  170
               1 00000002 FFFFFFE5 A   U    7311 10093  10374  22511  28915  34506  34512
 UNETSFOPENSTOP
               1 00000003 FFFFFFE5 A   U    7312 12232  28942  33291  34932  34999
 UNETSFPATHCLS
               1 00000009 FFFFFFE5 A   U    7318 25559  29104  32415  33036  33042
 UNETSGBF      8 00000040 00000001     D    7598  9056  36617
 UNETSGFLG
               1 00000104 FFFFFFE5     R    7183  7187   7192   7197   7202   7205   7205  11939  12033M 28706  33723
                                                 33816M
 UNETSINIT
               1 00000104 FFFFFFE5     X    7205 25640M
 UNETSNO       2 0000000A FFFFFFE5     H    7088  8213M  8604M  8786M  8786  27814  34601  35950
 UNETSNPF      2 00000246 FFFFFFE5     H    7509 19290
 UNETSTATE
               1 00000160 FFFFFFE5     X    7309  9475M 10320  10374  12202  12208M 12226  12232M 12279  15594  22511
                                                 22560  25272  25445  25559  25942  26435  28861  28888  28915  28942
                                                 28969  28996  29023  29050  29077  29104  29131  31166  32415  32447
                                                 32726M 33036  33042M 33268  33274M 33291M 33466  33843  33849M 33866M
                                                 34057  34074M 34476  34506  34512M 34878  34926  34932M 34950  34956M
                                                 34999  35005M 35023  35029M 35174  35180M 35197M 35445  35451M
 UNETSVIB      4 00000024 FFFFFFE5     A    7096 11194  25171  28086M 28086  28115  33421M 33421  35212  35533
 UNETTALK      1 00000162 FFFFFFE5     X    7323 14117  14123M 14140M 14161M 14433  14646  14698  14812  14846  14880
 UNETTALKCHAR
               1 00000001 FFFFFFE5 A   U    7324 14123  14433  14646  14812
 UNETTALKLINE
               1 00000002 FFFFFFE5 A   U    7325 14161  14846
 UNETTALKVTAM
               1 00000003 FFFFFFE5 A   U    7326 14140  14698  14880
 UNETTERM     32 000001DC FFFFFFE5     C    7479 13303  13308  13336M 13336
 UNETTOPL      4 0000024C FFFFFFE5     F    7513 19432M 19432  19439  21011  21018  21061  21113M 21903  22059  22242M
                                                 22242  24590
 UNETTRC       2 00004FD4 00000001     H   36074 36627
 UNETTTBL      4 000001FC FFFFFFE5     A    7481  8232M 30224M 30224  30276  34261  34285M 34285  35775M 35775  36127
 UNETTTNX      4 00000200 FFFFFFE5     F    7482 30277  36128  36157  36185M
 UNETUSER      3 00000004 FFFFFFE5     C    7086 27905  27910  34688  34693
 UNETVFLG1
               1 0000021C FFFFFFE5     R    7488  7492
 UNETVHEI      2 0000021E FFFFFFE5     H    7499 18753M 18753  18799M 20053
 UNETVWID      2 00000220 FFFFFFE5     H    7500 18843M 21201  21368  22919  23203  23539
 UNETWAIT      4 00000070 FFFFFFE5     F    7167 10053  12313  28512M 28512  28541
 UNETXCLK      4 000000FC FFFFFFE5     F    7175 25926M 26131  26453M 28600  28629  31144
 UNETXXPF      2 00000244 FFFFFFE5     H    7508 19355
 UPAT          4 00000074 FFFFFFE6     F    6996  7055
 UPATBUF       4 00000090 FFFFFFE6     R    7017  9425M
 UPATFCLS      1 00000080 FFFFFFE6 A   U    7021 32169
 UPATFHDR      8 00000018 FFFFFFE6         6969  9417M
 UPATFLG1      1 00000018 FFFFFFE6     R    6945  6949   6954   6959   6964   6969   6974
 UPATFNOWAIT
              64 00000018 FFFFFFE6         6954  9423M
 UPATH       176 00000000 FFFFFFE6     J    7066  9398U  9431  25325U 31642U 31682  32177  32950U 33073
 UPATMFL       1 0000008C FFFFFFE6     R    7006  9408M
 UPATMNAM      1 00000020 FFFFFFE6 A   U    7010  9406
 UPATSFLG      1 000000AC FFFFFFE6     X    7057  7019  32171
 UPATWRQH      4 00000010 FFFFFFE6     A    6940 25337M 25337
 UPATYOU       8 00000084 FFFFFFE6     X    7004  9409M
 UPPTBL        1 00000000 00000000 A   T    2199  2199
 VDCLEAR       2 0000269E 00000001     H   21687 19638
 VDFMSGCOD
               1 00000000 FFFFFFDC     R   19683 19692  19702  19712  19722  19732  19742  19752
1NPAT     (NPAT2193) (12:50) (15MAR04) Ordinary Symbol and Literal Cross Reference                                          Page  171
 VDFMWA      295 00000000 FFFFFFDC     J   19774 19795  19824U 20222  20224  20225
 VDFORMAT      2 000021E2 00000001     H   19782 18860B 19637
 VDGET         2 00002BDC 00000001     H   24104 24004B
 VDMARK        2 0000279C 00000001     H   22154 19642
 VDMSG         2 000029B2 00000001     H   23103 20192B
 VDMSGTXT    235 00000000 FFFFFFD8     C   23088 23207  23208
 VDMSGWA     235 00000000 FFFFFFD8     J   23095 23116  23145U 23373  23375  23376
 VDNEXT        2 00002746 00000001     H   21998 19641
 VDPFEVAL    235 0000007C FFFFFFDB     C   20332 20485  20486
 VDPFKS        2 0000231A 00000001     H   20347 19017B 20116B
 VDPFSGCOD
               1 00000000 FFFFFFDB     R   20247 20256  20266  20276  20286  20296  20306  20316
 VDPFVAR      64 0000003C FFFFFFDB     C   20331 20487M 20505  20518
 VDPFWA      359 00000000 FFFFFFDB     J   20339 20360  20389U 20757  20759  20760
 VDPREV        2 000026F0 00000001     H   21842 19640
 VDREAD        2 00002A60 00000001     H   23401 19026B
 VDSTATUS      2 000027E8 00000001     H   22400 18954B
 VDSTLINE    235 0000003C FFFFFFD9     C   22385 22481  22486  23019
 VDSTSG       60 00000000 FFFFFFD9     X   22384 22494  22529  22578  22611  22666  22694  22734  22754  22771  22814
                                                 22831  22852  22888  22909  22933  22957  22974
 VDSTSGCOD
               1 00000000 FFFFFFD9     R   22301 22310  22320  22330  22340  22350  22360  22370
 VDSTSGLENF
               4 0000000C FFFFFFD9     A   22376 23024
 VDSTWA      295 00000000 FFFFFFD9     J   22392 22413  22442U 23067  23069  23070
 VDWREXIT      2 00002660 00000001     H   21620 21099B
 VDWRFIN       2 00002634 00000001     H   21559 21252B
 VDWRITE       2 00002464 00000001     H   20821 18951B
 VDWRLINE    235 00000004 FFFFFFDA     C   20806 21137  21349M 21364
 VDWRSTLN      4 00000000 FFFFFFDA     F   20805 21048M 21048  21105M 21270
 VDWRWA      239 00000000 FFFFFFDA     J   20813 20834  20863U 21647  21649  21650
 VIEWTRC       1 00000000 00000022     T   26782 26782
 VTAMTALK      2 000018D4 00000001     H   16232 14888B
 VTAMVIEW      2 00001E80 00000001     H   18682 18569B
 VVWEXIT       2 000020CA 00000001     H   19572 18900B 18923B 19027B 19445B
 VVWLOOP       4 00001EFA 00000001     I   18871 19061B 19113B 19149B 19213B 19246B 19273B 19338B 19367B 19568B
 VVWPF        32 000020DC 00000001     C   19609 19401
 WAR           8 00000008 00000001 A   #    1055  7746M  7937   7978M  8453   8491M  8633   8670M  8807   8847M  9027
                                                  9129M 10188  10228M 10536  10576M 11242  11328M 11738  11776M 12370
                                                 12412M 12598  12602  13597  13636M 13720  13964M 15020  15057M 16206
                                                 16242M 17234  17266M 17944  18149M 18655  18692M 19598  19794M 20218
                                                 20359M 20753  20833M 21643  21697M 21823  21852M 21979  22008M 22135
                                                 22164M 22274  22412M 23063  23115M 23369  23411M 24030  24115M 24698
                                                 24754M 25050  25471  25585  25672  25714M 26192  26233M 26498  26530M
                                                 26673  26705M 26748  26879M 27652  27686M 30431  30547M 30803  30852M
                                                 30935  30984M 31515  31583M 32221  32281M 32873  32915M 33152  33184M
                                                 33321  33354M 33897  33978M 34100  34132M 34370  34400M 34770  34802M
                                                 35059  35089M 35254  35283M 35575  35611M 35678  35715M 36048  36084M
                                                 36204  36242M 36594
 WTOSG         1 00000000 00000000 A   T    2096  2096
 WYLNPAT       1 00000000 00000001     J    1009  1011   1037   1050   1063   1075   1088   1101   1114   1127   1140
                                                  1153   2380   2464   6204   6316   6596   6807   6913   6918   7067
                                                  7529   7554   7582   7676   7723
 XRDLEN#       1 00000040 00000001 A   N   11268 11417  11664  11690  13761
 =A($ECHO)
               4 000012B8 00000001     A   13768 12741  12909
 =A($SGA)      4 000012BC 00000001     A   13769 12780  12972
 =A($TTYPE)
               4 000012C0 00000001     A   13770 13004  13248
1NPAT     (NPAT2193) (12:50) (15MAR04) Ordinary Symbol and Literal Cross Reference                                          Page  172
 =A(CTRC#)
               4 000051CC 00000001     A   36632 36170
 =A(CTRCCELL)
               4 000004C0 00000001     A    9055  8227
 =A(CTRCCELL)
               4 00005178 00000001     A   36615 34274
 =A(CVNET#)
               4 000004A0 00000001     A    9047  7786   8072   8899
 =A(CVNET#)
               4 00003448 00000001     A   26804 26290
 =A(CVNET#)
               4 000049F8 00000001     A   33937 32971
 =A(CVNET#)
               4 00005174 00000001     A   36614 34200
 =A(DISPCTRC)
               4 00003F84 00000001     A   30474 30309  30358
 =A(FIELDCS#)
               4 00003408 00000001     A   26788 24389
 =A(FREEUNET)
               4 000049EC 00000001     A   33934 32424  32484
 =A(IACCHK)
               4 000012B0 00000001     A   13766 12149
 =A(L'NPHDR)
               4 000049C8 00000001     A   33927 31709  31721
 =A(NETTRC)
               4 00003434 00000001     A   26799 25542
 =A(NETTRC)
               4 000049D8 00000001     A   33929 32043  32139  33245  33445
 =A(NETTRC)
               4 00005170 00000001     A   36613 34039  34461  34863  35150  35344
 =A(NPATCHK)
               4 00001288 00000001     A   13756 10303
 =A(NPATCHK)
               4 00003424 00000001     A   26795 25251
 =A(NPATCHK)
               4 000049E8 00000001     A   33933 32398
 =A(NPATCLS)
               4 000004A8 00000001     A    9049  7891
 =A(NPATSEG)
               4 000004CC 00000001     A    9058  8274
 =A(NPATWAIT)
               4 00001280 00000001     A   13754 10101  12318
 =A(NPATWAIT)
               4 0000342C 00000001     A   26797 25379  25460
 =A(NTRCDISP)
               4 00003450 00000001     A   26806 26736
 =A(READDATA)
               4 0000128C 00000001     A   13757 10678  11455
 =A(READDATA)
               4 00001CD8 00000001     A   17974 15117  16303  17327
 =A(READDATA)
               4 00002190 00000001     A   19633 18874
 =A(UNETBUF#)
               4 00003418 00000001     A   26792 24918
 =A(UNETCELL)
               4 000004AC 00000001     A    9050  8095
 =A(UNETCELL)
               4 0000518C 00000001     A   36620 34349
 =A(UNETSGBF)
1NPAT     (NPAT2193) (12:50) (15MAR04) Ordinary Symbol and Literal Cross Reference                                          Page  173
               4 000004C4 00000001     A    9056  8234   8241
 =A(UNETSGBF)
               4 00005180 00000001     A   36617 34306  34332
 =A(UNETTRC)
               4 000051B8 00000001     A   36627 35786
 =A(VDCLEAR)
               4 000021A4 00000001     A   19638 19147
 =A(VDFORMAT)
               4 000021A0 00000001     A   19637 19143
 =A(VDMARK)
               4 000021B4 00000001     A   19642 19271
 =A(VDNEXT)
               4 000021B0 00000001     A   19641 19238
 =A(VDPREV)
               4 000021AC 00000001     A   19640 19205
 =A(X'7')      4 00001290 00000001     A   13758 10848
 =A(XRDLEN#)
               4 0000129C 00000001     A   13761 11479
 =A(0)         4 000051C4 00000001     A   36630 35876
 =A(1)         4 00002694 00000001     A   21670 21587
 =A(1)         4 00003410 00000001     A   26790 24569
 =A(1)         4 000051C8 00000001     A   36631 35904
 =A(10)        4 00002184 00000001     A   19630 18782  18794
 =A(101)       4 00001CE0 00000001     A   17976 15736
 =A(101)       4 00002194 00000001     A   19634 19110
 =A(101)       4 000033FC 00000001     A   26785 23963
 =A(128*1024)
               4 00001268 00000001     A   13748  9425
 =A(16)        4 00003EF8 00000001     A   30459 27359
 =A(161)       4 0000219C 00000001     A   19636 19135
 =A(2)         4 000012C8 00000001     A   13772 13498  13538
 =A(2)         4 00001CB8 00000001     A   17966 14347
 =A(2)         4 0000216C 00000001     A   19624 18334
 =A(20)        4 000051A0 00000001     A   36625 35384
 =A(200)       4 000021A8 00000001     A   19639 19168
 =A(256)       4 00001294 00000001     A   13759 11124  12478  12490
 =A(256)       4 00003400 00000001     A   26786 24196  24208  24992  25004
 =A(31)        4 000021B8 00000001     A   19643 19375  19387
 =A(50)        4 00002188 00000001     A   19631 18826  18838
 =A(8)         4 000012A0 00000001     A   13762 11526
 =A(9)         4 0000243C 00000001     A   20774 20475
 =AL1($IAC,$DO,$ECHO)
               1 00001D04 00000001     R   17989 14659  14711
 =AL1($IAC,$DO,$ECHO)
               1 000021D4 00000001     R   19653 18483
 =AL1($IAC,$DO,$SGA,$IAC,$WILL,$SGA)
               1 00001CF0 00000001     R   17981 14613
 =AL1($IAC,$DO,$SGA,$IAC,$WILL,$SGA)
               1 000021C4 00000001     R   19647 18456
 =AL1($IAC,$DONT)
               1 00001320 00000001     R   13783 12799
 =AL1($IAC,$SB,$TTYPE,0)
               1 000012C4 00000001     R   13771 13267
 =AL1($IAC,$SE)
               1 00001326 00000001     R   13786 13446
 =AL1($IAC,$WILL)
               1 00001322 00000001     R   13784 13023
 =AL1($IAC,$WILL,$TTYPE)
               1 00001D07 00000001     R   17990 14743
1NPAT     (NPAT2193) (12:50) (15MAR04) Ordinary Symbol and Literal Cross Reference                                          Page  174
 =AL1($IAC,$WILL,$TTYPE)
               1 000021D7 00000001     R   19654 18511
 =AL1($IAC,$WONT)
               1 00001324 00000001     R   13785 13108
 =AL2(L'ETRCHDR)
               2 000051D8 00000001     R   36636 35823
 =AL2(L'NPID+4)
               2 00004A34 00000001     R   33946 33493
 =AL2(L'NPID+4)
               2 000051D4 00000001     R   36634 35352
 =AL2(UNETPFXL#)
               2 000004DA 00000001     R    9062  8248
 =AL2(UNETPFXL#)
               2 000034A8 00000001     R   26819 25523  25524
 =AL2(2)       2 00003454 00000001     R   26807 21924  22080
 =AL2(235)
               2 000004D8 00000001     R    9061  8138
 =AL2(239)
               2 00001310 00000001     R   13781 12562
 =AL4(-1)      4 00003F2C 00000001     R   30466 28600
 =AL4(UNETINHI#)
               4 00004A00 00000001     R   33939 33676
 =AL4(UNETINLO#)
               4 000012A8 00000001     R   13764 11908
 =AL4(UNETLMX#)
               4 000033E0 00000001     R   26778 22869  23887
 =AL4(514)
               4 00001CAC 00000001     R   17963 14089
 =C'    *** '
               8 000033A0 00000001     C   26766 22725
 =C'    EMSG: '
              10 00003FE8 00000001     C   30483 28428
 =C'    Flags 1 and 2: '
              19 000040F2 00000001     C   30506 28344
 =C'    Input buffer length='
              24 00003EC8 00000001     C   30452 29940
 =C'    JCB at '
              11 000040A4 00000001     C   30502 27994
 =C'    Next UNET on waiting queue '
              31 000040BE 00000001     C   30504 28185
 =C'    Our address='
              16 00003EB8 00000001     C   30451 29432
 =C'    Post completion flags: '
              27 00004129 00000001     C   30509 28757
 =C'    Remote address='
              19 00004181 00000001     C   30517 29678
 =C'    State='
              10 00004000 00000001     C   30485 28833
 =C'    SEG flag: '
              14 00003FF2 00000001     C   30484 28683
 =C'    Timeout value: '
              19 00004105 00000001     C   30507 28522
 =C'    Timeout TOD: '
              17 00004118 00000001     C   30508 28610
 =C' << INPUT  << '
              14 00003FAC 00000001     C   30477 27302
 =C' -- ??? -- '
              11 0000406F 00000001     C   30495 27258
 =C' -- UNET at '
1NPAT     (NPAT2193) (12:50) (15MAR04) Ordinary Symbol and Literal Cross Reference                                          Page  175
              12 00003F10 00000001     C   30463 27752
 =C' >> OUTPUT >> '
              14 00003F9E 00000001     C   30476 27278
 =C' '         1 000040A3 00000001     C   30501 27835
 =C' '         1 000051E1 00000001     C   36639 34621
 =C' bytes)'
               7 0000407B 00000001     C   30497 27445
 =C' for line '
              10 00003FD4 00000001     C   30481 27795
 =C' lines follow ***'
              17 000034DD 00000001     C   26825 22900
 =C' lines'
               6 0000347C 00000001     C   26811 22965
 =C' msgs waiting ***'
              17 000034CB 00000001     C   26823 22762
 =C' to '      4 000033CC 00000001     C   26773 22657
 =C' FLOWH='
               7 0000135A 00000001     C   13793  9946
 =C' FLOWL='
               7 00001353 00000001     C   13792  9908
 =C' LPORT='
               7 00001345 00000001     C   13790  9778
 =C' PASSIVE'
               8 00001220 00000001     C   13741  9833
 =C' PRIV'
               5 00001361 00000001     C   13794 10000
 =C' RPORT='
               7 0000134C 00000001     C   13791  9866
 =C'.'         1 00001344 00000001     C   13789  9600   9643   9686
 =C'.'         1 0000406E 00000001     C   30494 27211  27881  29477  29522  29567  29723  29768  29813
 =C'.'         1 000051E2 00000001     C   36640 34665
 =C'<<<'       3 00001369 00000001     C   13796 11211
 =C'('         1 0000407A 00000001     C   30496 27405
 =C'(We are here!)'
              14 00001312 00000001     C   13782 12667
 =C'+'         1 000034DC 00000001     C   26824 22879
 =C'*** '      4 000033DC 00000001     C   26777 22822
 =C'-----------------'
              17 00004058 00000001     C   30492 26964
 =C', '        2 00004028 00000001     C   30489 30024
 =C', current ptrs='
              15 00004194 00000001     C   30518 29981
 =C', port '
               7 0000417A 00000001     C   30516 29612  29858
 =C', Amelia ID '
              12 00003F20 00000001     C   30465 27928
 =C', ABORT received'
              16 00003E98 00000001     C   30449 29229
 =C', ABORT sent'
              12 00003F78 00000001     C   30473 29343
 =C', AMY UPATH at '
              15 000040AF 00000001     C   30503 28037
 =C', EOF received'
              14 00004010 00000001     C   30487 29267
 =C', EOF sent'
              10 0000401E 00000001     C   30488 29381
 =C', Input stopped'
              15 0000416B 00000001     C   30515 29191
 =C', Output stopped'
1NPAT     (NPAT2193) (12:50) (15MAR04) Ordinary Symbol and Literal Cross Reference                                          Page  176
              16 00003EA8 00000001     C   30450 29305
 =C', SVIB at '
              10 00003FDE 00000001     C   30482 28096
 =C'>>A'       3 000034F6 00000001     C   26828 25206
 =C'?????'
               5 000051EC 00000001     C   36642 35922
 =C'unknown'
               7 000013C7 00000001     C   13802 13398
 =C'[]'        2 00001CEE 00000001     C   17980 14366
 =C'[]'        2 000021C2 00000001     C   19646 18353
 =C'Aborted'
               7 00004152 00000001     C   30512 29059
 =C'ABORT'
               5 000004EC 00000001     C    9067  7875
 =C'AMELIA  '
               8 00001200 00000001     C   13738  9304
 =C'AMELIA VALUE NOT SUPPORTED'
              26 000012EA 00000001     C   13774  9355
 =C'ATTN'      4 00001CE4 00000001     C   17977 15941  16326  17203
 =C'ATTN'      4 00002198 00000001     C   19635 19121
 =C'ATTN'      4 00003444 00000001     C   26803 26165
 =C'Bad trace entry queue!'
              22 00003F88 00000001     C   30475 27065
 =C'BAD PATH NUMBER'
              15 0000051B 00000001     C    9070  8907
 =C'Closed'
               6 0000400A 00000001     C   30486 29140
 =C'Closing connection'
              18 00003468 00000001     C   26809 22602
 =C'Closing'
               7 00004159 00000001     C   30513 29086
 =C'Connected'
               9 000034C2 00000001     C   26822 22569
 =C'CONNECTION CLOSED'
              17 000013AA 00000001     C   13799 12287
 =C'CP'        2 00004A30 00000001     C   33944 32807
 =C'Data waiting/Stopped'
              20 00003F58 00000001     C   30471 29005
 =C'Data waiting'
              12 00003F6C 00000001     C   30472 29032
 =C'END OF FILE'
              11 0000139F 00000001     C   13798 12258
 =C'EOF'       3 00001366 00000001     C   13795 10356
 =C'ERROR_PREV_REQ:'
              15 00004082 00000001     C   30498 27476
 =C'ERROR_PREV_REQ:'
              15 00004A4A 00000001     C   33950 32029
 =C'ERROR: DATA OVERFLOW'
              20 000051A4 00000001     C   36626 35401
 =C'ETRC'      4 00003EE4 00000001     C   30454 27057
 =C'ETRC'      4 000051BC 00000001     C   36628 35857  36476  36532
 =C'Full queue suspends: '
              21 000040DD 00000001     C   30505 28274
 =C'HOST NAME NOT SPECIFIED'
              23 00001328 00000001     C   13787  9280
 =C'HOST='
               5 0000133F 00000001     C   13788  9541
 =C'Initializing'
              12 00003F3C 00000001     C   30468 28897
1NPAT     (NPAT2193) (12:50) (15MAR04) Ordinary Symbol and Literal Cross Reference                                          Page  177
 =C'Input: '
               7 000034EF 00000001     C   26827 23712
 =C'Line '
               5 00004069 00000001     C   30493 27109
 =C'Line '
               5 000051DC 00000001     C   36638 34584
 =C'Network file transfer error, ftp header is missing.'
              51 0000136C 00000001     C   13797 11547
 =C'Network trace table is empty.'
              29 0000402A 00000001     C   30490 26934
 =C'Network I/O trace'
              17 00004047 00000001     C   30491 26946
 =C'Never opened'
              12 00003F30 00000001     C   30467 28870
 =C'NO DATA'
               7 000013BB 00000001     C   13800 12350
 =C'NO DATA'
               7 00001D0A 00000001     C   17991 15140  16345  17350
 =C'NO DATA'
               7 000021DA 00000001     C   19655 18897
 =C'NO MORE NET PATHS'
              17 0000050A 00000001     C    9069  8439
 =C'NOT OPEN'
               8 00000498 00000001     C    9046  8994
 =C'NPATWAIT trace info...'
              22 000034AA 00000001     C   26820 25833
 =C'Open/Stopped'
              12 00003F48 00000001     C   30469 28951
 =C'Open'      4 00003F54 00000001     C   30470 28978
 =C'Opening connection'
              18 00003456 00000001     C   26808 22520
 =C'Opening'
               7 0000414B 00000001     C   30511 28924
 =C'OK'        2 00001304 00000001     C   13775 10160  10515
 =C'OK'        2 000034C0 00000001     C   26821 26116
 =C'OK'        2 00004A32 00000001     C   33945 32846
 =C'OXTR'      4 000051D0 00000001     C   36633 36549
 =C'Path closed'
              11 00004160 00000001     C   30514 29113
 =C'Rcvd:'
               5 0000426D 00000001     C   30826 30678
 =C'Secure input: '
              14 00003496 00000001     C   26816 23649
 =C'Sent:'
               5 00004268 00000001     C   30825 30658
 =C'SES.AMELIA'
              10 000004DE 00000001     C    9064  8344
 =C'Trace table: '
              13 000041A3 00000001     C   30519 30234
 =C'TCP_ABORT:'
              10 00003FCA 00000001     C   30480 27541
 =C'TCP_ABORT:'
              10 00004A26 00000001     C   33943 31996
 =C'TCP_CLOSE:'
              10 00004A1C 00000001     C   33942 31930
 =C'TCP_CONNECT:'
              12 00003F00 00000001     C   30461 27528
 =C'TCP_CONNECT:'
              12 000049CC 00000001     C   33928 31897
1NPAT     (NPAT2193) (12:50) (15MAR04) Ordinary Symbol and Literal Cross Reference                                          Page  178
 =C'TCP_DATA:'
               9 00004A38 00000001     C   33948 31782
 =C'TCP_EOF:'
               8 00004978 00000001     C   33917 31963
 =C'TCP_INFO:'
               9 0000409A 00000001     C   30500 27515
 =C'TCP_OPEN_INFO:'
              14 00003FBC 00000001     C   30479 27502
 =C'TCP_OPEN_INFO:'
              14 00004A0E 00000001     C   33941 31864
 =C'TCP_OPEN:'
               9 00004091 00000001     C   30499 27489
 =C'TCP_START:'
              10 00004A04 00000001     C   33940 31831
 =C'TCP_STOP:'
               9 00004A41 00000001     C   33949 31817
 =C'TCP_STOP:'
               9 000051E3 00000001     C   36641 34901
 =C'TESTAMY '
               8 00001208 00000001     C   13739  9327
 =C'TIMEOUT'
               7 000034F9 00000001     C   26829 26140
 =C'TOO MANY CONNECTIONS OPEN'
              25 000004F1 00000001     C    9068  8044
 =C'Unknown'
               7 00004144 00000001     C   30510 28849
 =C'UNET'      4 000004B4 00000001     C    9052  8125   8542   8721   8957
 =C'UNET'      4 00001260 00000001     C   13746  9197  10279  10627  11397
 =C'UNET'      4 00001CA8 00000001     C   17962 14024
 =C'UNET'      4 00002160 00000001     C   19621 18209
 =C'UNET'      4 00003414 00000001     C   26791 24820  25780  26039  26355
 =C'UNET'      4 000049B0 00000001     C   33921 31112  32349
 =C'VT100'
               5 000013C2 00000001     C   13801 13374
 =C'WYLBUR NETWORK ACCESS DISABLED'
              30 000012CC 00000001     C   13773  9234
 =C'X.NET_VIEW_MSG'
              14 00003486 00000001     C   26814 23211
 =C'X'         1 000034EE 00000001     C   26826 23568
 =C'XNET'      4 00005188 00000001     C   36619 34346
 =C'11'        2 00001CFE 00000001     C   17986 15663
 =CL16'TCP_ABORT:'
              16 00001238 00000001     C   13743 10412
 =CL16'TCP_ABORT:'
              16 00004980 00000001     C   33918 32546
 =CL16'TCP_CLOSE:'
              16 00004990 00000001     C   33919 32647
 =CL16'TCP_EOF:'
              16 00001228 00000001     C   13742 10389
 =CL16'TCP_INFO:'
              16 00005160 00000001     C   36612 34534
 =CL16'TCP_OPEN:'
              16 00001210 00000001     C   13740  9490
 =CL16'TCP_START:'
              16 00001250 00000001     C   13745 11960
 =CL16'TCP_STOP:'
              16 000049A0 00000001     C   33920 33743
 =CL16'TCP_WRITE:'
              16 000033A8 00000001     C   26767 25526
1NPAT     (NPAT2193) (12:50) (15MAR04) Ordinary Symbol and Literal Cross Reference                                          Page  179
 =CL17'X.NET_VIEW_PF[xx]'
              17 00002452 00000001     C   20782 20487
 =CL8'AMELIA'
               8 00000490 00000001     C    9045  8296
 =F'-1'        4 000012AC 00000001     F   13765 12113
 =F'-1'        4 00003428 00000001     F   26796 25312  25905  26453
 =F'-1'        4 000049C0 00000001     F   33925 31394  32728  33048
 =F'-1'        4 00005184 00000001     F   36618 34311  34337  34338  36550
 =F'-1000'
               4 0000218C 00000001     F   19632 18845  19079
 =F'-1000'
               4 00002698 00000001     F   21671 21611
 =F'-1000'
               4 0000340C 00000001     F   26789 24553
 =F'4000'      4 000004B8 00000001     F    9053  8139
 =F'8000'      4 000004BC 00000001     F    9054  8140
 =H'-1'        2 00001CF8 00000001     H   17983 14947
 =H'-1'        2 000021CC 00000001     H   19649 18586
 =H'-1'        2 0000269C 00000001     H   21672 20894
 =H'1'         2 00001D00 00000001     H   17987 15670
 =H'1'         2 00002448 00000001     H   20777 19883
 =H'1'         2 00003482 00000001     H   26812 22991
 =H'11'        2 0000347A 00000001     H   26810 22920
 =H'16'        2 00003FBA 00000001     H   30478 27394  27462
 =H'2'         2 00001CEC 00000001     H   17979 14355  14372
 =H'2'         2 000021C0 00000001     H   19645 18342  18359
 =H'2'         2 0000244A 00000001     H   20778 19940
 =H'2'         2 00003494 00000001     H   26815 23485  24313
 =H'200'       2 000021D0 00000001     H   19651 19174
 =H'256'       2 00001306 00000001     H   13776 11132
 =H'256'       2 00001CFC 00000001     H   17985 15651
 =H'256'       2 000034A4 00000001     H   26817 25030
 =H'3'         2 0000244C 00000001     H   20779 19997
 =H'3'         2 00003484 00000001     H   26813 23176
 =H'4'         2 000021CE 00000001     H   19650 18800
 =H'8'         2 0000130A 00000001     H   13778 11566
 =H'80'        2 00001D02 00000001     H   17988 16965
 =V(ACTPICK)
               4 00001CB0 00000001     V   17964 14268  14957
 =V(ACTPICK)
               4 00002164 00000001     V   19622 18296  18596
 =V(BTD)       4 00002440 00000001     V   20775 20508
 =V(DELRANGE)
               4 00001CBC 00000001     V   17967 14379
 =V(DELRANGE)
               4 00002170 00000001     V   19625 18366
 =V(DISPATCH)
               4 00003440 00000001     V   26802 25973
 =V(DTB)       4 00003404 00000001     V   26787 24375
 =V(EVALSTR)
               4 000004D4 00000001     V    9060  8348
 =V(EVALSTR)
               4 00002444 00000001     V   20776 20528
 =V(EVALSTR)
               4 000033EC 00000001     V   26781 23215
 =V(FMTTIME)
               4 00003EE8 00000001     V   30455 27079
 =V(FMTTIME)
               4 00004258 00000001     V   30821 30611
1NPAT     (NPAT2193) (12:50) (15MAR04) Ordinary Symbol and Literal Cross Reference                                          Page  180
 =V(FREECORE)
               4 000012A4 00000001     V   13763 11869
 =V(FREECORE)
               4 000049DC 00000001     V   33930 32079
 =V(FREEPOOL)
               4 0000517C 00000001     V   36616 34277  34309  34335  34352
 =V(GETCORE)
               4 000049E0 00000001     V   33931 32090  33520
 =V(GETLINE)
               4 00001CB4 00000001     V   17965 14333
 =V(GETLINE)
               4 00002168 00000001     V   19623 18320
 =V(GETLINE)
               4 0000267C 00000001     V   21664 21140
 =V(GETPOOL)
               4 000004B0 00000001     V    9051  8098   8230   8237   8244
 =V(GETRSC)
               4 000049B4 00000001     V   33922 31249  31460
 =V(GTFRSTLN)
               4 00002690 00000001     V   21669 21578
 =V(GTLASTLN)
               4 00002674 00000001     V   21662 20927
 =V(GTLASTLN)
               4 000033B8 00000001     V   26768 21755  21910  22066
 =V(GTNEXTLN)
               4 000033C0 00000001     V   26770 22099  24614
 =V(GTPREVLN)
               4 00002678 00000001     V   21663 20961
 =V(GTPREVLN)
               4 000033BC 00000001     V   26769 21787  21943
 =V(HEXDUMP)
               4 00003F0C 00000001     V   30462 27561  27593  30173
 =V(LOCALTOD)
               4 000051C0 00000001     V   36629 35861
 =V(NETDISP)
               4 0000344C 00000001     V   26805 26732
 =V(NPATCTRL)
               4 000004A4 00000001     V    9048  7879
 =V(PATHALLO)
               4 00001264 00000001     V   13747  9385
 =V(PATHCLS)
               4 000049E4 00000001     V   33932 32180
 =V(PATHOPEN)
               4 0000126C 00000001     V   13749  9434
 =V(PATHREAD)
               4 000049C4 00000001     V   33926 31685
 =V(PATHWRIT)
               4 00003438 00000001     V   26800 25568
 =V(PUTBYTES)
               4 00001CC4 00000001     V   17969 14403  14944  14951  15286  16408  17413
 =V(PUTBYTES)
               4 00002178 00000001     V   19627 18390  18583  18590  18945
 =V(PUTBYTES)
               4 00002670 00000001     V   21661 20898
 =V(RTRIM)
               4 00001284 00000001     V   13755 10122  13311
 =V(RTRIM)
               4 000021BC 00000001     V   19644 19411
 =V(SDECRYPT)
1NPAT     (NPAT2193) (12:50) (15MAR04) Ordinary Symbol and Literal Cross Reference                                          Page  181
               4 000049FC 00000001     V   33938 33602
 =V(SEG)       4 00001270 00000001     V   13750  9508   9535   9553   9612   9655   9698   9790   9845   9878   9920
                                                  9958  10012  10448  10475  11978  12005  12679  12817  12846  13041
                                                 13070  13126  13155  13285  13464
 =V(SEG)       4 00001CCC 00000001     V   17971 14493  14631  14677  14729  14761  15376  15495  15513  15557  15998
                                                 16086  16118  16571  16589  16686  16832  16850  16894  17095  17146
                                                 17563  17581  17663  17796  17814  17858
 =V(SEG)       4 0000217C 00000001     V   19628 18474  18501  18529  19484  19535
 =V(SEG)       4 00002430 00000001     V   20771 19877  19934  19991  20048  20112  20173  20642  20709
 =V(SEG)       4 00002684 00000001     V   21666 21197  21250  21442  21484  21534
 =V(SEG)       4 000033C8 00000001     V   26772 22532  22581  22614  22669  22737  22774  22834  22891  22912  22977
                                                 23035  23247  23287  23337  23537  23580  23627  23661  23689  23724
                                                 23757  25101
 =V(SEG)       4 00003EF0 00000001     V   30457 27121  27175  27205  27223  27253  27330  27417  27764  27807  27847
                                                 27875  27893  27921  27940  28006  28049  28108  28197  28286  28356
                                                 28440  28470  28534  28622  28695  28769  28845  29168  29203  29241
                                                 29279  29317  29355  29393  29444  29489  29534  29579  29624  29690
                                                 29735  29780  29825  29870  29952  29993  30036  30246
 =V(SEG)       4 000049F0 00000001     V   33935 32564  32591  32665  32692  33761  33788
 =V(SEG)       4 00005190 00000001     V   36621 34552  34579  34596  34633  34660  34677  34704
 =V(SEGB)      4 00003EEC 00000001     V   30456 27103
 =V(SEGB)      4 0000425C 00000001     V   30822 30635  30706  30736
 =V(SEGCOL)
               4 000033D8 00000001     V   26776 22817  22936
 =V(SEGCR)
               4 00003EE0 00000001     V   30453 26958  26976  27001  27457  27623  27987  28162  28247  28333  28405
                                                 28495  28581  28672  28750  28824  29423  29671  29917  30086  30153
                                                 30209  30271  30410
 =V(SEGCR)
               4 00004264 00000001     V   30824 30782
 =V(SEGDC)
               4 00001274 00000001     V   13751  9595   9638   9681   9724   9811   9899   9941   9979
 =V(SEGDC)
               4 00002688 00000001     V   21667 21222  21506
 =V(SEGDC)
               4 000033D4 00000001     V   26775 22757  22855  22960  23309  23562
 =V(SEGDC)
               4 00003EF4 00000001     V   30458 27145  27439  27746  27829  27962  28308  28556  29471  29516  29561
                                                 29606  29646  29717  29762  29807  29852  29892  29974
 =V(SEGDC)
               4 00004260 00000001     V   30823 30757
 =V(SEGDC)
               4 00005194 00000001     V   36622 34616
 =V(SEGHX)
               4 00003F1C 00000001     V   30464 27789  28031  28074  28133  28222  28380  28647  28725  28799  30018
                                                 30061
 =V(SEGINIT)
               4 000004C8 00000001     V    9057  8270   8330
 =V(SEGINIT)
               4 000033C4 00000001     V   26771 22497
 =V(SEGINITR)
               4 000004D0 00000001     V    9059  8285
 =V(SEGMARK)
               4 00001CD0 00000001     V   17972 14507  15612  16928  17892
 =V(SEGMARK)
               4 0000341C 00000001     V   26793 25114
 =V(SEGT)      4 00001278 00000001     V   13752  9768  13430
 =V(SEGT)      4 000033D0 00000001     V   26774 22697
 =V(SEGTB)
1NPAT     (NPAT2193) (12:50) (15MAR04) Ordinary Symbol and Literal Cross Reference                                          Page  182
               4 00003EFC 00000001     V   30460 27390
 =V(SEGWR)
               4 0000127C 00000001     V   13753 10041  10499  12029  13579
 =V(SEGWR)
               4 00001CD4 00000001     V   17973 14532  14786  15637  15929  16169  16953  17170  17917
 =V(SEGWR)
               4 00002180 00000001     V   19629 18554  19329  19559
 =V(SEGWR)
               4 000033F4 00000001     V   26783 23858
 =V(SEGWR)
               4 000049F4 00000001     V   33936 32615  32716  33812
 =V(SEGWR)
               4 00005198 00000001     V   36623 34735
 =V(SENCRYPT)
               4 00003430 00000001     V   26798 25516
 =V(SERVPOST)
               4 0000519C 00000001     V   36624 35228  35549
 =V(SERVTRC)
               4 00001298 00000001     V   13760 11214
 =V(SERVTRC)
               4 00003420 00000001     V   26794 25209
 =V(SLICECHK)
               4 000012B4 00000001     V   13767 12345
 =V(SLICECHK)
               4 0000343C 00000001     V   26801 25950
 =V(TBREAK)
               4 000049B8 00000001     V   33923 31300
 =V(TCURS)
               4 00002434 00000001     V   20772 19899  19956  20013  20077  20138  20566
 =V(TCURS)
               4 00002680 00000001     V   21665 21169  21346
 =V(TCURS)
               4 000033E8 00000001     V   26780 23007  23192  23502  23599
 =V(TIMERDQ)
               4 000049BC 00000001     V   33924 31371
 =V(TOASCII)
               4 00001CC0 00000001     V   17968 14398  17072
 =V(TOASCII)
               4 00002174 00000001     V   19626 18385  19305  19461
 =V(TOEBCDIC)
               4 00001CC8 00000001     V   17970 14464
 =V(TOEBC7)
               4 00001CE8 00000001     V   17978 16532  16793  17524  17757
 =V(TREAD)
               4 00001CDC 00000001     V   17975 15700  16978
 =V(TREAD)
               4 000033F8 00000001     V   26784 23922
 =V(TREND)
               4 00002438 00000001     V   20773 19906  19963  20020  20084  20145  20456  20614  20665
 =V(TREND)
               4 0000268C 00000001     V   21668 21300  21323
 =V(TREND)
               4 000033E4 00000001     V   26779 22987  23200  23509
 =V(VIEWTRC)
               4 000033F0 00000001     V   26782 23784  24000
 =X'0A'        1 00001D12 00000001     X   17993 16026  17119
 =X'0A'        1 000021E1 00000001     X   19656 19508
 =X'0D0A'      2 00001CFA 00000001     X   17984 15501  15986  16006  17099
 =X'0D0A'      2 000021D2 00000001     X   19652 19488
1NPAT     (NPAT2193) (12:50) (15MAR04) Ordinary Symbol and Literal Cross Reference                                          Page  183
 =X'0D0A'      2 000034A6 00000001     X   26818 25089
 =X'03'        1 00001D11 00000001     X   17992 15783
 =X'15'        1 00001D13 00000001     X   17994 16577  16838  17569  17802
 =X'2F'        1 00001D14 00000001     X   17995 16970
 =X'5B5D'      2 00001CF6 00000001     X   17982 14939
 =X'5B5D'      2 000021CA 00000001     X   19648 18578
 =X'53414D444154413A'
               8 00001248 00000001     X   13744 11539
 =Y((L'CPSEG+1024+3)/4*4)
               2 000004EA 00000001     Y    9066  8405
 =Y((R1+1-(R0)+16*((R0)/(R1+1))/((R0)/(R1+1)))*4)
               2 00001308 00000001     Y   13777 11180
 =Y((R1+1-(R0)+16*((R0)/(R1+1))/((R0)/(R1+1)))*4)
               2 00002450 00000001     Y   20781 20569
 =Y((R1+1-(R14)+16*((R14)/(R1+1))/((R14)/(R1+1)))*4)
               2 000004DC 00000001     Y    9063  8333
 =Y((R2+1-(R15)+16*((R15)/(R2+1))/((R15)/(R2+1)))*4)
               2 000051D6 00000001     Y   36635 35789
 =Y((R3+1-(R2)+16*((R2)/(R3+1))/((R2)/(R3+1)))*4)
               2 0000244E 00000001     Y   20780 20533
 =Y((32+3)/4*4)
               2 000004E8 00000001     Y    9065  8401
 =Y((4+3)/4*4)
               2 0000130E 00000001     Y   13780 12032
 =Y((4+3)/4*4)
               2 00004A36 00000001     Y   33947 33815
 =Y(CVETRC#)
               2 000051DA 00000001     Y   36637 36010
 =Y(4)         2 0000130C 00000001     Y   13779 11631

1NPAT     (NPAT2193) (12:50) (15MAR04) Macro and Copy Code Source Summary                                                   Page  184
- Con Source                                        Volume    Members                        HLASM R4.0  2004/03/15 12.50
0     PRIMARY INPUT                                           CSECT    DROP     END      EX       LTORG    POP
                                                              PRINT    PUSH     START    USING
   L1 WYL.GS.WYL.WYLBUR.MACLIB                      SYSB05    AINFO    BASE     BTD      CELLBLOK COLINFO  CONTROL  CP
                                                              CPLOCAL  CURS     CV       CVLOCAL  DTB      FAIL
                                                              GETRSC   HEXDUMP  JCB      KAPUT    LOADRTNP PAUSE
                                                              PUTCB    RG       SCANCB   SCRYPTWA SEGINIT  SETUP    TCR
                                                              TCURS    THEX     TMARK    TNUM     TPOP     TPUSH
                                                              TREAD    TREND    TSEG     TTYPE    TWRITE   UNET
                                                              UPATH    VLTORG   XTRACE
   L2 WYL.GG.SYS.MACLIB                             SYSB05    $BC      $BFLKUP  $BV      $CCLKUP  $CRS     $CSS     $L
                                                              $LA      $LBLAD   $LEXP    $LOR     $REL     $RGLKUP
                                                              $USLKUP  ACALL    BEGIN    CEIL     CLEAR    COMPROC
                                                              CSECT    DATA     DECR     DEFCC    DEX      DROP     DTEX
                                                              ELSE     ELSEIF   END      EX       EXIT     FLAG     FLIP
                                                              FLOOR    GEN      HIBAL    IDENT    IF       INCR
                                                              LABEL    LC       LCALL    LOOP     LS       LT       LTH
                                                              LTORG    MOVE     MOVEL    PEND     POP      PRESTORE
                                                              PRETURN  PRINT    PROC     PUSH     QLTORG   RECORD   REG
                                                              REGS     SET      SETMSG   START    TDEX     UNTIL
                                                              USING    VCALL    WHILE    WITH     XPROC    ZOT
   L3 SYS3.IS.MACLIB                                SYSB05    DEFINE   KWR      SEG      SEGCB    SEGCOL   SEGCR
                                                              SEGDC    SEGDEF   SEGHX    SEGLD    SEGMARK  SEGT
                                                              SEGWR    SIB      SYSDEFN  XPOP     XPUSH
   L4 SYS3.MACLIB                                   SYSB02    PATH     QSNAP
   L5 SYS1.MACLIB                                   MVSBR9    FREEMAIN GETMAIN  SYSSTATE

1NPAT     (NPAT2193) (12:50) (15MAR04) Dsect Cross Reference                                                                Page  185
-Dsect     Length      Id       Defn                                                         HLASM R4.0  2004/03/15 12.50
0$$$@R0   00000000  FFFFFFFE     705
 $$$@R1   00000000  FFFFFFFD     718
 $$$@R10  00000000  FFFFFFF4     835
 $$$@R11  00000000  FFFFFFF3     848
 $$$@R12  00000000  FFFFFFF2     861
 $$$@R13  00000000  FFFFFFF1     874
 $$$@R14  00000000  FFFFFFF0     887
 $$$@R15  00000000  FFFFFFEF     900
 $$$@R2   00000000  FFFFFFFC     731
 $$$@R3   00000000  FFFFFFFB     744
 $$$@R4   00000000  FFFFFFFA     757
 $$$@R5   00000000  FFFFFFF9     770
 $$$@R6   00000000  FFFFFFF8     783
 $$$@R7   00000000  FFFFFFF7     796
 $$$@R8   00000000  FFFFFFF6     809
 $$$@R9   00000000  FFFFFFF5     822
 $$$RCP   00001000  FFFFFFEC    2469
 $$$RCTRC 00000020  FFFFFFE4    7534
 $$$RCV   00000FB0  FFFFFFEE    1194
 $$$RDEV  0000000C  FFFFFFEB    4683
 $$$RETRC 0000001A  FFFFFFE1    7684
 $$$RFIELDWA
          00000040  FFFFFFD7   24056
 $$$RINBUF
          00000008  FFFFFFE2    7660
 $$$RJCB  000000D0  FFFFFFE9    6321
 $$$RKWR  000001F8  FFFFFFE8    6601
 $$$RNCLSWA
          00000004  FFFFFFD4   32248
 $$$RNPOWA
          00000028  FFFFFFE0    9090
 $$$RNPWA 00000080  FFFFFFD5   31536
 $$$RNPXRWA
          00000001  FFFFFFDF   11272
 $$$RNSCNCB
          000000B0  FFFFFFED    2390
 $$$RNTKWA
          0000040C  FFFFFFDE   13830
 $$$RNVWWA
          00000414  FFFFFFDD   18021
 $$$RSCRYPTWA
          0000002C  FFFFFFE3    7565
 $$$RSEGCB
          0000003C  FFFFFFE7    6812
 $$$RSHTRWA
          00000008  FFFFFFD6   26845
 $$$RTTYPE
          0000010C  FFFFFFEA    6214
 $$$RUNET 00000278  FFFFFFE5    7072
 $$$RUPATH
          000000B0  FFFFFFE6    6923
 $$$RVDFMWA
          00000127  FFFFFFDC   19673
 $$$RVDMSGWA
          000000EB  FFFFFFD8   23082
1NPAT     (NPAT2193) (12:50) (15MAR04) Dsect Cross Reference                                                                Page  186
 $$$RVDPFWA
          00000167  FFFFFFDB   20237
 $$$RVDSTWA
          00000127  FFFFFFD9   22291
 $$$RVDWRWA
          000000EF  FFFFFFDA   20799
 HIBAL    00000000  FFFFFFFF     691

1NPAT     (NPAT2193) (12:50) (15MAR04) Using Map                                                                            Page  187
-                                                                                            HLASM R4.0  2004/03/15 12.50
   Stmt  -----Location----- Action ----------------Using----------------- Reg Max    Last  Label and Using Text
           Count      Id           Type          Value    Range     Id        Disp   Stmt
0   922  00000000  FFFFFFFF USING  ORDINARY    00000000 00001000 FFFFFFEF  15 000          @R15,15
    926  00000000  FFFFFFFF USING  ORDINARY    00000000 00001000 FFFFFFF0  14 024    8335  @R14,14
    930  00000000  FFFFFFFF USING  ORDINARY    00000000 00001000 FFFFFFF1  13 000   33816  @R13,13
    934  00000000  FFFFFFFF USING  ORDINARY    00000000 00001000 FFFFFFF2  12 000          @R12,12
    938  00000000  FFFFFFFF USING  ORDINARY    00000000 00001000 FFFFFFF3  11 000          @R11,11
    942  00000000  FFFFFFFF USING  ORDINARY    00000000 00001000 FFFFFFF4  10 000          @R10,10
    946  00000000  FFFFFFFF USING  ORDINARY    00000000 00001000 FFFFFFF5   9 000          @R9,9
    950  00000000  FFFFFFFF USING  ORDINARY    00000000 00001000 FFFFFFF6   8 000          @R8,8
    954  00000000  FFFFFFFF USING  ORDINARY    00000000 00001000 FFFFFFF7   7 000          @R7,7
    958  00000000  FFFFFFFF USING  ORDINARY    00000000 00001000 FFFFFFF8   6 000          @R6,6
    962  00000000  FFFFFFFF USING  ORDINARY    00000000 00001000 FFFFFFF9   5 000          @R5,5
    966  00000000  FFFFFFFF USING  ORDINARY    00000000 00001000 FFFFFFFA   4 000          @R4,4
    970  00000000  FFFFFFFF USING  ORDINARY    00000000 00001000 FFFFFFFB   3 004   24616  @R3,3
    974  00000000  FFFFFFFF USING  ORDINARY    00000000 00001000 FFFFFFFC   2 001   11690  @R2,2
    978  00000000  FFFFFFFF USING  ORDINARY    00000000 00001000 FFFFFFFD   1 014    8247  @R1,1
    982  00000000  FFFFFFFF USING  ORDINARY    00000000 00001000 FFFFFFFE   0 000          @R0,0
    983  00000000  FFFFFFFF DROP                                            0              0
   1178  00000017  00000001 USING  ORDINARY    00000000 00001000 FFFFFFEC  11 D5A   30779  CP,CPR
   1187  00000017  00000001 USING  ORDINARY    00000000 00001000 FFFFFFEE  12 A00   36582  CV,CVR
   7762  000000AA  00000001 USING  ORDINARY    000000AA 00001000 00000001   7 442    7912  $$$63B,7
   7817  000000C4  00000001 USING  ORDINARY    00000000 00001000 FFFFFFE5   4 164    7888  UNET,R4
   7902  000000F6  00000001 USING  ORDINARY    00000000 00001000 FFFFFFFA   4 000          @R4,4
   7933  0000010A  00000001 USING  ORDINARY    00000000 00001000 FFFFFFF7   7 000          @R7,7
   7994  00000132  00000001 USING  ORDINARY    00000132 00001000 00000001   7 3D8    8439  $$$72B,7
   8111  00000178  00000001 USING  ORDINARY    00000000 00001000 FFFFFFE5   4 200    8409  UNET,R4
   8207  000001D6  00000001 USING  ORDINARY    00000000 00001000 FFFFFFE9  15 04A    8213  JCB,R15
   8220  000001E2  00000001 USING  ORDINARY    00000000 00001000 FFFFFFEF  15 002   21403  @R15,15
   8422  000002C8  00000001 USING  ORDINARY    00000000 00001000 FFFFFFFA   4 004   26470  @R4,4
   8449  000002E0  00000001 USING  ORDINARY    00000000 00001000 FFFFFFF7   7 000          @R7,7
   8507  00000308  00000001 USING  ORDINARY    00000308 00001000 00000001   7 1AC    8570  $$$85B,7
   8526  0000030A  00000001 USING  ORDINARY    00000000 00001000 FFFFFFE5   6 02C    8604  UNET,R6
   8598  00000354  00000001 USING  ORDINARY    00000000 00001000 FFFFFFE9   5 04A    8604  JCB,R5
   8611  00000360  00000001 USING  ORDINARY    00000000 00001000 FFFFFFF9   5 000          @R5,5
   8624  00000362  00000001 USING  ORDINARY    00000000 00001000 FFFFFFF8   6 000          @R6,6
   8629  00000362  00000001 USING  ORDINARY    00000000 00001000 FFFFFFF7   7 000          @R7,7
   8686  0000038A  00000001 USING  ORDINARY    0000038A 00001000 00000001   7 12A    8749  $$$90B,7
   8705  0000038C  00000001 USING  ORDINARY    00000000 00001000 FFFFFFE5   6 02C    8786  UNET,R6
   8798  000003E2  00000001 USING  ORDINARY    00000000 00001000 FFFFFFF8   6 000          @R6,6
   8803  000003E2  00000001 USING  ORDINARY    00000000 00001000 FFFFFFF7   7 000          @R7,7
   8863  0000040A  00000001 USING  ORDINARY    0000040A 00001000 00000001   7 111    8999  $$$95B,7
   8940  0000043E  00000001 USING  ORDINARY    00000000 00001000 FFFFFFE5   1 010    8986  UNET,R1
   9010  0000047A  00000001 USING  ORDINARY    00000000 00001000 FFFFFFFD   1 000          @R1,1
   9023  0000047C  00000001 USING  ORDINARY    00000000 00001000 FFFFFFF7   7 000          @R7,7
   9145  00000544  00000001 USING  ORDINARY    00000544 00001000 00000001   7 E1D   10160  $$$102B,7
   9159  00000544  00000001 USING  ORDINARY    FFFFFFE0 00001000 FFFFFFE0   8 020    9169  NPOWA-(4+28),R8
   9181  0000054C  00000001 USING  ORDINARY    00000000 00001000 FFFFFFE5   6 1D8   10147  UNET,R6
   9398  000005F8  00000001 USING  ORDINARY    00000000 00001000 FFFFFFE6   5 090    9431  UPATH,R5
   9466  0000063C  00000001 USING  ORDINARY    00000000 00001000 FFFFFFF9   5 001   11690  @R5,5
   9576  00000688  00000001 DROP                                            1              1
   9580  0000068E  00000001 USING  ORDINARY    00000000 00001000 FFFFFFFD   1 000          @R1,1
   9619  000006AC  00000001 DROP                                            1              1
   9623  000006B2  00000001 USING  ORDINARY    00000000 00001000 FFFFFFFD   1 000          @R1,1
   9662  000006D0  00000001 DROP                                            1              1
1NPAT     (NPAT2193) (12:50) (15MAR04) Using Map                                                                            Page  188
   9666  000006D6  00000001 USING  ORDINARY    00000000 00001000 FFFFFFFD   1 000          @R1,1
   9705  000006F4  00000001 DROP                                            1              1
   9709  000006FA  00000001 USING  ORDINARY    00000000 00001000 FFFFFFFD   1 100   11565  @R1,1
  10174  0000084A  00000001 USING  ORDINARY    00000000 00001000 FFFFFFF8   6 000          @R6,6
  10179  0000084A  00000001 USING  ORDINARY    00000000 00001000 FFFFFFF6   8 000          @R8,8
  10184  0000084A  00000001 USING  ORDINARY    00000000 00001000 FFFFFFF7   7 000          @R7,7
  10244  00000872  00000001 USING  ORDINARY    00000872 00001000 00000001   7 AF4   10515  $$$124B,7
  10263  00000874  00000001 USING  ORDINARY    00000000 00001000 FFFFFFE5   6 170   10507  UNET,R6
  10527  00000914  00000001 USING  ORDINARY    00000000 00001000 FFFFFFF8   6 000          @R6,6
  10532  00000914  00000001 USING  ORDINARY    00000000 00001000 FFFFFFF7   7 000          @R7,7
  10592  0000093C  00000001 USING  ORDINARY    0000093C 00001000 00000001   7 A92   11214  $$$133B,7
  10611  0000093E  00000001 USING  ORDINARY    00000000 00001000 FFFFFFE5   6 168   11194  UNET,R6
  11233  00000AAA  00000001 USING  ORDINARY    00000000 00001000 FFFFFFF8   6 000          @R6,6
  11238  00000AAA  00000001 USING  ORDINARY    00000000 00001000 FFFFFFF7   7 000          @R7,7
  11344  00000AD2  00000001 USING  ORDINARY    00000AD2 00001000 00000001   7 902   11684  $$$167B,7
  11358  00000AD2  00000001 USING  ORDINARY    FFFFFFE0 00001000 FFFFFFDF   8 020   11683  NPXRWA-(4+28),R8
  11381  00000ADC  00000001 USING  ORDINARY    00000000 00001000 FFFFFFE5   6 158   11667  UNET,R6
  11724  00000BDC  00000001 USING  ORDINARY    00000000 00001000 FFFFFFF8   6 000          @R6,6
  11729  00000BDC  00000001 USING  ORDINARY    00000000 00001000 FFFFFFF6   8 000          @R8,8
  11734  00000BDC  00000001 USING  ORDINARY    00000000 00001000 FFFFFFF7   7 000          @R7,7
  11792  00000C04  00000001 USING  ORDINARY    00000C04 00001000 00000001   7 7B7   12350  $$$185B,7
  11811  00000C06  00000001 USING  ORDINARY    00000000 00001000 FFFFFFE5   6 170   12315  UNET,R6
  11851  00000C16  00000001 USING  ORDINARY    00000000 00001000 FFFFFFE2   1 004   11857  INBUF,R1
  11864  00000C1A  00000001 USING  ORDINARY    00000000 00001000 FFFFFFFD   1 100   27393  @R1,1
  12078  00000C9C  00000001 USING  ORDINARY    00000000 00001000 FFFFFFE2   5 008   12129  INBUF,R5
  12183  00000CE2  00000001 USING  ORDINARY    00000000 00001000 FFFFFFF9   5 002   13701  @R5,5
  12361  00000D66  00000001 USING  ORDINARY    00000000 00001000 FFFFFFF8   6 000          @R6,6
  12366  00000D66  00000001 USING  ORDINARY    00000000 00001000 FFFFFFF7   7 000          @R7,7
  12428  00000D8E  00000001 USING  ORDINARY    00000D8E 00001000 00000001   7 64C   13579  $$$202B,7
  12447  00000D90  00000001 USING  ORDINARY    00000000 00001000 FFFFFFE5   6 1DC   13576  UNET,R6
  12557  00000DCA  00000001 DROP                                            2              2
  12561  00000DD0  00000001 USING  ORDINARY    00000000 00001000 FFFFFFFC   2 000          @R2,2
  12724  00000FA8  00000001 DROP                                            2              2
  12728  00000FAE  00000001 USING  ORDINARY    00000000 00001000 FFFFFFFC   2 000          @R2,2
  12892  00001004  00000001 DROP                                            2              2
  12896  0000100A  00000001 USING  ORDINARY    00000000 00001000 FFFFFFFC   2 000          @R2,2
  12955  00001028  00000001 DROP                                            2              2
  12959  0000102E  00000001 USING  ORDINARY    00000000 00001000 FFFFFFFC   2 000          @R2,2
  13197  000010B0  00000001 DROP                                            2              2
  13201  000010B6  00000001 USING  ORDINARY    00000000 00001000 FFFFFFFC   2 000          @R2,2
  13231  000010CE  00000001 DROP                                            2              2
  13235  000010D4  00000001 USING  ORDINARY    00000000 00001000 FFFFFFFC   2 000   14366  @R2,2
  13588  000011AA  00000001 USING  ORDINARY    00000000 00001000 FFFFFFF8   6 000          @R6,6
  13593  000011AA  00000001 USING  ORDINARY    00000000 00001000 FFFFFFF7   7 000          @R7,7
  13652  000011D2  00000001 USING  ORDINARY    000011D2 00001000 00000001   7 01A   13692  $$$234B,7
  13716  000011EC  00000001 USING  ORDINARY    00000000 00001000 FFFFFFF7   7 000          @R7,7
  13980  000013FA  00000001 USING  ORDINARY    000013FA 00001000 00000001   7 90D   14974  $$$239B,7
  13994  000013FA  00000001 USING  ORDINARY    FFFFFFE0 00001000 FFFFFFDE   8 020   14042  NTKWA-(4+28),R8
  14008  000013FC  00000001 USING  ORDINARY    00000000 00001000 FFFFFFE5   6 1D0   14986  UNET,R6
  14052  00001422  00000001 USING  ORDINARY    00000000 00001000 FFFFFFDE   5 110   14992  NTKWA,R5
  15001  00001650  00000001 USING  ORDINARY    00000000 00001000 FFFFFFF9   5 000          @R5,5
  15006  00001650  00000001 USING  ORDINARY    00000000 00001000 FFFFFFF8   6 000          @R6,6
  15011  00001650  00000001 USING  ORDINARY    00000000 00001000 FFFFFFF6   8 000          @R8,8
  15016  00001650  00000001 USING  ORDINARY    00000000 00001000 FFFFFFF7   7 000          @R7,7
  15073  00001678  00000001 USING  ORDINARY    00001678 00001000 00000001   7 69A   16183  $$$270B,7
  15091  00001678  00000001 USING  ORDINARY    00000000 00001000 FFFFFFE5   6 167   16177  UNET,R6
  15101  00001678  00000001 USING  ORDINARY    00000000 00001000 FFFFFFDE   5 110   15901  NTKWA,R5
  15755  000017E2  00000001 USING  ORDINARY    00000000 00001000 FFFFFFE9   2 062   15772  JCB,R2
  15779  000017EA  00000001 USING  ORDINARY    00000000 00001000 FFFFFFFC   2 000          @R2,2
1NPAT     (NPAT2193) (12:50) (15MAR04) Using Map                                                                            Page  189
  16192  000018C6  00000001 USING  ORDINARY    00000000 00001000 FFFFFFF9   5 000          @R5,5
  16197  000018C6  00000001 USING  ORDINARY    00000000 00001000 FFFFFFF8   6 000          @R6,6
  16202  000018C6  00000001 USING  ORDINARY    00000000 00001000 FFFFFFF7   7 000          @R7,7
  16258  000018EE  00000001 USING  ORDINARY    000018EE 00001000 00000001   7 426   17211  $$$306B,7
  16276  000018EE  00000001 USING  ORDINARY    00000000 00001000 FFFFFFE5   6 167   17179  UNET,R6
  16286  000018EE  00000001 USING  ORDINARY    00000000 00001000 FFFFFFDE   5 110   17194  NTKWA,R5
  17018  00001AA2  00000001 USING  ORDINARY    00000000 00001000 FFFFFFE9   2 062   17035  JCB,R2
  17042  00001AAA  00000001 USING  ORDINARY    00000000 00001000 FFFFFFFC   2 001   25020  @R2,2
  17220  00001B12  00000001 USING  ORDINARY    00000000 00001000 FFFFFFF9   5 000          @R5,5
  17225  00001B12  00000001 USING  ORDINARY    00000000 00001000 FFFFFFF8   6 000          @R6,6
  17230  00001B12  00000001 USING  ORDINARY    00000000 00001000 FFFFFFF7   7 000          @R7,7
  17282  00001B3A  00000001 USING  ORDINARY    00001B3A 00001000 00000001   7 1D9   17921  $$$340B,7
  17300  00001B3A  00000001 USING  ORDINARY    00000000 00001000 FFFFFFE5   6 167   17453  UNET,R6
  17310  00001B3A  00000001 USING  ORDINARY    00000000 00001000 FFFFFFDE   5 110   17920  NTKWA,R5
  17930  00001C98  00000001 USING  ORDINARY    00000000 00001000 FFFFFFF9   5 000          @R5,5
  17935  00001C98  00000001 USING  ORDINARY    00000000 00001000 FFFFFFF8   6 000          @R6,6
  17940  00001C98  00000001 USING  ORDINARY    00000000 00001000 FFFFFFF7   7 000          @R7,7
  18165  00001D30  00000001 USING  ORDINARY    00001D30 00001000 00000001   7 4A7   18609  $$$366B,7
  18179  00001D30  00000001 USING  ORDINARY    FFFFFFE0 00001000 FFFFFFDD   8 020   18227  NVWWA-(4+28),R8
  18193  00001D32  00000001 USING  ORDINARY    00000000 00001000 FFFFFFE5   6 163   18621  UNET,R6
  18237  00001D58  00000001 USING  ORDINARY    00000000 00001000 FFFFFFDD   5 118   18627  NVWWA,R5
  18636  00001E72  00000001 USING  ORDINARY    00000000 00001000 FFFFFFF9   5 000          @R5,5
  18641  00001E72  00000001 USING  ORDINARY    00000000 00001000 FFFFFFF8   6 000          @R6,6
  18646  00001E72  00000001 USING  ORDINARY    00000000 00001000 FFFFFFF6   8 000          @R8,8
  18651  00001E72  00000001 USING  ORDINARY    00000000 00001000 FFFFFFF7   7 000          @R7,7
  18708  00001E9A  00000001 USING  ORDINARY    00001E9A 00001000 00000001   7 BC6   19568  $$$376B,7
  18726  00001E9A  00000001 USING  ORDINARY    00000000 00001000 FFFFFFE5   6 268   19567  UNET,R6
  18736  00001E9A  00000001 USING  ORDINARY    00000000 00001000 FFFFFFDD   5 118   19366  NVWWA,R5
  19584  000020CE  00000001 USING  ORDINARY    00000000 00001000 FFFFFFF9   5 000          @R5,5
  19589  000020CE  00000001 USING  ORDINARY    00000000 00001000 FFFFFFF8   6 000          @R6,6
  19594  000020CE  00000001 USING  ORDINARY    00000000 00001000 FFFFFFF7   7 000          @R7,7
  19810  000021FC  00000001 USING  ORDINARY    000021FC 00001000 00000001   7 C6D   20192  $$$414B,7
  19824  000021FC  00000001 USING  ORDINARY    FFFFFFD8 00001000 FFFFFFDC   8 000          VDFMWA-(4+36),R8
  19837  000021FC  00000001 USING  ORDINARY    00000000 00001000 FFFFFFE5   6 25C   20189  UNET,R6
  19847  000021FC  00000001 USING  ORDINARY    00000000 00001000 FFFFFFDD   5 000          NVWWA,R5
  20199  0000230C  00000001 USING  ORDINARY    00000000 00001000 FFFFFFF9   5 000          @R5,5
  20204  0000230C  00000001 USING  ORDINARY    00000000 00001000 FFFFFFF8   6 000          @R6,6
  20209  0000230C  00000001 USING  ORDINARY    00000000 00001000 FFFFFFF6   8 000          @R8,8
  20214  0000230C  00000001 USING  ORDINARY    00000000 00001000 FFFFFFF7   7 000          @R7,7
  20375  00002334  00000001 USING  ORDINARY    00002334 00001000 00000001   7 11E   20725  $$$425B,7
  20389  00002334  00000001 USING  ORDINARY    FFFFFFD8 00001000 FFFFFFDB   8 0A4   20518  VDPFWA-(4+36),R8
  20402  00002334  00000001 USING  ORDINARY    00000000 00001000 FFFFFFE5   6 250   20653  UNET,R6
  20412  00002334  00000001 USING  ORDINARY    00000000 00001000 FFFFFFDD   5 000          NVWWA,R5
  20734  00002420  00000001 USING  ORDINARY    00000000 00001000 FFFFFFF9   5 000          @R5,5
  20739  00002420  00000001 USING  ORDINARY    00000000 00001000 FFFFFFF8   6 000          @R6,6
  20744  00002420  00000001 USING  ORDINARY    00000000 00001000 FFFFFFF6   8 000          @R8,8
  20749  00002420  00000001 USING  ORDINARY    00000000 00001000 FFFFFFF7   7 000          @R7,7
  20849  0000247E  00000001 USING  ORDINARY    0000247E 00001000 00000001   7 9EA   21611  $$$436B,7
  20863  0000247E  00000001 USING  ORDINARY    FFFFFFD8 00001000 FFFFFFDA   8 02C   21364  VDWRWA-(4+36),R8
  20876  0000247E  00000001 USING  ORDINARY    00000000 00001000 FFFFFFE5   6 260   21611  UNET,R6
  20886  0000247E  00000001 USING  ORDINARY    00000000 00001000 FFFFFFDD   5 118   20895  NVWWA,R5
  21624  00002660  00000001 USING  ORDINARY    00000000 00001000 FFFFFFF9   5 000          @R5,5
  21629  00002660  00000001 USING  ORDINARY    00000000 00001000 FFFFFFF8   6 000          @R6,6
  21634  00002660  00000001 USING  ORDINARY    00000000 00001000 FFFFFFF6   8 000          @R8,8
  21639  00002660  00000001 USING  ORDINARY    00000000 00001000 FFFFFFF7   7 000          @R7,7
  21713  000026B8  00000001 USING  ORDINARY    000026B8 00001000 00000001   7 D04   21794  $$$461B,7
  21731  000026B8  00000001 USING  ORDINARY    00000000 00001000 FFFFFFE5   6 254   21797  UNET,R6
  21741  000026B8  00000001 USING  ORDINARY    00000000 00001000 FFFFFFDD   5 000          NVWWA,R5
  21809  000026E2  00000001 USING  ORDINARY    00000000 00001000 FFFFFFF9   5 000          @R5,5
1NPAT     (NPAT2193) (12:50) (15MAR04) Using Map                                                                            Page  190
  21814  000026E2  00000001 USING  ORDINARY    00000000 00001000 FFFFFFF8   6 000          @R6,6
  21819  000026E2  00000001 USING  ORDINARY    00000000 00001000 FFFFFFF7   7 000          @R7,7
  21868  0000270A  00000001 USING  ORDINARY    0000270A 00001000 00000001   7 D4A   21950  $$$467B,7
  21886  0000270A  00000001 USING  ORDINARY    00000000 00001000 FFFFFFE5   6 254   21957  UNET,R6
  21896  0000270A  00000001 USING  ORDINARY    00000000 00001000 FFFFFFDD   5 000          NVWWA,R5
  21965  00002738  00000001 USING  ORDINARY    00000000 00001000 FFFFFFF9   5 000          @R5,5
  21970  00002738  00000001 USING  ORDINARY    00000000 00001000 FFFFFFF8   6 000          @R6,6
  21975  00002738  00000001 USING  ORDINARY    00000000 00001000 FFFFFFF7   7 000          @R7,7
  22024  00002760  00000001 USING  ORDINARY    00002760 00001000 00000001   7 CF4   22106  $$$473B,7
  22042  00002760  00000001 USING  ORDINARY    00000000 00001000 FFFFFFE5   6 254   22113  UNET,R6
  22052  00002760  00000001 USING  ORDINARY    00000000 00001000 FFFFFFDD   5 000          NVWWA,R5
  22121  0000278E  00000001 USING  ORDINARY    00000000 00001000 FFFFFFF9   5 000          @R5,5
  22126  0000278E  00000001 USING  ORDINARY    00000000 00001000 FFFFFFF8   6 000          @R6,6
  22131  0000278E  00000001 USING  ORDINARY    00000000 00001000 FFFFFFF7   7 000          @R7,7
  22180  000027B6  00000001 USING  ORDINARY    000027B6 00001000 00000001   7 00E   22223  $$$479B,7
  22198  000027B6  00000001 USING  ORDINARY    00000000 00001000 FFFFFFE5   6 268   22252  UNET,R6
  22208  000027B6  00000001 USING  ORDINARY    00000000 00001000 FFFFFFDD   5 000          NVWWA,R5
  22260  000027DA  00000001 USING  ORDINARY    00000000 00001000 FFFFFFF9   5 000          @R5,5
  22265  000027DA  00000001 USING  ORDINARY    00000000 00001000 FFFFFFF8   6 000          @R6,6
  22270  000027DA  00000001 USING  ORDINARY    00000000 00001000 FFFFFFF7   7 000          @R7,7
  22428  00002802  00000001 USING  ORDINARY    00002802 00001000 00000001   7 CDB   23035  $$$491B,7
  22442  00002802  00000001 USING  ORDINARY    FFFFFFD8 00001000 FFFFFFD9   8 064   23024  VDSTWA-(4+36),R8
  22455  00002802  00000001 USING  ORDINARY    00000000 00001000 FFFFFFE5   6 250   22990  UNET,R6
  22465  00002802  00000001 USING  ORDINARY    00000000 00001000 FFFFFFDD   5 000          NVWWA,R5
  23044  000029A4  00000001 USING  ORDINARY    00000000 00001000 FFFFFFF9   5 000          @R5,5
  23049  000029A4  00000001 USING  ORDINARY    00000000 00001000 FFFFFFF8   6 000          @R6,6
  23054  000029A4  00000001 USING  ORDINARY    00000000 00001000 FFFFFFF6   8 000          @R8,8
  23059  000029A4  00000001 USING  ORDINARY    00000000 00001000 FFFFFFF7   7 000          @R7,7
  23131  000029CC  00000001 USING  ORDINARY    000029CC 00001000 00000001   7 ABA   23337  $$$503B,7
  23145  000029CC  00000001 USING  ORDINARY    FFFFFFD8 00001000 FFFFFFD8   8 028   23207  VDMSGWA-(4+36),R8
  23158  000029CC  00000001 USING  ORDINARY    00000000 00001000 FFFFFFE5   6 222   23203  UNET,R6
  23168  000029CC  00000001 USING  ORDINARY    00000000 00001000 FFFFFFDD   5 000          NVWWA,R5
  23350  00002A52  00000001 USING  ORDINARY    00000000 00001000 FFFFFFF9   5 000          @R5,5
  23355  00002A52  00000001 USING  ORDINARY    00000000 00001000 FFFFFFF8   6 000          @R6,6
  23360  00002A52  00000001 USING  ORDINARY    00000000 00001000 FFFFFFF6   8 000          @R8,8
  23365  00002A52  00000001 USING  ORDINARY    00000000 00001000 FFFFFFF7   7 000          @R7,7
  23427  00002A7A  00000001 USING  ORDINARY    00002A7A 00001000 00000001   7 A75   24004  $$$507B,7
  23445  00002A7A  00000001 USING  ORDINARY    00000000 00001000 FFFFFFE5   6 250   23938  UNET,R6
  23455  00002A7A  00000001 USING  ORDINARY    00000000 00001000 FFFFFFDD   5 000   23975  NVWWA,R5
  24016  00002BCE  00000001 USING  ORDINARY    00000000 00001000 FFFFFFF9   5 002   24346  @R5,5
  24021  00002BCE  00000001 USING  ORDINARY    00000000 00001000 FFFFFFF8   6 000          @R6,6
  24026  00002BCE  00000001 USING  ORDINARY    00000000 00001000 FFFFFFF7   7 000          @R7,7
  24131  00002BF6  00000001 USING  ORDINARY    00002BF6 00001000 00000001   7 90A   24663  $$$518B,7
  24145  00002BF6  00000001 USING  ORDINARY    FFFFFFE0 00001000 FFFFFFD7   8 038   24677  FIELDWA-(4+28),R8
  24158  00002BF6  00000001 USING  ORDINARY    00000000 00001000 FFFFFFE5   6 268   24623  UNET,R6
  24684  00002D4A  00000001 USING  ORDINARY    00000000 00001000 FFFFFFF8   6 000          @R6,6
  24689  00002D4A  00000001 USING  ORDINARY    00000000 00001000 FFFFFFF6   8 000          @R8,8
  24694  00002D4A  00000001 USING  ORDINARY    00000000 00001000 FFFFFFF7   7 000          @R7,7
  24770  00002E9A  00000001 USING  ORDINARY    00002E9A 00001000 00000001   7 66C   25645  $$$546B,7
  24790  00002E9C  00000001 USING  ORDINARY    00000000 00001000 FFFFFFE7   5 038   25628  SEGCB,R5
  24804  00002EA0  00000001 USING  ORDINARY    00000000 00001000 FFFFFFE5   6 170   25640  UNET,R6
  25325  00002FC8  00000001 USING  ORDINARY    00000000 00001000 FFFFFFE6  15 010   25337  UPATH,R15
  25348  00002FD2  00000001 USING  ORDINARY    00000000 00001000 FFFFFFEF  15 000   27541  @R15,15
  25658  000030AA  00000001 USING  ORDINARY    00000000 00001000 FFFFFFF8   6 000          @R6,6
  25663  000030AA  00000001 USING  ORDINARY    00000000 00001000 FFFFFFF9   5 000          @R5,5
  25668  000030AA  00000001 USING  ORDINARY    00000000 00001000 FFFFFFF7   7 000          @R7,7
  25730  000030D2  00000001 USING  ORDINARY    000030D2 00001000 00000001   7 427   26165  $$$580B,7
  25749  000030D4  00000001 USING  ORDINARY    00000000 00001000 FFFFFFE5   5 161   25960  UNET,R5
  25763  000030D8  00000001 USING  ORDINARY    00000000 00001000 FFFFFFE9   6 063   26156  JCB,R6
1NPAT     (NPAT2193) (12:50) (15MAR04) Using Map                                                                            Page  191
  26002  000031B0  00000001 USING  ORDINARY    00000000 00001000 FFFFFFF9   5 000          @R5,5
  26005  000031B0  00000001 USING  ORDINARY    00000000 00001000 FFFFFFE5   3 014   26082  UNET,R3
  26096  000031F0  00000001 USING  ORDINARY    00000000 00001000 FFFFFFE5   5 0FC   26131  UNET,5
  26101  000031F0  00000001 USING  ORDINARY    00000000 00001000 FFFFFFFB   3 001   26471  @R3,3
  26178  00003228  00000001 USING  ORDINARY    00000000 00001000 FFFFFFF8   6 000          @R6,6
  26183  00003228  00000001 USING  ORDINARY    00000000 00001000 FFFFFFF9   5 000          @R5,5
  26188  00003228  00000001 USING  ORDINARY    00000000 00001000 FFFFFFF7   7 000          @R7,7
  26249  00003250  00000001 USING  ORDINARY    00003250 00001000 00000001   7 1F8   26475  $$$596B,7
  26268  00003254  00000001 USING  ORDINARY    00000000 00001000 FFFFFFE9   6 000          JCB,R6
  26321  0000326E  00000001 USING  ORDINARY    00000000 00001000 FFFFFFE5   5 161   26454  UNET,R5
  26465  000032F0  00000001 USING  ORDINARY    00000000 00001000 FFFFFFF9   5 000          @R5,5
  26489  000032FE  00000001 USING  ORDINARY    00000000 00001000 FFFFFFF8   6 000          @R6,6
  26494  000032FE  00000001 USING  ORDINARY    00000000 00001000 FFFFFFF7   7 000          @R7,7
  26546  00003326  00000001 USING  ORDINARY    00003326 00001000 00000001   7 030   26651  $$$607B,7
  26565  0000332A  00000001 USING  ORDINARY    00000000 00001000 FFFFFFE9   6 000          JCB,R6
  26589  00003330  00000001 USING  ORDINARY    00000000 00001000 FFFFFFE5   3 014   26638  UNET,R3
  26648  00003352  00000001 USING  ORDINARY    00000000 00001000 FFFFFFFB   3 014   35485  @R3,3
  26664  00003358  00000001 USING  ORDINARY    00000000 00001000 FFFFFFF8   6 000          @R6,6
  26669  00003358  00000001 USING  ORDINARY    00000000 00001000 FFFFFFF7   7 000          @R7,7
  26721  00003380  00000001 USING  ORDINARY    00003380 00001000 00000001   7 0D0   26736  $$$613B,7
  26744  0000338C  00000001 USING  ORDINARY    00000000 00001000 FFFFFFF7   7 000          @R7,7
  26895  00003526  00000001 USING  ORDINARY    00003526 00001000 00000001   7 B74   27633  $$$616B,7
  26909  00003526  00000001 USING  ORDINARY    FFFFFFD8 00001000 FFFFFFD6   8 028   27460  SHTRWA-(4+36),R8
  27022  00003570  00000001 USING  ORDINARY    00000000 00001000 FFFFFFE1   6 01A   27345  ETRC,R6
  27630  00003718  00000001 USING  ORDINARY    00000000 00001000 FFFFFFF8   6 000          @R6,6
  27643  0000371C  00000001 USING  ORDINARY    00000000 00001000 FFFFFFF6   8 000          @R8,8
  27648  0000371C  00000001 USING  ORDINARY    00000000 00001000 FFFFFFF7   7 000          @R7,7
  27702  00003744  00000001 USING  ORDINARY    00003744 00001000 00000001   7 A5F   30410  $$$634B,7
  27721  00003746  00000001 USING  ORDINARY    00000000 00001000 FFFFFFE5   5 200   30277  UNET,R5
  28703  000039F4  00000001 DROP                                            1              1
  28707  000039FA  00000001 USING  ORDINARY    00000000 00001000 FFFFFFFD   1 000          @R1,1
  28777  00003A26  00000001 DROP                                            1              1
  28781  00003A2C  00000001 USING  ORDINARY    00000000 00001000 FFFFFFFD   1 000          @R1,1
  29452  00003BD4  00000001 DROP                                            1              1
  29456  00003BDA  00000001 USING  ORDINARY    00000000 00001000 FFFFFFFD   1 000          @R1,1
  29497  00003BF8  00000001 DROP                                            1              1
  29501  00003BFE  00000001 USING  ORDINARY    00000000 00001000 FFFFFFFD   1 000          @R1,1
  29542  00003C1C  00000001 DROP                                            1              1
  29546  00003C22  00000001 USING  ORDINARY    00000000 00001000 FFFFFFFD   1 000          @R1,1
  29587  00003C40  00000001 DROP                                            1              1
  29591  00003C46  00000001 USING  ORDINARY    00000000 00001000 FFFFFFFD   1 000          @R1,1
  29698  00003C92  00000001 DROP                                            1              1
  29702  00003C98  00000001 USING  ORDINARY    00000000 00001000 FFFFFFFD   1 000          @R1,1
  29743  00003CB6  00000001 DROP                                            1              1
  29747  00003CBC  00000001 USING  ORDINARY    00000000 00001000 FFFFFFFD   1 000          @R1,1
  29788  00003CDA  00000001 DROP                                            1              1
  29792  00003CE0  00000001 USING  ORDINARY    00000000 00001000 FFFFFFFD   1 000          @R1,1
  29833  00003CFE  00000001 DROP                                            1              1
  29837  00003D04  00000001 USING  ORDINARY    00000000 00001000 FFFFFFFD   1 000   31752  @R1,1
  30109  00003DC2  00000001 USING  ORDINARY    00000000 00001000 FFFFFFE2   4 008   30169  INBUF,R4
  30180  00003DEA  00000001 USING  ORDINARY    00000000 00001000 FFFFFFFA   4 000          @R4,4
  30422  00003E86  00000001 USING  ORDINARY    00000000 00001000 FFFFFFF9   5 000          @R5,5
  30427  00003E86  00000001 USING  ORDINARY    00000000 00001000 FFFFFFF7   7 000          @R7,7
  30563  000041CA  00000001 USING  ORDINARY    000041CA 00001000 00000001   7 0A3   30782  $$$670B,7
  30582  000041CC  00000001 USING  ORDINARY    00000000 00001000 FFFFFFE4   5 00C   30742  CTRC,R5
  30794  00004244  00000001 USING  ORDINARY    00000000 00001000 FFFFFFF9   5 000          @R5,5
  30799  00004244  00000001 USING  ORDINARY    00000000 00001000 FFFFFFF7   7 000          @R7,7
  30868  0000428C  00000001 USING  ORDINARY    0000428C 00001000 00000001   7 172   30920  $$$676B,7
  30931  000042A8  00000001 USING  ORDINARY    00000000 00001000 FFFFFFF7   7 000          @R7,7
1NPAT     (NPAT2193) (12:50) (15MAR04) Using Map                                                                            Page  192
  30958  000042B6  00000001 USING  ORDINARY    00000000 00001000 FFFFFFF3  11 000          @R11,11
  31000  000042D0  00000001 USING  ORDINARY    000042D0 00001000 00000001   7 6F0   31502  $$$681B,7
  31077  000042F0  00000001 USING  ORDINARY    00000000 00001000 FFFFFFE5   5 161   31484  UNET,R5
  31182  00004332  00000001 USING  ORDINARY    00000000 00001000 FFFFFFE9   6 063   31427  JCB,R6
  31490  000043EC  00000001 USING  ORDINARY    00000000 00001000 FFFFFFF8   6 000          @R6,6
  31499  000043EC  00000001 USING  ORDINARY    00000000 00001000 FFFFFFF9   5 000          @R5,5
  31511  000043F0  00000001 USING  ORDINARY    00000000 00001000 FFFFFFF7   7 000          @R7,7
  31599  00004418  00000001 USING  ORDINARY    00004418 00001000 00000001   7 9B4   32180  $$$703B,7
  31613  00004418  00000001 USING  ORDINARY    FFFFFFD8 00001000 FFFFFFD5   8 028   31617  NPWA-(4+36),R8
  31627  0000441C  00000001 USING  ORDINARY    00000000 00001000 FFFFFFD5   5 008   32131  NPWA,R5
  31642  0000441E  00000001 USING  ORDINARY    00000000 00001000 FFFFFFE6   6 0AC   32177  UPATH,R6
  32202  00004582  00000001 USING  ORDINARY    00000000 00001000 FFFFFFF8   6 000          @R6,6
  32207  00004582  00000001 USING  ORDINARY    00000000 00001000 FFFFFFF9   5 000          @R5,5
  32212  00004582  00000001 USING  ORDINARY    00000000 00001000 FFFFFFF6   8 000          @R8,8
  32217  00004582  00000001 USING  ORDINARY    00000000 00001000 FFFFFFF7   7 000          @R7,7
  32297  000045AA  00000001 USING  ORDINARY    000045AA 00001000 00000001   7 488   32846  $$$733B,7
  32311  000045AA  00000001 USING  ORDINARY    FFFFFFE0 00001000 FFFFFFD4   8 020   32738  NCLSWA-(4+28),R8
  32333  000045B2  00000001 USING  ORDINARY    00000000 00001000 FFFFFFE5   6 170   32728  UNET,R6
  32760  000046CE  00000001 USING  ORDINARY    00000000 00001000 FFFFFFE9   5 014   32766  JCB,R5
  32791  000046D8  00000001 USING  ORDINARY    00000000 00001000 FFFFFFEC   4 222   32828  CP,R4
  32834  00004704  00000001 USING  ORDINARY    00000000 00001000 FFFFFFFA   4 004   33063  @R4,4
  32839  00004704  00000001 USING  ORDINARY    00000000 00001000 FFFFFFF9   5 000          @R5,5
  32859  0000470E  00000001 USING  ORDINARY    00000000 00001000 FFFFFFF8   6 000          @R6,6
  32864  0000470E  00000001 USING  ORDINARY    00000000 00001000 FFFFFFF6   8 000          @R8,8
  32869  0000470E  00000001 USING  ORDINARY    00000000 00001000 FFFFFFF7   7 000          @R7,7
  32931  00004736  00000001 USING  ORDINARY    00004736 00001000 00000001   7 2C2   33115  $$$746B,7
  32950  00004738  00000001 USING  ORDINARY    00000000 00001000 FFFFFFE6   6 000   33073  UPATH,R6
  33002  00004752  00000001 USING  ORDINARY    00000000 00001000 FFFFFFE5   2 160   33048  UNET,R2
  33058  0000476C  00000001 USING  ORDINARY    00000000 00001000 FFFFFFFC   2 008   35643  @R2,2
  33143  0000479A  00000001 USING  ORDINARY    00000000 00001000 FFFFFFF8   6 000          @R6,6
  33148  0000479A  00000001 USING  ORDINARY    00000000 00001000 FFFFFFF7   7 000          @R7,7
  33200  000047C2  00000001 USING  ORDINARY    000047C2 00001000 00000001   7 6C8   33285  $$$756B,7
  33218  000047C2  00000001 USING  ORDINARY    00000000 00001000 FFFFFFD5   5 02C   33254  NPWA,R5
  33236  000047CC  00000001 USING  ORDINARY    00000000 00001000 FFFFFFE5   6 1D0   33291  UNET,R6
  33307  00004810  00000001 USING  ORDINARY    00000000 00001000 FFFFFFF8   6 000          @R6,6
  33312  00004810  00000001 USING  ORDINARY    00000000 00001000 FFFFFFF9   5 000          @R5,5
  33317  00004810  00000001 USING  ORDINARY    00000000 00001000 FFFFFFF7   7 000          @R7,7
  33370  00004838  00000001 USING  ORDINARY    00004838 00001000 00000001   7 652   33860  $$$761B,7
  33388  00004838  00000001 USING  ORDINARY    00000000 00001000 FFFFFFD5   5 018   33491  NPWA,R5
  33406  00004842  00000001 USING  ORDINARY    00000000 00001000 FFFFFFE5   6 170   33866  UNET,R6
  33532  00004890  00000001 USING  ORDINARY    00000000 00001000 FFFFFFE2   4 008   33650  INBUF,R4
  33658  000048E4  00000001 USING  ORDINARY    00000000 00001000 FFFFFFFA   4 000          @R4,4
  33883  00004964  00000001 USING  ORDINARY    00000000 00001000 FFFFFFF8   6 000          @R6,6
  33888  00004964  00000001 USING  ORDINARY    00000000 00001000 FFFFFFF9   5 000          @R5,5
  33893  00004964  00000001 USING  ORDINARY    00000000 00001000 FFFFFFF7   7 000          @R7,7
  33994  00004A7A  00000001 USING  ORDINARY    00004A7A 00001000 00000001   7 6F6   34078  $$$775B,7
  34012  00004A7A  00000001 USING  ORDINARY    00000000 00001000 FFFFFFD5   5 018   34017  NPWA,R5
  34030  00004A84  00000001 USING  ORDINARY    00000000 00001000 FFFFFFE5   6 160   34076  UNET,R6
  34086  00004ABE  00000001 USING  ORDINARY    00000000 00001000 FFFFFFF8   6 000          @R6,6
  34091  00004ABE  00000001 USING  ORDINARY    00000000 00001000 FFFFFFF9   5 000          @R5,5
  34096  00004ABE  00000001 USING  ORDINARY    00000000 00001000 FFFFFFF7   7 000          @R7,7
  34148  00004AE6  00000001 USING  ORDINARY    00004AE6 00001000 00000001   7 6A6   34352  $$$779B,7
  34167  00004AE8  00000001 USING  ORDINARY    00000000 00001000 FFFFFFE5   6 1FC   34348  UNET,R6
  34361  00004BA8  00000001 USING  ORDINARY    00000000 00001000 FFFFFFF8   6 000          @R6,6
  34366  00004BA8  00000001 USING  ORDINARY    00000000 00001000 FFFFFFF7   7 000          @R7,7
  34416  00004BD0  00000001 USING  ORDINARY    00004BD0 00001000 00000001   7 612   34735  $$$789B,7
  34434  00004BD0  00000001 USING  ORDINARY    00000000 00001000 FFFFFFD5   5 02C   34563  NPWA,R5
  34452  00004BDA  00000001 USING  ORDINARY    00000000 00001000 FFFFFFE5   6 1D0   34748  UNET,R6
  34756  00004CC4  00000001 USING  ORDINARY    00000000 00001000 FFFFFFF8   6 000          @R6,6
1NPAT     (NPAT2193) (12:50) (15MAR04) Using Map                                                                            Page  193
  34761  00004CC4  00000001 USING  ORDINARY    00000000 00001000 FFFFFFF9   5 000          @R5,5
  34766  00004CC4  00000001 USING  ORDINARY    00000000 00001000 FFFFFFF7   7 000          @R7,7
  34818  00004CEC  00000001 USING  ORDINARY    00004CEC 00001000 00000001   7 4F7   35024  $$$794B,7
  34836  00004CEC  00000001 USING  ORDINARY    00000000 00001000 FFFFFFD5   5 018   34901  NPWA,R5
  34854  00004CF6  00000001 USING  ORDINARY    00000000 00001000 FFFFFFE5   6 164   35029  UNET,R6
  35045  00004D52  00000001 USING  ORDINARY    00000000 00001000 FFFFFFF8   6 000          @R6,6
  35050  00004D52  00000001 USING  ORDINARY    00000000 00001000 FFFFFFF9   5 000          @R5,5
  35055  00004D52  00000001 USING  ORDINARY    00000000 00001000 FFFFFFF7   7 000          @R7,7
  35105  00004D7A  00000001 USING  ORDINARY    00004D7A 00001000 00000001   7 422   35228  $$$804B,7
  35123  00004D7A  00000001 USING  ORDINARY    00000000 00001000 FFFFFFD5   5 018   35128  NPWA,R5
  35141  00004D84  00000001 USING  ORDINARY    00000000 00001000 FFFFFFE5   6 164   35212  UNET,R6
  35240  00004DBE  00000001 USING  ORDINARY    00000000 00001000 FFFFFFF8   6 000          @R6,6
  35245  00004DBE  00000001 USING  ORDINARY    00000000 00001000 FFFFFFF9   5 000          @R5,5
  35250  00004DBE  00000001 USING  ORDINARY    00000000 00001000 FFFFFFF7   7 000          @R7,7
  35299  00004DE6  00000001 USING  ORDINARY    00004DE6 00001000 00000001   7 40C   35549  $$$810B,7
  35317  00004DE6  00000001 USING  ORDINARY    00000000 00001000 FFFFFFD5   5 018   35350  NPWA,R5
  35335  00004DF0  00000001 USING  ORDINARY    00000000 00001000 FFFFFFE5   6 164   35533  UNET,R6
  35561  00004E7C  00000001 USING  ORDINARY    00000000 00001000 FFFFFFF8   6 000          @R6,6
  35566  00004E7C  00000001 USING  ORDINARY    00000000 00001000 FFFFFFF9   5 000          @R5,5
  35571  00004E7C  00000001 USING  ORDINARY    00000000 00001000 FFFFFFF7   7 000          @R7,7
  35627  00004EA4  00000001 USING  ORDINARY    00004EA4 00001000 00000001   7 02E   35652  $$$822B,7
  35674  00004ED2  00000001 USING  ORDINARY    00000000 00001000 FFFFFFF7   7 000          @R7,7
  35731  00004EFA  00000001 USING  ORDINARY    00004EFA 00001000 00000001   7 2F2   36026  $$$826B,7
  35750  00004EFA  00000001 USING  ORDINARY    00000000 00001000 FFFFFFE5  15 1FC   35775  UNET,R15
  35800  00004F20  00000001 USING  ORDINARY    00000000 00001000 FFFFFFEF  15 000          @R15,15
  35846  00004F46  00000001 USING  ORDINARY    00000000 00001000 FFFFFFE1   5 01A   35970  ETRC,R5
  35946  00004F86  00000001 USING  ORDINARY    00000000 00001000 FFFFFFE5   6 00A   35951  UNET,R6
  35957  00004F92  00000001 USING  ORDINARY    00000000 00001000 FFFFFFF8   6 000          @R6,6
  36033  00004FC6  00000001 USING  ORDINARY    00000000 00001000 FFFFFFF9   5 000          @R5,5
  36044  00004FC6  00000001 USING  ORDINARY    00000000 00001000 FFFFFFF7   7 000          @R7,7
  36100  00004FEE  00000001 USING  ORDINARY    00004FEE 00001000 00000001   7 1DE   36171  $$$837B,7
  36119  00004FF0  00000001 USING  ORDINARY    00000000 00001000 FFFFFFE5   6 200   36185  UNET,R6
  36141  00005002  00000001 USING  ORDINARY    00000000 00001000 FFFFFFE4  15 00C   36148  CTRC,R15
  36154  00005014  00000001 USING  ORDINARY    00000000 00001000 FFFFFFEF  15 000          @R15,15
  36195  0000502A  00000001 USING  ORDINARY    00000000 00001000 FFFFFFF8   6 000          @R6,6
  36200  0000502A  00000001 USING  ORDINARY    00000000 00001000 FFFFFFF7   7 000          @R7,7
  36258  00005052  00000001 USING  ORDINARY    00005052 00001000 00000001   7 17E   36563  $$$841B,7
  36318  00005078  00000001 USING  ORDINARY    00000000 00001000 FFFFFFE1  15 004   36381  ETRC,R15
  36411  000050B8  00000001 USING  ORDINARY    00000000 00001000 FFFFFFEF  15 000          @R15,15
  36460  000050CC  00000001 USING  ORDINARY    00000000 00001000 FFFFFFE1   5 004   36493  ETRC,R5
  36499  000050F4  00000001 USING  ORDINARY    00000000 00001000 FFFFFFF9   5 000          @R5,5
  36515  000050F4  00000001 USING  ORDINARY    00000000 00001000 FFFFFFE1   6 018   36554  ETRC,R6
  36577  00005148  00000001 USING  ORDINARY    00000000 00001000 FFFFFFF8   6 000          @R6,6
  36590  0000514E  00000001 USING  ORDINARY    00000000 00001000 FFFFFFF7   7 000          @R7,7

1         (NPAT2193) (12:50) (15MAR04) General Purpose Register Cross Reference                                             Page  194
- Register  References (M=modified, B=branch, U=USING, D=DROP, N=index)                      HLASM R4.0  2004/03/15 12.50
0    0(0)      982U   983D  2114   2182M  2182   2183M  7745   7941M  8003   8045M  8248M  8274M  8305   8308M  8334M
              8345M  8409M  8440M  8490   8551   8578   8637M  8669   8730   8757   8811M  8885M  8885   8899   8908M
              8920   8966   8995M  9206   9235M  9281M  9356M  9382M  9451   9497M  9524M  9542M  9584M  9584   9601M
              9627M  9627   9644M  9670M  9670   9687M  9713M  9713   9757M  9779M  9800M  9800   9834M  9867M  9888M
              9888   9909M  9930M  9930   9947M  9968M  9968  10001M 10030M 10030  10053M 10070M 10119M 10134M 10134
             10161M 10288  10437M 10464M 10488M 10488  10516M 10636  10720  11082M 11108  11124  11132M 11139  11181M
             11369  11406  11526  11548M 11566M 11573  11711M 11967M 11994M 12018M 12018  12129M 12159M 12159  12259M
             12288M 12313M 12351M 12411  12453  12600M 12602  12668M 12806M 12835M 13030M 13059M 13115M 13144M 13274M
             13308M 13323M 13323  13355M 13375M 13399M 13453M 13568M 13568  13601M 13701M 13704M 14033  14057  14075M
             14330M 14347  14354  14372M 14373  14375M 14376  14395M 14521M 14521  14620M 14666M 14718M 14750M 14775M
             14775  14908  14917  14940M 14947M 14992M 15176M 15176  15197M 15197  15247M 15330M 15330  15397  15456M
             15457M 15502M 15626M 15626  15693M 15693  15784M 15798M 15798  15818  15842M 15918M 15918  15942M 15987M
             16007M 16027M 16158M 16158  16381M 16381  16430M 16430  16455  16527M 16528M 16578M 16716  16788M 16789M
             16839M 16942M 16942  16971M 17057M 17057  17100M 17120M 17159M 17159  17204M 17386M 17386  17435M 17435
             17460  17519M 17520M 17570M 17693  17752M 17753M 17803M 17906M 17906  18218  18242  18260M 18317M 18334
             18341  18359M 18360  18362M 18363  18382M 18463M 18490M 18518M 18543M 18543  18571  18579M 18586M 18627M
             18933M 18933  19028  19122M 19296M 19408M 19489M 19509M 19548M 19548  19792  19866M 19882M 19883M 19923M
             19939M 19940M 19980M 19996M 19997M 20037M 20067M 20101M 20128M 20162M 20222M 20357  20498M 20525M 20531M
             20551  20558M 20570M 20573  20757M 20831  20894M 20920M 20993M 20993  20998  21159M 21186M 21211M 21211
             21239M 21336M 21368M 21375  21390M 21390  21411M 21473M 21495M 21495  21523M 21562M 21587M 21647M 21696
             21748M 21797  21827M 21851  21903M 21957  21983M 22007  22059M 22113  22139M 22163  22278M 22410  22486M
             22521M 22570M 22603M 22658M 22686M 22726M 22746M 22746  22763M 22806M 22823M 22844M 22844  22880M 22901M
             22919M 22920M 22949M 22966M 22990M 22991M 23024M 23067M 23113  23175M 23176M 23212M 23236M 23276M 23298M
             23298  23326M 23373M 23492M 23526M 23539M 23541M 23547  23551M 23551  23569M 23589M 23616M 23650M 23678M
             23713M 23746M 23781M 23847M 23847  23915M 23915  24172  24372M 24409  24590M 24623  24650M 24650  24670M
             24671M 24753  24829  24881M 24881  24918  24927  24936  24954M 24956M 24971M 24983M 24983  24989  25030M
             25048M 25050  25090M 25224M 25224  25374M 25431M 25431  25471M 25472  25524M 25583M 25585  25676M 25789
             25833M 25863  25892  25914M 25914  25921  25972  26048  26117M 26141M 26166M 26232  26364  26392  26502M
             26529  26677M 26704  26752M 26877  26935M 26947M 26965M 26990M 26990  27066M 27073M 27110M 27134M 27164M
             27194M 27212M 27242M 27259M 27279M 27303M 27345M 27346  27359  27379M 27392M 27394M 27395  27406M 27428M
             27428  27446M 27460M 27612M 27612  27656M 27685  27735M 27735  27753M 27778M 27796M 27818M 27818  27836M
             27864M 27882M 27910M 27929M 27951M 27951  27976M 27976  27995M 28020M 28038M 28063M 28097M 28122M 28151M
             28151  28186M 28211M 28236M 28236  28275M 28297M 28297  28322M 28322  28345M 28369M 28394M 28394  28429M
             28459M 28484M 28484  28523M 28545M 28545  28570M 28570  28611M 28636M 28661M 28661  28684M 28714M 28739M
             28739  28758M 28788M 28813M 28813  28834M 28850M 28871M 28898M 28925M 28952M 28979M 29006M 29033M 29060M
             29087M 29114M 29141M 29192M 29230M 29268M 29306M 29344M 29382M 29412M 29412  29433M 29460M 29460  29478M
             29505M 29505  29523M 29550M 29550  29568M 29595M 29595  29613M 29635M 29635  29660M 29660  29679M 29706M
             29706  29724M 29751M 29751  29769M 29796M 29796  29814M 29841M 29841  29859M 29881M 29881  29906M 29906
             29941M 29963M 29963  29982M 30007M 30025M 30050M 30075M 30075  30142M 30142  30169M 30198M 30198  30235M
             30260M 30260  30304M 30305M 30306  30353M 30354M 30355  30399M 30399  30435M 30546  30605M 30659M 30679M
             30725M 30746M 30746  30771M 30771  30807M 30851  30939M 30983  31121  31245M 31297M 31456M 31519M 31581
             31704  31706  32035M 32086M 32087  32110M 32112M 32131M 32145  32225M 32358  32456  32553M 32580M 32604M
             32604  32654M 32681M 32705M 32705  32816  32847M 32914  33156M 33183  33325M 33353  33517M 33564M 33566M
             33598M 33750M 33777M 33801M 33801  33901M 33977  34066  34104M 34131  34209  34251  34374M 34399  34541M
             34568M 34585M 34605M 34605  34622M 34649M 34666M 34693M 34724M 34724  34774M 34801  35063M 35088  35258M
             35282  35410  35579M 35610  35660  35682M 35714  35782  35790M 35821  35823M 35863  35980M 35982M 36052M
             36083  36125  36128M 36129M 36130  36208M 36241  36294  36398  36485  36541  36553M 36554M 36598M
     1(1)      978U  2114   2177M  2178M  2184M  7745   7875M  7941M  8044M  8101   8232   8239   8246   8247M  8305
              8307M  8334M  8344M  8408M  8439M  8490   8551   8578   8637M  8669   8730   8757   8811M  8907M  8927M
              8928M  8928   8940U  8966   8994M  9010U  9206   9234M  9280M  9355M  9388   9430M  9430   9451   9490M
              9519M  9541M  9576D  9578M  9578   9579M  9580U  9600M  9619D  9621M  9621   9622M  9623U  9643M  9662D
              9664M  9664   9665M  9666U  9686M  9705D  9707M  9707   9708M  9709U  9752M  9778M  9796M  9833M  9866M
              9884M  9908M  9926M  9946M  9964M 10000M 10075M 10093M 10114M 10160M 10288  10297  10389M 10412M 10459M
             10515M 10636  10721  11077M 11108  11131M 11181M 11406  11547M 11565M 11574  11704M 11828M 11829M 11829
             11851U 11864U 11960M 11989M 12124M 12258M 12287M 12314M 12350M 12411  12452  12495M 12511M 12519  12598M
1         (NPAT2193) (12:50) (15MAR04) General Purpose Register Cross Reference                                             Page  195
             12599  12667M 12799M 12828M 13023M 13052M 13108M 13137M 13267M 13303M 13350M 13374M 13398M 13446M 13601M
             13703M 13704M 14033  14058  14074M 14074  14075M 14325M 14353  14376M 14390M 14613M 14659M 14711M 14743M
             14908  14917  14939M 14992M 15174M 15174  15248M 15396  15415M 15457  15501M 15783M 15817  15835M 15941M
             15986M 16006M 16026M 16379M 16379  16454  16473M 16528  16577M 16715  16734M 16789  16838M 16970M 17099M
             17119M 17203M 17384M 17384  17459  17478M 17520  17569M 17692  17711M 17753  17802M 18218  18243  18259M
             18259  18260M 18312M 18340  18363M 18377M 18456M 18483M 18511M 18571  18578M 18627M 18931M 18931  19028
             19121M 19296M 19401M 19488M 19508M 19792  19861M 19896M 19918M 19953M 19975M 20010M 20032M 20074M 20096M
             20135M 20157M 20222M 20357  20505M 20518M 20530M 20551  20563M 20570M 20757M 20831  20924M 20924  21137M
             21166M 21181M 21207M 21234M 21343M 21364M 21374  21468M 21491M 21518M 21566M 21566  21647M 21696  21752M
             21752  21827M 21851  21907M 21907  21983M 22007  22063M 22063  22139M 22163  22278M 22410  22481M 22520M
             22569M 22602M 22657M 22681M 22725M 22742M 22762M 22822M 22840M 22879M 22900M 22942M 22965M 23004M 23019M
             23067M 23113  23189M 23211M 23231M 23271M 23294M 23321M 23373M 23499M 23521M 23547M 23568M 23596M 23611M
             23649M 23673M 23712M 23741M 23776M 24171  24217M 24229M 24237M 24239  24367M 24594M 24594  24652M 24652
             24669M 24671  24753  24829  24927  24954  24955M 24956M 24966M 25029M 25043M 25050  25089M 25375M 25432M
             25452M 25471M 25523M 25676M 25789  25863  25892  25901  25972  26048  26116M 26140M 26165M 26232  26364
             26392  26502M 26529  26677M 26704  26752M 26877  26934M 26946M 26964M 27065M 27073M 27109M 27127M 27157M
             27187M 27211M 27235M 27258M 27278M 27302M 27341M 27346  27392M 27393M 27395  27405M 27424M 27445M 27460M
             27461  27656M 27685  27731M 27752M 27771M 27795M 27814M 27835M 27859M 27881M 27905M 27928M 27947M 27994M
             28013M 28037M 28056M 28096M 28115M 28185M 28204M 28274M 28293M 28344M 28362M 28428M 28452M 28522M 28541M
             28610M 28629M 28683M 28703D 28705M 28705  28706M 28707U 28757M 28777D 28779M 28779  28780M 28781U 28833M
             28849M 28870M 28897M 28924M 28951M 28978M 29005M 29032M 29059M 29086M 29113M 29140M 29191M 29229M 29267M
             29305M 29343M 29381M 29432M 29452D 29454M 29454  29455M 29456U 29477M 29497D 29499M 29499  29500M 29501U
             29522M 29542D 29544M 29544  29545M 29546U 29567M 29587D 29589M 29589  29590M 29591U 29612M 29631M 29678M
             29698D 29700M 29700  29701M 29702U 29723M 29743D 29745M 29745  29746M 29747U 29768M 29788D 29790M 29790
             29791M 29792U 29813M 29833D 29835M 29835  29836M 29837U 29858M 29877M 29940M 29959M 29981M 30000M 30024M
             30043M 30164M 30234M 30435M 30546  30605M 30658M 30678M 30718M 30742M 30807M 30851  30939M 30983  31121
             31239M 31450M 31519M 31581  31704  32035M 32062M 32063M 32063  32092  32100  32111M 32112M 32131M 32145
             32225M 32358  32456  32546M 32575M 32647M 32676M 32816  32846M 32914  33156M 33183  33325M 33353  33522
             33565M 33566M 33593M 33743M 33772M 33901M 33977  34066  34104M 34131  34209  34251  34261M 34262M 34262
             34293M 34294M 34294  34319M 34320M 34320  34348M 34374M 34399  34534M 34563M 34584M 34601M 34621M 34644M
             34665M 34688M 34774M 34801  35063M 35088  35258M 35282  35410  35579M 35610  35660  35682M 35714  35782
             35790M 35820  35834M 35834  35836  35863  35981M 35982M 36020M 36020  36052M 36083  36124  36208M 36241
             36267  36294  36398  36485  36541  36552M 36598M
     2(2)      974U  2114   7745   7771M  7786   7908M  7941M  7977   8057M  8072   8130   8337M  8428M  8457M  8490
              8551   8578   8637M  8669   8730   8757   8811M  8846   8920M  8922M  8923M  8924M  8966   9031M  9127
              9206   9451  10192M 10227  10288  10540M 10575  10636  10648M 10648  10699M 10699  10819M 10838  10847
             11013M 11013  11028M 11045  11082  11084M 11101M 11211M 11246M 11326  11406  11417M 11479  11586  11588
             11636M 11665  11689M 11742M 11775  11857M 11873  12374M 12411  12499M 12499  12511M 12549M 12549  12557D
             12559M 12559  12560M 12561U 12562M 12578M 12578  12584M 12585N 12724D 12726M 12726  12727M 12728U 12741
             12780  12892D 12894M 12894  12895M 12896U 12909  12955D 12957M 12957  12958M 12959U 12972  13004  13197D
             13199M 13199  13200M 13201U 13231D 13233M 13233  13234M 13235U 13248  13481M 13498  13521M 13538  13601M
             13962  14033  14057M 14254  14353M 14354M 14355M 14373M 14395  14908  15024M 15056  15745M 16210M 16241
             17008M 17238M 17265  17948M 18147  18218  18242M 18293  18340M 18341M 18342M 18360M 18382  18659M 18691
             19053M 19054M 19054  19060  19602M 19792  20222M 20357  20459M 20483  20485M 20530  20534M 20563  20572
             20573M 20574M 20757M 20831  21348M 21372M 21372  21409M 21452M 21452  21491  21647M 21696  21827M 21851
             21983M 22007  22139M 22163  22278M 22410  23067M 23113  23207M 23231  23373M 23410  23484M 23485M 23492
             23589  24034M 24113  24216M 24216  24229M 24249M 24249  24377M 24389  24395M 24396N 24702M 24753  24829
             24927  24972M 25206M 25513M 25538M 25538  25676M 25713  25789  25863  25892  25972  25987M 26048  26081
             26196M 26232  26364  26392  26502M 26529  26579M 26637  26677M 26704  26752M 26877  27656M 27685  30276M
             30303  30352  30435M 30546  30807M 30851  30939M 30983  31121  31519M 31581  32036M 32132M 32145  32225M
             32279  32358  32456  32816  32877M 32914  32986M 32987M 32987  33002U 33058U 33156M 33183  33241M 33325M
             33353  33441M 33491M 33493M 33509M 33509  33544  33557  33598  33599M 33901M 33977  34035M 34066  34104M
             34131  34174M 34186M 34186  34200  34209  34218M 34219M 34220M 34251  34374M 34399  34457M 34774M 34801
             34859M 35063M 35088  35146M 35258M 35282  35340M 35350M 35352M 35368M 35368  35384  35410  35462M 35471M
             35471  35478  35579M 35610  35636M 35638M 35639M 35640M 35660  35682M 35714  35782  35790M 35876  35904
             36052M 36083  36146  36208M 36241  36294  36398  36485  36541  36598M
     3(3)      970U  2114   7745   7772M  7907M  7941M  7977   8058M  8340M  8369M  8369   8427M  8457M  8490   8551
              8578   8637M  8669   8730   8757   8811M  8846   8966   9031M  9127   9206   9451  10192M 10227  10288
             10540M 10575  10636  10649M 10818M 11027M 11246M 11326  11406  11415M 11416M 11635M 11742M 11775  12374M
1         (NPAT2193) (12:50) (15MAR04) General Purpose Register Cross Reference                                             Page  196
             12411  12519M 12520M 12522  12523  13482M 13519M 13601M 13962  14033  14058M 14908  15024M 15056  15397M
             15409M 15409  15428M 15428  15449M 15467M 15467  15517M 15818M 16123M 16132M 16132  16210M 16241  16455M
             16467M 16467  16486M 16486  16520M 16543M 16543  16593M 16605M 16605  16642M 16716M 16728M 16728  16747M
             16747  16782M 16804M 16804  16854M 17238M 17265  17460M 17472M 17472  17491M 17491  17512M 17535M 17535
             17585M 17597M 17597  17619M 17693M 17705M 17705  17724M 17724  17746M 17768M 17768  17818M 17948M 18147
             18218  18243M 18659M 18691  19602M 19792  20222M 20357  20460M 20483  20486M 20531  20534M 20720M 20757M
             20831  20940M 20942M 20953M 20953  20964M 21117M 21130  21159  21200  21336  21548M 21561M 21561  21588M
             21595  21604M 21604  21647M 21696  21768M 21779M 21779  21790M 21827M 21851  21923M 21924M 21935M 21935
             21946M 21983M 22007  22079M 22080M 22091M 22091  22102M 22139M 22163  22278M 22410  23067M 23113  23208M
             23220  23222M 23236  23249  23373M 23410  24034M 24113  24589M 24606  24616M 24702M 24753  24829  24927
             25472M 25583  25676M 25713  25789  25863  25892  25972  25980M 25987  26005U 26011M 26012M 26012  26048
             26081M 26101U 26196M 26232  26275M 26290  26364  26392  26471M 26502M 26529  26572M 26579  26589U 26595M
             26596M 26596  26637M 26648U 26677M 26704  26752M 26877  27656M 27685  30277M 30286M 30286  30293M 30298M
             30299  30304  30319M 30319  30326M 30331M 30346  30353  30368M 30368  30375M 30380M 30435M 30546  30807M
             30851  30939M 30983  31121  31519M 31581  32145  32225M 32279  32358  32456  32816  32877M 32914  32955M
             32971  33064M 33156M 33183  33325M 33353  33491M 33492M 33564  33901M 33977  34066  34104M 34131  34209
             34251  34374M 34399  34774M 34801  35063M 35088  35258M 35282  35350M 35351M 35410  35579M 35610  35660
             35682M 35714  35821M 35962  35975  36052M 36083  36125M 36147  36208M 36241  36294  36398  36485  36541
             36598M
     4(4)      966U  2114   7745   7801M  7802M  7802   7817U  7902U  7941M  7977   8101M  8111U  8129   8422U  8457M
              8490   8551   8578   8637M  8669   8730   8757   8811M  8846   8966   9031M  9127   9206   9292M  9292
              9311M  9334M  9347M  9347   9451  10192M 10227  10288  10540M 10575  10636  10659M 10669M 10669  10711M
             10711  10720M 10740M 10740  10771M 10905M 10905  10926M 11060  11069  11246M 11326  11406  11419M 11438M
             11438  11573M 11582  11634M 11658  11664M 11665M 11742M 11775  12374M 12411  12453M 12469M 12469  12475
             12523M 12713M 12713  12881M 12881  12944M 12944  13186M 13186  13481  13601M 13671  13681M 13681  13698M
             13702  13703  13962  14033  14908  15024M 15056  15396M 15415  15450M 15456  15515M 15817M 15835  16121M
             16210M 16241  16454M 16473  16521M 16527  16591M 16640M 16715M 16734  16780M 16788  16852M 17238M 17265
             17459M 17478  17513M 17519  17583M 17617M 17692M 17711  17744M 17752  17816M 17948M 18147  18218  18659M
             18691  19602M 19792  20222M 20357  20461M 20475  20481  20587  20721M 20757M 20831  21118M 21130  21647M
             21696  21827M 21851  21983M 22007  22139M 22163  22278M 22410  23067M 23113  23203M 23205M 23220  23222
             23249M 23294  23373M 23410  24034M 24113  24172M 24184M 24184  24193  24239M 24277M 24313M 24348M 24372
             24409M 24411M 24555M 24569  24583  24606  24702M 24753  24829  24927  24936M 24947  24971  25048  25676M
             25713  25789  25863  25892  25972  26048  26196M 26232  26276M 26364  26392  26470M 26502M 26529  26677M
             26704  26752M 26877  27656M 27685  30093M 30109U 30123M 30124M 30124  30180U 30435M 30546  30807M 30851
             30939M 30983  31081M 31121  31483  31519M 31581  32145  32225M 32279  32358  32456  32766M 32767M 32767
             32791U 32816  32834U 32877M 32914  32956M 33063M 33156M 33183  33325M 33353  33522M 33532U 33625  33642
             33647  33658U 33901M 33977  34066  34104M 34131  34209  34251  34374M 34399  34774M 34801  35063M 35088
             35258M 35282  35410  35579M 35610  35660  35682M 35714  35820M 35980  36052M 36083  36124M 36148  36208M
             36241  36294  36398  36485  36541  36598M
     5(5)      962U  2114   7745   7941M  7977   8003M  8015M  8015   8152M  8152   8457M  8490   8551   8578   8587M
              8588   8598U  8611U  8637M  8669   8730   8757   8811M  8846   8966   9031M  9127   9206   9369M  9370M
              9370   9388M  9398U  9451   9460   9466U  9471  10192M 10227  10288  10297M 10540M 10575  10636  10659M
             10713M 10713  10721M 10769M 10924M 11060  11069  11246M 11326  11406  11419M 11574M 11633M 11658  11667M
             11669N 11704  11742M 11775  12056M 12057M 12057  12078U 12114  12183U 12374M 12411  12452M 12520  12522M
             12599M 12600  13482  13601M 13700  13962  14033  14042M 14052U 14066  14908  15001U 15024M 15056  15101U
             16192U 16210M 16241  16286U 17220U 17238M 17265  17310U 17930U 17948M 18147  18218  18227M 18237U 18251
             18636U 18659M 18691  18736U 19584U 19602M 19792  19847U 20199U 20222M 20357  20412U 20734U 20757M 20831
             20886U 20903M 20904M 20904  20998M 21011  21018M 21061  21113  21136  21545M 21546M 21562  21624U 21647M
             21696  21741U 21809U 21827M 21851  21896U 21965U 21983M 22007  22052U 22121U 22139M 22163  22208U 22260U
             22278M 22410  22465U 23044U 23067M 23113  23168U 23350U 23373M 23410  23455U 24016U 24034M 24113  24171M
             24174  24237  24238M 24238N 24275M 24312M 24346M 24367  24408M 24670  24702M 24753  24780M 24790U 24829
             24927  25098  25111  25663U 25676M 25713  25739M 25749U 25789  25863  25892  25961  25972  26002U 26048
             26096U 26183U 26196M 26232  26305M 26306M 26306  26321U 26364  26392  26455  26465U 26502M 26529  26677M
             26704  26752M 26877  27656M 27685  27711M 27721U 30422U 30435M 30546  30572M 30582U 30794U 30807M 30851
             30939M 30983  31061M 31077U 31081  31084M 31085M 31085  31121  31483M 31499U 31519M 31581  31617M 31627U
             32145  32207U 32225M 32279  32358  32456  32738M 32739M 32739  32760U 32816  32839U 32877M 32914  33156M
             33183  33218U 33312U 33325M 33353  33388U 33888U 33901M 33977  34012U 34066  34091U 34104M 34131  34209
             34251  34374M 34399  34434U 34761U 34774M 34801  34836U 35050U 35063M 35088  35123U 35245U 35258M 35282
             35317U 35410  35566U 35579M 35610  35660  35682M 35714  35836M 35846U 35986  36033U 36052M 36083  36208M
1         (NPAT2193) (12:50) (15MAR04) General Purpose Register Cross Reference                                             Page  197
             36241  36274M 36274  36294  36378M 36398  36428M 36428  36460U 36485  36499U 36541  36598M
     6(6)      958U  2114   7745   7941M  7977   8457M  8490   8516M  8526U  8551   8578   8624U  8637M  8669   8695M
              8705U  8730   8757   8798U  8811M  8846   8966   9031M  9127   9171M  9181U  9206   9451  10174U 10192M
             10227  10253M 10263U 10288  10527U 10540M 10575  10601M 10611U 10636  11233U 11246M 11326  11371M 11381U
             11406  11724U 11742M 11775  11801M 11811U 12361U 12374M 12411  12437M 12447U 13588U 13601M 13962  13998M
             14008U 14033  14908  15006U 15024M 15056  15091U 16197U 16210M 16241  16276U 17225U 17238M 17265  17300U
             17935U 17948M 18147  18183M 18193U 18218  18641U 18659M 18691  18726U 19589U 19602M 19792  19837U 20204U
             20222M 20357  20402U 20739U 20757M 20831  20876U 21629U 21647M 21696  21731U 21814U 21827M 21851  21886U
             21970U 21983M 22007  22042U 22126U 22139M 22163  22198U 22265U 22278M 22410  22455U 23049U 23067M 23113
             23158U 23355U 23373M 23410  23445U 24021U 24034M 24113  24158U 24684U 24702M 24753  24794M 24804U 24829
             24927  25658U 25676M 25713  25753M 25763U 25789  25823  25863  25883  25892  25972  26048  26067  26178U
             26196M 26232  26258M 26268U 26336  26364  26392  26489U 26502M 26529  26555M 26565U 26623  26664U 26677M
             26704  26752M 26877  27006M 27022U 27036M 27037M 27037  27630U 27656M 27685  30299M 30346  30435M 30546
             30807M 30851  30939M 30983  31121  31172M 31182U 31230  31441  31490U 31519M 31581  31632M 31642U 31672
             32145  32202U 32225M 32279  32323M 32333U 32358  32456  32816  32859U 32877M 32914  32940M 32950U 33018
             33143U 33156M 33183  33226M 33236U 33307U 33325M 33353  33396M 33406U 33883U 33901M 33977  34020M 34030U
             34066  34086U 34104M 34131  34157M 34167U 34209  34251  34361U 34374M 34399  34442M 34452U 34756U 34774M
             34801  34844M 34854U 35045U 35063M 35088  35131M 35141U 35240U 35258M 35282  35325M 35335U 35410  35561U
             35579M 35610  35660  35682M 35714  35818M 35931M 35931  35946U 35957U 36052M 36083  36109M 36119U 36195U
             36208M 36241  36267M 36294  36333M 36333  36352M 36368  36398  36434  36485  36493  36515U 36541  36577U
             36598M
     7(7)      954U  2107M  2107   2108B  2114   2120B  7745   7750M  7762U  7933U  7941M  7977   7982M  7994U  8449U
              8457M  8490   8495M  8507U  8551   8578   8629U  8637M  8669   8674M  8686U  8730   8757   8803U  8811M
              8846   8851M  8863U  8966   9023U  9031M  9127   9133M  9145U  9206   9451  10184U 10192M 10227  10232M
             10244U 10288  10532U 10540M 10575  10580M 10592U 10636  11238U 11246M 11326  11332M 11344U 11406  11734U
             11742M 11775  11780M 11792U 12366U 12374M 12411  12416M 12428U 13593U 13601M 13635  13640M 13724M 13962
             13968M 13980U 14033  14908  15016U 15024M 15056  15061M 15073U 16202U 16210M 16241  16246M 16258U 17230U
             17238M 17265  17270M 17282U 17940U 17948M 18147  18153M 18165U 18218  18651U 18659M 18691  18696M 18708U
             19594U 19602M 19792  19798M 19810U 20214U 20222M 20357  20363M 20375U 20749U 20757M 20831  20837M 20849U
             21639U 21647M 21696  21701M 21713U 21819U 21827M 21851  21856M 21868U 21975U 21983M 22007  22012M 22024U
             22131U 22139M 22163  22168M 22180U 22270U 22278M 22410  22416M 22428U 23059U 23067M 23113  23119M 23131U
             23365U 23373M 23410  23415M 23427U 24026U 24034M 24113  24119M 24131U 24694U 24702M 24753  24758M 24770U
             24829  24927  25668U 25676M 25713  25718M 25730U 25789  25863  25892  25972  26048  26188U 26196M 26232
             26237M 26249U 26364  26392  26494U 26502M 26529  26534M 26546U 26669U 26677M 26704  26709M 26721U 26744U
             26752M 26877  26883M 26895U 27648U 27656M 27685  27690M 27702U 30427U 30435M 30546  30551M 30563U 30799U
             30807M 30851  30856M 30868U 30931U 30939M 30983  30988M 31000U 31121  31511U 31519M 31581  31587M 31599U
             32145  32217U 32225M 32279  32285M 32297U 32358  32456  32816  32869U 32877M 32914  32919M 32931U 33148U
             33156M 33183  33188M 33200U 33317U 33325M 33353  33358M 33370U 33893U 33901M 33977  33982M 33994U 34066
             34096U 34104M 34131  34136M 34148U 34209  34251  34366U 34374M 34399  34404M 34416U 34766U 34774M 34801
             34806M 34818U 35055U 35063M 35088  35093M 35105U 35250U 35258M 35282  35287M 35299U 35410  35571U 35579M
             35610  35615M 35627U 35660  35674U 35682M 35714  35719M 35731U 36044U 36052M 36083  36088M 36100U 36200U
             36208M 36241  36246M 36258U 36294  36398  36485  36541  36590U 36598M
     8(8)      950U  2114   7745   7746M  7937   7941M  7977   7978M  8453   8457M  8490   8491M  8551   8578   8633
              8637M  8669   8670M  8730   8757   8807   8811M  8846   8847M  8966   9027   9031M  9127   9129M  9159U
              9206   9451  10179U 10188  10192M 10227  10228M 10288  10536  10540M 10575  10576M 10636  11242  11246M
             11326  11328M 11358U 11406  11729U 11738  11742M 11775  11776M 12370  12374M 12411  12412M 12598N 12602N
             13597  13601M 13635  13636M 13720  13724M 13962  13964M 13994U 14033  14908  15011U 15020  15024M 15056
             15057M 16206  16210M 16241  16242M 17234  17238M 17265  17266M 17944  17948M 18147  18149M 18179U 18218
             18646U 18655  18659M 18691  18692M 19598  19602M 19792  19794M 19824U 20209U 20218  20222M 20357  20359M
             20389U 20744U 20753  20757M 20831  20833M 20863U 21634U 21643  21647M 21696  21697M 21823  21827M 21851
             21852M 21979  21983M 22007  22008M 22135  22139M 22163  22164M 22274  22278M 22410  22412M 22442U 23054U
             23063  23067M 23113  23115M 23145U 23360U 23369  23373M 23410  23411M 24030  24034M 24113  24115M 24145U
             24689U 24698  24702M 24753  24754M 24829  24927  25050  25471  25585N 25672  25676M 25713  25714M 25789
             25863  25892  25972  26048  26192  26196M 26232  26233M 26364  26392  26498  26502M 26529  26530M 26673
             26677M 26704  26705M 26748  26752M 26877  26879M 26909U 27643U 27652  27656M 27685  27686M 30431  30435M
             30546  30547M 30803  30807M 30851  30852M 30935  30939M 30983  30984M 31121  31515  31519M 31581  31583M
             31613U 32145  32212U 32221  32225M 32279  32281M 32311U 32358  32456  32816  32864U 32873  32877M 32914
             32915M 33152  33156M 33183  33184M 33321  33325M 33353  33354M 33897  33901M 33977  33978M 34066  34100
             34104M 34131  34132M 34209  34251  34370  34374M 34399  34400M 34770  34774M 34801  34802M 35059  35063M
1         (NPAT2193) (12:50) (15MAR04) General Purpose Register Cross Reference                                             Page  198
             35088  35089M 35254  35258M 35282  35283M 35410  35575  35579M 35610  35611M 35660  35678  35682M 35714
             35715M 36048  36052M 36083  36084M 36204  36208M 36241  36242M 36294  36398  36485  36541  36594  36598M
     9(9)      946U  2114   8551   8578   8730   8757   8966   9206   9451  10288  10636  11406  14033  14908  18218
             24829  24927  25789  25863  25892  25972  26048  26364  26392  31121  32145  32358  32456  32816  34066
             34209  34251  35410  35660  36294  36398  36485  36541
    10(A)      942U  2114   8551   8578   8730   8757   8966   9206   9451  10288  10636  11406  14033  14908  18218
             24829  24927  25789  25863  25892  25972  26048  26364  26392  31121  32145  32358  32456  32816  34066
             34209  34251  35410  35660  36294  36398  36485  36541
    11(B)      938U  1178U  2114   8551   8578   8730   8757   8966   9206   9451  10288  10636  11406  14033  14908
             18218  24829  24927  25789  25863  25892  25972  26048  26364  26392  30958U 31121  32145  32358  32456
             32816  34066  34209  34251  35410  35660  36294  36398  36485  36541
    12(C)      934U  1187U  2114   8551   8578   8730   8757   8966   9206   9451  10288  10636  11406  14033  14908
             18218  24829  24927  25789  25863  25892  25972  26048  26364  26392  31121  32145  32358  32456  32816
             34066  34209  34251  35410  35660  36294  36398  36485  36541
    13(D)      930U  2114   7742   7745   7746   7747M  7747   7937M  7941   7943   7974   7977   7978   7979M  7979
              8301   8302M  8302   8305   8306M  8306   8333M  8334   8337   8338M  8338   8401M  8405M  8453M  8457
              8459   8487   8490   8491   8492M  8492   8551   8578   8633M  8637   8639   8666   8669   8670   8671M
              8671   8730   8757   8807M  8811   8813   8843   8846   8847   8848M  8848   8966   9027M  9031   9033
              9124   9127   9129   9130M  9130   9206   9451  10188M 10192  10194  10224  10227  10228  10229M 10229
             10288  10536M 10540  10542  10572  10575  10576  10577M 10577  10636  11108  11109M 11109  11180M 11181
             11242M 11246  11248  11323  11326  11328  11329M 11329  11406  11590  11591M 11591  11631M 11632  11738M
             11742  11744  11772  11775  11776  11777M 11777  11941M 11941  12032M 12370M 12374  12376  12408  12411
             12412  12413M 12413  13597M 13601  13603  13632  13635  13636  13637M 13637  13720M 13724  13726  13959
             13962  13964  13965M 13965  14033  14908  15020M 15024  15026  15053  15056  15057  15058M 15058  16206M
             16210  16212  16238  16241  16242  16243M 16243  17234M 17238  17240  17262  17265  17266  17267M 17267
             17944M 17948  17950  18144  18147  18149  18150M 18150  18218  18655M 18659  18661  18688  18691  18692
             18693M 18693  19598M 19602  19604  19789  19792  19794  19795M 19795  20218M 20222  20224  20354  20357
             20359  20360M 20360  20483  20484M 20484  20533M 20534  20551  20552M 20552  20569M 20570  20753M 20757
             20759  20828  20831  20833  20834M 20834  21643M 21647  21649  21693  21696  21697  21698M 21698  21823M
             21827  21829  21848  21851  21852  21853M 21853  21979M 21983  21985  22004  22007  22008  22009M 22009
             22135M 22139  22141  22160  22163  22164  22165M 22165  22274M 22278  22280  22407  22410  22412  22413M
             22413  23063M 23067  23069  23110  23113  23115  23116M 23116  23369M 23373  23375  23407  23410  23411
             23412M 23412  24030M 24034  24036  24110  24113  24115  24116M 24116  24698M 24702  24704  24750  24753
             24754  24755M 24755  24829  24927  25672M 25676  25678  25710  25713  25714  25715M 25715  25789  25863
             25892  25972  26048  26192M 26196  26198  26229  26232  26233  26234M 26234  26364  26392  26498M 26502
             26504  26526  26529  26530  26531M 26531  26673M 26677  26679  26701  26704  26705  26706M 26706  26748M
             26752  26754  26874  26877  26879  26880M 26880  27075  27076M 27076  27652M 27656  27658  27682  27685
             27686  27687M 27687  30431M 30435  30437  30543  30546  30547  30548M 30548  30607  30608M 30608  30803M
             30807  30809  30848  30851  30852  30853M 30853  30935M 30939  30941  30980  30983  30984  30985M 30985
             31121  31515M 31519  31521  31578  31581  31583  31584M 31584  32145  32221M 32225  32227  32276  32279
             32281  32282M 32282  32358  32456  32816  32873M 32877  32879  32911  32914  32915  32916M 32916  33152M
             33156  33158  33180  33183  33184  33185M 33185  33321M 33325  33327  33350  33353  33354  33355M 33355
             33725M 33725  33815M 33897M 33901  33903  33974  33977  33978  33979M 33979  34066  34100M 34104  34106
             34128  34131  34132  34133M 34133  34209  34251  34370M 34374  34376  34396  34399  34400  34401M 34401
             34770M 34774  34776  34798  34801  34802  34803M 34803  35059M 35063  35065  35085  35088  35089  35090M
             35090  35254M 35258  35260  35279  35282  35283  35284M 35284  35410  35575M 35579  35581  35607  35610
             35611  35612M 35612  35660  35678M 35682  35684  35711  35714  35715  35716M 35716  35782  35783M 35783
             35789M 35790  36048M 36052  36054  36080  36083  36084  36085M 36085  36204M 36208  36210  36238  36241
             36242  36243M 36243  36294  36398  36485  36541  36594M 36598  36600
    14(E)      926U  2114   2115M  2129   2130M  2131B  2133M  2134B  2154M  2155B  2159M  2160B  2162M  2163B  2165M
              2166B  2168M  2169B  2171M  2172M  2172B  2178   7742   7879M  7880M  7880B  7891M  7892M  7892B  7943M
              7946B  7974   8098M  8099M  8099B  8230M  8231M  8231B  8237M  8238M  8238B  8244M  8245M  8245B  8270M
              8271M  8271B  8285M  8286M  8286B  8301M  8305   8307N  8330M  8331M  8331B  8334M  8348M  8349M  8349B
              8459M  8462B  8487   8551   8552M  8578   8579M  8639M  8642B  8666   8730   8731M  8757   8758M  8813M
              8816B  8843   8966   8967M  9033M  9036B  9124   9206   9207M  9385M  9386M  9386B  9434M  9435M  9435B
              9451   9452M  9508M  9509M  9509B  9535M  9536M  9536B  9553M  9554M  9554B  9595M  9596M  9596B  9612M
              9613M  9613B  9638M  9639M  9639B  9655M  9656M  9656B  9681M  9682M  9682B  9698M  9699M  9699B  9724M
              9725M  9725B  9768M  9769M  9769B  9790M  9791M  9791B  9811M  9812M  9812B  9845M  9846M  9846B  9878M
              9879M  9879B  9899M  9900M  9900B  9920M  9921M  9921B  9941M  9942M  9942B  9958M  9959M  9959B  9979M
1         (NPAT2193) (12:50) (15MAR04) General Purpose Register Cross Reference                                             Page  199
              9980M  9980B 10012M 10013M 10013B 10041M 10042M 10042B 10101M 10102M 10102B 10122M 10123M 10123B 10194M
             10197B 10224  10288  10289M 10303M 10304M 10304B 10448M 10449M 10449B 10475M 10476M 10476B 10499M 10500M
             10500B 10542M 10545B 10572  10636  10637M 10678M 10679M 10679B 11214M 11215M 11215B 11248M 11251B 11323
             11406  11407M 11455M 11456M 11456B 11744M 11747B 11772  11869M 11870M 11870B 11978M 11979M 11979B 12005M
             12006M 12006B 12029M 12030M 12030B 12149M 12150M 12150B 12318M 12319M 12319B 12345M 12346M 12346B 12376M
             12379B 12408  12585M 12586B 12637M 12645M 12653M 12663M 12679M 12680M 12680B 12688M 12697M 12817M 12818M
             12818B 12846M 12847M 12847B 12866M 12929M 13041M 13042M 13042B 13070M 13071M 13071B 13126M 13127M 13127B
             13155M 13156M 13156B 13171M 13205M 13213M 13285M 13286M 13286B 13311M 13312M 13312B 13430M 13431M 13431B
             13464M 13465M 13465B 13551M 13579M 13580M 13580B 13603M 13606B 13632  13700M 13704M 13726M 13729B 13959
             14033  14034M 14066M 14075M 14268M 14269M 14269B 14333M 14334M 14334B 14379M 14380M 14380B 14398M 14399M
             14399B 14403M 14404M 14404B 14464M 14465M 14465B 14493M 14494M 14494B 14507M 14508M 14508B 14532M 14533M
             14533B 14631M 14632M 14632B 14677M 14678M 14678B 14729M 14730M 14730B 14761M 14762M 14762B 14786M 14787M
             14787B 14820M 14854M 14888M 14908  14909M 14944M 14945M 14945B 14951M 14952M 14952B 14957M 14958M 14958B
             15026M 15029B 15053  15117M 15118M 15118B 15286M 15287M 15287B 15376M 15377M 15377B 15495M 15496M 15496B
             15513M 15514M 15514B 15557M 15558M 15558B 15612M 15613M 15613B 15637M 15638M 15638B 15700M 15701M 15701B
             15929M 15930M 15930B 15998M 15999M 15999B 16086M 16087M 16087B 16118M 16119M 16119B 16169M 16170M 16170B
             16212M 16215B 16238  16303M 16304M 16304B 16408M 16409M 16409B 16532M 16533M 16533B 16571M 16572M 16572B
             16589M 16590M 16590B 16686M 16687M 16687B 16793M 16794M 16794B 16832M 16833M 16833B 16850M 16851M 16851B
             16894M 16895M 16895B 16928M 16929M 16929B 16953M 16954M 16954B 16978M 16979M 16979B 17072M 17073M 17073B
             17095M 17096M 17096B 17146M 17147M 17147B 17170M 17171M 17171B 17240M 17243B 17262  17327M 17328M 17328B
             17413M 17414M 17414B 17524M 17525M 17525B 17563M 17564M 17564B 17581M 17582M 17582B 17663M 17664M 17664B
             17757M 17758M 17758B 17796M 17797M 17797B 17814M 17815M 17815B 17858M 17859M 17859B 17892M 17893M 17893B
             17917M 17918M 17918B 17950M 17953B 18144  18218  18219M 18251M 18260M 18296M 18297M 18297B 18320M 18321M
             18321B 18366M 18367M 18367B 18385M 18386M 18386B 18390M 18391M 18391B 18474M 18475M 18475B 18501M 18502M
             18502B 18529M 18530M 18530B 18554M 18555M 18555B 18569M 18583M 18584M 18584B 18590M 18591M 18591B 18596M
             18597M 18597B 18661M 18664B 18688  18860M 18874M 18875M 18875B 18945M 18946M 18946B 18951M 18954M 19017M
             19026M 19143M 19144M 19144B 19147M 19148M 19148B 19205M 19206M 19206B 19238M 19239M 19239B 19271M 19272M
             19272B 19305M 19306M 19306B 19329M 19330M 19330B 19411M 19412M 19412B 19461M 19462M 19462B 19484M 19485M
             19485B 19535M 19536M 19536B 19559M 19560M 19560B 19604M 19607B 19789  19877M 19878M 19878B 19899M 19900M
             19900B 19906M 19907M 19907B 19934M 19935M 19935B 19956M 19957M 19957B 19963M 19964M 19964B 19991M 19992M
             19992B 20013M 20014M 20014B 20020M 20021M 20021B 20048M 20049M 20049B 20077M 20078M 20078B 20084M 20085M
             20085B 20112M 20113M 20113B 20116M 20138M 20139M 20139B 20145M 20146M 20146B 20173M 20174M 20174B 20192M
             20224M 20227B 20354  20456M 20457M 20457B 20508M 20509M 20509B 20528M 20529M 20529B 20566M 20567M 20567B
             20614M 20615M 20615B 20642M 20643M 20643B 20665M 20666M 20666B 20709M 20710M 20710B 20759M 20762B 20828
             20898M 20899M 20899B 20927M 20928M 20928B 20961M 20962M 20962B 21140M 21141M 21141B 21169M 21170M 21170B
             21197M 21198M 21198B 21222M 21223M 21223B 21250M 21251M 21251B 21300M 21301M 21301B 21323M 21324M 21324B
             21346M 21347M 21347B 21442M 21443M 21443B 21484M 21485M 21485B 21506M 21507M 21507B 21534M 21535M 21535B
             21578M 21579M 21579B 21649M 21652B 21693  21755M 21756M 21756B 21787M 21788M 21788B 21829M 21832B 21848
             21910M 21911M 21911B 21943M 21944M 21944B 21985M 21988B 22004  22066M 22067M 22067B 22099M 22100M 22100B
             22141M 22144B 22160  22280M 22283B 22407  22497M 22498M 22498B 22532M 22533M 22533B 22581M 22582M 22582B
             22614M 22615M 22615B 22669M 22670M 22670B 22697M 22698M 22698B 22737M 22738M 22738B 22757M 22758M 22758B
             22774M 22775M 22775B 22817M 22818M 22818B 22834M 22835M 22835B 22855M 22856M 22856B 22891M 22892M 22892B
             22912M 22913M 22913B 22936M 22937M 22937B 22960M 22961M 22961B 22977M 22978M 22978B 22987M 22988M 22988B
             23007M 23008M 23008B 23035M 23036M 23036B 23069M 23072B 23110  23192M 23193M 23193B 23200M 23201M 23201B
             23215M 23216M 23216B 23247M 23248M 23248B 23287M 23288M 23288B 23309M 23310M 23310B 23337M 23338M 23338B
             23375M 23378B 23407  23502M 23503M 23503B 23509M 23510M 23510B 23537M 23538M 23538B 23562M 23563M 23563B
             23580M 23581M 23581B 23599M 23600M 23600B 23627M 23628M 23628B 23661M 23662M 23662B 23689M 23690M 23690B
             23724M 23725M 23725B 23757M 23758M 23758B 23784M 23785M 23785B 23858M 23859M 23859B 23922M 23923M 23923B
             24000M 24001M 24001B 24004M 24036M 24039B 24110  24375M 24376M 24376B 24614M 24615M 24615B 24704M 24707B
             24750  24829  24830M 24927  24928M 24942M 24956M 25101M 25102M 25102B 25114M 25115M 25115B 25209M 25210M
             25210B 25251M 25252M 25252B 25379M 25380M 25380B 25460M 25461M 25461B 25516M 25517M 25517B 25542M 25543M
             25543B 25568M 25569M 25569B 25678M 25681B 25710  25789  25790M 25863  25864M 25892  25893M 25950M 25951M
             25951B 25971M 25972  26048  26049M 26198M 26201B 26229  26364  26365M 26392  26393M 26443M 26504M 26507B
             26526  26679M 26682B 26701  26732M 26733M 26733B 26736M 26737M 26737B 26754M 26757B 26874  26958M 26959M
             26959B 26976M 26977M 26977B 27001M 27002M 27002B 27079M 27080M 27080B 27103M 27104M 27104B 27121M 27122M
             27122B 27145M 27146M 27146B 27175M 27176M 27176B 27205M 27206M 27206B 27223M 27224M 27224B 27253M 27254M
             27254B 27330M 27331M 27331B 27390M 27391M 27391B 27417M 27418M 27418B 27439M 27440M 27440B 27457M 27458M
             27458B 27561M 27562M 27562B 27593M 27594M 27594B 27623M 27624M 27624B 27658M 27661B 27682  27746M 27747M
             27747B 27764M 27765M 27765B 27789M 27790M 27790B 27807M 27808M 27808B 27829M 27830M 27830B 27847M 27848M
1         (NPAT2193) (12:50) (15MAR04) General Purpose Register Cross Reference                                             Page  200
             27848B 27875M 27876M 27876B 27893M 27894M 27894B 27921M 27922M 27922B 27940M 27941M 27941B 27962M 27963M
             27963B 27987M 27988M 27988B 28006M 28007M 28007B 28031M 28032M 28032B 28049M 28050M 28050B 28074M 28075M
             28075B 28108M 28109M 28109B 28133M 28134M 28134B 28162M 28163M 28163B 28197M 28198M 28198B 28222M 28223M
             28223B 28247M 28248M 28248B 28286M 28287M 28287B 28308M 28309M 28309B 28333M 28334M 28334B 28356M 28357M
             28357B 28380M 28381M 28381B 28405M 28406M 28406B 28440M 28441M 28441B 28470M 28471M 28471B 28495M 28496M
             28496B 28534M 28535M 28535B 28556M 28557M 28557B 28581M 28582M 28582B 28622M 28623M 28623B 28647M 28648M
             28648B 28672M 28673M 28673B 28695M 28696M 28696B 28725M 28726M 28726B 28750M 28751M 28751B 28769M 28770M
             28770B 28799M 28800M 28800B 28824M 28825M 28825B 28845M 28846M 28846B 29168M 29169M 29169B 29203M 29204M
             29204B 29241M 29242M 29242B 29279M 29280M 29280B 29317M 29318M 29318B 29355M 29356M 29356B 29393M 29394M
             29394B 29423M 29424M 29424B 29444M 29445M 29445B 29471M 29472M 29472B 29489M 29490M 29490B 29516M 29517M
             29517B 29534M 29535M 29535B 29561M 29562M 29562B 29579M 29580M 29580B 29606M 29607M 29607B 29624M 29625M
             29625B 29646M 29647M 29647B 29671M 29672M 29672B 29690M 29691M 29691B 29717M 29718M 29718B 29735M 29736M
             29736B 29762M 29763M 29763B 29780M 29781M 29781B 29807M 29808M 29808B 29825M 29826M 29826B 29852M 29853M
             29853B 29870M 29871M 29871B 29892M 29893M 29893B 29917M 29918M 29918B 29952M 29953M 29953B 29974M 29975M
             29975B 29993M 29994M 29994B 30018M 30019M 30019B 30036M 30037M 30037B 30061M 30062M 30062B 30086M 30087M
             30087B 30153M 30154M 30154B 30173M 30174M 30174B 30209M 30210M 30210B 30246M 30247M 30247B 30271M 30272M
             30272B 30309M 30310M 30310B 30358M 30359M 30359B 30410M 30411M 30411B 30437M 30440B 30543  30611M 30612M
             30612B 30635M 30636M 30636B 30706M 30707M 30707B 30736M 30737M 30737B 30757M 30758M 30758B 30782M 30783M
             30783B 30809M 30812B 30848  30897M 30920M 30941M 30944B 30980  31029M 31052M 31121  31122M 31249M 31250M
             31250B 31300M 31301M 31301B 31371M 31372M 31372B 31460M 31461M 31461B 31521M 31524B 31578  31685M 31686M
             31686B 31789M 31838M 31871M 31904M 31937M 31970M 32003M 32043M 32044M 32044B 32079M 32080M 32080B 32090M
             32091M 32091B 32100M 32112M 32139M 32140M 32140B 32145  32146M 32180M 32181M 32181B 32227M 32230B 32276
             32358  32359M 32398M 32399M 32399B 32424M 32425M 32425B 32456  32457M 32484M 32485M 32485B 32564M 32565M
             32565B 32591M 32592M 32592B 32615M 32616M 32616B 32665M 32666M 32666B 32692M 32693M 32693B 32716M 32717M
             32717B 32816  32817M 32879M 32882B 32911  33158M 33161B 33180  33225M 33245M 33246M 33246B 33327M 33330B
             33350  33395M 33445M 33446M 33446B 33520M 33521M 33521B 33552M 33566M 33602M 33603M 33603B 33761M 33762M
             33762B 33788M 33789M 33789B 33812M 33813M 33813B 33903M 33906B 33974  34019M 34039M 34040M 34040B 34066
             34067M 34078M 34106M 34109B 34128  34209  34210M 34251  34252M 34277M 34278M 34278B 34309M 34310M 34310B
             34335M 34336M 34336B 34352M 34353M 34353B 34376M 34379B 34396  34441M 34461M 34462M 34462B 34552M 34553M
             34553B 34579M 34580M 34580B 34596M 34597M 34597B 34616M 34617M 34617B 34633M 34634M 34634B 34660M 34661M
             34661B 34677M 34678M 34678B 34704M 34705M 34705B 34735M 34736M 34736B 34776M 34779B 34798  34843M 34863M
             34864M 34864B 35065M 35068B 35085  35130M 35150M 35151M 35151B 35228M 35229M 35229B 35260M 35263B 35279
             35324M 35344M 35345M 35345B 35410  35411M 35549M 35550M 35550B 35581M 35584B 35607  35660  35661M 35684M
             35687B 35711  35786M 35787M 35787B 35861M 35862M 35862B 35970M 35982M 36022M 36054M 36057B 36080  36210M
             36213B 36238  36294  36295M 36398  36399M 36485  36486M 36541  36542M 36600M 36603B
    15(F)      922U  2114   7876M  7888M  7926M  7926   7945M  7945   8046M  8095M  8192M  8193M  8194   8196M  8197
              8207U  8220U  8227M  8234M  8241M  8267M  8282M  8288M  8289   8305   8327M  8334M  8413M  8413   8441M
              8461M  8461   8516   8551   8578   8617M  8617   8641M  8641   8695   8730   8757   8791M  8791   8815M
              8815   8909M  8966   8996M  9016M  9016   9035M  9035   9171   9206   9236M  9282M  9357M  9431M  9451
              9505M  9532M  9550M  9592M  9609M  9635M  9652M  9678M  9695M  9721M  9765M  9787M  9808M  9842M  9875M
              9896M  9917M  9938M  9955M  9976M 10009M 10038M 10098M 10105M 10157M 10157  10196M 10196  10253  10288
             10445M 10472M 10496M 10520M 10520  10544M 10544  10601  10636  10675M 10847M 10848M 11139M 11149M 11149
             11157M 11159  11194M 11195M 11195  11224M 11224  11250M 11250  11371  11406  11452M 11549M 11582M 11586
             11588M 11590  11595M 11604M 11604  11611  11632M 11633  11634  11635  11636  11669M 11715M 11715  11746M
             11746  11801  11872M 11873M 11874  11975M 12002M 12026M 12146M 12176M 12176  12260M 12289M 12315M 12331M
             12352M 12378M 12378  12437  12475M 12478  12490M 12495N 12502M 12504  12635M 12643M 12651M 12661M 12676M
             12686M 12695M 12814M 12843M 12864M 12927M 13038M 13067M 13123M 13152M 13169M 13203M 13211M 13282M 13427M
             13461M 13480M 13518M 13545M 13576M 13605M 13605  13671  13698  13701N 13702M 13704M 13728M 13728  13998
             14033  14073M 14075M 14254M 14292  14316M 14400M 14490M 14504M 14529M 14628M 14674M 14726M 14758M 14783M
             14908  14917  14941M 14948M 14954M 14992M 15028M 15028  15114M 15165M 15283M 15373M 15492M 15510M 15554M
             15609M 15634M 15697M 15697  15712M 15712  15736  15926M 15943M 15995M 16083M 16115M 16166M 16214M 16214
             16300M 16370M 16405M 16568M 16586M 16683M 16829M 16847M 16891M 16925M 16950M 16975M 16975  16989M 16989
             17092M 17143M 17167M 17205M 17242M 17242  17324M 17375M 17410M 17560M 17578M 17660M 17793M 17811M 17855M
             17889M 17914M 17952M 17952  18183  18218  18258M 18260M 18293M 18298  18303M 18387M 18471M 18498M 18526M
             18551M 18571  18580M 18587M 18593M 18627M 18663M 18663  18761M 18762M 18762  18775M 18782  18794M 18799
             18800M 18801  18805M 18806M 18806  18819M 18826  18838M 18843  18871M 18922M 18942M 19038M 19038  19093M
             19093  19110  19135  19168  19174M 19197  19230  19263  19290  19326M 19355  19375  19387M 19392M 19401N
             19481M 19532M 19556M 19606M 19606  19874M 19903M 19931M 19960M 19988M 20017M 20045M 20081M 20109M 20142M
             20170M 20226M 20226  20453M 20481M 20544M 20544  20611M 20639M 20662M 20706M 20761M 20761  20895M 20983M
1         (NPAT2193) (12:50) (15MAR04) General Purpose Register Cross Reference                                             Page  201
             20983  21136M 21194M 21199M 21200M 21201M 21207  21219M 21247M 21297M 21320M 21374M 21375M 21377M 21413M
             21439M 21481M 21503M 21531M 21651M 21651  21831M 21831  21987M 21987  22143M 22143  22215M 22216M 22216
             22229M 22234  22282M 22282  22494M 22529M 22578M 22611M 22666M 22694M 22734M 22754M 22771M 22814M 22831M
             22852M 22888M 22909M 22933M 22957M 22974M 22984M 23032M 23071M 23071  23197M 23244M 23284M 23306M 23334M
             23377M 23377  23506M 23534M 23559M 23577M 23624M 23658M 23686M 23721M 23754M 23769M 23769  23855M 23919M
             23919  23963  23991M 23991  23997M 24038M 24038  24193M 24196  24208M 24217N 24220M 24222  24396  24400M
             24401M 24402  24677M 24706M 24706  24780  24829  24927  24947M 24955  24956M 24989M 24992  25004M 25011M
             25013  25098M 25111M 25171M 25172M 25172  25301M 25312  25325U 25348U 25371M 25372M 25373  25376M 25457M
             25539M 25565M 25579M 25580M 25581  25644M 25644  25680M 25680  25739  25789  25798M 25823  25863  25892
             25905M 25920M 25921M 25926  25972  25973M 25974B 26048  26073M 26082  26113M 26113  26137M 26162M 26200M
             26200  26364  26392  26441M 26444M 26481M 26481  26506M 26506  26629M 26638  26657M 26657  26681M 26681
             26756M 26756  26955M 26973M 26998M 27075M 27100M 27118M 27142M 27172M 27202M 27220M 27250M 27327M 27387M
             27414M 27436M 27454M 27461M 27462M 27558M 27590M 27620M 27660M 27660  27711  27743M 27761M 27786M 27804M
             27826M 27844M 27872M 27890M 27918M 27937M 27959M 27984M 28003M 28028M 28046M 28071M 28105M 28130M 28159M
             28194M 28219M 28244M 28283M 28305M 28330M 28353M 28377M 28402M 28437M 28467M 28492M 28531M 28553M 28578M
             28619M 28644M 28669M 28692M 28722M 28747M 28766M 28796M 28821M 28842M 29165M 29200M 29238M 29276M 29314M
             29352M 29390M 29420M 29441M 29468M 29486M 29513M 29531M 29558M 29576M 29603M 29621M 29643M 29668M 29687M
             29714M 29732M 29759M 29777M 29804M 29822M 29849M 29867M 29889M 29914M 29949M 29971M 29990M 30015M 30033M
             30058M 30083M 30150M 30170M 30206M 30243M 30268M 30303M 30306M 30352M 30355M 30407M 30439M 30439  30572
             30607M 30632M 30703M 30733M 30754M 30779M 30811M 30811  30882M 30883M 30883  30905M 30906M 30906  30943M
             30943  31014M 31015M 31015  31037M 31038M 31038  31121  31204M 31205M 31205  31230M 31231  31245  31246M
             31359M 31360M 31360  31414M 31415M 31415  31441M 31442  31456  31457M 31475M 31484  31523M 31523  31632
             31682M 31706M 31709  31721M 31729M 31738M 31738  31745  32040M 32040  32049M 32050M 32051  32105M 32111
             32112M 32136M 32136  32145  32177M 32229M 32229  32323  32358  32370M 32370  32387M 32392  32421M 32456
             32481M 32561M 32588M 32612M 32662M 32689M 32713M 32816  32826M 32827M 32828  32851M 32851  32881M 32881
             32940  33073M 33085  33114  33136M 33136  33160M 33160  33223M 33226  33242M 33329M 33329  33393M 33396
             33431M 33432M 33433  33442M 33557M 33565  33566M 33611M 33612M 33612  33642  33649M 33650M 33651  33758M
             33785M 33809M 33905M 33905  34017M 34020  34036M 34066  34076M 34108M 34108  34157  34209  34251  34274M
             34306M 34332M 34349M 34378M 34378  34439M 34442  34458M 34549M 34576M 34593M 34613M 34630M 34657M 34674M
             34701M 34732M 34778M 34778  34841M 34844  34860M 35067M 35067  35128M 35131  35147M 35212M 35213M 35213
             35262M 35262  35322M 35325  35341M 35410  35533M 35534M 35534  35583M 35583  35636  35643M 35644M 35644
             35660  35686M 35686  35750U 35762M 35762  35782  35790M 35818  35833M 35975M 35981  35982M 35991M 35992M
             35993  36056M 36056  36109  36127M 36130M 36141U 36154U 36157M 36158M 36158  36170  36180M 36180  36185
             36212M 36212  36277M 36278M 36278  36294  36318U 36352  36368  36378  36381M 36382M 36382  36398  36411U
             36485  36541  36563M 36568M 36569M 36570  36582M 36583M 36583  36602M 36602

1NPAT     (NPAT2193) (12:50) (15MAR04) Diagnostic Cross Reference and Assembler Summary                                     Page  202
-                                                                                            HLASM R4.0  2004/03/15 12.50
0     No Statements Flagged in this Assembly
 HIGH LEVEL ASSEMBLER, 5696-234, RELEASE 4.0, PTF P72483
0SYSTEM: OS/390 02.10.00            JOBNAME: WYL#NPAT    STEPNAME: ASM        PROCSTEP: (NOPROC)
0Datasets Allocated for this Assembly
  Con DDname   Dataset Name                                 Volume  Member
   P1 SYSIN    WYL.GS.WYL.WYLBUR.SOURCE                     SYSB05  NPAT
   L1 SYSLIB   WYL.GS.WYL.WYLBUR.MACLIB                     SYSB05
   L2          WYL.GG.SYS.MACLIB                            SYSB05
   L3          SYS3.IS.MACLIB                               SYSB05
   L4          SYS3.MACLIB                                  SYSB02
   L5          SYS1.MACLIB                                  MVSBR9
   L6          SYS1.MODGEN                                  MVSBR9
      SYSPRINT SYS04075.T125006.RA000.WYL#NPAT.PRINT.H01    SCR101
      SYSTERM  GG$SLP.WYL#NPAT.JOB03549.D0000101.?

    3668K allocated to Buffer Pool,         4805K would be required for this to be an In-Storage Assembly
    4574 Primary Input Records Read        12576 Library Records Read                232 Work File Reads
       0 ASMAOPT Records Read              17971 Primary Print Records Written       288 Work File Writes
       0 Punch Records Written                 0 ADATA Records Written
0Assembly Start Time: 12.50.07 Stop Time: 12.50.21 Processor Time: 00.00.07.1810
 Return Code 000
