1                        J E S 2  J O B  L O G  --  S Y S T E M  S Y S B  --  N O D E  R L G
0
 12.57.51 JOB03577 ---- MONDAY,    15 MAR 2004 ----
 12.57.51 JOB03577  ICH70001I GG$SLP   LAST ACCESS AT 12:57:29 ON MONDAY, MARCH 15, 2004
 12.57.51 JOB03577  $HASP373 WYL#TOPS STARTED - INIT 9    - CLASS B - SYS SYSB
 12.57.51 JOB03577  ***  HCMD      STEP $$QUIET
 12.57.51 JOB03577  PUR * Q OUT MUL
 12.57.51 JOB03577  JOB 5434 WYL#TOPS WILL BE PURGED
 12.57.53 JOB03577  WYL#TOPS.$$QUIET .         RC=Zero TapeIO=0000 DiskIO=0000 CPU=  .01s Elapsed=71.97s
 12.58.27 JOB03577  WYL#TOPS.ASM     .         RC=Zero TapeIO=0000 DiskIO=1004 CPU=10.33s Elapsed=75.07s
 12.58.33 JOB03577  WYL#TOPS.EDIT    .         RC=Zero TapeIO=0000 DiskIO=0518 CPU= 1.48s Elapsed=07.23s
 12.58.33 JOB03577  WYL#TOPS Ended.  Name=Assemble TOPS                  Total CPU=11.82s Elapsed=71.97s
 12.58.33 JOB03577
 12.58.33 JOB03577  Execution charges   Priority=Standard   Block=Day
 12.58.33 JOB03577
 12.58.33 JOB03577  CPU Usage         219.56         $136.12   Standard Processing Unit Equivalent
 12.58.33 JOB03577                                   =======
 12.58.33 JOB03577                                   $136.12   Total Job execution charge
 12.58.33 JOB03577
 12.58.33 JOB03577  See back separator page for print charges
 12.58.33 JOB03577
 12.58.33 JOB03577  $HASP395 WYL#TOPS ENDED  ASM=0, EDIT=0
1        1 //WYL#TOPS JOB SLP$GG,'Assemble TOPS',TIME=4,REGION=4M                  JOB03577
           //*
           /*JOBPARM LINES=99,COPIES=1
           /*JOBPARM FORMS=3HOL,PFORMAT=LAND,CHARS=BD13,DUPLEX=YES,FLASH=BAR4
           //*
           /*JOBPARM NOTIFY=GG.SLP,HOLD=OUTPUT                                     WYLGEN
         2 //$$QUIET EXEC PGM=HCMDX,PARM='PUR * Q OUT MUL'
           //*
         3 //ASM    EXEC PGM=ASMA90,REGION=8M,
           //            PARM=('NORENT,TERM,FLAG(NOCONT),US(MAP,WARN(10)),NODECK',
           //            'LC(32767),XREF(SHORT),ESD,DXREF,NOOBJECT')
         4 //STEPLIB DD DSN=SYS3.IS.TESTASM,DISP=SHR
         5 //SYSLIB   DD  DSN=WYL.GS.WYL.WYLBUR.MACLIB,DISP=SHR
         6 //         DD  DSN=WYL.GG.SYS.MACLIB,DISP=SHR
         7 //         DD  DSN=SYS3.IS.MACLIB,DISP=SHR
         8 //         DD  DSN=SYS3.MACLIB,DISP=SHR
         9 //         DD  DSN=SYS1.MACLIB,DISP=SHR
        10 //         DD  DSN=SYS1.MODGEN,DISP=SHR
        11 //SYSUT1   DD DSN=&&SYSUT1,UNIT=VIO,DISP=(,DELETE),
           //            SPACE=(4088,(500,250),,CONTIG,ROUND)
        12 //SYSTERM  DD SYSOUT=T
        13 //SYSPRINT DD DSN=&&PRINT,UNIT=SYSDA,DISP=(,PASS),
           //            SPACE=(6650,(250,250),RLSE),
           //            DCB=(BLKSIZE=6650,LRECL=133,RECFM=FB)
        14 //SYSUDUMP DD SYSOUT=A
        15 //SYSIN    DD  DSN=WYL.GS.WYL.WYLBUR.SOURCE(TOPS),DISP=SHR
           //*
        16 //EDIT    EXEC PGM=ASMEDIT,TIME=2,REGION=4000K,
           //             PARM='STMT'
        17 //STEPLIB  DD  DSN=WYL.GG.SYS.LINKLIB,DISP=SHR
        18 //ASMOUT   DD  DSN=&PRINT,DISP=(OLD,DELETE)
        19 //SYSPRINT DD  SYSOUT=A
1 STMT NO. MESSAGE
 -
        11 IGD01010I STORCLAS= TEMP STORGROUP =
        11 IGD01010I STORGRP=VIO ASSIGNED.
        13 IGD01010I STORCLAS= TEMP STORGROUP =
        13 IGD01010I STORGRP=VIO ASSIGNED.
 ICH70001I GG$SLP   LAST ACCESS AT 12:57:29 ON MONDAY, MARCH 15, 2004
 IEF142I WYL#TOPS $$QUIET - STEP WAS EXECUTED - COND CODE 0000
 *********************************************************************************
 *   WYL#TOPS/$$QUIET /                    Return Code      Zero                 *
 *   Region used      260K (16K user + 244K system)                              *
 *   Extended region  9464K (4K user + 9460K system)                             *
 *                                                                               *
 *   Paging              In      Out                                             *
 *   Private <-> Aux      0        0       CPU time (TCB)   00:00:00.01          *
 *   Private <-> Exp      0        0       CPU time (SRB)   00:00:00.00          *
 *   VIO                  0        0       Elapsed time    917:30:00.99          *
 *   Common               0      ---                                             *
 *                                                                               *
 *                                                                               *
 *   CPU Usage          0.18         $0.11  Standard Processing Unit Equivalent  *
 *                                   $0.11  Total Step execution charge          *
 *                                                                               *
 *    I/O count  DDname   Type Addr           I/O count  DDname   Type Addr      *
 *                         *** No I/O for this step ***                          *
 *********************************************************************************
 IEF373I STEP/$$QUIET /START 2004075.1257
 IEF374I STEP/$$QUIET /STOP  2004075.1257 CPU    0MIN 00.01SEC SRB    0MIN 00.00SEC VIRT    16K SYS   244K EXT       4K SYS    9460K
 IEF236I ALLOC. FOR WYL#TOPS ASM
 IEF237I 04DC ALLOCATED TO STEPLIB
 IEF237I 04DC ALLOCATED TO SYSLIB
 IEF237I 04DC ALLOCATED TO
 IEF237I 04DC ALLOCATED TO
 IEF237I 0402 ALLOCATED TO
 IEF237I 04A0 ALLOCATED TO
 IEF237I 04A0 ALLOCATED TO
 IGD101I SMS ALLOCATED TO DDNAME (SYSUT1  )
         DSN (SYS04075.T125751.RA000.WYL#TOPS.SYSUT1.H01  )
         STORCLAS (TEMP) MGMTCLAS (        ) DATACLAS (        )
         VOL SER NOS= VIO
 IEF237I JES2 ALLOCATED TO SYSTERM
 IGD101I SMS ALLOCATED TO DDNAME (SYSPRINT)
         DSN (SYS04075.T125751.RA000.WYL#TOPS.PRINT.H01   )
         STORCLAS (TEMP) MGMTCLAS (        ) DATACLAS (        )
         VOL SER NOS= SCR100
 IEF237I JES2 ALLOCATED TO SYSUDUMP
 IEF237I 04DC ALLOCATED TO SYSIN
 IEF142I WYL#TOPS ASM - STEP WAS EXECUTED - COND CODE 0000
 IEF285I   SYS3.IS.TESTASM                              KEPT
 IEF285I   VOL SER NOS= SYSB05.
 IEF285I   WYL.GS.WYL.WYLBUR.MACLIB                     KEPT
 IEF285I   VOL SER NOS= SYSB05.
 IEF285I   WYL.GG.SYS.MACLIB                            KEPT
 IEF285I   VOL SER NOS= SYSB05.
 IEF285I   SYS3.IS.MACLIB                               KEPT
 IEF285I   VOL SER NOS= SYSB05.
 IEF285I   SYS3.MACLIB                                  KEPT
 IEF285I   VOL SER NOS= SYSB02.
 IEF285I   SYS1.MACLIB                                  KEPT
 IEF285I   VOL SER NOS= MVSBR9.
 IEF285I   SYS1.MODGEN                                  KEPT
 IEF285I   VOL SER NOS= MVSBR9.
 IGD105I SYS04075.T125751.RA000.WYL#TOPS.SYSUT1.H01   DELETED,   DDNAME=SYSUT1
 IEF285I   GG$SLP.WYL#TOPS.JOB03577.D0000101.?          SYSOUT
 IGD106I SYS04075.T125751.RA000.WYL#TOPS.PRINT.H01    PASSED,    DDNAME=SYSPRINT
 IEF285I   GG$SLP.WYL#TOPS.JOB03577.D0000102.?          SYSOUT
 IEF285I   WYL.GS.WYL.WYLBUR.SOURCE                     KEPT
 IEF285I   VOL SER NOS= SYSB05.
 *********************************************************************************
 *   WYL#TOPS/ASM     /                    Return Code      Zero                 *
 *   Region used      4376K (4096K user + 280K system)                           *
 *   Extended region  10084K (412K user + 9672K system)                          *
 *                                                                               *
 *   Paging              In      Out                                             *
 *   Private <-> Aux      0        0       CPU time (TCB)   00:00:10.26          *
 *   Private <-> Exp      0        0       CPU time (SRB)   00:00:00.07          *
 *   VIO                  0        0       Elapsed time    917:29:57.89          *
 *   Common               0      ---                                             *
 *                                                                               *
 *                                                                               *
 *   CPU Usage        192.37       $119.26  Standard Processing Unit Equivalent  *
 *                                 $119.26  Total Step execution charge          *
 *                                                                               *
 *    I/O count  DDname   Type Addr           I/O count  DDname   Type Addr      *
 *           86  STEPLIB  Disk 04DC                 390  SYSLIB   Disk 04DC      *
 *            0  SYSLIB   Disk 04DC                   0  SYSLIB   Disk 04DC      *
 *            0  SYSLIB   Disk 0402                   0  SYSLIB   Disk 04A0      *
 *            0  SYSLIB   Disk 04A0               1,037  SYSUT1   VIO  ----      *
 *            0  SYSTERM       ----                 515  SYSPRINT Disk 038B      *
 *            0  SYSUDUMP      ----                  13  SYSIN    Disk 04DC      *
 *********************************************************************************
 IEF373I STEP/ASM     /START 2004075.1257
 IEF374I STEP/ASM     /STOP  2004075.1258 CPU    0MIN 10.26SEC SRB    0MIN 00.07SEC VIRT  4096K SYS   280K EXT     412K SYS    9672K
 IEF236I ALLOC. FOR WYL#TOPS EDIT
 IEF237I 0402 ALLOCATED TO STEPLIB
 IGD103I SMS ALLOCATED TO DDNAME ASMOUT
 IEF237I JES2 ALLOCATED TO SYSPRINT
 IEF142I WYL#TOPS EDIT - STEP WAS EXECUTED - COND CODE 0000
 IEF285I   WYL.GG.SYS.LINKLIB                           KEPT
 IEF285I   VOL SER NOS= SYSB02.
 IGD105I SYS04075.T125751.RA000.WYL#TOPS.PRINT.H01    DELETED,   DDNAME=ASMOUT
 IEF285I   GG$SLP.WYL#TOPS.JOB03577.D0000103.?          SYSOUT
 *********************************************************************************
 *   WYL#TOPS/EDIT    /                    Return Code      Zero                 *
 *   Region used      380K (116K user + 264K system)                             *
 *   Extended region  9588K (4K user + 9584K system)                             *
 *                                                                               *
 *   Paging              In      Out                                             *
 *   Private <-> Aux      0        0       CPU time (TCB)   00:00:01.44          *
 *   Private <-> Exp      0        0       CPU time (SRB)   00:00:00.04          *
 *   VIO                  0        0       Elapsed time    917:29:25.73          *
 *   Common               0      ---                                             *
 *                                                                               *
 *                                                                               *
 *   CPU Usage         27.00        $16.74  Standard Processing Unit Equivalent  *
 *                                  $16.74  Total Step execution charge          *
 *                                                                               *
 *    I/O count  DDname   Type Addr           I/O count  DDname   Type Addr      *
 *            2  STEPLIB  Disk 0402                 516  ASMOUT   Disk 038B      *
 *            0  SYSPRINT      ----                                              *
 *********************************************************************************
 IEF373I STEP/EDIT    /START 2004075.1258
 IEF374I STEP/EDIT    /STOP  2004075.1258 CPU    0MIN 01.44SEC SRB    0MIN 00.04SEC VIRT   116K SYS   264K EXT       4K SYS    9584K
 *********************************************************************************
 *                                                                               *
 *                      S t a n f o r d   U n i v e r s i t y                    *
 *                                                                               *
 *                              *** Job Summary ***                              *
 *                                                                               *
 *   System Id      SYSB                   Input time     12:39:37  Mar 15, 2004 *
 *                                                                               *
 *   System Release SP6.1.0                Start time     12:57:51  Mar 15, 2004 *
 *                                                                               *
 *   Job name       WYL#TOPS               Stop  time     00:00:00  Mar 15, 2004 *
 *                                                                               *
 *   Account        SLP$GG                 Elapsed time  917:30:00.99            *
 *                                                                               *
 *   User Name      Assemble TOPS          CPU time       00:00:11.71            *
 *                                                                               *
 *   Job class      B                      SRB Time       00:00:00.11            *
 *                                                                               *
 *********************************************************************************
 IEF375I  JOB/WYL#TOPS/START 2004075.1257
 IEF376I  JOB/WYL#TOPS/STOP  2004075.1258 CPU    0MIN 11.71SEC SRB    0MIN 00.11SEC
1Assembler Done TOPS No Statements Flagged
1         High Level Assembler Option Summary                   (PTF P72483 )                                               Page    1
-                                                                                            HLASM R4.0  2004/03/15 12.57
0  No Overriding ASMAOPT Parameters
   Overriding Parameters-  NORENT,TERM,FLAG(NOCONT),US(MAP,WARN(10)),NODECK,LC(32767),XREF(SHORT),ESD,DXREF,NOOBJECT
   No Process Statements


   Options for this Assembly
0  NOADATA
     ALIGN
   NOASA
     BATCH
     CODEPAGE(047C)
   NOCOMPAT
   NODBCS
 3 NODECK
 3   DXREF
 3   ESD
   NOEXIT
 3   FLAG(0,ALIGN,NOCONT,NOIMPLEN,NOPAGE0,PUSH,RECORD,NOSUBSTR,USING0)
   NOFOLD
   NOGOFF
   NOINFO
     LANGUAGE(EN)
   NOLIBMAC
 3   LINECOUNT(32767)
     LIST(121)
     MXREF(SOURCE)
 3 NOOBJECT
     OPTABLE(UNI,NOLIST)
   NOPCONTROL
   NOPESTOP
   NOPROFILE
   NORA2
 3 NORENT
     RLD
     RXREF
     SIZE(MAX)
     SYSPARM()
 3   TERM(WIDE)
   NOTEST
     THREAD
   NOTRANSLATE
 3   USING(NOLIMIT,MAP,WARN(10))
 3   XREF(SHORT)

   No Overriding DD Names

1TOPS     External Symbol Dictionary                                                                                        Page    2
-Symbol   Type   Id     Address  Length     LD ID  Flags Alias-of                            HLASM R4.0  2004/03/15 12.57
0WYLTOPS   SD 00000001 00000000 00008E98             00
 TOPS2025  LD          00000000           00000001
 SETWTERM  LD          00000018           00000001
 SEGCR     ER 00000002
 SEG       ER 00000003
 NOTVALID  ER 00000004
 EXIT0     ER 00000005
 DOFNAME   ER 00000006
 FNAMOPTS  ER 00000007
 SCANCHK   ER 00000008
 FNAMEFIN  ER 00000009
 NDETRNG   ER 0000000A
 EXTOPEN   ER 0000000B
 RDRNG     ER 0000000C
 EXTCLOSE  ER 0000000D
 FREECORE  ER 0000000E
 NSCAN     ER 0000000F
 NSCANSTR  ER 00000010
 HEXCONV   ER 00000011
 DEQUOTE   ER 00000012
 GETCORE   ER 00000013
 DTB       ER 00000014
 SCDQUOTE  ER 00000015
 CVEXNO    ER 00000016
 SEGWR     ER 00000017
 MTOKEN    ER 00000018
 MPARM     ER 00000019
 MPINT     ER 0000001A
 MALL      ER 0000001B
 SUBSYS    LD          0000154C           00000001
 XCTL      LD          00001700           00000001
 SCUPCASE  ER 0000001C
 SEGT      ER 0000001D
 SYSCHECK  ER 0000001E
 SEGTB     ER 0000001F
 TXCTL     ER 00000020
 ORVRQST   ER 00000021
 EDTCOMMV  ER 00000022
 CLRACTS   ER 00000023
 SETMIL    LD          00001932           00000001
 SHOWMIL   LD          00001996           00000001
 SHOWCASE  LD          000019E6           00000001
 SETTERM   LD          00001A42           00000001
 ORVCPASS  ER 00000024
 COLLOPTS  ER 00000025
 SEGB      ER 00000026
 SEGCLR    ER 00000027
 TCNTL     ER 00000028
 SAMPARMS  ER 00000029
 SAMINIT   ER 0000002A
 MNULL     ER 0000002B
 SCNNOOP   ER 0000002C
 CHKTTYPE  ER 0000002D
 SETTTYPE  ER 0000002E
 MLNO      ER 0000002F
1TOPS     External Symbol Dictionary                                                                                        Page    3
 CHKTTYPE  LD          00003970           00000001
 SETTTYPE  LD          000039D8           00000001
 UPDCPSIB  ER 00000030
 PAGEINIT  ER 00000031
 SEGMARK   ER 00000032
 SHOWTERM  LD          00003CDA           00000001
 TERMDISP  LD          00003D12           00000001
 LRTRIM    ER 00000033
 BTD       ER 00000034
 SEGDC     ER 00000035
 BTX       ER 00000036
 SETLINE   LD          000042C6           00000001
 SETTABS   LD          0000441C           00000001
 MINT      ER 00000037
 VERPSH    ER 00000038
 NUMPSH    ER 00000039
 SHOWTABS  LD          00004834           00000001
 COLLPSH   ER 0000003A
 NOOPTS    ER 0000003B
 DOSHCOLS  ER 0000003C
 TREAD     ER 0000003D
 PAGETABS  ER 0000003E
 SHOWIDLE  LD          00004C4C           00000001
 SHOWMVER  LD          00004D94           00000001
 SHOWMINF  LD          00004E24           00000001
 MINFDISP  LD          00004E5C           00000001
 SHOWCNT   LD          000053F6           00000001
 LOCALTOD  ER 0000003F
 FMTRCLCK  ER 00000040
 SEGHX     ER 00000041
 SHOWLINE  LD          00005792           00000001
 SHOWILIN  LD          00005B48           00000001
 SHOWUSRS  LD          00005CB8           00000001
 GETUID    ER 00000042
 SEGCOL    ER 00000043
 SHOWPRIV  LD          000061A8           00000001
 TO        LD          000063F0           00000001
 SEGINIT   ER 00000044
 FMTTIME   ER 00000045
 JESSND    ER 00000046
 TASWRITE  ER 00000047
 GETTRNG   LD          00006ED8           00000001
 GETRPSH   LD          000070F8           00000001
 RLOOKUP   ER 00000048
 SETSKIP   ER 00000049
 SETSTOP   ER 0000004A
 TRANGE    LD          00007BAE           00000001
 MILERR    ER 0000004B
 TREADQ    ER 0000004C
 YESRTN    ER 0000004D
 GETACCT   ER 0000004E
 NETPDISP  LD          00008460           00000001
 PORTDISP  LD          00008646           00000001
 LINEDISP  LD          0000889C           00000001
 RTRIM     ER 0000004F
 CHARFMT   ER 00000050
 SENDMSG   LD          00008D2C           00000001

1TOPS     WYLBUR's Terminal Option Commands                                                                                 Page    4
0Loc    Object Code    Addr1 Addr2  Stmt Lv Lineno    Source Statement                    (Asmedit 3.3)  HLASM R4.0  2004/03/15 12.57
+___    ______ ____    _____ _____  ____ __ ______    ______ _________
0                                      2              *******************************************************************
                                       3              *                                                                 *
                                       4              *     WYLBUR/370 - Release VI - Class I - Stanford Proprietary    *
                                       5              *                                                                 *
                                       6              *******************************************************************
                                       7                       HIBAL
                                     988
 000000                00000 08E98   989              WYLTOPS  CSECT
                                     993              TOPS     IDENT 2025                11:49:36 01/25/02  (SLP)
                                     996             +
                                     997    01-IDENT +         ENTRY TOPS2025
                                     998             +
 000000 16E3D6D7E2F2F0F2             999    01-IDENT +TOPS2025 DC    AL1(22),C'TOPS2025,15MAR04,12:57'
                                    1000             +*
                                    1002                       REGS  FSR,,,,,,,BR,(WAR,LSR),PAR,PBR,CPR,CVR,SPR,RAR
-                                   1139                       SYSDEFN ,                 Define installation params
                                    1140
                                    1141                       PUSH  DSECTS
 USING  CP,R11                      1152             =         USING (CP),(CV)
 USING  CV,R12
 000017                00000 08E98  1171             =         POP   PRINT
1TOPS     (TOPS2025) (12:57) (15MAR04) DSECTS                                                                               Page    5
0Current Usings:  (CP,R11) (CV,R12)
0Loc    Object Code    Addr1 Addr2  Stmt Lv Lineno    Source Statement           (Hibal 5, Asmedit 3.3)  HLASM R4.0  2004/03/15 12.57
+___    ______ ____    _____ _____  ____ __ ______    ______ _________
0000000                00000 00038  6602              PDB      RECORD 'PDB'
                                    6612+ 1          +           ¿þþþþþþþþþþþþþþþþþþþþþþÜ
                                    6613+ 1          +           Ÿ  Passed Data Buffer  Ÿ
                                    6614+ 1          +           ¾þþþþþþþþþþþþþþþþþþþþþþ»
 000000                             6615  1 03-PDB   +PDBSTRT    DC    0F'0'
 000000 0000                        6616  1 03-PDB   +PDBLENG    DC    H'0'                (Suzan RDW) Total PDB length
 000002 0000                        6617  1 03-PDB   +           DC    XL2'00'             (Suzan RDW)
                                    6618  1          +
 000004                             6619  1 03-PDB   +PDBDATA    DC    0F'0'               Start of PDB data
                                    6620  1          +
 000004 0000                        6621  1 03-PDB   +PDBLIN#    DC    H'0'                Session number
 000006 00                          6622  1 03-PDB   +PDBCMD     DC    X'00'               Command code
 000007 00                          6623  1 03-PDB   +PDBCMDFL   DC    X'00'               Command code modifier flags
                                    6624  1          +
 000008                             6625  1 03-PDB   +PDBMOD     DS    0XL4                Mode flags
 000008 00                          6626  1 03-PDB   +PDBMODA    DC    X'00'               .a  (see moda)
 000009 00                          6627  1 03-PDB   +PDBMODB    DC    X'00'               .b  (see modb)
 00000A 00                          6628  1 03-PDB   +PDBMODC    DC    X'00'               .c  (see modc)
 00000B 00                          6629  1 03-PDB   +PDBMODD    DC    X'00'               .d  (see modd)
                                    6630  1          +
 00000C                             6631  1 03-PDB   +PDBCPL     DS    0XL2                Completion flags
 00000C 00                          6632  1 03-PDB   +PDBCPLA    DC    X'00'               .a  (see cpla)
 00000D 00                          6633  1 03-PDB   +PDBCPLB    DC    X'00'               .b  (see cplb)
                                    6634  1          +
 00000E 00                          6635  1 03-PDB   +PDBBYT1    DC    X'00'               Byte 1: used by control PDB
 00000F 00                          6636  1 03-PDB   +PDBBYT2    DC    X'00'               Byte 2: used by control PDB
                                    6637  1          +
 000010 00000000                    6638  1 03-PDB   +PDBSINP    DC    A(0)                Session info ptr (in CSA)
                                    6639  1 03-PDB   +PDBAWID    EQU   PDBSINP,4,C'F'      Session id for async write
                                    6640  1          +
 000014 4040404040404040            6641  1 03-PDB   +PDBVPGM    DC    CL8' '              ORVYL program name
 00001C 00000000                    6642  1 03-PDB   +PDBVCPU    DC    F'0'                ORVYL CPU time used
 000020 00                          6643  1 03-PDB   +PDBVFLAG   DC    X'00'               ORVYL flags
                                    6644  1 03-PDB   +PDBVFRUN   EQU   X'80'               - Program is running (not paused)
                                    6645  1 03-PDB   +PDBVFATH   EQU   X'40'               - Program is authorized
 000021 000000                      6646  1 03-PDB   +PDBVDIO    DC    XL3'00'             ORVYL Disk I/O
                                    6647  1 03-PDB   +PDBVINFO   EQU   PDBVPGM,*-PDBVPGM,C'X'
                                    6648  1          +
 000024 4040404040404040            6649  1 03-PDB   +PDBSYSNM   DC    CL8' '              New/old subsys name (xctl, init)
                                    6650  1          +
 00002C 0000                        6651  1 03-PDB   +PDBSUC     DC    H'0'                SIB update count
 00002E 0000                        6652  1 03-PDB   +PDBOUTCT   DC    H'0'                Output text count
 000030 0000                        6653  1 03-PDB   +PDBINCT    DC    H'0'                Maximum input allowed
 000032 0000                        6654  1 03-PDB   +PDBWC      DC    H'0'                Write count
 000034 0000                        6655  1 03-PDB   +PDBPC      DC    H'0'                Prompt count
 000036 0000                        6656  1 03-PDB   +PDBRC      DC    H'0'                Read count
                                    6657  1 03-PDB   +PDBORV     EQU   PDBINCT,*-PDBINCT,C'X'  Control info for ORVYL XCTLs
                                    6658  1 03-PDB   +PDBVRCTL   EQU   X'01'               - ORVYL "read control" (SIFT)
                                    6659  1 03-PDB   +PDBOPT     EQU   PDBCMDFL,*-PDBCMDFL,C'X'  Option flags
                                    6660  1 03-PDB   +PDBHDR     EQU   PDBSTRT,*-PDBSTRT,C'X'  PDB header
 000038                             6661  1 03-PDB   +PDBTEXT    DS    0C                  Text field (variable length)
1TOPS     (TOPS2025) (12:57) (15MAR04) DSECTS                                                                               Page    6
0Current Usings:  (CP,R11) (CV,R12)
0Loc    Object Code    Addr1 Addr2  Stmt Lv Lineno    Source Statement           (Hibal 5, Asmedit 3.3)  HLASM R4.0  2004/03/15 12.57
+___    ______ ____    _____ _____  ____ __ ______    ______ _________
0                                   6662+ 1          +           ¿þþþþþþþþþþþþþþþþþþþþþþþþþþþþÜ
                                    6663+ 1          +           Ÿ  Control PDB information.  Ÿ
                                    6664+ 1          +           ¾þþþþþþþþþþþþþþþþþþþþþþþþþþþþ»
                                    6665  1 03-PDB   +PDBCNO     EQU   PDBCMDFL,1,C'X'     Control number (to MILTEN)
                                    6666  1          +
                                    6667  1 03-PDB   +PDBCRET    EQU   PDBBYT1,1,C'X'      Return code (from MILTEN)
                                    6668  1 03-PDB   +PDBCROK    EQU   0                   - OK
                                    6669  1 03-PDB   +PDBCRPRV   EQU   4                   - Privileged
                                    6670  1 03-PDB   +PDBCRBF    EQU   8                   - Bad format
                                    6671  1 03-PDB   +PDBCRBAD   EQU   12                  - Unknown control
                                    6672  1          +
                                    6673  1 03-PDB   +PDBCMOD    EQU   PDBBYT2,1,C'X'      Rc modifier (depends on control)
                                    6674  1          +*
                                    6675  1          +*  PDB command codes:
                                    6676  1          +*
                                    6677  1          +*  global (to MILTEN)...
                                    6678  1 03-PDB   +TMILINIT   EQU   33                  Subsystem init -- PDBCMDFL flags:
                                    6679  1 03-PDB   +INITFPRV   EQU   X'80'               - Priv'd subsystem
                                    6680  1 03-PDB   +TMILMW     EQU   34                  not implemented
                                    6681  1 03-PDB   +TMILSTAT   EQU   35                  not implemented
                                    6682  1          +*
                                    6683  1          +*  Line-related, synchronous commands (to MILTEN)...
                                    6684  1 03-PDB   +TMILEOS    EQU   64                  End-of-session -- PDBCMDFL flags:
                                    6685  1 03-PDB   +EOSALL     EQU   X'40'               - logoff this subsys and send alo
                                    6686  1 03-PDB   +EOSXCTL    EQU   X'20'               - logoff this subsys and xctl
                                    6687  1 03-PDB   +TMILWRIT   EQU   65                  Terminal write
                                    6688  1 03-PDB   +TMILREAD   EQU   66                  Terminal read
                                    6689  1 03-PDB   +TMILWTO    EQU   67                  MILTEN write-to-operator
                                    6690  1 03-PDB   +TMILSENS   EQU   68                  Not implemented
                                    6691  1 03-PDB   +TMILNOP    EQU   69                  Check and respond
                                    6692  1 03-PDB   +MILAWR     EQU   70                  Asynchronous write
                                    6693  1 03-PDB   +TMILXCTL   EQU   71                  Send text to another subsys
                                    6694  1 03-PDB   +TMILACCT   EQU   72                  Session accounting data
                                    6695  1 03-PDB   +MILCNTL    EQU   73                  Control (PDBCMDFL has number)
                                    6696  1 03-PDB   +MILSOF     EQU   74                  Force logoff of user subsys's
                                    6697  1          +*  Line-related, asynchronous commands to MILTEN...
                                    6698  1 03-PDB   +TMILBRK    EQU   80                  Halt previous read
                                    6699  1          +*
                                    6700  1          +*  Command codes returned from MILTEN to subsystem...
                                    6701  1          +*
                                    6702  1          +*  Global, with (or as) response...
                                    6703  1 03-PDB   +FMILECHO   EQU   32                  Not implemented
                                    6704  1 03-PDB   +FMILINIT   EQU   33                  Subsystem initialization
                                    6705  1 03-PDB   +FMILSTAT   EQU   35                  Not implemented
                                    6706  1 03-PDB   +FMILERR    EQU   36                  Prev. cmd was bad
                                    6707  1          +*  Global, asynchronous commands from MILTEN...
                                    6708  1 03-PDB   +FMILSTOP   EQU   48                  Normal subsystem shutdown request
                                    6709  1 03-PDB   +FMILDUMP   EQU   49                  Abend-with-dump request
                                    6710  1          +*  Line-related, synchronous responses or commands from MILTEN...
                                    6711  1 03-PDB   +FMILSOS    EQU   64                  Start-of-session (line logon)
                                    6712  1 03-PDB   +FMILWRIT   EQU   65                  Response to tmilwrit
                                    6713  1 03-PDB   +FMILREAD   EQU   66                  Response to tmilread
                                    6714  1 03-PDB   +FMILXCTL   EQU   71                  Response to tmilxctl
                                    6715  1          +*  Line-related asynchronous commands from MILTEN...
1TOPS     (TOPS2025) (12:57) (15MAR04) DSECTS                                                                               Page    7
0Current Usings:  (CP,R11) (CV,R12)
0Loc    Object Code    Addr1 Addr2  Stmt Lv Lineno    Source Statement           (Hibal 5, Asmedit 3.3)  HLASM R4.0  2004/03/15 12.57
+___    ______ ____    _____ _____  ____ __ ______    ______ _________
0                                   6716  1 03-PDB   +FMILASYN   EQU   80                  Asynchronous status in cpl flags
                                    6717  1 03-PDB   +FMILLGFI   EQU   81                  Not implemented
                                    6718  1          +*
                                    6719  1          +*  PDB mode flags (to MILTEN)
                                    6720  1          +*
                                    6721  1 03-PDB   +MODARSV1   EQU   X'80'               - Reserved
                                    6722  1 03-PDB   +MODAFMIL   EQU   X'40'               - Fake MILTEN in TXCTL (for WYLBUR)
                                    6723  1 03-PDB   +MODANMSG   EQU   X'20'               - Reject (don't allow) messages
                                    6724  1 03-PDB   +MODACL     EQU   X'10'               - Clean (don't interleave msgs)
                                    6725  1 03-PDB   +MODABUF    EQU   X'08'               - Buffered I/O (rtns mult lines)
                                    6726  1 03-PDB   +MODADRAT   EQU   X'04'               - Disallow attn on read
                                    6727  1          +
                                    6728  1 03-PDB   +MODBUPPR   EQU   X'80'               - Use upper-case-only (read)
                                    6729  1 03-PDB   +MODBUPLO   EQU   X'40'               - Use uplow (read)
                                    6730  1 03-PDB   +MODBDWAT   EQU   X'20'               - Disallow attn on write
                                    6731  1 03-PDB   +MODBNNLA   EQU   X'10'               - No stars or NL on read attn
                                    6732  1 03-PDB   +MODBSLOL   EQU   X'08'               - Slow list (no tabs used on write)
                                    6733  1 03-PDB   +MODBNLF    EQU   X'04'               - No LF on read carriage-return
                                    6734  1 03-PDB   +MODBUFMT   EQU   X'02'               - Unformatted (don't cvt <...>)
                                    6735  1 03-PDB   +MODBFOR    EQU   X'01'               - Force I/O (override quiet)
                                    6736  1          +
                                    6737  1 03-PDB   +MODCNCRS   EQU   X'80'               - Don't re-position cursor (VTAM)
                                    6738  1 03-PDB   +MODCDSPL   EQU   X'40'               - Display mode I/O
                                    6739  1 03-PDB   +MODCSTIB   EQU   X'20'               - Suppress trailing input blanks
                                    6740  1 03-PDB   +MODCFSR    EQU   X'10'               - Full screen read
                                    6741  1 03-PDB   +MODCFSRU   EQU   X'08'               - Full screen read unsolicited
                                    6742  1 03-PDB   +MODCNECH   EQU   X'04'               - No echo
                                    6743  1 03-PDB   +MODCIMED   EQU   X'02'               - Immediate mode (display I/O)
                                    6744  1 03-PDB   +MODCSTOB   EQU   X'01'               - Suppress trailing output blanks
                                    6745  1          +
                                    6746  1 03-PDB   +MODDNPAU   EQU   X'80'               - Don't stop at end of page
                                    6747  1 03-PDB   +MODDNPT    EQU   X'40'               - No read text allowed at p/p
                                    6748  1 03-PDB   +MODDTRAN   EQU   X'20'               - Transparent I/O
                                    6749  1 03-PDB   +MODDNMOD   EQU   X'10'               - Nomodel
                                    6750  1 03-PDB   +MODDNFLT   EQU   X'08'               - No ctrl char filtering
                                    6751  1 03-PDB   +MODDXON    EQU   X'04'               - Send XON char for read
                                    6752  1 03-PDB   +MODDRUND   EQU   X'02'               - Count rundown mode for read
                                    6753  1 03-PDB   +MODDNTYP   EQU   X'01'               - No read typeahead
                                    6754  1          +*
                                    6755  1          +*  PDB control numbers (to MILTEN)
                                    6756  1          +*
                                    6757  1 03-PDB   +CTLSNSI    EQU   1                   - Sense session info
                                    6758  1 03-PDB   +CTLSETI    EQU   2                   - Set   session info
                                    6759  1 03-PDB   +CTLSNSP    EQU   3                   - Sense port info
                                    6760  1 03-PDB   +CTLSNSF    EQU   4                   - Sense front-end info
                                    6761  1 03-PDB   +CTLSNSD    EQU   5                   - Sense device dependent info
                                    6762  1 03-PDB   +CTLSNSS    EQU   6                   - Sense subsystem info
                                    6763  1 03-PDB   +CTLSNSA    EQU   7                   - Sense accounting info
                                    6764  1 03-PDB   +CTLSNSM    EQU   8                   - Sense MILTEN info
                                    6765  1 03-PDB   +CTLSNST    EQU   9                   - Sense symbol type
                                    6766  1 03-PDB   +CTLSNSMD   EQU   10                  - Sense MILTEN device trace
                                    6767  1 03-PDB   +CTLMAX     EQU   10
                                    6768  1          +
                                    6769  1 03-PDB   +CTLPSETS   EQU   101                 - Set session           (Priv'd)
1TOPS     (TOPS2025) (12:57) (15MAR04) DSECTS                                                                               Page    8
0Current Usings:  (CP,R11) (CV,R12)
0Loc    Object Code    Addr1 Addr2  Stmt Lv Lineno    Source Statement           (Hibal 5, Asmedit 3.3)  HLASM R4.0  2004/03/15 12.57
+___    ______ ____    _____ _____  ____ __ ______    ______ _________
0                                   6770  1 03-PDB   +CTLPSETO   EQU   102                 - Set session options   (Priv'd)
                                    6771  1 03-PDB   +CTLPKILL   EQU   103                 - Kill session          (Priv'd)
                                    6772  1 03-PDB   +CTLPSETP   EQU   104                 - Set port              (Priv'd)
                                    6773  1 03-PDB   +CTLPSETF   EQU   105                 - Set front-end         (Priv'd)
                                    6774  1 03-PDB   +CTLPSETD   EQU   106                 - Set device dependent  (Priv'd)
                                    6775  1 03-PDB   +CTLPSETA   EQU   107                 - Set accounting info   (Priv'd)
                                    6776  1 03-PDB   +CTLPDIE    EQU   108                 - MILTEN shutdown       (Priv'd)
                                    6777  1 03-PDB   +CTLPMAX    EQU   108
                                    6778  1          +*
                                    6779  1          +*  PDB completion flags (from MILTEN)
                                    6780  1          +*
                                    6781  1 03-PDB   +CPLAATTN   EQU   X'80'               - Attn on read/write
                                    6782  1 03-PDB   +CPLAIOE    EQU   X'40'               - I/O error on read
                                    6783  1 03-PDB   +CPLAUST    EQU   X'20'               - Unset tab(s) on input
                                    6784  1 03-PDB   +CPLABRK    EQU   X'10'               - Read killed by break
                                    6785  1          +
                                    6786  1 03-PDB   +CPLBLGF    EQU   X'80'               - Terminal is logging off
                                    6787  1 03-PDB   +CPLBILT    EQU   X'40'               - Terminal can't do that
                                    6788  1 03-PDB   +CPLBIA     EQU   X'20'               - Idle attention (asynchronous)
 000038                00038 00038  6789             +*
1TOPS     (TOPS2025) (12:57) (15MAR04) DSECTS                                                                               Page    9
0Current Usings:  (CP,R11) (CV,R12)
0Loc    Object Code    Addr1 Addr2  Stmt Lv Lineno    Source Statement           (Hibal 5, Asmedit 3.3)  HLASM R4.0  2004/03/15 12.57
+___    ______ ____    _____ _____  ____ __ ______    ______ _________
0000000                00000 000FC  6800                       RECORD 'MIB'
 000000                             6811  1 03-MIB   +MIBSTART   DS    0D
 000000 D4C9D3E3C5D54040            6812  1 03-MIB   +MIBNAME    DC    CL8'MILTEN'         name (MILTEN/TESTMIL)
 000008 0000000000000000            6813  1 03-MIB   +MIBJOBNM   DC    XL8'00'             jobname
 000010 0000000000000000            6814  1 03-MIB   +MIBVERS    DC    XL80'00'            version text
                                    6815  1          +
 000060 00000000                    6816  1 03-MIB   +MIBCLCK    DC    F'0'                clock at start
 000064 00                          6817  1          +*
 MIBFLAG.MIBFSTOP  80 ONES
 000065 00                          6827  1 03-MIB   +           DC    X'00'               reserved
                                    6828  1          +
 000066 0000                              1          +
 000068 00000000                    6829  1 03-MIB   +MIBNIO     DC    F'0'                no. of I/O's
 00006C 00000000                    6830  1 03-MIB   +MIBNAPP    DC    F'0'                no. of appendage entries
                                    6831  1          +
 000070 00000000                    6832  1 03-MIB   +MIBTLSES   DC    F'0'                total no. of sessions
 000074 0000                        6833  1 03-MIB   +MIBCRSES   DC    H'0'                current no. of logged on users
 000076 0000                        6834  1 03-MIB   +MIBMXSES   DC    H'0'                maximum no. of logged on users
 000078 00000000                    6835  1 03-MIB   +MIBCKSES   DC    F'0'                clock at max users
                                    6836  1          +
 00007C 0000                        6837  1 03-MIB   +MIBNHIOT   DC    H'0'                No. of HALTIO subtasks
 00007E 0000                        6838  1 03-MIB   +MIBNFULQ   DC    H'0'                no. of subsys full-queues
                                    6839  1          +
 000080 0000                        6840  1 03-MIB   +MIBHQCUR   DC    H'0'                Current HALTIO queue depth
 000082 0000                        6841  1 03-MIB   +MIBHQMAX   DC    H'0'                Maximum HALTIO queue depth
 000084 0000                        6842  1 03-MIB   +MIBHQDEV   DC    H'0'                Current HALTIO unit address
                                    6843  1          +
 000086 0000                        6844  1 03-MIB   +MIBCRVIR   DC    H'0'                current no. of virtual front-ends
                                    6845  1          +
 000088 0000                        6846  1 03-MIB   +MIBNFAIL   DC    H'0'                no. of failsofts
 00008A 0000                        6847  1 03-MIB   +MIBNAPPF   DC    H'0'                no. of appendage failsofts
 00008C 00000000                    6848  1 03-MIB   +MIBFCLCK   DC    F'0'                clock at failsoft
 000090 0000000000000000            6849  1 03-MIB   +MIBFINFO   DC    XL64'00'            failsoft text
                                    6850  1          +
 0000D0 00000000                    6851  1 03-MIB   +MIBNLOWM   DC    F'0'                no. of low memory conditions
 0000D4 00000000                    6852  1 03-MIB   +MIBNNOM    DC    F'0'                no. of no memory conditions
                                    6853  1          +
 0000D8 00000000                    6854  1 03-MIB   +MIBFXCNT   DC    F'0'                no. of getfix requests
 0000DC 00000000                    6855  1 03-MIB   +MIBFXCUR   DC    F'0'                current fixed core usage
 0000E0 00000000                    6856  1 03-MIB   +MIBFXMAX   DC    F'0'                maximum fixed core usage
                                    6857  1          +
 0000E4 00000000                    6858  1 03-MIB   +MIBPGCNT   DC    F'0'                no. of getcore requests
 0000E8 00000000                    6859  1 03-MIB   +MIBPGCUR   DC    F'0'                current paged core usage
 0000EC 00000000                    6860  1 03-MIB   +MIBPGMAX   DC    F'0'                maximum paged core usage
                                    6861  1          +
 0000F0 00000000                    6862  1 03-MIB   +MIBCSCNT   DC    F'0'                no. of CSA getmains
 0000F4 00000000                    6863  1 03-MIB   +MIBCSCUR   DC    F'0'                current CSA core usage
 0000F8 00000000                    6864  1 03-MIB   +MIBCSMAX   DC    F'0'                maximum CSA core usage
 0000FC                000FC 000FC  6865    03-MIB   +MIB      EQU   MIBSTART,*-MIBSTART,C'X'
1TOPS     (TOPS2025) (12:57) (15MAR04) DSECTS                                                                               Page   10
0Current Usings:  (CP,R11) (CV,R12)
0Loc    Object Code    Addr1 Addr2  Stmt Lv Lineno    Source Statement           (Hibal 5, Asmedit 3.3)  HLASM R4.0  2004/03/15 12.57
+___    ______ ____    _____ _____  ____ __ ______    ______ _________
0                                   6876                       COPY  FSB
                                    6877             =*
                                    6878             =**  Front-End Status Block
                                    6879             =*
 000000                00000 00090  6880             =FSB      RECORD BEGIN
 000000                             6888  1          =FSBID      DS    H                   Front-end identifier
                                    6889  1          =
 000002 00                          6890  1          =FSBTYPE    FLAG
 FSBTYPE.FSBTCONS  01 EQ            6894  1          =           FLAG  (FSBTCONS,1,EQ)     - Console
 FSBTYPE.FSBTASYN  02 EQ            6904  1          =           FLAG  (FSBTASYN,2,EQ)     - Async
 FSBTYPE.FSBTPDP   03 EQ            6914  1          =           FLAG  (FSBTPDP,3,EQ)      - Pdp
 FSBTYPE.FSBTVTAM  04 EQ            6924  1          =           FLAG  (FSBTVTAM,4,EQ)     - Vtam
 FSBTYPE.FSBTVIRT  05 EQ            6934  1          =           FLAG  (FSBTVIRT,5,EQ)     - Virtual
 FSBTYPE.FSBTNSC   06 EQ            6944  1          =           FLAG  (FSBTNSC,6,EQ)      - Nsc
 FSBTYPE.FSBTELF   07 EQ            6954  1          =           FLAG  (FSBTELF,7,EQ)      - Elf
 FSBTYPE.FSBTALF   08 EQ            6964  1          =           FLAG  (FSBTALF,8,EQ)      - Alf
 FSBTYPE.FSBTECU   09 EQ            6974  1          =           FLAG  (FSBTECU,9,EQ)      - ECU
 FSBTYPE.FSBTMAX   09 EQ            6984  1          =           FLAG  (FSBTMAX,9,EQ)
                                    6994  1          =
 000003                             6995  1          =           DS    X                   Reserved
                                    6996  1          =
 000004                             6997  1          =FSBFEBP    DS    A                   Address of FEB
                                    6998  1          =
 000008                             6999  1          =FSBUC      DS    H                   Update count
 00000A                             7000  1          =FSBTMLIM   DS    H                   Notime limit during PEAK times
                                    7001  1          =
 00000C                             7002  1          =FSBNAME    DS    CL8                 Front-end name
 000014                             7003  1          =FSBINFO    DS    CL12                Front-end info (text)
                                    7004  1          =
 000020                             7005  1          =FSBMCLCK   DS    XL8                 Clock when message was set
 000028                             7006  1          =FSBMSG     DS    CL64                Front-end message
                                    7007  1          =
 000068 00                          7008  1          =FSBPFLG    FLAG
 FSBPFLG.FSBFPS    80 ONES          7012  1          =           FLAG  FSBFPS              - "Pseudo" front-end
 FSBPFLG.FSBFLEAS  40 ONES          7017  1          =           FLAG  FSBFLEAS            - Front-end is leased
 FSBPFLG.FSBFRLIN  20 ONES          7022  1          =           FLAG  FSBFRLIN            - Front-end belongs to rlin
                                    7027  1          =
 000069 00                          7028  1          =FSBPFLG2   FLAG
 FSBPFLG2.FSBFCLS  80 ONES          7032  1          =           FLAG  FSBFCLS             - Closed
 FSBPFLG2.FSBFDET  40 ONES          7037  1          =           FLAG  FSBFDET             - Detached
 FSBPFLG2.FSBFDOWN 20 ONES          7042  1          =           FLAG  FSBFDOWN            - Status: down
                                    7047  1          =
 00006A                             7048  1          =FSBQMAX    DS    H                   Maximum I/O queue size
                                    7049  1          =
 00006C                             7050  1          =FSBPCUR    DS    H                   Current no. of ports
 00006E                             7051  1          =FSBPMAX    DS    H                   Max no. of ports
                                    7052  1          =
 000070                             7053  1          =FSBSCLCK   DS    XL8                 Clock at start
                                    7054  1          =
 000078                             7055  1          =FSBSCUR    DS    H                   Current no. of sessions
 00007A                             7056  1          =FSBSMAX    DS    H                   Max no. of sessions
 00007C                             7057  1          =FSBSMCLK   DS    XL8                 Clock at max
 000084                             7058  1          =FSBNSES    DS    F                   Total no. of sessions
                                    7059  1          =
1TOPS     (TOPS2025) (12:57) (15MAR04) DSECTS                                                                               Page   11
0Current Usings:  (CP,R11) (CV,R12)
0Loc    Object Code    Addr1 Addr2  Stmt Lv Lineno    Source Statement           (Hibal 5, Asmedit 3.3)  HLASM R4.0  2004/03/15 12.57
+___    ______ ____    _____ _____  ____ __ ______    ______ _________
0000088                             7060  1          =FSBNIO     DS    F                   Total no. of I/O's
 00008C                             7061  1          =FSBNHWE    DS    F                   Total no. of hw errors
                                    7062  1          =FSBBASIC   EQU   FSBUC,*-FSBUC,C'X'  ******
 000090                00090 00090  7063             =         END
1TOPS     (TOPS2025) (12:57) (15MAR04) DSECTS                                                                               Page   12
0Current Usings:  (CP,R11) (CV,R12)
0Loc    Object Code    Addr1 Addr2  Stmt Lv Lineno    Source Statement           (Hibal 5, Asmedit 3.3)  HLASM R4.0  2004/03/15 12.57
+___    ______ ____    _____ _____  ____ __ ______    ______ _________
0                                   7073                       COPY  FDB
                                    7074             =*
                                    7075             =**  FRONT-END DEPENDENT BLOCK
                                    7076             =*
-                                   7078             =***  DEVICE CONTROLS:
                                    7079             =FDBCSNSF EQU   1                   - SENSE FRONT-END INFO
                                    7080             =FDBCSNSP EQU   2                   - SENSE PORT INFO
                                    7081             =FDBCMAX  EQU   2
                                    7082             =
                                    7083             =FDBPSETF EQU   101                 - SET FRONT-END  (PRIV'D)
                                    7084             =FDBPSETP EQU   102                 - SET PORT       (PRIV'D)
                                    7085             =FDBPMAX  EQU   102
-000000                00000 00010  7087             =FDB      RECORD BEGIN
                                    7095  1          =***  FORMAT OF REQUEST TO MILTEN...
 000000                             7096  1          =FDBT       DS    0F
                                    7097  1          =
 000000                             7098  1          =FDBTFE     DS    H                   FRONT-END ID
 000002                             7099  1          =FDBTDNO    DS    X                   DEVICE CONTROL NUMBER
 000003                             7100  1          =           DS    X                   RESERVED
                                    7101  1          =FDBTDATA   EQU   *
                                    7102  1          =*
                                    7103  1          =*  CONTROL 1:   SENSE FRONT-END INFO
 000004                00004 00004  7104  1          =           ORG   FDBTDATA
                                    7105  1          =FDBT1      EQU   FDBT,*-FDBT,C'X'
                                    7106  1          =*
                                    7107  1          =*  CONTROL 2:   SENSE PORT INFO
 000004                00004 00004  7108  1          =           ORG   FDBTDATA
 000004                             7109  1          =FDBT2P     DS    H                   PORT NUMBER
                                    7110  1          =FDBT2      EQU   FDBT,*-FDBT,C'X'
                                    7111  1          =*
                                    7112  1          =*  CONTROL 101: SET FRONT-END
 000006                00006 00004  7113  1          =           ORG   FDBTDATA
 000004 00                          7114  1          =FDBT101F   FLAG
 FDBT101F.FDBTFSTR 80 ONES          7118  1          =           FLAG  FDBTFSTR            - START
 FDBT101F.FDBTFSTP 40 ONES          7123  1          =           FLAG  FDBTFSTP            - STOP
 FDBT101F.FDBTFOPN 20 ONES          7128  1          =           FLAG  FDBTFOPN            - OPEN
 FDBT101F.FDBTFCLS 10 ONES          7133  1          =           FLAG  FDBTFCLS            - CLOSE
                                    7138  1          =FDBT101    EQU   FDBT,*-FDBT,C'X'
                                    7139  1          =*
                                    7140  1          =*  CONTROL 102: SET PORT
 000005                00005 00004  7141  1          =           ORG   FDBTDATA
 000004                             7142  1          =FDBT102P   DS    H                   PORT NUMBER
                                    7143  1          =
 000006 00                          7144  1          =FDBT102F   FLAG
 FDBT102F.FDBTPSTR 80 ONES          7148  1          =           FLAG  FDBTPSTR            - START
 FDBT102F.FDBTPSTP 40 ONES          7153  1          =           FLAG  FDBTPSTP            - STOP
                                    7158  1          =FDBT102    EQU   FDBT,*-FDBT,C'X'
1TOPS     (TOPS2025) (12:57) (15MAR04) DSECTS                                                                               Page   13
0Current Usings:  (CP,R11) (CV,R12)
0D-Loc  Object Code    Addr1 Addr2  Stmt Lv Lineno    Source Statement           (Hibal 5, Asmedit 3.3)  HLASM R4.0  2004/03/15 12.57
+_____  ______ ____    _____ _____  ____ __ ______    ______ _________
0                                   7160  1          =***  FORMAT OF REQUEST FROM MILTEN...
 000007                00007 00000  7161  1          =           ORG   FDBT
 000000                             7162  1          =FDBF       DS    0F
                                    7163  1          =*
                                    7164  1          =*  CONTROL 1:   SENSE FRONT-END INFO
 000000                00000 00000  7165  1          =           ORG   FDBF
 000000                             7166  1          =           DS    2F                  RESERVED
 000008                             7167  1          =FDBFFTNO   DS    H                   NUMBER OF TRACE ENTRIES
 00000A                             7168  1          =FDBFFLEN   DS    H                   LENGTH OF A TRACE ENTRY
 00000C                             7169  1          =FDBFFTRC   DS    0X                  START OF TRACE ENTRIES
                                    7170  1          =FDBF1      EQU   FDBF,*-FDBF,C'X'
                                    7171  1          =*
                                    7172  1          =*  CONTROL 2:   SENSE PORT INFO
 00000C                0000C 00000  7173  1          =           ORG   FDBF
 000000                             7174  1          =           DS    2F                  RESERVED
 000008                             7175  1          =FDBFPTAD   DS    X                   TEST ADDRESS
 000009                             7176  1          =FDBFPCMD   DS    X                   CURRENT COMMAND
 00000A                             7177  1          =           DS    XL2                 RESERVED
 00000C                             7178  1          =FDBFPTNO   DS    H                   NUMBER OF TRACE ENTRIES
 00000E                             7179  1          =FDBFPLEN   DS    H                   LENGTH OF A TRACE ENTRY
 000010                             7180  1          =FDBFPTRC   DS    0X                  START OF TRACE ENTRIES
                                    7181  1          =FDBF2      EQU   FDBF,*-FDBF,C'X'
                                    7182  1          =*
                                    7183  1          =*  CONTROL 101: SET FRONT-END  (PRIV'D)
 000010                00010 00000  7184  1          =           ORG   FDBF
                                    7185  1          =FDBF101    EQU   FDBF,*-FDBF,C'X'
                                    7186  1          =*
                                    7187  1          =*  CONTROL 102: SET PORT       (PRIV'D)
 000000                00000 00000  7188  1          =           ORG   FDBF
                                    7189  1          =FDBF102    EQU   FDBF,*-FDBF,C'X'
                                    7190  1          =
 000000                00000 00010  7191             =         END
1TOPS     (TOPS2025) (12:57) (15MAR04) DSECTS                                                                               Page   14
0Current Usings:  (CP,R11) (CV,R12)
0Loc    Object Code    Addr1 Addr2  Stmt Lv Lineno    Source Statement           (Hibal 5, Asmedit 3.3)  HLASM R4.0  2004/03/15 12.57
+___    ______ ____    _____ _____  ____ __ ______    ______ _________
0                                   7201                       COPY  PSB
                                    7202             =*
                                    7203             =**  Port Status Block
                                    7204             =*
 000000                00000 00074  7205             =PSB      RECORD BEGIN
 000000                             7213  1          =PSBFEID    DS    H                   Front-end identifier
 000002                             7214  1          =PSBPNO     DS    H                   Port number
                                    7215  1          =
 000004 00                          7216  1          =PSBTTYPE   FLAG  ,                   Terminal type (copy of FEBTYPE)
 PSBTTYPE.PSBTCONS 01 EQ            7220  1          =           FLAG  (PSBTCONS,1,EQ)     - Console
 PSBTTYPE.PSBTASYN 02 EQ            7230  1          =           FLAG  (PSBTASYN,2,EQ)     - Async
 PSBTTYPE.PSBTPDP  03 EQ            7240  1          =           FLAG  (PSBTPDP,3,EQ)      - Pdp
 PSBTTYPE.PSBTVTAM 04 EQ            7250  1          =           FLAG  (PSBTVTAM,4,EQ)     - Vtam
 PSBTTYPE.PSBTVIRT 05 EQ            7260  1          =           FLAG  (PSBTVIRT,5,EQ)     - Virtual
 PSBTTYPE.PSBTNSC  06 EQ            7270  1          =           FLAG  (PSBTNSC,6,EQ)      - Nsc
 PSBTTYPE.PSBTELF  07 EQ            7280  1          =           FLAG  (PSBTELF,7,EQ)      - Elf
 PSBTTYPE.PSBTALF  08 EQ            7290  1          =           FLAG  (PSBTALF,8,EQ)      - Alf
 PSBTTYPE.PSBTECU  09 EQ            7300  1          =           FLAG  (PSBTECU,9,EQ)      - ECU
 PSBTTYPE.PSBTMAX  09 EQ            7310  1          =           FLAG  (PSBTMAX,9,EQ)
                                    7320  1          =
 000005                             7321  1          =           DS    XL3                 Reserved
                                    7322  1          =
 000008                             7323  1          =PSBPIBP    DS    A                   Address of PIB
                                    7324  1          =
 00000C                             7325  1          =PSBFENM    DS    CL8                 Front-end name
                                    7326  1          =
 000014                             7327  1          =PSBUC      DS    H                   Update count
                                    7328  1          =
 000016                             7329  1          =           DS    XL2                 Reserved
                                    7330  1          =
 000018                             7331  1          =PSBNAME    DS    CL8                 Port name
 000020                             7332  1          =PSBINFO    DS    CL20                Port information
 000034                             7333  1          =PSBLOC     DS    CL20                Port location
                                    7334  1          =
 000048 00                          7335  1          =PSBFLAG    FLAG
 PSBFLAG.PSBFDIAL  80 ONES          7339  1          =           FLAG  PSBFDIAL            - Dial-up
 PSBFLAG.PSBFSUN   40 ONES          7344  1          =           FLAG  PSBFSUN             - SUNet
 PSBFLAG.PSBFDIR   20 ONES          7349  1          =           FLAG  PSBFDIR             - Direct
 PSBFLAG.PSBFGAND  10 ONES          7354  1          =           FLAG  PSBFGAND            - Gandalf
 PSBFLAG.PSBFDUMB  08 ONES          7359  1          =           FLAG  PSBFDUMB            - Dumb front-end
                                    7364  1          =
 000049 00                          7365  1          =PSBFLAG2   FLAG
 PSBFLAG2.PSBFLEAS 80 ONES          7369  1          =           FLAG  PSBFLEAS            - Teased
 PSBFLAG2.PSBFTEL  40 ONES          7374  1          =           FLAG  PSBFTEL             - Telenet
 PSBFLAG2.PSBFTYM  20 ONES          7379  1          =           FLAG  PSBFTYM             - Tymnet
 PSBFLAG2.PSBFRLIN 10 ONES          7384  1          =           FLAG  PSBFRLIN            - Rlin
                                    7389  1          =
 00004A 00                          7390  1          =PSBFLAG3   FLAG
 PSBFLAG3.PSBFPS   80 ONES          7394  1          =           FLAG  PSBFPS              - "Pseudo" port
 PSBFLAG3.PSBFPTID 40 ONES          7399  1          =           FLAG  PSBFPTID            - Terminal id is pre-assigned
 PSBFLAG3.PSBFOP   20 ONES          7404  1          =           FLAG  PSBFOP              - Operator
                                    7409  1          =
 00004B 00                          7410  1          =PSBFLAG4   FLAG
 PSBFLAG4.PSBFSTOP 80 ONES          7414  1          =           FLAG  PSBFSTOP            - Stopped
1TOPS     (TOPS2025) (12:57) (15MAR04) DSECTS                                                                               Page   15
0Current Usings:  (CP,R11) (CV,R12)
0Loc    Object Code    Addr1 Addr2  Stmt Lv Lineno    Source Statement           (Hibal 5, Asmedit 3.3)  HLASM R4.0  2004/03/15 12.57
+___    ______ ____    _____ _____  ____ __ ______    ______ _________
0PSBFLAG4.PSBFDET  40 ONES          7419  1          =           FLAG  PSBFDET             - Detached
 PSBFLAG4.PSBFDUM  20 ONES          7424  1          =           FLAG  PSBFDUM             - Dummy
                                    7429  1          =
 00004C 00                          7430  1          =PSBFLAG5   FLAG
 PSBFLAG5.PSBFDOWN 80 ONES          7434  1          =           FLAG  PSBFDOWN            - Status: down
 PSBFLAG5.PSBFHU   40 ONES          7439  1          =           FLAG  PSBFHU              - Status: hung-up
 PSBFLAG5.PSBFERR  20 ONES          7444  1          =           FLAG  PSBFERR             - Status: serious error occurred
                                    7449  1          =
 00004D                             7450  1          =           DS    X                   Reserved
                                    7451  1          =
 00004E                             7452  1          =PSBSCUR    DS    H                   Current no. of sessions
 000050                             7453  1          =PSBSMAX    DS    H                   Max no. of sessions
 000052                             7454  1          =PSBSMCLK   DS    XL8                 Clock at max
 00005C                             7455  1          =PSBNSES    DS    F                   Total no. of sessions
                                    7456  1          =
 000060                             7457  1          =PSBNIO     DS    F                   Total no. of I/O's
 000064                             7458  1          =PSBNHWE    DS    F                   Total no. of hw errors
                                    7459  1          =
 000068                             7460  1          =           DS    3F                  Reserved
                                    7461  1          =PSBBASIC   EQU   PSBUC,*-PSBUC,C'X'  ******
 000074                00074 00074  7462             =         END
1TOPS     (TOPS2025) (12:57) (15MAR04) DSECTS                                                                               Page   16
0Current Usings:  (CP,R11) (CV,R12)
0Loc    Object Code    Addr1 Addr2  Stmt Lv Lineno    Source Statement           (Hibal 5, Asmedit 3.3)  HLASM R4.0  2004/03/15 12.57
+___    ______ ____    _____ _____  ____ __ ______    ______ _________
0                                   7472                       COPY  SSB
                                    7473             =*
                                    7474             =**  SUBSYSTEM STATUS BLOCK
                                    7475             =*
 000000                00000 00038  7476             =SSB      RECORD BEGIN
 000000                             7484  1          =SSBID      DS    H                   SUBSYSTEM IDENTIFIER
 000002                             7485  1          =           DS    H                   RESERVED
                                    7486  1          =
 000004                             7487  1          =SSBNAME    DS    CL8                 SUBSYSTEM NAME
 00000C                             7488  1          =SSBJOBNM   DS    CL8                 SUBSYSTEM JOBNAME
 000014 00                          7489  1          =SSBFLAG    FLAG
 SSBFLAG.SSBFPRIV  80 ONES          7493  1          =           FLAG  SSBFPRIV            - PRIV'D SUBSYSTEM
                                    7498  1          =
 000015                             7499  1          =           DS    XL3                 RESERVED
                                    7500  1          =
 000018                             7501  1          =SSBSCLCK   DS    XL8                 CLOCK AT START
                                    7502  1          =
 000020                             7503  1          =SSBMAX     DS    H                   MAXIMUM NO. OF SESSIONS
 000022                             7504  1          =SSBCUR     DS    H                   CURRENT NO. OF SESSIONS
                                    7505  1          =
 000024                             7506  1          =SSBNIO     DS    F                   TOTAL NO. OF I/O'S
 000028                             7507  1          =SSBNCNTL   DS    F                   TOTAL NO. OF CONTROLS
 00002C                             7508  1          =SSBNSES    DS    F                   TOTAL NO. OF SESSIONS
 000030                             7509  1          =           DS    2F                  RESERVED
                                    7510  1          =SSBBASIC   EQU   SSBNAME,*-SSBNAME,C'X'  ******
 000038                00038 00038  7511             =         END
1TOPS     (TOPS2025) (12:57) (15MAR04) DSECTS                                                                               Page   17
0Current Usings:  (CP,R11) (CV,R12)
0Loc    Object Code    Addr1 Addr2  Stmt Lv Lineno    Source Statement           (Hibal 5, Asmedit 3.3)  HLASM R4.0  2004/03/15 12.57
+___    ______ ____    _____ _____  ____ __ ______    ______ _________
0000000                00000 000FE  7521                       RECORD 'SIB'
 000000                             7532  1 03-SIB   +SIBSTART   DS    0F
 000000                             7533  1 03-SIB   +SIBID      DS    F                   Unique session number
 000004                             7534  1 03-SIB   +SIBNO      DS    H                   Session number
 000006                             7535  1 03-SIB   +SIBTMINC   DS    H                   No. minutes session was idle
                                    7536  1 03-SIB   +SIBIHDR    EQU   SIBSTART,*-SIBSTART,C'X'
                                    7537  1          +
 000008                             7538  1 03-SIB   +SIBFE      DS    CL8                 Front-end name
                                    7539  1          +
 000010                             7540  1 03-SIB   +SIBPORT    DS    CL8                 Port name
 000018                             7541  1 03-SIB   +SIBPINFO   DS    CL20                Port information
 00002C                             7542  1 03-SIB   +SIBPLOC    DS    CL20                Port location
 000040 00                          7543  1          +*
 SIBFL.SIBFDIAL    80 ONES
 SIBFL.SIBFSUN     40 ONES
 SIBFL.SIBFDIR     20 ONES
 SIBFL.SIBFGAND    10 ONES
 SIBFL.SIBFDUMB    08 ONES
 000041 00                          7573  1          +*
 SIBFL2.SIBFLEAS   80 ONES
 SIBFL2.SIBFTEL    40 ONES
 SIBFL2.SIBFTYM    20 ONES
 SIBFL2.SIBFRLIN   10 ONES
 000042 00                          7598  1          +*
 SIBFL3.SIBFPS     80 ONES
 SIBFL3.SIBFPTID   40 ONES
 SIBFL3.SIBFOP     20 ONES
 000043 00                          7618  1          +*
 SIBFL4.SIBFSTOP   80 ONES
 SIBFL4.SIBFDET    40 ONES
 SIBFL4.SIBFDUM    20 ONES
 000044 00                          7638  1          +*
 SIBFL5.SIBFDOWN   80 ONES
 SIBFL5.SIBFHU     40 ONES
 SIBFL5.SIBFERR    20 ONES
                                    7658  1          +*
 000045                             7659  1 03-SIB   +           DS    X                   Reserved
                                    7660  1 03-SIB   +SIBPIB     EQU   SIBPORT,*-SIBPORT,C'X'
                                    7661  1          +
 000048 00                          7662  1 03-SIB   +SIB1ST     DS    0F
 SIBTYPE.SIBTCONS  01 EQ
 SIBTYPE.SIBTASYN  02 EQ
 SIBTYPE.SIBTPDP   03 EQ
 SIBTYPE.SIBTVTAM  04 EQ
 SIBTYPE.SIBTVIRT  05 EQ
 SIBTYPE.SIBTNSC   06 EQ
 SIBTYPE.SIBTELF   07 EQ
 SIBTYPE.SIBTALF   08 EQ
                                    7747  1          +
 000049                             7748  1 03-SIB   +SIBTINFO   DS    XL2                 Terminal info flags
 00004B 00                          7749  1          +*
 SIBSTAT.SIBFDSC   80 ONES
 SIBSTAT.SIBFLGF   40 ONES
 SIBSTAT.SIBFSOF   20 ONES
1TOPS     (TOPS2025) (12:57) (15MAR04) DSECTS                                                                               Page   18
0Current Usings:  (CP,R11) (CV,R12)
0Loc    Object Code    Addr1 Addr2  Stmt Lv Lineno    Source Statement           (Hibal 5, Asmedit 3.3)  HLASM R4.0  2004/03/15 12.57
+___    ______ ____    _____ _____  ____ __ ______    ______ _________
0SIBSTAT.SIBFKL    10 ONES
 SIBSTAT.SIBFTO    08 ONES
 SIBSTAT.SIBFMT    04 ONES
 SIBSTAT.SIBFKEPT  02 ONES
                                    7789  1          +*
 00004C                             7790  1 03-SIB   +SIBNMSG    DS    H                   No. of async msgs waiting
                                    7791  1          +
 00004E                             7792  1 03-SIB   +SIBTETYP   DS    C                   SMF port type
 00004F                             7793  1 03-SIB   +           DS    X                   Reserved (was line-speed)
                                    7794  1          +
 000050                             7795  1 03-SIB   +SIBSUB     DS    CL8                 Current subsystem
                                    7796  1          +
 000058                             7797  1 03-SIB   +           DS    0F
 000058                             7798  1 03-SIB   +SIBVPGM    DS    CL8                 ORVYL program
 000060                             7799  1 03-SIB   +SIBVCPU    DS    F                   ORVYL CPU time used
 000064                             7800  1 03-SIB   +SIBVFLAG   DS    X                   ORVYL flags
                                    7801  1 03-SIB   +SIBVFRUN   EQU   X'80'               - Program is running (not paused)
                                    7802  1 03-SIB   +SIBVFATH   EQU   X'40'               - Program is authorized
 000065                             7803  1 03-SIB   +SIBVDIO    DS    XL3                 ORVYL Disk I/O
                                    7804  1 03-SIB   +SIBVINFO   EQU   SIBVPGM,*-SIBVPGM,C'X'
                                    7805  1          +
 000068                             7806  1 03-SIB   +SIBLCLCK   DS    XL8                 Tod clock at logon
                                    7807  1          +
                                    7808  1 03-SIB   +SIBACCT    EQU   *,5,C'C'            Account (uuugg)
 000070                             7809  1 03-SIB   +SIBUSER    DS    CL3                 .uuu
 000073                             7810  1 03-SIB   +SIBGRP     DS    CL2                 .gg
 000075                             7811  1 03-SIB   +SIBANO     DS    XL2                 .number
 000077 00                          7812  1          +*
 SIBSFLG.SIBSFNAT  80 ONES
 SIBSFLG.SIBSFNAR  40 ONES
 SIBSFLG.SIBSFPS   20 ONES
 SIBSFLG.SIBSFOP   10 ONES
 SIBSFLG.SIBSFSEC  08 ONES
 SIBSFLG.SIBSFPRT  04 ONES
 000078 00                          7847  1          +*
 SIBTACF.SIBFNST   80 ONES
 SIBTACF.SIBFNTM   40 ONES
 SIBTACF.SIBRSVX20 20 ONES
 SIBTACF.SIBRSVX10 10 ONES
 SIBTACF.SIBRSVX08 08 ONES
 SIBTACF.SIBRSVX04 04 ONES
 SIBTACF.SIBFNDAY  02 ONES
 SIBTACF.SIBRSVX01 01 ONES
                                    7892  1          +*
 000079                             7893  1 03-SIB   +           DS    X                   Reserved
 00007A 00                          7894  1          +*
 SIBKIFL.SIBFIVAL  80 ONES
 SIBKIFL.SIBFAPR   40 ONES
 SIBKIFL.SIBFSPR   20 ONES
 SIBKIFL.SIBFOPR   10 ONES
 SIBKIFL.SIBFSBM   08 ONES
 SIBKIFL.SIBFSUB   04 ONES
 SIBKIFL.SIBFADM   02 ONES
 SIBKIFL.SIBFPC    01 ONES
1TOPS     (TOPS2025) (12:57) (15MAR04) DSECTS                                                                               Page   19
0Current Usings:  (CP,R11) (CV,R12)
0Loc    Object Code    Addr1 Addr2  Stmt Lv Lineno    Source Statement           (Hibal 5, Asmedit 3.3)  HLASM R4.0  2004/03/15 12.57
+___    ______ ____    _____ _____  ____ __ ______    ______ _________
000007B 00                          7939  1          +*
 SIBKAFL.SIBFAVAL  80 ONES
 SIBKAFL.SIBFR1    40 ONES
 SIBKAFL.SIBFR2    20 ONES
 SIBKAFL.SIBFR3    10 ONES
 SIBKAFL.SIBFTOK   08 ONES
                                    7969  1          +*
 00007C                             7970  1 03-SIB   +SIBASCBP   DS    A                   ASCB addr, if virtual session
                                    7971  1 03-SIB   +SIBSESS    EQU   SIBACCT,*-SIBACCT,C'X'
                                    7972  1 03-SIB   +SIBINFO    EQU   SIBSTART,*-SIBSTART,C'X'
                                    7973  1          +***
                                    7974  1          +***  Fields below here can be modified by the user program.
                                    7975  1          +***
 000080                             7976  1 03-SIB   +SIBOPST    DS    0F
 000080                             7977  1 03-SIB   +SIBUC      DS    H                   Update count
 000082                             7978  1 03-SIB   +SIBNAME    DS    CL20                User name
 000096                             7979  1 03-SIB   +SIBTID     DS    CL8                 Terminal id
 00009E 00                          7980  1 03-SIB   +SIBTCLS    DS    CL8                 Terminal class
 SIBTFLAG.SIBFMOD  80 ONES
 SIBTFLAG.SIBFSAM  40 ONES
 SIBTFLAG.SIBFALTD 20 ONES
                                    8000  1          +
 0000A7                             8001  1 03-SIB   +           DS    XL1                 Reserved
 0000A8 00                          8002  1          +*
 SIBQFLG.SIBFVFAST 80 ONES
 0000A9 00                          8012  1          +*
 0000AA 00                          8017  1          +*
 SIBUFLG.SIBFNMSG  80 ONES
 SIBUFLG.SIBFNCOM  40 ONES
 SIBUFLG.SIBFNBRK  20 ONES
 SIBUFLG.SIBFNTIM  10 ONES
 SIBUFLG.SIBFCLN   08 ONES
 SIBUFLG.SIBFDISP  04 ONES
 SIBUFLG.SIBFPERM  02 ONES
 SIBUFLG.SIBFTRAN  01 ONES
 0000AB 00                          8062  1          +*
 SIBUFLG2.SIBFTRC  80 ONES
 SIBUFLG2.SIBFKEEP 40 ONES
                                    8077  1 03-SIB   +SIBG       EQU   SIBSTART,*-SIBSTART,C'X'
                                    8078  1          +***
                                    8079  1          +***  Information below this line is considered "private" and
                                    8080  1          +***    the user can only sense it for his own session.
                                    8081  1          +***
 0000AC                             8082  1 03-SIB   +SIBPROJ    DS    CL8                 Project-id
 0000B4 00                          8083  1          +*
 SIBFLG.SIBFUPL    80 ONES
 SIBFLG.SIBFBACK   40 ONES
 SIBFLG.SIBFFAST   20 ONES
 SIBFLG.SIBFRSV8   10 ONES
 SIBFLG.SIBFPSP    08 ONES
 SIBFLG.SIBFXON    04 ONES
 SIBFLG.SIBFFILT   02 ONES
 SIBFLG.SIBFNECH   01 ONES
 0000B5 00                          8128  1          +*
1TOPS     (TOPS2025) (12:57) (15MAR04) DSECTS                                                                               Page   20
0Current Usings:  (CP,R11) (CV,R12)
0Loc    Object Code    Addr1 Addr2  Stmt Lv Lineno    Source Statement           (Hibal 5, Asmedit 3.3)  HLASM R4.0  2004/03/15 12.57
+___    ______ ____    _____ _____  ____ __ ______    ______ _________
0SIBFLG2.SIBFSAMFO 80 ONES
 SIBFLG2.SIBFERA   40 ONES
 SIBFLG2.SIBFNTYP  20 ONES
                                    8148  1          +*
 0000B6                             8149  1 03-SIB   +SIBINMX    DS    H                   Maximum input length allowed
 0000B8                             8150  1 03-SIB   +SIBOUMX    DS    H                   Maximum output length allowed
 0000BA                             8151  1 03-SIB   +SIBCHAR    DS    CL8                 Terminal translate table name
 0000C2                             8152  1 03-SIB   +SIBTABS    DS    XL16                Tabs
 0000D2 00                          8153  1          +*
 SIBOFLAG.SIBFPAR  80 ONES
 SIBOFLAG.SIBFEVEN 40 ONES
 SIBOFLAG.SIBFODD  20 ONES
 SIBOFLAG.SIBFMARK 10 ONES
 SIBOFLAG.SIBFQUIE 08 ONES
 0000D3                             8183  1 03-SIB   +           DS    X                   Reserved
 0000D4                             8184  1 03-SIB   +SIBWID     DS    H                   Terminal width, actual
 0000D6                             8185  1 03-SIB   +SIBHEIP    DS    H                   Terminal height, before pausing
 0000D8                             8186  1 03-SIB   +SIBHEI     DS    H                   Terminal height, actual
                                    8187  1          +
 0000DA                             8188  1 03-SIB   +SIBTTYPE   DS    CL8                 Terminal type
 0000E2                             8189  1 03-SIB   +           DS    XL2                 Reserved
 0000E4                             8190  1 03-SIB   +SIBIPADR   DS    F                   IP address for TCP/IP sessions
 0000E8                             8191  1 03-SIB   +           DS    XL2                 Reserved
                                    8192  1          +
 0000EA                             8193  1 03-SIB   +SIBIDMAX   DS    H                   Max no. of idle minutes allowed
                                    8194  1          +
 0000EC                             8195  1 03-SIB   +SIBALTWID   DS   H                   Alternate width (0=none)
 0000EE                             8196  1 03-SIB   +SIBALTHEI   DS   H                   Alternate height (0=none)
                                    8197  1          +
 0000F0                             8198  1 03-SIB   +SIBCRI     DS    2H                  CR idles
 0000F4                             8199  1 03-SIB   +SIBLFI     DS    H                   LF idles
 0000F6                             8200  1 03-SIB   +SIBHTI     DS    2H                  HT idles
 0000FA                             8201  1 03-SIB   +SIBCAI     DS    H                   Cursor-address idles
 0000FC                             8202  1 03-SIB   +SIBCSI     DS    H                   Clear-screen idles
                                    8203  1 03-SIB   +SIBIDLE    EQU   SIBCRI,*-SIBCRI,C'X'
                                    8204  1          +
                                    8205  1 03-SIB   +SIBOPT     EQU   SIBOPST,*-SIBOPST,C'X'
                                    8206  1          +
                                    8207  1 03-SIB   +SIB1       EQU   SIB1ST,*-SIB1ST,C'X'
                                    8208  1          +
 0000FE                000FE 000FE  8209    03-SIB   +SIB      EQU   SIBSTART,*-SIBSTART,C'X'
1TOPS     (TOPS2025) (12:57) (15MAR04) DSECTS                                                                               Page   21
0Current Usings:  (CP,R11) (CV,R12)
0Loc    Object Code    Addr1 Addr2  Stmt Lv Lineno    Source Statement           (Hibal 5, Asmedit 3.3)  HLASM R4.0  2004/03/15 12.57
+___    ______ ____    _____ _____  ____ __ ______    ______ _________
0                                   8220                       COPY  TRANGE
 000000                00000 00030  8221             =RNE      RECORD BEGIN              Range entry (see rngcb)
 000000                             8229  1          =RNELEN     DS    X                   Length
 000001 00                          8230  1          =RNEIFLAG   FLAG
 RNEIFLAG.RNEFMULT 80 ONES          8234  1          =           FLAG  RNEFMULT            - Multiple
                                    8239  1          =
 000002                             8240  1          =           DS    XL2                 Reserved
                                    8241  1          =
 000004 00                          8242  1          =RNEFLAG    FLAG
 RNEFLAG.RNEFQ     80 ONES          8246  1          =           FLAG  RNEFQ               - Text was quoted
 RNEFLAG.RNEFALL   40 ONES          8251  1          =           FLAG  RNEFALL             - Include pseudo stuff
 000005                             8256  1          =           DS    XL3                 Reserved
                                    8257  1          =
 000008                             8258  1          =           DS    2F                  Reserved
                                    8259  1          =RNEHDR     EQU   RNEFLAG,*-RNEFLAG,C'X'
                                    8260  1          =*
                                    8261  1          =*RNETEXT DS    CL20                Range text
 000010                             8262  1          =RNETEXT    DS    CL32                Range text ; gg.sch 3/92
 000030                00030 00030  8263             =         END
1TOPS     (TOPS2025) (12:57) (15MAR04) DSECTS                                                                               Page   22
0Current Usings:  (CP,R11) (CV,R12)
0Loc    Object Code    Addr1 Addr2  Stmt Lv Lineno    Source Statement           (Hibal 5, Asmedit 3.3)  HLASM R4.0  2004/03/15 12.57
+___    ______ ____    _____ _____  ____ __ ______    ______ _________
0000000                00000 0029A  8273             =RNGCB    RECORD BEGIN
                                    8281  1          =
                                    8282  1          =RNGOPT     EQU   *,4,C'F'            Range option word
 000000                             8283  1          =           DS    H                   Reserved
 000002                             8284  1          =RNGTYPE    DS    X                   Range type
                                    8285  1          =RNGTFE     EQU   1                   - Fe-range wanted
                                    8286  1          =RNGTPORT   EQU   2                   - Port-range wanted
                                    8287  1          =RNGTSES    EQU   3                   - Session-range wanted
                                    8288  1          =
 000003 00                          8289  1          =RNGOFLAG   FLAG
 RNGOFLAG.RNGFDALL 80 ONES          8293  1          =           FLAG  RNGFDALL            - Default range is all
 RNGOFLAG.RNGFDOUR 40 ONES          8298  1          =           FLAG  RNGFDOUR            - Default range is our line
 RNGOFLAG.RNGFMULT 20 ONES          8303  1          =           FLAG  RNGFMULT            - Multiple
 RNGOFLAG.RNGFLIST 10 ONES          8308  1          =           FLAG  RNGFLIST            - List
 RNGOFLAG.RNGFVER  08 ONES          8313  1          =           FLAG  RNGFVER             - Verify
                                    8318  1          =
 000004                             8319  1          =RNGCOSEL   DS    A          [Order]  Selection co-routine addr
 000008                             8320  1          =RNGCORTN   DS    A          [Order]  Co-routine addr
                                    8321  1          =
 00000C 00                          8322  1          =RNGFLAG    FLAG
 RNGFLAG.RNGFALL   80 ONES          8326  1          =           FLAG  RNGFALL             - All
 RNGFLAG.RNGFDIAL  40 ONES          8331  1          =           FLAG  RNGFDIAL            - Dial
 RNGFLAG.RNGFTRAN  20 ONES          8336  1          =           FLAG  RNGFTRAN            - Tran
 RNGFLAG.RNGFDIR   10 ONES          8341  1          =           FLAG  RNGFDIR             - Direct
 RNGFLAG.RNGFLEAS  08 ONES          8346  1          =           FLAG  RNGFLEAS            - Leased
 RNGFLAG.RNGFSMF   04 ONES          8351  1          =           FLAG  RNGFSMF             - Show SMF code
                                    8356  1          =
 00000D 00                          8357  1          =RNGFLAG2   FLAG
 RNGFLAG2.RNGFSOME 80 ONES          8361  1          =           FLAG  RNGFSOME            - Non-void range
                                    8366  1          =
 00000E                             8367  1          =RNGTTYPE   DS    X                   Device type to match (see "fsbtype")
                                    8368  1          =
 00000F                             8369  1          =RNGLTYPE   DS    X                   Local copy of "rngtype"
                                    8370  1          =
 000010                             8371  1          =           DS    2F                  Reserved
                                    8372  1          =
                                    8373  1          =RNG#       EQU   8                   Max no. of range items
 000018                             8374  1          =RNGM       DS    H                   Max offset from "rng"
 00001A                             8375  1          =RNGN       DS    H                   Current offset from "rng"
 00001C                             8376  1          =RNG        DS    (RNG#)XL(L'RNE)     Range area
                                    8377  1          =
 00019C                             8378  1          =RNGITEMX   DS    0F
 00019C                0019C 0022C  8379  1          =           ORG   RNGITEMX+L'FSB
 00022C                0022C 00210  8380  1          =           ORG   RNGITEMX+L'PSB
 000210                00210 0029A  8381  1          =           ORG   RNGITEMX+L'SIB
 00029A                0029A 0029A  8382  1          =           ORG
                                    8383  1          =RNGITEM    EQU   RNGITEMX,*-RNGITEMX,C'X'
                                    8384  1          =
 00029A                0029A 0029A  8385             =         END
1TOPS     (TOPS2025) (12:57) (15MAR04) Terminal Type Table Update Routine                                                   Page   23
0Current Usings:  (CP,R11) (CV,R12)
0Loc    Object Code    Addr1 Addr2  Stmt Lv Lineno    Source Statement           (Hibal 5, Asmedit 3.3)  HLASM R4.0  2004/03/15 12.57
+___    ______ ____    _____ _____  ____ __ ______    ______ _________
0000000                00000 00407  8395              STYPWA   RECORD BEGIN
 000000 00                          8403  1           STYPFLAG   FLAG
                                    8407  1
 000004                             8408  1           STYPQH     DS    A                   New TTYPE queue head ptr
 000008                             8409  1           STYPQT     DS    A                   New TTYPE queue tail ptr
                                    8410  1
 00000C                             8411  1           SINITQT    DS    A                   TTYPE "init text" queue tail
                                    8412  1
 000010                             8413  1           STTYPE     DS    XL(L'TTYPE)         Working TYP entry
                                    8414  1
                                    8415  1           STYPLINE   DS    CL(&LINESZ)         Working line buffer
 00011C                                   1          +STYPLINE   DS    CL(235)             Working line buffer
 000207                             8416  1           STYPSKIP   DS    XL256               Scan skip chars
 000307                             8417  1           STYPSTOP   DS    XL256               Scan stop chars
 000407                00407 00407  8418                       END
-                                   8428              ¿þþþþþþþþþþþþþþþþþþþþþþþþþþþþþþþþþþþþþþþþþþþþþþþþþþþþþþþþþþþþþþþþþþþþþÜ
                                    8429              Ÿ                                                                     Ÿ
                                    8430              Ÿ  SETWTRM -- SET WTERMINAL Command.  (Priv'd.)                       Ÿ
                                    8431              Ÿ                                                                     Ÿ
                                    8432              Ÿ    NOTE:  THIS ROUTINE IS NOT ENTERD AFTER SAVE OF TERMINAL         Ÿ
                                    8433              Ÿ           FILE.... THAT WAS A YUCK !!                               Ÿ
                                    8434              Ÿ    Note:  This routine is also called after a successful save       Ÿ
                                    8435              Ÿ           of "TERMINAL ACCOUNT GS.WYL".                             Ÿ
                                    8436              Ÿ                                                                     Ÿ
                                                      ¾þþþþþþþþþþþþþþþþþþþþþþþþþþþþþþþþþþþþþþþþþþþþþþþþþþþþþþþþþþþþþþþþþþþþþ»
0000018 50E0 D000/9008_      00000  8437              SETWTERM XPROC STYPWA
 USING  *,R7
 USING  STYPWA-(4+36),R8
 000032 D7FF 8028 8028_00000 00000  8488                       CLEAR STYPWA
 000050 4160 8028            00000  8499                       LA    R6,STYPWA
 000054 5060 BCA4            00CA4  8500                       ST    R6,CPCWA
                                    8501
 000058 95E6 BD24/4780_00D24        8502                       IF    (CPCMNM,NE,'W'),BEGIN  Entered after SAVE...
 000060 D603 B05C B05C_0005C 0005C  8519  1                      TCCR
 000080 4110 7DEA/4100_      00E1C  8581  1                      TSEG  'Type SET WTERMINAL to reset terminal tables.'
 000092 47F0 C7DE            007DE  8599  1                      B     CVNEXT
 000096                             8600                       END
 000096 7068/47F0 7076 00096 0005E  8604                       ELSE  BEGIN               Command entry...
 00009A 9120 B3BE/4710_003BE        8615  1                      IF    ~CPSFSPR,'VCALL NOTVALID'   Sorry pal
 0000A8                             8639                       END
                                    8643
                                    8644                       AIF   (&$PCODE).RDACT     *** PCODE
 0000A8 4100 0003            00003  8645                       LA    R0,SDSNTERM         Want TERMINAL dsn
 0000AC 58E0 7E1E/0DEE       00E50  8646                       VCALL EXIT0               LOCAL exit - format system dsname
 0000B2 58E0 B08C/501E_      0008C  8650                       SCINIT (R1),(R0)
 0000C0 58E0 7E22/0DEE       00E54  8670                       VCALL DOFNAME
 0000C6 58E0 7E26/0DEE       00E58  8674                       VCALL FNAMOPTS            SCAN FILE NAME, FILE OPTIONS
 0000CC 58E0 7E2A/0DEE       00E5C  8678                       SCANCHK
 0000D2 58E0 7E2E/0DEE       00E60  8683                       VCALL FNAMEFIN
                                    8687
 0000D8 9610 BD50      00D50        8688                       SET   CPLFLG1.CPFALL
1TOPS     (TOPS2025) (12:57) (15MAR04) Terminal Type Table Update Routine                                                   Page   24
0Current Usings:  (*,R7) (STYPWA-(4+36),R8) (CP,R11) (CV,R12)
0Loc    Object Code    Addr1 Addr2  Stmt Lv Lineno    Source Statement           (Hibal 5, Asmedit 3.3)  HLASM R4.0  2004/03/15 12.57
+___    ______ ____    _____ _____  ____ __ ______    ______ _________
00000DC 9203 BD89      00D89        8695                       SET   CPFRDEXT
 0000E0 58E0 7E32/0DEE       00E64  8701                       VCALL NDETRNG
                                    8705
 0000E6 58E0 7E36/0DEE       00E68  8706                       VCALL EXTOPEN             Open the file
 0000EC 12FF/4770 C7DE              8710                       IF    (R15,NZ),CVNEXT
                                    8727
                                    8728                       COMMENT                   PROCESS RANGE
 0000F2 5800 7E3A/5810_      00E6C  8729                       RDRNG STYPRTN,(DESRTRN+LXCATRTN+UNPRST)
                                    8736
 000100 58E0 7E46/0DEE       00E78  8737                       VCALL EXTCLOSE            All done
                                    8741                       AGO   .RDDONE             *** PCODE
                                    8742              .RDDONE  ANOP  ,                   *** PCODE
                                    8743                       ¿þþþþþþþþþþþþþþþþþþþþþþþþþþþÜ
                                    8744                       Ÿ  Now do post-processing.  Ÿ
                                    8745                       ¾þþþþþþþþþþþþþþþþþþþþþþþþþþþ»
 000106 D603 802C 802C_00004 00004  8746                       IF    (STYPQH,Z),BEGIN    Nothing there...
 000110 9108 C4C5/4710_004C5        8762  1                      IF    CVFINIT,EXIT
 000118 D603 B05C B05C_0005C 0005C  8780  1                      TCCR
 000138 4110 7E8E/4100_      00EC0  8842  1                      TSEG  'No terminal types defined.',,CR
 00014A                             8860                       END
                                    8864                       ¿þþþþþþþþþþþþþþþþþþþþþþþþþþþþþþþþþþþþþþþþþþþþÜ
                                    8865                       Ÿ  Make new TTYPE table the system default.  Ÿ
                                    8866                       ¾þþþþþþþþþþþþþþþþþþþþþþþþþþþþþþþþþþþþþþþþþþþþ»
 00014A 5850 C204            00204  8867                       L     R5,CVTTYQH          Save old table ptr
 00014E D203 C204 802C 00204 00004  8868                       MVC   CVTTYQH,STYPQH      Make new version available
                                    8869                       ¿þþþþþþþþþþþþþþþþþþþþþþþþþþþþÜ
                                    8870                       Ÿ  Release old TTYPE table.  Ÿ
                                    8871                       ¾þþþþþþþþþþþþþþþþþþþþþþþþþþþþ»
 000154 1255/4780 717A              8872                       WHILE (R5,NZ),BEGIN       Freemain each entry...
 USING  TTYPE,R5                    8888  1                      WITH  (TTYPE,R5)
 00015A 5840 5000            00000  8901  1                      L     R4,TTYLINK
                                    8902  1
 00015E 9680 5004      00004        8903  1                      SET   TTYFREL             Released when entry is unused
 000162 D601 5006 5006_00006 00006  8909  1                      IF    (TTYUSE,Z),BEGIN    Free it now...
                                    8925  2                        ¿þþþþþþþþþþþþþþþþþþþþþþþþþþþþÜ
                                    8926  2                        Ÿ  Release init write text.  Ÿ
                                    8927  2                        ¾þþþþþþþþþþþþþþþþþþþþþþþþþþþþ»
 00016C 5830 5010            00010  8928  2                        L     R3,TTYINITQ
 000170 1233/4780 7160              8929  2                        WHILE (R3,NZ),BEGIN       Free "init text"...
 000176 5820 3000            00000  8945  3                          L     R2,@R3              Get next "init text" entry ptr
 00017A 1813/4800 3004              8946  3                          SETMSG (R3),LH:@R3+4
 000180 D203 3000 7E4A 00000 00E7C  8957  3                          MVC   @R3(4),=F'-1'       (Neatness)
                                    8958  3           *        FREEMAIN R,A=(1),LV=(0)   Free text entry
 000186 58E0 7E4E/0DEE       00E80  8959  3                          VCALL FREECORE
 00018C 1832                        8963  3                          LR    R3,R2
 00018E 47F0 713E            00170  8964  2                        END
                                    8969  2                        ¿þþþþþþþþþþþþþþþþþþþþþþþþÜ
                                    8970  2                        Ÿ  Release TTYPE entry.  Ÿ
                                    8971  2                        ¾þþþþþþþþþþþþþþþþþþþþþþþþ»
 000192 D7FF 5000 5000_00000 00000  8972  2                        CLEAR TTYPE               (Neatness)
 00019E 1815                        8980  2                        LR    R1,R5
                                    8981  2           *        FREEMAIN R,A=(R1),LV=L'TTYPE
 0001A0 58E0 7E4E/0DEE       00E80  8982  2                        VCALL FREECORE
 0001A6                             8986  1                      END
1TOPS     (TOPS2025) (12:57) (15MAR04) Terminal Type Table Update Routine                                                   Page   25
0Current Usings:  (TTYPE,R5) (*,R7) (STYPWA-(4+36),R8) (CP,R11) (CV,R12)
0Loc    Object Code    Addr1 Addr2  Stmt Lv Lineno    Source Statement           (Hibal 5, Asmedit 3.3)  HLASM R4.0  2004/03/15 12.57
+___    ______ ____    _____ _____  ____ __ ______    ______ _________
0                                   8990  1
 0001A6 1854                        8991  1                      LR    R5,R4
 0001A8 47F0 7122            00154  8992                       END
 DROP   TTYPE,R5
                                    9002
 0001AC 47F0 C7DE            007DE  9003                       B     CVNEXT
 0001B0 18D8/9808 D004_             9004                       PEND
 DROP   STYPWA-(4+36),R8
 DROP   *,R7
                                    9029
1TOPS     (TOPS2025) (12:57) (15MAR04) Terminal Type Table Update Routine                                                   Page   26
0Current Usings:  (CP,R11) (CV,R12)
0Loc    Object Code    Addr1 Addr2  Stmt Lv Lineno    Source Statement           (Hibal 5, Asmedit 3.3)  HLASM R4.0  2004/03/15 12.57
+___    ______ ____    _____ _____  ____ __ ______    ______ _________
0                                   9031              ¿þþþþþþþþþþþþþþþþþþþþþþþþþþþþþþþþþþþþþþþþþþþþþþþþþþþþþþþþþþþþþþþþþþþþþÜ
                                    9032              Ÿ                                                                     Ÿ
                                    9033              Ÿ  STYPRTN -- Co-routine to process lines from the TERMINAL file.     Ÿ
                                    9034              Ÿ                                                                     Ÿ
                                    9035              Ÿ    On entry:                                                        Ÿ
                                    9036              Ÿ      R1,R0 - line loc, len                                          Ÿ
                                    9037              Ÿ                                                                     Ÿ
                                                      ¾þþþþþþþþþþþþþþþþþþþþþþþþþþþþþþþþþþþþþþþþþþþþþþþþþþþþþþþþþþþþþþþþþþþþþ»
00001BE 50E0 D000/9008_      00000  9038              STYPRTN  PROC
 USING  *,R7
 0001D8 5860 BCA4            00CA4  9077                       L     R6,CPCWA
 USING  STYPWA,R6                   9078                       USING STYPWA,R6
                                    9087
 0001DC 4150 6010            00010  9088                       LA    R5,STTYPE
 USING  TTYPE,R5                    9089                       USING TTYPE,R5
                                    9098
                                    9099                       COMMENT                   SAVE LINE
 0001E0 5900 7CAC/47D0_      00E84  9100                       CEIL  R0,L'STYPLINE
 0001EC 18F0                        9119                       LR    R15,R0
 0001EE 06F0/12FF/4740_             9120                       MOVE  R15,STYPLINE,@R1
                                    9158
                                    9159                       COMMENT                   SCAN LINE
 0001FA 4110 611C/58E0_      0011C  9160                       SCINIT STYPLINE,(R0)      Input line
 00020C 5810 B08C/1B00_      0008C  9183                       SCAN  STYPPRT
 00025E 12FF/4780 7092              9215                       IF    (R15,NZ),BEGIN
 000264 58E0 7CB8/0DEE       00E90  9229  1                      ACALL STYPINV
 00026A                             9233                       END
 00026A 18D8/9808 D004_             9237                       PEND
 DROP   *,R7
                                    9257              *
                                    9258              *
 000278 50E0 D000/9008_      00000  9259              STYPTERM PROC
 USING  *,R7
 000292 5810 B08C/1B00_      0008C  9298                       SCANSTR ,                 SCAN FOR TERMINAL NAME
 0002D8 4770 70FC            0038E  9327                       BNZ   STYPTERR
 0002DC 1200/4780 70FC              9328                       IF    (R0,Z),STYPTERR
 0002E2 D7FF 5000 5000_00000 00000  9345                       CLEAR TTYPE
 0002EE 4120 5010            00010  9353                       LA    R2,TTYINITQ
 0002F2 5020 600C            0000C  9354                       ST    R2,SINITQT          Reset "init text" queue tail
 0002F6 5810 B08C/4111_      0008C  9355                       SCUPTOK R1
 0002FE D207 5014 1000 00014 00000  9359                       MVC   TTYNAME,@R1         Save terminal name
 000304 D207 5044 1000 00044 00000  9360                       MVC   TTYTCLS,@R1         Save generic terminal class
 00030A 4130 0001            00001  9361                       LA    R3,1
 00030E 4140 501C            0001C  9362                       LA    R4,TTYNAME+L'TTYNAME
 000312 5810 B08C/1B00_      0008C  9363              STYPTLP  SCANSTR ,                 SCAN FOR TERMINAL NAME ALIASES
 000358 4770 70FC            0038E  9392                       BNZ   STYPTERR
 00035C 58F0 B08C/41FF_      0008C  9393                       SCUPTOK R15
 000364 1200/4780 7104              9397                       IF    (R0,Z),STYPTOK
 00036A D504 7C4C F000_00EDE 00000  9414                       IF    (@R15,EQ,'BEGIN'),STYPTOK  End of terminal list
 000374 5930 7C06/47A0_      00E98  9433                       IF    (R3,GE,TTYMAX#),STYPTERR  Too many names
 00037C D207 4000 F000 00000 00000  9453                       MVC   @R4(L'TTYNAME),@R15
 000382 4140 4008            00008  9454                       LA    R4,@R4+L'TTYNAME
 000386 4130 3001            00001  9455                       LA    R3,@R3+1
1TOPS     (TOPS2025) (12:57) (15MAR04) Terminal Type Table Update Routine                                                   Page   27
0Current Usings:  (TTYPE,R5) (STYPWA,R6) (*,R7) (CP,R11) (CV,R12)
0Loc    Object Code    Addr1 Addr2  Stmt Lv Lineno    Source Statement           (Hibal 5, Asmedit 3.3)  HLASM R4.0  2004/03/15 12.57
+___    ______ ____    _____ _____  ____ __ ______    ______ _________
000038A 47F0 7080            00312  9456                       B     STYPTLP
 00038E 41F0 0004            00004  9457              STYPTERR LA    R15,4
 000392 47F0 710A            0039C  9458                       B     STYPTDON
 000396 1BFF                        9459              STYPTOK  CLEAR R15
 000398 47F0 710A            0039C  9464                       B     STYPTDON
 00039C                             9465              STYPTDON LABEL
 00039C 18D8/9808 D004_             9467                       PEND
 DROP   *,R7
                                    9487              *
                                    9488              *
 0003AA 50E0 D000/9008_      00000  9489              STYPTCLS PROC
 USING  *,R7
 0003C4 5810 B08C/1B00_      0008C  9528                       SCANSTR ,
 00040A 12FF/4770 7060_             9557                       IF    ((R15,Z),AND,(R0,NZ)),BEGIN
 000416 5810 B08C/4111_      0008C  9584  1                      SCUPTOK R1
 00041E D207 5044 1000 00044 00000  9588  1                      MVC   TTYTCLS,@R1
 000424                             9589                       END
 000424 7064/7064/47F0_00424 0040E  9593                       ELSE  BEGIN
 000428 41F0 0004            00004  9606  1                      LA    R15,4               IF ERROR
 00042C                             9607                       END
 00042C 18D8/9808 D004_             9611                       PEND
 DROP   *,R7
                                    9631              *
                                    9632              *
 00043A 50E0 D000/9008_      00000  9633              STYPINIT PROC
 USING  *,R7
 000454 5820 B08C/4122_      0008C  9672                       SCUPTOK R2
 00045C 5900 7A48/4770_      00E9C  9676                       IF    ((R0,EQ,1),AND,(@R2,EQ,'X')),BEGIN  X'hex'...
 00046C 5810 B08C/1B00_      0008C  9708  1                      SCAN
 0004BA 12FF/4770 70BC              9739  1                      IF    (R15,NZ),STYPIERR
 0004C0 58E0 7A4C/0DEE       00EA0  9756  1                      VCALL HEXCONV             Convert hex string in place
 0004C6 47D0 70BC            00510  9760  1                      BNP   STYPIERR            Trouble, skip it
 0004CA                             9761                       END
                                    9765
 0004CA 707A/707A/47F0_004CA 00462  9766                       ELSE  BEGIN               Dequote regular string...
 0004CE 58E0 7A50/0DEE       00EA4  9779  1                      VCALL DEQUOTE
 0004D4 47D0 70BC            00510  9783  1                      BNP   STYPIERR            Trouble, skip it
 0004D8                             9784                       END
                                    9788
 0004D8 4A00 7A88            00EDC  9789                       AH    R0,=H'8'            Include prefix length
 0004DC 1831                        9790                       LR    R3,R1               Save string loc
 0004DE 1820                        9791                       LR    R2,R0               ... and len
                                    9792              *        GETMAIN R,LV=(0)          Get room for string text
 0004E0 58E0 7A54/0DEE       00EA8  9793                       VCALL GETCORE
 0004E6 58F0 600C            0000C  9797                       L     R15,SINITQT
 0004EA 5010 F000            00000  9798                       ST    R1,@R15             Link prev entry to us
 0004EE 5010 600C            0000C  9799                       ST    R1,SINITQT          We are the new tail
 0004F2 D707 1000 1000 00000 00000  9800                       CLEAR (@R1,8)             Clear the prefix
 0004F8 4020 1004            00004  9807                       STH   R2,@R1+4            Save length
 0004FC 4B20 7A88            00EDC  9808                       SH    R2,=H'8'            Deduct prefix length
 000500 41E0 1008/18F2_      00008  9809                       MOVEL @R1+8,@R3,(R2)      Save the string text
 00050C 47F0 70C4            00518  9831                       B     STYPIOK
 000510 41F0 0004            00004  9832              STYPIERR LA    R15,4
 000514 47F0 70CA            0051E  9833                       B     STYPIDON
1TOPS     (TOPS2025) (12:57) (15MAR04) Terminal Type Table Update Routine                                                   Page   28
0Current Usings:  (TTYPE,R5) (STYPWA,R6) (*,R7) (CP,R11) (CV,R12)
0Loc    Object Code    Addr1 Addr2  Stmt Lv Lineno    Source Statement           (Hibal 5, Asmedit 3.3)  HLASM R4.0  2004/03/15 12.57
+___    ______ ____    _____ _____  ____ __ ______    ______ _________
0000518 1BFF                        9834              STYPIOK  CLEAR R15
 00051A 47F0 70CA            0051E  9839                       B     STYPIDON
 00051E                             9840              STYPIDON LABEL
 00051E 18D8/9808 D004_             9842                       PEND
 DROP   *,R7
                                    9862
 00052C 50E0 D000/9008_      00000  9863              STYPHEI  PROC
 USING  *,R7
 000546 4000 5008            00008  9902                       STH   R0,TTYHEI           Save height
 00054A 18D8/9808 D004_             9903                       PEND
 DROP   *,R7
                                    9923
 000558 50E0 D000/9008_      00000  9924              STYPWID  PROC
 USING  *,R7
 000572 4000 500A            0000A  9963                       STH   R0,TTYWID           Save width
 000576 D701 500C 500C 0000C 0000C  9964                       CLEAR TTYAWID             Assume no alternate width
 00057C 5810 B08C/1B00_      0008C  9971                       SCAN
 0005CA 12FF/4780 7062_            10002                       IF    (R15,NZ),' EXIT STYPWID'
 0005D4 1200/4780 70B0             10024                       IF    (R0,NZ),BEGIN
 0005DA 58E0 793A/0DEE       00EAC 10038  1                      DTB   (R1),(R0)
 0005E0 4770 7076            005E8 10053  1                      IF    Z,BEGIN
 0005E4 40F0 500C            0000C 10064  2                        STH   R15,TTYAWID         Save alternate width
 0005E8                            10065  1                      END
 0005E8 707A/47F0 70B0 005E8 005E2 10069  1                      ELSE  BEGIN
 0005EC 58E0 B08C/58FE_      0008C 10080  2                        SCBKUP ,
 000622                            10136  1                      END
 000622                            10140                       END
 000622 1BFF                       10144                       CLEAR R15
 000624 18D8/9808 D004_            10148                       PEND ,
 DROP   *,R7
                                   10168
 000632 50E0 D000/9008_      00000 10169              STYPMOD  PROC
 USING  *,R7
 00064C 9680 5005      00005       10208                       SET   TTYFMOD
 000650 18D8/9808 D004_            10214                       PEND
 DROP   *,R7
                                   10234
 00065E 50E0 D000/9008_      00000 10235              STYPNMOD PROC
 USING  *,R7
 000678 947F 5005      00005       10274                       CLEAR TTYFMOD
 00067C 18D8/9808 D004_            10281                       PEND
 DROP   *,R7
                                   10301
 00068A 50E0 D000/9008_      00000 10302              STYPVTAM PROC
 USING  *,R7
 0006A4 9604 5005      00005       10341                       SET   TTYFVTAM
 0006A8 18D8/9808 D004_            10347                       PEND
 DROP   *,R7
                                   10367
 0006B6 50E0 D000/9008_      00000 10368              STYPSAM  PROC
 USING  *,R7
 0006D0 9640 5005      00005       10407                       SET   TTYFSAM
 0006D4 18D8/9808 D004_            10413                       PEND
 DROP   *,R7
1TOPS     (TOPS2025) (12:57) (15MAR04) Terminal Type Table Update Routine                                                   Page   29
0Current Usings:  (TTYPE,R5) (STYPWA,R6) (CP,R11) (CV,R12)
0Loc    Object Code    Addr1 Addr2  Stmt Lv Lineno    Source Statement           (Hibal 5, Asmedit 3.3)  HLASM R4.0  2004/03/15 12.57
+___    ______ ____    _____ _____  ____ __ ______    ______ _________
0                                  10433
 0006E2 50E0 D000/9008_      00000 10434              STYPNSAM PROC
 USING  *,R7
 0006FC 94BF 5005      00005       10473                       CLEAR TTYFSAM
 000700 18D8/9808 D004_            10480                       PEND
 DROP   *,R7
                                   10500
 00070E 50E0 D000/9008_      00000 10501              STYPSCR  PROC
 USING  *,R7
 000728 9610 5005      00005       10540                       SET   TTYFSCR
 00072C 94F7 5005      00005       10546                       CLEAR TTYFQSCR
 000730 18D8/9808 D004_            10553                       PEND
 DROP   *,R7
                                   10573
 00073E 50E0 D000/9008_      00000 10574              STYPQSCR PROC
 USING  *,R7
 000758 9608 5005      00005       10613                       SET   TTYFQSCR
 00075C 94EF 5005      00005       10619                       CLEAR TTYFSCR
 000760 18D8/9808 D004_            10626                       PEND
 DROP   *,R7
                                   10646
 00076E 50E0 D000/9008_      00000 10647              STYPNSCR PROC
 USING  *,R7
 000788 94E7 5005      00005       10686                       CLEAR TTYFSCR+TTYFQSCR
 00078C 18D8/9808 D004_            10696                       PEND
 DROP   *,R7
                                   10716
 00079A 50E0 D000/9008_      00000 10717              STYPNORM PROC
 USING  *,R7
 0007B4 58F0 B08C/4110_      0008C 10756                       SCDQUOTE TTYNORM,L'TTYNORM
 0007C6 1BFF                       10779                       CLEAR R15
 0007C8 18D8/9808 D004_            10783                       PEND
 DROP   *,R7
                                   10803
 0007D6 50E0 D000/9008_      00000 10804              STYPBOLD PROC
 USING  *,R7
 0007F0 58F0 B08C/4110_      0008C 10843                       SCDQUOTE TTYBOLD,L'TTYBOLD
 000802 1BFF                       10866                       CLEAR R15
 000804 18D8/9808 D004_            10870                       PEND
 DROP   *,R7
                                   10890
 000812 50E0 D000/9008_      00000 10891              STYPMSG  PROC
 USING  *,R7
 00082C 58F0 B08C/4110_      0008C 10930                       SCDQUOTE TTYMSG,L'TTYMSG
 00083E 1BFF                       10953                       CLEAR R15
 000840 18D8/9808 D004_            10957                       PEND
 DROP   *,R7
                                   10977
 00084E 50E0 D000/9008_      00000 10978              STYPERR  PROC
 USING  *,R7
 000868 58F0 B08C/4110_      0008C 11017                       SCDQUOTE TTYERR,L'TTYERR
 00087A 1BFF                       11040                       CLEAR R15
 00087C 18D8/9808 D004_            11044                       PEND
 DROP   *,R7
1TOPS     (TOPS2025) (12:57) (15MAR04) Terminal Type Table Update Routine                                                   Page   30
0Current Usings:  (TTYPE,R5) (STYPWA,R6) (CP,R11) (CV,R12)
0Loc    Object Code    Addr1 Addr2  Stmt Lv Lineno    Source Statement           (Hibal 5, Asmedit 3.3)  HLASM R4.0  2004/03/15 12.57
+___    ______ ____    _____ _____  ____ __ ______    ______ _________
0                                  11064
 00088A 50E0 D000/9008_      00000 11065              STYPNEW  PROC
 USING  *,R7
 0008A4 58F0 B08C/4110_      0008C 11104                       SCDQUOTE TTYNEW,L'TTYNEW
 0008B6 1BFF                       11127                       CLEAR R15
 0008B8 18D8/9808 D004_            11131                       PEND
 DROP   *,R7
                                   11151
 0008C6 50E0 D000/9008_      00000 11152              STYPMARK PROC
 USING  *,R7
 0008E0 58F0 B08C/4110_      0008C 11191                       SCDQUOTE TTYMARK,L'TTYMARK
 0008F2 1BFF                       11214                       CLEAR R15
 0008F4 18D8/9808 D004_            11218                       PEND
 DROP   *,R7
                                   11238
 000902 50E0 D000/9008_      00000 11239              STYPOPT  PROC
 USING  *,R7
 00091C 58F0 B08C/4110_      0008C 11278                       SCDQUOTE TTYOPT,L'TTYOPT
 00092E 1BFF                       11301                       CLEAR R15
 000930 18D8/9808 D004_            11305                       PEND
 DROP   *,R7
                                   11325
 00093E 50E0 D000/9008_      00000 11326              STYPDIM  PROC
 USING  *,R7
 000958 58F0 B08C/4110_      0008C 11365                       SCDQUOTE TTYDIM,L'TTYDIM
 00096A 1BFF                       11388                       CLEAR R15
 00096C 18D8/9808 D004_            11392                       PEND
 DROP   *,R7
                                   11412
 00097A 50E0 D000/9008_      00000 11413              STYPSTAT PROC
 USING  *,R7
 000994 58F0 B08C/4110_      0008C 11452                       SCDQUOTE TTYSTAT,L'TTYSTAT
 0009A6 1BFF                       11475                       CLEAR R15
 0009A8 18D8/9808 D004_            11479                       PEND
 DROP   *,R7
                                   11499
 0009B6 50E0 D000/9008_      00000 11500              STYPPF   PROC
 USING  *,R7
 0009D0 58F0 B08C/4110_      0008C 11539                       SCDQUOTE TTYPF,L'TTYPF
 0009E2 1BFF                       11562                       CLEAR R15
 0009E4 18D8/9808 D004_            11566                       PEND
 DROP   *,R7
                                   11586
 0009F2 50E0 D000/9008_      00000 11587              STYPPFHI PROC
 USING  *,R7
 000A0C 58F0 B08C/4110_      0008C 11626                       SCDQUOTE TTYPFHI,L'TTYPFHI
 000A1E 1BFF                       11649                       CLEAR R15
 000A20 18D8/9808 D004_            11653                       PEND
 DROP   *,R7
                                   11673
 000A2E 50E0 D000/9008_      00000 11674              STYPCOL  PROC
 USING  *,R7
 000A48 58F0 B08C/4110_      0008C 11713                       SCDQUOTE TTYCOL,L'TTYCOL
 000A5A 1BFF                       11736                       CLEAR R15
1TOPS     (TOPS2025) (12:57) (15MAR04) Terminal Type Table Update Routine                                                   Page   31
0Current Usings:  (TTYPE,R5) (STYPWA,R6) (CP,R11) (CV,R12)
0Loc    Object Code    Addr1 Addr2  Stmt Lv Lineno    Source Statement           (Hibal 5, Asmedit 3.3)  HLASM R4.0  2004/03/15 12.57
+___    ______ ____    _____ _____  ____ __ ______    ______ _________
0000A5C 18D8/9808 D004_            11740                       PEND
 DROP   *,R7
                                   11760
 000A6A 50E0 D000/9008_      00000 11761              STYPCOLT PROC
 USING  *,R7
 000A84 58F0 B08C/4110_      0008C 11800                       SCDQUOTE TTYCOLT,L'TTYCOLT
 000A96 1BFF                       11823                       CLEAR R15
 000A98 18D8/9808 D004_            11827                       PEND
 DROP   *,R7
                                   11847
 000AA6 50E0 D000/9008_      00000 11848              STYPCOLR PROC
 USING  *,R7
 000AC0 9602 5005      00005       11887                       SET   TTYFCOLOR
 000AC4 18D8/9808 D004_            11893                       PEND
 DROP   *,R7
                                   11913
 000AD2 50E0 D000/9008_      00000 11914              STYPLNOR PROC
 USING  *,R7
 000AEC 58F0 B08C/4110_      0008C 11953                       SCDQUOTE TTYLNORM,L'TTYLNORM
 000AFE 1BFF                       11976                       CLEAR R15
 000B00 18D8/9808 D004_            11980                       PEND
 DROP   *,R7
                                   12000
 000B0E 50E0 D000/9008_      00000 12001              STYPLCOL PROC
 USING  *,R7
 000B28 58F0 B08C/4110_      0008C 12040                       SCDQUOTE TTYLCOL,L'TTYLCOL
 000B3A 1BFF                       12063                       CLEAR R15
 000B3C 18D8/9808 D004_            12067                       PEND
 DROP   *,R7
                                   12087
 000B4A 50E0 D000/9008_      00000 12088              STYPLDIM PROC
 USING  *,R7
 000B64 58F0 B08C/4110_      0008C 12127                       SCDQUOTE TTYLDIM,L'TTYLDIM
 000B76 1BFF                       12150                       CLEAR R15
 000B78 18D8/9808 D004_            12154                       PEND
 DROP   *,R7
                                   12174
 000B86 50E0 D000/9008_      00000 12175              STYPLMAR PROC
 USING  *,R7
 000BA0 58F0 B08C/4110_      0008C 12214                       SCDQUOTE TTYLMARK,L'TTYLMARK
 000BB2 1BFF                       12237                       CLEAR R15
 000BB4 18D8/9808 D004_            12241                       PEND
 DROP   *,R7
                                   12261
 000BC2 50E0 D000/9008_      00000 12262              STYPLNEW PROC
 USING  *,R7
 000BDC 58F0 B08C/4110_      0008C 12301                       SCDQUOTE TTYLNEW,L'TTYLNEW
 000BEE 1BFF                       12324                       CLEAR R15
 000BF0 18D8/9808 D004_            12328                       PEND
 DROP   *,R7
                                   12348
 000BFE 50E0 D000/9008_      00000 12349              STYPCOLM PROC
 USING  *,R7
 000C18 58F0 B08C/4110_      0008C 12388                       SCDQUOTE TTYCOLM,L'TTYCOLM
1TOPS     (TOPS2025) (12:57) (15MAR04) Terminal Type Table Update Routine                                                   Page   32
0Current Usings:  (TTYPE,R5) (STYPWA,R6) (*,R7) (CP,R11) (CV,R12)
0Loc    Object Code    Addr1 Addr2  Stmt Lv Lineno    Source Statement           (Hibal 5, Asmedit 3.3)  HLASM R4.0  2004/03/15 12.57
+___    ______ ____    _____ _____  ____ __ ______    ______ _________
0000C2A 1BFF                       12411                       CLEAR R15
 000C2C 18D8/9808 D004_            12415                       PEND
 DROP   *,R7
                                   12435
 000C3A 50E0 D000/9008_      00000 12436              STYPSPEL PROC
 USING  *,R7
 000C54 58F0 B08C/4110_      0008C 12475                       SCDQUOTE TTYSPELL,L'TTYSPELL
 000C66 1BFF                       12498                       CLEAR R15
 000C68 18D8/9808 D004_            12502                       PEND
 DROP   *,R7
                                   12522
 000C76 50E0 D000/9008_      00000 12523              STYPFMRK PROC
 USING  *,R7
 000C90 9620 5005      00005       12562                       SET   TTYFMARK
 000C94 18D8/9808 D004_            12568                       PEND
 DROP   *,R7
                                   12588
 000CA2 50E0 D000/9008_      00000 12589              STYPCMD  PROC
 USING  *,R7
 000CBC 58F0 B08C/4110_      0008C 12628                       SCDQUOTE TTYCMD,L'TTYCMD
 000CCE 1BFF                       12651                       CLEAR R15
 000CD0 18D8/9808 D004_            12655                       PEND
 DROP   *,R7
                                   12675
 000CDE 50E0 D000/9008_      00000 12676              STYPBACK PROC
 USING  *,R7
 000CF8 58F0 B08C/4110_      0008C 12715                       SCDQUOTE TTYBACK,L'TTYBACK
 000D0A 1BFF                       12738                       CLEAR R15
 000D0C 18D8/9808 D004_            12742                       PEND
 DROP   *,R7
                                   12762              *
                                   12763              *
                                   12764              *
                                   12765              *
 000D1A 50E0 D000/9008_      00000 12766              STYPEND  PROC
 USING  *,R7
 000D34 5800 7180            00EB4 12805                       L     R0,=A(L'TTYPE)
                                   12806              *        GETMAIN R,LV=(0)
 000D38 58E0 7174/0DEE       00EA8 12807                       VCALL GETCORE
 000D3E 1821                       12811                       LR    R2,R1               Newly getmained TTYPE entry ptr
 000D40 18E2/41F0 010C_            12812                       MOVEL @R2,STTYPE,L'TTYPE  Save new TTYPE entry
 000D4E D603 6004 6004_00004 00004 12836                       IF    (STYPQH,Z),'ST R2,STYPQH; ST R2,STYPQT'  First
 000D60 7030/47F0 703C 00D60 00D56 12859                       ELSE  BEGIN
 000D64 58F0 6008            00008 12870  1                      L     R15,STYPQT
 000D68 5020 F000            00000 12871  1                      WITH  (TTYPE,R15),'ST R2,TTYLINK'  Link us to last entry
 USING  TTYPE,R15
 DROP   TTYPE,R15
 000D6C 5020 6008            00008 12895  1                      ST    R2,STYPQT
 000D70                            12896                       END
 000D70 1BFF                       12900                       CLEAR R15
 000D72 18D8/9808 D004_            12904                       PEND
 DROP   *,R7
                                   12924
 000D80 50E0 D000/9008_      00000 12925              STYPBAD  PROC
1TOPS     (TOPS2025) (12:57) (15MAR04) Terminal Type Table Update Routine                                                   Page   33
0Current Usings:  (TTYPE,R5) (STYPWA,R6) (*,R7) (CP,R11) (CV,R12)
0Loc    Object Code    Addr1 Addr2  Stmt Lv Lineno    Source Statement           (Hibal 5, Asmedit 3.3)  HLASM R4.0  2004/03/15 12.57
+___    ______ ____    _____ _____  ____ __ ______    ______ _________
0USING  *,R7
 000D9A 41F0 0004            00004 12964                       LA    R15,4
 000D9E 18D8/9808 D004_            12965                       PEND
 DROP   *,R7
                                   12985
 000DAC 50E0 D000/9008_      00000 12986              STYPINV  PROC
 USING  *,R7
 000DC6 41F0 B050/58E0_      00050 13025                       TSEG  (R1),(R0)
 000DD0 4110 711D/4100_      00EE3 13049                       TSEG  ': unrecognized option (on line '
 000DE2 5800 B73C            0073C 13067                       L     R0,CPLCNO
 000DE6 58E0 70F2/0DEE       00EB8 13068                       VCALL CVEXNO
 000DEC 41F0 B050/58E0_      00050 13072                       TSEG  (R1),(R0)
 000DF6 4110 713C/4100_      00F02 13096                       TSEG  ')',,WR
 000E08 18D8/9808 D004_            13114                       PEND
 DROP   *,R7
                                   13134
 DROP   TTYPE,R5                   13135                       DROP  TTYPE
 DROP   STYPWA,R6                  13143                       DROP  STYPWA
1TOPS     (TOPS2025) (12:57) (15MAR04) Terminal Type Table Update Routine                                                   Page   34
0Current Usings:  (CP,R11) (CV,R12)
0Loc    Object Code    Addr1 Addr2  Stmt Lv Lineno    Source Statement           (Hibal 5, Asmedit 3.3)  HLASM R4.0  2004/03/15 12.57
+___    ______ ____    _____ _____  ____ __ ______    ______ _________
0                                  13152                       QLTORG
1TOPS     (TOPS2025) (12:57) (15MAR04) Terminal Type Table Update Routine                                                   Page   35
0Current Usings:  (CP,R11) (CV,R12)
0Loc    Object Code    Addr1 Addr2  Stmt Lv Lineno    Source Statement           (Hibal 5, Asmedit 3.3)  HLASM R4.0  2004/03/15 12.57
+___    ______ ____    _____ _____  ____ __ ______    ______ _________
0000F0C E3C5D9D4C9D5C1D3_          13203              STYPPRT  SCKW  TERMINAL,STYPTERM,A
 000F34 E3C3D3C1E2E24040_          13218                       SCKW  TCLASS,STYPTCLS,A
 000F5C C9D5C9E3C9C1D3C9_          13233                       SCKW  INITIALIZE,STYPINIT,(A,P)
 000F84 E6C9C4E3C8404040_          13248                       SCKW  WIDTH,STYPWID,(A,P,I),255
 000FAC C8C5C9C7C8E34040_          13263                       SCKW  HEIGHT,STYPHEI,(A,P,I),255
 000FD4 D4D6C4C5D3404040_          13278                       SCKW  MODEL,STYPMOD,A
 000FFC D5D6D4D6C4C5D340_          13293                       SCKW  NOMODEL,STYPNMOD,A
 001024 E5E3C1D440404040_          13308                       SCKW  VTAM,STYPVTAM
 00104C E2C1D4E2D6D54040_          13323                       SCKW  SAMSON,STYPSAM,A
 001074 D5D6E2C1D4E2D6D5_          13338                       SCKW  NOSAMSON,STYPNSAM,A
 00109C E2C3D9D6D3D34040_          13353                       SCKW  SCROLL,STYPSCR,A
 0010C4 D8E2C3D9D6D3D340_          13368                       SCKW  QSCROLL,STYPQSCR,A
 0010EC D5D6E2C3D9D6D3D3_          13383                       SCKW  NOSCROLL,STYPNSCR,A
 001114 D5D6D9D4C1D34040_          13398                       SCKW  NORMAL,STYPNORM,(A,P)
 00113C C2D6D3C440404040_          13413                       SCKW  BOLD,STYPBOLD,(A,P)
 001164 D4C5E2E2C1C7C540_          13428                       SCKW  MESSAGE,STYPMSG,(A,P)
 00118C D4E2C74040404040_          13443                       SCKW  MSG,STYPMSG,P
 0011B4 C5D9D9D6D9404040_          13458                       SCKW  ERROR,STYPERR,(A,P)
 0011DC D5C5E64040404040_          13473                       SCKW  NEW,STYPNEW,(A,P)
 001204 D4C1D9D2C5C44040_          13488                       SCKW  MARKED,STYPMARK,(A,P)
 00122C D3D5D6D9D4C1D340_          13503                       SCKW  LNORMAL,STYPLNOR,(A,P)
 001254 D3C3D6D3D3C5C3E3_          13518                       SCKW  LCOLLECT,STYPLCOL,(A,P)
 00127C D3C4C9D440404040_          13533                       SCKW  LDIM,STYPLDIM,(A,P)
 0012A4 D3D4C1D9D2C5C440_          13548                       SCKW  LMARKED,STYPLMAR,(A,P)
 0012CC D3D5C5E640404040_          13563                       SCKW  LNEW,STYPLNEW,(A,P)
 0012F4 D6D7E3C9D6D54040_          13578                       SCKW  OPTION,STYPOPT,(A,P)
 00131C C4C9D44040404040_          13593                       SCKW  DIM,STYPDIM,(A,P)
 001344 E2E3C1E3E4E24040_          13608                       SCKW  STATUS,STYPSTAT,(A,P)
 00136C D7C6404040404040_          13623                       SCKW  PF,STYPPF,(A,P)
 001394 D7C6C8C9C7C84040_          13638                       SCKW  PFHIGH,STYPPFHI,(A,P)
 0013BC C3D6D3E4D4D54040_          13653                       SCKW  COLUMN,STYPCOL,(A,P)
 0013E4 C3D6D3E3C1C24040_          13668                       SCKW  COLTAB,STYPCOLT,(A,P)
 00140C C3D6D3D4C1D9C7C9_          13683                       SCKW  COLMARGIN,STYPCOLM,(A,P)
 001434 C3D6D3D6D9404040_          13698                       SCKW  COLOR,STYPCOLR,A
 00145C E2D7C5D3D3404040_          13713                       SCKW  SPELL,STYPSPEL,(A,P)
 001484 C6D4C1D9D2C5C440_          13728                       SCKW  FMARKED,STYPFMRK,A
 0014AC C3D6D4D4C1D5C440_          13743                       SCKW  COMMAND,STYPCMD,(A,P)
 0014D4 C2C1C3D2C7D9D6E4_          13758                       SCKW  BACKGROUND,STYPBACK,(A,P)
 0014FC C5D5C44040404040_          13773                       SCKW  END,STYPEND  ,
 001524 4040404040404040_          13788                       SCKW  ,STYPBAD
                                   13803                       AIF   (&$PCODE).NOSUBS    *** PCODE
1TOPS     (TOPS2025) (12:57) (15MAR04) SUBSYS Command                                                                       Page   36
0Current Usings:  (CP,R11) (CV,R12)
0Loc    Object Code    Addr1 Addr2  Stmt Lv Lineno    Source Statement           (Hibal 5, Asmedit 3.3)  HLASM R4.0  2004/03/15 12.57
+___    ______ ____    _____ _____  ____ __ ______    ______ _________
0                                  13805              ¿þþþþþþþþþþþþþþþþþþþþþþþþþþþþþþþþþþþþþþþþþþþþþþþþþþþþþþþþþþþþþþþþþþþþþÜ
                                   13806              Ÿ                                                                     Ÿ
                                   13807              Ÿ  SUBSYS -- SUBSYS command.                                          Ÿ
                                   13808              Ÿ                                                                     Ÿ
                                                      ¾þþþþþþþþþþþþþþþþþþþþþþþþþþþþþþþþþþþþþþþþþþþþþþþþþþþþþþþþþþþþþþþþþþþþþ»
0000000                00000 00008 13809              SBSWA    RECORD BEGIN
 000000                            13817  1           SBSNAME    DS    CL8                 Subsystem name
 000008                00008 00008 13818                       END
                                   13827              þþþþ
 00154C 50E0 D000/9008_      00000 13828              SUBSYS   XPROC SBSWA
 USING  *,R7
 USING  SBSWA-(4+36),R8
 001566 D502 738A BD24_018F0 00D24 13879                       IF    (CPCMNM,EQ,'SUB'),BEGIN
 001570 5810 B08C/1B00_      0008C 13896  1                      SCAN
 0015BE 58E0 7356/0DEE       018BC 13927  1                      SCANCHK
 0015C4 1200/4780 C7F0             13932  1                      IF    (R0,Z),CVABSENT
 0015CA                            13949                       END
                                   13953
 0015CA 58F0 B08C/4110_      0008C 13954                       SCUPCASE SBSNAME,L'SBSNAME
 0015DC D505 7384 8028_018EA 00000 13977                       IF    (SBSNAME,EQ,'MILTEN'),'VCALL NOTVALID'
 0015EC D504 738D 8028_018F3 00000 14003                       IF    (SBSNAME,EQ,'ORVYL'),'VCALL NOTVALID'
 0015FC 957B 8028/4770_00000       14029                       IF    (SBSNAME,EQ,'#'),'VCALL NOTVALID'
                                   14055                       ¿þþþþþþþþþþþþþþþþþþþþþþþþþþþþþþþþþþþþþþþþþþþþþþþþþþþþþþþþþþþÜ
                                   14056                       Ÿ  Check to see if we are already in the target subsystem.  Ÿ
                                   14057                       ¾þþþþþþþþþþþþþþþþþþþþþþþþþþþþþþþþþþþþþþþþþþþþþþþþþþþþþþþþþþþ»
 00160A D507 8028 C028_00000 00028 14058                       IF    (SBSNAME,EQ,CVWYLSSN),BEGIN
 001614 4110 7392/4100_      018F8 14076  1                      TSEG  'You are already in '
 001626 4110 8028/4100_      00000 14094  1                      TSEG  SBSNAME,,T
 001638 D207 B886 733A_00886 018A0 14122  1                      ERROR '.  No action taken.',,OURSYS
 00164A 47F0 C7D0            007D0 14130  1                      B     CVNXTMSG
 00164E                            14131                       END
                                   14135                       ¿þþþþþþþþþþþþþþþþþþþþþþþþþþþþþþþþþþþþþþþþþþþþþþþþþþþþÜ
                                   14136                       Ÿ  Check to see if the target subsystem is running.  Ÿ
                                   14137                       ¾þþþþþþþþþþþþþþþþþþþþþþþþþþþþþþþþþþþþþþþþþþþþþþþþþþþþ»
 00164E 4110 8028            00000 14138                       LA    R1,SBSNAME
 001652 58E0 736A/0DEE       018D0 14139                       VCALL SYSCHECK            Is it running?
 001658 4780 711A            01680 14143                       IF    NZ,BEGIN            No...
 00165C 4110 8028/4100_      00000 14154  1                      TSEG  SBSNAME,,TB
 00166E D207 B886 7342_00886 018A8 14182  1                      ERROR 'is not available.',,NOSYS
 001680                            14190                       END
                                   14194                       ¿þþþþþþþþþþþþþþþþþþþþþþþþþþþþþþþþþþþþþþþþþþþþþþþþþþþþþþÜ
                                   14195                       Ÿ  Pass whatever else is on the line as a parm to the  Ÿ
                                   14196                       Ÿ    subsystem.                                        Ÿ
                                   14197                       ¾þþþþþþþþþþþþþþþþþþþþþþþþþþþþþþþþþþþþþþþþþþþþþþþþþþþþþþ»
 001680 58E0 B08C/581E_      0008C 14198                       SCINFO ,
 00168E 1200/47D0 7140_            14207                       WHILE ((R0,POS),AND,(@R1,EQ,' ')),'LA R1,@R1+1; DECR R0'
 0016A6 41F0 B050/58E0_      00050 14247                       TSEG  (R1),(R0)           Pass
                                   14271                       ¿þþþþþþþþþþþþþþþþþþþþþþþþþþþþþþþþþþþþþþþþÜ
                                   14272                       Ÿ  Transfer control to other subsystem.  Ÿ
                                   14273                       ¾þþþþþþþþþþþþþþþþþþþþþþþþþþþþþþþþþþþþþþþþ»
 0016B0 4110 8028/1BFF_      00000 14274                       TXCTL SBSNAME             Transfer to the other subsystem
                                   14290              ******
                                   14291              ******   Wait here until the other subsystem returns to us.
1TOPS     (TOPS2025) (12:57) (15MAR04) SUBSYS Command                                                                       Page   37
0Current Usings:  (*,R7) (SBSWA-(4+36),R8) (CP,R11) (CV,R12)
0Loc    Object Code    Addr1 Addr2  Stmt Lv Lineno    Source Statement           (Hibal 5, Asmedit 3.3)  HLASM R4.0  2004/03/15 12.57
+___    ______ ____    _____ _____  ____ __ ______    ______ _________
0                                  14292              ******
                                   14293                       ¿þþþþþþþþþþþþþþþþþþþþþþþþþþþþþþþþþþþþþþþþþþþþþþþþþþþþþþþþþþþÜ
                                   14294                       Ÿ  Handle a response from ORVYL a little differently.       Ÿ
                                   14295                       Ÿ    Since this is the completion from a SUBSYS command     Ÿ
                                   14296                       Ÿ    we should never be getting a request from ORVYL here.  Ÿ
                                   14297                       ¾þþþþþþþþþþþþþþþþþþþþþþþþþþþþþþþþþþþþþþþþþþþþþþþþþþþþþþþþþþþ»
 0016BC D507 B154 B8BC_00154 008BC 14298                       IF    (CPSYS,EQ,CPORVYL),'VCALL ORVRQST'  Handle ORVYL
                                   14325                       ¿þþþþþþþþþþþþþþþþþþþþþþþþþþþþþþþþþþþþþþþþÜ
                                   14326                       Ÿ  General transfer control completion.  Ÿ
                                   14327                       ¾þþþþþþþþþþþþþþþþþþþþþþþþþþþþþþþþþþþþþþþþ»
 0016CC D507 734A B154_018B0 00154 14328                       IF    (CPSYS,EQ,'MILTEN  '),'CLEAR CPSYS'
 0016DC D207 B15C B154 0015C 00154 14357                       MVC   CPORGSYS,CPSYS      Save originating subsystem
                                   14358
 0016E2 1200/4780 7188_            14359                       IF    (R0,NZ),'VCALL EDTCOMMV'  Execute new command
 0016EE 47F0 C7DE            007DE 14382                       B     CVNEXT
 0016F2 18D8/9808 D004_            14383                       PEND
 DROP   SBSWA-(4+36),R8
 DROP   *,R7
1TOPS     (TOPS2025) (12:57) (15MAR04) XCTL Command                                                                         Page   38
0Current Usings:  (CP,R11) (CV,R12)
0Loc    Object Code    Addr1 Addr2  Stmt Lv Lineno    Source Statement           (Hibal 5, Asmedit 3.3)  HLASM R4.0  2004/03/15 12.57
+___    ______ ____    _____ _____  ____ __ ______    ______ _________
0                                  14409              ¿þþþþþþþþþþþþþþþþþþþþþþþþþþþþþþþþþþþþþþþþþþþþþþþþþþþþþþþþþþþþþþþþþþþþþÜ
                                   14410              Ÿ                                                                     Ÿ
                                   14411              Ÿ  XCTL -- Logoff and transfer control to a different subsystem.      Ÿ
                                   14412              Ÿ                                                                     Ÿ
                                                      ¾þþþþþþþþþþþþþþþþþþþþþþþþþþþþþþþþþþþþþþþþþþþþþþþþþþþþþþþþþþþþþþþþþþþþþ»
0000000                00000 00008 14413              XCTLWA   RECORD BEGIN
 000000                            14421  1           XCTLNAME   DS    CL8                 Subsystem name
 000008                00008 00008 14422                       END
                                   14431              þþþþ
 001700 50E0 D000/9008_      00000 14432              XCTL     XPROC XCTLWA
 USING  *,R7
 USING  XCTLWA-(4+36),R8
                                   14483
 00171A D502 7215 BD24_0192F 00D24 14484                       IF    (CPCMNM,EQ,'XCT'),BEGIN
 001724 5810 B08C/1B00_      0008C 14501  1                      SCAN
 001772 58E0 71A2/0DEE       018BC 14532  1                      SCANCHK
 001778 1200/4780 C7F0             14537  1                      IF    (R0,Z),CVABSENT
 00177E                            14554                       END
                                   14558                       ¿þþþþþþþþþþþþþþþþþþþþþþþþþþþþþþþþþþþþþþþþþþþþþþþþþþþþþþÜ
                                   14559                       Ÿ  Check for special subsystem names and block entry.  Ÿ
                                   14560                       ¾þþþþþþþþþþþþþþþþþþþþþþþþþþþþþþþþþþþþþþþþþþþþþþþþþþþþþþ»
 00177E 58F0 B08C/4110_      0008C 14561                       SCUPCASE XCTLNAME,L'XCTLNAME
                                   14584
 001790 D505 71D0 8028_018EA 00000 14585                       IF    (XCTLNAME,EQ,'MILTEN'),'VCALL NOTVALID'
 0017A0 D504 71D9 8028_018F3 00000 14611                       IF    (XCTLNAME,EQ,'ORVYL'),'VCALL NOTVALID'
 0017B0 957B 8028/4770_00000       14637                       IF    (XCTLNAME,EQ,'#'),'VCALL NOTVALID'
                                   14663                       ¿þþþþþþþþþþþþþþþþþþþþþþþþþþþþþþþþþþþþþþþþþþþþþþþþþþþþþþþþþþþÜ
                                   14664                       Ÿ  Check to see if we are already in the target subsystem.  Ÿ
                                   14665                       ¾þþþþþþþþþþþþþþþþþþþþþþþþþþþþþþþþþþþþþþþþþþþþþþþþþþþþþþþþþþþ»
 0017BE D507 8028 C028_00000 00028 14666                       IF    (XCTLNAME,EQ,CVWYLSSN),BEGIN
 0017C8 4110 71DE/4100_      018F8 14684  1                      TSEG  'You are already in '
 0017DA 4110 8028/4100_      00000 14702  1                      TSEG  XCTLNAME,,T
 0017EC D207 B886 7186_00886 018A0 14730  1                      ERROR '.  No action taken.',,OURSYS
 0017FE                            14738                       END
                                   14742                       ¿þþþþþþþþþþþþþþþþþþþþþþþþþþþþþþþþþþþþþþþþþþþþþþþþþþþþÜ
                                   14743                       Ÿ  Check to see if the target subsystem is running.  Ÿ
                                   14744                       ¾þþþþþþþþþþþþþþþþþþþþþþþþþþþþþþþþþþþþþþþþþþþþþþþþþþþþ»
 0017FE 4110 8028            00000 14745                       LA    R1,XCTLNAME
 001802 58E0 71B6/0DEE       018D0 14746                       VCALL SYSCHECK            Is it running?
 001808 4780 7116            01830 14750                       IF    NZ,BEGIN            No...
 00180C 4110 8028/4100_      00000 14761  1                      TSEG  XCTLNAME,,TB
 00181E D207 B886 718E_00886 018A8 14789  1                      ERROR 'is not available.',,NOSYS
 001830                            14797                       END
                                   14801                       ¿þþþþþþþþþþþþþþþþþþþþþþþþþþþþþþþþþþþþþþþþþþþþþþþþþþþþþþþþþþÜ
                                   14802                       Ÿ  Don't allow a user to hop out of WYLBUR before logging  Ÿ
                                   14803                       Ÿ    on if a system word is set.                           Ÿ
                                   14804                       ¾þþþþþþþþþþþþþþþþþþþþþþþþþþþþþþþþþþþþþþþþþþþþþþþþþþþþþþþþþþ»
 001830 D604 B3B4 B3B4_003B4 003B4 14805                       IF    ((CPSACCT,Z),AND,(CVWORD,NZ)),CVABORT
                                   14839
 001844                            14840              ALLOWX   LABEL
1TOPS     (TOPS2025) (12:57) (15MAR04) XCTL Command                                                                         Page   39
0Current Usings:  (*,R7) (XCTLWA-(4+36),R8) (CP,R11) (CV,R12)
0Loc    Object Code    Addr1 Addr2  Stmt Lv Lineno    Source Statement           (Hibal 5, Asmedit 3.3)  HLASM R4.0  2004/03/15 12.57
+___    ______ ____    _____ _____  ____ __ ______    ______ _________
0                                  14842                       ¿þþþþþþþþþþþþþþþþþþþþþþþþþþþþþþþþþþþþþþþþþþþÜ
                                   14843                       Ÿ  Make sure the Active files are cleared.  Ÿ
                                   14844                       ¾þþþþþþþþþþþþþþþþþþþþþþþþþþþþþþþþþþþþþþþþþþþ»
 001844 58E0 71CA/0DEE       018E4 14845                       VCALL CLRACTS             Clear Actives
                                   14849                       ¿þþþþþþþþþþþþþþþþþþþþþþþþþþþþþþþþþþþþþþþþþþþþþþþþþþþþþþÜ
                                   14850                       Ÿ  Pass whatever else is on the line as a parm to the  Ÿ
                                   14851                       Ÿ    subsystem.                                        Ÿ
                                   14852                       ¾þþþþþþþþþþþþþþþþþþþþþþþþþþþþþþþþþþþþþþþþþþþþþþþþþþþþþþ»
 00184A 58E0 B08C/581E_      0008C 14853                       SCINFO ,
 001858 1200/47D0 7156_            14862                       WHILE ((R0,POS),AND,(@R1,EQ,' ')),'LA R1,@R1+1; DECR R0'
 001870 41F0 B050/58E0_      00050 14902                       TSEG  (R1),(R0)           Pass
                                   14926                       ¿þþþþþþþþþþþþþþþþþþþþþþþþþþþþþþþþþþþþþÜ
                                   14927                       Ÿ  Set new subsystem to get control.  Ÿ
                                   14928                       ¾þþþþþþþþþþþþþþþþþþþþþþþþþþþþþþþþþþþþþ»
 00187A D207 B164 8028 00164 00000 14929                       MVC   CPLGFSYS,XCTLNAME   New subsystem name
                                   14930
 001880 58F0 C1C8            001C8 14931                       L     R15,CVCURJCB
 001884 9680 F062      00062       14932                       WITH  (JCB,R15),'SET JCBAFALO'  Logging off
 USING  JCB,R15
 DROP   JCB,R15
 001888 47F0 C7DE            007DE 14961                       B     CVNEXT              Change subsystems
                                   14962
 00188C 18D8/9808 D004_            14963                       PEND
 DROP   XCTLWA-(4+36),R8
 DROP   *,R7
                                   14988
                                   14989              .NOSUBS  ANOP  ,                   *** PCODE
                                   14990                       QLTORG
1TOPS     (TOPS2025) (12:57) (15MAR04) SET/SHOW TERMINAL Commands                                                           Page   40
0Current Usings:  (CP,R11) (CV,R12)
0Loc    Object Code    Addr1 Addr2  Stmt Lv Lineno    Source Statement           (Hibal 5, Asmedit 3.3)  HLASM R4.0  2004/03/15 12.57
+___    ______ ____    _____ _____  ____ __ ______    ______ _________
0                                  15026              ¿þþþþþþþþþþþþþþþþþþþþþþþþþþþþþþþþþþþþþþþþþþþþþþþþþþþþþþþþþþþþþþþþþþþþþÜ
                                   15027              Ÿ                                                                     Ÿ
                                   15028              Ÿ  SETMIL -- SET <terminal options> command.                          Ÿ
                                   15029              Ÿ                                                                     Ÿ
                                   15030              Ÿ  BACKUP AND PASS OPTION TO 'SET TERMINAL'                           Ÿ
                                   15031              Ÿ  (EG. SET WID XXX, WE PASS THE 'WID XXX' PART                       Ÿ
                                   15032              Ÿ   TO THE SET TERMINAL ROUTINE. THUS IT LOOKS                        Ÿ
                                   15033              Ÿ   LIKE 'SET TERMINAL WID XXX'                                       Ÿ
                                   15034              Ÿ                                                                     Ÿ
                                                      ¾þþþþþþþþþþþþþþþþþþþþþþþþþþþþþþþþþþþþþþþþþþþþþþþþþþþþþþþþþþþþþþþþþþþþþ»
0001932 50E0 D000/9008_      00000 15035              SETMIL   XPROC  ,
 USING  *,R7
 00194C 58E0 B08C/58FE_      0008C 15075                       SCBKUP
                                   15131              *
                                   15132              *  SIMPLIFY !!
                                   15133              *
                                   15134              *        SCPUSH
                                   15135              *
                                   15136              *        SCUPTOK R1
                                   15137              *        IF    (@R1,EQ,'CAS'),BEGIN  Set case...
                                   15138              *        SCAN
                                   15139              *        SCANCHK
                                   15140              *        IF    (R0,Z),CVABSENT
                                   15141              *        END
                                   15142              *
                                   15143              *        SCAN  SETMPRT
                                   15144              *        SCANCHK
                                   15145              *        IF    (R0,NZ),'VCALL NOTVALID'
                                   15146              *
                                   15147              *        SCPOP
 001982 58E0 7294/0DEE       01BE0 15148                       ACALL SETTERM             NO RETURN
 001988 18D8/9808 D004_            15152                       PEND
 DROP   *,R7
                                   15172              *
                                   15173              *
                                   15174              *SETMPRT  SCKW  ,V(SCNNOOP),I       (Skip past numbers)
                                   15175              *         SCKW  ,V(NOTVALID)
1TOPS     (TOPS2025) (12:57) (15MAR04) SET/SHOW TERMINAL Commands                                                           Page   41
0Current Usings:  (CP,R11) (CV,R12)
0Loc    Object Code    Addr1 Addr2  Stmt Lv Lineno    Source Statement           (Hibal 5, Asmedit 3.3)  HLASM R4.0  2004/03/15 12.57
+___    ______ ____    _____ _____  ____ __ ______    ______ _________
0                                  15177              ¿þþþþþþþþþþþþþþþþþþþþþþþþþþþþþþþþþþþþþþþþþþþþþþþþþþþþþþþþþþþþþþþþþþþþþÜ
                                   15178              Ÿ                                                                     Ÿ
                                   15179              Ÿ  SHOWMIL -- SHOW <terminal option> command.                         Ÿ
                                   15180              Ÿ                                                                     Ÿ
                                                      ¾þþþþþþþþþþþþþþþþþþþþþþþþþþþþþþþþþþþþþþþþþþþþþþþþþþþþþþþþþþþþþþþþþþþþþ»
0001996 50E0 D000/9008_      00000 15181              SHOWMIL  XPROC  ,
 USING  *,R7
 0019B0 D502 72A6 BD24_01C56 00D24 15221                       IF    (CPCMNM,EQ,'COM'),'VCALL ORVCPASS'  (SPIRES command)
                                   15247
 0019C0 4110 7238/4100_      01BE8 15248                       TSEG  'Use the SHOW TERMINAL command in the future.',,WR
 0019D2 58E0 7268/0DEE       01C18 15266                       ACALL SHOWTERM            NO RETURN
 0019D8 18D8/9808 D004_            15270                       PEND
 DROP   *,R7
                                   15290
1TOPS     (TOPS2025) (12:57) (15MAR04) SET/SHOW TERMINAL Commands                                                           Page   42
0Current Usings:  (CP,R11) (CV,R12)
0Loc    Object Code    Addr1 Addr2  Stmt Lv Lineno    Source Statement           (Hibal 5, Asmedit 3.3)  HLASM R4.0  2004/03/15 12.57
+___    ______ ____    _____ _____  ____ __ ______    ______ _________
0                                  15292              ¿þþþþþþþþþþþþþþþþþþþþþþþþþþþþþþþþþþþþþþþþþþþþþþþþþþþþþþþþþþþþþþþþþþþþþÜ
                                   15293              Ÿ                                                                     Ÿ
                                   15294              Ÿ  SHOWCASE -- SHOW CASE command.                                     Ÿ
                                   15295              Ÿ                                                                     Ÿ
                                                      ¾þþþþþþþþþþþþþþþþþþþþþþþþþþþþþþþþþþþþþþþþþþþþþþþþþþþþþþþþþþþþþþþþþþþþþ»
00019E6 50E0 D000/9008_      00000 15296              SHOWCASE XPROC  ,
 USING  *,R7
 001A00 58E0 721C/0DEE       01C1C 15336                       VCALL COLLOPTS
                                   15340
 001A06 4110 7259/4100_      01C59 15341                       SETMSG 'UPPER'
 001A0E 9180 B3F8/47E0_003F8       15345                       IF    CPSFUPL,'SETMSG "UPLOW"'
 001A1E 41F0 B050/58E0_      00050 15369                       TSEG  (R1),(R0),B
 001A28 4110 724C/4100_      01C4C 15393                       SETMSG '- CASE'
 001A30 47F0 C7D0            007D0 15397                       B     CVNXTMSG
 001A34 18D8/9808 D004_            15398                       PEND
 DROP   *,R7
1TOPS     (TOPS2025) (12:57) (15MAR04) SET/SHOW TERMINAL Commands                                                           Page   43
0Current Usings:  (CP,R11) (CV,R12)
0Loc    Object Code    Addr1 Addr2  Stmt Lv Lineno    Source Statement           (Hibal 5, Asmedit 3.3)  HLASM R4.0  2004/03/15 12.57
+___    ______ ____    _____ _____  ____ __ ______    ______ _________
0                                  15419              ¿þþþþþþþþþþþþþþþþþþþþþþþþþþþþþþþþþþþþþþþþþþþþþþþþþþþþþþþþþþþþþþþþþþþþþÜ
                                   15420              Ÿ                                                                     Ÿ
                                   15421              Ÿ  SETTERM -- SET TERMINAL command.                                   Ÿ
                                   15422              Ÿ                                                                     Ÿ
                                                      ¾þþþþþþþþþþþþþþþþþþþþþþþþþþþþþþþþþþþþþþþþþþþþþþþþþþþþþþþþþþþþþþþþþþþþþ»
0001A42 50E0 D000/9008_      00000 15423              SETTERM  XPROC SIB
 USING  *,R7
 USING  SIB-(4+36),R8
 001A5C D2FD 8028 B344 00000 00344 15474                       MVC   SIB,CPSIB
 001A62 4160 8028            00000 15475                       LA    R6,SIB
 USING  SIB,R6                     15476                       USING SIB,R6
                                   15485
 001A66 58E0 B08C/D2AF_      0008C 15486                       SCPUSH
                                   15492
 001A74 4150 0064            00064 15493                       LA    R5,100              Maximum loop count
 001A78 58E0 B08C/4BD0_      0008C 15494              SETTLP   SCPOP
 001A86 58E0 B08C/D2AF_      0008C 15500                       SCPUSH ,
 001A94 5810 B08C/1B00_      0008C 15506                       SCAN  TERMPRT
 001AE6 58E0 71D0/0DEE       01C2C 15538                       SCANCHK
 001AEC 41F0 0001/4AF0_      00001 15543                       INCR  R15,SIBUC           Kick update count
 001AF8 41F0 B050/58E0_      00050 15549                       TCLEAR
 001B02 4110 6080/4100_      00080 15563                       TSEG  SIBOPT
 001B14 4100 0002/58E0_      00002 15591                       TCNTL CTLSETI             Set SIB options
 001B1E 4740 C7F6            007F6 15603                       BM    CVMILERR
 001B22 47D0 70DC            01B38 15604                       IF    POS,BEGIN
 001B26 D2FD 6000 1000 00000 00000 15615  1                      MVC   SIB,@R1             New copy
 001B2C 4650 701C            01A78 15616  1                      BCT   R5,SETTLP           Retry
 001B30 41F0 0064            00064 15617  1                      LA    R15,100             Can't update.. rc=100
 001B34 47F0 C7F6            007F6 15618  1                      B     CVMILERR
 001B38                            15619                       END
                                   15623
 001B38 D2FD B344 6000 00344 00000 15624                       MVC   CPS,SIB             Update our copy
                                   15625                       ¿þþþþþþþþþþþþþþþþþþþþþþþþþþþþþþþþþþþþþþþþþþþþþþþþþþþþþþþþþþþþþÜ
                                   15626                       Ÿ  Check to see if a Samson terminal type has just been set,  Ÿ
                                   15627                       Ÿ    if it has we will call SAMPARMS to send a Samson packet  Ÿ
                                   15628                       Ÿ    to get additional terminal settings.                     Ÿ
                                   15629                       ¾þþþþþþþþþþþþþþþþþþþþþþþþþþþþþþþþþþþþþþþþþþþþþþþþþþþþþþþþþþþþþ»
 001B3E 9140 B3EA/47E0_003EA       15630                       IF    CPSFSAM,BEGIN       Samson terminal type...
 001B46 1B00                       15645  1                      CLEAR R0                  Don't set time/date
 001B48 58E0 71E0/0DEE       01C3C 15649  1                      VCALL SAMPARMS            Get Samson parameter block
                                   15653  1                      ¿þþþþþþþþþþþþþþþþþþþþþþþþþþþþþþþþþþþþþþþþþþþþþþþþþþþþþþþþþþþþþÜ
                                   15654  1                      Ÿ  If SAMPARMS failed it means that someone SET TERMINAL      Ÿ
                                   15655  1                      Ÿ    SAMSON on a non-Samson terminal.  If this is the case    Ÿ
                                   15656  1                      Ÿ    then we will change the terminal type to be a VT100 (if  Ÿ
                                   15657  1                      Ÿ    for some strange reason the VT100 terminal type is not   Ÿ
                                   15658  1                      Ÿ    defined then the universal default ("TTY") will be used  Ÿ
                                   15659  1                      Ÿ    instead.                                                 Ÿ
                                   15660  1                      ¾þþþþþþþþþþþþþþþþþþþþþþþþþþþþþþþþþþþþþþþþþþþþþþþþþþþþþþþþþþþþþ»
 001B4E 4780 713C            01B98 15661  1                      IF    NZ,BEGIN            Not a Samson terminal...
 001B52 4110 7207/4100_      01C63 15672  2                        TSEG  X'0D'               (CR only)
 001B64 4110 7208/4100_      01C64 15690  2                        TSEG  'This is not a Samson terminal, '
 001B76 4110 7227/4100_      01C83 15708  2                        TSEG  'terminal type changed to VT100.',,WR
                                   15726  2
1TOPS     (TOPS2025) (12:57) (15MAR04) SET/SHOW TERMINAL Commands                                                           Page   44
0Current Usings:  (SIB,R6) (*,R7) (SIB-(4+36),R8) (CP,R11) (CV,R12)
0Loc    Object Code    Addr1 Addr2  Stmt Lv Lineno    Source Statement           (Hibal 5, Asmedit 3.3)  HLASM R4.0  2004/03/15 12.57
+___    ______ ____    _____ _____  ____ __ ______    ______ _________
0001B88 41F0 717C            01BD8 15727  2                        LA    R15,=CL8'VT100'     VT100 terminal type
 001B8C 58E0 71E4/0DEE       01C40 15728  2                        ACALL CHKTTYPE            Look up terminal type name
 001B92 58E0 71E8/0DEE       01C44 15732  2                        ACALL SETTTYPE            Set terminal type
 001B98                            15736  1                      END
                                   15740  1                      ¿þþþþþþþþþþþþþþþþþþþþþþþþþþþþþþþþþþþþþþþþþþþþþþþþþþþþþþþþþþþþþÜ
                                   15741  1                      Ÿ  If it is a Samson terminal but no explicit terminal type   Ÿ
                                   15742  1                      Ÿ    is given then use the terminal type returned by Samson.  Ÿ
                                   15743  1                      ¾þþþþþþþþþþþþþþþþþþþþþþþþþþþþþþþþþþþþþþþþþþþþþþþþþþþþþþþþþþþþþ»
 001B98 D607 B41E B41E_0041E 0041E 15744  1                      IF    (CPSTTYPE,Z),BEGIN  No terminal type set yet...
 001BA2 41F0 BA53            00A53 15760  2                        LA    R15,CPSAMTRM        Terminal type Samson gave us
 001BA6 58E0 71E4/0DEE       01C40 15761  2                        ACALL CHKTTYPE            Look up terminal type name
 001BAC 4780 715A            01BB6 15765  2                        IF    Z,EXIT              Unknown terminal type
 001BB0 58E0 71E8/0DEE       01C44 15779  2                        ACALL SETTTYPE            Set terminal type
 001BB6                            15783  1                      END
 001BB6                            15787                       END
                                   15791
 001BB6 715E/47F0 7164 01BB6 01B44 15792                       ELSE  BEGIN               Non-Samson terminal...
 001BBA 58E0 71EC/0DEE       01C48 15803  1                      VCALL SAMINIT             Reset any old Samson info
 001BC0                            15807                       END
                                   15811
 001BC0 47F0 C7DE            007DE 15812                       B     CVNEXT
 001BC4 18D8/9808 D004_            15813                       PEND
 DROP   SIB-(4+36),R8
 DROP   *,R7
                                   15838
                                   15839                       QLTORG
1TOPS     (TOPS2025) (12:57) (15MAR04) SET/SHOW TERMINAL Commands                                                           Page   45
0Current Usings:  (SIB,R6) (CP,R11) (CV,R12)
0Loc    Object Code    Addr1 Addr2  Stmt Lv Lineno    Source Statement           (Hibal 5, Asmedit 3.3)  HLASM R4.0  2004/03/15 12.57
+___    ______ ____    _____ _____  ____ __ ______    ______ _________
0001CA4 4040404040404040_          15879              TERMPRT  SCKW  ,MISSSETT,NULL
 001CCC C9C4404040404040_          15894                       SCKW  ID,TID,P
 001CF4 C2D9C5C1D2404040_          15909                       SCKW  BREAK,TBREAK,A
 001D1C D5D6C2D9C5C1D240_          15924                       SCKW  NOBREAK,TNOBREAK,A
 001D44 C3D6D4D440404040_          15939                       SCKW  COMM,TCOMM,A
 001D6C D5D6C3D6D4D44040_          15954                       SCKW  NOCOMM,TNOCOMM,A
 001D94 D4E2C74040404040_          15969                       SCKW  MSG,TMSG,A
 001DBC D4C5E2E2C1C7C540_          15984                       SCKW  MESSAGE,TMSG,A
 001DE4 D5D6D4E2C7404040_          15999                       SCKW  NOMSG,TNOMSG,A
 001E0C D5D6D4C5E2E2C1C7_          16014                       SCKW  NOMESSAGE,TNOMSG,A
 001E34 E2D3D6E6D3C9E2E3_          16029                       SCKW  SLOWLIST,TSLOW,A
 001E5C D5D6C5C3C8D64040_          16044                       SCKW  NOECHO,TNOECHO,A
 001E84 C5C3C8D640404040_          16059                       SCKW  ECHO,TECHO,A
 001EAC E5E2D3D6E6404040_          16074                       SCKW  VSLOW,TNOVFAST,A
 001ED4 D5D6E5C6C1E2E340_          16089                       SCKW  NOVFAST,TNOVFAST,A
 001EFC E5C6C1E2E3404040_          16104                       SCKW  VFAST,TVFAST,A
 001F24 E3E8D7C5C1C8C5C1_          16119                       SCKW  TYPEAHEAD,TTYPEQ,A
 001F4C D5D6E3E8D7C5C1C8_          16134                       SCKW  NOTYPEAHEAD,TNOTYPEQ,A
 001F74 C6C9D3E3C5D94040_          16149                       SCKW  FILTER,TFILTER,A
 001F9C D5D6C6C9D3E3C5D9_          16164                       SCKW  NOFILTER,TNOFILT,A
 001FC4 C6C1E2E3D3C9E2E3_          16179                       SCKW  FASTLIST,TFAST,A
 001FEC C2C1C3D240404040_          16194                       SCKW  BACK,TBACK,A
 002014 D5D6C2C1C3D24040_          16209                       SCKW  NOBACK,TNOBACK,A
 00203C C3C1E2C540404040_          16224                       SCKW  CASE,V(SCNNOOP),A
 002064 E4D7D7C5D9404040_          16239                       SCKW  UPPER,TUPPER,A
 00208C E4D7D3D6E6404040_          16254                       SCKW  UPLOW,TUPLOW,A
 0020B4 C5D9C1E2C5404040_          16269                       SCKW  ERASE,TERASE,A
 0020DC D5D6C5D9C1E2C540_          16284                       SCKW  NOERASE,TNOERASE,A
 002104 E7D6D54040404040_          16299                       SCKW  XON,TXON,A
 00212C D5D6E7D6D5404040_          16314                       SCKW  NOXON,TNOXON,A
 002154 E2C1D4E2D6D54040_          16329                       SCKW  SAMSON,TSAM,A
 00217C D5D6E2C1D4E2D6D5_          16344                       SCKW  NOSAMSON,TNOSAM,A
 0021A4 D7E2D7C5C3C9C1D3_          16359                       SCKW  PSPECIAL,TPSPEC
 0021CC D5D6D7E2D7C5C340_          16374                       SCKW  NOPSPEC,TNOPSPEC
 0021F4 D5D6E3C9D4C54040_          16389                       SCKW  NOTIME,TNOTIME,A
 00221C E3C9D4C5D6E4E340_          16404                       SCKW  TIMEOUT,TTIMEOUT,A
 002244 E3D9C1C3C5404040_          16419                       SCKW  TRACE,TTRACE,A
 00226C D5D6E3D9C1C3C540_          16434                       SCKW  NOTRACE,TNOTRACE,A
 002294 D2C5C5D740404040_          16449                       SCKW  KEEP,TKEEP,A
 0022BC D5D6D2C5C5D74040_          16464                       SCKW  NOKEEP,TNOKEEP,A
 0022E4 C3C8C1D9E2404040_          16479                       SCKW  CHARS,TCHARS,(A,P)
 00230C C1D7D34040404040_          16494                       SCKW  APL,TCHARS
 002334 C1D7D3C240404040_          16509                       SCKW  APLB,TCHARS
 00235C D5D6C1D7D3404040_          16524                       SCKW  NOAPL,TNOCHARS
 002384 D5D6C1D7D3C24040_          16539                       SCKW  NOAPLB,TNOCHARS
 0023AC E6C9C4E3C8404040_          16554                       SCKW  WIDTH,TWIDTH,(A,P,PI),255
 0023D4 C8C5C9C7C8E34040_          16569                       SCKW  HEIGHT,THEIGHT,(A,P,I),255
 0023FC D5D6C8C5C9C7C8E3_          16584                       SCKW  NOHEIGHT,TNOHEI,A
 002424 E3C1C2E240404040_          16599                       SCKW  TABS,TTABS,A
 00244C E3C9404040404040_          16614                       SCKW  TI,TTI
 002474 D9C9404040404040_          16629                       SCKW  RI,TRI
 00249C D7C1D9C9E3E84040_          16644                       SCKW  PARITY,TPAR,A
 0024C4 D5D6D7C1D9C9E3E8_          16659                       SCKW  NOPARITY,TNOPAR,A
 0024EC C5E5C5D540404040_          16674                       SCKW  EVEN,TEVEN,A
1TOPS     (TOPS2025) (12:57) (15MAR04) SET/SHOW TERMINAL Commands                                                           Page   46
0Current Usings:  (SIB,R6) (CP,R11) (CV,R12)
0Loc    Object Code    Addr1 Addr2  Stmt Lv Lineno    Source Statement           (Hibal 5, Asmedit 3.3)  HLASM R4.0  2004/03/15 12.57
+___    ______ ____    _____ _____  ____ __ ______    ______ _________
0002514 D6C4C44040404040_          16689                       SCKW  ODD,TODD
 00253C D4C1D9D240404040_          16704                       SCKW  MARK,TMARK,A
 002564 D8E4C9C5E3404040_          16719                       SCKW  QUIET,TQUIET,A
 00258C D5D6D8E4C9C5E340_          16734                       SCKW  NOQUIET,TNOQUIET,A
 0025B4 C9C4D3C5E2404040_          16749                       SCKW  IDLES,TIDLES,A
 0025DC D5D6C9C4D3C5E240_          16764                       SCKW  NOIDLES,TNOIDL,A
 002604 C3D9C94040404040_          16779                       SCKW  CRI,TCRI,(P,I),5000
 00262C D3C6C94040404040_          16794                       SCKW  LFI,TLFI,(P,I),5000
 002654 C8E3C94040404040_          16809                       SCKW  HTI,THTI,(P,I),5000
 00267C 4040404040404040_          16824                       SCKW  ,TTYP
1TOPS     (TOPS2025) (12:57) (15MAR04) SET/SHOW TERMINAL Commands                                                           Page   47
0Current Usings:  (SIB,R6) (CP,R11) (CV,R12)
0Loc    Object Code    Addr1 Addr2  Stmt Lv Lineno    Source Statement           (Hibal 5, Asmedit 3.3)  HLASM R4.0  2004/03/15 12.57
+___    ______ ____    _____ _____  ____ __ ______    ______ _________
00026A4 50E0 D000/9008_      00000 16840              MISSSETT PROC
 USING  *,R7
 0026BE 4110 730E/4100_      029CC 16879                       ERROR 'Missing SET TERMINAL options.'
 0026CA 18D8/9808 D004_            16886                       PEND
 DROP   *,R7
                                   16906
 0026D8 50E0 D000/9008_      00000 16907              TIGNORE  PROC
 USING  *,R7
 0026F2 18D8/9808 D004_            16946                       PEND
 DROP   *,R7
                                   16966
 002700 50E0 D000/9008_      00000 16967              TTYP     PROC
 USING  *,R7
 00271A 58E0 B08C/58FE_      0008C 17006                       SCBKUP ,
 002750 5810 B08C/1B00_      0008C 17062                       SCANSTR ,                 ALLOW ODD CHARS IN TERM TYPE NAME
 002796 58E0 722A/0DEE       02944 17091                       SCANCHK
 00279C 5810 B08C/4111_      0008C 17096                       SCUPTOK R1
 0027A4 18F1                       17100                       LR    R15,R1              WHICH REGS ARE REALLY NEEDED?
 0027A6 1821                       17101                       LR    R2,R1
 0027A8 58E0 722E/0DEE       02948 17102                       ACALL CHKTTYPE            Anything we know about?
 0027AE 4770 70F2            0280C 17106                       IF    Z,BEGIN             No...
 0027B2 5900 7232/4770_      0294C 17117  1                      IF    (R0,EQ,3),BEGIN     Terminal id compatability...
 0027BA 95F0 2000/47A0_00000       17134  2                        IF    (@R2,GE,'0'),EXIT
 0027C2 95F0 2001/4740_00001       17153  2                        IF    (@R2+1,LT,'0'),EXIT
 0027CA 95F0 2002/4740_00002       17172  2                        IF    (@R2+2,LT,'0'),EXIT
 0027D2 18F2                       17191  2                        LR    R15,R2
 0027D4 58E0 7236/0DEE       02950 17192  2                        ACALL TID                 Set the terminal id
 0027DA 47F0 711E            02838 17196  2                        EXIT  TTYP
 0027DE                            17199  1                      END
                                   17203  1
 0027DE 41F0 B050/58E0_      00050 17204  1                      TSEG  (R1),(R0),B
 0027E8 4110 723E/4100_      02958 17228  1                      TSEG  'is an unknown terminal type.',,CR
 0027FA D207 B886 7206_00886 02920 17246  1                      ERROR 'Type ? for more information.',,BADTERM
 00280C                            17254                       END
                                   17258
 00280C 58E0 727A/0DEE       02994 17259                       ACALL SETTTYPE            Set the terminal type
                                   17263
 002812 D201 6080 B3C4 00080 003C4 17264                       MVC   SIBUC,CPSUC         Keep our copy accurate
 002818 D207 60DA B41E 000DA 0041E 17265                       MVC   SIBTTYPE,CPSTTYPE   Update terminal type name
 00281E D207 609E B3E2 0009E 003E2 17266                       MVC   SIBTCLS,CPSTCLS     ...and generic class
 002824 D200 60A6 B3EA 000A6 003EA 17267                       MVC   SIBTFLAG,CPSTFLAG   ...and flags
 00282A D201 60D8 B41C 000D8 0041C 17268                       MVC   SIBHEI,CPSHEI       ...height
 002830 D201 60D4 B418 000D4 00418 17269                       MVC   SIBWID,CPSWID       ...and width
 002836 1BFF                       17270                       CLEAR R15
 002838 18D8/9808 D004_            17274                       PEND
 DROP   *,R7
                                   17294
 002846 50E0 D000/9008_      00000 17295              TID      PROC
 USING  *,R7
 002860 5810 B08C/4111_      0008C 17334                       SCUPTOK R1
 002868 D207 6096 1000 00096 00000 17338                       MVC   SIBTID,@R1
 00286E D507 6096 C4D8_00096 004D8 17339                       IF    (SIBTID,EQ,CVBLANKS),'CLEAR SIBTID'
 00287E 9140 B386/47E0_00386       17369                       IF    CPSFPTID,BEGIN
 002886 4110 7142/4100_      029A2 17384  1                      ABORT 'Pre-assigned terminal id can''t be changed.'
1TOPS     (TOPS2025) (12:57) (15MAR04) SET/SHOW TERMINAL Commands                                                           Page   48
0Current Usings:  (SIB,R6) (*,R7) (CP,R11) (CV,R12)
0Loc    Object Code    Addr1 Addr2  Stmt Lv Lineno    Source Statement           (Hibal 5, Asmedit 3.3)  HLASM R4.0  2004/03/15 12.57
+___    ______ ____    _____ _____  ____ __ ______    ______ _________
0002892                            17391                       END
                                   17395
 002892 95E5 6096/4780_00096       17396                       IF    (SIBTID,NE,'V'),BEGIN  VT100/temp...
 00289A 1BFF                       17413  1                      CLEAR R15
 00289C 9503 B38C/4770_0038C       17417  1                      IF    CPSTPDP,'LA R15,=CL8"TEK4023"'
 0028A8 95E4 6096/4770_00096       17438  1                      IF    (SIBTID,EQ,'U'),'LA R15,=CL8"TVI912"'
 0028B4 95C8 6096/4770_00096       17461  1                      IF    (SIBTID,EQ,'H'),'LA R15,=CL8"HP2621"'
                                   17484  1           ****     IF    (SIBTID,EQ,'V'),'LA R15,=CL8"VT100"'
 0028C0 1211/4780 706C_            17485  1                      IF    (R1,NZ),'MVC CPSTTYPE,@R15'
 0028CC                            17505                       END
                                   17509
 0028CC D607 B41E B41E_0041E 0041E 17510                       IF    (CPSTTYPE,NZ),BEGIN  Compatability...
 0028D6 41F0 B41E            0041E 17526  1                      LA    R15,CPSTTYPE        Terminal type
 0028DA 58E0 7138/0DEE       02998 17527  1                      VCALL CHKTTYPE            Look up name
 0028E0 58E0 713C/0DEE       0299C 17531  1                      VCALL SETTTYPE            Set terminal related info
                                   17535  1
 0028E6 D201 6080 B3C4 00080 003C4 17536  1                      MVC   SIBUC,CPSUC         Keep our copy accurate
 0028EC D207 60DA B41E 000DA 0041E 17537  1                      MVC   SIBTTYPE,CPSTTYPE   Update terminal type name
 0028F2 D207 609E B3E2 0009E 003E2 17538  1                      MVC   SIBTCLS,CPSTCLS     ...and generic class
 0028F8 D200 60A6 B3EA 000A6 003EA 17539  1                      MVC   SIBTFLAG,CPSTFLAG   ...and flags
 0028FE D201 60D8 B41C 000D8 0041C 17540  1                      MVC   SIBHEI,CPSHEI       ...height
 002904 D201 60D4 B418 000D4 00418 17541  1                      MVC   SIBWID,CPSWID       ...and width
 00290A                            17542                       END
 00290A 1BFF                       17546                       CLEAR R15
 00290C 18D8/9808 D004_            17550                       PEND
 DROP   *,R7
                                   17570
                                   17571                       QLTORG
                                   17602
 0029EA 50E0 D000/9008_      00000 17603              TBREAK   PROC
 USING  *,R7
 002A04 94DF 60AA      000AA       17642                       CLEAR SIBFNBRK
 002A08 18D8/9808 D004_            17649                       PEND
 DROP   *,R7
                                   17669
 002A16 50E0 D000/9008_      00000 17670              TNOBREAK PROC
 USING  *,R7
 002A30 9620 60AA      000AA       17709                       SET   SIBFNBRK
 002A34 18D8/9808 D004_            17715                       PEND
 DROP   *,R7
                                   17735
 002A42 50E0 D000/9008_      00000 17736              TCOMM    PROC
 USING  *,R7
 002A5C 94BF 60AA      000AA       17775                       CLEAR SIBFNCOM
 002A60 18D8/9808 D004_            17782                       PEND
 DROP   *,R7
                                   17802
 002A6E 50E0 D000/9008_      00000 17803              TNOCOMM  PROC
 USING  *,R7
 002A88 9640 60AA      000AA       17842                       SET   SIBFNCOM
 002A8C 18D8/9808 D004_            17848                       PEND
 DROP   *,R7
                                   17868
 002A9A 50E0 D000/9008_      00000 17869              TMSG     PROC
1TOPS     (TOPS2025) (12:57) (15MAR04) SET/SHOW TERMINAL Commands                                                           Page   49
0Current Usings:  (SIB,R6) (*,R7) (CP,R11) (CV,R12)
0Loc    Object Code    Addr1 Addr2  Stmt Lv Lineno    Source Statement           (Hibal 5, Asmedit 3.3)  HLASM R4.0  2004/03/15 12.57
+___    ______ ____    _____ _____  ____ __ ______    ______ _________
0USING  *,R7
 002AB4 947F 60AA      000AA       17908                       CLEAR SIBFNMSG
 002AB8 18D8/9808 D004_            17915                       PEND
 DROP   *,R7
                                   17935
 002AC6 50E0 D000/9008_      00000 17936              TNOMSG   PROC
 USING  *,R7
 002AE0 9680 60AA      000AA       17975                       SET   SIBFNMSG
 002AE4 18D8/9808 D004_            17981                       PEND
 DROP   *,R7
                                   18001
 002AF2 50E0 D000/9008_      00000 18002              TSLOW    PROC
 USING  *,R7
 002B0C 94DF 60B4      000B4       18041                       CLEAR SIBFFAST
 002B10 18D8/9808 D004_            18048                       PEND
 DROP   *,R7
                                   18068
 002B1E 50E0 D000/9008_      00000 18069              TFAST    PROC
 USING  *,R7
 002B38 9620 60B4      000B4       18108                       SET   SIBFFAST
 002B3C 18D8/9808 D004_            18114                       PEND
 DROP   *,R7
                                   18134
 002B4A 50E0 D000/9008_      00000 18135              TNOVFAST PROC
 USING  *,R7
 002B64 947F 60A8      000A8       18174                       CLEAR SIBFVFAST
 002B68 18D8/9808 D004_            18181                       PEND
 DROP   *,R7
                                   18201
 002B76 50E0 D000/9008_      00000 18202              TVFAST   PROC
 USING  *,R7
 002B90 9680 60A8      000A8       18241                       SET   SIBFVFAST
 002B94 18D8/9808 D004_            18247                       PEND
 DROP   *,R7
                                   18267
 002BA2 50E0 D000/9008_      00000 18268              TNOECHO  PROC
 USING  *,R7
 002BBC 9601 60B4      000B4       18307                       SET   SIBFNECH
 002BC0 18D8/9808 D004_            18313                       PEND
 DROP   *,R7
                                   18333
 002BCE 50E0 D000/9008_      00000 18334              TECHO    PROC
 USING  *,R7
 002BE8 94FE 60B4      000B4       18373                       CLEAR SIBFNECH
 002BEC 18D8/9808 D004_            18380                       PEND
 DROP   *,R7
                                   18400
 002BFA 50E0 D000/9008_      00000 18401              TTYPEQ   PROC
 USING  *,R7
 002C14 94DF 60B5      000B5       18440                       CLEAR SIBFNTYP
 002C18 18D8/9808 D004_            18447                       PEND
 DROP   *,R7
                                   18467
 002C26 50E0 D000/9008_      00000 18468              TNOTYPEQ PROC
1TOPS     (TOPS2025) (12:57) (15MAR04) SET/SHOW TERMINAL Commands                                                           Page   50
0Current Usings:  (SIB,R6) (*,R7) (CP,R11) (CV,R12)
0Loc    Object Code    Addr1 Addr2  Stmt Lv Lineno    Source Statement           (Hibal 5, Asmedit 3.3)  HLASM R4.0  2004/03/15 12.57
+___    ______ ____    _____ _____  ____ __ ______    ______ _________
0USING  *,R7
 002C40 9620 60B5      000B5       18507                       SET   SIBFNTYP
 002C44 18D8/9808 D004_            18513                       PEND
 DROP   *,R7
                                   18533
 002C52 50E0 D000/9008_      00000 18534              TFILTER  PROC
 USING  *,R7
 002C6C 9602 60B4      000B4       18573                       SET   SIBFFILT
 002C70 18D8/9808 D004_            18579                       PEND
 DROP   *,R7
                                   18599
 002C7E 50E0 D000/9008_      00000 18600              TNOFILT  PROC
 USING  *,R7
 002C98 94FD 60B4      000B4       18639                       CLEAR SIBFFILT
 002C9C 18D8/9808 D004_            18646                       PEND
 DROP   *,R7
                                   18666
 002CAA 50E0 D000/9008_      00000 18667              TBACK    PROC
 USING  *,R7
 002CC4 9640 60B4      000B4       18706                       SET   SIBFBACK
 002CC8 18D8/9808 D004_            18712                       PEND
 DROP   *,R7
                                   18732
 002CD6 50E0 D000/9008_      00000 18733              TNOBACK  PROC
 USING  *,R7
 002CF0 94BF 60B4      000B4       18772                       CLEAR SIBFBACK
 002CF4 18D8/9808 D004_            18779                       PEND
 DROP   *,R7
                                   18799
 002D02 50E0 D000/9008_      00000 18800              TUPPER   PROC
 USING  *,R7
 002D1C 947F 60B4      000B4       18839                       CLEAR SIBFUPL
 002D20 18D8/9808 D004_            18846                       PEND
 DROP   *,R7
                                   18866
 002D2E 50E0 D000/9008_      00000 18867              TUPLOW   PROC
 USING  *,R7
 002D48 9680 60B4      000B4       18906                       SET   SIBFUPL
 002D4C 18D8/9808 D004_            18912                       PEND
 DROP   *,R7
                                   18932
 002D5A 50E0 D000/9008_      00000 18933              TERASE   PROC
 USING  *,R7
 002D74 9640 60B5      000B5       18972                       SET   SIBFERA
 002D78 18D8/9808 D004_            18978                       PEND
 DROP   *,R7
                                   18998
 002D86 50E0 D000/9008_      00000 18999              TNOERASE PROC
 USING  *,R7
 002DA0 94BF 60B5      000B5       19038                       CLEAR SIBFERA
 002DA4 18D8/9808 D004_            19045                       PEND
 DROP   *,R7
                                   19065
 002DB2 50E0 D000/9008_      00000 19066              TXON     PROC
1TOPS     (TOPS2025) (12:57) (15MAR04) SET/SHOW TERMINAL Commands                                                           Page   51
0Current Usings:  (SIB,R6) (*,R7) (CP,R11) (CV,R12)
0Loc    Object Code    Addr1 Addr2  Stmt Lv Lineno    Source Statement           (Hibal 5, Asmedit 3.3)  HLASM R4.0  2004/03/15 12.57
+___    ______ ____    _____ _____  ____ __ ______    ______ _________
0USING  *,R7
 002DCC 9604 60B4      000B4       19105                       SET   SIBFXON
 002DD0 18D8/9808 D004_            19111                       PEND
 DROP   *,R7
                                   19131
 002DDE 50E0 D000/9008_      00000 19132              TNOXON   PROC
 USING  *,R7
 002DF8 94FB 60B4      000B4       19171                       CLEAR SIBFXON
 002DFC 18D8/9808 D004_            19178                       PEND
 DROP   *,R7
                                   19198
 002E0A 50E0 D000/9008_      00000 19199              TSAM     PROC
 USING  *,R7
 002E24 D707 609E 609E_0009E 0009E 19238                       CLEAR SIBTCLS,SIBTTYPE
 002E30 58E0 7AD4/0DEE       038F8 19250                       VCALL SAMINIT             Reset old Samson info
 002E36 9640 60A6      000A6       19254                       SET   SIBFSAM             It's a Samson terminal
 002E3A 18D8/9808 D004_            19260                       PEND
 DROP   *,R7
                                   19280
 002E48 50E0 D000/9008_      00000 19281              TNOSAM   PROC
 USING  *,R7
 002E62 D707 609E 609E_0009E 0009E 19320                       CLEAR SIBTCLS,SIBTTYPE
 002E6E 58E0 7A96/0DEE       038F8 19332                       VCALL SAMINIT             Reset old Samson info
 002E74 94BF 60A6      000A6       19336                       CLEAR SIBFSAM             Not a Samson terminal
 002E78 18D8/9808 D004_            19343                       PEND
 DROP   *,R7
                                   19363
 002E86 50E0 D000/9008_      00000 19364              TPSPEC   PROC
 USING  *,R7
 002EA0 9608 60B4      000B4       19403                       SET   SIBFPSP
 002EA4 18D8/9808 D004_            19409                       PEND
 DROP   *,R7
                                   19429
 002EB2 50E0 D000/9008_      00000 19430              TNOPSPEC PROC
 USING  *,R7
 002ECC 94F7 60B4      000B4       19469                       CLEAR SIBFPSP
 002ED0 18D8/9808 D004_            19476                       PEND
 DROP   *,R7
                                   19496
 002EDE 50E0 D000/9008_      00000 19497              TNOTIME  PROC
 USING  *,R7
 002EF8 9610 60AA      000AA       19536                       SET   SIBFNTIM
 002EFC 18D8/9808 D004_            19542                       PEND
 DROP   *,R7
                                   19562
 002F0A 50E0 D000/9008_      00000 19563              TTIMEOUT PROC
 USING  *,R7
 002F24 94EF 60AA      000AA       19602                       CLEAR SIBFNTIM
 002F28 18D8/9808 D004_            19609                       PEND
 DROP   *,R7
                                   19629
 002F36 50E0 D000/9008_      00000 19630              TTRACE   PROC
 USING  *,R7
 002F50 9680 60AB      000AB       19669                       SET   SIBFTRC
1TOPS     (TOPS2025) (12:57) (15MAR04) SET/SHOW TERMINAL Commands                                                           Page   52
0Current Usings:  (SIB,R6) (CP,R11) (CV,R12)
0Loc    Object Code    Addr1 Addr2  Stmt Lv Lineno    Source Statement           (Hibal 5, Asmedit 3.3)  HLASM R4.0  2004/03/15 12.57
+___    ______ ____    _____ _____  ____ __ ______    ______ _________
0002F54 18D8/9808 D004_            19675                       PEND
 DROP   *,R7
                                   19695
 002F62 50E0 D000/9008_      00000 19696              TNOTRACE PROC
 USING  *,R7
 002F7C 947F 60AB      000AB       19735                       CLEAR SIBFTRC
 002F80 18D8/9808 D004_            19742                       PEND
 DROP   *,R7
                                   19762
 002F8E 50E0 D000/9008_      00000 19763              TKEEP    PROC
 USING  *,R7
 002FA8 9640 60AB      000AB       19802                       SET   SIBFKEEP
 002FAC 18D8/9808 D004_            19808                       PEND
 DROP   *,R7
                                   19828
 002FBA 50E0 D000/9008_      00000 19829              TNOKEEP  PROC
 USING  *,R7
 002FD4 94BF 60AB      000AB       19868                       CLEAR SIBFKEEP
 002FD8 18D8/9808 D004_            19875                       PEND
 DROP   *,R7
                                   19895
 002FE6 50E0 D000/9008_      00000 19896              TNOCHARS PROC
 USING  *,R7
 003000 5810 B08C/4111_      0008C 19935                       SCUPTOK R1
 003008 D504 7968 1000_03968 00000 19939                       IF    (@R1,EQ,'NOAPL'),'CLEAR SIBFBACK'
 003016 41F0 C4D8            004D8 19967                       LA    R15,CVBLANKS
 00301A D207 60BA F000 000BA 00000 19968                       MVC   SIBCHAR,@R15
 003020 1BFF                       19969                       CLEAR R15
 003022 18D8/9808 D004_            19973                       PEND
 DROP   *,R7
                                   19993
 003030 50E0 D000/9008_      00000 19994              TCHARS   PROC
 USING  *,R7
 00304A 5810 B08C/4111_      0008C 20033                       SCUPTOK R1
 003052 D207 60BA 1000 000BA 00000 20037                       MVC   SIBCHAR,@R1
 003058 D502 7923 60BA_0396D 000BA 20038                       IF    (SIBCHAR,EQ,'APL'),'SET SIBFBACK+SIBFUPL'
 003066 1BFF                       20069                       CLEAR R15
 003068 18D8/9808 D004_            20073                       PEND
 DROP   *,R7
                                   20093
 003076 50E0 D000/9008_      00000 20094              TWIDTH   PROC
 USING  *,R7
 003090 4000 60D4            000D4 20133                       STH   R0,SIBWID
 003094 18D8/9808 D004_            20134                       PEND
 DROP   *,R7
                                   20154
 0030A2 50E0 D000/9008_      00000 20155              THEIGHT  PROC
 USING  *,R7
 0030BC 4000 60D6            000D6 20194                       STH   R0,SIBHEIP
 0030C0 5810 B08C/1B00_      0008C 20195                       SCAN
 00310E 58E0 7844/0DEE       03900 20226                       SCANCHK
 003114 1200/4780 70A6             20231                       IF    (R0,NZ),BEGIN
 00311A 58E0 7848/0DEE       03904 20245  1                      DTB   (R1),(R0)
 003120 4770 706C            03128 20260  1                      IF    Z,BEGIN
1TOPS     (TOPS2025) (12:57) (15MAR04) SET/SHOW TERMINAL Commands                                                           Page   53
0Current Usings:  (SIB,R6) (*,R7) (CP,R11) (CV,R12)
0Loc    Object Code    Addr1 Addr2  Stmt Lv Lineno    Source Statement           (Hibal 5, Asmedit 3.3)  HLASM R4.0  2004/03/15 12.57
+___    ______ ____    _____ _____  ____ __ ______    ______ _________
0003124 40F0 60D8            000D8 20271  2                        STH   R15,SIBHEI
 003128                            20272  1                      END
 003128 7070/47F0 70A6 03128 03122 20276  1                      ELSE  BEGIN
 00312C 58E0 B08C/58FE_      0008C 20287  2                        SCBKUP
 003162                            20343  1                      END
 003162                            20347                       END
 003162 1BFF                       20351                       CLEAR R15
 003164 18D8/9808 D004_            20355                       PEND
 DROP   *,R7
                                   20375
 003172 50E0 D000/9008_      00000 20376              TNOHEI   PROC
 USING  *,R7
 00318C D701 60D6 60D6 000D6 000D6 20415                       CLEAR SIBHEIP
 003192 18D8/9808 D004_            20422                       PEND
 DROP   *,R7
                                   20442
 0031A0 50E0 D000/9008_      00000 20443              TTABS    PROC
 USING  *,R7
 0031BA 4110 777C/4100_      03936 20482                       ABORT 'Use the SET TABS command to set tab stops.'
 0031C6 18D8/9808 D004_            20489                       PEND
 DROP   *,R7
                                   20509
 0031D4 50E0 D000/9008_      00000 20510              TTI      PROC
 USING  *,R7
 0031EE 58E0 771A/0DEE       03908 20549                       ACALL IDLECONV            Convert idles to new style
 0031F4 BEFF 60F6            000F6 20553                       ST4   R15,SIBHTI
 0031F8 1BFF                       20555                       CLEAR R15
 0031FA 18D8/9808 D004_            20559                       PEND
 DROP   *,R7
                                   20579
 003208 50E0 D000/9008_      00000 20580              TRI      PROC
 USING  *,R7
 003222 58E0 76E6/0DEE       03908 20619                       ACALL IDLECONV            Convert idles to new style
 003228 BEFF 60F0            000F0 20623                       ST4   R15,SIBCRI
 00322C D701 60F4 60F4 000F4 000F4 20625                       CLEAR SIBLFI
 003232 1BFF                       20632                       CLEAR R15
 003234 18D8/9808 D004_            20636                       PEND
 DROP   *,R7
                                   20656
 003242 50E0 D000/9008_      00000 20657              TPAR     PROC
 USING  *,R7
 00325C 96D0 60D2      000D2       20696                       SET   SIBFPAR+SIBFEVEN+SIBFMARK  even,mark
 003260 94DF 60D2      000D2       20709                       CLEAR SIBFODD
 003264 18D8/9808 D004_            20716                       PEND
 DROP   *,R7
                                   20736
 003272 50E0 D000/9008_      00000 20737              TNOPAR   PROC
 USING  *,R7
 00328C 940F 60D2      000D2       20776                       CLEAR SIBFPAR+SIBFEVEN+SIBFODD+SIBFMARK
 003290 18D8/9808 D004_            20795                       PEND
 DROP   *,R7
                                   20815
 00329E 50E0 D000/9008_      00000 20816              TEVEN    PROC
 USING  *,R7
1TOPS     (TOPS2025) (12:57) (15MAR04) SET/SHOW TERMINAL Commands                                                           Page   54
0Current Usings:  (SIB,R6) (*,R7) (CP,R11) (CV,R12)
0Loc    Object Code    Addr1 Addr2  Stmt Lv Lineno    Source Statement           (Hibal 5, Asmedit 3.3)  HLASM R4.0  2004/03/15 12.57
+___    ______ ____    _____ _____  ____ __ ______    ______ _________
00032B8 96C0 60D2      000D2       20855                       SET   SIBFPAR+SIBFEVEN
 0032BC 94CF 60D2      000D2       20864                       CLEAR SIBFODD+SIBFMARK
 0032C0 18D8/9808 D004_            20874                       PEND
 DROP   *,R7
                                   20894
 0032CE 50E0 D000/9008_      00000 20895              TODD     PROC
 USING  *,R7
 0032E8 96A0 60D2      000D2       20934                       SET   SIBFPAR+SIBFODD
 0032EC 94AF 60D2      000D2       20943                       CLEAR SIBFEVEN+SIBFMARK
 0032F0 18D8/9808 D004_            20953                       PEND
 DROP   *,R7
                                   20973
 0032FE 50E0 D000/9008_      00000 20974              TMARK    PROC
 USING  *,R7
 003318 9690 60D2      000D2       21013                       SET   SIBFPAR+SIBFMARK
 00331C 949F 60D2      000D2       21022                       CLEAR SIBFEVEN+SIBFODD
 003320 18D8/9808 D004_            21032                       PEND
 DROP   *,R7
                                   21052
 00332E 50E0 D000/9008_      00000 21053              TQUIET   PROC
 USING  *,R7
 003348 9608 60D2      000D2       21092                       SET   SIBFQUIET
 00334C 18D8/9808 D004_            21098                       PEND
 DROP   *,R7
                                   21118
 00335A 50E0 D000/9008_      00000 21119              TNOQUIET PROC
 USING  *,R7
 003374 94F7 60D2      000D2       21158                       CLEAR SIBFQUIET
 003378 18D8/9808 D004_            21165                       PEND
 DROP   *,R7
                                   21185
 003386 50E0 D000/9008_      00000 21186              TIDLES   PROC
 USING  *,R7
 0033A0 5810 B08C/1B00_      0008C 21225                       SCAN  TIDLPRT
 0033F2 58E0 7560/0DEE       03900 21257                       SCANCHK
 0033F8 1BFF                       21262                       CLEAR R15
 0033FA 18D8/9808 D004_            21266                       PEND
 DROP   *,R7
                                   21286
 003408 50E0 D000/9008_      00000 21287              TIDLLN   PROC
 USING  *,R7
 003422 18F0                       21326                       LR    R15,R0
 003424 59F0 74EE/47D0_      03910 21327                       IF    (R15,GT,99*1000),'VCALL NOTVALID'
 003432 D70D 60F0 60F0 000F0 000F0 21353                       CLEAR SIBIDLE
                                   21360                       ¿þþþþþþþþþþþþþþþþþþþþþþþþþþþþþþþþþþþþþþþþþþþþþþþþþþþþþþþÜ
                                   21361                       Ÿ  standard idles are:  cri=20,2  hti=20,2  lfi=20      Ÿ
                                   21362                       Ÿ    (idles=n applies "n" as a multiplication factor.)  Ÿ
                                   21363                       ¾þþþþþþþþþþþþþþþþþþþþþþþþþþþþþþþþþþþþþþþþþþþþþþþþþþþþþþþ»
 003438 182F                       21364                       LR    R2,R15
 00343A 4CF0 753E            03960 21365                       MH    R15,=H'20'
 00343E 5AF0 74F6            03918 21366                       A     R15,=F'999'
 003442 1BEE                       21367                       CLEAR R14
 003444 5DE0 74FA            0391C 21371                       D     R14,=F'1000'
 003448 59F0 74FE/47D0_      03920 21372                       CEIL  R15,=F'5000'
1TOPS     (TOPS2025) (12:57) (15MAR04) SET/SHOW TERMINAL Commands                                                           Page   55
0Current Usings:  (SIB,R6) (*,R7) (CP,R11) (CV,R12)
0Loc    Object Code    Addr1 Addr2  Stmt Lv Lineno    Source Statement           (Hibal 5, Asmedit 3.3)  HLASM R4.0  2004/03/15 12.57
+___    ______ ____    _____ _____  ____ __ ______    ______ _________
0003454 40F0 60F0            000F0 21377                       STH   R15,SIBCRI
 003458 40F0 60F4            000F4 21378                       STH   R15,SIBLFI
 00345C 40F0 60F6            000F6 21379                       STH   R15,SIBHTI
                                   21380
 003460 18F2                       21381                       LR    R15,R2
 003462 4CF0 7540            03962 21382                       MH    R15,=H'2'
 003466 5AF0 74F6            03918 21383                       A     R15,=F'999'
 00346A 1BEE                       21384                       CLEAR R14
 00346C 5DE0 74FA            0391C 21388                       D     R14,=F'1000'
 003470 59F0 74FE/47D0_      03920 21389                       CEIL  R15,=F'5000'
 00347C 40F0 60F2            000F2 21394                       STH   R15,SIBCRI+2
 003480 40F0 60F8            000F8 21395                       STH   R15,SIBHTI+2
 003484 41F0 0004            00004 21396                       LA    R15,4
 003488 18D8/9808 D004_            21397                       PEND
 DROP   *,R7
                                   21417
 003496 50E0 D000/9008_      00000 21418              TIDLDFLT PROC
 USING  *,R7
 0034B0 58E0 B08C/58FE_      0008C 21457                       SCBKUP
 0034E6 4100 03E8            003E8 21513                       LA    R0,1000
 0034EA 58E0 7474/0DEE       03924 21514                       ACALL TIDLLN
 0034F0 41F0 0004            00004 21518                       LA    R15,4
 0034F4 18D8/9808 D004_            21519                       PEND
 DROP   *,R7
                                   21539
 003504 4040404040404040_          21540              TIDLPRT  SCKW  ,TIDLDFLT,NULL
 00352C 4040404040404040_          21555                       SCKW  ,TIDLLN,LN
 003554 4040404040404040_          21570                       SCKW  ,TIDLDFLT
                                   21585
 00357C 50E0 D000/9008_      00000 21586              TNOIDL   PROC
 USING  *,R7
 003596 D70D 60F0 60F0 000F0 000F0 21625                       CLEAR SIBIDLE
 00359C 18D8/9808 D004_            21632                       PEND
 DROP   *,R7
                                   21652
 0035AA 50E0 D000/9008_      00000 21653              TCRI     PROC
 USING  *,R7
 0035C4 58E0 7364/0DEE       03928 21692                       ACALL IDLESCAN
 0035CA BEFF 60F0            000F0 21696                       ST4   R15,SIBCRI
 0035CE 1BFF                       21698                       CLEAR R15
 0035D0 18D8/9808 D004_            21702                       PEND
 DROP   *,R7
                                   21722
 0035DE 50E0 D000/9008_      00000 21723              TLFI     PROC
 USING  *,R7
 0035F8 4000 60F4            000F4 21762                       STH   R0,SIBLFI
 0035FC 18D8/9808 D004_            21763                       PEND
 DROP   *,R7
                                   21783
 00360A 50E0 D000/9008_      00000 21784              THTI     PROC
 USING  *,R7
 003624 58E0 7304/0DEE       03928 21823                       ACALL IDLESCAN
 00362A BEFF 60F6            000F6 21827                       ST4   R15,SIBHTI
 00362E 1BFF                       21829                       CLEAR R15
1TOPS     (TOPS2025) (12:57) (15MAR04) SET/SHOW TERMINAL Commands                                                           Page   56
0Current Usings:  (SIB,R6) (CP,R11) (CV,R12)
0Loc    Object Code    Addr1 Addr2  Stmt Lv Lineno    Source Statement           (Hibal 5, Asmedit 3.3)  HLASM R4.0  2004/03/15 12.57
+___    ______ ____    _____ _____  ____ __ ______    ______ _________
0003630 18D8/9808 D004_            21833                       PEND
 DROP   *,R7
1TOPS     (TOPS2025) (12:57) (15MAR04) SET/SHOW TERMINAL Commands                                                           Page   57
0Current Usings:  (SIB,R6) (CP,R11) (CV,R12)
0Loc    Object Code    Addr1 Addr2  Stmt Lv Lineno    Source Statement           (Hibal 5, Asmedit 3.3)  HLASM R4.0  2004/03/15 12.57
+___    ______ ____    _____ _____  ____ __ ______    ______ _________
000363E 50E0 D000/9008_      00000 21854              IDLESCAN PROC
 USING  *,R7
 003658 1820                       21893                       LR    R2,R0               First number
 00365A 8920 0010            00010 21894                       SLL   R2,16
 00365E 5810 B08C/1B00_      0008C 21895                       SCAN  ,                   Look for second number...
 0036AC 58E0 72A8/0DEE       03900 21926                       SCANCHK
 0036B2 1200/4780 70B4             21931                       IF    (R0,NZ),BEGIN
 0036B8 58E0 72AC/0DEE       03904 21945  1                      DTB   (R1),(R0)
 0036BE 4780 70A0/58E0_      036F8 21960  1                      IF    NZ,'SCBKUP'         Not a number, back up
 0036F8 70A4/47F0 70B4 036F8 036C0 22032  1                      ELSE  BEGIN
 0036FC 59F0 72D4/47D0_      0392C 22043  2                        IF    (R15,GT,5000),'VCALL NOTVALID'  too big
 00370A 1A2F                       22069  2                        AR    R2,R15
 00370C                            22070  1                      END
 00370C                            22074                       END
 00370C 18F2                       22078                       LR    R15,R2
 00370E 18D8/9808 D004_            22079                       PEND
 DROP   *,R7
1TOPS     (TOPS2025) (12:57) (15MAR04) SET/SHOW TERMINAL Commands                                                           Page   58
0Current Usings:  (SIB,R6) (CP,R11) (CV,R12)
0Loc    Object Code    Addr1 Addr2  Stmt Lv Lineno    Source Statement           (Hibal 5, Asmedit 3.3)  HLASM R4.0  2004/03/15 12.57
+___    ______ ____    _____ _____  ____ __ ______    ______ _________
0                                  22100              ¿þþþþþþþþþþþþþþþþþþþþþþþþþþþþþþþþþþþþþþþþþþþþþþþþþþþþþþþþþþþþþþþþþþþþþÜ
                                   22101              Ÿ                                                                     Ÿ
                                   22102              Ÿ  IDLECONV -- Local routine to convert old style idle numbers to     Ÿ
                                   22103              Ÿ    new style idle delays.                                           Ÿ
                                   22104              Ÿ                                                                     Ÿ
                                   22105              Ÿ      On entry:                                                      Ÿ
                                   22106              Ÿ        scanner: a,b,c -- idles in the form:  (ax+b)/c               Ÿ
                                   22107              Ÿ                                                                     Ÿ
                                   22108              Ÿ      On exit:                                                       Ÿ
                                   22109              Ÿ        R15 - fixed*x'10000'+perchar ms idle time                    Ÿ
                                   22110              Ÿ                                                                     Ÿ
                                                      ¾þþþþþþþþþþþþþþþþþþþþþþþþþþþþþþþþþþþþþþþþþþþþþþþþþþþþþþþþþþþþþþþþþþþþþ»
000371C 50E0 D000/9008_      00000 22111              IDLECONV PROC
 USING  *,R7
 003736 5810 B08C/1B00_      0008C 22150                       SCAN
 003784 58E0 71CA/0DEE       03900 22181                       SCANCHK
 00378A 1200/4780 C7F0             22186                       IF    (R0,Z),CVABSENT
 003790 58E0 71CE/0DEE       03904 22203                       DTB   (R1),(R0)           A
 003796 4780 706A/58E0_      037A0 22218                       IF    NZ,'VCALL NOTVALID'
 0037A0 182F                       22238                       LR    R2,R15
 0037A2 5810 B08C/1B00_      0008C 22239                       SCAN
 0037F0 58E0 71CA/0DEE       03900 22270                       SCANCHK
 0037F6 1200/4780 C7F0             22275                       IF    (R0,Z),CVABSENT
 0037FC 58E0 71CE/0DEE       03904 22292                       DTB   (R1),(R0)           *,B
 003802 4780 70D6/58E0_      0380C 22307                       IF    NZ,'VCALL NOTVALID'
 00380C 183F                       22327                       LR    R3,R15
 00380E 5810 B08C/1B00_      0008C 22328                       SCAN
 00385C 58E0 71CA/0DEE       03900 22359                       SCANCHK
 003862 1200/4780 C7F0             22364                       IF    (R0,Z),CVABSENT
 003868 58E0 71CE/0DEE       03904 22381                       DTB   (R1),(R0)           *,*,C
 00386E 4780 7142/58E0_      03878 22396                       IF    NZ,'VCALL NOTVALID'
 003878 124F                       22416                       LTR   R4,R15
 00387A 4720 714E/58E0_      03884 22417                       IF    NP,'VCALL NOTVALID'
                                   22437
 003884 1BFF                       22438                       CLEAR R15                 Assume no idles
 003886 4850 722E            03964 22442                       LH    R5,=H'960'          Assume 960 cps (9600 baud)
 00388A 1C44                       22443                       MR    R4,R4               R5 = cps*c
 00388C 1845                       22444                       LR    R4,R5
 00388E 8840 0001            00001 22445                       SRL   R4,1                R4 = (cps*c)/2
 003892 1812                       22446                       LR    R1,R2               A
 003894 4C10 7230            03966 22447                       MH    R1,=H'1000'
 003898 1B00                       22448                       CLEAR R0
 00389A 1D05                       22452                       DR    R0,R5               R0 = (a*1000/cps)/c
 00389C 1244/4780 7176_            22453                       IF    ((R4,NZ),AND,(R0,NZ)),'INCR R1'
 0038AC 5910 71F6/47D0_      0392C 22488                       IF    (R1,GT,5000),'L R1,=F"5000"'
 0038B8 18F1                       22511                       LR    R15,R1              Perchar ms delay
 0038BA 1813                       22512                       LR    R1,R3               B
 0038BC 4C10 7230            03966 22513                       MH    R1,=H'1000'
 0038C0 1B00                       22514                       CLEAR R0
 0038C2 1D05                       22518                       DR    R0,R5               R0 = (b*1000/cps)/c
 0038C4 1244/4780 719E_            22519                       IF    ((R4,NZ),AND,(R0,NZ)),'INCR R1'
 0038D4 5910 71F6/47D0_      0392C 22554                       IF    (R1,GT,5000),'L R1,=F"5000"'
 0038E0 8910 0010            00010 22577                       SLL   R1,16
1TOPS     (TOPS2025) (12:57) (15MAR04) SET/SHOW TERMINAL Commands                                                           Page   59
0Current Usings:  (SIB,R6) (*,R7) (CP,R11) (CV,R12)
0Loc    Object Code    Addr1 Addr2  Stmt Lv Lineno    Source Statement           (Hibal 5, Asmedit 3.3)  HLASM R4.0  2004/03/15 12.57
+___    ______ ____    _____ _____  ____ __ ______    ______ _________
00038E4 1AF1                       22578                       AR    R15,R1              Add in fixed ms delay
 0038E6 18D8/9808 D004_            22579                       PEND
 DROP   *,R7
                                   22599
 DROP   SIB,R6                     22600                       DROP  SIB
                                   22608
                                   22609                       QLTORG
1TOPS     (TOPS2025) (12:57) (15MAR04) SET/SHOW TERMINAL Commands                                                           Page   60
0Current Usings:  (CP,R11) (CV,R12)
0Loc    Object Code    Addr1 Addr2  Stmt Lv Lineno    Source Statement           (Hibal 5, Asmedit 3.3)  HLASM R4.0  2004/03/15 12.57
+___    ______ ____    _____ _____  ____ __ ______    ______ _________
0                                  22645              ¿þþþþþþþþþþþþþþþþþþþþþþþþþþþþþþþþþþþþþþþþþþþþþþþþþþþþþþþþþþþþþþþþþþþþþÜ
                                   22646              Ÿ                                                                     Ÿ
                                   22647              Ÿ  CHKTTYPE -- Routine to check the terminal type to see if it's      Ÿ
                                   22648              Ÿ    one we know about.                                               Ÿ
                                   22649              Ÿ                                                                     Ÿ
                                   22650              Ÿ    On entry:                                                        Ÿ
                                   22651              Ÿ      R15 - terminal type loc (8 characters)                         Ÿ
                                   22652              Ÿ                                                                     Ÿ
                                   22653              Ÿ    On exit, R15 (and cc):                                           Ÿ
                                   22654              Ÿ      0 - unknown terminal type                                      Ÿ
                                   22655              Ÿ      nz- terminal type is known (R15=TTYPE loc)                     Ÿ
                                   22656              Ÿ                                                                     Ÿ
                                                      ¾þþþþþþþþþþþþþþþþþþþþþþþþþþþþþþþþþþþþþþþþþþþþþþþþþþþþþþþþþþþþþþþþþþþþþ»
0003970 50E0 D000/9008_      00000 22657              CHKTTYPE XPROC  ,
 USING  *,R7
 00398A 185F                       22697                       LR    R5,R15
 00398C 4160 C204            00204 22698                       LA    R6,CVTTYQH-(TTYLINK-TTYPE)
                                   22699
 003990 1BFF                       22700                       CLEAR R15
 003992                            22704                       LOOP  BEGIN
 USING  TTYPE,R6                   22710  1                      WITH  (TTYPE,R6)
 003992 5860 6000/1266_      00000 22723  1                      WHILE ('LT R6,TTYLINK',NZ)
 00399C 1B22                       22740  1                      CLEAR R2
 00399E 4130 6014            00014 22744  1                      LA    R3,TTYNAME
 0039A2 5920 72CE/47B0_      03C58 22745  1                      WHILE (R2,LT,TTYMAX#),BEGIN
 0039AA D507 3000 5000_00000 00000 22764  2                        IF    ('CLC @R3(8),@R5',EQ),BEGIN  Matched...
 0039B4 18F6                       22777  3                          LR    R15,R6
 0039B6 47F0 7040            039CA 22778  3                          B     CHKTEXIT
 0039BA                            22779  2                        END
                                   22783  2
 0039BA 4130 3008            00008 22784  2                        LA    R3,@R3+L'TTYNAME
 0039BE 4120 2001            00001 22785  2                        LA    R2,@R2+1
 0039C2 47F0 7018            039A2 22786  1                      END
 0039C6 47F0 7008            03992 22791                       END
 DROP   TTYPE,R6
                                   22801
 0039CA 18D8/9808 D004_            22802              CHKTEXIT PEND
 DROP   *,R7
1TOPS     (TOPS2025) (12:57) (15MAR04) SET/SHOW TERMINAL Commands                                                           Page   61
0Current Usings:  (CP,R11) (CV,R12)
0Loc    Object Code    Addr1 Addr2  Stmt Lv Lineno    Source Statement           (Hibal 5, Asmedit 3.3)  HLASM R4.0  2004/03/15 12.57
+___    ______ ____    _____ _____  ____ __ ______    ______ _________
0000000                00000 00008 22824              SETTWA   RECORD BEGIN
 000000                            22832  1           SETTOLD    DS    CL8                 Old terminal name
 000008                00008 00008 22833                       END
-                                  22843              ¿þþþþþþþþþþþþþþþþþþþþþþþþþþþþþþþþþþþþþþþþþþþþþþþþþþþþþþþþþþþþþþþþþþþþþÜ
                                   22844              Ÿ                                                                     Ÿ
                                   22845              Ÿ  SETTTYPE -- Routine to set device information based on the         Ÿ
                                   22846              Ÿ    terminal type.                                                   Ÿ
                                   22847              Ÿ                                                                     Ÿ
                                   22848              Ÿ    On entry:                                                        Ÿ
                                   22849              Ÿ      R15 - TTYPE entry (0=universal defaults)                       Ÿ
                                   22850              Ÿ                                                                     Ÿ
                                                      ¾þþþþþþþþþþþþþþþþþþþþþþþþþþþþþþþþþþþþþþþþþþþþþþþþþþþþþþþþþþþþþþþþþþþþþ»
00039D8 50E0 D000/9008_      00000 22851              SETTTYPE XPROC SETTWA
 USING  *,R7
 USING  SETTWA-(4+36),R8
 0039F2 D707 8028 8028 00000 00000 22902                       CLEAR SETTOLD             Initialize old terminal name
                                   22909
 0039F8 125F                       22910                       LTR   R5,R15
 0039FA 4770 7010/5850_      03A02 22911                       IF    Z,'L R5,CVTTYQH'    Use the first entry (the default)
                                   22928                       ¿þþþþþþþþþþþþþþþþþþþþþþþþþþþþþþþþþþþþþþþþþþþþþþþþþþþþþþþþþþþþþþþÜ
                                   22929                       Ÿ  Decrement the use count for the TTYPE entry being released.  Ÿ
                                   22930                       ¾þþþþþþþþþþþþþþþþþþþþþþþþþþþþþþþþþþþþþþþþþþþþþþþþþþþþþþþþþþþþþþþ»
 003A02 5840 B468/1244       00468 22931                       LT    R4,CPTTYPEP         Current TTYPE ptr
 003A08 4780 7072            03A64 22935                       IF    NZ,BEGIN
 USING  TTYPE,R4                   22946  1                      WITH  (TTYPE,R4)
 003A0C D207 8028 4014 00000 00014 22959  1                      MVC   SETTOLD,TTYNAME     Save old terminal type name
                                   22960  1
 003A12 4800 4006/0600_      00006 22961  1                      DECR  R0,TTYUSE           Decrement use count
 003A1C 9180 4004/47E0_00004       22966  1                      IF    (TTYFREL,AND,(R0,Z)),BEGIN  Release old TTYPE entry...
                                   22994  2                        ¿þþþþþþþþþþþþþþþþþþþþþþþþþþþþÜ
                                   22995  2                        Ÿ  Release init write text.  Ÿ
                                   22996  2                        ¾þþþþþþþþþþþþþþþþþþþþþþþþþþþþ»
 003A2A 5830 4010            00010 22997  2                        L     R3,TTYINITQ
 003A2E 1233/4780 705E             22998  2                        WHILE (R3,NZ),BEGIN       Free "init text"...
 003A34 5820 3000            00000 23014  3                          L     R2,@R3              Get next "init text" entry ptr
 003A38 1813/4800 3004             23015  3                          SETMSG (R3),LH:@R3+4
 003A3E D203 3000 726A 00000 03C5C 23026  3                          MVC   @R3(4),=F'-1'       (Neatness)
                                   23027  3           *        FREEMAIN R,A=(1),LV=(0)   Free text entry
 003A44 58E0 726E/0DEE       03C60 23028  3                          VCALL FREECORE
 003A4A 1832                       23032  3                          LR    R3,R2
 003A4C 47F0 703C            03A2E 23033  2                        END
                                   23038  2                        ¿þþþþþþþþþþþþþþþþþþþþþþþþÜ
                                   23039  2                        Ÿ  Release TTYPE entry.  Ÿ
                                   23040  2                        ¾þþþþþþþþþþþþþþþþþþþþþþþþ»
 003A50 D7FF 4000 4000_00000 00000 23041  2                        CLEAR TTYPE               (Neatness)
 003A5C 1814                       23049  2                        LR    R1,R4
                                   23050  2           *        FREEMAIN R,A=(R1),LV=L'TTYPE  Free TTYPE entry
 003A5E 58E0 726E/0DEE       03C60 23051  2                        VCALL FREECORE
 003A64                            23055  1                      END
 DROP   TTYPE,R4                   23059                       END
1TOPS     (TOPS2025) (12:57) (15MAR04) SET/SHOW TERMINAL Commands                                                           Page   62
0Current Usings:  (*,R7) (SETTWA-(4+36),R8) (CP,R11) (CV,R12)
0Loc    Object Code    Addr1 Addr2  Stmt Lv Lineno    Source Statement           (Hibal 5, Asmedit 3.3)  HLASM R4.0  2004/03/15 12.57
+___    ______ ____    _____ _____  ____ __ ______    ______ _________
0                                  23068                       ¿þþþþþþþþþþþþþþþþþþþþþþþþþþþþþþþþþþþþþþþþþþþþþþþþþþþþþþþþÜ
                                   23069                       Ÿ  Now set the new TTYPE entry and kick it's use count.  Ÿ
                                   23070                       ¾þþþþþþþþþþþþþþþþþþþþþþþþþþþþþþþþþþþþþþþþþþþþþþþþþþþþþþþþ»
 003A64 5050 B468            00468 23071                       ST    R5,CPTTYPEP         Save TTYPE ptr
 003A68 1255/4780 724C             23072                       IF    (R5,NZ),BEGIN       We have a terminal type...
 USING  TTYPE,R5                   23086  1                      WITH  (TTYPE,R5)
 003A6E 4100 0001/4A00_      00001 23099  1                      INCR  R0,TTYUSE           Kick TTYPE's use count
                                   23105  1                      ¿þþþþþþþþþþþþþþþþþþþþþþþþþþþþþþþþþþþþþþþþþþþþþþþþþþþþþþþþþþþþþþÜ
                                   23106  1                      Ÿ  If it is a Samson terminal type then get info from Samson.  Ÿ
                                   23107  1                      ¾þþþþþþþþþþþþþþþþþþþþþþþþþþþþþþþþþþþþþþþþþþþþþþþþþþþþþþþþþþþþþþ»
 003A7A 9140 5005/47E0_00005       23108  1                      IF    TTYFSAM,BEGIN       Samson terminal...
                                   23123  2                       ¿þþþþþþþþþþþþþþþþþþþþþþþþþþþþþþþþþþþþþþþþþþþþþþþþþþþþþþþþþþþþþþþþÜ
                                   23124  2                       Ÿ   Special compatibility feature, if the Samson terminal type   Ÿ
                                   23125  2                       Ÿ  is "OLDxxx" then don't sense the Samson version and terminal  Ÿ
                                   23126  2                       Ÿ     information.                                               Ÿ
                                   23127  2                       ¾þþþþþþþþþþþþþþþþþþþþþþþþþþþþþþþþþþþþþþþþþþþþþþþþþþþþþþþþþþþþþþþþ»
 003A82 D502 729E 5014_03C90 00014 23128  2                        IF    (TTYNAME,EQ,'OLD'),BEGIN
 003A8C 58E0 7272/0DEE       03C64 23145  3                          VCALL SAMINIT             Reset Samson defaults
 003A92 9680 BA21      00A21       23149  3                          SET   CPSAMFDEF           Fake it: Samson parms are defined
 003A96                            23155  2                        END
                                   23159  2
 003A96 70A8/47F0 7124 03A96 03A8A 23160  2                        ELSE  BEGIN               Sense information from Samson...
 003A9A 1B00                       23171  3                          CLEAR R0                  Don't set time/date
 003A9C 58E0 7276/0DEE       03C68 23175  3                          VCALL SAMPARMS            Get Samson information
                                   23179  3
 003AA2 4770 70D6            03AC8 23180  3                          IF    Z,BEGIN             Got the Samson info...
 003AA6 D506 72A1 5014_03C93 00014 23191  4                            IF    (TTYNAME,EQ,'SAMSON '),BEGIN  Generic Samson...
 003AB0 41F0 BA53            00A53 23208  5                              LA    R15,CPSAMTRM        Change to real terminal type
 003AB4 58E0 727A/0DEE       03C6C 23209  5                              ACALL CHKTTYPE            Lookup terminal type
 003ABA 4780 70D6            03AC8 23213  5                              IF    Z,EXIT              (Unknown terminal, forget it)
 003ABE 58E0 727E/0DEE       03C70 23227  5                              ACALL SETTTYPE            Change to real ttype (recursive)
 003AC4 47F0 724C            03C3E 23231  5                              B     SETXEXIT            Scram
 003AC8                            23232  4                            END
 003AC8                            23236  3                          END
                                   23240  3
 003AC8 70DA/47F0 7124 03AC8 03AA4 23241  3                          ELSE  BEGIN               Not a Samson terminal...
                                   23252  4                          ¿þþþþþþþþþþþþþþþþþþþþþþþþþþþþþþþþþþþþþþþþþþþþþþþþþþþþþþþþþþþþþþþþþÜ
                                   23253  4                          Ÿ   We get here when the user has set a Samson terminal type but  Ÿ
                                   23254  4                          Ÿ  is probably not using Samson.  We have to try to do something  Ÿ
                                   23255  4                          Ÿ     reasonable, the best thing to do is to change the terminal  Ÿ
                                   23256  4                          Ÿ      type to VT100.                                             Ÿ
                                   23257  4                          ¾þþþþþþþþþþþþþþþþþþþþþþþþþþþþþþþþþþþþþþþþþþþþþþþþþþþþþþþþþþþþþþþþþ»
 003ACC 4110 72A8/4100_      03C9A 23258  4                            TSEG  X'0D'               (CR only)
 003ADE 4110 72A9/4100_      03C9B 23276  4                            TSEG  'This is not a Samson terminal, '
 003AF0 4110 72C8/4100_      03CBA 23294  4                            TSEG  'terminal type changed to VT100.',,WR
                                   23312  4
 003B02 41F0 725E            03C50 23313  4                            LA    R15,=CL8'VT100'     Change terminal type to VT100
 003B06 58E0 727A/0DEE       03C6C 23314  4                            ACALL CHKTTYPE            Lookup terminal type
 003B0C 58E0 727E/0DEE       03C70 23318  4                            ACALL SETTTYPE            Change to VT100 (recursive call)
 003B12 47F0 724C            03C3E 23322  4                            B     SETXEXIT            Scram
 003B16                            23323  3                          END
 003B16                            23327  2                        END
 003B16                            23331  1                      END
1TOPS     (TOPS2025) (12:57) (15MAR04) SET/SHOW TERMINAL Commands                                                           Page   63
0Current Usings:  (TTYPE,R5) (*,R7) (SETTWA-(4+36),R8) (CP,R11) (CV,R12)
0Loc    Object Code    Addr1 Addr2  Stmt Lv Lineno    Source Statement           (Hibal 5, Asmedit 3.3)  HLASM R4.0  2004/03/15 12.57
+___    ______ ____    _____ _____  ____ __ ______    ______ _________
0                                  23335  1                      ¿þþþþþþþþþþþþþþþþþþþþþþþþþþþþþÜ
                                   23336  1                      Ÿ  Non-Samson terminal type.  Ÿ
                                   23337  1                      ¾þþþþþþþþþþþþþþþþþþþþþþþþþþþþþ»
 003B16 7128/47F0 712E 03B16 03A80 23338  1                      ELSE  BEGIN               Non-Samson terminal type...
 003B1A 58E0 7272/0DEE       03C64 23349  2                        VCALL SAMINIT             Reset Samson defaults
 003B20                            23353  1                      END
                                   23357  1                      ¿þþþþþþþþþþþþþþþþþþþþþþþþþþþþþþþþþþþþþþþþþþþþþþþÜ
                                   23358  1                      Ÿ  Update terminal type information in CP/SIB.  Ÿ
                                   23359  1                      ¾þþþþþþþþþþþþþþþþþþþþþþþþþþþþþþþþþþþþþþþþþþþþþþþ»
 003B20 947F BACB      00ACB       23360  1                      CLEAR CPVFVTAM            Assume not VTAM terminal
 003B24 9104 5005/47E0_00005       23367  1                      IF    TTYFVTAM,'SET CPVFVTAM'
                                   23393  1
 003B30                            23394  1                      LOOP  BEGIN
 003B30 D207 B41E 5014 0041E 00014 23400  2                        MVC   CPSTTYPE,TTYNAME    Save terminal type name
 003B36 D207 B3E2 5044 003E2 00044 23401  2                        MVC   CPSTCLS,TTYTCLS     Save terminal class
 003B3C 943F B3EA      003EA       23402  2                        CLEAR CPSFMOD+CPSFSAM
 003B40 9180 5005/47E0_00005       23412  2                        IF    TTYFMOD,'SET CPSFMOD'  Model terminal
 003B4C 9140 5005/47E0_00005       23438  2                        IF    TTYFSAM,'SET CPSFSAM'  Samson terminal
                                   23464  2
 003B58 1BFF                       23465  2                        CLEAR R15
 003B5A 48F0 BA9A/12FF       00A9A 23469  2                        LTH   R15,CPSAMHEI        Samson height
 003B60 4770 7176/48F0_      03B68 23473  2                        IF    Z,'LH R15,TTYHEI'   Height in ttype entry
 003B68 12FF/4780 7180_            23490  2                        IF    (R15,NZ),'STH R15,CPSHEI'  Height
                                   23510  2
 003B72 1BFF                       23511  2                        CLEAR R15
 003B74 48F0 BA9C/12FF       00A9C 23515  2                        LTH   R15,CPSAMWID        Samson width
 003B7A 4770 7190/48F0_      03B82 23519  2                        IF    Z,'LH R15,TTYWID'   Width in ttype entry
 003B82 12FF/4780 719A_            23536  2                        IF    (R15,NZ),'STH R15,CPSWID'  Width
                                   23556  2
 003B8C 58E0 728A/0DEE       03C7C 23557  2                        VCALL UPDCPSIB            Update SIB
 003B92 4780 71A8            03B9A 23561  2                        UNTIL Z
 003B96 47F0 713E            03B30 23576  1                      END
                                   23581  1                      ¿þþþþþþþþþþþþþþþþþþþþþþþþþþþþþþþþþþþþþþþþþþþþþþþþþþþþþþþþþþþþþþþÜ
                                   23582  1                      Ÿ  Reinitialize page image.  If we don't yet have view control  Ÿ
                                   23583  1                      Ÿ    blocks then don't bother.                                  Ÿ
                                   23584  1                      ¾þþþþþþþþþþþþþþþþþþþþþþþþþþþþþþþþþþþþþþþþþþþþþþþþþþþþþþþþþþþþþþþ»
 003B9A D701 BAD4 BAD4_00AD4 00AD4 23585  1                      CLEAR CPVHEI,CPVWID,CPVTWID  Reset (PAGEINIT picks values)
                                   23602  1
 003BAC D601 BAD8 BAD8_00AD8 00AD8 23603  1                      IF    (CPVWCNT,NZ),BEGIN  Re-initalize...
 003BB6 58E0 728E/0DEE       03C80 23619  2                        VCALL PAGEINIT            Reinitialize page image
 003BBC                            23623  1                      END
                                   23627  1                      ¿þþþþþþþþþþþþþþþþþþþþþþþþþþþþþþþþþþþþþþþþþþÜ
                                   23628  1                      Ÿ  Write any initialization text out now.  Ÿ
                                   23629  1                      ¾þþþþþþþþþþþþþþþþþþþþþþþþþþþþþþþþþþþþþþþþþþ»
 003BBC D507 5014 8028_00014 00000 23630  1                      IF    (TTYNAME,NE,SETTOLD),BEGIN  Changing terminal types...
 003BC6 41F0 B050/58E0_      00050 23648  2                        TCLEAR
 003BD0 184D/41D0 D010             23662  2                        XPUSH ,,L'CPTRM,PTR=R4
 003BD6 D20D 4000 BC7A 00000 00C7A 23665  2                        MVC   @R4(L'CPTRM),CPTRM  Save terminal I/O flags
 003BDC D70D BC7A BC7A 00C7A 00C7A 23666  2                        CLEAR CPTRM               Reset flags
 003BE2 9680 BC7A/9680_00C7A       23673  2                        SET   CPFNONL,CPFCLEAN,CPFSLOW,CPFNMOD,CPFNPAU  Good stuff
                                   23695  2
 003BF6 4130 5010            00010 23696  2                        LA    R3,TTYINITQ         Init text queue ptr (or zero)
 003BFA 5830 3000/1233_      00000 23697  2                        WHILE ('LT R3,@R3',NZ),BEGIN  Write any text...
 003C04 4800 3004            00004 23715  3                          LH    R0,@R3+4            Total entry length
1TOPS     (TOPS2025) (12:57) (15MAR04) SET/SHOW TERMINAL Commands                                                           Page   64
0Current Usings:  (TTYPE,R5) (*,R7) (SETTWA-(4+36),R8) (CP,R11) (CV,R12)
0Loc    Object Code    Addr1 Addr2  Stmt Lv Lineno    Source Statement           (Hibal 5, Asmedit 3.3)  HLASM R4.0  2004/03/15 12.57
+___    ______ ____    _____ _____  ____ __ ______    ______ _________
0003C08 4B00 729A            03C8C 23716  3                          SH    R0,=H'8'            Subtract the length of the prefix
 003C0C 4110 3008/41F0_      00008 23717  3                          TSEG  @R3+8,(R0)          Write the init text
 003C1A 41F0 B050/58E0_      00050 23744  3                          TMARK
 003C24 47F0 7208            03BFA 23758  2                        END
 003C28 1B00/41F0 B050_            23763  2                        TWRITE
                                   23788  2
 003C34 D20D BC7A 4000 00C7A 00000 23789  2                        MVC   CPTRM,@R4           Restore terminal I/O flags
 003C3A 4BD0 729C            03C8E 23790  2                        XPOP  ,,L'CPTRM
 003C3E                            23792  1                      END
 DROP   TTYPE,R5                   23796                       END
                                   23805
 003C3E 18D8/9808 D004_            23806              SETXEXIT PEND
 DROP   SETTWA-(4+36),R8
 DROP   *,R7
                                   23832
                                   23833                       QLTORG
1TOPS     (TOPS2025) (12:57) (15MAR04) SET/SHOW TERMINAL Commands                                                           Page   65
0Current Usings:  (CP,R11) (CV,R12)
0Loc    Object Code    Addr1 Addr2  Stmt Lv Lineno    Source Statement           (Hibal 5, Asmedit 3.3)  HLASM R4.0  2004/03/15 12.57
+___    ______ ____    _____ _____  ____ __ ______    ______ _________
0                                  23867              ¿þþþþþþþþþþþþþþþþþþþþþþþþþþþþþþþþþþþþþþþþþþþþþþþþþþþþþþþþþþþþþþþþþþþþþÜ
                                   23868              Ÿ                                                                     Ÿ
                                   23869              Ÿ  SHOWTERM -- SHOW TERMINAL command.                                 Ÿ
                                   23870              Ÿ  TERMDISP -- Subroutine (called by SHOW OPTIONS).                   Ÿ
                                   23871              Ÿ                                                                     Ÿ
                                                      ¾þþþþþþþþþþþþþþþþþþþþþþþþþþþþþþþþþþþþþþþþþþþþþþþþþþþþþþþþþþþþþþþþþþþþþ»
0003CDA 50E0 D000/9008_      00000 23872              SHOWTERM XPROC  ,
 USING  *,R7
 003CF4 58E0 750C/0DEE       04200 23912                       VCALL COLLOPTS
                                   23916
 003CFA 58E0 7510/0DEE       04204 23917                       ACALL TERMDISP
 003D00 47F0 C7DE            007DE 23921                       B     CVNEXT
 003D04 18D8/9808 D004_            23922                       PEND
 DROP   *,R7
-003D12 50E0 D000/9008_      00000 23943              TERMDISP XPROC  ,
 USING  *,R7
 003D2C 4110 7540/4100_      0426C 23983                       TSEG  'Terminal Options:',,CR
 003D3E 4110 C4D8/4100_      004D8 24001                       TSEG  CVBLANKS,2
 003D50 D607 B3DA B3DA_003DA 003DA 24031                       IF    ((CPSTID,NZ),AND,(CPSTID,NE,CVBLANKS)),BEGIN
 003D64 4110 7551/4100_      0427D 24064  1                      TSEG  'ID='
 003D76 4110 B3DA/4100_      003DA 24082  1                      SETMSG CPSTID
 003D7E 58E0 74E4/0DEE       04210 24096  1                      VCALL LRTRIM
 003D84 41F0 B050/58E0_      00050 24100  1                      TSEG  (R1),(R0),B
 003D8E                            24124                       END
                                   24128
 003D8E D607 B3FE B3FE_003FE 003FE 24129                       IF    ((CPSCHAR,NZ),AND,(CPSCHAR,NE,CVBLANKS)),BEGIN
 003DA2 4110 7504/4100_      04230 24162  1                      TSEG  'CHARS='
 003DB4 4110 B3FE/4100_      003FE 24180  1                      TSEG  CPSCHAR,,TB
 003DC6                            24208                       END
                                   24212
 003DC6 D601 B3FA B3FA_003FA 003FA 24213                       IF    (CPSINMX,NZ),BEGIN
 003DD0 4110 750A/4100_      04236 24229  1                      TSEG  'INMAX='
 003DE2 48F0 B3FA/1B00_      003FA 24247  1                      BTD   CPDOUB,0,LH:CPSINMX
 003DF2 41F0 B050/58E0_      00050 24266  1                      TSEG  (R1),(R0),B
 003DFC                            24290                       END
                                   24294
 003DFC D601 B3FC B3FC_003FC 003FC 24295                       IF    (CPSOUMX,NZ),BEGIN
 003E06 4110 7554/4100_      04280 24311  1                      TSEG  'OUTMAX='
 003E18 48F0 B3FC/1B00_      003FC 24329  1                      BTD   CPDOUB,0,LH:CPSOUMX
 003E28 41F0 B050/58E0_      00050 24348  1                      TSEG  (R1),(R0),B
 003E32                            24372                       END
                                   24376
 003E32 D607 B41E B41E_0041E 0041E 24377                       IF    ((CPSTTYPE,NZ),AND,(CPSTTYPE,NE,CVBLANKS)),BEGIN
 003E46 4110 755B/4100_      04287 24410  1                      TSEG  'TYPE='
 003E58 4110 B41E/4100_      0041E 24428  1                      SETMSG CPSTTYPE
 003E60 58E0 74E4/0DEE       04210 24442  1                      VCALL LRTRIM
 003E66 41F0 B050/58E0_      00050 24446  1                      TSEG  (R1),(R0),B
 003E70                            24470                       END
                                   24474
 003E70 9120 B3EE/47E0_003EE       24475                       IF    CPSFNBRK,'TSEG "NO"'
 003E8A 4110 7560/4100_      0428C 24513                       TSEG  'BREAK',,B
1TOPS     (TOPS2025) (12:57) (15MAR04) SET/SHOW TERMINAL Commands                                                           Page   66
0Current Usings:  (*,R7) (CP,R11) (CV,R12)
0Loc    Object Code    Addr1 Addr2  Stmt Lv Lineno    Source Statement           (Hibal 5, Asmedit 3.3)  HLASM R4.0  2004/03/15 12.57
+___    ______ ____    _____ _____  ____ __ ______    ______ _________
0003E9C 9140 B3EE/47E0_003EE       24531                       IF    CPSFNCOM,'TSEG "NO"'
 003EB6 4110 74F4/4100_      04220 24569                       TSEG  'COMM',,B
 003EC8 9180 B3EE/47E0_003EE       24587                       IF    CPSFNMSG,'TSEG "NO"'
 003EE2 4110 7565/4100_      04291 24625                       TSEG  'MSG',,B
 003EF4 9120 B3F9/47E0_003F9       24643                       IF    CPSFNTYP,'TSEG "NO"'
 003F0E 4110 7512/4100_      0423E 24681                       TSEG  'TYPEAHEAD '
 003F20 9140 B3EA/47E0_003EA       24699                       IF    CPSFSAM,'TSEG "SAMSON "'
 003F3A 1B00/41F0 B050_            24737                       TCR
                                   24762
 003F46 4110 C4D8/4100_      004D8 24763                       TSEG  CVBLANKS,2
 003F58 9101 B3F8/47E0_003F8       24793                       IF    CPSFNECH,'TSEG "NO"'
 003F72 4110 756F/4100_      0429B 24831                       TSEG  'ECHO '
 003F84 4110 7574/4100_      042A0 24849                       SETMSG 'SLOW '
 003F8C 9120 B3F8/47E0_003F8       24853                       IF    CPSFFAST,'SETMSG "FAST "'
 003F9C 41F0 B050/58E0_      00050 24877                       TSEG  (R1),(R0)
 003FA6 9140 B3F8/4710_003F8       24901                       IF    ~CPSFBACK,'TSEG "NO"'
 003FC0 4110 757E/4100_      042AA 24939                       TSEG  'BACK '
 003FD2 9102 B3F8/4710_003F8       24957                       IF    ~CPSFFILT,'TSEG "NO"'
 003FEC 4110 7583/4100_      042AF 24995                       TSEG  'FILTER '
 003FFE 4110 751C/4100_      04248 25013                       SETMSG 'UPPER '
 004006 9180 B3F8/47E0_003F8       25017                       IF    CPSFUPL,'SETMSG "UPLOW "'
 004016 41F0 B050/58E0_      00050 25041                       TSEG  (R1),(R0)
                                   25065
 004020 9104 B3F8/4710_003F8       25066                       IF    ~CPSFXON,'TSEG "NO"'
 00403A 4110 74F8/4100_      04224 25104                       TSEG  'XON '
                                   25122
 00404C 9108 B3F8/47E0_003F8       25123                       IF    CPSFPSP,'TSEG "PSPECIAL "'
                                   25161
 004066 9108 B416/47E0_00416       25162                       IF    CPSFQUIET,'TSEG "QUIET "'
                                   25200
 004080 9180 B3EF/47E0_003EF       25201                       IF    CPSFTRC,'TSEG "TRACE "'
                                   25239
 00409A 9140 B3EF/47E0_003EF       25240                       IF    CPSFKEEP,'TSEG "KEEP "'
                                   25278
 0040B4 9180 B3EC/4710_003EC       25279                       IF    ~CPSFVFAST,'TSEG "NO"'
 0040CE 4110 7534/4100_      04260 25317                       TSEG  'VFAST '
                                   25335
 0040E0 4110 753A/4100_      04266 25336                       TSEG  'WIDTH='
 0040F2 4810 B418/1B00_      00418 25354                       TNUM  LH:CPSWID
                                   25375
 004102 4110 74CC/4100_      041F8 25376                       TSEG  ' HEIGHT='
 004114 4810 B41A/1B00_      0041A 25394                       TNUM  LH:CPSHEIP
 004124 4110 7598/4100_      042C4 25415                       TSEG  ','
 004136 4810 B41C/1B00_      0041C 25433                       TNUM  LH:CPSHEI
                                   25454
 004146 1B00/41F0 B050_            25455                       TCR
 004152 4770 C7DA            007DA 25480                       BNZ   CVABORT
                                   25481              *
                                   25482              ***      TSEG  '  PARITY:',,B
                                   25483              ***      SETMSG 'NOPARITY'
                                   25484              ***      IF    CPSFPAR,BEGIN
                                   25485              ***      CLEAR R0
                                   25486              ***      IF    CPSFEVEN,'SETMSG "EVEN"'
                                   25487              ***      IF    CPSFODD,'SETMSG "ODD"'
1TOPS     (TOPS2025) (12:57) (15MAR04) SET/SHOW TERMINAL Commands                                                           Page   67
0Current Usings:  (*,R7) (CP,R11) (CV,R12)
0Loc    Object Code    Addr1 Addr2  Stmt Lv Lineno    Source Statement           (Hibal 5, Asmedit 3.3)  HLASM R4.0  2004/03/15 12.57
+___    ______ ____    _____ _____  ____ __ ______    ______ _________
0                                  25488              ***      IF    CPSFMARK,BEGIN
                                   25489              ***      IF    (R0,NZ),'TSEG (R1),(R0); TSEG ","'
                                   25490              ***      SETMSG 'MARK'
                                   25491              ***      END
                                   25492              ***      END
                                   25493              ***      TSEG  (R1),(R0)
                                   25494              ***
                                   25495              ***      TSEG  CVBLANKS,2
                                   25496              ***      LA    R1,CPSIB
                                   25497              ***      ACALL IDLEDISP
 004156 18D8/9808 D004_            25498              TERMDXIT PEND
 DROP   *,R7
1TOPS     (TOPS2025) (12:57) (15MAR04) SET/SHOW TERMINAL Commands                                                           Page   68
0Current Usings:  (CP,R11) (CV,R12)
0Loc    Object Code    Addr1 Addr2  Stmt Lv Lineno    Source Statement           (Hibal 5, Asmedit 3.3)  HLASM R4.0  2004/03/15 12.57
+___    ______ ____    _____ _____  ____ __ ______    ______ _________
0004164 50E0 D000/9008_      00000 25520              SEGHEXB  PROC
 USING  *,R7
 00417E 9500 1000/4770_00000       25559                       IF    (@R1,EQ,X'00'),'TSEG "0",,B'
 004198 701E/47F0 7066 04198 04184 25598                       ELSE  BEGIN
 00419C 1831                       25609  1                      LR    R3,R1
 00419E 1820                       25610  1                      LR    R2,R0
 0041A0                            25611  1                      LOOP  BEGIN
 0041A0 1FFF/43F0 3000_            25617  2                        BTX   CPDOUB,2,IC:@R3
 0041B4 41F0 B050/58E0_      00050 25645  2                        TSEG  (R1),(R0)
 0041BE 4130 3001            00001 25669  2                        LA    R3,@R3+1
 0041C2 0620                       25670  2                        DECR  R2
 0041C4 1222/47D0 7054_            25672  1                      WHILE ((R2,POS),AND,(@R3,NE,X'00')),END
 0041D2 4110 C4D8/4100_      004D8 25706  1                      TSEG  CVBLANKS,1
 0041E4                            25736                       END
 0041E4 18D8/9808 D004_            25740                       PEND
 DROP   *,R7
                                   25760              *
                                   25761              *
                                   25762                       QLTORG
                                   25813                       AIF   (&$PCODE).NOLINE    *** PCODE
1TOPS     (TOPS2025) (12:57) (15MAR04) SET LINE Command                                                                     Page   69
0Current Usings:  (CP,R11) (CV,R12)
0Loc    Object Code    Addr1 Addr2  Stmt Lv Lineno    Source Statement           (Hibal 5, Asmedit 3.3)  HLASM R4.0  2004/03/15 12.57
+___    ______ ____    _____ _____  ____ __ ______    ______ _________
0                                  25815              ¿þþþþþþþþþþþþþþþþþþþþþþþþþþþþþþþþþþþþþþþþþþþþþþþþþþþþþþþþþþþþþþþþþþþþþÜ
                                   25816              Ÿ                                                                     Ÿ
                                   25817              Ÿ  SETLINE -- SET LINE command.                                       Ÿ
                                   25818              Ÿ                                                                     Ÿ
                                                      ¾þþþþþþþþþþþþþþþþþþþþþþþþþþþþþþþþþþþþþþþþþþþþþþþþþþþþþþþþþþþþþþþþþþþþþ»
00042C6 50E0 D000/9008_      00000 25819              SETLINE  XPROC SIB
 USING  *,R7
 USING  SIB-(4+36),R8
 0042E0 D2FD 8028 B344 00000 00344 25870                       MVC   SIB,CPSIB
 0042E6 58E0 B08C/D2AF_      0008C 25871                       SCPUSH
                                   25877
 0042F4 4150 0064            00064 25878                       LA    R5,100              Maximum loop count
 0042F8 58E0 B08C/4BD0_      0008C 25879              SETNLP   SCPOP
 004306 58E0 B08C/D2AF_      0008C 25885                       SCPUSH ,
 004314 5810 B08C/1B00_      0008C 25891                       SCAN
 004362 58E0 77F4/0DEE       04AD4 25922                       SCANCHK ,
 004368 1200/4770 709A             25927                       IF    (R0,Z),BEGIN
 00436E 4110 77F8/4100_      04AD8 25941  1                      ABORT 'Missing "name" for SET LINE command.'
 00437A                            25948                       END
 00437A 58E0 781C/0DEE       04AFC 25952                       VCALL DEQUOTE
 004380 D213 80AA C4D8 00082 004D8 25956                       MVC   SIBNAME,CVBLANKS
 004386 18F0                       25957                       LR    R15,R0
 004388 59F0 7820/47D0_      04B00 25958                       CEIL  R15,L'SIBNAME
 004394 06F0/12FF/4740_            25977                       MOVE  R15,SIBNAME,@R1
 0043A0 1200/4770 70CC_            26015                       IF    (R0,Z),'MVC SIBNAME,CPNAME'
 0043AC D513 80AA C4D8_00082 004D8 26035                       IF    (SIBNAME,EQ,CVBLANKS),'CLEAR SIBNAME'
 0043BC 58E0 7824/0DEE       04B04 26065                       VCALL NOOPTS              Dont allow trailing junk
                                   26069
 0043C2 41F0 0001/4AF0_      00001 26070                       INCR  R15,SIBUC           Kick update count
 0043CE 4110 80A8/4100_      00080 26076                       TSEG  SIBOPT
 0043E0 4100 0002/58E0_      00002 26104                       TCNTL CTLSETI             Set SIB options
 0043EA 4740 C7F6            007F6 26116                       BM    CVMILERR
 0043EE 47D0 7124            04404 26117                       IF    POS,BEGIN
 0043F2 D2FD 8028 1000 00000 00000 26128  1                      MVC   SIB,@R1             New copy
 0043F8 4650 7018            042F8 26129  1                      BCT   R5,SETNLP           Retry
 0043FC 41F0 0064            00064 26130  1                      LA    R15,100             Can't update.. rc=100
 004400 47F0 C7F6            007F6 26131  1                      B     CVMILERR
 004404                            26132                       END
 004404 D2FD B344 8028 00344 00000 26136                       MVC   CPS,SIB             Update our copy
 00440A 47F0 C7DE            007DE 26137                       B     CVNEXT
 00440E 18D8/9808 D004_            26138                       PEND
 DROP   SIB-(4+36),R8
 DROP   *,R7
                                   26163
                                   26164              .NOLINE  ANOP  ,                   *** PCODE
1TOPS     (TOPS2025) (12:57) (15MAR04) SET/SHOW TABS Commands                                                               Page   70
0Current Usings:  (CP,R11) (CV,R12)
0Loc    Object Code    Addr1 Addr2  Stmt Lv Lineno    Source Statement           (Hibal 5, Asmedit 3.3)  HLASM R4.0  2004/03/15 12.57
+___    ______ ____    _____ _____  ____ __ ______    ______ _________
0000000                00000 00032 26166              TABWA    RECORD BEGIN
 000000 00                         26174  1           TABFLAG    FLAG
 TABFLAG.TABFAUTO  80 ONES         26178  1                      FLAG  TABFAUTO            - auto
 TABFLAG.TABFTRNC  40 ONES         26183  1                      FLAG  TABFTRNC            - only first 16 tabs used
                                   26188  1
 000002                            26189  1           TABSTOPS   DS    16H                 Room for tabs
                                   26190  1
 000022                            26191  1           TABS       DS    XL16                Tab set area
 000032                00032 00032 26192                       END
-                                  26202              ¿þþþþþþþþþþþþþþþþþþþþþþþþþþþþþþþþþþþþþþþþþþþþþþþþþþþþþþþþþþþþþþþþþþþþþÜ
                                   26203              Ÿ                                                                     Ÿ
                                   26204              Ÿ  SETTABS -- SET TABS command.                                       Ÿ
                                   26205              Ÿ                                                                     Ÿ
                                                      ¾þþþþþþþþþþþþþþþþþþþþþþþþþþþþþþþþþþþþþþþþþþþþþþþþþþþþþþþþþþþþþþþþþþþþþ»
000441C 50E0 D000/9008_      00000 26206              SETTABS  XPROC TABWA
 USING  *,R7
 USING  TABWA-(4+36),R8
 004436 D731 8028 8028 00000 00000 26257                       CLEAR TABWA
                                   26264
 00443C 9180 BAC8/4710_00AC8       26265                       IF    ~CPVFPAGE,'SET CPFVER'  Default is VERIFY
 004448 1B66                       26291                       CLEAR R6                  TABSTOPS offset
 00444A 4850 7756            04B8C 26295                       LH    R5,=H'-11'          Prev tab
 00444E 4140 8028            00000 26296                       LA    R4,TABWA            TABWA addressability
 004452 5810 B08C/1B00_      0008C 26297                       SCAN  SETTBPRT
 0044A4 58E0 769E/0DEE       04AD4 26329                       SCANCHK
 0044AA 1266/4770 712A             26334                       IF    (R6,Z),BEGIN        No tabs given...
 0044B0 9500 B406/4780_00406       26348  1                      IF    ((CPSTABS,NE,X'00'),AND,TABFAUTO),SETTBC
 0044C0 4110 7766/4100_      04B9C 26382  1                      TSEG  'Type a T beneath each position at which',,B
 0044D2 4110 778D/4100_      04BC3 26400  1                      TSEG  'a tab is to be set.',,WR
 0044E4 1B00/1B11                  26418  1                      CLEAR R0,R1               Show columns -- use defaults
 0044E8 58E0 76E6/0DEE       04B1C 26424  1                      VCALL DOSHCOLS
 0044EE 4110 77A0/4100_      04BD6 26428  1                      SETMSG '     Tabs? '
 0044F6 9180 BD54/47E0_00D54       26432  1                      IF    CPLFLG5.CPFUNUM,'CLEAR R0'  (No prompt)
 004500 9630 BD57      00D57       26457  1                      SET   CPFCASE+CPFUPPER
 004504 1BFF/58E0 76EA_            26466  1                      TREAD  (R1),(R0)
 00450C 4770 C7DA            007DA 26486  1                      BNZ   CVABORT
 004510 4150 0001            00001 26487  1                      LA    R5,1                Column
 004514 1200/47D0 712A             26488  1                      WHILE (R0,POS),BEGIN
 00451A 95E3 1000/4780_00000       26504  2                        IF    ((@R1,EQ,'T'),OR,(@R1,EQ,'t'),OR,(@R1,EQ,'1')),BEGIN
 004532 5960 76EE/4750_      04B24 26548  3                          IF    (R6,GE,16*2),'SET TABFTRNC'  Too many settings
 00453E 710C/47F0 7114_0453E 04538 26576  3                          ELSE  'STH R5,TABSTOPS(R6); LA R6,@R6+2'
 00454A                            26594  2                        END
 00454A 9527 1000/4780_00000       26598  2                        IF    (@R1,NE,X'27'),'LA R5,@R5+1'
 004556 4110 1001            00001 26620  2                        LA    R1,@R1+1
 00455A 0600                       26621  2                        DECR  R0
 00455C 47F0 70DE            04514 26623  1                      END
 004560                            26628                       END
                                   26632
 004560 4140 000B            0000B 26633                       LA    R4,11               Offset for numbered
 004564 9180 BD54/47E0_00D54       26634                       IF    CPLFLG5.CPFUNUM,'CLEAR R4'
 00456E 1B55                       26659                       CLEAR R5
1TOPS     (TOPS2025) (12:57) (15MAR04) SET/SHOW TABS Commands                                                               Page   71
0Current Usings:  (*,R7) (TABWA-(4+36),R8) (CP,R11) (CV,R12)
0Loc    Object Code    Addr1 Addr2  Stmt Lv Lineno    Source Statement           (Hibal 5, Asmedit 3.3)  HLASM R4.0  2004/03/15 12.57
+___    ______ ____    _____ _____  ____ __ ______    ______ _________
0004570 8860 0001            00001 26663                       SRL   R6,1                No. of tabs
 004574 1956/47B0 7178             26664                       WHILE (R5,LT,R6),BEGIN
 00457A 41F5 802A            00002 26681  1                      LA    R15,TABSTOPS(R5)
 00457E 48F5 F000            00000 26682  1                      LH    R15,@R15(R5)        Get tab
 004582 1AF4                       26683  1                      AR    R15,R4              Adjust, if necessary
 004584 59F0 76F2/47D0_      04B28 26684  1                      CEIL  R15,256             Safety
 004590 12FF/47B0 716C             26703  1                      IF    (R15,NEG),BEGIN
 004596 4110 77AB/4100_      04BE1 26717  2                        ERROR 'Tabs must be positive.  Tabs not set.'
 0045A2                            26724  1                      END
 0045A2 42F5 804A            00022 26728  1                      STC   R15,TABS(R5)        Save tab
 0045A6 4150 5001            00001 26729  1                      LA    R5,@R5+1
 0045AA 47F0 713E            04574 26730                       END
                                   26735
 0045AE                            26736                       LOOP  BEGIN
 0045AE D20F B406 804A 00406 00022 26742  1                      MVC   CPSTABS,TABS
 0045B4 58E0 76F6/0DEE       04B2C 26743  1                      VCALL UPDCPSIB            Set tabs
 0045BA 4770 7178            045AE 26747                       UNTIL Z,END
                                   26766
 0045BE 58E0 76FA/0DEE       04B30 26767                       VCALL PAGETABS            Set new page tabs
                                   26771
 0045C4 9500 B406/4770_00406       26772              SETTBC   IF    (CPSTABS,EQ,X'00'),'SETMSG "No tabs set."; B CVNXTMSG'
 0045D8 9140 8028/47E0_00000       26800                       IF    TABFTRNC,'TSEG "Only the first 16 were tabs used.",,WR'
                                   26838
 0045F2 9180 8028/47E0_00000       26839                       IF    TABFAUTO,BEGIN      Auto...
                                   26854  1           *  this generally works...
 0045FA 4110 77F1/4100_      04C27 26855  1                      TSEG  X'27F227F327F4271627D90D'  Clear tabs
 00460C 4150 B406            00406 26873  1                      LA    R5,CPSTABS          Start of tabs
 004610 4140 0010            00010 26874  1                      LA    R4,16               Max no of tabs
 004614 4130 0001            00001 26875  1                      LA    R3,1                Column
 004618 1244/47D0 722C_            26876  1                      WHILE ((R4,POS),AND,(@R5,NE,X'00')),BEGIN
 004626 1F22/4320 5000             26907  2                        LC    R2,@R5              Get tab
 00462C 1802                       26914  2                        LR    R0,R2
 00462E 1B03                       26915  2                        SR    R0,R3               No. of chars to this tab
 004630 4740 721E            04654 26916  2                        IF   ~NEG,BEGIN           Double check ascending order
 004634 4110 C4D8/41F0_      004D8 26927  3                          TSEG  CVBLANKS,(R0)
 004642 4110 77FC/4100_      04C32 26954  3                          TSEG  X'27F1A3'           Set tab & display T
 004654                            26972  2                        END
 004654 4130 2001            00001 26976  2                        LA    R3,@R2+1            Current column
 004658 4150 5001            00001 26977  2                        LA    R5,@R5+1            Next tab
 00465C 0640                       26978  2                        DECR  R4
 00465E 47F0 71E2            04618 26980  1                      END
 004662 9620 BC7B      00C7B       26985  1                      SET   CPFSLOW             don't use tabs for this line
 004666 47F0 C7DE            007DE 26991  1                      B     CVNEXT
 00466A                            26992                       END
                                   26996
 00466A 9120 BD58/47E0_00D58       26997                       IF    CPFVER,'ACALL DOSHTABS'  go display tabs
 004678 47F0 C7DE            007DE 27021                       B     CVNEXT
 00467C 18D8/9808 D004_            27022                       PEND
 DROP   TABWA-(4+36),R8
 DROP   *,R7
1TOPS     (TOPS2025) (12:57) (15MAR04) SET/SHOW TABS Commands                                                               Page   72
0Current Usings:  (CP,R11) (CV,R12)
0Loc    Object Code    Addr1 Addr2  Stmt Lv Lineno    Source Statement           (Hibal 5, Asmedit 3.3)  HLASM R4.0  2004/03/15 12.57
+___    ______ ____    _____ _____  ____ __ ______    ______ _________
0                                  27048              *
 USING  TABWA,R4                   27049                       USING  TABWA,R4
                                   27058              *
                                   27059              *
                                   27060              *
 00468C 4040404040404040_          27061              SETTBPRT SCKW  ,SETTBP,I,&LINESZ
 0046B4 6040404040404040_          27076                       SCKW  -,SETTBN,(P,I),&LINESZ
 0046DC C1E4E3D640404040_          27091                       SCKW  AUTO,SETTBA,A
 004704 4040404040404040_          27106                       SCKW  ,V(VERPSH),PUSH
 00472C 4040404040404040_          27121                       SCKW  ,V(NUMPSH),PUSH
 004754 4040404040404040_          27136                       SCKW  ,V(NOTVALID)
                                   27151
 00477C 50E0 D000/9008_      00000 27152              SETTBN   PROC
 USING  *,R7
 004796 1300                       27191                       LCR   R0,R0
 004798 58E0 73AE/0DEE       04B44 27192                       ACALL SETTBP
 00479E 1BFF                       27196                       CLEAR R15
 0047A0 18D8/9808 D004_            27200                       PEND
 DROP   *,R7
                                   27220
 0047AE 50E0 D000/9008_      00000 27221              SETTBP   PROC
 USING  *,R7
 0047C8 5960 735C/4750_      04B24 27260                       IF    (R6,GE,16*2),'SET TABFTRNC; EXIT SETTBP'
 0047D8 1905/4730 7022             27291                       IF    (R0,LE,R5),BEGIN
 0047DE 4110 7380/4100_      04B48 27306  1                      ERROR 'Tabs must be given in ascending order.  No tabs set.'
 0047EA                            27313                       END
 0047EA 4006 4002            00002 27317                       STH   R0,TABSTOPS(R6)    Save tab
 0047EE 1850                       27318                       LR    R5,R0
 0047F0 4160 6002            00002 27319                       LA    R6,@R6+2
 0047F4 9056 8018            00018 27320                       PRETURN (R5,R6)
 0047F8 1BFF                       27322                       CLEAR R15
 0047FA 18D8/9808 D004_            27326                       PEND
 DROP   *,R7
                                   27346
 004808 50E0 D000/9008_      00000 27347              SETTBA   PROC
 USING  *,R7
 004822 9680 4000      00000       27386                       SET   TABFAUTO
 004826 18D8/9808 D004_            27392                       PEND
 DROP   *,R7
                                   27412
 DROP   TABWA,R4                   27413                       DROP  TABWA
1TOPS     (TOPS2025) (12:57) (15MAR04) SET/SHOW TABS Commands                                                               Page   73
0Current Usings:  (CP,R11) (CV,R12)
0Loc    Object Code    Addr1 Addr2  Stmt Lv Lineno    Source Statement           (Hibal 5, Asmedit 3.3)  HLASM R4.0  2004/03/15 12.57
+___    ______ ____    _____ _____  ____ __ ______    ______ _________
0                                  27422              ¿þþþþþþþþþþþþþþþþþþþþþþþþþþþþþþþþþþþþþþþþþþþþþþþþþþþþþþþþþþþþþþþþþþþþþÜ
                                   27423              Ÿ                                                                     Ÿ
                                   27424              Ÿ  SHOWTABS -- SHOW TABS command.                                     Ÿ
                                   27425              Ÿ                                                                     Ÿ
                                                      ¾þþþþþþþþþþþþþþþþþþþþþþþþþþþþþþþþþþþþþþþþþþþþþþþþþþþþþþþþþþþþþþþþþþþþþ»
0004834 50E0 D000/9008_      00000 27426              SHOWTABS XPROC  ,
 USING  *,R7
 00484E 5810 B08C/1B00_      0008C 27466                       SCAN  SHTABPRT
 0048A0 58E0 7286/0DEE       04AD4 27498                       SCANCHK ,
 0048A6 58E0 72F2/0DEE       04B40 27503                       ACALL DOSHTABS
 0048AC 47F0 C7DE            007DE 27507                       B     CVNEXT
 0048B0 18D8/9808 D004_            27508                       PEND
 DROP   *,R7
                                   27528
 0048C0 4040404040404040_          27529              SHTABPRT SCKW  ,V(VERPSH),PUSH
 0048E8 4040404040404040_          27544                       SCKW  ,V(NUMPSH),PUSH
 004910 4040404040404040_          27559                       SCKW  ,V(COLLPSH),PUSH
 004938 4040404040404040_          27574                       SCKW  ,V(NOTVALID)
                                   27589              *
-                                  27591              ¿þþþþþþþþþþþþþþþþþþþþþþþþþþþþþþþþþþþþþþþþþþþþþþþþþþþþþþþþþþþþþþþþþþþþþÜ
                                   27592              Ÿ                                                                     Ÿ
                                   27593              Ÿ  DOSHTABS -- Routine to display tabs.  Called by set and show       Ÿ
                                   27594              Ÿ    tabs commands.                                                   Ÿ
                                   27595              Ÿ                                                                     Ÿ
                                                      ¾þþþþþþþþþþþþþþþþþþþþþþþþþþþþþþþþþþþþþþþþþþþþþþþþþþþþþþþþþþþþþþþþþþþþþ»
0004960 50E0 D000/9008_      00000 27596              DOSHTABS PROC
 USING  *,R7
 00497A 9500 B406/4770_00406       27635                       IF    (CPSTABS,EQ,X'00'),'TSEG "No tabs set.",,WR; B DOSHTX'
 004998 4160 000B            0000B 27676                       LA    R6,11               Spaces for numbered
 00499C 9110 BD54/4710_00D54       27677                       IF    (~CPLFLG5.CPFFOPT,AND,(CPSTABS,LT,X'0C')),'CLEAR R6'
 0049AE 9180 BD54/47E0_00D54       27718                       IF    CPLFLG5.CPFUNUM,'CLEAR R6'
 0049B8 9120 BD58/4710_00D58       27743                       IF    ~CPFVER,BEGIN
 0049C0 4150 B406            00406 27758  1                      LA    R5,CPSTABS          Start of tabs
 0049C4 4140 0010            00010 27759  1                      LA    R4,16               Max no of tabs
 0049C8 1244/47D0 7084_            27760  1                      WHILE ((R4,POS),AND,(@R5,NE,X'00')),BEGIN
 0049D6 1FFF/43F0 5000             27791  2                        LC    R15,@R5
 0049DC 1BF6                       27798  2                        SR    R15,R6              Adjust, if necessary
 0049DE 1B00/4110 BC88_            27799  2                        BTD   CPDOUB,0,(R15)
 0049EA 41F0 B050/58E0_      00050 27818  2                        TSEG  (R1),(R0),B
 0049F4 4150 5001            00001 27842  2                        LA    R5,@R5+1
 0049F8 0640                       27843  2                        DECR  R4
 0049FA 47F0 704E            049C8 27845  1                      END
 0049FE 4110 7214/4100_      04B8E 27850  1                      SETMSG '- Tabs'
 004A06 1266/4770 709A_            27854  1                      IF    (R6,Z),'SETMSG "- Unnumbered tabs"'
 004A14 41F0 B050/58E0_      00050 27877  1                      TSEG  (R1),(R0),WR
 004A1E 47F0 7128            04AA2 27901  1                      B     DOSHTX
 004A22                            27902                       END
                                   27906
 004A22 183D/41D0 D0EC             27907                       XPUSH ,,&LINESZ,PTR=R3
 004A28 D2EA 3000 C4D8 00000 004D8 27910                       MVC   @R3(&LINESZ),CVBLANKS
1TOPS     (TOPS2025) (12:57) (15MAR04) SET/SHOW TABS Commands                                                               Page   74
0Current Usings:  (*,R7) (CP,R11) (CV,R12)
0Loc    Object Code    Addr1 Addr2  Stmt Lv Lineno    Source Statement           (Hibal 5, Asmedit 3.3)  HLASM R4.0  2004/03/15 12.57
+___    ______ ____    _____ _____  ____ __ ______    ______ _________
0004A2E 1266/4780 70C0_            27911                       IF    (R6,NZ),'MVC @R3(6),=C"Verify"'
 004A3A 4150 B406            00406 27931                       LA    R5,CPSTABS          Start of tabs
 004A3E 4140 0010            00010 27932                       LA    R4,16               Max no of tabs
 004A42 0630                       27933                       DECR  R3                  Point to buffer-1
 004A44 1244/47D0 70FC_            27935                       WHILE ((R4,POS),AND,(@R5,NE,X'00')),BEGIN
 004A52 1FFF/43F0 5000             27966  1                      LC    R15,@R5
 004A58 59F0 720A/47D0_      04B84 27973  1                      CEIL  R15,&LINESZ-1       Better safe than sorry
 004A64 41F3 F000            00000 27992  1                      LA    R15,@R15(R3)
 004A68 92A3 F000      00000       27993  1                      MVI   @R15,C't'           Tab stop here
 004A6C 4150 5001            00001 27994  1                      LA    R5,@R5+1
 004A70 0640                       27995  1                      DECR  R4
 004A72 47F0 70CA            04A44 27997                       END
 004A76 9620 BC7B      00C7B       28002                       SET   CPFSLOW             Slowlist
 004A7A 4110 3001/4100_      00001 28008                       TSEG  @R3+1,&LINESZ,WR
                                   28038
 004A8C 4B40 7220            04B9A 28039                       SH    R4,=H'16'
 004A90 1304                       28040                       LCR   R0,R4               No. of tabs set
 004A92 1A00                       28041                       AR    R0,R0               Two chars for every tab
 004A94 4110 7136/41F0_      04AB0 28042                       TSEG  TABSDISP,(R0),WR
 004AA2 18D8/9808 D004_            28069              DOSHTX   PEND
 DROP   *,R7
                                   28090
 004AB0 05A305A305A305A3           28091              TABSDISP DC    16X'05A3'           Tab, "t"
                                   28092
                                   28093                       QLTORG
                                   28143
1TOPS     (TOPS2025) (12:57) (15MAR04) SHOW IDLES Command                                                                   Page   75
0Current Usings:  (CP,R11) (CV,R12)
0Loc    Object Code    Addr1 Addr2  Stmt Lv Lineno    Source Statement           (Hibal 5, Asmedit 3.3)  HLASM R4.0  2004/03/15 12.57
+___    ______ ____    _____ _____  ____ __ ______    ______ _________
0                                  28145              ¿þþþþþþþþþþþþþþþþþþþþþþþþþþþþþþþþþþþþþþþþþþþþþþþþþþþþþþþþþþþþþþþþþþþþþÜ
                                   28146              Ÿ                                                                     Ÿ
                                   28147              Ÿ  SHOWIDLE -- SHOW IDLES command.                                    Ÿ
                                   28148              Ÿ                                                                     Ÿ
                                                      ¾þþþþþþþþþþþþþþþþþþþþþþþþþþþþþþþþþþþþþþþþþþþþþþþþþþþþþþþþþþþþþþþþþþþþþ»
0004C4C 50E0 D000/9008_      00000 28149              SHOWIDLE XPROC  ,
 USING  *,R7
 004C66 58E0 79A2/0DEE       05608 28189                       VCALL COLLOPTS
                                   28193
 004C6C 4110 B344            00344 28194                       LA    R1,CPSIB
 004C70 58E0 79A6/0DEE       0560C 28195                       ACALL IDLEDISP
 004C76 47F0 C7DE            007DE 28199                       B     CVNEXT
 004C7A 18D8/9808 D004_            28200                       PEND
 DROP   *,R7
                                   28220
-004C88 50E0 D000/9008_      00000 28222              IDLEDISP PROC
 USING  *,R7
 004CA2 1861                       28261                       LR    R6,R1
 USING  SIB,R6                     28262                       USING SIB,R6
                                   28271
 004CA4 4110 7A32/4100_      056D4 28272                       TSEG  'IDLES: CRI='
 004CB6 48F0 B434/1B00_      00434 28290                       BTD   CPDOUB,0,LH:CPSCRI
 004CC6 41F0 B050/58E0_      00050 28309                       TSEG  (R1),(R0)
 004CD0 4110 7A3D/4100_      056DF 28333                       TSEG  ','
 004CE2 48F0 B436/1B00_      00436 28351                       BTD   CPDOUB,0,LH:CPSCRI+2
 004CF2 41F0 B050/58E0_      00050 28370                       TSEG  (R1),(R0),B
 004CFC 4110 797A/4100_      0561C 28394                       TSEG  'LFI='
 004D0E 48F0 B438/1B00_      00438 28412                       BTD   CPDOUB,0,LH:CPSLFI
 004D1E 41F0 B050/58E0_      00050 28431                       TSEG  (R1),(R0),B
 004D28 4110 797E/4100_      05620 28455                       TSEG  'HTI='
 004D3A 48F0 B43A/1B00_      0043A 28473                       BTD   CPDOUB,0,LH:CPSHTI
 004D4A 41F0 B050/58E0_      00050 28492                       TSEG  (R1),(R0)
 004D54 4110 7A3D/4100_      056DF 28516                       TSEG  ','
 004D66 4810 B43C/1B00_      0043C 28534                       TNUM  LH:CPSHTI+2
 004D76 1B00/41F0 B050_            28555                       TCR
 004D82 4770 C7DA            007DA 28580                       BNZ   CVABORT
 004D86 18D8/9808 D004_            28581                       PEND
 DROP   *,R7
 DROP   SIB,R6                     28601                       DROP  SIB
                                   28609                       AIF   (&$PCODE).NOMIL     *** PCODE
1TOPS     (TOPS2025) (12:57) (15MAR04) SHOW MVERSION Command                                                                Page   76
0Current Usings:  (CP,R11) (CV,R12)
0Loc    Object Code    Addr1 Addr2  Stmt Lv Lineno    Source Statement           (Hibal 5, Asmedit 3.3)  HLASM R4.0  2004/03/15 12.57
+___    ______ ____    _____ _____  ____ __ ______    ______ _________
0                                  28611              ¿þþþþþþþþþþþþþþþþþþþþþþþþþþþþþþþþþþþþþþþþþþþþþþþþþþþþþþþþþþþþþþþþþþþþþÜ
                                   28612              Ÿ                                                                     Ÿ
                                   28613              Ÿ  SHOWMVER -- SHOW MVERSION command.                                 Ÿ
                                   28614              Ÿ                                                                     Ÿ
                                                      ¾þþþþþþþþþþþþþþþþþþþþþþþþþþþþþþþþþþþþþþþþþþþþþþþþþþþþþþþþþþþþþþþþþþþþþ»
0004D94 50E0 D000/9008_      00000 28615              SHOWMVER XPROC  ,
 USING  *,R7
 004DAE 58E0 785A/0DEE       05608 28655                       VCALL COLLOPTS
                                   28659
 004DB4 4100 0008/58E0_      00008 28660                       TCNTL CTLSNSM             Get milten info
 004DBE 4770 C7F6            007F6 28672                       BNZ   CVMILERR
 004DC2 186D/41D0 D0FC             28673                       XPUSH ,,L'MIB,PTR=R6
 USING  MIB,R6                     28676                       USING MIB,R6
 004DC8 D7FB 6000 6000 00000 00000 28685                       CLEAR MIB
 004DCE 5900 7882/47D0_      05630 28692                       CEIL  R0,L'MIB
 004DDA 18F0                       28711                       LR    R15,R0
 004DDC 06F0/12FF/4740_            28712                       MOVE  R15,MIB,@R1
                                   28750
 004DE8 4110 6010/4100_      00010 28751                       SETMSG MIBVERS
 004DF0 58E0 7886/0DEE       05634 28765                       VCALL LRTRIM
 004DF6 D64F 6010 6010_00010 00010 28769                      IF ((MIBVERS,Z),OR,(MIBVERS,EQ,CVBLANKS)),'SETMSG "NO VERSION"'
 004E12 47F0 C7D0            007D0 28811                       B     CVNXTMSG
 004E16 18D8/9808 D004_            28812                       PEND
 DROP   *,R7
                                   28832
 DROP   MIB,R6                     28833                       DROP  MIB
1TOPS     (TOPS2025) (12:57) (15MAR04) SHOW MINFO Command                                                                   Page   77
0Current Usings:  (CP,R11) (CV,R12)
0Loc    Object Code    Addr1 Addr2  Stmt Lv Lineno    Source Statement           (Hibal 5, Asmedit 3.3)  HLASM R4.0  2004/03/15 12.57
+___    ______ ____    _____ _____  ____ __ ______    ______ _________
0                                  28842              ¿þþþþþþþþþþþþþþþþþþþþþþþþþþþþþþþþþþþþþþþþþþþþþþþþþþþþþþþþþþþþþþþþþþþþþÜ
                                   28843              Ÿ                                                                     Ÿ
                                   28844              Ÿ  SHOWMINF -- SHOW MINFO command.                                    Ÿ
                                   28845              Ÿ  MINFDISP -- Subroutine (called by SHOW INFO).                      Ÿ
                                   28846              Ÿ                                                                     Ÿ
                                                      ¾þþþþþþþþþþþþþþþþþþþþþþþþþþþþþþþþþþþþþþþþþþþþþþþþþþþþþþþþþþþþþþþþþþþþþ»
0004E24 50E0 D000/9008_      00000 28847              SHOWMINF XPROC  ,
 USING  *,R7
 004E3E 58E0 77CA/0DEE       05608 28887                       VCALL COLLOPTS
                                   28891
 004E44 58E0 77FA/0DEE       05638 28892                       ACALL MINFDISP
 004E4A 47F0 C7DE            007DE 28896                       B     CVNEXT
 004E4E 18D8/9808 D004_            28897                       PEND
 DROP   *,R7
-004E5C 50E0 D000/9008_      00000 28918              MINFDISP XPROC  ,
 USING  *,R7
 004E76 1B00/41F0 B050_            28958                       TWRITE
                                   28983
 004E82 4100 0008/58E0_      00008 28984                       TCNTL CTLSNSM             Get milten info
 004E8C 4770 C7F6            007F6 28996                       BNZ   CVMILERR
 004E90 186D/41D0 D0FC             28997                       XPUSH ,,L'MIB,PTR=R6
 USING  MIB,R6                     29000                       USING MIB,R6
 004E96 D7FB 6000 6000 00000 00000 29009                       CLEAR MIB
 004E9C 5900 77BA/47D0_      05630 29016                       CEIL  R0,L'MIB
 004EA8 18F0                       29035                       LR    R15,R0
 004EAA 06F0/12FF/4740_            29036                       MOVE  R15,MIB,@R1         Save copy of mib
                                   29074
 004EB6 4110 6000/4100_      00000 29075                       SETMSG MIBNAME
 004EBE 58E0 77BE/0DEE       05634 29089                       VCALL LRTRIM
 004EC4 41F0 B050/58E0_      00050 29093                       TSEG  (R1),(R0)
 004ECE D607 6008 6008_00008 00008 29117                       IF    ((MIBJOBNM,NZ),AND,(MIBJOBNM,NE,MIBNAME)),BEGIN
 004EE2 4110 786A/4100_      056E0 29150  1                      TSEG  ' (job',,B
 004EF4 4110 6008/4100_      00008 29168  1                      SETMSG MIBJOBNM
 004EFC 58E0 77BE/0DEE       05634 29182  1                      VCALL LRTRIM
 004F02 41F0 B050/58E0_      00050 29186  1                      TSEG  (R1),(R0)
 004F0C 4110 786F/4100_      056E5 29210  1                      TSEG  ')'
 004F1E                            29228                       END
 004F1E 4110 7870/4100_      056E6 29232                       TSEG  ':',,CR
 004F30 1B00/41F0 B050_            29250                       TCR
                                   29275
 004F3C 4110 7810/4100_      05686 29276                       TSEG  'Started at',,B
 004F4E 58E0 77CA/0DEE       05640 29294                       VCALL LOCALTOD
 004F54 1820                       29298                       LR    R2,R0
 004F56 5800 6060            00060 29299                       L     R0,MIBCLCK
 004F5A 1B11/1B33                  29300                       CLEAR R1,R3
 004F5E 18FD/41D0 D020             29306                       XPUSH ,,30,PTR=R15
 004F64 58E0 77CE/0DEE       05644 29309                       VCALL FMTRCLCK
 004F6A 41F0 B050/58E0_      00050 29313                       TSEG  (R1),(R0)
 004F74 4BD0 781A            05690 29337                       XPOP  ,,30
 004F78 1B00/41F0 B050_            29339                       TCR
                                   29364
1TOPS     (TOPS2025) (12:57) (15MAR04) SHOW MINFO Command                                                                   Page   78
0Current Usings:  (MIB,R6) (*,R7) (CP,R11) (CV,R12)
0Loc    Object Code    Addr1 Addr2  Stmt Lv Lineno    Source Statement           (Hibal 5, Asmedit 3.3)  HLASM R4.0  2004/03/15 12.57
+___    ______ ____    _____ _____  ____ __ ______    ______ _________
0004F84 4110 6000            00000 29365                       LA    R1,MIB
 004F88 58E0 77D2/0DEE       05648 29366                       ACALL CNTDISP
                                   29370
 004F8E 5810 6068/1B00_      00068 29371                       TNUM  L:MIBNIO
 004F9E 4110 7732/4100_      055A8 29393                       TSEG  ' I/O''s, '
 004FB0 5810 606C/1B00_      0006C 29411                       TNUM  L:MIBNAPP
 004FC0 4110 781C/4100_      05692 29433                       TSEG  ' appendage entries',,CR
                                   29451
 004FD2 1B00/41F0 B050_            29452                       TCR
 004FDE 4810 6088/1B00_      00088 29477                       TNUM  LH:MIBNFAIL
 004FEE 4110 782E/4100_      056A4 29498                       TSEG  ' failsoft recoveries, '
 005000 4810 608A/1B00_      0008A 29516                       TNUM  LH:MIBNAPPF
 005010 4110 77D6/4100_      0564C 29537                       TSEG  ' appendage failsofts',,CR
 005022 4770 C7DA            007DA 29555                       BNZ   CVABORT
 005026 D603 608C 608C_0008C 0008C 29556                       IF    (MIBFCLCK,NZ),BEGIN
 005030 4110 C4D8/4100_      004D8 29572  1                      TSEG  CVBLANKS,2
 005042 58E0 77CA/0DEE       05640 29602  1                      VCALL LOCALTOD
 005048 1820                       29606  1                      LR    R2,R0
 00504A 5800 608C            0008C 29607  1                      L     R0,MIBFCLCK
 00504E 1B11/1B33                  29608  1                      CLEAR R1,R3            Compare to current date
 005052 18FD/41D0 D020             29614  1                      XPUSH ,,30,PTR=R15
 005058 58E0 77CE/0DEE       05644 29617  1                      VCALL FMTRCLCK
 00505E 41F0 B050/58E0_      00050 29621  1                      TSEG  (R1),(R0),B
 005068 4BD0 781A            05690 29645  1                      XPOP  ,,30
 00506C 4110 6090/4100_      00090 29647  1                      SETMSG MIBFINFO
 005074 58E0 77BE/0DEE       05634 29661  1                      VCALL LRTRIM
 00507A 41F0 B050/58E0_      00050 29665  1                      TSEG  (R1),(R0),CR
 005084                            29689                       END
                                   29693
 005084 1B00/41F0 B050_            29694                       TCR
 005090 4110 7871/4100_      056E7 29719                       TSEG  'Halt I/O information:',,CR
 0050A2 4810 607C/4100_      0007C 29737                       TNUM  LH:MIBNHIOT,8
 0050B4 4110 7844/4100_      056BA 29761                       TSEG  ' halt I/O subtasks',,CR
 0050C6 4810 6080/4100_      00080 29779                       TNUM  LH:MIBHQCUR,8
 0050D8 4110 773A/4100_      055B0 29803                       TSEG  ' is the current halt queue depth',,CR
 0050EA 4810 6082/4100_      00082 29821                       TNUM  LH:MIBHQMAX,8
 0050FC 4110 775A/4100_      055D0 29845                       TSEG  ' is the maximum halt queue depth reached',,CR
 00510E 4110 C4D8/4100_      004D8 29863                       TSEG  CVBLANKS,5
 005120 4810 6084/4100_      00084 29893                       THEX  LH:MIBHQDEV,3
 005132 4110 7886/4100_      056FC 29917                       TSEG  ' is the last device halting (or halted)',,CR
                                   29935
 005144 1B00/41F0 B050_            29936                       TCR
 005150 48F0 607E/1B00_      0007E 29961                       BTD   CPDOUB,0,LH:MIBNFULQ
 005160 41F0 B050/58E0_      00050 29980                       TSEG  (R1),(R0),B
 00516A 4110 78AD/4100_      05723 30004                       TSEG  'subsystem full queues',,CR
                                   30022
 00517C 1B00/41F0 B050_            30023                       TCR
 005188 4110 7782/4100_      055F8 30048                       TSEG  'Memory: ',,B
 00519A 58F0 60D0/1B00_      000D0 30066                       BTD   CPDOUB,0,L:MIBNLOWM
 0051AA 41F0 B050/58E0_      00050 30086                       TSEG  (R1),(R0),B
 0051B4 4110 77EE/4100_      05664 30110                       TSEG  'low,',,B
 0051C6 58F0 60D4/1B00_      000D4 30128                       BTD   CPDOUB,0,L:MIBNNOM
 0051D6 41F0 B050/58E0_      00050 30148                       TSEG  (R1),(R0),B
 0051E0 4110 77F2/4100_      05668 30172                       TSEG  'none',,WR
1TOPS     (TOPS2025) (12:57) (15MAR04) SHOW MINFO Command                                                                   Page   79
0Current Usings:  (MIB,R6) (*,R7) (CP,R11) (CV,R12)
0Loc    Object Code    Addr1 Addr2  Stmt Lv Lineno    Source Statement           (Hibal 5, Asmedit 3.3)  HLASM R4.0  2004/03/15 12.57
+___    ______ ____    _____ _____  ____ __ ______    ______ _________
00051F2 4770 C7DA            007DA 30190                       BNZ   CVABORT
 0051F6 4110 C4D8/4100_      004D8 30191                       TSEG  CVBLANKS,1,CR
 005208 4110 78C2/4100_      05738 30221                       TSEG  'Buffers: '
 00521A 1BEE                       30239                       CLEAR R14
 00521C 58F0 60E8            000E8 30243                       L     R15,MIBPGCUR
 005220 41F0 F200            00200 30244                       LA    R15,@R15+512
 005224 5DE0 77F6            0566C 30245                       D     R14,=A(1024)
 005228 181F/4100 0004_            30246                       TNUM  (R15),4
 005238 4110 78CB/4100_      05741 30271                       TSEG  'K paged ('
 00524A 1BEE                       30289                       CLEAR R14
 00524C 58F0 60EC            000EC 30293                       L     R15,MIBPGMAX
 005250 41F0 F200            00200 30294                       LA    R15,@R15+512
 005254 5DE0 77F6            0566C 30295                       D     R14,=A(1024)
 005258 181F/4100 0004_            30296                       TNUM  (R15),4
 005268 4110 778A/4100_      05600 30321                       TSEG  'K max), '
 00527A 58F0 60E4/4100_      000E4 30339                       BTD   CPDOUB,7,L:MIBPGCNT
 00528C 41F0 B050/58E0_      00050 30362                       TSEG  (R1),(R0)
 005296 4110 78D4/4100_      0574A 30386                       TSEG  ' requests',,CR
                                   30404
 0052A8 4110 C4D8/4100_      004D8 30405                       TSEG  CVBLANKS,9
 0052BA 1BEE                       30435                       CLEAR R14
 0052BC 58F0 60DC            000DC 30439                       L     R15,MIBFXCUR
 0052C0 41F0 F200            00200 30440                       LA    R15,@R15+512
 0052C4 5DE0 77F6            0566C 30441                       D     R14,=A(1024)
 0052C8 181F/4100 0004_            30442                       TNUM  (R15),4
 0052D8 4110 78DD/4100_      05753 30467                       TSEG  'K fixed ('
 0052EA 1BEE                       30485                       CLEAR R14
 0052EC 58F0 60E0            000E0 30489                       L     R15,MIBFXMAX
 0052F0 41F0 F200            00200 30490                       LA    R15,@R15+512
 0052F4 5DE0 77F6            0566C 30491                       D     R14,=A(1024)
 0052F8 181F/4100 0004_            30492                       TNUM  (R15),4
 005308 4110 778A/4100_      05600 30517                       TSEG  'K max), '
 00531A 58F0 60D8/4100_      000D8 30535                       BTD   CPDOUB,7,L:MIBFXCNT
 00532C 41F0 B050/58E0_      00050 30558                       TSEG  (R1),(R0)
 005336 4110 78D4/4100_      0574A 30582                       TSEG  ' requests',,CR
                                   30600
 005348 4110 C4D8/4100_      004D8 30601                       TSEG  CVBLANKS,9
 00535A 1BEE                       30631                       CLEAR R14
 00535C 58F0 60F4            000F4 30635                       L     R15,MIBCSCUR
 005360 41F0 F200            00200 30636                       LA    R15,@R15+512
 005364 5DE0 77F6            0566C 30637                       D     R14,=A(1024)
 005368 181F/4100 0004_            30638                       TNUM  (R15),4
 005378 4110 78E6/4100_      0575C 30663                       TSEG  'K CSA   ('
 00538A 1BEE                       30681                       CLEAR R14
 00538C 58F0 60F8            000F8 30685                       L     R15,MIBCSMAX
 005390 41F0 F200            00200 30686                       LA    R15,@R15+512
 005394 5DE0 77F6            0566C 30687                       D     R14,=A(1024)
 005398 181F/4100 0004_            30688                       TNUM  (R15),4
 0053A8 4110 778A/4100_      05600 30713                       TSEG  'K max), '
 0053BA 58F0 60F0/4100_      000F0 30731                       BTD   CPDOUB,7,L:MIBCSCNT
 0053CC 41F0 B050/58E0_      00050 30754                       TSEG  (R1),(R0)
 0053D6 4110 78D4/4100_      0574A 30778                       TSEG  ' requests',,CR
                                   30796
 0053E8 18D8/9808 D004_            30797                       PEND
1TOPS     (TOPS2025) (12:57) (15MAR04) SHOW MINFO Command                                                                   Page   80
0Current Usings:  (MIB,R6) (CP,R11) (CV,R12)
0Loc    Object Code    Addr1 Addr2  Stmt Lv Lineno    Source Statement           (Hibal 5, Asmedit 3.3)  HLASM R4.0  2004/03/15 12.57
+___    ______ ____    _____ _____  ____ __ ______    ______ _________
0DROP   *,R7
 DROP   MIB,R6                     30817                       DROP  MIB
1TOPS     (TOPS2025) (12:57) (15MAR04) SHOW COUNT Command                                                                   Page   81
0Current Usings:  (CP,R11) (CV,R12)
0Loc    Object Code    Addr1 Addr2  Stmt Lv Lineno    Source Statement           (Hibal 5, Asmedit 3.3)  HLASM R4.0  2004/03/15 12.57
+___    ______ ____    _____ _____  ____ __ ______    ______ _________
0                                  30826              ¿þþþþþþþþþþþþþþþþþþþþþþþþþþþþþþþþþþþþþþþþþþþþþþþþþþþþþþþþþþþþþþþþþþþþþÜ
                                   30827              Ÿ                                                                     Ÿ
                                   30828              Ÿ  SHOWCNT -- SHOW COUNT command.                                     Ÿ
                                   30829              Ÿ  CNTDISP -- Subroutine (called by SHOW MINFO).                      Ÿ
                                   30830              Ÿ               On entry: R1 - MIB ptr                                Ÿ
                                   30831              Ÿ                                                                     Ÿ
                                                      ¾þþþþþþþþþþþþþþþþþþþþþþþþþþþþþþþþþþþþþþþþþþþþþþþþþþþþþþþþþþþþþþþþþþþþþ»
00053F6 50E0 D000/9008_      00000 30832              SHOWCNT  XPROC MIB
 USING  *,R7
 USING  MIB-(4+36),R8
 005410 D7FB 8028 8028 00000 00000 30883                       CLEAR MIB
 005416 58E0 71F8/0DEE       05608 30890                       VCALL COLLOPTS
 00541C 4100 0008/58E0_      00008 30894                       TCNTL CTLSNSM             Get milten info
 005426 4770 C7F6            007F6 30906                       BNZ   CVMILERR
 00542A 5900 7220/47D0_      05630 30907                       CEIL  R0,L'MIB
 005436 18F0                       30926                       LR    R15,R0
 005438 06F0/12FF/4740_            30927                       MOVE  R15,MIB,@R1         Move in copy of mib
 005444 4110 8028            00000 30965                       LA    R1,MIB
 005448 58E0 7238/0DEE       05648 30966                       ACALL CNTDISP
 00544E 47F0 C7DE            007DE 30970                       B     CVNEXT
 005452 18D8/9808 D004_            30971                       PEND
 DROP   MIB-(4+36),R8
 DROP   *,R7
                                   30996
-005460 50E0 D000/9008_      00000 30998              CNTDISP  PROC
 USING  *,R7
 00547A 1861                       31037                       LR    R6,R1
 USING  MIB,R6                     31038                       USING MIB,R6
                                   31047
 00547C 48F0 6074/1B00_      00074 31048                       BTD   CPDOUB,0,LH:MIBCRSES
 00548C 41F0 B050/58E0_      00050 31067                       TSEG  (R1),(R0),B
 005496 4110 72EB/4100_      05765 31091                       TSEG  'users logged on'
 0054A8 D501 6076 6074_00076 00074 31109                       IF    (MIBMXSES,GT,MIBCRSES),BEGIN
 0054B2 4110 7252/4100_      056CC 31127  1                      TSEG  ' ('
 0054C4 48F0 6076/1B00_      00076 31145  1                      BTD   CPDOUB,0,LH:MIBMXSES
 0054D4 41F0 B050/58E0_      00050 31164  1                      TSEG  (R1),(R0),B
 0054DE 4110 7254/4100_      056CE 31188  1                      TSEG  'max at',,B
 0054F0 58E0 71C6/0DEE       05640 31206  1                      VCALL LOCALTOD
 0054F6 1820                       31210  1                      LR    R2,R0
 0054F8 5800 6078            00078 31211  1                      L     R0,MIBCKSES
 0054FC 1B11/1B33                  31212  1                      CLEAR R1,R3            Compare to current date
 005500 18FD/41D0 D020             31218  1                      XPUSH ,,30,PTR=R15
 005506 58E0 71CA/0DEE       05644 31221  1                      VCALL FMTRCLCK
 00550C 41F0 B050/58E0_      00050 31225  1                      TSEG  (R1),(R0)
 005516 4BD0 7216            05690 31249  1                      XPOP  ,,30
 00551A 4110 726B/4100_      056E5 31251  1                      TSEG  ')'
 00552C                            31269                       END
                                   31273
 00552C 4110 7265/4100_      056DF 31274                       TSEG  ',',,B
 00553E 48F0 6086/1B00_      00086 31292                       BTD   CPDOUB,0,LH:MIBCRVIR
 00554E 41F0 B050/58E0_      00050 31311                       TSEG  (R1),(R0),B
1TOPS     (TOPS2025) (12:57) (15MAR04) SHOW COUNT Command                                                                   Page   82
0Current Usings:  (MIB,R6) (*,R7) (CP,R11) (CV,R12)
0Loc    Object Code    Addr1 Addr2  Stmt Lv Lineno    Source Statement           (Hibal 5, Asmedit 3.3)  HLASM R4.0  2004/03/15 12.57
+___    ______ ____    _____ _____  ____ __ ______    ______ _________
0005558 4110 71F6/4100_      05670 31335                       TSEG  'virtual jobs',,B
                                   31353
 00556A 9180 6064/47E0_00064       31354                       IF    MIBFSTOP,'TSEG " (stopping)"'
 005584 1B00/41F0 B050_            31392                       TCR
 005590 4770 C7DA            007DA 31417                       BNZ   CVABORT
 005594 18D8/9808 D004_            31418                       PEND
 DROP   *,R7
 DROP   MIB,R6                     31438                       DROP  MIB
                                   31446
                                   31447                       QLTORG
1TOPS     (TOPS2025) (12:57) (15MAR04) SHOW LINE/LINES Commands                                                             Page   83
0Current Usings:  (CP,R11) (CV,R12)
0Loc    Object Code    Addr1 Addr2  Stmt Lv Lineno    Source Statement           (Hibal 5, Asmedit 3.3)  HLASM R4.0  2004/03/15 12.57
+___    ______ ____    _____ _____  ____ __ ______    ______ _________
0                                  31511              ¿þþþþþþþþþþþþþþþþþþþþþþþþþþþþþþþþþþþþþþþþþþþþþþþþþþþþþþþþþþþþþþþþþþþþþÜ
                                   31512              Ÿ                                                                     Ÿ
                                   31513              Ÿ  SHOWLINE -- SHOW LINE/LINES command.                               Ÿ
                                   31514              Ÿ                                                                     Ÿ
                                                      ¾þþþþþþþþþþþþþþþþþþþþþþþþþþþþþþþþþþþþþþþþþþþþþþþþþþþþþþþþþþþþþþþþþþþþþ»
0000000                00000 0029A 31515              SHWLWA   RECORD BEGIN
 000000                            31523  1           SHWLRNG    DS    XL(L'RNGCB)
 00029A                0029A 0029A 31524                       END
                                   31533
 005792 50E0 D000/9008_      00000 31534              SHOWLINE XPROC SHWLWA
 USING  *,R7
 USING  SHWLWA-(4+36),R8
 0057AC D7FF 8028 8028_00000 00000 31585                       CLEAR SHWLRNG
 0057BE 58F0 B08C/41FF_      0008C 31594                       SCUPTOK R15
 0057C6 D502 7968 BD24_06114 00D24 31598                       IF    (CPCMNM,NE,'LIN'),BEGIN
 0057D0 41F0 796B            06117 31615  1                      LA    R15,=C'LINES'
 0057D4 95E5 BD24/4780_00D24       31616  1                      IF    (CPCMNM,NE,'V'),BEGIN
 0057DC 58E0 B08C/58FE_      0008C 31633  2                        SCBKUP
 005812 58E0 B08C/581E_      0008C 31689  2                        SCINFO
 005820                            31698  1                      END
 005820                            31702                       END
                                   31706
 005820 4100 0340            00340 31707                       LA    R0,RNGTSES*256+L'RNGFDOUR  Our line
 005824 D504 796B F000_06117 00000 31708                       IF    ((@R15,EQ,'LINES'),OR,(@R15,EQ,'LINS')),BEGIN
 005838 95E5 BD24/4780_00D24       31739  1                      IF    (CPCMNM,NE,'V'),'MVC CPCMNM,=C"LNS"'
 005846 4100 0380            00380 31762  1                      LA    R0,RNGTSES*256+L'RNGFDALL  All lines
 00584A                            31763                       END
 00584A 58E0 B08C/D203_      0008C 31767                       SETSCKWS GETRPRT
 005858 41F0 8028            00000 31780                       LA    R15,SHWLRNG
 00585C 58E0 78DC/0DEE       06088 31781                       ACALL GETTRNG
 005862 4780 C7DA            007DA 31785                       BZ    CVABORT
                                   31786
 005866 9630 F003/94F7_00003       31787                       WITH  (RNGCB,R15),'SET RNGFMULT+RNGFLIST; CLEAR RNGFVER'
 USING  RNGCB,R15
 DROP   RNGCB,R15
 00586E 1B00                       31826                       CLEAR R0                  No selection co-routine
 005870 4110 70E0            0588C 31830                       LA    R1,LINERTN          Range co-routine
 005874 58E0 78E0/0DEE       0608C 31831                       ACALL TRANGE
 00587A 47F0 C7DE            007DE 31835                       B     CVNEXT
 00587E 18D8/9808 D004_            31836                       PEND
 DROP   SHWLWA-(4+36),R8
 DROP   *,R7
                                   31861
1TOPS     (TOPS2025) (12:57) (15MAR04) SHOW LINE/LINES Commands                                                             Page   84
0Current Usings:  (CP,R11) (CV,R12)
0Loc    Object Code    Addr1 Addr2  Stmt Lv Lineno    Source Statement           (Hibal 5, Asmedit 3.3)  HLASM R4.0  2004/03/15 12.57
+___    ______ ____    _____ _____  ____ __ ______    ______ _________
0                                  31863              ¿þþþþþþþþþþþþþþþþþþþþþþþþþþþþþþþþþþþþþþþþþþþþþþþþþþþþþþþþþþþþþþþþþþþþþÜ
                                   31864              Ÿ                                                                     Ÿ
                                   31865              Ÿ  LINERTN -- SHOW LINE(S) range co-routine.                          Ÿ
                                   31866              Ÿ                                                                     Ÿ
                                   31867              Ÿ    On entry:                                                        Ÿ
                                   31868              Ÿ      R1 - SIB ptr                                                   Ÿ
                                   31869              Ÿ                                                                     Ÿ
                                                      ¾þþþþþþþþþþþþþþþþþþþþþþþþþþþþþþþþþþþþþþþþþþþþþþþþþþþþþþþþþþþþþþþþþþþþþ»
000588C 50E0 D000/9008_      00000 31870              LINERTN  PROC
 USING  *,R7
 0058A6 1861                       31909                       LR    R6,R1
 USING  SIB,R6                     31910                       USING SIB,R6
                                   31919
 0058A8 185F                       31920                       LR    R5,R15
 USING  RNGCB,R5                   31921                       WITH  (RNGCB,R5),BEGIN
 0058AA 9180 500D/4710_0000D       31935  1                      IF    ~RNGFSOME,BEGIN
 0058B2 D502 7876 BD24_0611C 00D24 31950  2                        IF    (CPCMNM,NE,'LNS'),EXIT
 0058BC 4110 7879/4100_      0611F 31970  2                        TSEG  'Line Account  User name            '
 0058CE 4110 789C/4100_      06142 31988  2                        SETMSG 'Program  Port'
 0058D6 41F0 B050/58E0_      00050 31992  2                        TSEG  (R1),(R0),WR
 0058E0 4770 C7DA            007DA 32016  2                        BNZ   CVABORT
 0058E4                            32017  1                      END
 DROP   RNGCB,R5                   32021                       END
                                   32029
 0058E4 D502 78A9 BD24_0614F 00D24 32030                       IF    (CPCMNM,EQ,'VLI'),BEGIN
 0058EE 4110 77F2/4100_      06098 32047  1                      TSEG  'Idle'
 005900 4810 6006/4100_      00006 32065  1                      TNUM  LH:SIBTMINC,5
 005912 4110 78AC/4100_      06152 32089  1                      TSEG  ' mins: '
 005924                            32107                       END
                                   32111
 005924 4110 6000            00000 32112                       LA    R1,SIB
 005928 58E0 77FA/0DEE       060A0 32113                       ACALL LINEDISP
                                   32117
 USING  RNGCB,R5                   32118                       WITH  (RNGCB,R5),BEGIN
 00592E 9104 500C/47E0_0000C       32132  1                      IF    RNGFSMF,BEGIN
 005936 4110 78B3/4100_      06159 32147  2                        TSEG  '<'
 005948 4110 604E/4100_      0004E 32165  2                        TSEG  SIBTETYP
 00595A 4110 78B4/4100_      0615A 32193  2                        TSEG  '>',,B
 00596C                            32211  1                      END
 DROP   RNGCB,R5                   32215                       END
                                   32223
 00596C D502 78A9 BD24_0614F 00D24 32224                       IF    (CPCMNM,EQ,'VLI'),BEGIN
 005976 4110 78B5/4100_      0615B 32241  1                      TSEG  '('
 005988 4110 6050/4100_      00050 32259  1                      TSEG  SIBSUB,,T
 00599A 4110 78B6/4100_      0615C 32287  1                      TSEG  ','
 0059AC 4110 6058/4100_      00058 32305  1                      TSEG  SIBVPGM,,T
 0059BE 4110 781A/4100_      060C0 32333  1                      TSEG  ') '
 0059D0                            32351                       END
                                   32355
 0059D0 9110 6077/47E0_00077       32356                       IF    SIBSFOP,'TSEG "(Oper) "'
                                   32394
 0059EA D601 604C 604C_0004C 0004C 32395                       IF    (SIBNMSG,NZ),BEGIN
 0059F4 4110 781C/4100_      060C2 32411  1                      TSEG  '(Msgs='
1TOPS     (TOPS2025) (12:57) (15MAR04) SHOW LINE/LINES Commands                                                             Page   85
0Current Usings:  (SIB,R6) (*,R7) (CP,R11) (CV,R12)
0Loc    Object Code    Addr1 Addr2  Stmt Lv Lineno    Source Statement           (Hibal 5, Asmedit 3.3)  HLASM R4.0  2004/03/15 12.57
+___    ______ ____    _____ _____  ____ __ ______    ______ _________
0005A06 4810 604C/1B00_      0004C 32429  1                      TNUM  LH:SIBNMSG
 005A16 4110 781A/4100_      060C0 32450  1                      TSEG  ') '
 005A28                            32468                       END
                                   32472
 005A28 9180 60AA/47E0_000AA       32473                       IF    SIBFNMSG,'TSEG "(Nomsg) "'
 005A42 71A0/47F0 71D4 05A42 05A2E 32511                       ELSE  BEGIN
 005A46 9140 60AA/47E0_000AA       32522  1                      IF    SIBFNCOM,'TSEG "(Nocomm) "'
 005A60 9120 60AA/47E0_000AA       32560  1                      IF    SIBFNBRK,'TSEG "(Nobreak) "'
 005A7A                            32598                       END
                                   32602
 005A7A 9180 60AB/47E0_000AB       32603                       IF    SIBFTRC,'TSEG "(Tracing) "'
                                   32641
 005A94 1B00                       32642                       CLEAR R0
 005A96 9140 60AB/47E0_000AB       32646                       IF    SIBFKEEP,'SETMSG "(Keep) "'
 005AA6 9102 604B/47E0_0004B       32670                       IF    SIBFKEPT,'SETMSG "(Kept) "'
 005AB6 1200/4780 7220_            32694                       IF    (R0,NZ),'TSEG (R1),(R0)'
                                   32737
 005AC6 9104 60AA/47E0_000AA       32738                       IF    SIBFDISP,BEGIN
 005ACE 4110 7836/4100_      060DC 32753  1                      SETMSG '(Viewing) '
 005AD6 D504 78D5 6050_0617B 00050 32757  1                      IF    (SIBSUB,EQ,'ORVYL'),'SETMSG "(Display) "'
 005AE8 D504 78DA 6050_06180 00050 32783  1                      IF    (SIBSUB,EQ,'VISTA'),'SETMSG "(TSO) "'
 005AFA 41F0 B050/58E0_      00050 32809  1                      TSEG  (R1),(R0)
 005B04                            32833                       END
                                   32837                       ¿þþþþþþþþþþþþþþþþþþþþþþþþþþþþþþþþþþþþþþþþþþþþþþþþþþþÜ
                                   32838                       Ÿ  Now display stuff that only WYLBUR knows about.  Ÿ
                                   32839                       ¾þþþþþþþþþþþþþþþþþþþþþþþþþþþþþþþþþþþþþþþþþþþþþþþþþþþ»
 005B04 4850 6004            00004 32840                       LH    R5,SIBNO            Session number
 005B08 4C50 7850            060F6 32841                       MH    R5,=AL2(L'JCB)
 005B0C 5A50 C1C0            001C0 32842                       A     R5,CVFJCB           This user's WYLBUR JCB
 USING  JCB,R5                     32843                       WITH  (JCB,R5),BEGIN
                                   32857  1
 005B10 9140 5065/47E0_00065       32858  1                      IF    JCBSFMIC,'TSEG "(Micro) "'  Currently in Micro mode
 DROP   JCB,R5                     32896                       END
                                   32904
 005B2A 1B00/41F0 B050_            32905                       TWRITE
 005B36 4770 C7DA            007DA 32930                       BNZ   CVABORT
 005B3A 18D8/9808 D004_            32931                       PEND
 DROP   *,R7
 DROP   SIB,R6                     32951                       DROP  SIB
1TOPS     (TOPS2025) (12:57) (15MAR04) SHOW _LINES Commands                                                                 Page   86
0Current Usings:  (CP,R11) (CV,R12)
0Loc    Object Code    Addr1 Addr2  Stmt Lv Lineno    Source Statement           (Hibal 5, Asmedit 3.3)  HLASM R4.0  2004/03/15 12.57
+___    ______ ____    _____ _____  ____ __ ______    ______ _________
0                                  32960              ¿þþþþþþþþþþþþþþþþþþþþþþþþþþþþþþþþþþþþþþþþþþþþþþþþþþþþþþþþþþþþþþþþþþþþþÜ
                                   32961              Ÿ                                                                     Ÿ
                                   32962              Ÿ  SHOWILIN -- SHOW _LINES command.                                   Ÿ
                                   32963              Ÿ                                                                     Ÿ
                                                      ¾þþþþþþþþþþþþþþþþþþþþþþþþþþþþþþþþþþþþþþþþþþþþþþþþþþþþþþþþþþþþþþþþþþþþþ»
0000000                00000 0029A 32964              SHLIWA   RECORD BEGIN
 000000                            32972  1           SHLIRNG    DS    XL(L'RNGCB)
 00029A                0029A 0029A 32973                       END
                                   32982
 005B48 50E0 D000/9008_      00000 32983              SHOWILIN XPROC SHLIWA
 USING  *,R7
 USING  SHLIWA-(4+36),R8
 005B62 D7FF 8028 8028_00000 00000 33034                       CLEAR SHLIWA
                                   33043
 005B74 4100 0380            00380 33044                       LA    R0,RNGTSES*256+L'RNGFDALL  All lines
                                   33045
 005B78 58E0 B08C/D203_      0008C 33046                       SETSCKWS GETRPRT
 005B86 41F0 8028            00000 33059                       LA    R15,SHLIRNG
 005B8A 58E0 7526/0DEE       06088 33060                       ACALL GETTRNG
 005B90 4780 C7DA            007DA 33064                       BZ    CVABORT
                                   33065
 005B94 9630 F003/94F7_00003       33066                       WITH  (RNGCB,R15),'SET RNGFMULT+RNGFLIST; CLEAR RNGFVER'
 USING  RNGCB,R15
 DROP   RNGCB,R15
 005B9C 1B00                       33105                       CLEAR R0                  No selection co-routine
 005B9E 4110 7058            05BBA 33109                       LA    R1,ILINERTN         Range co-routine
 005BA2 58E0 752A/0DEE       0608C 33110                       ACALL TRANGE
 005BA8 47F0 C7DE            007DE 33114                       B     CVNEXT
 005BAC 18D8/9808 D004_            33115                       PEND
 DROP   SHLIWA-(4+36),R8
 DROP   *,R7
                                   33140
1TOPS     (TOPS2025) (12:57) (15MAR04) SHOW _LINES Commands                                                                 Page   87
0Current Usings:  (CP,R11) (CV,R12)
0Loc    Object Code    Addr1 Addr2  Stmt Lv Lineno    Source Statement           (Hibal 5, Asmedit 3.3)  HLASM R4.0  2004/03/15 12.57
+___    ______ ____    _____ _____  ____ __ ______    ______ _________
0                                  33142              ¿þþþþþþþþþþþþþþþþþþþþþþþþþþþþþþþþþþþþþþþþþþþþþþþþþþþþþþþþþþþþþþþþþþþþþÜ
                                   33143              Ÿ                                                                     Ÿ
                                   33144              Ÿ  ILINERTN -- SHOW _LINES range co-routine.                          Ÿ
                                   33145              Ÿ                                                                     Ÿ
                                   33146              Ÿ    On entry:                                                        Ÿ
                                   33147              Ÿ      R1 - SIB ptr                                                   Ÿ
                                   33148              Ÿ                                                                     Ÿ
                                                      ¾þþþþþþþþþþþþþþþþþþþþþþþþþþþþþþþþþþþþþþþþþþþþþþþþþþþþþþþþþþþþþþþþþþþþþ»
0000000                00000 00028 33149              ILWA     RECORD BEGIN
 000000                            33157  1           ILID       DS    CL40                Userid
 000028                00028 00028 33158                       END
                                   33167              þþþþ
 005BBA 50E0 D000/9008_      00000 33168              ILINERTN PROC  ILWA
 USING  *,R7
 USING  ILWA-(4+36),R8
 005BD4 1861                       33218                       LR    R6,R1
 USING  SIB,R6                     33219                       USING SIB,R6
                                   33228                       ¿þþþþþþþþþþþþþþþþþþþþþþþþþþþþþþþþþþÜ
                                   33229                       Ÿ  Internal formatted SHOW LINES.  Ÿ
                                   33230                       ¾þþþþþþþþþþþþþþþþþþþþþþþþþþþþþþþþþþ»
 005BD6 4110 75B1/4100_      06185 33231                       TSEG  '+'
                                   33249
 005BE8 1F11/BF13 6004_            33250                       TNUM  L2:SIBNO,4
                                   33281
 005BFC 4110 7588/4100_      0615C 33282                       TSEG  ','
 005C0E 4110 6073/4100_      00073 33300                       TSEG  SIBGRP
 005C20 4110 75B2/4100_      06186 33328                       TSEG  '.'
 005C32 4110 6070/4100_      00070 33346                       TSEG  SIBUSER
                                   33374
 005C44 4110 7588/4100_      0615C 33375                       TSEG  ','
 005C56 41F0 6070            00070 33393                       LA    R15,SIBACCT         Account in uuugg format
 005C5A 4110 8028/4100_      00000 33394                       SETMSG ILID                Put userid here
 005C62 58E0 74D8/0DEE       060AC 33408                       VCALL GETUID              Get userid for this account
 005C68 4100 0028/41F0_      00028 33412                       TSEG  (R1),L'ILID         Userid (or GG.UUU)
 005C76 4110 7588/4100_      0615C 33439                       TSEG  ','
 005C88 4110 6082/4100_      00082 33457                       TSEG  SIBNAME             User name
 005C9A 1B00/41F0 B050_            33485                       TWRITE
 005CA6 4770 C7DA            007DA 33510                       BNZ   CVABORT
 005CAA 18D8/9808 D004_            33511                       PEND
 DROP   ILWA-(4+36),R8
 DROP   *,R7
                                   33536
 DROP   SIB,R6                     33537                       DROP  SIB
1TOPS     (TOPS2025) (12:57) (15MAR04) SHOW _USERS Command                                                                  Page   88
0Current Usings:  (CP,R11) (CV,R12)
0Loc    Object Code    Addr1 Addr2  Stmt Lv Lineno    Source Statement           (Hibal 5, Asmedit 3.3)  HLASM R4.0  2004/03/15 12.57
+___    ______ ____    _____ _____  ____ __ ______    ______ _________
0                                  33546              ¿þþþþþþþþþþþþþþþþþþþþþþþþþþþþþþþþþþþþþþþþþþþþþþþþþþþþþþþþþþþþþþþþþþþþþÜ
                                   33547              Ÿ                                                                     Ÿ
                                   33548              Ÿ  SHOWUSRS -- SHOW _USERS command.                                   Ÿ
                                   33549              Ÿ                                                                     Ÿ
                                   33550              Ÿ    The SHOW USERS command is now an exec which internally           Ÿ
                                   33551              Ÿ    executes this command and then reformats the results.            Ÿ
                                   33552              Ÿ                                                                     Ÿ
                                                      ¾þþþþþþþþþþþþþþþþþþþþþþþþþþþþþþþþþþþþþþþþþþþþþþþþþþþþþþþþþþþþþþþþþþþþþ»
0000000                00000 002B1 33553              SHUWA    RECORD BEGIN
 000000 00                         33561  1           SHUFLAG    FLAG
 SHUFLAG.SHUFUSER  80 ONES         33565  1                      FLAG  SHUFUSER            - Just display user id
                                   33570  1
 000001                            33571  1           SHUID      DS    CL2
                                   33572  1
 000003                            33573  1           SHWUID     DS    CL20                Working userid
                                   33574  1
 000017                            33575  1           SHURNG     DS    XL(L'RNGCB)         Range work area
 0002B1                002B1 002B1 33576                       END
                                   33585              þþþþ
 005CB8 50E0 D000/9008_      00000 33586              SHOWUSRS XPROC SHUWA
 USING  *,R7
 USING  SHUWA-(4+36),R8
 005CD2 4160 8028            00000 33637                       LA    R6,SHUWA
 005CD6 5060 BCA4            00CA4 33638                       ST    R6,CPCWA
 USING  SHUWA,R6                   33639                       USING SHUWA,R6
 005CDA D7FF 6000 6000_00000 00000 33648                       CLEAR SHUWA
                                   33657
 005CEC 4100 03A0            003A0 33658                       LA    R0,RNGTSES*256+L'RNGFMULT+L'RNGFDALL  All lines
 005CF0 58E0 B08C/D203_      0008C 33659                       SETSCKWS GETRPRT
 005CFE 41F0 6017            00017 33672                       LA    R15,SHURNG
 005D02 58E0 73B6/0DEE       06088 33673                       ACALL GETTRNG
 005D08 4780 C7DA            007DA 33677                       BZ    CVABORT
                                   33678
 USING  RNGCB,R15                  33679                       WITH  (RNGCB,R15),BEGIN
 005D0C 9620 F003      00003       33693  1                      SET   RNGFMULT            We insist
 005D10 94E7 F003      00003       33699  1                      CLEAR RNGFLIST+RNGFVER    Ditto
                                   33709  1
 005D14 D501 7426 F018_060F8 00018 33710  1                      IF    (RNGM,EQ,L'RNE),BEGIN  One item...
 005D1E 4120 F01C            0001C 33727  2                        LA    R2,RNG
 USING  RNE,R2                     33728  2                        WITH  (RNE,R2)
 005D22 957C 2010/4770_00010       33741  2                        IF    (RNETEXT,NE,'@'),EXIT  not group selection
 005D2A 9503 2000/4720_00000       33761  2                        IF    (RNELEN,GT,3),EXIT
 005D32 D200 6001 2011 00001 00011 33782  2                        MVC   SHUID(1),RNETEXT+1
 005D38 9240 6002      00002       33783  2                        MVI   SHUID+1,C' '
 005D3C 9503 2000/4770_00000       33784  2                        IF    (RNELEN,EQ,3),'MVC SHUID,RNETEXT+1; SET SHUFUSER'
 DROP   RNE,R2                     33814  1                      END
 DROP   RNGCB,R15                  33823                       END
                                   33831                       ¿þþþþþþþþþþþþþþþþþþþþþþþþþþÜ
                                   33832                       Ÿ  Write out TITLE lines.  Ÿ
                                   33833                       ¾þþþþþþþþþþþþþþþþþþþþþþþþþþ»
 005D4E 4110 7488/4100_      0615A 33834                       TSEG  '>'
 005D60 4110 7428/4100_      060FA 33852                       TSEG  'Sort_field'
 005D72 4100 0023/41F0_      00023 33870                       TCOL  35
1TOPS     (TOPS2025) (12:57) (15MAR04) SHOW _USERS Command                                                                  Page   89
0Current Usings:  (SHUWA,R6) (*,R7) (SHUWA-(4+36),R8) (CP,R11) (CV,R12)
0Loc    Object Code    Addr1 Addr2  Stmt Lv Lineno    Source Statement           (Hibal 5, Asmedit 3.3)  HLASM R4.0  2004/03/15 12.57
+___    ______ ____    _____ _____  ____ __ ______    ______ _________
0005D80 4110 74B5/4100_      06187 33891                       TSEG  'Account'
 005D92 4100 0032/41F0_      00032 33909                       TCOL  50
 005DA0 4110 7432/4100_      06104 33930                       TSEG  'Userid'
 005DB2 1B00/41F0 B050_            33948                       TCR
                                   33973
 005DBE 4110 74BC/4100_      0618E 33974                       TSEG  '>----------'
 005DD0 4100 0023/41F0_      00023 33992                       TCOL  35
 005DDE 4110 74C7/4100_      06199 34013                       TSEG  '-------'
 005DF0 4100 0032/41F0_      00032 34031                       TCOL  50
 005DFE 4110 7438/4100_      0610A 34052                       TSEG  '------'
 005E10 1B00/41F0 B050_            34070                       TWRITE
 005E1C 4770 C7DA            007DA 34095                       BNZ   CVABORT
                                   34096
 005E20 1B00                       34097                       CLEAR R0                  No selection co-routine
 005E22 4110 71D0            05EA2 34101                       LA    R1,USRSRTN          Range co-routine
 005E26 41F0 6017            00017 34102                       LA    R15,SHURNG          RNGCB ptr
 005E2A 58E0 73BA/0DEE       0608C 34103                       ACALL TRANGE
 005E30 4770 C7DA            007DA 34107                       BNZ   CVABORT
                                   34108
 005E34 D603 B05C B05C_0005C 0005C 34109                       TCCR
 005E54 4110 743E/4100_      06110 34171                       TSEG  '< '
 005E66 D601 6001 6001_00001 00001 34189                       IF    (SHUID,NZ),BEGIN
 005E70 4110 6001/4100_      00001 34205  1                      SETMSG SHUID
 005E78 58E0 73E6/0DEE       060B8 34219  1                      VCALL LRTRIM
 005E7E 41F0 B050/58E0_      00050 34223  1                      TSEG  (R1),(R0),B
 005E88                            34247                       END
 005E88 4110 74CE/4100_      061A0 34251                       SETMSG 'Users'
 005E90 47F0 C7D0            007D0 34255                       B     CVNXTMSG
 005E94 18D8/9808 D004_            34256                       PEND
 DROP   SHUWA-(4+36),R8
 DROP   *,R7
                                   34281
 DROP   SHUWA,R6                   34282                       DROP  SHUWA
1TOPS     (TOPS2025) (12:57) (15MAR04) SHOW _USERS Command                                                                  Page   90
0Current Usings:  (CP,R11) (CV,R12)
0Loc    Object Code    Addr1 Addr2  Stmt Lv Lineno    Source Statement           (Hibal 5, Asmedit 3.3)  HLASM R4.0  2004/03/15 12.57
+___    ______ ____    _____ _____  ____ __ ______    ______ _________
0                                  34291              ¿þþþþþþþþþþþþþþþþþþþþþþþþþþþþþþþþþþþþþþþþþþþþþþþþþþþþþþþþþþþþþþþþþþþþþÜ
                                   34292              Ÿ                                                                     Ÿ
                                   34293              Ÿ  USRSRTN -- SHOW _USERS range co-routine.                           Ÿ
                                   34294              Ÿ                                                                     Ÿ
                                                      ¾þþþþþþþþþþþþþþþþþþþþþþþþþþþþþþþþþþþþþþþþþþþþþþþþþþþþþþþþþþþþþþþþþþþþþ»
0005EA2 50E0 D000/9008_      00000 34295              USRSRTN  PROC
 USING  *,R7
 005EBC 5860 BCA4            00CA4 34334                       L     R6,CPCWA
 USING  SHUWA,R6                   34335                       USING SHUWA,R6
 005EC0 1851                       34344                       LR    R5,R1
 USING  SIB,R5                     34345                       USING SIB,R5
                                   34354
 005EC2 D604 5070 5070_00070 00070 34355                       IF    (SIBACCT,Z),USRSEXIT  Not logged on
                                   34374                       ¿þþþþþþþþþþþþþþþþþþþþþþþþþþÜ
                                   34375                       Ÿ  Add one line per user.  Ÿ
                                   34376                       ¾þþþþþþþþþþþþþþþþþþþþþþþþþþ»
 005ECC 41F0 5070            00070 34377                       LA    R15,SIBACCT         Account in uuugg format
 005ED0 4110 6003/4100_      00003 34378                       SETMSG SHWUID              Put userid here
 005ED8 58E0 71F0/0DEE       060AC 34392                       VCALL GETUID              Get userid for this account
                                   34396                       ¿þþþþþþþþþþþþþþþþþþþþþþþþþþþþþþÜ
                                   34397                       Ÿ  This account has a userid.  Ÿ
                                   34398                       ¾þþþþþþþþþþþþþþþþþþþþþþþþþþþþþþ»
 005EDE 4770 712A            05FE6 34399                       IF    Z,BEGIN             Found the userid...
 005EE2 1831                       34410  1                      LR    R3,R1
 005EE4 1820                       34411  1                      LR    R2,R0
 005EE6 4110 72E9/4100_      061A5 34412  1                      TSEG  '0'                 Leading zero
 005EF8 1843                       34430  1                      LR    R4,R3
 005EFA 1A42                       34431  1                      AR    R4,R2               End of userid string
 005EFC                            34432  1                      LOOP  BEGIN               Backscan for "_" or "."
 005EFC 0640                       34438  2                        DECR  R4
 005EFE 1943/4750 705C             34440  2                        WHILE (R4,GE,R3)
 005F04 956D 4000/4780_00000       34456  2                        IF    ((@R4,EQ,'_'),OR,(@R4,EQ,'.')),EXIT
 005F14 47F0 7040            05EFC 34490  1                      END
 005F18 5E40 7200            060BC 34495  1                      INCR  R4                  Skip over special char
 005F1C 1B43                       34498  1                      SR    R4,R3               Indentation length
 005F1E 5030 D000/41D0_      00000 34499  1                      XPUSH R3
 005F26 1A34                       34502  1                      AR    R3,R4
 005F28 1B24                       34503  1                      SR    R2,R4
 005F2A 1813/1802/41F0_            34504  1                      TSEG  (R3),(R2)           Part of userid to sort on
 005F38 4BD0 7256/5830_      06112 34530  1                      XPOP  R3
 005F40 1244/47D0 7098_            34533  1                      IF    (R4,POS),'TSEG (R3),(R4)'  Continued part
                                   34578  1
 005F54 4100 0023/41F0_      00023 34579  1                      TCOL  35
 005F62 4110 5073/4100_      00073 34600  1                      TSEG  SIBGRP
 005F74 4110 72CA/4100_      06186 34628  1                      TSEG  '.'
 005F86 4110 5070/4100_      00070 34646  1                      TSEG  SIBUSER
 005F98 1F22/BF23 5075             34674  1                      L2    R2,SIBANO
 005F9E 5920 7200/47D0_      060BC 34682  1                      IF    (R2,GT,1),'TSEG "#"; TNUM (R2)'
                                   34744  1
 005FC6 4100 0032/41F0_      00032 34745  1                      TCOL  50
 005FD4 4110 6003/4100_      00003 34766  1                      TSEG  SHWUID,,T           Userid
 005FE6                            34794                       END
1TOPS     (TOPS2025) (12:57) (15MAR04) SHOW _USERS Command                                                                  Page   91
0Current Usings:  (SIB,R5) (SHUWA,R6) (*,R7) (CP,R11) (CV,R12)
0Loc    Object Code    Addr1 Addr2  Stmt Lv Lineno    Source Statement           (Hibal 5, Asmedit 3.3)  HLASM R4.0  2004/03/15 12.57
+___    ______ ____    _____ _____  ____ __ ______    ______ _________
0                                  34798                       ¿þþþþþþþþþþþþþþþþþþþþþþþþþþþþÜ
                                   34799                       Ÿ  No userid for this user.  Ÿ
                                   34800                       ¾þþþþþþþþþþþþþþþþþþþþþþþþþþþþ»
 005FE6 712E/47F0 7192 05FE6 05EE0 34801                       ELSE  BEGIN               No userid...
 005FEA 4110 72EB/4100_      061A7 34812  1                      TSEG  '1'                 |Sort field
 005FFC 4110 6003/4100_      00003 34830  1                      TSEG  SHWUID,,T           |
                                   34858  1
 00600E 4100 0023/41F0_      00023 34859  1                      TCOL  35
 00601C 4110 6003/4100_      00003 34880  1                      TSEG  SHWUID,,T           Account
                                   34908  1
 00602E 4100 0032/41F0_      00032 34909  1                      TCOL  50
 00603C 4110 6003/4100_      00003 34930  1                      TSEG  SHWUID              Account again (userid)
 00604E                            34958                       END
                                   34962
 00604E 1B00/41F0 B050_            34963                       TWRITE
 00605A 4770 C7DA            007DA 34988                       BNZ   CVABORT
                                   34989
 00605E 18D8/9808 D004_            34990              USRSEXIT PEND
 DROP   *,R7
 DROP   SIB,R5                     35011                       DROP  SIB,SHUWA
 DROP   SHUWA,R6
                                   35026
                                   35027                       QLTORG
1TOPS     (TOPS2025) (12:57) (15MAR04) SHOW PRIV Command                                                                    Page   92
0Current Usings:  (CP,R11) (CV,R12)
0Loc    Object Code    Addr1 Addr2  Stmt Lv Lineno    Source Statement           (Hibal 5, Asmedit 3.3)  HLASM R4.0  2004/03/15 12.57
+___    ______ ____    _____ _____  ____ __ ______    ______ _________
0                                  35098              ¿þþþþþþþþþþþþþþþþþþþþþþþþþþþþþþþþþþþþþþþþþþþþþþþþþþþþþþþþþþþþþþþþþþþþþÜ
                                   35099              Ÿ                                                                     Ÿ
                                   35100              Ÿ  SHOWPRIV -- SHOW PRIV command.                                     Ÿ
                                   35101              Ÿ                                                                     Ÿ
                                                      ¾þþþþþþþþþþþþþþþþþþþþþþþþþþþþþþþþþþþþþþþþþþþþþþþþþþþþþþþþþþþþþþþþþþþþþ»
0000000                00000 0029A 35102              SHWPWA   RECORD BEGIN
 000000                            35110  1           SHWPRNG    DS    XL(L'RNGCB)
 00029A                0029A 0029A 35111                       END
                                   35120              *
                                   35121              *
 0061A8 50E0 D000/9008_      00000 35122              SHOWPRIV XPROC SHWPWA
 USING  *,R7
 USING  SHWPWA-(4+36),R8
 0061C2 D7FF 8028 8028_00000 00000 35173                       CLEAR SHWPWA
 0061D4 58E0 B08C/D2AF_      0008C 35182                       SCPUSH
 0061E2 5810 B08C/1B00_      0008C 35188                       SCAN
 006230 58E0 7B82/0DEE       06D44 35219                       SCANCHK
 006236 5810 B08C/4111_      0008C 35224                       SCUPTOK R1
 00623E 1200/4780 7092_            35228                       IF    ((R0,NZ),AND,(@R1,EQ,'SUB')),BEGIN
 00624E 58E0 7B86/0DEE       06D48 35257  1                      VCALL ORVCPASS            (allow SPIRES to intercept)
 006254                            35261                       END
 006254 58E0 B08C/4BD0_      0008C 35265                       SCPOP
                                   35271
 006262 9170 B3BE/4770_003BE       35272                       IF    (CPSFSPR+CPSFOPR+CPSFAPR,Z),BEGIN
 00626A 58E0 7B8A/0DEE       06D4C 35296  1                      VCALL NOTVALID
 006270                            35300                       END
                                   35304
 006270 4100 0380            00380 35305                       LA    R0,RNGTSES*256+L'RNGFDALL
 006274 58E0 B08C/D203_      0008C 35306                       SETSCKWS GETRPRT
 006282 41F0 8028            00000 35319                       LA    R15,SHWPRNG
 006286 58E0 7B92/0DEE       06D54 35320                       ACALL GETTRNG
 00628C 4780 C7DA            007DA 35324                       BZ    CVABORT
                                   35325
 006290 9630 F003/94F7_00003       35326                       WITH  (RNGCB,R15),'SET RNGFMULT+RNGFLIST; CLEAR RNGFVER'
 USING  RNGCB,R15
 DROP   RNGCB,R15
                                   35365
 006298 4100 70F6            062B8 35366                       LA    R0,PRIVSEL          Range selection co-routine
 00629C 4110 714E            06310 35367                       LA    R1,PRIVRTN          Range co-routine
 0062A0 58E0 7B96/0DEE       06D58 35368                       ACALL TRANGE
 0062A6 47F0 C7DE            007DE 35372                       B     CVNEXT
 0062AA 18D8/9808 D004_            35373                       PEND
 DROP   SHWPWA-(4+36),R8
 DROP   *,R7
                                   35398
1TOPS     (TOPS2025) (12:57) (15MAR04) SHOW PRIV Command                                                                    Page   93
0Current Usings:  (CP,R11) (CV,R12)
0Loc    Object Code    Addr1 Addr2  Stmt Lv Lineno    Source Statement           (Hibal 5, Asmedit 3.3)  HLASM R4.0  2004/03/15 12.57
+___    ______ ____    _____ _____  ____ __ ______    ______ _________
0                                  35400              ¿þþþþþþþþþþþþþþþþþþþþþþþþþþþþþþþþþþþþþþþþþþþþþþþþþþþþþþþþþþþþþþþþþþþþþÜ
                                   35401              Ÿ                                                                     Ÿ
                                   35402              Ÿ  PRIVSEL -- SHOW PRIV range selection co-routine.                   Ÿ
                                   35403              Ÿ                                                                     Ÿ
                                   35404              Ÿ    On entry:                                                        Ÿ
                                   35405              Ÿ      R1 - SIB ptr                                                   Ÿ
                                   35406              Ÿ                                                                     Ÿ
                                   35407              Ÿ    On exit, R15 (and CC):                                           Ÿ
                                   35408              Ÿ      0 - use item                                                   Ÿ
                                   35409              Ÿ      4 - skip item                                                  Ÿ
                                   35410              Ÿ                                                                     Ÿ
                                                      ¾þþþþþþþþþþþþþþþþþþþþþþþþþþþþþþþþþþþþþþþþþþþþþþþþþþþþþþþþþþþþþþþþþþþþþ»
00062B8 50E0 D000/9008_      00000 35411              PRIVSEL  PROC
 USING  *,R7
 0062D2 1861                       35450                       LR    R6,R1
 USING  SIB,R6                     35451                       USING SIB,R6
                                   35460
 0062D4                            35461                       BEGIN
 0062D4 1BFF                       35465  1                      CLEAR R15                 Assume ok
 0062D6 9140 607A/4710_0007A       35469  1                      IF    SIBFAPR,EXIT
 0062DE 9120 607A/4710_0007A       35487  1                      IF    SIBFSPR,EXIT
 0062E6 9110 607A/4710_0007A       35505  1                      IF    SIBFOPR,EXIT
 0062EE 9102 607A/4710_0007A       35523  1                      IF    SIBFADM,EXIT
 0062F6 9101 607A/4710_0007A       35541  1                      IF    SIBFPC,EXIT
 0062FE 41F0 0004            00004 35559  1                      LA    R15,4               User has no privs, skip
 006302                            35560                       END
 006302 18D8/9808 D004_            35564                       PEND
 DROP   *,R7
 DROP   SIB,R6                     35584                       DROP  SIB
1TOPS     (TOPS2025) (12:57) (15MAR04) SHOW PRIV Command                                                                    Page   94
0Current Usings:  (CP,R11) (CV,R12)
0Loc    Object Code    Addr1 Addr2  Stmt Lv Lineno    Source Statement           (Hibal 5, Asmedit 3.3)  HLASM R4.0  2004/03/15 12.57
+___    ______ ____    _____ _____  ____ __ ______    ______ _________
0                                  35593              ¿þþþþþþþþþþþþþþþþþþþþþþþþþþþþþþþþþþþþþþþþþþþþþþþþþþþþþþþþþþþþþþþþþþþþþÜ
                                   35594              Ÿ                                                                     Ÿ
                                   35595              Ÿ  PRIVRTN -- SHOW PRIV range co-routine.                             Ÿ
                                   35596              Ÿ                                                                     Ÿ
                                   35597              Ÿ    On entry:                                                        Ÿ
                                   35598              Ÿ      R1 - SIB ptr                                                   Ÿ
                                   35599              Ÿ                                                                     Ÿ
                                                      ¾þþþþþþþþþþþþþþþþþþþþþþþþþþþþþþþþþþþþþþþþþþþþþþþþþþþþþþþþþþþþþþþþþþþþþ»
0006310 50E0 D000/9008_      00000 35600              PRIVRTN  PROC
 USING  *,R7
 00632A 1861                       35639                       LR    R6,R1
 USING  SIB,R6                     35640                       USING SIB,R6
                                   35649
 00632C 4110 6000            00000 35650                       LA    R1,SIB
 006330 58E0 7A32/0DEE       06D5C 35651                       ACALL LINEDISP
                                   35655
 006336 9140 607A/47E0_0007A       35656                       IF    SIBFAPR,'TSEG "(ACCT)",,B'
 006350 9120 607A/47E0_0007A       35694                       IF    SIBFSPR,'TSEG "(SYS)",,B'
 00636A 9110 607A/47E0_0007A       35732                       IF    SIBFOPR,'TSEG "(OPR)",,B'
 006384 9108 607A/47E0_0007A       35770                       IF    SIBFSBM,'TSEG "(SUBMIT)",,B'
 00639E 9102 607A/47E0_0007A       35808                       IF    SIBFADM,'TSEG "(ADMIN)",,B'
 0063B8 9101 607A/47E0_0007A       35846                       IF    SIBFPC,'TSEG  "(PC)",,B'
                                   35884
 0063D2 1B00/41F0 B050_            35885                       TWRITE
 0063DE 4770 C7DA            007DA 35910                       BNZ   CVABORT
 0063E2 18D8/9808 D004_            35911                       PEND
 DROP   *,R7
 DROP   SIB,R6                     35931                       DROP  SIB
1TOPS     (TOPS2025) (12:57) (15MAR04) TO Command                                                                           Page   95
0Current Usings:  (CP,R11) (CV,R12)
0Loc    Object Code    Addr1 Addr2  Stmt Lv Lineno    Source Statement           (Hibal 5, Asmedit 3.3)  HLASM R4.0  2004/03/15 12.57
+___    ______ ____    _____ _____  ____ __ ______    ______ _________
0                                  35940              ¿þþþþþþþþþþþþþþþþþþþþþþþþþþþþþþþþþþþþþþþþþþþþþþþþþþþþþþþþþþþþþþþþþþþþþÜ
                                   35941              Ÿ                                                                     Ÿ
                                   35942              Ÿ  TO -- _TO command.                                                 Ÿ
                                   35943              Ÿ                                                                     Ÿ
                                   35944              Ÿ    The TO command is now an exec which internally                   Ÿ
                                   35945              Ÿ    executes this command and then reformats the results.            Ÿ
                                   35946              Ÿ                                                                     Ÿ
                                   35947              Ÿ                                                                     Ÿ
                                                      ¾þþþþþþþþþþþþþþþþþþþþþþþþþþþþþþþþþþþþþþþþþþþþþþþþþþþþþþþþþþþþþþþþþþþþþ»
0000000                00000 003C1 35948              TOWA     RECORD BEGIN
                                   35956  1           TOSG       SEGCB
 000000 00                         35957  1 01-SEGCB +$$$SEGCB805   DS 0F
 TOSGCOD.TOSGSEG   01 EQ
 TOSGCOD.TOSGWR    02 EQ
 TOSGCOD.TOSGCLR   03 EQ
 TOSGCOD.TOSGSPP   04 EQ
 TOSGCOD.TOSGOVF   05 EQ
 TOSGCOD.TOSGCR    06 EQ
 TOSGCOD.TOSGMAR   07 EQ
 000001 00                         36032  1 01-SEGCB +           DC    X'00'               Reserved
 000002 0000                              1          +
 000004 00000000                   36033  1 01-SEGCB +TOSGMAXF   DC    A(0)                Maximum buffer length
 000008 00000000                   36034  1 01-SEGCB +TOSGMRKF   DC    A(0)                Length at last mark
 00000C 00000000                   36035  1 01-SEGCB +TOSGLENF   DC    A(0)                Current length
 000010 00000000                   36036  1 01-SEGCB +TOSGINDF   DC    A(0)                Overflow/indent count
 000014 00000000                   36037  1 01-SEGCB +TOSGERR    DC    A(0)                Address of error recovery routine
 000018 0000000000000000           36038  1 01-SEGCB +           DC    2F'0'               Reserved
 000020 00000000                   36039  1 01-SEGCB +TOSGLOC    DC    A(0)                Location of buffer
 000024 00000000                   36040  1 01-SEGCB +TOSGRTN    DC    A(0)                Processing routine
 000028 0000000000000000           36041  1 01-SEGCB +           DC    4F'0'               Reserved
 000038 00000000                   36042  1 01-SEGCB +TOSGUSR    DC    A(0)                USER field
                                   36043  1 01-SEGCB +TOSG       EQU   $$$SEGCB805,*-$$$SEGCB805,C'X'
 00003C                            36044  1           TORNG      DS    XL(L'RNGCB)
                                   36045  1
                                   36046  1           TOSGBUF    DS    CL(&LINESZ)
 0002D6                                   1          +TOSGBUF    DS    CL(235)
 0003C1                003C1 003C1 36047                       END
                                   36056              þþþþ
 0063F0 50E0 D000/9008_      00000 36057              TO       XPROC TOWA
 USING  *,R7
 USING  TOWA-(4+36),R8
 00640A D7FF 8028 8028_00000 00000 36108                       CLEAR TOWA
 006422 4160 8028            00000 36118                       LA    R6,TOWA
 006426 5060 BCA4            00CA4 36119                       ST    R6,CPCWA            Towa ptr
 00642A 5810 B08C/1B00_      0008C 36120                       SCAN
 006478 58E0 793A/0DEE       06D44 36151                       SCANCHK
 00647E 1200/4770 7086             36156                       IF    (R0,Z),BEGIN
 006484 4110 79BC/4100_      06DC6 36170  1                      ERROR 'Missing line-range for the TO command.'
 006490                            36177                       END
 006490 1851                       36181                       LR    R5,R1               Save line-range ptrs
 006492 1840                       36182                       LR    R4,R0
                                   36183
 006494 91E0 B3EE/4780_003EE       36184                       IF    (CPSFNMSG+CPSFNCOM+CPSFNBRK,NZ),BEGIN
1TOPS     (TOPS2025) (12:57) (15MAR04) TO Command                                                                           Page   96
0Current Usings:  (*,R7) (TOWA-(4+36),R8) (CP,R11) (CV,R12)
0Loc    Object Code    Addr1 Addr2  Stmt Lv Lineno    Source Statement           (Hibal 5, Asmedit 3.3)  HLASM R4.0  2004/03/15 12.57
+___    ______ ____    _____ _____  ____ __ ______    ______ _________
000649C 4110 79E2/4100_      06DEC 36208  1                      TSEG  'Warning: Your terminal has',,B
 0064AE 9180 B3EE/47E0_003EE       36226  1                      IF    CPSFNMSG,'TSEG "NOMSG",,B'
 0064C8 9140 B3EE/47E0_003EE       36264  1                      IF    CPSFNCOM,'TSEG "NOCOMM",,B'
 0064E2 9120 B3EE/47E0_003EE       36302  1                      IF    CPSFNBRK,'TSEG "NOBREAK",,B'
 0064FC 4110 7962/4100_      06D6C 36340  1                      TSEG  'set.',,WR
 00650E 4770 C7EA            007EA 36358  1                      BNZ   CVNOACTN
 006512                            36359                       END
                                   36363
 006512 4110 82FE/4100_      002D6 36364                       SEGINIT TOSGBUF,,TOSG
 006524 58E0 796A/0DEE       06D74 36391                       VCALL LOCALTOD
 00652A 18FD/41D0 D00C             36395                       XPUSH ,,11,PTR=R15
 006530 58E0 796E/0DEE       06D78 36398                       VCALL FMTTIME
 006536 4100 0005/41F0_      00005 36402                       SEGB  (R1),5              Hh:mm
 006544 4BD0 7A02            06E0C 36429                       XPOP  ,,11
                                   36431                       ¿þþþþþþþþþþþþþþþþþþþþþþþþþþþþþþþþþþþþþþþþþþþþþþþþþþþþþþþþþþþþþþÜ
                                   36432                       Ÿ  Old style is: hh:mm From GG.JDN "Jim Nisbet" (12): message  Ÿ
                                   36433                       ¾þþþþþþþþþþþþþþþþþþþþþþþþþþþþþþþþþþþþþþþþþþþþþþþþþþþþþþþþþþþþþþ»
 006548 181D/41D0 D020             36434                       XPUSH ,,L'CPUID,PTR=R1
 00654E D21F 1000 C4D8 00000 004D8 36437                       MVC   @R1(L'CPUID),CVBLANKS
 006554 D201 1000 B3B7 00000 003B7 36438                       MVC   @R1(2),CPSGRP
 00655A 924B 1002      00002       36439                       MVI   @R1+2,C'.'
 00655E D202 1003 B3B4 00003 003B4 36440                       MVC   @R1+3(3),CPSUSER
 006564 1B22                       36441                       CLEAR R2                  Assume old style userid
 006566 D51F B198 1000_00198 00000 36445                       IF    (CPUID,NE,@R1),'LA R2,1'  New style userid
 006574 4BD0 7A04            06E0E 36468                       XPOP  ,,L'CPUID
                                   36470
 006578 1222                       36471                       LTR   R2,R2               !!! room to ZAP to "SR R2,R2"
 00657A 1222/4770 72A4             36472                       IF    (R2,Z),BEGIN        Use old-style if no userid...
 006580 4110 7A7C/4100_      06E86 36486  1                      SEG   'From '
                                   36503  1
 006592 9110 B3BB/47E0_003BB       36504  1                      IF    CPSSFOP,'SEG "OPER "'
                                   36541  1
 0065AC 9501 B38C/4770_0038C       36542  1                      IF    CPSTCONS,BEGIN      Just give console name...
 0065B4 D613 B3C6 B3C6_003C6 003C6 36557  2                        IF    (CPSNAME,Z),EXIT
 0065BE 4110 B3C6/4100_      003C6 36576  2                        SEGT  CPSNAME
 0065D0                            36604  1                      END
                                   36608  1
 0065D0 71CA/47F0 726E 065D0 065B2 36609  1                      ELSE  BEGIN
 0065D4 4110 B3B7/4100_      003B7 36620  2                        SEG   CPSGRP
 0065E6 4110 7A86/4100_      06E90 36647  2                        SEG   '.'
 0065F8 4110 B3B4/4100_      003B4 36664  2                        SEG   CPSUSER
 00660A 1F22/BF23 B3B9             36691  2                        L2    R2,CPSANO
 006610 5920 797A/47D0_      06D84 36699  2                        IF    (R2,GT,1),'SEG "#"; SEGDC (R2)'
 006638 D613 B3C6 B3C6_003C6 003C6 36759  2                        IF    (CPSNAME,NZ),BEGIN
 006642 4110 7A06/4100_      06E10 36775  3                          SEG   ' "'
 006654 4110 B3C6/4100_      003C6 36792  3                          SEGT  CPSNAME
 006666 4110 7A88/4100_      06E92 36820  3                          SEG   '"'
 006678                            36837  2                        END
 006678                            36841  1                      END
                                   36845  1
 006678 4110 7A08/4100_      06E12 36846  1                      SEG   ' ('
 00668A 1F11/BF13 B348_            36863  1                      SEGDC L2:CPSNO
 00669C 4110 7A0A/4100_      06E14 36890  1                      SEGB  '):'
 0066AE                            36908                       END
1TOPS     (TOPS2025) (12:57) (15MAR04) TO Command                                                                           Page   97
0Current Usings:  (*,R7) (TOWA-(4+36),R8) (CP,R11) (CV,R12)
0Loc    Object Code    Addr1 Addr2  Stmt Lv Lineno    Source Statement           (Hibal 5, Asmedit 3.3)  HLASM R4.0  2004/03/15 12.57
+___    ______ ____    _____ _____  ____ __ ______    ______ _________
0                                  36912                       ¿þþþþþþþþþþþþþþþþþþþþþþþþþþþþþþþþþþþþþþþþþþþþþþþþþþþþþþþþþÜ
                                   36913                       Ÿ  New style is: hh:mm From 12 Jim Nisbet <NIZ>: message  Ÿ
                                   36914                       ¾þþþþþþþþþþþþþþþþþþþþþþþþþþþþþþþþþþþþþþþþþþþþþþþþþþþþþþþþþ»
 0066AE 72A8/47F0 741A 066AE 0657E 36915                       ELSE  BEGIN               New style...
 0066B2 4110 7A0C/4100_      06E16 36926  1                      SEG   'From line '
 0066C4 1F11/BF13 B348_            36943  1                      SEGDC L2:CPSNO            Line number
 0066D6 4110 7A89/4100_      06E93 36970  1                      SEG   ' '
                                   36987  1
 0066E8 9110 B3BB/47E0_003BB       36988  1                      IF    CPSSFOP,'SEG "OPER "'
                                   37025  1
 006702 9501 B38C/4770_0038C       37026  1                      IF    CPSTCONS,BEGIN      Just give console name...
 00670A D613 B3C6 B3C6_003C6 003C6 37041  2                        IF    (CPSNAME,Z),EXIT
 006714 4110 B3C6/4100_      003C6 37060  2                        SEGT  CPSNAME
 006726                            37088  1                      END
                                   37092  1
 006726 7320/47F0 7408 06726 06708 37093  1                      ELSE  BEGIN               Not a console...
 00672A 1B33                       37104  2                        CLEAR R3                  Flag: assume no user name
 00672C D613 B3C6 B3C6_003C6 003C6 37108  2                        IF    (CPSNAME,NZ),BEGIN  Give our user name...
 006736 4110 B3C6/4100_      003C6 37124  3                          SEGT  CPSNAME
 006748 4130 0001            00001 37152  3                          LA    R3,1                Flag: we have a user name
 00674C                            37153  2                        END
                                   37157  2
 00674C 4110 7A89/4100_      06E93 37158  2                        SEG   ' '
 00675E 1233/4780 736C_            37175  2                        IF    (R3,NZ),'SEG "<"'
 006776 D61F B198 B198_00198 00198 37211  2                        IF    (CPUID,NZ),'SEGT CPUID'  Userid
 006792 738C/47F0 73F0 06792 0677E 37260  2                        ELSE  BEGIN               Give account if no userid...
 006796 4110 B3B7/4100_      003B7 37271  3                          SEG   CPSGRP
 0067A8 4110 7A86/4100_      06E90 37298  3                          SEG   '.'
 0067BA 4110 B3B4/4100_      003B4 37315  3                          SEG   CPSUSER
 0067CC 1F22/BF23 B3B9             37342  3                          L2    R2,CPSANO
 0067D2 5920 797A/47D0_      06D84 37350  3                          IF    (R2,GT,1),'SEG "#"; SEGDC (R2)'
 0067FA                            37410  2                        END
 0067FA 1233/4780 7408_            37414  2                        IF    (R3,NZ),'SEG ">"'
 006812                            37450  1                      END
                                   37454  1
 006812 4110 7A8C/4100_      06E96 37455  1                      SEGB  ':'
 006824                            37473                       END
                                   37477                       ¿þþþþþþþþþþþþþþþþþþþþþþþþþÜ
                                   37478                       Ÿ  Now add message text.  Ÿ
                                   37479                       ¾þþþþþþþþþþþþþþþþþþþþþþþþþ»
 006824 58E0 B08C/581E_      0008C 37480                       SCINFO ,
 006832 1200/47D0 7440_            37489                       WHILE ((R0,POS),AND,(@R1,EQ,' ')),'LA R1,@R1+1; DECR R0'
 00684A 41F0 8028/58E0_      00000 37529                       SEGT  (R1),(R0)
                                   37553                       ¿þþþþþþþþþþþþþþþþþþþþþþþþþþþþþþþþþþþÜ
                                   37554                       Ÿ  Process "user@host" TO command.  Ÿ
                                   37555                       ¾þþþþþþþþþþþþþþþþþþþþþþþþþþþþþþþþþþþ»
 006854 954D 5000/4780_00000       37556                       IF    (@R5,NE,'('),BEGIN  Single id only...
 00685C 1815                       37572  1                      LR    R1,R5
 00685E 1804                       37573  1                      LR    R0,R4
 006860 1200/47D0 7528             37574  1                      WHILE (R0,POS),BEGIN
 006866 957C 1000/4770_00000       37590  2                        IF    (@R1,EQ,'@'),BEGIN  It's "user@host"...
 00686E 41F0 B050/58E0_      00050 37606  3                          TCLEAR
 006878 4110 7A16/4100_      06E20 37620  3                          TSEG  '$SEND '
 00688A 1815/1804/41F0_            37638  3                          TSEG  (R5),(R4),B         user@host
1TOPS     (TOPS2025) (12:57) (15MAR04) TO Command                                                                           Page   98
0Current Usings:  (*,R7) (TOWA-(4+36),R8) (CP,R11) (CV,R12)
0Loc    Object Code    Addr1 Addr2  Stmt Lv Lineno    Source Statement           (Hibal 5, Asmedit 3.3)  HLASM R4.0  2004/03/15 12.57
+___    ______ ____    _____ _____  ____ __ ______    ______ _________
0                                  37664  3
 006898 5810 8048/5800_      00020 37665  3                          SETMSG L:TOSGLOC,L:TOSGLENF
 0068A0 4110 1012            00012 37677  3                          LA    R1,@R1+18
 0068A4 4B00 7A1C            06E26 37678  3                          SH    R0,=H'18'           Skip past MILTEN hdr
                                   37679  3
 0068A8 5900 7986/47D0_      06D90 37680  3                          IF    (R0,GT,160),BEGIN   Command is too long...
 0068B0 4B00 7A1E            06E28 37697  4                            SH    R0,=H'160'
 0068B4 1820                       37698  4                            LR    R2,R0
 0068B6 41F0 B050/58E0_      00050 37699  4                            TCLEAR
 0068C0 4110 7A8D/4100_      06E97 37713  4                            TSEG  'Command is '
 0068D2 1812/1B00/41F0_            37731  4                            TNUM  (R2)
 0068E0 4110 7A98/4100_      06EA2 37753  4                            ERROR ' characters too long.'
 0068EC                            37760  3                          END
                                   37764  3
 0068EC 41F0 B050/58E0_      00050 37765  3                          TSEG  (R1),(R0)
                                   37789  3
 0068F6 181D/41D0 D100             37790  3                          XPUSH ,,256,PTR=R1
 0068FC 5800 B05C            0005C 37793  3                          L     R0,CPSEGLENF
 006900 5820 B070            00070 37794  3                          L     R2,CPSEGLOC
 006904 18F0                       37795  3                          LR    R15,R0
 006906 06F0/12FF/4740_            37796  3                          MOVE  R15,@R1,@R2         Save $SEND command
 006912 41F0 B050/58E0_      00050 37834  3                          TCLEAR
                                   37848  3
 00691C 1BFF                       37849  3                          CLEAR R15
 00691E 58E0 798A/0DEE       06D94 37853  3                          VCALL JESSND              Send the command to JES
 006924 47F0 C7DE            007DE 37857  3                          B     CVNEXT
 006928                            37858  2                        END
                                   37862  2
 006928 4110 1001            00001 37863  2                        LA    R1,@R1+1
 00692C 0600                       37864  2                        DECR  R0
 00692E 47F0 7456            06860 37866  1                      END
 006932                            37871                       END
                                   37875                       ¿þþþþþþþþþþþþþþþþþþþþþþþÜ
                                   37876                       Ÿ  Process line-range.  Ÿ
                                   37877                       ¾þþþþþþþþþþþþþþþþþþþþþþþ»
 006932 1815/1804/58E0_            37878                       SCINIT (R5),(R4)          Line-range
 006944 4100 0320            00320 37900                       LA    R0,RNGTSES*256+L'RNGFMULT
 006948 58E0 B08C/D203_      0008C 37901                       SETSCKWS GETRPRT
 006956 41F0 8064            0003C 37914                       LA    R15,TORNG
 00695A 58E0 794A/0DEE       06D54 37915                       ACALL GETTRNG
 006960 4780 C7DA            007DA 37919                       BZ    CVABORT
                                   37920
 006964 1B00                       37921                       CLEAR R0                  No selection co-routine
 006966 4110 7578            06982 37925                       LA    R1,TORTN            Range co-routine
 00696A 58E0 794E/0DEE       06D58 37926                       ACALL TRANGE
 006970 47F0 C7DE            007DE 37930                       B     CVNEXT
 006974 18D8/9808 D004_            37931                       PEND
 DROP   TOWA-(4+36),R8
 DROP   *,R7
                                   37956
1TOPS     (TOPS2025) (12:57) (15MAR04) TO Command                                                                           Page   99
0Current Usings:  (CP,R11) (CV,R12)
0Loc    Object Code    Addr1 Addr2  Stmt Lv Lineno    Source Statement           (Hibal 5, Asmedit 3.3)  HLASM R4.0  2004/03/15 12.57
+___    ______ ____    _____ _____  ____ __ ______    ______ _________
0                                  37958              ¿þþþþþþþþþþþþþþþþþþþþþþþþþþþþþþþþþþþþþþþþþþþþþþþþþþþþþþþþþþþþþþþþþþþþþÜ
                                   37959              Ÿ                                                                     Ÿ
                                   37960              Ÿ  TORTN -- TO command range co-routine.                              Ÿ
                                   37961              Ÿ                                                                     Ÿ
                                                      ¾þþþþþþþþþþþþþþþþþþþþþþþþþþþþþþþþþþþþþþþþþþþþþþþþþþþþþþþþþþþþþþþþþþþþþ»
0006982 50E0 D000/9008_      00000 37962              TORTN    PROC
 USING  *,R7
 00699C 5860 BCA4            00CA4 38001                       L     R6,CPCWA
 USING  TOWA,R6                    38002                       USING TOWA,R6
 0069A0 1851                       38011                       LR    R5,R1
 USING  SIB,R5                     38012                       USING SIB,R5
 0069A2 184F                       38021                       LR    R4,R15
 USING  RNGCB,R4                   38022                       USING RNGCB,R4
                                   38031                       ¿þþþþþþþþþþþþþþþþþþþþþþþþþþþþþþþþþþþþþþþþþþÜ
                                   38032                       Ÿ  Complain about NOCOMM/NOMSG being set.  Ÿ
                                   38033                       ¾þþþþþþþþþþþþþþþþþþþþþþþþþþþþþþþþþþþþþþþþþþ»
 0069A4 91C0 50AA/4780_000AA       38034                       IF    SIBFNMSG+SIBFNCOM,BEGIN  Nomsg or nocomm will block...
 0069AC 4110 751B/4100_      06EB7 38052  1                      TSEG  '-'
 0069BE 1F11/BF13 5004_            38070  1                      TNUM  L2:SIBNO,4
 0069D2 4110 751C/4100_      06EB8 38101  1                      TSEG  ','
 0069E4 4110 5073/4100_      00073 38119  1                      TSEG  SIBGRP
 0069F6 4110 74F4/4100_      06E90 38147  1                      TSEG  '.'
 006A08 4110 5070/4100_      00070 38165  1                      TSEG  SIBUSER
 006A1A 4110 748E/4100_      06E2A 38193  1                      TSEG  ': '
                                   38211  1
 006A2C 4110 73FC/4100_      06D98 38212  1                      TSEG  'Message not sent to '
 006A3E 41F0 5000            00000 38230  1                      LA    R15,SIB
 006A42 58E0 7410/0DEE       06DAC 38231  1                      ACALL TSEGLID             "line n Jim Nisbet", etc.
 006A48 4110 751D/4100_      06EB9 38235  1                      TSEG  ' because '
 006A5A 4110 7490/4100_      06E2C 38253  1                      SETMSG 'nocomm'
 006A62 9180 50AA/47E0_000AA       38257  1                      IF    SIBFNMSG,'SETMSG "nomsg"'
 006A72 41F0 B050/58E0_      00050 38281  1                      TSEG  (R1),(R0)
 006A7C 4110 7394/4100_      06D30 38305  1                      TSEG  ' is set.',,WR
 006A8E 47F0 72B0            06C4C 38323  1                      B     TOREXIT
 006A92                            38324                       END
                                   38328
 006A92 9501 5048/4780_00048       38329                       IF    ~SIBTCONS,BEGIN
 006A9A 4110 7496/4100_      06E32 38344  1                      TSEG  X'2F15'             Bel,cr
 006AAC 4820 401A            0001A 38362  1                      LH    R2,RNGN
 006AB0 4122 401C            0001C 38363  1                      LA    R2,RNG(R2)          Current rne
 USING  RNE,R2                     38364  1                      WITH  (RNE,R2)
 006AB4 D507 739C 2010_06D38 00010 38377  1                      IF    (RNETEXT,EQ,'OPERATOR'),'TSEG "(OPER)",,B'
 DROP   RNE,R2                     38417                       END
                                   38426
 006AD0 5810 6020/5800_      00020 38427                       TSEG  L:TOSGLOC,L:TOSGLENF
                                   38453
 006AE2 9501 5048/4780_00048       38454                       IF    ~SIBTCONS,'TSEG X"15"'
                                   38492                       ¿þþþþþþþþþþþþþþþþþþþþþÜ
                                   38493                       Ÿ  Send the message.  Ÿ
                                   38494                       ¾þþþþþþþþþþþþþþþþþþþþþ»
 006AFC 5810 5000            00000 38495                       L     R1,SIBID            Session id
 006B00 58E0 7414/0DEE       06DB0 38496                       VCALL TASWRITE            Async write
 006B06 4780 721A            06BB6 38500                       IF    NZ,BEGIN            Couldn't sent it...
1TOPS     (TOPS2025) (12:57) (15MAR04) TO Command                                                                           Page  100
0Current Usings:  (RNGCB,R4) (SIB,R5) (TOWA,R6) (*,R7) (CP,R11) (CV,R12)
0Loc    Object Code    Addr1 Addr2  Stmt Lv Lineno    Source Statement           (Hibal 5, Asmedit 3.3)  HLASM R4.0  2004/03/15 12.57
+___    ______ ____    _____ _____  ____ __ ______    ______ _________
0006B0A 4110 751B/4100_      06EB7 38511  1                      TSEG  '-'
 006B1C 1F11/BF13 5004_            38529  1                      TNUM  L2:SIBNO,4
 006B30 4110 751C/4100_      06EB8 38560  1                      TSEG  ','
 006B42 4110 5073/4100_      00073 38578  1                      TSEG  SIBGRP
 006B54 4110 74F4/4100_      06E90 38606  1                      TSEG  '.'
 006B66 4110 5070/4100_      00070 38624  1                      TSEG  SIBUSER
 006B78 4110 748E/4100_      06E2A 38652  1                      TSEG  ': '
                                   38670  1
 006B8A 4110 749E/4100_      06E3A 38671  1                      TSEG  'Unable to send message to '
 006B9C 41F0 5000            00000 38689  1                      LA    R15,SIB
 006BA0 58E0 7410/0DEE       06DAC 38690  1                      ACALL TSEGLID             "line n Jim Nisbet", etc.
 006BA6 1B00/41F0 B050_            38694  1                      TWRITE
 006BB2 47F0 72B0            06C4C 38719  1                      B     TOREXIT
 006BB6                            38720                       END
                                   38724                       ¿þþþþþþþþþþþþþþþþþþþþþþÜ
                                   38725                       Ÿ  Normal completion.  Ÿ
                                   38726                       ¾þþþþþþþþþþþþþþþþþþþþþþ»
 006BB6 4110 752C/4100_      06EC8 38727                       TSEG  '+'
 006BC8 1F11/BF13 5004_            38745                       TNUM  L2:SIBNO,4
 006BDC 4110 751C/4100_      06EB8 38776                       TSEG  ','
 006BEE 4110 5073/4100_      00073 38794                       TSEG  SIBGRP
 006C00 4110 74F4/4100_      06E90 38822                       TSEG  '.'
 006C12 4110 5070/4100_      00070 38840                       TSEG  SIBUSER
 006C24 4110 74B8/4100_      06E54 38868                       TSEG  ': Message sent to '
 006C36 41F0 5000            00000 38886                       LA    R15,SIB
 006C3A 58E0 7410/0DEE       06DAC 38887                       ACALL TSEGLID             "line n Jim Nisbet", etc.
 006C40 1B00/41F0 B050_            38891                       TWRITE
                                   38916
 006C4C 18D8/9808 D004_            38917              TOREXIT  PEND
 DROP   *,R7
 DROP   TOWA,R6                    38938                       DROP  TOWA,SIB
 DROP   SIB,R5
1TOPS     (TOPS2025) (12:57) (15MAR04) TO Command                                                                           Page  101
0Current Usings:  (RNGCB,R4) (CP,R11) (CV,R12)
0Loc    Object Code    Addr1 Addr2  Stmt Lv Lineno    Source Statement           (Hibal 5, Asmedit 3.3)  HLASM R4.0  2004/03/15 12.57
+___    ______ ____    _____ _____  ____ __ ______    ______ _________
0                                  38954              ¿þþþþþþþþþþþþþþþþþþþþþþþþþþþþþþþþþþþþþþþþþþþþþþþþþþþþþþþþþþþþþþþþþþþþþÜ
                                   38955              Ÿ                                                                     Ÿ
                                   38956              Ÿ  TSEGLID -- Routine to add the line identification for a session.   Ÿ
                                   38957              Ÿ                                                                     Ÿ
                                   38958              Ÿ     On entry:                                                       Ÿ
                                   38959              Ÿ       R15 - SIB ptr                                                 Ÿ
                                   38960              Ÿ                                                                     Ÿ
                                                      ¾þþþþþþþþþþþþþþþþþþþþþþþþþþþþþþþþþþþþþþþþþþþþþþþþþþþþþþþþþþþþþþþþþþþþþ»
0000000                00000 00014 38961              TUWA     RECORD BEGIN
 000000                            38969  1           TUID       DS    CL20                Working userid area
 000014                00014 00014 38970                       END
                                   38979              þþþþ
 006C5A 50E0 D000/9008_      00000 38980              TSEGLID  PROC  TUWA
 USING  *,R7
 USING  TUWA-(4+36),R8
 006C74 185F                       39030                       LR    R5,R15
 USING  SIB,R5                     39031                       WITH  (SIB,R5)
                                   39044
 006C76 4110 7255/4100_      06EC9 39045                       TSEG  'line '
 006C88 1F11/BF13 5004_            39063                       TNUM  L2:SIBNO            Line number
                                   39091
 006C9A 4110 721F/4100_      06E93 39092                       TSEG  ' '
 006CAC 1B33                       39110                       CLEAR R3                  Flag: assume no user name
 006CAE D613 5082 5082_00082 00082 39114                       IF    (SIBNAME,NZ),BEGIN  Give our user name...
 006CB8 4110 5082/4100_      00082 39130  1                      TSEG  SIBNAME,,TB
 006CCA 4130 0001            00001 39158  1                      LA    R3,1                Flag: we have a user name
 006CCE                            39159                       END
                                   39163
 006CCE 1233/4780 7072_            39164                       IF    (R3,NZ),'TSEG "<"'
 006CE6 41F0 5070            00070 39201                       LA    R15,SIBACCT         Account in uuugg format
 006CEA 4110 8028/4100_      00000 39202                       SETMSG TUID                Put userid here
 006CF2 58E0 7144/0DEE       06DB8 39216                       VCALL GETUID              Get userid for this account
 006CF8 41F0 B050/58E0_      00050 39220                       TSEG  (R1),(R0)           Userid or GG.UUU
 006D02 1233/4780 70A6_            39244                       IF    (R3,NZ),'TSEG ">"'
                                   39281
 006D1A 18D8/9808 D004_            39282                       PEND
 DROP   SIB,R5
 DROP   TUWA-(4+36),R8
 DROP   *,R7
                                   39312
                                   39313                       QLTORG
                                   39400
                                   39401                       QLTORG
1TOPS     (TOPS2025) (12:57) (15MAR04) Subroutines                                                                          Page  102
0Current Usings:  (RNGCB,R4) (CP,R11) (CV,R12)
0Loc    Object Code    Addr1 Addr2  Stmt Lv Lineno    Source Statement           (Hibal 5, Asmedit 3.3)  HLASM R4.0  2004/03/15 12.57
+___    ______ ____    _____ _____  ____ __ ______    ______ _________
0                                  39414              ¿þþþþþþþþþþþþþþþþþþþþþþþþþþþþþþþþþþþþþþþþþþþþþþþþþþþþþþþþþþþþþþþþþþþþþÜ
                                   39415              Ÿ                                                                     Ÿ
                                   39416              Ÿ  GETTRNG -- Routine to scan fe, port, or line range.                Ÿ
                                   39417              Ÿ                                                                     Ÿ
                                   39418              Ÿ    On entry:                                                        Ÿ
                                   39419              Ÿ      R0 - RNGOPT options                                            Ÿ
                                   39420              Ÿ      R1 - scan table for additional options (or zero)               Ÿ
                                   39421              Ÿ      R6 - addressability for RNGOPT options (do not change r6!)     Ÿ
                                   39422              Ÿ      R15 - RNGCB ptr                                                Ÿ
                                   39423              Ÿ                                                                     Ÿ
                                   39424              Ÿ    On exit, R15 (and CC):                                           Ÿ
                                   39425              Ÿ      R15 - UNCHANGED                                                Ÿ
                                   39426              Ÿ      **** NO LONGER ! 0  - error (msg has already been typed)       Ÿ
                                   39427              Ÿ                                                                     Ÿ
                                                      ¾þþþþþþþþþþþþþþþþþþþþþþþþþþþþþþþþþþþþþþþþþþþþþþþþþþþþþþþþþþþþþþþþþþþþþ»
0000000                00000 00200 39428              GETRWA   RECORD BEGIN
 000000                            39436  1           GETRSKIP   DS    XL256               SKIP
 000100                            39437  1           GETRSTOP   DS    XL256               STOP
 000200                00200 00200 39438                       END
                                   39447              *
                                   39448              *
 006ED8 50E0 D000/9008_      00000 39449              GETTRNG  XPROC GETRWA
 USING  *,R7
 USING  GETRWA-(4+36),R8
 006EF2 185F                       39500                       LR    R5,R15
 USING  RNGCB,R5                   39501                       USING RNGCB,R5
 006EF4 D7FF 5000 5000_00000 00000 39510                       CLEAR RNGCB
 006F06 5000 5000            00000 39519                       ST    R0,RNGOPT
 006F0A 58E0 B08C/1BFF_      0008C 39520                       SETSKIP ,
 006F14 58E0 B08C/1BFF_      0008C 39529                       SETSTOP ,
 006F1E 5810 B08C/1B00_      0008C 39538                       SCAN  TABLES=NOSET
 006F2A 58E0 7BFA/0DEE       07AEC 39549                       SCANCHK
 006F30 59F0 7BFE/4780_      07AF0 39554                       IF    (R15,EQ,4),RFIN     nothing was scanned
 006F38 59F0 7C02/4770_      07AF4 39574                       IF    (R15,EQ,8),BEGIN    unrecognized was scanned
 006F40 954D 1000/4780_00000       39591  1                      IF    (@R1,NE,'('),BEGIN  try to add range spec
 006F48 58E0 B08C/58FE_      0008C 39607  2                        SCBKUP
 006F7E 58E0 7C06/0DEE       07AF8 39663  2                        ACALL ADDRNG
 006F84                            39667  1                      END
 006F84 7096/47F0 70D2 06F84 06F46 39671  1                      ELSE  BEGIN               Multiple items...
 006F88 58E0 B08C/D2AF_      0008C 39682  2                        SCPUSH ,
 006F96 4B00 7C66            07B58 39688  2                        SH    R0,=Y(2)
 006F9A 4110 1001/58E0_      00001 39689  2                        SCINIT @R1+1,(R0)
 006FAC                            39712  2                        LOOP  BEGIN
 006FAC 58E0 7C06/0DEE       07AF8 39718  3                          ACALL ADDRNG
 006FB2 4780 70BA            06FAC 39722  2                        WHILE Z,END
 006FB6 58E0 B08C/4BD0_      0008C 39738  2                        SCPOP
 006FC4                            39744  1                      END
 006FC4                            39748                       END
                                   39752
                                   39753                       COMMENT                   continue scan
 006FC4 5810 B08C/1B00_      0008C 39754                       SCAN  TABLES=NOSET
 006FD0 58E0 7BFA/0DEE       07AEC 39765                       SCANCHK
 006FD6 59F0 7BFE/4780_      07AF0 39770                       IF    (R15,EQ,4),RFIN     nothing was scanned
1TOPS     (TOPS2025) (12:57) (15MAR04) Subroutines                                                                          Page  103
0Current Usings:  (RNGCB,R4) (RNGCB,R5) (*,R7) (GETRWA-(4+36),R8) (CP,R11) (CV,R12)
0Loc    Object Code    Addr1 Addr2  Stmt Lv Lineno    Source Statement           (Hibal 5, Asmedit 3.3)  HLASM R4.0  2004/03/15 12.57
+___    ______ ____    _____ _____  ____ __ ______    ______ _________
0006FDE 59F0 7C02/4770_      07AF4 39790                       IF    (R15,EQ,8),BEGIN    unrecognized was scanned
 006FE6 58E0 7C0A/0DEE       07AFC 39807  1                      VCALL NOTVALID            HEY,,, THIS IS STRONG EXIT
 006FEC                            39811                       END
                                   39815
 006FEC D601 5018 5018_00018 00018 39816              RFIN     IF    (RNGM,Z),BEGIN      If nothing,,, set default or err
 006FF6 1B00                       39833  1                      CLEAR R0
 006FF8 9140 5003/47E0_00003       39837  1                      IF    RNGFDOUR,'SETMSG "*"'
 007008 9180 500C/4710_0000C       39861  1                      IF    (RNGFALL,OR,RNGFDALL),'SETMSG "ALL"'
 007020 1200/4770 7176             39899  1                      IF    (R0,Z),BEGIN
 007026 4110 7C72/4100_      07B64 39913  2                        SETMSG 'MISSING RANGE'
 00702E 9501 5002/4770_00002       39917  2                        IF    (RNGTYPE,EQ,RNGTFE),'SETMSG "Missing front-end range."'
 00703E 9502 5002/4770_00002       39944  2                        IF    (RNGTYPE,EQ,RNGTPORT),'SETMSG "Missing port range."'
 00704E 9503 5002/4770_00002       39971  2                        IF    (RNGTYPE,EQ,RNGTSES),'SETMSG "Missing line range."'
 00705E D207 B886 7BE6_00886 07AD8 39998  2                        ERROR (R1),(R0),WR
 007068                            40012  1                      END
 007068 58E0 B08C/D2AF_      0008C 40016  1                      SCPUSH
 007076 58E0 B08C/501E_      0008C 40022  1                      SCINIT (R1),(R0)
 007084 58E0 7C06/0DEE       07AF8 40042  1                      ACALL  ADDRNG
 00708A 58E0 B08C/4BD0_      0008C 40046  1                      SCPOP
 007098                            40052                       END
                                   40056
 007098 18F5                       40057                       LR    R15,R5              RNGCB ptr
 00709A 18D8/9808 D004_            40058                       PEND
 DROP   GETRWA-(4+36),R8
 DROP   *,R7
1TOPS     (TOPS2025) (12:57) (15MAR04) Subroutines                                                                          Page  104
0Current Usings:  (RNGCB,R4) (RNGCB,R5) (CP,R11) (CV,R12)
0Loc    Object Code    Addr1 Addr2  Stmt Lv Lineno    Source Statement           (Hibal 5, Asmedit 3.3)  HLASM R4.0  2004/03/15 12.57
+___    ______ ____    _____ _____  ____ __ ______    ______ _________
0                                  40084              *
 0070A8 4040404040404040_          40085              GETRPRT  SCKW  ,GETRPSH,PUSH
 0070D0 4040404040404040_          40100                       SCKW  ,,END
                                   40115
 0070F8 50E0 D000/9008_      00000 40116              GETRPSH  XPUSHRTN GETRKWS
 USING  *,R7
 DROP   *,R7
                                   40184
 007130 4040404040404040_          40185              GETRKWS  SCKW  ,RNULL,NULL
 007158 D4E4D3E3C9D7D3C5_          40200                       SCKW  MULTIPLE,RMULT,A
 007180 E5C5D9C9C6E84040_          40215                       SCKW  VERIFY,RVER,A
 0071A8 D5D6E5C5D9C9C6E8_          40230                       SCKW  NOVERIFY,RNOVER,A
 0071D0 D3C9E2E340404040_          40245                       SCKW  LIST,RLIST,A
 0071F8 D5D6D3C9E2E34040_          40260                       SCKW  NOLIST,RNOLIST,A
 007220 C1D3D34040404040_          40275                       SCKW  ALL,RALL
 007248 C3D6D5E2D6D3C540_          40290                       SCKW  CONSOLE,RCONSOLE,A
 007270 E5C9D9E3E4C1D340_          40305                       SCKW  VIRTUAL,RVIRTUAL,A
 007298 E2D4C64040404040_          40320                       SCKW  SMF,RSMF
 0072C0 4040404040404040_          40335                       SCKW  ,V(COLLPSH),PUSH
 0072E8 4040404040404040_          40350                       SCKW  ,RUNREC
                                   40365
 007310 50E0 D000/9008_      00000 40366              RNULL    PROC
 USING  *,R7
 00732A 41F0 0004            00004 40405                       LA    R15,4
 00732E 18D8/9808 D004_            40406                       PEND
 DROP   *,R7
                                   40426
 00733C 50E0 D000/9008_      00000 40427              RUNREC   PROC
 USING  *,R7
 007356 41F0 0008            00008 40466                       LA    R15,8
 00735A 18D8/9808 D004_            40467                       PEND
 DROP   *,R7
                                   40487
 007368 50E0 D000/9008_      00000 40488              RMULT    PROC
 USING  *,R7
 007382 9620 5003      00003       40527                       SET   RNGFMULT
 007386 18D8/9808 D004_            40533                       PEND
 DROP   *,R7
                                   40553
 007394 50E0 D000/9008_      00000 40554              RSMF     PROC
 USING  *,R7
 0073AE 9604 500C      0000C       40593                       SET   RNGFSMF
 0073B2 18D8/9808 D004_            40599                       PEND
 DROP   *,R7
                                   40619
 0073C0 50E0 D000/9008_      00000 40620              RVER     PROC
 USING  *,R7
 0073DA 9608 5003      00003       40659                       SET   RNGFVER
 0073DE 18D8/9808 D004_            40665                       PEND
 DROP   *,R7
                                   40685
 0073EC 50E0 D000/9008_      00000 40686              RNOVER   PROC
 USING  *,R7
 007406 94F7 5003      00003       40725                       CLEAR RNGFVER
1TOPS     (TOPS2025) (12:57) (15MAR04) Subroutines                                                                          Page  105
0Current Usings:  (RNGCB,R4) (RNGCB,R5) (CP,R11) (CV,R12)
0Loc    Object Code    Addr1 Addr2  Stmt Lv Lineno    Source Statement           (Hibal 5, Asmedit 3.3)  HLASM R4.0  2004/03/15 12.57
+___    ______ ____    _____ _____  ____ __ ______    ______ _________
000740A 18D8/9808 D004_            40732                       PEND
 DROP   *,R7
                                   40752
 007418 50E0 D000/9008_      00000 40753              RLIST    PROC
 USING  *,R7
 007432 9610 5003      00003       40792                       SET   RNGFLIST
 007436 18D8/9808 D004_            40798                       PEND
 DROP   *,R7
                                   40818
 007444 50E0 D000/9008_      00000 40819              RNOLIST  PROC
 USING  *,R7
 00745E 94EF 5003      00003       40858                       CLEAR RNGFLIST
 007462 18D8/9808 D004_            40865                       PEND
 DROP   *,R7
                                   40885
 007470 50E0 D000/9008_      00000 40886              RALL     PROC
 USING  *,R7
 00748A 9680 500C      0000C       40925                       SET   RNGFALL
 00748E 18D8/9808 D004_            40931                       PEND
 DROP   *,R7
                                   40951
 00749C 50E0 D000/9008_      00000 40952              RCONSOLE PROC
 USING  *,R7
 0074B6 9680 500C      0000C       40991                       SET   RNGFALL
 0074BA 9201 500E      0000E       40997                       MVI   RNGTTYPE,L'SIBTCONS
 0074BE 18D8/9808 D004_            40998                       PEND
 DROP   *,R7
                                   41018
 0074CC 50E0 D000/9008_      00000 41019              RVIRTUAL PROC
 USING  *,R7
 0074E6 9680 500C      0000C       41058                       SET   RNGFALL
 0074EA 9205 500E      0000E       41064                       MVI   RNGTTYPE,L'SIBTVIRT
 0074EE 18D8/9808 D004_            41065                       PEND
 DROP   *,R7
1TOPS     (TOPS2025) (12:57) (15MAR04) Subroutines                                                                          Page  106
0Current Usings:  (RNGCB,R4) (RNGCB,R5) (CP,R11) (CV,R12)
0Loc    Object Code    Addr1 Addr2  Stmt Lv Lineno    Source Statement           (Hibal 5, Asmedit 3.3)  HLASM R4.0  2004/03/15 12.57
+___    ______ ____    _____ _____  ____ __ ______    ______ _________
0                                  41086              ¿þþþþþþþþþþþþþþþþþþþþþþþþþþþþþþþþþþþþþþþþþþþþþþþþþþþþþþþþþþþþþþþþþþþþþÜ
                                   41087              Ÿ                                                                     Ÿ
                                   41088              Ÿ  ADDRNG -- Local routine to add item to range.                      Ÿ
                                   41089              Ÿ                                                                     Ÿ
                                   41090              Ÿ    On entry:  scanner set up for scan                               Ÿ
                                   41091              Ÿ                                                                     Ÿ
                                   41092              Ÿ    On exit, R15 (and CC):                                           Ÿ
                                   41093              Ÿ      4 - nothing left to scan                                       Ÿ
                                   41094              Ÿ      0 - ok                                                         Ÿ
                                                      ¾þþþþþþþþþþþþþþþþþþþþþþþþþþþþþþþþþþþþþþþþþþþþþþþþþþþþþþþþþþþþþþþþþþþþþ»
0000000                00000 00200 41095              ARNGWA   RECORD BEGIN
 000000                            41103  1           ARNGSKIP   DS    256X
 000100                            41104  1           ARNGSTOP   DS    256X
 000200                00200 00200 41105                       END
                                   41114              *
                                   41115              *
 0074FC 50E0 D000/9008_      00000 41116              ADDRNG   PROC  ARNGWA
 USING  *,R7
 USING  ARNGWA-(4+36),R8
 007516 4830 5018            00018 41166                       LH    R3,RNGM
 00751A 5930 75F2/4750_      07B08 41167                       IF    (R3,GE,RNG#*L'RNG),BEGIN
 007522 41F0 B050/58E0_      00050 41184  1                      TSEG  (R1),(R0)
 00752C D207 B886 75C2_00886 07AD8 41208  1                      ERROR ': invalid -- too many items.',,WR
 00753E                            41216                       END
 00753E 4143 501C            0001C 41220                       LA    R4,RNG(R3)
 DROP   RNGCB,R4                   41221                       USING RNE,R4
 USING  RNE,R4
 007542 D72F 4000 4000 00000 00000 41233                       CLEAR RNE
                                   41240
 007548 9503 5002/4770_00002       41241                       IF    (RNGTYPE,EQ,RNGTSES),BEGIN
 007550 58E0 B08C/D203_      0008C 41259  1                      SCPUSH TABLES
 00756A 58E0 B08C/41F0_      0008C 41267  1                      SETSKIP ARNGSKIP,' ,='
 007598 58E0 B08C/41F0_      0008C 41288  1                      SETSTOP ARNGSTOP,'(W)-(-)'     dont isolate "-"
 0075C6 58E0 B08C/D203_      0008C 41309  1                      SETSCKWS RIPRTU
 0075D4 5810 B08C/1B00_      0008C 41322  1                      SCAN  TABLES=NOSET
 0075E0 58E0 B08C/4BD0_      0008C 41333  1                      SCPOP TABLES
 0075FA 58E0 75D6/0DEE       07AEC 41341  1                      SCANCHK
 007600                            41346                       END
 007600 70EE/47F0 719E 07600 0754E 41350                       ELSE  BEGIN
 007604 58E0 B08C/D203_      0008C 41361  1                      SCPUSH TABLES
 00761E 58E0 B08C/41F0_      0008C 41369  1                      SETSKIP ARNGSKIP,' ,='
 00764C 58E0 B08C/41F0_      0008C 41390  1                      SETSTOP ARNGSTOP,'(W)-(-)'     dont isolate "-"
 00767A 58E0 B08C/D203_      0008C 41411  1                      SETSCKWS RIPRT
 007688 5810 B08C/1B00_      0008C 41424  1                      SCAN  TABLES=NOSET
 007694 58E0 B08C/4BD0_      0008C 41435  1                      SCPOP TABLES
 0076AE 58E0 75D6/0DEE       07AEC 41443  1                      SCANCHK
 0076B4                            41448                       END
 0076B4 59F0 75DA/4770_      07AF0 41452                       IF    (R15,EQ,4),BEGIN    null scan
 0076BC                            41469                       END
 0076BC 59F0 75DE/4770_      07AF4 41473                       IF    (R15,EQ,8),BEGIN    regurlar item scan
 0076C4 4830 5018            00018 41490  1                      LH    R3,RNGM
 0076C8 4133 0030            00030 41491  1                      LA    R3,L'RNG(R3)
 0076CC 4030 5018            00018 41492  1                      STH   R3,RNGM
1TOPS     (TOPS2025) (12:57) (15MAR04) Subroutines                                                                          Page  107
0Current Usings:  (RNE,R4) (RNGCB,R5) (*,R7) (ARNGWA-(4+36),R8) (CP,R11) (CV,R12)
0Loc    Object Code    Addr1 Addr2  Stmt Lv Lineno    Source Statement           (Hibal 5, Asmedit 3.3)  HLASM R4.0  2004/03/15 12.57
+___    ______ ____    _____ _____  ____ __ ______    ______ _________
00076D0 1BFF                       41493  1                      CLEAR R15
 0076D2                            41497                       END
 0076D2 18D8/9808 D004_            41501                       PEND
 DROP   ARNGWA-(4+36),R8
 DROP   *,R7
                                   41526              *
                                   41527              *  ADDRNG  --  SCKWS
                                   41528              *
 0076E0 4040404040404040_          41529              RIPRTU   SCKW  ,ADDRNULL,NULL
 007708 C1C3C3D6E4D5E340_          41544                       SCKW  ACCOUNT,RIACCT,(A,P)
 007730 C1C3C3E340404040_          41559                       SCKW  ACCT,RIACCT,P
 007758 E4E2C5D940404040_          41574                       SCKW  USER,RIUSER,(A,P)
 007780 E4E2D94040404040_          41589                       SCKW  USR,RIUSER,P
 0077A8 C7D9D6E4D7404040_          41604                       SCKW  GROUP,RIGROUP,(A,P)
 0077D0 C7D9D74040404040_          41619                       SCKW  GRP,RIGROUP,P
 0077F8 D6D7C5D9C1E3D6D9_          41634                       SCKW  OPERATOR,RIOPER,A
 007820 D6D7D94040404040_          41649                       SCKW  OPR,RIOPER
 007848 F040404040404040_          41664                       SCKW  0,RIOPER
 007870 4040404040404040_          41679              RIPRT    SCKW  ,ADDRNULL,NULL
 007898 4040404040404040_          41694                       SCKW  ,RINAME
                                   41709
 0078C0 50E0 D000/9008_      00000 41710              ADDRNULL PROC
 USING  *,R7
 0078DA 41F0 0004            00004 41749                       LA    R15,4
 0078DE 18D8/9808 D004_            41750                       PEND
 DROP   *,R7
                                   41770
 0078EC 50E0 D000/9008_      00000 41771              RIACCT   PROC
 USING  *,R7
 007906 5810 B08C/4111_      0008C 41810                       SCUPTOK R1                Upper case scanned token
 00790E 5900 7236/4780_      07B3C 41814                       IF    (R0,NE,6),'VCALL NOTVALID'
 00791C 954B 1002/4780_00002       41840                       IF    ((@R1+2,NE,'.'),AND,(@R1+3,NE,'$')),'VCALL NOTVALID'
 007932 58E0 723A/0DEE       07B40 41880                       ACALL RINAME
 007938 41F0 0008            00008 41884                       LA    R15,8
 00793C 18D8/9808 D004_            41885                       PEND
 DROP   *,R7
                                   41905
 00794A 50E0 D000/9008_      00000 41906              RIUSER   PROC
 USING  *,R7
 007964 5810 B08C/4111_      0008C 41945                       SCUPTOK R1                Upper case scanned token
 00796C 5900 71E0/4780_      07B44 41949                       IF    (R0,NE,3),'VCALL NOTVALID'
 00797A 5810 B08C/4111_      0008C 41975                       SCUPTOK R1
 007982 D21F 4010 C4D8 00010 004D8 41979                       MVC   RNETEXT,CVBLANKS
 007988 9250 4010      00010       41980                       MVI   RNETEXT,C'&&'
 00798C D202 4011 1000 00011 00000 41981                       MVC   RNETEXT+1(3),@R1
 007992 5A00 C4D0            004D0 41982                       A     R0,CVONE
 007996 4200 4000            00000 41983                       STC   R0,RNELEN
 00799A 41F0 0008            00008 41984                       LA    R15,8
 00799E 18D8/9808 D004_            41985                       PEND
 DROP   *,R7
                                   42005
 0079AC 50E0 D000/9008_      00000 42006              RIGROUP  PROC
 USING  *,R7
 0079C6 5810 B08C/4111_      0008C 42045                       SCUPTOK R1                Upper case scanned token
1TOPS     (TOPS2025) (12:57) (15MAR04) Subroutines                                                                          Page  108
0Current Usings:  (RNE,R4) (RNGCB,R5) (*,R7) (CP,R11) (CV,R12)
0Loc    Object Code    Addr1 Addr2  Stmt Lv Lineno    Source Statement           (Hibal 5, Asmedit 3.3)  HLASM R4.0  2004/03/15 12.57
+___    ______ ____    _____ _____  ____ __ ______    ______ _________
00079CE 5900 7182/47D0_      07B48 42049                       IF    (R0,GT,2),'VCALL NOTVALID'
 0079DC D21F 4010 C4D8 00010 004D8 42075                       MVC   RNETEXT,CVBLANKS
 0079E2 927C 4010      00010       42076                       MVI   RNETEXT,C'@'
 0079E6 18F0                       42077                       LR    R15,R0
 0079E8 06F0/12FF/4740_            42078                       MOVE  R15,RNETEXT+1,@R1
 0079F4 5A00 C4D0            004D0 42116                       A     R0,CVONE
 0079F8 4200 4000            00000 42117                       STC   R0,RNELEN
 0079FC 41F0 0008            00008 42118                       LA    R15,8
 007A00 18D8/9808 D004_            42119                       PEND
 DROP   *,R7
                                   42139
 007A0E 50E0 D000/9008_      00000 42140              RIOPER   PROC
 USING  *,R7
 007A28 9680 4001      00001       42179                       SET   RNEFMULT
 007A2C D207 4010 70B8 00010 07AE0 42185                       MVC   RNETEXT(8),=C'OPERATOR'
 007A32 4100 0008            00008 42186                       LA    R0,8
 007A36 4200 4000            00000 42187                       STC   R0,RNELEN
 007A3A 41F0 0008            00008 42188                       LA    R15,8
 007A3E 18D8/9808 D004_            42189                       PEND
 DROP   *,R7
                                   42209
 007A4C 50E0 D000/9008_      00000 42210              RINAME   PROC
 USING  *,R7
 007A66 58E0 70E6/0DEE       07B4C 42249                       VCALL DEQUOTE
 007A6C 47B0 701C            07A82 42253                       IF    NEG,BEGIN           NOT QUOTED
 007A70 58F0 B08C/4110_      0008C 42264  1                      SCUPCASE RNETEXT          UPPER CASE BLANK PAD TOKEN
 007A82                            42285                       END
 007A82 7020/47F0 7044 07A82 07A6E 42289                       ELSE  BEGIN               IF QUOTED
 007A86 9680 4004      00004       42300  1                      SET   RNEFQ
 007A8A D21F 4010 C4D8 00010 004D8 42306  1                      MVC   RNETEXT,CVBLANKS
 007A90 5900 70EE/47D0_      07B54 42307  1                      CEIL  R0,L'RNETEXT
 007A9C 18F0                       42326  1                      LR    R15,R0
 007A9E 06F0/12FF/4740_            42327  1                      MOVE  R15,RNETEXT,@R1
 007AAA                            42365                       END
 007AAA 4200 4000            00000 42369                       STC   R0,RNELEN
 007AAE 41F0 0008            00008 42370                       LA    R15,8
 007AB2 18D8/9808 D004_            42371                       PEND
 DROP   *,R7
 DROP   RNE,R4                     42391                       DROP  RNE,RNGCB
 DROP   RNGCB,R5
1TOPS     (TOPS2025) (12:57) (15MAR04) Subroutines                                                                          Page  109
0Current Usings:  (CP,R11) (CV,R12)
0Loc    Object Code    Addr1 Addr2  Stmt Lv Lineno    Source Statement           (Hibal 5, Asmedit 3.3)  HLASM R4.0  2004/03/15 12.57
+___    ______ ____    _____ _____  ____ __ ______    ______ _________
0                                  42407                       QLTORG
1TOPS     (TOPS2025) (12:57) (15MAR04) Subroutines                                                                          Page  110
0Current Usings:  (CP,R11) (CV,R12)
0Loc    Object Code    Addr1 Addr2  Stmt Lv Lineno    Source Statement           (Hibal 5, Asmedit 3.3)  HLASM R4.0  2004/03/15 12.57
+___    ______ ____    _____ _____  ____ __ ______    ______ _________
0                                  42456              ¿þþþþþþþþþþþþþþþþþþþþþþþþþþþþþþþþþþþþþþþþþþþþþþþþþþþþþþþþþþþþþþþþþþþþþÜ
                                   42457              Ÿ                                                                     Ÿ
                                   42458              Ÿ  TRANGE -- Routine to process range.                                Ÿ
                                   42459              Ÿ                                                                     Ÿ
                                   42460              Ÿ    On entry:                                                        Ÿ
                                   42461              Ÿ      R0 - range selection co-routine addr                           Ÿ
                                   42462              Ÿ      R1 - range co-routine addr                                     Ÿ
                                   42463              Ÿ      R15- RNGCB ptr                                                 Ÿ
                                   42464              Ÿ                                                                     Ÿ
                                   42465              Ÿ    On exit, R15 (and CC):                                           Ÿ
                                   42466              Ÿ       0 - ok                                                        Ÿ
                                   42467              Ÿ       4 - error                                                     Ÿ
                                   42468              Ÿ                                                                     Ÿ
                                   42469              Ÿ    On entry to co-routine:                                          Ÿ
                                   42470              Ÿ      R15- RNGCB ptr                                                 Ÿ
                                   42471              Ÿ      R0 - range type (see "rngtype")                                Ÿ
                                   42472              Ÿ      R1 - FSB/PSB/SIB ptr                                           Ÿ
                                   42473              Ÿ                                                                     Ÿ
                                                      ¾þþþþþþþþþþþþþþþþþþþþþþþþþþþþþþþþþþþþþþþþþþþþþþþþþþþþþþþþþþþþþþþþþþþþþ»
0000000                00000 0029A 42474              TRNGWA   RECORD BEGIN
 000000                            42482  1           TRNGRNG    DS    XL(L'RNGCB)
 00029A                0029A 0029A 42483                       END
                                   42492              *
                                   42493              *
 007BAE 50E0 D000/9008_      00000 42494              TRANGE   XPROC TRNGWA
 USING  *,R7
 USING  TRNGWA-(4+36),R8
 007BC8 D7FF 8028 8028_00000 00000 42545                       CLEAR TRNGWA
 007BDA 186F                       42554                       LR    R6,R15
 USING  RNGCB,R6                   42555                       USING RNGCB,R6
 007BDC 9001 6004            00004 42564                       STM   R0,R1,RNGCOSEL      Save co-routine addrs
                                   42565
 007BE0 D501 601A 6018_0001A 00018 42566                       WHILE (RNGN,LT,RNGM),BEGIN  go through range items...
 007BEA 4850 601A            0001A 42586  1                      LH    R5,RNGN
 007BEE 4155 601C            0001C 42587  1                      LA    R5,RNG(R5)          Range item
 USING  RNE,R5                     42588  1                      WITH  (RNE,R5)
 007BF2 947F 600D/D7FD_0000D       42601  1                      CLEAR RNGFSOME,RNGITEM
 007BFC D200 600F 6002 0000F 00002 42613  1                      MVC   RNGLTYPE,RNGTYPE    Copy range type
 007C02 9500 600F/4770_0000F       42614  1                      IF    (RNGLTYPE,Z),BEGIN  No range type...
 007C0A 9202 600F      0000F       42630  2                        MVI   RNGLTYPE,RNGTPORT   Assume port range
 007C0E 4110 5010/1F00_      00010 42631  2                        TSEG  RNETEXT,LC:RNELEN
 007C22 4100 0009/58E0_      00009 42662  2                        TCNTL CTLSNST             Sense symbol type
 007C2C 47B0 7072/58E0_      07C3A 42674  2                        IF    NEG,'VCALL MILERR; B CVERROR'
 007C3A 47D0 707A/9201_      07C42 42695  2                        IF    POS,'MVI RNGLTYPE,RNGTFE'  front-end range
 007C42                            42712  1                      END
                                   42716  1
 007C42 58E0 77AC/0DEE       08374 42717  1           RANGELP    ACALL RNGNEXT             Next entry for this item
 007C48 4720 724E            07E16 42721  1                      BP    RNGNX               All done, next item
 007C4C D2FD 619C 1000 0019C 00000 42722  1                      MVC   RNGITEM,@R1
 007C52 9180 5001/4710_00001       42723  1                      IF    ~RNEFMULT,BEGIN     Make sure only one...
 007C5A 58E0 77AC/0DEE       08374 42738  2                        ACALL RNGNEXT
 007C60 4720 71DC            07DA4 42742  2                        IF    POS,EXIT            Fine, only one
 007C64 D502 783E 5010_08406 00010 42756  2                        IF    ((RNETEXT,NE,'ALL'),AND,(RNELEN,NE,3)),BEGIN
1TOPS     (TOPS2025) (12:57) (15MAR04) Subroutines                                                                          Page  111
0Current Usings:  (RNE,R5) (RNGCB,R6) (*,R7) (TRNGWA-(4+36),R8) (CP,R11) (CV,R12)
0Loc    Object Code    Addr1 Addr2  Stmt Lv Lineno    Source Statement           (Hibal 5, Asmedit 3.3)  HLASM R4.0  2004/03/15 12.57
+___    ______ ____    _____ _____  ____ __ ______    ______ _________
0007C76 4110 5010/1F00_      00010 42790  3                          TSEG  RNETEXT,LC:RNELEN
 007C8A 4110 7808/4100_      083D0 42821  3                          TSEG  ': '
 007C9C                            42839  2                        END
 007C9C 4110 7841/4100_      08409 42843  2                        TSEG  'multiple '
 007CAE 4110 784A/4100_      08412 42861  2                        SETMSG 'users'
 007CB6 9502 600F/4770_0000F       42865  2                        IF    (RNGLTYPE,EQ,RNGTPORT),'SETMSG "ports"'
 007CC6 9501 600F/4770_0000F       42892  2                        IF    (RNGLTYPE,EQ,RNGTFE),'SETMSG "front-ends"'
 007CD6 41F0 B050/58E0_      00050 42919  2                        TSEG  (R1),(R0)
 007CE0 4110 7854/4100_      0841C 42943  2                        TSEG  '...',,WR
 007CF2 4770 717C            07D44 42961  2                        BNZ   RNGREPR
 007CF6 4110 619C            0019C 42962  2           RNGMLP       LA    R1,RNGITEM
 007CFA 41F0 6000            00000 42963  2                        LA    R15,RNGCB
 007CFE 41E0 7CD4            0889C 42964  2                        LA    RAR,LINEDISP
 007D02 9502 600F/4770_0000F       42965  2                        IF    (RNGLTYPE,EQ,RNGTPORT),'LA RAR,PORTDISP'
 007D0E 9501 600F/4770_0000F       42989  2                        IF    (RNGLTYPE,EQ,RNGTFE),'LA RAR,NETPDISP'
 007D1A 0DEE                       43013  2                        BASR  RAR,RAR             Go to appropriate default rtn
 007D1C 4770 717C            07D44 43014  2                        BNZ   RNGREPR
 007D20 1B00/41F0 B050_            43015  2                        TWRITE
 007D2C 4770 717C            07D44 43040  2                        BNZ   RNGREPR
 007D30 58E0 77AC/0DEE       08374 43041  2                        ACALL RNGNEXT
 007D36 4770 717C            07D44 43045  2                        IF    Z,BEGIN
 007D3A D2FD 619C 1000 0019C 00000 43056  3                          MVC   RNGITEM,@R1
 007D40 47F0 712E            07CF6 43057  3                          B     RNGMLP
 007D44                            43058  2                        END
 007D44 4110 7814/4100_      083DC 43062  2           RNGREPR      TREAD  'Select',,Q
 007D54 4770 724E            07E16 43077  2                        BNZ   RNGNX
 007D58 58E0 B08C/501E_      0008C 43078  2                        SCINIT (R1),(R0)
 007D66 5800 6000            00000 43098  2                        L     R0,RNGOPT
 007D6A BF02 600F            0000F 43099  2                        ICM   R0,B'0010',RNGLTYPE
 007D6E 5400 77B8            08380 43100  2                        N     R0,=A(-1-L'RNGFDALL-L'RNGFDOUR)
 007D72 58E0 B08C/D203_      0008C 43101  2                        SETSCKWS GETRPRT
 007D80 41F0 8028            00000 43114  2                        LA    R15,TRNGRNG
 007D84 58E0 77C0/0DEE       08388 43115  2                        ACALL GETTRNG
 007D8A 4780 717C            07D44 43119  2                        BZ    RNGREPR
 007D8E 9801 6004            00004 43120  2                        LM    R0,R1,RNGCOSEL      Get co-routines
 007D92 58E0 77C4/0DEE       0838C 43121  2                        ACALL TRANGE              Recursive call
 007D98 4770 717C            07D44 43125  2                        BNZ   RNGREPR
 007D9C 9680 600D      0000D       43126  2                        SET   RNGFSOME
 007DA0 47F0 724E            07E16 43132  2                        B     RNGNX
 007DA4                            43133  1                      END
                                   43137  1
 007DA4 9108 6003/47E0_00003       43138  1                      IF    RNGFVER,BEGIN
 007DAC 4110 619C            0019C 43153  2                        LA    R1,RNGITEM
 007DB0 41F0 6000            00000 43154  2                        LA    R15,RNGCB
 007DB4 41E0 7CD4            0889C 43155  2                        LA    RAR,LINEDISP
 007DB8 9502 600F/4770_0000F       43156  2                        IF    (RNGLTYPE,EQ,RNGTPORT),'LA RAR,PORTDISP'
 007DC4 9501 600F/4770_0000F       43180  2                        IF    (RNGLTYPE,EQ,RNGTFE),'LA RAR,NETPDISP'
 007DD0 0DEE                       43204  2                        BASR  RAR,RAR
 007DD2 1B00/41F0 B050_            43205  2                        TCR
 007DDE 4110 781A/4100_      083E2 43230  2                        SETMSG 'OK'
 007DE6 58E0 77CC/0DEE       08394 43234  2                        VCALL YESRTN
 007DEC 4740 7362            07F2A 43238  2                        BM    RNGERR
 007DF0 4720 707A            07C42 43239  2                        BP    RANGELP
 007DF4                            43240  1                      END
1TOPS     (TOPS2025) (12:57) (15MAR04) Subroutines                                                                          Page  112
0Current Usings:  (RNE,R5) (RNGCB,R6) (*,R7) (TRNGWA-(4+36),R8) (CP,R11) (CV,R12)
0Loc    Object Code    Addr1 Addr2  Stmt Lv Lineno    Source Statement           (Hibal 5, Asmedit 3.3)  HLASM R4.0  2004/03/15 12.57
+___    ______ ____    _____ _____  ____ __ ______    ______ _________
0                                  43244  1
 007DF4 41F0 6000            00000 43245  1                      LA    R15,RNGCB
 007DF8 1F00/4300 600F             43246  1                      LC    R0,RNGLTYPE
 007DFE 4110 619C            0019C 43251  1                      LA    R1,RNGITEM
 007E02 58E0 6008/12EE       00008 43252  1                      LT    RAR,RNGCORTN
 007E08 4780 7246/0DEE       07E0E 43256  1                      IF    NZ,'BASR RAR,RAR'
 007E0E 9680 600D      0000D       43273  1                      SET   RNGFSOME
 007E12 47F0 707A            07C42 43279  1                      B     RANGELP
                                   43280  1
 007E16 9180 600D/4710_0000D       43281  1           RNGNX      IF    ~RNGFSOME,BEGIN     Nothing found...
 007E1E 4110 5010/1F00_      00010 43297  2                        SETMSG RNETEXT,LC:RNELEN
 007E28 5900 77D0/4770_      08398 43314  2                        IF    ((R0,EQ,3),AND,(@R1,EQ,'ALL')),'CLEAR R0'
 007E3C 9503 600F/4770_0000F       43355  2                        IF    (RNGLTYPE,EQ,RNGTSES),BEGIN
 007E44 1200/4770 728E_            43373  3                          IF    (R0,Z),'SETMSG "No users found."; B RNGVM'
 007E56 957C 1000/4770_00000       43397  3                          IF    (@R1,EQ,'@'),BEGIN
 007E5E 9001 D000/41D0_      00000 43413  4                            XPUSH R0,R1
 007E66 4110 7798/4100_      08360 43416  4                            TSEG  'No group',,B
 007E78 4BD0 781C/9801_      083E4 43434  4                            XPOP  R0,R1
 007E80 4110 1001            00001 43437  4                            LA    R1,@R1+1
 007E84 0600                       43438  4                            DECR  R0
 007E86 41F0 B050/58E0_      00050 43440  4                            TSEG  (R1),(R0),B
 007E90 4110 77D8/4100_      083A0 43464  4                            SETMSG 'users found.'
 007E98 47F0 733E            07F06 43468  4                            B     RNGVM
 007E9C                            43469  3                          END
 007E9C 41F0 B050/58E0_      00050 43473  3                          TSEG  (R1),(R0)
 007EA6 4110 7866/4100_      0842E 43497  3                          SETMSG ': user not found.'
 007EAE 47F0 733E            07F06 43501  3                          B     RNGVM
 007EB2                            43502  2                        END
 007EB2 9502 600F/4770_0000F       43506  2                        IF    (RNGLTYPE,EQ,RNGTPORT),BEGIN
 007EBA 1200/4770 7304_            43524  3                          IF    (R0,Z),'SETMSG "No ports found."; B RNGVM'
 007ECC 41F0 B050/58E0_      00050 43548  3                          TSEG  (R1),(R0)
 007ED6 4110 7886/4100_      0844E 43572  3                          SETMSG ': port not found.'
 007EDE 47F0 733E            07F06 43576  3                          B     RNGVM
 007EE2                            43577  2                        END
 007EE2 1200/4770 732C_            43581  2                        IF    (R0,Z),'SETMSG "No front-ends found."; B RNGVM'
 007EF4 41F0 B050/58E0_      00050 43605  2                        TSEG  (R1),(R0)
 007EFE 4110 781E/4100_      083E6 43629  2                        SETMSG ': front-end not found.'
 007F06 41F0 B050/58E0_      00050 43633  2           RNGVM        TSEG  (R1),(R0),WR
 007F10 4770 7362            07F2A 43658  2                        BNZ   RNGERR
 007F14                            43659  1                      END
                                   43663  1
 007F14 48F0 601A            0001A 43664  1                      LH    R15,RNGN
 007F18 41F0 F030            00030 43665  1                      LA    R15,@R15+L'RNE
 007F1C 40F0 601A            0001A 43666  1                      STH   R15,RNGN
 007F20 47F0 7018            07BE0 43667                       END
 DROP   RNE,R5
 007F24 1BFF                       43677                       CLEAR R15
 007F26 47F0 7366            07F2E 43681                       B     RNGEXIT
                                   43682
 007F2A 41F0 0004            00004 43683              RNGERR   LA    R15,4
 007F2E 18D8/9808 D004_            43684              RNGEXIT  PEND
 DROP   TRNGWA-(4+36),R8
 DROP   *,R7
1TOPS     (TOPS2025) (12:57) (15MAR04) Subroutines                                                                          Page  113
0Current Usings:  (RNGCB,R6) (CP,R11) (CV,R12)
0Loc    Object Code    Addr1 Addr2  Stmt Lv Lineno    Source Statement           (Hibal 5, Asmedit 3.3)  HLASM R4.0  2004/03/15 12.57
+___    ______ ____    _____ _____  ____ __ ______    ______ _________
0                                  43711              ¿þþþþþþþþþþþþþþþþþþþþþþþþþþþþþþþþþþþþþþþþþþþþþþþþþþþþþþþþþþþþþþþþþþþþþÜ
                                   43712              Ÿ                                                                     Ÿ
                                   43713              Ÿ  RNGNEXT -- Local routine to get next matching item.                Ÿ
                                   43714              Ÿ    (Note: Entry/exit parameters described in actual routine.)       Ÿ
                                   43715              Ÿ                                                                     Ÿ
                                                      ¾þþþþþþþþþþþþþþþþþþþþþþþþþþþþþþþþþþþþþþþþþþþþþþþþþþþþþþþþþþþþþþþþþþþþþ»
0007F3C 50E0 D000/9008_      00000 43716              RNGNEXT  PROC
 USING  *,R7
 007F56 9501 600F/4770_0000F       43755                       IF     (RNGLTYPE,EQ,RNGTFE),'ACALL NEXTFSB' front-end range
 007F64 7012/47F0 7020_07F64 07F5C 43782                       ELSEIF (RNGLTYPE,EQ,RNGTPORT),'ACALL NEXTPSB' port range
 007F76 7024/47F0 702A_07F76 07F6E 43818                       ELSE   'ACALL NEXTSIB'                       Line range
 007F80 5018 0008            00008 43838                       PRETURN (R1)
 007F84 18D8/9808 D004_            43840                       PEND
 DROP   *,R7
                                   43860              ¿þþþþþþþþþþþþþþþþþþþþþþþþþþþþþþþþþþþþþþþþþþþþþþþþþþþþþþþþþþþþþþþþþþþþþÜ
                                   43861              Ÿ                                                                     Ÿ
                                   43862              Ÿ  NEXTFSB -- Local routine to get next matching fsb.                 Ÿ
                                   43863              Ÿ                                                                     Ÿ
                                   43864              Ÿ    On entry:  RNGITEM - current FSB                                 Ÿ
                                   43865              Ÿ                                                                     Ÿ
                                   43866              Ÿ    On exit, R15 (and CC):                                           Ÿ
                                   43867              Ÿ      0 - ok (R1 - next FSB ptr)                                     Ÿ
                                   43868              Ÿ      4 - all done                                                   Ÿ
                                   43869              Ÿ                                                                     Ÿ
                                                      ¾þþþþþþþþþþþþþþþþþþþþþþþþþþþþþþþþþþþþþþþþþþþþþþþþþþþþþþþþþþþþþþþþþþþþþ»
0007F92 50E0 D000/9008_      00000 43870              NEXTFSB  PROC
 USING  *,R7
 007FAC 4150 619C            0019C 43909                       LA    R5,RNGITEM
 007FB0 4110 5000/4100_      00000 43910                       WITH  (FSB,R5),'TSEG FSBID'  id
 USING  FSB,R5
 DROP   FSB,R5
                                   43961
 007FC2 4840 601A            0001A 43962              NFSBDO   LH    R4,RNGN
 007FC6 4144 601C            0001C 43963                       LA    R4,RNG(R4)          Current range entry
 USING  RNE,R4                     43964                       USING RNE,R4
 007FCA 9120 6003/47E0_00003       43973                       IF    RNGFMULT,'SET RNEFMULT'
 007FD6 9180 600C/47E0_0000C       43999                       IF    RNGFALL,'SET RNEFALL'
 007FE2 1F00/4300 4000             44025                       LC    R0,RNELEN
 007FE8 4A00 7450            083FC 44030                       AH    R0,=Y(L'RNEHDR)
 007FEC 4110 4004/41F0_      00004 44031                       TSEG  RNEHDR,(R0)         Range info
 007FFA 4100 0004/58E0_      00004 44058                       TCNTL CTLSNSF             Sense fsb
 008004 47B0 7066/58E0_      08012 44070                       IF    NEG,'VCALL MILERR; B CVERROR'
 008012 4720 70BE            0806A 44091                       BP    NFSBEXIT
                                   44092
 USING  FSB,R1                     44093                       WITH  (FSB,R1),BEGIN
 008016 9500 600E/4780_0000E       44107  1                      IF    ((RNGTTYPE,NZ),AND,(RNGTTYPE,NE,FSBTYPE)),NFSBNEXT
                                   44143  1
 008028 41F0 6000            00000 44144  1                      LA    R15,RNGCB
 00802C 4100 0001            00001 44145  1                      LA    R0,RNGTFE
 008030 58E0 6004/12EE       00004 44146  1                      LT    RAR,RNGCOSEL        Selection routine
 008036 4780 7094/0DEE_      08040 44150  1                      IF    NZ,'BASR RAR,RAR; BNZ NFSBNEXT'
 008040 1BFF                       44168  1                      CLEAR R15
1TOPS     (TOPS2025) (12:57) (15MAR04) Subroutines                                                                          Page  114
0Current Usings:  (FSB,R1) (RNE,R4) (RNGCB,R6) (*,R7) (CP,R11) (CV,R12)
0Loc    Object Code    Addr1 Addr2  Stmt Lv Lineno    Source Statement           (Hibal 5, Asmedit 3.3)  HLASM R4.0  2004/03/15 12.57
+___    ______ ____    _____ _____  ____ __ ______    ______ _________
0008042 47F0 70BE            0806A 44172  1                      B     NFSBEXIT
                                   44173  1
 008046 182D/41D0 D004             44174  1           NFSBNEXT   XPUSH ,,2,PTR=R2
 00804C D201 2000 1000 00000 00000 44178  1                      MVC   @R2(2),FSBID        Front-end identifier
 008052 1812/4100 0002_            44179  1                      TSEG  (R2),2
 008062 4BD0 7452            083FE 44207  1                      XPOP  ,,2
 008066 47F0 7016            07FC2 44209  1                      B     NFSBDO
 DROP   FSB,R1                     44210                       END
                                   44218
 00806A                            44219              NFSBEXIT LABEL
 00806A 5018 0008            00008 44221                       PRETURN (R1)
 00806E 18D8/9808 D004_            44223                       PEND
 DROP   *,R7
 DROP   RNE,R4                     44243                       DROP  RNE
1TOPS     (TOPS2025) (12:57) (15MAR04) Subroutines                                                                          Page  115
0Current Usings:  (RNGCB,R6) (CP,R11) (CV,R12)
0Loc    Object Code    Addr1 Addr2  Stmt Lv Lineno    Source Statement           (Hibal 5, Asmedit 3.3)  HLASM R4.0  2004/03/15 12.57
+___    ______ ____    _____ _____  ____ __ ______    ______ _________
0                                  44252              ¿þþþþþþþþþþþþþþþþþþþþþþþþþþþþþþþþþþþþþþþþþþþþþþþþþþþþþþþþþþþþþþþþþþþþþÜ
                                   44253              Ÿ                                                                     Ÿ
                                   44254              Ÿ  NEXTPSB -- Local routine to get next matching PSB.                 Ÿ
                                   44255              Ÿ                                                                     Ÿ
                                   44256              Ÿ    On entry:  RNGITEM - current PSB                                 Ÿ
                                   44257              Ÿ                                                                     Ÿ
                                   44258              Ÿ    On exit, R15 (and CC):                                           Ÿ
                                   44259              Ÿ      0 - ok (R1 - next PSB ptr)                                     Ÿ
                                   44260              Ÿ      4 - all done                                                   Ÿ
                                   44261              Ÿ                                                                     Ÿ
                                                      ¾þþþþþþþþþþþþþþþþþþþþþþþþþþþþþþþþþþþþþþþþþþþþþþþþþþþþþþþþþþþþþþþþþþþþþ»
000807C 50E0 D000/9008_      00000 44262              NEXTPSB  PROC
 USING  *,R7
 008096 4150 619C            0019C 44301                       LA    R5,RNGITEM
 00809A 4110 5000/4100_      00000 44302                       WITH  (PSB,R5),'TSEG PSBFEID; TSEG PSBPNO'  id
 USING  PSB,R5
 DROP   PSB,R5
                                   44381
 0080BE 4840 601A            0001A 44382              NPSBDO   LH    R4,RNGN
 0080C2 4144 601C            0001C 44383                       LA    R4,RNG(R4)          Current range entry
 USING  RNE,R4                     44384                       USING RNE,R4
 0080C6 9120 6003/47E0_00003       44393                       IF    RNGFMULT,'SET RNEFMULT'
 0080D2 9180 600C/47E0_0000C       44419                       IF    RNGFALL,'SET RNEFALL'
 0080DE 1F00/4300 4000             44445                       LC    R0,RNELEN
 0080E4 4A00 7366            083FC 44450                       AH    R0,=Y(L'RNEHDR)
 0080E8 4110 4004/41F0_      00004 44451                       TSEG  RNEHDR,(R0)         Range info
 0080F6 4100 0003/58E0_      00003 44478                       TCNTL CTLSNSP             Sense psb
 008100 47B0 7078/58E0_      0810E 44490                       IF    NEG,'VCALL MILERR; B CVERROR'
 00810E 4720 7106            0819C 44511                       BP    NPSBEXIT            All done
                                   44512
 USING  PSB,R1                     44513                       WITH  (PSB,R1),BEGIN
 008112 9500 600E/4780_0000E       44527  1                      IF    ((RNGTTYPE,NZ),AND,(RNGTTYPE,NE,PSBTTYPE)),NPSBNEXT
 008124 9140 600C/47E0_0000C       44563  1                      IF    (RNGFDIAL,AND,~PSBFDIAL),NPSBNEXT
 008134 9110 600C/47E0_0000C       44595  1                      IF    (RNGFDIR,AND,~PSBFDIR),NPSBNEXT
 008144 9108 600C/47E0_0000C       44627  1                      IF    (RNGFLEAS,AND,~PSBFLEAS),NPSBNEXT
                                   44659  1
 008154 41F0 6000            00000 44660  1                      LA    R15,RNGCB
 008158 4100 0002            00002 44661  1                      LA    R0,RNGTPORT
 00815C 58E0 6004/12EE       00004 44662  1                      LT    RAR,RNGCOSEL        Selection co-routine
 008162 4780 70D6/0DEE_      0816C 44666  1                      IF    NZ,'BASR RAR,RAR; BNZ NPSBNEXT'
 00816C 1BFF                       44684  1                      CLEAR R15                 Aok
 00816E 47F0 7106            0819C 44688  1                      B     NPSBEXIT
                                   44689  1
 008172 182D/41D0 D004             44690  1           NPSBNEXT   XPUSH ,,4,PTR=R2
 008178 D201 2000 1000 00000 00000 44694  1                      MVC   @R2(2),PSBFEID
 00817E D201 2002 1002 00002 00002 44695  1                      MVC   @R2+2(2),PSBPNO
 008184 1812/4100 0004_            44696  1                      TSEG  (R2),4              Port identifier
 008194 4BD0 736A            08400 44724  1                      XPOP  ,,4
 008198 47F0 7028            080BE 44726  1                      B     NPSBDO
 DROP   PSB,R1                     44727                       END
                                   44735
 00819C                            44736              NPSBEXIT LABEL
 00819C 5018 0008            00008 44738                       PRETURN (R1)
1TOPS     (TOPS2025) (12:57) (15MAR04) Subroutines                                                                          Page  116
0Current Usings:  (RNE,R4) (RNGCB,R6) (CP,R11) (CV,R12)
0Loc    Object Code    Addr1 Addr2  Stmt Lv Lineno    Source Statement           (Hibal 5, Asmedit 3.3)  HLASM R4.0  2004/03/15 12.57
+___    ______ ____    _____ _____  ____ __ ______    ______ _________
00081A0 18D8/9808 D004_            44740                       PEND
 DROP   *,R7
 DROP   RNE,R4                     44760                       DROP  RNE
1TOPS     (TOPS2025) (12:57) (15MAR04) Subroutines                                                                          Page  117
0Current Usings:  (RNGCB,R6) (CP,R11) (CV,R12)
0Loc    Object Code    Addr1 Addr2  Stmt Lv Lineno    Source Statement           (Hibal 5, Asmedit 3.3)  HLASM R4.0  2004/03/15 12.57
+___    ______ ____    _____ _____  ____ __ ______    ______ _________
0                                  44769              ¿þþþþþþþþþþþþþþþþþþþþþþþþþþþþþþþþþþþþþþþþþþþþþþþþþþþþþþþþþþþþþþþþþþþþþÜ
                                   44770              Ÿ                                                                     Ÿ
                                   44771              Ÿ  NEXTSIB -- Local routine to get next matching SIB.                 Ÿ
                                   44772              Ÿ                                                                     Ÿ
                                   44773              Ÿ    On entry:  RNGITEM - current SIB                                 Ÿ
                                   44774              Ÿ                                                                     Ÿ
                                   44775              Ÿ    On exit, R15 (and CC):                                           Ÿ
                                   44776              Ÿ      0 - ok (R1 - next SIB ptr)                                     Ÿ
                                   44777              Ÿ      4 - all done                                                   Ÿ
                                   44778              Ÿ                                                                     Ÿ
                                                      ¾þþþþþþþþþþþþþþþþþþþþþþþþþþþþþþþþþþþþþþþþþþþþþþþþþþþþþþþþþþþþþþþþþþþþþ»
00081AE 50E0 D000/9008_      00000 44779              NEXTSIB  PROC
 USING  *,R7
 0081C8 4150 619C            0019C 44818                       LA    R5,RNGITEM
 0081CC 4110 5000/4100_      00000 44819                       WITH  (SIB,R5),'TSEG SIBID; TSEG SIBNO'  Session id
 USING  SIB,R5
 DROP   SIB,R5
                                   44898
 0081F0 4840 601A            0001A 44899              NSIBDO   LH    R4,RNGN
 0081F4 4144 601C            0001C 44900                       LA    R4,RNG(R4)          Current range entry
 USING  RNE,R4                     44901                       USING RNE,R4
 0081F8 9120 6003/47E0_00003       44910                       IF    RNGFMULT,'SET RNEFMULT'
 008204 9180 600C/47E0_0000C       44936                       IF    RNGFALL,'SET RNEFALL'
 008210 4110 4004/4100_      00004 44962                       TSEG  RNEHDR              Fixed header
 008222 9180 4004/47E0_00004       44990                       IF    RNEFQ,BEGIN         If quoted, give as is
 00822A 4110 4010/1F00_      00010 45005  1                      TSEG  RNETEXT,LC:RNELEN
 00823E                            45036                       END
 00823E 707A/47F0 70DC 0823E 08228 45040                       ELSE  BEGIN               If not quoted, treat as account
 008242 182D/41D0 D008             45051  1                      XPUSH ,,8,PTR=R2          Room for "uuugg" account
 008248 4110 4010/1F00_      00010 45054  1                      SETMSG RNETEXT,LC:RNELEN   User-id
 008252 18F2                       45071  1                      LR    R15,R2              Put account here
 008254 58E0 7204/0DEE       083CC 45072  1                      VCALL GETACCT             Get account if this is a userid
 00825A 4780 70A0/41F0_      08268 45076  1                      IF    NZ,'TSEG (R1),(R0)'  Not a userid
 008268 70A4/47F0 70D8 08268 0825C 45116  1                      ELSE  BEGIN               Ask Milten about account...
 00826C 4110 2003/4100_      00003 45127  2                        TSEG  @R2+3,2             gg
 00827E 4110 7297/4100_      0845F 45157  2                        TSEG  '.'
 008290 1812/4100 0003_            45175  2                        TSEG  @R2,3               uuu
 0082A0                            45205  1                      END
 0082A0 4BD0 723A            08402 45209  1                      XPOP  ,,8
 0082A4                            45211                       END
                                   45215
 0082A4 4100 0001/58E0_      00001 45216                       TCNTL CTLSNSI             Sense SIB
 0082AE 47B0 70F4/58E0_      082BC 45228                       IF    NEG,'VCALL MILERR; B CVERROR'
 0082BC 4720 7182            0834A 45249                       BP    NSIBEXIT
                                   45250
 USING  SIB,R1                     45251                       WITH  (SIB,R1),BEGIN
 0082C0 9500 600E/4780_0000E       45265  1                      IF    ((RNGTTYPE,NZ),AND,(RNGTTYPE,NE,SIBTYPE)),NSIBNEXT
 0082D2 9140 600C/47E0_0000C       45301  1                      IF    (RNGFDIAL,AND,~SIBFDIAL),NSIBNEXT
 0082E2 9110 600C/47E0_0000C       45333  1                      IF    (RNGFDIR,AND,~SIBFDIR),NSIBNEXT
 0082F2 9108 600C/47E0_0000C       45365  1                      IF    (RNGFLEAS,AND,~SIBFLEAS),NSIBNEXT
                                   45397  1
 008302 41F0 6000            00000 45398  1                      LA    R15,RNGCB
 008306 4100 0003            00003 45399  1                      LA    R0,RNGTSES
1TOPS     (TOPS2025) (12:57) (15MAR04) Subroutines                                                                          Page  118
0Current Usings:  (SIB,R1) (RNE,R4) (RNGCB,R6) (*,R7) (CP,R11) (CV,R12)
0Loc    Object Code    Addr1 Addr2  Stmt Lv Lineno    Source Statement           (Hibal 5, Asmedit 3.3)  HLASM R4.0  2004/03/15 12.57
+___    ______ ____    _____ _____  ____ __ ______    ______ _________
000830A 58E0 6004/12EE       00004 45400  1                      LT    RAR,RNGCOSEL
 008310 4780 7152/0DEE_      0831A 45404  1                      IF    NZ,'BASR RAR,RAR; BNZ NSIBNEXT'
 00831A 1BFF                       45422  1                      CLEAR R15
 00831C 47F0 7182            0834A 45426  1                      B     NSIBEXIT
                                   45427  1
 008320 182D/41D0 D008             45428  1           NSIBNEXT   XPUSH ,,6,PTR=R2
 008326 D203 2000 1000 00000 00000 45432  1                      MVC   @R2(4),SIBID
 00832C D201 2004 1004 00004 00004 45433  1                      MVC   @R2+4(2),SIBNO
 008332 1812/4100 0006_            45434  1                      TSEG  (R2),6              Session identifier
 008342 4BD0 723C            08404 45462  1                      XPOP  ,,6
 008346 47F0 7028            081F0 45464  1                      B     NSIBDO
 DROP   SIB,R1                     45465                       END
                                   45473
 00834A                            45474              NSIBEXIT LABEL
 00834A 5018 0008            00008 45476                       PRETURN (R1)
 00834E 18D8/9808 D004_            45478                       PEND
 DROP   *,R7
 DROP   RNE,R4                     45498                       DROP  RNE
                                   45506
 DROP   RNGCB,R6                   45507                       DROP  RNGCB
                                   45515
                                   45516                       QLTORG
1TOPS     (TOPS2025) (12:57) (15MAR04) Subroutines                                                                          Page  119
0Current Usings:  (CP,R11) (CV,R12)
0Loc    Object Code    Addr1 Addr2  Stmt Lv Lineno    Source Statement           (Hibal 5, Asmedit 3.3)  HLASM R4.0  2004/03/15 12.57
+___    ______ ____    _____ _____  ____ __ ______    ______ _________
0                                  45571              ¿þþþþþþþþþþþþþþþþþþþþþþþþþþþþþþþþþþþþþþþþþþþþþþþþþþþþþþþþþþþþþþþþþþþþþÜ
                                   45572              Ÿ                                                                     Ÿ
                                   45573              Ÿ  NETPDISP -- Routine to display the status of a front-end.          Ÿ
                                   45574              Ÿ                                                                     Ÿ
                                   45575              Ÿ    On entry:                                                        Ÿ
                                   45576              Ÿ      R1 - FSB ptr                                                   Ÿ
                                   45577              Ÿ                                                                     Ÿ
                                   45578              Ÿ    On exit, R15 (and CC):                                           Ÿ
                                   45579              Ÿ      0 - ok                                                         Ÿ
                                   45580              Ÿ      4 - attn during write                                          Ÿ
                                   45581              Ÿ                                                                     Ÿ
                                                      ¾þþþþþþþþþþþþþþþþþþþþþþþþþþþþþþþþþþþþþþþþþþþþþþþþþþþþþþþþþþþþþþþþþþþþþ»
0008460 50E0 D000/9008_      00000 45582              NETPDISP XPROC  ,
 USING  *,R7
 00847A 1861                       45622                       LR    R6,R1
 USING  FSB,R6                     45623                       USING FSB,R6
 00847C 185F                       45632                       LR    R5,R15
 USING  RNGCB,R5                   45633                       USING RNGCB,R5
                                   45642
 00847E 4110 600C/4100_      0000C 45643                       TSEG  FSBNAME,,B
                                   45671
 008490 D60B 6014 C4D8 00014 004D8 45672                       OC    FSBINFO,CVBLANKS    (make zeros = blanks)
 008496 4110 6014/4100_      00014 45673                       SETMSG FSBINFO
 00849E 9180 6069/47E0_00069       45687                       IF    FSBFCLS,BEGIN
 0084A6 4110 7792/4100_      08C0C 45702  1                      SETMSG '--closing-- '
 0084AE 9120 6069/47E0_00069       45706  1                      IF    FSBFDOWN,'SETMSG "--closed--  "'
 0084BE                            45730                       END
 0084BE 9140 6069/47E0_00069       45734                       IF    FSBFDET,'SETMSG "--detached--"'
 0084CE 41F0 B050/58E0_      00050 45758                       TSEG  (R1),(R0)
                                   45782
 0084D8 4810 6078/4100_      00078 45783                       TNUM  LH:FSBSCUR,4
 0084EA 4110 7806/4100_      08C80 45807                       TSEG  ' users'
                                   45825
 0084FC 4810 607A/4100_      0007A 45826                       TNUM  LH:FSBSMAX,5
 00850E 4110 77BE/4100_      08C38 45850                       TSEG  ' max'
                                   45868
 008520 5810 6088/4100_      00088 45869                       TNUM  L:FSBNIO,9
 008532 4110 780C/4100_      08C86 45894                       TSEG  ' I/O''s'
                                   45912
 008544 D603 608C 608C_0008C 0008C 45913                       IF    (FSBNHWE,NZ),BEGIN
 00854E 4110 7812/4100_      08C8C 45929  1                      TSEG  ' ('
 008560 5810 608C/1B00_      0008C 45947  1                      TNUM  L:FSBNHWE
 008570 4110 7850/4100_      08CCA 45969  1                      TSEG  ' err)'
 008582                            45987                       END
                                   45991
 008582 D601 606A 606A_0006A 0006A 45992                       IF    (FSBQMAX,NZ),BEGIN
 00858C 4110 775E/4100_      08BD8 46008  1                      TSEG  ' (Depth='
 00859E 4810 606A/1B00_      0006A 46026  1                      TNUM  LH:FSBQMAX
 0085AE 4110 7855/4100_      08CCF 46047  1                      TSEG  ')'
 0085C0                            46065                       END
                                   46069
 0085C0 1B00/41F0 B050_            46070                       TCR
                                   46095
1TOPS     (TOPS2025) (12:57) (15MAR04) Subroutines                                                                          Page  120
0Current Usings:  (RNGCB,R5) (FSB,R6) (*,R7) (CP,R11) (CV,R12)
0Loc    Object Code    Addr1 Addr2  Stmt Lv Lineno    Source Statement           (Hibal 5, Asmedit 3.3)  HLASM R4.0  2004/03/15 12.57
+___    ______ ____    _____ _____  ____ __ ______    ______ _________
00085CC D63F 6028 6028_00028 00028 46096                       IF    (FSBMSG,NZ),BEGIN
 0085D6 4110 C4D8/4100_      004D8 46112  1                      TSEG  CVBLANKS,2
 0085E8 58E0 77C6/0DEE       08C40 46142  1                      VCALL LOCALTOD
 0085EE 1820                       46146  1                      LR    R2,R0
 0085F0 1831                       46147  1                      LR    R3,R1
 0085F2 9801 6020            00020 46148  1                      LM    R0,R1,FSBMCLCK
 0085F6 1200/4780 719C             46149  1                      IF    (R0,NZ),BEGIN
 0085FC 18FD/41D0 D020             46163  2                        XPUSH ,,30,PTR=R15
 008602 58E0 77CA/0DEE       08C44 46166  2                        VCALL FMTRCLCK
 008608 41F0 B050/58E0_      00050 46170  2                        TSEG  (R1),(R0),B
 008612 4BD0 7814            08C8E 46194  2                        XPOP  ,,30
 008616                            46196  1                      END
 008616 4110 6028/4100_      00028 46200  1                      TSEG  FSBMSG,,WR
 008628 4770 71BE            08638 46228  1                      BNZ   FEXIT
 00862C                            46229                       END
 00862C 1B00/41F0 B050_            46233                       TWRITE
                                   46258
 008638 18D8/9808 D004_            46259              FEXIT    PEND
 DROP   *,R7
 DROP   RNGCB,R5                   46280                       DROP  RNGCB,FSB
 DROP   FSB,R6
1TOPS     (TOPS2025) (12:57) (15MAR04) Subroutines                                                                          Page  121
0Current Usings:  (CP,R11) (CV,R12)
0Loc    Object Code    Addr1 Addr2  Stmt Lv Lineno    Source Statement           (Hibal 5, Asmedit 3.3)  HLASM R4.0  2004/03/15 12.57
+___    ______ ____    _____ _____  ____ __ ______    ______ _________
0                                  46296              ¿þþþþþþþþþþþþþþþþþþþþþþþþþþþþþþþþþþþþþþþþþþþþþþþþþþþþþþþþþþþþþþþþþþþþþÜ
                                   46297              Ÿ                                                                     Ÿ
                                   46298              Ÿ  PORTDISP -- Routine to display the status of a port.               Ÿ
                                   46299              Ÿ                                                                     Ÿ
                                   46300              Ÿ    On entry:                                                        Ÿ
                                   46301              Ÿ      R1 - PSB ptr                                                   Ÿ
                                   46302              Ÿ                                                                     Ÿ
                                   46303              Ÿ    On exit, R15 (and CC):                                           Ÿ
                                   46304              Ÿ      0 - ok                                                         Ÿ
                                   46305              Ÿ      4 - attn during write                                          Ÿ
                                   46306              Ÿ                                                                     Ÿ
                                                      ¾þþþþþþþþþþþþþþþþþþþþþþþþþþþþþþþþþþþþþþþþþþþþþþþþþþþþþþþþþþþþþþþþþþþþþ»
0008646 50E0 D000/9008_      00000 46307              PORTDISP XPROC  ,
 USING  *,R7
 008660 1861                       46347                       LR    R6,R1
 USING  PSB,R6                     46348                       USING PSB,R6
 008662 185F                       46357                       LR    R5,R15
 USING  RNGCB,R5                   46358                       USING RNGCB,R5
                                   46367
 008664 4110 600C/4100_      0000C 46368                       SETMSG PSBFENM
 00866C 58E0 75EC/0DEE       08C4C 46382                       VCALL LRTRIM
 008672 41F0 B050/58E0_      00050 46386                       TSEG  (R1),(R0)
 00867C 4110 7670/4100_      08CD0 46410                       TSEG  '-'
 00868E 4110 6018/4100_      00018 46428                       SETMSG PSBNAME
 008696 58E0 75EC/0DEE       08C4C 46442                       VCALL LRTRIM
 00869C 41F0 B050/58E0_      00050 46446                       TSEG  (R1),(R0),B
                                   46470
 0086A6 4110 6020/4100_      00020 46471                       SETMSG PSBINFO
 0086AE D613 6020 6020_00020 00020 46485                       IF    (PSBINFO,Z),'LA R1,CVBLANKS'
 0086BC 41F0 B050/58E0_      00050 46507                       TSEG  (R1),(R0),B
                                   46531
 0086C6 4110 6034/4100_      00034 46532                       SETMSG PSBLOC
 0086CE D613 6034 6034_00034 00034 46546                       IF    (PSBLOC,Z),'LA R1,CVBLANKS'
 0086DC 41F0 B050/58E0_      00050 46568                       TSEG  (R1),(R0),B
                                   46592
 0086E6 9120 604B/47E0_0004B       46593                       IF    PSBFDUM,BEGIN
 0086EE 4110 7671/4100_      08CD1 46608  1                      TSEG  '(Dummy)',,B
 008700                            46626                       END
 008700 70A4/47F0 722C 08700 086EC 46630                       ELSE  BEGIN
 008704 4110 7630/4100_      08C90 46641  1                      TSEG  'I/O''S='
 008716 58F0 6060/1B00_      00060 46659  1                      BTD   CPDOUB,0,L:PSBNIO
 008726 41F0 B050/58E0_      00050 46679  1                      TSEG  (R1),(R0),B
 008730 D603 6064 6064_00064 00064 46703  1                      IF    (PSBNHWE,NZ),BEGIN
 00873A 4110 7678/4100_      08CD8 46719  2                        TSEG  '('
 00874C 58F0 6064/1B00_      00064 46737  2                        BTD   CPDOUB,0,L:PSBNHWE
 00875C 41F0 B050/58E0_      00050 46757  2                        TSEG  (R1),(R0),B
 008766 4110 75F4/4100_      08C54 46781  2                        TSEG  'err)',,B
 008778                            46799  1                      END
                                   46803  1
 008778 9180 6048/47E0_00048       46804  1                      IF    PSBFDIAL,'TSEG "(DIAL)",,B'
 008792 9120 6048/47E0_00048       46842  1                      IF    PSBFDIR,'TSEG "(DIRECT)",,B'
 0087AC 9110 6048/47E0_00048       46880  1                      IF    PSBFGAND,'TSEG "(GANDALF)",,B'
 0087C6 9110 6049/47E0_00049       46918  1                      IF    PSBFRLIN,'TSEG "(RLIN)",,B'
1TOPS     (TOPS2025) (12:57) (15MAR04) Subroutines                                                                          Page  122
0Current Usings:  (RNGCB,R5) (PSB,R6) (*,R7) (CP,R11) (CV,R12)
0Loc    Object Code    Addr1 Addr2  Stmt Lv Lineno    Source Statement           (Hibal 5, Asmedit 3.3)  HLASM R4.0  2004/03/15 12.57
+___    ______ ____    _____ _____  ____ __ ______    ______ _________
00087E0 9180 6049/47E0_00049       46956  1                      IF    PSBFLEAS,'TSEG "(LEASED)",,B'
 0087FA 9140 6049/47E0_00049       46994  1                      IF    PSBFTEL,'TSEG "(TELENET)",,B'
 008814 9120 6049/47E0_00049       47032  1                      IF    PSBFTYM,'TSEG "(TYMNET)",,B'
                                   47070  1
 00882E 9140 604C/47E0_0004C       47071  1                      IF    PSBFHU,'TSEG "(HUNG-UP)",,B'
                                   47109  1
 008848 9180 604B/47E0_0004B       47110  1                      IF    PSBFSTOP,BEGIN
 008850 4110 7642/4100_      08CA2 47125  2                        SETMSG '(STOPPING)'
 008858 9180 604C/47E0_0004C       47129  2                        IF    PSBFDOWN,'SETMSG "(STOPPED)"'
 008868 41F0 B050/58E0_      00050 47153  2                        TSEG  (R1),(R0),B
 008872                            47177  1                      END
 008872 9140 604B/47E0_0004B       47181  1                      IF    PSBFDET,'TSEG  "(DETACHED)",,B'
 00888C                            47219                       END
 00888C 1BFF                       47223                       CLEAR R15
 00888E 18D8/9808 D004_            47227                       PEND
 DROP   *,R7
                                   47247
 DROP   RNGCB,R5                   47248                       DROP  RNGCB,PSB
 DROP   PSB,R6
1TOPS     (TOPS2025) (12:57) (15MAR04) Subroutines                                                                          Page  123
0Current Usings:  (CP,R11) (CV,R12)
0Loc    Object Code    Addr1 Addr2  Stmt Lv Lineno    Source Statement           (Hibal 5, Asmedit 3.3)  HLASM R4.0  2004/03/15 12.57
+___    ______ ____    _____ _____  ____ __ ______    ______ _________
0                                  47264              ¿þþþþþþþþþþþþþþþþþþþþþþþþþþþþþþþþþþþþþþþþþþþþþþþþþþþþþþþþþþþþþþþþþþþþþÜ
                                   47265              Ÿ                                                                     Ÿ
                                   47266              Ÿ  LINEDISP -- Routine to display status of a session.                Ÿ
                                   47267              Ÿ                                                                     Ÿ
                                   47268              Ÿ    On entry:                                                        Ÿ
                                   47269              Ÿ      R1 - SIB ptr                                                   Ÿ
                                   47270              Ÿ                                                                     Ÿ
                                   47271              Ÿ    On exit, R15 (and CC):                                           Ÿ
                                   47272              Ÿ      0 - ok                                                         Ÿ
                                   47273              Ÿ      4 - attn during write                                          Ÿ
                                   47274              Ÿ                                                                     Ÿ
                                                      ¾þþþþþþþþþþþþþþþþþþþþþþþþþþþþþþþþþþþþþþþþþþþþþþþþþþþþþþþþþþþþþþþþþþþþþ»
000889C 50E0 D000/9008_      00000 47275              LINEDISP XPROC  ,
 USING  *,R7
 0088B6 1861                       47315                       LR    R6,R1
 USING  SIB,R6                     47316                       USING SIB,R6
                                   47325                       ¿þþþþþþþþþþþþþþþþþþþþþþþÜ
                                   47326                       Ÿ  Milten line number.  Ÿ
                                   47327                       ¾þþþþþþþþþþþþþþþþþþþþþþþ»
 0088B8 48F0 6004/4100_      00004 47328                       BTD   CPDOUB,4,LH:SIBNO
 0088CA 41F0 B050/58E0_      00050 47350                       TSEG  (R1),(R0),B
                                   47374                       ¿þþþþþþþþþþþþþþþþþþþþþþþþÜ
                                   47375                       Ÿ  Userid (or account).  Ÿ
                                   47376                       ¾þþþþþþþþþþþþþþþþþþþþþþþþ»
 0088D4 D604 6070 6070_00070 00070 47377                       IF    (SIBACCT,Z),BEGIN   No account...
 0088DE 4110 7400/4100_      08CB6 47393  1                      TSEG  '------'
 0088F0 4110 C4D8/4100_      004D8 47411  1                      TSEG  CVBLANKS,3
 008902                            47441                       END
                                   47445
 008902 7050/47F0 7118 08902 088DC 47446                       ELSE  BEGIN               Account...
 008906 41F0 6070            00070 47457  1                      LA    R15,SIBACCT         Account in "gg.uuu" format
 00890A 181D/41D0 D020             47458  1                      XPUSH ,,32,PTR=R1
 008910 4100 0020            00020 47461  1                      SETMSG @R1,32
                                   47476  1
 008914 58E0 73A2/0DEE       08C58 47477  1                      VCALL GETUID              Get userid for this account
 00891A 4770 709A            08950 47481  1                      IF    Z,BEGIN             Found it...
 00891E 5900 73A6/47B0_      08C5C 47492  2                        IF    (R0,LT,8),'LA R0,8'
 00892A 1820                       47515  2                        LR    R2,R0
 00892C 41F0 B050/58E0_      00050 47516  2                        TSEG  (R1),(R0),B         Seg userid
 008936 5920 73A6/47D0_      08C5C 47540  2                        IF    (R2,GT,8),'TSEG " "'
 008950                            47580  1                      END
                                   47584  1
 008950 709E/47F0 7114 08950 0891C 47585  1                      ELSE  BEGIN               No userid, use account...
 008954 4110 6073/4100_      00073 47596  2                        TSEG  SIBGRP
 008966 4110 7448/4100_      08CFE 47624  2                        TSEG  '.'
 008978 4110 6070/4100_      00070 47642  2                        TSEG  SIBUSER
 00898A 1F22/BF23 6075             47670  2                        L2    R2,SIBANO
 008990 4110 C4D8/4100_      004D8 47678  2                        SETMSG CVBLANKS,2
 008998 5920 73AA/47D0_      08C60 47694  2                        IF    (R2,GT,1),'TSEG "#"; BTD CPDOUB,0,(R2)'
 0089C0 41F0 B050/58E0_      00050 47754  2                        TSEG  (R1),(R0),B
 0089CA                            47778  1                      END
                                   47782  1
 0089CA 4BD0 7406            08CBC 47783  1                      XPOP  ,,20
1TOPS     (TOPS2025) (12:57) (15MAR04) Subroutines                                                                          Page  124
0Current Usings:  (SIB,R6) (*,R7) (CP,R11) (CV,R12)
0Loc    Object Code    Addr1 Addr2  Stmt Lv Lineno    Source Statement           (Hibal 5, Asmedit 3.3)  HLASM R4.0  2004/03/15 12.57
+___    ______ ____    _____ _____  ____ __ ______    ______ _________
00089CE                            47785                       END
                                   47789                       ¿þþþþþþþþþþþþþþÜ
                                   47790                       Ÿ  User name.  Ÿ
                                   47791                       ¾þþþþþþþþþþþþþþ»
 0089CE 4110 6082/4100_      00082 47792                       SETMSG SIBNAME
 0089D6 D613 6082 6082_00082 00082 47806                       IF    (SIBNAME,Z),'CLEAR R0'
 0089E2 58E0 73AE/0DEE       08C64 47831                       VCALL RTRIM
                                   47835
 0089E8 9102 604B/4710_0004B       47836                       IF    ~SIBFKEPT,BEGIN     Not a 'kept' session...
 0089F0 9140 604B/47E0_0004B       47851  1                      IF    SIBFLGF,'SETMSG "--logging off--"'
 008A00 9180 604B/47E0_0004B       47875  1                      IF    SIBFDSC,'SETMSG "--disconnected--"'
 008A10 9140 6044/47E0_00044       47899  1                      IF    SIBFHU,'SETMSG "--hung-up--"'
 008A20 9180 6043/47E0_00043       47923  1                      IF    SIBFSTOP,BEGIN
 008A28 4110 73B2/4100_      08C68 47938  2                        SETMSG '--stopping--'
 008A30 9180 6044/47E0_00044       47942  2                        IF    SIBFDOWN,'SETMSG "--stopped--"'
 008A40                            47966  1                      END
 008A40 9140 6043/47E0_00043       47970  1                      IF    SIBFDET,'SETMSG "--detached--"'
 008A50                            47994                       END
 008A50 58E0 73BE/0DEE       08C74 47998                       VCALL CHARFMT
                                   48002
 008A56 4100 0024/41F0_      00024 48003                       TCOL  36
 008A64 4110 C4D8/4100_      004D8 48024                       SETMSG CVBLANKS,8
 008A6C D607 6050 6050_00050 00050 48040                       IF    (SIBSUB,NZ),'SETMSG SIBSUB'  Subsystem name
 008A7E D504 746F 6050_08D25 00050 48075                       IF    (SIBSUB,EQ,'ORVYL'),BEGIN
 008A88 D607 6058 6058_00058 00058 48092  1                      IF    ((SIBVPGM,NZ),AND,(SIBVPGM,NE,' ')),'SETMSG SIBVPGM'
 008AA2                            48143                       END
 008AA2 41F0 B050/58E0_      00050 48147                       TSEG  (R1),(R0),B
                                   48171
 008AAC D607 6008 6008_00008 00008 48172                       IF    (SIBFE,NZ),BEGIN    We have the port info...
                                   48188  1                      ¿þþþþþþþþþþþþþþþþþþþþþþþþþþþþþþþþþþþþþþþþþþþþþþþþþþþþþþþþþþþÜ
                                   48189  1                      Ÿ  Show ELF ports as "hostname-pid", usually.  The logic    Ÿ
                                   48190  1                      Ÿ    is a little more complex than just "fename-portname".  Ÿ
                                   48191  1                      ¾þþþþþþþþþþþþþþþþþþþþþþþþþþþþþþþþþþþþþþþþþþþþþþþþþþþþþþþþþþþ»
 008AB6 9507 6048/4770_00048       48192  1                      IF    SIBTELF,BEGIN       ELF style...
 008ABE D613 6018 6018_00018 00018 48207  2                        IF    (SIBPINFO,NZ),'TSEG SIBPINFO,,T'
 008ADA 7228/47F0 725E_08ADA 08AC6 48256  2                        ELSE  'TSEG SIBFE,,T; TSEG "-"; TSEG SIBPORT,,T'
                                   48346  2
 008B14 D613 602C 602C_0002C 0002C 48347  2                        IF    (SIBPLOC,NZ),'TSEG  " ["; TSEG  SIBPLOC,,T; TSEG "]"'
 008B54                            48432  1                      END
                                   48436  1                      ¿þþþþþþþþþþþþþþþþþþþþþþþþþþþþþþþþþþþþþþþþþþþþþþþþþþþþþÜ
                                   48437  1                      Ÿ  Display port identification as "fename-portname".  Ÿ
                                   48438  1                      ¾þþþþþþþþþþþþþþþþþþþþþþþþþþþþþþþþþþþþþþþþþþþþþþþþþþþþþ»
 008B54 72A2/47F0 72E2 08B54 08ABC 48439  1                      ELSE  BEGIN               All other front-ends...
 008B58 4110 6008/4100_      00008 48450  2                        TSEG  SIBFE,,T
 008B6A D607 6010 6010_00010 00010 48478  2                        IF    (SIBPORT,NZ),'TSEG "-"; TSEG SIBPORT,,T'
 008B98                            48545  1                      END
 008B98                            48549                       END
                                   48553
 008B98 72E6/47F0 7300 08B98 08AB4 48554                       ELSE  BEGIN               No front-end info...
 008B9C 9102 604B/47E0_0004B       48565  1                      IF    SIBFKEPT,'TSEG "LOGGED OFF"'
 008BB6                            48603                       END
                                   48607
 008BB6 4110 C4D8/4100_      004D8 48608                       TSEG  CVBLANKS,1
                                   48638
1TOPS     (TOPS2025) (12:57) (15MAR04) Subroutines                                                                          Page  125
0Current Usings:  (SIB,R6) (*,R7) (CP,R11) (CV,R12)
0Loc    Object Code    Addr1 Addr2  Stmt Lv Lineno    Source Statement           (Hibal 5, Asmedit 3.3)  HLASM R4.0  2004/03/15 12.57
+___    ______ ____    _____ _____  ____ __ ______    ______ _________
0008BC8 1BFF                       48639                       CLEAR R15                 Good RC
 008BCA 18D8/9808 D004_            48643                       PEND
 DROP   *,R7
 DROP   SIB,R6                     48663                       DROP  SIB
                                   48671
                                   48672                       QLTORG
1TOPS     (TOPS2025) (12:57) (15MAR04) Subroutines                                                                          Page  126
0Current Usings:  (CP,R11) (CV,R12)
0Loc    Object Code    Addr1 Addr2  Stmt Lv Lineno    Source Statement           (Hibal 5, Asmedit 3.3)  HLASM R4.0  2004/03/15 12.57
+___    ______ ____    _____ _____  ____ __ ______    ______ _________
0000000                00000 00022 48742              SENDWA   RECORD BEGIN
                                   48750  1
 000000                            48751  1           SENDID     DS    F                   Session id
 000004                            48752  1           SENDNO     DS    H                   Session number
 000006                            48753  1                      DS    XL12                Flags, etc.
 000012                            48754  1           SENDGRP    DS    CL2                 gg
 000014                            48755  1           SENDDOT    DS    C                     .
 000015                            48756  1           SENDUSER   DS    CL3                    uuu
                                   48757  1           SENDHDR    EQU   SENDID,*-SENDID,C'X'
                                   48758  1
 000018                            48759  1           SENDPTRS   DS    2A                  Text location, length
 000020                            48760  1           SENDRC     DS    H                   Return code
                                   48761  1
                                   48762  1           SENDINIT   EQU   SENDID,*-SENDID,C'X'
 000022                00022 00022 48763                       END
-                                  48773              ¿þþþþþþþþþþþþþþþþþþþþþþþþþþþþþþþþþþþþþþþþþþþþþþþþþþþþþþþþþþþþþþþþþþþþþÜ
                                   48774              Ÿ                                                                     Ÿ
                                   48775              Ÿ  SENDMSG -- Routine to send an asynchronous message to another      Ÿ
                                   48776              Ÿ    user.                                                            Ÿ
                                   48777              Ÿ                                                                     Ÿ
                                   48778              Ÿ    On entry:                                                        Ÿ
                                   48779              Ÿ      R1,R0 - text location, length                                  Ÿ
                                   48780              Ÿ      R15 - account (uuugg format)                                   Ÿ
                                   48781              Ÿ                                                                     Ÿ
                                   48782              Ÿ    On exit, R15 (and CC):                                           Ÿ
                                   48783              Ÿ      -4 - user not found                                            Ÿ
                                   48784              Ÿ       0 - sent                                                      Ÿ
                                   48785              Ÿ       4 - user found but not sent (NOCOMM)                          Ÿ
                                   48786              Ÿ                                                                     Ÿ
                                                      ¾þþþþþþþþþþþþþþþþþþþþþþþþþþþþþþþþþþþþþþþþþþþþþþþþþþþþþþþþþþþþþþþþþþþþþ»
0008D2C 50E0 D000/9008_      00000 48787              SENDMSG  XPROC SENDWA
 USING  *,R7
 USING  SENDWA-(4+36),R8
 008D46 D721 8028 8028 00000 00000 48838                       CLEAR SENDINIT
                                   48845
 008D4C 9001 8040            00018 48846                       STM   R0,R1,SENDPTRS
 008D50 D201 803A F003 00012 00003 48847                       MVC   SENDGRP,@R15+3
 008D56 924B 803C      00014       48848                       MVI   SENDDOT,C'.'
 008D5A D202 803D F000 00015 00000 48849                       MVC   SENDUSER,@R15
                                   48850
 008D60 D201 8048 7146 00020 08E8C 48851                       MVC   SENDRC,=H'-4'       Assume not found
                                   48852
 008D66                            48853                       LOOP  BEGIN
 008D66 41F0 B050/58E0_      00050 48859  1           SENDLP     TCLEAR
                                   48873  1
 008D70 1B22                       48874  1                      CLEAR R2
 008D72 9140 BD55/47E0_00D55       48878  1                      IF    CPFQUIET,'LA R2,1; CLEAR CPFQUIET'
 008D82 4110 8028/4100_      00000 48906  1                      TSEG  SENDHDR
 008D94 1222/4780 7058_            48934  1                      IF    (R2,NZ),'SET CPFQUIET'
                                   48959  1
 008D9E 4100 0001/58E0_      00001 48960  1                      TCNTL CTLSNSI             Sense next session
1TOPS     (TOPS2025) (12:57) (15MAR04) Subroutines                                                                          Page  127
0Current Usings:  (*,R7) (SENDWA-(4+36),R8) (CP,R11) (CV,R12)
0Loc    Object Code    Addr1 Addr2  Stmt Lv Lineno    Source Statement           (Hibal 5, Asmedit 3.3)  HLASM R4.0  2004/03/15 12.57
+___    ______ ____    _____ _____  ____ __ ______    ______ _________
0008DA8 4770 7118            08E5E 48972  1                      IF    NZ,EXIT             All done, scram
                                   48986  1
 USING  SIB,R1                     48987  1                      WITH  (SIB,R1),BEGIN
 008DAC D203 8028 1000 00000 00000 49001  2                        MVC   SENDID,SIBID
 008DB2 D201 802C 1004 00004 00004 49002  2                        MVC   SENDNO,SIBNO
                                   49003  2
 008DB8 91C0 10AA/4780_000AA       49004  2                        IF    SIBFNMSG+SIBFNCOM,BEGIN  Can't send...
 008DC0 D601 8048 8048_00020 00020 49022  3                          IF    (SENDRC,NZ),'MVC SENDRC,=H"4"'  Set rc
 008DD0 47F0 7020            08D66 49044  3                          B     SENDLP
 008DD4                            49045  2                        END
 DROP   SIB,R1                     49049  1                      END
                                   49057  1                      ¿þþþþþþþþþþþþþþþþþþþþþþþþþþþþþþÜ
                                   49058  1                      Ÿ  Send asynchronous message.  Ÿ
                                   49059  1                      ¾þþþþþþþþþþþþþþþþþþþþþþþþþþþþþþ»
 008DD4 1B22                       49060  1                      CLEAR R2
 008DD6 9140 BD55/47E0_00D55       49064  1                      IF    CPFQUIET,'LA R2,1; CLEAR CPFQUIET'
                                   49092  1
 008DE6 4110 714A/4100_      08E90 49093  1                      TSEG  X'2F15'             Bel,nl
 008DF8 58E0 7136/0DEE       08E7C 49111  1                      VCALL LOCALTOD
 008DFE 18FD/41D0 D00C             49115  1                      XPUSH ,,11,PTR=R15
 008E04 58E0 713A/0DEE       08E80 49118  1                      VCALL FMTTIME
 008E0A 4100 0005/41F0_      00005 49122  1                      TSEG  (R1),5,B            Hh:mm
 008E18 4BD0 714C            08E92 49149  1                      XPOP  ,,11
 008E1C 9801 8040            00018 49151  1                      LM    R0,R1,SENDPTRS
 008E20 41F0 B050/58E0_      00050 49152  1                      TSEG  (R1),(R0)           Message to send
 008E2A 4110 714E/4100_      08E94 49176  1                      TSEG  X'15'               Nl
                                   49194  1
 008E3C 1222/4780 7100_            49195  1                      IF    (R2,NZ),'SET CPFQUIET'
                                   49220  1
 008E46 5810 8028            00000 49221  1                      L     R1,SENDID           Session id
 008E4A 58E0 7142/0DEE       08E88 49222  1                      VCALL TASWRITE            Send it
 008E50 4770 7114/D701_      08E5A 49226  1                      IF    Z,'CLEAR SENDRC'
 008E5A 47F0 7020            08D66 49249                       END
                                   49254
 008E5E 48F0 8048            00020 49255                       LH    R15,SENDRC          Return code
 008E62 18D8/9808 D004_            49256                       PEND
 DROP   SENDWA-(4+36),R8
 DROP   *,R7
                                   49281
                                   49282              .NOMIL   ANOP  ,                   *** PCODE
                                   49283                       QLTORG
                                   49307
                                   49308                       VLTORG
                                   49316
 008E98                08E98 08E98 49317                       END   .

1TOPS     (TOPS2025) (12:57) (15MAR04) Relocation Dictionary                                                                Page  128
-   Pos.Id   Rel.Id   Flags    Address                                                       HLASM R4.0  2004/03/15 12.57
0  00000001 00000001    0C    00000E70
   00000001 00000001    0C    00000E88
   00000001 00000001    0C    00000E90
   00000001 00000001    0C    00000F30
   00000001 00000001    0C    00000F58
   00000001 00000001    0C    00000F80
   00000001 00000001    0C    00000FA8
   00000001 00000001    0C    00000FD0
   00000001 00000001    0C    00000FF8
   00000001 00000001    0C    00001020
   00000001 00000001    0C    00001048
   00000001 00000001    0C    00001070
   00000001 00000001    0C    00001098
   00000001 00000001    0C    000010C0
   00000001 00000001    0C    000010E8
   00000001 00000001    0C    00001110
   00000001 00000001    0C    00001138
   00000001 00000001    0C    00001160
   00000001 00000001    0C    00001188
   00000001 00000001    0C    000011B0
   00000001 00000001    0C    000011D8
   00000001 00000001    0C    00001200
   00000001 00000001    0C    00001228
   00000001 00000001    0C    00001250
   00000001 00000001    0C    00001278
   00000001 00000001    0C    000012A0
   00000001 00000001    0C    000012C8
   00000001 00000001    0C    000012F0
   00000001 00000001    0C    00001318
   00000001 00000001    0C    00001340
   00000001 00000001    0C    00001368
   00000001 00000001    0C    00001390
   00000001 00000001    0C    000013B8
   00000001 00000001    0C    000013E0
   00000001 00000001    0C    00001408
   00000001 00000001    0C    00001430
   00000001 00000001    0C    00001458
   00000001 00000001    0C    00001480
   00000001 00000001    0C    000014A8
   00000001 00000001    0C    000014D0
   00000001 00000001    0C    000014F8
   00000001 00000001    0C    00001520
   00000001 00000001    0C    00001548
   00000001 00000001    0C    00001BE0
   00000001 00000001    0C    00001C18
   00000001 00000001    0C    00001C24
   00000001 00000001    0C    00001C40
   00000001 00000001    0C    00001C44
   00000001 00000001    0C    00001CC8
   00000001 00000001    0C    00001CF0
   00000001 00000001    0C    00001D18
   00000001 00000001    0C    00001D40
   00000001 00000001    0C    00001D68
   00000001 00000001    0C    00001D90
   00000001 00000001    0C    00001DB8
1TOPS     (TOPS2025) (12:57) (15MAR04) Relocation Dictionary                                                                Page  129
   00000001 00000001    0C    00001DE0
   00000001 00000001    0C    00001E08
   00000001 00000001    0C    00001E30
   00000001 00000001    0C    00001E58
   00000001 00000001    0C    00001E80
   00000001 00000001    0C    00001EA8
   00000001 00000001    0C    00001ED0
   00000001 00000001    0C    00001EF8
   00000001 00000001    0C    00001F20
   00000001 00000001    0C    00001F48
   00000001 00000001    0C    00001F70
   00000001 00000001    0C    00001F98
   00000001 00000001    0C    00001FC0
   00000001 00000001    0C    00001FE8
   00000001 00000001    0C    00002010
   00000001 00000001    0C    00002038
   00000001 00000001    0C    00002088
   00000001 00000001    0C    000020B0
   00000001 00000001    0C    000020D8
   00000001 00000001    0C    00002100
   00000001 00000001    0C    00002128
   00000001 00000001    0C    00002150
   00000001 00000001    0C    00002178
   00000001 00000001    0C    000021A0
   00000001 00000001    0C    000021C8
   00000001 00000001    0C    000021F0
   00000001 00000001    0C    00002218
   00000001 00000001    0C    00002240
   00000001 00000001    0C    00002268
   00000001 00000001    0C    00002290
   00000001 00000001    0C    000022B8
   00000001 00000001    0C    000022E0
   00000001 00000001    0C    00002308
   00000001 00000001    0C    00002330
   00000001 00000001    0C    00002358
   00000001 00000001    0C    00002380
   00000001 00000001    0C    000023A8
   00000001 00000001    0C    000023D0
   00000001 00000001    0C    000023F8
   00000001 00000001    0C    00002420
   00000001 00000001    0C    00002448
   00000001 00000001    0C    00002470
   00000001 00000001    0C    00002498
   00000001 00000001    0C    000024C0
   00000001 00000001    0C    000024E8
   00000001 00000001    0C    00002510
   00000001 00000001    0C    00002538
   00000001 00000001    0C    00002560
   00000001 00000001    0C    00002588
   00000001 00000001    0C    000025B0
   00000001 00000001    0C    000025D8
   00000001 00000001    0C    00002600
   00000001 00000001    0C    00002628
   00000001 00000001    0C    00002650
   00000001 00000001    0C    00002678
   00000001 00000001    0C    000026A0
   00000001 00000001    0C    00002948
   00000001 00000001    0C    00002950
   00000001 00000001    0C    00002994
1TOPS     (TOPS2025) (12:57) (15MAR04) Relocation Dictionary                                                                Page  130
   00000001 00000001    0C    00003528
   00000001 00000001    0C    00003550
   00000001 00000001    0C    00003578
   00000001 00000001    0C    00003908
   00000001 00000001    0C    0000390C
   00000001 00000001    0C    00003924
   00000001 00000001    0C    00003928
   00000001 00000001    0C    00003C6C
   00000001 00000001    0C    00003C70
   00000001 00000001    0C    00004204
   00000001 00000001    0C    000046B0
   00000001 00000001    0C    000046D8
   00000001 00000001    0C    00004700
   00000001 00000001    0C    00004B10
   00000001 00000001    0C    00004B40
   00000001 00000001    0C    00004B44
   00000001 00000001    0C    00004B7C
   00000001 00000001    0C    0000560C
   00000001 00000001    0C    00005638
   00000001 00000001    0C    00005648
   00000001 00000001    0C    00006084
   00000001 00000001    0C    00006088
   00000001 00000001    0C    0000608C
   00000001 00000001    0C    000060A0
   00000001 00000001    0C    00006D50
   00000001 00000001    0C    00006D54
   00000001 00000001    0C    00006D58
   00000001 00000001    0C    00006D5C
   00000001 00000001    0C    00006DAC
   00000001 00000001    0C    000070CC
   00000001 00000001    0C    00007154
   00000001 00000001    0C    0000717C
   00000001 00000001    0C    000071A4
   00000001 00000001    0C    000071CC
   00000001 00000001    0C    000071F4
   00000001 00000001    0C    0000721C
   00000001 00000001    0C    00007244
   00000001 00000001    0C    0000726C
   00000001 00000001    0C    00007294
   00000001 00000001    0C    000072BC
   00000001 00000001    0C    0000730C
   00000001 00000001    0C    00007704
   00000001 00000001    0C    0000772C
   00000001 00000001    0C    00007754
   00000001 00000001    0C    0000777C
   00000001 00000001    0C    000077A4
   00000001 00000001    0C    000077CC
   00000001 00000001    0C    000077F4
   00000001 00000001    0C    0000781C
   00000001 00000001    0C    00007844
   00000001 00000001    0C    0000786C
   00000001 00000001    0C    00007894
   00000001 00000001    0C    000078BC
   00000001 00000001    0C    00007AF8
   00000001 00000001    0C    00007B00
   00000001 00000001    0C    00007B34
   00000001 00000001    0C    00007B38
   00000001 00000001    0C    00007B40
   00000001 00000001    0C    00008374
1TOPS     (TOPS2025) (12:57) (15MAR04) Relocation Dictionary                                                                Page  131
   00000001 00000001    0C    00008384
   00000001 00000001    0C    00008388
   00000001 00000001    0C    0000838C
   00000001 00000001    0C    000083C0
   00000001 00000001    0C    000083C4
   00000001 00000001    0C    000083C8
   00000001 00000002    1C    00000E18
   00000001 00000002    1C    00002974
   00000001 00000002    1C    00004208
   00000001 00000002    1C    00005628
   00000001 00000002    1C    000060B4
   00000001 00000002    1C    00008390
   00000001 00000002    1C    00008C3C
   00000001 00000003    1C    00000E48
   00000001 00000003    1C    000018C8
   00000001 00000003    1C    00001C34
   00000001 00000003    1C    00003C74
   00000001 00000003    1C    0000420C
   00000001 00000003    1C    00004B08
   00000001 00000003    1C    00005610
   00000001 00000003    1C    00006090
   00000001 00000003    1C    00006D7C
   00000001 00000003    1C    00007B0C
   00000001 00000003    1C    00008368
   00000001 00000003    1C    00008C30
   00000001 00000003    1C    00008E74
   00000001 00000004    1C    00000E4C
   00000001 00000004    1C    000018C4
   00000001 00000004    1C    00003914
   00000001 00000004    1C    00004778
   00000001 00000004    1C    0000495C
   00000001 00000004    1C    00006D4C
   00000001 00000004    1C    00007AFC
   00000001 00000005    1C    00000E50
   00000001 00000006    1C    00000E54
   00000001 00000007    1C    00000E58
   00000001 00000008    1C    00000E5C
   00000001 00000008    1C    000018BC
   00000001 00000008    1C    00001C2C
   00000001 00000008    1C    00002944
   00000001 00000008    1C    00003900
   00000001 00000008    1C    00004AD4
   00000001 00000008    1C    00006D44
   00000001 00000008    1C    00007AEC
   00000001 00000009    1C    00000E60
   00000001 0000000A    1C    00000E64
   00000001 0000000B    1C    00000E68
   00000001 0000000C    1C    00000E74
   00000001 0000000D    1C    00000E78
   00000001 0000000E    1C    00000E80
   00000001 0000000E    1C    00003C60
   00000001 0000000F    1C    00000E8C
   00000001 0000000F    1C    000018B8
   00000001 0000000F    1C    00001C28
   00000001 0000000F    1C    000038FC
   00000001 0000000F    1C    00004AD0
   00000001 0000000F    1C    00006D40
   00000001 0000000F    1C    00007AE8
   00000001 00000010    1C    00000E94
1TOPS     (TOPS2025) (12:57) (15MAR04) Relocation Dictionary                                                                Page  132
   00000001 00000010    1C    00002940
   00000001 00000011    1C    00000EA0
   00000001 00000012    1C    00000EA4
   00000001 00000012    1C    00004AFC
   00000001 00000012    1C    00007B4C
   00000001 00000013    1C    00000EA8
   00000001 00000014    1C    00000EAC
   00000001 00000014    1C    00003904
   00000001 00000015    1C    00000EB0
   00000001 00000016    1C    00000EB8
   00000001 00000017    1C    00000EBC
   00000001 00000017    1C    00001C14
   00000001 00000017    1C    00003C78
   00000001 00000017    1C    00004B18
   00000001 00000017    1C    0000563C
   00000001 00000017    1C    00006094
   00000001 00000017    1C    00006D68
   00000001 00000017    1C    00008378
   00000001 00000017    1C    00008C48
   00000001 00000018    1C    00000F2C
   00000001 00000018    1C    00000F54
   00000001 00000018    1C    00000FF4
   00000001 00000018    1C    0000101C
   00000001 00000018    1C    00001044
   00000001 00000018    1C    0000106C
   00000001 00000018    1C    00001094
   00000001 00000018    1C    000010BC
   00000001 00000018    1C    000010E4
   00000001 00000018    1C    0000110C
   00000001 00000018    1C    00001454
   00000001 00000018    1C    000014A4
   00000001 00000018    1C    0000151C
   00000001 00000018    1C    00001D14
   00000001 00000018    1C    00001D3C
   00000001 00000018    1C    00001D64
   00000001 00000018    1C    00001D8C
   00000001 00000018    1C    00001DB4
   00000001 00000018    1C    00001DDC
   00000001 00000018    1C    00001E04
   00000001 00000018    1C    00001E2C
   00000001 00000018    1C    00001E54
   00000001 00000018    1C    00001E7C
   00000001 00000018    1C    00001EA4
   00000001 00000018    1C    00001ECC
   00000001 00000018    1C    00001EF4
   00000001 00000018    1C    00001F1C
   00000001 00000018    1C    00001F44
   00000001 00000018    1C    00001F6C
   00000001 00000018    1C    00001F94
   00000001 00000018    1C    00001FBC
   00000001 00000018    1C    00001FE4
   00000001 00000018    1C    0000200C
   00000001 00000018    1C    00002034
   00000001 00000018    1C    0000205C
   00000001 00000018    1C    00002084
   00000001 00000018    1C    000020AC
   00000001 00000018    1C    000020D4
   00000001 00000018    1C    000020FC
   00000001 00000018    1C    00002124
1TOPS     (TOPS2025) (12:57) (15MAR04) Relocation Dictionary                                                                Page  133
   00000001 00000018    1C    0000214C
   00000001 00000018    1C    00002174
   00000001 00000018    1C    0000219C
   00000001 00000018    1C    000021C4
   00000001 00000018    1C    000021EC
   00000001 00000018    1C    00002214
   00000001 00000018    1C    0000223C
   00000001 00000018    1C    00002264
   00000001 00000018    1C    0000228C
   00000001 00000018    1C    000022B4
   00000001 00000018    1C    000022DC
   00000001 00000018    1C    0000232C
   00000001 00000018    1C    00002354
   00000001 00000018    1C    0000237C
   00000001 00000018    1C    000023A4
   00000001 00000018    1C    0000241C
   00000001 00000018    1C    00002444
   00000001 00000018    1C    0000246C
   00000001 00000018    1C    00002494
   00000001 00000018    1C    000024BC
   00000001 00000018    1C    000024E4
   00000001 00000018    1C    0000250C
   00000001 00000018    1C    00002534
   00000001 00000018    1C    0000255C
   00000001 00000018    1C    00002584
   00000001 00000018    1C    000025AC
   00000001 00000018    1C    000025D4
   00000001 00000018    1C    000025FC
   00000001 00000018    1C    000046FC
   00000001 00000018    1C    00007178
   00000001 00000018    1C    000071A0
   00000001 00000018    1C    000071C8
   00000001 00000018    1C    000071F0
   00000001 00000018    1C    00007218
   00000001 00000018    1C    00007240
   00000001 00000018    1C    00007268
   00000001 00000018    1C    00007290
   00000001 00000018    1C    000072B8
   00000001 00000018    1C    00007818
   00000001 00000018    1C    00007840
   00000001 00000018    1C    00007868
   00000001 00000019    1C    00000F7C
   00000001 00000019    1C    00001134
   00000001 00000019    1C    0000115C
   00000001 00000019    1C    00001184
   00000001 00000019    1C    000011AC
   00000001 00000019    1C    000011D4
   00000001 00000019    1C    000011FC
   00000001 00000019    1C    00001224
   00000001 00000019    1C    0000124C
   00000001 00000019    1C    00001274
   00000001 00000019    1C    0000129C
   00000001 00000019    1C    000012C4
   00000001 00000019    1C    000012EC
   00000001 00000019    1C    00001314
   00000001 00000019    1C    0000133C
   00000001 00000019    1C    00001364
   00000001 00000019    1C    0000138C
   00000001 00000019    1C    000013B4
1TOPS     (TOPS2025) (12:57) (15MAR04) Relocation Dictionary                                                                Page  134
   00000001 00000019    1C    000013DC
   00000001 00000019    1C    00001404
   00000001 00000019    1C    0000142C
   00000001 00000019    1C    0000147C
   00000001 00000019    1C    000014CC
   00000001 00000019    1C    000014F4
   00000001 00000019    1C    00001CEC
   00000001 00000019    1C    00002304
   00000001 00000019    1C    00007728
   00000001 00000019    1C    00007750
   00000001 00000019    1C    00007778
   00000001 00000019    1C    000077A0
   00000001 00000019    1C    000077C8
   00000001 00000019    1C    000077F0
   00000001 0000001A    1C    00000FA4
   00000001 0000001A    1C    00000FCC
   00000001 0000001A    1C    000023CC
   00000001 0000001A    1C    000023F4
   00000001 0000001A    1C    00002624
   00000001 0000001A    1C    0000264C
   00000001 0000001A    1C    00002674
   00000001 0000001A    1C    000046D4
   00000001 0000001B    1C    00001544
   00000001 0000001B    1C    0000269C
   00000001 0000001B    1C    00003574
   00000001 0000001B    1C    00004774
   00000001 0000001B    1C    00004958
   00000001 0000001B    1C    00007308
   00000001 0000001B    1C    000078B8
   00000001 0000001C    1C    000018C0
   00000001 0000001C    1C    00007B50
   00000001 0000001D    1C    000018CC
   00000001 0000001D    1C    000060A8
   00000001 0000001D    1C    00006D80
   00000001 0000001D    1C    00008C7C
   00000001 0000001E    1C    000018D0
   00000001 0000001F    1C    000018D4
   00000001 0000001F    1C    00004218
   00000001 0000001F    1C    00006DB4
   00000001 00000020    1C    000018D8
   00000001 00000021    1C    000018DC
   00000001 00000022    1C    000018E0
   00000001 00000023    1C    000018E4
   00000001 00000024    1C    00001BE4
   00000001 00000024    1C    00006D48
   00000001 00000025    1C    00001C1C
   00000001 00000025    1C    00004200
   00000001 00000025    1C    00005608
   00000001 00000026    1C    00001C20
   00000001 00000026    1C    00002954
   00000001 00000026    1C    00004214
   00000001 00000026    1C    00004B14
   00000001 00000026    1C    00005618
   00000001 00000026    1C    000060A4
   00000001 00000026    1C    00006D60
   00000001 00000026    1C    0000839C
   00000001 00000026    1C    00008C08
   00000001 00000026    1C    00008E84
   00000001 00000027    1C    00001C30
1TOPS     (TOPS2025) (12:57) (15MAR04) Relocation Dictionary                                                                Page  135
   00000001 00000027    1C    00003C84
   00000001 00000027    1C    00006D8C
   00000001 00000027    1C    00008E70
   00000001 00000028    1C    00001C38
   00000001 00000028    1C    00004B0C
   00000001 00000028    1C    0000562C
   00000001 00000028    1C    0000836C
   00000001 00000028    1C    00008E78
   00000001 00000029    1C    00001C3C
   00000001 00000029    1C    00003C68
   00000001 0000002A    1C    00001C48
   00000001 0000002A    1C    000038F8
   00000001 0000002A    1C    00003C64
   00000001 0000002B    1C    00001CC4
   00000001 0000002B    1C    00003524
   00000001 0000002B    1C    00007150
   00000001 0000002B    1C    00007700
   00000001 0000002B    1C    00007890
   00000001 0000002C    1C    00002060
   00000001 0000002D    1C    00002998
   00000001 0000002E    1C    0000299C
   00000001 0000002F    1C    0000354C
   00000001 00000030    1C    00003C7C
   00000001 00000030    1C    00004B2C
   00000001 00000031    1C    00003C80
   00000001 00000032    1C    00003C88
   00000001 00000033    1C    00004210
   00000001 00000033    1C    00005634
   00000001 00000033    1C    000060B8
   00000001 00000033    1C    00008C4C
   00000001 00000034    1C    0000421C
   00000001 00000034    1C    00004B80
   00000001 00000034    1C    00005614
   00000001 00000034    1C    00008C50
   00000001 00000035    1C    00004228
   00000001 00000035    1C    00005624
   00000001 00000035    1C    0000609C
   00000001 00000035    1C    00006D88
   00000001 00000035    1C    00008C34
   00000001 00000036    1C    0000422C
   00000001 00000037    1C    000046AC
   00000001 00000038    1C    00004728
   00000001 00000038    1C    000048E4
   00000001 00000039    1C    00004750
   00000001 00000039    1C    0000490C
   00000001 0000003A    1C    00004934
   00000001 0000003A    1C    000072E4
   00000001 0000003B    1C    00004B04
   00000001 0000003C    1C    00004B1C
   00000001 0000003D    1C    00004B20
   00000001 0000003E    1C    00004B30
   00000001 0000003F    1C    00005640
   00000001 0000003F    1C    00006D74
   00000001 0000003F    1C    00008C40
   00000001 0000003F    1C    00008E7C
   00000001 00000040    1C    00005644
   00000001 00000040    1C    00008C44
   00000001 00000041    1C    00005660
   00000001 00000042    1C    000060AC
1TOPS     (TOPS2025) (12:57) (15MAR04) Relocation Dictionary                                                                Page  136
   00000001 00000042    1C    00006DB8
   00000001 00000042    1C    00008C58
   00000001 00000043    1C    000060B0
   00000001 00000043    1C    00008C78
   00000001 00000044    1C    00006D70
   00000001 00000045    1C    00006D78
   00000001 00000045    1C    00008E80
   00000001 00000046    1C    00006D94
   00000001 00000047    1C    00006DB0
   00000001 00000047    1C    00008E88
   00000001 00000048    1C    00007B04
   00000001 00000049    1C    00007B2C
   00000001 0000004A    1C    00007B30
   00000001 0000004B    1C    00008370
   00000001 0000004C    1C    0000837C
   00000001 0000004D    1C    00008394
   00000001 0000004E    1C    000083CC
   00000001 0000004F    1C    00008C64
   00000001 00000050    1C    00008C74

1TOPS     (TOPS2025) (12:57) (15MAR04) Ordinary Symbol and Literal Cross Reference                                          Page  137
-Symbol   Length   Value     Id    R Type   Defn References                                  HLASM R4.0  2004/03/15 12.57
0$$$@R0        1 00000000 FFFFFFFE     J     705  1015
 $$$@R10       1 00000000 FFFFFFF4     J     835  1079
 $$$@R11       1 00000000 FFFFFFF3     J     848  1092
 $$$@R12       1 00000000 FFFFFFF2     J     861  1105
 $$$@R13       1 00000000 FFFFFFF1     J     874  1118
 $$$@R14       1 00000000 FFFFFFF0     J     887  1131
 $$$@R7        1 00000000 FFFFFFF7     J     796  1028
 $$$@R8        1 00000000 FFFFFFF6     J     809  1041   1053
 $$$@R9        1 00000000 FFFFFFF5     J     822  1066
 $$$C1WYLTOPS
               1 00000F0A 00000001     J   13197 13199  13825  14429
 $$$C10WYLTOPS
               1 000061A8 00000001     J   35092 35094  35118  36054  37828  38977
 $$$C11WYLTOPS
               1 00006ED4 00000001     J   39395 39397
 $$$C12WYLTOPS
               1 00006ED8 00000001     J   39408 39410  39445  41112  42110  42359
 $$$C13WYLTOPS
               1 00007BAE 00000001     J   42450 42452  42490
 $$$C14WYLTOPS
               1 00008460 00000001     J   45565 45567
 $$$C15WYLTOPS
               1 00008D2B 00000001     J   48736 48738  48770
 $$$C16WYLTOPS
               1 00008E95 00000001     J   49302 49304
 $$$C17WYLTOPS
               1 00008E98 00000001     J   49320 49322
 $$$C2WYLTOPS
               1 00001932 00000001     J   15020 15022
 $$$C3WYLTOPS
               1 00001CA2 00000001     J   15873 15875
 $$$C4WYLTOPS
               1 000029E9 00000001     J   17597 17599
 $$$C5WYLTOPS
               1 00003970 00000001     J   22639 22641  22840
 $$$C6WYLTOPS
               1 00003CD9 00000001     J   23861 23863
 $$$C7WYLTOPS
               1 000042C6 00000001     J   25808 25810  26009  26199
 $$$C8WYLTOPS
               1 00004C4C 00000001     J   28138 28140  28744  29068  30959
 $$$C9WYLTOPS
               1 00005792 00000001     J   31505 31507  31531  32980  33165  33583
 $$$D0WYLTOPS
               1 00000F03 00000001     J     991  9141
 $$$D10WYLTOPS
               1 00006ECE 00000001     J   35093 37817
 $$$D12WYLTOPS
               1 00007BA1 00000001     J   39409 42099  42348
 $$$D7WYLTOPS
               1 00004C46 00000001     J   25809 25998
 $$$D8WYLTOPS
               1 0000577F 00000001     J   28139 28733  29057  30948
 $$$RARNGWA
               1 00000000 FFFFFFD2     J   41097 41111  41111
1TOPS     (TOPS2025) (12:57) (15MAR04) Ordinary Symbol and Literal Cross Reference                                          Page  138
 $$$RCP        1 00000000 FFFFFFEC     J    2451  4711   6185   6185
 $$$RCV        1 00000000 FFFFFFEE     J    1176  2361   2361
 $$$RDEV       1 00000000 FFFFFFEB     J    4665  4710   4710
 $$$RFDB       1 00000000 FFFFFFE5     J    7089  7197   7197
 $$$RFSB       1 00000000 FFFFFFE6     J    6882  7069   7069
 $$$RGETRWA
               1 00000000 FFFFFFD3     J   39430 39444  39444
 $$$RILWA      1 00000000 FFFFFFD8     J   33151 33164  33164
 $$$RJCB       1 00000000 FFFFFFE9     J    6319  6593   6593
 $$$RNSCNCB
               1 00000000 FFFFFFED     J    2372  2445   2445
 $$$RPDB       1 00000000 FFFFFFE8     J    6604  6796   6796
 $$$RPSB       1 00000000 FFFFFFE4     J    7207  7468   7468
 $$$RRNE       1 00000000 FFFFFFE1     J    8223  8269   8269
 $$$RRNGCB
               1 00000000 FFFFFFE0     J    8275  8391   8391
 $$$RSBSWA
               1 00000000 FFFFFFDE     J   13811 13824  13824
 $$$RSENDWA
               1 00000000 FFFFFFD0     J   48744 48769  48769
 $$$RSETTWA
               1 00000000 FFFFFFDC     J   22826 22839  22839
 $$$RSHLIWA
               1 00000000 FFFFFFD9     J   32966 32979  32979
 $$$RSHUWA
               1 00000000 FFFFFFD7     J   33555 33582  33582
 $$$RSHWLWA
               1 00000000 FFFFFFDA     J   31517 31530  31530
 $$$RSHWPWA
               1 00000000 FFFFFFD6     J   35104 35117  35117
 $$$RSSB       1 00000000 FFFFFFE3     J    7478  7517   7517
 $$$RSTYPWA
               1 00000000 FFFFFFDF     J    8397  8424   8424
 $$$RTABWA
               1 00000000 FFFFFFDB     J   26168 26198  26198
 $$$RTOWA      1 00000000 FFFFFFD5     J   35950 36053  36053
 $$$RTRNGWA
               1 00000000 FFFFFFD1     J   42476 42489  42489
 $$$RTTYPE
               1 00000000 FFFFFFEA     J    6196  6297   6297
 $$$RTUWA      1 00000000 FFFFFFD4     J   38963 38976  38976
 $$$RXCTLWA
               1 00000000 FFFFFFDD     J   14415 14428  14428
 $$$SEGCB0
               4 00000050 FFFFFFEC     F    2482  2568   2568
 $$$SEGCB805
               4 00000000 FFFFFFD5     F   35957 36043  36043
 $$$100B       1 00000292 00000001     X    9282  9289U
 $$$1000       1 00000050 00000001 A   U   43857 43854  43856
 $$$1002B      1 00007FAC 00000001     X   43893 43900U
 $$$1003F      2 00007FD6 00000001     H   43998 43983B
 $$$1004F      2 00007FE2 00000001     H   44024 44009B
 $$$1005F      2 00008012 00000001     H   44090 44076B
 $$$1006F      2 00008028 00000001     H   44140 44120B
 $$$1008F      2 00008040 00000001     H   44167 44156B
 $$$1009       1 00000050 00000001 A   U   44240 44237  44239
 $$$1011B      1 00008096 00000001     X   44285 44292U
 $$$1012F      2 000080D2 00000001     H   44418 44403B
 $$$1013F      2 000080DE 00000001     H   44444 44429B
1TOPS     (TOPS2025) (12:57) (15MAR04) Ordinary Symbol and Literal Cross Reference                                          Page  139
 $$$1014F      2 0000810E 00000001     H   44510 44496B
 $$$1015F      2 00008124 00000001     H   44560 44540B
 $$$1017F      2 00008134 00000001     H   44592 44575B
 $$$1019F      2 00008144 00000001     H   44624 44607B
 $$$1021F      2 00008154 00000001     H   44656 44639B
 $$$1023F      2 0000816C 00000001     H   44683 44672B
 $$$1024       1 00000050 00000001 A   U   44757 44754  44756
 $$$1026B      1 000081C8 00000001     X   44802 44809U
 $$$1027F      2 00008204 00000001     H   44935 44920B
 $$$1028F      2 00008210 00000001     H   44961 44946B
 $$$1029B      4 00008226 00000001     I   45000 45042
 $$$1029F      2 0000823E 00000001     H   45039 45000B 45041
 $$$1030E      2 00008242 00000001     H   45049 45043
 $$$1030F      2 000082A4 00000001     H   45214 45045B
 $$$1031B      4 0000825A 00000001     I   45082 45118
 $$$1031F      2 00008268 00000001     H   45115 45082B 45117
 $$$1032E      2 0000826C 00000001     H   45125 45119
 $$$1032F      2 000082A0 00000001     H   45208 45121B
 $$$1033F      2 000082BC 00000001     H   45248 45234B
 $$$1034F      2 000082D2 00000001     H   45298 45278B
 $$$1036F      2 000082E2 00000001     H   45330 45313B
 $$$1038F      2 000082F2 00000001     H   45362 45345B
 $$$1040F      2 00008302 00000001     H   45394 45377B
 $$$1042F      2 0000831A 00000001     H   45421 45410B
 $$$1043       1 00000050 00000001 A   U   45495 45492  45494
 $$$1045B      1 0000847A 00000001     X   45606 45613U
 $$$1046F      2 000084BE 00000001     H   45733 45697B
 $$$1047F      2 000084BE 00000001     H   45729 45716B
 $$$1048F      2 000084CE 00000001     H   45757 45744B
 $$$1049F      2 00008582 00000001     H   45990 45924B
 $$$105        1 00000050 00000001 A   U    9484  9481   9483
 $$$1050F      2 000085C0 00000001     H   46068 46003B
 $$$1051F      2 0000862C 00000001     H   46232 46107B
 $$$1052F      2 00008616 00000001     H   46199 46158B
 $$$1053       1 00000050 00000001 A   U   46277 46274  46276
 $$$1055B      1 00008660 00000001     X   46331 46338U
 $$$1056F      2 000086BC 00000001     H   46506 46496B
 $$$1057F      2 000086DC 00000001     H   46567 46557B
 $$$1058B      4 000086EA 00000001     I   46603 46632
 $$$1058F      2 00008700 00000001     H   46629 46603B 46631
 $$$1059E      2 00008704 00000001     H   46639 46633
 $$$1059F      2 0000888C 00000001     H   47222 46635B
 $$$1060F      2 00008778 00000001     H   46802 46714B
 $$$1061F      2 00008792 00000001     H   46841 46814B
 $$$1062F      2 000087AC 00000001     H   46879 46852B
 $$$1063F      2 000087C6 00000001     H   46917 46890B
 $$$1064F      2 000087E0 00000001     H   46955 46928B
 $$$1065F      2 000087FA 00000001     H   46993 46966B
 $$$1066F      2 00008814 00000001     H   47031 47004B
 $$$1067F      2 0000882E 00000001     H   47069 47042B
 $$$1068F      2 00008848 00000001     H   47108 47081B
 $$$1069F      2 00008872 00000001     H   47180 47120B
 $$$107B       1 000003C4 00000001     X    9512  9519U
 $$$1070F      2 00008868 00000001     H   47152 47139B
 $$$1071F      2 0000888C 00000001     H   47218 47191B
 $$$1072       1 00000050 00000001 A   U   47244 47241  47243
 $$$1074B      1 000088B6 00000001     X   47299 47306U
 $$$1075B      4 000088DA 00000001     I   47388 47448
 $$$1075F      2 00008902 00000001     H   47444 47388B 47447
1TOPS     (TOPS2025) (12:57) (15MAR04) Ordinary Symbol and Literal Cross Reference                                          Page  140
 $$$1076E      2 00008906 00000001     H   47455 47449
 $$$1076F      2 000089CE 00000001     H   47788 47451B
 $$$1077B      4 0000891A 00000001     I   47487 47587
 $$$1077F      2 00008950 00000001     H   47583 47487B 47586
 $$$1078F      2 0000892A 00000001     H   47514 47504B
 $$$1079F      2 00008950 00000001     H   47579 47552B
 $$$108B       4 00000412 00000001     I    9579  9597
 $$$108F       2 00000424 00000001     H    9592  9568B  9579B  9594
 $$$1080E      2 00008954 00000001     H   47594 47588
 $$$1080F      2 000089CA 00000001     H   47781 47590B
 $$$1081F      2 000089C0 00000001     H   47753 47706B
 $$$1082F      2 000089E2 00000001     H   47830 47817B
 $$$1083F      2 00008A50 00000001     H   47997 47846B
 $$$1084F      2 00008A00 00000001     H   47874 47861B
 $$$1085F      2 00008A10 00000001     H   47898 47885B
 $$$1086F      2 00008A20 00000001     H   47922 47909B
 $$$1087F      2 00008A40 00000001     H   47969 47933B
 $$$1088F      2 00008A40 00000001     H   47965 47952B
 $$$1089F      2 00008A50 00000001     H   47993 47980B
 $$$109B       4 0000040C 00000001     I    9568  9595
 $$$1090F      2 00008A7E 00000001     H   48074 48051B
 $$$1091F      2 00008AA2 00000001     H   48146 48087B
 $$$1092F      2 00008AA2 00000001     H   48142 48105B 48119B
 $$$1094B      4 00008AB2 00000001     I   48183 48556
 $$$1094F      2 00008B98 00000001     H   48552 48183B 48555
 $$$1095B      4 00008ABA 00000001     I   48202 48441
 $$$1095F      2 00008B54 00000001     H   48435 48202B 48440
 $$$1096B      4 00008AC4 00000001     I   48218 48258
 $$$1096F      2 00008ADA 00000001     H   48255 48218B 48257
 $$$1097E      2 00008ADE 00000001     H   48265 48259
 $$$1097F      2 00008B14 00000001     H   48345 48261B
 $$$1098F      2 00008B54 00000001     H   48431 48358B
 $$$1099E      2 00008B58 00000001     H   48448 48442
 $$$1099F      2 00008B98 00000001     H   48548 48444B
 $$$110E       2 00000428 00000001     H    9604  9596   9598
 $$$110F       2 0000042C 00000001     H    9610  9600B
 $$$1100F      2 00008B98 00000001     H   48544 48489B
 $$$1101E      2 00008B9C 00000001     H   48563 48557
 $$$1101F      2 00008BB6 00000001     H   48606 48559B
 $$$1102F      2 00008BB6 00000001     H   48602 48575B
 $$$1103       1 00000050 00000001 A   U   48660 48657  48659
 $$$1105B      1 00008D46 00000001     X   48813 48820U
 $$$1106F      2 00008E5E 00000001     H   49253 48980B
 $$$1106S      2 00008D66 00000001     H   48857 49252B
 $$$1107F      2 00008D82 00000001     H   48905 48888B
 $$$1108F      2 00008D9E 00000001     H   48958 48943B
 $$$111        1 00000050 00000001 A   U    9628  9625   9627
 $$$1110F      2 00008DD4 00000001     H   49048 49017B
 $$$1111F      2 00008DD0 00000001     H   49043 49033B
 $$$1112F      2 00008DE6 00000001     H   49091 49074B
 $$$1113F      2 00008E46 00000001     H   49219 49204B
 $$$1114F      2 00008E5A 00000001     H   49248 49232B
 $$$1115       1 00000074 00000001 A   U   49278 49275  49277
 $$$113B       1 00000454 00000001     X    9656  9663U
 $$$114B       4 00000468 00000001     I    9703  9770
 $$$114F       2 000004CA 00000001     H    9764  9690B  9703B  9767
 $$$115B       4 00000460 00000001     I    9690  9768
 $$$117E       2 000004CE 00000001     H    9777  9769   9771
 $$$117F       2 000004D8 00000001     H    9787  9773B
1TOPS     (TOPS2025) (12:57) (15MAR04) Ordinary Symbol and Literal Cross Reference                                          Page  141
 $$$119        1 00000050 00000001 A   U    9859  9856   9858
 $$$121B       1 00000546 00000001     X    9886  9893U
 $$$122        1 00000050 00000001 A   U    9920  9917   9919
 $$$123F       2 00000624 00000001     H   10156 10019B
 $$$124B       1 00000572 00000001     X    9947  9954U
 $$$125F       2 000005D4 00000001     H   10023 10011B
 $$$126F       2 00000622 00000001     H   10143 10033B
 $$$127B       4 000005E0 00000001     I   10059 10071
 $$$127F       2 000005E8 00000001     H   10068 10059B 10070
 $$$128E       2 000005EC 00000001     H   10078 10072
 $$$128F       2 00000622 00000001     H   10139 10074B
 $$$129F       2 0000061A 00000001     H   10126 10094B
 $$$130F       2 0000061A 00000001     H   10122 10109B
 $$$131        1 00000050 00000001 A   U   10165 10162  10164
 $$$133B       1 0000064C 00000001     X   10192 10199U
 $$$134        1 00000050 00000001 A   U   10231 10228  10230
 $$$136B       1 00000678 00000001     X   10258 10265U
 $$$137        1 00000050 00000001 A   U   10298 10295  10297
 $$$139B       1 000006A4 00000001     X   10325 10332U
 $$$140        1 00000050 00000001 A   U   10364 10361  10363
 $$$142B       1 000006D0 00000001     X   10391 10398U
 $$$143        1 00000050 00000001 A   U   10430 10427  10429
 $$$145B       1 000006FC 00000001     X   10457 10464U
 $$$146        1 00000050 00000001 A   U   10497 10494  10496
 $$$148B       1 00000728 00000001     X   10524 10531U
 $$$149        1 00000050 00000001 A   U   10570 10567  10569
 $$$151B       1 00000758 00000001     X   10597 10604U
 $$$152        1 00000050 00000001 A   U   10643 10640  10642
 $$$154B       1 00000788 00000001     X   10670 10677U
 $$$155        1 00000050 00000001 A   U   10713 10710  10712
 $$$157B       1 000007B4 00000001     X   10740 10747U
 $$$158        1 00000050 00000001 A   U   10800 10797  10799
 $$$160B       1 000007F0 00000001     X   10827 10834U
 $$$161        1 00000050 00000001 A   U   10887 10884  10886
 $$$163B       1 0000082C 00000001     X   10914 10921U
 $$$164        1 00000050 00000001 A   U   10974 10971  10973
 $$$166B       1 00000868 00000001     X   11001 11008U
 $$$167        1 00000050 00000001 A   U   11061 11058  11060
 $$$169B       1 000008A4 00000001     X   11088 11095U
 $$$170        1 00000050 00000001 A   U   11148 11145  11147
 $$$172B       1 000008E0 00000001     X   11175 11182U
 $$$173        1 00000050 00000001 A   U   11235 11232  11234
 $$$175B       1 0000091C 00000001     X   11262 11269U
 $$$176        1 00000050 00000001 A   U   11322 11319  11321
 $$$178B       1 00000958 00000001     X   11349 11356U
 $$$179        1 00000050 00000001 A   U   11409 11406  11408
 $$$181B       1 00000994 00000001     X   11436 11443U
 $$$182        1 00000050 00000001 A   U   11496 11493  11495
 $$$184B       1 000009D0 00000001     X   11523 11530U
 $$$185        1 00000050 00000001 A   U   11583 11580  11582
 $$$187B       1 00000A0C 00000001     X   11610 11617U
 $$$188        1 00000050 00000001 A   U   11670 11667  11669
 $$$190B       1 00000A48 00000001     X   11697 11704U
 $$$191        1 00000050 00000001 A   U   11757 11754  11756
 $$$193B       1 00000A84 00000001     X   11784 11791U
 $$$194        1 00000050 00000001 A   U   11844 11841  11843
 $$$196B       1 00000AC0 00000001     X   11871 11878U
 $$$197        1 00000050 00000001 A   U   11910 11907  11909
 $$$199B       1 00000AEC 00000001     X   11937 11944U
1TOPS     (TOPS2025) (12:57) (15MAR04) Ordinary Symbol and Literal Cross Reference                                          Page  142
 $$$200        1 00000050 00000001 A   U   11997 11994  11996
 $$$202B       1 00000B28 00000001     X   12024 12031U
 $$$203        1 00000050 00000001 A   U   12084 12081  12083
 $$$205B       1 00000B64 00000001     X   12111 12118U
 $$$206        1 00000050 00000001 A   U   12171 12168  12170
 $$$208B       1 00000BA0 00000001     X   12198 12205U
 $$$209        1 00000050 00000001 A   U   12258 12255  12257
 $$$211B       1 00000BDC 00000001     X   12285 12292U
 $$$212        1 00000050 00000001 A   U   12345 12342  12344
 $$$214B       1 00000C18 00000001     X   12372 12379U
 $$$215        1 00000050 00000001 A   U   12432 12429  12431
 $$$217B       1 00000C54 00000001     X   12459 12466U
 $$$218        1 00000050 00000001 A   U   12519 12516  12518
 $$$220B       1 00000C90 00000001     X   12546 12553U
 $$$221        1 00000050 00000001 A   U   12585 12582  12584
 $$$223B       1 00000CBC 00000001     X   12612 12619U
 $$$224        1 00000050 00000001 A   U   12672 12669  12671
 $$$226B       1 00000CF8 00000001     X   12699 12706U
 $$$227        1 00000050 00000001 A   U   12759 12756  12758
 $$$229B       1 00000D34 00000001     X   12789 12796U
 $$$230B       4 00000D54 00000001     I   12847 12861
 $$$230F       2 00000D60 00000001     H   12858 12847B 12860
 $$$231E       2 00000D64 00000001     H   12868 12862
 $$$231F       2 00000D70 00000001     H   12899 12864B
 $$$232        1 00000050 00000001 A   U   12921 12918  12920
 $$$234B       1 00000D9A 00000001     X   12948 12955U
 $$$235        1 00000050 00000001 A   U   12982 12979  12981
 $$$237B       1 00000DC6 00000001     X   13009 13016U
 $$$238        1 00000050 00000001 A   U   13131 13128  13130
 $$$240B       1 00001566 00000001     X   13854 13861U
 $$$241F       2 000015CA 00000001     H   13952 13891B
 $$$243F       2 000015EC 00000001     H   14002 13989B
 $$$244F       2 000015FC 00000001     H   14028 14015B
 $$$245F       2 0000160A 00000001     H   14054 14041B
 $$$246F       2 0000164E 00000001     H   14134 14071B
 $$$247F       2 00001680 00000001     H   14193 14149B
 $$$248F       2 000016A6 00000001     H   14246 14220B 14233B
 $$$248S       2 0000168E 00000001     H   14212 14245B
 $$$251F       2 000016CC 00000001     H   14324 14311B
 $$$252F       2 000016DC 00000001     H   14356 14340B
 $$$253F       2 000016EE 00000001     H   14381 14368B
 $$$254        1 00000058 00000001 A   U   14405 14402  14404
 $$$256B       1 0000171A 00000001     X   14458 14465U
 $$$257F       2 0000177E 00000001     H   14557 14496B
 $$$259F       2 000017A0 00000001     H   14610 14597B
 $$$260F       2 000017B0 00000001     H   14636 14623B
 $$$261F       2 000017BE 00000001     H   14662 14649B
 $$$262F       2 000017FE 00000001     H   14741 14679B
 $$$263F       2 00001830 00000001     H   14800 14756B
 $$$264F       2 00001844 00000001     H   14836 14818B
 $$$266F       2 00001870 00000001     H   14901 14875B 14888B
 $$$266S       2 00001858 00000001     H   14867 14900B
 $$$269        1 00000058 00000001 A   U   14985 14982  14984
 $$$271B       1 0000194C 00000001     X   15059 15066U
 $$$272F       2 0000197A 00000001     H   15121 15089B
 $$$273F       2 0000197A 00000001     H   15117 15104B
 $$$274        1 00000050 00000001 A   U   15169 15166  15168
 $$$276B       1 000019B0 00000001     X   15205 15212U
 $$$277F       2 000019C0 00000001     H   15246 15233B
1TOPS     (TOPS2025) (12:57) (15MAR04) Ordinary Symbol and Literal Cross Reference                                          Page  143
 $$$278        1 00000050 00000001 A   U   15287 15284  15286
 $$$280B       1 00001A00 00000001     X   15320 15327U
 $$$281F       2 00001A1E 00000001     H   15368 15355B
 $$$282        1 00000050 00000001 A   U   15415 15412  15414
 $$$284B       1 00001A5C 00000001     X   15449 15456U
 $$$285F       2 00001B38 00000001     H   15622 15610B
 $$$286B       4 00001B42 00000001     I   15640 15794
 $$$286F       2 00001BB6 00000001     H   15790 15640B 15793
 $$$287F       2 00001B98 00000001     H   15739 15667B
 $$$288F       2 00001BB6 00000001     H   15786 15755B 15773B
 $$$290E       2 00001BBA 00000001     H   15801 15795
 $$$290F       2 00001BC0 00000001     H   15810 15797B
 $$$291        1 00000150 00000001 A   U   15835 15832  15834
 $$$293B       1 000026BE 00000001     X   16863 16870U
 $$$294        1 00000050 00000001 A   U   16903 16900  16902
 $$$296B       1 000026F2 00000001     X   16930 16937U
 $$$297        1 00000050 00000001 A   U   16963 16960  16962
 $$$298F       2 00002838 00000001     H   17282 17198B
 $$$299B       1 0000271A 00000001     X   16990 16997U
 $$$300F       2 00002748 00000001     H   17052 17020B
 $$$301F       2 00002748 00000001     H   17048 17035B
 $$$302F       2 0000280C 00000001     H   17257 17112B
 $$$303F       2 000027DE 00000001     H   17202 17129B 17147B 17166B 17185B
 $$$307        1 00000050 00000001 A   U   17291 17288  17290
 $$$309B       1 00002860 00000001     X   17318 17325U
 $$$310F       2 0000287E 00000001     H   17368 17352B
 $$$311F       2 00002892 00000001     H   17394 17379B
 $$$312F       2 000028CC 00000001     H   17508 17408B
 $$$313F       2 000028A8 00000001     H   17437 17427B
 $$$314F       2 000028B4 00000001     H   17460 17450B
 $$$315F       2 000028C0 00000001     H   17483 17473B
 $$$316F       2 000028CC 00000001     H   17504 17494B
 $$$317F       2 0000290A 00000001     H   17545 17521B
 $$$318        1 00000050 00000001 A   U   17567 17564  17566
 $$$320B       1 00002A04 00000001     X   17626 17633U
 $$$321        1 00000050 00000001 A   U   17666 17663  17665
 $$$323B       1 00002A30 00000001     X   17693 17700U
 $$$324        1 00000050 00000001 A   U   17732 17729  17731
 $$$326B       1 00002A5C 00000001     X   17759 17766U
 $$$327        1 00000050 00000001 A   U   17799 17796  17798
 $$$329B       1 00002A88 00000001     X   17826 17833U
 $$$330        1 00000050 00000001 A   U   17865 17862  17864
 $$$332B       1 00002AB4 00000001     X   17892 17899U
 $$$333        1 00000050 00000001 A   U   17932 17929  17931
 $$$335B       1 00002AE0 00000001     X   17959 17966U
 $$$336        1 00000050 00000001 A   U   17998 17995  17997
 $$$338B       1 00002B0C 00000001     X   18025 18032U
 $$$339        1 00000050 00000001 A   U   18065 18062  18064
 $$$341B       1 00002B38 00000001     X   18092 18099U
 $$$342        1 00000050 00000001 A   U   18131 18128  18130
 $$$344B       1 00002B64 00000001     X   18158 18165U
 $$$345        1 00000050 00000001 A   U   18198 18195  18197
 $$$347B       1 00002B90 00000001     X   18225 18232U
 $$$348        1 00000050 00000001 A   U   18264 18261  18263
 $$$350B       1 00002BBC 00000001     X   18291 18298U
 $$$351        1 00000050 00000001 A   U   18330 18327  18329
 $$$353B       1 00002BE8 00000001     X   18357 18364U
 $$$354        1 00000050 00000001 A   U   18397 18394  18396
 $$$356B       1 00002C14 00000001     X   18424 18431U
1TOPS     (TOPS2025) (12:57) (15MAR04) Ordinary Symbol and Literal Cross Reference                                          Page  144
 $$$357        1 00000050 00000001 A   U   18464 18461  18463
 $$$359B       1 00002C40 00000001     X   18491 18498U
 $$$360        1 00000050 00000001 A   U   18530 18527  18529
 $$$362B       1 00002C6C 00000001     X   18557 18564U
 $$$363        1 00000050 00000001 A   U   18596 18593  18595
 $$$365B       1 00002C98 00000001     X   18623 18630U
 $$$366        1 00000050 00000001 A   U   18663 18660  18662
 $$$368B       1 00002CC4 00000001     X   18690 18697U
 $$$369        1 00000050 00000001 A   U   18729 18726  18728
 $$$371B       1 00002CF0 00000001     X   18756 18763U
 $$$372        1 00000050 00000001 A   U   18796 18793  18795
 $$$374B       1 00002D1C 00000001     X   18823 18830U
 $$$375        1 00000050 00000001 A   U   18863 18860  18862
 $$$377B       1 00002D48 00000001     X   18890 18897U
 $$$378        1 00000050 00000001 A   U   18929 18926  18928
 $$$380B       1 00002D74 00000001     X   18956 18963U
 $$$381        1 00000050 00000001 A   U   18995 18992  18994
 $$$383B       1 00002DA0 00000001     X   19022 19029U
 $$$384        1 00000050 00000001 A   U   19062 19059  19061
 $$$386B       1 00002DCC 00000001     X   19089 19096U
 $$$387        1 00000050 00000001 A   U   19128 19125  19127
 $$$389B       1 00002DF8 00000001     X   19155 19162U
 $$$390        1 00000050 00000001 A   U   19195 19192  19194
 $$$392B       1 00002E24 00000001     X   19222 19229U
 $$$393        1 00000050 00000001 A   U   19277 19274  19276
 $$$395B       1 00002E62 00000001     X   19304 19311U
 $$$396        1 00000050 00000001 A   U   19360 19357  19359
 $$$398B       1 00002EA0 00000001     X   19387 19394U
 $$$399        1 00000050 00000001 A   U   19426 19423  19425
 $$$401B       1 00002ECC 00000001     X   19453 19460U
 $$$402        1 00000050 00000001 A   U   19493 19490  19492
 $$$404B       1 00002EF8 00000001     X   19520 19527U
 $$$405        1 00000050 00000001 A   U   19559 19556  19558
 $$$407B       1 00002F24 00000001     X   19586 19593U
 $$$408        1 00000050 00000001 A   U   19626 19623  19625
 $$$410B       1 00002F50 00000001     X   19653 19660U
 $$$411        1 00000050 00000001 A   U   19692 19689  19691
 $$$413B       1 00002F7C 00000001     X   19719 19726U
 $$$414        1 00000050 00000001 A   U   19759 19756  19758
 $$$416B       1 00002FA8 00000001     X   19786 19793U
 $$$417        1 00000050 00000001 A   U   19825 19822  19824
 $$$419B       1 00002FD4 00000001     X   19852 19859U
 $$$420        1 00000050 00000001 A   U   19892 19889  19891
 $$$422B       1 00003000 00000001     X   19919 19926U
 $$$423F       2 00003016 00000001     H   19966 19950B
 $$$424        1 00000050 00000001 A   U   19990 19987  19989
 $$$426B       1 0000304A 00000001     X   20017 20024U
 $$$427F       2 00003066 00000001     H   20068 20050B
 $$$428        1 00000050 00000001 A   U   20090 20087  20089
 $$$430B       1 00003090 00000001     X   20117 20124U
 $$$431        1 00000050 00000001 A   U   20151 20148  20150
 $$$433B       1 000030BC 00000001     X   20178 20185U
 $$$434F       2 00003162 00000001     H   20350 20240B
 $$$435B       4 00003120 00000001     I   20266 20278
 $$$435F       2 00003128 00000001     H   20275 20266B 20277
 $$$436E       2 0000312C 00000001     H   20285 20279
 $$$436F       2 00003162 00000001     H   20346 20281B
 $$$437F       2 0000315A 00000001     H   20333 20301B
 $$$438F       2 0000315A 00000001     H   20329 20316B
1TOPS     (TOPS2025) (12:57) (15MAR04) Ordinary Symbol and Literal Cross Reference                                          Page  145
 $$$439        1 00000050 00000001 A   U   20372 20369  20371
 $$$441B       1 0000318C 00000001     X   20399 20406U
 $$$442        1 00000050 00000001 A   U   20439 20436  20438
 $$$444B       1 000031BA 00000001     X   20466 20473U
 $$$445        1 00000050 00000001 A   U   20506 20503  20505
 $$$447B       1 000031EE 00000001     X   20533 20540U
 $$$448        1 00000050 00000001 A   U   20576 20573  20575
 $$$450B       1 00003222 00000001     X   20603 20610U
 $$$451        1 00000050 00000001 A   U   20653 20650  20652
 $$$453B       1 0000325C 00000001     X   20680 20687U
 $$$454        1 00000050 00000001 A   U   20733 20730  20732
 $$$456B       1 0000328C 00000001     X   20760 20767U
 $$$457        1 00000050 00000001 A   U   20812 20809  20811
 $$$459B       1 000032B8 00000001     X   20839 20846U
 $$$460        1 00000050 00000001 A   U   20891 20888  20890
 $$$462B       1 000032E8 00000001     X   20918 20925U
 $$$463        1 00000050 00000001 A   U   20970 20967  20969
 $$$465B       1 00003318 00000001     X   20997 21004U
 $$$466        1 00000050 00000001 A   U   21049 21046  21048
 $$$468B       1 00003348 00000001     X   21076 21083U
 $$$469        1 00000050 00000001 A   U   21115 21112  21114
 $$$471B       1 00003374 00000001     X   21142 21149U
 $$$472        1 00000050 00000001 A   U   21182 21179  21181
 $$$474B       1 000033A0 00000001     X   21209 21216U
 $$$475        1 00000050 00000001 A   U   21283 21280  21282
 $$$477B       1 00003422 00000001     X   21310 21317U
 $$$478F       2 00003432 00000001     H   21352 21339B
 $$$479        1 00000050 00000001 A   U   21414 21411  21413
 $$$481B       1 000034B0 00000001     X   21441 21448U
 $$$482F       2 000034DE 00000001     H   21503 21471B
 $$$483F       2 000034DE 00000001     H   21499 21486B
 $$$484        1 00000050 00000001 A   U   21536 21533  21535
 $$$486B       1 00003596 00000001     X   21609 21616U
 $$$487        1 00000050 00000001 A   U   21649 21646  21648
 $$$489B       1 000035C4 00000001     X   21676 21683U
 $$$490        1 00000050 00000001 A   U   21719 21716  21718
 $$$492B       1 000035F8 00000001     X   21746 21753U
 $$$493        1 00000050 00000001 A   U   21780 21777  21779
 $$$495B       1 00003624 00000001     X   21807 21814U
 $$$496        1 00000050 00000001 A   U   21850 21847  21849
 $$$498B       1 00003658 00000001     X   21877 21884U
 $$$499F       2 0000370C 00000001     H   22077 21940B
 $$$500B       4 000036BE 00000001     I   21966 22034
 $$$500F       2 000036F8 00000001     H   22031 21966B 22033
 $$$501F       2 000036F0 00000001     H   22018 21986B
 $$$502F       2 000036F0 00000001     H   22014 22001B
 $$$503E       2 000036FC 00000001     H   22041 22035
 $$$503F       2 0000370C 00000001     H   22073 22037B
 $$$504F       2 0000370A 00000001     H   22068 22055B
 $$$505        1 00000050 00000001 A   U   22096 22093  22095
 $$$507B       1 00003736 00000001     X   22134 22141U
 $$$509F       2 000037A0 00000001     H   22237 22224B
 $$$511F       2 0000380C 00000001     H   22326 22313B
 $$$513F       2 00003878 00000001     H   22415 22402B
 $$$514F       2 00003884 00000001     H   22436 22423B
 $$$515F       2 000038AC 00000001     H   22487 22464B 22475B
 $$$517F       2 000038B8 00000001     H   22510 22500B
 $$$518F       2 000038D4 00000001     H   22553 22530B 22541B
 $$$520F       2 000038E0 00000001     H   22576 22566B
1TOPS     (TOPS2025) (12:57) (15MAR04) Ordinary Symbol and Literal Cross Reference                                          Page  146
 $$$521        1 00000050 00000001 A   U   22596 22593  22595
 $$$523B       1 0000398A 00000001     X   22681 22688U
 $$$524F       2 000039CA 00000001     H   22800 22735B
 $$$524S       2 00003992 00000001     H   22708 22799B
 $$$527F       2 000039C6 00000001     H   22790 22759B
 $$$527S       2 000039A2 00000001     H   22750 22789B
 $$$529F       2 000039BA 00000001     H   22782 22772B
 $$$530        1 00000050 00000001 A   U   22820 22817  22819
 $$$532B       1 000039F2 00000001     X   22877 22884U
 $$$533F       2 00003A02 00000001     H   22927 22917B
 $$$534F       2 00003A64 00000001     H   23067 22941B
 $$$535F       2 00003A64 00000001     H   23058 22978B 22989B
 $$$537F       2 00003A50 00000001     H   23037 23009B
 $$$537S       2 00003A2E 00000001     H   23003 23036B
 $$$539F       2 00003C3E 00000001     H   23804 23081B
 $$$540B       4 00003A7E 00000001     I   23118 23340
 $$$540F       2 00003B16 00000001     H   23334 23118B 23339
 $$$541B       4 00003A88 00000001     I   23140 23162
 $$$541F       2 00003A96 00000001     H   23158 23140B 23161
 $$$542E       2 00003A9A 00000001     H   23169 23163
 $$$542F       2 00003B16 00000001     H   23330 23165B
 $$$543B       4 00003AA2 00000001     I   23186 23243
 $$$543F       2 00003AC8 00000001     H   23239 23186B 23242
 $$$544F       2 00003AC8 00000001     H   23235 23203B 23221B
 $$$546E       2 00003ACC 00000001     H   23250 23244
 $$$546F       2 00003B16 00000001     H   23326 23246B
 $$$547E       2 00003B1A 00000001     H   23347 23341
 $$$547F       2 00003B20 00000001     H   23356 23343B
 $$$548F       2 00003B30 00000001     H   23392 23377B
 $$$549F       2 00003B9A 00000001     H   23580 23571B
 $$$549S       2 00003B30 00000001     H   23398 23579B
 $$$550F       2 00003B4C 00000001     H   23437 23422B
 $$$551F       2 00003B58 00000001     H   23463 23448B
 $$$552F       2 00003B68 00000001     H   23489 23479B
 $$$553F       2 00003B72 00000001     H   23509 23499B
 $$$554F       2 00003B82 00000001     H   23535 23525B
 $$$555F       2 00003B8C 00000001     H   23555 23545B
 $$$558F       2 00003BBC 00000001     H   23626 23614B
 $$$559F       2 00003C3E 00000001     H   23795 23643B
 $$$560F       2 00003C28 00000001     H   23762 23710B
 $$$560S       2 00003BFA 00000001     H   23702 23761B
 $$$562        1 00000058 00000001 A   U   23829 23826  23828
 $$$564B       1 00003CF4 00000001     X   23896 23903U
 $$$565        1 00000050 00000001 A   U   23939 23936  23938
 $$$567B       1 00003D2C 00000001     X   23967 23974U
 $$$568F       2 00003D8E 00000001     H   24127 24044B 24059B
 $$$570F       2 00003DC6 00000001     H   24211 24142B 24157B
 $$$572F       2 00003DFC 00000001     H   24293 24224B
 $$$573F       2 00003E32 00000001     H   24375 24306B
 $$$574F       2 00003E70 00000001     H   24473 24390B 24405B
 $$$576F       2 00003E8A 00000001     H   24512 24485B
 $$$577F       2 00003EB6 00000001     H   24568 24541B
 $$$578F       2 00003EE2 00000001     H   24624 24597B
 $$$579F       2 00003F0E 00000001     H   24680 24653B
 $$$580F       2 00003F3A 00000001     H   24736 24709B
 $$$581F       2 00003F72 00000001     H   24830 24803B
 $$$582F       2 00003F9C 00000001     H   24876 24863B
 $$$583F       2 00003FC0 00000001     H   24938 24911B
 $$$584F       2 00003FEC 00000001     H   24994 24967B
1TOPS     (TOPS2025) (12:57) (15MAR04) Ordinary Symbol and Literal Cross Reference                                          Page  147
 $$$585F       2 00004016 00000001     H   25040 25027B
 $$$586F       2 0000403A 00000001     H   25103 25076B
 $$$587F       2 00004066 00000001     H   25160 25133B
 $$$588F       2 00004080 00000001     H   25199 25172B
 $$$589F       2 0000409A 00000001     H   25238 25211B
 $$$590F       2 000040B4 00000001     H   25277 25250B
 $$$591F       2 000040CE 00000001     H   25316 25289B
 $$$592        1 00000050 00000001 A   U   25516 25513  25515
 $$$594B       1 0000417E 00000001     X   25543 25550U
 $$$595B       4 00004182 00000001     I   25570 25600
 $$$595F       2 00004198 00000001     H   25597 25570B 25599
 $$$596E       2 0000419C 00000001     H   25607 25601
 $$$596F       2 000041E4 00000001     H   25739 25603B
 $$$597F       2 000041D2 00000001     H   25703 25685B
 $$$597S       2 000041A0 00000001     H   25615 25700B
 $$$601        1 00000050 00000001 A   U   25757 25754  25756
 $$$603B       1 000042E0 00000001     X   25845 25852U
 $$$604F       2 0000437A 00000001     H   25951 25936B
 $$$605F       2 00004394 00000001     H   25976 25967B
 $$$606F       2 000043A0 00000001     H   26014 25990B
 $$$607        6 00004C46 00000001     I   26004 25996X
 $$$608        6 00004C46 00000001     I   26003 26004  26004
 $$$609F       2 000043AC 00000001     H   26034 26024B
 $$$610F       2 000043BC 00000001     H   26064 26048B
 $$$611F       2 00004404 00000001     H   26135 26123B
 $$$612        1 00000150 00000001 A   U   26160 26157  26159
 $$$614B       1 00004436 00000001     X   26232 26239U
 $$$615F       2 00004448 00000001     H   26290 26275B
 $$$616F       2 00004560 00000001     H   26631 26343B
 $$$617F       2 000044C0 00000001     H   26379 26362B
 $$$619F       2 00004500 00000001     H   26456 26443B
 $$$621F       2 00004560 00000001     H   26627 26499B
 $$$621S       2 00004514 00000001     H   26493 26626B
 $$$623F       2 0000454A 00000001     H   26597 26543B
 $$$623T       2 00004532 00000001     H   26546 26519B 26532B
 $$$626B       4 00004536 00000001     I   26560 26578
 $$$626F       2 0000453E 00000001     H   26575 26560B 26577
 $$$627E       2 00004542 00000001     H   26585 26579
 $$$627F       2 0000454A 00000001     H   26593 26581B
 $$$628F       2 00004556 00000001     H   26619 26609B
 $$$629F       2 0000456E 00000001     H   26658 26645B
 $$$631F       2 000045AE 00000001     H   26734 26676B
 $$$631S       2 00004574 00000001     H   26669 26733B
 $$$633F       2 00004590 00000001     H   26702 26693B
 $$$634F       2 000045A2 00000001     H   26727 26712B
 $$$635S       2 000045AE 00000001     H   26740 26760B
 $$$638F       2 000045D8 00000001     H   26799 26785B
 $$$639F       2 000045F2 00000001     H   26837 26810B
 $$$640F       2 0000466A 00000001     H   26995 26849B
 $$$641F       2 00004662 00000001     H   26984 26889B 26902B
 $$$641S       2 00004618 00000001     H   26881 26983B
 $$$644F       2 00004654 00000001     H   26975 26922B
 $$$645F       2 00004678 00000001     H   27020 27007B
 $$$646        1 00000084 00000001 A   U   27044 27041  27043
 $$$648B       1 00004796 00000001     X   27175 27182U
 $$$649        1 00000050 00000001 A   U   27217 27214  27216
 $$$650F       2 000047FA 00000001     H   27334 27286B
 $$$651B       1 000047C8 00000001     X   27244 27251U
 $$$652F       2 000047D8 00000001     H   27290 27272B
1TOPS     (TOPS2025) (12:57) (15MAR04) Ordinary Symbol and Literal Cross Reference                                          Page  148
 $$$653F       2 000047EA 00000001     H   27316 27301B
 $$$654        1 00000050 00000001 A   U   27343 27340  27342
 $$$656B       1 00004822 00000001     X   27370 27377U
 $$$657        1 00000050 00000001 A   U   27409 27406  27408
 $$$659B       1 0000484E 00000001     X   27450 27457U
 $$$660        1 00000050 00000001 A   U   27525 27522  27524
 $$$662B       1 0000497A 00000001     X   27619 27626U
 $$$663F       2 00004998 00000001     H   27675 27647B
 $$$664F       2 000049AE 00000001     H   27717 27690B 27704B
 $$$667F       2 000049B8 00000001     H   27742 27729B
 $$$669F       2 00004A22 00000001     H   27905 27753B
 $$$670F       2 000049FE 00000001     H   27849 27773B 27786B
 $$$670S       2 000049C8 00000001     H   27765 27848B
 $$$673F       2 00004A14 00000001     H   27876 27863B
 $$$674F       2 00004A3A 00000001     H   27930 27920B
 $$$675F       2 00004A76 00000001     H   28001 27948B 27961B
 $$$675S       2 00004A44 00000001     H   27940 28000B
 $$$678F       2 00004A64 00000001     H   27991 27982B
 $$$679        1 00000050 00000001 A   U   28087 28084  28086
 $$$681B       1 00004C66 00000001     X   28173 28180U
 $$$682        1 00000050 00000001 A   U   28217 28214  28216
 $$$684B       1 00004CA2 00000001     X   28245 28252U
 $$$685        1 00000050 00000001 A   U   28598 28595  28597
 $$$687B       1 00004DAE 00000001     X   28639 28646U
 $$$688F       2 00004DDA 00000001     H   28710 28701B
 $$$689F       2 00004DE8 00000001     H   28749 28725B
 $$$690        6 00005780 00000001     I   28739 28731X
 $$$691        6 00005780 00000001     I   28738 28739  28739
 $$$692F       2 00004E12 00000001     H   28810 28797B
 $$$692T       2 00004E0A 00000001     H   28800 28784B
 $$$694        1 00000050 00000001 A   U   28829 28826  28828
 $$$696B       1 00004E3E 00000001     X   28871 28878U
 $$$697        1 00000050 00000001 A   U   28914 28911  28913
 $$$699B       1 00004E76 00000001     X   28942 28949U
 $$$700F       2 00004EA8 00000001     H   29034 29025B
 $$$701F       2 00004EB6 00000001     H   29073 29049B
 $$$702        6 00005786 00000001     I   29063 29055X
 $$$703        6 00005786 00000001     I   29062 29063  29063
 $$$704F       2 00004F1E 00000001     H   29231 29130B 29145B
 $$$706F       2 00005084 00000001     H   29692 29567B
 $$$707        1 00000050 00000001 A   U   30814 30811  30813
 $$$709B       1 00005410 00000001     X   30858 30865U
 $$$710F       2 00005436 00000001     H   30925 30916B
 $$$711F       2 00005444 00000001     H   30964 30940B
 $$$712        6 0000578C 00000001     I   30954 30946X
 $$$713        6 0000578C 00000001     I   30953 30954  30954
 $$$714        1 0000014C 00000001 A   U   30993 30990  30992
 $$$716B       1 0000547A 00000001     X   31021 31028U
 $$$717F       2 0000552C 00000001     H   31272 31122B
 $$$718F       2 00005584 00000001     H   31391 31364B
 $$$719        1 00000050 00000001 A   U   31435 31432  31434
 $$$721B       1 000057AC 00000001     X   31560 31567U
 $$$722F       2 00005820 00000001     H   31705 31610B
 $$$723F       2 00005820 00000001     H   31701 31628B
 $$$724F       2 0000580A 00000001     H   31679 31647B
 $$$725F       2 0000580A 00000001     H   31675 31662B
 $$$726F       2 0000584A 00000001     H   31766 31734B
 $$$726T       2 00005838 00000001     H   31737 31723B
 $$$728F       2 00005846 00000001     H   31761 31751B
1TOPS     (TOPS2025) (12:57) (15MAR04) Ordinary Symbol and Literal Cross Reference                                          Page  149
 $$$729        1 000002EC 00000001 A   U   31858 31855  31857
 $$$73B        1 00000032 00000001     X    8463  8470U
 $$$731B       1 000058A6 00000001     X   31893 31900U
 $$$732F       2 000058E4 00000001     H   32020 31945B 31964B
 $$$734F       2 00005924 00000001     H   32110 32042B
 $$$735F       2 0000596C 00000001     H   32214 32142B
 $$$736F       2 000059D0 00000001     H   32354 32236B
 $$$737F       2 000059EA 00000001     H   32393 32366B
 $$$738F       2 00005A28 00000001     H   32471 32406B
 $$$739B       4 00005A2C 00000001     I   32483 32513
 $$$739F       2 00005A42 00000001     H   32510 32483B 32512
 $$$74B        4 0000005C 00000001     I    8514  8606
 $$$74F        2 00000096 00000001     H    8603  8514B  8605
 $$$740E       2 00005A46 00000001     H   32520 32514
 $$$740F       2 00005A7A 00000001     H   32601 32516B
 $$$741F       2 00005A60 00000001     H   32559 32532B
 $$$742F       2 00005A7A 00000001     H   32597 32570B
 $$$743F       2 00005A94 00000001     H   32640 32613B
 $$$744F       2 00005AA6 00000001     H   32669 32656B
 $$$745F       2 00005AB6 00000001     H   32693 32680B
 $$$746F       2 00005AC6 00000001     H   32736 32703B
 $$$747F       2 00005B04 00000001     H   32836 32748B
 $$$748F       2 00005AE8 00000001     H   32782 32769B
 $$$749F       2 00005AFA 00000001     H   32808 32795B
 $$$75F        2 00000080 00000001     H    8580  8533B  8548B
 $$$750F       2 00005B2A 00000001     H   32895 32868B
 $$$751        1 00000050 00000001 A   U   32948 32945  32947
 $$$753B       1 00005B62 00000001     X   33009 33016U
 $$$754        1 000002EC 00000001 A   U   33137 33134  33136
 $$$756B       1 00005BD4 00000001     X   33193 33200U
 $$$757        1 00000078 00000001 A   U   33533 33530  33532
 $$$759B       1 00005CD2 00000001     X   33612 33619U
 $$$760F       2 00005D4E 00000001     H   33822 33722B 33755B 33776B
 $$$763F       2 00005D4E 00000001     H   33813 33797B
 $$$764F       2 00005E54 00000001     H   34170 34123B 34138B
 $$$766F       2 00005E88 00000001     H   34250 34200B
 $$$767        1 00000304 00000001 A   U   34278 34275  34277
 $$$769B       1 00005EBC 00000001     X   34318 34325U
 $$$77E        2 0000009A 00000001     H    8613  8607
 $$$77F        2 000000A8 00000001     H    8642  8609B
 $$$771B       4 00005EDE 00000001     I   34405 34803
 $$$771F       2 00005FE6 00000001     H   34797 34405B 34802
 $$$772F       2 00005F18 00000001     H   34494 34451B 34471B 34484B
 $$$772S       2 00005EFC 00000001     H   34436 34493B
 $$$777F       2 00005F54 00000001     H   34577 34542B
 $$$778F       2 00005FC6 00000001     H   34743 34694B
 $$$779E       2 00005FEA 00000001     H   34810 34804
 $$$779F       2 0000604E 00000001     H   34961 34806B
 $$$78F        2 000000A8 00000001     H    8638  8625B
 $$$780        1 00000050 00000001 A   U   35008 35005  35007
 $$$782B       1 000061C2 00000001     X   35148 35155U
 $$$783F       2 00006254 00000001     H   35264 35239B 35252B
 $$$785F       2 00006270 00000001     H   35303 35291B
 $$$786        1 000002EC 00000001 A   U   35395 35392  35394
 $$$788B       1 000062D2 00000001     X   35434 35441U
 $$$789F       2 00006302 00000001     H   35563 35481B 35499B 35517B 35535B 35553B
 $$$795        1 00000050 00000001 A   U   35581 35578  35580
 $$$797B       1 0000632A 00000001     X   35623 35630U
 $$$798F       2 00006350 00000001     H   35693 35666B
1TOPS     (TOPS2025) (12:57) (15MAR04) Ordinary Symbol and Literal Cross Reference                                          Page  150
 $$$799F       2 0000636A 00000001     H   35731 35704B
 $$$800F       2 00006384 00000001     H   35769 35742B
 $$$801F       2 0000639E 00000001     H   35807 35780B
 $$$802F       2 000063B8 00000001     H   35845 35818B
 $$$803F       2 000063D2 00000001     H   35883 35856B
 $$$804        1 00000050 00000001 A   U   35928 35925  35927
 $$$81F        2 0000014A 00000001     H    8863  8757B  8774B
 $$$814B       1 0000640A 00000001     X   36083 36090U
 $$$815F       2 00006490 00000001     H   36180 36165B
 $$$816F       2 00006512 00000001     H   36362 36203B
 $$$817F       2 000064C8 00000001     H   36263 36236B
 $$$818F       2 000064E2 00000001     H   36301 36274B
 $$$819F       2 000064FC 00000001     H   36339 36312B
 $$$820F       2 00006574 00000001     H   36467 36457B
 $$$821B       4 0000657C 00000001     I   36481 36917
 $$$821F       2 000066AE 00000001     H   36911 36481B 36916
 $$$822F       2 000065AC 00000001     H   36540 36514B
 $$$823B       4 000065B0 00000001     I   36552 36611
 $$$823F       2 000065D0 00000001     H   36607 36552B 36570B 36610
 $$$825E       2 000065D4 00000001     H   36618 36612
 $$$825F       2 00006678 00000001     H   36844 36614B
 $$$826F       2 00006638 00000001     H   36758 36711B
 $$$827F       2 00006678 00000001     H   36840 36770B
 $$$828E       2 000066B2 00000001     H   36924 36918
 $$$828F       2 00006824 00000001     H   37476 36920B
 $$$829F       2 00006702 00000001     H   37024 36998B
 $$$83F        2 00000138 00000001     H    8841  8794B  8809B
 $$$830B       4 00006706 00000001     I   37036 37095
 $$$830F       2 00006726 00000001     H   37091 37036B 37054B 37094
 $$$832E       2 0000672A 00000001     H   37102 37096
 $$$832F       2 00006812 00000001     H   37453 37098B
 $$$833F       2 0000674C 00000001     H   37156 37119B
 $$$834F       2 00006776 00000001     H   37210 37184B
 $$$835B       4 0000677C 00000001     I   37222 37262
 $$$835F       2 00006792 00000001     H   37259 37222B 37261
 $$$836E       2 00006796 00000001     H   37269 37263
 $$$836F       2 000067FA 00000001     H   37413 37265B
 $$$837F       2 000067FA 00000001     H   37409 37362B
 $$$838F       2 00006812 00000001     H   37449 37423B
 $$$839F       2 0000684A 00000001     H   37528 37502B 37515B
 $$$839S       2 00006832 00000001     H   37494 37527B
 $$$842F       2 00006932 00000001     H   37874 37567B
 $$$843F       2 00006932 00000001     H   37870 37585B
 $$$843S       2 00006860 00000001     H   37579 37869B
 $$$845F       2 00006928 00000001     H   37861 37601B
 $$$846F       2 000068EC 00000001     H   37763 37692B
 $$$847F       2 00006912 00000001     H   37833 37809B
 $$$848        6 00006ECE 00000001     I   37823 37815X
 $$$849        6 00006ECE 00000001     I   37822 37823  37823
 $$$85F        2 000001AC 00000001     H    9001  8883B
 $$$85S        2 00000154 00000001     H    8877  9000B
 $$$850        1 00000414 00000001 A   U   37953 37950  37952
 $$$852B       1 0000699C 00000001     X   37985 37992U
 $$$853F       2 00006A92 00000001     H   38327 38047B
 $$$854F       2 00006A72 00000001     H   38280 38267B
 $$$855F       2 00006AD0 00000001     H   38425 38339B
 $$$856F       2 00006AD0 00000001     H   38416 38389B
 $$$857F       2 00006AFC 00000001     H   38491 38464B
 $$$858F       2 00006BB6 00000001     H   38723 38506B
1TOPS     (TOPS2025) (12:57) (15MAR04) Ordinary Symbol and Literal Cross Reference                                          Page  151
 $$$859        1 00000050 00000001 A   U   38935 38932  38934
 $$$861B       1 00006C74 00000001     X   39005 39012U
 $$$862F       2 00006CCE 00000001     H   39162 39125B
 $$$863F       2 00006CE6 00000001     H   39200 39173B
 $$$864F       2 00006D1A 00000001     H   39280 39253B
 $$$865        1 00000064 00000001 A   U   39309 39306  39308
 $$$867B       1 00006EF2 00000001     X   39475 39482U
 $$$869F       2 00006FC4 00000001     H   39751 39586B
 $$$87F        2 000001A6 00000001     H    8989  8920B
 $$$870B       4 00006F44 00000001     I   39602 39673
 $$$870F       2 00006F84 00000001     H   39670 39602B 39672
 $$$871F       2 00006F76 00000001     H   39653 39621B
 $$$872F       2 00006F76 00000001     H   39649 39636B
 $$$873E       2 00006F88 00000001     H   39680 39674
 $$$873F       2 00006FC4 00000001     H   39747 39676B
 $$$874S       2 00006FAC 00000001     H   39716 39732B
 $$$878F       2 00006FEC 00000001     H   39814 39802B
 $$$879F       2 00007098 00000001     H   40055 39828B
 $$$88F        2 00000192 00000001     H    8968  8940B
 $$$88S        2 00000170 00000001     H    8934  8967B
 $$$880F       2 00007008 00000001     H   39860 39847B
 $$$881F       2 00007020 00000001     H   39898 39885B
 $$$881T       2 00007018 00000001     H   39888 39875B
 $$$883F       2 00007068 00000001     H   40015 39908B
 $$$884F       2 0000703E 00000001     H   39943 39930B
 $$$885F       2 0000704E 00000001     H   39970 39957B
 $$$886F       2 0000705E 00000001     H   39997 39984B
 $$$887        1 00000250 00000001 A   U   40080 40077  40079
 $$$889B       1 00007112 00000001     X   40141 40148U
 $$$890        1 00000050 00000001 A   U   40181 40178  40180
 $$$892B       1 0000732A 00000001     X   40389 40396U
 $$$893        1 00000050 00000001 A   U   40423 40420  40422
 $$$895B       1 00007356 00000001     X   40450 40457U
 $$$896        1 00000050 00000001 A   U   40484 40481  40483
 $$$898B       1 00007382 00000001     X   40511 40518U
 $$$899        1 00000050 00000001 A   U   40550 40547  40549
 $$$90         1 00000458 00000001 A   U    9026  9023   9025
 $$$901B       1 000073AE 00000001     X   40577 40584U
 $$$902        1 00000050 00000001 A   U   40616 40613  40615
 $$$904B       1 000073DA 00000001     X   40643 40650U
 $$$905        1 00000050 00000001 A   U   40682 40679  40681
 $$$907B       1 00007406 00000001     X   40709 40716U
 $$$908        1 00000050 00000001 A   U   40749 40746  40748
 $$$910B       1 00007432 00000001     X   40776 40783U
 $$$911        1 00000050 00000001 A   U   40815 40812  40814
 $$$913B       1 0000745E 00000001     X   40842 40849U
 $$$914        1 00000050 00000001 A   U   40882 40879  40881
 $$$916B       1 0000748A 00000001     X   40909 40916U
 $$$917        1 00000050 00000001 A   U   40948 40945  40947
 $$$919B       1 000074B6 00000001     X   40975 40982U
 $$$92B        1 000001D8 00000001     X    9061  9068U
 $$$920        1 00000050 00000001 A   U   41015 41012  41014
 $$$922B       1 000074E6 00000001     X   41042 41049U
 $$$923        1 00000050 00000001 A   U   41082 41079  41081
 $$$925B       1 00007516 00000001     X   41141 41148U
 $$$926F       2 0000753E 00000001     H   41219 41179B
 $$$927B       4 0000754C 00000001     I   41254 41352
 $$$927F       2 00007600 00000001     H   41349 41254B 41351
 $$$928E       2 00007604 00000001     H   41359 41353
1TOPS     (TOPS2025) (12:57) (15MAR04) Ordinary Symbol and Literal Cross Reference                                          Page  152
 $$$928F       2 000076B4 00000001     H   41451 41355B
 $$$929F       2 000076BC 00000001     H   41472 41464B
 $$$93F        2 000001EC 00000001     H    9118  9109B
 $$$930F       2 000076D2 00000001     H   41500 41485B
 $$$931        1 00000250 00000001 A   U   41523 41520  41522
 $$$933B       1 000078DA 00000001     X   41733 41740U
 $$$934        1 00000050 00000001 A   U   41767 41764  41766
 $$$936B       1 00007906 00000001     X   41794 41801U
 $$$937F       2 0000791C 00000001     H   41839 41826B
 $$$938F       2 00007932 00000001     H   41879 41853B 41866B
 $$$94F        2 000001FA 00000001     H    9157  9133B
 $$$940        1 00000050 00000001 A   U   41902 41899  41901
 $$$942B       1 00007964 00000001     X   41929 41936U
 $$$943F       2 0000797A 00000001     H   41974 41961B
 $$$944        1 00000050 00000001 A   U   42002 41999  42001
 $$$946B       1 000079C6 00000001     X   42029 42036U
 $$$947F       2 000079DC 00000001     H   42074 42061B
 $$$948F       2 000079F4 00000001     H   42115 42091B
 $$$949        6 00007BA2 00000001     I   42105 42097X
 $$$95         6 00000F04 00000001     I    9147  9139X
 $$$950        6 00007BA2 00000001     I   42104 42105  42105
 $$$951        1 00000050 00000001 A   U   42136 42133  42135
 $$$953B       1 00007A28 00000001     X   42163 42170U
 $$$954        1 00000050 00000001 A   U   42206 42203  42205
 $$$956B       1 00007A66 00000001     X   42233 42240U
 $$$957B       4 00007A6C 00000001     I   42259 42291
 $$$957F       2 00007A82 00000001     H   42288 42259B 42290
 $$$958E       2 00007A86 00000001     H   42298 42292
 $$$958F       2 00007AAA 00000001     H   42368 42294B
 $$$959F       2 00007A9C 00000001     H   42325 42316B
 $$$96         6 00000F04 00000001     I    9146  9147   9147
 $$$960F       2 00007AAA 00000001     H   42364 42340B
 $$$961        6 00007BA8 00000001     I   42354 42346X
 $$$962        6 00007BA8 00000001     I   42353 42354  42354
 $$$963        1 00000050 00000001 A   U   42388 42385  42387
 $$$965B       1 00007BC8 00000001     X   42520 42527U
 $$$966F       2 00007F24 00000001     H   43676 42581B
 $$$966S       2 00007BE0 00000001     H   42571 43675B
 $$$968F       2 00007C42 00000001     H   42715 42625B
 $$$969F       2 00007C3A 00000001     H   42694 42680B
 $$$97F        2 0000026A 00000001     H    9236  9224B
 $$$970F       2 00007C42 00000001     H   42711 42701B
 $$$971F       2 00007DA4 00000001     H   43136 42733B 42750B
 $$$973F       2 00007C9C 00000001     H   42842 42770B 42785B
 $$$975F       2 00007CC6 00000001     H   42891 42878B
 $$$976F       2 00007CD6 00000001     H   42918 42905B
 $$$977F       2 00007D0E 00000001     H   42988 42978B
 $$$978F       2 00007D1A 00000001     H   43012 43002B
 $$$979F       2 00007D44 00000001     H   43061 43051B
 $$$98         1 00000050 00000001 A   U    9254  9251   9253
 $$$980F       2 00007DF4 00000001     H   43243 43148B
 $$$981F       2 00007DC4 00000001     H   43179 43169B
 $$$982F       2 00007DD0 00000001     H   43203 43193B
 $$$983F       2 00007E0E 00000001     H   43272 43262B
 $$$984F       2 00007F14 00000001     H   43662 43292B
 $$$985F       2 00007E3C 00000001     H   43354 43328B 43341B
 $$$987F       2 00007EB2 00000001     H   43505 43368B
 $$$988F       2 00007E56 00000001     H   43396 43382B
 $$$989F       2 00007E9C 00000001     H   43472 43408B
1TOPS     (TOPS2025) (12:57) (15MAR04) Ordinary Symbol and Literal Cross Reference                                          Page  153
 $$$990F       2 00007EE2 00000001     H   43580 43519B
 $$$991F       2 00007ECC 00000001     H   43547 43533B
 $$$992F       2 00007EF4 00000001     H   43604 43590B
 $$$993        1 000002EC 00000001 A   U   43707 43704  43706
 $$$995B       1 00007F56 00000001     X   43739 43746U
 $$$996B       4 00007F5A 00000001     I   43768 43785
 $$$996F       2 00007F64 00000001     H   43781 43768B 43784
 $$$997B       4 00007F6C 00000001     I   43804 43820
 $$$997E       2 00007F68 00000001     H   43792 43786
 $$$997F       2 00007F76 00000001     H   43817 43788B 43804B 43819
 $$$999E       2 00007F7A 00000001     H   43827 43821
 $$$999F       2 00007F80 00000001     H   43837 43823B
 @RAR          0 00000000 FFFFFFF0     @    1132  2159   2167B
 @R0           0 00000000 FFFFFFFE     @     706   982U
 @R1           0 00000000 FFFFFFFD     @     719   978U  2165   2166   9146   9359   9360   9588   9806M  9806   9807M
                                                  9816  14232  14239  14887  14894  15615  17338  19949  20037  25569
                                                 26003  26128  26516  26529  26542  26608  26620  28738  29062  30953
                                                 33261U 35251  36437M 36438M 36439M 36440M 36456  36873U 36953U 37514
                                                 37521  37600  37677  37822M 37863  38081U 38540U 38756U 39074U 39601
                                                 39699  41852  41865  41981  42104  42353  42722  43056  43340  43407
                                                 43437  44216U 44733U 45471U 49055U
 @R10          0 00000000 FFFFFFF4     @     836   942U
 @R11          0 00000000 FFFFFFF3     @     849   938U
 @R12          0 00000000 FFFFFFF2     @     862   934U
 @R13          0 00000000 FFFFFFF1     @     875   930U 15499  25884  35270  39743  40051
 @R14          0 00000000 FFFFFFF0     @     888   926U
 @R15          0 00000000 FFFFFFEF     @     901   922U  9424   9453   9798M 12893U 14959U 17500  19968  25626U 26682
                                                 27797U 27972U 27992  27993M 30244  30294  30440  30490  30636  30686
                                                 31720  31733  31824U 33103U 33829U 35363U 43665  48847  48849
 @R2           0 00000000 FFFFFFFC     @     732   974U  9702  17144  17163  17182  22785  26913U 26976  33819U 34681U
                                                 36698U 37349U 37822  38422U 44178M 44694M 44695M 45137  45432M 45433M
                                                 47677U
 @R3           0 00000000 FFFFFFFB     @     745   970U  8945   8956   8957M  9455  22771  22784  23014  23025  23026M
                                                 23708  23715  23727  25625  25669  25697  27910M 27926M 28018
 @R4           0 00000000 FFFFFFFA     @     758   966U  9453M  9454  23064U 23665M 23789  27419U 34468  34481  41228U
                                                 42397U 44249U 44766U 45504U
 @R5           0 00000000 FFFFFFF9     @     771   962U  8997U 13141U 22771  23801U 26615  26729  26901  26912  26977
                                                 27785  27796  27842  27960  27971  27994  32027U 32221U 32902U 35017U
                                                 37566  38951U 39288U 42404U 43672U 43959U 44379U 44896U 46286U 47254U
 @R6           0 00000000 FFFFFFF8     @     784   958U 13149U 22606U 22796U 26589  27319  28607U 28839U 30823U 31444U
                                                 32957U 33543U 34288U 35024U 35590U 35937U 38944U 45513U 46293U 47261U
                                                 48669U
 @R7           0 00000000 FFFFFFF7     @     797   954U  9015U  9243U  9473U  9617U  9848U  9909U 10154U 10220U 10287U
                                                 10353U 10419U 10486U 10559U 10632U 10702U 10789U 10876U 10963U 11050U
                                                 11137U 11224U 11311U 11398U 11485U 11572U 11659U 11746U 11833U 11899U
                                                 11986U 12073U 12160U 12247U 12334U 12421U 12508U 12574U 12661U 12748U
                                                 12910U 12971U 13120U 14394U 14974U 15158U 15276U 15404U 15824U 16892U
                                                 16952U 17280U 17556U 17655U 17721U 17788U 17854U 17921U 17987U 18054U
                                                 18120U 18187U 18253U 18319U 18386U 18453U 18519U 18585U 18652U 18718U
                                                 18785U 18852U 18918U 18984U 19051U 19117U 19184U 19266U 19349U 19415U
                                                 19482U 19548U 19615U 19681U 19748U 19814U 19881U 19979U 20079U 20140U
                                                 20361U 20428U 20495U 20565U 20642U 20722U 20801U 20880U 20959U 21038U
                                                 21104U 21171U 21272U 21403U 21525U 21638U 21708U 21769U 21839U 22085U
                                                 22585U 22809U 23818U 23928U 25505U 25746U 26149U 27033U 27206U 27332U
                                                 27398U 27514U 28076U 28206U 28587U 28818U 28903U 30803U 30982U 31424U
                                                 31847U 32937U 33126U 33522U 34267U 34997U 35384U 35570U 35917U 37942U
                                                 38924U 39298U 40069U 40170U 40412U 40473U 40539U 40605U 40671U 40738U
                                                 40804U 40871U 40937U 41004U 41071U 41512U 41756U 41891U 41991U 42125U
                                                 42195U 42377U 43696U 43846U 44229U 44746U 45484U 46266U 47233U 48649U
1TOPS     (TOPS2025) (12:57) (15MAR04) Ordinary Symbol and Literal Cross Reference                                          Page  154
                                                 49267U
 @R8           0 00000000 FFFFFFF6     @     810   950U  9010U 14389U 14969U 15819U 23813U 26144U 27028U 30977U 31842U
                                                 33121U 33517U 34262U 35379U 37937U 39293U 40064U 41507U 43691U 49262U
 @R9           0 00000000 FFFFFFF5     @     823   946U
 ABSCENT       1 00000000 00000000 A   T    2175  2175
 ADDRNG        2 000074FC 00000001     H   41120 42421
 ADDRNULL      2 000078C0 00000001     H   41714 41543  41693
 ARNGSKIP      1 00000000 FFFFFFD2     X   41103 41271  41280  41373  41382
 ARNGSTOP      1 00000100 FFFFFFD2     X   41104 41292  41301  41394  41403
 ARNGWA      512 00000000 FFFFFFD2     J   41111 41133  41162U 41520  41522  41523
 ASCTBL        1 00000000 00000000 A   T    2183  2183
 BLTBL         1 00000000 00000000 A   T    2185  2185
 BR            7 00000007 00000001 A   #    1022  8458M  9056M  9277M  9507M  9651M  9881M  9942M 10187M 10253M 10320M
                                                 10386M 10452M 10519M 10592M 10665M 10735M 10822M 10909M 10996M 11083M
                                                 11170M 11257M 11344M 11431M 11518M 11605M 11692M 11779M 11866M 11932M
                                                 12019M 12106M 12193M 12280M 12367M 12454M 12541M 12607M 12694M 12784M
                                                 12943M 13004M 13849M 14453M 15054M 15200M 15315M 15444M 16858M 16925M
                                                 16985M 17313M 17621M 17688M 17754M 17821M 17887M 17954M 18020M 18087M
                                                 18153M 18220M 18286M 18352M 18419M 18486M 18552M 18618M 18685M 18751M
                                                 18818M 18885M 18951M 19017M 19084M 19150M 19217M 19299M 19382M 19448M
                                                 19515M 19581M 19648M 19714M 19781M 19847M 19914M 20012M 20112M 20173M
                                                 20394M 20461M 20528M 20598M 20675M 20755M 20834M 20913M 20992M 21071M
                                                 21137M 21204M 21305M 21436M 21604M 21671M 21741M 21802M 21872M 22129M
                                                 22676M 22872M 23891M 23962M 25538M 25840M 26227M 27170M 27239M 27365M
                                                 27445M 27614M 28168M 28240M 28634M 28866M 28937M 30853M 31016M 31555M
                                                 31888M 33004M 33188M 33607M 34313M 35143M 35429M 35618M 36078M 37980M
                                                 39000M 39470M 40136M 40384M 40445M 40506M 40572M 40638M 40704M 40771M
                                                 40837M 40904M 40970M 41037M 41136M 41728M 41789M 41924M 42024M 42158M
                                                 42228M 42515M 43734M 43888M 44280M 44797M 45601M 46326M 47294M 48808M
 BTD           1 00000000 00000034     T   25777 25777  28122  31462  48696
 BTX           1 00000000 00000036     T   25781 25781
 CHARFMT       1 00000000 00000050     T   48703 48703
 CHECKIOB      1 00000000 00000000 A   T    2231  2231
 CHKTEXIT      2 000039CA 00000001     H   22805 22778B
 CHKTTYPE      2 00003970 00000001     H   22662 15861  17584  22658  23846
 CHKTTYPE      1 00000000 0000002D     T   17592 17592
 CLRACTS       1 00000000 00000023     T   15011 15011
 CNTDISP       2 00005460 00000001     H   31002 31475
 COLLOPTS      1 00000000 00000025     T   15852 15852  25770  31459
 COLLPSH       1 00000000 0000003A     T   27573 27573  40349
 COMMAND       1 00000000 00000000 A   T    2171  2171
 COMMSEG       1 00000000 00000000 A   T    2172  2172
 CP         4096 00000000 FFFFFFEC     J    6185  1160U
 CP#XSTK       1 00000010 FFFFFFEC A   U    3917  3918
 CPACFLG       1 000005D5 FFFFFFEC     R    4020  4024   4029   4034   4039   4044
 CPACFLN       4 000005C4 FFFFFFEC     F    4012  4047   4047
 CPAFLAG       1 000005C3 FFFFFFEC     R    3984  3988   3993   3998   4003
 CPANAME       8 00000588 FFFFFFEC     C    3966  4062   4062
 CPAUTFLG      1 000008A9 FFFFFFEC     R    4330  4334   4339   4344   4349
 CPCHFLAG      1 00000B68 FFFFFFEC     R    4957  4961
 CPCMNM        3 00000D24 FFFFFFEC     C    5283  8513  13890  14495  15232  31609  31627  31750  31757M 31961  32041
                                                 32235
 CPCWA         4 00000CA4 FFFFFFEC     F    5209  8500M  9077  33638M 34334  36119M 38001
 CPDFLG        1 0000084C FFFFFFEC     R    4217  4221   4226   4231   4236   4241
 CPDFLG2       1 0000084D FFFFFFEC     R    4246  4250   4255   4260   4265   4270   4275
 CPDOUB        8 00000C88 FFFFFFEC     D    5203 24261  24343  25640  27813  28304  28365  28426  28487  29975  30081
                                                 30143  30357  30553  30749  31062  31159  31306  46674  46752  47345
                                                 47745
 CPERRID       8 00000886 FFFFFFEC     C    4316 14124M 14184M 14732M 14791M 17248M 40000M 41210M
1TOPS     (TOPS2025) (12:57) (15MAR04) Ordinary Symbol and Literal Cross Reference                                          Page  155
 CPEXFLG       1 00000758 FFFFFFEC     R    4086  4090
 CPEXFLG2      1 00000759 FFFFFFEC     R    4096  4105   4115
 CPEXFLG3      1 0000075A FFFFFFEC     R    4122  4126   4131
 CPEXTFLG      1 00000E28 FFFFFFEC     R    5768  5772   5777   5782   5787   5792   5797
 CPFABORT    128 00000D5A FFFFFFEC         5534  2135M  2135   2140M  2140
 CPFALL        1 00000010 FFFFFFEC A   U    5300  8692
 CPFCASE      32 00000D57 FFFFFFEC         5474 26464  26464  26465M
 CPFCLEAN    128 00000C7B FFFFFFEC         5087 23682M
 CPFERROR     64 00000D5A FFFFFFEC         5539  2134M  2134   2139M  2139
 CPFFOPT       1 00000010 FFFFFFEC A   U    5389 27687
 CPFNMOD      16 00000C7C FFFFFFEC         5137 23690M
 CPFNONL     128 00000C7A FFFFFFEC         5067 23678M
 CPFNPAU     128 00000C7D FFFFFFEC         5162 23694M
 CPFNTEX       1 00000040 FFFFFFEC A   U    5386  5387
 CPFQUIET     64 00000D55 FFFFFFEC         5404 48887  48901M 48954M 49073  49087M 49215M
 CPFRDEXT      3 00000D89 FFFFFFEC         5722  8700M
 CPFRDRNG      1 00000D88 FFFFFFEC     R    5654  5658   5663   5668   5673   5678   5683   5688
 CPFRDSRC      1 00000D89 FFFFFFEC     R    5693  5702   5712   5722
 CPFSLOW      32 00000C7B FFFFFFEC         5097 23686M 26990M 28007M
 CPFUNUM       1 00000080 FFFFFFEC A   U    5385  5387  26440  26642  27726
 CPFUPPER     16 00000D57 FFFFFFEC         5479 26464  26464
 CPFVER       32 00000D58 FFFFFFEC         5499 26286M 27006  27752
 CPFXDFLG      1 000007E4 FFFFFFEC     R    4164  4168   4173
 CPGFLG1       1 00000474 FFFFFFEC     R    3527  3531   3536   3541   3546   3551   3881   3881
 CPGFLG10      1 0000047D FFFFFFEC     R    3764  3768   3773   3778   3783   3788   3793
 CPGFLG11      1 0000047E FFFFFFEC     R    3799  3803   3808
 CPGFLG12      1 0000047F FFFFFFEC     R    3814  3818   3823   3828
 CPGFLG13      1 00000480 FFFFFFEC     R    3834  3838
 CPGFLG14      1 00000481 FFFFFFEC     R    3844  3848   3853   3858   3863   3868
 CPGFLG4       1 00000477 FFFFFFEC     R    3580  3591   3600   3609   3618   3627
 CPGFLG5       1 00000478 FFFFFFEC     R    3633  3637   3642   3647   3652   3657   3662   3667   3672
 CPGFLG6       1 00000479 FFFFFFEC     R    3678  3682   3687   3692
 CPGFLG7       1 0000047A FFFFFFEC     R    3698  3702   3707   3712   3717
 CPGFLG8       1 0000047B FFFFFFEC     R    3723  3727   3732   3737   3742
 CPGFLG9       1 0000047C FFFFFFEC     R    3748  3752   3758
 CPINIT        1 00000174 FFFFFFEC     U    2697  6154
 CPJESFLG      1 000009E1 FFFFFFEC     R    4429  4433   4438   4443   4448   4453   4458   4463   4468
 CPJESFLY      1 000009FD FFFFFFEC     R    4479  4483   4488   4493
 CPJESHFL      1 000009E0 FFFFFFEC     R    4414  4418   4423   4502   4502
 CPLCNO        4 0000073C FFFFFFEC     F    4071 13067
 CPLFLG1       1 00000D50 FFFFFFEC     R    5297  8694M
 CPLFLG10      1 00000D59 FFFFFFEC     R    5520  5524
 CPLFLG11      1 00000D5A FFFFFFEC     R    5530  5534   5539   5544   5549
 CPLFLG12      1 00000D5B FFFFFFEC     R    5555  5559
 CPLFLG14      1 00000D5C FFFFFFEC     R    5565  5569   5574   5579   5584   5589
 CPLFLG5       1 00000D54 FFFFFFEC     R    5382 26442  26644  27689  27728
 CPLFLG6       1 00000D55 FFFFFFEC     R    5395  5399   5404   5409   5414   5419   5424
 CPLFLG7       1 00000D56 FFFFFFEC     R    5430  5434   5439   5444   5449   5454
 CPLFLG8       1 00000D57 FFFFFFEC     R    5460  5464   5469   5474   5479
 CPLFLG9       1 00000D58 FFFFFFEC     R    5485  5489   5494   5499   5504   5509   5514
 CPLGFSYS      8 00000164 FFFFFFEC     C    2694 14929M
 CPLOCALZ      1 00000C48 FFFFFFEC     U    4987  6148   6148
 CPMFLG        1 0000084F FFFFFFEC     R    4284  4288
 CPMODFLG      1 00000C78 FFFFFFEC     R    5015  5019   5024   5029   5034   5039
 CPNAME       20 00000174 FFFFFFEC     C    2698 26030
 CPNAMELN      1 00000010 FFFFFFEC A   U    3910  4157
 CPNEDPFX     10 00000E29 FFFFFFEC     X    5801  5802   5803
 CPNSCANP      4 0000008C FFFFFFEC     A    2570  8663   9176   9185   9192   9208   9300   9307   9320   9357   9365
                                                  9372   9385   9395   9530   9537   9550   9586   9674   9710   9717
1TOPS     (TOPS2025) (12:57) (15MAR04) Ordinary Symbol and Literal Cross Reference                                          Page  156
                                                  9732   9973   9980   9995  10083  10758  10845  10932  11019  11106
                                                 11193  11280  11367  11454  11541  11628  11715  11802  11955  12042
                                                 12129  12216  12303  12390  12477  12630  12717  13898  13905  13920
                                                 13956  14200  14503  14510  14525  14563  14855  15078  15488  15496
                                                 15502  15508  15515  15531  17009  17064  17071  17084  17098  17336
                                                 19937  20035  20197  20204  20219  20290  21227  21234  21250  21460
                                                 21897  21904  21919  21975  22152  22159  22174  22241  22248  22263
                                                 22330  22337  22352  25873  25881  25887  25893  25900  25915  26299
                                                 26306  26322  27468  27475  27491  31596  31636  31691  31770  33049
                                                 33662  35184  35190  35197  35212  35226  35267  35309  36122  36129
                                                 36144  37482  37893  37904  39523  39532  39540  39610  39684  39705
                                                 39740  39756  40018  40035  40048  41261  41270  41291  41312  41324
                                                 41335  41363  41372  41393  41414  41426  41437  41812  41947  41977
                                                 42047  42266  43091  43104
 CPNUMFLG      1 00000C79 FFFFFFEC     R    5045  5057
 CPORGSYS      8 0000015C FFFFFFEC     C    2693 14357M
 CPORVCMD      1 00000140 FFFFFFEC     R    2579  2583   2588   2593   2598   2603   2608   2613   2618   2623   2623
                                                  2674   2674
 CPORVFLG      1 00000149 FFFFFFEC     R    2630  2634   2639   2644   2649   2654   2659   2664   2669
 CPORVWF       1 00000150 FFFFFFEC     R    2682  2686
 CPORVYL       8 000008BC FFFFFFEC     C    4394 14310
 CPOSCANX      4 00000CA8 FFFFFFEC     F    5214  5281   5281
 CPR          11 0000000B 00000001 A   #    1086  1160U
 CPRACBAD     16 000001FC FFFFFFEC         2748  2782   2782   2783   2783
 CPRACF1       1 000001FC FFFFFFEC     R    2729  2733   2738   2743   2748   2753   2758   2763   2768   2784
 CPRACPSW     32 000001FC FFFFFFEC         2743  2781   2781   2783   2783
 CPRACUND     64 000001FC FFFFFFEC         2738  2781   2781   2782   2782
 CPRCVCUR      4 00000730 FFFFFFEC     A    4065  4067   4067
 CPRFLG        1 000008AA FFFFFFEC     R    4355  4359   4364   4369   4374   4379   4384
 CPS         254 00000344 FFFFFFEC     X    3499  3502   3503   3505   3505  15624M 26136M
 CPSACCT       5 000003B4 FFFFFFEC     C    3098  3261   3261  14817M 14817
 CPSAMCOD      1 00000A22 FFFFFFEC     R    4551  4559   4569   4579   4588   4597   4606   4616   4625   4634
 CPSAMFDEF
             128 00000A21 FFFFFFEC         4515 23154M
 CPSAMFLG      1 00000A21 FFFFFFEC     R    4511  4515   4520   4525   4530   4535   4540   4545   4656   4656
 CPSAMHEI      2 00000A9A FFFFFFEC     H    4648 23471
 CPSAMTRM      8 00000A53 FFFFFFEC     C    4641 15760  23208
 CPSAMWID      2 00000A9C FFFFFFEC     H    4649 23517
 CPSANO        2 000003B9 FFFFFFEC     X    3101 36697  37348
 CPSCHAR       8 000003FE FFFFFFEC     C    3441 24141M 24141  24156  24190  24195
 CPSCNFLG      1 00000CD0 FFFFFFEC     R    5227  5238   5247   5258
 CPSCNF2       1 00000CD1 FFFFFFEC     R    5263  5267
 CPSCNMAX      1 00000014 FFFFFFEC A   U    5279  5280
 CPSCRI        2 00000434 FFFFFFEC     H    3488  3493   3493  28293  28354
 CPSEG        60 00000050 FFFFFFEC     X    2568  8572   8594   8833   8855  13044  13062  13091  13109  14089  14117
                                                 14177  14266  14697  14725  14784  14921  15261  15388  15558  15586
                                                 15685  15703  15721  17223  17241  23271  23289  23307  23657  23739
                                                 23753  23783  23996  24026  24077  24119  24175  24203  24242  24285
                                                 24324  24367  24423  24465  24504  24526  24560  24582  24616  24638
                                                 24672  24694  24728  24757  24788  24822  24844  24896  24930  24952
                                                 24986  25008  25060  25095  25117  25152  25191  25230  25269  25308
                                                 25330  25349  25370  25389  25410  25428  25449  25475  25589  25664
                                                 25731  26099  26395  26413  26829  26868  26949  26967  27666  27837
                                                 27896  28033  28064  28285  28328  28346  28389  28407  28450  28468
                                                 28511  28529  28550  28575  28978  29112  29163  29205  29223  29245
                                                 29270  29289  29332  29359  29388  29406  29428  29446  29472  29493
                                                 29511  29532  29550  29597  29640  29684  29714  29732  29756  29774
                                                 29798  29816  29840  29858  29888  29912  29930  29956  29999  30017
                                                 30043  30061  30105  30123  30167  30185  30216  30234  30266  30284
1TOPS     (TOPS2025) (12:57) (15MAR04) Ordinary Symbol and Literal Cross Reference                                          Page  157
                                                 30316  30334  30381  30399  30430  30462  30480  30512  30530  30577
                                                 30595  30626  30658  30676  30708  30726  30773  30791  31086  31104
                                                 31140  31183  31201  31244  31264  31287  31330  31348  31383  31412
                                                 31983  32011  32060  32084  32102  32160  32188  32206  32254  32282
                                                 32300  32328  32346  32385  32424  32445  32463  32502  32551  32589
                                                 32632  32728  32828  32887  32925  33244  33276  33295  33323  33341
                                                 33369  33388  33434  33452  33480  33505  33847  33865  33886  33904
                                                 33925  33943  33968  33987  34008  34026  34047  34065  34090  34162
                                                 34184  34242  34425  34525  34569  34595  34623  34641  34669  34713
                                                 34735  34761  34789  34825  34853  34875  34903  34925  34953  34983
                                                 35685  35723  35761  35799  35837  35875  35905  36221  36255  36293
                                                 36331  36353  37615  37633  37659  37708  37726  37748  37784  37843
                                                 38065  38096  38114  38142  38160  38188  38206  38225  38248  38300
                                                 38318  38357  38408  38448  38483  38524  38555  38573  38601  38619
                                                 38647  38665  38684  38714  38740  38771  38789  38817  38835  38863
                                                 38881  38911  39058  39086  39105  39153  39192  39239  39272  41203
                                                 42657  42816  42834  42856  42938  42956  43035  43225  43429  43459
                                                 43492  43567  43624  43653  43948  44053  44202  44340  44368  44473
                                                 44719  44857  44885  44985  45031  45107  45152  45170  45200  45457
                                                 45666  45777  45802  45820  45845  45863  45889  45907  45942  45964
                                                 45982  46021  46042  46060  46090  46137  46189  46223  46253  46405
                                                 46423  46465  46526  46587  46621  46654  46698  46732  46776  46794
                                                 46833  46871  46909  46947  46985  47023  47061  47100  47172  47210
                                                 47369  47406  47436  47535  47571  47619  47637  47665  47725  47773
                                                 48019  48166  48247  48291  48309  48337  48377  48405  48423  48473
                                                 48508  48536  48594  48633  48868  48929  49106  49144  49171  49189
 CPSEGCOD      1 00000050 FFFFFFEC     R    2485  2494   2504   2514   2524   2534   2544   2554
 CPSEGLENF
               4 0000005C FFFFFFEC     A    2560  8532M  8532   8547   8793M  8793   8808  34122M 34122  34137  37793
 CPSEGLOC      4 00000070 FFFFFFEC     A    2564 37794
 CPSEGMRKF
               4 00000058 FFFFFFEC     A    2559  8547   8808  34137
 CPSFAPR      64 000003BE FFFFFFEC         3196 35288  35288  35289  35289
 CPSFBACK     64 000003F8 FFFFFFEC         3385 24910
 CPSFFAST     32 000003F8 FFFFFFEC         3390 24862
 CPSFFILT      2 000003F8 FFFFFFEC         3410 24966
 CPSFKEEP     64 000003EF FFFFFFEC         3364 25249
 CPSFL         1 00000384 FFFFFFEC     R    2836  2840   2845   2850   2855   2860
 CPSFLG        1 000003F8 FFFFFFEC     R    3376  3380   3385   3390   3395   3400   3405   3410   3415
 CPSFLG2       1 000003F9 FFFFFFEC     R    3421  3425   3430   3435
 CPSFL2        1 00000385 FFFFFFEC     R    2866  2870   2875   2880   2885
 CPSFL3        1 00000386 FFFFFFEC     R    2891  2895   2900   2905
 CPSFL4        1 00000387 FFFFFFEC     R    2911  2915   2920   2925
 CPSFL5        1 00000388 FFFFFFEC     R    2931  2935   2940   2945
 CPSFMOD     128 000003EA FFFFFFEC         3277 23410  23410  23411M 23433M
 CPSFNBRK     32 000003EE FFFFFFEC         3324 24484  36200  36200  36201  36201  36311
 CPSFNCOM     64 000003EE FFFFFFEC         3319 24540  36199  36199  36201  36201  36273
 CPSFNECH      1 000003F8 FFFFFFEC         3415 24802
 CPSFNMSG    128 000003EE FFFFFFEC         3314 24596  36199  36199  36200  36200  36202  36235
 CPSFNTYP     32 000003F9 FFFFFFEC         3435 24652
 CPSFOPR      16 000003BE FFFFFFEC         3206 35287  35287  35289  35289
 CPSFPSP       8 000003F8 FFFFFFEC         3400 25132
 CPSFPTID     64 00000386 FFFFFFEC         2900 17378
 CPSFQUIET
               8 00000416 FFFFFFEC         3470 25171
 CPSFSAM      64 000003EA FFFFFFEC         3282 15639  23410  23410  23459M 24708
 CPSFSPR      32 000003BE FFFFFFEC         3201  8624  35287  35287  35288  35288  35290
 CPSFTRC     128 000003EF FFFFFFEC         3359 25210
 CPSFUPL     128 000003F8 FFFFFFEC         3380 15354  25026
1TOPS     (TOPS2025) (12:57) (15MAR04) Ordinary Symbol and Literal Cross Reference                                          Page  158
 CPSFVFAST
             128 000003EC FFFFFFEC         3299 25288
 CPSFXON       4 000003F8 FFFFFFEC         3405 25075
 CPSGRP        2 000003B7 FFFFFFEC     C    3100 36438  36629  36634  37280  37285
 CPSHEI        2 0000041C FFFFFFEC     H    3476 17268  17540  23505M 25437
 CPSHEIP       2 0000041A FFFFFFEC     H    3475 25398
 CPSHTI        2 0000043A FFFFFFEC     H    3490 28476  28538
 CPSIB       256 00000344 FFFFFFEC     X    3505 15474  25870  28194
 CPSINMX       2 000003FA FFFFFFEC     H    3439 24223M 24223  24250
 CPSKAFL       1 000003BF FFFFFFEC     R    3232  3236   3241   3246   3251   3256
 CPSKIFL       1 000003BE FFFFFFEC     R    3187  3191   3196   3201   3206   3211   3216   3221   3226
 CPSLFI        2 00000438 FFFFFFEC     H    3489 28415
 CPSNAME      20 000003C6 FFFFFFEC     C    3268 36567M 36567  36586  36591  36769M 36769  36802  36807  37051M 37051
                                                 37070  37075  37118M 37118  37134  37139
 CPSNO         2 00000348 FFFFFFEC     H    2824 36872  36952
 CPSOF         1 000001F8 FFFFFFEC     X    2719  2721   2721
 CPSOFLAG      1 00000416 FFFFFFEC     R    3446  3450   3455   3460   3465   3470
 CPSOPST       4 000003C4 FFFFFFEC     F    3266  3495   3495
 CPSOUMX       2 000003FC FFFFFFEC     H    3440 24305M 24305  24332
 CPSPORT       8 00000354 FFFFFFEC     C    2830  2950   2950
 CPSQFLG       1 000003EC FFFFFFEC     R    3295  3299
 CPSSFLG       1 000003BB FFFFFFEC     R    3105  3109   3114   3119   3124   3129   3134
 CPSSFOP      16 000003BB FFFFFFEC         3124 36513  36997
 CPSSTART      4 00000344 FFFFFFEC     F    2822  2826   2826   3262   3262   3367   3367   3499   3499
 CPSSTAT       1 0000038F FFFFFFEC     R    3042  3046   3051   3056   3061   3066   3071   3076
 CPSTABS      16 00000406 FFFFFFEC     X    3442 26361  26742M 26784  26873  27646  27703  27758  27931
 CPSTACF       1 000003BC FFFFFFEC     R    3140  3144   3149   3154   3159   3164   3169   3174   3179
 CPSTART       4 00000000 FFFFFFEC     C    2458  6152   6156
 CPSTCLS       8 000003E2 FFFFFFEC     C    3270 17266  17538  23401M
 CPSTCONS      1 0000038C FFFFFFEC         2964 36551  37035
 CPSTFLAG      1 000003EA FFFFFFEC     R    3273  3277   3282   3287  17267  17539
 CPSTID        8 000003DA FFFFFFEC     C    3269 24043M 24043  24058  24090  24095
 CPSTPDP       3 0000038C FFFFFFEC         2984 17426
 CPSTTYPE      8 0000041E FFFFFFEC     C    3478 15754M 15754  17265  17500M 17520M 17520  17526  17537  23400M 24389M
                                                 24389  24404  24436  24441
 CPSTYPE       1 0000038C FFFFFFEC     R    2955  2964   2974   2984   2994   3004   3014   3024   3034
 CPSUC         2 000003C4 FFFFFFEC     H    3267 17264  17536
 CPSUFLG       1 000003EE FFFFFFEC     R    3310  3314   3319   3324   3329   3334   3339   3344   3349
 CPSUFLG2      1 000003EF FFFFFFEC     R    3355  3359   3364
 CPSUSER       3 000003B4 FFFFFFEC     C    3099 36440  36673  36678  37324  37329
 CPSVPGM       8 0000039C FFFFFFEC     C    3088  3094   3094
 CPSWID        2 00000418 FFFFFFEC     H    3474 17269  17541  23551M 25358
 CPSYS         8 00000154 FFFFFFEC     C    2692 14310  14339  14352M 14352  14357
 CPS1ST        4 0000038C FFFFFFEC     F    2952  3497   3497
 CPTEMPP#      1 0000005F FFFFFFEC A   U    4405  4407
 CPTRM        14 00000C7A FFFFFFEC     X    5201 23664  23665  23665  23672M 23672  23789M 23855
 CPTRMFL1      1 00000C7A FFFFFFEC     R    5063  5067   5072   5077   5201   5201
 CPTRMFL2      1 00000C7B FFFFFFEC     R    5083  5087   5092   5097   5102   5107   5112
 CPTRMFL3      1 00000C7C FFFFFFEC     R    5118  5122   5127   5132   5137   5142   5147   5152
 CPTRMFL4      1 00000C7D FFFFFFEC     R    5158  5162   5167   5172   5177   5182   5187   5192
 CPTTYPEP      4 00000468 FFFFFFEC     A    3518 22933  23071M
 CPUID        32 00000198 FFFFFFEC     C    2701 36436  36437  36456  37221M 37221  37238  37243  39357
 CPUSED        1 00000FBC FFFFFFEC A   U    6152  6153
 CPVACURS      8 00000AF0 FFFFFFEC     D    4930  4931   4932
 CPVCURS       8 00000AE0 FFFFFFEC     D    4924  4925   4926
 CPVFLAG       1 00000AC8 FFFFFFEC     R    4725  4729   4734   4739   4744   4749
 CPVFLAG2      1 00000AC9 FFFFFFEC     R    4755  4759   4764   4769   4774   4779   4784
 CPVFLAG3      1 00000ACA FFFFFFEC     R    4790  4794   4799   4804   4809   4814   4819
 CPVFLAG4      1 00000ACB FFFFFFEC     R    4825  4829   4834   4839
1TOPS     (TOPS2025) (12:57) (15MAR04) Ordinary Symbol and Literal Cross Reference                                          Page  159
 CPVFPAGE    128 00000AC8 FFFFFFEC         4729 26274
 CPVFVTAM    128 00000ACB FFFFFFEC         4829 23366M 23388M
 CPVHEI        2 00000AD4 FFFFFFEC     H    4916 23591M 23591
 CPVLFLAG      1 00000ACE FFFFFFEC     R    4894  4898   4903   4908
 CPVMODE       1 00000ACC FFFFFFEC     R    4847  4851   4856   4861   4866   4871   4876   4881   4886
 CPVTWID       2 00000AD0 FFFFFFEC     H    4914  4917   4917  23601M 23601
 CPVWCNT       2 00000AD8 FFFFFFEC     H    4920 23613M 23613
 CPVWID        2 00000AD2 FFFFFFEC     H    4915 23596M 23596
 CPWK1         4 00000D60 FFFFFFEC     F    5598  5613   5636
 CPWK2         4 00000D64 FFFFFFEC     F    5599  5614   5628
 CPWK3         4 00000D68 FFFFFFEC     F    5600  5615   5629
 CPWK4         4 00000D6C FFFFFFEC     F    5601  5616   5630
 CPWK5         4 00000D70 FFFFFFEC     F    5602  5618   5623   5631
 CPWK6         4 00000D74 FFFFFFEC     F    5603  5619   5624   5632   5639   5641
 CPWK7         4 00000D78 FFFFFFEC     F    5604  5617   5633
 CPXFLAG       1 000007FD FFFFFFEC     R    4192  4196
 CPXSTATE      4 000007F8 FFFFFFEC     F    4186  4199   4199
 CTLSETI       1 00000002 FFFFFFE8 A   U    6758 15598  26111
 CTLSNSF       1 00000004 FFFFFFE8 A   U    6760 44065
 CTLSNSI       1 00000001 FFFFFFE8 A   U    6757 45223  48967
 CTLSNSM       1 00000008 FFFFFFE8 A   U    6764 28667  28991  30901
 CTLSNSP       1 00000003 FFFFFFE8 A   U    6759 44485
 CTLSNST       1 00000009 FFFFFFE8 A   U    6765 42669
 CV         4016 00000000 FFFFFFEE     J    2361  1169U
 CVABORT       4 000007DA FFFFFFEE     I    2140 14833B 25480B 26486B 28580B 29555B 30190B 31417B 31785B 32016B 32930B
                                                 33064B 33510B 33677B 34095B 34107B 34988B 35324B 35910B 37919B
 CVABSENT      4 000007F0 FFFFFFEE     I    2150 13943B 14548B 22197B 22286B 22375B
 CVABSRTN      4 0000088C FFFFFFEE     V    2175  2150
 CVABTMSG      4 000007CC FFFFFFEE     I    2135 17390B 20488B 25947B
 CVBLANKS    235 000004D8 FFFFFFEE     C    1955 17351  19967  24011  24058  24156  24404  24773  25716  25956  26047
                                                 26937  27910  28796  29582  29873  30201  30415  30611  36437  41979
                                                 42075  42306  45672  46122  46502  46563  47421  47686  48032  48618
 CVBRMSK       1 00000751 FFFFFFEE     X    2091  2092   2093
 CVCFLAG       1 00000A00 FFFFFFEE     R    2256  2260   2265   2270   2275   2280
 CVCHKST       8 000009F0 FFFFFFEE     D    2246  2336   2336
 CVCHKST2      8 00000E28 FFFFFFEE     D    2339  2342   2342
 CVCOMRTN      4 0000087C FFFFFFEE     V    2171  2141
 CVCURJCB      4 000001C8 FFFFFFEE     A    1440 14931
 CVDBGFLG      1 000004CC FFFFFFEE     R    1945  1949
 CVENT         4 0000074C FFFFFFEE     I    2089  8458B  9056B  9277B  9507B  9651B  9881B  9942B 10187B 10253B 10320B
                                                 10386B 10452B 10519B 10592B 10665B 10735B 10822B 10909B 10996B 11083B
                                                 11170B 11257B 11344B 11431B 11518B 11605B 11692B 11779B 11866B 11932B
                                                 12019B 12106B 12193B 12280B 12367B 12454B 12541B 12607B 12694B 12784B
                                                 12943B 13004B 13849B 14453B 15054B 15200B 15315B 15444B 16858B 16925B
                                                 16985B 17313B 17621B 17688B 17754B 17821B 17887B 17954B 18020B 18087B
                                                 18153B 18220B 18286B 18352B 18419B 18486B 18552B 18618B 18685B 18751B
                                                 18818B 18885B 18951B 19017B 19084B 19150B 19217B 19299B 19382B 19448B
                                                 19515B 19581B 19648B 19714B 19781B 19847B 19914B 20012B 20112B 20173B
                                                 20394B 20461B 20528B 20598B 20675B 20755B 20834B 20913B 20992B 21071B
                                                 21137B 21204B 21305B 21436B 21604B 21671B 21741B 21802B 21872B 22129B
                                                 22676B 22872B 23891B 23962B 25538B 25840B 26227B 27170B 27239B 27365B
                                                 27445B 27614B 28168B 28240B 28634B 28866B 28937B 30853B 31016B 31555B
                                                 31888B 33004B 33188B 33607B 34313B 35143B 35429B 35618B 36078B 37980B
                                                 39000B 39470B 40136B 40384B 40445B 40506B 40572B 40638B 40704B 40771B
                                                 40837B 40904B 40970B 41037B 41136B 41728B 41789B 41924B 42024B 42158B
                                                 42228B 42515B 43734B 43888B 44280B 44797B 45601B 46326B 47294B 48808B
 CVENTBR       2 00000750 FFFFFFEE     I    2090  2091
 CVERRMSG      4 000007C8 FFFFFFEE     I    2134 14129B 14189B 14737B 14796B 16885B 17253B 26723B 27312B 36176B 37759B
                                                 40011B 41215B
1TOPS     (TOPS2025) (12:57) (15MAR04) Ordinary Symbol and Literal Cross Reference                                          Page  160
 CVERROR       4 000007D6 FFFFFFEE     I    2139  2155B 42690B 44086B 44506B 45244B
 CVEXIRTN      4 0000077C FFFFFFEE     V    2119  2115
 CVEXNO        1 00000000 00000016     T   13189 13189
 CVFCHRKBPR
               8 000004C9 FFFFFFEE         1860  1876   1876
 CVFCHRKBSE
               4 000004C9 FFFFFFEE         1865  1876   1876
 CVFCHRKCPR
               2 000004C9 FFFFFFEE         1882  1898   1898
 CVFCHRKCSE
               1 000004C9 FFFFFFEE         1887  1898   1898
 CVFCHRUBPR
             128 000004C9 FFFFFFEE         1816  1832   1832
 CVFCHRUBSE
              64 000004C9 FFFFFFEE         1821  1832   1832
 CVFCHRUCPR
              32 000004C9 FFFFFFEE         1838  1854   1854
 CVFCHRUCSE
              16 000004C9 FFFFFFEE         1843  1854   1854
 CVFINIT       8 000004C5 FFFFFFEE         1681  8771
 CVFJCB        4 000001C0 FFFFFFEE     A    1438 32842
 CVFL          1 000004C4 FFFFFFEE     R    1612  1616   1621   1626   1631   1636   1641   1646   1651
 CVFL2         1 000004C5 FFFFFFEE     R    1657  1661   1666   1671   1676   1681   1686   1691   1696
 CVFL3         1 000004C6 FFFFFFEE     R    1702  1706   1711   1716   1721   1726   1731   1736   1741
 CVFL4         1 000004C7 FFFFFFEE     R    1747  1751   1756   1761   1766   1771   1776   1781
 CVFL5         1 000004C8 FFFFFFEE     R    1787  1791   1796   1801   1806
 CVFL6         1 000004C9 FFFFFFEE     R    1812  1816   1821   1833   1838   1843   1855   1860   1865   1877   1882
                                                  1887   1899
 CVHEAP#       1 00000200 FFFFFFEE A   U    1518  1519
 CVINVRTN      4 00000888 FFFFFFEE     V    2174  2144
 CVJESFLG      1 000004CA FFFFFFEE     R    1905  1909
 CVLNKRGS      4 00000780 FFFFFFEE     F    2121  2096M  2122
 CVLNKRTN      4 000007B0 FFFFFFEE     U    2122  2111M
 CVLOCK1       1 00000088 FFFFFFEE     R    1263  1267   1272
 CVLOCK2       1 00000089 FFFFFFEE     R    1277  1281
 CVLOCK3       1 0000008A FFFFFFEE     R    1286  1290
 CVLOCK4       1 0000008B FFFFFFEE     R    1295  1299
 CVLOGMOD      1 00000068 FFFFFFEE     R    1250  1254
 CVMACH        1 00000067 FFFFFFEE     R    1210  1214   1219   1224   1229   1234   1239   1244
 CVMILERR      4 000007F6 FFFFFFEE     I    2153 15603B 15618B 26116B 26131B 28672B 28996B 30906B
 CVMILRTN      4 00000884 FFFFFFEE     V    2173  2153
 CVNEXT        4 000007DE FFFFFFEE     I    2141  8599B  8721B  9003B 14382B 14961B 15812B 23921B 26137B 26991B 27021B
                                                 27507B 28199B 28896B 30970B 31835B 33114B 35372B 37857B 37930B
 CVNOACTN      4 000007EA FFFFFFEE     I    2147 36358B
 CVNOARTN      4 00000890 FFFFFFEE     V    2176  2147
 CVNWDATE      4 00000608 FFFFFFEE     F    1978  1982   1982
 CVNWMPG#      1 00000008 FFFFFFEE A   U    1980  1981
 CVNXTMSG      4 000007D0 FFFFFFEE     I    2136 14130B 15397B 26795B 28811B 34255B
 CVONE         4 000004D0 FFFFFFEE     F    1953 41982  42116
 CVPFXRTN      1 00000000 00000000 A   T    2119  2119
 CVPGFLAG      1 00000A01 FFFFFFEE     R    2286  2290   2295   2300
 CVPIOSZ       1 00004F80 FFFFFFEE A   U    1349  1351
 CVPPDBQH      4 0000009C FFFFFFEE     A    1307  1308
 CVPSFNO       1 000003E9 FFFFFFEE A   N    1471  1473
 CVPSLNO       1 000007CF FFFFFFEE A   N    1472  1473
 CVPXSZ        1 00000008 FFFFFFEE A   U    1350  1351
 CVR          12 0000000C 00000001 A   #    1099  1169U
 CVRKEY        1 00000008 FFFFFFEE A   U    2044  2045
 CVSEGRTN      4 00000880 FFFFFFEE     V    2172  2136
1TOPS     (TOPS2025) (12:57) (15MAR04) Ordinary Symbol and Literal Cross Reference                                          Page  161
 CVSTACK#      1 00000080 FFFFFFEE A   U    1510  1511
 CVSTART       4 00000000 FFFFFFEE     C    1183  2354
 CVTRC         4 00000768 FFFFFFEE     I    2111  2097B
 CVTRCRTN      4 00000778 FFFFFFEE     V    2118  2112
 CVTTYQH       4 00000204 FFFFFFEE     A    1462  8867   8868M 22698  22923
 CVUSFNO       1 00000001 FFFFFFEE A   N    1478  1480
 CVUSLNO       1 000003E7 FFFFFFEE A   N    1479  1480
 CVVOL#        1 00000005 FFFFFFEE A   U    2329  2330
 CVWORD        8 00000050 FFFFFFEE     X    1200 14830M 14830
 CVWTOFLG      1 000004CB FFFFFFEE     R    1915  1919   1924   1929   1934   1939
 CVWYLSSN      8 00000028 FFFFFFEE     C    1195 14070  14678
 DEBUGSG       1 00000000 00000000 A   T    2072  2072
 DEQUOTE       1 00000000 00000012     T   13184 13184  28103  42436
 DESRTRN       1 00000080 FFFFFFEC A   U    6161 13170
 DEV          12 00000000 FFFFFFEB     J    4710  4718
 DEVMAX#       1 00000002 FFFFFFEC A   U    4661  4718
 DEVTYPE       1 00000001 FFFFFFEB     R    4678  4687   4697
 DOFNAME       1 00000000 00000006     T   13164 13164
 DOSHCOLS      1 00000000 0000003C     T   28111 28111
 DOSHTABS      2 00004960 00000001     H   27600 28118
 DOSHTX        2 00004AA2 00000001     H   28072 27671B 27901B
 DOTTBL        1 00000000 00000000 A   T    2188  2188
 DRENCFLG      1 00000F9F FFFFFFEC     R    6116  6120   6125   6130   6135   6140
 DRENPROT      1 00000F9E FFFFFFEC     R    6103  6111
 DSNON        40 00000E90 FFFFFFEC     C    5836  5837
 DSNWADSN     44 00000E5C FFFFFFEC     C    5823  5824   5825   5826   5835   5843   6074   6080   6082   6088   6091
                                                  6093   6096   6145
 DSNWAF4       1 00000F37 FFFFFFEC     R    5891  5895   5900   5905   5910   5915   5920   5925   5930
 DSNWAF5       1 00000F38 FFFFFFEC     R    5936  5940   5945   5950   5955   5960   5965   5970   5975
 DSNWAF6       1 00000F39 FFFFFFEC     R    5981  5985   5990   5995   6000   6005   6010   6015   6020
 DSNWAF7       1 00000F3A FFFFFFEC     R    6026  6030   6035   6040   6045
 DSNXG         1 00000004 FFFFFFEC A   U    5828  5830
 DSNXGL        1 00000003 FFFFFFEC A   U    5829  5830
 DSNXU         1 00000007 FFFFFFEC A   U    5830  5832
 DSNXUL        1 00000004 FFFFFFEC A   U    5831  5832
 DSSIZ         1 00000108 FFFFFFEC A   U    6074  6082   6091   6096
 DTB           1 00000000 00000014     T   13186 13186  22619
 EBCTBL        1 00000000 00000000 A   T    2184  2184
 EBCTBL7       1 00000000 00000000 A   T    2187  2187
 ECBLIST       1 00000000 00000000 A   T    2047  2047
 EDTCOMMV      1 00000000 00000022     T   15010 15010
 EPARTBL       1 00000000 00000000 A   T    2179  2179
 EXIT0         1 00000000 00000005     T   13163 13163
 EXTCLOSE      1 00000000 0000000D     T   13173 13173
 EXTOPEN       1 00000000 0000000B     T   13169 13169
 FDBF          4 00000000 FFFFFFE5     F    7162  7165   7170   7170   7173   7181   7181   7184   7185   7185   7188
                                                  7189   7189
 FDBT          4 00000000 FFFFFFE5     F    7096  7105   7105   7110   7110   7138   7138   7158   7158   7161
 FDBTDATA      1 00000004 FFFFFFE5     U    7101  7104   7108   7113   7141
 FDBT101F      1 00000004 FFFFFFE5     R    7116  7120   7125   7130   7135
 FDBT102F      1 00000006 FFFFFFE5     R    7146  7150   7155
 FEXIT         2 00008638 00000001     H   46262 46228B
 FMTRCLCK      1 00000000 00000040     T   31474 31474  48693
 FMTTIME       1 00000000 00000045     T   39337 39337  49294
 FNAMEFIN      1 00000000 00000009     T   13167 13167
 FNAMOPTS      1 00000000 00000007     T   13165 13165
 FREECORE      1 00000000 0000000E     T   13175 13175  23843
 FSB         144 00000000 FFFFFFE6     J    7069  8379  43919U 44102U 45630U
 FSBFCLS     128 00000069 FFFFFFE6         7034 45696
1TOPS     (TOPS2025) (12:57) (15MAR04) Ordinary Symbol and Literal Cross Reference                                          Page  162
 FSBFDET      64 00000069 FFFFFFE6         7039 45743
 FSBFDOWN     32 00000069 FFFFFFE6         7044 45715
 FSBID         2 00000000 FFFFFFE6     H    6888 43935  43940  44178
 FSBINFO      12 00000014 FFFFFFE6     C    7003 45672M 45681  45686
 FSBMCLCK      8 00000020 FFFFFFE6     X    7005 46148
 FSBMSG       64 00000028 FFFFFFE6     C    7006 46106M 46106  46210  46215
 FSBNAME       8 0000000C FFFFFFE6     C    7002 45653  45658
 FSBNHWE       4 0000008C FFFFFFE6     F    7061 45923M 45923  45952
 FSBNIO        4 00000088 FFFFFFE6     F    7060 45874
 FSBPFLG       1 00000068 FFFFFFE6     R    7010  7014   7019   7024
 FSBPFLG2      1 00000069 FFFFFFE6     R    7030  7034   7039   7044
 FSBQMAX       2 0000006A FFFFFFE6     H    7048 46002M 46002  46030
 FSBSCUR       2 00000078 FFFFFFE6     H    7055 45787
 FSBSMAX       2 0000007A FFFFFFE6     H    7056 45830
 FSBTYPE       1 00000002 FFFFFFE6     R    6892  6901   6911   6921   6931   6941   6951   6961   6971   6981   6991
                                                 44134
 FSBUC         2 00000008 FFFFFFE6     H    6999  7062   7062
 FSR           0 00000000 00000001 A   #    1009  8452   9023M  9051   9251M  9272   9481M  9502   9625M  9646   9856M
                                                  9876   9917M  9937  10162M 10182  10228M 10248  10295M 10315  10361M
                                                 10381  10427M 10447  10494M 10514  10567M 10587  10640M 10660  10710M
                                                 10730  10797M 10817  10884M 10904  10971M 10991  11058M 11078  11145M
                                                 11165  11232M 11252  11319M 11339  11406M 11426  11493M 11513  11580M
                                                 11600  11667M 11687  11754M 11774  11841M 11861  11907M 11927  11994M
                                                 12014  12081M 12101  12168M 12188  12255M 12275  12342M 12362  12429M
                                                 12449  12516M 12536  12582M 12602  12669M 12689  12756M 12779  12918M
                                                 12938  12979M 12999  13128M 13843  14402M 14447  14982M 15049  15166M
                                                 15195  15284M 15310  15412M 15438  15832M 16853  16900M 16920  16960M
                                                 16980  17288M 17308  17564M 17616  17663M 17683  17729M 17749  17796M
                                                 17816  17862M 17882  17929M 17949  17995M 18015  18062M 18082  18128M
                                                 18148  18195M 18215  18261M 18281  18327M 18347  18394M 18414  18461M
                                                 18481  18527M 18547  18593M 18613  18660M 18680  18726M 18746  18793M
                                                 18813  18860M 18880  18926M 18946  18992M 19012  19059M 19079  19125M
                                                 19145  19192M 19212  19274M 19294  19357M 19377  19423M 19443  19490M
                                                 19510  19556M 19576  19623M 19643  19689M 19709  19756M 19776  19822M
                                                 19842  19889M 19909  19987M 20007  20087M 20107  20148M 20168  20369M
                                                 20389  20436M 20456  20503M 20523  20573M 20593  20650M 20670  20730M
                                                 20750  20809M 20829  20888M 20908  20967M 20987  21046M 21066  21112M
                                                 21132  21179M 21199  21280M 21300  21411M 21431  21533M 21599  21646M
                                                 21666  21716M 21736  21777M 21797  21847M 21867  22093M 22124  22593M
                                                 22671  22817M 22866  23826M 23886  23936M 23957  25513M 25533  25754M
                                                 25834  26157M 26221  27041M 27165  27214M 27234  27321M 27340M 27360
                                                 27406M 27440  27522M 27609  28084M 28163  28214M 28235  28595M 28629
                                                 28826M 28861  28911M 28932  30811M 30847  30990M 31011  31432M 31549
                                                 31855M 31883  32945M 32998  33134M 33182  33530M 33601  34275M 34308
                                                 35005M 35137  35392M 35424  35578M 35613  35925M 36072  37950M 37975
                                                 38932M 38994  39306M 39464  40077M 40131  40163M 40178M 40379  40420M
                                                 40440  40481M 40501  40547M 40567  40613M 40633  40679M 40699  40746M
                                                 40766  40812M 40832  40879M 40899  40945M 40965  41012M 41032  41079M
                                                 41130  41520M 41723  41764M 41784  41899M 41919  41999M 42019  42133M
                                                 42153  42203M 42223  42385M 42509  43704M 43729  43839M 43854M 43883
                                                 44222M 44237M 44275  44739M 44754M 44792  45477M 45492M 45596  46274M
                                                 46321  47241M 47289  48657M 48802  49275M
 GETACCT       1 00000000 0000004E     T   45543 45543
 GETCORE       1 00000000 00000013     T   13185 13185
 GETRKWS       4 00007130 00000001     F   40187 42423
 GETRPRT       4 000070A8 00000001     F   40087 35037  39327  45531
 GETRPSH       2 000070F8 00000001     H   40122 40099  40118
 GETRWA      512 00000000 FFFFFFD3     J   39444 39467  39496U 40077  40079  40080
 GETTRNG       2 00006ED8 00000001     H   39454 35038  39328  39450  45532
1TOPS     (TOPS2025) (12:57) (15MAR04) Ordinary Symbol and Literal Cross Reference                                          Page  163
 GETUID        1 00000000 00000042     T   35047 35047  39349  48698
 HEXCONV       1 00000000 00000011     T   13183 13183
 HIBAL         1 00000000 FFFFFFFF     J     691   707    720    733    746    759    772    785    798    811    824
                                                   837    850    863    876    889    902
 IDLECONV      2 0000371C 00000001     H   22115 22620
 IDLEDISP      2 00004C88 00000001     H   28226 31460
 IDLESCAN      2 0000363E 00000001     H   21858 22628
 ILID         40 00000000 FFFFFFD8     C   33157 33402  33407  33426
 ILINERTN      2 00005BBA 00000001     H   33172 33109
 ILWA         40 00000000 FFFFFFD8     J   33164 33185  33214U 33530  33532  33533
 INVALID       1 00000000 00000000 A   T    2174  2174
 JCB         208 00000000 FFFFFFE9     J    6593 14941U 32852U 35059
 JCBAFALO    128 00000062 FFFFFFE9         6442 14952M
 JCBAFL        1 00000062 FFFFFFE9     R    6438  6442   6447   6452   6457   6462   6467   6472   6477
 JCBBFL        1 00000063 FFFFFFE9     R    6483  6487   6492   6497   6502   6507   6512   6517
 JCBBILLX      8 00000088 FFFFFFE9     D    6568  6576   6576
 JCBRSCF1      1 00000064 FFFFFFE9     R    6523  6527   6532   6537
 JCBSFLG1      1 00000065 FFFFFFE9     R    6543  6547   6552
 JCBSFMIC     64 00000065 FFFFFFE9         6552 32867
 JCBWFL        1 00000060 FFFFFFE9     R    6367  6371   6376   6381   6386   6391   6396   6401   6406   6434
 JCBWWFL       1 00000061 FFFFFFE9     R    6412  6416   6421   6426   6431
 JESSND        1 00000000 00000046     T   39344 39344
 LINEDISP      2 0000889C 00000001     H   47280 35044  39330  42964  43155  47276
 LINERTN       2 0000588C 00000001     H   31874 31830
 LOCALTOD      1 00000000 0000003F     T   31473 31473  39336  48692  49293
 LOWTBL        1 00000000 00000000 A   T    2182  2182
 LRTRIM        1 00000000 00000033     T   25774 25774  31470  35050  48695
 LSR           8 00000008 00000001 A   #    1047  8452   9023M  9051   9251M  9272   9481M  9502   9625M  9646   9856M
                                                  9876   9917M  9937  10162M 10182  10228M 10248  10295M 10315  10361M
                                                 10381  10427M 10447  10494M 10514  10567M 10587  10640M 10660  10710M
                                                 10730  10797M 10817  10884M 10904  10971M 10991  11058M 11078  11145M
                                                 11165  11232M 11252  11319M 11339  11406M 11426  11493M 11513  11580M
                                                 11600  11667M 11687  11754M 11774  11841M 11861  11907M 11927  11994M
                                                 12014  12081M 12101  12168M 12188  12255M 12275  12342M 12362  12429M
                                                 12449  12516M 12536  12582M 12602  12669M 12689  12756M 12779  12918M
                                                 12938  12979M 12999  13128M 13843  14402M 14447  14982M 15049  15166M
                                                 15195  15284M 15310  15412M 15438  15832M 16853  16900M 16920  16960M
                                                 16980  17288M 17308  17564M 17616  17663M 17683  17729M 17749  17796M
                                                 17816  17862M 17882  17929M 17949  17995M 18015  18062M 18082  18128M
                                                 18148  18195M 18215  18261M 18281  18327M 18347  18394M 18414  18461M
                                                 18481  18527M 18547  18593M 18613  18660M 18680  18726M 18746  18793M
                                                 18813  18860M 18880  18926M 18946  18992M 19012  19059M 19079  19125M
                                                 19145  19192M 19212  19274M 19294  19357M 19377  19423M 19443  19490M
                                                 19510  19556M 19576  19623M 19643  19689M 19709  19756M 19776  19822M
                                                 19842  19889M 19909  19987M 20007  20087M 20107  20148M 20168  20369M
                                                 20389  20436M 20456  20503M 20523  20573M 20593  20650M 20670  20730M
                                                 20750  20809M 20829  20888M 20908  20967M 20987  21046M 21066  21112M
                                                 21132  21179M 21199  21280M 21300  21411M 21431  21533M 21599  21646M
                                                 21666  21716M 21736  21777M 21797  21847M 21867  22093M 22124  22593M
                                                 22671  22817M 22866  23826M 23886  23936M 23957  25513M 25533  25754M
                                                 25834  26157M 26221  27041M 27165  27214M 27234  27340M 27360  27406M
                                                 27440  27522M 27609  28084M 28163  28214M 28235  28595M 28629  28826M
                                                 28861  28911M 28932  30811M 30847  30990M 31011  31432M 31549  31855M
                                                 31883  32945M 32998  33134M 33182  33530M 33601  34275M 34308  35005M
                                                 35137  35392M 35424  35578M 35613  35925M 36072  37950M 37975  38932M
                                                 38994  39306M 39464  40077M 40131  40178M 40379  40420M 40440  40481M
                                                 40501  40547M 40567  40613M 40633  40679M 40699  40746M 40766  40812M
                                                 40832  40879M 40899  40945M 40965  41012M 41032  41079M 41130  41520M
                                                 41723  41764M 41784  41899M 41919  41999M 42019  42133M 42153  42203M
1TOPS     (TOPS2025) (12:57) (15MAR04) Ordinary Symbol and Literal Cross Reference                                          Page  164
                                                 42223  42385M 42509  43704M 43729  43854M 43883  44237M 44275  44754M
                                                 44792  45492M 45596  46274M 46321  47241M 47289  48657M 48802  49275M
 LXCATRTN      1 00000060 FFFFFFEC A   U    6164 13170
 MALL          1 00000000 0000001B     T   13801 13801  16837  21583  27149  27587  40363  41707
 MIB         252 00000000 FFFFFFE7     X    6865 28675  28683U 28691M 28691  28738M 28999  29007U 29015M 29015  29062M
                                                 29365  30850  30879U 30889M 30889  30953M 30965  30990  30992  30993
                                                 31045U 31469
 MIBCKSES      4 00000078 FFFFFFE7     F    6835 31211
 MIBCLCK       4 00000060 FFFFFFE7     F    6816 29299
 MIBCRSES      2 00000074 FFFFFFE7     H    6833 31051  31121
 MIBCRVIR      2 00000086 FFFFFFE7     H    6844 31295
 MIBCSCNT      4 000000F0 FFFFFFE7     F    6862 30735
 MIBCSCUR      4 000000F4 FFFFFFE7     F    6863 30635
 MIBCSMAX      4 000000F8 FFFFFFE7     F    6864 30685
 MIBFCLCK      4 0000008C FFFFFFE7     F    6848 29566M 29566  29607
 MIBFINFO     64 00000090 FFFFFFE7     X    6849 29655  29660
 MIBFLAG       1 00000064 FFFFFFE7     R    6820  6824
 MIBFSTOP    128 00000064 FFFFFFE7         6824 31363
 MIBFXCNT      4 000000D8 FFFFFFE7     F    6854 30539
 MIBFXCUR      4 000000DC FFFFFFE7     F    6855 30439
 MIBFXMAX      4 000000E0 FFFFFFE7     F    6856 30489
 MIBHQCUR      2 00000080 FFFFFFE7     H    6840 29783
 MIBHQDEV      2 00000084 FFFFFFE7     H    6842 29897
 MIBHQMAX      2 00000082 FFFFFFE7     H    6841 29825
 MIBJOBNM      8 00000008 FFFFFFE7     X    6813 29129M 29129  29144  29176  29181
 MIBMXSES      2 00000076 FFFFFFE7     H    6834 31121  31148
 MIBNAME       8 00000000 FFFFFFE7     C    6812 29083  29088  29144
 MIBNAPP       4 0000006C FFFFFFE7     F    6830 29416
 MIBNAPPF      2 0000008A FFFFFFE7     H    6847 29520
 MIBNFAIL      2 00000088 FFFFFFE7     H    6846 29481
 MIBNFULQ      2 0000007E FFFFFFE7     H    6838 29964
 MIBNHIOT      2 0000007C FFFFFFE7     H    6837 29741
 MIBNIO        4 00000068 FFFFFFE7     F    6829 29376
 MIBNLOWM      4 000000D0 FFFFFFE7     F    6851 30070
 MIBNNOM       4 000000D4 FFFFFFE7     F    6852 30132
 MIBPGCNT      4 000000E4 FFFFFFE7     F    6858 30343
 MIBPGCUR      4 000000E8 FFFFFFE7     F    6859 30243
 MIBPGMAX      4 000000EC FFFFFFE7     F    6860 30293
 MIBSTART      8 00000000 FFFFFFE7     D    6811  6865   6865
 MIBVERS      80 00000010 FFFFFFE7     X    6814 28759  28764  28781M 28781  28796
 MILERR        1 00000000 0000004B     T    2173  2173  45526
 MINFDISP      2 00004E5C 00000001     H   28923 28919  31471
 MINT          1 00000000 00000037     T   27074 27074
 MISSSETT      2 000026A4 00000001     H   16844 15893
 MLNO          1 00000000 0000002F     T   21568 21568
 MNULL         1 00000000 0000002B     T   15892 15892  21553  40198  41542  41692
 MPARM         1 00000000 00000019     T   13246 13246  13411  13426  13441  13456  13471  13486  13501  13516  13531
                                                 13546  13561  13576  13591  13606  13621  13636  13651  13666  13681
                                                 13696  13726  13756  13771  15907  16492  41557  41572  41587  41602
                                                 41617  41632
 MPINT         1 00000000 0000001A     T   13261 13261  13276  16567  16582  16792  16807  16822  27089
 MTOKEN        1 00000000 00000018     T   13216 13216  13231  13291  13306  13321  13336  13351  13366  13381  13396
                                                 13711  13741  13786  15922  15937  15952  15967  15982  15997  16012
                                                 16027  16042  16057  16072  16087  16102  16117  16132  16147  16162
                                                 16177  16192  16207  16222  16237  16252  16267  16282  16297  16312
                                                 16327  16342  16357  16372  16387  16402  16417  16432  16447  16462
                                                 16477  16507  16522  16537  16552  16597  16612  16627  16642  16657
                                                 16672  16687  16702  16717  16732  16747  16762  16777  27104  40213
                                                 40228  40243  40258  40273  40288  40303  40318  40333  41647  41662
1TOPS     (TOPS2025) (12:57) (15MAR04) Ordinary Symbol and Literal Cross Reference                                          Page  165
                                                 41677
 NBLTBL        1 00000000 00000000 A   T    2186  2186
 NDETRNG       1 00000000 0000000A     T   13168 13168
 NETPDISP      2 00008460 00000001     H   45587 43008  43199  45583
 NEXTFSB       2 00007F92 00000001     H   43874 45540
 NEXTPSB       2 0000807C 00000001     H   44266 45541
 NEXTSIB       2 000081AE 00000001     H   44783 45542
 NFSBDO        4 00007FC2 00000001     I   43962 44209B
 NFSBEXIT      2 0000806A 00000001     H   44220 44091B 44172B
 NFSBNEXT      2 00008046 00000001     H   44175 44137B 44163B
 NOACTION      1 00000000 00000000 A   T    2176  2176
 NOOPTS        1 00000000 0000003B     T   28105 28105
 NOTVALID      1 00000000 00000004     T   13162 13162  15003  22623  27150  27588  39326  42422
 NPARTBL       1 00000000 00000000 A   T    2180  2180
 NPSBDO        4 000080BE 00000001     I   44382 44726B
 NPSBEXIT      2 0000819C 00000001     H   44737 44511B 44688B
 NPSBNEXT      2 00008172 00000001     H   44691 44557B 44589B 44621B 44653B 44679B
 NSCAN         1 00000000 0000000F     T   13178 13178  15000  15855  22617  28100  39323  42417
 NSCANSTR      1 00000000 00000010     T   13180 13180  17582
 NSCNCB      176 00000000 FFFFFFED     J    2445  2571   8664M  8665M  9177M  9178M  9193   9194   9195   9198M  9199M
                                                  9201M  9211M  9212M  9213M  9308   9309   9310   9313M  9323M  9324M
                                                  9325M  9358   9373   9374   9375   9378M  9388M  9389M  9390M  9396
                                                  9538   9539   9540   9543M  9553M  9554M  9555M  9587   9675   9718
                                                  9719   9720   9723M  9724M  9725M  9735M  9736M  9737M  9981   9982
                                                  9983   9986M  9987M  9988M  9998M  9999M 10000M 10084  10099  10114
                                                 10115  10116M 10116  10117  10118M 10131M 13906  13907  13908  13911M
                                                 13912M 13913M 13923M 13924M 13925M 14201  14202  14511  14512  14513
                                                 14516M 14517M 14518M 14528M 14529M 14530M 14856  14857  15079  15094
                                                 15109  15110  15111M 15111  15112  15113M 15126M 15489  15491  15499
                                                 15503  15505  15516  15517  15518  15521M 15522M 15524M 15534M 15535M
                                                 15536M 15865  17010  17025  17040  17041  17042M 17042  17043  17044M
                                                 17057M 17072  17073  17074  17077M 17087M 17088M 17089M 17099  17337
                                                 19938  20036  20205  20206  20207  20210M 20211M 20212M 20222M 20223M
                                                 20224M 20291  20306  20321  20322  20323M 20323  20324  20325M 20338M
                                                 21235  21236  21237  21240M 21241M 21243M 21253M 21254M 21255M 21461
                                                 21476  21491  21492  21493M 21493  21494  21495M 21508M 21905  21906
                                                 21907  21910M 21911M 21912M 21922M 21923M 21924M 21976  21991  22006
                                                 22007  22008M 22008  22009  22010M 22023M 22160  22161  22162  22165M
                                                 22166M 22167M 22177M 22178M 22179M 22249  22250  22251  22254M 22255M
                                                 22256M 22266M 22267M 22268M 22338  22339  22340  22343M 22344M 22345M
                                                 22355M 22356M 22357M 25874  25876  25884  25888  25890  25901  25902
                                                 25903  25906M 25907M 25908M 25918M 25919M 25920M 26307  26308  26309
                                                 26312M 26313M 26315M 26325M 26326M 26327M 27476  27477  27478  27481M
                                                 27482M 27484M 27494M 27495M 27496M 28124  31597  31637  31652  31667
                                                 31668  31669M 31669  31670  31671M 31684M 31692  31693  31771M 33050M
                                                 33663M 35185  35187  35198  35199  35200  35203M 35204M 35205M 35215M
                                                 35216M 35217M 35227  35270  35310M 36130  36131  36132  36135M 36136M
                                                 36137M 36147M 36148M 36149M 37483  37484  37894M 37895M 37905M 39351
                                                 39528M 39537M 39611  39626  39641  39642  39643M 39643  39644  39645M
                                                 39658M 39685  39687  39706M 39707M 39743  40019  40021  40036M 40037M
                                                 40051  41262  41263  41264  41272M 41293M 41313M 41338M 41339M 41340M
                                                 41364  41365  41366  41374M 41395M 41415M 41440M 41441M 41442M 41813
                                                 41948  41978  42048  42440  43092M 43093M 43105M
 NSCNFLGS      1 00000008 FFFFFFED     R    2382  2386   2391
 NSCNKWS       4 00000028 FFFFFFED     A    2431  9193   9201M  9211M  9308   9313M  9323M  9373   9378M  9388M  9538
                                                  9543M  9553M  9718   9725M  9735M  9981   9988M  9998M 13906  13913M
                                                 13923M 14511  14518M 14528M 15516  15524M 15534M 17072  17077M 17087M
                                                 20205  20212M 20222M 21235  21243M 21253M 21905  21912M 21922M 22160
                                                 22167M 22177M 22249  22256M 22266M 22338  22345M 22355M 25901  25908M
1TOPS     (TOPS2025) (12:57) (15MAR04) Ordinary Symbol and Literal Cross Reference                                          Page  166
                                                 25918M 26307  26315M 26325M 27476  27484M 27494M 31771  31771M 33050
                                                 33050M 33663  33663M 35198  35205M 35215M 35310  35310M 36130  36137M
                                                 36147M 37905  37905M 41262  41313  41313M 41338M 41364  41415  41415M
                                                 41440M 43105  43105M
 NSCNLEN       4 00000004 FFFFFFED     F    2379  8665M  9178M 10117  10118M 14202  14857  15112  15113M 17043  17044M
                                                 20324  20325M 21494  21495M 22009  22010M 31670  31671M 31693  37484
                                                 37895M 39644  39645M 39707M 40037M 43093M
 NSCNLOC       4 00000000 FFFFFFED     A    2378  8664M  9177M 10114  10116M 14201  14856  15109  15111M 17040  17042M
                                                 20321  20323M 21491  21493M 22006  22008M 31667  31669M 31692  37483
                                                 37894M 39641  39643M 39706M 40036M 43092M
 NSCNSKIP      4 00000024 FFFFFFED     A    2430  9194   9198M  9212M  9309   9324M  9374   9389M  9539   9554M  9719
                                                  9723M  9736M  9982   9986M  9999M 13907  13911M 13924M 14512  14516M
                                                 14529M 15517  15521M 15535M 17073  17088M 20206  20210M 20223M 21236
                                                 21240M 21254M 21906  21910M 21923M 22161  22165M 22178M 22250  22254M
                                                 22267M 22339  22343M 22356M 25902  25906M 25919M 26308  26312M 26326M
                                                 27477  27481M 27495M 35199  35203M 35216M 36131  36135M 36148M 39528M
                                                 41263  41272M 41339M 41365  41374M 41441M
 NSCNSTOP      4 00000020 FFFFFFED     A    2429  9195   9199M  9213M  9310   9325M  9375   9390M  9540   9555M  9720
                                                  9724M  9737M  9983   9987M 10000M 13908  13912M 13925M 14513  14517M
                                                 14530M 15518  15522M 15536M 17074  17089M 20207  20211M 20224M 21237
                                                 21241M 21255M 21907  21911M 21924M 22162  22166M 22179M 22251  22255M
                                                 22268M 22340  22344M 22357M 25903  25907M 25920M 26309  26313M 26327M
                                                 27478  27482M 27496M 35200  35204M 35217M 36132  36136M 36149M 39537M
                                                 41264  41293M 41340M 41366  41395M 41442M
 NSCNTLEN      4 00000014 FFFFFFED     F    2397 10084  10131M 15079  15126M 17010  17057M 20291  20338M 21461  21508M
                                                 21976  22023M 31637  31684M 39611  39658M
 NSCNTLOC      4 00000010 FFFFFFED     A    2396 10099  10115  10116  15094  15110  15111  17025  17041  17042  20306
                                                 20322  20323  21476  21492  21493  21991  22007  22008  31652  31668
                                                 31669  39626  39642  39643
 NSCNTOK      16 00000030 FFFFFFED     C    2433  9358   9396   9587   9675  17099  17337  19938  20036  31597  35227
                                                 41813  41948  41978  42048
 NSCNTYPE      1 00000018 FFFFFFED     R    2400  2404   2409   2414   2419   2424
 NSIBDO        4 000081F0 00000001     I   44899 45464B
 NSIBEXIT      2 0000834A 00000001     H   45475 45249B 45426B
 NSIBNEXT      2 00008320 00000001     H   45429 45295B 45327B 45359B 45391B 45417B
 NUMPSH        1 00000000 00000039     T   27135 27135  27558
 ORVCPASS      1 00000000 00000024     T   15848 15848  39325
 ORVRQST       1 00000000 00000021     T   15009 15009
 PAGEINIT      1 00000000 00000031     T   23851 23851
 PAGETABS      1 00000000 0000003E     T   28116 28116
 PDBBYT1       1 0000000E FFFFFFE8     X    6635  6667
 PDBBYT2       1 0000000F FFFFFFE8     X    6636  6673
 PDBCMDFL      1 00000007 FFFFFFE8     X    6623  6659   6659   6665
 PDBINCT       2 00000030 FFFFFFE8     H    6653  6657   6657
 PDBSINP       4 00000010 FFFFFFE8     A    6638  6639
 PDBSTRT       4 00000000 FFFFFFE8     F    6615  6660   6660
 PDBVPGM       8 00000014 FFFFFFE8     C    6641  6647   6647
 PORTDISP      2 00008646 00000001     H   46312 42984  43175  46308
 PRIVRTN       2 00006310 00000001     H   35604 35367
 PRIVSEL       2 000062B8 00000001     H   35415 35366
 PSB         116 00000000 FFFFFFE4     J    7468  8380  44311U 44522U 46355U
 PSBFDET      64 0000004B FFFFFFE4         7421 47190
 PSBFDIAL    128 00000048 FFFFFFE4         7341 44586  46813
 PSBFDIR      32 00000048 FFFFFFE4         7351 44618  46851
 PSBFDOWN    128 0000004C FFFFFFE4         7436 47138
 PSBFDUM      32 0000004B FFFFFFE4         7426 46602
 PSBFEID       2 00000000 FFFFFFE4     H    7213 44327  44332  44694
 PSBFENM       8 0000000C FFFFFFE4     C    7325 46376  46381
 PSBFGAND     16 00000048 FFFFFFE4         7356 46889
1TOPS     (TOPS2025) (12:57) (15MAR04) Ordinary Symbol and Literal Cross Reference                                          Page  167
 PSBFHU       64 0000004C FFFFFFE4         7441 47080
 PSBFLAG       1 00000048 FFFFFFE4     R    7337  7341   7346   7351   7356   7361
 PSBFLAG2      1 00000049 FFFFFFE4     R    7367  7371   7376   7381   7386
 PSBFLAG3      1 0000004A FFFFFFE4     R    7392  7396   7401   7406
 PSBFLAG4      1 0000004B FFFFFFE4     R    7412  7416   7421   7426
 PSBFLAG5      1 0000004C FFFFFFE4     R    7432  7436   7441   7446
 PSBFLEAS    128 00000049 FFFFFFE4         7371 44650  46965
 PSBFRLIN     16 00000049 FFFFFFE4         7386 46927
 PSBFSTOP    128 0000004B FFFFFFE4         7416 47119
 PSBFTEL      64 00000049 FFFFFFE4         7376 47003
 PSBFTYM      32 00000049 FFFFFFE4         7381 47041
 PSBINFO      20 00000020 FFFFFFE4     C    7332 46479  46484  46495M 46495
 PSBLOC       20 00000034 FFFFFFE4     C    7333 46540  46545  46556M 46556
 PSBNAME       8 00000018 FFFFFFE4     C    7331 46436  46441
 PSBNHWE       4 00000064 FFFFFFE4     F    7458 46713M 46713  46741
 PSBNIO        4 00000060 FFFFFFE4     F    7457 46663
 PSBPNO        2 00000002 FFFFFFE4     H    7214 44355  44360  44695
 PSBTTYPE      1 00000004 FFFFFFE4     R    7218  7227   7237   7247   7257   7267   7277   7287   7297   7307   7317
                                                 44554
 PSBUC         2 00000014 FFFFFFE4     H    7327  7461   7461
 RALL          2 00007470 00000001     H   40890 40289
 RANGELP       4 00007C42 00000001     I   42719 43239B 43279B
 RAR          14 0000000E 00000001 A   #    1125  2111   2112M  2113B  2115M  2116B  2136M  2137B  2141M  2142B  2144M
                                                  2145B  2147M  2148B  2150M  2151B  2153M  2154M  2154B  2160   8449
                                                  8575M  8576M  8576B  8597M  8598M  8598B  8633M  8634M  8634B  8648M
                                                  8649M  8649B  8672M  8673M  8673B  8676M  8677M  8677B  8681M  8682M
                                                  8682B  8685M  8686M  8686B  8703M  8704M  8704B  8708M  8709M  8709B
                                                  8734M  8735M  8735B  8739M  8740M  8740B  8836M  8837M  8837B  8858M
                                                  8859M  8859B  8961M  8962M  8962B  8984M  8985M  8985B  9025M  9028B
                                                  9048   9204M  9205M  9205B  9231M  9232M  9232B  9253M  9256B  9269
                                                  9316M  9317M  9317B  9381M  9382M  9382B  9483M  9486B  9499   9546M
                                                  9547M  9547B  9627M  9630B  9643   9728M  9729M  9729B  9758M  9759M
                                                  9759B  9781M  9782M  9782B  9795M  9796M  9796B  9858M  9861B  9873
                                                  9919M  9922B  9934   9991M  9992M  9992B 10051M 10052M 10052B 10164M
                                                 10167B 10179  10230M 10233B 10245  10297M 10300B 10312  10363M 10366B
                                                 10378  10429M 10432B 10444  10496M 10499B 10511  10569M 10572B 10584
                                                 10642M 10645B 10657  10712M 10715B 10727  10777M 10778M 10778B 10799M
                                                 10802B 10814  10864M 10865M 10865B 10886M 10889B 10901  10951M 10952M
                                                 10952B 10973M 10976B 10988  11038M 11039M 11039B 11060M 11063B 11075
                                                 11125M 11126M 11126B 11147M 11150B 11162  11212M 11213M 11213B 11234M
                                                 11237B 11249  11299M 11300M 11300B 11321M 11324B 11336  11386M 11387M
                                                 11387B 11408M 11411B 11423  11473M 11474M 11474B 11495M 11498B 11510
                                                 11560M 11561M 11561B 11582M 11585B 11597  11647M 11648M 11648B 11669M
                                                 11672B 11684  11734M 11735M 11735B 11756M 11759B 11771  11821M 11822M
                                                 11822B 11843M 11846B 11858  11909M 11912B 11924  11974M 11975M 11975B
                                                 11996M 11999B 12011  12061M 12062M 12062B 12083M 12086B 12098  12148M
                                                 12149M 12149B 12170M 12173B 12185  12235M 12236M 12236B 12257M 12260B
                                                 12272  12322M 12323M 12323B 12344M 12347B 12359  12409M 12410M 12410B
                                                 12431M 12434B 12446  12496M 12497M 12497B 12518M 12521B 12533  12584M
                                                 12587B 12599  12649M 12650M 12650B 12671M 12674B 12686  12736M 12737M
                                                 12737B 12758M 12761B 12776  12809M 12810M 12810B 12920M 12923B 12935
                                                 12981M 12984B 12996  13047M 13048M 13048B 13065M 13066M 13066B 13070M
                                                 13071M 13071B 13094M 13095M 13095B 13112M 13113M 13113B 13130M 13133B
                                                 13840  13916M 13917M 13917B 13930M 13931M 13931B 13975M 13976M 13976B
                                                 13997M 13998M 13998B 14023M 14024M 14024B 14049M 14050M 14050B 14092M
                                                 14093M 14093B 14120M 14121M 14121B 14141M 14142M 14142B 14180M 14181M
                                                 14181B 14269M 14270M 14270B 14288M 14289M 14289B 14319M 14320M 14320B
                                                 14376M 14377M 14377B 14404M 14407B 14444  14521M 14522M 14522B 14535M
                                                 14536M 14536B 14582M 14583M 14583B 14605M 14606M 14606B 14631M 14632M
1TOPS     (TOPS2025) (12:57) (15MAR04) Ordinary Symbol and Literal Cross Reference                                          Page  168
                                                 14632B 14657M 14658M 14658B 14700M 14701M 14701B 14728M 14729M 14729B
                                                 14748M 14749M 14749B 14787M 14788M 14788B 14847M 14848M 14848B 14924M
                                                 14925M 14925B 14984M 14987B 15046  15150M 15151M 15151B 15168M 15171B
                                                 15192  15241M 15242M 15242B 15264M 15265M 15265B 15268M 15269M 15269B
                                                 15286M 15289B 15307  15338M 15339M 15339B 15391M 15392M 15392B 15414M
                                                 15417B 15435  15527M 15528M 15528B 15541M 15542M 15542B 15561M 15562M
                                                 15562B 15589M 15590M 15590B 15601M 15602M 15602B 15651M 15652M 15652B
                                                 15688M 15689M 15689B 15706M 15707M 15707B 15724M 15725M 15725B 15730M
                                                 15731M 15731B 15734M 15735M 15735B 15763M 15764M 15764B 15781M 15782M
                                                 15782B 15805M 15806M 15806B 15834M 15837B 16850  16902M 16905B 16917
                                                 16962M 16965B 16977  17080M 17081M 17081B 17094M 17095M 17095B 17104M
                                                 17105M 17105B 17194M 17195M 17195B 17226M 17227M 17227B 17244M 17245M
                                                 17245B 17261M 17262M 17262B 17290M 17293B 17305  17529M 17530M 17530B
                                                 17533M 17534M 17534B 17566M 17569B 17613  17665M 17668B 17680  17731M
                                                 17734B 17746  17798M 17801B 17813  17864M 17867B 17879  17931M 17934B
                                                 17946  17997M 18000B 18012  18064M 18067B 18079  18130M 18133B 18145
                                                 18197M 18200B 18212  18263M 18266B 18278  18329M 18332B 18344  18396M
                                                 18399B 18411  18463M 18466B 18478  18529M 18532B 18544  18595M 18598B
                                                 18610  18662M 18665B 18677  18728M 18731B 18743  18795M 18798B 18810
                                                 18862M 18865B 18877  18928M 18931B 18943  18994M 18997B 19009  19061M
                                                 19064B 19076  19127M 19130B 19142  19194M 19197B 19209  19252M 19253M
                                                 19253B 19276M 19279B 19291  19334M 19335M 19335B 19359M 19362B 19374
                                                 19425M 19428B 19440  19492M 19495B 19507  19558M 19561B 19573  19625M
                                                 19628B 19640  19691M 19694B 19706  19758M 19761B 19773  19824M 19827B
                                                 19839  19891M 19894B 19906  19989M 19992B 20004  20089M 20092B 20104
                                                 20150M 20153B 20165  20215M 20216M 20216B 20229M 20230M 20230B 20258M
                                                 20259M 20259B 20371M 20374B 20386  20438M 20441B 20453  20505M 20508B
                                                 20520  20551M 20552M 20552B 20575M 20578B 20590  20621M 20622M 20622B
                                                 20652M 20655B 20667  20732M 20735B 20747  20811M 20814B 20826  20890M
                                                 20893B 20905  20969M 20972B 20984  21048M 21051B 21063  21114M 21117B
                                                 21129  21181M 21184B 21196  21246M 21247M 21247B 21260M 21261M 21261B
                                                 21282M 21285B 21297  21347M 21348M 21348B 21413M 21416B 21428  21516M
                                                 21517M 21517B 21535M 21538B 21596  21648M 21651B 21663  21694M 21695M
                                                 21695B 21718M 21721B 21733  21779M 21782B 21794  21825M 21826M 21826B
                                                 21849M 21852B 21864  21915M 21916M 21916B 21929M 21930M 21930B 21958M
                                                 21959M 21959B 22063M 22064M 22064B 22095M 22098B 22121  22170M 22171M
                                                 22171B 22184M 22185M 22185B 22216M 22217M 22217B 22232M 22233M 22233B
                                                 22259M 22260M 22260B 22273M 22274M 22274B 22305M 22306M 22306B 22321M
                                                 22322M 22322B 22348M 22349M 22349B 22362M 22363M 22363B 22394M 22395M
                                                 22395B 22410M 22411M 22411B 22431M 22432M 22432B 22595M 22598B 22668
                                                 22819M 22822B 22863  23030M 23031M 23031B 23053M 23054M 23054B 23147M
                                                 23148M 23148B 23177M 23178M 23178B 23211M 23212M 23212B 23229M 23230M
                                                 23230B 23274M 23275M 23275B 23292M 23293M 23293B 23310M 23311M 23311B
                                                 23316M 23317M 23317B 23320M 23321M 23321B 23351M 23352M 23352B 23559M
                                                 23560M 23560B 23621M 23622M 23622B 23660M 23661M 23661B 23742M 23743M
                                                 23743B 23756M 23757M 23757B 23786M 23787M 23787B 23828M 23831B 23883
                                                 23914M 23915M 23915B 23919M 23920M 23920B 23938M 23941B 23954  23999M
                                                 24000M 24000B 24029M 24030M 24030B 24080M 24081M 24081B 24098M 24099M
                                                 24099B 24122M 24123M 24123B 24178M 24179M 24179B 24206M 24207M 24207B
                                                 24245M 24246M 24246B 24264M 24265M 24265B 24288M 24289M 24289B 24327M
                                                 24328M 24328B 24346M 24347M 24347B 24370M 24371M 24371B 24426M 24427M
                                                 24427B 24444M 24445M 24445B 24468M 24469M 24469B 24507M 24508M 24508B
                                                 24529M 24530M 24530B 24563M 24564M 24564B 24585M 24586M 24586B 24619M
                                                 24620M 24620B 24641M 24642M 24642B 24675M 24676M 24676B 24697M 24698M
                                                 24698B 24731M 24732M 24732B 24760M 24761M 24761B 24791M 24792M 24792B
                                                 24825M 24826M 24826B 24847M 24848M 24848B 24899M 24900M 24900B 24933M
                                                 24934M 24934B 24955M 24956M 24956B 24989M 24990M 24990B 25011M 25012M
                                                 25012B 25063M 25064M 25064B 25098M 25099M 25099B 25120M 25121M 25121B
                                                 25155M 25156M 25156B 25194M 25195M 25195B 25233M 25234M 25234B 25272M
1TOPS     (TOPS2025) (12:57) (15MAR04) Ordinary Symbol and Literal Cross Reference                                          Page  169
                                                 25273M 25273B 25311M 25312M 25312B 25333M 25334M 25334B 25352M 25353M
                                                 25353B 25373M 25374M 25374B 25392M 25393M 25393B 25413M 25414M 25414B
                                                 25431M 25432M 25432B 25452M 25453M 25453B 25478M 25479M 25479B 25515M
                                                 25518B 25530  25592M 25593M 25593B 25643M 25644M 25644B 25667M 25668M
                                                 25668B 25734M 25735M 25735B 25756M 25759B 25831  25911M 25912M 25912B
                                                 25925M 25926M 25926B 25954M 25955M 25955B 26067M 26068M 26068B 26102M
                                                 26103M 26103B 26114M 26115M 26115B 26159M 26162B 26218  26318M 26319M
                                                 26319B 26332M 26333M 26333B 26398M 26399M 26399B 26416M 26417M 26417B
                                                 26426M 26427M 26427B 26484M 26485M 26485B 26745M 26746M 26746B 26769M
                                                 26770M 26770B 26832M 26833M 26833B 26871M 26872M 26872B 26952M 26953M
                                                 26953B 26970M 26971M 26971B 27015M 27016M 27016B 27043M 27046B 27162
                                                 27194M 27195M 27195B 27216M 27219B 27231  27342M 27345B 27357  27408M
                                                 27411B 27437  27487M 27488M 27488B 27501M 27502M 27502B 27505M 27506M
                                                 27506B 27524M 27527B 27606  27669M 27670M 27670B 27816M 27817M 27817B
                                                 27840M 27841M 27841B 27899M 27900M 27900B 28036M 28037M 28037B 28067M
                                                 28068M 28068B 28086M 28089B 28160  28191M 28192M 28192B 28197M 28198M
                                                 28198B 28216M 28219B 28232  28288M 28289M 28289B 28307M 28308M 28308B
                                                 28331M 28332M 28332B 28349M 28350M 28350B 28368M 28369M 28369B 28392M
                                                 28393M 28393B 28410M 28411M 28411B 28429M 28430M 28430B 28453M 28454M
                                                 28454B 28471M 28472M 28472B 28490M 28491M 28491B 28514M 28515M 28515B
                                                 28532M 28533M 28533B 28553M 28554M 28554B 28578M 28579M 28579B 28597M
                                                 28600B 28626  28657M 28658M 28658B 28670M 28671M 28671B 28767M 28768M
                                                 28768B 28828M 28831B 28858  28889M 28890M 28890B 28894M 28895M 28895B
                                                 28913M 28916B 28929  28981M 28982M 28982B 28994M 28995M 28995B 29091M
                                                 29092M 29092B 29115M 29116M 29116B 29166M 29167M 29167B 29184M 29185M
                                                 29185B 29208M 29209M 29209B 29226M 29227M 29227B 29248M 29249M 29249B
                                                 29273M 29274M 29274B 29292M 29293M 29293B 29296M 29297M 29297B 29311M
                                                 29312M 29312B 29335M 29336M 29336B 29362M 29363M 29363B 29368M 29369M
                                                 29369B 29391M 29392M 29392B 29409M 29410M 29410B 29431M 29432M 29432B
                                                 29449M 29450M 29450B 29475M 29476M 29476B 29496M 29497M 29497B 29514M
                                                 29515M 29515B 29535M 29536M 29536B 29553M 29554M 29554B 29600M 29601M
                                                 29601B 29604M 29605M 29605B 29619M 29620M 29620B 29643M 29644M 29644B
                                                 29663M 29664M 29664B 29687M 29688M 29688B 29717M 29718M 29718B 29735M
                                                 29736M 29736B 29759M 29760M 29760B 29777M 29778M 29778B 29801M 29802M
                                                 29802B 29819M 29820M 29820B 29843M 29844M 29844B 29861M 29862M 29862B
                                                 29891M 29892M 29892B 29915M 29916M 29916B 29933M 29934M 29934B 29959M
                                                 29960M 29960B 29978M 29979M 29979B 30002M 30003M 30003B 30020M 30021M
                                                 30021B 30046M 30047M 30047B 30064M 30065M 30065B 30084M 30085M 30085B
                                                 30108M 30109M 30109B 30126M 30127M 30127B 30146M 30147M 30147B 30170M
                                                 30171M 30171B 30188M 30189M 30189B 30219M 30220M 30220B 30237M 30238M
                                                 30238B 30269M 30270M 30270B 30287M 30288M 30288B 30319M 30320M 30320B
                                                 30337M 30338M 30338B 30360M 30361M 30361B 30384M 30385M 30385B 30402M
                                                 30403M 30403B 30433M 30434M 30434B 30465M 30466M 30466B 30483M 30484M
                                                 30484B 30515M 30516M 30516B 30533M 30534M 30534B 30556M 30557M 30557B
                                                 30580M 30581M 30581B 30598M 30599M 30599B 30629M 30630M 30630B 30661M
                                                 30662M 30662B 30679M 30680M 30680B 30711M 30712M 30712B 30729M 30730M
                                                 30730B 30752M 30753M 30753B 30776M 30777M 30777B 30794M 30795M 30795B
                                                 30813M 30816B 30844  30892M 30893M 30893B 30904M 30905M 30905B 30968M
                                                 30969M 30969B 30992M 30995B 31008  31065M 31066M 31066B 31089M 31090M
                                                 31090B 31107M 31108M 31108B 31143M 31144M 31144B 31162M 31163M 31163B
                                                 31186M 31187M 31187B 31204M 31205M 31205B 31208M 31209M 31209B 31223M
                                                 31224M 31224B 31247M 31248M 31248B 31267M 31268M 31268B 31290M 31291M
                                                 31291B 31309M 31310M 31310B 31333M 31334M 31334B 31351M 31352M 31352B
                                                 31386M 31387M 31387B 31415M 31416M 31416B 31434M 31437B 31546  31783M
                                                 31784M 31784B 31833M 31834M 31834B 31857M 31860B 31880  31986M 31987M
                                                 31987B 32014M 32015M 32015B 32063M 32064M 32064B 32087M 32088M 32088B
                                                 32105M 32106M 32106B 32115M 32116M 32116B 32163M 32164M 32164B 32191M
                                                 32192M 32192B 32209M 32210M 32210B 32257M 32258M 32258B 32285M 32286M
                                                 32286B 32303M 32304M 32304B 32331M 32332M 32332B 32349M 32350M 32350B
1TOPS     (TOPS2025) (12:57) (15MAR04) Ordinary Symbol and Literal Cross Reference                                          Page  170
                                                 32388M 32389M 32389B 32427M 32428M 32428B 32448M 32449M 32449B 32466M
                                                 32467M 32467B 32505M 32506M 32506B 32554M 32555M 32555B 32592M 32593M
                                                 32593B 32635M 32636M 32636B 32731M 32732M 32732B 32831M 32832M 32832B
                                                 32890M 32891M 32891B 32928M 32929M 32929B 32947M 32950B 32995  33062M
                                                 33063M 33063B 33112M 33113M 33113B 33136M 33139B 33179  33247M 33248M
                                                 33248B 33279M 33280M 33280B 33298M 33299M 33299B 33326M 33327M 33327B
                                                 33344M 33345M 33345B 33372M 33373M 33373B 33391M 33392M 33392B 33410M
                                                 33411M 33411B 33437M 33438M 33438B 33455M 33456M 33456B 33483M 33484M
                                                 33484B 33508M 33509M 33509B 33532M 33535B 33598  33675M 33676M 33676B
                                                 33850M 33851M 33851B 33868M 33869M 33869B 33889M 33890M 33890B 33907M
                                                 33908M 33908B 33928M 33929M 33929B 33946M 33947M 33947B 33971M 33972M
                                                 33972B 33990M 33991M 33991B 34011M 34012M 34012B 34029M 34030M 34030B
                                                 34050M 34051M 34051B 34068M 34069M 34069B 34093M 34094M 34094B 34105M
                                                 34106M 34106B 34165M 34166M 34166B 34187M 34188M 34188B 34221M 34222M
                                                 34222B 34245M 34246M 34246B 34277M 34280B 34305  34394M 34395M 34395B
                                                 34428M 34429M 34429B 34528M 34529M 34529B 34572M 34573M 34573B 34598M
                                                 34599M 34599B 34626M 34627M 34627B 34644M 34645M 34645B 34672M 34673M
                                                 34673B 34716M 34717M 34717B 34738M 34739M 34739B 34764M 34765M 34765B
                                                 34792M 34793M 34793B 34828M 34829M 34829B 34856M 34857M 34857B 34878M
                                                 34879M 34879B 34906M 34907M 34907B 34928M 34929M 34929B 34956M 34957M
                                                 34957B 34986M 34987M 34987B 35007M 35010B 35134  35208M 35209M 35209B
                                                 35222M 35223M 35223B 35259M 35260M 35260B 35298M 35299M 35299B 35322M
                                                 35323M 35323B 35370M 35371M 35371B 35394M 35397B 35421  35580M 35583B
                                                 35610  35653M 35654M 35654B 35688M 35689M 35689B 35726M 35727M 35727B
                                                 35764M 35765M 35765B 35802M 35803M 35803B 35840M 35841M 35841B 35878M
                                                 35879M 35879B 35908M 35909M 35909B 35927M 35930B 36069  36140M 36141M
                                                 36141B 36154M 36155M 36155B 36224M 36225M 36225B 36258M 36259M 36259B
                                                 36296M 36297M 36297B 36334M 36335M 36335B 36356M 36357M 36357B 36389M
                                                 36390M 36390B 36393M 36394M 36394B 36400M 36401M 36401B 36427M 36428M
                                                 36428B 36501M 36502M 36502B 36535M 36536M 36536B 36602M 36603M 36603B
                                                 36645M 36646M 36646B 36662M 36663M 36663B 36689M 36690M 36690B 36732M
                                                 36733M 36733B 36753M 36754M 36754B 36790M 36791M 36791B 36818M 36819M
                                                 36819B 36835M 36836M 36836B 36861M 36862M 36862B 36888M 36889M 36889B
                                                 36906M 36907M 36907B 36941M 36942M 36942B 36968M 36969M 36969B 36985M
                                                 36986M 36986B 37019M 37020M 37020B 37086M 37087M 37087B 37150M 37151M
                                                 37151B 37173M 37174M 37174B 37205M 37206M 37206B 37254M 37255M 37255B
                                                 37296M 37297M 37297B 37313M 37314M 37314B 37340M 37341M 37341B 37383M
                                                 37384M 37384B 37404M 37405M 37405B 37444M 37445M 37445B 37471M 37472M
                                                 37472B 37551M 37552M 37552B 37618M 37619M 37619B 37636M 37637M 37637B
                                                 37662M 37663M 37663B 37711M 37712M 37712B 37729M 37730M 37730B 37751M
                                                 37752M 37752B 37787M 37788M 37788B 37846M 37847M 37847B 37855M 37856M
                                                 37856B 37917M 37918M 37918B 37928M 37929M 37929B 37952M 37955B 37972
                                                 38068M 38069M 38069B 38099M 38100M 38100B 38117M 38118M 38118B 38145M
                                                 38146M 38146B 38163M 38164M 38164B 38191M 38192M 38192B 38209M 38210M
                                                 38210B 38228M 38229M 38229B 38233M 38234M 38234B 38251M 38252M 38252B
                                                 38303M 38304M 38304B 38321M 38322M 38322B 38360M 38361M 38361B 38411M
                                                 38412M 38412B 38451M 38452M 38452B 38486M 38487M 38487B 38498M 38499M
                                                 38499B 38527M 38528M 38528B 38558M 38559M 38559B 38576M 38577M 38577B
                                                 38604M 38605M 38605B 38622M 38623M 38623B 38650M 38651M 38651B 38668M
                                                 38669M 38669B 38687M 38688M 38688B 38692M 38693M 38693B 38717M 38718M
                                                 38718B 38743M 38744M 38744B 38774M 38775M 38775B 38792M 38793M 38793B
                                                 38820M 38821M 38821B 38838M 38839M 38839B 38866M 38867M 38867B 38884M
                                                 38885M 38885B 38889M 38890M 38890B 38914M 38915M 38915B 38934M 38937B
                                                 38991  39061M 39062M 39062B 39089M 39090M 39090B 39108M 39109M 39109B
                                                 39156M 39157M 39157B 39195M 39196M 39196B 39218M 39219M 39219B 39242M
                                                 39243M 39243B 39275M 39276M 39276B 39308M 39311B 39461  39547M 39548M
                                                 39548B 39552M 39553M 39553B 39665M 39666M 39666B 39720M 39721M 39721B
                                                 39763M 39764M 39764B 39768M 39769M 39769B 39809M 39810M 39810B 40044M
                                                 40045M 40045B 40079M 40082B 40128  40160M 40161M 40161B 40180M 40183B
1TOPS     (TOPS2025) (12:57) (15MAR04) Ordinary Symbol and Literal Cross Reference                                          Page  171
                                                 40376  40422M 40425B 40437  40483M 40486B 40498  40549M 40552B 40564
                                                 40615M 40618B 40630  40681M 40684B 40696  40748M 40751B 40763  40814M
                                                 40817B 40829  40881M 40884B 40896  40947M 40950B 40962  41014M 41017B
                                                 41029  41081M 41084B 41127  41206M 41207M 41207B 41283M 41284M 41284B
                                                 41304M 41305M 41305B 41331M 41332M 41332B 41344M 41345M 41345B 41385M
                                                 41386M 41386B 41406M 41407M 41407B 41433M 41434M 41434B 41446M 41447M
                                                 41447B 41522M 41525B 41720  41766M 41769B 41781  41834M 41835M 41835B
                                                 41874M 41875M 41875B 41882M 41883M 41883B 41901M 41904B 41916  41969M
                                                 41970M 41970B 42001M 42004B 42016  42069M 42070M 42070B 42135M 42138B
                                                 42150  42205M 42208B 42220  42251M 42252M 42252B 42283M 42284M 42284B
                                                 42387M 42390B 42506  42660M 42661M 42661B 42672M 42673M 42673B 42688M
                                                 42689M 42689B 42719M 42720M 42720B 42740M 42741M 42741B 42819M 42820M
                                                 42820B 42837M 42838M 42838B 42859M 42860M 42860B 42941M 42942M 42942B
                                                 42959M 42960M 42960B 42964M 42984M 43008M 43013M 43013B 43038M 43039M
                                                 43039B 43043M 43044M 43044B 43075M 43076M 43076B 43117M 43118M 43118B
                                                 43123M 43124M 43124B 43155M 43175M 43199M 43204M 43204B 43228M 43229M
                                                 43229B 43236M 43237M 43237B 43254M 43255M 43255  43268M 43268B 43432M
                                                 43433M 43433B 43462M 43463M 43463B 43495M 43496M 43496B 43570M 43571M
                                                 43571B 43627M 43628M 43628B 43656M 43657M 43657B 43706M 43709B 43726
                                                 43776M 43777M 43777B 43812M 43813M 43813B 43832M 43833M 43833B 43856M
                                                 43859B 43880  43951M 43952M 43952B 44056M 44057M 44057B 44068M 44069M
                                                 44069B 44084M 44085M 44085B 44148M 44149M 44149  44162M 44162B 44205M
                                                 44206M 44206B 44239M 44242B 44272  44343M 44344M 44344B 44371M 44372M
                                                 44372B 44476M 44477M 44477B 44488M 44489M 44489B 44504M 44505M 44505B
                                                 44664M 44665M 44665  44678M 44678B 44722M 44723M 44723B 44756M 44759B
                                                 44789  44860M 44861M 44861B 44888M 44889M 44889B 44988M 44989M 44989B
                                                 45034M 45035M 45035B 45074M 45075M 45075B 45110M 45111M 45111B 45155M
                                                 45156M 45156B 45173M 45174M 45174B 45203M 45204M 45204B 45226M 45227M
                                                 45227B 45242M 45243M 45243B 45402M 45403M 45403  45416M 45416B 45460M
                                                 45461M 45461B 45494M 45497B 45593  45669M 45670M 45670B 45780M 45781M
                                                 45781B 45805M 45806M 45806B 45823M 45824M 45824B 45848M 45849M 45849B
                                                 45866M 45867M 45867B 45892M 45893M 45893B 45910M 45911M 45911B 45945M
                                                 45946M 45946B 45967M 45968M 45968B 45985M 45986M 45986B 46024M 46025M
                                                 46025B 46045M 46046M 46046B 46063M 46064M 46064B 46093M 46094M 46094B
                                                 46140M 46141M 46141B 46144M 46145M 46145B 46168M 46169M 46169B 46192M
                                                 46193M 46193B 46226M 46227M 46227B 46256M 46257M 46257B 46276M 46279B
                                                 46318  46384M 46385M 46385B 46408M 46409M 46409B 46426M 46427M 46427B
                                                 46444M 46445M 46445B 46468M 46469M 46469B 46529M 46530M 46530B 46590M
                                                 46591M 46591B 46624M 46625M 46625B 46657M 46658M 46658B 46677M 46678M
                                                 46678B 46701M 46702M 46702B 46735M 46736M 46736B 46755M 46756M 46756B
                                                 46779M 46780M 46780B 46797M 46798M 46798B 46836M 46837M 46837B 46874M
                                                 46875M 46875B 46912M 46913M 46913B 46950M 46951M 46951B 46988M 46989M
                                                 46989B 47026M 47027M 47027B 47064M 47065M 47065B 47103M 47104M 47104B
                                                 47175M 47176M 47176B 47213M 47214M 47214B 47243M 47246B 47286  47348M
                                                 47349M 47349B 47372M 47373M 47373B 47409M 47410M 47410B 47439M 47440M
                                                 47440B 47479M 47480M 47480B 47538M 47539M 47539B 47574M 47575M 47575B
                                                 47622M 47623M 47623B 47640M 47641M 47641B 47668M 47669M 47669B 47728M
                                                 47729M 47729B 47748M 47749M 47749B 47776M 47777M 47777B 47833M 47834M
                                                 47834B 48000M 48001M 48001B 48022M 48023M 48023B 48169M 48170M 48170B
                                                 48250M 48251M 48251B 48294M 48295M 48295B 48312M 48313M 48313B 48340M
                                                 48341M 48341B 48380M 48381M 48381B 48408M 48409M 48409B 48426M 48427M
                                                 48427B 48476M 48477M 48477B 48511M 48512M 48512B 48539M 48540M 48540B
                                                 48597M 48598M 48598B 48636M 48637M 48637B 48659M 48662B 48799  48871M
                                                 48872M 48872B 48932M 48933M 48933B 48970M 48971M 48971B 49109M 49110M
                                                 49110B 49113M 49114M 49114B 49120M 49121M 49121B 49147M 49148M 49148B
                                                 49174M 49175M 49175B 49192M 49193M 49193B 49224M 49225M 49225B 49277M
                                                 49280B
 RCONSOLE      2 0000749C 00000001     H   40956 40304
 RDRNG         1 00000000 0000000C     T   13172 13172
1TOPS     (TOPS2025) (12:57) (15MAR04) Ordinary Symbol and Literal Cross Reference                                          Page  172
 RFIN          2 00006FEC 00000001     H   39818 39568B 39784B
 RIACCT        2 000078EC 00000001     H   41775 41558  41573
 RIGROUP       2 000079AC 00000001     H   42010 41618  41633
 RINAME        2 00007A4C 00000001     H   42214 41708  42433
 RIOPER        2 00007A0E 00000001     H   42144 41648  41663  41678
 RIPRT         4 00007870 00000001     F   41681 42431
 RIPRTU        4 000076E0 00000001     F   41531 42430
 RIUSER        2 0000794A 00000001     H   41910 41588  41603
 RLIST         2 00007418 00000001     H   40757 40259
 RLOOKUP       1 00000000 00000048     T   42424 42424
 RMULT         2 00007368 00000001     H   40492 40214
 RNE          48 00000000 FFFFFFE1     J    8269  8376  33737U 35060  38373U 41231U 41239M 41239  42597U 43665  43971U
                                                 44391U 44908U
 RNEFALL      64 00000004 FFFFFFE1         8253 44020M 44440M 44957M
 RNEFLAG       1 00000004 FFFFFFE1     R    8244  8248   8253   8259   8259
 RNEFMULT    128 00000001 FFFFFFE1         8236 42184M 42732  43994M 44414M 44931M
 RNEFQ       128 00000004 FFFFFFE1         8248 42305M 44999
 RNEHDR       12 00000004 FFFFFFE1     X    8259 44041  44461  44972  44977  45550
 RNEIFLAG      1 00000001 FFFFFFE1     R    8232  8236
 RNELEN        1 00000000 FFFFFFE1     X    8229 33773  33796  41983M 42117M 42187M 42369M 42649  42784  42808  43313
                                                 44029  44449  45023  45070
 RNETEXT      32 00000010 FFFFFFE1     C    8262 33752  33782  33803  38388  41979M 41980M 41981M 42075M 42076M 42104M
                                                 42185M 42275  42280  42306M 42353M 42438  42641  42769  42800  43305
                                                 45015  45062
 RNG          48 0000001C FFFFFFE0     X    8376 33727  38363  41220  41491  42425  42587  43963  44383  44900
 RNG#          1 00000008 FFFFFFE0 A   U    8373  8376  42425
 RNGCB       666 00000000 FFFFFFE0     J    8391 31523  31796U 31930U 32127U 32972  33075U 33575  33688U 35110  35335U
                                                 36044  38029U 39508U 39516M 39516  39517M 39517  39518M 39518  42482
                                                 42562U 42963  43154  43245  44144  44660  45398  45640U 46365U
 RNGCORTN      4 00000008 FFFFFFE0     A    8320 43254
 RNGCOSEL      4 00000004 FFFFFFE0     A    8319 42564M 43120  44148  44664  45402
 RNGERR        4 00007F2A 00000001     I   43683 43238B 43658B
 RNGEXIT       2 00007F2E 00000001     H   43687 43681B
 RNGFALL     128 0000000C FFFFFFE0         8328 39872  40930M 40996M 41063M 44008  44428  44945
 RNGFDALL    128 00000003 FFFFFFE0         8295 31762  33044  33658  35305  39884  45530
 RNGFDIAL     64 0000000C FFFFFFE0         8333 44574  45312
 RNGFDIR      16 0000000C FFFFFFE0         8343 44606  45344
 RNGFDOUR     64 00000003 FFFFFFE0         8300 31707  39846  45530
 RNGFLAG       1 0000000C FFFFFFE0     R    8324  8328   8333   8338   8343   8348   8353
 RNGFLAG2      1 0000000D FFFFFFE0     R    8359  8363
 RNGFLEAS      8 0000000C FFFFFFE0         8348 44638  45376
 RNGFLIST     16 00000003 FFFFFFE0         8310 31809  31809  33088  33088  33707  33707  33708M 35348  35348  40797M
                                                 40864M
 RNGFMULT     32 00000003 FFFFFFE0         8305 31809  31809  31810M 33088  33088  33089M 33658  33698M 35348  35348
                                                 35349M 37900  40532M 43982  44402  44919
 RNGFSMF       4 0000000C FFFFFFE0         8353 32141  40598M
 RNGFSOME    128 0000000D FFFFFFE0         8363 31944  42607M 43131M 43278M 43291
 RNGFVER       8 00000003 FFFFFFE0         8315 31817M 33096M 33707  33707  35356M 40664M 40731M 43147
 RNGITEM     254 0000019C FFFFFFE0     X    8383 42612M 42612  42722M 42962  43056M 43153  43251  43909  44301  44818
 RNGITEMX      4 0000019C FFFFFFE0     F    8378  8379   8380   8381   8383   8383
 RNGLTYPE      1 0000000F FFFFFFE0     X    8369 42613M 42624  42630M 42707M 42877  42904  42977  43001  43099  43168
                                                 43192  43250  43367  43518  43767  43803
 RNGM          2 00000018 FFFFFFE0     H    8374 33721  39827M 39827  41166  41490  41492M 42580
 RNGMLP        4 00007CF6 00000001     I   42962 43057B
 RNGN          2 0000001A FFFFFFE0     H    8375 38362  42580  42586  43664  43666M 43962  44382  44899
 RNGNEXT       2 00007F3C 00000001     H   43720 45527
 RNGNX         2 00007E16 00000001     H   43283 42721B 43077B 43132B
 RNGOFLAG      1 00000003 FFFFFFE0     R    8291  8295   8300   8305   8310   8315
 RNGOPT        4 00000000 FFFFFFE0     F    8282 39519M 43098
1TOPS     (TOPS2025) (12:57) (15MAR04) Ordinary Symbol and Literal Cross Reference                                          Page  173
 RNGREPR       2 00007D44 00000001     H   43064 42961B 43014B 43040B 43119B 43125B
 RNGTFE        1 00000001 FFFFFFE0 A   U    8285 39929  42707  42904  43001  43192  43767  44145
 RNGTPORT      1 00000002 FFFFFFE0 A   U    8286 39956  42630  42877  42977  43168  43518  43803  44661
 RNGTSES       1 00000003 FFFFFFE0 A   U    8287 31707  31762  33044  33658  35305  37900  39983  41253  43367  45399
 RNGTTYPE      1 0000000E FFFFFFE0     X    8367 40997M 41064M 44119  44134  44539  44554  45277  45292
 RNGTYPE       1 00000002 FFFFFFE0     X    8284 39929  39956  39983  41253  42613
 RNGVM         2 00007F06 00000001     H   43641 43392B 43468B 43501B 43543B 43576B 43600B
 RNOLIST       2 00007444 00000001     H   40823 40274
 RNOVER        2 000073EC 00000001     H   40690 40244
 RNULL         2 00007310 00000001     H   40370 40199
 RSMF          2 00007394 00000001     H   40558 40334
 RTRIM         1 00000000 0000004F     T   48701 48701
 RUNREC        2 0000733C 00000001     H   40431 40364
 RVER          2 000073C0 00000001     H   40624 40229
 RVIRTUAL      2 000074CC 00000001     H   41023 40319
 R0            0 00000000 FFFFFFFF A   #     699  2096   2165M  8564M  8564   8586M  8645M  8665   8730M  8825M  8825
                                                  8847M  8956M  9102   9114M  9119   9178   9189M  9189   9198   9199
                                                  9304M  9304   9313   9336M  9336   9369M  9369   9378   9405M  9405
                                                  9534M  9534   9543   9578M  9578   9689   9714M  9714   9723   9724
                                                  9725   9789M  9791   9828M  9829M  9830M  9902   9963   9977M  9977
                                                  9986   9987   9988  10032M 10032  10774M 10861M 10948M 11035M 11122M
                                                 11209M 11296M 11383M 11470M 11557M 11644M 11731M 11818M 11971M 12058M
                                                 12145M 12232M 12319M 12406M 12493M 12646M 12733M 12805M 12833M 12834M
                                                 12835M 13054M 13067M 13101M 13902M 13902  13911  13912  13913  13940M
                                                 13940  13972M 14081M 14109M 14128M 14169M 14188M 14202M 14219M 14219
                                                 14241M 14367M 14367  14507M 14507  14516  14517  14518  14545M 14545
                                                 14579M 14689M 14717M 14736M 14776M 14795M 14857M 14874M 14874  14896M
                                                 15253M 15344M 15364M 15396M 15512M 15512  15521  15522  15578M 15598M
                                                 15648M 15648  15677M 15695M 15713M 16884M 17068M 17068  17077  17128
                                                 17233M 17252M 17389M 20133  20194  20201M 20201  20210  20211  20212
                                                 20239M 20239  20487M 21231M 21231  21240  21241  21326  21513M 21762
                                                 21893  21901M 21901  21910  21911  21912  21939M 21939  22156M 22156
                                                 22165  22166  22167  22194M 22194  22245M 22245  22254  22255  22256
                                                 22283M 22283  22334M 22334  22343  22344  22345  22372M 22372  22451M
                                                 22451  22452M 22474M 22474  22517M 22517  22518M 22540M 22540  22963M
                                                 22964M 22965  22988M 22988  23025M 23102M 23103M 23104  23174M 23174
                                                 23263M 23281M 23299M 23715M 23716M 23775M 23775  23988M 24018M 24069M
                                                 24095M 24167M 24195M 24234M 24254M 24254  24316M 24336M 24336  24415M
                                                 24441M 24496M 24518M 24552M 24574M 24608M 24630M 24664M 24686M 24720M
                                                 24749M 24749  24780M 24814M 24836M 24852M 24872M 24922M 24944M 24978M
                                                 25000M 25016M 25036M 25087M 25109M 25144M 25183M 25222M 25261M 25300M
                                                 25322M 25341M 25362M 25362  25381M 25402M 25402  25420M 25441M 25441
                                                 25467M 25467  25581M 25610  25633M 25723M 25897M 25897  25906  25907
                                                 25908  25935M 25935  25946M 25957  26023M 26023  26091M 26111M 26303M
                                                 26303  26312  26313  26387M 26405M 26421M 26421  26431M 26452M 26452
                                                 26498M 26498  26622M 26722M 26794M 26821M 26860M 26914M 26915M 26959M
                                                 27191M 27191  27300  27311M 27317  27318  27472M 27472  27481  27482
                                                 27658M 27806M 27806  27853M 27872M 28025M 28040M 28041M 28041  28277M
                                                 28297M 28297  28338M 28358M 28358  28399M 28419M 28419  28460M 28480M
                                                 28480  28521M 28542M 28542  28567M 28567  28667M 28694  28706M 28711
                                                 28764M 28806M 28970M 28970  28991M 29018  29030M 29035  29088M 29155M
                                                 29181M 29215M 29237M 29262M 29262  29281M 29298  29299M 29351M 29351
                                                 29380M 29380  29398M 29420M 29420  29438M 29464M 29464  29485M 29485
                                                 29503M 29524M 29524  29542M 29589M 29606  29607M 29660M 29706M 29706
                                                 29724M 29748M 29766M 29790M 29808M 29832M 29850M 29880M 29904M 29922M
                                                 29948M 29948  29968M 29968  30009M 30035M 30035  30053M 30074M 30074
                                                 30115M 30136M 30136  30177M 30208M 30226M 30258M 30276M 30308M 30326M
                                                 30350M 30391M 30422M 30454M 30472M 30504M 30522M 30546M 30587M 30618M
                                                 30650M 30668M 30700M 30718M 30742M 30783M 30901M 30909  30921M 30926
1TOPS     (TOPS2025) (12:57) (15MAR04) Ordinary Symbol and Literal Cross Reference                                          Page  174
                                                 31055M 31055  31096M 31132M 31152M 31152  31193M 31210  31211M 31256M
                                                 31279M 31299M 31299  31340M 31375M 31404M 31404  31693M 31707M 31762M
                                                 31829M 31829  31975M 31991M 32052M 32076M 32094M 32152M 32180M 32198M
                                                 32246M 32274M 32292M 32320M 32338M 32377M 32416M 32437M 32437  32455M
                                                 32494M 32543M 32581M 32624M 32645M 32645  32665M 32689M 32702M 32702
                                                 32756M 32778M 32804M 32879M 32917M 32917  33044M 33108M 33108  33236M
                                                 33268M 33287M 33315M 33333M 33361M 33380M 33407M 33426M 33444M 33472M
                                                 33497M 33497  33658M 33839M 33857M 33878M 33896M 33917M 33935M 33960M
                                                 33960  33979M 34000M 34018M 34039M 34057M 34082M 34082  34100M 34100
                                                 34154M 34154  34176M 34218M 34254M 34391M 34411  34417M 34517M 34561M
                                                 34587M 34615M 34633M 34661M 34705M 34727M 34727  34753M 34781M 34817M
                                                 34845M 34867M 34895M 34917M 34945M 34975M 34975  35194M 35194  35203
                                                 35204  35205  35238M 35238  35305M 35366M 35677M 35715M 35753M 35791M
                                                 35829M 35867M 35897M 35897  36126M 36126  36135  36136  36137  36164M
                                                 36164  36175M 36182  36213M 36247M 36285M 36323M 36345M 36378M 36416M
                                                 36490M 36524M 36591M 36634M 36651M 36678M 36721M 36742M 36742  36779M
                                                 36807M 36824M 36850M 36877M 36877  36895M 36930M 36957M 36957  36974M
                                                 37008M 37075M 37139M 37162M 37194M 37243M 37285M 37302M 37329M 37372M
                                                 37393M 37393  37433M 37460M 37484M 37501M 37501  37523M 37573M 37584M
                                                 37584  37625M 37651M 37676M 37678M 37691  37697M 37698  37718M 37740M
                                                 37740  37758M 37793M 37795  37865M 37891M 37895  37900M 37924M 37924
                                                 38057M 38088M 38106M 38134M 38152M 38180M 38198M 38217M 38240M 38256M
                                                 38276M 38310M 38349M 38400M 38440M 38475M 38516M 38547M 38565M 38593M
                                                 38611M 38639M 38657M 38676M 38706M 38706  38732M 38763M 38781M 38809M
                                                 38827M 38855M 38873M 38903M 38903  39050M 39078M 39078  39097M 39145M
                                                 39184M 39215M 39264M 39519  39544M 39544  39688M 39707  39760M 39760
                                                 39836M 39836  39856M 39894M 39907M 39907  39916M 39939M 39966M 39993M
                                                 40037  40163  40163M 41214M 41276M 41297M 41328M 41328  41378M 41399M
                                                 41430M 41430  41825  41960  41982M 41983  42060  42077  42116M 42117
                                                 42186M 42187  42280M 42309  42321M 42326  42369  42564  42649M 42669M
                                                 42808M 42826M 42848M 42864M 42887M 42914M 42948M 43027M 43027  43068M
                                                 43093  43098M 43099M 43100M 43120M 43217M 43217  43233M 43250M 43313M
                                                 43327  43350M 43350  43381M 43381  43391M 43414  43415  43415  43415
                                                 43421M 43436M 43439M 43467M 43500M 43532M 43532  43542M 43575M 43589M
                                                 43589  43599M 43632M 43940M 44029M 44030M 44065M 44145M 44194M 44332M
                                                 44360M 44449M 44450M 44485M 44661M 44711M 44849M 44877M 44977M 45023M
                                                 45070M 45144M 45162M 45192M 45223M 45399M 45449M 45548  45548  45548
                                                 45658M 45686M 45705M 45725M 45753M 45794M 45812M 45837M 45855M 45881M
                                                 45899M 45934M 45956M 45956  45974M 46013M 46034M 46034  46052M 46082M
                                                 46082  46129M 46146  46148M 46157M 46157  46215M 46245M 46245  46381M
                                                 46415M 46441M 46484M 46545M 46613M 46646M 46667M 46667  46724M 46745M
                                                 46745  46786M 46825M 46863M 46901M 46939M 46977M 47015M 47053M 47092M
                                                 47128M 47148M 47202M 47338M 47398M 47428M 47475M 47503  47510M 47515
                                                 47563M 47611M 47629M 47657M 47693M 47717M 47738M 47738  47805M 47826M
                                                 47826  47870M 47894M 47918M 47941M 47961M 47989M 48011M 48039M 48070M
                                                 48138M 48239M 48283M 48301M 48329M 48369M 48397M 48415M 48465M 48500M
                                                 48528M 48586M 48625M 48846  48921M 48967M 49098M 49136M 49151M 49181M
 R1            1 00000001 FFFFFFFF A   #     712  2159M  2160M  2166M  8585M  8664   8731M  8846M  8952M  8980M  9170M
                                                  9177   9185M  9198   9199   9201   9300M  9313   9357M  9358M  9358
                                                  9365M  9378   9530M  9543   9586M  9587M  9587   9710M  9723   9724
                                                  9725   9790   9798   9799   9973M  9986   9987   9988  10767M 10854M
                                                 10941M 11028M 11115M 11202M 11289M 11376M 11463M 11550M 11637M 11724M
                                                 11811M 11964M 12051M 12138M 12225M 12312M 12399M 12486M 12639M 12726M
                                                 12811  13053M 13100M 13898M 13911  13912  13913  13965M 14080M 14104M
                                                 14127M 14138M 14164M 14187M 14201M 14239M 14281M 14503M 14516  14517
                                                 14518  14572M 14688M 14712M 14735M 14745M 14771M 14794M 14856M 14894M
                                                 15252M 15343M 15363M 15395M 15508M 15521  15522  15524  15573M 15676M
                                                 15694M 15712M 16883M 17064M 17077  17098M 17099M 17099  17100  17101
                                                 17232M 17251M 17336M 17337M 17337  17388M 17493M 17493  19937M 19938M
1TOPS     (TOPS2025) (12:57) (15MAR04) Ordinary Symbol and Literal Cross Reference                                          Page  175
                                                 19938  20035M 20036M 20036  20197M 20210  20211  20212  20486M 21227M
                                                 21240  21241  21243  21897M 21910  21911  21912  22152M 22165  22166
                                                 22167  22241M 22254  22255  22256  22330M 22343  22344  22345  22446M
                                                 22447M 22483M 22499  22506M 22511  22512M 22513M 22549M 22565  22572M
                                                 22577M 22578  23021M 23049M 23262M 23280M 23298M 23727M 23987M 24011M
                                                 24068M 24090M 24166M 24190M 24233M 24261M 24315M 24343M 24414M 24436M
                                                 24495M 24517M 24551M 24573M 24607M 24629M 24663M 24685M 24719M 24773M
                                                 24813M 24835M 24851M 24871M 24921M 24943M 24977M 24999M 25015M 25035M
                                                 25086M 25108M 25143M 25182M 25221M 25260M 25299M 25321M 25340M 25358M
                                                 25380M 25398M 25419M 25437M 25580M 25609  25640M 25716M 25893M 25906
                                                 25907  25908  25945M 26086M 26299M 26312  26313  26315  26386M 26404M
                                                 26423M 26423  26430M 26620M 26721M 26793M 26820M 26859M 26937M 26958M
                                                 27310M 27468M 27481  27482  27484  27657M 27813M 27852M 27871M 28018M
                                                 28052M 28194M 28261  28276M 28304M 28337M 28365M 28398M 28426M 28459M
                                                 28487M 28520M 28538M 28759M 28805M 29083M 29154M 29176M 29214M 29236M
                                                 29280M 29303M 29303  29365M 29376M 29397M 29416M 29437M 29481M 29502M
                                                 29520M 29541M 29582M 29611M 29611  29655M 29723M 29741M 29765M 29783M
                                                 29807M 29825M 29849M 29873M 29897M 29921M 29975M 30008M 30052M 30081M
                                                 30114M 30143M 30176M 30201M 30225M 30251M 30275M 30301M 30325M 30357M
                                                 30390M 30415M 30447M 30471M 30497M 30521M 30553M 30586M 30611M 30643M
                                                 30667M 30693M 30717M 30749M 30782M 30965M 31037  31062M 31095M 31131M
                                                 31159M 31192M 31215M 31215  31255M 31278M 31306M 31339M 31374M 31692M
                                                 31830M 31909  31974M 31990M 32051M 32069M 32093M 32112M 32151M 32175M
                                                 32197M 32245M 32269M 32291M 32315M 32337M 32376M 32415M 32433M 32454M
                                                 32493M 32542M 32580M 32623M 32664M 32688M 32755M 32777M 32803M 32878M
                                                 33109M 33218  33235M 33260M 33286M 33310M 33332M 33356M 33379M 33402M
                                                 33443M 33467M 33838M 33856M 33895M 33934M 33978M 34017M 34056M 34101M
                                                 34175M 34213M 34253M 34344  34386M 34410  34416M 34512M 34556M 34610M
                                                 34632M 34656M 34704M 34723M 34776M 34816M 34840M 34890M 34940M 35190M
                                                 35203  35204  35205  35226M 35227M 35227  35367M 35450  35639  35650M
                                                 35676M 35714M 35752M 35790M 35828M 35866M 36122M 36135  36136  36137
                                                 36174M 36181  36212M 36246M 36284M 36322M 36344M 36373M 36435M 36489M
                                                 36523M 36586M 36629M 36650M 36673M 36720M 36738M 36778M 36802M 36823M
                                                 36849M 36872M 36894M 36929M 36952M 36973M 37007M 37070M 37134M 37161M
                                                 37193M 37238M 37280M 37301M 37324M 37371M 37389M 37432M 37459M 37483M
                                                 37521M 37572M 37624M 37646M 37671M 37677M 37717M 37736M 37757M 37791M
                                                 37863M 37886M 37894  37925M 38011  38056M 38080M 38105M 38129M 38151M
                                                 38175M 38197M 38216M 38239M 38255M 38275M 38309M 38348M 38399M 38435M
                                                 38474M 38495M 38515M 38539M 38564M 38588M 38610M 38634M 38656M 38675M
                                                 38731M 38755M 38780M 38804M 38826M 38850M 38872M 39049M 39073M 39096M
                                                 39140M 39183M 39210M 39263M 39540M 39699M 39706  39756M 39855M 39893M
                                                 39915M 39938M 39965M 39992M 40036  40157M 41213M 41275M 41296M 41324M
                                                 41377M 41398M 41426M 41812M 41813M 41813  41947M 41948M 41948  41977M
                                                 41978M 41978  42047M 42048M 42048  42275M 42564  42641M 42800M 42825M
                                                 42847M 42863M 42886M 42913M 42947M 42962M 43067M 43092  43120M 43153M
                                                 43232M 43251M 43305M 43390M 43414  43415  43415  43415  43420M 43436M
                                                 43437M 43466M 43499M 43541M 43574M 43598M 43631M 43839  43839M 43935M
                                                 44041M 44102U 44187M 44222  44222M 44327M 44355M 44461M 44522U 44704M
                                                 44739  44739M 44844M 44872M 44972M 45015M 45062M 45137M 45161M 45185M
                                                 45260U 45442M 45477  45477M 45548  45548  45548  45622  45653M 45681M
                                                 45704M 45724M 45752M 45787M 45811M 45830M 45854M 45874M 45898M 45933M
                                                 45952M 45973M 46012M 46030M 46051M 46122M 46147  46148M 46210M 46347
                                                 46376M 46414M 46436M 46479M 46502M 46540M 46563M 46612M 46645M 46674M
                                                 46723M 46752M 46785M 46824M 46862M 46900M 46938M 46976M 47014M 47052M
                                                 47091M 47127M 47147M 47201M 47315  47345M 47397M 47421M 47459M 47562M
                                                 47606M 47628M 47652M 47686M 47716M 47745M 47800M 47869M 47893M 47917M
                                                 47940M 47960M 47988M 48032M 48065M 48133M 48234M 48278M 48300M 48324M
                                                 48368M 48392M 48414M 48460M 48499M 48523M 48585M 48618M 48846  48916M
                                                 48996U 49097M 49151M 49180M 49221M
1TOPS     (TOPS2025) (12:57) (15MAR04) Ordinary Symbol and Literal Cross Reference                                          Page  176
 R12          12 0000000C FFFFFFFF A   #     855  2122
 R13          13 0000000D FFFFFFFF A   #     868  9193   9194   9195   9211   9212   9213   9308   9309   9310   9323
                                                  9324   9325   9373   9374   9375   9388   9389   9390   9538   9539
                                                  9540   9553   9554   9555   9718   9719   9720   9735   9736   9737
                                                  9981   9982   9983   9998   9999  10000  13906  13907  13908  13923
                                                 13924  13925  14511  14512  14513  14528  14529  14530  15489  15503
                                                 15516  15517  15518  15534  15535  15536  17072  17073  17074  17087
                                                 17088  17089  20205  20206  20207  20222  20223  20224  21235  21236
                                                 21237  21253  21254  21255  21905  21906  21907  21922  21923  21924
                                                 22160  22161  22162  22177  22178  22179  22249  22250  22251  22266
                                                 22267  22268  22338  22339  22340  22355  22356  22357  25874  25888
                                                 25901  25902  25903  25918  25919  25920  26307  26308  26309  26325
                                                 26326  26327  27476  27477  27478  27494  27495  27496  35185  35198
                                                 35199  35200  35215  35216  35217  36130  36131  36132  36147  36148
                                                 36149  39685  40019  41262  41263  41264  41338  41339  41340  41364
                                                 41365  41366  41440  41441  41442
 R14          14 0000000E FFFFFFFF A   #     881  2097M  8663M  8664   8665   8669M  8669   9176M  9177   9178   9182M
                                                  9182   9192M  9193   9194   9195   9200M  9201   9208M  9211   9212
                                                  9213   9307M  9308   9309   9310   9320M  9323   9324   9325   9372M
                                                  9373   9374   9375   9385M  9388   9389   9390   9537M  9538   9539
                                                  9540   9550M  9553   9554   9555   9717M  9718   9719   9720   9732M
                                                  9735   9736   9737   9816M  9821M  9829   9830M  9980M  9981   9982
                                                  9983   9995M  9998   9999  10000  10083M 10084  10099  10114  10115
                                                 10116  10116  10117  10118  10131  10135M 10135  12819M 12826M 12834
                                                 12835M 13905M 13906  13907  13908  13920M 13923  13924  13925  14200M
                                                 14201  14202  14206M 14206  14510M 14511  14512  14513  14525M 14528
                                                 14529  14530  14855M 14856  14857  14861M 14861  15078M 15079  15094
                                                 15109  15110  15111  15111  15112  15113  15126  15130M 15130  15488M
                                                 15489  15496M 15499  15502M 15503  15515M 15516  15517  15518  15523M
                                                 15524  15531M 15534  15535  15536  17009M 17010  17025  17040  17041
                                                 17042  17042  17043  17044  17057  17061M 17061  17071M 17072  17073
                                                 17074  17084M 17087  17088  17089  20204M 20205  20206  20207  20219M
                                                 20222  20223  20224  20290M 20291  20306  20321  20322  20323  20323
                                                 20324  20325  20338  20342M 20342  21234M 21235  21236  21237  21242M
                                                 21243  21250M 21253  21254  21255  21370M 21370  21371M 21387M 21387
                                                 21388M 21460M 21461  21476  21491  21492  21493  21493  21494  21495
                                                 21508  21512M 21512  21904M 21905  21906  21907  21919M 21922  21923
                                                 21924  21975M 21976  21991  22006  22007  22008  22008  22009  22010
                                                 22023  22027M 22027  22159M 22160  22161  22162  22174M 22177  22178
                                                 22179  22248M 22249  22250  22251  22263M 22266  22267  22268  22337M
                                                 22338  22339  22340  22352M 22355  22356  22357  25873M 25874  25881M
                                                 25884  25887M 25888  25900M 25901  25902  25903  25915M 25918  25919
                                                 25920  26306M 26307  26308  26309  26314M 26315  26322M 26325  26326
                                                 26327  27475M 27476  27477  27478  27483M 27484  27491M 27494  27495
                                                 27496  30242M 30242  30245M 30292M 30292  30295M 30438M 30438  30441M
                                                 30488M 30488  30491M 30634M 30634  30637M 30684M 30684  30687M 31636M
                                                 31637  31652  31667  31668  31669  31669  31670  31671  31684  31688M
                                                 31688  31691M 31692  31693  31697M 31697  31770M 31771  31775M 31775
                                                 33049M 33050  33054M 33054  33662M 33663  33667M 33667  35184M 35185
                                                 35197M 35198  35199  35200  35212M 35215  35216  35217  35267M 35270
                                                 35309M 35310  35314M 35314  36129M 36130  36131  36132  36144M 36147
                                                 36148  36149  37482M 37483  37484  37488M 37488  37893M 37894  37895
                                                 37899M 37899  37904M 37905  37909M 37909  39523M 39528  39532M 39537
                                                 39610M 39611  39626  39641  39642  39643  39643  39644  39645  39658
                                                 39662M 39662  39684M 39685  39705M 39706  39707  39711M 39711  39740M
                                                 39743  40018M 40019  40035M 40036  40037  40041M 40041  40048M 40051
                                                 41261M 41262  41263  41264  41270M 41272  41291M 41293  41312M 41313
                                                 41317M 41317  41335M 41338  41339  41340  41363M 41364  41365  41366
                                                 41372M 41374  41393M 41395  41414M 41415  41419M 41419  41437M 41440
1TOPS     (TOPS2025) (12:57) (15MAR04) Ordinary Symbol and Literal Cross Reference                                          Page  177
                                                 41441  41442  43091M 43092  43093  43097M 43097  43104M 43105  43109M
                                                 43109
 R15          15 0000000F FFFFFFFF A   #     894  2096   8572M  8594M  8718M  8718   8833M  8855M  9027M  9027   9119M
                                                  9123M  9132M  9132   9139   9214M  9214   9223M  9223   9255M  9255
                                                  9326M  9326   9391M  9391   9395M  9396M  9396   9457M  9463M  9463
                                                  9485M  9485   9556M  9556   9567M  9567   9606M  9629M  9629   9738M
                                                  9738   9747M  9747   9797M  9832M  9838M  9838   9860M  9860   9921M
                                                  9921  10001M 10001  10010M 10010  10064  10084M 10093M 10093  10099M
                                                 10108M 10108  10114M 10115M 10117M 10118  10130M 10130  10131  10147M
                                                 10147  10166M 10166  10232M 10232  10299M 10299  10365M 10365  10431M
                                                 10431  10498M 10498  10571M 10571  10644M 10644  10714M 10714  10758M
                                                 10782M 10782  10801M 10801  10845M 10869M 10869  10888M 10888  10932M
                                                 10956M 10956  10975M 10975  11019M 11043M 11043  11062M 11062  11106M
                                                 11130M 11130  11149M 11149  11193M 11217M 11217  11236M 11236  11280M
                                                 11304M 11304  11323M 11323  11367M 11391M 11391  11410M 11410  11454M
                                                 11478M 11478  11497M 11497  11541M 11565M 11565  11584M 11584  11628M
                                                 11652M 11652  11671M 11671  11715M 11739M 11739  11758M 11758  11802M
                                                 11826M 11826  11845M 11845  11911M 11911  11955M 11979M 11979  11998M
                                                 11998  12042M 12066M 12066  12085M 12085  12129M 12153M 12153  12172M
                                                 12172  12216M 12240M 12240  12259M 12259  12303M 12327M 12327  12346M
                                                 12346  12390M 12414M 12414  12433M 12433  12477M 12501M 12501  12520M
                                                 12520  12586M 12586  12630M 12654M 12654  12673M 12673  12717M 12741M
                                                 12741  12760M 12760  12870M 12880U 12903M 12903  12922M 12922  12964M
                                                 12983M 12983  13044M 13062M 13091M 13109M 13132M 13132  13926M 13926
                                                 13956M 14089M 14117M 14177M 14266M 14285M 14285  14406M 14406  14531M
                                                 14531  14563M 14697M 14725M 14784M 14921M 14931M 14941U 14986M 14986
                                                 15079M 15088M 15088  15094M 15103M 15103  15109M 15110M 15112M 15113
                                                 15125M 15125  15126  15170M 15170  15261M 15288M 15288  15388M 15416M
                                                 15416  15537M 15537  15546M 15547M 15548  15558M 15586M 15617M 15685M
                                                 15703M 15721M 15727M 15760M 15836M 15836  16904M 16904  16964M 16964
                                                 17010M 17019M 17019  17025M 17034M 17034  17040M 17041M 17043M 17044
                                                 17056M 17056  17057  17090M 17090  17100M 17191M 17223M 17241M 17273M
                                                 17273  17292M 17292  17416M 17416  17433M 17456M 17479M 17526M 17549M
                                                 17549  17568M 17568  17667M 17667  17733M 17733  17800M 17800  17866M
                                                 17866  17933M 17933  17999M 17999  18066M 18066  18132M 18132  18199M
                                                 18199  18265M 18265  18331M 18331  18398M 18398  18465M 18465  18531M
                                                 18531  18597M 18597  18664M 18664  18730M 18730  18797M 18797  18864M
                                                 18864  18930M 18930  18996M 18996  19063M 19063  19129M 19129  19196M
                                                 19196  19278M 19278  19361M 19361  19427M 19427  19494M 19494  19560M
                                                 19560  19627M 19627  19693M 19693  19760M 19760  19826M 19826  19893M
                                                 19893  19967M 19972M 19972  19991M 19991  20072M 20072  20091M 20091
                                                 20152M 20152  20225M 20225  20271  20291M 20300M 20300  20306M 20315M
                                                 20315  20321M 20322M 20324M 20325  20337M 20337  20338  20354M 20354
                                                 20373M 20373  20440M 20440  20507M 20507  20554  20558M 20558  20577M
                                                 20577  20624  20635M 20635  20654M 20654  20734M 20734  20813M 20813
                                                 20892M 20892  20971M 20971  21050M 21050  21116M 21116  21183M 21183
                                                 21256M 21256  21265M 21265  21284M 21284  21326M 21338  21364  21365M
                                                 21366M 21374  21376M 21377  21378  21379  21381M 21382M 21383M 21391
                                                 21393M 21394  21395  21396M 21415M 21415  21461M 21470M 21470  21476M
                                                 21485M 21485  21491M 21492M 21494M 21495  21507M 21507  21508  21518M
                                                 21537M 21537  21650M 21650  21697  21701M 21701  21720M 21720  21781M
                                                 21781  21828  21832M 21832  21851M 21851  21925M 21925  21976M 21985M
                                                 21985  21991M 22000M 22000  22006M 22007M 22009M 22010  22022M 22022
                                                 22023  22054  22069  22078M 22097M 22097  22180M 22180  22238  22269M
                                                 22269  22327  22358M 22358  22416  22441M 22441  22511M 22578M 22597M
                                                 22597  22697  22703M 22703  22777M 22821M 22821  22910  23208M 23271M
                                                 23289M 23307M 23313M 23468M 23468  23471M 23472M 23472  23485M 23498M
                                                 23498  23505  23514M 23514  23517M 23518M 23518  23531M 23544M 23544
                                                 23551  23657M 23739M 23753M 23783M 23830M 23830  23940M 23940  23996M
1TOPS     (TOPS2025) (12:57) (15MAR04) Ordinary Symbol and Literal Cross Reference                                          Page  178
                                                 24026M 24077M 24119M 24175M 24203M 24242M 24250M 24285M 24324M 24332M
                                                 24367M 24423M 24465M 24504M 24526M 24560M 24582M 24616M 24638M 24672M
                                                 24694M 24728M 24757M 24788M 24822M 24844M 24896M 24930M 24952M 24986M
                                                 25008M 25060M 25095M 25117M 25152M 25191M 25230M 25269M 25308M 25330M
                                                 25349M 25370M 25389M 25410M 25428M 25449M 25475M 25517M 25517  25589M
                                                 25625M 25664M 25731M 25758M 25758  25921M 25921  25957M 25960  25972M
                                                 25980M 25989M 25989  25996  26073M 26074M 26075  26099M 26130M 26161M
                                                 26161  26328M 26328  26395M 26413M 26481M 26481  26681M 26682M 26683M
                                                 26686  26698M 26711M 26711  26728  26829M 26868M 26949M 26967M 27045M
                                                 27045  27199M 27199  27218M 27218  27325M 27325  27344M 27344  27410M
                                                 27410  27497M 27497  27526M 27526  27666M 27796M 27798M 27837M 27896M
                                                 27971M 27975  27987M 27992M 28033M 28064M 28088M 28088  28218M 28218
                                                 28285M 28293M 28328M 28346M 28354M 28389M 28407M 28415M 28450M 28468M
                                                 28476M 28511M 28529M 28550M 28575M 28599M 28599  28711M 28715M 28724M
                                                 28724  28731  28830M 28830  28915M 28915  28978M 29035M 29039M 29048M
                                                 29048  29055  29112M 29163M 29205M 29223M 29245M 29270M 29289M 29307M
                                                 29332M 29359M 29388M 29406M 29428M 29446M 29472M 29493M 29511M 29532M
                                                 29550M 29597M 29615M 29640M 29684M 29714M 29732M 29756M 29774M 29798M
                                                 29816M 29840M 29858M 29888M 29912M 29930M 29956M 29964M 29999M 30017M
                                                 30043M 30061M 30070M 30105M 30123M 30132M 30167M 30185M 30216M 30234M
                                                 30243M 30244M 30251  30266M 30284M 30293M 30294M 30301  30316M 30334M
                                                 30343M 30381M 30399M 30430M 30439M 30440M 30447  30462M 30480M 30489M
                                                 30490M 30497  30512M 30530M 30539M 30577M 30595M 30626M 30635M 30636M
                                                 30643  30658M 30676M 30685M 30686M 30693  30708M 30726M 30735M 30773M
                                                 30791M 30815M 30815  30926M 30930M 30939M 30939  30946  30994M 30994
                                                 31051M 31086M 31104M 31140M 31148M 31183M 31201M 31219M 31244M 31264M
                                                 31287M 31295M 31330M 31348M 31383M 31412M 31436M 31436  31596M 31597M
                                                 31597  31615M 31637M 31646M 31646  31652M 31661M 31661  31667M 31668M
                                                 31670M 31671  31683M 31683  31684  31779M 31779  31780M 31796U 31859M
                                                 31859  31920  31983M 32011M 32060M 32084M 32102M 32160M 32188M 32206M
                                                 32254M 32282M 32300M 32328M 32346M 32385M 32424M 32445M 32463M 32502M
                                                 32551M 32589M 32632M 32728M 32828M 32887M 32925M 32949M 32949  33058M
                                                 33058  33059M 33075U 33138M 33138  33244M 33276M 33295M 33323M 33341M
                                                 33369M 33388M 33393M 33434M 33452M 33480M 33505M 33534M 33534  33671M
                                                 33671  33672M 33688U 33847M 33865M 33886M 33904M 33925M 33943M 33968M
                                                 33987M 34008M 34026M 34047M 34065M 34090M 34102M 34162M 34184M 34242M
                                                 34279M 34279  34377M 34425M 34525M 34569M 34595M 34623M 34641M 34669M
                                                 34713M 34735M 34761M 34789M 34825M 34853M 34875M 34903M 34925M 34953M
                                                 34983M 35009M 35009  35218M 35218  35318M 35318  35319M 35335U 35396M
                                                 35396  35468M 35468  35559M 35582M 35582  35685M 35723M 35761M 35799M
                                                 35837M 35875M 35905M 35929M 35929  36150M 36150  36221M 36255M 36293M
                                                 36331M 36353M 36386M 36396M 36424M 36498M 36532M 36599M 36642M 36659M
                                                 36686M 36729M 36750M 36787M 36815M 36832M 36858M 36885M 36903M 36938M
                                                 36965M 36982M 37016M 37083M 37147M 37170M 37202M 37251M 37293M 37310M
                                                 37337M 37380M 37401M 37441M 37468M 37548M 37615M 37633M 37659M 37708M
                                                 37726M 37748M 37784M 37795M 37799M 37808M 37808  37815  37843M 37852M
                                                 37852  37913M 37913  37914M 37954M 37954  38021  38065M 38096M 38114M
                                                 38142M 38160M 38188M 38206M 38225M 38230M 38248M 38300M 38318M 38357M
                                                 38408M 38448M 38483M 38524M 38555M 38573M 38601M 38619M 38647M 38665M
                                                 38684M 38689M 38714M 38740M 38771M 38789M 38817M 38835M 38863M 38881M
                                                 38886M 38911M 38936M 38936  39030  39058M 39086M 39105M 39153M 39192M
                                                 39201M 39239M 39272M 39310M 39310  39500  39527M 39527  39528  39536M
                                                 39536  39537  39565  39585  39611M 39620M 39620  39626M 39635M 39635
                                                 39641M 39642M 39644M 39645  39657M 39657  39658  39781  39801  40057M
                                                 40081M 40081  40182M 40182  40405M 40424M 40424  40466M 40485M 40485
                                                 40551M 40551  40617M 40617  40683M 40683  40750M 40750  40816M 40816
                                                 40883M 40883  40949M 40949  41016M 41016  41083M 41083  41203M 41271M
                                                 41272  41292M 41293  41321M 41321  41373M 41374  41394M 41395  41423M
                                                 41423  41463  41484  41496M 41496  41524M 41524  41749M 41768M 41768
1TOPS     (TOPS2025) (12:57) (15MAR04) Ordinary Symbol and Literal Cross Reference                                          Page  179
                                                 41884M 41903M 41903  41984M 42003M 42003  42077M 42081M 42090M 42090
                                                 42097  42118M 42137M 42137  42188M 42207M 42207  42266M 42326M 42330M
                                                 42339M 42339  42346  42370M 42389M 42389  42554  42657M 42816M 42834M
                                                 42856M 42938M 42956M 42963M 43035M 43072M 43072  43113M 43113  43114M
                                                 43154M 43225M 43245M 43429M 43459M 43492M 43567M 43624M 43653M 43664M
                                                 43665M 43666  43680M 43680  43683M 43708M 43708  43858M 43858  43948M
                                                 44053M 44144M 44171M 44171  44202M 44241M 44241  44340M 44368M 44473M
                                                 44660M 44687M 44687  44719M 44758M 44758  44857M 44885M 44985M 45031M
                                                 45071M 45107M 45152M 45170M 45200M 45398M 45425M 45425  45457M 45496M
                                                 45496  45632  45666M 45777M 45802M 45820M 45845M 45863M 45889M 45907M
                                                 45942M 45964M 45982M 46021M 46042M 46060M 46090M 46137M 46164M 46189M
                                                 46223M 46253M 46278M 46278  46357  46405M 46423M 46465M 46526M 46587M
                                                 46621M 46654M 46663M 46698M 46732M 46741M 46776M 46794M 46833M 46871M
                                                 46909M 46947M 46985M 47023M 47061M 47100M 47172M 47210M 47226M 47226
                                                 47245M 47245  47331M 47369M 47406M 47436M 47457M 47535M 47571M 47619M
                                                 47637M 47665M 47725M 47734M 47773M 48019M 48166M 48247M 48291M 48309M
                                                 48337M 48377M 48405M 48423M 48473M 48508M 48536M 48594M 48633M 48642M
                                                 48642  48661M 48661  48868M 48929M 49106M 49116M 49144M 49171M 49189M
                                                 49255M 49279M 49279
 R2            2 00000002 FFFFFFFF A   #     725  8945M  8963   9353M  9354   9674M  9675M  9675   9791M  9807   9808M
                                                  9821  12811M 12853  12854  12886  12895  17101M 17191  21364M 21381
                                                 21893M 21894M 22069M 22078  22238M 22446  22743M 22743  22758  22785M
                                                 23014M 23032  25610M 25671M 25684M 25684  26912M 26914  29298M 29606M
                                                 31210M 33727M 33737U 34411M 34431  34503M 34517  34680M 34693  34723
                                                 36444M 36444  36463M 36471M 36471  36480M 36480  36697M 36710  36738
                                                 37348M 37361  37389  37698M 37736  37794M 38362M 38363M 38363  38373U
                                                 41278  41280M 41287M 41299  41301M 41308M 41380  41382M 41389M 41401
                                                 41403M 41410M 44176M 44187  44692M 44704  45052M 45071  45430M 45442
                                                 46146M 47515M 47551  47676M 47705  47734  48877M 48877  48894M 48942M
                                                 48942  49063M 49063  49080M 49203M 49203
 R3            3 00000003 FFFFFFFF A   #     738  8928M  8939M  8939   8952   8963M  9361M  9444   9455M  9790M 22327M
                                                 22512  22744M 22784M 22997M 23008M 23008  23021  23032M 23696M 23708M
                                                 23709M 23709  25609M 25669M 26875M 26915  26976M 27908M 27934M 27992
                                                 29305M 29305  29613M 29613  31217M 31217  34410M 34430  34450  34498
                                                 34500  34502M 34512  34532M 34556  37107M 37107  37152M 37183M 37183
                                                 37422M 37422  39113M 39113  39158M 39172M 39172  39252M 39252  41166M
                                                 41178  41220  41490M 41491M 41491  41492  46147M
 R4            4 00000004 FFFFFFFF A   #     751  8901M  8991   9362M  9454M 22416M 22443M 22443  22444M 22445M 22463M
                                                 22463  22529M 22529  22933M 22934M 22934  22955U 23049  23663M 26296M
                                                 26633M 26654M 26654  26683  26874M 26888M 26888  26979M 27056U 27759M
                                                 27772M 27772  27844M 27932M 27947M 27947  27996M 28039M 28040  34430M
                                                 34431M 34439M 34450  34497M 34498M 34502  34503  34541M 34541  34561
                                                 36182M 37573  37651  37891  38021M 38029U 41220M 41231U 43962M 43963M
                                                 43963  43971U 44382M 44383M 44383  44391U 44899M 44900M 44900  44908U
 R5            5 00000005 FFFFFFFF A   #     764  8867M  8882M  8882   8897U  8980   8991M  9088M  9096U 15493M 15616M
                                                 22442M 22444  22452  22518  22697M 22910M 22923M 23071  23080M 23080
                                                 23095U 25878M 26129M 26295M 26487M 26588  26615M 26662M 26662  26675
                                                 26681  26682  26728  26729M 26873M 26977M 27300  27318M 27321  27321M
                                                 27758M 27842M 27931M 27994M 31920M 31930U 32127U 32840M 32841M 32842M
                                                 32852U 34344M 34352U 36181M 37572  37646  37886  38011M 38019U 39030M
                                                 39040U 39500M 39508U 40057  42586M 42587M 42587  42597U 43909M 43919U
                                                 44301M 44311U 44818M 44828U 45632M 45640U 46357M 46365U
 R6            6 00000006 FFFFFFFF A   #     777  8499M  8500   9077M  9085U 15475M 15483U 22698M 22719U 22733M 22734M
                                                 22734  22777  26294M 26294  26342M 26342  26559  26588  26589M 26663M
                                                 26675  27271  27317  27319M 27321  27676M 27713M 27713  27738M 27738
                                                 27798  27862M 27862  27919M 27919  28261M 28269U 28674M 28683U 28998M
                                                 29007U 31037M 31045U 31909M 31917U 33218M 33226U 33637M 33638  33646U
                                                 34334M 34342U 35450M 35458U 35639M 35647U 36118M 36119  38001M 38009U
                                                 42554M 42562U 45622M 45630U 46347M 46355U 47315M 47323U
1TOPS     (TOPS2025) (12:57) (15MAR04) Ordinary Symbol and Literal Cross Reference                                          Page  180
 R7            7 00000007 FFFFFFFF A   #     790  2089M  2089   2090B  2102B
 R8            8 00000008 FFFFFFFF A   #     803  8484U 13875U 14479U 15470U 22898U 25866U 26253U 30879U 31581U 33030U
                                                 33214U 33633U 35169U 36104U 39026U 39496U 41162U 42541U 48834U
 SAMINIT       1 00000000 0000002A     T   15863 15863  22616  23844
 SAMPARMS      1 00000000 00000029     T   15860 15860  23845
 SBSNAME       8 00000000 FFFFFFDE     C   13817 13965  13972  13988  14014  14040  14070  14104  14109  14138  14164
                                                 14169  14281
 SBSWA         8 00000000 FFFFFFDE     J   13824 13846  13875U 14402  14404  14405
 SCANCHK       1 00000000 00000008     T   13166 13166  15001  15856  17583  22618  28101  39324  42418
 SCDQUOTE      1 00000000 00000015     T   13187 13187
 SCNNOOP       1 00000000 0000002C     T   16238 16238
 SCUPCASE      1 00000000 0000001C     T   15002 15002  42437
 SDSNQSZ       1 0000002C FFFFFFEC A   U    6077  6078   6079
 SDSNTERM      1 00000003 00000001 A   U    6305  8645
 SEG           1 00000000 00000003     T   13161 13161  15004  15858  23848  25773  28106  31461  35040  39338  42426
                                                 45524  48688  49291
 SEGB          1 00000000 00000026     T   15853 15853  17587  25775  28109  31463  35045  39331  45537  48684  49295
 SEGCLR        1 00000000 00000027     T   15857 15857  23852  39342  49290
 SEGCOL        1 00000000 00000043     T   35048 35048  48704
 SEGCR         1 00000000 00000002     T   13159 13159  17589  25772  31467  35049  45534  48691
 SEGDC         1 00000000 00000035     T   25780 25780  31466  35043  39341  48689
 SEGHX         1 00000000 00000041     T   31477 31477
 SEGINIT       1 00000000 00000044     T   39335 39335
 SEGMARK       1 00000000 00000032     T   23853 23853
 SEGT          1 00000000 0000001D     T   15005 15005  35046  39339  48705
 SEGTB         1 00000000 0000001F     T   15007 15007  25776  39348
 SEGWR         1 00000000 00000017     T   13190 13190  15850  23849  28110  31472  35041  39333  45528  48694
 SENDDOT       1 00000014 FFFFFFD0     C   48755 48848M
 SENDGRP       2 00000012 FFFFFFD0     C   48754 48847M
 SENDHDR      24 00000000 FFFFFFD0     X   48757 48916  48921
 SENDID        4 00000000 FFFFFFD0     F   48751 48757  48757  48762  48762  49001M 49221
 SENDINIT     34 00000000 FFFFFFD0     X   48762 48844M 48844
 SENDLP        4 00008D66 00000001     I   48868 49044B
 SENDMSG       2 00008D2C 00000001     H   48792 48788
 SENDNO        2 00000004 FFFFFFD0     H   48752 49002M
 SENDPTRS      4 00000018 FFFFFFD0     A   48759 48846M 49151
 SENDRC        2 00000020 FFFFFFD0     H   48760 48851M 49032M 49032  49039M 49244M 49244  49255
 SENDUSER      3 00000015 FFFFFFD0     C   48756 48849M
 SENDWA       34 00000000 FFFFFFD0     J   48769 48805  48834U 49275  49277  49278
 SETLINE       2 000042C6 00000001     H   25824 25820
 SETMIL        2 00001932 00000001     H   15040 15036
 SETNLP        4 000042F8 00000001     I   25881 26129B
 SETSKIP       1 00000000 00000049     T   42428 42428
 SETSTOP       1 00000000 0000004A     T   42429 42429
 SETTABS       2 0000441C 00000001     H   26211 26207
 SETTBA        2 00004808 00000001     H   27351 27105
 SETTBC        2 000045C4 00000001     H   26774 26376B
 SETTBN        2 0000477C 00000001     H   27156 27090
 SETTBP        2 000047AE 00000001     H   27225 27075  28119
 SETTBPRT      4 0000468C 00000001     F   27063 28108
 SETTERM       2 00001A42 00000001     H   15428 15424  15847
 SETTLP        4 00001A78 00000001     I   15496 15616B
 SETTOLD       8 00000000 FFFFFFDC     C   22832 22908M 22908  22959M 23642
 SETTTYPE      2 000039D8 00000001     H   22856 15862  17591  22852  23847
 SETTTYPE      1 00000000 0000002E     T   17593 17593
 SETTWA        8 00000000 FFFFFFDC     J   22839 22869  22898U 23826  23828  23829
 SETWTERM      2 00000018 00000001     H    8442  8438
 SETXEXIT      2 00003C3E 00000001     H   23809 23231B 23322B
 SHLIRNG     666 00000000 FFFFFFD9     X   32972 33059
1TOPS     (TOPS2025) (12:57) (15MAR04) Ordinary Symbol and Literal Cross Reference                                          Page  181
 SHLIWA      666 00000000 FFFFFFD9     J   32979 33001  33030U 33040M 33040  33041M 33041  33042M 33042  33134  33136
                                                 33137
 SHOWCASE      2 000019E6 00000001     H   15301 15297
 SHOWCNT       2 000053F6 00000001     H   30837 30833
 SHOWIDLE      2 00004C4C 00000001     H   28154 28150
 SHOWILIN      2 00005B48 00000001     H   32988 32984
 SHOWLINE      2 00005792 00000001     H   31539 31535
 SHOWMIL       2 00001996 00000001     H   15186 15182
 SHOWMINF      2 00004E24 00000001     H   28852 28848
 SHOWMVER      2 00004D94 00000001     H   28620 28616
 SHOWPRIV      2 000061A8 00000001     H   35127 35123
 SHOWTABS      2 00004834 00000001     H   27431 27427
 SHOWTERM      2 00003CDA 00000001     H   23877 15851  23873
 SHOWUSRS      2 00005CB8 00000001     H   33591 33587
 SHTABPRT      4 000048C0 00000001     F   27531 28121
 SHUFLAG       1 00000000 FFFFFFD7     R   33563 33567
 SHUFUSER    128 00000000 FFFFFFD7        33567 33809M
 SHUID         2 00000001 FFFFFFD7     C   33571 33782M 33783M 33803M 34199M 34199  34213  34218
 SHURNG      666 00000017 FFFFFFD7     X   33575 33672  34102
 SHUWA       689 00000000 FFFFFFD7     J   33582 33604  33633U 33637  33646U 33654M 33654  33655M 33655  33656M 33656
                                                 34275  34277  34278  34342U
 SHWLRNG     666 00000000 FFFFFFDA     X   31523 31591M 31591  31592M 31592  31593M 31593  31780
 SHWLWA      666 00000000 FFFFFFDA     J   31530 31552  31581U 31855  31857  31858
 SHWPRNG     666 00000000 FFFFFFD6     X   35110 35319
 SHWPWA      666 00000000 FFFFFFD6     J   35117 35140  35169U 35179M 35179  35180M 35180  35181M 35181  35392  35394
                                                 35395
 SHWUID       20 00000003 FFFFFFD7     C   33573 34386  34391  34776  34781  34840  34845  34890  34895  34940  34945
 SIB         254 00000000 FFFFFFE2     X    8209  8381  15441  15470U 15474M 15475  15483U 15615M 15624  15832  15834
                                                 15835  25837  25866U 25870M 26128M 26136  26157  26159  26160  28269U
                                                 31917U 32112  33226U 34352U 35458U 35647U 35650  38019U 38230  38689
                                                 38886  39040U 44828U 45260U 47323U 48996U
 SIBACCT       5 00000070 FFFFFFE2     C    7808  7971   7971  33393  34365M 34365  34377  39201  47387M 47387  47457
 SIBANO        2 00000075 FFFFFFE2     X    7811 34680  47676
 SIBCHAR       8 000000BA FFFFFFE2     C    8151 19968M 20037M 20049
 SIBCRI        2 000000F0 FFFFFFE2     H    8198  8203   8203  20624M 21377M 21394M 21697M
 SIBFADM       2 0000007A FFFFFFE2         7931 35532  35817
 SIBFAPR      64 0000007A FFFFFFE2         7906 35478  35665
 SIBFBACK     64 000000B4 FFFFFFE2         8095 18711M 18778M 19962M 20063  20063  20064M
 SIBFDET      64 00000043 FFFFFFE2         7630 47979
 SIBFDIAL    128 00000040 FFFFFFE2         7550 45324
 SIBFDIR      32 00000040 FFFFFFE2         7560 45356
 SIBFDISP      4 000000AA FFFFFFE2         8049 32747
 SIBFDOWN    128 00000044 FFFFFFE2         7645 47951
 SIBFDSC     128 0000004B FFFFFFE2         7756 47884
 SIBFE         8 00000008 FFFFFFE2     C    7538 48182M 48182  48278  48283  48460  48465
 SIBFERA      64 000000B5 FFFFFFE2         8140 18977M 19044M
 SIBFEVEN     64 000000D2 FFFFFFE2         8165 20705  20705  20707  20707  20788  20788  20790  20790  20792  20792
                                                 20862  20862  20951  20951  20952M 21030  21030  21031M
 SIBFFAST     32 000000B4 FFFFFFE2         8100 18047M 18113M
 SIBFFILT      2 000000B4 FFFFFFE2         8120 18578M 18645M
 SIBFHU       64 00000044 FFFFFFE2         7650 47908
 SIBFKEEP     64 000000AB FFFFFFE2         8074 19807M 19874M 32655
 SIBFKEPT      2 0000004B FFFFFFE2         7786 32679  47845  48574
 SIBFL         1 00000040 FFFFFFE2     R    7546  7550   7555   7560   7565   7570
 SIBFLEAS    128 00000041 FFFFFFE2         7580 45388
 SIBFLG        1 000000B4 FFFFFFE2     R    8086  8090   8095   8100   8105   8110   8115   8120   8125
 SIBFLGF      64 0000004B FFFFFFE2         7761 47860
 SIBFLG2       1 000000B5 FFFFFFE2     R    8131  8135   8140   8145
 SIBFL2        1 00000041 FFFFFFE2     R    7576  7580   7585   7590   7595
1TOPS     (TOPS2025) (12:57) (15MAR04) Ordinary Symbol and Literal Cross Reference                                          Page  182
 SIBFL3        1 00000042 FFFFFFE2     R    7601  7605   7610   7615
 SIBFL4        1 00000043 FFFFFFE2     R    7621  7625   7630   7635
 SIBFL5        1 00000044 FFFFFFE2     R    7641  7645   7650   7655
 SIBFMARK     16 000000D2 FFFFFFE2         8175 20706  20706  20707  20707  20791  20791  20792  20792  20793  20793
                                                 20872  20872  20951  20951  21020  21020
 SIBFNBRK     32 000000AA FFFFFFE2         8034 17648M 17714M 32569
 SIBFNCOM     64 000000AA FFFFFFE2         8029 17781M 17847M 32531  38045  38045  49015  49015
 SIBFNECH      1 000000B4 FFFFFFE2         8125 18312M 18379M
 SIBFNMSG    128 000000AA FFFFFFE2         8024 17914M 17980M 32482  38045  38045  38046  38266  49015  49015  49016
 SIBFNTIM     16 000000AA FFFFFFE2         8039 19541M 19608M
 SIBFNTYP     32 000000B5 FFFFFFE2         8145 18446M 18512M
 SIBFODD      32 000000D2 FFFFFFE2         8170 20715M 20789  20789  20790  20790  20793  20793  20872  20872  20873M
                                                 20941  20941  21030  21030
 SIBFOPR      16 0000007A FFFFFFE2         7916 35514  35741
 SIBFPAR     128 000000D2 FFFFFFE2         8160 20705  20705  20706  20706  20708M 20788  20788  20789  20789  20791
                                                 20791  20794M 20862  20862  20863M 20941  20941  20942M 21020  21020
                                                 21021M
 SIBFPC        1 0000007A FFFFFFE2         7936 35550  35855
 SIBFPSP       8 000000B4 FFFFFFE2         8110 19408M 19475M
 SIBFQUIET
               8 000000D2 FFFFFFE2         8180 21097M 21164M
 SIBFSAM      64 000000A6 FFFFFFE2         7992 19259M 19342M
 SIBFSBM       8 0000007A FFFFFFE2         7921 35779
 SIBFSPR      32 0000007A FFFFFFE2         7911 35496  35703
 SIBFSTOP    128 00000043 FFFFFFE2         7625 47932
 SIBFTRC     128 000000AB FFFFFFE2         8069 19674M 19741M 32612
 SIBFUPL     128 000000B4 FFFFFFE2         8090 18845M 18911M 20063  20063
 SIBFVFAST
             128 000000A8 FFFFFFE2         8009 18180M 18246M
 SIBFXON       4 000000B4 FFFFFFE2         8115 19110M 19177M
 SIBGRP        2 00000073 FFFFFFE2     C    7810 33310  33315  34610  34615  38129  38134  38588  38593  38804  38809
                                                 47606  47611
 SIBHEI        2 000000D8 FFFFFFE2     H    8186 17268M 17540M 20271M
 SIBHEIP       2 000000D6 FFFFFFE2     H    8185 20194M 20421M 20421
 SIBHTI        2 000000F6 FFFFFFE2     H    8200 20554M 21379M 21395M 21828M
 SIBID         4 00000000 FFFFFFE2     F    7533 38495  44844  44849  45432  49001
 SIBIDLE      14 000000F0 FFFFFFE2     X    8203 21359M 21359  21631M 21631
 SIBKAFL       1 0000007B FFFFFFE2     R    7942  7946   7951   7956   7961   7966
 SIBKIFL       1 0000007A FFFFFFE2     R    7897  7901   7906   7911   7916   7921   7926   7931   7936
 SIBLFI        2 000000F4 FFFFFFE2     H    8199 20631M 20631  21378M 21762M
 SIBNAME      20 00000082 FFFFFFE2     C    7978 25956M 26003M 26030M 26047  26060M 26060  28104  33467  33472  39124M
                                                 39124  39140  39145  47800  47805  47816M 47816
 SIBNMSG       2 0000004C FFFFFFE2     H    7790 32405M 32405  32433
 SIBNO         2 00000004 FFFFFFE2     H    7534 32840  33260  38080  38539  38755  39073  44872  44877  45433  47331
                                                 49002
 SIBOFLAG      1 000000D2 FFFFFFE2     R    8156  8160   8165   8170   8175   8180
 SIBOPST       4 00000080 FFFFFFE2     F    7976  8205   8205
 SIBOPT      126 00000080 FFFFFFE2     X    8205 15573  15578  26086  26091
 SIBPINFO     20 00000018 FFFFFFE2     C    7541 48217M 48217  48234  48239
 SIBPLOC      20 0000002C FFFFFFE2     C    7542 48357M 48357  48392  48397
 SIBPORT       8 00000010 FFFFFFE2     C    7540  7660   7660  48324  48329  48488M 48488  48523  48528
 SIBQFLG       1 000000A8 FFFFFFE2     R    8005  8009
 SIBSFLG       1 00000077 FFFFFFE2     R    7815  7819   7824   7829   7834   7839   7844
 SIBSFOP      16 00000077 FFFFFFE2         7834 32365
 SIBSTART      4 00000000 FFFFFFE2     F    7532  7536   7536   7972   7972   8077   8077   8209   8209
 SIBSTAT       1 0000004B FFFFFFE2     R    7752  7756   7761   7766   7771   7776   7781   7786
 SIBSUB        8 00000050 FFFFFFE2     C    7795 32269  32274  32768  32794  48050M 48050  48065  48070  48086
 SIBTACF       1 00000078 FFFFFFE2     R    7850  7854   7859   7864   7869   7874   7879   7884   7889
 SIBTCLS       8 0000009E FFFFFFE2     C    7980 17266M 17538M 19244M 19244  19326M 19326
1TOPS     (TOPS2025) (12:57) (15MAR04) Ordinary Symbol and Literal Cross Reference                                          Page  183
 SIBTCONS      1 00000048 FFFFFFE2         7674 38338  38463  40997
 SIBTELF       7 00000048 FFFFFFE2         7734 48201
 SIBTETYP      1 0000004E FFFFFFE2     C    7792 32175  32180
 SIBTFLAG      1 000000A6 FFFFFFE2     R    7983  7987   7992   7997  17267M 17539M
 SIBTID        8 00000096 FFFFFFE2     C    7979 17338M 17351  17364M 17364  17407  17449  17472
 SIBTMINC      2 00000006 FFFFFFE2     H    7535 32069
 SIBTTYPE      8 000000DA FFFFFFE2     C    8188 17265M 17537M 19249M 19249  19331M 19331
 SIBTVIRT      5 00000048 FFFFFFE2         7714 41064
 SIBTYPE       1 00000048 FFFFFFE2     R    7665  7674   7684   7694   7704   7714   7724   7734   7744  45292
 SIBUC         2 00000080 FFFFFFE2     H    7977 15547  15548M 17264M 17536M 26074  26075M
 SIBUFLG       1 000000AA FFFFFFE2     R    8020  8024   8029   8034   8039   8044   8049   8054   8059
 SIBUFLG2      1 000000AB FFFFFFE2     R    8065  8069   8074
 SIBUSER       3 00000070 FFFFFFE2     C    7809 33356  33361  34656  34661  38175  38180  38634  38639  38850  38855
                                                 47652  47657
 SIBVPGM       8 00000058 FFFFFFE2     C    7798  7804   7804  32315  32320  48104M 48104  48118  48133  48138
 SIBWID        2 000000D4 FFFFFFE2     H    8184 17269M 17541M 20133M
 SIB1ST        4 00000048 FFFFFFE2     F    7662  8207   8207
 SINITQT       4 0000000C FFFFFFDF     A    8411  9354M  9797   9799M
 SPR          13 0000000D 00000001 A   #    1112  8449   8452   8454   8455M  8455   9019M  9023   9025   9048   9051
                                                  9052   9053M  9053   9247M  9251   9253   9269   9272   9273   9274M
                                                  9274   9477M  9481   9483   9499   9502   9503   9504M  9504   9621M
                                                  9625   9627   9643   9646   9647   9648M  9648   9852M  9856   9858
                                                  9873   9876   9877   9878M  9878   9913M  9917   9919   9934   9937
                                                  9938   9939M  9939  10158M 10162  10164  10179  10182  10183  10184M
                                                 10184  10224M 10228  10230  10245  10248  10249  10250M 10250  10291M
                                                 10295  10297  10312  10315  10316  10317M 10317  10357M 10361  10363
                                                 10378  10381  10382  10383M 10383  10423M 10427  10429  10444  10447
                                                 10448  10449M 10449  10490M 10494  10496  10511  10514  10515  10516M
                                                 10516  10563M 10567  10569  10584  10587  10588  10589M 10589  10636M
                                                 10640  10642  10657  10660  10661  10662M 10662  10706M 10710  10712
                                                 10727  10730  10731  10732M 10732  10793M 10797  10799  10814  10817
                                                 10818  10819M 10819  10880M 10884  10886  10901  10904  10905  10906M
                                                 10906  10967M 10971  10973  10988  10991  10992  10993M 10993  11054M
                                                 11058  11060  11075  11078  11079  11080M 11080  11141M 11145  11147
                                                 11162  11165  11166  11167M 11167  11228M 11232  11234  11249  11252
                                                 11253  11254M 11254  11315M 11319  11321  11336  11339  11340  11341M
                                                 11341  11402M 11406  11408  11423  11426  11427  11428M 11428  11489M
                                                 11493  11495  11510  11513  11514  11515M 11515  11576M 11580  11582
                                                 11597  11600  11601  11602M 11602  11663M 11667  11669  11684  11687
                                                 11688  11689M 11689  11750M 11754  11756  11771  11774  11775  11776M
                                                 11776  11837M 11841  11843  11858  11861  11862  11863M 11863  11903M
                                                 11907  11909  11924  11927  11928  11929M 11929  11990M 11994  11996
                                                 12011  12014  12015  12016M 12016  12077M 12081  12083  12098  12101
                                                 12102  12103M 12103  12164M 12168  12170  12185  12188  12189  12190M
                                                 12190  12251M 12255  12257  12272  12275  12276  12277M 12277  12338M
                                                 12342  12344  12359  12362  12363  12364M 12364  12425M 12429  12431
                                                 12446  12449  12450  12451M 12451  12512M 12516  12518  12533  12536
                                                 12537  12538M 12538  12578M 12582  12584  12599  12602  12603  12604M
                                                 12604  12665M 12669  12671  12686  12689  12690  12691M 12691  12752M
                                                 12756  12758  12776  12779  12780  12781M 12781  12914M 12918  12920
                                                 12935  12938  12939  12940M 12940  12975M 12979  12981  12996  12999
                                                 13000  13001M 13001  13124M 13128  13130  13840  13843  13845  13846M
                                                 13846  14398M 14402  14404  14444  14447  14449  14450M 14450  14978M
                                                 14982  14984  15046  15049  15050  15051M 15051  15162M 15166  15168
                                                 15192  15195  15196  15197M 15197  15280M 15284  15286  15307  15310
                                                 15311  15312M 15312  15408M 15412  15414  15435  15438  15440  15441M
                                                 15441  15828M 15832  15834  16850  16853  16854  16855M 16855  16896M
                                                 16900  16902  16917  16920  16921  16922M 16922  16956M 16960  16962
                                                 16977  16980  16981  16982M 16982  17284M 17288  17290  17305  17308
1TOPS     (TOPS2025) (12:57) (15MAR04) Ordinary Symbol and Literal Cross Reference                                          Page  184
                                                 17309  17310M 17310  17560M 17564  17566  17613  17616  17617  17618M
                                                 17618  17659M 17663  17665  17680  17683  17684  17685M 17685  17725M
                                                 17729  17731  17746  17749  17750  17751M 17751  17792M 17796  17798
                                                 17813  17816  17817  17818M 17818  17858M 17862  17864  17879  17882
                                                 17883  17884M 17884  17925M 17929  17931  17946  17949  17950  17951M
                                                 17951  17991M 17995  17997  18012  18015  18016  18017M 18017  18058M
                                                 18062  18064  18079  18082  18083  18084M 18084  18124M 18128  18130
                                                 18145  18148  18149  18150M 18150  18191M 18195  18197  18212  18215
                                                 18216  18217M 18217  18257M 18261  18263  18278  18281  18282  18283M
                                                 18283  18323M 18327  18329  18344  18347  18348  18349M 18349  18390M
                                                 18394  18396  18411  18414  18415  18416M 18416  18457M 18461  18463
                                                 18478  18481  18482  18483M 18483  18523M 18527  18529  18544  18547
                                                 18548  18549M 18549  18589M 18593  18595  18610  18613  18614  18615M
                                                 18615  18656M 18660  18662  18677  18680  18681  18682M 18682  18722M
                                                 18726  18728  18743  18746  18747  18748M 18748  18789M 18793  18795
                                                 18810  18813  18814  18815M 18815  18856M 18860  18862  18877  18880
                                                 18881  18882M 18882  18922M 18926  18928  18943  18946  18947  18948M
                                                 18948  18988M 18992  18994  19009  19012  19013  19014M 19014  19055M
                                                 19059  19061  19076  19079  19080  19081M 19081  19121M 19125  19127
                                                 19142  19145  19146  19147M 19147  19188M 19192  19194  19209  19212
                                                 19213  19214M 19214  19270M 19274  19276  19291  19294  19295  19296M
                                                 19296  19353M 19357  19359  19374  19377  19378  19379M 19379  19419M
                                                 19423  19425  19440  19443  19444  19445M 19445  19486M 19490  19492
                                                 19507  19510  19511  19512M 19512  19552M 19556  19558  19573  19576
                                                 19577  19578M 19578  19619M 19623  19625  19640  19643  19644  19645M
                                                 19645  19685M 19689  19691  19706  19709  19710  19711M 19711  19752M
                                                 19756  19758  19773  19776  19777  19778M 19778  19818M 19822  19824
                                                 19839  19842  19843  19844M 19844  19885M 19889  19891  19906  19909
                                                 19910  19911M 19911  19983M 19987  19989  20004  20007  20008  20009M
                                                 20009  20083M 20087  20089  20104  20107  20108  20109M 20109  20144M
                                                 20148  20150  20165  20168  20169  20170M 20170  20365M 20369  20371
                                                 20386  20389  20390  20391M 20391  20432M 20436  20438  20453  20456
                                                 20457  20458M 20458  20499M 20503  20505  20520  20523  20524  20525M
                                                 20525  20569M 20573  20575  20590  20593  20594  20595M 20595  20646M
                                                 20650  20652  20667  20670  20671  20672M 20672  20726M 20730  20732
                                                 20747  20750  20751  20752M 20752  20805M 20809  20811  20826  20829
                                                 20830  20831M 20831  20884M 20888  20890  20905  20908  20909  20910M
                                                 20910  20963M 20967  20969  20984  20987  20988  20989M 20989  21042M
                                                 21046  21048  21063  21066  21067  21068M 21068  21108M 21112  21114
                                                 21129  21132  21133  21134M 21134  21175M 21179  21181  21196  21199
                                                 21200  21201M 21201  21276M 21280  21282  21297  21300  21301  21302M
                                                 21302  21407M 21411  21413  21428  21431  21432  21433M 21433  21529M
                                                 21533  21535  21596  21599  21600  21601M 21601  21642M 21646  21648
                                                 21663  21666  21667  21668M 21668  21712M 21716  21718  21733  21736
                                                 21737  21738M 21738  21773M 21777  21779  21794  21797  21798  21799M
                                                 21799  21843M 21847  21849  21864  21867  21868  21869M 21869  22089M
                                                 22093  22095  22121  22124  22125  22126M 22126  22589M 22593  22595
                                                 22668  22671  22672  22673M 22673  22813M 22817  22819  22863  22866
                                                 22868  22869M 22869  23822M 23826  23828  23883  23886  23887  23888M
                                                 23888  23932M 23936  23938  23954  23957  23958  23959M 23959  25509M
                                                 25513  25515  25530  25533  25534  25535M 25535  25750M 25754  25756
                                                 25831  25834  25836  25837M 25837  26153M 26157  26159  26218  26221
                                                 26223  26224M 26224  27037M 27041  27043  27162  27165  27166  27167M
                                                 27167  27210M 27214  27216  27231  27234  27235  27236M 27236  27336M
                                                 27340  27342  27357  27360  27361  27362M 27362  27402M 27406  27408
                                                 27437  27440  27441  27442M 27442  27518M 27522  27524  27606  27609
                                                 27610  27611M 27611  28080M 28084  28086  28160  28163  28164  28165M
                                                 28165  28210M 28214  28216  28232  28235  28236  28237M 28237  28591M
                                                 28595  28597  28626  28629  28630  28631M 28631  28822M 28826  28828
1TOPS     (TOPS2025) (12:57) (15MAR04) Ordinary Symbol and Literal Cross Reference                                          Page  185
                                                 28858  28861  28862  28863M 28863  28907M 28911  28913  28929  28932
                                                 28933  28934M 28934  30807M 30811  30813  30844  30847  30849  30850M
                                                 30850  30986M 30990  30992  31008  31011  31012  31013M 31013  31428M
                                                 31432  31434  31546  31549  31551  31552M 31552  31851M 31855  31857
                                                 31880  31883  31884  31885M 31885  32941M 32945  32947  32995  32998
                                                 33000  33001M 33001  33130M 33134  33136  33179  33182  33184  33185M
                                                 33185  33526M 33530  33532  33598  33601  33603  33604M 33604  34271M
                                                 34275  34277  34305  34308  34309  34310M 34310  35001M 35005  35007
                                                 35134  35137  35139  35140M 35140  35388M 35392  35394  35421  35424
                                                 35425  35426M 35426  35574M 35578  35580  35610  35613  35614  35615M
                                                 35615  35921M 35925  35927  36069  36072  36074  36075M 36075  37946M
                                                 37950  37952  37972  37975  37976  37977M 37977  38928M 38932  38934
                                                 38991  38994  38996  38997M 38997  39302M 39306  39308  39461  39464
                                                 39466  39467M 39467  40073M 40077  40079  40128  40131  40132  40133M
                                                 40133  40174M 40178  40180  40376  40379  40380  40381M 40381  40416M
                                                 40420  40422  40437  40440  40441  40442M 40442  40477M 40481  40483
                                                 40498  40501  40502  40503M 40503  40543M 40547  40549  40564  40567
                                                 40568  40569M 40569  40609M 40613  40615  40630  40633  40634  40635M
                                                 40635  40675M 40679  40681  40696  40699  40700  40701M 40701  40742M
                                                 40746  40748  40763  40766  40767  40768M 40768  40808M 40812  40814
                                                 40829  40832  40833  40834M 40834  40875M 40879  40881  40896  40899
                                                 40900  40901M 40901  40941M 40945  40947  40962  40965  40966  40967M
                                                 40967  41008M 41012  41014  41029  41032  41033  41034M 41034  41075M
                                                 41079  41081  41127  41130  41132  41133M 41133  41516M 41520  41522
                                                 41720  41723  41724  41725M 41725  41760M 41764  41766  41781  41784
                                                 41785  41786M 41786  41895M 41899  41901  41916  41919  41920  41921M
                                                 41921  41995M 41999  42001  42016  42019  42020  42021M 42021  42129M
                                                 42133  42135  42150  42153  42154  42155M 42155  42199M 42203  42205
                                                 42220  42223  42224  42225M 42225  42381M 42385  42387  42506  42509
                                                 42511  42512M 42512  43700M 43704  43706  43726  43729  43730  43731M
                                                 43731  43850M 43854  43856  43880  43883  43884  43885M 43885  44233M
                                                 44237  44239  44272  44275  44276  44277M 44277  44750M 44754  44756
                                                 44789  44792  44793  44794M 44794  45488M 45492  45494  45593  45596
                                                 45597  45598M 45598  46270M 46274  46276  46318  46321  46322  46323M
                                                 46323  47237M 47241  47243  47286  47289  47290  47291M 47291  48653M
                                                 48657  48659  48799  48802  48804  48805M 48805  49271M 49275  49277
 SSBFLAG       1 00000014 FFFFFFE3     R    7491  7495
 SSBNAME       8 00000004 FFFFFFE3     C    7487  7510   7510
 STTYPE      268 00000010 FFFFFFDF     X    8413  9088  12833
 STYPBACK      2 00000CDE 00000001     H   12680 13772
 STYPBAD       2 00000D80 00000001     H   12929 13802
 STYPBOLD      2 000007D6 00000001     H   10808 13427
 STYPCMD       2 00000CA2 00000001     H   12593 13757
 STYPCOL       2 00000A2E 00000001     H   11678 13667
 STYPCOLM      2 00000BFE 00000001     H   12353 13697
 STYPCOLR      2 00000AA6 00000001     H   11852 13712
 STYPCOLT      2 00000A6A 00000001     H   11765 13682
 STYPDIM       2 0000093E 00000001     H   11330 13607
 STYPEND       2 00000D1A 00000001     H   12770 13787
 STYPERR       2 0000084E 00000001     H   10982 13472
 STYPFMRK      2 00000C76 00000001     H   12527 13742
 STYPHEI       2 0000052C 00000001     H    9867 13277
 STYPIDON      2 0000051E 00000001     H    9841  9833B  9839B
 STYPIERR      4 00000510 00000001     I    9832  9750B  9760B  9783B
 STYPINIT      2 0000043A 00000001     H    9637 13247
 STYPINV       2 00000DAC 00000001     H   12990 13179
 STYPIOK       2 00000518 00000001     H    9836  9831B
 STYPLCOL      2 00000B0E 00000001     H   12005 13532
 STYPLDIM      2 00000B4A 00000001     H   12092 13547
1TOPS     (TOPS2025) (12:57) (15MAR04) Ordinary Symbol and Literal Cross Reference                                          Page  186
 STYPLINE    235 0000011C FFFFFFDF     C    8415  9146M  9170  13176
 STYPLMAR      2 00000B86 00000001     H   12179 13562
 STYPLNEW      2 00000BC2 00000001     H   12266 13577
 STYPLNOR      2 00000AD2 00000001     H   11918 13517
 STYPMARK      2 000008C6 00000001     H   11156 13502
 STYPMOD       2 00000632 00000001     H   10173 13292
 STYPMSG       2 00000812 00000001     H   10895 13442  13457
 STYPNEW       2 0000088A 00000001     H   11069 13487
 STYPNMOD      2 0000065E 00000001     H   10239 13307
 STYPNORM      2 0000079A 00000001     H   10721 13412
 STYPNSAM      2 000006E2 00000001     H   10438 13352
 STYPNSCR      2 0000076E 00000001     H   10651 13397
 STYPOPT       2 00000902 00000001     H   11243 13592
 STYPPF        2 000009B6 00000001     H   11504 13637
 STYPPFHI      2 000009F2 00000001     H   11591 13652
 STYPPRT       4 00000F0C 00000001     F   13205 13177
 STYPQH        4 00000004 FFFFFFDF     A    8408  8756M  8756   8868  12846M 12846  12853M
 STYPQSCR      2 0000073E 00000001     H   10578 13382
 STYPQT        4 00000008 FFFFFFDF     A    8409 12854M 12870  12895M
 STYPRTN       2 000001BE 00000001     H    9042 13171
 STYPSAM       2 000006B6 00000001     H   10372 13337
 STYPSCR       2 0000070E 00000001     H   10505 13367
 STYPSPEL      2 00000C3A 00000001     H   12440 13727
 STYPSTAT      2 0000097A 00000001     H   11417 13622
 STYPTCLS      2 000003AA 00000001     H    9493 13232
 STYPTDON      2 0000039C 00000001     H    9466  9458B  9464B
 STYPTERM      2 00000278 00000001     H    9263 13217
 STYPTERR      4 0000038E 00000001     I    9457  9327B  9339B  9392B  9447B
 STYPTLP       4 00000312 00000001     I    9365  9456B
 STYPTOK       2 00000396 00000001     H    9461  9408B  9427B
 STYPVTAM      2 0000068A 00000001     H   10306 13322
 STYPWA     1031 00000000 FFFFFFDF     J    8424  8455   8484U  8494M  8494   8495M  8495   8496M  8496   8497M  8497
                                                  8498M  8498   8499   9023   9025   9026   9085U
 STYPWID       2 00000558 00000001     H    9928 13262
 SUBSYS        2 0000154C 00000001     H   13833 13829
 SYSCHECK      1 00000000 0000001E     T   15006 15006
 TABFAUTO    128 00000000 FFFFFFDB        26180 26373  26848  27391M
 TABFLAG       1 00000000 FFFFFFDB     R   26176 26180  26185
 TABFTRNC     64 00000000 FFFFFFDB        26185 26571M 26809  27283M
 TABS         16 00000022 FFFFFFDB     X   26191 26728M 26742
 TABSDISP      2 00004AB0 00000001     X   28091 28052
 TABSTOPS      2 00000002 FFFFFFDB     H   26189 26588M 26681  27317M
 TABWA        50 00000000 FFFFFFDB     J   26198 26224  26253U 26263M 26263  26296  27041  27043  27044  27056U
 TASWRITE      1 00000000 00000047     T   39347 39347  49296
 TBACK         2 00002CAA 00000001     H   18671 16208
 TBREAK        2 000029EA 00000001     H   17607 15923
 TCHARS        2 00003030 00000001     H   19998 16493  16508  16523
 TCNTL         1 00000000 00000028     T   15859 15859  28107  31468  45525  49292
 TCOMM         2 00002A42 00000001     H   17740 15953
 TCRI          2 000035AA 00000001     H   21657 16793
 TECHO         2 00002BCE 00000001     H   18338 16073
 TERASE        2 00002D5A 00000001     H   18937 16283
 TERMDISP      2 00003D12 00000001     H   23948 23944  25771
 TERMPRT       4 00001CA4 00000001     F   15881 15854
 TEVEN         2 0000329E 00000001     H   20820 16688
 TFAST         2 00002B1E 00000001     H   18073 16193
 TFILTER       2 00002C52 00000001     H   18538 16163
 THEIGHT       2 000030A2 00000001     H   20159 16583
 THTI          2 0000360A 00000001     H   21788 16823
1TOPS     (TOPS2025) (12:57) (15MAR04) Ordinary Symbol and Literal Cross Reference                                          Page  187
 TID           2 00002846 00000001     H   17299 15908  17586
 TIDLDFLT      2 00003496 00000001     H   21422 21554  21584
 TIDLES        2 00003386 00000001     H   21190 16763
 TIDLLN        2 00003408 00000001     H   21291 21569  22627
 TIDLPRT       4 00003504 00000001     F   21542 22621
 TKEEP         2 00002F8E 00000001     H   19767 16463
 TLFI          2 000035DE 00000001     H   21727 16808
 TMARK         2 000032FE 00000001     H   20978 16718
 TMSG          2 00002A9A 00000001     H   17873 15983  15998
 TNOBACK       2 00002CD6 00000001     H   18737 16223
 TNOBREAK      2 00002A16 00000001     H   17674 15938
 TNOCHARS      2 00002FE6 00000001     H   19900 16538  16553
 TNOCOMM       2 00002A6E 00000001     H   17807 15968
 TNOECHO       2 00002BA2 00000001     H   18272 16058
 TNOERASE      2 00002D86 00000001     H   19003 16298
 TNOFILT       2 00002C7E 00000001     H   18604 16178
 TNOHEI        2 00003172 00000001     H   20380 16598
 TNOIDL        2 0000357C 00000001     H   21590 16778
 TNOKEEP       2 00002FBA 00000001     H   19833 16478
 TNOMSG        2 00002AC6 00000001     H   17940 16013  16028
 TNOPAR        2 00003272 00000001     H   20741 16673
 TNOPSPEC      2 00002EB2 00000001     H   19434 16388
 TNOQUIET      2 0000335A 00000001     H   21123 16748
 TNOSAM        2 00002E48 00000001     H   19285 16358
 TNOTIME       2 00002EDE 00000001     H   19501 16403
 TNOTRACE      2 00002F62 00000001     H   19700 16448
 TNOTYPEQ      2 00002C26 00000001     H   18472 16148
 TNOVFAST      2 00002B4A 00000001     H   18139 16088  16103
 TNOXON        2 00002DDE 00000001     H   19136 16328
 TO            2 000063F0 00000001     H   36062 36058
 TODD          2 000032CE 00000001     H   20899 16703
 TOPS2025      1 00000000 00000001     R     999   997
 TOREXIT       2 00006C4C 00000001     H   38920 38323B 38719B
 TORNG       666 0000003C FFFFFFD5     X   36044 37914
 TORTN         2 00006982 00000001     H   37966 37925
 TOSG         60 00000000 FFFFFFD5     X   36043 36386  36424  36498  36532  36599  36642  36659  36686  36729  36750
                                                 36787  36815  36832  36858  36885  36903  36938  36965  36982  37016
                                                 37083  37147  37170  37202  37251  37293  37310  37337  37380  37401
                                                 37441  37468  37548
 TOSGBUF     235 000002D6 FFFFFFD5     C   36046 36373  36378
 TOSGCOD       1 00000000 FFFFFFD5     R   35960 35969  35979  35989  35999  36009  36019  36029
 TOSGLENF      4 0000000C FFFFFFD5     A   36035 37676  38440
 TOSGLOC       4 00000020 FFFFFFD5     A   36039 37671  38435
 TOWA        961 00000000 FFFFFFD5     J   36053 36075  36104U 36114M 36114  36115M 36115  36116M 36116  36117M 36117
                                                 36118  37950  37952  37953  38009U
 TPAR          2 00003242 00000001     H   20661 16658
 TPSPEC        2 00002E86 00000001     H   19368 16373
 TQUIET        2 0000332E 00000001     H   21057 16733
 TRANGE        2 00007BAE 00000001     H   42499 35039  39329  42495  45533
 TRC           1 00000000 00000000 A   T    2118  2118
 TREAD         1 00000000 0000003D     T   28112 28112
 TREADQ        1 00000000 0000004C     T   45529 45529
 TRI           2 00003208 00000001     H   20584 16643
 TRNGRNG     666 00000000 FFFFFFD1     X   42482 43114
 TRNGWA      666 00000000 FFFFFFD1     J   42489 42512  42541U 42551M 42551  42552M 42552  42553M 42553  43704  43706
                                                 43707
 TSAM          2 00002E0A 00000001     H   19203 16343
 TSEGLID       2 00006C5A 00000001     H   38984 39346
 TSLOW         2 00002AF2 00000001     H   18006 16043
1TOPS     (TOPS2025) (12:57) (15MAR04) Ordinary Symbol and Literal Cross Reference                                          Page  188
 TTABS         2 000031A0 00000001     H   20447 16613
 TTI           2 000031D4 00000001     H   20514 16628
 TTIMEOUT      2 00002F0A 00000001     H   19567 16418
 TTRACE        2 00002F36 00000001     H   19634 16433
 TTYAWID       2 0000000C FFFFFFEA     H    6258  9970M  9970  10064M
 TTYBACK       8 00000104 FFFFFFEA     C    6290 12726  12733
 TTYBOLD       8 00000054 FFFFFFEA     C    6268 10854  10861
 TTYCMD        8 000000FC FFFFFFEA     C    6289 12639  12646
 TTYCOL        8 000000D4 FFFFFFEA     C    6284 11724  11731
 TTYCOLM       8 000000E4 FFFFFFEA     C    6286 12399  12406
 TTYCOLT       8 000000DC FFFFFFEA     C    6285 11811  11818
 TTYDIM        8 000000C4 FFFFFFEA     C    6282 11376  11383
 TTYERR        8 0000007C FFFFFFEA     C    6273 11028  11035
 TTYFCOLOR
               2 00000005 FFFFFFEA         6250 11892M
 TTYFLAG       1 00000004 FFFFFFEA     R    6206  6210
 TTYFMARK     32 00000005 FFFFFFEA         6230 12567M
 TTYFMOD     128 00000005 FFFFFFEA         6220 10213M 10280M 23421
 TTYFQSCR      8 00000005 FFFFFFEA         6240 10552M 10618M 10694  10694
 TTYFREL     128 00000004 FFFFFFEA         6210  8908M 22977
 TTYFSAM      64 00000005 FFFFFFEA         6225 10412M 10479M 23117  23447
 TTYFSCR      16 00000005 FFFFFFEA         6235 10545M 10625M 10694  10694  10695M
 TTYFVTAM      4 00000005 FFFFFFEA         6245 10346M 23376
 TTYHEI        2 00000008 FFFFFFEA     H    6256  9902M 23485
 TTYINITQ      4 00000010 FFFFFFEA     A    6260  8928   9353  22997  23696
 TTYLCOL       8 0000009C FFFFFFEA     C    6277 12051  12058
 TTYLDIM       8 000000A4 FFFFFFEA     C    6278 12138  12145
 TTYLINK       4 00000000 FFFFFFEA     A    6202  8901  12886M 22698  22733
 TTYLMARK      8 000000AC FFFFFFEA     C    6279 12225  12232
 TTYLNEW       8 000000B4 FFFFFFEA     C    6280 12312  12319
 TTYLNORM      8 00000094 FFFFFFEA     C    6276 11964  11971
 TTYMARK       8 0000008C FFFFFFEA     C    6275 11202  11209
 TTYMAX#       1 00000006 FFFFFFEA A   U    6262  6263  13181  23841
 TTYMSG        8 00000074 FFFFFFEA     C    6272 10941  10948
 TTYNAME       8 00000014 FFFFFFEA     C    6263  9359M  9362   9362   9453   9454  22744  22784  22959  23139  23202
                                                 23400  23642
 TTYNEW        8 00000084 FFFFFFEA     C    6274 11115  11122
 TTYNORM       8 0000004C FFFFFFEA     C    6267 10767  10774
 TTYOPT        8 000000BC FFFFFFEA     C    6281 11289  11296
 TTYP          2 00002700 00000001     H   16971 16838
 TTYPE       268 00000000 FFFFFFEA     J    6297  8413   8897U  8978M  8978   8979M  8979   9096U  9351M  9351   9352M
                                                  9352  12826  12880U 13188  22698  22719U 22955U 23047M 23047  23048M
                                                 23048  23095U
 TTYPEQ        2 00002BFA 00000001     H   18405 16133
 TTYPF         8 00000064 FFFFFFEA     C    6270 11550  11557
 TTYPFHI       8 0000006C FFFFFFEA     C    6271 11637  11644
 TTYSPELL      8 000000F4 FFFFFFEA     C    6288 12486  12493
 TTYSTAT       8 0000005C FFFFFFEA     C    6269 11463  11470
 TTYTCLS       8 00000044 FFFFFFEA     C    6265  9360M  9588M 23401
 TTYTFLAG      1 00000005 FFFFFFEA     R    6216  6220   6225   6230   6235   6240   6245   6250
 TTYUSE        2 00000006 FFFFFFEA     H    6254  8919M  8919  22963  22965M 23103  23104M
 TTYWID        2 0000000A FFFFFFEA     H    6257  9963M 23531
 TUID         20 00000000 FFFFFFD4     C   38969 39210  39215
 TUPLOW        2 00002D2E 00000001     H   18871 16268
 TUPPER        2 00002D02 00000001     H   18804 16253
 TUWA         20 00000000 FFFFFFD4     J   38976 38997  39026U 39306  39308  39309
 TVFAST        2 00002B76 00000001     H   18206 16118
 TWIDTH        2 00003076 00000001     H   20098 16568
 TXCTL         1 00000000 00000020     T   15008 15008
1TOPS     (TOPS2025) (12:57) (15MAR04) Ordinary Symbol and Literal Cross Reference                                          Page  189
 TXON          2 00002DB2 00000001     H   19070 16313
 UNPRST        1 00000001 FFFFFFEC A   U    6166 13170
 UPDCPSIB      1 00000000 00000030     T   23850 23850  28115
 UPPTBL        1 00000000 00000000 A   T    2181  2181
 USRSEXIT      2 0000605E 00000001     H   34993 34368B
 USRSRTN       2 00005EA2 00000001     H   34299 34101
 VERPSH        1 00000000 00000038     T   27120 27120  27543
 WAR           8 00000008 00000001 A   #    1035  8454M  9019   9052M  9247   9273M  9477   9503M  9621   9647M  9852
                                                  9877M  9913   9938M 10158  10183M 10224  10249M 10291  10316M 10357
                                                 10382M 10423  10448M 10490  10515M 10563  10588M 10636  10661M 10706
                                                 10731M 10793  10818M 10880  10905M 10967  10992M 11054  11079M 11141
                                                 11166M 11228  11253M 11315  11340M 11402  11427M 11489  11514M 11576
                                                 11601M 11663  11688M 11750  11775M 11837  11862M 11903  11928M 11990
                                                 12015M 12077  12102M 12164  12189M 12251  12276M 12338  12363M 12425
                                                 12450M 12512  12537M 12578  12603M 12665  12690M 12752  12780M 12914
                                                 12939M 12975  13000M 13124  13845M 14398  14449M 14978  15050M 15162
                                                 15196M 15280  15311M 15408  15440M 15828  16854M 16896  16921M 16956
                                                 16981M 17284  17309M 17560  17617M 17659  17684M 17725  17750M 17792
                                                 17817M 17858  17883M 17925  17950M 17991  18016M 18058  18083M 18124
                                                 18149M 18191  18216M 18257  18282M 18323  18348M 18390  18415M 18457
                                                 18482M 18523  18548M 18589  18614M 18656  18681M 18722  18747M 18789
                                                 18814M 18856  18881M 18922  18947M 18988  19013M 19055  19080M 19121
                                                 19146M 19188  19213M 19270  19295M 19353  19378M 19419  19444M 19486
                                                 19511M 19552  19577M 19619  19644M 19685  19710M 19752  19777M 19818
                                                 19843M 19885  19910M 19983  20008M 20083  20108M 20144  20169M 20365
                                                 20390M 20432  20457M 20499  20524M 20569  20594M 20646  20671M 20726
                                                 20751M 20805  20830M 20884  20909M 20963  20988M 21042  21067M 21108
                                                 21133M 21175  21200M 21276  21301M 21407  21432M 21529  21600M 21642
                                                 21667M 21712  21737M 21773  21798M 21843  21868M 22089  22125M 22589
                                                 22672M 22813  22868M 23822  23887M 23932  23958M 25509  25534M 25750
                                                 25836M 26153  26223M 27037  27166M 27210  27235M 27321  27336  27361M
                                                 27402  27441M 27518  27610M 28080  28164M 28210  28236M 28591  28630M
                                                 28822  28862M 28907  28933M 30807  30849M 30986  31012M 31428  31551M
                                                 31851  31884M 32941  33000M 33130  33184M 33526  33603M 34271  34309M
                                                 35001  35139M 35388  35425M 35574  35614M 35921  36074M 37946  37976M
                                                 38928  38996M 39302  39466M 40073  40132M 40163  40174  40380M 40416
                                                 40441M 40477  40502M 40543  40568M 40609  40634M 40675  40700M 40742
                                                 40767M 40808  40833M 40875  40900M 40941  40966M 41008  41033M 41075
                                                 41132M 41516  41724M 41760  41785M 41895  41920M 41995  42020M 42129
                                                 42154M 42199  42224M 42381  42511M 43700  43730M 43839  43850  43884M
                                                 44222  44233  44276M 44739  44750  44793M 45477  45488  45597M 46270
                                                 46322M 47237  47290M 48653  48804M 49271
 WTOSG         1 00000000 00000000 A   T    2078  2078
 WYLTOPS       1 00000000 00000001     J     990   992   1017   1030   1043   1055   1068   1081   1094   1107   1120
                                                  1133   2362   2446   6186   6298   6594   6599   6797   6873   7070
                                                  7198   7469   7518   8217   8270   8392   8425   9152
 XCTL          2 00001700 00000001     H   14437 14433
 XCTLNAME      8 00000000 FFFFFFDD     C   14421 14572  14579  14596  14622  14648  14678  14712  14717  14745  14771
                                                 14776  14929
 XCTLWA        8 00000000 FFFFFFDD     J   14428 14450  14479U 14982  14984  14985
 YESRTN        1 00000000 0000004D     T   45535 45535
 =A((DESRTRN+LXCATRTN+UNPRST))
               4 00000E6C 00000001     A   13170  8730
 =A(-1-L'RNGFDALL-L'RNGFDOUR)
               4 00008380 00000001     A   45530 43100
 =A(ADDRNG)
               4 00007AF8 00000001     A   42421 39665  39720  40044
 =A(CHKTTYPE)
               4 00001C40 00000001     A   15861 15730  15763
1TOPS     (TOPS2025) (12:57) (15MAR04) Ordinary Symbol and Literal Cross Reference                                          Page  190
 =A(CHKTTYPE)
               4 00002948 00000001     A   17584 17104
 =A(CHKTTYPE)
               4 00003C6C 00000001     A   23846 23211  23316
 =A(CNTDISP)
               4 00005648 00000001     A   31475 29368  30968
 =A(DOSHTABS)
               4 00004B40 00000001     A   28118 27015  27505
 =A(GETRKWS)
               4 00007B00 00000001     A   42423 40157
 =A(GETRPRT)
               4 00006084 00000001     A   35037 31771  33050  33663
 =A(GETRPRT)
               4 00006D50 00000001     A   39327 35310  37905
 =A(GETRPRT)
               4 00008384 00000001     A   45531 43105
 =A(GETTRNG)
               4 00006088 00000001     A   35038 31783  33062  33675
 =A(GETTRNG)
               4 00006D54 00000001     A   39328 35322  37917
 =A(GETTRNG)
               4 00008388 00000001     A   45532 43117
 =A(IDLECONV)
               4 00003908 00000001     A   22620 20551  20621
 =A(IDLEDISP)
               4 0000560C 00000001     A   31460 28197
 =A(IDLESCAN)
               4 00003928 00000001     A   22628 21694  21825
 =A(L'MIB)
               4 00005630 00000001     A   31469 28694  28706  29018  29030  30909  30921
 =A(L'RNETEXT)
               4 00007B54 00000001     A   42438 42309  42321
 =A(L'SIBNAME)
               4 00004B00 00000001     A   28104 25960  25972
 =A(L'STYPLINE)
               4 00000E84 00000001     A   13176  9102   9114
 =A(L'TTYPE)
               4 00000EB4 00000001     A   13188 12805
 =A(LINEDISP)
               4 000060A0 00000001     A   35044 32115
 =A(LINEDISP)
               4 00006D5C 00000001     A   39330 35653
 =A(MINFDISP)
               4 00005638 00000001     A   31471 28894
 =A(NEXTFSB)
               4 000083C0 00000001     A   45540 43776
 =A(NEXTPSB)
               4 000083C4 00000001     A   45541 43812
 =A(NEXTSIB)
               4 000083C8 00000001     A   45542 43832
 =A(RINAME)
               4 00007B40 00000001     A   42433 41882
 =A(RIPRT)
               4 00007B38 00000001     A   42431 41415
 =A(RIPRTU)
               4 00007B34 00000001     A   42430 41313
 =A(RNG#*L'RNG)
               4 00007B08 00000001     A   42425 41178
 =A(RNGNEXT)
1TOPS     (TOPS2025) (12:57) (15MAR04) Ordinary Symbol and Literal Cross Reference                                          Page  191
               4 00008374 00000001     A   45527 42719  42740  43043
 =A(SETTBP)
               4 00004B44 00000001     A   28119 27194
 =A(SETTBPRT)
               4 00004B10 00000001     A   28108 26314
 =A(SETTERM)
               4 00001BE0 00000001     A   15847 15150
 =A(SETTTYPE)
               4 00001C44 00000001     A   15862 15734  15781
 =A(SETTTYPE)
               4 00002994 00000001     A   17591 17261
 =A(SETTTYPE)
               4 00003C70 00000001     A   23847 23229  23320
 =A(SHOWTERM)
               4 00001C18 00000001     A   15851 15268
 =A(SHTABPRT)
               4 00004B7C 00000001     A   28121 27483
 =A(STYPINV)
               4 00000E90 00000001     A   13179  9231
 =A(STYPPRT)
               4 00000E88 00000001     A   13177  9200
 =A(STYPRTN)
               4 00000E70 00000001     A   13171  8731
 =A(TERMDISP)
               4 00004204 00000001     A   25771 23919
 =A(TERMPRT)
               4 00001C24 00000001     A   15854 15523
 =A(TID)       4 00002950 00000001     A   17586 17194
 =A(TIDLLN)
               4 00003924 00000001     A   22627 21516
 =A(TIDLPRT)
               4 0000390C 00000001     A   22621 21242
 =A(TRANGE)
               4 0000608C 00000001     A   35039 31833  33112  34105
 =A(TRANGE)
               4 00006D58 00000001     A   39329 35370  37928
 =A(TRANGE)
               4 0000838C 00000001     A   45533 43123
 =A(TSEGLID)
               4 00006DAC 00000001     A   39346 38233  38692  38889
 =A(TTYMAX#)
               4 00000E98 00000001     A   13181  9444
 =A(TTYMAX#)
               4 00003C58 00000001     A   23841 22758
 =A(1)         4 00000E9C 00000001     A   13182  9689
 =A(1)         4 00003930 00000001     A   22630 22483  22549
 =A(1)         4 000060BC 00000001     A   35051 34497  34693
 =A(1)         4 00006D84 00000001     A   39340 36710  37361
 =A(1)         4 00008C60 00000001     A   48700 47705
 =A(1024)      4 0000566C 00000001     A   31480 30245  30295  30441  30491  30637  30687
 =A(16*2)      4 00004B24 00000001     A   28113 26559  27271
 =A(160)       4 00006D90 00000001     A   39343 37691
 =A(2)         4 00007B48 00000001     A   42435 42060
 =A(235-1)
               4 00004B84 00000001     A   28123 27975  27987
 =A(256)       4 00004B28 00000001     A   28114 26686  26698
 =A(3)         4 0000294C 00000001     A   17585 17128
 =A(3)         4 00007B44 00000001     A   42434 41960
 =A(3)         4 00008398 00000001     A   45536 43327
1TOPS     (TOPS2025) (12:57) (15MAR04) Ordinary Symbol and Literal Cross Reference                                          Page  192
 =A(4)         4 00007AF0 00000001     A   42419 39565  39781  41463
 =A(5000)      4 0000392C 00000001     A   22629 22054  22499  22565
 =A(6)         4 00007B3C 00000001     A   42432 41825
 =A(8)         4 00007AF4 00000001     A   42420 39585  39801  41484
 =A(8)         4 00008C5C 00000001     A   48699 47503  47551
 =A(99*1000)
               4 00003910 00000001     A   22622 21338
 =AL2(L'JCB)
               2 000060F6 00000001     R   35059 32841
 =AL2(L'RNE)
               2 000060F8 00000001     R   35060 33721
 =C'     Tabs? '
              11 00004BD6 00000001     C   28132 26430
 =C' ('        2 000056CC 00000001     C   31488 31131
 =C' ('        2 00006E12 00000001     C   39359 36849
 =C' ('        2 00008C8C 00000001     C   48708 45933
 =C' (job'
               5 000056E0 00000001     C   31492 29154
 =C' (stopping)'
              11 00005774 00000001     C   31504 31374
 =C' (Depth='
               8 00008BD8 00000001     C   48679 46012
 =C' ,='       3 00007B97 00000001     C   42448 41275  41377
 =C' '         1 00006E93 00000001     C   39382 36973  37161  39096
 =C' '         1 00008CFD 00000001     C   48728 47562
 =C' "'        2 00006E10 00000001     C   39358 36778
 =C' appendage entries'
              18 00005692 00000001     C   31485 29437
 =C' appendage failsofts'
              20 0000564C 00000001     C   31476 29541
 =C' because '
               9 00006EB9 00000001     C   39390 38239
 =C' characters too long.'
              21 00006EA2 00000001     C   39387 37757
 =C' err)'
               5 00008CCA 00000001     C   48719 45973
 =C' failsoft recoveries, '
              22 000056A4 00000001     C   31486 29502
 =C' halt I/O subtasks'
              18 000056BA 00000001     C   31487 29765
 =C' is set.'
               8 00006D30 00000001     C   39321 38309
 =C' is the current halt queue depth'
              32 000055B0 00000001     C   31455 29807
 =C' is the last device halting (or halted)'
              39 000056FC 00000001     C   31496 29921
 =C' is the maximum halt queue depth reached'
              40 000055D0 00000001     C   31456 29849
 =C' max'      4 00008C38 00000001     C   48690 45854
 =C' mins: '
               7 00006152 00000001     C   35072 32093
 =C' requests'
               9 0000574A 00000001     C   31500 30390  30586  30782
 =C' users'
               6 00008C80 00000001     C   48706 45811
 =C' ['        2 00008CBE 00000001     C   48717 48368
 =C' HEIGHT='
               8 000041F8 00000001     C   25769 25380
 =C' I/O''s, '
1TOPS     (TOPS2025) (12:57) (15MAR04) Ordinary Symbol and Literal Cross Reference                                          Page  193
               8 000055A8 00000001     C   31454 29397
 =C' I/O''s'
               6 00008C86 00000001     C   48707 45898
 =C'.  No action taken.'
              19 0000190B 00000001     C   15017 14127  14735
 =C'...'       3 0000841C 00000001     C   45559 42947
 =C'.'         1 00006186 00000001     C   35084 33332  34632
 =C'.'         1 00006E90 00000001     C   39379 36650  37301  38151  38610  38826
 =C'.'         1 0000845F 00000001     C   45564 45161
 =C'.'         1 00008CFE 00000001     C   48729 47628
 =C'< '        2 00006110 00000001     C   35064 34175
 =C'<'         1 00006159 00000001     C   35073 32151
 =C'<'         1 00006E94 00000001     C   39383 37193  39183
 =C'('         1 0000615B 00000001     C   35075 32245
 =C'('         1 00008CD8 00000001     C   48723 46723
 =C'(ACCT)'
               6 00006DC0 00000001     C   39352 35676
 =C'(ADMIN)'
               7 00006E73 00000001     C   39374 35828
 =C'(Display) '
              10 000060E6 00000001     C   35057 32777
 =C'(Dummy)'
               7 00008CD1 00000001     C   48722 46612
 =C'(DETACHED)'
              10 00008CAC 00000001     C   48714 47201
 =C'(DIAL)'
               6 00008C96 00000001     C   48711 46824
 =C'(DIRECT)'
               8 00008BE0 00000001     C   48680 46862
 =C'(GANDALF)'
               9 00008CD9 00000001     C   48724 46900
 =C'(HUNG-UP)'
               9 00008CEB 00000001     C   48726 47091
 =C'(Keep) '
               7 0000616D 00000001     C   35079 32664
 =C'(Kept) '
               7 00006174 00000001     C   35080 32688
 =C'(LEASED)'
               8 00008BE8 00000001     C   48681 46976
 =C'(Micro) '
               8 00006078 00000001     C   35035 32878
 =C'(Msgs='
               6 000060C2 00000001     C   35053 32415
 =C'(Nobreak) '
              10 000060C8 00000001     C   35054 32580
 =C'(Nocomm) '
               9 00006164 00000001     C   35078 32542
 =C'(Nomsg) '
               8 00006070 00000001     C   35034 32493
 =C'(Oper) '
               7 0000615D 00000001     C   35077 32376
 =C'(OPER)'
               6 00006E34 00000001     C   39368 38399
 =C'(OPR)'
               5 00006E6E 00000001     C   39373 35752
 =C'(PC)'      4 00006D64 00000001     C   39332 35866
 =C'(RLIN)'
               6 00008C9C 00000001     C   48712 46938
 =C'(STOPPED)'
1TOPS     (TOPS2025) (12:57) (15MAR04) Ordinary Symbol and Literal Cross Reference                                          Page  194
               9 00008CF4 00000001     C   48727 47147
 =C'(STOPPING)'
              10 00008CA2 00000001     C   48713 47127
 =C'(SUBMIT)'
               8 00006D28 00000001     C   39320 35790
 =C'(SYS)'
               5 00006E69 00000001     C   39372 35714
 =C'(Tracing) '
              10 000060D2 00000001     C   35055 32623
 =C'(TELENET)'
               9 00008CE2 00000001     C   48725 47014
 =C'(TSO) '
               6 000060F0 00000001     C   35058 32803
 =C'(TYMNET)'
               8 00008BF0 00000001     C   48682 47052
 =C'(Viewing) '
              10 000060DC 00000001     C   35056 32755
 =C'(W)-(-)'
               7 00007B9A 00000001     C   42449 41296  41398
 =C'+'         1 00006185 00000001     C   35083 33235
 =C'+'         1 00006EC8 00000001     C   39393 38731
 =C'$SEND '
               6 00006E20 00000001     C   39362 37624
 =C'*'         1 00007B60 00000001     C   42443 39855
 =C') '        2 000060C0 00000001     C   35052 32337  32454
 =C'):'        2 00006E14 00000001     C   39360 36894
 =C')'         1 00000F02 00000001     C   13196 13100
 =C')'         1 000056E5 00000001     C   31493 29214  31255
 =C')'         1 00008CCF 00000001     C   48720 46051
 =C'- CASE'
               6 00001C4C 00000001     C   15864 15395
 =C'- Tabs'
               6 00004B8E 00000001     C   28127 27852
 =C'- Unnumbered tabs'
              17 00004C35 00000001     C   28137 27871
 =C'-------'
               7 00006199 00000001     C   35087 34017
 =C'------'
               6 0000610A 00000001     C   35063 34056
 =C'------'
               6 00008CB6 00000001     C   48715 47397
 =C'--closed--  '
              12 00008C18 00000001     C   48686 45724
 =C'--closing-- '
              12 00008C0C 00000001     C   48685 45704
 =C'--detached--'
              12 00008C24 00000001     C   48687 45752  47988
 =C'--disconnected--'
              16 00008BF8 00000001     C   48683 47893
 =C'--hung-up--'
              11 00008D0F 00000001     C   48732 47917
 =C'--logging off--'
              15 00008D00 00000001     C   48731 47869
 =C'--stopped--'
              11 00008D1A 00000001     C   48733 47960
 =C'--stopping--'
              12 00008C68 00000001     C   48702 47940
 =C'-'         1 00006EB7 00000001     C   39388 38056  38515
 =C'-'         1 00008CD0 00000001     C   48721 46414  48300  48499
1TOPS     (TOPS2025) (12:57) (15MAR04) Ordinary Symbol and Literal Cross Reference                                          Page  195
 =C','         1 000042C4 00000001     C   25806 25419
 =C','         1 000056DF 00000001     C   31491 28337  28520  31278
 =C','         1 0000615C 00000001     C   35076 32291  33286  33379  33443
 =C','         1 00006EB8 00000001     C   39389 38105  38564  38780
 =C'>----------'
              11 0000618E 00000001     C   35086 33978
 =C'>'         1 0000615A 00000001     C   35074 32197  33838
 =C'>'         1 00006E95 00000001     C   39384 37432  39263
 =C': '        2 00006E2A 00000001     C   39365 38197  38656
 =C': '        2 000083D0 00000001     C   45544 42825
 =C': front-end not found.'
              22 000083E6 00000001     C   45549 43631
 =C': invalid -- too many items.'
              28 00007B10 00000001     C   42427 41213
 =C': port not found.'
              17 0000844E 00000001     C   45563 43574
 =C': unrecognized option (on line '
              31 00000EE3 00000001     C   13195 13053
 =C': user not found.'
              17 0000842E 00000001     C   45561 43499
 =C': Message sent to '
              18 00006E54 00000001     C   39370 38872
 =C':'         1 000056E6 00000001     C   31494 29236
 =C':'         1 00006E96 00000001     C   39385 37459
 =C'#'         1 000061A6 00000001     C   35090 34704
 =C'#'         1 00006E91 00000001     C   39380 36720  37371
 =C'#'         1 00008CFF 00000001     C   48730 47716
 =C'"'         1 00006E92 00000001     C   39381 36823
 =C'a tab is to be set.'
              19 00004BC3 00000001     C   28131 26404
 =C'err)'      4 00008C54 00000001     C   48697 46785
 =C'front-ends'
              10 000083D2 00000001     C   45545 42913
 =C'is an unknown terminal type.'
              28 00002958 00000001     C   17588 17232
 =C'is not available.'
              17 0000191E 00000001     C   15018 14187  14794
 =C'line '
               5 00006EC9 00000001     C   39394 39049
 =C'low,'      4 00005664 00000001     C   31478 30114
 =C'max at'
               6 000056CE 00000001     C   31489 31192
 =C'multiple '
               9 00008409 00000001     C   45556 42847
 =C'nocomm'
               6 00006E2C 00000001     C   39366 38255
 =C'nomsg'
               5 00006EC2 00000001     C   39391 38275
 =C'none'      4 00005668 00000001     C   31479 30176
 =C'ports'
               5 00008417 00000001     C   45558 42886
 =C'set.'      4 00006D6C 00000001     C   39334 36344
 =C'subsystem full queues'
              21 00005723 00000001     C   31497 30008
 =C'terminal type changed to VT100.'
              31 00001C83 00000001     C   15872 15712
 =C'terminal type changed to VT100.'
              31 00003CBA 00000001     C   23860 23298
 =C'users found.'
1TOPS     (TOPS2025) (12:57) (15MAR04) Ordinary Symbol and Literal Cross Reference                                          Page  196
              12 000083A0 00000001     C   45538 43466
 =C'users logged on'
              15 00005765 00000001     C   31503 31095
 =C'users'
               5 00008412 00000001     C   45557 42863
 =C'virtual jobs'
              12 00005670 00000001     C   31481 31339
 =C']'         1 00008D2A 00000001     C   48735 48414
 =C'Account'
               7 00006187 00000001     C   35085 33895
 =C'ALL'       3 00007B61 00000001     C   42444 39893
 =C'ALL'       3 00008406 00000001     C   45555 42769  43340
 =C'APL'       3 0000396D 00000001     C   22638 20049
 =C'Buffers: '
               9 00005738 00000001     C   31498 30225
 =C'BACK '
               5 000042AA 00000001     C   25802 24943
 =C'BEGIN'
               5 00000EDE 00000001     C   13194  9424
 =C'BREAK'
               5 0000428C 00000001     C   25796 24517
 =C'Command is '
              11 00006E97 00000001     C   39386 37717
 =C'CHARS='
               6 00004230 00000001     C   25782 24166
 =C'COM'       3 00001C56 00000001     C   15867 15232
 =C'COMM'      4 00004220 00000001     C   25778 24573
 =C'ECHO '
               5 0000429B 00000001     C   25799 24835
 =C'From '
               5 00006E86 00000001     C   39377 36489
 =C'From line '
              10 00006E16 00000001     C   39361 36929
 =C'FAST '
               5 000042A5 00000001     C   25801 24871
 =C'FILTER '
               7 000042AF 00000001     C   25803 24999
 =C'Halt I/O information:'
              21 000056E7 00000001     C   31495 29723
 =C'HTI='      4 00005620 00000001     C   31465 28459
 =C'I/O''S='
               6 00008C90 00000001     C   48710 46645
 =C'Idle'      4 00006098 00000001     C   35042 32051
 =C'ID='       3 0000427D 00000001     C   25793 24068
 =C'IDLES: CRI='
              11 000056D4 00000001     C   31490 28276
 =C'INMAX='
               6 00004236 00000001     C   25783 24233
 =C'K fixed ('
               9 00005753 00000001     C   31501 30471
 =C'K max), '
               8 00005600 00000001     C   31458 30325  30521  30717
 =C'K paged ('
               9 00005741 00000001     C   31499 30275
 =C'K CSA   ('
               9 0000575C 00000001     C   31502 30667
 =C'KEEP '
               5 000042BF 00000001     C   25805 25260
 =C'Line Account  User name            '
1TOPS     (TOPS2025) (12:57) (15MAR04) Ordinary Symbol and Literal Cross Reference                                          Page  197
              35 0000611F 00000001     C   35069 31974
 =C'LFI='      4 0000561C 00000001     C   31464 28398
 =C'LIN'       3 00006114 00000001     C   35066 31609
 =C'LINES'
               5 00006117 00000001     C   35067 31615  31720
 =C'LINS'      4 00006080 00000001     C   35036 31733
 =C'LNS'       3 0000611C 00000001     C   35068 31757  31961
 =C'LOGGED OFF'
              10 00008CC0 00000001     C   48718 48585
 =C'Memory: '
               8 000055F8 00000001     C   31457 30052
 =C'Message not sent to '
              20 00006D98 00000001     C   39345 38216
 =C'Missing "name" for SET LINE command.'
              36 00004AD8 00000001     C   28102 25945
 =C'Missing front-end range.'
              24 00007AC0 00000001     C   42414 39938
 =C'Missing line range.'
              19 00007B84 00000001     C   42447 39992
 =C'Missing line-range for the TO command.'
              38 00006DC6 00000001     C   39353 36174
 =C'Missing port range.'
              19 00007B71 00000001     C   42446 39965
 =C'Missing SET TERMINAL options.'
              29 000029CC 00000001     C   17596 16883
 =C'MILTEN  '
               8 000018B0 00000001     C   14999 14339
 =C'MILTEN'
               6 000018EA 00000001     C   15013 13988  14596
 =C'MISSING RANGE'
              13 00007B64 00000001     C   42445 39915
 =C'MSG'       3 00004291 00000001     C   25797 24629
 =C'No front-ends found.'
              20 000083AC 00000001     C   45539 43598
 =C'No group'
               8 00008360 00000001     C   45523 43420
 =C'No ports found.'
              15 0000843F 00000001     C   45562 43541
 =C'No tabs set.'
              12 00004B34 00000001     C   28117 26793  27657
 =C'No terminal types defined.'
              26 00000EC0 00000001     C   13191  8846
 =C'No users found.'
              15 0000841F 00000001     C   45560 43390
 =C'NO VERSION'
              10 0000567C 00000001     C   31482 28805
 =C'NO'        2 0000423C 00000001     C   25784 24495  24551  24607  24663  24813  24921  24977  25086  25299
 =C'NOAPL'
               5 00003968 00000001     C   22637 19949
 =C'NOBREAK'
               7 00006E7F 00000001     C   39376 36322
 =C'NOCOMM'
               6 00006E06 00000001     C   39355 36284
 =C'NOMSG'
               5 00006E7A 00000001     C   39375 36246
 =C'Only the first 16 were tabs used.'
              33 00004C06 00000001     C   28134 26820
 =C'OK'        2 000083E2 00000001     C   45547 43232
 =C'OLD'       3 00003C90 00000001     C   23856 23139
1TOPS     (TOPS2025) (12:57) (15MAR04) Ordinary Symbol and Literal Cross Reference                                          Page  198
 =C'OPER '
               5 00006E8B 00000001     C   39378 36523  37007
 =C'OPERATOR'
               8 00006D38 00000001     C   39322 38388
 =C'OPERATOR'
               8 00007AE0 00000001     C   42416 42185
 =C'ORVYL'
               5 000018F3 00000001     C   15015 14014  14622
 =C'ORVYL'
               5 0000617B 00000001     C   35081 32768
 =C'ORVYL'
               5 00008D25 00000001     C   48734 48086
 =C'OUTMAX='
               7 00004280 00000001     C   25794 24315
 =C'Pre-assigned terminal id can''t be changed.'
              42 000029A2 00000001     C   17595 17388
 =C'Program  Port'
              13 00006142 00000001     C   35070 31990
 =C'PSPECIAL '
               9 000042B6 00000001     C   25804 25143
 =C'QUIET '
               6 00004254 00000001     C   25788 25182
 =C'Select'
               6 000083DC 00000001     C   45546 43067
 =C'Sort_field'
              10 000060FA 00000001     C   35061 33856
 =C'Started at'
              10 00005686 00000001     C   31483 29280
 =C'SAMSON '
               7 00003C93 00000001     C   23857 23202
 =C'SAMSON '
               7 00004294 00000001     C   25798 24719
 =C'SLOW '
               5 000042A0 00000001     C   25800 24851
 =C'SUB'       3 000018F0 00000001     C   15014 13890
 =C'SUB'       3 00006E66 00000001     C   39371 35251
 =C'Tabs must be given in ascending order.  No tabs set.'
              52 00004B48 00000001     C   28120 27310
 =C'Tabs must be positive.  Tabs not set.'
              37 00004BE1 00000001     C   28133 26721
 =C'Terminal Options:'
              17 0000426C 00000001     C   25792 23987
 =C'This is not a Samson terminal, '
              31 00001C64 00000001     C   15871 15694
 =C'This is not a Samson terminal, '
              31 00003C9B 00000001     C   23859 23280
 =C'Type ? for more information.'
              28 00002978 00000001     C   17590 17251
 =C'Type a T beneath each position at which'
              39 00004B9C 00000001     C   28130 26386
 =C'Type SET WTERMINAL to reset terminal tables.'
              44 00000E1C 00000001     C   13160  8585
 =C'TRACE '
               6 0000425A 00000001     C   25789 25221
 =C'TYPE='
               5 00004287 00000001     C   25795 24414
 =C'TYPEAHEAD '
              10 0000423E 00000001     C   25785 24685
 =C'Unable to send message to '
1TOPS     (TOPS2025) (12:57) (15MAR04) Ordinary Symbol and Literal Cross Reference                                          Page  199
              26 00006E3A 00000001     C   39369 38675
 =C'Use the SET TABS command to set tab stops.'
              42 00003936 00000001     C   22632 20486
 =C'Use the SHOW TERMINAL command in the future.'
              44 00001BE8 00000001     C   15849 15252
 =C'Userid'
               6 00006104 00000001     C   35062 33934
 =C'Users'
               5 000061A0 00000001     C   35088 34253
 =C'UPLOW '
               6 0000424E 00000001     C   25787 25035
 =C'UPLOW'
               5 00001C5E 00000001     C   15869 15363
 =C'UPPER '
               6 00004248 00000001     C   25786 25015
 =C'UPPER'
               5 00001C59 00000001     C   15868 15343
 =C'Verify'
               6 00004B94 00000001     C   28128 27926
 =C'VFAST '
               6 00004260 00000001     C   25790 25321
 =C'VISTA'
               5 00006180 00000001     C   35082 32794
 =C'VLI'       3 0000614F 00000001     C   35071 32041  32235
 =C'Warning: Your terminal has'
              26 00006DEC 00000001     C   39354 36212
 =C'WIDTH='
               6 00004266 00000001     C   25791 25340
 =C'XCT'       3 0000192F 00000001     C   15019 14495
 =C'XON '      4 00004224 00000001     C   25779 25108
 =C'You are already in '
              19 000018F8 00000001     C   15016 14080  14688
 =C'0'         1 000042C5 00000001     C   25807 25580
 =C'0'         1 000061A5 00000001     C   35089 34416
 =C'1'         1 000061A7 00000001     C   35091 34816
 =CL8'BADTERM'
               8 00002920 00000001     C   17578 17248
 =CL8'HP2621'
               8 00002938 00000001     C   17581 17479
 =CL8'NOSYS'
               8 000018A8 00000001     C   14998 14184  14791
 =CL8'OURSYS'
               8 000018A0 00000001     C   14997 14124  14732
 =CL8'TEK4023'
               8 00002928 00000001     C   17579 17433
 =CL8'TVI912'
               8 00002930 00000001     C   17580 17456
 =CL8'VT100'
               8 00001BD8 00000001     C   15846 15727
 =CL8'VT100'
               8 00003C50 00000001     C   23840 23313
 =CL8'WR'      8 00007AD8 00000001     C   42415 40000  41210
 =F'-1'        4 00000E7C 00000001     F   13174  8957
 =F'-1'        4 00003C5C 00000001     F   23842 23026
 =F'1000'      4 0000391C 00000001     F   22625 21371  21388
 =F'5000'      4 00003920 00000001     F   22626 21374  21376  21391  21393  22506  22572
 =F'999'       4 00003918 00000001     F   22624 21366  21383
 =H'-11'       2 00004B8C 00000001     H   28126 26295
 =H'-4'        2 00008E8C 00000001     H   49297 48851
1TOPS     (TOPS2025) (12:57) (15MAR04) Ordinary Symbol and Literal Cross Reference                                          Page  200
 =H'1000'      2 00003966 00000001     H   22636 22447  22513
 =H'16'        2 00004B9A 00000001     H   28129 28039
 =H'160'       2 00006E28 00000001     H   39364 37697
 =H'18'        2 00006E26 00000001     H   39363 37678
 =H'2'         2 00003962 00000001     H   22634 21382
 =H'20'        2 00003960 00000001     H   22633 21365
 =H'4'         2 00008E8E 00000001     H   49298 49039
 =H'8'         2 00000EDC 00000001     H   13193  9789   9808
 =H'8'         2 00003C8C 00000001     H   23854 23716
 =H'960'       2 00003964 00000001     H   22635 22442
 =V(BTD)       4 0000421C 00000001     V   25777 24264  24346
 =V(BTD)       4 00004B80 00000001     V   28122 27816
 =V(BTD)       4 00005614 00000001     V   31462 28307  28368  28429  28490  29978  30084  30146  30360  30556  30752
                                                 31065  31162  31309
 =V(BTD)       4 00008C50 00000001     V   48696 46677  46755  47348  47748
 =V(BTX)       4 0000422C 00000001     V   25781 25643
 =V(CHARFMT)
               4 00008C74 00000001     V   48703 48000
 =V(CHKTTYPE)
               4 00002998 00000001     V   17592 17529
 =V(CLRACTS)
               4 000018E4 00000001     V   15011 14847
 =V(COLLOPTS)
               4 00001C1C 00000001     V   15852 15338
 =V(COLLOPTS)
               4 00004200 00000001     V   25770 23914
 =V(COLLOPTS)
               4 00005608 00000001     V   31459 28191  28657  28889  30892
 =V(CVEXNO)
               4 00000EB8 00000001     V   13189 13070
 =V(DEQUOTE)
               4 00000EA4 00000001     V   13184  9781
 =V(DEQUOTE)
               4 00004AFC 00000001     V   28103 25954
 =V(DEQUOTE)
               4 00007B4C 00000001     V   42436 42251
 =V(DOFNAME)
               4 00000E54 00000001     V   13164  8672
 =V(DOSHCOLS)
               4 00004B1C 00000001     V   28111 26426
 =V(DTB)       4 00000EAC 00000001     V   13186 10051
 =V(DTB)       4 00003904 00000001     V   22619 20258  21958  22216  22305  22394
 =V(EDTCOMMV)
               4 000018E0 00000001     V   15010 14376
 =V(EXIT0)
               4 00000E50 00000001     V   13163  8648
 =V(EXTCLOSE)
               4 00000E78 00000001     V   13173  8739
 =V(EXTOPEN)
               4 00000E68 00000001     V   13169  8708
 =V(FMTRCLCK)
               4 00005644 00000001     V   31474 29311  29619  31223
 =V(FMTRCLCK)
               4 00008C44 00000001     V   48693 46168
 =V(FMTTIME)
               4 00006D78 00000001     V   39337 36400
 =V(FMTTIME)
               4 00008E80 00000001     V   49294 49120
 =V(FNAMEFIN)
1TOPS     (TOPS2025) (12:57) (15MAR04) Ordinary Symbol and Literal Cross Reference                                          Page  201
               4 00000E60 00000001     V   13167  8685
 =V(FNAMOPTS)
               4 00000E58 00000001     V   13165  8676
 =V(FREECORE)
               4 00000E80 00000001     V   13175  8961   8984
 =V(FREECORE)
               4 00003C60 00000001     V   23843 23030  23053
 =V(GETACCT)
               4 000083CC 00000001     V   45543 45074
 =V(GETCORE)
               4 00000EA8 00000001     V   13185  9795  12809
 =V(GETUID)
               4 000060AC 00000001     V   35047 33410  34394
 =V(GETUID)
               4 00006DB8 00000001     V   39349 39218
 =V(GETUID)
               4 00008C58 00000001     V   48698 47479
 =V(HEXCONV)
               4 00000EA0 00000001     V   13183  9758
 =V(JESSND)
               4 00006D94 00000001     V   39344 37855
 =V(LOCALTOD)
               4 00005640 00000001     V   31473 29296  29604  31208
 =V(LOCALTOD)
               4 00006D74 00000001     V   39336 36393
 =V(LOCALTOD)
               4 00008C40 00000001     V   48692 46144
 =V(LOCALTOD)
               4 00008E7C 00000001     V   49293 49113
 =V(LRTRIM)
               4 00004210 00000001     V   25774 24098  24444
 =V(LRTRIM)
               4 00005634 00000001     V   31470 28767  29091  29184  29663
 =V(LRTRIM)
               4 000060B8 00000001     V   35050 34221
 =V(LRTRIM)
               4 00008C4C 00000001     V   48695 46384  46444
 =V(MILERR)
               4 00008370 00000001     V   45526 42688  44084  44504  45242
 =V(NDETRNG)
               4 00000E64 00000001     V   13168  8703
 =V(NOOPTS)
               4 00004B04 00000001     V   28105 26067
 =V(NOTVALID)
               4 00000E4C 00000001     V   13162  8633
 =V(NOTVALID)
               4 000018C4 00000001     V   15003 13997  14023  14049  14605  14631  14657
 =V(NOTVALID)
               4 00003914 00000001     V   22623 21347  22063  22232  22321  22410  22431
 =V(NOTVALID)
               4 00006D4C 00000001     V   39326 35298
 =V(NOTVALID)
               4 00007AFC 00000001     V   42422 39809  41834  41874  41969  42069
 =V(NSCAN)
               4 00000E8C 00000001     V   13178  9204   9728   9991
 =V(NSCAN)
               4 000018B8 00000001     V   15000 13916  14521
 =V(NSCAN)
               4 00001C28 00000001     V   15855 15527
1TOPS     (TOPS2025) (12:57) (15MAR04) Ordinary Symbol and Literal Cross Reference                                          Page  202
 =V(NSCAN)
               4 000038FC 00000001     V   22617 20215  21246  21915  22170  22259  22348
 =V(NSCAN)
               4 00004AD0 00000001     V   28100 25911  26318  27487
 =V(NSCAN)
               4 00006D40 00000001     V   39323 35208  36140
 =V(NSCAN)
               4 00007AE8 00000001     V   42417 39547  39763  41331  41433
 =V(NSCANSTR)
               4 00000E94 00000001     V   13180  9316   9381   9546
 =V(NSCANSTR)
               4 00002940 00000001     V   17582 17080
 =V(ORVCPASS)
               4 00001BE4 00000001     V   15848 15241
 =V(ORVCPASS)
               4 00006D48 00000001     V   39325 35259
 =V(ORVRQST)
               4 000018DC 00000001     V   15009 14319
 =V(PAGEINIT)
               4 00003C80 00000001     V   23851 23621
 =V(PAGETABS)
               4 00004B30 00000001     V   28116 26769
 =V(RDRNG)
               4 00000E74 00000001     V   13172  8734
 =V(RLOOKUP)
               4 00007B04 00000001     V   42424 40160
 =V(RTRIM)
               4 00008C64 00000001     V   48701 47833
 =V(SAMINIT)
               4 00001C48 00000001     V   15863 15805
 =V(SAMINIT)
               4 000038F8 00000001     V   22616 19252  19334
 =V(SAMINIT)
               4 00003C64 00000001     V   23844 23147  23351
 =V(SAMPARMS)
               4 00001C3C 00000001     V   15860 15651
 =V(SAMPARMS)
               4 00003C68 00000001     V   23845 23177
 =V(SCANCHK)
               4 00000E5C 00000001     V   13166  8681
 =V(SCANCHK)
               4 000018BC 00000001     V   15001 13930  14535
 =V(SCANCHK)
               4 00001C2C 00000001     V   15856 15541
 =V(SCANCHK)
               4 00002944 00000001     V   17583 17094
 =V(SCANCHK)
               4 00003900 00000001     V   22618 20229  21260  21929  22184  22273  22362
 =V(SCANCHK)
               4 00004AD4 00000001     V   28101 25925  26332  27501
 =V(SCANCHK)
               4 00006D44 00000001     V   39324 35222  36154
 =V(SCANCHK)
               4 00007AEC 00000001     V   42418 39552  39768  41344  41446
 =V(SCDQUOTE)
               4 00000EB0 00000001     V   13187 10777  10864  10951  11038  11125  11212  11299  11386  11473  11560
                                                 11647  11734  11821  11974  12061  12148  12235  12322  12409  12496
                                                 12649  12736
 =V(SCUPCASE)
1TOPS     (TOPS2025) (12:57) (15MAR04) Ordinary Symbol and Literal Cross Reference                                          Page  203
               4 000018C0 00000001     V   15002 13975  14582
 =V(SCUPCASE)
               4 00007B50 00000001     V   42437 42283
 =V(SEG)       4 00000E48 00000001     V   13161  8597  13047  13065  13094
 =V(SEG)       4 000018C8 00000001     V   15004 14092  14269  14700  14924
 =V(SEG)       4 00001C34 00000001     V   15858 15589  15688  15706
 =V(SEG)       4 00003C74 00000001     V   23848 23274  23292  23742
 =V(SEG)       4 0000420C 00000001     V   25773 24029  24080  24178  24245  24327  24426  24507  24563  24619  24675
                                                 24697  24731  24791  24825  24847  24899  24933  24955  24989  25011
                                                 25063  25098  25120  25155  25194  25233  25272  25311  25333  25352
                                                 25392  25431  25667  25734
 =V(SEG)       4 00004B08 00000001     V   28106 26102  26871  26952  26970
 =V(SEG)       4 00005610 00000001     V   31461 28288  28331  28349  28410  28471  28514  28532  29115  29208  29226
                                                 29335  29409  29514  29600  29891  30237  30287  30337  30384  30433
                                                 30483  30533  30580  30629  30679  30729  30776  31107  31143  31247
                                                 31267  31386
 =V(SEG)       4 00006090 00000001     V   35040 31986  32063  32105  32163  32191  32257  32303  32349  32388  32427
                                                 32466  32505  32554  32592  32635  32731  32831  32890  33247  33298
                                                 33326  33344  33372  33391  33437  33455  33483  33850  33868  33907
                                                 33946  33990  34029  34068  34187  34428  34528  34572  34626  34644
                                                 34672  34716  34828  34956
 =V(SEG)       4 00006D7C 00000001     V   39338 36501  36535  36645  36662  36689  36732  36790  36835  36861  36941
                                                 36985  37019  37173  37205  37296  37313  37340  37383  37444  37636
                                                 37729  37787  38068  38117  38145  38163  38191  38209  38228  38251
                                                 38303  38360  38451  38486  38527  38576  38604  38622  38650  38668
                                                 38687  38743  38792  38820  38838  38866  38884  39061  39108  39195
                                                 39242  39275
 =V(SEG)       4 00007B0C 00000001     V   42426 41206
 =V(SEG)       4 00008368 00000001     V   45524 42660  42819  42837  42859  42941  43495  43570  43627  43951  44056
                                                 44205  44343  44371  44476  44722  44860  44888  44988  45034  45110
                                                 45155  45173  45203  45460
 =V(SEG)       4 00008C30 00000001     V   48688 45780  45823  45866  45910  45945  45985  46024  46063  46140  46408
                                                 46426  46657  46735  47409  47439  47574  47622  47640  47668  47728
                                                 48312  48380  48426  48511  48597  48636
 =V(SEG)       4 00008E74 00000001     V   49291 48932  49109  49174  49192
 =V(SEGB)      4 00001C20 00000001     V   15853 15391
 =V(SEGB)      4 00002954 00000001     V   17587 17226
 =V(SEGB)      4 00004214 00000001     V   25775 24122  24288  24370  24468  24529  24585  24641  25592
 =V(SEGB)      4 00004B14 00000001     V   28109 26398  27840
 =V(SEGB)      4 00005618 00000001     V   31463 28392  28453  29166  29292  29643  30002  30064  30108  30126  30170
                                                 31089  31186  31204  31290  31333  31351
 =V(SEGB)      4 000060A4 00000001     V   35045 32209  34245
 =V(SEGB)      4 00006D60 00000001     V   39331 35688  35726  35764  35802  35840  35878  36224  36258  36296  36334
                                                 36427  36906  37471  37662  38411
 =V(SEGB)      4 0000839C 00000001     V   45537 43432  43462
 =V(SEGB)      4 00008C08 00000001     V   48684 45669  46192  46468  46529  46590  46624  46701  46779  46797  46836
                                                 46874  46912  46950  46988  47026  47064  47103  47175  47213  47372
                                                 47538  47776  48169
 =V(SEGB)      4 00008E84 00000001     V   49295 49147
 =V(SEGCLR)
               4 00001C30 00000001     V   15857 15561
 =V(SEGCLR)
               4 00003C84 00000001     V   23852 23660
 =V(SEGCLR)
               4 00006D8C 00000001     V   39342 37618  37711  37846
 =V(SEGCLR)
               4 00008E70 00000001     V   49290 48871
 =V(SEGCOL)
               4 000060B0 00000001     V   35048 33889  33928  34011  34050  34598  34764  34878  34928
1TOPS     (TOPS2025) (12:57) (15MAR04) Ordinary Symbol and Literal Cross Reference                                          Page  204
 =V(SEGCOL)
               4 00008C78 00000001     V   48704 48022
 =V(SEGCR)
               4 00000E18 00000001     V   13159  8575   8836   8858
 =V(SEGCR)
               4 00002974 00000001     V   17589 17244
 =V(SEGCR)
               4 00004208 00000001     V   25772 23999  24760  25478
 =V(SEGCR)
               4 00005628 00000001     V   31467 28578  29248  29273  29362  29449  29475  29553  29687  29717  29735
                                                 29777  29819  29861  29933  29959  30020  30046  30219  30402  30598
                                                 30794  31415
 =V(SEGCR)
               4 000060B4 00000001     V   35049 33971  34165
 =V(SEGCR)
               4 00008390 00000001     V   45534 43228
 =V(SEGCR)
               4 00008C3C 00000001     V   48691 46093
 =V(SEGDC)
               4 00004228 00000001     V   25780 25373  25413  25452
 =V(SEGDC)
               4 00005624 00000001     V   31466 28553  29391  29431  29496  29535  29759  29801  29843  30269  30319
                                                 30465  30515  30661  30711
 =V(SEGDC)
               4 0000609C 00000001     V   35043 32087  32448  33279  34738
 =V(SEGDC)
               4 00006D88 00000001     V   39341 36753  36888  36968  37404  37751  38099  38558  38774  39089
 =V(SEGDC)
               4 00008C34 00000001     V   48689 45805  45848  45892  45967  46045
 =V(SEGHX)
               4 00005660 00000001     V   31477 29915
 =V(SEGINIT)
               4 00006D70 00000001     V   39335 36389
 =V(SEGMARK)
               4 00003C88 00000001     V   23853 23756
 =V(SEGT)      4 000018CC 00000001     V   15005 14120  14728
 =V(SEGT)      4 000060A8 00000001     V   35046 32285  32331  34792  34856  34906
 =V(SEGT)      4 00006D80 00000001     V   39339 36602  36818  37086  37150  37254  37551
 =V(SEGT)      4 00008C7C 00000001     V   48705 48250  48294  48340  48408  48476  48539
 =V(SEGTB)
               4 000018D4 00000001     V   15007 14180  14787
 =V(SEGTB)
               4 00004218 00000001     V   25776 24206
 =V(SEGTB)
               4 00006DB4 00000001     V   39348 39156
 =V(SEGWR)
               4 00000EBC 00000001     V   13190 13112
 =V(SEGWR)
               4 00001C14 00000001     V   15850 15264  15724
 =V(SEGWR)
               4 00003C78 00000001     V   23849 23310  23786
 =V(SEGWR)
               4 00004B18 00000001     V   28110 26416  26832  27669  27899  28036  28067
 =V(SEGWR)
               4 0000563C 00000001     V   31472 28981  30188
 =V(SEGWR)
               4 00006094 00000001     V   35041 32014  32928  33508  34093  34986
 =V(SEGWR)
               4 00006D68 00000001     V   39333 35908  36356  38321  38717  38914
1TOPS     (TOPS2025) (12:57) (15MAR04) Ordinary Symbol and Literal Cross Reference                                          Page  205
 =V(SEGWR)
               4 00008378 00000001     V   45528 42959  43038  43656
 =V(SEGWR)
               4 00008C48 00000001     V   48694 46226  46256
 =V(SETSKIP)
               4 00007B2C 00000001     V   42428 41283  41385
 =V(SETSTOP)
               4 00007B30 00000001     V   42429 41304  41406
 =V(SETTTYPE)
               4 0000299C 00000001     V   17593 17533
 =V(SYSCHECK)
               4 000018D0 00000001     V   15006 14141  14748
 =V(TASWRITE)
               4 00006DB0 00000001     V   39347 38498
 =V(TASWRITE)
               4 00008E88 00000001     V   49296 49224
 =V(TCNTL)
               4 00001C38 00000001     V   15859 15601
 =V(TCNTL)
               4 00004B0C 00000001     V   28107 26114
 =V(TCNTL)
               4 0000562C 00000001     V   31468 28670  28994  30904
 =V(TCNTL)
               4 0000836C 00000001     V   45525 42672  44068  44488  45226
 =V(TCNTL)
               4 00008E78 00000001     V   49292 48970
 =V(TREAD)
               4 00004B20 00000001     V   28112 26484
 =V(TREADQ)
               4 0000837C 00000001     V   45529 43075
 =V(TXCTL)
               4 000018D8 00000001     V   15008 14288
 =V(UPDCPSIB)
               4 00003C7C 00000001     V   23850 23559
 =V(UPDCPSIB)
               4 00004B2C 00000001     V   28115 26745
 =V(YESRTN)
               4 00008394 00000001     V   45535 43236
 =X'0D'        1 00001C63 00000001     X   15870 15676
 =X'0D'        1 00003C9A 00000001     X   23858 23262
 =X'15'        1 00006EC7 00000001     X   39392 38474
 =X'15'        1 00008E94 00000001     X   49301 49180
 =X'2F15'      2 00006E32 00000001     X   39367 38348
 =X'2F15'      2 00008E90 00000001     X   49299 49097
 =X'27F1A3'
               3 00004C32 00000001     X   28136 26958
 =X'27F227F327F4271627D90D'
              11 00004C27 00000001     X   28135 26859
 =Y((L'CPTRM+3)/4*4)
               2 00003C8E 00000001     Y   23855 23791
 =Y((L'CPUID+3)/4*4)
               2 00006E0E 00000001     Y   39357 36469
 =Y((L'NSCNCB+3)/4*4)
               2 00001C52 00000001     Y   15865 15498
 =Y((L'NSCNCB+3)/4*4)
               2 00004B88 00000001     Y   28124 25883
 =Y((L'NSCNCB+3)/4*4)
               2 00006DBE 00000001     Y   39351 35269
 =Y((L'NSCNCB+3)/4*4)
1TOPS     (TOPS2025) (12:57) (15MAR04) Ordinary Symbol and Literal Cross Reference                                          Page  206
               2 00007B5A 00000001     Y   42440 39742  40050
 =Y((R1+1-(R0)+16*((R0)/(R1+1))/((R0)/(R1+1)))*4)
               2 000083E4 00000001     Y   45548 43435
 =Y((11+3)/4*4)
               2 00006E0C 00000001     Y   39356 36430
 =Y((11+3)/4*4)
               2 00008E92 00000001     Y   49300 49150
 =Y((12+3)/4*4)
               2 00000EDA 00000001     Y   13192  9210   9322   9387   9552   9734   9997
 =Y((12+3)/4*4)
               2 000018E8 00000001     Y   15012 13922  14527
 =Y((12+3)/4*4)
               2 00001C54 00000001     Y   15866 15533
 =Y((12+3)/4*4)
               2 000029A0 00000001     Y   17594 17086
 =Y((12+3)/4*4)
               2 00003934 00000001     Y   22631 20221  21252  21921  22176  22265  22354
 =Y((12+3)/4*4)
               2 00004B8A 00000001     Y   28125 25917  26324  27493
 =Y((12+3)/4*4)
               2 00006DBC 00000001     Y   39350 35214  36146
 =Y((12+3)/4*4)
               2 00007B5E 00000001     Y   42442 41337  41439
 =Y((2+3)/4*4)
               2 000083FE 00000001     Y   45551 44208
 =Y((20+3)/4*4)
               2 00008CBC 00000001     Y   48716 47784
 =Y((30+3)/4*4)
               2 00005690 00000001     Y   31484 29338  29646  31250
 =Y((30+3)/4*4)
               2 00008C8E 00000001     Y   48709 46195
 =Y((4+3)/4*4)
               2 00008400 00000001     Y   45552 44725
 =Y((6+3)/4*4)
               2 00008404 00000001     Y   45554 45463
 =Y((8+3)/4*4)
               2 00008402 00000001     Y   45553 45210
 =Y(L'RNEHDR)
               2 000083FC 00000001     Y   45550 44030  44450
 =Y(2)         2 00007B58 00000001     Y   42439 39688
 =Y(4)         2 00006112 00000001     Y   35065 34531
 =Y(4)         2 00007B5C 00000001     Y   42441 41286  41307  41388  41409

1TOPS     (TOPS2025) (12:57) (15MAR04) Macro and Copy Code Source Summary                                                   Page  207
- Con Source                                        Volume    Members                        HLASM R4.0  2004/03/15 12.57
0     PRIMARY INPUT                                           CSECT    DROP     END      EX       LTORG    POP
                                                              PRINT    PUSH     START    USING
   L1 WYL.GS.WYL.WYLBUR.MACLIB                      SYSB05    ABORT    AINFO    BASE     BTD      BTX      COLINFO
                                                              COMMENT  CONTROL  CP       CPLOCAL  CV       CVLOCAL  DTB
                                                              ERROR    JCB      RDRNG    RG       SCAN     SCANCB
                                                              SCANCHK  SCANSTR  SCBKUP   SCCBADR  SCDQUOTE SCINFO
                                                              SCINIT   SCKW     SCPOP    SCPUSH   SCUPCASE SCUPTOK
                                                              SEGINIT  SETSCKWS SETSKIP  SETSTOP  SYSDSNS  TCCR
                                                              TCLEAR   TCNTL    TCOL     TCR      THEX     TMARK    TNUM
                                                              TRANGE   TREAD    TSEG     TTYPE    TWRITE   TXCTL
                                                              VLTORG   XPUSHRTN XTRACE
   L2 WYL.GG.SYS.MACLIB                             SYSB05    $BC      $BFLKUP  $BV      $CCLKUP  $CRS     $CSS     $L
                                                              $LA      $LBLAD   $LEXP    $LOR     $REL     $RGLKUP
                                                              $USLKUP  ACALL    BEGIN    CEIL     CLEAR    COMPROC
                                                              CSECT    DATA     DECR     DEFCC    DROP     DTEX     ELSE
                                                              ELSEIF   END      EX       EXIT     FLAG     GEN
                                                              HIBAL    IDENT    IF       INCR     LABEL    LC       LCM
                                                              LOOP     LS       LT       LTH      LTORG    L2       MOVE
                                                              MOVEL    PEND     POP      PRETURN  PRINT    PROC     PUSH
                                                              QLTORG   RECORD   REG      REGS     SET      SETMSG
                                                              START    ST4      UNTIL    USING    VCALL    WHILE    WITH
                                                              XPROC
   L3 SYS3.IS.MACLIB                                SYSB05    FDB      FSB      MIB      PDB      PSB      SEG      SEGB
                                                              SEGCB    SEGCLR   SEGCOL   SEGCR    SEGDC    SEGHX
                                                              SEGLD    SEGMARK  SEGT     SEGWR    SIB      SSB
                                                              SYSDEFN  XPOP     XPUSH

1TOPS     (TOPS2025) (12:57) (15MAR04) Dsect Cross Reference                                                                Page  208
-Dsect     Length      Id       Defn                                                         HLASM R4.0  2004/03/15 12.57
0$$$@R0   00000000  FFFFFFFE     705
 $$$@R1   00000000  FFFFFFFD     718
 $$$@R10  00000000  FFFFFFF4     835
 $$$@R11  00000000  FFFFFFF3     848
 $$$@R12  00000000  FFFFFFF2     861
 $$$@R13  00000000  FFFFFFF1     874
 $$$@R14  00000000  FFFFFFF0     887
 $$$@R15  00000000  FFFFFFEF     900
 $$$@R2   00000000  FFFFFFFC     731
 $$$@R3   00000000  FFFFFFFB     744
 $$$@R4   00000000  FFFFFFFA     757
 $$$@R5   00000000  FFFFFFF9     770
 $$$@R6   00000000  FFFFFFF8     783
 $$$@R7   00000000  FFFFFFF7     796
 $$$@R8   00000000  FFFFFFF6     809
 $$$@R9   00000000  FFFFFFF5     822
 $$$RARNGWA
          00000200  FFFFFFD2   41097
 $$$RCP   00001000  FFFFFFEC    2451
 $$$RCV   00000FB0  FFFFFFEE    1176
 $$$RDEV  0000000C  FFFFFFEB    4665
 $$$RFDB  00000010  FFFFFFE5    7089
 $$$RFSB  00000090  FFFFFFE6    6882
 $$$RGETRWA
          00000200  FFFFFFD3   39430
 $$$RILWA 00000028  FFFFFFD8   33151
 $$$RJCB  000000D0  FFFFFFE9    6319
 $$$RNSCNCB
          000000B0  FFFFFFED    2372
 $$$RPDB  00000038  FFFFFFE8    6604
 $$$RPSB  00000074  FFFFFFE4    7207
 $$$RRNE  00000030  FFFFFFE1    8223
 $$$RRNGCB
          0000029A  FFFFFFE0    8275
 $$$RSBSWA
          00000008  FFFFFFDE   13811
 $$$RSENDWA
          00000022  FFFFFFD0   48744
 $$$RSETTWA
          00000008  FFFFFFDC   22826
 $$$RSHLIWA
          0000029A  FFFFFFD9   32966
 $$$RSHUWA
          000002B1  FFFFFFD7   33555
 $$$RSHWLWA
          0000029A  FFFFFFDA   31517
 $$$RSHWPWA
          0000029A  FFFFFFD6   35104
 $$$RSSB  00000038  FFFFFFE3    7478
 $$$RSTYPWA
          00000407  FFFFFFDF    8397
 $$$RTABWA
          00000032  FFFFFFDB   26168
 $$$RTOWA 000003C1  FFFFFFD5   35950
 $$$RTRNGWA
1TOPS     (TOPS2025) (12:57) (15MAR04) Dsect Cross Reference                                                                Page  209
          0000029A  FFFFFFD1   42476
 $$$RTTYPE
          0000010C  FFFFFFEA    6196
 $$$RTUWA 00000014  FFFFFFD4   38963
 $$$RXCTLWA
          00000008  FFFFFFDD   14415
 $$$R42   000000FC  FFFFFFE7    6802
 $$$R63   000000FE  FFFFFFE2    7523
 HIBAL    00000000  FFFFFFFF     691

1TOPS     (TOPS2025) (12:57) (15MAR04) Using Map                                                                            Page  210
-                                                                                            HLASM R4.0  2004/03/15 12.57
   Stmt  -----Location----- Action ----------------Using----------------- Reg Max    Last  Label and Using Text
           Count      Id           Type          Value    Range     Id        Disp   Stmt
0   922  00000000  FFFFFFFF USING  ORDINARY    00000000 00001000 FFFFFFEF  15 000    9798  @R15,15
    926  00000000  FFFFFFFF USING  ORDINARY    00000000 00001000 FFFFFFF0  14 002    2167  @R14,14
    930  00000000  FFFFFFFF USING  ORDINARY    00000000 00001000 FFFFFFF1  13 000   40051  @R13,13
    934  00000000  FFFFFFFF USING  ORDINARY    00000000 00001000 FFFFFFF2  12 000          @R12,12
    938  00000000  FFFFFFFF USING  ORDINARY    00000000 00001000 FFFFFFF3  11 000          @R11,11
    942  00000000  FFFFFFFF USING  ORDINARY    00000000 00001000 FFFFFFF4  10 000          @R10,10
    946  00000000  FFFFFFFF USING  ORDINARY    00000000 00001000 FFFFFFF5   9 000          @R9,9
    950  00000000  FFFFFFFF USING  ORDINARY    00000000 00001000 FFFFFFF6   8 000          @R8,8
    954  00000000  FFFFFFFF USING  ORDINARY    00000000 00001000 FFFFFFF7   7 000          @R7,7
    958  00000000  FFFFFFFF USING  ORDINARY    00000000 00001000 FFFFFFF8   6 000          @R6,6
    962  00000000  FFFFFFFF USING  ORDINARY    00000000 00001000 FFFFFFF9   5 000          @R5,5
    966  00000000  FFFFFFFF USING  ORDINARY    00000000 00001000 FFFFFFFA   4 008    9454  @R4,4
    970  00000000  FFFFFFFF USING  ORDINARY    00000000 00001000 FFFFFFFB   3 008   28018  @R3,3
    974  00000000  FFFFFFFF USING  ORDINARY    00000000 00001000 FFFFFFFC   2 002   22785  @R2,2
    978  00000000  FFFFFFFF USING  ORDINARY    00000000 00001000 FFFFFFFD   1 008   30953  @R1,1
    982  00000000  FFFFFFFF USING  ORDINARY    00000000 00001000 FFFFFFFE   0 000          @R0,0
    983  00000000  FFFFFFFF DROP                                            0              0
   1160  00000017  00000001 USING  ORDINARY    00000000 00001000 FFFFFFEC  11 D89   49215  CP,CPR
   1169  00000017  00000001 USING  ORDINARY    00000000 00001000 FFFFFFEE  12 890   48808  CV,CVR
   8470  00000032  00000001 USING  ORDINARY    00000032 00001000 00000001   7 E8E    9000  $$$73B,7
   8484  00000032  00000001 USING  ORDINARY    FFFFFFD8 00001000 FFFFFFDF   8 428    8868  STYPWA-(4+36),R8
   8897  0000015A  00000001 USING  ORDINARY    00000000 00001000 FFFFFFEA   5 100    8979  TTYPE,R5
   8997  000001A8  00000001 USING  ORDINARY    00000000 00001000 FFFFFFF9   5 000          @R5,5
   9010  000001B0  00000001 USING  ORDINARY    00000000 00001000 FFFFFFF6   8 000          @R8,8
   9015  000001B0  00000001 USING  ORDINARY    00000000 00001000 FFFFFFF7   7 000          @R7,7
   9068  000001D8  00000001 USING  ORDINARY    000001D8 00001000 00000001   7 D2C    9231  $$$92B,7
   9085  000001DC  00000001 USING  ORDINARY    00000000 00001000 FFFFFFDF   6 11C   12895  STYPWA,R6
   9096  000001E0  00000001 USING  ORDINARY    00000000 00001000 FFFFFFEA   5 104   12726  TTYPE,R5
   9243  0000026A  00000001 USING  ORDINARY    00000000 00001000 FFFFFFF7   7 000          @R7,7
   9289  00000292  00000001 USING  ORDINARY    00000292 00001000 00000001   7 C4C    9464  $$$100B,7
   9473  0000039C  00000001 USING  ORDINARY    00000000 00001000 FFFFFFF7   7 000          @R7,7
   9519  000003C4  00000001 USING  ORDINARY    000003C4 00001000 00000001   7 B16    9600  $$$107B,7
   9617  0000042C  00000001 USING  ORDINARY    00000000 00001000 FFFFFFF7   7 000          @R7,7
   9663  00000454  00000001 USING  ORDINARY    00000454 00001000 00000001   7 A88    9839  $$$113B,7
   9848  0000051E  00000001 USING  ORDINARY    00000000 00001000 FFFFFFF7   7 000          @R7,7
   9893  00000546  00000001 USING  ORDINARY    00000546 00001000 00000001   7 000          $$$121B,7
   9909  0000054A  00000001 USING  ORDINARY    00000000 00001000 FFFFFFF7   7 000          @R7,7
   9954  00000572  00000001 USING  ORDINARY    00000572 00001000 00000001   7 968   10109  $$$124B,7
  10154  00000624  00000001 USING  ORDINARY    00000000 00001000 FFFFFFF7   7 000          @R7,7
  10199  0000064C  00000001 USING  ORDINARY    0000064C 00001000 00000001   7 000          $$$133B,7
  10220  00000650  00000001 USING  ORDINARY    00000000 00001000 FFFFFFF7   7 000          @R7,7
  10265  00000678  00000001 USING  ORDINARY    00000678 00001000 00000001   7 000          $$$136B,7
  10287  0000067C  00000001 USING  ORDINARY    00000000 00001000 FFFFFFF7   7 000          @R7,7
  10332  000006A4  00000001 USING  ORDINARY    000006A4 00001000 00000001   7 000          $$$139B,7
  10353  000006A8  00000001 USING  ORDINARY    00000000 00001000 FFFFFFF7   7 000          @R7,7
  10398  000006D0  00000001 USING  ORDINARY    000006D0 00001000 00000001   7 000          $$$142B,7
  10419  000006D4  00000001 USING  ORDINARY    00000000 00001000 FFFFFFF7   7 000          @R7,7
  10464  000006FC  00000001 USING  ORDINARY    000006FC 00001000 00000001   7 000          $$$145B,7
  10486  00000700  00000001 USING  ORDINARY    00000000 00001000 FFFFFFF7   7 000          @R7,7
  10531  00000728  00000001 USING  ORDINARY    00000728 00001000 00000001   7 000          $$$148B,7
  10559  00000730  00000001 USING  ORDINARY    00000000 00001000 FFFFFFF7   7 000          @R7,7
  10604  00000758  00000001 USING  ORDINARY    00000758 00001000 00000001   7 000          $$$151B,7
  10632  00000760  00000001 USING  ORDINARY    00000000 00001000 FFFFFFF7   7 000          @R7,7
1TOPS     (TOPS2025) (12:57) (15MAR04) Using Map                                                                            Page  211
  10677  00000788  00000001 USING  ORDINARY    00000788 00001000 00000001   7 000          $$$154B,7
  10702  0000078C  00000001 USING  ORDINARY    00000000 00001000 FFFFFFF7   7 000          @R7,7
  10747  000007B4  00000001 USING  ORDINARY    000007B4 00001000 00000001   7 6FC   10777  $$$157B,7
  10789  000007C8  00000001 USING  ORDINARY    00000000 00001000 FFFFFFF7   7 000          @R7,7
  10834  000007F0  00000001 USING  ORDINARY    000007F0 00001000 00000001   7 6C0   10864  $$$160B,7
  10876  00000804  00000001 USING  ORDINARY    00000000 00001000 FFFFFFF7   7 000          @R7,7
  10921  0000082C  00000001 USING  ORDINARY    0000082C 00001000 00000001   7 684   10951  $$$163B,7
  10963  00000840  00000001 USING  ORDINARY    00000000 00001000 FFFFFFF7   7 000          @R7,7
  11008  00000868  00000001 USING  ORDINARY    00000868 00001000 00000001   7 648   11038  $$$166B,7
  11050  0000087C  00000001 USING  ORDINARY    00000000 00001000 FFFFFFF7   7 000          @R7,7
  11095  000008A4  00000001 USING  ORDINARY    000008A4 00001000 00000001   7 60C   11125  $$$169B,7
  11137  000008B8  00000001 USING  ORDINARY    00000000 00001000 FFFFFFF7   7 000          @R7,7
  11182  000008E0  00000001 USING  ORDINARY    000008E0 00001000 00000001   7 5D0   11212  $$$172B,7
  11224  000008F4  00000001 USING  ORDINARY    00000000 00001000 FFFFFFF7   7 000          @R7,7
  11269  0000091C  00000001 USING  ORDINARY    0000091C 00001000 00000001   7 594   11299  $$$175B,7
  11311  00000930  00000001 USING  ORDINARY    00000000 00001000 FFFFFFF7   7 000          @R7,7
  11356  00000958  00000001 USING  ORDINARY    00000958 00001000 00000001   7 558   11386  $$$178B,7
  11398  0000096C  00000001 USING  ORDINARY    00000000 00001000 FFFFFFF7   7 000          @R7,7
  11443  00000994  00000001 USING  ORDINARY    00000994 00001000 00000001   7 51C   11473  $$$181B,7
  11485  000009A8  00000001 USING  ORDINARY    00000000 00001000 FFFFFFF7   7 000          @R7,7
  11530  000009D0  00000001 USING  ORDINARY    000009D0 00001000 00000001   7 4E0   11560  $$$184B,7
  11572  000009E4  00000001 USING  ORDINARY    00000000 00001000 FFFFFFF7   7 000          @R7,7
  11617  00000A0C  00000001 USING  ORDINARY    00000A0C 00001000 00000001   7 4A4   11647  $$$187B,7
  11659  00000A20  00000001 USING  ORDINARY    00000000 00001000 FFFFFFF7   7 000          @R7,7
  11704  00000A48  00000001 USING  ORDINARY    00000A48 00001000 00000001   7 468   11734  $$$190B,7
  11746  00000A5C  00000001 USING  ORDINARY    00000000 00001000 FFFFFFF7   7 000          @R7,7
  11791  00000A84  00000001 USING  ORDINARY    00000A84 00001000 00000001   7 42C   11821  $$$193B,7
  11833  00000A98  00000001 USING  ORDINARY    00000000 00001000 FFFFFFF7   7 000          @R7,7
  11878  00000AC0  00000001 USING  ORDINARY    00000AC0 00001000 00000001   7 000          $$$196B,7
  11899  00000AC4  00000001 USING  ORDINARY    00000000 00001000 FFFFFFF7   7 000          @R7,7
  11944  00000AEC  00000001 USING  ORDINARY    00000AEC 00001000 00000001   7 3C4   11974  $$$199B,7
  11986  00000B00  00000001 USING  ORDINARY    00000000 00001000 FFFFFFF7   7 000          @R7,7
  12031  00000B28  00000001 USING  ORDINARY    00000B28 00001000 00000001   7 388   12061  $$$202B,7
  12073  00000B3C  00000001 USING  ORDINARY    00000000 00001000 FFFFFFF7   7 000          @R7,7
  12118  00000B64  00000001 USING  ORDINARY    00000B64 00001000 00000001   7 34C   12148  $$$205B,7
  12160  00000B78  00000001 USING  ORDINARY    00000000 00001000 FFFFFFF7   7 000          @R7,7
  12205  00000BA0  00000001 USING  ORDINARY    00000BA0 00001000 00000001   7 310   12235  $$$208B,7
  12247  00000BB4  00000001 USING  ORDINARY    00000000 00001000 FFFFFFF7   7 000          @R7,7
  12292  00000BDC  00000001 USING  ORDINARY    00000BDC 00001000 00000001   7 2D4   12322  $$$211B,7
  12334  00000BF0  00000001 USING  ORDINARY    00000000 00001000 FFFFFFF7   7 000          @R7,7
  12379  00000C18  00000001 USING  ORDINARY    00000C18 00001000 00000001   7 298   12409  $$$214B,7
  12421  00000C2C  00000001 USING  ORDINARY    00000000 00001000 FFFFFFF7   7 000          @R7,7
  12466  00000C54  00000001 USING  ORDINARY    00000C54 00001000 00000001   7 25C   12496  $$$217B,7
  12508  00000C68  00000001 USING  ORDINARY    00000000 00001000 FFFFFFF7   7 000          @R7,7
  12553  00000C90  00000001 USING  ORDINARY    00000C90 00001000 00000001   7 000          $$$220B,7
  12574  00000C94  00000001 USING  ORDINARY    00000000 00001000 FFFFFFF7   7 000          @R7,7
  12619  00000CBC  00000001 USING  ORDINARY    00000CBC 00001000 00000001   7 1F4   12649  $$$223B,7
  12661  00000CD0  00000001 USING  ORDINARY    00000000 00001000 FFFFFFF7   7 000          @R7,7
  12706  00000CF8  00000001 USING  ORDINARY    00000CF8 00001000 00000001   7 1B8   12736  $$$226B,7
  12748  00000D0C  00000001 USING  ORDINARY    00000000 00001000 FFFFFFF7   7 000          @R7,7
  12796  00000D34  00000001 USING  ORDINARY    00000D34 00001000 00000001   7 180   12864  $$$229B,7
  12880  00000D68  00000001 USING  ORDINARY    00000000 00001000 FFFFFFEA  15 000   12886  TTYPE,R15
  12893  00000D6C  00000001 USING  ORDINARY    00000000 00001000 FFFFFFEF  15 000          @R15,15
  12910  00000D72  00000001 USING  ORDINARY    00000000 00001000 FFFFFFF7   7 000          @R7,7
  12955  00000D9A  00000001 USING  ORDINARY    00000D9A 00001000 00000001   7 000          $$$234B,7
  12971  00000D9E  00000001 USING  ORDINARY    00000000 00001000 FFFFFFF7   7 000          @R7,7
  13016  00000DC6  00000001 USING  ORDINARY    00000DC6 00001000 00000001   7 13C   13112  $$$237B,7
  13120  00000E08  00000001 USING  ORDINARY    00000000 00001000 FFFFFFF7   7 000          @R7,7
  13141  00000E16  00000001 USING  ORDINARY    00000000 00001000 FFFFFFF9   5 000   22771  @R5,5
1TOPS     (TOPS2025) (12:57) (15MAR04) Using Map                                                                            Page  212
  13149  00000E16  00000001 USING  ORDINARY    00000000 00001000 FFFFFFF8   6 000          @R6,6
  13861  00001566  00000001 USING  ORDINARY    00001566 00001000 00000001   7 3B8   14376  $$$240B,7
  13875  00001566  00000001 USING  ORDINARY    FFFFFFD8 00001000 FFFFFFDE   8 028   14281  SBSWA-(4+36),R8
  14389  000016F2  00000001 USING  ORDINARY    00000000 00001000 FFFFFFF6   8 000          @R8,8
  14394  000016F2  00000001 USING  ORDINARY    00000000 00001000 FFFFFFF7   7 000          @R7,7
  14465  0000171A  00000001 USING  ORDINARY    0000171A 00001000 00000001   7 215   14924  $$$256B,7
  14479  0000171A  00000001 USING  ORDINARY    FFFFFFD8 00001000 FFFFFFDD   8 028   14929  XCTLWA-(4+36),R8
  14941  00001884  00000001 USING  ORDINARY    00000000 00001000 FFFFFFE9  15 062   14952  JCB,R15
  14959  00001888  00000001 USING  ORDINARY    00000000 00001000 FFFFFFEF  15 000   19968  @R15,15
  14969  0000188C  00000001 USING  ORDINARY    00000000 00001000 FFFFFFF6   8 000          @R8,8
  14974  0000188C  00000001 USING  ORDINARY    00000000 00001000 FFFFFFF7   7 000          @R7,7
  15066  0000194C  00000001 USING  ORDINARY    0000194C 00001000 00000001   7 294   15150  $$$271B,7
  15158  00001988  00000001 USING  ORDINARY    00000000 00001000 FFFFFFF7   7 000          @R7,7
  15212  000019B0  00000001 USING  ORDINARY    000019B0 00001000 00000001   7 2A6   15268  $$$276B,7
  15276  000019D8  00000001 USING  ORDINARY    00000000 00001000 FFFFFFF7   7 000          @R7,7
  15327  00001A00  00000001 USING  ORDINARY    00001A00 00001000 00000001   7 25E   15395  $$$280B,7
  15404  00001A34  00000001 USING  ORDINARY    00000000 00001000 FFFFFFF7   7 000          @R7,7
  15456  00001A5C  00000001 USING  ORDINARY    00001A5C 00001000 00000001   7 227   15805  $$$284B,7
  15470  00001A5C  00000001 USING  ORDINARY    FFFFFFD8 00001000 FFFFFFE2   8 028   15475  SIB-(4+36),R8
  15483  00001A66  00000001 USING  ORDINARY    00000000 00001000 FFFFFFE2   6 0F8   21828  SIB,R6
  15819  00001BC4  00000001 USING  ORDINARY    00000000 00001000 FFFFFFF6   8 000          @R8,8
  15824  00001BC4  00000001 USING  ORDINARY    00000000 00001000 FFFFFFF7   7 000          @R7,7
  16870  000026BE  00000001 USING  ORDINARY    000026BE 00001000 00000001   7 30E   16883  $$$293B,7
  16892  000026CA  00000001 USING  ORDINARY    00000000 00001000 FFFFFFF7   7 000          @R7,7
  16937  000026F2  00000001 USING  ORDINARY    000026F2 00001000 00000001   7 000          $$$296B,7
  16952  000026F2  00000001 USING  ORDINARY    00000000 00001000 FFFFFFF7   7 000          @R7,7
  16997  0000271A  00000001 USING  ORDINARY    0000271A 00001000 00000001   7 286   17261  $$$299B,7
  17280  00002838  00000001 USING  ORDINARY    00000000 00001000 FFFFFFF7   7 000          @R7,7
  17325  00002860  00000001 USING  ORDINARY    00002860 00001000 00000001   7 142   17533  $$$309B,7
  17556  0000290C  00000001 USING  ORDINARY    00000000 00001000 FFFFFFF7   7 000          @R7,7
  17633  00002A04  00000001 USING  ORDINARY    00002A04 00001000 00000001   7 000          $$$320B,7
  17655  00002A08  00000001 USING  ORDINARY    00000000 00001000 FFFFFFF7   7 000          @R7,7
  17700  00002A30  00000001 USING  ORDINARY    00002A30 00001000 00000001   7 000          $$$323B,7
  17721  00002A34  00000001 USING  ORDINARY    00000000 00001000 FFFFFFF7   7 000          @R7,7
  17766  00002A5C  00000001 USING  ORDINARY    00002A5C 00001000 00000001   7 000          $$$326B,7
  17788  00002A60  00000001 USING  ORDINARY    00000000 00001000 FFFFFFF7   7 000          @R7,7
  17833  00002A88  00000001 USING  ORDINARY    00002A88 00001000 00000001   7 000          $$$329B,7
  17854  00002A8C  00000001 USING  ORDINARY    00000000 00001000 FFFFFFF7   7 000          @R7,7
  17899  00002AB4  00000001 USING  ORDINARY    00002AB4 00001000 00000001   7 000          $$$332B,7
  17921  00002AB8  00000001 USING  ORDINARY    00000000 00001000 FFFFFFF7   7 000          @R7,7
  17966  00002AE0  00000001 USING  ORDINARY    00002AE0 00001000 00000001   7 000          $$$335B,7
  17987  00002AE4  00000001 USING  ORDINARY    00000000 00001000 FFFFFFF7   7 000          @R7,7
  18032  00002B0C  00000001 USING  ORDINARY    00002B0C 00001000 00000001   7 000          $$$338B,7
  18054  00002B10  00000001 USING  ORDINARY    00000000 00001000 FFFFFFF7   7 000          @R7,7
  18099  00002B38  00000001 USING  ORDINARY    00002B38 00001000 00000001   7 000          $$$341B,7
  18120  00002B3C  00000001 USING  ORDINARY    00000000 00001000 FFFFFFF7   7 000          @R7,7
  18165  00002B64  00000001 USING  ORDINARY    00002B64 00001000 00000001   7 000          $$$344B,7
  18187  00002B68  00000001 USING  ORDINARY    00000000 00001000 FFFFFFF7   7 000          @R7,7
  18232  00002B90  00000001 USING  ORDINARY    00002B90 00001000 00000001   7 000          $$$347B,7
  18253  00002B94  00000001 USING  ORDINARY    00000000 00001000 FFFFFFF7   7 000          @R7,7
  18298  00002BBC  00000001 USING  ORDINARY    00002BBC 00001000 00000001   7 000          $$$350B,7
  18319  00002BC0  00000001 USING  ORDINARY    00000000 00001000 FFFFFFF7   7 000          @R7,7
  18364  00002BE8  00000001 USING  ORDINARY    00002BE8 00001000 00000001   7 000          $$$353B,7
  18386  00002BEC  00000001 USING  ORDINARY    00000000 00001000 FFFFFFF7   7 000          @R7,7
  18431  00002C14  00000001 USING  ORDINARY    00002C14 00001000 00000001   7 000          $$$356B,7
  18453  00002C18  00000001 USING  ORDINARY    00000000 00001000 FFFFFFF7   7 000          @R7,7
  18498  00002C40  00000001 USING  ORDINARY    00002C40 00001000 00000001   7 000          $$$359B,7
  18519  00002C44  00000001 USING  ORDINARY    00000000 00001000 FFFFFFF7   7 000          @R7,7
  18564  00002C6C  00000001 USING  ORDINARY    00002C6C 00001000 00000001   7 000          $$$362B,7
1TOPS     (TOPS2025) (12:57) (15MAR04) Using Map                                                                            Page  213
  18585  00002C70  00000001 USING  ORDINARY    00000000 00001000 FFFFFFF7   7 000          @R7,7
  18630  00002C98  00000001 USING  ORDINARY    00002C98 00001000 00000001   7 000          $$$365B,7
  18652  00002C9C  00000001 USING  ORDINARY    00000000 00001000 FFFFFFF7   7 000          @R7,7
  18697  00002CC4  00000001 USING  ORDINARY    00002CC4 00001000 00000001   7 000          $$$368B,7
  18718  00002CC8  00000001 USING  ORDINARY    00000000 00001000 FFFFFFF7   7 000          @R7,7
  18763  00002CF0  00000001 USING  ORDINARY    00002CF0 00001000 00000001   7 000          $$$371B,7
  18785  00002CF4  00000001 USING  ORDINARY    00000000 00001000 FFFFFFF7   7 000          @R7,7
  18830  00002D1C  00000001 USING  ORDINARY    00002D1C 00001000 00000001   7 000          $$$374B,7
  18852  00002D20  00000001 USING  ORDINARY    00000000 00001000 FFFFFFF7   7 000          @R7,7
  18897  00002D48  00000001 USING  ORDINARY    00002D48 00001000 00000001   7 000          $$$377B,7
  18918  00002D4C  00000001 USING  ORDINARY    00000000 00001000 FFFFFFF7   7 000          @R7,7
  18963  00002D74  00000001 USING  ORDINARY    00002D74 00001000 00000001   7 000          $$$380B,7
  18984  00002D78  00000001 USING  ORDINARY    00000000 00001000 FFFFFFF7   7 000          @R7,7
  19029  00002DA0  00000001 USING  ORDINARY    00002DA0 00001000 00000001   7 000          $$$383B,7
  19051  00002DA4  00000001 USING  ORDINARY    00000000 00001000 FFFFFFF7   7 000          @R7,7
  19096  00002DCC  00000001 USING  ORDINARY    00002DCC 00001000 00000001   7 000          $$$386B,7
  19117  00002DD0  00000001 USING  ORDINARY    00000000 00001000 FFFFFFF7   7 000          @R7,7
  19162  00002DF8  00000001 USING  ORDINARY    00002DF8 00001000 00000001   7 000          $$$389B,7
  19184  00002DFC  00000001 USING  ORDINARY    00000000 00001000 FFFFFFF7   7 000          @R7,7
  19229  00002E24  00000001 USING  ORDINARY    00002E24 00001000 00000001   7 AD4   19252  $$$392B,7
  19266  00002E3A  00000001 USING  ORDINARY    00000000 00001000 FFFFFFF7   7 000          @R7,7
  19311  00002E62  00000001 USING  ORDINARY    00002E62 00001000 00000001   7 A96   19334  $$$395B,7
  19349  00002E78  00000001 USING  ORDINARY    00000000 00001000 FFFFFFF7   7 000          @R7,7
  19394  00002EA0  00000001 USING  ORDINARY    00002EA0 00001000 00000001   7 000          $$$398B,7
  19415  00002EA4  00000001 USING  ORDINARY    00000000 00001000 FFFFFFF7   7 000          @R7,7
  19460  00002ECC  00000001 USING  ORDINARY    00002ECC 00001000 00000001   7 000          $$$401B,7
  19482  00002ED0  00000001 USING  ORDINARY    00000000 00001000 FFFFFFF7   7 000          @R7,7
  19527  00002EF8  00000001 USING  ORDINARY    00002EF8 00001000 00000001   7 000          $$$404B,7
  19548  00002EFC  00000001 USING  ORDINARY    00000000 00001000 FFFFFFF7   7 000          @R7,7
  19593  00002F24  00000001 USING  ORDINARY    00002F24 00001000 00000001   7 000          $$$407B,7
  19615  00002F28  00000001 USING  ORDINARY    00000000 00001000 FFFFFFF7   7 000          @R7,7
  19660  00002F50  00000001 USING  ORDINARY    00002F50 00001000 00000001   7 000          $$$410B,7
  19681  00002F54  00000001 USING  ORDINARY    00000000 00001000 FFFFFFF7   7 000          @R7,7
  19726  00002F7C  00000001 USING  ORDINARY    00002F7C 00001000 00000001   7 000          $$$413B,7
  19748  00002F80  00000001 USING  ORDINARY    00000000 00001000 FFFFFFF7   7 000          @R7,7
  19793  00002FA8  00000001 USING  ORDINARY    00002FA8 00001000 00000001   7 000          $$$416B,7
  19814  00002FAC  00000001 USING  ORDINARY    00000000 00001000 FFFFFFF7   7 000          @R7,7
  19859  00002FD4  00000001 USING  ORDINARY    00002FD4 00001000 00000001   7 000          $$$419B,7
  19881  00002FD8  00000001 USING  ORDINARY    00000000 00001000 FFFFFFF7   7 000          @R7,7
  19926  00003000  00000001 USING  ORDINARY    00003000 00001000 00000001   7 968   19950  $$$422B,7
  19979  00003022  00000001 USING  ORDINARY    00000000 00001000 FFFFFFF7   7 000          @R7,7
  20024  0000304A  00000001 USING  ORDINARY    0000304A 00001000 00000001   7 923   20050  $$$426B,7
  20079  00003068  00000001 USING  ORDINARY    00000000 00001000 FFFFFFF7   7 000          @R7,7
  20124  00003090  00000001 USING  ORDINARY    00003090 00001000 00000001   7 000          $$$430B,7
  20140  00003094  00000001 USING  ORDINARY    00000000 00001000 FFFFFFF7   7 000          @R7,7
  20185  000030BC  00000001 USING  ORDINARY    000030BC 00001000 00000001   7 878   20316  $$$433B,7
  20361  00003164  00000001 USING  ORDINARY    00000000 00001000 FFFFFFF7   7 000          @R7,7
  20406  0000318C  00000001 USING  ORDINARY    0000318C 00001000 00000001   7 000          $$$441B,7
  20428  00003192  00000001 USING  ORDINARY    00000000 00001000 FFFFFFF7   7 000          @R7,7
  20473  000031BA  00000001 USING  ORDINARY    000031BA 00001000 00000001   7 77C   20486  $$$444B,7
  20495  000031C6  00000001 USING  ORDINARY    00000000 00001000 FFFFFFF7   7 000          @R7,7
  20540  000031EE  00000001 USING  ORDINARY    000031EE 00001000 00000001   7 71A   20551  $$$447B,7
  20565  000031FA  00000001 USING  ORDINARY    00000000 00001000 FFFFFFF7   7 000          @R7,7
  20610  00003222  00000001 USING  ORDINARY    00003222 00001000 00000001   7 6E6   20621  $$$450B,7
  20642  00003234  00000001 USING  ORDINARY    00000000 00001000 FFFFFFF7   7 000          @R7,7
  20687  0000325C  00000001 USING  ORDINARY    0000325C 00001000 00000001   7 000          $$$453B,7
  20722  00003264  00000001 USING  ORDINARY    00000000 00001000 FFFFFFF7   7 000          @R7,7
  20767  0000328C  00000001 USING  ORDINARY    0000328C 00001000 00000001   7 000          $$$456B,7
  20801  00003290  00000001 USING  ORDINARY    00000000 00001000 FFFFFFF7   7 000          @R7,7
1TOPS     (TOPS2025) (12:57) (15MAR04) Using Map                                                                            Page  214
  20846  000032B8  00000001 USING  ORDINARY    000032B8 00001000 00000001   7 000          $$$459B,7
  20880  000032C0  00000001 USING  ORDINARY    00000000 00001000 FFFFFFF7   7 000          @R7,7
  20925  000032E8  00000001 USING  ORDINARY    000032E8 00001000 00000001   7 000          $$$462B,7
  20959  000032F0  00000001 USING  ORDINARY    00000000 00001000 FFFFFFF7   7 000          @R7,7
  21004  00003318  00000001 USING  ORDINARY    00003318 00001000 00000001   7 000          $$$465B,7
  21038  00003320  00000001 USING  ORDINARY    00000000 00001000 FFFFFFF7   7 000          @R7,7
  21083  00003348  00000001 USING  ORDINARY    00003348 00001000 00000001   7 000          $$$468B,7
  21104  0000334C  00000001 USING  ORDINARY    00000000 00001000 FFFFFFF7   7 000          @R7,7
  21149  00003374  00000001 USING  ORDINARY    00003374 00001000 00000001   7 000          $$$471B,7
  21171  00003378  00000001 USING  ORDINARY    00000000 00001000 FFFFFFF7   7 000          @R7,7
  21216  000033A0  00000001 USING  ORDINARY    000033A0 00001000 00000001   7 594   21260  $$$474B,7
  21272  000033FA  00000001 USING  ORDINARY    00000000 00001000 FFFFFFF7   7 000          @R7,7
  21317  00003422  00000001 USING  ORDINARY    00003422 00001000 00000001   7 540   21393  $$$477B,7
  21403  00003488  00000001 USING  ORDINARY    00000000 00001000 FFFFFFF7   7 000          @R7,7
  21448  000034B0  00000001 USING  ORDINARY    000034B0 00001000 00000001   7 474   21516  $$$481B,7
  21525  000034F4  00000001 USING  ORDINARY    00000000 00001000 FFFFFFF7   7 000          @R7,7
  21616  00003596  00000001 USING  ORDINARY    00003596 00001000 00000001   7 000          $$$486B,7
  21638  0000359C  00000001 USING  ORDINARY    00000000 00001000 FFFFFFF7   7 000          @R7,7
  21683  000035C4  00000001 USING  ORDINARY    000035C4 00001000 00000001   7 364   21694  $$$489B,7
  21708  000035D0  00000001 USING  ORDINARY    00000000 00001000 FFFFFFF7   7 000          @R7,7
  21753  000035F8  00000001 USING  ORDINARY    000035F8 00001000 00000001   7 000          $$$492B,7
  21769  000035FC  00000001 USING  ORDINARY    00000000 00001000 FFFFFFF7   7 000          @R7,7
  21814  00003624  00000001 USING  ORDINARY    00003624 00001000 00000001   7 304   21825  $$$495B,7
  21839  00003630  00000001 USING  ORDINARY    00000000 00001000 FFFFFFF7   7 000          @R7,7
  21884  00003658  00000001 USING  ORDINARY    00003658 00001000 00000001   7 2DC   22063  $$$498B,7
  22085  0000370E  00000001 USING  ORDINARY    00000000 00001000 FFFFFFF7   7 000          @R7,7
  22141  00003736  00000001 USING  ORDINARY    00003736 00001000 00000001   7 230   22572  $$$507B,7
  22585  000038E6  00000001 USING  ORDINARY    00000000 00001000 FFFFFFF7   7 000          @R7,7
  22606  000038F4  00000001 USING  ORDINARY    00000000 00001000 FFFFFFF8   6 000          @R6,6
  22688  0000398A  00000001 USING  ORDINARY    0000398A 00001000 00000001   7 2CE   22799  $$$523B,7
  22719  00003992  00000001 USING  ORDINARY    00000000 00001000 FFFFFFEA   6 014   22744  TTYPE,R6
  22796  000039C6  00000001 USING  ORDINARY    00000000 00001000 FFFFFFF8   6 002   27319  @R6,6
  22809  000039CA  00000001 USING  ORDINARY    00000000 00001000 FFFFFFF7   7 000          @R7,7
  22884  000039F2  00000001 USING  ORDINARY    000039F2 00001000 00000001   7 2C8   23791  $$$532B,7
  22898  000039F2  00000001 USING  ORDINARY    FFFFFFD8 00001000 FFFFFFDC   8 028   23642  SETTWA-(4+36),R8
  22955  00003A0C  00000001 USING  ORDINARY    00000000 00001000 FFFFFFEA   4 100   23048  TTYPE,R4
  23064  00003A64  00000001 USING  ORDINARY    00000000 00001000 FFFFFFFA   4 000   23789  @R4,4
  23095  00003A6E  00000001 USING  ORDINARY    00000000 00001000 FFFFFFEA   5 044   23696  TTYPE,R5
  23801  00003C3E  00000001 USING  ORDINARY    00000000 00001000 FFFFFFF9   5 001   27994  @R5,5
  23813  00003C3E  00000001 USING  ORDINARY    00000000 00001000 FFFFFFF6   8 000          @R8,8
  23818  00003C3E  00000001 USING  ORDINARY    00000000 00001000 FFFFFFF7   7 000          @R7,7
  23903  00003CF4  00000001 USING  ORDINARY    00003CF4 00001000 00000001   7 510   23919  $$$564B,7
  23928  00003D04  00000001 USING  ORDINARY    00000000 00001000 FFFFFFF7   7 000          @R7,7
  23974  00003D2C  00000001 USING  ORDINARY    00003D2C 00001000 00000001   7 598   25478  $$$567B,7
  25505  00004156  00000001 USING  ORDINARY    00000000 00001000 FFFFFFF7   7 000          @R7,7
  25550  0000417E  00000001 USING  ORDINARY    0000417E 00001000 00000001   7 147   25734  $$$594B,7
  25622  000041A0  00000001 DROP                                           15              15
  25626  000041A6  00000001 USING  ORDINARY    00000000 00001000 FFFFFFEF  15 000   26682  @R15,15
  25746  000041E4  00000001 USING  ORDINARY    00000000 00001000 FFFFFFF7   7 000          @R7,7
  25852  000042E0  00000001 USING  ORDINARY    000042E0 00001000 00000001   7 966   26129  $$$603B,7
  25866  000042E0  00000001 USING  ORDINARY    FFFFFFD8 00001000 FFFFFFE2   8 0AA   26136  SIB-(4+36),R8
  26144  0000440E  00000001 USING  ORDINARY    00000000 00001000 FFFFFFF6   8 000          @R8,8
  26149  0000440E  00000001 USING  ORDINARY    00000000 00001000 FFFFFFF7   7 000          @R7,7
  26239  00004436  00000001 USING  ORDINARY    00004436 00001000 00000001   7 7FC   27015  $$$614B,7
  26253  00004436  00000001 USING  ORDINARY    FFFFFFD8 00001000 FFFFFFDB   8 04A   26848  TABWA-(4+36),R8
  26909  00004626  00000001 DROP                                            2              2
  26913  0000462C  00000001 USING  ORDINARY    00000000 00001000 FFFFFFFC   2 001   26976  @R2,2
  27028  0000467C  00000001 USING  ORDINARY    00000000 00001000 FFFFFFF6   8 000          @R8,8
  27033  0000467C  00000001 USING  ORDINARY    00000000 00001000 FFFFFFF7   7 000          @R7,7
1TOPS     (TOPS2025) (12:57) (15MAR04) Using Map                                                                            Page  215
  27056  0000468A  00000001 USING  ORDINARY    00000000 00001000 FFFFFFDB   4 002   27391  TABWA,R4
  27182  00004796  00000001 USING  ORDINARY    00004796 00001000 00000001   7 3AE   27194  $$$648B,7
  27206  000047A0  00000001 USING  ORDINARY    00000000 00001000 FFFFFFF7   7 000          @R7,7
  27251  000047C8  00000001 USING  ORDINARY    000047C8 00001000 00000001   7 380   27310  $$$651B,7
  27332  000047FA  00000001 USING  ORDINARY    00000000 00001000 FFFFFFF7   7 000          @R7,7
  27377  00004822  00000001 USING  ORDINARY    00004822 00001000 00000001   7 000          $$$656B,7
  27398  00004826  00000001 USING  ORDINARY    00000000 00001000 FFFFFFF7   7 000          @R7,7
  27419  00004834  00000001 USING  ORDINARY    00000000 00001000 FFFFFFFA   4 000   34481  @R4,4
  27457  0000484E  00000001 USING  ORDINARY    0000484E 00001000 00000001   7 33C   27505  $$$659B,7
  27514  000048B0  00000001 USING  ORDINARY    00000000 00001000 FFFFFFF7   7 000          @R7,7
  27626  0000497A  00000001 USING  ORDINARY    0000497A 00001000 00000001   7 2BB   28067  $$$662B,7
  27793  000049D6  00000001 DROP                                           15              15
  27797  000049DC  00000001 USING  ORDINARY    00000000 00001000 FFFFFFEF  15 000          @R15,15
  27968  00004A52  00000001 DROP                                           15              15
  27972  00004A58  00000001 USING  ORDINARY    00000000 00001000 FFFFFFEF  15 200   31733  @R15,15
  28076  00004AA2  00000001 USING  ORDINARY    00000000 00001000 FFFFFFF7   7 000          @R7,7
  28180  00004C66  00000001 USING  ORDINARY    00004C66 00001000 00000001   7 9A6   28197  $$$681B,7
  28206  00004C7A  00000001 USING  ORDINARY    00000000 00001000 FFFFFFF7   7 000          @R7,7
  28252  00004CA2  00000001 USING  ORDINARY    00004CA2 00001000 00000001   7 A3D   28578  $$$684B,7
  28269  00004CA4  00000001 USING  ORDINARY    00000000 00001000 FFFFFFE2   6 000          SIB,R6
  28587  00004D86  00000001 USING  ORDINARY    00000000 00001000 FFFFFFF7   7 000          @R7,7
  28607  00004D94  00000001 USING  ORDINARY    00000000 00001000 FFFFFFF8   6 000          @R6,6
  28646  00004DAE  00000001 USING  ORDINARY    00004DAE 00001000 00000001   7 9D2   28805  $$$687B,7
  28683  00004DC8  00000001 USING  ORDINARY    00000000 00001000 FFFFFFE7   6 010   28796  MIB,R6
  28818  00004E16  00000001 USING  ORDINARY    00000000 00001000 FFFFFFF7   7 000          @R7,7
  28839  00004E24  00000001 USING  ORDINARY    00000000 00001000 FFFFFFF8   6 000          @R6,6
  28878  00004E3E  00000001 USING  ORDINARY    00004E3E 00001000 00000001   7 7FA   28894  $$$696B,7
  28903  00004E4E  00000001 USING  ORDINARY    00000000 00001000 FFFFFFF7   7 000          @R7,7
  28949  00004E76  00000001 USING  ORDINARY    00004E76 00001000 00000001   7 910   30794  $$$699B,7
  29007  00004E96  00000001 USING  ORDINARY    00000000 00001000 FFFFFFE7   6 0F8   30735  MIB,R6
  30803  000053E8  00000001 USING  ORDINARY    00000000 00001000 FFFFFFF7   7 000          @R7,7
  30823  000053F6  00000001 USING  ORDINARY    00000000 00001000 FFFFFFF8   6 000          @R6,6
  30865  00005410  00000001 USING  ORDINARY    00005410 00001000 00000001   7 37C   30968  $$$709B,7
  30879  00005410  00000001 USING  ORDINARY    FFFFFFD8 00001000 FFFFFFE7   8 028   30965  MIB-(4+36),R8
  30977  00005452  00000001 USING  ORDINARY    00000000 00001000 FFFFFFF6   8 000          @R8,8
  30982  00005452  00000001 USING  ORDINARY    00000000 00001000 FFFFFFF7   7 000          @R7,7
  31028  0000547A  00000001 USING  ORDINARY    0000547A 00001000 00000001   7 2FA   31415  $$$716B,7
  31045  0000547C  00000001 USING  ORDINARY    00000000 00001000 FFFFFFE7   6 086   31363  MIB,R6
  31424  00005594  00000001 USING  ORDINARY    00000000 00001000 FFFFFFF7   7 000          @R7,7
  31444  000055A2  00000001 USING  ORDINARY    00000000 00001000 FFFFFFF8   6 000          @R6,6
  31567  000057AC  00000001 USING  ORDINARY    000057AC 00001000 00000001   7 970   31833  $$$721B,7
  31581  000057AC  00000001 USING  ORDINARY    FFFFFFD8 00001000 FFFFFFDA   8 228   31780  SHWLWA-(4+36),R8
  31796  00005866  00000001 USING  ORDINARY    00000000 00001000 FFFFFFE0  15 003   31817  RNGCB,R15
  31824  0000586E  00000001 USING  ORDINARY    00000000 00001000 FFFFFFEF  15 000          @R15,15
  31842  0000587E  00000001 USING  ORDINARY    00000000 00001000 FFFFFFF6   8 000          @R8,8
  31847  0000587E  00000001 USING  ORDINARY    00000000 00001000 FFFFFFF7   7 000          @R7,7
  31900  000058A6  00000001 USING  ORDINARY    000058A6 00001000 00000001   7 8DA   32928  $$$731B,7
  31917  000058A8  00000001 USING  ORDINARY    00000000 00001000 FFFFFFE2   6 0AB   32840  SIB,R6
  31930  000058AA  00000001 USING  ORDINARY    00000000 00001000 FFFFFFE0   5 00D   31944  RNGCB,R5
  32027  000058E4  00000001 USING  ORDINARY    00000000 00001000 FFFFFFF9   5 000          @R5,5
  32127  0000592E  00000001 USING  ORDINARY    00000000 00001000 FFFFFFE0   5 00C   32141  RNGCB,R5
  32221  0000596C  00000001 USING  ORDINARY    00000000 00001000 FFFFFFF9   5 000          @R5,5
  32852  00005B10  00000001 USING  ORDINARY    00000000 00001000 FFFFFFE9   5 065   32867  JCB,R5
  32902  00005B2A  00000001 USING  ORDINARY    00000000 00001000 FFFFFFF9   5 000          @R5,5
  32937  00005B3A  00000001 USING  ORDINARY    00000000 00001000 FFFFFFF7   7 000          @R7,7
  32957  00005B48  00000001 USING  ORDINARY    00000000 00001000 FFFFFFF8   6 000          @R6,6
  33016  00005B62  00000001 USING  ORDINARY    00005B62 00001000 00000001   7 52A   33112  $$$753B,7
  33030  00005B62  00000001 USING  ORDINARY    FFFFFFD8 00001000 FFFFFFD9   8 228   33059  SHLIWA-(4+36),R8
  33075  00005B94  00000001 USING  ORDINARY    00000000 00001000 FFFFFFE0  15 003   33096  RNGCB,R15
1TOPS     (TOPS2025) (12:57) (15MAR04) Using Map                                                                            Page  216
  33103  00005B9C  00000001 USING  ORDINARY    00000000 00001000 FFFFFFEF  15 000          @R15,15
  33121  00005BAC  00000001 USING  ORDINARY    00000000 00001000 FFFFFFF6   8 000          @R8,8
  33126  00005BAC  00000001 USING  ORDINARY    00000000 00001000 FFFFFFF7   7 000          @R7,7
  33200  00005BD4  00000001 USING  ORDINARY    00005BD4 00001000 00000001   7 5B2   33508  $$$756B,7
  33214  00005BD4  00000001 USING  ORDINARY    FFFFFFD8 00001000 FFFFFFD8   8 028   33402  ILWA-(4+36),R8
  33226  00005BD6  00000001 USING  ORDINARY    00000000 00001000 FFFFFFE2   6 082   33467  SIB,R6
  33257  00005BE8  00000001 DROP                                            1              1
  33261  00005BEE  00000001 USING  ORDINARY    00000000 00001000 FFFFFFFD   1 003   36456  @R1,1
  33517  00005CAA  00000001 USING  ORDINARY    00000000 00001000 FFFFFFF6   8 000          @R8,8
  33522  00005CAA  00000001 USING  ORDINARY    00000000 00001000 FFFFFFF7   7 000          @R7,7
  33543  00005CB8  00000001 USING  ORDINARY    00000000 00001000 FFFFFFF8   6 000          @R6,6
  33619  00005CD2  00000001 USING  ORDINARY    00005CD2 00001000 00000001   7 4CE   34253  $$$759B,7
  33633  00005CD2  00000001 USING  ORDINARY    FFFFFFD8 00001000 FFFFFFD7   8 028   33637  SHUWA-(4+36),R8
  33646  00005CDA  00000001 USING  ORDINARY    00000000 00001000 FFFFFFD7   6 200   34213  SHUWA,R6
  33688  00005D0C  00000001 USING  ORDINARY    00000000 00001000 FFFFFFE0  15 01C   33727  RNGCB,R15
  33737  00005D22  00000001 USING  ORDINARY    00000000 00001000 FFFFFFE1   2 011   33803  RNE,R2
  33819  00005D4E  00000001 USING  ORDINARY    00000000 00001000 FFFFFFFC   2 000          @R2,2
  33829  00005D4E  00000001 USING  ORDINARY    00000000 00001000 FFFFFFEF  15 000          @R15,15
  34262  00005E94  00000001 USING  ORDINARY    00000000 00001000 FFFFFFF6   8 000          @R8,8
  34267  00005E94  00000001 USING  ORDINARY    00000000 00001000 FFFFFFF7   7 000          @R7,7
  34288  00005EA2  00000001 USING  ORDINARY    00000000 00001000 FFFFFFF8   6 000          @R6,6
  34325  00005EBC  00000001 USING  ORDINARY    00005EBC 00001000 00000001   7 2EB   34986  $$$769B,7
  34342  00005EC0  00000001 USING  ORDINARY    00000000 00001000 FFFFFFD7   6 003   34940  SHUWA,R6
  34352  00005EC2  00000001 USING  ORDINARY    00000000 00001000 FFFFFFE2   5 075   34680  SIB,R5
  34677  00005F98  00000001 DROP                                            2              2
  34681  00005F9E  00000001 USING  ORDINARY    00000000 00001000 FFFFFFFC   2 000          @R2,2
  34997  0000605E  00000001 USING  ORDINARY    00000000 00001000 FFFFFFF7   7 000          @R7,7
  35017  0000606C  00000001 USING  ORDINARY    00000000 00001000 FFFFFFF9   5 000   37566  @R5,5
  35024  0000606C  00000001 USING  ORDINARY    00000000 00001000 FFFFFFF8   6 000          @R6,6
  35155  000061C2  00000001 USING  ORDINARY    000061C2 00001000 00000001   7 CA4   35370  $$$782B,7
  35169  000061C2  00000001 USING  ORDINARY    FFFFFFD8 00001000 FFFFFFD6   8 228   35319  SHWPWA-(4+36),R8
  35335  00006290  00000001 USING  ORDINARY    00000000 00001000 FFFFFFE0  15 003   35356  RNGCB,R15
  35363  00006298  00000001 USING  ORDINARY    00000000 00001000 FFFFFFEF  15 030   48849  @R15,15
  35379  000062AA  00000001 USING  ORDINARY    00000000 00001000 FFFFFFF6   8 000          @R8,8
  35384  000062AA  00000001 USING  ORDINARY    00000000 00001000 FFFFFFF7   7 000          @R7,7
  35441  000062D2  00000001 USING  ORDINARY    000062D2 00001000 00000001   7 030   35553  $$$788B,7
  35458  000062D4  00000001 USING  ORDINARY    00000000 00001000 FFFFFFE2   6 07A   35550  SIB,R6
  35570  00006302  00000001 USING  ORDINARY    00000000 00001000 FFFFFFF7   7 000          @R7,7
  35590  00006310  00000001 USING  ORDINARY    00000000 00001000 FFFFFFF8   6 000          @R6,6
  35630  0000632A  00000001 USING  ORDINARY    0000632A 00001000 00000001   7 B49   35908  $$$797B,7
  35647  0000632C  00000001 USING  ORDINARY    00000000 00001000 FFFFFFE2   6 07A   35855  SIB,R6
  35917  000063E2  00000001 USING  ORDINARY    00000000 00001000 FFFFFFF7   7 000          @R7,7
  35937  000063F0  00000001 USING  ORDINARY    00000000 00001000 FFFFFFF8   6 000          @R6,6
  36090  0000640A  00000001 USING  ORDINARY    0000640A 00001000 00000001   7 AC4   37928  $$$814B,7
  36104  0000640A  00000001 USING  ORDINARY    FFFFFFD8 00001000 FFFFFFD5   8 328   37914  TOWA-(4+36),R8
  36694  0000660A  00000001 DROP                                            2              2
  36698  00006610  00000001 USING  ORDINARY    00000000 00001000 FFFFFFFC   2 000          @R2,2
  36869  0000668A  00000001 DROP                                            1              1
  36873  00006690  00000001 USING  ORDINARY    00000000 00001000 FFFFFFFD   1 000          @R1,1
  36949  000066C4  00000001 DROP                                            1              1
  36953  000066CA  00000001 USING  ORDINARY    00000000 00001000 FFFFFFFD   1 012   37863  @R1,1
  37345  000067CC  00000001 DROP                                            2              2
  37349  000067D2  00000001 USING  ORDINARY    00000000 00001000 FFFFFFFC   2 000   37822  @R2,2
  37937  00006974  00000001 USING  ORDINARY    00000000 00001000 FFFFFFF6   8 000          @R8,8
  37942  00006974  00000001 USING  ORDINARY    00000000 00001000 FFFFFFF7   7 000          @R7,7
  37992  0000699C  00000001 USING  ORDINARY    0000699C 00001000 00000001   7 52C   38914  $$$852B,7
  38009  000069A0  00000001 USING  ORDINARY    00000000 00001000 FFFFFFD5   6 020   38440  TOWA,R6
  38019  000069A2  00000001 USING  ORDINARY    00000000 00001000 FFFFFFE2   5 0AA   38886  SIB,R5
  38029  000069A4  00000001 USING  ORDINARY    00000000 00001000 FFFFFFE0   4 01C   38363  RNGCB,R4
1TOPS     (TOPS2025) (12:57) (15MAR04) Using Map                                                                            Page  217
  38077  000069BE  00000001 DROP                                            1              1
  38081  000069C4  00000001 USING  ORDINARY    00000000 00001000 FFFFFFFD   1 000          @R1,1
  38373  00006AB4  00000001 USING  ORDINARY    00000000 00001000 FFFFFFE1   2 010   38388  RNE,R2
  38422  00006AD0  00000001 USING  ORDINARY    00000000 00001000 FFFFFFFC   2 004   45433  @R2,2
  38536  00006B1C  00000001 DROP                                            1              1
  38540  00006B22  00000001 USING  ORDINARY    00000000 00001000 FFFFFFFD   1 000          @R1,1
  38752  00006BC8  00000001 DROP                                            1              1
  38756  00006BCE  00000001 USING  ORDINARY    00000000 00001000 FFFFFFFD   1 000          @R1,1
  38924  00006C4C  00000001 USING  ORDINARY    00000000 00001000 FFFFFFF7   7 000          @R7,7
  38944  00006C5A  00000001 USING  ORDINARY    00000000 00001000 FFFFFFF8   6 000          @R6,6
  38951  00006C5A  00000001 USING  ORDINARY    00000000 00001000 FFFFFFF9   5 000          @R5,5
  39012  00006C74  00000001 USING  ORDINARY    00006C74 00001000 00000001   7 255   39275  $$$861B,7
  39026  00006C74  00000001 USING  ORDINARY    FFFFFFD8 00001000 FFFFFFD4   8 028   39210  TUWA-(4+36),R8
  39040  00006C76  00000001 USING  ORDINARY    00000000 00001000 FFFFFFE2   5 082   39201  SIB,R5
  39070  00006C88  00000001 DROP                                            1              1
  39074  00006C8E  00000001 USING  ORDINARY    00000000 00001000 FFFFFFFD   1 003   43437  @R1,1
  39288  00006D1A  00000001 USING  ORDINARY    00000000 00001000 FFFFFFF9   5 000          @R5,5
  39293  00006D1A  00000001 USING  ORDINARY    00000000 00001000 FFFFFFF6   8 000          @R8,8
  39298  00006D1A  00000001 USING  ORDINARY    00000000 00001000 FFFFFFF7   7 000          @R7,7
  39482  00006EF2  00000001 USING  ORDINARY    00006EF2 00001000 00000001   7 C92   40050  $$$867B,7
  39496  00006EF2  00000001 USING  ORDINARY    FFFFFFD8 00001000 FFFFFFD3   8 000          GETRWA-(4+36),R8
  39508  00006EF4  00000001 USING  ORDINARY    00000000 00001000 FFFFFFE0   5 200   41492  RNGCB,R5
  40064  0000709A  00000001 USING  ORDINARY    00000000 00001000 FFFFFFF6   8 000          @R8,8
  40069  0000709A  00000001 USING  ORDINARY    00000000 00001000 FFFFFFF7   7 000          @R7,7
  40148  00007112  00000001 USING  ORDINARY    00007112 00001000 00000001   7 9F2   40160  $$$889B,7
  40170  00007120  00000001 USING  ORDINARY    00000000 00001000 FFFFFFF7   7 000          @R7,7
  40396  0000732A  00000001 USING  ORDINARY    0000732A 00001000 00000001   7 000          $$$892B,7
  40412  0000732E  00000001 USING  ORDINARY    00000000 00001000 FFFFFFF7   7 000          @R7,7
  40457  00007356  00000001 USING  ORDINARY    00007356 00001000 00000001   7 000          $$$895B,7
  40473  0000735A  00000001 USING  ORDINARY    00000000 00001000 FFFFFFF7   7 000          @R7,7
  40518  00007382  00000001 USING  ORDINARY    00007382 00001000 00000001   7 000          $$$898B,7
  40539  00007386  00000001 USING  ORDINARY    00000000 00001000 FFFFFFF7   7 000          @R7,7
  40584  000073AE  00000001 USING  ORDINARY    000073AE 00001000 00000001   7 000          $$$901B,7
  40605  000073B2  00000001 USING  ORDINARY    00000000 00001000 FFFFFFF7   7 000          @R7,7
  40650  000073DA  00000001 USING  ORDINARY    000073DA 00001000 00000001   7 000          $$$904B,7
  40671  000073DE  00000001 USING  ORDINARY    00000000 00001000 FFFFFFF7   7 000          @R7,7
  40716  00007406  00000001 USING  ORDINARY    00007406 00001000 00000001   7 000          $$$907B,7
  40738  0000740A  00000001 USING  ORDINARY    00000000 00001000 FFFFFFF7   7 000          @R7,7
  40783  00007432  00000001 USING  ORDINARY    00007432 00001000 00000001   7 000          $$$910B,7
  40804  00007436  00000001 USING  ORDINARY    00000000 00001000 FFFFFFF7   7 000          @R7,7
  40849  0000745E  00000001 USING  ORDINARY    0000745E 00001000 00000001   7 000          $$$913B,7
  40871  00007462  00000001 USING  ORDINARY    00000000 00001000 FFFFFFF7   7 000          @R7,7
  40916  0000748A  00000001 USING  ORDINARY    0000748A 00001000 00000001   7 000          $$$916B,7
  40937  0000748E  00000001 USING  ORDINARY    00000000 00001000 FFFFFFF7   7 000          @R7,7
  40982  000074B6  00000001 USING  ORDINARY    000074B6 00001000 00000001   7 000          $$$919B,7
  41004  000074BE  00000001 USING  ORDINARY    00000000 00001000 FFFFFFF7   7 000          @R7,7
  41049  000074E6  00000001 USING  ORDINARY    000074E6 00001000 00000001   7 000          $$$922B,7
  41071  000074EE  00000001 USING  ORDINARY    00000000 00001000 FFFFFFF7   7 000          @R7,7
  41148  00007516  00000001 USING  ORDINARY    00007516 00001000 00000001   7 684   41485  $$$925B,7
  41162  00007516  00000001 USING  ORDINARY    FFFFFFD8 00001000 FFFFFFD2   8 128   41403  ARNGWA-(4+36),R8
  41228  00007542  00000001 USING  ORDINARY    00000000 00001000 FFFFFFFA   4 000          @R4,4
  41231  00007542  00000001 USING  ORDINARY    00000000 00001000 FFFFFFE1   4 011   42369  RNE,R4
  41507  000076D2  00000001 USING  ORDINARY    00000000 00001000 FFFFFFF6   8 000          @R8,8
  41512  000076D2  00000001 USING  ORDINARY    00000000 00001000 FFFFFFF7   7 000          @R7,7
  41740  000078DA  00000001 USING  ORDINARY    000078DA 00001000 00000001   7 000          $$$933B,7
  41756  000078DE  00000001 USING  ORDINARY    00000000 00001000 FFFFFFF7   7 000          @R7,7
  41801  00007906  00000001 USING  ORDINARY    00007906 00001000 00000001   7 23A   41882  $$$936B,7
  41891  0000793C  00000001 USING  ORDINARY    00000000 00001000 FFFFFFF7   7 000          @R7,7
  41936  00007964  00000001 USING  ORDINARY    00007964 00001000 00000001   7 1E0   41969  $$$942B,7
1TOPS     (TOPS2025) (12:57) (15MAR04) Using Map                                                                            Page  218
  41991  0000799E  00000001 USING  ORDINARY    00000000 00001000 FFFFFFF7   7 000          @R7,7
  42036  000079C6  00000001 USING  ORDINARY    000079C6 00001000 00000001   7 1DC   42097  $$$946B,7
  42125  00007A00  00000001 USING  ORDINARY    00000000 00001000 FFFFFFF7   7 000          @R7,7
  42170  00007A28  00000001 USING  ORDINARY    00007A28 00001000 00000001   7 0B8   42185  $$$953B,7
  42195  00007A3E  00000001 USING  ORDINARY    00000000 00001000 FFFFFFF7   7 000          @R7,7
  42240  00007A66  00000001 USING  ORDINARY    00007A66 00001000 00000001   7 142   42346  $$$956B,7
  42377  00007AB2  00000001 USING  ORDINARY    00000000 00001000 FFFFFFF7   7 000          @R7,7
  42397  00007AC0  00000001 USING  ORDINARY    00000000 00001000 FFFFFFFA   4 000          @R4,4
  42404  00007AC0  00000001 USING  ORDINARY    00000000 00001000 FFFFFFF9   5 000          @R5,5
  42527  00007BC8  00000001 USING  ORDINARY    00007BC8 00001000 00000001   7 CD4   43681  $$$965B,7
  42541  00007BC8  00000001 USING  ORDINARY    FFFFFFD8 00001000 FFFFFFD1   8 228   43114  TRNGWA-(4+36),R8
  42562  00007BDC  00000001 USING  ORDINARY    00000000 00001000 FFFFFFE0   6 19C   45402  RNGCB,R6
  42597  00007BF2  00000001 USING  ORDINARY    00000000 00001000 FFFFFFE1   5 010   43313  RNE,R5
  43672  00007F20  00000001 USING  ORDINARY    00000000 00001000 FFFFFFF9   5 000          @R5,5
  43691  00007F2E  00000001 USING  ORDINARY    00000000 00001000 FFFFFFF6   8 000          @R8,8
  43696  00007F2E  00000001 USING  ORDINARY    00000000 00001000 FFFFFFF7   7 000          @R7,7
  43746  00007F56  00000001 USING  ORDINARY    00007F56 00001000 00000001   7 472   43832  $$$995B,7
  43846  00007F84  00000001 USING  ORDINARY    00000000 00001000 FFFFFFF7   7 000          @R7,7
  43900  00007FAC  00000001 USING  ORDINARY    00007FAC 00001000 00000001   7 452   44209  $$$1002B,7
  43919  00007FB0  00000001 USING  ORDINARY    00000000 00001000 FFFFFFE6   5 000   43935  FSB,R5
  43959  00007FC2  00000001 USING  ORDINARY    00000000 00001000 FFFFFFF9   5 000          @R5,5
  43971  00007FCA  00000001 USING  ORDINARY    00000000 00001000 FFFFFFE1   4 004   44041  RNE,R4
  44102  00008016  00000001 USING  ORDINARY    00000000 00001000 FFFFFFE6   1 002   44178  FSB,R1
  44216  0000806A  00000001 USING  ORDINARY    00000000 00001000 FFFFFFFD   1 000          @R1,1
  44229  0000806E  00000001 USING  ORDINARY    00000000 00001000 FFFFFFF7   7 000          @R7,7
  44249  0000807C  00000001 USING  ORDINARY    00000000 00001000 FFFFFFFA   4 000          @R4,4
  44292  00008096  00000001 USING  ORDINARY    00008096 00001000 00000001   7 36A   44726  $$$1011B,7
  44311  0000809A  00000001 USING  ORDINARY    00000000 00001000 FFFFFFE4   5 002   44355  PSB,R5
  44379  000080BE  00000001 USING  ORDINARY    00000000 00001000 FFFFFFF9   5 000          @R5,5
  44391  000080C6  00000001 USING  ORDINARY    00000000 00001000 FFFFFFE1   4 004   44461  RNE,R4
  44522  00008112  00000001 USING  ORDINARY    00000000 00001000 FFFFFFE4   1 049   44695  PSB,R1
  44733  0000819C  00000001 USING  ORDINARY    00000000 00001000 FFFFFFFD   1 000          @R1,1
  44746  000081A0  00000001 USING  ORDINARY    00000000 00001000 FFFFFFF7   7 000          @R7,7
  44766  000081AE  00000001 USING  ORDINARY    00000000 00001000 FFFFFFFA   4 000          @R4,4
  44809  000081C8  00000001 USING  ORDINARY    000081C8 00001000 00000001   7 297   45464  $$$1026B,7
  44828  000081CC  00000001 USING  ORDINARY    00000000 00001000 FFFFFFE2   5 004   44872  SIB,R5
  44896  000081F0  00000001 USING  ORDINARY    00000000 00001000 FFFFFFF9   5 000          @R5,5
  44908  000081F8  00000001 USING  ORDINARY    00000000 00001000 FFFFFFE1   4 010   45070  RNE,R4
  45260  000082C0  00000001 USING  ORDINARY    00000000 00001000 FFFFFFE2   1 048   45433  SIB,R1
  45471  0000834A  00000001 USING  ORDINARY    00000000 00001000 FFFFFFFD   1 000          @R1,1
  45484  0000834E  00000001 USING  ORDINARY    00000000 00001000 FFFFFFF7   7 000          @R7,7
  45504  0000835C  00000001 USING  ORDINARY    00000000 00001000 FFFFFFFA   4 000          @R4,4
  45513  0000835C  00000001 USING  ORDINARY    00000000 00001000 FFFFFFF8   6 000          @R6,6
  45613  0000847A  00000001 USING  ORDINARY    0000847A 00001000 00000001   7 855   46256  $$$1045B,7
  45630  0000847C  00000001 USING  ORDINARY    00000000 00001000 FFFFFFE6   6 08C   46210  FSB,R6
  45640  0000847E  00000001 USING  ORDINARY    00000000 00001000 FFFFFFE0   5 000          RNGCB,R5
  46266  00008638  00000001 USING  ORDINARY    00000000 00001000 FFFFFFF7   7 000          @R7,7
  46286  00008646  00000001 USING  ORDINARY    00000000 00001000 FFFFFFF9   5 000          @R5,5
  46293  00008646  00000001 USING  ORDINARY    00000000 00001000 FFFFFFF8   6 000          @R6,6
  46338  00008660  00000001 USING  ORDINARY    00008660 00001000 00000001   7 694   47213  $$$1055B,7
  46355  00008662  00000001 USING  ORDINARY    00000000 00001000 FFFFFFE4   6 064   47190  PSB,R6
  46365  00008664  00000001 USING  ORDINARY    00000000 00001000 FFFFFFE0   5 000          RNGCB,R5
  47233  0000888E  00000001 USING  ORDINARY    00000000 00001000 FFFFFFF7   7 000          @R7,7
  47254  0000889C  00000001 USING  ORDINARY    00000000 00001000 FFFFFFF9   5 000          @R5,5
  47261  0000889C  00000001 USING  ORDINARY    00000000 00001000 FFFFFFF8   6 000          @R6,6
  47306  000088B6  00000001 USING  ORDINARY    000088B6 00001000 00000001   7 474   48636  $$$1074B,7
  47323  000088B8  00000001 USING  ORDINARY    00000000 00001000 FFFFFFE2   6 082   48574  SIB,R6
  47673  0000898A  00000001 DROP                                            2              2
  47677  00008990  00000001 USING  ORDINARY    00000000 00001000 FFFFFFFC   2 000          @R2,2
1TOPS     (TOPS2025) (12:57) (15MAR04) Using Map                                                                            Page  219
  48649  00008BCA  00000001 USING  ORDINARY    00000000 00001000 FFFFFFF7   7 000          @R7,7
  48669  00008BD8  00000001 USING  ORDINARY    00000000 00001000 FFFFFFF8   6 000          @R6,6
  48820  00008D46  00000001 USING  ORDINARY    00008D46 00001000 00000001   7 14E   49252  $$$1105B,7
  48834  00008D46  00000001 USING  ORDINARY    FFFFFFD8 00001000 FFFFFFD0   8 048   49255  SENDWA-(4+36),R8
  48996  00008DAC  00000001 USING  ORDINARY    00000000 00001000 FFFFFFE2   1 0AA   49016  SIB,R1
  49055  00008DD4  00000001 USING  ORDINARY    00000000 00001000 FFFFFFFD   1 000          @R1,1
  49262  00008E62  00000001 USING  ORDINARY    00000000 00001000 FFFFFFF6   8 000          @R8,8
  49267  00008E62  00000001 USING  ORDINARY    00000000 00001000 FFFFFFF7   7 000          @R7,7

1         (TOPS2025) (12:57) (15MAR04) General Purpose Register Cross Reference                                             Page  220
- Register  References (M=modified, B=branch, U=USING, D=DROP, N=index)                      HLASM R4.0  2004/03/15 12.57
0    0(0)      982U   983D  2096   2164M  2164   2165M  8452   8564M  8564   8586M  8645M  8665   8730M  8825M  8825
              8847M  8956M  9023M  9051   9102   9114M  9119   9178   9189M  9189   9198   9199   9251M  9272   9304M
              9304   9313   9336M  9336   9369M  9369   9378   9405M  9405   9481M  9502   9534M  9534   9543   9578M
              9578   9625M  9646   9689   9714M  9714   9723   9724   9725   9789M  9791   9828M  9830M  9856M  9876
              9902   9917M  9937   9963   9977M  9977   9986   9987   9988  10032M 10032  10162M 10182  10228M 10248
             10295M 10315  10361M 10381  10427M 10447  10494M 10514  10567M 10587  10640M 10660  10710M 10730  10774M
             10797M 10817  10861M 10884M 10904  10948M 10971M 10991  11035M 11058M 11078  11122M 11145M 11165  11209M
             11232M 11252  11296M 11319M 11339  11383M 11406M 11426  11470M 11493M 11513  11557M 11580M 11600  11644M
             11667M 11687  11731M 11754M 11774  11818M 11841M 11861  11907M 11927  11971M 11994M 12014  12058M 12081M
             12101  12145M 12168M 12188  12232M 12255M 12275  12319M 12342M 12362  12406M 12429M 12449  12493M 12516M
             12536  12582M 12602  12646M 12669M 12689  12733M 12756M 12779  12805M 12833M 12835M 12918M 12938  12979M
             12999  13054M 13067M 13101M 13128M 13843  13902M 13902  13911  13912  13913  13940M 13940  13972M 14081M
             14109M 14128M 14169M 14188M 14202M 14219M 14219  14241M 14367M 14367  14402M 14447  14507M 14507  14516
             14517  14518  14545M 14545  14579M 14689M 14717M 14736M 14776M 14795M 14857M 14874M 14874  14896M 14982M
             15049  15166M 15195  15253M 15284M 15310  15344M 15364M 15396M 15412M 15438  15512M 15512  15521  15522
             15578M 15598M 15648M 15648  15677M 15695M 15713M 15832M 16853  16884M 16900M 16920  16960M 16980  17068M
             17068  17077  17128  17233M 17252M 17288M 17308  17389M 17564M 17616  17663M 17683  17729M 17749  17796M
             17816  17862M 17882  17929M 17949  17995M 18015  18062M 18082  18128M 18148  18195M 18215  18261M 18281
             18327M 18347  18394M 18414  18461M 18481  18527M 18547  18593M 18613  18660M 18680  18726M 18746  18793M
             18813  18860M 18880  18926M 18946  18992M 19012  19059M 19079  19125M 19145  19192M 19212  19274M 19294
             19357M 19377  19423M 19443  19490M 19510  19556M 19576  19623M 19643  19689M 19709  19756M 19776  19822M
             19842  19889M 19909  19987M 20007  20087M 20107  20133  20148M 20168  20194  20201M 20201  20210  20211
             20212  20239M 20239  20369M 20389  20436M 20456  20487M 20503M 20523  20573M 20593  20650M 20670  20730M
             20750  20809M 20829  20888M 20908  20967M 20987  21046M 21066  21112M 21132  21179M 21199  21231M 21231
             21240  21241  21280M 21300  21326  21411M 21431  21513M 21533M 21599  21646M 21666  21716M 21736  21762
             21777M 21797  21847M 21867  21893  21901M 21901  21910  21911  21912  21939M 21939  22093M 22124  22156M
             22156  22165  22166  22167  22194M 22194  22245M 22245  22254  22255  22256  22283M 22283  22334M 22334
             22343  22344  22345  22372M 22372  22451M 22451  22452M 22474M 22474  22517M 22517  22518M 22540M 22540
             22593M 22671  22817M 22866  22963M 22964M 22965  22988M 22988  23025M 23102M 23103M 23104  23174M 23174
             23263M 23281M 23299M 23715M 23716M 23775M 23775  23826M 23886  23936M 23957  23988M 24018M 24069M 24095M
             24167M 24195M 24234M 24254M 24254  24316M 24336M 24336  24415M 24441M 24496M 24518M 24552M 24574M 24608M
             24630M 24664M 24686M 24720M 24749M 24749  24780M 24814M 24836M 24852M 24872M 24922M 24944M 24978M 25000M
             25016M 25036M 25087M 25109M 25144M 25183M 25222M 25261M 25300M 25322M 25341M 25362M 25362  25381M 25402M
             25402  25420M 25441M 25441  25467M 25467  25513M 25533  25581M 25610  25633M 25723M 25754M 25834  25897M
             25897  25906  25907  25908  25935M 25935  25946M 25957  26023M 26023  26091M 26111M 26157M 26221  26303M
             26303  26312  26313  26387M 26405M 26421M 26421  26431M 26452M 26452  26498M 26498  26622M 26722M 26794M
             26821M 26860M 26914M 26915M 26959M 27041M 27165  27191M 27191  27214M 27234  27300  27311M 27317  27318
             27340M 27360  27406M 27440  27472M 27472  27481  27482  27522M 27609  27658M 27806M 27806  27853M 27872M
             28025M 28040M 28041M 28041  28084M 28163  28214M 28235  28277M 28297M 28297  28338M 28358M 28358  28399M
             28419M 28419  28460M 28480M 28480  28521M 28542M 28542  28567M 28567  28595M 28629  28667M 28694  28706M
             28711  28764M 28806M 28826M 28861  28911M 28932  28970M 28970  28991M 29018  29030M 29035  29088M 29155M
             29181M 29215M 29237M 29262M 29262  29281M 29298  29299M 29351M 29351  29380M 29380  29398M 29420M 29420
             29438M 29464M 29464  29485M 29485  29503M 29524M 29524  29542M 29589M 29606  29607M 29660M 29706M 29706
             29724M 29748M 29766M 29790M 29808M 29832M 29850M 29880M 29904M 29922M 29948M 29948  29968M 29968  30009M
             30035M 30035  30053M 30074M 30074  30115M 30136M 30136  30177M 30208M 30226M 30258M 30276M 30308M 30326M
             30350M 30391M 30422M 30454M 30472M 30504M 30522M 30546M 30587M 30618M 30650M 30668M 30700M 30718M 30742M
             30783M 30811M 30847  30901M 30909  30921M 30926  30990M 31011  31055M 31055  31096M 31132M 31152M 31152
             31193M 31210  31211M 31256M 31279M 31299M 31299  31340M 31375M 31404M 31404  31432M 31549  31693M 31707M
             31762M 31829M 31829  31855M 31883  31975M 31991M 32052M 32076M 32094M 32152M 32180M 32198M 32246M 32274M
             32292M 32320M 32338M 32377M 32416M 32437M 32437  32455M 32494M 32543M 32581M 32624M 32645M 32645  32665M
             32689M 32702M 32702  32756M 32778M 32804M 32879M 32917M 32917  32945M 32998  33044M 33108M 33108  33134M
             33182  33236M 33268M 33287M 33315M 33333M 33361M 33380M 33407M 33426M 33444M 33472M 33497M 33497  33530M
             33601  33658M 33839M 33857M 33878M 33896M 33917M 33935M 33960M 33960  33979M 34000M 34018M 34039M 34057M
             34082M 34082  34100M 34100  34154M 34154  34176M 34218M 34254M 34275M 34308  34391M 34411  34417M 34517M
             34561M 34587M 34615M 34633M 34661M 34705M 34727M 34727  34753M 34781M 34817M 34845M 34867M 34895M 34917M
1         (TOPS2025) (12:57) (15MAR04) General Purpose Register Cross Reference                                             Page  221
             34945M 34975M 34975  35005M 35137  35194M 35194  35203  35204  35205  35238M 35238  35305M 35366M 35392M
             35424  35578M 35613  35677M 35715M 35753M 35791M 35829M 35867M 35897M 35897  35925M 36072  36126M 36126
             36135  36136  36137  36164M 36164  36175M 36182  36213M 36247M 36285M 36323M 36345M 36378M 36416M 36490M
             36524M 36591M 36634M 36651M 36678M 36721M 36742M 36742  36779M 36807M 36824M 36850M 36877M 36877  36895M
             36930M 36957M 36957  36974M 37008M 37075M 37139M 37162M 37194M 37243M 37285M 37302M 37329M 37372M 37393M
             37393  37433M 37460M 37484M 37501M 37501  37523M 37573M 37584M 37584  37625M 37651M 37676M 37678M 37691
             37697M 37698  37718M 37740M 37740  37758M 37793M 37795  37865M 37891M 37895  37900M 37924M 37924  37950M
             37975  38057M 38088M 38106M 38134M 38152M 38180M 38198M 38217M 38240M 38256M 38276M 38310M 38349M 38400M
             38440M 38475M 38516M 38547M 38565M 38593M 38611M 38639M 38657M 38676M 38706M 38706  38732M 38763M 38781M
             38809M 38827M 38855M 38873M 38903M 38903  38932M 38994  39050M 39078M 39078  39097M 39145M 39184M 39215M
             39264M 39306M 39464  39519  39544M 39544  39688M 39707  39760M 39760  39836M 39836  39856M 39894M 39907M
             39907  39916M 39939M 39966M 39993M 40037  40077M 40131  40163  40178M 40379  40420M 40440  40481M 40501
             40547M 40567  40613M 40633  40679M 40699  40746M 40766  40812M 40832  40879M 40899  40945M 40965  41012M
             41032  41079M 41130  41214M 41276M 41297M 41328M 41328  41378M 41399M 41430M 41430  41520M 41723  41764M
             41784  41825  41899M 41919  41960  41982M 41983  41999M 42019  42060  42077  42116M 42117  42133M 42153
             42186M 42187  42203M 42223  42280M 42309  42321M 42326  42369  42385M 42509  42564  42648M 42648  42649M
             42669M 42807M 42807  42808M 42826M 42848M 42864M 42887M 42914M 42948M 43027M 43027  43068M 43093  43098M
             43099M 43100M 43120M 43217M 43217  43233M 43249M 43249  43250M 43312M 43312  43313M 43327  43350M 43350
             43381M 43381  43391M 43414  43421M 43436M 43439M 43467M 43500M 43532M 43532  43542M 43575M 43589M 43589
             43599M 43632M 43704M 43729  43854M 43883  43940M 44028M 44028  44029M 44030M 44065M 44145M 44194M 44237M
             44275  44332M 44360M 44448M 44448  44449M 44450M 44485M 44661M 44711M 44754M 44792  44849M 44877M 44977M
             45022M 45022  45023M 45069M 45069  45070M 45144M 45162M 45192M 45223M 45399M 45449M 45492M 45596  45658M
             45686M 45705M 45725M 45753M 45794M 45812M 45837M 45855M 45881M 45899M 45934M 45956M 45956  45974M 46013M
             46034M 46034  46052M 46082M 46082  46129M 46146  46148M 46157M 46157  46215M 46245M 46245  46274M 46321
             46381M 46415M 46441M 46484M 46545M 46613M 46646M 46667M 46667  46724M 46745M 46745  46786M 46825M 46863M
             46901M 46939M 46977M 47015M 47053M 47092M 47128M 47148M 47202M 47241M 47289  47338M 47398M 47428M 47475M
             47503  47510M 47515  47563M 47611M 47629M 47657M 47693M 47717M 47738M 47738  47805M 47826M 47826  47870M
             47894M 47918M 47941M 47961M 47989M 48011M 48039M 48070M 48138M 48239M 48283M 48301M 48329M 48369M 48397M
             48415M 48465M 48500M 48528M 48586M 48625M 48657M 48802  48846  48921M 48967M 49098M 49136M 49151M 49181M
             49275M
     1(1)      978U  2096   2159M  2160M  2166M  8452   8585M  8664   8731M  8846M  8952M  8980M  9023M  9051   9170M
              9177   9185M  9198N  9199N  9201N  9251M  9272   9300M  9313N  9357M  9358M  9358N  9365M  9378N  9481M
              9502   9530M  9543N  9586M  9587M  9587N  9625M  9646   9710M  9723N  9724N  9725N  9790   9798   9799
              9829M  9830M  9856M  9876   9917M  9937   9973M  9986N  9987N  9988N 10162M 10182  10228M 10248  10295M
             10315  10361M 10381  10427M 10447  10494M 10514  10567M 10587  10640M 10660  10710M 10730  10767M 10797M
             10817  10854M 10884M 10904  10941M 10971M 10991  11028M 11058M 11078  11115M 11145M 11165  11202M 11232M
             11252  11289M 11319M 11339  11376M 11406M 11426  11463M 11493M 11513  11550M 11580M 11600  11637M 11667M
             11687  11724M 11754M 11774  11811M 11841M 11861  11907M 11927  11964M 11994M 12014  12051M 12081M 12101
             12138M 12168M 12188  12225M 12255M 12275  12312M 12342M 12362  12399M 12429M 12449  12486M 12516M 12536
             12582M 12602  12639M 12669M 12689  12726M 12756M 12779  12811  12834M 12835M 12918M 12938  12979M 12999
             13053M 13100M 13128M 13843  13898M 13911N 13912N 13913N 13965M 14080M 14104M 14127M 14138M 14164M 14187M
             14201M 14239M 14281M 14402M 14447  14503M 14516N 14517N 14518N 14572M 14688M 14712M 14735M 14745M 14771M
             14794M 14856M 14894M 14982M 15049  15166M 15195  15252M 15284M 15310  15343M 15363M 15395M 15412M 15438
             15508M 15521N 15522N 15524N 15573M 15676M 15694M 15712M 15832M 16853  16883M 16900M 16920  16960M 16980
             17064M 17077N 17098M 17099M 17099N 17100  17101  17232M 17251M 17288M 17308  17336M 17337M 17337N 17388M
             17493M 17493  17564M 17616  17663M 17683  17729M 17749  17796M 17816  17862M 17882  17929M 17949  17995M
             18015  18062M 18082  18128M 18148  18195M 18215  18261M 18281  18327M 18347  18394M 18414  18461M 18481
             18527M 18547  18593M 18613  18660M 18680  18726M 18746  18793M 18813  18860M 18880  18926M 18946  18992M
             19012  19059M 19079  19125M 19145  19192M 19212  19274M 19294  19357M 19377  19423M 19443  19490M 19510
             19556M 19576  19623M 19643  19689M 19709  19756M 19776  19822M 19842  19889M 19909  19937M 19938M 19938N
             19987M 20007  20035M 20036M 20036N 20087M 20107  20148M 20168  20197M 20210N 20211N 20212N 20369M 20389
             20436M 20456  20486M 20503M 20523  20573M 20593  20650M 20670  20730M 20750  20809M 20829  20888M 20908
             20967M 20987  21046M 21066  21112M 21132  21179M 21199  21227M 21240N 21241N 21243N 21280M 21300  21411M
             21431  21533M 21599  21646M 21666  21716M 21736  21777M 21797  21847M 21867  21897M 21910N 21911N 21912N
             22093M 22124  22152M 22165N 22166N 22167N 22241M 22254N 22255N 22256N 22330M 22343N 22344N 22345N 22446M
             22447M 22452M 22483M 22499  22506M 22511  22512M 22513M 22518M 22549M 22565  22572M 22577M 22578  22593M
             22671  22817M 22866  23021M 23049M 23262M 23280M 23298M 23727M 23826M 23886  23936M 23957  23987M 24011M
             24068M 24090M 24166M 24190M 24233M 24261M 24315M 24343M 24414M 24436M 24495M 24517M 24551M 24573M 24607M
             24629M 24663M 24685M 24719M 24773M 24813M 24835M 24851M 24871M 24921M 24943M 24977M 24999M 25015M 25035M
1         (TOPS2025) (12:57) (15MAR04) General Purpose Register Cross Reference                                             Page  222
             25086M 25108M 25143M 25182M 25221M 25260M 25299M 25321M 25340M 25358M 25380M 25398M 25419M 25437M 25513M
             25533  25580M 25609  25640M 25716M 25754M 25834  25893M 25906N 25907N 25908N 25945M 26086M 26157M 26221
             26299M 26312N 26313N 26315N 26386M 26404M 26423M 26423  26430M 26620M 26721M 26793M 26820M 26859M 26937M
             26958M 27041M 27165  27214M 27234  27310M 27340M 27360  27406M 27440  27468M 27481N 27482N 27484N 27522M
             27609  27657M 27813M 27852M 27871M 28018M 28052M 28084M 28163  28194M 28214M 28235  28261  28276M 28304M
             28337M 28365M 28398M 28426M 28459M 28487M 28520M 28538M 28595M 28629  28759M 28805M 28826M 28861  28911M
             28932  29083M 29154M 29176M 29214M 29236M 29280M 29303M 29303  29365M 29376M 29397M 29416M 29437M 29481M
             29502M 29520M 29541M 29582M 29611M 29611  29655M 29723M 29741M 29765M 29783M 29807M 29825M 29849M 29873M
             29897M 29921M 29975M 30008M 30052M 30081M 30114M 30143M 30176M 30201M 30225M 30251M 30275M 30301M 30325M
             30357M 30390M 30415M 30447M 30471M 30497M 30521M 30553M 30586M 30611M 30643M 30667M 30693M 30717M 30749M
             30782M 30811M 30847  30965M 30990M 31011  31037  31062M 31095M 31131M 31159M 31192M 31215M 31215  31255M
             31278M 31306M 31339M 31374M 31432M 31549  31692M 31830M 31855M 31883  31909  31974M 31990M 32051M 32069M
             32093M 32112M 32151M 32175M 32197M 32245M 32269M 32291M 32315M 32337M 32376M 32415M 32433M 32454M 32493M
             32542M 32580M 32623M 32664M 32688M 32755M 32777M 32803M 32878M 32945M 32998  33109M 33134M 33182  33218
             33235M 33257D 33259M 33259  33260M 33261U 33286M 33310M 33332M 33356M 33379M 33402M 33443M 33467M 33530M
             33601  33838M 33856M 33895M 33934M 33978M 34017M 34056M 34101M 34175M 34213M 34253M 34275M 34308  34344
             34386M 34410  34416M 34512M 34556M 34610M 34632M 34656M 34704M 34723M 34776M 34816M 34840M 34890M 34940M
             35005M 35137  35190M 35203N 35204N 35205N 35226M 35227M 35227N 35367M 35392M 35424  35450  35578M 35613
             35639  35650M 35676M 35714M 35752M 35790M 35828M 35866M 35925M 36072  36122M 36135N 36136N 36137N 36174M
             36181  36212M 36246M 36284M 36322M 36344M 36373M 36435M 36489M 36523M 36586M 36629M 36650M 36673M 36720M
             36738M 36778M 36802M 36823M 36849M 36869D 36871M 36871  36872M 36873U 36894M 36929M 36949D 36951M 36951
             36952M 36953U 36973M 37007M 37070M 37134M 37161M 37193M 37238M 37280M 37301M 37324M 37371M 37389M 37432M
             37459M 37483M 37521M 37572M 37624M 37646M 37671M 37677M 37717M 37736M 37757M 37791M 37863M 37886M 37894
             37925M 37950M 37975  38011  38056M 38077D 38079M 38079  38080M 38081U 38105M 38129M 38151M 38175M 38197M
             38216M 38239M 38255M 38275M 38309M 38348M 38399M 38435M 38474M 38495M 38515M 38536D 38538M 38538  38539M
             38540U 38564M 38588M 38610M 38634M 38656M 38675M 38731M 38752D 38754M 38754  38755M 38756U 38780M 38804M
             38826M 38850M 38872M 38932M 38994  39049M 39070D 39072M 39072  39073M 39074U 39096M 39140M 39183M 39210M
             39263M 39306M 39464  39540M 39699M 39706  39756M 39855M 39893M 39915M 39938M 39965M 39992M 40036  40077M
             40131  40157M 40178M 40379  40420M 40440  40481M 40501  40547M 40567  40613M 40633  40679M 40699  40746M
             40766  40812M 40832  40879M 40899  40945M 40965  41012M 41032  41079M 41130  41213M 41275M 41296M 41324M
             41377M 41398M 41426M 41520M 41723  41764M 41784  41812M 41813M 41813N 41899M 41919  41947M 41948M 41948N
             41977M 41978M 41978N 41999M 42019  42047M 42048M 42048N 42133M 42153  42203M 42223  42275M 42385M 42509
             42564  42641M 42800M 42825M 42847M 42863M 42886M 42913M 42947M 42962M 43067M 43092  43120M 43153M 43232M
             43251M 43305M 43390M 43414  43420M 43436M 43437M 43466M 43499M 43541M 43574M 43598M 43631M 43704M 43729
             43839  43854M 43883  43935M 44041M 44102U 44187M 44216U 44222  44237M 44275  44327M 44355M 44461M 44522U
             44704M 44733U 44739  44754M 44792  44844M 44872M 44972M 45015M 45062M 45137M 45161M 45185M 45260U 45442M
             45471U 45477  45492M 45596  45622  45653M 45681M 45704M 45724M 45752M 45787M 45811M 45830M 45854M 45874M
             45898M 45933M 45952M 45973M 46012M 46030M 46051M 46122M 46147  46148M 46210M 46274M 46321  46347  46376M
             46414M 46436M 46479M 46502M 46540M 46563M 46612M 46645M 46674M 46723M 46752M 46785M 46824M 46862M 46900M
             46938M 46976M 47014M 47052M 47091M 47127M 47147M 47201M 47241M 47289  47315  47345M 47397M 47421M 47459M
             47562M 47606M 47628M 47652M 47686M 47716M 47745M 47800M 47869M 47893M 47917M 47940M 47960M 47988M 48032M
             48065M 48133M 48234M 48278M 48300M 48324M 48368M 48392M 48414M 48460M 48499M 48523M 48585M 48618M 48657M
             48802  48846  48916M 48996U 49055U 49097M 49151M 49180M 49221M 49275M
     2(2)      974U  2096   8452   8945M  8963   9023M  9051   9251M  9272   9353M  9354   9481M  9502   9625M  9646
              9674M  9675M  9675N  9791M  9807   9808M  9821   9856M  9876   9917M  9937  10162M 10182  10228M 10248
             10295M 10315  10361M 10381  10427M 10447  10494M 10514  10567M 10587  10640M 10660  10710M 10730  10797M
             10817  10884M 10904  10971M 10991  11058M 11078  11145M 11165  11232M 11252  11319M 11339  11406M 11426
             11493M 11513  11580M 11600  11667M 11687  11754M 11774  11841M 11861  11907M 11927  11994M 12014  12081M
             12101  12168M 12188  12255M 12275  12342M 12362  12429M 12449  12516M 12536  12582M 12602  12669M 12689
             12756M 12779  12811M 12819  12853  12854  12886  12895  12918M 12938  12979M 12999  13128M 13843  14402M
             14447  14982M 15049  15166M 15195  15284M 15310  15412M 15438  15832M 16853  16900M 16920  16960M 16980
             17101M 17191  17288M 17308  17564M 17616  17663M 17683  17729M 17749  17796M 17816  17862M 17882  17929M
             17949  17995M 18015  18062M 18082  18128M 18148  18195M 18215  18261M 18281  18327M 18347  18394M 18414
             18461M 18481  18527M 18547  18593M 18613  18660M 18680  18726M 18746  18793M 18813  18860M 18880  18926M
             18946  18992M 19012  19059M 19079  19125M 19145  19192M 19212  19274M 19294  19357M 19377  19423M 19443
             19490M 19510  19556M 19576  19623M 19643  19689M 19709  19756M 19776  19822M 19842  19889M 19909  19987M
             20007  20087M 20107  20148M 20168  20369M 20389  20436M 20456  20503M 20523  20573M 20593  20650M 20670
             20730M 20750  20809M 20829  20888M 20908  20967M 20987  21046M 21066  21112M 21132  21179M 21199  21280M
             21300  21364M 21381  21411M 21431  21533M 21599  21646M 21666  21716M 21736  21777M 21797  21847M 21867
1         (TOPS2025) (12:57) (15MAR04) General Purpose Register Cross Reference                                             Page  223
             21893M 21894M 22069M 22078  22093M 22124  22238M 22446  22593M 22671  22743M 22743  22758  22785M 22817M
             22866  23014M 23032  23826M 23886  23936M 23957  25513M 25533  25610M 25671M 25684M 25684  25754M 25834
             26157M 26221  26909D 26911M 26911  26912M 26913U 26914  27041M 27165  27214M 27234  27340M 27360  27406M
             27440  27522M 27609  28084M 28163  28214M 28235  28595M 28629  28826M 28861  28911M 28932  29298M 29606M
             30811M 30847  30990M 31011  31210M 31432M 31549  31855M 31883  32945M 32998  33134M 33182  33530M 33601
             33727M 33737U 33819U 34275M 34308  34411M 34431  34503M 34517  34677D 34679M 34679  34680M 34681U 34693
             34723  35005M 35137  35392M 35424  35578M 35613  35925M 36072  36444M 36444  36463M 36471M 36471  36480M
             36480  36694D 36696M 36696  36697M 36698U 36710  36738  37345D 37347M 37347  37348M 37349U 37361  37389
             37698M 37736  37794M 37950M 37975  38362M 38363M 38363N 38373U 38422U 38932M 38994  39306M 39464  40077M
             40131  40178M 40379  40420M 40440  40481M 40501  40547M 40567  40613M 40633  40679M 40699  40746M 40766
             40812M 40832  40879M 40899  40945M 40965  41012M 41032  41079M 41130  41278  41280M 41287M 41299  41301M
             41308M 41380  41382M 41389M 41401  41403M 41410M 41520M 41723  41764M 41784  41899M 41919  41999M 42019
             42133M 42153  42203M 42223  42385M 42509  43704M 43729  43854M 43883  44176M 44187  44237M 44275  44692M
             44704  44754M 44792  45052M 45071  45185  45430M 45442  45492M 45596  46146M 46274M 46321  47241M 47289
             47515M 47551  47673D 47675M 47675  47676M 47677U 47705  47734  48657M 48802  48877M 48877  48894M 48942M
             48942  49063M 49063  49080M 49203M 49203  49275M
     3(3)      970U  2096   8452   8928M  8939M  8939   8952   8963M  9023M  9051   9251M  9272   9361M  9444   9455M
              9481M  9502   9625M  9646   9790M  9828   9856M  9876   9917M  9937  10162M 10182  10228M 10248  10295M
             10315  10361M 10381  10427M 10447  10494M 10514  10567M 10587  10640M 10660  10710M 10730  10797M 10817
             10884M 10904  10971M 10991  11058M 11078  11145M 11165  11232M 11252  11319M 11339  11406M 11426  11493M
             11513  11580M 11600  11667M 11687  11754M 11774  11841M 11861  11907M 11927  11994M 12014  12081M 12101
             12168M 12188  12255M 12275  12342M 12362  12429M 12449  12516M 12536  12582M 12602  12669M 12689  12756M
             12779  12918M 12938  12979M 12999  13128M 13843  14402M 14447  14982M 15049  15166M 15195  15284M 15310
             15412M 15438  15832M 16853  16900M 16920  16960M 16980  17288M 17308  17564M 17616  17663M 17683  17729M
             17749  17796M 17816  17862M 17882  17929M 17949  17995M 18015  18062M 18082  18128M 18148  18195M 18215
             18261M 18281  18327M 18347  18394M 18414  18461M 18481  18527M 18547  18593M 18613  18660M 18680  18726M
             18746  18793M 18813  18860M 18880  18926M 18946  18992M 19012  19059M 19079  19125M 19145  19192M 19212
             19274M 19294  19357M 19377  19423M 19443  19490M 19510  19556M 19576  19623M 19643  19689M 19709  19756M
             19776  19822M 19842  19889M 19909  19987M 20007  20087M 20107  20148M 20168  20369M 20389  20436M 20456
             20503M 20523  20573M 20593  20650M 20670  20730M 20750  20809M 20829  20888M 20908  20967M 20987  21046M
             21066  21112M 21132  21179M 21199  21280M 21300  21411M 21431  21533M 21599  21646M 21666  21716M 21736
             21777M 21797  21847M 21867  22093M 22124  22327M 22512  22593M 22671  22744M 22784M 22817M 22866  22997M
             23008M 23008  23021  23032M 23696M 23708M 23709M 23709  23826M 23886  23936M 23957  25513M 25533  25609M
             25669M 25754M 25834  26157M 26221  26875M 26915  26976M 27041M 27165  27214M 27234  27340M 27360  27406M
             27440  27522M 27609  27908M 27934M 27992N 28084M 28163  28214M 28235  28595M 28629  28826M 28861  28911M
             28932  29305M 29305  29613M 29613  30811M 30847  30990M 31011  31217M 31217  31432M 31549  31855M 31883
             32945M 32998  33134M 33182  33530M 33601  34275M 34308  34410M 34430  34450  34498  34500  34502M 34512
             34532M 34556  35005M 35137  35392M 35424  35578M 35613  35925M 36072  37107M 37107  37152M 37183M 37183
             37422M 37422  37950M 37975  38932M 38994  39113M 39113  39158M 39172M 39172  39252M 39252  39306M 39464
             40077M 40131  40178M 40379  40420M 40440  40481M 40501  40547M 40567  40613M 40633  40679M 40699  40746M
             40766  40812M 40832  40879M 40899  40945M 40965  41012M 41032  41079M 41130  41166M 41178  41220N 41490M
             41491M 41491N 41492  41520M 41723  41764M 41784  41899M 41919  41999M 42019  42133M 42153  42203M 42223
             42385M 42509  43704M 43729  43854M 43883  44237M 44275  44754M 44792  45492M 45596  46147M 46274M 46321
             47241M 47289  48657M 48802  49275M
     4(4)      966U  2096   8452   8901M  8991   9023M  9051   9251M  9272   9362M  9454M  9481M  9502   9625M  9646
              9856M  9876   9917M  9937  10162M 10182  10228M 10248  10295M 10315  10361M 10381  10427M 10447  10494M
             10514  10567M 10587  10640M 10660  10710M 10730  10797M 10817  10884M 10904  10971M 10991  11058M 11078
             11145M 11165  11232M 11252  11319M 11339  11406M 11426  11493M 11513  11580M 11600  11667M 11687  11754M
             11774  11841M 11861  11907M 11927  11994M 12014  12081M 12101  12168M 12188  12255M 12275  12342M 12362
             12429M 12449  12516M 12536  12582M 12602  12669M 12689  12756M 12779  12918M 12938  12979M 12999  13128M
             13843  14402M 14447  14982M 15049  15166M 15195  15284M 15310  15412M 15438  15832M 16853  16900M 16920
             16960M 16980  17288M 17308  17564M 17616  17663M 17683  17729M 17749  17796M 17816  17862M 17882  17929M
             17949  17995M 18015  18062M 18082  18128M 18148  18195M 18215  18261M 18281  18327M 18347  18394M 18414
             18461M 18481  18527M 18547  18593M 18613  18660M 18680  18726M 18746  18793M 18813  18860M 18880  18926M
             18946  18992M 19012  19059M 19079  19125M 19145  19192M 19212  19274M 19294  19357M 19377  19423M 19443
             19490M 19510  19556M 19576  19623M 19643  19689M 19709  19756M 19776  19822M 19842  19889M 19909  19987M
             20007  20087M 20107  20148M 20168  20369M 20389  20436M 20456  20503M 20523  20573M 20593  20650M 20670
             20730M 20750  20809M 20829  20888M 20908  20967M 20987  21046M 21066  21112M 21132  21179M 21199  21280M
             21300  21411M 21431  21533M 21599  21646M 21666  21716M 21736  21777M 21797  21847M 21867  22093M 22124
1         (TOPS2025) (12:57) (15MAR04) General Purpose Register Cross Reference                                             Page  224
             22416M 22443M 22443  22444M 22445M 22463M 22463  22529M 22529  22593M 22671  22817M 22866  22933M 22934M
             22934  22955U 23049  23064U 23663M 23826M 23886  23936M 23957  25513M 25533  25754M 25834  26157M 26221
             26296M 26633M 26654M 26654  26683  26874M 26888M 26888  26979M 27041M 27056U 27165  27214M 27234  27340M
             27360  27406M 27419U 27440  27522M 27609  27759M 27772M 27772  27844M 27932M 27947M 27947  27996M 28039M
             28040  28084M 28163  28214M 28235  28595M 28629  28826M 28861  28911M 28932  30811M 30847  30990M 31011
             31432M 31549  31855M 31883  32945M 32998  33134M 33182  33530M 33601  34275M 34308  34430M 34431M 34439M
             34450  34497M 34498M 34502  34503  34541M 34541  34561  35005M 35137  35392M 35424  35578M 35613  35925M
             36072  36182M 37573  37651  37891  37950M 37975  38021M 38029U 38932M 38994  39306M 39464  40077M 40131
             40178M 40379  40420M 40440  40481M 40501  40547M 40567  40613M 40633  40679M 40699  40746M 40766  40812M
             40832  40879M 40899  40945M 40965  41012M 41032  41079M 41130  41220M 41228U 41231U 41520M 41723  41764M
             41784  41899M 41919  41999M 42019  42133M 42153  42203M 42223  42385M 42397U 42509  43704M 43729  43854M
             43883  43962M 43963M 43963N 43971U 44237M 44249U 44275  44382M 44383M 44383N 44391U 44754M 44766U 44792
             44899M 44900M 44900N 44908U 45492M 45504U 45596  46274M 46321  47241M 47289  48657M 48802  49275M
     5(5)      962U  2096   8452   8867M  8882M  8882   8897U  8980   8991M  8997U  9023M  9051   9088M  9096U  9251M
              9272   9481M  9502   9625M  9646   9856M  9876   9917M  9937  10162M 10182  10228M 10248  10295M 10315
             10361M 10381  10427M 10447  10494M 10514  10567M 10587  10640M 10660  10710M 10730  10797M 10817  10884M
             10904  10971M 10991  11058M 11078  11145M 11165  11232M 11252  11319M 11339  11406M 11426  11493M 11513
             11580M 11600  11667M 11687  11754M 11774  11841M 11861  11907M 11927  11994M 12014  12081M 12101  12168M
             12188  12255M 12275  12342M 12362  12429M 12449  12516M 12536  12582M 12602  12669M 12689  12756M 12779
             12918M 12938  12979M 12999  13128M 13141U 13843  14402M 14447  14982M 15049  15166M 15195  15284M 15310
             15412M 15438  15493M 15616M 15832M 16853  16900M 16920  16960M 16980  17288M 17308  17564M 17616  17663M
             17683  17729M 17749  17796M 17816  17862M 17882  17929M 17949  17995M 18015  18062M 18082  18128M 18148
             18195M 18215  18261M 18281  18327M 18347  18394M 18414  18461M 18481  18527M 18547  18593M 18613  18660M
             18680  18726M 18746  18793M 18813  18860M 18880  18926M 18946  18992M 19012  19059M 19079  19125M 19145
             19192M 19212  19274M 19294  19357M 19377  19423M 19443  19490M 19510  19556M 19576  19623M 19643  19689M
             19709  19756M 19776  19822M 19842  19889M 19909  19987M 20007  20087M 20107  20148M 20168  20369M 20389
             20436M 20456  20503M 20523  20573M 20593  20650M 20670  20730M 20750  20809M 20829  20888M 20908  20967M
             20987  21046M 21066  21112M 21132  21179M 21199  21280M 21300  21411M 21431  21533M 21599  21646M 21666
             21716M 21736  21777M 21797  21847M 21867  22093M 22124  22442M 22443M 22444  22452  22518  22593M 22671
             22697M 22817M 22866  22910M 22923M 23071  23080M 23080  23095U 23801U 23826M 23886  23936M 23957  25513M
             25533  25754M 25834  25878M 26129M 26157M 26221  26295M 26487M 26588  26615M 26662M 26662  26675  26681N
             26682N 26728N 26729M 26873M 26977M 27041M 27165  27214M 27234  27300  27318M 27321  27340M 27360  27406M
             27440  27522M 27609  27758M 27842M 27931M 27994M 28084M 28163  28214M 28235  28595M 28629  28826M 28861
             28911M 28932  30811M 30847  30990M 31011  31432M 31549  31855M 31883  31920M 31930U 32027U 32127U 32221U
             32840M 32841M 32842M 32852U 32902U 32945M 32998  33134M 33182  33530M 33601  34275M 34308  34344M 34352U
             35005M 35017U 35137  35392M 35424  35578M 35613  35925M 36072  36181M 37572  37646  37886  37950M 37975
             38011M 38019U 38932M 38951U 38994  39030M 39040U 39288U 39306M 39464  39500M 39508U 40057  40077M 40131
             40178M 40379  40420M 40440  40481M 40501  40547M 40567  40613M 40633  40679M 40699  40746M 40766  40812M
             40832  40879M 40899  40945M 40965  41012M 41032  41079M 41130  41520M 41723  41764M 41784  41899M 41919
             41999M 42019  42133M 42153  42203M 42223  42385M 42404U 42509  42586M 42587M 42587N 42597U 43672U 43704M
             43729  43854M 43883  43909M 43919U 43959U 44237M 44275  44301M 44311U 44379U 44754M 44792  44818M 44828U
             44896U 45492M 45596  45632M 45640U 46274M 46286U 46321  46357M 46365U 47241M 47254U 47289  48657M 48802
             49275M
     6(6)      958U  2096   8452   8499M  8500   9023M  9051   9077M  9085U  9251M  9272   9481M  9502   9625M  9646
              9856M  9876   9917M  9937  10162M 10182  10228M 10248  10295M 10315  10361M 10381  10427M 10447  10494M
             10514  10567M 10587  10640M 10660  10710M 10730  10797M 10817  10884M 10904  10971M 10991  11058M 11078
             11145M 11165  11232M 11252  11319M 11339  11406M 11426  11493M 11513  11580M 11600  11667M 11687  11754M
             11774  11841M 11861  11907M 11927  11994M 12014  12081M 12101  12168M 12188  12255M 12275  12342M 12362
             12429M 12449  12516M 12536  12582M 12602  12669M 12689  12756M 12779  12918M 12938  12979M 12999  13128M
             13149U 13843  14402M 14447  14982M 15049  15166M 15195  15284M 15310  15412M 15438  15475M 15483U 15832M
             16853  16900M 16920  16960M 16980  17288M 17308  17564M 17616  17663M 17683  17729M 17749  17796M 17816
             17862M 17882  17929M 17949  17995M 18015  18062M 18082  18128M 18148  18195M 18215  18261M 18281  18327M
             18347  18394M 18414  18461M 18481  18527M 18547  18593M 18613  18660M 18680  18726M 18746  18793M 18813
             18860M 18880  18926M 18946  18992M 19012  19059M 19079  19125M 19145  19192M 19212  19274M 19294  19357M
             19377  19423M 19443  19490M 19510  19556M 19576  19623M 19643  19689M 19709  19756M 19776  19822M 19842
             19889M 19909  19987M 20007  20087M 20107  20148M 20168  20369M 20389  20436M 20456  20503M 20523  20573M
             20593  20650M 20670  20730M 20750  20809M 20829  20888M 20908  20967M 20987  21046M 21066  21112M 21132
             21179M 21199  21280M 21300  21411M 21431  21533M 21599  21646M 21666  21716M 21736  21777M 21797  21847M
             21867  22093M 22124  22593M 22606U 22671  22698M 22719U 22733M 22734M 22734  22777  22796U 22817M 22866
1         (TOPS2025) (12:57) (15MAR04) General Purpose Register Cross Reference                                             Page  225
             23826M 23886  23936M 23957  25513M 25533  25754M 25834  26157M 26221  26294M 26294  26342M 26342  26559
             26588N 26589M 26663M 26675  27041M 27165  27214M 27234  27271  27317N 27319M 27321  27340M 27360  27406M
             27440  27522M 27609  27676M 27713M 27713  27738M 27738  27798  27862M 27862  27919M 27919  28084M 28163
             28214M 28235  28261M 28269U 28595M 28607U 28629  28674M 28683U 28826M 28839U 28861  28911M 28932  28998M
             29007U 30811M 30823U 30847  30990M 31011  31037M 31045U 31432M 31444U 31549  31855M 31883  31909M 31917U
             32945M 32957U 32998  33134M 33182  33218M 33226U 33530M 33543U 33601  33637M 33638  33646U 34275M 34288U
             34308  34334M 34342U 35005M 35024U 35137  35392M 35424  35450M 35458U 35578M 35590U 35613  35639M 35647U
             35925M 35937U 36072  36118M 36119  37950M 37975  38001M 38009U 38932M 38944U 38994  39306M 39464  40077M
             40131  40178M 40379  40420M 40440  40481M 40501  40547M 40567  40613M 40633  40679M 40699  40746M 40766
             40812M 40832  40879M 40899  40945M 40965  41012M 41032  41079M 41130  41520M 41723  41764M 41784  41899M
             41919  41999M 42019  42133M 42153  42203M 42223  42385M 42509  42554M 42562U 43704M 43729  43854M 43883
             44237M 44275  44754M 44792  45492M 45513U 45596  45622M 45630U 46274M 46293U 46321  46347M 46355U 47241M
             47261U 47289  47315M 47323U 48657M 48669U 48802  49275M
     7(7)      954U  2089M  2089   2090B  2096   2102B  8452   8458M  8470U  9015U  9023M  9051   9056M  9068U  9243U
              9251M  9272   9277M  9289U  9473U  9481M  9502   9507M  9519U  9617U  9625M  9646   9651M  9663U  9848U
              9856M  9876   9881M  9893U  9909U  9917M  9937   9942M  9954U 10154U 10162M 10182  10187M 10199U 10220U
             10228M 10248  10253M 10265U 10287U 10295M 10315  10320M 10332U 10353U 10361M 10381  10386M 10398U 10419U
             10427M 10447  10452M 10464U 10486U 10494M 10514  10519M 10531U 10559U 10567M 10587  10592M 10604U 10632U
             10640M 10660  10665M 10677U 10702U 10710M 10730  10735M 10747U 10789U 10797M 10817  10822M 10834U 10876U
             10884M 10904  10909M 10921U 10963U 10971M 10991  10996M 11008U 11050U 11058M 11078  11083M 11095U 11137U
             11145M 11165  11170M 11182U 11224U 11232M 11252  11257M 11269U 11311U 11319M 11339  11344M 11356U 11398U
             11406M 11426  11431M 11443U 11485U 11493M 11513  11518M 11530U 11572U 11580M 11600  11605M 11617U 11659U
             11667M 11687  11692M 11704U 11746U 11754M 11774  11779M 11791U 11833U 11841M 11861  11866M 11878U 11899U
             11907M 11927  11932M 11944U 11986U 11994M 12014  12019M 12031U 12073U 12081M 12101  12106M 12118U 12160U
             12168M 12188  12193M 12205U 12247U 12255M 12275  12280M 12292U 12334U 12342M 12362  12367M 12379U 12421U
             12429M 12449  12454M 12466U 12508U 12516M 12536  12541M 12553U 12574U 12582M 12602  12607M 12619U 12661U
             12669M 12689  12694M 12706U 12748U 12756M 12779  12784M 12796U 12910U 12918M 12938  12943M 12955U 12971U
             12979M 12999  13004M 13016U 13120U 13128M 13843  13849M 13861U 14394U 14402M 14447  14453M 14465U 14974U
             14982M 15049  15054M 15066U 15158U 15166M 15195  15200M 15212U 15276U 15284M 15310  15315M 15327U 15404U
             15412M 15438  15444M 15456U 15824U 15832M 16853  16858M 16870U 16892U 16900M 16920  16925M 16937U 16952U
             16960M 16980  16985M 16997U 17280U 17288M 17308  17313M 17325U 17556U 17564M 17616  17621M 17633U 17655U
             17663M 17683  17688M 17700U 17721U 17729M 17749  17754M 17766U 17788U 17796M 17816  17821M 17833U 17854U
             17862M 17882  17887M 17899U 17921U 17929M 17949  17954M 17966U 17987U 17995M 18015  18020M 18032U 18054U
             18062M 18082  18087M 18099U 18120U 18128M 18148  18153M 18165U 18187U 18195M 18215  18220M 18232U 18253U
             18261M 18281  18286M 18298U 18319U 18327M 18347  18352M 18364U 18386U 18394M 18414  18419M 18431U 18453U
             18461M 18481  18486M 18498U 18519U 18527M 18547  18552M 18564U 18585U 18593M 18613  18618M 18630U 18652U
             18660M 18680  18685M 18697U 18718U 18726M 18746  18751M 18763U 18785U 18793M 18813  18818M 18830U 18852U
             18860M 18880  18885M 18897U 18918U 18926M 18946  18951M 18963U 18984U 18992M 19012  19017M 19029U 19051U
             19059M 19079  19084M 19096U 19117U 19125M 19145  19150M 19162U 19184U 19192M 19212  19217M 19229U 19266U
             19274M 19294  19299M 19311U 19349U 19357M 19377  19382M 19394U 19415U 19423M 19443  19448M 19460U 19482U
             19490M 19510  19515M 19527U 19548U 19556M 19576  19581M 19593U 19615U 19623M 19643  19648M 19660U 19681U
             19689M 19709  19714M 19726U 19748U 19756M 19776  19781M 19793U 19814U 19822M 19842  19847M 19859U 19881U
             19889M 19909  19914M 19926U 19979U 19987M 20007  20012M 20024U 20079U 20087M 20107  20112M 20124U 20140U
             20148M 20168  20173M 20185U 20361U 20369M 20389  20394M 20406U 20428U 20436M 20456  20461M 20473U 20495U
             20503M 20523  20528M 20540U 20565U 20573M 20593  20598M 20610U 20642U 20650M 20670  20675M 20687U 20722U
             20730M 20750  20755M 20767U 20801U 20809M 20829  20834M 20846U 20880U 20888M 20908  20913M 20925U 20959U
             20967M 20987  20992M 21004U 21038U 21046M 21066  21071M 21083U 21104U 21112M 21132  21137M 21149U 21171U
             21179M 21199  21204M 21216U 21272U 21280M 21300  21305M 21317U 21403U 21411M 21431  21436M 21448U 21525U
             21533M 21599  21604M 21616U 21638U 21646M 21666  21671M 21683U 21708U 21716M 21736  21741M 21753U 21769U
             21777M 21797  21802M 21814U 21839U 21847M 21867  21872M 21884U 22085U 22093M 22124  22129M 22141U 22585U
             22593M 22671  22676M 22688U 22809U 22817M 22866  22872M 22884U 23818U 23826M 23886  23891M 23903U 23928U
             23936M 23957  23962M 23974U 25505U 25513M 25533  25538M 25550U 25746U 25754M 25834  25840M 25852U 26149U
             26157M 26221  26227M 26239U 27033U 27041M 27165  27170M 27182U 27206U 27214M 27234  27239M 27251U 27332U
             27340M 27360  27365M 27377U 27398U 27406M 27440  27445M 27457U 27514U 27522M 27609  27614M 27626U 28076U
             28084M 28163  28168M 28180U 28206U 28214M 28235  28240M 28252U 28587U 28595M 28629  28634M 28646U 28818U
             28826M 28861  28866M 28878U 28903U 28911M 28932  28937M 28949U 30803U 30811M 30847  30853M 30865U 30982U
             30990M 31011  31016M 31028U 31424U 31432M 31549  31555M 31567U 31847U 31855M 31883  31888M 31900U 32937U
             32945M 32998  33004M 33016U 33126U 33134M 33182  33188M 33200U 33522U 33530M 33601  33607M 33619U 34267U
             34275M 34308  34313M 34325U 34997U 35005M 35137  35143M 35155U 35384U 35392M 35424  35429M 35441U 35570U
1         (TOPS2025) (12:57) (15MAR04) General Purpose Register Cross Reference                                             Page  226
             35578M 35613  35618M 35630U 35917U 35925M 36072  36078M 36090U 37942U 37950M 37975  37980M 37992U 38924U
             38932M 38994  39000M 39012U 39298U 39306M 39464  39470M 39482U 40069U 40077M 40131  40136M 40148U 40170U
             40178M 40379  40384M 40396U 40412U 40420M 40440  40445M 40457U 40473U 40481M 40501  40506M 40518U 40539U
             40547M 40567  40572M 40584U 40605U 40613M 40633  40638M 40650U 40671U 40679M 40699  40704M 40716U 40738U
             40746M 40766  40771M 40783U 40804U 40812M 40832  40837M 40849U 40871U 40879M 40899  40904M 40916U 40937U
             40945M 40965  40970M 40982U 41004U 41012M 41032  41037M 41049U 41071U 41079M 41130  41136M 41148U 41512U
             41520M 41723  41728M 41740U 41756U 41764M 41784  41789M 41801U 41891U 41899M 41919  41924M 41936U 41991U
             41999M 42019  42024M 42036U 42125U 42133M 42153  42158M 42170U 42195U 42203M 42223  42228M 42240U 42377U
             42385M 42509  42515M 42527U 43696U 43704M 43729  43734M 43746U 43846U 43854M 43883  43888M 43900U 44229U
             44237M 44275  44280M 44292U 44746U 44754M 44792  44797M 44809U 45484U 45492M 45596  45601M 45613U 46266U
             46274M 46321  46326M 46338U 47233U 47241M 47289  47294M 47306U 48649U 48657M 48802  48808M 48820U 49267U
             49275M
     8(8)      950U  2096   8452   8454M  8484U  9010U  9019   9023M  9051   9052M  9247   9251M  9272   9273M  9477
              9481M  9502   9503M  9621   9625M  9646   9647M  9852   9856M  9876   9877M  9913   9917M  9937   9938M
             10158  10162M 10182  10183M 10224  10228M 10248  10249M 10291  10295M 10315  10316M 10357  10361M 10381
             10382M 10423  10427M 10447  10448M 10490  10494M 10514  10515M 10563  10567M 10587  10588M 10636  10640M
             10660  10661M 10706  10710M 10730  10731M 10793  10797M 10817  10818M 10880  10884M 10904  10905M 10967
             10971M 10991  10992M 11054  11058M 11078  11079M 11141  11145M 11165  11166M 11228  11232M 11252  11253M
             11315  11319M 11339  11340M 11402  11406M 11426  11427M 11489  11493M 11513  11514M 11576  11580M 11600
             11601M 11663  11667M 11687  11688M 11750  11754M 11774  11775M 11837  11841M 11861  11862M 11903  11907M
             11927  11928M 11990  11994M 12014  12015M 12077  12081M 12101  12102M 12164  12168M 12188  12189M 12251
             12255M 12275  12276M 12338  12342M 12362  12363M 12425  12429M 12449  12450M 12512  12516M 12536  12537M
             12578  12582M 12602  12603M 12665  12669M 12689  12690M 12752  12756M 12779  12780M 12914  12918M 12938
             12939M 12975  12979M 12999  13000M 13124  13128M 13843  13845M 13875U 14389U 14398  14402M 14447  14449M
             14479U 14969U 14978  14982M 15049  15050M 15162  15166M 15195  15196M 15280  15284M 15310  15311M 15408
             15412M 15438  15440M 15470U 15819U 15828  15832M 16853  16854M 16896  16900M 16920  16921M 16956  16960M
             16980  16981M 17284  17288M 17308  17309M 17560  17564M 17616  17617M 17659  17663M 17683  17684M 17725
             17729M 17749  17750M 17792  17796M 17816  17817M 17858  17862M 17882  17883M 17925  17929M 17949  17950M
             17991  17995M 18015  18016M 18058  18062M 18082  18083M 18124  18128M 18148  18149M 18191  18195M 18215
             18216M 18257  18261M 18281  18282M 18323  18327M 18347  18348M 18390  18394M 18414  18415M 18457  18461M
             18481  18482M 18523  18527M 18547  18548M 18589  18593M 18613  18614M 18656  18660M 18680  18681M 18722
             18726M 18746  18747M 18789  18793M 18813  18814M 18856  18860M 18880  18881M 18922  18926M 18946  18947M
             18988  18992M 19012  19013M 19055  19059M 19079  19080M 19121  19125M 19145  19146M 19188  19192M 19212
             19213M 19270  19274M 19294  19295M 19353  19357M 19377  19378M 19419  19423M 19443  19444M 19486  19490M
             19510  19511M 19552  19556M 19576  19577M 19619  19623M 19643  19644M 19685  19689M 19709  19710M 19752
             19756M 19776  19777M 19818  19822M 19842  19843M 19885  19889M 19909  19910M 19983  19987M 20007  20008M
             20083  20087M 20107  20108M 20144  20148M 20168  20169M 20365  20369M 20389  20390M 20432  20436M 20456
             20457M 20499  20503M 20523  20524M 20569  20573M 20593  20594M 20646  20650M 20670  20671M 20726  20730M
             20750  20751M 20805  20809M 20829  20830M 20884  20888M 20908  20909M 20963  20967M 20987  20988M 21042
             21046M 21066  21067M 21108  21112M 21132  21133M 21175  21179M 21199  21200M 21276  21280M 21300  21301M
             21407  21411M 21431  21432M 21529  21533M 21599  21600M 21642  21646M 21666  21667M 21712  21716M 21736
             21737M 21773  21777M 21797  21798M 21843  21847M 21867  21868M 22089  22093M 22124  22125M 22589  22593M
             22671  22672M 22813  22817M 22866  22868M 22898U 23813U 23822  23826M 23886  23887M 23932  23936M 23957
             23958M 25509  25513M 25533  25534M 25750  25754M 25834  25836M 25866U 26144U 26153  26157M 26221  26223M
             26253U 27028U 27037  27041M 27165  27166M 27210  27214M 27234  27235M 27321  27336  27340M 27360  27361M
             27402  27406M 27440  27441M 27518  27522M 27609  27610M 28080  28084M 28163  28164M 28210  28214M 28235
             28236M 28591  28595M 28629  28630M 28822  28826M 28861  28862M 28907  28911M 28932  28933M 30807  30811M
             30847  30849M 30879U 30977U 30986  30990M 31011  31012M 31428  31432M 31549  31551M 31581U 31842U 31851
             31855M 31883  31884M 32941  32945M 32998  33000M 33030U 33121U 33130  33134M 33182  33184M 33214U 33517U
             33526  33530M 33601  33603M 33633U 34262U 34271  34275M 34308  34309M 35001  35005M 35137  35139M 35169U
             35379U 35388  35392M 35424  35425M 35574  35578M 35613  35614M 35921  35925M 36072  36074M 36104U 37937U
             37946  37950M 37975  37976M 38928  38932M 38994  38996M 39026U 39293U 39302  39306M 39464  39466M 39496U
             40064U 40073  40077M 40131  40132M 40163N 40174  40178M 40379  40380M 40416  40420M 40440  40441M 40477
             40481M 40501  40502M 40543  40547M 40567  40568M 40609  40613M 40633  40634M 40675  40679M 40699  40700M
             40742  40746M 40766  40767M 40808  40812M 40832  40833M 40875  40879M 40899  40900M 40941  40945M 40965
             40966M 41008  41012M 41032  41033M 41075  41079M 41130  41132M 41162U 41507U 41516  41520M 41723  41724M
             41760  41764M 41784  41785M 41895  41899M 41919  41920M 41995  41999M 42019  42020M 42129  42133M 42153
             42154M 42199  42203M 42223  42224M 42381  42385M 42509  42511M 42541U 43691U 43700  43704M 43729  43730M
             43839N 43850  43854M 43883  43884M 44222N 44233  44237M 44275  44276M 44739N 44750  44754M 44792  44793M
1         (TOPS2025) (12:57) (15MAR04) General Purpose Register Cross Reference                                             Page  227
             45477N 45488  45492M 45596  45597M 46270  46274M 46321  46322M 47237  47241M 47289  47290M 48653  48657M
             48802  48804M 48834U 49262U 49271  49275M
     9(9)      946U  2096
    10(A)      942U  2096
    11(B)      938U  1160U  2096
    12(C)      934U  1169U  2096
    13(D)      930U  2096   8449   8452   8454   8455M  8455   9019M  9023   9025   9048   9051   9052   9053M  9053
              9193   9194   9195   9197M  9197   9210M  9211   9212   9213   9247M  9251   9253   9269   9272   9273
              9274M  9274   9308   9309   9310   9312M  9312   9322M  9323   9324   9325   9373   9374   9375   9377M
              9377   9387M  9388   9389   9390   9477M  9481   9483   9499   9502   9503   9504M  9504   9538   9539
              9540   9542M  9542   9552M  9553   9554   9555   9621M  9625   9627   9643   9646   9647   9648M  9648
              9718   9719   9720   9722M  9722   9734M  9735   9736   9737   9852M  9856   9858   9873   9876   9877
              9878M  9878   9913M  9917   9919   9934   9937   9938   9939M  9939   9981   9982   9983   9985M  9985
              9997M  9998   9999  10000  10158M 10162  10164  10179  10182  10183  10184M 10184  10224M 10228  10230
             10245  10248  10249  10250M 10250  10291M 10295  10297  10312  10315  10316  10317M 10317  10357M 10361
             10363  10378  10381  10382  10383M 10383  10423M 10427  10429  10444  10447  10448  10449M 10449  10490M
             10494  10496  10511  10514  10515  10516M 10516  10563M 10567  10569  10584  10587  10588  10589M 10589
             10636M 10640  10642  10657  10660  10661  10662M 10662  10706M 10710  10712  10727  10730  10731  10732M
             10732  10793M 10797  10799  10814  10817  10818  10819M 10819  10880M 10884  10886  10901  10904  10905
             10906M 10906  10967M 10971  10973  10988  10991  10992  10993M 10993  11054M 11058  11060  11075  11078
             11079  11080M 11080  11141M 11145  11147  11162  11165  11166  11167M 11167  11228M 11232  11234  11249
             11252  11253  11254M 11254  11315M 11319  11321  11336  11339  11340  11341M 11341  11402M 11406  11408
             11423  11426  11427  11428M 11428  11489M 11493  11495  11510  11513  11514  11515M 11515  11576M 11580
             11582  11597  11600  11601  11602M 11602  11663M 11667  11669  11684  11687  11688  11689M 11689  11750M
             11754  11756  11771  11774  11775  11776M 11776  11837M 11841  11843  11858  11861  11862  11863M 11863
             11903M 11907  11909  11924  11927  11928  11929M 11929  11990M 11994  11996  12011  12014  12015  12016M
             12016  12077M 12081  12083  12098  12101  12102  12103M 12103  12164M 12168  12170  12185  12188  12189
             12190M 12190  12251M 12255  12257  12272  12275  12276  12277M 12277  12338M 12342  12344  12359  12362
             12363  12364M 12364  12425M 12429  12431  12446  12449  12450  12451M 12451  12512M 12516  12518  12533
             12536  12537  12538M 12538  12578M 12582  12584  12599  12602  12603  12604M 12604  12665M 12669  12671
             12686  12689  12690  12691M 12691  12752M 12756  12758  12776  12779  12780  12781M 12781  12914M 12918
             12920  12935  12938  12939  12940M 12940  12975M 12979  12981  12996  12999  13000  13001M 13001  13124M
             13128  13130  13840  13843  13845  13846M 13846  13906  13907  13908  13910M 13910  13922M 13923  13924
             13925  14398M 14402  14404  14444  14447  14449  14450M 14450  14511  14512  14513  14515M 14515  14527M
             14528  14529  14530  14978M 14982  14984  15046  15049  15050  15051M 15051  15162M 15166  15168  15192
             15195  15196  15197M 15197  15280M 15284  15286  15307  15310  15311  15312M 15312  15408M 15412  15414
             15435  15438  15440  15441M 15441  15489  15491M 15491  15498M 15503  15505M 15505  15516  15517  15518
             15520M 15520  15533M 15534  15535  15536  15828M 15832  15834  16850  16853  16854  16855M 16855  16896M
             16900  16902  16917  16920  16921  16922M 16922  16956M 16960  16962  16977  16980  16981  16982M 16982
             17072  17073  17074  17076M 17076  17086M 17087  17088  17089  17284M 17288  17290  17305  17308  17309
             17310M 17310  17560M 17564  17566  17613  17616  17617  17618M 17618  17659M 17663  17665  17680  17683
             17684  17685M 17685  17725M 17729  17731  17746  17749  17750  17751M 17751  17792M 17796  17798  17813
             17816  17817  17818M 17818  17858M 17862  17864  17879  17882  17883  17884M 17884  17925M 17929  17931
             17946  17949  17950  17951M 17951  17991M 17995  17997  18012  18015  18016  18017M 18017  18058M 18062
             18064  18079  18082  18083  18084M 18084  18124M 18128  18130  18145  18148  18149  18150M 18150  18191M
             18195  18197  18212  18215  18216  18217M 18217  18257M 18261  18263  18278  18281  18282  18283M 18283
             18323M 18327  18329  18344  18347  18348  18349M 18349  18390M 18394  18396  18411  18414  18415  18416M
             18416  18457M 18461  18463  18478  18481  18482  18483M 18483  18523M 18527  18529  18544  18547  18548
             18549M 18549  18589M 18593  18595  18610  18613  18614  18615M 18615  18656M 18660  18662  18677  18680
             18681  18682M 18682  18722M 18726  18728  18743  18746  18747  18748M 18748  18789M 18793  18795  18810
             18813  18814  18815M 18815  18856M 18860  18862  18877  18880  18881  18882M 18882  18922M 18926  18928
             18943  18946  18947  18948M 18948  18988M 18992  18994  19009  19012  19013  19014M 19014  19055M 19059
             19061  19076  19079  19080  19081M 19081  19121M 19125  19127  19142  19145  19146  19147M 19147  19188M
             19192  19194  19209  19212  19213  19214M 19214  19270M 19274  19276  19291  19294  19295  19296M 19296
             19353M 19357  19359  19374  19377  19378  19379M 19379  19419M 19423  19425  19440  19443  19444  19445M
             19445  19486M 19490  19492  19507  19510  19511  19512M 19512  19552M 19556  19558  19573  19576  19577
             19578M 19578  19619M 19623  19625  19640  19643  19644  19645M 19645  19685M 19689  19691  19706  19709
             19710  19711M 19711  19752M 19756  19758  19773  19776  19777  19778M 19778  19818M 19822  19824  19839
             19842  19843  19844M 19844  19885M 19889  19891  19906  19909  19910  19911M 19911  19983M 19987  19989
1         (TOPS2025) (12:57) (15MAR04) General Purpose Register Cross Reference                                             Page  228
             20004  20007  20008  20009M 20009  20083M 20087  20089  20104  20107  20108  20109M 20109  20144M 20148
             20150  20165  20168  20169  20170M 20170  20205  20206  20207  20209M 20209  20221M 20222  20223  20224
             20365M 20369  20371  20386  20389  20390  20391M 20391  20432M 20436  20438  20453  20456  20457  20458M
             20458  20499M 20503  20505  20520  20523  20524  20525M 20525  20569M 20573  20575  20590  20593  20594
             20595M 20595  20646M 20650  20652  20667  20670  20671  20672M 20672  20726M 20730  20732  20747  20750
             20751  20752M 20752  20805M 20809  20811  20826  20829  20830  20831M 20831  20884M 20888  20890  20905
             20908  20909  20910M 20910  20963M 20967  20969  20984  20987  20988  20989M 20989  21042M 21046  21048
             21063  21066  21067  21068M 21068  21108M 21112  21114  21129  21132  21133  21134M 21134  21175M 21179
             21181  21196  21199  21200  21201M 21201  21235  21236  21237  21239M 21239  21252M 21253  21254  21255
             21276M 21280  21282  21297  21300  21301  21302M 21302  21407M 21411  21413  21428  21431  21432  21433M
             21433  21529M 21533  21535  21596  21599  21600  21601M 21601  21642M 21646  21648  21663  21666  21667
             21668M 21668  21712M 21716  21718  21733  21736  21737  21738M 21738  21773M 21777  21779  21794  21797
             21798  21799M 21799  21843M 21847  21849  21864  21867  21868  21869M 21869  21905  21906  21907  21909M
             21909  21921M 21922  21923  21924  22089M 22093  22095  22121  22124  22125  22126M 22126  22160  22161
             22162  22164M 22164  22176M 22177  22178  22179  22249  22250  22251  22253M 22253  22265M 22266  22267
             22268  22338  22339  22340  22342M 22342  22354M 22355  22356  22357  22589M 22593  22595  22668  22671
             22672  22673M 22673  22813M 22817  22819  22863  22866  22868  22869M 22869  23663  23664M 23664  23791M
             23822M 23826  23828  23883  23886  23887  23888M 23888  23932M 23936  23938  23954  23957  23958  23959M
             23959  25509M 25513  25515  25530  25533  25534  25535M 25535  25750M 25754  25756  25831  25834  25836
             25837M 25837  25874  25876M 25876  25883M 25888  25890M 25890  25901  25902  25903  25905M 25905  25917M
             25918  25919  25920  26153M 26157  26159  26218  26221  26223  26224M 26224  26307  26308  26309  26311M
             26311  26324M 26325  26326  26327  27037M 27041  27043  27162  27165  27166  27167M 27167  27210M 27214
             27216  27231  27234  27235  27236M 27236  27336M 27340  27342  27357  27360  27361  27362M 27362  27402M
             27406  27408  27437  27440  27441  27442M 27442  27476  27477  27478  27480M 27480  27493M 27494  27495
             27496  27518M 27522  27524  27606  27609  27610  27611M 27611  27908  27909M 27909  28080M 28084  28086
             28160  28163  28164  28165M 28165  28210M 28214  28216  28232  28235  28236  28237M 28237  28591M 28595
             28597  28626  28629  28630  28631M 28631  28674  28675M 28675  28822M 28826  28828  28858  28861  28862
             28863M 28863  28907M 28911  28913  28929  28932  28933  28934M 28934  28998  28999M 28999  29307  29308M
             29308  29338M 29615  29616M 29616  29646M 30807M 30811  30813  30844  30847  30849  30850M 30850  30986M
             30990  30992  31008  31011  31012  31013M 31013  31219  31220M 31220  31250M 31428M 31432  31434  31546
             31549  31551  31552M 31552  31851M 31855  31857  31880  31883  31884  31885M 31885  32941M 32945  32947
             32995  32998  33000  33001M 33001  33130M 33134  33136  33179  33182  33184  33185M 33185  33526M 33530
             33532  33598  33601  33603  33604M 33604  34271M 34275  34277  34305  34308  34309  34310M 34310  34500
             34501M 34501  34531M 34532  35001M 35005  35007  35134  35137  35139  35140M 35140  35185  35187M 35187
             35198  35199  35200  35202M 35202  35214M 35215  35216  35217  35269M 35388M 35392  35394  35421  35424
             35425  35426M 35426  35574M 35578  35580  35610  35613  35614  35615M 35615  35921M 35925  35927  36069
             36072  36074  36075M 36075  36130  36131  36132  36134M 36134  36146M 36147  36148  36149  36396  36397M
             36397  36430M 36435  36436M 36436  36469M 37791  37792M 37792  37946M 37950  37952  37972  37975  37976
             37977M 37977  38928M 38932  38934  38991  38994  38996  38997M 38997  39302M 39306  39308  39461  39464
             39466  39467M 39467  39685  39687M 39687  39742M 40019  40021M 40021  40050M 40073M 40077  40079  40128
             40131  40132  40133M 40133  40174M 40178  40180  40376  40379  40380  40381M 40381  40416M 40420  40422
             40437  40440  40441  40442M 40442  40477M 40481  40483  40498  40501  40502  40503M 40503  40543M 40547
             40549  40564  40567  40568  40569M 40569  40609M 40613  40615  40630  40633  40634  40635M 40635  40675M
             40679  40681  40696  40699  40700  40701M 40701  40742M 40746  40748  40763  40766  40767  40768M 40768
             40808M 40812  40814  40829  40832  40833  40834M 40834  40875M 40879  40881  40896  40899  40900  40901M
             40901  40941M 40945  40947  40962  40965  40966  40967M 40967  41008M 41012  41014  41029  41032  41033
             41034M 41034  41075M 41079  41081  41127  41130  41132  41133M 41133  41262  41263  41264  41266M 41266
             41278  41279M 41279  41286M 41287  41299  41300M 41300  41307M 41308  41337M 41338  41339  41340  41364
             41365  41366  41368M 41368  41380  41381M 41381  41388M 41389  41401  41402M 41402  41409M 41410  41439M
             41440  41441  41442  41516M 41520  41522  41720  41723  41724  41725M 41725  41760M 41764  41766  41781
             41784  41785  41786M 41786  41895M 41899  41901  41916  41919  41920  41921M 41921  41995M 41999  42001
             42016  42019  42020  42021M 42021  42129M 42133  42135  42150  42153  42154  42155M 42155  42199M 42203
             42205  42220  42223  42224  42225M 42225  42381M 42385  42387  42506  42509  42511  42512M 42512  43414
             43415M 43415  43435M 43436  43700M 43704  43706  43726  43729  43730  43731M 43731  43850M 43854  43856
             43880  43883  43884  43885M 43885  44176  44177M 44177  44208M 44233M 44237  44239  44272  44275  44276
             44277M 44277  44692  44693M 44693  44725M 44750M 44754  44756  44789  44792  44793  44794M 44794  45052
             45053M 45053  45210M 45430  45431M 45431  45463M 45488M 45492  45494  45593  45596  45597  45598M 45598
             46164  46165M 46165  46195M 46270M 46274  46276  46318  46321  46322  46323M 46323  47237M 47241  47243
             47286  47289  47290  47291M 47291  47459  47460M 47460  47784M 48653M 48657  48659  48799  48802  48804
1         (TOPS2025) (12:57) (15MAR04) General Purpose Register Cross Reference                                             Page  229
             48805M 48805  49116  49117M 49117  49150M 49271M 49275  49277
    14(E)      926U  2096   2097M  2111   2112M  2113B  2115M  2116B  2136M  2137B  2141M  2142B  2144M  2145B  2147M
              2148B  2150M  2151B  2153M  2154M  2154B  2160   8449   8575M  8576M  8576B  8597M  8598M  8598B  8633M
              8634M  8634B  8648M  8649M  8649B  8663M  8664N  8665N  8669M  8669   8672M  8673M  8673B  8676M  8677M
              8677B  8681M  8682M  8682B  8685M  8686M  8686B  8703M  8704M  8704B  8708M  8709M  8709B  8734M  8735M
              8735B  8739M  8740M  8740B  8836M  8837M  8837B  8858M  8859M  8859B  8961M  8962M  8962B  8984M  8985M
              8985B  9025M  9028B  9048   9176M  9177N  9178N  9182M  9182   9192M  9193   9194   9195   9200M  9201
              9204M  9205M  9205B  9208M  9211   9212   9213   9231M  9232M  9232B  9253M  9256B  9269   9307M  9308
              9309   9310   9316M  9317M  9317B  9320M  9323   9324   9325   9372M  9373   9374   9375   9381M  9382M
              9382B  9385M  9388   9389   9390   9483M  9486B  9499   9537M  9538   9539   9540   9546M  9547M  9547B
              9550M  9553   9554   9555   9627M  9630B  9643   9717M  9718   9719   9720   9728M  9729M  9729B  9732M
              9735   9736   9737   9758M  9759M  9759B  9781M  9782M  9782B  9795M  9796M  9796B  9816M  9830M  9858M
              9861B  9873   9919M  9922B  9934   9980M  9981   9982   9983   9991M  9992M  9992B  9995M  9998   9999
             10000  10051M 10052M 10052B 10083M 10084N 10099N 10114N 10115N 10116  10116  10117N 10118N 10131N 10135M
             10135  10164M 10167B 10179  10230M 10233B 10245  10297M 10300B 10312  10363M 10366B 10378  10429M 10432B
             10444  10496M 10499B 10511  10569M 10572B 10584  10642M 10645B 10657  10712M 10715B 10727  10777M 10778M
             10778B 10799M 10802B 10814  10864M 10865M 10865B 10886M 10889B 10901  10951M 10952M 10952B 10973M 10976B
             10988  11038M 11039M 11039B 11060M 11063B 11075  11125M 11126M 11126B 11147M 11150B 11162  11212M 11213M
             11213B 11234M 11237B 11249  11299M 11300M 11300B 11321M 11324B 11336  11386M 11387M 11387B 11408M 11411B
             11423  11473M 11474M 11474B 11495M 11498B 11510  11560M 11561M 11561B 11582M 11585B 11597  11647M 11648M
             11648B 11669M 11672B 11684  11734M 11735M 11735B 11756M 11759B 11771  11821M 11822M 11822B 11843M 11846B
             11858  11909M 11912B 11924  11974M 11975M 11975B 11996M 11999B 12011  12061M 12062M 12062B 12083M 12086B
             12098  12148M 12149M 12149B 12170M 12173B 12185  12235M 12236M 12236B 12257M 12260B 12272  12322M 12323M
             12323B 12344M 12347B 12359  12409M 12410M 12410B 12431M 12434B 12446  12496M 12497M 12497B 12518M 12521B
             12533  12584M 12587B 12599  12649M 12650M 12650B 12671M 12674B 12686  12736M 12737M 12737B 12758M 12761B
             12776  12809M 12810M 12810B 12819M 12835M 12920M 12923B 12935  12981M 12984B 12996  13047M 13048M 13048B
             13065M 13066M 13066B 13070M 13071M 13071B 13094M 13095M 13095B 13112M 13113M 13113B 13130M 13133B 13840
             13905M 13906  13907  13908  13916M 13917M 13917B 13920M 13923  13924  13925  13930M 13931M 13931B 13975M
             13976M 13976B 13997M 13998M 13998B 14023M 14024M 14024B 14049M 14050M 14050B 14092M 14093M 14093B 14120M
             14121M 14121B 14141M 14142M 14142B 14180M 14181M 14181B 14200M 14201N 14202N 14206M 14206  14269M 14270M
             14270B 14288M 14289M 14289B 14319M 14320M 14320B 14376M 14377M 14377B 14404M 14407B 14444  14510M 14511
             14512  14513  14521M 14522M 14522B 14525M 14528  14529  14530  14535M 14536M 14536B 14582M 14583M 14583B
             14605M 14606M 14606B 14631M 14632M 14632B 14657M 14658M 14658B 14700M 14701M 14701B 14728M 14729M 14729B
             14748M 14749M 14749B 14787M 14788M 14788B 14847M 14848M 14848B 14855M 14856N 14857N 14861M 14861  14924M
             14925M 14925B 14984M 14987B 15046  15078M 15079N 15094N 15109N 15110N 15111  15111  15112N 15113N 15126N
             15130M 15130  15150M 15151M 15151B 15168M 15171B 15192  15241M 15242M 15242B 15264M 15265M 15265B 15268M
             15269M 15269B 15286M 15289B 15307  15338M 15339M 15339B 15391M 15392M 15392B 15414M 15417B 15435  15488M
             15489  15496M 15499  15502M 15503  15515M 15516  15517  15518  15523M 15524  15527M 15528M 15528B 15531M
             15534  15535  15536  15541M 15542M 15542B 15561M 15562M 15562B 15589M 15590M 15590B 15601M 15602M 15602B
             15651M 15652M 15652B 15688M 15689M 15689B 15706M 15707M 15707B 15724M 15725M 15725B 15730M 15731M 15731B
             15734M 15735M 15735B 15763M 15764M 15764B 15781M 15782M 15782B 15805M 15806M 15806B 15834M 15837B 16850
             16902M 16905B 16917  16962M 16965B 16977  17009M 17010N 17025N 17040N 17041N 17042  17042  17043N 17044N
             17057N 17061M 17061  17071M 17072  17073  17074  17080M 17081M 17081B 17084M 17087  17088  17089  17094M
             17095M 17095B 17104M 17105M 17105B 17194M 17195M 17195B 17226M 17227M 17227B 17244M 17245M 17245B 17261M
             17262M 17262B 17290M 17293B 17305  17529M 17530M 17530B 17533M 17534M 17534B 17566M 17569B 17613  17665M
             17668B 17680  17731M 17734B 17746  17798M 17801B 17813  17864M 17867B 17879  17931M 17934B 17946  17997M
             18000B 18012  18064M 18067B 18079  18130M 18133B 18145  18197M 18200B 18212  18263M 18266B 18278  18329M
             18332B 18344  18396M 18399B 18411  18463M 18466B 18478  18529M 18532B 18544  18595M 18598B 18610  18662M
             18665B 18677  18728M 18731B 18743  18795M 18798B 18810  18862M 18865B 18877  18928M 18931B 18943  18994M
             18997B 19009  19061M 19064B 19076  19127M 19130B 19142  19194M 19197B 19209  19252M 19253M 19253B 19276M
             19279B 19291  19334M 19335M 19335B 19359M 19362B 19374  19425M 19428B 19440  19492M 19495B 19507  19558M
             19561B 19573  19625M 19628B 19640  19691M 19694B 19706  19758M 19761B 19773  19824M 19827B 19839  19891M
             19894B 19906  19989M 19992B 20004  20089M 20092B 20104  20150M 20153B 20165  20204M 20205  20206  20207
             20215M 20216M 20216B 20219M 20222  20223  20224  20229M 20230M 20230B 20258M 20259M 20259B 20290M 20291N
             20306N 20321N 20322N 20323  20323  20324N 20325N 20338N 20342M 20342  20371M 20374B 20386  20438M 20441B
             20453  20505M 20508B 20520  20551M 20552M 20552B 20575M 20578B 20590  20621M 20622M 20622B 20652M 20655B
             20667  20732M 20735B 20747  20811M 20814B 20826  20890M 20893B 20905  20969M 20972B 20984  21048M 21051B
             21063  21114M 21117B 21129  21181M 21184B 21196  21234M 21235  21236  21237  21242M 21243  21246M 21247M
             21247B 21250M 21253  21254  21255  21260M 21261M 21261B 21282M 21285B 21297  21347M 21348M 21348B 21370M
1         (TOPS2025) (12:57) (15MAR04) General Purpose Register Cross Reference                                             Page  230
             21370  21371M 21387M 21387  21388M 21413M 21416B 21428  21460M 21461N 21476N 21491N 21492N 21493  21493
             21494N 21495N 21508N 21512M 21512  21516M 21517M 21517B 21535M 21538B 21596  21648M 21651B 21663  21694M
             21695M 21695B 21718M 21721B 21733  21779M 21782B 21794  21825M 21826M 21826B 21849M 21852B 21864  21904M
             21905  21906  21907  21915M 21916M 21916B 21919M 21922  21923  21924  21929M 21930M 21930B 21958M 21959M
             21959B 21975M 21976N 21991N 22006N 22007N 22008  22008  22009N 22010N 22023N 22027M 22027  22063M 22064M
             22064B 22095M 22098B 22121  22159M 22160  22161  22162  22170M 22171M 22171B 22174M 22177  22178  22179
             22184M 22185M 22185B 22216M 22217M 22217B 22232M 22233M 22233B 22248M 22249  22250  22251  22259M 22260M
             22260B 22263M 22266  22267  22268  22273M 22274M 22274B 22305M 22306M 22306B 22321M 22322M 22322B 22337M
             22338  22339  22340  22348M 22349M 22349B 22352M 22355  22356  22357  22362M 22363M 22363B 22394M 22395M
             22395B 22410M 22411M 22411B 22431M 22432M 22432B 22595M 22598B 22668  22819M 22822B 22863  23030M 23031M
             23031B 23053M 23054M 23054B 23147M 23148M 23148B 23177M 23178M 23178B 23211M 23212M 23212B 23229M 23230M
             23230B 23274M 23275M 23275B 23292M 23293M 23293B 23310M 23311M 23311B 23316M 23317M 23317B 23320M 23321M
             23321B 23351M 23352M 23352B 23559M 23560M 23560B 23621M 23622M 23622B 23660M 23661M 23661B 23742M 23743M
             23743B 23756M 23757M 23757B 23786M 23787M 23787B 23828M 23831B 23883  23914M 23915M 23915B 23919M 23920M
             23920B 23938M 23941B 23954  23999M 24000M 24000B 24029M 24030M 24030B 24080M 24081M 24081B 24098M 24099M
             24099B 24122M 24123M 24123B 24178M 24179M 24179B 24206M 24207M 24207B 24245M 24246M 24246B 24264M 24265M
             24265B 24288M 24289M 24289B 24327M 24328M 24328B 24346M 24347M 24347B 24370M 24371M 24371B 24426M 24427M
             24427B 24444M 24445M 24445B 24468M 24469M 24469B 24507M 24508M 24508B 24529M 24530M 24530B 24563M 24564M
             24564B 24585M 24586M 24586B 24619M 24620M 24620B 24641M 24642M 24642B 24675M 24676M 24676B 24697M 24698M
             24698B 24731M 24732M 24732B 24760M 24761M 24761B 24791M 24792M 24792B 24825M 24826M 24826B 24847M 24848M
             24848B 24899M 24900M 24900B 24933M 24934M 24934B 24955M 24956M 24956B 24989M 24990M 24990B 25011M 25012M
             25012B 25063M 25064M 25064B 25098M 25099M 25099B 25120M 25121M 25121B 25155M 25156M 25156B 25194M 25195M
             25195B 25233M 25234M 25234B 25272M 25273M 25273B 25311M 25312M 25312B 25333M 25334M 25334B 25352M 25353M
             25353B 25373M 25374M 25374B 25392M 25393M 25393B 25413M 25414M 25414B 25431M 25432M 25432B 25452M 25453M
             25453B 25478M 25479M 25479B 25515M 25518B 25530  25592M 25593M 25593B 25643M 25644M 25644B 25667M 25668M
             25668B 25734M 25735M 25735B 25756M 25759B 25831  25873M 25874  25881M 25884  25887M 25888  25900M 25901
             25902  25903  25911M 25912M 25912B 25915M 25918  25919  25920  25925M 25926M 25926B 25954M 25955M 25955B
             26067M 26068M 26068B 26102M 26103M 26103B 26114M 26115M 26115B 26159M 26162B 26218  26306M 26307  26308
             26309  26314M 26315  26318M 26319M 26319B 26322M 26325  26326  26327  26332M 26333M 26333B 26398M 26399M
             26399B 26416M 26417M 26417B 26426M 26427M 26427B 26484M 26485M 26485B 26745M 26746M 26746B 26769M 26770M
             26770B 26832M 26833M 26833B 26871M 26872M 26872B 26952M 26953M 26953B 26970M 26971M 26971B 27015M 27016M
             27016B 27043M 27046B 27162  27194M 27195M 27195B 27216M 27219B 27231  27342M 27345B 27357  27408M 27411B
             27437  27475M 27476  27477  27478  27483M 27484  27487M 27488M 27488B 27491M 27494  27495  27496  27501M
             27502M 27502B 27505M 27506M 27506B 27524M 27527B 27606  27669M 27670M 27670B 27816M 27817M 27817B 27840M
             27841M 27841B 27899M 27900M 27900B 28036M 28037M 28037B 28067M 28068M 28068B 28086M 28089B 28160  28191M
             28192M 28192B 28197M 28198M 28198B 28216M 28219B 28232  28288M 28289M 28289B 28307M 28308M 28308B 28331M
             28332M 28332B 28349M 28350M 28350B 28368M 28369M 28369B 28392M 28393M 28393B 28410M 28411M 28411B 28429M
             28430M 28430B 28453M 28454M 28454B 28471M 28472M 28472B 28490M 28491M 28491B 28514M 28515M 28515B 28532M
             28533M 28533B 28553M 28554M 28554B 28578M 28579M 28579B 28597M 28600B 28626  28657M 28658M 28658B 28670M
             28671M 28671B 28767M 28768M 28768B 28828M 28831B 28858  28889M 28890M 28890B 28894M 28895M 28895B 28913M
             28916B 28929  28981M 28982M 28982B 28994M 28995M 28995B 29091M 29092M 29092B 29115M 29116M 29116B 29166M
             29167M 29167B 29184M 29185M 29185B 29208M 29209M 29209B 29226M 29227M 29227B 29248M 29249M 29249B 29273M
             29274M 29274B 29292M 29293M 29293B 29296M 29297M 29297B 29311M 29312M 29312B 29335M 29336M 29336B 29362M
             29363M 29363B 29368M 29369M 29369B 29391M 29392M 29392B 29409M 29410M 29410B 29431M 29432M 29432B 29449M
             29450M 29450B 29475M 29476M 29476B 29496M 29497M 29497B 29514M 29515M 29515B 29535M 29536M 29536B 29553M
             29554M 29554B 29600M 29601M 29601B 29604M 29605M 29605B 29619M 29620M 29620B 29643M 29644M 29644B 29663M
             29664M 29664B 29687M 29688M 29688B 29717M 29718M 29718B 29735M 29736M 29736B 29759M 29760M 29760B 29777M
             29778M 29778B 29801M 29802M 29802B 29819M 29820M 29820B 29843M 29844M 29844B 29861M 29862M 29862B 29891M
             29892M 29892B 29915M 29916M 29916B 29933M 29934M 29934B 29959M 29960M 29960B 29978M 29979M 29979B 30002M
             30003M 30003B 30020M 30021M 30021B 30046M 30047M 30047B 30064M 30065M 30065B 30084M 30085M 30085B 30108M
             30109M 30109B 30126M 30127M 30127B 30146M 30147M 30147B 30170M 30171M 30171B 30188M 30189M 30189B 30219M
             30220M 30220B 30237M 30238M 30238B 30242M 30242  30245M 30269M 30270M 30270B 30287M 30288M 30288B 30292M
             30292  30295M 30319M 30320M 30320B 30337M 30338M 30338B 30360M 30361M 30361B 30384M 30385M 30385B 30402M
             30403M 30403B 30433M 30434M 30434B 30438M 30438  30441M 30465M 30466M 30466B 30483M 30484M 30484B 30488M
             30488  30491M 30515M 30516M 30516B 30533M 30534M 30534B 30556M 30557M 30557B 30580M 30581M 30581B 30598M
             30599M 30599B 30629M 30630M 30630B 30634M 30634  30637M 30661M 30662M 30662B 30679M 30680M 30680B 30684M
             30684  30687M 30711M 30712M 30712B 30729M 30730M 30730B 30752M 30753M 30753B 30776M 30777M 30777B 30794M
             30795M 30795B 30813M 30816B 30844  30892M 30893M 30893B 30904M 30905M 30905B 30968M 30969M 30969B 30992M
             30995B 31008  31065M 31066M 31066B 31089M 31090M 31090B 31107M 31108M 31108B 31143M 31144M 31144B 31162M
1         (TOPS2025) (12:57) (15MAR04) General Purpose Register Cross Reference                                             Page  231
             31163M 31163B 31186M 31187M 31187B 31204M 31205M 31205B 31208M 31209M 31209B 31223M 31224M 31224B 31247M
             31248M 31248B 31267M 31268M 31268B 31290M 31291M 31291B 31309M 31310M 31310B 31333M 31334M 31334B 31351M
             31352M 31352B 31386M 31387M 31387B 31415M 31416M 31416B 31434M 31437B 31546  31636M 31637N 31652N 31667N
             31668N 31669  31669  31670N 31671N 31684N 31688M 31688  31691M 31692N 31693N 31697M 31697  31770M 31771
             31775M 31775  31783M 31784M 31784B 31833M 31834M 31834B 31857M 31860B 31880  31986M 31987M 31987B 32014M
             32015M 32015B 32063M 32064M 32064B 32087M 32088M 32088B 32105M 32106M 32106B 32115M 32116M 32116B 32163M
             32164M 32164B 32191M 32192M 32192B 32209M 32210M 32210B 32257M 32258M 32258B 32285M 32286M 32286B 32303M
             32304M 32304B 32331M 32332M 32332B 32349M 32350M 32350B 32388M 32389M 32389B 32427M 32428M 32428B 32448M
             32449M 32449B 32466M 32467M 32467B 32505M 32506M 32506B 32554M 32555M 32555B 32592M 32593M 32593B 32635M
             32636M 32636B 32731M 32732M 32732B 32831M 32832M 32832B 32890M 32891M 32891B 32928M 32929M 32929B 32947M
             32950B 32995  33049M 33050  33054M 33054  33062M 33063M 33063B 33112M 33113M 33113B 33136M 33139B 33179
             33247M 33248M 33248B 33279M 33280M 33280B 33298M 33299M 33299B 33326M 33327M 33327B 33344M 33345M 33345B
             33372M 33373M 33373B 33391M 33392M 33392B 33410M 33411M 33411B 33437M 33438M 33438B 33455M 33456M 33456B
             33483M 33484M 33484B 33508M 33509M 33509B 33532M 33535B 33598  33662M 33663  33667M 33667  33675M 33676M
             33676B 33850M 33851M 33851B 33868M 33869M 33869B 33889M 33890M 33890B 33907M 33908M 33908B 33928M 33929M
             33929B 33946M 33947M 33947B 33971M 33972M 33972B 33990M 33991M 33991B 34011M 34012M 34012B 34029M 34030M
             34030B 34050M 34051M 34051B 34068M 34069M 34069B 34093M 34094M 34094B 34105M 34106M 34106B 34165M 34166M
             34166B 34187M 34188M 34188B 34221M 34222M 34222B 34245M 34246M 34246B 34277M 34280B 34305  34394M 34395M
             34395B 34428M 34429M 34429B 34528M 34529M 34529B 34572M 34573M 34573B 34598M 34599M 34599B 34626M 34627M
             34627B 34644M 34645M 34645B 34672M 34673M 34673B 34716M 34717M 34717B 34738M 34739M 34739B 34764M 34765M
             34765B 34792M 34793M 34793B 34828M 34829M 34829B 34856M 34857M 34857B 34878M 34879M 34879B 34906M 34907M
             34907B 34928M 34929M 34929B 34956M 34957M 34957B 34986M 34987M 34987B 35007M 35010B 35134  35184M 35185
             35197M 35198  35199  35200  35208M 35209M 35209B 35212M 35215  35216  35217  35222M 35223M 35223B 35259M
             35260M 35260B 35267M 35270  35298M 35299M 35299B 35309M 35310  35314M 35314  35322M 35323M 35323B 35370M
             35371M 35371B 35394M 35397B 35421  35580M 35583B 35610  35653M 35654M 35654B 35688M 35689M 35689B 35726M
             35727M 35727B 35764M 35765M 35765B 35802M 35803M 35803B 35840M 35841M 35841B 35878M 35879M 35879B 35908M
             35909M 35909B 35927M 35930B 36069  36129M 36130  36131  36132  36140M 36141M 36141B 36144M 36147  36148
             36149  36154M 36155M 36155B 36224M 36225M 36225B 36258M 36259M 36259B 36296M 36297M 36297B 36334M 36335M
             36335B 36356M 36357M 36357B 36389M 36390M 36390B 36393M 36394M 36394B 36400M 36401M 36401B 36427M 36428M
             36428B 36501M 36502M 36502B 36535M 36536M 36536B 36602M 36603M 36603B 36645M 36646M 36646B 36662M 36663M
             36663B 36689M 36690M 36690B 36732M 36733M 36733B 36753M 36754M 36754B 36790M 36791M 36791B 36818M 36819M
             36819B 36835M 36836M 36836B 36861M 36862M 36862B 36888M 36889M 36889B 36906M 36907M 36907B 36941M 36942M
             36942B 36968M 36969M 36969B 36985M 36986M 36986B 37019M 37020M 37020B 37086M 37087M 37087B 37150M 37151M
             37151B 37173M 37174M 37174B 37205M 37206M 37206B 37254M 37255M 37255B 37296M 37297M 37297B 37313M 37314M
             37314B 37340M 37341M 37341B 37383M 37384M 37384B 37404M 37405M 37405B 37444M 37445M 37445B 37471M 37472M
             37472B 37482M 37483N 37484N 37488M 37488  37551M 37552M 37552B 37618M 37619M 37619B 37636M 37637M 37637B
             37662M 37663M 37663B 37711M 37712M 37712B 37729M 37730M 37730B 37751M 37752M 37752B 37787M 37788M 37788B
             37846M 37847M 37847B 37855M 37856M 37856B 37893M 37894N 37895N 37899M 37899  37904M 37905  37909M 37909
             37917M 37918M 37918B 37928M 37929M 37929B 37952M 37955B 37972  38068M 38069M 38069B 38099M 38100M 38100B
             38117M 38118M 38118B 38145M 38146M 38146B 38163M 38164M 38164B 38191M 38192M 38192B 38209M 38210M 38210B
             38228M 38229M 38229B 38233M 38234M 38234B 38251M 38252M 38252B 38303M 38304M 38304B 38321M 38322M 38322B
             38360M 38361M 38361B 38411M 38412M 38412B 38451M 38452M 38452B 38486M 38487M 38487B 38498M 38499M 38499B
             38527M 38528M 38528B 38558M 38559M 38559B 38576M 38577M 38577B 38604M 38605M 38605B 38622M 38623M 38623B
             38650M 38651M 38651B 38668M 38669M 38669B 38687M 38688M 38688B 38692M 38693M 38693B 38717M 38718M 38718B
             38743M 38744M 38744B 38774M 38775M 38775B 38792M 38793M 38793B 38820M 38821M 38821B 38838M 38839M 38839B
             38866M 38867M 38867B 38884M 38885M 38885B 38889M 38890M 38890B 38914M 38915M 38915B 38934M 38937B 38991
             39061M 39062M 39062B 39089M 39090M 39090B 39108M 39109M 39109B 39156M 39157M 39157B 39195M 39196M 39196B
             39218M 39219M 39219B 39242M 39243M 39243B 39275M 39276M 39276B 39308M 39311B 39461  39523M 39528N 39532M
             39537N 39547M 39548M 39548B 39552M 39553M 39553B 39610M 39611N 39626N 39641N 39642N 39643  39643  39644N
             39645N 39658N 39662M 39662  39665M 39666M 39666B 39684M 39685  39705M 39706N 39707N 39711M 39711  39720M
             39721M 39721B 39740M 39743  39763M 39764M 39764B 39768M 39769M 39769B 39809M 39810M 39810B 40018M 40019
             40035M 40036N 40037N 40041M 40041  40044M 40045M 40045B 40048M 40051  40079M 40082B 40128  40160M 40161M
             40161B 40180M 40183B 40376  40422M 40425B 40437  40483M 40486B 40498  40549M 40552B 40564  40615M 40618B
             40630  40681M 40684B 40696  40748M 40751B 40763  40814M 40817B 40829  40881M 40884B 40896  40947M 40950B
             40962  41014M 41017B 41029  41081M 41084B 41127  41206M 41207M 41207B 41261M 41262  41263  41264  41270M
             41272N 41283M 41284M 41284B 41291M 41293N 41304M 41305M 41305B 41312M 41313  41317M 41317  41331M 41332M
             41332B 41335M 41338  41339  41340  41344M 41345M 41345B 41363M 41364  41365  41366  41372M 41374N 41385M
             41386M 41386B 41393M 41395N 41406M 41407M 41407B 41414M 41415  41419M 41419  41433M 41434M 41434B 41437M
             41440  41441  41442  41446M 41447M 41447B 41522M 41525B 41720  41766M 41769B 41781  41834M 41835M 41835B
1         (TOPS2025) (12:57) (15MAR04) General Purpose Register Cross Reference                                             Page  232
             41874M 41875M 41875B 41882M 41883M 41883B 41901M 41904B 41916  41969M 41970M 41970B 42001M 42004B 42016
             42069M 42070M 42070B 42135M 42138B 42150  42205M 42208B 42220  42251M 42252M 42252B 42283M 42284M 42284B
             42387M 42390B 42506  42660M 42661M 42661B 42672M 42673M 42673B 42688M 42689M 42689B 42719M 42720M 42720B
             42740M 42741M 42741B 42819M 42820M 42820B 42837M 42838M 42838B 42859M 42860M 42860B 42941M 42942M 42942B
             42959M 42960M 42960B 42964M 42984M 43008M 43013M 43013B 43038M 43039M 43039B 43043M 43044M 43044B 43075M
             43076M 43076B 43091M 43092N 43093N 43097M 43097  43104M 43105  43109M 43109  43117M 43118M 43118B 43123M
             43124M 43124B 43155M 43175M 43199M 43204M 43204B 43228M 43229M 43229B 43236M 43237M 43237B 43254M 43255M
             43255  43268M 43268B 43432M 43433M 43433B 43462M 43463M 43463B 43495M 43496M 43496B 43570M 43571M 43571B
             43627M 43628M 43628B 43656M 43657M 43657B 43706M 43709B 43726  43776M 43777M 43777B 43812M 43813M 43813B
             43832M 43833M 43833B 43856M 43859B 43880  43951M 43952M 43952B 44056M 44057M 44057B 44068M 44069M 44069B
             44084M 44085M 44085B 44148M 44149M 44149  44162M 44162B 44205M 44206M 44206B 44239M 44242B 44272  44343M
             44344M 44344B 44371M 44372M 44372B 44476M 44477M 44477B 44488M 44489M 44489B 44504M 44505M 44505B 44664M
             44665M 44665  44678M 44678B 44722M 44723M 44723B 44756M 44759B 44789  44860M 44861M 44861B 44888M 44889M
             44889B 44988M 44989M 44989B 45034M 45035M 45035B 45074M 45075M 45075B 45110M 45111M 45111B 45155M 45156M
             45156B 45173M 45174M 45174B 45203M 45204M 45204B 45226M 45227M 45227B 45242M 45243M 45243B 45402M 45403M
             45403  45416M 45416B 45460M 45461M 45461B 45494M 45497B 45593  45669M 45670M 45670B 45780M 45781M 45781B
             45805M 45806M 45806B 45823M 45824M 45824B 45848M 45849M 45849B 45866M 45867M 45867B 45892M 45893M 45893B
             45910M 45911M 45911B 45945M 45946M 45946B 45967M 45968M 45968B 45985M 45986M 45986B 46024M 46025M 46025B
             46045M 46046M 46046B 46063M 46064M 46064B 46093M 46094M 46094B 46140M 46141M 46141B 46144M 46145M 46145B
             46168M 46169M 46169B 46192M 46193M 46193B 46226M 46227M 46227B 46256M 46257M 46257B 46276M 46279B 46318
             46384M 46385M 46385B 46408M 46409M 46409B 46426M 46427M 46427B 46444M 46445M 46445B 46468M 46469M 46469B
             46529M 46530M 46530B 46590M 46591M 46591B 46624M 46625M 46625B 46657M 46658M 46658B 46677M 46678M 46678B
             46701M 46702M 46702B 46735M 46736M 46736B 46755M 46756M 46756B 46779M 46780M 46780B 46797M 46798M 46798B
             46836M 46837M 46837B 46874M 46875M 46875B 46912M 46913M 46913B 46950M 46951M 46951B 46988M 46989M 46989B
             47026M 47027M 47027B 47064M 47065M 47065B 47103M 47104M 47104B 47175M 47176M 47176B 47213M 47214M 47214B
             47243M 47246B 47286  47348M 47349M 47349B 47372M 47373M 47373B 47409M 47410M 47410B 47439M 47440M 47440B
             47479M 47480M 47480B 47538M 47539M 47539B 47574M 47575M 47575B 47622M 47623M 47623B 47640M 47641M 47641B
             47668M 47669M 47669B 47728M 47729M 47729B 47748M 47749M 47749B 47776M 47777M 47777B 47833M 47834M 47834B
             48000M 48001M 48001B 48022M 48023M 48023B 48169M 48170M 48170B 48250M 48251M 48251B 48294M 48295M 48295B
             48312M 48313M 48313B 48340M 48341M 48341B 48380M 48381M 48381B 48408M 48409M 48409B 48426M 48427M 48427B
             48476M 48477M 48477B 48511M 48512M 48512B 48539M 48540M 48540B 48597M 48598M 48598B 48636M 48637M 48637B
             48659M 48662B 48799  48871M 48872M 48872B 48932M 48933M 48933B 48970M 48971M 48971B 49109M 49110M 49110B
             49113M 49114M 49114B 49120M 49121M 49121B 49147M 49148M 49148B 49174M 49175M 49175B 49192M 49193M 49193B
             49224M 49225M 49225B 49277M 49280B
    15(F)      922U  2096   8572M  8594M  8718M  8718   8833M  8855M  9027M  9027   9119M  9123M  9132M  9132   9139
              9214M  9214   9223M  9223   9255M  9255   9326M  9326   9391M  9391   9395M  9396M  9396N  9457M  9463M
              9463   9485M  9485   9556M  9556   9567M  9567   9606M  9629M  9629   9738M  9738   9747M  9747   9797M
              9821M  9829   9830M  9832M  9838M  9838   9860M  9860   9921M  9921  10001M 10001  10010M 10010  10064
             10084M 10093M 10093  10099M 10108M 10108  10114M 10115M 10117M 10118  10130M 10130  10131  10147M 10147
             10166M 10166  10232M 10232  10299M 10299  10365M 10365  10431M 10431  10498M 10498  10571M 10571  10644M
             10644  10714M 10714  10758M 10782M 10782  10801M 10801  10845M 10869M 10869  10888M 10888  10932M 10956M
             10956  10975M 10975  11019M 11043M 11043  11062M 11062  11106M 11130M 11130  11149M 11149  11193M 11217M
             11217  11236M 11236  11280M 11304M 11304  11323M 11323  11367M 11391M 11391  11410M 11410  11454M 11478M
             11478  11497M 11497  11541M 11565M 11565  11584M 11584  11628M 11652M 11652  11671M 11671  11715M 11739M
             11739  11758M 11758  11802M 11826M 11826  11845M 11845  11911M 11911  11955M 11979M 11979  11998M 11998
             12042M 12066M 12066  12085M 12085  12129M 12153M 12153  12172M 12172  12216M 12240M 12240  12259M 12259
             12303M 12327M 12327  12346M 12346  12390M 12414M 12414  12433M 12433  12477M 12501M 12501  12520M 12520
             12586M 12586  12630M 12654M 12654  12673M 12673  12717M 12741M 12741  12760M 12760  12826M 12834  12835M
             12870M 12880U 12893U 12903M 12903  12922M 12922  12964M 12983M 12983  13044M 13062M 13091M 13109M 13132M
             13132  13926M 13926  13956M 14089M 14117M 14177M 14266M 14285M 14285  14406M 14406  14531M 14531  14563M
             14697M 14725M 14784M 14921M 14931M 14941U 14959U 14986M 14986  15079M 15088M 15088  15094M 15103M 15103
             15109M 15110M 15112M 15113  15125M 15125  15126  15170M 15170  15261M 15288M 15288  15388M 15416M 15416
             15537M 15537  15546M 15547M 15548  15558M 15586M 15617M 15685M 15703M 15721M 15727M 15760M 15836M 15836
             16904M 16904  16964M 16964  17010M 17019M 17019  17025M 17034M 17034  17040M 17041M 17043M 17044  17056M
             17056  17057  17090M 17090  17100M 17191M 17223M 17241M 17273M 17273  17292M 17292  17416M 17416  17433M
             17456M 17479M 17526M 17549M 17549  17568M 17568  17667M 17667  17733M 17733  17800M 17800  17866M 17866
             17933M 17933  17999M 17999  18066M 18066  18132M 18132  18199M 18199  18265M 18265  18331M 18331  18398M
             18398  18465M 18465  18531M 18531  18597M 18597  18664M 18664  18730M 18730  18797M 18797  18864M 18864
             18930M 18930  18996M 18996  19063M 19063  19129M 19129  19196M 19196  19278M 19278  19361M 19361  19427M
1         (TOPS2025) (12:57) (15MAR04) General Purpose Register Cross Reference                                             Page  233
             19427  19494M 19494  19560M 19560  19627M 19627  19693M 19693  19760M 19760  19826M 19826  19893M 19893
             19967M 19972M 19972  19991M 19991  20072M 20072  20091M 20091  20152M 20152  20225M 20225  20271  20291M
             20300M 20300  20306M 20315M 20315  20321M 20322M 20324M 20325  20337M 20337  20338  20354M 20354  20373M
             20373  20440M 20440  20507M 20507  20554  20558M 20558  20577M 20577  20624  20635M 20635  20654M 20654
             20734M 20734  20813M 20813  20892M 20892  20971M 20971  21050M 21050  21116M 21116  21183M 21183  21256M
             21256  21265M 21265  21284M 21284  21326M 21338  21364  21365M 21366M 21371M 21374  21376M 21377  21378
             21379  21381M 21382M 21383M 21388M 21391  21393M 21394  21395  21396M 21415M 21415  21461M 21470M 21470
             21476M 21485M 21485  21491M 21492M 21494M 21495  21507M 21507  21508  21518M 21537M 21537  21650M 21650
             21697  21701M 21701  21720M 21720  21781M 21781  21828  21832M 21832  21851M 21851  21925M 21925  21976M
             21985M 21985  21991M 22000M 22000  22006M 22007M 22009M 22010  22022M 22022  22023  22054  22069  22078M
             22097M 22097  22180M 22180  22238  22269M 22269  22327  22358M 22358  22416  22441M 22441  22511M 22578M
             22597M 22597  22697  22703M 22703  22777M 22821M 22821  22910  23208M 23271M 23289M 23307M 23313M 23468M
             23468  23471M 23472M 23472  23485M 23498M 23498  23505  23514M 23514  23517M 23518M 23518  23531M 23544M
             23544  23551  23657M 23739M 23753M 23783M 23830M 23830  23940M 23940  23996M 24026M 24077M 24119M 24175M
             24203M 24242M 24250M 24285M 24324M 24332M 24367M 24423M 24465M 24504M 24526M 24560M 24582M 24616M 24638M
             24672M 24694M 24728M 24757M 24788M 24822M 24844M 24896M 24930M 24952M 24986M 25008M 25060M 25095M 25117M
             25152M 25191M 25230M 25269M 25308M 25330M 25349M 25370M 25389M 25410M 25428M 25449M 25475M 25517M 25517
             25589M 25622D 25624M 25624  25625M 25626U 25664M 25731M 25758M 25758  25921M 25921  25957M 25960  25972M
             25980M 25989M 25989  25996  26073M 26074M 26075  26099M 26130M 26161M 26161  26328M 26328  26395M 26413M
             26481M 26481  26681M 26682M 26683M 26686  26698M 26711M 26711  26728  26829M 26868M 26949M 26967M 27045M
             27045  27199M 27199  27218M 27218  27325M 27325  27344M 27344  27410M 27410  27497M 27497  27526M 27526
             27666M 27793D 27795M 27795  27796M 27797U 27798M 27837M 27896M 27968D 27970M 27970  27971M 27972U 27975
             27987M 27992M 28033M 28064M 28088M 28088  28218M 28218  28285M 28293M 28328M 28346M 28354M 28389M 28407M
             28415M 28450M 28468M 28476M 28511M 28529M 28550M 28575M 28599M 28599  28711M 28715M 28724M 28724  28731
             28830M 28830  28915M 28915  28978M 29035M 29039M 29048M 29048  29055  29112M 29163M 29205M 29223M 29245M
             29270M 29289M 29307M 29332M 29359M 29388M 29406M 29428M 29446M 29472M 29493M 29511M 29532M 29550M 29597M
             29615M 29640M 29684M 29714M 29732M 29756M 29774M 29798M 29816M 29840M 29858M 29888M 29912M 29930M 29956M
             29964M 29999M 30017M 30043M 30061M 30070M 30105M 30123M 30132M 30167M 30185M 30216M 30234M 30243M 30244M
             30245M 30251  30266M 30284M 30293M 30294M 30295M 30301  30316M 30334M 30343M 30381M 30399M 30430M 30439M
             30440M 30441M 30447  30462M 30480M 30489M 30490M 30491M 30497  30512M 30530M 30539M 30577M 30595M 30626M
             30635M 30636M 30637M 30643  30658M 30676M 30685M 30686M 30687M 30693  30708M 30726M 30735M 30773M 30791M
             30815M 30815  30926M 30930M 30939M 30939  30946  30994M 30994  31051M 31086M 31104M 31140M 31148M 31183M
             31201M 31219M 31244M 31264M 31287M 31295M 31330M 31348M 31383M 31412M 31436M 31436  31596M 31597M 31597N
             31615M 31637M 31646M 31646  31652M 31661M 31661  31667M 31668M 31670M 31671  31683M 31683  31684  31779M
             31779  31780M 31796U 31824U 31859M 31859  31920  31983M 32011M 32060M 32084M 32102M 32160M 32188M 32206M
             32254M 32282M 32300M 32328M 32346M 32385M 32424M 32445M 32463M 32502M 32551M 32589M 32632M 32728M 32828M
             32887M 32925M 32949M 32949  33058M 33058  33059M 33075U 33103U 33138M 33138  33244M 33276M 33295M 33323M
             33341M 33369M 33388M 33393M 33434M 33452M 33480M 33505M 33534M 33534  33671M 33671  33672M 33688U 33829U
             33847M 33865M 33886M 33904M 33925M 33943M 33968M 33987M 34008M 34026M 34047M 34065M 34090M 34102M 34162M
             34184M 34242M 34279M 34279  34377M 34425M 34525M 34569M 34595M 34623M 34641M 34669M 34713M 34735M 34761M
             34789M 34825M 34853M 34875M 34903M 34925M 34953M 34983M 35009M 35009  35218M 35218  35318M 35318  35319M
             35335U 35363U 35396M 35396  35468M 35468  35559M 35582M 35582  35685M 35723M 35761M 35799M 35837M 35875M
             35905M 35929M 35929  36150M 36150  36221M 36255M 36293M 36331M 36353M 36386M 36396M 36424M 36498M 36532M
             36599M 36642M 36659M 36686M 36729M 36750M 36787M 36815M 36832M 36858M 36885M 36903M 36938M 36965M 36982M
             37016M 37083M 37147M 37170M 37202M 37251M 37293M 37310M 37337M 37380M 37401M 37441M 37468M 37548M 37615M
             37633M 37659M 37708M 37726M 37748M 37784M 37795M 37799M 37808M 37808  37815  37843M 37852M 37852  37913M
             37913  37914M 37954M 37954  38021  38065M 38096M 38114M 38142M 38160M 38188M 38206M 38225M 38230M 38248M
             38300M 38318M 38357M 38408M 38448M 38483M 38524M 38555M 38573M 38601M 38619M 38647M 38665M 38684M 38689M
             38714M 38740M 38771M 38789M 38817M 38835M 38863M 38881M 38886M 38911M 38936M 38936  39030  39058M 39086M
             39105M 39153M 39192M 39201M 39239M 39272M 39310M 39310  39500  39527M 39527  39528  39536M 39536  39537
             39565  39585  39611M 39620M 39620  39626M 39635M 39635  39641M 39642M 39644M 39645  39657M 39657  39658
             39781  39801  40057M 40081M 40081  40182M 40182  40405M 40424M 40424  40466M 40485M 40485  40551M 40551
             40617M 40617  40683M 40683  40750M 40750  40816M 40816  40883M 40883  40949M 40949  41016M 41016  41083M
             41083  41203M 41271M 41272  41292M 41293  41321M 41321  41373M 41374  41394M 41395  41423M 41423  41463
             41484  41496M 41496  41524M 41524  41749M 41768M 41768  41884M 41903M 41903  41984M 42003M 42003  42077M
             42081M 42090M 42090  42097  42118M 42137M 42137  42188M 42207M 42207  42266M 42326M 42330M 42339M 42339
             42346  42370M 42389M 42389  42554  42657M 42816M 42834M 42856M 42938M 42956M 42963M 43035M 43072M 43072
             43113M 43113  43114M 43154M 43225M 43245M 43429M 43459M 43492M 43567M 43624M 43653M 43664M 43665M 43666
             43680M 43680  43683M 43708M 43708  43858M 43858  43948M 44053M 44144M 44171M 44171  44202M 44241M 44241
1         (TOPS2025) (12:57) (15MAR04) General Purpose Register Cross Reference                                             Page  234
             44340M 44368M 44473M 44660M 44687M 44687  44719M 44758M 44758  44857M 44885M 44985M 45031M 45071M 45107M
             45152M 45170M 45200M 45398M 45425M 45425  45457M 45496M 45496  45632  45666M 45777M 45802M 45820M 45845M
             45863M 45889M 45907M 45942M 45964M 45982M 46021M 46042M 46060M 46090M 46137M 46164M 46189M 46223M 46253M
             46278M 46278  46357  46405M 46423M 46465M 46526M 46587M 46621M 46654M 46663M 46698M 46732M 46741M 46776M
             46794M 46833M 46871M 46909M 46947M 46985M 47023M 47061M 47100M 47172M 47210M 47226M 47226  47245M 47245
             47331M 47369M 47406M 47436M 47457M 47535M 47571M 47619M 47637M 47665M 47725M 47734M 47773M 48019M 48166M
             48247M 48291M 48309M 48337M 48377M 48405M 48423M 48473M 48508M 48536M 48594M 48633M 48642M 48642  48661M
             48661  48868M 48929M 49106M 49116M 49144M 49171M 49189M 49255M 49279M 49279

1TOPS     (TOPS2025) (12:57) (15MAR04) Diagnostic Cross Reference and Assembler Summary                                     Page  235
-                                                                                            HLASM R4.0  2004/03/15 12.57
0     No Statements Flagged in this Assembly
 HIGH LEVEL ASSEMBLER, 5696-234, RELEASE 4.0, PTF P72483
0SYSTEM: OS/390 02.10.00            JOBNAME: WYL#TOPS    STEPNAME: ASM        PROCSTEP: (NOPROC)
0Datasets Allocated for this Assembly
  Con DDname   Dataset Name                                 Volume  Member
   P1 SYSIN    WYL.GS.WYL.WYLBUR.SOURCE                     SYSB05  TOPS
   L1 SYSLIB   WYL.GS.WYL.WYLBUR.MACLIB                     SYSB05
   L2          WYL.GG.SYS.MACLIB                            SYSB05
   L3          SYS3.IS.MACLIB                               SYSB05
   L4          SYS3.MACLIB                                  SYSB02
   L5          SYS1.MACLIB                                  MVSBR9
   L6          SYS1.MODGEN                                  MVSBR9
      SYSPRINT SYS04075.T125751.RA000.WYL#TOPS.PRINT.H01    SCR100
      SYSTERM  GG$SLP.WYL#TOPS.JOB03577.D0000101.?

    3668K allocated to Buffer Pool,         5809K would be required for this to be an In-Storage Assembly
    3848 Primary Input Records Read         7985 Library Records Read                497 Work File Reads
       0 ASMAOPT Records Read              25742 Primary Print Records Written       540 Work File Writes
       0 Punch Records Written                 0 ADATA Records Written
0Assembly Start Time: 12.57.58 Stop Time: 12.58.27 Processor Time: 00.00.10.1504
 Return Code 000
