1VETS     (VETS2025) (12:59) (15MAR04) Using Map                                                                            Page  260
  21196  00001BA4  00000001 USING  ORDINARY    00000000 00001000 FFFFFFDC   5 004   21232  VTBHEAD,R5
  21438  00001C5C  00000001 USING  ORDINARY    00000000 00001000 FFFFFFF9   5 000          @R5,5
  21457  00001C62  00000001 USING  ORDINARY    00000000 00001000 FFFFFFF7   7 000          @R7,7
  21525  00001C8A  00000001 USING  ORDINARY    00001C8A 00001000 00000001   7 832   21777  $$$312B,7
  21576  00001CA4  00000001 USING  ORDINARY    00000000 00001000 FFFFFFDC   4 004   21612  VTBHEAD,R4
  21806  00001D54  00000001 USING  ORDINARY    00000000 00001000 FFFFFFFA   4 000          @R4,4
  21811  00001D54  00000001 USING  ORDINARY    00000000 00001000 FFFFFFF7   7 000          @R7,7
  21876  00001D7C  00000001 USING  ORDINARY    00001D7C 00001000 00000001   7 744   21957  $$$326B,7
  21970  00001DA0  00000001 USING  ORDINARY    00000000 00001000 FFFFFFF7   7 000          @R7,7
  22056  00001DC8  00000001 USING  ORDINARY    00001DC8 00001000 00000001   7 774   23693  $$$332B,7
  22214  00001EA0  00000001 USING  ORDINARY    00000000 00001000 FFFFFFE3   4 01B   22711  ISTDBIND,R4
  22936  000020D0  00000001 USING  ORDINARY    00000000 00001000 FFFFFFFA   4 000          @R4,4
  22949  000020D4  00000001 USING  ORDINARY    00000000 00001000 FFFFFFE2   4 00C   23575  ISTDNIB,R4
  22963  000020D8  00000001 USING  ORDINARY    00000000 00001000 FFFFFFE4   5 0AC   23517  ACB,R5
  22977  000020DC  00000001 USING  ORDINARY    00000000 00001000 FFFFFFDF   3 058   23468  RPL,R3
  23130  00002180  00000001 DROP                                            1              1
  23134  00002186  00000001 USING  ORDINARY    00000000 00001000 FFFFFFFD   1 001   32881  @R1,1
  23705  00002422  00000001 USING  ORDINARY    00000000 00001000 FFFFFFFB   3 002   38742  @R3,3
  23710  00002422  00000001 USING  ORDINARY    00000000 00001000 FFFFFFF9   5 000          @R5,5
  23715  00002422  00000001 USING  ORDINARY    00000000 00001000 FFFFFFFA   4 01B   38783  @R4,4
  23722  00002422  00000001 USING  ORDINARY    00000000 00001000 FFFFFFF7   7 000          @R7,7
  23849  00002566  00000001 USING  ORDINARY    00002566 00001000 00000001   7 AB8   23955  $$$388B,7
  23969  000025BA  00000001 USING  ORDINARY    00000000 00001000 FFFFFFF7   7 000          @R7,7
  24034  000025E2  00000001 USING  ORDINARY    000025E2 00001000 00000001   7 A3C   24108  $$$393B,7
  24122  00002626  00000001 USING  ORDINARY    00000000 00001000 FFFFFFF7   7 000          @R7,7
  24218  0000264E  00000001 USING  ORDINARY    0000264E 00001000 00000001   7 9F0   27788  $$$396B,7
  24232  0000264E  00000001 USING  ORDINARY    FFFFFFD8 00001000 FFFFFFDA   8 02C   26861  DOOUTBWA-(4+36),R8
  24290  00002672  00000001 USING  ORDINARY    00000000 00001000 FFFFFFDC   5 010   27283  VTBHEAD,R5
  24692  00002772  00000001 DROP                                            2              2
  24696  00002778  00000001 USING  ORDINARY    00000000 00001000 FFFFFFFC   2 000          @R2,2
  24939  00002818  00000001 DROP                                            2              2
  24943  0000281E  00000001 USING  ORDINARY    00000000 00001000 FFFFFFFC   2 000          @R2,2
  25275  000028EA  00000001 DROP                                            2              2
  25279  000028F0  00000001 USING  ORDINARY    00000000 00001000 FFFFFFFC   2 000          @R2,2
  25407  0000293C  00000001 DROP                                            2              2
  25411  00002942  00000001 USING  ORDINARY    00000000 00001000 FFFFFFFC   2 000          @R2,2
  25690  000029E4  00000001 DROP                                            2              2
  25694  000029EA  00000001 USING  ORDINARY    00000000 00001000 FFFFFFFC   2 000          @R2,2
  26291  00002B56  00000001 DROP                                            2              2
  26295  00002B5C  00000001 USING  ORDINARY    00000000 00001000 FFFFFFFC   2 000          @R2,2
  26429  00002BB0  00000001 DROP                                            2              2
  26433  00002BB6  00000001 USING  ORDINARY    00000000 00001000 FFFFFFFC   2 000          @R2,2
  26783  00002C86  00000001 DROP                                            2              2
  26787  00002C8C  00000001 USING  ORDINARY    00000000 00001000 FFFFFFFC   2 001   29962  @R2,2
  27322  00002DCC  00000001 USING  ORDINARY    00000000 00001000 FFFFFFF9   5 000          @R5,5
  27589  00002E48  00000001 USING  ORDINARY    00000000 00001000 FFFFFFDC   5 00C   27683  VTBHEAD,R5
  27722  00002EAE  00000001 USING  ORDINARY    00000000 00001000 FFFFFFF9   5 000          @R5,5
  27818  00002EE0  00000001 USING  ORDINARY    00000000 00001000 FFFFFFF6   8 000          @R8,8
  27823  00002EE0  00000001 USING  ORDINARY    00000000 00001000 FFFFFFF7   7 000          @R7,7
  27977  00003158  00000001 USING  ORDINARY    00003158 00001000 00000001   7 0BC   28266  $$$573B,7
  28274  000031F0  00000001 USING  ORDINARY    00000000 00001000 FFFFFFF7   7 000          @R7,7
  28349  00003232  00000001 USING  ORDINARY    00003232 00001000 00000001   7 16E   28368  $$$585B,7
  28377  0000323C  00000001 USING  ORDINARY    00000000 00001000 FFFFFFF7   7 000          @R7,7
  28445  00003264  00000001 USING  ORDINARY    00003264 00001000 00000001   7 15C   28824  $$$588B,7
  28617  000032BC  00000001 USING  ORDINARY    00000000 00001000 FFFFFFE4   5 0A4   28623  ACB,R5
  28630  000032C0  00000001 USING  ORDINARY    00000000 00001000 FFFFFFF9   5 000          @R5,5
  28641  000032C0  00000001 USING  ORDINARY    00000000 00001000 FFFFFFDF   5 045   28656  RPL,R5
  28775  00003370  00000001 USING  ORDINARY    00000000 00001000 FFFFFFF9   5 000          @R5,5
  28849  00003390  00000001 USING  ORDINARY    00000000 00001000 FFFFFFF7   7 000          @R7,7
1VETS     (VETS2025) (12:59) (15MAR04) Using Map                                                                            Page  261
  28989  000033DE  00000001 USING  ORDINARY    000033DE 00001000 00000001   7 7EE   31154  $$$601B,7
  29003  000033DE  00000001 USING  ORDINARY    FFFFFFD8 00001000 FFFFFFD9   8 046   31122  UPDATSWA-(4+36),R8
  29079  00003404  00000001 USING  ORDINARY    00000000 00001000 FFFFFFDC   5 010   29161  VTBHEAD,R5
  29196  00003480  00000001 USING  ORDINARY    00000000 00001000 FFFFFFF9   5 000          @R5,5
  29829  00003672  00000001 DROP                                           15              15
  29833  00003678  00000001 USING  ORDINARY    00000000 00001000 FFFFFFEF  15 000          @R15,15
  30036  00003720  00000001 DROP                                            2              2
  30040  00003726  00000001 USING  ORDINARY    00000000 00001000 FFFFFFFC   2 000          @R2,2
  30260  000037F6  00000001 DROP                                            2              2
  30264  000037FC  00000001 USING  ORDINARY    00000000 00001000 FFFFFFFC   2 000   30629  @R2,2
  31166  00003A68  00000001 USING  ORDINARY    00000000 00001000 FFFFFFF6   8 000          @R8,8
  31171  00003A68  00000001 USING  ORDINARY    00000000 00001000 FFFFFFF7   7 000          @R7,7
  31381  00003CE6  00000001 USING  ORDINARY    00003CE6 00001000 00000001   7 BAA   35503  $$$684B,7
  31395  00003CE6  00000001 USING  ORDINARY    FFFFFFD8 00001000 FFFFFFD8   8 035   35496  PRCSWA-(4+36),R8
  31441  00003D02  00000001 USING  ORDINARY    00000000 00001000 FFFFFFDC   5 010   35484  VTBHEAD,R5
  31511  00003D28  00000001 DROP                                            2              2
  31515  00003D2E  00000001 USING  ORDINARY    00000000 00001000 FFFFFFFC   2 000          @R2,2
  31561  00003D4C  00000001 DROP                                            2              2
  31565  00003D52  00000001 USING  ORDINARY    00000000 00001000 FFFFFFFC   2 000          @R2,2
  31634  00003D90  00000001 DROP                                            2              2
  31638  00003D96  00000001 USING  ORDINARY    00000000 00001000 FFFFFFFC   2 000          @R2,2
  31689  00003DB6  00000001 DROP                                            2              2
  31693  00003DBC  00000001 USING  ORDINARY    00000000 00001000 FFFFFFFC   2 000          @R2,2
  31739  00003DDE  00000001 DROP                                            2              2
  31743  00003DE4  00000001 USING  ORDINARY    00000000 00001000 FFFFFFFC   2 000          @R2,2
  31864  00003E2C  00000001 DROP                                           15              15
  31868  00003E32  00000001 USING  ORDINARY    00000000 00001000 FFFFFFEF  15 000          @R15,15
  31979  00003E74  00000001 DROP                                           15              15
  31983  00003E7A  00000001 USING  ORDINARY    00000000 00001000 FFFFFFEF  15 000          @R15,15
  32126  00003ECE  00000001 DROP                                           15              15
  32130  00003ED4  00000001 USING  ORDINARY    00000000 00001000 FFFFFFEF  15 000   34843  @R15,15
  32428  00003F80  00000001 DROP                                            2              2
  32432  00003F86  00000001 USING  ORDINARY    00000000 00001000 FFFFFFFC   2 000          @R2,2
  32657  00004014  00000001 DROP                                            2              2
  32661  0000401A  00000001 USING  ORDINARY    00000000 00001000 FFFFFFFC   2 000          @R2,2
  32784  0000405C  00000001 DROP                                            2              2
  32788  00004062  00000001 USING  ORDINARY    00000000 00001000 FFFFFFFC   2 000          @R2,2
  32905  000040E2  00000001 DROP                                            1              1
  32909  000040E8  00000001 USING  ORDINARY    00000000 00001000 FFFFFFFD   1 000   33153  @R1,1
  32950  00004104  00000001 DROP                                            2              2
  32954  0000410A  00000001 USING  ORDINARY    00000000 00001000 FFFFFFFC   2 000          @R2,2
  33124  0000416C  00000001 DROP                                            2              2
  33128  00004172  00000001 USING  ORDINARY    00000000 00001000 FFFFFFFC   2 000          @R2,2
  33253  000041C4  00000001 DROP                                            1              1
  33257  000041CA  00000001 USING  ORDINARY    00000000 00001000 FFFFFFFD   1 000   33607  @R1,1
  33353  00004212  00000001 DROP                                            2              2
  33357  00004218  00000001 USING  ORDINARY    00000000 00001000 FFFFFFFC   2 000          @R2,2
  33552  0000428A  00000001 DROP                                            2              2
  33556  00004290  00000001 USING  ORDINARY    00000000 00001000 FFFFFFFC   2 000          @R2,2
  33604  000042A8  00000001 DROP                                           14              14
  33608  000042AE  00000001 USING  ORDINARY    00000000 00001000 FFFFFFF0  14 000   35108  @R14,14
  33670  000042D8  00000001 DROP                                            1              1
  33674  000042DE  00000001 USING  ORDINARY    00000000 00001000 FFFFFFFD   1 000   33917  @R1,1
  33715  000042FA  00000001 DROP                                            2              2
  33719  00004300  00000001 USING  ORDINARY    00000000 00001000 FFFFFFFC   2 000          @R2,2
  33888  00004360  00000001 DROP                                            2              2
  33892  00004366  00000001 USING  ORDINARY    00000000 00001000 FFFFFFFC   2 000          @R2,2
  34222  0000442A  00000001 DROP                                            1              1
  34226  00004430  00000001 USING  ORDINARY    00000000 00001000 FFFFFFFD   1 000          @R1,1
1VETS     (VETS2025) (12:59) (15MAR04) Using Map                                                                            Page  262
  34568  00004522  00000001 DROP                                            1              1
  34572  00004528  00000001 USING  ORDINARY    00000000 00001000 FFFFFFFD   1 001   37529  @R1,1
  34913  0000460A  00000001 DROP                                           15              15
  34917  00004610  00000001 USING  ORDINARY    00000000 00001000 FFFFFFEF  15 000   44055  @R15,15
  35382  00004716  00000001 DROP                                            2              2
  35386  0000471C  00000001 USING  ORDINARY    00000000 00001000 FFFFFFFC   2 001   36158  @R2,2
  35522  00004774  00000001 USING  ORDINARY    00000000 00001000 FFFFFFF9   5 000   36157  @R5,5
  35527  00004774  00000001 USING  ORDINARY    00000000 00001000 FFFFFFF6   8 000          @R8,8
  35532  00004774  00000001 USING  ORDINARY    00000000 00001000 FFFFFFF7   7 000          @R7,7
  35675  000048AC  00000001 USING  ORDINARY    000048AC 00001000 00000001   7 168   35755  $$$869B,7
  35764  000048E8  00000001 USING  ORDINARY    00000000 00001000 FFFFFFF7   7 000          @R7,7
  35834  00004910  00000001 USING  ORDINARY    00004910 00001000 00000001   7 108   35912  $$$876B,7
  35921  00004948  00000001 USING  ORDINARY    00000000 00001000 FFFFFFF7   7 000          @R7,7
  35995  00004970  00000001 USING  ORDINARY    00004970 00001000 00000001   7 0A8   36162  $$$883B,7
  36177  00004A02  00000001 USING  ORDINARY    00000000 00001000 FFFFFFF7   7 000          @R7,7
  36308  00004A36  00000001 USING  ORDINARY    00004A36 00001000 00000001   7 E8A   37908  $$$896B,7
  36322  00004A36  00000001 USING  ORDINARY    FFFFFFD8 00001000 FFFFFFD7   8 034   37895  SENDSWA-(4+36),R8
  36351  00004A4C  00000001 USING  ORDINARY    00000000 00001000 FFFFFFDC   5 010   37906  VTBHEAD,R5
  36807  00004B52  00000001 DROP                                            2              2
  36811  00004B58  00000001 USING  ORDINARY    00000000 00001000 FFFFFFFC   2 000          @R2,2
  37197  00004D12  00000001 DROP                                            2              2
  37201  00004D18  00000001 USING  ORDINARY    00000000 00001000 FFFFFFFC   2 000          @R2,2
  37311  00004DA6  00000001 DROP                                            2              2
  37315  00004DAC  00000001 USING  ORDINARY    00000000 00001000 FFFFFFFC   2 000          @R2,2
  37425  00004E3A  00000001 DROP                                            2              2
  37429  00004E40  00000001 USING  ORDINARY    00000000 00001000 FFFFFFFC   2 000          @R2,2
  37538  00004ECA  00000001 DROP                                            1              1
  37542  00004ED0  00000001 USING  ORDINARY    00000000 00001000 FFFFFFFD   1 00D   38782  @R1,1
  37922  00005054  00000001 USING  ORDINARY    00000000 00001000 FFFFFFF9   5 000          @R5,5
  37927  00005054  00000001 USING  ORDINARY    00000000 00001000 FFFFFFF6   8 000          @R8,8
  37932  00005054  00000001 USING  ORDINARY    00000000 00001000 FFFFFFF7   7 000          @R7,7
  38012  0000507C  00000001 USING  ORDINARY    0000507C 00001000 00000001   7 940   38799  $$$953B,7
  38038  0000508C  00000001 USING  ORDINARY    00000000 00001000 FFFFFFDC   5 010   38789  VTBHEAD,R5
  38078  000050B4  00000001 DROP                                            2              2
  38082  000050BA  00000001 USING  ORDINARY    00000000 00001000 FFFFFFFC   2 001   39088  @R2,2
  38806  000053F0  00000001 USING  ORDINARY    00000000 00001000 FFFFFFF9   5 000          @R5,5
  38811  000053F0  00000001 USING  ORDINARY    00000000 00001000 FFFFFFF7   7 000          @R7,7
  38944  00005418  00000001 USING  ORDINARY    00005418 00001000 00000001   7 530   39351  $$$987B,7
  38967  00005420  00000001 USING  ORDINARY    00000000 00001000 FFFFFFE4   3 0A4   38973  ACB,R3
  38980  00005424  00000001 USING  ORDINARY    00000000 00001000 FFFFFFFB   3 000          @R3,3
  38991  00005424  00000001 USING  ORDINARY    00000000 00001000 FFFFFFDF   3 045   39245  RPL,R3
  39034  00005448  00000001 USING  ORDINARY    00000000 00001000 FFFFFFDC   5 010   39194  VTBHEAD,R5
  39112  00005486  00000001 USING  ORDINARY    00000000 00001000 FFFFFFD5   4 010   39147  ISTBLENT,R4
  39159  000054B8  00000001 USING  ORDINARY    00000000 00001000 FFFFFFFA   4 000          @R4,4
  39371  00005594  00000001 USING  ORDINARY    00000000 00001000 FFFFFFF9   5 000          @R5,5
  39376  00005594  00000001 USING  ORDINARY    00000000 00001000 FFFFFFFB   3 000          @R3,3
  39381  00005594  00000001 USING  ORDINARY    00000000 00001000 FFFFFFF7   7 000          @R7,7
  39444  000055BC  00000001 USING  ORDINARY    000055BC 00001000 00000001   7 392   40214  $$$1004B,7
  39514  000055DA  00000001 USING  ORDINARY    00000000 00001000 FFFFFFE4   4 0AC   39520  ACB,R4
  39527  000055DE  00000001 USING  ORDINARY    00000000 00001000 FFFFFFFA   4 000          @R4,4
  39538  000055DE  00000001 USING  ORDINARY    00000000 00001000 FFFFFFDF   4 064   40211  RPL,R4
  40070  00005738  00000001 DROP                                            1              1
  40074  0000573E  00000001 USING  ORDINARY    00000000 00001000 FFFFFFFD   1 000   43710  @R1,1
  40229  000057CA  00000001 USING  ORDINARY    00000000 00001000 FFFFFFFA   4 001   44356  @R4,4
  40270  000057DA  00000001 USING  ORDINARY    00000000 00001000 FFFFFFF7   7 000          @R7,7
  40335  00005802  00000001 USING  ORDINARY    00005802 00001000 00000001   7 1E4   40391  $$$1040B,7
  40406  00005834  00000001 USING  ORDINARY    00000000 00001000 FFFFFFF7   7 000          @R7,7
  40472  0000585C  00000001 USING  ORDINARY    0000585C 00001000 00000001   7 18A   40534  $$$1043B,7
  40549  00005892  00000001 USING  ORDINARY    00000000 00001000 FFFFFFF7   7 000          @R7,7
1VETS     (VETS2025) (12:59) (15MAR04) Using Map                                                                            Page  263
  40711  00005A14  00000001 USING  ORDINARY    00005A14 00001000 00000001   7 9BC   41390  $$$1046B,7
  40885  00005A6E  00000001 USING  ORDINARY    00000000 00001000 FFFFFFE6   5 00A   40993  TTYPE,R5
  41039  00005ABA  00000001 USING  ORDINARY    00000000 00001000 FFFFFFF9   5 001   44357  @R5,5
  41422  00005BBC  00000001 USING  ORDINARY    00000000 00001000 FFFFFFF7   7 000          @R7,7
  41546  00005BE4  00000001 USING  ORDINARY    00005BE4 00001000 00000001   7 86A   44243  $$$1065B,7
  41560  00005BE4  00000001 USING  ORDINARY    FFFFFFD8 00001000 FFFFFFD4   8 039   44071  WRITEWA-(4+36),R8
  41671  00005C32  00000001 DROP                                            2              2
  41675  00005C38  00000001 USING  ORDINARY    00000000 00001000 FFFFFFFC   2 000          @R2,2
  41801  00005C7A  00000001 DROP                                            3              3
  41805  00005C80  00000001 USING  ORDINARY    00000000 00001000 FFFFFFFB   3 000          @R3,3
  41811  00005C88  00000001 DROP                                            3              3
  41815  00005C8E  00000001 USING  ORDINARY    00000000 00001000 FFFFFFFB   3 000          @R3,3
  41821  00005C96  00000001 DROP                                            3              3
  41825  00005C9C  00000001 USING  ORDINARY    00000000 00001000 FFFFFFFB   3 000          @R3,3
  41885  00005CC6  00000001 DROP                                            2              2
  41889  00005CCC  00000001 USING  ORDINARY    00000000 00001000 FFFFFFFC   2 000          @R2,2
  42308  00005DCA  00000001 DROP                                            3              3
  42312  00005DD0  00000001 USING  ORDINARY    00000000 00001000 FFFFFFFB   3 000          @R3,3
  42318  00005DD8  00000001 DROP                                            3              3
  42322  00005DDE  00000001 USING  ORDINARY    00000000 00001000 FFFFFFFB   3 000          @R3,3
  42328  00005DE6  00000001 DROP                                            3              3
  42332  00005DEC  00000001 USING  ORDINARY    00000000 00001000 FFFFFFFB   3 000          @R3,3
  42733  00005EE2  00000001 DROP                                            3              3
  42737  00005EE8  00000001 USING  ORDINARY    00000000 00001000 FFFFFFFB   3 000          @R3,3
  43122  00005FD4  00000001 DROP                                            3              3
  43126  00005FDA  00000001 USING  ORDINARY    00000000 00001000 FFFFFFFB   3 000          @R3,3
  43707  00006136  00000001 DROP                                            3              3
  43711  0000613C  00000001 USING  ORDINARY    00000000 00001000 FFFFFFFB   3 010   48047  @R3,3
  44280  0000627E  00000001 USING  ORDINARY    00000000 00001000 FFFFFFF6   8 000          @R8,8
  44285  0000627E  00000001 USING  ORDINARY    00000000 00001000 FFFFFFF7   7 000          @R7,7
  44339  000062A6  00000001 USING  ORDINARY    000062A6 00001000 00000001   7 127   44465  $$$1152B,7
  44473  0000630A  00000001 USING  ORDINARY    00000000 00001000 FFFFFFF7   7 000          @R7,7
  44612  0000656C  00000001 USING  ORDINARY    0000656C 00001000 00000001   7 670   44705  $$$1155B,7
  44726  000065CA  00000001 USING  ORDINARY    00000000 00001000 FFFFFFF7   7 000          @R7,7
  44801  00006632  00000001 USING  ORDINARY    00006632 00001000 00000001   7 5B6   44849  $$$1162B,7
  44868  0000665E  00000001 USING  ORDINARY    00000000 00001000 FFFFFFF7   7 000          @R7,7
  44925  00006686  00000001 USING  ORDINARY    00006686 00001000 00000001   7 572   45185  $$$1167B,7
  44946  0000668A  00000001 USING  ORDINARY    00000000 00001000 FFFFFFE4   4 0A0   44952  ACB,R4
  44959  0000668E  00000001 USING  ORDINARY    00000000 00001000 FFFFFFFA   4 000          @R4,4
  44970  0000668E  00000001 USING  ORDINARY    00000000 00001000 FFFFFFDF   4 045   44991  RPL,R4
  45044  000066BE  00000001 USING  ORDINARY    00000000 00001000 FFFFFFDC   5 010   45074  VTBHEAD,R5
  45203  000067A8  00000001 USING  ORDINARY    00000000 00001000 FFFFFFF9   5 000          @R5,5
  45214  000067A8  00000001 USING  ORDINARY    00000000 00001000 FFFFFFFA   4 000          @R4,4
  45219  000067A8  00000001 USING  ORDINARY    00000000 00001000 FFFFFFF7   7 000          @R7,7
  45283  000067D0  00000001 USING  ORDINARY    000067D0 00001000 00000001   7 464   45701  $$$1174B,7
  45326  000067E0  00000001 USING  ORDINARY    00000000 00001000 FFFFFFE4   5 0AC   45332  ACB,R5
  45339  000067E4  00000001 USING  ORDINARY    00000000 00001000 FFFFFFF9   5 000          @R5,5
  45348  000067E4  00000001 USING  ORDINARY    00000000 00001000 FFFFFFDF   5 058   45676  RPL,R5
  45535  000068B2  00000001 DROP                                            1              1
  45539  000068B8  00000001 USING  ORDINARY    00000000 00001000 FFFFFFFD   1 000          @R1,1
  45724  00006952  00000001 USING  ORDINARY    00000000 00001000 FFFFFFF7   7 000          @R7,7
  45777  0000697A  00000001 USING  ORDINARY    0000697A 00001000 00000001   7 2BC   46021  $$$1190B,7
  45855  000069BC  00000001 USING  ORDINARY    00000000 00001000 FFFFFFF9   5 000          @R5,5
  45858  000069BC  00000001 USING  ORDINARY    00000000 00001000 FFFFFFE6   5 00A   45992  TTYPE,R5
  46050  00006A1A  00000001 USING  ORDINARY    00000000 00001000 FFFFFFF9   5 000          @R5,5
  46053  00006A1A  00000001 USING  ORDINARY    00000000 00001000 FFFFFFDF   5 000          RPL,5
  46068  00006A26  00000001 USING  ORDINARY    00000000 00001000 FFFFFFE5  15 048   46074  JCB,R15
  46081  00006A2A  00000001 USING  ORDINARY    00000000 00001000 FFFFFFEF  15 000          @R15,15
  46090  00006A2E  00000001 USING  ORDINARY    00000000 00001000 FFFFFFF7   7 000          @R7,7
1VETS     (VETS2025) (12:59) (15MAR04) Using Map                                                                            Page  264
  46155  00006A56  00000001 USING  ORDINARY    00006A56 00001000 00000001   7 1D6   46611  $$$1203B,7
  46272  00006A9C  00000001 USING  ORDINARY    00000000 00001000 FFFFFFDC   4 004   46379  VTBHEAD,R4
  46620  00006BC4  00000001 USING  ORDINARY    00000000 00001000 FFFFFFFA   4 000          @R4,4
  46625  00006BC4  00000001 USING  ORDINARY    00000000 00001000 FFFFFFF7   7 000          @R7,7
  46721  00006C56  00000001 USING  ORDINARY    00006C56 00001000 00000001   7 39A   47359  $$$1221B,7
  46747  00006C62  00000001 USING  ORDINARY    00000000 00001000 FFFFFFF9   5 000          @R5,5
  46750  00006C62  00000001 USING  ORDINARY    00000000 00001000 FFFFFFE4   5 0B0   47362  ACB,R5
  46855  00006CEA  00000001 USING  ORDINARY    00000000 00001000 FFFFFFDF   4 080   47370  RPL,R4
  47381  00006FE2  00000001 USING  ORDINARY    00000000 00001000 FFFFFFFA   4 000          @R4,4
  47390  00006FE2  00000001 USING  ORDINARY    00000000 00001000 FFFFFFF9   5 000          @R5,5
  47393  00006FE2  00000001 USING  ORDINARY    00000000 00001000 FFFFFFDF   5 000          RPL,5
  47398  00006FE2  00000001 USING  ORDINARY    00000000 00001000 FFFFFFF7   7 000          @R7,7
  47491  0000700E  00000001 USING  ORDINARY    0000700E 00001000 00000001   7 306   48027  $$$1234B,7
  47505  0000700E  00000001 USING  ORDINARY    FFFFFFD8 00001000 FFFFFFD3   8 028   47629  GETACBWA-(4+36),R8
  47519  0000700E  00000001 USING  ORDINARY    00000000 00001000 FFFFFFF9   5 000          @R5,5
  47522  0000700E  00000001 USING  ORDINARY    00000000 00001000 FFFFFFE4   5 0AC   48085  ACBWYL,R5
  48057  0000726A  00000001 USING  ORDINARY    00000000 00001000 FFFFFFDF   1 045   48092  RPL,R1
  48107  00007294  00000001 USING  ORDINARY    00000000 00001000 FFFFFFFD   1 000          @R1,1
  48116  00007294  00000001 USING  ORDINARY    00000000 00001000 FFFFFFF9   5 000          @R5,5
  48119  00007294  00000001 USING  ORDINARY    00000000 00001000 FFFFFFDF   5 000          RPL,5
  48124  00007294  00000001 USING  ORDINARY    00000000 00001000 FFFFFFF6   8 000          @R8,8
  48129  00007294  00000001 USING  ORDINARY    00000000 00001000 FFFFFFF7   7 000          @R7,7
  48194  000072BC  00000001 USING  ORDINARY    000072BC 00001000 00000001   7 058   48279  $$$1259B,7
  48236  000072CA  00000001 USING  ORDINARY    00000000 00001000 FFFFFFF9   5 000          @R5,5
  48239  000072CA  00000001 USING  ORDINARY    00000000 00001000 FFFFFFE4   5 09C   48292  ACB,R5
  48304  000072F4  00000001 USING  ORDINARY    00000000 00001000 FFFFFFF9   5 000          @R5,5
  48307  000072F4  00000001 USING  ORDINARY    00000000 00001000 FFFFFFDF   5 000          RPL,5
  48312  000072F4  00000001 USING  ORDINARY    00000000 00001000 FFFFFFF7   7 000          @R7,7
  48331  00007302  00000001 USING  ORDINARY    00000000 00001000 FFFFFFF8   6 000          @R6,6
  48337  00007302  00000001 USING  ORDINARY    00000000 00001000 FFFFFFF3  11 000          @R11,11
  48404  00007330  00000001 USING  ORDINARY    00007330 00001000 00000001   7 7C6   48760  $$$1265B,7
  48440  00007330  00000001 USING  ORDINARY    00000000 00001000 FFFFFFF9   5 000          @R5,5
  48443  00007330  00000001 USING  ORDINARY    00000000 00001000 FFFFFFDF   2 080   48472  RPL,R2
  48535  00007358  00000001 USING  ORDINARY    00000000 00001000 FFFFFFDF   5 000          RPL,5
  48540  00007358  00000001 USING  ORDINARY    00000000 00001000 FFFFFFFC   2 000   53304  @R2,2
  48561  0000735E  00000001 USING  ORDINARY    00000000 00001000 FFFFFFF9   5 000          @R5,5
  48564  0000735E  00000001 USING  ORDINARY    00000000 00001000 FFFFFFDF   4 084   48706  RPL,R4
  48577  00007362  00000001 USING  ORDINARY    00000000 00001000 FFFFFFDD   6 08C   51802  VTWA,R6
  48588  00007366  00000001 USING  ORDINARY    00000000 00001000 FFFFFFE8  11 000          CP,CPR
  48752  000073BE  00000001 USING  ORDINARY    00000000 00001000 FFFFFFDF   5 000          RPL,5
  48757  000073BE  00000001 USING  ORDINARY    00000000 00001000 FFFFFFFA   4 000          @R4,4
  48769  000073C2  00000001 USING  ORDINARY    00000000 00001000 FFFFFFF7   7 000          @R7,7
  48839  000073EA  00000001 USING  ORDINARY    000073EA 00001000 00000001   7 CEE   50538  $$$1285B,7
  48863  000073EA  00000001 USING  ORDINARY    00000000 00001000 FFFFFFF9   5 000          @R5,5
  48866  000073EA  00000001 USING  ORDINARY    00000000 00001000 FFFFFFDF   4 058   50354  RPL,R4
  48882  000073F2  00000001 USING  ORDINARY    00000000 00001000 FFFFFFDC   5 00E   49692  VTBHEAD,R5
  48968  00007428  00000001 DROP                                            1              1
  48972  0000742E  00000001 USING  ORDINARY    00000000 00001000 FFFFFFFD   1 000          @R1,1
  49745  000075E8  00000001 USING  ORDINARY    00000000 00001000 FFFFFFF9   5 000          @R5,5
  49748  000075E8  00000001 USING  ORDINARY    00000000 00001000 FFFFFFDC   1 004   49776  VTBHEAD,R1
  49786  000075FC  00000001 USING  ORDINARY    00000000 00001000 FFFFFFDC   5 00E   49989  VTBHEAD,5
  49791  000075FC  00000001 USING  ORDINARY    00000000 00001000 FFFFFFFD   1 000          @R1,1
  50110  000076C2  00000001 USING  ORDINARY    00000000 00001000 FFFFFFF9   5 000          @R5,5
  50113  000076C2  00000001 USING  ORDINARY    00000000 00001000 FFFFFFDC   1 004   50141  VTBHEAD,R1
  50151  000076D6  00000001 USING  ORDINARY    00000000 00001000 FFFFFFDC   5 00E   50526  VTBHEAD,5
  50156  000076D6  00000001 USING  ORDINARY    00000000 00001000 FFFFFFFD   1 000          @R1,1
  50549  000077C2  00000001 USING  ORDINARY    00000000 00001000 FFFFFFF9   5 000          @R5,5
  50558  000077C2  00000001 USING  ORDINARY    00000000 00001000 FFFFFFDF   5 000          RPL,5
  50563  000077C2  00000001 USING  ORDINARY    00000000 00001000 FFFFFFFA   4 000          @R4,4
1VETS     (VETS2025) (12:59) (15MAR04) Using Map                                                                            Page  265
  50568  000077C2  00000001 USING  ORDINARY    00000000 00001000 FFFFFFF7   7 000          @R7,7
  50635  000077EA  00000001 USING  ORDINARY    000077EA 00001000 00000001   7 8EE   51006  $$$1365B,7
  50659  000077EA  00000001 USING  ORDINARY    00000000 00001000 FFFFFFF9   5 000          @R5,5
  50662  000077EA  00000001 USING  ORDINARY    00000000 00001000 FFFFFFDF   4 020   50768  RPL,R4
  50678  000077F2  00000001 USING  ORDINARY    00000000 00001000 FFFFFFDC   5 000          VTBHEAD,R5
  50763  00007822  00000001 DROP                                            1              1
  50767  00007828  00000001 USING  ORDINARY    00000000 00001000 FFFFFFFD   1 000          @R1,1
  51028  00007904  00000001 USING  ORDINARY    00000000 00001000 FFFFFFF9   5 000          @R5,5
  51037  00007904  00000001 USING  ORDINARY    00000000 00001000 FFFFFFDF   5 000          RPL,5
  51042  00007904  00000001 USING  ORDINARY    00000000 00001000 FFFFFFFA   4 000          @R4,4
  51047  00007904  00000001 USING  ORDINARY    00000000 00001000 FFFFFFF7   7 000          @R7,7
  51115  0000792C  00000001 USING  ORDINARY    0000792C 00001000 00000001   7 7AE   51621  $$$1380B,7
  51139  0000792C  00000001 USING  ORDINARY    00000000 00001000 FFFFFFF9   5 000          @R5,5
  51142  0000792C  00000001 USING  ORDINARY    00000000 00001000 FFFFFFDF   4 06C   51450  RPL,R4
  51227  0000795C  00000001 DROP                                            1              1
  51231  00007962  00000001 USING  ORDINARY    00000000 00001000 FFFFFFFD   1 010   52489  @R1,1
  51647  00007AE8  00000001 USING  ORDINARY    00000000 00001000 FFFFFFDF   5 000          RPL,5
  51652  00007AE8  00000001 USING  ORDINARY    00000000 00001000 FFFFFFFA   4 000          @R4,4
  51657  00007AE8  00000001 USING  ORDINARY    00000000 00001000 FFFFFFF7   7 000          @R7,7
  51726  00007B10  00000001 USING  ORDINARY    00007B10 00001000 00000001   7 584   51805  $$$1402B,7
  51750  00007B10  00000001 USING  ORDINARY    00000000 00001000 FFFFFFF9   5 000          @R5,5
  51753  00007B10  00000001 USING  ORDINARY    00000000 00001000 FFFFFFDF   4 018   51757  RPL,R4
  51767  00007B14  00000001 USING  ORDINARY    00000000 00001000 FFFFFFE4   5 030   51781  ACB,R5
  51822  00007B2E  00000001 USING  ORDINARY    00000000 00001000 FFFFFFF9   5 000          @R5,5
  51831  00007B2E  00000001 USING  ORDINARY    00000000 00001000 FFFFFFDF   5 000          RPL,5
  51836  00007B2E  00000001 USING  ORDINARY    00000000 00001000 FFFFFFFA   4 000          @R4,4
  51841  00007B2E  00000001 USING  ORDINARY    00000000 00001000 FFFFFFF7   7 000          @R7,7
  51865  00007B3C  00000001 USING  ORDINARY    00000000 00001000 FFFFFFF2  12 000          @R12,12
  51870  00007B3C  00000001 USING  ORDINARY    00000000 00001000 FFFFFFF3  11 000          @R11,11
  51883  00007B3C  00000001 USING  ORDINARY    00000000 00001000 FFFFFFF8   6 000          @R6,6
  51888  00007B3C  00000001 USING  ORDINARY    00000000 00001000 FFFFFFF9   5 000          @R5,5
  51969  00007B84  00000001 USING  ORDINARY    00007B82 00001000 00000001   7 54A   52003  TPEND,BR
  51981  00007B8A  00000001 USING  ORDINARY    00000000 00001000 FFFFFFE4   5 084   51983  ACB,R5
  51991  00007B8E  00000001 USING  ORDINARY    00000000 00001000 FFFFFFDD   6 088   52032  VTWA,R6
  52001  00007B92  00000001 USING  ORDINARY    00000000 00001000 FFFFFFE8  11 000          CP,CPR
  52011  00007B96  00000001 USING  ORDINARY    00000000 00001000 FFFFFFEA  12 000          CV,CVR
  52048  00007BAE  00000001 USING  ORDINARY    00000000 00001000 FFFFFFF2  12 000          @R12,12
  52053  00007BAE  00000001 USING  ORDINARY    00000000 00001000 FFFFFFF3  11 000          @R11,11
  52064  00007BAE  00000001 USING  ORDINARY    00000000 00001000 FFFFFFF7   7 000          @R7,7
  52069  00007BAE  00000001 USING  ORDINARY    00000000 00001000 FFFFFFF8   6 000          @R6,6
  52074  00007BAE  00000001 USING  ORDINARY    00000000 00001000 FFFFFFF9   5 000          @R5,5
  52119  00007BB0  00000001 USING  ORDINARY    00007BAE 00001000 00000001   7 51E   52153  LOSTERM,BR
  52131  00007BB6  00000001 USING  ORDINARY    00000000 00001000 FFFFFFE4   5 084   52133  ACB,R5
  52141  00007BBA  00000001 USING  ORDINARY    00000000 00001000 FFFFFFDD   6 088   52182  VTWA,R6
  52151  00007BBE  00000001 USING  ORDINARY    00000000 00001000 FFFFFFE8  11 000          CP,CPR
  52161  00007BC2  00000001 USING  ORDINARY    00000000 00001000 FFFFFFEA  12 000          CV,CVR
  52197  00007BDA  00000001 USING  ORDINARY    00000000 00001000 FFFFFFF2  12 000          @R12,12
  52202  00007BDA  00000001 USING  ORDINARY    00000000 00001000 FFFFFFF3  11 000          @R11,11
  52213  00007BDA  00000001 USING  ORDINARY    00000000 00001000 FFFFFFF7   7 000          @R7,7
  52218  00007BDA  00000001 USING  ORDINARY    00000000 00001000 FFFFFFF8   6 000          @R6,6
  52223  00007BDA  00000001 USING  ORDINARY    00000000 00001000 FFFFFFF9   5 000          @R5,5
  52271  00007BDC  00000001 USING  ORDINARY    00007BDA 00001000 00000001   7 4F2   53057  SCIP,BR
  52283  00007BE2  00000001 USING  ORDINARY    00000000 00001000 FFFFFFE4   5 084   52285  ACB,R5
  52293  00007BE6  00000001 USING  ORDINARY    00000000 00001000 FFFFFFDD   6 088   52992  VTWA,R6
  52303  00007BEA  00000001 USING  ORDINARY    00000000 00001000 FFFFFFE8  11 000          CP,CPR
  52313  00007BEE  00000001 USING  ORDINARY    00000000 00001000 FFFFFFEA  12 720   52864  CV,CVR
  52323  00007BF2  00000001 USING  ORDINARY    00000000 00001000 FFFFFFDF   3 020   52540  RPL,R3
  52404  00007C16  00000001 USING  ORDINARY    00000000 00001000 FFFFFFE3   9 000   52489  ISTDBIND,R9
  52516  00007C56  00000001 USING  ORDINARY    00000000 00001000 FFFFFFF5   9 001   52593  @R9,9
1VETS     (VETS2025) (12:59) (15MAR04) Using Map                                                                            Page  266
  52709  00007CB2  00000001 USING  ORDINARY    00000000 00001000 FFFFFFF9   5 000          @R5,5
  52712  00007CB2  00000001 USING  ORDINARY    00000000 00001000 FFFFFFE4   1 0B0   52718  ACB,R1
  52729  00007CB6  00000001 USING  ORDINARY    00000000 00001000 FFFFFFE4   5 000          ACB,5
  52734  00007CB6  00000001 USING  ORDINARY    00000000 00001000 FFFFFFFD   1 000          @R1,1
  52750  00007CB6  00000001 USING  ORDINARY    00000000 00001000 FFFFFFFB   3 000          @R3,3
  52753  00007CB6  00000001 USING  ORDINARY    00000000 00001000 FFFFFFDF   1 080   52778  RPL,R1
  52764  00007CBA  00000001 USING  ORDINARY    00000000 00001000 FFFFFFF9   5 000          @R5,5
  52819  00007CD2  00000001 USING  ORDINARY    00000000 00001000 FFFFFFDF   3 080   52825  RPL,R3
  52832  00007CD6  00000001 USING  ORDINARY    00000000 00001000 FFFFFFFB   3 000          @R3,3
  52875  00007CEC  00000001 USING  ORDINARY    00000000 00001000 FFFFFFDF   3 017   53050  RPL,3
  52880  00007CEC  00000001 USING  ORDINARY    00000000 00001000 FFFFFFFD   1 010   53191  @R1,1
  53076  00007D44  00000001 USING  ORDINARY    00000000 00001000 FFFFFFF2  12 000          @R12,12
  53081  00007D44  00000001 USING  ORDINARY    00000000 00001000 FFFFFFF3  11 000          @R11,11
  53092  00007D44  00000001 USING  ORDINARY    00000000 00001000 FFFFFFF7   7 000          @R7,7
  53097  00007D44  00000001 USING  ORDINARY    00000000 00001000 FFFFFFF8   6 000          @R6,6
  53106  00007D44  00000001 USING  ORDINARY    00000000 00001000 FFFFFFFB   3 000          @R3,3
  53147  00007D46  00000001 USING  ORDINARY    00007D44 00001000 00000001   7 39B   53335  NSEXIT,BR
  53159  00007D4C  00000001 USING  ORDINARY    00000000 00001000 FFFFFFE4   5 084   53161  ACB,R5
  53169  00007D50  00000001 USING  ORDINARY    00000000 00001000 FFFFFFDD   6 088   53357  VTWA,R6
  53179  00007D54  00000001 USING  ORDINARY    00000000 00001000 FFFFFFE8  11 000          CP,CPR
  53189  00007D58  00000001 USING  ORDINARY    00000000 00001000 FFFFFFEA  12 000          CV,CVR
  53199  00007D5C  00000001 USING  ORDINARY    00000000 00001000 FFFFFFDF   3 020   53202  RPL,R3
  53378  00007DC8  00000001 USING  ORDINARY    00000000 00001000 FFFFFFF2  12 000          @R12,12
  53383  00007DC8  00000001 USING  ORDINARY    00000000 00001000 FFFFFFF3  11 000          @R11,11
  53394  00007DC8  00000001 USING  ORDINARY    00000000 00001000 FFFFFFF7   7 000          @R7,7
  53399  00007DC8  00000001 USING  ORDINARY    00000000 00001000 FFFFFFF8   6 000          @R6,6
  53404  00007DC8  00000001 USING  ORDINARY    00000000 00001000 FFFFFFF9   5 000          @R5,5
  53411  00007DC8  00000001 USING  ORDINARY    00000000 00001000 FFFFFFFB   3 000          @R3,3
  53455  00007DCA  00000001 USING  ORDINARY    00007DC8 00001000 00000001   7 304   53587  SRBROUT,BR
  53466  00007DD0  00000001 USING  ORDINARY    00000000 00001000 FFFFFFEA  12 720   53609  CV,CVR
  53476  00007DD2  00000001 USING  ORDINARY    00000000 00001000 FFFFFFDF   6 080   53491  RPL,R6
  53537  00007DEA  00000001 USING  ORDINARY    00000000 00001000 FFFFFFF8   6 000          @R6,6
  53540  00007DEA  00000001 USING  ORDINARY    00000000 00001000 FFFFFFDF   3 080   53546  RPL,R3
  53557  00007DEE  00000001 USING  ORDINARY    00000000 00001000 FFFFFFDF   6 000          RPL,6
  53562  00007DEE  00000001 USING  ORDINARY    00000000 00001000 FFFFFFFB   3 000          @R3,3
  53640  00007E40  00000001 USING  ORDINARY    00000000 00001000 FFFFFFF2  12 000          @R12,12
  53653  00007E40  00000001 USING  ORDINARY    00000000 00001000 FFFFFFF7   7 000          @R7,7
  53658  00007E40  00000001 USING  ORDINARY    00000000 00001000 FFFFFFF8   6 000          @R6,6

1         (VETS2025) (12:59) (15MAR04) General Purpose Register Cross Reference                                             Page  267
- Register  References (M=modified, B=branch, U=USING, D=DROP, N=index)                      HLASM R4.0  2004/03/15 12.59
0    0(0)      982U   983D  3512   3580M  3580   3581M  9994U 11208U 11209D 13683M 13701M 13729M 13784M 13784  13793
             13794  13795  13822M 13822  13844  13908  14011  14120M 14190M 14361M 14361  14411  14492M 14522  14604M
             14661M 14679M 14702M 14702  14711  14712  14713  14742M 14742  14788M 14806M 14840M 14874M 14912M 14946M
             14991M 15024M 15093M 15114M 15148M 15182M 15279M 15279  15300M 15352M 15396M 15425M 15425  15481M 15510M
             15510  15605M 15689  15723  15959M 16001  16153M 16202M 16220M 16232M 16257M 16323M 16341M 16353M 16426M
             16444M 16471M 16489M 16516M 16651  16729M 16729  16738  16739  16740  16767M 16767  16783  16913M 16913
             16922  16923  16924  16951M 16951  16960  16998M 16998  17007  17008  17009  17036M 17036  17050  17288M
             17380  17455M 17462M 17462  17472M 17523  17530  17691  17833M 17840M 17840  17850M 17901  17908  18155
             18173M 18173  18174M 18236M 18386M 18404M 18440M 18545  18588M 18588  18597  18598  18599  18626M 18626
             18808M 18815M 18815  18825M 18876  18883  19031  19165M 19183M 19219M 19237M 19313M 19331M 19367M 19385M
             19427M 19523M 19541M 19555M 19599  19663M 20035M 20134M 20159M 20177M 20195M 20601M 20633  20740  20798M
             20805M 20805  20815M 20866  20873  21040  21143  21241  21429  21465M 21508  21621  21782  21819M 21859
             21954M 21954  21978M 22039  22082M 22165  22197  22375M 22375  22376M 22377  22378M 22380M 22381  22385M
             22385  22386M 22387  22388M 22390M 22391  22898M 22905M 22912M 22919M 23037M 23044M 23044  23054M 23105
             23112  23297  23322  23373  23402  23431  23460  23534M 23534  23535M 23627M 23634M 23634  23663M 23663
             23664M 23730M 23832  23903M 23921M 23939M 23977M 24017  24056M 24074M 24092M 24130M 24200  24249M 24249
             24272  24280  24344  24483M 24494M 24494  24500  24545M 24553M 24554M 24607M 24625M 24625  25129M 25129
             26009M 26009  26010M 26011  26898M 26899M 26909  26916M 26921  26922  27003M 27021M 27021  27151M 27292
             27692  27831M 27960  28088M 28088  28282M 28332  28385M 28428  28528M 28528  28665  28729M 28766  28857M
             28971  29034  29102M 29151M 29170M 29477M 29498  29548  29550M 29551M 29552M 29560M 29561M 29562M 29564M
             29565M 29566M 29568M 29569M 29579M 29579  29607  29657  29659M 29660M 29661M 29669M 29670M 29671M 29673M
             29674M 29675M 29677M 29678M 30211M 30267M 30268M 30270M 30270  30271M 30272  30966M 30987  30997  30999M
             31000M 31001M 31003M 31004M 31005M 31007M 31008M 31009M 31011M 31012M 31022M 31022  31040  31046  31048M
             31049M 31050M 31058M 31059M 31060M 31062M 31063M 31064M 31066M 31067M 31179M 31363  31422  31490M 31549M
             31558M 31581M 31626M 31681M 31709M 31731M 31816M 31899M 31900M 31984M 31985M 32078M 32078  32131M 32132M
             32234M 32351M 32351  32390M 32420M 32629M 32685M 32776M 32897M 32942M 32955M 33094M 33116M 33245M 33274M
             33304M 33398M 33522M 33544M 33641M 33662M 33707M 33858M 33880M 34079M 34079  34214M 34243M 34273M 34294M
             34303M 34303  34304M 34343M 34352M 34352  34353M 34369M 34369  34383  34390M 34411M 34435M 34440M 34441M
             34459  34466M 34560M 34589M 34620M 34798M 34798  34948M 34949M 35066M 35066  35400M 35416  35540M 35658
             35772M 35817  35929M 35978  36073  36081M 36101  36109M 36129  36137M 36157  36185M 36290  36336M 36648M
             36648  36922M 36963M 37023M 37064M 37125M 37165M 37239M 37279M 37353M 37393M 37467M 37507M 37565M 37566M
             37664M 37738M 37779M 37840M 37940M 37995  38023M 38137M 38196M 38292M 38384M 38457M 38530M 38637M 38716M
             38819M 38927  39015  39097M 39320M 39360  39389M 39427  39562  39977M 39984M 39984  39994M 40045  40052
             40219  40278M 40318  40357M 40375M 40414M 40455  40500M 40518M 40557M 40694  40765M 40765  40793M 40809M
             40825M 40841M 41093M 41145M 41188M 41211M 41211  41229M 41252M 41252  41270M 41293M 41293  41311M 41347M
             41367M 41367  41430M 41528  41612M 41979M 42016M 42035M 42170M 42188M 42265M 42283M 42403M 42434M 42473M
             42531M 42565M 42592M 42635M 42684M 42832M 42850M 42894M 42912M 42959M 43008M 43057M 43096M 43221M 43261M
             43299M 43348M 43397M 43446M 43495M 43544M 43593M 43642M 43686M 43812M 43909M 43940M 43995M 44078M 44154M
             44200M 44220M 44220  44293M 44322  44374M 44396M 44396  44414M 44436M 44436  44454M 44481M 44595  44637
             44734M 44784  44876M 44908  45008M 45154M 45194  45227M 45266  45371  45442M 45449M 45449  45459M 45510
             45517  45684  45732M 45760  45807  45816M 45840M 46074M 46083  46098M 46138  46317  46388  46437M 46633M
             46704  46732M 46829  46840M 46986  46995M 47108  47117M 47235  47244M 47347  47356M 47406M 47473  47666
             48014  48098  48137M 48177  48320M 48387  48735  48777M 48822  48890M 48943  48950  49598M 49839M 49839
             49998  50238M 50238  50465M 50576M 50618  50686M 50738  50745  50951M 50951  50977M 51015  51055M 51098
             51150M 51202  51209  51413M 51470M 51470  51590M 51630  51665M 51709  51802M 51849M 52031M 52031  52181M
             52181  52426M 52508M 52508  52675M 52675  52863M 52863  52991M 52991  53344M 53344  53356M 53356  53362M
             53362  53596M 53603  53618M 53625
     1(1)      978U  3512   3575M  3576M  3582M 13682M 13700M 13728M 13780M 13793N 13794N 13795N 14031  14121M 14135M
             14135  14143  14172  14189M 14200M 14201M 14201  14232  14233  14269  14411  14492M 14522  14604M 14660M
             14678M 14698M 14711N 14712N 14713N 14783M 14805M 14839M 14873M 14911M 14945M 14990M 15023M 15088M 15147M
             15181M 15275M 15351M 15391M 15480M 15604M 15689  15790M 15811M 15811  15828M 15892M 15928M 15928  15944
             15959M 16001  16031M 16031  16122M 16138  16153M 16201M 16219M 16231M 16250M 16322M 16340M 16352M 16425M
             16443M 16470M 16488M 16515M 16651  16725M 16738N 16739N 16740N 16849M 16878M 16909M 16922N 16923N 16924N
             16994M 17007N 17008N 17009N 17107M 17185M 17193  17222M 17222  17293  17324M 17380  17414M 17416  17419N
             17420  17421  17422  17423  17447  17448  17450  17452  17456N 17463M 17471M 17473N 17497M 17530M 17548D
1         (VETS2025) (12:59) (15MAR04) General Purpose Register Cross Reference                                             Page  268
             17550M 17550  17551M 17552U 17564  17576M 17583N 17691  17799M 17801  17804N 17805N 17806  17808N 17809
             17810  17811  17812  17827  17829  17831  17834N 17841M 17849M 17851N 17875M 17908M 17926D 17928M 17928
             17929M 17930U 17942  17954M 17961N 18155  18175M 18236M 18385M 18403M 18439M 18545  18584M 18597N 18598N
             18599N 18766M 18768  18771N 18772  18773  18774  18775  18799  18800  18802  18804  18806  18809N 18816M
             18824M 18826N 18850M 18883M 18901D 18903M 18903  18904M 18905U 18917  18929M 18936N 19031  19164M 19182M
             19218M 19236M 19312M 19330M 19366M 19384M 19522M 19540M 19554M 19599  19663M 20036M 20133M 20152M 20176M
             20194M 20503M 20505M 20505  20516M 20518  20523N 20524N 20525  20526  20527  20528  20552  20553  20555
             20557  20582  20583  20585  20587  20596  20597  20598  20599  20602N 20609M 20611M 20611  20633  20740
             20765M 20767  20770N 20771  20772  20773  20774  20789  20791  20793  20793  20794  20795  20796  20799N
             20806M 20814M 20816N 20840M 20873M 20891D 20893M 20893  20894M 20895U 20907  20919M 20926N 21040  21143
             21219M 21241  21429  21465M 21508  21537M 21538M 21538  21599M 21621  21782  21819M 21859  21978M 22039
             22087  22109M 22165  22197  22377M 22379M 22380  22387M 22389M 22390  22410M 22410  22411M 22423  22656M
             22656  22669  22676M 22681M 22682M 22682N 22683  22814M 22847  22861M 22861  22867M 22872M 22877M 22882M
             22903  22910  22917  22924  23005M 23007  23009N 23010  23012N 23013  23014  23015  23016  23031  23033
             23035  23038N 23045M 23053M 23055N 23079M 23112M 23130D 23132M 23132  23133M 23134U 23146  23158M 23164N
             23297  23322  23338M 23373  23402  23431  23460  23536M 23584M 23586  23588N 23589  23591N 23592  23593
             23594  23595  23610  23612  23621  23622  23623  23623  23624  23625  23628N 23635M 23665M 23730M 23832
             23902M 23920M 23938M 23977M 24017  24055M 24073M 24091M 24130M 24200  24247M 24247  24271  24279  24323M
             24344  24482M 24544M 24552M 24602M 25963M 25963  26000  26011N 26086M 26897M 26998M 27163M 27270M 27292
             27670M 27692  27831M 27960  28282M 28332  28385M 28428  28665  28679M 28681M 28681  28692M 28694  28699N
             28700  28715  28717  28726  28727  28730N 28737M 28739M 28739  28766  28857M 28971  29033  29124  29141
             29146  29152M 29154  29170M 29205M 29205  29317M 29337M 29338  29341M 29341  29342M 29343  29433M 29435M
             29437M 29468M 29497M 29498M 29512  29519M 29536  29541  29544  29549  29551M 29553M 29561M 29563M 29565M
             29567M 29569M 29606M 29607M 29618  29625M 29642  29647  29650  29653  29658  29660M 29662M 29670M 29672M
             29674M 29676M 29678M 29684M 29693M 29693  29705  29874M 29875M 29876  29879M 29880M 29881  29949M 29950M
             29952M 29953M 29955M 29956M 29958M 29959M 30021M 30022M 30023  30026M 30027M 30028  30033M 30062M 30063M
             30064  30067M 30068M 30069  30089M 30090M 30091  30095M 30096M 30097  30159M 30160M 30161  30252M 30252
             30266M 30267  30269  30356M 30365M 30365  30373M 30378M 30401  30462M 30478M 30518  30563M 30563  30568
             30594  30636M 30661M 30661  30674  30683M 30692M 30692  30700M 30705M 30728  30759M 30762  30774M 30789
             30873M 30873N 30885  30897  30909  30916  30986M 30987M 30998  31000M 31002M 31004M 31006M 31008M 31010M
             31012M 31039M 31040M 31042  31047  31049M 31051M 31059M 31061M 31063M 31065M 31067M 31179M 31363  31414
             31500M 31500  31557M 31815M 31959M 31976N 31997  32053M 32070M 32103  32233M 32433M 32434M 32457M 32458M
             32487M 32488M 32523M 32524M 32541M 32541  32553  32577N 32579M 32641M 32641  32686M 32791M 32797M 32799M
             32801M 32870M 32876M 32878M 32880M 32905D 32907M 32907  32908M 32909U 32910  32921M 32921  32959M 32959
             32978M 33010M 33042M 33074M 33108M 33108  33140  33156M 33157M 33158  33253D 33255M 33255  33256M 33257U
             33258M 33280M 33296  33310  33361M 33361  33438M 33470M 33502M 33536M 33536  33601M 33670D 33672M 33672
             33673M 33674U 33675  33686M 33686  33723M 33723  33742M 33774M 33806M 33838M 33872M 33872  33904  33920M
             33921M 33922  34039M 34056M 34089  34222D 34224M 34224  34225M 34226U 34227M 34249M 34265  34453  34460
             34461M 34467M 34480  34568D 34570M 34570  34571M 34572U 34573M 34595M 34600  34633M 34650M 34671N 34749M
             34773M 34790M 34823  35020M 35037M 35051  35058M 35091  35269M 35271M 35274M 35277M 35412M 35412  35416
             35540M 35658  35701  35707N 35748M 35755M 35757  35772M 35817  35858M 35858  35864N 35905M 35912M 35914
             35929M 35978  36014  36021M 36026  36067  36095  36123  36151  36166  36185M 36290  36341  36685M 36720M
             36720  36733M 36733  36743M 36743  36767M 36767  36772  36774  36899M 36900  36927  36928  36968  36969
             37000M 37001  37028  37029  37041M 37042  37069  37070  37102M 37103  37130  37131  37170  37171  37186M
             37187M 37188  37216M 37217  37244  37245  37284  37285  37300M 37301M 37302  37330M 37331  37358  37359
             37398  37399  37414M 37415M 37416  37444M 37445  37472  37473  37512  37513  37528M 37529M 37530  37538D
             37540M 37540  37541M 37542U 37544  37578M 37579M 37584  37600M 37600  37605  37641M 37642  37669  37670
             37682M 37683M 37695  37705M 37705  37714  37743  37744  37784  37785  37845  37846  37940M 37995  38028
             38116M 38129  38142  38143  38155M 38175M 38188  38201  38202  38214M 38271M 38284  38297  38298  38310M
             38363M 38376  38389  38390  38402M 38436M 38449  38462  38463  38475M 38509M 38522  38535  38536  38548M
             38551M 38579M 38582M 38616M 38629  38642  38643  38655M 38658M 38695M 38708  38721  38722  38734M 38781M
             38819M 38927  39015  39102  39143M 39144  39191M 39192  39194M 39195  39256M 39258M 39258  39269M 39271
             39273N 39274  39275  39276  39277  39292  39294  39303  39304  39305  39306  39307  39307  39308  39316
             39317  39318  39321N 39328M 39330M 39330  39360  39389M 39427  39562  39937M 39939  39942N 39943  39944
             39945  39946  39961  39963  39972  39973  39974  39975  39978N 39985M 39993M 39995N 40019M 40052M 40070D
             40072M 40072  40073M 40074U 40086  40098M 40105N 40219  40278M 40318  40356M 40374M 40414M 40455  40499M
             40517M 40557M 40694  40792M 40792  40793M 40808M 40808  40809M 40824M 40824  40825M 40840M 40840  40841M
             41092M 41140M 41183M 41207M 41228M 41248M 41269M 41289M 41310M 41342M 41430M 41528  41607M 41625M 41665
             41668M 41677M 41678M 41700  41745  41798M 41808M 41818M 41856M 41882M 41974M 42011M 42034M 42052M 42053M
1         (VETS2025) (12:59) (15MAR04) General Purpose Register Cross Reference                                             Page  269
             42075  42120  42165M 42187M 42260M 42282M 42305M 42315M 42325M 42398M 42416M 42417M 42433M 42454M 42455M
             42472M 42512M 42513M 42530M 42564M 42591M 42630M 42679M 42730M 42827M 42849M 42889M 42911M 42958M 43007M
             43056M 43095M 43119M 43216M 43260M 43298M 43347M 43396M 43445M 43494M 43543M 43592M 43641M 43685M 43704M
             43807M 43902M 43933M 43990M 44071M 44149M 44178M 44195M 44293M 44322  44348  44369M 44392M 44413M 44432M
             44453M 44481M 44595  44621  44637  44669  44700  44702  44706M 44708M 44719  44734M 44784  44811  44823M
             44847  44849M 44850M 44857  44876M 44908  45013  45057M 45059M 45059  45070M 45072  45075N 45076N 45077N
             45078  45079  45080  45081  45105  45106  45108  45110  45135  45136  45138  45140  45149  45150  45151
             45152  45155N 45162M 45164M 45164  45194  45227M 45266  45371  45396M 45398  45401N 45402  45403  45404
             45405  45420  45422  45424  45424  45425  45433  45438N 45439  45440  45443N 45450M 45458M 45460N 45484M
             45517M 45535D 45537M 45537  45538M 45539U 45551  45563M 45570N 45684  45732M 45760  45807  45821  45839M
             45839  45840M 46098M 46138  46224M 46240M 46240  46295M 46317  46366M 46388  46406M 46422M 46422  46438M
             46438  46446M 46462M 46462  46477M 46493M 46493  46508M 46524M 46524  46539M 46555M 46555  46570M 46586M
             46586  46608M 46633M 46704  46735M 46737  46786M 46829  46845  46913M 46986  47000  47051M 47108  47122
             47174M 47235  47249  47298M 47347  47361  47372M 47374  47406M 47473  47666  47685M 47686N 47687N 47688N
             48014  48057U 48061M 48069M 48077M 48085M 48096M 48096  48098  48107U 48137M 48177  48271M 48272N 48273N
             48274N 48320M 48387  48735  48777M 48822  48889M 48891N 48917M 48950M 48968D 48970M 48970  48971M 48972U
             48984  48996M 49004N 49201  49210M 49221  49257  49700M 49708  49748U 49769M 49791U 49840M 49864M 49864
             49888M 49888  49976M 49998  50065M 50073  50113U 50134M 50156U 50239M 50576M 50618  50685M 50687N 50712M
             50745M 50763D 50765M 50765  50766M 50767U 50779  50791M 50798N 50925  50952M 50963M 50965M 50965  50975M
             50978N 50985M 50987M 50987  51015  51055M 51098  51149M 51151N 51176M 51209M 51227D 51229M 51229  51230M
             51231U 51243  51255M 51262N 51471M 51492M 51494M 51494  51505M 51507  51512N 51513N 51514  51515  51516
             51517  51541  51542  51544  51546  51571  51572  51574  51576  51585  51586  51587  51588  51591N 51598M
             51600M 51600  51630  51665M 51709  51849M 52032M 52182M 52417M 52418M 52418  52427M 52445  52465M 52465
             52483M 52483  52509M 52676M 52694M 52712U 52718M 52734U 52753U 52793  52794  52825  52834  52864M 52880U
             52992M 53357M 53468  53597M 53604  53619M 53626
     2(2)      974U  3512  13770M 13770  13995M 14233M 14251U 14276M 14298U 14411  14492M 14522  14604M 15252M 15275
             15689  15777M 15777  15784M 15789  15959M 16001  16153M 16651  16783M 16786  16798M 16805M 16807  16827M
             16827  16843  16849N 16871M 16878M 16960M 16973  17050M 17053  17065M 17086  17089M 17091  17107M 17186M
             17192  17287M 17288  17322  17380  17479M 17479  17553M 17613  17640  17653  17666  17691  17857M 17857
             17931M 17991  18018  18031  18044  18072  18085  18098  18127  18155  18236M 18545  18832M 18832  18906M
             18966  18993  19006  19031  19047  19599  19663M 20507M 20524  20605M 20624M 20624  20633  20740  20822M
             20822  20896M 20949  20976  20989  21002  21015  21040  21143  21170M 21179M 21179  21241  21277  21305
             21318  21331  21353  21366  21379  21392  21405  21429  21465M 21508  21580M 21591M 21591  21597  21598M
             21621  21647M 21656M 21656  21672  21697  21719  21732  21745  21758  21782  21819M 21859  21978M 22039
             22081M 22082  22107  22165  22197  22433M 22444  22451  22475  22482  22506  22513  22537  22544  22568
             22575  22599  22606  22624M 22625  22806M 22807M 22808  22809M 22810M 22811  22826  22833M 22847  22896
             22898  22905  22912  22919  23061M 23061  23135M 23194  23219  23246  23259  23272  23297  23313M 23313
             23322  23373  23402  23431  23460  23730M 23832  23977M 24017  24130M 24200  24344  24500M 24512  24519M
             24526M 24528  24543M 24544  24545  24692D 24694M 24694  24695M 24696U 24805M 24806M 24815M 24815  24822
             24939D 24941M 24941  24942M 24943U 24955  25070M 25071M 25158  25275D 25277M 25277  25278M 25279U 25291
             25407D 25409M 25409  25410M 25411U 25422  25453  25484  25538  25690D 25692M 25692  25693M 25694U 25705
             25738  26174  26291D 26293M 26293  26294M 26295U 26306  26429D 26431M 26431  26432M 26433U 26444  26475
             26506  26667  26783D 26785M 26785  26786M 26787U 26798  26817  26852  27251M 27262M 27262  27268  27269M
             27292  27651M 27662M 27662  27668  27669M 27692  27831M 27960  28282M 28332  28385M 28428  28665  28683M
             28733M 28750M 28750  28766  28857M 28971  29094M 29095M 29095  29158  29160  29167  29235M 29244M 29244
             29281M 29281  29289  29301M 29308M 29310  29317M 29336  29361M 29363M 29364  29365M 29365  29366M 29434M
             29435  29450M 29450  29470M 29541M 29542M 29543  29544M 29545M 29546  29548M 29552  29562  29566  29647M
             29648M 29649  29650M 29651M 29652  29653M 29654M 29655  29657M 29661  29671  29675  29705M 29706M 29707
             29948M 29949  29952  29955  29958  29962M 29974  29984M 29984  29989  30001  30036D 30038M 30038  30039M
             30040U 30052  30058  30164M 30165M 30166  30260D 30262M 30262  30263M 30264U 30265  30301  30320  30339
             30517M 30518M 30593M 30594M 30997M 31001  31005  31009  31042M 31043M 31044  31046M 31050  31060  31064
             31179M 31363  31511D 31513M 31513  31514M 31515U 31528  31561D 31563M 31563  31564M 31565U 31587M 31588M
             31597M 31597  31604M 31609M 31610  31634D 31636M 31636  31637M 31638U 31650  31689D 31691M 31691  31692M
             31693U 31702M 31702  31739D 31741M 31741  31742M 31743U 31780  31794  31808  31814  31839  32275  32289
             32306  32383  32428D 32430M 32430  32431M 32432U 32434  32458  32488  32524  32536M 32553  32657D 32659M
             32659  32660M 32661U 32673  32723  32734M 32734  32755  32784D 32786M 32786  32787M 32788U 32789M 32790M
             32792  32796M 32796  32798  32800  32802  32863  32869M 32871  32875M 32875  32877  32879  32881  32950D
             32952M 32952  32953M 32954U 32971  33003  33035  33067  33124D 33126M 33126  33127M 33128U 33146M 33147M
             33153  33224  33343  33353D 33355M 33355  33356M 33357U 33370M 33370  33431  33463  33495  33552D 33554M
1         (VETS2025) (12:59) (15MAR04) General Purpose Register Cross Reference                                             Page  270
             33554  33555M 33556U 33557  33595  33715D 33717M 33717  33718M 33719U 33735  33767  33799  33831  33888D
             33890M 33890  33891M 33892U 33910M 33911M 33917  33988  34027  34193  34316  34460M 34467  34539  34600M
             34612  34710  35014  35051  35058  35101  35218  35266M 35270  35272M 35273  35275M 35276  35294M 35318M
             35323  35382D 35384M 35384  35385M 35386U 35540M 35658  35687M 35687  35707M 35721  35732M 35732  35772M
             35817  35846M 35846  35864M 35878  35889M 35889  35929M 35978  36026M 36027M 36038  36055M 36067  36073N
             36074M 36083M 36095  36101N 36102M 36111M 36123  36129N 36130M 36139M 36151  36157N 36158M 36185M 36290
             36807D 36809M 36809  36810M 36811U 36823  36837M 36837  36940M 36941  37090M 37143  37197D 37199M 37199
             37200M 37201U 37210M 37210  37257  37311D 37313M 37313  37314M 37315U 37324M 37324  37371  37425D 37427M
             37427  37428M 37429U 37438M 37438  37485  37566  37714M 37716  37757  37818  37940M 37995  38078D 38080M
             38080  38081M 38082U 38095  38247  38339  38430  38503  38610  38689  38819M 38927  39015  39068M 39088M
             39095M 39096  39097  39324M 39342M 39342  39360  39389M 39427  39562  40001M 40001  40075M 40128  40155
             40168  40181  40194  40219  40278M 40318  40414M 40455  40557M 40694  41201M 41207  41242M 41248  41283M
             41289  41430M 41528  41671D 41673M 41673  41674M 41675U 41676  41678  41859M 41860M 41861  41885D 41887M
             41887  41888M 41889U 41901M 41901  41915  42051  42053  42417  42455  42513  44027M 44027  44034M 44055M
             44055N 44060  44293M 44322  44354M 44355  44481M 44595  44637  44734M 44784  44876M 44908  45007M 45008
             45061M 45077  45158M 45176M 45176  45194  45227M 45266  45371  45466M 45466  45540M 45593  45620  45633
             45646  45659  45684  45732M 45760  45807  46098M 46138  46276M 46287M 46287  46293  46294M 46317  46347M
             46358M 46358  46364  46365M 46388  46633M 46704  46829  46986  47108  47235  47347  47406M 47473  47666
             48014  48137M 48177  48320M 48387  48443U 48447M 48456M 48456  48511M 48546  48735  48777M 48822  48899M
             48899  48973M 49028  49202  49211M 49221  49235  49708M 49762M 49762  49769  49770M 49957M 49968M 49968
             49974  49975M 49998  50073M 50127M 50127  50134  50135M 50576M 50618  50694M 50694  50768M 50822  50844
             50858  50884  50898  50926  50981M 50999M 50999  51015  51055M 51098  51158M 51158  51232M 51286  51496M
             51513  51594M 51612M 51612  51630  51665M 51709  51849M 52779M 52780  52839M 53202M 53492M 53493  53569M
     3(3)      970U  3512  14011M 14014  14026M 14120  14196  14411  14492M 14522  14604M 14973M 15555  15689  15832D
             15834M 15834  15835M 15836U 15865  15873M 15885  15891  15911M 15912  15915M 15959M 16001  16153M 16651
             17251M 17259U 17262M 17264M 17266M 17268M 17380  17395M 17414  17471  17683M 17691  17799  17849  18147M
             18155  18236M 18247U 18545  19023M 19031  19599  19663M 20633  20740  21032M 21040  21143  21241  21421M
             21429  21465M 21508  21621  21774M 21782  21819M 21859  21978M 22039  22165  22197  22967M 22977U 23005
             23053  23289M 23297  23322  23354M 23364M 23364  23373  23383M 23393M 23393  23402  23412M 23422M 23422
             23431  23441M 23451M 23451  23460  23517M 23584  23705U 23730M 23832  23977M 24017  24130M 24200  24305M
             24344  24425M 24447M 24447  24770M 24792M 24792  24822M 24827  24828M 24902M 24924M 24924  25035M 25057M
             25057  25238M 25260M 25260  25370M 25392M 25392  25653M 25675M 25675  25817M 25839M 25839  25925M 25947M
             25947  25987M 25987  26085M 26254M 26276M 26276  26392M 26414M 26414  26609M 26631M 26631  26746M 26768M
             26768  26861M 26891M 26891  26909  26916  26921M 27146M 27292  27692  27831M 27960  28282M 28332  28385M
             28428  28665  28766  28857M 28971  29163M 29164M 29165  29166M 29167M 29168  29234M 29337  29362M 29549M
             29553  29563  29567  29658M 29662  29672  29676  30176M 30176  30216N 30217M 30217  30253  30255  30998M
             31002  31006  31010  31047M 31051  31061  31065  31179M 31363  31860M 31860  31940M 32047  32053  32103M
             32116  32123N 32162  32169  32208M 32233  32537M 32653M 32653  32792N 32798N 32800N 32802N 32804M 32816
             32826M 32826  32871N 32877N 32879N 32881N 33153N 33165M 33177  33187M 33187  33310M 33607N 33917N 33929M
             33941  33951M 33951  33994  34039  34089M 34101  34110M 34110  34118N 34140M 34152  34162M 34162  34453
             34471M 34471  34480M 34492  34502M 34502  34633  34710  34717N 34767  34773  34823M 34835  34842N 34895M
             34904M 34904  34916N 34997M 35014  35020  35091M 35101  35108N 35161M 35178  35188M 35188  35270N 35273N
             35276N 35323N 35325M 35337  35347M 35347  35540M 35658  35772M 35817  35929M 35978  36027  36055  36083
             36111  36139  36185M 36290  36772M 36798  36810N 37200N 37314N 37428N 37578  37584M 37605M 37617  37682
             37863M 37881  37899M 37899  37940M 37995  38056M 38056  38070  38081N 38742M 38819M 38927  38957M 38967U
             38973M 38980U 38991U 39015  39269  39360  39376U 39389M 39427  39562  40211M 40219  40278M 40318  40414M
             40455  40557M 40694  41430M 41528  41801D 41803M 41803  41804M 41805U 41806  41811D 41813M 41813  41814M
             41815U 41816  41821D 41823M 41823  41824M 41825U 41826  42308D 42310M 42310  42311M 42312U 42313  42318D
             42320M 42320  42321M 42322U 42323  42328D 42330M 42330  42331M 42332U 42334  42360  42733D 42735M 42735
             42736M 42737U 42739  42779  42788M 42788  42795M 42947  42996  43045  43122D 43124M 43124  43125M 43126U
             43128  43154  43163M 43163  43170M 43287M 43287  43336  43385  43434  43483  43532  43581  43630  43707D
             43709M 43709  43710M 43711U 43713  43753  43769M 43769  43776M 43790M 43790  43841  43867  43868  43880
             43968  44293M 44322  44481M 44595  44637  44734M 44784  44876M 44908  44991M 45006M 45050  45076  45194
             45227M 45266  45371  45676M 45684  45732M 45760  45807  46098M 46138  46317  46388  46633M 46704  46762M
             46784  46829  46986  47108  47235  47347  47406M 47473  47527M 47666  48014  48137M 48177  48320M 48387
             48447M 48506  48511M 48735  48777M 48822  49998  50576M 50618  51015  51055M 51098  51630  51665M 51709
             51849M 52315M 52323U 52750U 52779M 52819U 52832U 52839M 52875U 53106U 53191M 53199U 53411U 53492M 53540U
             53562U 53569M
     4(4)      966U  3512  13768M 13768  14031M 14050M 14050  14121  14411  14492M 14522  14604M 15228M 15246U 15268U
1         (VETS2025) (12:59) (15MAR04) General Purpose Register Cross Reference                                             Page  271
             15689  15829M 15835N 15851M 15851  15891N 15912N 15914M 15915N 15959M 16001  16033M 16088  16153M 16651
             17274M 17275M 17275  17293M 17301U 17303  17321  17380  17691  17805  18155  18236M 18253U 18545  19031
             19599  19663M 20633  20682M 20692U 20698M 20705U 20716U 20740  20765  20814  21040  21053U 21143  21200M
             21211M 21211  21217  21218M 21241  21429  21465M 21508  21566M 21576U 21580  21597M 21599  21621  21782
             21806U 21819M 21859  21978M 22039  22068M 22069M 22069  22087M 22088  22106  22165  22180M 22181M 22181
             22197  22214U 22936U 22939M 22949U 23009  23297  23322  23338  23346M 23346  23351  23373  23402  23431
             23460  23507M 23588  23715U 23730M 23832  23977M 24017  24130M 24200  24271M 24279M 24323N 24344  24353M
             24365  24380M 24380  24482N 24552N 24554  24582M 24582  24689  24695N 24698M 24710  24725M 24725  24806N
             24830M 24842  24857M 24857  24942N 24963M 24975  24990M 24990  25070N 25166M 25178  25193M 25193  25278N
             25298M 25310  25325M 25325  25410N 25581M 25593  25608M 25608  25693N 25745M 25757  25772M 25772  25853M
             25865  25880M 25880  25976M 25976  26010N 26013M 26025  26040M 26040  26182M 26194  26209M 26209  26294N
             26320M 26332  26347M 26347  26432N 26537M 26549  26564M 26564  26674M 26686  26701M 26701  26786N 26861M
             26897N 26899  26922M 26958  26975M 26975  27074M 27086  27101M 27101  27163  27292  27692  27831M 27960
             28282M 28332  28385M 28428  28665  28766  28857M 28971  29101M 29149  29152  31179M 31363  31414M 31514N
             31557  31564N 31588N 31637N 31692N 31742N 31815  32431N 32660N 32686  32787N 32908N 32953N 33127N 33256N
             33280N 33356N 33555N 33673N 33718N 33891N 34225N 34249N 34304N 34353N 34571N 34595N 35385N 35423M 35435
             35450M 35450  35540M 35658  35689M 35701  35772M 35817  35929M 35978  36004M 36014  36021  36185M 36290
             36335M 36357  36362M 36362  36692M 36710M 36900N 36902M 36914  36920  36921M 36931  36935M 36935  36941N
             36943M 36955  36961  36962M 36972  36976M 36976  37001N 37003M 37015  37021  37022M 37032  37036M 37036
             37041N 37044M 37056  37062  37063M 37073  37077M 37077  37103N 37105M 37117  37123  37124M 37134  37138M
             37138  37143N 37145M 37157  37163  37164M 37174  37178M 37178  37217N 37219M 37231  37237  37238M 37248
             37252M 37252  37257N 37259M 37271  37277  37278M 37288  37292M 37292  37331N 37333M 37345  37351  37352M
             37362  37366M 37366  37371N 37373M 37385  37391  37392M 37402  37406M 37406  37445N 37447M 37459  37465
             37466M 37476  37480M 37480  37485N 37487M 37499  37505  37506M 37516  37520M 37520  37642N 37644M 37656
             37662  37663M 37673  37677M 37677  37715N 37718M 37730  37736  37737M 37747  37751M 37751  37756N 37759M
             37771  37777  37778M 37788  37792M 37792  37818N 37820M 37832  37838  37839M 37849  37853M 37853  37906
             37940M 37995  38022M 38044  38049M 38049  38052M 38135  38136M 38146  38150M 38150  38155N 38158M 38194
             38195M 38205  38209M 38209  38214N 38217M 38290  38291M 38301  38305M 38305  38310N 38313M 38382  38383M
             38393  38397M 38397  38402N 38404M 38455  38456M 38466  38470M 38470  38475N 38477M 38528  38529M 38539
             38543M 38543  38548N 38550M 38551N 38578M 38579N 38581M 38582N 38584M 38635  38636M 38646  38650M 38650
             38655N 38657M 38658N 38663M 38714  38715M 38725  38729M 38729  38734N 38736M 38761  38781N 38783M 38789
             38819M 38927  39015  39102M 39112U 39116  39117  39147M 39159U 39260M 39273  39360  39389M 39427  39504M
             39514U 39520M 39527U 39538U 39562  39937  39993  40219  40229U 40278M 40318  40414M 40455  40557M 40694
             40778M 40791  40807  40823  40839  41430M 41528  43868M 43887M 43922  44293M 44322  44352M 44352  44355M
             44356M 44432  44481M 44595  44637  44701M 44702M 44703M 44705M 44705N 44707M 44708  44734M 44784  44846M
             44847M 44848M 44850  44876M 44908  44936M 44946U 44952M 44959U 44970U 45070  45194  45214U 45227M 45266
             45371  45684  45732M 45760  45807  46098M 46138  46255M 46272U 46276  46293M 46295  46317  46335M 46347
             46364M 46366  46388  46620U 46633M 46704  46829  46845M 46855U 46859  46910  46986  47000M 47001  47048
             47108  47122M 47123  47171  47235  47249M 47250  47295  47347  47361M 47362  47381U 47406M 47473  47666
             48014  48137M 48177  48320M 48387  48472M 48473M 48473  48511  48546M 48564U 48735  48757U 48777M 48822
             48866U 48889  49998  50563U 50576M 50618  50662U 50685  50975  51015  51042U 51055M 51098  51142U 51149
             51505  51630  51652U 51665M 51709  51753U 51836U 51849M 51972M 52035  52122M 52184  52780M 52793M 52839
             53150M 53346  53365  53493M 53506M 53569
     5(5)      962U  3512  14143M 14153U 14172M 14213  14214  14215  14248U 14282  14293U 14369U 14411  14492M 14522
             14604M 14959M 14969U 14973  15532M 15543M 15543  15555  15631U 15689  15723M 15732  15744M 15751M 15753
             15768  15959M 16001  16032M 16033  16054U 16078M 16088  16122  16132U 16153M 16651  17246U 17248  17380
             17691  18155  18236M 18259U 18454M 18464U 18477M 18477  18484M 18495U 18505U 18515M 18515  18545  18766
             18824  19031  19099U 19599  19663M 20443M 20453U 20459M 20466U 20477U 20516  20633  20651U 20740  21040
             21143  21186M 21196U 21200  21217M 21219  21241  21429  21438U 21465M 21508  21621  21782  21819M 21859
             21978M 22039  22165  22197  22953M 22963U 23297  23322  23373  23402  23431  23460  23512M 23710U 23730M
             23832  23977M 24017  24130M 24200  24272M 24280M 24290U 24344  24381M 24394M 24394  24414M 24436M 24436
             24476M 24476  24583M 24672M 24672  24689  24726M 24739M 24739  24759M 24781M 24781  24858M 24871M 24871
             24891M 24913M 24913  24991M 25004M 25004  25024M 25046M 25046  25194M 25207M 25207  25227M 25249M 25249
             25326M 25339M 25339  25359M 25381M 25381  25609M 25622M 25622  25642M 25664M 25664  25773M 25786M 25786
             25806M 25828M 25828  25881M 25894M 25894  25914M 25936M 25936  26041M 26054M 26054  26074M 26210M 26223M
             26223  26243M 26265M 26265  26348M 26361M 26361  26381M 26403M 26403  26565M 26578M 26578  26598M 26620M
             26620  26702M 26715M 26715  26735M 26757M 26757  26861M 26880M 26880  26971M 27066M 27066  27102M 27115M
             27115  27135M 27151  27246M 27251  27268M 27270  27292  27322U 27589U 27646M 27651  27668M 27670  27692
             27722U 27728M 27742M 27742  27831M 27960  28282M 28332  28385M 28428  28607M 28617U 28623M 28630U 28641U
1         (VETS2025) (12:59) (15MAR04) General Purpose Register Cross Reference                                             Page  272
             28665  28692  28766  28775U 28857M 28971  29069M 29069  29079U 29146M 29196U 29791M 29821M 30379M 30388M
             30388  30396M 30401M 30413  30423M 30423  30428  30706M 30715M 30715  30723M 30728M 30740  30747M 30749M
             30754  31109B 31129M 31179M 31363  31422M 31431M 31441U 31457M 31457  31477M 31490  31549  31558  31581
             31626  31681  31709  31731  31816  32234  32390  32420  32629  32685  32776  32897  32942  32955  33094
             33116  33245  33274  33304  33398  33522  33544  33641  33662  33707  33858  33880  34214  34243  34273
             34294  34343  34560  34589  34620  35400  35451M 35464M 35464  35484M 35509M 35509  35522U 35540M 35658
             35688M 35772M 35817  35847M 35929M 35978  36054M 36082M 36110M 36138M 36185M 36290  36341M 36351U 36358
             36928M 36969M 37029M 37070M 37131M 37171M 37245M 37285M 37359M 37399M 37473M 37513M 37670M 37744M 37785M
             37846M 37922U 37940M 37995  38028M 38038U 38045  38143M 38202M 38298M 38390M 38463M 38536M 38643M 38722M
             38775  38806U 38819M 38927  39015  39024M 39034U 39089M 39118M 39130M 39130  39148M 39360  39371U 39389M
             39427  39562  40219  40278M 40318  40414M 40455  40557M 40694  40875M 40885U 41039U 41430M 41528  41665M
             41674N 41804N 41814N 41824N 41836M 41836  41850  41856  41859  41876  41888N 42311N 42321N 42331N 42736N
             43125N 43710N 44096M 44293M 44322  44348M 44355M 44357M 44392  44481M 44595  44637  44699M 44700M 44704M
             44704N 44706  44734M 44784  44810M 44811M 44876M 44908  44990M 45000M 45000  45013M 45030M 45044U 45194
             45203U 45227M 45266  45316M 45326U 45332M 45339U 45348U 45371  45396  45458  45684  45732M 45760  45807
             45845M 45855U 45858U 46050U 46053U 46098M 46138  46317  46388  46633M 46704  46737M 46747U 46750U 46783
             46829  46911  46986  47049  47108  47172  47235  47296  47347  47370  47372  47390U 47393U 47406M 47473
             47519U 47522U 47530M 47531M 47531  47553  47577M 47666  47687  48014  48047  48100  48116U 48119U 48137M
             48177  48206M 48207M 48207  48236U 48239U 48273  48304U 48307U 48320M 48387  48440U 48489M 48489  48506M
             48511  48535U 48561U 48735  48752U 48777M 48822  48863U 48871M 48872M 48882U 49715  49745U 49776  49786U
             49952M 49957  49974M 49976  49998  50080  50110U 50141  50151U 50182M 50193M 50193  50207M 50549U 50558U
             50576M 50618  50659U 50667M 50668M 50678U 51015  51028U 51037U 51055M 51098  51139U 51630  51647U 51665M
             51709  51750U 51757M 51767U 51822U 51831U 51849M 51888U 51973M 51981U 52074U 52123M 52131U 52223U 52275M
             52283U 52709U 52729U 52764U 52794M 52834M 52839  53151M 53159U 53404U 53507M 53564M 53569
     6(6)      958U  3512  13771M 13879M 13946M 13946  14064M 14064  14317M 14317  14411  14492M 14522  14604M 15214M
             15224U 15444U 15689  15959M 16001  16153M 16453M 16454M 16454  16651  16704M 16712U 17249  17261  17263
             17265  17267  17269  17380  17691  18155  18209  18236M 18265U 18413M 18414M 18414  18422U 18545  19031
             19105U 19192M 19193M 19193  19201U 19262U 19340M 19341M 19341  19349U 19472U 19599  19627M 19628M 19628
             19663M 19715U 20633  20740  21040  21143  21241  21429  21465M 21508  21621  21782  21819M 21859  21978M
             22039  22165  22197  22984  23297  23322  23373  23402  23431  23460  23730M 23832  23977M 24017  24130M
             24200  24344  27292  27692  27831M 27960  28282M 28332  28385M 28428  28665  28766  28857M 28971  31179M
             31363  35540M 35658  35772M 35817  35929M 35978  36185M 36290  37940M 37995  38819M 38927  39015  39360
             39389M 39427  39562  40219  40278M 40318  40414M 40455  40557M 40694  41430M 41528  44293M 44322  44481M
             44595  44637  44734M 44784  44876M 44908  45194  45227M 45266  45371  45684  45732M 45760  45807  45821M
             45831  46057  46098M 46138  46167M 46168M 46168  46317  46388  46608  46633M 46704  46829  46986  47108
             47235  47347  47406M 47473  47666  48014  48137M 48177  48320M 48331U 48387  48568M 48577U 48735  48777M
             48822  49998  50576M 50618  51015  51055M 51098  51630  51665M 51709  51849M 51883U 51983M 51991U 52069U
             52133M 52141U 52218U 52285M 52293U 53097U 53161M 53169U 53399U 53468M 53476U 53506  53507  53537U 53546
             53557U 53564  53658U
     7(7)      954U  3505M  3505   3506B  3512   3518B 13650M 13660U 14385U 14411  14416M 14428U 14484U 14492M 14522
             14527M 14539U 14596U 14604M 14629M 14639U 15642U 15689  15694M 15706U 15951U 15959M 16001  16006M 16018U
             16145U 16153M 16169M 16179U 16278U 16290M 16300U 16373U 16393M 16403U 16537M 16538B 16651  16657M 16669U
             16672U 17380  17691  18155  18225U 18228U 18236M 18271U 18353M 18363U 18545  19031  19111U 19132M 19142U
             19268U 19280M 19290U 19420M 19421B 19464M 19478U 19490M 19500U 19575U 19599  19604M 19616U 19655U 19663M
             19752U 20633  20740  21040  21103U 21143  21148M 21160U 21241  21429  21457U 21465M 21508  21513M 21525U
             21621  21782  21811U 21819M 21859  21864M 21876U 21970U 21978M 22039  22044M 22056U 22165  22197  23297
             23322  23373  23402  23431  23460  23722U 23730M 23832  23837M 23849U 23969U 23977M 24017  24022M 24034U
             24122U 24130M 24200  24206M 24218U 24344  27292  27692  27823U 27831M 27960  27965M 27977U 28274U 28282M
             28332  28337M 28349U 28377U 28385M 28428  28433M 28445U 28665  28766  28849U 28857M 28971  28977M 28989U
             31171U 31179M 31363  31369M 31381U 35532U 35540M 35658  35663M 35675U 35764U 35772M 35817  35822M 35834U
             35921U 35929M 35978  35983M 35995U 36177U 36185M 36290  36296M 36308U 37932U 37940M 37995  38000M 38012U
             38811U 38819M 38927  38932M 38944U 39015  39360  39381U 39389M 39427  39432M 39444U 39562  40219  40270U
             40278M 40318  40323M 40335U 40406U 40414M 40455  40460M 40472U 40549U 40557M 40694  40699M 40711U 41422U
             41430M 41528  41534M 41546U 44285U 44293M 44322  44327M 44339U 44473U 44481M 44595  44600M 44612U 44637
             44726U 44734M 44784  44789M 44801U 44868U 44876M 44908  44913M 44925U 45194  45219U 45227M 45266  45271M
             45283U 45371  45684  45724U 45732M 45760  45765M 45777U 45807  46090U 46098M 46138  46143M 46155U 46317
             46388  46625U 46633M 46704  46709M 46721U 46829  46986  47108  47235  47347  47398U 47406M 47473  47479M
             47491U 47666  48014  48129U 48137M 48177  48182M 48194U 48312U 48320M 48387  48392M 48404U 48735  48769U
             48777M 48822  48827M 48839U 49998  50568U 50576M 50618  50623M 50635U 51015  51047U 51055M 51098  51103M
1         (VETS2025) (12:59) (15MAR04) General Purpose Register Cross Reference                                             Page  273
             51115U 51630  51657U 51665M 51709  51714M 51726U 51841U 51849M 51961M 51969U 52064U 52111M 52119U 52213U
             52263M 52271U 53092U 53139M 53147U 53394U 53447M 53455U 53653U
     8(8)      950U  3512  13649M 14411  14412M 14488  14492M 14522  14523M 14600  14604M 14628M 15689  15690M 15944N
             15955  15959M 16001  16002M 16138N 16149  16153M 16168M 16289M 16392M 16651  16653M 16686U 17380  17691
             18155  18209N 18216U 18232  18236M 18352M 18545  19031  19131M 19279M 19489M 19599  19600M 19659  19663M
             20633  20740  21040  21143  21144M 21241  21429  21461  21465M 21508  21509M 21621  21782  21815  21819M
             21859  21860M 21974  21978M 22039  22040M 22165  22197  23297  23322  23373  23402  23431  23460  23726
             23730M 23832  23833M 23973  23977M 24017  24018M 24126  24130M 24200  24202M 24232U 24344  27292  27692
             27818U 27827  27831M 27960  27961M 28278  28282M 28332  28333M 28381  28385M 28428  28429M 28665  28766
             28853  28857M 28971  28973M 29003U 31166U 31175  31179M 31363  31365M 31395U 35416  35527U 35536  35540M
             35658  35659M 35757N 35768  35772M 35817  35818M 35914N 35925  35929M 35978  35979M 36166N 36181  36185M
             36290  36292M 36322U 37927U 37936  37940M 37995  37996M 38815  38819M 38927  38928M 39015  39360  39385
             39389M 39427  39428M 39562  40219  40274  40278M 40318  40319M 40410  40414M 40455  40456M 40553  40557M
             40694  40695M 41426  41430M 41528  41530M 41560U 44280U 44289  44293M 44322  44323M 44477  44481M 44595
             44596M 44637  44719N 44730  44734M 44784  44785M 44857N 44872  44876M 44908  44909M 45194  45223  45227M
             45266  45267M 45371  45684  45728  45732M 45760  45761M 45807  46094  46098M 46138  46139M 46317  46388
             46629  46633M 46704  46705M 46829  46986  47108  47235  47347  47374N 47402  47406M 47473  47475M 47505U
             47666  48014  48098  48100N 48124U 48133  48137M 48177  48178M 48316  48320M 48387  48388M 48735  48773
             48777M 48822  48823M 49998  50572  50576M 50618  50619M 51015  51051  51055M 51098  51099M 51630  51661
             51665M 51709  51710M 51845  51849M 52274M 53063  53457M 53628
     9(9)      946U  3512  17380  17691  18155  18545  19031  20633  20740  21040  21241  21429  21621  21782  22165
             22197  23297  23322  23373  23402  23431  23460  24344  27292  27692  28665  28766  39015  39360  39562
             40219  44637  45194  45371  45684  45807  46317  46388  46829  46986  47108  47235  47347  47666  48014
             48735  49998  51015  51630  52326M 52394M 52404U 52516U
    10(A)      942U  3512  17380  17691  18155  18545  19031  20633  20740  21040  21241  21429  21621  21782  22165
             22197  23297  23322  23373  23402  23431  23460  24344  27292  27692  28665  28766  39015  39360  39562
             40219  44637  45194  45371  45684  45807  46317  46388  46829  46986  47108  47235  47347  47666  48014
             48735  49998  51015  51630  53608M 53608
    11(B)      938U  1840B  1841B  2576U  3512  15243U 15263U 17380  17691  18155  18545  19031  20633  20740  21040
             21241  21429  21621  21782  22165  22197  23297  23322  23373  23402  23431  23460  24344  27292  27692
             28665  28766  39015  39360  39562  40219  44637  45194  45371  45684  45807  46056  46317  46388  46829
             46986  47108  47235  47347  47666  48014  48337U 48579M 48588U 48735  49998  51015  51630  51870U 51993M
             52001U 52053U 52143M 52151U 52202U 52295M 52303U 53081U 53171M 53179U 53383U 53595  53601M 53609M 53617
             53623M
    12(C)      934U  2585U  3512  17380  17691  18155  18545  19031  20633  20740  21040  21241  21429  21621  21782
             22165  22197  23297  23322  23373  23402  23431  23460  24344  27292  27692  28665  28766  39015  39360
             39562  40219  44637  45194  45371  45684  45807  46317  46388  46829  46986  47108  47235  47347  47666
             48014  48735  49998  51015  51630  51865U 52003M 52011U 52048U 52153M 52161U 52197U 52305M 52313U 53076U
             53181M 53189U 53378U 53458M 53466U 53596  53603M 53618  53625M 53640U
    13(D)      930U  3512  13649  13788  13789  13790  13792M 13792  13804M 13805  13806  13807  14408  14411  14412
             14413M 14413  14488M 14492  14494  14519  14522  14523  14524M 14524  14600M 14604  14606  14628  14706
             14707  14708  14710M 14710  14722M 14723  14724  14725  15686  15689  15690  15691M 15691  15955M 15959
             15961  15998  16001  16002  16003M 16003  16149M 16153  16155  16168  16289  16392  16648  16651  16653
             16654M 16654  16733  16734  16735  16737M 16737  16749M 16750  16751  16752  16917  16918  16919  16921M
             16921  16933M 16934  16935  16936  17002  17003  17004  17006M 17006  17018M 17019  17020  17021  17380
             17691  18155  18232M 18236  18238  18352  18545  18592  18593  18594  18596M 18596  18608M 18609  18610
             18611  19031  19131  19279  19489  19596  19599  19600  19601M 19601  19659M 19663  19665  20633  20740
             21040  21140  21143  21144  21145M 21145  21241  21429  21461M 21465  21467  21505  21508  21509  21510M
             21510  21621  21782  21815M 21819  21821  21856  21859  21860  21861M 21861  21974M 21978  21980  22036
             22039  22040  22041M 22041  22165  22197  23297  23322  23373  23402  23431  23460  23726M 23730  23732
             23829  23832  23833  23834M 23834  23973M 23977  23979  24014  24017  24018  24019M 24019  24126M 24130
             24132  24197  24200  24202  24203M 24203  24344  27292  27692  27827M 27831  27833  27957  27960  27961
             27962M 27962  28278M 28282  28284  28329  28332  28333  28334M 28334  28381M 28385  28387  28425  28428
             28429  28430M 28430  28665  28766  28853M 28857  28859  28968  28971  28973  28974M 28974  31175M 31179
             31181  31360  31363  31365  31366M 31366  35536M 35540  35542  35655  35658  35659  35660M 35660  35768M
             35772  35774  35814  35817  35818  35819M 35819  35925M 35929  35931  35975  35978  35979  35980M 35980
             36181M 36185  36187  36287  36290  36292  36293M 36293  37936M 37940  37942  37992  37995  37996  37997M
             37997  38815M 38819  38821  38924  38927  38928  38929M 38929  39015  39360  39385M 39389  39391  39424
             39427  39428  39429M 39429  39562  40219  40274M 40278  40280  40315  40318  40319  40320M 40320  40410M
1         (VETS2025) (12:59) (15MAR04) General Purpose Register Cross Reference                                             Page  274
             40414  40416  40452  40455  40456  40457M 40457  40553M 40557  40559  40691  40694  40695  40696M 40696
             41426M 41430  41432  41525  41528  41530  41531M 41531  44289M 44293  44295  44319  44322  44323  44324M
             44324  44477M 44481  44483  44592  44595  44596  44597M 44597  44637  44730M 44734  44736  44781  44784
             44785  44786M 44786  44872M 44876  44878  44905  44908  44909  44910M 44910  45194  45223M 45227  45229
             45263  45266  45267  45268M 45268  45371  45684  45728M 45732  45734  45757  45760  45761  45762M 45762
             45807  46094M 46098  46100  46135  46138  46139  46140M 46140  46317  46388  46629M 46633  46635  46701
             46704  46705  46706M 46706  46829  46986  47108  47235  47347  47402M 47406  47408  47470  47473  47475
             47476M 47476  47666  48014  48133M 48137  48139  48174  48177  48178  48179M 48179  48316M 48320  48322
             48384  48387  48388  48389M 48389  48735  48773M 48777  48779  48819  48822  48823  48824M 48824  49998
             50572M 50576  50578  50615  50618  50619  50620M 50620  51015  51051M 51055  51057  51095  51098  51099
             51100M 51100  51630  51661M 51665  51667  51706  51709  51710  51711M 51711  51845M 51849  51851  53597
             53599M 53600B 53602  53604M 53619  53621M 53622B 53624  53626M
    14(E)      926U  3512   3513M  3527   3528M  3529B  3531M  3532B  3552M  3553B  3557M  3558B  3560M  3561B  3563M
              3564B  3566M  3567B  3569M  3570M  3570B  3576  13694M 13695M 13695B 13787M 13788  13789  13790  13798M
             13799M 13799B 13802M 13805  13806  13807  13812M 13813M 13813B 13993M 13994M 13994B 14123M 14142M 14170M
             14171M 14171B 14363M 14408  14494M 14497B 14519  14606M 14609B 14672M 14673M 14673B 14705M 14706  14707
             14708  14716M 14717M 14717B 14720M 14723  14724  14725  14730M 14731M 14731B 14799M 14800M 14800B 14817M
             14818M 14818B 14851M 14852M 14852B 14885M 14886M 14886B 14923M 14924M 14924B 14957M 14958M 14958B 15002M
             15003M 15003B 15035M 15036M 15036B 15104M 15105M 15105B 15125M 15126M 15126B 15159M 15160M 15160B 15193M
             15194M 15194B 15290M 15291M 15291B 15311M 15312M 15312B 15363M 15364M 15364B 15407M 15408M 15408B 15436M
             15437M 15437B 15492M 15493M 15493B 15521M 15522M 15522B 15616M 15617M 15617B 15686  15961M 15964B 15998
             16155M 16158B 16213M 16214M 16214B 16243M 16244M 16244B 16268M 16269M 16269B 16334M 16335M 16335B 16364M
             16365M 16365B 16437M 16438M 16438B 16482M 16483M 16483B 16525M 16526M 16526B 16529M 16648  16702M 16703M
             16703B 16732M 16733  16734  16735  16743M 16744M 16744B 16747M 16750  16751  16752  16757M 16758M 16758B
             16916M 16917  16918  16919  16927M 16928M 16928B 16931M 16934  16935  16936  16941M 16942M 16942B 17001M
             17002  17003  17004  17012M 17013M 17013B 17016M 17019  17020  17021  17026M 17027M 17027B 17211M 17212M
             17212B 17291M 17292M 17292B 17361M 17380  17381M 17458M 17466M 17467M 17467B 17475M 17598M 17599M 17599B
             17622M 17623M 17623B 17675M 17676M 17676B 17686M 17687M 17687B 17691  17692M 17836M 17844M 17845M 17845B
             17853M 17976M 17977M 17977B 18000M 18001M 18001B 18107M 18108M 18108B 18150M 18151M 18151B 18155  18156M
             18198M 18199M 18199B 18202M 18203M 18203B 18238M 18241B 18397M 18398M 18398B 18545  18546M 18591M 18592
             18593  18594  18602M 18603M 18603B 18606M 18609  18610  18611  18616M 18617M 18617B 18811M 18819M 18820M
             18820B 18828M 18951M 18952M 18952B 18975M 18976M 18976B 19015M 19016M 19016B 19026M 19027M 19027B 19031
             19032M 19056M 19057M 19057B 19085M 19086M 19086B 19176M 19177M 19177B 19230M 19231M 19231B 19253M 19254M
             19254B 19324M 19325M 19325B 19378M 19379M 19379B 19430M 19431M 19431B 19457M 19458M 19458B 19534M 19535M
             19535B 19566M 19567M 19567B 19596  19642M 19643M 19643B 19665M 19668B 19785M 19786M 19786B 19825M 19826M
             19826B 19865M 19866M 19866B 19905M 19906M 19906B 19945M 19946M 19946B 19985M 19986M 19986B 20039M 20040M
             20040B 20145M 20146M 20146B 20170M 20171M 20171B 20188M 20189M 20189B 20206M 20207M 20207B 20247M 20248M
             20248B 20280M 20281M 20281B 20313M 20314M 20314B 20346M 20347M 20347B 20379M 20380M 20380B 20412M 20413M
             20413B 20416M 20417M 20417B 20604M 20633  20634M 20740  20741M 20801M 20809M 20810M 20810B 20818M 20958M
             20959M 20959B 21024M 21025M 21025B 21035M 21036M 21036B 21040  21041M 21090M 21091M 21091B 21140  21241
             21242M 21251M 21252M 21252B 21286M 21287M 21287B 21414M 21415M 21415B 21424M 21425M 21425B 21429  21430M
             21467M 21470B 21505  21552M 21553M 21553B 21621  21622M 21631M 21632M 21632B 21681M 21682M 21682B 21767M
             21768M 21768B 21777M 21778M 21778B 21782  21783M 21821M 21824B 21856  21957M 21958M 21958B 21980M 21983B
             22036  22085M 22086M 22086B 22146M 22165  22166M 22197  22198M 22870M 22871M 22871B 22875M 22876M 22876B
             22880M 22881M 22881B 22885M 22886M 22886B 22901M 22902M 22902B 22908M 22909M 22909B 22915M 22916M 22916B
             22922M 22923M 22923B 23040M 23048M 23049M 23049B 23057M 23179M 23180M 23180B 23203M 23204M 23204B 23281M
             23282M 23282B 23292M 23293M 23293B 23297  23298M 23322  23323M 23341M 23342M 23342B 23373  23374M 23402
             23403M 23431  23432M 23460  23461M 23559M 23560M 23560B 23630M 23638M 23639M 23639B 23643M 23644M 23644B
             23688M 23689M 23689B 23693M 23694M 23694B 23732M 23735B 23829  23914M 23915M 23915B 23932M 23933M 23933B
             23950M 23951M 23951B 23955M 23956M 23956B 23979M 23982B 24014  24067M 24068M 24068B 24085M 24086M 24086B
             24103M 24104M 24104B 24108M 24109M 24109B 24132M 24135B 24197  24257M 24258M 24258B 24344  24345M 24577M
             24578M 24578B 24610M 24611M 24611B 24636M 24637M 24637B 25132M 25133M 25133B 26118M 26119M 26119B 26945M
             26946M 26946B 27006M 27007M 27007B 27032M 27033M 27033B 27240M 27241M 27241B 27292  27293M 27302M 27303M
             27303B 27378M 27379M 27379B 27382M 27383M 27383B 27528M 27529M 27529B 27554M 27555M 27555B 27692  27693M
             27702M 27703M 27703B 27731M 27732M 27732B 27750M 27751M 27751B 27833M 27836B 27957  28001M 28002M 28002B
             28095M 28096M 28096B 28116M 28117M 28117B 28203M 28204M 28204B 28225M 28226M 28226B 28266M 28267M 28267B
             28284M 28287B 28329  28368M 28369M 28369B 28387M 28390B 28425  28460M 28461M 28461B 28505M 28506M 28506B
             28535M 28536M 28536B 28552M 28553M 28553B 28665  28666M 28732M 28766  28767M 28782M 28783M 28783B 28804M
             28805M 28805B 28859M 28862B 28968  29105M 29106M 29106B 29153M 29163  29170M 29179M 29180M 29180B 29208M
1         (VETS2025) (12:59) (15MAR04) General Purpose Register Cross Reference                                             Page  275
             29209M 29209B 29338M 29339M 29340  29500M 29551M 29557M 29557  29561M 29565M 29569M 29590M 29660M 29666M
             29666  29670M 29674M 29678M 30214M 30215M 30215B 30465M 30466M 30466B 30481M 30482M 30482B 30566M 30567M
             30567B 30639M 30640M 30640B 30664M 30665M 30665B 30992M 30992  31000M 31004M 31008M 31012M 31036M 31036
             31049M 31055M 31055  31059M 31063M 31067M 31154M 31155M 31155B 31181M 31184B 31360  31535M 31567M 31612M
             31667M 31717M 31861M 31962M 31963M 31963B 31975M 31976M 32056M 32057M 32057B 32097M 32098M 32098B 32122M
             32123M 32354M 32355M 32355B 32406M 32561M 32562M 32562B 32604M 32762M 32883M 32928M 33080M 33231M 33260M
             33283M 33284M 33284B 33350M 33384M 33508M 33604D 33606M 33606  33607M 33608U 33619M 33619  33633  33648M
             33693M 33844M 34042M 34043M 34043B 34082M 34083M 34083B 34117M 34118M 34200M 34229M 34252M 34253M 34253B
             34280M 34329M 34464M 34465M 34465B 34478M 34479M 34479B 34546M 34575M 34598M 34599M 34599B 34636M 34637M
             34637B 34653M 34654M 34654B 34670M 34716M 34776M 34777M 34777B 34817M 34818M 34818B 34841M 34910M 35023M
             35024M 35024B 35085M 35086M 35086B 35107M 35365M 35514B 35542M 35545B 35655  35774M 35777B 35814  35931M
             35934B 35975  36187M 36190B 36287  36339M 36340M 36340B 36651M 36652M 36652B 36688M 36689M 36689B 36723M
             36724M 36724B 36925M 36926M 36926B 36966M 36967M 36967B 37026M 37027M 37027B 37067M 37068M 37068B 37128M
             37129M 37129B 37168M 37169M 37169B 37242M 37243M 37243B 37282M 37283M 37283B 37356M 37357M 37357B 37396M
             37397M 37397B 37470M 37471M 37471B 37510M 37511M 37511B 37582M 37583M 37583B 37603M 37604M 37604B 37667M
             37668M 37668B 37712M 37713M 37713B 37741M 37742M 37742B 37782M 37783M 37783B 37843M 37844M 37844B 37908M
             37942M 37945B 37992  38026M 38027M 38027B 38140M 38141M 38141B 38199M 38200M 38200B 38295M 38296M 38296B
             38387M 38388M 38388B 38460M 38461M 38461B 38533M 38534M 38534B 38640M 38641M 38641B 38719M 38720M 38720B
             38799M 38821M 38824B 38924  38955M 39015  39016M 39100M 39101M 39101B 39323M 39360  39361M 39391M 39394B
             39424  39562  39563M 39980M 39988M 39989M 39989B 39997M 40137M 40138M 40138B 40203M 40204M 40204B 40214M
             40215M 40215B 40219  40220M 40280M 40283B 40315  40368M 40369M 40369B 40386M 40387M 40387B 40391M 40392M
             40392B 40416M 40419B 40452  40511M 40512M 40512B 40529M 40530M 40530B 40534M 40535M 40535B 40559M 40562B
             40691  40779M 40793M 40795M 40809M 40811M 40825M 40827M 40841M 41079M 41080M 41080B 41112M 41113M 41113B
             41156M 41157M 41157B 41199M 41200M 41200B 41222M 41223M 41223B 41240M 41241M 41241B 41263M 41264M 41264B
             41281M 41282M 41282B 41304M 41305M 41305B 41322M 41323M 41323B 41350M 41351M 41351B 41378M 41379M 41379B
             41432M 41435B 41525  41595M 41596M 41596B 41623M 41624M 41624B 41628M 41629M 41629B 41858M 41933M 41934M
             41934B 41990M 41991M 41991B 42027M 42028M 42028B 42046M 42047M 42047B 42181M 42182M 42182B 42199M 42200M
             42200B 42276M 42277M 42277B 42294M 42295M 42295B 42414M 42415M 42415B 42445M 42446M 42446B 42484M 42485M
             42485B 42542M 42543M 42543B 42576M 42577M 42577B 42603M 42604M 42604B 42646M 42647M 42647B 42695M 42696M
             42696B 42777M 42778M 42778B 42843M 42844M 42844B 42861M 42862M 42862B 42905M 42906M 42906B 42923M 42924M
             42924B 42970M 42971M 42971B 43019M 43020M 43020B 43068M 43069M 43069B 43107M 43108M 43108B 43204M 43205M
             43205B 43232M 43233M 43233B 43272M 43273M 43273B 43310M 43311M 43311B 43359M 43360M 43360B 43408M 43409M
             43409B 43457M 43458M 43458B 43506M 43507M 43507B 43555M 43556M 43556B 43604M 43605M 43605B 43653M 43654M
             43654B 43697M 43698M 43698B 43751M 43752M 43752B 43823M 43824M 43824B 43920M 43921M 43921B 43951M 43952M
             43952B 44006M 44007M 44007B 44089M 44090M 44090B 44121M 44122M 44122B 44165M 44166M 44166B 44180M 44203M
             44204M 44204B 44231M 44232M 44232B 44295M 44298B 44319  44385M 44386M 44386B 44407M 44408M 44408B 44425M
             44426M 44426B 44447M 44448M 44448B 44465M 44466M 44466B 44483M 44486B 44592  44637  44638M 44736M 44739B
             44781  44878M 44881B 44905  45011M 45012M 45012B 45157M 45194  45195M 45229M 45232B 45263  45371  45372M
             45445M 45453M 45454M 45454B 45462M 45602M 45603M 45603B 45668M 45669M 45669B 45679M 45680M 45680B 45684
             45685M 45734M 45737B 45757  45807  45808M 45819M 45820M 45820B 45831M 45840M 46100M 46103B 46135  46221M
             46222M 46222B 46248M 46249M 46249B 46317  46318M 46327M 46328M 46328B 46388  46389M 46398M 46399M 46399B
             46470M 46471M 46471B 46501M 46502M 46502B 46532M 46533M 46533B 46563M 46564M 46564B 46594M 46595M 46595B
             46611M 46612M 46612B 46635M 46638B 46701  46810M 46829  46830M 46843M 46844M 46844B 46967M 46986  46987M
             46998M 46999M 46999B 47089M 47108  47109M 47120M 47121M 47121B 47216M 47235  47236M 47247M 47248M 47248B
             47328M 47347  47348M 47359M 47360M 47360B 47408M 47411B 47470  47666  47667M 47686M 47688  48014  48015M
             48139M 48142B 48174  48272M 48274  48279M 48280M 48280B 48322M 48325B 48384  48625M 48643M 48680M 48714M
             48735  48736M 48779M 48782B 48819  48893M 49601M 49602M 49602B 49867M 49868M 49868B 49998  49999M 50008M
             50009M 50009B 50468M 50469M 50469B 50538M 50539M 50539B 50578M 50581B 50615  50689M 50980M 51015  51016M
             51057M 51060B 51095  51153M 51416M 51417M 51417B 51593M 51630  51631M 51667M 51670B 51706  51805M 51806M
             51806B 51851M 51854B 51972  52035M 52036B 52122  52184M 52185B 52274  53063M 53064B 53150  53346M 53347B
             53365M 53366B 53457  53598M 53599N 53600M 53612M 53620M 53621N 53622M 53628M 53629B
    15(F)      922U  2302M  2302   3512  13691M 13808M 13808  13995  14456M 14456  14473M 14496M 14496  14568M 14568
             14585M 14608M 14608  14669M 14726M 14726  14796M 14814M 14848M 14882M 14920M 14954M 14999M 15032M 15101M
             15122M 15156M 15190M 15287M 15308M 15360M 15404M 15433M 15489M 15518M 15613M 15940M 15941M 15942  15963M
             15963  16157M 16157  16210M 16240M 16265M 16331M 16361M 16434M 16479M 16753M 16753  16774M 16828M 16891M
             16937M 16937  17022M 17022  17120M 17358M 17359M 17359  17360M 17360  17361  17371M 17371  17380  17418M
             17419  17456M 17457M 17457N 17458B 17473M 17474M 17474N 17475B 17490  17583M 17584B 17691  17803M 17804
             17807M 17808  17834M 17835M 17835N 17836B 17851M 17852M 17852N 17853B 17868  17961M 17962B 18051M 18134M
             18155  18195M 18240M 18240  18394M 18545  18612M 18612  18770M 18771  18809M 18810M 18810N 18811B 18826M
1         (VETS2025) (12:59) (15MAR04) General Purpose Register Cross Reference                                             Page  276
             18827M 18827N 18828B 18843  18936M 18937B 19031  19173M 19227M 19321M 19375M 19463M 19465B 19531M 19563M
             19667M 19667  20142M 20167M 20185M 20203M 20522M 20523  20602M 20603M 20603N 20604B 20605  20633  20740
             20769M 20770  20799M 20800M 20800N 20801B 20816M 20817M 20817N 20818B 20833  20926M 20927B 21040  21241
             21429  21469M 21469  21621  21782  21823M 21823  21982M 21982  22143M 22144M 22144  22145M 22145  22146
             22156M 22156  22165  22197  22269M 23011M 23012  23038M 23039M 23039N 23040B 23055M 23056M 23056N 23057B
             23072  23164M 23165B 23226M 23297  23322  23331M 23373  23402  23431  23460  23499M 23499  23556M 23590M
             23591  23628M 23629M 23629N 23630B 23685M 23734M 23734  23911M 23929M 23947M 23981M 23981  24064M 24082M
             24100M 24134M 24134  24344  24454M 24574M 24595M 24595  24633M 24799M 24931M 25064M 25267M 25399M 25508M
             25561M 25682M 25846M 25954M 26109M 26144M 26283M 26313M 26421M 26530M 26640M 26775M 26826M 26942M 26991M
             26991  27029M 27051M 27292  27633  27692  27835M 27835  28092M 28092  28286M 28286  28389M 28389  28532M
             28532  28601  28665  28698M 28699  28730M 28731M 28731N 28732B 28733  28766  28861M 28861  29016M 29016
             29154M 29158  29160M 29161  29164  29166  29170M 29379M 29388M 29388  29434  29512  29519  29536M 29551M
             29559M 29559  29561M 29565M 29569M 29593M 29594M 29594  29618  29625  29642M 29660M 29668M 29668  29670M
             29674M 29678M 29829D 29831M 29831  29832M 29833U 29845  29865  29898  29918  29935M 29935  30216  30255M
             30256M 30257  30994M 30994  31000M 31004M 31008M 31012M 31038M 31038  31049M 31057M 31057  31059M 31063M
             31067M 31183M 31183  31502M 31502  31548M 31580M 31625M 31659M 31659  31680M 31708M 31730M 31820M 31820
             31864D 31866M 31866  31867M 31868U 31882  31893M 31893  31900  31979D 31981M 31981  31982M 31983U 31985
             32126D 32128M 32128  32129M 32130U 32132  32238M 32238  32389M 32419M 32577M 32643M 32643  32690M 32690
             32775M 32896M 32941M 33093M 33115M 33244M 33273M 33303M 33397M 33521M 33543M 33640M 33661M 33706M 33857M
             33879M 34213M 34242M 34272M 34293M 34342M 34559M 34588M 34619M 34671M 34717M 34731  34742M 34742  34842M
             34913D 34915M 34915  34916M 34917U 34931  34942M 34942  34949  35108M 35414M 35414  35494M 35495M 35496
             35544M 35544  35742M 35742  35754M 35776M 35776  35899M 35899  35911M 35933M 35933  36045M 36170M 36170
             36189M 36189  36804M 37194M 37308M 37422M 37543M 37715M 37756M 37944M 37944  38823M 38823  39015  39321M
             39322M 39322N 39323B 39324  39360  39393M 39393  39484M 39485M 39485  39562  39600M 39600  39606  39941M
             39942  39978M 39979M 39979N 39980B 39995M 39996M 39996N 39997B 40012  40105M 40106B 40219  40282M 40282
             40365M 40383M 40418M 40418  40508M 40526M 40561M 40561  40791M 40793M 40807M 40809M 40823M 40825M 40839M
             40841M 40896M 40897M 40897  40914M 40915M 40915  40930M 40935  40943M 40944M 40944  40961M 40962M 40962
             40977M 40982  41109M 41153M 41196M 41219M 41237M 41260M 41278M 41301M 41319M 41335M 41335  41354M 41375M
             41389M 41389  41434M 41434  41592M 41620M 41930M 41987M 42024M 42043M 42178M 42196M 42273M 42291M 42411M
             42442M 42481M 42539M 42573M 42600M 42643M 42692M 42774M 42840M 42858M 42902M 42920M 42967M 43016M 43065M
             43104M 43201M 43229M 43269M 43307M 43356M 43405M 43454M 43503M 43552M 43601M 43650M 43694M 43748M 43820M
             43917M 43948M 44003M 44039M 44048M 44048  44086M 44118M 44162M 44188M 44188  44207M 44228M 44242M 44242
             44273M 44273  44297M 44297  44382M 44404M 44422M 44444M 44462M 44485M 44485  44637  44717M 44717  44738M
             44738  44861M 44861  44880M 44880  45074M 45075  45155M 45156M 45156N 45157B 45158  45194  45231M 45231
             45371  45400M 45401  45437M 45438  45443M 45444M 45444N 45445B 45460M 45461M 45461N 45462B 45477  45570M
             45571B 45684  45736M 45736  45807  45838M 45840M 45869M 45870M 45870  45887M 45888M 45888  45903M 45908
             45916M 45917M 45917  45934M 45935M 45935  45950M 45955  46058M 46068U 46081U 46102M 46102  46317  46388
             46439M 46637M 46637  46807M 46808M 46808  46809M 46809  46810  46820M 46820  46829  46964M 46965M 46965
             46966M 46966  46967  46977M 46977  46986  47086M 47087M 47087  47088M 47088  47089  47099M 47099  47108
             47213M 47214M 47214  47215M 47215  47216  47226M 47226  47235  47325M 47326M 47326  47327M 47327  47328
             47338M 47338  47347  47410M 47410  47544M 47636M 47666  47728M 47755M 47783M 47828M 47966M 48014  48024M
             48141M 48141  48276M 48324M 48324  48735  48781M 48781  48891M 48892M 48892N 48893B 48910  49004M 49005B
             49998  50580M 50580  50687M 50688M 50688N 50689B 50705  50798M 50799B 50978M 50979M 50979N 50980B 50981
             51015  51059M 51059  51151M 51152M 51152N 51153B 51169  51262M 51263B 51511M 51512  51591M 51592M 51592N
             51593B 51594  51630  51669M 51669  51853M 51853  51961  52111  52263  52438M 52438  53139  53345M 53364M
             53364  53447  53595M 53601  53602M 53610M 53611M 53611  53612B 53617M 53623  53624M

1VETS     (VETS2025) (12:59) (15MAR04) Diagnostic Cross Reference and Assembler Summary                                     Page  277
-                                                                                            HLASM R4.0  2004/03/15 12.59
0     No Statements Flagged in this Assembly
 HIGH LEVEL ASSEMBLER, 5696-234, RELEASE 4.0, PTF P72483
0SYSTEM: OS/390 02.10.00            JOBNAME: WYL#VETS    STEPNAME: ASM        PROCSTEP: (NOPROC)
0Datasets Allocated for this Assembly
  Con DDname   Dataset Name                                 Volume  Member
   P1 SYSIN    WYL.GS.WYL.WYLBUR.SOURCE                     SYSB05  VETS
   L1 SYSLIB   WYL.GS.WYL.WYLBUR.MACLIB                     SYSB05
   L2          WYL.GG.SYS.MACLIB                            SYSB05
   L3          SYS3.IS.MACLIB                               SYSB05
   L4          SYS3.MACLIB                                  SYSB02
   L5          SYS1.MACLIB                                  MVSBR9
   L6          SYS1.MODGEN                                  MVSBR9
      SYSPRINT SYS04075.T125955.RA000.WYL#VETS.PRINT.H01    SCR100
      SYSTERM  GG$SLP.WYL#VETS.JOB03586.D0000101.?

    3668K allocated to Buffer Pool,         9065K would be required for this to be an In-Storage Assembly
    6430 Primary Input Records Read        35567 Library Records Read               1325 Work File Reads
       0 ASMAOPT Records Read              26803 Primary Print Records Written      1353 Work File Writes
       0 Punch Records Written                 0 ADATA Records Written
0Assembly Start Time: 12.59.56 Stop Time: 13.00.20 Processor Time: 00.00.11.4236
 Return Code 000
