1                        J E S 2  J O B  L O G  --  S Y S T E M  S Y S B  --  N O D E  R L G
0
 12.51.19 JOB03554 ---- MONDAY,    15 MAR 2004 ----
 12.51.19 JOB03554  ICH70001I GG$SLP   LAST ACCESS AT 12:50:57 ON MONDAY, MARCH 15, 2004
 12.51.19 JOB03554  $HASP373 WYL#PATH STARTED - INIT 6    - CLASS B - SYS SYSB
 12.51.19 JOB03554  ***  HCMD      STEP $$QUIET
 12.51.19 JOB03554  PUR * Q OUT MUL
 12.51.19 JOB03554  JOB 5415 WYL#PATH WILL BE PURGED
 12.51.21 JOB03554  WYL#PATH.$$QUIET .         RC=Zero TapeIO=0000 DiskIO=0000 CPU=  .01s Elapsed=79.94s
 12.51.32 JOB03554  WYL#PATH.ASM     .         RC=Zero TapeIO=0000 DiskIO=0558 CPU= 2.95s Elapsed=81.13s
 12.51.33 JOB03554  WYL#PATH.EDIT    .         RC=Zero TapeIO=0000 DiskIO=0123 CPU=  .39s Elapsed=92.14s
 12.51.33 JOB03554  WYL#PATH Ended.  Name=Assemble PATH                  Total CPU= 3.35s Elapsed=79.94s
 12.51.33 JOB03554
 12.51.33 JOB03554  Execution charges   Priority=Standard   Block=Day
 12.51.33 JOB03554
 12.51.33 JOB03554  CPU Usage          61.50          $38.13   Standard Processing Unit Equivalent
 12.51.33 JOB03554                                   =======
 12.51.33 JOB03554                                    $38.13   Total Job execution charge
 12.51.33 JOB03554
 12.51.33 JOB03554  See back separator page for print charges
 12.51.33 JOB03554
 12.51.33 JOB03554  $HASP395 WYL#PATH ENDED  ASM=0, EDIT=0
1        1 //WYL#PATH JOB SLP$GG,'Assemble PATH',TIME=4,REGION=4M                  JOB03554
           //*
           /*JOBPARM LINES=99,COPIES=1
           /*JOBPARM FORMS=3HOL,PFORMAT=LAND,CHARS=BD13,DUPLEX=YES,FLASH=BAR4
           //*
           /*JOBPARM NOTIFY=GG.SLP,HOLD=OUTPUT                                     WYLGEN
         2 //$$QUIET EXEC PGM=HCMDX,PARM='PUR * Q OUT MUL'
           //*
         3 //ASM    EXEC PGM=ASMA90,REGION=8M,
           //            PARM=('NORENT,TERM,FLAG(NOCONT),US(MAP,WARN(10)),NODECK',
           //            'LC(32767),XREF(SHORT),ESD,DXREF,NOOBJECT')
         4 //STEPLIB DD DSN=SYS3.IS.TESTASM,DISP=SHR
         5 //SYSLIB   DD  DSN=WYL.GS.WYL.WYLBUR.MACLIB,DISP=SHR
         6 //         DD  DSN=WYL.GG.SYS.MACLIB,DISP=SHR
         7 //         DD  DSN=SYS3.IS.MACLIB,DISP=SHR
         8 //         DD  DSN=SYS3.MACLIB,DISP=SHR
         9 //         DD  DSN=SYS1.MACLIB,DISP=SHR
        10 //         DD  DSN=SYS1.MODGEN,DISP=SHR
        11 //SYSUT1   DD DSN=&&SYSUT1,UNIT=VIO,DISP=(,DELETE),
           //            SPACE=(4088,(500,250),,CONTIG,ROUND)
        12 //SYSTERM  DD SYSOUT=T
        13 //SYSPRINT DD DSN=&&PRINT,UNIT=SYSDA,DISP=(,PASS),
           //            SPACE=(6650,(250,250),RLSE),
           //            DCB=(BLKSIZE=6650,LRECL=133,RECFM=FB)
        14 //SYSUDUMP DD SYSOUT=A
        15 //SYSIN    DD  DSN=WYL.GS.WYL.WYLBUR.SOURCE(PATH),DISP=SHR
           //*
        16 //EDIT    EXEC PGM=ASMEDIT,TIME=2,REGION=4000K,
           //             PARM='STMT'
        17 //STEPLIB  DD  DSN=WYL.GG.SYS.LINKLIB,DISP=SHR
        18 //ASMOUT   DD  DSN=&PRINT,DISP=(OLD,DELETE)
        19 //SYSPRINT DD  SYSOUT=A
1 STMT NO. MESSAGE
 -
        11 IGD01010I STORCLAS= TEMP STORGROUP =
        11 IGD01010I STORGRP=VIO ASSIGNED.
        13 IGD01010I STORCLAS= TEMP STORGROUP =
        13 IGD01010I STORGRP=VIO ASSIGNED.
 ICH70001I GG$SLP   LAST ACCESS AT 12:50:57 ON MONDAY, MARCH 15, 2004
 IEF142I WYL#PATH $$QUIET - STEP WAS EXECUTED - COND CODE 0000
 *********************************************************************************
 *   WYL#PATH/$$QUIET /                    Return Code      Zero                 *
 *   Region used      260K (16K user + 244K system)                              *
 *   Extended region  9692K (4K user + 9688K system)                             *
 *                                                                               *
 *   Paging              In      Out                                             *
 *   Private <-> Aux      0        0       CPU time (TCB)   00:00:00.01          *
 *   Private <-> Exp      0        0       CPU time (SRB)   00:00:00.00          *
 *   VIO                  0        0       Elapsed time    917:36:33.02          *
 *   Common               0      ---                                             *
 *                                                                               *
 *                                                                               *
 *   CPU Usage          0.18         $0.11  Standard Processing Unit Equivalent  *
 *                                   $0.11  Total Step execution charge          *
 *                                                                               *
 *    I/O count  DDname   Type Addr           I/O count  DDname   Type Addr      *
 *                         *** No I/O for this step ***                          *
 *********************************************************************************
 IEF373I STEP/$$QUIET /START 2004075.1251
 IEF374I STEP/$$QUIET /STOP  2004075.1251 CPU    0MIN 00.01SEC SRB    0MIN 00.00SEC VIRT    16K SYS   244K EXT       4K SYS    9688K
 IEF236I ALLOC. FOR WYL#PATH ASM
 IEF237I 04DC ALLOCATED TO STEPLIB
 IEF237I 04DC ALLOCATED TO SYSLIB
 IEF237I 04DC ALLOCATED TO
 IEF237I 04DC ALLOCATED TO
 IEF237I 0402 ALLOCATED TO
 IEF237I 04A0 ALLOCATED TO
 IEF237I 04A0 ALLOCATED TO
 IGD101I SMS ALLOCATED TO DDNAME (SYSUT1  )
         DSN (SYS04075.T125119.RA000.WYL#PATH.SYSUT1.H01  )
         STORCLAS (TEMP) MGMTCLAS (        ) DATACLAS (        )
         VOL SER NOS= VIO
 IEF237I JES2 ALLOCATED TO SYSTERM
 IGD101I SMS ALLOCATED TO DDNAME (SYSPRINT)
         DSN (SYS04075.T125119.RA000.WYL#PATH.PRINT.H01   )
         STORCLAS (TEMP) MGMTCLAS (        ) DATACLAS (        )
         VOL SER NOS= SCR101
 IEF237I JES2 ALLOCATED TO SYSUDUMP
 IEF237I 04DC ALLOCATED TO SYSIN
 IEF142I WYL#PATH ASM - STEP WAS EXECUTED - COND CODE 0000
 IEF285I   SYS3.IS.TESTASM                              KEPT
 IEF285I   VOL SER NOS= SYSB05.
 IEF285I   WYL.GS.WYL.WYLBUR.MACLIB                     KEPT
 IEF285I   VOL SER NOS= SYSB05.
 IEF285I   WYL.GG.SYS.MACLIB                            KEPT
 IEF285I   VOL SER NOS= SYSB05.
 IEF285I   SYS3.IS.MACLIB                               KEPT
 IEF285I   VOL SER NOS= SYSB05.
 IEF285I   SYS3.MACLIB                                  KEPT
 IEF285I   VOL SER NOS= SYSB02.
 IEF285I   SYS1.MACLIB                                  KEPT
 IEF285I   VOL SER NOS= MVSBR9.
 IEF285I   SYS1.MODGEN                                  KEPT
 IEF285I   VOL SER NOS= MVSBR9.
 IGD105I SYS04075.T125119.RA000.WYL#PATH.SYSUT1.H01   DELETED,   DDNAME=SYSUT1
 IEF285I   GG$SLP.WYL#PATH.JOB03554.D0000101.?          SYSOUT
 IGD106I SYS04075.T125119.RA000.WYL#PATH.PRINT.H01    PASSED,    DDNAME=SYSPRINT
 IEF285I   GG$SLP.WYL#PATH.JOB03554.D0000102.?          SYSOUT
 IEF285I   WYL.GS.WYL.WYLBUR.SOURCE                     KEPT
 IEF285I   VOL SER NOS= SYSB05.
 *********************************************************************************
 *   WYL#PATH/ASM     /                    Return Code      Zero                 *
 *   Region used      4376K (4096K user + 280K system)                           *
 *   Extended region  10292K (412K user + 9880K system)                          *
 *                                                                               *
 *   Paging              In      Out                                             *
 *   Private <-> Aux      0        0       CPU time (TCB)   00:00:02.89          *
 *   Private <-> Exp      0        0       CPU time (SRB)   00:00:00.06          *
 *   VIO                  0        0       Elapsed time    917:36:31.83          *
 *   Common               0      ---                                             *
 *                                                                               *
 *                                                                               *
 *   CPU Usage         54.18        $33.59  Standard Processing Unit Equivalent  *
 *                                  $33.59  Total Step execution charge          *
 *                                                                               *
 *    I/O count  DDname   Type Addr           I/O count  DDname   Type Addr      *
 *           87  STEPLIB  Disk 04DC                 335  SYSLIB   Disk 04DC      *
 *            0  SYSLIB   Disk 04DC                   0  SYSLIB   Disk 04DC      *
 *           11  SYSLIB   Disk 0402                   0  SYSLIB   Disk 04A0      *
 *            0  SYSLIB   Disk 04A0                   0  SYSUT1   VIO  ----      *
 *            0  SYSTERM       ----                 120  SYSPRINT Disk 04E3      *
 *            0  SYSUDUMP      ----                   5  SYSIN    Disk 04DC      *
 *********************************************************************************
 IEF373I STEP/ASM     /START 2004075.1251
 IEF374I STEP/ASM     /STOP  2004075.1251 CPU    0MIN 02.89SEC SRB    0MIN 00.06SEC VIRT  4096K SYS   280K EXT     412K SYS    9880K
 IEF236I ALLOC. FOR WYL#PATH EDIT
 IEF237I 0402 ALLOCATED TO STEPLIB
 IGD103I SMS ALLOCATED TO DDNAME ASMOUT
 IEF237I JES2 ALLOCATED TO SYSPRINT
 IEF142I WYL#PATH EDIT - STEP WAS EXECUTED - COND CODE 0000
 IEF285I   WYL.GG.SYS.LINKLIB                           KEPT
 IEF285I   VOL SER NOS= SYSB02.
 IGD105I SYS04075.T125119.RA000.WYL#PATH.PRINT.H01    DELETED,   DDNAME=ASMOUT
 IEF285I   GG$SLP.WYL#PATH.JOB03554.D0000103.?          SYSOUT
 *********************************************************************************
 *   WYL#PATH/EDIT    /                    Return Code      Zero                 *
 *   Region used      380K (116K user + 264K system)                             *
 *   Extended region  9812K (4K user + 9808K system)                             *
 *                                                                               *
 *   Paging              In      Out                                             *
 *   Private <-> Aux      0        0       CPU time (TCB)   00:00:00.38          *
 *   Private <-> Exp      0        0       CPU time (SRB)   00:00:00.01          *
 *   VIO                  0        0       Elapsed time    917:36:20.82          *
 *   Common               0      ---                                             *
 *                                                                               *
 *                                                                               *
 *   CPU Usage          7.12         $4.41  Standard Processing Unit Equivalent  *
 *                                   $4.41  Total Step execution charge          *
 *                                                                               *
 *    I/O count  DDname   Type Addr           I/O count  DDname   Type Addr      *
 *            2  STEPLIB  Disk 0402                 121  ASMOUT   Disk 04E3      *
 *            0  SYSPRINT      ----                                              *
 *********************************************************************************
 IEF373I STEP/EDIT    /START 2004075.1251
 IEF374I STEP/EDIT    /STOP  2004075.1251 CPU    0MIN 00.38SEC SRB    0MIN 00.01SEC VIRT   116K SYS   264K EXT       4K SYS    9808K
 *********************************************************************************
 *                                                                               *
 *                      S t a n f o r d   U n i v e r s i t y                    *
 *                                                                               *
 *                              *** Job Summary ***                              *
 *                                                                               *
 *   System Id      SYSB                   Input time     12:39:24  Mar 15, 2004 *
 *                                                                               *
 *   System Release SP6.1.0                Start time     12:51:19  Mar 15, 2004 *
 *                                                                               *
 *   Job name       WYL#PATH               Stop  time     00:00:00  Mar 15, 2004 *
 *                                                                               *
 *   Account        SLP$GG                 Elapsed time  917:36:33.02            *
 *                                                                               *
 *   User Name      Assemble PATH          CPU time       00:00:03.28            *
 *                                                                               *
 *   Job class      B                      SRB Time       00:00:00.07            *
 *                                                                               *
 *********************************************************************************
 IEF375I  JOB/WYL#PATH/START 2004075.1251
 IEF376I  JOB/WYL#PATH/STOP  2004075.1251 CPU    0MIN 03.28SEC SRB    0MIN 00.07SEC
1Assembler Done PATH No Statements Flagged
1         High Level Assembler Option Summary                   (PTF P72483 )                                               Page    1
-                                                                                            HLASM R4.0  2004/03/15 12.51
0  No Overriding ASMAOPT Parameters
   Overriding Parameters-  NORENT,TERM,FLAG(NOCONT),US(MAP,WARN(10)),NODECK,LC(32767),XREF(SHORT),ESD,DXREF,NOOBJECT
   No Process Statements


   Options for this Assembly
0  NOADATA
     ALIGN
   NOASA
     BATCH
     CODEPAGE(047C)
   NOCOMPAT
   NODBCS
 3 NODECK
 3   DXREF
 3   ESD
   NOEXIT
 3   FLAG(0,ALIGN,NOCONT,NOIMPLEN,NOPAGE0,PUSH,RECORD,NOSUBSTR,USING0)
   NOFOLD
   NOGOFF
   NOINFO
     LANGUAGE(EN)
   NOLIBMAC
 3   LINECOUNT(32767)
     LIST(121)
     MXREF(SOURCE)
 3 NOOBJECT
     OPTABLE(UNI,NOLIST)
   NOPCONTROL
   NOPESTOP
   NOPROFILE
   NORA2
 3 NORENT
     RLD
     RXREF
     SIZE(MAX)
     SYSPARM()
 3   TERM(WIDE)
   NOTEST
     THREAD
   NOTRANSLATE
 3   USING(NOLIMIT,MAP,WARN(10))
 3   XREF(SHORT)

   No Overriding DD Names

1PATH     External Symbol Dictionary                                                                                        Page    2
-Symbol   Type   Id     Address  Length     LD ID  Flags Alias-of                            HLASM R4.0  2004/03/15 12.51
0WYLPATH   SD 00000001 00000000 00001A80             00
 PATH2193  LD          00000000           00000001
 SHOWWPAT  LD          000000C8           00000001
 MINT      ER 00000002
 COLLPSH   ER 00000003
 MALL      ER 00000004
 NOTVALID  ER 00000005
 NSCAN     ER 00000006
 SCANCHK   ER 00000007
 SEG       ER 00000008
 SEGDC     ER 00000009
 SEGT      ER 0000000A
 SEGCR     ER 0000000B
 SEGHX     ER 0000000C
 PATHFREE  LD          0000051C           00000001
 PATHALLO  LD          00000586           00000001
 PATHSETU  LD          000006A4           00000001
 PATHCLRU  LD          0000073C           00000001
 GETCORE   ER 0000000D
 BTD       ER 0000000E
 PATHGET   LD          0000081A           00000001
 PATHOPEN  LD          000008D8           00000001
 PATHINFO  LD          00000AC8           00000001
 PATHRDCK  LD          00000BBC           00000001
 PATHREAD  LD          00000CF4           00000001
 PATHWRIT  LD          00000E0E           00000001
 PATHSEG   LD          00000FD2           00000001
 PATHCLS   LD          00001064           00000001
 PATHRC    LD          0000116A           00000001
 PATHQ     LD          00001228           00000001
 PATHDEQ   LD          0000130C           00000001
 PATHWAIT  LD          00001366           00000001
 PATHPOST  LD          000016C0           00000001
 SEGWR     ER 0000000F
 NPATPCLS  ER 00000010
 FREECORE  ER 00000011
 SLICECHK  ER 00000012
 DISPATCH  ER 00000013
 TSTAT     ER 00000014
 GETRSC    ER 00000015
 TBREAK    ER 00000016
 TIMERDQ   ER 00000017

1PATH     WYLBUR's Path Support                                                                                             Page    3
0Loc    Object Code    Addr1 Addr2  Stmt Lv Lineno    Source Statement                    (Asmedit 3.3)  HLASM R4.0  2004/03/15 12.51
+___    ______ ____    _____ _____  ____ __ ______    ______ _________
0                                      2              *******************************************************************
                                       3              *                                                                 *
                                       4              *     WYLBUR/370 - Release VI - Class I - Stanford Proprietary    *
                                       5              *                                                                 *
                                       6              *******************************************************************
                                       7                       HIBAL
 000000                00000 01A80   988              WYLPATH  CSECT
                                     992                       REGS  FSR,,,,,,,BR,(WAR,LSR),PAR,PBR,CPR,CVR,SPR,RAR
                                    1128
                                    1129              PATH     IDENT 2193                15:11:47 07/12/02  (SLP)
                                    1132             +
                                    1133    01-IDENT +         ENTRY PATH2193
                                    1134             +
 000000 16D7C1E3C8F2F1F9            1135    01-IDENT +PATH2193 DC    AL1(22),C'PATH2193,15MAR04,12:51'
                                    1136             +*
                                    1138              *
                                    1139                       SYSDEFN ,                 Define installation values
                                    1140
                                    1141                       PUSH  DSECTS
 USING  CP,R11                      1153             =         USING (CP),(CV)
 USING  CV,R12
 000017                00000 01A80  1172             =         POP   PRINT
                                    6978
 000017                00000 01A80  6979              WYLPATH  CSECT
1PATH     (PATH2193) (12:51) (15MAR04) Path Support                                                                         Page    4
0Current Usings:  (CP,R11) (CV,R12)
0Loc    Object Code    Addr1 Addr2  Stmt Lv Lineno    Source Statement           (Hibal 5, Asmedit 3.3)  HLASM R4.0  2004/03/15 12.51
+___    ______ ____    _____ _____  ____ __ ______    ______ _________
0000000                00000 000B0  6982              UPATH    RECORD BEGIN
                                    6990  1           UPAT       UPATH
                                    6991+ 1          +¿þþþþþþþþþþþþþþþþþþþþþþþþþþþþþþþþþþþþþþþþþþþþþþþþþþþþþþþþþþþþþþþþþþþþþÜ
                                    6992+ 1          +Ÿ                                                                     Ÿ
                                    6993+ 1          +Ÿ    User Path control block.                                         Ÿ
                                    6994+ 1          +Ÿ                                                                     Ÿ
                                          1           ¾þþþþþþþþþþþþþþþþþþþþþþþþþþþþþþþþþþþþþþþþþþþþþþþþþþþþþþþþþþþþþþþþþþþþþ»
0000000                             6995  1 01-UPATH +           DS    0F
 000000 D7C1E3C8                    6996  1 01-UPATH +           DC    CL4'PATH'
 000004 00000000                    6997  1 01-UPATH +UPATPNO    DC    F'0'                Path number
 000008 00000000                    6998  1 01-UPATH +UPATJCBP   DC    A(0)                Owner's JCB ptr
 00000C 00000000                    6999  1 01-UPATH +UPATLINK   DC    A(0)                Next UPATH on waiting queue
                                    7000  1          +
 000010 00000000                    7001  1 01-UPATH +UPATWRQH   DC    A(0)                Pending write queue head
 000014 00000000                    7002  1 01-UPATH +UPATWRQT   DC    A(0)                Pending write queue tail
 000018 00                          7003  1          +*
 UPATFLG1.UPATFGLO 80 ONES
 UPATFLG1.UPATFNOW 40 ONES
 UPATFLG1.UPATFOPE 20 ONES
 UPATFLG1.UPATFINT 10 ONES
 UPATFLG1.UPATFHDR 08 ONES
 UPATFLG1.UPATFNOF 04 ONES
                                    7038  1          +*
 00001C                             7039  1 01-UPATH +UPATRC     DS    F                   Return code
 000020                             7040  1 01-UPATH +UPATRCMP   DS    2A                  Return code message ptrs
                                    7041  1          +
 000028 00000000                    7042  1 01-UPATH +UPATWAIT   DC    F'0'                Max no of secs to wait (0=nolim)
                                    7043  1          +
 00002C 00000000                    7044  1 01-UPATH +UPATDLOC   DC    A(0)                Remaining data location
 000030 00000000                    7045  1 01-UPATH +UPATDLEN   DC    A(0)                Remaining data length
                                    7046  1          +
 000034 00000000                    7047  1 01-UPATH +UPATXCLK   DC    F'0'                TOD Clock at timeout
                                    7048  1          +
 000038 00000000                    7049  1 01-UPATH +UPATPASC   DC    F'0'                Partner's ASCB ptr
 00003C 0000                        7050  1 01-UPATH +UPATPLNO   DC    H'0'                Partner's line number
 00003E 0000000000000000            7051  1 01-UPATH +UPATPJOB   DC    XL8'00'             Partner's jobname
 000046 0000000000000000            7052  1 01-UPATH +UPATPACT   DC    XL8'00'             Partner's account
 00004E 0000000000000000            7053  1 01-UPATH +UPATPNAM   DC    XL20'00'            Partner's user name
 000062 0000000000000000            7054  1 01-UPATH +UPATPTAG   DC    XL16'00'            Partner's session tag
                                    7055  1          +
 000072 0000                              1          +
 000074                             7057  1 02-PATH  +UPAT       DC    0F'0'
 000074 00000000                    7059  1 03-DEFIN +UPATMGC    DC    AL4(0)
 000078 00000000                    7061  1 03-DEFIN +UPATDJNM   DC    AL4(0)
 00007C D4E8E3C1C7404040            7063  1 03-DEFIN +UPATMY     DC    CL8'MYTAG'
 000084 FFFFFFFFFFFFFFFF            7065  1 03-DEFIN +UPATYOU    DC    XL8'FFFFFFFFFFFFFFFF'
 00008C 80                          7067  1 03-DEFIN +UPATMFL    DC    AL1(1*X'80'+0*X'40'+0*X'20')
                                    7068  1          +
                                    7069  1 02-PATH  +UPATVER2    EQU  X'80'         CALLER IS USING VERSION 2
                                    7070  1 02-PATH  +UPATMCTL    EQU  X'40'         CALLER ASKS TERMINATION CONTROL
                                    7071  1 02-PATH  +UPATMNAM    EQU  X'20'         CALLER PROVIDES CALLEE NAME
                                    7072  1 02-PATH  +UPATMDP1    EQU  X'10'         DUPLICATE TAGS FOUND: MY=PCBO, YOU=PCBA
                                    7073  1 02-PATH  +UPATMDP2    EQU  X'08'         DUPLICATE TAGS FOUND: MY=PCBA, YOU=PCBO
1PATH     (PATH2193) (12:51) (15MAR04) Path Support                                                                         Page    5
0Current Usings:  (CP,R11) (CV,R12)
0Loc    Object Code    Addr1 Addr2  Stmt Lv Lineno    Source Statement           (Hibal 5, Asmedit 3.3)  HLASM R4.0  2004/03/15 12.51
+___    ______ ____    _____ _____  ____ __ ______    ______ _________
0                                   7074  1          +
 00008D 000000                      7076  1 03-DEFIN +UPATOECB   DC    AL3(0)
 000090 00004000                    7078  1 03-DEFIN +UPATBUF    DC    AL4(16384)
 000094 000000AC                    7080  1 03-DEFIN +UPATECBF   DC    AL4(UPATSFLG)
                                    7081  1          +
                                    7082  1 02-PATH  +UPATFCLS    EQU   X'80'         I AM POSTED BECAUSE HE CLOSED
                                    7083  1 02-PATH  +UPATFFQE    EQU   X'40'         I AM POSTED BECAUSE HIS FULL Q EMPTIED
                                    7084  1 02-PATH  +UPATFNI     EQU   X'20'         I AM POSTED BECAUSE NEW INFO IN MY Q
                                    7085  1 02-PATH  +UPATFDP     EQU   X'10'         I AM POSTED AT HIS DISCRETION
                                    7086  1 02-PATH  +UPATFOPN    EQU   X'08'         I AM POSTED BECAUSE HE OPENED
                                    7087  1 02-PATH  +UPATFCLC    EQU   X'04'         I AM POSTED BECAUSE MY CLOSE IS COMPLETE
                                    7088  1          +
 000098 D7D9D6C4                    7090  1 03-DEFIN +UPATPASS   DC    CL4'PROD'
 00009C 00000000                    7092  1 03-DEFIN +UPATECB    DC    AL4(*-*)
 0000A0 00000000                    7094  1 03-DEFIN +UPATEXIT   DC    AL4(0)
 0000A4 00000000                    7096  1 03-DEFIN +UPATPINP   DC    XL4'0'
 0000A8 00000000                    7098  1 03-DEFIN +UPATRESV   DC    XL4'0'
                                    7099  1          +*
                                    7100  1          +*  VERSION 2 RETURN CODES
                                    7101  1          +*
                                    7102  1 02-PATH  +UPATROK     EQU  0                       COMPLETE OK
                                    7103  1 02-PATH  +UPATRIFC    EQU  4                       INVALID FUNCTION CODE
                                    7104  1 02-PATH  +UPATRPMW    EQU  8                       INVALID PATH MAGIC WORD
                                    7105  1 02-PATH  +UPATRBAF    EQU  12                      PARTNER'S BUFFER AREA FULL
                                    7106  1 02-PATH  +UPATRNOP    EQU  16                      PARTNER NOT THERE
                                    7107  1 02-PATH  +UPATRBOM    EQU  20                      BUFFER OVER PARTNER'S MAXIMUM
                                    7108  1 02-PATH  +UPATRIBS    EQU  24                      RECEIVE BUFFER TOO SMALL
                                    7109  1 02-PATH  +UPATRBPI    EQU  28                      INVALID BUFFER POINTER
                                    7110  1 02-PATH  +UPATRIAD    EQU  32                      INVALID ADDRESS
                                    7111  1 02-PATH  +UPATRES1    EQU  36                      RESERVED
                                    7112  1 02-PATH  +UPATRES2    EQU  40                      RESERVED
                                    7113  1 02-PATH  +UPATRES3    EQU  44                      RESERVED
                                    7114  1 02-PATH  +UPATRES4    EQU  48                      RESERVED
                                    7115  1          +
                                    7116  1 02-PATH  +UPATSIZE    EQU  *-UPAT        LENGTH OF PATH BLOCK
                                    7117  1          +
 0000AC 00                          7118  1 01-UPATH +UPATSFLG   DC    X'00'               Suzan post flag
 0000AD 00                          7119  1 01-UPATH +UPATPMSK   DC    X'00'               PATHWAIT post mask
 0000AE 0000                        7120  1 01-UPATH +           DC    XL2'00'             Reserved
 0000B0                000B0 000B0  7121                       END
1PATH     (PATH2193) (12:51) (15MAR04) Path Support                                                                         Page    6
0Current Usings:  (CP,R11) (CV,R12)
0Loc    Object Code    Addr1 Addr2  Stmt Lv Lineno    Source Statement           (Hibal 5, Asmedit 3.3)  HLASM R4.0  2004/03/15 12.51
+___    ______ ____    _____ _____  ____ __ ______    ______ _________
0                                   7131                       COPY  PINFO
                                    7132=            =¿þþþþþþþþþþþþþþþþþþþþþþþþþþþþþþþþþþþþþþþþþþþþþþþþþþþþþþþþþþþþþþþþþþþþþÜ
                                    7133=            =Ÿ                                                                     Ÿ
                                    7134=            =Ÿ  USER PATH INFORMATION                                              Ÿ
                                    7135=            =Ÿ                                                                     Ÿ
                                    7136=            =Ÿ                                                                     Ÿ
                                    7137=            =Ÿ  Subsystems provides this information whenever they open user       Ÿ
                                    7138=            =Ÿ  paths.  The information is set with the Suzan SVC                  Ÿ
                                    7139=            =Ÿ  "SETINFO" call (a 1/88 Suzan SVC extension).                       Ÿ
                                    7140=            =Ÿ                                                                     Ÿ
                                    7141=            =Ÿ  Once a path is opened, a program can sense this information        Ÿ
                                    7142=            =Ÿ  for the partner's side of the path.                                Ÿ
                                    7143=            =Ÿ                                                                     Ÿ
                                    7144=            =Ÿ  Extended, 10/20/91, Niz                                            Ÿ
                                    7145=            =Ÿ  Caller ID added for Wings, 6/92, Niz                               Ÿ
                                    7146=            =Ÿ                                                                     Ÿ
                                                      ¾þþþþþþþþþþþþþþþþþþþþþþþþþþþþþþþþþþþþþþþþþþþþþþþþþþþþþþþþþþþþþþþþþþþþþ»
0000000                00000 00080  7147             =PINFO    RECORD BEGIN
 000000 D7C9D5C6                    7155  1          =           DC    CL4'PINF'           Self identification
 000004 00000000                    7156  1          =           DC    F'0'                Reserved
 000008 4040404040404040            7157  1          =PINFOSYS   DC    CL8' '              Subsystem name ("WYLBUR", etc.)
 000010 4040404040404040            7158  1          =PINFOACC   DC    CL8' '              User account ("gg.uuu")
 000018 4040404040404040            7159  1          =PINFOPRJ   DC    CL8' '              Project (subgroup)
 000020 40404040                    7160  1          =PINFOCAL   DC    CL4' '              Caller ID ("AUTH" or zeros)
 000024 00000000                    7161  1          =           DC    XL4'00'             Reserved
 000028 0000000000000000            7162  1          =           DC    2F'0'               Reserved
 000030 00                          7163  1          =PINFOIFL   FLAG  ,                   Copy of KWRIFL flags
 000031 00                          7167  1          =PINFOAFL   FLAG  ,                   Copy of KWRAFL flags
 000032 FFFF                        7171  1          =PINFOLNO   DC    H'-1'               Milten line-number (or -1)
 000034 00000000                    7172  1          =PINFOID    DC    F'0'                Milten session id
 000038 4040404040404040            7173  1          =PINFONAM   DC    CL20' '             User name
 00004C 4040404040404040            7174  1          =PINFONAMX   DC   CL20' '  (Expansion if name field expands)
 000060 0000000000000000            7175  1          =PINFOTAG   DC    XL16'00'            Session tag
 000070 0000000000000000            7176  1          =           DC    XL16'00'            Reserved
 000080                00080 00080  7177             =         END
1PATH     (PATH2193) (12:51) (15MAR04) Path Support                                                                         Page    7
0Current Usings:  (CP,R11) (CV,R12)
0Loc    Object Code    Addr1 Addr2  Stmt Lv Lineno    Source Statement           (Hibal 5, Asmedit 3.3)  HLASM R4.0  2004/03/15 12.51
+___    ______ ____    _____ _____  ____ __ ______    ______ _________
0000018                             7187              MPATHX   DS    0F
                                    7188              MAT      UPATH
                                    7189+            +¿þþþþþþþþþþþþþþþþþþþþþþþþþþþþþþþþþþþþþþþþþþþþþþþþþþþþþþþþþþþþþþþþþþþþþÜ
                                    7190+            +Ÿ                                                                     Ÿ
                                    7191+            +Ÿ    User Path control block.                                         Ÿ
                                    7192+            +Ÿ                                                                     Ÿ
                                                      ¾þþþþþþþþþþþþþþþþþþþþþþþþþþþþþþþþþþþþþþþþþþþþþþþþþþþþþþþþþþþþþþþþþþþþþ»
0000018 D7C1E3C8/0000000_           7193    01-UPATH +         DS    0F
 MATFLG1.MATFGLOBA 80 ONES
 MATFLG1.MATFNOWAI 40 ONES
 MATFLG1.MATFOPENI 20 ONES
 MATFLG1.MATFINT   10 ONES
 MATFLG1.MATFHDR   08 ONES
 MATFLG1.MATFNOFUL 04 ONES
                                    7319              MPATH    EQU   MPATHX,*-MPATHX,C'X'
1PATH     (PATH2193) (12:51) (15MAR04) Path Support                                                                         Page    8
0Current Usings:  (CP,R11) (CV,R12)
0Loc    Object Code    Addr1 Addr2  Stmt Lv Lineno    Source Statement           (Hibal 5, Asmedit 3.3)  HLASM R4.0  2004/03/15 12.51
+___    ______ ____    _____ _____  ____ __ ______    ______ _________
0                                   7321              ¿þþþþþþþþþþþþþþþþþþþþþþþþþþþþþþþþþþþþþþþþþþþþþþþþþþþþþþþþþþþþþþþþþþþþþÜ
                                    7322              Ÿ                                                                     Ÿ
                                    7323              Ÿ  SHOWWPAT -- SHOW WPATHS Command.                                   Ÿ
                                    7324              Ÿ                                                                     Ÿ
                                                      ¾þþþþþþþþþþþþþþþþþþþþþþþþþþþþþþþþþþþþþþþþþþþþþþþþþþþþþþþþþþþþþþþþþþþþþ»
00000C8 50E0 D000/9008_      00000  7325              SHOWWPAT XPROC ,
 USING  *,R7
 0000E2 1B55                        7365                       CLEAR R5                  Default is all paths
 0000E4 5810 B08C/1B00_      0008C  7369                       SCAN  WPATHPRT
 000136 58E0 7396/0DEE       00478  7401                       SCANCHK
                                    7406                       ¿þþþþþþþþþþþþþþþþþþþþþþþþþþþþþþþþþþÜ
                                    7407                       Ÿ  Do the "SHOW WPATH n" command.  Ÿ
                                    7408                       ¾þþþþþþþþþþþþþþþþþþþþþþþþþþþþþþþþþþ»
 00013C 1255/4780 70B0              7409                       IF    (R5,NZ),BEGIN       Specific path specified...
 000142 1865                        7423  1                      LR    R6,R5
 000144 0660                        7424  1                      DECR  R6                  Relative to one, not zero
 000146 8960 0002            00002  7426  1                      SLL   R6,2                Times 4 for word offset
 00014A 5A60 C0A4            000A4  7427  1                      A     R6,CVPATHP
 00014E 58F0 6000/12FF       00000  7428  1                      LT    R15,@R6             Get UPATH ptr
 000154 4780 707C/58E0_      0015E  7432  1                      IF    NZ,'ACALL PATHDISP'  Display path info
 00015E 7080/47F0 70AC 0015E 00156  7452  1                      ELSE  BEGIN               Not active...
 000162 4110 73E4/4100_      004C6  7463  2                        TSEG  'Path '
 000174 1815/1B00/41F0_             7481  2                        TNUM  (R5)
 000182 4110 73E9/4100_      004CB  7503  2                        ERROR ' is not active.'
 00018E                             7510  1                      END
                                    7514  1
 00018E 47F0 C7DE            007DE  7515  1                      B     CVNEXT
 000192                             7516                       END
                                    7520                       ¿þþþþþþþþþþþþþþþþþþþþþþþþþþþþþþþþþÜ
                                    7521                       Ÿ  Do the "SHOW WPATHS" command.  Ÿ
                                    7522                       ¾þþþþþþþþþþþþþþþþþþþþþþþþþþþþþþþþþ»
 000192 4110 C028/4100_      00028  7523                       TSEG  CVWYLSSN,,T
 0001A4 4110 73C8/4100_      004AA  7551                       TSEG  ' path information:'
 0001B6 1B00/41F0 B050_             7569                       TCR
 0001C2 1B00/41F0 B050_             7594                       TCR
                                    7619
 0001CE 4110 73F8/4100_      004DA  7620                       TSEG  'UPATH index table at '
 0001E0 5810 C0A4/4100_      000A4  7638                       THEX  L:CVPATHP,8
 0001F2 1B00/41F0 B050_             7663                       TCR
 0001FE 1B00/41F0 B050_             7688                       TCR
                                    7713
 00020A 4150 0001            00001  7714                       LA    R5,1                Path number
 00020E 5860 C0A4            000A4  7715                       L     R6,CVPATHP          Start of path table
 000212 5950 73B2/4730_      00494  7716                       WHILE (R5,LE,CVPATH#),BEGIN  Go through entries...
 00021A 58F0 6000/12FF_      00000  7735  1                      IF    ('LT R15,@R6',NZ),'ACALL PATHDISP'  Display path info
                                    7760  1
 00022A 4160 6004            00004  7761  1                      LA    R6,@R6+4            Next path ptr
 00022E 4150 5001            00001  7762  1                      LA    R5,@R5+1            Next path number
 000232 47F0 7130            00212  7763                       END
                                    7768
 000236 47F0 C7DE            007DE  7769                       B     CVNEXT
 00023A 18D8/9808 D004_             7770                       PEND  ,
 DROP   *,R7
1PATH     (PATH2193) (12:51) (15MAR04) Path Support                                                                         Page    9
0Current Usings:  (CP,R11) (CV,R12)
0Loc    Object Code    Addr1 Addr2  Stmt Lv Lineno    Source Statement           (Hibal 5, Asmedit 3.3)  HLASM R4.0  2004/03/15 12.51
+___    ______ ____    _____ _____  ____ __ ______    ______ _________
0                                   7790                       ¿þþþþþþþþþþþþþþþþþþþþþþþþÜ
                                    7791                       Ÿ  SHOW WPATHS options.  Ÿ
                                    7792                       ¾þþþþþþþþþþþþþþþþþþþþþþþþ»
 000248 4040404040404040_           7793              WPATHPRT SCKW  ,WPATHNO,PI
 000270 4040404040404040_           7808                       SCKW  ,V(COLLPSH),PUSH
 000298 4040404040404040_           7823                       SCKW  ,V(NOTVALID)
                                    7838              þþþþ
 0002C0 50E0 D000/9008_      00000  7839              WPATHNO  PROC  ,
 USING  *,R7
 0002DA 1200/4740 700E_             7878                       IF    ((R0,NEG),OR,(R0,GT,CVPATH#)),'VCALL NOTVALID'
 0002EE 1850                        7917                       LR    R5,R0
 0002F0 5058 0018            00018  7918                       PRETURN (R5)
 0002F4 1BFF                        7920                       CLEAR R15
 0002F6 18D8/9808 D004_             7924                       PEND  ,
 DROP   *,R7
                                    7944
1PATH     (PATH2193) (12:51) (15MAR04) Path Support                                                                         Page   10
0Current Usings:  (CP,R11) (CV,R12)
0Loc    Object Code    Addr1 Addr2  Stmt Lv Lineno    Source Statement           (Hibal 5, Asmedit 3.3)  HLASM R4.0  2004/03/15 12.51
+___    ______ ____    _____ _____  ____ __ ______    ______ _________
0                                   7946              ¿þþþþþþþþþþþþþþþþþþþþþþþþþþþþþþþþþþþþþþþþþþþþþþþþþþþþþþþþþþþþþþþþþþþþþÜ
                                    7947              Ÿ                                                                     Ÿ
                                    7948              Ÿ  PATHDISP -- Routine to display formatted information about         Ÿ
                                    7949              Ÿ    the path specified.                                              Ÿ
                                    7950              Ÿ                                                                     Ÿ
                                    7951              Ÿ    On entry:                                                        Ÿ
                                    7952              Ÿ      R15 - UPATH ptr                                                Ÿ
                                    7953              Ÿ                                                                     Ÿ
                                                      ¾þþþþþþþþþþþþþþþþþþþþþþþþþþþþþþþþþþþþþþþþþþþþþþþþþþþþþþþþþþþþþþþþþþþþþ»
0000304 50E0 D000/9008_      00000  7954              PATHDISP PROC
 USING  *,R7
 00031E 185F                        7993                       LR    R5,R15
 USING  UPATH,R5                    7994                       WITH  (UPATH,R5)
                                    8007
 000320 5810 5004/4100_      00004  8008                       TNUM  L:UPATPNO,4
 000332 4110 717E/4100_      0049C  8033                       TSEG  ' -- '
 000344 9180 5018/47E0_00018        8051                       IF    UPATFGLOBAL,'TSEG "Global "'
 00035E 4110 71D8/4100_      004F6  8089                       TSEG  'UPATH'
                                    8107
 000370 5820 5008/1222       00008  8108                       LT    R2,UPATJCBP
 000376 4780 70C6            003E4  8112                       IF    NZ,BEGIN
 00037A 4110 719E/4100_      004BC  8123  1                      TSEG  ' for line '
 USING  JCB,R2                      8141  1                      WITH  (JCB,R2)
 00038C 4810 2048/1B00_      00048  8154  1                      TNUM  LH:JCBSEQ
 00039C 4110 71DD/4100_      004FB  8175  1                      TSEG  ' '
 0003AE 4110 204D/4100_      0004D  8193  1                      TSEG  JCBGRP
 0003C0 4110 71DE/4100_      004FC  8221  1                      TSEG  '.'
 0003D2 4110 204A/4100_      0004A  8239  1                      TSEG  JCBUSER
 DROP   JCB,R2                      8267                       END
                                    8276                       ¿þþþþþþþþþþþþþþþþþþþþþþþþþþþþþþþÜ
                                    8277                       Ÿ  Count pending transactions.  Ÿ
                                    8278                       ¾þþþþþþþþþþþþþþþþþþþþþþþþþþþþþþþ»
 0003E4 1B22                        8279                       CLEAR R2                  Counter
 0003E6 5830 5010            00010  8283                       L     R3,UPATWRQH
 0003EA 1233/4780 70E6_             8284                       WHILE ((R3,NZ),AND,(R2,LT,1000)),'L R3,@R3; INCR R2'
                                    8326
 000404 1222/4780 7138              8327                       IF    (R2,NZ),BEGIN       Display count...
 00040A 4110 71DF/4100_      004FD  8341  1                      TSEG  ' *** '
 00041C 1812/1B00/41F0_             8359  1                      TNUM  (R2)
 00042A 5920 7182/4750_      004A0  8381  1                      IF    (R2,GE,1000),'TSEG "+"'
 000444 4110 71E5/4100_      00503  8421  1                      TSEG  ' pending transactions ***'
 000456                             8439                       END
                                    8443
 000456 1B00/41F0 B050_             8444                       TCR
                                    8469
 000462 18D8/9808 D004_             8470                       PEND
 DROP   UPATH,R5
 DROP   *,R7
                                    8495
                                    8496                       QLTORG
1PATH     (PATH2193) (12:51) (15MAR04) Path Support                                                                         Page   11
0Current Usings:  (CP,R11) (CV,R12)
0Loc    Object Code    Addr1 Addr2  Stmt Lv Lineno    Source Statement           (Hibal 5, Asmedit 3.3)  HLASM R4.0  2004/03/15 12.51
+___    ______ ____    _____ _____  ____ __ ______    ______ _________
0                                   8536              ¿þþþþþþþþþþþþþþþþþþþþþþþþþþþþþþþþþþþþþþþþþþþþþþþþþþþþþþþþþþþþþþþþþþþþþÜ
                                    8537              Ÿ                                                                     Ÿ
                                    8538              Ÿ  PATHFREE -- Routine to free up all open user paths.                Ÿ
                                    8539              Ÿ    This routine is called at the end of a user session.             Ÿ
                                    8540              Ÿ                                                                     Ÿ
                                                      ¾þþþþþþþþþþþþþþþþþþþþþþþþþþþþþþþþþþþþþþþþþþþþþþþþþþþþþþþþþþþþþþþþþþþþþ»
000051C 50E0 D000/9008_      00000  8541              PATHFREE XPROC
 USING  *,R7
 000536 4120 0001            00001  8581                       LA    R2,1                Path number
 00053A 5830 C0A4            000A4  8582                       L     R3,CVPATHP          Start of path table
 00053E 5920 72A2/4730_      007D8  8583                       WHILE (R2,LE,CVPATH#),BEGIN  Go through entries...
 000546 5840 3000/1244_      00000  8602  1                      IF    ('LT R4,@R3',NZ),BEGIN  Close it...
 USING  UPATH,R4                    8618  2                        WITH  (UPATH,R4)
                                    8631  2
 000550 D503 4008 C1C8_00008 001C8  8632  2                        IF    (UPATJCBP,NE,CVCURJCB),EXIT  Not ours, skip it
                                    8653  2
 00055A 41F0 4000            00000  8654  2                        LA    R15,UPATH
 00055E 58E0 72A6/0DEE       007DC  8655  2                        ACALL PATHCLS             Close and free it
 DROP   UPATH,R4                    8659  1                      END
                                    8668  1
 000564 4130 3004            00004  8669  1                      LA    R3,@R3+4            Next entry
 000568 4120 2001            00001  8670  1                      LA    R2,@R2+1
 00056C 47F0 7008            0053E  8671                       END
                                    8676
 000570 D701 B220 B220 00220 00220  8677                       CLEAR CPNPATHS            No paths for this user any more
                                    8684
 000576 1BFF                        8685                       CLEAR R15                 A-ok
 000578 18D8/9808 D004_             8689                       PEND
 DROP   *,R7
1PATH     (PATH2193) (12:51) (15MAR04) Path Support                                                                         Page   12
0Current Usings:  (CP,R11) (CV,R12)
0Loc    Object Code    Addr1 Addr2  Stmt Lv Lineno    Source Statement           (Hibal 5, Asmedit 3.3)  HLASM R4.0  2004/03/15 12.51
+___    ______ ____    _____ _____  ____ __ ______    ______ _________
0                                   8710              ¿þþþþþþþþþþþþþþþþþþþþþþþþþþþþþþþþþþþþþþþþþþþþþþþþþþþþþþþþþþþþþþþþþþþþþÜ
                                    8711              Ÿ                                                                     Ÿ
                                    8712              Ÿ  PATHALLO -- Routine to allocate a user path.                       Ÿ
                                    8713              Ÿ                                                                     Ÿ
                                    8714              Ÿ    On entry:                                                        Ÿ
                                    8715              Ÿ      R0 -  0 = user path                                            Ÿ
                                    8716              Ÿ            1 = global path (won't "belong" to this user)            Ÿ
                                    8717              Ÿ                                                                     Ÿ
                                    8718              Ÿ    On exit, R15 (and cc):                                           Ÿ
                                    8719              Ÿ      0 - allocated                                                  Ÿ
                                    8720              Ÿ            R0 = path number                                         Ÿ
                                    8721              Ÿ            R1 = UPATH ptr                                           Ÿ
                                    8722              Ÿ      4 - not allocated                                              Ÿ
                                    8723              Ÿ            R1,R0 = error msg loc, len                               Ÿ
                                    8724              Ÿ                                                                     Ÿ
                                                      ¾þþþþþþþþþþþþþþþþþþþþþþþþþþþþþþþþþþþþþþþþþþþþþþþþþþþþþþþþþþþþþþþþþþþþþ»
0000586 50E0 D000/9028_      00000  8725              PATHALLO XPROC (R2,LSR)
 USING  *,R7
 0005A0 1850                        8765                       LR    R5,R0               Save option flag
                                    8766                       ¿þþþþþþþþþþþþþþþþþþþþþþþþþþþþþþþþþþþþþþþþþþþþþþþþþþþÜ
                                    8767                       Ÿ  Check to see if the user can open another path.  Ÿ
                                    8768                       ¾þþþþþþþþþþþþþþþþþþþþþþþþþþþþþþþþþþþþþþþþþþþþþþþþþþþ»
 0005A2 1255/4770 7020              8769                       IF    (R5,Z),BEGIN        User path...
 0005A8 9519 B220/4740_00220        8783  1                      IF    (CPNPATHS,LT,CVUPMAX#),EXIT  OK, not too many
 0005B0 4110 7254/4100_      007F4  8804  1                      SETMSG 'TOO MANY PATHS OPEN'
 0005B8 41F0 0004            00004  8808  1                      LA    R15,4               Bad news
 0005BC 47F0 70F6            00696  8809  1                      EXIT  PATHALLO
 0005C0                             8812                       END
                                    8816                       ¿þþþþþþþþþþþþþþþþþþþþþþþþþþþþþþþþþþþþþþþþþþþþþþþþþþÜ
                                    8817                       Ÿ  Allocate UPATH which will belong to this user.  Ÿ
                                    8818                       ¾þþþþþþþþþþþþþþþþþþþþþþþþþþþþþþþþþþþþþþþþþþþþþþþþþþ»
 0005C0 4120 0001            00001  8819                       LA    R2,1
 0005C4 5830 C0A4            000A4  8820                       L     R3,CVPATHP          Start of path table
 0005C8 5920 7238/4730_      007D8  8821                       WHILE (R2,LE,CVPATH#),BEGIN  Find available path entry...
 0005D0 D603 3000 3000_00000 00000  8840  1                      IF    ('OC @R3(4),@R3',Z),BEGIN  It's available...
                                    8853  2                        ¿þþþþþþþþþþþþþþþþþþþþþþþþþþþþþþþþþþþþþþþþþþþþþþþþþþþþÜ
                                    8854  2                        Ÿ  Get memory for PATH control block and initialize  Ÿ
                                    8855  2                        Ÿ    with model path.                                Ÿ
                                    8856  2                        ¾þþþþþþþþþþþþþþþþþþþþþþþþþþþþþþþþþþþþþþþþþþþþþþþþþþþþ»
 0005DA 5800 7240            007E0  8857  2                        L     R0,=A(L'UPATH)
 0005DE 58E0 7244/0DEE       007E4  8858  2                        VCALL GETCORE             Get memory for PATH
                                    8862  2
 0005E4 1841                        8863  2                        LR    R4,R1
 USING  UPATH,R4                    8864  2                        WITH  (UPATH,R4),BEGIN
 0005E6 18E4/58F0 7240_             8878  3                          MOVEL UPATH,L:=A(MPATH),L:=A(L'UPATH)   Move in model path
 0005F4 9608 4018      00018        8898  3                          SET   UPATFHDR            Assume multi-line headers format
                                    8904  3
 0005F8 5020 4004            00004  8905  3                          ST    R2,UPATPNO          Save path number
1PATH     (PATH2193) (12:51) (15MAR04) Path Support                                                                         Page   13
0Current Usings:  (UPATH,R4) (*,R7) (CP,R11) (CV,R12)
0Loc    Object Code    Addr1 Addr2  Stmt Lv Lineno    Source Statement           (Hibal 5, Asmedit 3.3)  HLASM R4.0  2004/03/15 12.51
+___    ______ ____    _____ _____  ____ __ ______    ______ _________
0                                   8906  3                          ¿þþþþþþþþþþþþþþþþþþþþþþþþþþþþþþþþþþþþþþþþþþþþþþþþÜ
                                    8907  3                          Ÿ  Fill in path information for a global UPATH.  Ÿ
                                    8908  3                          ¾þþþþþþþþþþþþþþþþþþþþþþþþþþþþþþþþþþþþþþþþþþþþþþþþ»
 0005FC 1255/4780 7072              8909  3                          IF    (R5,NZ),BEGIN       Global...
 000602 9680 4018      00018        8923  4                            SET   UPATFGLOBAL         This is a global path
 000606 D703 4008 4008 00008 00008  8929  4                            CLEAR UPATJCBP            No owning JCB currently
 00060C D207 407C C028 0007C 00028  8936  4                            MVC   UPATMY,CVWYLSSN     MYTAG=WYLBUR
 000612                             8937  3                          END
                                    8941  3                          ¿þþþþþþþþþþþþþþþþþþþþþþþþþþþþþþþþþþþþþþþþþþþþþþÜ
                                    8942  3                          Ÿ  Fill in path information for a user UPATH.  Ÿ
                                    8943  3                          ¾þþþþþþþþþþþþþþþþþþþþþþþþþþþþþþþþþþþþþþþþþþþþþþ»
 000612 7076/47F0 70AE 00612 00600  8944  3                          ELSE  BEGIN               User...
 000616 D203 4008 C1C8 00008 001C8  8955  4                            MVC   UPATJCBP,CVCURJCB   Save our JCB
 00061C D207 407C C4D8 0007C 004D8  8956  4                            MVC   UPATMY,CVBLANKS     Construct MYTAG=gguuunnn
 000622 D201 407C B3B7 0007C 003B7  8957  4                            MVC   UPATMY(2),CPSGRP
 000628 D202 407E B3B4 0007E 003B4  8958  4                            MVC   UPATMY+2(3),CPSUSER
 00062E 1FFF/BFF3 B3B9              8959  4                            L2    R15,CPSANO
 000634 59F0 724C/47D0_      007EC  8967  4                            IF    (R15,GT,1),BEGIN
 00063C 41F0 F3E8            003E8  8984  5                              LA    R15,1000+@R15       Force high order zeros
 000640 4100 0003/4110_      00003  8985  5                              BTD   UPATMY+5,3,(R15)
 00064E                             9007  4                            END
 00064E                             9011  3                          END
                                    9015  3
 00064E 41F0 C720            00720  9016  3                          LA    R15,CVECB
 000652 50F0 409C            0009C  9017  3                          ST    R15,UPATECB         Save ECB ptr
 000656 41F0 40AC            000AC  9018  3                          LA    R15,UPATSFLG
 00065A 50F0 4094            00094  9019  3                          ST    R15,UPATECBF        Save Suzan path flag ptr
 DROP   UPATH,R4                    9020  2                        END
                                    9028  2
 00065E 5040 3000            00000  9029  2                        ST    R4,@R3              Save UPATH ptr in table
                                    9030  2
 000662 1255/4770 70D4_             9031  2                        IF    (R5,Z),'INCR R15,CPNPATHS'  Count our paths
                                    9056  2
 000674 1814                        9057  2                        LR    R1,R4               Path ptr
 000676 1802                        9058  2                        LR    R0,R2               Path number
 000678 1BFF                        9059  2                        CLEAR R15                 A-ok
 00067A 47F0 70F6            00696  9063  2                        EXIT  PATHALLO
 00067E                             9066  1                      END
                                    9070  1
 00067E 4130 3004            00004  9071  1                      LA    R3,@R3+4            Next entry
 000682 4120 2001            00001  9072  1                      LA    R2,@R2+1
 000686 47F0 7028            005C8  9073                       END
                                    9078                       ¿þþþþþþþþþþþþþþþþþþþþþþþþþþþþþþþþþþþþþþþþþþþþþþþÜ
                                    9079                       Ÿ  Fall through if we can't allocate the path.  Ÿ
                                    9080                       ¾þþþþþþþþþþþþþþþþþþþþþþþþþþþþþþþþþþþþþþþþþþþþþþþ»
 00068A 4110 7267/4100_      00807  9081                       SETMSG 'NO MORE PATHS'
 000692 41F0 0004            00004  9085                       LA    R15,4               Bad news
                                    9086
 000696 18D8/9828 D004_             9087                       PEND
 DROP   *,R7
1PATH     (PATH2193) (12:51) (15MAR04) Path Support                                                                         Page   14
0Current Usings:  (CP,R11) (CV,R12)
0Loc    Object Code    Addr1 Addr2  Stmt Lv Lineno    Source Statement           (Hibal 5, Asmedit 3.3)  HLASM R4.0  2004/03/15 12.51
+___    ______ ____    _____ _____  ____ __ ______    ______ _________
0                                   9108              ¿þþþþþþþþþþþþþþþþþþþþþþþþþþþþþþþþþþþþþþþþþþþþþþþþþþþþþþþþþþþþþþþþþþþþþÜ
                                    9109              Ÿ                                                                     Ÿ
                                    9110              Ÿ  PATHSETU -- Routine to make us the global UPATH owner.             Ÿ
                                    9111              Ÿ                                                                     Ÿ
                                    9112              Ÿ    On entry:                                                        Ÿ
                                    9113              Ÿ      R15 - UPATH ptr                                                Ÿ
                                    9114              Ÿ                                                                     Ÿ
                                    9115              Ÿ    On exit, R15 (and cc):                                           Ÿ
                                    9116              Ÿ      0 - ok                                                         Ÿ
                                    9117              Ÿ                                                                     Ÿ
                                                      ¾þþþþþþþþþþþþþþþþþþþþþþþþþþþþþþþþþþþþþþþþþþþþþþþþþþþþþþþþþþþþþþþþþþþþþ»
00006A4 50E0 D000/9008_      00000  9118              PATHSETU XPROC
 USING  *,R7
 0006BE 186F                        9158                       LR    R6,R15
 USING  UPATH,R6                    9159                       WITH  (UPATH,R6)
 0006C0 D504 7156 6000_00814 00000  9172                       FAIL  (UPATH,NE,'UPATH'),PATHSETU,'UPATH logic problem.'
 0006E2 9180 6018/4710_00018        9201                       FAIL  ~UPATFGLOBAL,PATHSETU,'Global UPATH problem.'
 000702 D603 6008 6008_00008 00008  9228                       FAIL  (UPATJCBP,NZ),PATHSETU,'Global UPATH owner problem.'
                                    9256
 000724 5850 C1C8            001C8  9257                       L     R5,CVCURJCB
 000728 5050 6008            00008  9258                       ST    R5,UPATJCBP         Save our JCB ptr
                                    9259
 00072C 1BFF                        9260                       CLEAR R15                 A-ok
 00072E 18D8/9808 D004_             9264                       PEND
 DROP   UPATH,R6
 DROP   *,R7
-                                   9290              ¿þþþþþþþþþþþþþþþþþþþþþþþþþþþþþþþþþþþþþþþþþþþþþþþþþþþþþþþþþþþþþþþþþþþþþÜ
                                    9291              Ÿ                                                                     Ÿ
                                    9292              Ÿ  PATHCLRU -- Routine to reset owner information for this global     Ÿ
                                    9293              Ÿ    UPATH (we are done with it).                                     Ÿ
                                    9294              Ÿ                                                                     Ÿ
                                    9295              Ÿ    On entry:                                                        Ÿ
                                    9296              Ÿ      R15 - UPATH ptr                                                Ÿ
                                    9297              Ÿ                                                                     Ÿ
                                    9298              Ÿ    On exit, R15 (and cc):                                           Ÿ
                                    9299              Ÿ      0 - ok                                                         Ÿ
                                    9300              Ÿ                                                                     Ÿ
                                                      ¾þþþþþþþþþþþþþþþþþþþþþþþþþþþþþþþþþþþþþþþþþþþþþþþþþþþþþþþþþþþþþþþþþþþþþ»
000073C 50E0 D000/9008_      00000  9301              PATHCLRU XPROC
 USING  *,R7
 000756 186F                        9341                       LR    R6,R15
 USING  UPATH,R6                    9342                       WITH  (UPATH,R6)
 000758 D504 70BE 6000_00814 00000  9355                       FAIL  (UPATH,NE,'UPATH'),PATHCLRU,'UPATH logic problem.'
 00077A 9180 6018/4710_00018        9384                       FAIL  ~UPATFGLOBAL,PATHCLRU,'Global UPATH problem.'
 00079A D603 6008 6008_00008 00008  9411                       FAIL  (UPATJCBP,Z),PATHSETU,'Global UPATH owner problem.'
                                    9439
 0007BC D703 6008 6008 00008 00008  9440                       CLEAR UPATJCBP            Reset owner
                                    9447
 0007C2 1BFF                        9448                       CLEAR R15                 A-ok
 0007C4 18D8/9808 D004_             9452                       PEND
1PATH     (PATH2193) (12:51) (15MAR04) Path Support                                                                         Page   15
0Current Usings:  (CP,R11) (CV,R12)
0Loc    Object Code    Addr1 Addr2  Stmt Lv Lineno    Source Statement           (Hibal 5, Asmedit 3.3)  HLASM R4.0  2004/03/15 12.51
+___    ______ ____    _____ _____  ____ __ ______    ______ _________
0DROP   UPATH,R6
 DROP   *,R7
                                    9477
                                    9478                       QLTORG
1PATH     (PATH2193) (12:51) (15MAR04) Path Support                                                                         Page   16
0Current Usings:  (CP,R11) (CV,R12)
0Loc    Object Code    Addr1 Addr2  Stmt Lv Lineno    Source Statement           (Hibal 5, Asmedit 3.3)  HLASM R4.0  2004/03/15 12.51
+___    ______ ____    _____ _____  ____ __ ______    ______ _________
0                                   9501              ¿þþþþþþþþþþþþþþþþþþþþþþþþþþþþþþþþþþþþþþþþþþþþþþþþþþþþþþþþþþþþþþþþþþþþþÜ
                                    9502              Ÿ                                                                     Ÿ
                                    9503              Ÿ  PATHGET -- Routine to get a path ptr given it's path               Ÿ
                                    9504              Ÿ    number.                                                          Ÿ
                                    9505              Ÿ                                                                     Ÿ
                                    9506              Ÿ    On entry:                                                        Ÿ
                                    9507              Ÿ      R0 - path number                                               Ÿ
                                    9508              Ÿ                                                                     Ÿ
                                    9509              Ÿ    On exit, R15 (and cc):                                           Ÿ
                                    9510              Ÿ      0 - found                                                      Ÿ
                                    9511              Ÿ             R0 = path number                                        Ÿ
                                    9512              Ÿ             R1 = UPATH ptr                                          Ÿ
                                    9513              Ÿ      4 - not found                                                  Ÿ
                                    9514              Ÿ             R1,R0 = error msg loc, len                              Ÿ
                                    9515              Ÿ                                                                     Ÿ
                                                      ¾þþþþþþþþþþþþþþþþþþþþþþþþþþþþþþþþþþþþþþþþþþþþþþþþþþþþþþþþþþþþþþþþþþþþþ»
000081A 50E0 D000/9028_      00000  9516              PATHGET  XPROC (R2,LSR)
 USING  *,R7
                                    9556                       ¿þþþþþþþþþþþþþþþþþþþþþþþþþþþþþþþþþþþþþþþþþþþþþþþþþþþþþÜ
                                    9557                       Ÿ  Make sure path number is within acceptable range.  Ÿ
                                    9558                       ¾þþþþþþþþþþþþþþþþþþþþþþþþþþþþþþþþþþþþþþþþþþþþþþþþþþþþþ»
 000834 1200/47D0 700E_             9559                       IF    ((R0,NP),OR,(R0,GT,CVPATH#)),BEGIN
 000842 4110 7094/4100_      008C8  9589  1                      SETMSG 'BAD PATH NUMBER'
 00084A 41F0 0004            00004  9593  1                      LA    R15,4               Boo
 00084E 47F0 7072            008A6  9594  1                      EXIT  PATHGET
 000852                             9597                       END
                                    9601                       ¿þþþþþþþþþþþþþþþþþþÜ
                                    9602                       Ÿ  Get UPATH ptr.  Ÿ
                                    9603                       ¾þþþþþþþþþþþþþþþþþþ»
 000852 1820                        9604                       LR    R2,R0               Path number
 000854 0620                        9605                       DECR  R2                  Relative to zero, not one
 000856 8920 0002            00002  9607                       SLL   R2,2                Times 4 for word offset
 00085A 5A20 C0A4            000A4  9608                       A     R2,CVPATHP          Ptr to appropriate table entry
 00085E 5810 2000/1211       00000  9609                       LT    R1,@R2              Get UPATH ptr
 000864 4780 7060            00894  9613                       BZ    PGETNONE            No path here
                                    9614
 USING  UPATH,R1                    9615                       WITH  (UPATH,R1),BEGIN
 000868 D503 7090 1000_008C4 00000  9629  1                      FAIL  (UPATH,NE,'PATH'),PATHGET,'UPATH logic error.'
 00088A D503 1008 C1C8_00008 001C8  9658  1                      IF    (UPATJCBP,NE,CVCURJCB),BEGIN  Not your path...
 000894 4110 7084/4100_      008B8  9676  2           PGETNONE     SETMSG 'NOT OPEN'
 00089C 41F0 0004            00004  9680  2                        LA    R15,4
 0008A0 47F0 7072            008A6  9681  2                        EXIT  PATHGET
 0008A4                             9684  1                      END
 DROP   UPATH,R1                    9688                       END
                                    9696
 0008A4 1BFF                        9697                       CLEAR R15                 A-ok
 0008A6 18D8/9828 D004_             9701                       PEND
 DROP   *,R7
                                    9721
                                    9722                       QLTORG
1PATH     (PATH2193) (12:51) (15MAR04) Path Support                                                                         Page   17
0Current Usings:  (CP,R11) (CV,R12)
0Loc    Object Code    Addr1 Addr2  Stmt Lv Lineno    Source Statement           (Hibal 5, Asmedit 3.3)  HLASM R4.0  2004/03/15 12.51
+___    ______ ____    _____ _____  ____ __ ______    ______ _________
0                                   9739              ¿þþþþþþþþþþþþþþþþþþþþþþþþþþþþþþþþþþþþþþþþþþþþþþþþþþþþþþþþþþþþþþþþþþþþþÜ
                                    9740              Ÿ                                                                     Ÿ
                                    9741              Ÿ  PATHOPEN -- Routine to open a user path.                           Ÿ
                                    9742              Ÿ                                                                     Ÿ
                                    9743              Ÿ    On entry:                                                        Ÿ
                                    9744              Ÿ      R1  - @ 4 byte caller ID (or zero)                             Ÿ
                                    9745              Ÿ      R15 - UPATH ptr                                                Ÿ
                                    9746              Ÿ                                                                     Ÿ
                                    9747              Ÿ    On exit, R15 (and cc):                                           Ÿ
                                    9748              Ÿ      0 - opened                                                     Ÿ
                                    9749              Ÿ      nz- problems; R1,R0 - error msg loc, len                       Ÿ
                                    9750              Ÿ                                                                     Ÿ
                                                      ¾þþþþþþþþþþþþþþþþþþþþþþþþþþþþþþþþþþþþþþþþþþþþþþþþþþþþþþþþþþþþþþþþþþþþþ»
0000000                00000 0008C  9751              POPNWA   RECORD BEGIN
 000000                             9759  1           POPNCALL   DS    A                   Caller ID
 000004                             9760  1           POPNWORD   DS    F                   Working fullword
 000008                             9761  1           POPNPINL   DS    F                   PINFO length
 00000C                             9762  1           POPNPINF   DS    XL(L'PINFO)         PINFO area
 00008C                0008C 0008C  9763                       END
                                    9772              þþþþ
 0008D8 50E0 D000/9008_      00000  9773              PATHOPEN XPROC POPNWA
 USING  *,R7
 USING  POPNWA-(4+36),R8
 0008F2 D703 8028 8028 00000 00000  9824                       CLEAR POPNCALL            Assume no caller ID
 0008F8 1211/4780 7012_             9831                       IF    (R1,NZ),'MVC POPNCALL,@R1'  Save caller ID
                                    9851
 000904 185F                        9852                       LR    R5,R15
 USING  UPATH,R5                    9853                       WITH  (UPATH,R5)
 000906 D503 73AE 5000_00CA0 00000  9866                       FAIL  (UPATH,NE,'PATH'),POPENERR,'Path logic problem.'
                                    9895                       ¿þþþþþþþþþþþþþþþþþþþþþþþþþþþþþþþþþþþþþþþþþþþþþþþþþþþþþþþþþþþþþþÜ
                                    9896                       Ÿ  Build the PINFO area.                                       Ÿ
                                    9897                       Ÿ    Note:  This is NOT done if we are opening a global path.  Ÿ
                                    9898                       ¾þþþþþþþþþþþþþþþþþþþþþþþþþþþþþþþþþþþþþþþþþþþþþþþþþþþþþþþþþþþþþþ»
 000928 9180 5018/4710_00018        9899                       IF    ~UPATFGLOBAL,BEGIN  Path belongs to us...
 000930 4140 8034            0000C  9914  1                      LA    R4,POPNPINF
 USING  PINFO,R4                    9915  1                      WITH  (PINFO,R4)
 000934 D77F 4000 4000 00000 00000  9928  1                      CLEAR PINFO
 00093A D203 4000 73B2 00000 00CA4  9935  1                      MVC   PINFO(4),=CL4'PINF'
 000940 D207 4008 C028 00008 00028  9936  1                      MVC   PINFOSYS,CVWYLSSN   Our subsystem name
 000946 D207 4010 C4D8 00010 004D8  9937  1                      MVC   PINFOACC,CVBLANKS
 00094C D201 4010 B3B7 00010 003B7  9938  1                      MVC   PINFOACC(2),CPSGRP  Our account ("gg.uuu")
 000952 924B 4012      00012        9939  1                      MVI   PINFOACC+2,C'.'
 000956 D202 4013 B3B4 00013 003B4  9940  1                      MVC   PINFOACC+3(3),CPSUSER
 00095C D207 4018 B3F0 00018 003F0  9941  1                      MVC   PINFOPRJ,CPSPROJ    Our project (subgroup)
 000962 D200 4030 B3BE 00030 003BE  9942  1                      MVC   PINFOIFL,CPSKIFL    Our KWRIFL flags
 000968 9140 B75A/47E0_0075A        9943  1                      IF    CPFXAUTH,BEGIN      Authorized exec...
 000970 9620 4030      00030        9958  2                        SET   PINFOIFL.KWRIFSPR   Give sys privs to authorized exec
 000974                             9965  1                      END
 000974 D200 4031 B3BF 00031 003BF  9969  1                      MVC   PINFOAFL,CPSKAFL    Our KWRAFL flags
 00097A D201 4032 B348 00032 00348  9970  1                      MVC   PINFOLNO,CPSNO      Our Milten line number
 000980 D203 4034 B344 00034 00344  9971  1                      MVC   PINFOID,CPSID       Our session id
 000986 D213 4038 B3C6 00038 003C6  9972  1                      MVC   PINFONAM,CPSNAME    Our name
 00098C D203 4020 8028 00020 00000  9973  1                      MVC   PINFOCAL,POPNCALL   Our caller ID
1PATH     (PATH2193) (12:51) (15MAR04) Path Support                                                                         Page   18
0Current Usings:  (PINFO,R4) (UPATH,R5) (*,R7) (POPNWA-(4+36),R8) (CP,R11) (CV,R12)
0Loc    Object Code    Addr1 Addr2  Stmt Lv Lineno    Source Statement           (Hibal 5, Asmedit 3.3)  HLASM R4.0  2004/03/15 12.51
+___    ______ ____    _____ _____  ____ __ ______    ______ _________
0                                   9974  1
 000992 5810 C1C8            001C8  9975  1                      L     R1,CVCURJCB
 000996 5810 1038            00038  9976  1                      WITH  (JCB,R1),'L R1,JCBSINP'
 USING  JCB,R1
 DROP   JCB,R1
 USING  SIN,R1                     10000  1                      WITH  (SIN,R1),BEGIN
 00099A D502 73DE 1000_00CD0 00000 10014  2                        IF    (SIN,EQ,'SIN'),'MVC PINFOTAG,SINSTAG'  Our ses tag
 DROP   SIN,R1                     10037  1                      END
                                   10045  1
 0009AA D203 8030 73B6 00008 00CA8 10046  1                      MVC   POPNPINL,=A(L'PINFO)  Length of area
                                   10047  1
 0009B0 4110 8030            00008 10048  1                      LA    R1,POPNPINL         PINFO param
 0009B4 5010 50A4            000A4 10049  1                      ST    R1,UPATPINP         Save PINFO ptr in path
 DROP   PINFO,R4                   10050                       END
                                   10059              *
                                   10060              *test    IF    CVFTEST,'MVC UPATBUF,=F"2048"'  Force small buffer
                                   10061                       ¿þþþþþþþþþþþþþþþþþþÜ
                                   10062                       Ÿ  Open the path.  Ÿ
                                   10063                       ¾þþþþþþþþþþþþþþþþþþ»
 0009B8 9620 5018      00018       10064                       SET   UPATFOPENING        Path is opening
                                   10070
 0009BC 4110 5074            00074 10071                       LA    R1,UPAT             Suzan path control block
 0009C0 5010 802C            00004 10072                       ST    R1,POPNWORD         Build parm (path addr)
 0009C4 9680 802C      00004       10073                       SET   POPNWORD.X'80'      Flag end of parm list
 0009C8 1B00/1BFF/4110_            10080                       SCOM  OPEN,LA:POPNWORD    Open the path
 0009D2 4780 70F0/4110_      009E2 10095                       IF    NZ,'SETMSG "OPEN FAILED"; B POPNRET'
                                   10116
 0009E2 D703 50A4 50A4 000A4 000A4 10117                       CLEAR UPATPINP            (Neatness)
                                   10124                       ¿þþþþþþþþþþþþþþþþþþþþþþþþþþþþþþþþþþþþþþþþþþþþþþþþþþþÜ
                                   10125                       Ÿ  TEMPORARY -- No longer needed as of 11/91.  Niz  Ÿ
                                   10126                       ¾þþþþþþþþþþþþþþþþþþþþþþþþþþþþþþþþþþþþþþþþþþþþþþþþþþþ»
                                   10127              **DEL    IF    ~UPATFGLOBAL,BEGIN  Path belongs to us...
                                   10128              **DEL    SCOM  SETINFO,LA:POPNPINL,L:UPATMGC  Set path info
                                   10129              **DEL    END
                                   10130              *
 0009E8 4110 73CE/4100_      00CC0 10131                       SETMSG 'OK'
 0009F0 1BFF                       10135                       CLEAR R15                 Set A-ok return code
                                   10139                       ¿þþþþþþþþþþþþþþþþþþþþþþþþþþþþþþþþþþþþþÜ
                                   10140                       Ÿ  Wait for partner to open his side  Ÿ
                                   10141                       Ÿ    of the path if WAIT specified.   Ÿ
                                   10142                       ¾þþþþþþþþþþþþþþþþþþþþþþþþþþþþþþþþþþþþþ»
 0009F2 9140 5018/4710_00018       10143                       IF    ~UPATFNOWAIT,BEGIN  Wait for partner...
 0009FA 5800 5028            00028 10158  1                      L     R0,UPATWAIT
 0009FE 4110 0008            00008 10159  1                      LA    R1,UPATFOPN
 000A02 41F0 5000            00000 10160  1                      LA    R15,UPATH
 000A06 58E0 73BA/0DEE       00CAC 10161  1                      ACALL PATHWAIT            Wait for open
 000A0C                            10165                       END
                                   10169                       ¿þþþþþþþþþþþþþþþþþþþþþþþþþþþþþþþþþþþþþþþþþþþþþþþþþþþþþþþþÜ
                                   10170                       Ÿ  Finish processing path if the other side has opened.  Ÿ
                                   10171                       ¾þþþþþþþþþþþþþþþþþþþþþþþþþþþþþþþþþþþþþþþþþþþþþþþþþþþþþþþþ»
 000A0C 90F1 D000/41D0_      00000 10172                       XPUSH R15,R1
 000A14 41F0 5000            00000 10175                       LA    R15,UPATH
 000A18 58E0 73BE/0DEE       00CB0 10176                       ACALL PATHOFIN            Finish processing path open
 000A1E 4BD0 73D0/98F1_      00CC2 10180                       XPOP  R15,R1
1PATH     (PATH2193) (12:51) (15MAR04) Path Support                                                                         Page   19
0Current Usings:  (UPATH,R5) (*,R7) (POPNWA-(4+36),R8) (CP,R11) (CV,R12)
0Loc    Object Code    Addr1 Addr2  Stmt Lv Lineno    Source Statement           (Hibal 5, Asmedit 3.3)  HLASM R4.0  2004/03/15 12.51
+___    ______ ____    _____ _____  ____ __ ______    ______ _________
0                                  10183
 000A26 9120 5018/47E0_00018       10184                       IF    (UPATFOPENING,AND,(@R1,EQ,'OK')),'SETMSG "OK OPENING"'
                                   10223
 000A40 9001 8004            00004 10224              POPNRET  PRETURN (R0,R1)
 000A44 18D8/9808 D004_            10226                       PEND
 DROP   UPATH,R5
 DROP   POPNWA-(4+36),R8
 DROP   *,R7
1PATH     (PATH2193) (12:51) (15MAR04) Path Support                                                                         Page   20
0Current Usings:  (CP,R11) (CV,R12)
0Loc    Object Code    Addr1 Addr2  Stmt Lv Lineno    Source Statement           (Hibal 5, Asmedit 3.3)  HLASM R4.0  2004/03/15 12.51
+___    ______ ____    _____ _____  ____ __ ______    ______ _________
0                                  10257              ¿þþþþþþþþþþþþþþþþþþþþþþþþþþþþþþþþþþþþþþþþþþþþþþþþþþþþþþþþþþþþþþþþþþþþþÜ
                                   10258              Ÿ                                                                     Ÿ
                                   10259              Ÿ  PATHOFIN -- Local routine to process path open status flag.        Ÿ
                                   10260              Ÿ    All we really need to do is turn off our OPENING flag.           Ÿ
                                   10261              Ÿ                                                                     Ÿ
                                   10262              Ÿ    On entry:                                                        Ÿ
                                   10263              Ÿ      R15 - UPATH ptr                                                Ÿ
                                   10264              Ÿ                                                                     Ÿ
                                                      ¾þþþþþþþþþþþþþþþþþþþþþþþþþþþþþþþþþþþþþþþþþþþþþþþþþþþþþþþþþþþþþþþþþþþþþ»
0000A52 50E0 D000/9008_      00000 10265              PATHOFIN PROC
 USING  *,R7
 000A6C 185F                       10304                       LR    R5,R15
 USING  UPATH,R5                   10305                       WITH  (UPATH,R5)
 000A6E D503 7234 5000_00CA0 00000 10318                       FAIL  (UPATH,NE,'PATH'),PATHOFIN,'PATHOFIN error.'
                                   10347                       ¿þþþþþþþþþþþþþþþþþþþþþþþþþþþþþþþþþþþþþþþþþþþþþþþþþþþþþþþþþþþþþþþÜ
                                   10348                       Ÿ  Clear path opened status bit.  Also clear our opening flag.  Ÿ
                                   10349                       ¾þþþþþþþþþþþþþþþþþþþþþþþþþþþþþþþþþþþþþþþþþþþþþþþþþþþþþþþþþþþþþþþ»
 000A90 9108 50AC/47E0_000AC       10350                       IF    UPATSFLG.UPATFOPN,BEGIN  Path has opened...
 000CE9 F7/41F0 0001/1_00CE9 01A80 10366  1                      CLEAR UPATSFLG.UPATFOPN,MODE=LOCKED,REF=UPATH
 000AB6 94DF 5018      00018       10412  1                      CLEAR UPATFOPENING        We are no longer opening
 000ABA                            10419                       END
                                   10423
 000ABA 18D8/9808 D004_            10424                       PEND
 DROP   UPATH,R5
 DROP   *,R7
1PATH     (PATH2193) (12:51) (15MAR04) Path Support                                                                         Page   21
0Current Usings:  (CP,R11) (CV,R12)
0Loc    Object Code    Addr1 Addr2  Stmt Lv Lineno    Source Statement           (Hibal 5, Asmedit 3.3)  HLASM R4.0  2004/03/15 12.51
+___    ______ ____    _____ _____  ____ __ ______    ______ _________
0                                  10450              ¿þþþþþþþþþþþþþþþþþþþþþþþþþþþþþþþþþþþþþþþþþþþþþþþþþþþþþþþþþþþþþþþþþþþþþÜ
                                   10451              Ÿ                                                                     Ÿ
                                   10452              Ÿ  PATHINFO -- Routine to get path partner information.               Ÿ
                                   10453              Ÿ                                                                     Ÿ
                                   10454              Ÿ    On entry:                                                        Ÿ
                                   10455              Ÿ      R15 - UPATH ptr                                                Ÿ
                                   10456              Ÿ                                                                     Ÿ
                                   10457              Ÿ    On exit:                                                         Ÿ
                                   10458              Ÿ      UPATH information fields are filled in                         Ÿ
                                   10459              Ÿ                                                                     Ÿ
                                                      ¾þþþþþþþþþþþþþþþþþþþþþþþþþþþþþþþþþþþþþþþþþþþþþþþþþþþþþþþþþþþþþþþþþþþþþ»
0000000                00000 000EC 10460              PIWA     RECORD BEGIN
 000000                            10468  1           PIPARMS    DS    2A                  Suzan INFO parm: loc, len
                                   10469  1
 000008                            10470  1           PIASCBP    DS    A                   Info:  Partner's ASCB ptr
 00000C                            10471  1           PIBUFSIZ   DS    F                   Info:  Partner's buffer size
 000010                            10472  1           PIPATHNM   DS    CL8                 Info:  Partner's path name
 000018                            10473  1           PIXACTP    DS    A                   Info:  Input XACT chain ptr
 00001C                            10474  1                      DS    XL16                Info:  Zeros (reserved)
 00002C                            10475  1           PIPINFO    DS    XL(L'PINFO)         Info:  Partner's "PINFO"
                                   10476  1           PIINFO     EQU   PIASCBP,*-PIASCBP,C'X'
                                   10477  1
 0000AC                            10478  1           PIWORK     DS    XL64                Local work area
 0000EC                000EC 000EC 10479                       END
                                   10488              þþþþ
 000AC8 50E0 D000/9008_      00000 10489              PATHINFO XPROC PIWA
 USING  *,R7
 USING  PIWA-(4+36),R8
 000AE2 185F                       10540                       LR    R5,R15
 USING  UPATH,R5                   10541                       WITH  (UPATH,R5)
 000AE4 D503 71BE 5000_00CA0 00000 10554                       FAIL  (UPATH,NE,'PATH'),PATHINFO,'PATHINFO error.'
                                   10583                       ¿þþþþþþþþþþþþþþþþþþþþþþþþþþþþþþþþþþþþÜ
                                   10584                       Ÿ  Get path information from Suzan.  Ÿ
                                   10585                       ¾þþþþþþþþþþþþþþþþþþþþþþþþþþþþþþþþþþþþ»
 000B06 4100 8030            00008 10586                       LA    R0,PIINFO           Addr of area
 000B0A 4110 00A4            000A4 10587                       LA    R1,L'PIINFO         Length
 000B0E 9001 8028            00000 10588                       STM   R0,R1,PIPARMS
 000B12 9680 8028      00000       10589                       SET   PIPARMS.X'80'       Mark as end of list
                                   10596
 000B16 41F0 0020/5800_      00020 10597                       SCOM  INFO,PIPARMS,L:UPATMGC  Get Suzan info
 000B24 12FF/4770 70CC             10618                       IF    (R15,NZ),EXIT       Couldn't get info, forget it
                                   10635
 000B2A D603 8030 8030_00008 00008 10636                       IF    (PIASCBP,Z),EXIT    No partner's ASCB, forget it
                                   10655
 000B34 D203 5038 8030 00038 00008 10656                       MVC   UPATPASC,PIASCBP    Save partner's ASCB ptr
                                   10657                       ¿þþþþþþþþþþþþþþþþþþþþþþþþþþþþþþþþþþþþþþþþþþþþþþþþþþþÜ
                                   10658                       Ÿ  Save partner information when PINFO is present.  Ÿ
                                   10659                       ¾þþþþþþþþþþþþþþþþþþþþþþþþþþþþþþþþþþþþþþþþþþþþþþþþþþþ»
 000B3A 4140 8054            0002C 10660                       LA    R4,PIPINFO
 USING  PINFO,R4                   10661                       WITH  (PINFO,R4)
 000B3E D503 71D2 4000_00CB4 00000 10674                       IF    (PINFO,EQ,'PINF'),BEGIN  We have info...
 000B48 D207 503E 4008 0003E 00008 10691  1                      MVC   UPATPJOB,PINFOSYS   Save partner's "jobname"
 000B4E D207 5046 4010 00046 00010 10692  1                      MVC   UPATPACT,PINFOACC   Save partner's account
1PATH     (PATH2193) (12:51) (15MAR04) Path Support                                                                         Page   22
0Current Usings:  (PINFO,R4) (UPATH,R5) (*,R7) (PIWA-(4+36),R8) (CP,R11) (CV,R12)
0Loc    Object Code    Addr1 Addr2  Stmt Lv Lineno    Source Statement           (Hibal 5, Asmedit 3.3)  HLASM R4.0  2004/03/15 12.51
+___    ______ ____    _____ _____  ____ __ ______    ______ _________
0000B54 D201 503C 4032 0003C 00032 10693  1                      MVC   UPATPLNO,PINFOLNO   Save partner's line number
 000B5A D213 504E 4038 0004E 00038 10694  1                      MVC   UPATPNAM,PINFONAM   Save partner's user name
 000B60 D20F 5062 4060 00062 00060 10695  1                      MVC   UPATPTAG,PINFOTAG   Save partner's session tag
 000B66                            10696                       END
                                   10700                       ¿þþþþþþþþþþþþþþþþþþþþþþþþþþþþþþþþþþþþþþþþþþþþþþþþþþþþþþþÜ
                                   10701                       Ÿ  Save partner information for batch jobs (no PINFO).  Ÿ
                                   10702                       ¾þþþþþþþþþþþþþþþþþþþþþþþþþþþþþþþþþþþþþþþþþþþþþþþþþþþþþþþ»
 000B66 7088/47F0 70CA 00B66 00B46 10703                       ELSE  BEGIN               No PINFO, get jobname...
 000B6A 4100 0004/4110_      00004 10714  1                      HASPSERV JOBNAME,PIWORK,ASCB=UPATPASC  Get jobname
 000B78 D207 503E 80D4 0003E 000AC 10735  1                      MVC   UPATPJOB,PIWORK     Save jobname
                                   10736  1
 000B7E 1B00/4110 80D4_            10737  1                      HASPSERV JOBACCT,PIWORK,ASCB=UPATPASC  Get account
 000B8A D207 5046 C4D8 00046 004D8 10755  1                      MVC   UPATPACT,CVBLANKS   Form "gg.uuu"...
 000B90 D201 5046 80D7 00046 000AF 10756  1                      MVC   UPATPACT(2),PIWORK+3
 000B96 924B 5048      00048       10757  1                      MVI   UPATPACT+2,C'.'
 000B9A D202 5049 80D4 00049 000AC 10758  1                      MVC   UPATPACT+3(3),PIWORK
                                   10759  1
 000BA0 D201 503C 71EC 0003C 00CCE 10760  1                      MVC   UPATPLNO,=H'-1'     No line number
 000BA6 D713 504E 504E 0004E 0004E 10761  1                      CLEAR UPATPNAM            No user name
 000BAC                            10768                       END
                                   10772
 000BAC 1BFF                       10773                       CLEAR R15                 (Neatness)
 000BAE 18D8/9808 D004_            10777                       PEND
 DROP   PINFO,R4
 DROP   UPATH,R5
 DROP   PIWA-(4+36),R8
 DROP   *,R7
1PATH     (PATH2193) (12:51) (15MAR04) Path Support                                                                         Page   23
0Current Usings:  (CP,R11) (CV,R12)
0Loc    Object Code    Addr1 Addr2  Stmt Lv Lineno    Source Statement           (Hibal 5, Asmedit 3.3)  HLASM R4.0  2004/03/15 12.51
+___    ______ ____    _____ _____  ____ __ ______    ______ _________
0                                  10813              ¿þþþþþþþþþþþþþþþþþþþþþþþþþþþþþþþþþþþþþþþþþþþþþþþþþþþþþþþþþþþþþþþþþþþþþÜ
                                   10814              Ÿ                                                                     Ÿ
                                   10815              Ÿ  PATHRDCK -- Routine to read a new Suzan transaction                Ÿ
                                   10816              Ÿ    if there is no data remaining in the current transaction.        Ÿ
                                   10817              Ÿ                                                                     Ÿ
                                   10818              Ÿ    On entry:                                                        Ÿ
                                   10819              Ÿ      R15 - UPATH ptr                                                Ÿ
                                   10820              Ÿ                                                                     Ÿ
                                   10821              Ÿ    On exit, R15 (and cc):                                           Ÿ
                                   10822              Ÿ      0 - ok (check UPATDLOC,UPATDLEN)                               Ÿ
                                   10823              Ÿ      nz- problems; R1,R0 - error msg loc, len                       Ÿ
                                   10824              Ÿ                                                                     Ÿ
                                                      ¾þþþþþþþþþþþþþþþþþþþþþþþþþþþþþþþþþþþþþþþþþþþþþþþþþþþþþþþþþþþþþþþþþþþþþ»
0000BBC 50E0 D000/9028_      00000 10825              PATHRDCK XPROC (R2,LSR)
 USING  *,R7
 000BD6 185F                       10865                       LR    R5,R15
 USING  UPATH,R5                   10866                       WITH  (UPATH,R5)
 000BD8 D503 70CA 5000_00CA0 00000 10879                       FAIL  (UPATH,NE,'PATH'),PATHRD1,'PATHRDCK error.'
                                   10908                       ¿þþþþþþþþþþþþþþþþþþþþþþþþþþþþþþþþþþþþþþþþþþþþþþþþþþþþþþþþþþþþþþþÜ
                                   10909                       Ÿ  Try sending pending transactions now if full queue emptied.  Ÿ
                                   10910                       ¾þþþþþþþþþþþþþþþþþþþþþþþþþþþþþþþþþþþþþþþþþþþþþþþþþþþþþþþþþþþþþþþ»
 000BFA 9140 50AC/47E0_000AC       10911                       IF    UPATSFLG.UPATFFQE,BEGIN  Full queue empty...
 000C02 D603 5008 5008_00008 00008 10927  1                      IF    (UPATJCBP,NZ),EXIT  It's not a global path, skip this
                                   10946  1
 000C0C 41F0 5000            00000 10947  1                      LA    R15,UPATH
 000C10 58E0 70E2/0DEE       00CB8 10948  1                      ACALL PATHSNDQ
 000C16                            10952                       END
                                   10956                       ¿þþþþþþþþþþþþþþþþþþþþþþþþþþþþþþþþþþþþþþþþþþþþþþþþþþþþþþþþþþþþþÜ
                                   10957                       Ÿ  Check to see if there is data in the current transaction.  Ÿ
                                   10958                       ¾þþþþþþþþþþþþþþþþþþþþþþþþþþþþþþþþþþþþþþþþþþþþþþþþþþþþþþþþþþþþþ»
 000C16 D603 5030 5030_00030 00030 10959                       IF    (UPATDLEN,NZ),PRCHKOK  Fine, scram
                                   10978                       ¿þþþþþþþþþþþþþþþþþþþþþþþþþþþþþþþþþþþþþþþþþþþþþþþþþþþþþÜ
                                   10979                       Ÿ  Get the next transaction and process it's header.  Ÿ
                                   10980                       ¾þþþþþþþþþþþþþþþþþþþþþþþþþþþþþþþþþþþþþþþþþþþþþþþþþþþþþ»
 000C20 9120 50AC/47E0_000AC       10981                       IF    UPATSFLG.UPATFNI,BEGIN  We have new info...
 000CEE DF/41F0 0001/1_00CE9 01A80 10997  1                      CLEAR UPATSFLG.UPATFNI,MODE=LOCKED,REF=UPATH  Reset NI
                                   11043  1
 000C46 41F0 0014/5800_      00014 11044  1                      SCOM  FREELOC,0,L:UPATMGC  Get next transaction
 000C52 12FF/4780 708C             11062  1                      IF    (R15,NZ),BEGIN
 000C58 58E0 70E6/0DEE       00CBC 11076  2                        ACALL PATHRC              Get error msg text
 000C5E 47F0 70BC            00C92 11080  2                        EXIT  PATHRDCK
 000C62                            11083  1                      END
                                   11087  1
 000C62 1200/4780 70B2             11088  1                      IF    (R0,Z),PRCHKOK      Nothing to read, scram
                                   11105  1
 000C68 5010 502C            0002C 11106  1                      ST    R1,UPATDLOC         Save data location
 000C6C 5000 5030            00030 11107  1                      ST    R0,UPATDLEN         ...and remaining length
 000C70 58F0 50AC/4110_      000AC 11108  1                      SET   UPATSFLG.UPATFNI,MODE=LOCKED,REF=UPATH  Set NI
 000C88                            11123                       END
                                   11127
 000C88 4110 7108/4100_      00CDE 11128              PRCHKOK  SETMSG 'PATHRDCK OK'
 000C90 1BFF                       11132                       CLEAR R15                 A-ok
 000C92 18D8/9828 D004_            11136                       PEND
1PATH     (PATH2193) (12:51) (15MAR04) Path Support                                                                         Page   24
0Current Usings:  (CP,R11) (CV,R12)
0Loc    Object Code    Addr1 Addr2  Stmt Lv Lineno    Source Statement           (Hibal 5, Asmedit 3.3)  HLASM R4.0  2004/03/15 12.51
+___    ______ ____    _____ _____  ____ __ ______    ______ _________
0DROP   UPATH,R5
 DROP   *,R7
                                   11161
                                   11162                       QLTORG
1PATH     (PATH2193) (12:51) (15MAR04) Path Support                                                                         Page   25
0Current Usings:  (CP,R11) (CV,R12)
0Loc    Object Code    Addr1 Addr2  Stmt Lv Lineno    Source Statement           (Hibal 5, Asmedit 3.3)  HLASM R4.0  2004/03/15 12.51
+___    ______ ____    _____ _____  ____ __ ______    ______ _________
0                                  11190              ¿þþþþþþþþþþþþþþþþþþþþþþþþþþþþþþþþþþþþþþþþþþþþþþþþþþþþþþþþþþþþþþþþþþþþþÜ
                                   11191              Ÿ                                                                     Ÿ
                                   11192              Ÿ  PATHREAD -- Routine to read the next line from the path buffer.    Ÿ
                                   11193              Ÿ                                                                     Ÿ
                                   11194              Ÿ    On entry:                                                        Ÿ
                                   11195              Ÿ      R15 - UPATH ptr                                                Ÿ
                                   11196              Ÿ                                                                     Ÿ
                                   11197              Ÿ    On exit, R15 (and cc):                                           Ÿ
                                   11198              Ÿ        0 - ok;        R1,R0 - line loc, len                         Ÿ
                                   11199              Ÿ       -4 - timeout;   R1,R0 - error msg loc, len                    Ÿ
                                   11200              Ÿ      pos - problems;  R1,R0 - error msg loc, len                    Ÿ
                                   11201              Ÿ                                                                     Ÿ
                                                      ¾þþþþþþþþþþþþþþþþþþþþþþþþþþþþþþþþþþþþþþþþþþþþþþþþþþþþþþþþþþþþþþþþþþþþþ»
0000CF4 50E0 D000/9028_      00000 11202              PATHREAD XPROC (R2,LSR)
 USING  *,R7
 000D0E 185F                       11242                       LR    R5,R15
 USING  UPATH,R5                   11243                       WITH  (UPATH,R5)
 000D10 D503 7B22 5000_01830 00000 11256                       FAIL  (UPATH,NE,'PATH'),PRDERR,'Path logic error.'
                                   11285                       ¿þþþþþþþþþþþþþþþþþþþþþþþþþþþþþþþþþþþþþþþþþþþþþþþþþþÜ
                                   11286                       Ÿ  Finish processing path open now, if necessary.  Ÿ
                                   11287                       ¾þþþþþþþþþþþþþþþþþþþþþþþþþþþþþþþþþþþþþþþþþþþþþþþþþþ»
 000D32 9108 50AC/47E0_000AC       11288                       IF    UPATSFLG.UPATFOPN,'LA R15,UPATH; ACALL PATHOFIN'
                                   11314                       ¿þþþþþþþþþþþþþþþþþþþþþþþþþþþþþþþþþþþþþþþþþþþþþþþþþþþþþþþþþþþþþþÜ
                                   11315                       Ÿ  Check to see if there is still data in the current packet.  Ÿ
                                   11316                       ¾þþþþþþþþþþþþþþþþþþþþþþþþþþþþþþþþþþþþþþþþþþþþþþþþþþþþþþþþþþþþþþ»
 000D44 D603 5030 5030_00030 00030 11317              PRDRETRY IF    (UPATDLEN,Z),BEGIN  No data, go check for more...
 000D4E 41F0 5000            00000 11334  1                      LA    R15,UPATH
 000D52 58E0 7B2A/0DEE       01838 11335  1                      ACALL PATHRDCK            Check for more data
 000D58 4770 70F2            00E00 11339  1                      BNZ   PRDEXIT
 000D5C                            11340                       END
                                   11344                       ¿þþþþþþþþþþþþþþþþþþþþþþþþþþþþþþþþþþþþþþþþþþþþþþÜ
                                   11345                       Ÿ  Wait for a packet if there is no new data.  Ÿ
                                   11346                       ¾þþþþþþþþþþþþþþþþþþþþþþþþþþþþþþþþþþþþþþþþþþþþþþ»
 000D5C D603 5030 5030_00030 00030 11347                       IF    (UPATDLEN,Z),BEGIN  No data...
 000D66 9180 50AC/47E0_000AC       11363  1                      IF    UPATSFLG.UPATFCLS,BEGIN  Closing...
 000D6E 4110 7BDE/4100_      018EC 11379  2                        SETMSG 'PATH CLOSED'
 000D76 41F0 0014            00014 11383  2                        LA    R15,20
 000D7A 47F0 70F2            00E00 11384  2                        B     PRDEXIT
 000D7E                            11385  1                      END
                                   11389  1
 000D7E 9140 5018/4710_00018       11390  1                      IF    ~UPATFNOWAIT,BEGIN  Wait for a packet...
 000D86 5800 5028            00028 11405  2                        L     R0,UPATWAIT         Timeout time (in seconds)
 000D8A 4110 00A0            000A0 11406  2                        LA    R1,UPATFNI+UPATFCLS  New info or closing
 000D8E 41F0 5000            00000 11407  2                        LA    R15,UPATH
 000D92 58E0 7B2E/0DEE       0183C 11408  2                        ACALL PATHWAIT            Wait for a post
 000D98 4770 70F2            00E00 11412  2                        BNZ   PRDEXIT             Attn or timeout, scram
 000D9C 47F0 7036            00D44 11413  2                        B     PRDRETRY            Try it again
 000DA0                            11414  1                      END
 000DA0                            11418                       END
                                   11422
 000DA0 5810 502C            0002C 11423                       L     R1,UPATDLOC         Start of data
 000DA4 5800 5030/1200       00030 11424                       LT    R0,UPATDLEN         Total data length
 000DAA 4770 70B0/4110_      00DBE 11428                       IF    Z,'SETMSG "NO DATA"; LH R15,=H"-4"; B PRDEXIT'
1PATH     (PATH2193) (12:51) (15MAR04) Path Support                                                                         Page   26
0Current Usings:  (UPATH,R5) (*,R7) (CP,R11) (CV,R12)
0Loc    Object Code    Addr1 Addr2  Stmt Lv Lineno    Source Statement           (Hibal 5, Asmedit 3.3)  HLASM R4.0  2004/03/15 12.51
+___    ______ ____    _____ _____  ____ __ ______    ______ _________
0000DBE D703 502C 502C_0002C 0002C 11450                       CLEAR UPATDLOC,UPATDLEN   Assume we will return everything
                                   11462                       ¿þþþþþþþþþþþþþþþþþþþþþþþþþþþþþþþþþþþþþþþþþþþþþþþþþþþþþþþþÜ
                                   11463                       Ÿ  Deblock buffer if multiple lines can be in a buffer.  Ÿ
                                   11464                       ¾þþþþþþþþþþþþþþþþþþþþþþþþþþþþþþþþþþþþþþþþþþþþþþþþþþþþþþþþ»
 000DCA 9108 5018/47E0_00018       11465                       IF    UPATFHDR,BEGIN      Pick out a single line...
 000DD2 1831                       11480  1                      LR    R3,R1               Start of data
 000DD4 1820                       11481  1                      LR    R2,R0               Total data length
                                   11482  1                      ¿þþþþþþþþþþþþþþþþþþþþþþþþþþþþþþþþþþþþþþþþÜ
                                   11483  1                      Ÿ  Return pointer to next line of data.  Ÿ
                                   11484  1                      Ÿ    R1,R0 = line loc, len               Ÿ
                                   11485  1                      ¾þþþþþþþþþþþþþþþþþþþþþþþþþþþþþþþþþþþþþþþþ»
 000DD6 5800 3000            00000 11486  1                      L     R0,@R3              Get length
 000DDA 4130 3004            00004 11487  1                      LA    R3,@R3+4            Adjust for length
 000DDE 4B20 7BC0            018CE 11488  1                      SH    R2,=H'4'
 000DE2 47B0 70DA/1B22       00DE8 11489  1                      IF    NEG,'CLEAR R2'
 000DE8 1502/47D0 70E2_            11509  1                      IF    (R0,LGT,R2),'LR R0,R2'  Not too much now
 000DF0 1813                       11530  1                      LR    R1,R3               Start of text
 000DF2 1A30                       11531  1                      AR    R3,R0               Adjust for data bytes
 000DF4 1B20                       11532  1                      SR    R2,R0
 000DF6 5030 502C            0002C 11533  1                      ST    R3,UPATDLOC
 000DFA 5020 5030            00030 11534  1                      ST    R2,UPATDLEN
 000DFE                            11535                       END
                                   11539
 000DFE 1BFF                       11540                       CLEAR R15                 A-ok
 000E00 18D8/9828 D004_            11544              PRDEXIT  PEND
 DROP   UPATH,R5
 DROP   *,R7
1PATH     (PATH2193) (12:51) (15MAR04) Path Support                                                                         Page   27
0Current Usings:  (CP,R11) (CV,R12)
0Loc    Object Code    Addr1 Addr2  Stmt Lv Lineno    Source Statement           (Hibal 5, Asmedit 3.3)  HLASM R4.0  2004/03/15 12.51
+___    ______ ____    _____ _____  ____ __ ______    ______ _________
0                                  11571              ¿þþþþþþþþþþþþþþþþþþþþþþþþþþþþþþþþþþþþþþþþþþþþþþþþþþþþþþþþþþþþþþþþþþþþþÜ
                                   11572              Ÿ                                                                     Ÿ
                                   11573              Ÿ  PATHWRIT -- Routine to write data to across the path (called       Ÿ
                                   11574              Ÿ    by the PATHSEG routine to process SEGWR).                        Ÿ
                                   11575              Ÿ                                                                     Ÿ
                                   11576              Ÿ    On entry:                                                        Ÿ
                                   11577              Ÿ      R15 - UPATH ptr                                                Ÿ
                                   11578              Ÿ      R1,R0 - message loc, len                                       Ÿ
                                   11579              Ÿ                                                                     Ÿ
                                   11580              Ÿ    On exit, R15 (and cc):                                           Ÿ
                                   11581              Ÿ      0 - ok                                                         Ÿ
                                   11582              Ÿ      nz- path problems                                              Ÿ
                                   11583              Ÿ                                                                     Ÿ
                                                      ¾þþþþþþþþþþþþþþþþþþþþþþþþþþþþþþþþþþþþþþþþþþþþþþþþþþþþþþþþþþþþþþþþþþþþþ»
0000000                00000 00008 11584              PWRWA    RECORD BEGIN
 000000                            11592  1           PWRDATAA   DS    A                   SCOM parm: address
 000004                            11593  1           PWRDATAL   DS    F                   SCOM parm: length
 000008                00008 00008 11594                       END
                                   11603              þþþþ
 000E0E 50E0 D000/9008_      00000 11604              PATHWRIT XPROC PWRWA
 USING  *,R7
 USING  PWRWA-(4+36),R8
 000E28 185F                       11655                       LR    R5,R15
 USING  UPATH,R5                   11656                       WITH  (UPATH,R5)
 000E2A D503 7A08 5000_01830 00000 11669                       FAIL  (UPATH,NE,'PATH'),PWRERR,'Path logic error.'
                                   11698                       ¿þþþþþþþþþþþþþþþþþþþþþþþþþþþþþþþþþþþþþþþþþþþþþþþþþþÜ
                                   11699                       Ÿ  Finish processing path open now, if necessary.  Ÿ
                                   11700                       ¾þþþþþþþþþþþþþþþþþþþþþþþþþþþþþþþþþþþþþþþþþþþþþþþþþþ»
 000E4C 9108 50AC/47E0_000AC       11701                       IF    UPATSFLG.UPATFOPN,'LA R15,UPATH; ACALL PATHOFIN'
                                   11727                       ¿þþþþþþþþþþþþþþþþþþþþþþþþþþþþþþþþþþþþþþþþÜ
                                   11728                       Ÿ  Send any pending transactions first.  Ÿ
                                   11729                       ¾þþþþþþþþþþþþþþþþþþþþþþþþþþþþþþþþþþþþþþþþ»
 000E5E D603 5010 5010_00010 00010 11730                       IF    (UPATWRQH,NZ),BEGIN  Send pending xacts...
 000E68 41F0 5000            00000 11746  1                      LA    R15,UPATH
 000E6C 58E0 7A18/0DEE       01840 11747  1                      ACALL PATHSNDQ            Send pending stuff
 000E72 4780 705E            00E86 11751  1                      IF    NZ,BEGIN            We couldn't send it all...
 000E76 41F0 5000            00000 11762  2                        LA    R15,UPATH
 000E7A 58E0 7A1C/0DEE       01844 11763  2                        ACALL PATHADDQ            Queue the current xact
 000E80 1BFF                       11767  2                        CLEAR R15                 A-OK
 000E82 47F0 7158            00F80 11771  2                        B     PWREXIT
 000E86                            11772  1                      END
 000E86                            11776                       END
                                   11780                       ¿þþþþþþþþþþþþþþþþþþþþþþþþþþÜ
                                   11781                       Ÿ  Send this transaction.  Ÿ
                                   11782                       ¾þþþþþþþþþþþþþþþþþþþþþþþþþþ»
 000E86 5010 8028            00000 11783                       ST    R1,PWRDATAA         Seg data ptrs
 000E8A 5000 802C            00004 11784                       ST    R0,PWRDATAL
 000E8E 9680 8028      00000       11785                       SET   PWRDATAA.X'80'      Set VL bit
                                   11792
 000E92                            11793              PWRRETRY LABEL ,
                                   11795                       COMMENT CLEAR FULLQ POST FLAG NOW,
 00198C BF/41F0 0001/1_0198C 01A80 11796                       CLEAR UPATSFLG.UPATFFQE,MODE=LOCKED,REF=UPATH  Reset FQE
 000EB0 41F0 0008/5800_      00008 11842                       SCOM  SEND,PWRDATAA,L:UPATMGC
1PATH     (PATH2193) (12:51) (15MAR04) Path Support                                                                         Page   28
0Current Usings:  (UPATH,R5) (*,R7) (PWRWA-(4+36),R8) (CP,R11) (CV,R12)
0Loc    Object Code    Addr1 Addr2  Stmt Lv Lineno    Source Statement           (Hibal 5, Asmedit 3.3)  HLASM R4.0  2004/03/15 12.51
+___    ______ ____    _____ _____  ____ __ ______    ______ _________
0000EBE 12FF/4780 7158             11863                       IF    (R15,NZ),BEGIN      Couldn't send...
 000EC4 90F2 D000/41D0_      00000 11877  1                      XPUSH R15,R2
 000ECC 182F                       11880  1                      LR    R2,R15
 000ECE 4110 79E0/4100_      01808 11881  1                      DEBUG 'PATHWRIT send error, rc=',R2
 000EFA 4BD0 7AA8/98F2_      018D0 11940  1                      XPOP  R15,R2
                                   11943  1
 000F02 58E0 7A2C/0DEE       01854 11944  1                      ACALL PATHRC              Get return code string
                                   11948  1
 000F08 59F0 7A30/4770_      01858 11949  1                      IF    (R15,EQ,=A(UPATRBAF)),BEGIN  Buffer full...
 000F10 9104 5018/4710_00018       11965  2                        IF    UPATFNOFULLQWAIT,EXIT  Can't wait, report problem
                                   11983  2                        ¿þþþþþþþþþþþþþþþþþþþþþþþþþþþþþþþþþþþþþþþþþþþþþþþþþþþþþþþþþþþÜ
                                   11984  2                        Ÿ  If it is a global path not owned by anyone then we must  Ÿ
                                   11985  2                        Ÿ    simply queue the request locally.                      Ÿ
                                   11986  2                        ¾þþþþþþþþþþþþþþþþþþþþþþþþþþþþþþþþþþþþþþþþþþþþþþþþþþþþþþþþþþþ»
 000F18 D603 5008 5008_00008 00008 11987  2                        IF    (UPATJCBP,Z),BEGIN  No ownership...
 000F22 4110 7AD6/4100_      018FE 12003  3                          DEBUG 'PATHWRIT queueing local xact for later resend'
 000F40 5810 8028/5800_      00000 12042  3                          SETMSG L:PWRDATAA,L:PWRDATAL
 000F48 4110 1000            00000 12054  3                          LA    R1,@R1
 000F4C 41F0 5000            00000 12055  3                          LA    R15,UPATH
 000F50 58E0 7A1C/0DEE       01844 12056  3                          ACALL PATHADDQ            Queue the transaction for later
 000F56 1BFF                       12060  3                          CLEAR R15
 000F58 47F0 7158            00F80 12064  3                          B     PWREXIT             Scram
 000F5C                            12065  2                        END
                                   12069  2                        ¿þþþþþþþþþþþþþþþþþþþþþþþþþþþþþþþþþþþþþþþþþþþþþþþþþþþþþþþþþþÜ
                                   12070  2                        Ÿ  The path is owned by a user, so we will wait that user  Ÿ
                                   12071  2                        Ÿ    until the full queue empties.                         Ÿ
                                   12072  2                        ¾þþþþþþþþþþþþþþþþþþþþþþþþþþþþþþþþþþþþþþþþþþþþþþþþþþþþþþþþþþ»
 000F5C 5800 5028            00028 12073  2                        L     R0,UPATWAIT
 000F60 4110 00C0            000C0 12074  2                        LA    R1,UPATFFQE+UPATFCLS  FullQ emptied or closing
 000F64 41F0 5000            00000 12075  2                        LA    R15,UPATH
 000F68 58E0 7A14/0DEE       0183C 12076  2                        ACALL PATHWAIT            Wait for buffer queue to empty
 000F6E 4780 706A            00E92 12080  2                        BZ    PWRRETRY            Loop back and try it again
                                   12081  2
 000F72 D603 5020 5020_00020 00020 12082  2                        IF    (UPATRCMP,Z),BEGIN  Only set it the first time...
 000F7C 9001 5020            00020 12098  3                          STM   R0,R1,UPATRCMP      Save return code string ptrs
 000F80                            12099  2                        END
 000F80                            12103  1                      END
 000F80                            12107                       END
                                   12111
 000F80 12FF/4780 719C             12112              PWREXIT  IF    (R15,NZ),BEGIN
 000F86 90F2 D000/41D0_      00000 12127  1                      XPUSH R15,R2
 000F8E 182F                       12130  1                      LR    R2,R15
 000F90 4110 7A34/4100_      0185C 12131  1                      DEBUG 'PATHWRIT returns rc=',R2
 000FBC 4BD0 7AA8/98F2_      018D0 12190  1                      XPOP  R15,R2
 000FC4                            12193                       END
                                   12197
 000FC4 18D8/9808 D004_            12198                       PEND
 DROP   UPATH,R5
 DROP   PWRWA-(4+36),R8
 DROP   *,R7
1PATH     (PATH2193) (12:51) (15MAR04) Path Support                                                                         Page   29
0Current Usings:  (CP,R11) (CV,R12)
0Loc    Object Code    Addr1 Addr2  Stmt Lv Lineno    Source Statement           (Hibal 5, Asmedit 3.3)  HLASM R4.0  2004/03/15 12.51
+___    ______ ____    _____ _____  ____ __ ______    ______ _________
0                                  12229              ¿þþþþþþþþþþþþþþþþþþþþþþþþþþþþþþþþþþþþþþþþþþþþþþþþþþþþþþþþþþþþþþþþþþþþþÜ
                                   12230              Ÿ                                                                     Ÿ
                                   12231              Ÿ  PATHSEG -- Seg processing routine to handle writing                Ÿ
                                   12232              Ÿ    data across the Suzan path.                                      Ÿ
                                   12233              Ÿ                                                                     Ÿ
                                   12234              Ÿ    On entry:                                                        Ÿ
                                   12235              Ÿ      R15 - SEGCB ptr                                                Ÿ
                                   12236              Ÿ                                                                     Ÿ
                                                      ¾þþþþþþþþþþþþþþþþþþþþþþþþþþþþþþþþþþþþþþþþþþþþþþþþþþþþþþþþþþþþþþþþþþþþþ»
0000FD2 50E0 D000/9008_      00000 12237              PATHSEG  XPROC
 USING  *,R7
                                   12277
 000FEC 185F                       12278                       LR    R5,R15
 USING  SEGCB,R5                   12279                       WITH  (SEGCB,R5)
                                   12292
 000FEE 5860 5038            00038 12293                       L     R6,SEGCBUSR         Seg user field points to UPATH
 USING  UPATH,R6                   12294                       WITH  (UPATH,R6)
 000FF2 D503 7844 6000_01830 00000 12307                       FAIL  (UPATH,NE,'PATH'),PATHSEG,'Path logic error.'
                                   12336                       ¿þþþþþþþþþþþþþþþþþþþþþþþþÜ
                                   12337                       Ÿ  SEGWR (or overflow).  Ÿ
                                   12338                       ¾þþþþþþþþþþþþþþþþþþþþþþþþ»
 001014 9502 5000/4780_00000       12339                       IF    (SEGCBWR,OR,SEGCBOVF),BEGIN  SEGWR...
 001024 1220                       12368  1                      LTR   R2,R0               Current buffer length
 001026 47D0 704E            0103A 12369  1                      IF    NP,EXIT             Nothing to write, scram
                                   12383  1
 00102A 41F0 6000            00000 12384  1                      LA    R15,UPATH
 00102E 58E0 7884/0DEE       01870 12385  1                      ACALL PATHWRIT            Send data across Suzan path
                                   12389  1
 001034 1302                       12390  1                      LCR   R0,R2               For overflow: nbytes processed
 001036 5008 0004            00004 12391  1                      PRETURN (R0)
 00103A                            12393                       END
                                   12397                       ¿þþþþþþþþþþþþþþþþþþþþþþþþþþþþþþþþþþþþþþþþþþþÜ
                                   12398                       Ÿ  Post processing (set return code only).  Ÿ
                                   12399                       ¾þþþþþþþþþþþþþþþþþþþþþþþþþþþþþþþþþþþþþþþþþþþ»
 00103A 9504 5000/4770_00000       12400                       IF    SEGCBSPP,BEGIN      Post processing...
 001042 1B00                       12415  1                      CLEAR R0                  Assume A-ok
 001044 D603 6020 6020_00020 00020 12419  1                      IF    (UPATRCMP,NZ),'LA R0,4'  Trouble
 001052 5008 0004            00004 12441  1                      PRETURN (R0)              Return the rc
 001056                            12443                       END
                                   12447
 001056 18D8/9808 D004_            12448                       PEND
 DROP   UPATH,R6
 DROP   SEGCB,R5
 DROP   *,R7
1PATH     (PATH2193) (12:51) (15MAR04) Path Support                                                                         Page   30
0Current Usings:  (CP,R11) (CV,R12)
0Loc    Object Code    Addr1 Addr2  Stmt Lv Lineno    Source Statement           (Hibal 5, Asmedit 3.3)  HLASM R4.0  2004/03/15 12.51
+___    ______ ____    _____ _____  ____ __ ______    ______ _________
0                                  12479              ¿þþþþþþþþþþþþþþþþþþþþþþþþþþþþþþþþþþþþþþþþþþþþþþþþþþþþþþþþþþþþþþþþþþþþþÜ
                                   12480              Ÿ                                                                     Ÿ
                                   12481              Ÿ  PATHCLS -- Routine to close and free the UPATH.                    Ÿ
                                   12482              Ÿ                                                                     Ÿ
                                   12483              Ÿ    On entry:                                                        Ÿ
                                   12484              Ÿ      R15 - UPATH ptr                                                Ÿ
                                   12485              Ÿ                                                                     Ÿ
                                   12486              Ÿ    On exit, R15 (and cc):                                           Ÿ
                                   12487              Ÿ      0 = closed                                                     Ÿ
                                   12488              Ÿ                                                                     Ÿ
                                                      ¾þþþþþþþþþþþþþþþþþþþþþþþþþþþþþþþþþþþþþþþþþþþþþþþþþþþþþþþþþþþþþþþþþþþþþ»
0001064 50E0 D000/9008_      00000 12489              PATHCLS  XPROC
 USING  *,R7
 00107E 185F                       12529                       LR    R5,R15
 USING  UPATH,R5                   12530                       WITH  (UPATH,R5)
 001080 D503 77B2 5000_01830 00000 12543                       FAIL  (UPATH,NE,'PATH'),PFREERR,'Path logic error.'
                                   12572                       ¿þþþþþþþþþþþþþþþþþþþþþþþþþþþþþþþþþþþþþþþþþþþþÜ
                                   12573                       Ÿ  Free pending transactions in send queue.  Ÿ
                                   12574                       ¾þþþþþþþþþþþþþþþþþþþþþþþþþþþþþþþþþþþþþþþþþþþþ»
 0010A2 41F0 5000            00000 12575                       LA    R15,UPATH
 0010A6 58E0 77F6/0DEE       01874 12576                       ACALL PATHDELQ            Delete pending send queue
                                   12580                       ¿þþþþþþþþþþþþþþþþþþþþþþþþþþþþþþþþþþþþþþþþþþþþþþþþþþþþþþþþþþþÜ
                                   12581                       Ÿ  Free related network information if this is a net path.  Ÿ
                                   12582                       ¾þþþþþþþþþþþþþþþþþþþþþþþþþþþþþþþþþþþþþþþþþþþþþþþþþþþþþþþþþþþ»
 0010AC 41F0 5000            00000 12583                       LA    R15,UPATH
 0010B0 58E0 77FA/0DEE       01878 12584                       VCALL NPATPCLS            Tell NPAT that path is closing
                                   12588                       ¿þþþþþþþþþþþþþþþþþþþþþþþþþþþþþþþþþþþþþþþþÜ
                                   12589                       Ÿ  Free the user path id for this path.  Ÿ
                                   12590                       ¾þþþþþþþþþþþþþþþþþþþþþþþþþþþþþþþþþþþþþþþþ»
 0010B6 5820 5004            00004 12591                       L     R2,UPATPNO          Path number
 0010BA 1222/47D0 704A_            12592                       FAIL  ((R2,NP),OR,(R2,GT,CVPATH#)),PATHCLS,'Path close err'
 0010E0 0620                       12634                       DECR  R2                  Relative to zero, not one
 0010E2 8920 0002            00002 12636                       SLL   R2,2                Times 4
 0010E6 5A20 C0A4            000A4 12637                       A     R2,CVPATHP          Our entry ptr
 0010EA D703 2000 2000 00000 00000 12638                       CLEAR (@R2,4)             Zero our entry ptr
                                   12645
 0010F0 9180 5018/4710_00018       12646                       IF    ~UPATFGLOBAL,BEGIN  User (non global) path...
 0010F8 48F0 B220/06F0_      00220 12661  1                      DECR  R15,CPNPATHS        One less open user path now
 001102                            12666                       END
                                   12670                       ¿þþþþþþþþþþþþþþþþþþþþþþþþþþþþþþþþþþþþþþþþþþþþþþþþÜ
                                   12671                       Ÿ  Close path (we don't care if it's not open).  Ÿ
                                   12672                       ¾þþþþþþþþþþþþþþþþþþþþþþþþþþþþþþþþþþþþþþþþþþþþþþþþ»
 001102 D603 500C 500C_0000C 0000C 12673                       FAIL  (UPATLINK,NZ),PCLSERR2
 001120 41F0 0004/5800_      00004 12700                       SCOM  CLOSE,0,L:UPATMGC   Close path
                                   12718
 00112C D603 500C 500C_0000C 0000C 12719                       FAIL  (UPATLINK,NZ),PFREERR2
                                   12746
 00114A D203 5000 7802 00000 01880 12747                       MVC   UPATH(4),=C'FPTH'   Zap id
1PATH     (PATH2193) (12:51) (15MAR04) Path Support                                                                         Page   31
0Current Usings:  (UPATH,R5) (*,R7) (CP,R11) (CV,R12)
0Loc    Object Code    Addr1 Addr2  Stmt Lv Lineno    Source Statement           (Hibal 5, Asmedit 3.3)  HLASM R4.0  2004/03/15 12.51
+___    ______ ____    _____ _____  ____ __ ______    ______ _________
0                                  12748                       ¿þþþþþþþþþþþþþþþþþþþþþþÜ
                                   12749                       Ÿ  Free UPATH memory.  Ÿ
                                   12750                       ¾þþþþþþþþþþþþþþþþþþþþþþ»
 001150 4110 5000            00000 12751                       LA    R1,UPATH
 001154 58E0 7806/0DEE       01884 12752                       VCALL FREECORE            Release memory
                                   12756
 00115A 1BFF                       12757                       CLEAR R15                 A-ok
 00115C 18D8/9808 D004_            12761                       PEND
 DROP   UPATH,R5
 DROP   *,R7
1PATH     (PATH2193) (12:51) (15MAR04) Path Support                                                                         Page   32
0Current Usings:  (CP,R11) (CV,R12)
0Loc    Object Code    Addr1 Addr2  Stmt Lv Lineno    Source Statement           (Hibal 5, Asmedit 3.3)  HLASM R4.0  2004/03/15 12.51
+___    ______ ____    _____ _____  ____ __ ______    ______ _________
0                                  12787              ¿þþþþþþþþþþþþþþþþþþþþþþþþþþþþþþþþþþþþþþþþþþþþþþþþþþþþþþþþþþþþþþþþþþþþþÜ
                                   12788              Ÿ                                                                     Ÿ
                                   12789              Ÿ  PATHRC -- Routine to form string from return code.                 Ÿ
                                   12790              Ÿ                                                                     Ÿ
                                   12791              Ÿ    On entry:                                                        Ÿ
                                   12792              Ÿ      R15 - return code from Suzan                                   Ÿ
                                   12793              Ÿ                                                                     Ÿ
                                   12794              Ÿ    On exit:                                                         Ÿ
                                   12795              Ÿ      R1,R0 - message loc, len                                       Ÿ
                                   12796              Ÿ                                                                     Ÿ
                                                      ¾þþþþþþþþþþþþþþþþþþþþþþþþþþþþþþþþþþþþþþþþþþþþþþþþþþþþþþþþþþþþþþþþþþþþþ»
000116A 50E0 D000/9028_      00000 12797              PATHRC   XPROC (R2,LSR)
 USING  *,R7
 001184 4110 774E/4100_      018D2 12837                       SETMSG 'OK'
 00118C 12FF/4780 7016_            12841                       IF    (R15,NZ),'SETMSG "ERROR"'
 00119A 59F0 7704/4770_      01888 12864                       IF    (R15,EQ,=A(UPATRIFC)),'SETMSG "BAD SUZAN FUNCTION CODE"'
 0011AA 59F0 7708/4770_      0188C 12889                       IF    (R15,EQ,=A(UPATRPMW)),'SETMSG "BAD SUZAN CONTROL BLOCK"'
 0011BA 59F0 76D4/4770_      01858 12914                       IF    (R15,EQ,=A(UPATRBAF)),'SETMSG "BUFFER FULL"'
 0011CA 59F0 770C/4770_      01890 12939                       IF    (R15,EQ,=A(UPATRNOP)),'SETMSG "NO PARTNER"'
 0011DA 59F0 7710/4770_      01894 12964                       IF    (R15,EQ,=A(UPATRBOM)),'SETMSG "TOO BIG"'
 0011EA 59F0 7714/4770_      01898 12989                       IF    (R15,EQ,=A(UPATRIBS)),'SETMSG "BUFFER TOO SMALL"'
 0011FA 59F0 7718/4770_      0189C 13014                       IF    (R15,EQ,=A(UPATRBPI)),'SETMSG "BAD SUZAN BUFFER ADDR"'
 00120A 59F0 771C/4770_      018A0 13039                       IF    (R15,EQ,=A(UPATRIAD)),'SETMSG "BAD SUZAN ADDR"'
 00121A 18D8/9828 D004_            13064                       PEND
 DROP   *,R7
1PATH     (PATH2193) (12:51) (15MAR04) Path Support                                                                         Page   33
0Current Usings:  (CP,R11) (CV,R12)
0Loc    Object Code    Addr1 Addr2  Stmt Lv Lineno    Source Statement           (Hibal 5, Asmedit 3.3)  HLASM R4.0  2004/03/15 12.51
+___    ______ ____    _____ _____  ____ __ ______    ______ _________
0                                  13085              ¿þþþþþþþþþþþþþþþþþþþþþþþþþþþþþþþþþþþþþþþþþþþþþþþþþþþþþþþþþþþþþþþþþþþþþÜ
                                   13086              Ÿ                                                                     Ÿ
                                   13087              Ÿ  PATHQ -- Routine to put all the user's paths whose posts           Ÿ
                                   13088              Ÿ    can interrupt terminal I/O on the active queue (which gets       Ÿ
                                   13089              Ÿ    checked by the dispatcher).                                      Ÿ
                                   13090              Ÿ                                                                     Ÿ
                                   13091              Ÿ    Note that PATHDEQ must be called before doing any more           Ÿ
                                   13092              Ÿ    path I/O.  Normally TREAD calls this routine before doing        Ÿ
                                   13093              Ÿ    a terminal read (if the read is interruptible) and then          Ÿ
                                   13094              Ÿ    calls PATHDEQ immediately upon completion.                       Ÿ
                                   13095              Ÿ                                                                     Ÿ
                                   13096              Ÿ    On exit, R15 (and cc):                                           Ÿ
                                   13097              Ÿ      0 - ok                                                         Ÿ
                                   13098              Ÿ      4 - a path has already been posted (no action taken)           Ÿ
                                   13099              Ÿ                                                                     Ÿ
                                                      ¾þþþþþþþþþþþþþþþþþþþþþþþþþþþþþþþþþþþþþþþþþþþþþþþþþþþþþþþþþþþþþþþþþþþþþ»
0001228 50E0 D000/9008_      00000 13100              PATHQ    XPROC
 USING  *,R7
 001242 5860 C1C8            001C8 13140                       L     R6,CVCURJCB
 USING  JCB,R6                     13141                       WITH  (JCB,R6)
                                   13154                       ¿þþþþþþþþþþþþþþþþþþþþþþþþþþþþþþÜ
                                   13155                       Ÿ  Go through all user paths.  Ÿ
                                   13156                       ¾þþþþþþþþþþþþþþþþþþþþþþþþþþþþþþ»
 001246 4130 0001            00001 13157                       LA    R3,1
 00124A 5840 C0A4            000A4 13158                       L     R4,CVPATHP
 00124E 5930 763A/4730_      0187C 13159                       WHILE (R3,LE,CVPATH#),BEGIN
 001256 5850 4000/1255_      00000 13178  1                      IF    ('LT R5,@R4',NZ),BEGIN
 USING  UPATH,R5                   13194  2                        WITH  (UPATH,R5)
 001260 5960 5008/4770_      00008 13207  2                        IF    (R6,EQ,UPATJCBP),BEGIN  Our path...
                                   13224  3
 001268 D503 75EE 5000_01830 00000 13225  3                          FAIL  (UPATH,NE,'PATH'),PINTQ1,'PATHQ logic error.'
 00128A D603 500C 500C_0000C 0000C 13254  3                          FAIL  (UPATLINK,NZ),PINTQ2,'PATHQ logic error.'
                                   13282  3
 0012AC 9110 5018/47E0_00018       13283  3                          IF    ~UPATFINT,EXIT      Skip this path
                                   13301  3                          ¿þþþþþþþþþþþþþþþþþþþþþþþþþþþþþþþþþþþþþþþþþþþþþþþÜ
                                   13302  3                          Ÿ  Check to see if the path is already posted.  Ÿ
                                   13303  3                          ¾þþþþþþþþþþþþþþþþþþþþþþþþþþþþþþþþþþþþþþþþþþþþþþþ»
 0012B4 9120 50AC/47E0_000AC       13304  3                          IF    UPATSFLG.UPATFNI,BEGIN  New info...
 0012BC 41F0 5000            00000 13320  4                            LA    R15,UPATH
 0012C0 58E0 75F6/0DEE       01838 13321  4                            ACALL PATHRDCK            Make sure we really have new info
 0012C6                            13325  3                          END
                                   13329  3
 0012C6 91A8 50AC/4780_000AC       13330  3                          IF    UPATSFLG.UPATFNI+UPATFOPN+UPATFCLS,BEGIN  Do it...
 0012CE 58E0 7662/0DEE       018A4 13352  4                            ACALL PATHDEQ             Dequeue prev Q'd paths
 0012D4 41F0 0004            00004 13356  4                            LA    R15,4               Hey, already posted
 0012D8 47F0 70BC            012FE 13357  4                            B     PATHINQX
 0012DC                            13358  3                          END
                                   13362  3                          ¿þþþþþþþþþþþþþþþþþþþþþþþþþþþþþþþþþþþþþþþþþþþþþþþþþþþþþþþþþþþþþþÜ
                                   13363  3                          Ÿ  Add path to dispatcher's active path queue (see PATHWAIT).  Ÿ
                                   13364  3                          ¾þþþþþþþþþþþþþþþþþþþþþþþþþþþþþþþþþþþþþþþþþþþþþþþþþþþþþþþþþþþþþþ»
 0012DC 92A8 50AD      000AD       13365  3                          MVI   UPATPMSK,UPATFNI+UPATFOPN+UPATFCLS  Post bits
 0012E0 D203 5034 7666 00034 018A8 13366  3                          MVC   UPATXCLK,=F'-1'     No timeout
 0012E6 D203 500C C0AC 0000C 000AC 13367  3                          MVC   UPATLINK,CVPATHQH   Linked list
1PATH     (PATH2193) (12:51) (15MAR04) Path Support                                                                         Page   34
0Current Usings:  (UPATH,R5) (JCB,R6) (*,R7) (CP,R11) (CV,R12)
0Loc    Object Code    Addr1 Addr2  Stmt Lv Lineno    Source Statement           (Hibal 5, Asmedit 3.3)  HLASM R4.0  2004/03/15 12.51
+___    ______ ____    _____ _____  ____ __ ______    ______ _________
00012EC 5050 C0AC            000AC 13368  3                          ST    R5,CVPATHQH         We are the new queue head
 0012F0                            13369  2                        END
 DROP   UPATH,R5                   13373  1                      END
                                   13382  1
 0012F0 4140 4004            00004 13383  1                      LA    R4,@R4+4            Next path ptr
 0012F4 4130 3001            00001 13384  1                      LA    R3,@R3+1            Next path number
 0012F8 47F0 700C            0124E 13385                       END
                                   13390
 0012FC 1BFF                       13391                       CLEAR R15                 A-ok
 0012FE 18D8/9808 D004_            13395              PATHINQX PEND
 DROP   JCB,R6
 DROP   *,R7
1PATH     (PATH2193) (12:51) (15MAR04) Path Support                                                                         Page   35
0Current Usings:  (CP,R11) (CV,R12)
0Loc    Object Code    Addr1 Addr2  Stmt Lv Lineno    Source Statement           (Hibal 5, Asmedit 3.3)  HLASM R4.0  2004/03/15 12.51
+___    ______ ____    _____ _____  ____ __ ______    ______ _________
0                                  13422              ¿þþþþþþþþþþþþþþþþþþþþþþþþþþþþþþþþþþþþþþþþþþþþþþþþþþþþþþþþþþþþþþþþþþþþþÜ
                                   13423              Ÿ                                                                     Ÿ
                                   13424              Ÿ  PATHDEQ -- Routine to take all the user's paths off the            Ÿ
                                   13425              Ÿ    active queue.  This routine is the 'dequeue' call for            Ÿ
                                   13426              Ÿ    PATHQ; see the comments for that routine.                        Ÿ
                                   13427              Ÿ                                                                     Ÿ
                                                      ¾þþþþþþþþþþþþþþþþþþþþþþþþþþþþþþþþþþþþþþþþþþþþþþþþþþþþþþþþþþþþþþþþþþþþþ»
000130C 50E0 D000/9008_      00000 13428              PATHDEQ  XPROC
 USING  *,R7
 001326 5860 C1C8            001C8 13468                       L     R6,CVCURJCB
 USING  JCB,R6                     13469                       WITH  (JCB,R6)
                                   13482                       ¿þþþþþþþþþþþþþþþþþþþþþþþþþþþþþþþþþþþþþþþþþþþþþþþþÜ
                                   13483                       Ÿ  Take all of this user's paths off the queue.  Ÿ
                                   13484                       ¾þþþþþþþþþþþþþþþþþþþþþþþþþþþþþþþþþþþþþþþþþþþþþþþþ»
 00132A 4130 C0A0            000A0 13485                       LA    R3,CVPATHQH-(UPATLINK-UPATH)  Dummy queue head
 00132E                            13486                       LOOP  BEGIN
 00132E 1823                       13492  1                      LR    R2,R3               Save prev ptr
 USING  UPATH,R3                   13493  1                      WITH  (UPATH,R3)
 001330 5830 300C/1233       0000C 13506  1                      LT    R3,UPATLINK         Next queue entry
 001336 4780 7030            01356 13510  1                      IF    Z,EXIT              All done, scram
                                   13524  1
 00133A 5960 3008/4770_      00008 13525  1                      IF    (R6,EQ,UPATJCBP),BEGIN  Our path...
 001342 58F0 300C            0000C 13542  2                        L     R15,UPATLINK        Next in queue
 001346 D703 300C 300C 0000C 0000C 13543  2                        CLEAR UPATLINK            (Neatness)
 00134C 1832                       13550  2                        LR    R3,R2               Back up
 00134E 50F0 300C            0000C 13551  2                        ST    R15,UPATLINK        This takes us out of the queue
 001352                            13552  1                      END
 001352 47F0 7008            0132E 13556                       END
 DROP   UPATH,R3
                                   13566
 001356 1BFF                       13567                       CLEAR R15                 (Neatness)
 001358 18D8/9808 D004_            13571                       PEND
 DROP   JCB,R6
 DROP   *,R7
1PATH     (PATH2193) (12:51) (15MAR04) Path Support                                                                         Page   36
0Current Usings:  (CP,R11) (CV,R12)
0Loc    Object Code    Addr1 Addr2  Stmt Lv Lineno    Source Statement           (Hibal 5, Asmedit 3.3)  HLASM R4.0  2004/03/15 12.51
+___    ______ ____    _____ _____  ____ __ ______    ______ _________
0                                  13597              ¿þþþþþþþþþþþþþþþþþþþþþþþþþþþþþþþþþþþþþþþþþþþþþþþþþþþþþþþþþþþþþþþþþþþþþÜ
                                   13598              Ÿ                                                                     Ÿ
                                   13599              Ÿ  PATHWAIT -- Routine to wait the user until his path                Ÿ
                                   13600              Ÿ    has been posted.  Note that ATTN will interrupt this wait.       Ÿ
                                   13601              Ÿ                                                                     Ÿ
                                   13602              Ÿ    On entry:                                                        Ÿ
                                   13603              Ÿ      R0  - Max number of seconds before timeout (0=infinite)        Ÿ
                                   13604              Ÿ      R1  - Suzan post bits to check for                             Ÿ
                                   13605              Ÿ      R15 - UPATH ptr                                                Ÿ
                                   13606              Ÿ                                                                     Ÿ
                                   13607              Ÿ    On exit, R15 (and cc):                                           Ÿ
                                   13608              Ÿ      0 - posted (see UPATSFLG byte);  R1,R0 = "OK"                  Ÿ
                                   13609              Ÿ      4 - ATTN;                        R1,R0 = "ATTN"                Ÿ
                                   13610              Ÿ     -4 - TIMEOUT;                     R1,R0 = "TIMEOUT"             Ÿ
                                   13611              Ÿ                                                                     Ÿ
                                                      ¾þþþþþþþþþþþþþþþþþþþþþþþþþþþþþþþþþþþþþþþþþþþþþþþþþþþþþþþþþþþþþþþþþþþþþ»
0001366 50E0 D000/9028_      00000 13612              PATHWAIT XPROC (R2,LSR)
 USING  *,R7
 001380 185F                       13652                       LR    R5,R15
 USING  UPATH,R5                   13653                       WITH  (UPATH,R5)
 001382 5860 C1C8            001C8 13666                       L     R6,CVCURJCB
 USING  JCB,R6                     13667                       WITH  (JCB,R6)
                                   13680
 001386 D503 74B0 5000_01830 00000 13681                       FAIL  (UPATH,NE,'PATH'),PATHWT1,'PATH WAIT error.'
 0013A8 D603 500C 500C_0000C 0000C 13710                       FAIL  (UPATLINK,NZ),PATHWT2,'PATH WAIT error.'
 0013CA 5960 5008/4780_      00008 13738                       FAIL  (R6,NE,UPATJCBP),PATHWT3,'PATH WAIT error.'
                                   13767
 0013EA 4210 50AD            000AD 13768                       STC   R1,UPATPMSK         Save post bits
                                   13769                       ¿þþþþþþþþþþþþþþþþþþþþþþþþþþþþþþþþþþþþþþÜ
                                   13770                       Ÿ  Save timeout clock value in UPATH.  Ÿ
                                   13771                       ¾þþþþþþþþþþþþþþþþþþþþþþþþþþþþþþþþþþþþþþ»
 0013EE 58F0 7528            018A8 13772                       L     R15,=F'-1'          No timeout possible
 0013F2 1200/4780 707E             13773                       IF    (R0,NZ),BEGIN       Timeout specified...
 0013F8 58F0 C630            00630 13787  1                      L     R15,CVDSPCLK        Current TOD clock
 0013FC 1AF0                       13788  1                      AR    R15,R0
 0013FE                            13789                       END
 0013FE 50F0 5034            00034 13793                       ST    R15,UPATXCLK        Clock when timeout happens
                                   13794                       ¿þþþþþþþþþþþþþþþþþþþþþþþþþþþþþþþþþþþþþþþþþþþþþþþþÜ
                                   13795                       Ÿ  Return immediately if we are already posted.  Ÿ
                                   13796                       ¾þþþþþþþþþþþþþþþþþþþþþþþþþþþþþþþþþþþþþþþþþþþþþþþþ»
 001402 9120 50AC/47E0_000AC       13797                       IF    UPATSFLG.UPATFNI,BEGIN  New info...
 00140A 41F0 5000            00000 13813  1                      LA    R15,UPATH
 00140E 58E0 74B8/0DEE       01838 13814  1                      ACALL PATHRDCK            Make sure we really have new info
 001414                            13818                       END
                                   13822
 001414 1F22/4320 50AD             13823                       LC    R2,UPATPMSK         Port mask (thanks, WSF!)
 00141A 4420 7612/9100_      01992 13830                       EX    R2,'TM UPATSFLG,*-*'  Are we still posted?
 00141E 4780 70AC            0142C 13846                       IF    NZ,BEGIN            Yes...
 001422 58E0 752C/0DEE       018AC 13857  1                      VCALL SLICECHK            Check for timeslice expiration
 001428 47F0 7114            01494 13861  1                      B     PWTDONE             All done, scram
 00142C                            13862                       END
1PATH     (PATH2193) (12:51) (15MAR04) Path Support                                                                         Page   37
0Current Usings:  (UPATH,R5) (JCB,R6) (*,R7) (CP,R11) (CV,R12)
0Loc    Object Code    Addr1 Addr2  Stmt Lv Lineno    Source Statement           (Hibal 5, Asmedit 3.3)  HLASM R4.0  2004/03/15 12.51
+___    ______ ____    _____ _____  ____ __ ______    ______ _________
0                                  13866                       ¿þþþþþþþþþþþþþþþþþþþþþþþþþþþþþþþþþþþþþþþþþþþþþþþþþÜ
                                   13867                       Ÿ  Go to the dispatcher (and wait to be posted).  Ÿ
                                   13868                       ¾þþþþþþþþþþþþþþþþþþþþþþþþþþþþþþþþþþþþþþþþþþþþþþþþþ»
 00142C D203 500C C0AC 0000C 000AC 13869                       MVC   UPATLINK,CVPATHQH   Link the rest to us
 001432 5050 C0AC            000AC 13870                       ST    R5,CVPATHQH         Save new queue head
                                   13871
 001436 9640 6061      00061       13872                       SET   JCBWWFPT            Waiting for path post
 00143A 41E0 70C8/900F_      01448 13878                       PAUSE ,
                                   13885                       ¿þþþþþþþþþþþþþþþþþþþþþþþþþþþþþþþþþþþþþþþþþþþþþþþþþþþþþþþÜ
                                   13886                       Ÿ  Returns when either a Suzan post bit is on or if an  Ÿ
                                   13887                       Ÿ    ATTN has been received.                            Ÿ
                                   13888                       ¾þþþþþþþþþþþþþþþþþþþþþþþþþþþþþþþþþþþþþþþþþþþþþþþþþþþþþþþ»
 001448 4130 C0A0            000A0 13889                       LA    R3,CVPATHQH-(UPATLINK-UPATH)  Dummy queue head
 00144C                            13890                       LOOP  BEGIN               Go through UPATH queue...
 00144C 1823                       13896  1                      LR    R2,R3               Save prev ptr
 DROP   UPATH,R5                   13897  1                      WITH  (UPATH,R3)
 USING  UPATH,R3
 00144E 5830 300C/1233       0000C 13918  1                      LT    R3,UPATLINK         Next queue entry
 001454 4780 7114            01494 13922  1                      IF    Z,EXIT              All done, scram
 001458 D503 74B0 3000_01830 00000 13936  1                      FAIL  (UPATH,NE,'PATH'),PWAIT  (Better safe than sloppy)
                                   13964  1
 001476 1935/4770 7110             13965  1                      IF    (R3,EQ,R5),BEGIN    Our path...
 00147C 58F0 300C            0000C 13980  2                        L     R15,UPATLINK        Next in queue
 001480 D703 300C 300C 0000C 0000C 13981  2                        CLEAR UPATLINK            (Neatness)
 001486 1832                       13988  2                        LR    R3,R2               Back up (neatness, also)
 001488 50F0 300C            0000C 13989  2                        ST    R15,UPATLINK        This takes us out of the queue
 00148C 47F0 7114            01494 13990  2                        B     PWTNOPST            All done
 001490                            13991  1                      END
 001490 47F0 70CC            0144C 13995                       END
 USING  UPATH,R5
 DROP   UPATH,R3
                                   14014
 001494                            14015              PWTNOPST LABEL
                                   14017                       ¿þþþþþþþþþþþþþþÜ
                                   14018                       Ÿ  Finish up.  Ÿ
                                   14019                       ¾þþþþþþþþþþþþþþ»
 001494 58E0 7534/0DEE       018B4 14020              PWTDONE  TSTAT ,                   Set rc
 00149A 4110 7552/4100_      018D2 14025                       SETMSG 'OK'                Assume OK
 0014A2 4780 713C            014BC 14029                       IF    NZ,BEGIN
 0014A6 9140 B474/47E0_00474       14040  1                      IF    (CPFRCVY),'CLEAR R15'
 0014B0 7134/47F0 713C_014B0 014AC 14064  1                      ELSE  'SETMSG "ATTN"'     ATTN
 0014BC                            14084                       END
                                   14088
 0014BC D503 5034 C630_00034 00630 14089                       IF    (UPATXCLK,LT,CVDSPCLK),BEGIN  Timeout...
 0014C6 48F0 754C            018CC 14107  1                      LH    R15,=H'-4'
 0014CA 4110 7605/4100_      01985 14108  1                      SETMSG 'TIMEOUT'
 0014D2                            14112                       END
                                   14116
 0014D2 18D8/9828 D004_            14117                       PEND
 DROP   JCB,R6
 DROP   UPATH,R5
 DROP   *,R7
1PATH     (PATH2193) (12:51) (15MAR04) Path Interface Routines -- Dispatcher Subroutines                                    Page   38
0Current Usings:  (CP,R11) (CV,R12)
0Loc    Object Code    Addr1 Addr2  Stmt Lv Lineno    Source Statement           (Hibal 5, Asmedit 3.3)  HLASM R4.0  2004/03/15 12.51
+___    ______ ____    _____ _____  ____ __ ______    ______ _________
0                                  14148              ¿þþþþþþþþþþþþþþþþþþþþþþþþþþþþþþþþþþþþþþþþþþþþþþþþþþþþþþþþþþþþþþþþþþþþþÜ
                                   14149              Ÿ                                                                     Ÿ
                                   14150              Ÿ        The following routines can be called in dispatcher or        Ÿ
                                   14151              Ÿ        user mode.  As a result, no CP addressability can be         Ÿ
                                   14152              Ÿ        assumed.                                                     Ÿ
                                   14153              Ÿ                                                                     Ÿ
                                                      ¾þþþþþþþþþþþþþþþþþþþþþþþþþþþþþþþþþþþþþþþþþþþþþþþþþþþþþþþþþþþþþþþþþþþþþ»
0DROP   CP,R11                     14154                       DROP  CP                  No CP addressibility
-
0                                  14163              ¿þþþþþþþþþþþþþþþþþþþþþþþþþþþþþþþþþþþþþþþþþþþþþþþþþþþþþþþþþþþþþþþþþþþþþÜ
                                   14164              Ÿ                                                                     Ÿ
                                   14165              Ÿ  PATHADDQ -- Routine to add a transaction to the end of the         Ÿ
                                   14166              Ÿ    pending send queue.                                              Ÿ
                                   14167              Ÿ                                                                     Ÿ
                                   14168              Ÿ    On entry:                                                        Ÿ
                                   14169              Ÿ      R15 - UPATH ptr                                                Ÿ
                                   14170              Ÿ      R1,R0 - transaction location, length                           Ÿ
                                   14171              Ÿ                                                                     Ÿ
                                   14172              Ÿ    On exit, R15 (and cc):                                           Ÿ
                                   14173              Ÿ      0 - ok                                                         Ÿ
                                   14174              Ÿ                                                                     Ÿ
                                                      ¾þþþþþþþþþþþþþþþþþþþþþþþþþþþþþþþþþþþþþþþþþþþþþþþþþþþþþþþþþþþþþþþþþþþþþ»
00014E0 50E0 D000/9008_      00000 14175              PATHADDQ PROC
 USING  *,R7
 0014FA 185F                       14214                       LR    R5,R15
 USING  UPATH,R5                   14215                       WITH  (UPATH,R5)
 0014FC D503 7336 5000_01830 00000 14228                       FAIL  (UPATH,NE,'PATH'),PATHSNDQ,'Path logic error.'
 00151E 1841                       14257                       LR    R4,R1
 001520 1830                       14258                       LR    R3,R0
                                   14259                       ¿þþþþþþþþþþþþþþþþþþþþþþþþþþþþþþþþþþþþþþþþÜ
                                   14260                       Ÿ  Allocate memory to save transaction.  Ÿ
                                   14261                       ¾þþþþþþþþþþþþþþþþþþþþþþþþþþþþþþþþþþþþþþþþ»
 001522 4100 3008            00008 14262                       LA    R0,@R3+8
 001526 58E0 73C2/0DEE       018BC 14263                       VCALL GETCORE             Get memory for pending xact
 00152C 1861                       14267                       LR    R6,R1
 00152E D703 6000 6000 00000 00000 14268                       CLEAR (@R6,4)             Zero forward queue ptr
 001534 5030 6004            00004 14275                       ST    R3,@R6+4            Save transaction length
 001538 41E0 6008/18F3_      00008 14276                       MOVEL @R6+8,(R4),(R3)     Save transaction
                                   14296                       ¿þþþþþþþþþþþþþþþþþþþþþþþþþþþþþþþþþþþþþþþþþþþþþþþþÜ
                                   14297                       Ÿ  Add the transaction to the end of the queue.  Ÿ
                                   14298                       ¾þþþþþþþþþþþþþþþþþþþþþþþþþþþþþþþþþþþþþþþþþþþþþþþþ»
 001544 D603 5010 5010_00010 00010 14299                       IF    (UPATWRQH,Z),BEGIN  Nothing in queue...
 00154E 5060 5010            00010 14315  1                      ST    R6,UPATWRQH         Save queue head
 001552 5060 5014            00014 14316  1                      ST    R6,UPATWRQT         Save queue tail
 001556                            14317                       END
                                   14321
 001556 7060/47F0 706C 01556 0154C 14322                       ELSE  BEGIN               Add to end of existing queue...
 00155A 58F0 5014            00014 14333  1                      L     R15,UPATWRQT        Last entry
 00155E 5060 F000            00000 14334  1                      ST    R6,@R15             Point last entry to us
1PATH     (PATH2193) (12:51) (15MAR04) Path Interface Routines -- Dispatcher Subroutines                                    Page   39
0Current Usings:  (UPATH,R5) (*,R7) (CV,R12)
0Loc    Object Code    Addr1 Addr2  Stmt Lv Lineno    Source Statement           (Hibal 5, Asmedit 3.3)  HLASM R4.0  2004/03/15 12.51
+___    ______ ____    _____ _____  ____ __ ______    ______ _________
0001562 5060 5014            00014 14335  1                      ST    R6,UPATWRQT         We are the new queue tail
 001566                            14336                       END
                                   14340
 001566 1BFF                       14341                       CLEAR R15                 A-ok
 001568 18D8/9808 D004_            14345                       PEND
 DROP   UPATH,R5
 DROP   *,R7
1PATH     (PATH2193) (12:51) (15MAR04) Path Interface Routines -- Dispatcher Subroutines                                    Page   40
0Current Usings:  (CV,R12)
0Loc    Object Code    Addr1 Addr2  Stmt Lv Lineno    Source Statement           (Hibal 5, Asmedit 3.3)  HLASM R4.0  2004/03/15 12.51
+___    ______ ____    _____ _____  ____ __ ______    ______ _________
0                                  14371              ¿þþþþþþþþþþþþþþþþþþþþþþþþþþþþþþþþþþþþþþþþþþþþþþþþþþþþþþþþþþþþþþþþþþþþþÜ
                                   14372              Ÿ                                                                     Ÿ
                                   14373              Ÿ  PATHDELQ -- Routine to delete the pending send queue               Ÿ
                                   14374              Ÿ    (presumably because of a path closure, etc.).                    Ÿ
                                   14375              Ÿ                                                                     Ÿ
                                   14376              Ÿ    On entry:                                                        Ÿ
                                   14377              Ÿ      R15 - UPATH ptr                                                Ÿ
                                   14378              Ÿ                                                                     Ÿ
                                   14379              Ÿ    On exit, R15 (and cc):                                           Ÿ
                                   14380              Ÿ      0 - ok                                                         Ÿ
                                   14381              Ÿ                                                                     Ÿ
                                                      ¾þþþþþþþþþþþþþþþþþþþþþþþþþþþþþþþþþþþþþþþþþþþþþþþþþþþþþþþþþþþþþþþþþþþþþ»
0001576 50E0 D000/9008_      00000 14382              PATHDELQ PROC
 USING  *,R7
 001590 185F                       14421                       LR    R5,R15
 USING  UPATH,R5                   14422                       WITH  (UPATH,R5)
 001592 D503 72A0 5000_01830 00000 14435                       FAIL  (UPATH,NE,'PATH'),PATHDELQ,'Path logic error.'
                                   14464                       ¿þþþþþþþþþþþþþþþþþþþþþþþþþþþþþþþþþþÜ
                                   14465                       Ÿ  Free all pending transactions.  Ÿ
                                   14466                       ¾þþþþþþþþþþþþþþþþþþþþþþþþþþþþþþþþþþ»
 0015B4 D603 5010 5010_00010 00010 14467                       WHILE (UPATWRQH,NZ),BEGIN  Free all pending transactions...
 0015BE 5840 5010            00010 14485  1                      L     R4,UPATWRQH         Get first entry
 0015C2 58F0 4000            00000 14486  1                      L     R15,@R4             Get next entry ptr
 0015C6 50F0 5010            00010 14487  1                      ST    R15,UPATWRQH        Set new queue head ptr
 0015CA 12FF/4770 7044_            14488  1                      IF    (R15,Z),'ST R15,UPATWRQT'  If nothing left, zero tail
                                   14508  1
 0015D4 4110 4000            00000 14509  1                      LA    R1,@R4              Buffer ptr
 0015D8 D203 1000 7318 00000 018A8 14510  1                      MVC   @R1(4),=F'-1'       (Neatness)
 0015DE 58E0 72F4/0DEE       01884 14511  1                      VCALL FREECORE
 0015E4 47F0 7024            015B4 14515                       END
                                   14520
 0015E8 1BFF                       14521                       CLEAR R15                 A-ok
 0015EA 18D8/9808 D004_            14525                       PEND
 DROP   UPATH,R5
 DROP   *,R7
1PATH     (PATH2193) (12:51) (15MAR04) Path Interface Routines -- Dispatcher Subroutines                                    Page   41
0Current Usings:  (CV,R12)
0Loc    Object Code    Addr1 Addr2  Stmt Lv Lineno    Source Statement           (Hibal 5, Asmedit 3.3)  HLASM R4.0  2004/03/15 12.51
+___    ______ ____    _____ _____  ____ __ ______    ______ _________
0                                  14551              ¿þþþþþþþþþþþþþþþþþþþþþþþþþþþþþþþþþþþþþþþþþþþþþþþþþþþþþþþþþþþþþþþþþþþþþÜ
                                   14552              Ÿ                                                                     Ÿ
                                   14553              Ÿ  PATHSNDQ -- Routine to send the queue of pending transactions      Ÿ
                                   14554              Ÿ    to the partner.  Presumably these transactions were added        Ÿ
                                   14555              Ÿ    to the queue because of a Suzan full queue condition.            Ÿ
                                   14556              Ÿ                                                                     Ÿ
                                   14557              Ÿ    On entry:                                                        Ÿ
                                   14558              Ÿ      R15 - UPATH ptr                                                Ÿ
                                   14559              Ÿ                                                                     Ÿ
                                   14560              Ÿ    On exit, R15 (and cc):                                           Ÿ
                                   14561              Ÿ      0 - no pending transactions                                    Ÿ
                                   14562              Ÿ      4 - couldn't send everything (full queue)                      Ÿ
                                   14563              Ÿ                                                                     Ÿ
                                                      ¾þþþþþþþþþþþþþþþþþþþþþþþþþþþþþþþþþþþþþþþþþþþþþþþþþþþþþþþþþþþþþþþþþþþþþ»
0000000                00000 00008 14564              PSNDWA   RECORD BEGIN
 000000                            14572  1           PSNDADDR   DS    A                   SCOM parm: address
 000004                            14573  1           PSNDLEN    DS    F                   SCOM parm: length
 000008                00008 00008 14574                       END
                                   14583              þþþþ
 0015F8 50E0 D000/9008_      00000 14584              PATHSNDQ PROC  PSNDWA
 USING  *,R7
 USING  PSNDWA-(4+36),R8
 001612 185F                       14634                       LR    R5,R15
 USING  UPATH,R5                   14635                       WITH  (UPATH,R5)
 001614 D503 721E 5000_01830 00000 14648                       FAIL  (UPATH,NE,'PATH'),PATHSNDQ,'Path logic error.'
                                   14677                       ¿þþþþþþþþþþþþþþþþþþþþþþþþþþþþþþþþþþþþþþþþþþþþþþÜ
                                   14678                       Ÿ  Reset Suzan "full queue emptied" post bit.  Ÿ
                                   14679                       ¾þþþþþþþþþþþþþþþþþþþþþþþþþþþþþþþþþþþþþþþþþþþþþþ»
 001996 BF/41F0 0001/1_0198C 01A80 14680                       CLEAR UPATSFLG.UPATFFQE,MODE=LOCKED,REF=UPATH  Reset FQE
                                   14726                       ¿þþþþþþþþþþþþþþþþþþþþþþþþþþþþþþþþþþÜ
                                   14727                       Ÿ  Send all pending transactions.  Ÿ
                                   14728                       ¾þþþþþþþþþþþþþþþþþþþþþþþþþþþþþþþþþþ»
 001654 D603 5010 5010_00010 00010 14729                       WHILE (UPATWRQH,NZ),BEGIN  Send all pending transactions...
 00165E 5840 5010            00010 14747  1                      L     R4,UPATWRQH         Get first entry
                                   14748  1
 001662 4110 4008            00008 14749  1                      LA    R1,@R4+8            Transaction location
 001666 5800 4004            00004 14750  1                      L     R0,@R4+4            Transaction length
 00166A 5010 8028            00000 14751  1                      ST    R1,PSNDADDR         Save ptr
 00166E 5000 802C            00004 14752  1                      ST    R0,PSNDLEN          Save length
 001672 9680 8028      00000       14753  1                      SET   PSNDADDR.X'80'      Set VL bit
 001676 41F0 0008/5800_      00008 14760  1                      SCOM  SEND,PSNDADDR,L:UPATMGC  Send it
 001684 12FF/4770 70A0             14781  1                      IF    (R15,NZ),PSNDEXIT   Couldn't send, scram
                                   14798  1
 00168A 58F0 4000            00000 14799  1                      L     R15,@R4             Get next entry ptr
 00168E 50F0 5010            00010 14800  1                      ST    R15,UPATWRQH        Set new queue head ptr
 001692 12FF/4770 708A_            14801  1                      IF    (R15,Z),'ST R15,UPATWRQT'  If nothing left, zero tail
                                   14821  1
 00169C 4110 4000            00000 14822  1                      LA    R1,@R4              Buffer ptr
 0016A0 D203 1000 7296 00000 018A8 14823  1                      MVC   @R1(4),=F'-1'       (Neatness)
 0016A6 58E0 7272/0DEE       01884 14824  1                      VCALL FREECORE
 0016AC 47F0 7042            01654 14828                       END
                                   14833
 0016B0 1BFF                       14834                       CLEAR R15                 A-ok
1PATH     (PATH2193) (12:51) (15MAR04) Path Interface Routines -- Dispatcher Subroutines                                    Page   42
0Current Usings:  (CV,R12)
0Loc    Object Code    Addr1 Addr2  Stmt Lv Lineno    Source Statement           (Hibal 5, Asmedit 3.3)  HLASM R4.0  2004/03/15 12.51
+___    ______ ____    _____ _____  ____ __ ______    ______ _________
00016B2 18D8/9808 D004_            14838              PSNDEXIT PEND
 DROP   UPATH,R5
 DROP   PSNDWA-(4+36),R8
 DROP   *,R7
1PATH     (PATH2193) (12:51) (15MAR04) Path Interface Post Routine                                                          Page   43
0Current Usings:  (CV,R12)
0Loc    Object Code    Addr1 Addr2  Stmt Lv Lineno    Source Statement           (Hibal 5, Asmedit 3.3)  HLASM R4.0  2004/03/15 12.51
+___    ______ ____    _____ _____  ____ __ ______    ______ _________
0                                  14870              ¿þþþþþþþþþþþþþþþþþþþþþþþþþþþþþþþþþþþþþþþþþþþþþþþþþþþþþþþþþþþþþþþþþþþþþÜ
                                   14871              Ÿ                                                                     Ÿ
                                   14872              Ÿ  PATHPOST -- Routine to post any users waiting for ready user       Ÿ
                                   14873              Ÿ    paths.  Efficiency is a concern here, since this is called       Ÿ
                                   14874              Ÿ    every time the dispatcher is posted.                             Ÿ
                                   14875              Ÿ                                                                     Ÿ
                                   14876              Ÿ    This routine is called by the dispatcher.                        Ÿ
                                   14877              Ÿ                                                                     Ÿ
                                                      ¾þþþþþþþþþþþþþþþþþþþþþþþþþþþþþþþþþþþþþþþþþþþþþþþþþþþþþþþþþþþþþþþþþþþþþ»
00016C0 50E0 D000/9008_      00000 14878              PATHPOST XPROC
 USING  *,R7
 0016DA 4150 C0A0            000A0 14918                       LA    R5,CVPATHQH-(UPATLINK-UPATH)  Dummy queue head
 0016DE                            14919                       LOOP  BEGIN
 USING  UPATH,R5                   14925  1                      WITH  (UPATH,R5)
 0016DE 1845                       14938  1                      LR    R4,R5               Save prev ptr
 0016E0 5850 500C/1255       0000C 14939  1                      LT    R5,UPATLINK         Next queue entry
 0016E6 4780 711A            017F4 14943  1                      IF    Z,EXIT              All done, scram
 0016EA D503 7156 5000_01830 00000 14957  1                      FAIL  (UPATH,NE,'PATH'),PPOST  (Better safe than sloppy)
                                   14985  1                      ¿þþþþþþþþþþþþþþþþþþþþþþþþþþþþþþþþþþþþþþþþþþþþþþþþþþþþþþþþþþþÜ
                                   14986  1                      Ÿ  Dispatch the user if bits are on in the Suzan post       Ÿ
                                   14987  1                      Ÿ    flag.  Dispatch the user if his maximum wait time has  Ÿ
                                   14988  1                      Ÿ    been exceeded.                                         Ÿ
                                   14989  1                      ¾þþþþþþþþþþþþþþþþþþþþþþþþþþþþþþþþþþþþþþþþþþþþþþþþþþþþþþþþþþþ»
 001708 D503 5034 C630_00034 00630 14990  1                      IF    (UPATXCLK,LT,CVDSPCLK),PPOST  Timed out
                                   15011  1
 001712 1F22/4320 50AD             15012  1                      LC    R2,UPATPMSK         Post bits we are interested in
 001718 4420 72C2/9100_      0199C 15019  1                      EX    R2,'TM UPATSFLG,*-*'  Are we posted?
 00171C 4780 7116            017F0 15035  1                      IF    NZ,BEGIN            Yes...
 001720 41F0 5000            00000 15046  2                        LA    R15,UPATH
 001724 58E0 715E/0DEE       01838 15047  2                        ACALL PATHRDCK            Make sure we really have new info
                                   15051  2
 00172A 4420 72C6/9100_      019A0 15052  2                        EX    R2,'TM UPATSFLG,*-*'  Are we still posted?
 00172E 4780 7116            017F0 15068  2                        IF    NZ,BEGIN            Fine, then post the user...
 001732 5860 5008            00008 15079  3           PPOST          L     R6,UPATJCBP         His JCB ptr
 USING  JCB,R6                     15080  3                          WITH  (JCB,R6)
 001736 94BF 6061      00061       15093  3                          CLEAR JCBWWFPT            No longer waiting for path
 00173A 48F0 6060/12FF_      00060 15100  3                          IF    (('LTH R15,JCBWFL',Z),AND,~JCBAPDSP),BEGIN
 00174C 18F6/9610 F062_            15130  4                            SETUP JCB
 001762                            15158  3                          END
                                   15162  3
 001762 708C/708C/47F0_01762 01742 15163  3                          ELSEIF JCBFTINT,BEGIN     Interruptible terminal I/O...
 00176E 9110 5018/47E0_00018       15189  4                            IF    UPATFINT,BEGIN      Path post can interrupt...
 001776 4800 6048            00048 15204  5                              LH    R0,JCBSEQ           User number
 00177A 58E0 71EA/0DEE       018C4 15205  5                              VCALL TBREAK              Halt his terminal I/O
 001780                            15209  4                            END
 001780                            15213  3                          END
                                   15217  3
 001780 70AA/47F0 7106_01780 0176C 15218  3                          ELSEIF JCBFWINT,BEGIN     Interruptible wait...
 00178C 9110 5018/47E0_00018       15242  4                            IF    UPATFINT,BEGIN      Path post can interrupt...
 001794 58F0 600C/12FF_      0000C 15257  5                              IF    ('LT R15,JCBTIMID',Z),EXIT  No timer, scram
 00179E 58E0 71EE/0DEE       018C8 15276  5                              VCALL TIMERDQ             Purge timer
 0017A4 4770 7106            017E0 15280  5                              IF    NZ,EXIT             Timer already fired, scram
 0017A8 D703 600C 600C 0000C 0000C 15294  5                              CLEAR JCBTIMID            Reset timer id
1PATH     (PATH2193) (12:51) (15MAR04) Path Interface Post Routine                                                          Page   44
0Current Usings:  (UPATH,R5) (JCB,R6) (*,R7) (CV,R12)
0Loc    Object Code    Addr1 Addr2  Stmt Lv Lineno    Source Statement           (Hibal 5, Asmedit 3.3)  HLASM R4.0  2004/03/15 12.51
+___    ______ ____    _____ _____  ____ __ ______    ______ _________
00017AE D203 6010 71CE 00010 018A8 15301  5                              MVC   JCBTIMQL,=F'-1'     Reser timer queue link ptr
 0017B4 94FD 6060      00060       15302  5                              CLEAR JCBWFTM             No longer waiting for timer
                                   15309  5
 0017B8 48F0 6060/12FF_      00060 15310  5                              IF    (('LTH R15,JCBWFL',Z),AND,~JCBAPDSP),'SETUP JCB'
 0017E0                            15373  4                            END
 0017E0                            15377  3                          END
                                   15381  3
 0017E0 58F0 500C            0000C 15382  3                          L     R15,UPATLINK        Next in queue
 0017E4 D703 500C 500C 0000C 0000C 15383  3                          CLEAR UPATLINK            (Neatness)
 0017EA 1854                       15390  3                          LR    R5,R4               Back up
 0017EC 50F0 500C            0000C 15391  3                          ST    R15,UPATLINK        This takes us out of the queue
 DROP   JCB,R6                     15392  2                        END
 0017F0                            15401  1                      END
 0017F0 47F0 7004            016DE 15405                       END
 DROP   UPATH,R5
                                   15415
 0017F4 18D8/9808 D004_            15416                       PEND
 DROP   *,R7
                                   15436
                                   15437                       QLTORG
                                   15502
                                   15503                       VLTORG
 001A80                01A80 01A80 15523                       END   .

1PATH     (PATH2193) (12:51) (15MAR04) Relocation Dictionary                                                                Page   45
-   Pos.Id   Rel.Id   Flags    Address                                                       HLASM R4.0  2004/03/15 12.51
0  00000001 00000001    0C    000000AC
   00000001 00000001    0C    0000026C
   00000001 00000001    0C    00000470
   00000001 00000001    0C    0000047C
   00000001 00000001    08    000006DF
   00000001 00000001    08    000006FF
   00000001 00000001    08    00000721
   00000001 00000001    08    00000777
   00000001 00000001    08    00000797
   00000001 00000001    08    000007B9
   00000001 00000001    0C    000007DC
   00000001 00000001    0C    000007E8
   00000001 00000001    08    00000887
   00000001 00000001    08    00000925
   00000001 00000001    08    00000A8D
   00000001 00000001    08    00000B03
   00000001 00000001    08    00000BF7
   00000001 00000001    0C    00000CAC
   00000001 00000001    0C    00000CB0
   00000001 00000001    0C    00000CB8
   00000001 00000001    0C    00000CBC
   00000001 00000001    08    00000D2F
   00000001 00000001    08    00000E49
   00000001 00000001    08    00001011
   00000001 00000001    08    0000109F
   00000001 00000001    08    000010DD
   00000001 00000001    08    00001287
   00000001 00000001    08    000012A9
   00000001 00000001    08    000013A5
   00000001 00000001    08    000013C7
   00000001 00000001    08    000013E7
   00000001 00000001    08    0000151B
   00000001 00000001    08    000015B1
   00000001 00000001    08    00001633
   00000001 00000001    0C    00001834
   00000001 00000001    0C    00001838
   00000001 00000001    0C    0000183C
   00000001 00000001    0C    00001840
   00000001 00000001    0C    00001844
   00000001 00000001    0C    00001854
   00000001 00000001    0C    00001870
   00000001 00000001    0C    00001874
   00000001 00000001    0C    000018A4
   00000001 00000002    1C    00000268
   00000001 00000003    1C    00000294
   00000001 00000004    1C    000002B8
   00000001 00000005    1C    000002BC
   00000001 00000005    1C    00000498
   00000001 00000006    1C    00000474
   00000001 00000007    1C    00000478
   00000001 00000008    1C    00000480
   00000001 00000008    1C    00001848
   00000001 00000009    1C    00000484
   00000001 00000009    1C    0000184C
   00000001 0000000A    1C    00000488
1PATH     (PATH2193) (12:51) (15MAR04) Relocation Dictionary                                                                Page   46
   00000001 0000000B    1C    0000048C
   00000001 0000000C    1C    00000490
   00000001 0000000D    1C    000007E4
   00000001 0000000D    1C    000018BC
   00000001 0000000E    1C    000007F0
   00000001 0000000F    1C    00001850
   00000001 00000010    1C    00001878
   00000001 00000011    1C    00001884
   00000001 00000012    1C    000018AC
   00000001 00000013    1C    000018B0
   00000001 00000014    1C    000018B4
   00000001 00000015    1C    000018C0
   00000001 00000016    1C    000018C4
   00000001 00000017    1C    000018C8

1PATH     (PATH2193) (12:51) (15MAR04) Ordinary Symbol and Literal Cross Reference                                          Page   47
-Symbol   Length   Value     Id    R Type   Defn References                                  HLASM R4.0  2004/03/15 12.51
0$$$@R0        1 00000000 FFFFFFFE     J     705  1005
 $$$@R10       1 00000000 FFFFFFF4     J     835  1069
 $$$@R11       1 00000000 FFFFFFF3     J     848  1082
 $$$@R12       1 00000000 FFFFFFF2     J     861  1095
 $$$@R13       1 00000000 FFFFFFF1     J     874  1108
 $$$@R14       1 00000000 FFFFFFF0     J     887  1121
 $$$@R7        1 00000000 FFFFFFF7     J     796  1018
 $$$@R8        1 00000000 FFFFFFF6     J     809  1031   1043
 $$$@R9        1 00000000 FFFFFFF5     J     822  1056
 $$$C1WYLPATH
               1 0000051C 00000001     J    8530  8532
 $$$C2WYLPATH
               1 00000819 00000001     J    9495  9497
 $$$C3WYLPATH
               1 000008D7 00000001     J    9733  9735   9770  10385  10404  10486  11016  11035
 $$$C4WYLPATH
               1 00000CF4 00000001     J   11184 11186  11601  11815  11834  13844  14581  14699  14718  15033  15066
 $$$C5WYLPATH
               1 000019A4 00000001     J   15497 15499
 $$$C6WYLPATH
               1 00001A80 00000001     J   15526 15528
 $$$D3WYLPATH
               1 00000CE9 00000001     J    9734 10375  10393  11006  11024
 $$$D4WYLPATH
               1 0000198C 00000001     J   11185 11805  11823  13833  14689  14707  15022  15055
 $$$RCP        1 00000000 FFFFFFEC     J    2452  4712   6186   6186
 $$$RCV        1 00000000 FFFFFFEE     J    1177  2362   2362
 $$$RDEV       1 00000000 FFFFFFEB     J    4666  4711   4711
 $$$RJCB       1 00000000 FFFFFFE9     J    6304  6578   6578
 $$$RKWR       1 00000000 FFFFFFE8     J    6584  6788   6788
 $$$RNSCNCB
               1 00000000 FFFFFFED     J    2373  2446   2446
 $$$RPINFO
               1 00000000 FFFFFFE4     J    7149  7183   7183
 $$$RPIWA      1 00000000 FFFFFFE2     J   10462 10485  10485
 $$$RPOPNWA
               1 00000000 FFFFFFE3     J    9753  9769   9769
 $$$RPSNDWA
               1 00000000 FFFFFFE0     J   14566 14580  14580
 $$$RPWRWA
               1 00000000 FFFFFFE1     J   11586 11600  11600
 $$$RSEGCB
               1 00000000 FFFFFFE6     J    6871  6971   6971
 $$$RSIN       1 00000000 FFFFFFE7     J    6794  6865   6865
 $$$RTTYPE
               1 00000000 FFFFFFEA     J    6197  6298   6298
 $$$RUPATH
               1 00000000 FFFFFFE5     J    6984  7127   7127
 $$$SEGCB0
               4 00000050 FFFFFFEC     F    2483  2569   2569
 $$$V01       20 000019A4 00000001     C   15509  9196   9379
 $$$V010      14 00001A4B 00000001     C   15518 12629
 $$$V011      18 00001A59 00000001     C   15519 13249  13277
 $$$V012      16 00001A6B 00000001     C   15520 13705  13733  13762
 $$$V02       21 000019B8 00000001     C   15510  9223   9406
1PATH     (PATH2193) (12:51) (15MAR04) Ordinary Symbol and Literal Cross Reference                                          Page   48
 $$$V03       27 000019CD 00000001     C   15511  9251   9434
 $$$V04       18 000019E8 00000001     C   15512  9653
 $$$V05       19 000019FA 00000001     C   15513  9890
 $$$V06       15 00001A0D 00000001     C   15514 10342
 $$$V07       15 00001A1C 00000001     C   15515 10578
 $$$V08       15 00001A2B 00000001     C   15516 10903
 $$$V09       17 00001A3A 00000001     C   15517 11280  11693  12331  12567  14252  14459  14672
 $$$100B       1 00000756 00000001     X    9325  9332U
 $$$101F       2 0000077A 00000001     H    9383  9368B
 $$$102F       2 0000079A 00000001     H    9410  9395B
 $$$103F       2 000007BC 00000001     H    9438  9423B
 $$$104        1 00000050 00000001 A   U    9474  9471   9473
 $$$105F       2 000008A6 00000001     H    9709  9596B  9683B
 $$$106B       1 00000834 00000001     X    9540  9547U
 $$$107F       2 00000852 00000001     H    9600  9584B
 $$$107T       2 00000842 00000001     H    9587  9572B
 $$$109F       2 0000088A 00000001     H    9657  9642B
 $$$110F       2 000008A4 00000001     H    9687  9671B
 $$$111        1 00000040 00000001 A   U    9718  9715   9717
 $$$113B       1 000008F2 00000001     X    9799  9806U
 $$$114F       2 00000904 00000001     H    9850  9840B
 $$$115F       2 00000928 00000001     H    9894  9879B
 $$$116F       2 000009B8 00000001     H   10058  9909B
 $$$117F       2 00000974 00000001     H    9968  9953B
 $$$119F       2 000009AA 00000001     H   10036 10026B
 $$$121F       2 000009E2 00000001     H   10115 10101B
 $$$122F       2 00000A0C 00000001     H   10168 10153B
 $$$123F       2 00000A40 00000001     H   10222 10196B 10209B
 $$$125        1 000000DC 00000001 A   U   10253 10250  10252
 $$$127B       1 00000A6C 00000001     X   10288 10295U
 $$$128F       2 00000A90 00000001     H   10346 10331B
 $$$129F       2 00000ABA 00000001     H   10422 10361B
 $$$132        4 00000CEA 00000001     I   10399 10391X
 $$$133        4 00000CEA 00000001     I   10398 10399  10399
 $$$134        1 00000050 00000001 A   U   10446 10443  10445
 $$$135F       2 00000BAE 00000001     H   10800 10629B 10649B
 $$$136B       1 00000AE2 00000001     X   10515 10522U
 $$$137F       2 00000B06 00000001     H   10582 10567B
 $$$141B       4 00000B44 00000001     I   10686 10705
 $$$141F       2 00000B66 00000001     H   10699 10686B 10704
 $$$142E       2 00000B6A 00000001     H   10712 10706
 $$$142F       2 00000BAC 00000001     H   10771 10708B
 $$$143        1 0000013C 00000001 A   U   10809 10806  10808
 $$$144F       2 00000C92 00000001     H   11149 11082B
 $$$145B       1 00000BD6 00000001     X   10849 10856U
 $$$146F       2 00000BFA 00000001     H   10907 10892B
 $$$147F       2 00000C16 00000001     H   10955 10922B 10940B
 $$$151F       2 00000C88 00000001     H   11126 10992B
 $$$154        4 00000CF0 00000001     I   11030 11022X
 $$$155        4 00000CF0 00000001     I   11029 11030  11030
 $$$156F       2 00000C62 00000001     H   11086 11071B
 $$$159        1 00000040 00000001 A   U   11158 11155  11157
 $$$161B       1 00000D0E 00000001     X   11226 11233U
 $$$162F       2 00000D32 00000001     H   11284 11269B
 $$$163F       2 00000D44 00000001     H   11313 11299B
 $$$165F       2 00000D5C 00000001     H   11343 11329B
 $$$166F       2 00000DA0 00000001     H   11421 11358B
 $$$167F       2 00000D7E 00000001     H   11388 11374B
 $$$169F       2 00000DA0 00000001     H   11417 11400B
1PATH     (PATH2193) (12:51) (15MAR04) Ordinary Symbol and Literal Cross Reference                                          Page   49
 $$$170F       2 00000DBE 00000001     H   11449 11434B
 $$$171F       2 00000DFE 00000001     H   11538 11475B
 $$$172F       2 00000DE8 00000001     H   11508 11495B
 $$$173F       2 00000DF0 00000001     H   11529 11519B
 $$$174        1 00000040 00000001 A   U   11567 11564  11566
 $$$176B       1 00000E28 00000001     X   11630 11637U
 $$$177F       2 00000E4C 00000001     H   11697 11682B
 $$$178F       2 00000E5E 00000001     H   11726 11712B
 $$$180F       2 00000E86 00000001     H   11779 11741B
 $$$181F       2 00000E86 00000001     H   11775 11757B
 $$$184        4 0000198E 00000001     I   11829 11821X
 $$$185        4 0000198E 00000001     I   11828 11829  11829
 $$$186F       2 00000F80 00000001     H   12110 11872B
 $$$187F       2 00000F80 00000001     H   12106 11960B 11977B
 $$$189F       2 00000F5C 00000001     H   12068 11998B
 $$$190F       2 00000F80 00000001     H   12102 12093B
 $$$191F       2 00000FC4 00000001     H   12196 12122B
 $$$192        1 00000058 00000001 A   U   12225 12222  12224
 $$$194B       1 00000FEC 00000001     X   12261 12268U
 $$$195F       2 00001014 00000001     H   12335 12320B
 $$$196F       2 0000103A 00000001     H   12396 12363B 12377B
 $$$196T       2 00001024 00000001     H   12366 12353B
 $$$199F       2 00001056 00000001     H   12446 12410B
 $$$200F       2 00001052 00000001     H   12440 12430B
 $$$201        1 00000050 00000001 A   U   12475 12472  12474
 $$$203B       1 0000107E 00000001     X   12513 12520U
 $$$204F       2 000010A2 00000001     H   12571 12556B
 $$$205F       2 000010E0 00000001     H   12633 12618B
 $$$205T       2 000010C8 00000001     H   12621 12606B
 $$$208F       2 00001102 00000001     H   12669 12656B
 $$$209F       2 00001120 00000001     H   12699 12685B
 $$$210F       2 0000114A 00000001     H   12745 12731B
 $$$211        1 00000050 00000001 A   U   12783 12780  12782
 $$$213B       1 00001184 00000001     X   12821 12828U
 $$$214F       2 0000119A 00000001     H   12863 12850B
 $$$215F       2 000011AA 00000001     H   12888 12875B
 $$$216F       2 000011BA 00000001     H   12913 12900B
 $$$217F       2 000011CA 00000001     H   12938 12925B
 $$$218F       2 000011DA 00000001     H   12963 12950B
 $$$219F       2 000011EA 00000001     H   12988 12975B
 $$$220F       2 000011FA 00000001     H   13013 13000B
 $$$221F       2 0000120A 00000001     H   13038 13025B
 $$$222F       2 0000121A 00000001     H   13063 13050B
 $$$223        1 00000040 00000001 A   U   13081 13078  13080
 $$$225B       1 00001242 00000001     X   13124 13131U
 $$$226F       2 000012FC 00000001     H   13389 13173B
 $$$226S       2 0000124E 00000001     H   13164 13388B
 $$$228F       2 000012F0 00000001     H   13381 13189B
 $$$229F       2 000012F0 00000001     H   13372 13219B 13295B
 $$$230F       2 0000128A 00000001     H   13253 13238B
 $$$231F       2 000012AC 00000001     H   13281 13266B
 $$$233F       2 000012C6 00000001     H   13328 13315B
 $$$235F       2 000012DC 00000001     H   13361 13347B
 $$$239        1 00000050 00000001 A   U   13418 13415  13417
 $$$241B       1 00001326 00000001     X   13452 13459U
 $$$242F       2 00001356 00000001     H   13565 13518B
 $$$242S       2 0000132E 00000001     H   13490 13564B
 $$$244F       2 00001352 00000001     H   13555 13537B
 $$$245        1 00000050 00000001 A   U   13593 13590  13592
1PATH     (PATH2193) (12:51) (15MAR04) Ordinary Symbol and Literal Cross Reference                                          Page   50
 $$$247B       1 00001380 00000001     X   13636 13643U
 $$$248F       2 000013A8 00000001     H   13709 13694B
 $$$249F       2 000013CA 00000001     H   13737 13722B
 $$$250F       2 000013EA 00000001     H   13766 13751B
 $$$251F       2 000013FE 00000001     H   13792 13782B
 $$$252F       2 00001414 00000001     H   13821 13808B
 $$$254        4 00001992 00000001     I   13839 13831X
 $$$255        4 00001992 00000001     I   13838 13839  13839
 $$$256F       2 0000142C 00000001     H   13865 13852B
 $$$257F       2 00001494 00000001     H   14013 13930B
 $$$257S       2 0000144C 00000001     H   13894 14012B
 $$$259F       2 00001476 00000001     H   13963 13949B
 $$$260F       2 00001490 00000001     H   13994 13975B
 $$$261F       2 000014BC 00000001     H   14087 14035B
 $$$262B       4 000014AA 00000001     I   14050 14066
 $$$262F       2 000014B0 00000001     H   14063 14050B 14065
 $$$263E       2 000014B4 00000001     H   14073 14067
 $$$263F       2 000014BC 00000001     H   14083 14069B
 $$$264F       2 000014D2 00000001     H   14115 14102B
 $$$265        1 00000040 00000001 A   U   14144 14141  14143
 $$$267B       1 000014FA 00000001     X   14198 14205U
 $$$268F       2 0000151E 00000001     H   14256 14241B
 $$$270B       4 0000154A 00000001     I   14310 14324
 $$$270F       2 00001556 00000001     H   14320 14310B 14323
 $$$271E       2 0000155A 00000001     H   14331 14325
 $$$271F       2 00001566 00000001     H   14339 14327B
 $$$272        1 00000050 00000001 A   U   14367 14364  14366
 $$$274B       1 00001590 00000001     X   14405 14412U
 $$$275F       2 000015B4 00000001     H   14463 14448B
 $$$276F       2 000015E8 00000001     H   14519 14480B
 $$$276S       2 000015B4 00000001     H   14472 14518B
 $$$278F       2 000015D4 00000001     H   14507 14497B
 $$$279        1 00000050 00000001 A   U   14547 14544  14546
 $$$281B       1 00001612 00000001     X   14609 14616U
 $$$282F       2 00001636 00000001     H   14676 14661B
 $$$284        4 00001998 00000001     I   14713 14705X
 $$$285        4 00001998 00000001     I   14712 14713  14713
 $$$286F       2 000016B0 00000001     H   14832 14742B
 $$$286S       2 00001654 00000001     H   14734 14831B
 $$$290F       2 0000169C 00000001     H   14820 14810B
 $$$291        1 00000058 00000001 A   U   14866 14863  14865
 $$$293B       1 000016DA 00000001     X   14902 14909U
 $$$294F       2 000017F4 00000001     H   15414 14951B
 $$$294S       2 000016DE 00000001     H   14923 15413B
 $$$296F       2 00001708 00000001     H   14984 14970B
 $$$298        4 0000199C 00000001     I   15028 15020X
 $$$299        4 0000199C 00000001     I   15027 15028  15028
 $$$300F       2 000017F0 00000001     H   15404 15041B
 $$$301        4 000019A0 00000001     I   15061 15053X
 $$$302        4 000019A0 00000001     I   15060 15061  15061
 $$$303F       2 000017F0 00000001     H   15400 15074B
 $$$304B       4 00001748 00000001     I   15125 15168
 $$$304F       2 00001762 00000001     H   15161 15113B 15125B 15165
 $$$305B       4 00001740 00000001     I   15113 15166
 $$$306B       4 0000176A 00000001     I   15184 15221
 $$$306E       2 00001766 00000001     H   15175 15167  15169
 $$$306F       2 00001780 00000001     H   15216 15171B 15184B 15220
 $$$308F       2 00001780 00000001     H   15212 15199B
 $$$309E       2 00001784 00000001     H   15228 15222
1PATH     (PATH2193) (12:51) (15MAR04) Ordinary Symbol and Literal Cross Reference                                          Page   51
 $$$309F       2 000017E0 00000001     H   15380 15224B 15237B
 $$$311F       2 000017E0 00000001     H   15376 15252B 15270B 15288B
 $$$314F       2 000017E0 00000001     H   15372 15323B 15335B
 $$$316        1 00000050 00000001 A   U   15433 15430  15432
 $$$51B        1 000000E2 00000001     X    7349  7356U
 $$$52F        2 00000192 00000001     H    7519  7418B
 $$$53B        4 00000154 00000001     I    7438  7454
 $$$53F        2 0000015E 00000001     H    7451  7438B  7453
 $$$54E        2 00000162 00000001     H    7461  7455
 $$$54F        2 0000018E 00000001     H    7513  7457B
 $$$55F        2 00000236 00000001     H    7767  7730B
 $$$55S        2 00000212 00000001     H    7721  7766B
 $$$57F        2 0000022A 00000001     H    7759  7746B
 $$$58         1 00000050 00000001 A   U    7787  7784   7786
 $$$60B        1 000002DA 00000001     X    7862  7869U
 $$$61F        2 000002EE 00000001     H    7916  7903B
 $$$61T        2 000002E8 00000001     H    7906  7891B
 $$$63         1 00000050 00000001 A   U    7941  7938   7940
 $$$65B        1 0000031E 00000001     X    7977  7984U
 $$$66F        2 0000035E 00000001     H    8088  8061B
 $$$67F        2 000003E4 00000001     H    8275  8118B
 $$$68F        2 00000404 00000001     H    8325  8297B  8311B
 $$$68S        2 000003EA 00000001     H    8289  8324B
 $$$71F        2 00000456 00000001     H    8442  8336B
 $$$72F        2 00000444 00000001     H    8420  8393B
 $$$73         1 00000050 00000001 A   U    8492  8489   8491
 $$$75B        1 00000536 00000001     X    8565  8572U
 $$$76F        2 00000570 00000001     H    8675  8597B
 $$$76S        2 0000053E 00000001     H    8588  8674B
 $$$78F        2 00000564 00000001     H    8667  8613B  8647B
 $$$80         1 00000050 00000001 A   U    8706  8703   8705
 $$$81F        2 00000696 00000001     H    9095  8811B  9065B
 $$$82B        1 000005A0 00000001     X    8749  8756U
 $$$83F        2 000005C0 00000001     H    8815  8778B  8798B
 $$$85F        2 0000068A 00000001     H    9077  8835B
 $$$85S        2 000005C8 00000001     H    8826  9076B
 $$$87F        2 0000067E 00000001     H    9069  8848B
 $$$88B        4 000005FE 00000001     I    8918  8946
 $$$88F        2 00000612 00000001     H    8940  8918B  8945
 $$$89E        2 00000616 00000001     H    8953  8947
 $$$89F        2 0000064E 00000001     H    9014  8949B
 $$$90F        2 0000064E 00000001     H    9010  8979B
 $$$91F        2 00000674 00000001     H    9055  9040B
 $$$92         1 00000040 00000001 A   U    9104  9101   9103
 $$$94B        1 000006BE 00000001     X    9142  9149U
 $$$95F        2 000006E2 00000001     H    9200  9185B
 $$$96F        2 00000702 00000001     H    9227  9212B
 $$$97F        2 00000724 00000001     H    9255  9240B
 $$$98         1 00000050 00000001 A   U    9286  9283   9285
 $NLL3045      2 00000AAA 00000001     I   10407 10411B
 $NLL3417      2 00000C3A 00000001     I   11038 11042B
 $NLL3845      2 00000EA4 00000001     I   11837 11841B
 $NLL5555      2 00001648 00000001     I   14721 14725B
 $NLM3045      1 00000CE9 00000001     R   10380 10398
 $NLM3417      1 00000CEE 00000001     R   11011 11029
 $NLM3845      1 0000198C 00000001     R   11810 11828
 $NLM5555      1 00001996 00000001     R   14694 14712
 $OLL3477      2 00000C7C 00000001     I   11118 11122B
 @RAR          0 00000000 FFFFFFF0     @    1122  2160   2168B
1PATH     (PATH2193) (12:51) (15MAR04) Ordinary Symbol and Literal Cross Reference                                          Page   52
 @R0           0 00000000 FFFFFFFE     @     706   982U
 @R1           0 00000000 FFFFFFFD     @     719   978U  2166   2167   9694U  9846   9998U 10043U 10208  12054  14510M
                                                 14823M
 @R10          0 00000000 FFFFFFF4     @     836   942U
 @R11          0 00000000 FFFFFFF3     @     849   938U 14160U
 @R12          0 00000000 FFFFFFF2     @     862   934U
 @R13          0 00000000 FFFFFFF1     @     875   930U
 @R14          0 00000000 FFFFFFF0     @     888   926U
 @R15          0 00000000 FFFFFFEF     @     901   922U  8966U  8984  14334M
 @R2           0 00000000 FFFFFFFC     @     732   974U  8272U  8670   9072   9611  12644M 12644  13829U 15018U
 @R3           0 00000000 FFFFFFFB     @     745   970U  8317   8611   8669   8847M  8847   9029M  9071  11486  11487
                                                 13384  13561U 14009U 14262
 @R4           0 00000000 FFFFFFFA     @     758   966U  8664U  9026U 10055U 10783U 13187  13383  14486  14509  14749
                                                 14750  14799  14822
 @R5           0 00000000 FFFFFFF9     @     771   962U  7762   8476U 10232U 10430U 10788U 11142U 11551U 12204U 12459U
                                                 12767U 13378U 13911U 14128U 14351U 14531U 14845U 15410U
 @R6           0 00000000 FFFFFFF8     @     784   958U  7430   7744   7761   9270U  9458U 12454U 13402U 13577U 14123U
                                                 14274M 14274  14275M 14283  15397U
 @R7           0 00000000 FFFFFFF7     @     797   954U  7776U  7930U  8481U  8695U  9093U  9275U  9463U  9707U 10242U
                                                 10435U 10798U 11147U 11556U 12214U 12464U 12772U 13070U 13407U 13582U
                                                 14133U 14356U 14536U 14855U 15422U
 @R8           0 00000000 FFFFFFF6     @     810   950U 10237U 10793U 12209U 14850U
 @R9           0 00000000 FFFFFFF5     @     823   946U
 ABSCENT       1 00000000 00000000 A   T    2176  2176
 ASCTBL        1 00000000 00000000 A   T    2184  2184
 BLTBL         1 00000000 00000000 A   T    2186  2186
 BR            7 00000007 00000001 A   #    1012  7344M  7857M  7972M  8560M  8744M  9137M  9320M  9535M  9794M 10283M
                                                 10510M 10844M 11221M 11625M 12256M 12508M 12816M 13119M 13447M 13631M
                                                 14193M 14400M 14604M 14897M
 BTD           1 00000000 0000000E     T    9491  9491
 CHECKIOB      1 00000000 00000000 A   T    2232  2232
 COLLPSH       1 00000000 00000003     T    7822  7822
 COMMAND       1 00000000 00000000 A   T    2172  2172
 COMMSEG       1 00000000 00000000 A   T    2173  2173
 CP         4096 00000000 FFFFFFEC     J    6186  1161U
 CP#XSTK       1 00000010 FFFFFFEC A   U    3918  3919
 CPACFLG       1 000005D5 FFFFFFEC     R    4021  4025   4030   4035   4040   4045
 CPACFLN       4 000005C4 FFFFFFEC     F    4013  4048   4048
 CPAFLAG       1 000005C3 FFFFFFEC     R    3985  3989   3994   3999   4004
 CPANAME       8 00000588 FFFFFFEC     C    3967  4063   4063
 CPAUTFLG      1 000008A9 FFFFFFEC     R    4331  4335   4340   4345   4350
 CPCHFLAG      1 00000B68 FFFFFFEC     R    4958  4962
 CPDFLG        1 0000084C FFFFFFEC     R    4218  4222   4227   4232   4237   4242
 CPDFLG2       1 0000084D FFFFFFEC     R    4247  4251   4256   4261   4266   4271   4276
 CPEXFLG       1 00000758 FFFFFFEC     R    4087  4091
 CPEXFLG2      1 00000759 FFFFFFEC     R    4097  4106   4116
 CPEXFLG3      1 0000075A FFFFFFEC     R    4123  4127   4132
 CPEXTFLG      1 00000E28 FFFFFFEC     R    5769  5773   5778   5783   5788   5793   5798
 CPFABORT    128 00000D5A FFFFFFEC         5535  2136M  2136   2141M  2141
 CPFERROR     64 00000D5A FFFFFFEC         5540  2135M  2135   2140M  2140
 CPFNTEX       1 00000040 FFFFFFEC A   U    5387  5388
 CPFRCVY      64 00000474 FFFFFFEC         3537 14049
 CPFRDRNG      1 00000D88 FFFFFFEC     R    5655  5659   5664   5669   5674   5679   5684   5689
 CPFRDSRC      1 00000D89 FFFFFFEC     R    5694  5703   5713   5723
 CPFUNUM       1 00000080 FFFFFFEC A   U    5386  5388
 CPFXAUTH     64 0000075A FFFFFFEC         4132  9952
 CPFXDFLG      1 000007E4 FFFFFFEC     R    4165  4169   4174
 CPGFLG1       1 00000474 FFFFFFEC     R    3528  3532   3537   3542   3547   3552   3882   3882
 CPGFLG10      1 0000047D FFFFFFEC     R    3765  3769   3774   3779   3784   3789   3794
1PATH     (PATH2193) (12:51) (15MAR04) Ordinary Symbol and Literal Cross Reference                                          Page   53
 CPGFLG11      1 0000047E FFFFFFEC     R    3800  3804   3809
 CPGFLG12      1 0000047F FFFFFFEC     R    3815  3819   3824   3829
 CPGFLG13      1 00000480 FFFFFFEC     R    3835  3839
 CPGFLG14      1 00000481 FFFFFFEC     R    3845  3849   3854   3859   3864   3869
 CPGFLG4       1 00000477 FFFFFFEC     R    3581  3592   3601   3610   3619   3628
 CPGFLG5       1 00000478 FFFFFFEC     R    3634  3638   3643   3648   3653   3658   3663   3668   3673
 CPGFLG6       1 00000479 FFFFFFEC     R    3679  3683   3688   3693
 CPGFLG7       1 0000047A FFFFFFEC     R    3699  3703   3708   3713   3718
 CPGFLG8       1 0000047B FFFFFFEC     R    3724  3728   3733   3738   3743
 CPGFLG9       1 0000047C FFFFFFEC     R    3749  3753   3759
 CPINIT        1 00000174 FFFFFFEC     U    2698  6155
 CPJESFLG      1 000009E1 FFFFFFEC     R    4430  4434   4439   4444   4449   4454   4459   4464   4469
 CPJESFLY      1 000009FD FFFFFFEC     R    4480  4484   4489   4494
 CPJESHFL      1 000009E0 FFFFFFEC     R    4415  4419   4424   4503   4503
 CPLFLG10      1 00000D59 FFFFFFEC     R    5521  5525
 CPLFLG11      1 00000D5A FFFFFFEC     R    5531  5535   5540   5545   5550
 CPLFLG12      1 00000D5B FFFFFFEC     R    5556  5560
 CPLFLG14      1 00000D5C FFFFFFEC     R    5566  5570   5575   5580   5585   5590
 CPLFLG6       1 00000D55 FFFFFFEC     R    5396  5400   5405   5410   5415   5420   5425
 CPLFLG7       1 00000D56 FFFFFFEC     R    5431  5435   5440   5445   5450   5455
 CPLFLG8       1 00000D57 FFFFFFEC     R    5461  5465   5470   5475   5480
 CPLFLG9       1 00000D58 FFFFFFEC     R    5486  5490   5495   5500   5505   5510   5515
 CPLOCALZ      1 00000C48 FFFFFFEC     U    4988  6149   6149
 CPMFLG        1 0000084F FFFFFFEC     R    4285  4289
 CPMODFLG      1 00000C78 FFFFFFEC     R    5016  5020   5025   5030   5035   5040
 CPNAMELN      1 00000010 FFFFFFEC A   U    3911  4158
 CPNEDPFX     10 00000E29 FFFFFFEC     X    5802  5803   5804
 CPNPATHS      2 00000220 FFFFFFEC     H    2800  8683M  8683   8795   9050   9051M 12663  12665M
 CPNSCANP      4 0000008C FFFFFFEC     A    2571  7371   7378   7394
 CPNUMFLG      1 00000C79 FFFFFFEC     R    5046  5058
 CPORVCMD      1 00000140 FFFFFFEC     R    2580  2584   2589   2594   2599   2604   2609   2614   2619   2624   2624
                                                  2675   2675
 CPORVFLG      1 00000149 FFFFFFEC     R    2631  2635   2640   2645   2650   2655   2660   2665   2670
 CPORVWF       1 00000150 FFFFFFEC     R    2683  2687
 CPOSCANX      4 00000CA8 FFFFFFEC     F    5215  5282   5282
 CPR          11 0000000B 00000001 A   #    1076  1161U
 CPRACBAD     16 000001FC FFFFFFEC         2749  2783   2783   2784   2784
 CPRACF1       1 000001FC FFFFFFEC     R    2730  2734   2739   2744   2749   2754   2759   2764   2769   2785
 CPRACPSW     32 000001FC FFFFFFEC         2744  2782   2782   2784   2784
 CPRACUND     64 000001FC FFFFFFEC         2739  2782   2782   2783   2783
 CPRCVCUR      4 00000730 FFFFFFEC     A    4066  4068   4068
 CPREGS        4 00000004 FFFFFFEC     A    2461 13881M
 CPRFLG        1 000008AA FFFFFFEC     R    4356  4360   4365   4370   4375   4380   4385
 CPS         254 00000344 FFFFFFEC     X    3500  3503   3504   3506   3506
 CPSACCT       5 000003B4 FFFFFFEC     C    3099  3262   3262
 CPSAMCOD      1 00000A22 FFFFFFEC     R    4552  4560   4570   4580   4589   4598   4607   4617   4626   4635
 CPSAMFLG      1 00000A21 FFFFFFEC     R    4512  4516   4521   4526   4531   4536   4541   4546   4657   4657
 CPSANO        2 000003B9 FFFFFFEC     X    3102  8965
 CPSCNFLG      1 00000CD0 FFFFFFEC     R    5228  5239   5248   5259
 CPSCNF2       1 00000CD1 FFFFFFEC     R    5264  5268
 CPSCNMAX      1 00000014 FFFFFFEC A   U    5280  5281
 CPSCRI        2 00000434 FFFFFFEC     H    3489  3494   3494
 CPSEG        60 00000050 FFFFFFEC     X    2569  7476   7498   7546   7564   7589   7614   7633   7658   7683   7708
                                                  8028   8046   8080   8102   8136   8170   8188   8216   8234   8262
                                                  8354   8376   8412   8434   8464
 CPSEGCOD      1 00000050 FFFFFFEC     R    2486  2495   2505   2515   2525   2535   2545   2555
 CPSFL         1 00000384 FFFFFFEC     R    2837  2841   2846   2851   2856   2861
 CPSFLG        1 000003F8 FFFFFFEC     R    3377  3381   3386   3391   3396   3401   3406   3411   3416
 CPSFLG2       1 000003F9 FFFFFFEC     R    3422  3426   3431   3436
1PATH     (PATH2193) (12:51) (15MAR04) Ordinary Symbol and Literal Cross Reference                                          Page   54
 CPSFL2        1 00000385 FFFFFFEC     R    2867  2871   2876   2881   2886
 CPSFL3        1 00000386 FFFFFFEC     R    2892  2896   2901   2906
 CPSFL4        1 00000387 FFFFFFEC     R    2912  2916   2921   2926
 CPSFL5        1 00000388 FFFFFFEC     R    2932  2936   2941   2946
 CPSGRP        2 000003B7 FFFFFFEC     C    3101  8957   9938
 CPSID         4 00000344 FFFFFFEC     F    2824  9971
 CPSKAFL       1 000003BF FFFFFFEC     R    3233  3237   3242   3247   3252   3257   9969
 CPSKIFL       1 000003BE FFFFFFEC     R    3188  3192   3197   3202   3207   3212   3217   3222   3227   9942
 CPSNAME      20 000003C6 FFFFFFEC     C    3269  9972
 CPSNO         2 00000348 FFFFFFEC     H    2825  9970
 CPSOF         1 000001F8 FFFFFFEC     X    2720  2722   2722
 CPSOFLAG      1 00000416 FFFFFFEC     R    3447  3451   3456   3461   3466   3471
 CPSOPST       4 000003C4 FFFFFFEC     F    3267  3496   3496
 CPSPORT       8 00000354 FFFFFFEC     C    2831  2951   2951
 CPSPROJ       8 000003F0 FFFFFFEC     C    3373  9941
 CPSQFLG       1 000003EC FFFFFFEC     R    3296  3300
 CPSSFLG       1 000003BB FFFFFFEC     R    3106  3110   3115   3120   3125   3130   3135
 CPSSTART      4 00000344 FFFFFFEC     F    2823  2827   2827   3263   3263   3368   3368   3500   3500
 CPSSTAT       1 0000038F FFFFFFEC     R    3043  3047   3052   3057   3062   3067   3072   3077
 CPSTACF       1 000003BC FFFFFFEC     R    3141  3145   3150   3155   3160   3165   3170   3175   3180
 CPSTART       4 00000000 FFFFFFEC     C    2459  6153   6157
 CPSTFLAG      1 000003EA FFFFFFEC     R    3274  3278   3283   3288
 CPSTYPE       1 0000038C FFFFFFEC     R    2956  2965   2975   2985   2995   3005   3015   3025   3035
 CPSUFLG       1 000003EE FFFFFFEC     R    3311  3315   3320   3325   3330   3335   3340   3345   3350
 CPSUFLG2      1 000003EF FFFFFFEC     R    3356  3360   3365
 CPSUSER       3 000003B4 FFFFFFEC     C    3100  8958   9940
 CPSVPGM       8 0000039C FFFFFFEC     C    3089  3095   3095
 CPS1ST        4 0000038C FFFFFFEC     F    2953  3498   3498
 CPTEMPP#      1 0000005F FFFFFFEC A   U    4406  4408
 CPTRMFL1      1 00000C7A FFFFFFEC     R    5064  5068   5073   5078   5202   5202
 CPTRMFL2      1 00000C7B FFFFFFEC     R    5084  5088   5093   5098   5103   5108   5113
 CPTRMFL3      1 00000C7C FFFFFFEC     R    5119  5123   5128   5133   5138   5143   5148   5153
 CPTRMFL4      1 00000C7D FFFFFFEC     R    5159  5163   5168   5173   5178   5183   5188   5193
 CPUSED        1 00000FBC FFFFFFEC A   U    6153  6154
 CPVACURS      8 00000AF0 FFFFFFEC     D    4931  4932   4933
 CPVCURS       8 00000AE0 FFFFFFEC     D    4925  4926   4927
 CPVFLAG       1 00000AC8 FFFFFFEC     R    4726  4730   4735   4740   4745   4750
 CPVFLAG2      1 00000AC9 FFFFFFEC     R    4756  4760   4765   4770   4775   4780   4785
 CPVFLAG3      1 00000ACA FFFFFFEC     R    4791  4795   4800   4805   4810   4815   4820
 CPVFLAG4      1 00000ACB FFFFFFEC     R    4826  4830   4835   4840
 CPVLFLAG      1 00000ACE FFFFFFEC     R    4895  4899   4904   4909
 CPVMODE       1 00000ACC FFFFFFEC     R    4848  4852   4857   4862   4867   4872   4877   4882   4887
 CPVTWID       2 00000AD0 FFFFFFEC     H    4915  4918   4918
 CPWK1         4 00000D60 FFFFFFEC     F    5599  5614   5637
 CPWK2         4 00000D64 FFFFFFEC     F    5600  5615   5629
 CPWK3         4 00000D68 FFFFFFEC     F    5601  5616   5630
 CPWK4         4 00000D6C FFFFFFEC     F    5602  5617   5631
 CPWK5         4 00000D70 FFFFFFEC     F    5603  5619   5624   5632
 CPWK6         4 00000D74 FFFFFFEC     F    5604  5620   5625   5633   5640   5642
 CPWK7         4 00000D78 FFFFFFEC     F    5605  5618   5634
 CPXFLAG       1 000007FD FFFFFFEC     R    4193  4197
 CPXSTATE      4 000007F8 FFFFFFEC     F    4187  4200   4200
 CV         4016 00000000 FFFFFFEE     J    2362  1170U
 CVABSRTN      4 0000088C FFFFFFEE     V    2176  2151
 CVBLANKS    235 000004D8 FFFFFFEE     C    1956  8956   9937  10755
 CVBRMSK       1 00000751 FFFFFFEE     X    2092  2093   2094
 CVCFLAG       1 00000A00 FFFFFFEE     R    2257  2261   2266   2271   2276   2281
 CVCHKST       8 000009F0 FFFFFFEE     D    2247  2337   2337
 CVCHKST2      8 00000E28 FFFFFFEE     D    2340  2343   2343
1PATH     (PATH2193) (12:51) (15MAR04) Ordinary Symbol and Literal Cross Reference                                          Page   55
 CVCOMRTN      4 0000087C FFFFFFEE     V    2172  2142
 CVCURJCB      4 000001C8 FFFFFFEE     A    1441  8644   8955   9257   9670   9975  13140  13468  13666
 CVDBGFLG      1 000004CC FFFFFFEE     R    1946  1950
 CVDEBUGP      4 00000734 FFFFFFEE     V    2073 11893  11913  11935  12015  12037  12143  12163  12185
 CVDSPCLK      8 00000630 FFFFFFEE     D    1985 13787  14101  15002
 CVECB         4 00000720 FFFFFFEE     F    2064  9016
 CVENT         4 0000074C FFFFFFEE     I    2090  7344B  7857B  7972B  8560B  8744B  9137B  9320B  9535B  9794B 10283B
                                                 10510B 10844B 11221B 11625B 12256B 12508B 12816B 13119B 13447B 13631B
                                                 14193B 14400B 14604B 14897B
 CVENTBR       2 00000750 FFFFFFEE     I    2091  2092
 CVERRMSG      4 000007C8 FFFFFFEE     I    2135  7509B
 CVERROR       4 000007D6 FFFFFFEE     I    2140  2156B
 CVEXIRTN      4 0000077C FFFFFFEE     V    2120  2116
 CVFCHRKBPR
               8 000004C9 FFFFFFEE         1861  1877   1877
 CVFCHRKBSE
               4 000004C9 FFFFFFEE         1866  1877   1877
 CVFCHRKCPR
               2 000004C9 FFFFFFEE         1883  1899   1899
 CVFCHRKCSE
               1 000004C9 FFFFFFEE         1888  1899   1899
 CVFCHRUBPR
             128 000004C9 FFFFFFEE         1817  1833   1833
 CVFCHRUBSE
              64 000004C9 FFFFFFEE         1822  1833   1833
 CVFCHRUCPR
              32 000004C9 FFFFFFEE         1839  1855   1855
 CVFCHRUCSE
              16 000004C9 FFFFFFEE         1844  1855   1855
 CVFL          1 000004C4 FFFFFFEE     R    1613  1617   1622   1627   1632   1637   1642   1647   1652
 CVFL2         1 000004C5 FFFFFFEE     R    1658  1662   1667   1672   1677   1682   1687   1692   1697
 CVFL3         1 000004C6 FFFFFFEE     R    1703  1707   1712   1717   1722   1727   1732   1737   1742
 CVFL4         1 000004C7 FFFFFFEE     R    1748  1752   1757   1762   1767   1772   1777   1782
 CVFL5         1 000004C8 FFFFFFEE     R    1788  1792   1797   1802   1807
 CVFL6         1 000004C9 FFFFFFEE     R    1813  1817   1822   1834   1839   1844   1856   1861   1866   1878   1883
                                                  1888   1900
 CVHEAP#       1 00000200 FFFFFFEE A   U    1519  1520
 CVINVRTN      4 00000888 FFFFFFEE     V    2175  2145
 CVJESFLG      1 000004CA FFFFFFEE     R    1906  1910
 CVLNKRGS      4 00000780 FFFFFFEE     F    2122  2097M  2123   9193M  9220M  9248M  9376M  9403M  9431M  9650M  9887M
                                                 10339M 10575M 10900M 11277M 11690M 12328M 12564M 12626M 12693M 12739M
                                                 13246M 13274M 13702M 13730M 13759M 13957M 14249M 14456M 14669M 14978M
 CVLNKRTN      4 000007B0 FFFFFFEE     U    2123  2112M
 CVLOCK1       1 00000088 FFFFFFEE     R    1264  1268   1273
 CVLOCK2       1 00000089 FFFFFFEE     R    1278  1282
 CVLOCK3       1 0000008A FFFFFFEE     R    1287  1291
 CVLOCK4       1 0000008B FFFFFFEE     R    1296  1300
 CVLOGMOD      1 00000068 FFFFFFEE     R    1251  1255
 CVMACH        1 00000067 FFFFFFEE     R    1211  1215   1220   1225   1230   1235   1240   1245
 CVMILRTN      4 00000884 FFFFFFEE     V    2174  2154
 CVNEXT        4 000007DE FFFFFFEE     I    2142  7515B  7769B
 CVNOARTN      4 00000890 FFFFFFEE     V    2177  2148
 CVNWDATE      4 00000608 FFFFFFEE     F    1979  1983   1983
 CVNWMPG#      1 00000008 FFFFFFEE A   U    1981  1982
 CVPATH#       1 000001F4 FFFFFFEE A   N    1312  8512   9485   9730  15461
 CVPATHP       4 000000A4 FFFFFFEE     A    1313  7427   7643   7715   8582   8820   9608  12637  13158
 CVPATHQH      4 000000AC FFFFFFEE     A    1319 13367  13368M 13485  13869  13870M 13889  14918
 CVPFXRTN      1 00000000 00000000 A   T    2120  2120
 CVPGFLAG      1 00000A01 FFFFFFEE     R    2287  2291   2296   2301
1PATH     (PATH2193) (12:51) (15MAR04) Ordinary Symbol and Literal Cross Reference                                          Page   56
 CVPIOSZ       1 00004F80 FFFFFFEE A   U    1350  1352
 CVPPDBQH      4 0000009C FFFFFFEE     A    1308  1309
 CVPSFNO       1 000003E9 FFFFFFEE A   N    1472  1474
 CVPSLNO       1 000007CF FFFFFFEE A   N    1473  1474
 CVPXSZ        1 00000008 FFFFFFEE A   U    1351  1352
 CVR          12 0000000C 00000001 A   #    1089  1170U
 CVRKEY        1 00000008 FFFFFFEE A   U    2045  2046
 CVRSET        1 00000002 FFFFFFEE A   U    2039 15146  15357
 CVSEGRTN      4 00000880 FFFFFFEE     V    2173  2137
 CVSTACK#      1 00000080 FFFFFFEE A   U    1511  1512
 CVSTART       4 00000000 FFFFFFEE     C    1184  2355
 CVTRC         4 00000768 FFFFFFEE     I    2112  2098B  9194B  9221B  9249B  9377B  9404B  9432B  9651B  9888B 10340B
                                                 10576B 10901B 11278B 11691B 12329B 12565B 12627B 12694B 12740B 13247B
                                                 13275B 13703B 13731B 13760B 13958B 14250B 14457B 14670B 14979B
 CVTRCRTN      4 00000778 FFFFFFEE     V    2119  2113
 CVUPMAX#      1 00000019 FFFFFFEE A   N    1311  8795
 CVUSFNO       1 00000001 FFFFFFEE A   N    1479  1481
 CVUSLNO       1 000003E7 FFFFFFEE A   N    1480  1481
 CVVOL#        1 00000005 FFFFFFEE A   U    2330  2331
 CVWTOFLG      1 000004CB FFFFFFEE     R    1916  1920   1925   1930   1935   1940
 CVWYLSSN      8 00000028 FFFFFFEE     C    1196  7533   7538   8936   9936
 DEBUGSG       1 00000000 00000000 A   T    2073  2073
 DEV          12 00000000 FFFFFFEB     J    4711  4719
 DEVMAX#       1 00000002 FFFFFFEC A   U    4662  4719
 DEVTYPE       1 00000001 FFFFFFEB     R    4679  4688   4698
 DISPATCH      1 00000000 00000013     T   15474 15474
 DOTTBL        1 00000000 00000000 A   T    2189  2189
 DRENCFLG      1 00000F9F FFFFFFEC     R    6117  6121   6126   6131   6136   6141
 DRENPROT      1 00000F9E FFFFFFEC     R    6104  6112
 DSNON        40 00000E90 FFFFFFEC     C    5837  5838
 DSNWADSN     44 00000E5C FFFFFFEC     C    5824  5825   5826   5827   5836   5844   6075   6081   6083   6089   6092
                                                  6094   6097   6146
 DSNWAF4       1 00000F37 FFFFFFEC     R    5892  5896   5901   5906   5911   5916   5921   5926   5931
 DSNWAF5       1 00000F38 FFFFFFEC     R    5937  5941   5946   5951   5956   5961   5966   5971   5976
 DSNWAF6       1 00000F39 FFFFFFEC     R    5982  5986   5991   5996   6001   6006   6011   6016   6021
 DSNWAF7       1 00000F3A FFFFFFEC     R    6027  6031   6036   6041   6046
 DSNXG         1 00000004 FFFFFFEC A   U    5829  5831
 DSNXGL        1 00000003 FFFFFFEC A   U    5830  5831
 DSNXU         1 00000007 FFFFFFEC A   U    5831  5833
 DSNXUL        1 00000004 FFFFFFEC A   U    5832  5833
 DSSIZ         1 00000108 FFFFFFEC A   U    6075  6083   6092   6097
 EBCTBL        1 00000000 00000000 A   T    2185  2185
 EBCTBL7       1 00000000 00000000 A   T    2188  2188
 ECBLIST       1 00000000 00000000 A   T    2048  2048
 EPARTBL       1 00000000 00000000 A   T    2180  2180
 FREECORE      1 00000000 00000011     T   15463 15463
 FSR           0 00000000 00000001 A   #     999  7339   7784M  7852   7919M  7938M  7967   8489M  8555   8703M  9132
                                                  9283M  9315   9471M  9788  10225M 10250M 10278  10443M 10504  10806M
                                                 11619  12222M 12251  12392M 12442M 12472M 12503  12780M 13114  13415M
                                                 13442  13590M 14188  14364M 14395  14544M 14598  14863M 14892  15430M
 GETCORE       1 00000000 0000000D     T    9488  9488  15477
 GETRSC        1 00000000 00000015     T   15478 15478
 HIBAL         1 00000000 FFFFFFFF     J     691   707    720    733    746    759    772    785    798    811    824
                                                   837    850    863    876    889    902
 INVALID       1 00000000 00000000 A   T    2175  2175
 JCB         208 00000000 FFFFFFE9     J    6578  8150U  9985U 13150U 13478U 13676U 15089U 15138M 15349M
 JCBAFL        1 00000062 FFFFFFE9     R    6423  6427   6432   6437   6442   6447   6452   6457   6462
 JCBAPDSP     16 00000062 FFFFFFE9         6442 15124  15138M 15138  15334  15349M 15349
 JCBBFL        1 00000063 FFFFFFE9     R    6468  6472   6477   6482   6487   6492   6497   6502
1PATH     (PATH2193) (12:51) (15MAR04) Ordinary Symbol and Literal Cross Reference                                          Page   57
 JCBBILLX      8 00000088 FFFFFFE9     D    6553  6561   6561
 JCBFTINT      1 00000062 FFFFFFE9         6462 15183
 JCBFWINT     16 00000063 FFFFFFE9         6487 15236
 JCBGRP        2 0000004D FFFFFFE9     C    6342  8203   8208
 JCBRSCF1      1 00000064 FFFFFFE9     R    6508  6512   6517   6522
 JCBSEQ        2 00000048 FFFFFFE9     H    6339  8158  15204
 JCBSFLG1      1 00000065 FFFFFFE9     R    6528  6532   6537
 JCBSINP       4 00000038 FFFFFFE9     A    6333  9991
 JCBTIMID      4 0000000C FFFFFFE9     A    6317 15266  15300M 15300
 JCBTIMQL      4 00000010 FFFFFFE9     A    6318 15301M
 JCBUSER       3 0000004A FFFFFFE9     C    6341  8249   8254
 JCBWFL        1 00000060 FFFFFFE9     R    6352  6356   6361   6366   6371   6376   6381   6386   6391   6419  15111
                                                 15321
 JCBWFTM       2 00000060 FFFFFFE9         6386 15308M
 JCBWWFL       1 00000061 FFFFFFE9     R    6397  6401   6406   6411   6416
 JCBWWFPT     64 00000061 FFFFFFE9         6406 13877M 15099M
 KWRDSTRT      1 00000005 FFFFFFE8     U    6599  6761   6761
 KWRIFSPR      1 00000020 FFFFFFE8 A   U    6608  9962
 KWRSTART      4 00000000 FFFFFFE8     F    6594  6775
 KWRUSER       3 00000000 FFFFFFE8     C    6595  6597   6597
 LOWTBL        1 00000000 00000000 A   T    2183  2183
 LSR           8 00000008 00000001 A   #    1037  7339   7784M  7852   7938M  7967   8489M  8555   8703M  8739   9101M
                                                  9132   9283M  9315   9471M  9530   9715M  9788  10250M 10278  10443M
                                                 10504  10806M 10839  11155M 11216  11564M 11619  12222M 12251  12472M
                                                 12503  12780M 12811  13078M 13114  13415M 13442  13590M 13626  14141M
                                                 14188  14364M 14395  14544M 14598  14863M 14892  15430M
 MALL          1 00000000 00000004     T    7836  7836
 MAT           4 0000008C 00000001     F    7255  7314
 MATFLG1       1 00000030 00000001     R    7204  7208   7213   7218   7223   7228   7233
 MATSFLG       1 000000C4 00000001     X    7316  7278
 MILERR        1 00000000 00000000 A   T    2174  2174
 MINT          1 00000000 00000002     T    7806  7806
 MPATH       176 00000018 00000001     X    7319  9489
 MPATHX        4 00000018 00000001     F    7187  7319   7319
 NBLTBL        1 00000000 00000000 A   T    2187  2187
 NOACTION      1 00000000 00000000 A   T    2177  2177
 NOTVALID      1 00000000 00000005     T    7837  7837   8513
 NPARTBL       1 00000000 00000000 A   T    2181  2181
 NPATPCLS      1 00000000 00000010     T   15460 15460
 NSCAN         1 00000000 00000006     T    8504  8504
 NSCNCB      176 00000000 FFFFFFED     J    2446  2572   7379   7380   7381   7384M  7385M  7387M  7397M  7398M  7399M
 NSCNFLGS      1 00000008 FFFFFFED     R    2383  2387   2392
 NSCNKWS       4 00000028 FFFFFFED     A    2432  7379   7387M  7397M
 NSCNSKIP      4 00000024 FFFFFFED     A    2431  7380   7384M  7398M
 NSCNSTOP      4 00000020 FFFFFFED     A    2430  7381   7385M  7399M
 NSCNTYPE      1 00000018 FFFFFFED     R    2401  2405   2410   2415   2420   2425
 PATHADDQ      2 000014E0 00000001     H   14179 15451
 PATHALLO      2 00000586 00000001     H    8730  8726
 PATHCLRU      2 0000073C 00000001     H    9306  9302
 PATHCLS       2 00001064 00000001     H   12494  9486  12490
 PATHDELQ      2 00001576 00000001     H   14386 15459
 PATHDEQ       2 0000130C 00000001     H   13433 13429  15471
 PATHDISP      2 00000304 00000001     H    7958  8506
 PATHFREE      2 0000051C 00000001     H    8546  8542
 PATHGET       2 0000081A 00000001     H    9521  9517
 PATHINFO      2 00000AC8 00000001     H   10494 10490
 PATHINQX      2 000012FE 00000001     H   13398 13357B
 PATHOFIN      2 00000A52 00000001     H   10269 11173  15447
 PATHOPEN      2 000008D8 00000001     H    9778  9774
1PATH     (PATH2193) (12:51) (15MAR04) Ordinary Symbol and Literal Cross Reference                                          Page   58
 PATHPOST      2 000016C0 00000001     H   14883 14879
 PATHQ         2 00001228 00000001     H   13105 13101
 PATHRC        2 0000116A 00000001     H   12802 11176  12798  15455
 PATHRDCK      2 00000BBC 00000001     H   10830 10826  15448
 PATHREAD      2 00000CF4 00000001     H   11207 11203
 PATHSEG       2 00000FD2 00000001     H   12242 12238
 PATHSETU      2 000006A4 00000001     H    9123  9119
 PATHSNDQ      2 000015F8 00000001     H   14588 11175  15450
 PATHWAIT      2 00001366 00000001     H   13617 11172  13613  15449
 PATHWRIT      2 00000E0E 00000001     H   11609 11605  15458
 PATH2193      1 00000000 00000001     R    1135  1133
 PGETNONE      4 00000894 00000001     I    9678  9613B
 PIASCBP       4 00000008 FFFFFFE2     A   10470 10476  10476  10646M 10646  10656
 PIINFO      164 00000008 FFFFFFE2     X   10476 10586  10587
 PINFO       128 00000000 FFFFFFE4     J    7183  9762   9924U  9934M  9934   9935M 10475  10670U 10685  11171
 PINFOACC      8 00000010 FFFFFFE4     C    7158  9937M  9938M  9939M  9940M 10692
 PINFOAFL      1 00000031 FFFFFFE4     R    7169  9969M
 PINFOCAL      4 00000020 FFFFFFE4     C    7160  9973M
 PINFOID       4 00000034 FFFFFFE4     F    7172  9971M
 PINFOIFL      1 00000030 FFFFFFE4     R    7165  9942M  9964M
 PINFOLNO      2 00000032 FFFFFFE4     H    7171  9970M 10693
 PINFONAM     20 00000038 FFFFFFE4     C    7173  9972M 10694
 PINFOPRJ      8 00000018 FFFFFFE4     C    7159  9941M
 PINFOSYS      8 00000008 FFFFFFE4     C    7157  9936M 10691
 PINFOTAG     16 00000060 FFFFFFE4     X    7175 10032M 10695
 PIPARMS       4 00000000 FFFFFFE2     A   10468 10588M 10595M 10616
 PIPINFO     128 0000002C FFFFFFE2     X   10475 10660
 PIWA        236 00000000 FFFFFFE2     J   10485 10507  10536U 10806  10808  10809
 PIWORK       64 000000AC FFFFFFE2     X   10478 10728  10735  10748  10756  10758
 POPNCALL      4 00000000 FFFFFFE3     A    9759  9830M  9830   9846M  9973
 POPNPINF    128 0000000C FFFFFFE3     X    9762  9914
 POPNPINL      4 00000008 FFFFFFE3     F    9761 10046M 10048
 POPNRET       4 00000A40 00000001     I   10225 10111B
 POPNWA      140 00000000 FFFFFFE3     J    9769  9791   9820U 10250  10252  10253
 POPNWORD      4 00000004 FFFFFFE3     F    9760 10072M 10079M 10093
 PPOST         4 00001732 00000001     I   15079 15005B
 PRCHKOK       4 00000C88 00000001     I   11130 10972B 11099B
 PRDEXIT       2 00000E00 00000001     H   11547 11339B 11384B 11412B 11445B
 PRDRETRY      2 00000D44 00000001     H   11319 11413B
 PSNDADDR      4 00000000 FFFFFFE0     A   14572 14751M 14759M 14779
 PSNDEXIT      2 000016B2 00000001     H   14841 14792B
 PSNDLEN       4 00000004 FFFFFFE0     F   14573 14752M
 PSNDWA        8 00000000 FFFFFFE0     J   14580 14601  14630U 14863  14865  14866
 PWRDATAA      4 00000000 FFFFFFE1     A   11592 11783M 11791M 11861  12048
 PWRDATAL      4 00000004 FFFFFFE1     F   11593 11784M 12053
 PWREXIT       2 00000F80 00000001     H   12114 11771B 12064B
 PWRRETRY      2 00000E92 00000001     H   11794 12080B
 PWRWA         8 00000000 FFFFFFE1     J   11600 11622  11651U 12222  12224  12225
 PWTDONE       4 00001494 00000001     I   14023 13861B
 PWTNOPST      2 00001494 00000001     H   14016 13990B
 RAR          14 0000000E 00000001 A   #    1115  2112   2113M  2114B  2116M  2117B  2137M  2138B  2142M  2143B  2145M
                                                  2146B  2148M  2149B  2151M  2152B  2154M  2155M  2155B  2161   7336
                                                  7390M  7391M  7391B  7404M  7405M  7405B  7446M  7447M  7447B  7479M
                                                  7480M  7480B  7501M  7502M  7502B  7549M  7550M  7550B  7567M  7568M
                                                  7568B  7592M  7593M  7593B  7617M  7618M  7618B  7636M  7637M  7637B
                                                  7661M  7662M  7662B  7686M  7687M  7687B  7711M  7712M  7712B  7754M
                                                  7755M  7755B  7786M  7789B  7849   7911M  7912M  7912B  7940M  7943B
                                                  7964   8031M  8032M  8032B  8049M  8050M  8050B  8083M  8084M  8084B
                                                  8105M  8106M  8106B  8139M  8140M  8140B  8173M  8174M  8174B  8191M
1PATH     (PATH2193) (12:51) (15MAR04) Ordinary Symbol and Literal Cross Reference                                          Page   59
                                                  8192M  8192B  8219M  8220M  8220B  8237M  8238M  8238B  8265M  8266M
                                                  8266B  8357M  8358M  8358B  8379M  8380M  8380B  8415M  8416M  8416B
                                                  8437M  8438M  8438B  8467M  8468M  8468B  8491M  8494B  8552   8657M
                                                  8658M  8658B  8705M  8708B  8736   8860M  8861M  8861B  9005M  9006M
                                                  9006B  9103M  9106B  9129   9285M  9288B  9312   9473M  9476B  9527
                                                  9717M  9720B  9785  10163M 10164M 10164B 10178M 10179M 10179B 10252M
                                                 10255B 10275  10445M 10448B 10501  10808M 10811B 10836  10950M 10951M
                                                 10951B 11078M 11079M 11079B 11157M 11160B 11213  11308M 11309M 11309B
                                                 11337M 11338M 11338B 11410M 11411M 11411B 11566M 11569B 11616  11721M
                                                 11722M 11722B 11749M 11750M 11750B 11765M 11766M 11766B 11896M 11897M
                                                 11897B 11916M 11917M 11917B 11938M 11939M 11939B 11946M 11947M 11947B
                                                 12018M 12019M 12019B 12040M 12041M 12041B 12058M 12059M 12059B 12078M
                                                 12079M 12079B 12146M 12147M 12147B 12166M 12167M 12167B 12188M 12189M
                                                 12189B 12224M 12227B 12248  12387M 12388M 12388B 12474M 12477B 12500
                                                 12578M 12579M 12579B 12586M 12587M 12587B 12754M 12755M 12755B 12782M
                                                 12785B 12808  13080M 13083B 13111  13323M 13324M 13324B 13354M 13355M
                                                 13355B 13417M 13420B 13439  13592M 13595B 13623  13816M 13817M 13817B
                                                 13859M 13860M 13860B 14023M 14024M 14024B 14143M 14146B 14185  14265M
                                                 14266M 14266B 14366M 14369B 14392  14513M 14514M 14514B 14546M 14549B
                                                 14595  14826M 14827M 14827B 14865M 14868B 14889  15049M 15050M 15050B
                                                 15156M 15157M 15157B 15207M 15208M 15208B 15278M 15279M 15279B 15367M
                                                 15368M 15368B 15432M 15435B
 R0            0 00000000 FFFFFFFF A   #     699  2097   2166M  7375M  7375   7384   7385   7468M  7490M  7490   7508M
                                                  7538M  7556M  7581M  7581   7606M  7606   7625M  7650M  7675M  7675
                                                  7700M  7700   7888M  7888   7902   7917   8020M  8038M  8072M  8094M
                                                  8128M  8162M  8162   8180M  8208M  8226M  8254M  8346M  8368M  8368
                                                  8404M  8426M  8456M  8456   8765   8807M  8857M  8895M  8896M  8897M
                                                  8995M  9058M  9084M  9193   9220   9248   9376   9403   9431   9569M
                                                  9569   9583   9592M  9604   9650   9679M  9887  10110M 10134M 10158M
                                                 10218M 10225  10225M 10339  10407M 10408M 10410  10575  10586M 10588
                                                 10900  11038M 11039M 11041  11096M 11096  11107  11118M 11119M 11121
                                                 11131M 11277  11382M 11405M 11426M 11427M 11427  11443M 11481  11486M
                                                 11518  11525M 11531  11532  11690  11784  11837M 11838M 11840  11887M
                                                 11907M 11907  11929M 11929  12009M 12031M 12031  12053M 12073M 12098
                                                 12137M 12157M 12157  12179M 12179  12328  12368  12390M 12392  12392M
                                                 12418M 12418  12436M 12442  12442M 12564  12626  12693  12739  12840M
                                                 12859M 12884M 12909M 12934M 12959M 12984M 13009M 13034M 13059M 13246
                                                 13274  13702  13730  13759  13781M 13781  13788  13881  13957  14028M
                                                 14079M 14111M 14249  14258  14262M 14293M 14294M 14295M 14456  14669
                                                 14721M 14722M 14724  14750M 14752  14978  15152M 15204M 15363M
 R1            1 00000001 FFFFFFFF A   #     712  2160M  2161M  2167M  7371M  7384   7385   7387   7467M  7486M  7507M
                                                  7533M  7555M  7624M  7643M  8013M  8037M  8071M  8093M  8127M  8158M
                                                  8179M  8203M  8225M  8249M  8345M  8364M  8403M  8425M  8806M  8863
                                                  9002M  9057M  9083M  9591M  9611M  9612M  9612   9624U  9678M  9839M
                                                  9839   9975M  9985U  9991M 10009U 10048M 10049  10071M 10072  10109M
                                                 10133M 10159M 10173  10174  10174  10174  10182M 10217M 10225  10388M
                                                 10398M 10408  10587M 10588  11019M 11029M 11039  11106  11116M 11117M
                                                 11119  11130M 11178  11178  11178  11381M 11406M 11423M 11442M 11480
                                                 11530M 11783  11818M 11828M 11838  11886M 11903M 12008M 12048M 12054M
                                                 12074M 12098  12136M 12153M 12751M 12839M 12858M 12883M 12908M 12933M
                                                 12958M 12983M 13008M 13033M 13058M 13768  14027M 14078M 14110M 14257
                                                 14267  14509M 14702M 14712M 14722  14749M 14751  14822M 15146M 15357M
 R12          12 0000000C FFFFFFFF A   #     855  2123
 R13          13 0000000D FFFFFFFF A   #     868  7379   7380   7381   7397   7398   7399
 R14          14 0000000E FFFFFFFF A   #     881  2098M  7378M  7379   7380   7381   7386M  7387   7394M  7397   7398
                                                  7399   8885M  8890M  8896   8897M  9194M  9221M  9249M  9377M  9404M
                                                  9432M  9651M  9888M 10340M 10576M 10901M 11278M 11691M 12329M 12565M
                                                 12627M 12694M 12740M 13247M 13275M 13703M 13731M 13760M 13880M 13958M
                                                 14250M 14283M 14288M 14294  14295M 14457M 14670M 14979M
1PATH     (PATH2193) (12:51) (15MAR04) Ordinary Symbol and Literal Cross Reference                                          Page   60
 R15          15 0000000F FFFFFFFF A   #     894  2097   7400M  7400   7430M  7431M  7431   7476M  7498M  7546M  7564M
                                                  7589M  7614M  7633M  7658M  7683M  7708M  7744M  7745M  7745   7788M
                                                  7788   7923M  7923   7942M  7942   7993   8028M  8046M  8080M  8102M
                                                  8136M  8170M  8188M  8216M  8234M  8262M  8354M  8376M  8412M  8434M
                                                  8464M  8493M  8493   8654M  8688M  8688   8707M  8707   8808M  8965M
                                                  8978   8984M  9016M  9017   9018M  9019   9049M  9050M  9051   9062M
                                                  9062   9085M  9105M  9105   9158   9193   9220   9248   9263M  9263
                                                  9287M  9287   9341   9376   9403   9431   9451M  9451   9475M  9475
                                                  9593M  9650   9680M  9700M  9700   9719M  9719   9852   9887  10138M
                                                 10138  10160M 10173  10174  10174  10174  10175M 10182M 10254M 10254
                                                 10304  10339  10387M 10388  10389M 10391  10406M 10407  10410M 10447M
                                                 10447  10540  10575  10626M 10626  10776M 10776  10810M 10810  10865
                                                 10900  10947M 11018M 11019  11020M 11022  11037M 11038  11041M 11070M
                                                 11070  11115M 11118  11121M 11135M 11135  11159M 11159  11178  11178
                                                 11178  11242  11277  11305M 11334M 11383M 11407M 11444M 11543M 11543
                                                 11568M 11568  11655  11690  11718M 11746M 11762M 11770M 11770  11817M
                                                 11818  11819M 11821  11836M 11837  11840M 11871M 11871  11878  11879
                                                 11879  11879  11880  11893M 11913M 11935M 11942M 11959  12015M 12037M
                                                 12055M 12063M 12063  12075M 12121M 12121  12128  12129  12129  12129
                                                 12130  12143M 12163M 12185M 12192M 12226M 12226  12278  12328  12384M
                                                 12476M 12476  12529  12564  12575M 12583M 12626  12663M 12664M 12665
                                                 12693  12739  12760M 12760  12784M 12784  12849M 12849  12874  12899
                                                 12924  12949  12974  12999  13024  13049  13082M 13082  13246  13274
                                                 13320M 13356M 13394M 13394  13419M 13419  13542M 13551  13570M 13570
                                                 13594M 13594  13652  13702  13730  13759  13772M 13787M 13788M 13793
                                                 13813M 13881  13882M 13883B 13957  13980M 13989  14059M 14059  14107M
                                                 14145M 14145  14214  14249  14333M 14344M 14344  14368M 14368  14421
                                                 14456  14486M 14487  14496M 14496  14503  14524M 14524  14548M 14548
                                                 14634  14669  14701M 14702  14703M 14705  14720M 14721  14724M 14789M
                                                 14789  14799M 14800  14809M 14809  14816  14837M 14837  14867M 14867
                                                 14978  15046M 15111M 15112M 15112  15137M 15138  15153M 15266M 15267M
                                                 15267  15321M 15322M 15322  15348M 15349  15364M 15382M 15391  15434M
                                                 15434  15483  15483  15483
 R2            2 00000002 FFFFFFFF A   #     725  8110M  8111M  8111   8150U  8282M  8282   8310   8320M  8335M  8335
                                                  8364   8392   8581M  8596   8670M  8739   8819M  8834   8905   9058
                                                  9072M  9101M  9530   9604M  9606M  9607M  9608M  9715M 10839  11155M
                                                 11216  11481M 11488M 11504M 11504  11518  11525  11532M 11534  11564M
                                                 11878  11879  11879  11879  11880M 11903  11942M 12128  12129  12129
                                                 12129  12130M 12153  12192M 12368M 12390  12591M 12603M 12603  12617
                                                 12635M 12636M 12637M 12811  13078M 13492M 13550  13626  13828M 13831
                                                 13896M 13988  14141M 15017M 15020  15053  15483  15483  15483
 R3            3 00000003 FFFFFFFF A   #     738  8283M  8296M  8296   8317M  8582M  8669M  8820M  9071M 11480M 11487M
                                                 11530  11531M 11533  13157M 13172  13384M 13485M 13492  13502U 13508M
                                                 13509M 13509  13550M 13889M 13896  13914U 13920M 13921M 13921  13974
                                                 13988M 14258M 14275  14288
 R4            4 00000004 FFFFFFFF A   #     751  8611M  8612M  8612   8627U  8863M  8873U  9029   9057   9914M  9924U
                                                 10660M 10670U 13158M 13383M 14257M 14293  14485M 14747M 14938M 15390
 R5            5 00000005 FFFFFFFF A   #     764  7368M  7368   7417M  7417   7423   7486   7714M  7729   7762M  7917M
                                                  7919   7919M  7993M  8003U  8765M  8777M  8777   8917M  8917   9039M
                                                  9039   9257M  9258   9852M  9862U 10304M 10314U 10540M 10550U 10865M
                                                 10875U 11242M 11252U 11655M 11665U 12278M 12288U 12529M 12539U 13187M
                                                 13188M 13188  13203U 13368  13652M 13662U 13870  13974  14214M 14224U
                                                 14421M 14431U 14634M 14644U 14918M 14934U 14938  14941M 14942M 14942
                                                 15390M
 R6            6 00000006 FFFFFFFF A   #     777  7423M  7425M  7426M  7427M  7715M  7761M  9158M  9168U  9341M  9351U
                                                 12293M 12303U 13140M 13150U 13218  13468M 13478U 13536  13666M 13676U
                                                 13750  14267M 14315  14316  14334  14335  15079M 15089U
 R7            7 00000007 FFFFFFFF A   #     790  2090M  2090   2091B  2103B
 R8            8 00000008 FFFFFFFF A   #     803  9820U 10536U 11651U 14630U
1PATH     (PATH2193) (12:51) (15MAR04) Ordinary Symbol and Literal Cross Reference                                          Page   61
 SCANCHK       1 00000000 00000007     T    8505  8505
 SDSNQSZ       1 0000002C FFFFFFEC A   U    6078  6079   6080
 SEG           1 00000000 00000008     T    8507  8507  15452
 SEGCB        60 00000000 FFFFFFE6     J    6971 12288U
 SEGCBCOD      1 00000000 FFFFFFE6     R    6882  6891   6901   6911   6921   6931   6941   6951
 SEGCBOVF      5 00000000 FFFFFFE6         6931 12362
 SEGCBSPP      4 00000000 FFFFFFE6         6921 12409
 SEGCBUSR      4 00000038 FFFFFFE6     A    6964 12293
 SEGCBWR       2 00000000 FFFFFFE6         6901 12350
 SEGCR         1 00000000 0000000B     T    8510  8510
 SEGDC         1 00000000 00000009     T    8508  8508  15453
 SEGHX         1 00000000 0000000C     T    8511  8511
 SEGT          1 00000000 0000000A     T    8509  8509
 SEGWR         1 00000000 0000000F     T   15454 15454
 SHOWWPAT      2 000000C8 00000001     H    7330  7326
 SIN         224 00000000 FFFFFFE7     J    6865 10009U 10025
 SINSTAG      16 00000052 FFFFFFE7     C    6823 10032
 SINVPGM       8 00000098 FFFFFFE7     C    6833  6839   6839
 SLICECHK      1 00000000 00000012     T   15473 15473
 SPR          13 0000000D 00000001 A   #    1102  7336   7339   7340   7341M  7341   7780M  7784   7786   7849   7852
                                                  7853   7854M  7854   7934M  7938   7940   7964   7967   7968   7969M
                                                  7969   8485M  8489   8491   8552   8555   8556   8557M  8557   8699M
                                                  8703   8705   8736   8739   8740   8741M  8741   9097M  9101   9103
                                                  9129   9132   9133   9134M  9134   9279M  9283   9285   9312   9315
                                                  9316   9317M  9317   9467M  9471   9473   9527   9530   9531   9532M
                                                  9532   9711M  9715   9717   9785   9788   9790   9791M  9791  10246M
                                                 10250  10252  10275  10278  10279  10280M 10280  10439M 10443  10445
                                                 10501  10504  10506  10507M 10507  10802M 10806  10808  10836  10839
                                                 10840  10841M 10841  11151M 11155  11157  11213  11216  11217  11218M
                                                 11218  11560M 11564  11566  11616  11619  11621  11622M 11622  12218M
                                                 12222  12224  12248  12251  12252  12253M 12253  12468M 12472  12474
                                                 12500  12503  12504  12505M 12505  12776M 12780  12782  12808  12811
                                                 12812  12813M 12813  13074M 13078  13080  13111  13114  13115  13116M
                                                 13116  13411M 13415  13417  13439  13442  13443  13444M 13444  13586M
                                                 13590  13592  13623  13626  13627  13628M 13628  14137M 14141  14143
                                                 14185  14188  14189  14190M 14190  14360M 14364  14366  14392  14395
                                                 14396  14397M 14397  14540M 14544  14546  14595  14598  14600  14601M
                                                 14601  14859M 14863  14865  14889  14892  14893  14894M 14894  15426M
                                                 15430  15432
 TBREAK        1 00000000 00000016     T   15479 15479
 TIMERDQ       1 00000000 00000017     T   15480 15480
 TRC           1 00000000 00000000 A   T    2119  2119
 TSTAT         1 00000000 00000014     T   15475 15475
 TTYFLAG       1 00000004 FFFFFFEA     R    6207  6211
 TTYMAX#       1 00000006 FFFFFFEA A   U    6263  6264
 TTYTFLAG      1 00000005 FFFFFFEA     R    6217  6221   6226   6231   6236   6241   6246   6251
 UPAT          4 00000074 FFFFFFE5     F    7057  7116  10071
 UPATDLEN      4 00000030 FFFFFFE5     A    7045 10969M 10969  11107M 11328M 11328  11357M 11357  11426  11461M 11461
                                                 11534M
 UPATDLOC      4 0000002C FFFFFFE5     A    7044 11106M 11423  11456M 11456  11533M
 UPATECB       4 0000009C FFFFFFE5     R    7092  9017M
 UPATECBF      4 00000094 FFFFFFE5     R    7080  9019M
 UPATFCLS      1 00000080 FFFFFFE5 A   U    7082 11371  11406  12074  13344  13365
 UPATFFQE      1 00000040 FFFFFFE5 A   U    7083 10919  11801  12074  14685
 UPATFGLOBAL
             128 00000018 FFFFFFE5         7010  8060   8928M  9211   9394   9908  12655
 UPATFHDR      8 00000018 FFFFFFE5         7030  8903M 11474
 UPATFINT     16 00000018 FFFFFFE5         7025 13292  15198  15251
 UPATFLG1      1 00000018 FFFFFFE5     R    7006  7010   7015   7020   7025   7030   7035
1PATH     (PATH2193) (12:51) (15MAR04) Ordinary Symbol and Literal Cross Reference                                          Page   62
 UPATFNI       1 00000020 FFFFFFE5 A   U    7084 10989  11002  11112  11406  13312  13338  13365  13805
 UPATFNOFULLQWAIT
               4 00000018 FFFFFFE5         7035 11974
 UPATFNOWAIT
              64 00000018 FFFFFFE5         7015 10152  11399
 UPATFOPENING
              32 00000018 FFFFFFE5         7020 10069M 10195  10418M
 UPATFOPN      1 00000008 FFFFFFE5 A   U    7086 10159  10358  10371  11296  11709  13341  13365
 UPATH       176 00000000 FFFFFFE5     J    7127  8003U  8627U  8654   8873U  9168U  9184   9351U  9367   9487   9624U
                                                  9641   9862U  9878  10160  10175  10314U 10330  10389  10389  10406
                                                 10406  10410M 10410M 10550U 10566  10875U 10891  10947  11020  11020
                                                 11037  11037  11041M 11041M 11115  11115  11117  11117  11121M 11121M
                                                 11252U 11268  11305  11334  11407  11665U 11681  11718  11746  11762
                                                 11819  11819  11836  11836  11840M 11840M 12055  12075  12303U 12319
                                                 12384  12539U 12555  12575  12583  12747M 12751  13203U 13237  13320
                                                 13485  13502U 13662U 13693  13813  13889  13914U 13948  14004U 14224U
                                                 14240  14431U 14447  14644U 14660  14703  14703  14720  14720  14724M
                                                 14724M 14918  14934U 14969  15046
 UPATJCBP      4 00000008 FFFFFFE5     A    6998  8110   8644   8935M  8935   8955M  9239M  9239   9258M  9422M  9422
                                                  9446M  9446   9670  10937M 10937  11997M 11997  13218  13536  13750
                                                 15079
 UPATLINK      4 0000000C FFFFFFE5     A    6999 12684M 12684  12730M 12730  13265M 13265  13367M 13485  13508  13542
                                                 13549M 13549  13551M 13721M 13721  13869M 13889  13920  13980  13987M
                                                 13987  13989M 14918  14941  15382  15389M 15389  15391M
 UPATMGC       4 00000074 FFFFFFE5     R    7059 10609  11056  11854  12712  14772
 UPATMY        8 0000007C FFFFFFE5     C    7063  8936M  8956M  8957M  8958M  9002
 UPATPACT      8 00000046 FFFFFFE5     X    7052 10692M 10755M 10756M 10757M 10758M
 UPATPASC      4 00000038 FFFFFFE5     F    7049 10656M 10733  10753
 UPATPINP      4 000000A4 FFFFFFE5     X    7096 10049M 10123M 10123
 UPATPJOB      8 0000003E FFFFFFE5     X    7051 10691M 10735M
 UPATPLNO      2 0000003C FFFFFFE5     H    7050 10693M 10760M
 UPATPMSK      1 000000AD FFFFFFE5     X    7119 13365M 13768M 13828  15017
 UPATPNAM     20 0000004E FFFFFFE5     X    7053 10694M 10767M 10767
 UPATPNO       4 00000004 FFFFFFE5     F    6997  8013   8905M 12591
 UPATPTAG     16 00000062 FFFFFFE5     X    7054 10695M
 UPATRBAF      1 0000000C FFFFFFE5 A   U    7105 15456
 UPATRBOM      1 00000014 FFFFFFE5 A   U    7107 15467
 UPATRBPI      1 0000001C FFFFFFE5 A   U    7109 15469
 UPATRCMP      4 00000020 FFFFFFE5     A    7040 12092M 12092  12098M 12429M 12429
 UPATRIAD      1 00000020 FFFFFFE5 A   U    7110 15470
 UPATRIBS      1 00000018 FFFFFFE5 A   U    7108 15468
 UPATRIFC      1 00000004 FFFFFFE5 A   U    7103 15464
 UPATRNOP      1 00000010 FFFFFFE5 A   U    7106 15466
 UPATRPMW      1 00000008 FFFFFFE5 A   U    7104 15465
 UPATSFLG      1 000000AC FFFFFFE5     X    7118  7080   9018  10360  10389  10389  10406  10410M 10921  10991  11020
                                                 11020  11037  11041M 11115  11117  11117  11121M 11298  11373  11711
                                                 11819  11819  11836  11840M 13314  13346  13807  13838  14703  14703
                                                 14720  14724M 15027  15060
 UPATWAIT      4 00000028 FFFFFFE5     F    7042 10158  11405  12073
 UPATWRQH      4 00000010 FFFFFFE5     A    7001  8283  11740M 11740  14309M 14309  14315M 14479M 14479  14485  14487M
                                                 14741M 14741  14747  14800M
 UPATWRQT      4 00000014 FFFFFFE5     A    7002 14316M 14333  14335M 14503M 14816M
 UPATXCLK      4 00000034 FFFFFFE5     F    7047 13366M 13793M 14101  15002
 UPPTBL        1 00000000 00000000 A   T    2182  2182
 WAR           8 00000008 00000001 A   #    1025  7340M  7780   7853M  7919   7934   7968M  8485   8556M  8699   8740M
                                                  9097   9133M  9279   9316M  9467   9531M  9711   9790M 10225  10246
                                                 10279M 10439  10506M 10802  10840M 11151  11217M 11560  11621M 12218
                                                 12252M 12392  12442  12468  12504M 12776  12812M 13074  13115M 13411
                                                 13443M 13586  13627M 14137  14189M 14360  14396M 14540  14600M 14859
1PATH     (PATH2193) (12:51) (15MAR04) Ordinary Symbol and Literal Cross Reference                                          Page   63
                                                 14893M 15426
 WPATHNO       2 000002C0 00000001     H    7843  7807
 WPATHPRT      4 00000248 00000001     F    7795  8503
 WTOSG         1 00000000 00000000 A   T    2079  2079
 WYLPATH       1 00000000 00000001     J     989   991   1007   1020   1033   1045   1058   1071   1084   1097   1110
                                                  1123   2363   2447   6187   6299   6579   6789   6866   6972   6976
                                                  6980   7128   7184
 =A(CVPATH#)
               4 00000494 00000001     A    8512  7729   7902
 =A(CVPATH#)
               4 000007D8 00000001     A    9485  8596   8834
 =A(CVPATH#)
               4 000008C0 00000001     A    9730  9583
 =A(CVPATH#)
               4 0000187C 00000001     A   15461 12617  13172
 =A(L'PINFO)
               4 00000CA8 00000001     A   11171 10046
 =A(L'UPATH)
               4 000007E0 00000001     A    9487  8857   8890
 =A(MPATH)
               4 000007E8 00000001     A    9489  8895
 =A(PATHADDQ)
               4 00001844 00000001     A   15451 11765  12058
 =A(PATHCLS)
               4 000007DC 00000001     A    9486  8657
 =A(PATHDELQ)
               4 00001874 00000001     A   15459 12578
 =A(PATHDEQ)
               4 000018A4 00000001     A   15471 13354
 =A(PATHDISP)
               4 0000047C 00000001     A    8506  7446   7754
 =A(PATHOFIN)
               4 00000CB0 00000001     A   11173 10178
 =A(PATHOFIN)
               4 00001834 00000001     A   15447 11308  11721
 =A(PATHRC)
               4 00000CBC 00000001     A   11176 11078
 =A(PATHRC)
               4 00001854 00000001     A   15455 11946
 =A(PATHRDCK)
               4 00001838 00000001     A   15448 11337  13323  13816  15049
 =A(PATHSNDQ)
               4 00000CB8 00000001     A   11175 10950
 =A(PATHSNDQ)
               4 00001840 00000001     A   15450 11749
 =A(PATHWAIT)
               4 00000CAC 00000001     A   11172 10163
 =A(PATHWAIT)
               4 0000183C 00000001     A   15449 11410  12078
 =A(PATHWRIT)
               4 00001870 00000001     A   15458 12387
 =A(UPATRBAF)
               4 00001858 00000001     A   15456 11959  12924
 =A(UPATRBOM)
               4 00001894 00000001     A   15467 12974
 =A(UPATRBPI)
               4 0000189C 00000001     A   15469 13024
 =A(UPATRIAD)
               4 000018A0 00000001     A   15470 13049
1PATH     (PATH2193) (12:51) (15MAR04) Ordinary Symbol and Literal Cross Reference                                          Page   64
 =A(UPATRIBS)
               4 00001898 00000001     A   15468 12999
 =A(UPATRIFC)
               4 00001888 00000001     A   15464 12874
 =A(UPATRNOP)
               4 00001890 00000001     A   15466 12949
 =A(UPATRPMW)
               4 0000188C 00000001     A   15465 12899
 =A(WPATHPRT)
               4 00000470 00000001     A    8503  7386
 =A(1)         4 000004A4 00000001     A    8516  8320
 =A(1)         4 000007EC 00000001     A    9490  8978
 =A(1000)      4 000004A0 00000001     A    8515  8310   8392
 =C' *** '
               5 000004FD 00000001     C    8527  8345
 =C' -- '      4 0000049C 00000001     C    8514  8037
 =C' '         1 000004FB 00000001     C    8525  8179
 =C' for line '
              10 000004BC 00000001     C    8519  8127
 =C' is not active.'
              15 000004CB 00000001     C    8521  7507
 =C' path information:'
              18 000004AA 00000001     C    8518  7555
 =C' pending transactions ***'
              25 00000503 00000001     C    8529  8425
 =C'.'         1 000004FC 00000001     C    8526  8225
 =C'+'         1 00000502 00000001     C    8528  8403
 =C'ATTN'      4 000018B8 00000001     C   15476 14078
 =C'BAD PATH NUMBER'
              15 000008C8 00000001     C    9732  9591
 =C'BAD SUZAN ADDR'
              14 000018DE 00000001     C   15486 13058
 =C'BAD SUZAN BUFFER ADDR'
              21 00001970 00000001     C   15495 13033
 =C'BAD SUZAN CONTROL BLOCK'
              23 00001947 00000001     C   15492 12908
 =C'BAD SUZAN FUNCTION CODE'
              23 00001930 00000001     C   15491 12883
 =C'BUFFER FULL'
              11 0000195E 00000001     C   15493 12933
 =C'BUFFER TOO SMALL'
              16 00001820 00000001     C   15445 13008
 =C'ERROR'
               5 0000192B 00000001     C   15490 12858
 =C'FPTH'      4 00001880 00000001     C   15462 12747
 =C'Global '
               7 000004EF 00000001     C    8523  8071
 =C'NO DATA'
               7 000018F7 00000001     C   15488 11442
 =C'NO MORE PATHS'
              13 00000807 00000001     C    9493  9083
 =C'NO PARTNER'
              10 000018D4 00000001     C   15485 12958
 =C'NOT OPEN'
               8 000008B8 00000001     C    9729  9678
 =C'OK OPENING'
              10 00000CC4 00000001     C   11179 10217
 =C'OK'        2 00000CC0 00000001     C   11177 10133  10208
 =C'OK'        2 000018D2 00000001     C   15484 12839  14027
1PATH     (PATH2193) (12:51) (15MAR04) Ordinary Symbol and Literal Cross Reference                                          Page   65
 =C'OPEN FAILED'
              11 00000CD3 00000001     C   11182 10109
 =C'Path '
               5 000004C6 00000001     C    8520  7467
 =C'PATH CLOSED'
              11 000018EC 00000001     C   15487 11381
 =C'PATH'      4 000008C4 00000001     C    9731  9641
 =C'PATH'      4 00000CA0 00000001     C   11169  9878  10330  10566  10891
 =C'PATH'      4 00001830 00000001     C   15446 11268  11681  12319  12555  13237  13693  13948  14240  14447  14660
                                                 14969
 =C'PATHRDCK OK'
              11 00000CDE 00000001     C   11183 11130
 =C'PATHWRIT queueing local xact for later resend'
              45 000018FE 00000001     C   15489 12008
 =C'PATHWRIT returns rc='
              20 0000185C 00000001     C   15457 12136
 =C'PATHWRIT send error, rc='
              24 00001808 00000001     C   15444 11886
 =C'PINF'      4 00000CB4 00000001     C   11174 10685
 =C'SIN'       3 00000CD0 00000001     C   11181 10025
 =C'TIMEOUT'
               7 00001985 00000001     C   15496 14110
 =C'TOO BIG'
               7 00001969 00000001     C   15494 12983
 =C'TOO MANY PATHS OPEN'
              19 000007F4 00000001     C    9492  8806
 =C'UPATH index table at '
              21 000004DA 00000001     C    8522  7624
 =C'UPATH'
               5 000004F6 00000001     C    8524  8093
 =C'UPATH'
               5 00000814 00000001     C    9494  9184   9367
 =CL4'PINF'
               4 00000CA4 00000001     C   11170  9935
 =F'-1'        4 000018A8 00000001     F   15472 13366  13772  14510  14823  15301
 =H'-1'        2 00000CCE 00000001     H   11180 10760
 =H'-4'        2 000018CC 00000001     H   15481 11444  14107
 =H'4'         2 000018CE 00000001     H   15482 11488
 =V(BTD)       4 000007F0 00000001     V    9491  9005
 =V(DISPATCH)
               4 000018B0 00000001     V   15474 13882
 =V(FREECORE)
               4 00001884 00000001     V   15463 12754  14513  14826
 =V(GETCORE)
               4 000007E4 00000001     V    9488  8860
 =V(GETCORE)
               4 000018BC 00000001     V   15477 14265
 =V(GETRSC)
               4 000018C0 00000001     V   15478 15156  15367
 =V(NOTVALID)
               4 00000498 00000001     V    8513  7911
 =V(NPATPCLS)
               4 00001878 00000001     V   15460 12586
 =V(NSCAN)
               4 00000474 00000001     V    8504  7390
 =V(SCANCHK)
               4 00000478 00000001     V    8505  7404
 =V(SEG)       4 00000480 00000001     V    8507  7479   7567   7636   8049   8083   8105   8139   8191   8219   8237
                                                  8265   8357   8415   8437
1PATH     (PATH2193) (12:51) (15MAR04) Ordinary Symbol and Literal Cross Reference                                          Page   66
 =V(SEG)       4 00001848 00000001     V   15452 11896  12018  12146
 =V(SEGCR)
               4 0000048C 00000001     V    8510  7592   7617   7686   7711   8467
 =V(SEGDC)
               4 00000484 00000001     V    8508  7501   8031   8173   8379
 =V(SEGDC)
               4 0000184C 00000001     V   15453 11916  12166
 =V(SEGHX)
               4 00000490 00000001     V    8511  7661
 =V(SEGT)      4 00000488 00000001     V    8509  7549
 =V(SEGWR)
               4 00001850 00000001     V   15454 11938  12040  12188
 =V(SLICECHK)
               4 000018AC 00000001     V   15473 13859
 =V(TBREAK)
               4 000018C4 00000001     V   15479 15207
 =V(TIMERDQ)
               4 000018C8 00000001     V   15480 15278
 =V(TSTAT)
               4 000018B4 00000001     V   15475 14023
 =Y((R1+1-(R15)+16*((R15)/(R1+1))/((R15)/(R1+1)))*4)
               2 00000CC2 00000001     Y   11178 10181
 =Y((R2+1-(R15)+16*((R15)/(R2+1))/((R15)/(R2+1)))*4)
               2 000018D0 00000001     Y   15483 11941  12191
 =Y((12+3)/4*4)
               2 000004A8 00000001     Y    8517  7396

1PATH     (PATH2193) (12:51) (15MAR04) Macro and Copy Code Source Summary                                                   Page   67
- Con Source                                        Volume    Members                        HLASM R4.0  2004/03/15 12.51
0     PRIMARY INPUT                                           CSECT    DROP     END      EX       LTORG    POP
                                                              PRINT    PUSH     START    USING
   L1 WYL.GS.WYL.WYLBUR.MACLIB                      SYSB05    AINFO    BASE     BTD      COLINFO  COMMENT  CONTROL  CP
                                                              CPLOCAL  CV       CVLOCAL  DEBUG    ERROR    FAIL
                                                              GETRSC   JCB      KAPUT    PAUSE    RG       SCAN
                                                              SCANCB   SCANCHK  SCCBADR  SCKW     SCPOP    SCPUSH
                                                              SETUP    TCR      THEX     TNUM     TSEG     TSTAT
                                                              TTYPE    UPATH    VLTORG   XTRACE
   L2 WYL.GG.SYS.MACLIB                             SYSB05    $BC      $BFLKUP  $BV      $CCLKUP  $CRS     $CSS     $L
                                                              $LA      $LBLAD   $LEXP    $LOR     $NIL     $OIL     $REL
                                                              $RGLKUP  $USLKUP  ACALL    BEGIN    CLEAR    COMPROC
                                                              CSECT    DATA     DECR     DEFCC    DROP     ELSE
                                                              ELSEIF   END      EX       EXIT     FLAG     GEN
                                                              HIBAL    IDENT    IF       INCR     LABEL    LC       LCM
                                                              LOOP     LS       LT       LTH      LTORG    L2
                                                              MOVEL    PEND     POP      PRETURN  PRINT    PROC     PUSH
                                                              QLTORG   RECORD   REG      REGS     SET      SETMSG
                                                              START    SYSLR    USING    VCALL    WHILE    WITH
                                                              XPROC
   L3 SYS3.IS.MACLIB                                SYSB05    DEFINE   KWR      SEG      SEGCB    SEGCR    SEGDC
                                                              SEGHX    SEGLD    SEGWR    SIB      SIN      SYSDEFN  XPOP
                                                              XPUSH
   L4 SYS3.MACLIB                                   SYSB02    HASPSERV PATH     PINFO    SCOM

1PATH     (PATH2193) (12:51) (15MAR04) Dsect Cross Reference                                                                Page   68
-Dsect     Length      Id       Defn                                                         HLASM R4.0  2004/03/15 12.51
0$$$@R0   00000000  FFFFFFFE     705
 $$$@R1   00000000  FFFFFFFD     718
 $$$@R10  00000000  FFFFFFF4     835
 $$$@R11  00000000  FFFFFFF3     848
 $$$@R12  00000000  FFFFFFF2     861
 $$$@R13  00000000  FFFFFFF1     874
 $$$@R14  00000000  FFFFFFF0     887
 $$$@R15  00000000  FFFFFFEF     900
 $$$@R2   00000000  FFFFFFFC     731
 $$$@R3   00000000  FFFFFFFB     744
 $$$@R4   00000000  FFFFFFFA     757
 $$$@R5   00000000  FFFFFFF9     770
 $$$@R6   00000000  FFFFFFF8     783
 $$$@R7   00000000  FFFFFFF7     796
 $$$@R8   00000000  FFFFFFF6     809
 $$$@R9   00000000  FFFFFFF5     822
 $$$RCP   00001000  FFFFFFEC    2452
 $$$RCV   00000FB0  FFFFFFEE    1177
 $$$RDEV  0000000C  FFFFFFEB    4666
 $$$RJCB  000000D0  FFFFFFE9    6304
 $$$RKWR  000001F8  FFFFFFE8    6584
 $$$RNSCNCB
          000000B0  FFFFFFED    2373
 $$$RPINFO
          00000080  FFFFFFE4    7149
 $$$RPIWA 000000EC  FFFFFFE2   10462
 $$$RPOPNWA
          0000008C  FFFFFFE3    9753
 $$$RPSNDWA
          00000008  FFFFFFE0   14566
 $$$RPWRWA
          00000008  FFFFFFE1   11586
 $$$RSEGCB
          0000003C  FFFFFFE6    6871
 $$$RSIN  000000E0  FFFFFFE7    6794
 $$$RTTYPE
          0000010C  FFFFFFEA    6197
 $$$RUPATH
          000000B0  FFFFFFE5    6984
 HIBAL    00000000  FFFFFFFF     691

1PATH     (PATH2193) (12:51) (15MAR04) Using Map                                                                            Page   69
-                                                                                            HLASM R4.0  2004/03/15 12.51
   Stmt  -----Location----- Action ----------------Using----------------- Reg Max    Last  Label and Using Text
           Count      Id           Type          Value    Range     Id        Disp   Stmt
0   922  00000000  FFFFFFFF USING  ORDINARY    00000000 00001000 FFFFFFEF  15 000          @R15,15
    926  00000000  FFFFFFFF USING  ORDINARY    00000000 00001000 FFFFFFF0  14 002    2168  @R14,14
    930  00000000  FFFFFFFF USING  ORDINARY    00000000 00001000 FFFFFFF1  13 000          @R13,13
    934  00000000  FFFFFFFF USING  ORDINARY    00000000 00001000 FFFFFFF2  12 000          @R12,12
    938  00000000  FFFFFFFF USING  ORDINARY    00000000 00001000 FFFFFFF3  11 000          @R11,11
    942  00000000  FFFFFFFF USING  ORDINARY    00000000 00001000 FFFFFFF4  10 000          @R10,10
    946  00000000  FFFFFFFF USING  ORDINARY    00000000 00001000 FFFFFFF5   9 000          @R9,9
    950  00000000  FFFFFFFF USING  ORDINARY    00000000 00001000 FFFFFFF6   8 000          @R8,8
    954  00000000  FFFFFFFF USING  ORDINARY    00000000 00001000 FFFFFFF7   7 000          @R7,7
    958  00000000  FFFFFFFF USING  ORDINARY    00000000 00001000 FFFFFFF8   6 004    7761  @R6,6
    962  00000000  FFFFFFFF USING  ORDINARY    00000000 00001000 FFFFFFF9   5 001    7762  @R5,5
    966  00000000  FFFFFFFF USING  ORDINARY    00000000 00001000 FFFFFFFA   4 000          @R4,4
    970  00000000  FFFFFFFF USING  ORDINARY    00000000 00001000 FFFFFFFB   3 004   13384  @R3,3
    974  00000000  FFFFFFFF USING  ORDINARY    00000000 00001000 FFFFFFFC   2 000          @R2,2
    978  00000000  FFFFFFFF USING  ORDINARY    00000000 00001000 FFFFFFFD   1 001    2167  @R1,1
    982  00000000  FFFFFFFF USING  ORDINARY    00000000 00001000 FFFFFFFE   0 000          @R0,0
    983  00000000  FFFFFFFF DROP                                            0              0
   1161  00000017  00000001 USING  ORDINARY    00000000 00001000 FFFFFFEC  11 D5A   14049  CP,CPR
   1170  00000017  00000001 USING  ORDINARY    00000000 00001000 FFFFFFEE  12 890   15002  CV,CVR
   7356  000000E2  00000001 USING  ORDINARY    000000E2 00001000 00000001   7 3F8    7766  $$$51B,7
   7776  0000023A  00000001 USING  ORDINARY    00000000 00001000 FFFFFFF7   7 000          @R7,7
   7869  000002DA  00000001 USING  ORDINARY    000002DA 00001000 00000001   7 1BE    7911  $$$60B,7
   7930  000002F6  00000001 USING  ORDINARY    00000000 00001000 FFFFFFF7   7 000          @R7,7
   7984  0000031E  00000001 USING  ORDINARY    0000031E 00001000 00000001   7 1E5    8467  $$$65B,7
   8003  00000320  00000001 USING  ORDINARY    00000000 00001000 FFFFFFE5   5 018    8283  UPATH,R5
   8150  0000038C  00000001 USING  ORDINARY    00000000 00001000 FFFFFFE9   2 04D    8249  JCB,R2
   8272  000003E4  00000001 USING  ORDINARY    00000000 00001000 FFFFFFFC   2 001   12644  @R2,2
   8476  00000462  00000001 USING  ORDINARY    00000000 00001000 FFFFFFF9   5 000          @R5,5
   8481  00000462  00000001 USING  ORDINARY    00000000 00001000 FFFFFFF7   7 000          @R7,7
   8572  00000536  00000001 USING  ORDINARY    00000536 00001000 00000001   7 2A6    8674  $$$75B,7
   8627  00000550  00000001 USING  ORDINARY    00000000 00001000 FFFFFFE5   4 008    8654  UPATH,R4
   8664  00000564  00000001 USING  ORDINARY    00000000 00001000 FFFFFFFA   4 000          @R4,4
   8695  00000578  00000001 USING  ORDINARY    00000000 00001000 FFFFFFF7   7 000          @R7,7
   8756  000005A0  00000001 USING  ORDINARY    000005A0 00001000 00000001   7 267    9083  $$$82B,7
   8873  000005E6  00000001 USING  ORDINARY    00000000 00001000 FFFFFFE5   4 0AC    9019  UPATH,R4
   8962  0000062E  00000001 DROP                                           15              15
   8966  00000634  00000001 USING  ORDINARY    00000000 00001000 FFFFFFEF  15 3E8   14334  @R15,15
   9026  0000065E  00000001 USING  ORDINARY    00000000 00001000 FFFFFFFA   4 000          @R4,4
   9093  00000696  00000001 USING  ORDINARY    00000000 00001000 FFFFFFF7   7 000          @R7,7
   9149  000006BE  00000001 USING  ORDINARY    000006BE 00001000 00000001   7 156    9240  $$$94B,7
   9168  000006C0  00000001 USING  ORDINARY    00000000 00001000 FFFFFFE5   6 018    9258  UPATH,R6
   9270  0000072E  00000001 USING  ORDINARY    00000000 00001000 FFFFFFF8   6 000          @R6,6
   9275  0000072E  00000001 USING  ORDINARY    00000000 00001000 FFFFFFF7   7 000          @R7,7
   9332  00000756  00000001 USING  ORDINARY    00000756 00001000 00000001   7 0BE    9423  $$$100B,7
   9351  00000758  00000001 USING  ORDINARY    00000000 00001000 FFFFFFE5   6 018    9446  UPATH,R6
   9458  000007C4  00000001 USING  ORDINARY    00000000 00001000 FFFFFFF8   6 000          @R6,6
   9463  000007C4  00000001 USING  ORDINARY    00000000 00001000 FFFFFFF7   7 000          @R7,7
   9547  00000834  00000001 USING  ORDINARY    00000834 00001000 00000001   7 094    9683  $$$106B,7
   9624  00000868  00000001 USING  ORDINARY    00000000 00001000 FFFFFFE5   1 008    9670  UPATH,R1
   9694  000008A4  00000001 USING  ORDINARY    00000000 00001000 FFFFFFFD   1 000    9846  @R1,1
   9707  000008A6  00000001 USING  ORDINARY    00000000 00001000 FFFFFFF7   7 000          @R7,7
   9806  000008F2  00000001 USING  ORDINARY    000008F2 00001000 00000001   7 3E1   10217  $$$113B,7
   9820  000008F2  00000001 USING  ORDINARY    FFFFFFD8 00001000 FFFFFFE3   8 034   10093  POPNWA-(4+36),R8
1PATH     (PATH2193) (12:51) (15MAR04) Using Map                                                                            Page   70
   9862  00000906  00000001 USING  ORDINARY    00000000 00001000 FFFFFFE5   5 0A4   10195  UPATH,R5
   9924  00000934  00000001 USING  ORDINARY    00000000 00001000 FFFFFFE4   4 060   10032  PINFO,R4
   9985  00000996  00000001 USING  ORDINARY    00000000 00001000 FFFFFFE9   1 038    9991  JCB,R1
   9998  0000099A  00000001 USING  ORDINARY    00000000 00001000 FFFFFFFD   1 000          @R1,1
  10009  0000099A  00000001 USING  ORDINARY    00000000 00001000 FFFFFFE7   1 052   10032  SIN,R1
  10043  000009AA  00000001 USING  ORDINARY    00000000 00001000 FFFFFFFD   1 000   14823  @R1,1
  10055  000009B8  00000001 USING  ORDINARY    00000000 00001000 FFFFFFFA   4 000          @R4,4
  10232  00000A44  00000001 USING  ORDINARY    00000000 00001000 FFFFFFF9   5 000          @R5,5
  10237  00000A44  00000001 USING  ORDINARY    00000000 00001000 FFFFFFF6   8 000          @R8,8
  10242  00000A44  00000001 USING  ORDINARY    00000000 00001000 FFFFFFF7   7 000          @R7,7
  10295  00000A6C  00000001 USING  ORDINARY    00000A6C 00001000 00000001   7 27E   10411  $$$127B,7
  10314  00000A6E  00000001 USING  ORDINARY    00000000 00001000 FFFFFFE5   5 0AC   10418  UPATH,R5
  10430  00000ABA  00000001 USING  ORDINARY    00000000 00001000 FFFFFFF9   5 000          @R5,5
  10435  00000ABA  00000001 USING  ORDINARY    00000000 00001000 FFFFFFF7   7 000          @R7,7
  10522  00000AE2  00000001 USING  ORDINARY    00000AE2 00001000 00000001   7 1EC   10760  $$$136B,7
  10536  00000AE2  00000001 USING  ORDINARY    FFFFFFD8 00001000 FFFFFFE2   8 0D7   10758  PIWA-(4+36),R8
  10550  00000AE4  00000001 USING  ORDINARY    00000000 00001000 FFFFFFE5   5 074   10767  UPATH,R5
  10670  00000B3E  00000001 USING  ORDINARY    00000000 00001000 FFFFFFE4   4 060   10695  PINFO,R4
  10783  00000BAE  00000001 USING  ORDINARY    00000000 00001000 FFFFFFFA   4 008   14822  @R4,4
  10788  00000BAE  00000001 USING  ORDINARY    00000000 00001000 FFFFFFF9   5 000          @R5,5
  10793  00000BAE  00000001 USING  ORDINARY    00000000 00001000 FFFFFFF6   8 000          @R8,8
  10798  00000BAE  00000001 USING  ORDINARY    00000000 00001000 FFFFFFF7   7 000          @R7,7
  10856  00000BD6  00000001 USING  ORDINARY    00000BD6 00001000 00000001   7 11A   11130  $$$145B,7
  10875  00000BD8  00000001 USING  ORDINARY    00000000 00001000 FFFFFFE5   5 0AC   11121  UPATH,R5
  11142  00000C92  00000001 USING  ORDINARY    00000000 00001000 FFFFFFF9   5 000          @R5,5
  11147  00000C92  00000001 USING  ORDINARY    00000000 00001000 FFFFFFF7   7 000          @R7,7
  11233  00000D0E  00000001 USING  ORDINARY    00000D0E 00001000 00000001   7 BE9   11519  $$$161B,7
  11252  00000D10  00000001 USING  ORDINARY    00000000 00001000 FFFFFFE5   5 0AC   11534  UPATH,R5
  11551  00000E00  00000001 USING  ORDINARY    00000000 00001000 FFFFFFF9   5 000          @R5,5
  11556  00000E00  00000001 USING  ORDINARY    00000000 00001000 FFFFFFF7   7 000          @R7,7
  11637  00000E28  00000001 USING  ORDINARY    00000E28 00001000 00000001   7 B66   12191  $$$176B,7
  11651  00000E28  00000001 USING  ORDINARY    FFFFFFD8 00001000 FFFFFFE1   8 02C   12053  PWRWA-(4+36),R8
  11665  00000E2A  00000001 USING  ORDINARY    00000000 00001000 FFFFFFE5   5 0AC   12098  UPATH,R5
  12204  00000FC4  00000001 USING  ORDINARY    00000000 00001000 FFFFFFF9   5 000          @R5,5
  12209  00000FC4  00000001 USING  ORDINARY    00000000 00001000 FFFFFFF6   8 000          @R8,8
  12214  00000FC4  00000001 USING  ORDINARY    00000000 00001000 FFFFFFF7   7 000          @R7,7
  12268  00000FEC  00000001 USING  ORDINARY    00000FEC 00001000 00000001   7 884   12430  $$$194B,7
  12288  00000FEE  00000001 USING  ORDINARY    00000000 00001000 FFFFFFE6   5 038   12409  SEGCB,R5
  12303  00000FF2  00000001 USING  ORDINARY    00000000 00001000 FFFFFFE5   6 020   12429  UPATH,R6
  12454  00001056  00000001 USING  ORDINARY    00000000 00001000 FFFFFFF8   6 000          @R6,6
  12459  00001056  00000001 USING  ORDINARY    00000000 00001000 FFFFFFF9   5 000          @R5,5
  12464  00001056  00000001 USING  ORDINARY    00000000 00001000 FFFFFFF7   7 000          @R7,7
  12520  0000107E  00000001 USING  ORDINARY    0000107E 00001000 00000001   7 806   12754  $$$203B,7
  12539  00001080  00000001 USING  ORDINARY    00000000 00001000 FFFFFFE5   5 074   12751  UPATH,R5
  12767  0000115C  00000001 USING  ORDINARY    00000000 00001000 FFFFFFF9   5 000          @R5,5
  12772  0000115C  00000001 USING  ORDINARY    00000000 00001000 FFFFFFF7   7 000          @R7,7
  12828  00001184  00000001 USING  ORDINARY    00001184 00001000 00000001   7 7EC   13058  $$$213B,7
  13070  0000121A  00000001 USING  ORDINARY    00000000 00001000 FFFFFFF7   7 000          @R7,7
  13131  00001242  00000001 USING  ORDINARY    00001242 00001000 00000001   7 666   13388  $$$225B,7
  13150  00001246  00000001 USING  ORDINARY    00000000 00001000 FFFFFFE9   6 000          JCB,R6
  13203  00001260  00000001 USING  ORDINARY    00000000 00001000 FFFFFFE5   5 0AD   13367  UPATH,R5
  13378  000012F0  00000001 USING  ORDINARY    00000000 00001000 FFFFFFF9   5 000          @R5,5
  13402  000012FE  00000001 USING  ORDINARY    00000000 00001000 FFFFFFF8   6 000          @R6,6
  13407  000012FE  00000001 USING  ORDINARY    00000000 00001000 FFFFFFF7   7 000          @R7,7
  13459  00001326  00000001 USING  ORDINARY    00001326 00001000 00000001   7 030   13564  $$$241B,7
  13478  0000132A  00000001 USING  ORDINARY    00000000 00001000 FFFFFFE9   6 000          JCB,R6
  13502  00001330  00000001 USING  ORDINARY    00000000 00001000 FFFFFFE5   3 00C   13551  UPATH,R3
  13561  00001352  00000001 USING  ORDINARY    00000000 00001000 FFFFFFFB   3 000          @R3,3
  13577  00001358  00000001 USING  ORDINARY    00000000 00001000 FFFFFFF8   6 000          @R6,6
1PATH     (PATH2193) (12:51) (15MAR04) Using Map                                                                            Page   71
  13582  00001358  00000001 USING  ORDINARY    00000000 00001000 FFFFFFF7   7 000          @R7,7
  13643  00001380  00000001 USING  ORDINARY    00001380 00001000 00000001   7 612   14110  $$$247B,7
  13662  00001382  00000001 USING  ORDINARY    00000000 00001000 FFFFFFE5   5 0AD   13869  UPATH,R5
  13676  00001386  00000001 USING  ORDINARY    00000000 00001000 FFFFFFE9   6 061   13877  JCB,R6
  13825  00001414  00000001 DROP                                            2              2
  13829  0000141A  00000001 USING  ORDINARY    00000000 00001000 FFFFFFFC   2 000          @R2,2
  13911  0000144E  00000001 USING  ORDINARY    00000000 00001000 FFFFFFF9   5 000          @R5,5
  13914  0000144E  00000001 USING  ORDINARY    00000000 00001000 FFFFFFE5   3 00C   13989  UPATH,R3
  14004  00001490  00000001 USING  ORDINARY    00000000 00001000 FFFFFFE5   5 034   14101  UPATH,5
  14009  00001490  00000001 USING  ORDINARY    00000000 00001000 FFFFFFFB   3 008   14262  @R3,3
  14123  000014D2  00000001 USING  ORDINARY    00000000 00001000 FFFFFFF8   6 008   14283  @R6,6
  14128  000014D2  00000001 USING  ORDINARY    00000000 00001000 FFFFFFF9   5 000          @R5,5
  14133  000014D2  00000001 USING  ORDINARY    00000000 00001000 FFFFFFF7   7 000          @R7,7
  14160  000014E0  00000001 USING  ORDINARY    00000000 00001000 FFFFFFF3  11 000          @R11,11
  14205  000014FA  00000001 USING  ORDINARY    000014FA 00001000 00000001   7 3C2   14327  $$$267B,7
  14224  000014FC  00000001 USING  ORDINARY    00000000 00001000 FFFFFFE5   5 014   14335  UPATH,R5
  14351  00001568  00000001 USING  ORDINARY    00000000 00001000 FFFFFFF9   5 000          @R5,5
  14356  00001568  00000001 USING  ORDINARY    00000000 00001000 FFFFFFF7   7 000          @R7,7
  14412  00001590  00000001 USING  ORDINARY    00001590 00001000 00000001   7 318   14518  $$$274B,7
  14431  00001592  00000001 USING  ORDINARY    00000000 00001000 FFFFFFE5   5 014   14503  UPATH,R5
  14531  000015EA  00000001 USING  ORDINARY    00000000 00001000 FFFFFFF9   5 000          @R5,5
  14536  000015EA  00000001 USING  ORDINARY    00000000 00001000 FFFFFFF7   7 000          @R7,7
  14616  00001612  00000001 USING  ORDINARY    00001612 00001000 00000001   7 386   14831  $$$281B,7
  14630  00001612  00000001 USING  ORDINARY    FFFFFFD8 00001000 FFFFFFE0   8 02C   14779  PSNDWA-(4+36),R8
  14644  00001614  00000001 USING  ORDINARY    00000000 00001000 FFFFFFE5   5 0AC   14816  UPATH,R5
  14845  000016B2  00000001 USING  ORDINARY    00000000 00001000 FFFFFFF9   5 000          @R5,5
  14850  000016B2  00000001 USING  ORDINARY    00000000 00001000 FFFFFFF6   8 000          @R8,8
  14855  000016B2  00000001 USING  ORDINARY    00000000 00001000 FFFFFFF7   7 000          @R7,7
  14909  000016DA  00000001 USING  ORDINARY    000016DA 00001000 00000001   7 2C6   15413  $$$293B,7
  14934  000016DE  00000001 USING  ORDINARY    00000000 00001000 FFFFFFE5   5 0AD   15391  UPATH,R5
  15014  00001712  00000001 DROP                                            2              2
  15018  00001718  00000001 USING  ORDINARY    00000000 00001000 FFFFFFFC   2 000          @R2,2
  15089  00001736  00000001 USING  ORDINARY    00000000 00001000 FFFFFFE9   6 063   15334  JCB,R6
  15397  000017F0  00000001 USING  ORDINARY    00000000 00001000 FFFFFFF8   6 000          @R6,6
  15410  000017F0  00000001 USING  ORDINARY    00000000 00001000 FFFFFFF9   5 000          @R5,5
  15422  000017F4  00000001 USING  ORDINARY    00000000 00001000 FFFFFFF7   7 000          @R7,7

1         (PATH2193) (12:51) (15MAR04) General Purpose Register Cross Reference                                             Page   72
- Register  References (M=modified, B=branch, U=USING, D=DROP, N=index)                      HLASM R4.0  2004/03/15 12.51
0    0(0)      982U   983D  2097   2165M  2165   2166M  7339   7375M  7375   7384   7385   7468M  7490M  7490   7508M
              7538M  7556M  7581M  7581   7606M  7606   7625M  7650M  7675M  7675   7700M  7700   7784M  7852   7888M
              7888   7902   7917   7938M  7967   8020M  8038M  8072M  8094M  8128M  8162M  8162   8180M  8208M  8226M
              8254M  8346M  8368M  8368   8404M  8426M  8456M  8456   8489M  8555   8703M  8765   8807M  8857M  8895M
              8897M  8995M  9058M  9084M  9132   9193   9220   9248   9283M  9315   9376   9403   9431   9471M  9569M
              9569   9583   9592M  9604   9650   9679M  9788   9887  10084M 10084  10110M 10134M 10158M 10173  10182M
             10218M 10225  10250M 10278  10339  10407M 10408M 10410  10443M 10504  10575  10586M 10588  10609M 10721M
             10741M 10741  10806M 10900  11038M 11039M 11041  11056M 11096M 11096  11107  11118M 11119M 11121  11131M
             11277  11382M 11405M 11426M 11427M 11427  11443M 11481  11486M 11518  11525M 11531  11532  11619  11690
             11784  11837M 11838M 11840  11854M 11878  11887M 11907M 11907  11929M 11929  11942M 12009M 12031M 12031
             12053M 12073M 12098  12128  12137M 12157M 12157  12179M 12179  12192M 12222M 12251  12328  12368  12390M
             12392  12418M 12418  12436M 12442  12472M 12503  12564  12626  12693  12712M 12739  12780M 12840M 12859M
             12884M 12909M 12934M 12959M 12984M 13009M 13034M 13059M 13114  13246  13274  13415M 13442  13590M 13702
             13730  13759  13781M 13781  13788  13881  13957  14028M 14079M 14111M 14188  14249  14258  14262M 14293M
             14295M 14364M 14395  14456  14544M 14598  14669  14721M 14722M 14724  14750M 14752  14772M 14863M 14892
             14978  15152M 15204M 15363M 15430M
     1(1)      978U  2097   2160M  2161M  2167M  7339   7371M  7384N  7385N  7387N  7467M  7486M  7507M  7533M  7555M
              7624M  7643M  7784M  7852   7938M  7967   8013M  8037M  8071M  8093M  8127M  8158M  8179M  8203M  8225M
              8249M  8345M  8364M  8403M  8425M  8489M  8555   8703M  8806M  8863   8896M  8897M  9002M  9057M  9083M
              9132   9193   9220   9248   9283M  9315   9376   9403   9431   9471M  9591M  9611M  9612M  9612   9624U
              9650   9678M  9694U  9788   9839M  9839   9887   9975M  9985U  9991M  9998U 10009U 10043U 10048M 10049
             10071M 10072  10093M 10109M 10133M 10159M 10173  10182M 10217M 10225  10250M 10278  10339  10388M 10398M
             10408  10443M 10504  10575  10587M 10588  10616M 10728M 10748M 10806M 10900  11019M 11029M 11039  11060M
             11060  11106  11116M 11117M 11119  11130M 11277  11381M 11406M 11423M 11442M 11480  11530M 11619  11690
             11783  11818M 11828M 11838  11861M 11878  11886M 11903M 11942M 12008M 12048M 12054M 12074M 12098  12128
             12136M 12153M 12192M 12222M 12251  12328  12472M 12503  12564  12626  12693  12716M 12716  12739  12751M
             12780M 12839M 12858M 12883M 12908M 12933M 12958M 12983M 13008M 13033M 13058M 13114  13246  13274  13415M
             13442  13590M 13702  13730  13759  13768  13881  13957  14027M 14078M 14110M 14188  14249  14257  14267
             14294M 14295M 14364M 14395  14456  14509M 14544M 14598  14669  14702M 14712M 14722  14749M 14751  14779M
             14822M 14863M 14892  14978  15146M 15357M 15430M
     2(2)      974U  2097   7339   7784M  7852   7938M  7967   8110M  8111M  8111   8150U  8272U  8282M  8282   8310
              8320M  8335M  8335   8364   8392   8489M  8555   8581M  8596   8670M  8703M  8739   8819M  8834   8905
              9058   9072M  9101M  9132   9193   9220   9248   9283M  9315   9376   9403   9431   9471M  9530   9604M
              9606M  9607M  9608M  9650   9715M  9788   9887  10250M 10278  10339  10443M 10504  10575  10806M 10839
             10900  11155M 11216  11277  11481M 11488M 11504M 11504  11518  11525  11532M 11534  11564M 11619  11690
             11878  11880M 11903  11942M 12128  12130M 12153  12192M 12222M 12251  12328  12368M 12390  12472M 12503
             12564  12591M 12603M 12603  12617  12626  12635M 12636M 12637M 12693  12739  12780M 12811  13078M 13114
             13246  13274  13415M 13442  13492M 13550  13590M 13626  13702  13730  13759  13825D 13827M 13827  13828M
             13829U 13831  13881  13896M 13957  13988  14141M 14188  14249  14364M 14395  14456  14544M 14598  14669
             14863M 14892  14978  15014D 15016M 15016  15017M 15018U 15020  15053  15430M
     3(3)      970U  2097   7339   7784M  7852   7938M  7967   8283M  8296M  8296   8317M  8489M  8555   8582M  8669M
              8703M  8739   8820M  9071M  9101M  9132   9193   9220   9248   9283M  9315   9376   9403   9431   9471M
              9530   9650   9715M  9788   9887  10250M 10278  10339  10443M 10504  10575  10806M 10839  10900  11155M
             11216  11277  11480M 11487M 11530  11531M 11533  11564M 11619  11690  12222M 12251  12328  12472M 12503
             12564  12626  12693  12739  12780M 12811  13078M 13114  13157M 13172  13246  13274  13384M 13415M 13442
             13485M 13492  13502U 13508M 13509M 13509  13550M 13561U 13590M 13626  13702  13730  13759  13881  13889M
             13896  13914U 13920M 13921M 13921  13957  13974  13988M 14009U 14141M 14188  14249  14258M 14275  14288
             14364M 14395  14456  14544M 14598  14669  14863M 14892  14978  15430M
     4(4)      966U  2097   7339   7784M  7852   7938M  7967   8489M  8555   8611M  8612M  8612   8627U  8664U  8703M
              8739   8863M  8873U  8885   9026U  9029   9057   9101M  9132   9193   9220   9248   9283M  9315   9376
              9403   9431   9471M  9530   9650   9715M  9788   9887   9914M  9924U 10055U 10250M 10278  10339  10443M
             10504  10575  10660M 10670U 10783U 10806M 10839  10900  11155M 11216  11277  11564M 11619  11690  12222M
             12251  12328  12472M 12503  12564  12626  12693  12739  12780M 12811  13078M 13114  13158M 13246  13274
             13383M 13415M 13442  13590M 13626  13702  13730  13759  13881  13957  14141M 14188  14249  14257M 14293
             14364M 14395  14456  14485M 14544M 14598  14669  14747M 14863M 14892  14938M 14978  15390  15430M
1         (PATH2193) (12:51) (15MAR04) General Purpose Register Cross Reference                                             Page   73
     5(5)      962U  2097   7339   7368M  7368   7417M  7417   7423   7486   7714M  7729   7762M  7784M  7852   7917M
              7919   7938M  7967   7993M  8003U  8476U  8489M  8555   8703M  8739   8765M  8777M  8777   8917M  8917
              9039M  9039   9101M  9132   9193   9220   9248   9257M  9258   9283M  9315   9376   9403   9431   9471M
              9530   9650   9715M  9788   9852M  9862U  9887  10232U 10250M 10278  10304M 10314U 10339  10430U 10443M
             10504  10540M 10550U 10575  10788U 10806M 10839  10865M 10875U 10900  11142U 11155M 11216  11242M 11252U
             11277  11551U 11564M 11619  11655M 11665U 11690  12204U 12222M 12251  12278M 12288U 12328  12459U 12472M
             12503  12529M 12539U 12564  12626  12693  12739  12767U 12780M 12811  13078M 13114  13187M 13188M 13188
             13203U 13246  13274  13368  13378U 13415M 13442  13590M 13626  13652M 13662U 13702  13730  13759  13870
             13881  13911U 13957  13974  14004U 14128U 14141M 14188  14214M 14224U 14249  14351U 14364M 14395  14421M
             14431U 14456  14531U 14544M 14598  14634M 14644U 14669  14845U 14863M 14892  14918M 14934U 14938  14941M
             14942M 14942  14978  15390M 15410U 15430M
     6(6)      958U  2097   7339   7423M  7425M  7426M  7427M  7715M  7761M  7784M  7852   7938M  7967   8489M  8555
              8703M  8739   9101M  9132   9158M  9168U  9193   9220   9248   9270U  9283M  9315   9341M  9351U  9376
              9403   9431   9458U  9471M  9530   9650   9715M  9788   9887  10250M 10278  10339  10443M 10504  10575
             10806M 10839  10900  11155M 11216  11277  11564M 11619  11690  12222M 12251  12293M 12303U 12328  12454U
             12472M 12503  12564  12626  12693  12739  12780M 12811  13078M 13114  13140M 13150U 13218  13246  13274
             13402U 13415M 13442  13468M 13478U 13536  13577U 13590M 13626  13666M 13676U 13702  13730  13750  13759
             13881  13957  14123U 14141M 14188  14249  14267M 14315  14316  14334  14335  14364M 14395  14456  14544M
             14598  14669  14863M 14892  14978  15079M 15089U 15137  15348  15397U 15430M
     7(7)      954U  2090M  2090   2091B  2097   2103B  7339   7344M  7356U  7776U  7784M  7852   7857M  7869U  7930U
              7938M  7967   7972M  7984U  8481U  8489M  8555   8560M  8572U  8695U  8703M  8739   8744M  8756U  9093U
              9101M  9132   9137M  9149U  9193   9220   9248   9275U  9283M  9315   9320M  9332U  9376   9403   9431
              9463U  9471M  9530   9535M  9547U  9650   9707U  9715M  9788   9794M  9806U  9887  10242U 10250M 10278
             10283M 10295U 10339  10435U 10443M 10504  10510M 10522U 10575  10798U 10806M 10839  10844M 10856U 10900
             11147U 11155M 11216  11221M 11233U 11277  11556U 11564M 11619  11625M 11637U 11690  12214U 12222M 12251
             12256M 12268U 12328  12464U 12472M 12503  12508M 12520U 12564  12626  12693  12739  12772U 12780M 12811
             12816M 12828U 13070U 13078M 13114  13119M 13131U 13246  13274  13407U 13415M 13442  13447M 13459U 13582U
             13590M 13626  13631M 13643U 13702  13730  13759  13881  13957  14133U 14141M 14188  14193M 14205U 14249
             14356U 14364M 14395  14400M 14412U 14456  14536U 14544M 14598  14604M 14616U 14669  14855U 14863M 14892
             14897M 14909U 14978  15422U 15430M
     8(8)      950U  2097   7339   7340M  7780   7784M  7852   7853M  7919N  7934   7938M  7967   7968M  8485   8489M
              8555   8556M  8699   8703M  8739   8740M  9097   9101M  9132   9133M  9193   9220   9248   9279   9283M
              9315   9316M  9376   9403   9431   9467   9471M  9530   9531M  9650   9711   9715M  9788   9790M  9820U
              9887  10225  10237U 10246  10250M 10278  10279M 10339  10439  10443M 10504  10506M 10536U 10575  10793U
             10802  10806M 10839  10840M 10900  11151  11155M 11216  11217M 11277  11560  11564M 11619  11621M 11651U
             11690  12209U 12218  12222M 12251  12252M 12328  12392N 12442N 12468  12472M 12503  12504M 12564  12626
             12693  12739  12776  12780M 12811  12812M 13074  13078M 13114  13115M 13246  13274  13411  13415M 13442
             13443M 13586  13590M 13626  13627M 13702  13730  13759  13881  13957  14137  14141M 14188  14189M 14249
             14360  14364M 14395  14396M 14456  14540  14544M 14598  14600M 14630U 14669  14850U 14859  14863M 14892
             14893M 14978  15426  15430M
     9(9)      946U  2097   9193   9220   9248   9376   9403   9431   9650   9887  10339  10575  10900  11277  11690
             12328  12564  12626  12693  12739  13246  13274  13702  13730  13759  13881  13957  14249  14456  14669
             14978
    10(A)      942U  2097   9193   9220   9248   9376   9403   9431   9650   9887  10339  10575  10900  11277  11690
             12328  12564  12626  12693  12739  13246  13274  13702  13730  13759  13881  13957  14249  14456  14669
             14978
    11(B)      938U  1161U  2097   9193   9220   9248   9376   9403   9431   9650   9887  10339  10575  10900  11277
             11690  12328  12564  12626  12693  12739  13246  13274  13702  13730  13759  13881  13957  14160U 14249
             14456  14669  14978
    12(C)      934U  1170U  2097   9193   9220   9248   9376   9403   9431   9650   9887  10339  10575  10900  11277
             11690  12328  12564  12626  12693  12739  13246  13274  13702  13730  13759  13881  13957  14249  14456
             14669  14978
    13(D)      930U  2097   7336   7339   7340   7341M  7341   7379   7380   7381   7383M  7383   7396M  7397   7398
              7399   7780M  7784   7786   7849   7852   7853   7854M  7854   7934M  7938   7940   7964   7967   7968
              7969M  7969   8485M  8489   8491   8552   8555   8556   8557M  8557   8699M  8703   8705   8736   8739
              8740   8741M  8741   9097M  9101   9103   9129   9132   9133   9134M  9134   9193   9220   9248   9279M
              9283   9285   9312   9315   9316   9317M  9317   9376   9403   9431   9467M  9471   9473   9527   9530
              9531   9532M  9532   9650   9711M  9715   9717   9785   9788   9790   9791M  9791   9887  10173  10174M
             10174  10181M 10182  10246M 10250  10252  10275  10278  10279  10280M 10280  10339  10439M 10443  10445
1         (PATH2193) (12:51) (15MAR04) General Purpose Register Cross Reference                                             Page   74
             10501  10504  10506  10507M 10507  10575  10802M 10806  10808  10836  10839  10840  10841M 10841  10900
             11151M 11155  11157  11213  11216  11217  11218M 11218  11277  11560M 11564  11566  11616  11619  11621
             11622M 11622  11690  11878  11879M 11879  11941M 11942  12128  12129M 12129  12191M 12192  12218M 12222
             12224  12248  12251  12252  12253M 12253  12328  12468M 12472  12474  12500  12503  12504  12505M 12505
             12564  12626  12693  12739  12776M 12780  12782  12808  12811  12812  12813M 12813  13074M 13078  13080
             13111  13114  13115  13116M 13116  13246  13274  13411M 13415  13417  13439  13442  13443  13444M 13444
             13586M 13590  13592  13623  13626  13627  13628M 13628  13702  13730  13759  13881  13957  14137M 14141
             14143  14185  14188  14189  14190M 14190  14249  14360M 14364  14366  14392  14395  14396  14397M 14397
             14456  14540M 14544  14546  14595  14598  14600  14601M 14601  14669  14859M 14863  14865  14889  14892
             14893  14894M 14894  14978  15426M 15430  15432
    14(E)      926U  2097   2098M  2112   2113M  2114B  2116M  2117B  2137M  2138B  2142M  2143B  2145M  2146B  2148M
              2149B  2151M  2152B  2154M  2155M  2155B  2161   7336   7378M  7379   7380   7381   7386M  7387   7390M
              7391M  7391B  7394M  7397   7398   7399   7404M  7405M  7405B  7446M  7447M  7447B  7479M  7480M  7480B
              7501M  7502M  7502B  7549M  7550M  7550B  7567M  7568M  7568B  7592M  7593M  7593B  7617M  7618M  7618B
              7636M  7637M  7637B  7661M  7662M  7662B  7686M  7687M  7687B  7711M  7712M  7712B  7754M  7755M  7755B
              7786M  7789B  7849   7911M  7912M  7912B  7940M  7943B  7964   8031M  8032M  8032B  8049M  8050M  8050B
              8083M  8084M  8084B  8105M  8106M  8106B  8139M  8140M  8140B  8173M  8174M  8174B  8191M  8192M  8192B
              8219M  8220M  8220B  8237M  8238M  8238B  8265M  8266M  8266B  8357M  8358M  8358B  8379M  8380M  8380B
              8415M  8416M  8416B  8437M  8438M  8438B  8467M  8468M  8468B  8491M  8494B  8552   8657M  8658M  8658B
              8705M  8708B  8736   8860M  8861M  8861B  8885M  8897M  9005M  9006M  9006B  9103M  9106B  9129   9193
              9194M  9220   9221M  9248   9249M  9285M  9288B  9312   9376   9377M  9403   9404M  9431   9432M  9473M
              9476B  9527   9650   9651M  9717M  9720B  9785   9887   9888M 10163M 10164M 10164B 10178M 10179M 10179B
             10252M 10255B 10275  10339  10340M 10445M 10448B 10501  10575  10576M 10808M 10811B 10836  10900  10901M
             10950M 10951M 10951B 11078M 11079M 11079B 11157M 11160B 11213  11277  11278M 11308M 11309M 11309B 11337M
             11338M 11338B 11410M 11411M 11411B 11566M 11569B 11616  11690  11691M 11721M 11722M 11722B 11749M 11750M
             11750B 11765M 11766M 11766B 11896M 11897M 11897B 11916M 11917M 11917B 11938M 11939M 11939B 11946M 11947M
             11947B 12018M 12019M 12019B 12040M 12041M 12041B 12058M 12059M 12059B 12078M 12079M 12079B 12146M 12147M
             12147B 12166M 12167M 12167B 12188M 12189M 12189B 12224M 12227B 12248  12328  12329M 12387M 12388M 12388B
             12474M 12477B 12500  12564  12565M 12578M 12579M 12579B 12586M 12587M 12587B 12626  12627M 12693  12694M
             12739  12740M 12754M 12755M 12755B 12782M 12785B 12808  13080M 13083B 13111  13246  13247M 13274  13275M
             13323M 13324M 13324B 13354M 13355M 13355B 13417M 13420B 13439  13592M 13595B 13623  13702  13703M 13730
             13731M 13759  13760M 13816M 13817M 13817B 13859M 13860M 13860B 13880M 13881  13957  13958M 14023M 14024M
             14024B 14143M 14146B 14185  14249  14250M 14265M 14266M 14266B 14283M 14295M 14366M 14369B 14392  14456
             14457M 14513M 14514M 14514B 14546M 14549B 14595  14669  14670M 14826M 14827M 14827B 14865M 14868B 14889
             14978  14979M 15049M 15050M 15050B 15156M 15157M 15157B 15207M 15208M 15208B 15278M 15279M 15279B 15367M
             15368M 15368B 15432M 15435B
    15(F)      922U  2097   7400M  7400   7430M  7431M  7431   7476M  7498M  7546M  7564M  7589M  7614M  7633M  7658M
              7683M  7708M  7744M  7745M  7745   7788M  7788   7923M  7923   7942M  7942   7993   8028M  8046M  8080M
              8102M  8136M  8170M  8188M  8216M  8234M  8262M  8354M  8376M  8412M  8434M  8464M  8493M  8493   8654M
              8688M  8688   8707M  8707   8808M  8890M  8896   8897M  8962D  8964M  8964   8965M  8966U  8978   8984M
              9016M  9017   9018M  9019   9049M  9050M  9051   9062M  9062   9085M  9105M  9105   9158   9193   9220
              9248   9263M  9263   9287M  9287   9341   9376   9403   9431   9451M  9451   9475M  9475   9593M  9650
              9680M  9700M  9700   9719M  9719   9852   9887  10088M 10088  10138M 10138  10160M 10173  10175M 10182M
             10254M 10254  10304  10339  10387M 10388  10389M 10391  10406M 10407  10410M 10447M 10447  10540  10575
             10604M 10626M 10626  10733M 10753M 10776M 10776  10810M 10810  10865  10900  10947M 11018M 11019  11020M
             11022  11037M 11038  11041M 11051M 11070M 11070  11115M 11118  11121M 11135M 11135  11159M 11159  11242
             11277  11305M 11334M 11383M 11407M 11444M 11543M 11543  11568M 11568  11655  11690  11718M 11746M 11762M
             11770M 11770  11817M 11818  11819M 11821  11836M 11837  11840M 11849M 11871M 11871  11878  11880  11893M
             11913M 11935M 11942M 11959  12015M 12037M 12055M 12063M 12063  12075M 12121M 12121  12128  12130  12143M
             12163M 12185M 12192M 12226M 12226  12278  12328  12384M 12476M 12476  12529  12564  12575M 12583M 12626
             12663M 12664M 12665  12693  12707M 12739  12760M 12760  12784M 12784  12849M 12849  12874  12899  12924
             12949  12974  12999  13024  13049  13082M 13082  13246  13274  13320M 13356M 13394M 13394  13419M 13419
             13542M 13551  13570M 13570  13594M 13594  13652  13702  13730  13759  13772M 13787M 13788M 13793  13813M
             13881  13882M 13883B 13957  13980M 13989  14059M 14059  14107M 14145M 14145  14214  14249  14288M 14294
             14295M 14333M 14344M 14344  14368M 14368  14421  14456  14486M 14487  14496M 14496  14503  14524M 14524
             14548M 14548  14634  14669  14701M 14702  14703M 14705  14720M 14721  14724M 14767M 14789M 14789  14799M
             14800  14809M 14809  14816  14837M 14837  14867M 14867  14978  15046M 15111M 15112M 15112  15137M 15138
             15152  15153M 15266M 15267M 15267  15321M 15322M 15322  15348M 15349  15363  15364M 15382M 15391  15434M
             15434
1         (PATH2193) (12:51) (15MAR04) General Purpose Register Cross Reference                                             Page   75

1PATH     (PATH2193) (12:51) (15MAR04) Diagnostic Cross Reference and Assembler Summary                                     Page   76
-                                                                                            HLASM R4.0  2004/03/15 12.51
0     No Statements Flagged in this Assembly
 HIGH LEVEL ASSEMBLER, 5696-234, RELEASE 4.0, PTF P72483
0SYSTEM: OS/390 02.10.00            JOBNAME: WYL#PATH    STEPNAME: ASM        PROCSTEP: (NOPROC)
0Datasets Allocated for this Assembly
  Con DDname   Dataset Name                                 Volume  Member
   P1 SYSIN    WYL.GS.WYL.WYLBUR.SOURCE                     SYSB05  PATH
   L1 SYSLIB   WYL.GS.WYL.WYLBUR.MACLIB                     SYSB05
   L2          WYL.GG.SYS.MACLIB                            SYSB05
   L3          SYS3.IS.MACLIB                               SYSB05
   L4          SYS3.MACLIB                                  SYSB02
   L5          SYS1.MACLIB                                  MVSBR9
   L6          SYS1.MODGEN                                  MVSBR9
      SYSPRINT SYS04075.T125119.RA000.WYL#PATH.PRINT.H01    SCR101
      SYSTERM  GG$SLP.WYL#PATH.JOB03554.D0000101.?

    3668K allocated to Buffer Pool,         2141K would be required for this to be an In-Storage Assembly
    1323 Primary Input Records Read         7912 Library Records Read                  0 Work File Reads
       0 ASMAOPT Records Read               6000 Primary Print Records Written         0 Work File Writes
       0 Punch Records Written                 0 ADATA Records Written
0Assembly Start Time: 12.51.21 Stop Time: 12.51.31 Processor Time: 00.00.02.7820
 Return Code 000
