1                        J E S 2  J O B  L O G  --  S Y S T E M  S Y S B  --  N O D E  R L G
0
 12.58.51 JOB03580 ---- MONDAY,    15 MAR 2004 ----
 12.58.51 JOB03580  ICH70001I GG$SLP   LAST ACCESS AT 12:58:34 ON MONDAY, MARCH 15, 2004
 12.58.51 JOB03580  $HASP373 WYL#UTIL STARTED - INIT 9    - CLASS B - SYS SYSB
 12.58.51 JOB03580  ***  HCMD      STEP $$QUIET
 12.58.51 JOB03580  PUR * Q OUT MUL
 12.58.51 JOB03580  JOB 5443 WYL#UTIL WILL BE PURGED
 12.58.52 JOB03580  WYL#UTIL.$$QUIET .         RC=Zero TapeIO=0000 DiskIO=0000 CPU=  .01s Elapsed=31.50s
 12.59.20 JOB03580  WYL#UTIL.ASM     .         RC=Zero TapeIO=0000 DiskIO=0726 CPU= 4.35s Elapsed=32.72s
 12.59.25 JOB03580  WYL#UTIL.EDIT    .         RC=Zero TapeIO=0000 DiskIO=0300 CPU=  .85s Elapsed=60.41s
 12.59.25 JOB03580  WYL#UTIL Ended.  Name=Assemble UTIL                  Total CPU= 5.21s Elapsed=31.50s
 12.59.25 JOB03580
 12.59.25 JOB03580  Execution charges   Priority=Standard   Block=Day
 12.59.25 JOB03580
 12.59.25 JOB03580  CPU Usage          96.18          $59.63   Standard Processing Unit Equivalent
 12.59.25 JOB03580                                   =======
 12.59.25 JOB03580                                    $59.63   Total Job execution charge
 12.59.25 JOB03580
 12.59.25 JOB03580  See back separator page for print charges
 12.59.25 JOB03580
 12.59.25 JOB03580  $HASP395 WYL#UTIL ENDED  ASM=0, EDIT=0
1        1 //WYL#UTIL JOB SLP$GG,'Assemble UTIL',TIME=4,REGION=4M                  JOB03580
           //*
           /*JOBPARM LINES=99,COPIES=1
           /*JOBPARM FORMS=3HOL,PFORMAT=LAND,CHARS=BD13,DUPLEX=YES,FLASH=BAR4
           //*
           /*JOBPARM NOTIFY=GG.SLP,HOLD=OUTPUT                                     WYLGEN
         2 //$$QUIET EXEC PGM=HCMDX,PARM='PUR * Q OUT MUL'
           //*
         3 //ASM    EXEC PGM=ASMA90,REGION=8M,
           //            PARM=('NORENT,TERM,FLAG(NOCONT),US(MAP,WARN(10)),NODECK',
           //            'LC(32767),XREF(SHORT),ESD,DXREF,NOOBJECT')
         4 //STEPLIB DD DSN=SYS3.IS.TESTASM,DISP=SHR
         5 //SYSLIB   DD  DSN=WYL.GS.WYL.WYLBUR.MACLIB,DISP=SHR
         6 //         DD  DSN=WYL.GG.SYS.MACLIB,DISP=SHR
         7 //         DD  DSN=SYS3.IS.MACLIB,DISP=SHR
         8 //         DD  DSN=SYS3.MACLIB,DISP=SHR
         9 //         DD  DSN=SYS1.MACLIB,DISP=SHR
        10 //         DD  DSN=SYS1.MODGEN,DISP=SHR
        11 //SYSUT1   DD DSN=&&SYSUT1,UNIT=VIO,DISP=(,DELETE),
           //            SPACE=(4088,(500,250),,CONTIG,ROUND)
        12 //SYSTERM  DD SYSOUT=T
        13 //SYSPRINT DD DSN=&&PRINT,UNIT=SYSDA,DISP=(,PASS),
           //            SPACE=(6650,(250,250),RLSE),
           //            DCB=(BLKSIZE=6650,LRECL=133,RECFM=FB)
        14 //SYSUDUMP DD SYSOUT=A
        15 //SYSIN    DD  DSN=WYL.GS.WYL.WYLBUR.SOURCE(UTIL),DISP=SHR
           //*
        16 //EDIT    EXEC PGM=ASMEDIT,TIME=2,REGION=4000K,
           //             PARM='STMT'
        17 //STEPLIB  DD  DSN=WYL.GG.SYS.LINKLIB,DISP=SHR
        18 //ASMOUT   DD  DSN=&PRINT,DISP=(OLD,DELETE)
        19 //SYSPRINT DD  SYSOUT=A
1 STMT NO. MESSAGE
 -
        11 IGD01010I STORCLAS= TEMP STORGROUP =
        11 IGD01010I STORGRP=VIO ASSIGNED.
        13 IGD01010I STORCLAS= TEMP STORGROUP =
        13 IGD01010I STORGRP=VIO ASSIGNED.
 ICH70001I GG$SLP   LAST ACCESS AT 12:58:34 ON MONDAY, MARCH 15, 2004
 IEF142I WYL#UTIL $$QUIET - STEP WAS EXECUTED - COND CODE 0000
 *********************************************************************************
 *   WYL#UTIL/$$QUIET /                    Return Code      Zero                 *
 *   Region used      260K (16K user + 244K system)                              *
 *   Extended region  9464K (4K user + 9460K system)                             *
 *                                                                               *
 *   Paging              In      Out                                             *
 *   Private <-> Aux      0        0       CPU time (TCB)   00:00:00.01          *
 *   Private <-> Exp      0        0       CPU time (SRB)   00:00:00.00          *
 *   VIO                  0        0       Elapsed time    917:29:01.46          *
 *   Common               0      ---                                             *
 *                                                                               *
 *                                                                               *
 *   CPU Usage          0.18         $0.11  Standard Processing Unit Equivalent  *
 *                                   $0.11  Total Step execution charge          *
 *                                                                               *
 *    I/O count  DDname   Type Addr           I/O count  DDname   Type Addr      *
 *                         *** No I/O for this step ***                          *
 *********************************************************************************
 IEF373I STEP/$$QUIET /START 2004075.1258
 IEF374I STEP/$$QUIET /STOP  2004075.1258 CPU    0MIN 00.01SEC SRB    0MIN 00.00SEC VIRT    16K SYS   244K EXT       4K SYS    9460K
 IEF236I ALLOC. FOR WYL#UTIL ASM
 IEF237I 04DC ALLOCATED TO STEPLIB
 IEF237I 04DC ALLOCATED TO SYSLIB
 IEF237I 04DC ALLOCATED TO
 IEF237I 04DC ALLOCATED TO
 IEF237I 0402 ALLOCATED TO
 IEF237I 04A0 ALLOCATED TO
 IEF237I 04A0 ALLOCATED TO
 IGD101I SMS ALLOCATED TO DDNAME (SYSUT1  )
         DSN (SYS04075.T125851.RA000.WYL#UTIL.SYSUT1.H01  )
         STORCLAS (TEMP) MGMTCLAS (        ) DATACLAS (        )
         VOL SER NOS= VIO
 IEF237I JES2 ALLOCATED TO SYSTERM
 IGD101I SMS ALLOCATED TO DDNAME (SYSPRINT)
         DSN (SYS04075.T125851.RA000.WYL#UTIL.PRINT.H01   )
         STORCLAS (TEMP) MGMTCLAS (        ) DATACLAS (        )
         VOL SER NOS= SCR100
 IEF237I JES2 ALLOCATED TO SYSUDUMP
 IEF237I 04DC ALLOCATED TO SYSIN
 IEF142I WYL#UTIL ASM - STEP WAS EXECUTED - COND CODE 0000
 IEF285I   SYS3.IS.TESTASM                              KEPT
 IEF285I   VOL SER NOS= SYSB05.
 IEF285I   WYL.GS.WYL.WYLBUR.MACLIB                     KEPT
 IEF285I   VOL SER NOS= SYSB05.
 IEF285I   WYL.GG.SYS.MACLIB                            KEPT
 IEF285I   VOL SER NOS= SYSB05.
 IEF285I   SYS3.IS.MACLIB                               KEPT
 IEF285I   VOL SER NOS= SYSB05.
 IEF285I   SYS3.MACLIB                                  KEPT
 IEF285I   VOL SER NOS= SYSB02.
 IEF285I   SYS1.MACLIB                                  KEPT
 IEF285I   VOL SER NOS= MVSBR9.
 IEF285I   SYS1.MODGEN                                  KEPT
 IEF285I   VOL SER NOS= MVSBR9.
 IGD105I SYS04075.T125851.RA000.WYL#UTIL.SYSUT1.H01   DELETED,   DDNAME=SYSUT1
 IEF285I   GG$SLP.WYL#UTIL.JOB03580.D0000101.?          SYSOUT
 IGD106I SYS04075.T125851.RA000.WYL#UTIL.PRINT.H01    PASSED,    DDNAME=SYSPRINT
 IEF285I   GG$SLP.WYL#UTIL.JOB03580.D0000102.?          SYSOUT
 IEF285I   WYL.GS.WYL.WYLBUR.SOURCE                     KEPT
 IEF285I   VOL SER NOS= SYSB05.
 *********************************************************************************
 *   WYL#UTIL/ASM     /                    Return Code      Zero                 *
 *   Region used      4376K (4096K user + 280K system)                           *
 *   Extended region  10064K (412K user + 9652K system)                          *
 *                                                                               *
 *   Paging              In      Out                                             *
 *   Private <-> Aux      0        0       CPU time (TCB)   00:00:04.29          *
 *   Private <-> Exp      0        0       CPU time (SRB)   00:00:00.06          *
 *   VIO                  0        0       Elapsed time    917:29:00.24          *
 *   Common               0      ---                                             *
 *                                                                               *
 *                                                                               *
 *   CPU Usage         80.43        $49.86  Standard Processing Unit Equivalent  *
 *                                  $49.86  Total Step execution charge          *
 *                                                                               *
 *    I/O count  DDname   Type Addr           I/O count  DDname   Type Addr      *
 *           90  STEPLIB  Disk 04DC                 331  SYSLIB   Disk 04DC      *
 *            0  SYSLIB   Disk 04DC                   0  SYSLIB   Disk 04DC      *
 *            0  SYSLIB   Disk 0402                   0  SYSLIB   Disk 04A0      *
 *            0  SYSLIB   Disk 04A0                   0  SYSUT1   VIO  ----      *
 *            0  SYSTERM       ----                 297  SYSPRINT Disk 038B      *
 *            0  SYSUDUMP      ----                   8  SYSIN    Disk 04DC      *
 *********************************************************************************
 IEF373I STEP/ASM     /START 2004075.1258
 IEF374I STEP/ASM     /STOP  2004075.1259 CPU    0MIN 04.29SEC SRB    0MIN 00.06SEC VIRT  4096K SYS   280K EXT     412K SYS    9652K
 IEF236I ALLOC. FOR WYL#UTIL EDIT
 IEF237I 0402 ALLOCATED TO STEPLIB
 IGD103I SMS ALLOCATED TO DDNAME ASMOUT
 IEF237I JES2 ALLOCATED TO SYSPRINT
 IEF142I WYL#UTIL EDIT - STEP WAS EXECUTED - COND CODE 0000
 IEF285I   WYL.GG.SYS.LINKLIB                           KEPT
 IEF285I   VOL SER NOS= SYSB02.
 IGD105I SYS04075.T125851.RA000.WYL#UTIL.PRINT.H01    DELETED,   DDNAME=ASMOUT
 IEF285I   GG$SLP.WYL#UTIL.JOB03580.D0000103.?          SYSOUT
 *********************************************************************************
 *   WYL#UTIL/EDIT    /                    Return Code      Zero                 *
 *   Region used      380K (116K user + 264K system)                             *
 *   Extended region  9584K (4K user + 9580K system)                             *
 *                                                                               *
 *   Paging              In      Out                                             *
 *   Private <-> Aux      0        0       CPU time (TCB)   00:00:00.83          *
 *   Private <-> Exp      0        0       CPU time (SRB)   00:00:00.02          *
 *   VIO                  0        0       Elapsed time    917:28:32.55          *
 *   Common               0      ---                                             *
 *                                                                               *
 *                                                                               *
 *   CPU Usage         15.56         $9.64  Standard Processing Unit Equivalent  *
 *                                   $9.64  Total Step execution charge          *
 *                                                                               *
 *    I/O count  DDname   Type Addr           I/O count  DDname   Type Addr      *
 *            2  STEPLIB  Disk 0402                 298  ASMOUT   Disk 038B      *
 *            0  SYSPRINT      ----                                              *
 *********************************************************************************
 IEF373I STEP/EDIT    /START 2004075.1259
 IEF374I STEP/EDIT    /STOP  2004075.1259 CPU    0MIN 00.83SEC SRB    0MIN 00.02SEC VIRT   116K SYS   264K EXT       4K SYS    9580K
 *********************************************************************************
 *                                                                               *
 *                      S t a n f o r d   U n i v e r s i t y                    *
 *                                                                               *
 *                              *** Job Summary ***                              *
 *                                                                               *
 *   System Id      SYSB                   Input time     12:39:37  Mar 15, 2004 *
 *                                                                               *
 *   System Release SP6.1.0                Start time     12:58:51  Mar 15, 2004 *
 *                                                                               *
 *   Job name       WYL#UTIL               Stop  time     00:00:00  Mar 15, 2004 *
 *                                                                               *
 *   Account        SLP$GG                 Elapsed time  917:29:01.46            *
 *                                                                               *
 *   User Name      Assemble UTIL          CPU time       00:00:05.13            *
 *                                                                               *
 *   Job class      B                      SRB Time       00:00:00.08            *
 *                                                                               *
 *********************************************************************************
 IEF375I  JOB/WYL#UTIL/START 2004075.1258
 IEF376I  JOB/WYL#UTIL/STOP  2004075.1259 CPU    0MIN 05.13SEC SRB    0MIN 00.08SEC
1Assembler Done UTIL No Statements Flagged
1         High Level Assembler Option Summary                   (PTF P72483 )                                               Page    1
-                                                                                            HLASM R4.0  2004/03/15 12.58
0  No Overriding ASMAOPT Parameters
   Overriding Parameters-  NORENT,TERM,FLAG(NOCONT),US(MAP,WARN(10)),NODECK,LC(32767),XREF(SHORT),ESD,DXREF,NOOBJECT
   No Process Statements


   Options for this Assembly
0  NOADATA
     ALIGN
   NOASA
     BATCH
     CODEPAGE(047C)
   NOCOMPAT
   NODBCS
 3 NODECK
 3   DXREF
 3   ESD
   NOEXIT
 3   FLAG(0,ALIGN,NOCONT,NOIMPLEN,NOPAGE0,PUSH,RECORD,NOSUBSTR,USING0)
   NOFOLD
   NOGOFF
   NOINFO
     LANGUAGE(EN)
   NOLIBMAC
 3   LINECOUNT(32767)
     LIST(121)
     MXREF(SOURCE)
 3 NOOBJECT
     OPTABLE(UNI,NOLIST)
   NOPCONTROL
   NOPESTOP
   NOPROFILE
   NORA2
 3 NORENT
     RLD
     RXREF
     SIZE(MAX)
     SYSPARM()
 3   TERM(WIDE)
   NOTEST
     THREAD
   NOTRANSLATE
 3   USING(NOLIMIT,MAP,WARN(10))
 3   XREF(SHORT)

   No Overriding DD Names

1UTIL     External Symbol Dictionary                                                                                        Page    2
-Symbol   Type   Id     Address  Length     LD ID  Flags Alias-of                            HLASM R4.0  2004/03/15 12.58
0WYLUTIL   SD 00000001 00000000 00003CB8             00
 UTIL2025  LD          00000000           00000001
 SCNIGNOR  LD          00000018           00000001
 SCNCHECK  LD          00000054           00000001
 IGNOREND  LD          00000090           00000001
 CHECKEND  LD          0000014C           00000001
 YESNO     LD          00000208           00000001
 YESRTN    LD          00000246           00000001
 YESRTNH   LD          00000284           00000001
 YESREQ    LD          000002C6           00000001
 MNULL     ER 00000002
 MTOKEN    ER 00000003
 MALL      ER 00000004
 LOCLIST   LD          000007B0           00000001
 LISTLINE  LD          00000816           00000001
 ADDER     LD          000008C4           00000001
 SELDELTA  LD          000008FE           00000001
 LOWMULT   LD          00000974           00000001
 CVEXNO    LD          000009AA           00000001
 SEGCR     ER 00000005
 SEG       ER 00000006
 TREADQ    ER 00000007
 NSCAN     ER 00000008
 SCINIT    ER 00000009
 PREVLNO   ER 0000000A
 GETLINE   ER 0000000B
 CVEXNO    ER 0000000C
 DETAB     LD          00000B20           00000001
 SEGINIT   ER 0000000D
 FORMATL   LD          00000E7C           00000001
 UNFORML   LD          00001016           00000001
 TEXTONLY  LD          00001C9A           00000001
 CHARFMT   LD          00002A74           00000001
 HEXFMT    LD          00002BE2           00000001
 MIXFMT    LD          00002CEA           00000001
 ESCFMT    LD          00002DEA           00000001
 HEXDUMP   LD          00002F1A           00000001
 SQSHRTN   LD          0000317A           00000001
 CHARCHKA  LD          000031EE           00000001
 CHARCHK   LD          00003280           00000001
 BTX       ER 0000000E
 GTMIXTBL  ER 0000000F
 SEGB      ER 00000010
 MIXFMT    ER 00000011
 CNVDATE   LD          0000345C           00000001
 MINT      ER 00000012
 MLNO      ER 00000013
 NOTVALID  ER 00000014
 MPINT     ER 00000015
 MINSEG    LD          000037F4           00000001
 TOEBCDIC  LD          000038E6           00000001
 TOEBC7    LD          00003938           00000001
 TOASCII   LD          0000398A           00000001
 TOEVENP   LD          000039DC           00000001
 TOUPPER   LD          00003A2E           00000001
1UTIL     External Symbol Dictionary                                                                                        Page    3
 ENCRYPT   LD          00003A80           00000001
 DECRYPT   LD          00003B36           00000001
 SCANCHK   ER 00000016
 BTD       ER 00000017
 XTB       ER 00000018
 SEGDC     ER 00000019
 SEGWR     ER 0000001A

1UTIL     WYLBUR's Misc. Utility Routines                                                                                   Page    4
0Loc    Object Code    Addr1 Addr2  Stmt Lv Lineno    Source Statement                    (Asmedit 3.3)  HLASM R4.0  2004/03/15 12.58
+___    ______ ____    _____ _____  ____ __ ______    ______ _________
0                                      2              *******************************************************************
                                       3              *                                                                 *
                                       4              *     WYLBUR/370 - Release VI - Class I - Stanford Proprietary    *
                                       5              *                                                                 *
                                       6              *******************************************************************
                                       7                       HIBAL
                                     988
 000000                00000 03CB8   989              WYLUTIL  CSECT
                                     993              UTIL     IDENT 2025                11:49:37 01/25/02  (SLP)
                                     996             +
                                     997    01-IDENT +         ENTRY UTIL2025
                                     998             +
 000000 16E4E3C9D3F2F0F2             999    01-IDENT +UTIL2025 DC    AL1(22),C'UTIL2025,15MAR04,12:58'
                                    1000             +*
                                    1002                       REGS  FSR,,,,,,,BR,(WAR,LSR),PAR,PBR,CPR,CVR,SPR,RAR
-                                   1139                       SYSDEFN ,                 Define installation params
-                                   1141
                                    1142                       PUSH  DSECTS
 USING  CP,R11                      1153             =         USING (CP),(CV)
 USING  CV,R12
 000017                00000 03CB8  1172             =         POP   PRINT
1UTIL     (UTIL2025) (12:58) (15MAR04) DSECTS                                                                               Page    5
0Current Usings:  (CP,R11) (CV,R12)
0Loc    Object Code    Addr1 Addr2  Stmt Lv Lineno    Source Statement           (Hibal 5, Asmedit 3.3)  HLASM R4.0  2004/03/15 12.58
+___    ______ ____    _____ _____  ____ __ ______    ______ _________
0                                   6620              ¿þþþþþþþþþþþþþþþþþþþþþþþþþþþþþþþþþþþþþþþþþþþþþþþþþþþþþþþþþþþþþþþþþþþþþÜ
                                    6621              Ÿ                                                                     Ÿ
                                    6622              Ÿ                                                                     Ÿ
                                    6623              Ÿ   SCNIGNOR - CHECK IF JUNK AT END OF COMMAND LINE                   Ÿ
                                    6624              Ÿ                                                                     Ÿ
                                    6625              Ÿ   ON ENTRY:                                                         Ÿ
                                    6626              Ÿ       SCAN CONTROL BLOCK                                            Ÿ
                                    6627              Ÿ                                                                     Ÿ
                                    6628              Ÿ   ON EXIT:                                                          Ÿ
                                    6629              Ÿ       IF ANY JUNK ON LINE, WE TSEG IGNORE MESSAGE ON NEW LINE       Ÿ
                                    6630              Ÿ       R15 - CC=ZERO, NOTHING FOUND ON LINE                          Ÿ
                                    6631              Ÿ             CC=NZ, TEXT FOUND ON LINE, IGNORE MSG TSEG'D            Ÿ
                                    6632              Ÿ                                                                     Ÿ
                                    6633              Ÿ                                                                     Ÿ
                                                      ¾þþþþþþþþþþþþþþþþþþþþþþþþþþþþþþþþþþþþþþþþþþþþþþþþþþþþþþþþþþþþþþþþþþþþþ»
0000018 50E0 D000/9008_      00000  6634              SCNIGNOR XPROC  ,
 USING  *,R7
 000032 58E0 B08C/581E_      0008C  6674                       SCINFO ,
 000040 58E0 7A3E/0DEE       00A70  6683                       ACALL IGNOREND
 000046 18D8/9808 D004_             6687                       PEND  ,
 DROP   *,R7
1UTIL     (UTIL2025) (12:58) (15MAR04) DSECTS                                                                               Page    6
0Current Usings:  (CP,R11) (CV,R12)
0Loc    Object Code    Addr1 Addr2  Stmt Lv Lineno    Source Statement           (Hibal 5, Asmedit 3.3)  HLASM R4.0  2004/03/15 12.58
+___    ______ ____    _____ _____  ____ __ ______    ______ _________
0                                   6708              ¿þþþþþþþþþþþþþþþþþþþþþþþþþþþþþþþþþþþþþþþþþþþþþþþþþþþþþþþþþþþþþþþþþþþþþÜ
                                    6709              Ÿ                                                                     Ÿ
                                    6710              Ÿ                                                                     Ÿ
                                    6711              Ÿ   SCNCHECK - CHECK IF JUNK AT END OF COMMAND LINE                   Ÿ
                                    6712              Ÿ                                                                     Ÿ
                                    6713              Ÿ   ON ENTRY:                                                         Ÿ
                                    6714              Ÿ       SCAN CONTROL BLOCK                                            Ÿ
                                    6715              Ÿ                                                                     Ÿ
                                    6716              Ÿ   ON EXIT:                                                          Ÿ
                                    6717              Ÿ       IF ANY JUNK ON LINE, WE TSEG ERROR MESSAGE ON NEW LINE        Ÿ
                                    6718              Ÿ       R15 - CC=ZERO, NOTHING FOUND ON LINE                          Ÿ
                                    6719              Ÿ             CC=NZ, TEXT FOUND ON LINE, ERROR MSG TSEG'D             Ÿ
                                    6720              Ÿ                                                                     Ÿ
                                    6721              Ÿ                                                                     Ÿ
                                                      ¾þþþþþþþþþþþþþþþþþþþþþþþþþþþþþþþþþþþþþþþþþþþþþþþþþþþþþþþþþþþþþþþþþþþþþ»
0000054 50E0 D000/9008_      00000  6722              SCNCHECK XPROC  ,
 USING  *,R7
 00006E 58E0 B08C/581E_      0008C  6762                       SCINFO ,
 00007C 58E0 7A06/0DEE       00A74  6771                       ACALL CHECKEND
 000082 18D8/9808 D004_             6775                       PEND  ,
 DROP   *,R7
1UTIL     (UTIL2025) (12:58) (15MAR04) DSECTS                                                                               Page    7
0Current Usings:  (CP,R11) (CV,R12)
0Loc    Object Code    Addr1 Addr2  Stmt Lv Lineno    Source Statement           (Hibal 5, Asmedit 3.3)  HLASM R4.0  2004/03/15 12.58
+___    ______ ____    _____ _____  ____ __ ______    ______ _________
0                                   6796              ¿þþþþþþþþþþþþþþþþþþþþþþþþþþþþþþþþþþþþþþþþþþþþþþþþþþþþþþþþþþþþþþþþþþþþþÜ
                                    6797              Ÿ                                                                     Ÿ
                                    6798              Ÿ                                                                     Ÿ
                                    6799              Ÿ  IGNOREND - IGNORE JUNK AT END OF COMMAND LINE                      Ÿ
                                    6800              Ÿ                                                                     Ÿ
                                    6801              Ÿ  ON ENTRY:                                                          Ÿ
                                    6802              Ÿ       R1,R0 - LOC, LEN OF REMAINING STRING                          Ÿ
                                    6803              Ÿ                                                                     Ÿ
                                    6804              Ÿ  ON EXIT:                                                           Ÿ
                                    6805              Ÿ       IF ANYTHING LEFT ON LINE,,, A MESSAGE IS TSEG'D:              Ÿ
                                    6806              Ÿ           kdkdl --  ignored.                                        Ÿ
                                    6807              Ÿ       R15 - CC=ZERO, NOTHING FOUND ON LINE                          Ÿ
                                    6808              Ÿ             CC=NZ, TEXT FOUND ON LINE, IGNORE MSG TSEG'D            Ÿ
                                    6809              Ÿ                                                                     Ÿ
                                    6810              Ÿ                                                                     Ÿ
                                                      ¾þþþþþþþþþþþþþþþþþþþþþþþþþþþþþþþþþþþþþþþþþþþþþþþþþþþþþþþþþþþþþþþþþþþþþ»
0000090 50E0 D000/9008_      00000  6811              IGNOREND XPROC  ,
 USING  *,R7
 0000AA 1200/47D0 708E              6851                       IF    (R0,POS),BEGIN      IF MORE TEXT,,
 0000B0 1200/47D0 701E_             6865  1                      WHILE ((R0,POS),AND,(@R1,EQ,' ')),BEGIN   SKIP BLANKS
 0000BE 4111 0001            00001  6896  2                        LA    R1,1(R1)
 0000C2 0600                        6897  2                        DECR  R0
 0000C4 47F0 7006            000B0  6899  1                      END
 0000C8 1200/47D0 7088_             6904  1                      IF    ((R0,POS),AND,(@R1,NE,';')),BEGIN      IF JUNK,
 0000D6 9001 D000/41D0_      00000  6933  2                        XPUSH R0,R1
 0000DE D603 B05C B05C_0005C 0005C  6936  2                        TCCR
 0000FE 4BD0 7A1E/9801_      00AC8  6998  2                        XPOP  R0,R1
 000106 5900 79D2/47D0_      00A7C  7001  2                        CEIL  R0,30
 000112 41F0 B050/58E0_      00050  7020  2                        TSEG  (R1),(R0)
 00011C 4110 7A20/4100_      00ACA  7044  2                        TSEG  '  -- ignored. ',,CR
 00012E 41F0 0004            00004  7062  2                        LA    R15,4
 000132                             7063  1                      END
 000132 708C/708C/47F0_00132 000CC  7067  1                      ELSE  BEGIN ,             IF NO JUNK,
 000136 1BFF                        7080  2                        CLEAR R15
 000138                             7084  1                      END
 000138                             7088                       END
 000138 7092/47F0 7094 00138 000AE  7092                       ELSE  BEGIN ,             IF NO JUNK,
 00013C 1BFF                        7103  1                      CLEAR R15
 00013E                             7107                       END
 00013E 18D8/9808 D004_             7111                       PEND  ,
 DROP   *,R7
1UTIL     (UTIL2025) (12:58) (15MAR04) DSECTS                                                                               Page    8
0Current Usings:  (CP,R11) (CV,R12)
0Loc    Object Code    Addr1 Addr2  Stmt Lv Lineno    Source Statement           (Hibal 5, Asmedit 3.3)  HLASM R4.0  2004/03/15 12.58
+___    ______ ____    _____ _____  ____ __ ______    ______ _________
0                                   7132              ¿þþþþþþþþþþþþþþþþþþþþþþþþþþþþþþþþþþþþþþþþþþþþþþþþþþþþþþþþþþþþþþþþþþþþþÜ
                                    7133              Ÿ                                                                     Ÿ
                                    7134              Ÿ                                                                     Ÿ
                                    7135              Ÿ  CHECKEND - CHECK END IF JUNK AT END OF COMMAND LINE                Ÿ
                                    7136              Ÿ                                                                     Ÿ
                                    7137              Ÿ                                                                     Ÿ
                                    7138              Ÿ  ON ENTRY:                                                          Ÿ
                                    7139              Ÿ       R1,R0 - LOC, LEN OF REMAINING STRING                          Ÿ
                                    7140              Ÿ                                                                     Ÿ
                                    7141              Ÿ   ON EXIT:                                                          Ÿ
                                    7142              Ÿ       IF ANY JUNK ON LINE, WE TSEG ERROR MESSAGE ON NEW LINE        Ÿ
                                    7143              Ÿ       R15 - CC=ZERO, NOTHING FOUND ON LINE                          Ÿ
                                    7144              Ÿ             CC=NZ, TEXT FOUND ON LINE, ERROR MSG TSEG'D             Ÿ
                                    7145              Ÿ                                                                     Ÿ
                                    7146              Ÿ                                                                     Ÿ
                                    7147              Ÿ                                                                     Ÿ
                                                      ¾þþþþþþþþþþþþþþþþþþþþþþþþþþþþþþþþþþþþþþþþþþþþþþþþþþþþþþþþþþþþþþþþþþþþþ»
000014C 50E0 D000/9008_      00000  7148              CHECKEND XPROC  ,
 USING  *,R7
 000166 1200/47D0 708E              7188                       IF    (R0,POS),BEGIN      IF MORE TEXT,,
 00016C 1200/47D0 701E_             7202  1                      WHILE ((R0,POS),AND,(@R1,EQ,' ')),BEGIN   SKIP BLANKS
 00017A 4111 0001            00001  7233  2                        LA    R1,1(R1)
 00017E 0600                        7234  2                        DECR  R0
 000180 47F0 7006            0016C  7236  1                      END
 000184 1200/47D0 7088_             7241  1                      IF    ((R0,POS),AND,(@R1,NE,';')),BEGIN      IF JUNK,
 000192 9001 D000/41D0_      00000  7270  2                        XPUSH R0,R1
 00019A D603 B05C B05C_0005C 0005C  7273  2                        TCCR
 0001BA 4BD0 7962/9801_      00AC8  7335  2                        XPOP  R0,R1
 0001C2 5900 7916/47D0_      00A7C  7338  2                        CEIL  R0,30
 0001CE 41F0 B050/58E0_      00050  7357  2                        TSEG  (R1),(R0)
 0001D8 4110 7972/4100_      00AD8  7381  2                        TSEG  '  -- invalid. ',,CR
 0001EA 41F0 0004            00004  7399  2                        LA    R15,4
 0001EE                             7400  1                      END
 0001EE 708C/708C/47F0_001EE 00188  7404  1                      ELSE  BEGIN ,             IF NO JUNK
 0001F2 1BFF                        7417  2                        CLEAR R15
 0001F4                             7421  1                      END
 0001F4                             7425                       END
 0001F4 7092/47F0 7094 001F4 0016A  7429                       ELSE  BEGIN ,             IF NO JUNK
 0001F8 1BFF                        7440  1                      CLEAR R15
 0001FA                             7444                       END
 0001FA 18D8/9808 D004_             7448                       PEND  ,
 DROP   *,R7
1UTIL     (UTIL2025) (12:58) (15MAR04) DSECTS                                                                               Page    9
0Current Usings:  (CP,R11) (CV,R12)
0Loc    Object Code    Addr1 Addr2  Stmt Lv Lineno    Source Statement           (Hibal 5, Asmedit 3.3)  HLASM R4.0  2004/03/15 12.58
+___    ______ ____    _____ _____  ____ __ ______    ______ _________
0                                   7469              ¿þþþþþþþþþþþþþþþþþþþþþþþþþþþþþþþþþþþþþþþþþþþþþþþþþþþþþþþþþþþþþþþþþþþþþÜ
                                    7470              Ÿ                                                                     Ÿ
                                    7471              Ÿ  YESREQ/YESRTN/YESRTNH/YESNO -- Routine to prompt for permission.   Ÿ
                                    7472              Ÿ                                                                     Ÿ
                                    7473              Ÿ    On entry:                                                        Ÿ
                                    7474              Ÿ                                                                     Ÿ
                                    7475              Ÿ      R1,R0 - prompt loc, len                                        Ÿ
                                    7476              Ÿ              (If len is complimented then don't add "(Yes/No)".)    Ÿ
                                    7477              Ÿ                                                                     Ÿ
                                    7478              Ÿ    A reply of YES, Y, OK, or the prompt word is accepted as an      Ÿ
                                    7479              Ÿ    affirmative response.                                            Ÿ
                                    7480              Ÿ                                                                     Ÿ
                                    7481              Ÿ    YESREQ:                                                          Ÿ
                                    7482              Ÿ      Only returns if affirmative response given.                    Ÿ
                                    7483              Ÿ                                                                     Ÿ
                                    7484              Ÿ    YESNO:                                                           Ÿ
                                    7485              Ÿ      Returns if a Yes or a No response is given.                    Ÿ
                                    7486              Ÿ      On exit, R15 (and CC):                                         Ÿ
                                    7487              Ÿ         -4 - attn                                                   Ÿ
                                    7488              Ÿ          0 - affirmative                                            Ÿ
                                    7489              Ÿ          4 - no                                                     Ÿ
                                    7490              Ÿ                                                                     Ÿ
                                    7491              Ÿ    YESRTN:                                                          Ÿ
                                    7492              Ÿ      On exit, R15 (and CC):                                         Ÿ
                                    7493              Ÿ         -4 - attn                                                   Ÿ
                                    7494              Ÿ          0 - affirmative                                            Ÿ
                                    7495              Ÿ          4 - neg response given (R1,R0-loc,len)                     Ÿ
                                    7496              Ÿ                                                                     Ÿ
                                    7497              Ÿ    YESRTNH:                                                         Ÿ
                                    7498              Ÿ      On exit, R15 (and CC):                                         Ÿ
                                    7499              Ÿ         -4 - attn                                                   Ÿ
                                    7500              Ÿ          0 - affirmative                                            Ÿ
                                    7501              Ÿ          4 - neg response given (R1,R0-loc,len)                     Ÿ
                                    7502              Ÿ          8 - HELP (or ?) specified                                  Ÿ
                                    7503              Ÿ                                                                     Ÿ
                                                      ¾þþþþþþþþþþþþþþþþþþþþþþþþþþþþþþþþþþþþþþþþþþþþþþþþþþþþþþþþþþþþþþþþþþþþþ»
0000000                00000 0007C  7504              YESWA    RECORD BEGIN
 000000 00                          7512  1           YESFLAG    FLAG
 YESFLAG.YESFRTN   80 ONES          7516  1                      FLAG  YESFRTN             - always return to caller
 YESFLAG.YESFYESNO 40 ONES          7521  1                      FLAG  YESFYESNO           - return if Yes or No
 YESFLAG.YESFHELP  20 ONES          7526  1                      FLAG  YESFHELP            - return if Help
 000002                             7531  1           YESLEN     DS    H                   Prompt length
 000004                             7532  1           YESTEXT    DS    CL120
 00007C                0007C 0007C  7533                       END
                                    7542              *
                                    7543              *
 000208 50E0 D000/9008_      00000  7544              YESNO    XPROC YESWA
 USING  *,R7
 USING  YESWA-(4+36),R8
 000222 4160 8028            00000  7595                       LA    R6,YESWA
 000226 9200 8028      00000        7596                       CLEAR YESFLAG
 00022A 9640 8028      00000        7603                       SET   YESFYESNO           Return Yes or No
 00022E 58E0 7862/0DEE       00A84  7609                       ACALL YESCOMN             Go to common code
1UTIL     (UTIL2025) (12:58) (15MAR04) DSECTS                                                                               Page   10
0Current Usings:  (*,R7) (YESWA-(4+36),R8) (CP,R11) (CV,R12)
0Loc    Object Code    Addr1 Addr2  Stmt Lv Lineno    Source Statement           (Hibal 5, Asmedit 3.3)  HLASM R4.0  2004/03/15 12.58
+___    ______ ____    _____ _____  ____ __ ______    ______ _________
0000234 9001 8004            00004  7613                       PRETURN (R0,R1)
 000238 18D8/9808 D004_             7615                       PEND  ,
 DROP   YESWA-(4+36),R8
 DROP   *,R7
                                    7640
 000246 50E0 D000/9008_      00000  7641              YESRTN   XPROC YESWA
 USING  *,R7
 USING  YESWA-(4+36),R8
 000260 4160 8028            00000  7692                       LA    R6,YESWA
 000264 9200 8028      00000        7693                       CLEAR YESFLAG
 000268 9680 8028      00000        7700                       SET   YESFRTN             Always return
 00026C 58E0 7824/0DEE       00A84  7706                       ACALL YESCOMN             Go to common code
 000272 9001 8004            00004  7710                       PRETURN (R0,R1)
 000276 18D8/9808 D004_             7712                       PEND  ,
 DROP   YESWA-(4+36),R8
 DROP   *,R7
                                    7737
 000284 50E0 D000/9008_      00000  7738              YESRTNH  XPROC YESWA
 USING  *,R7
 USING  YESWA-(4+36),R8
 00029E 4160 8028            00000  7789                       LA    R6,YESWA
 0002A2 9200 8028      00000        7790                       CLEAR YESFLAG
 0002A6 9620 8028      00000        7797                       SET   YESFHELP            Return if HELP
 0002AA 9680 8028      00000        7803                       SET   YESFRTN             Always return
 0002AE 58E0 77E6/0DEE       00A84  7809                       ACALL YESCOMN             Go to common code
 0002B4 9001 8004            00004  7813                       PRETURN (R0,R1)
 0002B8 18D8/9808 D004_             7815                       PEND  ,
 DROP   YESWA-(4+36),R8
 DROP   *,R7
                                    7840
 0002C6 50E0 D000/9008_      00000  7841              YESREQ   XPROC YESWA
 USING  *,R7
 USING  YESWA-(4+36),R8
 0002E0 4160 8028            00000  7892                       LA    R6,YESWA
 0002E4 9200 8028      00000        7893                       CLEAR YESFLAG
 0002E8 58E0 77A4/0DEE       00A84  7900                       ACALL YESCOMN
 0002EE 9001 8004            00004  7904                       PRETURN (R0,R1)
 0002F2 18D8/9808 D004_             7906                       PEND  ,
 DROP   YESWA-(4+36),R8
 DROP   *,R7
                                    7931
 000300 50E0 D000/9008_      00000  7932              YESCOMN  PROC  ,
 USING  *,R7
 USING  YESWA,R6                    7971                       USING YESWA,R6
 00031A 1820                        7980                       LR    R2,R0               Save as flag (later)
 00031C 1000                        7981                       LPR   R0,R0
 00031E 41F0 B050/58E0_      00050  7982                       TSEG  (R1),(R0)
 000328 1222/4740 7026_             8006                       IF    (R2,~NEG),'TSEG " (Yes/No)"'
                                    8043                       ¿þþþþþþþþþþþþþþþþþþþþþþþþþþþþþþþþþþþþþþþþþþþþþþþþþþþþþþþþÜ
                                    8044                       Ÿ  Save the prompt text in case we have to re-prompt...  Ÿ
                                    8045                       ¾þþþþþþþþþþþþþþþþþþþþþþþþþþþþþþþþþþþþþþþþþþþþþþþþþþþþþþþþ»
 000340 58F0 B05C            0005C  8046                       L     R15,CPSEGLENF
 000344 5BF0 B058            00058  8047                       S     R15,CPSEGMRKF       Length since last mark
 000348 59F0 776E/47D0_      00A88  8048                       CEIL  R15,L'YESTEXT
1UTIL     (UTIL2025) (12:58) (15MAR04) DSECTS                                                                               Page   11
0Current Usings:  (YESWA,R6) (*,R7) (CP,R11) (CV,R12)
0Loc    Object Code    Addr1 Addr2  Stmt Lv Lineno    Source Statement           (Hibal 5, Asmedit 3.3)  HLASM R4.0  2004/03/15 12.58
+___    ______ ____    _____ _____  ____ __ ______    ______ _________
0000354 40F0 6002            00002  8067                       STH   R15,YESLEN
 000358 5810 B070            00070  8068                       L     R1,CPSEGLOC
 00035C 5A10 B05C            0005C  8069                       A     R1,CPSEGLENF
 000360 1B1F                        8070                       SR    R1,R15              Start of prompt text
 000362 06F0/12FF/4740_             8071                       MOVE  R15,YESTEXT,@R1     Save the text
                                    8109
 00036E 1B00                        8110                       CLEAR R0
 000370 1BFF/58E0 7772_             8114              YESLOOP  TREAD (R1),(R0),Q         Go prompt user
 000378 4770 71B2            004CC  8135                       BNZ   YESATTN
 00037C 58E0 B08C/501E_      0008C  8136                       SCINIT (R1),(R0)
 00038A 5810 B08C/1B00_      0008C  8156                       SCAN  YESRQPRT            Expecting YES/NO
                                    8188
 0003DC 90F1 D000/41D0_      00000  8189                       XPUSH R15,R1              OLD SCANNER COMPATABILITY
 0003E4 58E0 B08C/581E_      0008C  8192                       SCINFO ,
 0003F2 58E0 777E/0DEE       00A98  8201                       OSCINIT (R1),(R0)
 0003F8 4BD0 77CE/98F1_      00AE8  8217                       XPOP  R15,R1
                                    8220
 000400 12FF/4740 7140              8221                       IF    (R15,NEG),YESAGAIN
 000406 59F0 7782/4780_      00A9C  8238                       IF    (R15,EQ,4),YESYES
 00040E 59F0 7786/4780_      00AA0  8258                       IF    (R15,EQ,8),YESNOPE
 000416 59F0 778A/4780_      00AA4  8278                       IF    (R15,EQ,12),YESQUIT
 00041E 59F0 778E/4780_      00AA8  8298                       IF    (R15,EQ,16),YESNULL
 000426 59F0 7792/4780_      00AAC  8318                       IF    (R15,EQ,20),YESAGAIN
 00042E 59F0 7796/4770_      00AB0  8338                       IF    (R15,EQ,24),BEGIN   HELP...
 000436 9120 6000/47E0_00000        8355  1                      IF    YESFHELP,'LA R15,8; B YESEXIT'  Help rc
 000446 47F0 7140            0045A  8377  1                      B     YESAGAIN            Write general message
 00044A                             8378                       END
 00044A 9180 6000/47E0_00000        8382                       IF    YESFRTN,BEGIN       Return invalid responses...
 000452 41F0 0004            00004  8397  1                      LA    R15,4               Not yes
 000456 47F0 71C2            004DC  8398  1                      B     YESEXIT
 00045A                             8399                       END
                                    8403
 00045A 4110 77DD/4100_      00AF7  8404              YESAGAIN TSEG  'Answer YES or NO.',,CR
 00046C 4110 6004/4800_      00004  8422                       SETMSG YESTEXT,LH:YESLEN
 000474 47F0 7056            00370  8435                       B     YESLOOP
                                    8436
 000478 9180 6000/47E0_00000        8437              YESNULL  IF    YESFRTN,BEGIN
 000480 41F0 0004            00004  8453  1                      LA    R15,4
 000484 47F0 71C2            004DC  8454  1                      B     YESEXIT
 000488                             8455                       END
 000488 4110 77DD/4100_      00AF7  8459                       TSEG  'Answer YES or NO.',,CR
 00049A 4110 6004/4800_      00004  8477                       SETMSG YESTEXT,LH:YESLEN
 0004A2 47F0 7056            00370  8490                       B     YESLOOP
                                    8491
 0004A6 1BFF                        8492              YESYES   CLEAR R15                 Ok
 0004A8 47F0 71C2            004DC  8497                       B     YESEXIT
                                    8498
 0004AC 91C0 6000/4780_00000        8499              YESNOPE  IF    (YESFRTN+YESFYESNO,Z),CVNOACTN  Abort command
 0004B4 41F0 0004            00004  8523                       LA    R15,4               Not yes return code
 0004B8 47F0 71C2            004DC  8524                       B     YESEXIT
                                    8525
 0004BC 91C0 6000/4780_00000        8526              YESQUIT  IF    (YESFRTN+YESFYESNO,Z),CVNOACTN  Abort command
 0004C4 48F0 77D0            00AEA  8550                       LH    R15,=H'-4'          Set return code
 0004C8 47F0 71C2            004DC  8551                       B     YESEXIT
1UTIL     (UTIL2025) (12:58) (15MAR04) DSECTS                                                                               Page   12
0Current Usings:  (YESWA,R6) (*,R7) (CP,R11) (CV,R12)
0Loc    Object Code    Addr1 Addr2  Stmt Lv Lineno    Source Statement           (Hibal 5, Asmedit 3.3)  HLASM R4.0  2004/03/15 12.58
+___    ______ ____    _____ _____  ____ __ ______    ______ _________
0                                   8552
 0004CC 91C0 6000/4780_00000        8553              YESATTN  IF    (YESFRTN+YESFYESNO,Z),CVNOACTN  Abort command
 0004D4 48F0 77D0            00AEA  8577                       LH    R15,=H'-4'          Set return code
 0004D8 47F0 71C2            004DC  8578                       B     YESEXIT
                                    8579
 0004DC                             8580              YESEXIT  LABEL
 0004DC 9001 8004            00004  8582                       PRETURN (R0,R1)
 0004E0 18D8/9808 D004_             8584                       PEND
 DROP   *,R7
                                    8604                       ¿þþþþþþþþþþþþþþþþþþþþþþÜ
                                    8605                       Ÿ  YES/NO scan table.  Ÿ
                                    8606                       ¾þþþþþþþþþþþþþþþþþþþþþþ»
 0004F0 4040404040404040_           8607              YESRQPRT SCKW  ,YESHMMM,NULL
 000518 E8C5E24040404040_           8622                       SCKW  YES,YESDO
 000540 E840404040404040_           8637                       SCKW  Y,YESDO
 000568 D6D2404040404040_           8652                       SCKW  OK,YESDO
 000590 D540404040404040_           8667                       SCKW  N,YESABORT
 0005B8 D5D6404040404040_           8682                       SCKW  NO,YESABORT
 0005E0 D840404040404040_           8697                       SCKW  Q,YESQ
 000608 D8E4C9E340404040_           8712                       SCKW  QUIT,YESQ,A
 000630 C8C5D3D740404040_           8727                       SCKW  HELP,YESHELP,A
 000658 6F40404040404040_           8742                       SCKW  ?,YESHELP
 000680 4040404040404040_           8757                       SCKW  ,YESDUUHH
                                    8772              þþþþ
 0006A8 50E0 D000/9008_      00000  8773              YESDO    PROC
 USING  *,R7
 0006C2 41F0 0004            00004  8812                       LA    R15,4
 0006C6 18D8/9808 D004_             8813                       PEND
 DROP   *,R7
                                    8833
 0006D4 50E0 D000/9008_      00000  8834              YESABORT PROC
 USING  *,R7
 0006EE 41F0 0008            00008  8873                       LA    R15,8
 0006F2 18D8/9808 D004_             8874                       PEND
 DROP   *,R7
                                    8894
 000700 50E0 D000/9008_      00000  8895              YESQ     PROC
 USING  *,R7
 00071A 41F0 000C            0000C  8934                       LA    R15,12
 00071E 18D8/9808 D004_             8935                       PEND
 DROP   *,R7
                                    8955
 00072C 50E0 D000/9008_      00000  8956              YESHMMM  PROC
 USING  *,R7
 000746 41F0 0010            00010  8995                       LA    R15,16
 00074A 18D8/9808 D004_             8996                       PEND
 DROP   *,R7
                                    9016
 000758 50E0 D000/9008_      00000  9017              YESDUUHH PROC
 USING  *,R7
 000772 41F0 0014            00014  9056                       LA    R15,20
 000776 18D8/9808 D004_             9057                       PEND
 DROP   *,R7
                                    9077
1UTIL     (UTIL2025) (12:58) (15MAR04) DSECTS                                                                               Page   13
0Current Usings:  (YESWA,R6) (*,R7) (CP,R11) (CV,R12)
0Loc    Object Code    Addr1 Addr2  Stmt Lv Lineno    Source Statement           (Hibal 5, Asmedit 3.3)  HLASM R4.0  2004/03/15 12.58
+___    ______ ____    _____ _____  ____ __ ______    ______ _________
0000784 50E0 D000/9008_      00000  9078              YESHELP  PROC
 USING  *,R7
 00079E 41F0 0018            00018  9117                       LA    R15,24
 0007A2 18D8/9808 D004_             9118                       PEND
 DROP   *,R7
                                    9138
 DROP   YESWA,R6                    9139                       DROP  YESWA
1UTIL     (UTIL2025) (12:58) (15MAR04) Locate Previous Line and Format For List                                             Page   14
0Current Usings:  (CP,R11) (CV,R12)
0Loc    Object Code    Addr1 Addr2  Stmt Lv Lineno    Source Statement           (Hibal 5, Asmedit 3.3)  HLASM R4.0  2004/03/15 12.58
+___    ______ ____    _____ _____  ____ __ ______    ______ _________
0                                   9148              * LOCLIST locates the line in the file before the line number
                                    9149              * pointed to by R1 on input.  The located line is formatted for
                                    9150              * listing according to the settings of the flags in CPLFLG5 by
                                    9151              * the LISTLINE routine.
                                    9152              *
 0007B0 50E0 D000/9008_      00000  9153              LOCLIST  XPROC  ,
 USING  *,R7
 0007CA 58F0 1000            00000  9193                       L     R15,@R1             Line-number
 0007CE 50F0 B73C            0073C  9194                       ST    R15,CPLCNO
 0007D2 58E0 72EA/0DEE       00AB4  9195                       VCALL PREVLNO             Get previous lineno
 0007D8 47B0 7024            007EE  9199                       IF    NEG,BEGIN           No previous...
 0007DC 4110 733E/4100_      00B08  9210  1                      TSEG  'No previous line.',,CR
 0007EE                             9228                       END
                                    9232
 0007EE 7028/47F0 703E 007EE 007DA  9233                       ELSE  BEGIN               List previous...
 0007F2 58F0 B73C            0073C  9244  1                      L     R15,CPLCNO
 0007F6 181D/41D0 D0EC              9245  1                      XPUSH ,,&LINESZ,PTR=R1
 0007FC 58E0 72EE/0DEE       00AB8  9248  1                      VCALL GETLINE             Get this line
 000802 58E0 72F2/0DEE       00ABC  9252  1                      ACALL LISTLINE            List the line
 000808                             9256                       END
                                    9260
 000808 18D8/9808 D004_             9261                       PEND  ,
 DROP   *,R7
1UTIL     (UTIL2025) (12:58) (15MAR04) Utility Routines                                                                     Page   15
0Current Usings:  (CP,R11) (CV,R12)
0Loc    Object Code    Addr1 Addr2  Stmt Lv Lineno    Source Statement           (Hibal 5, Asmedit 3.3)  HLASM R4.0  2004/03/15 12.58
+___    ______ ____    _____ _____  ____ __ ______    ______ _________
0                                   9282              * LISTLINE -- formats the output line based on
                                    9283              *          setting of list options in CPLFLG5.
                                    9284              * input  R0 - length of line to list
                                    9285              *        R1 - address of start of line to list
                                    9286              *        CPLCNO - line number of line to list
                                    9287              *
                                    9288              ¿þþþþþþþþþþþþþþþþþþþþþþþþþþþþþþþþþþþþþþþþþþþþþþþþþþþþþþþþþþþþþþþþþþþþþÜ
                                    9289              Ÿ                                                                     Ÿ
                                    9290              Ÿ  LISTLINE -- Routine to format the output line based on list        Ÿ
                                    9291              Ÿ    option settings in CP local flags.                               Ÿ
                                    9292              Ÿ                                                                     Ÿ
                                    9293              Ÿ    On entry:                                                        Ÿ
                                    9294              Ÿ      R1,R0 - line text location, length                             Ÿ
                                    9295              Ÿ      CPLCNO - line number of line to list                           Ÿ
                                    9296              Ÿ                                                                     Ÿ
                                                      ¾þþþþþþþþþþþþþþþþþþþþþþþþþþþþþþþþþþþþþþþþþþþþþþþþþþþþþþþþþþþþþþþþþþþþþ»
0000816 50E0 D000/9008_      00000  9297              LISTLINE XPROC  ,
 USING  *,R7
 000830 1831                        9337                       LR    R3,R1
 000832 1820                        9338                       LR    R2,R0
                                    9339
 000834 91C0 BD54/47E0_00D54        9340                       IF    CPLFLG5.CPFNONUM,'SETMSG CVBLANKS,11'
 000844 7018/47F0 7022_00844 0083A  9377                       ELSEIF CPLFLG5.CPFUNUM,'CLEAR R0'
 000852 7026/47F0 704A 00852 0084E  9411                       ELSE  BEGIN               Numbered...
 000856 5800 B73C            0073C  9422  1                      L     R0,CPLCNO
 00085A 58E0 7290/0DEE       00AC0  9423  1                      VCALL CVEXNO
 000860 4110 BC88/4100_      00C88  9427  1                      TSEG  CPDOUB,9            Lineno
 000872 4110 C4D8/4100_      004D8  9457  1                      SETMSG CVBLANKS,2
 00087A                             9473                       END
 00087A 41F0 B050/58E0_      00050  9477                       TSEG  (R1),(R0)
                                    9501
 000884 9140 BD54/47E0_00D54        9502                       IF    (~CPLFLG5.CPFNTEX,OR,CPLFLG5.CPFNONUM),BEGIN
 000894 1813/1802/41F0_             9533  1                      TSEG  (R3),(R2)           Line text
 0008A2                             9559                       END
                                    9563
 0008A2 9180 BC7A/4710_00C7A        9564                       IF    ~CPFNONL,'TCR'
 0008B6 18D8/9808 D004_             9609                       PEND  ,
 DROP   *,R7
1UTIL     (UTIL2025) (12:58) (15MAR04) ADDER Routine                                                                        Page   16
0Current Usings:  (CP,R11) (CV,R12)
0Loc    Object Code    Addr1 Addr2  Stmt Lv Lineno    Source Statement           (Hibal 5, Asmedit 3.3)  HLASM R4.0  2004/03/15 12.58
+___    ______ ____    _____ _____  ____ __ ______    ______ _________
0                                   9630              * ADDER adds a line no. in R0 to a delta in R1 with lineno addition.
                                    9631              * R0 negative on illegal (too-high) result
                                    9632              *
 0008C4 50E0 D000/9008_      00000  9633              ADDER    XPROC ,
 USING  *,R7
 0008DE 1A01                        9673                       AR    R0,R1               Add nos.
 0008E0 5860 C160            00160  9674                       L     R6,CVHILNO          Load high value
 0008E4 1560                        9675                       CLR   R6,R0               Less than high
 0008E6 4720 700E            008EC  9676                       BH    LNOK                Good with return condition code set
 0008EA 1106                        9677                       LNR   R0,R6               Set no good
 0008EC                             9678              LNOK     LABEL ,
 0008EC 5008 0004            00004  9680                       PRETURN (R0)
                                    9682              *$ HELP HELP HELP,,, MUST RETURN CC SET VIA R0 .. OR WHATEVER
 0008F0 1200                        9683                       LTR   R0,R0
 0008F2 18D8/9808 D004_             9684                       PEND  *
 DROP   *,R7
1UTIL     (UTIL2025) (12:58) (15MAR04) Delta Select Routine                                                                 Page   17
0Current Usings:  (CP,R11) (CV,R12)
0Loc    Object Code    Addr1 Addr2  Stmt Lv Lineno    Source Statement           (Hibal 5, Asmedit 3.3)  HLASM R4.0  2004/03/15 12.58
+___    ______ ____    _____ _____  ____ __ ______    ______ _________
0                                   9704              * Select a suitable delta based on the value in R1.
                                    9705              *        if R1 is 0 then .001 is used
                                    9706              *        if R1>=CPDELTA then CPDELTA is used
                                    9707              *        Otherwise the delta is chosen from a table as the first value
                                    9708              *        not greater than R1 from the list 1.000, .500, .200, .100,
                                    9709              *        .050, .020, .010, .005, .002, and .001.
                                    9710              * The delta chosen is returned in R1
                                    9711              *
 0008FE 50E0 D000/9008_      00000  9712              SELDELTA XPROC ,
 USING  *,R7
 000918 1211                        9752                       LTR   R1,R1               Is value positive
 00091A 47D0 7022            0093A  9753                       BNP   SEL001              No, use .001
 00091E 5910 B738            00738  9754                       C     R1,CPDELTA          Is R1>=CPDELTA
 000922 47B0 702A            00942  9755                       BNL   SELDEL              Yes, use CPDELTA
 000926 4160 7048            00960  9756                       LA    R6,SELTBLE          Point to table
 00092A 4910 6000            00000  9757              SELOOP   CH    R1,@R6              Use this entry?
 00092E 47B0 7032            0094A  9758                       BNL   SELGOT              Yes
 000932 4160 6002            00002  9759                       LA    R6,@R6+2            Point to next entry
 000936 47F0 7012            0092A  9760                       B     SELOOP              Loop
                                    9761
 00093A 4110 0001            00001  9762              SEL001   LA    R1,1                Use .001
 00093E 47F0 7036            0094E  9763                       B     SELEXIT             Go return
                                    9764
 000942 5810 B738            00738  9765              SELDEL   L     R1,CPDELTA          Use CPDELTA
 000946 47F0 7036            0094E  9766                       B     SELEXIT             Go return
                                    9767
 00094A 4810 6000            00000  9768              SELGOT   LH    R1,@R6              Set r1 to selected table value
                                    9769
 00094E 5018 0008            00008  9770              SELEXIT  PRETURN (R1)              Return
 000952 18D8/9808 D004_             9772                       PEND  ,
 DROP   *,R7
                                    9792
 000960 03E801F400C80064            9793              SELTBLE  DC    H'1000,500,200,100,50,20,10,5,2,1'  possible deltas
1UTIL     (UTIL2025) (12:58) (15MAR04) Utility Routine                                                                      Page   18
0Current Usings:  (CP,R11) (CV,R12)
0Loc    Object Code    Addr1 Addr2  Stmt Lv Lineno    Source Statement           (Hibal 5, Asmedit 3.3)  HLASM R4.0  2004/03/15 12.58
+___    ______ ____    _____ _____  ____ __ ______    ______ _________
0                                   9795              *  Compute next lower multiple of a delta.
                                    9796                       ¿þþþþþþþþþþþþþþþþþþþþþþþþþþþþþþþþþþþþÜ
                                    9797                       Ÿ  (R0) = line no.                   Ÿ
                                    9798                       Ÿ  (R1) = delta                      Ÿ
                                    9799                       Ÿ                                    Ÿ
                                    9800                       Ÿ  returns R0 = next lower multiple  Ÿ
                                    9801                       ¾þþþþþþþþþþþþþþþþþþþþþþþþþþþþþþþþþþþþ»
 000974 50E0 D000/9008_      00000  9802              LOWMULT  XPROC  ,
 USING  *,R7
 00098E 1830                        9842                       LR    R3,R0               Line no.
 000990 1B22                        9843                       CLEAR R2
 000992 1D21                        9847                       DR    R2,R1               Divide by delta
 000994 1C21                        9848                       MR    R2,R1               Multiply by delta
 000996 1803                        9849                       LR    R0,R3               Put result in R0
 000998 5008 0004            00004  9850                       PRETURN (R0)
 00099C 18D8/9808 D004_             9852                       PEND  ,
 DROP   *,R7
1UTIL     (UTIL2025) (12:58) (15MAR04) CVEXNO Routine                                                                       Page   19
0Current Usings:  (CP,R11) (CV,R12)
0Loc    Object Code    Addr1 Addr2  Stmt Lv Lineno    Source Statement           (Hibal 5, Asmedit 3.3)  HLASM R4.0  2004/03/15 12.58
+___    ______ ____    _____ _____  ____ __ ______    ______ _________
0                                   9873              * CVEXNO  converts internal lineno to 9-digits with/without
                                    9874              *              a decimal point.  9 digits are in CPDOUB
                                    9875              *
                                    9876              *      expects R0 - internal lineno
                                    9877              *      returns R1 - address of lineno
                                    9878              *              R0 - lineno len
 000000                00000 00010  9879              CVEXWA   RECORD BEGIN
 000000                             9887  1           CVEXWORK   DS    XL16                Work area
 000010                00010 00010  9888                       END
                                    9897              þþþþ
 0009AA 50E0 D000/9008_      00000  9898              CVEXNO   XPROC CVEXWA
 USING  *,R7
 USING  CVEXWA-(4+36),R8
 0009C4 4E00 BC88            00C88  9949                       CVD   R0,CPDOUB           Convert to decimal
 0009C8 9108 BD54      00D54        9950                       TM    CPLFLG5,CPNFINT     Is decimal point wanted
 0009CC 4780 702C            009F0  9951                       BZ    CVEXNO1             No
 0009D0 D207 8028 BC88 00000 00C88  9952                       MVC   CVEXWORK(8),CPDOUB  Move converted number
 0009D6 F384 BC88 802B 00C88 00003  9953                       UNPK  CPDOUB(9),CVEXWORK+3(5)  UNPK to cpdoub
 0009DC 96F0 BC90      00C90        9954                       OI    CPDOUB+8,X'F0'      Set zone
 0009E0 9240 BC88      00C88        9955                       MVI   CPDOUB,C' '         Set first char to blank
 0009E4 4110 BC89            00C89  9956                       LA    R1,CPDOUB+1
 0009E8 4100 0008            00008  9957                       LA    R0,8
 0009EC 47F0 7088            00A4C  9958                       B     EXEXIT              Exit from cvexno
                                    9959
 0009F0 D20A 8028 709E 00000 00A62  9960              CVEXNO1  MVC   CVEXWORK(11),EXEDTMSK  Move edit mask
 0009F6 4110 802E            00006  9961                       LA    R1,CVEXWORK+6       In case no significance
 0009FA DF0A 8028 BC8B 00000 00C8B  9962                       EDMK  CVEXWORK(11),CPDOUB+3  Edit line no.
 000A00 D208 BC88 802A 00C88 00002  9963                       MVC   CPDOUB(9),CVEXWORK+2  Move result to CPDOUB
 000A06 4100 802A            00002  9964                       LA    R0,CVEXWORK+2
 000A0A 1B10                        9965                       SR    R1,R0
 000A0C 1301                        9966                       LCR   R0,R1
 000A0E 4111 BC88            00C88  9967                       LA    R1,CPDOUB(R1)       First sig char
 000A12 4A00 7128            00AEC  9968                       AH    R0,=H'9'            Len
 000A16 4130 BC90            00C90  9969                       LA    R3,CPDOUB+8         Trail zero pointer
 000A1A 95F0 3000      00000        9970              EXTRIM   CLI   @R3,C'0'            Trailing zero?
 000A1E 4770 7068            00A2C  9971                       BNE   EXDONE              No
 000A22 9240 3000      00000        9972                       MVI   @R3,C' '            Set blank
 000A26 0600                        9973                       DECR  R0                  Keep len accurate
 000A28 4630 7056            00A1A  9975                       BCT   R3,EXTRIM           Reduce trailing ptr
 000A2C 954B 3000/4770_00000        9976              EXDONE   IF    (@R3,EQ,'.'),'DECR R0'  remove trailing dot
 000A36 95F0 1000/4770_00000       10000                       IF    ((@R1,EQ,'0'),AND,(R0,GT,2)),'LA R1,@R1+1; DECR R0'
 000A4C 9240 BC91      00C91       10040              EXEXIT   MVI   CPDOUB+9,C' '       Last char is always blank
 000A50 9001 8004            00004 10041                       PRETURN (R0,R1)
 000A54 18D8/9808 D004_            10043                       PEND  ,
 DROP   CVEXWA-(4+36),R8
 DROP   *,R7
                                   10068
 000A62 402020202021204B           10069              EXEDTMSK DC    C' ',X'202020202120',C'.',X'202020'  edit mask
                                   10070
                                   10071                       QLTORG
1UTIL     (UTIL2025) (12:58) (15MAR04) Utility Routines                                                                     Page   20
0Current Usings:  (CP,R11) (CV,R12)
0Loc    Object Code    Addr1 Addr2  Stmt Lv Lineno    Source Statement           (Hibal 5, Asmedit 3.3)  HLASM R4.0  2004/03/15 12.58
+___    ______ ____    _____ _____  ____ __ ______    ______ _________
0                                  10116              ¿þþþþþþþþþþþþþþþþþþþþþþþþþþþþþþþþþþþþþþþþþþþþþþþþþþþþþþþþþþþþþþþþþþþþþÜ
                                   10117              Ÿ                                                                     Ÿ
                                   10118              Ÿ  DETAB -- Local routine to expand tabs to blanks.                   Ÿ
                                   10119              Ÿ                                                                     Ÿ
                                   10120              Ÿ    On entry:                                                        Ÿ
                                   10121              Ÿ      R1  - input line loc                                           Ÿ
                                   10122              Ÿ      R0  - input line len (complimented if ASCII data)              Ÿ
                                   10123              Ÿ      R15 - maximum buffer length                                    Ÿ
                                   10124              Ÿ                                                                     Ÿ
                                   10125              Ÿ    On exit:                                                         Ÿ
                                   10126              Ÿ      R15 (and cc) -  0=ok; 4=truncated                              Ÿ
                                   10127              Ÿ      R1,R0 - expanded line loc, len                                 Ÿ
                                   10128              Ÿ         (line is expanded in place)                                 Ÿ
                                   10129              Ÿ                                                                     Ÿ
                                                      ¾þþþþþþþþþþþþþþþþþþþþþþþþþþþþþþþþþþþþþþþþþþþþþþþþþþþþþþþþþþþþþþþþþþþþþ»
0000000                00000 0081C 10130              DTABWA   RECORD BEGIN
 000000 00                         10138  1           DTABFLAG   FLAG
 DTABFLAG.DTABFASC 80 ONES         10142  1                      FLAG  DTABFASCII          - ASCII data (off means EBCDIC)
                                   10147  1
 000004                            10148  1           DTABTRTP   DS    A                   TRT stop table ptr
 000008                            10149  1           DTABRC     DS    F                   Return code
 00000C                            10150  1           DTABMAXL   DS    F                   Maximum allowable return length
                                   10151  1           DTABINIT   EQU   DTABFLAG,*-DTABFLAG,C'X'
                                   10152  1
                                   10153  1           DTABSG     SEGCB
 000010 00                         10154  1 01-SEGCB +$$$SEGCB161   DS 0F
 DTABSGCOD.DTABSGS 01 EQ
 DTABSGCOD.DTABSGW 02 EQ
 DTABSGCOD.DTABSGC 03 EQ
 DTABSGCOD.DTABSGS 04 EQ
 DTABSGCOD.DTABSGO 05 EQ
 DTABSGCOD.DTABSGC 06 EQ
 DTABSGCOD.DTABSGM 07 EQ
 000011 00                         10229  1 01-SEGCB +           DC    X'00'               Reserved
 000012 0000                              1          +
 000014 00000000                   10230  1 01-SEGCB +DTABSGMAXF   DC  A(0)                Maximum buffer length
 000018 00000000                   10231  1 01-SEGCB +DTABSGMRKF   DC  A(0)                Length at last mark
 00001C 00000000                   10232  1 01-SEGCB +DTABSGLENF   DC  A(0)                Current length
 000020 00000000                   10233  1 01-SEGCB +DTABSGINDF   DC  A(0)                Overflow/indent count
 000024 00000000                   10234  1 01-SEGCB +DTABSGERR   DC   A(0)                Address of error recovery routine
 000028 0000000000000000           10235  1 01-SEGCB +           DC    2F'0'               Reserved
 000030 00000000                   10236  1 01-SEGCB +DTABSGLOC   DC   A(0)                Location of buffer
 000034 00000000                   10237  1 01-SEGCB +DTABSGRTN   DC   A(0)                Processing routine
 000038 0000000000000000           10238  1 01-SEGCB +           DC    4F'0'               Reserved
 000048 00000000                   10239  1 01-SEGCB +DTABSGUSR   DC   A(0)                USER field
                                   10240  1 01-SEGCB +DTABSG     EQU   $$$SEGCB161,*-$$$SEGCB161,C'X'
 00004C                            10241  1           DTABBUF    DS    XL2000              Big work buffer
 00081C                0081C 0081C 10242                       END
                                   10251              þþþþ
 000B20 50E0 D000/9008_      00000 10252              DETAB    XPROC DTABWA
 USING  *,R7
 USING  DTABWA-(4+36),R8
 000B3A D70F 8028 8028 00000 00000 10303                       CLEAR DTABINIT            Initialize
1UTIL     (UTIL2025) (12:58) (15MAR04) Utility Routines                                                                     Page   21
0Current Usings:  (*,R7) (DTABWA-(4+36),R8) (CP,R11) (CV,R12)
0Loc    Object Code    Addr1 Addr2  Stmt Lv Lineno    Source Statement           (Hibal 5, Asmedit 3.3)  HLASM R4.0  2004/03/15 12.58
+___    ______ ____    _____ _____  ____ __ ______    ______ _________
0000B40 50F0 8034            0000C 10310                       ST    R15,DTABMAXL        Save maximum length
                                   10311
 000B44 41F0 7114            00C4E 10312                       LA    R15,DTABEBCT        Assume EBCDIC TRT table
 000B48 1200/47B0 7022             10313                       IF    (R0,NEG),BEGIN      It's ASCII data...
 000B4E 9680 8028      00000       10327  1                      SET   DTABFASCII          Data is in ASCII
 000B52 41F0 7214            00D4E 10333  1                      LA    R15,DTABASCT        ASCII TRT table
 000B56 1000                       10334  1                      LPR   R0,R0
 000B58 5008 0004            00004 10335  1                      PRETURN (R0)
 000B5C                            10337                       END
 000B5C 50F0 802C            00004 10341                       ST    R15,DTABTRTP        Save TRT table ptr
                                   10342
 000B60 1851                       10343                       LR    R5,R1               Orig data ptr
 000B62 1840                       10344                       LR    R4,R0               Orig data len
                                   10345                       ¿þþþþþþþþþþþþþþþþþþþþþþþþþþþþþþþþþþþþþþþþþþþþþþþþþþþþþþþþþÜ
                                   10346                       Ÿ  Quick check to see if there are ANY tabs in the line.  Ÿ
                                   10347                       ¾þþþþþþþþþþþþþþþþþþþþþþþþþþþþþþþþþþþþþþþþþþþþþþþþþþþþþþþþþ»
 000B64 5940 731E/4730_      00E58 10348                       IF    (R4,LE,256),BEGIN   Not too long...
 000B6C 1234                       10365  1                      LTR   R3,R4
 000B6E 47D0 7102            00C3C 10366  1                      BNP   DTABEXIT
 000B72 58F0 802C            00004 10367  1                      L     R15,DTABTRTP
 000B76 0630/4430 7336_            10368  1                      DEX   R3,'TRT @R5(0),@R15' Look for a tab character
 000B7C 4780 7102            00C3C 10387  1                      BZ    DTABEXIT            No tab characters, scram
 000B80                            10388                       END
                                   10392                       ¿þþþþþþþþþþþþþþþþþþþþþþþþþþþþþþþþþþþþþþþþþþþþþþþþþþþþþþÜ
                                   10393                       Ÿ  Expand tabs in work buffer using the seg routines.  Ÿ
                                   10394                       ¾þþþþþþþþþþþþþþþþþþþþþþþþþþþþþþþþþþþþþþþþþþþþþþþþþþþþþþ»
 000B80 4110 8074/4100_      0004C 10395                       SEGINIT DTABBUF,,DTABSG
 000B92 1244/47D0 70D6             10422                       WHILE (R4,POS),BEGIN
 000B98 1824                       10438  1                      LR    R2,R4
 000B9A 5920 731E/47D0_      00E58 10439  1                      CEIL  R2,256
 000BA6 58F0 802C            00004 10458  1                      L     R15,DTABTRTP        Stop on TAB trt table
 000BAA 0620/4420 733C_            10459  1                      DEX   R2,'TRT @R5(0),@R15' Look for TAB character
 000BB0 4770 708C            00BC6 10478  1                      IF    Z,BEGIN             No more tabs remain...
 000BB4 1815/1804/41F0_            10489  2                        SEG   (R5),(R4)           Add last bit
 000BC2 47F0 70D6            00C10 10514  2                        B     DTABCOPY
 000BC6                            10515  1                      END
                                   10519  1
 000BC6 1B15                       10520  1                      SR    R1,R5               Number of chars before tab
 000BC8 1821                       10521  1                      LR    R2,R1
                                   10522  1
 000BCA 1815/1802/41F0_            10523  1                      SEG   (R5),(R2)           Add text before tab
 000BD8 5800 8044            0001C 10548  1                      L     R0,DTABSGLENF
 000BDC 5A00 732A            00E64 10549  1                      A     R0,=F'8'
 000BE0 5400 732E            00E68 10550  1                      N     R0,=F'-8'
 000BE4 5B00 8044            0001C 10551  1                      S     R0,DTABSGLENF       Number of spaces until next stop
 000BE8 4110 C4D8            004D8 10552  1                      LA    R1,CVBLANKS         EBCDIC blanks
 000BEC 9180 8028/47E0_00000       10553  1                      IF    DTABFASCII,'LA R1,=8X"20"'  ASCII blanks
 000BF8 41F0 8038/58E0_      00010 10574  1                      SEG   (R1),(R0)           Add blank padding
                                   10597  1
 000C02 4120 2001            00001 10598  1                      LA    R2,@R2+1            Number of chars incl tab char
 000C06 4152 5000            00000 10599  1                      LA    R5,@R5(R2)          Kick input ptr
 000C0A 1B42                       10600  1                      SR    R4,R2               Adjust remaining length
 000C0C 47F0 7058            00B92 10601                       END
1UTIL     (UTIL2025) (12:58) (15MAR04) Utility Routines                                                                     Page   22
0Current Usings:  (*,R7) (DTABWA-(4+36),R8) (CP,R11) (CV,R12)
0Loc    Object Code    Addr1 Addr2  Stmt Lv Lineno    Source Statement           (Hibal 5, Asmedit 3.3)  HLASM R4.0  2004/03/15 12.58
+___    ______ ____    _____ _____  ____ __ ______    ______ _________
0                                  10606                       ¿þþþþþþþþþþþþþþþþþþþþþþþþþþþþþþþþþþþþþþþþþþþþþþþþþþþþÜ
                                   10607                       Ÿ  Copy the buffer back to the original input area.  Ÿ
                                   10608                       ¾þþþþþþþþþþþþþþþþþþþþþþþþþþþþþþþþþþþþþþþþþþþþþþþþþþþþ»
 000C10 5818 0008            00008 10609              DTABCOPY PRESTORE (R1)             Restore R1 on entry
 000C14 5820 8044            0001C 10611                       L     R2,DTABSGLENF       Seg buffer length
 000C18 5920 8034/47D0_      0000C 10612                       IF    (R2,GT,DTABMAXL),'MVC DTABRC,=F"4"; L R2,DTABMAXL'
 000C2A 18E1/18F2/5800_            10636                       MOVEL @R1,L:DTABSGLOC,(R2)
                                   10656
 000C36 1802                       10657                       LR    R0,R2
 000C38 5008 0004            00004 10658                       PRETURN (R0)              Return updated length
                                   10660
 000C3C 58F0 8030            00008 10661              DTABEXIT L     R15,DTABRC          Return code
 000C40 18D8/9808 D004_            10662                       PEND  ,
 DROP   DTABWA-(4+36),R8
 DROP   *,R7
                                   10687
                                   10688                       SEGDEF DUMMY
                                   10689                       ¿þþþþþþþþþþþþþþþþþþþþþþþþþþþþÜ
                                   10690                       Ÿ  Stop on EBCDIC TAB Table  Ÿ
                                   10691                       ¾þþþþþþþþþþþþþþþþþþþþþþþþþþþþ»
 000C4E 0000000000000000           10692              DTABEBCT DC    XL256'00'
 000D4E                00D4E 00C53 10693                       ORG   DTABEBCT+X'05'      EBCDIC TAB char
 000C53 FF                         10694                       DC    X'FF'
 000C54                00C54 00D4E 10695                       ORG
                                   10696                       ¿þþþþþþþþþþþþþþþþþþþþþþþþþþþÜ
                                   10697                       Ÿ  Stop on ASCII TAB Table  Ÿ
                                   10698                       ¾þþþþþþþþþþþþþþþþþþþþþþþþþþþ»
 000D4E 0000000000000000           10699              DTABASCT DC    XL256'00'
 000E4E                00E4E 00D57 10700                       ORG   DTABASCT+X'09'      ASCII TAB char (msb off)
 000D57 FF                         10701                       DC    X'FF'
 000D58                00D58 00DD7 10702                       ORG   DTABASCT+X'89'      ASCII TAB char (msb on)
 000DD7 FF                         10703                       DC    X'FF'
 000DD8                00DD8 00E4E 10704                       ORG
                                   10705
                                   10706                       QLTORG
1UTIL     (UTIL2025) (12:58) (15MAR04) Utility Routines                                                                     Page   23
0Current Usings:  (CP,R11) (CV,R12)
0Loc    Object Code    Addr1 Addr2  Stmt Lv Lineno    Source Statement           (Hibal 5, Asmedit 3.3)  HLASM R4.0  2004/03/15 12.58
+___    ______ ____    _____ _____  ____ __ ______    ______ _________
0                                  10726              ¿þþþþþþþþþþþþþþþþþþþþþþþþþþþþþþþþþþþþþþþþþþþþþþþþþþþþþþþþþþþþþþþþþþþþþÜ
                                   10727              Ÿ                                                                     Ÿ
                                   10728              Ÿ  FORMATL -- Routine to change special binary characters to          Ÿ
                                   10729              Ÿ    our multiple character representation.                           Ÿ
                                   10730              Ÿ                                                                     Ÿ
                                   10731              Ÿ    On entry:                                                        Ÿ
                                   10732              Ÿ      R1,R0  - input line loc, len                                   Ÿ
                                   10733              Ÿ      R2     - complimented if TEXTONLY wanted:                      Ÿ
                                   10734              Ÿ                 1 = generic table                                   Ÿ
                                   10735              Ÿ                 2 = APPLEASCII table                                Ÿ
                                   10736              Ÿ                                                                     Ÿ
                                   10737              Ÿ      R15    - maximum buffer length                                 Ÿ
                                   10738              Ÿ                                                                     Ÿ
                                   10739              Ÿ    On exit:                                                         Ÿ
                                   10740              Ÿ      R15 (and cc) -  0=ok; 4=truncated                              Ÿ
                                   10741              Ÿ      R1,R0 - expanded line loc, len                                 Ÿ
                                   10742              Ÿ         (line is expanded in place)                                 Ÿ
                                   10743              Ÿ                                                                     Ÿ
                                                      ¾þþþþþþþþþþþþþþþþþþþþþþþþþþþþþþþþþþþþþþþþþþþþþþþþþþþþþþþþþþþþþþþþþþþþþ»
0000000                00000 0081C 10744              FMTWA    RECORD BEGIN
 000000 00                         10752  1           FMTFLAG    FLAG
 FMTFLAG.FMTFTEXTO 80 ONES         10756  1                      FLAG  FMTFTEXTONLY        - Do TEXTONLY conversion
                                   10761  1
 000004                            10762  1           FMTTABP    DS    A                   TRT stop table ptr
 000008                            10763  1           FMTRC      DS    F                   Return code
 00000C                            10764  1           FMTMAXL    DS    F                   Maximum allowable return length
                                   10765  1           FMTINIT    EQU   FMTFLAG,*-FMTFLAG,C'X'
                                   10766  1
                                   10767  1           FMTSG      SEGCB
 000010 00                         10768  1 01-SEGCB +$$$SEGCB184   DS 0F
 FMTSGCOD.FMTSGSEG 01 EQ
 FMTSGCOD.FMTSGWR  02 EQ
 FMTSGCOD.FMTSGCLR 03 EQ
 FMTSGCOD.FMTSGSPP 04 EQ
 FMTSGCOD.FMTSGOVF 05 EQ
 FMTSGCOD.FMTSGCR  06 EQ
 FMTSGCOD.FMTSGMAR 07 EQ
 000011 00                         10843  1 01-SEGCB +           DC    X'00'               Reserved
 000012 0000                              1          +
 000014 00000000                   10844  1 01-SEGCB +FMTSGMAXF   DC   A(0)                Maximum buffer length
 000018 00000000                   10845  1 01-SEGCB +FMTSGMRKF   DC   A(0)                Length at last mark
 00001C 00000000                   10846  1 01-SEGCB +FMTSGLENF   DC   A(0)                Current length
 000020 00000000                   10847  1 01-SEGCB +FMTSGINDF   DC   A(0)                Overflow/indent count
 000024 00000000                   10848  1 01-SEGCB +FMTSGERR   DC    A(0)                Address of error recovery routine
 000028 0000000000000000           10849  1 01-SEGCB +           DC    2F'0'               Reserved
 000030 00000000                   10850  1 01-SEGCB +FMTSGLOC   DC    A(0)                Location of buffer
 000034 00000000                   10851  1 01-SEGCB +FMTSGRTN   DC    A(0)                Processing routine
 000038 0000000000000000           10852  1 01-SEGCB +           DC    4F'0'               Reserved
 000048 00000000                   10853  1 01-SEGCB +FMTSGUSR   DC    A(0)                USER field
                                   10854  1 01-SEGCB +FMTSG      EQU   $$$SEGCB184,*-$$$SEGCB184,C'X'
 00004C                            10855  1           FMTBUF     DS    XL2000              Big work buffer
 00081C                0081C 0081C 10856                       END
                                   10865              þþþþ
1UTIL     (UTIL2025) (12:58) (15MAR04) Utility Routines                                                                     Page   24
0Current Usings:  (*,R7) (FMTWA-(4+36),R8) (CP,R11) (CV,R12)
0Loc    Object Code    Addr1 Addr2  Stmt Lv Lineno    Source Statement           (Hibal 5, Asmedit 3.3)  HLASM R4.0  2004/03/15 12.58
+___    ______ ____    _____ _____  ____ __ ______    ______ _________
0000E7C 50E0 D000/9008_      00000 10866              FORMATL  XPROC FMTWA
 USING  *,R7
 USING  FMTWA-(4+36),R8
 000E96 D70F 8028 8028 00000 00000 10917                       CLEAR FMTINIT             Initialize
 000E9C 50F0 8034            0000C 10924                       ST    R15,FMTMAXL         Save maximum length
                                   10925
 000EA0 1222/47B0 7016_            10926                       IF    (R2,NEG),'SET FMTFTEXTONLY; LCR R2,R2'  TEXTONLY
                                   10952
 000EAC 58F0 7152            00FE8 10953                       L     R15,=A(FMTTAB)      Universal table
 000EB0 5920 7156/4770_      00FEC 10954                       IF    (R2,EQ,2),'L R15,=A(APPLETAB)'  APPLEASCII tbl
 000EBC 50F0 802C            00004 10977                       ST    R15,FMTTABP         Save TRT table ptr
                                   10978
 000EC0 1851                       10979                       LR    R5,R1               Orig data ptr
 000EC2 1840                       10980                       LR    R4,R0               Orig data len
                                   10981                       ¿þþþþþþþþþþþþþþþþþþþþþþþþþþþþþþþþþþþþþþþþþþþþþþþþþþþþþþþþþþÜ
                                   10982                       Ÿ  Quick check to see if there are ANY special characters  Ÿ
                                   10983                       Ÿ    in the line.                                          Ÿ
                                   10984                       ¾þþþþþþþþþþþþþþþþþþþþþþþþþþþþþþþþþþþþþþþþþþþþþþþþþþþþþþþþþþ»
 000EC4 5940 715E/4730_      00FF4 10985                       IF    (R4,LE,256),BEGIN   Not too long...
 000ECC 1234                       11002  1                      LTR   R3,R4
 000ECE 47D0 713E            00FD4 11003  1                      BNP   FMTEXIT
 000ED2 58F0 802C            00004 11004  1                      L     R15,FMTTABP
 000ED6 0630/4430 7174_            11005  1                      DEX   R3,'TRT @R5(0),@R15' Look for special chars
 000EDC 4780 713E            00FD4 11024  1                      BZ    FMTEXIT             No special chars, scram
 000EE0                            11025                       END
                                   11029                       ¿þþþþþþþþþþþþþþþþþþþþþþþþþþþþþþþþþþþþþþþþþþþþþþþþþþþþþþþþþþþÜ
                                   11030                       Ÿ  Format special characters by building a new copy of the  Ÿ
                                   11031                       Ÿ    line with the seg routines.                            Ÿ
                                   11032                       ¾þþþþþþþþþþþþþþþþþþþþþþþþþþþþþþþþþþþþþþþþþþþþþþþþþþþþþþþþþþþ»
 000EE0 4110 8074/4100_      0004C 11033                       SEGINIT FMTBUF,,FMTSG
 000EF2 1244/47D0 70F8             11060                       WHILE (R4,POS),BEGIN
 000EF8 1834                       11076  1                      LR    R3,R4
 000EFA 5930 715E/47D0_      00FF4 11077  1                      CEIL  R3,256
 000F06 58F0 802C            00004 11096  1                      L     R15,FMTTABP         Stop on special chars
 000F0A 1B22                       11097  1                      CLEAR R2                  Low byte of R2 set by TRT
 000F0C 0630/4430 717A_            11101  1                      DEX   R3,'TRT @R5(0),@R15' Look for special char
 000F12 4770 7092            00F28 11120  1                      IF    Z,BEGIN             No more specials remain...
 000F16 1815/1804/41F0_            11131  2                        SEG   (R5),(R4)           Add last bit
 000F24 47F0 70F8            00F8E 11156  2                        B     FMTCOPY
 000F28                            11157  1                      END
                                   11161  1
 000F28 1B15                       11162  1                      SR    R1,R5               Number of chars before special
 000F2A 1831                       11163  1                      LR    R3,R1
                                   11164  1
 000F2C 1815/1803/41F0_            11165  1                      SEG   (R5),(R3)           Add text before special
 000F3A 4110 7172/4100_      01008 11190  1                      SEG   '<'
 000F4C 0620                       11207  1                      DECR  R2
 000F4E 8920 0003            00003 11209  1                      SLL   R2,3                Offset times 8 (see ACHAR macro)
 000F52 5810 802C            00004 11210  1                      L     R1,FMTTABP
 000F56 4110 1100            00100 11211  1                      LA    R1,@R1+256          Origin for messages
 000F5A 1F00/4302 1000             11212  1                      LC    R0,@R1(R2)          Get message text length
 000F60 4112 1003/41F0_      00003 11217  1                      SEG   @R1+3(R2),(R0)      Add message text
 000F6E 4110 7173/4100_      01009 11243  1                      SEG   '>'
                                   11260  1
1UTIL     (UTIL2025) (12:58) (15MAR04) Utility Routines                                                                     Page   25
0Current Usings:  (*,R7) (FMTWA-(4+36),R8) (CP,R11) (CV,R12)
0Loc    Object Code    Addr1 Addr2  Stmt Lv Lineno    Source Statement           (Hibal 5, Asmedit 3.3)  HLASM R4.0  2004/03/15 12.58
+___    ______ ____    _____ _____  ____ __ ______    ______ _________
0000F80 4130 3001            00001 11261  1                      LA    R3,@R3+1            Number of chars incl tab char
 000F84 4153 5000            00000 11262  1                      LA    R5,@R5(R3)          Kick input ptr
 000F88 1B43                       11263  1                      SR    R4,R3               Adjust remaining length
 000F8A 47F0 705C            00EF2 11264                       END
                                   11269
 000F8E 5820 8044            0001C 11270              FMTCOPY  L     R2,FMTSGLENF        Seg buffer length
                                   11271                       ¿þþþþþþþþþþþþþþþþþþþþþþþþþþþþþþþþþþþþþþþþþþþþþþþþþþþÜ
                                   11272                       Ÿ  If the caller wants the TEXTONLY form then call  Ÿ
                                   11273                       Ÿ    TEXTONLY to do the conversion now (before the  Ÿ
                                   11274                       Ÿ    line gets truncated to the caller's maximum    Ÿ
                                   11275                       Ÿ    length).                                       Ÿ
                                   11276                       ¾þþþþþþþþþþþþþþþþþþþþþþþþþþþþþþþþþþþþþþþþþþþþþþþþþþþ»
 000F92 9180 8028/47E0_00000       11277                       IF    FMTFTEXTONLY,BEGIN  Now convert to TEXTONLY...
 000F9A 5810 8058/1802       00030 11292  1                      SETMSG L:FMTSGLOC,(R2)     Line data with our symbols
 000FA0 41F0 07D0            007D0 11304  1                      LA    R15,L'FMTBUF        Maximum allowed length
 000FA4 58E0 716A/0DEE       01000 11305  1                      ACALL TEXTONLY            Now do TEXTONLY conversion
 000FAA 1820                       11309  1                      LR    R2,R0               Save new line length
 000FAC                            11310                       END
                                   11314                       ¿þþþþþþþþþþþþþþþþþþþþþþþþþþþþþþþþþþþþþþþþþþþþþþþþþþþþÜ
                                   11315                       Ÿ  Copy the buffer back to the original input area.  Ÿ
                                   11316                       ¾þþþþþþþþþþþþþþþþþþþþþþþþþþþþþþþþþþþþþþþþþþþþþþþþþþþþ»
 000FAC 5920 8034/47D0_      0000C 11317                       IF    (R2,GT,FMTMAXL),'MVC FMTRC,=F"4"; L R2,FMTMAXL'
 000FBE 5818 0008            00008 11341                       PRESTORE (R1)             Restore R1 on entry
 000FC2 18E1/18F2/5800_            11343                       MOVEL @R1,L:FMTSGLOC,(R2)
                                   11363
 000FCE 1802                       11364                       LR    R0,R2
 000FD0 5008 0004            00004 11365                       PRETURN (R0)              Return updated length
                                   11367
 000FD4 58F0 8030            00008 11368              FMTEXIT  L     R15,FMTRC           Return code
 000FD8 18D8/9808 D004_            11369                       PEND
 DROP   FMTWA-(4+36),R8
 DROP   *,R7
                                   11394
                                   11395                       QLTORG
                                   11417
                                   11418                       SEGDEF DUMMY
1UTIL     (UTIL2025) (12:58) (15MAR04) Utility Routines                                                                     Page   26
0Current Usings:  (CP,R11) (CV,R12)
0Loc    Object Code    Addr1 Addr2  Stmt Lv Lineno    Source Statement           (Hibal 5, Asmedit 3.3)  HLASM R4.0  2004/03/15 12.58
+___    ______ ____    _____ _____  ____ __ ______    ______ _________
0                                  11420              ¿þþþþþþþþþþþþþþþþþþþþþþþþþþþþþþþþþþþþþþþþþþþþþþþþþþþþþþþþþþþþþþþþþþþþþÜ
                                   11421              Ÿ                                                                     Ÿ
                                   11422              Ÿ  UNFORML -- Routine to change our multiple character                Ÿ
                                   11423              Ÿ    representation of special characters to the corresponding        Ÿ
                                   11424              Ÿ    binary character.                                                Ÿ
                                   11425              Ÿ                                                                     Ÿ
                                   11426              Ÿ    On entry:                                                        Ÿ
                                   11427              Ÿ      R1,R0  - input line loc, len                                   Ÿ
                                   11428              Ÿ      R2     - 1 = generic table                                     Ÿ
                                   11429              Ÿ             - 2 = APPLEASCII table                                  Ÿ
                                   11430              Ÿ      R15    - maximum buffer length                                 Ÿ
                                   11431              Ÿ                                                                     Ÿ
                                   11432              Ÿ    On exit:                                                         Ÿ
                                   11433              Ÿ      R15 (and cc) -  0=ok; 4=truncated                              Ÿ
                                   11434              Ÿ      R1,R0 - expanded line loc, len                                 Ÿ
                                   11435              Ÿ         (line is expanded in place)                                 Ÿ
                                   11436              Ÿ                                                                     Ÿ
                                                      ¾þþþþþþþþþþþþþþþþþþþþþþþþþþþþþþþþþþþþþþþþþþþþþþþþþþþþþþþþþþþþþþþþþþþþþ»
0000000                00000 00884 11437              UFMTWA   RECORD BEGIN
 000000 00                         11445  1           UFMTFLAG   FLAG
                                   11449  1
 000004                            11450  1           UFMTTABP   DS    A                   ACHAR special char ptr
 000008                            11451  1           UFMTRC     DS    F                   Return code
 00000C                            11452  1           UFMTMAXL   DS    F                   Maximum allowable return length
 000010                            11453  1           UFMTSAVE   DS    2A                  Save ptrs
                                   11454  1           UFMTINIT   EQU   UFMTFLAG,*-UFMTFLAG,C'X'
                                   11455  1
 000018                            11456  1           UFMTENT    DS    CL32                Working table entry text area
 000038                            11457  1           UFMTTOK    DS    CL32                User's special sequence
 000058                            11458  1           UFMTTOKL   DS    CL32                Same as UFMTTOK but all lower
                                   11459  1
                                   11460  1           UFMTSG     SEGCB
 000078 00                         11461  1 01-SEGCB +$$$SEGCB208   DS 0F
 UFMTSGCOD.UFMTSGS 01 EQ
 UFMTSGCOD.UFMTSGW 02 EQ
 UFMTSGCOD.UFMTSGC 03 EQ
 UFMTSGCOD.UFMTSGS 04 EQ
 UFMTSGCOD.UFMTSGO 05 EQ
 UFMTSGCOD.UFMTSGC 06 EQ
 UFMTSGCOD.UFMTSGM 07 EQ
 000079 00                         11536  1 01-SEGCB +           DC    X'00'               Reserved
 00007A 0000                              1          +
 00007C 00000000                   11537  1 01-SEGCB +UFMTSGMAXF   DC  A(0)                Maximum buffer length
 000080 00000000                   11538  1 01-SEGCB +UFMTSGMRKF   DC  A(0)                Length at last mark
 000084 00000000                   11539  1 01-SEGCB +UFMTSGLENF   DC  A(0)                Current length
 000088 00000000                   11540  1 01-SEGCB +UFMTSGINDF   DC  A(0)                Overflow/indent count
 00008C 00000000                   11541  1 01-SEGCB +UFMTSGERR   DC   A(0)                Address of error recovery routine
 000090 0000000000000000           11542  1 01-SEGCB +           DC    2F'0'               Reserved
 000098 00000000                   11543  1 01-SEGCB +UFMTSGLOC   DC   A(0)                Location of buffer
 00009C 00000000                   11544  1 01-SEGCB +UFMTSGRTN   DC   A(0)                Processing routine
 0000A0 0000000000000000           11545  1 01-SEGCB +           DC    4F'0'               Reserved
 0000B0 00000000                   11546  1 01-SEGCB +UFMTSGUSR   DC   A(0)                USER field
                                   11547  1 01-SEGCB +UFMTSG     EQU   $$$SEGCB208,*-$$$SEGCB208,C'X'
1UTIL     (UTIL2025) (12:58) (15MAR04) Utility Routines                                                                     Page   27
0Current Usings:  (CP,R11) (CV,R12)
0Loc    Object Code    Addr1 Addr2  Stmt Lv Lineno    Source Statement           (Hibal 5, Asmedit 3.3)  HLASM R4.0  2004/03/15 12.58
+___    ______ ____    _____ _____  ____ __ ______    ______ _________
00000B4                            11548  1           UFMTBUF    DS    XL2000              Big work buffer
 000884                00884 00884 11549                       END
                                   11558              þþþþ
 001016 50E0 D000/9008_      00000 11559              UNFORML  XPROC UFMTWA
 USING  *,R7
 USING  UFMTWA-(4+36),R8
 001030 4160 8028            00000 11610                       LA    R6,UFMTWA
 USING  UFMTWA,R6                  11611                       WITH  (UFMTWA,R6)
                                   11624
 001034 D717 6000 6000 00000 00000 11625                       CLEAR UFMTINIT            Initialize
 00103A 50F0 600C            0000C 11632                       ST    R15,UFMTMAXL        Save maximum length
                                   11633
 00103E 58F0 7300            01330 11634                       L     R15,=A(APPLETAB)    Assume APPLEASCII table for now
 001042 50F0 6004            00004 11635                       ST    R15,UFMTTABP        Save table ptr
                                   11636
 001046 1851                       11637                       LR    R5,R1               Orig data ptr
 001048 1840                       11638                       LR    R4,R0               Orig data len
 00104A 9045 6010            00010 11639                       STM   R4,R5,UFMTSAVE      Save orig ptrs
                                   11640                       ¿þþþþþþþþþþþþþþþþþþþþþþþþþþþþþþþþþþþþþþþþþþþþþþþþþþþþþþþþþÜ
                                   11641                       Ÿ  Quick check to see if there are ANY special sequences  Ÿ
                                   11642                       Ÿ    in the line.                                         Ÿ
                                   11643                       ¾þþþþþþþþþþþþþþþþþþþþþþþþþþþþþþþþþþþþþþþþþþþþþþþþþþþþþþþþþ»
 00104E 1244/47D0 7060             11644                       WHILE (R4,POS),BEGIN      Go through line...
 001054 18F4                       11660  1                      LR    R15,R4
 001056 59F0 7304/47D0_      01334 11661  1                      CEIL  R15,256             Max length we can TRT
 001062 58E0 7308            01338 11680  1                      L     R14,=A(FORMSTRT)
 001066 06F0/44F0 733A_            11681  1                      DEX   R15,'TRT @R5(0),@R14' Look for "<" character
 00106C 4770 7044/4B40_      01074 11700  1                      IF    Z,'SH R4,=H"256"'   We didn't stop
                                   11717  1
 001074 7048/47F0 705C 01074 0106E 11718  1                      ELSE  BEGIN               We stopped...
 001078 D501 7332 1000_01362 00000 11729  2                        IF    (@R1,EQ,'<:'),UFMTSCAN  We found something
 001082 1B15                       11748  2                        SR    R1,R5               Number of chars scanned
 001084 4110 1001            00001 11749  2                        LA    R1,@R1+1            Plus 1
 001088 1A51                       11750  2                        AR    R5,R1               Skip past this stuff
 00108A 1B41                       11751  2                        SR    R4,R1               Keep remaining length accurate
 00108C                            11752  1                      END
 00108C 47F0 701E            0104E 11756                       END
                                   11761
 001090 47F0 71AE            011DE 11762                       B     UFMTEXIT            Nothing special, scram
                                   11763                       ¿þþþþþþþþþþþþþþþþþþþþþþþþþþþþþþþþþþþþþþþþþþþþþþþþþþþþþþþÜ
                                   11764                       Ÿ  There is at least one special sequence in this line  Ÿ
                                   11765                       Ÿ    so process the line.                               Ÿ
                                   11766                       ¾þþþþþþþþþþþþþþþþþþþþþþþþþþþþþþþþþþþþþþþþþþþþþþþþþþþþþþþ»
 001094 9845 6010            00010 11767              UFMTSCAN LM    R4,R5,UFMTSAVE      Restore orig data ptrs
 001098 4110 60B4/4100_      000B4 11768                       SEGINIT UFMTBUF,,UFMTSG   Initialize seg buffer
                                   11795
 0010AA 1244/47D0 7182             11796              UFMTLOOP IF    (R4,POS),BEGIN      Go through line...
 0010B0 18F4                       11811  1                      LR    R15,R4
 0010B2 59F0 7304/47D0_      01334 11812  1                      CEIL  R15,256
 0010BE 58E0 7308            01338 11831  1                      L     R14,=A(FORMSTRT)
 0010C2 06F0/44F0 7340_            11832  1                      DEX   R15,'TRT @R5(0),@R14'  Look for "<" character
 0010C8 4770 70AE            010DE 11851  1                      IF    Z,BEGIN             All done...
 0010CC 1815/1804/41F0_            11862  2                        SEG   (R5),(R4)           Add last bit
 0010DA 47F0 7182            011B2 11887  2                        B     UFMTCOPY
1UTIL     (UTIL2025) (12:58) (15MAR04) Utility Routines                                                                     Page   28
0Current Usings:  (UFMTWA,R6) (*,R7) (UFMTWA-(4+36),R8) (CP,R11) (CV,R12)
0Loc    Object Code    Addr1 Addr2  Stmt Lv Lineno    Source Statement           (Hibal 5, Asmedit 3.3)  HLASM R4.0  2004/03/15 12.58
+___    ______ ____    _____ _____  ____ __ ______    ______ _________
00010DE                            11888  1                      END
                                   11892  1
 0010DE 1B15                       11893  1                      SR    R1,R5               Number of chars up to special
 0010E0 1821                       11894  1                      LR    R2,R1
                                   11895  1
 0010E2 1815/1802/41F0_            11896  1                      SEG   (R5),(R2)           Add text before special
                                   11921  1
 0010F0 1A52                       11922  1                      AR    R5,R2               Skip past data just processed
 0010F2 1B42                       11923  1                      SR    R4,R2               Keep length accurate
                                   11924  1
 0010F4 5940 7314/47B0_      01344 11925  1                      IF    (R4,LT,4),BEGIN     Not enough characters remain...
 0010FC 1815/1804/41F0_            11942  2                        SEG   (R5),(R4)           Add last bit
 00110A 47F0 7182            011B2 11967  2                        B     UFMTCOPY
 00110E                            11968  1                      END
                                   11972  1
 00110E D501 7332 5000_01362 00000 11973  1                      IF    (@R5,NE,'<:'),BEGIN  Not our special sequence...
 001118 1815/4100 0001_            11989  2                        SEG   @R5,1               Add the "<" to buffer
 001128 4150 5001            00001 12018  2                        LA    R5,@R5+1            Kick ptr
 00112C 4B40 7334            01364 12019  2                        SH    R4,=H'1'            Adjust remaining length
 001130 47F0 707A            010AA 12020  2                        B     UFMTLOOP            Go keep checking
 001134                            12021  1                      END
                                   12025  1
 001134 1835                       12026  1                      LR    R3,R5               Copy data ptrs
 001136 1824                       12027  1                      LR    R2,R4
                                   12028  1                      ¿þþþþþþþþþþþþþþþþþþþþþþþþþþþþþþþþþþþþþþþþþþÜ
                                   12029  1                      Ÿ  Look for the end of the "<:" sequence.  Ÿ
                                   12030  1                      ¾þþþþþþþþþþþþþþþþþþþþþþþþþþþþþþþþþþþþþþþþþþ»
 001138 1222/47D0 7170             12031  1                      WHILE (R2,POS),BEGIN      Validate characters...
 00113E 956E 3000/4770_00000       12047  2                        IF    (@R3,EQ,'>'),BEGIN  End of formatting command...
 001146 1B35                       12063  3                          SR    R3,R5
 001148 1815/1803                  12064  3                          SETMSG (R5),(R3)           Formatting command
 00114C 4110 1001            00001 12076  3                          LA    R1,@R1+1            Skip past leading "<"
 001150 0600                       12077  3                          DECR  R0                  Keep length accurate
 001152 41F0 6078            00078 12079  3                          SEGLD ,                   Pass seg control block ptr
 001156 58E0 7318/0DEE       01348 12087  3                          ACALL UFORMTOK            Process formatting command
                                   12091  3
 00115C 4130 3001            00001 12092  3                          LA    R3,@R3+1            Skip past cmd (including ">")
 001160 1A53                       12093  3                          AR    R5,R3               Kick ptr...
 001162 1B43                       12094  3                          SR    R4,R3               ...and decr length
 001164 47F0 707A            010AA 12095  3                          B     UFMTLOOP            All done, go process more chars
 001168                            12096  2                        END
                                   12100  2
 001168 1F11/4310 3000             12101  2                        LC    R1,@R3              Get char
 00116E 58E0 731C            0134C 12108  2                        L     R14,=A(FORMCTAB)
 001172 1FFF/43F1 E000             12109  2                        LC    R15,@R14(R1)        Non-zero if invalid character
 001178 12FF/4780 7166             12116  2                        IF    (R15,NZ),BEGIN      Invalid character...
 00117E 1B35                       12130  3                          SR    R3,R5
 001180 1815/1803/41F0_            12131  3                          SEG   (R5),(R3)           Add text
 00118E 1A53                       12156  3                          AR    R5,R3               Kick ptr...
 001190 1B43                       12157  3                          SR    R4,R3               ...and decr length
 001192 47F0 707A            010AA 12158  3                          B     UFMTLOOP
 001196                            12159  2                        END
                                   12163  2
 001196 4130 3001            00001 12164  2                        LA    R3,@R3+1            Next char
1UTIL     (UTIL2025) (12:58) (15MAR04) Utility Routines                                                                     Page   29
0Current Usings:  (UFMTWA,R6) (*,R7) (UFMTWA-(4+36),R8) (CP,R11) (CV,R12)
0Loc    Object Code    Addr1 Addr2  Stmt Lv Lineno    Source Statement           (Hibal 5, Asmedit 3.3)  HLASM R4.0  2004/03/15 12.58
+___    ______ ____    _____ _____  ____ __ ______    ______ _________
000119A 0620                       12165  2                        DECR  R2
 00119C 47F0 7108            01138 12167  1                      END
                                   12172  1                      ¿þþþþþþþþþþþþþþþþþþþþþþþþþþþþþþþþþþþþþþþþþþþþþþþÜ
                                   12173  1                      Ÿ  Sequence started with "<:" but never ended.  Ÿ
                                   12174  1                      ¾þþþþþþþþþþþþþþþþþþþþþþþþþþþþþþþþþþþþþþþþþþþþþþþ»
 0011A0 1815/1804/41F0_            12175  1                      SEG   (R5),(R4)           Add remainder of line
 0011AE 47F0 7182            011B2 12200  1                      B     UFMTCOPY            All done
 0011B2                            12201                       END
                                   12205                       ¿þþþþþþþþþþþþþþþþþþþþþþþþþþþþþþþþþþþþþþþþþþþþþþþþþþþþÜ
                                   12206                       Ÿ  Copy the buffer back to the original input area.  Ÿ
                                   12207                       ¾þþþþþþþþþþþþþþþþþþþþþþþþþþþþþþþþþþþþþþþþþþþþþþþþþþþþ»
 0011B2 5818 0008            00008 12208              UFMTCOPY PRESTORE (R1)             Restore R1 on entry
 0011B6 5820 6084            00084 12210                       L     R2,UFMTSGLENF       Seg buffer length
 0011BA 5920 600C/47D0_      0000C 12211                       IF    (R2,GT,UFMTMAXL),'MVC UFMTRC,=F"4"; L R2,UFMTMAXL'
 0011CC 18E1/18F2/5800_            12235                       MOVEL @R1,L:UFMTSGLOC,(R2)
                                   12255
 0011D8 1802                       12256                       LR    R0,R2
 0011DA 5008 0004            00004 12257                       PRETURN (R0)              Return updated length
                                   12259
 0011DE 58F0 6008            00008 12260              UFMTEXIT L     R15,UFMTRC          Return code
 0011E2 18D8/9808 D004_            12261                       PEND
 DROP   UFMTWA,R6
 DROP   UFMTWA-(4+36),R8
 DROP   *,R7
                                   12291
                                   12292                       SEGDEF DUMMY
1UTIL     (UTIL2025) (12:58) (15MAR04) Utility Routines                                                                     Page   30
0Current Usings:  (CP,R11) (CV,R12)
0Loc    Object Code    Addr1 Addr2  Stmt Lv Lineno    Source Statement           (Hibal 5, Asmedit 3.3)  HLASM R4.0  2004/03/15 12.58
+___    ______ ____    _____ _____  ____ __ ______    ______ _________
0                                  12294              ¿þþþþþþþþþþþþþþþþþþþþþþþþþþþþþþþþþþþþþþþþþþþþþþþþþþþþþþþþþþþþþþþþþþþþþÜ
                                   12295              Ÿ                                                                     Ÿ
                                   12296              Ÿ  UFORMTOK -- Local routine to convert a special character           Ÿ
                                   12297              Ÿ    sequence to a binary character if possible.                      Ÿ
                                   12298              Ÿ                                                                     Ÿ
                                   12299              Ÿ    On entry:                                                        Ÿ
                                   12300              Ÿ      R1,R0 - special character text loc, len                        Ÿ
                                   12301              Ÿ                                                                     Ÿ
                                                      ¾þþþþþþþþþþþþþþþþþþþþþþþþþþþþþþþþþþþþþþþþþþþþþþþþþþþþþþþþþþþþþþþþþþþþþ»
00011F0 50E0 D000/9008_      00000 12302              UFORMTOK PROC
 USING  *,R7
 USING  UFMTWA,R6                  12341                       WITH  (UFMTWA,R6)         Entry assumption
                                   12354                       SEGDEF UFMTSG
                                   12355
 00120A 9001 D000/41D0_      00000 12356                       XPUSH R0,R1               Needed if unrec
                                   12359
 001212 18F0                       12360                       LR    R15,R0
 001214 59F0 714A/47D0_      01354 12361                       CEIL  R15,L'UFMTTOK
 001220 D21F 6038 C4D8 00038 004D8 12380                       MVC   UFMTTOK,CVBLANKS    Pre-blank
 001226 06F0/12FF/4740_            12381                       MOVE  R15,UFMTTOK,@R1
 001232 D21F 6058 6038 00058 00038 12419                       MVC   UFMTTOKL,UFMTTOK    Lower case version of TOK
 001238 58F0 C8AC            008AC 12420                       L     R15,CVLOWTBL
 00123C DC1F 6058 F000 00058 00000 12421                       TR    UFMTTOKL,@R15       Convert to all lower case
                                   12422
 001242 5850 6004            00004 12423                       L     R5,UFMTTABP         Special processing table ptr
 001246 4150 5100            00100 12424                       LA    R5,@R5+256          Skip past TRT table
                                   12425                       ¿þþþþþþþþþþþþþþþþþþþþþþþþþþþþþþþþþþþþþþþþþþþþþþþþþþþþþþþþþþþþþþÜ
                                   12426                       Ÿ  Go through our special sequence table looking for a match.  Ÿ
                                   12427                       ¾þþþþþþþþþþþþþþþþþþþþþþþþþþþþþþþþþþþþþþþþþþþþþþþþþþþþþþþþþþþþþþ»
 00124A 95FF 5000/4780_00000       12428                       WHILE (@R5,NE,X'FF'),BEGIN  Go through table...
 001252 1F33/4330 5000             12446  1                      LC    R3,@R5              Get length byte
 001258 18F3                       12453  1                      LR    R15,R3
 00125A 59F0 714E/47D0_      01358 12454  1                      CEIL  R15,L'UFMTENT
 001266 D21F 6018 C4D8 00018 004D8 12473  1                      MVC   UFMTENT,CVBLANKS    Pre-blank
 00126C 06F0/12FF/4740_            12474  1                      MOVE  R15,UFMTENT,@R5+3   Copy table entry text
 001278 58F0 C8AC            008AC 12512  1                      L     R15,CVLOWTBL
 00127C DC1F 6018 F000 00018 00000 12513  1                      TR    UFMTENT,@R15        Make sure it's all lower case
                                   12514  1                      ¿þþþþþþþþþþþþþþþþþþþþþþþþþþþþþþþþþþþþþþþþþþþþþþþþþþþþþþþþþþþþÜ
                                   12515  1                      Ÿ  We found the sequence so write out the binary character.  Ÿ
                                   12516  1                      ¾þþþþþþþþþþþþþþþþþþþþþþþþþþþþþþþþþþþþþþþþþþþþþþþþþþþþþþþþþþþþ»
 001282 9500 5002/4770_00002       12517  1                      IF    ('CLI @R5+2,ACHAR$ANY',EQ),BEGIN  Case insensitive...
 00128A D51F 6058 6018_00058 00018 12530  2                        IF    (UFMTTOKL,EQ,UFMTENT),USEQMAT  Matched
 001294                            12551  1                      END
                                   12555  1
 001294 708E/47F0 70A0_01294 01288 12556  1                      ELSEIF ('CLI @R5+2,ACHAR$LOWER',EQ),BEGIN  All lower...
 0012A0 D51F 6038 6018_00038 00018 12578  2                        IF    (UFMTTOK,EQ,UFMTENT),USEQMAT  Matched
 0012AA                            12599  1                      END
                                   12603  1
 0012AA 70A4/47F0 70C0_012AA 0129E 12604  1                      ELSEIF ('CLI @R5+2,ACHAR$UPPER',EQ),BEGIN  Any upper...
 0012B6 D51F 6058 6018_00058 00018 12626  2                        IF    (UFMTTOKL,EQ,UFMTENT),BEGIN
 0012C0 D51F 6038 6058_00038 00058 12644  3                          IF    (UFMTTOK,NE,UFMTTOKL),USEQMAT
 0012CA                            12665  2                        END
 0012CA                            12669  1                      END
1UTIL     (UTIL2025) (12:58) (15MAR04) Utility Routines                                                                     Page   31
0Current Usings:  (UFMTWA,R6) (*,R7) (CP,R11) (CV,R12)
0Loc    Object Code    Addr1 Addr2  Stmt Lv Lineno    Source Statement           (Hibal 5, Asmedit 3.3)  HLASM R4.0  2004/03/15 12.58
+___    ______ ____    _____ _____  ____ __ ______    ______ _________
0                                  12673  1
 0012CA 4153 500A            0000A 12674  1                      LA    R5,@R5+3+7(R3)      Next entry ptr
 0012CE 5450 7152            0135C 12675  1                      N     R5,=A(-8)           Align to next doubleword
 0012D2 47F0 7040            0124A 12676                       END
                                   12681                       ¿þþþþþþþþþþþþþþþþþþþþþþþþþþþþþþþþþþÜ
                                   12682                       Ÿ  It's not one of our sequences.  Ÿ
                                   12683                       ¾þþþþþþþþþþþþþþþþþþþþþþþþþþþþþþþþþþ»
 0012D6 4110 715E/4100_      01368 12684                       SEG   '<'
 0012E8 4BD0 715C/9801_      01366 12701                       XPOP  R0,R1               Restore orig token ptrs
 0012F0 41F0 6078/58E0_      00078 12704                       SEG   (R1),(R0)           Write out original text
 0012FA 4110 715F/4100_      01369 12727                       SEG   '>'
 00130C 47F0 7118            01322 12744                       B     USEQEXIT            All done
                                   12745                       ¿þþþþþþþþþþþþþþþþþþþþþþþþþþþþþþþþþþþþþþþþþþþþþþþþþþþþþþþþþþÜ
                                   12746                       Ÿ  It was our sequence so now write out the binary value.  Ÿ
                                   12747                       ¾þþþþþþþþþþþþþþþþþþþþþþþþþþþþþþþþþþþþþþþþþþþþþþþþþþþþþþþþþþ»
 001310 4110 5001/4100_      00001 12748              USEQMAT  SEG   @R5+1,1             Add the character
                                   12777
 001322 18D8/9808 D004_            12778              USEQEXIT PEND
 DROP   UFMTWA,R6
 DROP   *,R7
                                   12804
                                   12805                       QLTORG
                                   12835
                                   12836                       SEGDEF DUMMY
1UTIL     (UTIL2025) (12:58) (15MAR04) Utility Routines                                                                     Page   32
0Current Usings:  (CP,R11) (CV,R12)
0Loc    Object Code    Addr1 Addr2  Stmt Lv Lineno    Source Statement           (Hibal 5, Asmedit 3.3)  HLASM R4.0  2004/03/15 12.58
+___    ______ ____    _____ _____  ____ __ ______    ______ _________
0                                  12838              ¿þþþþþþþþþþþþþþþþþþþþþþþþþþþþþþþþþþþþþþþþþþþþþþþþþþþþþþþþþþþþþþþþþþþþþÜ
                                   12839              Ÿ                                                                     Ÿ
                                   12840              Ÿ        Special formatting character table.                          Ÿ
                                   12841              Ÿ                                                                     Ÿ
                                                      ¾þþþþþþþþþþþþþþþþþþþþþþþþþþþþþþþþþþþþþþþþþþþþþþþþþþþþþþþþþþþþþþþþþþþþþ»
0                                  12842                       ASCGEN ,                  Define EBCDIC/ASCII tables
                                   12843
                                   12844              ACHAR$ANY   EQU 0,,C'N'            Either upper or lower case is OK
                                   12845              ACHAR$LOWER EQU 1,,C'N'            Lower case only
                                   12846              ACHAR$UPPER EQU 2,,C'N'            Upper case only
                                   12847
                                   12848                       MACRO
                                   12849              &L       ACHAR &ASCVAL,&TEXT,&CASE=ANY
                                   12850                       GBLA  &$EBC(256)          (Defined by ASCGEN macro)
                                   12851                       GBLB  &AINIT
                                   12852                       GBLB  &ATRT(256)          TRT table
                                   12853                       GBLC  &AFLAGS(256)        Flags
                                   12854                       GBLC  &AMSG(256)          Message table
                                   12855              .*
                                   12856              &L       DS    0D
                                   12857              .*
                                   12858                       AIF   (&AINIT).INITED
                                   12859              &AINIT   SETB  1
                                   12860              .*
                                   12861              &I       SETA  0
                                   12862              .INITLP  AIF   (&I GT 255).INITED
                                   12863              &I       SETA  &I+1
                                   12864              &ATRT(&I)   SETB 0
                                   12865              &AFLAGS(&I) SETC ''
                                   12866              &AMSG(&I)   SETC ''
                                   12867                       AGO   .INITLP
                                   12868              .INITED  ANOP
                                   12869              .*
                                   12870                       AIF   ('&ASCVAL' EQ '' AND '&TEXT' EQ '').GEN
                                   12871              &LAB     SETC  '$$$VAL&SYSNDX'
                                   12872              &LAB     EQU   0,&ASCVAL   Second parameter should be a constant
                                   12873              &V       SETA  L'&LAB              Get numeric value of char
                                   12874              &V       SETA  &$EBC(1+&V)+1       Convert ASCII to EBCDIC
                                   12875                       AIF   (NOT &ATRT(&V)).AOK
                                   12876                       MNOTE 8,'Already defined as "&AMSG(&V)".'
                                   12877                       MEXIT
                                   12878              .*
                                   12879              .AOK     ANOP
                                   12880              &ATRT(&V)   SETB  1
                                   12881              &AFLAGS(&V) SETC  'ACHAR$&CASE'
                                   12882              &AMSG(&V)   SETC  '&TEXT'
                                   12883                       MEXIT
                                   12884              .*
                                   12885              .*       Generate TRT table and messages.
                                   12886              .*
                                   12887              .GEN     ANOP
                                   12888              &W       SETC  '$$$TEXT&SYSNDX.T'
                                   12889              .*
1UTIL     (UTIL2025) (12:58) (15MAR04) Utility Routines                                                                     Page   33
0Current Usings:  (CP,R11) (CV,R12)
0Loc    Object Code    Addr1 Addr2  Stmt Lv Lineno    Source Statement           (Hibal 5, Asmedit 3.3)  HLASM R4.0  2004/03/15 12.58
+___    ______ ____    _____ _____  ____ __ ______    ______ _________
0                                  12890              &I       SETA  0
                                   12891              .TRTLP   AIF   (&I GT 255).TRTDONE
                                   12892              &I       SETA  &I+1
                                   12893                       AIF   (NOT &ATRT(&I)).TRTZ
                                   12894                       DC    AL1(&W.&I)
                                   12895                       AGO   .TRTLP
                                   12896              .TRTZ    DC    AL1(0)
                                   12897                       AGO   .TRTLP
                                   12898              .*
                                   12899              .TRTDONE ANOP
                                   12900              &W       DS    0D                  Message text base
                                   12901              &I       SETA  0
                                   12902              .TXTLP   AIF   (&I GT 255).TXTDONE
                                   12903              &I       SETA  &I+1
                                   12904                       AIF   (NOT &ATRT(&I)).TXTLP
                                   12905                       DS    0D                  8 byte boundry
                                   12906              &W.&I    EQU   (*-&W)/8+1          Offset in 8 byte chunks+1
                                   12907                       DC    AL1(L'&W.&I.T)      Message length
                                   12908                       DC    AL1(&I-1)           Character value (in EBCDIC)
                                   12909                       DC    AL1(&AFLAGS(&I))    Flags
                                   12910                       AIF   ('&AMSG(&I)' EQ '''''').NULLTXT
                                   12911              &W.&I.T  DC    C&AMSG(&I)          Message text
                                   12912                       AGO   .TXTLP
                                   12913              .NULLTXT ANOP
                                   12914              &W.&I.T  EQU   0,0,C'N'            No message text
                                   12915                       AGO   .TXTLP
                                   12916              .*
                                   12917              .TXTDONE ANOP
                                   12918                       DC    X'FF'               End of table marker
                                   12919                       DS    0SL2((&W+255*8)-*)  Error if too many messages!
                                   12920              &AINIT   SETB  0                   No longer init'd
                                   12921                       MEND
1UTIL     (UTIL2025) (12:58) (15MAR04) Utility Routines                                                                     Page   34
0Current Usings:  (CP,R11) (CV,R12)
0Loc    Object Code    Addr1 Addr2  Stmt Lv Lineno    Source Statement           (Hibal 5, Asmedit 3.3)  HLASM R4.0  2004/03/15 12.58
+___    ______ ____    _____ _____  ____ __ ______    ______ _________
0                                  12923              ¿þþþþþþþþþþþþþþþþþþþþþþþþþþþþþþþþþþþþþþþþþþþþþþþþþþþþþþþþþþþþþþþþþþþþþÜ
                                   12924              Ÿ                                                                     Ÿ
                                   12925              Ÿ        General special character table.                             Ÿ
                                   12926              Ÿ                                                                     Ÿ
                                                      ¾þþþþþþþþþþþþþþþþþþþþþþþþþþþþþþþþþþþþþþþþþþþþþþþþþþþþþþþþþþþþþþþþþþþþþ»
0001388                            12927              FMTTAB   ACHAR X'00',':^@'         Control-@
 001388                            12930                       ACHAR X'01',':^A'           "  "  A
 001388                            12933                       ACHAR X'02',':^B'           "  "  B
 001388                            12936                       ACHAR X'03',':^C'           "  "  C
 001388                            12939                       ACHAR X'04',':^D'           "  "  D
 001388                            12942                       ACHAR X'05',':^E'           "  "  E
 001388                            12945                       ACHAR X'06',':^F'           "  "  F
 001388                            12948                       ACHAR X'07',':^G'           "  "  G
 001388                            12951                       ACHAR X'08',':^H'           "  "  H
                                   12954              ***      ACHAR X'09',':^I'           "  "  I
 001388                            12955                       ACHAR X'0A',':^J'           "  "  J
 001388                            12958                       ACHAR X'0B',':^K'           "  "  K
 001388                            12961                       ACHAR X'0C',':^L'           "  "  L
 001388                            12964                       ACHAR X'0D',':^M'           "  "  M
 001388                            12967                       ACHAR X'0E',':^N'           "  "  N
 001388                            12970                       ACHAR X'0F',':^O'           "  "  O
 001388                            12973                       ACHAR X'10',':^P'           "  "  P
 001388                            12976                       ACHAR X'11',':^Q'           "  "  Q
 001388                            12979                       ACHAR X'12',':^R'           "  "  R
 001388                            12982                       ACHAR X'13',':^S'           "  "  S
 001388                            12985                       ACHAR X'14',':^T'           "  "  T
 001388                            12988                       ACHAR X'15',':^U'           "  "  U
 001388                            12991                       ACHAR X'16',':^V'           "  "  V
 001388                            12994                       ACHAR X'17',':^W'           "  "  W
 001388                            12997                       ACHAR X'18',':^X'           "  "  X
 001388                            13000                       ACHAR X'19',':^Y'           "  "  Y
 001388                            13003                       ACHAR X'1A',':^Z'           "  "  Z
 001388                            13006                       ACHAR X'1B',':^['           "  "  [
 001388                            13009                       ACHAR X'1C',':^\'           "  "  \
 001388                            13012                       ACHAR X'1D',':^]'           "  "  ]
 001388                            13015                       ACHAR X'1E',':^^'           "  "  ^
 001388                            13018                       ACHAR X'1F',':^_'           "  "  _
 001388                            13021                       ACHAR X'7F',':DEL'        ASCII rubout char
 001388 01/02/03/04/00/0_          13024                       ACHAR ,                   End of table
                                   13477
                                   13478                       COPY  ACHARSYM            Copy APPLEASCII table
                                   13479=            =         ¿þþþþþþþþþþþþþþþþþþþþþþþþþþþþþþþþþþþþþþþÜ
                                   13480=            =         Ÿ  APPLEASCII special character table.  Ÿ
                                   13481=            =         Ÿ                                       Ÿ
                                   13482=            =         Ÿ    Revision 1, 10/29/90, JNK          Ÿ
                                   13483=            =         ¾þþþþþþþþþþþþþþþþþþþþþþþþþþþþþþþþþþþþþþþ»
 001588                            13484             =APPLETAB ACHAR X'00',':^@'               Control-@
 001588                            13487             =         ACHAR X'01',':^A'                 "  "  A
 001588                            13490             =         ACHAR X'02',':^B'                 "  "  B
 001588                            13493             =         ACHAR X'03',':^C'                 "  "  C
 001588                            13496             =         ACHAR X'04',':^D'                 "  "  D
 001588                            13499             =         ACHAR X'05',':^E'                 "  "  E
 001588                            13502             =         ACHAR X'06',':^F'                 "  "  F
1UTIL     (UTIL2025) (12:58) (15MAR04) Utility Routines                                                                     Page   35
0Current Usings:  (CP,R11) (CV,R12)
0Loc    Object Code    Addr1 Addr2  Stmt Lv Lineno    Source Statement           (Hibal 5, Asmedit 3.3)  HLASM R4.0  2004/03/15 12.58
+___    ______ ____    _____ _____  ____ __ ______    ______ _________
0001588                            13505             =         ACHAR X'07',':^G'                 "  "  G
 001588                            13508             =         ACHAR X'08',':^H'                 "  "  H
                                   13511             =***      ACHAR X'09',':^I'                 "  "  I
 001588                            13512             =         ACHAR X'0A',':^J'                 "  "  J
 001588                            13515             =         ACHAR X'0B',':^K'                 "  "  K
 001588                            13518             =         ACHAR X'0C',':^L'                 "  "  L
 001588                            13521             =         ACHAR X'0D',':^M'                 "  "  M
 001588                            13524             =         ACHAR X'0E',':^N'                 "  "  N
 001588                            13527             =         ACHAR X'0F',':^O'                 "  "  O
 001588                            13530             =         ACHAR X'10',':^P'                 "  "  P
 001588                            13533             =         ACHAR X'11',':^Q'                 "  "  Q
 001588                            13536             =         ACHAR X'12',':^R'                 "  "  R
 001588                            13539             =         ACHAR X'13',':^S'                 "  "  S
 001588                            13542             =         ACHAR X'14',':^T'                 "  "  T
 001588                            13545             =         ACHAR X'15',':^U'                 "  "  U
 001588                            13548             =         ACHAR X'16',':^V'                 "  "  V
 001588                            13551             =         ACHAR X'17',':^W'                 "  "  W
 001588                            13554             =         ACHAR X'18',':^X'                 "  "  X
 001588                            13557             =         ACHAR X'19',':^Y'                 "  "  Y
 001588                            13560             =         ACHAR X'1A',':^Z'                 "  "  Z
 001588                            13563             =         ACHAR X'1B',':^['                 "  "  [
 001588                            13566             =         ACHAR X'1C',':^\'                 "  "  \
 001588                            13569             =         ACHAR X'1D',':^]'                 "  "  ]
 001588                            13572             =         ACHAR X'1E',':^^'                 "  "  ^
 001588                            13575             =         ACHAR X'1F',':^_'                 "  "  _
 001588                            13578             =         ACHAR X'7F',':DEL'              ASCII rubout char
                                   13581             =
 001588                            13582             =         ACHAR X'80',':A:',CASE=UPPER    A umlaut
 001588                            13585             =         ACHAR X'81',':Ao',CASE=UPPER    A ring
 001588                            13588             =         ACHAR X'82',':C,',CASE=UPPER    C cedilla
 001588                            13591             =         ACHAR X'83',':E''',CASE=UPPER   E acute
 001588                            13594             =         ACHAR X'84',':N~',CASE=UPPER    N tilde
 001588                            13597             =         ACHAR X'85',':O:',CASE=UPPER    O umlaut
 001588                            13600             =         ACHAR X'86',':U:',CASE=UPPER    U umlaut
 001588                            13603             =         ACHAR X'87',':a''',CASE=LOWER   a acute
 001588                            13606             =         ACHAR X'88',':a`',CASE=LOWER    a grave
 001588                            13609             =         ACHAR X'89',':a^',CASE=LOWER    a circumflex
 001588                            13612             =         ACHAR X'8A',':a:',CASE=LOWER    a umlaut
 001588                            13615             =         ACHAR X'8B',':a~',CASE=LOWER    a tilde
 001588                            13618             =         ACHAR X'8C',':ao',CASE=LOWER    a ring
 001588                            13621             =         ACHAR X'8D',':c,',CASE=LOWER    c cedilla
 001588                            13624             =         ACHAR X'8E',':e''',CASE=LOWER   e acute
 001588                            13627             =         ACHAR X'8F',':e`',CASE=LOWER    e grave
 001588                            13630             =         ACHAR X'90',':e^',CASE=LOWER    e circumflex
 001588                            13633             =         ACHAR X'91',':e:',CASE=LOWER    e umlaut
 001588                            13636             =         ACHAR X'92',':i''',CASE=LOWER   i acute
 001588                            13639             =         ACHAR X'93',':i`',CASE=LOWER    i grave
 001588                            13642             =         ACHAR X'94',':i^',CASE=LOWER    i circumflex
 001588                            13645             =         ACHAR X'95',':i:',CASE=LOWER    i umlaut
 001588                            13648             =         ACHAR X'96',':n~',CASE=LOWER    n tilde
 001588                            13651             =         ACHAR X'97',':o''',CASE=LOWER   o acute
 001588                            13654             =         ACHAR X'98',':o`',CASE=LOWER    o grave
 001588                            13657             =         ACHAR X'99',':o^',CASE=LOWER    o circumflex
 001588                            13660             =         ACHAR X'9A',':o:',CASE=LOWER    o umlaut
1UTIL     (UTIL2025) (12:58) (15MAR04) Utility Routines                                                                     Page   36
0Current Usings:  (CP,R11) (CV,R12)
0Loc    Object Code    Addr1 Addr2  Stmt Lv Lineno    Source Statement           (Hibal 5, Asmedit 3.3)  HLASM R4.0  2004/03/15 12.58
+___    ______ ____    _____ _____  ____ __ ______    ______ _________
0001588                            13663             =         ACHAR X'9B',':o~',CASE=LOWER    o tilde
 001588                            13666             =         ACHAR X'9C',':u''',CASE=LOWER   u acute
 001588                            13669             =         ACHAR X'9D',':u`',CASE=LOWER    u grave
 001588                            13672             =         ACHAR X'9E',':u^',CASE=LOWER    u circumflex
 001588                            13675             =         ACHAR X'9F',':u:',CASE=LOWER    u umlaut
 001588                            13678             =         ACHAR X'A0',':dagger'           dagger
 001588                            13681             =         ACHAR X'A1',':deg'              degree
 001588                            13684             =         ACHAR X'A2',':cent'             cent sign
 001588                            13687             =         ACHAR X'A3',':UKpound'          U.K. pound
 001588                            13690             =         ACHAR X'A4',':section'          section symbol
 001588                            13693             =         ACHAR X'A5',':bullet'           bullet symbol
 001588                            13696             =         ACHAR X'A6',':para'             paragraph symbol
 001588                            13699             =         ACHAR X'A7',':ss'               German ss
 001588                            13702             =         ACHAR X'A8',':regmark'          reg. trademark symbol
 001588                            13705             =         ACHAR X'A9',':copyright'        copyright symbol
 001588                            13708             =         ACHAR X'AA',':tm'               trademark symbol
 001588                            13711             =         ACHAR X'AB',':'''               acute  symbol
 001588                            13714             =         ACHAR X'AC',':umlaut'           umlaut symbol
 001588                            13717             =         ACHAR X'AD',':~='               Not equal symbol
 001588                            13720             =         ACHAR X'AE',':AE',CASE=UPPER    AE ligature
 001588                            13723             =         ACHAR X'AF',':O/',CASE=UPPER    O thorn
 001588                            13726             =         ACHAR X'B0',':infinity'         infinity symbol
 001588                            13729             =         ACHAR X'B1',':+-'               +/- symbol
 001588                            13732             =         ACHAR X'B2',':le'               <= symbol
 001588                            13735             =         ACHAR X'B3',':ge'               >= symbol
 001588                            13738             =         ACHAR X'B4',':yen'              yen symbol
 001588                            13741             =         ACHAR X'B5',':mu'               mu symbol
 001588                            13744             =         ACHAR X'B6',':curly_d'          Curly d
 001588                            13747             =         ACHAR X'B7',':Sigma'            Sigma symbol
 001588                            13750             =         ACHAR X'B8',':Pi',CASE=UPPER    Pi
 001588                            13753             =         ACHAR X'B9',':pi',CASE=LOWER    pi
 001588                            13756             =         ACHAR X'BA',':integral'         Integral symbol
 001588                            13759             =         ACHAR X'BB',':a_'               a underlined
 001588                            13762             =         ACHAR X'BC',':o_'               o underlined
 001588                            13765             =         ACHAR X'BD',':Omega'            Omega symbol
 001588                            13768             =         ACHAR X'BE',':ae',CASE=LOWER    ae ligature
 001588                            13771             =         ACHAR X'BF',':o/',CASE=LOWER    o thorn
 001588                            13774             =         ACHAR X'C0',':?~'               Upside down ?
 001588                            13777             =         ACHAR X'C1',':!~'               Upside down !
 001588                            13780             =         ACHAR X'C2',':not'              Not symbol
 001588                            13783             =         ACHAR X'C3',':radical'          Radical symbol
 001588                            13786             =         ACHAR X'C4',':f'                Florin / function symbol
 001588                            13789             =         ACHAR X'C5',':~~'               Approx. equal
 001588                            13792             =         ACHAR X'C6',':Delta'            Delta symbol
 001588                            13795             =         ACHAR X'C7',':l"euro'           left " european
 001588                            13798             =         ACHAR X'C8',':r"euro'           right " european
 001588                            13801             =         ACHAR X'C9',':...'              ellipsis
 001588                            13804             =         ACHAR X'CA',':sp'               space
 001588                            13807             =         ACHAR X'CB',':A`',CASE=UPPER    A grave
 001588                            13810             =         ACHAR X'CC',':A~',CASE=UPPER    A tilde
 001588                            13813             =         ACHAR X'CD',':O~',CASE=UPPER    O tilde
 001588                            13816             =         ACHAR X'CE',':OE',CASE=UPPER    OE ligature
 001588                            13819             =         ACHAR X'CF',':oe',CASE=LOWER    oe ligature
 001588                            13822             =         ACHAR X'D0',':en_dash'          small dash
1UTIL     (UTIL2025) (12:58) (15MAR04) Utility Routines                                                                     Page   37
0Current Usings:  (CP,R11) (CV,R12)
0Loc    Object Code    Addr1 Addr2  Stmt Lv Lineno    Source Statement           (Hibal 5, Asmedit 3.3)  HLASM R4.0  2004/03/15 12.58
+___    ______ ____    _____ _____  ____ __ ______    ______ _________
0001588                            13825             =         ACHAR X'D1',':em_dash'          large dash
 001588                            13828             =         ACHAR X'D2',':l"'               left "
 001588                            13831             =         ACHAR X'D3',':r"'               right "
 001588                            13834             =         ACHAR X'D4',':l'''              left '
 001588                            13837             =         ACHAR X'D5',':r'''              right '
 001588                            13840             =         ACHAR X'D6',':div'              division sign
 001588                            13843             =         ACHAR X'D7',':lozenge'          hollow diamond
 001588                            13846             =         ACHAR X'D8',':y:',CASE=LOWER    y umlaut
 001588                            13849             =         ACHAR X'D9',':Y:',CASE=UPPER    Y umlaut
 001588                            13852             =         ACHAR X'DA',':fraction'         Fraction
 001588                            13855             =         ACHAR X'DB',':currency'         Currency symbol
 001588                            13858             =         ACHAR X'DC',':l''euro'          left ' european
 001588                            13861             =         ACHAR X'DD',':r''euro'          right ' european
 001588                            13864             =         ACHAR X'DE',':fi'               fi ligature
 001588                            13867             =         ACHAR X'DF',':fl'               fl ligature
 001588                            13870             =         ACHAR X'E0',':dbl_dagger'        double dagger symbol
 001588                            13873             =         ACHAR X'E1',':sm_bullet'        Centered dot
 001588                            13876             =         ACHAR X'E2',':base'''           Base '
 001588                            13879             =         ACHAR X'E3',':base"'            Base ''
 001588                            13882             =         ACHAR X'E4',':%%'               Per-thousand symbol
 001588                            13885             =         ACHAR X'E5',':A^',CASE=UPPER    A circumflex
 001588                            13888             =         ACHAR X'E6',':E^',CASE=UPPER    E circumflex
 001588                            13891             =         ACHAR X'E7',':A''',CASE=UPPER   A acute
 001588                            13894             =         ACHAR X'E8',':E:',CASE=UPPER    E umlaut
 001588                            13897             =         ACHAR X'E9',':E`',CASE=UPPER    E grave
 001588                            13900             =         ACHAR X'EA',':I''',CASE=UPPER   I acute
 001588                            13903             =         ACHAR X'EB',':I^',CASE=UPPER    I circumflex
 001588                            13906             =         ACHAR X'EC',':I:',CASE=UPPER    I umlaut
 001588                            13909             =         ACHAR X'ED',':I`',CASE=UPPER    I grave
 001588                            13912             =         ACHAR X'EE',':O''',CASE=UPPER   O acute
 001588                            13915             =         ACHAR X'EF',':O^',CASE=UPPER    O circumflex
 001588                            13918             =         ACHAR X'F0',':Apple'            Apple symbol
 001588                            13921             =         ACHAR X'F1',':O`',CASE=UPPER    O grave
 001588                            13924             =         ACHAR X'F2',':U''',CASE=UPPER   U acute
 001588                            13927             =         ACHAR X'F3',':U^',CASE=UPPER    U circumflex
 001588                            13930             =         ACHAR X'F4',':U`',CASE=UPPER    U grave
 001588                            13933             =         ACHAR X'F5',':dotless_i'        turkish "i"
 001588                            13936             =         ACHAR X'F6',':^'                circumflex
 001588                            13939             =         ACHAR X'F7',':~'                tilde
 001588                            13942             =         ACHAR X'F8',':macron'           macron accent
 001588                            13945             =         ACHAR X'F9',':breve'            breve accent
 001588                            13948             =         ACHAR X'FA',':dot'              dot accent
 001588                            13951             =         ACHAR X'FB',':ring'             ring accent
 001588                            13954             =         ACHAR X'FC',':cedilla'          cedilla accent
 001588                            13957             =         ACHAR X'FD',':h_umlaut'         hungarian umlaut
 001588                            13960             =         ACHAR X'FE',':ogonek'           ogonek
 001588                            13963             =         ACHAR X'FF',':caron'            caron
 001588 01/02/03/04/05/0_          13966             =         ACHAR ,                         End of table
1UTIL     (UTIL2025) (12:58) (15MAR04) Utility Routines                                                                     Page   38
0Current Usings:  (CP,R11) (CV,R12)
0Loc    Object Code    Addr1 Addr2  Stmt Lv Lineno    Source Statement           (Hibal 5, Asmedit 3.3)  HLASM R4.0  2004/03/15 12.58
+___    ______ ____    _____ _____  ____ __ ______    ______ _________
0                                  15188              ¿þþþþþþþþþþþþþþþþþþþþþþþþþþþþþþþþþþþþþþþþþþþþþþþþþþþþþþþþþþþþþþþþþþþþþÜ
                                   15189              Ÿ        Formatting character entry (see FCHAR macro below).          Ÿ
                                   15190              Ÿ                                                                     Ÿ
                                                      ¾þþþþþþþþþþþþþþþþþþþþþþþþþþþþþþþþþþþþþþþþþþþþþþþþþþþþþþþþþþþþþþþþþþþþþ»
0000000                00000 00007 15191              FCHAR    RECORD BEGIN
 000000                            15199  1           FCHARNEXT   DS   A                   Next FCHAR ptr (0=end)
 000004 00                         15200  1           FCHARFLG   FLAG
 FCHARFLG.FCHARFAN 00 EQ           15204  1                      FLAG  (FCHARFANY,0,EQ)    - Match either upper or lower
 FCHARFLG.FCHARFUP 01 EQ           15214  1                      FLAG  (FCHARFUPPER,1,EQ)  - Match only if any upper case
 FCHARFLG.FCHARFLO 02 EQ           15224  1                      FLAG  (FCHARFLOWER,2,EQ)  - Match only if all lower case
 000005                            15234  1           FCHARLEN   DS    X                   Length of sequence
 000006                            15235  1           FCHARSEQ   DS    0C                  Sequence text (variable)
 000006                            15236  1           FCHARTLEN   DS   X                   Length of TEXT sequence
 000007                            15237  1           FCHARTEXT   DS   0C                  TEXT sequence
 000007                00007 00007 15238                       END
-                                  15248              ¿þþþþþþþþþþþþþþþþþþþþþþþþþþþþþþþþþþþþþþþþþþþþþþþþþþþþþþþþþþþþþþþþþþþþþÜ
                                   15249              Ÿ                                                                     Ÿ
                                   15250              Ÿ        The Special Character processing table is defined            Ÿ
                                   15251              Ÿ          with the FCHAR macro.  The format is:                      Ÿ
                                   15252              Ÿ                                                                     Ÿ
                                   15253              Ÿ              FCHAR  sequence,                                       Ÿ
                                   15254              Ÿ                       TEXT='plain text string to use',              Ÿ
                                   15255              Ÿ                       ALT='x'   Ignored by Wylbur.                  Ÿ
                                   15256              Ÿ                       CASE={ANY|UPPER|LOWER}                        Ÿ
                                   15257              Ÿ                                 Specifies that the sequence         Ÿ
                                   15258              Ÿ                                 must be in upper, lower or          Ÿ
                                   15259              Ÿ                                 any case.                           Ÿ
                                   15260              Ÿ                                                                     Ÿ
                                                      ¾þþþþþþþþþþþþþþþþþþþþþþþþþþþþþþþþþþþþþþþþþþþþþþþþþþþþþþþþþþþþþþþþþþþþþ»
0                                  15261                       MACRO
                                   15262              &L       FCHAR &CHARS,&TEXT=,&ALT=,&CASE=ANY
                                   15263                       GBLA  &FCHARCNT
                                   15264                       GBLC  &FCHARLAB
                                   15265              &L       DS    0F
                                   15266
                                   15267                       AIF   ('&CHARS' EQ '').ENDTAB
                                   15268              .*
                                   15269              &FCHARLAB LABEL
                                   15270              &CHLAB   SETC  '$$$FCHAR&FCHARCNT'
                                   15271              .*
                                   15272              &FCHARCNT SETA &FCHARCNT+1
                                   15273              &FCHARLAB SETC '$$$FCHAR&FCHARCNT'
                                   15274              .*
                                   15275                       DC    A(&FCHARLAB)        Next FCHAR entry ptr
                                   15276              .*
                                   15277                       DC    AL1(L'FCHARF&CASE)  Case flag
                                   15278              .*
                                   15279                       DC    AL1(L'&CHLAB.C)
                                   15280              &CHLAB.C DC    C&CHARS             Character string user types
                                   15281                       AIF   ('&TEXT' NE '').GOTTEXT
1UTIL     (UTIL2025) (12:58) (15MAR04) Utility Routines                                                                     Page   39
0Current Usings:  (CP,R11) (CV,R12)
0Loc    Object Code    Addr1 Addr2  Stmt Lv Lineno    Source Statement           (Hibal 5, Asmedit 3.3)  HLASM R4.0  2004/03/15 12.58
+___    ______ ____    _____ _____  ____ __ ______    ______ _________
0                                  15282                       DC    AL1(0)              No text we can display
                                   15283                       AGO   .TEXTCOM
                                   15284              .GOTTEXT ANOP
                                   15285                       DC    AL1(L'&CHLAB.T)
                                   15286              &CHLAB.T DC    C&TEXT              Character string we display
                                   15287              .TEXTCOM ANOP
                                   15288              .*
                                   15289                       MEXIT
                                   15290              .*
                                   15291              .ENDTAB  ANOP
                                   15292              &FCHARLAB EQU  0                   End of table
                                   15293                       MEND
1UTIL     (UTIL2025) (12:58) (15MAR04) Utility Routines                                                                     Page   40
0Current Usings:  (CP,R11) (CV,R12)
0Loc    Object Code    Addr1 Addr2  Stmt Lv Lineno    Source Statement           (Hibal 5, Asmedit 3.3)  HLASM R4.0  2004/03/15 12.58
+___    ______ ____    _____ _____  ____ __ ______    ______ _________
0                                  15295              ¿þþþþþþþþþþþþþþþþþþþþþþþþþþþþþþþþþþþþþþþþþþþþþþþþþþþþþþþþþþþþþþþþþþþþþÜ
                                   15296              Ÿ                                                                     Ÿ
                                   15297              Ÿ  TEXTONLY -- Routine to convert a line with our multiple character  Ÿ
                                   15298              Ÿ    special symbols in them to the generic representation.           Ÿ
                                   15299              Ÿ                                                                     Ÿ
                                   15300              Ÿ    On entry:                                                        Ÿ
                                   15301              Ÿ      R1,R0  - input line loc, len                                   Ÿ
                                   15302              Ÿ      R15    - maximum buffer length                                 Ÿ
                                   15303              Ÿ                                                                     Ÿ
                                   15304              Ÿ    On exit:                                                         Ÿ
                                   15305              Ÿ      R15 (and cc) -  0=ok; 4=truncated                              Ÿ
                                   15306              Ÿ      R1,R0 - expanded line loc, len                                 Ÿ
                                   15307              Ÿ         (line is expanded in place)                                 Ÿ
                                   15308              Ÿ                                                                     Ÿ
                                                      ¾þþþþþþþþþþþþþþþþþþþþþþþþþþþþþþþþþþþþþþþþþþþþþþþþþþþþþþþþþþþþþþþþþþþþþ»
0000000                00000 00880 15309              TFMTWA   RECORD BEGIN
 000000 00                         15317  1           TFMTFLAG   FLAG
                                   15321  1
 000004                            15322  1           TFMTRC     DS    F                   Return code
 000008                            15323  1           TFMTMAXL   DS    F                   Maximum allowable return length
 00000C                            15324  1           TFMTSAVE   DS    2A                  Save ptrs
                                   15325  1           TFMTINIT   EQU   TFMTFLAG,*-TFMTFLAG,C'X'
                                   15326  1
 000014                            15327  1           TFMTENT    DS    CL32                Working table entry text area
 000034                            15328  1           TFMTTOK    DS    CL32                User's special sequence
 000054                            15329  1           TFMTTOKL   DS    CL32                Same as UFMTTOK but all lower
                                   15330  1
                                   15331  1           TFMTSG     SEGCB
 000074 00                         15332  1 01-SEGCB +$$$SEGCB264   DS 0F
 TFMTSGCOD.TFMTSGS 01 EQ
 TFMTSGCOD.TFMTSGW 02 EQ
 TFMTSGCOD.TFMTSGC 03 EQ
 TFMTSGCOD.TFMTSGS 04 EQ
 TFMTSGCOD.TFMTSGO 05 EQ
 TFMTSGCOD.TFMTSGC 06 EQ
 TFMTSGCOD.TFMTSGM 07 EQ
 000075 00                         15407  1 01-SEGCB +           DC    X'00'               Reserved
 000076 0000                              1          +
 000078 00000000                   15408  1 01-SEGCB +TFMTSGMAXF   DC  A(0)                Maximum buffer length
 00007C 00000000                   15409  1 01-SEGCB +TFMTSGMRKF   DC  A(0)                Length at last mark
 000080 00000000                   15410  1 01-SEGCB +TFMTSGLENF   DC  A(0)                Current length
 000084 00000000                   15411  1 01-SEGCB +TFMTSGINDF   DC  A(0)                Overflow/indent count
 000088 00000000                   15412  1 01-SEGCB +TFMTSGERR   DC   A(0)                Address of error recovery routine
 00008C 0000000000000000           15413  1 01-SEGCB +           DC    2F'0'               Reserved
 000094 00000000                   15414  1 01-SEGCB +TFMTSGLOC   DC   A(0)                Location of buffer
 000098 00000000                   15415  1 01-SEGCB +TFMTSGRTN   DC   A(0)                Processing routine
 00009C 0000000000000000           15416  1 01-SEGCB +           DC    4F'0'               Reserved
 0000AC 00000000                   15417  1 01-SEGCB +TFMTSGUSR   DC   A(0)                USER field
                                   15418  1 01-SEGCB +TFMTSG     EQU   $$$SEGCB264,*-$$$SEGCB264,C'X'
 0000B0                            15419  1           TFMTBUF    DS    XL2000              Big work buffer
 000880                00880 00880 15420                       END
                                   15429              þþþþ
 001C9A 50E0 D000/9008_      00000 15430              TEXTONLY XPROC TFMTWA
1UTIL     (UTIL2025) (12:58) (15MAR04) Utility Routines                                                                     Page   41
0Current Usings:  (*,R7) (TFMTWA-(4+36),R8) (CP,R11) (CV,R12)
0Loc    Object Code    Addr1 Addr2  Stmt Lv Lineno    Source Statement           (Hibal 5, Asmedit 3.3)  HLASM R4.0  2004/03/15 12.58
+___    ______ ____    _____ _____  ____ __ ______    ______ _________
0USING  *,R7
 USING  TFMTWA-(4+36),R8
 001CB4 4160 8028            00000 15481                       LA    R6,TFMTWA
 USING  TFMTWA,R6                  15482                       WITH  (TFMTWA,R6)
                                   15495
 001CB8 D713 6000 6000 00000 00000 15496                       CLEAR TFMTINIT            Initialize
 001CBE 50F0 6008            00008 15503                       ST    R15,TFMTMAXL        Save maximum length
                                   15504
 001CC2 1851                       15505                       LR    R5,R1               Orig data ptr
 001CC4 1840                       15506                       LR    R4,R0               Orig data len
 001CC6 9045 600C            0000C 15507                       STM   R4,R5,TFMTSAVE      Save orig ptrs
                                   15508                       ¿þþþþþþþþþþþþþþþþþþþþþþþþþþþþþþþþþþþþþþþþþþþþþþþþþþþþþþþþþÜ
                                   15509                       Ÿ  Quick check to see if there are ANY special sequences  Ÿ
                                   15510                       Ÿ    in the line.                                         Ÿ
                                   15511                       ¾þþþþþþþþþþþþþþþþþþþþþþþþþþþþþþþþþþþþþþþþþþþþþþþþþþþþþþþþþ»
 001CCA 1244/47D0 7058             15512                       WHILE (R4,POS),BEGIN      Go through line...
 001CD0 18F4                       15528  1                      LR    R15,R4
 001CD2 59F0 7364/47D0_      02018 15529  1                      CEIL  R15,256             Max length we can TRT
 001CDE 58E0 7368            0201C 15548  1                      L     R14,=A(FORMSTRT)
 001CE2 06F0/44F0 739E_            15549  1                      DEX   R15,'TRT @R5(0),@R14'  Look for "<" character
 001CE8 4770 703C/4B40_      01CF0 15568  1                      IF    Z,'SH R4,=H"256"'   We didn't stop
                                   15585  1
 001CF0 7040/47F0 7054 01CF0 01CEA 15586  1                      ELSE  BEGIN               We stopped...
 001CF4 D501 7396 1000_0204A 00000 15597  2                        IF    (@R1,EQ,'<:'),TFMTSCAN  We found something
 001CFE 1B15                       15616  2                        SR    R1,R5               Number of chars scanned
 001D00 4110 1001            00001 15617  2                        LA    R1,@R1+1            Plus 1
 001D04 1A51                       15618  2                        AR    R5,R1               Skip past this stuff
 001D06 1B41                       15619  2                        SR    R4,R1               Keep remaining length accurate
 001D08                            15620  1                      END
 001D08 47F0 7016            01CCA 15624                       END
                                   15629
 001D0C 47F0 71AA            01E5E 15630                       B     TFMTEXIT            Nothing special, scram
                                   15631                       ¿þþþþþþþþþþþþþþþþþþþþþþþþþþþþþþþþþþþþþþþþþþþþþþþþþþþþþþþÜ
                                   15632                       Ÿ  There is at least one special sequence in this line  Ÿ
                                   15633                       Ÿ    so process the line.                               Ÿ
                                   15634                       ¾þþþþþþþþþþþþþþþþþþþþþþþþþþþþþþþþþþþþþþþþþþþþþþþþþþþþþþþ»
 001D10 9845 600C            0000C 15635              TFMTSCAN LM    R4,R5,TFMTSAVE      Restore orig data ptrs
 001D14 4110 60B0/4100_      000B0 15636                       SEGINIT TFMTBUF,,TFMTSG   Initialize seg buffer
                                   15663
 001D26 1244/47D0 717E             15664              TFMTLOOP WHILE (R4,POS),BEGIN      Go through line...
 001D2C 18F4                       15681  1                      LR    R15,R4
 001D2E 59F0 7364/47D0_      02018 15682  1                      CEIL  R15,256
 001D3A 58E0 7368            0201C 15701  1                      L     R14,=A(FORMSTRT)
 001D3E 06F0/44F0 73A4_            15702  1                      DEX   R15,'TRT @R5(0),@R14'  Look for "<" character
 001D44 4770 70A6            01D5A 15721  1                      IF    Z,BEGIN             All done...
 001D48 1815/1804/41F0_            15732  2                        SEG   (R5),(R4)           Add last bit
 001D56 47F0 717E            01E32 15757  2                        B     TFMTCOPY
 001D5A                            15758  1                      END
                                   15762  1
 001D5A 1B15                       15763  1                      SR    R1,R5               Number of chars up to special
 001D5C 1821                       15764  1                      LR    R2,R1
                                   15765  1
 001D5E 1815/1802/41F0_            15766  1                      SEG   (R5),(R2)           Add text before special
                                   15791  1
1UTIL     (UTIL2025) (12:58) (15MAR04) Utility Routines                                                                     Page   42
0Current Usings:  (TFMTWA,R6) (*,R7) (TFMTWA-(4+36),R8) (CP,R11) (CV,R12)
0Loc    Object Code    Addr1 Addr2  Stmt Lv Lineno    Source Statement           (Hibal 5, Asmedit 3.3)  HLASM R4.0  2004/03/15 12.58
+___    ______ ____    _____ _____  ____ __ ______    ______ _________
0001D6C 1A52                       15792  1                      AR    R5,R2               Skip past data just processed
 001D6E 1B42                       15793  1                      SR    R4,R2               Keep length accurate
                                   15794  1
 001D70 5940 7374/47B0_      02028 15795  1                      IF    (R4,LT,4),BEGIN     Not enough characters remain...
 001D78 1815/1804/41F0_            15812  2                        SEG   (R5),(R4)           Add last bit
 001D86 47F0 717E            01E32 15837  2                        B     TFMTCOPY
 001D8A                            15838  1                      END
                                   15842  1
 001D8A D501 7396 5000_0204A 00000 15843  1                      IF    (@R5,NE,'<:'),BEGIN  Not our special sequence...
 001D94 1815/4100 0001_            15859  2                        SEG   @R5,1               Add the "<" to buffer
 001DA4 4150 5001            00001 15888  2                        LA    R5,@R5+1            Kick ptr
 001DA8 4B40 7398            0204C 15889  2                        SH    R4,=H'1'            Adjust remaining length
 001DAC 47F0 7072            01D26 15890  2                        B     TFMTLOOP            Go keep checking
 001DB0                            15891  1                      END
                                   15895  1
 001DB0 1835                       15896  1                      LR    R3,R5               Copy data ptrs
 001DB2 1824                       15897  1                      LR    R2,R4
                                   15898  1                      ¿þþþþþþþþþþþþþþþþþþþþþþþþþþþþþþþþþþþþþþþþþþÜ
                                   15899  1                      Ÿ  Look for the end of the "<:" sequence.  Ÿ
                                   15900  1                      ¾þþþþþþþþþþþþþþþþþþþþþþþþþþþþþþþþþþþþþþþþþþ»
 001DB4 1222/47D0 7168             15901  1                      WHILE (R2,POS),BEGIN      Validate characters...
 001DBA 956E 3000/4770_00000       15917  2                        IF    (@R3,EQ,'>'),BEGIN  End of formatting command...
 001DC2 1B35                       15933  3                          SR    R3,R5
 001DC4 1815/1803                  15934  3                          SETMSG (R5),(R3)           Formatting command
 001DC8 4110 1001            00001 15946  3                          LA    R1,@R1+1            Skip past leading "<"
 001DCC 0600                       15947  3                          DECR  R0                  Keep length accurate
 001DCE 41F0 6074            00074 15949  3                          SEGLD ,                   Pass seg control block ptr
 001DD2 58E0 7378/0DEE       0202C 15957  3                          ACALL TEXTTOK             Process formatting command
                                   15961  3
 001DD8 4130 3001            00001 15962  3                          LA    R3,@R3+1            Skip past cmd (including ">")
 001DDC 1A53                       15963  3                          AR    R5,R3               Kick ptr...
 001DDE 1B43                       15964  3                          SR    R4,R3               ...and decr length
 001DE0 47F0 7072            01D26 15965  3                          B     TFMTLOOP            All done, go process more chars
 001DE4                            15966  2                        END
                                   15970  2
 001DE4 1F11/4310 3000             15971  2                        LC    R1,@R3              Get char
 001DEA 58E0 737C            02030 15978  2                        L     R14,=A(FORMCTAB)
 001DEE 1FFF/43F1 E000             15979  2                        LC    R15,@R14(R1)        Non-zero if invalid character
 001DF4 12FF/4780 715E             15986  2                        IF    (R15,NZ),BEGIN      Invalid character...
 001DFA 1B35                       16000  3                          SR    R3,R5
 001DFC 1815/1803/41F0_            16001  3                          SEG   (R5),(R3)           Add text
 001E0A 1A53                       16026  3                          AR    R5,R3               Kick ptr...
 001E0C 1B43                       16027  3                          SR    R4,R3               ...and decr length
 001E0E 47F0 7072            01D26 16028  3                          B     TFMTLOOP
 001E12                            16029  2                        END
                                   16033  2
 001E12 4130 3001            00001 16034  2                        LA    R3,@R3+1            Next char
 001E16 0620                       16035  2                        DECR  R2
 001E18 47F0 7100            01DB4 16037  1                      END
                                   16042  1
 001E1C 1815/1804/41F0_            16043  1                      SEG   (R5),(R4)           Add the remainder of the line
 001E2A 47F0 717E            01E32 16068  1                      B     TFMTCOPY            All done
 001E2E 47F0 7072            01D26 16069                       END
1UTIL     (UTIL2025) (12:58) (15MAR04) Utility Routines                                                                     Page   43
0Current Usings:  (TFMTWA,R6) (*,R7) (TFMTWA-(4+36),R8) (CP,R11) (CV,R12)
0Loc    Object Code    Addr1 Addr2  Stmt Lv Lineno    Source Statement           (Hibal 5, Asmedit 3.3)  HLASM R4.0  2004/03/15 12.58
+___    ______ ____    _____ _____  ____ __ ______    ______ _________
0                                  16074                       ¿þþþþþþþþþþþþþþþþþþþþþþþþþþþþþþþþþþþþþþþþþþþþþþþþþþþþÜ
                                   16075                       Ÿ  Copy the buffer back to the original input area.  Ÿ
                                   16076                       ¾þþþþþþþþþþþþþþþþþþþþþþþþþþþþþþþþþþþþþþþþþþþþþþþþþþþþ»
 001E32 5818 0008            00008 16077              TFMTCOPY PRESTORE (R1)             Restore R1 on entry
 001E36 5820 6080            00080 16079                       L     R2,TFMTSGLENF       Seg buffer length
 001E3A 5920 6008/47D0_      00008 16080                       IF    (R2,GT,TFMTMAXL),'MVC TFMTRC,=F"4"; L R2,TFMTMAXL'
 001E4C 18E1/18F2/5800_            16104                       MOVEL @R1,L:TFMTSGLOC,(R2)
                                   16124
 001E58 1802                       16125                       LR    R0,R2
 001E5A 5008 0004            00004 16126                       PRETURN (R0)              Return updated length
                                   16128
 001E5E 58F0 6004            00004 16129              TFMTEXIT L     R15,TFMTRC          Return code
 001E62 18D8/9808 D004_            16130                       PEND
 DROP   TFMTWA,R6
 DROP   TFMTWA-(4+36),R8
 DROP   *,R7
                                   16160
                                   16161                       SEGDEF DUMMY
1UTIL     (UTIL2025) (12:58) (15MAR04) Utility Routines                                                                     Page   44
0Current Usings:  (CP,R11) (CV,R12)
0Loc    Object Code    Addr1 Addr2  Stmt Lv Lineno    Source Statement           (Hibal 5, Asmedit 3.3)  HLASM R4.0  2004/03/15 12.58
+___    ______ ____    _____ _____  ____ __ ______    ______ _________
0                                  16163              ¿þþþþþþþþþþþþþþþþþþþþþþþþþþþþþþþþþþþþþþþþþþþþþþþþþþþþþþþþþþþþþþþþþþþþþÜ
                                   16164              Ÿ                                                                     Ÿ
                                   16165              Ÿ  TEXTTOK -- Local routine to process a special character            Ÿ
                                   16166              Ÿ    formatting sequence and convert it to a generic sequence.        Ÿ
                                   16167              Ÿ                                                                     Ÿ
                                   16168              Ÿ    On Entry:                                                        Ÿ
                                   16169              Ÿ       R1,R0 - formatting command location, length                   Ÿ
                                   16170              Ÿ                                                                     Ÿ
                                                      ¾þþþþþþþþþþþþþþþþþþþþþþþþþþþþþþþþþþþþþþþþþþþþþþþþþþþþþþþþþþþþþþþþþþþþþ»
0000000                00000 0006C 16171              TTOKWA   RECORD BEGIN
 000000 00                         16179  1           TTOKFLAG   FLAG
 TTOKFLAG.TTOKFDIS 80 ONES         16183  1                      FLAG  TTOKFDISPLAYONLY    - Don't do sequence
                                   16188  1
 000004                            16189  1           TTOKPTRS   DS    2A                  Original sequence ptrs
 00000C                            16190  1           TTOKSEQ    DS    CL32                Sequence as user typed it
 00002C                            16191  1           TTOKSEQL   DS    CL32                Sequence in all lower case
 00004C                            16192  1           TTOKTOK    DS    CL32                Current working sequence
 00006C                0006C 0006C 16193                       END
                                   16202              þþþþ
 001E70 50E0 D000/9008_      00000 16203              TEXTTOK  PROC  TTOKWA
 USING  *,R7
 USING  TTOKWA-(4+36),R8
 USING  TFMTWA,R6                  16253                       WITH  (TFMTWA,R6)         Entry assumption
                                   16266
 001E8A D76B 8028 8028 00000 00000 16267                       CLEAR TTOKWA
 001E90 9001 802C            00004 16274                       STM   R0,R1,TTOKPTRS      Original sequence ptrs
                                   16275
                                   16276                       SEGDEF TFMTSG             Seg buffer
                                   16277                       ¿þþþþþþþþþþþþþþþþþþþþþþþþþþþþþþþþþþþþþþþþþþþþþþþþÜ
                                   16278                       Ÿ  If a sequence begins with "<::" then we will  Ÿ
                                   16279                       Ÿ    display it as "<:" but not act on the       Ÿ
                                   16280                       Ÿ    formatting request.                         Ÿ
                                   16281                       ¾þþþþþþþþþþþþþþþþþþþþþþþþþþþþþþþþþþþþþþþþþþþþþþþþ»
 001E94 5900 71AE/47D0_      02038 16282                       IF    (R0,GT,2),BEGIN     Long enough to be possible...
 001E9C D501 71C4 1000_0204E 00000 16299  1                      IF    (@R1,NE,'::'),EXIT
 001EA6 9680 8028      00000       16318  1                      SET   TTOKFDISPLAYONLY    Special "skip" sequence
 001EAA 4110 1001            00001 16324  1                      LA    R1,@R1+1            Skip past first dot
 001EAE 0600                       16325  1                      DECR  R0                  Adjust length
 001EB0                            16327                       END
                                   16331
 001EB0 5900 71B2/47D0_      0203C 16332                       CEIL  R0,L'TTOKSEQ        Not too long now
 001EBC D21F 8034 C4D8 0000C 004D8 16351                       MVC   TTOKSEQ,CVBLANKS
 001EC2 1820                       16352                       LR    R2,R0
 001EC4 0620/1222/4740_            16353                       MOVE  R2,TTOKSEQ,@R1      Save sequence
                                   16391
 001ED0 D21F 8054 8034 0002C 0000C 16392                       MVC   TTOKSEQL,TTOKSEQ    Make copy of sequence
 001ED6 5820 C8AC            008AC 16393                       L     R2,CVLOWTBL
 001EDA DC1F 8054 2000 0002C 00000 16394                       TR    TTOKSEQL,@R2        Translate to all lower
1UTIL     (UTIL2025) (12:58) (15MAR04) Utility Routines                                                                     Page   45
0Current Usings:  (TFMTWA,R6) (*,R7) (TTOKWA-(4+36),R8) (CP,R11) (CV,R12)
0Loc    Object Code    Addr1 Addr2  Stmt Lv Lineno    Source Statement           (Hibal 5, Asmedit 3.3)  HLASM R4.0  2004/03/15 12.58
+___    ______ ____    _____ _____  ____ __ ______    ______ _________
0                                  16395                       ¿þþþþþþþþþþþþþþþþþþþþþþþþþþþþþþþþþþþþþþþþþþþþþþþþþþÜ
                                   16396                       Ÿ  Try to match our sequence with an entry in the  Ÿ
                                   16397                       Ÿ    FCHAR table.                                  Ÿ
                                   16398                       ¾þþþþþþþþþþþþþþþþþþþþþþþþþþþþþþþþþþþþþþþþþþþþþþþþþþ»
 001EE0 5840 71B6            02040 16399                       L     R4,=A(FCHARTBL)     Start of FCHAR table
 USING  FCHAR,R4                   16400                       WITH  (FCHAR,R4)
 001EE4 1244/4780 70DE             16413                       WHILE (R4,NZ),BEGIN       Go through FCHAR table...
 001EEA 1FFF/43F0 4005             16429  1                      LC    R15,FCHARLEN        Get sequence length
 001EF0 59F0 71BA/47D0_      02044 16436  1                      CEIL  R15,L'TTOKTOK       Not too long now
 001EFC D21F 8074 C4D8 0004C 004D8 16455  1                      MVC   TTOKTOK,CVBLANKS
 001F02 06F0/12FF/4740_            16456  1                      MOVE  R15,TTOKTOK,FCHARSEQ  Copy over sequence
 001F0E 58F0 C8AC            008AC 16494  1                      L     R15,CVLOWTBL
 001F12 DC1F 8074 F000 0004C 00000 16495  1                      TR    TTOKTOK,@R15        Convert to lower case
                                   16496  1                      ¿þþþþþþþþþþþþþþþþþþþþþþþþþþþþþÜ
                                   16497  1                      Ÿ  Cheap debugging facility.  Ÿ
                                   16498  1                      ¾þþþþþþþþþþþþþþþþþþþþþþþþþþþþþ»
                                   16499  1                      AGO   .NOBUGS
                                   16500  1           .NOBUGS    ANOP
                                   16501  1
 001F18 9500 4004/4770_00004       16502  1                      IF    FCHARFANY,BEGIN     Case insensitive...
 001F20 D51F 8074 8054_0004C 0002C 16517  2                        IF    (TTOKTOK,EQ,TTOKSEQL),TTOKMAT  Got it
 001F2A                            16538  1                      END
                                   16542  1
 001F2A 70A4/47F0 70B6_01F2A 01F1E 16543  1                      ELSEIF FCHARFLOWER,BEGIN  All lower case only...
 001F36 D51F 8074 8034_0004C 0000C 16567  2                        IF    (TTOKTOK,EQ,TTOKSEQ),TTOKMAT  Got it
 001F40                            16588  1                      END
                                   16592  1
 001F40 70BA/47F0 70D6_01F40 01F34 16593  1                      ELSEIF FCHARFUPPER,BEGIN  Any upper case...
 001F4C D51F 8074 8054_0004C 0002C 16617  2                        IF    (TTOKTOK,EQ,TTOKSEQL),BEGIN
 001F56 D51F 8074 8034_0004C 0000C 16635  3                          IF    (TTOKTOK,NE,TTOKSEQ),TTOKMAT  Some upper--matched
 001F60                            16656  2                        END
 001F60                            16660  1                      END
                                   16664  1
 001F60 5840 4000            00000 16665  1                      L     R4,FCHARNEXT        Get next FCHAR entry
 001F64 47F0 705A            01EE4 16666                       END
                                   16671                       ¿þþþþþþþþþþþþþþþþþþþþþþþþþþþþþþþþþþþþþþþþþþþþþþþþþþþþÜ
                                   16672                       Ÿ  No match, display the exact text we were passed.  Ÿ
                                   16673                       ¾þþþþþþþþþþþþþþþþþþþþþþþþþþþþþþþþþþþþþþþþþþþþþþþþþþþþ»
 001F68 4110 71C6/4100_      02050 16674                       SEG   '<'
 001F7A 9801 802C            00004 16691                       LM    R0,R1,TTOKPTRS      Original input text
 001F7E 41F0 6074/58E0_      00074 16692                       SEG   (R1),(R0)
 001F88 4110 71C7/4100_      02051 16715                       SEG   '>'
 001F9A 47F0 717A            02004 16732                       B     TTOKEXIT            All done
                                   16733                       ¿þþþþþþþþþþþþþþþþþþþþþþþþþþþþþÜ
                                   16734                       Ÿ  We found a matched entry.  Ÿ
                                   16735                       ¾þþþþþþþþþþþþþþþþþþþþþþþþþþþþþ»
 001F9E 9180 8028/47E0_00000       16736              TTOKMAT  IF    TTOKFDISPLAYONLY,BEGIN  Display sequence only...
 001FA6 4110 71C6/4100_      02050 16752  1                      SEG   '<'
 001FB8 9801 802C            00004 16769  1                      LM    R0,R1,TTOKPTRS      Original input text
 001FBC 4110 1001            00001 16770  1                      LA    R1,@R1+1
 001FC0 0600                       16771  1                      DECR  R0
 001FC2 41F0 6074/58E0_      00074 16773  1                      SEG   (R1),(R0)
 001FCC 4110 71C7/4100_      02051 16796  1                      SEG   '>'
 001FDE 47F0 717A            02004 16813  1                      B     TTOKEXIT            All done
1UTIL     (UTIL2025) (12:58) (15MAR04) Utility Routines                                                                     Page   46
0Current Usings:  (FCHAR,R4) (TFMTWA,R6) (*,R7) (TTOKWA-(4+36),R8) (CP,R11) (CV,R12)
0Loc    Object Code    Addr1 Addr2  Stmt Lv Lineno    Source Statement           (Hibal 5, Asmedit 3.3)  HLASM R4.0  2004/03/15 12.58
+___    ______ ____    _____ _____  ____ __ ______    ______ _________
0001FE2                            16814                       END
                                   16818                       ¿þþþþþþþþþþþþþþþþþþþþþþþþþþþþþþþþþþþþþþþþþÜ
                                   16819                       Ÿ  Display text form for dumb terminals.  Ÿ
                                   16820                       ¾þþþþþþþþþþþþþþþþþþþþþþþþþþþþþþþþþþþþþþþþþ»
 001FE2 4130 4006            00006 16821                       LA    R3,FCHARTLEN
 001FE6 1FFF/43F0 4005             16822                       LC    R15,FCHARLEN
 001FEC 1A3F                       16829                       AR    R3,R15              Actual "FCHARTLEN" addr
 001FEE 1F22/4320 3000             16830                       LC    R2,@R3              Length of text to write
 001FF4 4110 3001            00001 16837                       LA    R1,@R3+1            Text data
 001FF8 1802/41F0 6074_            16838                       SEG   (R1),(R2)
                                   16862
 002004 18D8/9808 D004_            16863              TTOKEXIT PEND
 DROP   FCHAR,R4
 DROP   TFMTWA,R6
 DROP   TTOKWA-(4+36),R8
 DROP   *,R7
                                   16899
                                   16900                       QLTORG
                                   16930
                                   16931                       SEGDEF DUMMY
1UTIL     (UTIL2025) (12:58) (15MAR04) Utility Routines                                                                     Page   47
0Current Usings:  (CP,R11) (CV,R12)
0Loc    Object Code    Addr1 Addr2  Stmt Lv Lineno    Source Statement           (Hibal 5, Asmedit 3.3)  HLASM R4.0  2004/03/15 12.58
+___    ______ ____    _____ _____  ____ __ ______    ______ _________
0                                  16933                       ¿þþþþþþþþþþþþþþþþþþþþþþþþþþÜ
                                   16934                       Ÿ  Stop on "<" character.  Ÿ
                                   16935                       ¾þþþþþþþþþþþþþþþþþþþþþþþþþþ»
 00206A 0000000000000000           16936              FORMSTRT DC    XL256'00'
 00216A                0216A 020B6 16937                       ORG   FORMSTRT+C'<'       EBCDIC "<" char
 0020B6 FF                         16938                       DC    X'FF'
 0020B7                020B7 0216A 16939                       ORG
                                   16940                       ¿þþþþþþþþþþþþþþþþþþþþþþþþþþþþþþþþþþþþþþþþþþþþþþþþþþþþþþÜ
                                   16941                       Ÿ  Acceptable characters inside "<" ... ">" sequence.  Ÿ
                                                               ¾þþþþþþþþþþþþþþþþþþþþþþþþþþþþþþþþþþþþþþþþþþþþþþþþþþþþþþ»
                                   16942              *
 00216A FFFFFFFFFFFFFFFF           16943              FORMCTAB DC    256X'FF'
 00226A                0226A 021EB 16944                       ORG   FORMCTAB+C'a'
 0021EB 0000000000000000           16945                       DC    X'000000000000000000'    a-i
 0021F4                021F4 021FB 16946                       ORG   FORMCTAB+C'j'
 0021FB 0000000000000000           16947                       DC    X'000000000000000000'        j-r
 002204                02204 0220C 16948                       ORG   FORMCTAB+C's'
 00220C 0000000000000000           16949                       DC    X'0000000000000000'               s-z
 002214                02214 0222B 16950                       ORG   FORMCTAB+C'A'
 00222B 0000000000000000           16951                       DC    X'000000000000000000'    A-I
 002234                02234 0223B 16952                       ORG   FORMCTAB+C'J'
 00223B 0000000000000000           16953                       DC    X'000000000000000000'        J-R
 002244                02244 0224C 16954                       ORG   FORMCTAB+C'S'
 00224C 0000000000000000           16955                       DC    X'0000000000000000'               S-Z
 002254                02254 0225A 16956                       ORG   FORMCTAB+C'0'
 00225A 0000000000000000           16957                       DC    X'00000000000000000000'  0-9
 002264                02264 021B4 16958                       ORG   FORMCTAB+C'^'
 0021B4 00000000000000             16959                       DC    X'00000000000000'        ^.<(+|&
 0021BB                021BB 021C4 16960                       ORG   FORMCTAB+C'!'
 0021C4 0000000000000000           16961                       DC    X'0000000000000000'      !$*);~-/
 0021CC                021CC 021D5 16962                       ORG   FORMCTAB+C','
 0021D5 000000FF00                 16963                       DC    X'000000FF00'            ,%_>?  (">" is n.g.)
 0021DA                021DA 021E3 16964                       ORG   FORMCTAB+C'`'
 0021E3 00000000000000             16965                       DC    X'00000000000000'        `:#@'="
 0021EA                021EA 0224A 16966                       ORG   FORMCTAB+C'\'
 00224A 00                         16967                       DC    X'00'                    \
 00224B                0224B 0222A 16968                       ORG   FORMCTAB+C'{'
 00222A 00                         16969                       DC    X'00'                    {
 00222B                0222B 0223A 16970                       ORG   FORMCTAB+C'}'
 00223A 00                         16971                       DC    X'00'                    }
 00223B                0223B 02217 16972                       ORG   FORMCTAB+C'['
 002217 00                         16973                       DC    X'00'                    [
 002218                02218 02227 16974                       ORG   FORMCTAB+C']'
 002227 00                         16975                       DC    X'00'                    ]
 002228                02228 0226A 16976                       ORG
1UTIL     (UTIL2025) (12:58) (15MAR04) Utility Routines                                                                     Page   48
0Current Usings:  (CP,R11) (CV,R12)
0Loc    Object Code    Addr1 Addr2  Stmt Lv Lineno    Source Statement           (Hibal 5, Asmedit 3.3)  HLASM R4.0  2004/03/15 12.58
+___    ______ ____    _____ _____  ____ __ ______    ______ _________
0                                  16978                       ¿þþþþþþþþþþþþþþþþþþþþþþþþþþþþþþþþþþþþþÜ
                                   16979                       Ÿ  Special character sequence table.  Ÿ
                                   16980                       ¾þþþþþþþþþþþþþþþþþþþþþþþþþþþþþþþþþþþþþ»
 002270                            16981              FCHARTBL DS    0D                  Start of FCHAR table
                                   16982                       COPY  FCHARSYM            Copy special character table
                                   16983=            =         ¿þþþþþþþþþþþþþþþþþþþþþþþþþþþþþþþþþþþþþþþþþþþþþþþþþþþþþþþþþþþÜ
                                   16984=            =         Ÿ  List of special symbols, used in both Wylbur (UTIL) and  Ÿ
                                   16985=            =         Ÿ    MILTEN (SIFT).                                         Ÿ
                                   16986=            =         Ÿ                                                           Ÿ
                                   16987=            =         Ÿ    Revision 1, 10/29/90, JNK                              Ÿ
                                   16988=            =         ¾þþþþþþþþþþþþþþþþþþþþþþþþþþþþþþþþþþþþþþþþþþþþþþþþþþþþþþþþþþþ»
 002270 0000227C/00/02/7_          16989             =         FCHAR ':^',TEXT='^'                       Small circumflex
 00227C 0000228C/00/04/7_          16999             =         FCHAR ':...',TEXT='...',ALT='I'           Ellipsis
 00228C 0000229C/00/03/7_          17010             =         FCHAR ':+-',TEXT='+/-',ALT='1'            Plus-or-minus
 00229C 000022A8/00/03/7_          17021             =         FCHAR ':!~',TEXT='!',ALT='A'              Upside-down !
 0022A8 000022B4/00/03/7_          17032             =         FCHAR ':~~',TEXT='~~',ALT='E'             Approximately
 0022B4 000022C0/00/02/7_          17043             =         FCHAR ':~',TEXT='~'                       Small tilde
 0022C0 000022CC/00/03/7_          17054             =         FCHAR ':~=',TEXT='~=',ALT='-'             Not-equal sign
 0022CC 000022E0/00/03/7_          17065             =         FCHAR ':%%',TEXT='<per 1000>'             Per-thousand
 0022E0 000022EC/00/03/7_          17076             =         FCHAR ':?~',TEXT='?',ALT='@'              Upside-down ?
 0022EC 000022F8/00/02/7_          17087             =         FCHAR ':''',TEXT='''',ALT='+'             Acute accent
 0022F8 00002304/02/03/7_          17098             =         FCHAR ':a^',TEXT='a',CASE=LOWER           a-circumflex
 002304 00002310/02/03/7_          17109             =         FCHAR ':a~',TEXT='a',CASE=LOWER           a-tilde
 002310 0000231C/00/03/7_          17120             =         FCHAR ':a_',TEXT='a',ALT=';'              a superscript,ul
 00231C 00002328/02/03/7_          17131             =         FCHAR ':a`',TEXT='a',CASE=LOWER           a-grave
 002328 00002334/02/03/7_          17142             =         FCHAR ':a:',TEXT='a',CASE=LOWER           a-umlaut
 002334 00002340/02/03/7_          17153             =         FCHAR ':a''',TEXT='a',CASE=LOWER          a-acute
 002340 0000234C/02/03/7_          17164             =         FCHAR ':ae',TEXT='ae',ALT='>',CASE=LOWER  ae ligature
 00234C 00002358/02/03/7_          17175             =         FCHAR ':ao',TEXT='a',CASE=LOWER           a-ring
 002358 00002368/00/06/7_          17186             =         FCHAR ':base''',TEXT=','                  Base '
 002368 00002378/00/06/7_          17197             =         FCHAR ':base"',TEXT=',,'                  Base "
 002378 00002388/00/07/7_          17208             =         FCHAR ':blotch',TEXT='X',ALT='a'          Checkerboard pattern
 002388 0000239C/00/06/7_          17219             =         FCHAR ':breve',TEXT='<breve>'             Breve
 00239C 000023AC/00/07/7_          17230             =         FCHAR ':bullet',TEXT='*',ALT='%'          Bullet
 0023AC 000023B8/02/03/7_          17241             =         FCHAR ':c,',TEXT='c',CASE=LOWER           C cedilla
 0023B8 000023CC/00/06/7_          17252             =         FCHAR ':caron',TEXT='<caron>'             Caron (inv. accent)
 0023CC 000023DC/00/08/7_          17263             =         FCHAR ':cedilla',TEXT=','                 Cedilla
 0023DC 000023F0/00/05/7_          17274             =         FCHAR ':cent',TEXT='<cent>',ALT='"'       Cent sign
 0023F0 00002404/00/0A/7_          17285             =         FCHAR ':copyright',TEXT='(c)',ALT=')'     Copyright
 002404 00002414/00/03/7_          17296             =         FCHAR ':cr',TEXT='<CR>',ALT='d'           CR=carriage return
 002414 0000242C/00/08/7_          17307             =         FCHAR ':curly_d',TEXT='<curly_d>',ALT='6' Curly d
 00242C 00002448/00/09/7_          17318             =         FCHAR ':currency',TEXT='<currency>'       Currency
 002448 00002460/00/07/7_          17329             =         FCHAR ':dagger',TEXT='<dagger>'           Dagger
 002460 00002480/00/0B/7_          17340             =         FCHAR ':dbl_dagger',TEXT='<dbl_dagger>'   Dbl dagger
 002480 00002494/00/04/7_          17351             =         FCHAR ':deg',ALT='!',TEXT='<degree>'      Degree sign
 002494 000024A0/00/04/7_          17362             =         FCHAR ':div',TEXT='/',ALT='V'             Division sign
 0024A0 000024B0/00/04/7_          17373             =         FCHAR ':dot',TEXT='<dot>'                 Dot accent
 0024B0 000024C4/00/0A/7_          17384             =         FCHAR ':dotless_i',TEXT='i'               Dotless-i
 0024C4 000024D0/02/03/7_          17395             =         FCHAR ':e^',TEXT='e',CASE=LOWER           e-circumflex
 0024D0 000024DC/02/03/7_          17406             =         FCHAR ':e`',TEXT='e',CASE=LOWER           e-grave
 0024DC 000024E8/02/03/7_          17417             =         FCHAR ':e:',TEXT='e',CASE=LOWER           e-umlaut
 0024E8 000024F4/02/03/7_          17428             =         FCHAR ':e''',TEXT='e',CASE=LOWER          e-acute
 0024F4 00002508/00/08/7_          17439             =         FCHAR ':em_dash',TEXT='--',ALT='Q'        Em dash
 002508 00002518/00/08/7_          17450             =         FCHAR ':en_dash',TEXT='-',ALT='P'         En dash
1UTIL     (UTIL2025) (12:58) (15MAR04) Utility Routines                                                                     Page   49
0Current Usings:  (CP,R11) (CV,R12)
0Loc    Object Code    Addr1 Addr2  Stmt Lv Lineno    Source Statement           (Hibal 5, Asmedit 3.3)  HLASM R4.0  2004/03/15 12.58
+___    ______ ____    _____ _____  ____ __ ______    ______ _________
0002518 00002524/00/02/7_          17461             =         FCHAR ':f',TEXT='f',ALT='D'               Florin / Function
 002524 00002534/00/03/7_          17472             =         FCHAR ':ff',TEXT='<FF>',ALT='c'           FF  form feed
 002534 00002540/00/03/7_          17483             =         FCHAR ':fi',TEXT='fi'                     fi ligature
 002540 0000254C/00/03/7_          17494             =         FCHAR ':fl',TEXT='fl'                     fl ligature
 00254C 00002560/00/09/7_          17505             =         FCHAR ':fraction',TEXT='/'                Fraction
 002560 0000256C/00/03/7_          17516             =         FCHAR ':ge',TEXT='>=',ALT='3'             > or =
 00256C 00002580/00/09/7_          17527             =         FCHAR ':h_umlaut',TEXT='<>'               h_umlaut
 002580 00002590/00/03/7_          17538             =         FCHAR ':ht',TEXT='<HT>',ALT='b'           HT=horizontal tab
 002590 0000259C/02/03/7_          17549             =         FCHAR ':i^',TEXT='i',CASE=LOWER           i-circumflex
 00259C 000025A8/02/03/7_          17560             =         FCHAR ':i`',TEXT='i',CASE=LOWER           i-grave
 0025A8 000025B4/02/03/7_          17571             =         FCHAR ':i:',TEXT='i',CASE=LOWER           i-umlaut
 0025B4 000025C0/02/03/7_          17582             =         FCHAR ':i''',TEXT='i',CASE=LOWER          i-acute
 0025C0 000025DC/00/09/7_          17593             =         FCHAR ':infinity',TEXT='<infinity>',ALT='0'  Infinity
 0025DC 000025F8/00/09/7_          17604             =         FCHAR ':integral',TEXT='<Integral>',ALT=':'  Integration
 0025F8 00002604/00/03/7_          17615             =         FCHAR ':l''',TEXT='''',ALT='T'            Left '
 002604 00002614/00/07/7_          17626             =         FCHAR ':l''euro',TEXT='<'                 Left European '
 002614 00002620/00/03/7_          17637             =         FCHAR ':l"',TEXT='"',ALT='R'              Left "
 002620 00002630/00/07/7_          17648             =         FCHAR ':l"euro',TEXT='<<',ALT='G'         Left European "
 002630 0000263C/00/03/7_          17659             =         FCHAR ':le',TEXT='<=',ALT='2'             < or =
 00263C 0000264C/00/03/7_          17670             =         FCHAR ':lf',TEXT='<LF>',ALT='e'           LF  line feed
 00264C 00002660/00/08/7_          17681             =         FCHAR ':lozenge',TEXT='<>',ALT='W'        Diamond
 002660 00002670/00/07/7_          17692             =         FCHAR ':macron',TEXT='-'                  Macron (horiz bar)
 002670 00002680/02/03/7_          17703             =         FCHAR ':mu',TEXT='<mu>',ALT='5',CASE=LOWER   mu
 002680 0000268C/02/03/7_          17714             =         FCHAR ':n~',TEXT='n',CASE=LOWER           n-tilde
 00268C 0000269C/00/03/7_          17725             =         FCHAR ':nl',TEXT='<NL>',ALT='h'           NL=new line
 00269C 000026A8/00/04/7_          17736             =         FCHAR ':not',TEXT='~',ALT='B'             Not
 0026A8 000026B4/02/03/7_          17747             =         FCHAR ':o^',TEXT='o',CASE=LOWER           o-circumflex
 0026B4 000026C0/02/03/7_          17758             =         FCHAR ':o~',TEXT='o',CASE=LOWER           o-tilde
 0026C0 000026CC/02/03/7_          17769             =         FCHAR ':o/',TEXT='o',ALT='?',CASE=LOWER   o-thorn
 0026CC 000026D8/00/03/7_          17780             =         FCHAR ':o_',TEXT='o',ALT='<'              o superscript,ul
 0026D8 000026E4/02/03/7_          17791             =         FCHAR ':o`',TEXT='o',CASE=LOWER           o-grave
 0026E4 000026F0/02/03/7_          17802             =         FCHAR ':o:',TEXT='o',CASE=LOWER           o-umlaut
 0026F0 000026FC/02/03/7_          17813             =         FCHAR ':o''',TEXT='o',CASE=LOWER          o-acute
 0026FC 00002708/02/03/7_          17824             =         FCHAR ':oe',TEXT='oe',ALT='O',CASE=LOWER  oe ligature
 002708 00002718/00/07/7_          17835             =         FCHAR ':ogonek',TEXT='?'                  ogonek
 002718 00002730/00/05/7_          17846             =         FCHAR ':para',TEXT='<paragraph>',ALT='&&'  Paragraph
 002730 00002740/02/03/7_          17857             =         FCHAR ':pi',TEXT='<pi>',ALT='9',CASE=LOWER  pi
 002740 0000274C/00/03/7_          17868             =         FCHAR ':r''',TEXT='''',ALT='U'            Right '
 00274C 0000275C/00/07/7_          17879             =         FCHAR ':r''euro',TEXT='>'                 Right European '
 00275C 00002768/00/03/7_          17890             =         FCHAR ':r"',TEXT='"',ALT='S'              Right "
 002768 00002778/00/07/7_          17901             =         FCHAR ':r"euro',TEXT='>>',ALT='H'         Right European "
 002778 00002790/00/08/7_          17912             =         FCHAR ':radical',TEXT='<radical>',ALT='C' Radical
 002790 000027A4/00/08/7_          17923             =         FCHAR ':regmark',TEXT='(R)',ALT='('       Registered tm
 0027A4 000027B8/00/05/7_          17934             =         FCHAR ':ring',TEXT='<ring>'               angstrom ring
 0027B8 000027D0/00/08/7_          17945             =         FCHAR ':section',TEXT='<section>',ALT='$' Section
 0027D0 000027E4/00/0A/7_          17956             =         FCHAR ':sm_bullet',TEXT='-',ALT='~'       Small bullet
 0027E4 000027F0/00/03/7_          17967             =         FCHAR ':sp',TEXT=' '                      Non-trivial space
 0027F0 000027FC/00/03/7_          17978             =         FCHAR ':ss',TEXT='ss',ALT=''''            German ss
 0027FC 0000280C/00/03/7_          17989             =         FCHAR ':tm',TEXT='(tm)',ALT='*'           Trademark
 00280C 00002818/02/03/7_          18000             =         FCHAR ':u^',TEXT='u',CASE=LOWER           u-circumflex
 002818 00002824/02/03/7_          18011             =         FCHAR ':u`',TEXT='u',CASE=LOWER           u-grave
 002824 00002830/02/03/7_          18022             =         FCHAR ':u:',TEXT='u',CASE=LOWER           u-umlaut
 002830 0000283C/02/03/7_          18033             =         FCHAR ':u''',TEXT='u',CASE=LOWER          u-acute
 00283C 00002854/00/08/7_          18044             =         FCHAR ':ukpound',TEXT='<UKpound>',ALT='#' British pound sign
1UTIL     (UTIL2025) (12:58) (15MAR04) Utility Routines                                                                     Page   50
0Current Usings:  (CP,R11) (CV,R12)
0Loc    Object Code    Addr1 Addr2  Stmt Lv Lineno    Source Statement           (Hibal 5, Asmedit 3.3)  HLASM R4.0  2004/03/15 12.58
+___    ______ ____    _____ _____  ____ __ ______    ______ _________
0002854 0000286C/00/07/7_          18055             =         FCHAR ':umlaut',TEXT='<umlaut>',ALT=','   Umlaut
 00286C 0000287C/00/03/7_          18066             =         FCHAR ':vt',TEXT='<VT>',ALT='i'           VT=vertical tab
 00287C 00002888/02/03/7_          18077             =         FCHAR ':y:',TEXT='y',ALT='X',CASE=LOWER   y-umlaut
 002888 00002898/00/04/7_          18088             =         FCHAR ':yen',TEXT='<yen>',ALT='4'         Yen sign
 002898 000028A4/01/03/7_          18099             =         FCHAR ':A^',TEXT='A',CASE=UPPER           A-circumflex
 0028A4 000028B0/01/03/7_          18110             =         FCHAR ':A~',TEXT='A',ALT='L',CASE=UPPER   A-tilde
 0028B0 000028BC/01/03/7_          18121             =         FCHAR ':A`',TEXT='A',ALT='K',CASE=UPPER   A-grave
 0028BC 000028C8/01/03/7_          18132             =         FCHAR ':A:',TEXT='A',CASE=UPPER           A-umlaut
 0028C8 000028D4/01/03/7_          18143             =         FCHAR ':A''',TEXT='A',CASE=UPPER          A-acute
 0028D4 000028E0/01/03/7_          18154             =         FCHAR ':Ao',TEXT='A',CASE=UPPER           A-ring
 0028E0 000028F4/00/06/7_          18165             =         FCHAR ':Apple',TEXT='<Apple>'             Apple logo
 0028F4 00002900/01/03/7_          18176             =         FCHAR ':AE',TEXT='AE',ALT='.',CASE=UPPER  AE ligature
 002900 0000290C/01/03/7_          18187             =         FCHAR ':C,',TEXT='C',CASE=UPPER           C cedilla
 00290C 00002920/00/06/7_          18198             =         FCHAR ':Delta',TEXT='<Delta>',ALT='F'     Delta
 002920 0000292C/01/03/7_          18209             =         FCHAR ':E^',TEXT='E',CASE=UPPER           E-circumflex
 00292C 00002938/01/03/7_          18220             =         FCHAR ':E`',TEXT='E',CASE=UPPER           E-grave
 002938 00002944/01/03/7_          18231             =         FCHAR ':E:',TEXT='E',CASE=UPPER           E-umlaut
 002944 00002950/01/03/7_          18242             =         FCHAR ':E''',TEXT='E',CASE=UPPER          E-acute
 002950 0000295C/01/03/7_          18253             =         FCHAR ':I^',TEXT='I',CASE=UPPER           I-circumflex
 00295C 00002968/01/03/7_          18264             =         FCHAR ':I`',TEXT='I',CASE=UPPER           I-grave
 002968 00002974/01/03/7_          18275             =         FCHAR ':I:',TEXT='I',CASE=UPPER           I-umlaut
 002974 00002980/01/03/7_          18286             =         FCHAR ':I''',TEXT='I',CASE=UPPER          I-acute
 002980 0000298C/01/03/7_          18297             =         FCHAR ':N~',TEXT='N',CASE=UPPER           N-tilde
 00298C 00002998/01/03/7_          18308             =         FCHAR ':O^',TEXT='O',CASE=UPPER           O-circumflex
 002998 000029A4/01/03/7_          18319             =         FCHAR ':O~',TEXT='O',ALT='M',CASE=UPPER   O-tilde
 0029A4 000029B0/01/03/7_          18330             =         FCHAR ':O/',TEXT='O',ALT='/',CASE=UPPER   O-thorn
 0029B0 000029BC/01/03/7_          18341             =         FCHAR ':O`',TEXT='O',CASE=UPPER           O-grave
 0029BC 000029C8/01/03/7_          18352             =         FCHAR ':O:',TEXT='O',CASE=UPPER           O-umlaut
 0029C8 000029D4/01/03/7_          18363             =         FCHAR ':O''',TEXT='O',CASE=UPPER          O-acute
 0029D4 000029E8/00/06/7_          18374             =         FCHAR ':Omega',TEXT='<Omega>',ALT='='     Omega
 0029E8 000029F4/01/03/7_          18385             =         FCHAR ':OE',TEXT='OE',ALT='N',CASE=UPPER  OE ligature
 0029F4 00002A04/01/03/7_          18396             =         FCHAR ':Pi',TEXT='<Pi>',ALT='8',CASE=UPPER  Pi
 002A04 00002A18/00/06/7_          18407             =         FCHAR ':Sigma',TEXT='<Sigma>',ALT='7'     Sigma
 002A18 00002A24/01/03/7_          18418             =         FCHAR ':U^',TEXT='U',CASE=UPPER           U-circumflex
 002A24 00002A30/01/03/7_          18429             =         FCHAR ':U`',TEXT='U',CASE=UPPER           U-grave
 002A30 00002A3C/01/03/7_          18440             =         FCHAR ':U:',TEXT='U',CASE=UPPER           U-umlaut
 002A3C 00002A48/01/03/7_          18451             =         FCHAR ':U''',TEXT='U',CASE=UPPER          U-acute
 002A48 00002A54/01/03/7_          18462             =         FCHAR ':Y:',TEXT='Y',CASE=UPPER           Y-umlaut
 002A54 00002A64/00/04/7_          18473             =         FCHAR ':1/2',TEXT='1/2'                   1/2 half
 002A64 00000000/00/04/7_          18484             =         FCHAR ':1/4',TEXT='1/4'                   1/4 quarter
 002A74                            18495                       FCHAR ,                   End of table
1UTIL     (UTIL2025) (12:58) (15MAR04) Utility Routines                                                                     Page   51
0Current Usings:  (CP,R11) (CV,R12)
0Loc    Object Code    Addr1 Addr2  Stmt Lv Lineno    Source Statement           (Hibal 5, Asmedit 3.3)  HLASM R4.0  2004/03/15 12.58
+___    ______ ____    _____ _____  ____ __ ______    ______ _________
0                                  18500              ¿þþþþþþþþþþþþþþþþþþþþþþþþþþþþþþþþþþþþþþþþþþþþþþþþþþþþþþþþþþþþþþþþþþþþþÜ
                                   18501              Ÿ                                                                     Ÿ
                                   18502              Ÿ  CHARFMT -- Routine to seg line with "funny" charaters              Ÿ
                                   18503              Ÿ    converted to "#" characters.                                     Ÿ
                                   18504              Ÿ                                                                     Ÿ
                                   18505              Ÿ    On entry:                                                        Ÿ
                                   18506              Ÿ      R1,R0 - line loc,len                                           Ÿ
                                   18507              Ÿ                                                                     Ÿ
                                                      ¾þþþþþþþþþþþþþþþþþþþþþþþþþþþþþþþþþþþþþþþþþþþþþþþþþþþþþþþþþþþþþþþþþþþþþ»
0000000                00000 00040 18508              CHARWA   RECORD BEGIN
 000000                            18516  1           CHARTEXT   DS    XL64
 000040                00040 00040 18517                       END
                                   18526              þþþþ
 002A74 50E0 D000/9008_      00000 18527              CHARFMT  XPROC CHARWA
 USING  *,R7
 USING  CHARWA-(4+36),R8
 002A8E 1861                       18578                       LR    R6,R1
 002A90 1850                       18579                       LR    R5,R0
                                   18580
 002A92 1255/47D0 7046             18581                       WHILE (R5,POS),BEGIN
 002A98 1825                       18597  1                      LR    R2,R5
 002A9A 5920 7962/47D0_      033F0 18598  1                      CEIL  R2,L'CHARTEXT
 002AA6 18F2                       18617  1                      LR    R15,R2
 002AA8 06F0/12FF/4740_            18618  1                      MOVE  R15,CHARTEXT,@R6
 002AB4 44F0 79B6/DC00_      03444 18656  1                      EX    R15,'TR CHARTEXT(0),CHARTR'
 002AB8 4110 8028/1802_      00000 18672  1                      TSEG  CHARTEXT,(R2)
 002AC8 4160 6040            00040 18700  1                      LA    R6,@R6+L'CHARTEXT
 002ACC 4B50 79A6            03434 18701  1                      SH    R5,=Y(L'CHARTEXT)
 002AD0 47F0 7004            02A92 18702                       END
 002AD4 18D8/9808 D004_            18707                       PEND  ,
 DROP   CHARWA-(4+36),R8
 DROP   *,R7
                                   18732
 002AE2 7B7B7B7B7B7B7B7B           18733              CHARTR   DC    X'7B7B7B7B7B7B7B7B7B7B7B7B7B7B7B7B'
 002AF2 7B7B7B7B7B7B7B7B           18734                       DC    X'7B7B7B7B7B7B7B7B7B7B7B7B7B7B7B7B'
 002B02 7B7B7B7B7B7B7B7B           18735                       DC    X'7B7B7B7B7B7B7B7B7B7B7B7B7B7B7B7B'
 002B12 7B7B7B7B7B7B7B7B           18736                       DC    X'7B7B7B7B7B7B7B7B7B7B7B7B7B7B7B7B'
 002B22 407B7B7B7B7B7B7B           18737                       DC    X'407B7B7B7B7B7B7B7B7B4A4B4C4D4E4F'
 002B32 507B7B7B7B7B7B7B           18738                       DC    X'507B7B7B7B7B7B7B7B7B7B5B5C5D5E7B'
 002B42 60617B7B7B7B7B7B           18739                       DC    X'60617B7B7B7B7B7B7B7B7B6B6C6D6E6F'
 002B52 7B7B7B7B7B7B7B7B           18740                       DC    X'7B7B7B7B7B7B7B7B7B7B7A7B7C7D7E7F'
 002B62 7B81828384858687           18741                       DC    X'7B8182838485868788897B7B7B7B7B7B'
 002B72 7B91929394959697           18742                       DC    X'7B9192939495969798997B7B7B7B7B7B'
 002B82 7B7BA2A3A4A5A6A7           18743                       DC    X'7B7BA2A3A4A5A6A7A8A97B7B7B7B7B7B'
 002B92 7B7B7B7B7B7B7B7B           18744                       DC    X'7B7B7B7B7B7B7B7B7B7B7B7B7B7B7B7B'
 002BA2 7BC1C2C3C4C5C6C7           18745                       DC    X'7BC1C2C3C4C5C6C7C8C97B7B7B7B7B7B'
 002BB2 7BD1D2D3D4D5D6D7           18746                       DC    X'7BD1D2D3D4D5D6D7D8D97B7B7B7B7B7B'
 002BC2 7B7BE2E3E4E5E6E7           18747                       DC    X'7B7BE2E3E4E5E6E7E8E97B7B7B7B7B7B'
 002BD2 F0F1F2F3F4F5F6F7           18748                       DC    X'F0F1F2F3F4F5F6F7F8F97B7B7B7B7B7B'
1UTIL     (UTIL2025) (12:58) (15MAR04) Utility Routines                                                                     Page   52
0Current Usings:  (CP,R11) (CV,R12)
0Loc    Object Code    Addr1 Addr2  Stmt Lv Lineno    Source Statement           (Hibal 5, Asmedit 3.3)  HLASM R4.0  2004/03/15 12.58
+___    ______ ____    _____ _____  ____ __ ______    ______ _________
0                                  18750              ¿þþþþþþþþþþþþþþþþþþþþþþþþþþþþþþþþþþþþþþþþþþþþþþþþþþþþþþþþþþþþþþþþþþþþþÜ
                                   18751              Ÿ                                                                     Ÿ
                                   18752              Ÿ  HEXFMT -- Routine to seg line in hex format.                       Ÿ
                                   18753              Ÿ                                                                     Ÿ
                                   18754              Ÿ    On entry:                                                        Ÿ
                                   18755              Ÿ      R1,R0 - line loc, len (len complimented for mixed format)      Ÿ
                                   18756              Ÿ      R15 - amount to indent on continuation lines                   Ÿ
                                   18757              Ÿ                                                                     Ÿ
                                   18758              Ÿ    On exit, R15 (and CC):                                           Ÿ
                                   18759              Ÿ      z - ok                                                         Ÿ
                                   18760              Ÿ      nz- attn (on twrite)                                           Ÿ
                                   18761              Ÿ                                                                     Ÿ
                                                      ¾þþþþþþþþþþþþþþþþþþþþþþþþþþþþþþþþþþþþþþþþþþþþþþþþþþþþþþþþþþþþþþþþþþþþþ»
0000000                00000 00008 18762              HEXWA    RECORD BEGIN
 000000                            18770  1           HEXWORK    DS    D
 000008                00008 00008 18771                       END
                                   18780              þþþþ
 002BE2 50E0 D000/9008_      00000 18781              HEXFMT   XPROC HEXWA
 USING  *,R7
 USING  HEXWA-(4+36),R8
 002BFC 1860                       18832                       LR    R6,R0               Save as flag
                                   18833
 002BFE 1030                       18834                       LPR   R3,R0
 002C00 1841                       18835                       LR    R4,R1
 002C02 185F                       18836                       LR    R5,R15
                                   18837
 002C04 1233/47D0 70D4             18838                       WHILE (R3,POS),BEGIN
 002C0A 58F0 4000/4100_      00000 18854  1                      BTX   HEXWORK,8,L:@R4
                                   18877  1
 002C1C 1266/47B0 7068             18878  1                      IF    (R6,NEG),BEGIN      Mixed EBCDIC and HEX format...
 002C22 1B22                       18892  2                        CLEAR R2
 002C24 1BFF                       18896  2                        CLEAR R15
 002C26                            18900  2                        LOOP  BEGIN
 002C26 8820 0001            00001 18906  3                          SRL   R2,1                /2
 002C2A 1F11/4312 4000             18907  3                          LC    R1,@R4(R2)          Get byte
 002C30 8920 0001            00001 18914  3                          SLL   R2,1                *2
 002C34 58E0 7800/0DEE       033FC 18915  3                          VCALL GTMIXTBL            Returns =V(MIXTBL) in R15
 002C3A 18EF                       18919  3                          LR    R14,R15
 002C3C 1BFF                       18920  3                          CLEAR R15
 002C3E 43F1 E000            00000 18924  3                          IC    R15,@R14(R1)        0=char, FF=control
 002C42 12FF/4770 7058             18925  3                          IF    (R15,Z),BEGIN
 002C48 4212 8028            00000 18939  4                            STC   R1,HEXWORK(R2)      Display as char
 002C4C 41F0 006D            0006D 18940  4                            LA    R15,C'_'
 002C50 42F2 8029            00001 18941  4                            STC   R15,HEXWORK+1(R2)
 002C54                            18942  3                          END
 002C54 4120 2002            00002 18946  3                          LA    R2,@R2+2
 002C58 5920 7804/47A0_      03400 18947  3                          UNTIL (R2,GE,8)
 002C60 47F0 702A            02C26 18968  2                        END
 002C64                            18973  1                      END
                                   18977  1
 002C64 4110 8028            00000 18978  1                      LA    R1,HEXWORK
 002C68 1803                       18979  1                      LR    R0,R3
 002C6A 5900 7808/47D0_      03404 18980  1                      CEIL  R0,4
1UTIL     (UTIL2025) (12:58) (15MAR04) Utility Routines                                                                     Page   53
0Current Usings:  (*,R7) (HEXWA-(4+36),R8) (CP,R11) (CV,R12)
0Loc    Object Code    Addr1 Addr2  Stmt Lv Lineno    Source Statement           (Hibal 5, Asmedit 3.3)  HLASM R4.0  2004/03/15 12.58
+___    ______ ____    _____ _____  ____ __ ______    ______ _________
0002C76 1A00                       18999  1                      AR    R0,R0
 002C78 18F0                       19000  1                      LR    R15,R0
 002C7A 5AF0 B05C            0005C 19001  1                      A     R15,CPSEGLENF
 002C7E 5BF0 B058            00058 19002  1                      S     R15,CPSEGMRKF
                                   19003  1
 002C82 49F0 B418/47D0_      00418 19004  1                      IF    (R15,GT,CPSWID),BEGIN
 002C8A 9001 D000/41D0_      00000 19021  2                        XPUSH R0,R1
 002C92 1B00/41F0 B050_            19024  2                        TCR
 002C9E 4770 70E0            02CDC 19049  2                        BNZ   HEXFEXIT
 002CA2 4110 C4D8/1805_      004D8 19050  2                        TSEG  CVBLANKS,(R5)       Indent
 002CB2 4BD0 783A/9801_      03436 19078  2                        XPOP  R0,R1
 002CBA                            19081  1                      END
                                   19085  1
 002CBA 41F0 B050/58E0_      00050 19086  1                      TSEG  (R1),(R0),B
 002CC4 4140 4004            00004 19110  1                      LA    R4,@R4+4
 002CC8 4B30 783C            03438 19111  1                      SH    R3,=Y(4)
 002CCC 47F0 7008            02C04 19112                       END
                                   19117
 002CD0 1B00/41F0 B050_            19118                       TCR
 002CDC 18D8/9808 D004_            19143              HEXFEXIT PEND  ,
 DROP   HEXWA-(4+36),R8
 DROP   *,R7
1UTIL     (UTIL2025) (12:58) (15MAR04) Utility Routines                                                                     Page   54
0Current Usings:  (CP,R11) (CV,R12)
0Loc    Object Code    Addr1 Addr2  Stmt Lv Lineno    Source Statement           (Hibal 5, Asmedit 3.3)  HLASM R4.0  2004/03/15 12.58
+___    ______ ____    _____ _____  ____ __ ______    ______ _________
0                                  19170              ¿þþþþþþþþþþþþþþþþþþþþþþþþþþþþþþþþþþþþþþþþþþþþþþþþþþþþþþþþþþþþþþþþþþþþþÜ
                                   19171              Ÿ                                                                     Ÿ
                                   19172              Ÿ  MIXFMT -- Routine to seg line in mixed EBCDIC and HEX              Ÿ
                                   19173              Ÿ    format.                                                          Ÿ
                                   19174              Ÿ                                                                     Ÿ
                                   19175              Ÿ    On entry:                                                        Ÿ
                                   19176              Ÿ      R1,R0 - line loc, len                                          Ÿ
                                   19177              Ÿ                                                                     Ÿ
                                                      ¾þþþþþþþþþþþþþþþþþþþþþþþþþþþþþþþþþþþþþþþþþþþþþþþþþþþþþþþþþþþþþþþþþþþþþ»
0002CEA 50E0 D000/9008_      00000 19178              MIXFMT   XPROC  ,
 USING  *,R7
 002D04 1830                       19218                       LR    R3,R0
 002D06 1841                       19219                       LR    R4,R1
                                   19220
 002D08 1233/47D0 70D8             19221                       WHILE (R3,POS),BEGIN
 002D0E 58E0 76F8/0DEE       033FC 19237  1                      VCALL GTMIXTBL            Returns =V(MIXTBL) in R15
 002D14 18EF                       19241  1                      LR    R14,R15
 002D16 18F3                       19242  1                      LR    R15,R3
 002D18 59F0 770C/47D0_      03410 19243  1                      CEIL  R15,256
 002D24 411F 4000            00000 19262  1                      LA    R1,@R4(R15)
 002D28 06F0/12FF/4740_            19263  1                      DTEX  R15,'TRT @R4(0),@R14'  Find control char
 002D34 1B14                       19300  1                      SR    R1,R4               No. of EBCDIC chars
 002D36 1801                       19301  1                      LR    R0,R1
 002D38 1814                       19302  1                      LR    R1,R4
 002D3A 1A40                       19303  1                      AR    R4,R0               Update...
 002D3C 1B30                       19304  1                      SR    R3,R0               ...ptrs
 002D3E 41F0 B050/58E0_      00050 19305  1                      TSEG  (R1),(R0)
 002D48 1233/47D0 70D4             19329  1                      IF    (R3,POS),BEGIN
 002D4E 4110 7738/4100_      0343C 19343  2                        TSEG  '<'
 002D60 4150 0004            00004 19361  2                        LA    R5,4
 002D64                            19362  2                        LOOP  BEGIN
 002D64 58E0 76F8/0DEE       033FC 19368  3                          VCALL GTMIXTBL            Returns =V(MIXTBL) in R15
 002D6A 18EF                       19372  3                          LR    R14,R15
 002D6C 1FFF/43F0 4000             19373  3                          LC    R15,@R4             Control char
 002D72 1F22/432F E000             19380  3                          LC    R2,@R14(R15)
 002D78 1222/4780 70C2             19387  3                          IF    (R2,Z),EXIT         Not a control char, scram
 002D7E 4100 0002/4110_      00002 19404  3                          BTX   CPDOUB,2,(R15)
 002D8C 41F0 B050/58E0_      00050 19426  3                          TSEG  (R1),(R0)
 002D96 4140 4001            00001 19450  3                          LA    R4,@R4+1
 002D9A 0630                       19451  3                          DECR  R3
 002D9C 0650                       19453  3                          DECR  R5
 002D9E 1233/47D0 70BC_            19455  3                          IF    ((R3,POS),AND,(R5,NP)),'TSEG CVBLANKS,1; LA R5,4'
 002DC0 1233/4720 7060             19518  2                        UNTIL (R3,~POS),END
 002DC6 4110 7739/4100_      0343D 19540  2                        TSEG  '>'
 002DD8                            19558  1                      END
 002DD8 47F0 7004            02D08 19562                       END
                                   19567
 002DDC 18D8/9808 D004_            19568                       PEND  ,
 DROP   *,R7
1UTIL     (UTIL2025) (12:58) (15MAR04) Utility Routines                                                                     Page   55
0Current Usings:  (CP,R11) (CV,R12)
0Loc    Object Code    Addr1 Addr2  Stmt Lv Lineno    Source Statement           (Hibal 5, Asmedit 3.3)  HLASM R4.0  2004/03/15 12.58
+___    ______ ____    _____ _____  ____ __ ______    ______ _________
0                                  19589              ¿þþþþþþþþþþþþþþþþþþþþþþþþþþþþþþþþþþþþþþþþþþþþþþþþþþþþþþþþþþþþþþþþþþþþþÜ
                                   19590              Ÿ                                                                     Ÿ
                                   19591              Ÿ  ESCFMT -- Routine to seg text and start a new line every time      Ÿ
                                   19592              Ÿ    an "escape" character is found.  The caller passes up to four    Ÿ
                                   19593              Ÿ    characters which are to be considered ESCAPE characters.         Ÿ
                                   19594              Ÿ                                                                     Ÿ
                                   19595              Ÿ    On entry:                                                        Ÿ
                                   19596              Ÿ      R1,R0 - line loc, len                                          Ÿ
                                   19597              Ÿ      R15 - amount to indent continuation lines                      Ÿ
                                   19598              Ÿ      R2 - four bytes of ESCAPE characters (a X'00' means ignore)    Ÿ
                                   19599              Ÿ                                                                     Ÿ
                                                      ¾þþþþþþþþþþþþþþþþþþþþþþþþþþþþþþþþþþþþþþþþþþþþþþþþþþþþþþþþþþþþþþþþþþþþþ»
0000000                00000 00100 19600              ESCWA    RECORD BEGIN
 000000                            19608  1           ESCTRT     DS    XL256               Working TRT table
 000100                00100 00100 19609                       END
                                   19618              þþþþ
 002DEA 50E0 D000/9008_      00000 19619              ESCFMT   XPROC ESCWA
 USING  *,R7
 USING  ESCWA-(4+36),R8
                                   19670                       ¿þþþþþþþþþþþþþþþþþþþþþþþþþþþþþþþþþþþþþþþþþþþþþþþþþþþþþþþþÜ
                                   19671                       Ÿ  Set up TRT table to stop on all "escape" characters.  Ÿ
                                   19672                       ¾þþþþþþþþþþþþþþþþþþþþþþþþþþþþþþþþþþþþþþþþþþþþþþþþþþþþþþþþ»
 002E04 D7FF 8028 8028 00000 00000 19673                       CLEAR ESCTRT              Initialize working TRT table
 002E0A 1222/4780 7026             19680                       WHILE (R2,NZ),BEGIN       Set ESC characters...
 002E10 1832                       19696  1                      LR    R3,R2
 002E12 5430 7610            03414 19697  1                      N     R3,=A(X'FF')
 002E16 4780 701E            02E22 19698  1                      IF    NZ,BEGIN            Set stop byte in TRT table...
 002E1A 4133 8028            00000 19709  2                        LA    R3,ESCTRT(R3)
 002E1E 92FF 3000      00000       19710  2                        MVI   @R3,X'FF'           Stop on this character
 002E22                            19711  1                      END
                                   19715  1
 002E22 8820 0008            00008 19716  1                      SRL   R2,8                Next byte
 002E26 47F0 7006            02E0A 19717                       END
                                   19722
 002E2A 1830                       19723                       LR    R3,R0               Save len...
 002E2C 1841                       19724                       LR    R4,R1               ...loc
 002E2E 185F                       19725                       LR    R5,R15              ...and indentation
                                   19726                       ¿þþþþþþþþþþþþþÜ
                                   19727                       Ÿ  Seg text.  Ÿ
                                   19728                       ¾þþþþþþþþþþþþþ»
 002E30 1233/47D0 70E8             19729                       WHILE (R3,POS),BEGIN      Go through text...
 002E36 18F3                       19745  1                      LR    R15,R3
 002E38 59F0 760C/47D0_      03410 19746  1                      CEIL  R15,256
 002E44 411F 4000            00000 19765  1                      LA    R1,@R4(R15)
 002E48 06F0/12FF/4740_            19766  1                      DTEX  R15,'TRT @R4(0),ESCTRT'  Find control char
 002E54 1B14                       19803  1                      SR    R1,R4               No. of EBCDIC chars
 002E56 1801                       19804  1                      LR    R0,R1
 002E58 1814                       19805  1                      LR    R1,R4
 002E5A 1A40                       19806  1                      AR    R4,R0               Update...
 002E5C 1B30                       19807  1                      SR    R3,R0               ...ptrs
 002E5E 1200/47D0 7066_            19808  1                      IF    (R0,POS),'VCALL MIXFMT'  Write the text
 002E6A D603 B05C B05C_0005C 0005C 19831  1                      TCCR
                                   19893  1
1UTIL     (UTIL2025) (12:58) (15MAR04) Utility Routines                                                                     Page   56
0Current Usings:  (*,R7) (ESCWA-(4+36),R8) (CP,R11) (CV,R12)
0Loc    Object Code    Addr1 Addr2  Stmt Lv Lineno    Source Statement           (Hibal 5, Asmedit 3.3)  HLASM R4.0  2004/03/15 12.58
+___    ______ ____    _____ _____  ____ __ ______    ______ _________
0002E8A 1233/47D0 70E4             19894  1                      IF    (R3,POS),BEGIN      We stopped on an ESC...
 002E90 4110 C4D8/1805_      004D8 19908  2                        TSEG  CVBLANKS,(R5)       Do indentation
 002EA0 4110 7638/4100_      0343C 19936  2                        TSEG  '<'
 002EB2 1FFF/43F0 4000             19954  2                        LC    R15,@R4             Display the ESC character
 002EB8 4100 0002/4110_      00002 19961  2                        BTX   CPDOUB,2,(R15)
 002EC6 41F0 B050/58E0_      00050 19983  2                        TSEG  (R1),(R0)
 002ED0 4110 7639/4100_      0343D 20007  2                        TSEG  '>'
                                   20025  2
 002EE2 4140 4001            00001 20026  2                        LA    R4,@R4+1            Skip over the ESC character
 002EE6 0630                       20027  2                        DECR  R3                  One less character now
 002EE8                            20029  1                      END
 002EE8 47F0 702C            02E30 20033                       END
                                   20038
 002EEC D603 B05C B05C_0005C 0005C 20039                       TCCR
 002F0C 18D8/9808 D004_            20101                       PEND  ,
 DROP   ESCWA-(4+36),R8
 DROP   *,R7
1UTIL     (UTIL2025) (12:58) (15MAR04) Utility Routines                                                                     Page   57
0Current Usings:  (CP,R11) (CV,R12)
0Loc    Object Code    Addr1 Addr2  Stmt Lv Lineno    Source Statement           (Hibal 5, Asmedit 3.3)  HLASM R4.0  2004/03/15 12.58
+___    ______ ____    _____ _____  ____ __ ______    ______ _________
0                                  20127              ¿þþþþþþþþþþþþþþþþþþþþþþþþþþþþþþþþþþþþþþþþþþþþþþþþþþþþþþþþþþþþþþþþþþþþþÜ
                                   20128              Ÿ                                                                     Ÿ
                                   20129              Ÿ  HEXDUMP -- Routine to write a formatted hex dump.                  Ÿ
                                   20130              Ÿ    Most commonly invoked by the HEXDUMP macro.                      Ÿ
                                   20131              Ÿ                                                                     Ÿ
                                   20132              Ÿ    On entry:                                                        Ÿ
                                   20133              Ÿ      R0  - length of area                                           Ÿ
                                   20134              Ÿ      R1  - address of area                                          Ÿ
                                   20135              Ÿ      R15 - option flag byte (see HXDFLAGS definition below)         Ÿ
                                   20136              Ÿ                                                                     Ÿ
                                                      ¾þþþþþþþþþþþþþþþþþþþþþþþþþþþþþþþþþþþþþþþþþþþþþþþþþþþþþþþþþþþþþþþþþþþþþ»
0000000                00000 0005A 20137              HXDWA    RECORD BEGIN
 000000                            20145  1           HXDSTART   DS    A                   Start of data ptr
 000004                            20146  1           HXDTRT     DS    A                   Translate table address
                                   20147  1
 000008 00                         20148  1           HXDFLAGS   FLAG
 HXDFLAGS.HXDFLOFF 01 ONES         20152  1                      FLAG  (HXDFLOFF,1)        - Show offset (not address)
 HXDFLAGS.HXDFLASC 02 ONES         20161  1                      FLAG  (HXDFLASC,2)        - ASCII data format (not EBCDIC)
                                   20170  1
 000009                            20171  1           HXDUNPK    DS    XL2                 UNPK work area
                                   20172  1
 00000B                            20173  1           HXDADDR    DS    CL8                 Address
 000013                            20174  1                      DS    CL2
 000015                            20175  1           HXDHEXDM   DS    0CL(8*4+3)          Hex bytes (dump format)
 000015                            20176  1           HXDHEX     DS    CL(16*3+1)          Hex bytes (data format)
 000046                            20177  1                      DS    CL2
 000048                            20178  1                      DS    C                   '|'
 000049                            20179  1                      DS    CL16                Char display
 000059                            20180  1                      DS    C                   '|'
                                   20181  1           HXDLINE    EQU   HXDADDR,*-HXDADDR,C'C'
 00005A                0005A 0005A 20182                       END
                                   20191              þþþþ
 002F1A 50E0 D000/9008_      00000 20192              HEXDUMP  XPROC HXDWA
 USING  *,R7
 USING  HXDWA-(4+36),R8
 002F34 5010 8028            00000 20243                       ST    R1,HXDSTART         Save start address
 002F38 42F0 8030            00008 20244                       STC   R15,HXDFLAGS        Save option flags
                                   20245
 002F3C 1861                       20246                       LR    R6,R1               Init data pointer
 002F3E 1850                       20247                       LR    R5,R0               Init data counter
                                   20248
 002F40 D203 802C C8C4 00004 008C4 20249                       MVC   HXDTRT,CVDOTTBL     EBCDIC fmt
 002F46 5820 74E8            0341C 20250                       L     R2,=A(ASCIITBL)
 002F4A 9102 8030/47E0_00008       20251                       IF    HXDFLASC,'ST  R2,HXDTRT'     ASCII fmt
                                   20272
 002F56 D603 B05C B05C_0005C 0005C 20273                       TCCR  ,                   Start a new line
                                   20335
 002F76 1255/47D0 7138             20336                       WHILE (R5,POS),BEGIN      Loop on data count
 002F7C D24E 8033 C4D8 0000B 004D8 20352  1                      MVC   HXDLINE,CVBLANKS    Init print line buffer
 002F82 18F6                       20353  1                      LR    R15,R6              Data address
                                   20354  1
 002F84 9101 8030/47E0_00008       20355  1                      IF    HXDFLOFF,BEGIN      If offset format...
 002F8C 5BF0 8028            00000 20370  2                        S     R15,HXDSTART        Get data offset
1UTIL     (UTIL2025) (12:58) (15MAR04) Utility Routines                                                                     Page   58
0Current Usings:  (*,R7) (HXDWA-(4+36),R8) (CP,R11) (CV,R12)
0Loc    Object Code    Addr1 Addr2  Stmt Lv Lineno    Source Statement           (Hibal 5, Asmedit 3.3)  HLASM R4.0  2004/03/15 12.58
+___    ______ ____    _____ _____  ____ __ ______    ______ _________
0002F90 924E 8036      0000E       20371  2                        MVI   HXDADDR+3,C'+'
 002F94 4100 0004/4110_      00004 20372  2                        BTX   HXDADDR+4,4,(R15)   Format offset
 002FA2                            20394  1                      END
 002FA2 7072/47F0 7080 02FA2 02F8A 20398  1                      ELSE  BEGIN               Else display offset...
 002FA6 4100 0008/4110_      00008 20409  2                        BTX   HXDADDR,8,(R15)     Format address
 002FB4                            20431  1                      END
                                   20435  1
 002FB4 4120 803D            00015 20436  1                      LA    R2,HXDHEX           Init hex display pointer
 002FB8 9102 8030/4710_00008       20437  1                      IF    ~HXDFLASC,BEGIN     If dump format...
 002FC0 4132 0025            00025 20452  2                        LA    R3,L'HXDHEXDM+2(R2)  Init char display pointer
 002FC4                            20453  1                      END
 002FC4 7094/47F0 7098 02FC4 02FBE 20457  1                      ELSE  BEGIN               Else data format...
 002FC8 4132 0033            00033 20468  2                        LA    R3,L'HXDHEX+2(R2)
 002FCC                            20469  1                      END
                                   20473  1
 002FCC 924F 3000      00000       20474  1                      MVI   @R3,C'|'
 002FD0 924F 3011      00011       20475  1                      MVI   @R3+17,C'|'
 002FD4 5E30 74EC            03420 20476  1                      INCR  R3
 002FD8 4140 0001            00001 20479  1                      LA    R4,1                Loop counter for this line
 002FDC 5940 74F0/4730_      03424 20480  1                      WHILE ((R4,LE,16),AND,(R5,P)),BEGIN
 002FEA D200 8031 6000 00009 00000 20512  2                        MVC   HXDUNPK(1),@R6      Copy byte
 002FF0 F321 2000 8031 00000 00009 20513  2                        UNPK  @R2(3),HXDUNPK(2)   Format data byte (plus junk byte)
 002FF6 D401 2000 7506 00000 0343A 20514  2                        NC    @R2(2),=X'0F0F'
 002FFC DC01 2000 74AC 00000 033E0 20515  2                        TR    @R2(2),=C'0123456789ABCDEF'
 003002 9240 2002      00002       20516  2                        MVI   @R2+2,C' '
 003006 D200 3000 6000 00000 00000 20517  2                        MVC   @R3(1),@R6          Move to char display
 00300C 58F0 802C            00004 20518  2                        L     R15,HXDTRT          Translate table address
 003010 DC00 3000 F000 00000 00000 20519  2                        TR    @R3(1),@R15         Translate to text char
 003016 4120 2002            00002 20520  2                        LA    R2,@R2+2            Incr hex pointer
                                   20521  2
 00301A 9102 8030/47E0_00008       20522  2                        IF    HXDFLASC,BEGIN      If not dump format...
 003022 5E20 74EC            03420 20537  3                          INCR  R2                  Extra space
 003026 5940 74CC/4770_      03400 20540  3                          IF    (R4,EQ,8),'INCR R2'  Extra space after 8th byte
 003032                            20565  2                        END
 003032 7102/47F0 7110 03032 03020 20569  2                        ELSE  BEGIN
 003036 1804                       20580  3                          LR    R0,R4
 003038 5400 74F4            03428 20581  3                          N     R0,=F'3'
 00303C 4770 7110/5E20_      03044 20582  3                          IF    Z,'INCR R2'         Space after every 4th byte
 003044                            20601  2                        END
                                   20605  2
 003044 5E30 74EC            03420 20606  2                        INCR  R3                  Incr char pointer
 003048 5E60 74EC            03420 20609  2                        INCR  R6                  Incr data pointer
 00304C 0650                       20612  2                        DECR  R5                  Decr data counter
 00304E 5E40 74EC            03420 20614  2                        INCR  R4                  Incr line loop counter
 003052 47F0 70A8            02FDC 20617  1                      END
                                   20622  1
 003056 4110 8033/4100_      0000B 20623  1                      TSEG  HXDLINE,,CR         Write line
 003068 47F0 7042            02F76 20651                       END
                                   20656
 00306C 18D8/9808 D004_            20657                       PEND  ,
 DROP   HXDWA-(4+36),R8
 DROP   *,R7
1UTIL     (UTIL2025) (12:58) (15MAR04) Utility Routines                                                                     Page   59
0Current Usings:  (CP,R11) (CV,R12)
0Loc    Object Code    Addr1 Addr2  Stmt Lv Lineno    Source Statement           (Hibal 5, Asmedit 3.3)  HLASM R4.0  2004/03/15 12.58
+___    ______ ____    _____ _____  ____ __ ______    ______ _________
0                                  20682                       ¿þþþþþþþþþþþþþþþþþþþþþþþþþÜ
                                   20683                       Ÿ  ASCII translate table  Ÿ
                                   20684                       ¾þþþþþþþþþþþþþþþþþþþþþþþþþ»
 00307A 4B4B4B4B4B4B4B4B           20685              ASCIITBL DC    32C'.'                 00-1F
 00309A 405A7F7B5B6C507D           20686                       DC    C' !"#$%&&''()*+,-./'  20-2F
 0030AA F0F1F2F3F4F5F6F7           20687                       DC    C'0123456789:;<=>?'    30-3F
 0030BA 7CC1C2C3C4C5C6C7           20688                       DC    C'@ABCDEFGHIJKLMNO'    40-4F
 0030CA D7D8D9E2E3E4E5E6           20689                       DC    C'PQRSTUVWXYZ[\]^_'    50-5F
 0030DA 4B81828384858687           20690                       DC    C'.abcdefghijklmno'    60-6F
 0030EA 979899A2A3A4A5A6           20691                       DC    C'pqrstuvwxyz{|}~.'    70-7F
 0030FA 4B4B4B4B4B4B4B4B           20692                       DC    32C'.'                 80-9F    (Same as 00-7F...)
 00311A 405A7F7B5B6C507D           20693                       DC    C' !"#$%&&''()*+,-./'  A0-AF
 00312A F0F1F2F3F4F5F6F7           20694                       DC    C'0123456789:;<=>?'    B0-BF
 00313A 7CC1C2C3C4C5C6C7           20695                       DC    C'@ABCDEFGHIJKLMNO'    C0-CF
 00314A D7D8D9E2E3E4E5E6           20696                       DC    C'PQRSTUVWXYZ[\]^_'    D0-DF
 00315A 4B81828384858687           20697                       DC    C'.abcdefghijklmno'    E0-EF
 00316A 979899A2A3A4A5A6           20698                       DC    C'pqrstuvwxyz{|}~.'    F0-FF
1UTIL     (UTIL2025) (12:58) (15MAR04) Utility Routines                                                                     Page   60
0Current Usings:  (CP,R11) (CV,R12)
0Loc    Object Code    Addr1 Addr2  Stmt Lv Lineno    Source Statement           (Hibal 5, Asmedit 3.3)  HLASM R4.0  2004/03/15 12.58
+___    ______ ____    _____ _____  ____ __ ______    ______ _________
0                                  20700              ¿þþþþþþþþþþþþþþþþþþþþþþþþþþþþþþþþþþþþþþþþþþþþþþþþþþþþþþþþþþþþþþþþþþþþþÜ
                                   20701              Ÿ                                                                     Ÿ
                                   20702              Ÿ  SQSHRTN -- Routine to compress multiple blanks to a single         Ÿ
                                   20703              Ÿ    blank.                                                           Ÿ
                                   20704              Ÿ                                                                     Ÿ
                                   20705              Ÿ    On entry:                                                        Ÿ
                                   20706              Ÿ      R1,R0 - string loc,len                                         Ÿ
                                   20707              Ÿ                                                                     Ÿ
                                                      ¾þþþþþþþþþþþþþþþþþþþþþþþþþþþþþþþþþþþþþþþþþþþþþþþþþþþþþþþþþþþþþþþþþþþþþ»
000317A 50E0 D000/9008_      00000 20708              SQSHRTN  XPROC  ,
 USING  *,R7
 003194 1230/47D0 7048             20748                       IF    ('LTR R3,R0',POS),BEGIN  Compress blanks...
 00319A 1821                       20761  1                      LR    R2,R1               Set start position
 00319C 4160 2001            00001 20762  1           FNDBLK     LA    R6,@R2+1            Set possible squash move point
 0031A0 9540 2000      00000       20763  1           FNDNBLKL   CLI   @R2,C' '            Loop for end of blanks
 0031A4 4770 7028            031BC 20764  1                      BNE   FNDNBLK             Br if not blank
 0031A8 4120 2001            00001 20765  1                      LA    R2,@R2+1            Step to next position
 0031AC 4630 700C            031A0 20766  1                      BCT   R3,FNDNBLKL         Decr count and loop
 0031B0 1B26                       20767  1                      SR    R2,R6               Blanks ended text - leave
 0031B2 47D0 7048            031DC 20768  1                      BNP   SQSHXIT             1 blank at end and
 0031B6 1B02                       20769  1                      SR    R0,R2               Exit squash
 0031B8 47F0 7048            031DC 20770  1                      B     SQSHXIT
                                   20771  1
 0031BC 1842                       20772  1           FNDNBLK    LR    R4,R2               Get no of blanks
 0031BE 1B46                       20773  1                      SR    R4,R6               To squash
 0031C0 47D0 7038            031CC 20774  1                      BNP   FNDBLKL             None, skip MVC and adjustment
 0031C4 4430 72C2/D200_      03456 20775  1                      EX    R3,'MVC @R6(0),@R2' Move text left
 0031C8 1B04                       20791  1                      SR    R0,R4               Update squashed count
 0031CA 1826                       20792  1                      LR    R2,R6               Reset R2 to rest of line
 0031CC 9540 2000      00000       20793  1           FNDBLKL    CLI   @R2,C' '            Find start of next blank field
 0031D0 4780 7008            0319C 20794  1                      BE    FNDBLK              Got it, go try to squash
 0031D4 4120 2001            00001 20795  1                      LA    R2,@R2+1            Step to next char
 0031D8 4630 7038            031CC 20796  1                      BCT   R3,FNDBLKL          Decr count and loop
 0031DC                            20797                       END
 0031DC 9001 8004            00004 20801              SQSHXIT  PRETURN (R0,R1)
 0031E0 18D8/9808 D004_            20803                       PEND
 DROP   *,R7
1UTIL     (UTIL2025) (12:58) (15MAR04) Utility Routines                                                                     Page   61
0Current Usings:  (CP,R11) (CV,R12)
0Loc    Object Code    Addr1 Addr2  Stmt Lv Lineno    Source Statement           (Hibal 5, Asmedit 3.3)  HLASM R4.0  2004/03/15 12.58
+___    ______ ____    _____ _____  ____ __ ______    ______ _________
0                                  20824              ¿þþþþþþþþþþþþþþþþþþþþþþþþþþþþþþþþþþþþþþþþþþþþþþþþþþþþþþþþþþþþþþþþþþþþþÜ
                                   20825              Ÿ                                                                     Ÿ
                                   20826              Ÿ  CHARCHK/CHARCHKA -- Routine to check string for valid alpha-       Ÿ
                                   20827              Ÿ    numeric characters.  "CHARCHKA" entry is used when the first     Ÿ
                                   20828              Ÿ    character must be alphabetic.                                    Ÿ
                                   20829              Ÿ                                                                     Ÿ
                                   20830              Ÿ      On entry:                                                      Ÿ
                                   20831              Ÿ        R1,R0 - string loc, len                                      Ÿ
                                   20832              Ÿ                                                                     Ÿ
                                   20833              Ÿ      On exit, R15 (and CC):                                         Ÿ
                                   20834              Ÿ        -4 - national chars (@,#,$) present                          Ÿ
                                   20835              Ÿ         0 - all chars ok                                            Ÿ
                                   20836              Ÿ         4 - invalid string                                          Ÿ
                                   20837              Ÿ                                                                     Ÿ
                                   20838              Ÿ  Usage notes:                                                       Ÿ
                                   20839              Ÿ  CHARCHK has only 1 caller. It is used to check JES ID jobname      Ÿ
                                   20840              Ÿ  option.  CHARCHKA is tested as follows, BNZ is used for a          Ÿ
                                   20841              Ÿ  ALpha followed by alphanumerics.  BP (error routine) is used       Ÿ
                                   20842              Ÿ  to check for valid JCL jobnames (ie nationals and alphas           Ÿ
                                   20843              Ÿ  are treated the same).  It might be clearer to change as           Ÿ
                                   20844              Ÿ  suggested below in the TO DO: comments.                            Ÿ
                                   20845              Ÿ                                                                     Ÿ
                                   20846              Ÿ                                                                     Ÿ
                                   20847              Ÿ  Note:                                                              Ÿ
                                   20848              Ÿ  Characters are not checked for case.  They may be in               Ÿ
                                   20849              Ÿ  upper, lower or mixed case.  If you want upper case,               Ÿ
                                   20850              Ÿ  then be sure the translation to upper case is done by              Ÿ
                                   20851              Ÿ  the calling routine.                                               Ÿ
                                   20852              Ÿ                                                                     Ÿ
                                   20853              Ÿ                                                                     Ÿ
                                   20854              Ÿ  To Do:                                                             Ÿ
                                   20855              Ÿ  Should make 3 routines:                                            Ÿ
                                   20856              Ÿ  CHARCHKA - Alpha 1st char, then alphanumerics, no nationals        Ÿ
                                   20857              Ÿ  CHARCHKB - Alpha 1st char, then alphanumerics, with                Ÿ
                                   20858              Ÿ   nationals the same as alphas. (B for Batch job names)             Ÿ
                                   20859              Ÿ  CHARCHK - alpha numeric or national                                Ÿ
                                   20860              Ÿ  The ACMD,JES,RJE call CHARCHKB (batch).                            Ÿ
                                   20861              Ÿ  the DOPT,OPT,EDIT call CHARCHKA.                                   Ÿ
                                   20862              Ÿ  With the above strategy, we only chech Z,NZ after call.            Ÿ
                                   20863              Ÿ                                                                     Ÿ
                                                      ¾þþþþþþþþþþþþþþþþþþþþþþþþþþþþþþþþþþþþþþþþþþþþþþþþþþþþþþþþþþþþþþþþþþþþþ»
00031EE 50E0 D000/9008_      00000 20864              CHARCHKA XPROC  ,
 USING  *,R7
 003208 1B22                       20904                       CLEAR R2
 00320A 1BFF                       20908                       CLEAR R15
 00320C 1200/47D0 7036             20912                       IF    (R0,POS),BEGIN
 003212 4320 1000            00000 20926  1                      IC    R2,@R1
 003216 4322 70D8            032E0 20927  1                      IC    R2,CHCKTAB(R2)
 00321A 5920 7224/4770_      0342C 20928  1                      IF    (R2,EQ,12),BEGIN    IF FIRST IS NATIONAL, OK
 003222 58F0 7228            03430 20945  2                        L     R15,=A(-4)          BUT RETURN NEG
 003226                            20946  1                      END
 003226 7022/47F0 7030_03226 03220 20950  1                      ELSEIF (R2,NZ),BEGIN      IF FIRST NOT ALPHA OR NATIONAL
 003230 41F0 0004            00004 20973  2                        LA    R15,4               INVALID
1UTIL     (UTIL2025) (12:58) (15MAR04) Utility Routines                                                                     Page   62
0Current Usings:  (*,R7) (CP,R11) (CV,R12)
0Loc    Object Code    Addr1 Addr2  Stmt Lv Lineno    Source Statement           (Hibal 5, Asmedit 3.3)  HLASM R4.0  2004/03/15 12.58
+___    ______ ____    _____ _____  ____ __ ______    ______ _________
0003234 47F0 706A            03272 20974  2                        B     CHKADONE
 003238                            20975  1                      END
 003238 0600                       20979  1                      DECR  R0
 00323A 5E10 7218            03420 20981  1                      INCR  R1
 00323E                            20984                       END
 00323E 1200/47D0 706A             20988                       WHILE (R0,POS),BEGIN
 003244 4320 1000            00000 21004  1                      IC    R2,@R1
 003248 4322 70D8            032E0 21005  1                      IC    R2,CHCKTAB(R2)
 00324C 5920 71FC/4770_      03404 21006  1                      IF    (R2,EQ,4),BEGIN
 003254 41F0 0004            00004 21023  2                        LA    R15,4
 003258 47F0 706A            03272 21024  2                        B     CHKADONE
 00325C                            21025  1                      END
 00325C 5920 7224/4770_      0342C 21029  1                      IF    (R2,EQ,12),BEGIN
 003264 58F0 7228            03430 21046  2                        L     R15,=A(-4)
 003268                            21047  1                      END
 003268 0600                       21051  1                      DECR  R0
 00326A 5E10 7218            03420 21053  1                      INCR  R1
 00326E 47F0 7036            0323E 21056                       END
 003272                            21061              CHKADONE LABEL ,
 003272 18D8/9808 D004_            21063                       PEND  ,
 DROP   *,R7
                                   21083              *
                                   21084              *
                                   21085              *
 003280 50E0 D000/9008_      00000 21086              CHARCHK  XPROC  ,
 USING  *,R7
 00329A 1B22                       21126                       CLEAR R2
 00329C 1BFF                       21130                       CLEAR R15
 00329E 1200/47D0 7038             21134                       WHILE (R0,POS),BEGIN
 0032A4 4320 1000            00000 21150  1                      IC    R2,@R1
 0032A8 4322 7046            032E0 21151  1                      IC    R2,CHCKTAB(R2)
 0032AC 5920 716A/4770_      03404 21152  1                      IF    (R2,EQ,4),BEGIN
 0032B4 41F0 0004            00004 21169  2                        LA    R15,4
 0032B8 47F0 7038            032D2 21170  2                        B     CHKDONE
 0032BC                            21171  1                      END
 0032BC 5920 7192/4770_      0342C 21175  1                      IF    (R2,EQ,12),BEGIN
 0032C4 58F0 7196            03430 21192  2                        L     R15,=A(-4)
 0032C8                            21193  1                      END
 0032C8 0600                       21197  1                      DECR  R0
 0032CA 5E10 7186            03420 21199  1                      INCR  R1
 0032CE 47F0 7004            0329E 21202                       END
 0032D2                            21207              CHKDONE  LABEL ,
 0032D2 18D8/9808 D004_            21209                       PEND  ,
 DROP   *,R7
                                   21229              *
                                   21230              *
                                   21231              *
 0032E0 0404040404040404           21232              CHCKTAB  DC    256X'04'
 0033E0                033E0 03361 21233                       ORG   CHCKTAB+C'a'
 003361 0000000000000000           21234                       DC    9X'00'
 00336A                0336A 03371 21235                       ORG   CHCKTAB+C'j'
 003371 0000000000000000           21236                       DC    9X'00'
 00337A                0337A 03382 21237                       ORG   CHCKTAB+C's'
 003382 0000000000000000           21238                       DC    8X'00'
1UTIL     (UTIL2025) (12:58) (15MAR04) Utility Routines                                                                     Page   63
0Current Usings:  (CP,R11) (CV,R12)
0Loc    Object Code    Addr1 Addr2  Stmt Lv Lineno    Source Statement           (Hibal 5, Asmedit 3.3)  HLASM R4.0  2004/03/15 12.58
+___    ______ ____    _____ _____  ____ __ ______    ______ _________
000338A                0338A 033A1 21239                       ORG   CHCKTAB+C'A'
 0033A1 0000000000000000           21240                       DC    9X'00'
 0033AA                033AA 033B1 21241                       ORG   CHCKTAB+C'J'
 0033B1 0000000000000000           21242                       DC    9X'00'
 0033BA                033BA 033C2 21243                       ORG   CHCKTAB+C'S'
 0033C2 0000000000000000           21244                       DC    8X'00'
 0033CA                033CA 033D0 21245                       ORG   CHCKTAB+C'0'
 0033D0 0808080808080808           21246                       DC    10X'08'
 0033DA                033DA 0335C 21247                       ORG   CHCKTAB+C'@'
 00335C 0C                         21248                       DC    1X'0C'
 00335D                0335D 0335B 21249                       ORG   CHCKTAB+C'#'
 00335B 0C                         21250                       DC    1X'0C'
 00335C                0335C 0333B 21251                       ORG   CHCKTAB+C'$'
 00333B 0C                         21252                       DC    1X'0C'
 00333C                0333C 033E0 21253                       ORG
                                   21254
1UTIL     (UTIL2025) (12:58) (15MAR04) Utility Routines                                                                     Page   64
0Current Usings:  (CP,R11) (CV,R12)
0Loc    Object Code    Addr1 Addr2  Stmt Lv Lineno    Source Statement           (Hibal 5, Asmedit 3.3)  HLASM R4.0  2004/03/15 12.58
+___    ______ ____    _____ _____  ____ __ ______    ______ _________
0                                  21256                       QLTORG
1UTIL     (UTIL2025) (12:58) (15MAR04) Convert Printable Date to Julian                                                     Page   65
0Current Usings:  (CP,R11) (CV,R12)
0Loc    Object Code    Addr1 Addr2  Stmt Lv Lineno    Source Statement           (Hibal 5, Asmedit 3.3)  HLASM R4.0  2004/03/15 12.58
+___    ______ ____    _____ _____  ____ __ ______    ______ _________
0                                  21293              ¿þþþþþþþþþþþþþþþþþþþþþþþþþþþþþþþþþþþþþþþþþþþþþþþþþþþþþþþþþþþþþþþþþþþþþÜ
                                   21294              Ÿ                                                                     Ÿ
                                   21295              Ÿ  CNVDATE -- Routine to convert printable date to julian form.       Ÿ
                                   21296              Ÿ    Either yy.ddd or mm/dd/yy format is acceptable.  (This           Ÿ
                                   21297              Ÿ    routine would be "CR", but it depends on CP/CV stuff and         Ÿ
                                   21298              Ÿ    the WYLBUR scanner).                                             Ÿ
                                   21299              Ÿ                                                                     Ÿ
                                   21300              Ÿ  On entry,                                                          Ÿ
                                   21301              Ÿ    the scanner is set for the string which is the date              Ÿ
                                   21302              Ÿ                                                                     Ÿ
                                   21303              Ÿ  On exit,                                                           Ÿ
                                   21304              Ÿ    R15 = yydddf  (as returned by TIME BIN)                          Ÿ
                                   21305              Ÿ                                                                     Ÿ
                                                      ¾þþþþþþþþþþþþþþþþþþþþþþþþþþþþþþþþþþþþþþþþþþþþþþþþþþþþþþþþþþþþþþþþþþþþþ»
000345C 50E0 D000/9008_      00000 21306              CNVDATE  XPROC  ,
 USING  *,R7
 003476 5810 B08C/1B00_      0008C 21346                       SCAN  JDATPRT
 0034C8 58E0 77AA/0DEE       03C20 21378                       SCANCHK
 0034CE 18F6/4100 0003_            21383              JDATCOM  BTD   CPDOUB+2,3,(R6)
 0034DE D604 BC88 780C 00C88 03C82 21406                       OC    CPDOUB(5),=C'00000'
 0034E4 92C6 BC8D      00C8D       21407                       MVI   CPDOUB+5,C'F'       Sign
 0034E8 4110 BC88/4100_      00C88 21408                       XTB   CPDOUB,6            Get yydddf
 0034F6 18D8/9808 D004_            21429                       PEND
 DROP   *,R7
                                   21449
 003504 50E0 D000/9008_      00000 21450              JULDAT   PROC  ,
 USING  *,R7
 00351E 1820                       21489                       LR    R2,R0              Enter with yy.ddd*1000
 003520 18F0                       21490                       LR    R15,R0
 003522 1BEE                       21491                       CLEAR R14
 003524 5DE0 770E            03C2C 21495                       D     R14,=A(1000)        Isolate yy
 003528 12FF/4770 7016_            21496                       IF    (R15,Z),'VCALL NOTVALID'       YY too little
 003534 59F0 7716/47D0_      03C34 21519                       IF    (R15,GT,99),'VCALL NOTVALID '  yy too big
 003542 183F                       21545                       LR    R3,R15
 003544 4140 016D            0016D 21546                       LA    R4,365              Max no of days in a year
 003548 180F/5400 771A_            21547                       IF    ('LR R0,R15; N R0,=F"3"',Z),'LA R4,366'  leap
 003556 4100 0002/4110_      00002 21567                       BTD   CPDOUB,2,(R15)      Add yy
 003564 4C30 7758            03C76 21589                       MH    R3,=Y(1000)
 003568 1B23                       21590                       SR    R2,R3               Isolate ddd
 00356A 4770 7056/58E0_      03574 21591                       IF    Z,'VCALL NOTVALID'
 003574 1924/47D0 7062_            21611                       IF    (R2,GT,R4),'VCALL NOTVALID'   ddd is too big
 003580 1862                       21635                       LR    R6,R2
 003582 5068 001C            0001C 21636                       PRETURN (R6)              Join common code
 003586 41F0 0004            00004 21638                       LA    R15,4
 00358A 18D8/9808 D004_            21639                       PEND  ,
 DROP   *,R7
                                   21659
 003598 50E0 D000/9008_      00000 21660              MONDAT   PROC  ,
 USING  *,R7
 0035B2 1830                       21699                       LR    R3,R0              Save month
 0035B4 5038 0010            00010 21700                       PRETURN (R3)
 0035B8 58E0 B08C/D203_      0008C 21702                       SETSCKWS DAYPRT
 0035C6 1BFF                       21715                       CLEAR R15
1UTIL     (UTIL2025) (12:58) (15MAR04) Convert Printable Date to Julian                                                     Page   66
0Current Usings:  (CP,R11) (CV,R12)
0Loc    Object Code    Addr1 Addr2  Stmt Lv Lineno    Source Statement           (Hibal 5, Asmedit 3.3)  HLASM R4.0  2004/03/15 12.58
+___    ______ ____    _____ _____  ____ __ ______    ______ _________
00035C8 18D8/9808 D004_            21719                       PEND  ,
 DROP   *,R7
                                   21739
 0035D6 50E0 D000/9008_      00000 21740              DAYDAT   PROC  ,
 USING  *,R7
 0035F0 1840                       21779                       LR    R4,R0              Save day
 0035F2 58E0 B08C/D203_      0008C 21780                       SETSCKWS YEARPRT
 003600 5048 0014            00014 21793                       PRETURN (R4)
 003604 1BFF                       21795                       CLEAR R15
 003606 18D8/9808 D004_            21799                       PEND  ,
 DROP   *,R7
                                   21819
 003614 50E0 D000/9008_      00000 21820              YEARDAT  PROC  ,
 USING  *,R7
 00362E 1850                       21859                       LR    R5,R0              Save year
 003630 18F5/4100 0002_            21860                       BTD   CPDOUB,2,(R5)      Add yy
 003640 8930 0001            00001 21883                       SLL   R3,1               Month*2 for offset
 003644 4863 717C            037AA 21884                       LH    R6,SMONTHS-2(R3)
 003648 18F4                       21885                       LR    R15,R4
 00364A 5450 760A/4770_      03C38 21886                       IF    ('N R5,=F"3"',Z),BEGIN  leap year...
 003652 4863 7194            037C2 21899  1                      LH    R6,LMONTHS-2(R3)
 003656 5930 7616/47C0_      03C44 21900  1                      IF    (R3,LE,2*2),EXIT    Jan or feb.. scram
 00365E 41F0 F001            00001 21920  1                      LA    R15,@R15+1          Account for leap day
 003662                            21921                       END
 003662 1946/47D0 7046_            21925                       IF    (R4,GT,R6),'ERROR "INVALID DATE"'
 003674 4AF3 71AC            037DA 21952                       AH    R15,TMONTHS-2(R3)   Calc ddd
 003678 186F                       21953                       LR    R6,R15
 00367A 5068 001C            0001C 21954                       PRETURN (R6)
 00367E 41F0 0004            00004 21956                       LA    R15,4
 003682 18D8/9808 D004_            21957                       PEND  ,
 DROP   *,R7
                                   21977
 003690 4040404040404040_          21978              JDATPRT  SCKW  ,MONDAT,PI,12
 0036B8 4040404040404040_          21993                       SCKW  ,JULDAT,LN
 0036E0 4040404040404040_          22008                       SCKW  ,V(NOTVALID)
                                   22023
 003708 6140404040404040_          22024              DAYPRT   SCKW  /,DAYDAT,(P,PI),31
 003730 4040404040404040_          22039                       SCKW  ,V(NOTVALID)
                                   22054
 003758 6140404040404040_          22055              YEARPRT  SCKW  /,YEARDAT,(P,I),99
 003780 4040404040404040_          22070                       SCKW  ,V(NOTVALID)
                                   22085
 0037A8 00000000                   22086                       DC    F'0'                REQUIRED, BUT NOT USED
 0037AC 001F001C001F001E           22087              SMONTHS  DC    H'31,28,31,30,31,30,31,31,30,31,30,31'
 0037C4 001F001D001F001E           22088              LMONTHS  DC    H'31,29,31,30,31,30,31,31,30,31,30,31'
 0037DC 0000001F003B005A           22089              TMONTHS  DC    H'0,31,59,90,120,151,181,212,243,273,304,334'
1UTIL     (UTIL2025) (12:58) (15MAR04) Convert Printable Date to Julian                                                     Page   67
0Current Usings:  (CP,R11) (CV,R12)
0Loc    Object Code    Addr1 Addr2  Stmt Lv Lineno    Source Statement           (Hibal 5, Asmedit 3.3)  HLASM R4.0  2004/03/15 12.58
+___    ______ ____    _____ _____  ____ __ ______    ______ _________
0                                  22091              ¿þþþþþþþþþþþþþþþþþþþþþþþþþþþþþþþþþþþþþþþþþþþþþþþþþþþþþþþþþþþþþþþþþþþþþÜ
                                   22092              Ÿ                                                                     Ÿ
                                   22093              Ÿ  MINSEG -- Routine to TSEG the number of hours/minutes/seconds      Ÿ
                                   22094              Ÿ    from a value in seconds.                                         Ÿ
                                   22095              Ÿ                                                                     Ÿ
                                   22096              Ÿ    On entry:                                                        Ÿ
                                   22097              Ÿ      R15 - time in seconds                                          Ÿ
                                   22098              Ÿ              (actually, the time is in unit of the high order       Ÿ
                                   22099              Ÿ               word of the TOD clock; i.e 1.048576 second units)     Ÿ
                                   22100              Ÿ                                                                     Ÿ
                                                      ¾þþþþþþþþþþþþþþþþþþþþþþþþþþþþþþþþþþþþþþþþþþþþþþþþþþþþþþþþþþþþþþþþþþþþþ»
00037F4 50E0 D000/9008_      00000 22101              MINSEG   XPROC  ,
 USING  *,R7
 00380E 185F                       22141                       LR    R5,R15
 003810 88F0 0005            00005 22142                       SRL   R15,5               Divide by 32
 003814 1B5F                       22143                       SR    R5,R15              Apply correction for seconds
                                   22144
 003816 1845                       22145                       LR    R4,R5               Time in seconds
                                   22146                       ¿þþþþþþþþþþþþþþþÜ
                                   22147                       Ÿ  Show hours.  Ÿ
                                   22148                       ¾þþþþþþþþþþþþþþþ»
 003818 1B22                       22149                       CLEAR R2
 00381A 1834                       22153                       LR    R3,R4
 00381C 5D20 7446            03C54 22154                       D     R2,=A(60*60)        R3 = number of hours
 003820 1233/4780 7044             22155                       IF    (R3,NZ),BEGIN       Show hours...
 003826 1813/1B00/41F0_            22169  1                      TNUM  (R3)
 003834 4110 746A/4100_      03C78 22191  1                      SETMSG ' hours'
 00383C 5930 744E/4770_      03C5C 22195  1                      IF    (R3,EQ,1),'DECR R0'
 003846 41F0 B050/58E0_      00050 22219  1                      TSEG  (R1),(R0)
 003850 1842                       22243  1                      LR    R4,R2
 003852                            22244                       END
                                   22248                       ¿þþþþþþþþþþþþþþþþþÜ
                                   22249                       Ÿ  Show minutes.  Ÿ
                                   22250                       ¾þþþþþþþþþþþþþþþþþ»
 003852 1B22                       22251                       CLEAR R2
 003854 1834                       22255                       LR    R3,R4
 003856 5D20 7456            03C64 22256                       D     R2,=A(60)           R3 = number of minutes
 00385A 1233/4780 7098             22257                       IF    (R3,NZ),BEGIN       Show minutes...
 003860 5950 7446/47D0_      03C54 22271  1                      IF    (R5,GT,=A(60*60)),'TSEG " and "'
 00387A 1813/1B00/41F0_            22310  1                      TNUM  (R3)
 003888 4110 73E2/4100_      03BF0 22332  1                      SETMSG ' minutes'
 003890 5930 744E/4770_      03C5C 22336  1                      IF    (R3,EQ,1),'DECR R0'
 00389A 41F0 B050/58E0_      00050 22360  1                      TSEG  (R1),(R0)
 0038A4 1842                       22384  1                      LR    R4,R2
 0038A6                            22385                       END
                                   22389                       ¿þþþþþþþþþþþþþþþþþþþþþþþþþþþþþþþþþþþþþþþþþþþþþþþþþÜ
                                   22390                       Ÿ  Show seconds if time is less than one minute.  Ÿ
                                   22391                       ¾þþþþþþþþþþþþþþþþþþþþþþþþþþþþþþþþþþþþþþþþþþþþþþþþþ»
 0038A6 5950 7456/47B0_      03C64 22392                       IF    (R5,LT,60),BEGIN    Show seconds...
 0038AE 1815/1B00/41F0_            22409  1                      TNUM  (R5)
 0038BC 4110 73EA/4100_      03BF8 22431  1                      SETMSG ' seconds'
 0038C4 5950 744E/4770_      03C5C 22435  1                      IF    (R5,EQ,1),'DECR R0'
 0038CE 41F0 B050/58E0_      00050 22459  1                      TSEG  (R1),(R0)
1UTIL     (UTIL2025) (12:58) (15MAR04) Convert Printable Date to Julian                                                     Page   68
0Current Usings:  (*,R7) (CP,R11) (CV,R12)
0Loc    Object Code    Addr1 Addr2  Stmt Lv Lineno    Source Statement           (Hibal 5, Asmedit 3.3)  HLASM R4.0  2004/03/15 12.58
+___    ______ ____    _____ _____  ____ __ ______    ______ _________
00038D8                            22483                       END
                                   22487
 0038D8 18D8/9808 D004_            22488                       PEND  ,
 DROP   *,R7
1UTIL     (UTIL2025) (12:58) (15MAR04) Convert Printable Date to Julian                                                     Page   69
0Current Usings:  (CP,R11) (CV,R12)
0Loc    Object Code    Addr1 Addr2  Stmt Lv Lineno    Source Statement           (Hibal 5, Asmedit 3.3)  HLASM R4.0  2004/03/15 12.58
+___    ______ ____    _____ _____  ____ __ ______    ______ _________
0                                  22509              ¿þþþþþþþþþþþþþþþþþþþþþþþþþþþþþþþþþþþþþþþþþþþþþþþþþþþþþþþþþþþþþþþþþþþþþÜ
                                   22510              Ÿ                                                                     Ÿ
                                   22511              Ÿ  TOEBCDIC -- Routine to translate ASCII text to EBCDIC.             Ÿ
                                   22512              Ÿ                                                                     Ÿ
                                   22513              Ÿ    On entry:                                                        Ÿ
                                   22514              Ÿ      R1,R0 - text loc, len                                          Ÿ
                                   22515              Ÿ                                                                     Ÿ
                                   22516              Ÿ    On exit:                                                         Ÿ
                                   22517              Ÿ      R1,R0 - translated text loc, len                               Ÿ
                                   22518              Ÿ              (the text is translated in place)                      Ÿ
                                   22519              Ÿ                                                                     Ÿ
                                                      ¾þþþþþþþþþþþþþþþþþþþþþþþþþþþþþþþþþþþþþþþþþþþþþþþþþþþþþþþþþþþþþþþþþþþþþ»
00038E6 50E0 D000/9008_      00000 22520              TOEBCDIC XPROC  ,
 USING  *,R7
 003900 5820 C8B4            008B4 22560                       L     R2,CVEBCTBL         EBCDIC translate table
                                   22561
 003904 1200/47D0 702A             22562                       WHILE (R0,POS),BEGIN      Translate text...
 00390A 18F0                       22578  1                      LR    R15,R0
 00390C 59F0 7368/47D0_      03C68 22579  1                      CEIL  R15,256
 003918 06F0/44F0 7394_            22598  1                      DEX   R15,'TR @R1(0),@R2'  To EBCDIC
                                   22617  1
 00391E 4110 1100            00100 22618  1                      LA    R1,@R1+256
 003922 4B00 737E            03C7E 22619  1                      SH    R0,=H'256'
 003926 47F0 7004            03904 22620                       END
 00392A 18D8/9808 D004_            22625                       PEND  ,
 DROP   *,R7
1UTIL     (UTIL2025) (12:58) (15MAR04) Convert Printable Date to Julian                                                     Page   70
0Current Usings:  (CP,R11) (CV,R12)
0Loc    Object Code    Addr1 Addr2  Stmt Lv Lineno    Source Statement           (Hibal 5, Asmedit 3.3)  HLASM R4.0  2004/03/15 12.58
+___    ______ ____    _____ _____  ____ __ ______    ______ _________
0                                  22646              ¿þþþþþþþþþþþþþþþþþþþþþþþþþþþþþþþþþþþþþþþþþþþþþþþþþþþþþþþþþþþþþþþþþþþþþÜ
                                   22647              Ÿ                                                                     Ÿ
                                   22648              Ÿ  TOEBC7 -- Routine to translate ASCII-7 text to EBCDIC.             Ÿ
                                   22649              Ÿ                                                                     Ÿ
                                   22650              Ÿ    On entry:                                                        Ÿ
                                   22651              Ÿ      R1,R0 - text loc, len                                          Ÿ
                                   22652              Ÿ                                                                     Ÿ
                                   22653              Ÿ    On exit:                                                         Ÿ
                                   22654              Ÿ      R1,R0 - translated text loc, len                               Ÿ
                                   22655              Ÿ              (the text is translated in place)                      Ÿ
                                   22656              Ÿ                                                                     Ÿ
                                                      ¾þþþþþþþþþþþþþþþþþþþþþþþþþþþþþþþþþþþþþþþþþþþþþþþþþþþþþþþþþþþþþþþþþþþþþ»
0003938 50E0 D000/9008_      00000 22657              TOEBC7   XPROC  ,
 USING  *,R7
 003952 5820 C8C0            008C0 22697                       L     R2,CVEB7TBL         EBCDIC translate table
                                   22698
 003956 1200/47D0 702A             22699                       WHILE (R0,POS),BEGIN      Translate text...
 00395C 18F0                       22715  1                      LR    R15,R0
 00395E 59F0 7316/47D0_      03C68 22716  1                      CEIL  R15,256
 00396A 06F0/44F0 7348_            22735  1                      DEX   R15,'TR @R1(0),@R2' To EBCDIC
                                   22754  1
 003970 4110 1100            00100 22755  1                      LA    R1,@R1+256
 003974 4B00 732C            03C7E 22756  1                      SH    R0,=H'256'
 003978 47F0 7004            03956 22757                       END
 00397C 18D8/9808 D004_            22762                       PEND  ,
 DROP   *,R7
1UTIL     (UTIL2025) (12:58) (15MAR04) Convert Printable Date to Julian                                                     Page   71
0Current Usings:  (CP,R11) (CV,R12)
0Loc    Object Code    Addr1 Addr2  Stmt Lv Lineno    Source Statement           (Hibal 5, Asmedit 3.3)  HLASM R4.0  2004/03/15 12.58
+___    ______ ____    _____ _____  ____ __ ______    ______ _________
0                                  22783              ¿þþþþþþþþþþþþþþþþþþþþþþþþþþþþþþþþþþþþþþþþþþþþþþþþþþþþþþþþþþþþþþþþþþþþþÜ
                                   22784              Ÿ                                                                     Ÿ
                                   22785              Ÿ  TOASCII -- Routine to translate EBCDIC text to ASCII.              Ÿ
                                   22786              Ÿ                                                                     Ÿ
                                   22787              Ÿ    On entry:                                                        Ÿ
                                   22788              Ÿ      R1,R0 - text loc, len                                          Ÿ
                                   22789              Ÿ                                                                     Ÿ
                                   22790              Ÿ    On exit:                                                         Ÿ
                                   22791              Ÿ      R1,R0 - translated text loc, len                               Ÿ
                                   22792              Ÿ              (the text is translated in place)                      Ÿ
                                   22793              Ÿ                                                                     Ÿ
                                                      ¾þþþþþþþþþþþþþþþþþþþþþþþþþþþþþþþþþþþþþþþþþþþþþþþþþþþþþþþþþþþþþþþþþþþþþ»
000398A 50E0 D000/9008_      00000 22794              TOASCII  XPROC  ,
 USING  *,R7
 0039A4 5820 C8B0            008B0 22834                       L     R2,CVASCTBL         ASCII translate table
                                   22835
 0039A8 1200/47D0 702A             22836                       WHILE (R0,POS),BEGIN      Translate text...
 0039AE 18F0                       22852  1                      LR    R15,R0
 0039B0 59F0 72C4/47D0_      03C68 22853  1                      CEIL  R15,256
 0039BC 06F0/44F0 72FC_            22872  1                      DEX   R15,'TR @R1(0),@R2' To ASCII
                                   22891  1
 0039C2 4110 1100            00100 22892  1                      LA    R1,@R1+256
 0039C6 4B00 72DA            03C7E 22893  1                      SH    R0,=H'256'
 0039CA 47F0 7004            039A8 22894                       END
 0039CE 18D8/9808 D004_            22899                       PEND  ,
 DROP   *,R7
1UTIL     (UTIL2025) (12:58) (15MAR04) Convert Printable Date to Julian                                                     Page   72
0Current Usings:  (CP,R11) (CV,R12)
0Loc    Object Code    Addr1 Addr2  Stmt Lv Lineno    Source Statement           (Hibal 5, Asmedit 3.3)  HLASM R4.0  2004/03/15 12.58
+___    ______ ____    _____ _____  ____ __ ______    ______ _________
0                                  22920              ¿þþþþþþþþþþþþþþþþþþþþþþþþþþþþþþþþþþþþþþþþþþþþþþþþþþþþþþþþþþþþþþþþþþþþþÜ
                                   22921              Ÿ                                                                     Ÿ
                                   22922              Ÿ  TOEVENP -- Routine to translate ASCII text to even parity          Ÿ
                                   22923              Ÿ    ASCII text.                                                      Ÿ
                                   22924              Ÿ                                                                     Ÿ
                                   22925              Ÿ    On entry:                                                        Ÿ
                                   22926              Ÿ      R1,R0 - text loc, len                                          Ÿ
                                   22927              Ÿ                                                                     Ÿ
                                   22928              Ÿ    On exit:                                                         Ÿ
                                   22929              Ÿ      R1,R0 - translated text loc, len                               Ÿ
                                   22930              Ÿ              (the text is translated in place)                      Ÿ
                                   22931              Ÿ                                                                     Ÿ
                                                      ¾þþþþþþþþþþþþþþþþþþþþþþþþþþþþþþþþþþþþþþþþþþþþþþþþþþþþþþþþþþþþþþþþþþþþþ»
00039DC 50E0 D000/9008_      00000 22932              TOEVENP  XPROC  ,
 USING  *,R7
 0039F6 5820 C8A0            008A0 22972                       L     R2,CVPARTBL         Even parity table
                                   22973
 0039FA 1200/47D0 702A             22974                       WHILE (R0,POS),BEGIN      Translate text...
 003A00 18F0                       22990  1                      LR    R15,R0
 003A02 59F0 7272/47D0_      03C68 22991  1                      CEIL  R15,256
 003A0E 06F0/44F0 72B0_            23010  1                      DEX   R15,'TR @R1(0),@R2' To even parity
                                   23029  1
 003A14 4110 1100            00100 23030  1                      LA    R1,@R1+256
 003A18 4B00 7288            03C7E 23031  1                      SH    R0,=H'256'
 003A1C 47F0 7004            039FA 23032                       END
 003A20 18D8/9808 D004_            23037                       PEND  ,
 DROP   *,R7
1UTIL     (UTIL2025) (12:58) (15MAR04) Convert Printable Date to Julian                                                     Page   73
0Current Usings:  (CP,R11) (CV,R12)
0Loc    Object Code    Addr1 Addr2  Stmt Lv Lineno    Source Statement           (Hibal 5, Asmedit 3.3)  HLASM R4.0  2004/03/15 12.58
+___    ______ ____    _____ _____  ____ __ ______    ______ _________
0                                  23058              ¿þþþþþþþþþþþþþþþþþþþþþþþþþþþþþþþþþþþþþþþþþþþþþþþþþþþþþþþþþþþþþþþþþþþþþÜ
                                   23059              Ÿ                                                                     Ÿ
                                   23060              Ÿ  TOUPPER -- Routine to convert text to all upper case.              Ÿ
                                   23061              Ÿ                                                                     Ÿ
                                   23062              Ÿ    On entry:                                                        Ÿ
                                   23063              Ÿ      R1,R0 - text loc, len                                          Ÿ
                                   23064              Ÿ                                                                     Ÿ
                                   23065              Ÿ    On exit:                                                         Ÿ
                                   23066              Ÿ      R1,R0 - translated text loc, len                               Ÿ
                                   23067              Ÿ              (the text is translated in place)                      Ÿ
                                   23068              Ÿ                                                                     Ÿ
                                                      ¾þþþþþþþþþþþþþþþþþþþþþþþþþþþþþþþþþþþþþþþþþþþþþþþþþþþþþþþþþþþþþþþþþþþþþ»
0003A2E 50E0 D000/9008_      00000 23069              TOUPPER  XPROC
 USING  *,R7
 003A48 5820 C8A8            008A8 23109                       L     R2,CVUPPTBL         Upper case only xl table
                                   23110
 003A4C 1200/47D0 702A             23111                       WHILE (R0,POS),BEGIN      Translate text...
 003A52 18F0                       23127  1                      LR    R15,R0
 003A54 59F0 7220/47D0_      03C68 23128  1                      CEIL  R15,256
 003A60 06F0/44F0 7264_            23147  1                      DEX   R15,'TR @R1(0),@R2' To upper case only
                                   23166  1
 003A66 4110 1100            00100 23167  1                      LA    R1,@R1+256
 003A6A 4B00 7236            03C7E 23168  1                      SH    R0,=H'256'
 003A6E 47F0 7004            03A4C 23169                       END
 003A72 18D8/9808 D004_            23174                       PEND
 DROP   *,R7
1UTIL     (UTIL2025) (12:58) (15MAR04) Convert Printable Date to Julian                                                     Page   74
0Current Usings:  (CP,R11) (CV,R12)
0Loc    Object Code    Addr1 Addr2  Stmt Lv Lineno    Source Statement           (Hibal 5, Asmedit 3.3)  HLASM R4.0  2004/03/15 12.58
+___    ______ ____    _____ _____  ____ __ ______    ______ _________
0                                  23195              ¿þþþþþþþþþþþþþþþþþþþþþþþþþþþþþþþþþþþþþþþþþþþþþþþþþþþþþþþþþþþþþþþþþþþþþÜ
                                   23196              Ÿ                                                                     Ÿ
                                   23197              Ÿ  ENCRYPT -- Routine to encode                                       Ÿ
                                   23198              Ÿ                                                                     Ÿ
                                                      ¾þþþþþþþþþþþþþþþþþþþþþþþþþþþþþþþþþþþþþþþþþþþþþþþþþþþþþþþþþþþþþþþþþþþþþ»
0003A80 50E0 D000/9008_      00000 23199              ENCRYPT  XPROC  ,
 USING  *,R7
 003A9A 9001 D000/41D0_      00000 23239                       XPUSH R0,R1
 003AA2 4110 7166/4100_      03C00 23242                       TSEG  'ENCRYPT '
 003AB4 4110 716E/4100_      03C08 23260                       TSEG  'Text = "'
 003AC6 4BD0 71E6/9801_      03C80 23278                       XPOP  R0,R1
 003ACE 41F0 B050/58E0_      00050 23281                       TSEG  (R1),(R0)
 003AD8 4110 71F2/4100_      03C8C 23305                       TSEG  '"',,CR
                                   23323
 003AEA 4110 71F3/4100_      03C8D 23324                       TSEG  'Key = "'
 003AFC 1812/1803/41F0_            23342                       TSEG  (R2),(R3)
 003B0A 4110 71F2/4100_      03C8C 23368                       TSEG  '"',,CR
 003B1C 1B00/41F0 B050_            23386                       TWRITE
 003B28 18D8/9808 D004_            23411                       PEND  ,
 DROP   *,R7
1UTIL     (UTIL2025) (12:58) (15MAR04) Convert Printable Date to Julian                                                     Page   75
0Current Usings:  (CP,R11) (CV,R12)
0Loc    Object Code    Addr1 Addr2  Stmt Lv Lineno    Source Statement           (Hibal 5, Asmedit 3.3)  HLASM R4.0  2004/03/15 12.58
+___    ______ ____    _____ _____  ____ __ ______    ______ _________
0                                  23432              ¿þþþþþþþþþþþþþþþþþþþþþþþþþþþþþþþþþþþþþþþþþþþþþþþþþþþþþþþþþþþþþþþþþþþþþÜ
                                   23433              Ÿ                                                                     Ÿ
                                   23434              Ÿ  DECRYPT -- Routine to encode                                       Ÿ
                                   23435              Ÿ                                                                     Ÿ
                                                      ¾þþþþþþþþþþþþþþþþþþþþþþþþþþþþþþþþþþþþþþþþþþþþþþþþþþþþþþþþþþþþþþþþþþþþþ»
0003B36 50E0 D000/9008_      00000 23436              DECRYPT  XPROC  ,
 USING  *,R7
 003B50 9001 D000/41D0_      00000 23476                       XPUSH R0,R1
 003B58 4110 70C0/4100_      03C10 23479                       TSEG  'DECRYPT '
 003B6A 4110 70B8/4100_      03C08 23497                       TSEG  'Text = "'
 003B7C 4BD0 7130/9801_      03C80 23515                       XPOP  R0,R1
 003B84 41F0 B050/58E0_      00050 23518                       TSEG  (R1),(R0)
 003B8E 4110 713C/4100_      03C8C 23542                       TSEG  '"',,CR
                                   23560
 003BA0 4110 713D/4100_      03C8D 23561                       TSEG  'Key = "'
 003BB2 1812/1803/41F0_            23579                       TSEG  (R2),(R3)
 003BC0 4110 713C/4100_      03C8C 23605                       TSEG  '"',,CR
 003BD2 1B00/41F0 B050_            23623                       TWRITE
 003BDE 18D8/9808 D004_            23648                       PEND  ,
 DROP   *,R7
                                   23668
                                   23669                       QLTORG
                                   23716
 003CB8                03CB8 03CB8 23717                       END   .

1UTIL     (UTIL2025) (12:58) (15MAR04) Relocation Dictionary                                                                Page   76
-   Pos.Id   Rel.Id   Flags    Address                                                       HLASM R4.0  2004/03/15 12.58
0  00000001 00000001    0C    00000514
   00000001 00000001    0C    0000053C
   00000001 00000001    0C    00000564
   00000001 00000001    0C    0000058C
   00000001 00000001    0C    000005B4
   00000001 00000001    0C    000005DC
   00000001 00000001    0C    00000604
   00000001 00000001    0C    0000062C
   00000001 00000001    0C    00000654
   00000001 00000001    0C    0000067C
   00000001 00000001    0C    000006A4
   00000001 00000001    0C    00000A70
   00000001 00000001    0C    00000A74
   00000001 00000001    0C    00000A84
   00000001 00000001    0C    00000A90
   00000001 00000001    0C    00000ABC
   00000001 00000001    0C    00000FE8
   00000001 00000001    0C    00000FF0
   00000001 00000001    0C    00001000
   00000001 00000001    0C    00001330
   00000001 00000001    0C    00001338
   00000001 00000001    0C    00001348
   00000001 00000001    0C    0000134C
   00000001 00000001    0C    0000201C
   00000001 00000001    0C    0000202C
   00000001 00000001    0C    00002030
   00000001 00000001    0C    00002040
   00000001 00000001    0C    00002270
   00000001 00000001    0C    0000227C
   00000001 00000001    0C    0000228C
   00000001 00000001    0C    0000229C
   00000001 00000001    0C    000022A8
   00000001 00000001    0C    000022B4
   00000001 00000001    0C    000022C0
   00000001 00000001    0C    000022CC
   00000001 00000001    0C    000022E0
   00000001 00000001    0C    000022EC
   00000001 00000001    0C    000022F8
   00000001 00000001    0C    00002304
   00000001 00000001    0C    00002310
   00000001 00000001    0C    0000231C
   00000001 00000001    0C    00002328
   00000001 00000001    0C    00002334
   00000001 00000001    0C    00002340
   00000001 00000001    0C    0000234C
   00000001 00000001    0C    00002358
   00000001 00000001    0C    00002368
   00000001 00000001    0C    00002378
   00000001 00000001    0C    00002388
   00000001 00000001    0C    0000239C
   00000001 00000001    0C    000023AC
   00000001 00000001    0C    000023B8
   00000001 00000001    0C    000023CC
   00000001 00000001    0C    000023DC
   00000001 00000001    0C    000023F0
1UTIL     (UTIL2025) (12:58) (15MAR04) Relocation Dictionary                                                                Page   77
   00000001 00000001    0C    00002404
   00000001 00000001    0C    00002414
   00000001 00000001    0C    0000242C
   00000001 00000001    0C    00002448
   00000001 00000001    0C    00002460
   00000001 00000001    0C    00002480
   00000001 00000001    0C    00002494
   00000001 00000001    0C    000024A0
   00000001 00000001    0C    000024B0
   00000001 00000001    0C    000024C4
   00000001 00000001    0C    000024D0
   00000001 00000001    0C    000024DC
   00000001 00000001    0C    000024E8
   00000001 00000001    0C    000024F4
   00000001 00000001    0C    00002508
   00000001 00000001    0C    00002518
   00000001 00000001    0C    00002524
   00000001 00000001    0C    00002534
   00000001 00000001    0C    00002540
   00000001 00000001    0C    0000254C
   00000001 00000001    0C    00002560
   00000001 00000001    0C    0000256C
   00000001 00000001    0C    00002580
   00000001 00000001    0C    00002590
   00000001 00000001    0C    0000259C
   00000001 00000001    0C    000025A8
   00000001 00000001    0C    000025B4
   00000001 00000001    0C    000025C0
   00000001 00000001    0C    000025DC
   00000001 00000001    0C    000025F8
   00000001 00000001    0C    00002604
   00000001 00000001    0C    00002614
   00000001 00000001    0C    00002620
   00000001 00000001    0C    00002630
   00000001 00000001    0C    0000263C
   00000001 00000001    0C    0000264C
   00000001 00000001    0C    00002660
   00000001 00000001    0C    00002670
   00000001 00000001    0C    00002680
   00000001 00000001    0C    0000268C
   00000001 00000001    0C    0000269C
   00000001 00000001    0C    000026A8
   00000001 00000001    0C    000026B4
   00000001 00000001    0C    000026C0
   00000001 00000001    0C    000026CC
   00000001 00000001    0C    000026D8
   00000001 00000001    0C    000026E4
   00000001 00000001    0C    000026F0
   00000001 00000001    0C    000026FC
   00000001 00000001    0C    00002708
   00000001 00000001    0C    00002718
   00000001 00000001    0C    00002730
   00000001 00000001    0C    00002740
   00000001 00000001    0C    0000274C
   00000001 00000001    0C    0000275C
   00000001 00000001    0C    00002768
   00000001 00000001    0C    00002778
   00000001 00000001    0C    00002790
   00000001 00000001    0C    000027A4
1UTIL     (UTIL2025) (12:58) (15MAR04) Relocation Dictionary                                                                Page   78
   00000001 00000001    0C    000027B8
   00000001 00000001    0C    000027D0
   00000001 00000001    0C    000027E4
   00000001 00000001    0C    000027F0
   00000001 00000001    0C    000027FC
   00000001 00000001    0C    0000280C
   00000001 00000001    0C    00002818
   00000001 00000001    0C    00002824
   00000001 00000001    0C    00002830
   00000001 00000001    0C    0000283C
   00000001 00000001    0C    00002854
   00000001 00000001    0C    0000286C
   00000001 00000001    0C    0000287C
   00000001 00000001    0C    00002888
   00000001 00000001    0C    00002898
   00000001 00000001    0C    000028A4
   00000001 00000001    0C    000028B0
   00000001 00000001    0C    000028BC
   00000001 00000001    0C    000028C8
   00000001 00000001    0C    000028D4
   00000001 00000001    0C    000028E0
   00000001 00000001    0C    000028F4
   00000001 00000001    0C    00002900
   00000001 00000001    0C    0000290C
   00000001 00000001    0C    00002920
   00000001 00000001    0C    0000292C
   00000001 00000001    0C    00002938
   00000001 00000001    0C    00002944
   00000001 00000001    0C    00002950
   00000001 00000001    0C    0000295C
   00000001 00000001    0C    00002968
   00000001 00000001    0C    00002974
   00000001 00000001    0C    00002980
   00000001 00000001    0C    0000298C
   00000001 00000001    0C    00002998
   00000001 00000001    0C    000029A4
   00000001 00000001    0C    000029B0
   00000001 00000001    0C    000029BC
   00000001 00000001    0C    000029C8
   00000001 00000001    0C    000029D4
   00000001 00000001    0C    000029E8
   00000001 00000001    0C    000029F4
   00000001 00000001    0C    00002A04
   00000001 00000001    0C    00002A18
   00000001 00000001    0C    00002A24
   00000001 00000001    0C    00002A30
   00000001 00000001    0C    00002A3C
   00000001 00000001    0C    00002A48
   00000001 00000001    0C    00002A54
   00000001 00000001    0C    0000341C
   00000001 00000001    0C    000036B4
   00000001 00000001    0C    000036DC
   00000001 00000001    0C    0000372C
   00000001 00000001    0C    0000377C
   00000001 00000001    0C    00003C18
   00000001 00000001    0C    00003C3C
   00000001 00000001    0C    00003C40
   00000001 00000002    1C    00000510
   00000001 00000003    1C    00000538
1UTIL     (UTIL2025) (12:58) (15MAR04) Relocation Dictionary                                                                Page   79
   00000001 00000003    1C    00000560
   00000001 00000003    1C    00000588
   00000001 00000003    1C    000005B0
   00000001 00000003    1C    000005D8
   00000001 00000003    1C    00000600
   00000001 00000003    1C    00000628
   00000001 00000003    1C    00000650
   00000001 00000003    1C    00000678
   00000001 00000004    1C    000006A0
   00000001 00000004    1C    00003700
   00000001 00000004    1C    00003750
   00000001 00000004    1C    000037A0
   00000001 00000005    1C    00000A78
   00000001 00000005    1C    00003408
   00000001 00000005    1C    00003C6C
   00000001 00000006    1C    00000A80
   00000001 00000006    1C    00000E60
   00000001 00000006    1C    00000FFC
   00000001 00000006    1C    00001340
   00000001 00000006    1C    00002024
   00000001 00000006    1C    000033F4
   00000001 00000006    1C    00003C60
   00000001 00000007    1C    00000A8C
   00000001 00000008    1C    00000A94
   00000001 00000008    1C    00003C1C
   00000001 00000009    1C    00000A98
   00000001 0000000A    1C    00000AB4
   00000001 0000000B    1C    00000AB8
   00000001 0000000C    1C    00000AC0
   00000001 0000000D    1C    00000E5C
   00000001 0000000D    1C    00000FF8
   00000001 0000000D    1C    0000133C
   00000001 0000000D    1C    00002020
   00000001 0000000E    1C    000033F8
   00000001 0000000F    1C    000033FC
   00000001 00000010    1C    0000340C
   00000001 00000011    1C    00003418
   00000001 00000012    1C    000036B0
   00000001 00000013    1C    000036D8
   00000001 00000014    1C    00003704
   00000001 00000014    1C    00003754
   00000001 00000014    1C    000037A4
   00000001 00000014    1C    00003C30
   00000001 00000015    1C    00003728
   00000001 00000015    1C    00003778
   00000001 00000016    1C    00003C20
   00000001 00000017    1C    00003C24
   00000001 00000018    1C    00003C28
   00000001 00000019    1C    00003C58
   00000001 0000001A    1C    00003C70

1UTIL     (UTIL2025) (12:58) (15MAR04) Ordinary Symbol and Literal Cross Reference                                          Page   80
-Symbol   Length   Value     Id    R Type   Defn References                                  HLASM R4.0  2004/03/15 12.58
0$$$@R0        1 00000000 FFFFFFFE     J     705  1015
 $$$@R10       1 00000000 FFFFFFF4     J     835  1079
 $$$@R11       1 00000000 FFFFFFF3     J     848  1092
 $$$@R12       1 00000000 FFFFFFF2     J     861  1105
 $$$@R13       1 00000000 FFFFFFF1     J     874  1118
 $$$@R14       1 00000000 FFFFFFF0     J     887  1131
 $$$@R7        1 00000000 FFFFFFF7     J     796  1028
 $$$@R8        1 00000000 FFFFFFF6     J     809  1041   1053
 $$$@R9        1 00000000 FFFFFFF5     J     822  1066
 $$$C1WYLUTIL
               1 00000B20 00000001     J   10110 10112  10249  10385  10476
 $$$C2WYLUTIL
               1 00000E7C 00000001     J   10720 10722  10863  11022  11118
 $$$C3WYLUTIL
               1 00001016 00000001     J   11412 11414  11556  11698  11849  12413  12506
 $$$C4WYLUTIL
               1 00001382 00000001     J   12830 12832  15245  15427  15566  15719  16200  16385  16488
 $$$C5WYLUTIL
               1 0000206A 00000001     J   16925 16927  18524  18650  18670  18778  19294  19616  19797  20189  20789
 $$$C6WYLUTIL
               1 0000345C 00000001     J   21287 21289  22615  22752  22889  23027  23164
 $$$C7WYLUTIL
               1 00003CB2 00000001     J   23711 23713
 $$$C8WYLUTIL
               1 00003CB8 00000001     J   23720 23722
 $$$D0WYLUTIL
               1 00000B19 00000001     J     991  8092
 $$$D1WYLUTIL
               1 00000E70 00000001     J   10111 10374  10465
 $$$D2WYLUTIL
               1 0000100A 00000001     J   10721 11011  11107
 $$$D3WYLUTIL
               1 0000136A 00000001     J   11413 11687  11838  12402  12495
 $$$D4WYLUTIL
               1 00002052 00000001     J   12831 15555  15708  16374  16477
 $$$D5WYLUTIL
               1 0000343E 00000001     J   16926 18639  18659  19283  19786  20778
 $$$D6WYLUTIL
               1 00003C94 00000001     J   21288 22604  22741  22878  23016  23153
 $$$FCHAR0C
               2 00002276 00000001     C   16996 16995
 $$$FCHAR0T
               1 00002279 00000001     C   16998 16997
 $$$FCHAR1
               2 0000227C 00000001     H   17003 16993
 $$$FCHAR1C
               4 00002282 00000001     C   17007 17006
 $$$FCHAR1T
               3 00002287 00000001     C   17009 17008
 $$$FCHAR10
               2 000022F8 00000001     H   17102 17092
 $$$FCHAR10C
               3 000022FE 00000001     C   17106 17105
 $$$FCHAR10T
               1 00002302 00000001     C   17108 17107
1UTIL     (UTIL2025) (12:58) (15MAR04) Ordinary Symbol and Literal Cross Reference                                          Page   81
 $$$FCHAR100
               2 00002888 00000001     H   18092 18082
 $$$FCHAR100C
               4 0000288E 00000001     C   18096 18095
 $$$FCHAR100T
               5 00002893 00000001     C   18098 18097
 $$$FCHAR101
               2 00002898 00000001     H   18103 18093
 $$$FCHAR101C
               3 0000289E 00000001     C   18107 18106
 $$$FCHAR101T
               1 000028A2 00000001     C   18109 18108
 $$$FCHAR102
               2 000028A4 00000001     H   18114 18104
 $$$FCHAR102C
               3 000028AA 00000001     C   18118 18117
 $$$FCHAR102T
               1 000028AE 00000001     C   18120 18119
 $$$FCHAR103
               2 000028B0 00000001     H   18125 18115
 $$$FCHAR103C
               3 000028B6 00000001     C   18129 18128
 $$$FCHAR103T
               1 000028BA 00000001     C   18131 18130
 $$$FCHAR104
               2 000028BC 00000001     H   18136 18126
 $$$FCHAR104C
               3 000028C2 00000001     C   18140 18139
 $$$FCHAR104T
               1 000028C6 00000001     C   18142 18141
 $$$FCHAR105
               2 000028C8 00000001     H   18147 18137
 $$$FCHAR105C
               3 000028CE 00000001     C   18151 18150
 $$$FCHAR105T
               1 000028D2 00000001     C   18153 18152
 $$$FCHAR106
               2 000028D4 00000001     H   18158 18148
 $$$FCHAR106C
               3 000028DA 00000001     C   18162 18161
 $$$FCHAR106T
               1 000028DE 00000001     C   18164 18163
 $$$FCHAR107
               2 000028E0 00000001     H   18169 18159
 $$$FCHAR107C
               6 000028E6 00000001     C   18173 18172
 $$$FCHAR107T
               7 000028ED 00000001     C   18175 18174
 $$$FCHAR108
               2 000028F4 00000001     H   18180 18170
 $$$FCHAR108C
               3 000028FA 00000001     C   18184 18183
 $$$FCHAR108T
               2 000028FE 00000001     C   18186 18185
 $$$FCHAR109
               2 00002900 00000001     H   18191 18181
 $$$FCHAR109C
               3 00002906 00000001     C   18195 18194
 $$$FCHAR109T
1UTIL     (UTIL2025) (12:58) (15MAR04) Ordinary Symbol and Literal Cross Reference                                          Page   82
               1 0000290A 00000001     C   18197 18196
 $$$FCHAR11
               2 00002304 00000001     H   17113 17103
 $$$FCHAR11C
               3 0000230A 00000001     C   17117 17116
 $$$FCHAR11T
               1 0000230E 00000001     C   17119 17118
 $$$FCHAR110
               2 0000290C 00000001     H   18202 18192
 $$$FCHAR110C
               6 00002912 00000001     C   18206 18205
 $$$FCHAR110T
               7 00002919 00000001     C   18208 18207
 $$$FCHAR111
               2 00002920 00000001     H   18213 18203
 $$$FCHAR111C
               3 00002926 00000001     C   18217 18216
 $$$FCHAR111T
               1 0000292A 00000001     C   18219 18218
 $$$FCHAR112
               2 0000292C 00000001     H   18224 18214
 $$$FCHAR112C
               3 00002932 00000001     C   18228 18227
 $$$FCHAR112T
               1 00002936 00000001     C   18230 18229
 $$$FCHAR113
               2 00002938 00000001     H   18235 18225
 $$$FCHAR113C
               3 0000293E 00000001     C   18239 18238
 $$$FCHAR113T
               1 00002942 00000001     C   18241 18240
 $$$FCHAR114
               2 00002944 00000001     H   18246 18236
 $$$FCHAR114C
               3 0000294A 00000001     C   18250 18249
 $$$FCHAR114T
               1 0000294E 00000001     C   18252 18251
 $$$FCHAR115
               2 00002950 00000001     H   18257 18247
 $$$FCHAR115C
               3 00002956 00000001     C   18261 18260
 $$$FCHAR115T
               1 0000295A 00000001     C   18263 18262
 $$$FCHAR116
               2 0000295C 00000001     H   18268 18258
 $$$FCHAR116C
               3 00002962 00000001     C   18272 18271
 $$$FCHAR116T
               1 00002966 00000001     C   18274 18273
 $$$FCHAR117
               2 00002968 00000001     H   18279 18269
 $$$FCHAR117C
               3 0000296E 00000001     C   18283 18282
 $$$FCHAR117T
               1 00002972 00000001     C   18285 18284
 $$$FCHAR118
               2 00002974 00000001     H   18290 18280
 $$$FCHAR118C
               3 0000297A 00000001     C   18294 18293
1UTIL     (UTIL2025) (12:58) (15MAR04) Ordinary Symbol and Literal Cross Reference                                          Page   83
 $$$FCHAR118T
               1 0000297E 00000001     C   18296 18295
 $$$FCHAR119
               2 00002980 00000001     H   18301 18291
 $$$FCHAR119C
               3 00002986 00000001     C   18305 18304
 $$$FCHAR119T
               1 0000298A 00000001     C   18307 18306
 $$$FCHAR12
               2 00002310 00000001     H   17124 17114
 $$$FCHAR12C
               3 00002316 00000001     C   17128 17127
 $$$FCHAR12T
               1 0000231A 00000001     C   17130 17129
 $$$FCHAR120
               2 0000298C 00000001     H   18312 18302
 $$$FCHAR120C
               3 00002992 00000001     C   18316 18315
 $$$FCHAR120T
               1 00002996 00000001     C   18318 18317
 $$$FCHAR121
               2 00002998 00000001     H   18323 18313
 $$$FCHAR121C
               3 0000299E 00000001     C   18327 18326
 $$$FCHAR121T
               1 000029A2 00000001     C   18329 18328
 $$$FCHAR122
               2 000029A4 00000001     H   18334 18324
 $$$FCHAR122C
               3 000029AA 00000001     C   18338 18337
 $$$FCHAR122T
               1 000029AE 00000001     C   18340 18339
 $$$FCHAR123
               2 000029B0 00000001     H   18345 18335
 $$$FCHAR123C
               3 000029B6 00000001     C   18349 18348
 $$$FCHAR123T
               1 000029BA 00000001     C   18351 18350
 $$$FCHAR124
               2 000029BC 00000001     H   18356 18346
 $$$FCHAR124C
               3 000029C2 00000001     C   18360 18359
 $$$FCHAR124T
               1 000029C6 00000001     C   18362 18361
 $$$FCHAR125
               2 000029C8 00000001     H   18367 18357
 $$$FCHAR125C
               3 000029CE 00000001     C   18371 18370
 $$$FCHAR125T
               1 000029D2 00000001     C   18373 18372
 $$$FCHAR126
               2 000029D4 00000001     H   18378 18368
 $$$FCHAR126C
               6 000029DA 00000001     C   18382 18381
 $$$FCHAR126T
               7 000029E1 00000001     C   18384 18383
 $$$FCHAR127
               2 000029E8 00000001     H   18389 18379
 $$$FCHAR127C
1UTIL     (UTIL2025) (12:58) (15MAR04) Ordinary Symbol and Literal Cross Reference                                          Page   84
               3 000029EE 00000001     C   18393 18392
 $$$FCHAR127T
               2 000029F2 00000001     C   18395 18394
 $$$FCHAR128
               2 000029F4 00000001     H   18400 18390
 $$$FCHAR128C
               3 000029FA 00000001     C   18404 18403
 $$$FCHAR128T
               4 000029FE 00000001     C   18406 18405
 $$$FCHAR129
               2 00002A04 00000001     H   18411 18401
 $$$FCHAR129C
               6 00002A0A 00000001     C   18415 18414
 $$$FCHAR129T
               7 00002A11 00000001     C   18417 18416
 $$$FCHAR13
               2 0000231C 00000001     H   17135 17125
 $$$FCHAR13C
               3 00002322 00000001     C   17139 17138
 $$$FCHAR13T
               1 00002326 00000001     C   17141 17140
 $$$FCHAR130
               2 00002A18 00000001     H   18422 18412
 $$$FCHAR130C
               3 00002A1E 00000001     C   18426 18425
 $$$FCHAR130T
               1 00002A22 00000001     C   18428 18427
 $$$FCHAR131
               2 00002A24 00000001     H   18433 18423
 $$$FCHAR131C
               3 00002A2A 00000001     C   18437 18436
 $$$FCHAR131T
               1 00002A2E 00000001     C   18439 18438
 $$$FCHAR132
               2 00002A30 00000001     H   18444 18434
 $$$FCHAR132C
               3 00002A36 00000001     C   18448 18447
 $$$FCHAR132T
               1 00002A3A 00000001     C   18450 18449
 $$$FCHAR133
               2 00002A3C 00000001     H   18455 18445
 $$$FCHAR133C
               3 00002A42 00000001     C   18459 18458
 $$$FCHAR133T
               1 00002A46 00000001     C   18461 18460
 $$$FCHAR134
               2 00002A48 00000001     H   18466 18456
 $$$FCHAR134C
               3 00002A4E 00000001     C   18470 18469
 $$$FCHAR134T
               1 00002A52 00000001     C   18472 18471
 $$$FCHAR135
               2 00002A54 00000001     H   18477 18467
 $$$FCHAR135C
               4 00002A5A 00000001     C   18481 18480
 $$$FCHAR135T
               3 00002A5F 00000001     C   18483 18482
 $$$FCHAR136
               2 00002A64 00000001     H   18488 18478
1UTIL     (UTIL2025) (12:58) (15MAR04) Ordinary Symbol and Literal Cross Reference                                          Page   85
 $$$FCHAR136C
               4 00002A6A 00000001     C   18492 18491
 $$$FCHAR136T
               3 00002A6F 00000001     C   18494 18493
 $$$FCHAR137
               1 00000000 00000001 A   U   18498 18489
 $$$FCHAR14
               2 00002328 00000001     H   17146 17136
 $$$FCHAR14C
               3 0000232E 00000001     C   17150 17149
 $$$FCHAR14T
               1 00002332 00000001     C   17152 17151
 $$$FCHAR15
               2 00002334 00000001     H   17157 17147
 $$$FCHAR15C
               3 0000233A 00000001     C   17161 17160
 $$$FCHAR15T
               1 0000233E 00000001     C   17163 17162
 $$$FCHAR16
               2 00002340 00000001     H   17168 17158
 $$$FCHAR16C
               3 00002346 00000001     C   17172 17171
 $$$FCHAR16T
               2 0000234A 00000001     C   17174 17173
 $$$FCHAR17
               2 0000234C 00000001     H   17179 17169
 $$$FCHAR17C
               3 00002352 00000001     C   17183 17182
 $$$FCHAR17T
               1 00002356 00000001     C   17185 17184
 $$$FCHAR18
               2 00002358 00000001     H   17190 17180
 $$$FCHAR18C
               6 0000235E 00000001     C   17194 17193
 $$$FCHAR18T
               1 00002365 00000001     C   17196 17195
 $$$FCHAR19
               2 00002368 00000001     H   17201 17191
 $$$FCHAR19C
               6 0000236E 00000001     C   17205 17204
 $$$FCHAR19T
               2 00002375 00000001     C   17207 17206
 $$$FCHAR2
               2 0000228C 00000001     H   17014 17004
 $$$FCHAR2C
               3 00002292 00000001     C   17018 17017
 $$$FCHAR2T
               3 00002296 00000001     C   17020 17019
 $$$FCHAR20
               2 00002378 00000001     H   17212 17202
 $$$FCHAR20C
               7 0000237E 00000001     C   17216 17215
 $$$FCHAR20T
               1 00002386 00000001     C   17218 17217
 $$$FCHAR21
               2 00002388 00000001     H   17223 17213
 $$$FCHAR21C
               6 0000238E 00000001     C   17227 17226
 $$$FCHAR21T
1UTIL     (UTIL2025) (12:58) (15MAR04) Ordinary Symbol and Literal Cross Reference                                          Page   86
               7 00002395 00000001     C   17229 17228
 $$$FCHAR22
               2 0000239C 00000001     H   17234 17224
 $$$FCHAR22C
               7 000023A2 00000001     C   17238 17237
 $$$FCHAR22T
               1 000023AA 00000001     C   17240 17239
 $$$FCHAR23
               2 000023AC 00000001     H   17245 17235
 $$$FCHAR23C
               3 000023B2 00000001     C   17249 17248
 $$$FCHAR23T
               1 000023B6 00000001     C   17251 17250
 $$$FCHAR24
               2 000023B8 00000001     H   17256 17246
 $$$FCHAR24C
               6 000023BE 00000001     C   17260 17259
 $$$FCHAR24T
               7 000023C5 00000001     C   17262 17261
 $$$FCHAR25
               2 000023CC 00000001     H   17267 17257
 $$$FCHAR25C
               8 000023D2 00000001     C   17271 17270
 $$$FCHAR25T
               1 000023DB 00000001     C   17273 17272
 $$$FCHAR26
               2 000023DC 00000001     H   17278 17268
 $$$FCHAR26C
               5 000023E2 00000001     C   17282 17281
 $$$FCHAR26T
               6 000023E8 00000001     C   17284 17283
 $$$FCHAR27
               2 000023F0 00000001     H   17289 17279
 $$$FCHAR27C
              10 000023F6 00000001     C   17293 17292
 $$$FCHAR27T
               3 00002401 00000001     C   17295 17294
 $$$FCHAR28
               2 00002404 00000001     H   17300 17290
 $$$FCHAR28C
               3 0000240A 00000001     C   17304 17303
 $$$FCHAR28T
               4 0000240E 00000001     C   17306 17305
 $$$FCHAR29
               2 00002414 00000001     H   17311 17301
 $$$FCHAR29C
               8 0000241A 00000001     C   17315 17314
 $$$FCHAR29T
               9 00002423 00000001     C   17317 17316
 $$$FCHAR3
               2 0000229C 00000001     H   17025 17015
 $$$FCHAR3C
               3 000022A2 00000001     C   17029 17028
 $$$FCHAR3T
               1 000022A6 00000001     C   17031 17030
 $$$FCHAR30
               2 0000242C 00000001     H   17322 17312
 $$$FCHAR30C
               9 00002432 00000001     C   17326 17325
1UTIL     (UTIL2025) (12:58) (15MAR04) Ordinary Symbol and Literal Cross Reference                                          Page   87
 $$$FCHAR30T
              10 0000243C 00000001     C   17328 17327
 $$$FCHAR31
               2 00002448 00000001     H   17333 17323
 $$$FCHAR31C
               7 0000244E 00000001     C   17337 17336
 $$$FCHAR31T
               8 00002456 00000001     C   17339 17338
 $$$FCHAR32
               2 00002460 00000001     H   17344 17334
 $$$FCHAR32C
              11 00002466 00000001     C   17348 17347
 $$$FCHAR32T
              12 00002472 00000001     C   17350 17349
 $$$FCHAR33
               2 00002480 00000001     H   17355 17345
 $$$FCHAR33C
               4 00002486 00000001     C   17359 17358
 $$$FCHAR33T
               8 0000248B 00000001     C   17361 17360
 $$$FCHAR34
               2 00002494 00000001     H   17366 17356
 $$$FCHAR34C
               4 0000249A 00000001     C   17370 17369
 $$$FCHAR34T
               1 0000249F 00000001     C   17372 17371
 $$$FCHAR35
               2 000024A0 00000001     H   17377 17367
 $$$FCHAR35C
               4 000024A6 00000001     C   17381 17380
 $$$FCHAR35T
               5 000024AB 00000001     C   17383 17382
 $$$FCHAR36
               2 000024B0 00000001     H   17388 17378
 $$$FCHAR36C
              10 000024B6 00000001     C   17392 17391
 $$$FCHAR36T
               1 000024C1 00000001     C   17394 17393
 $$$FCHAR37
               2 000024C4 00000001     H   17399 17389
 $$$FCHAR37C
               3 000024CA 00000001     C   17403 17402
 $$$FCHAR37T
               1 000024CE 00000001     C   17405 17404
 $$$FCHAR38
               2 000024D0 00000001     H   17410 17400
 $$$FCHAR38C
               3 000024D6 00000001     C   17414 17413
 $$$FCHAR38T
               1 000024DA 00000001     C   17416 17415
 $$$FCHAR39
               2 000024DC 00000001     H   17421 17411
 $$$FCHAR39C
               3 000024E2 00000001     C   17425 17424
 $$$FCHAR39T
               1 000024E6 00000001     C   17427 17426
 $$$FCHAR4
               2 000022A8 00000001     H   17036 17026
 $$$FCHAR4C
1UTIL     (UTIL2025) (12:58) (15MAR04) Ordinary Symbol and Literal Cross Reference                                          Page   88
               3 000022AE 00000001     C   17040 17039
 $$$FCHAR4T
               2 000022B2 00000001     C   17042 17041
 $$$FCHAR40
               2 000024E8 00000001     H   17432 17422
 $$$FCHAR40C
               3 000024EE 00000001     C   17436 17435
 $$$FCHAR40T
               1 000024F2 00000001     C   17438 17437
 $$$FCHAR41
               2 000024F4 00000001     H   17443 17433
 $$$FCHAR41C
               8 000024FA 00000001     C   17447 17446
 $$$FCHAR41T
               2 00002503 00000001     C   17449 17448
 $$$FCHAR42
               2 00002508 00000001     H   17454 17444
 $$$FCHAR42C
               8 0000250E 00000001     C   17458 17457
 $$$FCHAR42T
               1 00002517 00000001     C   17460 17459
 $$$FCHAR43
               2 00002518 00000001     H   17465 17455
 $$$FCHAR43C
               2 0000251E 00000001     C   17469 17468
 $$$FCHAR43T
               1 00002521 00000001     C   17471 17470
 $$$FCHAR44
               2 00002524 00000001     H   17476 17466
 $$$FCHAR44C
               3 0000252A 00000001     C   17480 17479
 $$$FCHAR44T
               4 0000252E 00000001     C   17482 17481
 $$$FCHAR45
               2 00002534 00000001     H   17487 17477
 $$$FCHAR45C
               3 0000253A 00000001     C   17491 17490
 $$$FCHAR45T
               2 0000253E 00000001     C   17493 17492
 $$$FCHAR46
               2 00002540 00000001     H   17498 17488
 $$$FCHAR46C
               3 00002546 00000001     C   17502 17501
 $$$FCHAR46T
               2 0000254A 00000001     C   17504 17503
 $$$FCHAR47
               2 0000254C 00000001     H   17509 17499
 $$$FCHAR47C
               9 00002552 00000001     C   17513 17512
 $$$FCHAR47T
               1 0000255C 00000001     C   17515 17514
 $$$FCHAR48
               2 00002560 00000001     H   17520 17510
 $$$FCHAR48C
               3 00002566 00000001     C   17524 17523
 $$$FCHAR48T
               2 0000256A 00000001     C   17526 17525
 $$$FCHAR49
               2 0000256C 00000001     H   17531 17521
1UTIL     (UTIL2025) (12:58) (15MAR04) Ordinary Symbol and Literal Cross Reference                                          Page   89
 $$$FCHAR49C
               9 00002572 00000001     C   17535 17534
 $$$FCHAR49T
               2 0000257C 00000001     C   17537 17536
 $$$FCHAR5
               2 000022B4 00000001     H   17047 17037
 $$$FCHAR5C
               2 000022BA 00000001     C   17051 17050
 $$$FCHAR5T
               1 000022BD 00000001     C   17053 17052
 $$$FCHAR50
               2 00002580 00000001     H   17542 17532
 $$$FCHAR50C
               3 00002586 00000001     C   17546 17545
 $$$FCHAR50T
               4 0000258A 00000001     C   17548 17547
 $$$FCHAR51
               2 00002590 00000001     H   17553 17543
 $$$FCHAR51C
               3 00002596 00000001     C   17557 17556
 $$$FCHAR51T
               1 0000259A 00000001     C   17559 17558
 $$$FCHAR52
               2 0000259C 00000001     H   17564 17554
 $$$FCHAR52C
               3 000025A2 00000001     C   17568 17567
 $$$FCHAR52T
               1 000025A6 00000001     C   17570 17569
 $$$FCHAR53
               2 000025A8 00000001     H   17575 17565
 $$$FCHAR53C
               3 000025AE 00000001     C   17579 17578
 $$$FCHAR53T
               1 000025B2 00000001     C   17581 17580
 $$$FCHAR54
               2 000025B4 00000001     H   17586 17576
 $$$FCHAR54C
               3 000025BA 00000001     C   17590 17589
 $$$FCHAR54T
               1 000025BE 00000001     C   17592 17591
 $$$FCHAR55
               2 000025C0 00000001     H   17597 17587
 $$$FCHAR55C
               9 000025C6 00000001     C   17601 17600
 $$$FCHAR55T
              10 000025D0 00000001     C   17603 17602
 $$$FCHAR56
               2 000025DC 00000001     H   17608 17598
 $$$FCHAR56C
               9 000025E2 00000001     C   17612 17611
 $$$FCHAR56T
              10 000025EC 00000001     C   17614 17613
 $$$FCHAR57
               2 000025F8 00000001     H   17619 17609
 $$$FCHAR57C
               3 000025FE 00000001     C   17623 17622
 $$$FCHAR57T
               1 00002602 00000001     C   17625 17624
 $$$FCHAR58
1UTIL     (UTIL2025) (12:58) (15MAR04) Ordinary Symbol and Literal Cross Reference                                          Page   90
               2 00002604 00000001     H   17630 17620
 $$$FCHAR58C
               7 0000260A 00000001     C   17634 17633
 $$$FCHAR58T
               1 00002612 00000001     C   17636 17635
 $$$FCHAR59
               2 00002614 00000001     H   17641 17631
 $$$FCHAR59C
               3 0000261A 00000001     C   17645 17644
 $$$FCHAR59T
               1 0000261E 00000001     C   17647 17646
 $$$FCHAR6
               2 000022C0 00000001     H   17058 17048
 $$$FCHAR6C
               3 000022C6 00000001     C   17062 17061
 $$$FCHAR6T
               2 000022CA 00000001     C   17064 17063
 $$$FCHAR60
               2 00002620 00000001     H   17652 17642
 $$$FCHAR60C
               7 00002626 00000001     C   17656 17655
 $$$FCHAR60T
               2 0000262E 00000001     C   17658 17657
 $$$FCHAR61
               2 00002630 00000001     H   17663 17653
 $$$FCHAR61C
               3 00002636 00000001     C   17667 17666
 $$$FCHAR61T
               2 0000263A 00000001     C   17669 17668
 $$$FCHAR62
               2 0000263C 00000001     H   17674 17664
 $$$FCHAR62C
               3 00002642 00000001     C   17678 17677
 $$$FCHAR62T
               4 00002646 00000001     C   17680 17679
 $$$FCHAR63
               2 0000264C 00000001     H   17685 17675
 $$$FCHAR63C
               8 00002652 00000001     C   17689 17688
 $$$FCHAR63T
               2 0000265B 00000001     C   17691 17690
 $$$FCHAR64
               2 00002660 00000001     H   17696 17686
 $$$FCHAR64C
               7 00002666 00000001     C   17700 17699
 $$$FCHAR64T
               1 0000266E 00000001     C   17702 17701
 $$$FCHAR65
               2 00002670 00000001     H   17707 17697
 $$$FCHAR65C
               3 00002676 00000001     C   17711 17710
 $$$FCHAR65T
               4 0000267A 00000001     C   17713 17712
 $$$FCHAR66
               2 00002680 00000001     H   17718 17708
 $$$FCHAR66C
               3 00002686 00000001     C   17722 17721
 $$$FCHAR66T
               1 0000268A 00000001     C   17724 17723
1UTIL     (UTIL2025) (12:58) (15MAR04) Ordinary Symbol and Literal Cross Reference                                          Page   91
 $$$FCHAR67
               2 0000268C 00000001     H   17729 17719
 $$$FCHAR67C
               3 00002692 00000001     C   17733 17732
 $$$FCHAR67T
               4 00002696 00000001     C   17735 17734
 $$$FCHAR68
               2 0000269C 00000001     H   17740 17730
 $$$FCHAR68C
               4 000026A2 00000001     C   17744 17743
 $$$FCHAR68T
               1 000026A7 00000001     C   17746 17745
 $$$FCHAR69
               2 000026A8 00000001     H   17751 17741
 $$$FCHAR69C
               3 000026AE 00000001     C   17755 17754
 $$$FCHAR69T
               1 000026B2 00000001     C   17757 17756
 $$$FCHAR7
               2 000022CC 00000001     H   17069 17059
 $$$FCHAR7C
               3 000022D2 00000001     C   17073 17072
 $$$FCHAR7T
              10 000022D6 00000001     C   17075 17074
 $$$FCHAR70
               2 000026B4 00000001     H   17762 17752
 $$$FCHAR70C
               3 000026BA 00000001     C   17766 17765
 $$$FCHAR70T
               1 000026BE 00000001     C   17768 17767
 $$$FCHAR71
               2 000026C0 00000001     H   17773 17763
 $$$FCHAR71C
               3 000026C6 00000001     C   17777 17776
 $$$FCHAR71T
               1 000026CA 00000001     C   17779 17778
 $$$FCHAR72
               2 000026CC 00000001     H   17784 17774
 $$$FCHAR72C
               3 000026D2 00000001     C   17788 17787
 $$$FCHAR72T
               1 000026D6 00000001     C   17790 17789
 $$$FCHAR73
               2 000026D8 00000001     H   17795 17785
 $$$FCHAR73C
               3 000026DE 00000001     C   17799 17798
 $$$FCHAR73T
               1 000026E2 00000001     C   17801 17800
 $$$FCHAR74
               2 000026E4 00000001     H   17806 17796
 $$$FCHAR74C
               3 000026EA 00000001     C   17810 17809
 $$$FCHAR74T
               1 000026EE 00000001     C   17812 17811
 $$$FCHAR75
               2 000026F0 00000001     H   17817 17807
 $$$FCHAR75C
               3 000026F6 00000001     C   17821 17820
 $$$FCHAR75T
1UTIL     (UTIL2025) (12:58) (15MAR04) Ordinary Symbol and Literal Cross Reference                                          Page   92
               1 000026FA 00000001     C   17823 17822
 $$$FCHAR76
               2 000026FC 00000001     H   17828 17818
 $$$FCHAR76C
               3 00002702 00000001     C   17832 17831
 $$$FCHAR76T
               2 00002706 00000001     C   17834 17833
 $$$FCHAR77
               2 00002708 00000001     H   17839 17829
 $$$FCHAR77C
               7 0000270E 00000001     C   17843 17842
 $$$FCHAR77T
               1 00002716 00000001     C   17845 17844
 $$$FCHAR78
               2 00002718 00000001     H   17850 17840
 $$$FCHAR78C
               5 0000271E 00000001     C   17854 17853
 $$$FCHAR78T
              11 00002724 00000001     C   17856 17855
 $$$FCHAR79
               2 00002730 00000001     H   17861 17851
 $$$FCHAR79C
               3 00002736 00000001     C   17865 17864
 $$$FCHAR79T
               4 0000273A 00000001     C   17867 17866
 $$$FCHAR8
               2 000022E0 00000001     H   17080 17070
 $$$FCHAR8C
               3 000022E6 00000001     C   17084 17083
 $$$FCHAR8T
               1 000022EA 00000001     C   17086 17085
 $$$FCHAR80
               2 00002740 00000001     H   17872 17862
 $$$FCHAR80C
               3 00002746 00000001     C   17876 17875
 $$$FCHAR80T
               1 0000274A 00000001     C   17878 17877
 $$$FCHAR81
               2 0000274C 00000001     H   17883 17873
 $$$FCHAR81C
               7 00002752 00000001     C   17887 17886
 $$$FCHAR81T
               1 0000275A 00000001     C   17889 17888
 $$$FCHAR82
               2 0000275C 00000001     H   17894 17884
 $$$FCHAR82C
               3 00002762 00000001     C   17898 17897
 $$$FCHAR82T
               1 00002766 00000001     C   17900 17899
 $$$FCHAR83
               2 00002768 00000001     H   17905 17895
 $$$FCHAR83C
               7 0000276E 00000001     C   17909 17908
 $$$FCHAR83T
               2 00002776 00000001     C   17911 17910
 $$$FCHAR84
               2 00002778 00000001     H   17916 17906
 $$$FCHAR84C
               8 0000277E 00000001     C   17920 17919
1UTIL     (UTIL2025) (12:58) (15MAR04) Ordinary Symbol and Literal Cross Reference                                          Page   93
 $$$FCHAR84T
               9 00002787 00000001     C   17922 17921
 $$$FCHAR85
               2 00002790 00000001     H   17927 17917
 $$$FCHAR85C
               8 00002796 00000001     C   17931 17930
 $$$FCHAR85T
               3 0000279F 00000001     C   17933 17932
 $$$FCHAR86
               2 000027A4 00000001     H   17938 17928
 $$$FCHAR86C
               5 000027AA 00000001     C   17942 17941
 $$$FCHAR86T
               6 000027B0 00000001     C   17944 17943
 $$$FCHAR87
               2 000027B8 00000001     H   17949 17939
 $$$FCHAR87C
               8 000027BE 00000001     C   17953 17952
 $$$FCHAR87T
               9 000027C7 00000001     C   17955 17954
 $$$FCHAR88
               2 000027D0 00000001     H   17960 17950
 $$$FCHAR88C
              10 000027D6 00000001     C   17964 17963
 $$$FCHAR88T
               1 000027E1 00000001     C   17966 17965
 $$$FCHAR89
               2 000027E4 00000001     H   17971 17961
 $$$FCHAR89C
               3 000027EA 00000001     C   17975 17974
 $$$FCHAR89T
               1 000027EE 00000001     C   17977 17976
 $$$FCHAR9
               2 000022EC 00000001     H   17091 17081
 $$$FCHAR9C
               2 000022F2 00000001     C   17095 17094
 $$$FCHAR9T
               1 000022F5 00000001     C   17097 17096
 $$$FCHAR90
               2 000027F0 00000001     H   17982 17972
 $$$FCHAR90C
               3 000027F6 00000001     C   17986 17985
 $$$FCHAR90T
               2 000027FA 00000001     C   17988 17987
 $$$FCHAR91
               2 000027FC 00000001     H   17993 17983
 $$$FCHAR91C
               3 00002802 00000001     C   17997 17996
 $$$FCHAR91T
               4 00002806 00000001     C   17999 17998
 $$$FCHAR92
               2 0000280C 00000001     H   18004 17994
 $$$FCHAR92C
               3 00002812 00000001     C   18008 18007
 $$$FCHAR92T
               1 00002816 00000001     C   18010 18009
 $$$FCHAR93
               2 00002818 00000001     H   18015 18005
 $$$FCHAR93C
1UTIL     (UTIL2025) (12:58) (15MAR04) Ordinary Symbol and Literal Cross Reference                                          Page   94
               3 0000281E 00000001     C   18019 18018
 $$$FCHAR93T
               1 00002822 00000001     C   18021 18020
 $$$FCHAR94
               2 00002824 00000001     H   18026 18016
 $$$FCHAR94C
               3 0000282A 00000001     C   18030 18029
 $$$FCHAR94T
               1 0000282E 00000001     C   18032 18031
 $$$FCHAR95
               2 00002830 00000001     H   18037 18027
 $$$FCHAR95C
               3 00002836 00000001     C   18041 18040
 $$$FCHAR95T
               1 0000283A 00000001     C   18043 18042
 $$$FCHAR96
               2 0000283C 00000001     H   18048 18038
 $$$FCHAR96C
               8 00002842 00000001     C   18052 18051
 $$$FCHAR96T
               9 0000284B 00000001     C   18054 18053
 $$$FCHAR97
               2 00002854 00000001     H   18059 18049
 $$$FCHAR97C
               7 0000285A 00000001     C   18063 18062
 $$$FCHAR97T
               8 00002862 00000001     C   18065 18064
 $$$FCHAR98
               2 0000286C 00000001     H   18070 18060
 $$$FCHAR98C
               3 00002872 00000001     C   18074 18073
 $$$FCHAR98T
               4 00002876 00000001     C   18076 18075
 $$$FCHAR99
               2 0000287C 00000001     H   18081 18071
 $$$FCHAR99C
               3 00002882 00000001     C   18085 18084
 $$$FCHAR99T
               1 00002886 00000001     C   18087 18086
 $$$RCHARWA
               1 00000000 FFFFFFE0     J   18510 18523  18523
 $$$RCP        1 00000000 FFFFFFEC     J    2452  4712   6186   6186
 $$$RCV        1 00000000 FFFFFFEE     J    1177  2362   2362
 $$$RCVEXWA
               1 00000000 FFFFFFE7     J    9881  9894   9894
 $$$RDEV       1 00000000 FFFFFFEB     J    4666  4711   4711
 $$$RDTABWA
               1 00000000 FFFFFFE6     J   10132 10248  10248
 $$$RESCWA
               1 00000000 FFFFFFDE     J   19602 19615  19615
 $$$RFCHAR
               1 00000000 FFFFFFE3     J   15193 15244  15244
 $$$RFMTWA
               1 00000000 FFFFFFE5     J   10746 10862  10862
 $$$RHEXWA
               1 00000000 FFFFFFDF     J   18764 18777  18777
 $$$RHXDWA
               1 00000000 FFFFFFDD     J   20139 20188  20188
 $$$RJCB       1 00000000 FFFFFFE9     J    6336  6610   6610
1UTIL     (UTIL2025) (12:58) (15MAR04) Ordinary Symbol and Literal Cross Reference                                          Page   95
 $$$RNSCNCB
               1 00000000 FFFFFFED     J    2373  2446   2446
 $$$RTFMTWA
               1 00000000 FFFFFFE2     J   15311 15426  15426
 $$$RTTOKWA
               1 00000000 FFFFFFE1     J   16173 16199  16199
 $$$RTTYPE
               1 00000000 FFFFFFEA     J    6197  6298   6298
 $$$RUFMTWA
               1 00000000 FFFFFFE4     J   11439 11555  11555
 $$$RYESWA
               1 00000000 FFFFFFE8     J    7506  7539   7539
 $$$SEGCB0
               4 00000050 FFFFFFEC     F    2483  2569   2569
 $$$SEGCB161
               4 00000010 FFFFFFE6     F   10154 10240  10240
 $$$SEGCB184
               4 00000010 FFFFFFE5     F   10768 10854  10854
 $$$SEGCB208
               4 00000078 FFFFFFE4     F   11461 11547  11547
 $$$SEGCB264
               4 00000074 FFFFFFE2     F   15332 15418  15418
 $$$TEXT4653T
               8 00001488 00000001     D   13282 13284  13290  13296  13302  13308  13314  13320  13326  13332  13338
                                                 13344  13350  13356  13362  13368  13374  13380  13386  13392  13398
                                                 13404  13410  13416  13422  13428  13434  13440  13446  13452  13458
                                                 13464  13470  13476
 $$$TEXT4653T1
               1 00000001 00000001 A   U   13284 13026
 $$$TEXT4653T1T
               3 0000148B 00000001     C   13288 13285
 $$$TEXT4653T12
               1 00000006 00000001 A   U   13314 13037
 $$$TEXT4653T12T
               3 000014B3 00000001     C   13318 13315
 $$$TEXT4653T13
               1 00000007 00000001 A   U   13320 13038
 $$$TEXT4653T13T
               3 000014BB 00000001     C   13324 13321
 $$$TEXT4653T14
               1 00000008 00000001 A   U   13326 13039
 $$$TEXT4653T14T
               3 000014C3 00000001     C   13330 13327
 $$$TEXT4653T15
               1 00000009 00000001 A   U   13332 13040
 $$$TEXT4653T15T
               3 000014CB 00000001     C   13336 13333
 $$$TEXT4653T16
               1 0000000A 00000001 A   U   13338 13041
 $$$TEXT4653T16T
               3 000014D3 00000001     C   13342 13339
 $$$TEXT4653T17
               1 0000000B 00000001 A   U   13344 13042
 $$$TEXT4653T17T
               3 000014DB 00000001     C   13348 13345
 $$$TEXT4653T18
               1 0000000C 00000001 A   U   13350 13043
 $$$TEXT4653T18T
               3 000014E3 00000001     C   13354 13351
1UTIL     (UTIL2025) (12:58) (15MAR04) Ordinary Symbol and Literal Cross Reference                                          Page   96
 $$$TEXT4653T19
               1 0000000D 00000001 A   U   13356 13044
 $$$TEXT4653T19T
               3 000014EB 00000001     C   13360 13357
 $$$TEXT4653T2
               1 00000002 00000001 A   U   13290 13027
 $$$TEXT4653T2T
               3 00001493 00000001     C   13294 13291
 $$$TEXT4653T20
               1 0000000E 00000001 A   U   13362 13045
 $$$TEXT4653T20T
               3 000014F3 00000001     C   13366 13363
 $$$TEXT4653T23
               1 0000000F 00000001 A   U   13368 13048
 $$$TEXT4653T23T
               3 000014FB 00000001     C   13372 13369
 $$$TEXT4653T25
               1 00000010 00000001 A   U   13374 13050
 $$$TEXT4653T25T
               3 00001503 00000001     C   13378 13375
 $$$TEXT4653T26
               1 00000011 00000001 A   U   13380 13051
 $$$TEXT4653T26T
               3 0000150B 00000001     C   13384 13381
 $$$TEXT4653T29
               1 00000012 00000001 A   U   13386 13054
 $$$TEXT4653T29T
               3 00001513 00000001     C   13390 13387
 $$$TEXT4653T3
               1 00000003 00000001 A   U   13296 13028
 $$$TEXT4653T3T
               3 0000149B 00000001     C   13300 13297
 $$$TEXT4653T30
               1 00000013 00000001 A   U   13392 13055
 $$$TEXT4653T30T
               3 0000151B 00000001     C   13396 13393
 $$$TEXT4653T31
               1 00000014 00000001 A   U   13398 13056
 $$$TEXT4653T31T
               3 00001523 00000001     C   13402 13399
 $$$TEXT4653T32
               1 00000015 00000001 A   U   13404 13057
 $$$TEXT4653T32T
               3 0000152B 00000001     C   13408 13405
 $$$TEXT4653T38
               1 00000016 00000001 A   U   13410 13063
 $$$TEXT4653T38T
               3 00001533 00000001     C   13414 13411
 $$$TEXT4653T39
               1 00000017 00000001 A   U   13416 13064
 $$$TEXT4653T39T
               3 0000153B 00000001     C   13420 13417
 $$$TEXT4653T4
               1 00000004 00000001 A   U   13302 13029
 $$$TEXT4653T4T
               3 000014A3 00000001     C   13306 13303
 $$$TEXT4653T40
               1 00000018 00000001 A   U   13422 13065
 $$$TEXT4653T40T
1UTIL     (UTIL2025) (12:58) (15MAR04) Ordinary Symbol and Literal Cross Reference                                          Page   97
               3 00001543 00000001     C   13426 13423
 $$$TEXT4653T46
               1 00000019 00000001 A   U   13428 13071
 $$$TEXT4653T46T
               3 0000154B 00000001     C   13432 13429
 $$$TEXT4653T47
               1 0000001A 00000001 A   U   13434 13072
 $$$TEXT4653T47T
               3 00001553 00000001     C   13438 13435
 $$$TEXT4653T48
               1 0000001B 00000001 A   U   13440 13073
 $$$TEXT4653T48T
               3 0000155B 00000001     C   13444 13441
 $$$TEXT4653T51
               1 0000001C 00000001 A   U   13446 13076
 $$$TEXT4653T51T
               3 00001563 00000001     C   13450 13447
 $$$TEXT4653T56
               1 0000001D 00000001 A   U   13452 13081
 $$$TEXT4653T56T
               3 0000156B 00000001     C   13456 13453
 $$$TEXT4653T61
               1 0000001E 00000001 A   U   13458 13086
 $$$TEXT4653T61T
               3 00001573 00000001     C   13462 13459
 $$$TEXT4653T62
               1 0000001F 00000001 A   U   13464 13087
 $$$TEXT4653T62T
               3 0000157B 00000001     C   13468 13465
 $$$TEXT4653T64
               1 00000020 00000001 A   U   13470 13089
 $$$TEXT4653T64T
               3 00001583 00000001     C   13474 13471
 $$$TEXT4653T8
               1 00000005 00000001 A   U   13308 13033
 $$$TEXT4653T8T
               4 000014AB 00000001     C   13312 13309
 $$$TEXT4814T
               8 00001688 00000001     D   14224 14226  14232  14238  14244  14250  14256  14262  14268  14274  14280
                                                 14286  14292  14298  14304  14310  14316  14322  14328  14334  14340
                                                 14346  14352  14358  14364  14370  14376  14382  14388  14394  14400
                                                 14406  14412  14418  14424  14430  14436  14442  14448  14454  14460
                                                 14466  14472  14478  14484  14490  14496  14502  14508  14514  14520
                                                 14526  14532  14538  14544  14550  14556  14562  14568  14574  14580
                                                 14586  14592  14598  14604  14610  14616  14622  14628  14634  14640
                                                 14646  14652  14658  14664  14670  14676  14682  14688  14694  14700
                                                 14706  14712  14718  14724  14730  14736  14742  14748  14754  14760
                                                 14766  14772  14778  14784  14790  14796  14802  14808  14814  14820
                                                 14826  14832  14838  14844  14850  14856  14862  14868  14874  14880
                                                 14886  14892  14898  14904  14910  14916  14922  14928  14934  14940
                                                 14946  14952  14958  14964  14970  14976  14982  14988  14994  15000
                                                 15006  15012  15018  15024  15030  15036  15042  15048  15054  15060
                                                 15066  15072  15078  15084  15090  15096  15102  15108  15114  15120
                                                 15126  15132  15138  15144  15150  15156  15162  15168  15174  15180
                                                 15186
 $$$TEXT4814T1
               1 00000001 00000001 A   U   14226 13968
 $$$TEXT4814T1T
               3 0000168B 00000001     C   14230 14227
1UTIL     (UTIL2025) (12:58) (15MAR04) Ordinary Symbol and Literal Cross Reference                                          Page   98
 $$$TEXT4814T10
               1 00000009 00000001 A   U   14274 13977
 $$$TEXT4814T10T
               3 000016CB 00000001     C   14278 14275
 $$$TEXT4814T100
               1 0000005A 00000001 A   U   14718 14067
 $$$TEXT4814T100T
               3 00001953 00000001     C   14722 14719
 $$$TEXT4814T101
               1 0000005B 00000001 A   U   14724 14068
 $$$TEXT4814T101T
               3 0000195B 00000001     C   14728 14725
 $$$TEXT4814T102
               1 0000005C 00000001 A   U   14730 14069
 $$$TEXT4814T102T
               4 00001963 00000001     C   14734 14731
 $$$TEXT4814T103
               1 0000005D 00000001 A   U   14736 14070
 $$$TEXT4814T103T
               3 0000196B 00000001     C   14740 14737
 $$$TEXT4814T104
               1 0000005E 00000001 A   U   14742 14071
 $$$TEXT4814T104T
               8 00001973 00000001     C   14746 14743
 $$$TEXT4814T105
               1 00000060 00000001 A   U   14748 14072
 $$$TEXT4814T105T
               3 00001983 00000001     C   14752 14749
 $$$TEXT4814T106
               1 00000061 00000001 A   U   14754 14073
 $$$TEXT4814T106T
               3 0000198B 00000001     C   14758 14755
 $$$TEXT4814T107
               1 00000062 00000001 A   U   14760 14074
 $$$TEXT4814T107T
               3 00001993 00000001     C   14764 14761
 $$$TEXT4814T11
               1 0000000A 00000001 A   U   14280 13978
 $$$TEXT4814T11T
               3 000016D3 00000001     C   14284 14281
 $$$TEXT4814T113
               1 00000063 00000001 A   U   14766 14080
 $$$TEXT4814T113T
               3 0000199B 00000001     C   14770 14767
 $$$TEXT4814T114
               1 00000064 00000001 A   U   14772 14081
 $$$TEXT4814T114T
               3 000019A3 00000001     C   14776 14773
 $$$TEXT4814T115
               1 00000065 00000001 A   U   14778 14082
 $$$TEXT4814T115T
               3 000019AB 00000001     C   14782 14779
 $$$TEXT4814T116
               1 00000066 00000001 A   U   14784 14083
 $$$TEXT4814T116T
               3 000019B3 00000001     C   14788 14785
 $$$TEXT4814T117
               1 00000067 00000001 A   U   14790 14084
 $$$TEXT4814T117T
1UTIL     (UTIL2025) (12:58) (15MAR04) Ordinary Symbol and Literal Cross Reference                                          Page   99
               6 000019BB 00000001     C   14794 14791
 $$$TEXT4814T118
               1 00000069 00000001 A   U   14796 14085
 $$$TEXT4814T118T
               3 000019CB 00000001     C   14800 14797
 $$$TEXT4814T119
               1 0000006A 00000001 A   U   14802 14086
 $$$TEXT4814T119T
               6 000019D3 00000001     C   14806 14803
 $$$TEXT4814T12
               1 0000000B 00000001 A   U   14286 13979
 $$$TEXT4814T12T
               3 000016DB 00000001     C   14290 14287
 $$$TEXT4814T120
               1 0000006C 00000001 A   U   14808 14087
 $$$TEXT4814T120T
               3 000019E3 00000001     C   14812 14809
 $$$TEXT4814T121
               1 0000006D 00000001 A   U   14814 14088
 $$$TEXT4814T121T
               3 000019EB 00000001     C   14818 14815
 $$$TEXT4814T129
               1 0000006E 00000001 A   U   14820 14096
 $$$TEXT4814T129T
               8 000019F3 00000001     C   14824 14821
 $$$TEXT4814T13
               1 0000000C 00000001 A   U   14292 13980
 $$$TEXT4814T13T
               3 000016E3 00000001     C   14296 14293
 $$$TEXT4814T139
               1 00000070 00000001 A   U   14826 14106
 $$$TEXT4814T139T
              11 00001A03 00000001     C   14830 14827
 $$$TEXT4814T14
               1 0000000D 00000001 A   U   14298 13981
 $$$TEXT4814T14T
               3 000016EB 00000001     C   14302 14299
 $$$TEXT4814T140
               1 00000072 00000001 A   U   14832 14107
 $$$TEXT4814T140T
               7 00001A13 00000001     C   14836 14833
 $$$TEXT4814T141
               1 00000074 00000001 A   U   14838 14108
 $$$TEXT4814T141T
               3 00001A23 00000001     C   14842 14839
 $$$TEXT4814T142
               1 00000075 00000001 A   U   14844 14109
 $$$TEXT4814T142T
               3 00001A2B 00000001     C   14848 14845
 $$$TEXT4814T143
               1 00000076 00000001 A   U   14850 14110
 $$$TEXT4814T143T
               3 00001A33 00000001     C   14854 14851
 $$$TEXT4814T144
               1 00000077 00000001 A   U   14856 14111
 $$$TEXT4814T144T
               3 00001A3B 00000001     C   14860 14857
 $$$TEXT4814T145
               1 00000078 00000001 A   U   14862 14112
1UTIL     (UTIL2025) (12:58) (15MAR04) Ordinary Symbol and Literal Cross Reference                                          Page  100
 $$$TEXT4814T145T
               3 00001A43 00000001     C   14866 14863
 $$$TEXT4814T15
               1 0000000E 00000001 A   U   14304 13982
 $$$TEXT4814T15T
               3 000016F3 00000001     C   14308 14305
 $$$TEXT4814T155
               1 00000079 00000001 A   U   14868 14122
 $$$TEXT4814T155T
               3 00001A4B 00000001     C   14872 14869
 $$$TEXT4814T156
               1 0000007A 00000001 A   U   14874 14123
 $$$TEXT4814T156T
               3 00001A53 00000001     C   14878 14875
 $$$TEXT4814T157
               1 0000007B 00000001 A   U   14880 14124
 $$$TEXT4814T157T
               6 00001A5B 00000001     C   14884 14881
 $$$TEXT4814T158
               1 0000007D 00000001 A   U   14886 14125
 $$$TEXT4814T158T
               3 00001A6B 00000001     C   14890 14887
 $$$TEXT4814T159
               1 0000007E 00000001 A   U   14892 14126
 $$$TEXT4814T159T
               2 00001A73 00000001     C   14896 14893
 $$$TEXT4814T16
               1 0000000F 00000001 A   U   14310 13983
 $$$TEXT4814T16T
               3 000016FB 00000001     C   14314 14311
 $$$TEXT4814T160
               1 0000007F 00000001 A   U   14898 14127
 $$$TEXT4814T160T
               7 00001A7B 00000001     C   14902 14899
 $$$TEXT4814T161
               1 00000081 00000001 A   U   14904 14128
 $$$TEXT4814T161T
               3 00001A8B 00000001     C   14908 14905
 $$$TEXT4814T162
               1 00000082 00000001 A   U   14910 14129
 $$$TEXT4814T162T
               6 00001A93 00000001     C   14914 14911
 $$$TEXT4814T17
               1 00000010 00000001 A   U   14316 13984
 $$$TEXT4814T17T
               3 00001703 00000001     C   14320 14317
 $$$TEXT4814T171
               1 00000084 00000001 A   U   14916 14138
 $$$TEXT4814T171T
               3 00001AA3 00000001     C   14920 14917
 $$$TEXT4814T172
               1 00000085 00000001 A   U   14922 14139
 $$$TEXT4814T172T
               3 00001AAB 00000001     C   14926 14923
 $$$TEXT4814T173
               1 00000086 00000001 A   U   14928 14140
 $$$TEXT4814T173T
               3 00001AB3 00000001     C   14932 14929
 $$$TEXT4814T175
1UTIL     (UTIL2025) (12:58) (15MAR04) Ordinary Symbol and Literal Cross Reference                                          Page  101
               1 00000087 00000001 A   U   14934 14142
 $$$TEXT4814T175T
               3 00001ABB 00000001     C   14938 14935
 $$$TEXT4814T176
               1 00000088 00000001 A   U   14940 14143
 $$$TEXT4814T176T
               6 00001AC3 00000001     C   14944 14941
 $$$TEXT4814T177
               1 0000008A 00000001 A   U   14946 14144
 $$$TEXT4814T177T
               3 00001AD3 00000001     C   14950 14947
 $$$TEXT4814T178
               1 0000008B 00000001 A   U   14952 14145
 $$$TEXT4814T178T
               3 00001ADB 00000001     C   14956 14953
 $$$TEXT4814T179
               1 0000008C 00000001 A   U   14958 14146
 $$$TEXT4814T179T
               4 00001AE3 00000001     C   14962 14959
 $$$TEXT4814T18
               1 00000011 00000001 A   U   14322 13985
 $$$TEXT4814T18T
               3 0000170B 00000001     C   14326 14323
 $$$TEXT4814T180
               1 0000008D 00000001 A   U   14964 14147
 $$$TEXT4814T180T
               8 00001AEB 00000001     C   14968 14965
 $$$TEXT4814T181
               1 0000008F 00000001 A   U   14970 14148
 $$$TEXT4814T181T
               2 00001AFB 00000001     C   14974 14971
 $$$TEXT4814T182
               1 00000090 00000001 A   U   14976 14149
 $$$TEXT4814T182T
               3 00001B03 00000001     C   14980 14977
 $$$TEXT4814T183
               1 00000091 00000001 A   U   14982 14150
 $$$TEXT4814T183T
               6 00001B0B 00000001     C   14986 14983
 $$$TEXT4814T184
               1 00000093 00000001 A   U   14988 14151
 $$$TEXT4814T184T
               7 00001B1B 00000001     C   14992 14989
 $$$TEXT4814T185
               1 00000095 00000001 A   U   14994 14152
 $$$TEXT4814T185T
               7 00001B2B 00000001     C   14998 14995
 $$$TEXT4814T186
               1 00000097 00000001 A   U   15000 14153
 $$$TEXT4814T186T
               4 00001B3B 00000001     C   15004 15001
 $$$TEXT4814T187
               1 00000098 00000001 A   U   15006 14154
 $$$TEXT4814T187T
               9 00001B43 00000001     C   15010 15007
 $$$TEXT4814T188
               1 0000009A 00000001 A   U   15012 14155
 $$$TEXT4814T188T
               3 00001B53 00000001     C   15016 15013
1UTIL     (UTIL2025) (12:58) (15MAR04) Ordinary Symbol and Literal Cross Reference                                          Page  102
 $$$TEXT4814T189
               1 0000009B 00000001 A   U   15018 14156
 $$$TEXT4814T189T
               7 00001B5B 00000001     C   15022 15019
 $$$TEXT4814T19
               1 00000012 00000001 A   U   14328 13986
 $$$TEXT4814T19T
               3 00001713 00000001     C   14332 14329
 $$$TEXT4814T191
               1 0000009D 00000001 A   U   15024 14158
 $$$TEXT4814T191T
               3 00001B6B 00000001     C   15028 15025
 $$$TEXT4814T192
               1 0000009E 00000001 A   U   15030 14159
 $$$TEXT4814T192T
               7 00001B73 00000001     C   15034 15031
 $$$TEXT4814T2
               1 00000002 00000001 A   U   14232 13969
 $$$TEXT4814T2T
               3 00001693 00000001     C   14236 14233
 $$$TEXT4814T20
               1 00000013 00000001 A   U   14334 13987
 $$$TEXT4814T20T
               3 0000171B 00000001     C   14338 14335
 $$$TEXT4814T203
               1 000000A0 00000001 A   U   15036 14170
 $$$TEXT4814T203T
               9 00001B83 00000001     C   15040 15037
 $$$TEXT4814T204
               1 000000A2 00000001 A   U   15042 14171
 $$$TEXT4814T204T
               9 00001B93 00000001     C   15046 15043
 $$$TEXT4814T205
               1 000000A4 00000001 A   U   15048 14172
 $$$TEXT4814T205T
               7 00001BA3 00000001     C   15052 15049
 $$$TEXT4814T206
               1 000000A6 00000001 A   U   15054 14173
 $$$TEXT4814T206T
               6 00001BB3 00000001     C   15058 15055
 $$$TEXT4814T207
               1 000000A8 00000001 A   U   15060 14174
 $$$TEXT4814T207T
               9 00001BC3 00000001     C   15064 15061
 $$$TEXT4814T208
               1 000000AA 00000001 A   U   15066 14175
 $$$TEXT4814T208T
               3 00001BD3 00000001     C   15070 15067
 $$$TEXT4814T21
               1 00000014 00000001 A   U   14340 13988
 $$$TEXT4814T21T
               3 00001723 00000001     C   14344 14341
 $$$TEXT4814T219
               1 000000AB 00000001 A   U   15072 14186
 $$$TEXT4814T219T
               7 00001BDB 00000001     C   15076 15073
 $$$TEXT4814T22
               1 00000015 00000001 A   U   14346 13989
 $$$TEXT4814T22T
1UTIL     (UTIL2025) (12:58) (15MAR04) Ordinary Symbol and Literal Cross Reference                                          Page  103
               3 0000172B 00000001     C   14350 14347
 $$$TEXT4814T220
               1 000000AD 00000001 A   U   15078 14187
 $$$TEXT4814T220T
               3 00001BEB 00000001     C   15082 15079
 $$$TEXT4814T221
               1 000000AE 00000001 A   U   15084 14188
 $$$TEXT4814T221T
               4 00001BF3 00000001     C   15088 15085
 $$$TEXT4814T222
               1 000000AF 00000001 A   U   15090 14189
 $$$TEXT4814T222T
               5 00001BFB 00000001     C   15094 15091
 $$$TEXT4814T223
               1 000000B0 00000001 A   U   15096 14190
 $$$TEXT4814T223T
               3 00001C03 00000001     C   15100 15097
 $$$TEXT4814T224
               1 000000B1 00000001 A   U   15102 14191
 $$$TEXT4814T224T
               3 00001C0B 00000001     C   15106 15103
 $$$TEXT4814T226
               1 000000B2 00000001 A   U   15108 14193
 $$$TEXT4814T226T
              10 00001C13 00000001     C   15112 15109
 $$$TEXT4814T23
               1 00000016 00000001 A   U   14352 13990
 $$$TEXT4814T23T
               3 00001733 00000001     C   14356 14353
 $$$TEXT4814T235
               1 000000B4 00000001 A   U   15114 14202
 $$$TEXT4814T235T
               3 00001C23 00000001     C   15118 15115
 $$$TEXT4814T236
               1 000000B5 00000001 A   U   15120 14203
 $$$TEXT4814T236T
              10 00001C2B 00000001     C   15124 15121
 $$$TEXT4814T237
               1 000000B7 00000001 A   U   15126 14204
 $$$TEXT4814T237T
               3 00001C3B 00000001     C   15130 15127
 $$$TEXT4814T238
               1 000000B8 00000001 A   U   15132 14205
 $$$TEXT4814T238T
               3 00001C43 00000001     C   15136 15133
 $$$TEXT4814T239
               1 000000B9 00000001 A   U   15138 14206
 $$$TEXT4814T239T
               2 00001C4B 00000001     C   15142 15139
 $$$TEXT4814T24
               1 00000017 00000001 A   U   14358 13991
 $$$TEXT4814T24T
               3 0000173B 00000001     C   14362 14359
 $$$TEXT4814T240
               1 000000BA 00000001 A   U   15144 14207
 $$$TEXT4814T240T
               3 00001C53 00000001     C   15148 15145
 $$$TEXT4814T25
               1 00000018 00000001 A   U   14364 13992
1UTIL     (UTIL2025) (12:58) (15MAR04) Ordinary Symbol and Literal Cross Reference                                          Page  104
 $$$TEXT4814T25T
               3 00001743 00000001     C   14368 14365
 $$$TEXT4814T251
               1 000000BB 00000001 A   U   15150 14218
 $$$TEXT4814T251T
               3 00001C5B 00000001     C   15154 15151
 $$$TEXT4814T252
               1 000000BC 00000001 A   U   15156 14219
 $$$TEXT4814T252T
               3 00001C63 00000001     C   15160 15157
 $$$TEXT4814T253
               1 000000BD 00000001 A   U   15162 14220
 $$$TEXT4814T253T
               8 00001C6B 00000001     C   15166 15163
 $$$TEXT4814T254
               1 000000BF 00000001 A   U   15168 14221
 $$$TEXT4814T254T
               9 00001C7B 00000001     C   15172 15169
 $$$TEXT4814T255
               1 000000C1 00000001 A   U   15174 14222
 $$$TEXT4814T255T
               2 00001C8B 00000001     C   15178 15175
 $$$TEXT4814T256
               1 000000C2 00000001 A   U   15180 14223
 $$$TEXT4814T256T
               6 00001C93 00000001     C   15184 15181
 $$$TEXT4814T26
               1 00000019 00000001 A   U   14370 13993
 $$$TEXT4814T26T
               3 0000174B 00000001     C   14374 14371
 $$$TEXT4814T27
               1 0000001A 00000001 A   U   14376 13994
 $$$TEXT4814T27T
               3 00001753 00000001     C   14380 14377
 $$$TEXT4814T28
               1 0000001B 00000001 A   U   14382 13995
 $$$TEXT4814T28T
               3 0000175B 00000001     C   14386 14383
 $$$TEXT4814T29
               1 0000001C 00000001 A   U   14388 13996
 $$$TEXT4814T29T
               3 00001763 00000001     C   14392 14389
 $$$TEXT4814T3
               1 00000003 00000001 A   U   14238 13970
 $$$TEXT4814T3T
               3 0000169B 00000001     C   14242 14239
 $$$TEXT4814T30
               1 0000001D 00000001 A   U   14394 13997
 $$$TEXT4814T30T
               3 0000176B 00000001     C   14398 14395
 $$$TEXT4814T31
               1 0000001E 00000001 A   U   14400 13998
 $$$TEXT4814T31T
               3 00001773 00000001     C   14404 14401
 $$$TEXT4814T32
               1 0000001F 00000001 A   U   14406 13999
 $$$TEXT4814T32T
               3 0000177B 00000001     C   14410 14407
 $$$TEXT4814T33
1UTIL     (UTIL2025) (12:58) (15MAR04) Ordinary Symbol and Literal Cross Reference                                          Page  105
               1 00000020 00000001 A   U   14412 14000
 $$$TEXT4814T33T
               3 00001783 00000001     C   14416 14413
 $$$TEXT4814T34
               1 00000021 00000001 A   U   14418 14001
 $$$TEXT4814T34T
               3 0000178B 00000001     C   14422 14419
 $$$TEXT4814T35
               1 00000022 00000001 A   U   14424 14002
 $$$TEXT4814T35T
               3 00001793 00000001     C   14428 14425
 $$$TEXT4814T36
               1 00000023 00000001 A   U   14430 14003
 $$$TEXT4814T36T
               3 0000179B 00000001     C   14434 14431
 $$$TEXT4814T37
               1 00000024 00000001 A   U   14436 14004
 $$$TEXT4814T37T
               3 000017A3 00000001     C   14440 14437
 $$$TEXT4814T38
               1 00000025 00000001 A   U   14442 14005
 $$$TEXT4814T38T
               3 000017AB 00000001     C   14446 14443
 $$$TEXT4814T39
               1 00000026 00000001 A   U   14448 14006
 $$$TEXT4814T39T
               3 000017B3 00000001     C   14452 14449
 $$$TEXT4814T4
               1 00000004 00000001 A   U   14244 13971
 $$$TEXT4814T4T
               3 000016A3 00000001     C   14248 14245
 $$$TEXT4814T40
               1 00000027 00000001 A   U   14454 14007
 $$$TEXT4814T40T
               3 000017BB 00000001     C   14458 14455
 $$$TEXT4814T41
               1 00000028 00000001 A   U   14460 14008
 $$$TEXT4814T41T
               3 000017C3 00000001     C   14464 14461
 $$$TEXT4814T42
               1 00000029 00000001 A   U   14466 14009
 $$$TEXT4814T42T
               3 000017CB 00000001     C   14470 14467
 $$$TEXT4814T43
               1 0000002A 00000001 A   U   14472 14010
 $$$TEXT4814T43T
               3 000017D3 00000001     C   14476 14473
 $$$TEXT4814T44
               1 0000002B 00000001 A   U   14478 14011
 $$$TEXT4814T44T
               3 000017DB 00000001     C   14482 14479
 $$$TEXT4814T45
               1 0000002C 00000001 A   U   14484 14012
 $$$TEXT4814T45T
               3 000017E3 00000001     C   14488 14485
 $$$TEXT4814T46
               1 0000002D 00000001 A   U   14490 14013
 $$$TEXT4814T46T
               3 000017EB 00000001     C   14494 14491
1UTIL     (UTIL2025) (12:58) (15MAR04) Ordinary Symbol and Literal Cross Reference                                          Page  106
 $$$TEXT4814T47
               1 0000002E 00000001 A   U   14496 14014
 $$$TEXT4814T47T
               3 000017F3 00000001     C   14500 14497
 $$$TEXT4814T48
               1 0000002F 00000001 A   U   14502 14015
 $$$TEXT4814T48T
               3 000017FB 00000001     C   14506 14503
 $$$TEXT4814T49
               1 00000030 00000001 A   U   14508 14016
 $$$TEXT4814T49T
               3 00001803 00000001     C   14512 14509
 $$$TEXT4814T5
               1 00000005 00000001 A   U   14250 13972
 $$$TEXT4814T5T
               3 000016AB 00000001     C   14254 14251
 $$$TEXT4814T50
               1 00000031 00000001 A   U   14514 14017
 $$$TEXT4814T50T
               3 0000180B 00000001     C   14518 14515
 $$$TEXT4814T51
               1 00000032 00000001 A   U   14520 14018
 $$$TEXT4814T51T
               3 00001813 00000001     C   14524 14521
 $$$TEXT4814T52
               1 00000033 00000001 A   U   14526 14019
 $$$TEXT4814T52T
               3 0000181B 00000001     C   14530 14527
 $$$TEXT4814T53
               1 00000034 00000001 A   U   14532 14020
 $$$TEXT4814T53T
               3 00001823 00000001     C   14536 14533
 $$$TEXT4814T54
               1 00000035 00000001 A   U   14538 14021
 $$$TEXT4814T54T
               3 0000182B 00000001     C   14542 14539
 $$$TEXT4814T55
               1 00000036 00000001 A   U   14544 14022
 $$$TEXT4814T55T
               3 00001833 00000001     C   14548 14545
 $$$TEXT4814T56
               1 00000037 00000001 A   U   14550 14023
 $$$TEXT4814T56T
               3 0000183B 00000001     C   14554 14551
 $$$TEXT4814T57
               1 00000038 00000001 A   U   14556 14024
 $$$TEXT4814T57T
               3 00001843 00000001     C   14560 14557
 $$$TEXT4814T58
               1 00000039 00000001 A   U   14562 14025
 $$$TEXT4814T58T
               3 0000184B 00000001     C   14566 14563
 $$$TEXT4814T59
               1 0000003A 00000001 A   U   14568 14026
 $$$TEXT4814T59T
               3 00001853 00000001     C   14572 14569
 $$$TEXT4814T60
               1 0000003B 00000001 A   U   14574 14027
 $$$TEXT4814T60T
1UTIL     (UTIL2025) (12:58) (15MAR04) Ordinary Symbol and Literal Cross Reference                                          Page  107
               3 0000185B 00000001     C   14578 14575
 $$$TEXT4814T61
               1 0000003C 00000001 A   U   14580 14028
 $$$TEXT4814T61T
               3 00001863 00000001     C   14584 14581
 $$$TEXT4814T62
               1 0000003D 00000001 A   U   14586 14029
 $$$TEXT4814T62T
               3 0000186B 00000001     C   14590 14587
 $$$TEXT4814T63
               1 0000003E 00000001 A   U   14592 14030
 $$$TEXT4814T63T
               3 00001873 00000001     C   14596 14593
 $$$TEXT4814T64
               1 0000003F 00000001 A   U   14598 14031
 $$$TEXT4814T64T
               3 0000187B 00000001     C   14602 14599
 $$$TEXT4814T66
               1 00000040 00000001 A   U   14604 14033
 $$$TEXT4814T66T
              10 00001883 00000001     C   14608 14605
 $$$TEXT4814T67
               1 00000042 00000001 A   U   14610 14034
 $$$TEXT4814T67T
               4 00001893 00000001     C   14614 14611
 $$$TEXT4814T68
               1 00000043 00000001 A   U   14616 14035
 $$$TEXT4814T68T
               5 0000189B 00000001     C   14620 14617
 $$$TEXT4814T69
               1 00000044 00000001 A   U   14622 14036
 $$$TEXT4814T69T
               8 000018A3 00000001     C   14626 14623
 $$$TEXT4814T7
               1 00000006 00000001 A   U   14256 13974
 $$$TEXT4814T7T
               3 000016B3 00000001     C   14260 14257
 $$$TEXT4814T70
               1 00000046 00000001 A   U   14628 14037
 $$$TEXT4814T70T
               8 000018B3 00000001     C   14632 14629
 $$$TEXT4814T71
               1 00000048 00000001 A   U   14634 14038
 $$$TEXT4814T71T
               7 000018C3 00000001     C   14638 14635
 $$$TEXT4814T72
               1 0000004A 00000001 A   U   14640 14039
 $$$TEXT4814T72T
               5 000018D3 00000001     C   14644 14641
 $$$TEXT4814T73
               1 0000004B 00000001 A   U   14646 14040
 $$$TEXT4814T73T
               3 000018DB 00000001     C   14650 14647
 $$$TEXT4814T74
               1 0000004C 00000001 A   U   14652 14041
 $$$TEXT4814T74T
               8 000018E3 00000001     C   14656 14653
 $$$TEXT4814T8
               1 00000007 00000001 A   U   14262 13975
1UTIL     (UTIL2025) (12:58) (15MAR04) Ordinary Symbol and Literal Cross Reference                                          Page  108
 $$$TEXT4814T8T
               4 000016BB 00000001     C   14266 14263
 $$$TEXT4814T82
               1 0000004E 00000001 A   U   14658 14049
 $$$TEXT4814T82T
               8 000018F3 00000001     C   14662 14659
 $$$TEXT4814T83
               1 00000050 00000001 A   U   14664 14050
 $$$TEXT4814T83T
               3 00001903 00000001     C   14668 14665
 $$$TEXT4814T84
               1 00000051 00000001 A   U   14670 14051
 $$$TEXT4814T84T
               3 0000190B 00000001     C   14674 14671
 $$$TEXT4814T85
               1 00000052 00000001 A   U   14676 14052
 $$$TEXT4814T85T
               3 00001913 00000001     C   14680 14677
 $$$TEXT4814T86
               1 00000053 00000001 A   U   14682 14053
 $$$TEXT4814T86T
               3 0000191B 00000001     C   14686 14683
 $$$TEXT4814T87
               1 00000054 00000001 A   U   14688 14054
 $$$TEXT4814T87T
               4 00001923 00000001     C   14692 14689
 $$$TEXT4814T88
               1 00000055 00000001 A   U   14694 14055
 $$$TEXT4814T88T
               8 0000192B 00000001     C   14698 14695
 $$$TEXT4814T89
               1 00000057 00000001 A   U   14700 14056
 $$$TEXT4814T89T
               3 0000193B 00000001     C   14704 14701
 $$$TEXT4814T9
               1 00000008 00000001 A   U   14268 13976
 $$$TEXT4814T9T
               3 000016C3 00000001     C   14272 14269
 $$$TEXT4814T90
               1 00000058 00000001 A   U   14706 14057
 $$$TEXT4814T90T
               3 00001943 00000001     C   14710 14707
 $$$TEXT4814T99
               1 00000059 00000001 A   U   14712 14066
 $$$TEXT4814T99T
               3 0000194B 00000001     C   14716 14713
 $$$101F       2 0000044A 00000001     H    8381  8350B
 $$$102F       2 00000446 00000001     H    8376  8365B
 $$$103F       2 0000045A 00000001     H    8402  8392B
 $$$104F       2 00000488 00000001     H    8458  8448B
 $$$108        1 00000050 00000001 A   U    8601  8598   8600
 $$$110B       1 000006C2 00000001     X    8796  8803U
 $$$111        1 00000050 00000001 A   U    8830  8827   8829
 $$$113B       1 000006EE 00000001     X    8857  8864U
 $$$114        1 00000050 00000001 A   U    8891  8888   8890
 $$$116B       1 0000071A 00000001     X    8918  8925U
 $$$117        1 00000050 00000001 A   U    8952  8949   8951
 $$$119B       1 00000746 00000001     X    8979  8986U
 $$$120        1 00000050 00000001 A   U    9013  9010   9012
1UTIL     (UTIL2025) (12:58) (15MAR04) Ordinary Symbol and Literal Cross Reference                                          Page  109
 $$$122B       1 00000772 00000001     X    9040  9047U
 $$$123        1 00000050 00000001 A   U    9074  9071   9073
 $$$125B       1 0000079E 00000001     X    9101  9108U
 $$$126        1 00000050 00000001 A   U    9135  9132   9134
 $$$128B       1 000007CA 00000001     X    9177  9184U
 $$$129B       4 000007D8 00000001     I    9205  9235
 $$$129F       2 000007EE 00000001     H    9231  9205B  9234
 $$$130E       2 000007F2 00000001     H    9242  9236
 $$$130F       2 00000808 00000001     H    9259  9238B
 $$$131        1 00000050 00000001 A   U    9278  9275   9277
 $$$133B       1 00000830 00000001     X    9321  9328U
 $$$134B       4 00000838 00000001     I    9351  9380
 $$$134F       2 00000844 00000001     H    9376  9351B  9379
 $$$136B       4 0000084C 00000001     I    9397  9413
 $$$136E       2 00000848 00000001     H    9387  9381
 $$$136F       2 00000852 00000001     H    9410  9383B  9397B  9412
 $$$139E       2 00000856 00000001     H    9420  9414
 $$$139F       2 0000087A 00000001     H    9476  9416B
 $$$140F       2 000008A2 00000001     H    9562  9528B
 $$$140T       2 00000894 00000001     H    9531  9517B
 $$$144F       2 000008B6 00000001     H    9608  9574B
 $$$145        1 00000050 00000001 A   U    9626  9623   9625
 $$$147B       1 000008DE 00000001     X    9657  9664U
 $$$148        1 00000050 00000001 A   U    9701  9698   9700
 $$$150B       1 00000918 00000001     X    9736  9743U
 $$$151        1 00000050 00000001 A   U    9789  9786   9788
 $$$153B       1 0000098E 00000001     X    9826  9833U
 $$$154        1 00000050 00000001 A   U    9869  9866   9868
 $$$156B       1 000009C4 00000001     X    9924  9931U
 $$$157F       2 00000A36 00000001     H    9999  9988B
 $$$158F       2 00000A4C 00000001     H   10039 10013B 10027B
 $$$160        1 00000060 00000001 A   U   10065 10062  10064
 $$$170B       1 00000B3A 00000001     X   10278 10285U
 $$$171F       2 00000B5C 00000001     H   10340 10322B
 $$$172F       2 00000B80 00000001     H   10391 10360B
 $$$173        6 00000E70 00000001     I   10380 10372X
 $$$174        6 00000E70 00000001     I   10379 10380  10380
 $$$175F       2 00000C10 00000001     H   10605 10433B
 $$$175S       2 00000B92 00000001     H   10427 10604B
 $$$177F       2 00000BA6 00000001     H   10457 10448B
 $$$178        6 00000E76 00000001     I   10471 10463X
 $$$179        6 00000E76 00000001     I   10470 10471  10471
 $$$180F       2 00000BC6 00000001     H   10518 10484B
 $$$181F       2 00000BF8 00000001     H   10573 10563B
 $$$182F       2 00000C2A 00000001     H   10635 10624B
 $$$183        1 0000086C 00000001 A   U   10684 10681  10683
 $$$193B       1 00000E96 00000001     X   10892 10899U
 $$$194F       2 00000EAC 00000001     H   10951 10935B
 $$$195F       2 00000EBC 00000001     H   10976 10966B
 $$$196F       2 00000EE0 00000001     H   11028 10997B
 $$$197        6 0000100A 00000001     I   11017 11009X
 $$$198        6 0000100A 00000001     I   11016 11017  11017
 $$$199F       2 00000F8E 00000001     H   11268 11071B
 $$$199S       2 00000EF2 00000001     H   11065 11267B
 $$$201F       2 00000F06 00000001     H   11095 11086B
 $$$202        6 00001010 00000001     I   11113 11105X
 $$$203        6 00001010 00000001     I   11112 11113  11113
 $$$204F       2 00000F28 00000001     H   11160 11126B
 $$$205F       2 00000FAC 00000001     H   11313 11287B
1UTIL     (UTIL2025) (12:58) (15MAR04) Ordinary Symbol and Literal Cross Reference                                          Page  110
 $$$206F       2 00000FBE 00000001     H   11340 11329B
 $$$207        1 0000086C 00000001 A   U   11391 11388  11390
 $$$217B       1 00001030 00000001     X   11585 11592U
 $$$218F       2 00001090 00000001     H   11760 11655B
 $$$218S       2 0000104E 00000001     H   11649 11759B
 $$$220F       2 00001062 00000001     H   11679 11670B
 $$$221        6 0000136A 00000001     I   11693 11685X
 $$$222        6 0000136A 00000001     I   11692 11693  11693
 $$$223B       4 0000106C 00000001     I   11706 11720
 $$$223F       2 00001074 00000001     H   11716 11706B 11719
 $$$224E       2 00001078 00000001     H   11727 11721
 $$$224F       2 0000108C 00000001     H   11755 11723B
 $$$226F       2 000011B2 00000001     H   12204 11806B
 $$$227F       2 000010BE 00000001     H   11830 11821B
 $$$228        6 00001370 00000001     I   11844 11836X
 $$$229        6 00001370 00000001     I   11843 11844  11844
 $$$230F       2 000010DE 00000001     H   11891 11857B
 $$$231F       2 0000110E 00000001     H   11971 11937B
 $$$232F       2 00001134 00000001     H   12024 11984B
 $$$233F       2 000011A0 00000001     H   12171 12042B
 $$$233S       2 00001138 00000001     H   12036 12170B
 $$$235F       2 00001168 00000001     H   12099 12058B
 $$$236F       2 00001196 00000001     H   12162 12125B
 $$$237F       2 000011CC 00000001     H   12234 12223B
 $$$238        1 000008D4 00000001 A   U   12288 12285  12287
 $$$240B       1 0000120A 00000001     X   12325 12332U
 $$$241F       2 00001220 00000001     H   12379 12370B
 $$$242F       2 00001232 00000001     H   12418 12394B
 $$$243        6 00001376 00000001     I   12408 12400X
 $$$244        6 00001376 00000001     I   12407 12408  12408
 $$$245F       2 000012D6 00000001     H   12680 12441B
 $$$245S       2 0000124A 00000001     H   12433 12679B
 $$$247F       2 00001266 00000001     H   12472 12463B
 $$$248F       2 00001278 00000001     H   12511 12487B
 $$$249        6 0000137C 00000001     I   12501 12493X
 $$$250        6 0000137C 00000001     I   12500 12501  12501
 $$$251B       4 00001286 00000001     I   12525 12559
 $$$251F       2 00001294 00000001     H   12554 12525B 12558
 $$$253B       4 0000129C 00000001     I   12573 12607
 $$$253E       2 00001298 00000001     H   12566 12560
 $$$253F       2 000012AA 00000001     H   12602 12562B 12573B 12606
 $$$256E       2 000012AE 00000001     H   12614 12608
 $$$256F       2 000012CA 00000001     H   12672 12610B 12621B
 $$$258F       2 000012CA 00000001     H   12668 12639B
 $$$260        1 00000050 00000001 A   U   12801 12798  12800
 $$$273B       1 00001CB4 00000001     X   15456 15463U
 $$$274F       2 00001D0C 00000001     H   15628 15523B
 $$$274S       2 00001CCA 00000001     H   15517 15627B
 $$$276F       2 00001CDE 00000001     H   15547 15538B
 $$$277        6 00002052 00000001     I   15561 15553X
 $$$278        6 00002052 00000001     I   15560 15561  15561
 $$$279B       4 00001CE8 00000001     I   15574 15588
 $$$279F       2 00001CF0 00000001     H   15584 15574B 15587
 $$$280E       2 00001CF4 00000001     H   15595 15589
 $$$280F       2 00001D08 00000001     H   15623 15591B
 $$$282F       2 00001E32 00000001     H   16073 15676B
 $$$282S       2 00001D26 00000001     H   15670 16072B
 $$$284F       2 00001D3A 00000001     H   15700 15691B
 $$$285        6 00002058 00000001     I   15714 15706X
1UTIL     (UTIL2025) (12:58) (15MAR04) Ordinary Symbol and Literal Cross Reference                                          Page  111
 $$$286        6 00002058 00000001     I   15713 15714  15714
 $$$287F       2 00001D5A 00000001     H   15761 15727B
 $$$288F       2 00001D8A 00000001     H   15841 15807B
 $$$289F       2 00001DB0 00000001     H   15894 15854B
 $$$290F       2 00001E1C 00000001     H   16041 15912B
 $$$290S       2 00001DB4 00000001     H   15906 16040B
 $$$292F       2 00001DE4 00000001     H   15969 15928B
 $$$293F       2 00001E12 00000001     H   16032 15995B
 $$$294F       2 00001E4C 00000001     H   16103 16092B
 $$$295        1 000008D0 00000001 A   U   16157 16154  16156
 $$$297B       1 00001E8A 00000001     X   16228 16235U
 $$$298F       2 00001EB0 00000001     H   16330 16294B 16312B
 $$$300F       2 00001EBC 00000001     H   16350 16341B
 $$$301F       2 00001ED0 00000001     H   16390 16366B
 $$$302        6 0000205E 00000001     I   16380 16372X
 $$$303        6 0000205E 00000001     I   16379 16380  16380
 $$$304F       2 00001F68 00000001     H   16670 16424B
 $$$304S       2 00001EE4 00000001     H   16418 16669B
 $$$306F       2 00001EFC 00000001     H   16454 16445B
 $$$307F       2 00001F0E 00000001     H   16493 16469B
 $$$308        6 00002064 00000001     I   16483 16475X
 $$$309        6 00002064 00000001     I   16482 16483  16483
 $$$310B       4 00001F1C 00000001     I   16512 16546
 $$$310F       2 00001F2A 00000001     H   16541 16512B 16545
 $$$312B       4 00001F32 00000001     I   16562 16596
 $$$312E       2 00001F2E 00000001     H   16553 16547
 $$$312F       2 00001F40 00000001     H   16591 16549B 16562B 16595
 $$$315E       2 00001F44 00000001     H   16603 16597
 $$$315F       2 00001F60 00000001     H   16663 16599B 16612B
 $$$317F       2 00001F60 00000001     H   16659 16630B
 $$$319F       2 00001FE2 00000001     H   16817 16747B
 $$$320        1 000000BC 00000001 A   U   16896 16893  16895
 $$$322B       1 00002A8E 00000001     X   18553 18560U
 $$$323F       2 00002AD4 00000001     H   18706 18592B
 $$$323S       2 00002A92 00000001     H   18586 18705B
 $$$325F       2 00002AA6 00000001     H   18616 18607B
 $$$326F       2 00002AB4 00000001     H   18655 18631B
 $$$327        6 0000343E 00000001     I   18645 18637X
 $$$328        6 0000343E 00000001     I   18644 18645  18645
 $$$329        6 00003444 00000001     I   18665 18657X
 $$$330        6 00003444 00000001     I   18664 18665  18665
 $$$331        1 00000090 00000001 A   U   18729 18726  18728
 $$$333B       1 00002BFC 00000001     X   18807 18814U
 $$$334F       2 00002CD0 00000001     H   19116 18849B
 $$$334S       2 00002C04 00000001     H   18843 19115B
 $$$336F       2 00002C64 00000001     H   18976 18887B
 $$$337F       2 00002C64 00000001     H   18972 18963B
 $$$337S       2 00002C26 00000001     H   18904 18971B
 $$$338F       2 00002C54 00000001     H   18945 18934B
 $$$341F       2 00002C76 00000001     H   18998 18989B
 $$$342F       2 00002CBA 00000001     H   19084 19016B
 $$$343        1 00000058 00000001 A   U   19166 19163  19165
 $$$345B       1 00002D04 00000001     X   19202 19209U
 $$$346F       2 00002DDC 00000001     H   19566 19232B
 $$$346S       2 00002D08 00000001     H   19226 19565B
 $$$348F       2 00002D24 00000001     H   19261 19252B
 $$$349F       2 00002D34 00000001     H   19299 19275B
 $$$350        6 0000344A 00000001     I   19289 19281X
 $$$351        6 0000344A 00000001     I   19288 19289  19289
1UTIL     (UTIL2025) (12:58) (15MAR04) Ordinary Symbol and Literal Cross Reference                                          Page  112
 $$$352F       2 00002DD8 00000001     H   19561 19338B
 $$$353F       2 00002DC6 00000001     H   19537 19398B
 $$$353S       2 00002D64 00000001     H   19366 19534B
 $$$355F       2 00002DC0 00000001     H   19517 19466B 19477B
 $$$359        1 00000050 00000001 A   U   19585 19582  19584
 $$$361B       1 00002E04 00000001     X   19645 19652U
 $$$362F       2 00002E2A 00000001     H   19721 19691B
 $$$362S       2 00002E0A 00000001     H   19685 19720B
 $$$364F       2 00002E22 00000001     H   19714 19704B
 $$$365F       2 00002EEC 00000001     H   20037 19740B
 $$$365S       2 00002E30 00000001     H   19734 20036B
 $$$367F       2 00002E44 00000001     H   19764 19755B
 $$$368F       2 00002E54 00000001     H   19802 19778B
 $$$369        6 00003450 00000001     I   19792 19784X
 $$$370        6 00003450 00000001     I   19791 19792  19792
 $$$371F       2 00002E6A 00000001     H   19830 19817B
 $$$372F       2 00002E8A 00000001     H   19892 19845B 19860B
 $$$374F       2 00002EE8 00000001     H   20032 19903B
 $$$375F       2 00002F0C 00000001     H   20100 20053B 20068B
 $$$377        1 00000150 00000001 A   U   20123 20120  20122
 $$$381B       1 00002F34 00000001     X   20218 20225U
 $$$382F       2 00002F56 00000001     H   20271 20261B
 $$$383F       2 00002F76 00000001     H   20334 20287B 20302B
 $$$385F       2 0000306C 00000001     H   20655 20347B
 $$$385S       2 00002F76 00000001     H   20341 20654B
 $$$387B       4 00002F88 00000001     I   20365 20400
 $$$387F       2 00002FA2 00000001     H   20397 20365B 20399
 $$$388E       2 00002FA6 00000001     H   20407 20401
 $$$388F       2 00002FB4 00000001     H   20434 20403B
 $$$389B       4 00002FBC 00000001     I   20447 20459
 $$$389F       2 00002FC4 00000001     H   20456 20447B 20458
 $$$390E       2 00002FC8 00000001     H   20466 20460
 $$$390F       2 00002FCC 00000001     H   20472 20462B
 $$$391F       2 00003056 00000001     H   20621 20496B 20507B
 $$$391S       2 00002FDC 00000001     H   20485 20620B
 $$$394B       4 0000301E 00000001     I   20532 20571
 $$$394F       2 00003032 00000001     H   20568 20532B 20570
 $$$395F       2 00003032 00000001     H   20564 20552B
 $$$396E       2 00003036 00000001     H   20578 20572
 $$$396F       2 00003044 00000001     H   20604 20574B
 $$$397F       2 00003044 00000001     H   20600 20588B
 $$$398        1 000000AC 00000001 A   U   20679 20676  20678
 $$$400B       1 00003194 00000001     X   20732 20739U
 $$$401F       2 000031DC 00000001     H   20800 20756B
 $$$402        6 00003456 00000001     I   20784 20776X
 $$$403        6 00003456 00000001     I   20783 20784  20784
 $$$404        1 00000050 00000001 A   U   20820 20817  20819
 $$$406B       1 00003208 00000001     X   20888 20895U
 $$$407F       2 0000323E 00000001     H   20987 20921B
 $$$408B       4 0000321E 00000001     I   20940 20953
 $$$408F       2 00003226 00000001     H   20949 20940B 20952
 $$$409E       2 0000322A 00000001     H   20960 20954
 $$$409F       2 00003238 00000001     H   20978 20956B 20968B
 $$$411F       2 00003272 00000001     H   21060 20999B
 $$$411S       2 0000323E 00000001     H   20993 21059B
 $$$413F       2 0000325C 00000001     H   21028 21018B
 $$$414F       2 00003268 00000001     H   21050 21041B
 $$$415        1 00000050 00000001 A   U   21080 21077  21079
 $$$417B       1 0000329A 00000001     X   21110 21117U
1UTIL     (UTIL2025) (12:58) (15MAR04) Ordinary Symbol and Literal Cross Reference                                          Page  113
 $$$418F       2 000032D2 00000001     H   21206 21145B
 $$$418S       2 0000329E 00000001     H   21139 21205B
 $$$420F       2 000032BC 00000001     H   21174 21164B
 $$$421F       2 000032C8 00000001     H   21196 21187B
 $$$422        1 00000050 00000001 A   U   21226 21223  21225
 $$$424B       1 00003476 00000001     X   21330 21337U
 $$$425        1 00000050 00000001 A   U   21446 21443  21445
 $$$427B       1 0000351E 00000001     X   21473 21480U
 $$$428F       2 00003534 00000001     H   21518 21505B
 $$$429F       2 00003542 00000001     H   21544 21531B
 $$$43B        1 00000032 00000001     X    6658  6665U
 $$$430F       2 00003556 00000001     H   21566 21556B
 $$$431F       2 00003574 00000001     H   21610 21597B
 $$$432F       2 00003580 00000001     H   21634 21621B
 $$$433        1 00000050 00000001 A   U   21656 21653  21655
 $$$435B       1 000035B2 00000001     X   21683 21690U
 $$$436        1 00000050 00000001 A   U   21736 21733  21735
 $$$438B       1 000035F0 00000001     X   21763 21770U
 $$$439        1 00000050 00000001 A   U   21816 21813  21815
 $$$44         1 00000050 00000001 A   U    6704  6701   6703
 $$$441B       1 0000362E 00000001     X   21843 21850U
 $$$442F       2 00003662 00000001     H   21924 21894B 21914B
 $$$444F       2 00003674 00000001     H   21951 21935B
 $$$445        1 00000050 00000001 A   U   21974 21971  21973
 $$$447B       1 0000380E 00000001     X   22125 22132U
 $$$448F       2 00003852 00000001     H   22247 22164B
 $$$449F       2 00003846 00000001     H   22218 22207B
 $$$450F       2 000038A6 00000001     H   22388 22266B
 $$$451F       2 0000387A 00000001     H   22309 22282B
 $$$452F       2 0000389A 00000001     H   22359 22348B
 $$$453F       2 000038D8 00000001     H   22486 22404B
 $$$454F       2 000038CE 00000001     H   22458 22447B
 $$$455        1 00000050 00000001 A   U   22505 22502  22504
 $$$457B       1 00003900 00000001     X   22544 22551U
 $$$458F       2 0000392A 00000001     H   22624 22573B
 $$$458S       2 00003904 00000001     H   22567 22623B
 $$$46B        1 0000006E 00000001     X    6746  6753U
 $$$460F       2 00003918 00000001     H   22597 22588B
 $$$461        6 00003C94 00000001     I   22610 22602X
 $$$462        6 00003C94 00000001     I   22609 22610  22610
 $$$463        1 00000050 00000001 A   U   22642 22639  22641
 $$$465B       1 00003952 00000001     X   22681 22688U
 $$$466F       2 0000397C 00000001     H   22761 22710B
 $$$466S       2 00003956 00000001     H   22704 22760B
 $$$468F       2 0000396A 00000001     H   22734 22725B
 $$$469        6 00003C9A 00000001     I   22747 22739X
 $$$47         1 00000050 00000001 A   U    6792  6789   6791
 $$$470        6 00003C9A 00000001     I   22746 22747  22747
 $$$471        1 00000050 00000001 A   U   22779 22776  22778
 $$$473B       1 000039A4 00000001     X   22818 22825U
 $$$474F       2 000039CE 00000001     H   22898 22847B
 $$$474S       2 000039A8 00000001     H   22841 22897B
 $$$476F       2 000039BC 00000001     H   22871 22862B
 $$$477        6 00003CA0 00000001     I   22884 22876X
 $$$478        6 00003CA0 00000001     I   22883 22884  22884
 $$$479        1 00000050 00000001 A   U   22916 22913  22915
 $$$481B       1 000039F6 00000001     X   22956 22963U
 $$$482F       2 00003A20 00000001     H   23036 22985B
 $$$482S       2 000039FA 00000001     H   22979 23035B
1UTIL     (UTIL2025) (12:58) (15MAR04) Ordinary Symbol and Literal Cross Reference                                          Page  114
 $$$484F       2 00003A0E 00000001     H   23009 23000B
 $$$485        6 00003CA6 00000001     I   23022 23014X
 $$$486        6 00003CA6 00000001     I   23021 23022  23022
 $$$487        1 00000050 00000001 A   U   23054 23051  23053
 $$$489B       1 00003A48 00000001     X   23093 23100U
 $$$49B        1 000000AA 00000001     X    6835  6842U
 $$$490F       2 00003A72 00000001     H   23173 23122B
 $$$490S       2 00003A4C 00000001     H   23116 23172B
 $$$492F       2 00003A60 00000001     H   23146 23137B
 $$$493        6 00003CAC 00000001     I   23159 23151X
 $$$494        6 00003CAC 00000001     I   23158 23159  23159
 $$$495        1 00000050 00000001 A   U   23191 23188  23190
 $$$497B       1 00003A9A 00000001     X   23223 23230U
 $$$498        1 00000050 00000001 A   U   23428 23425  23427
 $$$50B        4 000000AC 00000001     I    6860  7094
 $$$50F        2 00000138 00000001     H    7091  6860B  7093
 $$$500B       1 00003B50 00000001     X   23460 23467U
 $$$501        1 00000050 00000001 A   U   23665 23662  23664
 $$$51F        2 000000C8 00000001     H    6903  6878B  6891B
 $$$51S        2 000000B0 00000001     H    6870  6902B
 $$$54B        4 000000D2 00000001     I    6928  7071
 $$$54F        2 00000132 00000001     H    7066  6915B  6928B  7068
 $$$55B        4 000000CA 00000001     I    6915  7069
 $$$56F        2 000000FE 00000001     H    6997  6950B  6965B
 $$$58F        2 00000112 00000001     H    7019  7010B
 $$$59E        2 00000136 00000001     H    7078  7070   7072
 $$$59F        2 00000138 00000001     H    7087  7074B
 $$$60E        2 0000013C 00000001     H    7101  7095
 $$$60F        2 0000013E 00000001     H    7110  7097B
 $$$61         1 00000050 00000001 A   U    7128  7125   7127
 $$$63B        1 00000166 00000001     X    7172  7179U
 $$$64B        4 00000168 00000001     I    7197  7431
 $$$64F        2 000001F4 00000001     H    7428  7197B  7430
 $$$65F        2 00000184 00000001     H    7240  7215B  7228B
 $$$65S        2 0000016C 00000001     H    7207  7239B
 $$$68B        4 0000018E 00000001     I    7265  7408
 $$$68F        2 000001EE 00000001     H    7403  7252B  7265B  7405
 $$$69B        4 00000186 00000001     I    7252  7406
 $$$70F        2 000001BA 00000001     H    7334  7287B  7302B
 $$$72F        2 000001CE 00000001     H    7356  7347B
 $$$73E        2 000001F2 00000001     H    7415  7407   7409
 $$$73F        2 000001F4 00000001     H    7424  7411B
 $$$74E        2 000001F8 00000001     H    7438  7432
 $$$74F        2 000001FA 00000001     H    7447  7434B
 $$$75         1 00000050 00000001 A   U    7465  7462   7464
 $$$77B        1 00000222 00000001     X    7570  7577U
 $$$78         1 000000CC 00000001 A   U    7637  7634   7636
 $$$80B        1 00000260 00000001     X    7667  7674U
 $$$81         1 000000CC 00000001 A   U    7734  7731   7733
 $$$83B        1 0000029E 00000001     X    7764  7771U
 $$$84         1 000000CC 00000001 A   U    7837  7834   7836
 $$$86B        1 000002E0 00000001     X    7867  7874U
 $$$87         1 000000CC 00000001 A   U    7928  7925   7927
 $$$89B        1 0000031A 00000001     X    7955  7962U
 $$$90F        2 00000340 00000001     H    8042  8015B
 $$$91F        2 00000354 00000001     H    8066  8057B
 $$$92F        2 0000036E 00000001     H    8108  8084B
 $$$93         6 00000B1A 00000001     I    8098  8090X
 $$$94         6 00000B1A 00000001     I    8097  8098   8098
1UTIL     (UTIL2025) (12:58) (15MAR04) Ordinary Symbol and Literal Cross Reference                                          Page  115
 @RAR          0 00000000 FFFFFFF0     @    1132  2160   2168B
 @R0           0 00000000 FFFFFFFE     @     706   982U
 @R1           0 00000000 FFFFFFFD     @     719   978U  2166   2167   6890   6927   7227   7264   8097   9193  10012
                                                 10033  11211  11216  11226  11739  11749  12076  12107U 12407  15607
                                                 15617  15946  15977U 16309  16324  16379  16770  18913U 20926  21004
                                                 21150  22609M 22618  22746M 22755  22883M 22892  23021M 23030  23158M
                                                 23167
 @R10          0 00000000 FFFFFFF4     @     836   942U
 @R11          0 00000000 FFFFFFF3     @     849   938U
 @R12          0 00000000 FFFFFFF2     @     862   934U
 @R13          0 00000000 FFFFFFF1     @     875   930U
 @R14          0 00000000 FFFFFFF0     @     888   926U 11692  11843  12114  15560  15713  15984  18924  19288  19385
 @R15          0 00000000 FFFFFFEF     @     901   922U 10379  10470  11016  11112  12115U 12421  12513  15985U 16435U
                                                 16495  16828U 19379U 19960U 20519  21920
 @R2           0 00000000 FFFFFFFC     @     732   974U 10598  16394  16836U 18946  19386U 20513M 20514M 20515M 20516M
                                                 20520  20762  20763  20765  20783  20793  20795  22609  22746  22883
                                                 23021  23158
 @R3           0 00000000 FFFFFFFB     @     745   970U  9970   9972M  9987  11261  12057  12092  12106  12164  12452U
                                                 15927  15962  15976  16034  16835  16837  19710M 20474M 20475M 20517M
                                                 20519M
 @R4           0 00000000 FFFFFFFA     @     758   966U 16870U 18858  18912  19110  19262  19288  19378  19450  19765
                                                 19791  19959  20026
 @R5           0 00000000 FFFFFFF9     @     771   962U 10379  10470  10599  11016  11112  11262  11692  11843  11983
                                                 12018  12424  12440  12451  12500  12524  12572  12620  12674  12757
                                                 15560  15713  15853  15888
 @R6           0 00000000 FFFFFFF8     @     784   958U  9145U  9757   9759   9768  12267U 12785U 16136U 16875U 18644
                                                 18700  20512  20517  20783M
 @R7           0 00000000 FFFFFFF7     @     797   954U  6693U  6781U  7117U  7454U  7626U  7723U  7826U  7917U  8590U
                                                  8819U  8880U  8941U  9002U  9063U  9124U  9267U  9615U  9690U  9778U
                                                  9858U 10054U 10673U 11380U 12277U 12790U 16146U 16885U 18718U 19155U
                                                 19574U 20112U 20668U 20809U 21069U 21215U 21435U 21645U 21725U 21805U
                                                 21963U 22494U 22631U 22768U 22905U 23043U 23180U 23417U 23654U
 @R8           0 00000000 FFFFFFF6     @     810   950U  7621U  7718U  7821U  7912U 10049U 10668U 11375U 12272U 16141U
                                                 16880U 18713U 19150U 20107U 20663U
 @R9           0 00000000 FFFFFFF5     @     823   946U
 ABSCENT       1 00000000 00000000 A   T    2176  2176
 ACHAR$ANY
               1 00000000 00000001 A   N   12844 12524  13287  13293  13299  13305  13311  13317  13323  13329  13335
                                                 13341  13347  13353  13359  13365  13371  13377  13383  13389  13395
                                                 13401  13407  13413  13419  13425  13431  13437  13443  13449  13455
                                                 13461  13467  13473  14229  14235  14241  14247  14265  14289  14295
                                                 14301  14307  14313  14319  14325  14331  14337  14355  14367  14373
                                                 14391  14397  14403  14409  14445  14451  14457  14493  14499  14505
                                                 14523  14553  14583  14589  14601  14607  14613  14619  14625  14631
                                                 14637  14643  14649  14655  14661  14667  14673  14679  14685  14691
                                                 14697  14715  14721  14727  14733  14739  14745  14793  14805  14823
                                                 14829  14835  14841  14853  14865  14871  14877  14883  14895  14901
                                                 14913  14937  14943  14949  14955  14961  14967  14973  14979  14985
                                                 14991  14997  15003  15009  15015  15021  15033  15039  15045  15051
                                                 15057  15063  15075  15087  15093  15111  15123  15129  15141  15165
                                                 15171  15177  15183
 ACHAR$LOWER
               1 00000001 00000001 A   N   12845 12572  14361  14379  14385  14415  14421  14427  14433  14439  14463
                                                 14469  14475  14481  14487  14511  14517  14529  14535  14541  14547
                                                 14559  14565  14571  14577  14595  14703  14763  14787  14925  14931
                                                 15081
 ACHAR$UPPER
               1 00000002 00000001 A   N   12846 12620  14253  14259  14271  14277  14283  14343  14349  14709  14751
                                                 14757  14769  14775  14781  14799  14811  14817  14847  14859  14889
1UTIL     (UTIL2025) (12:58) (15MAR04) Ordinary Symbol and Literal Cross Reference                                          Page  116
                                                 14907  14919  15027  15069  15099  15105  15117  15135  15147  15153
                                                 15159
 ADDER         2 000008C4 00000001     H    9638  9634
 APPLETAB      8 00001588 00000001     D   13485 11404  12812
 ASCIITBL      1 0000307A 00000001     C   20685 21275
 ASCTBL        1 00000000 00000000 A   T    2184  2184
 BLTBL         1 00000000 00000000 A   T    2186  2186
 BR            7 00000007 00000001 A   #    1022  6653M  6741M  6830M  7167M  7565M  7662M  7759M  7862M  7950M  8791M
                                                  8852M  8913M  8974M  9035M  9096M  9172M  9316M  9652M  9731M  9821M
                                                  9919M 10273M 10887M 11580M 12320M 15451M 16223M 18548M 18802M 19197M
                                                 19640M 20213M 20727M 20883M 21105M 21325M 21468M 21678M 21758M 21838M
                                                 22120M 22539M 22676M 22813M 22951M 23088M 23218M 23455M
 BTD           1 00000000 00000017     T   23684 23684
 BTX           1 00000000 0000000E     T   21266 21266
 CHARCHK       2 00003280 00000001     H   21091 21087
 CHARCHKA      2 000031EE 00000001     H   20869 20865
 CHARFMT       2 00002A74 00000001     H   18532 18528
 CHARTEXT     64 00000000 FFFFFFE0     X   18516 18644M 18664M 18682  18700  21264  21281
 CHARTR       16 00002AE2 00000001     X   18733 18664
 CHARWA       64 00000000 FFFFFFE0     J   18523 18545  18574U 18726  18728  18729
 CHCKTAB       1 000032E0 00000001     X   21232 20927  21005  21151  21233  21235  21237  21239  21241  21243  21245
                                                 21247  21249  21251
 CHECKEND      2 0000014C 00000001     H    7153  7149  10079
 CHECKIOB      1 00000000 00000000 A   T    2232  2232
 CHKADONE      2 00003272 00000001     H   21062 20974B 21024B
 CHKDONE       2 000032D2 00000001     H   21208 21170B
 CNVDATE       2 0000345C 00000001     H   21311 21307
 COMMAND       1 00000000 00000000 A   T    2172  2172
 COMMSEG       1 00000000 00000000 A   T    2173  2173
 CP         4096 00000000 FFFFFFEC     J    6186  1161U
 CP#XSTK       1 00000010 FFFFFFEC A   U    3918  3919
 CPACFLG       1 000005D5 FFFFFFEC     R    4021  4025   4030   4035   4040   4045
 CPACFLN       4 000005C4 FFFFFFEC     F    4013  4048   4048
 CPAFLAG       1 000005C3 FFFFFFEC     R    3985  3989   3994   3999   4004
 CPANAME       8 00000588 FFFFFFEC     C    3967  4063   4063
 CPAUTFLG      1 000008A9 FFFFFFEC     R    4331  4335   4340   4345   4350
 CPCHFLAG      1 00000B68 FFFFFFEC     R    4958  4962
 CPDELTA       4 00000738 FFFFFFEC     F    4070  9754   9765
 CPDFLG        1 0000084C FFFFFFEC     R    4218  4222   4227   4232   4237   4242
 CPDFLG2       1 0000084D FFFFFFEC     R    4247  4251   4256   4261   4266   4271   4276
 CPDOUB        8 00000C88 FFFFFFEC     D    5204  9437   9949M  9952   9953M  9954M  9955M  9956   9962   9963M  9967
                                                  9969  10040M 19421  19978  21401  21406M 21407M 21417  21584  21878
 CPEXFLG       1 00000758 FFFFFFEC     R    4087  4091
 CPEXFLG2      1 00000759 FFFFFFEC     R    4097  4106   4116
 CPEXFLG3      1 0000075A FFFFFFEC     R    4123  4127   4132
 CPEXTFLG      1 00000E28 FFFFFFEC     R    5769  5773   5778   5783   5788   5793   5798
 CPFABORT    128 00000D5A FFFFFFEC         5535  2136M  2136   2141M  2141
 CPFERROR     64 00000D5A FFFFFFEC         5540  2135M  2135   2140M  2140
 CPFNONL     128 00000C7A FFFFFFEC         5068  9573
 CPFNONUM      1 000000C0 FFFFFFEC A   U    5388  9348   9525
 CPFNTEX       1 00000040 FFFFFFEC A   U    5387  5388   9512
 CPFRDRNG      1 00000D88 FFFFFFEC     R    5655  5659   5664   5669   5674   5679   5684   5689
 CPFRDSRC      1 00000D89 FFFFFFEC     R    5694  5703   5713   5723
 CPFUNUM       1 00000080 FFFFFFEC A   U    5386  5388   9394
 CPFXDFLG      1 000007E4 FFFFFFEC     R    4165  4169   4174
 CPGFLG1       1 00000474 FFFFFFEC     R    3528  3532   3537   3542   3547   3552   3882   3882
 CPGFLG10      1 0000047D FFFFFFEC     R    3765  3769   3774   3779   3784   3789   3794
 CPGFLG11      1 0000047E FFFFFFEC     R    3800  3804   3809
 CPGFLG12      1 0000047F FFFFFFEC     R    3815  3819   3824   3829
1UTIL     (UTIL2025) (12:58) (15MAR04) Ordinary Symbol and Literal Cross Reference                                          Page  117
 CPGFLG13      1 00000480 FFFFFFEC     R    3835  3839
 CPGFLG14      1 00000481 FFFFFFEC     R    3845  3849   3854   3859   3864   3869
 CPGFLG4       1 00000477 FFFFFFEC     R    3581  3592   3601   3610   3619   3628
 CPGFLG5       1 00000478 FFFFFFEC     R    3634  3638   3643   3648   3653   3658   3663   3668   3673
 CPGFLG6       1 00000479 FFFFFFEC     R    3679  3683   3688   3693
 CPGFLG7       1 0000047A FFFFFFEC     R    3699  3703   3708   3713   3718
 CPGFLG8       1 0000047B FFFFFFEC     R    3724  3728   3733   3738   3743
 CPGFLG9       1 0000047C FFFFFFEC     R    3749  3753   3759
 CPINIT        1 00000174 FFFFFFEC     U    2698  6155
 CPJESFLG      1 000009E1 FFFFFFEC     R    4430  4434   4439   4444   4449   4454   4459   4464   4469
 CPJESFLY      1 000009FD FFFFFFEC     R    4480  4484   4489   4494
 CPJESHFL      1 000009E0 FFFFFFEC     R    4415  4419   4424   4503   4503
 CPLCNO        4 0000073C FFFFFFEC     F    4072  9194M  9244   9422
 CPLFLG10      1 00000D59 FFFFFFEC     R    5521  5525
 CPLFLG11      1 00000D5A FFFFFFEC     R    5531  5535   5540   5545   5550
 CPLFLG12      1 00000D5B FFFFFFEC     R    5556  5560
 CPLFLG14      1 00000D5C FFFFFFEC     R    5566  5570   5575   5580   5585   5590
 CPLFLG5       1 00000D54 FFFFFFEC     R    5383  9350   9396   9514   9527   9950
 CPLFLG6       1 00000D55 FFFFFFEC     R    5396  5400   5405   5410   5415   5420   5425
 CPLFLG7       1 00000D56 FFFFFFEC     R    5431  5435   5440   5445   5450   5455
 CPLFLG8       1 00000D57 FFFFFFEC     R    5461  5465   5470   5475   5480
 CPLFLG9       1 00000D58 FFFFFFEC     R    5486  5490   5495   5500   5505   5510   5515
 CPLOCALZ      1 00000C48 FFFFFFEC     U    4988  6149   6149
 CPMFLG        1 0000084F FFFFFFEC     R    4285  4289
 CPMODFLG      1 00000C78 FFFFFFEC     R    5016  5020   5025   5030   5035   5040
 CPNAMELN      1 00000010 FFFFFFEC A   U    3911  4158
 CPNEDPFX     10 00000E29 FFFFFFEC     X    5802  5803   5804
 CPNFINT       1 00000008 FFFFFFEC A   U    5391  9950
 CPNSCANP      4 0000008C FFFFFFEC     A    2571  6676   6764   8149   8158   8165   8181   8194  21348  21355  21371
                                                 21705  21783
 CPNUMFLG      1 00000C79 FFFFFFEC     R    5046  5058
 CPORVCMD      1 00000140 FFFFFFEC     R    2580  2584   2589   2594   2599   2604   2609   2614   2619   2624   2624
                                                  2675   2675
 CPORVFLG      1 00000149 FFFFFFEC     R    2631  2635   2640   2645   2650   2655   2660   2665   2670
 CPORVWF       1 00000150 FFFFFFEC     R    2683  2687
 CPOSCANX      4 00000CA8 FFFFFFEC     F    5215  5282   5282
 CPR          11 0000000B 00000001 A   #    1086  1161U
 CPRACBAD     16 000001FC FFFFFFEC         2749  2783   2783   2784   2784
 CPRACF1       1 000001FC FFFFFFEC     R    2730  2734   2739   2744   2749   2754   2759   2764   2769   2785
 CPRACPSW     32 000001FC FFFFFFEC         2744  2782   2782   2784   2784
 CPRACUND     64 000001FC FFFFFFEC         2739  2782   2782   2783   2783
 CPRCVCUR      4 00000730 FFFFFFEC     A    4066  4068   4068
 CPRFLG        1 000008AA FFFFFFEC     R    4356  4360   4365   4370   4375   4380   4385
 CPS         254 00000344 FFFFFFEC     X    3500  3503   3504   3506   3506
 CPSACCT       5 000003B4 FFFFFFEC     C    3099  3262   3262
 CPSAMCOD      1 00000A22 FFFFFFEC     R    4552  4560   4570   4580   4589   4598   4607   4617   4626   4635
 CPSAMFLG      1 00000A21 FFFFFFEC     R    4512  4516   4521   4526   4531   4536   4541   4546   4657   4657
 CPSCNFLG      1 00000CD0 FFFFFFEC     R    5228  5239   5248   5259
 CPSCNF2       1 00000CD1 FFFFFFEC     R    5264  5268
 CPSCNMAX      1 00000014 FFFFFFEC A   U    5280  5281
 CPSCRI        2 00000434 FFFFFFEC     H    3489  3494   3494
 CPSEG        60 00000050 FFFFFFEC     X    2569  6989   7039   7057   7326   7376   7394   8001   8034   8417   8472
                                                  9223   9452   9496   9554   9600  18695  19044  19073  19105  19138
                                                 19324  19356  19445  19508  19553  19884  19931  19949  20002  20020
                                                 20092  20326  20646  22186  22238  22301  22327  22379  22426  22478
                                                 23255  23273  23300  23318  23337  23363  23381  23406  23492  23510
                                                 23537  23555  23574  23600  23618  23643
 CPSEGCOD      1 00000050 FFFFFFEC     R    2486  2495   2505   2515   2525   2535   2545   2555
 CPSEGLENF
1UTIL     (UTIL2025) (12:58) (15MAR04) Ordinary Symbol and Literal Cross Reference                                          Page  118
               4 0000005C FFFFFFEC     A    2561  6949M  6949   6964   7286M  7286   7301   8046   8069  19001  19844M
                                                 19844  19859  20052M 20052  20067  20286M 20286  20301
 CPSEGLOC      4 00000070 FFFFFFEC     A    2565  8068
 CPSEGMRKF
               4 00000058 FFFFFFEC     A    2560  6964   7301   8047  19002  19859  20067  20301
 CPSFL         1 00000384 FFFFFFEC     R    2837  2841   2846   2851   2856   2861
 CPSFLG        1 000003F8 FFFFFFEC     R    3377  3381   3386   3391   3396   3401   3406   3411   3416
 CPSFLG2       1 000003F9 FFFFFFEC     R    3422  3426   3431   3436
 CPSFL2        1 00000385 FFFFFFEC     R    2867  2871   2876   2881   2886
 CPSFL3        1 00000386 FFFFFFEC     R    2892  2896   2901   2906
 CPSFL4        1 00000387 FFFFFFEC     R    2912  2916   2921   2926
 CPSFL5        1 00000388 FFFFFFEC     R    2932  2936   2941   2946
 CPSKAFL       1 000003BF FFFFFFEC     R    3233  3237   3242   3247   3252   3257
 CPSKIFL       1 000003BE FFFFFFEC     R    3188  3192   3197   3202   3207   3212   3217   3222   3227
 CPSOF         1 000001F8 FFFFFFEC     X    2720  2722   2722
 CPSOFLAG      1 00000416 FFFFFFEC     R    3447  3451   3456   3461   3466   3471
 CPSOPST       4 000003C4 FFFFFFEC     F    3267  3496   3496
 CPSPORT       8 00000354 FFFFFFEC     C    2831  2951   2951
 CPSQFLG       1 000003EC FFFFFFEC     R    3296  3300
 CPSSFLG       1 000003BB FFFFFFEC     R    3106  3110   3115   3120   3125   3130   3135
 CPSSTART      4 00000344 FFFFFFEC     F    2823  2827   2827   3263   3263   3368   3368   3500   3500
 CPSSTAT       1 0000038F FFFFFFEC     R    3043  3047   3052   3057   3062   3067   3072   3077
 CPSTACF       1 000003BC FFFFFFEC     R    3141  3145   3150   3155   3160   3165   3170   3175   3180
 CPSTART       4 00000000 FFFFFFEC     C    2459  6153   6157
 CPSTFLAG      1 000003EA FFFFFFEC     R    3274  3278   3283   3288
 CPSTYPE       1 0000038C FFFFFFEC     R    2956  2965   2975   2985   2995   3005   3015   3025   3035
 CPSUFLG       1 000003EE FFFFFFEC     R    3311  3315   3320   3325   3330   3335   3340   3345   3350
 CPSUFLG2      1 000003EF FFFFFFEC     R    3356  3360   3365
 CPSVPGM       8 0000039C FFFFFFEC     C    3089  3095   3095
 CPSWID        2 00000418 FFFFFFEC     H    3475 19015
 CPS1ST        4 0000038C FFFFFFEC     F    2953  3498   3498
 CPTEMPP#      1 0000005F FFFFFFEC A   U    4406  4408
 CPTRMFL1      1 00000C7A FFFFFFEC     R    5064  5068   5073   5078   5202   5202
 CPTRMFL2      1 00000C7B FFFFFFEC     R    5084  5088   5093   5098   5103   5108   5113
 CPTRMFL3      1 00000C7C FFFFFFEC     R    5119  5123   5128   5133   5138   5143   5148   5153
 CPTRMFL4      1 00000C7D FFFFFFEC     R    5159  5163   5168   5173   5178   5183   5188   5193
 CPUSED        1 00000FBC FFFFFFEC A   U    6153  6154
 CPVACURS      8 00000AF0 FFFFFFEC     D    4931  4932   4933
 CPVCURS       8 00000AE0 FFFFFFEC     D    4925  4926   4927
 CPVFLAG       1 00000AC8 FFFFFFEC     R    4726  4730   4735   4740   4745   4750
 CPVFLAG2      1 00000AC9 FFFFFFEC     R    4756  4760   4765   4770   4775   4780   4785
 CPVFLAG3      1 00000ACA FFFFFFEC     R    4791  4795   4800   4805   4810   4815   4820
 CPVFLAG4      1 00000ACB FFFFFFEC     R    4826  4830   4835   4840
 CPVLFLAG      1 00000ACE FFFFFFEC     R    4895  4899   4904   4909
 CPVMODE       1 00000ACC FFFFFFEC     R    4848  4852   4857   4862   4867   4872   4877   4882   4887
 CPVTWID       2 00000AD0 FFFFFFEC     H    4915  4918   4918
 CPWK1         4 00000D60 FFFFFFEC     F    5599  5614   5637
 CPWK2         4 00000D64 FFFFFFEC     F    5600  5615   5629
 CPWK3         4 00000D68 FFFFFFEC     F    5601  5616   5630
 CPWK4         4 00000D6C FFFFFFEC     F    5602  5617   5631
 CPWK5         4 00000D70 FFFFFFEC     F    5603  5619   5624   5632
 CPWK6         4 00000D74 FFFFFFEC     F    5604  5620   5625   5633   5640   5642
 CPWK7         4 00000D78 FFFFFFEC     F    5605  5618   5634
 CPXFLAG       1 000007FD FFFFFFEC     R    4193  4197
 CPXSTATE      4 000007F8 FFFFFFEC     F    4187  4200   4200
 CV         4016 00000000 FFFFFFEE     J    2362  1170U
 CVABSRTN      4 0000088C FFFFFFEE     V    2176  2151
 CVASCTBL      4 000008B0 FFFFFFEE     V    2184 22834
 CVBLANKS    235 000004D8 FFFFFFEE     C    1956  9365   9465  10552  12380  12473  16351  16455  19060  19493  19918
1UTIL     (UTIL2025) (12:58) (15MAR04) Ordinary Symbol and Literal Cross Reference                                          Page  119
                                                 20352
 CVBRMSK       1 00000751 FFFFFFEE     X    2092  2093   2094
 CVCFLAG       1 00000A00 FFFFFFEE     R    2257  2261   2266   2271   2276   2281
 CVCHKST       8 000009F0 FFFFFFEE     D    2247  2337   2337
 CVCHKST2      8 00000E28 FFFFFFEE     D    2340  2343   2343
 CVCOMRTN      4 0000087C FFFFFFEE     V    2172  2142
 CVDBGFLG      1 000004CC FFFFFFEE     R    1946  1950
 CVDOTTBL      4 000008C4 FFFFFFEE     V    2189 20249
 CVEBCTBL      4 000008B4 FFFFFFEE     V    2185 22560
 CVEB7TBL      4 000008C0 FFFFFFEE     V    2188 22697
 CVENT         4 0000074C FFFFFFEE     I    2090  6653B  6741B  6830B  7167B  7565B  7662B  7759B  7862B  7950B  8791B
                                                  8852B  8913B  8974B  9035B  9096B  9172B  9316B  9652B  9731B  9821B
                                                  9919B 10273B 10887B 11580B 12320B 15451B 16223B 18548B 18802B 19197B
                                                 19640B 20213B 20727B 20883B 21105B 21325B 21468B 21678B 21758B 21838B
                                                 22120B 22539B 22676B 22813B 22951B 23088B 23218B 23455B
 CVENTBR       2 00000750 FFFFFFEE     I    2091  2092
 CVERRMSG      4 000007C8 FFFFFFEE     I    2135 21947B
 CVERROR       4 000007D6 FFFFFFEE     I    2140  2156B
 CVEXIRTN      4 0000077C FFFFFFEE     V    2120  2116
 CVEXNO        2 000009AA 00000001     H    9903  9899
 CVEXNO        1 00000000 0000000C     T   10098 10098
 CVEXNO1       6 000009F0 00000001     I    9960  9951B
 CVEXWA       16 00000000 FFFFFFE7     J    9894  9916   9945U 10062  10064  10065
 CVEXWORK     16 00000000 FFFFFFE7     X    9887  9952M  9953   9960M  9961   9962M  9963   9964
 CVFCHRKBPR
               8 000004C9 FFFFFFEE         1861  1877   1877
 CVFCHRKBSE
               4 000004C9 FFFFFFEE         1866  1877   1877
 CVFCHRKCPR
               2 000004C9 FFFFFFEE         1883  1899   1899
 CVFCHRKCSE
               1 000004C9 FFFFFFEE         1888  1899   1899
 CVFCHRUBPR
             128 000004C9 FFFFFFEE         1817  1833   1833
 CVFCHRUBSE
              64 000004C9 FFFFFFEE         1822  1833   1833
 CVFCHRUCPR
              32 000004C9 FFFFFFEE         1839  1855   1855
 CVFCHRUCSE
              16 000004C9 FFFFFFEE         1844  1855   1855
 CVFL          1 000004C4 FFFFFFEE     R    1613  1617   1622   1627   1632   1637   1642   1647   1652
 CVFL2         1 000004C5 FFFFFFEE     R    1658  1662   1667   1672   1677   1682   1687   1692   1697
 CVFL3         1 000004C6 FFFFFFEE     R    1703  1707   1712   1717   1722   1727   1732   1737   1742
 CVFL4         1 000004C7 FFFFFFEE     R    1748  1752   1757   1762   1767   1772   1777   1782
 CVFL5         1 000004C8 FFFFFFEE     R    1788  1792   1797   1802   1807
 CVFL6         1 000004C9 FFFFFFEE     R    1813  1817   1822   1834   1839   1844   1856   1861   1866   1878   1883
                                                  1888   1900
 CVHEAP#       1 00000200 FFFFFFEE A   U    1519  1520
 CVHILNO       4 00000160 FFFFFFEE     A    1406  9674
 CVINVRTN      4 00000888 FFFFFFEE     V    2175  2145
 CVJESFLG      1 000004CA FFFFFFEE     R    1906  1910
 CVLNKRGS      4 00000780 FFFFFFEE     F    2122  2097M  2123
 CVLNKRTN      4 000007B0 FFFFFFEE     U    2123  2112M
 CVLOCK1       1 00000088 FFFFFFEE     R    1264  1268   1273
 CVLOCK2       1 00000089 FFFFFFEE     R    1278  1282
 CVLOCK3       1 0000008A FFFFFFEE     R    1287  1291
 CVLOCK4       1 0000008B FFFFFFEE     R    1296  1300
 CVLOGMOD      1 00000068 FFFFFFEE     R    1251  1255
 CVLOWTBL      4 000008AC FFFFFFEE     V    2183 12420  12512  16393  16494
1UTIL     (UTIL2025) (12:58) (15MAR04) Ordinary Symbol and Literal Cross Reference                                          Page  120
 CVMACH        1 00000067 FFFFFFEE     R    1211  1215   1220   1225   1230   1235   1240   1245
 CVMILRTN      4 00000884 FFFFFFEE     V    2174  2154
 CVNOACTN      4 000007EA FFFFFFEE     I    2148  8517B  8544B  8571B
 CVNOARTN      4 00000890 FFFFFFEE     V    2177  2148
 CVNWDATE      4 00000608 FFFFFFEE     F    1979  1983   1983
 CVNWMPG#      1 00000008 FFFFFFEE A   U    1981  1982
 CVPARTBL      4 000008A0 FFFFFFEE     V    2180 22972
 CVPFXRTN      1 00000000 00000000 A   T    2120  2120
 CVPGFLAG      1 00000A01 FFFFFFEE     R    2287  2291   2296   2301
 CVPIOSZ       1 00004F80 FFFFFFEE A   U    1350  1352
 CVPPDBQH      4 0000009C FFFFFFEE     A    1308  1309
 CVPSFNO       1 000003E9 FFFFFFEE A   N    1472  1474
 CVPSLNO       1 000007CF FFFFFFEE A   N    1473  1474
 CVPXSZ        1 00000008 FFFFFFEE A   U    1351  1352
 CVR          12 0000000C 00000001 A   #    1099  1170U
 CVRKEY        1 00000008 FFFFFFEE A   U    2045  2046
 CVSEGRTN      4 00000880 FFFFFFEE     V    2173  2137
 CVSTACK#      1 00000080 FFFFFFEE A   U    1511  1512
 CVSTART       4 00000000 FFFFFFEE     C    1184  2355
 CVTRC         4 00000768 FFFFFFEE     I    2112  2098B
 CVTRCRTN      4 00000778 FFFFFFEE     V    2119  2113
 CVUPPTBL      4 000008A8 FFFFFFEE     V    2182 23109
 CVUSFNO       1 00000001 FFFFFFEE A   N    1479  1481
 CVUSLNO       1 000003E7 FFFFFFEE A   N    1480  1481
 CVVOL#        1 00000005 FFFFFFEE A   U    2330  2331
 CVWTOFLG      1 000004CB FFFFFFEE     R    1916  1920   1925   1930   1935   1940
 DAYDAT        2 000035D6 00000001     H   21744 22038
 DAYPRT        4 00003708 00000001     F   22026 23690
 DEBUGSG       1 00000000 00000000 A   T    2073  2073
 DECRYPT       2 00003B36 00000001     H   23441 23437
 DETAB         2 00000B20 00000001     H   10257 10253
 DEV          12 00000000 FFFFFFEB     J    4711  4719
 DEVMAX#       1 00000002 FFFFFFEC A   U    4662  4719
 DEVTYPE       1 00000001 FFFFFFEB     R    4679  4688   4698
 DOTTBL        1 00000000 00000000 A   T    2189  2189
 DRENCFLG      1 00000F9F FFFFFFEC     R    6117  6121   6126   6131   6136   6141
 DRENPROT      1 00000F9E FFFFFFEC     R    6104  6112
 DSNON        40 00000E90 FFFFFFEC     C    5837  5838
 DSNWADSN     44 00000E5C FFFFFFEC     C    5824  5825   5826   5827   5836   5844   6075   6081   6083   6089   6092
                                                  6094   6097   6146
 DSNWAF4       1 00000F37 FFFFFFEC     R    5892  5896   5901   5906   5911   5916   5921   5926   5931
 DSNWAF5       1 00000F38 FFFFFFEC     R    5937  5941   5946   5951   5956   5961   5966   5971   5976
 DSNWAF6       1 00000F39 FFFFFFEC     R    5982  5986   5991   5996   6001   6006   6011   6016   6021
 DSNWAF7       1 00000F3A FFFFFFEC     R    6027  6031   6036   6041   6046
 DSNXG         1 00000004 FFFFFFEC A   U    5829  5831
 DSNXGL        1 00000003 FFFFFFEC A   U    5830  5831
 DSNXU         1 00000007 FFFFFFEC A   U    5831  5833
 DSNXUL        1 00000004 FFFFFFEC A   U    5832  5833
 DSSIZ         1 00000108 FFFFFFEC A   U    6075  6083   6092   6097
 DTABASCT    256 00000D4E 00000001     X   10699 10333  10700  10702
 DTABBUF    2000 0000004C FFFFFFE6     X   10241 10404  10409
 DTABCOPY      4 00000C10 00000001     I   10610 10514B
 DTABEBCT    256 00000C4E 00000001     X   10692 10312  10693
 DTABEXIT      4 00000C3C 00000001     I   10661 10366B 10387B
 DTABFASCII
             128 00000000 FFFFFFE6        10144 10332M 10562
 DTABFLAG      1 00000000 FFFFFFE6     R   10140 10144  10151  10151
 DTABINIT     16 00000000 FFFFFFE6     X   10151 10309M 10309
 DTABMAXL      4 0000000C FFFFFFE6     F   10150 10310M 10623  10631
1UTIL     (UTIL2025) (12:58) (15MAR04) Ordinary Symbol and Literal Cross Reference                                          Page  121
 DTABRC        4 00000008 FFFFFFE6     F   10149 10630M 10661
 DTABSG       60 00000010 FFFFFFE6     X   10240 10417  10509  10543  10592
 DTABSGCOD
               1 00000010 FFFFFFE6     R   10157 10166  10176  10186  10196  10206  10216  10226
 DTABSGLENF
               4 0000001C FFFFFFE6     A   10232 10548  10551  10611
 DTABSGLOC
               4 00000030 FFFFFFE6     A   10236 10653
 DTABTRTP      4 00000004 FFFFFFE6     A   10148 10341M 10367  10458
 DTABWA     2076 00000000 FFFFFFE6     J   10248 10270  10299U 10681  10683  10684
 EBCTBL        1 00000000 00000000 A   T    2185  2185
 EBCTBL7       1 00000000 00000000 A   T    2188  2188
 ECBLIST       1 00000000 00000000 A   T    2048  2048
 ENCRYPT       2 00003A80 00000001     H   23204 23200
 EPARTBL       1 00000000 00000000 A   T    2180  2180
 ESCFMT        2 00002DEA 00000001     H   19624 19620
 ESCTRT      256 00000000 FFFFFFDE     X   19608 19679M 19679  19709  19791
 ESCWA       256 00000000 FFFFFFDE     J   19615 19637  19666U 20120  20122  20123
 EXDONE        2 00000A2C 00000001     H    9978  9971B
 EXEDTMSK      1 00000A62 00000001     C   10069  9960
 EXEXIT        4 00000A4C 00000001     I   10040  9958B
 EXTRIM        4 00000A1A 00000001     I    9970  9975B
 FCHAR         7 00000000 FFFFFFE3     J   15244 16409U
 FCHARFANY
               0 00000004 FFFFFFE3        15211 16511  16994  17005  17016  17027  17038  17049  17060  17071  17082
                                                 17093  17126  17192  17203  17214  17225  17236  17258  17269  17280
                                                 17291  17302  17313  17324  17335  17346  17357  17368  17379  17390
                                                 17445  17456  17467  17478  17489  17500  17511  17522  17533  17544
                                                 17599  17610  17621  17632  17643  17654  17665  17676  17687  17698
                                                 17731  17742  17786  17841  17852  17874  17885  17896  17907  17918
                                                 17929  17940  17951  17962  17973  17984  17995  18050  18061  18072
                                                 18094  18171  18204  18380  18413  18479  18490
 FCHARFLG      1 00000004 FFFFFFE3     R   15202 15211  15221  15231
 FCHARFLOWER
               2 00000004 FFFFFFE3        15231 16561  17104  17115  17137  17148  17159  17170  17181  17247  17401
                                                 17412  17423  17434  17555  17566  17577  17588  17709  17720  17753
                                                 17764  17775  17797  17808  17819  17830  17863  18006  18017  18028
                                                 18039  18083
 FCHARFUPPER
               1 00000004 FFFFFFE3        15221 16611  18105  18116  18127  18138  18149  18160  18182  18193  18215
                                                 18226  18237  18248  18259  18270  18281  18292  18303  18314  18325
                                                 18336  18347  18358  18369  18391  18402  18424  18435  18446  18457
                                                 18468
 FCHARLEN      1 00000005 FFFFFFE3     X   15234 16434  16827
 FCHARNEXT
               4 00000000 FFFFFFE3     A   15199 16665
 FCHARSEQ      1 00000006 FFFFFFE3     C   15235 16482
 FCHARTBL      8 00002270 00000001     D   16981 16917
 FCHARTLEN
               1 00000006 FFFFFFE3     X   15236 16821
 FMTBUF     2000 0000004C FFFFFFE5     X   10855 11042  11047  11304
 FMTCOPY       4 00000F8E 00000001     I   11270 11156B
 FMTEXIT       4 00000FD4 00000001     I   11368 11003B 11024B
 FMTFLAG       1 00000000 FFFFFFE5     R   10754 10758  10765  10765
 FMTFTEXTONLY
             128 00000000 FFFFFFE5        10758 10946M 11286
 FMTINIT      16 00000000 FFFFFFE5     X   10765 10923M 10923
 FMTMAXL       4 0000000C FFFFFFE5     F   10764 10924M 11328  11336
 FMTRC         4 00000008 FFFFFFE5     F   10763 11335M 11368
1UTIL     (UTIL2025) (12:58) (15MAR04) Ordinary Symbol and Literal Cross Reference                                          Page  122
 FMTSG        60 00000010 FFFFFFE5     X   10854 11055  11151  11185  11202  11238  11255
 FMTSGCOD      1 00000010 FFFFFFE5     R   10771 10780  10790  10800  10810  10820  10830  10840
 FMTSGLENF
               4 0000001C FFFFFFE5     A   10846 11270
 FMTSGLOC      4 00000030 FFFFFFE5     A   10850 11298  11360
 FMTTAB        8 00001388 00000001     D   12928 11402
 FMTTABP       4 00000004 FFFFFFE5     A   10762 10977M 11004  11096  11210
 FMTWA      2076 00000000 FFFFFFE5     J   10862 10884  10913U 11388  11390  11391
 FNDBLK        4 0000319C 00000001     I   20762 20794B
 FNDBLKL       4 000031CC 00000001     I   20793 20774B 20796B
 FNDNBLK       2 000031BC 00000001     I   20772 20764B
 FNDNBLKL      4 000031A0 00000001     I   20763 20766B
 FORMATL       2 00000E7C 00000001     H   10871 10867
 FORMCTAB      1 0000216A 00000001     X   16943 12819  16913  16944  16946  16948  16950  16952  16954  16956  16958
                                                 16960  16962  16964  16966  16968  16970  16972  16974
 FORMSTRT    256 0000206A 00000001     X   16936 12814  16908  16937
 FSR           0 00000000 00000001 A   #    1009  6648   6701M  6736   6789M  6825   7125M  7162   7462M  7559   7614M
                                                  7634M  7656   7711M  7731M  7753   7814M  7834M  7856   7905M  7925M
                                                  7945   8583M  8598M  8786   8827M  8847   8888M  8908   8949M  8969
                                                  9010M  9030   9071M  9091   9132M  9167   9275M  9311   9623M  9647
                                                  9681M  9698M  9726   9771M  9786M  9816   9851M  9866M  9913  10042M
                                                 10062M 10267  10336M 10610  10659M 10681M 10881  11342  11366M 11388M
                                                 11574  12209  12258M 12285M 12315  12798M 15445  16078  16127M 16154M
                                                 16217  16893M 18542  18726M 18796  19163M 19192  19582M 19634  20120M
                                                 20207  20676M 20722  20802M 20817M 20878  21077M 21100  21223M 21320
                                                 21443M 21463  21637M 21653M 21673  21701M 21733M 21753  21794M 21813M
                                                 21833  21955M 21971M 22115  22502M 22534  22639M 22671  22776M 22808
                                                 22913M 22946  23051M 23083  23188M 23213  23425M 23450  23662M
 GETLINE       1 00000000 0000000B     T   10096 10096
 GTMIXTBL      1 00000000 0000000F     T   21267 21267
 HEXDUMP       2 00002F1A 00000001     H   20197 20193
 HEXFEXIT      2 00002CDC 00000001     H   19146 19049B
 HEXFMT        2 00002BE2 00000001     H   18786 18782
 HEXWA         8 00000000 FFFFFFDF     J   18777 18799  18828U 19163  19165  19166
 HEXWORK       8 00000000 FFFFFFDF     D   18770 18872  18939M 18941M 18978
 HIBAL         1 00000000 FFFFFFFF     J     691   707    720    733    746    759    772    785    798    811    824
                                                   837    850    863    876    889    902
 HXDADDR       8 0000000B FFFFFFDD     C   20173 20181  20181  20371M 20389  20426
 HXDFLAGS      1 00000008 FFFFFFDD     R   20150 20158  20167  20244M
 HXDFLASC      2 00000008 FFFFFFDD        20167 20260  20446  20531
 HXDFLOFF      1 00000008 FFFFFFDD        20158 20364
 HXDHEX       49 00000015 FFFFFFDD     C   20176 20436  20468
 HXDHEXDM     35 00000015 FFFFFFDD     C   20175 20452
 HXDLINE      79 0000000B FFFFFFDD     C   20181 20352M 20633  20638
 HXDSTART      4 00000000 FFFFFFDD     A   20145 20243M 20370
 HXDTRT        4 00000004 FFFFFFDD     A   20146 20249M 20267M 20518
 HXDUNPK       2 00000009 FFFFFFDD     X   20171 20512M 20513
 HXDWA        90 00000000 FFFFFFDD     J   20188 20210  20239U 20676  20678  20679
 IGNOREND      2 00000090 00000001     H    6816  6812  10078
 INVALID       1 00000000 00000000 A   T    2175  2175
 JCBAFL        1 00000062 FFFFFFE9     R    6455  6459   6464   6469   6474   6479   6484   6489   6494
 JCBBFL        1 00000063 FFFFFFE9     R    6500  6504   6509   6514   6519   6524   6529   6534
 JCBBILLX      8 00000088 FFFFFFE9     D    6585  6593   6593
 JCBRSCF1      1 00000064 FFFFFFE9     R    6540  6544   6549   6554
 JCBSFLG1      1 00000065 FFFFFFE9     R    6560  6564   6569
 JCBWFL        1 00000060 FFFFFFE9     R    6384  6388   6393   6398   6403   6408   6413   6418   6423   6451
 JCBWWFL       1 00000061 FFFFFFE9     R    6429  6433   6438   6443   6448
 JDATPRT       4 00003690 00000001     F   21980 23681
 JULDAT        2 00003504 00000001     H   21454 22007
1UTIL     (UTIL2025) (12:58) (15MAR04) Ordinary Symbol and Literal Cross Reference                                          Page  123
 LISTLINE      2 00000816 00000001     H    9302  9298  10097
 LMONTHS       2 000037C4 00000001     H   22088 21899
 LNOK          2 000008EC 00000001     H    9679  9676B
 LOCLIST       2 000007B0 00000001     H    9158  9154
 LOWMULT       2 00000974 00000001     H    9807  9803
 LOWTBL        1 00000000 00000000 A   T    2183  2183
 LSR           8 00000008 00000001 A   #    1047  6648   6701M  6736   6789M  6825   7125M  7162   7462M  7559   7634M
                                                  7656   7731M  7753   7834M  7856   7925M  7945   8598M  8786   8827M
                                                  8847   8888M  8908   8949M  8969   9010M  9030   9071M  9091   9132M
                                                  9167   9275M  9311   9623M  9647   9698M  9726   9786M  9816   9866M
                                                  9913  10062M 10267  10681M 10881  11388M 11574  12285M 12315  12798M
                                                 15445  16154M 16217  16893M 18542  18726M 18796  19163M 19192  19582M
                                                 19634  20120M 20207  20676M 20722  20817M 20878  21077M 21100  21223M
                                                 21320  21443M 21463  21653M 21673  21733M 21753  21813M 21833  21971M
                                                 22115  22502M 22534  22639M 22671  22776M 22808  22913M 22946  23051M
                                                 23083  23188M 23213  23425M 23450  23662M
 MALL          1 00000000 00000004     T    8770  8770  22021  22052  22083
 MILERR        1 00000000 00000000 A   T    2174  2174
 MINSEG        2 000037F4 00000001     H   22106 22102
 MINT          1 00000000 00000012     T   21991 21991
 MIXFMT        2 00002CEA 00000001     H   19183 19179
 MIXFMT        1 00000000 00000011     T   21274 21274
 MLNO          1 00000000 00000013     T   22006 22006
 MNULL         1 00000000 00000002     T    8620  8620
 MONDAT        2 00003598 00000001     H   21664 21992
 MPINT         1 00000000 00000015     T   22037 22037  22068
 MTOKEN        1 00000000 00000003     T    8635  8635   8650   8665   8680   8695   8710   8725   8740   8755
 NBLTBL        1 00000000 00000000 A   T    2187  2187
 NOACTION      1 00000000 00000000 A   T    2177  2177
 NOTVALID      1 00000000 00000014     T   23687 22022  22053  22084  23687
 NPARTBL       1 00000000 00000000 A   T    2181  2181
 NSCAN         1 00000000 00000008     T   10087 10087  23682
 NSCNCB      176 00000000 FFFFFFED     J    2446  2572   6677   6678   6765   6766   8150M  8151M  8166   8167   8168
                                                  8171M  8172M  8174M  8184M  8185M  8186M  8195   8196  21356  21357
                                                 21358  21361M 21362M 21364M 21374M 21375M 21376M 21706M 21784M
 NSCNFLGS      1 00000008 FFFFFFED     R    2383  2387   2392
 NSCNKWS       4 00000028 FFFFFFED     A    2432  8166   8174M  8184M 21356  21364M 21374M 21706  21706M 21784  21784M
 NSCNLEN       4 00000004 FFFFFFED     F    2380  6678   6766   8151M  8196
 NSCNLOC       4 00000000 FFFFFFED     A    2379  6677   6765   8150M  8195
 NSCNSKIP      4 00000024 FFFFFFED     A    2431  8167   8171M  8185M 21357  21361M 21375M
 NSCNSTOP      4 00000020 FFFFFFED     A    2430  8168   8172M  8186M 21358  21362M 21376M
 NSCNTYPE      1 00000018 FFFFFFED     R    2401  2405   2410   2415   2420   2425
 PREVLNO       1 00000000 0000000A     T   10095 10095
 RAR          14 0000000E 00000001 A   #    1125  2112   2113M  2114B  2116M  2117B  2137M  2138B  2142M  2143B  2145M
                                                  2146B  2148M  2149B  2151M  2152B  2154M  2155M  2155B  2161   6645
                                                  6685M  6686M  6686B  6703M  6706B  6733   6773M  6774M  6774B  6791M
                                                  6794B  6822   6992M  6993M  6993B  7042M  7043M  7043B  7060M  7061M
                                                  7061B  7127M  7130B  7159   7329M  7330M  7330B  7379M  7380M  7380B
                                                  7397M  7398M  7398B  7464M  7467B  7556   7611M  7612M  7612B  7636M
                                                  7639B  7653   7708M  7709M  7709B  7733M  7736B  7750   7811M  7812M
                                                  7812B  7836M  7839B  7853   7902M  7903M  7903B  7927M  7930B  7942
                                                  8004M  8005M  8005B  8037M  8038M  8038B  8133M  8134M  8134B  8177M
                                                  8178M  8178B  8215M  8216M  8216B  8420M  8421M  8421B  8475M  8476M
                                                  8476B  8600M  8603B  8783   8829M  8832B  8844   8890M  8893B  8905
                                                  8951M  8954B  8966   9012M  9015B  9027   9073M  9076B  9088   9134M
                                                  9137B  9164   9197M  9198M  9198B  9226M  9227M  9227B  9250M  9251M
                                                  9251B  9254M  9255M  9255B  9277M  9280B  9308   9425M  9426M  9426B
                                                  9455M  9456M  9456B  9499M  9500M  9500B  9557M  9558M  9558B  9603M
                                                  9604M  9604B  9625M  9628B  9644   9700M  9702B  9723   9788M  9791B
1UTIL     (UTIL2025) (12:58) (15MAR04) Ordinary Symbol and Literal Cross Reference                                          Page  124
                                                  9813   9868M  9871B  9910  10064M 10067B 10264  10420M 10421M 10421B
                                                 10512M 10513M 10513B 10546M 10547M 10547B 10595M 10596M 10596B 10683M
                                                 10686B 10878  11058M 11059M 11059B 11154M 11155M 11155B 11188M 11189M
                                                 11189B 11205M 11206M 11206B 11241M 11242M 11242B 11258M 11259M 11259B
                                                 11307M 11308M 11308B 11390M 11393B 11571  11793M 11794M 11794B 11885M
                                                 11886M 11886B 11919M 11920M 11920B 11965M 11966M 11966B 12016M 12017M
                                                 12017B 12089M 12090M 12090B 12154M 12155M 12155B 12198M 12199M 12199B
                                                 12287M 12290B 12312  12699M 12700M 12700B 12725M 12726M 12726B 12742M
                                                 12743M 12743B 12775M 12776M 12776B 12800M 12803B 15442  15661M 15662M
                                                 15662B 15755M 15756M 15756B 15789M 15790M 15790B 15835M 15836M 15836B
                                                 15886M 15887M 15887B 15959M 15960M 15960B 16024M 16025M 16025B 16066M
                                                 16067M 16067B 16156M 16159B 16214  16689M 16690M 16690B 16713M 16714M
                                                 16714B 16730M 16731M 16731B 16767M 16768M 16768B 16794M 16795M 16795B
                                                 16811M 16812M 16812B 16860M 16861M 16861B 16895M 16898B 18539  18698M
                                                 18699M 18699B 18728M 18731B 18793  18875M 18876M 18876B 18917M 18918M
                                                 18918B 19047M 19048M 19048B 19076M 19077M 19077B 19108M 19109M 19109B
                                                 19141M 19142M 19142B 19165M 19168B 19189  19239M 19240M 19240B 19327M
                                                 19328M 19328B 19359M 19360M 19360B 19370M 19371M 19371B 19424M 19425M
                                                 19425B 19448M 19449M 19449B 19511M 19512M 19512B 19556M 19557M 19557B
                                                 19584M 19587B 19631  19825M 19826M 19826B 19887M 19888M 19888B 19934M
                                                 19935M 19935B 19952M 19953M 19953B 19981M 19982M 19982B 20005M 20006M
                                                 20006B 20023M 20024M 20024B 20095M 20096M 20096B 20122M 20125B 20204
                                                 20329M 20330M 20330B 20392M 20393M 20393B 20429M 20430M 20430B 20649M
                                                 20650M 20650B 20678M 20681B 20719  20819M 20822B 20875  21079M 21082B
                                                 21097  21225M 21228B 21317  21367M 21368M 21368B 21381M 21382M 21382B
                                                 21404M 21405M 21405B 21427M 21428M 21428B 21445M 21448B 21460  21513M
                                                 21514M 21514B 21539M 21540M 21540B 21587M 21588M 21588B 21605M 21606M
                                                 21606B 21629M 21630M 21630B 21655M 21658B 21670  21735M 21738B 21750
                                                 21815M 21818B 21830  21881M 21882M 21882B 21973M 21976B 22112  22189M
                                                 22190M 22190B 22241M 22242M 22242B 22304M 22305M 22305B 22330M 22331M
                                                 22331B 22382M 22383M 22383B 22429M 22430M 22430B 22481M 22482M 22482B
                                                 22504M 22507B 22531  22641M 22644B 22668  22778M 22781B 22805  22915M
                                                 22918B 22943  23053M 23056B 23080  23190M 23193B 23210  23258M 23259M
                                                 23259B 23276M 23277M 23277B 23303M 23304M 23304B 23321M 23322M 23322B
                                                 23340M 23341M 23341B 23366M 23367M 23367B 23384M 23385M 23385B 23409M
                                                 23410M 23410B 23427M 23430B 23447  23495M 23496M 23496B 23513M 23514M
                                                 23514B 23540M 23541M 23541B 23558M 23559M 23559B 23577M 23578M 23578B
                                                 23603M 23604M 23604B 23621M 23622M 23622B 23646M 23647M 23647B 23664M
                                                 23667B
 R0            0 00000000 FFFFFFFF A   #     699  2097   2166M  6678M  6766M  6859M  6859   6877M  6877   6898M  6914M
                                                  6914   6934   6935   6935   6935   6981M  6981   7000M  7003   7015M
                                                  7049M  7196M  7196   7214M  7214   7235M  7251M  7251   7271   7272
                                                  7272   7272   7318M  7318   7337M  7340   7352M  7386M  7614   7614M
                                                  7711   7711M  7814   7814M  7905   7905M  7980   7981M  7981   8026M
                                                  8113M  8113   8151   8162M  8162   8171   8172   8196M  8409M  8434M
                                                  8464M  8489M  8583   8583M  9215M  9338   9372M  9406M  9406   9422M
                                                  9444M  9472M  9546M  9592M  9592   9673M  9675   9677M  9681   9681M
                                                  9683M  9683   9842   9849M  9851   9851M  9949   9957M  9964M  9965
                                                  9966M  9968M  9974M  9995M 10026  10035M 10042  10042M 10100  10100
                                                 10100  10321M 10321  10334M 10334  10336  10336M 10344  10409M 10501M
                                                 10535M 10548M 10549M 10550M 10551M 10653M 10654M 10655M 10657M 10659
                                                 10659M 10980  11047M 11143M 11177M 11194M 11216M 11247M 11303M 11309
                                                 11360M 11361M 11362M 11364M 11366  11366M 11638  11782M 11874M 11908M
                                                 11954M 12005M 12075M 12078M 12143M 12187M 12252M 12253M 12254M 12256M
                                                 12258  12258M 12357  12358  12358  12358  12360  12688M 12703M 12731M
                                                 12764M 12827  12827  12827  15506  15650M 15744M 15778M 15824M 15875M
                                                 15945M 15948M 16013M 16055M 16121M 16122M 16123M 16125M 16127  16127M
                                                 16274  16293  16326M 16334  16346M 16352  16678M 16691M 16719M 16756M
                                                 16769M 16772M 16800M 16849M 18579  18687M 18832  18834  18865M 18979M
1UTIL     (UTIL2025) (12:58) (15MAR04) Ordinary Symbol and Literal Cross Reference                                          Page  125
                                                 18982  18994M 18999M 18999  19000  19022  19023  19023  19023  19036M
                                                 19036  19065M 19080M 19130M 19130  19218  19301M 19303  19304  19348M
                                                 19414M 19500M 19545M 19723  19804M 19806  19807  19816M 19816  19876M
                                                 19876  19923M 19941M 19971M 20012M 20084M 20084  20247  20318M 20318
                                                 20382M 20419M 20580M 20581M 20638M 20755  20769M 20791M 20802  20802M
                                                 20920M 20920  20980M 20998M 20998  21052M 21144M 21144  21198M 21282
                                                 21282  21282  21352M 21352  21361  21362  21394M 21424M 21489  21490
                                                 21554M 21555M 21577M 21699  21779  21859  21871M 21946M 22178M 22178
                                                 22194M 22214M 22293M 22319M 22319  22335M 22355M 22418M 22418  22434M
                                                 22454M 22572M 22572  22578  22619M 22709M 22709  22715  22756M 22846M
                                                 22846  22852  22893M 22984M 22984  22990  23031M 23121M 23121  23127
                                                 23168M 23240  23241  23241  23241  23247M 23265M 23280M 23310M 23329M
                                                 23355M 23373M 23398M 23398  23477  23478  23478  23478  23484M 23502M
                                                 23517M 23547M 23566M 23592M 23610M 23635M 23635  23706  23706  23706
 R1            1 00000001 FFFFFFFF A   #     712  2160M  2161M  2167M  6677M  6765M  6896M  6896   6934   6935   6935
                                                  6935   7000M  7048M  7233M  7233   7271   7272   7272   7272   7337M
                                                  7385M  7614   7711   7814   7905   8025M  8068M  8069M  8070M  8150
                                                  8158M  8171   8172   8174   8190   8191   8191   8191   8195M  8219M
                                                  8408M  8430M  8463M  8485M  8583   9214M  9246M  9337   9365M  9437M
                                                  9465M  9541M  9673   9752M  9752   9754   9757   9762M  9765M  9768M
                                                  9771   9771M  9847   9848   9956M  9961M  9965M  9966   9967M  9967
                                                 10033M 10042  10100  10100  10100  10104  10104  10104  10343  10404M
                                                 10496M 10520M 10521  10530M 10552M 10569M 10610M 10610  10979  11042M
                                                 11138M 11162M 11163  11172M 11193M 11210M 11211M 11226M 11246M 11298M
                                                 11342M 11342  11637  11748M 11749M 11750  11751  11777M 11869M 11893M
                                                 11894  11903M 11949M 11998M 12070M 12076M 12106M 12114  12138M 12182M
                                                 12209M 12209  12357  12358  12358  12358  12687M 12703M 12730M 12757M
                                                 12827  12827  12827  15505  15616M 15617M 15618  15619  15645M 15739M
                                                 15763M 15764  15773M 15819M 15868M 15940M 15946M 15976M 15984  16008M
                                                 16050M 16078M 16078  16274  16324M 16677M 16691M 16718M 16755M 16769M
                                                 16770M 16799M 16837M 18578  18682M 18835  18872M 18912M 18924  18939
                                                 18978M 19022  19023  19023  19023  19060M 19080M 19219  19262M 19300M
                                                 19301  19302M 19347M 19421M 19493M 19544M 19724  19765M 19803M 19804
                                                 19805M 19918M 19940M 19978M 20011M 20243  20246  20389M 20426M 20633M
                                                 20761  20802  20983M 21055M 21201M 21282  21282  21282  21348M 21361
                                                 21362  21364  21401M 21417M 21584M 21878M 21945M 22174M 22193M 22292M
                                                 22315M 22334M 22414M 22433M 22618M 22755M 22892M 23030M 23167M 23240
                                                 23241  23241  23241  23246M 23264M 23280M 23309M 23328M 23350M 23372M
                                                 23477  23478  23478  23478  23483M 23501M 23517M 23546M 23565M 23587M
                                                 23609M 23706  23706  23706
 R12          12 0000000C FFFFFFFF A   #     855  2123
 R13          13 0000000D FFFFFFFF A   #     868  8166   8167   8168   8184   8185   8186  21356  21357  21358  21374
                                                 21375  21376
 R14          14 0000000E FFFFFFFF A   #     881  2098M  6676M  6677   6678   6682M  6682   6764M  6765   6766   6770M
                                                  6770   8149M  8150   8151   8155M  8155   8165M  8166   8167   8168
                                                  8173M  8174   8181M  8184   8185   8186   8194M  8195   8196   8200M
                                                  8200  10643M 10648M 10654  10655M 11350M 11355M 11361  11362M 11680M
                                                 11831M 12108M 12242M 12247M 12253  12254M 15548M 15701M 15978M 16111M
                                                 16116M 16122  16123M 18919M 19241M 19372M 21355M 21356  21357  21358
                                                 21363M 21364  21371M 21374  21375  21376  21494M 21494  21495M 21705M
                                                 21706  21710M 21710  21783M 21784  21788M 21788
 R15          15 0000000F FFFFFFFF A   #     894  2097   6705M  6705   6793M  6793   6989M  7039M  7057M  7062M  7083M
                                                  7083   7106M  7106   7129M  7129   7326M  7376M  7394M  7399M  7420M
                                                  7420   7443M  7443   7466M  7466   7638M  7638   7735M  7735   7838M
                                                  7838   7929M  7929   8001M  8034M  8046M  8047M  8050   8062M  8067
                                                  8070   8074M  8083M  8083   8090   8130M  8130   8187M  8187   8190
                                                  8191   8191   8191   8219M  8229M  8229   8249   8269   8289   8309
                                                  8329   8349   8371M  8397M  8417M  8453M  8472M  8496M  8496   8523M
                                                  8550M  8577M  8602M  8602   8812M  8831M  8831   8873M  8892M  8892
1UTIL     (UTIL2025) (12:58) (15MAR04) Ordinary Symbol and Literal Cross Reference                                          Page  126
                                                  8934M  8953M  8953   8995M  9014M  9014   9056M  9075M  9075   9117M
                                                  9136M  9136   9193M  9194   9223M  9244M  9279M  9279   9452M  9496M
                                                  9554M  9600M  9627M  9627   9790M  9790   9870M  9870  10066M 10066
                                                 10104  10104  10104  10310  10312M 10333M 10341  10367M 10417M 10458M
                                                 10509M 10543M 10592M 10661M 10685M 10685  10924  10953M 10972M 10977
                                                 11004M 11055M 11096M 11151M 11185M 11202M 11238M 11255M 11304M 11368M
                                                 11392M 11392  11632  11634M 11635  11660M 11663  11675M 11683M 11685
                                                 11790M 11811M 11814  11826M 11834M 11836  11882M 11916M 11962M 12013M
                                                 12086M 12114M 12124M 12124  12151M 12195M 12260M 12289M 12289  12360M
                                                 12363  12375M 12384M 12393M 12393  12400  12420M 12453M 12456  12468M
                                                 12477M 12486M 12486  12493  12512M 12696M 12722M 12739M 12772M 12802M
                                                 12802  15503  15528M 15531  15543M 15551M 15553  15658M 15681M 15684
                                                 15696M 15704M 15706  15752M 15786M 15832M 15883M 15956M 15984M 15994M
                                                 15994  16021M 16063M 16129M 16158M 16158  16434M 16438  16450M 16459M
                                                 16468M 16468  16475  16494M 16686M 16710M 16727M 16764M 16791M 16808M
                                                 16827M 16829  16857M 16897M 16897  18617M 18621M 18630M 18630  18637
                                                 18657  18695M 18730M 18730  18836  18858M 18899M 18899  18919  18923M
                                                 18923  18924M 18933M 18933  18940M 18941  19000M 19001M 19002M 19015
                                                 19044M 19073M 19105M 19138M 19167M 19167  19241  19242M 19245  19257M
                                                 19262  19265M 19274M 19274  19281  19324M 19356M 19372  19378M 19385
                                                 19445M 19508M 19553M 19586M 19586  19725  19745M 19748  19760M 19765
                                                 19768M 19777M 19777  19784  19884M 19931M 19949M 19959M 20002M 20020M
                                                 20092M 20124M 20124  20244  20326M 20353M 20370M 20518M 20646M 20680M
                                                 20680  20821M 20821  20911M 20911  20945M 20973M 21023M 21046M 21081M
                                                 21081  21133M 21133  21169M 21192M 21227M 21227  21377M 21377  21387M
                                                 21447M 21447  21490M 21504M 21504  21530  21545  21554  21638M 21657M
                                                 21657  21714M 21714  21718M 21718  21737M 21737  21792M 21792  21798M
                                                 21798  21817M 21817  21864M 21885M 21920M 21952M 21953  21956M 21975M
                                                 21975  22141  22142M 22143  22186M 22238M 22301M 22327M 22379M 22426M
                                                 22478M 22506M 22506  22578M 22581  22593M 22600M 22602  22643M 22643
                                                 22715M 22718  22730M 22737M 22739  22780M 22780  22852M 22855  22867M
                                                 22874M 22876  22917M 22917  22990M 22993  23005M 23012M 23014  23055M
                                                 23055  23127M 23130  23142M 23149M 23151  23192M 23192  23255M 23273M
                                                 23300M 23318M 23337M 23363M 23381M 23406M 23429M 23429  23492M 23510M
                                                 23537M 23555M 23574M 23600M 23618M 23643M 23666M 23666
 R2            2 00000002 FFFFFFFF A   #     725  7980M  8014M  8014   9338M  9546   9846M  9846   9847M  9848M 10438M
                                                 10441  10453M 10461M 10463  10521M 10535  10598M 10599  10600  10611M
                                                 10623  10631M 10648  10657  10934M 10934  10947M 10947  10965  11100M
                                                 11100  11208M 11209M 11216  11226  11270M 11303  11309M 11328  11336M
                                                 11355  11364  11894M 11908  11922  11923  12027M 12041M 12041  12166M
                                                 12210M 12222  12230M 12247  12256  15764M 15778  15792  15793  15897M
                                                 15911M 15911  16036M 16079M 16091  16099M 16116  16125  16352M 16356M
                                                 16365M 16365  16372  16393M 16835M 16849  18597M 18600  18612M 18617
                                                 18687  18895M 18895  18906M 18912  18914M 18939  18941  18946M 18962
                                                 19385M 19395M 19395  19690M 19690  19696  19716M 20250M 20267  20436M
                                                 20452  20468  20520M 20539M 20560M 20596M 20761M 20765M 20767M 20769
                                                 20772  20792M 20795M 20907M 20907  20926M 20927M 20927  20939  20967M
                                                 20967  21004M 21005M 21005  21017  21040  21129M 21129  21150M 21151M
                                                 21151  21163  21186  21489M 21590M 21620  21635  22152M 22152  22154M
                                                 22243  22254M 22254  22256M 22384  22560M 22697M 22834M 22972M 23109M
                                                 23350  23587
 R3            3 00000003 FFFFFFFF A   #     738  9337M  9541   9842M  9849   9969M  9975M 10365M 10370M 10372  11002M
                                                 11007M 11009  11076M 11079  11091M 11103M 11105  11163M 11177  11261M
                                                 11262  11263  12026M 12063M 12075  12092M 12093  12094  12130M 12143
                                                 12156  12157  12164M 12451M 12453  12674  15896M 15933M 15945  15962M
                                                 15963  15964  16000M 16013  16026  16027  16034M 16821M 16829M 18834M
                                                 18848M 18848  18979  19111M 19218M 19231M 19231  19242  19304M 19337M
                                                 19337  19452M 19465M 19465  19531M 19531  19696M 19697M 19709M 19709
                                                 19723M 19739M 19739  19745  19807M 19902M 19902  20028M 20452M 20468M
1UTIL     (UTIL2025) (12:58) (15MAR04) Ordinary Symbol and Literal Cross Reference                                          Page  127
                                                 20478M 20608M 20755M 20766M 20776  20796M 21545M 21589M 21590  21699M
                                                 21701  21701M 21883M 21884  21899  21911  21952  22153M 22163M 22163
                                                 22174  22206  22255M 22265M 22265  22315  22347  23355  23592
 R4            4 00000004 FFFFFFFF A   #     751 10344M 10359  10365  10432M 10432  10438  10501  10600M 10980M 10996
                                                 11002  11070M 11070  11076  11143  11263M 11638M 11639  11654M 11654
                                                 11660  11712M 11751M 11767M 11805M 11805  11811  11874  11923M 11936
                                                 11954  12019M 12027  12094M 12157M 12187  15506M 15507  15522M 15522
                                                 15528  15580M 15619M 15635M 15675M 15675  15681  15744  15793M 15806
                                                 15824  15889M 15897  15964M 16027M 16055  16399M 16409U 16423M 16423
                                                 16665M 18835M 19110M 19219M 19300  19302  19303M 19450M 19724M 19803
                                                 19805  19806M 20026M 20479M 20495  20551  20580  20616M 20772M 20773M
                                                 20791  21546M 21562M 21620  21779M 21794  21794M 21885  21934  22145M
                                                 22153  22243M 22255  22384M
 R5            5 00000005 FFFFFFFF A   #     764 10343M 10496  10520  10530  10599M 10979M 11138  11162  11172  11262M
                                                 11637M 11639  11748  11750M 11767M 11869  11893  11903  11922M 11949
                                                 12018M 12026  12063  12070  12093M 12130  12138  12156M 12182  12423M
                                                 12424M 12674M 12675M 15505M 15507  15616  15618M 15635M 15739  15763
                                                 15773  15792M 15819  15888M 15896  15933  15940  15963M 16000  16008
                                                 16026M 16050  18579M 18591M 18591  18597  18701M 18836M 19065  19361M
                                                 19454M 19476M 19476  19513M 19725M 19923  20247M 20346M 20346  20506M
                                                 20506  20613M 21859M 21864  21893M 22141M 22143M 22145  22281  22403
                                                 22414  22446
 R6            6 00000006 FFFFFFFF A   #     777  7595M  7692M  7789M  7892M  7978U  9674M  9675   9677   9756M  9759M
                                                 11610M 11620U 12350U 15481M 15491U 16262U 18578M 18700M 18832M 18886M
                                                 18886  20246M 20353  20611M 20762M 20767  20773  20792  21387  21635M
                                                 21637  21637M 21884M 21899M 21934  21953M 21955  21955M
 R7            7 00000007 FFFFFFFF A   #     790  2090M  2090   2091B  2103B
 R8            8 00000008 FFFFFFFF A   #     803  7591U  7688U  7785U  7888U  9945U 10299U 10913U 11606U 15477U 16249U
                                                 18574U 18828U 19666U 20239U
 SCANCHK       1 00000000 00000016     T   23683 23683
 SCINIT        1 00000000 00000009     T   10088 10088
 SCNCHECK      2 00000054 00000001     H    6727  6723
 SCNIGNOR      2 00000018 00000001     H    6639  6635
 SDSNQSZ       1 0000002C FFFFFFEC A   U    6078  6079   6080
 SEG           1 00000000 00000006     T   10082 10082  10716  11407  12816  16910  21265  23697
 SEGB          1 00000000 00000010     T   21271 21271
 SEGCR         1 00000000 00000005     T   10080 10080  21270  23700
 SEGDC         1 00000000 00000019     T   23695 23695
 SEGINIT       1 00000000 0000000D     T   10715 10715  11406  12815  16909
 SEGWR         1 00000000 0000001A     T   23701 23701
 SELDEL        4 00000942 00000001     I    9765  9755B
 SELDELTA      2 000008FE 00000001     H    9717  9713
 SELEXIT       4 0000094E 00000001     I    9771  9763B  9766B
 SELGOT        4 0000094A 00000001     I    9768  9758B
 SELOOP        4 0000092A 00000001     I    9757  9760B
 SELTBLE       2 00000960 00000001     H    9793  9756
 SEL001        4 0000093A 00000001     I    9762  9753B
 SMONTHS       2 000037AC 00000001     H   22087 21884
 SPR          13 0000000D 00000001 A   #    1112  6645   6648   6649   6650M  6650   6697M  6701   6703   6733   6736
                                                  6737   6738M  6738   6785M  6789   6791   6822   6825   6826   6827M
                                                  6827   7121M  7125   7127   7159   7162   7163   7164M  7164   7458M
                                                  7462   7464   7556   7559   7561   7562M  7562   7630M  7634   7636
                                                  7653   7656   7658   7659M  7659   7727M  7731   7733   7750   7753
                                                  7755   7756M  7756   7830M  7834   7836   7853   7856   7858   7859M
                                                  7859   7921M  7925   7927   7942   7945   7946   7947M  7947   8594M
                                                  8598   8600   8783   8786   8787   8788M  8788   8823M  8827   8829
                                                  8844   8847   8848   8849M  8849   8884M  8888   8890   8905   8908
                                                  8909   8910M  8910   8945M  8949   8951   8966   8969   8970   8971M
                                                  8971   9006M  9010   9012   9027   9030   9031   9032M  9032   9067M
1UTIL     (UTIL2025) (12:58) (15MAR04) Ordinary Symbol and Literal Cross Reference                                          Page  128
                                                  9071   9073   9088   9091   9092   9093M  9093   9128M  9132   9134
                                                  9164   9167   9168   9169M  9169   9271M  9275   9277   9308   9311
                                                  9312   9313M  9313   9619M  9623   9625   9644   9647   9648   9649M
                                                  9649   9694M  9698   9700   9723   9726   9727   9728M  9728   9782M
                                                  9786   9788   9813   9816   9817   9818M  9818   9862M  9866   9868
                                                  9910   9913   9915   9916M  9916  10058M 10062  10064  10264  10267
                                                 10269  10270M 10270  10677M 10681  10683  10878  10881  10883  10884M
                                                 10884  11384M 11388  11390  11571  11574  11576  11577M 11577  12281M
                                                 12285  12287  12312  12315  12316  12317M 12317  12794M 12798  12800
                                                 15442  15445  15447  15448M 15448  16150M 16154  16156  16214  16217
                                                 16219  16220M 16220  16889M 16893  16895  18539  18542  18544  18545M
                                                 18545  18722M 18726  18728  18793  18796  18798  18799M 18799  19159M
                                                 19163  19165  19189  19192  19193  19194M 19194  19578M 19582  19584
                                                 19631  19634  19636  19637M 19637  20116M 20120  20122  20204  20207
                                                 20209  20210M 20210  20672M 20676  20678  20719  20722  20723  20724M
                                                 20724  20813M 20817  20819  20875  20878  20879  20880M 20880  21073M
                                                 21077  21079  21097  21100  21101  21102M 21102  21219M 21223  21225
                                                 21317  21320  21321  21322M 21322  21439M 21443  21445  21460  21463
                                                 21464  21465M 21465  21649M 21653  21655  21670  21673  21674  21675M
                                                 21675  21729M 21733  21735  21750  21753  21754  21755M 21755  21809M
                                                 21813  21815  21830  21833  21834  21835M 21835  21967M 21971  21973
                                                 22112  22115  22116  22117M 22117  22498M 22502  22504  22531  22534
                                                 22535  22536M 22536  22635M 22639  22641  22668  22671  22672  22673M
                                                 22673  22772M 22776  22778  22805  22808  22809  22810M 22810  22909M
                                                 22913  22915  22943  22946  22947  22948M 22948  23047M 23051  23053
                                                 23080  23083  23084  23085M 23085  23184M 23188  23190  23210  23213
                                                 23214  23215M 23215  23421M 23425  23427  23447  23450  23451  23452M
                                                 23452  23658M 23662  23664
 SQSHRTN       2 0000317A 00000001     H   20713 20709
 SQSHXIT       4 000031DC 00000001     I   20802 20768B 20770B
 TEXTONLY      2 00001C9A 00000001     H   15435 11408  15431
 TEXTTOK       2 00001E70 00000001     H   16207 16912
 TFMTBUF    2000 000000B0 FFFFFFE2     X   15419 15645  15650
 TFMTCOPY      4 00001E32 00000001     I   16078 15757B 15837B 16068B
 TFMTEXIT      4 00001E5E 00000001     I   16129 15630B
 TFMTFLAG      1 00000000 FFFFFFE2     R   15319 15325  15325
 TFMTINIT     20 00000000 FFFFFFE2     X   15325 15502M 15502
 TFMTLOOP      2 00001D26 00000001     H   15667 15890B 15965B 16028B
 TFMTMAXL      4 00000008 FFFFFFE2     F   15323 15503M 16091  16099
 TFMTRC        4 00000004 FFFFFFE2     F   15322 16098M 16129
 TFMTSAVE      4 0000000C FFFFFFE2     A   15324 15507M 15635
 TFMTSCAN      4 00001D10 00000001     I   15635 15610B
 TFMTSG       60 00000074 FFFFFFE2     X   15418 15658  15752  15786  15832  15883  15956  16021  16063  16686  16710
                                                 16727  16764  16791  16808  16857
 TFMTSGCOD
               1 00000074 FFFFFFE2     R   15335 15344  15354  15364  15374  15384  15394  15404
 TFMTSGLENF
               4 00000080 FFFFFFE2     A   15410 16079
 TFMTSGLOC
               4 00000094 FFFFFFE2     A   15414 16121
 TFMTWA     2176 00000000 FFFFFFE2     J   15426 15448  15477U 15481  15491U 16154  16156  16157  16262U
 TMONTHS       2 000037DC 00000001     H   22089 21952
 TOASCII       2 0000398A 00000001     H   22799 22795
 TOEBCDIC      2 000038E6 00000001     H   22525 22521
 TOEBC7        2 00003938 00000001     H   22662 22658
 TOEVENP       2 000039DC 00000001     H   22937 22933
 TOUPPER       2 00003A2E 00000001     H   23074 23070
 TRC           1 00000000 00000000 A   T    2119  2119
 TREADQ        1 00000000 00000007     T   10085 10085
1UTIL     (UTIL2025) (12:58) (15MAR04) Ordinary Symbol and Literal Cross Reference                                          Page  129
 TTOKEXIT      2 00002004 00000001     H   16866 16732B 16813B
 TTOKFDISPLAYONLY
             128 00000000 FFFFFFE1        16185 16323M 16746
 TTOKFLAG      1 00000000 FFFFFFE1     R   16181 16185
 TTOKMAT       2 00001F9E 00000001     H   16738 16532B 16582B 16650B
 TTOKPTRS      4 00000004 FFFFFFE1     A   16189 16274M 16691  16769
 TTOKSEQ      32 0000000C FFFFFFE1     C   16190 16351M 16379M 16392  16579  16647  16916
 TTOKSEQL     32 0000002C FFFFFFE1     C   16191 16392M 16394M 16529  16629
 TTOKTOK      32 0000004C FFFFFFE1     C   16192 16455M 16482M 16495M 16529  16579  16629  16647  16918
 TTOKWA      108 00000000 FFFFFFE1     J   16199 16220  16249U 16273M 16273  16893  16895  16896
 TTYFLAG       1 00000004 FFFFFFEA     R    6207  6211
 TTYMAX#       1 00000006 FFFFFFEA A   U    6263  6264
 TTYTFLAG      1 00000005 FFFFFFEA     R    6217  6221   6226   6231   6236   6241   6246   6251
 UFMTBUF    2000 000000B4 FFFFFFE4     X   11548 11777  11782
 UFMTCOPY      4 000011B2 00000001     I   12209 11887B 11967B 12200B
 UFMTENT      32 00000018 FFFFFFE4     C   11456 12473M 12500M 12513M 12542  12590  12638  12822
 UFMTEXIT      4 000011DE 00000001     I   12260 11762B
 UFMTFLAG      1 00000000 FFFFFFE4     R   11447 11454  11454
 UFMTINIT     24 00000000 FFFFFFE4     X   11454 11631M 11631
 UFMTLOOP      2 000010AA 00000001     H   11798 12020B 12095B 12158B
 UFMTMAXL      4 0000000C FFFFFFE4     F   11452 11632M 12222  12230
 UFMTRC        4 00000008 FFFFFFE4     F   11451 12229M 12260
 UFMTSAVE      4 00000010 FFFFFFE4     A   11453 11639M 11767
 UFMTSCAN      4 00001094 00000001     I   11767 11742B
 UFMTSG       60 00000078 FFFFFFE4     X   11547 11790  11882  11916  11962  12013  12086  12151  12195  12696  12722
                                                 12739  12772
 UFMTSGCOD
               1 00000078 FFFFFFE4     R   11464 11473  11483  11493  11503  11513  11523  11533
 UFMTSGLENF
               4 00000084 FFFFFFE4     A   11539 12210
 UFMTSGLOC
               4 00000098 FFFFFFE4     A   11543 12252
 UFMTTABP      4 00000004 FFFFFFE4     A   11450 11635M 12423
 UFMTTOK      32 00000038 FFFFFFE4     C   11457 12380M 12407M 12419  12590  12656  12821
 UFMTTOKL     32 00000058 FFFFFFE4     C   11458 12419M 12421M 12542  12638  12656
 UFMTWA     2180 00000000 FFFFFFE4     J   11555 11577  11606U 11610  11620U 12285  12287  12288  12350U
 UFORMTOK      2 000011F0 00000001     H   12306 12818
 UNFORML       2 00001016 00000001     H   11564 11560
 UPPTBL        1 00000000 00000000 A   T    2182  2182
 USEQEXIT      2 00001322 00000001     H   12781 12744B
 USEQMAT       4 00001310 00000001     I   12757 12545B 12593B 12659B
 UTIL2025      1 00000000 00000001     R     999   997
 WAR           8 00000008 00000001 A   #    1035  6649M  6697   6737M  6785   6826M  7121   7163M  7458   7561M  7614
                                                  7630   7658M  7711   7727   7755M  7814   7830   7858M  7905   7921
                                                  7946M  8583   8594   8787M  8823   8848M  8884   8909M  8945   8970M
                                                  9006   9031M  9067   9092M  9128   9168M  9271   9312M  9619   9648M
                                                  9681   9694   9727M  9771   9782   9817M  9851   9862   9915M 10042
                                                 10058  10269M 10336  10610  10659  10677  10883M 11342  11366  11384
                                                 11576M 12209  12258  12281  12316M 12794  15447M 16078  16127  16150
                                                 16219M 16889  18544M 18722  18798M 19159  19193M 19578  19636M 20116
                                                 20209M 20672  20723M 20802  20813  20879M 21073  21101M 21219  21321M
                                                 21439  21464M 21637  21649  21674M 21701  21729  21754M 21794  21809
                                                 21834M 21955  21967  22116M 22498  22535M 22635  22672M 22772  22809M
                                                 22909  22947M 23047  23084M 23184  23214M 23421  23451M 23658
 WTOSG         1 00000000 00000000 A   T    2079  2079
 WYLUTIL       1 00000000 00000001     J     990   992   1017   1030   1043   1055   1068   1081   1094   1107   1120
                                                  1133   2363   2447   6187   6299   6611   6617   7540   8103   9895
 XTB           1 00000000 00000018     T   23685 23685
 YEARDAT       2 00003614 00000001     H   21824 22069
1UTIL     (UTIL2025) (12:58) (15MAR04) Ordinary Symbol and Literal Cross Reference                                          Page  130
 YEARPRT       4 00003758 00000001     F   22057 23691
 YESABORT      2 000006D4 00000001     H    8838  8681   8696
 YESAGAIN      4 0000045A 00000001     I    8408  8232B  8332B  8377B
 YESATTN       2 000004CC 00000001     H    8555  8135B
 YESCOMN       2 00000300 00000001     H    7936 10083
 YESDO         2 000006A8 00000001     H    8777  8636   8651   8666
 YESDUUHH      2 00000758 00000001     H    9021  8771
 YESEXIT       2 000004DC 00000001     H    8581  8372B  8398B  8454B  8497B  8524B  8551B  8578B
 YESFHELP     32 00000000 FFFFFFE8         7528  7802M  8364
 YESFLAG       1 00000000 FFFFFFE8     R    7514  7518   7523   7528   7602M  7699M  7796M  7899M
 YESFRTN     128 00000000 FFFFFFE8         7518  7705M  7808M  8391   8447   8513   8513   8514   8540   8540   8541
                                                  8567   8567   8568
 YESFYESNO
              64 00000000 FFFFFFE8         7523  7608M  8513   8513   8540   8540   8567   8567
 YESHELP       2 00000784 00000001     H    9082  8741   8756
 YESHMMM       2 0000072C 00000001     H    8960  8621
 YESLEN        2 00000002 FFFFFFE8     H    7531  8067M  8434   8489
 YESLOOP       2 00000370 00000001     H    8116  8435B  8490B
 YESNO         2 00000208 00000001     H    7549  7545
 YESNOPE       2 000004AC 00000001     H    8501  8272B
 YESNULL       2 00000478 00000001     H    8439  8312B
 YESQ          2 00000700 00000001     H    8899  8711   8726
 YESQUIT       2 000004BC 00000001     H    8528  8292B
 YESREQ        2 000002C6 00000001     H    7846  7842
 YESRQPRT      4 000004F0 00000001     F    8609 10086
 YESRTN        2 00000246 00000001     H    7646  7642
 YESRTNH       2 00000284 00000001     H    7743  7739
 YESTEXT     120 00000004 FFFFFFE8     C    7532  8097M  8430   8485  10084
 YESWA       124 00000000 FFFFFFE8     J    7539  7562   7591U  7595   7634   7636   7637   7659   7688U  7692   7731
                                                  7733   7734   7756   7785U  7789   7834   7836   7837   7859   7888U
                                                  7892   7925   7927   7928   7978U
 YESYES        2 000004A6 00000001     H    8494  8252B
 =A(-4)        4 00003430 00000001     A   21280 20945  21046  21192
 =A(-8)        4 0000135C 00000001     A   12823 12675
 =A(APPLETAB)
               4 00000FF0 00000001     A   11404 10972
 =A(APPLETAB)
               4 00001330 00000001     A   12812 11634
 =A(ASCIITBL)
               4 0000341C 00000001     A   21275 20250
 =A(CHECKEND)
               4 00000A74 00000001     A   10079  6773
 =A(DAYPRT)
               4 00003C3C 00000001     A   23690 21706
 =A(FCHARTBL)
               4 00002040 00000001     A   16917 16399
 =A(FMTTAB)
               4 00000FE8 00000001     A   11402 10953
 =A(FORMCTAB)
               4 0000134C 00000001     A   12819 12108
 =A(FORMCTAB)
               4 00002030 00000001     A   16913 15978
 =A(FORMSTRT)
               4 00001338 00000001     A   12814 11680  11831
 =A(FORMSTRT)
               4 0000201C 00000001     A   16908 15548  15701
 =A(IGNOREND)
               4 00000A70 00000001     A   10078  6685
 =A(JDATPRT)
1UTIL     (UTIL2025) (12:58) (15MAR04) Ordinary Symbol and Literal Cross Reference                                          Page  131
               4 00003C18 00000001     A   23681 21363
 =A(L'CHARTEXT)
               4 000033F0 00000001     A   21264 18600  18612
 =A(L'TTOKSEQ)
               4 0000203C 00000001     A   16916 16334  16346
 =A(L'TTOKTOK)
               4 00002044 00000001     A   16918 16438  16450
 =A(L'UFMTENT)
               4 00001358 00000001     A   12822 12456  12468
 =A(L'UFMTTOK)
               4 00001354 00000001     A   12821 12363  12375
 =A(L'YESTEXT)
               4 00000A88 00000001     A   10084  8050   8062
 =A(LISTLINE)
               4 00000ABC 00000001     A   10097  9254
 =A(TEXTONLY)
               4 00001000 00000001     A   11408 11307
 =A(TEXTTOK)
               4 0000202C 00000001     A   16912 15959
 =A(UFORMTOK)
               4 00001348 00000001     A   12818 12089
 =A(X'FF')
               4 00003414 00000001     A   21273 19697
 =A(YEARPRT)
               4 00003C40 00000001     A   23691 21784
 =A(YESCOMN)
               4 00000A84 00000001     A   10083  7611   7708   7811   7902
 =A(YESRQPRT)
               4 00000A90 00000001     A   10086  8173
 =A(1)         4 00003420 00000001     A   21276 20478  20539  20560  20596  20608  20611  20616  20983  21055  21201
 =A(1)         4 00003C5C 00000001     A   23696 22206  22347  22446
 =A(1000)      4 00003C2C 00000001     A   23686 21495
 =A(12)        4 00000AA4 00000001     A   10091  8289
 =A(12)        4 0000342C 00000001     A   21279 20939  21040  21186
 =A(16)        4 00000AA8 00000001     A   10092  8309
 =A(16)        4 00003424 00000001     A   21277 20495
 =A(2*2)       4 00003C44 00000001     A   23692 21911
 =A(2)         4 00000AC4 00000001     A   10099 10026
 =A(2)         4 00000FEC 00000001     A   11403 10965
 =A(2)         4 00002038 00000001     A   16915 16293
 =A(20)        4 00000AAC 00000001     A   10093  8329
 =A(24)        4 00000AB0 00000001     A   10094  8349
 =A(256)       4 00000E58 00000001     A   10714 10359  10441  10453
 =A(256)       4 00000FF4 00000001     A   11405 10996  11079  11091
 =A(256)       4 00001334 00000001     A   12813 11663  11675  11814  11826
 =A(256)       4 00002018 00000001     A   16907 15531  15543  15684  15696
 =A(256)       4 00003410 00000001     A   21272 19245  19257  19748  19760
 =A(256)       4 00003C68 00000001     A   23699 22581  22593  22718  22730  22855  22867  22993  23005  23130  23142
 =A(30)        4 00000A7C 00000001     A   10081  7003   7015   7340   7352
 =A(4)         4 00000A9C 00000001     A   10089  8249
 =A(4)         4 00001344 00000001     A   12817 11936
 =A(4)         4 00002028 00000001     A   16911 15806
 =A(4)         4 00003404 00000001     A   21269 18982  18994  21017  21163
 =A(60*60)
               4 00003C54 00000001     A   23694 22154  22281
 =A(60)        4 00003C64 00000001     A   23698 22256  22403
 =A(8)         4 00000AA0 00000001     A   10090  8269
 =A(8)         4 00003400 00000001     A   21268 18962  20551
 =A(99)        4 00003C34 00000001     A   23688 21530
1UTIL     (UTIL2025) (12:58) (15MAR04) Ordinary Symbol and Literal Cross Reference                                          Page  132
 =C'  -- ignored. '
              14 00000ACA 00000001     C   10101  7048
 =C'  -- invalid. '
              14 00000AD8 00000001     C   10102  7385
 =C' (Yes/No)'
               9 00000AEE 00000001     C   10107  8025
 =C' and '
               5 00003C87 00000001     C   23708 22292
 =C' hours'
               6 00003C78 00000001     C   23704 22193
 =C' minutes'
               8 00003BF0 00000001     C   23676 22334
 =C' seconds'
               8 00003BF8 00000001     C   23677 22433
 =C'<:'        2 00001362 00000001     C   12825 11739  11983
 =C'<:'        2 0000204A 00000001     C   16920 15607  15853
 =C'<'         1 00001008 00000001     C   11410 11193
 =C'<'         1 00001368 00000001     C   12828 12687
 =C'<'         1 00002050 00000001     C   16923 16677  16755
 =C'<'         1 0000343C 00000001     C   21285 19347  19940
 =C'>'         1 00001009 00000001     C   11411 11246
 =C'>'         1 00001369 00000001     C   12829 12730
 =C'>'         1 00002051 00000001     C   16924 16718  16799
 =C'>'         1 0000343D 00000001     C   21286 19544  20011
 =C'::'        2 0000204E 00000001     C   16922 16309
 =C'"'         1 00003C8C 00000001     C   23709 23309  23372  23546  23609
 =C'Answer YES or NO.'
              17 00000AF7 00000001     C   10108  8408   8463
 =C'DECRYPT '
               8 00003C10 00000001     C   23680 23483
 =C'ENCRYPT '
               8 00003C00 00000001     C   23678 23246
 =C'INVALID DATE'
              12 00003C48 00000001     C   23693 21945
 =C'Key = "'
               7 00003C8D 00000001     C   23710 23328  23565
 =C'No previous line.'
              17 00000B08 00000001     C   10109  9214
 =C'Text = "'
               8 00003C08 00000001     C   23679 23264  23501
 =C'00000'
               5 00003C82 00000001     C   23707 21406
 =C'0123456789ABCDEF'
              16 000033E0 00000001     C   21263 20515
 =F'-8'        4 00000E68 00000001     F   10718 10550
 =F'3'         4 00003428 00000001     F   21278 20581
 =F'3'         4 00003C38 00000001     F   23689 21555  21893
 =F'4'         4 00000E6C 00000001     F   10719 10630
 =F'4'         4 00001004 00000001     F   11409 11335
 =F'4'         4 00001350 00000001     F   12820 12229
 =F'4'         4 00002034 00000001     F   16914 16098
 =F'8'         4 00000E64 00000001     F   10717 10549
 =H'-4'        2 00000AEA 00000001     H   10105  8550   8577
 =H'1'         2 00001364 00000001     H   12826 12019
 =H'1'         2 0000204C 00000001     H   16921 15889
 =H'256'       2 00001360 00000001     H   12824 11712
 =H'256'       2 00002048 00000001     H   16919 15580
 =H'256'       2 00003C7E 00000001     H   23705 22619  22756  22893  23031  23168
 =H'9'         2 00000AEC 00000001     H   10106  9968
1UTIL     (UTIL2025) (12:58) (15MAR04) Ordinary Symbol and Literal Cross Reference                                          Page  133
 =V(BTD)       4 00003C24 00000001     V   23684 21404  21587  21881
 =V(BTX)       4 000033F8 00000001     V   21266 18875  19424  19981  20392  20429
 =V(CVEXNO)
               4 00000AC0 00000001     V   10098  9425
 =V(GETLINE)
               4 00000AB8 00000001     V   10096  9250
 =V(GTMIXTBL)
               4 000033FC 00000001     V   21267 18917  19239  19370
 =V(MIXFMT)
               4 00003418 00000001     V   21274 19825
 =V(NOTVALID)
               4 00003C30 00000001     V   23687 21513  21539  21605  21629
 =V(NSCAN)
               4 00000A94 00000001     V   10087  8177
 =V(NSCAN)
               4 00003C1C 00000001     V   23682 21367
 =V(PREVLNO)
               4 00000AB4 00000001     V   10095  9197
 =V(SCANCHK)
               4 00003C20 00000001     V   23683 21381
 =V(SCINIT)
               4 00000A98 00000001     V   10088  8215
 =V(SEG)       4 00000A80 00000001     V   10082  7042   7379   8004   8037   9455   9499   9557
 =V(SEG)       4 00000E60 00000001     V   10716 10512  10546  10595
 =V(SEG)       4 00000FFC 00000001     V   11407 11154  11188  11205  11241  11258
 =V(SEG)       4 00001340 00000001     V   12816 11885  11919  11965  12016  12154  12198  12699  12725  12742  12775
 =V(SEG)       4 00002024 00000001     V   16910 15755  15789  15835  15886  16024  16066  16689  16713  16730  16767
                                                 16794  16811  16860
 =V(SEG)       4 000033F4 00000001     V   21265 18698  19076  19327  19359  19448  19511  19556  19934  19952  20005
                                                 20023
 =V(SEG)       4 00003C60 00000001     V   23697 22241  22304  22382  22481  23258  23276  23303  23340  23366  23495
                                                 23513  23540  23577  23603
 =V(SEGB)      4 0000340C 00000001     V   21271 19108
 =V(SEGCR)
               4 00000A78 00000001     V   10080  6992   7060   7329   7397   8420   8475   9226   9603
 =V(SEGCR)
               4 00003408 00000001     V   21270 19047  19141  19887  20095  20329  20649
 =V(SEGCR)
               4 00003C6C 00000001     V   23700 23321  23384  23558  23621
 =V(SEGDC)
               4 00003C58 00000001     V   23695 22189  22330  22429
 =V(SEGINIT)
               4 00000E5C 00000001     V   10715 10420
 =V(SEGINIT)
               4 00000FF8 00000001     V   11406 11058
 =V(SEGINIT)
               4 0000133C 00000001     V   12815 11793
 =V(SEGINIT)
               4 00002020 00000001     V   16909 15661
 =V(SEGWR)
               4 00003C70 00000001     V   23701 23409  23646
 =V(TREADQ)
               4 00000A8C 00000001     V   10085  8133
 =V(XTB)       4 00003C28 00000001     V   23685 21427
 =X'0F0F'      2 0000343A 00000001     X   21284 20514
 =Y((R1+1-(R0)+16*((R0)/(R1+1))/((R0)/(R1+1)))*4)
               2 00000AC8 00000001     Y   10100  6999   7336
 =Y((R1+1-(R0)+16*((R0)/(R1+1))/((R0)/(R1+1)))*4)
               2 00001366 00000001     Y   12827 12702
1UTIL     (UTIL2025) (12:58) (15MAR04) Ordinary Symbol and Literal Cross Reference                                          Page  134
 =Y((R1+1-(R0)+16*((R0)/(R1+1))/((R0)/(R1+1)))*4)
               2 00003436 00000001     Y   21282 19079
 =Y((R1+1-(R0)+16*((R0)/(R1+1))/((R0)/(R1+1)))*4)
               2 00003C80 00000001     Y   23706 23279  23516
 =Y((R1+1-(R15)+16*((R15)/(R1+1))/((R15)/(R1+1)))*4)
               2 00000AE8 00000001     Y   10104  8218
 =Y((12+3)/4*4)
               2 00000AE6 00000001     Y   10103  8183
 =Y((12+3)/4*4)
               2 00003C74 00000001     Y   23702 21373
 =Y(L'CHARTEXT)
               2 00003434 00000001     Y   21281 18701
 =Y(1000)      2 00003C76 00000001     Y   23703 21589
 =Y(4)         2 00003438 00000001     Y   21283 19111
 =8X'20'       1 00000E50 00000001     X   10713 10569

1UTIL     (UTIL2025) (12:58) (15MAR04) Macro and Copy Code Source Summary                                                   Page  135
- Con Source                                        Volume    Members                        HLASM R4.0  2004/03/15 12.58
0     PRIMARY INPUT                                           ACHAR    CSECT    DROP     END      EX       FCHAR
                                                              LTORG    POP      PRINT    PUSH     START    USING
   L1 WYL.GS.WYL.WYLBUR.MACLIB                      SYSB05    AINFO    BASE     BTD      BTX      COLINFO  CONTROL  CP
                                                              CPLOCAL  CV       CVLOCAL  ERROR    JCB      OSCINIT  RG
                                                              RTNCODES SCAN     SCANCB   SCANCHK  SCCBADR  SCINFO
                                                              SCINIT   SCKW     SCPOP    SCPUSH   SEGINIT  SETSCKWS TCCR
                                                              TCR      TNUM     TREAD    TSEG     TTYPE    TWRITE   XTB
                                                              XTRACE
   L2 WYL.GG.SYS.MACLIB                             SYSB05    $BC      $BFLKUP  $BV      $CCLKUP  $CRS     $CSS     $L
                                                              $LA      $LBLAD   $LEXP    $LOR     $REL     $RGLKUP
                                                              $USLKUP  ACALL    ASCGEN   BEGIN    CEIL     CLEAR
                                                              COMPROC  CSECT    DATA     DECR     DEFCC    DEX      DROP
                                                              DTEX     ELSE     ELSEIF   END      EX       FLAG     GEN
                                                              HIBAL    IDENT    IF       INCR     LABEL    LC       LOOP
                                                              LS       LTORG    MOVE     MOVEL    PEND     POP
                                                              PRESTORE PRETURN  PRINT    PROC     PUSH     QLTORG
                                                              RECORD   REG      REGS     SET      SETMSG   START
                                                              UNTIL    USING    VCALL    WHILE    WITH     XPROC
   L3 SYS3.IS.MACLIB                                SYSB05    ACHARSYM FCHARSYM SEG      SEGCB    SEGCR    SEGDC
                                                              SEGDEF   SEGLD    SEGWR    SIB      SYSDEFN  XPOP
                                                              XPUSH

1UTIL     (UTIL2025) (12:58) (15MAR04) Dsect Cross Reference                                                                Page  136
-Dsect     Length      Id       Defn                                                         HLASM R4.0  2004/03/15 12.58
0$$$@R0   00000000  FFFFFFFE     705
 $$$@R1   00000000  FFFFFFFD     718
 $$$@R10  00000000  FFFFFFF4     835
 $$$@R11  00000000  FFFFFFF3     848
 $$$@R12  00000000  FFFFFFF2     861
 $$$@R13  00000000  FFFFFFF1     874
 $$$@R14  00000000  FFFFFFF0     887
 $$$@R15  00000000  FFFFFFEF     900
 $$$@R2   00000000  FFFFFFFC     731
 $$$@R3   00000000  FFFFFFFB     744
 $$$@R4   00000000  FFFFFFFA     757
 $$$@R5   00000000  FFFFFFF9     770
 $$$@R6   00000000  FFFFFFF8     783
 $$$@R7   00000000  FFFFFFF7     796
 $$$@R8   00000000  FFFFFFF6     809
 $$$@R9   00000000  FFFFFFF5     822
 $$$RCHARWA
          00000040  FFFFFFE0   18510
 $$$RCP   00001000  FFFFFFEC    2452
 $$$RCV   00000FB0  FFFFFFEE    1177
 $$$RCVEXWA
          00000010  FFFFFFE7    9881
 $$$RDEV  0000000C  FFFFFFEB    4666
 $$$RDTABWA
          0000081C  FFFFFFE6   10132
 $$$RESCWA
          00000100  FFFFFFDE   19602
 $$$RFCHAR
          00000007  FFFFFFE3   15193
 $$$RFMTWA
          0000081C  FFFFFFE5   10746
 $$$RHEXWA
          00000008  FFFFFFDF   18764
 $$$RHXDWA
          0000005A  FFFFFFDD   20139
 $$$RJCB  000000D0  FFFFFFE9    6336
 $$$RNSCNCB
          000000B0  FFFFFFED    2373
 $$$RTFMTWA
          00000880  FFFFFFE2   15311
 $$$RTTOKWA
          0000006C  FFFFFFE1   16173
 $$$RTTYPE
          0000010C  FFFFFFEA    6197
 $$$RUFMTWA
          00000884  FFFFFFE4   11439
 $$$RYESWA
          0000007C  FFFFFFE8    7506
 HIBAL    00000000  FFFFFFFF     691

1UTIL     (UTIL2025) (12:58) (15MAR04) Using Map                                                                            Page  137
-                                                                                            HLASM R4.0  2004/03/15 12.58
   Stmt  -----Location----- Action ----------------Using----------------- Reg Max    Last  Label and Using Text
           Count      Id           Type          Value    Range     Id        Disp   Stmt
0   922  00000000  FFFFFFFF USING  ORDINARY    00000000 00001000 FFFFFFEF  15 000   11112  @R15,15
    926  00000000  FFFFFFFF USING  ORDINARY    00000000 00001000 FFFFFFF0  14 002   19385  @R14,14
    930  00000000  FFFFFFFF USING  ORDINARY    00000000 00001000 FFFFFFF1  13 000          @R13,13
    934  00000000  FFFFFFFF USING  ORDINARY    00000000 00001000 FFFFFFF2  12 000          @R12,12
    938  00000000  FFFFFFFF USING  ORDINARY    00000000 00001000 FFFFFFF3  11 000          @R11,11
    942  00000000  FFFFFFFF USING  ORDINARY    00000000 00001000 FFFFFFF4  10 000          @R10,10
    946  00000000  FFFFFFFF USING  ORDINARY    00000000 00001000 FFFFFFF5   9 000          @R9,9
    950  00000000  FFFFFFFF USING  ORDINARY    00000000 00001000 FFFFFFF6   8 000          @R8,8
    954  00000000  FFFFFFFF USING  ORDINARY    00000000 00001000 FFFFFFF7   7 000          @R7,7
    958  00000000  FFFFFFFF USING  ORDINARY    00000000 00001000 FFFFFFF8   6 000          @R6,6
    962  00000000  FFFFFFFF USING  ORDINARY    00000000 00001000 FFFFFFF9   5 100   15888  @R5,5
    966  00000000  FFFFFFFF USING  ORDINARY    00000000 00001000 FFFFFFFA   4 000          @R4,4
    970  00000000  FFFFFFFF USING  ORDINARY    00000000 00001000 FFFFFFFB   3 001   12164  @R3,3
    974  00000000  FFFFFFFF USING  ORDINARY    00000000 00001000 FFFFFFFC   2 001   16394  @R2,2
    978  00000000  FFFFFFFF USING  ORDINARY    00000000 00001000 FFFFFFFD   1 100   12076  @R1,1
    982  00000000  FFFFFFFF USING  ORDINARY    00000000 00001000 FFFFFFFE   0 000          @R0,0
    983  00000000  FFFFFFFF DROP                                            0              0
   1161  00000017  00000001 USING  ORDINARY    00000000 00001000 FFFFFFEC  11 D5A   23643  CP,CPR
   1170  00000017  00000001 USING  ORDINARY    00000000 00001000 FFFFFFEE  12 8C4   23455  CV,CVR
   6665  00000032  00000001 USING  ORDINARY    00000032 00001000 00000001   7 A3E    6685  $$$43B,7
   6693  00000046  00000001 USING  ORDINARY    00000000 00001000 FFFFFFF7   7 000          @R7,7
   6753  0000006E  00000001 USING  ORDINARY    0000006E 00001000 00000001   7 A06    6773  $$$46B,7
   6781  00000082  00000001 USING  ORDINARY    00000000 00001000 FFFFFFF7   7 000          @R7,7
   6842  000000AA  00000001 USING  ORDINARY    000000AA 00001000 00000001   7 A20    7097  $$$49B,7
   7117  0000013E  00000001 USING  ORDINARY    00000000 00001000 FFFFFFF7   7 000          @R7,7
   7179  00000166  00000001 USING  ORDINARY    00000166 00001000 00000001   7 972    7434  $$$63B,7
   7454  000001FA  00000001 USING  ORDINARY    00000000 00001000 FFFFFFF7   7 000          @R7,7
   7577  00000222  00000001 USING  ORDINARY    00000222 00001000 00000001   7 862    7611  $$$77B,7
   7591  00000222  00000001 USING  ORDINARY    FFFFFFD8 00001000 FFFFFFE8   8 028    7608  YESWA-(4+36),R8
   7621  00000238  00000001 USING  ORDINARY    00000000 00001000 FFFFFFF6   8 000          @R8,8
   7626  00000238  00000001 USING  ORDINARY    00000000 00001000 FFFFFFF7   7 000          @R7,7
   7674  00000260  00000001 USING  ORDINARY    00000260 00001000 00000001   7 824    7708  $$$80B,7
   7688  00000260  00000001 USING  ORDINARY    FFFFFFD8 00001000 FFFFFFE8   8 028    7705  YESWA-(4+36),R8
   7718  00000276  00000001 USING  ORDINARY    00000000 00001000 FFFFFFF6   8 000          @R8,8
   7723  00000276  00000001 USING  ORDINARY    00000000 00001000 FFFFFFF7   7 000          @R7,7
   7771  0000029E  00000001 USING  ORDINARY    0000029E 00001000 00000001   7 7E6    7811  $$$83B,7
   7785  0000029E  00000001 USING  ORDINARY    FFFFFFD8 00001000 FFFFFFE8   8 028    7808  YESWA-(4+36),R8
   7821  000002B8  00000001 USING  ORDINARY    00000000 00001000 FFFFFFF6   8 000          @R8,8
   7826  000002B8  00000001 USING  ORDINARY    00000000 00001000 FFFFFFF7   7 000          @R7,7
   7874  000002E0  00000001 USING  ORDINARY    000002E0 00001000 00000001   7 7A4    7902  $$$86B,7
   7888  000002E0  00000001 USING  ORDINARY    FFFFFFD8 00001000 FFFFFFE8   8 028    7899  YESWA-(4+36),R8
   7912  000002F2  00000001 USING  ORDINARY    00000000 00001000 FFFFFFF6   8 000          @R8,8
   7917  000002F2  00000001 USING  ORDINARY    00000000 00001000 FFFFFFF7   7 000          @R7,7
   7962  0000031A  00000001 USING  ORDINARY    0000031A 00001000 00000001   7 800    8578  $$$89B,7
   7978  0000031A  00000001 USING  ORDINARY    00000000 00001000 FFFFFFE8   6 004    8568  YESWA,R6
   8590  000004E0  00000001 USING  ORDINARY    00000000 00001000 FFFFFFF7   7 000          @R7,7
   8803  000006C2  00000001 USING  ORDINARY    000006C2 00001000 00000001   7 000          $$$110B,7
   8819  000006C6  00000001 USING  ORDINARY    00000000 00001000 FFFFFFF7   7 000          @R7,7
   8864  000006EE  00000001 USING  ORDINARY    000006EE 00001000 00000001   7 000          $$$113B,7
   8880  000006F2  00000001 USING  ORDINARY    00000000 00001000 FFFFFFF7   7 000          @R7,7
   8925  0000071A  00000001 USING  ORDINARY    0000071A 00001000 00000001   7 000          $$$116B,7
   8941  0000071E  00000001 USING  ORDINARY    00000000 00001000 FFFFFFF7   7 000          @R7,7
   8986  00000746  00000001 USING  ORDINARY    00000746 00001000 00000001   7 000          $$$119B,7
1UTIL     (UTIL2025) (12:58) (15MAR04) Using Map                                                                            Page  138
   9002  0000074A  00000001 USING  ORDINARY    00000000 00001000 FFFFFFF7   7 000          @R7,7
   9047  00000772  00000001 USING  ORDINARY    00000772 00001000 00000001   7 000          $$$122B,7
   9063  00000776  00000001 USING  ORDINARY    00000000 00001000 FFFFFFF7   7 000          @R7,7
   9108  0000079E  00000001 USING  ORDINARY    0000079E 00001000 00000001   7 000          $$$125B,7
   9124  000007A2  00000001 USING  ORDINARY    00000000 00001000 FFFFFFF7   7 000          @R7,7
   9145  000007B0  00000001 USING  ORDINARY    00000000 00001000 FFFFFFF8   6 002    9768  @R6,6
   9184  000007CA  00000001 USING  ORDINARY    000007CA 00001000 00000001   7 33E    9254  $$$128B,7
   9267  00000808  00000001 USING  ORDINARY    00000000 00001000 FFFFFFF7   7 000          @R7,7
   9328  00000830  00000001 USING  ORDINARY    00000830 00001000 00000001   7 290    9603  $$$133B,7
   9615  000008B6  00000001 USING  ORDINARY    00000000 00001000 FFFFFFF7   7 000          @R7,7
   9664  000008DE  00000001 USING  ORDINARY    000008DE 00001000 00000001   7 00E    9676  $$$147B,7
   9690  000008F2  00000001 USING  ORDINARY    00000000 00001000 FFFFFFF7   7 000          @R7,7
   9743  00000918  00000001 USING  ORDINARY    00000918 00001000 00000001   7 048    9766  $$$150B,7
   9778  00000952  00000001 USING  ORDINARY    00000000 00001000 FFFFFFF7   7 000          @R7,7
   9833  0000098E  00000001 USING  ORDINARY    0000098E 00001000 00000001   7 000          $$$153B,7
   9858  0000099C  00000001 USING  ORDINARY    00000000 00001000 FFFFFFF7   7 000          @R7,7
   9931  000009C4  00000001 USING  ORDINARY    000009C4 00001000 00000001   7 128   10027  $$$156B,7
   9945  000009C4  00000001 USING  ORDINARY    FFFFFFD8 00001000 FFFFFFE7   8 02E    9964  CVEXWA-(4+36),R8
  10049  00000A54  00000001 USING  ORDINARY    00000000 00001000 FFFFFFF6   8 000          @R8,8
  10054  00000A54  00000001 USING  ORDINARY    00000000 00001000 FFFFFFF7   7 000          @R7,7
  10285  00000B3A  00000001 USING  ORDINARY    00000B3A 00001000 00000001   7 33C   10630  $$$170B,7
  10299  00000B3A  00000001 USING  ORDINARY    FFFFFFD8 00001000 FFFFFFE6   8 074   10661  DTABWA-(4+36),R8
  10668  00000C40  00000001 USING  ORDINARY    00000000 00001000 FFFFFFF6   8 000          @R8,8
  10673  00000C40  00000001 USING  ORDINARY    00000000 00001000 FFFFFFF7   7 000          @R7,7
  10899  00000E96  00000001 USING  ORDINARY    00000E96 00001000 00000001   7 17A   11335  $$$193B,7
  10913  00000E96  00000001 USING  ORDINARY    FFFFFFD8 00001000 FFFFFFE5   8 074   11368  FMTWA-(4+36),R8
  11375  00000FD8  00000001 USING  ORDINARY    00000000 00001000 FFFFFFF6   8 000          @R8,8
  11380  00000FD8  00000001 USING  ORDINARY    00000000 00001000 FFFFFFF7   7 000          @R7,7
  11592  00001030  00000001 USING  ORDINARY    00001030 00001000 00000001   7 340   12229  $$$217B,7
  11606  00001030  00000001 USING  ORDINARY    FFFFFFD8 00001000 FFFFFFE4   8 028   11610  UFMTWA-(4+36),R8
  11620  00001034  00000001 USING  ORDINARY    00000000 00001000 FFFFFFE4   6 0B4   12260  UFMTWA,R6
  12103  00001168  00000001 DROP                                            1              1
  12107  0000116E  00000001 USING  ORDINARY    00000000 00001000 FFFFFFFD   1 001   15946  @R1,1
  12111  00001172  00000001 DROP                                           15              15
  12115  00001178  00000001 USING  ORDINARY    00000000 00001000 FFFFFFEF  15 000   12513  @R15,15
  12267  000011E2  00000001 USING  ORDINARY    00000000 00001000 FFFFFFF8   6 000          @R6,6
  12272  000011E2  00000001 USING  ORDINARY    00000000 00001000 FFFFFFF6   8 000          @R8,8
  12277  000011E2  00000001 USING  ORDINARY    00000000 00001000 FFFFFFF7   7 000          @R7,7
  12332  0000120A  00000001 USING  ORDINARY    0000120A 00001000 00000001   7 172   12775  $$$240B,7
  12350  0000120A  00000001 USING  ORDINARY    00000000 00001000 FFFFFFE4   6 078   12772  UFMTWA,R6
  12448  00001252  00000001 DROP                                            3              3
  12452  00001258  00000001 USING  ORDINARY    00000000 00001000 FFFFFFFB   3 011   20519  @R3,3
  12785  00001322  00000001 USING  ORDINARY    00000000 00001000 FFFFFFF8   6 000          @R6,6
  12790  00001322  00000001 USING  ORDINARY    00000000 00001000 FFFFFFF7   7 000          @R7,7
  15463  00001CB4  00000001 USING  ORDINARY    00001CB4 00001000 00000001   7 3A4   16098  $$$273B,7
  15477  00001CB4  00000001 USING  ORDINARY    FFFFFFD8 00001000 FFFFFFE2   8 028   15481  TFMTWA-(4+36),R8
  15491  00001CB8  00000001 USING  ORDINARY    00000000 00001000 FFFFFFE2   6 0B0   16129  TFMTWA,R6
  15973  00001DE4  00000001 DROP                                            1              1
  15977  00001DEA  00000001 USING  ORDINARY    00000000 00001000 FFFFFFFD   1 001   16770  @R1,1
  15981  00001DEE  00000001 DROP                                           15              15
  15985  00001DF4  00000001 USING  ORDINARY    00000000 00001000 FFFFFFEF  15 000          @R15,15
  16136  00001E62  00000001 USING  ORDINARY    00000000 00001000 FFFFFFF8   6 000          @R6,6
  16141  00001E62  00000001 USING  ORDINARY    00000000 00001000 FFFFFFF6   8 000          @R8,8
  16146  00001E62  00000001 USING  ORDINARY    00000000 00001000 FFFFFFF7   7 000          @R7,7
  16235  00001E8A  00000001 USING  ORDINARY    00001E8A 00001000 00000001   7 1DA   16860  $$$297B,7
  16249  00001E8A  00000001 USING  ORDINARY    FFFFFFD8 00001000 FFFFFFE1   8 074   16769  TTOKWA-(4+36),R8
  16262  00001E8A  00000001 USING  ORDINARY    00000000 00001000 FFFFFFE2   6 074   16857  TFMTWA,R6
  16409  00001EE4  00000001 USING  ORDINARY    00000000 00001000 FFFFFFE3   4 006   16827  FCHAR,R4
  16431  00001EEA  00000001 DROP                                           15              15
1UTIL     (UTIL2025) (12:58) (15MAR04) Using Map                                                                            Page  139
  16435  00001EF0  00000001 USING  ORDINARY    00000000 00001000 FFFFFFEF  15 000   16495  @R15,15
  16824  00001FE6  00000001 DROP                                           15              15
  16828  00001FEC  00000001 USING  ORDINARY    00000000 00001000 FFFFFFEF  15 000          @R15,15
  16832  00001FEE  00000001 DROP                                            2              2
  16836  00001FF4  00000001 USING  ORDINARY    00000000 00001000 FFFFFFFC   2 002   18946  @R2,2
  16870  00002004  00000001 USING  ORDINARY    00000000 00001000 FFFFFFFA   4 004   20026  @R4,4
  16875  00002004  00000001 USING  ORDINARY    00000000 00001000 FFFFFFF8   6 040   20783  @R6,6
  16880  00002004  00000001 USING  ORDINARY    00000000 00001000 FFFFFFF6   8 000          @R8,8
  16885  00002004  00000001 USING  ORDINARY    00000000 00001000 FFFFFFF7   7 000          @R7,7
  18560  00002A8E  00000001 USING  ORDINARY    00002A8E 00001000 00000001   7 9B6   18705  $$$322B,7
  18574  00002A8E  00000001 USING  ORDINARY    FFFFFFD8 00001000 FFFFFFE0   8 028   18682  CHARWA-(4+36),R8
  18713  00002AD4  00000001 USING  ORDINARY    00000000 00001000 FFFFFFF6   8 000          @R8,8
  18718  00002AD4  00000001 USING  ORDINARY    00000000 00001000 FFFFFFF7   7 000          @R7,7
  18814  00002BFC  00000001 USING  ORDINARY    00002BFC 00001000 00000001   7 83C   19141  $$$333B,7
  18828  00002BFC  00000001 USING  ORDINARY    FFFFFFD8 00001000 FFFFFFDF   8 029   18978  HEXWA-(4+36),R8
  18909  00002C2A  00000001 DROP                                            1              1
  18913  00002C30  00000001 USING  ORDINARY    00000000 00001000 FFFFFFFD   1 100   23167  @R1,1
  19150  00002CDC  00000001 USING  ORDINARY    00000000 00001000 FFFFFFF6   8 000          @R8,8
  19155  00002CDC  00000001 USING  ORDINARY    00000000 00001000 FFFFFFF7   7 000          @R7,7
  19209  00002D04  00000001 USING  ORDINARY    00002D04 00001000 00000001   7 746   19565  $$$345B,7
  19375  00002D6C  00000001 DROP                                           15              15
  19379  00002D72  00000001 USING  ORDINARY    00000000 00001000 FFFFFFEF  15 000          @R15,15
  19382  00002D72  00000001 DROP                                            2              2
  19386  00002D78  00000001 USING  ORDINARY    00000000 00001000 FFFFFFFC   2 002   23158  @R2,2
  19574  00002DDC  00000001 USING  ORDINARY    00000000 00001000 FFFFFFF7   7 000          @R7,7
  19652  00002E04  00000001 USING  ORDINARY    00002E04 00001000 00000001   7 64C   20095  $$$361B,7
  19666  00002E04  00000001 USING  ORDINARY    FFFFFFD8 00001000 FFFFFFDE   8 028   19791  ESCWA-(4+36),R8
  19956  00002EB2  00000001 DROP                                           15              15
  19960  00002EB8  00000001 USING  ORDINARY    00000000 00001000 FFFFFFEF  15 001   21920  @R15,15
  20107  00002F0C  00000001 USING  ORDINARY    00000000 00001000 FFFFFFF6   8 000          @R8,8
  20112  00002F0C  00000001 USING  ORDINARY    00000000 00001000 FFFFFFF7   7 000          @R7,7
  20225  00002F34  00000001 USING  ORDINARY    00002F34 00001000 00000001   7 506   20654  $$$381B,7
  20239  00002F34  00000001 USING  ORDINARY    FFFFFFD8 00001000 FFFFFFDD   8 03D   20633  HXDWA-(4+36),R8
  20663  0000306C  00000001 USING  ORDINARY    00000000 00001000 FFFFFFF6   8 000          @R8,8
  20668  0000306C  00000001 USING  ORDINARY    00000000 00001000 FFFFFFF7   7 000          @R7,7
  20739  00003194  00000001 USING  ORDINARY    00003194 00001000 00000001   7 2C2   20796  $$$400B,7
  20809  000031E0  00000001 USING  ORDINARY    00000000 00001000 FFFFFFF7   7 000          @R7,7
  20895  00003208  00000001 USING  ORDINARY    00003208 00001000 00000001   7 228   21059  $$$406B,7
  21069  00003272  00000001 USING  ORDINARY    00000000 00001000 FFFFFFF7   7 000          @R7,7
  21117  0000329A  00000001 USING  ORDINARY    0000329A 00001000 00000001   7 196   21205  $$$417B,7
  21215  000032D2  00000001 USING  ORDINARY    00000000 00001000 FFFFFFF7   7 000          @R7,7
  21337  00003476  00000001 USING  ORDINARY    00003476 00001000 00000001   7 80C   21427  $$$424B,7
  21435  000034F6  00000001 USING  ORDINARY    00000000 00001000 FFFFFFF7   7 000          @R7,7
  21480  0000351E  00000001 USING  ORDINARY    0000351E 00001000 00000001   7 758   21629  $$$427B,7
  21645  0000358A  00000001 USING  ORDINARY    00000000 00001000 FFFFFFF7   7 000          @R7,7
  21690  000035B2  00000001 USING  ORDINARY    000035B2 00001000 00000001   7 68A   21706  $$$435B,7
  21725  000035C8  00000001 USING  ORDINARY    00000000 00001000 FFFFFFF7   7 000          @R7,7
  21770  000035F0  00000001 USING  ORDINARY    000035F0 00001000 00000001   7 650   21784  $$$438B,7
  21805  00003606  00000001 USING  ORDINARY    00000000 00001000 FFFFFFF7   7 000          @R7,7
  21850  0000362E  00000001 USING  ORDINARY    0000362E 00001000 00000001   7 61A   21952  $$$441B,7
  21963  00003682  00000001 USING  ORDINARY    00000000 00001000 FFFFFFF7   7 000          @R7,7
  22132  0000380E  00000001 USING  ORDINARY    0000380E 00001000 00000001   7 479   22481  $$$447B,7
  22494  000038D8  00000001 USING  ORDINARY    00000000 00001000 FFFFFFF7   7 000          @R7,7
  22551  00003900  00000001 USING  ORDINARY    00003900 00001000 00000001   7 394   22623  $$$457B,7
  22631  0000392A  00000001 USING  ORDINARY    00000000 00001000 FFFFFFF7   7 000          @R7,7
  22688  00003952  00000001 USING  ORDINARY    00003952 00001000 00000001   7 348   22760  $$$465B,7
  22768  0000397C  00000001 USING  ORDINARY    00000000 00001000 FFFFFFF7   7 000          @R7,7
  22825  000039A4  00000001 USING  ORDINARY    000039A4 00001000 00000001   7 2FC   22897  $$$473B,7
  22905  000039CE  00000001 USING  ORDINARY    00000000 00001000 FFFFFFF7   7 000          @R7,7
1UTIL     (UTIL2025) (12:58) (15MAR04) Using Map                                                                            Page  140
  22963  000039F6  00000001 USING  ORDINARY    000039F6 00001000 00000001   7 2B0   23035  $$$481B,7
  23043  00003A20  00000001 USING  ORDINARY    00000000 00001000 FFFFFFF7   7 000          @R7,7
  23100  00003A48  00000001 USING  ORDINARY    00003A48 00001000 00000001   7 264   23172  $$$489B,7
  23180  00003A72  00000001 USING  ORDINARY    00000000 00001000 FFFFFFF7   7 000          @R7,7
  23230  00003A9A  00000001 USING  ORDINARY    00003A9A 00001000 00000001   7 1F3   23409  $$$497B,7
  23417  00003B28  00000001 USING  ORDINARY    00000000 00001000 FFFFFFF7   7 000          @R7,7
  23467  00003B50  00000001 USING  ORDINARY    00003B50 00001000 00000001   7 13D   23646  $$$500B,7
  23654  00003BDE  00000001 USING  ORDINARY    00000000 00001000 FFFFFFF7   7 000          @R7,7

1         (UTIL2025) (12:58) (15MAR04) General Purpose Register Cross Reference                                             Page  141
- Register  References (M=modified, B=branch, U=USING, D=DROP, N=index)                      HLASM R4.0  2004/03/15 12.58
0    0(0)      982U   983D  2097   2165M  2165   2166M  6648   6678M  6701M  6736   6766M  6789M  6825   6859M  6859
              6877M  6877   6898M  6914M  6914   6934   6981M  6981   7000M  7003   7015M  7049M  7125M  7162   7196M
              7196   7214M  7214   7235M  7251M  7251   7271   7318M  7318   7337M  7340   7352M  7386M  7462M  7559
              7614   7634M  7656   7711   7731M  7753   7814   7834M  7856   7905   7925M  7945   7980   7981M  7981
              8026M  8113M  8113   8151   8162M  8162   8171   8172   8190   8196M  8219M  8409M  8434M  8464M  8489M
              8583   8598M  8786   8827M  8847   8888M  8908   8949M  8969   9010M  9030   9071M  9091   9132M  9167
              9215M  9275M  9311   9338   9372M  9406M  9406   9422M  9444M  9472M  9546M  9592M  9592   9623M  9647
              9673M  9675   9677M  9681   9683M  9683   9698M  9726   9786M  9816   9842   9849M  9851   9866M  9913
              9949   9957M  9964M  9965   9966M  9968M  9974M  9995M 10026  10035M 10042  10062M 10267  10321M 10321
             10334M 10334  10336  10344  10409M 10501M 10535M 10548M 10549M 10550M 10551M 10653M 10655M 10657M 10659
             10681M 10881  10980  11047M 11143M 11177M 11194M 11215M 11215  11216M 11247M 11303M 11309  11360M 11362M
             11364M 11366  11388M 11574  11638  11782M 11874M 11908M 11954M 12005M 12075M 12078M 12143M 12187M 12252M
             12254M 12256M 12258  12285M 12315  12357  12360  12688M 12703M 12731M 12764M 12798M 15445  15506  15650M
             15744M 15778M 15824M 15875M 15945M 15948M 16013M 16055M 16121M 16123M 16125M 16127  16154M 16217  16274
             16293  16326M 16334  16346M 16352  16678M 16691M 16719M 16756M 16769M 16772M 16800M 16849M 16893M 18542
             18579  18687M 18726M 18796  18832  18834  18865M 18979M 18982  18994M 18999M 18999  19000  19022  19036M
             19036  19065M 19080M 19130M 19130  19163M 19192  19218  19301M 19303  19304  19348M 19414M 19500M 19545M
             19582M 19634  19723  19804M 19806  19807  19816M 19816  19876M 19876  19923M 19941M 19971M 20012M 20084M
             20084  20120M 20207  20247  20318M 20318  20382M 20419M 20580M 20581M 20638M 20676M 20722  20755  20769M
             20791M 20802  20817M 20878  20920M 20920  20980M 20998M 20998  21052M 21077M 21100  21144M 21144  21198M
             21223M 21320  21352M 21352  21361  21362  21394M 21424M 21443M 21463  21489  21490  21554M 21555M 21577M
             21653M 21673  21699  21733M 21753  21779  21813M 21833  21859  21871M 21946M 21971M 22115  22178M 22178
             22194M 22214M 22293M 22319M 22319  22335M 22355M 22418M 22418  22434M 22454M 22502M 22534  22572M 22572
             22578  22619M 22639M 22671  22709M 22709  22715  22756M 22776M 22808  22846M 22846  22852  22893M 22913M
             22946  22984M 22984  22990  23031M 23051M 23083  23121M 23121  23127  23168M 23188M 23213  23240  23247M
             23265M 23280M 23310M 23329M 23355M 23373M 23398M 23398  23425M 23450  23477  23484M 23502M 23517M 23547M
             23566M 23592M 23610M 23635M 23635  23662M
     1(1)      978U  2097   2160M  2161M  2167M  6648   6677M  6701M  6736   6765M  6789M  6825   6896M  6896N  6934
              7000M  7048M  7125M  7162   7233M  7233N  7271   7337M  7385M  7462M  7559   7614   7634M  7656   7711
              7731M  7753   7814   7834M  7856   7905   7925M  7945   8025M  8068M  8069M  8070M  8150   8158M  8171N
              8172N  8174N  8190   8195M  8219M  8408M  8430M  8463M  8485M  8583   8598M  8786   8827M  8847   8888M
              8908   8949M  8969   9010M  9030   9071M  9091   9132M  9167   9214M  9246M  9275M  9311   9337   9365M
              9437M  9465M  9541M  9623M  9647   9673   9698M  9726   9752M  9752   9754   9757   9762M  9765M  9768M
              9771   9786M  9816   9847   9848   9866M  9913   9956M  9961M  9962M  9965M  9966   9967M  9967N 10033M
             10042  10062M 10267  10343  10379M 10404M 10470M 10496M 10520M 10521  10530M 10552M 10569M 10610M 10643
             10654M 10655M 10681M 10881  10979  11016M 11042M 11112M 11138M 11162M 11163  11172M 11193M 11210M 11211M
             11226M 11246M 11298M 11342M 11350  11361M 11362M 11388M 11574  11637  11692M 11748M 11749M 11750  11751
             11777M 11843M 11869M 11893M 11894  11903M 11949M 11998M 12070M 12076M 12103D 12105M 12105  12106M 12107U
             12114N 12138M 12182M 12209M 12242  12253M 12254M 12285M 12315  12357  12687M 12703M 12730M 12757M 12798M
             15445  15505  15560M 15616M 15617M 15618  15619  15645M 15713M 15739M 15763M 15764  15773M 15819M 15868M
             15940M 15946M 15973D 15975M 15975  15976M 15977U 15984N 16008M 16050M 16078M 16111  16122M 16123M 16154M
             16217  16274  16324M 16677M 16691M 16718M 16755M 16769M 16770M 16799M 16837M 16893M 18542  18578  18682M
             18726M 18796  18835  18872M 18909D 18911M 18911  18912M 18913U 18924N 18939  18978M 19022  19060M 19080M
             19163M 19192  19219  19262M 19288M 19300M 19301  19302M 19347M 19421M 19493M 19544M 19582M 19634  19724
             19765M 19791M 19803M 19804  19805M 19918M 19940M 19978M 20011M 20120M 20207  20243  20246  20389M 20426M
             20633M 20676M 20722  20761  20802  20817M 20878  20983M 21055M 21077M 21100  21201M 21223M 21320  21348M
             21361N 21362N 21364N 21401M 21417M 21443M 21463  21584M 21653M 21673  21733M 21753  21813M 21833  21878M
             21945M 21971M 22115  22174M 22193M 22292M 22315M 22334M 22414M 22433M 22502M 22534  22618M 22639M 22671
             22755M 22776M 22808  22892M 22913M 22946  23030M 23051M 23083  23167M 23188M 23213  23240  23246M 23264M
             23280M 23309M 23328M 23350M 23372M 23425M 23450  23477  23483M 23501M 23517M 23546M 23565M 23587M 23609M
             23662M
     2(2)      974U  2097   6648   6701M  6736   6789M  6825   7125M  7162   7462M  7559   7634M  7656   7731M  7753
              7834M  7856   7925M  7945   7980M  8014M  8014   8598M  8786   8827M  8847   8888M  8908   8949M  8969
              9010M  9030   9071M  9091   9132M  9167   9275M  9311   9338M  9546   9623M  9647   9698M  9726   9786M
              9816   9846M  9846   9847M  9848M  9866M  9913  10062M 10267  10379M 10438M 10441  10453M 10461M 10463
1         (UTIL2025) (12:58) (15MAR04) General Purpose Register Cross Reference                                             Page  142
             10470M 10521M 10535  10598M 10599N 10600  10611M 10623  10631M 10648  10657  10681M 10881  10934M 10934
             10947M 10947  10965  11016M 11100M 11100  11112M 11208M 11209M 11216N 11226N 11270M 11303  11309M 11328
             11336M 11355  11364  11388M 11574  11692M 11843M 11894M 11908  11922  11923  12027M 12041M 12041  12166M
             12210M 12222  12230M 12247  12256  12285M 12315  12798M 15445  15560M 15713M 15764M 15778  15792  15793
             15897M 15911M 15911  16036M 16079M 16091  16099M 16116  16125  16154M 16217  16352M 16356M 16365M 16365
             16372  16393M 16832D 16834M 16834  16835M 16836U 16849  16893M 18542  18597M 18600  18612M 18617  18687
             18726M 18796  18895M 18895  18906M 18912N 18914M 18939N 18941N 18946M 18962  19163M 19192  19288M 19382D
             19384M 19384  19385M 19386U 19395M 19395  19582M 19634  19690M 19690  19696  19716M 19791M 20120M 20207
             20250M 20267  20436M 20452N 20468N 20520M 20539M 20560M 20596M 20676M 20722  20761M 20765M 20767M 20769
             20772  20792M 20795M 20817M 20878  20907M 20907  20926M 20927M 20927N 20939  20967M 20967  21004M 21005M
             21005N 21017  21040  21077M 21100  21129M 21129  21150M 21151M 21151N 21163  21186  21223M 21320  21443M
             21463  21489M 21590M 21620  21635  21653M 21673  21733M 21753  21813M 21833  21971M 22115  22152M 22152
             22154M 22243  22254M 22254  22256M 22384  22502M 22534  22560M 22639M 22671  22697M 22776M 22808  22834M
             22913M 22946  22972M 23051M 23083  23109M 23188M 23213  23350  23425M 23450  23587  23662M
     3(3)      970U  2097   6648   6701M  6736   6789M  6825   7125M  7162   7462M  7559   7634M  7656   7731M  7753
              7834M  7856   7925M  7945   8598M  8786   8827M  8847   8888M  8908   8949M  8969   9010M  9030   9071M
              9091   9132M  9167   9275M  9311   9337M  9541   9623M  9647   9698M  9726   9786M  9816   9842M  9847M
              9848M  9849   9866M  9913   9969M  9975M 10062M 10267  10365M 10370M 10372  10681M 10881  11002M 11007M
             11009  11076M 11079  11091M 11103M 11105  11163M 11177  11261M 11262N 11263  11388M 11574  12026M 12063M
             12075  12092M 12093  12094  12130M 12143  12156  12157  12164M 12285M 12315  12448D 12450M 12450  12451M
             12452U 12453  12674N 12798M 15445  15896M 15933M 15945  15962M 15963  15964  16000M 16013  16026  16027
             16034M 16154M 16217  16821M 16829M 16893M 18542  18726M 18796  18834M 18848M 18848  18979  19111M 19163M
             19192  19218M 19231M 19231  19242  19304M 19337M 19337  19452M 19465M 19465  19531M 19531  19582M 19634
             19696M 19697M 19709M 19709N 19723M 19739M 19739  19745  19807M 19902M 19902  20028M 20120M 20207  20452M
             20468M 20478M 20608M 20676M 20722  20755M 20766M 20776  20796M 20817M 20878  21077M 21100  21223M 21320
             21443M 21463  21545M 21589M 21590  21653M 21673  21699M 21701  21733M 21753  21813M 21833  21883M 21884N
             21899N 21911  21952N 21971M 22115  22153M 22154M 22163M 22163  22174  22206  22255M 22256M 22265M 22265
             22315  22347  22502M 22534  22639M 22671  22776M 22808  22913M 22946  23051M 23083  23188M 23213  23355
             23425M 23450  23592  23662M
     4(4)      966U  2097   6648   6701M  6736   6789M  6825   7125M  7162   7462M  7559   7634M  7656   7731M  7753
              7834M  7856   7925M  7945   8598M  8786   8827M  8847   8888M  8908   8949M  8969   9010M  9030   9071M
              9091   9132M  9167   9275M  9311   9623M  9647   9698M  9726   9786M  9816   9866M  9913  10062M 10267
             10344M 10359  10365  10432M 10432  10438  10501  10600M 10681M 10881  10980M 10996  11002  11070M 11070
             11076  11143  11263M 11388M 11574  11638M 11639  11654M 11654  11660  11712M 11751M 11767M 11805M 11805
             11811  11874  11923M 11936  11954  12019M 12027  12094M 12157M 12187  12285M 12315  12798M 15445  15506M
             15507  15522M 15522  15528  15580M 15619M 15635M 15675M 15675  15681  15744  15793M 15806  15824  15889M
             15897  15964M 16027M 16055  16154M 16217  16399M 16409U 16423M 16423  16665M 16870U 16893M 18542  18726M
             18796  18835M 19110M 19163M 19192  19219M 19300  19302  19303M 19450M 19582M 19634  19724M 19803  19805
             19806M 20026M 20120M 20207  20479M 20495  20551  20580  20616M 20676M 20722  20772M 20773M 20791  20817M
             20878  21077M 21100  21223M 21320  21443M 21463  21546M 21562M 21620  21653M 21673  21733M 21753  21779M
             21794  21813M 21833  21885  21934  21971M 22115  22145M 22153  22243M 22255  22384M 22502M 22534  22639M
             22671  22776M 22808  22913M 22946  23051M 23083  23188M 23213  23425M 23450  23662M
     5(5)      962U  2097   6648   6701M  6736   6789M  6825   7125M  7162   7462M  7559   7634M  7656   7731M  7753
              7834M  7856   7925M  7945   8598M  8786   8827M  8847   8888M  8908   8949M  8969   9010M  9030   9071M
              9091   9132M  9167   9275M  9311   9623M  9647   9698M  9726   9786M  9816   9866M  9913  10062M 10267
             10343M 10496  10520  10530  10599M 10681M 10881  10979M 11138  11162  11172  11262M 11388M 11574  11637M
             11639  11748  11750M 11767M 11869  11893  11903  11922M 11949  11998  12018M 12026  12063  12070  12093M
             12130  12138  12156M 12182  12285M 12315  12423M 12424M 12674M 12675M 12798M 15445  15505M 15507  15616
             15618M 15635M 15739  15763  15773  15792M 15819  15868  15888M 15896  15933  15940  15963M 16000  16008
             16026M 16050  16154M 16217  16893M 18542  18579M 18591M 18591  18597  18701M 18726M 18796  18836M 19065
             19163M 19192  19361M 19454M 19476M 19476  19513M 19582M 19634  19725M 19923  20120M 20207  20247M 20346M
             20346  20506M 20506  20613M 20676M 20722  20817M 20878  21077M 21100  21223M 21320  21443M 21463  21653M
             21673  21733M 21753  21813M 21833  21859M 21864  21893M 21971M 22115  22141M 22143M 22145  22281  22403
             22414  22446  22502M 22534  22639M 22671  22776M 22808  22913M 22946  23051M 23083  23188M 23213  23425M
             23450  23662M
     6(6)      958U  2097   6648   6701M  6736   6789M  6825   7125M  7162   7462M  7559   7595M  7634M  7656   7692M
              7731M  7753   7789M  7834M  7856   7892M  7925M  7945   7978U  8598M  8786   8827M  8847   8888M  8908
              8949M  8969   9010M  9030   9071M  9091   9132M  9145U  9167   9275M  9311   9623M  9647   9674M  9675
              9677   9698M  9726   9756M  9759M  9786M  9816   9866M  9913  10062M 10267  10681M 10881  11388M 11574
1         (UTIL2025) (12:58) (15MAR04) General Purpose Register Cross Reference                                             Page  143
             11610M 11620U 12267U 12285M 12315  12350U 12785U 12798M 15445  15481M 15491U 16136U 16154M 16217  16262U
             16875U 16893M 18542  18578M 18700M 18726M 18796  18832M 18886M 18886  19163M 19192  19582M 19634  20120M
             20207  20246M 20353  20611M 20676M 20722  20762M 20767  20773  20792  20817M 20878  21077M 21100  21223M
             21320  21387  21443M 21463  21635M 21637  21653M 21673  21733M 21753  21813M 21833  21884M 21899M 21934
             21953M 21955  21971M 22115  22502M 22534  22639M 22671  22776M 22808  22913M 22946  23051M 23083  23188M
             23213  23425M 23450  23662M
     7(7)      954U  2090M  2090   2091B  2097   2103B  6648   6653M  6665U  6693U  6701M  6736   6741M  6753U  6781U
              6789M  6825   6830M  6842U  7117U  7125M  7162   7167M  7179U  7454U  7462M  7559   7565M  7577U  7626U
              7634M  7656   7662M  7674U  7723U  7731M  7753   7759M  7771U  7826U  7834M  7856   7862M  7874U  7917U
              7925M  7945   7950M  7962U  8590U  8598M  8786   8791M  8803U  8819U  8827M  8847   8852M  8864U  8880U
              8888M  8908   8913M  8925U  8941U  8949M  8969   8974M  8986U  9002U  9010M  9030   9035M  9047U  9063U
              9071M  9091   9096M  9108U  9124U  9132M  9167   9172M  9184U  9267U  9275M  9311   9316M  9328U  9615U
              9623M  9647   9652M  9664U  9690U  9698M  9726   9731M  9743U  9778U  9786M  9816   9821M  9833U  9858U
              9866M  9913   9919M  9931U 10054U 10062M 10267  10273M 10285U 10673U 10681M 10881  10887M 10899U 11380U
             11388M 11574  11580M 11592U 12277U 12285M 12315  12320M 12332U 12790U 12798M 15445  15451M 15463U 16146U
             16154M 16217  16223M 16235U 16885U 16893M 18542  18548M 18560U 18718U 18726M 18796  18802M 18814U 19155U
             19163M 19192  19197M 19209U 19574U 19582M 19634  19640M 19652U 20112U 20120M 20207  20213M 20225U 20668U
             20676M 20722  20727M 20739U 20809U 20817M 20878  20883M 20895U 21069U 21077M 21100  21105M 21117U 21215U
             21223M 21320  21325M 21337U 21435U 21443M 21463  21468M 21480U 21645U 21653M 21673  21678M 21690U 21725U
             21733M 21753  21758M 21770U 21805U 21813M 21833  21838M 21850U 21963U 21971M 22115  22120M 22132U 22494U
             22502M 22534  22539M 22551U 22631U 22639M 22671  22676M 22688U 22768U 22776M 22808  22813M 22825U 22905U
             22913M 22946  22951M 22963U 23043U 23051M 23083  23088M 23100U 23180U 23188M 23213  23218M 23230U 23417U
             23425M 23450  23455M 23467U 23654U 23662M
     8(8)      950U  2097   6648   6649M  6697   6701M  6736   6737M  6785   6789M  6825   6826M  7121   7125M  7162
              7163M  7458   7462M  7559   7561M  7591U  7614   7621U  7630   7634M  7656   7658M  7688U  7711   7718U
              7727   7731M  7753   7755M  7785U  7814   7821U  7830   7834M  7856   7858M  7888U  7905   7912U  7921
              7925M  7945   7946M  8583   8594   8598M  8786   8787M  8823   8827M  8847   8848M  8884   8888M  8908
              8909M  8945   8949M  8969   8970M  9006   9010M  9030   9031M  9067   9071M  9091   9092M  9128   9132M
              9167   9168M  9271   9275M  9311   9312M  9619   9623M  9647   9648M  9681N  9694   9698M  9726   9727M
              9771N  9782   9786M  9816   9817M  9851N  9862   9866M  9913   9915M  9945U 10042  10049U 10058  10062M
             10267  10269M 10299U 10336N 10610N 10659N 10668U 10677  10681M 10881  10883M 10913U 11342N 11366N 11375U
             11384  11388M 11574  11576M 11606U 12209N 12258N 12272U 12281  12285M 12315  12316M 12794  12798M 15445
             15447M 15477U 16078N 16127N 16141U 16150  16154M 16217  16219M 16249U 16880U 16889  16893M 18542  18544M
             18574U 18713U 18722  18726M 18796  18798M 18828U 19150U 19159  19163M 19192  19193M 19578  19582M 19634
             19636M 19666U 20107U 20116  20120M 20207  20209M 20239U 20663U 20672  20676M 20722  20723M 20802  20813
             20817M 20878  20879M 21073  21077M 21100  21101M 21219  21223M 21320  21321M 21439  21443M 21463  21464M
             21637N 21649  21653M 21673  21674M 21701N 21729  21733M 21753  21754M 21794N 21809  21813M 21833  21834M
             21955N 21967  21971M 22115  22116M 22498  22502M 22534  22535M 22635  22639M 22671  22672M 22772  22776M
             22808  22809M 22909  22913M 22946  22947M 23047  23051M 23083  23084M 23184  23188M 23213  23214M 23421
             23425M 23450  23451M 23658  23662M
     9(9)      946U  2097
    10(A)      942U  2097
    11(B)      938U  1161U  2097
    12(C)      934U  1170U  2097
    13(D)      930U  2097   6645   6648   6649   6650M  6650   6697M  6701   6703   6733   6736   6737   6738M  6738
              6785M  6789   6791   6822   6825   6826   6827M  6827   6934   6935M  6935   6999M  7000   7121M  7125
              7127   7159   7162   7163   7164M  7164   7271   7272M  7272   7336M  7337   7458M  7462   7464   7556
              7559   7561   7562M  7562   7630M  7634   7636   7653   7656   7658   7659M  7659   7727M  7731   7733
              7750   7753   7755   7756M  7756   7830M  7834   7836   7853   7856   7858   7859M  7859   7921M  7925
              7927   7942   7945   7946   7947M  7947   8166   8167   8168   8170M  8170   8183M  8184   8185   8186
              8190   8191M  8191   8218M  8219   8594M  8598   8600   8783   8786   8787   8788M  8788   8823M  8827
              8829   8844   8847   8848   8849M  8849   8884M  8888   8890   8905   8908   8909   8910M  8910   8945M
              8949   8951   8966   8969   8970   8971M  8971   9006M  9010   9012   9027   9030   9031   9032M  9032
              9067M  9071   9073   9088   9091   9092   9093M  9093   9128M  9132   9134   9164   9167   9168   9169M
              9169   9246   9247M  9247   9271M  9275   9277   9308   9311   9312   9313M  9313   9619M  9623   9625
              9644   9647   9648   9649M  9649   9694M  9698   9700   9723   9726   9727   9728M  9728   9782M  9786
              9788   9813   9816   9817   9818M  9818   9862M  9866   9868   9910   9913   9915   9916M  9916  10058M
             10062  10064  10264  10267  10269  10270M 10270  10677M 10681  10683  10878  10881  10883  10884M 10884
             11384M 11388  11390  11571  11574  11576  11577M 11577  12281M 12285  12287  12312  12315  12316  12317M
1         (UTIL2025) (12:58) (15MAR04) General Purpose Register Cross Reference                                             Page  144
             12317  12357  12358M 12358  12702M 12703  12794M 12798  12800  15442  15445  15447  15448M 15448  16150M
             16154  16156  16214  16217  16219  16220M 16220  16889M 16893  16895  18539  18542  18544  18545M 18545
             18722M 18726  18728  18793  18796  18798  18799M 18799  19022  19023M 19023  19079M 19080  19159M 19163
             19165  19189  19192  19193  19194M 19194  19578M 19582  19584  19631  19634  19636  19637M 19637  20116M
             20120  20122  20204  20207  20209  20210M 20210  20672M 20676  20678  20719  20722  20723  20724M 20724
             20813M 20817  20819  20875  20878  20879  20880M 20880  21073M 21077  21079  21097  21100  21101  21102M
             21102  21219M 21223  21225  21317  21320  21321  21322M 21322  21356  21357  21358  21360M 21360  21373M
             21374  21375  21376  21439M 21443  21445  21460  21463  21464  21465M 21465  21649M 21653  21655  21670
             21673  21674  21675M 21675  21729M 21733  21735  21750  21753  21754  21755M 21755  21809M 21813  21815
             21830  21833  21834  21835M 21835  21967M 21971  21973  22112  22115  22116  22117M 22117  22498M 22502
             22504  22531  22534  22535  22536M 22536  22635M 22639  22641  22668  22671  22672  22673M 22673  22772M
             22776  22778  22805  22808  22809  22810M 22810  22909M 22913  22915  22943  22946  22947  22948M 22948
             23047M 23051  23053  23080  23083  23084  23085M 23085  23184M 23188  23190  23210  23213  23214  23215M
             23215  23240  23241M 23241  23279M 23280  23421M 23425  23427  23447  23450  23451  23452M 23452  23477
             23478M 23478  23516M 23517  23658M 23662  23664
    14(E)      926U  2097   2098M  2112   2113M  2114B  2116M  2117B  2137M  2138B  2142M  2143B  2145M  2146B  2148M
              2149B  2151M  2152B  2154M  2155M  2155B  2161   6645   6676M  6677N  6678N  6682M  6682   6685M  6686M
              6686B  6703M  6706B  6733   6764M  6765N  6766N  6770M  6770   6773M  6774M  6774B  6791M  6794B  6822
              6992M  6993M  6993B  7042M  7043M  7043B  7060M  7061M  7061B  7127M  7130B  7159   7329M  7330M  7330B
              7379M  7380M  7380B  7397M  7398M  7398B  7464M  7467B  7556   7611M  7612M  7612B  7636M  7639B  7653
              7708M  7709M  7709B  7733M  7736B  7750   7811M  7812M  7812B  7836M  7839B  7853   7902M  7903M  7903B
              7927M  7930B  7942   8004M  8005M  8005B  8037M  8038M  8038B  8133M  8134M  8134B  8149M  8150N  8151N
              8155M  8155   8165M  8166   8167   8168   8173M  8174   8177M  8178M  8178B  8181M  8184   8185   8186
              8194M  8195N  8196N  8200M  8200   8215M  8216M  8216B  8420M  8421M  8421B  8475M  8476M  8476B  8600M
              8603B  8783   8829M  8832B  8844   8890M  8893B  8905   8951M  8954B  8966   9012M  9015B  9027   9073M
              9076B  9088   9134M  9137B  9164   9197M  9198M  9198B  9226M  9227M  9227B  9250M  9251M  9251B  9254M
              9255M  9255B  9277M  9280B  9308   9425M  9426M  9426B  9455M  9456M  9456B  9499M  9500M  9500B  9557M
              9558M  9558B  9603M  9604M  9604B  9625M  9628B  9644   9700M  9702B  9723   9788M  9791B  9813   9868M
              9871B  9910  10064M 10067B 10264  10420M 10421M 10421B 10512M 10513M 10513B 10546M 10547M 10547B 10595M
             10596M 10596B 10643M 10655M 10683M 10686B 10878  11058M 11059M 11059B 11154M 11155M 11155B 11188M 11189M
             11189B 11205M 11206M 11206B 11241M 11242M 11242B 11258M 11259M 11259B 11307M 11308M 11308B 11350M 11362M
             11390M 11393B 11571  11680M 11793M 11794M 11794B 11831M 11885M 11886M 11886B 11919M 11920M 11920B 11965M
             11966M 11966B 12016M 12017M 12017B 12089M 12090M 12090B 12108M 12154M 12155M 12155B 12198M 12199M 12199B
             12242M 12254M 12287M 12290B 12312  12699M 12700M 12700B 12725M 12726M 12726B 12742M 12743M 12743B 12775M
             12776M 12776B 12800M 12803B 15442  15548M 15661M 15662M 15662B 15701M 15755M 15756M 15756B 15789M 15790M
             15790B 15835M 15836M 15836B 15886M 15887M 15887B 15959M 15960M 15960B 15978M 16024M 16025M 16025B 16066M
             16067M 16067B 16111M 16123M 16156M 16159B 16214  16689M 16690M 16690B 16713M 16714M 16714B 16730M 16731M
             16731B 16767M 16768M 16768B 16794M 16795M 16795B 16811M 16812M 16812B 16860M 16861M 16861B 16895M 16898B
             18539  18698M 18699M 18699B 18728M 18731B 18793  18875M 18876M 18876B 18917M 18918M 18918B 18919M 19047M
             19048M 19048B 19076M 19077M 19077B 19108M 19109M 19109B 19141M 19142M 19142B 19165M 19168B 19189  19239M
             19240M 19240B 19241M 19327M 19328M 19328B 19359M 19360M 19360B 19370M 19371M 19371B 19372M 19424M 19425M
             19425B 19448M 19449M 19449B 19511M 19512M 19512B 19556M 19557M 19557B 19584M 19587B 19631  19825M 19826M
             19826B 19887M 19888M 19888B 19934M 19935M 19935B 19952M 19953M 19953B 19981M 19982M 19982B 20005M 20006M
             20006B 20023M 20024M 20024B 20095M 20096M 20096B 20122M 20125B 20204  20329M 20330M 20330B 20392M 20393M
             20393B 20429M 20430M 20430B 20649M 20650M 20650B 20678M 20681B 20719  20819M 20822B 20875  21079M 21082B
             21097  21225M 21228B 21317  21355M 21356  21357  21358  21363M 21364  21367M 21368M 21368B 21371M 21374
             21375  21376  21381M 21382M 21382B 21404M 21405M 21405B 21427M 21428M 21428B 21445M 21448B 21460  21494M
             21494  21495M 21513M 21514M 21514B 21539M 21540M 21540B 21587M 21588M 21588B 21605M 21606M 21606B 21629M
             21630M 21630B 21655M 21658B 21670  21705M 21706  21710M 21710  21735M 21738B 21750  21783M 21784  21788M
             21788  21815M 21818B 21830  21881M 21882M 21882B 21973M 21976B 22112  22189M 22190M 22190B 22241M 22242M
             22242B 22304M 22305M 22305B 22330M 22331M 22331B 22382M 22383M 22383B 22429M 22430M 22430B 22481M 22482M
             22482B 22504M 22507B 22531  22641M 22644B 22668  22778M 22781B 22805  22915M 22918B 22943  23053M 23056B
             23080  23190M 23193B 23210  23258M 23259M 23259B 23276M 23277M 23277B 23303M 23304M 23304B 23321M 23322M
             23322B 23340M 23341M 23341B 23366M 23367M 23367B 23384M 23385M 23385B 23409M 23410M 23410B 23427M 23430B
             23447  23495M 23496M 23496B 23513M 23514M 23514B 23540M 23541M 23541B 23558M 23559M 23559B 23577M 23578M
             23578B 23603M 23604M 23604B 23621M 23622M 23622B 23646M 23647M 23647B 23664M 23667B
    15(F)      922U  2097   6705M  6705   6793M  6793   6989M  7039M  7057M  7062M  7083M  7083   7106M  7106   7129M
              7129   7326M  7376M  7394M  7399M  7420M  7420   7443M  7443   7466M  7466   7638M  7638   7735M  7735
              7838M  7838   7929M  7929   8001M  8034M  8046M  8047M  8050   8062M  8067   8070   8074M  8083M  8083
1         (UTIL2025) (12:58) (15MAR04) General Purpose Register Cross Reference                                             Page  145
              8090   8130M  8130   8187M  8187   8190   8219M  8229M  8229   8249   8269   8289   8309   8329   8349
              8371M  8397M  8417M  8453M  8472M  8496M  8496   8523M  8550M  8577M  8602M  8602   8812M  8831M  8831
              8873M  8892M  8892   8934M  8953M  8953   8995M  9014M  9014   9056M  9075M  9075   9117M  9136M  9136
              9193M  9194   9223M  9244M  9279M  9279   9452M  9496M  9554M  9600M  9627M  9627   9790M  9790   9870M
              9870  10066M 10066  10310  10312M 10333M 10341  10367M 10417M 10458M 10509M 10543M 10592M 10648M 10654
             10655M 10661M 10685M 10685  10924  10953M 10972M 10977  11004M 11055M 11096M 11151M 11185M 11202M 11238M
             11255M 11304M 11355M 11361  11362M 11368M 11392M 11392  11632  11634M 11635  11660M 11663  11675M 11683M
             11685  11790M 11811M 11814  11826M 11834M 11836  11882M 11916M 11962M 12013M 12086M 12111D 12113M 12113
             12114M 12115U 12124M 12124  12151M 12195M 12247M 12253  12254M 12260M 12289M 12289  12360M 12363  12375M
             12384M 12393M 12393  12400  12420M 12453M 12456  12468M 12477M 12486M 12486  12493  12512M 12696M 12722M
             12739M 12772M 12802M 12802  15503  15528M 15531  15543M 15551M 15553  15658M 15681M 15684  15696M 15704M
             15706  15752M 15786M 15832M 15883M 15956M 15981D 15983M 15983  15984M 15985U 15994M 15994  16021M 16063M
             16116M 16122  16123M 16129M 16158M 16158  16431D 16433M 16433  16434M 16435U 16438  16450M 16459M 16468M
             16468  16475  16494M 16686M 16710M 16727M 16764M 16791M 16808M 16824D 16826M 16826  16827M 16828U 16829
             16857M 16897M 16897  18617M 18621M 18630M 18630  18637  18657  18695M 18730M 18730  18836  18858M 18899M
             18899  18919  18923M 18923  18924M 18933M 18933  18940M 18941  19000M 19001M 19002M 19015  19044M 19073M
             19105M 19138M 19167M 19167  19241  19242M 19245  19257M 19262N 19265M 19274M 19274  19281  19324M 19356M
             19372  19375D 19377M 19377  19378M 19379U 19385N 19445M 19508M 19553M 19586M 19586  19725  19745M 19748
             19760M 19765N 19768M 19777M 19777  19784  19884M 19931M 19949M 19956D 19958M 19958  19959M 19960U 20002M
             20020M 20092M 20124M 20124  20244  20326M 20353M 20370M 20518M 20646M 20680M 20680  20821M 20821  20911M
             20911  20945M 20973M 21023M 21046M 21081M 21081  21133M 21133  21169M 21192M 21227M 21227  21377M 21377
             21387M 21447M 21447  21490M 21495M 21504M 21504  21530  21545  21554  21638M 21657M 21657  21714M 21714
             21718M 21718  21737M 21737  21792M 21792  21798M 21798  21817M 21817  21864M 21885M 21920M 21952M 21953
             21956M 21975M 21975  22141  22142M 22143  22186M 22238M 22301M 22327M 22379M 22426M 22478M 22506M 22506
             22578M 22581  22593M 22600M 22602  22643M 22643  22715M 22718  22730M 22737M 22739  22780M 22780  22852M
             22855  22867M 22874M 22876  22917M 22917  22990M 22993  23005M 23012M 23014  23055M 23055  23127M 23130
             23142M 23149M 23151  23192M 23192  23255M 23273M 23300M 23318M 23337M 23363M 23381M 23406M 23429M 23429
             23492M 23510M 23537M 23555M 23574M 23600M 23618M 23643M 23666M 23666

1UTIL     (UTIL2025) (12:58) (15MAR04) Diagnostic Cross Reference and Assembler Summary                                     Page  146
-                                                                                            HLASM R4.0  2004/03/15 12.58
0     No Statements Flagged in this Assembly
 HIGH LEVEL ASSEMBLER, 5696-234, RELEASE 4.0, PTF P72483
0SYSTEM: OS/390 02.10.00            JOBNAME: WYL#UTIL    STEPNAME: ASM        PROCSTEP: (NOPROC)
0Datasets Allocated for this Assembly
  Con DDname   Dataset Name                                 Volume  Member
   P1 SYSIN    WYL.GS.WYL.WYLBUR.SOURCE                     SYSB05  UTIL
   L1 SYSLIB   WYL.GS.WYL.WYLBUR.MACLIB                     SYSB05
   L2          WYL.GG.SYS.MACLIB                            SYSB05
   L3          SYS3.IS.MACLIB                               SYSB05
   L4          SYS3.MACLIB                                  SYSB02
   L5          SYS1.MACLIB                                  MVSBR9
   L6          SYS1.MODGEN                                  MVSBR9
      SYSPRINT SYS04075.T125851.RA000.WYL#UTIL.PRINT.H01    SCR100
      SYSTERM  GG$SLP.WYL#UTIL.JOB03580.D0000101.?

    3668K allocated to Buffer Pool,         3029K would be required for this to be an In-Storage Assembly
    2298 Primary Input Records Read         7487 Library Records Read                  0 Work File Reads
       0 ASMAOPT Records Read              14825 Primary Print Records Written         0 Work File Writes
       0 Punch Records Written                 0 ADATA Records Written
0Assembly Start Time: 12.58.53 Stop Time: 12.59.20 Processor Time: 00.00.04.1827
 Return Code 000
