1                        J E S 2  J O B  L O G  --  S Y S T E M  S Y S B  --  N O D E  R L G
0
 12.55.44 JOB03565 ---- MONDAY,    15 MAR 2004 ----
 12.55.44 JOB03565  ICH70001I GG$SLP   LAST ACCESS AT 12:55:18 ON MONDAY, MARCH 15, 2004
 12.55.44 JOB03565  $HASP373 WYL#STAT STARTED - INIT 6    - CLASS B - SYS SYSB
 12.55.44 JOB03565  ***  HCMD      STEP $$QUIET
 12.55.44 JOB03565  PUR * Q OUT MUL
 12.55.44 JOB03565  JOB 5427 WYL#STAT WILL BE PURGED
 12.55.45 JOB03565  WYL#STAT.$$QUIET .         RC=Zero TapeIO=0000 DiskIO=0000 CPU=  .01s Elapsed=44.45s
 12.56.02 JOB03565  WYL#STAT.ASM     .         RC=Zero TapeIO=0000 DiskIO=0763 CPU= 3.52s Elapsed=46.10s
 12.56.03 JOB03565  WYL#STAT.EDIT    .         RC=Zero TapeIO=0000 DiskIO=0113 CPU=  .36s Elapsed=62.33s
 12.56.03 JOB03565  WYL#STAT Ended.  Name=Assemble STAT                  Total CPU= 3.89s Elapsed=44.45s
 12.56.03 JOB03565
 12.56.03 JOB03565  Execution charges   Priority=Standard   Block=Day
 12.56.03 JOB03565
 12.56.03 JOB03565  CPU Usage          71.25          $44.17   Standard Processing Unit Equivalent
 12.56.03 JOB03565                                   =======
 12.56.03 JOB03565                                    $44.17   Total Job execution charge
 12.56.03 JOB03565
 12.56.04 JOB03565  See back separator page for print charges
 12.56.04 JOB03565
 12.56.04 JOB03565  $HASP395 WYL#STAT ENDED  ASM=0, EDIT=0
1        1 //WYL#STAT JOB SLP$GG,'Assemble STAT',TIME=4,REGION=4M                  JOB03565
           //*
           /*JOBPARM LINES=99,COPIES=1
           /*JOBPARM FORMS=3HOL,PFORMAT=LAND,CHARS=BD13,DUPLEX=YES,FLASH=BAR4
           //*
           /*JOBPARM NOTIFY=GG.SLP,HOLD=OUTPUT                                     WYLGEN
         2 //$$QUIET EXEC PGM=HCMDX,PARM='PUR * Q OUT MUL'
           //*
         3 //ASM    EXEC PGM=ASMA90,REGION=8M,
           //            PARM=('NORENT,TERM,FLAG(NOCONT),US(MAP,WARN(10)),NODECK',
           //            'LC(32767),XREF(SHORT),ESD,DXREF,NOOBJECT')
         4 //STEPLIB DD DSN=SYS3.IS.TESTASM,DISP=SHR
         5 //SYSLIB   DD  DSN=WYL.GS.WYL.WYLBUR.MACLIB,DISP=SHR
         6 //         DD  DSN=WYL.GG.SYS.MACLIB,DISP=SHR
         7 //         DD  DSN=SYS3.IS.MACLIB,DISP=SHR
         8 //         DD  DSN=SYS3.MACLIB,DISP=SHR
         9 //         DD  DSN=SYS1.MACLIB,DISP=SHR
        10 //         DD  DSN=SYS1.MODGEN,DISP=SHR
        11 //SYSUT1   DD DSN=&&SYSUT1,UNIT=VIO,DISP=(,DELETE),
           //            SPACE=(4088,(500,250),,CONTIG,ROUND)
        12 //SYSTERM  DD SYSOUT=T
        13 //SYSPRINT DD DSN=&&PRINT,UNIT=SYSDA,DISP=(,PASS),
           //            SPACE=(6650,(250,250),RLSE),
           //            DCB=(BLKSIZE=6650,LRECL=133,RECFM=FB)
        14 //SYSUDUMP DD SYSOUT=A
        15 //SYSIN    DD  DSN=WYL.GS.WYL.WYLBUR.SOURCE(STAT),DISP=SHR
           //*
        16 //EDIT    EXEC PGM=ASMEDIT,TIME=2,REGION=4000K,
           //             PARM='STMT'
        17 //STEPLIB  DD  DSN=WYL.GG.SYS.LINKLIB,DISP=SHR
        18 //ASMOUT   DD  DSN=&PRINT,DISP=(OLD,DELETE)
        19 //SYSPRINT DD  SYSOUT=A
1 STMT NO. MESSAGE
 -
        11 IGD01010I STORCLAS= TEMP STORGROUP =
        11 IGD01010I STORGRP=VIO ASSIGNED.
        13 IGD01010I STORCLAS= TEMP STORGROUP =
        13 IGD01010I STORGRP=VIO ASSIGNED.
 ICH70001I GG$SLP   LAST ACCESS AT 12:55:18 ON MONDAY, MARCH 15, 2004
 IEF142I WYL#STAT $$QUIET - STEP WAS EXECUTED - COND CODE 0000
 *********************************************************************************
 *   WYL#STAT/$$QUIET /                    Return Code      Zero                 *
 *   Region used      260K (16K user + 244K system)                              *
 *   Extended region  9692K (4K user + 9688K system)                             *
 *                                                                               *
 *   Paging              In      Out                                             *
 *   Private <-> Aux      0        0       CPU time (TCB)   00:00:00.01          *
 *   Private <-> Exp      0        0       CPU time (SRB)   00:00:00.00          *
 *   VIO                  0        0       Elapsed time    917:32:08.51          *
 *   Common               0      ---                                             *
 *                                                                               *
 *                                                                               *
 *   CPU Usage          0.18         $0.11  Standard Processing Unit Equivalent  *
 *                                   $0.11  Total Step execution charge          *
 *                                                                               *
 *    I/O count  DDname   Type Addr           I/O count  DDname   Type Addr      *
 *                         *** No I/O for this step ***                          *
 *********************************************************************************
 IEF373I STEP/$$QUIET /START 2004075.1255
 IEF374I STEP/$$QUIET /STOP  2004075.1255 CPU    0MIN 00.01SEC SRB    0MIN 00.00SEC VIRT    16K SYS   244K EXT       4K SYS    9688K
 IEF236I ALLOC. FOR WYL#STAT ASM
 IEF237I 04DC ALLOCATED TO STEPLIB
 IEF237I 04DC ALLOCATED TO SYSLIB
 IEF237I 04DC ALLOCATED TO
 IEF237I 04DC ALLOCATED TO
 IEF237I 0402 ALLOCATED TO
 IEF237I 04A0 ALLOCATED TO
 IEF237I 04A0 ALLOCATED TO
 IGD101I SMS ALLOCATED TO DDNAME (SYSUT1  )
         DSN (SYS04075.T125544.RA000.WYL#STAT.SYSUT1.H01  )
         STORCLAS (TEMP) MGMTCLAS (        ) DATACLAS (        )
         VOL SER NOS= VIO
 IEF237I JES2 ALLOCATED TO SYSTERM
 IGD101I SMS ALLOCATED TO DDNAME (SYSPRINT)
         DSN (SYS04075.T125544.RA000.WYL#STAT.PRINT.H01   )
         STORCLAS (TEMP) MGMTCLAS (        ) DATACLAS (        )
         VOL SER NOS= SCR100
 IEF237I JES2 ALLOCATED TO SYSUDUMP
 IEF237I 04DC ALLOCATED TO SYSIN
 IEF142I WYL#STAT ASM - STEP WAS EXECUTED - COND CODE 0000
 IEF285I   SYS3.IS.TESTASM                              KEPT
 IEF285I   VOL SER NOS= SYSB05.
 IEF285I   WYL.GS.WYL.WYLBUR.MACLIB                     KEPT
 IEF285I   VOL SER NOS= SYSB05.
 IEF285I   WYL.GG.SYS.MACLIB                            KEPT
 IEF285I   VOL SER NOS= SYSB05.
 IEF285I   SYS3.IS.MACLIB                               KEPT
 IEF285I   VOL SER NOS= SYSB05.
 IEF285I   SYS3.MACLIB                                  KEPT
 IEF285I   VOL SER NOS= SYSB02.
 IEF285I   SYS1.MACLIB                                  KEPT
 IEF285I   VOL SER NOS= MVSBR9.
 IEF285I   SYS1.MODGEN                                  KEPT
 IEF285I   VOL SER NOS= MVSBR9.
 IGD105I SYS04075.T125544.RA000.WYL#STAT.SYSUT1.H01   DELETED,   DDNAME=SYSUT1
 IEF285I   GG$SLP.WYL#STAT.JOB03565.D0000101.?          SYSOUT
 IGD106I SYS04075.T125544.RA000.WYL#STAT.PRINT.H01    PASSED,    DDNAME=SYSPRINT
 IEF285I   GG$SLP.WYL#STAT.JOB03565.D0000102.?          SYSOUT
 IEF285I   WYL.GS.WYL.WYLBUR.SOURCE                     KEPT
 IEF285I   VOL SER NOS= SYSB05.
 *********************************************************************************
 *   WYL#STAT/ASM     /                    Return Code      Zero                 *
 *   Region used      4376K (4096K user + 280K system)                           *
 *   Extended region  10292K (412K user + 9880K system)                          *
 *                                                                               *
 *   Paging              In      Out                                             *
 *   Private <-> Aux      0        0       CPU time (TCB)   00:00:03.44          *
 *   Private <-> Exp      0        0       CPU time (SRB)   00:00:00.08          *
 *   VIO                  0        0       Elapsed time    917:32:06.86          *
 *   Common               0      ---                                             *
 *                                                                               *
 *                                                                               *
 *   CPU Usage         64.50        $39.99  Standard Processing Unit Equivalent  *
 *                                  $39.99  Total Step execution charge          *
 *                                                                               *
 *    I/O count  DDname   Type Addr           I/O count  DDname   Type Addr      *
 *           84  STEPLIB  Disk 04DC                 319  SYSLIB   Disk 04DC      *
 *            0  SYSLIB   Disk 04DC                   0  SYSLIB   Disk 04DC      *
 *            4  SYSLIB   Disk 0402                 241  SYSLIB   Disk 04A0      *
 *            0  SYSLIB   Disk 04A0                 313  SYSUT1   VIO  ----      *
 *            0  SYSTERM       ----                 110  SYSPRINT Disk 038B      *
 *            0  SYSUDUMP      ----                   5  SYSIN    Disk 04DC      *
 *********************************************************************************
 IEF373I STEP/ASM     /START 2004075.1255
 IEF374I STEP/ASM     /STOP  2004075.1256 CPU    0MIN 03.44SEC SRB    0MIN 00.08SEC VIRT  4096K SYS   280K EXT     412K SYS    9880K
 IEF236I ALLOC. FOR WYL#STAT EDIT
 IEF237I 0402 ALLOCATED TO STEPLIB
 IGD103I SMS ALLOCATED TO DDNAME ASMOUT
 IEF237I JES2 ALLOCATED TO SYSPRINT
 IEF142I WYL#STAT EDIT - STEP WAS EXECUTED - COND CODE 0000
 IEF285I   WYL.GG.SYS.LINKLIB                           KEPT
 IEF285I   VOL SER NOS= SYSB02.
 IGD105I SYS04075.T125544.RA000.WYL#STAT.PRINT.H01    DELETED,   DDNAME=ASMOUT
 IEF285I   GG$SLP.WYL#STAT.JOB03565.D0000103.?          SYSOUT
 *********************************************************************************
 *   WYL#STAT/EDIT    /                    Return Code      Zero                 *
 *   Region used      380K (116K user + 264K system)                             *
 *   Extended region  9816K (4K user + 9812K system)                             *
 *                                                                               *
 *   Paging              In      Out                                             *
 *   Private <-> Aux      0        0       CPU time (TCB)   00:00:00.35          *
 *   Private <-> Exp      0        0       CPU time (SRB)   00:00:00.01          *
 *   VIO                  0        0       Elapsed time    917:31:50.63          *
 *   Common               0      ---                                             *
 *                                                                               *
 *                                                                               *
 *   CPU Usage          6.56         $4.06  Standard Processing Unit Equivalent  *
 *                                   $4.06  Total Step execution charge          *
 *                                                                               *
 *    I/O count  DDname   Type Addr           I/O count  DDname   Type Addr      *
 *            2  STEPLIB  Disk 0402                 111  ASMOUT   Disk 038B      *
 *            0  SYSPRINT      ----                                              *
 *********************************************************************************
 IEF373I STEP/EDIT    /START 2004075.1256
 IEF374I STEP/EDIT    /STOP  2004075.1256 CPU    0MIN 00.35SEC SRB    0MIN 00.01SEC VIRT   116K SYS   264K EXT       4K SYS    9812K
 *********************************************************************************
 *                                                                               *
 *                      S t a n f o r d   U n i v e r s i t y                    *
 *                                                                               *
 *                              *** Job Summary ***                              *
 *                                                                               *
 *   System Id      SYSB                   Input time     12:39:27  Mar 15, 2004 *
 *                                                                               *
 *   System Release SP6.1.0                Start time     12:55:44  Mar 15, 2004 *
 *                                                                               *
 *   Job name       WYL#STAT               Stop  time     00:00:00  Mar 15, 2004 *
 *                                                                               *
 *   Account        SLP$GG                 Elapsed time  917:32:08.51            *
 *                                                                               *
 *   User Name      Assemble STAT          CPU time       00:00:03.80            *
 *                                                                               *
 *   Job class      B                      SRB Time       00:00:00.09            *
 *                                                                               *
 *********************************************************************************
 IEF375I  JOB/WYL#STAT/START 2004075.1255
 IEF376I  JOB/WYL#STAT/STOP  2004075.1256 CPU    0MIN 03.80SEC SRB    0MIN 00.09SEC
1Assembler Done STAT No Statements Flagged
1         High Level Assembler Option Summary                   (PTF P72483 )                                               Page    1
-                                                                                            HLASM R4.0  2004/03/15 12.55
0  No Overriding ASMAOPT Parameters
   Overriding Parameters-  NORENT,TERM,FLAG(NOCONT),US(MAP,WARN(10)),NODECK,LC(32767),XREF(SHORT),ESD,DXREF,NOOBJECT
   No Process Statements


   Options for this Assembly
0  NOADATA
     ALIGN
   NOASA
     BATCH
     CODEPAGE(047C)
   NOCOMPAT
   NODBCS
 3 NODECK
 3   DXREF
 3   ESD
   NOEXIT
 3   FLAG(0,ALIGN,NOCONT,NOIMPLEN,NOPAGE0,PUSH,RECORD,NOSUBSTR,USING0)
   NOFOLD
   NOGOFF
   NOINFO
     LANGUAGE(EN)
   NOLIBMAC
 3   LINECOUNT(32767)
     LIST(121)
     MXREF(SOURCE)
 3 NOOBJECT
     OPTABLE(UNI,NOLIST)
   NOPCONTROL
   NOPESTOP
   NOPROFILE
   NORA2
 3 NORENT
     RLD
     RXREF
     SIZE(MAX)
     SYSPARM()
 3   TERM(WIDE)
   NOTEST
     THREAD
   NOTRANSLATE
 3   USING(NOLIMIT,MAP,WARN(10))
 3   XREF(SHORT)

   No Overriding DD Names

1STAT     External Symbol Dictionary                                                                                        Page    2
-Symbol   Type   Id     Address  Length     LD ID  Flags Alias-of                            HLASM R4.0  2004/03/15 12.55
0WYLSTAT   SD 00000001 00000000 000019C0             00
 STAT2025  LD          00000000           00000001
 STATINIT  LD          00000018           00000001
 STATSTOP  LD          000000A8           00000001
 WMONITOR  LD          000001C8           00000001
 MNULL     ER 00000002
 MTOKEN    ER 00000003
 MALL      ER 00000004
 NOTVALID  ER 00000005
 WMONRES   LD          000005F4           00000001
 WMONSTRT  LD          0000063C           00000001
 WMONSTOP  LD          0000077C           00000001
 SEGCR     ER 00000006
 NSCAN     ER 00000007
 SCANCHK   ER 00000008
 MEMSTART  ER 00000009
 MEMEND    ER 0000000A
 GETCORE   ER 0000000B
 LOCALTOD  ER 0000000C
 SHOWWMON  LD          000008BE           00000001
 COLLOPTS  ER 0000000D
 SEG       ER 0000000E
 FMTXDATE  ER 0000000F
 SEGT      ER 00000010
 SEGHX     ER 00000011
 TLOC      ER 00000012
 SEGDC     ER 00000013
 SEGCOL    ER 00000014
 CV        ER 00000015
 LOGCMD    LD          000014B0           00000001
 LOGEVENT  LD          000014E8           00000001
 SHOWWLOG  LD          000015FA           00000001
 INITWLOG  LD          00001692           00000001
 FREEWLOG  LD          000016EC           00000001
 QSERVSEG  LD          000018A8           00000001
 FMTDATE   ER 00000016
 FMTTIME   ER 00000017
 BTD       ER 00000018
 SEGWR     ER 00000019
 FREECORE  ER 0000001A
 MEMEND    LD          000019A0           00000001

1STAT     WYLBUR's Statistics Gathering Routines                                                                            Page    3
0Loc    Object Code    Addr1 Addr2  Stmt Lv Lineno    Source Statement                    (Asmedit 3.3)  HLASM R4.0  2004/03/15 12.55
+___    ______ ____    _____ _____  ____ __ ______    ______ _________
0                                      2              *******************************************************************
                                       3              *                                                                 *
                                       4              *     WYLBUR/370 - Release VI - Class I - Stanford Proprietary    *
                                       5              *                                                                 *
                                       6              *******************************************************************
                                       7                       HIBAL
                                     988
 000000                00000 019C0   989              WYLSTAT  CSECT
-                                    994                       REGS  FSR,,,,,,,BR,(WAR,LSR),PAR,PBR,CPR,CVR,SPR,RAR
                                    1130                       SYSDEFN ,                 Define installation params
                                    1131
                                    1132              STAT     IDENT 2025                11:49:33 01/25/02  (SLP)
                                    1135             +
                                    1136    01-IDENT +         ENTRY STAT2025
                                    1137             +
 000000 16E2E3C1E3F2F0F2            1138    01-IDENT +STAT2025 DC    AL1(22),C'STAT2025,15MAR04,12:55'
                                    1139             +*
                                    1141              *
                                    1142                       PUSH  DSECTS
 USING  CP,R11                      1153             =         USING (CP),(CV)
 USING  CV,R12
 000017                00000 019C0  1172             =         POP   PRINT
1STAT     (STAT2025) (12:55) (15MAR04) Statistics Gathering Routines                                                        Page    4
0Current Usings:  (CP,R11) (CV,R12)
0Loc    Object Code    Addr1 Addr2  Stmt Lv Lineno    Source Statement           (Hibal 5, Asmedit 3.3)  HLASM R4.0  2004/03/15 12.55
+___    ______ ____    _____ _____  ____ __ ______    ______ _________
0                                  12755              ¿þþþþþþþþþþþþþþþþþþþþþþþþþþþþþþþþþþþþþþþþþþþþþþþþþþþþþþþþþþþþþþþþþþþþþÜ
                                   12756              Ÿ                                                                     Ÿ
                                   12757              Ÿ  STATINIT -- Routine to initialize statistics gathering             Ÿ
                                   12758              Ÿ    tasks.  Called from the INIT module.                             Ÿ
                                   12759              Ÿ                                                                     Ÿ
                                                      ¾þþþþþþþþþþþþþþþþþþþþþþþþþþþþþþþþþþþþþþþþþþþþþþþþþþþþþþþþþþþþþþþþþþþþþ»
0000018 50E0 D000/9008_      00000 12760              STATINIT XPROC
 USING  *,R7
 000032 5810 718E            001C0 12800                       L     R1,=A(STATTASK)
 000036 4500 7010/E2E3_      00042 12801                       IDENTIFY EP=STATTASK,ENTRY=(1)
 000044 41F0 701A/47F0_      0004C 12806                       ATTACH EP=STATTASK,ECB=STATECB,SZERO=NO
 000096 5010 70EE            00120 12836                       ST    R1,STATTCBP         Save STATS task TCB addr
 00009A 18D8/9808 D004_            12837                       PEND
 DROP   *,R7
1STAT     (STAT2025) (12:55) (15MAR04) Statistics Gathering Routines                                                        Page    5
0Current Usings:  (CP,R11) (CV,R12)
0Loc    Object Code    Addr1 Addr2  Stmt Lv Lineno    Source Statement           (Hibal 5, Asmedit 3.3)  HLASM R4.0  2004/03/15 12.55
+___    ______ ____    _____ _____  ____ __ ______    ______ _________
0                                  12858              ¿þþþþþþþþþþþþþþþþþþþþþþþþþþþþþþþþþþþþþþþþþþþþþþþþþþþþþþþþþþþþþþþþþþþþþÜ
                                   12859              Ÿ                                                                     Ÿ
                                   12860              Ÿ  STATSTOP -- Routine to terminate statistics task.                  Ÿ
                                   12861              Ÿ    Called from the FAIL module.                                     Ÿ
                                   12862              Ÿ                                                                     Ÿ
                                                      ¾þþþþþþþþþþþþþþþþþþþþþþþþþþþþþþþþþþþþþþþþþþþþþþþþþþþþþþþþþþþþþþþþþþþþþ»
00000A8 50E0 D000/9008_      00000 12863              STATSTOP XPROC
 USING  *,R7
                                   12903                       ¿þþþþþþþþþþþþþþþþþþþþþþþþþþþþÜ
                                   12904                       Ÿ  Stop statistics subtask.  Ÿ
                                   12905                       ¾þþþþþþþþþþþþþþþþþþþþþþþþþþþþ»
 0000C2 D603 705E 705E_00120 00120 12906                       IF    (STATTCBP,NZ),BEGIN
 0000CC 4110 705E/0A3E       00120 12922  1                      DETACH STATTCBP           Terminate subtask
 0000D2 4100 0001/4110_      00001 12927  1                      WAIT  ECB=STATECB         Wait for completion
 0000DC D703 705E 705E_00120 00120 12934  1                      CLEAR STATTCBP,STATECB
 0000E8                            12946                       END
                                   12950                       ¿þþþþþþþþþþþþþþþþþþþþþþþþþþþþþþþþþþþþþþþþþÜ
                                   12951                       Ÿ  Stop monitor subtask if it's started.  Ÿ
                                   12952                       ¾þþþþþþþþþþþþþþþþþþþþþþþþþþþþþþþþþþþþþþþþþ»
 0000E8 5850 7102            001C4 12953                       L     R5,=A(MVT)
 USING  MVT,R5                     12954                       WITH  (MVT,R5)
 0000EC D603 503C 503C_00164 00164 12967                       IF    (MVTTCBP,NZ),BEGIN
 0000F6 4110 503C/0A3E       00164 12983  1                      DETACH MVTTCBP            Terminate subtask
 0000FC 4100 0001/4110_      00001 12988  1                      WAIT  ECB=MVTECB          Wait for completion
 000106 D703 503C 503C_00164 00164 12995  1                      CLEAR MVTTCBP,MVTECB
 000112                            13007                       END
                                   13011
 000112 18D8/9808 D004_            13012                       PEND
 DROP   MVT,R5
 DROP   *,R7
                                   13037
 000120 00000000                   13038              STATTCBP DC    F'0'
 000124 00000000                   13039              STATECB  DC    F'0'
1STAT     (STAT2025) (12:55) (15MAR04) Statistics Gathering Routines                                                        Page    6
0Current Usings:  (CP,R11) (CV,R12)
0Loc    Object Code    Addr1 Addr2  Stmt Lv Lineno    Source Statement           (Hibal 5, Asmedit 3.3)  HLASM R4.0  2004/03/15 12.55
+___    ______ ____    _____ _____  ____ __ ______    ______ _________
0                                  13041                       AGO   .BIGBUCK
                                   13042              .BIGBUCK ANOP
                                   13043              BUCKSZ#  EQU   128,,C'N'     ****  Size of buckets (must be pwrof2)
                                   13044              BUCKSRL# EQU   7,,C'N'       ****  2**N = BUCKSZ#
                                   13045              .BUCK    ANOP
                                   13046              ***
                                   13047              ***  Monitor vector table.
                                   13048              ***
 000128 D4E5E340                   13049              MVT      DC   0D'0',C'MVT '
 00012C 00                         13050              MVTFLAG  FLAG
 MVTFLAG.MVTFUSER  80 ONES         13054                       FLAG  MVTFUSER            - Only show user mode
 MVTFLAG.MVTFPWATC 40 ONES         13059                       FLAG  MVTFPWATCH          - Watch "CVMONPTR" and not PSW
 MVTFLAG.MVTFXWATC 20 ONES         13064                       FLAG  MVTFXWATCH          - Watch exec lineno and not PSW
                                   13069
 00012D 0000000000000000           13070              MVTACCT  DC    XL8'00'             Account of monitor starter
 000135 000000
 000138 0000000000000000           13071              MVTSCLCK DC    D'0'                TOD clock at start of monitoring
 000140 0000000000000000           13072              MVTTCLCK DC    D'0'                TOD clock at end of monitoring
                                   13073
 000148 00000000                   13074              MVTMSTRT DC    A(0)                Start of memory being monitored
 00014C 00000000                   13075              MVTMEND  DC    A(0)                End of memory being monitored
 000150 00000000                   13076              MVTMLEN  DC    A(0)                Length of memory being monitored
                                   13077
 000154 00000000                   13078              MVT#TOT  DC    F'0'                Total number of samples
 000158 00000000                   13079              MVT#TOTN DC    F'0'                No. samples out of range
 00015C 00000000                   13080              MVT#TOTW DC    F'0'                No. samples when waiting
 000160 00000000                   13081              MVT#TOTD DC    F'0'                No. samples in dispatcher mode
                                   13082              MVTRESET EQU   MVT#TOT,*-MVT#TOT,C'X'
                                   13083
 000164 00000000                   13084              MVTTCBP  DC    F'0'                Monitor subtask TCB ptr
 000168 00000000                   13085              MVTECB   DC    F'0'                Monitor subtask ECB
                                   13086
 00016C 00000000                   13087              MVTBUCKP DC    A(0)                Bucket table ptr
 000170 00000000                   13088              MVTBUCKL DC    A(0)                Total size of table
                                   13089                      ¿þþþþþþþþþþþþþþþþþþþþþþþþþþþþþþþþþþþþþþþþþþþþþþþþþþþþþþþþþþþþþþþÜ
                                   13090                      Ÿ  The following fields are set if the monitor subtask abends.  Ÿ
                                   13091                      ¾þþþþþþþþþþþþþþþþþþþþþþþþþþþþþþþþþþþþþþþþþþþþþþþþþþþþþþþþþþþþþþþ»
 000174 00000000                   13092              MVTANXT1 DC    F'0'                Next SVC psw ia
 000178 00000000                   13093              MVTANXT2 DC    F'0'                Next psw ia
 00017C 0000000000000000           13094              MVTASRSV DC    16F'0'              Registers at time of error
                                   13095              MVTABEND EQU   MVTANXT1,*-MVTANXT1,C'X'
                                   13096
                                   13097                       QLTORG
1STAT     (STAT2025) (12:55) (15MAR04) Statistics Gathering Routines                                                        Page    7
0Current Usings:  (CP,R11) (CV,R12)
0Loc    Object Code    Addr1 Addr2  Stmt Lv Lineno    Source Statement           (Hibal 5, Asmedit 3.3)  HLASM R4.0  2004/03/15 12.55
+___    ______ ____    _____ _____  ____ __ ______    ______ _________
0000000                00000 00001 13112              WMONWA   RECORD BEGIN
 000000 00                         13120  1           WMONFLAG   FLAG
 WMONFLAG.WMONFOPT 80 ONES         13124  1                      FLAG  WMONFOPT            - Option specified
 WMONFLAG.WMONFSTA 40 ONES         13129  1                      FLAG  WMONFSTART          - Start monitoring
 WMONFLAG.WMONFSTO 20 ONES         13134  1                      FLAG  WMONFSTOP           - Stop monitoring
 WMONFLAG.WMONFRES 10 ONES         13139  1                      FLAG  WMONFRESET          - Reset counters
 WMONFLAG.WMONFPST 08 ONES         13144  1                      FLAG  WMONFPSTART         - Start monitoring "ptr"
 WMONFLAG.WMONFXST 04 ONES         13149  1                      FLAG  WMONFXSTART         - Start monitoring exec lineno
 WMONFLAG.WMONFUSE 02 ONES         13154  1                      FLAG  WMONFUSER           - User cpu time only
 WMONFLAG.WMONFALL 01 ONES         13159  1                      FLAG  WMONFALL            - All cpu time
 000001                00001 00001 13164                       END
-                                  13174              ¿þþþþþþþþþþþþþþþþþþþþþþþþþþþþþþþþþþþþþþþþþþþþþþþþþþþþþþþþþþþþþþþþþþþþþÜ
                                   13175              Ÿ                                                                     Ÿ
                                   13176              Ÿ  WMONITOR -- WMONITOR Command.                                      Ÿ
                                   13177              Ÿ                                                                     Ÿ
                                                      ¾þþþþþþþþþþþþþþþþþþþþþþþþþþþþþþþþþþþþþþþþþþþþþþþþþþþþþþþþþþþþþþþþþþþþþ»
00001C8 50E0 D000/9008_      00000 13178              WMONITOR XPROC WMONWA
 USING  *,R7
 USING  WMONWA-(4+36),R8
 0001E2 4160 8028            00000 13229                       LA    R6,WMONWA
 USING  WMONWA,R6                  13230                       USING WMONWA,R6
 0001E6 9200 6000      00000       13239                       CLEAR WMONWA
                                   13246
 0001EA 5850 762E            00810 13247                       L     R5,=A(MVT)
 USING  MVT,R5                     13248                       USING MVT,R5
                                   13257              *
                                   13258              *TEMP*   IF    ~CPSFSPR,'VCALL NOTVALID'   Only priv'd
 0001EE 9120 B3BE/4710_003BE       13259               IF ~CPSFSPR,'TSEG "(Note: WMONITOR is an internal command.)",,CR'
                                   13297
 000208 5810 B08C/1B00_      0008C 13298                       SCAN WMONPRT
 00025A 58E0 763E/0DEE       00820 13330                       SCANCHK
                                   13335                       ¿þþþþþþþþþþþþþþþþþþþþþþþþþþÜ
                                   13336                       Ÿ  Set appropriate flags.  Ÿ
                                   13337                       ¾þþþþþþþþþþþþþþþþþþþþþþþþþþ»
 000260 9120 6000/4710_00000       13338                       IF    ~WMONFSTOP,BEGIN
 000268 949F 5004      0012C       13353  1                      CLEAR MVTFPWATCH+MVTFXWATCH  Assume standard settings
 00026C 9108 6000/47E0_00000       13363  1                      IF    WMONFPSTART,'SET MVTFPWATCH'  Watch CVMONPTR
 000278 9104 6000/47E0_00000       13389  1                      IF    WMONFXSTART,'SET MVTFXWATCH'  Watch exec lineno
 000284                            13415                       END
                                   13419
 000284 9102 6000/4710_00000       13420                       IF    (WMONFUSER,OR,WMONFALL),BEGIN
 000294 9102 6000/47E0_00000       13449  1                      IF    WMONFUSER,'SET MVTFUSER'
 0002A0 9101 6000/47E0_00000       13475  1                      IF    WMONFALL,'CLEAR MVTFUSER'
                                   13502  1
 0002AC 9610 6000      00000       13503  1                      SET   WMONFRESET
 0002B0                            13509                       END
1STAT     (STAT2025) (12:55) (15MAR04) Statistics Gathering Routines                                                        Page    8
0Current Usings:  (MVT,R5) (WMONWA,R6) (*,R7) (WMONWA-(4+36),R8) (CP,R11) (CV,R12)
0Loc    Object Code    Addr1 Addr2  Stmt Lv Lineno    Source Statement           (Hibal 5, Asmedit 3.3)  HLASM R4.0  2004/03/15 12.55
+___    ______ ____    _____ _____  ____ __ ______    ______ _________
0                                  13513                       ¿þþþþþþþþþþþþþþþþþþþÜ
                                   13514                       Ÿ  Reset counters.  Ÿ
                                   13515                       ¾þþþþþþþþþþþþþþþþþþþ»
 0002B0 9110 6000/47E0_00000       13516                       IF    WMONFRESET,'ACALL WMONRES'  Reset
                                   13540                       ¿þþþþþþþþþþþþþþþþþþþþþÜ
                                   13541                       Ÿ  Start monitoring.  Ÿ
                                   13542                       ¾þþþþþþþþþþþþþþþþþþþþþ»
 0002BE 9140 6000/47E0_00000       13543                       IF    WMONFSTART,'ACALL WMONSTRT'  Start
                                   13567                       ¿þþþþþþþþþþþþþþþþþþþþÜ
                                   13568                       Ÿ  Stop monitoring.  Ÿ
                                   13569                       ¾þþþþþþþþþþþþþþþþþþþþ»
 0002CC 9120 6000/47E0_00000       13570                       IF    WMONFSTOP,'ACALL WMONSTOP'  Stop
                                   13594
 0002DA 47F0 C7DE            007DE 13595                       B     CVNEXT
 0002DE 18D8/9808 D004_            13596                       PEND
 DROP   WMONWA-(4+36),R8
 DROP   *,R7
                                   13621              ***
                                   13622              ***  WMONITOR Options.
                                   13623              ***
 0002EC 4040404040404040_          13624              WMONPRT  SCKW  ,WFNULL,NULL
 000314 E2E3C1D9E3404040_          13639                       SCKW  START,WFSTART,A
 00033C D7E2E3C1D9E34040_          13654                       SCKW  PSTART,WFPSTART,A
 000364 E7E2E3C1D9E34040_          13669                       SCKW  XSTART,WFXSTART,A
 00038C E2E3D6D740404040_          13684                       SCKW  STOP,WFSTOP,A
 0003B4 D9C5E2C5E3404040_          13699                       SCKW  RESET,WFRESET,A
 0003DC E4E2C5D940404040_          13714                       SCKW  USER,WFUSER,A
 000404 C1D3D34040404040_          13729                       SCKW  ALL,WFALL,A
 00042C 4040404040404040_          13744                       SCKW  ,V(NOTVALID)
                                   13759              *
                                   13760              *
 000454 50E0 D000/9008_      00000 13761              WFNULL   PROC
 USING  *,R7
 00046E 4110 73E8/4100_      00856 13800                       ERROR 'Expecting WMONITOR START/XSTART or WMONITOR STOP.'
 00047A 18D8/9808 D004_            13807                       PEND
 DROP   *,R7
                                   13827              *
                                   13828              *
 000488 50E0 D000/9008_      00000 13829              WFSTART  PROC  ,
 USING  *,R7
 0004A2 9120 6000/47E0_00000       13868                       IF    WMONFSTOP,'VCALL NOTVALID'
 0004B0 9640 6000      00000       13892                       SET   WMONFSTART
 0004B4 18D8/9808 D004_            13898                       PEND
 DROP   *,R7
                                   13918
 0004C2 50E0 D000/9008_      00000 13919              WFPSTART PROC  ,
 USING  *,R7
 0004DC 9120 6000/47E0_00000       13958                       IF    WMONFSTOP,'VCALL NOTVALID'
 0004EA 9648 6000      00000       13982                       SET   WMONFSTART+WMONFPSTART
 0004EE 18D8/9808 D004_            13991                       PEND
 DROP   *,R7
                                   14011
 0004FC 50E0 D000/9008_      00000 14012              WFXSTART PROC  ,
 USING  *,R7
1STAT     (STAT2025) (12:55) (15MAR04) Statistics Gathering Routines                                                        Page    9
0Current Usings:  (MVT,R5) (WMONWA,R6) (*,R7) (CP,R11) (CV,R12)
0Loc    Object Code    Addr1 Addr2  Stmt Lv Lineno    Source Statement           (Hibal 5, Asmedit 3.3)  HLASM R4.0  2004/03/15 12.55
+___    ______ ____    _____ _____  ____ __ ______    ______ _________
0000516 9120 6000/47E0_00000       14051                       IF    WMONFSTOP,'VCALL NOTVALID'
 000524 9644 6000      00000       14075                       SET   WMONFSTART+WMONFXSTART
 000528 18D8/9808 D004_            14084                       PEND
 DROP   *,R7
                                   14104
 000536 50E0 D000/9008_      00000 14105              WFSTOP   PROC  ,
 USING  *,R7
 000550 9140 6000/47E0_00000       14144                       IF    WMONFSTART,'VCALL NOTVALID'
 00055E 9620 6000      00000       14168                       SET   WMONFSTOP
 000562 18D8/9808 D004_            14174                       PEND
 DROP   *,R7
                                   14194
 000570 50E0 D000/9008_      00000 14195              WFRESET  PROC  ,
 USING  *,R7
 00058A 9610 6000      00000       14234                       SET   WMONFRESET
 00058E 18D8/9808 D004_            14240                       PEND
 DROP   *,R7
                                   14260
 00059C 50E0 D000/9008_      00000 14261              WFUSER   PROC  ,
 USING  *,R7
 0005B6 9602 6000      00000       14300                       SET   WMONFUSER
 0005BA 18D8/9808 D004_            14306                       PEND
 DROP   *,R7
                                   14326
 0005C8 50E0 D000/9008_      00000 14327              WFALL    PROC  ,
 USING  *,R7
 0005E2 94FD 6000      00000       14366                       CLEAR WMONFUSER
 0005E6 18D8/9808 D004_            14373                       PEND
 DROP   *,R7
                                   14393
 DROP   MVT,R5                     14394                       DROP  MVT,WMONWA
 DROP   WMONWA,R6
1STAT     (STAT2025) (12:55) (15MAR04) Statistics Gathering Routines                                                        Page   10
0Current Usings:  (CP,R11) (CV,R12)
0Loc    Object Code    Addr1 Addr2  Stmt Lv Lineno    Source Statement           (Hibal 5, Asmedit 3.3)  HLASM R4.0  2004/03/15 12.55
+___    ______ ____    _____ _____  ____ __ ______    ______ _________
0                                  14410              ¿þþþþþþþþþþþþþþþþþþþþþþþþþþþþþþþþþþþþþþþþþþþþþþþþþþþþþþþþþþþþþþþþþþþþþÜ
                                   14411              Ÿ                                                                     Ÿ
                                   14412              Ÿ  WMONRES -- Routine to reset monitoring counters.                   Ÿ
                                   14413              Ÿ                                                                     Ÿ
                                                      ¾þþþþþþþþþþþþþþþþþþþþþþþþþþþþþþþþþþþþþþþþþþþþþþþþþþþþþþþþþþþþþþþþþþþþþ»
00005F4 50E0 D000/9008_      00000 14414              WMONRES  XPROC
 USING  *,R7
 00060E 5860 7202            00810 14454                       L     R6,=A(MVT)
 USING  MVT,R6                     14455                       WITH  (MVT,R6)
                                   14468                       ¿þþþþþþþþþþþþþþþþþþÜ
                                   14469                       Ÿ  Clear buckets.  Ÿ
                                   14470                       ¾þþþþþþþþþþþþþþþþþþ»
 000612 D603 6044 6044_0016C 0016C 14471                       IF    (MVTBUCKP,NZ),BEGIN  Clear buckets...
 00061C 58E0 6044/58F0_      0016C 14487  1                      ZOT   L:MVTBUCKP,L:MVTBUCKL
 000628                            14500                       END
                                   14504                       ¿þþþþþþþþþþþþþþþþþþþþþþþþÜ
                                   14505                       Ÿ  Clear misc counters.  Ÿ
                                   14506                       ¾þþþþþþþþþþþþþþþþþþþþþþþþ»
 000628 D70F 602C 602C 00154 00154 14507                       CLEAR MVTRESET            Clear misc counters
 00062E 18D8/9808 D004_            14514                       PEND
 DROP   MVT,R6
 DROP   *,R7
1STAT     (STAT2025) (12:55) (15MAR04) Statistics Gathering Routines                                                        Page   11
0Current Usings:  (CP,R11) (CV,R12)
0Loc    Object Code    Addr1 Addr2  Stmt Lv Lineno    Source Statement           (Hibal 5, Asmedit 3.3)  HLASM R4.0  2004/03/15 12.55
+___    ______ ____    _____ _____  ____ __ ______    ______ _________
0                                  14540              ¿þþþþþþþþþþþþþþþþþþþþþþþþþþþþþþþþþþþþþþþþþþþþþþþþþþþþþþþþþþþþþþþþþþþþþÜ
                                   14541              Ÿ                                                                     Ÿ
                                   14542              Ÿ  WMONSTRT -- Routine to start monitoring.                           Ÿ
                                   14543              Ÿ                                                                     Ÿ
                                                      ¾þþþþþþþþþþþþþþþþþþþþþþþþþþþþþþþþþþþþþþþþþþþþþþþþþþþþþþþþþþþþþþþþþþþþþ»
000063C 50E0 D000/9008_      00000 14544              WMONSTRT XPROC
 USING  *,R7
 000656 5860 71BA            00810 14584                       L     R6,=A(MVT)
 USING  MVT,R6                     14585                       WITH  (MVT,R6)
                                   14598
 00065A D603 603C 603C_00164 00164 14599                       IF    (MVTTCBP,NZ),BEGIN
 000664 4110 7231/4100_      00887 14615  1                      ABORT 'Monitoring is already active.'
 000670                            14622                       END
                                   14626                       ¿þþþþþþþþþþþþþþþþþþþþþþþþþþþþþþþþþþþþþþþþþþþþþþþþþþþÜ
                                   14627                       Ÿ  Build bucket table if it hasn't been allocated.  Ÿ
                                   14628                       ¾þþþþþþþþþþþþþþþþþþþþþþþþþþþþþþþþþþþþþþþþþþþþþþþþþþþ»
 000670 D603 6028 6028_00150 00150 14629                       IF    (MVTMLEN,Z),BEGIN   First time...
 00067A 5810 71DE            00834 14645  1                      L     R1,=V(MEMSTART)     Start of WYLBUR code
 00067E 5800 71E2            00838 14646  1                      L     R0,=V(MEMEND)       End of WYLBUR code
 000682 1B01                       14647  1                      SR    R0,R1
 000684 5900 71E6/47B0_      0083C 14648  1                      IF    (R0,LT,=A(4096)),'L R0,=A(4096)'
 000690 5900 71EA/47D0_      00840 14670  1                      IF    (R0,GT,=A(8*1024*1024)),'L R0,=A(8*1024*1024)'
 00069C 5A00 71EE            00844 14692  1                      A     R0,=A(BUCKSZ#-1)
 0006A0 8800 0007            00007 14693  1                      SRL   R0,BUCKSRL#
 0006A4 8900 0007            00007 14694  1                      SLL   R0,BUCKSRL#         Round up to next bucket
                                   14695  1
 0006A8 5000 6028            00150 14696  1                      ST    R0,MVTMLEN          Amount of memory
 0006AC 5010 6020            00148 14697  1                      ST    R1,MVTMSTRT         Start of memory
 0006B0 1A10                       14698  1                      AR    R1,R0
 0006B2 5010 6024            0014C 14699  1                      ST    R1,MVTMEND          End of memory
                                   14700  1
 0006B6 5800 6028            00150 14701  1                      L     R0,MVTMLEN          Memory length
 0006BA 8800 0005            00005 14702  1                      SRL   R0,(BUCKSRL#-2)     4 bytes per bucket
 0006BE 5000 6048            00170 14703  1                      ST    R0,MVTBUCKL
 0006C2 58E0 71F2/0DEE       00848 14704  1                      VCALL GETCORE             Get memory for buckets
 0006C8 5010 6044            0016C 14708  1                      ST    R1,MVTBUCKP
 0006CC                            14709                       END
                                   14713
 0006CC 58E0 6044/58F0_      0016C 14714                       ZOT   L:MVTBUCKP,L:MVTBUCKL  Reset buckets
                                   14727                       ¿þþþþþþþþþþþþþþþþþþþþþþþþþþþþþþþþÜ
                                   14728                       Ÿ  Start up monitoring subtask.  Ÿ
                                   14729                       ¾þþþþþþþþþþþþþþþþþþþþþþþþþþþþþþþþ»
 0006D8 58E0 71F6/0DEE       0084C 14730                       VCALL LOCALTOD            Clock at start
 0006DE 9001 6010            00138 14734                       STM   R0,R1,MVTSCLCK
 0006E2 D707 6018 6018 00140 00140 14735                       CLEAR MVTTCLCK            Not yet stopped
 0006E8 D747 604C 604C 00174 00174 14742                       CLEAR MVTABEND            Reset any prev abend info
                                   14749
 0006EE D207 6005 C4D8 0012D 004D8 14750                       MVC   MVTACCT,CVBLANKS    Save userid
 0006F4 D201 6005 B3B7 0012D 003B7 14751                       MVC   MVTACCT(2),CPSGRP
 0006FA 924B 6007      0012F       14752                       MVI   MVTACCT+2,C'.'
 0006FE D202 6008 B3B4 00130 003B4 14753                       MVC   MVTACCT+3(3),CPSUSER
                                   14754
 000704 5810 71FA            00850 14755                       L     R1,=A(WMONTASK)
1STAT     (STAT2025) (12:55) (15MAR04) Statistics Gathering Routines                                                        Page   12
0Current Usings:  (MVT,R6) (*,R7) (CP,R11) (CV,R12)
0Loc    Object Code    Addr1 Addr2  Stmt Lv Lineno    Source Statement           (Hibal 5, Asmedit 3.3)  HLASM R4.0  2004/03/15 12.55
+___    ______ ____    _____ _____  ____ __ ______    ______ _________
0000708 4500 70BE/E6D4_      00714 14756                       IDENTIFY EP=WMONTASK,ENTRY=(1)
 000716 41F0 70CA/47F0_      00720 14761                       ATTACH EP=WMONTASK,ECB=MVTECB,SZERO=NO
 00076A 5010 603C            00164 14791                       ST    R1,MVTTCBP          Save subtask's TCB ptr
 00076E 18D8/9808 D004_            14792                       PEND
 DROP   MVT,R6
 DROP   *,R7
1STAT     (STAT2025) (12:55) (15MAR04) Statistics Gathering Routines                                                        Page   13
0Current Usings:  (CP,R11) (CV,R12)
0Loc    Object Code    Addr1 Addr2  Stmt Lv Lineno    Source Statement           (Hibal 5, Asmedit 3.3)  HLASM R4.0  2004/03/15 12.55
+___    ______ ____    _____ _____  ____ __ ______    ______ _________
0                                  14818              ¿þþþþþþþþþþþþþþþþþþþþþþþþþþþþþþþþþþþþþþþþþþþþþþþþþþþþþþþþþþþþþþþþþþþþþÜ
                                   14819              Ÿ                                                                     Ÿ
                                   14820              Ÿ  WMONSTOP -- Routine to stop monitoring.                            Ÿ
                                   14821              Ÿ                                                                     Ÿ
                                                      ¾þþþþþþþþþþþþþþþþþþþþþþþþþþþþþþþþþþþþþþþþþþþþþþþþþþþþþþþþþþþþþþþþþþþþþ»
000077C 50E0 D000/9008_      00000 14822              WMONSTOP XPROC
 USING  *,R7
 000796 5860 707A            00810 14862                       L     R6,=A(MVT)
 USING  MVT,R6                     14863                       WITH  (MVT,R6)
                                   14876
 00079A D603 603C 603C_00164 00164 14877                       IF    (MVTTCBP,Z),BEGIN
 0007A4 4110 710E/4100_      008A4 14893  1                      ERROR 'Monitoring is not active.'
 0007B0                            14900                       END
                                   14904
 0007B0 4110 603C/0A3E       00164 14905                       DETACH MVTTCBP
 0007B6 4100 0001/4110_      00001 14910                       WAIT  ECB=MVTECB
                                   14917
 0007C0 D703 603C 603C 00164 00164 14918                       CLEAR MVTTCBP
 0007C6 D703 6040 6040 00168 00168 14925                       CLEAR MVTECB
                                   14932
 0007CC 58E0 70B6/0DEE       0084C 14933                       VCALL LOCALTOD            Save clock at stop
 0007D2 9001 6018            00140 14937                       STM   R0,R1,MVTTCLCK
 0007D6 18D8/9808 D004_            14938                       PEND
 DROP   MVT,R6
 DROP   *,R7
                                   14963
                                   14964                       QLTORG
1STAT     (STAT2025) (12:55) (15MAR04) Statistics Gathering Routines                                                        Page   14
0Current Usings:  (CP,R11) (CV,R12)
0Loc    Object Code    Addr1 Addr2  Stmt Lv Lineno    Source Statement           (Hibal 5, Asmedit 3.3)  HLASM R4.0  2004/03/15 12.55
+___    ______ ____    _____ _____  ____ __ ______    ______ _________
0                                  14999              ¿þþþþþþþþþþþþþþþþþþþþþþþþþþþþþþþþþþþþþþþþþþþþþþþþþþþþþþþþþþþþþþþþþþþþþÜ
                                   15000              Ÿ                                                                     Ÿ
                                   15001              Ÿ  SHOWWMON -- SHOW WMONITOR Command.                                 Ÿ
                                   15002              Ÿ                                                                     Ÿ
                                                      ¾þþþþþþþþþþþþþþþþþþþþþþþþþþþþþþþþþþþþþþþþþþþþþþþþþþþþþþþþþþþþþþþþþþþþþ»
00008BE 188D/4570 C74C_            15003              SHOWWMON GENTER
 USING  *,R7
 0008CC 5860 79C4            01290 15020                       L     R6,=A(MVT)
 USING  MVT,R6                     15021                       USING MVT,R6
                                   15030
 0008D0 58E0 79C8/0DEE       01294 15031                       VCALL COLLOPTS
                                   15035                       ¿þþþþþþþþþþþþþþþþþþþþþþþþþþþþþþþþÜ
                                   15036                       Ÿ  Display general information.  Ÿ
                                   15037                       ¾þþþþþþþþþþþþþþþþþþþþþþþþþþþþþþþþ»
 0008D6 D607 6010 6010_00138 00138 15038                       IF    (MVTSCLCK,Z),BEGIN
 0008E0 4110 7B3E/4100_      0140A 15054  1                      TSEG  'Monitoring was never started.',,CR
 0008F2                            15072                       END
                                   15076
 0008F2 702A/47F0 7086 008F2 008DE 15077                       ELSE  BEGIN
 0008F6 4110 7A9C/4100_      01368 15088  1                      TSEG  'Monitoring started on '
 000908 9801 6010            00138 15106  1                      LM    R0,R1,MVTSCLCK
 00090C 18FD/41D0 D040             15107  1                      XPUSH ,,64,PTR=R15
 000912 58E0 79D4/0DEE       012A0 15110  1                      VCALL FMTXDATE
 000918 41F0 B050/58E0_      00050 15114  1                      TSEG  (R1),(R0)
                                   15138  1
 000922 4110 79D8/4100_      012A4 15139  1                      TSEG  ' by '
 000934 4110 6005/4100_      0012D 15157  1                      TSEG  MVTACCT,,T
 000946 1B00/41F0 B050_            15185  1                      TCR
 000952                            15210                       END
                                   15214
 000952 D607 6018 6018_00140 00140 15215                       IF    (MVTTCLCK,NZ),BEGIN
 00095C 4110 7AB2/4100_      0137E 15231  1                      TSEG  'Monitoring stopped on '
 00096E 9801 6018            00140 15249  1                      LM    R0,R1,MVTTCLCK
 000972 18FD/41D0 D040             15250  1                      XPUSH ,,64,PTR=R15
 000978 58E0 79D4/0DEE       012A0 15253  1                      VCALL FMTXDATE
 00097E 41F0 B050/58E0_      00050 15257  1                      TSEG  (R1),(R0),CR
 000988                            15281                       END
                                   15285
 000988 D603 603C 603C_00164 00164 15286                       IF    (MVTTCBP,NZ),BEGIN
 000992 4110 7B5B/4100_      01427 15302  1                      TSEG  'Monitor task TCB='
 0009A4 5810 603C/4100_      00164 15320  1                      THEX  L:MVTTCBP,8
 0009B6 4110 7B6C/4100_      01438 15345  1                      TSEG  ')',,CR
 0009C8                            15363                       END
                                   15367                       ¿þþþþþþþþþþþþþþþþþþþþþþþþþþþþþþþþþþþþþþþþþþþþÜ
                                   15368                       Ÿ  Check to see if monitor subtask abended.  Ÿ
                                   15369                       ¾þþþþþþþþþþþþþþþþþþþþþþþþþþþþþþþþþþþþþþþþþþþþ»
 0009C8 9140 6040/47E0_00168       15370                       IF    MVTECB.X'40',BEGIN
 0009D0 1B00/41F0 B050_            15386  1                      TCR
 0009DC 4110 79E4/4100_      012B0 15411  1                      TSEG  'Monitor abended, posted ECB='
 0009EE 5810 6040/4100_      00168 15429  1                      THEX  L:MVTECB,8
 000A00 1B00/41F0 B050_            15454  1                      TCR
                                   15479  1
 000A0C 4110 7B6D/4100_      01439 15480  1                      TSEG  'PSW IA at failure is '
1STAT     (STAT2025) (12:55) (15MAR04) Statistics Gathering Routines                                                        Page   15
0Current Usings:  (MVT,R6) (*,R7) (CP,R11) (CV,R12)
0Loc    Object Code    Addr1 Addr2  Stmt Lv Lineno    Source Statement           (Hibal 5, Asmedit 3.3)  HLASM R4.0  2004/03/15 12.55
+___    ______ ____    _____ _____  ____ __ ______    ______ _________
0000A1E 58F0 6050            00178 15498  1                      L     R15,MVTANXT2
 000A22 4100 0008            00008 15499  1                      LA    R0,8
 000A26 58E0 7A00/0DEE       012CC 15500  1                      VCALL TLOC
 000A2C 4110 7964/4100_      01230 15504  1                      TSEG  ', SVC PSW IA is '
 000A3E 58F0 604C            00174 15522  1                      L     R15,MVTANXT1
 000A42 4100 0008            00008 15523  1                      LA    R0,8
 000A46 58E0 7A00/0DEE       012CC 15524  1                      VCALL TLOC
 000A4C 1B00/41F0 B050_            15528  1                      TCR
                                   15553  1
 000A58 4110 7B82/4100_      0144E 15554  1                      TSEG  'Registers saved at memory location '
 000A6A 4110 6054/4100_      0017C 15572  1                      THEX  LA:MVTASRSV,8
 000A7C 1B00/41F0 B050_            15597  1                      TCR
 000A88                            15622                       END
                                   15626
 000A88 1B00/41F0 B050_            15627                       TCR
                                   15652
 000A94 4110 7A04/4100_      012D0 15653                       TSEG  'Watch mode: '
 000AA6 4110 7BA5/4100_      01471 15671                       SETMSG 'PSW'
 000AAE 9140 6004/47E0_0012C       15675                       IF    MVTFPWATCH,'SETMSG "memory location (CVMONPTR)"'
 000ABE 9120 6004/47E0_0012C       15699                       IF    MVTFXWATCH,'SETMSG "exec file line-numbers"'
 000ACE 41F0 B050/58E0_      00050 15723                       TSEG  (R1),(R0),CR
                                   15747
 000AD8 1B00/41F0 B050_            15748                       TCR
 000AE4 4110 7BA8/4100_      01474 15773                       TSEG  'Tracing: '
 000AF6 4110 7AF8/4100_      013C4 15791                       SETMSG 'ALL (USER and DISPATCHER cpu time)'
 000AFE 9180 6004/47E0_0012C       15795                       IF    MVTFUSER,'SETMSG "USER (excludes dispatcher cpu time)"'
 000B0E 41F0 B050/58E0_      00050 15819                       TSEG  (R1),(R0),CR
                                   15843
 000B18 1B00/41F0 B050_            15844                       TCR
                                   15869
 000B24 4110 7A10/4100_      012DC 15870                       TSEG  'WYLBUR code size is '
 000B36 58F0 6028            00150 15888                       L     R15,MVTMLEN
 000B3A 5AF0 7A24            012F0 15889                       A     R15,=A(1023)
 000B3E 88F0 000A            0000A 15890                       SRL   R15,10              Number of kilobytes
 000B42 181F/1B00/41F0_            15891                       TNUM  (R15)
 000B50 4110 7BD4/4100_      014A0 15913                       TSEG  'K'
 000B62 1B00/41F0 B050_            15931                       TCR
                                   15956
 000B6E 4110 7974/4100_      01240 15957                       TSEG  'Starting addr = '
 000B80 5810 6020/4100_      00148 15975                       THEX  L:MVTMSTRT,8
 000B92 1B00/41F0 B050_            16000                       TCR
                                   16025
 000B9E 4110 7984/4100_      01250 16026                       TSEG  'Ending addr   = '
 000BB0 5810 6024/4100_      0014C 16044                       THEX  L:MVTMEND,8
 000BC2 1B00/41F0 B050_            16069                       TCR
                                   16094
 000BCE 4110 7994/4100_      01260 16095                       TSEG  'Bucket size   = '
 000BE0 4110 0080/1B00_      00080 16113                       TNUM  LA:BUCKSZ#
 000BF0 4110 7B1A/4100_      013E6 16135                       TSEG  ' bytes'
 000C02 1B00/41F0 B050_            16153                       TCR
 000C0E 1B00/41F0 B050_            16178                       TCR
                                   16203
 000C1A 4110 7BD5/4100_      014A1 16204                       TSEG  'Total samples'
 000C2C 4100 0020/41F0_      00020 16222                       TCOL  32
1STAT     (STAT2025) (12:55) (15MAR04) Statistics Gathering Routines                                                        Page   16
0Current Usings:  (MVT,R6) (*,R7) (CP,R11) (CV,R12)
0Loc    Object Code    Addr1 Addr2  Stmt Lv Lineno    Source Statement           (Hibal 5, Asmedit 3.3)  HLASM R4.0  2004/03/15 12.55
+___    ______ ____    _____ _____  ____ __ ______    ______ _________
0000C3A 4110 7BE2/4100_      014AE 16243                       TSEG  ':'
 000C4C 5810 602C/4100_      00154 16261                       TNUM  L:MVT#TOT,10
 000C5E 1B00/41F0 B050_            16286                       TCR
                                   16311
 000C6A 4110 7B20/4100_      013EC 16312                       TSEG  'Samples in dispatcher mode'
 000C7C 4100 0020/41F0_      00020 16330                       TCOL  32
 000C8A 4110 7BE2/4100_      014AE 16351                       TSEG  ':'
 000C9C 5810 6038/4100_      00160 16369                       TNUM  L:MVT#TOTD,10
 000CAE 1B00/41F0 B050_            16394                       TCR
                                   16419
 000CBA 4110 7A30/4100_      012FC 16420                       TSEG  'Samples when waiting'
 000CCC 4100 0020/41F0_      00020 16438                       TCOL  32
 000CDA 4110 7BE2/4100_      014AE 16459                       TSEG  ':'
 000CEC 5810 6034/4100_      0015C 16477                       TNUM  L:MVT#TOTW,10
 000CFE 1B00/41F0 B050_            16502                       TCR
                                   16527
 000D0A 4110 7A44/4100_      01310 16528                       TSEG  'Samples out of range'
 000D1C 4100 0020/41F0_      00020 16546                       TCOL  32
 000D2A 4110 7BE2/4100_      014AE 16567                       TSEG  ':'
 000D3C 5810 6030/4100_      00158 16585                       TNUM  L:MVT#TOTN,10
 000D4E 1B00/41F0 B050_            16610                       TCR
 000D5A 1B00/41F0 B050_            16635                       TCR
                                   16660                       ¿þþþþþþþþþþþþþþþþþþþþþþþþþÜ
                                   16661                       Ÿ  Display bucket table.  Ÿ
                                   16662                       ¾þþþþþþþþþþþþþþþþþþþþþþþþþ»
 000D66 4110 7A58/4100_      01324 16663                       TSEG  '----',,CR
 000D78 1B00/41F0 B050_            16681                       TCR
                                   16706
 000D84 5840 6044            0016C 16707                       L     R4,MVTBUCKP         Fullword bucket counter table
 000D88 5850 6020            00148 16708                       L     R5,MVTMSTRT         Start of WYLBUR code
 000D8C 5950 6024/47B0_      0014C 16709                       WHILE (R5,LT,MVTMEND),BEGIN  Go through bucket table...
 000D94 5820 4000            00000 16728  1                      L     R2,@R4              Get bucket
 000D98 1222/4780 75CC             16729  1                      IF    (R2,NZ),BEGIN
                                   16743  2
 000D9E 9120 6004/47E0_0012C       16744  2                        IF    MVTFXWATCH,BEGIN    Show exec lineno instead...
 000DA6 9003 D000/41D0_      00000 16759  3                          XPUSH R0,R3
 000DAE 1825                       16762  3                          LR    R2,R5
 000DB0 5B20 6020            00148 16763  3                          S     R2,MVTMSTRT         Offset is combined exec/lineno
 000DB4 1832                       16764  3                          LR    R3,R2
 000DB6 8830 000D            0000D 16765  3                          SRL   R3,13               Exec file number
 000DBA 5420 7A5C            01328 16766  3                          N     R2,=A(X'1FFF')      Exec line number
 000DBE 1233/4770 750A_            16767  3                          IF    (R3,Z),'TSEG "Private;    "'
 000DD6 750E/47F0 7530_00DD6 00DC2 16804  3                          ELSE  'TSEG "Pubload "; TNUM LA:@R3+CV#FEXEC-1'
 000DFC 4110 79AC/4100_      01278 16860  3                          TSEG  '; lines '
 000E0E 1812/4100 0004_            16878  3                          TNUM  (R2),4
 000E1E 4110 7BE3/4100_      014AF 16903  3                          TSEG  '/'
 000E30 4110 207F/1B00_      0007F 16921  3                          TNUM  LA:@R2+BUCKSZ#-1
 000E40 4BD0 7B3A/9803_      01406 16943  3                          XPOP  R0,R3
 000E48                            16946  2                        END
                                   16950  2
 000E48 7580/47F0 758C 00E48 00DA4 16951  2                        ELSE  BEGIN
 000E4C 18F5                       16962  3                          LR    R15,R5
 000E4E 4100 0008            00008 16963  3                          LA    R0,8
 000E52 58E0 7A00/0DEE       012CC 16964  3                          VCALL TLOC
1STAT     (STAT2025) (12:55) (15MAR04) Statistics Gathering Routines                                                        Page   17
0Current Usings:  (MVT,R6) (*,R7) (CP,R11) (CV,R12)
0Loc    Object Code    Addr1 Addr2  Stmt Lv Lineno    Source Statement           (Hibal 5, Asmedit 3.3)  HLASM R4.0  2004/03/15 12.55
+___    ______ ____    _____ _____  ____ __ ______    ______ _________
0000E58                            16968  2                        END
                                   16972  2
 000E58 4100 0020/41F0_      00020 16973  2                        TCOL  32
 000E66 4110 7BE2/4100_      014AE 16994  2                        TSEG  ':'
 000E78 1812/4100 000A_            17012  2                        TNUM  (R2),10
 000E88 1B00/41F0 B050_            17037  2                        TCR
 000E94 4770 C7DA            007DA 17062  2                        BNZ   CVABORT
 000E98                            17063  1                      END
                                   17067  1
 000E98 4150 5080            00080 17068  1                      LA    R5,@R5+BUCKSZ#
 000E9C 4140 4004            00004 17069  1                      LA    R4,@R4+4
 000EA0 47F0 74C0            00D8C 17070                       END
                                   17075
 000EA4 1B00/41F0 B050_            17076                       TCR
 000EB0 4110 79B4/4100_      01280 17101                       TSEG  'End of counters.'
 000EC2 47F0 C7DE            007DE 17119                       B     CVNEXT
                                   17120
 DROP   MVT,R6                     17121                       DROP  MVT,BR
 DROP   *,R7
1STAT     (STAT2025) (12:55) (15MAR04) Statistics Gathering Routines                                                        Page   18
0Current Usings:  (CP,R11) (CV,R12)
0Loc    Object Code    Addr1 Addr2  Stmt Lv Lineno    Source Statement           (Hibal 5, Asmedit 3.3)  HLASM R4.0  2004/03/15 12.55
+___    ______ ____    _____ _____  ____ __ ______    ______ _________
0                                  17136              ¿þþþþþþþþþþþþþþþþþþþþþþþþþþþþþþþþþþþþþþþþþþþþþþþþþþþþþþþþþþþþþþþþþþþþþÜ
                                   17137              Ÿ                                                                     Ÿ
                                   17138              Ÿ  WMONTASK -- Resource profiler subtask.                             Ÿ
                                   17139              Ÿ                                                                     Ÿ
                                                      ¾þþþþþþþþþþþþþþþþþþþþþþþþþþþþþþþþþþþþþþþþþþþþþþþþþþþþþþþþþþþþþþþþþþþþþ»
0DROP   CP,R11                     17140                       DROP  CPR                 No user addressability
                                   17147
 000EC6 0D70                       17148              WMONTASK BASE
 USING  *,R7
 000EC8 58C0 7470            01338 17162                       L     CVR,=V(CV)          CV ptr
 000ECC 1BBB                       17163                       CLEAR CPR                 No user CP
 000ECE 1B88/1BDD                  17167                       CLEAR R8,R13              No stack either!
                                   17173
 000ED2 5860 73C8            01290 17174                       L     R6,=A(MVT)
 USING  MVT,R6                     17175                       USING MVT,R6
                                   17184                       ¿þþþþþþþþþþþþþþþþþþþþþþþþþþþþþþþþþþþþþþþþÜ
                                   17185                       Ÿ  Switch into 31-bit mode (if MVS/XA).  Ÿ
                                   17186                       ¾þþþþþþþþþþþþþþþþþþþþþþþþþþþþþþþþþþþþþþþþ»
 000ED6 9110 C4C6/47E0_004C6       17187                       IF    (~CVFXA,OR,~CVFXA31),WMONCONT  Not XA, forget it
 000EE6 4120 7028            00EF0 17219                       LA    R2,WMONCONT
 000EEA 5620 7474            0133C 17220                       O     R2,=A(X'80000000')  We want 31-bit mode
 000EEE 0B02                       17221                       BSM   0,R2                Go for it
 000EF0                            17222              WMONCONT LABEL
                                   17224                       ¿þþþþþþþþþþþþþþþþþþþþþþþþþþþþþþþþþþþþÜ
                                   17225                       Ÿ  Do subtask initialization stuff.  Ÿ
                                   17226                       ¾þþþþþþþþþþþþþþþþþþþþþþþþþþþþþþþþþþþþ»
 000EF0 1B11/4100 0005_            17227                       CHAP  +5                  This task is the highest priority
                                   17231
 000EF8 4510 704C/16/0_      00F14 17232                       ESTAE WMONSTAE,PURGE=NONE,ASYNCH=YES  Trap abends
                                   17251                       ¿þþþþþþþþþþþþþþþþþþþþþþÜ
                                   17252                       Ÿ  Do CPU monitoring.  Ÿ
                                   17253                       ¾þþþþþþþþþþþþþþþþþþþþþþ»
 000F1E                            17254              WMONLOOP LABEL
                                   17256
 000F1E 4110 7478/1BFF_      01340 17257                       STIMER WAIT,TUINTVL==A(28)  Wait a short time
                                   17265
 000F2E 41F0 0001/5EF0_      00001 17266                       INCR  R15,MVT#TOT         Count sample
                                   17272                       ¿þþþþþþþþþþþþþþþþþþþþþþþþþþþþþþþþþþþþþþþþþþþþþÜ
                                   17273                       Ÿ  Watching value of address in CV, not PSW.  Ÿ
                                   17274                       ¾þþþþþþþþþþþþþþþþþþþþþþþþþþþþþþþþþþþþþþþþþþþþþ»
 000F3A 9140 6004/47E0_0012C       17275                       IF    MVTFPWATCH,BEGIN    Monitor CVMONPTR...
 000F42 5820 C164/1222       00164 17290  1                      LT    R2,CVMONPTR         Get address
 000F48 5420 747C            01344 17294  1                      N     R2,=A(X'7FFFFFFF')  Zap XA 31-bit mode
 000F4C 4770 716C            01034 17295  1                      BNZ   WMONADDR            We have an address
                                   17296  1
 000F50 41F0 0001/5EF0_      00001 17297  1                      INCR  R15,MVT#TOTW        Count "waiting" trace
 000F5C 47F0 7056            00F1E 17303  1                      B     WMONLOOP            Loop back
 000F60                            17304                       END
1STAT     (STAT2025) (12:55) (15MAR04) Statistics Gathering Routines                                                        Page   19
0Current Usings:  (MVT,R6) (*,R7) (CV,R12)
0Loc    Object Code    Addr1 Addr2  Stmt Lv Lineno    Source Statement           (Hibal 5, Asmedit 3.3)  HLASM R4.0  2004/03/15 12.55
+___    ______ ____    _____ _____  ____ __ ______    ______ _________
0                                  17308                       ¿þþþþþþþþþþþþþþþþþþþþþþþþþþþþþþþþþþþþþþþþþþþþþþþþþþþþþþþþþþþþþþÜ
                                   17309                       Ÿ  Watching current user's exec lineno, not PSW.               Ÿ
                                   17310                       Ÿ                                                              Ÿ
                                   17311                       Ÿ  Somewhat elaborite code to form a dummy address within the  Ÿ
                                   17312                       Ÿ    the range of Wylbur's loadmodule, so our common           Ÿ
                                   17313                       Ÿ    monitoring code can be used.                              Ÿ
                                   17314                       ¾þþþþþþþþþþþþþþþþþþþþþþþþþþþþþþþþþþþþþþþþþþþþþþþþþþþþþþþþþþþþþþ»
 000F60 9120 6004/47E0_0012C       17315                       IF    MVTFXWATCH,BEGIN    Monitor exec lineno...
 000F68 5850 C1C8/1255       001C8 17330  1                      LT    R5,CVCURJCB         Current user
 000F6E 4780 70F6            00FBE 17334  1                      IF    NZ,BEGIN            We have a current user...
 000F72 5840 5014            00014 17345  2                        WITH  (JCB,R5),'L R4,JCBCPX'  Current user's CP
 USING  JCB,R5
 DROP   JCB,R5
 000F76 1244/4780 70F6             17369  2                        IF    (R4,Z),EXIT         No CP
                                   17386  2
 USING  CP,R4                      17387  2                        WITH  (CP,R4),BEGIN
 000F7C 9180 4758/47E0_00758       17401  3                          IF    CPFEXEC,BEGIN       Currently in exec mode...
 000F84 5810 475C/1211       0075C 17416  4                            LT    R1,CPEXLINE         Exec lineno
 000F8A 47D0 70F6            00FBE 17420  4                            IF    NP,EXIT             Screwy, forget it
 000F8E 1B00                       17434  4                            CLEAR R0
 000F90 5D00 7480            01348 17438  4                            D     R0,=F'1000'         Convert to integer lineno
 000F94 5910 7484/47D0_      0134C 17439  4                            CEIL  R1,=A(8000)         Truncate at line 8000.
 000FA0 5820 4778            00778 17444  4                            L     R2,CP#XSET          Exec file number
 000FA4 5B20 7488            01350 17445  4                            S     R2,=A(CV#FEXEC-1)   First publoaded exec is 1
 000FA8 1222/47B0 70E8_            17446  4                            IF    (R2,NEG),'CLEAR R2'  All XLOADed exec are "0"
 000FB0 8920 000D            0000D 17469  4                            SLL   R2,13               Shift over
 000FB4 1A21                       17470  4                            AR    R2,R1
                                   17471  4
 000FB6 5A20 6020            00148 17472  4                            A     R2,MVTMSTRT         For common logic below (hack)
 000FBA 47F0 716C            01034 17473  4                            B     WMONADDR
 000FBE                            17474  3                          END
 DROP   CP,R4                      17478  2                        END
 000FBE                            17486  1                      END
                                   17490  1
 000FBE 9104 C4C4/47E0_004C4       17491  1                      IF    CVFDISP,'INCR R15,MVT#TOTD'  Dispatch mode
 000FD2 710E/47F0 711A_00FD2 00FC4 17517  1                      ELSE  'INCR R15,MVT#TOTW'  Count "waiting" trace
 000FE2 47F0 7056            00F1E 17539  1                      B     WMONLOOP            Loop back
 000FE6                            17540                       END
                                   17544                       ¿þþþþþþþþþþþþþþþþþþþþþþþþþþþþþþþþþþþþþþþþþþþþþþþþþþþþþþþþþþþþÜ
                                   17545                       Ÿ  Get mother tasks TCB ptr, and then look at the first RB.  Ÿ
                                   17546                       Ÿ    If it's a PRB then WYLBUR is running, if it's an SVRB   Ÿ
                                   17547                       Ÿ    then WYLBUR has issued an SVC (probably a WAIT SVC).    Ÿ
                                   17548                       ¾þþþþþþþþþþþþþþþþþþþþþþþþþþþþþþþþþþþþþþþþþþþþþþþþþþþþþþþþþþþþ»
 000FE6 5850 C73C            0073C 17549                       L     R5,CVTCBP           WYLBUR mother task TCB ptr
 USING  TCB,R5                     17550                       WITH  (TCB,R5),BEGIN
 000FEA 5840 5000            00020 17564  1                      L     R4,TCBRBP
 USING  RB,R4                      17565  1                      WITH  (RB,R4)
1STAT     (STAT2025) (12:55) (15MAR04) Statistics Gathering Routines                                                        Page   20
0Current Usings:  (RB,R4) (TCB,R5) (MVT,R6) (*,R7) (CV,R12)
0Loc    Object Code    Addr1 Addr2  Stmt Lv Lineno    Source Statement           (Hibal 5, Asmedit 3.3)  HLASM R4.0  2004/03/15 12.55
+___    ______ ____    _____ _____  ____ __ ______    ______ _________
0                                  17578  1                      ¿þþþþþþþþþþþþþþþþþþþþþþþþþþþþþþþþþþþþþþþþþþþþþþþþþþþþþþþþþþþþþþþÜ
                                   17579  1                      Ÿ  If top RB is not a PRB then count it, and then run down the  Ÿ
                                   17580  1                      Ÿ    RB queue to look for the PRB.  Since WYLBUR is running     Ÿ
                                   17581  1                      Ÿ    while we are doing this, there is no guarantee that the    Ÿ
                                   17582  1                      Ÿ    chain won't change while we are looking.  The following    Ÿ
                                   17583  1                      Ÿ    code is careful not to get into "infinate" loops; but      Ÿ
                                   17584  1                      Ÿ    it could get an addressing exception.                      Ÿ
                                   17585  1                      ¾þþþþþþþþþþþþþþþþþþþþþþþþþþþþþþþþþþþþþþþþþþþþþþþþþþþþþþþþþþþþþþþ»
 000FEE 91E0 400A/4780_0004A       17586  1                      IF    (RBSTAB1.RBFTP,NZ),BEGIN  Not running PRB...
 000FF6 41F0 0001/5EF0_      00001 17604  2                        INCR  R15,MVT#TOTW        Waiting (or in an SVC)
                                   17610  2
 001002 4120 0064            00064 17611  2                        LA    R2,100              Max loop count
 001006                            17612  2                        LOOP  BEGIN
 001006 5840 401C            0005C 17618  3                          L     R4,RBLINK           Next RB ptr (or TCB ptr if last)
 00100A 5440 748C            01354 17619  3                          N     R4,=A(X'FFFFFF')    24-bit addr
 00100E 1945/4780 7056             17620  3                          IF    (R4,EQ,R5),WMONLOOP   End of chain and no PRB (!)
 001014 91E0 400A/4780_0004A       17638  3                          IF    (RBSTAB1.RBFTP,Z),EXIT  Found the PRB, great
 00101C 0620                       17659  3                          DECR  R2
 00101E 1222/47D0 7056             17661  3                          IF    (R2,NP),WMONLOOP    Something is strange, forget it
 001024 47F0 713E            01006 17678  2                        END
 001028                            17683  1                      END
                                   17687  1
 001028 7164/47F0 71C4 01028 00FF4 17688  1                      ELSE  BEGIN               Running, look at PSW...
 00102C 5820 4014            00054 17699  2                        L     R2,RBOPSW+4
 001030 5420 748C            01354 17700  2                        N     R2,=A(X'FFFFFF')
                                   17701  2                        ¿þþþþþþþþþþþþþþþþþþþþþþþþþþþþþþþþþþþþþþþþþþþþþþþþþþþþþþÜ
                                   17702  2                        Ÿ  PSW is in WYLBUR's code, increment the appropriate  Ÿ
                                   17703  2                        Ÿ    bucket.                                           Ÿ
                                   17704  2                        ¾þþþþþþþþþþþþþþþþþþþþþþþþþþþþþþþþþþþþþþþþþþþþþþþþþþþþþþ»
 001034 5920 6020/4750_      00148 17705  2           WMONADDR     IF    ((R2,GE,MVTMSTRT),AND,(R2,LE,MVTMEND)),BEGIN
 001044 9104 C4C4/47E0_004C4       17739  3                          IF    CVFDISP,BEGIN       Now running in dispatcher...
 00104C 41F0 0001/5EF0_      00001 17754  4                            INCR  R15,MVT#TOTD        Count dispatcher mode
 001058 9180 6004/4710_0012C       17760  4                            IF    MVTFUSER,WMONLOOP   Only want user time, scram
 001060                            17778  3                          END
                                   17782  3
 001060 5F20 6020            00148 17783  3                          SL    R2,MVTMSTRT         Offset from start
 001064 8820 0007            00007 17784  3                          SRL   R2,BUCKSRL#         "Offset / BUCKSZ#"
 001068 8920 0002            00002 17785  3                          SLL   R2,2                Times 4 for word offset
 00106C 5A20 6044            0016C 17786  3                          A     R2,MVTBUCKP         Add in Bucket table base
 001070 41F0 0001            00001 17787  3                          LA    R15,1
 001074 5EF0 2000            00000 17788  3                          AL    R15,@R2
 001078 50F0 2000            00000 17789  3                          ST    R15,@R2             Kick bucket counter
 00107C                            17790  2                        END
                                   17794  2                        ¿þþþþþþþþþþþþþþþþþþþþþþþþþþþþþþþþþþþþþþþþþþþþþþþþþþþþþþþþþÜ
                                   17795  2                        Ÿ  PSW is not in WYLBUR's mainline code, count that too.  Ÿ
                                   17796  2                        ¾þþþþþþþþþþþþþþþþþþþþþþþþþþþþþþþþþþþþþþþþþþþþþþþþþþþþþþþþþ»
 00107C 71B8/71B8/47F0_0107C 0103A 17797  2                        ELSE  BEGIN               Not in range...
 001080 41F0 0001/5EF0_      00001 17810  3                          INCR  R15,MVT#TOTN        Not in range
 00108C                            17816  2                        END
 00108C                            17820  1                      END
 DROP   RB,R4                      17824                       END
 DROP   TCB,R5
                                   17837
 00108C 47F0 7056            00F1E 17838                       B     WMONLOOP
1STAT     (STAT2025) (12:55) (15MAR04) Statistics Gathering Routines                                                        Page   21
0Current Usings:  (MVT,R6) (*,R7) (CV,R12)
0Loc    Object Code    Addr1 Addr2  Stmt Lv Lineno    Source Statement           (Hibal 5, Asmedit 3.3)  HLASM R4.0  2004/03/15 12.55
+___    ______ ____    _____ _____  ____ __ ______    ______ _________
0                                  17839
 DROP   MVT,R6                     17840                       DROP  MVT,BR
 DROP   *,R7
1STAT     (STAT2025) (12:55) (15MAR04) Statistics Gathering Routines                                                        Page   22
0Current Usings:  (CV,R12)
0Loc    Object Code    Addr1 Addr2  Stmt Lv Lineno    Source Statement           (Hibal 5, Asmedit 3.3)  HLASM R4.0  2004/03/15 12.55
+___    ______ ____    _____ _____  ____ __ ______    ______ _________
0                                  17855              ¿þþþþþþþþþþþþþþþþþþþþþþþþþþþþþþþþþþþþþþþþþþþþþþþþþþþþþþþþþþþþþþþþþþþþþÜ
                                   17856              Ÿ                                                                     Ÿ
                                   17857              Ÿ  WMONSTAE -- Monitor task's ESTAE exit routine.                     Ÿ
                                   17858              Ÿ    Save the PSW and registers and then continue abending.           Ÿ
                                   17859              Ÿ                                                                     Ÿ
                                                      ¾þþþþþþþþþþþþþþþþþþþþþþþþþþþþþþþþþþþþþþþþþþþþþþþþþþþþþþþþþþþþþþþþþþþþþ»
0001090                            17860              WMONSTAE LABEL
 USING  WMONSTAE,R15               17862                       WITH  (WMONSTAE,R15),BEGIN
 001090 5900 F2C8/4770_      01358 17876  1                      IF    (R0,EQ,12),BEGIN    No SDWA...
 001098 1BFF                       17893  2                        CLEAR R15                 Abend, no retries
 00109A 07FE                       17897  2                        BR    RAR
 00109C                            17898  1                      END
 DROP   WMONSTAE,R15               17902                       END
                                   17910
 00109C 1861                       17911                       LR    R6,R1               SDWA ptr
 USING  SDWA,R6                    17912                       USING SDWA,R6
                                   17921
 00109E 185E                       17922                       LR    R5,RAR              Save return addr
                                   17923
 0010A0 0D70                       17924                       BASE
 USING  *,R7
                                   17938
 0010A2 58C0 7296            01338 17939                       L     CVR,=V(CV)          CV ptr
 0010A6 1BBB                       17940                       CLEAR CPR                 No CP
 0010A8 1B88/1BDD                  17944                       CLEAR R8,R13              No stack
                                   17950
 0010AC 5840 71EE            01290 17951                       L     R4,=A(MVT)
 USING  MVT,R4                     17952                       USING MVT,R4
                                   17961                       ¿þþþþþþþþþþþþþþþþþþþþþþþþþþþþþþþþþþþþþþþþþþþþþþþþþþþþþþþþþþþþþþþÜ
                                   17962                       Ÿ  We have addressability to everything now, save a few things  Ÿ
                                   17963                       Ÿ    and then split.                                            Ÿ
                                   17964                       ¾þþþþþþþþþþþþþþþþþþþþþþþþþþþþþþþþþþþþþþþþþþþþþþþþþþþþþþþþþþþþþþþ»
 0010B0 D203 404C 606C 00174 0006C 17965                       MVC   MVTANXT1,SDWANXT1   Save SVC psw ia
 0010B6 D203 4050 607C 00178 0007C 17966                       MVC   MVTANXT2,SDWANXT2   Save program psw ia
 0010BC D23F 4054 6088 0017C 00088 17967                       MVC   MVTASRSV(16*4),SDWASRSV   Save registers
                                   17968                       ¿þþþþþþþþþþþþþþþþþþþþþþÜ
                                   17969                       Ÿ  Continue abending.  Ÿ
                                   17970                       ¾þþþþþþþþþþþþþþþþþþþþþþ»
 0010C2 4110 6000            00000 17971                       LA    R1,SDWA             Needed for SETRP
 0010C6 0700/9200 10FC             17972                       SETRP RC=0                Continue abending
                                   17979
 0010CA 1BFF                       17980                       CLEAR R15                 No retries
 0010CC 07F5                       17984                       BR    R5
                                   17985
 DROP   MVT,R4                     17986                       DROP  MVT,SDWA,BR
 DROP   SDWA,R6
 DROP   *,R7
1STAT     (STAT2025) (12:55) (15MAR04) Statistics Gathering Routines                                                        Page   23
0Current Usings:  (CV,R12)
0Loc    Object Code    Addr1 Addr2  Stmt Lv Lineno    Source Statement           (Hibal 5, Asmedit 3.3)  HLASM R4.0  2004/03/15 12.55
+___    ______ ____    _____ _____  ____ __ ______    ______ _________
0                                  18008              ¿þþþþþþþþþþþþþþþþþþþþþþþþþþþþþþþþþþþþþþþþþþþþþþþþþþþþþþþþþþþþþþþþþþþþþÜ
                                   18009              Ÿ                                                                     Ÿ
                                   18010              Ÿ  STATTASK -- Statistics gathering Subtask.                          Ÿ
                                   18011              Ÿ                                                                     Ÿ
                                                      ¾þþþþþþþþþþþþþþþþþþþþþþþþþþþþþþþþþþþþþþþþþþþþþþþþþþþþþþþþþþþþþþþþþþþþþ»
0                                  18012                       DROP  CPR                 No user addressability
                                   18016
                                   18017              TIMEVAL  EQU   1*60                1 minute interval
                                   18018
 0010CE 0D70                       18019              STATTASK BASE
 USING  *,R7
 0010D0 58C0 7268            01338 18033                       L     CVR,=V(CV)          CV ptr
 0010D4 1BBB                       18034                       CLEAR CPR                 No user CP
 0010D6 1B88/1BDD                  18038                       CLEAR R8,R13              No stack either!
                                   18044
 0010DA 4110 728C/1BFF_      0135C 18045              STATSLP  STIMER WAIT,BINTVL==A(TIMEVAL*100)  Wait a bit
                                   18054                       ¿þþþþþþþþþþþþþþþþþþþþþþþþþþþþþþþÜ
                                   18055                       Ÿ  Calculate percent CPU used.  Ÿ
                                   18056                       ¾þþþþþþþþþþþþþþþþþþþþþþþþþþþþþþþ»
 0010EA 5830 7290            01360 18057                       L     R3,=A(TIMEVAL)      Total number of seconds
 0010EE 58F0 C640            00640 18058                       L     R15,CVWTCLK         Total voluntary wait time
 0010F2 5BF0 714C            0121C 18059                       S     R15,PRVWTCLK        Number of seconds we waited
 0010F6 1B3F                       18060                       SR    R3,R15              Number of seconds not waiting
 0010F8 47B0 702E/1B33       010FE 18061                       IF    NEG,'CLEAR R3'      (Hmmm)
 0010FE 5030 C65C            0065C 18081                       ST    R3,CV#CPU           Save CPU seconds used
 001102 D207 714C C640 0121C 00640 18082                       MVC   PRVWTCLK,CVWTCLK    Save old clock (for next time)
                                   18083                       ¿þþþþþþþþþþþþþþþþþþþþþþþþþþþþþþþÜ
                                   18084                       Ÿ  Calculate pages per second.  Ÿ
                                   18085                       ¾þþþþþþþþþþþþþþþþþþþþþþþþþþþþþþþ»
 001108 5830 C8E4            008E4 18086                       L     R3,CVNPIO           Current no. of page I/O's
 00110C 58F0 7148            01218 18087                       L     R15,PREVNPIO        Count TIMEVAL seconds ago
 001110 5030 7148            01218 18088                       ST    R3,PREVNPIO         Update old counter
 001114 1B3F                       18089                       SR    R3,R15              No. of page I/O's in interval
 001116 47B0 704C/1B33       0111C 18090                       IF    NEG,'CLEAR R3'      (Safety)
 00111C 1B22                       18110                       CLEAR R2
 00111E 5D20 7290            01360 18114                       D     R2,=A(TIMEVAL)      R3 = page I/O's per second
 001122 4030 C660            00660 18115                       STH   R3,CV#IOSEC         Save page I/O's per second
 001126 B205 7158      01228       18116                       STCK  WORKCLCK            Current clock
 00112A D203 C664 7158 00664 01228 18117                       MVC   CV#IOCLK,WORKCLCK   Save high word of clock
                                   18118                       ¿þþþþþþþþþþþþþþþþþþþþþþþþþþþþþþþþþþþþþþÜ
                                   18119                       Ÿ  Calculate page I/O times per PFCB.  Ÿ
                                   18120                       ¾þþþþþþþþþþþþþþþþþþþþþþþþþþþþþþþþþþþþþþ»
 001130 5860 C1D0/1266       001D0 18121                       LT    R6,CVFPFCB
 001136 4780 70EC            011BC 18125                       IF    NZ,BEGIN            We have a paging system...
 00113A                            18136  1                      LOOP  BEGIN
 USING  PFCB,R6                    18142  2                        WITH  (PFCB,R6)
 00113A D603 6008 6008_00008 00008 18155  2                        IF    (PFCBNP,NZ),BEGIN   Some pages...
 001144 D603 603C 603C_0003C 0003C 18171  3                          IF    (PFCBPNIO,NZ),BEGIN Calculate incremental numbers...
 00114E 5830 6030            00030 18187  4                            L     R3,PFCBNIO          Current number of page I/O's
 001152 5B30 603C            0003C 18188  4                            S     R3,PFCBPNIO         Number of I/O's this increment
 001156 1843                       18189  4                            LR    R4,R3               Save for calculation later
 001158 1B22                       18190  4                            CLEAR R2
 00115A 5D20 7290            01360 18194  4                            D     R2,=A(TIMEVAL)      R3 = page I/O's per second
1STAT     (STAT2025) (12:55) (15MAR04) Statistics Gathering Routines                                                        Page   24
0Current Usings:  (PFCB,R6) (*,R7) (CV,R12)
0Loc    Object Code    Addr1 Addr2  Stmt Lv Lineno    Source Statement           (Hibal 5, Asmedit 3.3)  HLASM R4.0  2004/03/15 12.55
+___    ______ ____    _____ _____  ____ __ ______    ______ _________
000115E 4030 6048            00048 18195  4                            STH   R3,PFCB#IOS         Save page I/O's per second
                                   18196  4
 001162 D607 6040 6040_00040 00040 18197  4                            IF    (PFCBPCLK,Z),'MVC PFCBPCLK,PFCBCLK'  First time case
 001172 9823 6034            00034 18219  4                            LM    R2,R3,PFCBCLK       Current total I/O wait time
 001176 5F30 6044/47B0_      00044 18220  4                            SDL   R2,PFCBPCLK         Amount of wait time this incr
 001184 8C20 0012            00012 18225  4                            SRDL  R2,12+6             .000001*64 of a sec
 001188 5D20 7294            01364 18226  4                            D     R2,=A(1000/64)      R3 = I/O wait in .001 seconds
 00118C 1B22                       18227  4                            CLEAR R2
 00118E 1244/4780 70C6_            18231  4                            IF    (R4,NZ),'DR R2,R4'  R3 = ms wait per page I/O
 001196 70CA/47F0 70CC_01196 01192 18251  4                            ELSE  'CLEAR R3'
 00119C 4030 604A            0004A 18271  4                            STH   R3,PFCB#IOT         Save page I/O response time
 0011A0                            18272  3                          END
                                   18276  3
 0011A0 D203 603C 6030 0003C 00030 18277  3                          MVC   PFCBPNIO,PFCBNIO    Update previous fields
 0011A6 D207 6040 6034 00040 00034 18278  3                          MVC   PFCBPCLK,PFCBCLK    Ditto
 0011AC                            18279  2                        END
 0011AC 4160 60A4            000A4 18283  2                        LA    R6,PFCBNEXT
 0011B0 5960 C1D4/47A0_      001D4 18284  2                        UNTIL (R6,GE,CVLPFCB)
 0011B8 47F0 706A            0113A 18305  1                      END
 DROP   PFCB,R6
 0011BC                            18315                       END
                                   18319                       ¿þþþþþþþþþþþþþþþþþþþþþþþþþþþþþþþþþþþþÜ
                                   18320                       Ÿ  Check for abandoned test system.  Ÿ
                                   18321                       ¾þþþþþþþþþþþþþþþþþþþþþþþþþþþþþþþþþþþþ»
 0011BC 9108 C4C6/4710_004C6       18322                       IF    ~CVFNOTIM,BEGIN     Test system only...
 0011C4 D601 C0D4 C0D4_000D4 000D4 18337  1                      IF    (CVNUSERS,NZ),'MVC CVTIMLFT,CVTIMOUT'  Reset timer
 0011D4 7108/47F0 7144 011D4 011CC 18359  1                      ELSE  BEGIN
 0011D8 48F0 C202            00202 18370  2                        LH    R15,CVTIMLFT
 0011DC 4BF0 7338            01408 18371  2                        SH    R15,=AL2(TIMEVAL)
 0011E0 4720 7140            01210 18372  2                        IF    ~POS,BEGIN          Abandoned testwyl...
 0011E4 4510 712E/0015_      011FE 18383  3                          WTO   'No activity. Ciao'
 001200 4110 00DE/4100_      000DE 18391  3                          ABEND 222,,STEP
 001210                            18400  2                        END
 001210 40F0 C202            00202 18404  2                        STH   R15,CVTIMLFT
 001214                            18405  1                      END
 001214                            18409                       END
                                   18413
 001214 47F0 700A            010DA 18414                       B     STATSLP             Loop back
                                   18415
 DROP   *,R7                       18416                       DROP  BR
                                   18423                       ¿þþþþþþþþþþþþþþþÜ
                                   18424                       Ÿ  Work cells.  Ÿ
                                   18425                       ¾þþþþþþþþþþþþþþþ»
 001218 00000000                   18426              PREVNPIO DC    F'0'                Previous number of page I/O's
 00121C 0000000000000000           18427              PRVWTCLK DC    XL8'00'             Previous total wait time
                                   18428
 001228                            18429              WORKCLCK DS    D                   Working STCK area
                                   18430
                                   18431                       QLTORG
1STAT     (STAT2025) (12:55) (15MAR04) WYLBUR Logging Routines                                                              Page   25
0Current Usings:  (CV,R12)
0Loc    Object Code    Addr1 Addr2  Stmt Lv Lineno    Source Statement           (Hibal 5, Asmedit 3.3)  HLASM R4.0  2004/03/15 12.55
+___    ______ ____    _____ _____  ____ __ ______    ______ _________
0USING  CP,R11                     18504                       USING CP,CPR              General assumptions
                                   18513                       USING CV,CVR
                                   18515              ¿þþþþþþþþþþþþþþþþþþþþþþþþþþþþþþþþþþþþþþþþþþþþþþþþþþþþþþþþþþþþþþþþþþþþþÜ
                                   18516              Ÿ                                                                     Ÿ
                                   18517              Ÿ  LOGCMD -- Routine to queue an event log of the current command.    Ÿ
                                   18518              Ÿ                                                                     Ÿ
                                   18519              Ÿ    On entry:                                                        Ÿ
                                   18520              Ÿ      R15   - 8 character log entry type                             Ÿ
                                   18521              Ÿ                                                                     Ÿ
                                                      ¾þþþþþþþþþþþþþþþþþþþþþþþþþþþþþþþþþþþþþþþþþþþþþþþþþþþþþþþþþþþþþþþþþþþþþ»
00014B0 50E0 D000/9008_      00000 18522              LOGCMD   XPROC
 USING  *,R7
 0014CA 41F0 7456            01920 18562                       LA    R15,=CL8'LOGCMD  '
 0014CE 4110 B242/4800_      00242 18563                       SETMSG CPCMD,LH:CPCMDLEN   Command text
 0014D6 4DE0 701E            014E8 18576                       LCALL LOGEVENT
 0014DA 18D8/9808 D004_            18578                       PEND
 DROP   *,R7
-                                  18599              ¿þþþþþþþþþþþþþþþþþþþþþþþþþþþþþþþþþþþþþþþþþþþþþþþþþþþþþþþþþþþþþþþþþþþþþÜ
                                   18600              Ÿ                                                                     Ÿ
                                   18601              Ÿ  LOGEVENT -- Routine to queue an event log entry.                   Ÿ
                                   18602              Ÿ                                                                     Ÿ
                                   18603              Ÿ    On entry:                                                        Ÿ
                                   18604              Ÿ      R1,R0 - message loc, len                                       Ÿ
                                   18605              Ÿ      R15   - 8 character log entry type                             Ÿ
                                   18606              Ÿ                                                                     Ÿ
                                                      ¾þþþþþþþþþþþþþþþþþþþþþþþþþþþþþþþþþþþþþþþþþþþþþþþþþþþþþþþþþþþþþþþþþþþþþ»
0000000                00000 00138 18607              LEVWA    RECORD BEGIN
 000000                            18615  1           LEVTYPE    DS    CL8                 Log entry type
 000008                            18616  1           LEVLOC     DS    F                   Message loc
 00000C                            18617  1           LEVLEN     DS    F                   Message len
                                   18618  1
 000010                            18619  1           LEVCLCK    DS    D                   Working STCK area
 000018                            18620  1           LEVAREA    DS    CL32                Format work area
                                   18621  1
 000038                            18622  1           LEVBUF     DS    CL256
 000138                00138 00138 18623                       END
                                   18632
 0014E8 50E0 D000/9008_      00000 18633              LOGEVENT XPROC LEVWA
 USING  *,R7
 USING  LEVWA-(4+36),R8
 001502 5900 743E/47D0_      01940 18684                       CEIL  R0,180              Max length
 00150E 5000 8034            0000C 18703                       ST    R0,LEVLEN
 001512 5010 8030            00008 18704                       ST    R1,LEVLOC
 001516 12FF/4770 701E             18705                       IF    (R15,Z),BEGIN
 00151C 41F0 7426            01928 18719  1                      LA    R15,=CL8' '
 001520                            18720                       END
 001520 D207 8028 F000 00000 00000 18724                       MVC   LEVTYPE,@R15
                                   18725              *
                                   18726              *        Build log entry.
                                   18727              *
1STAT     (STAT2025) (12:55) (15MAR04) WYLBUR Logging Routines                                                              Page   26
0Current Usings:  (*,R7) (LEVWA-(4+36),R8) (CP,R11) (CV,R12)
0Loc    Object Code    Addr1 Addr2  Stmt Lv Lineno    Source Statement           (Hibal 5, Asmedit 3.3)  HLASM R4.0  2004/03/15 12.55
+___    ______ ____    _____ _____  ____ __ ______    ______ _________
0001526 4160 8060            00038 18728                       LA    R6,LEVBUF           R6 - MSG BUF PTR
 00152A 1826                       18729                       LR    R2,R6               BLANK BUFFER
 00152C 4130 0100            00100 18730                       LA    R3,L'LEVBUF
 001530 1B44                       18731                       CLEAR R4
 001532 5850 7442            01944 18735                       L     R5,=X'40000000'
 001536 0E24                       18736                       MVCL  R2,R4
                                   18737
                                   18738                       COMMENT                   ADD TYPE
 001538 D207 8060 8028 00038 00000 18739                       MVC   LEVBUF(L'LEVTYPE),LEVTYPE
 00153E 4160 8068            00040 18740                       LA    R6,LEVBUF+L'LEVTYPE
 001542 5E60 7446            01948 18741                       INCR  R6
 001546 5E60 7446            01948 18744                       INCR  R6
                                   18747
                                   18748                       COMMENT                   ADD TIME STAMP
 00154A 58E0 744A/0DEE       0194C 18749                       VCALL LOCALTOD
 001550 9001 8038            00010 18753                       STM   R0,R1,LEVCLCK
 001554 41F0 8040            00018 18754                       LA    R15,LEVAREA
 001558 58E0 744E/0DEE       01950 18755                       VCALL FMTDATE             FORMAT "MM/DD/YYYY"
 00155E 1826                       18759                       LR    R2,R6
 001560 1830                       18760                       LR    R3,R0
 001562 1841                       18761                       LR    R4,R1
 001564 1850                       18762                       LR    R5,R0
 001566 0E24                       18763                       MVCL  R2,R4
 001568 1A60                       18764                       AR    R6,R0
 00156A 5E60 7446            01948 18765                       INCR  R6
                                   18768
 00156E 9801 8038            00010 18769                       LM    R0,R1,LEVCLCK
 001572 41F0 8040            00018 18770                       LA    R15,LEVAREA
 001576 58E0 7452/0DEE       01954 18771                       VCALL FMTTIME             FORMAT "HH:MM:SS:HH"
 00157C 1826                       18775                       LR    R2,R6
 00157E 1830                       18776                       LR    R3,R0
 001580 1841                       18777                       LR    R4,R1
 001582 1850                       18778                       LR    R5,R0
 001584 0E24                       18779                       MVCL  R2,R4
 001586 1A60                       18780                       AR    R6,R0
 001588 5E60 7446            01948 18781                       INCR  R6
                                   18784
                                   18785                       COMMENT                   ADD USER
 00158C D201 6000 B3B7 00000 003B7 18786                       MVC   @R6(2),CPSGRP
 001592 924B 6002      00002       18787                       MVI   @R6+2,C'.'
 001596 D202 6003 B3B4 00003 003B4 18788                       MVC   @R6+3(3),CPSUSER
 00159C 4160 6006            00006 18789                       LA    R6,@R6+6
 0015A0 5E60 7446            01948 18790                       INCR  R6
                                   18793
 0015A4 9180 B758/47E0_00758       18794                       IF    CPFEXEC,BEGIN       ADD EXEC FLAG
 0015AC 92E7 6000      00000       18809  1                      MVI   @R6,C'X'
 0015B0 58F0 B778            00778 18810  1                      L     R15,CP#XSET
 0015B4 4110 6002            00002 18811  1                      LA    R1,@R6+2
 0015B8 4100 0004            00004 18812  1                      LA    R0,4
 0015BC 58E0 7456/0DEE       01958 18813  1                      VCALL BTD
 0015C2                            18817                       END
 0015C2 4160 6007            00007 18821                       LA    R6,@R6+7
                                   18822
                                   18823                       COMMENT                   ADD MESSAGE
1STAT     (STAT2025) (12:55) (15MAR04) WYLBUR Logging Routines                                                              Page   27
0Current Usings:  (*,R7) (LEVWA-(4+36),R8) (CP,R11) (CV,R12)
0Loc    Object Code    Addr1 Addr2  Stmt Lv Lineno    Source Statement           (Hibal 5, Asmedit 3.3)  HLASM R4.0  2004/03/15 12.55
+___    ______ ____    _____ _____  ____ __ ______    ______ _________
00015C6 1826                       18824                       LR    R2,R6
 0015C8 5830 8034            0000C 18825                       L     R3,LEVLEN
 0015CC 5840 8030            00008 18826                       L     R4,LEVLOC
 0015D0 1853                       18827                       LR    R5,R3
 0015D2 0E24                       18828                       MVCL  R2,R4
 0015D4 5A60 8034            0000C 18829                       A     R6,LEVLEN
 0015D8 5E60 7446            01948 18830                       INCR  R6
                                   18833
                                   18834                       COMMENT                   ADD LOG RECORD TO CIRCULAR BUFFER
 0015DC 1806                       18835                       LR    R0,R6
 0015DE 4110 8060            00038 18836                       LA    R1,LEVBUF
 0015E2 1B01                       18837                       SR    R0,R1
 0015E4 58E0 745A/0DEE       0195C 18838                       ACALL WRITWLOG
                                   18842
 0015EA 1BFF                       18843                       CLEAR R15
 0015EC 18D8/9808 D004_            18847                       PEND
 DROP   LEVWA-(4+36),R8
 DROP   *,R7
1STAT     (STAT2025) (12:55) (15MAR04) WYLBUR Logging Routines                                                              Page   28
0Current Usings:  (CP,R11) (CV,R12)
0Loc    Object Code    Addr1 Addr2  Stmt Lv Lineno    Source Statement           (Hibal 5, Asmedit 3.3)  HLASM R4.0  2004/03/15 12.55
+___    ______ ____    _____ _____  ____ __ ______    ______ _________
0                                  18873              *
                                   18874              *   SHOW WLOG
                                   18875              *
                                   18876              *
 0015FA 50E0 D000/9008_      00000 18877              SHOWWLOG XPROC ,
 USING  *,R7
                                   18917
 001614 9120 B3BE/4710_003BE       18918                       IF    ~CPSFSPR,BEGIN      Priv'd command
 00161C 58E0 734C/0DEE       01960 18933  1                      VCALL NOTVALID
 001622                            18937                       END
                                   18941
 001622 4110 7378/4100_      0198C 18942                       TSEG  'Log record count: '
 001634 5820 C914            00914 18960                       L     R2,CVLOGCNT
 001638 1812/1B00/41F0_            18961                       TNUM  (R2)
 001646 1B00/41F0 B050_            18983                       TWRITE
 001652 1B22                       19008                       CLEAR R2
 001654 58E0 735C/0DEE       01970 19012                       ACALL READWLOG
 00165A 12FF/4770 7060             19016                       WHILE (R15,Z),BEGIN
 001660 41F0 B050/58E0_      00050 19032  1                      TSEG  (R1),(R0),CR
 00166A 58E0 735C/0DEE       01970 19056  1                      ACALL READWLOG
 001670 47F0 7046            0165A 19060                       END
 001674 1B00/41F0 B050_            19065                       TWRITE
                                   19090
 001680 47F0 C7DE            007DE 19091                       B     CVNEXT
 001684 18D8/9808 D004_            19092                       PEND  ,
 DROP   *,R7
1STAT     (STAT2025) (12:55) (15MAR04) WYLBUR Logging Routines                                                              Page   29
0Current Usings:  (CP,R11) (CV,R12)
0Loc    Object Code    Addr1 Addr2  Stmt Lv Lineno    Source Statement           (Hibal 5, Asmedit 3.3)  HLASM R4.0  2004/03/15 12.55
+___    ______ ____    _____ _____  ____ __ ______    ______ _________
0                                  19113              *
                                   19114              *
                                   19115              *   INITIALIZE WLOG
                                   19116              *
                                   19117              *   GET BUFFER, SET UP POINTERS
                                   19118              *
                                   19119              *
 001692 50E0 D000/9008_      00000 19120              INITWLOG XPROC ,
 USING  *,R7
                                   19160
 0016AC 5800 72CC            01978 19161                       L     R0,=AL4(CVLOGBSZ)
 0016B0 5000 C918            00918 19162                       ST    R0,CVLOGSZ
 0016B4 D703 C914 C914 00914 00914 19163                       CLEAR CVLOGCNT
                                   19170
                                   19171                       COMMENT                   GET OVERFLOW BUFFER
 0016BA 5800 C918            00918 19172                       L     R0,CVLOGSZ
 0016BE 58E0 72D0/0DEE       0197C 19173                       VCALL GETCORE
 0016C4 5010 C924            00924 19177                       ST    R1,CVLOGBF2
 0016C8 5010 C928            00928 19178                       ST    R1,CVLOGPT2
                                   19179
                                   19180                       COMMENT                   GET BUFFER
 0016CC 5800 C918            00918 19181                       L     R0,CVLOGSZ
 0016D0 58E0 72D0/0DEE       0197C 19182                       VCALL GETCORE
 0016D6 5010 C91C            0091C 19186                       ST    R1,CVLOGBF
 0016DA 5010 C920            00920 19187                       ST    R1,CVLOGPT
                                   19188
 0016DE 18D8/9808 D004_            19189                       PEND
 DROP   *,R7
1STAT     (STAT2025) (12:55) (15MAR04) WYLBUR Logging Routines                                                              Page   30
0Current Usings:  (CP,R11) (CV,R12)
0Loc    Object Code    Addr1 Addr2  Stmt Lv Lineno    Source Statement           (Hibal 5, Asmedit 3.3)  HLASM R4.0  2004/03/15 12.55
+___    ______ ____    _____ _____  ____ __ ______    ______ _________
0                                  19210              *
                                   19211              *
                                   19212              *   FREE WLOG BUFFERS
                                   19213              *
                                   19214              *   NOTE:
                                   19215              *   NOT CALLED ,, HEY IT SHOULD BE CALLED BY WYLBUR CLEANUP!
                                   19216              *
 0016EC 50E0 D000/9008_      00000 19217              FREEWLOG XPROC ,
 USING  *,R7
                                   19257
                                   19258                       COMMENT                   FREE BUFFERS
 001706 5810 C91C            0091C 19259                       L     R1,CVLOGBF
 00170A 1211/4780 7010             19260                       IF    (R1,NZ),BEGIN
 001710 58E0 727A/0DEE       01980 19274  1                      VCALL FREECORE
 001716                            19278                       END
 001716 5810 C924            00924 19282                       L     R1,CVLOGBF2
 00171A 1211/4780 7020             19283                       IF    (R1,NZ),BEGIN
 001720 58E0 727A/0DEE       01980 19297  1                      VCALL FREECORE
 001726                            19301                       END
                                   19305
                                   19306                       COMMENT                   CLEAR POINTERS
 001726 D703 C91C C91C 0091C 0091C 19307                       CLEAR CVLOGBF
 00172C D703 C920 C920 00920 00920 19314                       CLEAR CVLOGPT
 001732 D703 C924 C924 00924 00924 19321                       CLEAR CVLOGBF2
 001738 D703 C928 C928 00928 00928 19328                       CLEAR CVLOGPT2
 00173E D703 C918 C918 00918 00918 19335                       CLEAR CVLOGSZ
 001744 D703 C914 C914 00914 00914 19342                       CLEAR CVLOGCNT
                                   19349
 00174A 18D8/9808 D004_            19350                       PEND
 DROP   *,R7
1STAT     (STAT2025) (12:55) (15MAR04) WYLBUR Logging Routines                                                              Page   31
0Current Usings:  (CP,R11) (CV,R12)
0Loc    Object Code    Addr1 Addr2  Stmt Lv Lineno    Source Statement           (Hibal 5, Asmedit 3.3)  HLASM R4.0  2004/03/15 12.55
+___    ______ ____    _____ _____  ____ __ ______    ______ _________
0                                  19371              *
                                   19372              *   WRITE LOG RECORD
                                   19373              *
                                   19374              *   ON ENTRY:
                                   19375              *      R1,R0 - LOG RECORD LOC,LEN
                                   19376              *
                                   19377              *   NOTE:
                                   19378              *   RECORDS GREATER THAN 200 CHARS WILL BE TRUNCATED
                                   19379              *
                                   19380              *   NOTE:
                                   19381              *   THERE ARE TWO BUFFERS THAT ARE CIRCULARLY FILED.
                                   19382              *   SEE CODE FOR DETAILS.
                                   19383              *
                                   19384              *
 001758 50E0 D000/9008_      00000 19385              WRITWLOG PROC  ,
 USING  *,R7
                                   19424
                                   19425                       COMMENT                   ENTRY CHECKS
 001772 D503 71AA C91C_0191C 0091C 19426                       IF    (CVLOGBF,EQ,0),WLGEXIT  NO LOG BUFFER, EXIT
 00177C 1200/47D0 707E             19447                       IF    (R0,NP),WLGEXIT
 001782 5900 7212/47D0_      01984 19464                       CEIL  R0,200
                                   19483
                                   19484                       COMMENT                   BUMP LOG COUNT
 00178E 4130 0001/5E30_      00001 19485                       INCR  R3,CVLOGCNT
                                   19491
                                   19492                       COMMENT                   IF NOT ENOUGH ROOM IN BUFFER
                                   19493                       COMMENT                      MOVE LOG TO OVERFLOW BUFFER
 00179A 5820 C920            00920 19494                       L     R2,CVLOGPT          R2 - WHERE NEW RECORD WILL END
 00179E 1A20                       19495                       AR    R2,R0
 0017A0 5E20 71D6            01948 19496                       INCR  R2
 0017A4 5830 C91C            0091C 19499                       L     R3,CVLOGBF          R3 - END OF BUFFER
 0017A8 5A30 C918            00918 19500                       A     R3,CVLOGSZ
 0017AC 1923/4750 705C             19501                       IF    (R2,GE,R3),BEGIN    IF NOT ENOUGH SPACE
 0017B2 5830 C924            00924 19516  1                      L     R3,CVLOGBF2
 0017B6 5820 C91C            0091C 19517  1                      L     R2,CVLOGBF             MAKE PRIMARY BUFFER OVERFLOW
 0017BA 5020 C924            00924 19518  1                      ST    R2,CVLOGBF2
 0017BE 5820 C920            00920 19519  1                      L     R2,CVLOGPT
 0017C2 5020 C928            00928 19520  1                      ST    R2,CVLOGPT2
 0017C6 5030 C91C            0091C 19521  1                      ST    R3,CVLOGBF             MAKE OVERFLOW NEW PRIMARY
 0017CA 5030 C920            00920 19522  1                      ST    R3,CVLOGPT             SET NEW PRIMARY TO EMPTY
 0017CE                            19523                       END
                                   19527
                                   19528                       COMMENT                   WRITE RECORD TO LOG BUFFER
 0017CE 5820 C920            00920 19529                       L     R2,CVLOGPT
 0017D2 4200 2000            00000 19530                       STC   R0,@R2
 0017D6 5E20 71D6            01948 19531                       INCR  R2
 0017DA 1830                       19534                       LR    R3,R0
 0017DC 1841                       19535                       LR    R4,R1
 0017DE 1853                       19536                       LR    R5,R3
 0017E0 0E24                       19537                       MVCL  R2,R4
 0017E2 5820 C920            00920 19538                       L     R2,CVLOGPT
 0017E6 5E20 71D6            01948 19539                       INCR  R2
 0017EA 1A20                       19542                       AR    R2,R0
 0017EC 5020 C920            00920 19543                       ST    R2,CVLOGPT
1STAT     (STAT2025) (12:55) (15MAR04) WYLBUR Logging Routines                                                              Page   32
0Current Usings:  (*,R7) (CP,R11) (CV,R12)
0Loc    Object Code    Addr1 Addr2  Stmt Lv Lineno    Source Statement           (Hibal 5, Asmedit 3.3)  HLASM R4.0  2004/03/15 12.55
+___    ______ ____    _____ _____  ____ __ ______    ______ _________
0                                  19544
 0017F0                            19545              WLGEXIT  LABEL ,
 0017F0 18D8/9808 D004_            19547                       PEND
 DROP   *,R7
1STAT     (STAT2025) (12:55) (15MAR04) WYLBUR Logging Routines                                                              Page   33
0Current Usings:  (CP,R11) (CV,R12)
0Loc    Object Code    Addr1 Addr2  Stmt Lv Lineno    Source Statement           (Hibal 5, Asmedit 3.3)  HLASM R4.0  2004/03/15 12.55
+___    ______ ____    _____ _____  ____ __ ______    ______ _________
0                                  19568              *
                                   19569              *
                                   19570              *  READWLOG -
                                   19571              *
                                   19572              *  ON ENTRY:
                                   19573              *        R2 - NEXT RECORD PTR,,
                                   19574              *             (SET TO ZERO FOR FIRST, SEE RETURN FOR NEXT)
                                   19575              *
                                   19576              *  ON EXIT:
                                   19577              *        R1,R0 - RECORD LOC, LEN
                                   19578              *        R2 - NEXT RECORD PTR
                                   19579              *        R15 - R15=0 IF OK, R15=NZ IF NO MORE RECORDS
                                   19580              *
                                   19581              *
                                   19582              *  CAUTION:
                                   19583              *  IF YOU PASS ARBITARY R2, THIS ROUTINE WILL BOMB
                                   19584              *
                                   19585              *
 0017FE 50E0 D000/9008_      00000 19586              READWLOG PROC  ,
 USING  *,R7
                                   19625
                                   19626                       COMMENT                   SET POINTER FOR FIRST
 001818 5920 7170/4770_      01988 19627                       IF    (R2,EQ,0),BEGIN
 001820 5820 C924            00924 19644  1                      L     R2,CVLOGBF2         SET TO START OF OVERFLOW
 001824 D503 C928 C924_00928 00924 19645  1                      IF    (CVLOGPT2,EQ,CVLOGBF2),BEGIN   IF OVERFLOW BUF EMPTY
 00182E 5820 C91C            0091C 19663  2                        L     R2,CVLOGBF                       SET TO PRIMARY
 001832                            19664  1                      END
 001832                            19668                       END
                                   19672
                                   19673                       COMMENT                   READ THRU OVERFLOW
 001832 5920 C924/4750_      00924 19674                       IF    ((R2,GE,CVLOGBF2),AND,(R2,LT,CVLOGPT2)),BEGIN
 001842 1F00/4300 2000             19707  1                      LC    R0,@R2
 001848 5E20 7130            01948 19712  1                      INCR  R2
 00184C 1812                       19715  1                      LR    R1,R2
 00184E 1A20                       19716  1                      AR    R2,R0
 001850 5920 C928/4750_      00928 19717  1                      IF    (R2,GE,CVLOGPT2),BEGIN
 001858 5820 C91C            0091C 19734  2                        L     R2,CVLOGBF
 00185C                            19735  1                      END
 00185C 1BFF                       19739  1                      CLEAR R15
 00185E 47F0 707E            01896 19743  1                      B     RLOGEXIT
 001862                            19744                       END
                                   19748
                                   19749                       COMMENT                   THEN READ THRU REGULAR
 001862 5920 C91C/4750_      0091C 19750                       IF    ((R2,GE,CVLOGBF),AND,(R2,LT,CVLOGPT)),BEGIN
 001872 1F00/4300 2000             19783  1                      LC    R0,@R2
 001878 5E20 7130            01948 19788  1                      INCR  R2
 00187C 1812                       19791  1                      LR    R1,R2
 00187E 1A20                       19792  1                      AR    R2,R0
 001880 5920 C920/4750_      00920 19793  1                      IF    (R2,GE,CVLOGPT),BEGIN   IF AT END OF BUFFER, SET
 001888 4120 C000            00000 19810  2                        LA    R2,CV                     R2 TO EOF GENERATING VALUE
 00188C                            19811  1                      END
 00188C 1BFF                       19815  1                      CLEAR R15
 00188E 47F0 707E            01896 19819  1                      B     RLOGEXIT
 001892                            19820                       END
1STAT     (STAT2025) (12:55) (15MAR04) WYLBUR Logging Routines                                                              Page   34
0Current Usings:  (*,R7) (CP,R11) (CV,R12)
0Loc    Object Code    Addr1 Addr2  Stmt Lv Lineno    Source Statement           (Hibal 5, Asmedit 3.3)  HLASM R4.0  2004/03/15 12.55
+___    ______ ____    _____ _____  ____ __ ______    ______ _________
0                                  19824
                                   19825                       COMMENT                   IF NOT IN EITHER BUF, EOF
 001892 41F0 0004            00004 19826                       LA    R15,4
                                   19827
 001896                            19828              RLOGEXIT LABEL ,
 001896 9002 8004            00004 19830                       PRETURN (R0,R2)
 00189A 18D8/9808 D004_            19832                       PEND  ,
 DROP   *,R7
1STAT     (STAT2025) (12:55) (15MAR04) WYLBUR Logging Routines                                                              Page   35
0Current Usings:  (CP,R11) (CV,R12)
0Loc    Object Code    Addr1 Addr2  Stmt Lv Lineno    Source Statement           (Hibal 5, Asmedit 3.3)  HLASM R4.0  2004/03/15 12.55
+___    ______ ____    _____ _____  ____ __ ______    ______ _________
0                                  19853              ¿þþþþþþþþþþþþþþþþþþþþþþþþþþþþþþþþþþþþþþþþþþþþþþþþþþþþþþþþþþþþþþþþþþþþþÜ
                                   19854              Ÿ                                                                     Ÿ
                                   19855              Ÿ  QSERVSEG -- Seg processing routine for QSERV text.                 Ÿ
                                   19856              Ÿ                                                                     Ÿ
                                   19857              Ÿ    On entry:                                                        Ÿ
                                   19858              Ÿ      R15 - SEGCB ptr                                                Ÿ
                                   19859              Ÿ                                                                     Ÿ
                                                      ¾þþþþþþþþþþþþþþþþþþþþþþþþþþþþþþþþþþþþþþþþþþþþþþþþþþþþþþþþþþþþþþþþþþþþþ»
00018A8 50E0 D000/9008_      00000 19860              QSERVSEG XPROC
 USING  *,R7
                                   19900
 0018C2 186F                       19901                       LR    R6,R15
 USING  SEGCB,R6                   19902                       WITH  (SEGCB,R6)
                                   19915                       ¿þþþþþþþþþþþþþþþþÜ
                                   19916                       Ÿ  SEGCR/SEGWR.  Ÿ
                                   19917                       ¾þþþþþþþþþþþþþþþþ»
 0018C4 9506 6000/4780_00000       19918                       IF    (SEGCBCR,OR,SEGCBWR),BEGIN  Write...
                                   19947  1                      ¿þþþþþþþþþþþþþþþþþþþþþþþþþþþþþþþþþþþþþþþþþþþþþþþþþþþþþþþþþþþþþþþÜ
                                   19948  1                      Ÿ  Issue QSERV SVC.                                             Ÿ
                                   19949  1                      Ÿ                                                               Ÿ
                                   19950  1                      Ÿ    The 16 character QSERV entry type (e.g. PRISMLOG, EVENT)   Ÿ
                                   19951  1                      Ÿ    is pointed to by the USR field in the SEGCB.  If it isn't  Ÿ
                                   19952  1                      Ÿ    filled in, then we will use "WYLBUR" as a universal        Ÿ
                                   19953  1                      Ÿ    default.                                                   Ÿ
                                   19954  1                      ¾þþþþþþþþþþþþþþþþþþþþþþþþþþþþþþþþþþþþþþþþþþþþþþþþþþþþþþþþþþþþþþþ»
 0018D4 9110 C4C4/4710_004C4       19955  1                      IF    CVFRLG,EXIT         Not implemented on RLG yet
                                   19973  1
 0018DC 41F0 0001/5EF0_      00001 19974  1                      INCR  R15,CVNQSERV        Count the number of QSERVs
                                   19980  1
 0018E8 58F0 6038/12FF       00038 19981  1                      LT    R15,SEGCBUSR        Get entry type ptr
 0018EE 4770 7034/41F0_      018F6 19985  1                      IF    Z,'LA R15,=CL16"WYLBUR"'  Universal default
                                   20002  1
 0018F6 0AF1/12FF                  20003  1                      QSERV (R15),(R1),(R0)     Queue request
 0018FA 4780 7048/41F0_      0190A 20020  1                      IF    NZ,'INCR R15,CVNQSERR'  Count the error
                                   20042  1
 00190A 1BFF                       20043  1                      CLEAR R15                 A-ok
 00190C                            20047                       END
                                   20051
 00190C 18D8/9808 D004_            20052                       PEND
 DROP   SEGCB,R6
 DROP   *,R7
                                   20077
                                   20078                       QLTORG
                                   20114
                                   20115                       VLTORG
1STAT     (STAT2025) (12:55) (15MAR04) WYLBUR Logging Routines                                                              Page   36
0Current Usings:  (CP,R11) (CV,R12)
0Loc    Object Code    Addr1 Addr2  Stmt Lv Lineno    Source Statement           (Hibal 5, Asmedit 3.3)  HLASM R4.0  2004/03/15 12.55
+___    ______ ____    _____ _____  ____ __ ______    ______ _________
0                                  20123                       ¿þþþþþþþþþþþþþþþþþþþþþþþþþþþþþþþþþþþþþþþþþþþþþþþþþþþþþþþþþþþþÜ
                                   20124                       Ÿ  This module should be the last included in the WYLBUR     Ÿ
                                   20125                       Ÿ  link-edit, hence the following symbol will represent the  Ÿ
                                   20126                       Ÿ  end of WYLBUR's code.  The CPU time profiler              Ÿ
                                   20127                       Ÿ  needs to know the start and ending address of WYLBUR's    Ÿ
                                   20128                       Ÿ  code.                                                     Ÿ
                                   20129                       ¾þþþþþþþþþþþþþþþþþþþþþþþþþþþþþþþþþþþþþþþþþþþþþþþþþþþþþþþþþþþþ»
                                   20130                       ENTRY MEMEND
 0019A0                            20131              MEMEND   DS    0D
 0019A0 C5D5C440D6C640E6           20132                       DC    CL32'END OF WYLBUR CODE'
                                   20133
 0019C0                019C0 019C0 20134                       END   .

1STAT     (STAT2025) (12:55) (15MAR04) Relocation Dictionary                                                                Page   37
-   Pos.Id   Rel.Id   Flags    Address                                                       HLASM R4.0  2004/03/15 12.55
0  00000001 00000001    0C    0000004C
   00000001 00000001    0C    00000054
   00000001 00000001    0C    000001C0
   00000001 00000001    0C    000001C4
   00000001 00000001    0C    00000310
   00000001 00000001    0C    00000338
   00000001 00000001    0C    00000360
   00000001 00000001    0C    00000388
   00000001 00000001    0C    000003B0
   00000001 00000001    0C    000003D8
   00000001 00000001    0C    00000400
   00000001 00000001    0C    00000428
   00000001 00000001    0C    00000720
   00000001 00000001    0C    00000728
   00000001 00000001    0C    00000810
   00000001 00000001    0C    00000818
   00000001 00000001    0C    00000824
   00000001 00000001    0C    00000828
   00000001 00000001    0C    0000082C
   00000001 00000001    0C    00000850
   00000001 00000001    0C    00000F10
   00000001 00000001    0C    00001290
   00000001 00000001    0C    0000195C
   00000001 00000001    0C    00001970
   00000001 00000002    1C    0000030C
   00000001 00000003    1C    00000334
   00000001 00000003    1C    0000035C
   00000001 00000003    1C    00000384
   00000001 00000003    1C    000003AC
   00000001 00000003    1C    000003D4
   00000001 00000003    1C    000003FC
   00000001 00000003    1C    00000424
   00000001 00000004    1C    0000044C
   00000001 00000005    1C    00000450
   00000001 00000005    1C    00000830
   00000001 00000005    1C    00001960
   00000001 00000006    1C    00000814
   00000001 00000006    1C    00001298
   00000001 00000006    1C    00001974
   00000001 00000007    1C    0000081C
   00000001 00000008    1C    00000820
   00000001 00000009    1C    00000834
   00000001 0000000A    1C    00000838
   00000001 0000000B    1C    00000848
   00000001 0000000B    1C    0000197C
   00000001 0000000C    1C    0000084C
   00000001 0000000C    1C    0000194C
   00000001 0000000D    1C    00001294
   00000001 0000000E    1C    0000129C
   00000001 0000000E    1C    00001964
   00000001 0000000F    1C    000012A0
   00000001 00000010    1C    000012A8
   00000001 00000011    1C    000012AC
   00000001 00000012    1C    000012CC
   00000001 00000013    1C    000012F4
1STAT     (STAT2025) (12:55) (15MAR04) Relocation Dictionary                                                                Page   38
   00000001 00000013    1C    00001968
   00000001 00000014    1C    000012F8
   00000001 00000015    1C    00001338
   00000001 00000016    1C    00001950
   00000001 00000017    1C    00001954
   00000001 00000018    1C    00001958
   00000001 00000019    1C    0000196C
   00000001 0000001A    1C    00001980

1STAT     (STAT2025) (12:55) (15MAR04) Ordinary Symbol and Literal Cross Reference                                          Page   39
-Symbol   Length   Value     Id    R Type   Defn References                                  HLASM R4.0  2004/03/15 12.55
0$$$@R0        1 00000000 FFFFFFFE     J     705  1007
 $$$@R10       1 00000000 FFFFFFF4     J     835  1071
 $$$@R11       1 00000000 FFFFFFF3     J     848  1084
 $$$@R12       1 00000000 FFFFFFF2     J     861  1097
 $$$@R13       1 00000000 FFFFFFF1     J     874  1110
 $$$@R14       1 00000000 FFFFFFF0     J     887  1123
 $$$@R7        1 00000000 FFFFFFF7     J     796  1020
 $$$@R8        1 00000000 FFFFFFF6     J     809  1033   1045
 $$$@R9        1 00000000 FFFFFFF5     J     822  1058
 $$$C1WYLSTAT
               1 000001C8 00000001     J   13106 13108  13171
 $$$C2WYLSTAT
               1 000008BD 00000001     J   14993 14995
 $$$C3WYLSTAT
               1 000014B0 00000001     J   18498 18500  18630
 $$$C4WYLSTAT
               1 0000199E 00000001     J   20109 20111
 $$$C5WYLSTAT
               1 000019C0 00000001     J   20137 20139
 $$$RCP        1 00000000 FFFFFFEC     J    2452  4712   6186   6186
 $$$RCV        1 00000000 FFFFFFEE     J    1177  2362   2362
 $$$RDEV       1 00000000 FFFFFFEB     J    4666  4711   4711
 $$$RJCB       1 00000000 FFFFFFE9     J    6304  6578   6578
 $$$RLEVWA
               1 00000000 FFFFFFD0     J   18609 18629  18629
 $$$RNSCNCB
               1 00000000 FFFFFFED     J    2373  2446   2446
 $$$RPFCB      1 00000000 FFFFFFE7     J    6661  6745   6745
 $$$RSEGCB
               1 00000000 FFFFFFE6     J    6751  6851   6851
 $$$RSIN       1 00000000 FFFFFFE8     J    6584  6655   6655
 $$$RTTYPE
               1 00000000 FFFFFFEA     J    6197  6298   6298
 $$$RUSERCVT
               1 00000000 FFFFFFDF     J    9045  9128   9128
 $$$RWMONWA
               1 00000000 FFFFFFD1     J   13114 13170  13170
 $$$SEGCB0
               4 00000050 FFFFFFEC     F    2483  2569   2569
 $$$Z3         4 0000191C 00000001     F   20084 19438
 $$$101B       1 0000060E 00000001     X   14438 14445U
 $$$102F       2 00000628 00000001     H   14503 14482B
 $$$103        1 00000050 00000001 A   U   14536 14533  14535
 $$$105B       1 00000656 00000001     X   14568 14575U
 $$$106F       2 00000670 00000001     H   14625 14610B
 $$$107F       2 000006CC 00000001     H   14712 14640B
 $$$108F       2 00000690 00000001     H   14669 14659B
 $$$109F       2 0000069C 00000001     H   14691 14681B
 $$$110        1 00000050 00000001 A   U   14814 14811  14813
 $$$112B       1 00000796 00000001     X   14846 14853U
 $$$113F       2 000007B0 00000001     H   14903 14888B
 $$$114        1 00000050 00000001 A   U   14960 14957  14959
 $$$115B       1 000008CC 00000001     X   15011 15018U
 $$$116B       4 000008DC 00000001     I   15049 15079
 $$$116F       2 000008F2 00000001     H   15075 15049B 15078
1STAT     (STAT2025) (12:55) (15MAR04) Ordinary Symbol and Literal Cross Reference                                          Page   40
 $$$117E       2 000008F6 00000001     H   15086 15080
 $$$117F       2 00000952 00000001     H   15213 15082B
 $$$118F       2 00000988 00000001     H   15284 15226B
 $$$119F       2 000009C8 00000001     H   15366 15297B
 $$$120F       2 00000A88 00000001     H   15625 15381B
 $$$122F       2 00000ABE 00000001     H   15698 15685B
 $$$123F       2 00000ACE 00000001     H   15722 15709B
 $$$124F       2 00000B0E 00000001     H   15818 15805B
 $$$125F       2 00000EA4 00000001     H   17074 16723B
 $$$125S       2 00000D8C 00000001     H   16714 17073B
 $$$127F       2 00000E98 00000001     H   17066 16738B
 $$$128B       4 00000DA2 00000001     I   16754 16953
 $$$128F       2 00000E48 00000001     H   16949 16754B 16952
 $$$129B       4 00000DC0 00000001     I   16776 16806
 $$$129F       2 00000DD6 00000001     H   16803 16776B 16805
 $$$130E       2 00000DDA 00000001     H   16813 16807
 $$$130F       2 00000DFC 00000001     H   16859 16809B
 $$$131E       2 00000E4C 00000001     H   16960 16954
 $$$131F       2 00000E58 00000001     H   16971 16956B
 $$$132B       1 00000EC8 00000001     X   17153 17160U
 $$$135F       2 00000F60 00000001     H   17307 17285B
 $$$136F       2 00000FE6 00000001     H   17543 17325B
 $$$137F       2 00000FBE 00000001     H   17489 17340B 17380B
 $$$139F       2 00000FBE 00000001     H   17477 17411B 17428B
 $$$141F       2 00000FB0 00000001     H   17468 17455B
 $$$142B       4 00000FC2 00000001     I   17501 17519
 $$$142F       2 00000FD2 00000001     H   17516 17501B 17518
 $$$143E       2 00000FD6 00000001     H   17526 17520
 $$$143F       2 00000FE2 00000001     H   17538 17522B
 $$$144B       4 00000FF2 00000001     I   17599 17690
 $$$144F       2 00001028 00000001     H   17686 17599B 17689
 $$$146F       2 00001028 00000001     H   17682 17653B
 $$$146S       2 00001006 00000001     H   17616 17681B
 $$$151E       2 0000102C 00000001     H   17697 17691
 $$$151F       2 0000108C 00000001     H   17823 17693B
 $$$152B       4 00001040 00000001     I   17734 17801
 $$$152F       2 0000107C 00000001     H   17793 17720B 17734B 17798
 $$$153B       4 00001038 00000001     I   17720 17799
 $$$154F       2 00001060 00000001     H   17781 17749B
 $$$156E       2 00001080 00000001     H   17808 17800  17802
 $$$156F       2 0000108C 00000001     H   17819 17804B
 $$$157F       2 0000109C 00000001     H   17901 17888B
 $$$158B       1 000010A2 00000001     X   17929 17936U
 $$$159B       1 000010D0 00000001     X   18024 18031U
 $$$160F       2 000010FE 00000001     H   18080 18067B
 $$$161F       2 0000111C 00000001     H   18109 18096B
 $$$162F       2 000011BC 00000001     H   18318 18131B
 $$$163F       2 000011BC 00000001     H   18314 18300B
 $$$163S       2 0000113A 00000001     H   18140 18313B
 $$$164F       2 000011AC 00000001     H   18282 18166B
 $$$165F       2 000011A0 00000001     H   18275 18182B
 $$$166F       2 00001172 00000001     H   18218 18208B
 $$$167B       4 00001190 00000001     I   18240 18253
 $$$167F       2 00001196 00000001     H   18250 18240B 18252
 $$$168E       2 0000119A 00000001     H   18260 18254
 $$$168F       2 0000119C 00000001     H   18270 18256B
 $$$171F       2 00001214 00000001     H   18412 18332B
 $$$172B       4 000011CA 00000001     I   18348 18361
 $$$172F       2 000011D4 00000001     H   18358 18348B 18360
1STAT     (STAT2025) (12:55) (15MAR04) Ordinary Symbol and Literal Cross Reference                                          Page   41
 $$$173E       2 000011D8 00000001     H   18368 18362
 $$$173F       2 00001214 00000001     H   18408 18364B
 $$$174F       2 00001210 00000001     H   18403 18378B
 $$$176B       1 000014CA 00000001     X   18546 18553U
 $$$177        1 00000050 00000001 A   U   18595 18592  18594
 $$$179B       1 00001502 00000001     X   18659 18666U
 $$$180F       2 0000150E 00000001     H   18702 18693B
 $$$181F       2 00001520 00000001     H   18723 18714B
 $$$182F       2 000015C2 00000001     H   18820 18804B
 $$$183        1 00000188 00000001 A   U   18869 18866  18868
 $$$185B       1 00001614 00000001     X   18901 18908U
 $$$186F       2 00001622 00000001     H   18940 18928B
 $$$187F       2 00001674 00000001     H   19064 19027B
 $$$187S       2 0000165A 00000001     H   19021 19063B
 $$$189        1 00000050 00000001 A   U   19109 19106  19108
 $$$191B       1 000016AC 00000001     X   19144 19151U
 $$$192        1 00000050 00000001 A   U   19206 19203  19205
 $$$194B       1 00001706 00000001     X   19241 19248U
 $$$195F       2 00001716 00000001     H   19281 19269B
 $$$196F       2 00001726 00000001     H   19304 19292B
 $$$197        1 00000050 00000001 A   U   19367 19364  19366
 $$$199B       1 00001772 00000001     X   19408 19415U
 $$$202F       2 0000178E 00000001     H   19482 19473B
 $$$203F       2 000017CE 00000001     H   19526 19511B
 $$$204        1 00000050 00000001 A   U   19564 19561  19563
 $$$206B       1 00001818 00000001     X   19609 19616U
 $$$207F       2 00001832 00000001     H   19671 19639B
 $$$208F       2 00001832 00000001     H   19667 19658B
 $$$209F       2 00001862 00000001     H   19747 19688B 19702B
 $$$211F       2 0000185C 00000001     H   19738 19729B
 $$$212F       2 00001892 00000001     H   19823 19764B 19778B
 $$$214F       2 0000188C 00000001     H   19814 19805B
 $$$215        1 00000050 00000001 A   U   19849 19846  19848
 $$$217B       1 000018C2 00000001     X   19884 19891U
 $$$218F       2 0000190C 00000001     H   20050 19942B 19967B
 $$$218T       2 000018D4 00000001     H   19945 19932B
 $$$221F       2 000018F6 00000001     H   20001 19991B
 $$$222F       2 0000190A 00000001     H   20041 20026B
 $$$223        1 00000050 00000001 A   U   20074 20071  20073
 $$$51B        1 00000032 00000001     X   12784 12791U
 $$$52         1 00000050 00000001 A   U   12854 12851  12853
 $$$54B        1 000000C2 00000001     X   12887 12894U
 $$$55F        2 000000E8 00000001     H   12949 12917B
 $$$56F        2 00000112 00000001     H   13010 12978B
 $$$57         1 00000050 00000001 A   U   13034 13031  13033
 $$$59B        1 000001E2 00000001     X   13204 13211U
 $$$60F        2 00000208 00000001     H   13296 13269B
 $$$61F        2 00000284 00000001     H   13418 13348B
 $$$62F        2 00000278 00000001     H   13388 13373B
 $$$63F        2 00000284 00000001     H   13414 13399B
 $$$64F        2 000002B0 00000001     H   13512 13444B
 $$$64T        2 00000294 00000001     H   13447 13434B
 $$$66F        2 000002A0 00000001     H   13474 13459B
 $$$67F        2 000002AC 00000001     H   13501 13485B
 $$$68F        2 000002BE 00000001     H   13539 13526B
 $$$69F        2 000002CC 00000001     H   13566 13553B
 $$$70F        2 000002DA 00000001     H   13593 13580B
 $$$71         1 00000054 00000001 A   U   13618 13615  13617
 $$$73B        1 0000046E 00000001     X   13784 13791U
1STAT     (STAT2025) (12:55) (15MAR04) Ordinary Symbol and Literal Cross Reference                                          Page   42
 $$$74         1 00000050 00000001 A   U   13824 13821  13823
 $$$76B        1 000004A2 00000001     X   13852 13859U
 $$$77F        2 000004B0 00000001     H   13891 13878B
 $$$78         1 00000050 00000001 A   U   13915 13912  13914
 $$$80B        1 000004DC 00000001     X   13942 13949U
 $$$81F        2 000004EA 00000001     H   13981 13968B
 $$$82         1 00000050 00000001 A   U   14008 14005  14007
 $$$84B        1 00000516 00000001     X   14035 14042U
 $$$85F        2 00000524 00000001     H   14074 14061B
 $$$86         1 00000050 00000001 A   U   14101 14098  14100
 $$$88B        1 00000550 00000001     X   14128 14135U
 $$$89F        2 0000055E 00000001     H   14167 14154B
 $$$90         1 00000050 00000001 A   U   14191 14188  14190
 $$$92B        1 0000058A 00000001     X   14218 14225U
 $$$93         1 00000050 00000001 A   U   14257 14254  14256
 $$$95B        1 000005B6 00000001     X   14284 14291U
 $$$96         1 00000050 00000001 A   U   14323 14320  14322
 $$$98B        1 000005E2 00000001     X   14350 14357U
 $$$99         1 00000050 00000001 A   U   14390 14387  14389
 @RAR          0 00000000 FFFFFFF0     @    1124  2160   2168B
 @R0           0 00000000 FFFFFFFE     @     706   982U
 @R1           0 00000000 FFFFFFFD     @     719   978U  2166   2167
 @R10          0 00000000 FFFFFFF4     @     836   942U
 @R11          0 00000000 FFFFFFF3     @     849   938U 17145U
 @R12          0 00000000 FFFFFFF2     @     862   934U
 @R13          0 00000000 FFFFFFF1     @     875   930U
 @R14          0 00000000 FFFFFFF0     @     888   926U
 @R15          0 00000000 FFFFFFEF     @     901   922U 17908U 18724
 @R2           0 00000000 FFFFFFFC     @     732   974U 16926  17788  17789M 19530M 19711  19787
 @R3           0 00000000 FFFFFFFB     @     745   970U 16839
 @R4           0 00000000 FFFFFFFA     @     758   966U 16728  17069  17484U 17829U 17992U
 @R5           0 00000000 FFFFFFF9     @     771   962U 13018U 14400U 17068  17367U 17835U
 @R6           0 00000000 FFFFFFF8     @     784   958U 14407U 14520U 14798U 14944U 17127U 17846U 17999U 18310U 18786M
                                                 18787M 18788M 18789  18809M 18811  18821  20058U
 @R7           0 00000000 FFFFFFF7     @     797   954U 12843U 13023U 13607U 13813U 13904U 13997U 14090U 14180U 14246U
                                                 14312U 14379U 14525U 14803U 14949U 17133U 17852U 18005U 18421U 18584U
                                                 18858U 19098U 19195U 19356U 19553U 19838U 20063U
 @R8           0 00000000 FFFFFFF6     @     810   950U 13602U 18853U
 @R9           0 00000000 FFFFFFF5     @     823   946U
 ABSCENT       1 00000000 00000000 A   T    2176  2176
 AHLHEAD       1 00000000 00000000 A   T    7261  7261
 AHLVCCR8      1 00000000 00000000 A   T    7752  7752
 ASCB          1 00000000 FFFFFFE0     J    8418  9129
 ASCTBL        1 00000000 00000000 A   T    2184  2184
 ASMVT         1 00000000 00000000 A   T    7641  7641
 ASVT          1 00000000 FFFFFFE1     J    8225  8303
 ASVTBEGN      8 000001E0 FFFFFFE1     D    8228  8306
 ASVTEND       1 00000214 FFFFFFE1     U    8301  8303   8306
 BIT0          1 00000080 FFFFFFDD A   U   10182 10199  10222  10223  10476  10503  10551  10555  10556  10638  10658
                                                 10672  10703
 BIT1          1 00000040 FFFFFFDD A   U   10183 10200  10224  10226  10506  10551  10553  10554  10556  10639  10660
                                                 10673  10705
 BIT2          1 00000020 FFFFFFDD A   U   10184 10201  10509  10551  10553  10579  10642  10662  10675  10706
 BIT3          1 00000010 FFFFFFDD A   U   10185 10202  10510  10557  10568  10581  10582  10644  10663  10677  10708
 BIT4          1 00000008 FFFFFFDD A   U   10186 10203  10512  10569  10583  10588  10589  10645  10664  10679  10711
 BIT5          1 00000004 FFFFFFDD A   U   10187 10204  10216  10218  10513  10583  10586  10589  10646  10665  10681
                                                 10712
 BIT6          1 00000002 FFFFFFDD A   U   10188 10205  10208  10229  10230  10514  10572  10648  10651  10666  10682
                                                 10713
1STAT     (STAT2025) (12:55) (15MAR04) Ordinary Symbol and Literal Cross Reference                                          Page   43
 BIT7          1 00000001 FFFFFFDD A   U   10189 10205  10207  10208  10231  10236  10516  10573  10648  10652  10667
                                                 10683  10714
 BLTBL         1 00000000 00000000 A   T    2186  2186
 BR            7 00000007 00000001 A   #    1014 12779M 12882M 13199M 13779M 13847M 13937M 14030M 14123M 14213M 14279M
                                                 14345M 14433M 14563M 14841M 18541M 18654M 18896M 19139M 19236M 19403M
                                                 19604M 19879M
 BTD           1 00000000 00000018     T   20095 20095
 BUCKSRL#      1 00000007 00000001 A   N   13044 14693  14694  14702  17784
 BUCKSZ#       1 00000080 00000001 A   N   13043 14985  16118  16926  17068
 CBBRANCH      1 00000000 00000000 A   T    7797  7797
 CHECKIOB      1 00000000 00000000 A   T    2232  2232
 COLLOPTS      1 00000000 0000000D     T   18446 18446
 COMMAND       1 00000000 00000000 A   T    2172  2172
 COMMSEG       1 00000000 00000000 A   T    2173  2173
 CP         4096 00000000 FFFFFFEC     J    6186  1161U 17396U 18511U
 CP#XSET       4 00000778 FFFFFFEC     F    4149 17444  18810
 CP#XSTK       1 00000010 FFFFFFEC A   U    3918  3919
 CPACFLG       1 000005D5 FFFFFFEC     R    4021  4025   4030   4035   4040   4045
 CPACFLN       4 000005C4 FFFFFFEC     F    4013  4048   4048
 CPAFLAG       1 000005C3 FFFFFFEC     R    3985  3989   3994   3999   4004
 CPANAME       8 00000588 FFFFFFEC     C    3967  4063   4063
 CPAUTFLG      1 000008A9 FFFFFFEC     R    4331  4335   4340   4345   4350
 CPCHFLAG      1 00000B68 FFFFFFEC     R    4958  4962
 CPCMD       235 00000242 FFFFFFEC     C    2811 18571
 CPCMDLEN      2 00000240 FFFFFFEC     H    2810 18575
 CPDFLG        1 0000084C FFFFFFEC     R    4218  4222   4227   4232   4237   4242
 CPDFLG2       1 0000084D FFFFFFEC     R    4247  4251   4256   4261   4266   4271   4276
 CPEXFLG       1 00000758 FFFFFFEC     R    4087  4091
 CPEXFLG2      1 00000759 FFFFFFEC     R    4097  4106   4116
 CPEXFLG3      1 0000075A FFFFFFEC     R    4123  4127   4132
 CPEXLINE      4 0000075C FFFFFFEC     F    4140 17418
 CPEXTFLG      1 00000E28 FFFFFFEC     R    5769  5773   5778   5783   5788   5793   5798
 CPFABORT    128 00000D5A FFFFFFEC         5535  2136M  2136   2141M  2141
 CPFERROR     64 00000D5A FFFFFFEC         5540  2135M  2135   2140M  2140
 CPFEXEC     128 00000758 FFFFFFEC         4091 17410  18803
 CPFNTEX       1 00000040 FFFFFFEC A   U    5387  5388
 CPFRDRNG      1 00000D88 FFFFFFEC     R    5655  5659   5664   5669   5674   5679   5684   5689
 CPFRDSRC      1 00000D89 FFFFFFEC     R    5694  5703   5713   5723
 CPFUNUM       1 00000080 FFFFFFEC A   U    5386  5388
 CPFXDFLG      1 000007E4 FFFFFFEC     R    4165  4169   4174
 CPGFLG1       1 00000474 FFFFFFEC     R    3528  3532   3537   3542   3547   3552   3882   3882
 CPGFLG10      1 0000047D FFFFFFEC     R    3765  3769   3774   3779   3784   3789   3794
 CPGFLG11      1 0000047E FFFFFFEC     R    3800  3804   3809
 CPGFLG12      1 0000047F FFFFFFEC     R    3815  3819   3824   3829
 CPGFLG13      1 00000480 FFFFFFEC     R    3835  3839
 CPGFLG14      1 00000481 FFFFFFEC     R    3845  3849   3854   3859   3864   3869
 CPGFLG4       1 00000477 FFFFFFEC     R    3581  3592   3601   3610   3619   3628
 CPGFLG5       1 00000478 FFFFFFEC     R    3634  3638   3643   3648   3653   3658   3663   3668   3673
 CPGFLG6       1 00000479 FFFFFFEC     R    3679  3683   3688   3693
 CPGFLG7       1 0000047A FFFFFFEC     R    3699  3703   3708   3713   3718
 CPGFLG8       1 0000047B FFFFFFEC     R    3724  3728   3733   3738   3743
 CPGFLG9       1 0000047C FFFFFFEC     R    3749  3753   3759
 CPINIT        1 00000174 FFFFFFEC     U    2698  6155
 CPJESFLG      1 000009E1 FFFFFFEC     R    4430  4434   4439   4444   4449   4454   4459   4464   4469
 CPJESFLY      1 000009FD FFFFFFEC     R    4480  4484   4489   4494
 CPJESHFL      1 000009E0 FFFFFFEC     R    4415  4419   4424   4503   4503
 CPLFLG10      1 00000D59 FFFFFFEC     R    5521  5525
 CPLFLG11      1 00000D5A FFFFFFEC     R    5531  5535   5540   5545   5550
 CPLFLG12      1 00000D5B FFFFFFEC     R    5556  5560
1STAT     (STAT2025) (12:55) (15MAR04) Ordinary Symbol and Literal Cross Reference                                          Page   44
 CPLFLG14      1 00000D5C FFFFFFEC     R    5566  5570   5575   5580   5585   5590
 CPLFLG6       1 00000D55 FFFFFFEC     R    5396  5400   5405   5410   5415   5420   5425
 CPLFLG7       1 00000D56 FFFFFFEC     R    5431  5435   5440   5445   5450   5455
 CPLFLG8       1 00000D57 FFFFFFEC     R    5461  5465   5470   5475   5480
 CPLFLG9       1 00000D58 FFFFFFEC     R    5486  5490   5495   5500   5505   5510   5515
 CPLOCALZ      1 00000C48 FFFFFFEC     U    4988  6149   6149
 CPMFLG        1 0000084F FFFFFFEC     R    4285  4289
 CPMODFLG      1 00000C78 FFFFFFEC     R    5016  5020   5025   5030   5035   5040
 CPNAMELN      1 00000010 FFFFFFEC A   U    3911  4158
 CPNEDPFX     10 00000E29 FFFFFFEC     X    5802  5803   5804
 CPNSCANP      4 0000008C FFFFFFEC     A    2571 13300  13307  13323
 CPNUMFLG      1 00000C79 FFFFFFEC     R    5046  5058
 CPORVCMD      1 00000140 FFFFFFEC     R    2580  2584   2589   2594   2599   2604   2609   2614   2619   2624   2624
                                                  2675   2675
 CPORVFLG      1 00000149 FFFFFFEC     R    2631  2635   2640   2645   2650   2655   2660   2665   2670
 CPORVWF       1 00000150 FFFFFFEC     R    2683  2687
 CPOSCANX      4 00000CA8 FFFFFFEC     F    5215  5282   5282
 CPR          11 0000000B 00000001 A   #    1078  1161U 17166M 17166  17943M 17943  18037M 18037  18511U
 CPRACBAD     16 000001FC FFFFFFEC         2749  2783   2783   2784   2784
 CPRACF1       1 000001FC FFFFFFEC     R    2730  2734   2739   2744   2749   2754   2759   2764   2769   2785
 CPRACPSW     32 000001FC FFFFFFEC         2744  2782   2782   2784   2784
 CPRACUND     64 000001FC FFFFFFEC         2739  2782   2782   2783   2783
 CPRCVCUR      4 00000730 FFFFFFEC     A    4066  4068   4068
 CPRFLG        1 000008AA FFFFFFEC     R    4356  4360   4365   4370   4375   4380   4385
 CPS         254 00000344 FFFFFFEC     X    3500  3503   3504   3506   3506
 CPSACCT       5 000003B4 FFFFFFEC     C    3099  3262   3262
 CPSAMCOD      1 00000A22 FFFFFFEC     R    4552  4560   4570   4580   4589   4598   4607   4617   4626   4635
 CPSAMFLG      1 00000A21 FFFFFFEC     R    4512  4516   4521   4526   4531   4536   4541   4546   4657   4657
 CPSCNFLG      1 00000CD0 FFFFFFEC     R    5228  5239   5248   5259
 CPSCNF2       1 00000CD1 FFFFFFEC     R    5264  5268
 CPSCNMAX      1 00000014 FFFFFFEC A   U    5280  5281
 CPSCRI        2 00000434 FFFFFFEC     H    3489  3494   3494
 CPSEG        60 00000050 FFFFFFEC     X    2569 13288  15067  15101  15133  15152  15180  15205  15244  15276  15315
                                                 15340  15358  15406  15424  15449  15474  15493  15517  15548  15567
                                                 15592  15617  15647  15666  15742  15768  15786  15838  15864  15883
                                                 15908  15926  15951  15970  15995  16020  16039  16064  16089  16108
                                                 16130  16148  16173  16198  16217  16238  16256  16281  16306  16325
                                                 16346  16364  16389  16414  16433  16454  16472  16497  16522  16541
                                                 16562  16580  16605  16630  16655  16676  16701  16795  16829  16851
                                                 16873  16898  16916  16938  16989  17007  17032  17057  17096  17114
                                                 18955  18978  19003  19051  19085
 CPSEGCOD      1 00000050 FFFFFFEC     R    2486  2495   2505   2515   2525   2535   2545   2555
 CPSFL         1 00000384 FFFFFFEC     R    2837  2841   2846   2851   2856   2861
 CPSFLG        1 000003F8 FFFFFFEC     R    3377  3381   3386   3391   3396   3401   3406   3411   3416
 CPSFLG2       1 000003F9 FFFFFFEC     R    3422  3426   3431   3436
 CPSFL2        1 00000385 FFFFFFEC     R    2867  2871   2876   2881   2886
 CPSFL3        1 00000386 FFFFFFEC     R    2892  2896   2901   2906
 CPSFL4        1 00000387 FFFFFFEC     R    2912  2916   2921   2926
 CPSFL5        1 00000388 FFFFFFEC     R    2932  2936   2941   2946
 CPSFSPR      32 000003BE FFFFFFEC         3202 13268  18927
 CPSGRP        2 000003B7 FFFFFFEC     C    3101 14751  18786
 CPSKAFL       1 000003BF FFFFFFEC     R    3233  3237   3242   3247   3252   3257
 CPSKIFL       1 000003BE FFFFFFEC     R    3188  3192   3197   3202   3207   3212   3217   3222   3227
 CPSOF         1 000001F8 FFFFFFEC     X    2720  2722   2722
 CPSOFLAG      1 00000416 FFFFFFEC     R    3447  3451   3456   3461   3466   3471
 CPSOPST       4 000003C4 FFFFFFEC     F    3267  3496   3496
 CPSPORT       8 00000354 FFFFFFEC     C    2831  2951   2951
 CPSQFLG       1 000003EC FFFFFFEC     R    3296  3300
 CPSSFLG       1 000003BB FFFFFFEC     R    3106  3110   3115   3120   3125   3130   3135
1STAT     (STAT2025) (12:55) (15MAR04) Ordinary Symbol and Literal Cross Reference                                          Page   45
 CPSSTART      4 00000344 FFFFFFEC     F    2823  2827   2827   3263   3263   3368   3368   3500   3500
 CPSSTAT       1 0000038F FFFFFFEC     R    3043  3047   3052   3057   3062   3067   3072   3077
 CPSTACF       1 000003BC FFFFFFEC     R    3141  3145   3150   3155   3160   3165   3170   3175   3180
 CPSTART       4 00000000 FFFFFFEC     C    2459  6153   6157
 CPSTFLAG      1 000003EA FFFFFFEC     R    3274  3278   3283   3288
 CPSTYPE       1 0000038C FFFFFFEC     R    2956  2965   2975   2985   2995   3005   3015   3025   3035
 CPSUFLG       1 000003EE FFFFFFEC     R    3311  3315   3320   3325   3330   3335   3340   3345   3350
 CPSUFLG2      1 000003EF FFFFFFEC     R    3356  3360   3365
 CPSUSER       3 000003B4 FFFFFFEC     C    3100 14753  18788
 CPSVPGM       8 0000039C FFFFFFEC     C    3089  3095   3095
 CPS1ST        4 0000038C FFFFFFEC     F    2953  3498   3498
 CPTEMPP#      1 0000005F FFFFFFEC A   U    4406  4408
 CPTRMFL1      1 00000C7A FFFFFFEC     R    5064  5068   5073   5078   5202   5202
 CPTRMFL2      1 00000C7B FFFFFFEC     R    5084  5088   5093   5098   5103   5108   5113
 CPTRMFL3      1 00000C7C FFFFFFEC     R    5119  5123   5128   5133   5138   5143   5148   5153
 CPTRMFL4      1 00000C7D FFFFFFEC     R    5159  5163   5168   5173   5178   5183   5188   5193
 CPUSED        1 00000FBC FFFFFFEC A   U    6153  6154
 CPVACURS      8 00000AF0 FFFFFFEC     D    4931  4932   4933
 CPVCURS       8 00000AE0 FFFFFFEC     D    4925  4926   4927
 CPVFLAG       1 00000AC8 FFFFFFEC     R    4726  4730   4735   4740   4745   4750
 CPVFLAG2      1 00000AC9 FFFFFFEC     R    4756  4760   4765   4770   4775   4780   4785
 CPVFLAG3      1 00000ACA FFFFFFEC     R    4791  4795   4800   4805   4810   4815   4820
 CPVFLAG4      1 00000ACB FFFFFFEC     R    4826  4830   4835   4840
 CPVLFLAG      1 00000ACE FFFFFFEC     R    4895  4899   4904   4909
 CPVMODE       1 00000ACC FFFFFFEC     R    4848  4852   4857   4862   4867   4872   4877   4882   4887
 CPVTWID       2 00000AD0 FFFFFFEC     H    4915  4918   4918
 CPWK1         4 00000D60 FFFFFFEC     F    5599  5614   5637
 CPWK2         4 00000D64 FFFFFFEC     F    5600  5615   5629
 CPWK3         4 00000D68 FFFFFFEC     F    5601  5616   5630
 CPWK4         4 00000D6C FFFFFFEC     F    5602  5617   5631
 CPWK5         4 00000D70 FFFFFFEC     F    5603  5619   5624   5632
 CPWK6         4 00000D74 FFFFFFEC     F    5604  5620   5625   5633   5640   5642
 CPWK7         4 00000D78 FFFFFFEC     F    5605  5618   5634
 CPXFLAG       1 000007FD FFFFFFEC     R    4193  4197
 CPXSTATE      4 000007F8 FFFFFFEC     F    4187  4200   4200
 CRBRANCH      1 00000000 00000000 A   T    7538  7538
 CSRTABLE      1 00000000 00000000 A   T    7558  7558
 CSVARMGR      1 00000000 00000000 A   T    7606  7606
 CSVEXIT       1 00000000 00000000 A   T    7479  7479
 CSVLLCB       1 00000000 00000000 A   T    7079  7079
 CSVLLTRM      1 00000000 00000000 A   T    7080  7080
 CSVMEM        1 00000000 00000000 A   T    7307  7307
 CSVVFGET      1 00000000 00000000 A   T    7871  7871
 CSVVFIND      1 00000000 00000000 A   T    7869  7869
 CV         4016 00000000 FFFFFFEE     J    2362  1170U 19810
 CV            1 00000000 00000015     T   18465 18465
 CV#CPU        4 0000065C FFFFFFEE     F    1994 18081M
 CV#FEXEC      1 00000800 FFFFFFEE A   U    1597 16839  18471
 CV#IOCLK      4 00000664 FFFFFFEE     F    1997 18117M
 CV#IOSEC      2 00000660 FFFFFFEE     H    1996 18115M
 CVABORT       4 000007DA FFFFFFEE     I    2141 17062B
 CVABSRTN      4 0000088C FFFFFFEE     V    2176  2151
 CVABTMSG      4 000007CC FFFFFFEE     I    2136 14621B
 CVBLANKS    235 000004D8 FFFFFFEE     C    1956 14750
 CVBRMSK       1 00000751 FFFFFFEE     X    2092  2093   2094
 CVCFLAG       1 00000A00 FFFFFFEE     R    2257  2261   2266   2271   2276   2281
 CVCHKST       8 000009F0 FFFFFFEE     D    2247  2337   2337
 CVCHKST2      8 00000E28 FFFFFFEE     D    2340  2343   2343
 CVCOMRTN      4 0000087C FFFFFFEE     V    2172  2142
1STAT     (STAT2025) (12:55) (15MAR04) Ordinary Symbol and Literal Cross Reference                                          Page   46
 CVCURJCB      4 000001C8 FFFFFFEE     A    1441 17332
 CVDBGFLG      1 000004CC FFFFFFEE     R    1946  1950
 CVENT         4 0000074C FFFFFFEE     I    2090 12779B 12882B 13199B 13779B 13847B 13937B 14030B 14123B 14213B 14279B
                                                 14345B 14433B 14563B 14841B 15008B 18541B 18654B 18896B 19139B 19236B
                                                 19403B 19604B 19879B
 CVENTBR       2 00000750 FFFFFFEE     I    2091  2092
 CVERRMSG      4 000007C8 FFFFFFEE     I    2135 13806B 14899B
 CVERROR       4 000007D6 FFFFFFEE     I    2140  2156B
 CVEXIRTN      4 0000077C FFFFFFEE     V    2120  2116
 CVFCHRKBPR
               8 000004C9 FFFFFFEE         1861  1877   1877
 CVFCHRKBSE
               4 000004C9 FFFFFFEE         1866  1877   1877
 CVFCHRKCPR
               2 000004C9 FFFFFFEE         1883  1899   1899
 CVFCHRKCSE
               1 000004C9 FFFFFFEE         1888  1899   1899
 CVFCHRUBPR
             128 000004C9 FFFFFFEE         1817  1833   1833
 CVFCHRUBSE
              64 000004C9 FFFFFFEE         1822  1833   1833
 CVFCHRUCPR
              32 000004C9 FFFFFFEE         1839  1855   1855
 CVFCHRUCSE
              16 000004C9 FFFFFFEE         1844  1855   1855
 CVFDISP       4 000004C4 FFFFFFEE         1642 17500  17748
 CVFL          1 000004C4 FFFFFFEE     R    1613  1617   1622   1627   1632   1637   1642   1647   1652
 CVFL2         1 000004C5 FFFFFFEE     R    1658  1662   1667   1672   1677   1682   1687   1692   1697
 CVFL3         1 000004C6 FFFFFFEE     R    1703  1707   1712   1717   1722   1727   1732   1737   1742
 CVFL4         1 000004C7 FFFFFFEE     R    1748  1752   1757   1762   1767   1772   1777   1782
 CVFL5         1 000004C8 FFFFFFEE     R    1788  1792   1797   1802   1807
 CVFL6         1 000004C9 FFFFFFEE     R    1813  1817   1822   1834   1839   1844   1856   1861   1866   1878   1883
                                                  1888   1900
 CVFNOTIM      8 000004C6 FFFFFFEE         1727 18331
 CVFPFCB       4 000001D0 FFFFFFEE     A    1444 18123
 CVFRLG       16 000004C4 FFFFFFEE         1632 19964
 CVFXA        16 000004C6 FFFFFFEE         1722 17198
 CVFXA31       2 000004C6 FFFFFFEE         1737 17210
 CVHEAP#       1 00000200 FFFFFFEE A   U    1519  1520
 CVINVRTN      4 00000888 FFFFFFEE     V    2175  2145
 CVJESFLG      1 000004CA FFFFFFEE     R    1906  1910
 CVLNKRGS      4 00000780 FFFFFFEE     F    2122  2097M  2123
 CVLNKRTN      4 000007B0 FFFFFFEE     U    2123  2112M
 CVLOCK1       1 00000088 FFFFFFEE     R    1264  1268   1273
 CVLOCK2       1 00000089 FFFFFFEE     R    1278  1282
 CVLOCK3       1 0000008A FFFFFFEE     R    1287  1291
 CVLOCK4       1 0000008B FFFFFFEE     R    1296  1300
 CVLOGBF       4 0000091C FFFFFFEE     F    2213 19186M 19259  19313M 19313  19438  19499  19517  19521M 19663  19734
                                                 19763
 CVLOGBF2      4 00000924 FFFFFFEE     F    2215 19177M 19282  19327M 19327  19516  19518M 19644  19657  19687
 CVLOGBSZ      1 00007F80 FFFFFFEE A   U    2217 20103
 CVLOGCNT      4 00000914 FFFFFFEE     F    2211 18960  19169M 19169  19348M 19348  19489  19490M
 CVLOGMOD      1 00000068 FFFFFFEE     R    1251  1255
 CVLOGPT       4 00000920 FFFFFFEE     F    2214 19187M 19320M 19320  19494  19519  19522M 19529  19538  19543M 19777
                                                 19804
 CVLOGPT2      4 00000928 FFFFFFEE     F    2216 19178M 19334M 19334  19520M 19657  19701  19728
 CVLOGSZ       4 00000918 FFFFFFEE     F    2212 19162M 19172  19181  19341M 19341  19500
 CVLPFCB       4 000001D4 FFFFFFEE     A    1445 18299
 CVMACH        1 00000067 FFFFFFEE     R    1211  1215   1220   1225   1230   1235   1240   1245
1STAT     (STAT2025) (12:55) (15MAR04) Ordinary Symbol and Literal Cross Reference                                          Page   47
 CVMILRTN      4 00000884 FFFFFFEE     V    2174  2154
 CVMONPTR      4 00000164 FFFFFFEE     F    1408 17292
 CVNEXT        4 000007DE FFFFFFEE     I    2142 13595B 17119B 19091B
 CVNOARTN      4 00000890 FFFFFFEE     V    2177  2148
 CVNPIO        4 000008E4 FFFFFFEE     F    2197 18086
 CVNQSERR      4 0000093C FFFFFFEE     F    2225 20036  20037M
 CVNQSERV      4 00000938 FFFFFFEE     F    2224 19978  19979M
 CVNUSERS      2 000000D4 FFFFFFEE     H    1359 18347M 18347
 CVNWDATE      4 00000608 FFFFFFEE     F    1979  1983   1983
 CVNWMPG#      1 00000008 FFFFFFEE A   U    1981  1982
 CVPFXRTN      1 00000000 00000000 A   T    2120  2120
 CVPGFLAG      1 00000A01 FFFFFFEE     R    2287  2291   2296   2301
 CVPIOSZ       1 00004F80 FFFFFFEE A   U    1350  1352
 CVPPDBQH      4 0000009C FFFFFFEE     A    1308  1309
 CVPSFNO       1 000003E9 FFFFFFEE A   N    1472  1474
 CVPSLNO       1 000007CF FFFFFFEE A   N    1473  1474
 CVPXSZ        1 00000008 FFFFFFEE A   U    1351  1352
 CVR          12 0000000C 00000001 A   #    1091  1170U 17162M 17939M 18033M
 CVRKEY        1 00000008 FFFFFFEE A   U    2045  2046
 CVSEGRTN      4 00000880 FFFFFFEE     V    2173  2137
 CVSTACK#      1 00000080 FFFFFFEE A   U    1511  1512
 CVSTART       4 00000000 FFFFFFEE     C    1184  2355
 CVTBRET       2 00000052 FFFFFFE5     H    7104  7617   7696
 CVTCBP        4 0000073C FFFFFFEE     A    2075 17549
 CVTIMLFT      2 00000202 FFFFFFEE     R    1461 18354M 18370  18404M
 CVTIMOUT      2 00000200 FFFFFFEE     R    1460 18354
 CVTRC         4 00000768 FFFFFFEE     I    2112  2098B
 CVTRCRTN      4 00000778 FFFFFFEE     V    2119  2113
 CVTVSTGX      1 00000000 FFFFFFE4     J    8069  7933
 CVTXTNT1      1 00000000 FFFFFFE3     J    8108  7276
 CVTXTNT2      1 00000000 FFFFFFE2     J    8116  7346
 CVT4MS1       1 00000010 FFFFFFE5 A   U    7129  7137
 CVT6DAT       1 00000002 FFFFFFE5 A   U    7133  7137
 CVUSFNO       1 00000001 FFFFFFEE A   N    1479  1481
 CVUSLNO       1 000003E7 FFFFFFEE A   N    1480  1481
 CVVOL#        1 00000005 FFFFFFEE A   U    2330  2331
 CVWTCLK       8 00000640 FFFFFFEE     D    1987 18058  18082
 CVWTOFLG      1 000004CB FFFFFFEE     R    1916  1920   1925   1930   1935   1940
 DEBUGSG       1 00000000 00000000 A   T    2073  2073
 DEV          12 00000000 FFFFFFEB     J    4711  4719
 DEVMAX#       1 00000002 FFFFFFEC A   U    4662  4719
 DEVTYPE       1 00000001 FFFFFFEB     R    4679  4688   4698
 DFAIDTAB      1 00000000 00000000 A   T    7946  7946
 DOTTBL        1 00000000 00000000 A   T    2189  2189
 DRENCFLG      1 00000F9F FFFFFFEC     R    6117  6121   6126   6131   6136   6141
 DRENPROT      1 00000F9E FFFFFFEC     R    6104  6112
 DSNON        40 00000E90 FFFFFFEC     C    5837  5838
 DSNWADSN     44 00000E5C FFFFFFEC     C    5824  5825   5826   5827   5836   5844   6075   6081   6083   6089   6092
                                                  6094   6097   6146
 DSNWAF4       1 00000F37 FFFFFFEC     R    5892  5896   5901   5906   5911   5916   5921   5926   5931
 DSNWAF5       1 00000F38 FFFFFFEC     R    5937  5941   5946   5951   5956   5961   5966   5971   5976
 DSNWAF6       1 00000F39 FFFFFFEC     R    5982  5986   5991   5996   6001   6006   6011   6016   6021
 DSNWAF7       1 00000F3A FFFFFFEC     R    6027  6031   6036   6041   6046
 DSNXG         1 00000004 FFFFFFEC A   U    5829  5831
 DSNXGL        1 00000003 FFFFFFEC A   U    5830  5831
 DSNXU         1 00000007 FFFFFFEC A   U    5831  5833
 DSNXUL        1 00000004 FFFFFFEC A   U    5832  5833
 DSSIZ         1 00000108 FFFFFFEC A   U    6075  6083   6092   6097
 EBCTBL        1 00000000 00000000 A   T    2185  2185
1STAT     (STAT2025) (12:55) (15MAR04) Ordinary Symbol and Literal Cross Reference                                          Page   48
 EBCTBL7       1 00000000 00000000 A   T    2188  2188
 ECBLIST       1 00000000 00000000 A   T    2048  2048
 EPARTBL       1 00000000 00000000 A   T    2180  2180
 FMBRANCH      1 00000000 00000000 A   T    7722  7722
 FMTDATE       1 00000000 00000016     T   20093 20093
 FMTTIME       1 00000000 00000017     T   20094 20094
 FMTXDATE      1 00000000 0000000F     T   18449 18449
 FREECORE      1 00000000 0000001A     T   20105 20105
 FREEWLOG      2 000016EC 00000001     H   19222 19218
 FSR           0 00000000 00000001 A   #    1001 12774  12851M 12877  13031M 13193  13615M 13774  13821M 13842  13912M
                                                 13932  14005M 14025  14098M 14118  14188M 14208  14254M 14274  14320M
                                                 14340  14387M 14428  14533M 14558  14811M 14836  14957M 18536  18592M
                                                 18648  18866M 18891  19106M 19134  19203M 19231  19364M 19398  19561M
                                                 19599  19831M 19846M 19874  20071M
 GETCORE       1 00000000 0000000B     T   14986 14986  20104
 GLBRANCH      1 00000000 00000000 A   T    7628  7628
 GMBRANCH      1 00000000 00000000 A   T    7724  7724
 GVT           1 00000000 00000000 A   T    7490  7490
 HIBAL         1 00000000 FFFFFFFF     J     691   707    720    733    746    759    772    785    798    811    824
                                                   837    850    863    876    889    902
 HSPFMIL       1 00000080 FFFFFFDF A   U    9057  9061   9062
 HSPFORV       1 00000020 FFFFFFDF A   U    9059  9061
 HSPFORVR      1 00000010 FFFFFFDF A   U    9060  9062
 HSPFWYL       1 00000040 FFFFFFDF A   U    9058  9061   9062
 IARMPVT       1 00000000 00000000 A   T    7365  7365
 IARMRRCE      1 00000000 00000000 A   T    7910  7910
 IARPIBR       1 00000000 00000000 A   T    7880  7880
 IARPSIV       1 00000000 00000000 A   T    7704  7704
 IARPSXM       1 00000000 00000000 A   T    7853  7853
 IARXKEY       1 00000000 00000000 A   T    7811  7811
 IARXVIO       1 00000000 00000000 A   T    7705  7705
 ICYMMVTC      1 00000000 00000000 A   T    8136  8136
 IDA121CV      1 00000000 00000000 A   T    7643  7643
 IEABEND       1 00000000 00000000 A   T    7227  7227
 IEADQIQE      1 00000000 00000000 A   T    7623  7623
 IEAECVT       1 00000000 00000000 A   T    7152  7152
 IEAGSMQ       1 00000000 00000000 A   T    7600  7600
 IEAIHASU      1 00000000 00000000 A   T    7840  7840
 IEALSMQ       1 00000000 00000000 A   T    7602  7602
 IEAMASCB      1 00000000 00000000 A   T    7570  7570   7574
 IEAPATCH      1 00000000 00000000 A   T    7235  7235
 IEAPDSRT      1 00000000 00000000 A   T    7498  7498
 IEAPTRV       1 00000000 00000000 A   T    7314  7314
 IEAQCDSR      1 00000000 00000000 A   T    7218  7218
 IEAQCS01      1 00000000 00000000 A   T    7610  7610
 IEAQLPAQ      1 00000000 00000000 A   T    7219  7219
 IEAQTD00      1 00000000 00000000 A   T    7115  7115
 IEAQTE00      1 00000000 00000000 A   T    7113  7113
 IEARPOST      1 00000000 00000000 A   T    7625  7625
 IEASMFEX      1 00000000 00000000 A   T    7502  7502
 IEASMFSP      1 00000000 00000000 A   T    7848  7848
 IEASPOST      1 00000000 00000000 A   T    7645  7645
 IEASVDCB      1 00000000 00000000 A   T    7106  7106
 IEATCBP       1 00000000 00000000 A   T    7056  7056
 IEATPC        1 00000000 00000000 A   T    7108  7108
 IEATRSCN      1 00000000 00000000 A   T    7466  7466
 IEAVAR02      1 00000000 00000000 A   T    7550  7550
 IEAVBLDP      1 00000000 00000000 A   T    7534  7534
 IEAVDELP      1 00000000 00000000 A   T    7537  7537
1STAT     (STAT2025) (12:55) (15MAR04) Ordinary Symbol and Literal Cross Reference                                          Page   49
 IEAVEAC0      1 00000000 00000000 A   T    7627  7627
 IEAVEADV      1 00000000 00000000 A   T    7785  7785
 IEAVEDR1      1 00000000 00000000 A   T    7670  7670
 IEAVELRM      1 00000000 00000000 A   T    7619  7619
 IEAVENLU      1 00000000 00000000 A   T    7966  7966
 IEAVENQ2      1 00000000 00000000 A   T    7616  7616
 IEAVEQV1      1 00000000 00000000 A   T    7773  7773
 IEAVEQV2      1 00000000 00000000 A   T    7776  7776
 IEAVEQV3      1 00000000 00000000 A   T    7779  7779
 IEAVERI1      1 00000000 00000000 A   T    7672  7672
 IEAVERP1      1 00000000 00000000 A   T    7674  7674
 IEAVERX1      1 00000000 00000000 A   T    7862  7862
 IEAVESC1      1 00000000 00000000 A   T    7801  7801
 IEAVESPR      1 00000000 00000000 A   T    7730  7730
 IEAVESTU      1 00000000 00000000 A   T    7964  7964
 IEAVESVT      1 00000000 00000000 A   T    7736  7736
 IEAVET6E      1 00000000 00000000 A   T    7836  7836
 IEAVEVT2      1 00000000 00000000 A   T    7790  7790
 IEAVEXPR      1 00000000 00000000 A   T    7598  7598
 IEAVEXP1      1 00000000 00000000 A   T    7767  7767
 IEAVFRCL      1 00000000 00000000 A   T    7536  7536
 IEAVGSDA      1 00000000 00000000 A   T    7781  7781
 IEAVGTCL      1 00000000 00000000 A   T    7535  7535
 IEAVGWSA      1 00000000 00000000 A   T    7630  7630
 IEAVLKRM      1 00000000 00000000 A   T    7337  7337
 IEAVMFRM      1 00000000 00000000 A   T    7715  7715
 IEAVMSGS      1 00000000 00000000 A   T    7284  7284
 IEAVNVT0      1 00000000 00000000 A   T    7949  7949
 IEAVRSUH      1 00000000 00000000 A   T    7828  7828
 IEAVRT03      1 00000000 00000000 A   T    7442  7442
 IEAVSPND      1 00000000 00000000 A   T    7838  7838
 IEAVSTAG      1 00000000 00000000 A   T    7578  7578
 IEAVTCTL      1 00000000 00000000 A   T    7830  7830
 IEAVTEST      1 00000000 00000000 A   T    7341  7341
 IEAVTRGR      1 00000000 00000000 A   T    7638  7638
 IEAVTRG1      1 00000000 00000000 A   T    7087  7087
 IEAVTRV3      1 00000000 00000000 A   T    7334  7334
 IEAVTSBP      1 00000000 00000000 A   T    7584  7584
 IEAVTSFR      1 00000000 00000000 A   T    7305  7305
 IEAVTSGL      1 00000000 00000000 A   T    7582  7582
 IEAVVMSR      1 00000000 00000000 A   T    7363  7363
 IEAVWAIT      1 00000000 00000000 A   T    7605  7605
 IEAVWSAC      1 00000000 00000000 A   T    7636  7636
 IEAVWSAG      1 00000000 00000000 A   T    7634  7634
 IEAVWSAL      1 00000000 00000000 A   T    7632  7632
 IEAVXEXT      1 00000000 00000000 A   T    7713  7713
 IEAVXSFT      1 00000000 00000000 A   T    7680  7680
 IEAVXSTN      1 00000000 00000000 A   T    7686  7686
 IEAVXSTS      1 00000000 00000000 A   T    7684  7684
 IEAVXUNN      1 00000000 00000000 A   T    7709  7709
 IEAVXUNS      1 00000000 00000000 A   T    7688  7688
 IEAWTCB       1 00000000 00000000 A   T    7745  7745
 IEA0DS        1 00000000 00000000 A   T    7151  7151
 IEA0EF00      1 00000000 00000000 A   T    7057  7057
 IEA0EF01      1 00000000 00000000 A   T    7097  7097
 IEA0PT0E      1 00000000 00000000 A   T    7817  7817
 IEA0PT01      1 00000000 00000000 A   T    7158  7158
 IEA0PT02      1 00000000 00000000 A   T    7742  7742
 IEA0PT03      1 00000000 00000000 A   T    7819  7819
1STAT     (STAT2025) (12:55) (15MAR04) Ordinary Symbol and Literal Cross Reference                                          Page   50
 IEA0VL00      1 00000000 00000000 A   T    7068  7068
 IEA0VL01      1 00000000 00000000 A   T    7475  7475
 IECIXAVL      1 00000000 00000000 A   T    7143  7143
 IECPCNVT      1 00000000 00000000 A   T    7071  7071
 IECPRLTV      1 00000000 00000000 A   T    7075  7075
 IECVEXCL      1 00000000 00000000 A   T    7707  7707
 IECXAPG       1 00000000 00000000 A   T    7066  7066
 IECXITP       1 00000000 00000000 A   T    7096  7096
 IECXTLER      1 00000000 00000000 A   T    7082  7082
 IEC0SCR1      1 00000000 00000000 A   T    7241  7241
 IEECUCB       1 00000000 00000000 A   T    7112  7112
 IEEMSER       1 00000000 00000000 A   T    7090  7090   7156
 IEEVEXSN      1 00000000 00000000 A   T    7445  7445
 IEEVSTOP      1 00000000 00000000 A   T    7755  7755
 IEFAQTOP      1 00000000 00000000 A   T    7562  7562
 IEFAUSDM      1 00000000 00000000 A   T    7062  7062
 IEFENFDM      1 00000000 00000000 A   T    7221  7221
 IEFJESCT      1 00000000 00000000 A   T    7321  7321
 IEFLINK       1 00000000 00000000 A   T    7059  7059
 IEFQMWR       1 00000000 00000000 A   T    7172  7172
 IEWFBOSV      1 00000000 00000000 A   T    7149  7149
 IEWMSEPT      1 00000000 00000000 A   T    7654  7654
 IFBDCB        1 00000000 00000000 A   T    7138  7138
 IFDOLT0A      1 00000000 00000000 A   T    7500  7500
 IFGDEBVR      1 00000000 00000000 A   T    8131  8131
 IGC043BR      1 00000000 00000000 A   T    7546  7546
 IGC044R2      1 00000000 00000000 A   T    7656  7656
 IGC062R1      1 00000000 00000000 A   T    7626  7626
 IGC07903      1 00000000 00000000 A   T    7771  7771
 IGC124        1 00000000 00000000 A   T    7787  7787
 IGFRVT        1 00000000 00000000 A   T    7236  7236
 IGVCPBDB      1 00000000 00000000 A   T    7902  7902
 IGVCPDLB      1 00000000 00000000 A   T    7904  7904
 IGVCPFRE      1 00000000 00000000 A   T    7894  7894
 IGVCPGTC      1 00000000 00000000 A   T    7892  7892
 IGVCPGUB      1 00000000 00000000 A   T    7886  7886
 IGVCPGUP      1 00000000 00000000 A   T    7889  7889
 IGVCPGUS      1 00000000 00000000 A   T    7912  7912
 IGVGCAS       1 00000000 00000000 A   T    7540  7540
 IGVGFAS       1 00000000 00000000 A   T    7544  7544
 IGVGRRGN      1 00000000 00000000 A   T    7916  7916
 IGVGVRGN      1 00000000 00000000 A   T    7918  7918
 IGVQSPET      1 00000000 00000000 A   T    7542  7542
 IGVSLIST      1 00000000 00000000 A   T    7896  7896
 IGVSLOC       1 00000000 00000000 A   T    7900  7900
 IGVSREGN      1 00000000 00000000 A   T    7898  7898
 IGVSTSKI      1 00000000 00000000 A   T    7883  7883
 IHB1253       4 0000004C 00000001     F   12813 12811
 IHB2328       4 00000720 00000001     F   14768 14766
 IHB4631A      2 000011FE 00000001     H   18389 18385B
 ILRJTERM      1 00000000 00000000 A   T    7825  7825
 INITWLOG      2 00001692 00000001     H   19125 19121
 INVALID       1 00000000 00000000 A   T    2175  2175
 IOSVDEVN      1 00000000 00000000 A   T    7842  7842
 IOSVHID       1 00000000 00000000 A   T    7852  7852
 IOSVSUCB      1 00000000 00000000 A   T    7855  7855
 IRARMCNS      1 00000000 00000000 A   T    7596  7596
 IRARMEPS      1 00000000 00000000 A   T    7814  7814
 IRARMI00      1 00000000 00000000 A   T    7553  7553
1STAT     (STAT2025) (12:55) (15MAR04) Ordinary Symbol and Literal Cross Reference                                          Page   51
 IRBEND        4 000000A0 FFFFFFDC     F   10611 10737  10742  10753
 ISNBRNCH      1 00000000 00000000 A   T    7711  7711
 JCB         208 00000000 FFFFFFE9     J    6578 17354U
 JCBAFL        1 00000062 FFFFFFE9     R    6423  6427   6432   6437   6442   6447   6452   6457   6462
 JCBBFL        1 00000063 FFFFFFE9     R    6468  6472   6477   6482   6487   6492   6497   6502
 JCBBILLX      8 00000088 FFFFFFE9     D    6553  6561   6561
 JCBCPX        4 00000014 FFFFFFE9     A    6320 17360
 JCBRSCF1      1 00000064 FFFFFFE9     R    6508  6512   6517   6522
 JCBSFLG1      1 00000065 FFFFFFE9     R    6528  6532   6537
 JCBWFL        1 00000060 FFFFFFE9     R    6352  6356   6361   6366   6371   6376   6381   6386   6391   6419
 JCBWWFL       1 00000061 FFFFFFE9     R    6397  6401   6406   6411   6416
 LEVAREA      32 00000018 FFFFFFD0     C   18620 18754  18770
 LEVBUF      256 00000038 FFFFFFD0     C   18622 18728  18730  18739M 18740  18836
 LEVCLCK       8 00000010 FFFFFFD0     D   18619 18753M 18769
 LEVLEN        4 0000000C FFFFFFD0     F   18617 18703M 18825  18829
 LEVLOC        4 00000008 FFFFFFD0     F   18616 18704M 18826
 LEVTYPE       8 00000000 FFFFFFD0     C   18615 18724M 18739  18739  18740
 LEVWA       312 00000000 FFFFFFD0     J   18629 18651  18680U 18866  18868  18869
 LOCALTOD      1 00000000 0000000C     T   14987 14987  20092
 LOGCMD        2 000014B0 00000001     H   18527 18523
 LOGEVENT      2 000014E8 00000001     H   18638 18577B 18634
 LOWTBL        1 00000000 00000000 A   T    2183  2183
 LSR           8 00000008 00000001 A   #    1039 12774  12851M 12877  13031M 13193  13615M 13774  13821M 13842  13912M
                                                 13932  14005M 14025  14098M 14118  14188M 14208  14254M 14274  14320M
                                                 14340  14387M 14428  14533M 14558  14811M 14836  14957M 18536  18592M
                                                 18648  18866M 18891  19106M 19134  19203M 19231  19364M 19398  19561M
                                                 19599  19846M 19874  20071M
 MALL          1 00000000 00000004     T   13757 13757
 MEMEND        8 000019A0 00000001     D   20131 20130
 MEMEND        1 00000000 0000000A     T   14982 14982
 MEMSTART      1 00000000 00000009     T   14981 14981
 MILERR        1 00000000 00000000 A   T    2174  2174
 MNULL         1 00000000 00000002     T   13637 13637
 MTOKEN        1 00000000 00000003     T   13652 13652  13667  13682  13697  13712  13727  13742
 MVT           8 00000128 00000001     D   13049 12963U 13105  13255U 14464U 14594U 14872U 14972  15028U 17182U 17959U
                                                 18445
 MVT#TOT       4 00000154 00000001     F   13078 13082  13082  16266  17270  17271M
 MVT#TOTD      4 00000160 00000001     F   13081 16374  17511  17512M 17758  17759M
 MVT#TOTN      4 00000158 00000001     F   13079 16590  17814  17815M
 MVT#TOTW      4 0000015C 00000001     F   13080 16482  17301  17302M 17533  17534M 17608  17609M
 MVTABEND     72 00000174 00000001     X   13095 14748M 14748
 MVTACCT       8 0000012D 00000001     X   13070 14750M 14751M 14752M 14753M 15167  15172
 MVTANXT1      4 00000174 00000001     F   13092 13095  13095  15522  17965M
 MVTANXT2      4 00000178 00000001     F   13093 15498  17966M
 MVTASRSV      4 0000017C 00000001     F   13094 15577  17967M
 MVTBUCKL      4 00000170 00000001     A   13088 14497  14703M 14724
 MVTBUCKP      4 0000016C 00000001     A   13087 14481M 14481  14492  14708M 14719  16707  17786
 MVTECB        4 00000168 00000001     F   13085 12993  13006M 13006  14771  14915  14931M 14931  15380  15434
 MVTFLAG       1 0000012C 00000001     R   13052 13056  13061  13066
 MVTFPWATCH
              64 0000012C 00000001        13061 13361  13361  13362M 13384M 15684  17284
 MVTFUSER    128 0000012C 00000001        13056 13470M 13497M 15804  17769
 MVTFXWATCH
              32 0000012C 00000001        13066 13361  13361  13410M 15708  16753  17324
 MVTMEND       4 0000014C 00000001     A   13075 14699M 16049  16722  17733
 MVTMLEN       4 00000150 00000001     A   13076 14639M 14639  14696M 14701  15888
 MVTMSTRT      4 00000148 00000001     A   13074 14697M 15980  16708  16763  17472  17719  17783
 MVTRESET     16 00000154 00000001     X   13082 14513M 14513
 MVTSCLCK      8 00000138 00000001     D   13071 14734M 15048M 15048  15106
1STAT     (STAT2025) (12:55) (15MAR04) Ordinary Symbol and Literal Cross Reference                                          Page   52
 MVTTCBP       4 00000164 00000001     F   13084 12977M 12977  12986  13001M 13001  14609M 14609  14791M 14887M 14887
                                                 14908  14924M 14924  15296M 15296  15325
 MVTTCLCK      8 00000140 00000001     D   13072 14741M 14741  14937M 15225M 15225  15249
 NBLTBL        1 00000000 00000000 A   T    2187  2187
 NOACTION      1 00000000 00000000 A   T    2177  2177
 NOTVALID      1 00000000 00000005     T   13758 13758  14980  20097
 NPARTBL       1 00000000 00000000 A   T    2181  2181
 NSCAN         1 00000000 00000007     T   14975 14975
 NSCNCB      176 00000000 FFFFFFED     J    2446  2572  13308  13309  13310  13313M 13314M 13316M 13326M 13327M 13328M
 NSCNFLGS      1 00000008 FFFFFFED     R    2383  2387   2392
 NSCNKWS       4 00000028 FFFFFFED     A    2432 13308  13316M 13326M
 NSCNSKIP      4 00000024 FFFFFFED     A    2431 13309  13313M 13327M
 NSCNSTOP      4 00000020 FFFFFFED     A    2430 13310  13314M 13328M
 NSCNTYPE      1 00000018 FFFFFFED     R    2401  2405   2410   2415   2420   2425
 PFCB        164 00000000 FFFFFFE7     J    6745 18151U
 PFCB#IOS      2 00000048 FFFFFFE7     H    6686 18195M
 PFCB#IOT      2 0000004A FFFFFFE7     H    6687 18271M
 PFCBCLK       8 00000034 FFFFFFE7     X    6681 18214  18219  18278
 PFCBFL        1 00000058 FFFFFFE7     R    6693  6697   6702
 PFCBNEXT      4 000000A4 FFFFFFE7     F    6738 18283
 PFCBNIO       4 00000030 FFFFFFE7     F    6680 18187  18277
 PFCBNP        4 00000008 FFFFFFE7     A    6671 18165M 18165
 PFCBPCLK      8 00000040 FFFFFFE7     X    6684 18207M 18207  18214M 18221  18224  18278M
 PFCBPNIO      4 0000003C FFFFFFE7     F    6683 18181M 18181  18188  18277M
 PFCBSECM      1 00000013 FFFFFFE7 A   U    6708  6709
 PRBEND        4 000000A8 FFFFFFDC     F   10626 10750
 PREVNPIO      4 00001218 00000001     F   18426 18087  18088M
 PRVWTCLK      8 0000121C 00000001     X   18427 18059  18082M
 QSERVSEG      2 000018A8 00000001     H   19865 19861
 RAR          14 0000000E 00000001 A   #    1117  2112   2113M  2114B  2116M  2117B  2137M  2138B  2142M  2143B  2145M
                                                  2146B  2148M  2149B  2151M  2152B  2154M  2155M  2155B  2161  12771
                                                 12853M 12856B 12874  13033M 13036B 13190  13291M 13292M 13292B 13319M
                                                 13320M 13320B 13333M 13334M 13334B 13534M 13535M 13535B 13561M 13562M
                                                 13562B 13588M 13589M 13589B 13617M 13620B 13771  13823M 13826B 13839
                                                 13886M 13887M 13887B 13914M 13917B 13929  13976M 13977M 13977B 14007M
                                                 14010B 14022  14069M 14070M 14070B 14100M 14103B 14115  14162M 14163M
                                                 14163B 14190M 14193B 14205  14256M 14259B 14271  14322M 14325B 14337
                                                 14389M 14392B 14425  14535M 14538B 14555  14706M 14707M 14707B 14732M
                                                 14733M 14733B 14813M 14816B 14833  14935M 14936M 14936B 14959M 14962B
                                                 15033M 15034M 15034B 15070M 15071M 15071B 15104M 15105M 15105B 15112M
                                                 15113M 15113B 15136M 15137M 15137B 15155M 15156M 15156B 15183M 15184M
                                                 15184B 15208M 15209M 15209B 15247M 15248M 15248B 15255M 15256M 15256B
                                                 15279M 15280M 15280B 15318M 15319M 15319B 15343M 15344M 15344B 15361M
                                                 15362M 15362B 15409M 15410M 15410B 15427M 15428M 15428B 15452M 15453M
                                                 15453B 15477M 15478M 15478B 15496M 15497M 15497B 15502M 15503M 15503B
                                                 15520M 15521M 15521B 15526M 15527M 15527B 15551M 15552M 15552B 15570M
                                                 15571M 15571B 15595M 15596M 15596B 15620M 15621M 15621B 15650M 15651M
                                                 15651B 15669M 15670M 15670B 15745M 15746M 15746B 15771M 15772M 15772B
                                                 15789M 15790M 15790B 15841M 15842M 15842B 15867M 15868M 15868B 15886M
                                                 15887M 15887B 15911M 15912M 15912B 15929M 15930M 15930B 15954M 15955M
                                                 15955B 15973M 15974M 15974B 15998M 15999M 15999B 16023M 16024M 16024B
                                                 16042M 16043M 16043B 16067M 16068M 16068B 16092M 16093M 16093B 16111M
                                                 16112M 16112B 16133M 16134M 16134B 16151M 16152M 16152B 16176M 16177M
                                                 16177B 16201M 16202M 16202B 16220M 16221M 16221B 16241M 16242M 16242B
                                                 16259M 16260M 16260B 16284M 16285M 16285B 16309M 16310M 16310B 16328M
                                                 16329M 16329B 16349M 16350M 16350B 16367M 16368M 16368B 16392M 16393M
                                                 16393B 16417M 16418M 16418B 16436M 16437M 16437B 16457M 16458M 16458B
                                                 16475M 16476M 16476B 16500M 16501M 16501B 16525M 16526M 16526B 16544M
                                                 16545M 16545B 16565M 16566M 16566B 16583M 16584M 16584B 16608M 16609M
1STAT     (STAT2025) (12:55) (15MAR04) Ordinary Symbol and Literal Cross Reference                                          Page   53
                                                 16609B 16633M 16634M 16634B 16658M 16659M 16659B 16679M 16680M 16680B
                                                 16704M 16705M 16705B 16798M 16799M 16799B 16832M 16833M 16833B 16854M
                                                 16855M 16855B 16876M 16877M 16877B 16901M 16902M 16902B 16919M 16920M
                                                 16920B 16941M 16942M 16942B 16966M 16967M 16967B 16992M 16993M 16993B
                                                 17010M 17011M 17011B 17035M 17036M 17036B 17060M 17061M 17061B 17099M
                                                 17100M 17100B 17117M 17118M 17118B 17897B 17922  18533  18577M 18594M
                                                 18597B 18645  18751M 18752M 18752B 18757M 18758M 18758B 18773M 18774M
                                                 18774B 18815M 18816M 18816B 18840M 18841M 18841B 18868M 18871B 18888
                                                 18935M 18936M 18936B 18958M 18959M 18959B 18981M 18982M 18982B 19006M
                                                 19007M 19007B 19014M 19015M 19015B 19054M 19055M 19055B 19058M 19059M
                                                 19059B 19088M 19089M 19089B 19108M 19111B 19131  19175M 19176M 19176B
                                                 19184M 19185M 19185B 19205M 19208B 19228  19276M 19277M 19277B 19299M
                                                 19300M 19300B 19366M 19369B 19395  19563M 19566B 19596  19848M 19851B
                                                 19871  20073M 20076B
 RB            1 00000040 FFFFFFDC C   U   10046 17574U
 RBEP          4 0000004C FFFFFFDC     A   10593 10700
 RBFTP         1 000000E0 FFFFFFDC A   U   10551 17596  17648
 RBLINK        4 0000005C FFFFFFDC     A   10254 17618
 RBOPSW        8 00000050 FFFFFFDC     C   10238 17699
 RBPGMQ        4 00000058 FFFFFFDC     A   10601 10718  10727  10732
 RBPREFIX      1 00000000 FFFFFFDC     U   10424 10747
 RBPRFX        1 00000000 FFFFFFDC     J   10191 10422
 RBPRFXND      1 00000040 FFFFFFDC     C   10535 10747  10749
 RBPRFXST      8 00000020 FFFFFFDC     D   10464 10749  10750  10751  10752  10753  10755
 RBSECT        1 00000040 FFFFFFDC     U   10538 10046
 RBSTAB1       1 0000004A FFFFFFDC     B   10213 17598  17650
 READWLOG      2 000017FE 00000001     H   19590 20101
 RLOGEXIT      2 00001896 00000001     H   19829 19743B 19819B
 RMBRANCH      1 00000000 00000000 A   T    7721  7721
 R0            0 00000000 FFFFFFFF A   #     699  2097   2166M 13280M 13304M 13304  13313  13314  13805M 14498M 14498
                                                 14499M 14620M 14646M 14647M 14658  14665M 14680  14687M 14692M 14693M
                                                 14694M 14696  14698  14701M 14702M 14703  14725M 14725  14726M 14734
                                                 14898M 14937  15059M 15093M 15106M 15144M 15172M 15197M 15197  15236M
                                                 15249M 15307M 15332M 15350M 15398M 15398  15416M 15441M 15466M 15466
                                                 15485M 15499M 15509M 15523M 15540M 15540  15559M 15584M 15609M 15609
                                                 15639M 15639  15658M 15674M 15694M 15718M 15760M 15760  15778M 15794M
                                                 15814M 15856M 15856  15875M 15900M 15900  15918M 15943M 15943  15962M
                                                 15987M 16012M 16012  16031M 16056M 16081M 16081  16100M 16122M 16122
                                                 16140M 16165M 16165  16190M 16190  16209M 16230M 16248M 16273M 16298M
                                                 16298  16317M 16338M 16356M 16381M 16406M 16406  16425M 16446M 16464M
                                                 16489M 16514M 16514  16533M 16554M 16572M 16597M 16622M 16622  16647M
                                                 16647  16668M 16693M 16693  16760  16761  16761  16761  16787M 16821M
                                                 16843M 16843  16865M 16890M 16908M 16930M 16930  16945M 16963M 16981M
                                                 16999M 17024M 17049M 17049  17088M 17088  17106M 17437M 17437  17438M
                                                 17887  18484  18484  18484  18575M 18686  18698M 18703  18753  18760
                                                 18762  18764  18769M 18776  18778  18780  18812M 18835M 18837M 18947M
                                                 18970M 18970  18995M 18995  19077M 19077  19161M 19162  19172M 19181M
                                                 19455M 19455  19466  19478M 19495  19530  19534  19542  19711M 19716
                                                 19787M 19792  19831  19831M
 R1            1 00000001 FFFFFFFF A   #     712  2160M  2161M  2167M 12800M 12836  13279M 13300M 13313  13314  13316
                                                 13804M 14619M 14645M 14647  14697  14698M 14699  14708  14734  14755M
                                                 14791  14897M 14937  15058M 15092M 15106M 15143M 15167M 15235M 15249M
                                                 15306M 15325M 15349M 15415M 15434M 15484M 15508M 15558M 15577M 15657M
                                                 15673M 15693M 15717M 15777M 15793M 15813M 15874M 15896M 15917M 15961M
                                                 15980M 16030M 16049M 16099M 16118M 16139M 16208M 16247M 16266M 16316M
                                                 16355M 16374M 16424M 16463M 16482M 16532M 16571M 16590M 16667M 16786M
                                                 16820M 16839M 16864M 16883M 16907M 16926M 16998M 17017M 17105M 17418M
                                                 17419M 17419  17441  17443M 17470  17911  17971M 18571M 18704  18753
                                                 18761  18769M 18777  18811M 18836M 18837  18946M 18966M 19177  19178
1STAT     (STAT2025) (12:55) (15MAR04) Ordinary Symbol and Literal Cross Reference                                          Page   54
                                                 19186  19187  19259M 19268M 19268  19282M 19291M 19291  19535  19715M
                                                 19791M
 R12          12 0000000C FFFFFFFF A   #     855  2123
 R13          13 0000000D FFFFFFFF A   #     868 13308  13309  13310  13326  13327  13328  15007  17172M 17172  17949M
                                                 17949  18043M 18043
 R14          14 0000000E FFFFFFFF A   #     881  2098M 13307M 13308  13309  13310  13315M 13316  13323M 13326  13327
                                                 13328  14492M 14497M 14499M 14719M 14724M 14726M
 R15          15 0000000F FFFFFFFF A   #     894  2097  12855M 12855  13035M 13035  13288M 13329M 13329  13619M 13619
                                                 13825M 13825  13916M 13916  14009M 14009  14102M 14102  14192M 14192
                                                 14258M 14258  14324M 14324  14391M 14391  14537M 14537  14815M 14815
                                                 14961M 14961  15067M 15101M 15108M 15133M 15152M 15180M 15205M 15244M
                                                 15251M 15276M 15315M 15340M 15358M 15406M 15424M 15449M 15474M 15493M
                                                 15498M 15517M 15522M 15548M 15567M 15592M 15617M 15647M 15666M 15742M
                                                 15768M 15786M 15838M 15864M 15883M 15888M 15889M 15890M 15896  15908M
                                                 15926M 15951M 15970M 15995M 16020M 16039M 16064M 16089M 16108M 16130M
                                                 16148M 16173M 16198M 16217M 16238M 16256M 16281M 16306M 16325M 16346M
                                                 16364M 16389M 16414M 16433M 16454M 16472M 16497M 16522M 16541M 16562M
                                                 16580M 16605M 16630M 16655M 16676M 16701M 16795M 16829M 16851M 16873M
                                                 16898M 16916M 16938M 16962M 16989M 17007M 17032M 17057M 17096M 17114M
                                                 17269M 17270M 17271  17300M 17301M 17302  17510M 17511M 17512  17532M
                                                 17533M 17534  17607M 17608M 17609  17757M 17758M 17759  17787M 17788M
                                                 17789  17813M 17814M 17815  17871U 17896M 17896  17983M 17983  18058M
                                                 18059M 18060  18087M 18089  18370M 18371M 18404  18562M 18596M 18596
                                                 18713M 18713  18719M 18754M 18770M 18810M 18846M 18846  18870M 18870
                                                 18955M 18978M 19003M 19026M 19026  19051M 19085M 19110M 19110  19207M
                                                 19207  19368M 19368  19565M 19565  19742M 19742  19818M 19818  19826M
                                                 19850M 19850  19901  19977M 19978M 19979  19983M 19984M 19984  19997M
                                                 20019M 20019  20035M 20036M 20037  20046M 20046  20075M 20075
 R2            2 00000002 FFFFFFFF A   #     725 16728M 16737M 16737  16762M 16763M 16764  16766M 16883  17017  17219M
                                                 17220M 17221B 17292M 17293M 17293  17294M 17444M 17445M 17454M 17454
                                                 17464M 17464  17469M 17470M 17472M 17611M 17660M 17669M 17669  17699M
                                                 17700M 17719  17733  17783M 17784M 17785M 17786M 18113M 18113  18114M
                                                 18193M 18193  18194M 18219M 18221M 18223M 18224M 18225M 18226M 18230M
                                                 18230  18246M 18729M 18736M 18759M 18763M 18775M 18779M 18824M 18828M
                                                 18960M 18966  19011M 19011  19494M 19495M 19498M 19510  19517M 19518
                                                 19519M 19520  19529M 19533M 19537M 19538M 19541M 19542M 19543  19638
                                                 19644M 19663M 19687  19701  19714M 19715  19716M 19728  19734M 19763
                                                 19777  19790M 19791  19792M 19804  19810M 19831
 R3            3 00000003 FFFFFFFF A   #     738 16760  16761  16761  16761  16764M 16765M 16775M 16775  16945M 18057M
                                                 18060M 18076M 18076  18081  18086M 18088  18089M 18105M 18105  18115
                                                 18187M 18188M 18189  18195  18219M 18266M 18266  18271  18484  18484
                                                 18484  18730M 18760M 18776M 18825M 18827  19488M 19489M 19490  19499M
                                                 19500M 19510  19516M 19521  19522  19534M 19536
 R4            4 00000004 FFFFFFFF A   #     751 16707M 17069M 17360M 17377M 17377  17396U 17564M 17574U 17618M 17619M
                                                 17629  17951M 17959U 18189M 18239M 18239  18246  18734M 18734  18736M
                                                 18761M 18763M 18777M 18779M 18826M 18828M 19535M 19537M
 R5            5 00000005 FFFFFFFF A   #     764 12953M 12963U 13247M 13255U 16708M 16722  16762  16962  17068M 17332M
                                                 17333M 17333  17354U 17549M 17559U 17629  17922M 17984B 18735M 18762M
                                                 18778M 18827M 19536M
 R6            6 00000006 FFFFFFFF A   #     777 13229M 13237U 14454M 14464U 14584M 14594U 14862M 14872U 15020M 15028U
                                                 17174M 17182U 17911M 17919U 18123M 18124M 18124  18151U 18283M 18299
                                                 18728M 18729  18740M 18743M 18746M 18759  18764M 18767M 18775  18780M
                                                 18783M 18789M 18792M 18821M 18824  18829M 18832M 18835  19901M 19911U
 R7            7 00000007 FFFFFFFF A   #     790  2090M  2090   2091B  2103B 15008M 15018U
 R8            8 00000008 FFFFFFFF A   #     803 13225U 15007M 17170M 17170  17947M 17947  18041M 18041  18680U
 SCANCHK       1 00000000 00000008     T   14976 14976
 SDSNQSZ       1 0000002C FFFFFFEC A   U    6078  6079   6080
 SDWA          1 00000000 FFFFFFDB     J   11009 12005  12748  17919U 17971  17978M
 SDWACLEN      8 000001C8 FFFFFFD3 A   U   12008 12015  12016
1STAT     (STAT2025) (12:55) (15MAR04) Ordinary Symbol and Literal Cross Reference                                          Page   55
 SDWADEND      8 000000F0 FFFFFFD3     D   12002 12012
 SDWADLEN      8 000000F0 FFFFFFD3 A   U   12012 12013
 SDWAEEND      8 00000150 FFFFFFD7     D   11953 12014
 SDWAELEN      8 00000150 FFFFFFD3 A   U   12014 12015  12016  12023
 SDWAEND       8 00000298 FFFFFFDB     D   11648 12005
 SDWAIEND      8 00000010 FFFFFFD9     D   11875 12009
 SDWAILEN      8 00000010 FFFFFFD3 A   U   12009 12015  12016
 SDWALEN       8 00000298 FFFFFFD3 A   U   12005 12016
 SDWALEND      8 00000020 FFFFFFD8     D   11923 12010
 SDWALLEN      8 00000020 FFFFFFD3 A   U   12010 12015  12016
 SDWAMLEN      8 00000600 FFFFFFD3 A   U   12017 12020  12026
 SDWAMLNP      8 000005E0 FFFFFFD3 A   U   12016 12017
 SDWANLNS      8 000001F0 FFFFFFD3 A   U   12013 12020  12028
 SDWANOPR      1 00000000 FFFFFFD3 A   U   12031 17974B
 SDWANRC1      1 00000000 FFFFFFD5     J   11977 12007
 SDWANRC2      1 00000000 FFFFFFD4     J   11986 12011
 SDWANRC3      1 00000000 FFFFFFD3     J   11999 12012
 SDWANXT1      4 0000006C FFFFFFDB     F   11151 17965
 SDWANXT2      4 0000007C FFFFFFDB     F   11212 17966
 SDWAPEND      8 00000020 FFFFFFD6     D   11971 12006
 SDWAPLEN      8 00000020 FFFFFFD3 A   U   12006 12017
 SDWAPTRS      1 00000000 FFFFFFD6     J   11962 12006
 SDWARCDE      1 000000FC FFFFFFDB     B   11442 17978M
 SDWARC1       1 00000000 FFFFFFDA     J   11650 12008
 SDWARC2       1 00000000 FFFFFFD9     J   11869 12009
 SDWARC3       1 00000000 FFFFFFD8     J   11881 12010
 SDWARC4       1 00000000 FFFFFFD7     J   11931 12014
 SDWAREND      8 000000F0 FFFFFFD5     D   11979 12007
 SDWARLEN      8 000000F0 FFFFFFD3 A   U   12007 12013
 SDWASEN       8 00000010 FFFFFFD4     D   11992 12011
 SDWASEND      8 000001C8 FFFFFFDA     D   11863 12008
 SDWASLEN      8 00000710 FFFFFFD3 A   U   12026 12028
 SDWASPL       8 00000010 FFFFFFD3 A   U   12011 12013
 SDWASRSV     64 00000088 FFFFFFDB     C   11235 17967
 SDWATLEN      8 000007F0 FFFFFFD3 A   U   12020 12023
 SDWATRAN      4 00000074 FFFFFFDB     A   11171 11173
 SEG           1 00000000 0000000E     T   18448 18448  20098
 SEGCB        60 00000000 FFFFFFE6     J    6851 19911U
 SEGCBCOD      1 00000000 FFFFFFE6     R    6762  6771   6781   6791   6801   6811   6821   6831
 SEGCBCR       6 00000000 FFFFFFE6         6821 19929
 SEGCBUSR      4 00000038 FFFFFFE6     A    6844 19983
 SEGCBWR       2 00000000 FFFFFFE6         6781 19941
 SEGCOL        1 00000000 00000014     T   18459 18459
 SEGCR         1 00000000 00000006     T   14973 14973  18447  20102
 SEGDC         1 00000000 00000013     T   18458 18458  20099
 SEGHX         1 00000000 00000011     T   18452 18452
 SEGT          1 00000000 00000010     T   18451 18451
 SEGWR         1 00000000 00000019     T   20100 20100
 SHOWWLOG      2 000015FA 00000001     H   18882 18878
 SHOWWMON      2 000008BE 00000001     H   15006 15004
 SINVPGM       8 00000098 FFFFFFE8     C    6623  6629   6629
 SIRBEND       4 000000E8 FFFFFFDC     F   10689 10751
 SPR          13 0000000D 00000001 A   #    1104 12771  12774  12775  12776M 12776  12847M 12851  12853  12874  12877
                                                 12878  12879M 12879  13027M 13031  13033  13190  13193  13195  13196M
                                                 13196  13611M 13615  13617  13771  13774  13775  13776M 13776  13817M
                                                 13821  13823  13839  13842  13843  13844M 13844  13908M 13912  13914
                                                 13929  13932  13933  13934M 13934  14001M 14005  14007  14022  14025
                                                 14026  14027M 14027  14094M 14098  14100  14115  14118  14119  14120M
                                                 14120  14184M 14188  14190  14205  14208  14209  14210M 14210  14250M
1STAT     (STAT2025) (12:55) (15MAR04) Ordinary Symbol and Literal Cross Reference                                          Page   56
                                                 14254  14256  14271  14274  14275  14276M 14276  14316M 14320  14322
                                                 14337  14340  14341  14342M 14342  14383M 14387  14389  14425  14428
                                                 14429  14430M 14430  14529M 14533  14535  14555  14558  14559  14560M
                                                 14560  14807M 14811  14813  14833  14836  14837  14838M 14838  14953M
                                                 14957  14959  18533  18536  18537  18538M 18538  18588M 18592  18594
                                                 18645  18648  18650  18651M 18651  18862M 18866  18868  18888  18891
                                                 18892  18893M 18893  19102M 19106  19108  19131  19134  19135  19136M
                                                 19136  19199M 19203  19205  19228  19231  19232  19233M 19233  19360M
                                                 19364  19366  19395  19398  19399  19400M 19400  19557M 19561  19563
                                                 19596  19599  19600  19601M 19601  19842M 19846  19848  19871  19874
                                                 19875  19876M 19876  20067M 20071  20073
 STATECB       4 00000124 00000001     F   13039 12816  12932  12945M 12945
 STATINIT      2 00000018 00000001     H   12765 12761
 STATSLP       2 000010DA 00000001     H   18048 18414B
 STATSTOP      2 000000A8 00000001     H   12868 12864
 STATTASK      2 000010CE 00000001     I   18021 13104
 STATTCBP      4 00000120 00000001     F   13038 12836M 12916M 12916  12925  12940M 12940
 STAT2025      1 00000000 00000001     R    1138  1136
 SVRBEND       4 00000110 FFFFFFDC     F   10698 10755
 TCB           1 00000020 FFFFFFDE     U    9295  9994  17559U
 TCBAE         4 000000BC FFFFFFDE     A    9539  9542
 TCBDARPN      1 00000040 FFFFFFDE A   U    9585  9587
 TCBDARTN      1 00000080 FFFFFFDE A   U    9582  9584
 TCBFIX        1 00000000 FFFFFFDE     J    9283  9290
 TCBMNLEN      1 00000158 FFFFFFDE A   U    9994 10039
 TCBPXLEN      1 00000020 FFFFFFDE A   U    9290 10039
 TCBRBP        4 00000020 FFFFFFDE     A    9297 17564
 TCBRD         4 000000B8 FFFFFFDE     A    9534  9538
 TCBXTNT2      1 00000000 FFFFFFDD     J    9999 10037
 TCBX2LEN      1 00000020 FFFFFFDD A   U   10037 10039
 TIMEVAL       1 0000003C 00000001 A   U   18017 18474  18475  18485
 TIRBEND       4 000000A8 FFFFFFDC     F   10627 10752
 TLOC          1 00000000 00000012     T   18454 18454
 TRC           1 00000000 00000000 A   T    2119  2119
 TTYFLAG       1 00000004 FFFFFFEA     R    6207  6211
 TTYMAX#       1 00000006 FFFFFFEA A   U    6263  6264
 TTYTFLAG      1 00000005 FFFFFFEA     R    6217  6221   6226   6231   6236   6241   6246   6251
 UPPTBL        1 00000000 00000000 A   T    2182  2182
 VRADAT        1 00000002 FFFFFFD2     G   12161 12165
 VRAKL         2 00000000 FFFFFFD2     G   12153 12165
 WAR           8 00000008 00000001 A   #    1027 12775M 12847  12878M 13027  13195M 13611  13775M 13817  13843M 13908
                                                 13933M 14001  14026M 14094  14119M 14184  14209M 14250  14275M 14316
                                                 14341M 14383  14429M 14529  14559M 14807  14837M 14953  18537M 18588
                                                 18650M 18862  18892M 19102  19135M 19199  19232M 19360  19399M 19557
                                                 19600M 19831  19842  19875M 20067
 WFALL         2 000005C8 00000001     H   14331 13743
 WFNULL        2 00000454 00000001     H   13765 13638
 WFPSTART      2 000004C2 00000001     H   13923 13668
 WFRESET       2 00000570 00000001     H   14199 13713
 WFSTART       2 00000488 00000001     H   13833 13653
 WFSTOP        2 00000536 00000001     H   14109 13698
 WFUSER        2 0000059C 00000001     H   14265 13728
 WFXSTART      2 000004FC 00000001     H   14016 13683
 WLGEXIT       2 000017F0 00000001     H   19546 19441B 19458B
 WMONADDR      2 00001034 00000001     H   17707 17295B 17473B
 WMONCONT      2 00000EF0 00000001     H   17223 17201B 17213B 17219
 WMONFALL      1 00000000 FFFFFFD1        13161 13443  13484
 WMONFLAG      1 00000000 FFFFFFD1     R   13122 13126  13131  13136  13141  13146  13151  13156  13161
 WMONFPSTART
1STAT     (STAT2025) (12:55) (15MAR04) Ordinary Symbol and Literal Cross Reference                                          Page   57
               8 00000000 FFFFFFD1        13146 13372  13989  13989
 WMONFRESET
              16 00000000 FFFFFFD1        13141 13508M 13525  14239M
 WMONFSTART
              64 00000000 FFFFFFD1        13131 13552  13897M 13989  13989  13990M 14082  14082  14083M 14153
 WMONFSTOP
              32 00000000 FFFFFFD1        13136 13347  13579  13877  13967  14060  14173M
 WMONFUSER
               2 00000000 FFFFFFD1        13156 13431  13458  14305M 14372M
 WMONFXSTART
               4 00000000 FFFFFFD1        13151 13398  14082  14082
 WMONITOR      2 000001C8 00000001     H   13183 13179
 WMONLOOP      2 00000F1E 00000001     H   17255 17303B 17539B 17632B 17672B 17772B 17838B
 WMONPRT       4 000002EC 00000001     F   13626 14974
 WMONRES       2 000005F4 00000001     H   14419 14415  14977
 WMONSTAE      2 00001090 00000001     H   17861 17247  17871U
 WMONSTOP      2 0000077C 00000001     H   14827 14823  14979
 WMONSTRT      2 0000063C 00000001     H   14549 14545  14978
 WMONTASK      2 00000EC6 00000001     I   17150 14988
 WMONWA        1 00000000 FFFFFFD1     J   13170 13196  13225U 13229  13237U 13245M 13615  13617  13618
 WORKCLCK      8 00001228 00000001     D   18429 18116M 18117
 WRITWLOG      2 00001758 00000001     H   19389 20096
 WTOSG         1 00000000 00000000 A   T    2079  2079
 WYLSTAT       1 00000000 00000001     J     990   992   1009   1022   1035   1047   1060   1073   1086   1099   1112
                                                  1125   2363   2447   6187   6299   6579   6656   6746   6852  12752
 =A(BUCKSZ#-1)
               4 00000844 00000001     A   14985 14692
 =A(CV#FEXEC-1)
               4 00001350 00000001     A   18471 17445
 =A(MVT)       4 000001C4 00000001     A   13105 12953
 =A(MVT)       4 00000810 00000001     A   14972 13247  14454  14584  14862
 =A(MVT)       4 00001290 00000001     A   18445 15020  17174  17951
 =A(READWLOG)
               4 00001970 00000001     A   20101 19014  19058
 =A(STATTASK)
               4 000001C0 00000001     A   13104 12800
 =A(TIMEVAL*100)
               4 0000135C 00000001     A   18474 18049
 =A(TIMEVAL)
               4 00001360 00000001     A   18475 18057  18114  18194
 =A(WMONPRT)
               4 00000818 00000001     A   14974 13315
 =A(WMONRES)
               4 00000824 00000001     A   14977 13534
 =A(WMONSTOP)
               4 0000082C 00000001     A   14979 13588
 =A(WMONSTRT)
               4 00000828 00000001     A   14978 13561
 =A(WMONTASK)
               4 00000850 00000001     A   14988 14755
 =A(WRITWLOG)
               4 0000195C 00000001     A   20096 18840
 =A(X'FFFFFF')
               4 00001354 00000001     A   18472 17619  17700
 =A(X'1FFF')
               4 00001328 00000001     A   18463 16766
 =A(X'7FFFFFFF')
               4 00001344 00000001     A   18468 17294
 =A(X'80000000')
1STAT     (STAT2025) (12:55) (15MAR04) Ordinary Symbol and Literal Cross Reference                                          Page   58
               4 0000133C 00000001     A   18466 17220
 =A(0)         4 00001988 00000001     A   20107 19638
 =A(1)         4 00001948 00000001     A   20091 18743  18746  18767  18783  18792  18832  19498  19533  19541  19714
                                                 19790
 =A(1000/64)
               4 00001364 00000001     A   18476 18226
 =A(1023)      4 000012F0 00000001     A   18457 15889
 =A(12)        4 00001358 00000001     A   18473 17887
 =A(180)       4 00001940 00000001     A   20089 18686  18698
 =A(200)       4 00001984 00000001     A   20106 19466  19478
 =A(28)        4 00001340 00000001     A   18467 17260
 =A(4096)      4 0000083C 00000001     A   14983 14658  14665
 =A(8*1024*1024)
               4 00000840 00000001     A   14984 14680  14687
 =A(8000)      4 0000134C 00000001     A   18470 17441  17443
 =AL2(TIMEVAL)
               2 00001408 00000001     R   18485 18371
 =AL4(CVLOGBSZ)
               4 00001978 00000001     R   20103 19161
 =C' by '      4 000012A4 00000001     C   18450 15143
 =C' bytes'
               6 000013E6 00000001     C   18482 16139
 =C'(Note: WMONITOR is an internal command.)'
              40 000007E8 00000001     C   14971 13279
 =C')'         1 00001438 00000001     C   18488 15349
 =C'; lines '
               8 00001278 00000001     C   18443 16864
 =C'----'      4 00001324 00000001     C   18462 16667
 =C'/'         1 000014AF 00000001     C   18497 16907
 =C', SVC PSW IA is '
              16 00001230 00000001     C   18438 15508
 =C':'         1 000014AE 00000001     C   18496 16247  16355  16463  16571  16998
 =C'exec file line-numbers'
              22 000013AE 00000001     C   18480 15717
 =C'memory location (CVMONPTR)'
              26 00001394 00000001     C   18479 15693
 =C'ALL (USER and DISPATCHER cpu time)'
              34 000013C4 00000001     C   18481 15793
 =C'Bucket size   = '
              16 00001260 00000001     C   18441 16099
 =C'End of counters.'
              16 00001280 00000001     C   18444 17105
 =C'Ending addr   = '
              16 00001250 00000001     C   18440 16030
 =C'Expecting WMONITOR START/XSTART or WMONITOR STOP.'
              49 00000856 00000001     C   14990 13804
 =C'K'         1 000014A0 00000001     C   18494 15917
 =C'Log record count: '
              18 0000198C 00000001     C   20108 18946
 =C'Monitor abended, posted ECB='
              28 000012B0 00000001     C   18453 15415
 =C'Monitor task TCB='
              17 00001427 00000001     C   18487 15306
 =C'Monitoring is already active.'
              29 00000887 00000001     C   14991 14619
 =C'Monitoring is not active.'
              25 000008A4 00000001     C   14992 14897
 =C'Monitoring started on '
              22 00001368 00000001     C   18477 15092
1STAT     (STAT2025) (12:55) (15MAR04) Ordinary Symbol and Literal Cross Reference                                          Page   59
 =C'Monitoring stopped on '
              22 0000137E 00000001     C   18478 15235
 =C'Monitoring was never started.'
              29 0000140A 00000001     C   18486 15058
 =C'Private;    '
              12 0000132C 00000001     C   18464 16786
 =C'Pubload '
               8 00001270 00000001     C   18442 16820
 =C'PSW IA at failure is '
              21 00001439 00000001     C   18489 15484
 =C'PSW'       3 00001471 00000001     C   18491 15673
 =C'Registers saved at memory location '
              35 0000144E 00000001     C   18490 15558
 =C'Samples in dispatcher mode'
              26 000013EC 00000001     C   18483 16316
 =C'Samples out of range'
              20 00001310 00000001     C   18461 16532
 =C'Samples when waiting'
              20 000012FC 00000001     C   18460 16424
 =C'Starting addr = '
              16 00001240 00000001     C   18439 15961
 =C'Total samples'
              13 000014A1 00000001     C   18495 16208
 =C'Tracing: '
               9 00001474 00000001     C   18492 15777
 =C'USER (excludes dispatcher cpu time)'
              35 0000147D 00000001     C   18493 15813
 =C'Watch mode: '
              12 000012D0 00000001     C   18455 15657
 =C'WYLBUR code size is '
              20 000012DC 00000001     C   18456 15874
 =CL16'WYLBUR'
              16 00001930 00000001     C   20088 19997
 =CL8' '       8 00001928 00000001     C   20087 18719
 =CL8'LOGCMD  '
               8 00001920 00000001     C   20086 18562
 =F'1000'      4 00001348 00000001     F   18469 17438
 =V(BTD)       4 00001958 00000001     V   20095 18815
 =V(COLLOPTS)
               4 00001294 00000001     V   18446 15033
 =V(CV)        4 00001338 00000001     V   18465 17162  17939  18033
 =V(FMTDATE)
               4 00001950 00000001     V   20093 18757
 =V(FMTTIME)
               4 00001954 00000001     V   20094 18773
 =V(FMTXDATE)
               4 000012A0 00000001     V   18449 15112  15255
 =V(FREECORE)
               4 00001980 00000001     V   20105 19276  19299
 =V(GETCORE)
               4 00000848 00000001     V   14986 14706
 =V(GETCORE)
               4 0000197C 00000001     V   20104 19175  19184
 =V(LOCALTOD)
               4 0000084C 00000001     V   14987 14732  14935
 =V(LOCALTOD)
               4 0000194C 00000001     V   20092 18751
 =V(MEMEND)
               4 00000838 00000001     V   14982 14646
1STAT     (STAT2025) (12:55) (15MAR04) Ordinary Symbol and Literal Cross Reference                                          Page   60
 =V(MEMSTART)
               4 00000834 00000001     V   14981 14645
 =V(NOTVALID)
               4 00000830 00000001     V   14980 13886  13976  14069  14162
 =V(NOTVALID)
               4 00001960 00000001     V   20097 18935
 =V(NSCAN)
               4 0000081C 00000001     V   14975 13319
 =V(SCANCHK)
               4 00000820 00000001     V   14976 13333
 =V(SEG)       4 0000129C 00000001     V   18448 15104  15136  15155  15247  15318  15427  15496  15520  15570  15669
                                                 15789  15886  15929  15973  16042  16111  16151  16220  16259  16328
                                                 16367  16436  16475  16544  16583  16798  16832  16876  16919  17010
                                                 17117
 =V(SEG)       4 00001964 00000001     V   20098 18958
 =V(SEGCOL)
               4 000012F8 00000001     V   18459 16241  16349  16457  16565  16992
 =V(SEGCR)
               4 00000814 00000001     V   14973 13291
 =V(SEGCR)
               4 00001298 00000001     V   18447 15070  15208  15279  15361  15409  15477  15551  15620  15650  15745
                                                 15771  15841  15867  15954  16023  16092  16176  16201  16309  16417
                                                 16525  16633  16658  16679  16704  17060  17099
 =V(SEGCR)
               4 00001974 00000001     V   20102 19054
 =V(SEGDC)
               4 000012F4 00000001     V   18458 15911  16133  16284  16392  16500  16608  16854  16901  16941  17035
 =V(SEGDC)
               4 00001968 00000001     V   20099 18981
 =V(SEGHX)
               4 000012AC 00000001     V   18452 15343  15452  15595  15998  16067
 =V(SEGT)      4 000012A8 00000001     V   18451 15183
 =V(SEGWR)
               4 0000196C 00000001     V   20100 19006  19088
 =V(TLOC)      4 000012CC 00000001     V   18454 15502  15526  16966
 =X'40000000'
               4 00001944 00000001     X   20090 18735
 =Y((R3+1-(R0)+16*((R0)/(R3+1))/((R0)/(R3+1)))*4)
               2 00001406 00000001     Y   18484 16944
 =Y((12+3)/4*4)
               2 00000854 00000001     Y   14989 13325

1STAT     (STAT2025) (12:55) (15MAR04) Macro and Copy Code Source Summary                                                   Page   61
- Con Source                                        Volume    Members                        HLASM R4.0  2004/03/15 12.55
0     PRIMARY INPUT                                           CSECT    DROP     END      EX       LTORG    POP
                                                              PRINT    PUSH     START    USING
   L1 WYL.GS.WYL.WYLBUR.MACLIB                      SYSB05    ABORT    AINFO    BASE     COLINFO  COMMENT  CONTROL  CP
                                                              CPLOCAL  CV       CVLOCAL  ERROR    GENTER   JCB      PFCB
                                                              RG       SCAN     SCANCB   SCANCHK  SCCBADR  SCKW
                                                              SCPOP    SCPUSH   TCOL     TCR      THEX     TNUM     TSEG
                                                              TTYPE    TWRITE   VLTORG   XTRACE
   L2 WYL.GG.SYS.MACLIB                             SYSB05    $BC      $BFLKUP  $BV      $CCLKUP  $CRS     $CSS     $L
                                                              $LA      $LBLAD   $LEXP    $LOR     $REL     $RGLKUP
                                                              $USLKUP  ACALL    BEGIN    CEIL     CLEAR    COMPROC
                                                              CSECT    DECR     DEFCC    DROP     ELSE     END      EX
                                                              FLAG     GEN      HIBAL    IDENT    IF       INCR
                                                              LABEL    LC       LCALL    LOOP     LS       LT
                                                              LTORG    PEND     POP      PRETURN  PRINT    PROC     PUSH
                                                              QLTORG   RECORD   REG      REGS     SDL      SET
                                                              SETMSG   START    SYSLR    SYSQS    UNTIL    USING
                                                              VCALL    WHILE    WITH     XPROC    ZOT
   L3 SYS3.IS.MACLIB                                SYSB05    QSERV    SEG      SEGCB    SEGCOL   SEGCR    SEGDC
                                                              SEGHX    SEGLD    SEGWR    SIB      SIN      SYSDEFN  XPOP
                                                              XPUSH
   L4 SYS3.MACLIB                                   SYSB02    SCIPCVT  USERCVT
   L5 SYS1.MACLIB                                   MVSBR9    ABEND    ATTACH   CHAP     CVT      DCB      DETACH
                                                              ESTAE    IDENTIFY IHAASCB  IHARB    IHASDWA  IHAVRA
                                                              IHBINNRA IHBINNRR IHB01    IKJTCB   SETRP    SPLEVEL
                                                              STIMER   SYSSTATE WAIT     WTO
   L6 SYS1.MODGEN                                   MVSBR9    IEZBITS  IHAASVT  IKJRB

1STAT     (STAT2025) (12:55) (15MAR04) Dsect Cross Reference                                                                Page   62
-Dsect     Length      Id       Defn                                                         HLASM R4.0  2004/03/15 12.55
0$$$@R0   00000000  FFFFFFFE     705
 $$$@R1   00000000  FFFFFFFD     718
 $$$@R10  00000000  FFFFFFF4     835
 $$$@R11  00000000  FFFFFFF3     848
 $$$@R12  00000000  FFFFFFF2     861
 $$$@R13  00000000  FFFFFFF1     874
 $$$@R14  00000000  FFFFFFF0     887
 $$$@R15  00000000  FFFFFFEF     900
 $$$@R2   00000000  FFFFFFFC     731
 $$$@R3   00000000  FFFFFFFB     744
 $$$@R4   00000000  FFFFFFFA     757
 $$$@R5   00000000  FFFFFFF9     770
 $$$@R6   00000000  FFFFFFF8     783
 $$$@R7   00000000  FFFFFFF7     796
 $$$@R8   00000000  FFFFFFF6     809
 $$$@R9   00000000  FFFFFFF5     822
 $$$RCP   00001000  FFFFFFEC    2452
 $$$RCV   00000FB0  FFFFFFEE    1177
 $$$RDEV  0000000C  FFFFFFEB    4666
 $$$RJCB  000000D0  FFFFFFE9    6304
 $$$RLEVWA
          00000138  FFFFFFD0   18609
 $$$RNSCNCB
          000000B0  FFFFFFED    2373
 $$$RPFCB 000000A4  FFFFFFE7    6661
 $$$RSEGCB
          0000003C  FFFFFFE6    6751
 $$$RSIN  000000E0  FFFFFFE8    6584
 $$$RTTYPE
          0000010C  FFFFFFEA    6197
 $$$RUSERCVT
          0000035F  FFFFFFDF    9045
 $$$RWMONWA
          00000001  FFFFFFD1   13114
 ASCB     00000180  FFFFFFE0    8418
 ASVT     00000214  FFFFFFE1    8225
 CVT      00000500  FFFFFFE5    7049
 CVTVSTGX 00000050  FFFFFFE4    8069
 CVTXTNT1 0000000C  FFFFFFE3    8108
 CVTXTNT2 00000084  FFFFFFE2    8116
 HIBAL    00000000  FFFFFFFF     691
 RBPRFX   00000110  FFFFFFDC   10191
 SDWA     00000298  FFFFFFDB   11009
 SDWANRC1 000000F0  FFFFFFD5   11977
 SDWANRC2 00000010  FFFFFFD4   11986
 SDWANRC3 000000F0  FFFFFFD3   11999
 SDWAPTRS 00000020  FFFFFFD6   11962
 SDWARC1  000001C8  FFFFFFDA   11650
 SDWARC2  00000010  FFFFFFD9   11869
 SDWARC3  00000020  FFFFFFD8   11881
 SDWARC4  00000150  FFFFFFD7   11931
 TCBFIX   00000178  FFFFFFDE    9283
 TCBXTNT2 00000020  FFFFFFDD    9999
 VRAMAP   00000002  FFFFFFD2   12152

1STAT     (STAT2025) (12:55) (15MAR04) Using Map                                                                            Page   63
-                                                                                            HLASM R4.0  2004/03/15 12.55
   Stmt  -----Location----- Action ----------------Using----------------- Reg Max    Last  Label and Using Text
           Count      Id           Type          Value    Range     Id        Disp   Stmt
0   922  00000000  FFFFFFFF USING  ORDINARY    00000000 00001000 FFFFFFEF  15 000          @R15,15
    926  00000000  FFFFFFFF USING  ORDINARY    00000000 00001000 FFFFFFF0  14 002    2168  @R14,14
    930  00000000  FFFFFFFF USING  ORDINARY    00000000 00001000 FFFFFFF1  13 000          @R13,13
    934  00000000  FFFFFFFF USING  ORDINARY    00000000 00001000 FFFFFFF2  12 000          @R12,12
    938  00000000  FFFFFFFF USING  ORDINARY    00000000 00001000 FFFFFFF3  11 000          @R11,11
    942  00000000  FFFFFFFF USING  ORDINARY    00000000 00001000 FFFFFFF4  10 000          @R10,10
    946  00000000  FFFFFFFF USING  ORDINARY    00000000 00001000 FFFFFFF5   9 000          @R9,9
    950  00000000  FFFFFFFF USING  ORDINARY    00000000 00001000 FFFFFFF6   8 000          @R8,8
    954  00000000  FFFFFFFF USING  ORDINARY    00000000 00001000 FFFFFFF7   7 000          @R7,7
    958  00000000  FFFFFFFF USING  ORDINARY    00000000 00001000 FFFFFFF8   6 000          @R6,6
    962  00000000  FFFFFFFF USING  ORDINARY    00000000 00001000 FFFFFFF9   5 000          @R5,5
    966  00000000  FFFFFFFF USING  ORDINARY    00000000 00001000 FFFFFFFA   4 004   17069  @R4,4
    970  00000000  FFFFFFFF USING  ORDINARY    00000000 00001000 FFFFFFFB   3 7FF   16839  @R3,3
    974  00000000  FFFFFFFF USING  ORDINARY    00000000 00001000 FFFFFFFC   2 07F   19787  @R2,2
    978  00000000  FFFFFFFF USING  ORDINARY    00000000 00001000 FFFFFFFD   1 001    2167  @R1,1
    982  00000000  FFFFFFFF USING  ORDINARY    00000000 00001000 FFFFFFFE   0 000          @R0,0
    983  00000000  FFFFFFFF DROP                                            0              0
   1161  00000017  00000001 USING  ORDINARY    00000000 00001000 FFFFFFEC  11 D5A   17114  CP,CPR
   1170  00000017  00000001 USING  ORDINARY    00000000 00001000 FFFFFFEE  12 93C   20037  CV,CVR
  12791  00000032  00000001 USING  ORDINARY    00000032 00001000 00000001   7 18E   12836  $$$51B,7
  12843  0000009A  00000001 USING  ORDINARY    00000000 00001000 FFFFFFF7   7 000          @R7,7
  12894  000000C2  00000001 USING  ORDINARY    000000C2 00001000 00000001   7 102   12978  $$$54B,7
  12963  000000EC  00000001 USING  ORDINARY    00000128 00001000 00000001   5 040   13006  MVT,R5
  13018  00000112  00000001 USING  ORDINARY    00000000 00001000 FFFFFFF9   5 000          @R5,5
  13023  00000112  00000001 USING  ORDINARY    00000000 00001000 FFFFFFF7   7 000          @R7,7
  13211  000001E2  00000001 USING  ORDINARY    000001E2 00001000 00000001   7 672   13588  $$$59B,7
  13225  000001E2  00000001 USING  ORDINARY    FFFFFFD8 00001000 FFFFFFD1   8 028   13229  WMONWA-(4+36),R8
  13237  000001E6  00000001 USING  ORDINARY    00000000 00001000 FFFFFFD1   6 000   14372  WMONWA,R6
  13255  000001EE  00000001 USING  ORDINARY    00000128 00001000 00000001   5 004   13497  MVT,R5
  13602  000002DE  00000001 USING  ORDINARY    00000000 00001000 FFFFFFF6   8 000          @R8,8
  13607  000002DE  00000001 USING  ORDINARY    00000000 00001000 FFFFFFF7   7 000          @R7,7
  13791  0000046E  00000001 USING  ORDINARY    0000046E 00001000 00000001   7 3E8   13804  $$$73B,7
  13813  0000047A  00000001 USING  ORDINARY    00000000 00001000 FFFFFFF7   7 000          @R7,7
  13859  000004A2  00000001 USING  ORDINARY    000004A2 00001000 00000001   7 38E   13886  $$$76B,7
  13904  000004B4  00000001 USING  ORDINARY    00000000 00001000 FFFFFFF7   7 000          @R7,7
  13949  000004DC  00000001 USING  ORDINARY    000004DC 00001000 00000001   7 354   13976  $$$80B,7
  13997  000004EE  00000001 USING  ORDINARY    00000000 00001000 FFFFFFF7   7 000          @R7,7
  14042  00000516  00000001 USING  ORDINARY    00000516 00001000 00000001   7 31A   14069  $$$84B,7
  14090  00000528  00000001 USING  ORDINARY    00000000 00001000 FFFFFFF7   7 000          @R7,7
  14135  00000550  00000001 USING  ORDINARY    00000550 00001000 00000001   7 2E0   14162  $$$88B,7
  14180  00000562  00000001 USING  ORDINARY    00000000 00001000 FFFFFFF7   7 000          @R7,7
  14225  0000058A  00000001 USING  ORDINARY    0000058A 00001000 00000001   7 000          $$$92B,7
  14246  0000058E  00000001 USING  ORDINARY    00000000 00001000 FFFFFFF7   7 000          @R7,7
  14291  000005B6  00000001 USING  ORDINARY    000005B6 00001000 00000001   7 000          $$$95B,7
  14312  000005BA  00000001 USING  ORDINARY    00000000 00001000 FFFFFFF7   7 000          @R7,7
  14357  000005E2  00000001 USING  ORDINARY    000005E2 00001000 00000001   7 000          $$$98B,7
  14379  000005E6  00000001 USING  ORDINARY    00000000 00001000 FFFFFFF7   7 000          @R7,7
  14400  000005F4  00000001 USING  ORDINARY    00000000 00001000 FFFFFFF9   5 080   17068  @R5,5
  14407  000005F4  00000001 USING  ORDINARY    00000000 00001000 FFFFFFF8   6 000          @R6,6
  14445  0000060E  00000001 USING  ORDINARY    0000060E 00001000 00000001   7 202   14482  $$$101B,7
  14464  00000612  00000001 USING  ORDINARY    00000128 00001000 00000001   6 048   14513  MVT,R6
  14520  0000062E  00000001 USING  ORDINARY    00000000 00001000 FFFFFFF8   6 000          @R6,6
  14525  0000062E  00000001 USING  ORDINARY    00000000 00001000 FFFFFFF7   7 000          @R7,7
1STAT     (STAT2025) (12:55) (15MAR04) Using Map                                                                            Page   64
  14575  00000656  00000001 USING  ORDINARY    00000656 00001000 00000001   7 231   14766  $$$105B,7
  14594  0000065A  00000001 USING  ORDINARY    00000128 00001000 00000001   6 04C   14791  MVT,R6
  14798  0000076E  00000001 USING  ORDINARY    00000000 00001000 FFFFFFF8   6 000          @R6,6
  14803  0000076E  00000001 USING  ORDINARY    00000000 00001000 FFFFFFF7   7 000          @R7,7
  14853  00000796  00000001 USING  ORDINARY    00000796 00001000 00000001   7 10E   14935  $$$112B,7
  14872  0000079A  00000001 USING  ORDINARY    00000128 00001000 00000001   6 040   14937  MVT,R6
  14944  000007D6  00000001 USING  ORDINARY    00000000 00001000 FFFFFFF8   6 000          @R6,6
  14949  000007D6  00000001 USING  ORDINARY    00000000 00001000 FFFFFFF7   7 000          @R7,7
  15018  000008CC  00000001 USING  ORDINARY    000008CC 00001000 00000001   7 BE3   17117  $$$115B,R7
  15028  000008D0  00000001 USING  ORDINARY    00000128 00001000 00000001   6 054   16763  MVT,R6
  17127  00000EC6  00000001 USING  ORDINARY    00000000 00001000 FFFFFFF8   6 000          @R6,6
  17133  00000EC6  00000001 USING  ORDINARY    00000000 00001000 FFFFFFF7   7 000          @R7,7
  17145  00000EC6  00000001 USING  ORDINARY    00000000 00001000 FFFFFFF3  11 000          @R11,11
  17160  00000EC8  00000001 USING  ORDINARY    00000EC8 00001000 00000001   7 48C   17838  $$$132B,7
  17182  00000ED6  00000001 USING  ORDINARY    00000128 00001000 00000001   6 044   17815  MVT,R6
  17354  00000F72  00000001 USING  ORDINARY    00000000 00001000 FFFFFFE9   5 014   17360  JCB,R5
  17367  00000F76  00000001 USING  ORDINARY    00000000 00001000 FFFFFFF9   5 000          @R5,5
  17396  00000F7C  00000001 USING  ORDINARY    00000000 00001000 FFFFFFEC   4 778   17444  CP,R4
  17484  00000FBE  00000001 USING  ORDINARY    00000000 00001000 FFFFFFFA   4 000          @R4,4
  17559  00000FEA  00000001 USING  ORDINARY    00000020 00001000 FFFFFFDE   5 000   17564  TCB,R5
  17574  00000FEE  00000001 USING  ORDINARY    00000040 00001000 FFFFFFDC   4 01C   17699  RB,R4
  17829  0000108C  00000001 USING  ORDINARY    00000000 00001000 FFFFFFFA   4 000          @R4,4
  17835  0000108C  00000001 USING  ORDINARY    00000000 00001000 FFFFFFF9   5 000          @R5,5
  17846  00001090  00000001 USING  ORDINARY    00000000 00001000 FFFFFFF8   6 000          @R6,6
  17852  00001090  00000001 USING  ORDINARY    00000000 00001000 FFFFFFF7   7 000          @R7,7
  17871  00001090  00000001 USING  ORDINARY    00001090 00001000 00000001  15 2C8   17888  WMONSTAE,R15
  17908  0000109C  00000001 USING  ORDINARY    00000000 00001000 FFFFFFEF  15 000   18724  @R15,15
  17919  0000109E  00000001 USING  ORDINARY    00000000 00001000 FFFFFFDB   6 088   17971  SDWA,R6
  17936  000010A2  00000001 USING  ORDINARY    000010A2 00001000 00000001   7 296   17951  $$$158B,7
  17959  000010B0  00000001 USING  ORDINARY    00000128 00001000 00000001   4 054   17967  MVT,R4
  17992  000010CE  00000001 USING  ORDINARY    00000000 00001000 FFFFFFFA   4 000          @R4,4
  17999  000010CE  00000001 USING  ORDINARY    00000000 00001000 FFFFFFF8   6 000          @R6,6
  18005  000010CE  00000001 USING  ORDINARY    00000000 00001000 FFFFFFF7   7 000          @R7,7
  18031  000010D0  00000001 USING  ORDINARY    000010D0 00001000 00000001   7 338   18414  $$$159B,7
  18151  0000113A  00000001 USING  ORDINARY    00000000 00001000 FFFFFFE7   6 0A4   18283  PFCB,R6
  18310  000011B8  00000001 USING  ORDINARY    00000000 00001000 FFFFFFF8   6 007   18821  @R6,6
  18421  00001218  00000001 USING  ORDINARY    00000000 00001000 FFFFFFF7   7 000          @R7,7
  18511  000014B0  00000001 USING  ORDINARY    00000000 00001000 FFFFFFEC  11 778   19085  CP,CPR
  18553  000014CA  00000001 USING  ORDINARY    000014CA 00001000 00000001   7 456   18577  $$$176B,7
  18584  000014DA  00000001 USING  ORDINARY    00000000 00001000 FFFFFFF7   7 000          @R7,7
  18666  00001502  00000001 USING  ORDINARY    00001502 00001000 00000001   7 45A   18840  $$$179B,7
  18680  00001502  00000001 USING  ORDINARY    FFFFFFD8 00001000 FFFFFFD0   8 068   18836  LEVWA-(4+36),R8
  18853  000015EC  00000001 USING  ORDINARY    00000000 00001000 FFFFFFF6   8 000          @R8,8
  18858  000015EC  00000001 USING  ORDINARY    00000000 00001000 FFFFFFF7   7 000          @R7,7
  18908  00001614  00000001 USING  ORDINARY    00001614 00001000 00000001   7 378   19088  $$$185B,7
  19098  00001684  00000001 USING  ORDINARY    00000000 00001000 FFFFFFF7   7 000          @R7,7
  19151  000016AC  00000001 USING  ORDINARY    000016AC 00001000 00000001   7 2D0   19184  $$$191B,7
  19195  000016DE  00000001 USING  ORDINARY    00000000 00001000 FFFFFFF7   7 000          @R7,7
  19248  00001706  00000001 USING  ORDINARY    00001706 00001000 00000001   7 27A   19299  $$$194B,7
  19356  0000174A  00000001 USING  ORDINARY    00000000 00001000 FFFFFFF7   7 000          @R7,7
  19415  00001772  00000001 USING  ORDINARY    00001772 00001000 00000001   7 212   19541  $$$199B,7
  19553  000017F0  00000001 USING  ORDINARY    00000000 00001000 FFFFFFF7   7 000          @R7,7
  19616  00001818  00000001 USING  ORDINARY    00001818 00001000 00000001   7 170   19819  $$$206B,7
  19838  0000189A  00000001 USING  ORDINARY    00000000 00001000 FFFFFFF7   7 000          @R7,7
  19891  000018C2  00000001 USING  ORDINARY    000018C2 00001000 00000001   7 06E   20026  $$$217B,7
  19911  000018C4  00000001 USING  ORDINARY    00000000 00001000 FFFFFFE6   6 038   19983  SEGCB,R6
  20058  0000190C  00000001 USING  ORDINARY    00000000 00001000 FFFFFFF8   6 000          @R6,6
  20063  0000190C  00000001 USING  ORDINARY    00000000 00001000 FFFFFFF7   7 000          @R7,7

1         (STAT2025) (12:55) (15MAR04) General Purpose Register Cross Reference                                             Page   65
- Register  References (M=modified, B=branch, U=USING, D=DROP, N=index)                      HLASM R4.0  2004/03/15 12.55
0    0(0)      982U   983D  2097   2165M  2165   2166M 12774  12802M 12851M 12877  12930M 12991M 13031M 13193  13280M
             13304M 13304  13313  13314  13615M 13774  13805M 13821M 13842  13912M 13932  14005M 14025  14098M 14118
             14188M 14208  14254M 14274  14320M 14340  14387M 14428  14499M 14533M 14558  14620M 14646M 14647M 14658
             14665M 14680  14687M 14692M 14693M 14694M 14696  14698  14701M 14702M 14703  14726M 14734  14757M 14811M
             14836  14898M 14913M 14937  14957M 15059M 15093M 15106M 15144M 15172M 15197M 15197  15236M 15249M 15307M
             15332M 15350M 15398M 15398  15416M 15441M 15466M 15466  15485M 15499M 15509M 15523M 15540M 15540  15559M
             15584M 15609M 15609  15639M 15639  15658M 15674M 15694M 15718M 15760M 15760  15778M 15794M 15814M 15856M
             15856  15875M 15900M 15900  15918M 15943M 15943  15962M 15987M 16012M 16012  16031M 16056M 16081M 16081
             16100M 16122M 16122  16140M 16165M 16165  16190M 16190  16209M 16230M 16248M 16273M 16298M 16298  16317M
             16338M 16356M 16381M 16406M 16406  16425M 16446M 16464M 16489M 16514M 16514  16533M 16554M 16572M 16597M
             16622M 16622  16647M 16647  16668M 16693M 16693  16760  16787M 16821M 16843M 16843  16865M 16890M 16908M
             16930M 16930  16945M 16963M 16981M 16999M 17024M 17049M 17049  17088M 17088  17106M 17229M 17248M 17262M
             17263M 17437M 17437  17438M 17887  18051M 18052M 18396M 18397M 18398  18536  18575M 18592M 18648  18686
             18698M 18703  18753  18760  18762  18764  18769M 18776  18778  18780  18812M 18835M 18837M 18866M 18891
             18947M 18970M 18970  18995M 18995  19077M 19077  19106M 19134  19161M 19162  19172M 19181M 19203M 19231
             19364M 19398  19455M 19455  19466  19478M 19495  19530  19534  19542  19561M 19599  19710M 19710  19711M
             19716  19786M 19786  19787M 19792  19831  19846M 19874  20071M
     1(1)      978U  2097   2160M  2161M  2167M 12774  12800M 12836  12851M 12877  12925M 12932M 12986M 12993M 13031M
             13193  13279M 13300M 13313N 13314N 13316N 13615M 13774  13804M 13821M 13842  13912M 13932  14005M 14025
             14098M 14118  14188M 14208  14254M 14274  14320M 14340  14387M 14428  14498M 14498  14499M 14533M 14558
             14619M 14645M 14647  14697  14698M 14699  14708  14725M 14725  14726M 14734  14755M 14791  14811M 14836
             14897M 14908M 14915M 14937  14957M 15058M 15092M 15106M 15143M 15167M 15235M 15249M 15306M 15325M 15349M
             15415M 15434M 15484M 15508M 15558M 15577M 15657M 15673M 15693M 15717M 15777M 15793M 15813M 15874M 15896M
             15917M 15961M 15980M 16030M 16049M 16099M 16118M 16139M 16208M 16247M 16266M 16316M 16355M 16374M 16424M
             16463M 16482M 16532M 16571M 16590M 16667M 16760  16786M 16820M 16839M 16864M 16883M 16907M 16926M 16945M
             16998M 17017M 17105M 17228M 17228  17237M 17249M 17249  17260M 17418M 17419M 17419  17438M 17441  17443M
             17470  17911  17971M 17978  18049M 18385M 18395M 18398M 18536  18571M 18592M 18648  18704  18753  18761
             18769M 18777  18811M 18836M 18837  18866M 18891  18946M 18966M 19106M 19134  19177  19178  19186  19187
             19203M 19231  19259M 19268M 19268  19282M 19291M 19291  19364M 19398  19535  19561M 19599  19715M 19791M
             19831  19846M 19874  20071M
     2(2)      974U  2097  12774  12851M 12877  13031M 13193  13615M 13774  13821M 13842  13912M 13932  14005M 14025
             14098M 14118  14188M 14208  14254M 14274  14320M 14340  14387M 14428  14533M 14558  14811M 14836  14957M
             16728M 16737M 16737  16760  16762M 16763M 16764  16766M 16883  16945M 17017  17219M 17220M 17221B 17292M
             17293M 17293  17294M 17444M 17445M 17454M 17454  17464M 17464  17469M 17470M 17472M 17611M 17660M 17669M
             17669  17699M 17700M 17719  17733  17783M 17784M 17785M 17786M 18113M 18113  18114M 18193M 18193  18194M
             18219M 18223M 18224M 18225M 18226M 18230M 18230  18246M 18536  18592M 18648  18729M 18736M 18759M 18763M
             18775M 18779M 18824M 18828M 18866M 18891  18960M 18966  19011M 19011  19106M 19134  19203M 19231  19364M
             19398  19494M 19495M 19498M 19510  19517M 19518  19519M 19520  19529M 19533M 19537M 19538M 19541M 19542M
             19543  19561M 19599  19638  19644M 19663M 19687  19701  19714M 19715  19716M 19728  19734M 19763  19777
             19790M 19791  19792M 19804  19810M 19831  19846M 19874  20071M
     3(3)      970U  2097  12774  12851M 12877  13031M 13193  13615M 13774  13821M 13842  13912M 13932  14005M 14025
             14098M 14118  14188M 14208  14254M 14274  14320M 14340  14387M 14428  14533M 14558  14811M 14836  14957M
             16760  16764M 16765M 16775M 16775  16945M 18057M 18060M 18076M 18076  18081  18086M 18088  18089M 18105M
             18105  18114M 18115  18187M 18188M 18189  18194M 18195  18219M 18221M 18225M 18226M 18246M 18266M 18266
             18271  18536  18592M 18648  18730M 18736M 18760M 18763M 18776M 18779M 18825M 18827  18828M 18866M 18891
             19106M 19134  19203M 19231  19364M 19398  19488M 19489M 19490  19499M 19500M 19510  19516M 19521  19522
             19534M 19536  19537M 19561M 19599  19846M 19874  20071M
     4(4)      966U  2097  12774  12851M 12877  13031M 13193  13615M 13774  13821M 13842  13912M 13932  14005M 14025
             14098M 14118  14188M 14208  14254M 14274  14320M 14340  14387M 14428  14533M 14558  14811M 14836  14957M
             16707M 17069M 17360M 17377M 17377  17396U 17484U 17564M 17574U 17618M 17619M 17629  17829U 17951M 17959U
             17992U 18189M 18239M 18239  18246  18536  18592M 18648  18734M 18734  18736M 18761M 18763M 18777M 18779M
             18826M 18828M 18866M 18891  19106M 19134  19203M 19231  19364M 19398  19535M 19537M 19561M 19599  19846M
             19874  20071M
     5(5)      962U  2097  12774  12851M 12877  12953M 12963U 13018U 13031M 13193  13247M 13255U 13615M 13774  13821M
             13842  13912M 13932  14005M 14025  14098M 14118  14188M 14208  14254M 14274  14320M 14340  14387M 14400U
1         (STAT2025) (12:55) (15MAR04) General Purpose Register Cross Reference                                             Page   66
             14428  14533M 14558  14811M 14836  14957M 16708M 16722  16762  16962  17068M 17332M 17333M 17333  17354U
             17367U 17549M 17559U 17629  17835U 17922M 17984B 18536  18592M 18648  18735M 18736M 18762M 18763M 18778M
             18779M 18827M 18828M 18866M 18891  19106M 19134  19203M 19231  19364M 19398  19536M 19537M 19561M 19599
             19846M 19874  20071M
     6(6)      958U  2097  12774  12851M 12877  13031M 13193  13229M 13237U 13615M 13774  13821M 13842  13912M 13932
             14005M 14025  14098M 14118  14188M 14208  14254M 14274  14320M 14340  14387M 14407U 14428  14454M 14464U
             14520U 14533M 14558  14584M 14594U 14798U 14811M 14836  14862M 14872U 14944U 14957M 15020M 15028U 17127U
             17174M 17182U 17846U 17911M 17919U 17999U 18123M 18124M 18124  18151U 18283M 18299  18310U 18536  18592M
             18648  18728M 18729  18740M 18743M 18746M 18759  18764M 18767M 18775  18780M 18783M 18789M 18792M 18821M
             18824  18829M 18832M 18835  18866M 18891  19106M 19134  19203M 19231  19364M 19398  19561M 19599  19846M
             19874  19901M 19911U 20058U 20071M
     7(7)      954U  2090M  2090   2091B  2097   2103B 12774  12779M 12791U 12843U 12851M 12877  12882M 12894U 13023U
             13031M 13193  13199M 13211U 13607U 13615M 13774  13779M 13791U 13813U 13821M 13842  13847M 13859U 13904U
             13912M 13932  13937M 13949U 13997U 14005M 14025  14030M 14042U 14090U 14098M 14118  14123M 14135U 14180U
             14188M 14208  14213M 14225U 14246U 14254M 14274  14279M 14291U 14312U 14320M 14340  14345M 14357U 14379U
             14387M 14428  14433M 14445U 14525U 14533M 14558  14563M 14575U 14803U 14811M 14836  14841M 14853U 14949U
             14957M 15008M 15018U 17133U 17150M 17160U 17852U 17926M 17936U 18005U 18021M 18031U 18421U 18536  18541M
             18553U 18584U 18592M 18648  18654M 18666U 18858U 18866M 18891  18896M 18908U 19098U 19106M 19134  19139M
             19151U 19195U 19203M 19231  19236M 19248U 19356U 19364M 19398  19403M 19415U 19553U 19561M 19599  19604M
             19616U 19838U 19846M 19874  19879M 19891U 20063U 20071M
     8(8)      950U  2097  12774  12775M 12847  12851M 12877  12878M 13027  13031M 13193  13195M 13225U 13602U 13611
             13615M 13774  13775M 13817  13821M 13842  13843M 13908  13912M 13932  13933M 14001  14005M 14025  14026M
             14094  14098M 14118  14119M 14184  14188M 14208  14209M 14250  14254M 14274  14275M 14316  14320M 14340
             14341M 14383  14387M 14428  14429M 14529  14533M 14558  14559M 14807  14811M 14836  14837M 14953  14957M
             15007M 17170M 17170  17947M 17947  18041M 18041  18536  18537M 18588  18592M 18648  18650M 18680U 18853U
             18862  18866M 18891  18892M 19102  19106M 19134  19135M 19199  19203M 19231  19232M 19360  19364M 19398
             19399M 19557  19561M 19599  19600M 19831  19842  19846M 19874  19875M 20067  20071M
     9(9)      946U  2097
    10(A)      942U  2097
    11(B)      938U  1161U  2097   7464B  7465B 17145U 17166M 17166  17943M 17943  18037M 18037  18511U
    12(C)      934U  1170U  2097  17162M 17939M 18033M
    13(D)      930U  2097  12771  12774  12775  12776M 12776  12847M 12851  12853  12874  12877  12878  12879M 12879
             13027M 13031  13033  13190  13193  13195  13196M 13196  13308  13309  13310  13312M 13312  13325M 13326
             13327  13328  13611M 13615  13617  13771  13774  13775  13776M 13776  13817M 13821  13823  13839  13842
             13843  13844M 13844  13908M 13912  13914  13929  13932  13933  13934M 13934  14001M 14005  14007  14022
             14025  14026  14027M 14027  14094M 14098  14100  14115  14118  14119  14120M 14120  14184M 14188  14190
             14205  14208  14209  14210M 14210  14250M 14254  14256  14271  14274  14275  14276M 14276  14316M 14320
             14322  14337  14340  14341  14342M 14342  14383M 14387  14389  14425  14428  14429  14430M 14430  14529M
             14533  14535  14555  14558  14559  14560M 14560  14807M 14811  14813  14833  14836  14837  14838M 14838
             14953M 14957  14959  15007  15108  15109M 15109  15251  15252M 15252  16760  16761M 16761  16944M 16945
             17172M 17172  17949M 17949  18043M 18043  18533  18536  18537  18538M 18538  18588M 18592  18594  18645
             18648  18650  18651M 18651  18862M 18866  18868  18888  18891  18892  18893M 18893  19102M 19106  19108
             19131  19134  19135  19136M 19136  19199M 19203  19205  19228  19231  19232  19233M 19233  19360M 19364
             19366  19395  19398  19399  19400M 19400  19557M 19561  19563  19596  19599  19600  19601M 19601  19842M
             19846  19848  19871  19874  19875  19876M 19876  20067M 20071  20073
    14(E)      926U  2097   2098M  2112   2113M  2114B  2116M  2117B  2137M  2138B  2142M  2143B  2145M  2146B  2148M
              2149B  2151M  2152B  2154M  2155M  2155B  2161  12771  12853M 12856B 12874  13033M 13036B 13190  13291M
             13292M 13292B 13307M 13308  13309  13310  13315M 13316  13319M 13320M 13320B 13323M 13326  13327  13328
             13333M 13334M 13334B 13534M 13535M 13535B 13561M 13562M 13562B 13588M 13589M 13589B 13617M 13620B 13771
             13823M 13826B 13839  13886M 13887M 13887B 13914M 13917B 13929  13976M 13977M 13977B 14007M 14010B 14022
             14069M 14070M 14070B 14100M 14103B 14115  14162M 14163M 14163B 14190M 14193B 14205  14256M 14259B 14271
             14322M 14325B 14337  14389M 14392B 14425  14492M 14499M 14535M 14538B 14555  14706M 14707M 14707B 14719M
             14726M 14732M 14733M 14733B 14813M 14816B 14833  14935M 14936M 14936B 14959M 14962B 15033M 15034M 15034B
             15070M 15071M 15071B 15104M 15105M 15105B 15112M 15113M 15113B 15136M 15137M 15137B 15155M 15156M 15156B
             15183M 15184M 15184B 15208M 15209M 15209B 15247M 15248M 15248B 15255M 15256M 15256B 15279M 15280M 15280B
             15318M 15319M 15319B 15343M 15344M 15344B 15361M 15362M 15362B 15409M 15410M 15410B 15427M 15428M 15428B
             15452M 15453M 15453B 15477M 15478M 15478B 15496M 15497M 15497B 15502M 15503M 15503B 15520M 15521M 15521B
             15526M 15527M 15527B 15551M 15552M 15552B 15570M 15571M 15571B 15595M 15596M 15596B 15620M 15621M 15621B
             15650M 15651M 15651B 15669M 15670M 15670B 15745M 15746M 15746B 15771M 15772M 15772B 15789M 15790M 15790B
1         (STAT2025) (12:55) (15MAR04) General Purpose Register Cross Reference                                             Page   67
             15841M 15842M 15842B 15867M 15868M 15868B 15886M 15887M 15887B 15911M 15912M 15912B 15929M 15930M 15930B
             15954M 15955M 15955B 15973M 15974M 15974B 15998M 15999M 15999B 16023M 16024M 16024B 16042M 16043M 16043B
             16067M 16068M 16068B 16092M 16093M 16093B 16111M 16112M 16112B 16133M 16134M 16134B 16151M 16152M 16152B
             16176M 16177M 16177B 16201M 16202M 16202B 16220M 16221M 16221B 16241M 16242M 16242B 16259M 16260M 16260B
             16284M 16285M 16285B 16309M 16310M 16310B 16328M 16329M 16329B 16349M 16350M 16350B 16367M 16368M 16368B
             16392M 16393M 16393B 16417M 16418M 16418B 16436M 16437M 16437B 16457M 16458M 16458B 16475M 16476M 16476B
             16500M 16501M 16501B 16525M 16526M 16526B 16544M 16545M 16545B 16565M 16566M 16566B 16583M 16584M 16584B
             16608M 16609M 16609B 16633M 16634M 16634B 16658M 16659M 16659B 16679M 16680M 16680B 16704M 16705M 16705B
             16798M 16799M 16799B 16832M 16833M 16833B 16854M 16855M 16855B 16876M 16877M 16877B 16901M 16902M 16902B
             16919M 16920M 16920B 16941M 16942M 16942B 16966M 16967M 16967B 16992M 16993M 16993B 17010M 17011M 17011B
             17035M 17036M 17036B 17060M 17061M 17061B 17099M 17100M 17100B 17117M 17118M 17118B 17897B 17922  18533
             18577M 18594M 18597B 18645  18751M 18752M 18752B 18757M 18758M 18758B 18773M 18774M 18774B 18815M 18816M
             18816B 18840M 18841M 18841B 18868M 18871B 18888  18935M 18936M 18936B 18958M 18959M 18959B 18981M 18982M
             18982B 19006M 19007M 19007B 19014M 19015M 19015B 19054M 19055M 19055B 19058M 19059M 19059B 19088M 19089M
             19089B 19108M 19111B 19131  19175M 19176M 19176B 19184M 19185M 19185B 19205M 19208B 19228  19276M 19277M
             19277B 19299M 19300M 19300B 19366M 19369B 19395  19563M 19566B 19596  19848M 19851B 19871  20073M 20076B
    15(F)      922U  2097   7926M  7926  12811M 12812  12855M 12855  13035M 13035  13288M 13329M 13329  13619M 13619
             13825M 13825  13916M 13916  14009M 14009  14102M 14102  14192M 14192  14258M 14258  14324M 14324  14391M
             14391  14497M 14499M 14537M 14537  14724M 14726M 14766M 14767  14815M 14815  14961M 14961  15067M 15101M
             15108M 15133M 15152M 15180M 15205M 15244M 15251M 15276M 15315M 15340M 15358M 15406M 15424M 15449M 15474M
             15493M 15498M 15517M 15522M 15548M 15567M 15592M 15617M 15647M 15666M 15742M 15768M 15786M 15838M 15864M
             15883M 15888M 15889M 15890M 15896  15908M 15926M 15951M 15970M 15995M 16020M 16039M 16064M 16089M 16108M
             16130M 16148M 16173M 16198M 16217M 16238M 16256M 16281M 16306M 16325M 16346M 16364M 16389M 16414M 16433M
             16454M 16472M 16497M 16522M 16541M 16562M 16580M 16605M 16630M 16655M 16676M 16701M 16795M 16829M 16851M
             16873M 16898M 16916M 16938M 16962M 16989M 17007M 17032M 17057M 17096M 17114M 17261M 17261  17269M 17270M
             17271  17300M 17301M 17302  17510M 17511M 17512  17532M 17533M 17534  17607M 17608M 17609  17757M 17758M
             17759  17787M 17788M 17789  17813M 17814M 17815  17871U 17896M 17896  17908U 17983M 17983  18050M 18050
             18058M 18059M 18060  18087M 18089  18370M 18371M 18404  18562M 18596M 18596  18713M 18713  18719M 18754M
             18770M 18810M 18846M 18846  18870M 18870  18955M 18978M 19003M 19026M 19026  19051M 19085M 19110M 19110
             19207M 19207  19368M 19368  19565M 19565  19742M 19742  19818M 19818  19826M 19850M 19850  19901  19977M
             19978M 19979  19983M 19984M 19984  19997M 20019M 20019  20035M 20036M 20037  20046M 20046  20075M 20075

1STAT     (STAT2025) (12:55) (15MAR04) Diagnostic Cross Reference and Assembler Summary                                     Page   68
-                                                                                            HLASM R4.0  2004/03/15 12.55
0     No Statements Flagged in this Assembly
 HIGH LEVEL ASSEMBLER, 5696-234, RELEASE 4.0, PTF P72483
0SYSTEM: OS/390 02.10.00            JOBNAME: WYL#STAT    STEPNAME: ASM        PROCSTEP: (NOPROC)
0Datasets Allocated for this Assembly
  Con DDname   Dataset Name                                 Volume  Member
   P1 SYSIN    WYL.GS.WYL.WYLBUR.SOURCE                     SYSB05  STAT
   L1 SYSLIB   WYL.GS.WYL.WYLBUR.MACLIB                     SYSB05
   L2          WYL.GG.SYS.MACLIB                            SYSB05
   L3          SYS3.IS.MACLIB                               SYSB05
   L4          SYS3.MACLIB                                  SYSB02
   L5          SYS1.MACLIB                                  MVSBR9
   L6          SYS1.MODGEN                                  MVSBR9
      SYSPRINT SYS04075.T125544.RA000.WYL#STAT.PRINT.H01    SCR100
      SYSTERM  GG$SLP.WYL#STAT.JOB03565.D0000101.?

    3668K allocated to Buffer Pool,         4333K would be required for this to be an In-Storage Assembly
    1187 Primary Input Records Read        22784 Library Records Read                143 Work File Reads
       0 ASMAOPT Records Read               5474 Primary Print Records Written       170 Work File Writes
       0 Punch Records Written                 0 ADATA Records Written
0Assembly Start Time: 12.55.46 Stop Time: 12.56.02 Processor Time: 00.00.03.3291
 Return Code 000
