1                        J E S 2  J O B  L O G  --  S Y S T E M  S Y S B  --  N O D E  R L G
0
 12.57.29 JOB03576 ---- MONDAY,    15 MAR 2004 ----
 12.57.29 JOB03576  ICH70001I GG$SLP   LAST ACCESS AT 12:57:17 ON MONDAY, MARCH 15, 2004
 12.57.29 JOB03576  $HASP373 WYL#TINT STARTED - INIT 7    - CLASS B - SYS SYSB
 12.57.29 JOB03576  ***  HCMD      STEP $$QUIET
 12.57.29 JOB03576  PUR * Q OUT MUL
 12.57.29 JOB03576  JOB 5433 WYL#TINT WILL BE PURGED
 12.57.30 JOB03576  WYL#TINT.$$QUIET .         RC=Zero TapeIO=0000 DiskIO=0000 CPU=  .01s Elapsed=49.06s
 12.57.48 JOB03576  WYL#TINT.ASM     .         RC=Zero TapeIO=0000 DiskIO=0749 CPU= 4.90s Elapsed=50.11s
 12.57.51 JOB03576  WYL#TINT.EDIT    .         RC=Zero TapeIO=0000 DiskIO=0237 CPU=  .78s Elapsed=68.07s
 12.57.51 JOB03576  WYL#TINT Ended.  Name=Assemble TINT                  Total CPU= 5.69s Elapsed=49.06s
 12.57.51 JOB03576
 12.57.51 JOB03576  Execution charges   Priority=Standard   Block=Day
 12.57.51 JOB03576
 12.57.51 JOB03576  CPU Usage         105.00          $65.10   Standard Processing Unit Equivalent
 12.57.51 JOB03576                                   =======
 12.57.51 JOB03576                                    $65.10   Total Job execution charge
 12.57.51 JOB03576
 12.57.51 JOB03576  See back separator page for print charges
 12.57.51 JOB03576
 12.57.51 JOB03576  $HASP395 WYL#TINT ENDED  ASM=0, EDIT=0
1        1 //WYL#TINT JOB SLP$GG,'Assemble TINT',TIME=4,REGION=4M                  JOB03576
           //*
           /*JOBPARM LINES=99,COPIES=1
           /*JOBPARM FORMS=3HOL,PFORMAT=LAND,CHARS=BD13,DUPLEX=YES,FLASH=BAR4
           //*
           /*JOBPARM NOTIFY=GG.SLP,HOLD=OUTPUT                                     WYLGEN
         2 //$$QUIET EXEC PGM=HCMDX,PARM='PUR * Q OUT MUL'
           //*
         3 //ASM    EXEC PGM=ASMA90,REGION=8M,
           //            PARM=('NORENT,TERM,FLAG(NOCONT),US(MAP,WARN(10)),NODECK',
           //            'LC(32767),XREF(SHORT),ESD,DXREF,NOOBJECT')
         4 //STEPLIB DD DSN=SYS3.IS.TESTASM,DISP=SHR
         5 //SYSLIB   DD  DSN=WYL.GS.WYL.WYLBUR.MACLIB,DISP=SHR
         6 //         DD  DSN=WYL.GG.SYS.MACLIB,DISP=SHR
         7 //         DD  DSN=SYS3.IS.MACLIB,DISP=SHR
         8 //         DD  DSN=SYS3.MACLIB,DISP=SHR
         9 //         DD  DSN=SYS1.MACLIB,DISP=SHR
        10 //         DD  DSN=SYS1.MODGEN,DISP=SHR
        11 //SYSUT1   DD DSN=&&SYSUT1,UNIT=VIO,DISP=(,DELETE),
           //            SPACE=(4088,(500,250),,CONTIG,ROUND)
        12 //SYSTERM  DD SYSOUT=T
        13 //SYSPRINT DD DSN=&&PRINT,UNIT=SYSDA,DISP=(,PASS),
           //            SPACE=(6650,(250,250),RLSE),
           //            DCB=(BLKSIZE=6650,LRECL=133,RECFM=FB)
        14 //SYSUDUMP DD SYSOUT=A
        15 //SYSIN    DD  DSN=WYL.GS.WYL.WYLBUR.SOURCE(TINT),DISP=SHR
           //*
        16 //EDIT    EXEC PGM=ASMEDIT,TIME=2,REGION=4000K,
           //             PARM='STMT'
        17 //STEPLIB  DD  DSN=WYL.GG.SYS.LINKLIB,DISP=SHR
        18 //ASMOUT   DD  DSN=&PRINT,DISP=(OLD,DELETE)
        19 //SYSPRINT DD  SYSOUT=A
1 STMT NO. MESSAGE
 -
        11 IGD01010I STORCLAS= TEMP STORGROUP =
        11 IGD01010I STORGRP=VIO ASSIGNED.
        13 IGD01010I STORCLAS= TEMP STORGROUP =
        13 IGD01010I STORGRP=VIO ASSIGNED.
 ICH70001I GG$SLP   LAST ACCESS AT 12:57:17 ON MONDAY, MARCH 15, 2004
 IEF142I WYL#TINT $$QUIET - STEP WAS EXECUTED - COND CODE 0000
 *********************************************************************************
 *   WYL#TINT/$$QUIET /                    Return Code      Zero                 *
 *   Region used      260K (16K user + 244K system)                              *
 *   Extended region  9580K (4K user + 9576K system)                             *
 *                                                                               *
 *   Paging              In      Out                                             *
 *   Private <-> Aux      0        0       CPU time (TCB)   00:00:00.01          *
 *   Private <-> Exp      0        0       CPU time (SRB)   00:00:00.00          *
 *   VIO                  0        0       Elapsed time    917:30:23.90          *
 *   Common               0      ---                                             *
 *                                                                               *
 *                                                                               *
 *   CPU Usage          0.18         $0.11  Standard Processing Unit Equivalent  *
 *                                   $0.11  Total Step execution charge          *
 *                                                                               *
 *    I/O count  DDname   Type Addr           I/O count  DDname   Type Addr      *
 *                         *** No I/O for this step ***                          *
 *********************************************************************************
 IEF373I STEP/$$QUIET /START 2004075.1257
 IEF374I STEP/$$QUIET /STOP  2004075.1257 CPU    0MIN 00.01SEC SRB    0MIN 00.00SEC VIRT    16K SYS   244K EXT       4K SYS    9576K
 IEF236I ALLOC. FOR WYL#TINT ASM
 IEF237I 04DC ALLOCATED TO STEPLIB
 IEF237I 04DC ALLOCATED TO SYSLIB
 IEF237I 04DC ALLOCATED TO
 IEF237I 04DC ALLOCATED TO
 IEF237I 0402 ALLOCATED TO
 IEF237I 04A0 ALLOCATED TO
 IEF237I 04A0 ALLOCATED TO
 IGD101I SMS ALLOCATED TO DDNAME (SYSUT1  )
         DSN (SYS04075.T125729.RA000.WYL#TINT.SYSUT1.H01  )
         STORCLAS (TEMP) MGMTCLAS (        ) DATACLAS (        )
         VOL SER NOS= VIO
 IEF237I JES2 ALLOCATED TO SYSTERM
 IGD101I SMS ALLOCATED TO DDNAME (SYSPRINT)
         DSN (SYS04075.T125729.RA000.WYL#TINT.PRINT.H01   )
         STORCLAS (TEMP) MGMTCLAS (        ) DATACLAS (        )
         VOL SER NOS= SCR101
 IEF237I JES2 ALLOCATED TO SYSUDUMP
 IEF237I 04DC ALLOCATED TO SYSIN
 IEF142I WYL#TINT ASM - STEP WAS EXECUTED - COND CODE 0000
 IEF285I   SYS3.IS.TESTASM                              KEPT
 IEF285I   VOL SER NOS= SYSB05.
 IEF285I   WYL.GS.WYL.WYLBUR.MACLIB                     KEPT
 IEF285I   VOL SER NOS= SYSB05.
 IEF285I   WYL.GG.SYS.MACLIB                            KEPT
 IEF285I   VOL SER NOS= SYSB05.
 IEF285I   SYS3.IS.MACLIB                               KEPT
 IEF285I   VOL SER NOS= SYSB05.
 IEF285I   SYS3.MACLIB                                  KEPT
 IEF285I   VOL SER NOS= SYSB02.
 IEF285I   SYS1.MACLIB                                  KEPT
 IEF285I   VOL SER NOS= MVSBR9.
 IEF285I   SYS1.MODGEN                                  KEPT
 IEF285I   VOL SER NOS= MVSBR9.
 IGD105I SYS04075.T125729.RA000.WYL#TINT.SYSUT1.H01   DELETED,   DDNAME=SYSUT1
 IEF285I   GG$SLP.WYL#TINT.JOB03576.D0000101.?          SYSOUT
 IGD106I SYS04075.T125729.RA000.WYL#TINT.PRINT.H01    PASSED,    DDNAME=SYSPRINT
 IEF285I   GG$SLP.WYL#TINT.JOB03576.D0000102.?          SYSOUT
 IEF285I   WYL.GS.WYL.WYLBUR.SOURCE                     KEPT
 IEF285I   VOL SER NOS= SYSB05.
 *********************************************************************************
 *   WYL#TINT/ASM     /                    Return Code      Zero                 *
 *   Region used      4376K (4096K user + 280K system)                           *
 *   Extended region  10180K (412K user + 9768K system)                          *
 *                                                                               *
 *   Paging              In      Out                                             *
 *   Private <-> Aux      0        0       CPU time (TCB)   00:00:04.83          *
 *   Private <-> Exp      0        0       CPU time (SRB)   00:00:00.07          *
 *   VIO                  0        0       Elapsed time    917:30:22.85          *
 *   Common               0      ---                                             *
 *                                                                               *
 *                                                                               *
 *   CPU Usage         90.56        $56.14  Standard Processing Unit Equivalent  *
 *                                  $56.14  Total Step execution charge          *
 *                                                                               *
 *    I/O count  DDname   Type Addr           I/O count  DDname   Type Addr      *
 *           87  STEPLIB  Disk 04DC                 380  SYSLIB   Disk 04DC      *
 *            0  SYSLIB   Disk 04DC                   0  SYSLIB   Disk 04DC      *
 *            0  SYSLIB   Disk 0402                  41  SYSLIB   Disk 04A0      *
 *            0  SYSLIB   Disk 04A0                   0  SYSUT1   VIO  ----      *
 *            0  SYSTERM       ----                 234  SYSPRINT Disk 04E3      *
 *            0  SYSUDUMP      ----                   7  SYSIN    Disk 04DC      *
 *********************************************************************************
 IEF373I STEP/ASM     /START 2004075.1257
 IEF374I STEP/ASM     /STOP  2004075.1257 CPU    0MIN 04.83SEC SRB    0MIN 00.07SEC VIRT  4096K SYS   280K EXT     412K SYS    9768K
 IEF236I ALLOC. FOR WYL#TINT EDIT
 IEF237I 0402 ALLOCATED TO STEPLIB
 IGD103I SMS ALLOCATED TO DDNAME ASMOUT
 IEF237I JES2 ALLOCATED TO SYSPRINT
 IEF142I WYL#TINT EDIT - STEP WAS EXECUTED - COND CODE 0000
 IEF285I   WYL.GG.SYS.LINKLIB                           KEPT
 IEF285I   VOL SER NOS= SYSB02.
 IGD105I SYS04075.T125729.RA000.WYL#TINT.PRINT.H01    DELETED,   DDNAME=ASMOUT
 IEF285I   GG$SLP.WYL#TINT.JOB03576.D0000103.?          SYSOUT
 *********************************************************************************
 *   WYL#TINT/EDIT    /                    Return Code      Zero                 *
 *   Region used      380K (116K user + 264K system)                             *
 *   Extended region  9708K (4K user + 9704K system)                             *
 *                                                                               *
 *   Paging              In      Out                                             *
 *   Private <-> Aux      0        0       CPU time (TCB)   00:00:00.76          *
 *   Private <-> Exp      0        0       CPU time (SRB)   00:00:00.02          *
 *   VIO                  0        0       Elapsed time    917:30:04.89          *
 *   Common               0      ---                                             *
 *                                                                               *
 *                                                                               *
 *   CPU Usage         14.25         $8.83  Standard Processing Unit Equivalent  *
 *                                   $8.83  Total Step execution charge          *
 *                                                                               *
 *    I/O count  DDname   Type Addr           I/O count  DDname   Type Addr      *
 *            2  STEPLIB  Disk 0402                 235  ASMOUT   Disk 04E3      *
 *            0  SYSPRINT      ----                                              *
 *********************************************************************************
 IEF373I STEP/EDIT    /START 2004075.1257
 IEF374I STEP/EDIT    /STOP  2004075.1257 CPU    0MIN 00.76SEC SRB    0MIN 00.02SEC VIRT   116K SYS   264K EXT       4K SYS    9704K
 *********************************************************************************
 *                                                                               *
 *                      S t a n f o r d   U n i v e r s i t y                    *
 *                                                                               *
 *                              *** Job Summary ***                              *
 *                                                                               *
 *   System Id      SYSB                   Input time     12:39:37  Mar 15, 2004 *
 *                                                                               *
 *   System Release SP6.1.0                Start time     12:57:29  Mar 15, 2004 *
 *                                                                               *
 *   Job name       WYL#TINT               Stop  time     00:00:00  Mar 15, 2004 *
 *                                                                               *
 *   Account        SLP$GG                 Elapsed time  917:30:23.90            *
 *                                                                               *
 *   User Name      Assemble TINT          CPU time       00:00:05.60            *
 *                                                                               *
 *   Job class      B                      SRB Time       00:00:00.09            *
 *                                                                               *
 *********************************************************************************
 IEF375I  JOB/WYL#TINT/START 2004075.1257
 IEF376I  JOB/WYL#TINT/STOP  2004075.1257 CPU    0MIN 05.60SEC SRB    0MIN 00.09SEC
1Assembler Done TINT No Statements Flagged
1         High Level Assembler Option Summary                   (PTF P72483 )                                               Page    1
-                                                                                            HLASM R4.0  2004/03/15 12.57
0  No Overriding ASMAOPT Parameters
   Overriding Parameters-  NORENT,TERM,FLAG(NOCONT),US(MAP,WARN(10)),NODECK,LC(32767),XREF(SHORT),ESD,DXREF,NOOBJECT
   No Process Statements


   Options for this Assembly
0  NOADATA
     ALIGN
   NOASA
     BATCH
     CODEPAGE(047C)
   NOCOMPAT
   NODBCS
 3 NODECK
 3   DXREF
 3   ESD
   NOEXIT
 3   FLAG(0,ALIGN,NOCONT,NOIMPLEN,NOPAGE0,PUSH,RECORD,NOSUBSTR,USING0)
   NOFOLD
   NOGOFF
   NOINFO
     LANGUAGE(EN)
   NOLIBMAC
 3   LINECOUNT(32767)
     LIST(121)
     MXREF(SOURCE)
 3 NOOBJECT
     OPTABLE(UNI,NOLIST)
   NOPCONTROL
   NOPESTOP
   NOPROFILE
   NORA2
 3 NORENT
     RLD
     RXREF
     SIZE(MAX)
     SYSPARM()
 3   TERM(WIDE)
   NOTEST
     THREAD
   NOTRANSLATE
 3   USING(NOLIMIT,MAP,WARN(10))
 3   XREF(SHORT)

   No Overriding DD Names

1TINT     External Symbol Dictionary                                                                                        Page    2
-Symbol   Type   Id     Address  Length     LD ID  Flags Alias-of                            HLASM R4.0  2004/03/15 12.57
0WYLTINT   SD 00000001 00000000 00002F58             00
 TINT2047  LD          00000000           00000001
 LOGSESS   LD          00000018           00000001
 SHOWSYS   LD          00000138           00000001
 SYSCHECK  LD          0000027E           00000001
 SEGCLR    ER 00000002
 SEGB      ER 00000003
 SEG       ER 00000004
 LINEDISP  ER 00000005
 COLLOPTS  ER 00000006
 TCNTL     ER 00000007
 LOCALTOD  ER 00000008
 FMTRCLCK  ER 00000009
 SEGDC     ER 0000000A
 SEGWR     ER 0000000B
 SYSGTSSB  LD          00000358           00000001
 SHOWNET   LD          000003F4           00000001
 MTOKEN    ER 0000000C
 GETRPSH   ER 0000000D
 SHOWMDEV  LD          00000750           00000001
 SHOWPORT  LD          00000916           00000001
 GETTRNG   ER 0000000E
 TRANGE    ER 0000000F
 BTX       ER 00000010
 NETPDISP  ER 00000011
 SEGINIT   ER 00000012
 FMTTIME   ER 00000013
 SEGCR     ER 00000014
 NSCAN     ER 00000015
 SCANCHK   ER 00000016
 XTB       ER 00000017
 SEGHX     ER 00000018
 SEGT      ER 00000019
 PORTDISP  ER 0000001A
 MOPEN     LD          00000CF4           00000001
 MCLOSE    LD          00000E38           00000001
 START     LD          00000F9E           00000001
 STOP      LD          00001206           00000001
 MILERR    ER 0000001B
 SEGTB     ER 0000001C
 YESREQ    ER 0000001D
 LRTRIM    ER 0000001E
 CMDFIN    ER 0000001F
 SETOPER   LD          00001632           00000001
 BROADCAS  LD          00001744           00000001
 KILL      LD          00001A94           00000001
 ORVCPASS  ER 00000020
 TASWRITE  ER 00000021
 BTD       ER 00000022
 CHKKW     ER 00000023
 WAITER    ER 00000024
 HEXFMT    ER 00000025
 MIXFMT    ER 00000026
 CHARFMT   ER 00000027

1TINT     WYLBUR's Terminal Internal Commands                                                                               Page    3
0Loc    Object Code    Addr1 Addr2  Stmt Lv Lineno    Source Statement                    (Asmedit 3.3)  HLASM R4.0  2004/03/15 12.57
+___    ______ ____    _____ _____  ____ __ ______    ______ _________
0                                      2              *******************************************************************
                                       3              *                                                                 *
                                       4              *     WYLBUR/370 - Release VI - Class I - Stanford Proprietary    *
                                       5              *                                                                 *
                                       6              *******************************************************************
                                       7                       HIBAL
                                     988
 000000                00000 02F58   989              WYLTINT  CSECT
                                     993              TINT     IDENT 2047                09:48:52 02/16/02  (SLP)
                                     996             +
                                     997    01-IDENT +         ENTRY TINT2047
                                     998             +
 000000 16E3C9D5E3F2F0F4             999    01-IDENT +TINT2047 DC    AL1(22),C'TINT2047,15MAR04,12:57'
                                    1000             +*
                                    1002                       REGS  FSR,,,,,,,BR,(WAR,LSR),PAR,PBR,CPR,CVR,SPR,RAR
-                                   1139                       SYSDEFN ,                 Define installation params
                                    1140                       GBLB  &PORTINF            (See SYSDEFN)
                                    1141
                                    1142                       PUSH  DSECTS
 USING  CP,R11                      1153             =         USING (CP),(CV)
 USING  CV,R12
 000017                00000 02F58  1172             =         POP   PRINT
 000000                00000 000FC  6586                       RECORD 'MIB'
 000000                             6597  1 03-MIB   +MIBSTART   DS    0D
 000000 D4C9D3E3C5D54040            6598  1 03-MIB   +MIBNAME    DC    CL8'MILTEN'         name (MILTEN/TESTMIL)
 000008 0000000000000000            6599  1 03-MIB   +MIBJOBNM   DC    XL8'00'             jobname
 000010 0000000000000000            6600  1 03-MIB   +MIBVERS    DC    XL80'00'            version text
                                    6601  1          +
 000060 00000000                    6602  1 03-MIB   +MIBCLCK    DC    F'0'                clock at start
 000064 00                          6603  1          +*
 MIBFLAG.MIBFSTOP  80 ONES
 000065 00                          6613  1 03-MIB   +           DC    X'00'               reserved
                                    6614  1          +
 000066 0000                              1          +
 000068 00000000                    6615  1 03-MIB   +MIBNIO     DC    F'0'                no. of I/O's
 00006C 00000000                    6616  1 03-MIB   +MIBNAPP    DC    F'0'                no. of appendage entries
                                    6617  1          +
 000070 00000000                    6618  1 03-MIB   +MIBTLSES   DC    F'0'                total no. of sessions
 000074 0000                        6619  1 03-MIB   +MIBCRSES   DC    H'0'                current no. of logged on users
 000076 0000                        6620  1 03-MIB   +MIBMXSES   DC    H'0'                maximum no. of logged on users
 000078 00000000                    6621  1 03-MIB   +MIBCKSES   DC    F'0'                clock at max users
                                    6622  1          +
 00007C 0000                        6623  1 03-MIB   +MIBNHIOT   DC    H'0'                No. of HALTIO subtasks
 00007E 0000                        6624  1 03-MIB   +MIBNFULQ   DC    H'0'                no. of subsys full-queues
                                    6625  1          +
 000080 0000                        6626  1 03-MIB   +MIBHQCUR   DC    H'0'                Current HALTIO queue depth
 000082 0000                        6627  1 03-MIB   +MIBHQMAX   DC    H'0'                Maximum HALTIO queue depth
 000084 0000                        6628  1 03-MIB   +MIBHQDEV   DC    H'0'                Current HALTIO unit address
                                    6629  1          +
 000086 0000                        6630  1 03-MIB   +MIBCRVIR   DC    H'0'                current no. of virtual front-ends
                                    6631  1          +
 000088 0000                        6632  1 03-MIB   +MIBNFAIL   DC    H'0'                no. of failsofts
 00008A 0000                        6633  1 03-MIB   +MIBNAPPF   DC    H'0'                no. of appendage failsofts
 00008C 00000000                    6634  1 03-MIB   +MIBFCLCK   DC    F'0'                clock at failsoft
1TINT     (TINT2047) (12:57) (15MAR04) WYLBUR's Terminal Internal Commands                                                  Page    4
0Current Usings:  (CP,R11) (CV,R12)
0Loc    Object Code    Addr1 Addr2  Stmt Lv Lineno    Source Statement           (Hibal 5, Asmedit 3.3)  HLASM R4.0  2004/03/15 12.57
+___    ______ ____    _____ _____  ____ __ ______    ______ _________
0000090 0000000000000000            6635  1 03-MIB   +MIBFINFO   DC    XL64'00'            failsoft text
                                    6636  1          +
 0000D0 00000000                    6637  1 03-MIB   +MIBNLOWM   DC    F'0'                no. of low memory conditions
 0000D4 00000000                    6638  1 03-MIB   +MIBNNOM    DC    F'0'                no. of no memory conditions
                                    6639  1          +
 0000D8 00000000                    6640  1 03-MIB   +MIBFXCNT   DC    F'0'                no. of getfix requests
 0000DC 00000000                    6641  1 03-MIB   +MIBFXCUR   DC    F'0'                current fixed core usage
 0000E0 00000000                    6642  1 03-MIB   +MIBFXMAX   DC    F'0'                maximum fixed core usage
                                    6643  1          +
 0000E4 00000000                    6644  1 03-MIB   +MIBPGCNT   DC    F'0'                no. of getcore requests
 0000E8 00000000                    6645  1 03-MIB   +MIBPGCUR   DC    F'0'                current paged core usage
 0000EC 00000000                    6646  1 03-MIB   +MIBPGMAX   DC    F'0'                maximum paged core usage
                                    6647  1          +
 0000F0 00000000                    6648  1 03-MIB   +MIBCSCNT   DC    F'0'                no. of CSA getmains
 0000F4 00000000                    6649  1 03-MIB   +MIBCSCUR   DC    F'0'                current CSA core usage
 0000F8 00000000                    6650  1 03-MIB   +MIBCSMAX   DC    F'0'                maximum CSA core usage
 0000FC                000FC 000FC  6651    03-MIB   +MIB      EQU   MIBSTART,*-MIBSTART,C'X'
                                    6661
 000000                00000 00012  6662              RQST     RECORD 'RQST'
 000000                             6672  1 03-RQST  +RQSTLEN    DS    H                   TOTAL LENGTH      (SUZAN RDW)
 000002                             6673  1 03-RQST  +           DS    H                   RESERVED          (SUZAN RDW)
                                    6674  1          +
 000004                             6675  1 03-RQST  +RQSTRSV    DS    H                   RESERVED (MUST BE ZERO)
 000006                             6676  1 03-RQST  +RQSTPNO    DS    H                   PORT NUMBER
                                    6677  1          +
 000008                             6678  1 03-RQST  +RQSTCMD    DS    X                   COMMAND CODE (SEE "PDBCMD")
 000009                             6679  1 03-RQST  +RQSTCMFL    DS   X                   COMMAND FLAGS
                                    6680  1          +
 00000A                             6681  1 03-RQST  +RQSTMODB    DS   X                   PDBMODB
 00000B                             6682  1 03-RQST  +RQSTMODC    DS   X                   PDBMODC
                                    6683  1          +
 00000C                             6684  1 03-RQST  +RQSTCPL    DS    0XL2                COMPLETION FLAGS
 00000C                             6685  1 03-RQST  +RQSTCPLA    DS   X                   .A  (SEE "PDBCPLA")
 00000D                             6686  1 03-RQST  +RQSTCPLB    DS   X                   .B  (SEE "PDBCPLB")
                                    6687  1          +
 00000E                             6688  1 03-RQST  +RQSTOUCT    DS   H                   OUTPUT COUNT (FROM MILTEN)
 000010                             6689  1 03-RQST  +RQSTINCT    DS   H                   INPUT COUNT
                                    6690  1          +
                                    6691  1 03-RQST  +RQSTOPT    EQU   RQSTCMFL,*-RQSTCMFL,C'X'
                                    6692  1 03-RQST  +RQSTDATA    EQU  RQSTRSV,*-RQSTRSV,C'X'
                                    6693  1 03-RQST  +RQSTHDR    EQU   RQSTLEN,*-RQSTLEN,C'X'
                                    6694  1          +
 000012                00012 00012  6695    03-RQST  +RQSTTEXT  DS   0X
                                    6705
 000000                00000 00038  6706              PDB      RECORD 'PDB'
                                    6716+ 1          +           ¿þþþþþþþþþþþþþþþþþþþþþþÜ
                                    6717+ 1          +           Ÿ  Passed Data Buffer  Ÿ
                                    6718+ 1          +           ¾þþþþþþþþþþþþþþþþþþþþþþ»
 000000                             6719  1 03-PDB   +PDBSTRT    DC    0F'0'
 000000 0000                        6720  1 03-PDB   +PDBLENG    DC    H'0'                (Suzan RDW) Total PDB length
 000002 0000                        6721  1 03-PDB   +           DC    XL2'00'             (Suzan RDW)
                                    6722  1          +
 000004                             6723  1 03-PDB   +PDBDATA    DC    0F'0'               Start of PDB data
                                    6724  1          +
1TINT     (TINT2047) (12:57) (15MAR04) WYLBUR's Terminal Internal Commands                                                  Page    5
0Current Usings:  (CP,R11) (CV,R12)
0Loc    Object Code    Addr1 Addr2  Stmt Lv Lineno    Source Statement           (Hibal 5, Asmedit 3.3)  HLASM R4.0  2004/03/15 12.57
+___    ______ ____    _____ _____  ____ __ ______    ______ _________
0000004 0000                        6725  1 03-PDB   +PDBLIN#    DC    H'0'                Session number
 000006 00                          6726  1 03-PDB   +PDBCMD     DC    X'00'               Command code
 000007 00                          6727  1 03-PDB   +PDBCMDFL   DC    X'00'               Command code modifier flags
                                    6728  1          +
 000008                             6729  1 03-PDB   +PDBMOD     DS    0XL4                Mode flags
 000008 00                          6730  1 03-PDB   +PDBMODA    DC    X'00'               .a  (see moda)
 000009 00                          6731  1 03-PDB   +PDBMODB    DC    X'00'               .b  (see modb)
 00000A 00                          6732  1 03-PDB   +PDBMODC    DC    X'00'               .c  (see modc)
 00000B 00                          6733  1 03-PDB   +PDBMODD    DC    X'00'               .d  (see modd)
                                    6734  1          +
 00000C                             6735  1 03-PDB   +PDBCPL     DS    0XL2                Completion flags
 00000C 00                          6736  1 03-PDB   +PDBCPLA    DC    X'00'               .a  (see cpla)
 00000D 00                          6737  1 03-PDB   +PDBCPLB    DC    X'00'               .b  (see cplb)
                                    6738  1          +
 00000E 00                          6739  1 03-PDB   +PDBBYT1    DC    X'00'               Byte 1: used by control PDB
 00000F 00                          6740  1 03-PDB   +PDBBYT2    DC    X'00'               Byte 2: used by control PDB
                                    6741  1          +
 000010 00000000                    6742  1 03-PDB   +PDBSINP    DC    A(0)                Session info ptr (in CSA)
                                    6743  1 03-PDB   +PDBAWID    EQU   PDBSINP,4,C'F'      Session id for async write
                                    6744  1          +
 000014 4040404040404040            6745  1 03-PDB   +PDBVPGM    DC    CL8' '              ORVYL program name
 00001C 00000000                    6746  1 03-PDB   +PDBVCPU    DC    F'0'                ORVYL CPU time used
 000020 00                          6747  1 03-PDB   +PDBVFLAG   DC    X'00'               ORVYL flags
                                    6748  1 03-PDB   +PDBVFRUN   EQU   X'80'               - Program is running (not paused)
                                    6749  1 03-PDB   +PDBVFATH   EQU   X'40'               - Program is authorized
 000021 000000                      6750  1 03-PDB   +PDBVDIO    DC    XL3'00'             ORVYL Disk I/O
                                    6751  1 03-PDB   +PDBVINFO   EQU   PDBVPGM,*-PDBVPGM,C'X'
                                    6752  1          +
 000024 4040404040404040            6753  1 03-PDB   +PDBSYSNM   DC    CL8' '              New/old subsys name (xctl, init)
                                    6754  1          +
 00002C 0000                        6755  1 03-PDB   +PDBSUC     DC    H'0'                SIB update count
 00002E 0000                        6756  1 03-PDB   +PDBOUTCT   DC    H'0'                Output text count
 000030 0000                        6757  1 03-PDB   +PDBINCT    DC    H'0'                Maximum input allowed
 000032 0000                        6758  1 03-PDB   +PDBWC      DC    H'0'                Write count
 000034 0000                        6759  1 03-PDB   +PDBPC      DC    H'0'                Prompt count
 000036 0000                        6760  1 03-PDB   +PDBRC      DC    H'0'                Read count
                                    6761  1 03-PDB   +PDBORV     EQU   PDBINCT,*-PDBINCT,C'X'  Control info for ORVYL XCTLs
                                    6762  1 03-PDB   +PDBVRCTL   EQU   X'01'               - ORVYL "read control" (SIFT)
                                    6763  1 03-PDB   +PDBOPT     EQU   PDBCMDFL,*-PDBCMDFL,C'X'  Option flags
                                    6764  1 03-PDB   +PDBHDR     EQU   PDBSTRT,*-PDBSTRT,C'X'  PDB header
 000038                             6765  1 03-PDB   +PDBTEXT    DS    0C                  Text field (variable length)
                                    6766+ 1          +           ¿þþþþþþþþþþþþþþþþþþþþþþþþþþþþÜ
                                    6767+ 1          +           Ÿ  Control PDB information.  Ÿ
                                    6768+ 1          +           ¾þþþþþþþþþþþþþþþþþþþþþþþþþþþþ»
                                    6769  1 03-PDB   +PDBCNO     EQU   PDBCMDFL,1,C'X'     Control number (to MILTEN)
                                    6770  1          +
                                    6771  1 03-PDB   +PDBCRET    EQU   PDBBYT1,1,C'X'      Return code (from MILTEN)
                                    6772  1 03-PDB   +PDBCROK    EQU   0                   - OK
                                    6773  1 03-PDB   +PDBCRPRV   EQU   4                   - Privileged
                                    6774  1 03-PDB   +PDBCRBF    EQU   8                   - Bad format
                                    6775  1 03-PDB   +PDBCRBAD   EQU   12                  - Unknown control
                                    6776  1          +
                                    6777  1 03-PDB   +PDBCMOD    EQU   PDBBYT2,1,C'X'      Rc modifier (depends on control)
                                    6778  1          +*
1TINT     (TINT2047) (12:57) (15MAR04) WYLBUR's Terminal Internal Commands                                                  Page    6
0Current Usings:  (CP,R11) (CV,R12)
0Loc    Object Code    Addr1 Addr2  Stmt Lv Lineno    Source Statement           (Hibal 5, Asmedit 3.3)  HLASM R4.0  2004/03/15 12.57
+___    ______ ____    _____ _____  ____ __ ______    ______ _________
0                                   6779  1          +*  PDB command codes:
                                    6780  1          +*
                                    6781  1          +*  global (to MILTEN)...
                                    6782  1 03-PDB   +TMILINIT   EQU   33                  Subsystem init -- PDBCMDFL flags:
                                    6783  1 03-PDB   +INITFPRV   EQU   X'80'               - Priv'd subsystem
                                    6784  1 03-PDB   +TMILMW     EQU   34                  not implemented
                                    6785  1 03-PDB   +TMILSTAT   EQU   35                  not implemented
                                    6786  1          +*
                                    6787  1          +*  Line-related, synchronous commands (to MILTEN)...
                                    6788  1 03-PDB   +TMILEOS    EQU   64                  End-of-session -- PDBCMDFL flags:
                                    6789  1 03-PDB   +EOSALL     EQU   X'40'               - logoff this subsys and send alo
                                    6790  1 03-PDB   +EOSXCTL    EQU   X'20'               - logoff this subsys and xctl
                                    6791  1 03-PDB   +TMILWRIT   EQU   65                  Terminal write
                                    6792  1 03-PDB   +TMILREAD   EQU   66                  Terminal read
                                    6793  1 03-PDB   +TMILWTO    EQU   67                  MILTEN write-to-operator
                                    6794  1 03-PDB   +TMILSENS   EQU   68                  Not implemented
                                    6795  1 03-PDB   +TMILNOP    EQU   69                  Check and respond
                                    6796  1 03-PDB   +MILAWR     EQU   70                  Asynchronous write
                                    6797  1 03-PDB   +TMILXCTL   EQU   71                  Send text to another subsys
                                    6798  1 03-PDB   +TMILACCT   EQU   72                  Session accounting data
                                    6799  1 03-PDB   +MILCNTL    EQU   73                  Control (PDBCMDFL has number)
                                    6800  1 03-PDB   +MILSOF     EQU   74                  Force logoff of user subsys's
                                    6801  1          +*  Line-related, asynchronous commands to MILTEN...
                                    6802  1 03-PDB   +TMILBRK    EQU   80                  Halt previous read
                                    6803  1          +*
                                    6804  1          +*  Command codes returned from MILTEN to subsystem...
                                    6805  1          +*
                                    6806  1          +*  Global, with (or as) response...
                                    6807  1 03-PDB   +FMILECHO   EQU   32                  Not implemented
                                    6808  1 03-PDB   +FMILINIT   EQU   33                  Subsystem initialization
                                    6809  1 03-PDB   +FMILSTAT   EQU   35                  Not implemented
                                    6810  1 03-PDB   +FMILERR    EQU   36                  Prev. cmd was bad
                                    6811  1          +*  Global, asynchronous commands from MILTEN...
                                    6812  1 03-PDB   +FMILSTOP   EQU   48                  Normal subsystem shutdown request
                                    6813  1 03-PDB   +FMILDUMP   EQU   49                  Abend-with-dump request
                                    6814  1          +*  Line-related, synchronous responses or commands from MILTEN...
                                    6815  1 03-PDB   +FMILSOS    EQU   64                  Start-of-session (line logon)
                                    6816  1 03-PDB   +FMILWRIT   EQU   65                  Response to tmilwrit
                                    6817  1 03-PDB   +FMILREAD   EQU   66                  Response to tmilread
                                    6818  1 03-PDB   +FMILXCTL   EQU   71                  Response to tmilxctl
                                    6819  1          +*  Line-related asynchronous commands from MILTEN...
                                    6820  1 03-PDB   +FMILASYN   EQU   80                  Asynchronous status in cpl flags
                                    6821  1 03-PDB   +FMILLGFI   EQU   81                  Not implemented
                                    6822  1          +*
                                    6823  1          +*  PDB mode flags (to MILTEN)
                                    6824  1          +*
                                    6825  1 03-PDB   +MODARSV1   EQU   X'80'               - Reserved
                                    6826  1 03-PDB   +MODAFMIL   EQU   X'40'               - Fake MILTEN in TXCTL (for WYLBUR)
                                    6827  1 03-PDB   +MODANMSG   EQU   X'20'               - Reject (don't allow) messages
                                    6828  1 03-PDB   +MODACL     EQU   X'10'               - Clean (don't interleave msgs)
                                    6829  1 03-PDB   +MODABUF    EQU   X'08'               - Buffered I/O (rtns mult lines)
                                    6830  1 03-PDB   +MODADRAT   EQU   X'04'               - Disallow attn on read
                                    6831  1          +
                                    6832  1 03-PDB   +MODBUPPR   EQU   X'80'               - Use upper-case-only (read)
1TINT     (TINT2047) (12:57) (15MAR04) WYLBUR's Terminal Internal Commands                                                  Page    7
0Current Usings:  (CP,R11) (CV,R12)
0Loc    Object Code    Addr1 Addr2  Stmt Lv Lineno    Source Statement           (Hibal 5, Asmedit 3.3)  HLASM R4.0  2004/03/15 12.57
+___    ______ ____    _____ _____  ____ __ ______    ______ _________
0                                   6833  1 03-PDB   +MODBUPLO   EQU   X'40'               - Use uplow (read)
                                    6834  1 03-PDB   +MODBDWAT   EQU   X'20'               - Disallow attn on write
                                    6835  1 03-PDB   +MODBNNLA   EQU   X'10'               - No stars or NL on read attn
                                    6836  1 03-PDB   +MODBSLOL   EQU   X'08'               - Slow list (no tabs used on write)
                                    6837  1 03-PDB   +MODBNLF    EQU   X'04'               - No LF on read carriage-return
                                    6838  1 03-PDB   +MODBUFMT   EQU   X'02'               - Unformatted (don't cvt <...>)
                                    6839  1 03-PDB   +MODBFOR    EQU   X'01'               - Force I/O (override quiet)
                                    6840  1          +
                                    6841  1 03-PDB   +MODCNCRS   EQU   X'80'               - Don't re-position cursor (VTAM)
                                    6842  1 03-PDB   +MODCDSPL   EQU   X'40'               - Display mode I/O
                                    6843  1 03-PDB   +MODCSTIB   EQU   X'20'               - Suppress trailing input blanks
                                    6844  1 03-PDB   +MODCFSR    EQU   X'10'               - Full screen read
                                    6845  1 03-PDB   +MODCFSRU   EQU   X'08'               - Full screen read unsolicited
                                    6846  1 03-PDB   +MODCNECH   EQU   X'04'               - No echo
                                    6847  1 03-PDB   +MODCIMED   EQU   X'02'               - Immediate mode (display I/O)
                                    6848  1 03-PDB   +MODCSTOB   EQU   X'01'               - Suppress trailing output blanks
                                    6849  1          +
                                    6850  1 03-PDB   +MODDNPAU   EQU   X'80'               - Don't stop at end of page
                                    6851  1 03-PDB   +MODDNPT    EQU   X'40'               - No read text allowed at p/p
                                    6852  1 03-PDB   +MODDTRAN   EQU   X'20'               - Transparent I/O
                                    6853  1 03-PDB   +MODDNMOD   EQU   X'10'               - Nomodel
                                    6854  1 03-PDB   +MODDNFLT   EQU   X'08'               - No ctrl char filtering
                                    6855  1 03-PDB   +MODDXON    EQU   X'04'               - Send XON char for read
                                    6856  1 03-PDB   +MODDRUND   EQU   X'02'               - Count rundown mode for read
                                    6857  1 03-PDB   +MODDNTYP   EQU   X'01'               - No read typeahead
                                    6858  1          +*
                                    6859  1          +*  PDB control numbers (to MILTEN)
                                    6860  1          +*
                                    6861  1 03-PDB   +CTLSNSI    EQU   1                   - Sense session info
                                    6862  1 03-PDB   +CTLSETI    EQU   2                   - Set   session info
                                    6863  1 03-PDB   +CTLSNSP    EQU   3                   - Sense port info
                                    6864  1 03-PDB   +CTLSNSF    EQU   4                   - Sense front-end info
                                    6865  1 03-PDB   +CTLSNSD    EQU   5                   - Sense device dependent info
                                    6866  1 03-PDB   +CTLSNSS    EQU   6                   - Sense subsystem info
                                    6867  1 03-PDB   +CTLSNSA    EQU   7                   - Sense accounting info
                                    6868  1 03-PDB   +CTLSNSM    EQU   8                   - Sense MILTEN info
                                    6869  1 03-PDB   +CTLSNST    EQU   9                   - Sense symbol type
                                    6870  1 03-PDB   +CTLSNSMD   EQU   10                  - Sense MILTEN device trace
                                    6871  1 03-PDB   +CTLMAX     EQU   10
                                    6872  1          +
                                    6873  1 03-PDB   +CTLPSETS   EQU   101                 - Set session           (Priv'd)
                                    6874  1 03-PDB   +CTLPSETO   EQU   102                 - Set session options   (Priv'd)
                                    6875  1 03-PDB   +CTLPKILL   EQU   103                 - Kill session          (Priv'd)
                                    6876  1 03-PDB   +CTLPSETP   EQU   104                 - Set port              (Priv'd)
                                    6877  1 03-PDB   +CTLPSETF   EQU   105                 - Set front-end         (Priv'd)
                                    6878  1 03-PDB   +CTLPSETD   EQU   106                 - Set device dependent  (Priv'd)
                                    6879  1 03-PDB   +CTLPSETA   EQU   107                 - Set accounting info   (Priv'd)
                                    6880  1 03-PDB   +CTLPDIE    EQU   108                 - MILTEN shutdown       (Priv'd)
                                    6881  1 03-PDB   +CTLPMAX    EQU   108
                                    6882  1          +*
                                    6883  1          +*  PDB completion flags (from MILTEN)
                                    6884  1          +*
                                    6885  1 03-PDB   +CPLAATTN   EQU   X'80'               - Attn on read/write
                                    6886  1 03-PDB   +CPLAIOE    EQU   X'40'               - I/O error on read
1TINT     (TINT2047) (12:57) (15MAR04) WYLBUR's Terminal Internal Commands                                                  Page    8
0Current Usings:  (CP,R11) (CV,R12)
0Loc    Object Code    Addr1 Addr2  Stmt Lv Lineno    Source Statement           (Hibal 5, Asmedit 3.3)  HLASM R4.0  2004/03/15 12.57
+___    ______ ____    _____ _____  ____ __ ______    ______ _________
0                                   6887  1 03-PDB   +CPLAUST    EQU   X'20'               - Unset tab(s) on input
                                    6888  1 03-PDB   +CPLABRK    EQU   X'10'               - Read killed by break
                                    6889  1          +
                                    6890  1 03-PDB   +CPLBLGF    EQU   X'80'               - Terminal is logging off
                                    6891  1 03-PDB   +CPLBILT    EQU   X'40'               - Terminal can't do that
                                    6892  1 03-PDB   +CPLBIA     EQU   X'20'               - Idle attention (asynchronous)
 000038                00038 00038  6893             +*
                                    6903              *
 000000                00000 001F8  6904              KWR      RECORD 'KWR'
                                    6914  1          +*
                                    6915  1          +*       Keyword Record
                                    6916  1          +*
 000000                             6917  1 03-KWR   +KWRSTART     DS  0F
 000000 E4E4E4                      6918  1 03-KWR   +KWRUSER      DC  C'UUU'              User
 000003 C7C7                        6919  1 03-KWR   +KWRGRP       DC  C'GG'               Group
                                    6920  1 03-KWR   +KWRACCT      EQU KWRUSER,*-KWRUSER,C'X'
                                    6921  1          +
                                    6922  1 03-KWR   +KWRDSTRT     EQU *
 000005 000000                      6923  1 03-KWR   +             DC  XL3'00'             Reserved
 000008 0000                        6924  1 03-KWR   +KWRRJE       DC  H'0'                No. of jobs run
 00000A 0000                        6925  1 03-KWR   +KWRSPUSD     DC  H'0'                Disk space used
 00000C FFFF                        6926  1 03-KWR   +KWRSPMAX     DC  H'-1'               Disk space allowed
                                    6927  1          +
 00000E 80                          6928  1 03-KWR   +KWRIFL       DC  X'80'               Initials flags
                                    6929  1 03-KWR   +KWRIFVAL      EQU  X'80'             - Valid user
                                    6930  1 03-KWR   +KWRIFAPR      EQU  X'40'             - ACCT privs
                                    6931  1 03-KWR   +KWRIFSPR      EQU  X'20'             - SYS privs
                                    6932  1 03-KWR   +KWRIFOPR      EQU  X'10'             - OPR privs
                                    6933  1 03-KWR   +KWRIFSBM      EQU  X'08'             - SUBMIT priv
                                    6934  1 03-KWR   +KWRIFSUB      EQU  X'04'             - SUBADMIN privs
                                    6935  1 03-KWR   +KWRIFADM      EQU  X'02'             - ADMIN privs
                                    6936  1 03-KWR   +KWRIFPC       EQU  X'01'             - PC privs
                                    6937  1          +
 00000F 98                          6938  1 03-KWR   +KWRAFL       DC  X'98'               Account flags
                                    6939  1 03-KWR   +KWRAFVAL      EQU  X'80'             - Valid acct (off when SUSPENDED)
                                    6940  1 03-KWR   +KWRAFTOK      EQU  X'08'             - Terminal usage permitted
                                    6941  1 03-KWR   +KWRAFZSV      EQU  X'02'             - Test recovery flag (not used)
                                    6942  1 03-KWR   +KWRAFASV      EQU  X'01'             - Recovery done for last session
                                    6943  1          +
 000010 6F6F6F                      6944  1 03-KWR   +KWRBIN       DC  C'???'              Bin
 000013 00                          6945  1 03-KWR   +KWRWRCT      DC  X'00'               Record rewrite count
 000014 000000                      6946  1 03-KWR   +KWRBGT       DC  XL3'00'             Account budget
 000017 000000                      6947  1 03-KWR   +KWRBAL       DC  XL3'00'             Account year-to-date balance
 00001A 0000                        6948  1 03-KWR   +KWRLCP       DC  H'0'                Punch card limit -- in hundreds
 00001C 0000                        6949  1 03-KWR   +KWRLLC       DC  H'0'                Line count limit -- in thousands
 00001E 0000                        6950  1 03-KWR   +KWRLET       DC  H'0'                Execution time limit in seconds
                                    6951  1          +
 000020 84                          6952  1 03-KWR   +KWRBFL       DC  X'84'               Batch flags
                                    6953  1 03-KWR   +KWRBFVAL     EQU X'80'               - Valid for batch
                                    6954  1 03-KWR   +KWRBFIN      EQU X'40'               - No input setups allowed
                                    6955  1 03-KWR   +KWRBFOUT     EQU X'20'               - No output setups allowed
                                    6956  1 03-KWR   +KWRBFNON     EQU X'10'               - No non-standard priority allowed
                                    6957  1 03-KWR   +KWRBFE       EQU X'08'               - Class E only
                                    6958  1 03-KWR   +KWRBFP       EQU X'04'               - Class P permitted
1TINT     (TINT2047) (12:57) (15MAR04) WYLBUR's Terminal Internal Commands                                                  Page    9
0Current Usings:  (CP,R11) (CV,R12)
0Loc    Object Code    Addr1 Addr2  Stmt Lv Lineno    Source Statement           (Hibal 5, Asmedit 3.3)  HLASM R4.0  2004/03/15 12.57
+___    ______ ____    _____ _____  ____ __ ______    ______ _________
0                                   6959  1          +
 000021 D3D6C3C1D3404040            6960  1 03-KWR   +KWRDEST      DC  CL8'LOCAL'          Destination for output data
 000029 6F6F6F6F                    6961  1 03-KWR   +KWRFORM      DC  CL4'????'           Default forms code
 00002D 0000000000000000            6962  1 03-KWR   +KWRORV       DC  XL8'00'             Default ORVYL name
                                    6963  1          +
 000035 80                          6964  1 03-KWR   +KWRMACC      DC  X'80'               Machine access flags
                                    6965  1 03-KWR   +KWRFSYSA     EQU X'80'               - SYSA access allowed
                                    6966  1 03-KWR   +KWRFSYSB     EQU X'40'               - SYSB access allowed
                                    6967  1 03-KWR   +KWRFSYSC     EQU X'20'               - SYSC access allowed
                                    6968  1 03-KWR   +KWRFSYSD     EQU X'10'               - SYSD access allowed
                                    6969  1 03-KWR   +KWRFSYSE     EQU X'08'               - SYSE access allowed
                                    6970  1 03-KWR   +KWRFSYSF     EQU X'04'               - SYSF access allowed
                                    6971  1 03-KWR   +KWRFSYSG     EQU X'02'               - SYSG access allowed
                                    6972  1          +
 000036 00                          6973  1 03-KWR   +KWRSFL       DC  X'00'               Status flags
                                    6974  1 03-KWR   +KWRSFKEP     EQU X'80'               - Kept mail waiting
                                    6975  1 03-KWR   +KWRSFMAI     EQU X'40'               - New mail waiting
                                    6976  1 03-KWR   +KWRSFMLQ     EQU X'20'               - New mail in MAILQnnn files
                                    6977  1          +
 000037 02                          6978  1 03-KWR   +KWRJFL       DC  X'02'               Job flags
                                    6979  1 03-KWR   +KWRJFNUM     EQU X'80'               - Numbered job submission
                                    6980  1 03-KWR   +KWRJFFOR     EQU X'40'               - Force user id as job prefix
                                    6981  1 03-KWR   +KWRJFHOL     EQU X'10'               - Hold printed output
                                    6982  1 03-KWR   +KWRJFNOT     EQU X'08'               - Notify user
                                    6983  1 03-KWR   +KWRJFATH     EQU X'07'               - Job auth, as follows...
                                    6984  1 03-KWR   +KWRJFPUB     EQU X'04'                  Auth=public
                                    6985  1 03-KWR   +KWRJFCOM     EQU X'02'                  Auth=community
                                    6986  1 03-KWR   +KWRJFGRP     EQU X'01'                  Auth=group
                                    6987  1          +
 000038 4040404040404040            6988  1 03-KWR   +KWRJPFX      DC  CL8' '              Users job prefix
 000040 0000                        6989  1 03-KWR   +KWRJNO       DC  H'0'                Users job count
                                    6990  1          +
 000042 0000                        6991  1 03-KWR   +KWRHRSAL     DC  H'0'                Connect hrs allowed (hrs/10)
 000044 0000                        6992  1 03-KWR   +KWRACCH      DC  H'0'                Connect hrs accounted (hrs/10)
 000046 0000                        6993  1 03-KWR   +           DC    H'0'                Reserved
                                    6994  1          +
 000048 20                          6995  1 03-KWR   +KWRTACF      DC  X'20'               Type/account class flags
                                    6996  1 03-KWR   +KWRTNST      EQU X'80'               - No logoff statistics
                                    6997  1 03-KWR   +KWRTNTM      EQU X'40'               - No session timeouts (NOTIME)
                                    6998  1 03-KWR   +KWRTNDAY     EQU X'02'               - No daytime access allowed
                                    6999  1          +
 000049 3C                          7000  1 03-KWR   +KWRTFL       DC  X'3C'               Timesharing flags
                                    7001  1          +*              X'80'               - Reserved
                                    7002  1          +*              X'40'               - Reserved
                                    7003  1 03-KWR   +KWRTFAN      EQU X'20'               - Auto news at logon
                                    7004  1 03-KWR   +KWRTFAM      EQU X'10'               - Auto mail at logon
                                    7005  1 03-KWR   +KWRTFAR      EQU X'08'               - Auto recovery at logon
                                    7006  1 03-KWR   +KWRTFAE      EQU X'04'               - Auto exec at logon
                                    7007  1 03-KWR   +KWRTFAL      EQU X'02'               - Auto ltime at logon
                                    7008  1 03-KWR   +KWRTFAK      EQU X'01'               - Auto ktime at logon
                                    7009  1          +
 00004A 00F0                        7010  1 03-KWR   +KWRNTDEF     DC  H'240'              Default notime minutes (0=nolim)
 00004C 0000                        7011  1 03-KWR   +KWRNTMAX     DC  H'0'                Maximum notime minutes (0=nolim)
 00004E 00000000                    7012  1 03-KWR   +KWRPFORM     DC  XL4'00'             Default PRINT job forms
1TINT     (TINT2047) (12:57) (15MAR04) WYLBUR's Terminal Internal Commands                                                  Page   10
0Current Usings:  (CP,R11) (CV,R12)
0Loc    Object Code    Addr1 Addr2  Stmt Lv Lineno    Source Statement           (Hibal 5, Asmedit 3.3)  HLASM R4.0  2004/03/15 12.57
+___    ______ ____    _____ _____  ____ __ ______    ______ _________
0000052 0000                        7013  1 03-KWR   +KWRR1      DC    H'0'                Reserved
 000054 0000                        7014  1 03-KWR   +KWRR3      DC    H'0'                Reserved
 000056 00                          7015  1 03-KWR   +KWRR4      DC    X'0'                Reserved
                                    7016  1          +
 000057 00                          7017  1 03-KWR   +KWROFL       DC  X'00'               Online flags
                                    7018  1 03-KWR   +KWRFMULT     EQU X'80'               - Multiple sessions allowed
                                    7019  1 03-KWR   +KWRFMAIL     EQU X'40'               - Mail is allowed
                                    7020  1 03-KWR   +KWRFSEC      EQU X'20'               - Secure session (EXEC SECURE)
                                    7021  1 03-KWR   +KWRFMNPR     EQU X'08'               - XMultiple: multiple w/o prompt
                                    7022  1 03-KWR   +KWRFNPAS     EQU X'04'               - No logon password needed
                                    7023  1          +
 000058 00000000                    7024  1 03-KWR   +KWRLTIM      DC  XL4'00'             Last logoff time(high 32 clck bits)
 00005C 00000000                    7025  1 03-KWR   +KWRKTIM      DC  XL4'00'             Last time keyword changed (" ")
                                    7026  1          +
 000060 00                          7027  1 03-KWR   +KWRAC        DC  X'00'               Accounting flags
                                    7028  1          +
 000061 40                          7029  1 03-KWR   +KWRSOF       DC  C' '                Source of funds code
 000062 40                          7030  1 03-KWR   +KWRAR        DC  C' '                Accounts receivable code (if SOF=2)
                                    7031  1          +
 000063 40                          7032  1 03-KWR   +KWRSTAT      DC  C' '                Account status code
                                    7033  1 03-KWR   +KWRSEXP      EQU C'1'                - Expired
                                    7034  1 03-KWR   +KWRSCLS      EQU C'2'                - Closed
                                    7035  1 03-KWR   +KWRSOVB      EQU C'3'                - Over-budget
                                    7036  1 03-KWR   +KWRSUHL      EQU C'4'                - User hold
                                    7037  1          +
 000064 10                          7038  1 03-KWR   +KWRTFL2      DC  X'10'               Timesharing flags  (second byte)
                                    7039  1 03-KWR   +KWRTFAPE     EQU X'80'               - Auto pubexec at logon
                                    7040  1 03-KWR   +KWRTFML      EQU X'40'               - Ok to receive mail
                                    7041  1 03-KWR   +KWRTFANE     EQU X'10'               - Auto newexec at logon
                                    7042  1 03-KWR   +KWRTFMNOATTN     EQU  X'08'          - Ignore SHOW MAIL attn (NOATTN)
                                    7043  1          +
 000065 00                          7044  1 03-KWR   +KWRPFL       DC  X'00'               Privilege flags
                                    7045  1 03-KWR   +KWRFPCHK     EQU X'80'               - PCHECK privs
                                    7046  1          +
 000066 0000                        7047  1 03-KWR   +KWRHRSFR     DC  H'0'                Free connect hrs to date (hrs/10)
 000068 0000                        7048  1 03-KWR   +KWRHRSUS     DC  H'0'                Hours used to date (hrs/10)
 00006A FFFF                        7049  1 03-KWR   +KWRDSKMX     DC  H'-1'               Disk kilobytes allowed
 00006C 00000000                    7050  1 03-KWR   +KWRDSKUS     DC  F'0'                Disk bytes used
                                    7051  1          +
 000070 0000000000000000            7052  1 03-KWR   +KWRPASS      DC  XL8'00'             Password
 000078 0000000000000000            7053  1 03-KWR   +KWRNAME      DC  XL20'00'            User's name
 00008C 000000000000                7054  1 03-KWR   +KWRVOL       DC  XL6'00'             User's permanent volume
 000092 0000000000000000            7055  1 03-KWR   +KWRSYS       DC  XL8'00'             User's initial subsystem (WYLBUR)
 00009A 0000000000000000            7056  1 03-KWR   +KWRCOMM      DC  XL20'00'            Comment for accounting office
                                    7057  1          +
 0000AE 00                          7058  1 03-KWR   +KWRMPRIM     DC  X'00'               Primary machine
                                    7059  1          +***  Flag definitions are the same as with KWRMACC above.  ***
                                    7060  1          +*
 0000AF 00                          7061  1 03-KWR   +KWRXCNT      DC  X'00'               Unsuccessful logon attempt count
 0000B0 00000000                    7062  1 03-KWR   +KWRXTIM      DC  XL4'00'             Last unsuccessful logon time
                                    7063  1          +
 0000B4 00000000                    7064  1 03-KWR   +KWRNEWDT     DC  F'0'                Date news was last read
                                    7065  1          +
 0000B8 00000000                    7066  1 03-KWR   +KWRCDATE     DC  F'0'                Date of charges update
1TINT     (TINT2047) (12:57) (15MAR04) WYLBUR's Terminal Internal Commands                                                  Page   11
0Current Usings:  (CP,R11) (CV,R12)
0Loc    Object Code    Addr1 Addr2  Stmt Lv Lineno    Source Statement           (Hibal 5, Asmedit 3.3)  HLASM R4.0  2004/03/15 12.57
+___    ______ ____    _____ _____  ____ __ ______    ______ _________
00000BC 000000                      7067  1 03-KWR   +KWRMTD       DC  XL3'0'              Account month-to-date balance
 0000BF 000000                      7068  1 03-KWR   +KWRPBAL      DC  XL3'0'              Account previous ytd charges
                                    7069  1          +
 0000C2 0000000000000000            7070  1 03-KWR   +KWRMFOR      DC  XL64'00'            Mail forwarding address
 000102 0000000000000000            7071  1 03-KWR   +KWRMTXT      DC  XL80'00'            Mail information text
                                    7072  1          +
 000152 0000000000000000            7073  1 03-KWR   +KWRCMD       DC  XL80'00'            First command to execute
 0001A2 0000000000000000            7074  1 03-KWR   +KWRLPORT     DC  XL20'00'            Last logoff port name
                                    7075  1          +
 0001B6 00000000                    7076  1 03-KWR   +KWRCRDT      DC  XL4'00'             Account creation date
                                    7077  1          +
 0001BA 0000                        7078  1 03-KWR   +KWRRENCT     DC  XL2'00'             No. of ORVYL RENAMEs (not used)
                                    7079  1          +
 0001BC C7E4C5E2E3404040            7080  1 03-KWR   +KWRNETU      DC  CL16'GUEST'         Network user id (zeros=disabled)
 0001CC D3C9D5C4E8404040            7081  1 03-KWR   +KWRNETH      DC  CL32'LINDY'         Network host name
                                    7082  1          +
 0001EC 0000000000000000            7083  1 03-KWR   +KWRLOCAL     DC  XL8'00'             For non-Stanford use (ISU!)
                                    7084  1 03-KWR   +KWRDATA      EQU KWRDSTRT,*-KWRDSTRT,C'X'
                                    7085  1          +
                                    7086  1 03-KWR   +KWREND       EQU *                   End of physical record
                                    7087  1          +
 0001F4 00                          7088  1 03-KWR   +KWRHFL       DC  X'00'               Status flags
                                    7089  1 03-KWR   +KWRHFCK      EQU X'80'               - Keyword checking in effect
                                    7090  1 03-KWR   +KWRHFUOK     EQU X'40'         Update successful--cannot occur with
                                    7091  1          +*                            kwrhferr or kwrhfful.  if kwrhfuok,
                                    7092  1          +*                            err, and ful are all 0, the record has
                                    7093  1          +*                            been changed since it was read.
                                    7094  1 03-KWR   +KWRHFERR     EQU X'20'               - I/O error reading keyword file
                                    7095  1 03-KWR   +KWRHFFUL     EQU X'10'               - No room to add user
                                    7096  1          +
 0001F8                             7097  1 03-KWR   +           DS    0F
                                    7098  1 03-KWR   +KWRSIZE      EQU *-KWRSTART
                                    7099  1          +*
                                    7100  1          +*  Operation codes.
                                    7101  1          +*
                                    7102  1 03-KWR   +KWRCWR        EQU  X'80'             Write
                                    7103  1 03-KWR   +KWRCRD        EQU  X'40'             Read
 0001F8                001F8 001F8  7104    03-KWR   +KWRCDIE     EQU  X'FF'             Shutdown keyword routines
                                    7114
                                    7115                       COPY  FSB
                                    7116             =*
                                    7117             =**  Front-End Status Block
                                    7118             =*
 000000                00000 00090  7119             =FSB      RECORD BEGIN
 000000                             7127  1          =FSBID      DS    H                   Front-end identifier
                                    7128  1          =
 000002 00                          7129  1          =FSBTYPE    FLAG
 FSBTYPE.FSBTCONS  01 EQ            7133  1          =           FLAG  (FSBTCONS,1,EQ)     - Console
 FSBTYPE.FSBTASYN  02 EQ            7143  1          =           FLAG  (FSBTASYN,2,EQ)     - Async
 FSBTYPE.FSBTPDP   03 EQ            7153  1          =           FLAG  (FSBTPDP,3,EQ)      - Pdp
 FSBTYPE.FSBTVTAM  04 EQ            7163  1          =           FLAG  (FSBTVTAM,4,EQ)     - Vtam
 FSBTYPE.FSBTVIRT  05 EQ            7173  1          =           FLAG  (FSBTVIRT,5,EQ)     - Virtual
 FSBTYPE.FSBTNSC   06 EQ            7183  1          =           FLAG  (FSBTNSC,6,EQ)      - Nsc
 FSBTYPE.FSBTELF   07 EQ            7193  1          =           FLAG  (FSBTELF,7,EQ)      - Elf
1TINT     (TINT2047) (12:57) (15MAR04) WYLBUR's Terminal Internal Commands                                                  Page   12
0Current Usings:  (CP,R11) (CV,R12)
0Loc    Object Code    Addr1 Addr2  Stmt Lv Lineno    Source Statement           (Hibal 5, Asmedit 3.3)  HLASM R4.0  2004/03/15 12.57
+___    ______ ____    _____ _____  ____ __ ______    ______ _________
0FSBTYPE.FSBTALF   08 EQ            7203  1          =           FLAG  (FSBTALF,8,EQ)      - Alf
 FSBTYPE.FSBTECU   09 EQ            7213  1          =           FLAG  (FSBTECU,9,EQ)      - ECU
 FSBTYPE.FSBTMAX   09 EQ            7223  1          =           FLAG  (FSBTMAX,9,EQ)
                                    7233  1          =
 000003                             7234  1          =           DS    X                   Reserved
                                    7235  1          =
 000004                             7236  1          =FSBFEBP    DS    A                   Address of FEB
                                    7237  1          =
 000008                             7238  1          =FSBUC      DS    H                   Update count
 00000A                             7239  1          =FSBTMLIM   DS    H                   Notime limit during PEAK times
                                    7240  1          =
 00000C                             7241  1          =FSBNAME    DS    CL8                 Front-end name
 000014                             7242  1          =FSBINFO    DS    CL12                Front-end info (text)
                                    7243  1          =
 000020                             7244  1          =FSBMCLCK   DS    XL8                 Clock when message was set
 000028                             7245  1          =FSBMSG     DS    CL64                Front-end message
                                    7246  1          =
 000068 00                          7247  1          =FSBPFLG    FLAG
 FSBPFLG.FSBFPS    80 ONES          7251  1          =           FLAG  FSBFPS              - "Pseudo" front-end
 FSBPFLG.FSBFLEAS  40 ONES          7256  1          =           FLAG  FSBFLEAS            - Front-end is leased
 FSBPFLG.FSBFRLIN  20 ONES          7261  1          =           FLAG  FSBFRLIN            - Front-end belongs to rlin
                                    7266  1          =
 000069 00                          7267  1          =FSBPFLG2   FLAG
 FSBPFLG2.FSBFCLS  80 ONES          7271  1          =           FLAG  FSBFCLS             - Closed
 FSBPFLG2.FSBFDET  40 ONES          7276  1          =           FLAG  FSBFDET             - Detached
 FSBPFLG2.FSBFDOWN 20 ONES          7281  1          =           FLAG  FSBFDOWN            - Status: down
                                    7286  1          =
 00006A                             7287  1          =FSBQMAX    DS    H                   Maximum I/O queue size
                                    7288  1          =
 00006C                             7289  1          =FSBPCUR    DS    H                   Current no. of ports
 00006E                             7290  1          =FSBPMAX    DS    H                   Max no. of ports
                                    7291  1          =
 000070                             7292  1          =FSBSCLCK   DS    XL8                 Clock at start
                                    7293  1          =
 000078                             7294  1          =FSBSCUR    DS    H                   Current no. of sessions
 00007A                             7295  1          =FSBSMAX    DS    H                   Max no. of sessions
 00007C                             7296  1          =FSBSMCLK   DS    XL8                 Clock at max
 000084                             7297  1          =FSBNSES    DS    F                   Total no. of sessions
                                    7298  1          =
 000088                             7299  1          =FSBNIO     DS    F                   Total no. of I/O's
 00008C                             7300  1          =FSBNHWE    DS    F                   Total no. of hw errors
                                    7301  1          =FSBBASIC   EQU   FSBUC,*-FSBUC,C'X'  ******
 000090                00090 00090  7302             =         END
                                    7311
                                    7312                       COPY  FDB
                                    7313             =*
                                    7314             =**  FRONT-END DEPENDENT BLOCK
                                    7315             =*
-                                   7317             =***  DEVICE CONTROLS:
                                    7318             =FDBCSNSF EQU   1                   - SENSE FRONT-END INFO
                                    7319             =FDBCSNSP EQU   2                   - SENSE PORT INFO
                                    7320             =FDBCMAX  EQU   2
1TINT     (TINT2047) (12:57) (15MAR04) WYLBUR's Terminal Internal Commands                                                  Page   13
0Current Usings:  (CP,R11) (CV,R12)
0Loc    Object Code    Addr1 Addr2  Stmt Lv Lineno    Source Statement           (Hibal 5, Asmedit 3.3)  HLASM R4.0  2004/03/15 12.57
+___    ______ ____    _____ _____  ____ __ ______    ______ _________
0                                   7321             =
                                    7322             =FDBPSETF EQU   101                 - SET FRONT-END  (PRIV'D)
                                    7323             =FDBPSETP EQU   102                 - SET PORT       (PRIV'D)
                                    7324             =FDBPMAX  EQU   102
-000000                00000 00010  7326             =FDB      RECORD BEGIN
                                    7334  1          =***  FORMAT OF REQUEST TO MILTEN...
 000000                             7335  1          =FDBT       DS    0F
                                    7336  1          =
 000000                             7337  1          =FDBTFE     DS    H                   FRONT-END ID
 000002                             7338  1          =FDBTDNO    DS    X                   DEVICE CONTROL NUMBER
 000003                             7339  1          =           DS    X                   RESERVED
                                    7340  1          =FDBTDATA   EQU   *
                                    7341  1          =*
                                    7342  1          =*  CONTROL 1:   SENSE FRONT-END INFO
 000004                00004 00004  7343  1          =           ORG   FDBTDATA
                                    7344  1          =FDBT1      EQU   FDBT,*-FDBT,C'X'
                                    7345  1          =*
                                    7346  1          =*  CONTROL 2:   SENSE PORT INFO
 000004                00004 00004  7347  1          =           ORG   FDBTDATA
 000004                             7348  1          =FDBT2P     DS    H                   PORT NUMBER
                                    7349  1          =FDBT2      EQU   FDBT,*-FDBT,C'X'
                                    7350  1          =*
                                    7351  1          =*  CONTROL 101: SET FRONT-END
 000006                00006 00004  7352  1          =           ORG   FDBTDATA
 000004 00                          7353  1          =FDBT101F   FLAG
 FDBT101F.FDBTFSTR 80 ONES          7357  1          =           FLAG  FDBTFSTR            - START
 FDBT101F.FDBTFSTP 40 ONES          7362  1          =           FLAG  FDBTFSTP            - STOP
 FDBT101F.FDBTFOPN 20 ONES          7367  1          =           FLAG  FDBTFOPN            - OPEN
 FDBT101F.FDBTFCLS 10 ONES          7372  1          =           FLAG  FDBTFCLS            - CLOSE
                                    7377  1          =FDBT101    EQU   FDBT,*-FDBT,C'X'
                                    7378  1          =*
                                    7379  1          =*  CONTROL 102: SET PORT
 000005                00005 00004  7380  1          =           ORG   FDBTDATA
 000004                             7381  1          =FDBT102P   DS    H                   PORT NUMBER
                                    7382  1          =
 000006 00                          7383  1          =FDBT102F   FLAG
 FDBT102F.FDBTPSTR 80 ONES          7387  1          =           FLAG  FDBTPSTR            - START
 FDBT102F.FDBTPSTP 40 ONES          7392  1          =           FLAG  FDBTPSTP            - STOP
                                    7397  1          =FDBT102    EQU   FDBT,*-FDBT,C'X'
1TINT     (TINT2047) (12:57) (15MAR04) DSECTS                                                                               Page   14
0Current Usings:  (CP,R11) (CV,R12)
0D-Loc  Object Code    Addr1 Addr2  Stmt Lv Lineno    Source Statement           (Hibal 5, Asmedit 3.3)  HLASM R4.0  2004/03/15 12.57
+_____  ______ ____    _____ _____  ____ __ ______    ______ _________
0                                   7399  1          =***  FORMAT OF REQUEST FROM MILTEN...
 000007                00007 00000  7400  1          =           ORG   FDBT
 000000                             7401  1          =FDBF       DS    0F
                                    7402  1          =*
                                    7403  1          =*  CONTROL 1:   SENSE FRONT-END INFO
 000000                00000 00000  7404  1          =           ORG   FDBF
 000000                             7405  1          =           DS    2F                  RESERVED
 000008                             7406  1          =FDBFFTNO   DS    H                   NUMBER OF TRACE ENTRIES
 00000A                             7407  1          =FDBFFLEN   DS    H                   LENGTH OF A TRACE ENTRY
 00000C                             7408  1          =FDBFFTRC   DS    0X                  START OF TRACE ENTRIES
                                    7409  1          =FDBF1      EQU   FDBF,*-FDBF,C'X'
                                    7410  1          =*
                                    7411  1          =*  CONTROL 2:   SENSE PORT INFO
 00000C                0000C 00000  7412  1          =           ORG   FDBF
 000000                             7413  1          =           DS    2F                  RESERVED
 000008                             7414  1          =FDBFPTAD   DS    X                   TEST ADDRESS
 000009                             7415  1          =FDBFPCMD   DS    X                   CURRENT COMMAND
 00000A                             7416  1          =           DS    XL2                 RESERVED
 00000C                             7417  1          =FDBFPTNO   DS    H                   NUMBER OF TRACE ENTRIES
 00000E                             7418  1          =FDBFPLEN   DS    H                   LENGTH OF A TRACE ENTRY
 000010                             7419  1          =FDBFPTRC   DS    0X                  START OF TRACE ENTRIES
                                    7420  1          =FDBF2      EQU   FDBF,*-FDBF,C'X'
                                    7421  1          =*
                                    7422  1          =*  CONTROL 101: SET FRONT-END  (PRIV'D)
 000010                00010 00000  7423  1          =           ORG   FDBF
                                    7424  1          =FDBF101    EQU   FDBF,*-FDBF,C'X'
                                    7425  1          =*
                                    7426  1          =*  CONTROL 102: SET PORT       (PRIV'D)
 000000                00000 00000  7427  1          =           ORG   FDBF
                                    7428  1          =FDBF102    EQU   FDBF,*-FDBF,C'X'
                                    7429  1          =
 000000                00000 00010  7430             =         END
                                    7439
                                    7440                       COPY  CONSTRC
                                    7441             =*
                                    7442             =**  CONSOLE TRACE FORMAT
                                    7443             =*
 000000                00000 00036  7444             =CTRC     RECORD BEGIN
 000000                             7452  1          =CTRCCLCK   DS    D                   STCK CLOCK
                                    7453  1          =*
                                    7454  1          =*  IF PIBTRC...
 000008                             7455  1          =CTRCPTYP   DS    C                   TRACE TYPE (T=TO, F=FROM)
 000009                             7456  1          =           DS    X                   RESERVED
                                    7457  1          =CTRCP      EQU   CTRCCLCK,*-CTRCCLCK,C'X'
                                    7458  1          =
 00000A                0000A 00008  7459  1          =           ORG   CTRCCLCK+8
 000008                             7460  1          =CTRCNAME   DS    CL8                 TRACE NAME
 000010                             7461  1          =CTRCPNO    DS    H                   PORT NUMBER
                                    7462  1          =CTRCDATA   EQU   *
                                    7463  1          =*
                                    7464  1          =*  IF CTRCNAME = 'CONS'...
 000012                00012 00012  7465  1          =           ORG   CTRCDATA
 000014                             7466  1          =CTRCSID    DS    F                   SESSION ID
 000018                             7467  1          =CTRCSACC   DS    CL5                 SESSION UUUGG
1TINT     (TINT2047) (12:57) (15MAR04) DSECTS                                                                               Page   15
0Current Usings:  (CP,R11) (CV,R12)
0D-Loc  Object Code    Addr1 Addr2  Stmt Lv Lineno    Source Statement           (Hibal 5, Asmedit 3.3)  HLASM R4.0  2004/03/15 12.57
+_____  ______ ____    _____ _____  ____ __ ______    ______ _________
000001D                             7468  1          =CTRCCMD    DS    X                   PDBCMD
 00001E                             7469  1          =CTRCCPL    DS    XL2                 PDBCPL  (CONSPOST ONLY)
 000020                             7470  1          =CTRCTLEN   DS    H                   PDBLENG
 000022                             7471  1          =CTRCTEXT   DS    CL20                PDBTEXT
 000036                00036 00036  7472             =         END
                                    7481
                                    7482                       COPY  ASYNTRC
                                    7483             =*
                                    7484             =**  ASYNC Channel Commands
                                    7485             =*
                                    7486             =ACENBL   EQU   X'27'               enable
                                    7487             =ACDSBL   EQU   X'2F'               disable
                                    7488             =ACNOP    EQU   X'03'               nop
                                    7489             =ACPREP   EQU   X'06'               prepare
                                    7490             =ACWR     EQU   X'01'               write
                                    7491             =ACRD     EQU   X'0A'               read inhibit (no timeout)
                                    7492             =ACRDT    EQU   X'02'               read
                                    7493             =ACBRK    EQU   X'0D'               break (pttc only)
-                                   7495             =*
                                    7496             =**  ASYNC Trace Format
                                    7497             =*
 000000                00000 00036  7498             =ATRC     RECORD BEGIN
 000000                             7506  1          =ATRCCLCK   DS    D                   STCK clock
                                    7507  1          =*
                                    7508  1          =*  if PIBTRC...
 000008                             7509  1          =ATRCPCMD   DS    X                   I/O command
 000009                             7510  1          =ATRCPCSW   DS    XL2                 CSW status bytes
 00000B                             7511  1          =ATRCPSNS   DS    X                   sense byte
 00000C                             7512  1          =           DS    XL4                 reserved
                                    7513  1          =ATRCP      EQU   ATRCCLCK,*-ATRCCLCK,C'X'
                                    7514  1          =
 000010                00010 00008  7515  1          =           ORG   ATRCCLCK+8
 000008                             7516  1          =ATRCNAME   DS    CL8                 trace name
 000010                             7517  1          =ATRCUNIT   DS    CL3                 unit address
 000013                             7518  1          =           DS    X                   reserved
                                    7519  1          =ATRCDATA   EQU   *
                                    7520  1          =*
                                    7521  1          =*  If ATRCNAME = 'ASYN'...
 000014                00014 00014  7522  1          =           ORG   ATRCDATA
 000014                             7523  1          =ATRCSID    DS    F                   session id
 000018                             7524  1          =ATRCSACC   DS    CL5                 session uuugg
 00001D                             7525  1          =ATRCCMD    DS    X                   pdbcmd
 00001E                             7526  1          =ATRCCPL    DS    XL2                 pdbcpl (asynpost only)
 000020                             7527  1          =ATRCTLEN   DS    H                   pdbleng
 000022                             7528  1          =ATRCTEXT   DS    CL20                pdbtext
                                    7529  1          =*
                                    7530  1          =*  If ATRCNAME = 'IO'...
 000036                00036 00014  7531  1          =           ORG   ATRCDATA
 000014                             7532  1          =ATRCEIOH   DS    X                   IOHALT return code
 000018                             7533  1          =           DS    0F
 000018                             7534  1          =ATRCECCW   DS    XL(8*2)             CCWs
                                    7535  1          =*
1TINT     (TINT2047) (12:57) (15MAR04) DSECTS                                                                               Page   16
0Current Usings:  (CP,R11) (CV,R12)
0D-Loc  Object Code    Addr1 Addr2  Stmt Lv Lineno    Source Statement           (Hibal 5, Asmedit 3.3)  HLASM R4.0  2004/03/15 12.57
+_____  ______ ____    _____ _____  ____ __ ______    ______ _________
0                                   7536  1          =*  If TRCNAME = 'APP'...
 000028                00028 00014  7537  1          =           ORG   ATRCDATA
 000014                             7538  1          =ATRCATYP   DS    X                   appendage type
 000015                             7539  1          =ATRCACOD   DS    X                   appendage code
 000018                             7540  1          =           DS    0F
 000018                             7541  1          =ATRCAOCC   DS    XL8                 old CCW
 000020                             7542  1          =ATRCANCC   DS    XL8                 new CCW
 000028                             7543  1          =ATRCACSW   DS    XL2                 CSW status bytes
 00002A                             7544  1          =ATRCASNS   DS    X                   sense byte
 00002C                             7545  1          =ATRCACPL   DS    H                   completion flags
 00002E                             7546  1          =ATRCARC    DS    H                   return code
 000030                00030 00036  7547             =         END
                                    7556
                                    7557                       COPY  PDPTRC
                                    7558             =*
                                    7559             =**  PDP CHANNEL AND LOCAL COMMANDS
                                    7560             =*
                                    7561             =PCRDHDR  EQU   X'22'               Read header
                                    7562             =PCWRHDR  EQU   X'21'               Write header
                                    7563             =PCWRTABS EQU   X'31'               Write tabs
                                    7564             =PCWRTEXT EQU   X'41'               Write text
                                    7565             =
                                    7566             =PENBL    EQU   0                   ENABLE
                                    7567             =PDSBL    EQU   1                   DISABLE
                                    7568             =PBRK     EQU   2                   BREAK
                                    7569             =PWR      EQU   3                   WRITE
                                    7570             =PRD      EQU   4                   READ
                                    7571             =PLOAD    EQU   5                   LOAD
                                    7572             =PDUMP    EQU   6                   DUMP
                                    7573             =PPOLL    EQU   7                   POLL
                                    7574             =PSNS     EQU   X'80'               SENSE TERMINAL INFO
-                                   7576             =*
                                    7577             =**  PDP TRACE FORMAT
                                    7578             =*
 000000                00000 0003A  7579             =PTRC     RECORD BEGIN
 000000                             7587  1          =PTRCCLCK   DS    D                   STCK CLOCK
                                    7588  1          =*
                                    7589  1          =*  IF PIBTRC...
                                    7590  1          =PTRCPTYP   EQU   PTRCCLCK+7,1,C'C'   TRACE TYPE (T=TO, F=FROM)
 000008                             7591  1          =PTRCPHDR   DS    XL8                 PDP HEADER
                                    7592  1          =PTRCP      EQU   PTRCCLCK,*-PTRCCLCK,C'X'
                                    7593  1          =
 000010                00010 00008  7594  1          =           ORG   PTRCCLCK+8
 000008                             7595  1          =PTRCNAME   DS    CL8                 TRACE NAME
 000010                             7596  1          =PTRCPNAM   DS    CL8                 PORT NAME
                                    7597  1          =PTRCDATA   EQU   *
                                    7598  1          =*
                                    7599  1          =*  IF PTRCNAME = 'PDP'...
 000018                00018 00018  7600  1          =           ORG   PTRCDATA
 000018                             7601  1          =PTRCSID    DS    F                   SESSION ID
 00001C                             7602  1          =PTRCSACC   DS    CL5                 SESSION UUUGG
 000021                             7603  1          =PTRCCMD    DS    X                   PDBCMD
1TINT     (TINT2047) (12:57) (15MAR04) DSECTS                                                                               Page   17
0Current Usings:  (CP,R11) (CV,R12)
0D-Loc  Object Code    Addr1 Addr2  Stmt Lv Lineno    Source Statement           (Hibal 5, Asmedit 3.3)  HLASM R4.0  2004/03/15 12.57
+_____  ______ ____    _____ _____  ____ __ ______    ______ _________
0000022                             7604  1          =PTRCCPL    DS    XL2                 PDBCPL  (PDPPOST ONLY)
 000024                             7605  1          =PTRCTLEN   DS    H                   PDBLENG
 000026                             7606  1          =PTRCTEXT   DS    CL20                PDBTEXT
                                    7607  1          =*
                                    7608  1          =*  IF PTRCNAME = 'HDR'...
 00003A                0003A 00018  7609  1          =           ORG   PTRCDATA
 000018                             7610  1          =PTRCHSIO   DS    X                   SIO CC
 000019                             7611  1          =           DS    X                   RESERVED
 00001A                             7612  1          =PTRCHCSW   DS    XL2                 CSW STATUS
 00001C                             7613  1          =PTRCHDR    DS    XL8                 PDP HEADER
 000024                00024 0003A  7614             =         END
                                    7623
                                    7624                       COPY  ELFTRC
                                    7625=            =¿þþþþþþþþþþþþþþþþþþþþþþþþþþþþþþþþþþþþþþþþþþþþþþþþþþþþþþþþþþþþþþþþþþþþþÜ
                                    7626=            =Ÿ                                                                     Ÿ
                                    7627=            =Ÿ    MILTEN/ELF TRACE FORMAT                                          Ÿ
                                    7628=            =Ÿ      (for both port and front-end trace entries.)                   Ÿ
                                    7629=            =Ÿ                                                                     Ÿ
                                                      ¾þþþþþþþþþþþþþþþþþþþþþþþþþþþþþþþþþþþþþþþþþþþþþþþþþþþþþþþþþþþþþþþþþþþþþ»
0000000                00000 00048  7630             =TTRC     RECORD BEGIN
 000000                             7638  1          =TTRCCLCK   DS    D                   Stck clock
                                    7639= 1          =           ¿þþþþþþþþþþþþþþÜ
                                    7640= 1          =           Ÿ  IF PIBTRC:  Ÿ
                                    7641= 1          =           ¾þþþþþþþþþþþþþþ»
                                    7642  1          =TTRCPTYP   EQU   TTRCCLCK+7,1,C'C'   Trace type (T=to, F=from)
 000008                             7643  1          =TTRCPCMD   DS    X                   PDBCMD
 000009                             7644  1          =           DS    X                   Reserved
 00000A                             7645  1          =TTRCPCPL   DS    XL2                 PDBCPL
 00000C                             7646  1          =TTRCPLEN   DS    H                   PDBLENG
                                    7647  1          =TTRCP      EQU   TTRCCLCK,*-TTRCCLCK,C'X'
                                    7648= 1          =           ¿þþþþþþþþþþþþþþÜ
                                    7649= 1          =           Ÿ  IF FEBTRC:  Ÿ
                                    7650= 1          =           ¾þþþþþþþþþþþþþþ»
 00000E                0000E 00008  7651  1          =           ORG   TTRCCLCK+8
 000008                             7652  1          =TTRCNAME   DS    CL8                 Trace name
 000010                             7653  1          =TTRCPNAM   DS    CL8                 Port name
                                    7654  1          =TTRCDATA   EQU   *
                                    7655= 1          =           ¿þþþþþþþþþþþþþþþþþþþþþþþþÜ
                                    7656= 1          =           Ÿ  IF TTRCNAME = 'TERM'  Ÿ
                                    7657= 1          =           ¾þþþþþþþþþþþþþþþþþþþþþþþþ»
 000018                00018 00018  7658  1          =           ORG   TTRCDATA
 000018                             7659  1          =TTRCSID    DS    F                   Session id
 00001C                             7660  1          =TTRCSACC   DS    CL5                 Session uuugg
 000021                             7661  1          =TTRCCMD    DS    X                   PDBCMD
 000022                             7662  1          =TTRCCPL    DS    XL2                 PDBCPL  (TNETPOST only)
 000024                             7663  1          =TTRCTLEN   DS    H                   PDBLENG
 000026                             7664  1          =TTRCTEXT   DS    CL20                PDBTEXT
                                    7665= 1          =           ¿þþþþþþþþþþþþþþþþþþþþþþÜ
                                    7666= 1          =           Ÿ  IF TTRCNAME = 'IO'  Ÿ
                                    7667= 1          =           ¾þþþþþþþþþþþþþþþþþþþþþþ»
 00003A                0003A 00018  7668  1          =           ORG   TTRCDATA
 000018                             7669  1          =TTRCILEN   DS    H                   Total path data length
 00001A                             7670  1          =TTRCIHDR   DS    CL16                Header text (e.g. "TCP_WRITE:")
1TINT     (TINT2047) (12:57) (15MAR04) DSECTS                                                                               Page   18
0Current Usings:  (CP,R11) (CV,R12)
0D-Loc  Object Code    Addr1 Addr2  Stmt Lv Lineno    Source Statement           (Hibal 5, Asmedit 3.3)  HLASM R4.0  2004/03/15 12.57
+_____  ______ ____    _____ _____  ____ __ ______    ______ _________
000002A                             7671  1          =TTRCIREM   DS    CL30                Data beyond header
                                    7672  1          =TTRCITOT   EQU   TTRCIHDR,*-TTRCIHDR,C'X'
                                    7673= 1          =           ¿þþþþþþþþþþþþþþþþþþþþþþþÜ
                                    7674= 1          =           Ÿ  IF TTRCNAME = 'MSG'  Ÿ
                                    7675= 1          =           ¾þþþþþþþþþþþþþþþþþþþþþþþ»
 000048                00048 00018  7676  1          =           ORG   TTRCDATA
 000018                             7677  1          =TTRCMSG    DS    CL40                Information message (blank pad)
 000040                00040 00048  7678             =         END
                                    7687
                                    7688                       COPY  VIRTTRC
                                    7689             =*
                                    7690             =**  VIRTUAL TRACE FORMAT
                                    7691             =*
 000000                00000 00052  7692             =VTRC     RECORD BEGIN
 000000                             7700  1          =VTRCCLCK   DS    D                   STCK CLOCK
                                    7701  1          =*
                                    7702  1          =*  IF PIBTRC...
 000008                             7703  1          =VTRCPTYP   DS    C                   TRACE TYPE (T=TO, F=FROM)
 000009                             7704  1          =           DS    X                   RESERVED
 00000A                             7705  1          =VTRCPRQS   DS    XL24                RQST
                                    7706  1          =VTRCP      EQU   VTRCCLCK,*-VTRCCLCK,C'X'
                                    7707  1          =
 000022                00022 00008  7708  1          =           ORG   VTRCCLCK+8
 000008                             7709  1          =VTRCNAME   DS    CL8                 TRACE NAME
 000010                             7710  1          =VTRCPNO    DS    H                   PORT NUMBER
                                    7711  1          =VTRCDATA   EQU   *
                                    7712  1          =*
                                    7713  1          =*  IF VTRCNAME = 'VIRT'...
 000012                00012 00012  7714  1          =           ORG   VTRCDATA
 000014                             7715  1          =VTRCSID    DS    F                   SESSION ID
 000018                             7716  1          =VTRCSACC   DS    CL5                 SESSION UUUGG
 00001D                             7717  1          =VTRCCMD    DS    X                   PDBCMD
 00001E                             7718  1          =VTRCCPL    DS    XL2                 PDBCPL  (VIRTPOST ONLY)
 000020                             7719  1          =VTRCTLEN   DS    H                   PDBLENG
 000022                             7720  1          =VTRCTEXT   DS    CL20                PDBTEXT
                                    7721  1          =*
                                    7722  1          =*  IF VTRCNAME = 'RQST'...
 000036                00036 00012  7723  1          =           ORG   VTRCDATA
 000012                             7724  1          =VTRCRQST   DS    XL64                RQST
 000052                00052 00052  7725             =         END
                                    7734
 000000                00000 00020  7735              VFTRACE  RECORD BEGIN
                                    7743  1                      COPY VFTRACE
                                    7744  1          =*        VFTRACE                   MILTEN TRACE RECORD FOR VTAM/SNA FEB
                                    7745  1          =*VFT     IDENT 0296                14:50:17 10/22/80 (RTS)
                                    7746  1          =*
 000000                             7747  1          =VFTSTRT    DS    0F                  START OF TRACE RECORD
 000000                             7748  1          =VFTCLCK    DS    D                   STCK CLOCK
 000008                             7749  1          =VFTNAME    DS    CL8                 NAME OF EVENT
 000010                             7750  1          =VFTTYPE    DS    X                   TYPE OF ENTRY
                                    7751  1          =VFTOPCLS   EQS   VFTTYPE,4           FOR OPEN ACB | CLOSE ACB
 VFTTYPE.VFTOPCLS  EQ               7752  1 01-EQS   +VFTOPCLS   EQU   VFTTYPE,4,24
                                    7754  1          =VFTLTL     EQS   VFTTYPE,8           FOR LOSTTERM | TPEND | LOGON | ERR
 VFTTYPE.VFTLTL    EQ               7755  1 01-EQS   +VFTLTL     EQU   VFTTYPE,8,24
1TINT     (TINT2047) (12:57) (15MAR04) DSECTS                                                                               Page   19
0Current Usings:  (CP,R11) (CV,R12)
0D-Loc  Object Code    Addr1 Addr2  Stmt Lv Lineno    Source Statement           (Hibal 5, Asmedit 3.3)  HLASM R4.0  2004/03/15 12.57
+_____  ______ ____    _____ _____  ____ __ ______    ______ _________
0                                   7757  1          =VFTLMODE   EQS   VFTTYPE,12          FOR LOGMODE
 VFTTYPE.VFTLMODE  EQ               7758  1 01-EQS   +VFTLMODE   EQU   VFTTYPE,12,24
                                    7760  1          =
 000011                             7761  1          =VFTVFLG1   DS    X                   FROM FEB AT ENTRY
 000012                             7762  1          =VFTFVLG2   DS    X                         "
-000014                             7764  1          =VFTTEXT    DS    0F                  VARIABLE TEXT
                                    7765  1          =*
                                    7766  1          =*VFTOPCLS                          FOR OPEN ACB | CLOSE ACB
 000014                00014 00014  7767  1          =           ORG   VFTTEXT
 000014                             7768  1          =VFTOFLGS   DS    X                   ACBOFLGS
 000015                             7769  1          =VFTERFLG   DS    X                   ACBERFLGS
                                    7770  1          =*
                                    7771  1          =*VFTLTL                            FOR LOSTTERM | TPEND | LOGON | ERR
 000016                00016 00014  7772  1          =           ORG   VFTTEXT
 000014                             7773  1          =VFTPORTN   DS    CL8                 PORT NAME
 00001C                             7774  1          =VFTCODE    DS    X                   REASON CODE
 000020                             7775  1          =           DS    0F                  ROUND TO FULL WORD
                                    7776  1          =*
                                    7777  1          =*VFTLMODE                          FOR LOGMODE
 000020                00020 00014  7778  1          =           ORG   VFTTEXT
 000014                             7779  1          =VFTRTNCD   DS    X                   RPLRTNCD
 000015                             7780  1          =VFTFDBK2   DS    X                   RPLFDB2
 000016                             7781  1          =VFTOPT11   DS    X                   RPLOPT11
                                    7782  1          =
                                    7783  1          =VFT#       EQU   20                  NUMBER OF TRACE ENTRIES
 000017                00017 00020  7784                       END
                                    7793
 000000                00000 00020  7794              VPTRACE  RECORD BEGIN
                                    7802  1                      COPY VPTRACE
                                    7803  1          =*        VPTRACE                   MILTEN TRACE RECORD FOR VTAM/SNA PIB
                                    7804  1          =*VPT     IDENT 0302                16:40:38 10/28/80 (RTS)
                                    7805  1          =*
 000000                             7806  1          =VPTSTRT    DS    0F                  START OF TRACE RECORD
 000000                             7807  1          =VPTCLCK    DS    D                   STCK CLOCK
 000008                             7808  1          =VPTNAME    DS    CL8                 NAME OF EVENT
                                    7809  1          =
 000010                             7810  1          =VPTREQ     DS    X                   RPL REQ
 000011                             7811  1          =VPTSRTYP   DS    X                   RPL SRTYP
 000012                             7812  1          =VPTRTNCD   DS    X                   RPL RTNCD
 000013                             7813  1          =VPTFDBK2   DS    X                   RPL FDBK2
 000014                             7814  1          =VPTRH3     DS    X                   RPL RH3
 000015                             7815  1          =VPTCHN     DS    X                   RPL CHN (CHAIN)
 000016                             7816  1          =VPTSNF     DS    H                   SNA SEQ NUMBER FIELD
 000018                             7817  1          =VPTSTATE   DS    X                   SOFTWARE STATE CODE
 000019                             7818  1          =VPTFLGS    DS    XL3                 FLAGS
 00001C                             7819  1          =VPTSENS    DS    XL4                 SENSE BYTES
                                    7820  1          =VPTSIGNL   EQU   VPTSENS,4,C'X'      SIGNAL DATA
                                    7821  1          =VPTEND     EQU   *                   END OF TRACE RECORD
                                    7822  1          =
                                    7823  1          =VPT#       EQU   10                  NUMBER OF TRACE ENTRIES
 000020                00020 00020  7824                       END
1TINT     (TINT2047) (12:57) (15MAR04) DSECTS                                                                               Page   20
0Current Usings:  (CP,R11) (CV,R12)
0Loc    Object Code    Addr1 Addr2  Stmt Lv Lineno    Source Statement           (Hibal 5, Asmedit 3.3)  HLASM R4.0  2004/03/15 12.57
+___    ______ ____    _____ _____  ____ __ ______    ______ _________
0                                   7834                       COPY  PSB
                                    7835             =*
                                    7836             =**  Port Status Block
                                    7837             =*
 000000                00000 00074  7838             =PSB      RECORD BEGIN
 000000                             7846  1          =PSBFEID    DS    H                   Front-end identifier
 000002                             7847  1          =PSBPNO     DS    H                   Port number
                                    7848  1          =
 000004 00                          7849  1          =PSBTTYPE   FLAG  ,                   Terminal type (copy of FEBTYPE)
 PSBTTYPE.PSBTCONS 01 EQ            7853  1          =           FLAG  (PSBTCONS,1,EQ)     - Console
 PSBTTYPE.PSBTASYN 02 EQ            7863  1          =           FLAG  (PSBTASYN,2,EQ)     - Async
 PSBTTYPE.PSBTPDP  03 EQ            7873  1          =           FLAG  (PSBTPDP,3,EQ)      - Pdp
 PSBTTYPE.PSBTVTAM 04 EQ            7883  1          =           FLAG  (PSBTVTAM,4,EQ)     - Vtam
 PSBTTYPE.PSBTVIRT 05 EQ            7893  1          =           FLAG  (PSBTVIRT,5,EQ)     - Virtual
 PSBTTYPE.PSBTNSC  06 EQ            7903  1          =           FLAG  (PSBTNSC,6,EQ)      - Nsc
 PSBTTYPE.PSBTELF  07 EQ            7913  1          =           FLAG  (PSBTELF,7,EQ)      - Elf
 PSBTTYPE.PSBTALF  08 EQ            7923  1          =           FLAG  (PSBTALF,8,EQ)      - Alf
 PSBTTYPE.PSBTECU  09 EQ            7933  1          =           FLAG  (PSBTECU,9,EQ)      - ECU
 PSBTTYPE.PSBTMAX  09 EQ            7943  1          =           FLAG  (PSBTMAX,9,EQ)
                                    7953  1          =
 000005                             7954  1          =           DS    XL3                 Reserved
                                    7955  1          =
 000008                             7956  1          =PSBPIBP    DS    A                   Address of PIB
                                    7957  1          =
 00000C                             7958  1          =PSBFENM    DS    CL8                 Front-end name
                                    7959  1          =
 000014                             7960  1          =PSBUC      DS    H                   Update count
                                    7961  1          =
 000016                             7962  1          =           DS    XL2                 Reserved
                                    7963  1          =
 000018                             7964  1          =PSBNAME    DS    CL8                 Port name
 000020                             7965  1          =PSBINFO    DS    CL20                Port information
 000034                             7966  1          =PSBLOC     DS    CL20                Port location
                                    7967  1          =
 000048 00                          7968  1          =PSBFLAG    FLAG
 PSBFLAG.PSBFDIAL  80 ONES          7972  1          =           FLAG  PSBFDIAL            - Dial-up
 PSBFLAG.PSBFSUN   40 ONES          7977  1          =           FLAG  PSBFSUN             - SUNet
 PSBFLAG.PSBFDIR   20 ONES          7982  1          =           FLAG  PSBFDIR             - Direct
 PSBFLAG.PSBFGAND  10 ONES          7987  1          =           FLAG  PSBFGAND            - Gandalf
 PSBFLAG.PSBFDUMB  08 ONES          7992  1          =           FLAG  PSBFDUMB            - Dumb front-end
                                    7997  1          =
 000049 00                          7998  1          =PSBFLAG2   FLAG
 PSBFLAG2.PSBFLEAS 80 ONES          8002  1          =           FLAG  PSBFLEAS            - Teased
 PSBFLAG2.PSBFTEL  40 ONES          8007  1          =           FLAG  PSBFTEL             - Telenet
 PSBFLAG2.PSBFTYM  20 ONES          8012  1          =           FLAG  PSBFTYM             - Tymnet
 PSBFLAG2.PSBFRLIN 10 ONES          8017  1          =           FLAG  PSBFRLIN            - Rlin
                                    8022  1          =
 00004A 00                          8023  1          =PSBFLAG3   FLAG
 PSBFLAG3.PSBFPS   80 ONES          8027  1          =           FLAG  PSBFPS              - "Pseudo" port
 PSBFLAG3.PSBFPTID 40 ONES          8032  1          =           FLAG  PSBFPTID            - Terminal id is pre-assigned
 PSBFLAG3.PSBFOP   20 ONES          8037  1          =           FLAG  PSBFOP              - Operator
                                    8042  1          =
 00004B 00                          8043  1          =PSBFLAG4   FLAG
 PSBFLAG4.PSBFSTOP 80 ONES          8047  1          =           FLAG  PSBFSTOP            - Stopped
1TINT     (TINT2047) (12:57) (15MAR04) DSECTS                                                                               Page   21
0Current Usings:  (CP,R11) (CV,R12)
0Loc    Object Code    Addr1 Addr2  Stmt Lv Lineno    Source Statement           (Hibal 5, Asmedit 3.3)  HLASM R4.0  2004/03/15 12.57
+___    ______ ____    _____ _____  ____ __ ______    ______ _________
0PSBFLAG4.PSBFDET  40 ONES          8052  1          =           FLAG  PSBFDET             - Detached
 PSBFLAG4.PSBFDUM  20 ONES          8057  1          =           FLAG  PSBFDUM             - Dummy
                                    8062  1          =
 00004C 00                          8063  1          =PSBFLAG5   FLAG
 PSBFLAG5.PSBFDOWN 80 ONES          8067  1          =           FLAG  PSBFDOWN            - Status: down
 PSBFLAG5.PSBFHU   40 ONES          8072  1          =           FLAG  PSBFHU              - Status: hung-up
 PSBFLAG5.PSBFERR  20 ONES          8077  1          =           FLAG  PSBFERR             - Status: serious error occurred
                                    8082  1          =
 00004D                             8083  1          =           DS    X                   Reserved
                                    8084  1          =
 00004E                             8085  1          =PSBSCUR    DS    H                   Current no. of sessions
 000050                             8086  1          =PSBSMAX    DS    H                   Max no. of sessions
 000052                             8087  1          =PSBSMCLK   DS    XL8                 Clock at max
 00005C                             8088  1          =PSBNSES    DS    F                   Total no. of sessions
                                    8089  1          =
 000060                             8090  1          =PSBNIO     DS    F                   Total no. of I/O's
 000064                             8091  1          =PSBNHWE    DS    F                   Total no. of hw errors
                                    8092  1          =
 000068                             8093  1          =           DS    3F                  Reserved
                                    8094  1          =PSBBASIC   EQU   PSBUC,*-PSBUC,C'X'  ******
 000074                00074 00074  8095             =         END
1TINT     (TINT2047) (12:57) (15MAR04) DSECTS                                                                               Page   22
0Current Usings:  (CP,R11) (CV,R12)
0Loc    Object Code    Addr1 Addr2  Stmt Lv Lineno    Source Statement           (Hibal 5, Asmedit 3.3)  HLASM R4.0  2004/03/15 12.57
+___    ______ ____    _____ _____  ____ __ ______    ______ _________
0                                   8105                       COPY  SSB
                                    8106             =*
                                    8107             =**  SUBSYSTEM STATUS BLOCK
                                    8108             =*
 000000                00000 00038  8109             =SSB      RECORD BEGIN
 000000                             8117  1          =SSBID      DS    H                   SUBSYSTEM IDENTIFIER
 000002                             8118  1          =           DS    H                   RESERVED
                                    8119  1          =
 000004                             8120  1          =SSBNAME    DS    CL8                 SUBSYSTEM NAME
 00000C                             8121  1          =SSBJOBNM   DS    CL8                 SUBSYSTEM JOBNAME
 000014 00                          8122  1          =SSBFLAG    FLAG
 SSBFLAG.SSBFPRIV  80 ONES          8126  1          =           FLAG  SSBFPRIV            - PRIV'D SUBSYSTEM
                                    8131  1          =
 000015                             8132  1          =           DS    XL3                 RESERVED
                                    8133  1          =
 000018                             8134  1          =SSBSCLCK   DS    XL8                 CLOCK AT START
                                    8135  1          =
 000020                             8136  1          =SSBMAX     DS    H                   MAXIMUM NO. OF SESSIONS
 000022                             8137  1          =SSBCUR     DS    H                   CURRENT NO. OF SESSIONS
                                    8138  1          =
 000024                             8139  1          =SSBNIO     DS    F                   TOTAL NO. OF I/O'S
 000028                             8140  1          =SSBNCNTL   DS    F                   TOTAL NO. OF CONTROLS
 00002C                             8141  1          =SSBNSES    DS    F                   TOTAL NO. OF SESSIONS
 000030                             8142  1          =           DS    2F                  RESERVED
                                    8143  1          =SSBBASIC   EQU   SSBNAME,*-SSBNAME,C'X'  ******
 000038                00038 00038  8144             =         END
1TINT     (TINT2047) (12:57) (15MAR04) DSECTS                                                                               Page   23
0Current Usings:  (CP,R11) (CV,R12)
0Loc    Object Code    Addr1 Addr2  Stmt Lv Lineno    Source Statement           (Hibal 5, Asmedit 3.3)  HLASM R4.0  2004/03/15 12.57
+___    ______ ____    _____ _____  ____ __ ______    ______ _________
0000000                00000 000FE  8154                       RECORD 'SIB'
 000000                             8165  1 03-SIB   +SIBSTART   DS    0F
 000000                             8166  1 03-SIB   +SIBID      DS    F                   Unique session number
 000004                             8167  1 03-SIB   +SIBNO      DS    H                   Session number
 000006                             8168  1 03-SIB   +SIBTMINC   DS    H                   No. minutes session was idle
                                    8169  1 03-SIB   +SIBIHDR    EQU   SIBSTART,*-SIBSTART,C'X'
                                    8170  1          +
 000008                             8171  1 03-SIB   +SIBFE      DS    CL8                 Front-end name
                                    8172  1          +
 000010                             8173  1 03-SIB   +SIBPORT    DS    CL8                 Port name
 000018                             8174  1 03-SIB   +SIBPINFO   DS    CL20                Port information
 00002C                             8175  1 03-SIB   +SIBPLOC    DS    CL20                Port location
 000040 00                          8176  1          +*
 SIBFL.SIBFDIAL    80 ONES
 SIBFL.SIBFSUN     40 ONES
 SIBFL.SIBFDIR     20 ONES
 SIBFL.SIBFGAND    10 ONES
 SIBFL.SIBFDUMB    08 ONES
 000041 00                          8206  1          +*
 SIBFL2.SIBFLEAS   80 ONES
 SIBFL2.SIBFTEL    40 ONES
 SIBFL2.SIBFTYM    20 ONES
 SIBFL2.SIBFRLIN   10 ONES
 000042 00                          8231  1          +*
 SIBFL3.SIBFPS     80 ONES
 SIBFL3.SIBFPTID   40 ONES
 SIBFL3.SIBFOP     20 ONES
 000043 00                          8251  1          +*
 SIBFL4.SIBFSTOP   80 ONES
 SIBFL4.SIBFDET    40 ONES
 SIBFL4.SIBFDUM    20 ONES
 000044 00                          8271  1          +*
 SIBFL5.SIBFDOWN   80 ONES
 SIBFL5.SIBFHU     40 ONES
 SIBFL5.SIBFERR    20 ONES
                                    8291  1          +*
 000045                             8292  1 03-SIB   +           DS    X                   Reserved
                                    8293  1 03-SIB   +SIBPIB     EQU   SIBPORT,*-SIBPORT,C'X'
                                    8294  1          +
 000048 00                          8295  1 03-SIB   +SIB1ST     DS    0F
 SIBTYPE.SIBTCONS  01 EQ
 SIBTYPE.SIBTASYN  02 EQ
 SIBTYPE.SIBTPDP   03 EQ
 SIBTYPE.SIBTVTAM  04 EQ
 SIBTYPE.SIBTVIRT  05 EQ
 SIBTYPE.SIBTNSC   06 EQ
 SIBTYPE.SIBTELF   07 EQ
 SIBTYPE.SIBTALF   08 EQ
                                    8380  1          +
 000049                             8381  1 03-SIB   +SIBTINFO   DS    XL2                 Terminal info flags
 00004B 00                          8382  1          +*
 SIBSTAT.SIBFDSC   80 ONES
 SIBSTAT.SIBFLGF   40 ONES
 SIBSTAT.SIBFSOF   20 ONES
1TINT     (TINT2047) (12:57) (15MAR04) DSECTS                                                                               Page   24
0Current Usings:  (CP,R11) (CV,R12)
0Loc    Object Code    Addr1 Addr2  Stmt Lv Lineno    Source Statement           (Hibal 5, Asmedit 3.3)  HLASM R4.0  2004/03/15 12.57
+___    ______ ____    _____ _____  ____ __ ______    ______ _________
0SIBSTAT.SIBFKL    10 ONES
 SIBSTAT.SIBFTO    08 ONES
 SIBSTAT.SIBFMT    04 ONES
 SIBSTAT.SIBFKEPT  02 ONES
                                    8422  1          +*
 00004C                             8423  1 03-SIB   +SIBNMSG    DS    H                   No. of async msgs waiting
                                    8424  1          +
 00004E                             8425  1 03-SIB   +SIBTETYP   DS    C                   SMF port type
 00004F                             8426  1 03-SIB   +           DS    X                   Reserved (was line-speed)
                                    8427  1          +
 000050                             8428  1 03-SIB   +SIBSUB     DS    CL8                 Current subsystem
                                    8429  1          +
 000058                             8430  1 03-SIB   +           DS    0F
 000058                             8431  1 03-SIB   +SIBVPGM    DS    CL8                 ORVYL program
 000060                             8432  1 03-SIB   +SIBVCPU    DS    F                   ORVYL CPU time used
 000064                             8433  1 03-SIB   +SIBVFLAG   DS    X                   ORVYL flags
                                    8434  1 03-SIB   +SIBVFRUN   EQU   X'80'               - Program is running (not paused)
                                    8435  1 03-SIB   +SIBVFATH   EQU   X'40'               - Program is authorized
 000065                             8436  1 03-SIB   +SIBVDIO    DS    XL3                 ORVYL Disk I/O
                                    8437  1 03-SIB   +SIBVINFO   EQU   SIBVPGM,*-SIBVPGM,C'X'
                                    8438  1          +
 000068                             8439  1 03-SIB   +SIBLCLCK   DS    XL8                 Tod clock at logon
                                    8440  1          +
                                    8441  1 03-SIB   +SIBACCT    EQU   *,5,C'C'            Account (uuugg)
 000070                             8442  1 03-SIB   +SIBUSER    DS    CL3                 .uuu
 000073                             8443  1 03-SIB   +SIBGRP     DS    CL2                 .gg
 000075                             8444  1 03-SIB   +SIBANO     DS    XL2                 .number
 000077 00                          8445  1          +*
 SIBSFLG.SIBSFNAT  80 ONES
 SIBSFLG.SIBSFNAR  40 ONES
 SIBSFLG.SIBSFPS   20 ONES
 SIBSFLG.SIBSFOP   10 ONES
 SIBSFLG.SIBSFSEC  08 ONES
 SIBSFLG.SIBSFPRT  04 ONES
 000078 00                          8480  1          +*
 SIBTACF.SIBFNST   80 ONES
 SIBTACF.SIBFNTM   40 ONES
 SIBTACF.SIBRSVX20 20 ONES
 SIBTACF.SIBRSVX10 10 ONES
 SIBTACF.SIBRSVX08 08 ONES
 SIBTACF.SIBRSVX04 04 ONES
 SIBTACF.SIBFNDAY  02 ONES
 SIBTACF.SIBRSVX01 01 ONES
                                    8525  1          +*
 000079                             8526  1 03-SIB   +           DS    X                   Reserved
 00007A 00                          8527  1          +*
 SIBKIFL.SIBFIVAL  80 ONES
 SIBKIFL.SIBFAPR   40 ONES
 SIBKIFL.SIBFSPR   20 ONES
 SIBKIFL.SIBFOPR   10 ONES
 SIBKIFL.SIBFSBM   08 ONES
 SIBKIFL.SIBFSUB   04 ONES
 SIBKIFL.SIBFADM   02 ONES
 SIBKIFL.SIBFPC    01 ONES
1TINT     (TINT2047) (12:57) (15MAR04) DSECTS                                                                               Page   25
0Current Usings:  (CP,R11) (CV,R12)
0Loc    Object Code    Addr1 Addr2  Stmt Lv Lineno    Source Statement           (Hibal 5, Asmedit 3.3)  HLASM R4.0  2004/03/15 12.57
+___    ______ ____    _____ _____  ____ __ ______    ______ _________
000007B 00                          8572  1          +*
 SIBKAFL.SIBFAVAL  80 ONES
 SIBKAFL.SIBFR1    40 ONES
 SIBKAFL.SIBFR2    20 ONES
 SIBKAFL.SIBFR3    10 ONES
 SIBKAFL.SIBFTOK   08 ONES
                                    8602  1          +*
 00007C                             8603  1 03-SIB   +SIBASCBP   DS    A                   ASCB addr, if virtual session
                                    8604  1 03-SIB   +SIBSESS    EQU   SIBACCT,*-SIBACCT,C'X'
                                    8605  1 03-SIB   +SIBINFO    EQU   SIBSTART,*-SIBSTART,C'X'
                                    8606  1          +***
                                    8607  1          +***  Fields below here can be modified by the user program.
                                    8608  1          +***
 000080                             8609  1 03-SIB   +SIBOPST    DS    0F
 000080                             8610  1 03-SIB   +SIBUC      DS    H                   Update count
 000082                             8611  1 03-SIB   +SIBNAME    DS    CL20                User name
 000096                             8612  1 03-SIB   +SIBTID     DS    CL8                 Terminal id
 00009E 00                          8613  1 03-SIB   +SIBTCLS    DS    CL8                 Terminal class
 SIBTFLAG.SIBFMOD  80 ONES
 SIBTFLAG.SIBFSAM  40 ONES
 SIBTFLAG.SIBFALTD 20 ONES
                                    8633  1          +
 0000A7                             8634  1 03-SIB   +           DS    XL1                 Reserved
 0000A8 00                          8635  1          +*
 SIBQFLG.SIBFVFAST 80 ONES
 0000A9 00                          8645  1          +*
 0000AA 00                          8650  1          +*
 SIBUFLG.SIBFNMSG  80 ONES
 SIBUFLG.SIBFNCOM  40 ONES
 SIBUFLG.SIBFNBRK  20 ONES
 SIBUFLG.SIBFNTIM  10 ONES
 SIBUFLG.SIBFCLN   08 ONES
 SIBUFLG.SIBFDISP  04 ONES
 SIBUFLG.SIBFPERM  02 ONES
 SIBUFLG.SIBFTRAN  01 ONES
 0000AB 00                          8695  1          +*
 SIBUFLG2.SIBFTRC  80 ONES
 SIBUFLG2.SIBFKEEP 40 ONES
                                    8710  1 03-SIB   +SIBG       EQU   SIBSTART,*-SIBSTART,C'X'
                                    8711  1          +***
                                    8712  1          +***  Information below this line is considered "private" and
                                    8713  1          +***    the user can only sense it for his own session.
                                    8714  1          +***
 0000AC                             8715  1 03-SIB   +SIBPROJ    DS    CL8                 Project-id
 0000B4 00                          8716  1          +*
 SIBFLG.SIBFUPL    80 ONES
 SIBFLG.SIBFBACK   40 ONES
 SIBFLG.SIBFFAST   20 ONES
 SIBFLG.SIBFRSV8   10 ONES
 SIBFLG.SIBFPSP    08 ONES
 SIBFLG.SIBFXON    04 ONES
 SIBFLG.SIBFFILT   02 ONES
 SIBFLG.SIBFNECH   01 ONES
 0000B5 00                          8761  1          +*
1TINT     (TINT2047) (12:57) (15MAR04) DSECTS                                                                               Page   26
0Current Usings:  (CP,R11) (CV,R12)
0Loc    Object Code    Addr1 Addr2  Stmt Lv Lineno    Source Statement           (Hibal 5, Asmedit 3.3)  HLASM R4.0  2004/03/15 12.57
+___    ______ ____    _____ _____  ____ __ ______    ______ _________
0SIBFLG2.SIBFSAMFO 80 ONES
 SIBFLG2.SIBFERA   40 ONES
 SIBFLG2.SIBFNTYP  20 ONES
                                    8781  1          +*
 0000B6                             8782  1 03-SIB   +SIBINMX    DS    H                   Maximum input length allowed
 0000B8                             8783  1 03-SIB   +SIBOUMX    DS    H                   Maximum output length allowed
 0000BA                             8784  1 03-SIB   +SIBCHAR    DS    CL8                 Terminal translate table name
 0000C2                             8785  1 03-SIB   +SIBTABS    DS    XL16                Tabs
 0000D2 00                          8786  1          +*
 SIBOFLAG.SIBFPAR  80 ONES
 SIBOFLAG.SIBFEVEN 40 ONES
 SIBOFLAG.SIBFODD  20 ONES
 SIBOFLAG.SIBFMARK 10 ONES
 SIBOFLAG.SIBFQUIE 08 ONES
 0000D3                             8816  1 03-SIB   +           DS    X                   Reserved
 0000D4                             8817  1 03-SIB   +SIBWID     DS    H                   Terminal width, actual
 0000D6                             8818  1 03-SIB   +SIBHEIP    DS    H                   Terminal height, before pausing
 0000D8                             8819  1 03-SIB   +SIBHEI     DS    H                   Terminal height, actual
                                    8820  1          +
 0000DA                             8821  1 03-SIB   +SIBTTYPE   DS    CL8                 Terminal type
 0000E2                             8822  1 03-SIB   +           DS    XL2                 Reserved
 0000E4                             8823  1 03-SIB   +SIBIPADR   DS    F                   IP address for TCP/IP sessions
 0000E8                             8824  1 03-SIB   +           DS    XL2                 Reserved
                                    8825  1          +
 0000EA                             8826  1 03-SIB   +SIBIDMAX   DS    H                   Max no. of idle minutes allowed
                                    8827  1          +
 0000EC                             8828  1 03-SIB   +SIBALTWID   DS   H                   Alternate width (0=none)
 0000EE                             8829  1 03-SIB   +SIBALTHEI   DS   H                   Alternate height (0=none)
                                    8830  1          +
 0000F0                             8831  1 03-SIB   +SIBCRI     DS    2H                  CR idles
 0000F4                             8832  1 03-SIB   +SIBLFI     DS    H                   LF idles
 0000F6                             8833  1 03-SIB   +SIBHTI     DS    2H                  HT idles
 0000FA                             8834  1 03-SIB   +SIBCAI     DS    H                   Cursor-address idles
 0000FC                             8835  1 03-SIB   +SIBCSI     DS    H                   Clear-screen idles
                                    8836  1 03-SIB   +SIBIDLE    EQU   SIBCRI,*-SIBCRI,C'X'
                                    8837  1          +
                                    8838  1 03-SIB   +SIBOPT     EQU   SIBOPST,*-SIBOPST,C'X'
                                    8839  1          +
                                    8840  1 03-SIB   +SIB1       EQU   SIB1ST,*-SIB1ST,C'X'
                                    8841  1          +
 0000FE                000FE 000FE  8842    03-SIB   +SIB      EQU   SIBSTART,*-SIBSTART,C'X'
1TINT     (TINT2047) (12:57) (15MAR04) DSECTS                                                                               Page   27
0Current Usings:  (CP,R11) (CV,R12)
0Loc    Object Code    Addr1 Addr2  Stmt Lv Lineno    Source Statement           (Hibal 5, Asmedit 3.3)  HLASM R4.0  2004/03/15 12.57
+___    ______ ____    _____ _____  ____ __ ______    ______ _________
0                                   8853                       COPY  TRANGE
 000000                00000 00030  8854             =RNE      RECORD BEGIN              Range entry (see rngcb)
 000000                             8862  1          =RNELEN     DS    X                   Length
 000001 00                          8863  1          =RNEIFLAG   FLAG
 RNEIFLAG.RNEFMULT 80 ONES          8867  1          =           FLAG  RNEFMULT            - Multiple
                                    8872  1          =
 000002                             8873  1          =           DS    XL2                 Reserved
                                    8874  1          =
 000004 00                          8875  1          =RNEFLAG    FLAG
 RNEFLAG.RNEFQ     80 ONES          8879  1          =           FLAG  RNEFQ               - Text was quoted
 RNEFLAG.RNEFALL   40 ONES          8884  1          =           FLAG  RNEFALL             - Include pseudo stuff
 000005                             8889  1          =           DS    XL3                 Reserved
                                    8890  1          =
 000008                             8891  1          =           DS    2F                  Reserved
                                    8892  1          =RNEHDR     EQU   RNEFLAG,*-RNEFLAG,C'X'
                                    8893  1          =*
                                    8894  1          =*RNETEXT DS    CL20                Range text
 000010                             8895  1          =RNETEXT    DS    CL32                Range text ; gg.sch 3/92
 000030                00030 00030  8896             =         END
1TINT     (TINT2047) (12:57) (15MAR04) DSECTS                                                                               Page   28
0Current Usings:  (CP,R11) (CV,R12)
0Loc    Object Code    Addr1 Addr2  Stmt Lv Lineno    Source Statement           (Hibal 5, Asmedit 3.3)  HLASM R4.0  2004/03/15 12.57
+___    ______ ____    _____ _____  ____ __ ______    ______ _________
0000000                00000 0029A  8906             =RNGCB    RECORD BEGIN
                                    8914  1          =
                                    8915  1          =RNGOPT     EQU   *,4,C'F'            Range option word
 000000                             8916  1          =           DS    H                   Reserved
 000002                             8917  1          =RNGTYPE    DS    X                   Range type
                                    8918  1          =RNGTFE     EQU   1                   - Fe-range wanted
                                    8919  1          =RNGTPORT   EQU   2                   - Port-range wanted
                                    8920  1          =RNGTSES    EQU   3                   - Session-range wanted
                                    8921  1          =
 000003 00                          8922  1          =RNGOFLAG   FLAG
 RNGOFLAG.RNGFDALL 80 ONES          8926  1          =           FLAG  RNGFDALL            - Default range is all
 RNGOFLAG.RNGFDOUR 40 ONES          8931  1          =           FLAG  RNGFDOUR            - Default range is our line
 RNGOFLAG.RNGFMULT 20 ONES          8936  1          =           FLAG  RNGFMULT            - Multiple
 RNGOFLAG.RNGFLIST 10 ONES          8941  1          =           FLAG  RNGFLIST            - List
 RNGOFLAG.RNGFVER  08 ONES          8946  1          =           FLAG  RNGFVER             - Verify
                                    8951  1          =
 000004                             8952  1          =RNGCOSEL   DS    A          [Order]  Selection co-routine addr
 000008                             8953  1          =RNGCORTN   DS    A          [Order]  Co-routine addr
                                    8954  1          =
 00000C 00                          8955  1          =RNGFLAG    FLAG
 RNGFLAG.RNGFALL   80 ONES          8959  1          =           FLAG  RNGFALL             - All
 RNGFLAG.RNGFDIAL  40 ONES          8964  1          =           FLAG  RNGFDIAL            - Dial
 RNGFLAG.RNGFTRAN  20 ONES          8969  1          =           FLAG  RNGFTRAN            - Tran
 RNGFLAG.RNGFDIR   10 ONES          8974  1          =           FLAG  RNGFDIR             - Direct
 RNGFLAG.RNGFLEAS  08 ONES          8979  1          =           FLAG  RNGFLEAS            - Leased
 RNGFLAG.RNGFSMF   04 ONES          8984  1          =           FLAG  RNGFSMF             - Show SMF code
                                    8989  1          =
 00000D 00                          8990  1          =RNGFLAG2   FLAG
 RNGFLAG2.RNGFSOME 80 ONES          8994  1          =           FLAG  RNGFSOME            - Non-void range
                                    8999  1          =
 00000E                             9000  1          =RNGTTYPE   DS    X                   Device type to match (see "fsbtype")
                                    9001  1          =
 00000F                             9002  1          =RNGLTYPE   DS    X                   Local copy of "rngtype"
                                    9003  1          =
 000010                             9004  1          =           DS    2F                  Reserved
                                    9005  1          =
                                    9006  1          =RNG#       EQU   8                   Max no. of range items
 000018                             9007  1          =RNGM       DS    H                   Max offset from "rng"
 00001A                             9008  1          =RNGN       DS    H                   Current offset from "rng"
 00001C                             9009  1          =RNG        DS    (RNG#)XL(L'RNE)     Range area
                                    9010  1          =
 00019C                             9011  1          =RNGITEMX   DS    0F
 00019C                0019C 0022C  9012  1          =           ORG   RNGITEMX+L'FSB
 00022C                0022C 00210  9013  1          =           ORG   RNGITEMX+L'PSB
 000210                00210 0029A  9014  1          =           ORG   RNGITEMX+L'SIB
 00029A                0029A 0029A  9015  1          =           ORG
                                    9016  1          =RNGITEM    EQU   RNGITEMX,*-RNGITEMX,C'X'
                                    9017  1          =
 00029A                0029A 0029A  9018             =         END
1TINT     (TINT2047) (12:57) (15MAR04) LOGON/LOGOFF Logging Routine                                                         Page   29
0Current Usings:  (CP,R11) (CV,R12)
0Loc    Object Code    Addr1 Addr2  Stmt Lv Lineno    Source Statement           (Hibal 5, Asmedit 3.3)  HLASM R4.0  2004/03/15 12.57
+___    ______ ____    _____ _____  ____ __ ______    ______ _________
0000000                00000 00009  9028              LGSESSWA RECORD BEGIN
 000000                             9036  1           LGSESSWL   DS    CL8                 Save for cmd name
 000008                             9037  1           LGSESSLL   DS    X                   Save for cmd name length
 000009                00009 00009  9038                       END
-                                   9048              ¿þþþþþþþþþþþþþþþþþþþþþþþþþþþþþþþþþþþþþþþþþþþþþþþþþþþþþþþþþþþþþþþþþþþþþÜ
                                    9049              Ÿ                                                                     Ÿ
                                    9050              Ÿ  LOGSESS -- Routine to log session logon/logoff.                    Ÿ
                                    9051              Ÿ                                                                     Ÿ
                                    9052              Ÿ    On entry:                                                        Ÿ
                                    9053              Ÿ      R1,R0 - msg text ("LOGON:" or "LOGOFF:")                       Ÿ
                                    9054              Ÿ                                                                     Ÿ
                                                      ¾þþþþþþþþþþþþþþþþþþþþþþþþþþþþþþþþþþþþþþþþþþþþþþþþþþþþþþþþþþþþþþþþþþþþþ»
0000018 50E0 D000/9008_      00000  9055              LOGSESS  XPROC LGSESSWA
 USING  *,R7
 USING  LGSESSWA-(4+36),R8
 000032 9102 C4C5/4710_004C5        9106                       IF    CVFTEST,LOGSEXIT
 00003A D604 B3B4 B3B4_003B4 003B4  9124                       IF    (CPSACCT,Z),LOGSEXIT
                                    9143              *        LA    R6,LGSESSWA         R6-->WA
                                    9144              *        USING LGSESSWA,R6
                                    9145              *
 000044 18F0                        9146                       LR    R15,R0              Get command length
 000046 59F0 72D6/47D0_      00308  9147                       CEIL  R15,L'LGSESSWL      Make sure of length
 000052 42F0 8030            00008  9166                       STC   R15,LGSESSLL        Save length
 000056 06F0/12FF/4740_             9167                       MOVE  R15,LGSESSWL,@R1    Save text
                                    9205
 000062 41F0 B050/58E0_      00050  9206                       TCLEAR
 00006C 4110 8028/1F00_      00000  9220                       TSEG  LGSESSWL,LC:LGSESSLL,B  Seg LOGON or LOGOFF
                                    9251
 000080 4110 B3B7/4100_      003B7  9252                       TSEG  CPSGRP
 000092 4110 7318/4100_      0034A  9280                       TSEG  '.'
 0000A4 4110 B3B4/4100_      003B4  9298                       TSEG  CPSUSER,,B
                                    9326
 0000B6 4110 B344            00344  9327                       LA    R1,CPSIB
 0000BA 58E0 72E6/0DEE       00318  9328                       VCALL LINEDISP
 0000C0 4DE0 70AA            000DC  9332                       LCALL LOGSWTO
                                    9334
 0000C4 41F0 B050/58E0_      00050  9335                       TCLEAR
                                    9349
                                    9350                       AIF   (NOT &PORTINF).PINF1
                                    9351              .PINF1   ANOP
                                    9352
 0000CE 18D8/9808 D004_             9353              LOGSEXIT PEND
 DROP   LGSESSWA-(4+36),R8
 DROP   *,R7
                                    9379
 0000DC 50E0 D000/9008_      00000  9380              LOGSWTO  PROC  ,
 USING  *,R7
 0000F6 181D/41D0 D104              9419                       XPUSH ,,260,PTR=R1
 0000FC 58F0 B05C            0005C  9422                       L     R15,CPSEGLENF
 000100 182F                        9423                       LR    R2,R15              R2 holds length
 000102 4130 1004            00004  9424                       LA    R3,@R1+4            R3 -> text
1TINT     (TINT2047) (12:57) (15MAR04) LOGON/LOGOFF Logging Routine                                                         Page   30
0Current Usings:  (*,R7) (CP,R11) (CV,R12)
0Loc    Object Code    Addr1 Addr2  Stmt Lv Lineno    Source Statement           (Hibal 5, Asmedit 3.3)  HLASM R4.0  2004/03/15 12.57
+___    ______ ____    _____ _____  ____ __ ______    ______ _________
0000106 4100 F004            00004  9425                       LA    R0,@R15+4
 00010A 4000 1000            00000  9426                       STH   R0,@R1              Len
 00010E D201 1002 7242 00002 00338  9427                       MVC   @R1+2(2),=X'0200'   MCS flags (hardcopy-SYSLOG only)
 000114 58E0 B070            00070  9428                       L     R14,CPSEGLOC        Load source address
 000118 06F0/12FF/4740_             9429                       MOVE  R15,@R1+4,@R14
 000124 0A23                        9467                       WTO   MF=(E,(1))
 000126 4BD0 7244            0033A  9470                       XPOP  ,,260
 00012A 18D8/9808 D004_             9472                       PEND  ,                   RETURN
 DROP   *,R7
                                    9492              *
                                    9493              *        DROP  R6
1TINT     (TINT2047) (12:57) (15MAR04) SHOW SYSTEMS Command                                                                 Page   31
0Current Usings:  (CP,R11) (CV,R12)
0Loc    Object Code    Addr1 Addr2  Stmt Lv Lineno    Source Statement           (Hibal 5, Asmedit 3.3)  HLASM R4.0  2004/03/15 12.57
+___    ______ ____    _____ _____  ____ __ ______    ______ _________
0                                   9495              ¿þþþþþþþþþþþþþþþþþþþþþþþþþþþþþþþþþþþþþþþþþþþþþþþþþþþþþþþþþþþþþþþþþþþþþÜ
                                    9496              Ÿ                                                                     Ÿ
                                    9497              Ÿ  SHOWSYS -- SHOW SYSTEMS command.                                   Ÿ
                                    9498              Ÿ                                                                     Ÿ
                                                      ¾þþþþþþþþþþþþþþþþþþþþþþþþþþþþþþþþþþþþþþþþþþþþþþþþþþþþþþþþþþþþþþþþþþþþþ»
0000138 50E0 D000/9008_      00000  9499              SHOWSYS  XPROC SSB
 USING  *,R7
 USING  SSB-(4+36),R8
                                    9550
 000152 58E0 71CA/0DEE       0031C  9551                       VCALL COLLOPTS            Allow collect options
                                    9555
 000158 1B66                        9556                       CLEAR R6
 00015A 4060 BC88            00C88  9560              SSYSLP   STH   R6,CPDOUB
 00015E 4110 BC88/4100_      00C88  9561                       TSEG  CPDOUB,2            Subsystem id
 000170 4100 0006/58E0_      00006  9591                       TCNTL CTLSNSS             Sense subsystem info
 00017A 4720 C7DE            007DE  9603                       BP    CVNEXT              All done
 00017E 4740 C7F6            007F6  9604                       BM    CVMILERR
                                    9605
 000182 D237 8028 1000 00000 00000  9606                       MVC   SSB,@R1             Save ssb
                                    9607
 000188 4110 802C/4100_      00004  9608                       TSEG  SSBNAME,,B
 00019A 4110 8034/4100_      0000C  9636                       SETMSG SSBJOBNM
 0001A2 1B22                        9650                       CLEAR R2
 0001A4 D607 8040 8040_00018 00018  9654                       IF    (SSBSCLCK,NZ),BEGIN
 0001AE 58E0 71D2/0DEE       00324  9670  1                      VCALL LOCALTOD
 0001B4 1820                        9674  1                      LR    R2,R0
 0001B6 1831                        9675  1                      LR    R3,R1
 0001B8 9801 8040            00018  9676  1                      LM    R0,R1,SSBSCLCK
 0001BC 18FD/41D0 D020              9677  1                      XPUSH ,,30,PTR=R15
 0001C2 58E0 71D6/0DEE       00328  9680  1                      VCALL FMTRCLCK
 0001C8 1820                        9684  1                      LR    R2,R0
 0001CA 41F0 B050/58E0_      00050  9685  1                      TSEG  (R1),(R0)           "hh:mm" or "hh:mm yy/dd/yyyy"
 0001D4 4BD0 71EA            0033C  9709  1                      XPOP  ,,30
 0001D8                             9711                       END
 0001D8 4100 0011            00011  9715                       LA    R0,17
 0001DC 1B02                        9716                       SR    R0,R2               Pad to 17 chars
 0001DE 4110 C4D8/41F0_      004D8  9717                       TSEG  CVBLANKS,(R0)
                                    9744
 0001EC 4810 804A/4100_      00022  9745                       TNUM  LH:SSBCUR,4
 0001FE 4110 71EC/4100_      0033E  9769                       TSEG  ' users'
 000210 4810 8048/4100_      00020  9787                       TNUM  LH:SSBMAX,5
 000222 4110 71DE/4100_      00330  9811                       TSEG  ' max'
 000234 5810 804C/4100_      00024  9829                       TNUM  L:SSBNIO,9
 000246 4110 71F2/4100_      00344  9854                       TSEG  ' I/O''s'
 000258 1B00/41F0 B050_             9872                       TWRITE
 000264 4770 C7DA            007DA  9897                       BNZ   CVABORT
 000268 4860 8028            00000  9898                       LH    R6,SSBID            Current subsystem id
 00026C 47F0 7008            0015A  9899                       B     SSYSLP
                                    9900
 000270 18D8/9808 D004_             9901                       PEND
 DROP   SSB-(4+36),R8
 DROP   *,R7
1TINT     (TINT2047) (12:57) (15MAR04) SHOW SYSTEMS Command                                                                 Page   32
0Current Usings:  (CP,R11) (CV,R12)
0Loc    Object Code    Addr1 Addr2  Stmt Lv Lineno    Source Statement           (Hibal 5, Asmedit 3.3)  HLASM R4.0  2004/03/15 12.57
+___    ______ ____    _____ _____  ____ __ ______    ______ _________
0                                   9927              ¿þþþþþþþþþþþþþþþþþþþþþþþþþþþþþþþþþþþþþþþþþþþþþþþþþþþþþþþþþþþþþþþþþþþþþÜ
                                    9928              Ÿ                                                                     Ÿ
                                    9929              Ÿ  SYSCHECK -- Routine to determine if the specified subsystem        Ÿ
                                    9930              Ÿ    is running.                                                      Ÿ
                                    9931              Ÿ                                                                     Ÿ
                                    9932              Ÿ      On entry:                                                      Ÿ
                                    9933              Ÿ        R1 - @ 8 character subsystem name                            Ÿ
                                    9934              Ÿ                                                                     Ÿ
                                    9935              Ÿ      On exit, R15 (and cc):                                         Ÿ
                                    9936              Ÿ        0  - yes                                                     Ÿ
                                    9937              Ÿ        nz - no                                                      Ÿ
                                    9938              Ÿ                                                                     Ÿ
                                                      ¾þþþþþþþþþþþþþþþþþþþþþþþþþþþþþþþþþþþþþþþþþþþþþþþþþþþþþþþþþþþþþþþþþþþþþ»
0000000                00000 00042  9939              SYSCWA   RECORD BEGIN
 000000                             9947  1           SYSCID     DS    H                   Working subsystem id
 000002                             9948  1           SYSCNAME   DS    CL8                 Subsystem name to check
 00000A                             9949  1           SYSCSSB    DS    XL(L'SSB)           Working subsystem info block
 000042                00042 00042  9950                       END
                                    9959              þþþþ
 00027E 50E0 D000/9008_      00000  9960              SYSCHECK XPROC SYSCWA
 USING  *,R7
 USING  SYSCWA-(4+36),R8
 000298 D207 802A 1000 00002 00000 10011                       MVC   SYSCNAME,@R1        Save subsystem name
                                   10012                       ¿þþþþþþþþþþþþþþþþþþþþþþþþþþþþþþþþþþþþþþþþþþþþþþþþþþþþþþþþþþþÜ
                                   10013                       Ÿ  Sense every subsystem and compare the name with the one  Ÿ
                                   10014                       Ÿ    we are looking for.                                    Ÿ
                                   10015                       ¾þþþþþþþþþþþþþþþþþþþþþþþþþþþþþþþþþþþþþþþþþþþþþþþþþþþþþþþþþþþ»
 00029E D701 8028 8028 00000 00000 10016                       CLEAR SYSCID              Start at first subsystem
                                   10023
 0002A4                            10024                       LOOP  BEGIN
 0002A4 41F0 B050/58E0_      00050 10030  1                      TCLEAR
 0002AE 4110 8028/4100_      00000 10044  1                      TSEG  SYSCID              Subsystem id
 0002C0 4100 0006/58E0_      00006 10072  1                      TCNTL CTLSNSS             Sense subsystem info
 0002CA 4770 705A            002F2 10084  1                      IF    NZ,EXIT             All done, scram
                                   10098  1
 0002CE 4160 8032            0000A 10099  1                      LA    R6,SYSCSSB
 USING  SSB,R6                     10100  1                      WITH  (SSB,R6)
 0002D2 D237 6000 1000 00000 00000 10113  1                      MVC   SSB,@R1             Save SSB
 0002D8 D507 6004 802A_00004 00002 10114  1                      IF    (SSBNAME,EQ,SYSCNAME),BEGIN  We found it...
 0002E2 1BFF                       10132  2                        CLEAR R15                 Set return code
 0002E4 47F0 705E            002F6 10136  2                        EXIT  SYSCHECK
 0002E8                            10139  1                      END
                                   10143  1
 0002E8 D201 8028 6000 00000 00000 10144  1                      MVC   SYSCID,SSBID        Set next id
 0002EE 47F0 700C            002A4 10145                       END
 DROP   SSB,R6
                                   10155                       ¿þþþþþþþþþþþþþþþþþþþþþþþþþþþþþþþþþþþþþþþþþþþþþþÜ
                                   10156                       Ÿ  Subsystem not found, give bad return code.  Ÿ
                                   10157                       ¾þþþþþþþþþþþþþþþþþþþþþþþþþþþþþþþþþþþþþþþþþþþþþþ»
 0002F2 41F0 0004            00004 10158                       LA    R15,4               Bad return code
 0002F6 18D8/9808 D004_            10159                       PEND
 DROP   SYSCWA-(4+36),R8
 DROP   *,R7
1TINT     (TINT2047) (12:57) (15MAR04) SHOW SYSTEMS Command                                                                 Page   33
0Current Usings:  (CP,R11) (CV,R12)
0Loc    Object Code    Addr1 Addr2  Stmt Lv Lineno    Source Statement           (Hibal 5, Asmedit 3.3)  HLASM R4.0  2004/03/15 12.57
+___    ______ ____    _____ _____  ____ __ ______    ______ _________
0                                  10184
                                   10185                       QLTORG
1TINT     (TINT2047) (12:57) (15MAR04) SHOW SYSTEMS Command                                                                 Page   34
0Current Usings:  (CP,R11) (CV,R12)
0Loc    Object Code    Addr1 Addr2  Stmt Lv Lineno    Source Statement           (Hibal 5, Asmedit 3.3)  HLASM R4.0  2004/03/15 12.57
+___    ______ ____    _____ _____  ____ __ ______    ______ _________
0                                  10216              ¿þþþþþþþþþþþþþþþþþþþþþþþþþþþþþþþþþþþþþþþþþþþþþþþþþþþþþþþþþþþþþþþþþþþþþÜ
                                   10217              Ÿ                                                                     Ÿ
                                   10218              Ÿ  SYSGTSSB -- Routine to return subsystem block contents.            Ÿ
                                   10219              Ÿ                                                                     Ÿ
                                   10220              Ÿ      On entry:                                                      Ÿ
                                   10221              Ÿ        R1 - @ 8 character subsystem name                            Ÿ
                                   10222              Ÿ        R2 - Pointer to buffer big enough to hold returned           Ÿ
                                   10223              Ÿ             SSB                                                     Ÿ
                                   10224              Ÿ                                                                     Ÿ
                                   10225              Ÿ      On exit, R15 (and cc):                                         Ÿ
                                   10226              Ÿ        0  - Subsystem information returned                          Ÿ
                                   10227              Ÿ        nz - Subsystem not up - no information returned              Ÿ
                                   10228              Ÿ                                                                     Ÿ
                                                      ¾þþþþþþþþþþþþþþþþþþþþþþþþþþþþþþþþþþþþþþþþþþþþþþþþþþþþþþþþþþþþþþþþþþþþþ»
0                                  10229              þþþþ
 000358 50E0 D000/9008_      00000 10230              SYSGTSSB XPROC SYSCWA
 USING  *,R7
 USING  SYSCWA-(4+36),R8
 000372 D207 802A 1000 00002 00000 10281                       MVC   SYSCNAME,@R1        Save subsystem name
                                   10282                       ¿þþþþþþþþþþþþþþþþþþþþþþþþþþþþþþþþþþþþþþþþþþþþþþþþþþþþþþþþþþþÜ
                                   10283                       Ÿ  Sense every subsystem and compare the name with the one  Ÿ
                                   10284                       Ÿ    we are looking for.                                    Ÿ
                                   10285                       ¾þþþþþþþþþþþþþþþþþþþþþþþþþþþþþþþþþþþþþþþþþþþþþþþþþþþþþþþþþþþ»
 000378 D701 8028 8028 00000 00000 10286                       CLEAR SYSCID              Start at first subsystem
                                   10293
 00037E                            10294                       LOOP  BEGIN
 00037E 41F0 B050/58E0_      00050 10300  1                      TCLEAR
 000388 4110 8028/4100_      00000 10314  1                      TSEG  SYSCID              Subsystem id
 00039A 4100 0006/58E0_      00006 10342  1                      TCNTL CTLSNSS             Sense subsystem info
 0003A4 4770 7060            003D2 10354  1                      IF    NZ,EXIT             All done, scram
                                   10368  1
 0003A8 4160 8032            0000A 10369  1                      LA    R6,SYSCSSB
 USING  SSB,R6                     10370  1                      WITH  (SSB,R6)
 0003AC D237 6000 1000 00000 00000 10383  1                      MVC   SSB,@R1             Save SSB
 0003B2 D507 6004 802A_00004 00002 10384  1                      IF    (SSBNAME,EQ,SYSCNAME),BEGIN  We found it...
 0003BC D237 2000 6000 00000 00000 10402  2                        MVC   0(L'SSB,R2),SSB     Copy it for the caller
 0003C2 1BFF                       10403  2                        CLEAR R15                 Set return code
 0003C4 47F0 7064            003D6 10407  2                        EXIT  SYSGTSSB
 0003C8                            10410  1                      END
                                   10414  1
 0003C8 D201 8028 6000 00000 00000 10415  1                      MVC   SYSCID,SSBID        Set next id
 0003CE 47F0 700C            0037E 10416                       END
 DROP   SSB,R6
                                   10426                       ¿þþþþþþþþþþþþþþþþþþþþþþþþþþþþþþþþþþþþþþþþþþþþþþÜ
                                   10427                       Ÿ  Subsystem not found, give bad return code.  Ÿ
                                   10428                       ¾þþþþþþþþþþþþþþþþþþþþþþþþþþþþþþþþþþþþþþþþþþþþþþ»
 0003D2 41F0 0004            00004 10429                       LA    R15,4               Bad return code
 0003D6 18D8/9808 D004_            10430                       PEND
 DROP   SYSCWA-(4+36),R8
 DROP   *,R7
                                   10455
                                   10456                       QLTORG
1TINT     (TINT2047) (12:57) (15MAR04) SHOW NETWORK Command                                                                 Page   35
0Current Usings:  (CP,R11) (CV,R12)
0Loc    Object Code    Addr1 Addr2  Stmt Lv Lineno    Source Statement           (Hibal 5, Asmedit 3.3)  HLASM R4.0  2004/03/15 12.57
+___    ______ ____    _____ _____  ____ __ ______    ______ _________
0000000                00000 0221C 10473              SHNETWA  RECORD BEGIN
 000000 00                         10481  1           SHNFLAG    FLAG
 SHNFLAG.SHNFADDR  80 ONES         10485  1                      FLAG  SHNFADDR            - Address
 SHNFLAG.SHNFTRC   40 ONES         10490  1                      FLAG  SHNFTRC             - Trace
 SHNFLAG.SHNFSOME  20 ONES         10495  1                      FLAG  SHNFSOME            - Have at least one trace entry
                                   10500  1
 000002                            10501  1           SHNTNO     DS    H                   No. of trace table entries
 000004                            10502  1           SHNTLEN    DS    H                   Length of an individual entry
                                   10503  1
 000006                            10504  1           SHNRNG     DS    XL(L'RNGCB)
                                   10505  1           SHNCB      SEGCB ,                   Saved CPSEG
 0002A0 00                         10506  1 01-SEGCB +$$$SEGCB103   DS 0F
 SHNCBCOD.SHNCBSEG 01 EQ
 SHNCBCOD.SHNCBWR  02 EQ
 SHNCBCOD.SHNCBCLR 03 EQ
 SHNCBCOD.SHNCBSPP 04 EQ
 SHNCBCOD.SHNCBOVF 05 EQ
 SHNCBCOD.SHNCBCR  06 EQ
 SHNCBCOD.SHNCBMAR 07 EQ
 0002A1 00                         10581  1 01-SEGCB +           DC    X'00'               Reserved
 0002A2 0000                              1          +
 0002A4 00000000                   10582  1 01-SEGCB +SHNCBMAXF   DC   A(0)                Maximum buffer length
 0002A8 00000000                   10583  1 01-SEGCB +SHNCBMRKF   DC   A(0)                Length at last mark
 0002AC 00000000                   10584  1 01-SEGCB +SHNCBLENF   DC   A(0)                Current length
 0002B0 00000000                   10585  1 01-SEGCB +SHNCBINDF   DC   A(0)                Overflow/indent count
 0002B4 00000000                   10586  1 01-SEGCB +SHNCBERR   DC    A(0)                Address of error recovery routine
 0002B8 0000000000000000           10587  1 01-SEGCB +           DC    2F'0'               Reserved
 0002C0 00000000                   10588  1 01-SEGCB +SHNCBLOC   DC    A(0)                Location of buffer
 0002C4 00000000                   10589  1 01-SEGCB +SHNCBRTN   DC    A(0)                Processing routine
 0002C8 0000000000000000           10590  1 01-SEGCB +           DC    4F'0'               Reserved
 0002D8 00000000                   10591  1 01-SEGCB +SHNCBUSR   DC    A(0)                USER field
                                   10592  1 01-SEGCB +SHNCB      EQU   $$$SEGCB103,*-$$$SEGCB103,C'X'
                                   10593  1           SHNINIT    EQU   SHNFLAG,*-SHNFLAG,C'X'
                                   10594  1
 0002DC                            10595  1                      DS    0F
 0002DC                            10596  1           SHNTRC     DS    XL8000              Trace area
 00221C                0221C 0221C 10597                       END
-                                  10607              ¿þþþþþþþþþþþþþþþþþþþþþþþþþþþþþþþþþþþþþþþþþþþþþþþþþþþþþþþþþþþþþþþþþþþþþÜ
                                   10608              Ÿ                                                                     Ÿ
                                   10609              Ÿ  SHOWNET -- SHOW NETWORK command.                                   Ÿ
                                   10610              Ÿ                                                                     Ÿ
                                                      ¾þþþþþþþþþþþþþþþþþþþþþþþþþþþþþþþþþþþþþþþþþþþþþþþþþþþþþþþþþþþþþþþþþþþþþ»
00003F4 50E0 D000/9008_      00000 10611              SHOWNET  XPROC
 USING  *,R7
 00040E 5820 7822            00C30 10651                       L     R2,=AL4(L'SHNETWA)  SHNETWA MUST BE PUSHED BY HAND
 000412 186D/1AD2/41D0_            10652                       XPUSH ,,(R2),PTR=R6       IT IS VERY BBBBIGGGG WORK AREA
 USING  SHNETWA,R6                 10657                       USING SHNETWA,R6
 00041E D7FF 6000 6000_00000 00000 10666                       CLEAR SHNINIT
 000430 5060 BCA4            00CA4 10675                       ST    R6,CPCWA
                                   10676
 000434 95E5 BD24/4770_00D24       10677                       IF    (CPCMNM,EQ,'V'),BEGIN  Show virtual...
1TINT     (TINT2047) (12:57) (15MAR04) SHOW NETWORK Command                                                                 Page   36
0Current Usings:  (SHNETWA,R6) (*,R7) (CP,R11) (CV,R12)
0Loc    Object Code    Addr1 Addr2  Stmt Lv Lineno    Source Statement           (Hibal 5, Asmedit 3.3)  HLASM R4.0  2004/03/15 12.57
+___    ______ ____    _____ _____  ____ __ ______    ______ _________
000043C 58E0 782A/0DEE       00C38 10694  1                      VCALL COLLOPTS
 000442 4110 78C4/4100_      00CD2 10698  1                      SCINIT 'VIRTUAL'
 000458                            10712                       END
                                   10716
 000458 4100 0180            00180 10717                       LA    R0,RNGTFE*256+L'RNGFDALL
 00045C 58E0 B08C/D203_      0008C 10718                       SETSCKWS SHNETPRT
 00046A 41F0 6006            00006 10731                       LA    R15,SHNRNG
 00046E 58E0 7832/0DEE       00C40 10732                       VCALL GETTRNG
 000474 4780 C7DA            007DA 10736                       BZ    CVABORT
                                   10737
 000478 9630 F003/94F7_00003       10738                       WITH  (RNGCB,R15),'SET RNGFMULT+RNGFLIST; CLEAR RNGFVER'
 USING  RNGCB,R15
 DROP   RNGCB,R15
 000480 1B00                       10777                       CLEAR R0                  No selection co-routine
 000482 4110 71DA            005E8 10781                       LA    R1,SHNETRTN         Range co-routine
 000486 58E0 7836/0DEE       00C44 10782                       VCALL TRANGE
 00048C 47F0 C7DE            007DE 10786                       B     CVNEXT
                                   10787
 000490 18D8/9808 D004_            10788                       PEND
 DROP   *,R7
-0004A0 C1C4C4D9C5E2E240_          10809              SHNETPRT SCKW  ADDRESS,SHONETA,A
 0004C8 E3D9C1C3C5404040_          10824                       SCKW  TRACE,SHONETT,A
 0004F0 4040404040404040_          10839                       SCKW  ,V(GETRPSH),PUSH
 000518 4040404040404040_          10854                       SCKW  ,,END
                                   10869
 000540 50E0 D000/9008_      00000 10870              SHONETA  PROC  ,
 USING  *,R7
 00055A 9680 6000      00000       10909                       SET   SHNFADDR
 00055E 18D8/9808 D004_            10915                       PEND
 DROP   *,R7
                                   10935
 00056C 50E0 D000/9008_      00000 10936              SHONETT  PROC  ,
 USING  *,R7
 000586 9640 6000      00000       10975                       SET   SHNFTRC
 00058A 18D8/9808 D004_            10981                       PEND
 DROP   *,R7
1TINT     (TINT2047) (12:57) (15MAR04) SHOW NETWORK Command                                                                 Page   37
0Current Usings:  (SHNETWA,R6) (CP,R11) (CV,R12)
0Loc    Object Code    Addr1 Addr2  Stmt Lv Lineno    Source Statement           (Hibal 5, Asmedit 3.3)  HLASM R4.0  2004/03/15 12.57
+___    ______ ____    _____ _____  ____ __ ______    ______ _________
0                                  11002              *
                                   11003              * DEFAULT RANGE SCAN TABLE
                                   11004              *
 000598 4040404040404040_          11005              GETRPRT  SCKW  ,V(GETRPSH),PUSH
 0005C0 4040404040404040_          11020                       SCKW  ,,END
1TINT     (TINT2047) (12:57) (15MAR04) SHOW NETWORK Command                                                                 Page   38
0Current Usings:  (SHNETWA,R6) (CP,R11) (CV,R12)
0Loc    Object Code    Addr1 Addr2  Stmt Lv Lineno    Source Statement           (Hibal 5, Asmedit 3.3)  HLASM R4.0  2004/03/15 12.57
+___    ______ ____    _____ _____  ____ __ ______    ______ _________
0                                  11036              ¿þþþþþþþþþþþþþþþþþþþþþþþþþþþþþþþþþþþþþþþþþþþþþþþþþþþþþþþþþþþþþþþþþþþþþÜ
                                   11037              Ÿ                                                                     Ÿ
                                   11038              Ÿ  SHNETRTN -- SHOW NETWORK range co-routine.                         Ÿ
                                   11039              Ÿ                                                                     Ÿ
                                   11040              Ÿ    On entry:                                                        Ÿ
                                   11041              Ÿ      R1 - FSB ptr                                                   Ÿ
                                   11042              Ÿ                                                                     Ÿ
                                                      ¾þþþþþþþþþþþþþþþþþþþþþþþþþþþþþþþþþþþþþþþþþþþþþþþþþþþþþþþþþþþþþþþþþþþþþ»
00005E8 50E0 D000/9008_      00000 11043              SHNETRTN PROC  ,
 USING  *,R7
 000602 5860 BCA4            00CA4 11082                       L     R6,CPCWA            SHNETWA ptr
 000606 1851                       11083                       LR    R5,R1
 USING  FSB,R5                     11084                       USING FSB,R5
                                   11093
 000608 9180 6000/47E0_00000       11094                       IF    SHNFADDR,BEGIN      Give internal address...
 000610 58F0 5004/4100_      00004 11109  1                      BTX   CPDOUB,6,L:FSBFEBP
 000622 41F0 B050/58E0_      00050 11132  1                      TSEG  (R1),(R0)
 00062C 4110 C4D8/4100_      004D8 11156  1                      TSEG  CVBLANKS,2
 00063E                            11186                       END
                                   11190
 00063E 4110 5000            00000 11191                       LA    R1,FSB
 000642 58E0 764E/0DEE       00C50 11192                       VCALL NETPDISP
 000648 4770 C7DA            007DA 11196                       BNZ   CVABORT
                                   11197
 00064C 9140 6000/47E0_00000       11198                       IF    SHNFTRC,BEGIN       Display trace table...
 000654 D23B 62A0 B050 002A0 00050 11213  1                      MVC   SHNCB,CPSEG         Save current CPSEG
 00065A 4110 62DC/4800_      002DC 11214  1                      SEGINIT SHNTRC,LH:=AL2(L'SHNTRC),CPSEG  Init new seg buf
 00066C D203 B074 62C4 00074 002C4 11240  1                      MVC   CPSEGRTN,SHNCBRTN   Set appropriate routine
                                   11241  1
 000672 181D/41D0 D004             11242  1                      XPUSH ,,L'FDBT1,PTR=R1
 USING  FDBT1,R1                   11245  1                      WITH  (FDBT1,R1),BEGIN
 000678 D703 1000 1000 00000 00000 11259  2                        CLEAR FDBT1
 00067E D201 1000 5000 00000 00000 11266  2                        MVC   FDBTFE,FSBID        Front-end id
 000684 9201 1002      00002       11267  2                        MVI   FDBTDNO,FDBCSNSF    Sense front-end
 000688 4100 0004/41F0_      00004 11268  2                        TSEG  FDBT1
 000696 4BD0 76B0            00CB2 11295  2                        XPOP  ,,L'FDBT1
 DROP   FDBT1,R1                   11297  1                      END
                                   11305  1
 00069A 4100 0005/58E0_      00005 11306  1                      TCNTL CTLSNSD             Get device-dependent info
 0006A4 D23B B050 62A0 00050 002A0 11318  1                      MVC   CPSEG,SHNCB         Restore seg buffer
 0006AA 4770 C7F6            007F6 11319  1                      BNZ   CVMILERR
                                   11320  1
 0006AE 41F0 62DC            002DC 11321  1                      LA    R15,SHNTRC
 USING  FDBF1,R15                  11322  1                      WITH  (FDBF1,R15),BEGIN
 0006B2 D201 6004 F00A 00004 0000A 11336  2                        MVC   SHNTLEN,FDBFFLEN    Length of a trace entry
 0006B8 D201 6002 F008 00002 00008 11337  2                        MVC   SHNTNO,FDBFFTNO     No. of trace entries
 0006BE 4140 F00C            0000C 11338  2                        LA    R4,FDBFFTRC         First trace entry ptr
 DROP   FDBF1,R15                  11339  1                      END
1TINT     (TINT2047) (12:57) (15MAR04) SHOW NETWORK Command                                                                 Page   39
0Current Usings:  (FSB,R5) (SHNETWA,R6) (*,R7) (CP,R11) (CV,R12)
0Loc    Object Code    Addr1 Addr2  Stmt Lv Lineno    Source Statement           (Hibal 5, Asmedit 3.3)  HLASM R4.0  2004/03/15 12.57
+___    ______ ____    _____ _____  ____ __ ______    ______ _________
0                                  11347  1                      ¿þþþþþþþþþþþþþþþþþþþþþþþþþþþþþþþþþþþþþþþþþþþþþþþþþþþþÜ
                                   11348  1                      Ÿ  Display the trace entries from oldest to newest.  Ÿ
                                   11349  1                      ¾þþþþþþþþþþþþþþþþþþþþþþþþþþþþþþþþþþþþþþþþþþþþþþþþþþþþ»
 0006C2 94DF 6000      00000       11350  1                      CLEAR SHNFSOME            Assume nothing in table
                                   11357  1
 0006C6 D601 6002 6002_00002 00002 11358  1                      WHILE (SHNTNO,NZ),BEGIN
 0006D0 9801 4000            00000 11376  2                        LM    R0,R1,@R4           Clock
 0006D4 1200/4780 7126             11377  2                        IF    (R0,Z),EXIT         End of trace table
 0006DA 9620 6000      00000       11394  2                        SET   SHNFSOME            Indicate not empty
                                   11400  2
 0006DE 41F0 BC88            00C88 11401  2                        LA    R15,CPDOUB
 0006E2 58E0 765A/0DEE       00C5C 11402  2                        VCALL FMTTIME             "hh:mm:ss.hh"
 0006E8 41F0 B050/58E0_      00050 11406  2                        TSEG  (R1),(R0),B
                                   11430  2
 0006F2 41F0 0001            00001 11431  2                        LA    R15,RNGTFE
 0006F6 1814/4800 6004             11432  2                        SETMSG (R4),LH:SHNTLEN     Trace entry
 0006FC 1FEE/43E0 5002             11443  2                        LC    RAR,FSBTYPE
 000702 59E0 7662/47D0_      00C64 11450  2                        IF    (RAR,GT,L'FSBTMAX),'CLEAR RAR'
 00070C 89E0 0002            00002 11476  2                        SLL   RAR,2
 000710 58EE 7602            00C04 11477  2                        L     RAR,TRCTBL(RAR)     Trace formatting routine
 000714 0DEE                       11478  2                        BASR  RAR,RAR
                                   11479  2
 000716 4A40 6004            00004 11480  2                        AH    R4,SHNTLEN          Next trace table entry
 00071A 48F0 6002/06F0_      00002 11481  2                        DECR  R15,SHNTNO          One less entry now
 000724 47F0 70C4            006C6 11486  1                      END
                                   11491  1
 000728 9120 6000/4710_00000       11492  1                      IF    ~SHNFSOME,'TSEG "Trace table is empty.",,CR'
 000742                            11530                       END
                                   11534
 000742 18D8/9808 D004_            11535                       PEND
 DROP   *,R7
 DROP   FSB,R5                     11555                       DROP  FSB,SHNETWA
 DROP   SHNETWA,R6
1TINT     (TINT2047) (12:57) (15MAR04) SHOW MDEVICE Command                                                                 Page   40
0Current Usings:  (CP,R11) (CV,R12)
0Loc    Object Code    Addr1 Addr2  Stmt Lv Lineno    Source Statement           (Hibal 5, Asmedit 3.3)  HLASM R4.0  2004/03/15 12.57
+___    ______ ____    _____ _____  ____ __ ______    ______ _________
0000000                00000 00448 11571              MDEVWA   RECORD BEGIN
 000000 00                         11579  1           MDEVFLAG   FLAG
 MDEVFLAG.MDEFSOME 80 ONES         11583  1                      FLAG  MDEFSOME            - We have something
                                   11588  1
 000004                            11589  1           MDEVUNIT   DS    F                   Binary unit address
                                   11590  1
 000008                            11591  1           MDEVTNO    DS    H                   No. of trace table entries
 00000A                            11592  1           MDEVTLEN   DS    H                   Length of an individual entry
                                   11593  1
                                   11594  1           MDEVCB     SEGCB ,                   Saved CPSEG
 00000C 00                         11595  1 01-SEGCB +$$$SEGCB131   DS 0F
 MDEVCBCOD.MDEVCBS 01 EQ
 MDEVCBCOD.MDEVCBW 02 EQ
 MDEVCBCOD.MDEVCBC 03 EQ
 MDEVCBCOD.MDEVCBS 04 EQ
 MDEVCBCOD.MDEVCBO 05 EQ
 MDEVCBCOD.MDEVCBC 06 EQ
 MDEVCBCOD.MDEVCBM 07 EQ
 00000D 00                         11670  1 01-SEGCB +           DC    X'00'               Reserved
 00000E 0000                              1          +
 000010 00000000                   11671  1 01-SEGCB +MDEVCBMAXF   DC  A(0)                Maximum buffer length
 000014 00000000                   11672  1 01-SEGCB +MDEVCBMRKF   DC  A(0)                Length at last mark
 000018 00000000                   11673  1 01-SEGCB +MDEVCBLENF   DC  A(0)                Current length
 00001C 00000000                   11674  1 01-SEGCB +MDEVCBINDF   DC  A(0)                Overflow/indent count
 000020 00000000                   11675  1 01-SEGCB +MDEVCBERR   DC   A(0)                Address of error recovery routine
 000024 0000000000000000           11676  1 01-SEGCB +           DC    2F'0'               Reserved
 00002C 00000000                   11677  1 01-SEGCB +MDEVCBLOC   DC   A(0)                Location of buffer
 000030 00000000                   11678  1 01-SEGCB +MDEVCBRTN   DC   A(0)                Processing routine
 000034 0000000000000000           11679  1 01-SEGCB +           DC    4F'0'               Reserved
 000044 00000000                   11680  1 01-SEGCB +MDEVCBUSR   DC   A(0)                USER field
                                   11681  1 01-SEGCB +MDEVCB     EQU   $$$SEGCB131,*-$$$SEGCB131,C'X'
                                   11682  1           MDEVINIT   EQU   MDEVFLAG,*-MDEVFLAG,C'X'
                                   11683  1
 000048                            11684  1                      DS    0F
 000048                            11685  1           MDEVTRC    DS    XL1024              Trace area
                                   11686  1
 000448                00448 00448 11687                       END
-                                  11697              ¿þþþþþþþþþþþþþþþþþþþþþþþþþþþþþþþþþþþþþþþþþþþþþþþþþþþþþþþþþþþþþþþþþþþþþÜ
                                   11698              Ÿ                                                                     Ÿ
                                   11699              Ÿ  SHOWMDEV -- SHOW MDEVICE command.                                  Ÿ
                                   11700              Ÿ                                                                     Ÿ
                                                      ¾þþþþþþþþþþþþþþþþþþþþþþþþþþþþþþþþþþþþþþþþþþþþþþþþþþþþþþþþþþþþþþþþþþþþþ»
0000750 50E0 D000/9008_      00000 11701              SHOWMDEV XPROC MDEVWA
 USING  *,R7
 USING  MDEVWA-(4+36),R8
 00076A D747 8028 8028 00000 00000 11752                       CLEAR MDEVINIT
1TINT     (TINT2047) (12:57) (15MAR04) SHOW MDEVICE Command                                                                 Page   41
0Current Usings:  (*,R7) (MDEVWA-(4+36),R8) (CP,R11) (CV,R12)
0Loc    Object Code    Addr1 Addr2  Stmt Lv Lineno    Source Statement           (Hibal 5, Asmedit 3.3)  HLASM R4.0  2004/03/15 12.57
+___    ______ ____    _____ _____  ____ __ ______    ______ _________
0                                  11759                       ¿þþþþþþþþþþþþþþþþþþþþþþþþþÜ
                                   11760                       Ÿ  Pick up unit address.  Ÿ
                                   11761                       ¾þþþþþþþþþþþþþþþþþþþþþþþþþ»
 000770 5810 B08C/1B00_      0008C 11762                       SCAN
 0007BE 58E0 7506/0DEE       00C70 11793                       SCANCHK
 0007C4 5810 B08C/4111_      0008C 11798                       SCUPTOK R1
 0007CC 1200/4770 7074             11802                       IF    (R0,Z),BEGIN
 0007D2 4110 750A/4100_      00C74 11816  1                      ERROR 'Missing MILTEN unit-address.'
 0007DE                            11823                       END
                                   11827
 0007DE 58E0 7526/0DEE       00C90 11828                       XTB   (R1),(R0)           Convert to binary
 0007E4 4770 C7E4            007E4 11843                       BNZ   CVNVALID            Bad hex
 0007E8 59F0 752A/4720_      00C94 11844                       IF    (R15,GT,X'FFF'),CVNVALID  Out of bounds
 0007F0 50F0 802C            00004 11864                       ST    R15,MDEVUNIT        Save hex
                                   11865
 0007F4 58E0 74CE/0DEE       00C38 11866                       VCALL COLLOPTS            Collect options
                                   11870                       ¿þþþþþþþþþþþþþþþþþþþþþþþþþþþþþþþþþÜ
                                   11871                       Ÿ  Get device trace from MILTEN.  Ÿ
                                   11872                       ¾þþþþþþþþþþþþþþþþþþþþþþþþþþþþþþþþþ»
 0007FA D23B 8034 B050 0000C 00050 11873                       MVC   MDEVCB,CPSEG        Save current CPSEG
 000800 4110 8070/4100_      00048 11874                       SEGINIT MDEVTRC,,CPSEG    Init new seg buffer
 000812 D203 B074 8058 00074 00030 11901                       MVC   CPSEGRTN,MDEVCBRTN  Set appropriate routine
                                   11902
 000818 4110 802C/4100_      00004 11903                       TSEG  MDEVUNIT            Pass unit-address as parm
                                   11931
 00082A 4100 000A/58E0_      0000A 11932                       TCNTL CTLSNSMD            Get device trace info
 000834 D23B B050 8034 00050 0000C 11944                       MVC   CPSEG,MDEVCB        Restore CPSEG
 00083A 4770 C7F6            007F6 11945                       BNZ   CVMILERR
                                   11946
 00083E D201 8030 8070 00008 00048 11947                       MVC   MDEVTNO,MDEVTRC     No. of trace entries
 000844 D201 8032 8072 0000A 0004A 11948                       MVC   MDEVTLEN,MDEVTRC+2  Length of a trace entry
 00084A 4140 8074            0004C 11949                       LA    R4,MDEVTRC+4        First trace entry ptr
                                   11950                       ¿þþþþþþþþþþþþþþþþþþþþþþþþþþþþþþþþþþþþþþþþþþþþþþþþþþþþÜ
                                   11951                       Ÿ  Display the trace entries from oldest to newest.  Ÿ
                                   11952                       ¾þþþþþþþþþþþþþþþþþþþþþþþþþþþþþþþþþþþþþþþþþþþþþþþþþþþþ»
 00084E 4110 754C/4100_      00CB6 11953                       TSEG  'MILTEN I/O trace for unit '
 000860 5810 802C/4100_      00004 11971                       THEX  L:MDEVUNIT,3
 000872 1B00/41F0 B050_            11996                       TCR
 00087E 1B00/41F0 B050_            12021                       TCR
                                   12046
 00088A 947F 8028      00000       12047                       CLEAR MDEFSOME            Assume nothing in table
                                   12054
 00088E D601 8030 8030_00008 00008 12055                       WHILE (MDEVTNO,NZ),BEGIN
 000898 9801 4000            00000 12073  1                      LM    R0,R1,@R4           Clock
 00089C 1200/4780 7180             12074  1                      IF    (R0,Z),EXIT         End of trace table
 0008A2 9680 8028      00000       12091  1                      SET   MDEFSOME            Indicate not empty
                                   12097  1
 0008A6 41F0 BC88            00C88 12098  1                      LA    R15,CPDOUB
 0008AA 58E0 74F2/0DEE       00C5C 12099  1                      VCALL FMTTIME             "hh:mm:ss.hh"
 0008B0 41F0 B050/58E0_      00050 12103  1                      TSEG  (R1),(R0),B
                                   12127  1
 0008BA 4110 4008/4100_      00008 12128  1                      TSEG  @R4+8,8,T           Trace name
 0008CC 1B00/41F0 B050_            12158  1                      TCR
                                   12183  1
1TINT     (TINT2047) (12:57) (15MAR04) SHOW MDEVICE Command                                                                 Page   42
0Current Usings:  (*,R7) (MDEVWA-(4+36),R8) (CP,R11) (CV,R12)
0Loc    Object Code    Addr1 Addr2  Stmt Lv Lineno    Source Statement           (Hibal 5, Asmedit 3.3)  HLASM R4.0  2004/03/15 12.57
+___    ______ ____    _____ _____  ____ __ ______    ______ _________
00008D8 4A40 8032            0000A 12184  1                      AH    R4,MDEVTLEN         Next trace table
 0008DC 48F0 8030/06F0_      00008 12185  1                      DECR  R15,MDEVTNO         One less entry now
 0008E6 47F0 7124            0088E 12190                       END
                                   12195
 0008EA 9180 8028/4710_00000       12196                       IF    ~MDEFSOME,'TSEG "Trace table is empty.",,CR'
 000904 47F0 C7DE            007DE 12234                       B     CVNEXT
 000908 18D8/9808 D004_            12235                       PEND
 DROP   MDEVWA-(4+36),R8
 DROP   *,R7
1TINT     (TINT2047) (12:57) (15MAR04) SHOW PORT/PORTS Command                                                              Page   43
0Current Usings:  (CP,R11) (CV,R12)
0Loc    Object Code    Addr1 Addr2  Stmt Lv Lineno    Source Statement           (Hibal 5, Asmedit 3.3)  HLASM R4.0  2004/03/15 12.57
+___    ______ ____    _____ _____  ____ __ ______    ______ _________
0000000                00000 006DC 12261              SHPRTWA  RECORD BEGIN
 000000 00                         12269  1           SHPFLAG    FLAG
 SHPFLAG.SHPFADDR  80 ONES         12273  1                      FLAG  SHPFADDR            - Address
 SHPFLAG.SHPFTRC   40 ONES         12278  1                      FLAG  SHPFTRC             - Trace
 SHPFLAG.SHPFSOME  20 ONES         12283  1                      FLAG  SHPFSOME            - Have at least one trace entry
                                   12288  1
 000002                            12289  1           SHPTNO     DS    H                   No. of trace table entries
 000004                            12290  1           SHPTLEN    DS    H                   Length of an individual entry
                                   12291  1
 000006                            12292  1           SHPRTRNG   DS    XL(L'RNGCB)
                                   12293  1           SHPCB      SEGCB ,                   Saved CPSEG
 0002A0 00                         12294  1 01-SEGCB +$$$SEGCB148   DS 0F
 SHPCBCOD.SHPCBSEG 01 EQ
 SHPCBCOD.SHPCBWR  02 EQ
 SHPCBCOD.SHPCBCLR 03 EQ
 SHPCBCOD.SHPCBSPP 04 EQ
 SHPCBCOD.SHPCBOVF 05 EQ
 SHPCBCOD.SHPCBCR  06 EQ
 SHPCBCOD.SHPCBMAR 07 EQ
 0002A1 00                         12369  1 01-SEGCB +           DC    X'00'               Reserved
 0002A2 0000                              1          +
 0002A4 00000000                   12370  1 01-SEGCB +SHPCBMAXF   DC   A(0)                Maximum buffer length
 0002A8 00000000                   12371  1 01-SEGCB +SHPCBMRKF   DC   A(0)                Length at last mark
 0002AC 00000000                   12372  1 01-SEGCB +SHPCBLENF   DC   A(0)                Current length
 0002B0 00000000                   12373  1 01-SEGCB +SHPCBINDF   DC   A(0)                Overflow/indent count
 0002B4 00000000                   12374  1 01-SEGCB +SHPCBERR   DC    A(0)                Address of error recovery routine
 0002B8 0000000000000000           12375  1 01-SEGCB +           DC    2F'0'               Reserved
 0002C0 00000000                   12376  1 01-SEGCB +SHPCBLOC   DC    A(0)                Location of buffer
 0002C4 00000000                   12377  1 01-SEGCB +SHPCBRTN   DC    A(0)                Processing routine
 0002C8 0000000000000000           12378  1 01-SEGCB +           DC    4F'0'               Reserved
 0002D8 00000000                   12379  1 01-SEGCB +SHPCBUSR   DC    A(0)                USER field
                                   12380  1 01-SEGCB +SHPCB      EQU   $$$SEGCB148,*-$$$SEGCB148,C'X'
                                   12381  1           SHPINIT    EQU   SHPFLAG,*-SHPFLAG,C'X'
                                   12382  1
 0002DC                            12383  1                      DS    0F
 0002DC                            12384  1           SHPTRC     DS    XL1024              Trace area
 0006DC                006DC 006DC 12385                       END
-                                  12395              ¿þþþþþþþþþþþþþþþþþþþþþþþþþþþþþþþþþþþþþþþþþþþþþþþþþþþþþþþþþþþþþþþþþþþþþÜ
                                   12396              Ÿ                                                                     Ÿ
                                   12397              Ÿ  SHOWPORT -- SHOW PORT/PORTS command.                               Ÿ
                                   12398              Ÿ                                                                     Ÿ
                                                      ¾þþþþþþþþþþþþþþþþþþþþþþþþþþþþþþþþþþþþþþþþþþþþþþþþþþþþþþþþþþþþþþþþþþþþþ»
0000916 50E0 D000/9008_      00000 12399              SHOWPORT XPROC SHPRTWA
 USING  *,R7
 USING  SHPRTWA-(4+36),R8
 000930 4160 8028            00000 12450                       LA    R6,SHPRTWA
 USING  SHPRTWA,R6                 12451                       USING SHPRTWA,R6
 000934 D7FF 6000 6000_00000 00000 12460                       CLEAR SHPINIT
 000946 5060 BCA4            00CA4 12469                       ST    R6,CPCWA
                                   12470
 00094A 4100 0240            00240 12471                       LA    R0,RNGTPORT*256+L'RNGFDOUR
1TINT     (TINT2047) (12:57) (15MAR04) SHOW PORT/PORTS Command                                                              Page   44
0Current Usings:  (SHPRTWA,R6) (*,R7) (SHPRTWA-(4+36),R8) (CP,R11) (CV,R12)
0Loc    Object Code    Addr1 Addr2  Stmt Lv Lineno    Source Statement           (Hibal 5, Asmedit 3.3)  HLASM R4.0  2004/03/15 12.57
+___    ______ ____    _____ _____  ____ __ ______    ______ _________
000094E D504 73BE F000_00CEE 00000 12472                       IF    (@R15,EQ,'PORTS'),'LA R0,RNGTPORT*256+L"RNGFDALL'
 00095C 58E0 B08C/D203_      0008C 12494                       SETSCKWS SHPRTPRT
 00096A 41F0 6006            00006 12507                       LA    R15,SHPRTRNG
 00096E 58E0 7310/0DEE       00C40 12508                       VCALL GETTRNG
 000974 4780 C7DA            007DA 12512                       BZ    CVABORT
                                   12513
 000978 9630 F003/94F7_00003       12514                       WITH  (RNGCB,R15),'SET RNGFMULT+RNGFLIST; CLEAR RNGFVER'
 USING  RNGCB,R15
 DROP   RNGCB,R15
 000980 1B00                       12553                       CLEAR R0                  No selection co-routine
 000982 4110 7158            00A88 12557                       LA    R1,SHPRTRTN         Range co-routine
 000986 58E0 7314/0DEE       00C44 12558                       VCALL TRANGE
 00098C 47F0 C7DE            007DE 12562                       B     CVNEXT
                                   12563
 DROP   *,R7                       12564                       DROP  BR
-000990 C1C4C4D9C5E2E240_          12572              SHPRTPRT SCKW  ADDRESS,SHOPORTA,A
 0009B8 E3D9C1C3C5404040_          12587                       SCKW  TRACE,SHOPORTT,A
 0009E0 4040404040404040_          12602                       SCKW  ,V(GETRPSH),PUSH
 000A08 4040404040404040_          12617                       SCKW  ,,END
                                   12632
 000A30 50E0 D000/9008_      00000 12633              SHOPORTA PROC  ,
 USING  *,R7
 DROP   SHPRTWA-(4+36),R8
 000A4A 9680 6000      00000       12675                       SET   SHPFADDR
 000A4E 18D8/9808 D004_            12681                       PEND
 DROP   *,R7
                                   12701
 000A5C 50E0 D000/9008_      00000 12702              SHOPORTT PROC  ,
 USING  *,R7
 000A76 9640 6000      00000       12741                       SET   SHPFTRC
 000A7A 18D8/9808 D004_            12747                       PEND
 DROP   *,R7
1TINT     (TINT2047) (12:57) (15MAR04) SHOW PORT/PORTS Command                                                              Page   45
0Current Usings:  (SHPRTWA,R6) (CP,R11) (CV,R12)
0Loc    Object Code    Addr1 Addr2  Stmt Lv Lineno    Source Statement           (Hibal 5, Asmedit 3.3)  HLASM R4.0  2004/03/15 12.57
+___    ______ ____    _____ _____  ____ __ ______    ______ _________
0                                  12768              ¿þþþþþþþþþþþþþþþþþþþþþþþþþþþþþþþþþþþþþþþþþþþþþþþþþþþþþþþþþþþþþþþþþþþþþÜ
                                   12769              Ÿ                                                                     Ÿ
                                   12770              Ÿ  SHPRTRTN -- SHOW PORT(S) range co-routine.                         Ÿ
                                   12771              Ÿ                                                                     Ÿ
                                   12772              Ÿ    On entry:                                                        Ÿ
                                   12773              Ÿ      R1 - PSB ptr                                                   Ÿ
                                   12774              Ÿ                                                                     Ÿ
                                                      ¾þþþþþþþþþþþþþþþþþþþþþþþþþþþþþþþþþþþþþþþþþþþþþþþþþþþþþþþþþþþþþþþþþþþþþ»
0000A88 50E0 D000/9008_      00000 12775              SHPRTRTN PROC  ,
 USING  *,R7
 000AA2 5860 BCA4            00CA4 12814                       L     R6,CPCWA            Shprtwa ptr
 000AA6 1851                       12815                       LR    R5,R1
 USING  PSB,R5                     12816                       USING PSB,R5
                                   12825
 000AA8 9180 6000/47E0_00000       12826                       IF    SHPFADDR,BEGIN      Give internal address...
 000AB0 58F0 5008/4100_      00008 12841  1                      BTX   CPDOUB,6,L:PSBPIBP
 000AC2 41F0 B050/58E0_      00050 12864  1                      TSEG  (R1),(R0)
 000ACC 4110 C4D8/4100_      004D8 12888  1                      TSEG  CVBLANKS,2
 000ADE                            12918                       END
                                   12922
 000ADE 4110 5000            00000 12923                       LA    R1,PSB
 000AE2 58E0 7202/0DEE       00CA4 12924                       VCALL PORTDISP
 000AE8 1B00/41F0 B050_            12928                       TWRITE
 000AF4 4770 C7DA            007DA 12953                       BNZ   CVABORT
                                   12954
 000AF8 9140 6000/47E0_00000       12955                       IF    SHPFTRC,BEGIN       Display trace table...
 000B00 D23B 62A0 B050 002A0 00050 12970  1                      MVC   SHPCB,CPSEG         Save current CPSEG
 000B06 4110 62DC/4100_      002DC 12971  1                      SEGINIT SHPTRC,,CPSEG     Init new seg buffer
 000B18 D203 B074 62C4 00074 002C4 12998  1                      MVC   CPSEGRTN,SHPCBRTN   Set appropriate routine
                                   12999  1
 000B1E 181D/41D0 D008             13000  1                      XPUSH ,,L'FDBT2,PTR=R1
 USING  FDBT2,R1                   13003  1                      WITH  (FDBT2,R1),BEGIN
 000B24 D705 1000 1000 00000 00000 13017  2                        CLEAR FDBT2
 000B2A D201 1000 5000 00000 00000 13024  2                        MVC   FDBTFE,PSBFEID      Front-end id
 000B30 9202 1002      00002       13025  2                        MVI   FDBTDNO,FDBCSNSP    Sense port
 000B34 D201 1004 5002 00004 00002 13026  2                        MVC   FDBT2P,PSBPNO       Port number
 000B3A 4100 0006/41F0_      00006 13027  2                        TSEG  FDBT2
 000B48 4BD0 722E            00CD0 13054  2                        XPOP  ,,L'FDBT2
 DROP   FDBT2,R1                   13056  1                      END
                                   13064  1
 000B4C 4100 0005/58E0_      00005 13065  1                      TCNTL CTLSNSD             Get device-dependent info
 000B56 D23B B050 62A0 00050 002A0 13077  1                      MVC   CPSEG,SHPCB         Restore CPSEG
 000B5C 4770 C7F6            007F6 13078  1                      BNZ   CVMILERR
                                   13079  1
 000B60 41F0 62DC            002DC 13080  1                      LA    R15,SHPTRC
 USING  FDBF2,R15                  13081  1                      WITH  (FDBF2,R15),BEGIN
 000B64 D201 6004 F00E 00004 0000E 13095  2                        MVC   SHPTLEN,FDBFPLEN    Length of a trace entry
 000B6A D201 6002 F00C 00002 0000C 13096  2                        MVC   SHPTNO,FDBFPTNO     No. of trace entries
 000B70 4140 F010            00010 13097  2                        LA    R4,FDBFPTRC         First trace entry ptr
 DROP   FDBF2,R15                  13098  1                      END
1TINT     (TINT2047) (12:57) (15MAR04) SHOW PORT/PORTS Command                                                              Page   46
0Current Usings:  (PSB,R5) (SHPRTWA,R6) (*,R7) (CP,R11) (CV,R12)
0Loc    Object Code    Addr1 Addr2  Stmt Lv Lineno    Source Statement           (Hibal 5, Asmedit 3.3)  HLASM R4.0  2004/03/15 12.57
+___    ______ ____    _____ _____  ____ __ ______    ______ _________
0                                  13106  1                      ¿þþþþþþþþþþþþþþþþþþþþþþþþþþþþþþþþþþþþþþþþþþþþþþþþþþþþÜ
                                   13107  1                      Ÿ  Display the trace entries from oldest to newest.  Ÿ
                                   13108  1                      ¾þþþþþþþþþþþþþþþþþþþþþþþþþþþþþþþþþþþþþþþþþþþþþþþþþþþþ»
 000B74 94DF 6000      00000       13109  1                      CLEAR SHPFSOME            Assume nothing in table
                                   13116  1
 000B78 D601 6002 6002_00002 00002 13117  1                      WHILE (SHPTNO,NZ),BEGIN
 000B82 9801 4000            00000 13135  2                        LM    R0,R1,@R4           Clock
 000B86 1200/4780 7138             13136  2                        IF    (R0,Z),EXIT         End of trace table
 000B8C 9620 6000      00000       13153  2                        SET   SHPFSOME            Indicate not empty
                                   13159  2
 000B90 41F0 BC88            00C88 13160  2                        LA    R15,CPDOUB
 000B94 58E0 71BA/0DEE       00C5C 13161  2                        VCALL FMTTIME             "hh:mm:ss.hh"
 000B9A 41F0 B050/58E0_      00050 13165  2                        TSEG  (R1),(R0),B
                                   13189  2
 000BA4 41F0 0002            00002 13190  2                        LA    R15,RNGTPORT
 000BA8 1814/4800 6004             13191  2                        SETMSG (R4),LH:SHPTLEN     Trace entry
 000BAE 1FEE/43E0 5004             13202  2                        LC    RAR,PSBTTYPE
 000BB4 59E0 720A/47D0_      00CAC 13209  2                        IF    (RAR,GT,L'PSBTMAX),'CLEAR RAR'
 000BBE 89E0 0002            00002 13235  2                        SLL   RAR,2
 000BC2 58EE 7162            00C04 13236  2                        L     RAR,TRCTBL(RAR)     Trace formatting routine
 000BC6 0DEE                       13237  2                        BASR  RAR,RAR
                                   13238  2
 000BC8 4A40 6004            00004 13239  2                        AH    R4,SHPTLEN          Next trace table
 000BCC 48F0 6002/06F0_      00002 13240  2                        DECR  R15,SHPTNO          One less entry now
 000BD6 47F0 70D6            00B78 13245  1                      END
                                   13250  1
 000BDA 9120 6000/4710_00000       13251  1                      IF    ~SHPFSOME,'TSEG "Trace table is empty.",,CR'
 000BF4                            13289                       END
                                   13293
 000BF4 18D8/9808 D004_            13294                       PEND
 DROP   *,R7
 DROP   PSB,R5                     13314                       DROP  PSB,SHPRTWA
 DROP   SHPRTWA,R6
-                                  13330                       ¿þþþþþþþþþþþþþþþþþþþþþþþþþþþþþþþþþþþþþþþþþþþþþþþþþþþþÜ
                                   13331                       Ÿ  Front-end trace formatting routine vector table.  Ÿ
                                   13332                       ¾þþþþþþþþþþþþþþþþþþþþþþþþþþþþþþþþþþþþþþþþþþþþþþþþþþþþ»
 000C02 0000
 000C04 00002070                   13333              TRCTBL   DC    A(DEFTRC)
 000C08 00002070                   13334                       DC    A(DEFTRC)           Cons
 000C0C 000021B4                   13335                       DC    A(ASYNTRC)          Asyn
 000C10 0000220E                   13336                       DC    A(PDPTRC)           Pdp
 000C14 00002A30                   13337                       DC    A(VTAMTRC)          Vtam
 000C18 0000264C                   13338                       DC    A(VIRTTRC)          Virt
 000C1C 000020EC                   13339                       DC    A(NSCTRC)           Nsc
 000C20 0000226C                   13340                       DC    A(ELFTRC)           Elf
 000C24 00002618                   13341                       DC    A(ALFTRC)           Alf
 000C28 00002156                   13342                       DC    A(ECUTRC)           ECU
                                   13343              TRCMAX   EQU   (*-TRCTBL-4)/4,,C'N'
                                   13344
 000C2C                            13345                       DS    0S(TRCMAX-L'FSBTMAX,L'FSBTMAX-TRCMAX)
 000C2C                            13346                       DS    0S(TRCMAX-L'PSBTMAX,L'PSBTMAX-TRCMAX)
                                   13347
1TINT     (TINT2047) (12:57) (15MAR04) SHOW PORT/PORTS Command                                                              Page   47
0Current Usings:  (CP,R11) (CV,R12)
0Loc    Object Code    Addr1 Addr2  Stmt Lv Lineno    Source Statement           (Hibal 5, Asmedit 3.3)  HLASM R4.0  2004/03/15 12.57
+___    ______ ____    _____ _____  ____ __ ______    ______ _________
0                                  13348                       QLTORG
1TINT     (TINT2047) (12:57) (15MAR04) MOPEN Command                                                                        Page   48
0Current Usings:  (CP,R11) (CV,R12)
0Loc    Object Code    Addr1 Addr2  Stmt Lv Lineno    Source Statement           (Hibal 5, Asmedit 3.3)  HLASM R4.0  2004/03/15 12.57
+___    ______ ____    _____ _____  ____ __ ______    ______ _________
0                                  13395              ¿þþþþþþþþþþþþþþþþþþþþþþþþþþþþþþþþþþþþþþþþþþþþþþþþþþþþþþþþþþþþþþþþþþþþþÜ
                                   13396              Ÿ                                                                     Ÿ
                                   13397              Ÿ  MOPEN -- MOPEN command.                                            Ÿ
                                   13398              Ÿ                                                                     Ÿ
                                                      ¾þþþþþþþþþþþþþþþþþþþþþþþþþþþþþþþþþþþþþþþþþþþþþþþþþþþþþþþþþþþþþþþþþþþþþ»
0000000                00000 0029A 13399              MOPNWA   RECORD BEGIN
 000000                            13407  1           MOPNRNG    DS    XL(L'RNGCB)
 00029A                0029A 0029A 13408                       END
                                   13417              *
                                   13418              *
 000CF4 50E0 D000/9008_      00000 13419              MOPEN    XPROC MOPNWA
 USING  *,R7
 USING  MOPNWA-(4+36),R8
 000D0E 9110 B3BE/47E0_003BE       13470                       IF    ~CPSFOPR,CVNVALID
                                   13488
 000D16 D7FF 8028 8028_00000 00000 13489                       CLEAR MOPNWA
 000D28 4100 0100            00100 13498                       LA    R0,RNGTFE*256
 000D2C 58E0 B08C/D203_      0008C 13499                       SETSCKWS GETRPRT          No special prt
 000D3A 41F0 8028            00000 13512                       LA    R15,MOPNRNG
 000D3E 58E0 784E/0DEE       0155C 13513                       VCALL GETTRNG
 000D44 4780 C7DE            007DE 13517                       BZ    CVNEXT
                                   13518
 000D48 1B00                       13519                       CLEAR R0                  No range selection co-routine
 000D4A 4110 7058            00D66 13523                       LA    R1,OPENRTN          Range co-routine
 000D4E 58E0 7852/0DEE       01560 13524                       VCALL TRANGE
 000D54 47F0 C7DE            007DE 13528                       B     CVNEXT
                                   13529
 000D58 18D8/9808 D004_            13530                       PEND
 DROP   MOPNWA-(4+36),R8
 DROP   *,R7
1TINT     (TINT2047) (12:57) (15MAR04) MOPEN Command                                                                        Page   49
0Current Usings:  (CP,R11) (CV,R12)
0Loc    Object Code    Addr1 Addr2  Stmt Lv Lineno    Source Statement           (Hibal 5, Asmedit 3.3)  HLASM R4.0  2004/03/15 12.57
+___    ______ ____    _____ _____  ____ __ ______    ______ _________
0                                  13556              ¿þþþþþþþþþþþþþþþþþþþþþþþþþþþþþþþþþþþþþþþþþþþþþþþþþþþþþþþþþþþþþþþþþþþþþÜ
                                   13557              Ÿ                                                                     Ÿ
                                   13558              Ÿ  OPENRTN -- MOPEN command range co-routine.                         Ÿ
                                   13559              Ÿ                                                                     Ÿ
                                   13560              Ÿ    On entry:                                                        Ÿ
                                   13561              Ÿ      R1 - FSB ptr                                                   Ÿ
                                   13562              Ÿ                                                                     Ÿ
                                                      ¾þþþþþþþþþþþþþþþþþþþþþþþþþþþþþþþþþþþþþþþþþþþþþþþþþþþþþþþþþþþþþþþþþþþþþ»
0000D66 50E0 D000/9008_      00000 13563              OPENRTN  PROC  ,
 USING  *,R7
 000D80 1861                       13602                       LR    R6,R1
 USING  FSB,R6                     13603                       USING FSB,R6
                                   13612
 000D82 9140 6069/47E0_00069       13613                       IF    FSBFDET,'SETMSG "is detached--not opened."; B OPENERR'
 000D96 9180 6069/4710_00069       13638                       IF    ~FSBFCLS,'SETMSG "is already open."; B OPENERR'
                                   13663
 000DAA 181D/41D0 D008             13664                       XPUSH ,,L'FDBT101,PTR=R1
 USING  FDBT101,R1                 13667                       WITH  (FDBT101,R1),BEGIN
 000DB0 D704 1000 1000 00000 00000 13681  1                      CLEAR FDBT101
 000DB6 D201 1000 6000 00000 00000 13688  1                      MVC   FDBTFE,FSBID        Front-end id
 000DBC 9265 1002      00002       13689  1                      MVI   FDBTDNO,FDBPSETF    Set front-end
 000DC0 9620 1004      00004       13690  1                      SET   FDBTFOPN            Open
 000DC4 4100 0005/41F0_      00005 13696  1                      TSEG  FDBT101
 DROP   FDBT101,R1                 13723                       END
 000DD2 4BD0 784C            015CC 13731                       XPOP  ,,L'FDBT101
 000DD6 4100 006A/58E0_      0006A 13733                       TCNTL CTLPSETD
 000DE0 4780 70AA            00E2A 13745                       BZ    OPENX               Aok
 000DE4 47B0 7072/58E0_      00DF2 13746                       IF    NEG,'VCALL MILERR; B OPENX'
 000DF2 4110 7884/4100_      01604 13767                       SETMSG 'not opened.'
                                   13771
 000DFA 9001 D000/41D0_      00000 13772              OPENERR  XPUSH R0,R1
 000E02 4110 600C/4100_      0000C 13775                       TSEG  FSBNAME,,TB
 000E14 4BD0 784E/9801_      015CE 13803                       XPOP  R0,R1
 000E1C 41F0 B050/58E0_      00050 13806                       TSEG  (R1),(R0),WR
 000E26 9680 BD5A      00D5A       13830                       SET   CPFABORT
 000E2A 18D8/9808 D004_            13836              OPENX    PEND
 DROP   *,R7
 DROP   FSB,R6                     13857                       DROP  FSB
1TINT     (TINT2047) (12:57) (15MAR04) MCLOSE Command                                                                       Page   50
0Current Usings:  (CP,R11) (CV,R12)
0Loc    Object Code    Addr1 Addr2  Stmt Lv Lineno    Source Statement           (Hibal 5, Asmedit 3.3)  HLASM R4.0  2004/03/15 12.57
+___    ______ ____    _____ _____  ____ __ ______    ______ _________
0                                  13866              ¿þþþþþþþþþþþþþþþþþþþþþþþþþþþþþþþþþþþþþþþþþþþþþþþþþþþþþþþþþþþþþþþþþþþþþÜ
                                   13867              Ÿ                                                                     Ÿ
                                   13868              Ÿ  MCLOSE -- MCLOSE command.                                          Ÿ
                                   13869              Ÿ                                                                     Ÿ
                                                      ¾þþþþþþþþþþþþþþþþþþþþþþþþþþþþþþþþþþþþþþþþþþþþþþþþþþþþþþþþþþþþþþþþþþþþþ»
0000000                00000 0029A 13870              MCLSWA   RECORD BEGIN
 000000                            13878  1           MCLSRNG    DS    XL(L'RNGCB)
 00029A                0029A 0029A 13879                       END
                                   13888              *
                                   13889              *
 000E38 50E0 D000/9008_      00000 13890              MCLOSE   XPROC MCLSWA
 USING  *,R7
 USING  MCLSWA-(4+36),R8
 000E52 9110 B3BE/47E0_003BE       13941                       IF    ~CPSFOPR,CVNVALID
                                   13959
 000E5A D7FF 8028 8028_00000 00000 13960                       CLEAR MCLSWA
 000E6C 4100 0100            00100 13969                       LA    R0,RNGTFE*256
 000E70 58E0 B08C/D203_      0008C 13970                       SETSCKWS GETRPRT          No special prt
 000E7E 41F0 8028            00000 13983                       LA    R15,MCLSRNG
 000E82 58E0 770A/0DEE       0155C 13984                       VCALL GETTRNG
 000E88 4780 C7DE            007DE 13988                       BZ    CVNEXT
                                   13989
 000E8C 1B00                       13990                       CLEAR R0                  No range selection co-routine
 000E8E 4110 7058            00EAA 13994                       LA    R1,CLOSERTN         Range co-routine
 000E92 58E0 770E/0DEE       01560 13995                       VCALL TRANGE
 000E98 47F0 C7DE            007DE 13999                       B     CVNEXT
                                   14000
 000E9C 18D8/9808 D004_            14001                       PEND
 DROP   MCLSWA-(4+36),R8
 DROP   *,R7
1TINT     (TINT2047) (12:57) (15MAR04) MCLOSE Command                                                                       Page   51
0Current Usings:  (CP,R11) (CV,R12)
0Loc    Object Code    Addr1 Addr2  Stmt Lv Lineno    Source Statement           (Hibal 5, Asmedit 3.3)  HLASM R4.0  2004/03/15 12.57
+___    ______ ____    _____ _____  ____ __ ______    ______ _________
0                                  14027              ¿þþþþþþþþþþþþþþþþþþþþþþþþþþþþþþþþþþþþþþþþþþþþþþþþþþþþþþþþþþþþþþþþþþþþþÜ
                                   14028              Ÿ                                                                     Ÿ
                                   14029              Ÿ  CLOSERTN -- MCLOSE command range co-routine.                       Ÿ
                                   14030              Ÿ                                                                     Ÿ
                                   14031              Ÿ    On entry:                                                        Ÿ
                                   14032              Ÿ      R1 - FSB ptr                                                   Ÿ
                                   14033              Ÿ                                                                     Ÿ
                                                      ¾þþþþþþþþþþþþþþþþþþþþþþþþþþþþþþþþþþþþþþþþþþþþþþþþþþþþþþþþþþþþþþþþþþþþþ»
0000EAA 50E0 D000/9008_      00000 14034              CLOSERTN PROC  ,
 USING  *,R7
 000EC4 1861                       14073                       LR    R6,R1
 USING  FSB,R6                     14074                       USING FSB,R6
                                   14083
 000EC6 48F0 6078/12FF       00078 14084                       LTH   R15,FSBSCUR         Current no. of users
 000ECC 47D0 704C            00F10 14088                       IF    POS,BEGIN           Double check with user...
 000ED0 181F/1B00/41F0_            14099  1                      TNUM  (R15)
 000EDE 4110 766C/4100_      01530 14121  1                      TSEG  ' users still on '
 000EF0 4110 600C/4100_      0000C 14139  1                      TSEG  FSBNAME,,CR
 000F02 4110 774B/4100_      0160F 14167  1                      SETMSG 'Close'
 000F0A 58E0 76BC/0DEE       01580 14171  1                      VCALL YESREQ              Get permission
 000F10                            14175                       END
                                   14179
 000F10 181D/41D0 D008             14180                       XPUSH ,,L'FDBT101,PTR=R1
 USING  FDBT101,R1                 14183                       WITH  (FDBT101,R1),BEGIN
 000F16 D704 1000 1000 00000 00000 14197  1                      CLEAR FDBT101
 000F1C D201 1000 6000 00000 00000 14204  1                      MVC   FDBTFE,FSBID        Front-end id
 000F22 9265 1002      00002       14205  1                      MVI   FDBTDNO,FDBPSETF    Set front-end
 000F26 9610 1004      00004       14206  1                      SET   FDBTFCLS            Close
 000F2A 4100 0005/41F0_      00005 14212  1                      TSEG  FDBT101
 DROP   FDBT101,R1                 14239                       END
 000F38 4BD0 7708            015CC 14247                       XPOP  ,,L'FDBT101
 000F3C 4100 006A/58E0_      0006A 14249                       TCNTL CTLPSETD
 000F46 4780 70CC            00F90 14261                       BZ    CLOSEX              Aok
 000F4A 47B0 7094/58E0_      00F58 14262                       IF    NEG,'VCALL MILERR; B CLOSEX'
 000F58 4110 7750/4100_      01614 14283                       SETMSG 'not closed.'
                                   14287
 000F60 9001 D000/41D0_      00000 14288              CLOSEERR XPUSH R0,R1
 000F68 4110 600C/4100_      0000C 14291                       TSEG  FSBNAME,,TB
 000F7A 4BD0 770A/9801_      015CE 14319                       XPOP  R0,R1
 000F82 41F0 B050/58E0_      00050 14322                       TSEG  (R1),(R0),WR
 000F8C 9680 BD5A      00D5A       14346                       SET   CPFABORT
 000F90 18D8/9808 D004_            14352              CLOSEX   PEND
 DROP   *,R7
 DROP   FSB,R6                     14373                       DROP  FSB
1TINT     (TINT2047) (12:57) (15MAR04) START Command                                                                        Page   52
0Current Usings:  (CP,R11) (CV,R12)
0Loc    Object Code    Addr1 Addr2  Stmt Lv Lineno    Source Statement           (Hibal 5, Asmedit 3.3)  HLASM R4.0  2004/03/15 12.57
+___    ______ ____    _____ _____  ____ __ ______    ______ _________
0                                  14382              ¿þþþþþþþþþþþþþþþþþþþþþþþþþþþþþþþþþþþþþþþþþþþþþþþþþþþþþþþþþþþþþþþþþþþþþÜ
                                   14383              Ÿ                                                                     Ÿ
                                   14384              Ÿ  START -- START command  (priv'd).                                  Ÿ
                                   14385              Ÿ                                                                     Ÿ
                                                      ¾þþþþþþþþþþþþþþþþþþþþþþþþþþþþþþþþþþþþþþþþþþþþþþþþþþþþþþþþþþþþþþþþþþþþþ»
0000000                00000 0029A 14386              STRTWA   RECORD BEGIN
 000000                            14394  1           STRTRNG    DS    XL(L'RNGCB)
 00029A                0029A 0029A 14395                       END
                                   14404              *
                                   14405              *
 000F9E 50E0 D000/9008_      00000 14406              START    XPROC STRTWA
 USING  *,R7
 USING  STRTWA-(4+36),R8
 000FB8 9110 B3BE/47E0_003BE       14457                       IF    ~CPSFOPR,CVNVALID   priv'd
                                   14475
 000FC0 D7FF 8028 8028_00000 00000 14476                       CLEAR STRTWA
 000FD2 4100 0020            00020 14485                       LA    R0,L'RNGFMULT
 000FD6 58E0 B08C/D203_      0008C 14486                       SETSCKWS GETRPRT          No special prt
 000FE4 41F0 8028            00000 14499                       LA    R15,STRTRNG
 000FE8 58E0 75A4/0DEE       0155C 14500                       VCALL GETTRNG
 000FEE 4780 C7DE            007DE 14504                       BZ    CVNEXT
                                   14505
 000FF2 4100 705A            01012 14506                       LA    R0,STARTSEL         Range selection co-routine
 000FF6 4110 7098            01050 14507                       LA    R1,STARTRTN         Range co-routine
 000FFA 58E0 75A8/0DEE       01560 14508                       VCALL TRANGE
 001000 47F0 C7DE            007DE 14512                       B     CVNEXT
                                   14513
 001004 18D8/9808 D004_            14514                       PEND
 DROP   STRTWA-(4+36),R8
 DROP   *,R7
1TINT     (TINT2047) (12:57) (15MAR04) START Command                                                                        Page   53
0Current Usings:  (CP,R11) (CV,R12)
0Loc    Object Code    Addr1 Addr2  Stmt Lv Lineno    Source Statement           (Hibal 5, Asmedit 3.3)  HLASM R4.0  2004/03/15 12.57
+___    ______ ____    _____ _____  ____ __ ______    ______ _________
0                                  14540              ¿þþþþþþþþþþþþþþþþþþþþþþþþþþþþþþþþþþþþþþþþþþþþþþþþþþþþþþþþþþþþþþþþþþþþþÜ
                                   14541              Ÿ                                                                     Ÿ
                                   14542              Ÿ  STARTSEL -- START command range selection co-routine.              Ÿ
                                   14543              Ÿ                                                                     Ÿ
                                   14544              Ÿ    On entry:                                                        Ÿ
                                   14545              Ÿ      R0 - rngtype                                                   Ÿ
                                   14546              Ÿ      R1 - FSB/PSB ptr                                               Ÿ
                                   14547              Ÿ                                                                     Ÿ
                                   14548              Ÿ    On exit, R15 (and CC):                                           Ÿ
                                   14549              Ÿ      0 - use item                                                   Ÿ
                                   14550              Ÿ      4 - skip item                                                  Ÿ
                                   14551              Ÿ                                                                     Ÿ
                                                      ¾þþþþþþþþþþþþþþþþþþþþþþþþþþþþþþþþþþþþþþþþþþþþþþþþþþþþþþþþþþþþþþþþþþþþþ»
0001012 50E0 D000/9008_      00000 14552              STARTSEL PROC  ,
 USING  *,R7
 00102C 1861                       14591                       LR    R6,R1
 00102E 41F0 0004            00004 14592                       LA    R15,4               Assume skip
                                   14593
 001032 5900 7558/4770_      01584 14594                       IF    (R0,EQ,RNGTFE),BEGIN  front-end...
 USING  FSB,R6                     14611  1                      WITH  (FSB,R6)
                                   14624  1           *temp    if    ~fsbfcls,startsx    already open, skip
 00103A 1BFF                       14625  1                      CLEAR R15
 DROP   FSB,R6                     14629                       END
                                   14638
 00103C 7014/47F0 7016 0103C 01038 14639                       ELSE  BEGIN               Port...
 USING  PSB,R6                     14650  1                      WITH  (PSB,R6)
                                   14663  1           *temp    if    ~psbfstop,startsx   already started, skip
 001040 1BFF                       14664  1                      CLEAR R15
 DROP   PSB,R6                     14668                       END
                                   14677
 001042 18D8/9808 D004_            14678              STARTSX  PEND
 DROP   *,R7
1TINT     (TINT2047) (12:57) (15MAR04) START Command                                                                        Page   54
0Current Usings:  (CP,R11) (CV,R12)
0Loc    Object Code    Addr1 Addr2  Stmt Lv Lineno    Source Statement           (Hibal 5, Asmedit 3.3)  HLASM R4.0  2004/03/15 12.57
+___    ______ ____    _____ _____  ____ __ ______    ______ _________
0                                  14700              ¿þþþþþþþþþþþþþþþþþþþþþþþþþþþþþþþþþþþþþþþþþþþþþþþþþþþþþþþþþþþþþþþþþþþþþÜ
                                   14701              Ÿ                                                                     Ÿ
                                   14702              Ÿ  STARTRTN -- START command range co-routine.                        Ÿ
                                   14703              Ÿ                                                                     Ÿ
                                   14704              Ÿ    On entry:                                                        Ÿ
                                   14705              Ÿ      R0 - rngtype                                                   Ÿ
                                   14706              Ÿ      R1 - FSB/PSB ptr                                               Ÿ
                                   14707              Ÿ                                                                     Ÿ
                                                      ¾þþþþþþþþþþþþþþþþþþþþþþþþþþþþþþþþþþþþþþþþþþþþþþþþþþþþþþþþþþþþþþþþþþþþþ»
0001050 50E0 D000/9008_      00000 14708              STARTRTN PROC  ,
 USING  *,R7
 00106A 1861                       14747                       LR    R6,R1
                                   14748
 00106C 5900 751A/4770_      01584 14749                       IF    (R0,EQ,RNGTFE),BEGIN  front-end...
 USING  FSB,R6                     14766  1                      WITH  (FSB,R6)
 001074 9140 6069/47E0_00069       14779  1                      IF    FSBFDET,'SETMSG "IS DETACHED--NOT STARTED"; B STARTFR'
 001088 181D/41D0 D008             14804  1                      XPUSH ,,L'FDBT101,PTR=R1
 USING  FDBT101,R1                 14807  1                      WITH  (FDBT101,R1),BEGIN
 00108E D704 1000 1000 00000 00000 14821  2                        CLEAR FDBT101
 001094 D201 1000 6000 00000 00000 14828  2                        MVC   FDBTFE,FSBID        Front-end id
 00109A 9265 1002      00002       14829  2                        MVI   FDBTDNO,FDBPSETF    Set front-end
 00109E 9680 1004      00004       14830  2                        SET   FDBTFSTR            Start
 0010A2 4100 0005/41F0_      00005 14836  2                        TSEG  FDBT101
 DROP   FDBT101,R1                 14863  1                      END
 0010B0 4BD0 7562            015CC 14871  1                      XPOP  ,,L'FDBT101
 0010B4 4100 006A/58E0_      0006A 14873  1                      TCNTL CTLPSETD
 0010BE 4780 718E            011F8 14885  1                      BZ    STARTX
 0010C2 47B0 7066/58E0_      010D0 14886  1                      IF    NEG,'VCALL MILERR; B STARTX'
 0010D0 4110 75B5/4100_      0161F 14907  1                      SETMSG 'NOT STARTED'
 0010D8 9001 D000/41D0_      00000 14911  1           STARTFR    XPUSH R0,R1
 0010E0 4110 600C/4100_      0000C 14914  1                      SETMSG FSBNAME
 0010E8 58E0 751E/0DEE       01588 14928  1                      VCALL LRTRIM
 0010EE 41F0 B050/58E0_      00050 14932  1                      TSEG  (R1),(R0),B
 0010F8 4BD0 7564/9801_      015CE 14956  1                      XPOP  R0,R1
 001100 41F0 B050/58E0_      00050 14959  1                      TSEG  (R1),(R0),WR
 00110A 9680 BD5A      00D5A       14983  1                      SET   CPFABORT
 00110E 47F0 718E            011F8 14989  1                      B     STARTX
 DROP   FSB,R6                     14990                       END
                                   14999
 USING  PSB,R6                     15000                       WITH  (PSB,R6),BEGIN      Port...
 001112 9120 604B/47E0_0004B       15014  1                      IF  PSBFDUM,'SETMSG "IS A DUMMY PORT--NOT STARTED"; B STARTPR'
 001126 9140 604B/47E0_0004B       15039  1                      IF    PSBFDET,'SETMSG "IS DETACHED--NOT STARTED"; B STARTPR'
 00113A 181D/41D0 D008             15064  1                      XPUSH ,,L'FDBT102,PTR=R1
 USING  FDBT102,R1                 15067  1                      WITH  (FDBT102,R1),BEGIN
 001140 D706 1000 1000 00000 00000 15081  2                        CLEAR FDBT102
 001146 D201 1000 6000 00000 00000 15088  2                        MVC   FDBTFE,PSBFEID      Front-end id
 00114C 9266 1002      00002       15089  2                        MVI   FDBTDNO,FDBPSETP    Set port
 001150 D201 1004 6002 00004 00002 15090  2                        MVC   FDBT102P,PSBPNO     Port number
 001156 9680 1006      00006       15091  2                        SET   FDBTPSTR            Start
 00115A 4100 0007/41F0_      00007 15097  2                        TSEG  FDBT102
 DROP   FDBT102,R1                 15124  1                      END
 001168 4BD0 7566            015D0 15132  1                      XPOP  ,,L'FDBT102
 00116C 4100 006A/58E0_      0006A 15134  1                      TCNTL CTLPSETD
1TINT     (TINT2047) (12:57) (15MAR04) START Command                                                                        Page   55
0Current Usings:  (PSB,R6) (*,R7) (CP,R11) (CV,R12)
0Loc    Object Code    Addr1 Addr2  Stmt Lv Lineno    Source Statement           (Hibal 5, Asmedit 3.3)  HLASM R4.0  2004/03/15 12.57
+___    ______ ____    _____ _____  ____ __ ______    ______ _________
0001176 4780 718E            011F8 15146  1                      BZ    STARTX
 00117A 47B0 711E/58E0_      01188 15147  1                      IF    NEG,'VCALL MILERR; B STARTX'
 001188 4110 75B5/4100_      0161F 15168  1                      SETMSG 'NOT STARTED'
 001190 9001 D000/41D0_      00000 15172  1           STARTPR    XPUSH R0,R1
 001198 4110 600C/4100_      0000C 15175  1                      SETMSG PSBFENM
 0011A0 58E0 751E/0DEE       01588 15189  1                      VCALL LRTRIM
 0011A6 41F0 B050/58E0_      00050 15193  1                      TSEG  (R1),(R0)
 0011B0 4110 75C0/4100_      0162A 15217  1                      TSEG  '-'
 0011C2 4110 6018/4100_      00018 15235  1                      SETMSG PSBNAME
 0011CA 58E0 751E/0DEE       01588 15249  1                      VCALL LRTRIM
 0011D0 41F0 B050/58E0_      00050 15253  1                      TSEG  (R1),(R0),B
 0011DA 4BD0 7564/9801_      015CE 15277  1                      XPOP  R0,R1
 0011E2 41F0 B050/58E0_      00050 15280  1                      TSEG  (R1),(R0),WR
 0011EC 4770 C7DA            007DA 15304  1                      BNZ   CVABORT
 0011F0 9680 BD5A      00D5A       15305  1                      SET   CPFABORT
 0011F4 47F0 718E            011F8 15311  1                      B     STARTX
 DROP   PSB,R6                     15312                       END
                                   15320
 0011F8 18D8/9808 D004_            15321              STARTX   PEND
 DROP   *,R7
1TINT     (TINT2047) (12:57) (15MAR04) STOP Command                                                                         Page   56
0Current Usings:  (CP,R11) (CV,R12)
0Loc    Object Code    Addr1 Addr2  Stmt Lv Lineno    Source Statement           (Hibal 5, Asmedit 3.3)  HLASM R4.0  2004/03/15 12.57
+___    ______ ____    _____ _____  ____ __ ______    ______ _________
0                                  15343              ¿þþþþþþþþþþþþþþþþþþþþþþþþþþþþþþþþþþþþþþþþþþþþþþþþþþþþþþþþþþþþþþþþþþþþþÜ
                                   15344              Ÿ                                                                     Ÿ
                                   15345              Ÿ  STOP -- STOP command  (priv'd).                                    Ÿ
                                   15346              Ÿ                                                                     Ÿ
                                                      ¾þþþþþþþþþþþþþþþþþþþþþþþþþþþþþþþþþþþþþþþþþþþþþþþþþþþþþþþþþþþþþþþþþþþþþ»
0000000                00000 0029A 15347              STOPWA   RECORD BEGIN
 000000                            15355  1           STOPRNG    DS    XL(L'RNGCB)
 00029A                0029A 0029A 15356                       END
                                   15365              *
                                   15366              *
 001206 50E0 D000/9008_      00000 15367              STOP     XPROC STOPWA
 USING  *,R7
 USING  STOPWA-(4+36),R8
 001220 9110 B3BE/4710_003BE       15418                       IF    ~CPSFOPR,'VCALL CMDFIN'   Pass on to ORVYL ...
                                   15442
 00122E 58E0 B08C/D2AF_      0008C 15443                       SCPUSH
 00123C 5810 B08C/1B00_      0008C 15449                       SCAN  ,
 00128A 58E0 7394/0DEE       015B4 15480                       SCANCHK
 001290 5810 B08C/4111_      0008C 15485                       SCUPTOK R1
 001298 1200/4770 708A             15489                       IF    (R0,Z),BEGIN
 00129E 4110 73B4/4100_      015D4 15503  1                      ABORT 'Use "STOP MILTEN" command to terminate Milten.'
 0012AA                            15510                       END
 0012AA 1200/4780 70A0_            15514                       IF    ((R0,NZ),AND,(@R1,EQ,'MIL ')),'ACALL SHUTDOWN'
 0012C0 1200/4780 70B6_            15552                       IF    ((R0,NZ),AND,(@R1,EQ,'MILTEN ')),'ACALL SHUTDOWN'
 0012D6 58E0 B08C/4BD0_      0008C 15590                       SCPOP
                                   15596
 0012E4 4100 0020            00020 15597                       LA    R0,L'RNGFMULT
 0012E8 58E0 B08C/D203_      0008C 15598                       SETSCKWS GETRPRT          No special prt
 0012F6 41F0 8028            00000 15611                       LA    R15,STOPRNG
 0012FA 58E0 733C/0DEE       0155C 15612                       VCALL GETTRNG
 001300 4780 C7DE            007DE 15616                       BZ    CVNEXT
                                   15617
 001304 4100 713E            0135E 15618                       LA    R0,STOPSEL          Range selection co-routine
 001308 4110 718C            013AC 15619                       LA    R1,STOPRTN          Range co-routine
 00130C 58E0 7340/0DEE       01560 15620                       VCALL TRANGE
 001312 47F0 C7DE            007DE 15624                       B     CVNEXT
 001316 18D8/9808 D004_            15625                       PEND
 DROP   STOPWA-(4+36),R8
 DROP   *,R7
1TINT     (TINT2047) (12:57) (15MAR04) STOP Command                                                                         Page   57
0Current Usings:  (CP,R11) (CV,R12)
0Loc    Object Code    Addr1 Addr2  Stmt Lv Lineno    Source Statement           (Hibal 5, Asmedit 3.3)  HLASM R4.0  2004/03/15 12.57
+___    ______ ____    _____ _____  ____ __ ______    ______ _________
0                                  15651              *
                                   15652              *  "stop milten"...
 001324 50E0 D000/9008_      00000 15653              SHUTDOWN PROC  ,
 USING  *,R7
 00133E 4100 006C/58E0_      0006C 15692                       TCNTL CTLPDIE             Down boy!
 001348 4770 C7F6            007F6 15704                       BNZ   CVMILERR
 00134C 47F0 C7DE            007DE 15705                       B     CVNEXT
 001350 18D8/9808 D004_            15706                       PEND
 DROP   *,R7
1TINT     (TINT2047) (12:57) (15MAR04) STOP Command                                                                         Page   58
0Current Usings:  (CP,R11) (CV,R12)
0Loc    Object Code    Addr1 Addr2  Stmt Lv Lineno    Source Statement           (Hibal 5, Asmedit 3.3)  HLASM R4.0  2004/03/15 12.57
+___    ______ ____    _____ _____  ____ __ ______    ______ _________
0                                  15727              ¿þþþþþþþþþþþþþþþþþþþþþþþþþþþþþþþþþþþþþþþþþþþþþþþþþþþþþþþþþþþþþþþþþþþþþÜ
                                   15728              Ÿ                                                                     Ÿ
                                   15729              Ÿ  STOPSEL -- STOP command range selection co-routine.                Ÿ
                                   15730              Ÿ                                                                     Ÿ
                                   15731              Ÿ    On entry:                                                        Ÿ
                                   15732              Ÿ      R0 - rngtype                                                   Ÿ
                                   15733              Ÿ      R1 - FSB/PSB ptr                                               Ÿ
                                   15734              Ÿ                                                                     Ÿ
                                   15735              Ÿ    On exit, R15 (and CC):                                           Ÿ
                                   15736              Ÿ      0 - use item                                                   Ÿ
                                   15737              Ÿ      4 - skip item                                                  Ÿ
                                   15738              Ÿ                                                                     Ÿ
                                                      ¾þþþþþþþþþþþþþþþþþþþþþþþþþþþþþþþþþþþþþþþþþþþþþþþþþþþþþþþþþþþþþþþþþþþþþ»
000135E 50E0 D000/9008_      00000 15739              STOPSEL  PROC  ,
 USING  *,R7
 001378 1861                       15778                       LR    R6,R1
 00137A 41F0 0004            00004 15779                       LA    R15,4               Assume skip
                                   15780
 00137E 5900 720C/4770_      01584 15781                       IF    (R0,EQ,RNGTFE),BEGIN  front-end...
 USING  FSB,R6                     15798  1                      WITH  (FSB,R6)
 001386 9180 6069/4710_00069       15811  1                      IF    FSBFCLS,STOPSX      Already closed, skip
 00138E 1BFF                       15829  1                      CLEAR R15
 DROP   FSB,R6                     15833                       END
                                   15842
 001390 701C/47F0 7026 01390 01384 15843                       ELSE  BEGIN               Port...
 USING  PSB,R6                     15854  1                      WITH  (PSB,R6)
 001394 9180 604B/4710_0004B       15867  1                      IF    PSBFSTOP,STOPSX     Already stopped, skip
 00139C 1BFF                       15885  1                      CLEAR R15
 DROP   PSB,R6                     15889                       END
                                   15898
 00139E 18D8/9808 D004_            15899              STOPSX   PEND
 DROP   *,R7
1TINT     (TINT2047) (12:57) (15MAR04) STOP Command                                                                         Page   59
0Current Usings:  (CP,R11) (CV,R12)
0Loc    Object Code    Addr1 Addr2  Stmt Lv Lineno    Source Statement           (Hibal 5, Asmedit 3.3)  HLASM R4.0  2004/03/15 12.57
+___    ______ ____    _____ _____  ____ __ ______    ______ _________
0                                  15921              ¿þþþþþþþþþþþþþþþþþþþþþþþþþþþþþþþþþþþþþþþþþþþþþþþþþþþþþþþþþþþþþþþþþþþþþÜ
                                   15922              Ÿ                                                                     Ÿ
                                   15923              Ÿ  STOPRTN -- STOP command range co-routine.                          Ÿ
                                   15924              Ÿ                                                                     Ÿ
                                   15925              Ÿ    On entry:                                                        Ÿ
                                   15926              Ÿ      R0 - rngtype                                                   Ÿ
                                   15927              Ÿ      R1 - FSB/PSB ptr                                               Ÿ
                                   15928              Ÿ                                                                     Ÿ
                                                      ¾þþþþþþþþþþþþþþþþþþþþþþþþþþþþþþþþþþþþþþþþþþþþþþþþþþþþþþþþþþþþþþþþþþþþþ»
00013AC 50E0 D000/9008_      00000 15929              STOPRTN  PROC  ,
 USING  *,R7
 0013C6 1861                       15968                       LR    R6,R1
                                   15969
 0013C8 5900 71BE/4770_      01584 15970                       IF    (R0,EQ,RNGTFE),BEGIN  front-end...
 USING  FSB,R6                     15987  1                      WITH  (FSB,R6)
 0013D0 181D/41D0 D008             16000  1                      XPUSH ,,L'FDBT101,PTR=R1
 USING  FDBT101,R1                 16003  1                      WITH  (FDBT101,R1),BEGIN
 0013D6 D704 1000 1000 00000 00000 16017  2                        CLEAR FDBT101
 0013DC D201 1000 6000 00000 00000 16024  2                        MVC   FDBTFE,FSBID        Front-end id
 0013E2 9265 1002      00002       16025  2                        MVI   FDBTDNO,FDBPSETF    Set front-end
 0013E6 9640 1004      00004       16026  2                        SET   FDBTFSTP            Stop
 0013EA 4100 0005/41F0_      00005 16032  2                        TSEG  FDBT101
 DROP   FDBT101,R1                 16059  1                      END
 0013F8 4BD0 7206            015CC 16067  1                      XPOP  ,,L'FDBT101
 0013FC 4100 006A/58E0_      0006A 16069  1                      TCNTL CTLPSETD
 001406 4780 7132            014F8 16081  1                      BZ    STOPX
 00140A 47B0 7052/58E0_      01418 16082  1                      IF    NEG,'VCALL MILERR; B STOPX'
 001418 4110 600C/4100_      0000C 16103  1                      SETMSG FSBNAME
 001420 58E0 71C2/0DEE       01588 16117  1                      VCALL LRTRIM
 001426 41F0 B050/58E0_      00050 16121  1                      TSEG  (R1),(R0),B
 001430 4110 71FA/4100_      015C0 16145  1                      TSEG  'not stopped.',,WR
 001442 4770 C7DA            007DA 16163  1                      BNZ   CVABORT
 001446 9680 BD5A      00D5A       16164  1                      SET   CPFABORT
 00144A 47F0 7132            014F8 16170  1                      B     STOPX
 DROP   FSB,R6                     16171                       END
                                   16180
 USING  PSB,R6                     16181                       WITH  (PSB,R6),BEGIN      Port...
 00144E 181D/41D0 D008             16195  1                      XPUSH ,,L'FDBT102,PTR=R1
 USING  FDBT102,R1                 16198  1                      WITH  (FDBT102,R1),BEGIN
 001454 D706 1000 1000 00000 00000 16212  2                        CLEAR FDBT102
 00145A D201 1000 6000 00000 00000 16219  2                        MVC   FDBTFE,PSBFEID      Front-end id
 001460 9266 1002      00002       16220  2                        MVI   FDBTDNO,FDBPSETP    Set port
 001464 D201 1004 6002 00004 00002 16221  2                        MVC   FDBT102P,PSBPNO     Port number
 00146A 9640 1006      00006       16222  2                        SET   FDBTPSTP            Stop
 00146E 4100 0007/41F0_      00007 16228  2                        TSEG  FDBT102
 DROP   FDBT102,R1                 16255  1                      END
 00147C 4BD0 720A            015D0 16263  1                      XPOP  ,,L'FDBT102
 001480 4100 006A/58E0_      0006A 16265  1                      TCNTL CTLPSETD
 00148A 4780 7132            014F8 16277  1                      BZ    STOPX
 00148E 47B0 70D6/58E0_      0149C 16278  1                      IF    NEG,'VCALL MILERR; B STOPX'
 00149C 4110 600C/4100_      0000C 16299  1                      SETMSG PSBFENM
 0014A4 58E0 71C2/0DEE       01588 16313  1                      VCALL LRTRIM
 0014AA 41F0 B050/58E0_      00050 16317  1                      TSEG  (R1),(R0)
1TINT     (TINT2047) (12:57) (15MAR04) STOP Command                                                                         Page   60
0Current Usings:  (PSB,R6) (*,R7) (CP,R11) (CV,R12)
0Loc    Object Code    Addr1 Addr2  Stmt Lv Lineno    Source Statement           (Hibal 5, Asmedit 3.3)  HLASM R4.0  2004/03/15 12.57
+___    ______ ____    _____ _____  ____ __ ______    ______ _________
00014B4 4110 7264/4100_      0162A 16341  1                      TSEG  '-'
 0014C6 4110 6018/4100_      00018 16359  1                      SETMSG PSBNAME
 0014CE 58E0 71C2/0DEE       01588 16373  1                      VCALL LRTRIM
 0014D4 41F0 B050/58E0_      00050 16377  1                      TSEG  (R1),(R0),B
 0014DE 4110 71FA/4100_      015C0 16401  1                      TSEG  'not stopped.',,WR
 0014F0 9680 BD5A      00D5A       16419  1                      SET   CPFABORT
 0014F4 47F0 7132            014F8 16425  1                      B     STOPX
 DROP   PSB,R6                     16426                       END
                                   16434
 0014F8 18D8/9808 D004_            16435              STOPX    PEND
 DROP   *,R7
                                   16456
                                   16457                       QLTORG
1TINT     (TINT2047) (12:57) (15MAR04) SET OPER Command                                                                     Page   61
0Current Usings:  (CP,R11) (CV,R12)
0Loc    Object Code    Addr1 Addr2  Stmt Lv Lineno    Source Statement           (Hibal 5, Asmedit 3.3)  HLASM R4.0  2004/03/15 12.57
+___    ______ ____    _____ _____  ____ __ ______    ______ _________
0                                  16507              ¿þþþþþþþþþþþþþþþþþþþþþþþþþþþþþþþþþþþþþþþþþþþþþþþþþþþþþþþþþþþþþþþþþþþþþÜ
                                   16508              Ÿ                                                                     Ÿ
                                   16509              Ÿ  SETOPER -- SET OPER command  (priv'd).                             Ÿ
                                   16510              Ÿ                                                                     Ÿ
                                                      ¾þþþþþþþþþþþþþþþþþþþþþþþþþþþþþþþþþþþþþþþþþþþþþþþþþþþþþþþþþþþþþþþþþþþþþ»
0000000                00000 0029A 16511              SETOWA   RECORD BEGIN
 000000                            16519  1           SETORNG    DS    XL(L'RNGCB)
 00029A                0029A 0029A 16520                       END
                                   16529              *
                                   16530              *
 001632 50E0 D000/9008_      00000 16531              SETOPER  XPROC SETOWA
 USING  *,R7
 USING  SETOWA-(4+36),R8
 00164C 9130 B3BE/4780_003BE       16582                       IF    (CPSFOPR+CPSFSPR,Z),CVNVALID
                                   16605
 001654 D7FF 8028 8028_00000 00000 16606                       CLEAR SETOWA
 001666 4100 0340            00340 16615                       LA    R0,RNGTSES*256+L'RNGFDOUR
 00166A 58E0 B08C/D203_      0008C 16616                       SETSCKWS GETRPRT          No special prt
 001678 41F0 8028            00000 16629                       LA    R15,SETORNG
 00167C 58E0 7918/0DEE       01F64 16630                       VCALL GETTRNG
 001682 4780 C7DA            007DA 16634                       BZ    CVABORT
                                   16635
 001686 1B00                       16636                       CLEAR R0                  No selection routine
 001688 4110 704A            01696 16640                       LA    R1,OPERRTN          Range co-routine
 00168C 58E0 791C/0DEE       01F68 16641                       VCALL TRANGE
 001692 47F0 C7DE            007DE 16645                       B     CVNEXT
                                   16646
 DROP   *,R7                       16647                       DROP  BR
1TINT     (TINT2047) (12:57) (15MAR04) SET OPER Command                                                                     Page   62
0Current Usings:  (SETOWA-(4+36),R8) (CP,R11) (CV,R12)
0Loc    Object Code    Addr1 Addr2  Stmt Lv Lineno    Source Statement           (Hibal 5, Asmedit 3.3)  HLASM R4.0  2004/03/15 12.57
+___    ______ ____    _____ _____  ____ __ ______    ______ _________
0                                  16655              ¿þþþþþþþþþþþþþþþþþþþþþþþþþþþþþþþþþþþþþþþþþþþþþþþþþþþþþþþþþþþþþþþþþþþþþÜ
                                   16656              Ÿ                                                                     Ÿ
                                   16657              Ÿ  OPERRTN -- SET OPER command range co-routine.                      Ÿ
                                   16658              Ÿ                                                                     Ÿ
                                   16659              Ÿ    On entry:                                                        Ÿ
                                   16660              Ÿ      R1 - SIB ptr                                                   Ÿ
                                   16661              Ÿ                                                                     Ÿ
                                                      ¾þþþþþþþþþþþþþþþþþþþþþþþþþþþþþþþþþþþþþþþþþþþþþþþþþþþþþþþþþþþþþþþþþþþþþ»
0001696 50E0 D000/9008_      00000 16662              OPERRTN  PROC  ,
 USING  *,R7
 DROP   SETOWA-(4+36),R8
 0016B0 1861                       16704                       LR    R6,R1
 USING  SIB,R6                     16705                       USING SIB,R6
                                   16714
 0016B2                            16715                       LOOP  BEGIN
 0016B2 9610 6077      00077       16721  1                      SET   SIBSFOP             Operator
 0016B6 95D5 BD24/4770_00D24       16727  1                      IF    (CPCMNM,EQ,'N'),'CLEAR SIBSFOP'
 0016C2 41F0 0001/4AF0_      00001 16756  1                      INCR  R15,SIBUC           Kick update count
 0016CE 4110 6000/4100_      00000 16762  1                      TSEG  SIBID
 0016E0 4110 6004/4100_      00004 16790  1                      TSEG  SIBNO
 0016F2 4110 6080/4100_      00080 16818  1                      TSEG  SIBUC
 001704 4110 6070/4100_      00070 16846  1                      TSEG  SIBSESS
 001716 4100 0066/58E0_      00066 16874  1                      TCNTL CTLPSETO            Set session options
 001720 4780 7086            01736 16886  1                      IF    Z,EXIT              Ok
 001724 59F0 78C4/4770_      01F74 16900  1                      IF    (R15,NE,4),CVMILERR
 00172C D2FD 6000 1000 00000 00000 16920  1                      MVC   SIB,@R1             Must re-update this sib
 001732 47F0 7002            016B2 16921                       END
 001736 18D8/9808 D004_            16926                       PEND
 DROP   *,R7
 DROP   SIB,R6                     16946                       DROP  SIB
1TINT     (TINT2047) (12:57) (15MAR04) BROADCAST Command                                                                    Page   63
0Current Usings:  (CP,R11) (CV,R12)
0Loc    Object Code    Addr1 Addr2  Stmt Lv Lineno    Source Statement           (Hibal 5, Asmedit 3.3)  HLASM R4.0  2004/03/15 12.57
+___    ______ ____    _____ _____  ____ __ ______    ______ _________
0000000                00000 003C3 16955              BROADWA  RECORD BEGIN
 000000                            16963  1           BRRNG      DS    XL(L'RNGCB)
                                   16964  1           BRSG       SEGCB
 00029C 00                         16965  1 01-SEGCB +$$$SEGCB247   DS 0F
 BRSGCOD.BRSGSEG   01 EQ
 BRSGCOD.BRSGWR    02 EQ
 BRSGCOD.BRSGCLR   03 EQ
 BRSGCOD.BRSGSPP   04 EQ
 BRSGCOD.BRSGOVF   05 EQ
 BRSGCOD.BRSGCR    06 EQ
 BRSGCOD.BRSGMAR   07 EQ
 00029D 00                         17040  1 01-SEGCB +           DC    X'00'               Reserved
 00029E 0000                              1          +
 0002A0 00000000                   17041  1 01-SEGCB +BRSGMAXF   DC    A(0)                Maximum buffer length
 0002A4 00000000                   17042  1 01-SEGCB +BRSGMRKF   DC    A(0)                Length at last mark
 0002A8 00000000                   17043  1 01-SEGCB +BRSGLENF   DC    A(0)                Current length
 0002AC 00000000                   17044  1 01-SEGCB +BRSGINDF   DC    A(0)                Overflow/indent count
 0002B0 00000000                   17045  1 01-SEGCB +BRSGERR    DC    A(0)                Address of error recovery routine
 0002B4 0000000000000000           17046  1 01-SEGCB +           DC    2F'0'               Reserved
 0002BC 00000000                   17047  1 01-SEGCB +BRSGLOC    DC    A(0)                Location of buffer
 0002C0 00000000                   17048  1 01-SEGCB +BRSGRTN    DC    A(0)                Processing routine
 0002C4 0000000000000000           17049  1 01-SEGCB +           DC    4F'0'               Reserved
 0002D4 00000000                   17050  1 01-SEGCB +BRSGUSR    DC    A(0)                USER field
                                   17051  1 01-SEGCB +BRSG       EQU   $$$SEGCB247,*-$$$SEGCB247,C'X'
                                   17052  1
                                   17053  1           BRSGBUF    DS    CL(&LINESZ)
 0002D8                                   1          +BRSGBUF    DS    CL(235)
 0003C3                003C3 003C3 17054                       END
-                                  17064              ¿þþþþþþþþþþþþþþþþþþþþþþþþþþþþþþþþþþþþþþþþþþþþþþþþþþþþþþþþþþþþþþþþþþþþþÜ
                                   17065              Ÿ                                                                     Ÿ
                                   17066              Ÿ  BROADCAS -- BROADCAST command  (priv'd).                           Ÿ
                                   17067              Ÿ                                                                     Ÿ
                                                      ¾þþþþþþþþþþþþþþþþþþþþþþþþþþþþþþþþþþþþþþþþþþþþþþþþþþþþþþþþþþþþþþþþþþþþþ»
0001744 50E0 D000/9008_      00000 17068              BROADCAS XPROC BROADWA
 USING  *,R7
 USING  BROADWA-(4+36),R8
 00175E 58E0 781A/0DEE       01F78 17119                       VCALL ORVCPASS            (allow SPIRES to intercept)
                                   17123
 001764 4160 8028            00000 17124                       LA    R6,BROADWA
 001768 5060 BCA4            00CA4 17125                       ST    R6,CPCWA            Broadwa ptr
 USING  BROADWA,R6                 17126                       USING BROADWA,R6
 00176C D7FF 6000 6000_00000 00000 17135                       CLEAR BROADWA
                                   17145
 001784 4110 62D8/4100_      002D8 17146                       SEGINIT BRSGBUF,,BRSG
                                   17173
 001796 9110 B3BE/47E0_003BE       17174                       IF    ~CPSFOPR,CVNVALID   priv'd
                                   17192
 00179E 5810 B08C/1B00_      0008C 17193                       SCAN  ,
 0017EC 58E0 7826/0DEE       01F84 17224                       SCANCHK
 0017F2 1200/4770 70A6_            17229                       IF    (R0,Z),'ERROR "MISSING LINE-RANGE FOR BROADCAST"'
 001804 9001 D000/41D0_      00000 17255                       XPUSH R0,R1
1TINT     (TINT2047) (12:57) (15MAR04) BROADCAST Command                                                                    Page   64
0Current Usings:  (BROADWA,R6) (*,R7) (BROADWA-(4+36),R8) (CP,R11) (CV,R12)
0Loc    Object Code    Addr1 Addr2  Stmt Lv Lineno    Source Statement           (Hibal 5, Asmedit 3.3)  HLASM R4.0  2004/03/15 12.57
+___    ______ ____    _____ _____  ____ __ ______    ______ _________
0                                  17258
 00180C 58E0 B08C/581E_      0008C 17259                       SCINFO
 00181A 1200/47D0 70D4_            17268                       WHILE ((R0,POS),AND,(@R1,EQ,' ')),'LA R1,@R1+1; DECR R0'
 001832 D502 78BE BD24_0201C 00D24 17308                       IF    ((CPCMNM,EQ,'SEN'),AND,(R0,POS)),BEGIN    ***temp***
 001842 41F0 B050/58E0_      00050 17338  1                      TSEG  (R1),(R0)                                 ***temp***
 00184C 4110 78C1/4100_      0201F 17362  1                      ABORT ': INVALID'                               ***temp***
 001858                            17369                       END   ,                                         ***temp***
                                   17373              *                                                        ***temp***
 001858 9001 D000/41D0_      00000 17374                       XPUSH R0,R1               Save 'em again
 001860 58E0 782A/0DEE       01F88 17377                       VCALL LOCALTOD            Get current time/date
 001866 1820                       17381                       LR    R2,R0
 001868 4BD0 7890/9801_      01FEE 17382                       XPOP  R0,R1               Get 'em back
 001870 1200/4720 713A             17385                       IF    (R0,~POS),BEGIN     Use general message...
 001876 D6EA CA1C CA1C_00A1C 00A1C 17399  1                      IF    (CVMSG,Z),'ABORT "NO BROADCAST MESSAGE"'
 00188C 4110 CA1C/4100_      00A1C 17427  1                      SETMSG CVMSG
 001894 5820 CA18            00A18 17441  1                      L     R2,CVMSGCK          Time/date when msg was set
 001898                            17442                       END
                                   17446
 001898 9001 D000/41D0_      00000 17447                       XPUSH R0,R1
 0018A0 1802                       17450                       LR    R0,R2
 0018A2 1B11                       17451                       CLEAR R1
 0018A4 1B22/1B33                  17455                       CLEAR R2,R3
 0018A8 18FD/41D0 D020             17461                       XPUSH ,,30,PTR=R15
 0018AE 58E0 7842/0DEE       01FA0 17464                       VCALL FMTRCLCK            "hh:mm" or "hh:mm mm/dd/yyyy"
 0018B4 41F0 629C/58E0_      0029C 17468                       SEG   (R1),(R0)
 0018BE 4110 C4D8/4100_      004D8 17491                       SEG   CVBLANKS,2
 0018D0 4BD0 7892            01FF0 17520                       XPOP  ,,30
 0018D4 4BD0 7890/9801_      01FEE 17522                       XPOP  R0,R1
 0018DC 41F0 629C/58E0_      0029C 17525                       SEGT  (R1),(R0)
                                   17549
 0018E6 4BD0 7890/9801_      01FEE 17550                       XPOP  R0,R1
 0018EE 58E0 B08C/501E_      0008C 17553                       SCINIT (R1),(R0)          Line-range
 0018FC 4100 0320            00320 17573                       LA    R0,RNGTSES*256+L'RNGFMULT  range options
 001900 58E0 B08C/D203_      0008C 17574                       SETSCKWS GETRPRT          No special prt
 00190E 41F0 6000            00000 17587                       LA    R15,BRRNG
 001912 58E0 7806/0DEE       01F64 17588                       VCALL GETTRNG
 001918 4780 C7DA            007DA 17592                       BZ    CVABORT
                                   17593
 00191C 4100 71DE            0193C 17594                       LA    R0,BROADSEL         Selection co-routine
 001920 4110 721E            0197C 17595                       LA    R1,BROADRTN         Range co-routine
 001924 58E0 780A/0DEE       01F68 17596                       VCALL TRANGE
 00192A 47F0 C7DE            007DE 17600                       B     CVNEXT
                                   17601
 00192E 18D8/9808 D004_            17602                       PEND
 DROP   BROADWA-(4+36),R8
 DROP   *,R7
1TINT     (TINT2047) (12:57) (15MAR04) BROADCAST Command                                                                    Page   65
0Current Usings:  (BROADWA,R6) (CP,R11) (CV,R12)
0Loc    Object Code    Addr1 Addr2  Stmt Lv Lineno    Source Statement           (Hibal 5, Asmedit 3.3)  HLASM R4.0  2004/03/15 12.57
+___    ______ ____    _____ _____  ____ __ ______    ______ _________
0                                  17628              ¿þþþþþþþþþþþþþþþþþþþþþþþþþþþþþþþþþþþþþþþþþþþþþþþþþþþþþþþþþþþþþþþþþþþþþÜ
                                   17629              Ÿ                                                                     Ÿ
                                   17630              Ÿ  BROADSEL -- BROADCAST command range selection co-routine.          Ÿ
                                   17631              Ÿ                                                                     Ÿ
                                   17632              Ÿ    On entry:                                                        Ÿ
                                   17633              Ÿ      R1 - SIB ptr                                                   Ÿ
                                   17634              Ÿ                                                                     Ÿ
                                   17635              Ÿ    On exit, R15 (and CC):                                           Ÿ
                                   17636              Ÿ      0 - use item                                                   Ÿ
                                   17637              Ÿ      4 - skip item                                                  Ÿ
                                   17638              Ÿ                                                                     Ÿ
                                                      ¾þþþþþþþþþþþþþþþþþþþþþþþþþþþþþþþþþþþþþþþþþþþþþþþþþþþþþþþþþþþþþþþþþþþþþ»
000193C 50E0 D000/9008_      00000 17639              BROADSEL PROC
 USING  *,R7
 001956 1861                       17678                       LR    R6,R1
 DROP   BROADWA,R6                 17679                       USING SIB,R6
 USING  SIB,R6
                                   17691
 001958                            17692                       BEGIN
 001958 41F0 0004            00004 17696  1                      LA    R15,4               Assume skip
 00195C 9180 60AA/4710_000AA       17697  1                      IF    SIBFNMSG,EXIT       Nomsg blocks broadcast
 001964 9120 6077/4710_00077       17715  1                      IF    SIBSFPS,EXIT        Skip psuedo-sessions
 00196C 1BFF                       17733  1                      CLEAR R15
 00196E                            17737                       END
 00196E 18D8/9808 D004_            17741                       PEND
 DROP   *,R7
 DROP   SIB,R6                     17761                       DROP  SIB
1TINT     (TINT2047) (12:57) (15MAR04) BROADCAST Command                                                                    Page   66
0Current Usings:  (CP,R11) (CV,R12)
0Loc    Object Code    Addr1 Addr2  Stmt Lv Lineno    Source Statement           (Hibal 5, Asmedit 3.3)  HLASM R4.0  2004/03/15 12.57
+___    ______ ____    _____ _____  ____ __ ______    ______ _________
0                                  17770              ¿þþþþþþþþþþþþþþþþþþþþþþþþþþþþþþþþþþþþþþþþþþþþþþþþþþþþþþþþþþþþþþþþþþþþþÜ
                                   17771              Ÿ                                                                     Ÿ
                                   17772              Ÿ  BROADRTN -- BROADCAST command range co-routine.                    Ÿ
                                   17773              Ÿ                                                                     Ÿ
                                   17774              Ÿ    On entry:                                                        Ÿ
                                   17775              Ÿ      R1 - SIB ptr                                                   Ÿ
                                   17776              Ÿ                                                                     Ÿ
                                                      ¾þþþþþþþþþþþþþþþþþþþþþþþþþþþþþþþþþþþþþþþþþþþþþþþþþþþþþþþþþþþþþþþþþþþþþ»
000197C 50E0 D000/9008_      00000 17777              BROADRTN PROC  ,
 USING  *,R7
 001996 5860 BCA4            00CA4 17816                       L     R6,CPCWA
 USING  BROADWA,R6                 17817                       USING BROADWA,R6
 00199A 1851                       17826                       LR    R5,R1
 USING  SIB,R5                     17827                       USING SIB,R5
                                   17836
 00199C 9501 5048/4780_00048       17837                       IF    ~SIBTCONS,'TSEG X"2F15"'
 0019B6 5810 62BC/5800_      002BC 17875                       SETMSG L:BRSGLOC,L:BRSGLENF
 0019BE 41F0 B050/58E0_      00050 17887                       TSEG  (R1),(R0)
 0019C8 9501 5048/4780_00048       17911                       IF    ~SIBTCONS,'TSEG X"15"'
 0019E2 5810 5000            00000 17949                       L     R1,SIBID            Session id
 0019E6 58E0 7612/0DEE       01FA8 17950                       VCALL TASWRITE            Async write
 0019EC 4780 70F0            01A86 17954                       IF    NZ,BEGIN
 0019F0 4110 7693/4100_      02029 17965  1                      TSEG  'Broadcast skipped for account',,B
 001A02 4110 5073/4100_      00073 17983  1                      TSEG  SIBGRP
 001A14 4110 76B0/4100_      02046 18011  1                      TSEG  '.'
 001A26 4110 5070/4100_      00070 18029  1                      TSEG  SIBUSER
 001A38 1F22/BF23 5075             18057  1                      L2    R2,SIBANO
 001A3E 5920 761A/47D0_      01FB0 18065  1                      IF    (R2,GT,1),BEGIN
 001A46 4110 76B1/4100_      02047 18082  2                        TSEG  '#'
 001A58 18F2/1B00/4110_            18100  2                        BTD   CPDOUB,0,(R2)
 001A66 41F0 B050/58E0_      00050 18120  2                        TSEG  (R1),(R0)
 001A70                            18144  1                      END
 001A70 4110 765E/4100_      01FF4 18148  1                      TSEG  ' -- msg limit exceeded',,WR
 001A82 4770 C7DA            007DA 18166  1                      BNZ   CVABORT
 001A86                            18167                       END
 001A86 18D8/9808 D004_            18171                       PEND
 DROP   *,R7
 DROP   SIB,R5                     18191                       DROP  SIB,BROADWA
 DROP   BROADWA,R6
1TINT     (TINT2047) (12:57) (15MAR04) KILL Command                                                                         Page   67
0Current Usings:  (CP,R11) (CV,R12)
0Loc    Object Code    Addr1 Addr2  Stmt Lv Lineno    Source Statement           (Hibal 5, Asmedit 3.3)  HLASM R4.0  2004/03/15 12.57
+___    ______ ____    _____ _____  ____ __ ______    ______ _________
0                                  18207              ¿þþþþþþþþþþþþþþþþþþþþþþþþþþþþþþþþþþþþþþþþþþþþþþþþþþþþþþþþþþþþþþþþþþþþþÜ
                                   18208              Ÿ                                                                     Ÿ
                                   18209              Ÿ  KILL -- KILL command.                                              Ÿ
                                   18210              Ÿ                                                                     Ÿ
                                                      ¾þþþþþþþþþþþþþþþþþþþþþþþþþþþþþþþþþþþþþþþþþþþþþþþþþþþþþþþþþþþþþþþþþþþþþ»
0000000                00000 0029A 18211              KILLWA   RECORD BEGIN
 000000                            18219  1           KILLRNG    DS    XL(L'RNGCB)
 00029A                0029A 0029A 18220                       END
                                   18229              *
                                   18230              *
 001A94 50E0 D000/9008_      00000 18231              KILL     XPROC KILLWA
 USING  *,R7
 USING  KILLWA-(4+36),R8
                                   18282
 001AAE D7FF 8028 8028_00000 00000 18283                       CLEAR KILLWA
 001AC0 4100 0320            00320 18292                       LA    R0,RNGTSES*256+L'RNGFMULT
 001AC4 58E0 B08C/D203_      0008C 18293                       SETSCKWS GETRPRT          No special prt
 001AD2 41F0 8028            00000 18306                       LA    R15,KILLRNG
 001AD6 58E0 74B6/0DEE       01F64 18307                       VCALL GETTRNG
 001ADC 4780 C7DA            007DA 18311                       BZ    CVABORT
                                   18312
 001AE0 4100 7052            01B00 18313                       LA    R0,KILLSEL          Range selection co-routine
 001AE4 4110 7184            01C32 18314                       LA    R1,KILLRTN          Range co-routine
 001AE8 58E0 74BA/0DEE       01F68 18315                       VCALL TRANGE
 001AEE 47F0 C7DE            007DE 18319                       B     CVNEXT
                                   18320
 001AF2 18D8/9808 D004_            18321                       PEND
 DROP   KILLWA-(4+36),R8
 DROP   *,R7
1TINT     (TINT2047) (12:57) (15MAR04) KILL Command                                                                         Page   68
0Current Usings:  (CP,R11) (CV,R12)
0Loc    Object Code    Addr1 Addr2  Stmt Lv Lineno    Source Statement           (Hibal 5, Asmedit 3.3)  HLASM R4.0  2004/03/15 12.57
+___    ______ ____    _____ _____  ____ __ ______    ______ _________
0                                  18347              ¿þþþþþþþþþþþþþþþþþþþþþþþþþþþþþþþþþþþþþþþþþþþþþþþþþþþþþþþþþþþþþþþþþþþþþÜ
                                   18348              Ÿ                                                                     Ÿ
                                   18349              Ÿ  KILLSEL -- KILL command range selection co-routine.                Ÿ
                                   18350              Ÿ                                                                     Ÿ
                                   18351              Ÿ    On entry:                                                        Ÿ
                                   18352              Ÿ      R1 - SIB ptr                                                   Ÿ
                                   18353              Ÿ                                                                     Ÿ
                                   18354              Ÿ    On exit, R15 (and CC):                                           Ÿ
                                   18355              Ÿ      0 - use item                                                   Ÿ
                                   18356              Ÿ      4 - skip item                                                  Ÿ
                                   18357              Ÿ                                                                     Ÿ
                                                      ¾þþþþþþþþþþþþþþþþþþþþþþþþþþþþþþþþþþþþþþþþþþþþþþþþþþþþþþþþþþþþþþþþþþþþþ»
0000000                00000 002FA 18358              KSWA     RECORD BEGIN
 000000                            18366  1           KSSPTR     DS    A                   Saved R1 on entry
 000004                            18367  1           KSSIB      DS    XL(L'SIB)           SIB
 000102                            18368  1           KSKWR      DS    XL(L'KWR)           KWR work area
 0002FA                002FA 002FA 18369                       END
                                   18378              þþþþ
 001B00 50E0 D000/9008_      00000 18379              KILLSEL  PROC  KSWA
 USING  *,R7
 USING  KSWA-(4+36),R8
 001B1A D7FF 8028 8028_00000 00000 18429                       CLEAR KSWA
                                   18438
 001B2C 5010 8028            00000 18439                       ST    R1,KSSPTR           Save ptr
 001B30 D2FD 802C 1000 00004 00000 18440                       MVC   KSSIB,@R1           Save a copy of the SIB
 001B36 4160 802C            00004 18441                       LA    R6,KSSIB
 USING  SIB,R6                     18442                       WITH  (SIB,R6)
                                   18455
 001B3A                            18456                       BEGIN
 001B3A 41F0 0004            00004 18460  1                      LA    R15,4               Assume skip
 001B3E 9505 6048/4780_00048       18461  1                      IF    SIBTVIRT,EXIT       don't kill virtuals
 001B46 9501 6048/4780_00048       18479  1                      IF    SIBTCONS,EXIT       ..or consoles
 001B4E D503 6000 B344_00000 00344 18497  1                      IF    (SIBID,EQ,CPSID),EXIT  or ourselves
 001B58 1BFF                       18518  1                      CLEAR R15
 001B5A                            18522                       END
                                   18526                       ¿þþþþþþþþþþþþþþþþþþþþþþþþþþþþþþþþþþþþþþþþþþþþþþþþþÜ
                                   18527                       Ÿ  Check to make sure user is authorized to kill  Ÿ
                                   18528                       Ÿ    this session.                                Ÿ
                                   18529                       ¾þþþþþþþþþþþþþþþþþþþþþþþþþþþþþþþþþþþþþþþþþþþþþþþþþ»
 001B5A 12FF/4770 7100             18530                       IF    (R15,Z),BEGIN       Check authorization...
 001B60 9110 B3BE/4710_003BE       18544  1                      IF    CPSFOPR,EXIT        Operator can always do it
 001B68 4110 740E/4100_      01F28 18562  1                      TSEG  'This session will be logged off:',,CR
 001B7A 4110 6000            00000 18580  1                      LA    R1,SIB
 001B7E 58E0 74A6/0DEE       01FC0 18581  1                      VCALL LINEDISP            Display SHOW LINE info
 001B84 1B00/41F0 B050_            18585  1                      TCR
                                   18610  1
 001B90 D504 6070 B3B4_00070 003B4 18611  1                      IF    (SIBACCT,EQ,CPSACCT),BEGIN  Same as logged on...
 001B9A 4110 74F0/4100_      0200A 18629  2                        SETMSG 'OK'
 001BA2 58E0 74AA/0DEE       01FC4 18633  2                        VCALL YESREQ              We need the OK
 001BA8                            18637  1                      END
                                   18641  1
 001BA8 7092/47F0 70FE 01BA8 01B98 18642  1                      ELSE  BEGIN               Not yours...
 001BAC 4110 742E/4100_      01F48 18653  2                        TSEG  'Account '
1TINT     (TINT2047) (12:57) (15MAR04) KILL Command                                                                         Page   69
0Current Usings:  (SIB,R6) (*,R7) (KSWA-(4+36),R8) (CP,R11) (CV,R12)
0Loc    Object Code    Addr1 Addr2  Stmt Lv Lineno    Source Statement           (Hibal 5, Asmedit 3.3)  HLASM R4.0  2004/03/15 12.57
+___    ______ ____    _____ _____  ____ __ ______    ______ _________
0001BBE 4110 6073/4100_      00073 18671  2                        TSEG  SIBGRP
 001BD0 4110 752C/4100_      02046 18699  2                        TSEG  '.'
 001BE2 4110 6070/4100_      00070 18717  2                        TSEG  SIBUSER
 001BF4 4110 74F2/4100_      0200C 18745  2                        TSEG  ' is not yours.',,CR
                                   18763  2
 001C06 4110 812A            00102 18764  2                        LA    R1,KSKWR            KWR area
 001C0A D204 1000 6070 00000 00070 18765  2                        WITH  (KWR,R1),'MVC KWRACCT,SIBACCT'  Their account
 USING  KWR,R1
 DROP   KWR,R1
 001C10 1B00                       18789  2                        CLEAR R0                  0 = normal mode
 001C12 58E0 74AE/0DEE       01FC8 18793  2                        VCALL CHKKW               Make them supply password
 001C18                            18797  1                      END
                                   18801  1
 001C18 1BFF                       18802  1                      CLEAR R15                 A-ok
 001C1A                            18806                       END
                                   18810                       ¿þþþþþþþþþþþþþþþþþþþþþþþþþþþþþþþþþþþþþþþþþþþþþþþþþþþþþþþþþþÜ
                                   18811                       Ÿ  Restore SIB (because the caller passed it to us in the  Ÿ
                                   18812                       Ÿ    terminal read buffer).                                Ÿ
                                   18813                       ¾þþþþþþþþþþþþþþþþþþþþþþþþþþþþþþþþþþþþþþþþþþþþþþþþþþþþþþþþþþ»
 001C1A 5820 8028            00000 18814                       L     R2,KSSPTR           Saved SIB ptr
 001C1E D2FD 2000 6000 00000 00000 18815                       MVC   @R2(L'SIB),SIB      Restore SIB (in CPSEG buffer)
 001C24 18D8/9808 D004_            18816                       PEND
 DROP   SIB,R6
 DROP   KSWA-(4+36),R8
 DROP   *,R7
1TINT     (TINT2047) (12:57) (15MAR04) KILL Command                                                                         Page   70
0Current Usings:  (CP,R11) (CV,R12)
0Loc    Object Code    Addr1 Addr2  Stmt Lv Lineno    Source Statement           (Hibal 5, Asmedit 3.3)  HLASM R4.0  2004/03/15 12.57
+___    ______ ____    _____ _____  ____ __ ______    ______ _________
0                                  18847              ¿þþþþþþþþþþþþþþþþþþþþþþþþþþþþþþþþþþþþþþþþþþþþþþþþþþþþþþþþþþþþþþþþþþþþþÜ
                                   18848              Ÿ                                                                     Ÿ
                                   18849              Ÿ  KILLRTN -- KILL command range co-routine.                          Ÿ
                                   18850              Ÿ                                                                     Ÿ
                                   18851              Ÿ    On entry:                                                        Ÿ
                                   18852              Ÿ      R1 - SIB ptr                                                   Ÿ
                                   18853              Ÿ                                                                     Ÿ
                                                      ¾þþþþþþþþþþþþþþþþþþþþþþþþþþþþþþþþþþþþþþþþþþþþþþþþþþþþþþþþþþþþþþþþþþþþþ»
0000000                00000 000FE 18854              KRWA     RECORD BEGIN
 000000                            18862  1           KRSIB      DS    XL(L'SIB)           Working SIB
 0000FE                000FE 000FE 18863                       END
                                   18872              þþþþ
 001C32 50E0 D000/9008_      00000 18873              KILLRTN  PROC  KRWA
 USING  *,R7
 USING  KRWA-(4+36),R8
 001C4C D2FD 8028 1000 00000 00000 18923                       MVC   KRSIB,@R1           Make a copy of the SIB
 001C52 4160 8028            00000 18924                       LA    R6,KRSIB
 USING  SIB,R6                     18925                       WITH  (SIB,R6)
                                   18938
 001C56 9501 B38C/4780_0038C       18939                       IF    ~CPSTCONS,BEGIN     Only if not a console...
                                   18954  1                      ¿þþþþþþþþþþþþþþþþþþþþþþþþþþþþþþþþþþþþþÜ
                                   18955  1                      Ÿ  Write log message to the console.  Ÿ
                                   18956  1                      ¾þþþþþþþþþþþþþþþþþþþþþþþþþþþþþþþþþþþþþ»
                                   18957  1                      SEGDEF L:CVWTOSGP
 001C5E 4110 73FC/4100_      02048 18958  1                      SEG   'Line '
 001C70 4810 6004/1B00_      00004 18973  1                      SEGDC LH:SIBNO
 001C80 4110 7401/4100_      0204D 18991  1                      SEG   ' '
 001C92 4110 6073/4100_      00073 19006  1                      SEG   SIBGRP
 001CA4 4110 73FA/4100_      02046 19031  1                      SEG   '.'
 001CB6 4110 6070/4100_      00070 19046  1                      SEG   SIBUSER
 001CC8 4110 7304/4100_      01F50 19071  1                      SEG   ' killed by line '
 001CDA 4810 B348/1B00_      00348 19086  1                      SEGDC LH:CPSNO
 001CEA 4110 7401/4100_      0204D 19104  1                      SEG   ' '
 001CFC 4110 B3B7/4100_      003B7 19119  1                      SEG   CPSGRP
 001D0E 4110 73FA/4100_      02046 19144  1                      SEG   '.'
 001D20 4110 B3B4/4100_      003B4 19159  1                      SEG   CPSUSER
 001D32 9640 C4CB      004CB       19184  1                      SET   CVWTOFNOPFX         No special WTO prefix
 001D36 96A0 C4CB      004CB       19190  1                      SET   CVWTOFUPFX+CVWTOFWTL  WTO logging flags
 001D3A 1B00/58F0 C748_            19199  1                      XWTO  ,                   Do WTO
 001D46 945F C4CB      004CB       19222  1                      CLEAR CVWTOFUPFX+CVWTOFWTL  Reset
                                   19232  1                      SEGDEF DUMMY              (Neatness)
                                   19233  1                      ¿þþþþþþþþþþþþþþþþþþþþþþþþþþþþþþþþþþþþþþþþþþÜ
                                   19234  1                      Ÿ  Notify the session of impending death.  Ÿ
                                   19235  1                      ¾þþþþþþþþþþþþþþþþþþþþþþþþþþþþþþþþþþþþþþþþþþ»
 001D4A 1B00/41F0 B050_            19236  1                      TCR
                                   19261  1
 001D56 58E0 733C/0DEE       01F88 19262  1                      VCALL LOCALTOD            Current time/date
 001D5C 18FD/41D0 D010             19266  1                      XPUSH ,,16,PTR=R15
 001D62 58E0 7384/0DEE       01FD0 19269  1                      VCALL FMTTIME             Format time
 001D68 4100 0005/41F0_      00005 19273  1                      TSEG  (R1),5,B            Hh:mm
 001D76 4BD0 73CE            0201A 19300  1                      XPOP  ,,16
                                   19302  1
 001D7A 4110 7402/4100_      0204E 19303  1                      TSEG  'You have been logged off by line '
1TINT     (TINT2047) (12:57) (15MAR04) KILL Command                                                                         Page   71
0Current Usings:  (SIB,R6) (*,R7) (KRWA-(4+36),R8) (CP,R11) (CV,R12)
0Loc    Object Code    Addr1 Addr2  Stmt Lv Lineno    Source Statement           (Hibal 5, Asmedit 3.3)  HLASM R4.0  2004/03/15 12.57
+___    ______ ____    _____ _____  ____ __ ______    ______ _________
0                                  19321  1
 001D8C 4810 B348/1B00_      00348 19322  1                      TNUM  LH:CPSNO
                                   19343  1
 001D9C 4110 7401/4100_      0204D 19344  1                      TSEG  ' '
 001DAE 4110 B3B7/4100_      003B7 19362  1                      TSEG  CPSGRP
 001DC0 4110 73FA/4100_      02046 19390  1                      TSEG  '.'
 001DD2 4110 B3B4/4100_      003B4 19408  1                      TSEG  CPSUSER
 001DE4 D613 B3C6 B3C6_003C6 003C6 19436  1                      IF    (CPSNAME,NZ),'TSEG " "; TSEG CPSNAME,,T'
 001E12 1B00/41F0 B050_            19503  1                      TCR
 001E1E 1B00/41F0 B050_            19528  1                      TCR
                                   19553  1
 001E2A 5810 6000            00000 19554  1                      L     R1,SIBID            Get session ID
 001E2E 58E0 735C/0DEE       01FA8 19555  1                      VCALL TASWRITE            Asynchronous write
                                   19559  1
 001E34 41F0 00C8            000C8 19560  1                      LA    R15,200             2 second wait
 001E38 58E0 7388/0DEE       01FD4 19561  1                      VCALL WAITER              Wait
 001E3E                            19565                       END
                                   19569                       ¿þþþþþþþþþþþþþþþþþþþþþÜ
                                   19570                       Ÿ  Kill the session.  Ÿ
                                   19571                       ¾þþþþþþþþþþþþþþþþþþþþþ»
 001E3E 4110 6000/4100_      00000 19572                       TSEG  SIBID
 001E50 4110 6004/4100_      00004 19600                       TSEG  SIBNO
 001E62 4100 0067/58E0_      00067 19628                       TCNTL CTLPKILL            Kill this line
 001E6C 4770 C7F6            007F6 19640                       BNZ   CVMILERR
                                   19641                       ¿þþþþþþþþþþþþþþþþþþþþþþþþþþþþþþþþþþþþþþþþþþþþþþþþþþþþÜ
                                   19642                       Ÿ  Write out confirmation message that session will  Ÿ
                                   19643                       Ÿ    be logged off.                                  Ÿ
                                   19644                       ¾þþþþþþþþþþþþþþþþþþþþþþþþþþþþþþþþþþþþþþþþþþþþþþþþþþþþ»
 001E70 9501 B38C/4780_0038C       19645                       IF    ~CPSTCONS,BEGIN     Don't do message if console...
 001E78 4110 73FC/4100_      02048 19660  1                      TSEG  'Line '
 001E8A 4810 6004/1B00_      00004 19678  1                      TNUM  LH:SIBNO
 001E9A 4110 7401/4100_      0204D 19699  1                      TSEG  ' '
 001EAC 4110 6073/4100_      00073 19717  1                      TSEG  SIBGRP
 001EBE 4110 73FA/4100_      02046 19745  1                      TSEG  '.'
 001ED0 4110 6070/4100_      00070 19763  1                      TSEG  SIBUSER
 001EE2 4110 738C/4100_      01FD8 19791  1                      TSEG  ' will be logged off.',,WR
 001EF4 4770 C7DA            007DA 19809  1                      BNZ   CVABORT
 001EF8                            19810                       END
                                   19814
 001EF8 18D8/9808 D004_            19815                       PEND
 DROP   SIB,R6
 DROP   KRWA-(4+36),R8
 DROP   *,R7
                                   19845
                                   19846                       QLTORG
1TINT     (TINT2047) (12:57) (15MAR04) Subroutines                                                                          Page   72
0Current Usings:  (CP,R11) (CV,R12)
0Loc    Object Code    Addr1 Addr2  Stmt Lv Lineno    Source Statement           (Hibal 5, Asmedit 3.3)  HLASM R4.0  2004/03/15 12.57
+___    ______ ____    _____ _____  ____ __ ______    ______ _________
0                                  19907              ¿þþþþþþþþþþþþþþþþþþþþþþþþþþþþþþþþþþþþþþþþþþþþþþþþþþþþþþþþþþþþþþþþþþþþþÜ
                                   19908              Ÿ                                                                     Ÿ
                                   19909              Ÿ  DEFTRC -- Routine to format trace entry.                           Ÿ
                                   19910              Ÿ                                                                     Ÿ
                                   19911              Ÿ    On entry:                                                        Ÿ
                                   19912              Ÿ      R15 - rngtype                                                  Ÿ
                                   19913              Ÿ      R1,R0 - trace loc, len                                         Ÿ
                                   19914              Ÿ                                                                     Ÿ
                                                      ¾þþþþþþþþþþþþþþþþþþþþþþþþþþþþþþþþþþþþþþþþþþþþþþþþþþþþþþþþþþþþþþþþþþþþþ»
0002070 50E0 D000/9008_      00000 19915              DEFTRC   PROC
 USING  *,R7
 00208A 4160 1008            00008 19954                       LA    R6,@R1+8
 00208E 1850                       19955                       LR    R5,R0
 002090 4B50 70A6            02130 19956                       SH    R5,=Y(8)
                                   19957
 002094 59F0 7096/4770_      02120 19958                       IF    (R15,EQ,RNGTFE),BEGIN
 00209C 1816/4100 0008_            19975  1                      TSEG  (R6),8,B
 0020AC 4160 6008            00008 20003  1                      LA    R6,@R6+8
 0020B0 4B50 70A6            02130 20004  1                      SH    R5,=Y(8)
 0020B4 41F0 0015            00015 20005  1                      LA    R15,21
 0020B8                            20006                       END
 0020B8 7032/47F0 7036 020B8 0209A 20010                       ELSE  BEGIN
 0020BC 41F0 000C            0000C 20021  1                      LA    R15,12              Indent
 0020C0                            20022                       END
                                   20026
 0020C0 1816/1805                  20027                       SETMSG (R6),(R5)
 0020C4 58E0 709E/0DEE       02128 20039                       VCALL HEXFMT
 0020CA 4770 C7DA            007DA 20043                       BNZ   CVABORT
                                   20044
 0020CE 1B00/41F0 B050_            20045                       TWRITE
 0020DA 4770 C7DA            007DA 20070                       BNZ   CVABORT
 0020DE 18D8/9808 D004_            20071                       PEND
 DROP   *,R7
1TINT     (TINT2047) (12:57) (15MAR04) Subroutines                                                                          Page   73
0Current Usings:  (CP,R11) (CV,R12)
0Loc    Object Code    Addr1 Addr2  Stmt Lv Lineno    Source Statement           (Hibal 5, Asmedit 3.3)  HLASM R4.0  2004/03/15 12.57
+___    ______ ____    _____ _____  ____ __ ______    ______ _________
0                                  20092              ¿þþþþþþþþþþþþþþþþþþþþþþþþþþþþþþþþþþþþþþþþþþþþþþþþþþþþþþþþþþþþþþþþþþþþþÜ
                                   20093              Ÿ                                                                     Ÿ
                                   20094              Ÿ  NSCTRC -- Routine to format NSC trace entry.                       Ÿ
                                   20095              Ÿ                                                                     Ÿ
                                   20096              Ÿ    On entry:                                                        Ÿ
                                   20097              Ÿ      R15 - rngtype                                                  Ÿ
                                   20098              Ÿ      R1,R0 - trace loc, len                                         Ÿ
                                   20099              Ÿ                                                                     Ÿ
                                                      ¾þþþþþþþþþþþþþþþþþþþþþþþþþþþþþþþþþþþþþþþþþþþþþþþþþþþþþþþþþþþþþþþþþþþþþ»
00020EC 50E0 D000/9008_      00000 20100              NSCTRC   PROC
 USING  *,R7
 002106 4110 702C/4100_      02132 20139                       ABORT 'NSC trace formatting not available.'
 002112 18D8/9808 D004_            20146                       PEND
 DROP   *,R7
                                   20166                       QLTORG
1TINT     (TINT2047) (12:57) (15MAR04) Subroutines                                                                          Page   74
0Current Usings:  (CP,R11) (CV,R12)
0Loc    Object Code    Addr1 Addr2  Stmt Lv Lineno    Source Statement           (Hibal 5, Asmedit 3.3)  HLASM R4.0  2004/03/15 12.57
+___    ______ ____    _____ _____  ____ __ ______    ______ _________
0                                  20185              ¿þþþþþþþþþþþþþþþþþþþþþþþþþþþþþþþþþþþþþþþþþþþþþþþþþþþþþþþþþþþþþþþþþþþþþÜ
                                   20186              Ÿ                                                                     Ÿ
                                   20187              Ÿ  ECUTRC -- Routine to format ECU trace entry.                       Ÿ
                                   20188              Ÿ                                                                     Ÿ
                                   20189              Ÿ    On entry:                                                        Ÿ
                                   20190              Ÿ      R15 - rngtype                                                  Ÿ
                                   20191              Ÿ      R1,R0 - trace loc, len                                         Ÿ
                                   20192              Ÿ                                                                     Ÿ
                                                      ¾þþþþþþþþþþþþþþþþþþþþþþþþþþþþþþþþþþþþþþþþþþþþþþþþþþþþþþþþþþþþþþþþþþþþþ»
0002156 50E0 D000/9008_      00000 20193              ECUTRC   PROC
 USING  *,R7
 002170 4110 7020/4100_      02190 20232                       ABORT 'ECU trace formatting not available.'
 00217C 18D8/9808 D004_            20239                       PEND
 DROP   *,R7
                                   20259                       QLTORG
1TINT     (TINT2047) (12:57) (15MAR04) Subroutines                                                                          Page   75
0Current Usings:  (CP,R11) (CV,R12)
0Loc    Object Code    Addr1 Addr2  Stmt Lv Lineno    Source Statement           (Hibal 5, Asmedit 3.3)  HLASM R4.0  2004/03/15 12.57
+___    ______ ____    _____ _____  ____ __ ______    ______ _________
0                                  20273              ¿þþþþþþþþþþþþþþþþþþþþþþþþþþþþþþþþþþþþþþþþþþþþþþþþþþþþþþþþþþþþþþþþþþþþþÜ
                                   20274              Ÿ                                                                     Ÿ
                                   20275              Ÿ  ASYNTRC -- Routine to format async trace entry.                    Ÿ
                                   20276              Ÿ                                                                     Ÿ
                                   20277              Ÿ    On entry:                                                        Ÿ
                                   20278              Ÿ      R15 - rngtype                                                  Ÿ
                                   20279              Ÿ      R1,R0 - trace loc, len                                         Ÿ
                                   20280              Ÿ                                                                     Ÿ
                                                      ¾þþþþþþþþþþþþþþþþþþþþþþþþþþþþþþþþþþþþþþþþþþþþþþþþþþþþþþþþþþþþþþþþþþþþþ»
00021B4 50E0 D000/9008_      00000 20281              ASYNTRC  PROC  ,
 USING  *,R7
 0021CE 4110 701A/4100_      021E8 20320                       ABORT 'ASYNC trace formatting not available.'
 0021DA 18D8/9808 D004_            20327                       PEND
 DROP   *,R7
                                   20347                       QLTORG
1TINT     (TINT2047) (12:57) (15MAR04) Subroutines                                                                          Page   76
0Current Usings:  (CP,R11) (CV,R12)
0Loc    Object Code    Addr1 Addr2  Stmt Lv Lineno    Source Statement           (Hibal 5, Asmedit 3.3)  HLASM R4.0  2004/03/15 12.57
+___    ______ ____    _____ _____  ____ __ ______    ______ _________
0                                  20361              ¿þþþþþþþþþþþþþþþþþþþþþþþþþþþþþþþþþþþþþþþþþþþþþþþþþþþþþþþþþþþþþþþþþþþþþÜ
                                   20362              Ÿ                                                                     Ÿ
                                   20363              Ÿ  PDPTRC -- Routine to format pdp trace entry.                       Ÿ
                                   20364              Ÿ                                                                     Ÿ
                                   20365              Ÿ    On entry:                                                        Ÿ
                                   20366              Ÿ      R15 - rngtype                                                  Ÿ
                                   20367              Ÿ      R1,R0 - trace loc,len                                          Ÿ
                                   20368              Ÿ                                                                     Ÿ
                                                      ¾þþþþþþþþþþþþþþþþþþþþþþþþþþþþþþþþþþþþþþþþþþþþþþþþþþþþþþþþþþþþþþþþþþþþþ»
000220E 50E0 D000/9008_      00000 20369              PDPTRC   PROC  ,
 USING  *,R7
 002228 4110 7020/4100_      02248 20408                       ABORT 'PDP trace formatting not available.'
 002234 18D8/9808 D004_            20415                       PEND
 DROP   *,R7
                                   20435                       QLTORG
1TINT     (TINT2047) (12:57) (15MAR04) Subroutines                                                                          Page   77
0Current Usings:  (CP,R11) (CV,R12)
0Loc    Object Code    Addr1 Addr2  Stmt Lv Lineno    Source Statement           (Hibal 5, Asmedit 3.3)  HLASM R4.0  2004/03/15 12.57
+___    ______ ____    _____ _____  ____ __ ______    ______ _________
0                                  20449              ¿þþþþþþþþþþþþþþþþþþþþþþþþþþþþþþþþþþþþþþþþþþþþþþþþþþþþþþþþþþþþþþþþþþþþþÜ
                                   20450              Ÿ                                                                     Ÿ
                                   20451              Ÿ  ELFTRC -- Routine to format telnet trace entry.                    Ÿ
                                   20452              Ÿ                                                                     Ÿ
                                   20453              Ÿ    On entry:                                                        Ÿ
                                   20454              Ÿ      R15 - rngtype                                                  Ÿ
                                   20455              Ÿ      R1,R0 - trace loc,len                                          Ÿ
                                   20456              Ÿ                                                                     Ÿ
                                                      ¾þþþþþþþþþþþþþþþþþþþþþþþþþþþþþþþþþþþþþþþþþþþþþþþþþþþþþþþþþþþþþþþþþþþþþ»
000226C 50E0 D000/9008_      00000 20457              ELFTRC   PROC
 USING  *,R7
 002286 1861                       20496                       LR    R6,R1
 USING  TTRC,R6                    20497                       WITH  (TTRC,R6)
 002288 1850                       20510                       LR    R5,R0
                                   20511                       ¿þþþþþþþþþþþþþþþþþþþþþÜ
                                   20512                       Ÿ  Port trace entry.  Ÿ
                                   20513                       ¾þþþþþþþþþþþþþþþþþþþþþ»
 00228A 59F0 76CA/4770_      02950 20514                       IF    (R15,EQ,RNGTPORT),BEGIN  Port trace...
 002292 4110 773C/4100_      029C2 20531  1                      SETMSG 'FROMAMY'
 00229A 95E3 6007/4770_00007       20535  1                      IF    (TTRCPTYP,EQ,'T'),'SETMSG "TOAMY  "'
 0022AA 41F0 B050/58E0_      00050 20561  1                      TSEG  (R1),(R0)
                                   20585  1
 0022B4 4110 C4D8/4100_      004D8 20586  1                      TSEG  CVBLANKS,2
 0022C6 9541 6008/4770_00008       20616  1                      IF    (TTRCPCMD,EQ,TMILWRIT),'TSEG "Write:"'
 0022E0 705E/47F0 7078_022E0 022CC 20657  1                      ELSEIF (TTRCPCMD,EQ,TMILREAD),'TSEG "Read: "'
 0022FE 707C/47F0 70A0 022FE 022EA 20707  1                      ELSE  BEGIN
 002302 4110 76D2/4100_      02958 20718  2                        TSEG  'Cmd='
 002314 1F11/4310 6008_            20736  2                        THEX  LC:TTRCPCMD
 002326                            20763  1                      END
                                   20767  1
 002326 4110 774A/4100_      029D0 20768  1                      TSEG  ' CPL='
 002338 1F11/BF13 600A_            20786  1                      THEX  L2:TTRCPCPL,4
 00234C 4110 76B2/4100_      02938 20817  1                      TSEG  ' Length='
 00235E 4820 600C            0000C 20835  1                      LH    R2,TTRCPLEN
 002362 4B20 7726            029AC 20836  1                      SH    R2,=AL2(L'PDBHDR)
 002366 1812/1B00/41F0_            20837  1                      TNUM  (R2)
 002374 47F0 7374            025FA 20859  1                      B     TTRCEXIT
 002378                            20860                       END
                                   20864                       ¿þþþþþþþþþþþþþþþþþþþþþþþþþþÜ
                                   20865                       Ÿ  Front-end trace entry.  Ÿ
                                   20866                       ¾þþþþþþþþþþþþþþþþþþþþþþþþþþ»
 002378 4110 6010/4100_      00010 20867                       SETMSG TTRCPNAM
 002380 D607 6010 6010_00010 00010 20881                       IF    (TTRCPNAM,Z),'LA R1,CVBLANKS'
 00238E 41F0 B050/58E0_      00050 20903                       TSEG  (R1),(R0),B
 002398 4110 6008/4100_      00008 20927                       TSEG  TTRCNAME
 0023AA 4110 C4D8/4100_      004D8 20955                       TSEG  CVBLANKS,2
                                   20985                       ¿þþþþþþþþþþþþþþþþþþþþþþþÜ
                                   20986                       Ÿ  TERM trace entries.  Ÿ
                                   20987                       ¾þþþþþþþþþþþþþþþþþþþþþþþ»
 0023BC D503 76E2 6008_02968 00008 20988                       IF    (TTRCNAME,EQ,'TERM'),BEGIN
 0023C6 D604 601C 601C_0001C 0001C 21005  1                      IF    (TTRCSACC,Z),'TSEG "------ "'
 0023E2 7160/47F0 7196 023E2 023CE 21044  1                      ELSE  BEGIN
 0023E6 4110 601F/4100_      0001F 21055  2                        TSEG  TTRCSACC+3,2
1TINT     (TINT2047) (12:57) (15MAR04) Subroutines                                                                          Page   78
0Current Usings:  (TTRC,R6) (*,R7) (CP,R11) (CV,R12)
0Loc    Object Code    Addr1 Addr2  Stmt Lv Lineno    Source Statement           (Hibal 5, Asmedit 3.3)  HLASM R4.0  2004/03/15 12.57
+___    ______ ____    _____ _____  ____ __ ______    ______ _________
00023F8 4110 7756/4100_      029DC 21085  2                        TSEG  '.'
 00240A 4110 601C/4100_      0001C 21103  2                        TSEG  TTRCSACC,3,B
 00241C                            21133  1                      END
 00241C 9541 6021/4770_00021       21137  1                      IF    (TTRCCMD,EQ,TMILWRIT),'TSEG "Write: "'
 002436 71B4/47F0 71CE_02436 02422 21178  1                      ELSEIF (TTRCCMD,EQ,TMILREAD),'TSEG "Read:  "'
 002454 71D2/47F0 720A_02454 02440 21228  1                      ELSE  'TSEG "Cmd="; THEX LC:TTRCCMD,2; TSEG " "'
 002490 4820 6024            00024 21310  1                      LH    R2,TTRCTLEN
 002494 4B20 7728            029AE 21311  1                      SH    R2,=Y(L'PDBHDR)
 002498 4740 726E            024F4 21312  1                      IF    ~NEG,BEGIN
 00249C 4110 7766/4100_      029EC 21323  2                        TSEG  'Length='
 0024AE 1812/1B00/41F0_            21341  2                        TNUM  (R2)
 0024BC 9120 B3BE/47E0_003BE       21363  2                        IF    ~CPSFSPR,EXIT
 0024C4 1222/4780 726E             21381  2                        IF    (R2,Z),EXIT
 0024CA 4110 776D/4100_      029F3 21398  2                        TSEG  ', Text='
 0024DC 5920 76E6/47D0_      0296C 21416  2                        CEIL  R2,L'TTRCTEXT
 0024E8 4110 6026/1802       00026 21435  2                        SETMSG TTRCTEXT,(R2)
 0024EE 58E0 76EA/0DEE       02970 21449  2                        VCALL MIXFMT
 0024F4                            21453  1                      END
 0024F4 47F0 7374            025FA 21457  1                      B     TTRCEXIT
 0024F8                            21458                       END
                                   21462                       ¿þþþþþþþþþþþþþþþþþþþþþÜ
                                   21463                       Ÿ  IO trace entries.  Ÿ
                                   21464                       ¾þþþþþþþþþþþþþþþþþþþþþ»
 0024F8 D501 772A 6008_029B0 00008 21465                       IF    (TTRCNAME,EQ,'IO'),BEGIN
 002502 4110 7766/4100_      029EC 21482  1                      TSEG  'Length='
 002514 48F0 6018            00018 21500  1                      LH    R15,TTRCILEN        Total length
 002518 4BF0 772C            029B2 21501  1                      SH    R15,=AL2(16+4)      Deduct header and id
 00251C 181F/1B00/41F0_            21502  1                      TNUM  (R15)
 00252A 4110 772E/4100_      029B4 21524  1                      TSEG  ', '
 00253C 4110 601A/4100_      0001A 21542  1                      TSEG  TTRCIHDR,,T         Header part ("XXX:")
 00254E 4110 7774/4100_      029FA 21570  1                      TSEG  '  ID='
 002560 BF1F 602A/4100_      0002A 21588  1                      THEX  L4:TTRCIREM,8
 002572 1B00/41F0 B050_            21613  1                      TCR
                                   21638  1
 00257E 4110 C4D8/4100_      004D8 21639  1                      TSEG  CVBLANKS,23
 002590 4110 602E            0002E 21669  1                      LA    R1,TTRCIREM+4
 002594 4800 6018            00018 21670  1                      LH    R0,TTRCILEN
 002598 4B00 7730            029B6 21671  1                      SH    R0,=AL2(L'TTRCIHDR+4)
 00259C 47D0 733C            025C2 21672  1                      IF    POS,BEGIN           Display data...
 0025A0 9120 B3BE/47E0_003BE       21683  2                        IF    ~CPSFSPR,EXIT       Not sys priv'd, no user data
 0025A8 41F0 001A            0001A 21701  2                        LA    R15,L'TTRCIREM-4
 0025AC 190F/47D0 732E_            21702  2                        CEIL  R0,R15              Not too much now
 0025B4 41F0 0017            00017 21708  2                        LA    R15,23              Indent
 0025B8 58E0 76F6/0DEE       0297C 21709  2                        VCALL HEXFMT              Display in hex
 0025BE 4770 C7DA            007DA 21713  2                        BNZ   CVABORT
 0025C2                            21714  1                      END
 0025C2 47F0 7374            025FA 21718  1                      B     TTRCEXIT
 0025C6                            21719                       END
                                   21723                       ¿þþþþþþþþþþþþþþþþþþþþþþÜ
                                   21724                       Ÿ  MSG trace entries.  Ÿ
                                   21725                       ¾þþþþþþþþþþþþþþþþþþþþþþ»
 0025C6 D502 7779 6008_029FF 00008 21726                       IF    (TTRCNAME,EQ,'MSG'),BEGIN
 0025D0 4110 6018/4100_      00018 21743  1                      TSEG  TTRCMSG,,T
 0025E2 47F0 7374            025FA 21771  1                      B     TTRCEXIT
1TINT     (TINT2047) (12:57) (15MAR04) Subroutines                                                                          Page   79
0Current Usings:  (TTRC,R6) (*,R7) (CP,R11) (CV,R12)
0Loc    Object Code    Addr1 Addr2  Stmt Lv Lineno    Source Statement           (Hibal 5, Asmedit 3.3)  HLASM R4.0  2004/03/15 12.57
+___    ______ ____    _____ _____  ____ __ ______    ______ _________
00025E6                            21772                       END
                                   21776                       ¿þþþþþþþþþþþþþþþþþþþþþþþþþþÜ
                                   21777                       Ÿ  Any other trace entry.  Ÿ
                                   21778                       ¾þþþþþþþþþþþþþþþþþþþþþþþþþþ»
 0025E6 4110 6018/1805       00018 21779                       SETMSG TTRCDATA,(R5)
 0025EC 41F0 0008            00008 21793                       LA    R15,8               Indent
 0025F0 58E0 76F6/0DEE       0297C 21794                       VCALL HEXFMT
 0025F6 4770 C7DA            007DA 21798                       BNZ   CVABORT
                                   21799
 0025FA 1B00/41F0 B050_            21800              TTRCEXIT TWRITE
 002606 4770 C7DA            007DA 21826                       BNZ   CVABORT
 00260A 18D8/9808 D004_            21827                       PEND
 DROP   TTRC,R6
 DROP   *,R7
1TINT     (TINT2047) (12:57) (15MAR04) Subroutines                                                                          Page   80
0Current Usings:  (CP,R11) (CV,R12)
0Loc    Object Code    Addr1 Addr2  Stmt Lv Lineno    Source Statement           (Hibal 5, Asmedit 3.3)  HLASM R4.0  2004/03/15 12.57
+___    ______ ____    _____ _____  ____ __ ______    ______ _________
0                                  21853              ¿þþþþþþþþþþþþþþþþþþþþþþþþþþþþþþþþþþþþþþþþþþþþþþþþþþþþþþþþþþþþþþþþþþþþþÜ
                                   21854              Ÿ                                                                     Ÿ
                                   21855              Ÿ  ALFTRC -- Routine to format ALF trace entry.                       Ÿ
                                   21856              Ÿ                                                                     Ÿ
                                   21857              Ÿ    On entry:                                                        Ÿ
                                   21858              Ÿ      R15 - rngtype                                                  Ÿ
                                   21859              Ÿ      R1,R0 - trace loc,len                                          Ÿ
                                   21860              Ÿ                                                                     Ÿ
                                                      ¾þþþþþþþþþþþþþþþþþþþþþþþþþþþþþþþþþþþþþþþþþþþþþþþþþþþþþþþþþþþþþþþþþþþþþ»
0002618 50E0 D000/9008_      00000 21861              ALFTRC   PROC
 USING  *,R7
 002632 4110 73D0/4100_      02A02 21900                       ABORT 'ALF trace formatting not available.'
 00263E 18D8/9808 D004_            21907                       PEND
 DROP   *,R7
1TINT     (TINT2047) (12:57) (15MAR04) Subroutines                                                                          Page   81
0Current Usings:  (CP,R11) (CV,R12)
0Loc    Object Code    Addr1 Addr2  Stmt Lv Lineno    Source Statement           (Hibal 5, Asmedit 3.3)  HLASM R4.0  2004/03/15 12.57
+___    ______ ____    _____ _____  ____ __ ______    ______ _________
0                                  21928              ¿þþþþþþþþþþþþþþþþþþþþþþþþþþþþþþþþþþþþþþþþþþþþþþþþþþþþþþþþþþþþþþþþþþþþþÜ
                                   21929              Ÿ                                                                     Ÿ
                                   21930              Ÿ  VIRTTRC -- Routine to format virtual trace entry.                  Ÿ
                                   21931              Ÿ                                                                     Ÿ
                                   21932              Ÿ    On entry:                                                        Ÿ
                                   21933              Ÿ      R15 - rngtype                                                  Ÿ
                                   21934              Ÿ      R1,R0 - trace loc,len                                          Ÿ
                                   21935              Ÿ                                                                     Ÿ
                                                      ¾þþþþþþþþþþþþþþþþþþþþþþþþþþþþþþþþþþþþþþþþþþþþþþþþþþþþþþþþþþþþþþþþþþþþþ»
000264C 50E0 D000/9008_      00000 21936              VIRTTRC  PROC  ,
 USING  *,R7
 002666 1861                       21975                       LR    R6,R1
 USING  VTRC,R6                    21976                       USING VTRC,R6
 002668 1850                       21985                       LR    R5,R0
                                   21986
 00266A 59F0 72EA/4770_      02950 21987                       IF    (R15,EQ,RNGTPORT),BEGIN  port trace...
 002672 4110 72DA/4100_      02940 22004  1                      SETMSG 'FROMVIRT'
 00267A 95E3 6008/4770_00008       22008  1                      IF    (VTRCPTYP,EQ,'T'),'SETMSG "TOVIRT  "'
 00268A 41F0 B050/58E0_      00050 22034  1                      TSEG  (R1),(R0)
 002694 4110 C4D8/4100_      004D8 22058  1                      TSEG  CVBLANKS,2
 0026A6 4110 600A/4100_      0000A 22088  1                      SETMSG VTRCPRQS
 0026AE 4DE0 721A            02880 22102  1                      LCALL VIRTHDR
 0026B2 47F0 71FC            02862 22104  1                      B     VTRCEXIT
 0026B6                            22105                       END
1TINT     (TINT2047) (12:57) (15MAR04) Subroutines                                                                          Page   82
0Current Usings:  (VTRC,R6) (*,R7) (CP,R11) (CV,R12)
0Loc    Object Code    Addr1 Addr2  Stmt Lv Lineno    Source Statement           (Hibal 5, Asmedit 3.3)  HLASM R4.0  2004/03/15 12.57
+___    ______ ____    _____ _____  ____ __ ______    ______ _________
00026B6 48F0 6010/4100_      00010 22110                       BTD   CPDOUB,4,LH:VTRCPNO
 0026C8 41F0 B050/58E0_      00050 22132                       TSEG  (R1),(R0),B
 0026D2 4110 6008/4100_      00008 22156                       TSEG  VTRCNAME
 0026E4 4110 C4D8/4100_      004D8 22184                       TSEG  CVBLANKS,2
                                   22214
 0026F6 D503 7322 6008_02988 00008 22215                       IF    (VTRCNAME,EQ,'VIRT'),BEGIN
 002700 D604 6018 6018_00018 00018 22232  1                      IF    (VTRCSACC,Z),'TSEG "------",,B'
 00271C 70BA/47F0 70F0 0271C 02708 22271  1                      ELSE  BEGIN
 002720 4110 601B/4100_      0001B 22282  2                        TSEG  VTRCSACC+3,2
 002732 4110 7376/4100_      029DC 22312  2                        TSEG  '.'
 002744 4110 6018/4100_      00018 22330  2                        TSEG  VTRCSACC,3,B
 002756                            22360  1                      END
 002756 9541 601D/4770_0001D       22364  1                      IF    (VTRCCMD,EQ,TMILWRIT),'TSEG "Write:",,B'
 002770 710E/47F0 7128_02770 0275C 22405  1                      ELSEIF (VTRCCMD,EQ,TMILREAD),'TSEG "Read: ",,B'
 00278E 712C/47F0 715C 0278E 0277A 22455  1                      ELSE  BEGIN
 002792 4110 72F2/4100_      02958 22466  2                        TSEG  'Cmd='
 0027A4 1FFF/43F0 601D_            22484  2                        BTX   CPDOUB,2,LC:VTRCCMD
 0027B8 41F0 B050/58E0_      00050 22512  2                        TSEG  (R1),(R0),B
 0027C2                            22536  1                      END
 0027C2 4820 6020            00020 22540  1                      LH    R2,VTRCTLEN
 0027C6 4B20 7348            029AE 22541  1                      SH    R2,=Y(L'PDBHDR)
 0027CA 4740 71CA            02830 22542  1                      IF    ~NEG,BEGIN
 0027CE 4110 7386/4100_      029EC 22553  2                        TSEG  'Length='
 0027E0 18F2/1B00/4110_            22571  2                        BTD   CPDOUB,0,(R2)
 0027EE 41F0 B050/58E0_      00050 22591  2                        TSEG  (R1),(R0)
 0027F8 9120 B3BE/47E0_003BE       22615  2                        IF    ~CPSFSPR,EXIT
 002800 1222/4780 71CA             22633  2                        IF    (R2,Z),EXIT
 002806 4110 738D/4100_      029F3 22650  2                        TSEG  ', Text='
 002818 5920 732A/47D0_      02990 22668  2                        CEIL  R2,L'VTRCTEXT
 002824 4110 6022/1802       00022 22687  2                        SETMSG VTRCTEXT,(R2)
 00282A 58E0 732E/0DEE       02994 22701  2                        VCALL CHARFMT
 002830                            22705  1                      END
 002830 47F0 71FC            02862 22709  1                      B     VTRCEXIT
 002834                            22710                       END
1TINT     (TINT2047) (12:57) (15MAR04) Subroutines                                                                          Page   83
0Current Usings:  (VTRC,R6) (*,R7) (CP,R11) (CV,R12)
0Loc    Object Code    Addr1 Addr2  Stmt Lv Lineno    Source Statement           (Hibal 5, Asmedit 3.3)  HLASM R4.0  2004/03/15 12.57
+___    ______ ____    _____ _____  ____ __ ______    ______ _________
0002834 D503 7332 6008_02998 00008 22715                       IF    (VTRCNAME,EQ,'RQST'),BEGIN
 00283E 4110 6012/4100_      00012 22732  1                      SETMSG VTRCRQST
 002846 4DE0 721A            02880 22746  1                      LCALL VIRTHDR
 00284A 47F0 71FC            02862 22748  1                      B     VTRCEXIT
 00284E                            22749                       END
1TINT     (TINT2047) (12:57) (15MAR04) Subroutines                                                                          Page   84
0Current Usings:  (VTRC,R6) (*,R7) (CP,R11) (CV,R12)
0Loc    Object Code    Addr1 Addr2  Stmt Lv Lineno    Source Statement           (Hibal 5, Asmedit 3.3)  HLASM R4.0  2004/03/15 12.57
+___    ______ ____    _____ _____  ____ __ ______    ______ _________
000284E 4110 6012/1805       00012 22754                       SETMSG VTRCDATA,(R5)
 002854 41F0 001A            0001A 22768                       LA    R15,26              Indent
 002858 58E0 7316/0DEE       0297C 22769                       VCALL HEXFMT
 00285E 4770 C7DA            007DA 22773                       BNZ   CVABORT
                                   22774
 002862 1B00/41F0 B050_            22775              VTRCEXIT TWRITE
 00286E 4770 C7DA            007DA 22801                       BNZ   CVABORT
 002872 18D8/9808 D004_            22802                       PEND
 DROP   *,R7
1TINT     (TINT2047) (12:57) (15MAR04) Subroutines                                                                          Page   85
0Current Usings:  (VTRC,R6) (CP,R11) (CV,R12)
0Loc    Object Code    Addr1 Addr2  Stmt Lv Lineno    Source Statement           (Hibal 5, Asmedit 3.3)  HLASM R4.0  2004/03/15 12.57
+___    ______ ____    _____ _____  ____ __ ______    ______ _________
0                                  22823              * virthdr -- local routine.  on entry: r1,r0 - virt hdr loc, len
 002880 50E0 D000/9008_      00000 22824              VIRTHDR  PROC  ,
 USING  *,R7
 00289A 1831                       22863                       LR    R3,R1
 00289C 1820                       22864                       LR    R2,R0
 00289E 4110 718B/4100_      02A25 22865                       TSEG  'Rqst='
 0028B0 1813/1802                  22883                       SETMSG (R3),(R2)
 0028B4 5900 7102/47D0_      0299C 22895                       CEIL  R0,L'RQSTHDR
 0028C0 1BFF                       22914                       CLEAR R15
 0028C2 58E0 70E2/0DEE       0297C 22918                       VCALL HEXFMT
                                   22922
 0028C8 4110 3012/4800_      00012 22923                       WITH  (RQST,R3),'LA R1,RQSTTEXT; LH R0,RQSTLEN'
 USING  RQST,R3
 DROP   RQST,R3
 0028D0 1902/47D0 703E_            22948                       CEIL  R0,R2               Only as much as we have
 0028D8 4B00 7124            029BE 22954                       SH    R0,=Y(L'RQSTHDR)
 0028DC 9120 B3BE/4710_003BE       22955                       IF    ~CPSFSPR,'CLEAR R0'
 0028E6 1200/47D0 708C             22979                       IF    (R0,POS),BEGIN
 0028EC 9001 D000/41D0_      00000 22993  1                      XPUSH R0,R1,*
 0028F4 4110 C4D8/4100_      004D8 22996  1                      TSEG  CVBLANKS,27
 002906 4110 7190/4100_      02A2A 23026  1                      TSEG  'TEXT='
 002918 4BD0 7126/9801_      029C0 23044  1                      XPOP  R0,R1,*
 002920 58E0 70FA/0DEE       02994 23047  1                      VCALL CHARFMT
 002926                            23051                       END
 002926 18D8/9808 D004_            23055                       PEND
 DROP   *,R7
                                   23075
 DROP   VTRC,R6                    23076                       DROP  VTRC
                                   23084                       QLTORG
1TINT     (TINT2047) (12:57) (15MAR04) Subroutines                                                                          Page   86
0Current Usings:  (CP,R11) (CV,R12)
0Loc    Object Code    Addr1 Addr2  Stmt Lv Lineno    Source Statement           (Hibal 5, Asmedit 3.3)  HLASM R4.0  2004/03/15 12.57
+___    ______ ____    _____ _____  ____ __ ______    ______ _________
0                                  23146              ¿þþþþþþþþþþþþþþþþþþþþþþþþþþþþþþþþþþþþþþþþþþþþþþþþþþþþþþþþþþþþþþþþþþþþþÜ
                                   23147              Ÿ                                                                     Ÿ
                                   23148              Ÿ  VTAMTRC -- Routine to format vtam trace entry.                     Ÿ
                                   23149              Ÿ                                                                     Ÿ
                                   23150              Ÿ    On entry:                                                        Ÿ
                                   23151              Ÿ      R15 - rngtype                                                  Ÿ
                                   23152              Ÿ      R1,R0 - trace loc, len                                         Ÿ
                                   23153              Ÿ                                                                     Ÿ
                                                      ¾þþþþþþþþþþþþþþþþþþþþþþþþþþþþþþþþþþþþþþþþþþþþþþþþþþþþþþþþþþþþþþþþþþþþþ»
0002A30 50E0 D000/9008_      00000 23154              VTAMTRC  PROC  ,
 USING  *,R7
 002A4A 1861                       23193                       LR    R6,R1                         r6 := source
 002A4C 1850                       23194                       LR    R5,R0                         r5 := #remaining
0002A4E 59F0 7476/4770_      02EC0 23196                       IF    (R15,EQ,RNGTPORT),BEGIN       if port trace
 USING  VPTRACE,R6                 23213  1                      WITH  (VPTRACE,R6)
 002A56 5950 747A/4770_      02EC4 23226  1                      IF    (R5,NE,=A(L'VPTRACE)),EXIT    exit if mismatch
 002A5E 4110 6008/4100_      00008 23245  1                      TSEG  VPTNAME
 002A70 4110 74AC/4100_      02EF6 23273  1                      TSEG  ' REQ='
 002A82 1FFF/43F0 6010_            23291  1                      BTX   CPDOUB,2,LC:VPTREQ
 002A96 41F0 B050/58E0_      00050 23319  1                      TSEG  (R1),(R0)
 002AA0 4110 74B1/4100_      02EFB 23343  1                      TSEG  ' SRTYP='
 002AB2 1FFF/43F0 6011_            23361  1                      BTX   CPDOUB,2,LC:VPTSRTYP
 002AC6 41F0 B050/58E0_      00050 23389  1                      TSEG  (R1),(R0)
 002AD0 4110 74B8/4100_      02F02 23413  1                      TSEG  ' RTNCD='
 002AE2 1FFF/43F0 6012_            23431  1                      BTX   CPDOUB,2,LC:VPTRTNCD
 002AF6 41F0 B050/58E0_      00050 23459  1                      TSEG  (R1),(R0)
 002B00 4110 74BF/4100_      02F09 23483  1                      TSEG  ' FDBK2='
 002B12 1FFF/43F0 6013_            23501  1                      BTX   CPDOUB,2,LC:VPTFDBK2
 002B26 41F0 B050/58E0_      00050 23529  1                      TSEG  (R1),(R0)
 002B30 4110 74C6/4100_      02F10 23553  1                      TSEG  ' RH3='
 002B42 1FFF/43F0 6014_            23571  1                      BTX   CPDOUB,2,LC:VPTRH3
 002B56 41F0 B050/58E0_      00050 23599  1                      TSEG  (R1),(R0)
 002B60 4110 74CB/4100_      02F15 23623  1                      TSEG  ' CHN='
 002B72 1FFF/43F0 6015_            23641  1                      BTX   CPDOUB,2,LC:VPTCHN
 002B86 41F0 B050/58E0_      00050 23669  1                      TSEG  (R1),(R0)
 002B90 4110 74D0/4100_      02F1A 23693  1                      TSEG  ' SNF='
 002BA2 1FFF/BFF3 6016_            23711  1                      BTX   CPDOUB,4,L2:VPTSNF
 002BB6 41F0 B050/58E0_      00050 23740  1                      TSEG  (R1),(R0)
 002BC0 4110 74D5/4100_      02F1F 23764  1                      TSEG  ' STATE='
 002BD2 1FFF/43F0 6018_            23782  1                      BTX   CPDOUB,2,LC:VPTSTATE
 002BE6 41F0 B050/58E0_      00050 23810  1                      TSEG  (R1),(R0)
 002BF0 4110 74DC/4100_      02F26 23834  1                      TSEG  ' FLAGS='
 002C02 1FFF/BFF7 6019_            23852  1                      BTX   CPDOUB,6,L3:VPTFLGS
 002C16 41F0 B050/58E0_      00050 23881  1                      TSEG  (R1),(R0)
 002C20 D505 749A 6009_02EE4 00009 23905  1                      IF    (VPTNAME+1,EQ,C'SIGNAL'),BEGIN  if signal
 002C2A 4110 74E3/4100_      02F2D 23922  2                        TSEG  ' SIGDATA='
 002C3C 58F0 601C/4100_      0001C 23940  2                        BTX   CPDOUB,8,VPTSIGNL
 002C4E 41F0 B050/58E0_      00050 23963  2                        TSEG  (R1),(R0)
 002C58 47F0 744E            02E98 23987  2                        B     VTTREXIT
 002C5C                            23988  1                      END   ,                               end signal
0002C5C 5830 601C/1233_      0001C 23993  1                      IF    ('LT R3,VPTSENS',Z),VTTREXIT
1TINT     (TINT2047) (12:57) (15MAR04) Subroutines                                                                          Page   87
0Current Usings:  (VPTRACE,R6) (*,R7) (CP,R11) (CV,R12)
0Loc    Object Code    Addr1 Addr2  Stmt Lv Lineno    Source Statement           (Hibal 5, Asmedit 3.3)  HLASM R4.0  2004/03/15 12.57
+___    ______ ____    _____ _____  ____ __ ______    ______ _________
0002C66 4110 74EC/4100_      02F36 24012  1                      TSEG  ' SENSE='                     if sense present
 002C78 18F3/4100 0008_            24030  1                      BTX   CPDOUB,8,(R3)
 002C88 41F0 B050/58E0_      00050 24053  1                      TSEG  (R1),(R0)
 002C92 47F0 744E            02E98 24077  1                      B     VTTREXIT
0DROP   VPTRACE,R6                 24079                       END   ,                             end port trace
-002C96 59F0 7486/4770_      02ED0 24089                       IF    (R15,EQ,RNGTFE),BEGIN         if fe trace
 USING  VFTRACE,R6                 24106  1                      WITH  (VFTRACE,R6)
 002C9E 5950 747A/4770_      02EC4 24119  1                      IF    (R5,NE,=A(L'VPTRACE)),EXIT    exit if mismatch
 002CA6 950C 6010/4720_00010       24138  1                      IF    (VFTTYPE,GT,X'0C'),VTNKNOWN
 002CAE 4110 6008/4100_      00008 24158  1                      TSEG  VFTNAME
 002CC0 1FFF/43F0 6010             24186  1                      LC    R15,VFTTYPE
 002CC6 58FF 7282            02CCC 24193  1                      L     R15,VTAMTABL(R15)
 002CCA 07FF                       24194  1                      BR    R15
0002CCC 00002E80                   24196  1           VTAMTABL   DC    A(VTNKNOWN)
 002CD0 00002CDC                   24197  1                      DC    A(VFOPCLS)
 002CD4 00002D40                   24198  1                      DC    A(VFLTL)
 002CD8 00002DB8                   24199  1                      DC    A(VFLMODE)
-                                         1
0002CDC                            24201  1           VFOPCLS    LABEL                     OPEN acb | close acb
 002CDC 4110 74F3/4100_      02F3D 24203  1                      TSEG  ' OFLGS='
 002CEE 1FFF/43F0 6014_            24221  1                      BTX   CPDOUB,2,LC:VFTOFLGS
 002D02 41F0 B050/58E0_      00050 24249  1                      TSEG  (R1),(R0)
 002D0C 4110 74FA/4100_      02F44 24273  1                      TSEG  ' ERFLG='
 002D1E 1FFF/43F0 6015_            24291  1                      BTX   CPDOUB,2,LC:VFTERFLG
 002D32 41F0 B050/58E0_      00050 24319  1                      TSEG  (R1),(R0)
 002D3C 47F0 744E            02E98 24343  1                      B     VTTREXIT
0002D40                            24345  1           VFLTL      LABEL                     LOSTERM | tpend | logon | err
 002D40 4110 7501/4100_      02F4B 24347  1                      TSEG  ' '
 002D52 D607 6014 6014_00014 00014 24365  1                      IF    (VFTPORTN,Z),'TSEG "--------"'
 002D6E 7328/47F0 733A_02D6E 02D5A 24404  1                      ELSE  'TSEG VFTPORTN'
 002D84 4110 74A0/4100_      02EEA 24448  1                      TSEG  ' CODE='
 002D96 1FFF/43F0 601C_            24466  1                      BTX   CPDOUB,2,LC:VFTCODE
 002DAA 41F0 B050/58E0_      00050 24494  1                      TSEG  (R1),(R0)
 002DB4 47F0 744E            02E98 24518  1                      B     VTTREXIT
0002DB8                            24520  1           VFLMODE    LABEL                     LOGMODE
 002DB8 4110 74B8/4100_      02F02 24522  1                      TSEG  ' RTNCD='
 002DCA 1FFF/43F0 6014_            24540  1                      BTX   CPDOUB,2,LC:VFTRTNCD
 002DDE 41F0 B050/58E0_      00050 24568  1                      TSEG  (R1),(R0)
 002DE8 4110 74BF/4100_      02F09 24592  1                      TSEG  ' FDBK2='
 002DFA 1FFF/43F0 6015_            24610  1                      BTX   CPDOUB,2,LC:VFTFDBK2
 002E0E 41F0 B050/58E0_      00050 24638  1                      TSEG  (R1),(R0)
 002E18 4110 7502/4100_      02F4C 24662  1                      TSEG  ' OPT11='
 002E2A 1FFF/43F0 6016_            24680  1                      BTD   CPDOUB,2,LC:VFTOPT11
 002E3E 41F0 B050/58E0_      00050 24708  1                      TSEG  (R1),(R0)
 002E48 9120 6016/47E0_00016       24732  1                      IF    ('TM VFTOPT11,X"20"',ON),'TSEG " STOP"'
1TINT     (TINT2047) (12:57) (15MAR04) Subroutines                                                                          Page   88
0Current Usings:  (VFTRACE,R6) (*,R7) (CP,R11) (CV,R12)
0Loc    Object Code    Addr1 Addr2  Stmt Lv Lineno    Source Statement           (Hibal 5, Asmedit 3.3)  HLASM R4.0  2004/03/15 12.57
+___    ______ ____    _____ _____  ____ __ ______    ______ _________
0002E62 9140 6016/47E0_00016       24768  1                      IF    ('TM VFTOPT11,X"40"',ON),'TSEG " START"'
 002E7C 47F0 744E            02E98 24804  1                      B     VTTREXIT
0DROP   VFTRACE,R6                 24806                       END   ,                             end fe trace
-002E80 41F0 000C            0000C 24816              VTNKNOWN LA    R15,12                        not known
 002E84 4110 6008            00008 24817                       LA    R1,@R6+8
 002E88 1805                       24818                       LR    R0,R5
 002E8A 5B00 748E            02ED8 24819                       S     R0,=A(8)
 002E8E 58E0 7492/0DEE       02EDC 24820                       VCALL HEXFMT
 002E94 4770 C7DA            007DA 24824                       BNZ   CVABORT
0002E98 1B00/41F0 B050_            24826              VTTREXIT TWRITE
 002EA4 4770 C7DA            007DA 24852                       BNZ   CVABORT
 002EA8 18D8/9808 D004_            24853                       PEND
 DROP   *,R7
-
                                   24874
                                   24875                       QLTORG
                                   24916
                                   24917                       VLTORG
                                   24925
 002F58                02F58 02F58 24926                       END   .

1TINT     (TINT2047) (12:57) (15MAR04) Relocation Dictionary                                                                Page   89
-   Pos.Id   Rel.Id   Flags    Address                                                       HLASM R4.0  2004/03/15 12.57
0  00000001 00000001    0C    000004C4
   00000001 00000001    0C    000004EC
   00000001 00000001    0C    000009B4
   00000001 00000001    0C    000009DC
   00000001 00000001    0C    00000C04
   00000001 00000001    0C    00000C08
   00000001 00000001    0C    00000C0C
   00000001 00000001    0C    00000C10
   00000001 00000001    0C    00000C14
   00000001 00000001    0C    00000C18
   00000001 00000001    0C    00000C1C
   00000001 00000001    0C    00000C20
   00000001 00000001    0C    00000C24
   00000001 00000001    0C    00000C28
   00000001 00000001    0C    00000C3C
   00000001 00000001    0C    00000CA0
   00000001 00000001    0C    00001558
   00000001 00000001    0C    000015BC
   00000001 00000001    0C    00001F60
   00000001 00000001    0C    00002CCC
   00000001 00000001    0C    00002CD0
   00000001 00000001    0C    00002CD4
   00000001 00000001    0C    00002CD8
   00000001 00000002    1C    0000030C
   00000001 00000002    1C    000003E8
   00000001 00000003    1C    00000310
   00000001 00000003    1C    00000C60
   00000001 00000003    1C    0000158C
   00000001 00000003    1C    00001FAC
   00000001 00000003    1C    00002124
   00000001 00000003    1C    00002964
   00000001 00000004    1C    00000314
   00000001 00000004    1C    000003EC
   00000001 00000004    1C    00000C4C
   00000001 00000004    1C    00001564
   00000001 00000004    1C    00001F6C
   00000001 00000004    1C    00002954
   00000001 00000004    1C    00002EC8
   00000001 00000005    1C    00000318
   00000001 00000005    1C    00001FC0
   00000001 00000006    1C    0000031C
   00000001 00000006    1C    00000C38
   00000001 00000007    1C    00000320
   00000001 00000007    1C    000003F0
   00000001 00000007    1C    00000C58
   00000001 00000007    1C    00001568
   00000001 00000007    1C    00001F70
   00000001 00000008    1C    00000324
   00000001 00000008    1C    00001F88
   00000001 00000009    1C    00000328
   00000001 00000009    1C    00001FA0
   00000001 0000000A    1C    0000032C
   00000001 0000000A    1C    00001578
   00000001 0000000A    1C    00001FCC
   00000001 0000000A    1C    00002960
1TINT     (TINT2047) (12:57) (15MAR04) Relocation Dictionary                                                                Page   90
   00000001 0000000B    1C    00000334
   00000001 0000000B    1C    00000CA8
   00000001 0000000B    1C    00001574
   00000001 0000000B    1C    00001FB8
   00000001 0000000B    1C    0000212C
   00000001 0000000B    1C    00002980
   00000001 0000000B    1C    00002EE0
   00000001 0000000C    1C    000004C0
   00000001 0000000C    1C    000004E8
   00000001 0000000C    1C    000009B0
   00000001 0000000C    1C    000009D8
   00000001 0000000D    1C    00000514
   00000001 0000000D    1C    000005BC
   00000001 0000000D    1C    00000A04
   00000001 0000000E    1C    00000C40
   00000001 0000000E    1C    0000155C
   00000001 0000000E    1C    00001F64
   00000001 0000000F    1C    00000C44
   00000001 0000000F    1C    00001560
   00000001 0000000F    1C    00001F68
   00000001 00000010    1C    00000C48
   00000001 00000010    1C    0000298C
   00000001 00000010    1C    00002ECC
   00000001 00000011    1C    00000C50
   00000001 00000012    1C    00000C54
   00000001 00000012    1C    00001F7C
   00000001 00000013    1C    00000C5C
   00000001 00000013    1C    00001FD0
   00000001 00000014    1C    00000C68
   00000001 00000014    1C    0000157C
   00000001 00000014    1C    00001FBC
   00000001 00000014    1C    00002978
   00000001 00000015    1C    00000C6C
   00000001 00000015    1C    000015B0
   00000001 00000015    1C    00001F80
   00000001 00000016    1C    00000C70
   00000001 00000016    1C    000015B4
   00000001 00000016    1C    00001F84
   00000001 00000017    1C    00000C90
   00000001 00000018    1C    00000C98
   00000001 00000018    1C    0000295C
   00000001 00000019    1C    00000C9C
   00000001 00000019    1C    00001FA4
   00000001 00000019    1C    00002974
   00000001 0000001A    1C    00000CA4
   00000001 0000001B    1C    0000156C
   00000001 0000001C    1C    00001570
   00000001 0000001D    1C    00001580
   00000001 0000001D    1C    00001FC4
   00000001 0000001E    1C    00001588
   00000001 0000001F    1C    000015AC
   00000001 00000020    1C    00001F78
   00000001 00000021    1C    00001FA8
   00000001 00000022    1C    00001FB4
   00000001 00000022    1C    00002984
   00000001 00000022    1C    00002ED4
   00000001 00000023    1C    00001FC8
   00000001 00000024    1C    00001FD4
   00000001 00000025    1C    00002128
1TINT     (TINT2047) (12:57) (15MAR04) Relocation Dictionary                                                                Page   91
   00000001 00000025    1C    0000297C
   00000001 00000025    1C    00002EDC
   00000001 00000026    1C    00002970
   00000001 00000027    1C    00002994

1TINT     (TINT2047) (12:57) (15MAR04) Ordinary Symbol and Literal Cross Reference                                          Page   92
-Symbol   Length   Value     Id    R Type   Defn References                                  HLASM R4.0  2004/03/15 12.57
0$$$@R0        1 00000000 FFFFFFFE     J     705  1015
 $$$@R10       1 00000000 FFFFFFF4     J     835  1079
 $$$@R11       1 00000000 FFFFFFF3     J     848  1092
 $$$@R12       1 00000000 FFFFFFF2     J     861  1105
 $$$@R13       1 00000000 FFFFFFF1     J     874  1118
 $$$@R14       1 00000000 FFFFFFF0     J     887  1131
 $$$@R7        1 00000000 FFFFFFF7     J     796  1028
 $$$@R8        1 00000000 FFFFFFF6     J     809  1041   1053
 $$$@R9        1 00000000 FFFFFFF5     J     822  1066
 $$$C1WYLTINT
               1 00000358 00000001     J   10210 10212
 $$$C10WYLTINT
               1 00002A2F 00000001     J   23140 23142
 $$$C11WYLTINT
               1 00002F58 00000001     J   24911 24913
 $$$C12WYLTINT
               1 00002F58 00000001     J   24929 24931
 $$$C2WYLTINT
               1 000003F4 00000001     J   10466 10468  10604  11694  12392
 $$$C3WYLTINT
               1 00000CF3 00000001     J   13389 13391  13415  13886  14402  15363
 $$$C4WYLTINT
               1 00001632 00000001     J   16501 16503  16527  17061  18227  18376  18870
 $$$C5WYLTINT
               1 0000206F 00000001     J   19901 19903
 $$$C6WYLTINT
               1 00002155 00000001     J   20179 20181
 $$$C7WYLTINT
               1 000021B3 00000001     J   20267 20269
 $$$C8WYLTINT
               1 0000220D 00000001     J   20355 20357
 $$$C9WYLTINT
               1 0000226B 00000001     J   20443 20445
 $$$D0WYLTINT
               1 0000034B 00000001     J     991  9188   9450
 $$$RATRC      1 00000000 FFFFFFE1     J    7500  7553   7553
 $$$RBROADWA
               1 00000000 FFFFFFCC     J   16957 17060  17060
 $$$RCP        1 00000000 FFFFFFEC     J    2452  4712   6186   6186
 $$$RCTRC      1 00000000 FFFFFFE2     J    7446  7478   7478
 $$$RCV        1 00000000 FFFFFFEE     J    1177  2362   2362
 $$$RDEV       1 00000000 FFFFFFEB     J    4666  4711   4711
 $$$RFDB       1 00000000 FFFFFFE3     J    7328  7436   7436
 $$$RFSB       1 00000000 FFFFFFE4     J    7121  7308   7308
 $$$RJCB       1 00000000 FFFFFFE9     J    6304  6578   6578
 $$$RKILLWA
               1 00000000 FFFFFFCB     J   18213 18226  18226
 $$$RKRWA      1 00000000 FFFFFFC9     J   18856 18869  18869
 $$$RKSWA      1 00000000 FFFFFFCA     J   18360 18375  18375
 $$$RKWR       1 00000000 FFFFFFE5     J    6906  7111   7111
 $$$RLGSESSWA
               1 00000000 FFFFFFD6     J    9030  9044   9044
 $$$RMCLSWA
               1 00000000 FFFFFFD0     J   13872 13885  13885
 $$$RMDEVWA
1TINT     (TINT2047) (12:57) (15MAR04) Ordinary Symbol and Literal Cross Reference                                          Page   93
               1 00000000 FFFFFFD3     J   11573 11693  11693
 $$$RMOPNWA
               1 00000000 FFFFFFD1     J   13401 13414  13414
 $$$RNSCNCB
               1 00000000 FFFFFFED     J    2373  2446   2446
 $$$RPDB       1 00000000 FFFFFFE6     J    6708  6900   6900
 $$$RPSB       1 00000000 FFFFFFDB     J    7840  8101   8101
 $$$RPTRC      1 00000000 FFFFFFE0     J    7581  7620   7620
 $$$RRNE       1 00000000 FFFFFFD8     J    8856  8902   8902
 $$$RRNGCB
               1 00000000 FFFFFFD7     J    8908  9024   9024
 $$$RRQST      1 00000000 FFFFFFE7     J    6664  6702   6702
 $$$RSETOWA
               1 00000000 FFFFFFCD     J   16513 16526  16526
 $$$RSHNETWA
               1 00000000 FFFFFFD4     J   10475 10603  10603
 $$$RSHPRTWA
               1 00000000 FFFFFFD2     J   12263 12391  12391
 $$$RSSB       1 00000000 FFFFFFDA     J    8111  8150   8150
 $$$RSTOPWA
               1 00000000 FFFFFFCE     J   15349 15362  15362
 $$$RSTRTWA
               1 00000000 FFFFFFCF     J   14388 14401  14401
 $$$RSYSCWA
               1 00000000 FFFFFFD5     J    9941  9956   9956
 $$$RTTRC      1 00000000 FFFFFFDF     J    7632  7684   7684
 $$$RTTYPE
               1 00000000 FFFFFFEA     J    6197  6298   6298
 $$$RVFTRACE
               1 00000000 FFFFFFDD     J    7737  7790   7790
 $$$RVPTRACE
               1 00000000 FFFFFFDC     J    7796  7830   7830
 $$$RVTRC      1 00000000 FFFFFFDE     J    7694  7731   7731
 $$$SEGCB0
               4 00000050 FFFFFFEC     F    2483  2569   2569
 $$$SEGCB103
               4 000002A0 FFFFFFD4     F   10506 10592  10592
 $$$SEGCB131
               4 0000000C FFFFFFD3     F   11595 11681  11681
 $$$SEGCB148
               4 000002A0 FFFFFFD2     F   12294 12380  12380
 $$$SEGCB247
               4 0000029C FFFFFFCC     F   16965 17051  17051
 $$$101F       2 000003C8 00000001     H   10413 10397B
 $$$102        1 00000094 00000001 A   U   10452 10449  10451
 $$$112B       1 0000040E 00000001     X   10635 10642U
 $$$113F       2 00000458 00000001     H   10715 10689B
 $$$114        1 00000050 00000001 A   U   10805 10802  10804
 $$$116B       1 0000055A 00000001     X   10893 10900U
 $$$117        1 00000050 00000001 A   U   10932 10929  10931
 $$$119B       1 00000586 00000001     X   10959 10966U
 $$$120        1 00000050 00000001 A   U   10998 10995  10997
 $$$122B       1 00000602 00000001     X   11066 11073U
 $$$123F       2 0000063E 00000001     H   11189 11104B
 $$$124F       2 00000742 00000001     H   11533 11208B
 $$$125F       2 00000728 00000001     H   11490 11371B 11388B
 $$$125S       2 000006C6 00000001     H   11363 11489B
 $$$128F       2 0000070C 00000001     H   11475 11462B
 $$$129F       2 00000742 00000001     H   11529 11502B
1TINT     (TINT2047) (12:57) (15MAR04) Ordinary Symbol and Literal Cross Reference                                          Page   94
 $$$130        1 00000050 00000001 A   U   11552 11549  11551
 $$$140B       1 0000076A 00000001     X   11727 11734U
 $$$141F       2 000007DE 00000001     H   11826 11811B
 $$$143F       2 000008EA 00000001     H   12194 12068B 12085B
 $$$143S       2 0000088E 00000001     H   12060 12193B
 $$$146F       2 00000904 00000001     H   12233 12206B
 $$$147        1 00000498 00000001 A   U   12257 12254  12256
 $$$157B       1 00000930 00000001     X   12425 12432U
 $$$158F       2 0000095C 00000001     H   12493 12483B
 $$$160B       1 00000A4A 00000001     X   12656 12663U
 $$$161        1 00000050 00000001 A   U   12698 12695  12697
 $$$163B       1 00000A76 00000001     X   12725 12732U
 $$$164        1 00000050 00000001 A   U   12764 12761  12763
 $$$166B       1 00000AA2 00000001     X   12798 12805U
 $$$167F       2 00000ADE 00000001     H   12921 12836B
 $$$168F       2 00000BF4 00000001     H   13292 12965B
 $$$169F       2 00000BDA 00000001     H   13249 13130B 13147B
 $$$169S       2 00000B78 00000001     H   13122 13248B
 $$$172F       2 00000BBE 00000001     H   13234 13221B
 $$$173F       2 00000BF4 00000001     H   13288 13261B
 $$$174        1 00000050 00000001 A   U   13311 13308  13310
 $$$176B       1 00000D0E 00000001     X   13445 13452U
 $$$178        1 000002EC 00000001 A   U   13552 13549  13551
 $$$180B       1 00000D80 00000001     X   13586 13593U
 $$$181F       2 00000D96 00000001     H   13637 13623B
 $$$182F       2 00000DAA 00000001     H   13662 13648B
 $$$183F       2 00000DF2 00000001     H   13766 13752B
 $$$184        1 00000050 00000001 A   U   13854 13851  13853
 $$$186B       1 00000E52 00000001     X   13916 13923U
 $$$188        1 000002EC 00000001 A   U   14023 14020  14022
 $$$190B       1 00000EC4 00000001     X   14057 14064U
 $$$191F       2 00000F10 00000001     H   14178 14094B
 $$$192F       2 00000F58 00000001     H   14282 14268B
 $$$193        1 00000050 00000001 A   U   14370 14367  14369
 $$$195B       1 00000FB8 00000001     X   14432 14439U
 $$$197        1 000002EC 00000001 A   U   14536 14533  14535
 $$$199B       1 0000102C 00000001     X   14575 14582U
 $$$200B       4 00001036 00000001     I   14606 14641
 $$$200F       2 0000103C 00000001     H   14637 14606B 14640
 $$$201E       2 00001040 00000001     H   14648 14642
 $$$201F       2 00001042 00000001     H   14676 14644B
 $$$202        1 00000050 00000001 A   U   14696 14693  14695
 $$$204B       1 0000106A 00000001     X   14731 14738U
 $$$205F       2 00001112 00000001     H   14998 14761B
 $$$206F       2 00001088 00000001     H   14803 14789B
 $$$207F       2 000010D0 00000001     H   14906 14892B
 $$$208F       2 00001126 00000001     H   15038 15024B
 $$$209F       2 0000113A 00000001     H   15063 15049B
 $$$210F       2 00001188 00000001     H   15167 15153B
 $$$211        1 00000050 00000001 A   U   15339 15336  15338
 $$$213B       1 00001220 00000001     X   15393 15400U
 $$$214F       2 0000122E 00000001     H   15441 15428B
 $$$215F       2 000012AA 00000001     H   15513 15498B
 $$$216F       2 000012C0 00000001     H   15551 15525B 15538B
 $$$218F       2 000012D6 00000001     H   15589 15563B 15576B
 $$$220        1 000002EC 00000001 A   U   15647 15644  15646
 $$$222B       1 0000133E 00000001     X   15676 15683U
 $$$223        1 00000050 00000001 A   U   15723 15720  15722
 $$$225B       1 00001378 00000001     X   15762 15769U
1TINT     (TINT2047) (12:57) (15MAR04) Ordinary Symbol and Literal Cross Reference                                          Page   95
 $$$226B       4 00001382 00000001     I   15793 15845
 $$$226F       2 00001390 00000001     H   15841 15793B 15844
 $$$228E       2 00001394 00000001     H   15852 15846
 $$$228F       2 0000139E 00000001     H   15897 15848B
 $$$230        1 00000050 00000001 A   U   15917 15914  15916
 $$$232B       1 000013C6 00000001     X   15952 15959U
 $$$233F       2 0000144E 00000001     H   16179 15982B
 $$$234F       2 00001418 00000001     H   16102 16088B
 $$$235F       2 0000149C 00000001     H   16298 16284B
 $$$236        1 00000050 00000001 A   U   16453 16450  16452
 $$$238B       1 0000164C 00000001     X   16557 16564U
 $$$241B       1 000016B0 00000001     X   16685 16692U
 $$$242F       2 00001736 00000001     H   16925 16894B
 $$$242S       2 000016B2 00000001     H   16719 16924B
 $$$243F       2 000016C2 00000001     H   16755 16739B
 $$$246        1 00000050 00000001 A   U   16943 16940  16942
 $$$256B       1 0000175E 00000001     X   17094 17101U
 $$$258F       2 00001804 00000001     H   17254 17238B
 $$$259F       2 00001832 00000001     H   17307 17281B 17294B
 $$$259S       2 0000181A 00000001     H   17273 17306B
 $$$262F       2 00001858 00000001     H   17372 17322B 17333B
 $$$264F       2 00001898 00000001     H   17445 17394B
 $$$265F       2 0000188C 00000001     H   17426 17410B
 $$$266        1 00000414 00000001 A   U   17624 17621  17623
 $$$268B       1 00001956 00000001     X   17662 17669U
 $$$269F       2 0000196E 00000001     H   17740 17709B 17727B
 $$$272        1 00000050 00000001 A   U   17758 17755  17757
 $$$274B       1 00001996 00000001     X   17800 17807U
 $$$275F       2 000019B6 00000001     H   17874 17847B
 $$$276F       2 000019E2 00000001     H   17948 17921B
 $$$277F       2 00001A86 00000001     H   18170 17960B
 $$$278F       2 00001A70 00000001     H   18147 18077B
 $$$279        1 00000050 00000001 A   U   18188 18185  18187
 $$$281B       1 00001AAE 00000001     X   18257 18264U
 $$$282        1 000002EC 00000001 A   U   18343 18340  18342
 $$$284B       1 00001B1A 00000001     X   18404 18411U
 $$$285F       2 00001B5A 00000001     H   18525 18473B 18491B 18512B
 $$$289F       2 00001C1A 00000001     H   18809 18539B 18556B
 $$$291B       4 00001B96 00000001     I   18624 18644
 $$$291F       2 00001BA8 00000001     H   18640 18624B 18643
 $$$292E       2 00001BAC 00000001     H   18651 18645
 $$$292F       2 00001C18 00000001     H   18800 18647B
 $$$293        1 0000034C 00000001 A   U   18843 18840  18842
 $$$295B       1 00001C4C 00000001     X   18898 18905U
 $$$296F       2 00001E3E 00000001     H   19568 18949B
 $$$297F       2 00001E12 00000001     H   19502 19447B
 $$$298F       2 00001EF8 00000001     H   19813 19655B
 $$$299        1 00000150 00000001 A   U   19842 19839  19841
 $$$301B       1 0000208A 00000001     X   19938 19945U
 $$$302B       4 00002098 00000001     I   19970 20012
 $$$302F       2 000020B8 00000001     H   20009 19970B 20011
 $$$303E       2 000020BC 00000001     H   20019 20013
 $$$303F       2 000020C0 00000001     H   20025 20015B
 $$$304        1 00000050 00000001 A   U   20088 20085  20087
 $$$306B       1 00002106 00000001     X   20123 20130U
 $$$307        1 00000050 00000001 A   U   20163 20160  20162
 $$$309B       1 00002170 00000001     X   20216 20223U
 $$$310        1 00000050 00000001 A   U   20256 20253  20255
 $$$312B       1 000021CE 00000001     X   20304 20311U
1TINT     (TINT2047) (12:57) (15MAR04) Ordinary Symbol and Literal Cross Reference                                          Page   96
 $$$313        1 00000050 00000001 A   U   20344 20341  20343
 $$$315B       1 00002228 00000001     X   20392 20399U
 $$$316        1 00000050 00000001 A   U   20432 20429  20431
 $$$318B       1 00002286 00000001     X   20480 20487U
 $$$319F       2 00002378 00000001     H   20863 20526B
 $$$320F       2 000022AA 00000001     H   20560 20547B
 $$$321B       4 000022CA 00000001     I   20629 20660
 $$$321F       2 000022E0 00000001     H   20656 20629B 20659
 $$$322B       4 000022E8 00000001     I   20679 20709
 $$$322E       2 000022E4 00000001     H   20667 20661
 $$$322F       2 000022FE 00000001     H   20706 20663B 20679B 20708
 $$$324E       2 00002302 00000001     H   20716 20710
 $$$324F       2 00002326 00000001     H   20766 20712B
 $$$325F       2 0000238E 00000001     H   20902 20892B
 $$$326F       2 000024F8 00000001     H   21461 21000B
 $$$327B       4 000023CC 00000001     I   21016 21046
 $$$327F       2 000023E2 00000001     H   21043 21016B 21045
 $$$328E       2 000023E6 00000001     H   21053 21047
 $$$328F       2 0000241C 00000001     H   21136 21049B
 $$$329B       4 00002420 00000001     I   21150 21181
 $$$329F       2 00002436 00000001     H   21177 21150B 21180
 $$$330B       4 0000243E 00000001     I   21200 21230
 $$$330E       2 0000243A 00000001     H   21188 21182
 $$$330F       2 00002454 00000001     H   21227 21184B 21200B 21229
 $$$332E       2 00002458 00000001     H   21237 21231
 $$$332F       2 00002490 00000001     H   21309 21233B
 $$$333F       2 000024F4 00000001     H   21456 21318B 21375B 21392B
 $$$336F       2 000024E8 00000001     H   21434 21425B
 $$$337F       2 000025C6 00000001     H   21722 21477B
 $$$338F       2 000025C2 00000001     H   21717 21678B 21695B
 $$$340F       2 000025E6 00000001     H   21775 21738B
 $$$341        1 00000050 00000001 A   U   21849 21846  21848
 $$$343B       1 00002632 00000001     X   21884 21891U
 $$$344        1 00000050 00000001 A   U   21924 21921  21923
 $$$346B       1 00002666 00000001     X   21959 21966U
 $$$347F       2 000026B6 00000001     H   22108 21999B
 $$$348F       2 0000268A 00000001     H   22033 22020B
 $$$349F       2 00002834 00000001     H   22713 22227B
 $$$350B       4 00002706 00000001     I   22243 22273
 $$$350F       2 0000271C 00000001     H   22270 22243B 22272
 $$$351E       2 00002720 00000001     H   22280 22274
 $$$351F       2 00002756 00000001     H   22363 22276B
 $$$352B       4 0000275A 00000001     I   22377 22408
 $$$352F       2 00002770 00000001     H   22404 22377B 22407
 $$$353B       4 00002778 00000001     I   22427 22457
 $$$353E       2 00002774 00000001     H   22415 22409
 $$$353F       2 0000278E 00000001     H   22454 22411B 22427B 22456
 $$$355E       2 00002792 00000001     H   22464 22458
 $$$355F       2 000027C2 00000001     H   22539 22460B
 $$$356F       2 00002830 00000001     H   22708 22548B 22627B 22644B
 $$$359F       2 00002824 00000001     H   22686 22677B
 $$$360F       2 0000284E 00000001     H   22752 22727B
 $$$361        1 00000050 00000001 A   U   22819 22816  22818
 $$$363B       1 0000289A 00000001     X   22847 22854U
 $$$364F       2 000028C0 00000001     H   22913 22904B
 $$$365F       2 000028E6 00000001     H   22978 22965B
 $$$366F       2 00002926 00000001     H   23054 22988B
 $$$367        1 00000050 00000001 A   U   23072 23069  23071
 $$$369B       1 00002A4A 00000001     X   23177 23184U
1TINT     (TINT2047) (12:57) (15MAR04) Ordinary Symbol and Literal Cross Reference                                          Page   97
 $$$370F       2 00002C96 00000001     H   24087 23208B 23239B
 $$$372F       2 00002C5C 00000001     H   23991 23917B
 $$$374F       2 00002E80 00000001     H   24814 24101B 24132B
 $$$377B       4 00002D58 00000001     I   24376 24406
 $$$377F       2 00002D6E 00000001     H   24403 24376B 24405
 $$$378E       2 00002D72 00000001     H   24413 24407
 $$$378F       2 00002D84 00000001     H   24447 24409B
 $$$379F       2 00002E62 00000001     H   24767 24740B
 $$$380F       2 00002E7C 00000001     H   24803 24776B
 $$$381        1 00000050 00000001 A   U   24870 24867  24869
 $$$73B        1 00000032 00000001     X    9081  9088U
 $$$76F        2 00000052 00000001     H    9165  9156B
 $$$77F        2 00000062 00000001     H    9204  9180B
 $$$78         6 0000034C 00000001     I    9194  9186X
 $$$79         6 0000034C 00000001     I    9193  9194   9194
 $$$80         1 0000005C 00000001 A   U    9376  9373   9375
 $$$82B        1 000000F6 00000001     X    9403  9410U
 $$$83F        2 00000124 00000001     H    9466  9442B
 $$$84         6 00000352 00000001     I    9456  9448X
 $$$85         6 00000352 00000001     I    9455  9456   9456
 $$$86         1 00000050 00000001 A   U    9489  9486   9488
 $$$88B        1 00000152 00000001     X    9525  9532U
 $$$89F        2 000001D8 00000001     H    9714  9665B
 $$$90         1 00000088 00000001 A   U    9923  9920   9922
 $$$91F        2 000002F6 00000001     H   10172 10138B
 $$$92B        1 00000298 00000001     X    9986  9993U
 $$$93F        2 000002F2 00000001     H   10154 10092B
 $$$93S        2 000002A4 00000001     H   10028 10153B
 $$$95F        2 000002E8 00000001     H   10142 10127B
 $$$96         1 00000094 00000001 A   U   10181 10178  10180
 $$$97F        2 000003D6 00000001     H   10443 10409B
 $$$98B        1 00000372 00000001     X   10256 10263U
 $$$99F        2 000003D2 00000001     H   10425 10362B
 $$$99S        2 0000037E 00000001     H   10298 10424B
 @RAR          0 00000000 FFFFFFF0     @    1132  2160   2168B
 @R0           0 00000000 FFFFFFFE     @     706   982U
 @R1           0 00000000 FFFFFFFD     @     719   978U  2166   2167   9193   9424   9426M  9427M  9455M  9606  10011
                                                 10113  10281  10383  11303U 13062U 13729U 14245U 14869U 15130U 15537
                                                 15575  16065U 16261U 16920  17293  17300  18440  18787U 18923  19954
                                                 20746U 20797U 21268U
 @R10          0 00000000 FFFFFFF4     @     836   942U
 @R11          0 00000000 FFFFFFF3     @     849   938U
 @R12          0 00000000 FFFFFFF2     @     862   934U
 @R13          0 00000000 FFFFFFF1     @     875   930U 15595
 @R14          0 00000000 FFFFFFF0     @     888   926U  9455  11449U 13208U
 @R15          0 00000000 FFFFFFEF     @     901   922U  9425  10775U 11345U 12482  12551U 13104U 22493U 23300U 23370U
                                                 23440U 23510U 23580U 23650U 23721U 23791U 23862U 24192U 24230U 24300U
                                                 24475U 24549U 24619U 24689U
 @R2           0 00000000 FFFFFFFC     @     732   974U 18064U 18815M
 @R3           0 00000000 FFFFFFFB     @     745   970U 22946U
 @R4           0 00000000 FFFFFFFA     @     758   966U 11376  12073  12138  13135
 @R5           0 00000000 FFFFFFF9     @     771   962U 11561U 13320U 18197U
 @R6           0 00000000 FFFFFFF8     @     784   958U 10150U 10421U 11568U 13327U 13863U 14379U 14634U 14673U 14995U
                                                 15318U 15838U 15894U 16176U 16432U 16952U 17686U 17767U 18204U 18822U
                                                 19821U 20003  21833U 23082U 24084U 24811U 24817
 @R7           0 00000000 FFFFFFF7     @     797   954U  9365U  9478U  9912U 10170U 10441U 10794U 10921U 10987U 11541U
                                                 12246U 12569U 12687U 12753U 13300U 13541U 13843U 14012U 14359U 14525U
                                                 14685U 15328U 15636U 15712U 15906U 16442U 16652U 16932U 17613U 17747U
                                                 18177U 18332U 18832U 19831U 20077U 20152U 20245U 20333U 20421U 21838U
1TINT     (TINT2047) (12:57) (15MAR04) Ordinary Symbol and Literal Cross Reference                                          Page   98
                                                 21913U 22808U 23061U 24859U
 @R8           0 00000000 FFFFFFF6     @     810   950U  9360U  9907U 10165U 10436U 12241U 12673U 13536U 14007U 14520U
                                                 15631U 16702U 17608U 18327U 18827U 19826U
 @R9           0 00000000 FFFFFFF5     @     823   946U
 ABSCENT       1 00000000 00000000 A   T    2176  2176
 ALFTRC        2 00002618 00000001     H   21865 13341
 ASCTBL        1 00000000 00000000 A   T    2184  2184
 ASYNTRC       2 000021B4 00000001     H   20285 13335
 ATRCCLCK      8 00000000 FFFFFFE1     D    7506  7513   7513   7515
 ATRCDATA      1 00000014 FFFFFFE1     U    7519  7522   7531   7537
 BLTBL         1 00000000 00000000 A   T    2186  2186
 BR            7 00000007 00000001 A   #    1022  9076M  9398M  9520M  9981M 10251M 10630M 10888M 10954M 11061M 11722M
                                                 12420M 12651M 12720M 12793M 13440M 13581M 13911M 14052M 14427M 14570M
                                                 14726M 15388M 15671M 15757M 15947M 16552M 16680M 17089M 17657M 17795M
                                                 18252M 18399M 18893M 19933M 20118M 20211M 20299M 20387M 20475M 21879M
                                                 21954M 22842M 23172M
 BROADCAS      2 00001744 00000001     H   17073 17069
 BROADRTN      2 0000197C 00000001     H   17781 17595
 BROADSEL      2 0000193C 00000001     H   17643 17594
 BROADWA     963 00000000 FFFFFFCC     J   17060 17086  17115U 17124  17133U 17141M 17141  17142M 17142  17143M 17143
                                                 17144M 17144  17621  17623  17624  17824U
 BRRNG       666 00000000 FFFFFFCC     X   16963 17587
 BRSG         60 0000029C FFFFFFCC     X   17051 17168  17486  17515  17544
 BRSGBUF     235 000002D8 FFFFFFCC     C   17053 17155  17160
 BRSGCOD       1 0000029C FFFFFFCC     R   16968 16977  16987  16997  17007  17017  17027  17037
 BRSGLENF      4 000002A8 FFFFFFCC     A   17043 17886
 BRSGLOC       4 000002BC FFFFFFCC     A   17047 17881
 BTD           1 00000000 00000022     T   19874 19874  23107  24888
 BTX           1 00000000 00000010     T   13361 13361  23109  24886
 CHARFMT       1 00000000 00000027     T   23111 23111
 CHECKIOB      1 00000000 00000000 A   T    2232  2232
 CHKKW         1 00000000 00000023     T   19879 19879
 CLOSERTN      2 00000EAA 00000001     H   14038 13994
 CLOSEX        2 00000F90 00000001     H   14355 14261B 14278B
 CMDFIN        1 00000000 0000001F     T   16483 16483
 COLLOPTS      1 00000000 00000006     T   10197 10197  13357
 COMMAND       1 00000000 00000000 A   T    2172  2172
 COMMSEG       1 00000000 00000000 A   T    2173  2173
 CP         4096 00000000 FFFFFFEC     J    6186  1161U
 CP#XSTK       1 00000010 FFFFFFEC A   U    3918  3919
 CPACFLG       1 000005D5 FFFFFFEC     R    4021  4025   4030   4035   4040   4045
 CPACFLN       4 000005C4 FFFFFFEC     F    4013  4048   4048
 CPAFLAG       1 000005C3 FFFFFFEC     R    3985  3989   3994   3999   4004
 CPANAME       8 00000588 FFFFFFEC     C    3967  4063   4063
 CPAUTFLG      1 000008A9 FFFFFFEC     R    4331  4335   4340   4345   4350
 CPCHFLAG      1 00000B68 FFFFFFEC     R    4958  4962
 CPCMNM        3 00000D24 FFFFFFEC     C    5284 10688  16738  17321
 CPCWA         4 00000CA4 FFFFFFEC     F    5210 10675M 11082  12469M 12814  17125M 17816
 CPDFLG        1 0000084C FFFFFFEC     R    4218  4222   4227   4232   4237   4242
 CPDFLG2       1 0000084D FFFFFFEC     R    4247  4251   4256   4261   4266   4271   4276
 CPDOUB        8 00000C88 FFFFFFEC     D    5204  9560M  9571  11127  11401  12098  12859  13160  18115  22127  22507
                                                 22586  23314  23384  23454  23524  23594  23664  23735  23805  23876
                                                 23958  24048  24244  24314  24489  24563  24633  24703
 CPEXFLG       1 00000758 FFFFFFEC     R    4087  4091
 CPEXFLG2      1 00000759 FFFFFFEC     R    4097  4106   4116
 CPEXFLG3      1 0000075A FFFFFFEC     R    4123  4127   4132
 CPEXTFLG      1 00000E28 FFFFFFEC     R    5769  5773   5778   5783   5788   5793   5798
 CPFABORT    128 00000D5A FFFFFFEC         5535  2136M  2136   2141M  2141  13835M 14351M 14988M 15310M 16169M 16424M
 CPFERROR     64 00000D5A FFFFFFEC         5540  2135M  2135   2140M  2140
1TINT     (TINT2047) (12:57) (15MAR04) Ordinary Symbol and Literal Cross Reference                                          Page   99
 CPFNTEX       1 00000040 FFFFFFEC A   U    5387  5388
 CPFRDRNG      1 00000D88 FFFFFFEC     R    5655  5659   5664   5669   5674   5679   5684   5689
 CPFRDSRC      1 00000D89 FFFFFFEC     R    5694  5703   5713   5723
 CPFUNUM       1 00000080 FFFFFFEC A   U    5386  5388
 CPFXDFLG      1 000007E4 FFFFFFEC     R    4165  4169   4174
 CPGFLG1       1 00000474 FFFFFFEC     R    3528  3532   3537   3542   3547   3552   3882   3882
 CPGFLG10      1 0000047D FFFFFFEC     R    3765  3769   3774   3779   3784   3789   3794
 CPGFLG11      1 0000047E FFFFFFEC     R    3800  3804   3809
 CPGFLG12      1 0000047F FFFFFFEC     R    3815  3819   3824   3829
 CPGFLG13      1 00000480 FFFFFFEC     R    3835  3839
 CPGFLG14      1 00000481 FFFFFFEC     R    3845  3849   3854   3859   3864   3869
 CPGFLG4       1 00000477 FFFFFFEC     R    3581  3592   3601   3610   3619   3628
 CPGFLG5       1 00000478 FFFFFFEC     R    3634  3638   3643   3648   3653   3658   3663   3668   3673
 CPGFLG6       1 00000479 FFFFFFEC     R    3679  3683   3688   3693
 CPGFLG7       1 0000047A FFFFFFEC     R    3699  3703   3708   3713   3718
 CPGFLG8       1 0000047B FFFFFFEC     R    3724  3728   3733   3738   3743
 CPGFLG9       1 0000047C FFFFFFEC     R    3749  3753   3759
 CPINIT        1 00000174 FFFFFFEC     U    2698  6155
 CPJESFLG      1 000009E1 FFFFFFEC     R    4430  4434   4439   4444   4449   4454   4459   4464   4469
 CPJESFLY      1 000009FD FFFFFFEC     R    4480  4484   4489   4494
 CPJESHFL      1 000009E0 FFFFFFEC     R    4415  4419   4424   4503   4503
 CPLFLG10      1 00000D59 FFFFFFEC     R    5521  5525
 CPLFLG11      1 00000D5A FFFFFFEC     R    5531  5535   5540   5545   5550
 CPLFLG12      1 00000D5B FFFFFFEC     R    5556  5560
 CPLFLG14      1 00000D5C FFFFFFEC     R    5566  5570   5575   5580   5585   5590
 CPLFLG6       1 00000D55 FFFFFFEC     R    5396  5400   5405   5410   5415   5420   5425
 CPLFLG7       1 00000D56 FFFFFFEC     R    5431  5435   5440   5445   5450   5455
 CPLFLG8       1 00000D57 FFFFFFEC     R    5461  5465   5470   5475   5480
 CPLFLG9       1 00000D58 FFFFFFEC     R    5486  5490   5495   5500   5505   5510   5515
 CPLOCALZ      1 00000C48 FFFFFFEC     U    4988  6149   6149
 CPMFLG        1 0000084F FFFFFFEC     R    4285  4289
 CPMODFLG      1 00000C78 FFFFFFEC     R    5016  5020   5025   5030   5035   5040
 CPNAMELN      1 00000010 FFFFFFEC A   U    3911  4158
 CPNEDPFX     10 00000E29 FFFFFFEC     X    5802  5803   5804
 CPNSCANP      4 0000008C FFFFFFEC     A    2571 10705  10721  11764  11771  11786  11800  12497  13502  13973  14489
                                                 15445  15451  15458  15473  15487  15592  15601  16619  17195  17202
                                                 17217  17261  17566  17577  18296
 CPNUMFLG      1 00000C79 FFFFFFEC     R    5046  5058
 CPORVCMD      1 00000140 FFFFFFEC     R    2580  2584   2589   2594   2599   2604   2609   2614   2619   2624   2624
                                                  2675   2675
 CPORVFLG      1 00000149 FFFFFFEC     R    2631  2635   2640   2645   2650   2655   2660   2665   2670
 CPORVWF       1 00000150 FFFFFFEC     R    2683  2687
 CPOSCANX      4 00000CA8 FFFFFFEC     F    5215  5282   5282
 CPR          11 0000000B 00000001 A   #    1086  1161U
 CPRACBAD     16 000001FC FFFFFFEC         2749  2783   2783   2784   2784
 CPRACF1       1 000001FC FFFFFFEC     R    2730  2734   2739   2744   2749   2754   2759   2764   2769   2785
 CPRACPSW     32 000001FC FFFFFFEC         2744  2782   2782   2784   2784
 CPRACUND     64 000001FC FFFFFFEC         2739  2782   2782   2783   2783
 CPRCVCUR      4 00000730 FFFFFFEC     A    4066  4068   4068
 CPRFLG        1 000008AA FFFFFFEC     R    4356  4360   4365   4370   4375   4380   4385
 CPS         254 00000344 FFFFFFEC     X    3500  3503   3504   3506   3506
 CPSACCT       5 000003B4 FFFFFFEC     C    3099  3262   3262   9134M  9134  18623
 CPSAMCOD      1 00000A22 FFFFFFEC     R    4552  4560   4570   4580   4589   4598   4607   4617   4626   4635
 CPSAMFLG      1 00000A21 FFFFFFEC     R    4512  4516   4521   4526   4531   4536   4541   4546   4657   4657
 CPSCNFLG      1 00000CD0 FFFFFFEC     R    5228  5239   5248   5259
 CPSCNF2       1 00000CD1 FFFFFFEC     R    5264  5268
 CPSCNMAX      1 00000014 FFFFFFEC A   U    5280  5281
 CPSCRI        2 00000434 FFFFFFEC     H    3489  3494   3494
 CPSEG        60 00000050 FFFFFFEC     X    2569  9215   9246   9275   9293   9321   9344   9586   9631   9704   9739
1TINT     (TINT2047) (12:57) (15MAR04) Ordinary Symbol and Literal Cross Reference                                          Page  100
                                                  9764   9782   9806   9824   9849   9867   9892  10039  10067  10309
                                                 10337  11151  11181  11213  11235  11290  11318M 11425  11521  11873
                                                 11896  11926  11944M 11966  11991  12016  12041  12122  12153  12178
                                                 12225  12883  12913  12948  12970  12993  13049  13077M 13184  13280
                                                 13718  13798  13825  14116  14134  14162  14234  14314  14341  14858
                                                 14951  14978  15119  15212  15230  15272  15299  16054  16140  16158
                                                 16250  16336  16354  16396  16414  16785  16813  16841  16869  17357
                                                 17866  17906  17940  17978  18006  18024  18052  18095  18139  18161
                                                 18575  18605  18666  18694  18712  18740  18758  19256  19295  19316
                                                 19338  19357  19385  19403  19431  19466  19494  19523  19548  19595
                                                 19623  19673  19694  19712  19740  19758  19786  19804  19998  20065
                                                 20580  20611  20648  20698  20731  20758  20781  20812  20830  20854
                                                 20922  20950  20980  21035  21080  21098  21128  21169  21219  21253
                                                 21283  21301  21336  21358  21411  21495  21519  21537  21565  21583
                                                 21608  21633  21664  21766  21821  22053  22083  22151  22179  22209
                                                 22262  22307  22325  22355  22396  22446  22479  22531  22566  22610
                                                 22663  22796  22878  23021  23039  23268  23286  23338  23356  23408
                                                 23426  23478  23496  23548  23566  23618  23636  23688  23706  23759
                                                 23777  23829  23847  23900  23935  23982  24025  24072  24181  24216
                                                 24268  24286  24338  24360  24395  24439  24461  24513  24535  24587
                                                 24605  24657  24675  24727  24759  24795  24847
 CPSEGCOD      1 00000050 FFFFFFEC     R    2486  2495   2505   2515   2525   2535   2545   2555
 CPSEGLENF
               4 0000005C FFFFFFEC     A    2561  9422
 CPSEGLOC      4 00000070 FFFFFFEC     A    2565  9428
 CPSEGRTN      4 00000074 FFFFFFEC     A    2566 11240M 11901M 12998M
 CPSFL         1 00000384 FFFFFFEC     R    2837  2841   2846   2851   2856   2861
 CPSFLG        1 000003F8 FFFFFFEC     R    3377  3381   3386   3391   3396   3401   3406   3411   3416
 CPSFLG2       1 000003F9 FFFFFFEC     R    3422  3426   3431   3436
 CPSFL2        1 00000385 FFFFFFEC     R    2867  2871   2876   2881   2886
 CPSFL3        1 00000386 FFFFFFEC     R    2892  2896   2901   2906
 CPSFL4        1 00000387 FFFFFFEC     R    2912  2916   2921   2926
 CPSFL5        1 00000388 FFFFFFEC     R    2932  2936   2941   2946
 CPSFOPR      16 000003BE FFFFFFEC         3207 13479  13950  14466  15427  16595  16595  16596  17183  18553
 CPSFSPR      32 000003BE FFFFFFEC         3202 16595  16595  21372  21692  22624  22964
 CPSGRP        2 000003B7 FFFFFFEC     C    3101  9262   9267  19128  19133  19372  19377
 CPSIB       256 00000344 FFFFFFEC     X    3506  9327
 CPSID         4 00000344 FFFFFFEC     F    2824 18509
 CPSKAFL       1 000003BF FFFFFFEC     R    3233  3237   3242   3247   3252   3257
 CPSKIFL       1 000003BE FFFFFFEC     R    3188  3192   3197   3202   3207   3212   3217   3222   3227
 CPSNAME      20 000003C6 FFFFFFEC     C    3269 19446M 19446  19481  19486
 CPSNO         2 00000348 FFFFFFEC     H    2825 19089  19326
 CPSOF         1 000001F8 FFFFFFEC     X    2720  2722   2722
 CPSOFLAG      1 00000416 FFFFFFEC     R    3447  3451   3456   3461   3466   3471
 CPSOPST       4 000003C4 FFFFFFEC     F    3267  3496   3496
 CPSPORT       8 00000354 FFFFFFEC     C    2831  2951   2951
 CPSQFLG       1 000003EC FFFFFFEC     R    3296  3300
 CPSSFLG       1 000003BB FFFFFFEC     R    3106  3110   3115   3120   3125   3130   3135
 CPSSTART      4 00000344 FFFFFFEC     F    2823  2827   2827   3263   3263   3368   3368   3500   3500
 CPSSTAT       1 0000038F FFFFFFEC     R    3043  3047   3052   3057   3062   3067   3072   3077
 CPSTACF       1 000003BC FFFFFFEC     R    3141  3145   3150   3155   3160   3165   3170   3175   3180
 CPSTART       4 00000000 FFFFFFEC     C    2459  6153   6157
 CPSTCONS      1 0000038C FFFFFFEC         2965 18948  19654
 CPSTFLAG      1 000003EA FFFFFFEC     R    3274  3278   3283   3288
 CPSTYPE       1 0000038C FFFFFFEC     R    2956  2965   2975   2985   2995   3005   3015   3025   3035
 CPSUFLG       1 000003EE FFFFFFEC     R    3311  3315   3320   3325   3330   3335   3340   3345   3350
 CPSUFLG2      1 000003EF FFFFFFEC     R    3356  3360   3365
 CPSUSER       3 000003B4 FFFFFFEC     C    3100  9308   9313  19168  19173  19418  19423
 CPSVPGM       8 0000039C FFFFFFEC     C    3089  3095   3095
1TINT     (TINT2047) (12:57) (15MAR04) Ordinary Symbol and Literal Cross Reference                                          Page  101
 CPS1ST        4 0000038C FFFFFFEC     F    2953  3498   3498
 CPTEMPP#      1 0000005F FFFFFFEC A   U    4406  4408
 CPTRMFL1      1 00000C7A FFFFFFEC     R    5064  5068   5073   5078   5202   5202
 CPTRMFL2      1 00000C7B FFFFFFEC     R    5084  5088   5093   5098   5103   5108   5113
 CPTRMFL3      1 00000C7C FFFFFFEC     R    5119  5123   5128   5133   5138   5143   5148   5153
 CPTRMFL4      1 00000C7D FFFFFFEC     R    5159  5163   5168   5173   5178   5183   5188   5193
 CPUSED        1 00000FBC FFFFFFEC A   U    6153  6154
 CPVACURS      8 00000AF0 FFFFFFEC     D    4931  4932   4933
 CPVCURS       8 00000AE0 FFFFFFEC     D    4925  4926   4927
 CPVFLAG       1 00000AC8 FFFFFFEC     R    4726  4730   4735   4740   4745   4750
 CPVFLAG2      1 00000AC9 FFFFFFEC     R    4756  4760   4765   4770   4775   4780   4785
 CPVFLAG3      1 00000ACA FFFFFFEC     R    4791  4795   4800   4805   4810   4815   4820
 CPVFLAG4      1 00000ACB FFFFFFEC     R    4826  4830   4835   4840
 CPVLFLAG      1 00000ACE FFFFFFEC     R    4895  4899   4904   4909
 CPVMODE       1 00000ACC FFFFFFEC     R    4848  4852   4857   4862   4867   4872   4877   4882   4887
 CPVTWID       2 00000AD0 FFFFFFEC     H    4915  4918   4918
 CPWK1         4 00000D60 FFFFFFEC     F    5599  5614   5637
 CPWK2         4 00000D64 FFFFFFEC     F    5600  5615   5629
 CPWK3         4 00000D68 FFFFFFEC     F    5601  5616   5630
 CPWK4         4 00000D6C FFFFFFEC     F    5602  5617   5631
 CPWK5         4 00000D70 FFFFFFEC     F    5603  5619   5624   5632
 CPWK6         4 00000D74 FFFFFFEC     F    5604  5620   5625   5633   5640   5642
 CPWK7         4 00000D78 FFFFFFEC     F    5605  5618   5634
 CPXFLAG       1 000007FD FFFFFFEC     R    4193  4197
 CPXSTATE      4 000007F8 FFFFFFEC     F    4187  4200   4200
 CTLPDIE       1 0000006C FFFFFFE6 A   U    6880 15699
 CTLPKILL      1 00000067 FFFFFFE6 A   U    6875 19635
 CTLPSETD      1 0000006A FFFFFFE6 A   U    6878 13740  14256  14880  15141  16076  16272
 CTLPSETO      1 00000066 FFFFFFE6 A   U    6874 16881
 CTLSNSD       1 00000005 FFFFFFE6 A   U    6865 11313  13072
 CTLSNSMD      1 0000000A FFFFFFE6 A   U    6870 11939
 CTLSNSS       1 00000006 FFFFFFE6 A   U    6866  9598  10079  10349
 CTRCCLCK      8 00000000 FFFFFFE2     D    7452  7457   7457   7459
 CTRCDATA      1 00000012 FFFFFFE2     U    7462  7465
 CV         4016 00000000 FFFFFFEE     J    2362  1170U
 CVABORT       4 000007DA FFFFFFEE     I    2141  9897B 10736B 11196B 12512B 12953B 15304B 16163B 16634B 17592B 18166B
                                                 18311B 19809B 20043B 20070B 21713B 21798B 21826B 22773B 22801B 24824B
                                                 24852B
 CVABSRTN      4 0000088C FFFFFFEE     V    2176  2151
 CVABTMSG      4 000007CC FFFFFFEE     I    2136 15509B 17368B 17422B 20145B 20238B 20326B 20414B 21906B
 CVBLANKS    235 000004D8 FFFFFFEE     C    1956  9727  11166  12898  17500  20596  20898  20965  21649  22068  22194
                                                 23006
 CVBRMSK       1 00000751 FFFFFFEE     X    2092  2093   2094
 CVCFLAG       1 00000A00 FFFFFFEE     R    2257  2261   2266   2271   2276   2281
 CVCHKST       8 000009F0 FFFFFFEE     D    2247  2337   2337
 CVCHKST2      8 00000E28 FFFFFFEE     D    2340  2343   2343
 CVCOMRTN      4 0000087C FFFFFFEE     V    2172  2142
 CVDBGFLG      1 000004CC FFFFFFEE     R    1946  1950
 CVENT         4 0000074C FFFFFFEE     I    2090  9076B  9398B  9520B  9981B 10251B 10630B 10888B 10954B 11061B 11722B
                                                 12420B 12651B 12720B 12793B 13440B 13581B 13911B 14052B 14427B 14570B
                                                 14726B 15388B 15671B 15757B 15947B 16552B 16680B 17089B 17657B 17795B
                                                 18252B 18399B 18893B 19933B 20118B 20211B 20299B 20387B 20475B 21879B
                                                 21954B 22842B 23172B
 CVENTBR       2 00000750 FFFFFFEE     I    2091  2092
 CVERRMSG      4 000007C8 FFFFFFEE     I    2135 11822B 17250B
 CVERROR       4 000007D6 FFFFFFEE     I    2140  2156B
 CVEXIRTN      4 0000077C FFFFFFEE     V    2120  2116
 CVFCHRKBPR
               8 000004C9 FFFFFFEE         1861  1877   1877
1TINT     (TINT2047) (12:57) (15MAR04) Ordinary Symbol and Literal Cross Reference                                          Page  102
 CVFCHRKBSE
               4 000004C9 FFFFFFEE         1866  1877   1877
 CVFCHRKCPR
               2 000004C9 FFFFFFEE         1883  1899   1899
 CVFCHRKCSE
               1 000004C9 FFFFFFEE         1888  1899   1899
 CVFCHRUBPR
             128 000004C9 FFFFFFEE         1817  1833   1833
 CVFCHRUBSE
              64 000004C9 FFFFFFEE         1822  1833   1833
 CVFCHRUCPR
              32 000004C9 FFFFFFEE         1839  1855   1855
 CVFCHRUCSE
              16 000004C9 FFFFFFEE         1844  1855   1855
 CVFL          1 000004C4 FFFFFFEE     R    1613  1617   1622   1627   1632   1637   1642   1647   1652
 CVFL2         1 000004C5 FFFFFFEE     R    1658  1662   1667   1672   1677   1682   1687   1692   1697
 CVFL3         1 000004C6 FFFFFFEE     R    1703  1707   1712   1717   1722   1727   1732   1737   1742
 CVFL4         1 000004C7 FFFFFFEE     R    1748  1752   1757   1762   1767   1772   1777   1782
 CVFL5         1 000004C8 FFFFFFEE     R    1788  1792   1797   1802   1807
 CVFL6         1 000004C9 FFFFFFEE     R    1813  1817   1822   1834   1839   1844   1856   1861   1866   1878   1883
                                                  1888   1900
 CVFTEST       2 000004C5 FFFFFFEE         1692  9115
 CVHEAP#       1 00000200 FFFFFFEE A   U    1519  1520
 CVINVRTN      4 00000888 FFFFFFEE     V    2175  2145
 CVJESFLG      1 000004CA FFFFFFEE     R    1906  1910
 CVLNKRGS      4 00000780 FFFFFFEE     F    2122  2097M  2123
 CVLNKRTN      4 000007B0 FFFFFFEE     U    2123  2112M
 CVLOCK1       1 00000088 FFFFFFEE     R    1264  1268   1273
 CVLOCK2       1 00000089 FFFFFFEE     R    1278  1282
 CVLOCK3       1 0000008A FFFFFFEE     R    1287  1291
 CVLOCK4       1 0000008B FFFFFFEE     R    1296  1300
 CVLOGMOD      1 00000068 FFFFFFEE     R    1251  1255
 CVMACH        1 00000067 FFFFFFEE     R    1211  1215   1220   1225   1230   1235   1240   1245
 CVMILERR      4 000007F6 FFFFFFEE     I    2154  9604B 11319B 11945B 13078B 15704B 16914B 19640B
 CVMILRTN      4 00000884 FFFFFFEE     V    2174  2154
 CVMSG       235 00000A1C FFFFFFEE     X    2317 17409M 17409  17435  17440
 CVMSGCK       4 00000A18 FFFFFFEE     F    2316 17441
 CVNEXT        4 000007DE FFFFFFEE     I    2142  9603B 10786B 12234B 12562B 13517B 13528B 13988B 13999B 14504B 14512B
                                                 15616B 15624B 15705B 16645B 17600B 18319B
 CVNOARTN      4 00000890 FFFFFFEE     V    2177  2148
 CVNVALID      4 000007E4 FFFFFFEE     I    2145 11843B 11858B 13482B 13953B 14469B 16599B 17186B
 CVNWDATE      4 00000608 FFFFFFEE     F    1979  1983   1983
 CVNWMPG#      1 00000008 FFFFFFEE A   U    1981  1982
 CVPFXRTN      1 00000000 00000000 A   T    2120  2120
 CVPGFLAG      1 00000A01 FFFFFFEE     R    2287  2291   2296   2301
 CVPIOSZ       1 00004F80 FFFFFFEE A   U    1350  1352
 CVPPDBQH      4 0000009C FFFFFFEE     A    1308  1309
 CVPSFNO       1 000003E9 FFFFFFEE A   N    1472  1474
 CVPSLNO       1 000007CF FFFFFFEE A   N    1473  1474
 CVPXSZ        1 00000008 FFFFFFEE A   U    1351  1352
 CVR          12 0000000C 00000001 A   #    1099  1170U
 CVRKEY        1 00000008 FFFFFFEE A   U    2045  2046
 CVSEGRTN      4 00000880 FFFFFFEE     V    2173  2137
 CVSTACK#      1 00000080 FFFFFFEE A   U    1511  1512
 CVSTART       4 00000000 FFFFFFEE     C    1184  2355
 CVTRC         4 00000768 FFFFFFEE     I    2112  2098B
 CVTRCRTN      4 00000778 FFFFFFEE     V    2119  2113
 CVUSFNO       1 00000001 FFFFFFEE A   N    1479  1481
 CVUSLNO       1 000003E7 FFFFFFEE A   N    1480  1481
1TINT     (TINT2047) (12:57) (15MAR04) Ordinary Symbol and Literal Cross Reference                                          Page  103
 CVVOL#        1 00000005 FFFFFFEE A   U    2330  2331
 CVWTOFLG      1 000004CB FFFFFFEE     R    1916  1920   1925   1930   1935   1940
 CVWTOFNOPFX
              64 000004CB FFFFFFEE         1925 19189M
 CVWTOFUPFX
              32 000004CB FFFFFFEE         1930 19197  19197  19198M 19230  19230  19231M
 CVWTOFWTL
             128 000004CB FFFFFFEE         1920 19197  19197  19230  19230
 CVWTOSGP      4 00000748 FFFFFFEE     V    2079 18968  18986  19001  19026  19041  19066  19081  19099  19114  19139
                                                 19154  19179  19217
 DEBUGSG       1 00000000 00000000 A   T    2073  2073
 DEFTRC        2 00002070 00000001     H   19919 13333  13334
 DEV          12 00000000 FFFFFFEB     J    4711  4719
 DEVMAX#       1 00000002 FFFFFFEC A   U    4662  4719
 DEVTYPE       1 00000001 FFFFFFEB     R    4679  4688   4698
 DOTTBL        1 00000000 00000000 A   T    2189  2189
 DRENCFLG      1 00000F9F FFFFFFEC     R    6117  6121   6126   6131   6136   6141
 DRENPROT      1 00000F9E FFFFFFEC     R    6104  6112
 DSNON        40 00000E90 FFFFFFEC     C    5837  5838
 DSNWADSN     44 00000E5C FFFFFFEC     C    5824  5825   5826   5827   5836   5844   6075   6081   6083   6089   6092
                                                  6094   6097   6146
 DSNWAF4       1 00000F37 FFFFFFEC     R    5892  5896   5901   5906   5911   5916   5921   5926   5931
 DSNWAF5       1 00000F38 FFFFFFEC     R    5937  5941   5946   5951   5956   5961   5966   5971   5976
 DSNWAF6       1 00000F39 FFFFFFEC     R    5982  5986   5991   5996   6001   6006   6011   6016   6021
 DSNWAF7       1 00000F3A FFFFFFEC     R    6027  6031   6036   6041   6046
 DSNXG         1 00000004 FFFFFFEC A   U    5829  5831
 DSNXGL        1 00000003 FFFFFFEC A   U    5830  5831
 DSNXU         1 00000007 FFFFFFEC A   U    5831  5833
 DSNXUL        1 00000004 FFFFFFEC A   U    5832  5833
 DSSIZ         1 00000108 FFFFFFEC A   U    6075  6083   6092   6097
 EBCTBL        1 00000000 00000000 A   T    2185  2185
 EBCTBL7       1 00000000 00000000 A   T    2188  2188
 ECBLIST       1 00000000 00000000 A   T    2048  2048
 ECUTRC        2 00002156 00000001     H   20197 13342
 ELFTRC        2 0000226C 00000001     H   20461 13340
 EPARTBL       1 00000000 00000000 A   T    2180  2180
 FDBCSNSF      1 00000001 00000001 A   U    7318 11267
 FDBCSNSP      1 00000002 00000001 A   U    7319 13025
 FDBF          4 00000000 FFFFFFE3     F    7401  7404   7409   7409   7412   7420   7420   7423   7424   7424   7427
                                                  7428   7428
 FDBFFLEN      2 0000000A FFFFFFE3     H    7407 11336
 FDBFFTNO      2 00000008 FFFFFFE3     H    7406 11337
 FDBFFTRC      1 0000000C FFFFFFE3     X    7408 11338
 FDBFPLEN      2 0000000E FFFFFFE3     H    7418 13095
 FDBFPTNO      2 0000000C FFFFFFE3     H    7417 13096
 FDBFPTRC      1 00000010 FFFFFFE3     X    7419 13097
 FDBF1        12 00000000 FFFFFFE3     X    7409 11331U
 FDBF2        16 00000000 FFFFFFE3     X    7420 13090U
 FDBPSETF      1 00000065 00000001 A   U    7322 13689  14205  14829  16025
 FDBPSETP      1 00000066 00000001 A   U    7323 15089  16220
 FDBT          4 00000000 FFFFFFE3     F    7335  7344   7344   7349   7349   7377   7377   7397   7397   7400
 FDBTDATA      1 00000004 FFFFFFE3     U    7340  7343   7347   7352   7380
 FDBTDNO       1 00000002 FFFFFFE3     X    7338 11267M 13025M 13689M 14205M 14829M 15089M 16025M 16220M
 FDBTFCLS     16 00000004 FFFFFFE3         7374 14211M
 FDBTFE        2 00000000 FFFFFFE3     H    7337 11266M 13024M 13688M 14204M 14828M 15088M 16024M 16219M
 FDBTFOPN     32 00000004 FFFFFFE3         7369 13695M
 FDBTFSTP     64 00000004 FFFFFFE3         7364 16031M
 FDBTFSTR    128 00000004 FFFFFFE3         7359 14835M
 FDBTPSTP     64 00000006 FFFFFFE3         7394 16227M
1TINT     (TINT2047) (12:57) (15MAR04) Ordinary Symbol and Literal Cross Reference                                          Page  104
 FDBTPSTR    128 00000006 FFFFFFE3         7389 15096M
 FDBT1         4 00000000 FFFFFFE3     X    7344 11244  11254U 11265M 11265  11282  13382
 FDBT101       5 00000000 FFFFFFE3     X    7377 13666  13676U 13687M 13687  13710  14182  14192U 14203M 14203  14226
                                                 14806  14816U 14827M 14827  14850  16002  16012U 16023M 16023  16046
                                                 16489
 FDBT101F      1 00000004 FFFFFFE3     R    7355  7359   7364   7369   7374
 FDBT102       7 00000000 FFFFFFE3     X    7397 15066  15076U 15087M 15087  15111  16197  16207U 16218M 16218  16242
                                                 16491
 FDBT102F      1 00000006 FFFFFFE3     R    7385  7389   7394
 FDBT102P      2 00000004 FFFFFFE3     H    7381 15090M 16221M
 FDBT2         6 00000000 FFFFFFE3     X    7349 13002  13012U 13023M 13023  13041  13385
 FDBT2P        2 00000004 FFFFFFE3     H    7348 13026M
 FMTRCLCK      1 00000000 00000009     T   10200 10200  19869
 FMTTIME       1 00000000 00000013     T   13366 13366  19881
 FSB         144 00000000 FFFFFFE4     J    7308  9012  11091U 11191  13610U 14081U 14620U 14775U 15807U 15996U
 FSBFCLS     128 00000069 FFFFFFE4         7273 13647  15820
 FSBFDET      64 00000069 FFFFFFE4         7278 13622  14788
 FSBFEBP       4 00000004 FFFFFFE4     A    7236 11113
 FSBID         2 00000000 FFFFFFE4     H    7127 11266  13688  14204  14828  16024
 FSBNAME       8 0000000C FFFFFFE4     C    7241 13785  13790  14149  14154  14301  14306  14922  14927  16111  16116
 FSBPFLG       1 00000068 FFFFFFE4     R    7249  7253   7258   7263
 FSBPFLG2      1 00000069 FFFFFFE4     R    7269  7273   7278   7283
 FSBSCUR       2 00000078 FFFFFFE4     H    7294 14086
 FSBTMAX       9 00000002 FFFFFFE4         7230 13345  13345  13368
 FSBTYPE       1 00000002 FFFFFFE4     R    7131  7140   7150   7160   7170   7180   7190   7200   7210   7220   7230
                                                 11448
 FSBUC         2 00000008 FFFFFFE4     H    7238  7301   7301
 FSR           0 00000000 00000001 A   #    1009  9070   9373M  9393   9486M  9514   9920M  9975  10178M 10245  10449M
                                                 10625  10802M 10883  10929M 10949  10995M 11056  11549M 11716  12254M
                                                 12414  12646  12695M 12715  12761M 12788  13308M 13434  13549M 13576
                                                 13851M 13905  14020M 14047  14367M 14421  14533M 14565  14693M 14721
                                                 15336M 15382  15644M 15666  15720M 15752  15914M 15942  16450M 16546
                                                 16675  16940M 17083  17621M 17652  17755M 17790  18185M 18246  18340M
                                                 18393  18840M 18887  19839M 19928  20085M 20113  20160M 20206  20253M
                                                 20294  20341M 20382  20429M 20470  21846M 21874  21921M 21949  22816M
                                                 22837  23069M 23167  24867M
 GETRPRT       4 00000598 00000001     F   11007 16468  19857
 GETRPSH       1 00000000 0000000D     T   10853 10853  11019  12616
 GETTRNG       1 00000000 0000000E     T   13359 13359  16469  19858
 HEXFMT        1 00000000 00000025     T   20175 20175  23105  24890
 HIBAL         1 00000000 FFFFFFFF     J     691   707    720    733    746    759    772    785    798    811    824
                                                   837    850    863    876    889    902
 INVALID       1 00000000 00000000 A   T    2175  2175
 JCBAFL        1 00000062 FFFFFFE9     R    6423  6427   6432   6437   6442   6447   6452   6457   6462
 JCBBFL        1 00000063 FFFFFFE9     R    6468  6472   6477   6482   6487   6492   6497   6502
 JCBBILLX      8 00000088 FFFFFFE9     D    6553  6561   6561
 JCBRSCF1      1 00000064 FFFFFFE9     R    6508  6512   6517   6522
 JCBSFLG1      1 00000065 FFFFFFE9     R    6528  6532   6537
 JCBWFL        1 00000060 FFFFFFE9     R    6352  6356   6361   6366   6371   6376   6381   6386   6391   6419
 JCBWWFL       1 00000061 FFFFFFE9     R    6397  6401   6406   6411   6416
 KILL          2 00001A94 00000001     H   18236 18232
 KILLRNG     666 00000000 FFFFFFCB     X   18219 18306
 KILLRTN       2 00001C32 00000001     H   18877 18314
 KILLSEL       2 00001B00 00000001     H   18383 18313
 KILLWA      666 00000000 FFFFFFCB     J   18226 18249  18278U 18289M 18289  18290M 18290  18291M 18291  18340  18342
                                                 18343
 KRSIB       254 00000000 FFFFFFC9     X   18862 18923M 18924
 KRWA        254 00000000 FFFFFFC9     J   18869 18890  18919U 19839  19841  19842
 KSKWR       504 00000102 FFFFFFCA     X   18368 18764
1TINT     (TINT2047) (12:57) (15MAR04) Ordinary Symbol and Literal Cross Reference                                          Page  105
 KSSIB       254 00000004 FFFFFFCA     X   18367 18440M 18441
 KSSPTR        4 00000000 FFFFFFCA     A   18366 18439M 18814
 KSWA        762 00000000 FFFFFFCA     J   18375 18396  18425U 18435M 18435  18436M 18436  18437M 18437  18840  18842
                                                 18843
 KWR         504 00000000 FFFFFFE5     J    7111 18368  18774U
 KWRACCT       5 00000000 FFFFFFE5     X    6920 18780M
 KWRDSTRT      1 00000005 FFFFFFE5     U    6922  7084   7084
 KWRSTART      4 00000000 FFFFFFE5     F    6917  7098
 KWRUSER       3 00000000 FFFFFFE5     C    6918  6920   6920
 LGSESSLL      1 00000008 FFFFFFD6     X    9037  9166M  9238
 LGSESSWA      9 00000000 FFFFFFD6     J    9044  9073   9102U  9373   9375   9376
 LGSESSWL      8 00000000 FFFFFFD6     C    9036  9193M  9230  10192
 LINEDISP      1 00000000 00000005     T   10196 10196  19877
 LOCALTOD      1 00000000 00000008     T   10199 10199  19867
 LOGSESS       2 00000018 00000001     H    9060  9056
 LOGSEXIT      2 000000CE 00000001     H    9356  9118B  9137B
 LOGSWTO       2 000000DC 00000001     H    9384  9333B
 LOWTBL        1 00000000 00000000 A   T    2183  2183
 LRTRIM        1 00000000 0000001E     T   16480 16480
 LSR           8 00000008 00000001 A   #    1047  9070   9373M  9393   9486M  9514   9920M  9975  10178M 10245  10449M
                                                 10625  10802M 10883  10929M 10949  10995M 11056  11549M 11716  12254M
                                                 12414  12646  12695M 12715  12761M 12788  13308M 13434  13549M 13576
                                                 13851M 13905  14020M 14047  14367M 14421  14533M 14565  14693M 14721
                                                 15336M 15382  15644M 15666  15720M 15752  15914M 15942  16450M 16546
                                                 16675  16940M 17083  17621M 17652  17755M 17790  18185M 18246  18340M
                                                 18393  18840M 18887  19839M 19928  20085M 20113  20160M 20206  20253M
                                                 20294  20341M 20382  20429M 20470  21846M 21874  21921M 21949  22816M
                                                 22837  23069M 23167  24867M
 MCLOSE        2 00000E38 00000001     H   13895 13891
 MCLSRNG     666 00000000 FFFFFFD0     X   13878 13983
 MCLSWA      666 00000000 FFFFFFD0     J   13885 13908  13937U 13966M 13966  13967M 13967  13968M 13968  14020  14022
                                                 14023
 MDEFSOME    128 00000000 FFFFFFD3        11585 12053M 12096M 12205
 MDEVCB       60 0000000C FFFFFFD3     X   11681 11873M 11944
 MDEVCBCOD
               1 0000000C FFFFFFD3     R   11598 11607  11617  11627  11637  11647  11657  11667
 MDEVCBRTN
               4 00000030 FFFFFFD3     A   11678 11901
 MDEVFLAG      1 00000000 FFFFFFD3     R   11581 11585  11682  11682
 MDEVINIT     72 00000000 FFFFFFD3     X   11682 11758M 11758
 MDEVTLEN      2 0000000A FFFFFFD3     H   11592 11948M 12184
 MDEVTNO       2 00000008 FFFFFFD3     H   11591 11947M 12067M 12067  12187  12189M
 MDEVTRC    1024 00000048 FFFFFFD3     X   11685 11883  11888  11947  11948  11949
 MDEVUNIT      4 00000004 FFFFFFD3     F   11589 11864M 11913  11918  11976
 MDEVWA     1096 00000000 FFFFFFD3     J   11693 11719  11748U 12254  12256  12257
 MIBFLAG       1 00000064 FFFFFFE8     R    6606  6610
 MIBSTART      8 00000000 FFFFFFE8     D    6597  6651   6651
 MILERR        1 00000000 0000001B     T    2174  2174  16473
 MIXFMT        1 00000000 00000026     T   23102 23102
 MOPEN         2 00000CF4 00000001     H   13424 13420
 MOPNRNG     666 00000000 FFFFFFD1     X   13407 13512
 MOPNWA      666 00000000 FFFFFFD1     J   13414 13437  13466U 13495M 13495  13496M 13496  13497M 13497  13549  13551
                                                 13552
 MTOKEN        1 00000000 0000000C     T   10822 10822  10837  12585  12600
 NBLTBL        1 00000000 00000000 A   T    2187  2187
 NETPDISP      1 00000000 00000011     T   13363 13363
 NOACTION      1 00000000 00000000 A   T    2177  2177
 NPARTBL       1 00000000 00000000 A   T    2181  2181
 NSCAN         1 00000000 00000015     T   13370 13370  16484  19865
1TINT     (TINT2047) (12:57) (15MAR04) Ordinary Symbol and Literal Cross Reference                                          Page  106
 NSCNCB      176 00000000 FFFFFFED     J    2446  2572  10706M 10707M 10722M 11772  11773  11774  11777M 11778M 11779M
                                                 11789M 11790M 11791M 11801  12498M 13503M 13974M 14490M 15446  15448
                                                 15459  15460  15461  15464M 15465M 15466M 15476M 15477M 15478M 15488
                                                 15595  15602M 16494  16620M 17203  17204  17205  17208M 17209M 17210M
                                                 17220M 17221M 17222M 17262  17263  17567M 17568M 17578M 18297M
 NSCNFLGS      1 00000008 FFFFFFED     R    2383  2387   2392
 NSCNKWS       4 00000028 FFFFFFED     A    2432 10722  10722M 11772  11779M 11789M 12498  12498M 13503  13503M 13974
                                                 13974M 14490  14490M 15459  15466M 15476M 15602  15602M 16620  16620M
                                                 17203  17210M 17220M 17578  17578M 18297  18297M
 NSCNLEN       4 00000004 FFFFFFED     F    2380 10707M 17263  17568M
 NSCNLOC       4 00000000 FFFFFFED     A    2379 10706M 17262  17567M
 NSCNSKIP      4 00000024 FFFFFFED     A    2431 11773  11777M 11790M 15460  15464M 15477M 17204  17208M 17221M
 NSCNSTOP      4 00000020 FFFFFFED     A    2430 11774  11778M 11791M 15461  15465M 15478M 17205  17209M 17222M
 NSCNTOK      16 00000030 FFFFFFED     C    2434 11801  15488
 NSCNTYPE      1 00000018 FFFFFFED     R    2401  2405   2410   2415   2420   2425
 NSCTRC        2 000020EC 00000001     H   20104 13339
 OPENERR       4 00000DFA 00000001     I   13773 13633B 13658B
 OPENRTN       2 00000D66 00000001     H   13567 13523
 OPENX         2 00000E2A 00000001     H   13839 13745B 13762B
 OPERRTN       2 00001696 00000001     H   16666 16640
 ORVCPASS      1 00000000 00000020     T   19863 19863
 PDBBYT1       1 0000000E FFFFFFE6     X    6739  6771
 PDBBYT2       1 0000000F FFFFFFE6     X    6740  6777
 PDBCMDFL      1 00000007 FFFFFFE6     X    6727  6763   6763   6769
 PDBHDR       56 00000000 FFFFFFE6     X    6764 23116  23117
 PDBINCT       2 00000030 FFFFFFE6     H    6757  6761   6761
 PDBSINP       4 00000010 FFFFFFE6     A    6742  6743
 PDBSTRT       4 00000000 FFFFFFE6     F    6719  6764   6764
 PDBVPGM       8 00000014 FFFFFFE6     C    6745  6751   6751
 PDPTRC        2 0000220E 00000001     H   20373 13336
 PORTDISP      1 00000000 0000001A     T   13378 13378
 PSB         116 00000000 FFFFFFDB     J    8101  9013  12823U 12923  14659U 15009U 15863U 16190U
 PSBFDET      64 0000004B FFFFFFDB         8054 15048
 PSBFDUM      32 0000004B FFFFFFDB         8059 15023
 PSBFEID       2 00000000 FFFFFFDB     H    7846 13024  15088  16219
 PSBFENM       8 0000000C FFFFFFDB     C    7958 15183  15188  16307  16312
 PSBFLAG       1 00000048 FFFFFFDB     R    7970  7974   7979   7984   7989   7994
 PSBFLAG2      1 00000049 FFFFFFDB     R    8000  8004   8009   8014   8019
 PSBFLAG3      1 0000004A FFFFFFDB     R    8025  8029   8034   8039
 PSBFLAG4      1 0000004B FFFFFFDB     R    8045  8049   8054   8059
 PSBFLAG5      1 0000004C FFFFFFDB     R    8065  8069   8074   8079
 PSBFSTOP    128 0000004B FFFFFFDB         8049 15876
 PSBNAME       8 00000018 FFFFFFDB     C    7964 15243  15248  16367  16372
 PSBPIBP       4 00000008 FFFFFFDB     A    7956 12845
 PSBPNO        2 00000002 FFFFFFDB     H    7847 13026  15090  16221
 PSBTMAX       9 00000004 FFFFFFDB         7950 13346  13346  13380
 PSBTTYPE      1 00000004 FFFFFFDB     R    7851  7860   7870   7880   7890   7900   7910   7920   7930   7940   7950
                                                 13207
 PSBUC         2 00000014 FFFFFFDB     H    7960  8094   8094
 PTRCCLCK      8 00000000 FFFFFFE0     D    7587  7590   7592   7592   7594
 PTRCDATA      1 00000018 FFFFFFE0     U    7597  7600   7609
 RAR          14 0000000E 00000001 A   #    1125  2112   2113M  2114B  2116M  2117B  2137M  2138B  2142M  2143B  2145M
                                                  2146B  2148M  2149B  2151M  2152B  2154M  2155M  2155B  2161   9067
                                                  9218M  9219M  9219B  9249M  9250M  9250B  9278M  9279M  9279B  9296M
                                                  9297M  9297B  9324M  9325M  9325B  9330M  9331M  9331B  9333M  9347M
                                                  9348M  9348B  9375M  9378B  9390   9488M  9491B  9511   9553M  9554M
                                                  9554B  9589M  9590M  9590B  9601M  9602M  9602B  9634M  9635M  9635B
                                                  9672M  9673M  9673B  9682M  9683M  9683B  9707M  9708M  9708B  9742M
                                                  9743M  9743B  9767M  9768M  9768B  9785M  9786M  9786B  9809M  9810M
1TINT     (TINT2047) (12:57) (15MAR04) Ordinary Symbol and Literal Cross Reference                                          Page  107
                                                  9810B  9827M  9828M  9828B  9852M  9853M  9853B  9870M  9871M  9871B
                                                  9895M  9896M  9896B  9922M  9925B  9972  10042M 10043M 10043B 10070M
                                                 10071M 10071B 10082M 10083M 10083B 10180M 10183B 10242  10312M 10313M
                                                 10313B 10340M 10341M 10341B 10352M 10353M 10353B 10451M 10454B 10622
                                                 10696M 10697M 10697B 10734M 10735M 10735B 10784M 10785M 10785B 10804M
                                                 10807B 10880  10931M 10934B 10946  10997M 11000B 11053  11130M 11131M
                                                 11131B 11154M 11155M 11155B 11184M 11185M 11185B 11194M 11195M 11195B
                                                 11238M 11239M 11239B 11293M 11294M 11294B 11316M 11317M 11317B 11404M
                                                 11405M 11405B 11428M 11429M 11429B 11448M 11461  11471M 11471  11476M
                                                 11477M 11477  11478M 11478B 11524M 11525M 11525B 11551M 11554B 11713
                                                 11782M 11783M 11783B 11796M 11797M 11797B 11841M 11842M 11842B 11868M
                                                 11869M 11869B 11899M 11900M 11900B 11929M 11930M 11930B 11942M 11943M
                                                 11943B 11969M 11970M 11970B 11994M 11995M 11995B 12019M 12020M 12020B
                                                 12044M 12045M 12045B 12101M 12102M 12102B 12125M 12126M 12126B 12156M
                                                 12157M 12157B 12181M 12182M 12182B 12228M 12229M 12229B 12256M 12259B
                                                 12411  12510M 12511M 12511B 12560M 12561M 12561B 12643  12697M 12700B
                                                 12712  12763M 12766B 12785  12862M 12863M 12863B 12886M 12887M 12887B
                                                 12916M 12917M 12917B 12926M 12927M 12927B 12951M 12952M 12952B 12996M
                                                 12997M 12997B 13052M 13053M 13053B 13075M 13076M 13076B 13163M 13164M
                                                 13164B 13187M 13188M 13188B 13207M 13220  13230M 13230  13235M 13236M
                                                 13236  13237M 13237B 13283M 13284M 13284B 13310M 13313B 13431  13515M
                                                 13516M 13516B 13526M 13527M 13527B 13551M 13554B 13573  13721M 13722M
                                                 13722B 13743M 13744M 13744B 13760M 13761M 13761B 13801M 13802M 13802B
                                                 13828M 13829M 13829B 13853M 13856B 13902  13986M 13987M 13987B 13997M
                                                 13998M 13998B 14022M 14025B 14044  14119M 14120M 14120B 14137M 14138M
                                                 14138B 14165M 14166M 14166B 14173M 14174M 14174B 14237M 14238M 14238B
                                                 14259M 14260M 14260B 14276M 14277M 14277B 14317M 14318M 14318B 14344M
                                                 14345M 14345B 14369M 14372B 14418  14502M 14503M 14503B 14510M 14511M
                                                 14511B 14535M 14538B 14562  14695M 14698B 14718  14861M 14862M 14862B
                                                 14883M 14884M 14884B 14900M 14901M 14901B 14930M 14931M 14931B 14954M
                                                 14955M 14955B 14981M 14982M 14982B 15122M 15123M 15123B 15144M 15145M
                                                 15145B 15161M 15162M 15162B 15191M 15192M 15192B 15215M 15216M 15216B
                                                 15233M 15234M 15234B 15251M 15252M 15252B 15275M 15276M 15276B 15302M
                                                 15303M 15303B 15338M 15341B 15379  15436M 15437M 15437B 15469M 15470M
                                                 15470B 15483M 15484M 15484B 15546M 15547M 15547B 15584M 15585M 15585B
                                                 15614M 15615M 15615B 15622M 15623M 15623B 15646M 15649B 15663  15702M
                                                 15703M 15703B 15722M 15725B 15749  15916M 15919B 15939  16057M 16058M
                                                 16058B 16079M 16080M 16080B 16096M 16097M 16097B 16119M 16120M 16120B
                                                 16143M 16144M 16144B 16161M 16162M 16162B 16253M 16254M 16254B 16275M
                                                 16276M 16276B 16292M 16293M 16293B 16315M 16316M 16316B 16339M 16340M
                                                 16340B 16357M 16358M 16358B 16375M 16376M 16376B 16399M 16400M 16400B
                                                 16417M 16418M 16418B 16452M 16455B 16543  16632M 16633M 16633B 16643M
                                                 16644M 16644B 16672  16788M 16789M 16789B 16816M 16817M 16817B 16844M
                                                 16845M 16845B 16872M 16873M 16873B 16884M 16885M 16885B 16942M 16945B
                                                 17080  17121M 17122M 17122B 17171M 17172M 17172B 17213M 17214M 17214B
                                                 17227M 17228M 17228B 17360M 17361M 17361B 17379M 17380M 17380B 17466M
                                                 17467M 17467B 17489M 17490M 17490B 17518M 17519M 17519B 17547M 17548M
                                                 17548B 17590M 17591M 17591B 17598M 17599M 17599B 17623M 17626B 17649
                                                 17757M 17760B 17787  17869M 17870M 17870B 17909M 17910M 17910B 17943M
                                                 17944M 17944B 17952M 17953M 17953B 17981M 17982M 17982B 18009M 18010M
                                                 18010B 18027M 18028M 18028B 18055M 18056M 18056B 18098M 18099M 18099B
                                                 18118M 18119M 18119B 18142M 18143M 18143B 18164M 18165M 18165B 18187M
                                                 18190B 18243  18309M 18310M 18310B 18317M 18318M 18318B 18342M 18345B
                                                 18390  18578M 18579M 18579B 18583M 18584M 18584B 18608M 18609M 18609B
                                                 18635M 18636M 18636B 18669M 18670M 18670B 18697M 18698M 18698B 18715M
                                                 18716M 18716B 18743M 18744M 18744B 18761M 18762M 18762B 18795M 18796M
                                                 18796B 18842M 18845B 18884  18971M 18972M 18972B 18989M 18990M 18990B
                                                 19004M 19005M 19005B 19029M 19030M 19030B 19044M 19045M 19045B 19069M
                                                 19070M 19070B 19084M 19085M 19085B 19102M 19103M 19103B 19117M 19118M
1TINT     (TINT2047) (12:57) (15MAR04) Ordinary Symbol and Literal Cross Reference                                          Page  108
                                                 19118B 19142M 19143M 19143B 19157M 19158M 19158B 19182M 19183M 19183B
                                                 19220M 19221M 19221B 19259M 19260M 19260B 19264M 19265M 19265B 19271M
                                                 19272M 19272B 19298M 19299M 19299B 19319M 19320M 19320B 19341M 19342M
                                                 19342B 19360M 19361M 19361B 19388M 19389M 19389B 19406M 19407M 19407B
                                                 19434M 19435M 19435B 19469M 19470M 19470B 19497M 19498M 19498B 19526M
                                                 19527M 19527B 19551M 19552M 19552B 19557M 19558M 19558B 19563M 19564M
                                                 19564B 19598M 19599M 19599B 19626M 19627M 19627B 19638M 19639M 19639B
                                                 19676M 19677M 19677B 19697M 19698M 19698B 19715M 19716M 19716B 19743M
                                                 19744M 19744B 19761M 19762M 19762B 19789M 19790M 19790B 19807M 19808M
                                                 19808B 19841M 19844B 19925  20001M 20002M 20002B 20041M 20042M 20042B
                                                 20068M 20069M 20069B 20087M 20090B 20110  20162M 20165B 20203  20255M
                                                 20258B 20291  20343M 20346B 20379  20431M 20434B 20467  20583M 20584M
                                                 20584B 20614M 20615M 20615B 20651M 20652M 20652B 20701M 20702M 20702B
                                                 20734M 20735M 20735B 20761M 20762M 20762B 20784M 20785M 20785B 20815M
                                                 20816M 20816B 20833M 20834M 20834B 20857M 20858M 20858B 20925M 20926M
                                                 20926B 20953M 20954M 20954B 20983M 20984M 20984B 21038M 21039M 21039B
                                                 21083M 21084M 21084B 21101M 21102M 21102B 21131M 21132M 21132B 21172M
                                                 21173M 21173B 21222M 21223M 21223B 21256M 21257M 21257B 21286M 21287M
                                                 21287B 21304M 21305M 21305B 21339M 21340M 21340B 21361M 21362M 21362B
                                                 21414M 21415M 21415B 21451M 21452M 21452B 21498M 21499M 21499B 21522M
                                                 21523M 21523B 21540M 21541M 21541B 21568M 21569M 21569B 21586M 21587M
                                                 21587B 21611M 21612M 21612B 21636M 21637M 21637B 21667M 21668M 21668B
                                                 21711M 21712M 21712B 21769M 21770M 21770B 21796M 21797M 21797B 21824M
                                                 21825M 21825B 21848M 21851B 21871  21923M 21926B 21946  22056M 22057M
                                                 22057B 22086M 22087M 22087B 22103M 22130M 22131M 22131B 22154M 22155M
                                                 22155B 22182M 22183M 22183B 22212M 22213M 22213B 22265M 22266M 22266B
                                                 22310M 22311M 22311B 22328M 22329M 22329B 22358M 22359M 22359B 22399M
                                                 22400M 22400B 22449M 22450M 22450B 22482M 22483M 22483B 22510M 22511M
                                                 22511B 22534M 22535M 22535B 22569M 22570M 22570B 22589M 22590M 22590B
                                                 22613M 22614M 22614B 22666M 22667M 22667B 22703M 22704M 22704B 22747M
                                                 22771M 22772M 22772B 22799M 22800M 22800B 22818M 22821B 22834  22881M
                                                 22882M 22882B 22920M 22921M 22921B 23024M 23025M 23025B 23042M 23043M
                                                 23043B 23049M 23050M 23050B 23071M 23074B 23164  23271M 23272M 23272B
                                                 23289M 23290M 23290B 23317M 23318M 23318B 23341M 23342M 23342B 23359M
                                                 23360M 23360B 23387M 23388M 23388B 23411M 23412M 23412B 23429M 23430M
                                                 23430B 23457M 23458M 23458B 23481M 23482M 23482B 23499M 23500M 23500B
                                                 23527M 23528M 23528B 23551M 23552M 23552B 23569M 23570M 23570B 23597M
                                                 23598M 23598B 23621M 23622M 23622B 23639M 23640M 23640B 23667M 23668M
                                                 23668B 23691M 23692M 23692B 23709M 23710M 23710B 23738M 23739M 23739B
                                                 23762M 23763M 23763B 23780M 23781M 23781B 23808M 23809M 23809B 23832M
                                                 23833M 23833B 23850M 23851M 23851B 23879M 23880M 23880B 23903M 23904M
                                                 23904B 23938M 23939M 23939B 23961M 23962M 23962B 23985M 23986M 23986B
                                                 24028M 24029M 24029B 24051M 24052M 24052B 24075M 24076M 24076B 24184M
                                                 24185M 24185B 24219M 24220M 24220B 24247M 24248M 24248B 24271M 24272M
                                                 24272B 24289M 24290M 24290B 24317M 24318M 24318B 24341M 24342M 24342B
                                                 24363M 24364M 24364B 24398M 24399M 24399B 24442M 24443M 24443B 24464M
                                                 24465M 24465B 24492M 24493M 24493B 24516M 24517M 24517B 24538M 24539M
                                                 24539B 24566M 24567M 24567B 24590M 24591M 24591B 24608M 24609M 24609B
                                                 24636M 24637M 24637B 24660M 24661M 24661B 24678M 24679M 24679B 24706M
                                                 24707M 24707B 24730M 24731M 24731B 24762M 24763M 24763B 24798M 24799M
                                                 24799B 24822M 24823M 24823B 24850M 24851M 24851B 24869M 24872B
 RNE          48 00000000 FFFFFFD8     J    8902  9009
 RNEFLAG       1 00000004 FFFFFFD8     R    8877  8881   8886   8892   8892
 RNEIFLAG      1 00000001 FFFFFFD8     R    8865  8869
 RNG#          1 00000008 FFFFFFD7 A   U    9006  9009
 RNGCB       666 00000000 FFFFFFD7     J    9024 10504  10747U 12292  12523U 13407  13878  14394  15355  16519  16963
                                                 18219
 RNGFDALL    128 00000003 FFFFFFD7         8928 10717  12489
 RNGFDOUR     64 00000003 FFFFFFD7         8933 12471  16615
1TINT     (TINT2047) (12:57) (15MAR04) Ordinary Symbol and Literal Cross Reference                                          Page  109
 RNGFLAG       1 0000000C FFFFFFD7     R    8957  8961   8966   8971   8976   8981   8986
 RNGFLAG2      1 0000000D FFFFFFD7     R    8992  8996
 RNGFLIST     16 00000003 FFFFFFD7         8943 10760  10760  12536  12536
 RNGFMULT     32 00000003 FFFFFFD7         8938 10760  10760  10761M 12536  12536  12537M 14485  15597  17573  18292
 RNGFVER       8 00000003 FFFFFFD7         8948 10768M 12544M
 RNGITEMX      4 0000019C FFFFFFD7     F    9011  9012   9013   9014   9016   9016
 RNGOFLAG      1 00000003 FFFFFFD7     R    8924  8928   8933   8938   8943   8948
 RNGTFE        1 00000001 FFFFFFD7 A   U    8918 10717  11431  13498  13969  16479  20173  24887
 RNGTPORT      1 00000002 FFFFFFD7 A   U    8919 12471  12489  13190  23094  24883
 RNGTSES       1 00000003 FFFFFFD7 A   U    8920 16615  17573  18292
 RQST         18 00000000 FFFFFFE7     J    6702 22932U
 RQSTCMFL      1 00000009 FFFFFFE7     X    6679  6691   6691
 RQSTHDR      18 00000000 FFFFFFE7     X    6693 23113  23123
 RQSTLEN       2 00000000 FFFFFFE7     H    6672  6693   6693  22939
 RQSTRSV       2 00000004 FFFFFFE7     H    6675  6692   6692
 RQSTTEXT      1 00000012 FFFFFFE7     X    6695 22938
 R0            0 00000000 FFFFFFFF A   #     699  2097   2166M  9146   9238M  9267M  9285M  9313M  9425M  9426   9578M
                                                  9598M  9623M  9649M  9674   9676M  9684   9715M  9716M  9756M  9774M
                                                  9798M  9816M  9841M  9859M  9884M  9884  10059M 10079M 10329M 10349M
                                                 10703M 10707  10717M 10780M 10780  11120M 11173M 11227M 11282M 11313M
                                                 11376M 11385M 11385  11442M 11513M 11768M 11768  11777  11778  11779
                                                 11810M 11810  11821M 11888M 11918M 11939M 11958M 11983M 12008M 12008
                                                 12033M 12033  12073M 12082M 12082  12145M 12170M 12170  12217M 12471M
                                                 12489M 12556M 12556  12852M 12905M 12940M 12940  12985M 13041M 13072M
                                                 13135M 13144M 13144  13201M 13272M 13498M 13522M 13522  13632M 13657M
                                                 13710M 13740M 13770M 13773  13774  13774  13774  13790M 13805M 13969M
                                                 13993M 13993  14108M 14108  14126M 14154M 14170M 14226M 14256M 14286M
                                                 14289  14290  14290  14290  14306M 14321M 14485M 14506M 14605  14760
                                                 14798M 14850M 14880M 14910M 14912  14913  14913  14913  14927M 14958M
                                                 15033M 15058M 15111M 15141M 15171M 15173  15174  15174  15174  15188M
                                                 15222M 15248M 15279M 15455M 15455  15464  15465  15466  15497M 15497
                                                 15508M 15524M 15524  15562M 15562  15597M 15618M 15699M 15792  15981
                                                 16046M 16076M 16116M 16150M 16242M 16272M 16312M 16346M 16372M 16406M
                                                 16490  16490  16490  16615M 16639M 16639  16777M 16805M 16833M 16861M
                                                 16881M 17160M 17199M 17199  17208  17209  17210  17237M 17237  17249M
                                                 17256  17257  17257  17257  17263M 17280M 17280  17302M 17332M 17332
                                                 17367M 17375  17376  17376  17376  17381  17384M 17393M 17393  17421M
                                                 17440M 17448  17449  17449  17449  17450M 17507M 17524M 17552M 17568
                                                 17573M 17594M 17858M 17886M 17932M 17970M 17998M 18016M 18044M 18087M
                                                 18108M 18108  18153M 18292M 18313M 18567M 18597M 18597  18632M 18658M
                                                 18686M 18704M 18732M 18750M 18792M 18792  18962M 18980M 18980  18995M
                                                 19020M 19035M 19060M 19075M 19093M 19093  19108M 19133M 19148M 19173M
                                                 19211M 19211  19248M 19248  19287M 19308M 19330M 19330  19349M 19377M
                                                 19395M 19423M 19458M 19486M 19515M 19515  19540M 19540  19587M 19615M
                                                 19635M 19665M 19686M 19686  19704M 19732M 19750M 19778M 19796M 19885
                                                 19885  19885  19955  19990M 20038M 20057M 20057  20144M 20237M 20325M
                                                 20413M 20510  20534M 20556M 20603M 20640M 20690M 20723M 20750M 20750
                                                 20773M 20804M 20822M 20846M 20846  20880M 20942M 20972M 21027M 21072M
                                                 21090M 21120M 21161M 21211M 21245M 21275M 21293M 21328M 21350M 21350
                                                 21403M 21448M 21487M 21511M 21511  21529M 21557M 21575M 21600M 21625M
                                                 21625  21656M 21670M 21671M 21705  21707M 21758M 21792M 21813M 21813
                                                 21905M 21985  22007M 22029M 22075M 22101M 22120M 22171M 22201M 22254M
                                                 22299M 22317M 22347M 22388M 22438M 22471M 22500M 22558M 22579M 22579
                                                 22655M 22700M 22745M 22767M 22788M 22788  22864  22870M 22894M 22897
                                                 22909M 22939M 22951  22953M 22954M 22974M 22974  22987M 22987  22994
                                                 22995  22995  22995  23013M 23031M 23046M 23124  23124  23124  23194
                                                 23260M 23278M 23307M 23348M 23377M 23418M 23447M 23488M 23517M 23558M
                                                 23587M 23628M 23657M 23698M 23728M 23769M 23798M 23839M 23869M 23927M
                                                 23951M 24017M 24041M 24173M 24208M 24237M 24278M 24307M 24352M 24387M
1TINT     (TINT2047) (12:57) (15MAR04) Ordinary Symbol and Literal Cross Reference                                          Page  110
                                                 24431M 24453M 24482M 24527M 24556M 24597M 24626M 24667M 24696M 24751M
                                                 24787M 24818M 24819M 24839M 24839
 R1            1 00000001 FFFFFFFF A   #     712  2160M  2161M  2167M  9230M  9262M  9284M  9308M  9327M  9420M  9571M
                                                  9618M  9644M  9675   9676M  9727M  9749M  9773M  9791M  9815M  9834M
                                                  9858M 10054M 10324M 10702M 10706  10781M 11083  11127M 11166M 11191M
                                                 11223M 11243M 11254U 11376M 11438M 11512M 11764M 11777  11778  11779
                                                 11800M 11801M 11801  11820M 11883M 11913M 11957M 11976M 12073M 12138M
                                                 12216M 12557M 12815  12859M 12898M 12923M 12980M 13001M 13012U 13135M
                                                 13197M 13271M 13523M 13602  13631M 13656M 13665M 13676U 13769M 13773
                                                 13774  13774  13774  13785M 13805M 13994M 14073  14104M 14125M 14149M
                                                 14169M 14181M 14192U 14285M 14289  14290  14290  14290  14301M 14321M
                                                 14507M 14591  14747  14797M 14805M 14816U 14909M 14912  14913  14913
                                                 14913  14922M 14958M 15032M 15057M 15065M 15076U 15170M 15173  15174
                                                 15174  15174  15183M 15221M 15243M 15279M 15451M 15464  15465  15466
                                                 15487M 15488M 15488  15507M 15619M 15778  15968  16001M 16012U 16111M
                                                 16149M 16196M 16207U 16307M 16345M 16367M 16405M 16490  16490  16490
                                                 16640M 16704  16772M 16800M 16828M 16856M 17155M 17195M 17208  17209
                                                 17210  17248M 17256  17257  17257  17257  17262M 17300M 17366M 17375
                                                 17376  17376  17376  17384M 17420M 17435M 17448  17449  17449  17449
                                                 17454M 17454  17500M 17524M 17552M 17567  17595M 17678  17826  17857M
                                                 17881M 17931M 17949M 17969M 17993M 18015M 18039M 18086M 18115M 18152M
                                                 18314M 18439  18566M 18580M 18631M 18657M 18681M 18703M 18727M 18749M
                                                 18764M 18774U 18961M 18976M 18994M 19015M 19034M 19055M 19074M 19089M
                                                 19107M 19128M 19147M 19168M 19307M 19326M 19348M 19372M 19394M 19418M
                                                 19457M 19481M 19554M 19582M 19610M 19664M 19682M 19703M 19727M 19749M
                                                 19773M 19795M 19885  19885  19885  19983M 20033M 20143M 20236M 20324M
                                                 20412M 20496  20533M 20555M 20596M 20639M 20689M 20722M 20745M 20772M
                                                 20796M 20821M 20842M 20875M 20898M 20937M 20965M 21026M 21065M 21089M
                                                 21113M 21160M 21210M 21244M 21267M 21292M 21327M 21346M 21402M 21443M
                                                 21486M 21507M 21528M 21552M 21574M 21593M 21649M 21669M 21753M 21787M
                                                 21904M 21975  22006M 22028M 22068M 22096M 22127M 22166M 22194M 22253M
                                                 22292M 22316M 22340M 22387M 22437M 22470M 22507M 22557M 22586M 22654M
                                                 22695M 22740M 22762M 22863  22869M 22889M 22938M 22994  22995  22995
                                                 22995  23006M 23030M 23046M 23124  23124  23124  23193  23255M 23277M
                                                 23314M 23347M 23384M 23417M 23454M 23487M 23524M 23557M 23594M 23627M
                                                 23664M 23697M 23735M 23768M 23805M 23838M 23876M 23926M 23958M 24016M
                                                 24048M 24168M 24207M 24244M 24277M 24314M 24351M 24386M 24426M 24452M
                                                 24489M 24526M 24563M 24596M 24633M 24666M 24703M 24750M 24786M 24817M
 R12          12 0000000C FFFFFFFF A   #     855  2123
 R13          13 0000000D FFFFFFFF A   #     868 11772  11773  11774  11789  11790  11791  15446  15459  15460  15461
                                                 15476  15477  15478  17203  17204  17205  17220  17221  17222
 R14          14 0000000E FFFFFFFF A   #     881  2098M  9428M 10705M 10706  10707  10711M 10711  10721M 10722  10726M
                                                 10726  11771M 11772  11773  11774  11786M 11789  11790  11791  12497M
                                                 12498  12502M 12502  13502M 13503  13507M 13507  13973M 13974  13978M
                                                 13978  14489M 14490  14494M 14494  15445M 15446  15458M 15459  15460
                                                 15461  15473M 15476  15477  15478  15592M 15595  15601M 15602  15606M
                                                 15606  16619M 16620  16624M 16624  17202M 17203  17204  17205  17217M
                                                 17220  17221  17222  17261M 17262  17263  17267M 17267  17566M 17567
                                                 17568  17572M 17572  17577M 17578  17582M 17582  18296M 18297  18301M
                                                 18301
 R15          15 0000000F FFFFFFFF A   #     894  2097   9146M  9149   9161M  9166   9170M  9179M  9179   9186   9215M
                                                  9246M  9275M  9293M  9321M  9344M  9377M  9377   9422M  9423   9432M
                                                  9441M  9441   9448   9490M  9490   9586M  9631M  9678M  9704M  9739M
                                                  9764M  9782M  9806M  9824M  9849M  9867M  9892M  9924M  9924  10039M
                                                 10067M 10135M 10135  10158M 10182M 10182  10309M 10337M 10406M 10406
                                                 10429M 10453M 10453  10730M 10730  10731M 10747U 10806M 10806  10933M
                                                 10933  10999M 10999  11113M 11151M 11181M 11235M 11290M 11321M 11331U
                                                 11401M 11425M 11431M 11483M 11484M 11485  11521M 11553M 11553  11792M
                                                 11792  11855  11864  11896M 11926M 11966M 11991M 12016M 12041M 12098M
1TINT     (TINT2047) (12:57) (15MAR04) Ordinary Symbol and Literal Cross Reference                                          Page  111
                                                 12122M 12153M 12178M 12187M 12188M 12189  12225M 12258M 12258  12506M
                                                 12506  12507M 12523U 12699M 12699  12765M 12765  12845M 12883M 12913M
                                                 12948M 12993M 13049M 13080M 13090U 13160M 13184M 13190M 13242M 13243M
                                                 13244  13280M 13312M 13312  13511M 13511  13512M 13553M 13553  13718M
                                                 13798M 13825M 13855M 13855  13982M 13982  13983M 14024M 14024  14086M
                                                 14087M 14087  14104  14116M 14134M 14162M 14234M 14314M 14341M 14371M
                                                 14371  14498M 14498  14499M 14537M 14537  14592M 14628M 14628  14667M
                                                 14667  14697M 14697  14858M 14951M 14978M 15119M 15212M 15230M 15272M
                                                 15299M 15340M 15340  15479M 15479  15610M 15610  15611M 15648M 15648
                                                 15724M 15724  15779M 15832M 15832  15888M 15888  15918M 15918  16054M
                                                 16140M 16158M 16250M 16336M 16354M 16396M 16414M 16454M 16454  16628M
                                                 16628  16629M 16759M 16760M 16761  16785M 16813M 16841M 16869M 16911
                                                 16944M 16944  17168M 17223M 17223  17357M 17462M 17486M 17515M 17544M
                                                 17586M 17586  17587M 17625M 17625  17696M 17736M 17736  17759M 17759
                                                 17866M 17906M 17940M 17978M 18006M 18024M 18052M 18095M 18104M 18139M
                                                 18161M 18189M 18189  18305M 18305  18306M 18344M 18344  18460M 18521M
                                                 18521  18538M 18538  18575M 18605M 18666M 18694M 18712M 18740M 18758M
                                                 18805M 18805  18844M 18844  18968M 18986M 19001M 19026M 19041M 19066M
                                                 19081M 19099M 19114M 19139M 19154M 19179M 19217M 19256M 19267M 19295M
                                                 19316M 19338M 19357M 19385M 19403M 19431M 19466M 19494M 19523M 19548M
                                                 19560M 19595M 19623M 19673M 19694M 19712M 19740M 19758M 19786M 19804M
                                                 19843M 19843  19969  19998M 20005M 20021M 20065M 20089M 20089  20164M
                                                 20164  20257M 20257  20345M 20345  20433M 20433  20525  20580M 20611M
                                                 20648M 20698M 20731M 20758M 20781M 20812M 20830M 20854M 20922M 20950M
                                                 20980M 21035M 21080M 21098M 21128M 21169M 21219M 21253M 21283M 21301M
                                                 21336M 21358M 21411M 21495M 21500M 21501M 21507  21519M 21537M 21565M
                                                 21583M 21608M 21633M 21664M 21701M 21705  21707  21708M 21766M 21793M
                                                 21821M 21850M 21850  21925M 21925  21998  22053M 22083M 22113M 22151M
                                                 22179M 22209M 22262M 22307M 22325M 22355M 22396M 22446M 22479M 22492M
                                                 22531M 22566M 22575M 22610M 22663M 22768M 22796M 22820M 22820  22878M
                                                 22917M 22917  23021M 23039M 23073M 23073  23207  23268M 23286M 23299M
                                                 23338M 23356M 23369M 23408M 23426M 23439M 23478M 23496M 23509M 23548M
                                                 23566M 23579M 23618M 23636M 23649M 23688M 23706M 23720M 23759M 23777M
                                                 23790M 23829M 23847M 23861M 23900M 23935M 23944M 23982M 24025M 24034M
                                                 24072M 24100  24181M 24191M 24193M 24193  24194B 24216M 24229M 24268M
                                                 24286M 24299M 24338M 24360M 24395M 24439M 24461M 24474M 24513M 24535M
                                                 24548M 24587M 24605M 24618M 24657M 24675M 24688M 24727M 24759M 24795M
                                                 24816M 24847M 24871M 24871
 R2            2 00000002 FFFFFFFF A   #     725  9423M  9653M  9653   9674M  9684M  9716  10402  10651M 10654  17381M
                                                 17441M 17450  17458M 17458  18063M 18076  18104  18814M 20835M 20836M
                                                 20842  21310M 21311M 21346  21389M 21389  21418  21430M 21448  22540M
                                                 22541M 22575  22641M 22641  22670  22682M 22700  22864M 22894  22951
                                                 22953
 R3            3 00000003 FFFFFFFF A   #     738  9424M  9675M 17460M 17460  22863M 22889  22932U 24002M 24003M 24003
                                                 24034
 R4            4 00000004 FFFFFFFF A   #     751 11338M 11438  11480M 11949M 12184M 13097M 13197  13239M
 R5            5 00000005 FFFFFFFF A   #     764 11083M 11091U 12815M 12823U 17826M 17834U 19955M 19956M 20004M 20038
                                                 20510M 21792  21985M 22767  23194M 23236  24129  24818
 R6            6 00000006 FFFFFFFF A   #     777  9559M  9559   9560   9898M 10099M 10109U 10369M 10379U 10653M 10664U
                                                 10675  11082M 12450M 12458U 12469  12814M 13602M 13610U 14073M 14081U
                                                 14591M 14620U 14659U 14747M 14775U 15009U 15778M 15807U 15863U 15968M
                                                 15996U 16190U 16704M 16712U 17124M 17125  17133U 17678M 17689U 17816M
                                                 17824U 18441M 18451U 18924M 18934U 19954M 19983  20003M 20033  20496M
                                                 20506U 21975M 21983U 23193M 23222U 24115U
 R7            7 00000007 FFFFFFFF A   #     790  2090M  2090   2091B  2103B
 R8            8 00000008 FFFFFFFF A   #     803  9102U  9546U 10007U 10277U 11748U 12446U 12673U 13466U 13937U 14453U
                                                 15414U 16578U 16702U 17115U 18278U 18425U 18919U
 SCANCHK       1 00000000 00000016     T   13371 13371  16485  19866
 SDSNQSZ       1 0000002C FFFFFFEC A   U    6078  6079   6080
1TINT     (TINT2047) (12:57) (15MAR04) Ordinary Symbol and Literal Cross Reference                                          Page  112
 SEG           1 00000000 00000004     T   10195 10195  10464  13362  16471  19860  23095  24885
 SEGB          1 00000000 00000003     T   10194 10194  13367  16481  19872  20174  23099
 SEGCLR        1 00000000 00000002     T   10193 10193  10463
 SEGCR         1 00000000 00000014     T   13369 13369  16477  19876  23104
 SEGDC         1 00000000 0000000A     T   10201 10201  16476  19880  23098
 SEGHX         1 00000000 00000018     T   13375 13375  23097
 SEGINIT       1 00000000 00000012     T   13364 13364  19864
 SEGT          1 00000000 00000019     T   13376 13376  19870  23103
 SEGTB         1 00000000 0000001C     T   16474 16474
 SEGWR         1 00000000 0000000B     T   10203 10203  13379  16475  19875  20176  23106  24891
 SETOPER       2 00001632 00000001     H   16536 16532
 SETORNG     666 00000000 FFFFFFCD     X   16519 16629
 SETOWA      666 00000000 FFFFFFCD     J   16526 16549  16578U 16612M 16612  16613M 16613  16614M 16614
 SHNCB        60 000002A0 FFFFFFD4     X   10592 11213M 11318
 SHNCBCOD      1 000002A0 FFFFFFD4     R   10509 10518  10528  10538  10548  10558  10568  10578
 SHNCBRTN      4 000002C4 FFFFFFD4     A   10589 11240
 SHNETPRT      4 000004A0 00000001     F   10811 13358
 SHNETRTN      2 000005E8 00000001     H   11047 10781
 SHNETWA    8732 00000000 FFFFFFD4     J   10603 10664U 13355
 SHNFADDR    128 00000000 FFFFFFD4        10487 10914M 11103
 SHNFLAG       1 00000000 FFFFFFD4     R   10483 10487  10492  10497  10593  10593
 SHNFSOME     32 00000000 FFFFFFD4        10497 11356M 11399M 11501
 SHNFTRC      64 00000000 FFFFFFD4        10492 10980M 11207
 SHNINIT     732 00000000 FFFFFFD4     X   10593 10672M 10672  10673M 10673  10674M 10674
 SHNRNG      666 00000006 FFFFFFD4     X   10504 10731
 SHNTLEN       2 00000004 FFFFFFD4     H   10502 11336M 11442  11480
 SHNTNO        2 00000002 FFFFFFD4     H   10501 11337M 11370M 11370  11483  11485M
 SHNTRC     8000 000002DC FFFFFFD4     X   10596 11223  11321  13381
 SHONETA       2 00000540 00000001     H   10874 10823
 SHONETT       2 0000056C 00000001     H   10940 10838
 SHOPORTA      2 00000A30 00000001     H   12637 12586
 SHOPORTT      2 00000A5C 00000001     H   12706 12601
 SHOWMDEV      2 00000750 00000001     H   11706 11702
 SHOWNET       2 000003F4 00000001     H   10616 10612
 SHOWPORT      2 00000916 00000001     H   12404 12400
 SHOWSYS       2 00000138 00000001     H    9504  9500
 SHPCB        60 000002A0 FFFFFFD2     X   12380 12970M 13077
 SHPCBCOD      1 000002A0 FFFFFFD2     R   12297 12306  12316  12326  12336  12346  12356  12366
 SHPCBRTN      4 000002C4 FFFFFFD2     A   12377 12998
 SHPFADDR    128 00000000 FFFFFFD2        12275 12680M 12835
 SHPFLAG       1 00000000 FFFFFFD2     R   12271 12275  12280  12285  12381  12381
 SHPFSOME     32 00000000 FFFFFFD2        12285 13115M 13158M 13260
 SHPFTRC      64 00000000 FFFFFFD2        12280 12746M 12964
 SHPINIT     732 00000000 FFFFFFD2     X   12381 12466M 12466  12467M 12467  12468M 12468
 SHPRTPRT      4 00000990 00000001     F   12574 13377
 SHPRTRNG    666 00000006 FFFFFFD2     X   12292 12507
 SHPRTRTN      2 00000A88 00000001     H   12779 12557
 SHPRTWA    1756 00000000 FFFFFFD2     J   12391 12417  12446U 12450  12458U
 SHPTLEN       2 00000004 FFFFFFD2     H   12290 13095M 13201  13239
 SHPTNO        2 00000002 FFFFFFD2     H   12289 13096M 13129M 13129  13242  13244M
 SHPTRC     1024 000002DC FFFFFFD2     X   12384 12980  12985  13080
 SHUTDOWN      2 00001324 00000001     H   15657 16487
 SIB         254 00000000 FFFFFFD9     X    8842  9014  16712U 16920M 17689U 17834U 18367  18451U 18580  18815  18815
                                                 18862  18934U
 SIBACCT       5 00000070 FFFFFFD9     C    8441  8604   8604  18623  18780
 SIBANO        2 00000075 FFFFFFD9     X    8444 18063
 SIBCRI        2 000000F0 FFFFFFD9     H    8831  8836   8836
 SIBFL         1 00000040 FFFFFFD9     R    8179  8183   8188   8193   8198   8203
 SIBFLG        1 000000B4 FFFFFFD9     R    8719  8723   8728   8733   8738   8743   8748   8753   8758
1TINT     (TINT2047) (12:57) (15MAR04) Ordinary Symbol and Literal Cross Reference                                          Page  113
 SIBFLG2       1 000000B5 FFFFFFD9     R    8764  8768   8773   8778
 SIBFL2        1 00000041 FFFFFFD9     R    8209  8213   8218   8223   8228
 SIBFL3        1 00000042 FFFFFFD9     R    8234  8238   8243   8248
 SIBFL4        1 00000043 FFFFFFD9     R    8254  8258   8263   8268
 SIBFL5        1 00000044 FFFFFFD9     R    8274  8278   8283   8288
 SIBFNMSG    128 000000AA FFFFFFD9         8657 17706
 SIBGRP        2 00000073 FFFFFFD9     C    8443 17993  17998  18681  18686  19015  19020  19727  19732
 SIBID         4 00000000 FFFFFFD9     F    8166 16772  16777  17949  18509  19554  19582  19587
 SIBKAFL       1 0000007B FFFFFFD9     R    8575  8579   8584   8589   8594   8599
 SIBKIFL       1 0000007A FFFFFFD9     R    8530  8534   8539   8544   8549   8554   8559   8564   8569
 SIBNO         2 00000004 FFFFFFD9     H    8167 16800  16805  18976  19610  19615  19682
 SIBOFLAG      1 000000D2 FFFFFFD9     R    8789  8793   8798   8803   8808   8813
 SIBOPST       4 00000080 FFFFFFD9     F    8609  8838   8838
 SIBPORT       8 00000010 FFFFFFD9     C    8173  8293   8293
 SIBQFLG       1 000000A8 FFFFFFD9     R    8638  8642
 SIBSESS      16 00000070 FFFFFFD9     X    8604 16856  16861
 SIBSFLG       1 00000077 FFFFFFD9     R    8448  8452   8457   8462   8467   8472   8477
 SIBSFOP      16 00000077 FFFFFFD9         8467 16726M 16751M
 SIBSFPS      32 00000077 FFFFFFD9         8462 17724
 SIBSTART      4 00000000 FFFFFFD9     F    8165  8169   8169   8605   8605   8710   8710   8842   8842
 SIBSTAT       1 0000004B FFFFFFD9     R    8385  8389   8394   8399   8404   8409   8414   8419
 SIBTACF       1 00000078 FFFFFFD9     R    8483  8487   8492   8497   8502   8507   8512   8517   8522
 SIBTCONS      1 00000048 FFFFFFD9         8307 17846  17920  18488
 SIBTFLAG      1 000000A6 FFFFFFD9     R    8616  8620   8625   8630
 SIBTVIRT      5 00000048 FFFFFFD9         8347 18470
 SIBTYPE       1 00000048 FFFFFFD9     R    8298  8307   8317   8327   8337   8347   8357   8367   8377
 SIBUC         2 00000080 FFFFFFD9     H    8610 16760  16761M 16828  16833
 SIBUFLG       1 000000AA FFFFFFD9     R    8653  8657   8662   8667   8672   8677   8682   8687   8692
 SIBUFLG2      1 000000AB FFFFFFD9     R    8698  8702   8707
 SIBUSER       3 00000070 FFFFFFD9     C    8442 18039  18044  18727  18732  19055  19060  19773  19778
 SIBVPGM       8 00000058 FFFFFFD9     C    8431  8437   8437
 SIB1ST        4 00000048 FFFFFFD9     F    8295  8840   8840
 SPR          13 0000000D 00000001 A   #    1112  9067   9070   9072   9073M  9073   9369M  9373   9375   9390   9393
                                                  9394   9395M  9395   9482M  9486   9488   9511   9514   9516   9517M
                                                  9517   9916M  9920   9922   9972   9975   9977   9978M  9978  10174M
                                                 10178  10180  10242  10245  10247  10248M 10248  10445M 10449  10451
                                                 10622  10625  10626  10627M 10627  10798M 10802  10804  10880  10883
                                                 10884  10885M 10885  10925M 10929  10931  10946  10949  10950  10951M
                                                 10951  10991M 10995  10997  11053  11056  11057  11058M 11058  11545M
                                                 11549  11551  11713  11716  11718  11719M 11719  12250M 12254  12256
                                                 12411  12414  12416  12417M 12417  12643  12646  12647  12648M 12648
                                                 12691M 12695  12697  12712  12715  12716  12717M 12717  12757M 12761
                                                 12763  12785  12788  12789  12790M 12790  13304M 13308  13310  13431
                                                 13434  13436  13437M 13437  13545M 13549  13551  13573  13576  13577
                                                 13578M 13578  13847M 13851  13853  13902  13905  13907  13908M 13908
                                                 14016M 14020  14022  14044  14047  14048  14049M 14049  14363M 14367
                                                 14369  14418  14421  14423  14424M 14424  14529M 14533  14535  14562
                                                 14565  14566  14567M 14567  14689M 14693  14695  14718  14721  14722
                                                 14723M 14723  15332M 15336  15338  15379  15382  15384  15385M 15385
                                                 15640M 15644  15646  15663  15666  15667  15668M 15668  15716M 15720
                                                 15722  15749  15752  15753  15754M 15754  15910M 15914  15916  15939
                                                 15942  15943  15944M 15944  16446M 16450  16452  16543  16546  16548
                                                 16549M 16549  16672  16675  16676  16677M 16677  16936M 16940  16942
                                                 17080  17083  17085  17086M 17086  17617M 17621  17623  17649  17652
                                                 17653  17654M 17654  17751M 17755  17757  17787  17790  17791  17792M
                                                 17792  18181M 18185  18187  18243  18246  18248  18249M 18249  18336M
                                                 18340  18342  18390  18393  18395  18396M 18396  18836M 18840  18842
                                                 18884  18887  18889  18890M 18890  19835M 19839  19841  19925  19928
                                                 19929  19930M 19930  20081M 20085  20087  20110  20113  20114  20115M
1TINT     (TINT2047) (12:57) (15MAR04) Ordinary Symbol and Literal Cross Reference                                          Page  114
                                                 20115  20156M 20160  20162  20203  20206  20207  20208M 20208  20249M
                                                 20253  20255  20291  20294  20295  20296M 20296  20337M 20341  20343
                                                 20379  20382  20383  20384M 20384  20425M 20429  20431  20467  20470
                                                 20471  20472M 20472  21842M 21846  21848  21871  21874  21875  21876M
                                                 21876  21917M 21921  21923  21946  21949  21950  21951M 21951  22812M
                                                 22816  22818  22834  22837  22838  22839M 22839  23065M 23069  23071
                                                 23164  23167  23168  23169M 23169  24863M 24867  24869
 SSB          56 00000000 FFFFFFDA     J    8150  9517   9546U  9606M  9920   9922   9923   9949  10109U 10113M 10379U
                                                 10383M 10402  10402
 SSBCUR        2 00000022 FFFFFFDA     H    8137  9749
 SSBFLAG       1 00000014 FFFFFFDA     R    8124  8128
 SSBID         2 00000000 FFFFFFDA     H    8117  9898  10144  10415
 SSBJOBNM      8 0000000C FFFFFFDA     C    8121  9644   9649
 SSBMAX        2 00000020 FFFFFFDA     H    8136  9791
 SSBNAME       8 00000004 FFFFFFDA     C    8120  8143   8143   9618   9623  10126  10396
 SSBNIO        4 00000024 FFFFFFDA     F    8139  9834
 SSBSCLCK      8 00000018 FFFFFFDA     X    8134  9664M  9664   9676
 SSYSLP        4 0000015A 00000001     I    9560  9899B
 START         2 00000F9E 00000001     H   14411 14407
 STARTFR       4 000010D8 00000001     I   14912 14799B
 STARTPR       4 00001190 00000001     I   15173 15034B 15059B
 STARTRTN      2 00001050 00000001     H   14712 14507
 STARTSEL      2 00001012 00000001     H   14556 14506
 STARTX        2 000011F8 00000001     H   15324 14885B 14902B 14989B 15146B 15163B 15311B
 STOP          2 00001206 00000001     H   15372 15368
 STOPRNG     666 00000000 FFFFFFCE     X   15355 15611
 STOPRTN       2 000013AC 00000001     H   15933 15619
 STOPSEL       2 0000135E 00000001     H   15743 15618
 STOPSX        2 0000139E 00000001     H   15902 15823B 15879B
 STOPWA      666 00000000 FFFFFFCE     J   15362 15385  15414U 15644  15646  15647
 STOPX         2 000014F8 00000001     H   16438 16081B 16098B 16170B 16277B 16294B 16425B
 STRTRNG     666 00000000 FFFFFFCF     X   14394 14499
 STRTWA      666 00000000 FFFFFFCF     J   14401 14424  14453U 14482M 14482  14483M 14483  14484M 14484  14533  14535
                                                 14536
 SYSCHECK      2 0000027E 00000001     H    9965  9961
 SYSCID        2 00000000 FFFFFFD5     H    9947 10022M 10022  10054  10059  10144M 10292M 10292  10324  10329  10415M
 SYSCNAME      8 00000002 FFFFFFD5     C    9948 10011M 10126  10281M 10396
 SYSCSSB      56 0000000A FFFFFFD5     X    9949 10099  10369
 SYSCWA       66 00000000 FFFFFFD5     J    9956  9978  10007U 10178  10180  10181  10248  10277U 10449  10451  10452
 SYSGTSSB      2 00000358 00000001     H   10235 10231
 TASWRITE      1 00000000 00000021     T   19871 19871
 TCNTL         1 00000000 00000007     T   10198 10198  10465  13365  16472  19861
 TINT2047      1 00000000 00000001     R     999   997
 TMILREAD      1 00000042 FFFFFFE6 A   U    6792 20678  21199  22426
 TMILWRIT      1 00000041 FFFFFFE6 A   U    6791 20628  21149  22376
 TRANGE        1 00000000 0000000F     T   13360 13360  16470  19859
 TRC           1 00000000 00000000 A   T    2119  2119
 TRCMAX        1 00000009 00000001 A   N   13343 13345  13345  13346  13346
 TRCTBL        4 00000C04 00000001     A   13333 11477  13236  13343
 TTRC         72 00000000 FFFFFFDF     J    7684 20506U
 TTRCCLCK      8 00000000 FFFFFFDF     D    7638  7642   7647   7647   7651
 TTRCCMD       1 00000021 FFFFFFDF     X    7661 21149  21199  21267
 TTRCDATA      1 00000018 FFFFFFDF     U    7654  7658   7668   7676  21787
 TTRCEXIT      2 000025FA 00000001     H   21809 20859B 21457B 21718B 21771B
 TTRCIHDR     16 0000001A FFFFFFDF     C    7670  7672   7672  21552  21557  23121
 TTRCILEN      2 00000018 FFFFFFDF     H    7669 21500  21670
 TTRCIREM     30 0000002A FFFFFFDF     C    7671 21593  21669  21701
 TTRCMSG      40 00000018 FFFFFFDF     C    7677 21753  21758
 TTRCNAME      8 00000008 FFFFFFDF     C    7652 20937  20942  20999  21476  21737
1TINT     (TINT2047) (12:57) (15MAR04) Ordinary Symbol and Literal Cross Reference                                          Page  115
 TTRCPCMD      1 00000008 FFFFFFDF     X    7643 20628  20678  20745
 TTRCPCPL      2 0000000A FFFFFFDF     X    7645 20796
 TTRCPLEN      2 0000000C FFFFFFDF     H    7646 20835
 TTRCPNAM      8 00000010 FFFFFFDF     C    7653 20875  20880  20891M 20891
 TTRCPTYP      1 00000007 FFFFFFDF     C    7642 20546
 TTRCSACC      5 0000001C FFFFFFDF     C    7660 21015M 21015  21065  21113
 TTRCTEXT     20 00000026 FFFFFFDF     C    7664 21443  23101
 TTRCTLEN      2 00000024 FFFFFFDF     H    7663 21310
 TTYFLAG       1 00000004 FFFFFFEA     R    6207  6211
 TTYMAX#       1 00000006 FFFFFFEA A   U    6263  6264
 TTYTFLAG      1 00000005 FFFFFFEA     R    6217  6221   6226   6231   6236   6241   6246   6251
 UPPTBL        1 00000000 00000000 A   T    2182  2182
 VFLMODE       2 00002DB8 00000001     H   24521 24199
 VFLTL         2 00002D40 00000001     H   24346 24198
 VFOPCLS       2 00002CDC 00000001     H   24202 24197
 VFTCODE       1 0000001C FFFFFFDD     X    7774 24474
 VFTERFLG      1 00000015 FFFFFFDD     X    7769 24299
 VFTFDBK2      1 00000015 FFFFFFDD     X    7780 24618
 VFTNAME       8 00000008 FFFFFFDD     C    7749 24168  24173
 VFTOFLGS      1 00000014 FFFFFFDD     X    7768 24229
 VFTOPT11      1 00000016 FFFFFFDD     X    7781 24688  24739  24775
 VFTPORTN      8 00000014 FFFFFFDD     C    7773 24375M 24375  24426  24431
 VFTRACE      32 00000000 FFFFFFDD     J    7790 24115U
 VFTRTNCD      1 00000014 FFFFFFDD     X    7779 24548
 VFTTEXT       4 00000014 FFFFFFDD     F    7764  7767   7772   7778
 VFTTYPE       1 00000010 FFFFFFDD     X    7750  7752   7755   7758  24149  24191
 VIRTHDR       2 00002880 00000001     H   22828 22103B 22747B
 VIRTTRC       2 0000264C 00000001     H   21940 13338
 VPTCHN        1 00000015 FFFFFFDC     X    7815 23649
 VPTFDBK2      1 00000013 FFFFFFDC     X    7813 23509
 VPTFLGS       3 00000019 FFFFFFDC     X    7818 23861
 VPTNAME       8 00000008 FFFFFFDC     C    7808 23255  23260  23916
 VPTRACE      32 00000000 FFFFFFDC     J    7830 23222U 24884
 VPTREQ        1 00000010 FFFFFFDC     X    7810 23299
 VPTRH3        1 00000014 FFFFFFDC     X    7814 23579
 VPTRTNCD      1 00000012 FFFFFFDC     X    7812 23439
 VPTSENS       4 0000001C FFFFFFDC     X    7819  7820  24002
 VPTSIGNL      4 0000001C FFFFFFDC     X    7820 23944
 VPTSNF        2 00000016 FFFFFFDC     H    7816 23720
 VPTSRTYP      1 00000011 FFFFFFDC     X    7811 23369
 VPTSTATE      1 00000018 FFFFFFDC     X    7817 23790
 VTAMTABL      4 00002CCC 00000001     A   24196 24193
 VTAMTRC       2 00002A30 00000001     H   23158 13337
 VTNKNOWN      4 00002E80 00000001     I   24816 24152B 24196
 VTRC         82 00000000 FFFFFFDE     J    7731 21983U
 VTRCCLCK      8 00000000 FFFFFFDE     D    7700  7706   7706   7708
 VTRCCMD       1 0000001D FFFFFFDE     X    7717 22376  22426  22492
 VTRCDATA      1 00000012 FFFFFFDE     U    7711  7714   7723  22762
 VTRCEXIT      2 00002862 00000001     H   22784 22104B 22709B 22748B
 VTRCNAME      8 00000008 FFFFFFDE     C    7709 22166  22171  22226  22726
 VTRCPNO       2 00000010 FFFFFFDE     H    7710 22113
 VTRCPRQS     24 0000000A FFFFFFDE     X    7705 22096  22101
 VTRCPTYP      1 00000008 FFFFFFDE     C    7703 22019
 VTRCRQST     64 00000012 FFFFFFDE     X    7724 22740  22745
 VTRCSACC      5 00000018 FFFFFFDE     C    7716 22242M 22242  22292  22340
 VTRCTEXT     20 00000022 FFFFFFDE     C    7720 22695  23110
 VTRCTLEN      2 00000020 FFFFFFDE     H    7719 22540
 VTTREXIT      2 00002E98 00000001     H   24835 23987B 24006B 24077B 24343B 24518B 24804B
 WAITER        1 00000000 00000024     T   19882 19882
1TINT     (TINT2047) (12:57) (15MAR04) Ordinary Symbol and Literal Cross Reference                                          Page  116
 WAR           8 00000008 00000001 A   #    1035  9072M  9369   9394M  9482   9516M  9916   9977M 10174  10247M 10445
                                                 10626M 10798  10884M 10925  10950M 10991  11057M 11545  11718M 12250
                                                 12416M 12647M 12691  12716M 12757  12789M 13304  13436M 13545  13577M
                                                 13847  13907M 14016  14048M 14363  14423M 14529  14566M 14689  14722M
                                                 15332  15384M 15640  15667M 15716  15753M 15910  15943M 16446  16548M
                                                 16676M 16936  17085M 17617  17653M 17751  17791M 18181  18248M 18336
                                                 18395M 18836  18889M 19835  19929M 20081  20114M 20156  20207M 20249
                                                 20295M 20337  20383M 20425  20471M 21842  21875M 21917  21950M 22812
                                                 22838M 23065  23168M 24863
 WTOSG         1 00000000 00000000 A   T    2079  2079
 WYLTINT       1 00000000 00000001     J     990   992   1017   1030   1043   1055   1068   1081   1094   1107   1120
                                                  1133   2363   2447   6187   6299   6579   6584   6659   6703   6901
                                                  7112   7309   7437   7479   7554   7621   7685   7732   7791   7831
                                                  8102   8151   8850   8903   9025   9045   9199   9461   9957
 XTB           1 00000000 00000017     T   13373 13373
 YESREQ        1 00000000 0000001D     T   16478 16478  19878
 =A(GETRPRT)
               4 00001558 00000001     A   16468 13503  13974  14490  15602
 =A(GETRPRT)
               4 00001F60 00000001     A   19857 16620  17578  18297
 =A(L'FSBTMAX)
               4 00000C64 00000001     A   13368 11461
 =A(L'LGSESSWL)
               4 00000308 00000001     A   10192  9149   9161
 =A(L'PSBTMAX)
               4 00000CAC 00000001     A   13380 13220
 =A(L'RQSTHDR)
               4 0000299C 00000001     A   23113 22897  22909
 =A(L'TTRCTEXT)
               4 0000296C 00000001     A   23101 21418  21430
 =A(L'VPTRACE)
               4 00002EC4 00000001     A   24884 23236  24129
 =A(L'VTRCTEXT)
               4 00002990 00000001     A   23110 22670  22682
 =A(RNGTFE)
               4 00001584 00000001     A   16479 14605  14760  15792  15981
 =A(RNGTFE)
               4 00002120 00000001     A   20173 19969
 =A(RNGTFE)
               4 00002ED0 00000001     A   24887 24100
 =A(RNGTPORT)
               4 00002950 00000001     A   23094 20525  21998
 =A(RNGTPORT)
               4 00002EC0 00000001     A   24883 23207
 =A(SHNETPRT)
               4 00000C3C 00000001     A   13358 10722
 =A(SHPRTPRT)
               4 00000CA0 00000001     A   13377 12498
 =A(SHUTDOWN)
               4 000015BC 00000001     A   16487 15546  15584
 =A(X'FFF')
               4 00000C94 00000001     A   13374 11855
 =A(1)         4 00001FB0 00000001     A   19873 18076
 =A(4)         4 00001F74 00000001     A   19862 16911
 =A(8)         4 00002ED8 00000001     A   24889 24819
 =AL2(L'PDBHDR)
               2 000029AC 00000001     R   23116 20836
 =AL2(L'SHNTRC)
               2 00000CB0 00000001     R   13381 11227
1TINT     (TINT2047) (12:57) (15MAR04) Ordinary Symbol and Literal Cross Reference                                          Page  117
 =AL2(L'TTRCIHDR+4)
               2 000029B6 00000001     R   23121 21671
 =AL2(16+4)
               2 000029B2 00000001     R   23119 21501
 =AL4(L'SHNETWA)
               4 00000C30 00000001     R   13355 10651
 =C'  ID='
               5 000029FA 00000001     C   23135 21574
 =C' -- msg limit exceeded'
              22 00001FF4 00000001     C   19888 18152
 =C' '         1 0000204D 00000001     C   19899 18994  19107  19348  19457  19703
 =C' '         1 000029EB 00000001     C   23132 21292
 =C' '         1 00002F4B 00000001     C   24908 24351
 =C' is not yours.'
              14 0000200C 00000001     C   19890 18749
 =C' killed by line '
              16 00001F50 00000001     C   19856 19074
 =C' max'      4 00000330 00000001     C   10202  9815
 =C' users still on '
              16 00001530 00000001     C   16466 14125
 =C' users'
               6 0000033E 00000001     C   10207  9773
 =C' will be logged off.'
              20 00001FD8 00000001     C   19883 19795
 =C' CHN='
               5 00002F15 00000001     C   24900 23627
 =C' CODE='
               6 00002EEA 00000001     C   24893 24452
 =C' CPL='
               5 000029D0 00000001     C   23127 20772
 =C' ERFLG='
               7 00002F44 00000001     C   24907 24277
 =C' FDBK2='
               7 00002F09 00000001     C   24898 23487  24596
 =C' FLAGS='
               7 00002F26 00000001     C   24903 23838
 =C' I/O''s'
               6 00000344 00000001     C   10208  9858
 =C' Length='
               8 00002938 00000001     C   23091 20821
 =C' OFLGS='
               7 00002F3D 00000001     C   24906 24207
 =C' OPT11='
               7 00002F4C 00000001     C   24909 24666
 =C' REQ='
               5 00002EF6 00000001     C   24895 23277
 =C' RH3='
               5 00002F10 00000001     C   24899 23557
 =C' RTNCD='
               7 00002F02 00000001     C   24897 23417  24526
 =C' SENSE='
               7 00002F36 00000001     C   24905 24016
 =C' SIGDATA='
               9 00002F2D 00000001     C   24904 23926
 =C' SNF='
               5 00002F1A 00000001     C   24901 23697
 =C' SRTYP='
               7 00002EFB 00000001     C   24896 23347
 =C' START'
1TINT     (TINT2047) (12:57) (15MAR04) Ordinary Symbol and Literal Cross Reference                                          Page  118
               6 00002EF0 00000001     C   24894 24786
 =C' STATE='
               7 00002F1F 00000001     C   24902 23768
 =C' STOP'
               5 00002F53 00000001     C   24910 24750
 =C'.'         1 0000034A 00000001     C   10209  9284
 =C'.'         1 00002046 00000001     C   19896 18015  18703  19034  19147  19394  19749
 =C'.'         1 000029DC 00000001     C   23129 21089  22316
 =C'------ '
               7 000029D5 00000001     C   23128 21026
 =C'--------'
               8 00002EB8 00000001     C   24882 24386
 =C'------'
               6 000029B8 00000001     C   23122 22253
 =C'-'         1 0000162A 00000001     C   16499 15221  16345
 =C', '        2 000029B4 00000001     C   23120 21528
 =C', Text='
               7 000029F3 00000001     C   23134 21402  22654
 =C': INVALID'
               9 0000201F 00000001     C   19893 17366
 =C'#'         1 00002047 00000001     C   19897 18086
 =C'is already open.'
              16 00001520 00000001     C   16465 13656
 =C'is detached--not opened.'
              24 00001508 00000001     C   16464 13631
 =C'not closed.'
              11 00001614 00000001     C   16497 14285
 =C'not opened.'
              11 00001604 00000001     C   16495 13769
 =C'not stopped.'
              12 000015C0 00000001     C   16488 16149  16405
 =C'Account '
               8 00001F48 00000001     C   19855 18657
 =C'ALF trace formatting not available.'
              35 00002A02 00000001     C   23137 21904
 =C'ASYNC trace formatting not available.'
              37 000021E8 00000001     C   20354 20324
 =C'Broadcast skipped for account'
              29 00002029 00000001     C   19895 17969
 =C'Close'
               5 0000160F 00000001     C   16496 14169
 =C'Cmd='      4 00002958 00000001     C   23096 20722  21244  22470
 =C'ECU trace formatting not available.'
              35 00002190 00000001     C   20266 20236
 =C'FROMAMY'
               7 000029C2 00000001     C   23125 20533
 =C'FROMVIRT'
               8 00002940 00000001     C   23092 22006
 =C'IO'        2 000029B0 00000001     C   23118 21476
 =C'IS A DUMMY PORT--NOT STARTED'
              28 00001590 00000001     C   16482 15032
 =C'IS DETACHED--NOT STARTED'
              24 00001540 00000001     C   16467 14797  15057
 =C'Length='
               7 000029EC 00000001     C   23133 21327  21486  22557
 =C'Line '
               5 00002048 00000001     C   19898 18961  19664
 =C'Missing MILTEN unit-address.'
              28 00000C74 00000001     C   13372 11820
1TINT     (TINT2047) (12:57) (15MAR04) Ordinary Symbol and Literal Cross Reference                                          Page  119
 =C'MIL '      4 000015B8 00000001     C   16486 15537
 =C'MILTEN '
               7 0000162B 00000001     C   16500 15575
 =C'MILTEN I/O trace for unit '
              26 00000CB6 00000001     C   13384 11957
 =C'MISSING LINE-RANGE FOR BROADCAST'
              32 00001F08 00000001     C   19853 17248
 =C'MSG'       3 000029FF 00000001     C   23136 21737
 =C'NO BROADCAST MESSAGE'
              20 00001F8C 00000001     C   19868 17420
 =C'NOT STARTED'
              11 0000161F 00000001     C   16498 14909  15170
 =C'NSC trace formatting not available.'
              35 00002132 00000001     C   20178 20143
 =C'OK'        2 0000200A 00000001     C   19889 18631
 =C'PDP trace formatting not available.'
              35 00002248 00000001     C   20442 20412
 =C'PORTS'
               5 00000CEE 00000001     C   13388 12482
 =C'Read:  '
               7 000029E4 00000001     C   23131 21210
 =C'Read: '
               6 000029A6 00000001     C   23115 20689  22437
 =C'Rqst='
               5 00002A25 00000001     C   23138 22869
 =C'RQST'      4 00002998 00000001     C   23112 22726
 =C'SEN'       3 0000201C 00000001     C   19892 17321
 =C'SIGNAL'
               6 00002EE4 00000001     C   24892 23916
 =C'This session will be logged off:'
              32 00001F28 00000001     C   19854 18566
 =C'Trace table is empty.'
              21 00000CD9 00000001     C   13387 11512  12216  13271
 =C'TERM'      4 00002968 00000001     C   23100 20999
 =C'TEXT='
               5 00002A2A 00000001     C   23139 23030
 =C'TOAMY  '
               7 000029C9 00000001     C   23126 20555
 =C'TOVIRT  '
               8 00002948 00000001     C   23093 22028
 =C'Use "STOP MILTEN" command to terminate Milten.'
              46 000015D4 00000001     C   16493 15507
 =C'VIRT'      4 00002988 00000001     C   23108 22226
 =C'VIRTUAL'
               7 00000CD2 00000001     C   13386 10702
 =C'Write: '
               7 000029DD 00000001     C   23130 21160
 =C'Write:'
               6 000029A0 00000001     C   23114 20639  22387
 =C'You have been logged off by line '
              33 0000204E 00000001     C   19900 19307
 =F'-4'        4 00000C34 00000001     F   13356 10656
 =V(BTD)       4 00001FB4 00000001     V   19874 18118
 =V(BTD)       4 00002984 00000001     V   23107 22130  22589
 =V(BTD)       4 00002ED4 00000001     V   24888 24706
 =V(BTX)       4 00000C48 00000001     V   13361 11130  12862
 =V(BTX)       4 0000298C 00000001     V   23109 22510
 =V(BTX)       4 00002ECC 00000001     V   24886 23317  23387  23457  23527  23597  23667  23738  23808  23879  23961
                                                 24051  24247  24317  24492  24566  24636
1TINT     (TINT2047) (12:57) (15MAR04) Ordinary Symbol and Literal Cross Reference                                          Page  120
 =V(CHARFMT)
               4 00002994 00000001     V   23111 22703  23049
 =V(CHKKW)
               4 00001FC8 00000001     V   19879 18795
 =V(CMDFIN)
               4 000015AC 00000001     V   16483 15436
 =V(COLLOPTS)
               4 0000031C 00000001     V   10197  9553
 =V(COLLOPTS)
               4 00000C38 00000001     V   13357 10696  11868
 =V(FMTRCLCK)
               4 00000328 00000001     V   10200  9682
 =V(FMTRCLCK)
               4 00001FA0 00000001     V   19869 17466
 =V(FMTTIME)
               4 00000C5C 00000001     V   13366 11404  12101  13163
 =V(FMTTIME)
               4 00001FD0 00000001     V   19881 19271
 =V(GETTRNG)
               4 00000C40 00000001     V   13359 10734  12510
 =V(GETTRNG)
               4 0000155C 00000001     V   16469 13515  13986  14502  15614
 =V(GETTRNG)
               4 00001F64 00000001     V   19858 16632  17590  18309
 =V(HEXFMT)
               4 00002128 00000001     V   20175 20041
 =V(HEXFMT)
               4 0000297C 00000001     V   23105 21711  21796  22771  22920
 =V(HEXFMT)
               4 00002EDC 00000001     V   24890 24822
 =V(LINEDISP)
               4 00000318 00000001     V   10196  9330
 =V(LINEDISP)
               4 00001FC0 00000001     V   19877 18583
 =V(LOCALTOD)
               4 00000324 00000001     V   10199  9672
 =V(LOCALTOD)
               4 00001F88 00000001     V   19867 17379  19264
 =V(LRTRIM)
               4 00001588 00000001     V   16480 14930  15191  15251  16119  16315  16375
 =V(MILERR)
               4 0000156C 00000001     V   16473 13760  14276  14900  15161  16096  16292
 =V(MIXFMT)
               4 00002970 00000001     V   23102 21451
 =V(NETPDISP)
               4 00000C50 00000001     V   13363 11194
 =V(NSCAN)
               4 00000C6C 00000001     V   13370 11782
 =V(NSCAN)
               4 000015B0 00000001     V   16484 15469
 =V(NSCAN)
               4 00001F80 00000001     V   19865 17213
 =V(ORVCPASS)
               4 00001F78 00000001     V   19863 17121
 =V(PORTDISP)
               4 00000CA4 00000001     V   13378 12926
 =V(SCANCHK)
               4 00000C70 00000001     V   13371 11796
 =V(SCANCHK)
1TINT     (TINT2047) (12:57) (15MAR04) Ordinary Symbol and Literal Cross Reference                                          Page  121
               4 000015B4 00000001     V   16485 15483
 =V(SCANCHK)
               4 00001F84 00000001     V   19866 17227
 =V(SEG)       4 00000314 00000001     V   10195  9278   9296   9589   9707   9742   9785   9827   9870  10070
 =V(SEG)       4 000003EC 00000001     V   10464 10340
 =V(SEG)       4 00000C4C 00000001     V   13362 11154  11184  11293  11929  11969  12886  12916  13052
 =V(SEG)       4 00001564 00000001     V   16471 13721  14137  14237  14861  15122  15215  15233  16057  16253  16339
                                                 16357
 =V(SEG)       4 00001F6C 00000001     V   19860 16788  16816  16844  16872  17360  17489  17518  17869  17909  17943
                                                 18009  18027  18055  18098  18142  18669  18697  18715  18743  18971
                                                 19004  19029  19044  19069  19084  19117  19142  19157  19182  19319
                                                 19360  19388  19406  19434  19469  19598  19626  19676  19715  19743
                                                 19761  19789
 =V(SEG)       4 00002954 00000001     V   23095 20583  20614  20651  20701  20734  20784  20833  20953  20983  21038
                                                 21083  21101  21172  21222  21256  21304  21339  21414  21498  21540
                                                 21586  21667  22056  22086  22182  22212  22310  22328  22482  22569
                                                 22613  22666  22881  23024  23042
 =V(SEG)       4 00002EC8 00000001     V   24885 23271  23289  23341  23359  23411  23429  23481  23499  23551  23569
                                                 23621  23639  23691  23709  23762  23780  23832  23850  23903  23938
                                                 23985  24028  24075  24184  24219  24271  24289  24341  24363  24398
                                                 24442  24464  24516  24538  24590  24608  24660  24678  24730  24762
                                                 24798
 =V(SEGB)      4 00000310 00000001     V   10194  9249   9324   9634
 =V(SEGB)      4 00000C60 00000001     V   13367 11428  12125  13187
 =V(SEGB)      4 0000158C 00000001     V   16481 14954  15275  16143  16399
 =V(SEGB)      4 00001FAC 00000001     V   19872 17981  19298
 =V(SEGB)      4 00002124 00000001     V   20174 20001
 =V(SEGB)      4 00002964 00000001     V   23099 20925  21131  22154  22265  22358  22399  22449  22534
 =V(SEGCLR)
               4 0000030C 00000001     V   10193  9218   9347  10042
 =V(SEGCLR)
               4 000003E8 00000001     V   10463 10312
 =V(SEGCR)
               4 00000C68 00000001     V   13369 11524  12019  12044  12181  12228  13283
 =V(SEGCR)
               4 0000157C 00000001     V   16477 14165
 =V(SEGCR)
               4 00001FBC 00000001     V   19876 18578  18608  18761  19259  19526  19551
 =V(SEGCR)
               4 00002978 00000001     V   23104 21636
 =V(SEGDC)
               4 0000032C 00000001     V   10201  9767   9809   9852
 =V(SEGDC)
               4 00001578 00000001     V   16476 14119
 =V(SEGDC)
               4 00001FCC 00000001     V   19880 18989  19102  19341  19697
 =V(SEGDC)
               4 00002960 00000001     V   23098 20857  21361  21522
 =V(SEGHX)
               4 00000C98 00000001     V   13375 11994
 =V(SEGHX)
               4 0000295C 00000001     V   23097 20761  20815  21286  21611
 =V(SEGINIT)
               4 00000C54 00000001     V   13364 11238  11899  12996
 =V(SEGINIT)
               4 00001F7C 00000001     V   19864 17171
 =V(SEGT)      4 00000C9C 00000001     V   13376 12156
 =V(SEGT)      4 00001FA4 00000001     V   19870 17547  19497
 =V(SEGT)      4 00002974 00000001     V   23103 21568  21769
1TINT     (TINT2047) (12:57) (15MAR04) Ordinary Symbol and Literal Cross Reference                                          Page  122
 =V(SEGTB)
               4 00001570 00000001     V   16474 13801  14317
 =V(SEGWR)
               4 00000334 00000001     V   10203  9895
 =V(SEGWR)
               4 00000CA8 00000001     V   13379 12951
 =V(SEGWR)
               4 00001574 00000001     V   16475 13828  14344  14981  15302  16161  16417
 =V(SEGWR)
               4 00001FB8 00000001     V   19875 18164  19220  19807
 =V(SEGWR)
               4 0000212C 00000001     V   20176 20068
 =V(SEGWR)
               4 00002980 00000001     V   23106 21824  22799
 =V(SEGWR)
               4 00002EE0 00000001     V   24891 24850
 =V(TASWRITE)
               4 00001FA8 00000001     V   19871 17952  19557
 =V(TCNTL)
               4 00000320 00000001     V   10198  9601  10082
 =V(TCNTL)
               4 000003F0 00000001     V   10465 10352
 =V(TCNTL)
               4 00000C58 00000001     V   13365 11316  11942  13075
 =V(TCNTL)
               4 00001568 00000001     V   16472 13743  14259  14883  15144  15702  16079  16275
 =V(TCNTL)
               4 00001F70 00000001     V   19861 16884  19638
 =V(TRANGE)
               4 00000C44 00000001     V   13360 10784  12560
 =V(TRANGE)
               4 00001560 00000001     V   16470 13526  13997  14510  15622
 =V(TRANGE)
               4 00001F68 00000001     V   19859 16643  17598  18317
 =V(WAITER)
               4 00001FD4 00000001     V   19882 19563
 =V(XTB)       4 00000C90 00000001     V   13373 11841
 =V(YESREQ)
               4 00001580 00000001     V   16478 14173
 =V(YESREQ)
               4 00001FC4 00000001     V   19878 18635
 =X'0200'      2 00000338 00000001     X   10204  9427
 =X'15'        1 00002028 00000001     X   19894 17931
 =X'2F15'      2 00001FF2 00000001     X   19887 17857
 =Y((L'FDBT1+3)/4*4)
               2 00000CB2 00000001     Y   13382 11296
 =Y((L'FDBT101+3)/4*4)
               2 000015CC 00000001     Y   16489 13732  14248  14872  16068
 =Y((L'FDBT102+3)/4*4)
               2 000015D0 00000001     Y   16491 15133  16264
 =Y((L'FDBT2+3)/4*4)
               2 00000CD0 00000001     Y   13385 13055
 =Y((L'NSCNCB+3)/4*4)
               2 00001602 00000001     Y   16494 15594
 =Y((R1+1-(R0)+16*((R0)/(R1+1))/((R0)/(R1+1)))*4)
               2 000015CE 00000001     Y   16490 13804  14320  14957  15278
 =Y((R1+1-(R0)+16*((R0)/(R1+1))/((R0)/(R1+1)))*4)
               2 00001FEE 00000001     Y   19885 17383  17523  17551
 =Y((R1+1-(R0)+16*((R0)/(R1+1))/((R0)/(R1+1)))*4)
1TINT     (TINT2047) (12:57) (15MAR04) Ordinary Symbol and Literal Cross Reference                                          Page  123
               2 000029C0 00000001     Y   23124 23045
 =Y((12+3)/4*4)
               2 00000CB4 00000001     Y   13383 11788
 =Y((12+3)/4*4)
               2 000015D2 00000001     Y   16492 15475
 =Y((12+3)/4*4)
               2 00001FEC 00000001     Y   19884 17219
 =Y((16+3)/4*4)
               2 0000201A 00000001     Y   19891 19301
 =Y((260+3)/4*4)
               2 0000033A 00000001     Y   10205  9471
 =Y((30+3)/4*4)
               2 0000033C 00000001     Y   10206  9710
 =Y((30+3)/4*4)
               2 00001FF0 00000001     Y   19886 17521
 =Y(L'PDBHDR)
               2 000029AE 00000001     Y   23117 21311  22541
 =Y(L'RQSTHDR)
               2 000029BE 00000001     Y   23123 22954
 =Y(8)         2 00002130 00000001     Y   20177 19956  20004

1TINT     (TINT2047) (12:57) (15MAR04) Macro and Copy Code Source Summary                                                   Page  124
- Con Source                                        Volume    Members                        HLASM R4.0  2004/03/15 12.57
0     PRIMARY INPUT                                           CSECT    DROP     END      EX       LTORG    POP
                                                              PRINT    PUSH     START    USING
   L1 WYL.GS.WYL.WYLBUR.MACLIB                      SYSB05    ABORT    AINFO    BASE     BTD      BTX      COLINFO
                                                              CONTROL  CP       CPLOCAL  CV       CVLOCAL  ERROR    JCB
                                                              RG       SCAN     SCANCB   SCANCHK  SCCBADR  SCINFO
                                                              SCINIT   SCKW     SCPOP    SCPUSH   SCUPTOK  SEGINIT
                                                              SETSCKWS TCLEAR   TCNTL    TCR      THEX     TNUM
                                                              TRANGE   TSEG     TTYPE    TWRITE   VLTORG   XTB
                                                              XTRACE   XWTO
   L2 WYL.GG.SYS.MACLIB                             SYSB05    $BC      $BFLKUP  $BV      $CCLKUP  $CRS     $CSS     $L
                                                              $LA      $LBLAD   $LEXP    $LOR     $REL     $RGLKUP
                                                              $USLKUP  ACALL    BEGIN    CEIL     CLEAR    COMPROC
                                                              CSECT    DATA     DECR     DEFCC    DROP     DTEX     ELSE
                                                              ELSEIF   END      EQS      EX       EXIT     FLAG     GEN
                                                              HIBAL    IDENT    IF       INCR     LABEL    LC
                                                              LCALL    LCM      LOOP     LS       LT       LTH
                                                              LTORG    L2       L3       L4       MOVE     PEND     POP
                                                              PRINT    PROC     PUSH     QLTORG   RECORD   REG      REGS
                                                              SET      SETMSG   START    USING    VCALL    WHILE    WITH
                                                              XPROC
   L3 SYS3.IS.MACLIB                                SYSB05    ASYNTRC  CONSTRC  ELFTRC   FDB      FSB      KWR      MIB
                                                              PDB      PDPTRC   PSB      RQST     SEG      SEGCB
                                                              SEGCLR   SEGCR    SEGDC    SEGDEF   SEGHX    SEGLD    SEGT
                                                              SEGWR    SIB      SSB      SYSDEFN  VFTRACE  VIRTTRC
                                                              VPTRACE  XPOP     XPUSH
   L5 SYS1.MACLIB                                   MVSBR9    IHBINNRA WTO

1TINT     (TINT2047) (12:57) (15MAR04) Dsect Cross Reference                                                                Page  125
-Dsect     Length      Id       Defn                                                         HLASM R4.0  2004/03/15 12.57
0$$$@R0   00000000  FFFFFFFE     705
 $$$@R1   00000000  FFFFFFFD     718
 $$$@R10  00000000  FFFFFFF4     835
 $$$@R11  00000000  FFFFFFF3     848
 $$$@R12  00000000  FFFFFFF2     861
 $$$@R13  00000000  FFFFFFF1     874
 $$$@R14  00000000  FFFFFFF0     887
 $$$@R15  00000000  FFFFFFEF     900
 $$$@R2   00000000  FFFFFFFC     731
 $$$@R3   00000000  FFFFFFFB     744
 $$$@R4   00000000  FFFFFFFA     757
 $$$@R5   00000000  FFFFFFF9     770
 $$$@R6   00000000  FFFFFFF8     783
 $$$@R7   00000000  FFFFFFF7     796
 $$$@R8   00000000  FFFFFFF6     809
 $$$@R9   00000000  FFFFFFF5     822
 $$$RATRC 00000036  FFFFFFE1    7500
 $$$RBROADWA
          000003C3  FFFFFFCC   16957
 $$$RCP   00001000  FFFFFFEC    2452
 $$$RCTRC 00000036  FFFFFFE2    7446
 $$$RCV   00000FB0  FFFFFFEE    1177
 $$$RDEV  0000000C  FFFFFFEB    4666
 $$$RFDB  00000010  FFFFFFE3    7328
 $$$RFSB  00000090  FFFFFFE4    7121
 $$$RJCB  000000D0  FFFFFFE9    6304
 $$$RKILLWA
          0000029A  FFFFFFCB   18213
 $$$RKRWA 000000FE  FFFFFFC9   18856
 $$$RKSWA 000002FA  FFFFFFCA   18360
 $$$RKWR  000001F8  FFFFFFE5    6906
 $$$RLGSESSWA
          00000009  FFFFFFD6    9030
 $$$RMCLSWA
          0000029A  FFFFFFD0   13872
 $$$RMDEVWA
          00000448  FFFFFFD3   11573
 $$$RMOPNWA
          0000029A  FFFFFFD1   13401
 $$$RNSCNCB
          000000B0  FFFFFFED    2373
 $$$RPDB  00000038  FFFFFFE6    6708
 $$$RPSB  00000074  FFFFFFDB    7840
 $$$RPTRC 0000003A  FFFFFFE0    7581
 $$$RRNE  00000030  FFFFFFD8    8856
 $$$RRNGCB
          0000029A  FFFFFFD7    8908
 $$$RRQST 00000012  FFFFFFE7    6664
 $$$RSETOWA
          0000029A  FFFFFFCD   16513
 $$$RSHNETWA
          0000221C  FFFFFFD4   10475
 $$$RSHPRTWA
          000006DC  FFFFFFD2   12263
 $$$RSSB  00000038  FFFFFFDA    8111
1TINT     (TINT2047) (12:57) (15MAR04) Dsect Cross Reference                                                                Page  126
 $$$RSTOPWA
          0000029A  FFFFFFCE   15349
 $$$RSTRTWA
          0000029A  FFFFFFCF   14388
 $$$RSYSCWA
          00000042  FFFFFFD5    9941
 $$$RTTRC 00000048  FFFFFFDF    7632
 $$$RTTYPE
          0000010C  FFFFFFEA    6197
 $$$RVFTRACE
          00000020  FFFFFFDD    7737
 $$$RVPTRACE
          00000020  FFFFFFDC    7796
 $$$RVTRC 00000052  FFFFFFDE    7694
 $$$R42   000000FC  FFFFFFE8    6588
 $$$R63   000000FE  FFFFFFD9    8156
 HIBAL    00000000  FFFFFFFF     691

1TINT     (TINT2047) (12:57) (15MAR04) Using Map                                                                            Page  127
-                                                                                            HLASM R4.0  2004/03/15 12.57
   Stmt  -----Location----- Action ----------------Using----------------- Reg Max    Last  Label and Using Text
           Count      Id           Type          Value    Range     Id        Disp   Stmt
0   922  00000000  FFFFFFFF USING  ORDINARY    00000000 00001000 FFFFFFEF  15 004    9425  @R15,15
    926  00000000  FFFFFFFF USING  ORDINARY    00000000 00001000 FFFFFFF0  14 002    9455  @R14,14
    930  00000000  FFFFFFFF USING  ORDINARY    00000000 00001000 FFFFFFF1  13 000   15595  @R13,13
    934  00000000  FFFFFFFF USING  ORDINARY    00000000 00001000 FFFFFFF2  12 000          @R12,12
    938  00000000  FFFFFFFF USING  ORDINARY    00000000 00001000 FFFFFFF3  11 000          @R11,11
    942  00000000  FFFFFFFF USING  ORDINARY    00000000 00001000 FFFFFFF4  10 000          @R10,10
    946  00000000  FFFFFFFF USING  ORDINARY    00000000 00001000 FFFFFFF5   9 000          @R9,9
    950  00000000  FFFFFFFF USING  ORDINARY    00000000 00001000 FFFFFFF6   8 000          @R8,8
    954  00000000  FFFFFFFF USING  ORDINARY    00000000 00001000 FFFFFFF7   7 000          @R7,7
    958  00000000  FFFFFFFF USING  ORDINARY    00000000 00001000 FFFFFFF8   6 000          @R6,6
    962  00000000  FFFFFFFF USING  ORDINARY    00000000 00001000 FFFFFFF9   5 000          @R5,5
    966  00000000  FFFFFFFF USING  ORDINARY    00000000 00001000 FFFFFFFA   4 008   13135  @R4,4
    970  00000000  FFFFFFFF USING  ORDINARY    00000000 00001000 FFFFFFFB   3 000          @R3,3
    974  00000000  FFFFFFFF USING  ORDINARY    00000000 00001000 FFFFFFFC   2 000          @R2,2
    978  00000000  FFFFFFFF USING  ORDINARY    00000000 00001000 FFFFFFFD   1 004   10383  @R1,1
    982  00000000  FFFFFFFF USING  ORDINARY    00000000 00001000 FFFFFFFE   0 000          @R0,0
    983  00000000  FFFFFFFF DROP                                            0              0
   1161  00000017  00000001 USING  ORDINARY    00000000 00001000 FFFFFFEC  11 D5A   24847  CP,CPR
   1170  00000017  00000001 USING  ORDINARY    00000000 00001000 FFFFFFEE  12 A1C   24852  CV,CVR
   9088  00000032  00000001 USING  ORDINARY    00000032 00001000 00000001   7 31A    9347  $$$73B,7
   9102  00000032  00000001 USING  ORDINARY    FFFFFFD8 00001000 FFFFFFD6   8 030    9238  LGSESSWA-(4+36),R8
   9360  000000CE  00000001 USING  ORDINARY    00000000 00001000 FFFFFFF6   8 000          @R8,8
   9365  000000CE  00000001 USING  ORDINARY    00000000 00001000 FFFFFFF7   7 000          @R7,7
   9410  000000F6  00000001 USING  ORDINARY    000000F6 00001000 00000001   7 25C    9471  $$$82B,7
   9478  0000012A  00000001 USING  ORDINARY    00000000 00001000 FFFFFFF7   7 000          @R7,7
   9532  00000152  00000001 USING  ORDINARY    00000152 00001000 00000001   7 1F2    9899  $$$88B,7
   9546  00000152  00000001 USING  ORDINARY    FFFFFFD8 00001000 FFFFFFDA   8 04C    9898  SSB-(4+36),R8
   9907  00000270  00000001 USING  ORDINARY    00000000 00001000 FFFFFFF6   8 000          @R8,8
   9912  00000270  00000001 USING  ORDINARY    00000000 00001000 FFFFFFF7   7 000          @R7,7
   9993  00000298  00000001 USING  ORDINARY    00000298 00001000 00000001   7 088   10153  $$$92B,7
  10007  00000298  00000001 USING  ORDINARY    FFFFFFD8 00001000 FFFFFFD5   8 032   10144  SYSCWA-(4+36),R8
  10109  000002D2  00000001 USING  ORDINARY    00000000 00001000 FFFFFFDA   6 004   10144  SSB,R6
  10150  000002EE  00000001 USING  ORDINARY    00000000 00001000 FFFFFFF8   6 000          @R6,6
  10165  000002F6  00000001 USING  ORDINARY    00000000 00001000 FFFFFFF6   8 000          @R8,8
  10170  000002F6  00000001 USING  ORDINARY    00000000 00001000 FFFFFFF7   7 000          @R7,7
  10263  00000372  00000001 USING  ORDINARY    00000372 00001000 00000001   7 07E   10424  $$$98B,7
  10277  00000372  00000001 USING  ORDINARY    FFFFFFD8 00001000 FFFFFFD5   8 032   10415  SYSCWA-(4+36),R8
  10379  000003AC  00000001 USING  ORDINARY    00000000 00001000 FFFFFFDA   6 004   10415  SSB,R6
  10421  000003CE  00000001 USING  ORDINARY    00000000 00001000 FFFFFFF8   6 000          @R6,6
  10436  000003D6  00000001 USING  ORDINARY    00000000 00001000 FFFFFFF6   8 000          @R8,8
  10441  000003D6  00000001 USING  ORDINARY    00000000 00001000 FFFFFFF7   7 000          @R7,7
  10642  0000040E  00000001 USING  ORDINARY    0000040E 00001000 00000001   7 8C4   10784  $$$112B,7
  10664  0000041E  00000001 USING  ORDINARY    00000000 00001000 FFFFFFD4   6 2DC   11501  SHNETWA,R6
  10747  00000478  00000001 USING  ORDINARY    00000000 00001000 FFFFFFD7  15 003   10768  RNGCB,R15
  10775  00000480  00000001 USING  ORDINARY    00000000 00001000 FFFFFFEF  15 000          @R15,15
  10794  00000490  00000001 USING  ORDINARY    00000000 00001000 FFFFFFF7   7 000          @R7,7
  10900  0000055A  00000001 USING  ORDINARY    0000055A 00001000 00000001   7 000          $$$116B,7
  10921  0000055E  00000001 USING  ORDINARY    00000000 00001000 FFFFFFF7   7 000          @R7,7
  10966  00000586  00000001 USING  ORDINARY    00000586 00001000 00000001   7 000          $$$119B,7
  10987  0000058A  00000001 USING  ORDINARY    00000000 00001000 FFFFFFF7   7 000          @R7,7
  11073  00000602  00000001 USING  ORDINARY    00000602 00001000 00000001   7 6D7   11524  $$$122B,7
  11091  00000608  00000001 USING  ORDINARY    00000000 00001000 FFFFFFE4   5 004   11448  FSB,R5
  11254  00000678  00000001 USING  ORDINARY    00000000 00001000 FFFFFFE3   1 002   11267  FDBT1,R1
1TINT     (TINT2047) (12:57) (15MAR04) Using Map                                                                            Page  128
  11303  0000069A  00000001 USING  ORDINARY    00000000 00001000 FFFFFFFD   1 000          @R1,1
  11331  000006B2  00000001 USING  ORDINARY    00000000 00001000 FFFFFFE3  15 00C   11338  FDBF1,R15
  11345  000006C2  00000001 USING  ORDINARY    00000000 00001000 FFFFFFEF  15 000   12482  @R15,15
  11445  000006FC  00000001 DROP                                           14              14
  11449  00000702  00000001 USING  ORDINARY    00000000 00001000 FFFFFFF0  14 000          @R14,14
  11541  00000742  00000001 USING  ORDINARY    00000000 00001000 FFFFFFF7   7 000          @R7,7
  11561  00000750  00000001 USING  ORDINARY    00000000 00001000 FFFFFFF9   5 000          @R5,5
  11568  00000750  00000001 USING  ORDINARY    00000000 00001000 FFFFFFF8   6 000          @R6,6
  11734  0000076A  00000001 USING  ORDINARY    0000076A 00001000 00000001   7 56F   12228  $$$140B,7
  11748  0000076A  00000001 USING  ORDINARY    FFFFFFD8 00001000 FFFFFFD3   8 074   12205  MDEVWA-(4+36),R8
  12241  00000908  00000001 USING  ORDINARY    00000000 00001000 FFFFFFF6   8 000          @R8,8
  12246  00000908  00000001 USING  ORDINARY    00000000 00001000 FFFFFFF7   7 000          @R7,7
  12432  00000930  00000001 USING  ORDINARY    00000930 00001000 00000001   7 3BE   12560  $$$157B,7
  12446  00000930  00000001 USING  ORDINARY    FFFFFFD8 00001000 FFFFFFD2   8 028   12450  SHPRTWA-(4+36),R8
  12458  00000934  00000001 USING  ORDINARY    00000000 00001000 FFFFFFD2   6 2DC   13260  SHPRTWA,R6
  12523  00000978  00000001 USING  ORDINARY    00000000 00001000 FFFFFFD7  15 003   12544  RNGCB,R15
  12551  00000980  00000001 USING  ORDINARY    00000000 00001000 FFFFFFEF  15 000          @R15,15
  12569  00000990  00000001 USING  ORDINARY    00000000 00001000 FFFFFFF7   7 000          @R7,7
  12663  00000A4A  00000001 USING  ORDINARY    00000A4A 00001000 00000001   7 000          $$$160B,7
  12673  00000A4A  00000001 USING  ORDINARY    00000000 00001000 FFFFFFF6   8 000          @R8,R8
  12687  00000A4E  00000001 USING  ORDINARY    00000000 00001000 FFFFFFF7   7 000          @R7,7
  12732  00000A76  00000001 USING  ORDINARY    00000A76 00001000 00000001   7 000          $$$163B,7
  12753  00000A7A  00000001 USING  ORDINARY    00000000 00001000 FFFFFFF7   7 000          @R7,7
  12805  00000AA2  00000001 USING  ORDINARY    00000AA2 00001000 00000001   7 237   13283  $$$166B,7
  12823  00000AA8  00000001 USING  ORDINARY    00000000 00001000 FFFFFFDB   5 008   13207  PSB,R5
  13012  00000B24  00000001 USING  ORDINARY    00000000 00001000 FFFFFFE3   1 004   13026  FDBT2,R1
  13062  00000B4C  00000001 USING  ORDINARY    00000000 00001000 FFFFFFFD   1 000          @R1,1
  13090  00000B64  00000001 USING  ORDINARY    00000000 00001000 FFFFFFE3  15 010   13097  FDBF2,R15
  13104  00000B74  00000001 USING  ORDINARY    00000000 00001000 FFFFFFEF  15 000          @R15,15
  13204  00000BAE  00000001 DROP                                           14              14
  13208  00000BB4  00000001 USING  ORDINARY    00000000 00001000 FFFFFFF0  14 000          @R14,14
  13300  00000BF4  00000001 USING  ORDINARY    00000000 00001000 FFFFFFF7   7 000          @R7,7
  13320  00000C02  00000001 USING  ORDINARY    00000000 00001000 FFFFFFF9   5 000          @R5,5
  13327  00000C02  00000001 USING  ORDINARY    00000000 00001000 FFFFFFF8   6 000          @R6,6
  13452  00000D0E  00000001 USING  ORDINARY    00000D0E 00001000 00000001   7 852   13526  $$$176B,7
  13466  00000D0E  00000001 USING  ORDINARY    FFFFFFD8 00001000 FFFFFFD1   8 228   13512  MOPNWA-(4+36),R8
  13536  00000D58  00000001 USING  ORDINARY    00000000 00001000 FFFFFFF6   8 000          @R8,8
  13541  00000D58  00000001 USING  ORDINARY    00000000 00001000 FFFFFFF7   7 000          @R7,7
  13593  00000D80  00000001 USING  ORDINARY    00000D80 00001000 00000001   7 884   13828  $$$180B,7
  13610  00000D82  00000001 USING  ORDINARY    00000000 00001000 FFFFFFE4   6 069   13785  FSB,R6
  13676  00000DB0  00000001 USING  ORDINARY    00000000 00001000 FFFFFFE3   1 004   13695  FDBT101,R1
  13729  00000DD2  00000001 USING  ORDINARY    00000000 00001000 FFFFFFFD   1 000          @R1,1
  13843  00000E2A  00000001 USING  ORDINARY    00000000 00001000 FFFFFFF7   7 000          @R7,7
  13863  00000E38  00000001 USING  ORDINARY    00000000 00001000 FFFFFFF8   6 000          @R6,6
  13923  00000E52  00000001 USING  ORDINARY    00000E52 00001000 00000001   7 70E   13997  $$$186B,7
  13937  00000E52  00000001 USING  ORDINARY    FFFFFFD8 00001000 FFFFFFD0   8 228   13983  MCLSWA-(4+36),R8
  14007  00000E9C  00000001 USING  ORDINARY    00000000 00001000 FFFFFFF6   8 000          @R8,8
  14012  00000E9C  00000001 USING  ORDINARY    00000000 00001000 FFFFFFF7   7 000          @R7,7
  14064  00000EC4  00000001 USING  ORDINARY    00000EC4 00001000 00000001   7 750   14344  $$$190B,7
  14081  00000EC6  00000001 USING  ORDINARY    00000000 00001000 FFFFFFE4   6 078   14301  FSB,R6
  14192  00000F16  00000001 USING  ORDINARY    00000000 00001000 FFFFFFE3   1 004   14211  FDBT101,R1
  14245  00000F38  00000001 USING  ORDINARY    00000000 00001000 FFFFFFFD   1 000          @R1,1
  14359  00000F90  00000001 USING  ORDINARY    00000000 00001000 FFFFFFF7   7 000          @R7,7
  14379  00000F9E  00000001 USING  ORDINARY    00000000 00001000 FFFFFFF8   6 000          @R6,6
  14439  00000FB8  00000001 USING  ORDINARY    00000FB8 00001000 00000001   7 5A8   14510  $$$195B,7
  14453  00000FB8  00000001 USING  ORDINARY    FFFFFFD8 00001000 FFFFFFCF   8 228   14499  STRTWA-(4+36),R8
  14520  00001004  00000001 USING  ORDINARY    00000000 00001000 FFFFFFF6   8 000          @R8,8
  14525  00001004  00000001 USING  ORDINARY    00000000 00001000 FFFFFFF7   7 000          @R7,7
  14582  0000102C  00000001 USING  ORDINARY    0000102C 00001000 00000001   7 558   14644  $$$199B,7
1TINT     (TINT2047) (12:57) (15MAR04) Using Map                                                                            Page  129
  14620  0000103A  00000001 USING  ORDINARY    00000000 00001000 FFFFFFE4   6 000          FSB,R6
  14634  0000103C  00000001 USING  ORDINARY    00000000 00001000 FFFFFFF8   6 000          @R6,6
  14659  00001040  00000001 USING  ORDINARY    00000000 00001000 FFFFFFDB   6 000          PSB,R6
  14673  00001042  00000001 USING  ORDINARY    00000000 00001000 FFFFFFF8   6 000          @R6,6
  14685  00001042  00000001 USING  ORDINARY    00000000 00001000 FFFFFFF7   7 000          @R7,7
  14738  0000106A  00000001 USING  ORDINARY    0000106A 00001000 00000001   7 5C0   15311  $$$204B,7
  14775  00001074  00000001 USING  ORDINARY    00000000 00001000 FFFFFFE4   6 069   14922  FSB,R6
  14816  0000108E  00000001 USING  ORDINARY    00000000 00001000 FFFFFFE3   1 004   14835  FDBT101,R1
  14869  000010B0  00000001 USING  ORDINARY    00000000 00001000 FFFFFFFD   1 000          @R1,1
  14995  00001112  00000001 USING  ORDINARY    00000000 00001000 FFFFFFF8   6 000          @R6,6
  15009  00001112  00000001 USING  ORDINARY    00000000 00001000 FFFFFFDB   6 04B   15243  PSB,R6
  15076  00001140  00000001 USING  ORDINARY    00000000 00001000 FFFFFFE3   1 006   15096  FDBT102,R1
  15130  00001168  00000001 USING  ORDINARY    00000000 00001000 FFFFFFFD   1 000   15575  @R1,1
  15318  000011F8  00000001 USING  ORDINARY    00000000 00001000 FFFFFFF8   6 000          @R6,6
  15328  000011F8  00000001 USING  ORDINARY    00000000 00001000 FFFFFFF7   7 000          @R7,7
  15400  00001220  00000001 USING  ORDINARY    00001220 00001000 00000001   7 40B   15622  $$$213B,7
  15414  00001220  00000001 USING  ORDINARY    FFFFFFD8 00001000 FFFFFFCE   8 028   15611  STOPWA-(4+36),R8
  15631  00001316  00000001 USING  ORDINARY    00000000 00001000 FFFFFFF6   8 000          @R8,8
  15636  00001316  00000001 USING  ORDINARY    00000000 00001000 FFFFFFF7   7 000          @R7,7
  15683  0000133E  00000001 USING  ORDINARY    0000133E 00001000 00000001   7 22A   15702  $$$222B,7
  15712  00001350  00000001 USING  ORDINARY    00000000 00001000 FFFFFFF7   7 000          @R7,7
  15769  00001378  00000001 USING  ORDINARY    00001378 00001000 00000001   7 20C   15879  $$$225B,7
  15807  00001386  00000001 USING  ORDINARY    00000000 00001000 FFFFFFE4   6 069   15820  FSB,R6
  15838  00001390  00000001 USING  ORDINARY    00000000 00001000 FFFFFFF8   6 000          @R6,6
  15863  00001394  00000001 USING  ORDINARY    00000000 00001000 FFFFFFDB   6 04B   15876  PSB,R6
  15894  0000139E  00000001 USING  ORDINARY    00000000 00001000 FFFFFFF8   6 000          @R6,6
  15906  0000139E  00000001 USING  ORDINARY    00000000 00001000 FFFFFFF7   7 000          @R7,7
  15959  000013C6  00000001 USING  ORDINARY    000013C6 00001000 00000001   7 264   16425  $$$232B,7
  15996  000013D0  00000001 USING  ORDINARY    00000000 00001000 FFFFFFE4   6 00C   16111  FSB,R6
  16012  000013D6  00000001 USING  ORDINARY    00000000 00001000 FFFFFFE3   1 004   16031  FDBT101,R1
  16065  000013F8  00000001 USING  ORDINARY    00000000 00001000 FFFFFFFD   1 000          @R1,1
  16176  0000144E  00000001 USING  ORDINARY    00000000 00001000 FFFFFFF8   6 000          @R6,6
  16190  0000144E  00000001 USING  ORDINARY    00000000 00001000 FFFFFFDB   6 018   16367  PSB,R6
  16207  00001454  00000001 USING  ORDINARY    00000000 00001000 FFFFFFE3   1 006   16227  FDBT102,R1
  16261  0000147C  00000001 USING  ORDINARY    00000000 00001000 FFFFFFFD   1 001   18440  @R1,1
  16432  000014F8  00000001 USING  ORDINARY    00000000 00001000 FFFFFFF8   6 000          @R6,6
  16442  000014F8  00000001 USING  ORDINARY    00000000 00001000 FFFFFFF7   7 000          @R7,7
  16564  0000164C  00000001 USING  ORDINARY    0000164C 00001000 00000001   7 91C   16643  $$$238B,7
  16578  0000164C  00000001 USING  ORDINARY    FFFFFFD8 00001000 FFFFFFCD   8 228   16629  SETOWA-(4+36),R8
  16652  00001696  00000001 USING  ORDINARY    00000000 00001000 FFFFFFF7   7 000          @R7,7
  16692  000016B0  00000001 USING  ORDINARY    000016B0 00001000 00000001   7 8C4   16924  $$$241B,7
  16702  000016B0  00000001 USING  ORDINARY    00000000 00001000 FFFFFFF6   8 000          @R8,R8
  16712  000016B2  00000001 USING  ORDINARY    00000000 00001000 FFFFFFD9   6 080   16920  SIB,R6
  16932  00001736  00000001 USING  ORDINARY    00000000 00001000 FFFFFFF7   7 000          @R7,7
  16952  00001744  00000001 USING  ORDINARY    00000000 00001000 FFFFFFF8   6 000          @R6,6
  17101  0000175E  00000001 USING  ORDINARY    0000175E 00001000 00000001   7 8C1   17598  $$$256B,7
  17115  0000175E  00000001 USING  ORDINARY    FFFFFFD8 00001000 FFFFFFCC   8 028   17124  BROADWA-(4+36),R8
  17133  0000176C  00000001 USING  ORDINARY    00000000 00001000 FFFFFFCC   6 300   17587  BROADWA,R6
  17608  0000192E  00000001 USING  ORDINARY    00000000 00001000 FFFFFFF6   8 000          @R8,8
  17613  0000192E  00000001 USING  ORDINARY    00000000 00001000 FFFFFFF7   7 000          @R7,7
  17669  00001956  00000001 USING  ORDINARY    00001956 00001000 00000001   7 018   17727  $$$268B,7
  17686  00001958  00000001 USING  ORDINARY    00000000 00001000 FFFFFFF8   6 000          @R6,6
  17689  00001958  00000001 USING  ORDINARY    00000000 00001000 FFFFFFD9   6 0AA   17724  SIB,R6
  17747  0000196E  00000001 USING  ORDINARY    00000000 00001000 FFFFFFF7   7 000          @R7,7
  17767  0000197C  00000001 USING  ORDINARY    00000000 00001000 FFFFFFF8   6 000          @R6,6
  17807  00001996  00000001 USING  ORDINARY    00001996 00001000 00000001   7 6B1   18164  $$$274B,7
  17824  0000199A  00000001 USING  ORDINARY    00000000 00001000 FFFFFFCC   6 2BC   17886  BROADWA,R6
  17834  0000199C  00000001 USING  ORDINARY    00000000 00001000 FFFFFFD9   5 075   18063  SIB,R5
  18060  00001A38  00000001 DROP                                            2              2
1TINT     (TINT2047) (12:57) (15MAR04) Using Map                                                                            Page  130
  18064  00001A3E  00000001 USING  ORDINARY    00000000 00001000 FFFFFFFC   2 000   18815  @R2,2
  18177  00001A86  00000001 USING  ORDINARY    00000000 00001000 FFFFFFF7   7 000          @R7,7
  18197  00001A94  00000001 USING  ORDINARY    00000000 00001000 FFFFFFF9   5 000          @R5,5
  18204  00001A94  00000001 USING  ORDINARY    00000000 00001000 FFFFFFF8   6 000          @R6,6
  18264  00001AAE  00000001 USING  ORDINARY    00001AAE 00001000 00000001   7 4BA   18317  $$$281B,7
  18278  00001AAE  00000001 USING  ORDINARY    FFFFFFD8 00001000 FFFFFFCB   8 228   18306  KILLWA-(4+36),R8
  18327  00001AF2  00000001 USING  ORDINARY    00000000 00001000 FFFFFFF6   8 000          @R8,8
  18332  00001AF2  00000001 USING  ORDINARY    00000000 00001000 FFFFFFF7   7 000          @R7,7
  18411  00001B1A  00000001 USING  ORDINARY    00001B1A 00001000 00000001   7 52C   18795  $$$284B,7
  18425  00001B1A  00000001 USING  ORDINARY    FFFFFFD8 00001000 FFFFFFCA   8 228   18814  KSWA-(4+36),R8
  18451  00001B3A  00000001 USING  ORDINARY    00000000 00001000 FFFFFFD9   6 073   18815  SIB,R6
  18774  00001C0A  00000001 USING  ORDINARY    00000000 00001000 FFFFFFE5   1 000   18780  KWR,R1
  18787  00001C10  00000001 USING  ORDINARY    00000000 00001000 FFFFFFFD   1 008   19954  @R1,1
  18822  00001C24  00000001 USING  ORDINARY    00000000 00001000 FFFFFFF8   6 000          @R6,6
  18827  00001C24  00000001 USING  ORDINARY    00000000 00001000 FFFFFFF6   8 000          @R8,8
  18832  00001C24  00000001 USING  ORDINARY    00000000 00001000 FFFFFFF7   7 000          @R7,7
  18905  00001C4C  00000001 USING  ORDINARY    00001C4C 00001000 00000001   7 402   19807  $$$295B,7
  18919  00001C4C  00000001 USING  ORDINARY    FFFFFFD8 00001000 FFFFFFC9   8 028   18924  KRWA-(4+36),R8
  18934  00001C56  00000001 USING  ORDINARY    00000000 00001000 FFFFFFD9   6 073   19773  SIB,R6
  19821  00001EF8  00000001 USING  ORDINARY    00000000 00001000 FFFFFFF8   6 008   20003  @R6,6
  19826  00001EF8  00000001 USING  ORDINARY    00000000 00001000 FFFFFFF6   8 000          @R8,8
  19831  00001EF8  00000001 USING  ORDINARY    00000000 00001000 FFFFFFF7   7 000          @R7,7
  19945  0000208A  00000001 USING  ORDINARY    0000208A 00001000 00000001   7 0A6   20068  $$$301B,7
  20077  000020DE  00000001 USING  ORDINARY    00000000 00001000 FFFFFFF7   7 000          @R7,7
  20130  00002106  00000001 USING  ORDINARY    00002106 00001000 00000001   7 02C   20143  $$$306B,7
  20152  00002112  00000001 USING  ORDINARY    00000000 00001000 FFFFFFF7   7 000          @R7,7
  20223  00002170  00000001 USING  ORDINARY    00002170 00001000 00000001   7 020   20236  $$$309B,7
  20245  0000217C  00000001 USING  ORDINARY    00000000 00001000 FFFFFFF7   7 000          @R7,7
  20311  000021CE  00000001 USING  ORDINARY    000021CE 00001000 00000001   7 01A   20324  $$$312B,7
  20333  000021DA  00000001 USING  ORDINARY    00000000 00001000 FFFFFFF7   7 000          @R7,7
  20399  00002228  00000001 USING  ORDINARY    00002228 00001000 00000001   7 020   20412  $$$315B,7
  20421  00002234  00000001 USING  ORDINARY    00000000 00001000 FFFFFFF7   7 000          @R7,7
  20487  00002286  00000001 USING  ORDINARY    00002286 00001000 00000001   7 779   21824  $$$318B,7
  20506  00002288  00000001 USING  ORDINARY    00000000 00001000 FFFFFFDF   6 02E   21787  TTRC,R6
  20742  00002314  00000001 DROP                                            1              1
  20746  0000231A  00000001 USING  ORDINARY    00000000 00001000 FFFFFFFD   1 000          @R1,1
  20793  00002338  00000001 DROP                                            1              1
  20797  0000233E  00000001 USING  ORDINARY    00000000 00001000 FFFFFFFD   1 000          @R1,1
  21264  0000246A  00000001 DROP                                            1              1
  21268  00002470  00000001 USING  ORDINARY    00000000 00001000 FFFFFFFD   1 000          @R1,1
  21833  0000260A  00000001 USING  ORDINARY    00000000 00001000 FFFFFFF8   6 000          @R6,6
  21838  0000260A  00000001 USING  ORDINARY    00000000 00001000 FFFFFFF7   7 000          @R7,7
  21891  00002632  00000001 USING  ORDINARY    00002632 00001000 00000001   7 3D0   21904  $$$343B,7
  21913  0000263E  00000001 USING  ORDINARY    00000000 00001000 FFFFFFF7   7 000          @R7,7
  21966  00002666  00000001 USING  ORDINARY    00002666 00001000 00000001   7 38D   22799  $$$346B,7
  21983  00002668  00000001 USING  ORDINARY    00000000 00001000 FFFFFFDE   6 022   22762  VTRC,R6
  22489  000027A4  00000001 DROP                                           15              15
  22493  000027AA  00000001 USING  ORDINARY    00000000 00001000 FFFFFFEF  15 000          @R15,15
  22808  00002872  00000001 USING  ORDINARY    00000000 00001000 FFFFFFF7   7 000          @R7,7
  22854  0000289A  00000001 USING  ORDINARY    0000289A 00001000 00000001   7 190   23049  $$$363B,7
  22932  000028C8  00000001 USING  ORDINARY    00000000 00001000 FFFFFFE7   3 012   22939  RQST,R3
  22946  000028D0  00000001 USING  ORDINARY    00000000 00001000 FFFFFFFB   3 000          @R3,3
  23061  00002926  00000001 USING  ORDINARY    00000000 00001000 FFFFFFF7   7 000          @R7,7
  23082  00002934  00000001 USING  ORDINARY    00000000 00001000 FFFFFFF8   6 000          @R6,6
  23184  00002A4A  00000001 USING  ORDINARY    00002A4A 00001000 00000001   7 509   24850  $$$369B,7
  23222  00002A56  00000001 USING  ORDINARY    00000000 00001000 FFFFFFDC   6 01C   24002  VPTRACE,R6
  23296  00002A82  00000001 DROP                                           15              15
  23300  00002A88  00000001 USING  ORDINARY    00000000 00001000 FFFFFFEF  15 000          @R15,15
  23366  00002AB2  00000001 DROP                                           15              15
1TINT     (TINT2047) (12:57) (15MAR04) Using Map                                                                            Page  131
  23370  00002AB8  00000001 USING  ORDINARY    00000000 00001000 FFFFFFEF  15 000          @R15,15
  23436  00002AE2  00000001 DROP                                           15              15
  23440  00002AE8  00000001 USING  ORDINARY    00000000 00001000 FFFFFFEF  15 000          @R15,15
  23506  00002B12  00000001 DROP                                           15              15
  23510  00002B18  00000001 USING  ORDINARY    00000000 00001000 FFFFFFEF  15 000          @R15,15
  23576  00002B42  00000001 DROP                                           15              15
  23580  00002B48  00000001 USING  ORDINARY    00000000 00001000 FFFFFFEF  15 000          @R15,15
  23646  00002B72  00000001 DROP                                           15              15
  23650  00002B78  00000001 USING  ORDINARY    00000000 00001000 FFFFFFEF  15 000          @R15,15
  23717  00002BA2  00000001 DROP                                           15              15
  23721  00002BA8  00000001 USING  ORDINARY    00000000 00001000 FFFFFFEF  15 000          @R15,15
  23787  00002BD2  00000001 DROP                                           15              15
  23791  00002BD8  00000001 USING  ORDINARY    00000000 00001000 FFFFFFEF  15 000          @R15,15
  23858  00002C02  00000001 DROP                                           15              15
  23862  00002C08  00000001 USING  ORDINARY    00000000 00001000 FFFFFFEF  15 000          @R15,15
  24084  00002C96  00000001 USING  ORDINARY    00000000 00001000 FFFFFFF8   6 000          @R6,6
  24115  00002C9E  00000001 USING  ORDINARY    00000000 00001000 FFFFFFDD   6 01C   24775  VFTRACE,R6
  24188  00002CC0  00000001 DROP                                           15              15
  24192  00002CC6  00000001 USING  ORDINARY    00000000 00001000 FFFFFFEF  15 000          @R15,15
  24226  00002CEE  00000001 DROP                                           15              15
  24230  00002CF4  00000001 USING  ORDINARY    00000000 00001000 FFFFFFEF  15 000          @R15,15
  24296  00002D1E  00000001 DROP                                           15              15
  24300  00002D24  00000001 USING  ORDINARY    00000000 00001000 FFFFFFEF  15 000          @R15,15
  24471  00002D96  00000001 DROP                                           15              15
  24475  00002D9C  00000001 USING  ORDINARY    00000000 00001000 FFFFFFEF  15 000          @R15,15
  24545  00002DCA  00000001 DROP                                           15              15
  24549  00002DD0  00000001 USING  ORDINARY    00000000 00001000 FFFFFFEF  15 000          @R15,15
  24615  00002DFA  00000001 DROP                                           15              15
  24619  00002E00  00000001 USING  ORDINARY    00000000 00001000 FFFFFFEF  15 000          @R15,15
  24685  00002E2A  00000001 DROP                                           15              15
  24689  00002E30  00000001 USING  ORDINARY    00000000 00001000 FFFFFFEF  15 000          @R15,15
  24811  00002E80  00000001 USING  ORDINARY    00000000 00001000 FFFFFFF8   6 008   24817  @R6,6
  24859  00002EA8  00000001 USING  ORDINARY    00000000 00001000 FFFFFFF7   7 000          @R7,7

1         (TINT2047) (12:57) (15MAR04) General Purpose Register Cross Reference                                             Page  132
- Register  References (M=modified, B=branch, U=USING, D=DROP, N=index)                      HLASM R4.0  2004/03/15 12.57
0    0(0)      982U   983D  2097   2165M  2165   2166M  9070   9146   9237M  9237   9238M  9267M  9285M  9313M  9373M
              9393   9425M  9426   9486M  9514   9578M  9598M  9623M  9649M  9674   9676M  9684   9715M  9716M  9756M
              9774M  9798M  9816M  9841M  9859M  9884M  9884   9920M  9975  10059M 10079M 10178M 10245  10329M 10349M
             10449M 10625  10703M 10707  10717M 10780M 10780  10802M 10883  10929M 10949  10995M 11056  11120M 11173M
             11227M 11282M 11313M 11376M 11385M 11385  11442M 11513M 11549M 11716  11768M 11768  11777  11778  11779
             11810M 11810  11821M 11888M 11918M 11939M 11958M 11983M 12008M 12008  12033M 12033  12073M 12082M 12082
             12145M 12170M 12170  12217M 12254M 12414  12471M 12489M 12556M 12556  12646  12695M 12715  12761M 12788
             12852M 12905M 12940M 12940  12985M 13041M 13072M 13135M 13144M 13144  13201M 13272M 13308M 13434  13498M
             13522M 13522  13549M 13576  13632M 13657M 13710M 13740M 13770M 13773  13790M 13805M 13851M 13905  13969M
             13993M 13993  14020M 14047  14108M 14108  14126M 14154M 14170M 14226M 14256M 14286M 14289  14306M 14321M
             14367M 14421  14485M 14506M 14533M 14565  14605  14693M 14721  14760  14798M 14850M 14880M 14910M 14912
             14927M 14958M 15033M 15058M 15111M 15141M 15171M 15173  15188M 15222M 15248M 15279M 15336M 15382  15455M
             15455  15464  15465  15466  15497M 15497  15508M 15524M 15524  15562M 15562  15597M 15618M 15644M 15666
             15699M 15720M 15752  15792  15914M 15942  15981  16046M 16076M 16116M 16150M 16242M 16272M 16312M 16346M
             16372M 16406M 16450M 16546  16615M 16639M 16639  16675  16777M 16805M 16833M 16861M 16881M 16940M 17083
             17160M 17199M 17199  17208  17209  17210  17237M 17237  17249M 17256  17263M 17280M 17280  17302M 17332M
             17332  17367M 17375  17381  17384M 17393M 17393  17421M 17440M 17448  17450M 17507M 17524M 17552M 17568
             17573M 17594M 17621M 17652  17755M 17790  17858M 17886M 17932M 17970M 17998M 18016M 18044M 18087M 18108M
             18108  18153M 18185M 18246  18292M 18313M 18340M 18393  18567M 18597M 18597  18632M 18658M 18686M 18704M
             18732M 18750M 18792M 18792  18840M 18887  18962M 18980M 18980  18995M 19020M 19035M 19060M 19075M 19093M
             19093  19108M 19133M 19148M 19173M 19211M 19211  19248M 19248  19287M 19308M 19330M 19330  19349M 19377M
             19395M 19423M 19458M 19486M 19515M 19515  19540M 19540  19587M 19615M 19635M 19665M 19686M 19686  19704M
             19732M 19750M 19778M 19796M 19839M 19928  19955  19990M 20038M 20057M 20057  20085M 20113  20144M 20160M
             20206  20237M 20253M 20294  20325M 20341M 20382  20413M 20429M 20470  20510  20534M 20556M 20603M 20640M
             20690M 20723M 20750M 20750  20773M 20804M 20822M 20846M 20846  20880M 20942M 20972M 21027M 21072M 21090M
             21120M 21161M 21211M 21245M 21275M 21293M 21328M 21350M 21350  21403M 21448M 21487M 21511M 21511  21529M
             21557M 21575M 21600M 21625M 21625  21656M 21670M 21671M 21705  21707M 21758M 21792M 21813M 21813  21846M
             21874  21905M 21921M 21949  21985  22007M 22029M 22075M 22101M 22120M 22171M 22201M 22254M 22299M 22317M
             22347M 22388M 22438M 22471M 22500M 22558M 22579M 22579  22655M 22700M 22745M 22767M 22788M 22788  22816M
             22837  22864  22870M 22894M 22897  22909M 22939M 22951  22953M 22954M 22974M 22974  22987M 22987  22994
             23013M 23031M 23046M 23069M 23167  23194  23260M 23278M 23307M 23348M 23377M 23418M 23447M 23488M 23517M
             23558M 23587M 23628M 23657M 23698M 23728M 23769M 23798M 23839M 23869M 23927M 23951M 24017M 24041M 24173M
             24208M 24237M 24278M 24307M 24352M 24387M 24431M 24453M 24482M 24527M 24556M 24597M 24626M 24667M 24696M
             24751M 24787M 24818M 24819M 24839M 24839  24867M
     1(1)      978U  2097   2160M  2161M  2167M  9070   9230M  9262M  9284M  9308M  9327M  9373M  9393   9420M  9486M
              9514   9571M  9618M  9644M  9675   9676M  9727M  9749M  9773M  9791M  9815M  9834M  9858M  9920M  9975
             10054M 10178M 10245  10324M 10449M 10625  10702M 10706  10781M 10802M 10883  10929M 10949  10995M 11056
             11083  11127M 11166M 11191M 11223M 11243M 11254U 11303U 11376M 11438M 11512M 11549M 11716  11764M 11777N
             11778N 11779N 11800M 11801M 11801N 11820M 11883M 11913M 11957M 11976M 12073M 12138M 12216M 12254M 12414
             12557M 12646  12695M 12715  12761M 12788  12815  12859M 12898M 12923M 12980M 13001M 13012U 13062U 13135M
             13197M 13271M 13308M 13434  13523M 13549M 13576  13602  13631M 13656M 13665M 13676U 13729U 13769M 13773
             13785M 13805M 13851M 13905  13994M 14020M 14047  14073  14104M 14125M 14149M 14169M 14181M 14192U 14245U
             14285M 14289  14301M 14321M 14367M 14421  14507M 14533M 14565  14591  14693M 14721  14747  14797M 14805M
             14816U 14869U 14909M 14912  14922M 14958M 15032M 15057M 15065M 15076U 15130U 15170M 15173  15183M 15221M
             15243M 15279M 15336M 15382  15451M 15464N 15465N 15466N 15487M 15488M 15488N 15507M 15619M 15644M 15666
             15720M 15752  15778  15914M 15942  15968  16001M 16012U 16065U 16111M 16149M 16196M 16207U 16261U 16307M
             16345M 16367M 16405M 16450M 16546  16640M 16675  16704  16772M 16800M 16828M 16856M 16940M 17083  17155M
             17195M 17208N 17209N 17210N 17248M 17256  17262M 17300M 17366M 17375  17384M 17420M 17435M 17448  17454M
             17454  17500M 17524M 17552M 17567  17595M 17621M 17652  17678  17755M 17790  17826  17857M 17881M 17931M
             17949M 17969M 17993M 18015M 18039M 18086M 18115M 18152M 18185M 18246  18314M 18340M 18393  18439  18566M
             18580M 18631M 18657M 18681M 18703M 18727M 18749M 18764M 18774U 18787U 18840M 18887  18961M 18976M 18994M
             19015M 19034M 19055M 19074M 19089M 19107M 19128M 19147M 19168M 19307M 19326M 19348M 19372M 19394M 19418M
             19457M 19481M 19554M 19582M 19610M 19664M 19682M 19703M 19727M 19749M 19773M 19795M 19839M 19928  19983M
             20033M 20085M 20113  20143M 20160M 20206  20236M 20253M 20294  20324M 20341M 20382  20412M 20429M 20470
             20496  20533M 20555M 20596M 20639M 20689M 20722M 20742D 20744M 20744  20745M 20746U 20772M 20793D 20795M
1         (TINT2047) (12:57) (15MAR04) General Purpose Register Cross Reference                                             Page  133
             20795  20796M 20797U 20821M 20842M 20875M 20898M 20937M 20965M 21026M 21065M 21089M 21113M 21160M 21210M
             21244M 21264D 21266M 21266  21267M 21268U 21292M 21327M 21346M 21402M 21443M 21486M 21507M 21528M 21552M
             21574M 21593M 21649M 21669M 21753M 21787M 21846M 21874  21904M 21921M 21949  21975  22006M 22028M 22068M
             22096M 22127M 22166M 22194M 22253M 22292M 22316M 22340M 22387M 22437M 22470M 22507M 22557M 22586M 22654M
             22695M 22740M 22762M 22816M 22837  22863  22869M 22889M 22938M 22994  23006M 23030M 23046M 23069M 23167
             23193  23255M 23277M 23314M 23347M 23384M 23417M 23454M 23487M 23524M 23557M 23594M 23627M 23664M 23697M
             23735M 23768M 23805M 23838M 23876M 23926M 23958M 24016M 24048M 24168M 24207M 24244M 24277M 24314M 24351M
             24386M 24426M 24452M 24489M 24526M 24563M 24596M 24633M 24666M 24703M 24750M 24786M 24817M 24867M
     2(2)      974U  2097   9070   9373M  9393   9423M  9486M  9514   9653M  9653   9674M  9684M  9716   9920M  9975
             10178M 10245  10402  10449M 10625  10651M 10654  10802M 10883  10929M 10949  10995M 11056  11549M 11716
             12254M 12414  12646  12695M 12715  12761M 12788  13308M 13434  13549M 13576  13851M 13905  14020M 14047
             14367M 14421  14533M 14565  14693M 14721  15336M 15382  15644M 15666  15720M 15752  15914M 15942  16450M
             16546  16675  16940M 17083  17381M 17441M 17450  17458M 17458  17621M 17652  17755M 17790  18060D 18062M
             18062  18063M 18064U 18076  18104  18185M 18246  18340M 18393  18814M 18840M 18887  19839M 19928  20085M
             20113  20160M 20206  20253M 20294  20341M 20382  20429M 20470  20835M 20836M 20842  21310M 21311M 21346
             21389M 21389  21418  21430M 21448  21846M 21874  21921M 21949  22540M 22541M 22575  22641M 22641  22670
             22682M 22700  22816M 22837  22864M 22894  22951  22953  23069M 23167  24867M
     3(3)      970U  2097   9070   9373M  9393   9424M  9486M  9514   9675M  9920M  9975  10178M 10245  10449M 10625
             10802M 10883  10929M 10949  10995M 11056  11549M 11716  12254M 12414  12646  12695M 12715  12761M 12788
             13308M 13434  13549M 13576  13851M 13905  14020M 14047  14367M 14421  14533M 14565  14693M 14721  15336M
             15382  15644M 15666  15720M 15752  15914M 15942  16450M 16546  16675  16940M 17083  17460M 17460  17621M
             17652  17755M 17790  18185M 18246  18340M 18393  18840M 18887  19839M 19928  20085M 20113  20160M 20206
             20253M 20294  20341M 20382  20429M 20470  21846M 21874  21921M 21949  22816M 22837  22863M 22889  22932U
             22946U 23069M 23167  24002M 24003M 24003  24034  24867M
     4(4)      966U  2097   9070   9373M  9393   9486M  9514   9920M  9975  10178M 10245  10449M 10625  10802M 10883
             10929M 10949  10995M 11056  11338M 11438  11480M 11549M 11716  11949M 12184M 12254M 12414  12646  12695M
             12715  12761M 12788  13097M 13197  13239M 13308M 13434  13549M 13576  13851M 13905  14020M 14047  14367M
             14421  14533M 14565  14693M 14721  15336M 15382  15644M 15666  15720M 15752  15914M 15942  16450M 16546
             16675  16940M 17083  17621M 17652  17755M 17790  18185M 18246  18340M 18393  18840M 18887  19839M 19928
             20085M 20113  20160M 20206  20253M 20294  20341M 20382  20429M 20470  21846M 21874  21921M 21949  22816M
             22837  23069M 23167  24867M
     5(5)      962U  2097   9070   9373M  9393   9486M  9514   9920M  9975  10178M 10245  10449M 10625  10802M 10883
             10929M 10949  10995M 11056  11083M 11091U 11549M 11561U 11716  12254M 12414  12646  12695M 12715  12761M
             12788  12815M 12823U 13308M 13320U 13434  13549M 13576  13851M 13905  14020M 14047  14367M 14421  14533M
             14565  14693M 14721  15336M 15382  15644M 15666  15720M 15752  15914M 15942  16450M 16546  16675  16940M
             17083  17621M 17652  17755M 17790  17826M 17834U 18185M 18197U 18246  18340M 18393  18840M 18887  19839M
             19928  19955M 19956M 20004M 20038  20085M 20113  20160M 20206  20253M 20294  20341M 20382  20429M 20470
             20510M 21792  21846M 21874  21921M 21949  21985M 22767  22816M 22837  23069M 23167  23194M 23236  24129
             24818  24867M
     6(6)      958U  2097   9070   9373M  9393   9486M  9514   9559M  9559   9560   9898M  9920M  9975  10099M 10109U
             10150U 10178M 10245  10369M 10379U 10421U 10449M 10625  10653M 10664U 10675  10802M 10883  10929M 10949
             10995M 11056  11082M 11549M 11568U 11716  12254M 12414  12450M 12458U 12469  12646  12695M 12715  12761M
             12788  12814M 13308M 13327U 13434  13549M 13576  13602M 13610U 13851M 13863U 13905  14020M 14047  14073M
             14081U 14367M 14379U 14421  14533M 14565  14591M 14620U 14634U 14659U 14673U 14693M 14721  14747M 14775U
             14995U 15009U 15318U 15336M 15382  15644M 15666  15720M 15752  15778M 15807U 15838U 15863U 15894U 15914M
             15942  15968M 15996U 16176U 16190U 16432U 16450M 16546  16675  16704M 16712U 16940M 16952U 17083  17124M
             17125  17133U 17621M 17652  17678M 17686U 17689U 17755M 17767U 17790  17816M 17824U 18185M 18204U 18246
             18340M 18393  18441M 18451U 18822U 18840M 18887  18924M 18934U 19821U 19839M 19928  19954M 19983  20003M
             20033  20085M 20113  20160M 20206  20253M 20294  20341M 20382  20429M 20470  20496M 20506U 21833U 21846M
             21874  21921M 21949  21975M 21983U 22816M 22837  23069M 23082U 23167  23193M 23222U 24084U 24115U 24811U
             24867M
     7(7)      954U  2090M  2090   2091B  2097   2103B  9070   9076M  9088U  9365U  9373M  9393   9398M  9410U  9478U
              9486M  9514   9520M  9532U  9912U  9920M  9975   9981M  9993U 10170U 10178M 10245  10251M 10263U 10441U
             10449M 10625  10630M 10642U 10794U 10802M 10883  10888M 10900U 10921U 10929M 10949  10954M 10966U 10987U
             10995M 11056  11061M 11073U 11541U 11549M 11716  11722M 11734U 12246U 12254M 12414  12420M 12432U 12569U
             12646  12651M 12663U 12687U 12695M 12715  12720M 12732U 12753U 12761M 12788  12793M 12805U 13300U 13308M
             13434  13440M 13452U 13541U 13549M 13576  13581M 13593U 13843U 13851M 13905  13911M 13923U 14012U 14020M
             14047  14052M 14064U 14359U 14367M 14421  14427M 14439U 14525U 14533M 14565  14570M 14582U 14685U 14693M
             14721  14726M 14738U 15328U 15336M 15382  15388M 15400U 15636U 15644M 15666  15671M 15683U 15712U 15720M
1         (TINT2047) (12:57) (15MAR04) General Purpose Register Cross Reference                                             Page  134
             15752  15757M 15769U 15906U 15914M 15942  15947M 15959U 16442U 16450M 16546  16552M 16564U 16652U 16675
             16680M 16692U 16932U 16940M 17083  17089M 17101U 17613U 17621M 17652  17657M 17669U 17747U 17755M 17790
             17795M 17807U 18177U 18185M 18246  18252M 18264U 18332U 18340M 18393  18399M 18411U 18832U 18840M 18887
             18893M 18905U 19831U 19839M 19928  19933M 19945U 20077U 20085M 20113  20118M 20130U 20152U 20160M 20206
             20211M 20223U 20245U 20253M 20294  20299M 20311U 20333U 20341M 20382  20387M 20399U 20421U 20429M 20470
             20475M 20487U 21838U 21846M 21874  21879M 21891U 21913U 21921M 21949  21954M 21966U 22808U 22816M 22837
             22842M 22854U 23061U 23069M 23167  23172M 23184U 24859U 24867M
     8(8)      950U  2097   9070   9072M  9102U  9360U  9369   9373M  9393   9394M  9482   9486M  9514   9516M  9546U
              9907U  9916   9920M  9975   9977M 10007U 10165U 10174  10178M 10245  10247M 10277U 10436U 10445  10449M
             10625  10626M 10798  10802M 10883  10884M 10925  10929M 10949  10950M 10991  10995M 11056  11057M 11545
             11549M 11716  11718M 11748U 12241U 12250  12254M 12414  12416M 12446U 12646  12647M 12673U 12691  12695M
             12715  12716M 12757  12761M 12788  12789M 13304  13308M 13434  13436M 13466U 13536U 13545  13549M 13576
             13577M 13847  13851M 13905  13907M 13937U 14007U 14016  14020M 14047  14048M 14363  14367M 14421  14423M
             14453U 14520U 14529  14533M 14565  14566M 14689  14693M 14721  14722M 15332  15336M 15382  15384M 15414U
             15631U 15640  15644M 15666  15667M 15716  15720M 15752  15753M 15910  15914M 15942  15943M 16446  16450M
             16546  16548M 16578U 16675  16676M 16702U 16936  16940M 17083  17085M 17115U 17608U 17617  17621M 17652
             17653M 17751  17755M 17790  17791M 18181  18185M 18246  18248M 18278U 18327U 18336  18340M 18393  18395M
             18425U 18827U 18836  18840M 18887  18889M 18919U 19826U 19835  19839M 19928  19929M 20081  20085M 20113
             20114M 20156  20160M 20206  20207M 20249  20253M 20294  20295M 20337  20341M 20382  20383M 20425  20429M
             20470  20471M 21842  21846M 21874  21875M 21917  21921M 21949  21950M 22812  22816M 22837  22838M 23065
             23069M 23167  23168M 24863  24867M
     9(9)      946U  2097
    10(A)      942U  2097
    11(B)      938U  1161U  2097
    12(C)      934U  1170U  2097
    13(D)      930U  2097   9067   9070   9072   9073M  9073   9369M  9373   9375   9390   9393   9394   9395M  9395
              9420   9421M  9421   9471M  9482M  9486   9488   9511   9514   9516   9517M  9517   9678   9679M  9679
              9710M  9916M  9920   9922   9972   9975   9977   9978M  9978  10174M 10178  10180  10242  10245  10247
             10248M 10248  10445M 10449  10451  10622  10625  10626  10627M 10627  10653  10654M 10655M 10655  10656M
             10798M 10802  10804  10880  10883  10884  10885M 10885  10925M 10929  10931  10946  10949  10950  10951M
             10951  10991M 10995  10997  11053  11056  11057  11058M 11058  11243  11244M 11244  11296M 11545M 11549
             11551  11713  11716  11718  11719M 11719  11772  11773  11774  11776M 11776  11788M 11789  11790  11791
             12250M 12254  12256  12411  12414  12416  12417M 12417  12643  12646  12647  12648M 12648  12691M 12695
             12697  12712  12715  12716  12717M 12717  12757M 12761  12763  12785  12788  12789  12790M 12790  13001
             13002M 13002  13055M 13304M 13308  13310  13431  13434  13436  13437M 13437  13545M 13549  13551  13573
             13576  13577  13578M 13578  13665  13666M 13666  13732M 13773  13774M 13774  13804M 13805  13847M 13851
             13853  13902  13905  13907  13908M 13908  14016M 14020  14022  14044  14047  14048  14049M 14049  14181
             14182M 14182  14248M 14289  14290M 14290  14320M 14321  14363M 14367  14369  14418  14421  14423  14424M
             14424  14529M 14533  14535  14562  14565  14566  14567M 14567  14689M 14693  14695  14718  14721  14722
             14723M 14723  14805  14806M 14806  14872M 14912  14913M 14913  14957M 14958  15065  15066M 15066  15133M
             15173  15174M 15174  15278M 15279  15332M 15336  15338  15379  15382  15384  15385M 15385  15446  15448M
             15448  15459  15460  15461  15463M 15463  15475M 15476  15477  15478  15594M 15640M 15644  15646  15663
             15666  15667  15668M 15668  15716M 15720  15722  15749  15752  15753  15754M 15754  15910M 15914  15916
             15939  15942  15943  15944M 15944  16001  16002M 16002  16068M 16196  16197M 16197  16264M 16446M 16450
             16452  16543  16546  16548  16549M 16549  16672  16675  16676  16677M 16677  16936M 16940  16942  17080
             17083  17085  17086M 17086  17203  17204  17205  17207M 17207  17219M 17220  17221  17222  17256  17257M
             17257  17375  17376M 17376  17383M 17384  17448  17449M 17449  17462  17463M 17463  17521M 17523M 17524
             17551M 17552  17617M 17621  17623  17649  17652  17653  17654M 17654  17751M 17755  17757  17787  17790
             17791  17792M 17792  18181M 18185  18187  18243  18246  18248  18249M 18249  18336M 18340  18342  18390
             18393  18395  18396M 18396  18836M 18840  18842  18884  18887  18889  18890M 18890  19267  19268M 19268
             19301M 19835M 19839  19841  19925  19928  19929  19930M 19930  20081M 20085  20087  20110  20113  20114
             20115M 20115  20156M 20160  20162  20203  20206  20207  20208M 20208  20249M 20253  20255  20291  20294
             20295  20296M 20296  20337M 20341  20343  20379  20382  20383  20384M 20384  20425M 20429  20431  20467
             20470  20471  20472M 20472  21842M 21846  21848  21871  21874  21875  21876M 21876  21917M 21921  21923
             21946  21949  21950  21951M 21951  22812M 22816  22818  22834  22837  22838  22839M 22839  22994  22995M
             22995  23045M 23046  23065M 23069  23071  23164  23167  23168  23169M 23169  24863M 24867  24869
    14(E)      926U  2097   2098M  2112   2113M  2114B  2116M  2117B  2137M  2138B  2142M  2143B  2145M  2146B  2148M
              2149B  2151M  2152B  2154M  2155M  2155B  2161   9067   9218M  9219M  9219B  9249M  9250M  9250B  9278M
              9279M  9279B  9296M  9297M  9297B  9324M  9325M  9325B  9330M  9331M  9331B  9333M  9347M  9348M  9348B
1         (TINT2047) (12:57) (15MAR04) General Purpose Register Cross Reference                                             Page  135
              9375M  9378B  9390   9428M  9488M  9491B  9511   9553M  9554M  9554B  9589M  9590M  9590B  9601M  9602M
              9602B  9634M  9635M  9635B  9672M  9673M  9673B  9682M  9683M  9683B  9707M  9708M  9708B  9742M  9743M
              9743B  9767M  9768M  9768B  9785M  9786M  9786B  9809M  9810M  9810B  9827M  9828M  9828B  9852M  9853M
              9853B  9870M  9871M  9871B  9895M  9896M  9896B  9922M  9925B  9972  10042M 10043M 10043B 10070M 10071M
             10071B 10082M 10083M 10083B 10180M 10183B 10242  10312M 10313M 10313B 10340M 10341M 10341B 10352M 10353M
             10353B 10451M 10454B 10622  10696M 10697M 10697B 10705M 10706N 10707N 10711M 10711  10721M 10722  10726M
             10726  10734M 10735M 10735B 10784M 10785M 10785B 10804M 10807B 10880  10931M 10934B 10946  10997M 11000B
             11053  11130M 11131M 11131B 11154M 11155M 11155B 11184M 11185M 11185B 11194M 11195M 11195B 11238M 11239M
             11239B 11293M 11294M 11294B 11316M 11317M 11317B 11404M 11405M 11405B 11428M 11429M 11429B 11445D 11447M
             11447  11448M 11449U 11461  11471M 11471  11476M 11477M 11477N 11478M 11478B 11524M 11525M 11525B 11551M
             11554B 11713  11771M 11772  11773  11774  11782M 11783M 11783B 11786M 11789  11790  11791  11796M 11797M
             11797B 11841M 11842M 11842B 11868M 11869M 11869B 11899M 11900M 11900B 11929M 11930M 11930B 11942M 11943M
             11943B 11969M 11970M 11970B 11994M 11995M 11995B 12019M 12020M 12020B 12044M 12045M 12045B 12101M 12102M
             12102B 12125M 12126M 12126B 12156M 12157M 12157B 12181M 12182M 12182B 12228M 12229M 12229B 12256M 12259B
             12411  12497M 12498  12502M 12502  12510M 12511M 12511B 12560M 12561M 12561B 12643  12697M 12700B 12712
             12763M 12766B 12785  12862M 12863M 12863B 12886M 12887M 12887B 12916M 12917M 12917B 12926M 12927M 12927B
             12951M 12952M 12952B 12996M 12997M 12997B 13052M 13053M 13053B 13075M 13076M 13076B 13163M 13164M 13164B
             13187M 13188M 13188B 13204D 13206M 13206  13207M 13208U 13220  13230M 13230  13235M 13236M 13236N 13237M
             13237B 13283M 13284M 13284B 13310M 13313B 13431  13502M 13503  13507M 13507  13515M 13516M 13516B 13526M
             13527M 13527B 13551M 13554B 13573  13721M 13722M 13722B 13743M 13744M 13744B 13760M 13761M 13761B 13801M
             13802M 13802B 13828M 13829M 13829B 13853M 13856B 13902  13973M 13974  13978M 13978  13986M 13987M 13987B
             13997M 13998M 13998B 14022M 14025B 14044  14119M 14120M 14120B 14137M 14138M 14138B 14165M 14166M 14166B
             14173M 14174M 14174B 14237M 14238M 14238B 14259M 14260M 14260B 14276M 14277M 14277B 14317M 14318M 14318B
             14344M 14345M 14345B 14369M 14372B 14418  14489M 14490  14494M 14494  14502M 14503M 14503B 14510M 14511M
             14511B 14535M 14538B 14562  14695M 14698B 14718  14861M 14862M 14862B 14883M 14884M 14884B 14900M 14901M
             14901B 14930M 14931M 14931B 14954M 14955M 14955B 14981M 14982M 14982B 15122M 15123M 15123B 15144M 15145M
             15145B 15161M 15162M 15162B 15191M 15192M 15192B 15215M 15216M 15216B 15233M 15234M 15234B 15251M 15252M
             15252B 15275M 15276M 15276B 15302M 15303M 15303B 15338M 15341B 15379  15436M 15437M 15437B 15445M 15446
             15458M 15459  15460  15461  15469M 15470M 15470B 15473M 15476  15477  15478  15483M 15484M 15484B 15546M
             15547M 15547B 15584M 15585M 15585B 15592M 15595  15601M 15602  15606M 15606  15614M 15615M 15615B 15622M
             15623M 15623B 15646M 15649B 15663  15702M 15703M 15703B 15722M 15725B 15749  15916M 15919B 15939  16057M
             16058M 16058B 16079M 16080M 16080B 16096M 16097M 16097B 16119M 16120M 16120B 16143M 16144M 16144B 16161M
             16162M 16162B 16253M 16254M 16254B 16275M 16276M 16276B 16292M 16293M 16293B 16315M 16316M 16316B 16339M
             16340M 16340B 16357M 16358M 16358B 16375M 16376M 16376B 16399M 16400M 16400B 16417M 16418M 16418B 16452M
             16455B 16543  16619M 16620  16624M 16624  16632M 16633M 16633B 16643M 16644M 16644B 16672  16788M 16789M
             16789B 16816M 16817M 16817B 16844M 16845M 16845B 16872M 16873M 16873B 16884M 16885M 16885B 16942M 16945B
             17080  17121M 17122M 17122B 17171M 17172M 17172B 17202M 17203  17204  17205  17213M 17214M 17214B 17217M
             17220  17221  17222  17227M 17228M 17228B 17261M 17262N 17263N 17267M 17267  17360M 17361M 17361B 17379M
             17380M 17380B 17466M 17467M 17467B 17489M 17490M 17490B 17518M 17519M 17519B 17547M 17548M 17548B 17566M
             17567N 17568N 17572M 17572  17577M 17578  17582M 17582  17590M 17591M 17591B 17598M 17599M 17599B 17623M
             17626B 17649  17757M 17760B 17787  17869M 17870M 17870B 17909M 17910M 17910B 17943M 17944M 17944B 17952M
             17953M 17953B 17981M 17982M 17982B 18009M 18010M 18010B 18027M 18028M 18028B 18055M 18056M 18056B 18098M
             18099M 18099B 18118M 18119M 18119B 18142M 18143M 18143B 18164M 18165M 18165B 18187M 18190B 18243  18296M
             18297  18301M 18301  18309M 18310M 18310B 18317M 18318M 18318B 18342M 18345B 18390  18578M 18579M 18579B
             18583M 18584M 18584B 18608M 18609M 18609B 18635M 18636M 18636B 18669M 18670M 18670B 18697M 18698M 18698B
             18715M 18716M 18716B 18743M 18744M 18744B 18761M 18762M 18762B 18795M 18796M 18796B 18842M 18845B 18884
             18971M 18972M 18972B 18989M 18990M 18990B 19004M 19005M 19005B 19029M 19030M 19030B 19044M 19045M 19045B
             19069M 19070M 19070B 19084M 19085M 19085B 19102M 19103M 19103B 19117M 19118M 19118B 19142M 19143M 19143B
             19157M 19158M 19158B 19182M 19183M 19183B 19220M 19221M 19221B 19259M 19260M 19260B 19264M 19265M 19265B
             19271M 19272M 19272B 19298M 19299M 19299B 19319M 19320M 19320B 19341M 19342M 19342B 19360M 19361M 19361B
             19388M 19389M 19389B 19406M 19407M 19407B 19434M 19435M 19435B 19469M 19470M 19470B 19497M 19498M 19498B
             19526M 19527M 19527B 19551M 19552M 19552B 19557M 19558M 19558B 19563M 19564M 19564B 19598M 19599M 19599B
             19626M 19627M 19627B 19638M 19639M 19639B 19676M 19677M 19677B 19697M 19698M 19698B 19715M 19716M 19716B
             19743M 19744M 19744B 19761M 19762M 19762B 19789M 19790M 19790B 19807M 19808M 19808B 19841M 19844B 19925
             20001M 20002M 20002B 20041M 20042M 20042B 20068M 20069M 20069B 20087M 20090B 20110  20162M 20165B 20203
             20255M 20258B 20291  20343M 20346B 20379  20431M 20434B 20467  20583M 20584M 20584B 20614M 20615M 20615B
             20651M 20652M 20652B 20701M 20702M 20702B 20734M 20735M 20735B 20761M 20762M 20762B 20784M 20785M 20785B
             20815M 20816M 20816B 20833M 20834M 20834B 20857M 20858M 20858B 20925M 20926M 20926B 20953M 20954M 20954B
             20983M 20984M 20984B 21038M 21039M 21039B 21083M 21084M 21084B 21101M 21102M 21102B 21131M 21132M 21132B
1         (TINT2047) (12:57) (15MAR04) General Purpose Register Cross Reference                                             Page  136
             21172M 21173M 21173B 21222M 21223M 21223B 21256M 21257M 21257B 21286M 21287M 21287B 21304M 21305M 21305B
             21339M 21340M 21340B 21361M 21362M 21362B 21414M 21415M 21415B 21451M 21452M 21452B 21498M 21499M 21499B
             21522M 21523M 21523B 21540M 21541M 21541B 21568M 21569M 21569B 21586M 21587M 21587B 21611M 21612M 21612B
             21636M 21637M 21637B 21667M 21668M 21668B 21711M 21712M 21712B 21769M 21770M 21770B 21796M 21797M 21797B
             21824M 21825M 21825B 21848M 21851B 21871  21923M 21926B 21946  22056M 22057M 22057B 22086M 22087M 22087B
             22103M 22130M 22131M 22131B 22154M 22155M 22155B 22182M 22183M 22183B 22212M 22213M 22213B 22265M 22266M
             22266B 22310M 22311M 22311B 22328M 22329M 22329B 22358M 22359M 22359B 22399M 22400M 22400B 22449M 22450M
             22450B 22482M 22483M 22483B 22510M 22511M 22511B 22534M 22535M 22535B 22569M 22570M 22570B 22589M 22590M
             22590B 22613M 22614M 22614B 22666M 22667M 22667B 22703M 22704M 22704B 22747M 22771M 22772M 22772B 22799M
             22800M 22800B 22818M 22821B 22834  22881M 22882M 22882B 22920M 22921M 22921B 23024M 23025M 23025B 23042M
             23043M 23043B 23049M 23050M 23050B 23071M 23074B 23164  23271M 23272M 23272B 23289M 23290M 23290B 23317M
             23318M 23318B 23341M 23342M 23342B 23359M 23360M 23360B 23387M 23388M 23388B 23411M 23412M 23412B 23429M
             23430M 23430B 23457M 23458M 23458B 23481M 23482M 23482B 23499M 23500M 23500B 23527M 23528M 23528B 23551M
             23552M 23552B 23569M 23570M 23570B 23597M 23598M 23598B 23621M 23622M 23622B 23639M 23640M 23640B 23667M
             23668M 23668B 23691M 23692M 23692B 23709M 23710M 23710B 23738M 23739M 23739B 23762M 23763M 23763B 23780M
             23781M 23781B 23808M 23809M 23809B 23832M 23833M 23833B 23850M 23851M 23851B 23879M 23880M 23880B 23903M
             23904M 23904B 23938M 23939M 23939B 23961M 23962M 23962B 23985M 23986M 23986B 24028M 24029M 24029B 24051M
             24052M 24052B 24075M 24076M 24076B 24184M 24185M 24185B 24219M 24220M 24220B 24247M 24248M 24248B 24271M
             24272M 24272B 24289M 24290M 24290B 24317M 24318M 24318B 24341M 24342M 24342B 24363M 24364M 24364B 24398M
             24399M 24399B 24442M 24443M 24443B 24464M 24465M 24465B 24492M 24493M 24493B 24516M 24517M 24517B 24538M
             24539M 24539B 24566M 24567M 24567B 24590M 24591M 24591B 24608M 24609M 24609B 24636M 24637M 24637B 24660M
             24661M 24661B 24678M 24679M 24679B 24706M 24707M 24707B 24730M 24731M 24731B 24762M 24763M 24763B 24798M
             24799M 24799B 24822M 24823M 24823B 24850M 24851M 24851B 24869M 24872B
    15(F)      922U  2097   9146M  9149   9161M  9166   9170M  9179M  9179   9186   9215M  9246M  9275M  9293M  9321M
              9344M  9377M  9377   9422M  9423   9432M  9441M  9441   9448   9490M  9490   9586M  9631M  9678M  9704M
              9739M  9764M  9782M  9806M  9824M  9849M  9867M  9892M  9924M  9924  10039M 10067M 10135M 10135  10158M
             10182M 10182  10309M 10337M 10406M 10406  10429M 10453M 10453  10730M 10730  10731M 10747U 10775U 10806M
             10806  10933M 10933  10999M 10999  11113M 11151M 11181M 11235M 11290M 11321M 11331U 11345U 11401M 11425M
             11431M 11483M 11484M 11485  11521M 11553M 11553  11792M 11792  11855  11864  11896M 11926M 11966M 11991M
             12016M 12041M 12098M 12122M 12153M 12178M 12187M 12188M 12189  12225M 12258M 12258  12506M 12506  12507M
             12523U 12551U 12699M 12699  12765M 12765  12845M 12883M 12913M 12948M 12993M 13049M 13080M 13090U 13104U
             13160M 13184M 13190M 13242M 13243M 13244  13280M 13312M 13312  13511M 13511  13512M 13553M 13553  13718M
             13798M 13825M 13855M 13855  13982M 13982  13983M 14024M 14024  14086M 14087M 14087  14104  14116M 14134M
             14162M 14234M 14314M 14341M 14371M 14371  14498M 14498  14499M 14537M 14537  14592M 14628M 14628  14667M
             14667  14697M 14697  14858M 14951M 14978M 15119M 15212M 15230M 15272M 15299M 15340M 15340  15479M 15479
             15610M 15610  15611M 15648M 15648  15724M 15724  15779M 15832M 15832  15888M 15888  15918M 15918  16054M
             16140M 16158M 16250M 16336M 16354M 16396M 16414M 16454M 16454  16628M 16628  16629M 16759M 16760M 16761
             16785M 16813M 16841M 16869M 16911  16944M 16944  17168M 17223M 17223  17357M 17462M 17486M 17515M 17544M
             17586M 17586  17587M 17625M 17625  17696M 17736M 17736  17759M 17759  17866M 17906M 17940M 17978M 18006M
             18024M 18052M 18095M 18104M 18139M 18161M 18189M 18189  18305M 18305  18306M 18344M 18344  18460M 18521M
             18521  18538M 18538  18575M 18605M 18666M 18694M 18712M 18740M 18758M 18805M 18805  18844M 18844  18968M
             18986M 19001M 19026M 19041M 19066M 19081M 19099M 19114M 19139M 19154M 19179M 19217M 19256M 19267M 19295M
             19316M 19338M 19357M 19385M 19403M 19431M 19466M 19494M 19523M 19548M 19560M 19595M 19623M 19673M 19694M
             19712M 19740M 19758M 19786M 19804M 19843M 19843  19969  19998M 20005M 20021M 20065M 20089M 20089  20164M
             20164  20257M 20257  20345M 20345  20433M 20433  20525  20580M 20611M 20648M 20698M 20731M 20758M 20781M
             20812M 20830M 20854M 20922M 20950M 20980M 21035M 21080M 21098M 21128M 21169M 21219M 21253M 21283M 21301M
             21336M 21358M 21411M 21495M 21500M 21501M 21507  21519M 21537M 21565M 21583M 21608M 21633M 21664M 21701M
             21705  21707  21708M 21766M 21793M 21821M 21850M 21850  21925M 21925  21998  22053M 22083M 22113M 22151M
             22179M 22209M 22262M 22307M 22325M 22355M 22396M 22446M 22479M 22489D 22491M 22491  22492M 22493U 22531M
             22566M 22575M 22610M 22663M 22768M 22796M 22820M 22820  22878M 22917M 22917  23021M 23039M 23073M 23073
             23207  23268M 23286M 23296D 23298M 23298  23299M 23300U 23338M 23356M 23366D 23368M 23368  23369M 23370U
             23408M 23426M 23436D 23438M 23438  23439M 23440U 23478M 23496M 23506D 23508M 23508  23509M 23510U 23548M
             23566M 23576D 23578M 23578  23579M 23580U 23618M 23636M 23646D 23648M 23648  23649M 23650U 23688M 23706M
             23717D 23719M 23719  23720M 23721U 23759M 23777M 23787D 23789M 23789  23790M 23791U 23829M 23847M 23858D
             23860M 23860  23861M 23862U 23900M 23935M 23944M 23982M 24025M 24034M 24072M 24100  24181M 24188D 24190M
             24190  24191M 24192U 24193M 24193N 24194B 24216M 24226D 24228M 24228  24229M 24230U 24268M 24286M 24296D
             24298M 24298  24299M 24300U 24338M 24360M 24395M 24439M 24461M 24471D 24473M 24473  24474M 24475U 24513M
             24535M 24545D 24547M 24547  24548M 24549U 24587M 24605M 24615D 24617M 24617  24618M 24619U 24657M 24675M
             24685D 24687M 24687  24688M 24689U 24727M 24759M 24795M 24816M 24847M 24871M 24871
1         (TINT2047) (12:57) (15MAR04) General Purpose Register Cross Reference                                             Page  137

1TINT     (TINT2047) (12:57) (15MAR04) Diagnostic Cross Reference and Assembler Summary                                     Page  138
-                                                                                            HLASM R4.0  2004/03/15 12.57
0     No Statements Flagged in this Assembly
 HIGH LEVEL ASSEMBLER, 5696-234, RELEASE 4.0, PTF P72483
0SYSTEM: OS/390 02.10.00            JOBNAME: WYL#TINT    STEPNAME: ASM        PROCSTEP: (NOPROC)
0Datasets Allocated for this Assembly
  Con DDname   Dataset Name                                 Volume  Member
   P1 SYSIN    WYL.GS.WYL.WYLBUR.SOURCE                     SYSB05  TINT
   L1 SYSLIB   WYL.GS.WYL.WYLBUR.MACLIB                     SYSB05
   L2          WYL.GG.SYS.MACLIB                            SYSB05
   L3          SYS3.IS.MACLIB                               SYSB05
   L4          SYS3.MACLIB                                  SYSB02
   L5          SYS1.MACLIB                                  MVSBR9
   L6          SYS1.MODGEN                                  MVSBR9
      SYSPRINT SYS04075.T125729.RA000.WYL#TINT.PRINT.H01    SCR101
      SYSTERM  GG$SLP.WYL#TINT.JOB03576.D0000101.?

    3668K allocated to Buffer Pool,         3369K would be required for this to be an In-Storage Assembly
    1862 Primary Input Records Read        11137 Library Records Read                  0 Work File Reads
       0 ASMAOPT Records Read              11685 Primary Print Records Written         0 Work File Writes
       0 Punch Records Written                 0 ADATA Records Written
0Assembly Start Time: 12.57.31 Stop Time: 12.57.47 Processor Time: 00.00.04.7213
 Return Code 000
