1                        J E S 2  J O B  L O G  --  S Y S T E M  S Y S B  --  N O D E  R L G
0
 12.43.07 JOB03518 ---- MONDAY,    15 MAR 2004 ----
 12.43.07 JOB03518  ICH70001I GG$SLP   LAST ACCESS AT 12:42:57 ON MONDAY, MARCH 15, 2004
 12.43.07 JOB03518  $HASP373 WYL#DSEC STARTED - INIT 6    - CLASS B - SYS SYSB
 12.43.07 JOB03518  ***  HCMD      STEP $$QUIET
 12.43.07 JOB03518  PUR * Q OUT MUL
 12.43.07 JOB03518  JOB 5382 WYL#DSEC WILL BE PURGED
 12.43.08 JOB03518  WYL#DSEC.$$QUIET .         RC=Zero TapeIO=0000 DiskIO=0000 CPU=  .01s Elapsed=87.43s
 12.43.16 JOB03518  WYL#DSEC.ASM     .         RC=Zero TapeIO=0000 DiskIO=0674 CPU= 1.86s Elapsed=88.55s
 12.43.19 JOB03518  WYL#DSEC.EDIT    .         RC=Zero TapeIO=0000 DiskIO=0189 CPU=  .79s Elapsed=96.92s
 12.43.19 JOB03518  WYL#DSEC Ended.  Name=Assemble DSECTS                Total CPU= 2.66s Elapsed=87.43s
 12.43.19 JOB03518
 12.43.19 JOB03518  Execution charges   Priority=Standard   Block=Day
 12.43.19 JOB03518
 12.43.19 JOB03518  CPU Usage          48.37          $29.98   Standard Processing Unit Equivalent
 12.43.19 JOB03518                                   =======
 12.43.19 JOB03518                                    $29.98   Total Job execution charge
 12.43.19 JOB03518
 12.43.19 JOB03518  See back separator page for print charges
 12.43.19 JOB03518
 12.43.19 JOB03518  $HASP395 WYL#DSEC ENDED  ASM=0, EDIT=0
1        1 //WYL#DSEC JOB SLP$GG,'Assemble DSECTS',TIME=4,REGION=4M                JOB03518
           //*
           /*JOBPARM LINES=99,COPIES=1
           /*JOBPARM FORMS=3HOL,PFORMAT=LAND,CHARS=BD13,DUPLEX=YES,FLASH=BAR4
           //*
           /*JOBPARM NOTIFY=GG.SLP,HOLD=OUTPUT                                     WYLGEN
         2 //$$QUIET EXEC PGM=HCMDX,PARM='PUR * Q OUT MUL'
           //*
         3 //ASM    EXEC PGM=ASMA90,REGION=8M,
           //            PARM=('NORENT,TERM,FLAG(NOCONT),US(MAP,WARN(10)),NODECK',
           //            'LC(32767),XREF(SHORT),ESD,DXREF,NOOBJECT')
         4 //STEPLIB DD DSN=SYS3.IS.TESTASM,DISP=SHR
         5 //SYSLIB   DD  DSN=WYL.GS.WYL.WYLBUR.MACLIB,DISP=SHR
         6 //         DD  DSN=WYL.GG.SYS.MACLIB,DISP=SHR
         7 //         DD  DSN=SYS3.IS.MACLIB,DISP=SHR
         8 //         DD  DSN=SYS3.MACLIB,DISP=SHR
         9 //         DD  DSN=SYS1.MACLIB,DISP=SHR
        10 //         DD  DSN=SYS1.MODGEN,DISP=SHR
        11 //SYSUT1   DD DSN=&&SYSUT1,UNIT=VIO,DISP=(,DELETE),
           //            SPACE=(4088,(500,250),,CONTIG,ROUND)
        12 //SYSTERM  DD SYSOUT=T
        13 //SYSPRINT DD DSN=&&PRINT,UNIT=SYSDA,DISP=(,PASS),
           //            SPACE=(6650,(250,250),RLSE),
           //            DCB=(BLKSIZE=6650,LRECL=133,RECFM=FB)
        14 //SYSUDUMP DD SYSOUT=A
        15 //SYSIN    DD  DSN=WYL.GS.WYL.WYLBUR.SOURCE(DSECTS),DISP=SHR
           //*
        16 //EDIT    EXEC PGM=ASMEDIT,TIME=2,REGION=4000K,
           //             PARM='STMT'
        17 //STEPLIB  DD  DSN=WYL.GG.SYS.LINKLIB,DISP=SHR
        18 //ASMOUT   DD  DSN=&PRINT,DISP=(OLD,DELETE)
        19 //SYSPRINT DD  SYSOUT=A
1 STMT NO. MESSAGE
 -
        11 IGD01010I STORCLAS= TEMP STORGROUP =
        11 IGD01010I STORGRP=VIO ASSIGNED.
        13 IGD01010I STORCLAS= TEMP STORGROUP =
        13 IGD01010I STORGRP=VIO ASSIGNED.
 ICH70001I GG$SLP   LAST ACCESS AT 12:42:57 ON MONDAY, MARCH 15, 2004
 IEF142I WYL#DSEC $$QUIET - STEP WAS EXECUTED - COND CODE 0000
 *********************************************************************************
 *   WYL#DSEC/$$QUIET /                    Return Code      Zero                 *
 *   Region used      260K (16K user + 244K system)                              *
 *   Extended region  9692K (4K user + 9688K system)                             *
 *                                                                               *
 *   Paging              In      Out                                             *
 *   Private <-> Aux      0        0       CPU time (TCB)   00:00:00.01          *
 *   Private <-> Exp      0        0       CPU time (SRB)   00:00:00.00          *
 *   VIO                  0        0       Elapsed time    917:44:45.53          *
 *   Common               0      ---                                             *
 *                                                                               *
 *                                                                               *
 *   CPU Usage          0.18         $0.11  Standard Processing Unit Equivalent  *
 *                                   $0.11  Total Step execution charge          *
 *                                                                               *
 *    I/O count  DDname   Type Addr           I/O count  DDname   Type Addr      *
 *                         *** No I/O for this step ***                          *
 *********************************************************************************
 IEF373I STEP/$$QUIET /START 2004075.1243
 IEF374I STEP/$$QUIET /STOP  2004075.1243 CPU    0MIN 00.01SEC SRB    0MIN 00.00SEC VIRT    16K SYS   244K EXT       4K SYS    9688K
 IEF236I ALLOC. FOR WYL#DSEC ASM
 IEF237I 04DC ALLOCATED TO STEPLIB
 IEF237I 04DC ALLOCATED TO SYSLIB
 IEF237I 04DC ALLOCATED TO
 IEF237I 04DC ALLOCATED TO
 IEF237I 0402 ALLOCATED TO
 IEF237I 04A0 ALLOCATED TO
 IEF237I 04A0 ALLOCATED TO
 IGD101I SMS ALLOCATED TO DDNAME (SYSUT1  )
         DSN (SYS04075.T124307.RA000.WYL#DSEC.SYSUT1.H01  )
         STORCLAS (TEMP) MGMTCLAS (        ) DATACLAS (        )
         VOL SER NOS= VIO
 IEF237I JES2 ALLOCATED TO SYSTERM
 IGD101I SMS ALLOCATED TO DDNAME (SYSPRINT)
         DSN (SYS04075.T124307.RA000.WYL#DSEC.PRINT.H01   )
         STORCLAS (TEMP) MGMTCLAS (        ) DATACLAS (        )
         VOL SER NOS= SCR100
 IEF237I JES2 ALLOCATED TO SYSUDUMP
 IEF237I 04DC ALLOCATED TO SYSIN
 IEF142I WYL#DSEC ASM - STEP WAS EXECUTED - COND CODE 0000
 IEF285I   SYS3.IS.TESTASM                              KEPT
 IEF285I   VOL SER NOS= SYSB05.
 IEF285I   WYL.GS.WYL.WYLBUR.MACLIB                     KEPT
 IEF285I   VOL SER NOS= SYSB05.
 IEF285I   WYL.GG.SYS.MACLIB                            KEPT
 IEF285I   VOL SER NOS= SYSB05.
 IEF285I   SYS3.IS.MACLIB                               KEPT
 IEF285I   VOL SER NOS= SYSB05.
 IEF285I   SYS3.MACLIB                                  KEPT
 IEF285I   VOL SER NOS= SYSB02.
 IEF285I   SYS1.MACLIB                                  KEPT
 IEF285I   VOL SER NOS= MVSBR9.
 IEF285I   SYS1.MODGEN                                  KEPT
 IEF285I   VOL SER NOS= MVSBR9.
 IGD105I SYS04075.T124307.RA000.WYL#DSEC.SYSUT1.H01   DELETED,   DDNAME=SYSUT1
 IEF285I   GG$SLP.WYL#DSEC.JOB03518.D0000101.?          SYSOUT
 IGD106I SYS04075.T124307.RA000.WYL#DSEC.PRINT.H01    PASSED,    DDNAME=SYSPRINT
 IEF285I   GG$SLP.WYL#DSEC.JOB03518.D0000102.?          SYSOUT
 IEF285I   WYL.GS.WYL.WYLBUR.SOURCE                     KEPT
 IEF285I   VOL SER NOS= SYSB05.
 *********************************************************************************
 *   WYL#DSEC/ASM     /                    Return Code      Zero                 *
 *   Region used      4376K (4096K user + 280K system)                           *
 *   Extended region  10292K (412K user + 9880K system)                          *
 *                                                                               *
 *   Paging              In      Out                                             *
 *   Private <-> Aux      0        0       CPU time (TCB)   00:00:01.80          *
 *   Private <-> Exp      0        0       CPU time (SRB)   00:00:00.06          *
 *   VIO                  0        0       Elapsed time    917:44:44.41          *
 *   Common               0      ---                                             *
 *                                                                               *
 *                                                                               *
 *   CPU Usage         33.75        $20.92  Standard Processing Unit Equivalent  *
 *                                  $20.92  Total Step execution charge          *
 *                                                                               *
 *    I/O count  DDname   Type Addr           I/O count  DDname   Type Addr      *
 *           84  STEPLIB  Disk 04DC                 239  SYSLIB   Disk 04DC      *
 *            0  SYSLIB   Disk 04DC                   0  SYSLIB   Disk 04DC      *
 *           15  SYSLIB   Disk 0402                 148  SYSLIB   Disk 04A0      *
 *            0  SYSLIB   Disk 04A0                   0  SYSUT1   VIO  ----      *
 *            0  SYSTERM       ----                 186  SYSPRINT Disk 038B      *
 *            0  SYSUDUMP      ----                   2  SYSIN    Disk 04DC      *
 *********************************************************************************
 IEF373I STEP/ASM     /START 2004075.1243
 IEF374I STEP/ASM     /STOP  2004075.1243 CPU    0MIN 01.80SEC SRB    0MIN 00.06SEC VIRT  4096K SYS   280K EXT     412K SYS    9880K
 IEF236I ALLOC. FOR WYL#DSEC EDIT
 IEF237I 0402 ALLOCATED TO STEPLIB
 IGD103I SMS ALLOCATED TO DDNAME ASMOUT
 IEF237I JES2 ALLOCATED TO SYSPRINT
 IEF142I WYL#DSEC EDIT - STEP WAS EXECUTED - COND CODE 0000
 IEF285I   WYL.GG.SYS.LINKLIB                           KEPT
 IEF285I   VOL SER NOS= SYSB02.
 IGD105I SYS04075.T124307.RA000.WYL#DSEC.PRINT.H01    DELETED,   DDNAME=ASMOUT
 IEF285I   GG$SLP.WYL#DSEC.JOB03518.D0000103.?          SYSOUT
 *********************************************************************************
 *   WYL#DSEC/EDIT    /                    Return Code      Zero                 *
 *   Region used      380K (116K user + 264K system)                             *
 *   Extended region  9812K (4K user + 9808K system)                             *
 *                                                                               *
 *   Paging              In      Out                                             *
 *   Private <-> Aux      0        0       CPU time (TCB)   00:00:00.77          *
 *   Private <-> Exp      0        0       CPU time (SRB)   00:00:00.02          *
 *   VIO                  0        0       Elapsed time    917:44:36.04          *
 *   Common               0      ---                                             *
 *                                                                               *
 *                                                                               *
 *   CPU Usage         14.43         $8.94  Standard Processing Unit Equivalent  *
 *                                   $8.94  Total Step execution charge          *
 *                                                                               *
 *    I/O count  DDname   Type Addr           I/O count  DDname   Type Addr      *
 *            2  STEPLIB  Disk 0402                 187  ASMOUT   Disk 038B      *
 *            0  SYSPRINT      ----                                              *
 *********************************************************************************
 IEF373I STEP/EDIT    /START 2004075.1243
 IEF374I STEP/EDIT    /STOP  2004075.1243 CPU    0MIN 00.77SEC SRB    0MIN 00.02SEC VIRT   116K SYS   264K EXT       4K SYS    9808K
 *********************************************************************************
 *                                                                               *
 *                      S t a n f o r d   U n i v e r s i t y                    *
 *                                                                               *
 *                              *** Job Summary ***                              *
 *                                                                               *
 *   System Id      SYSB                   Input time     12:39:17  Mar 15, 2004 *
 *                                                                               *
 *   System Release SP6.1.0                Start time     12:43:07  Mar 15, 2004 *
 *                                                                               *
 *   Job name       WYL#DSEC               Stop  time     00:00:00  Mar 15, 2004 *
 *                                                                               *
 *   Account        SLP$GG                 Elapsed time  917:44:45.53            *
 *                                                                               *
 *   User Name      Assemble DSECTS        CPU time       00:00:02.58            *
 *                                                                               *
 *   Job class      B                      SRB Time       00:00:00.08            *
 *                                                                               *
 *********************************************************************************
 IEF375I  JOB/WYL#DSEC/START 2004075.1243
 IEF376I  JOB/WYL#DSEC/STOP  2004075.1243 CPU    0MIN 02.58SEC SRB    0MIN 00.08SEC
1Assembler Done DSECTS No Statements Flagged
1         High Level Assembler Option Summary                   (PTF P72483 )                                               Page    1
-                                                                                            HLASM R4.0  2004/03/15 12.43
0  No Overriding ASMAOPT Parameters
   Overriding Parameters-  NORENT,TERM,FLAG(NOCONT),US(MAP,WARN(10)),NODECK,LC(32767),XREF(SHORT),ESD,DXREF,NOOBJECT
   No Process Statements


   Options for this Assembly
0  NOADATA
     ALIGN
   NOASA
     BATCH
     CODEPAGE(047C)
   NOCOMPAT
   NODBCS
 3 NODECK
 3   DXREF
 3   ESD
   NOEXIT
 3   FLAG(0,ALIGN,NOCONT,NOIMPLEN,NOPAGE0,PUSH,RECORD,NOSUBSTR,USING0)
   NOFOLD
   NOGOFF
   NOINFO
     LANGUAGE(EN)
   NOLIBMAC
 3   LINECOUNT(32767)
     LIST(121)
     MXREF(SOURCE)
 3 NOOBJECT
     OPTABLE(UNI,NOLIST)
   NOPCONTROL
   NOPESTOP
   NOPROFILE
   NORA2
 3 NORENT
     RLD
     RXREF
     SIZE(MAX)
     SYSPARM()
 3   TERM(WIDE)
   NOTEST
     THREAD
   NOTRANSLATE
 3   USING(NOLIMIT,MAP,WARN(10))
 3   XREF(SHORT)

   No Overriding DD Names

1DSECTS   External Symbol Dictionary                                                                                        Page    2
-Symbol   Type   Id     Address  Length     LD ID  Flags Alias-of                            HLASM R4.0  2004/03/15 12.43
0$$LRC     SD 00000001 00000000 00000000             00

1DSECTS   WYLBUR's DSECTS                                                                                                   Page    3
0Loc    Object Code    Addr1 Addr2  Stmt Lv Lineno    Source Statement                    (Asmedit 3.3)  HLASM R4.0  2004/03/15 12.43
+___    ______ ____    _____ _____  ____ __ ______    ______ _________
0                                      2              *******************************************************************
                                       3              *                                                                 *
                                       4              *     WYLBUR/370 - Release VI - Class I - Stanford Proprietary    *
                                       5              *                                                                 *
                                       6              *******************************************************************
                                       7                       HIBAL
                                     988
                                     989                       REGS  FSR,,,,,,,BR,(WAR,LSR),PAR,PBR,CPR,CVR,SPR,RAR
                                    1125
                                    1126                       SYSDEFN
                                    1127
 USING  CP,R11                      1128                       USING (CP),(CV)           ##
 USING  CV,R12
                                    1147
                                    1148                       MACRO
                                    1149              &L       NAME
                                    1151              ##&L     EQU   *
                                    1152                       DS    0AL4(##&L)
                                    1154                       MEND
                                    1155              *
1DSECTS   USERCVT:  User (SCIP) CVT                                                                                         Page    4
0Current Usings:  (CP,R11) (CV,R12)
0D-Loc  Object Code    Addr1 Addr2  Stmt Lv Lineno    Source Statement           (Hibal 5, Asmedit 3.3)  HLASM R4.0  2004/03/15 12.43
+_____  ______ ____    _____ _____  ____ __ ______    ______ _________
0000000                             1158              USERCVT  NAME
 000000                             1163              SCIPCVT  NAME
                                    1168
 000000                00000 0035F  1169              USERCVT  RECORD 'USERCVT'
 000000                             1180  1 04-SCIPC +           DS    0F
 000000 E2C3C9D7                    1181  1 04-SCIPC +USEIDENT   DC    C'SCIP'             Identify user CVT
 000004 00                          1182  1 04-SCIPC +USEHSPFL   DC    X'00'               Flags
                                    1183  1 04-SCIPC +HSPFMIL    EQU   X'80'               - MILTEN is up and ready
                                    1184  1 04-SCIPC +HSPFWYL    EQU   X'40'               - WYLBUR is up and ready
                                    1185  1 04-SCIPC +HSPFORV    EQU   X'20'               - ORVYL  is up and ready
                                    1186  1 04-SCIPC +HSPFORVR   EQU   X'10'               - ORVYL2 is up and ready
                                    1187  1 04-SCIPC +HSPFINT    EQU   HSPFMIL+HSPFWYL+HSPFORV  - Our interactives are up
                                    1188  1 04-SCIPC +HSPFINTR   EQU   HSPFMIL+HSPFWYL+HSPFORVR  -  Their interactives are up
                                    1189  1 04-SCIPC +HSPFJES    EQU   X'02'               - JES2 is up and ready
                                    1190  1 04-SCIPC +HSPFSYST   EQU   X'01'               - Allow sys to bypass word (MILTEN)
                                    1191  1          +
 000005 00                          1192  1 04-SCIPC +USESYSFL   DC    X'00'               System flags
                                    1193  1 04-SCIPC +USEFJES2   EQU   X'80'               - Stanford JES2 mods installed
                                    1194  1 04-SCIPC +USEFCHRA   EQU   X'40'               - Stanford Christa is active
                                    1195  1 04-SCIPC +USEFTRAC   EQU   X'01'               - RACF is doing tape protection
                                    1196  1          +
 000006 00                          1197  1 04-SCIPC +USEMACH    DC    X'00'               Machine flags
                                    1198  1 04-SCIPC +USEFSYSA   EQU   X'80'               - SYSA access allowed
                                    1199  1 04-SCIPC +USEFSYSB   EQU   X'40'               - SYSB access allowed
                                    1200  1 04-SCIPC +USEFSYSC   EQU   X'20'               - SYSC access allowed
                                    1201  1 04-SCIPC +USEFSYSD   EQU   X'10'               - SYSD access allowed
                                    1202  1 04-SCIPC +USEFSYSE   EQU   X'08'               - SYSE access allowed
                                    1203  1 04-SCIPC +USEFSYSF   EQU   X'04'               - SYSF access allowed
                                    1204  1          +
 000007 00                          1205  1 04-SCIPC +           DC    X'00'               Reserved
                                    1206  1          +
 000008 00000000                    1207  1 04-SCIPC +USEDSPTM   DC    A(0)  **NO TOUCH**  SVS dispatcher clock pointer
 00000C 0000                        1208  1 04-SCIPC +USEMILCT   DC    H'0'                No. of users signed on MILTEN
 00000E 00                          1209  1 04-SCIPC +USEINTJB   DC    X'0'                Active batch-interactive job count
 00000F 00                          1210  1 04-SCIPC +USEBLOCK   DC    X'0'                Current time block (set by JES)
 000010 00000000                    1211  1 04-SCIPC +USEJESDB   DC    A(0)                Ptr to JES display buffers
 000014 00000000                    1212  1 04-SCIPC +USEMACTQ   DC    A(0)                MILSERV active request queue
 000018 00000000                    1213  1 04-SCIPC +USEMFREQ   DC    A(0)                MILSERV free   request queue
 00001C 0000000000000000            1214  1 04-SCIPC +USEIPLTM   DC    XL8'00'             STCK clock at ipl  (set by JES)
 000024 00000000                    1215  1 04-SCIPC +USESUZBR   DC    A(0)                SUZAN Branch entry point
 000028 00000000                    1216  1 04-SCIPC +USETAPE    DC    A(0)                Ptr to tape UCB addr list (JES)
 00002C 00000000                    1217  1 04-SCIPC +USEDASD    DC    A(0)                Ptr to DASD UCB addr list (JES)
 000030 00000000                    1218  1 04-SCIPC +USESUZCP   DC    A(0)                SUZAN production control table
 000034 00000000                    1219  1 04-SCIPC +USESUZCT   DC    A(0)                SUZAN test control table
 000038 00000000                    1220  1 04-SCIPC +USEQSVT    DC    A(0)                QSERV SVC vector table
 00003C 0000                        1221  1 04-SCIPC +USENIZH1   DC    H'0'                Orvyl SIE debugging (see GSTSERV)
 00003E 0000                        1222  1 04-SCIPC +USENIZH2   DC    H'0'                Orvyl SIE debugging (see GSTSERV)
 000040 00000000                    1223  1 04-SCIPC +USEGORIL   DC    A(0)                Ptr for CUNY DFP DADSM Exit
 000044 00000000                    1224  1 04-SCIPC +USETLMSQ   DC    A(0)                Ptr to TLMS Q parm table
 000048 00000000                    1225  1 04-SCIPC +USEACCES   DC    A(0)                Ptr to access SVC stat area
                                    1226  1          +
 00004C 00000000                    1227  1 04-SCIPC +USEMASCB   DC    A(0)                MILTEN ASCB ptr
 000050 00000000                    1228  1 04-SCIPC +USEMGINP   DC    A(0)                MILTEN Global Info ptr
 000054 00000000                    1229  1 04-SCIPC +USEMSITP   DC    A(0)                MILTEN Sess Info table ptr
1DSECTS   USERCVT:  User (SCIP) CVT                                                                                         Page    5
0Current Usings:  (CP,R11) (CV,R12)
0D-Loc  Object Code    Addr1 Addr2  Stmt Lv Lineno    Source Statement           (Hibal 5, Asmedit 3.3)  HLASM R4.0  2004/03/15 12.43
+_____  ______ ____    _____ _____  ____ __ ______    ______ _________
0000058 00000000                    1230  1 04-SCIPC +USEMNSIN   DC    A(0)                MILTEN SIN - max no. of entries
 00005C 00000000                    1231  1 04-SCIPC +USEACTR    DC    A(0)                Session tag counter
 000060 00000000                    1232  1 04-SCIPC +USEADATE   DC    A(0)                Date when counter was last incr'd
                                    1233  1          +
 000064 0000000000000000            1234  1 04-SCIPC +USEBLKCK   DC    XL8'00'             STCK at time block change
 00006C                             1235  1 04-SCIPC +USEMILNM   DS    CL8                 MILTEN jobname (zeros=not init'd)
                                    1236  1          +
 000074 0000000000000000            1237  1 04-SCIPC +USEWORD    DC    XL8'00'             System word (to limit access)
 00007C 00000000                    1238  1 04-SCIPC +USEMSGCK   DC    F'0'                Clock (hi-word) when msg was set
 000080 0000000000000000            1239  1 04-SCIPC +USEMSG     DC    XL235'00'           System message (or x'00's)
                                    1240  1          +
 00016B 00                          1241  1 04-SCIPC +           DC    X'00'               Reserved
                                    1242  1          +
 00016C 00000000                    1243  1 04-SCIPC +USEWMON    DC    A(0)                WYLBUR monitor block queue
 000170 00000000                    1244  1 04-SCIPC +           DC    F'0'                Counter for CDS
                                    1245  1          +
 000174 0000000000000000            1246  1 04-SCIPC +           DC    XL241'00'           Reserved
 000265 0000000000000000            1247    04-SCIPC +         DC    XL250'00'           Reserved
1DSECTS   RTNCODES: Disk I/O Return Codes                                                                                   Page    6
0Current Usings:  (CP,R11) (CV,R12)
0D-Loc  Object Code    Addr1 Addr2  Stmt Lv Lineno    Source Statement           (Hibal 5, Asmedit 3.3)  HLASM R4.0  2004/03/15 12.43
+_____  ______ ____    _____ _____  ____ __ ______    ______ _________
0000000                             1258              RTNCODES NAME
                                    1263
                                    1264                       COPY  RTNCODES
-                                   1266             =***  symbolic names for return codes going to ntgdopn routine
                                    1267             =*
                                    1268             =RTNNODS  EQU   4         data set not found
                                    1269             =RTNDUPDS EQU   8         data set already exists
                                    1270             =RTNNOSPC EQU   12        no space for data set
                                    1271             =RTNINUSE EQU   16        data set in use
                                    1272             =RTNINVBS EQU   20        invalid block size
                                    1273             =RTNILDSN EQU   24        illegal dsname
                                    1274             =RTNILORG EQU   28        invalid recfm or dsorg
                                    1275             =** talocode is 32 defined in wylconst
                                    1276             =** abrtcode is 36 defined in wylconst
                                    1277             =RTNBDVOL EQU   40        invalid volume
                                    1278             =RTNBDMBR EQU   44        invalid member name
                                    1279             =RTNDIRFL EQU   48        directory full
                                    1280             =RTNEXPDT EQU   52        data set is expiration date protected
                                    1281             =RTNOVSP  EQU   56        user has exceeded sequential save space
                                    1282             =RTNDIRIO EQU   60        directory i/o error
                                    1283             =RTNBDCAT EQU   64        invalid catalog reference
                                    1284             =RTNNTPDS EQU   68        dataset is not a pds (for scratch)
                                    1285             =RTNNOACS EQU   72        dataset access denied by security sys
                                    1286             =RTNBUSY  EQU   76        can't enq on ucbs just yet
                                    1287             =RTNSHERR EQU   80        error in show dsnames/directory routine
                                    1288             =RTNNOSTR EQU   84        can't allocate the volume
                                    1289             =RTNALLER EQU   88        allocation error
                                    1290             =RTNVOLNA EQU   92        volume requested is not available
                                    1291             =RTNVOLNO EQU   96        no volume paths available
                                    1292             =RTNCATDV EQU   100       data set cataloged on different volume
                                    1293             =RTNBKUP  EQU   104       Volume undergoing backup
                                    1294    **ISU**  =RTNCATER EQU   108       "catastrophic" error
                                    1295                       COPY  ALLOPARM
 000000                             1296             =PARREQCD DS    AL1                 request type
                                    1297             =PARRALLO EQU   1                   allocate device
                                    1298             =PARRUNAL EQU   2                   unallocate device
                                    1299             =PARRMNT  EQU   3                   allocate device, allow mount
 000001                             1300             =PARFLAG  DS    X                   option flag
                                    1301             =PARFWAIT EQU   X'80'               ok to wait on enq
                                    1302             =PARFUNIT EQU   X'40'               unit address specified
                                    1303             =PARFUCBT EQU   X'20'               ucbtype specified
                                    1304             =PARFNJFC EQU   X'10'               do not update jfcb
 000002                             1305             =PARRESVD DS    H                   reserved (must be zero)
 000004                             1306             =PARDDNAM DS    0CL8                ddname to be allocated
 000004                             1307             =PARDDCOD DS    CL2                 ddname code (must not be blanks)
 000006                             1308             =PARDDVOL DS    CL6                 volume serial to be allocated
 00000C                             1309             =PARUSCTA DS    A                   address of use count list
 000010                             1310             =PARDEVIC DS    CL8                 name of device to be allocated
                                    1311             =PARAMEND EQU   *
1DSECTS   SCANCB:   Scanner Control Block                                                                                   Page    7
0Current Usings:  (CP,R11) (CV,R12)
0D-Loc  Object Code    Addr1 Addr2  Stmt Lv Lineno    Source Statement           (Hibal 5, Asmedit 3.3)  HLASM R4.0  2004/03/15 12.43
+_____  ______ ____    _____ _____  ____ __ ______    ______ _________
0000018                             1313              SCANCB   NAME
                                    1318
                                    1319                       COPY  SCANCB
                                    1320             =*
                                    1321             =*  NSCNCB - NEW SCAN CONTROL BLOCK
                                    1322             =*
                                    1323             =*
 000000                00000 000B0  1324             =NSCNCB   RECORD BEGIN
 000000                             1332  1          =NSCNLOC    DS    A                   SCAN STRING (REMAINING) LOC
 000004                             1333  1          =NSCNLEN    DS    F                   SCAN STRING (REMAINING) LEN
 000008 00                          1334  1          =NSCNFLGS   FLAG  ,                   SCAN FLAGS
 NSCNFLGS.NSCNFBLK 80 ONES          1338  1          =           FLAG  NSCNFBLK            BLANK TOKENS AFTER SCANNING
 NSCNFLGS.NSCNFNOQ 40 ONES          1343  1          =           FLAG  NSCNFNOQ            IGNORE QUOTED STRINGS, PARENS
 00000C                             1348  1          =           DS    0F
 00000C                             1349  1          =NSCNRSV1   DS    F                   NOT USED
 000010                             1350  1          =NSCNTLOC   DS    A                   TOKEN LOC
 000014                             1351  1          =NSCNTLEN   DS    F                   TOKEN LEN
 000018 00                          1352  1          =NSCNTYPE   FLAG  ,
 NSCNTYPE.NSCNFNUL 80 ONES          1356  1          =           FLAG  NSCNFNUL            NULL SCAN
 NSCNTYPE.NSCNFTOK 40 ONES          1361  1          =           FLAG  NSCNFTOK            TOKEN
 NSCNTYPE.NSCNFINT 20 ONES          1366  1          =           FLAG  NSCNFINT            INTEGER
 NSCNTYPE.NSCNFLNO 10 ONES          1371  1          =           FLAG  NSCNFLNO            LINE NUMBER
 NSCNTYPE.NSCNFERR 08 ONES          1376  1          =           FLAG  NSCNFERR            ERROR
 00001C                             1381  1          =           DS    0F
 00001C                             1382  1          =NSCNTVAL   DS    F                   TOKEN VALUE (x1000 if lineno)
 000020                             1383  1          =NSCNSTOP   DS    A                   SKIP TRT TABLE
 000024                             1384  1          =NSCNSKIP   DS    A                   STOP TRT TABLE
 000028                             1385  1          =NSCNKWS    DS    A                   KEYWORD TABLE ADDRESS
 00002C                             1386  1          =NSCNRSV2   DS    A                   NOT USED
 000030                             1387  1          =NSCNTOK    DS    CL16                TOKEN, UPPER CASED BLANK PADDED
 000040                             1388  1          =NSCNCTOK   DS    CL16                TOKEN, NOT CASED, BLANK PADDED
 000050                             1389  1          =NSCNTOKL   DS    F                   TOKEN LENGTH, MAX(TOKEN LEN,16)
 000054                             1390  1          =NSCNRSV3   DS    2F                  NOT USED
 00005C                             1391  1          =NSCNMSGL   DS    F                   MSG LENGTH (FOR ERR MSGS)
 000060                             1392  1          =NSCNMSG    DS    CL80                MSG BUFFER
 0000B0                000B0 000B0  1393             =         END
1DSECTS   CV:       Global Control Vector                                                                                   Page    8
0Current Usings:  (CP,R11) (CV,R12)
0D-Loc  Object Code    Addr1 Addr2  Stmt Lv Lineno    Source Statement           (Hibal 5, Asmedit 3.3)  HLASM R4.0  2004/03/15 12.43
+_____  ______ ____    _____ _____  ____ __ ______    ______ _________
0000018                             1403              CV       NAME
                                    1408
 000000                00000 00FB0  1409              CV       RECORD BEGIN
                                    1417  1                      COPY  CV
 000000 C3E54040                    1418  1          =CVSTART    DC    CL4'CV'
                                    1419  1          =
                                    1420  1          =           GBLA  &LINESZ,&PRESSZ,&BUFRMAX,&HACKDEL  (See SYSDEFN)
                                    1421  1          =           GBLB  &$PCODE             (see HIBAL macro for info)
                                    1422  1          =           GBLC  &MAXLNO             Maximum line-number
                                    1423  1          =
 000004 C7C5D5C5D9C9C340            1424  1          =CVINSTAL   DC    CL8'GENERIC'        Instalation name
 00000C E2E8E2E740404040            1425  1          =CVMACHID   DC    CL8'SYSX'           Machine name
 000014 D1C5E240                    1426  1          =CVJES      DC    CL4'JES'            Name of JES
                                    1427  1          =
 000018 E6E8D3C2E4D94040            1428  1          =CVNAME     DC    CL8'WYLBUR'         Job name
 000020 D4C9D3E3C5D54040            1429  1          =CVMILSSN   DC    CL8'MILTEN'         MILTEN   path name
 000028 4040404040404040            1430  1          =CVWYLSSN   DC    CL8' '              WYLBUR   subsystem name
 000030 D6D9E5E8D3404040            1431  1          =CVORVSSN   DC    CL8'ORVYL'          ORVYL    subsystem name
 000038 D6D9E5E8D3D9D3C7            1432  1          =CVRLGSSN   DC    CL8'ORVYLRLG'       ORVYLRLG subsystem name
 000040 FFFFFFFFFFFFFFFF            1433  1          =           DC    16X'FF'             Reserved
                                    1434  1          =
 000050 0000000000000000            1435  1          =CVWORD     DC    XL8'00'             System word
                                    1436  1          =
 000058 4040404040                  1437  1          =CVWYLACC   DC    CL5' '              Account WYLBUR is running under
 00005D 40404040                    1438  1          =CVWYLJBN   DC    CL4' '              WYLBUR's job number
 000061 0000000000                  1439  1          =CVNOTIFY   DC    XL5'00'             Notify account
                                    1440  1          =
 000066                             1441  1          =CVKEY      DS    X                   Our storage key
                                    1442  1          =
 000067 00                          1443  1          =CVMACH     FLAG
 CVMACH.CVFSYSA    80 ONES          1447  1          =           FLAG  CVFSYSA             - SYSA access is allowed
 CVMACH.CVFSYSB    40 ONES          1452  1          =           FLAG  CVFSYSB             - SYSB access is allowed
 CVMACH.CVFSYSC    20 ONES          1457  1          =           FLAG  CVFSYSC             - SYSC access is allowed
 CVMACH.CVFSYSD    10 ONES          1462  1          =           FLAG  CVFSYSD             - SYSD access is allowed
 CVMACH.CVFSYSE    08 ONES          1467  1          =           FLAG  CVFSYSE             - SYSE access is allowed
 CVMACH.CVFSYSF    04 ONES          1472  1          =           FLAG  CVFSYSF             - SYSF access is allowed
 CVMACH.CVFSYSG    02 ONES          1477  1          =           FLAG  CVFSYSG             - SYSG access is allowed
                                    1482  1          =
 000068 00                          1483  1          =CVLOGMOD   FLAG
 CVLOGMOD.CVLGPATH 80 ONES          1487  1          =           FLAG  CVLGPATH            Log PATH activity
                                    1492  1          =
 000069 4040404040404040            1493  1          =           DC    CL11' '             Reserved
 000074 FFFFFFFFFFFFFFFF            1494  1          =           DC    20X'FF'             Reserved
                                    1495  1          =
 000088 00                          1496  1          =CVLOCK1    FLAG
 CVLOCK1.CVL1TQ    80 ONES          1500  1          =           FLAG  CVL1TQ              - Lock for Timer Queue
 CVLOCK1.CVL1TQJ   40 ONES          1505  1          =           FLAG  CVL1TQJ             - Lock for JCBS on Time Queue
 000089 00                          1510  1          =CVLOCK2    FLAG
 CVLOCK2.CVL2RSV   80 ONES          1514  1          =           FLAG  CVL2RSV             Reserved
 00008A 00                          1519  1          =CVLOCK3    FLAG
 CVLOCK3.CVL3RSV   80 ONES          1523  1          =           FLAG  CVL3RSV             Reserved
 00008B 00                          1528  1          =CVLOCK4    FLAG
 CVLOCK4.CVL4RSV   80 ONES          1532  1          =           FLAG  CVL4RSV             Reserved
                                    1537  1          =
1DSECTS   CV:       Global Control Vector                                                                                   Page    9
0Current Usings:  (CP,R11) (CV,R12)
0D-Loc  Object Code    Addr1 Addr2  Stmt Lv Lineno    Source Statement           (Hibal 5, Asmedit 3.3)  HLASM R4.0  2004/03/15 12.43
+_____  ______ ____    _____ _____  ____ __ ______    ______ _________
000008C                             1538  1          =CVOSRA     DS    A                   OS return addr
 000090 0000000000000000            1539  1          =CVSCLCK    DC    XL8'00'             Clock at start
 000098                             1540  1          =CVPARMP    DS    A                   OS parm ptr
                                    1541  1          =
 00009C 00000000                    1542  1          =CVPPDBQH   DC    A(0)                Pending send PDB queue head
 0000A0 0000009C                    1543  1          =CVPPDBQT   DC    A(CVPPDBQH)         Pending send PDB queue tail
                                    1544  1          =
                                    1545  1          =CVUPMAX#   EQU   25,,C'N'            Maximum number of paths per user
                                    1546  1          =CVPATH#    EQU   500,,C'N'           Maximum number of paths
 0000A4                             1547  1          =CVPATHP    DS    A                   UPATH address table ptr
                                    1548  1          =
                                    1549  1          =CVUNMAX#   EQU   25,,C'N'            Maximum number of UNETs per user
                                    1550  1          =CVNET#     EQU   500,,C'N'           Maximum number of net connections
 0000A8                             1551  1          =CVNETP     DS    A                   UNET address table ptr
                                    1552  1          =
 0000AC 00000000                    1553  1          =CVPATHQH   DC    A(0)                User path wait queue head
 0000B0 00000000                    1554  1          =CVUNETQH   DC    A(0)                User network path wait queue head
                                    1555  1          =
 0000B4 00000000                    1556  1          =CVAMYP     DC    A(0)                AMELIA UPATH ptr
 0000B8 00000000                    1557  1          =CVTAMYP    DC    A(0)                TESTAMY UPATH ptr
                                    1558  1          =
 0000BC 00000000                    1559  1          =CVSITP     DC    A(0)                Session info table ptr (in CSA)
                                    1560  1          =
 0000C0 00000000                    1561  1          =CVVTERMS   DC    A(0)                VLOGON terminal list pointer
 0000C4 00000000                    1562  1          =CVVLASTA   DC    A(0)                VLOGON terminal last assigned
                                    1563  1          =
 0000C8                             1564  1          =CVVTAMQ    DS    0D                  Align for Compare double and swap
 0000C8 00000000                    1565  1          =CVVTAMQH   DC    A(0)        [Order] VTAM post queue head
 0000CC 00000000                    1566  1          =CVVTAMQT   DC    A(0)        [Order] VTAM post queue tail
                                    1567  1          =
 0000D0 00400000                    1568  1          =CVSLICE    DC    A(X'00400000')      Timeslice interval (2nd clck wd)
                                    1569= 1          =      ¿þþþþþþþþþþþþþþþþþþþþþþþþþþþþþþþþþþþþþþþþþþþþþþþþþþþþþþþþþþþþþþþþþþÜ
                                    1570= 1          =      Ÿ  The size of a page buffer is controlled by the constant below.  Ÿ
                                    1571= 1          =      Ÿ  If you change this, it's probably safest to re-assemble all of  Ÿ
                                    1572= 1          =      Ÿ  WYLBUR.  Any value between 8K and 32K-1 is acceptable.          Ÿ
                                    1573= 1          =      Ÿ                                                                  Ÿ
                                    1574= 1          =      Ÿ  23476 is a good size for a 3380 device (2 records per track).   Ÿ
                                    1575= 1          =      Ÿ  15476 is a good size for a 3380 device (3 records per track).   Ÿ
                                    1576= 1          =      Ÿ  27998 is a good size for a 3390 device.                         Ÿ
                                    1577= 1          =      Ÿ  18452 is a good size for a 3390 device.                         Ÿ
                                    1578= 1          =      Ÿ                                                                  Ÿ
                                    1579= 1          =      Ÿ  In order to optimize on memory usage the page size is now       Ÿ
                                    1580= 1          =      Ÿ  20K less the space needed for various PBUF control information  Ÿ
                                    1581= 1          =      Ÿ  (which is roughly 128 bytes).                                   Ÿ
                                    1582= 1          =      ¾þþþþþþþþþþþþþþþþþþþþþþþþþþþþþþþþþþþþþþþþþþþþþþþþþþþþþþþþþþþþþþþþþþ»
                                    1583  1          =           AIF   (&$PCODE).WXXPSZ
                                    1584  1          =CVPIOSZ    EQU   20480-128           Total size of I/O buffer
                                    1585  1          =CVPXSZ     EQU   8                   Size of page buffer prefix
                                    1586  1          =CVPSZ      EQU   CVPIOSZ-CVPXSZ      Size of page buffer
                                    1587  1          =           AGO   .ENDPSZ
                                    1588  1          =.ENDPSZ    ANOP
                                    1589  1          =*
                                    1590  1          =*
                                    1591  1          =CVPINDEX   EQU   8                   Index into PCB to PCBBUFP
1DSECTS   CV:       Global Control Vector                                                                                   Page   10
0Current Usings:  (CP,R11) (CV,R12)
0D-Loc  Object Code    Addr1 Addr2  Stmt Lv Lineno    Source Statement           (Hibal 5, Asmedit 3.3)  HLASM R4.0  2004/03/15 12.43
+_____  ______ ____    _____ _____  ____ __ ______    ______ _________
0                                   1592  1          =
 0000D4 0000                        1593  1          =CVNUSERS   DC    H'0'                No. of users logged on
 0000D6 0000                        1594  1          =CVRUNCUR   DC    H'0'                Current number of users on RUN-Q
 0000D8 000A                        1595  1          =CVRUNMAX   DC    H'10'               Maximum allowed RUN Q depth
 0000DA FFFF                        1596  1          =           DC    H'-1'               Reserved
                                    1597  1          =
 0000DC 00000000                    1598  1          =CVNSMF     DC    F'0'                No. of SMF records written
 0000E0 00000000                    1599  1          =CVNASMF    DC    F'0'                No. of accounting SMF " "
                                    1600  1          =
 0000E4 0000                        1601  1          =CVNFAIL    DC    H'0'                No. of failsofts
                                    1602  1          =CVDFMAX#   EQU   5,,C'N'             Allowed dispatcher failsofts
 0000E6 0000                        1603  1          =CVNDISPF   DC    H'0'                No. of dispatcher failsofts
 0000E8 0000                        1604  1          =CVNSUBF    DC    H'0'                No. of subtask failsofts
 0000EA 0000                              1
 0000EC 00000000                    1605  1          =CVFCLCK    DC    F'0'                Clock at failsoft
 0000F0 0000000000000000            1606  1          =CVFINFO    DC    XL64'00'            Failsoft text
                                    1607  1          =
 000130 270F                        1608  1          =CVPPG      DC    H'9999'             Max no. of primary (drum) pages
                                    1609  1          =*                                  ...allowed for a single user
                                    1610= 1          =           ¿þþþþþþþþþþþþþþþþþþþþþþþþþþþþþþþþþþþþþþþþþþþþþþþþþþþþþþþþþþþÜ
                                    1611= 1          =           Ÿ  Change the following number to increase the number       Ÿ
                                    1612= 1          =           Ÿ    of users.  Also change the "LINES" statement in GLOB.  Ÿ
                                    1613= 1          =           Ÿ                                                           Ÿ
                                    1614= 1          =           Ÿ    Be careful not to increase the number of users beyond  Ÿ
                                    1615= 1          =           Ÿ    what a single track checkpoint record can hold (see    Ÿ
                                    1616= 1          =           Ÿ    INIT).                                                 Ÿ
                                    1617= 1          =           ¾þþþþþþþþþþþþþþþþþþþþþþþþþþþþþþþþþþþþþþþþþþþþþþþþþþþþþþþþþþþ»
 000132 0A28                        1618  1          =CVMAXSES   DC    H'2600'             Maximum number of users
                                    1619  1          =
 000134 0064                        1620  1          =CVTRCENT   DC    H'100'              No. of trace table entries
 000136 0000                              1
 000138 00020000                    1621  1          =CVMBUFF    DC    A(128*1024)         Size of MILTEN receive buffer
                                    1622  1          =
 00013C FFFF                        1623  1          =CVNIPG     DC    H'-1'               No. of page buffers to initialize
 00013E 0000                        1624  1          =CVNPG      DC    H'0'                Actual number of page buffers
 000140 0000                        1625  1          =CVNPG16M   DC    H'0'                No. of buffers below 16M line
 000142 0000                        1626  1          =CVPGMIN    DC    H'0'                Current min no. of buffers
 000144 0000                        1627  1          =CVPGMAX    DC    H'0'                Current max no. of buffers
                                    1628  1          =
 000146 FFFFFFFFFFFFFFFF            1629  1          =           DC    4H'-1'              Reserved
                                    1630  1          =
 00014E 0000                        1631  1          =CVPGADJ    DC    H'0'                Last auto-pilot adjustment
 000150 00000000                    1632  1          =CVPGCLK    DC    F'0'                Clock at last adjustment
                                    1633  1          =
 000154 00000000                    1634  1          =CVMAXPNO   DC    F'0'                Maximum page number
                                    1635  1          =
 000158 0000                        1636  1 **ISU**  =CVBKUPCT   DC    H'0'                Count of vols in backup status
                                    1637  1          =
                                    1638  1          =&MAXLNO    SETC  '99999.999'         Maximum line-number (for msgs)
 00015A 0000                              1
 00015C 05F5E0FF                    1639  1          =CVMAXLNO   DC    A(99999999)         Maximum legal line-number
 000160 05F5E100                    1640  1          =CVHILNO    DC    A(99999999+1)       One plus max line-number
                                    1641  1          =
 000164 00000000                    1642  1          =CVMONPTR   DC    F'0'                WMONITOR monitor address
1DSECTS   CV:       Global Control Vector                                                                                   Page   11
0Current Usings:  (CP,R11) (CV,R12)
0D-Loc  Object Code    Addr1 Addr2  Stmt Lv Lineno    Source Statement           (Hibal 5, Asmedit 3.3)  HLASM R4.0  2004/03/15 12.43
+_____  ______ ____    _____ _____  ____ __ ______    ______ _________
0000168 00000000                    1643  1          =CVMONWRK   DC    F'0'                WMONITOR working cell
                                    1644  1          =
 00016C 00000000                    1645  1          =CVWGWROP   DC    F'0'                Number of Wings opens for write
 000170 00000000                    1646  1          =CVWGRDOP   DC    F'0'                Number of Wings opens for read
                                    1647  1          =
 000174 FFFFFFFFFFFFFFFF            1648  1          =           DC    3F'-1'              Reserved
                                    1649= 1          =           ¿þþþþþþþþþþþþþþþþþþþþþþþþþþþþþþþþþþÜ
                                    1650= 1          =           Ÿ  Failsoft recovery information.  Ÿ
                                    1651= 1          =           ¾þþþþþþþþþþþþþþþþþþþþþþþþþþþþþþþþþþ»
 000180 00000000                    1652  1          =CVCURPATH   DC   F'0'                Current PATH ptr
                                    1653= 1          =           ¿þþþþþþþþþþþþþÜ
                                    1654= 1          =           Ÿ  Counters.  Ÿ
                                    1655= 1          =           ¾þþþþþþþþþþþþþ»
 000184 00000000                    1656  1          =CVMSENT    DC    F'0'                Number of mail items sent
 000188 00000000                    1657  1          =CVMSEND    DC    F'0'                Number of SEND commands
 00018C 00000000                    1658  1          =CVMBIT     DC    F'0'                Number of BITNET mail items
 000190 00000000                    1659  1          =CVMSHML    DC    F'0'                Number of SHOW MAIL commands
 000194 00000000                    1660  1          =CVMSHMLD   DC    F'0'                Number of DUMP MAIL commands
 000198 00000000                    1661  1          =CVMSHSUM   DC    F'0'                Number of SHOW MAIL SUMMARY cmds
 00019C 00000000                    1662  1          =CVMEMS     DC    F'0'                Number of EMS mail items sent
                                    1663  1          =*
                                    1664  1          =* Temporary space used for measurement histograms.
                                    1665  1          =*
 0001A0 0000000000000000            1666  1          =CVHIST     DC    8F'0'
1DSECTS   CV:       Global Control Vector                                                                                   Page   12
0Current Usings:  (CP,R11) (CV,R12)
0D-Loc  Object Code    Addr1 Addr2  Stmt Lv Lineno    Source Statement           (Hibal 5, Asmedit 3.3)  HLASM R4.0  2004/03/15 12.43
+_____  ______ ____    _____ _____  ____ __ ______    ______ _________
0                                   1668  1          =***
                                    1669  1          =***
                                    1670  1          =***      Global Queue Ptrs
                                    1671  1          =***
                                    1672  1          =***
 0001C0 00000000                    1673  1          =CVFJCB     DC    A(0)                Addr of first JCB
 0001C4 00000000                    1674  1          =CVLJCB     DC    A(0)                Addr of last(+1) JCB
 0001C8 00000000                    1675  1          =CVCURJCB   DC    A(0)                Addr of current JCB
 0001CC 00000000                    1676  1          =CVOLDJCB   DC    A(0)                Addr of old JCB
                                    1677  1          =
 0001D0 00000000                    1678  1          =CVFPFCB    DC    A(0)        [Order] First avail PFCB         (Drum)
 0001D4 00000000                    1679  1          =CVLPFCB    DC    A(0)        [Order] Last(+1) PFCB
 0001D8 00000000                    1680  1          =CVSPFCB    DC    A(0)        [Order] First secondary PFCB     (Disk)
                                    1681  1          =
 0001DC 00000000                    1682  1          =CVPCBQH    DC    A(0)                Pointer to first PCB (or zero)
                                    1683  1          =
 0001E0                             1684  1          =           DS    0D
 0001E0 00000000                    1685  1          =CVPOSTQH   DC    A(0)                First posted PCB (or zero)
 0001E4 00000000                    1686  1          =CVPOSTLK   DC    A(0)                Lock word (counter for "CDS")
                                    1687  1          =
 0001E8 0000000000000000            1688  1          =CVEMBUFQ   DC    2A(0)               Queue of empty buffers
 0001F0 0000000000000000            1689  1          =CVBUFQ     DC    2A(0)               Queue of data buffers
                                    1690  1          =
 0001F8 00000000                    1691  1          =CVTQEQH    DC    A(0)                Timer queue head
 0001FC                             1692  1          =CVTQEID    DS    A(0)                Last timer id used
                                    1693  1          =
 000200 0384                        1694  1          =CVTIMOUT   DC    AL2(15*60)          Test system timeout value
 000202 0384                        1695  1          =CVTIMLFT   DC    AL2(15*60)          Time remaining
                                    1696  1          =
 000204 00000000                    1697  1          =CVTTYQH    DC    A(0)                TTYPE queue head
                                    1698  1          =
 000208 00000000                    1699  1          =CVWECBQH   DC    A(0)                Waiting ECB queue head
 00020C 00000000                    1700  1          =CVWECBQT   DC    A(0)                Waiting ECB queue tail
                                    1701  1          =*
                                    1702  1          =*  Information for server connections.  There are two types
                                    1703  1          =*    of servers, public servers (which anyone can connect to)
                                    1704  1          =*    and user servers.
                                    1705  1          =*
                                    1706  1          =CVPSFNO    EQU   1001,,C'N'          First public server number
                                    1707  1          =CVPSLNO    EQU   1999,,C'N'          Last public server number
                                    1708  1          =CVPSSIZE   EQU   ((CVPSLNO+1)-CVPSFNO)*4,,C'N'  SVIT size
 000210 00000000                    1709  1          =CVPSTAB    DC    A(0)                Public SVIT ptr
 000214 00000000                    1710  1          =CVPSENDP   DC    A(0)                End of SVIT ptr
 000218 00000000                    1711  1          =CVPSNXP    DC    A(0)                Next SVIT entry to use ptr
                                    1712  1          =
                                    1713  1          =CVUSFNO    EQU   1,,C'N'             First user server number
                                    1714  1          =CVUSLNO    EQU   999,,C'N'           Last user server number
                                    1715  1          =CVUSSIZE   EQU   ((CVUSLNO+1)-CVUSFNO)*4,,C'N'  SVIT size
 00021C 00000000                    1716  1          =CVUSTAB    DC    A(0)                User SVIT ptr
 000220 00000000                    1717  1          =CVUSENDP   DC    A(0)                End of SVIT ptr
 000224 00000000                    1718  1          =CVUSNXP    DC    A(0)                Next SVIT entry to use ptr
                                    1719  1          =*
                                    1720  1          =*  General server stuff.
                                    1721  1          =*
1DSECTS   CV:       Global Control Vector                                                                                   Page   13
0Current Usings:  (CP,R11) (CV,R12)
0D-Loc  Object Code    Addr1 Addr2  Stmt Lv Lineno    Source Statement           (Hibal 5, Asmedit 3.3)  HLASM R4.0  2004/03/15 12.43
+_____  ______ ____    _____ _____  ____ __ ______    ______ _________
0000228 00000000                    1722  1          =CVQMONQ    DC    A(0)                QMONITOR waiting queue
 00022C 00000000                    1723  1          =           DC    F'0'                Reserved
 000230 00000000                    1724  1          =CVHEAPGT   DC    F'0'                User heap GETMAINs
 000234 00000000                    1725  1          =CVHEAPFR   DC    F'0'                User heap FREEMAINs
                                    1726  1          =*
                                    1727  1          =*  Client/server counters.
                                    1728  1          =*
 000238 00000000                    1729  1          =CVCSCONN   DC    F'0'                Number of connections made
 00023C 00000000                    1730  1          =CVCSREQ    DC    F'0'                Number of server requests
 000240 00000000                    1731  1          =CVCSNIO    DC    F'0'                Number of server I/O's
                                    1732  1          =
 000244 E6C9D5C7E2E5F0F0            1733  1          =CVWPATH    DC    CL8'WINGSV00'       Wings path name
 00024C E6C9D5C7E2E5F0F0            1734  1          =CVWPATH1   DC    CL8'WINGSV00'       Wings1 path name
 000254 E6C9D5C7E2E5F0F0            1735  1          =CVWPATH2   DC    CL8'WINGSV00'       Wings2 path name
                                    1736  1          =
 00025C 00000000                    1737  1          =CVCHRIS    DC    A(0)                Christa memory area pointer
                                    1738  1          =
 000260 00000000                    1739  1          =CVVBINFO   DC    A(0)                Sys var binary search info loc
 000264 00000000                    1740  1          =CVFBINFO   DC    A(0)                Sys func binary search info loc
 000268 00000000                    1741  1          =CVPBINFO   DC    A(0)                Sys proc binary search info loc
                                    1742  1          =*
                                    1743  1          =*  Note:  If you change CVSTACKL, you must also update WDEBUG.
                                    1744  1          =*
                                    1745  1          =CVSTACK#   EQU   128                 Stack size in K
 00026C 00020000                    1746  1          =CVSTACKL   DC    A(CVSTACK#*1024)    Stack length
 000270 00000000                    1747  1          =CVDSTK     DC    A(0)                Start of dispatcher stack area
 000274 00000000                    1748  1          =CVSTACK    DC    A(0)                Start of user stack area
 000278 00000000                    1749  1          =CVSTACKE   DC    A(0)                End of user stack area
                                    1750  1          =*
                                    1751  1          =*  Note:  If you change CVHEAPL, you must also update WDEBUG.
                                    1752  1          =*
                                    1753  1          =CVHEAP#    EQU   512                 Heap size in K
 00027C 00080000                    1754  1          =CVHEAPL    DC    A(CVHEAP#*1024)     Heap length
 000280 00000000                    1755  1          =CVHEAP     DC    A(0)                Start of heap area
 000284 00000000                    1756  1          =CVHEAPE    DC    A(0)                End of heap area
                                    1757  1          =
 000288 00000000                    1758  1          =CVPRTQH    DC    A(0)                Printer table queue head
                                    1759  1          =
 00028C 00000000                    1760  1          =CVHOSTQH   DC    A(0)                Host table queue head
 000290 00000000                    1761  1          =CVHAILQH   DC    A(0)                Host name alias table queue head
                                    1762  1          =
 000294 00000000                    1763  1          =CVTIMRQ    DC    A(0)                Queue of timer posted JCBs
                                    1764  1          =
 000298 FFFFFFFF                    1765  1          =           DC    F'-1'               Reserved
 00029C 0000012C                    1766  1          =CVPCSEC    DC    F'300'              Secs before checkpoint page out
                                    1767  1          =CVPCMAX#   EQU   20,,C'N'            Max no. of I/O CHECKOUT can queue
                                    1768  1          =
 0002A0 00000000                    1769  1          =CVXMONCT   DC    F'0'                No. of current BIG xmon sessions
                                    1770  1          =
                                    1771  1          =CVVTRC#    EQU   20                  No. of view buffer trace entries
 0002A4 00000000                    1772  1          =CVVTRCP    DC    A(0)                View buffer trace queue head
 0002A8 0000                        1773  1          =CVVNTRC    DC    H'0'                Number of trace entries
 0002AA FFFF                        1774  1          =           DC    H'-1'               Reserved
                                    1775  1          =
1DSECTS   CV:       Global Control Vector                                                                                   Page   14
0Current Usings:  (CP,R11) (CV,R12)
0D-Loc  Object Code    Addr1 Addr2  Stmt Lv Lineno    Source Statement           (Hibal 5, Asmedit 3.3)  HLASM R4.0  2004/03/15 12.43
+_____  ______ ____    _____ _____  ____ __ ______    ______ _________
0                                   1776  1          =CVXTRC#    EQU   50                  No. of Samson trace entries
 0002AC 00000000                    1777  1          =CVXTRCP    DC    A(0)                Samson buffer trace queue head
 0002B0 0000                        1778  1          =CVXNTRC    DC    H'0'                Number of trace entries
 0002B2 FFFF                        1779  1          =           DC    H'-1'               Reserved
                                    1780  1          =
                                    1781  1          =CVETRC#    EQU   50                  No. of network trace entries
 0002B4 00000000                    1782  1          =CVETRCP    DC    A(0)                Network buffer trace queue head
 0002B8 0000                        1783  1          =CVENTRC    DC    H'0'                Number of trace entries
 0002BA 0000                        1784  1          =CVENERL    DC    H'0'                Error packet length (see CVENERP)
                                    1785  1          =
 0002BC 00000000                    1786  1          =CVENUSE    DC    F'0'                Number of network uses
 0002C0 00000000                    1787  1          =CVENSAVE   DC    F'0'                Number of network saves
 0002C4 00000000                    1788  1          =CVENSCR    DC    F'0'                Number of network scratchs
 0002C8 00000000                    1789  1          =CVENREN    DC    F'0'                Number of network renames
 0002CC 00000000                    1790  1          =CVENDIR    DC    F'0'                Number of network show dir's
 0002D0 00000000                    1791  1          =CVENCMD    DC    F'0'                Number of network commands
 0002D4 00000000                    1792  1          =CVENIO     DC    F'0'                Number of network I/O's
 0002D8 00000000                    1793  1          =CVENERR    DC    F'0'                Number of network errors
 0002DC 00000000                    1794  1          =CVENERP    DC    A(0)                Pointer to last error packet
1DSECTS   CV:       Global Control Vector                                                                                   Page   15
0Current Usings:  (CP,R11) (CV,R12)
0D-Loc  Object Code    Addr1 Addr2  Stmt Lv Lineno    Source Statement           (Hibal 5, Asmedit 3.3)  HLASM R4.0  2004/03/15 12.43
+_____  ______ ____    _____ _____  ____ __ ______    ______ _________
0                                   1796= 1          =           ¿þþþþþþþþþþþþþþþþþþþþþþþþÜ
                                    1797= 1          =           Ÿ  Global Record Groups  Ÿ
                                    1798= 1          =           ¾þþþþþþþþþþþþþþþþþþþþþþþþ»
                                    1799  1          =CVTEXT     RG    ,                   Global ACTIVE files
 0002E0                             1800  1 01-RG    +           DS    0H
 0002E0                             1801  1 01-RG    +CVTEXT     DS    XL32
                                    1802  1          =CVEXEC     RG    ,                   Global EXEC files
 000300                             1803  1 01-RG    +           DS    0H
 000300                             1804  1 01-RG    +CVEXEC     DS    XL32
                                    1805  1          =CVFLOW     RG    ,                   Global EXEC file flow ctrl info
 000320                             1806  1 01-RG    +           DS    0H
 000320                             1807  1 01-RG    +CVFLOW     DS    XL32
                                    1808  1          =CVDATA     RG    ,                   Global EXEC GETDATA/PUTDATA vars
 000340                             1809  1 01-RG    +           DS    0H
 000340                             1810  1 01-RG    +CVDATA     DS    XL32
                                    1811  1          =*  CVDATA key length is the same as "CPDATA" key length.
                                    1812  1          =CVRG16     RG    ,                   Global Misc RecGroup (name len=16)
 000360                             1813  1 01-RG    +           DS    0H
 000360                             1814  1 01-RG    +CVRG16     DS    XL32
                                    1815  1          =*  CVRG16 key length is the same as "CPRG16" key length.
                                    1816  1          =CVRG64     RG    ,                   Global Misc RecGroup (name len=64)
 000380                             1817  1 01-RG    +           DS    0H
 000380                             1818  1 01-RG    +CVRG64     DS    XL32
                                    1819  1          =*  CVRG64 key length is the same as "CPRG64" key length.
1DSECTS   CV:       Global Control Vector                                                                                   Page   16
0Current Usings:  (CP,R11) (CV,R12)
0D-Loc  Object Code    Addr1 Addr2  Stmt Lv Lineno    Source Statement           (Hibal 5, Asmedit 3.3)  HLASM R4.0  2004/03/15 12.43
+_____  ______ ____    _____ _____  ____ __ ______    ______ _________
0                                   1821= 1          =           ¿þþþþþþþþþþþþþþþþþþþþþþþþþþþþþþþþþþþÜ
                                    1822= 1          =           Ÿ  More Record Group Related Info.  Ÿ
                                    1823= 1          =           ¾þþþþþþþþþþþþþþþþþþþþþþþþþþþþþþþþþþþ»
                                    1824  1          =CV#SYS     EQU   1                   System vars/data (in CVRG16)
                                    1825  1          =CV#PUBV    EQU   2                   Public (PUB.) vars (in CVRG16)
                                    1826  1          =CV#WC      EQU   3                   WCOUNT initialization info
                                    1827= 1          =           ¿þþþþþþþþþþþþþþþÜ
                                    1828= 1          =           Ÿ  EXEC stuff.  Ÿ
                                    1829= 1          =           ¾þþþþþþþþþþþþþþþ»
 0003A0 00000000                    1830  1          =CV#XFREE   DC    F'0'                Next free public Exec set no.
                                    1831  1          =CV#FEXEC   EQU   2048                First free public Exec set no.
                                    1832= 1          =           ¿þþþþþþþþþþþþþþþþþÜ
                                    1833= 1          =           Ÿ  CHAZ RESERVED  Ÿ
                                    1834= 1          =           ¾þþþþþþþþþþþþþþþþþ»
 0003A4 00000000                    1835  1          =CVCHAZF1   DC    F'0'
 0003A8 00000000                    1836  1          =CVCHAZF2   DC    F'0'
 0003AC 00000000                    1837  1          =CVCHAZF3   DC    F'0'
 0003B0 00000000                    1838  1          =CVCHAZF4   DC    F'0'
 0003B4 00000000                    1839  1          =CVCHAZF5   DC    F'0'
 0003B8 00000000                    1840  1          =CVCHAZF6   DC    F'0'
 0003BC 00000000                    1841  1          =CVCHAZF7   DC    F'0'
 0003C0 00000000                    1842  1          =CVCHAZF8   DC    F'0'
 0003C4 4040404040404040            1843  1          =CVCHSTR    DC    CL256' '
1DSECTS   CV:       Global Control Vector                                                                                   Page   17
0Current Usings:  (CP,R11) (CV,R12)
0D-Loc  Object Code    Addr1 Addr2  Stmt Lv Lineno    Source Statement           (Hibal 5, Asmedit 3.3)  HLASM R4.0  2004/03/15 12.43
+_____  ______ ____    _____ _____  ____ __ ______    ______ _________
00004C4 00                          1845  1          =CVFL       FLAG
 CVFL.CVFTMIL      80 ONES          1849  1          =           FLAG  CVFTMIL             - Test MILTEN running
 CVFL.CVFPGROT     40 ONES          1854  1          =           FLAG  CVFPGROT            - Do page rotates (for debugging)
 CVFL.CVFRLOAD     20 ONES          1859  1          =           FLAG  CVFRLOAD            - Reload is pending
 CVFL.CVFRLG       10 ONES          1864  1          =           FLAG  CVFRLG              - Running on the RLG machine
 CVFL.CVFNDSUB     08 ONES          1869  1          =           FLAG  CVFNDSUB            - No disk subtasking (debugging)
 CVFL.CVFDISP      04 ONES          1874  1          =           FLAG  CVFDISP             - Running in dispatcher mode
 CVFL.CVFNTRC      02 ONES          1879  1          =           FLAG  CVFNTRC             - ENET tracing (see NET module)
 CVFL.CVFSERVWYL   01 ONES          1884  1          =           FLAG  CVFSERVWYL          - Run server functions only
                                    1889  1          =
 0004C5 00                          1890  1          =CVFL2      FLAG
 CVFL2.CVFTRC      80 ONES          1894  1          =           FLAG  CVFTRC              - Trace table in use
 CVFL2.CVFABEND    40 ONES          1899  1          =           FLAG  CVFABEND            - Stae abend in progress
 CVFL2.CVFRBUG     20 ONES          1904  1          =           FLAG  CVFRBUG             - Recovery debugging info wanted
 CVFL2.CVFRCVY     10 ONES          1909  1          =           FLAG  CVFRCVY             - WYLBUR recovery running
 CVFL2.CVFINIT     08 ONES          1914  1          =           FLAG  CVFINIT             - WYLBUR init in progress
 CVFL2.CVFFMT      04 ONES          1919  1          =           FLAG  CVFFMT              - Page file reformatting
 CVFL2.CVFTEST     02 ONES          1924  1          =           FLAG  CVFTEST             - Test WYLBUR running
 CVFL2.CVFFORCE    01 ONES          1929  1          =           FLAG  CVFFORCE            - Changed pages written (abend)
                                    1934  1          =
 0004C6 00                          1935  1          =CVFL3      FLAG
 CVFL3.CVFNOR      80 ONES          1939  1          =           FLAG  CVFNOR              - Only go through init
 CVFL3.CVFNORACF   40 ONES          1944  1          =           FLAG  CVFNORACF           - No RACF checking
 CVFL3.CVFPUSR     20 ONES          1949  1          =           FLAG  CVFPUSR             - Running pseudo "init" user
 CVFL3.CVFXA       10 ONES          1954  1          =           FLAG  CVFXA               - MVS/XA (not MVS/370)
 CVFL3.CVFNOTIM    08 ONES          1959  1          =           FLAG  CVFNOTIM            - No timeout timer
 CVFL3.CVFCMDS     04 ONES          1964  1          =           FLAG  CVFCMDS             - Do initial commands
 CVFL3.CVFXA31     02 ONES          1969  1          =           FLAG  CVFXA31             - Use 31-bit mode in XA
 CVFL3.CVWPATCH    01 ONES          1974  1          =           FLAG  CVWPATCH            - Patch W0-W9 to format(-1,3)
                                    1979  1          =
 0004C7 00                          1980  1          =CVFL4      FLAG
 CVFL4.CVFCFMT     80 ONES          1984  1          =           FLAG  CVFCFMT             - Format checkpoint record
 CVFL4.CVFNCHK     40 ONES          1989  1          =           FLAG  CVFNCHK             - No checkpointing
 CVFL4.CVFMAN      20 ONES          1994  1          =           FLAG  CVFMAN              - Manual recovery mode
 CVFL4.CVFSYST     10 ONES          1999  1          =           FLAG  CVFSYST             - Systems time (see CVWORD)
 CVFL4.CVFNSTAE    08 ONES          2004  1          =           FLAG  CVFNSTAE            - Don't set ESTAE exit (debugging)
 CVFL4.CVFNORET    04 ONES          2009  1          =           FLAG  CVFNORET            - No failsoft recovery
 CVFL4.CVFNSPIE    02 ONES          2014  1          =           FLAG  CVFNSPIE            - Don't set SPIE exit (debugging)
                                    2019  1          =
 0004C8 00                          2020  1          =CVFL5      FLAG
 CVFL5.CVFVISTA    80 ONES          2024  1          =           FLAG  CVFVISTA            - This is VISTA (VLOGON subsys)
 CVFL5.CVFMEMPAGE  40 ONES          2029  1          =           FLAG  CVFMEMPAGE          - Only memory pages are available
 CVFL5.CVFWINGS    20 ONES          2034  1          =           FLAG  CVFWINGS            - Use WINGS file sys
 CVFL5.CVFOLDIBM   10 ONES          2039  1          =           FLAG  CVFOLDIBM           - Use OLDIBM file sys, (default)
                                    2044  1          =
 0004C9 00                          2045  1          =CVFL6      FLAG
 CVFL6.CVFCHRUBPR  80 ONES          2049  1          =           FLAG  CVFCHRUBPR          UserID Access: BDAM primary
 CVFL6.CVFCHRUBSE  40 ONES          2054  1          =           FLAG  CVFCHRUBSE          UserID Access: BDAM secondary
 CVFL6.CVFUIDBDM   C0 NZ            2059  1          =           FLAG  (CVFUIDBDM,CVFCHRUBPR+CVFCHRUBSE,NZ)  UserID BDAM
 CVFL6.CVFCHRUCPR  20 ONES          2071  1          =           FLAG  CVFCHRUCPR          UserID Access: Christa primary
 CVFL6.CVFCHRUCSE  10 ONES          2076  1          =           FLAG  CVFCHRUCSE          UserID Access: Christa secondary
 CVFL6.CVFUIDCHR   30 NZ            2081  1          =           FLAG  (CVFUIDCHR,CVFCHRUCPR+CVFCHRUCSE,NZ)  UserID Christa
 CVFL6.CVFCHRKBPR  08 ONES          2093  1          =           FLAG  CVFCHRKBPR          Keyword Access: BDAM primary
 CVFL6.CVFCHRKBSE  04 ONES          2098  1          =           FLAG  CVFCHRKBSE          Keyword Access: BDAM secondary
1DSECTS   CV:       Global Control Vector                                                                                   Page   18
0Current Usings:  (CP,R11) (CV,R12)
0D-Loc  Object Code    Addr1 Addr2  Stmt Lv Lineno    Source Statement           (Hibal 5, Asmedit 3.3)  HLASM R4.0  2004/03/15 12.43
+_____  ______ ____    _____ _____  ____ __ ______    ______ _________
0CVFL6.CVFKWRBDM   0C NZ            2103  1          =           FLAG  (CVFKWRBDM,CVFCHRKBPR+CVFCHRKBSE,NZ)  Keyword BDAM
 CVFL6.CVFCHRKCPR  02 ONES          2115  1          =           FLAG  CVFCHRKCPR          Keyword Access: Christa primary
 CVFL6.CVFCHRKCSE  01 ONES          2120  1          =           FLAG  CVFCHRKCSE          Keyword Access: Christa secondary
 CVFL6.CVFKWRCHR   03 NZ            2125  1          =           FLAG  (CVFKWRCHR,CVFCHRKCPR+CVFCHRKCSE,NZ)  Keyword Christa
                                    2137  1          =
 0004CA 00                          2138  1          =CVJESFLG   FLAG
 CVJESFLG.CVJFNRUN 80 ONES          2142  1          =           FLAG  CVJFNRUN            - Runs not allowed
                                    2147  1          =
 0004CB 00                          2148  1          =CVWTOFLG   FLAG
 CVWTOFLG.CVWTOFWT 80 ONES          2152  1          =           FLAG  CVWTOFWTL           - Do WTL (not WTO)
 CVWTOFLG.CVWTOFNO 40 ONES          2157  1          =           FLAG  CVWTOFNOPFX         - No WTO prefix at all
 CVWTOFLG.CVWTOFUP 20 ONES          2162  1          =           FLAG  CVWTOFUPFX          - Put userid in prefix
 CVWTOFLG.CVWTOFAC 10 ONES          2167  1          =           FLAG  CVWTOFACTION        - Make WTO non-deletable
 CVWTOFLG.CVWTOFTA 08 ONES          2172  1          =           FLAG  CVWTOFTAPE          - Route WTO to tape station
                                    2177  1          =
 0004CC 00                          2178  1          =CVDBGFLG   FLAG
 CVDBGFLG.CVFDEBUG 80 ONES          2182  1          =           FLAG  CVFDEBUGIO          - DEBUG message is waiting
                                    2187  1          =
 0004CD 000000                            1
 0004D0 00000001                    2188  1          =CVONE      DC    F'1'                Constant of one
 0004D4 00000004                    2189  1          =CVFOUR     DC    F'4'                Constant of four
                                    2190  1          =CVBLANKS   DC    CL(&LINESZ)' '
 0004D8 4040404040404040                  1          +CVBLANKS   DC    CL(235)' '
 0005C4                             2191  1          =           DS    0F                  Exec variable 0 and 1
 0005C4 0000000000000000            2192  1          =CVPKZERO   DC    X'00000000000000000000000C'   F14.9
 0005D0 0000000000000100            2193  1          =CVPKONE    DC    X'00000000000001000000000C'   F14.9
                                    2194  1          =
 0005DC 00000000                    2195  1          =CVPTP      DC    A(*-*)              Page Table ptr
 0005E0 00000000                    2196  1          =CVXPTP     DC    A(*-*)              (Page Table ptr) - L'PT
                                    2197  1          =
 0005E4 00000000                    2198  1          =CVSTKCEL   DC    A(0)                Address of stack cell blocks
 0005E8 00000000                    2199  1          =CVHEAPCL   DC    A(0)                Address of heap cell blocks
 0005EC 00000000                    2200  1          =CVTSEGPL   DC    A(0)                Address of TSEG buffer cell blocks
                                    2201  1          =
 0005F0                             2202  1          =           DS    2F                  Reserved
                                    2203  1 **ISU**  =CVHACKWT   DC    AL2(&HACKDEL*100)   Wait time for password verfication
 0005F8 0000                              1 **ISU**  +CVHACKWT   DC    AL2(0*100)          Wait time for password verfication
                                    2204  1          =
 0005FA 0000                        2205  1          =           DC    H'0'                Reserved
 0005FC 00000000                    2206  1          =CVHLPPTR   DC    A(0)                Help directory ptr
                                    2207  1          =
 000600 00000000                    2208  1          =CVDICPTR   DC    A(0)                Spelling dictionary ptr
                                    2209  1          =
 000604 FFFF                        2210  1          =           DC    H'-1'               Reserved
                                    2211  1          =
 000606 FFFF                        2212  1          =           DC    H'-1'               Reserved
 000608 00000000                    2213  1          =CVNWDATE   DC    F'0'                Date of latest news item
                                    2214  1          =CVNWSIZ#   EQU   16384-16            Size of a news page
                                    2215  1          =CVNWMPG#   EQU   8                   Max no of news pages
 00060C 0000000000000000            2216  1          =CVNWPG     DC    (CVNWMPG#)F'0'      News page (memory) list
                                    2217  1          =CVNWINFO   EQU   CVNWDATE,*-CVNWDATE,C'X'
                                    2218  1          =
 00062C 00000000                          1
 000630 0000000000000000            2219  1          =CVDSPCLK   DC    D'0'                TOD clock at user dispatch
1DSECTS   CV:       Global Control Vector                                                                                   Page   19
0Current Usings:  (CP,R11) (CV,R12)
0D-Loc  Object Code    Addr1 Addr2  Stmt Lv Lineno    Source Statement           (Hibal 5, Asmedit 3.3)  HLASM R4.0  2004/03/15 12.43
+_____  ______ ____    _____ _____  ____ __ ______    ______ _________
0000638 0000000000000000            2220  1          =CVOLDCLK   DC    D'0'                TOD clock at last checkout
 000640 0000000000000000            2221  1          =CVWTCLK    DC    D'0'                Voluntary wait time
 000648 0000000000000000            2222  1          =           DC    2D'0'               Reserved
1DSECTS   CV:       Global Control Vector                                                                                   Page   20
0Current Usings:  (CP,R11) (CV,R12)
0D-Loc  Object Code    Addr1 Addr2  Stmt Lv Lineno    Source Statement           (Hibal 5, Asmedit 3.3)  HLASM R4.0  2004/03/15 12.43
+_____  ______ ____    _____ _____  ____ __ ______    ______ _________
0                                   2224= 1          =           ¿þþþþþþþþþþþþþþþÜ
                                    2225= 1          =           Ÿ  Statistics.  Ÿ
                                    2226= 1          =           ¾þþþþþþþþþþþþþþþ»
 000658 0000003C                    2227  1          =CV#INTVL   DC    F'60'               60 second statistics interval
 00065C 00000000                    2228  1          =CV#CPU     DC    F'0'                No. of secs CPU used last intvl
                                    2229  1          =
 000660                             2230  1          =CV#IOSEC   DS    H                   Page I/O's per second
 000664                             2231  1          =CV#IOCLK   DS    F                   Clock at I/O per sec calc
                                    2232  1          =*
                                    2233  1          =*
                                    2234  1          =CV#PAT     EQU   *                   Start of page type stats
 000668 E3C5E7E3                    2235  1          =CV#TXT     DC    C'TEXT'
 00066C 00000000                    2236  1          =CV#TXTIO   DC    F'0'                Number of TEXT page I/O's
 000670 00000000                    2237  1          =CV#TXTWR   DC    F'0'                Number of TEXT page writes
                                    2238  1          =
 000674 D4C9E2C3                    2239  1          =CV#MSC     DC    C'MISC'
 000678 00000000                    2240  1          =CV#MSCIO   DC    F'0'                All other page I/O's
 00067C 00000000                    2241  1          =CV#MSCWR   DC    F'0'                All other page writes
                                    2242  1          =
 000680 0000000000000000            2243  1          =           DC    3XL12'00'           Reserved
 0006A4 00000000                    2244  1          =           DC    XL4'00'             End of list
                                    2245  1          =
 0006A8 00000000                    2246  1          =CVCPMEM    DC    F'0'                Memory in use for CP space
 0006AC 00000000                    2247  1          =CVSTKMEM   DC    F'0'                Memory in use for STACK space
                                    2248  1          =
 0006B0 00000000                    2249  1          =CVSTKFRE   DC    F'0'                Number of user stack FREEMAINS
 0006B4 00000000                    2250  1          =CV#COUT    DC    F'0'                No. of checkpoint page outs
                                    2251  1          =
 0006B8 00000000                    2252  1          =CV#SNEM    DC    F'0'                Snatched an empty buffer
 0006BC 00000000                    2253  1          =CV#SNB     DC    F'0'                Snatched a buffer
 0006C0 00000000                    2254  1          =CV#SNC     DC    F'0'                Can't snatch a buffer
                                    2255  1          =
 0006C4 00000000                    2256  1          =CVMPGMEM   DC    F'0'                Memory in use for MPAGE space
 0006C8 00000000                    2257  1          =CVMEMTOT   DC    F'0'                Memory allocated by GETCORE
                                    2258  1          =
 0006CC 00000000                    2259  1          =CVSTKGET   DC    F'0'                Number of user stack GETMAINS
 0006D0 FFFFFFFF                    2260  1          =           DC    F'-1'               Reserved
1DSECTS   CV:       Global Control Vector                                                                                   Page   21
0Current Usings:  (CP,R11) (CV,R12)
0D-Loc  Object Code    Addr1 Addr2  Stmt Lv Lineno    Source Statement           (Hibal 5, Asmedit 3.3)  HLASM R4.0  2004/03/15 12.43
+_____  ______ ____    _____ _____  ____ __ ______    ______ _________
0                                   2262= 1          =           ¿þþþþþþþþþþþþþþþþþþþþþþþþÜ
                                    2263= 1          =           Ÿ  Resource group area.  Ÿ
                                    2264= 1          =           ¾þþþþþþþþþþþþþþþþþþþþþþþþ»
 0006D4 00000000                    2265  1          =CVFRSG     DC    A(0)                First rsg ptr
                                    2266  1          =
 0006D8 00000000                    2267  1          =CVRSG      DC    A(0)                Rsg effective start (milrsg)
 0006DC 00000000                    2268  1          =           DC    A(0)                Size of rscgroup
 0006E0 00000000                    2269  1          =           DC    A(0)                Address of last rsg
 0006E4 00000000                    2270  1          =           DC    A(0)
                                    2271  1          =
                                    2272  1          =CVRRUN     EQU   1                   Run-q          (Not checked)
                                    2273  1          =CVRSET     EQU   2                   Setup-q        (Not checked)
                                    2274  1          =CVRPAG     EQU   3                   Pageio-q       (Not checked)
                                    2275  1          =CVRIOW     EQU   4                   Iowa-q
                                    2276  1          =CVRKWR     EQU   5                   Kwr-q
                                    2277  1          =CVRSUB     EQU   6                   Job sumbission-q
                                    2278  1          =CVRHCM     EQU   7                   JES commands-q
                                    2279  1          =CVRKEY     EQU   8                   KEYS-q
                                    2280  1          =CVRLAST    EQU   CVRKEY              Highest number resource id
                                    2281  1          =
 0006E8 00000000                    2282  1          =CVECBLST   DC    V(ECBLIST)          ECB list ptr
                                    2283  1          =
 0006EC 00000000                    2284  1          =CVFIOWA    DC    A(0)                First EXIO work area
                                    2285  1          =
 0006F0 00000000                    2286  1          =CVOSDSPT   DC    A(0)                @ clock time last os dispatch
 0006F4 00000000                    2287  1          =CVTCPUTM   DC    A(0)                Total cpu time used by wyl
 0006F8 00000000                    2288  1          =CVSCPUTM   DC    A(0)                Cpu time at last stimer
 0006FC 00000000                    2289  1          =CVRCPUTM   DC    A(0)                Cpu time at last user disp.
 000700 00000000                    2290  1          =CVTIME     DC    A(0)                Total user charged cputime
 000704 00000000                          1
 000708 0000000000000000            2291  1          =CVCLOCK    DC    D'0'                Clock value @ last gttime
                                    2292  1          =
 000710 00000000                    2293  1          =CVSPIEAD   DC    A(0)                Spie recovery address
 000714 00000000                    2294  1          =CVITCBP    DC    A(0)                Initiator TCB ptr
 000718 00000000                    2295  1          =CVASCBP    DC    A(0)                ASCB ptr
 00071C 00000000                    2296  1 **ISU**  =CVLUVPTR   DC    A(0)                Pointer to eligible device table
                                    2297  1          =
 000720 00000000                    2298  1          =CVECB      DC    F'0'                Main ECB
                                    2299= 1          =           ¿þþþþþþþþþþþþþþþþþþþþþþþþþþþÜ
                                    2300= 1          =           Ÿ  Volume management area.  Ÿ
                                    2301= 1          =           ¾þþþþþþþþþþþþþþþþþþþþþþþþþþþ»
 000724 C9D6                        2302  1          =CVSTYPE    DC    C'IO'               Tiot ident for save vols
 000726 C4C4                        2303  1          =CVUTYPE    DC    C'DD'               Tiot ident for use vols
 000728 E3D4                        2304  1          =CVTTYPE    DC    C'TM'               Tiot ident for temp vols
 00072A 0000                              1
 00072C FFFFFFFF                    2305  1          =           DC    F'-1'               Reserved
 000730 00000000                    2306  1          =CVWTOLID   DC    F'0'                Last XWTO id (in case DOM needed)
 000734 00000000                    2307  1          =CVDEBUGP   DC    V(DEBUGSG)          DEBUG SEGCB ptr (see DEBUG macro)
 000738 00000000                    2308  1          =CVUSECVT   DC    A(*-*)              User cvt (scipcvt) ptr
 00073C 00000000                    2309  1          =CVTCBP     DC    A(0)                TCB ptr
 000740 00000000                    2310  1          =CVVOLIST   DC    A(0)                Address of volume list
 000744 00000000                    2311  1          =CVRCVOL    DC    A(0)                Address of first recovery vol
                                    2312  1          =
 000748 00000000                    2313  1          =CVWTOSGP   DC    V(WTOSG)            XWTO SEGCB ptr (see XWTO macro)
1DSECTS   CV:       Global Control Vector                                                                                   Page   22
0Current Usings:  (CP,R11) (CV,R12)
0D-Loc  Object Code    Addr1 Addr2  Stmt Lv Lineno    Source Statement           (Hibal 5, Asmedit 3.3)  HLASM R4.0  2004/03/15 12.43
+_____  ______ ____    _____ _____  ____ __ ______    ______ _________
0                                   2316= 1          =           ¿þþþþþþþþþþþþþþþþþþþþþþþþþþþþþþþþþþþþþþþþþþþþþþþþþþþþþþþþþþþþþþÜ
                                    2317= 1          =           Ÿ  Subroutine entry routine (called from PROC/XPROC), entered  Ÿ
                                    2318= 1          =           Ÿ  as follows:                                                 Ÿ
                                    2319= 1          =           Ÿ                                                              Ÿ
                                    2320= 1          =           Ÿ     BAL   R7,CVENT         Set up base register and trace    Ÿ
                                    2321= 1          =           Ÿ     DC    CL8'name'        Trace name                        Ÿ
                                    2322= 1          =           Ÿ     USING *,R7                                               Ÿ
                                    2323= 1          =           ¾þþþþþþþþþþþþþþþþþþþþþþþþþþþþþþþþþþþþþþþþþþþþþþþþþþþþþþþþþþþþþþ»
 00074C 4170 7008            00008  2324  1          =CVENT      LA    R7,8(,R7)           Bump addr
 000750 07F7                        2325  1          =CVENTBR    BR    R7                  Set to NOPR if tracing
                                    2326  1          =CVBRMSK    EQU   CVENTBR+1,1,C'X'    Four bit branch mask
                                    2327  1          =CVENTON    EQU   CVBRMSK,X'F0',14    Makes CVENTBR a NOPR
                                    2328  1          =CVENTOFF   EQU   CVBRMSK,X'F0',1     Makes CVENTBR a BR
 000752 900F C780/4DE0_      00780  2329  1          =           XTRACE ENTRY,REGS=(R15,R0,R1)
 000766 07F7                        2337  1          =           BR    R7                  Scram
                                    2338= 1          =           ¿þþþþþþþþþþþþþþþþþþþþþþþþþþþþþþþþþþþþþþþþþþþþþþþþþþþþþþþþþþþÜ
                                    2339= 1          =           Ÿ  Trace routine (linkage generated by XTRACE), entered as  Ÿ
                                    2340= 1          =           Ÿ  follows:                                                 Ÿ
                                    2341= 1          =           Ÿ                                                           Ÿ
                                    2342= 1          =           Ÿ     STM   R0,R15,CVLNKRGS                                 Ÿ
                                    2343= 1          =           Ÿ     BAL   RAR,CVTRC                                       Ÿ
                                    2344= 1          =           Ÿ     DC    AL2(flgs,rgmsk),CL8'name'                       Ÿ
                                    2345= 1          =           ¾þþþþþþþþþþþþþþþþþþþþþþþþþþþþþþþþþþþþþþþþþþþþþþþþþþþþþþþþþþþ»
 000768 50E0 C7B0            007B0  2346  1          =CVTRC      ST    RAR,CVLNKRTN        Save return addr
 00076C 58E0 C778            00778  2347  1          =           L     RAR,CVTRCRTN        Addr of trace routine
 000770 07FE                        2348  1          =           BR    RAR
                                    2349  1          =
 000772 58E0 C77C            0077C  2350  1          =CVEXIT     L     RAR,CVEXIRTN        CV exit routine addr
 000776 07FE                        2351  1          =           BR    RAR                 Exit
                                    2352  1          =
 000778 00000000                    2353  1          =CVTRCRTN   DC    V(TRC)              (FAIL)
 00077C 00000000                    2354  1          =CVEXIRTN   DC    V(CVPFXRTN)         (GLOB)
                                    2355  1          =
 000780                             2356  1          =CVLNKRGS   DS    16F                 Register save area
                                    2357  1          =CVLNKRTN   EQU   CVLNKRGS+(R12*4),4  Use R12 for return addr
 0007C0                             2358  1          =CVTRCDAT   DS    D                   Trace data
1DSECTS   CV:       Global Control Vector                                                                                   Page   23
0Current Usings:  (CP,R11) (CV,R12)
0D-Loc  Object Code    Addr1 Addr2  Stmt Lv Lineno    Source Statement           (Hibal 5, Asmedit 3.3)  HLASM R4.0  2004/03/15 12.43
+_____  ______ ____    _____ _____  ____ __ ______    ______ _________
0                                   2360  1          =*
                                    2361  1          =*  Exit routines:
                                    2362  1          =*
                                    2363  1          =*   CVNEXT,CVNXTMSG  - Get next command (normal end of command).
                                    2364  1          =*   CVABORT,CVABTMSG - Command error, don't do auto retry.
                                    2365  1          =*   CVERROR,CVERRMSG - Command error, ok to do auto retry.
                                    2366  1          =*
                                    2367  1          =* CVNXTMSG, CVABTMSG, CVERRMSG entries have a msg in R1,R0 to seg.
                                    2368  1          =*
 0007C8 9640 BD5A      00D5A        2369  1          =CVERRMSG   OI    CPFERROR,L'CPFERROR
 0007CC 9680 BD5A      00D5A        2370  1          =CVABTMSG   OI    CPFABORT,L'CPFABORT
 0007D0 58E0 C880            00880  2371  1          =CVNXTMSG   L     RAR,CVSEGRTN
 0007D4 07FE                        2372  1          =           BR    RAR
                                    2373  1          =
 0007D6 9640 BD5A      00D5A        2374  1          =CVERROR    OI    CPFERROR,L'CPFERROR
 0007DA 9680 BD5A      00D5A        2375  1          =CVABORT    OI    CPFABORT,L'CPFABORT
 0007DE 58E0 C87C            0087C  2376  1          =CVNEXT     L     RAR,CVCOMRTN
 0007E2 07FE                        2377  1          =           BR    RAR
                                    2378  1          =
 0007E4 58E0 C888            00888  2379  1          =CVNVALID   L     RAR,CVINVRTN        "x: invalid."
 0007E8 07FE                        2380  1          =           BR    RAR
                                    2381  1          =
 0007EA 58E0 C890            00890  2382  1          =CVNOACTN   L     RAR,CVNOARTN        "No action taken."
 0007EE 07FE                        2383  1          =           BR    RAR
                                    2384  1          =
 0007F0 58E0 C88C            0088C  2385  1          =CVABSENT   L     RAR,CVABSRTN        "Missing operand."
 0007F4 07FE                        2386  1          =           BR    RAR
                                    2387  1          =
 0007F6 58E0 C884            00884  2388  1          =CVMILERR   L     RAR,CVMILRTN        "MILTEN Interface Error"
 0007FA 0DEE                        2389  1          =           BASR  RAR,RAR
 0007FC 47F0 C7D6            007D6  2390  1          =           B     CVERROR
                                    2391  1          =
 000800                             2392  1          =           DS    XL64                Reserved
                                    2393  1          =
 000840 4810 E000            00000  2394  1          =CVLITMSG   LH    R1,@RAR             Signed literal offset
 000844 1A1E                        2395  1          =           AR    R1,RAR              Form ptr
 000846 1F00/4300 1000              2396  1          =           LC    R0,@R1              Len
 00084C 4110 1001            00001  2401  1          =           LA    R1,@R1+1            Loc
 000850 47F0 E002            00002  2402  1          =           B     @RAR+2
1DSECTS   CV:       Global Control Vector                                                                                   Page   24
0Current Usings:  (CP,R11) (CV,R12)
0D-Loc  Object Code    Addr1 Addr2  Stmt Lv Lineno    Source Statement           (Hibal 5, Asmedit 3.3)  HLASM R4.0  2004/03/15 12.43
+_____  ______ ____    _____ _____  ____ __ ______    ______ _________
0000854 FFFFFFFFFFFFFFFF            2404  1          =           DC    10F'-1'             Reserved
                                    2405  1          =
 00087C 00000000                    2406  1          =CVCOMRTN   DC    V(COMMAND)
 000880 00000000                    2407  1          =CVSEGRTN   DC    V(COMMSEG)
 000884 00000000                    2408  1          =CVMILRTN   DC    V(MILERR)
 000888 00000000                    2409  1          =CVINVRTN   DC    V(INVALID)
 00088C 00000000                    2410  1          =CVABSRTN   DC    V(ABSCENT)
 000890 00000000                    2411  1          =CVNOARTN   DC    V(NOACTION)
 000894 FFFFFFFFFFFFFFFF            2412  1          =           DC    3A(-1)              Reserved
                                    2413  1          =
 0008A0 00000000                    2414  1          =CVPARTBL   DC    V(EPARTBL)          (GLOB)  Translate to even parity
 0008A4 00000000                    2415  1          =CVNPRTBL   DC    V(NPARTBL)          (GLOB)  Translate to zero parity
 0008A8 00000000                    2416  1          =CVUPPTBL   DC    V(UPPTBL)           (GLOB)  Translate to upper table
 0008AC 00000000                    2417  1          =CVLOWTBL   DC    V(LOWTBL)           (GLOB)  Translate to lower table
 0008B0 00000000                    2418  1          =CVASCTBL   DC    V(ASCTBL)           (GLOB)  EBCDIC to ASCII table
 0008B4 00000000                    2419  1          =CVEBCTBL   DC    V(EBCTBL)           (GLOB)  ASCII to EBCDIC table
 0008B8 00000000                    2420  1          =CVBLTBL    DC    V(BLTBL)            (GLOB)  Blanks TRT table
 0008BC 00000000                    2421  1          =CVNBLTBL   DC    V(NBLTBL)           (GLOB)  Non-blanks TRT table
 0008C0 00000000                    2422  1          =CVEB7TBL   DC    V(EBCTBL7)          (GLOB)  ASCII-7 to EBCDIC table
 0008C4 00000000                    2423  1          =CVDOTTBL   DC    V(DOTTBL)           (GLOB)  Non-printing to dot table
 0008C8 0000000000000000            2424  1          =           DC    5F'0'               Reserved
                                    2426= 1          =           ¿þþþþþþþþþþþþþþþþþþþÜ
                                    2427= 1          =           Ÿ  Global counters  Ÿ
                                    2428= 1          =           ¾þþþþþþþþþþþþþþþþþþþ»
 0008DC 00000000                    2429  1          =CVNCOM     DC    F'0'                No. of commands
 0008E0 00000000                    2430  1          =CVNCOME    DC    F'0'                No. of commands from exec files
 0008E4 00000000                    2431  1          =CVNPIO     DC    F'0'                No. of page I/O's
 0008E8 00000000                    2432  1          =CVNDIO     DC    F'0'                No. of disk I/O's
 0008EC 00000000                    2433  1          =CVNRJE     DC    F'0'                No. of jobs submitted
 0008F0 00000000                    2434  1          =CVNPRINT   DC    F'0'                No. of prints
 0008F4 00000000                    2435  1          =CVNSLICE   DC    F'0'                No. of timeslice dispatches
 0008F8 00000000                    2436  1          =CVNDISP    DC    F'0'                No. of dispatches
                                    2437  1          =
 0008FC 00000000                    2438  1          =CV#CNT1    DC    F'0'                Statistic counters,
 000900 00000000                    2439  1          =CV#CNT2    DC    F'0'                  See SHOW WINFO Command in
 000904 00000000                    2440  1          =CV#CNT3    DC    F'0'                  &WYL.MODE for current use
 000908 00000000                    2441  1          =CV#CNT4    DC    F'0'                  and display.
 00090C 00000000                    2442  1          =CV#CNT5    DC    F'0'
 000910 00000000                    2443  1          =CV#CNT6    DC    F'0'
                                    2444  1          =
 000914 00000000                    2445  1          =CVLOGCNT   DC    F'0'                WYLBUR log info
 000918 00000000                    2446  1          =CVLOGSZ    DC    F'0'                Buffer size (actual)
 00091C 00000000                    2447  1          =CVLOGBF    DC    F'0'                Buffer start
 000920 00000000                    2448  1          =CVLOGPT    DC    F'0'                Buffer ptr
 000924 00000000                    2449  1          =CVLOGBF2   DC    F'0'                Overflow buffer start
 000928 00000000                    2450  1          =CVLOGPT2   DC    F'0'                Overflow buffer ptr (ie. end)
                                    2451  1          =CVLOGBSZ   EQU   32*1024-128         Buffer Size (to request)
                                    2452  1          =
 00092C 00000000                    2453  1          =CVNTIDLE   DC    F'0'                No. of TIDLE terminal I/O's
 000930 FFFFFFFF                    2454  1          =           DC    F'-1'               Reserved
                                    2455  1          =
 000934 000003E8                    2456  1          =CVCPUTIM   DC    F'1000'             10 seconds--CPU threshold
                                    2457  1          =
 000938 00000000                    2458  1          =CVNQSERV   DC    F'0'                No. of QSERV SVCs issued
1DSECTS   CV:       Global Control Vector                                                                                   Page   25
0Current Usings:  (CP,R11) (CV,R12)
0D-Loc  Object Code    Addr1 Addr2  Stmt Lv Lineno    Source Statement           (Hibal 5, Asmedit 3.3)  HLASM R4.0  2004/03/15 12.43
+_____  ______ ____    _____ _____  ____ __ ______    ______ _________
000093C 00000000                    2459  1          =CVNQSERR   DC    F'0'                No. of QSERV SVC errors
                                    2460  1          =
 000940 FFFFFFFFFFFFFFFF            2461  1          =           DC    31F'-1'             Reserved
1DSECTS   CV:       Global Control Vector                                                                                   Page   26
0Current Usings:  (CP,R11) (CV,R12)
0D-Loc  Object Code    Addr1 Addr2  Stmt Lv Lineno    Source Statement           (Hibal 5, Asmedit 3.3)  HLASM R4.0  2004/03/15 12.43
+_____  ______ ____    _____ _____  ____ __ ______    ______ _________
0                                   2463  1          =***
                                    2464  1          =***      Checkpoint Area
                                    2465  1          =***
 0009BC 00000000                    2466  1          =CVCHKIOB   DC    V(CHECKIOB)         Checkpoint IOB
 0009C0 00000000                    2467  1          =CVCHKBUF   DC    A(*-*)              Checkpoint I/O buffer
 0009C4 00000000                    2468  1          =CVCHKECB   DC    F'0'                Checkpoint I/O ECB
 0009C8 00000000                    2469  1          =CVCHKTAB   DC    A(*-*)              User checkpoint table
 0009CC FFFFFFFFFFFFFFFF            2470  1          =           DC    5F'-1'              Reserved
                                    2471  1          =
 0009E0 0000                        2472  1          =CVCHKLEN   DC    H'0'                Checkpoint record length
 0009E2 0000                        2473  1          =CVCHKTLN   DC    H'0'                User table length
                                    2474  1          =
 0009E4 0000                        2475  1          =CVCHKPUC   DC    H'0'                Previous checkpoint update count
 0009E6 FFFF                        2476  1          =           DC    H'-1'               Reserved
                                    2477  1          =
 0009E8 00000000                    2478  1          =CVCHKNIO   DC    F'0'                No. of checkpoint I/O's
                                    2479  1          =*
                                    2480  1          =*
 0009F0                             2481  1          =CVCHKST    DS    0D        ********  Start of record prefix
 0009F0 C3C8C5D2                    2482  1          =           DC    C'CHEK'
                                    2483  1          =
 0009F4 0000                        2484  1          =CVCHKUC    DC    H'0'                Checkpoint update count
 0009F6 0000                        2485  1          =           DC    H'0'                Reserved
                                    2486  1          =
 0009F8 0000000000000000            2487  1          =CVCHKCLK   DC    XL8'00'             Clock at last re-write
                                    2488  1          =
 000A00 00                          2489  1          =CVCFLAG    FLAG
 CVCFLAG.CVFDUMP   80 ONES          2493  1          =           FLAG  CVFDUMP             - Do sysudump on abend
 CVCFLAG.CVFRSV1   40 ONES          2498  1          =           FLAG  CVFRSV1             - Reserved flag
 CVCFLAG.CVFNOSMF  20 ONES          2503  1          =           FLAG  CVFNOSMF            - No SMF session accounting
 CVCFLAG.CVFNONET  10 ONES          2508  1          =           FLAG  CVFNONET            - Network interface is disabled
 CVCFLAG.CVFNONETC 08 ONES          2513  1          =           FLAG  CVFNONETCHK         - No network path checking
                                    2518  1          =
 000A01 00                          2519  1          =CVPGFLAG   FLAG
 CVPGFLAG.CVPGFREA 80 ONES          2523  1          =           FLAG  CVPGFREAL           - Page fix page buffers
 CVPGFLAG.CVPGFVIR 40 ONES          2528  1          =           FLAG  CVPGFVIRT           - Don't page fix page buffers
 CVPGFLAG.CVPGFAUT 20 ONES          2533  1          =           FLAG  CVPGFAUTO           - Auto switch between real/virt
                                    2538  1          =
 000A02 003C                        2539  1          =CVPGSECS   DC    H'60'               No. of secs between page adjusts
 000A04 01F4                        2540  1          =CVPGLMIN   DC    H'500'              Large config: min no. of buffers
 000A06 0BB8                        2541  1          =CVPGLMAX   DC    H'3000'             Large config: max no. of buffers
 000A08 0004                        2542  1          =CVPGLO     DC    H'4'                Too low if under pages/sec
 000A0A 0008                        2543  1          =CVPGHI     DC    H'8'                Too high if over pages/sec
                                    2544  1          =
 000A0C 0000                        2545  1          =CVPGMEG    DC    H'0'                Use small config if LE memory
 000A0E 0000                        2546  1          =CVPGSMIN   DC    H'0'                Small config: min no. of buffers
 000A10 0000                        2547  1          =CVPGSMAX   DC    H'0'                Small config: max no. of buffers
 000A12 000000000000                2548  1          =           DC    XL6'0'              Reserved
                                    2549  1          =
 000A18 00000000                    2550  1          =CVMSGCK    DC    F'0'                Clock
                                    2551  1          =CVMSG      DC    XL(&LINESZ)'00'     General message
 000A1C 0000000000000000                  1          +CVMSG      DC    XL(235)'00'         General message
                                    2552  1          =
 000B07 00                                1
1DSECTS   CV:       Global Control Vector                                                                                   Page   27
0Current Usings:  (CP,R11) (CV,R12)
0D-Loc  Object Code    Addr1 Addr2  Stmt Lv Lineno    Source Statement           (Hibal 5, Asmedit 3.3)  HLASM R4.0  2004/03/15 12.43
+_____  ______ ____    _____ _____  ____ __ ______    ______ _________
0000B08 00000000                    2553  1          =CVUMSGCK   DC    F'0'                Clock
                                    2554  1          =CVUMSG     DC    XL(&LINESZ)'00'     User message
 000B0C 0000000000000000                  1          +CVUMSG     DC    XL(235)'00'         User message
                                    2555  1          =
 000BF7 00                                1
 000BF8 00000000                    2556  1          =CVAMSGCK   DC    F'0'                Clock
                                    2557  1          =CVAMSG     DC    XL(&LINESZ)'00'     Accounting message
 000BFC 0000000000000000                  1          +CVAMSG     DC    XL(235)'00'         Accounting message
                                    2558  1          =
 000CE7 00                                1
 000CE8 00000000                    2559  1          =CVVMSGCK   DC    F'0'                Clock
                                    2560  1          =CVVMSG     DC    XL(&LINESZ)'00'     View message
 000CEC 0000000000000000                  1          +CVVMSG     DC    XL(235)'00'         View message
                                    2561  1          =
 000DD7 00                                1
 000DD8 0000                        2562  1          =CVVOLCUR   DC    H'0'                Next volume number to use
 000DDA 0000                        2563  1          =CVVOLMAX   DC    H'0'                Maximum number of volumes
                                    2564  1          =CVVOL#     EQU   5                   No. of entries
 000DDC 0000000000000000            2565  1          =CVVOL      DC    XL(CVVOL#*6)'00'    Volume names
                                    2566  1          =
 000DFC                             2567  1          =CVCPUMUL   DS    F                   CPU multiplication factor
                                    2568  1          =
 000E00                             2569  1          =           DS    9F                  Reserved
 000E28                             2570  1          =           DS    0D
                                    2571  1          =CVCHKPFX   EQU   CVCHKST,*-CVCHKST,C'X'
                                    2572  1          =*
                                    2573  1          =*
 000E28                             2574  1          =CVCHKST2   DS    0D        ********  Start of record suffix
 000E28                             2575  1          =           DS    F                   Reserved
 000E2C C5D5C4C3                    2576  1          =CVCHKEND   DC    C'ENDC'
                                    2577  1          =CVCHKSFX   EQU   CVCHKST2,*-CVCHKST2,C'X'
1DSECTS   CV:       Global Control Vector                                                                                   Page   28
0Current Usings:  (CP,R11) (CV,R12)
0D-Loc  Object Code    Addr1 Addr2  Stmt Lv Lineno    Source Statement           (Hibal 5, Asmedit 3.3)  HLASM R4.0  2004/03/15 12.43
+_____  ______ ____    _____ _____  ____ __ ______    ______ _________
0                                   2579  1          =***
                                    2580  1          =***  Allocated for Non-Stanford Use
                                    2581  1          =***
                                    2582  1          =           COPY  CVLOCAL
                                    2583  1          =***
                                    2584  1          =***  CVLOCAL -- Non-Stanford Definitions
                                    2585  1          =***
 000E30                             2586  1          =           DS    XL384               Use me!
 000FB0                00FB0 00FB0  2587  1          =           ORG
                                    2588  1          =
                                    2589  1          =CVSIZE     EQU   *-CVSTART
 000FB0                00FB0 00FB0  2590                       END
1DSECTS   CP:       User Control Page                                                                                       Page   29
0Current Usings:  (CP,R11) (CV,R12)
0D-Loc  Object Code    Addr1 Addr2  Stmt Lv Lineno    Source Statement           (Hibal 5, Asmedit 3.3)  HLASM R4.0  2004/03/15 12.43
+_____  ______ ____    _____ _____  ____ __ ______    ______ _________
0000018                             2600              CP       NAME
                                    2605
 000000                00000 01000  2606              CP       DSECT
                                    2607                       COPY  CP
 000000 C3D74040                    2608             =CPSTART  DC    CL4'CP'
                                    2609             =
 000004                             2610             =CPREGS   DS    16A                 Saved registers
                                    2611             =
 000044                             2612             =CPLEARNP DS    F                   Learned word pageno
                                    2613=            =         ¿þþþþþþþþþþþþþþþþþþþþþþþþþþþþþþþþþþþþþþþþþþþþþþþþþþþþþþþþþþþþþþÜ
                                    2614=            =         Ÿ  The seg buffer is allocated when the CP is allocated.       Ÿ
                                    2615=            =         Ÿ  CPSEGBP points to the buffer and CPSEGBSZ is the actual     Ÿ
                                    2616=            =         Ÿ  size of the buffer.  This buffer is used both for terminal  Ÿ
                                    2617=            =         Ÿ  read and write data.                                        Ÿ
                                    2618=            =         Ÿ                                                              Ÿ
                                    2619=            =         Ÿ  The maximum amount of terminal input we can accept is       Ÿ
                                    2620=            =         Ÿ  "CPSEGMX#".  It's ok if this is larger than the current     Ÿ
                                    2621=            =         Ÿ  buffer size, because the terminal routines will check to    Ÿ
                                    2622=            =         Ÿ  see if everything will fit and will allocate a larger       Ÿ
                                    2623=            =         Ÿ  buffer if it wont.                                          Ÿ
                                    2624=            =         ¾þþþþþþþþþþþþþþþþþþþþþþþþþþþþþþþþþþþþþþþþþþþþþþþþþþþþþþþþþþþþþþ»
                                    2625             =CPSEGDF# EQU   4096                Default seg buffer size
                                    2626             =CPSEGMX# EQU   16384               Maximum allowed seg buffer size
 000048                             2627             =CPSEGBP  DS    A                   Terminal seg buffer pointer
 00004C                             2628             =CPSEGBSZ DS    H                   Terminal seg buffer size
 00004E                             2629             =         DS    H                   Reserved
                                    2630             =
                                    2631             =CPSEG    SEGCB ,                   Seg buffer for terminal I/O
 000050 00                          2632    01-SEGCB +$$$SEGCB0 DS   0F
 CPSEGCOD.CPSEGSEG 01 EQ
 CPSEGCOD.CPSEGWR  02 EQ
 CPSEGCOD.CPSEGCLR 03 EQ
 CPSEGCOD.CPSEGSPP 04 EQ
 CPSEGCOD.CPSEGOVF 05 EQ
 CPSEGCOD.CPSEGCR  06 EQ
 CPSEGCOD.CPSEGMAR 07 EQ
 000051 00                          2707    01-SEGCB +         DC    X'00'               Reserved
 000052 0000                                         +
 000054 00000000                    2708    01-SEGCB +CPSEGMAXF DC   A(0)                Maximum buffer length
 000058 00000000                    2709    01-SEGCB +CPSEGMRKF DC   A(0)                Length at last mark
 00005C 00000000                    2710    01-SEGCB +CPSEGLENF DC   A(0)                Current length
 000060 00000000                    2711    01-SEGCB +CPSEGINDF DC   A(0)                Overflow/indent count
 000064 00000000                    2712    01-SEGCB +CPSEGERR DC    A(0)                Address of error recovery routine
 000068 0000000000000000            2713    01-SEGCB +         DC    2F'0'               Reserved
 000070 00000000                    2714    01-SEGCB +CPSEGLOC DC    A(0)                Location of buffer
 000074 00000000                    2715    01-SEGCB +CPSEGRTN DC    A(0)                Processing routine
 000078 0000000000000000            2716    01-SEGCB +         DC    4F'0'               Reserved
 000088 00000000                    2717    01-SEGCB +CPSEGUSR DC    A(0)                USER field
                                    2718    01-SEGCB +CPSEG    EQU   $$$SEGCB0,*-$$$SEGCB0,C'X'
                                    2719             =
 00008C                             2720             =CPNSCANP DS    A                   New SCANCB ptr (usually @CPNSCAN)
 000090                             2721             =CPNSCAN  DS    XL(L'NSCNCB)        New SCANCB area
1DSECTS   CP:       User Control Page                                                                                       Page   30
0Current Usings:  (CP,R11) (CV,R12)
0D-Loc  Object Code    Addr1 Addr2  Stmt Lv Lineno    Source Statement           (Hibal 5, Asmedit 3.3)  HLASM R4.0  2004/03/15 12.43
+_____  ______ ____    _____ _____  ____ __ ______    ______ _________
0                                   2723=            =         ¿þþþþþþþþþþþþþþþþþþþþþþþþþþþþþþþÜ
                                    2724=            =         Ÿ  ORVYL Interface Information  Ÿ
                                    2725=            =         ¾þþþþþþþþþþþþþþþþþþþþþþþþþþþþþþþ»
 000140                             2726             =         DS    0F
 000140 00                          2727             =CPORVCMD FLAG
 CPORVCMD.CPFREDT  80 ONES          2731             =         FLAG  CPFREDT             - Read  edit
 CPORVCMD.CPFWEDT  40 ONES          2736             =         FLAG  CPFWEDT             - Write edit
 CPORVCMD.CPFRTEXT 20 ONES          2741             =         FLAG  CPFRTEXT            - Read  text
 CPORVCMD.CPFWTEXT 10 ONES          2746             =         FLAG  CPFWTEXT            - Write text
 CPORVCMD.CPFCNTL  08 ONES          2751             =         FLAG  CPFCNTL             - Control
 CPORVCMD.CPFLKPP  04 ONES          2756             =         FLAG  CPFLKPP             - Locked page pass
 CPORVCMD.CPFVRSV1 02 ONES          2761             =         FLAG  CPFVRSV1            - Reserved
 CPORVCMD.CPFRCTRL 01 ONES          2766             =         FLAG  CPFRCTRL            - Read  control (see MILTEN/SIFT)
                                    2771             =
 000141                             2772             =         DS    XL7                 ORVYL info depending on CPORVCMD
                                    2773             =CPORVINF EQU   CPORVCMD,*-CPORVCMD,C'X'
                                    2774             =
                                    2775             =CPORVMOD EQU   *,2,C'X'            WYLBUR/ORVYL mode word
 000148                             2776             =CPORVCHR DS    C                   ORVYL prompt character
                                    2777             =
 000149 00                          2778             =CPORVFLG FLAG  ,                   ORVYL flags
 CPORVFLG.CPOFRSV  80 ONES          2782             =         FLAG  CPOFRSV             - Reserved
 CPORVFLG.CPOFNPAS 40 ONES          2787             =         FLAG  CPOFNPAS            - Pass syntactly incorrect cmds
 CPORVFLG.CPOFNSES 20 ONES          2792             =         FLAG  CPOFNSES            - No changes in a session break
 CPORVFLG.CPOFNALN 10 ONES          2797             =         FLAG  CPOFNALN            - ALIGN/JUSTIFY are blocked
 CPORVFLG.CPOFNNUM 08 ONES          2802             =         FLAG  CPOFNNUM            - NUMBER is blocked
 CPORVFLG.CPOFNCHG 04 ONES          2807             =         FLAG  CPOFNCHG            - ACTIVE file changes are blocked
 CPORVFLG.CPOFNFRM 02 ONES          2812             =         FLAG  CPOFNFRM            - Not used (was INFORM)
 CPORVFLG.CPOFPRST 01 ONES          2817             =         FLAG  CPOFPRST            - Return pressed lines
                                    2822             =
 00014C                             2823             =CPORVLNO DS    F                   Last READ EDIT lineno (or -1)
                                    2824             =CPORV    EQU   CPORVCMD,*-CPORVCMD,C'X'
                                    2825=            =         ¿þþþþþþþþþþþþþþþþþþþþþþþþþþþþþþþþþþþþþþþþþþþþþþþþþþþþþþþþþþþÜ
                                    2826=            =         Ÿ  The following flag byte is NOT reset by clearing CPORV.  Ÿ
                                    2827=            =         Ÿ    They are flags for us to keep track of the last thing  Ÿ
                                    2828=            =         Ÿ    we sent to ORVYL.                                      Ÿ
                                    2829=            =         ¾þþþþþþþþþþþþþþþþþþþþþþþþþþþþþþþþþþþþþþþþþþþþþþþþþþþþþþþþþþþ»
 000150 00                          2830             =CPORVWF  FLAG
 CPORVWF.CPOFRPASS 80 ONES          2834             =         FLAG  CPOFRPASS           - RD EDIT sent because syn error
                                    2839             =
 000151                             2840             =         DS    XL3                 Reserved
                                    2841             =
 000154                             2842             =CPSYS    DS    CL8                 Last subsystem to give us control
 00015C                             2843             =CPORGSYS DS    CL8                 Original subsystem we came from
 000164                             2844             =CPLGFSYS DS    CL8                 Subsystem name to transfer to
 00016C                             2845             =         DS    CL8                 Reserved
1DSECTS   CP:       User Control Page                                                                                       Page   31
0Current Usings:  (CP,R11) (CV,R12)
0D-Loc  Object Code    Addr1 Addr2  Stmt Lv Lineno    Source Statement           (Hibal 5, Asmedit 3.3)  HLASM R4.0  2004/03/15 12.43
+_____  ______ ____    _____ _____  ____ __ ______    ______ _________
0                                   2847             =CPINIT   EQU   *                   Start of fields zeroed at logon
 000174                             2848             =CPNAME   DS    CL20                User name (from KWRNAME)
 000188                             2849             =CPWPROJ  DS    CL8                 Project id ("WPROJECT")
 000190                             2850             =CPWAPP   DS    CL8                 Application info ("WAPP")
 000198                             2851             =CPUID    DS    CL32                User id (from KEYS file)
                                    2852             =
 0001B8                             2853             =CPACCTSV DS    0CL5                Saved account
 0001B8                             2854             =CPUSERSV DS    CL3                 .uuu
 0001BB                             2855             =CPGRPSV  DS    CL2                 .gg
                                    2856             =
 0001BD                             2857             =CPHOST   DS    CL32                Current host name
                                    2858             =
 0001E0                             2859             =CPNCOM   DS    F                   Number of commands executed
 0001E4                             2860             =CPNCOME  DS    F                   Number of commands in exec mode
                                    2861             =
 0001E8                             2862             =CPVTWAP  DS    A                   VTAM terminal work area
                                    2863             =
 0001EC                             2864             =CPNMAIL  DS    F                   Number of mail commands
                                    2865             =
 0001F0                             2866             =CPSECCNT DS    H                   Security violation counter
 0001F4                             2867             =CPSECCLK DS    F                   Security violation clock (STCK)
                                    2868             =
 0001F8                             2869             =CPSOF    DS    X                   Source of funds (see KWRSOF)
 0001F9                             2870             =CPAR     DS    X                   Accounts receivable (see KWRAR)
                                    2871             =CPSOF2   EQU   CPSOF,*-CPSOF,C'X'
                                    2872             =
 0001FA                             2873             =         DS    H                   Number of interruptable paths
                                    2874=            =         ¿þþþþþþþþþþþþþþþþþþþþþþþþþþþþþþþþþþþþþþþþþþþþþþþþþþþþþþþÜ
                                    2875=            =         Ÿ  DS    F                   Used by CPRACF1 now (PJG)  Ÿ
                                    2876=            =         ¾þþþþþþþþþþþþþþþþþþþþþþþþþþþþþþþþþþþþþþþþþþþþþþþþþþþþþþþ»
 0001FC 00                          2877             =CPRACF1  FLAG  ,                   Racf security interface flags
 CPRACF1.CPRACDEF  80 ONES          2881             =         FLAG  CPRACDEF              -  User has been identified
 CPRACF1.CPRACUND  40 ONES          2886             =         FLAG  CPRACUND              -  User is undefined to racf
 CPRACF1.CPRACPSW  20 ONES          2891             =         FLAG  CPRACPSW              -  User's password wrong
 CPRACF1.CPRACBAD  10 ONES          2896             =         FLAG  CPRACBAD              -  Undefined racinit error
 CPRACF1.CPRACRS1  08 ONES          2901             =         FLAG  CPRACRS1              -  Reserved
 CPRACF1.CPRACRS2  04 ONES          2906             =         FLAG  CPRACRS2              -  Reserved
 CPRACF1.CPRACRS3  02 ONES          2911             =         FLAG  CPRACRS3              -  Reserved
 CPRACF1.CPRACRS4  01 ONES          2916             =         FLAG  CPRACRS4              -  Reserved
 CPRACF1.CPRACXT   70 NZ            2921             =         FLAG  (CPRACXT,CPRACUND+CPRACPSW+CPRACBAD,NZ)
                                    2937             =
 0001FD 00                          2938             =         DC    AL1(0)              Reserved field
 0001FE 00                          2939             =CPRACFCI DC    AL1(0)              Initial return code from racinit
 0001FF 00                          2940             =CPRACFCF DC    AL1(0)              Final return code from racinit
                                    2941             =
 000200                             2942             =CPACEE   DS    A                   RACF ACEE pointer
 000204                             2943             =CPDENQP  DS    A                   DENQ'd dsname list ptr (DISK)
                                    2944             =
 000208                             2945             =CPWPATH  DS    CL8                 Alternate Wings path name
 000210                             2946             =CPWPATH1 DS    CL8                 Alternate Wings1 path name
 000218                             2947             =CPWPATH2 DS    CL8                 Alternate Wings2 path name
                                    2948             =
 000220                             2949             =CPNPATHS DS    H                   Number of open UPATHs
 000222                             2950             =CPNNETS  DS    H                   Number of open UNETs
1DSECTS   CP:       User Control Page                                                                                       Page   32
0Current Usings:  (CP,R11) (CV,R12)
0D-Loc  Object Code    Addr1 Addr2  Stmt Lv Lineno    Source Statement           (Hibal 5, Asmedit 3.3)  HLASM R4.0  2004/03/15 12.43
+_____  ______ ____    _____ _____  ____ __ ______    ______ _________
0                                   2951             =
 000224                             2952             =         DS    2A                  Reserved
                                    2953             =
 00022C 00000000                    2954             =CPQINFOQ DC    A(0)                Query info queue head
 000230                             2955             =         DS    F'0'                Reserved
                                    2956             =
 000234                             2957             =         DS    3A                  Reserved
                                    2958             =
 000240                             2959             =CPCMDLEN DS    H                   CPCMD length
                                    2960             =CPCMD    DS    CL(&LINESZ)         Current command text
 000242                                              +CPCMD    DS    CL(235)             Current command text
                                    2961             =
 000330                             2962             =CPHEAPCR DS    A                   Current end of heap
                                    2963             =
 000338                             2964             =CPCLCK   DS    D                   Clock at last dispatch
                                    2965             =
 000340                             2966             =CPCMDRTN DS    A                   Command exit routine addr
                                    2967             =
 000344                             2968             =         DS    0F
1DSECTS   CP:       User Control Page                                                                                       Page   33
0Current Usings:  (CP,R11) (CV,R12)
0D-Loc  Object Code    Addr1 Addr2  Stmt Lv Lineno    Source Statement           (Hibal 5, Asmedit 3.3)  HLASM R4.0  2004/03/15 12.43
+_____  ______ ____    _____ _____  ____ __ ______    ______ _________
0                                   2970             =CPS      SIB   ,                   Session information block
 000344                             2972    01-SIB   +CPSSTART DS    0F
 000344                             2973    01-SIB   +CPSID    DS    F                   Unique session number
 000348                             2974    01-SIB   +CPSNO    DS    H                   Session number
 00034A                             2975    01-SIB   +CPSTMINC DS    H                   No. minutes session was idle
                                    2976    01-SIB   +CPSIHDR  EQU   CPSSTART,*-CPSSTART,C'X'
                                    2977             +
 00034C                             2978    01-SIB   +CPSFE    DS    CL8                 Front-end name
                                    2979             +
 000354                             2980    01-SIB   +CPSPORT  DS    CL8                 Port name
 00035C                             2981    01-SIB   +CPSPINFO DS    CL20                Port information
 000370                             2982    01-SIB   +CPSPLOC  DS    CL20                Port location
 000384 00                          2983             +*
 CPSFL.CPSFDIAL    80 ONES
 CPSFL.CPSFSUN     40 ONES
 CPSFL.CPSFDIR     20 ONES
 CPSFL.CPSFGAND    10 ONES
 CPSFL.CPSFDUMB    08 ONES
 000385 00                          3013             +*
 CPSFL2.CPSFLEAS   80 ONES
 CPSFL2.CPSFTEL    40 ONES
 CPSFL2.CPSFTYM    20 ONES
 CPSFL2.CPSFRLIN   10 ONES
 000386 00                          3038             +*
 CPSFL3.CPSFPS     80 ONES
 CPSFL3.CPSFPTID   40 ONES
 CPSFL3.CPSFOP     20 ONES
 000387 00                          3058             +*
 CPSFL4.CPSFSTOP   80 ONES
 CPSFL4.CPSFDET    40 ONES
 CPSFL4.CPSFDUM    20 ONES
 000388 00                          3078             +*
 CPSFL5.CPSFDOWN   80 ONES
 CPSFL5.CPSFHU     40 ONES
 CPSFL5.CPSFERR    20 ONES
                                    3098             +*
 000389                             3099    01-SIB   +         DS    X                   Reserved
                                    3100    01-SIB   +CPSPIB   EQU   CPSPORT,*-CPSPORT,C'X'
                                    3101             +
 00038C 00                          3102    01-SIB   +CPS1ST   DS    0F
 CPSTYPE.CPSTCONS  01 EQ
 CPSTYPE.CPSTASYN  02 EQ
 CPSTYPE.CPSTPDP   03 EQ
 CPSTYPE.CPSTVTAM  04 EQ
 CPSTYPE.CPSTVIRT  05 EQ
 CPSTYPE.CPSTNSC   06 EQ
 CPSTYPE.CPSTELF   07 EQ
 CPSTYPE.CPSTALF   08 EQ
                                    3187             +
 00038D                             3188    01-SIB   +CPSTINFO DS    XL2                 Terminal info flags
 00038F 00                          3189             +*
 CPSSTAT.CPSFDSC   80 ONES
 CPSSTAT.CPSFLGF   40 ONES
 CPSSTAT.CPSFSOF   20 ONES
1DSECTS   CP:       User Control Page                                                                                       Page   34
0Current Usings:  (CP,R11) (CV,R12)
0D-Loc  Object Code    Addr1 Addr2  Stmt Lv Lineno    Source Statement           (Hibal 5, Asmedit 3.3)  HLASM R4.0  2004/03/15 12.43
+_____  ______ ____    _____ _____  ____ __ ______    ______ _________
0CPSSTAT.CPSFKL    10 ONES
 CPSSTAT.CPSFTO    08 ONES
 CPSSTAT.CPSFMT    04 ONES
 CPSSTAT.CPSFKEPT  02 ONES
                                    3229             +*
 000390                             3230    01-SIB   +CPSNMSG  DS    H                   No. of async msgs waiting
                                    3231             +
 000392                             3232    01-SIB   +CPSTETYP DS    C                   SMF port type
 000393                             3233    01-SIB   +         DS    X                   Reserved (was line-speed)
                                    3234             +
 000394                             3235    01-SIB   +CPSSUB   DS    CL8                 Current subsystem
                                    3236             +
 00039C                             3237    01-SIB   +         DS    0F
 00039C                             3238    01-SIB   +CPSVPGM  DS    CL8                 ORVYL program
 0003A4                             3239    01-SIB   +CPSVCPU  DS    F                   ORVYL CPU time used
 0003A8                             3240    01-SIB   +CPSVFLAG DS    X                   ORVYL flags
                                    3241    01-SIB   +CPSVFRUN EQU   X'80'               - Program is running (not paused)
                                    3242    01-SIB   +CPSVFATH EQU   X'40'               - Program is authorized
 0003A9                             3243    01-SIB   +CPSVDIO  DS    XL3                 ORVYL Disk I/O
                                    3244    01-SIB   +CPSVINFO EQU   CPSVPGM,*-CPSVPGM,C'X'
                                    3245             +
 0003AC                             3246    01-SIB   +CPSLCLCK DS    XL8                 Tod clock at logon
                                    3247             +
                                    3248    01-SIB   +CPSACCT  EQU   *,5,C'C'            Account (uuugg)
 0003B4                             3249    01-SIB   +CPSUSER  DS    CL3                 .uuu
 0003B7                             3250    01-SIB   +CPSGRP   DS    CL2                 .gg
 0003B9                             3251    01-SIB   +CPSANO   DS    XL2                 .number
 0003BB 00                          3252             +*
 CPSSFLG.CPSSFNAT  80 ONES
 CPSSFLG.CPSSFNAR  40 ONES
 CPSSFLG.CPSSFPS   20 ONES
 CPSSFLG.CPSSFOP   10 ONES
 CPSSFLG.CPSSFSEC  08 ONES
 CPSSFLG.CPSSFPRT  04 ONES
 0003BC 00                          3287             +*
 CPSTACF.CPSFNST   80 ONES
 CPSTACF.CPSFNTM   40 ONES
 CPSTACF.CPSRSVX20 20 ONES
 CPSTACF.CPSRSVX10 10 ONES
 CPSTACF.CPSRSVX08 08 ONES
 CPSTACF.CPSRSVX04 04 ONES
 CPSTACF.CPSFNDAY  02 ONES
 CPSTACF.CPSRSVX01 01 ONES
                                    3332             +*
 0003BD                             3333    01-SIB   +         DS    X                   Reserved
 0003BE 00                          3334             +*
 CPSKIFL.CPSFIVAL  80 ONES
 CPSKIFL.CPSFAPR   40 ONES
 CPSKIFL.CPSFSPR   20 ONES
 CPSKIFL.CPSFOPR   10 ONES
 CPSKIFL.CPSFSBM   08 ONES
 CPSKIFL.CPSFSUB   04 ONES
 CPSKIFL.CPSFADM   02 ONES
 CPSKIFL.CPSFPC    01 ONES
1DSECTS   CP:       User Control Page                                                                                       Page   35
0Current Usings:  (CP,R11) (CV,R12)
0D-Loc  Object Code    Addr1 Addr2  Stmt Lv Lineno    Source Statement           (Hibal 5, Asmedit 3.3)  HLASM R4.0  2004/03/15 12.43
+_____  ______ ____    _____ _____  ____ __ ______    ______ _________
00003BF 00                          3379             +*
 CPSKAFL.CPSFAVAL  80 ONES
 CPSKAFL.CPSFR1    40 ONES
 CPSKAFL.CPSFR2    20 ONES
 CPSKAFL.CPSFR3    10 ONES
 CPSKAFL.CPSFTOK   08 ONES
                                    3409             +*
 0003C0                             3410    01-SIB   +CPSASCBP DS    A                   ASCB addr, if virtual session
                                    3411    01-SIB   +CPSSESS  EQU   CPSACCT,*-CPSACCT,C'X'
                                    3412    01-SIB   +CPSINFO  EQU   CPSSTART,*-CPSSTART,C'X'
                                    3413             +***
                                    3414             +***  Fields below here can be modified by the user program.
                                    3415             +***
 0003C4                             3416    01-SIB   +CPSOPST  DS    0F
 0003C4                             3417    01-SIB   +CPSUC    DS    H                   Update count
 0003C6                             3418    01-SIB   +CPSNAME  DS    CL20                User name
 0003DA                             3419    01-SIB   +CPSTID   DS    CL8                 Terminal id
 0003E2 00                          3420    01-SIB   +CPSTCLS  DS    CL8                 Terminal class
 CPSTFLAG.CPSFMOD  80 ONES
 CPSTFLAG.CPSFSAM  40 ONES
 CPSTFLAG.CPSFALTD 20 ONES
                                    3440             +
 0003EB                             3441    01-SIB   +         DS    XL1                 Reserved
 0003EC 00                          3442             +*
 CPSQFLG.CPSFVFAST 80 ONES
 0003ED 00                          3452             +*
 0003EE 00                          3457             +*
 CPSUFLG.CPSFNMSG  80 ONES
 CPSUFLG.CPSFNCOM  40 ONES
 CPSUFLG.CPSFNBRK  20 ONES
 CPSUFLG.CPSFNTIM  10 ONES
 CPSUFLG.CPSFCLN   08 ONES
 CPSUFLG.CPSFDISP  04 ONES
 CPSUFLG.CPSFPERM  02 ONES
 CPSUFLG.CPSFTRAN  01 ONES
 0003EF 00                          3502             +*
 CPSUFLG2.CPSFTRC  80 ONES
 CPSUFLG2.CPSFKEEP 40 ONES
                                    3517    01-SIB   +CPSG     EQU   CPSSTART,*-CPSSTART,C'X'
                                    3518             +***
                                    3519             +***  Information below this line is considered "private" and
                                    3520             +***    the user can only sense it for his own session.
                                    3521             +***
 0003F0                             3522    01-SIB   +CPSPROJ  DS    CL8                 Project-id
 0003F8 00                          3523             +*
 CPSFLG.CPSFUPL    80 ONES
 CPSFLG.CPSFBACK   40 ONES
 CPSFLG.CPSFFAST   20 ONES
 CPSFLG.CPSFRSV8   10 ONES
 CPSFLG.CPSFPSP    08 ONES
 CPSFLG.CPSFXON    04 ONES
 CPSFLG.CPSFFILT   02 ONES
 CPSFLG.CPSFNECH   01 ONES
 0003F9 00                          3568             +*
1DSECTS   CP:       User Control Page                                                                                       Page   36
0Current Usings:  (CP,R11) (CV,R12)
0D-Loc  Object Code    Addr1 Addr2  Stmt Lv Lineno    Source Statement           (Hibal 5, Asmedit 3.3)  HLASM R4.0  2004/03/15 12.43
+_____  ______ ____    _____ _____  ____ __ ______    ______ _________
0CPSFLG2.CPSFSAMFO 80 ONES
 CPSFLG2.CPSFERA   40 ONES
 CPSFLG2.CPSFNTYP  20 ONES
                                    3588             +*
 0003FA                             3589    01-SIB   +CPSINMX  DS    H                   Maximum input length allowed
 0003FC                             3590    01-SIB   +CPSOUMX  DS    H                   Maximum output length allowed
 0003FE                             3591    01-SIB   +CPSCHAR  DS    CL8                 Terminal translate table name
 000406                             3592    01-SIB   +CPSTABS  DS    XL16                Tabs
 000416 00                          3593             +*
 CPSOFLAG.CPSFPAR  80 ONES
 CPSOFLAG.CPSFEVEN 40 ONES
 CPSOFLAG.CPSFODD  20 ONES
 CPSOFLAG.CPSFMARK 10 ONES
 CPSOFLAG.CPSFQUIE 08 ONES
 000417                             3623    01-SIB   +         DS    X                   Reserved
 000418                             3624    01-SIB   +CPSWID   DS    H                   Terminal width, actual
 00041A                             3625    01-SIB   +CPSHEIP  DS    H                   Terminal height, before pausing
 00041C                             3626    01-SIB   +CPSHEI   DS    H                   Terminal height, actual
                                    3627             +
 00041E                             3628    01-SIB   +CPSTTYPE DS    CL8                 Terminal type
 000426                             3629    01-SIB   +         DS    XL2                 Reserved
 000428                             3630    01-SIB   +CPSIPADR DS    F                   IP address for TCP/IP sessions
 00042C                             3631    01-SIB   +         DS    XL2                 Reserved
                                    3632             +
 00042E                             3633    01-SIB   +CPSIDMAX DS    H                   Max no. of idle minutes allowed
                                    3634             +
 000430                             3635    01-SIB   +CPSALTWID DS   H                   Alternate width (0=none)
 000432                             3636    01-SIB   +CPSALTHEI DS   H                   Alternate height (0=none)
                                    3637             +
 000434                             3638    01-SIB   +CPSCRI   DS    2H                  CR idles
 000438                             3639    01-SIB   +CPSLFI   DS    H                   LF idles
 00043A                             3640    01-SIB   +CPSHTI   DS    2H                  HT idles
 00043E                             3641    01-SIB   +CPSCAI   DS    H                   Cursor-address idles
 000440                             3642    01-SIB   +CPSCSI   DS    H                   Clear-screen idles
                                    3643    01-SIB   +CPSIDLE  EQU   CPSCRI,*-CPSCRI,C'X'
                                    3644             +
                                    3645    01-SIB   +CPSOPT   EQU   CPSOPST,*-CPSOPST,C'X'
                                    3646             +
                                    3647    01-SIB   +CPS1     EQU   CPS1ST,*-CPS1ST,C'X'
                                    3648             +
                                    3649    01-SIB   +CPS      EQU   CPSSTART,*-CPSSTART,C'X'
                                    3651             =
 000442                             3652             =         DS    0S(256-L'CPS)       Error if not enough room for sib
 000442                00442 00444  3653             =         ORG   CPS+256             (fuzzy room, for expansion)
                                    3654             =
                                    3655             =CPSIB    EQU   CPS,*-CPS,C'X'
                                    3656             =
 000444                             3657             =CPSPFL   DS    X                   Privilege flags
 000445                             3658             =         DS    XL3                 Reserved
                                    3659             =
 000448                             3660             =CPWCHAR  DS    CL16                Current WCHARGE component
                                    3661             =
 000458                             3662             =CPLACCT  DS    0CL5                Account prior to SET LOGON
 000458                             3663             =CPLUSER  DS    CL3                 .uuu
1DSECTS   CP:       User Control Page                                                                                       Page   37
0Current Usings:  (CP,R11) (CV,R12)
0D-Loc  Object Code    Addr1 Addr2  Stmt Lv Lineno    Source Statement           (Hibal 5, Asmedit 3.3)  HLASM R4.0  2004/03/15 12.43
+_____  ______ ____    _____ _____  ____ __ ______    ______ _________
000045B                             3664             =CPLGRP   DS    CL2                 .gg
                                    3665             =
 00045D                             3666             =         DS    CL11                Reserved
                                    3667             =
 000468                             3668             =CPTTYPEP DS    A                   TTYPE entry ptr
                                    3669             =
 00046C                             3670             =CPREND   DS    CL8                 Current rendition
1DSECTS   CP:       User Control Page                                                                                       Page   38
0Current Usings:  (CP,R11) (CV,R12)
0D-Loc  Object Code    Addr1 Addr2  Stmt Lv Lineno    Source Statement           (Hibal 5, Asmedit 3.3)  HLASM R4.0  2004/03/15 12.43
+_____  ______ ____    _____ _____  ____ __ ______    ______ _________
0                                   3672=            =         ¿þþþþþþþþþþþþþþþþþþþþþÜ
                                    3673=            =         Ÿ  Global user flags  Ÿ
                                    3674=            =         ¾þþþþþþþþþþþþþþþþþþþþþ»
 000474 00                          3675             =CPGFLG1  FLAG
 CPGFLG1.CPGFCPR   80 ONES          3679             =         FLAG  CPGFCPR             - CPROMPT has been set
 CPGFLG1.CPFRCVY   40 ONES          3684             =         FLAG  CPFRCVY             - Recovery is in progress
 CPGFLG1.CPFSEC    20 ONES          3689             =         FLAG  CPFSEC              - Secure exec mode in effect
 CPGFLG1.CPFSLOCK  10 ONES          3694             =         FLAG  CPFSLOCK            - Secure and locked
 CPGFLG1.CPFSYSMV  08 ONES          3699             =         FLAG  CPFSYSMV            - Transferring to new subsystem
                                    3704             =
 000475 00                          3705             =CPGFLG2  FLAG
                                    3709             =*        EQU   X'20'               - Reserved
                                    3710             =CPFACTSV EQU   X'01'               - Active file saved by rcvy
                                    3711             =
                                    3712             =CPLEXATO EQU   X'10'               - Local flag for show exec
                                    3713             =CPFLIMIT EQU   X'08'               - Local flag for show exec
                                    3714             =
 000476 00                          3715             =CPGFLG3  FLAG
                                    3719             =CPFKWENT EQU   X'80'               - Keyword entered for set grp
                                    3720             =CPFCMDFX EQU   X'40'               - Prompt for mod of cmd lines
                                    3721             =CPFCMDED EQU   X'20'               - Edit cmd retry mode
                                    3722             =*        EQU   X'10'               - Reserved
                                    3723             =CPF3IMED EQU   X'08'               - Implicit editing cmds ok
                                    3724             =*        EQU   X'04'               - Reserved
                                    3725             =*        EQU   X'02'               - Reserved
                                    3726             =CPF3EXBK EQU   X'01'               - Break exec file at cmdprt
                                    3727             =
 000477 00                          3728             =CPGFLG4  FLAG
                                    3732             =CPFNPREP EQU   X'80'               - Do not preprocess command
                                    3733             =CPFAUSET EQU   X'40'               - Authorized account set
                                    3734             =CPF4TRUE EQU   X'20'               - Last exec if command true
 CPGFLG4.CPFTYPED  10 ONES          3735             =         FLAG  (CPFTYPED,X'10')    - Command typed at terminal
 CPGFLG4.CPFEXNIN  08 ONES          3744             =         FLAG  (CPFEXNIN,X'08')    - Don't increment exec lineno
 CPGFLG4.CPFNPARM  04 ONES          3753             =         FLAG  (CPFNPARM,X'04')    - Exec "parm" not set
 CPGFLG4.CPFNDEF   02 ONES          3762             =         FLAG  (CPFNDEF,X'02')     - Do not do define substitution
 CPGFLG4.CPGFNLST  01 ONES          3771             =         FLAG  (CPGFNLST,X'01')    - Global nolist option
                                    3780             =
 000478 00                          3781             =CPGFLG5  FLAG
 CPGFLG5.CPGFMULT  80 ONES          3785             =         FLAG  CPGFMULT            - Allow multiple cmds on a line
 CPGFLG5.CPGFCLR   40 ONES          3790             =         FLAG  CPGFCLR             - Assume clear if no changes
 CPGFLG5.CPGFWR    20 ONES          3795             =         FLAG  CPGFWR              - Write has occurred (for "@ok")
 CPGFLG5.CPGFNCMD  10 ONES          3800             =         FLAG  CPGFNCMD            - New command waiting in CPCMD
 CPGFLG5.CPGFNATN  08 ONES          3805             =         FLAG  CPGFNATN            - Don't allow just attn for collect
 CPGFLG5.CPGFCMDA  04 ONES          3810             =         FLAG  CPGFCMDA            - Command waiting ended with attn
 CPGFLG5.CPGFRSV1  02 ONES          3815             =         FLAG  CPGFRSV1            - Reserved
 CPGFLG5.CPGFRSV2  01 ONES          3820             =         FLAG  CPGFRSV2            - Reserved
                                    3825             =
 000479 00                          3826             =CPGFLG6  FLAG  ,                   On Error flags
 CPGFLG6.CPFONERR  80 ONES          3830             =         FLAG  CPFONERR            On Error specified
 CPGFLG6.CPFDDERR  40 ONES          3835             =         FLAG  CPFDDERR            On Error specified, disabled
 CPGFLG6.CPFXXERR  20 ONES          3840             =         FLAG  CPFXXERR            Error has occurred
                                    3845             =
 00047A 00                          3846             =CPGFLG7  FLAG  ,                   On Attn flags
 CPGFLG7.CPFONATN  80 ONES          3850             =         FLAG  CPFONATN            On Attn specified
1DSECTS   CP:       User Control Page                                                                                       Page   39
0Current Usings:  (CP,R11) (CV,R12)
0D-Loc  Object Code    Addr1 Addr2  Stmt Lv Lineno    Source Statement           (Hibal 5, Asmedit 3.3)  HLASM R4.0  2004/03/15 12.43
+_____  ______ ____    _____ _____  ____ __ ______    ______ _________
0CPGFLG7.CPFDDATN  40 ONES          3855             =         FLAG  CPFDDATN            On Attn specified, disabled
 CPGFLG7.CPFINATN  20 ONES          3860             =         FLAG  CPFINATN            On Attn ,commands interruptible
 CPGFLG7.CPFXXATN  10 ONES          3865             =         FLAG  CPFXXATN            Attn has occurred
                                    3870             =
 00047B 00                          3871             =CPGFLG8  FLAG  ,
 CPGFLG8.CPFTRY    80 ONES          3875             =         FLAG  CPFTRY              TRY command
 CPGFLG8.CPFXXTRY  40 ONES          3880             =         FLAG  CPFXXTRY            Special TRY flag, see CHECKTRY rtn
 CPGFLG8.CPFTATTN  20 ONES          3885             =         FLAG  CPFTATTN            Attn during last TRY
 CPGFLG8.CPFTERR   10 ONES          3890             =         FLAG  CPFTERR             Error during last TRY
                                    3895             =
 00047C 00                          3896    **ISU**  =CPGFLG9  FLAG  ,                   SIGNON process flags
 CPGFLG9.CPFSGNML  80 ONES          3900    **ISU**  =         FLAG  CPFSGNML            - Initial signon
                                    3905    **ISU**  =*                                    (not from another system)
 CPGFLG9.CPFSGNCM  40 ONES          3906    **ISU**  =         FLAG  CPFSGNCM            - First command has been provided
                                    3911             =
 00047D 00                          3912             =CPGFLG10 FLAG
 CPGFLG10.CPFVCMD  80 ONES          3916             =         FLAG  CPFVCMD             - Command for WYL from ORVYL
 CPGFLG10.CPFVEXED 40 ONES          3921             =         FLAG  CPFVEXED            - Cmd from ORV, pushed exec mode
 CPGFLG10.CPGFSAMT 20 ONES          3926             =         FLAG  CPGFSAMT            - Samson tracing turned on
 CPGFLG10.CPGFSAMD 10 ONES          3931             =         FLAG  CPGFSAMD            - Samson debug messages turned on
 CPGFLG10.CPGFSAMS 08 ONES          3936             =         FLAG  CPGFSAMSLOW         - Samson force slow FTP
 CPGFLG10.CPGFSAMN 04 ONES          3941             =         FLAG  CPGFSAMNFTPCRYPT    - Samson never encrypt FTP
                                    3946             =
 00047E 00                          3947             =CPGFLG11 FLAG  ,
 CPGFLG11.CPFNIZ   80 ONES          3951             =         FLAG  CPFNIZ              - NIZ mode (used for debugging)
 CPGFLG11.CPFAPRIL 40 ONES          3956             =         FLAG  CPFAPRILFOOL        - NIZ hacking
                                    3961             =
 00047F 00                          3962             =CPGFLG12 FLAG  ,
 CPGFLG12.CPFLEARN 80 ONES          3966             =         FLAG  CPFLEARN            - Words in user dictionary
 CPGFLG12.CPFBIGXM 40 ONES          3971             =         FLAG  CPFBIGXMON          - Big memory xmonitor user
 CPGFLG12.CPFNTMO  20 ONES          3976             =         FLAG  CPFNTMO             - No wings timeout, for ses debug
                                    3981             =
 000480 00                          3982             =CPGFLG13 FLAG  ,
 CPGFLG13.CPGFNOSP 80 ONES          3986             =         FLAG  CPGFNOSPIEDIT       - Never do "SPIRES mode" read edit
                                    3991             =
 000481 00                          3992             =CPGFLG14 FLAG  ,                   - Default file system (FDEF)
 CPGFLG14.CPGFFWIN 80 ONES          3996             =         FLAG  CPGFFWINGS
 CPGFLG14.CPGFFOLD 40 ONES          4001             =         FLAG  CPGFFOLDIBM
 CPGFLG14.CPGFFNET 20 ONES          4006             =         FLAG  CPGFFNET            Not used, delete 1/1/94
 CPGFLG14.CPGFFSAM 10 ONES          4011             =         FLAG  CPGFFSAM            Not used, delete 1/1/94
 CPGFLG14.CPGFFUNI 08 ONES          4016             =         FLAG  CPGFFUNIX           Not used, delete 1/1/94
                                    4021             =
 000482 00                          4022             =CPGFLG15 FLAG  ,
 000483 00                          4026             =CPGFLG16 FLAG  ,
                                    4030             =
                                    4031             =CPGFLGS  EQU   CPGFLG1,*-CPGFLG1,C'X'
1DSECTS   CP:       User Control Page                                                                                       Page   40
0Current Usings:  (CP,R11) (CV,R12)
0D-Loc  Object Code    Addr1 Addr2  Stmt Lv Lineno    Source Statement           (Hibal 5, Asmedit 3.3)  HLASM R4.0  2004/03/15 12.43
+_____  ______ ____    _____ _____  ____ __ ______    ______ _________
0                                   4033=            =         ¿þþþþþþþþþþþþþþþþþþÜ
                                    4034=            =         Ÿ  Record Groups.  Ÿ
                                    4035=            =         ¾þþþþþþþþþþþþþþþþþþ»
                                    4036             =CPTEXT   RG    ,                   ACTIVE files
 000484                             4037    01-RG    +         DS    0H
 000484                             4038    01-RG    +CPTEXT   DS    XL32
                                    4039             =CPEXEC   RG    ,                   EXEC files
 0004A4                             4040    01-RG    +         DS    0H
 0004A4                             4041    01-RG    +CPEXEC   DS    XL32
                                    4042             =CPFLOW   RG    ,                   EXEC file flow control info
 0004C4                             4043    01-RG    +         DS    0H
 0004C4                             4044    01-RG    +CPFLOW   DS    XL32
                                    4045             =CPVARS   RG    ,                   EXEC variables
 0004E4                             4046    01-RG    +         DS    0H
 0004E4                             4047    01-RG    +CPVARS   DS    XL32
                                    4048             =CPDATA   RG    ,                   EXEC GETDATA/PUTDATA variables
 000504                             4049    01-RG    +         DS    0H
 000504                             4050    01-RG    +CPDATA   DS    XL32
                                    4051             =CPDATANL EQU   32                  Name len of CPDATA
                                    4052             =CPRG16   RG    ,                   Misc RecGroup (name length=16)
 000524                             4053    01-RG    +         DS    0H
 000524                             4054    01-RG    +CPRG16   DS    XL32
                                    4055             =CPRG64   RG    ,                   Misc RecGroup (name length=64)
 000544                             4056    01-RG    +         DS    0H
 000544                             4057    01-RG    +CPRG64   DS    XL32
                                    4058             =CPRG16NL EQU   16                  Name length of CPRG16
                                    4059             =CPRG64NL EQU   64                  Name length of CPRG64
                                    4060             =CPNAMELN EQU   16                  Name len for vars, procs, labels,
                                    4061             =*                                    etc, CPNAMELN must be 16 !!
                                    4062             =*
                                    4063             =*        Exec Flow record group set numbers
                                    4064             =CP#XOLD  EQU   2                   Old type EXEC File
                                    4065             =CP#XACT  EQU   3                   ACTIVE EXEC File
                                    4066             =CP#XTEMP EQU   4                   Temp EXEC File
                                    4067             =CP#XSTK  EQU   16                  EXEC File stack
                                    4068             =CP#FEXEC EQU   CP#XSTK             First EXEC file in stack
                                    4069             =CPMAXXCT EQU   256                 Number of EXEC files in stack
                                    4070             =*
                                    4071             =*        Miscelleneous record group set numbers
                                    4072             =*
                                    4073             =CP#SYSV  EQU   2                   System variables set
                                    4074             =CP#DEF   EQU   3                   User define commands set
                                    4075             =CP#ABBR  EQU   4                   User define commands ABBREV list
                                    4076             =CP#LRN   EQU   5                   Learned words
                                    4077             =CP#XFILE EQU   6                   Exec file table
                                    4078             =CP#OOPS  EQU   7                   OOPS (page mode undo) lines
                                    4079             =CP#SESV  EQU   8                   Session (SES.) variables
                                    4080             =CP#DEBUG EQU   9                   Exec Debug information
                                    4081             =CP#DSTOP EQU   10                  Exec Debug stops info
                                    4082             =CP#MRAW  EQU   11                  Exec Monitor raw data
                                    4083             =CP#MSUM  EQU   12                  Exec Monitor summary data
                                    4084             =CP#MNAME EQU   14                  Exec Monitor exec name data
                                    4085             =CP#LTRAP EQU   15                  Line number traps
                                    4086             =CP#NTRAP EQU   16                  Proc name traps
1DSECTS   CP:       User Control Page                                                                                       Page   41
0Current Usings:  (CP,R11) (CV,R12)
0D-Loc  Object Code    Addr1 Addr2  Stmt Lv Lineno    Source Statement           (Hibal 5, Asmedit 3.3)  HLASM R4.0  2004/03/15 12.43
+_____  ______ ____    _____ _____  ____ __ ______    ______ _________
0                                   4087             =CP#RTRAP EQU   17                  Proc return traps
                                    4088             =CP#HOSTI EQU   18                  Saved host user/password info
                                    4089             =CP#FSDEF EQU   19                  File System definitions
                                    4090             =CP#MAIL  EQU   20                  MAIL command info
                                    4091=            =         ¿þþþþþþþþþþþþþþþþþþþþþþþþþþþþþþþþþþþþþþþÜ
                                    4092=            =         Ÿ  Additional Active file information.  Ÿ
                                    4093=            =         ¾þþþþþþþþþþþþþþþþþþþþþþþþþþþþþþþþþþþþþþþ»
                                    4094             =CPATLIM# EQU   16*1024*1024        Absolute maximum Active size
                                    4095             =CPATBIG# EQU   10*1024*1024        Large Active threshold
                                    4096             =CPATMAX# EQU   1024*1024           Purge old cleared Actives thresh
                                    4097             =CPATMIN# EQU   512*1024            Purge until under this threshold
 000564                             4098             =CPATBYTS DS    F                   Total no. bytes in all Actives
 000568                             4099             =CPATCLR  DS    F                   Number of cleared   Active files
 00056C                             4100             =CPATTEXT DS    F                   Number of text      Active files
 000570                             4101             =CPATTEMP DS    F                   Number of temporary Active files
 000574                             4102             =         DS    F                   Reserved
                                    4103             =
 000578                             4104             =CPATLINS DS    F                   Total no. lines in all Actives
                                    4105             =
 00057C                             4106             =CPACTNO  DS    F                   Current Active file number
 000580                             4107             =CPACTMAX DS    F                   Maximum Active file number
 000584                             4108             =         DS    F                   Reserved
                                    4109             =
                                    4110             =CPA      AINFO ,                   Current Active file information
                                    4112+            +         ¿þþþþþþþþþþþþþþþþþþþþþþþþþþþþþþþþþþþþþþþþþþþþþþþþþþþþþÜ
                                    4113+            +         Ÿ  Active file information.                           Ÿ
                                    4114+            +         Ÿ    This information is kept with each Active file.  Ÿ
                                    4115+            +         ¾þþþþþþþþþþþþþþþþþþþþþþþþþþþþþþþþþþþþþþþþþþþþþþþþþþþþþ»
 000588                             4116    01-AINFO +CPANAME  DS    CL8                 Active file name
 000590                             4117    01-AINFO +CPATYPE  DS    CL8                 Active file type
                                    4118             +
 000598                             4119    01-AINFO +CPANXNO  DS    F                   Next Active file set number
 00059C                             4120    01-AINFO +CPAPRNO  DS    F                   Previous Active file set number
                                    4121             +
 0005A0                             4122    01-AINFO +CPAFLNO  DS    F                   First line-number
 0005A4                             4123    01-AINFO +CPALLNO  DS    F                   Last line-number
 0005A8                             4124    01-AINFO +CPACLNO  DS    F                   Current line-number
 0005AC                             4125    01-AINFO +CPALNCT  DS    F                   Line count
 0005B0                             4126    01-AINFO +CPABYCT  DS    F                   Byte count
 0005B4                             4127    01-AINFO +CPACHCT  DS    F                   Change count
 0005B8                             4128    01-AINFO +CPAICLK  DS    F                   Clock when initially created
 0005BC                             4129    01-AINFO +         DS    F                   Reserved
 0005C0                             4130    01-AINFO +         DS    XL3                 Reserved
 0005C3 00                          4131             +*
 CPAFLAG.CPAFCLR   80 ONES
 CPAFLAG.CPAFPRT   40 ONES
 CPAFLAG.CPAFDEF   20 ONES
 CPAFLAG.CPAFLOCK  10 ONES
                                    4156             +*
1DSECTS   CP:       User Control Page                                                                                       Page   42
0Current Usings:  (CP,R11) (CV,R12)
0D-Loc  Object Code    Addr1 Addr2  Stmt Lv Lineno    Source Statement           (Hibal 5, Asmedit 3.3)  HLASM R4.0  2004/03/15 12.43
+_____  ______ ____    _____ _____  ____ __ ______    ______ _________
0                                   4159+            +   ¿þþþþþþþþþþþþþþþþþþþþþþþþþþþþþþþþþþþþþþÜ
                                    4160+            +   Ÿ  Collect command saved information.  Ÿ
                                    4161+            +   ¾þþþþþþþþþþþþþþþþþþþþþþþþþþþþþþþþþþþþþþ»
 0005C4                             4162    02-COLIN +CPACFLN  DS    F                   Lineno before first collected
 0005C8                             4163    02-COLIN +CPACNLN  DS    F          [Order]  Next lineno to use
 0005CC                             4164    02-COLIN +CPACDEL  DS    F          [Order]  Delta
 0005D0                             4165    02-COLIN +CPACLEN  DS    H                   Line warning length
 0005D2                             4166    02-COLIN +CPACCNT  DS    H                   No. of lines to collect
 0005D4 00                          4167    02-COLIN +CPACFG5  DS    X                   Copy of CPLFLG5
 CPACFLG.CPACFMR   80 ONES
 CPACFLG.CPACFCS   40 ONES
 CPACFLG.CPACFUP   20 ONES
 CPACFLG.CPACFRN   10 ONES
 CPACFLG.CPACFPG   08 ONES
                                    4197    02-COLIN +CPACINFO EQU   CPACFLN,*-CPACFLN,C'X'
                                    4199+            +         ¿þþþþþþþþþþþþþþþþþþþþþþþþþþþþþþþþþþþþþþþþþþÜ
                                    4200+            +         Ÿ  Title,File name/host/type information.  Ÿ
                                    4201+            +         ¾þþþþþþþþþþþþþþþþþþþþþþþþþþþþþþþþþþþþþþþþþþ»
 0005D6 00                          4202    01-AINFO +CPATITL  DS    CL80                Active file title area
 000628                             4207    01-AINFO +CPAFNAMEL DS   F                   File name length
 00062C                             4208    01-AINFO +CPAFNAME DS    CL128               File name
 0006AC                             4209    01-AINFO +CPAHOSTL DS    F                   Host name length
 0006B0                             4210    01-AINFO +CPAHOST  DS    CL128               Host name
                                    4211             +
                                    4212    01-AINFO +CPAINFO  EQU   CPANAME,*-CPANAME,C'X'
                                    4214             =
 000730                             4215             =CPRCVCUR DS    A                   Current recovery volume ptr
 000734                             4216             =CPRCVEND DS    A                   Ending recovery volume ptr
                                    4217             =CPRCV    EQU   CPRCVCUR,*-CPRCVCUR,C'X'
                                    4218             =
 000738                             4219             =CPDELTA  DS    F                   Global delta
                                    4220             =
 00073C                             4221             =CPLCNO   DS    F                   Last located line-number
 000740                             4222             =CPSTLNO  DS    F                   Last line-number stowed
                                    4223             =
 000744                             4224             =CPCOUNT  DS    F                   Number of lines in last COUNT
                                    4225             =
 000748                             4226             =CPBLKACT DS    F                   BLOCK's Active file number
 00074C                             4227             =CPFBKLNO DS    F                   FBLOCK line-number
 000750                             4228             =CPLBKLNO DS    F                   LBLOCK line-number
 000754                             4229             =CPFBKCOL DS    H                   FBLOCK column number
 000756                             4230             =CPLBKCOL DS    H                   LBLOCK column number (0=eol)
                                    4231=            =         ¿þþþþþþþþþþþþþþþþþþþþþþþþþþþþþþþþþþþþþÜ
                                    4232=            =         Ÿ  Additional EXEC file information.  Ÿ
                                    4233=            =         ¾þþþþþþþþþþþþþþþþþþþþþþþþþþþþþþþþþþþþþ»
 000758 00                          4234             =CPEXFLG  FLAG  ,
 CPEXFLG.CPFEXEC   80 ONES          4238             =         FLAG  CPFEXEC             - Exec Mode in effect
                                    4243             =* note CPFXTEND, CPFXOLD flags are set only if CPFEXEC is set too!
 000759 00                          4244             =CPEXFLG2 FLAG  ,
 CPEXFLG2.CPFXTEND 01 EQ            4248             =         FLAG  (CPFXTEND,1,EQ)     - Extended exec file executing
 CPEXFLG2.CPFXOLD  02 EQ            4258             =         FLAG  (CPFXOLD,2,EQ)      - Old exec file executing
                                    4268             =* Caution: Authorized Execs MUST be well behaved!  That is, they
                                    4269             =* must not break or pause and must terminate via XRETURN command.
 00075A 00                          4270             =CPEXFLG3 FLAG  ,
1DSECTS   CP:       User Control Page                                                                                       Page   43
0Current Usings:  (CP,R11) (CV,R12)
0D-Loc  Object Code    Addr1 Addr2  Stmt Lv Lineno    Source Statement           (Hibal 5, Asmedit 3.3)  HLASM R4.0  2004/03/15 12.43
+_____  ______ ____    _____ _____  ____ __ ______    ______ _________
0CPEXFLG3.CPFXAUTH 80 ONES          4274             =         FLAG  CPFXAUTHLIB         - Authorized Exec library
 CPEXFLG3.CPFXAUTH 40 ONES          4279             =         FLAG  CPFXAUTH            - Authorized Exec
 00075B 00                          4284             =CPEXFLG4 FLAG  ,                   Not used
                                    4288             =
 00075C                             4289             =CPEXLINE DS    F                   Exec file line number
 000760                             4290             =CPEXNEXT DS    F                   Next EXEC file line number
 000764                             4291             =CPRETURN DS    F                   Exec file return variable
                                    4292             =
 000768                             4293             =CPSCOPE  DS    F                   Start of current scope
 00076C                             4294             =CPSCOPD  DS    F                   End of current scope
 000770                             4295             =CPXSCOPE DS    F                   Start of current XPROC scope
 000774                             4296             =CPXSCOPD DS    F                   End of current XPROC scope
                                    4297             =
 000778                             4298             =CP#XSET  DS    F                   Current EXEC file set number
 00077C                             4299             =CPRGEXEC DS    F                   Current EXEC RGroup info pointer
 000780                             4300             =CPRGFLOW DS    F                   Current FLOW RGroup info pointer
                                    4301             =
 000784                             4302             =CP#XLOAD DS    F                   EXEC file set number for load
 000788                             4303             =CPRGLOAD DS    F                   EXEC RGroup info pointer for load
 00078C                             4304             =CPRGFC   DS    F                   FLOW RGroup info pointer for load
                                    4305             =
 000790                             4306             =CPXNAME  DS    CL(64)   not set !  EXEC, XPROC name (=L'XDSNAME)
 0007D0                             4307             =CPPROCNM DS    CL(CPNAMELN)        EXEC procedure name
                                    4308             =
 0007E0                             4309             =CPLIMIT  DS    H                   No. of cmds without waring
 0007E2                             4310             =CPLLIMIT DS    H                   Local no. of cmds limit
                                    4311             =
 0007E4 00                          4312             =CPFXDFLG FLAG
 CPFXDFLG.CPFXDUMP 80 ONES          4316             =         FLAG  CPFXDUMP            exec dump flag
 CPFXDFLG.CPFXQT   40 ONES          4321             =         FLAG  CPFXQT              exec quiet flag (not implemented)
 0007E8                             4326             =CPXDPLN  DS    F                   LAST LINE DUMPED (-1 IF NONE)
 0007EC                             4327             =CPXDPNLN DS    F                   NEXT LINE TO DUMP
 0007F0                             4328             =CPXDPACT DS    F                   DUMP ACTIVE FILE
 0007F4                             4329             =CPXDPDLT DS    F                   DUMP DELTA
                                    4330=            =         ¿þþþþþþþþþþþþþþþþþþþþþþþþþþþþþþþþþþþþþþþþþþþþþþþþþþþþþþþþþþþþþÜ
                                    4331=            =         Ÿ  Additional CP exec state info, initialized to zero and     Ÿ
                                    4332=            =         Ÿ  pushed, popped with the dynamic exec state info during     Ÿ
                                    4333=            =         Ÿ  execution, if you add anything to CPXSTATE area (ended by  Ÿ
                                    4334=            =         Ÿ  CPXPUSH), you must reassemble XCALL module.                Ÿ
                                    4335=            =         ¾þþþþþþþþþþþþþþþþþþþþþþþþþþþþþþþþþþþþþþþþþþþþþþþþþþþþþþþþþþþþþ»
 0007F8                             4336             =CPXSTATE DS    0F                  EXEC state info, pushed
 0007F8                             4337             =CPPACCT  DS    0CL5                EXEC pseudo account
 0007F8                             4338             =CPPUSER  DS    CL3                 .uuu
 0007FB                             4339             =CPPGRP   DS    CL2                 .gg
 0007FD 00                          4340             =CPXFLAG  FLAG  ,
 CPXFLAG.CPFXOVER  80 ONES          4344             =         FLAG  CPFXOVER            - Overhead mode (no charging)
                                    4349             =CPXPUSH  EQU   CPXSTATE,*-CPXSTATE,C'X'
                                    4350             =
 0007FE                             4351             =CPCPLEN  DS    H                   Command prompt length
 000800                             4352             =CPCPRMT  DS    CL62                Command prompt text
1DSECTS   CP:       User Control Page                                                                                       Page   44
0Current Usings:  (CP,R11) (CV,R12)
0D-Loc  Object Code    Addr1 Addr2  Stmt Lv Lineno    Source Statement           (Hibal 5, Asmedit 3.3)  HLASM R4.0  2004/03/15 12.43
+_____  ______ ____    _____ _____  ____ __ ______    ______ _________
0                                   4353=            =         ¿þþþþþþþþþþþþþþþþþþþþþþþþþþþþþþþþÜ
                                    4354=            =         Ÿ  Additional VARS information.  Ÿ
                                    4355=            =         ¾þþþþþþþþþþþþþþþþþþþþþþþþþþþþþþþþ»
 000840                             4356             =CPARRAY# DS    F                   Next Array ID #, Global counter
 000844                             4357             =CPVSET#  DS    F                   Variable stack set number
 000848                             4358             =CPXVSET# DS    F                   Last XCALL var stack set number
                                    4359             =
                                    4360             =CPPLIMIT EQU   8                   MAX # OF PARMS
                                    4361             =CPSLIMIT EQU   3                   MAX # OF SUBSCRIPTS (MUST BE 3)
                                    4362=            =         ¿þþþþþþþþþþþþþþþþþþþþþþþþþþþþþþÜ
                                    4363=            =         Ÿ  Debug/Monitor Information.  Ÿ
                                    4364=            =         ¾þþþþþþþþþþþþþþþþþþþþþþþþþþþþþþ»
 00084C 00                          4365             =CPDFLG   FLAG  ,                   Debug flags
 CPDFLG.CPFDEBUG   80 ONES          4369             =         FLAG  CPFDEBUG            Debugging mode on
 CPDFLG.CPFTRACE   40 ONES          4374             =         FLAG  CPFTRACE            Debug trace on
 CPDFLG.CPFTTRAP   20 ONES          4379             =         FLAG  CPFTTRAP            Debug trace w/trap on
 CPDFLG.CPFXLOG    10 ONES          4384             =         FLAG  CPFXLOG             Log all exec/xproc commands
 CPDFLG.CPFLOG     08 ONES          4389             =         FLAG  CPFLOG              Log all old exec commands (only)
 00084D 00                          4394             =CPDFLG2  FLAG  ,
 CPDFLG2.CPFDNEXT  80 ONES          4398             =         FLAG  CPFDNEXT            Exec trap next command
 CPDFLG2.CPFDSTOP  40 ONES          4403             =         FLAG  CPFDSTOP            Exec trap this command
 CPDFLG2.CPFDSTPD  20 ONES          4408             =         FLAG  CPFDSTPD            Exec command stopped
 CPDFLG2.CPFISTOP  10 ONES          4413             =         FLAG  CPFISTOP            Immediate stop at this command
 CPDFLG2.CPFISTPD  08 ONES          4418             =         FLAG  CPFISTPD            Immediate stop stopped
 CPDFLG2.CPFIDONE  04 ONES          4423             =         FLAG  CPFIDONE            Immediate stopped done
 00084E 00                          4428             =CPDFLG3  FLAG  ,
 00084F 00                          4432             =CPMFLG   FLAG  ,                   Exec monitor flags
 CPMFLG.CPFMON     80 ONES          4436             =         FLAG  CPFMON              Monitor exec execution
 000850                             4441             =CPTRAPSQ DS    F                   Unique debug trap identfier
 000854                             4442             =CPMONPTR DS    F                   Ptr to monitor memory block
 000858                             4443             =CPMONCPU DS    F                   Monitor cmd timer in tu's
 00085C                             4444             =CPMONMAX DS    F                   Max memory to get for monitor
1DSECTS   CP:       User Control Page                                                                                       Page   45
0Current Usings:  (CP,R11) (CV,R12)
0D-Loc  Object Code    Addr1 Addr2  Stmt Lv Lineno    Source Statement           (Hibal 5, Asmedit 3.3)  HLASM R4.0  2004/03/15 12.43
+_____  ______ ____    _____ _____  ____ __ ______    ______ _________
0                                   4446=            =         ¿þþþþþþþþþþþþþþþþþþþþþþÜ
                                    4447=            =         Ÿ  Miscelleneous info  Ÿ
                                    4448=            =         ¾þþþþþþþþþþþþþþþþþþþþþþ»
 000860                             4449             =CPLOCLCP DS    F                   CP extension (Getmain'd area)
                                    4450             =
 000864                             4451             =CPGETSTK DS    F                   Pointer to GETSTACK (GETMAINed)
 000868                             4452             =CPGETLN  DS    H                   Size of GETSTACK
                                    4453             =
                                    4454             =CPHCMD#  EQU   100                 Maximum number of saved cmds
 00086A                             4455             =CPHCMDNO DS    H                   Current command number
 00086C                             4456             =CPHCMDMX DS    H                   No. of saved commands to display
 00086E                             4457             =CPHCMDCR DS    H                   Current no. of saved commands
 000870                             4458             =CPHCMDQH DS    A                   History command list queue head
 000874                             4459             =CPHCMDQT DS    A                   History command list queue tail
                                    4460             =
 000878                             4461             =CPKWRID  DS    F                   Logged on user's kwr record no.
 00087C                             4462             =CPLGNCT  DS    H                   No. of logon attempts
                                    4463             =
 00087E                             4464             =CPLENGTH DS    H                   Line length
 000880                             4465             =CPVOLUME DS    CL6                 Volume
 000886                             4466             =CPERRID  DS    CL8                 Error id
 00088E                             4467             =CPOERRID DS    CL8                 Prev cmds error id
                                    4468             =
 000898                             4469             =CPEXABRT DS    F                   EXEC "ON ABORT" line#
 00089C                             4470             =CPEXATTN DS    F                   EXEC "ON ATTN" line#
 0008A0                             4471             =CPATTNCT DS    H                   Attention count
                                    4472             =
 0008A2                             4473             =         DS    H                   Reserved  (what is this Niz ??)
                                    4474             =
 0008A4                             4475             =CPAUTHUS DS    CL3                 Authorized user
 0008A7                             4476             =CPAUTHGP DS    CL2                 Authorized group
                                    4477             =
 0008A9 00                          4478             =CPAUTFLG FLAG  ,                   Logon flags
 CPAUTFLG.CPFAUSE  80 ONES          4482             =         FLAG  CPFAUSE             - Doing use of active
 CPAUTFLG.CPFGREET 40 ONES          4487             =         FLAG  CPFGREET            - Greetings msg given
 CPAUTFLG.CPFWORD  20 ONES          4492             =         FLAG  CPFWORD             - User knows the word
 CPAUTFLG.CPFLMSG  10 ONES          4497             =         FLAG  CPFLMSG             - Logon msgs displayed
                                    4502             =
 0008AA 00                          4503             =CPRFLG   FLAG
 CPRFLG.CPRFEXT    80 ONES          4507             =         FLAG  CPRFEXT             - External (disk) path is owned
 CPRFLG.CPRFSUB    40 ONES          4512             =         FLAG  CPRFSUB             - Submit path is owned
 CPRFLG.CPRFJES    20 ONES          4517             =         FLAG  CPRFJES             - Jes command path is owned
 CPRFLG.CPRFKWR    10 ONES          4522             =         FLAG  CPRFKWR             - Kwr resource is owned
 CPRFLG.CPRFKEYS   08 ONES          4527             =         FLAG  CPRFKEYS            - Keys resource is owned
 CPRFLG.CPRFDICT   04 ONES          4532             =         FLAG  CPRFDICT            - Dictionary is owned
                                    4537             =
 0008AB                             4538             =CPLIB    DS    CL8                 Default library
 0008B4                             4539             =CPEXCMCT DS    H                   Exec command loop count
 0008B6                             4540             =CPWRNCNT DS    H                   Warn chng cnt on clear rqst
 0008B8                             4541             =CPRSCNVL DS    H                   Rescan limit for pre-proc
 0008BA                             4542             =CPESCAPE DS    C                   Current escape character
 0008BB                             4543             =CPSKIP   DS    C                   Current skip character
 0008BC                             4544             =CPORVYL  DS    CL8                 ORVYL subsystem name
 0008C4                             4545             =         DS    F                   Reserved
1DSECTS   CP:       User Control Page                                                                                       Page   46
0Current Usings:  (CP,R11) (CV,R12)
0D-Loc  Object Code    Addr1 Addr2  Stmt Lv Lineno    Source Statement           (Hibal 5, Asmedit 3.3)  HLASM R4.0  2004/03/15 12.43
+_____  ______ ____    _____ _____  ____ __ ______    ______ _________
00008C8                             4546             =CPXCMDP  DS    A                   ???? delete next time around
 0008CC                             4547             =CPTIOCLK DS    F                   Clock at last terminal I/O
                                    4548             =
 0008D0                             4549             =CPCHAZ   DS    F                   Charley Hoyt's word
 0008D4                             4550             =CPCHAZF  DS    F                   Charley's full word
 0008D8                             4551             =         DS    2F                  Charley is greedy
 0008E0                             4552             =CPOHYEAH DS    CL64                This is Charley's
                                    4553             =
 000920                             4554             =         DS    0F
                                    4555             =CPTEMPP# EQU   95                  Max. no of temp pages
 000920                             4556             =CPTEMPNP DS    H                   Offset to next free pageno
 000922                             4557             =CPTEMPPG DS    (CPTEMPP#)H         Pageno's of temporary pages
1DSECTS   CP:       User Control Page                                                                                       Page   47
0Current Usings:  (CP,R11) (CV,R12)
0D-Loc  Object Code    Addr1 Addr2  Stmt Lv Lineno    Source Statement           (Hibal 5, Asmedit 3.3)  HLASM R4.0  2004/03/15 12.43
+_____  ______ ____    _____ _____  ____ __ ______    ______ _________
00009E0                             4559             =         DS    0F
                                    4560             =*  Note that for the JES interface, the CPJESHFL must be
                                    4561             =*  defined the same as the HCBFGBL flag byte in the HCB.
 0009E0 00                          4562             =CPJESHFL FLAG
 CPJESHFL.CPJFTER  80 ONES          4566             =         FLAG  CPJFTER             - Jes terse mode
 CPJESHFL.CPJFPRIV 40 ONES          4571             =         FLAG  CPJFPRIV            - Privd jes use allowed
                                    4576             =
 0009E1 00                          4577             =CPJESFLG FLAG
 CPJESFLG.CPJFNRUN 80 ONES          4581             =         FLAG  CPJFNRUN            - Norun
 CPJESFLG.CPJFHOLD 40 ONES          4586             =         FLAG  CPJFHOLD            - Hold
 CPJESFLG.CPJFXHLD 20 ONES          4591             =         FLAG  CPJFXHLD            - Xhold
 CPJESFLG.CPJFNTFY 10 ONES          4596             =         FLAG  CPJFNTFY            - Notify
 CPJESFLG.CPJFFRCE 08 ONES          4601             =         FLAG  CPJFFRCE            - Force
 CPJESFLG.CPJFNOPT 04 ONES          4606             =         FLAG  CPJFNOPT            - Numbering options explicit
 CPJESFLG.CPJFUNN  02 ONES          4611             =         FLAG  CPJFUNN             - Unnumbered
 CPJESFLG.CPJFDBUG 01 ONES          4616             =         FLAG  CPJFDBUG            - Debug mode
                                    4621             =
 0009E2                             4622             =CPSYSAFF DS    CL8                 Sysaff
 0009EA                             4623             =CPDEST   DS    CL8                 Destination
 0009F2                             4624             =CPBIN    DS    CL3                 Bin
 0009F5                             4625             =CPFORMS  DS    CL8                 Forms
                                    4626             =
 0009FD 00                          4627             =CPJESFLY FLAG  ,
 CPJESFLY.CPJFNTFX 80 ONES          4631             =         FLAG  CPJFNTFX            - Notify option explict
 CPJESFLY.CPJFHOLX 40 ONES          4636             =         FLAG  CPJFHOLX            - Hold print option explicit
 CPJESFLY.CPJFXHOX 20 ONES          4641             =         FLAG  CPJFXHOX            - Hold execution option explicit
                                    4646             =
 0009FE                             4647             =         DS    XL3                 Reserved
                                    4648             =
 000A01                             4649             =CPJPFX   DS    CL8                 Job prefix
 000A0A                             4650             =CPJNO    DS    H                   User job count
 000A0C                             4651             =CPJNACCT DS    CL5                 Notify account (uuugg)
                                    4652             =CPJESINF EQU   CPJESHFL,*-CPJESHFL,C'X'
                                    4653             =
 000A11                             4654             =CPJOBNM  DS    CL8                 Last jobname of job submitted
 000A19                             4655             =CPJOBS   DS    XL8                 Last four jobno's (2 bytes ea)
                                    4656=            =         ¿þþþþþþþþþþþþþþþþþþþþþþþþþþþþþþþþþþþþþþþþþþþþþþþþþþþþþþþÜ
                                    4657=            =         Ÿ  Samson terminal information (obtained from Samson).  Ÿ
                                    4658=            =         ¾þþþþþþþþþþþþþþþþþþþþþþþþþþþþþþþþþþþþþþþþþþþþþþþþþþþþþþþ»
 000A21 00                          4659             =CPSAMFLG FLAG
 CPSAMFLG.CPSAMFDE 80 ONES          4663             =         FLAG  CPSAMFDEF           - Samson information defined
 CPSAMFLG.CPSAMFBA 40 ONES          4668             =         FLAG  CPSAMFBADECHO       - Echo test failed
 CPSAMFLG.CPSAMFDE 20 ONES          4673             =         FLAG  CPSAMFDEBUG         - Debugging mode
 CPSAMFLG.CPSAMFUB 10 ONES          4678             =         FLAG  CPSAMFUBUFFER       - Buffer value is explicit
 CPSAMFLG.CPSAMFUT 08 ONES          4683             =         FLAG  CPSAMFUTMOUT        - Timeout value is explicit
 CPSAMFLG.CPSAMFUE 04 ONES          4688             =         FLAG  CPSAMFUENCODE       - Encoding value is explicit
 CPSAMFLG.CPSAMFUC 02 ONES          4693             =         FLAG  CPSAMFUCHECK        - Checking value is explicit
                                    4698             =
 000A22 00                          4699             =CPSAMCOD FLAG  ,                   Samson encoding options
 CPSAMCOD.CPSAMFEM 0C ONES          4703             =         FLAG  (CPSAMFEMASK,12)    - Encoding mask:
 CPSAMCOD.CPSAMF8B 0C OFF           4712             =         FLAG  (CPSAMF8BIT,12,OFF)   . 8-bit transfer mode
 CPSAMCOD.CPSAMF7B 0C ONES          4722             =         FLAG  (CPSAMF7BIT,12,ONES)  . 7-bit transfer mode
 CPSAMCOD.CPSAMFHE 08 ONES          4732             =         FLAG  (CPSAMFHEX,8)         . Hex transfer mode
 CPSAMCOD.CPSAMFPC 04 ONES          4741             =         FLAG  (CPSAMFPCK,4)         . Send data in packed format
1DSECTS   CP:       User Control Page                                                                                       Page   48
0Current Usings:  (CP,R11) (CV,R12)
0D-Loc  Object Code    Addr1 Addr2  Stmt Lv Lineno    Source Statement           (Hibal 5, Asmedit 3.3)  HLASM R4.0  2004/03/15 12.43
+_____  ______ ____    _____ _____  ____ __ ______    ______ _________
0CPSAMCOD.CPSAMFCM 03 ONES          4750             =         FLAG  (CPSAMFCMASK,3)     - Error checking mask:
 CPSAMCOD.CPSAMFCN 03 OFF           4759             =         FLAG  (CPSAMFCNONE,3,OFF)   . No checksum
 CPSAMCOD.CPSAMFCK 02 ONES          4769             =         FLAG  (CPSAMFCKS,2)         . Send one byte checksum
 CPSAMCOD.CPSAMFCR 01 ONES          4778             =         FLAG  (CPSAMFCRC,1)         . Send two byte CRC
                                    4787             =
 000A23                             4788             =CPSAMTYP DS    CL16                Samson type
 000A33                             4789             =CPSAMVER DS    CL16                Samson version
 000A43                             4790             =CPSAMOS  DS    CL16                Samson operating system
 000A53                             4791             =CPSAMTRM DS    CL8                 Samson terminal type
 000A5B                             4792             =CPSAMLPR DS    CL24                Samson printer name
 000A73                             4793             =CPSAMFONT DS   CL16                Samson font name
 000A83                             4794             =         DS    XL16                Reserved
 000A94                             4795             =CPSAMPRO DS    H                   Samson protocol version
 000A96                             4796             =         DS    H                   Reserved
 000A98                             4797             =CPSAMTMO DS    H                   Samson re-transmission timeout
 000A9A                             4798             =CPSAMHEI DS    H                   Samson screen height
 000A9C                             4799             =CPSAMWID DS    H                   Samson screen width
 000A9E                             4800             =CPSAMALH DS    H                   Samson alt screen height
 000AA0                             4801             =CPSAMALW DS    H                   Samson alt screen width
 000AA2                             4802             =CPSAMSPD DS    H                   Samson speed
 000AA4                             4803             =CPSAMDV  DS    H                   Samson dialog support version
 000AA6                             4804             =         DS    H                   Reserved
 000AA8                             4805             =CPSAMBUFF DS   F                   Samson buffer size
                                    4806             =CPSAM    EQU   CPSAMFLG,*-CPSAMFLG,C'X'
1DSECTS   CP:       User Control Page                                                                                       Page   49
0Current Usings:  (CP,R11) (CV,R12)
0D-Loc  Object Code    Addr1 Addr2  Stmt Lv Lineno    Source Statement           (Hibal 5, Asmedit 3.3)  HLASM R4.0  2004/03/15 12.43
+_____  ______ ____    _____ _____  ____ __ ______    ______ _________
0                                   4808=            =         ¿þþþþþþþþþþþþþþþþþþþþþþÜ
                                    4809=            =         Ÿ  User Device Table.  Ÿ
                                    4810=            =         ¾þþþþþþþþþþþþþþþþþþþþþþ»
                                    4811             =DEVMAX#  EQU   2                   Maximum number of devices
                                    4812             =
 000000                00000 0000C  4813             =DEV      RECORD BEGIN              User device information
 000000 00                          4821  1          =DEVFLAG    FLAG
                                    4825  1          =
 000001 00                          4826  1          =DEVTYPE    FLAG
 DEVTYPE.DEVTSAM   01 EQ            4830  1          =           FLAG  (DEVTSAM,1,EQ)      - SAMSON device
 DEVTYPE.DEVTNET   02 EQ            4840  1          =           FLAG  (DEVTNET,2,EQ)      - NETWORK device
                                    4850  1          =
 000002                             4851  1          =DEVNAME    DS    CL8                 Device name
                                    4852  1          =
 00000C                             4853  1          =DEVNEXT    DS    0F
 00000C                0000C 0000C  4854             =         END
                                    4863             =*
                                    4864             =*
 000AAC                             4865             =CPDEVCNT DS    H                   No. of user devices
                                    4866             =
 000AB0                             4867             =         DS    0F
 000AB0                             4868             =CPDEVTBL DS    XL(DEVMAX#*L'DEV)   User device table
1DSECTS   CP:       User Control Page                                                                                       Page   50
0Current Usings:  (CP,R11) (CV,R12)
0D-Loc  Object Code    Addr1 Addr2  Stmt Lv Lineno    Source Statement           (Hibal 5, Asmedit 3.3)  HLASM R4.0  2004/03/15 12.43
+_____  ______ ____    _____ _____  ____ __ ______    ______ _________
0                                   4870=            =         ¿þþþþþþþþþþþþþþþþþþþþþþþþþÜ
                                    4871=            =         Ÿ  Page Mode Information  Ÿ
                                    4872=            =         ¾þþþþþþþþþþþþþþþþþþþþþþþþþ»
 000AC8 00                          4873             =CPVFLAG  FLAG
 CPVFLAG.CPVFPAGE  80 ONES          4877             =         FLAG  CPVFPAGE            - Page mode
 CPVFLAG.CPVFPEND  40 ONES          4882             =         FLAG  CPVFPEND            - Page mode is pending
 CPVFLAG.CPVFSPEC  20 ONES          4887             =         FLAG  CPVFSPEC            - Specific lines on the page
 CPVFLAG.CPVFCH    10 ONES          4892             =         FLAG  CPVFCH              - File changes have occurred
 CPVFLAG.CPVFHIDE  08 ONES          4897             =         FLAG  CPVFHIDE            - Block is hidden
                                    4902             =
 000AC9 00                          4903             =CPVFLAG2 FLAG
 CPVFLAG2.CPVFCLR  80 ONES          4907             =         FLAG  CPVFCLR             - Clear page and re-write lines
 CPVFLAG2.CPVFREWR 40 ONES          4912             =         FLAG  CPVFREWR            - Rewrite all lines on the page
 CPVFLAG2.CPVFFMT  20 ONES          4917             =         FLAG  CPVFFMT             - Format all fields on the page
 CPVFLAG2.CPVFRTRY 10 ONES          4922             =         FLAG  CPVFRTRY            - Command retry entry
 CPVFLAG2.CPVFMARK 08 ONES          4927             =         FLAG  CPVFMARK            - Block marks have changed
 CPVFLAG2.CPVFREN  04 ONES          4932             =         FLAG  CPVFREN             - Renumbered linenos on page
                                    4937             =
 000ACA 00                          4938             =CPVFLAG3 FLAG
 CPVFLAG3.CPVFWRAP 80 ONES          4942             =         FLAG  CPVFWRAP            - Wordwrap mode
 CPVFLAG3.CPVFUNN  40 ONES          4947             =         FLAG  CPVFUNN             - Unnumbered mode
 CPVFLAG3.CPVFTRC  20 ONES          4952             =         FLAG  CPVFTRC             - Trace mode
 CPVFLAG3.CPVFBUG  10 ONES          4957             =         FLAG  CPVFBUG             - Debug mode
 CPVFLAG3.CPVFSPEL 08 ONES          4962             =         FLAG  CPVFSPEL            - Do spelling checking
 CPVFLAG3.CPVFFORM 04 ONES          4967             =         FLAG  CPVFFORMAT          - Formatted mode
                                    4972             =
 000ACB 00                          4973             =CPVFLAG4 FLAG
 CPVFLAG4.CPVFVTAM 80 ONES          4977             =         FLAG  CPVFVTAM            - VTAM format    (for 3270s)
 CPVFLAG4.CPVFPREP 40 ONES          4982             =         FLAG  CPVFPREP            - Prepare mode   (for 3270s)
 CPVFLAG4.CPVFESC  20 ONES          4987             =         FLAG  CPVFESC             - Escape mode    (for 3270s)
                                    4992=            =         ¿þþþþþþþþþþþþþþþþþþþþþþþþþþþþþþþþþþþþþþþþþþþþþþþþþþþþþþþþþþþþþþþÜ
                                    4993=            =         Ÿ  The CPVMODE byte is the editing mode sent to the front-end.  Ÿ
                                    4994=            =         ¾þþþþþþþþþþþþþþþþþþþþþþþþþþþþþþþþþþþþþþþþþþþþþþþþþþþþþþþþþþþþþþþ»
 000ACC 00                          4995             =CPVMODE  FLAG
 CPVMODE.CPVFWYL   80 ONES          4999             =         FLAG  CPVFWYL             - WYLBUR mode
 CPVMODE.CPVFRSV2  40 ONES          5004             =         FLAG  CPVFRSV2            - Reserved
 CPVMODE.CPVFRSV3  20 ONES          5009             =         FLAG  CPVFRSV3            - Reserved
 CPVMODE.CPVFRSV4  10 ONES          5014             =         FLAG  CPVFRSV4            - Reserved
 CPVMODE.CPVFRSV5  08 ONES          5019             =         FLAG  CPVFRSV5            - Reserved
 CPVMODE.CPVFRSV6  04 ONES          5024             =         FLAG  CPVFRSV6            - Reserved
 CPVMODE.CPVFRSV7  02 ONES          5029             =         FLAG  CPVFRSV7            - Reserved
 CPVMODE.CPVFINS   01 ONES          5034             =         FLAG  CPVFINS             - Insert mode
                                    5039             =
 000ACD                             5040             =CPVWCHAR DS    C                   Word character (for front-end)
                                    5041             =
 000ACE 00                          5042             =CPVLFLAG FLAG
 CPVLFLAG.CPVFEXIT 80 ONES          5046             =         FLAG  CPVFEXIT            - Exit page mode
 CPVLFLAG.CPVFBRK  40 ONES          5051             =         FLAG  CPVFBRK             - Break out of page mode
 CPVLFLAG.CPVFBELL 20 ONES          5056             =         FLAG  CPVFBELL            - Ring the bell
                                    5061             =
 000ACF                             5062             =         DS    X                   Reserved
                                    5063             =
 000AD0                             5064             =CPVTWID  DS    H                   Total (buffer) width
 000AD2                             5065             =CPVWID   DS    H                   Displayed width
1DSECTS   CP:       User Control Page                                                                                       Page   51
0Current Usings:  (CP,R11) (CV,R12)
0D-Loc  Object Code    Addr1 Addr2  Stmt Lv Lineno    Source Statement           (Hibal 5, Asmedit 3.3)  HLASM R4.0  2004/03/15 12.43
+_____  ______ ____    _____ _____  ____ __ ______    ______ _________
0000AD4                             5066             =CPVHEI   DS    H                   Page height
                                    5067             =CPVDIM   EQU   CPVTWID,*-CPVTWID,C'X'
                                    5068             =
 000AD6                             5069             =CPVWCUR  DS    H                   Current window number
 000AD8                             5070             =CPVWCNT  DS    H                   No. of windows on page
                                    5071             =
 000ADA                             5072             =CPVCOL   DS    H                   Current column for page lineno
 000ADC                             5073             =CPVLNO   DS    F                   Current line-number on page
 000AE0                             5074             =CPVCURS  DS    D                   Current cursor position
                                    5075             =CPVCURR  EQU   CPVCURS,4,C'F'      .Current row
                                    5076             =CPVCURC  EQU   CPVCURS+4,4,C'F'    .Current column
                                    5077             =
 000AE8                             5078             =CPVACOL  DS    H                   Column for alternate page lineno
 000AEC                             5079             =CPVALNO  DS    F                   Alternate line-number on page
 000AF0                             5080             =CPVACURS DS    D                   Alternate cursor position
                                    5081             =CPVACURR EQU   CPVACURS,4,C'F'     .alternate row
                                    5082             =CPVACURC EQU   CPVACURS+4,4,C'F'   .alternate column
                                    5083             =
 000AF8                             5084             =CPVMCLK  DS    F                   View message clock
 000AFC                             5085             =CPVMSG   DS    CL80                Message text
                                    5086             =
 000B4C                             5087             =CPVCMDR  DS    H                   Row number of command line
 000B4E                             5088             =CPVMSGR  DS    H                   Row number of message line
                                    5089             =
 000B50                             5090             =CPVIND   DS    H                   Default indentation (left margin)
 000B52                             5091             =CPVMARG  DS    H                   Right margin
                                    5092             =
 000B54                             5093             =CPVNMSG  DS    H                   Number of pending messages
 000B56                             5094             =         DS    H                   Reserved
-000B58                             5096             =CPWINDP  DS    A                   WIND ptr (View/Window info)
 000B5C                             5097             =CPXWIND  DS    A                   WIND-(1 entry) ptr
                                    5098             =
 000B60                             5099             =CPLINTP  DS    A                   LINT ptr (View/Line info)
 000B64                             5100             =CPXLINT  DS    A                   LINT-(1 entry) ptr
1DSECTS   CP:       User Control Page                                                                                       Page   52
0Current Usings:  (CP,R11) (CV,R12)
0D-Loc  Object Code    Addr1 Addr2  Stmt Lv Lineno    Source Statement           (Hibal 5, Asmedit 3.3)  HLASM R4.0  2004/03/15 12.43
+_____  ______ ____    _____ _____  ____ __ ______    ______ _________
0                                   5102=            =         ¿þþþþþþþþþþþþþþþþþþþþþþþþþÜ
                                    5103=            =         Ÿ  Charging Information.  Ÿ
                                    5104=            =         ¾þþþþþþþþþþþþþþþþþþþþþþþþþ»
 000B68 00                          5105             =CPCHFLAG FLAG
 CPCHFLAG.CPFFLAT  80 ONES          5109             =         FLAG  CPFFLAT             - Flat rate for non-prime time
                                    5114             =
 000B6C                             5115             =         DS    5F                  Reserved
 000B80                             5116             =CPAUTHID DS    CL128               Kerberos principal
1DSECTS   CP:       User Control Page                                                                                       Page   53
0Current Usings:  (CP,R11) (CV,R12)
0D-Loc  Object Code    Addr1 Addr2  Stmt Lv Lineno    Source Statement           (Hibal 5, Asmedit 3.3)  HLASM R4.0  2004/03/15 12.43
+_____  ______ ____    _____ _____  ____ __ ______    ______ _________
0                                   5118             =*********************************************************************
                                    5119             =**                                                                 **
                                    5120             =**  The following space is allocated for non-Stanford use.         **
                                    5121             =**                                                                 **
                                    5122             =*********************************************************************
                                    5123             =         COPY  CPLOCAL
                                    5124             =***
                                    5125             =***  CPLOCAL -- Non-Stanford CP Definitions
                                    5126             =***
                                    5127             =***  Note:  Fields before CPLOCALZ are global and are initialized
                                    5128             =***         to zeros when the CP is first obtained.
                                    5129             =***
                                    5130             =***         Fields after CPLOCALZ are local and are initialized to
                                    5131             =***         zeros at the start of every command.
                                    5132             =***
                                    5133             =***         You can put the CPLOCALZ anyplace in this mapping to
                                    5134             =***         divide globals and locals.
                                    5135             =***
 000C00                             5136             =         DS    XL72                Assume all globals
                                    5137             =CPLOCALZ EQU   *  ---------------- Start of Locals
1DSECTS   CP:       User Control Page                                                                                       Page   54
0Current Usings:  (CP,R11) (CV,R12)
0D-Loc  Object Code    Addr1 Addr2  Stmt Lv Lineno    Source Statement           (Hibal 5, Asmedit 3.3)  HLASM R4.0  2004/03/15 12.43
+_____  ______ ____    _____ _____  ____ __ ______    ______ _________
0                                   5139             =*********************************************************************
                                    5140             =**                                                                 **
                                    5141             =**  Start of local fields, initialized at the start of a command.  **
                                    5142             =**                                                                 **
                                    5143             =*********************************************************************
                                    5144             =*
 000C48                             5145             =CPCACCT  DS    0CL5                Command account (when needed)
 000C48                             5146             =CPCUSER  DS    CL3                 .uuu
 000C4B                             5147             =CPCGRP   DS    CL2                 .gg
                                    5148             =
 000C4E                             5149             =CPFCOL   DS    H          [Order]  Starting column (-1)
 000C50                             5150             =CPLCOL   DS    H          [Order]  Last column
                                    5151             =
 000C52                             5152             =CPLLEN   DS    H                   Local line warning len
 000C54                             5153             =         DS    H                   Reserved
                                    5154             =
 000C56                             5155             =CPLWCHAR DS    CL16                Local charging component override
                                    5156             =
 000C68                             5157             =CPDMPLST DS    F                   Next lineno for dump
 000C6C                             5158             =CPDMPDLT DS    F                   Delta for dump
 000C70                             5159             =CPDMPMAX DS    F                   Line that stops dump
                                    5160             =
 000C74                             5161             =CPMODNEX DS    F                   Assume next existing lineno
                                    5162             =
 000C78 00                          5163             =CPMODFLG FLAG  ,                   Modify/edit flags
 CPMODFLG.CPFCMDMD 80 ONES          5167             =         FLAG  CPFCMDMD            - Command retry
 CPMODFLG.CPFMODXP 40 ONES          5172             =         FLAG  CPFMODXP            - Modify/edit is explicit
 CPMODFLG.CPFNUMXP 20 ONES          5177             =         FLAG  CPFNUMXP            - Number options are explicit
 CPMODFLG.CPFMODCD 10 ONES          5182             =         FLAG  CPFMODCD            - Modify mode (modify/edit)
 CPMODFLG.CPFLISXP 08 ONES          5187             =         FLAG  CPFLISXP            - List options are explicit
                                    5192             =
 000C79 00                          5193             =CPNUMFLG FLAG  ,                   Number options
                                    5197             =*        flag  cpnfopt             - Number option explicit
                                    5198             =*        flag  cpnfunn             - Unnumbered
                                    5199             =*        flag  cpnfnon             - Nonumber
                                    5200             =*        flag  cpnfint             - Integer
 CPNUMFLG.CPNFRNUM 08 ONES          5201             =         FLAG  (CPNFRNUM,X'08')    - Rnumber
                                    5210             =
 000C7A 00                          5211             =CPTRMFL1 FLAG
 CPTRMFL1.CPFNONL  80 ONES          5215             =         FLAG  CPFNONL             - Don't append NL on writes
 CPTRMFL1.CPFWTO   40 ONES          5220             =         FLAG  CPFWTO              - WTO seg buffer
 CPTRMFL1.CPFIATTN 20 ONES          5225             =         FLAG  CPFIATTN            - Intermediate attn occurred
                                    5230             =
 000C7B 00                          5231             =CPTRMFL2 FLAG
 CPTRMFL2.CPFCLEAN 80 ONES          5235             =         FLAG  CPFCLEAN            - Don't allow other terminal I/O
 CPTRMFL2.CPFNECHO 40 ONES          5240             =         FLAG  CPFNECHO            - Noecho on reads
 CPTRMFL2.CPFSLOW  20 ONES          5245             =         FLAG  CPFSLOW             - Don't use tabs
 CPTRMFL2.CPFDISP  10 ONES          5250             =         FLAG  CPFDISP             - Display mode I/O
 CPTRMFL2.CPFNOCUR 08 ONES          5255             =         FLAG  CPFNOCURS           - Don't move input cursor (VTAM)
 CPTRMFL2.CPFNOUTT 04 ONES          5260             =         FLAG  CPFNOUTTRIM         - No trim trailing output blanks
                                    5265             =
 000C7C 00                          5266             =CPTRMFL3 FLAG
 CPTRMFL3.CPFTRAN  80 ONES          5270             =         FLAG  CPFTRAN             - Transparent I/O
 CPTRMFL3.CPFNTYPE 40 ONES          5275             =         FLAG  CPFNTYPE            - No typeahead I/O
1DSECTS   CP:       User Control Page                                                                                       Page   55
0Current Usings:  (CP,R11) (CV,R12)
0D-Loc  Object Code    Addr1 Addr2  Stmt Lv Lineno    Source Statement           (Hibal 5, Asmedit 3.3)  HLASM R4.0  2004/03/15 12.43
+_____  ______ ____    _____ _____  ____ __ ______    ______ _________
0CPTRMFL3.CPFRUND  20 ONES          5280             =         FLAG  CPFRUND             - Count rundown I/O (read)
 CPTRMFL3.CPFNMOD  10 ONES          5285             =         FLAG  CPFNMOD             - Nomodel I/O
 CPTRMFL3.CPFUFMT  08 ONES          5290             =         FLAG  CPFUFMT             - Unformatted I/O
 CPTRMFL3.CPFFORCE 04 ONES          5295             =         FLAG  CPFFORCE            - Force I/O (override quiet)
 CPTRMFL3.CPFBUFIO 02 ONES          5300             =         FLAG  CPFBUFIO            - Buffered I/O
                                    5305             =
 000C7D 00                          5306             =CPTRMFL4 FLAG
 CPTRMFL4.CPFNPAU  80 ONES          5310             =         FLAG  CPFNPAU             - Don't pause at end of page
 CPTRMFL4.CPFNPT   40 ONES          5315             =         FLAG  CPFNPT              - Don't allow read text at p/p
 CPTRMFL4.CPFTINT  20 ONES          5320             =         FLAG  CPFTINT             - Terminal I/O interruptible
 CPTRMFL4.CPFNSTAR 10 ONES          5325             =         FLAG  CPFNSTAR            - No stars on read attention
 CPTRMFL4.CPFSTMSG 08 ONES          5330             =         FLAG  CPFSTMSG            - Status msg needs erasing
 CPTRMFL4.CPFNLF   04 ONES          5335             =         FLAG  CPFNLF              - No LF on read CR
 CPTRMFL4.CPFDATTN 02 ONES          5340             =         FLAG  CPFDATTN            - Disallow ATTN on reads
                                    5345             =
 000C7E                             5346             =CPTRMPAU DS    H                   Page/pause line count
                                    5347             =
 000C80                             5348             =CPTRMIN  DS    H                   Input read count
                                    5349             =
 000C84                             5350             =         DS    F                   Reserved
                                    5351             =CPTRM    EQU   CPTRMFL1,*-CPTRMFL1,C'X'
                                    5352             =
 000C88                             5353             =CPDOUB   DS    D                   Double-word work area
 000C90                             5354             =CPHFWRD  DS    H                   Used to extend cpdoub to 10 bytes
 000C92                             5355             =CPBYTE   DS    X                   Work byte
 000C93                             5356             =         DS    X                   Reserved
 000C94                             5357             =CPTELL   DS    2F
 000C9C                             5358             =CPSAVE   DS    2A                  Scan saves ptrs here
 000CA4                             5359             =CPCWA    DS    F                   Command work area ptr
                                    5360=            =         ¿þþþþþþþþþþþþþþþþþþþþþþþþþÜ
                                    5361=            =         Ÿ  Old Scanner work area  Ÿ
                                    5362=            =         ¾þþþþþþþþþþþþþþþþþþþþþþþþþ»
                                    5363             =CPSCANSZ EQU   24                  Size of scan area
 000CA8                             5364             =CPOSCANX DS    0F                  Scanner work area
 000CA8                             5365             =CPSCNLOC DS    F                   Resume scan text ptr
 000CAC                             5366             =CPSCNLEN DS    H                   Resume len
 000CAE                             5367             =CPSCNKW  DS    CL8                 Scan kw
 000CB6                             5368             =CPSCNPST DS    H                   Push rel ptr
 000CB8                             5369             =CPSCNRA  DS    A                   Scan return addr
 000CBC                             5370             =CPSCNPRT DS    A                   Sckw prt addr
 000CC0                             5371             =CPSCANBK DS    XL6                 Previous scan loc, len
 000CC8                             5372             =CPSCNERT DS    A                   Scanner error routine addr
 000CCC                             5373             =CPLSTSCK DS    F                   Last SCKW addr
                                    5374             =
 000CD0 00                          5375             =CPSCNFLG FLAG  ,                   Scanner control flag
                                    5379             =CPFSBLK  EQU   X'80'               - Blanks tokens (for passed cmds)
                                    5380             =CPFRTNER EQU   X'40'               - Go to exit routine on error
                                    5381             =CPFSPRM  EQU   X'20'               - Parm scan in progress
 CPSCNFLG.CPFSNSEP 10 ONES          5382             =         FLAG  (CPFSNSEP,X'10')    - Don't isolate *, /, +, -
 CPSCNFLG.CPFSUPLO 08 ONES          5391             =         FLAG  (CPFSUPLO,X'08')    - Don't upcase the token
                                    5400             =CPFSCNAS EQU   X'04'               - Scan asterisk(*) as token
                                    5401             =CPFGSBLK EQU   X'02'               - Default is to blank tokens
 CPSCNFLG.CPFSNRTN 01 ONES          5402             =         FLAG  (CPFSNRTN,X'01')    - Don't go to sckw rtn flag
 000CD1 00                          5411             =CPSCNF2  FLAG  ,
1DSECTS   CP:       User Control Page                                                                                       Page   56
0Current Usings:  (CP,R11) (CV,R12)
0D-Loc  Object Code    Addr1 Addr2  Stmt Lv Lineno    Source Statement           (Hibal 5, Asmedit 3.3)  HLASM R4.0  2004/03/15 12.43
+_____  ______ ____    _____ _____  ____ __ ______    ______ _________
0CPSCNF2.CPFSRETN  80 ONES          5415             =         FLAG  CPFSRETN            - Always return from scan
 000CD2 00                          5420             =CPSCNF3  FLAG  ,                   Flag byte (not used)
 000CD3 00                          5424             =CPSCNF4  FLAG  ,                   Flag byte (not used)
                                    5428             =
                                    5429             =CPSCNMAX EQU   20                  Max scan PUSH depth
 000CD4                             5430             =CPSCNSTK DS    (CPSCNMAX)F         Scan PUSH/POP stack
                                    5431             =CPOSCAN  EQU   CPOSCANX,*-CPOSCANX,C'X'  Scanner control block
                                    5432             =
 000D24                             5433             =CPCMNM   DS    CL3                 First 3 bytes of command name
                                    5434             =
 000D28                             5435             =         DS    0F
 000D28                             5436             =CPTOKEN  DS    CL16                Isolated token from SCANTOK
 000D38                             5437             =CPUPPTOK DS    CL16                Capitalized token from SCANTOK
                                    5438             =
 000D48                             5439             =CPSCNKLC DS    F                   Last keyword scanned location
 000D4C                             5440             =CPSCNKLN DS    F                   Last keyword scanned length
1DSECTS   CP:       User Control Page                                                                                       Page   57
0Current Usings:  (CP,R11) (CV,R12)
0D-Loc  Object Code    Addr1 Addr2  Stmt Lv Lineno    Source Statement           (Hibal 5, Asmedit 3.3)  HLASM R4.0  2004/03/15 12.43
+_____  ______ ____    _____ _____  ____ __ ______    ______ _________
0                                   5442=            =   ¿þþþþþþþþþþþþþþþþþþþþÜ
                                    5443=            =   Ÿ  Local user flags  Ÿ
                                    5444=            =   ¾þþþþþþþþþþþþþþþþþþþþ»
 000D50 00                          5445             =CPLFLG1  FLAG
                                    5449             =CPFCPY   EQU   X'20'               - Copy flag
                                    5450             =CPFALL   EQU   X'10'               - Detrng flag -- default all
                                    5451             =CPFALLV  EQU   X'04'               - ALL specified/defaulted
                                    5452             =CPFDSN1  EQU   X'02'               - Dodsnm re-entry flag
                                    5453             =CPFTODFT EQU   X'01'               - Default "to end" taken (copy)
                                    5454             =
 000D51 00                          5455             =CPLFLG2  FLAG
                                    5459             =CPFSCRTC EQU   X'40'               - Scratch flag (save-show dsn)
                                    5460             =CPFDSNMS EQU   X'20'               - No default ok on dsnames flag
                                    5461             =*        EQU   X'10'               - Reserved
                                    5462             =CPFCOMB  EQU   X'08'               - Combine flag for copy
                                    5463             =CPFMERG  EQU   X'04'               - Merge option (copy/move/collect)
                                    5464             =CPFREP1  EQU   X'02'               - Replace option (copy/move/rep)
                                    5465             =CPFDITTO EQU   X'01'               - Ditto option (insert/replace)
                                    5466             =CPFSMALL EQU   X'01'               - Small data set saved (save)
                                    5467             =*------> exec usage
                                    5468             =CPFEXSAV EQU   X'80'               - Save option on exec
                                    5469             =*cpfdsnms equ  x'20'               - Null dsname flag
                                    5470             =*cpfclear equ  x'10'               - Clear exec file flag
                                    5471             =CPFEXLNE EQU   X'08'               - Explicit lineno was specified
                                    5472             =CPFEXRNG EQU   X'04'               - Exec line range specified
                                    5473             =CPFEXPA  EQU   X'02'               - Exec pause was specified
                                    5474             =CPFEXDEL EQU   X'01'               - Exec active has delete range
                                    5475             =*------> change usage
                                    5476             =CPFCHTEX EQU   X'40'               - CHANGE C'XXXX' (case indep.)
                                    5477             =CPFCHLIM EQU   X'20'               - String positionally delimited
                                    5478             =CPFCHDEL EQU   X'10'               - Replacing string void flag
                                    5479             =CPFCHNGD EQU   X'08'               - Something changed flag
                                    5480             =CPFLNCHN EQU   X'04'               - At least 1 line changed flag
                                    5481             =CPFCHPOS EQU   X'02'               - Positional change
                                    5482             =CPFCHND  EQU   X'01'               - Terminate change flag
                                    5483             =*------> show dsnames usage
                                    5484             =CPFSTOP  EQU   X'01'               - Stop typed list flag
                                    5485             =
 000D52 00                          5486             =CPLFLG3  FLAG
                                    5490             =CPFSET   EQU   X'80'               - Set prefix after scan
                                    5491             =CPFKWOP  EQU   X'10'               - Keyword option on usr/grp/name
                                    5492             =*------> show dsnames/directory usage
                                    5493             =CPFDATED EQU   X'10'               - Dated option flag
                                    5494             =CPFEXCL  EQU   X'08'               - Exclude option flag
                                    5495             =CPFSPACE EQU   X'04'               - Space option flag
                                    5496             =CPFTYPE  EQU   X'02'               - Type/all option flag
                                    5497             =CPFBLOCK EQU   X'01'               - Directory block info requested
                                    5498             =*------> show volumes usage
                                    5499             =CPFINFO  EQU   X'80'               - Show volumes info
                                    5500             =CPL3AATN EQU   X'40'               - Abort on attention
                                    5501             =*------> change usage
                                    5502             =CPFCHIN  EQU   X'80'               - Range specified
                                    5503             =CPFCHUS  EQU   X'40'               - Change using
                                    5504             =CPFCHTO  EQU   X'20'               - Change to
1DSECTS   CP:       User Control Page                                                                                       Page   58
0Current Usings:  (CP,R11) (CV,R12)
0D-Loc  Object Code    Addr1 Addr2  Stmt Lv Lineno    Source Statement           (Hibal 5, Asmedit 3.3)  HLASM R4.0  2004/03/15 12.43
+_____  ______ ____    _____ _____  ____ __ ______    ______ _________
0                                   5505             =CPFCHNM  EQU   X'10'               - Change to numbers
                                    5506             =CPFCHNMI EQU   X'08'               - Increment number flag
                                    5507             =CPFCHLN  EQU   X'04'               - Line option
                                    5508             =CPFCHREP EQU   X'02'               - Repeat option for using range
                                    5509             =CPFCHCAS EQU   X'01'               - To upper/lower
                                    5510             =
 000D53 00                          5511             =CPLFLG4  FLAG
                                    5515             =CPFSTINS EQU   X'40'               - Allow insert only flag
                                    5516             =CPFDESET EQU   X'20'               - This flag signals despot
                                    5517             =*                                     the value of cpnwln has been
                                    5518             =*                                     set for the next locate and
                                    5519             =*                                     should not be kicked up.
                                    5520             =CPFDESRT EQU   X'10'               - Re-entry to despot -- don't reset
                                    5521             =*                                     range.  this option is
                                    5522             =*                                     no longer used (it was
                                    5523             =*                                     used by the old blpr run).
                                    5524             =CPFSTREP EQU   X'08'               - Allow repl only in stow
                                    5525             =CPFRUNCK EQU   X'04'               - Submit check for run
                                    5526             =CPFNOCUR EQU   X'02'               - No abort if cur, next, or prev
                                    5527             =*                                     do not exist
                                    5528             =CPFNOINC EQU   X'01'               - No increment of lineno's
                                    5529             =
 000D54 00                          5530             =CPLFLG5  FLAG
                                    5534             =* common flag bits of cplflg5 used by many commands
                                    5535             =CPFUNUM  EQU   X'80'               - Unnumbered flag
                                    5536             =CPFNTEX  EQU   X'40'               - Notext listing flag
                                    5537             =CPFNONUM EQU   CPFUNUM+CPFNTEX     - Nonumber listing flag
                                    5538             =CPFNLST  EQU   X'20'               - Nolist listing control flag
                                    5539             =CPFFOPT  EQU   X'10'               - Number option specified
                                    5540             =CPNFINT  EQU   X'08'               - Integer (numbered) flag
                                    5541             =CPFSING  EQU   X'01'               - Single option
                                    5542             =
 000D55 00                          5543             =CPLFLG6  FLAG
 CPLFLG6.CPFDUMP   80 ONES          5547             =         FLAG  CPFDUMP             - Dump (collect options)
 CPLFLG6.CPFQUIET  40 ONES          5552             =         FLAG  CPFQUIET            - Quiet
 CPLFLG6.CPFKOK    20 ONES          5557             =         FLAG  CPFKOK              - Yes or ok needed for access
 CPLFLG6.CPFCLEAR  10 ONES          5562             =         FLAG  CPFCLEAR            - Clear current Active file
 CPLFLG6.CPFKEEP   08 ONES          5567             =         FLAG  CPFKEEP             - Keep current Active file
 CPLFLG6.CPFNWARN  04 ONES          5572             =         FLAG  CPFNWARN            - NOWARN specified
                                    5577             =
 000D56 00                          5578             =CPLFLG7  FLAG
 CPLFLG7.CPFSETP   80 ONES          5582             =         FLAG  CPFSETP             - This command set the prefix
 CPLFLG7.CPFTRUNC  40 ONES          5587             =         FLAG  CPFTRUNC            - Lines truncated when saved
 CPLFLG7.CPFNOCAT  20 ONES          5592             =         FLAG  CPFNOCAT            - Don't use the catalog
 CPLFLG7.CPFUNCAT  10 ONES          5597             =         FLAG  CPFUNCAT            - Uncatalog
 CPLFLG7.CPFRECAT  08 ONES          5602             =         FLAG  CPFRECAT            - Recatalog
                                    5607             =
 000D57 00                          5608             =CPLFLG8  FLAG
 CPLFLG8.CPLCOLXP  80 ONES          5612             =         FLAG  CPLCOLXP            - Dump with explicit lineno
 CPLFLG8.CPFNCUR   40 ONES          5617             =         FLAG  CPFNCUR             - Don't update current lineno
 CPLFLG8.CPFCASE   20 ONES          5622             =         FLAG  CPFCASE             - Explicit case override
 CPLFLG8.CPFUPPER  10 ONES          5627             =         FLAG  CPFUPPER            - Explicit case is upper case
                                    5632             =
 000D58 00                          5633             =CPLFLG9  FLAG
1DSECTS   CP:       User Control Page                                                                                       Page   59
0Current Usings:  (CP,R11) (CV,R12)
0D-Loc  Object Code    Addr1 Addr2  Stmt Lv Lineno    Source Statement           (Hibal 5, Asmedit 3.3)  HLASM R4.0  2004/03/15 12.43
+_____  ______ ____    _____ _____  ____ __ ______    ______ _________
0CPLFLG9.CPLSTOWD  80 ONES          5637             =         FLAG  CPLSTOWD            - Lines stowed with collect
 CPLFLG9.CPFFIRST  40 ONES          5642             =         FLAG  CPFFIRST            - First time flag
 CPLFLG9.CPFVER    20 ONES          5647             =         FLAG  CPFVER              - Verify option specified
 CPLFLG9.CPFINT    10 ONES          5652             =         FLAG  CPFINT              - Internal format
 CPLFLG9.CPFEXNOB  08 ONES          5657             =         FLAG  CPFEXNOB            - "NOBREAK" specified on EXEC
 CPLFLG9.CPFGEN    04 ONES          5662             =         FLAG  CPFGEN              - Generation dataset
                                    5667             =
 000D59 00                          5668             =CPLFLG10 FLAG
 CPLFLG10.CPLFSPEL 80 ONES          5672             =         FLAG  CPLFSPEL            - Force spell check in page mode
                                    5677             =
 000D5A 00                          5678             =CPLFLG11 FLAG
 CPLFLG11.CPFABORT 80 ONES          5682             =         FLAG  CPFABORT            - Abort command
 CPLFLG11.CPFERROR 40 ONES          5687             =         FLAG  CPFERROR            - Command error
 CPLFLG11.CPFRETRY 20 ONES          5692             =         FLAG  CPFRETRY            - Force command retry
 CPLFLG11.CPFRQUIT 10 ONES          5697             =         FLAG  CPFRQUIT            - Quit range (see DESPOT in ACT)
                                    5702             =
 000D5B 00                          5703             =CPLFLG12 FLAG
 CPLFLG12.CPFIDSET 80 ONES          5707             =         FLAG  CPFIDSET            - Attn ID already set
                                    5712             =
 000D5C 00                          5713             =CPLFLG14 FLAG
 CPLFLG14.CPFWFIX  80 ONES          5717             =         FLAG  CPFWFIX             - Fix W variable
 CPLFLG14.CPFZAPIF 40 ONES          5722             =         FLAG  CPFZAPIF            - Zap to fix YESNO mult fn calls
 CPLFLG14.CPFBDEST 20 ONES          5727             =         FLAG  CPFBDEST            - Bad DEST (see RJE and MAIL)
 CPLFLG14.CPFDSNNE 10 ONES          5732             =         FLAG  CPFDSNNE            - Don't generate error on baddsn
 CPLFLG14.CPFDSNBD 08 ONES          5737             =         FLAG  CPFDSNBD            - Bad dsname found
                                    5742             =
                                    5743             =CPLFLGND EQU   *                   End of local flags
1DSECTS   CP:       User Control Page                                                                                       Page   60
0Current Usings:  (CP,R11) (CV,R12)
0D-Loc  Object Code    Addr1 Addr2  Stmt Lv Lineno    Source Statement           (Hibal 5, Asmedit 3.3)  HLASM R4.0  2004/03/15 12.43
+_____  ______ ____    _____ _____  ____ __ ______    ______ _________
0                                   5745=            =         ¿þþþþþþþþþþþþþþþþþþþþÜ
                                    5746=            =         Ÿ  Local work cells  Ÿ
                                    5747=            =         ¾þþþþþþþþþþþþþþþþþþþþ»
 000D60                             5748             =CPWK1    DS    F                   Work cells
 000D64                             5749             =CPWK2    DS    F
 000D68                             5750             =CPWK3    DS    F
 000D6C                             5751             =CPWK4    DS    F
 000D70                             5752             =CPWK5    DS    F
 000D74                             5753             =CPWK6    DS    F
 000D78                             5754             =CPWK7    DS    F
 000D7C                             5755             =CPWK8    DS    F
 000D80                             5756             =CPWK9    DS    F
                                    5757             =*
                                    5758             =* CPWK1, CPWK2 & CPWK3 used by lxcate (external copy)
                                    5759             =* CPWK4 used by move & copy
                                    5760             =* CPWK4 & CPWK5 used by exec command (parm option)
                                    5761             =*
                                    5762             =* as used by "change"
                                    5763             =CPCHCST  EQU   CPWK1,4,C'F'        Disp. in line of change target fld
                                    5764             =CPCHCLN  EQU   CPWK2,4,C'F'        Length of field
                                    5765             =CPCHLN1  EQU   CPWK3               Length of string to match
                                    5766             =CPCHAD1  EQU   CPWK4               It's address
                                    5767             =CPCHMOD  EQU   CPWK7,1,C'X'        First byte for occurrence count
                                    5768             =CPCHLN2  EQU   CPWK5               String length to use as replace
                                    5769             =CPCHAD2  EQU   CPWK6               It's address
                                    5770             =*
                                    5771             =* as used by MOVE & COPY
                                    5772             =*
                                    5773             =CPBGLN   EQU   CPWK5               1st line no. of copy-move
                                    5774             =CPNDLN   EQU   CPWK6               Start of rep/interlv on copy-move
                                    5775             =*
                                    5776             =* as used by USE & SAVE
                                    5777             =*
                                    5778             =CPNREC   EQU   CPWK2,4,C'F'        Blocking factor for use-save
                                    5779             =CPRCSZ   EQU   CPWK3               Blocksize for use-save
                                    5780             =CPNXAD   EQU   CPWK4               Work cell for use-save
                                    5781             =CPNWCT   EQU   CPWK5               Work cell for use-save
                                    5782             =CPUSCNT  EQU   CPWK6,4,C'F'        Use--max no of lines to use
                                    5783             =CPUSLNS  EQU   CPWK7,4,C'F'        Use--no of lines stowed
                                    5784             =*
                                    5785             =* as used by "read"
                                    5786             =CPWKRD   EQU   CPWK1               Line number for read command
                                    5787             =*
                                    5788             =* as used by "exec"
                                    5789             =CPEXLNET EQU   CPWK6               Specified line no. for exec
                                    5790             =
                                    5791             =CPJWA    EQU   CPWK6               Address of jes work area
1DSECTS   CP:       User Control Page                                                                                       Page   61
0Current Usings:  (CP,R11) (CV,R12)
0D-Loc  Object Code    Addr1 Addr2  Stmt Lv Lineno    Source Statement           (Hibal 5, Asmedit 3.3)  HLASM R4.0  2004/03/15 12.43
+_____  ______ ____    _____ _____  ____ __ ______    ______ _________
0                                   5793             =*        range-processor information
                                    5794             =* CPDRPT is a relic of the past.  1/86, Niz   (Ha! CH 2/91)
 000D84                             5795             =CPDRPT   DS    F                   Addr directory entry of locate pg
                                    5796             =*                                  high byte is flags....
                                    5797             =CPFNTYT  EQU   X'80'               - No active file flag
                                    5798             =CPFHIGH  EQU   X'40'               - Higher than lineno in active
                                    5799             =CPFMTCH  EQU   X'08'               - Lineno matches pre-existing one
                                    5800             =*
                                    5801             =* detrng sets cpfsln-cplsln-cpstad-cpmdln-cpmdad
 000D88 00                          5802             =CPFRDRNG FLAG ,                    Read range flags
 CPFRDRNG.CPFEXPRG 80 ONES          5806             =         FLAG  CPFEXPRG            Explicit range flag
 CPFRDRNG.CPFSTRRG 40 ONES          5811             =         FLAG  CPFSTRRG            Associative range flag
 CPFRDRNG.CPFLSKIP 20 ONES          5816             =         FLAG  CPFLSKIP            Line skipped since last rng line
 CPFRDRNG.CPFONEL  10 ONES          5821             =         FLAG  CPFONEL             Only one line-number specified
 CPFRDRNG.CPFMODS  08 ONES          5826             =         FLAG  CPFMODS             Mods specified flag
 CPFRDRNG.CPFDSJNT 04 ONES          5831             =         FLAG  CPFDSJNT            Disjoint explicit range flag
 CPFRDRNG.CPFSOME  02 ONES          5836             =         FLAG  CPFSOME             Non-void range flag
 000D89 00                          5841             =CPFRDSRC FLAG ,                    Read range source
 CPFRDSRC.CPFRDACT 01 EQ            5845             =         FLAG  (CPFRDACT,1,EQ)     Read from active
 CPFRDSRC.CPFRDEXE 02 EQ            5855             =         FLAG  (CPFRDEXE,2,EQ)     Read from exec
 CPFRDSRC.CPFRDEXT 03 EQ            5865             =         FLAG  (CPFRDEXT,3,EQ)     Read from external file
 000D8C                             5875             =CPNWLN   DS    F                   For despot -- lineno it's at
 000D90                             5876             =CPFSLN   DS    F                   1st line no. in range
 000D94                             5877             =CPLSLN   DS    F                   Last line no. in range
 000D98                             5878             =CPOCCURS DS    F                   Cur occurrence count for mods
 000D9C                             5879             =CPLRCL   DS    F                   Lrecl for data set type
 000DA0                             5880             =CPSEQFLD DS    H                   Seqfld start for numbered
 000DA2                             5881             =CPSEQLN  DS    H                   Seqfld length for numbered
 000DA4                             5882             =CPSTAD   DS    F                   String wa addr for assoc rng
 000DA8                             5883             =CPMDLN   DS    F                   No. of mods or no explicit line nos
 000DAC                             5884             =CPMDAD   DS    10F                 The mods or line nos.
                                    5885             =*
                                    5886             =* CPPRESSL used for locate, one of the last bastion of pressed lines
                                    5887             =*
 000DD4                             5888             =CPPRESSL DS    F                   Pressed line area ptr (in HEAP)
                                    5889             =*
                                    5890             =* CPDRED for use, save, copy
                                    5891             =*
 000DD8                             5892             =CPDRED   DS    F                   Address of xtrnl buffer
                                    5893             =*                                  flag used in cpdred
                                    5894             =CPFSTART EQU   X'F0'               Signal 1st read or not
                                    5895             =
 000DDC                             5896             =CPIOWAP  DS    F                   IOWA ptr (or zero)
                                    5897             =
 000DE0                             5898             =CPEVLNO  DS    F                   EVAL command working lineno
 000DE4                             5899             =CPEVLEN  DS    F                   EVAL command text len
 000DE8                             5900             =CPEVLOC  DS    F                   EVAL command text loc
                                    5901             =
 000DEC                             5902             =         DS    10F                 Reserved
                                    5903             =*
                                    5904             =* CPWKPS & CPWKDL are used where required
                                    5905             =*
 000E14                             5906             =CPWKPS   DS    F                   Work position
 000E18                             5907             =CPWKDL   DS    F                   Work delta
1DSECTS   CP:       User Control Page                                                                                       Page   62
0Current Usings:  (CP,R11) (CV,R12)
0D-Loc  Object Code    Addr1 Addr2  Stmt Lv Lineno    Source Statement           (Hibal 5, Asmedit 3.3)  HLASM R4.0  2004/03/15 12.43
+_____  ______ ____    _____ _____  ____ __ ______    ______ _________
0                                   5908             =
 000E1C                             5909             =CPNUMLNO DS    F                   Working line-number
                                    5910             =*                                  (Updated if a renumber occurs)
                                    5911             =*
 000E20                             5912             =CPLENLNO DS    F                   First length warning lineno
 000E24                             5913             =CPLENWRN DS    H                   Number of over length warnings
 000E26                             5914             =CPLENMAX DS    H                   Length of longest line
                                    5915             =
 000E28 00                          5916             =CPEXTFLG FLAG
 CPEXTFLG.CPFNEWED 80 ONES          5920             =         FLAG  CPFNEWED            - NEWEDIT option specified
 CPEXTFLG.CPF###R1 40 ONES          5925             =         FLAG  CPF###R1            - Reserved
 CPEXTFLG.CPFXPREF 20 ONES          5930             =         FLAG  CPFXPREF            - For PUTLINE: CPNEDPFX is set
 CPEXTFLG.CPFXMULT 10 ONES          5935             =         FLAG  CPFXMULT            - For SAVE: MULTIPLE specified
 CPEXTFLG.CPFXALL  08 ONES          5940             =         FLAG  CPFXALL             - For USE: We want ALL lines
 CPEXTFLG.CPFNCOND 04 ONES          5945             =         FLAG  CPFNCOND            - For SAVE: Do not condense
                                    5950             =
 000E29                             5951             =CPNEDPFX DS    XL10                NEWEDIT line prefix
                                    5952             =CPNEDL   EQU   CPNEDPFX,8,C'X'     : Line's prefix info (see ACT)
                                    5953             =CPNEDSET EQU   CPNEDPFX+8,2,C'X'   : Active file set number
                                    5954             =
 000E34                             5955             =CPSAVOLD DS    F                   For SAVE: last CPACTNO seen
 000E38                             5956             =CPSAVACT DS    F                   For SAVE: CPACTNO to stop at
                                    5957             =
 000E3C                             5958             =CPUSESET DS    H                   For USE: current ext. set number
 000E3E                             5959             =         DS    H                   Reserved
                                    5960             =
 000E40                             5961             =         DS    5F                  Reserved
1DSECTS   CP:       User Control Page                                                                                       Page   63
0Current Usings:  (CP,R11) (CV,R12)
0D-Loc  Object Code    Addr1 Addr2  Stmt Lv Lineno    Source Statement           (Hibal 5, Asmedit 3.3)  HLASM R4.0  2004/03/15 12.43
+_____  ______ ____    _____ _____  ____ __ ______    ______ _________
0                                   5963=            =   ¿þþþþþþþþþþþþþþþþþþþþþþþþþÜ
                                    5964=            =   Ÿ  Modern file work area  Ÿ
                                    5965=            =   ¾þþþþþþþþþþþþþþþþþþþþþþþþþ»
 000E54                             5966             =CPFINFOP DS    A                   FILE NAME, FILE INFO DSECT
 000E58                             5967             =CPDEVP   DS    A                   FILE WORK AREA
0                                   5969=            =   ¿þþþþþþþþþþþþþþþþþþþþþþþÜ
                                    5970=            =   Ÿ  Data set work area.  Ÿ
                                    5971=            =   ¾þþþþþþþþþþþþþþþþþþþþþþþ»
 000E5C                             5972             =CPDSNWA  DS    0F
 000E5C                             5973             =DSNWADSN DS    CL44                Dsname
                                    5974             =DSNWAGRP EQU   DSNWADSN+4,2,C'X'   .gg
                                    5975             =DSNWAUSR EQU   DSNWADSN+7,3,C'X'   .uuu
                                    5976             =DSNWASTD EQU   DSNWADSN+11,33,C'X' .user part of standard dsname
                                    5977             =* offsets of dsname levels for standard WYLBUR dsnames...
                                    5978             =DSNXG    EQU   4                   Offset of group id in std dsname
                                    5979             =DSNXGL   EQU   3                   Length of group level in std dsn
                                    5980             =DSNXU    EQU   DSNXG+DSNXGL        Offset of user id in std dsname
                                    5981             =DSNXUL   EQU   4                   Length of user level in std dsn
                                    5982             =DSNXN    EQU   DSNXU+DSNXUL        Offset after std dsn prefix
                                    5983             =
 000E88                             5984             =DSNWAMBR DS    CL8                 Pds member name
                                    5985             =DSNWACL2 EQU   *-DSNWADSN          2nd entry length to clear to blk
 000E90                             5986             =DSNON    DS    CL40                ON volume name
                                    5987             =DSNON6   EQU   DSNON,6,C'X'        6 char volume name for disks
 000EB8                             5988             =DSNCATV  DS    CL6                 Cataloged volume name
 000EBE                             5989             =DSNBADV  DS    CL6                 Volume name to avoid (for retry)
 000EC4                             5990             =DSNNUSER DS    CL32                Network user-id
 000EE4                             5991             =DSNNPASS DS    CL32                Network user-id's password
 000F04                             5992             =DSNWLEN  DS    H                   File name length
                                    5993             =DSNWACLR EQU   *-DSNWADSN          Length to be cleared to blanks
 000F06                             5994             =DSNWANL  DS    H                   Dsname length
                                    5995             =
 000F08                             5996             =DSNWFILE DS    CL44                File name (uplow)
                                    5997             =
 000F34 00                          5998             =DSNWAF1  FLAG
                                    6002             =DSNFSTD  EQU   X'80'               - Dsname is standard WYLBUR name
                                    6003             =DSNFMYDS EQU   X'40'               - Dsname belongs to user
                                    6004             =DSNFWLIB EQU   X'20'               - Data set is standard WYLBUR pds
                                    6005             =DSNFQDSN EQU   X'10'               - Dsname was specified in quotes
                                    6006             =DSNFREPL EQU   X'08'               - Replace this dataset
                                    6007             =DSNFKEY  EQU   X'04'               - We have prompted for keyword
                                    6008             =DSNFBYPS EQU   X'02'               - Bypass protection
                                    6009             =DSNFACCS EQU   X'01'               - Dsname access has been verified
                                    6010             =
 000F35 00                          6011             =DSNWAF2  FLAG
                                    6015             =DSNFSIMP EQU   X'FF'               - Simple dopen/dclose request
                                    6016             =DSNFWRT  EQU   X'80'               - Data set to be written
                                    6017             =DSNFSCR  EQU   X'40'               - Scratch function flag
                                    6018             =DSNFPDS  EQU   X'20'               - Command dealing with a pds
                                    6019             =DSNFALLO EQU   X'10'               - Allocate command
                                    6020             =DSNFSHOW EQU   X'08'               - Function is show
                                    6021             =DSNFCAT  EQU   X'04'               - Command manipulating the catlg
                                    6022             =DSNFVALO EQU   X'02'               - *** not used ***
1DSECTS   CP:       User Control Page                                                                                       Page   64
0Current Usings:  (CP,R11) (CV,R12)
0D-Loc  Object Code    Addr1 Addr2  Stmt Lv Lineno    Source Statement           (Hibal 5, Asmedit 3.3)  HLASM R4.0  2004/03/15 12.43
+_____  ______ ____    _____ _____  ____ __ ______    ______ _________
0                                   6023             =DSNFPROT EQU   X'01'               - Set/show protect command
                                    6024             =
 000F36 00                          6025             =DSNWAF3  FLAG
                                    6029             =DSNFTYP  EQU   X'80'               - Show dsn/type,dir/all,cat/type
                                    6030             =DSNFLIN  EQU   X'80'               - Lines option on save
                                    6031             =DSNFSPAC EQU   X'40'               - Show dsn/space
                                    6032             =DSNFDATD EQU   X'20'               - Show dsn/dated
                                    6033             =DSNFXCL  EQU   X'10'               - Exclude on show dsn/dir/cat
                                    6034             =DSNFCVOL EQU   X'08'               - Cvol option specified on cat op
                                    6035             =DSNFCHT  EQU   X'04'               - Type change ok on save
                                    6036             =DSNFEXP  EQU   X'02'               - Expdt override ok on save/scr
                                    6037             =DSNFNOFL EQU   X'01'               - Bypass FASTLIB search
                                    6038             =
 000F37 00                          6039             =DSNWAF4  FLAG
 DSNWAF4.DSNFMAIL  80 ONES          6043             =         FLAG  DSNFMAIL            - Mail command
 DSNWAF4.DSNFSML   40 ONES          6048             =         FLAG  DSNFSML             - Show mail command
 DSNWAF4.DSNFBADN  20 ONES          6053             =         FLAG  DSNFBADN            - Bad (non-os) dsname
 DSNWAF4.DSNFENQ   10 ONES          6058             =         FLAG  DSNFENQ             - DOPEN ENQ'd on dsname
 DSNWAF4.DSNFSTAT  08 ONES          6063             =         FLAG  DSNFSTAT            - Give "in progress" messages
 DSNWAF4.DSNFRSV1  04 ONES          6068             =         FLAG  DSNFRSV1            - Reserved
 DSNWAF4.DSNFRENA  02 ONES          6073             =         FLAG  DSNFRENA            - Rename command
 DSNWAF4.DSNFFAST  01 ONES          6078             =         FLAG  DSNFFAST            - FASTLIB
                                    6083             =
 000F38 00                          6084             =DSNWAF5  FLAG
 DSNWAF5.DSNFUNC   80 ONES          6088             =         FLAG  DSNFUNC             - SHOW CATALOG UNCATALOG
 DSNWAF5.DSNFTAB   40 ONES          6093             =         FLAG  DSNFTAB             - SHOW DIRECTORY TABLE option
 DSNWAF5.DSNFCODE  20 ONES          6098             =         FLAG  DSNFCODE            - Encoded dataset
 DSNWAF5.DSNFNONQ  10 ONES          6103             =         FLAG  DSNFNONQ            - No enqueue (privd)
 DSNWAF5.DSNFONLY  08 ONES          6108             =         FLAG  DSNFONLY            - Do "OBTAIN" (SHOW DSN ONLY)
 DSNWAF5.DSNFCUNI  04 ONES          6113             =         FLAG  DSNFCUNI            - UNIT specified on (RE)CATALOG
 DSNWAF5.DSNFCUIG  02 ONES          6118             =         FLAG  DSNFCUIG            - UNIT ignored - volume known
 DSNWAF5.DSNFLIKE  01 ONES          6123             =         FLAG  DSNFLIKE            - SHOW DIRECTORY LIKE option
                                    6128             =
 000F39 00                          6129             =DSNWAF6  FLAG
 DSNWAF6.DSNFTRAN  80 ONES          6133             =         FLAG  DSNFTRAN            - TRANSPARENT option
 DSNWAF6.DSNFSTRM  40 ONES          6138             =         FLAG  DSNFSTRM            - STREAM option
 DSNWAF6.DSNFSPLT  20 ONES          6143             =         FLAG  DSNFSPLT            - SPLIT option (see DSNWRAPL)
 DSNWAF6.DSNFAPP   10 ONES          6148             =         FLAG  DSNFAPP             - APPEND option
 DSNWAF6.DSNFRETAI 08 ONES          6153             =         FLAG  DSNFRETAIN          - RETAIN option
 DSNWAF6.DSNFDTRAN 04 ONES          6158             =         FLAG  DSNFDTRAN           - DTRANSPARENT option
 DSNWAF6.DSNFTABS  02 ONES          6163             =         FLAG  DSNFTABS            - TABS option
 DSNWAF6.DSNFUFMT  01 ONES          6168             =         FLAG  DSNFUFMT            - UNFORMATTED option
                                    6173             =
 000F3A 00                          6174             =DSNWAF7  FLAG
 DSNWAF7.DSNFTEXTO 80 ONES          6178             =         FLAG  DSNFTEXTONLY        - TEXTONLY option
 DSNWAF7.DSNFASCII 40 ONES          6183             =         FLAG  DSNFASCII           - ASCII format
 DSNWAF7.DSNFEBCDI 20 ONES          6188             =         FLAG  DSNFEBCDIC          - EBCDIC format
 DSNWAF7.DSNFWRITE 10 ONES          6193             =         FLAG  DSNFWRITE           - lines written
                                    6198             =
 000F3B                             6199             =DSNDTYPE DS    X                   Device type
                                    6200             =DSNDDISK EQU   1                   - Disk
                                    6201             =DSNDSAM  EQU   2                   - Samson
                                    6202             =DSNDNET  EQU   3                   - Network
                                    6203             =DSNDMAX  EQU   3
1DSECTS   CP:       User Control Page                                                                                       Page   65
0Current Usings:  (CP,R11) (CV,R12)
0D-Loc  Object Code    Addr1 Addr2  Stmt Lv Lineno    Source Statement           (Hibal 5, Asmedit 3.3)  HLASM R4.0  2004/03/15 12.43
+_____  ______ ____    _____ _____  ____ __ ______    ______ _________
0                                   6204             =
 000F3C                             6205             =DSNNTRK  DS    H                   No. of tracks (for allocate)
 000F3E                             6206             =DSNNBLK  DS    H                   No. of dir blocks (for allocate)
 000F40                             6207             =DSNIXLEN DS    H                   Length of pattern dsname
                                    6208             =
 000F42                             6209             =DSNWRAPL DS    H                   Wrap length (or zero)
                                    6210             =
 000F44                             6211             =DSNVOLCT DS    H                   Number of alt volumes picked
 000F48                             6212             =         DS    F                   Reserved
                                    6213             =
 000F4C                             6214             =DSNCLCK  DS    F                   Clock at last status message
 000F50                             6215             =DSNLCNT  DS    F                   No. of lines read/written
 000F54                             6216             =DSNLTOT  DS    F                   Total number of lines (0=n/a)
                                    6217             =
 000F58                             6218             =DSNFLIB  DS    F                   FASTLIB entry pointer
 000F5C                             6219             =DSNCODE  DS    F                   Dataset encoding value
                                    6220             =
 000F60                             6221             =DSNDEVP  DS    A                   Device dependent work area ptr
                                    6222             =
 000F64                             6223             =         DS    0F
                                    6224             =DSSIZ    EQU   *-DSNWADSN          Length of dsname work area
                                    6225             =*
                                    6226             =* Offsets in dsname work area for SHOW DSNAMES...
                                    6227             =SDSNQSZ  EQU   44                  Show dsnames bound area size
 000F64                             6228             =SDSNQLB  DS    CL(SDSNQSZ)         Show dsnames lower bound
 000F90                             6229             =SDSNQUB  DS    CL(SDSNQSZ)         Show dsnames upper bound
                                    6230             =SDSNDSZ  EQU   *-DSNWADSN          Lngth of sdsn wk area
                                    6231             =
 000FBC                00FBC 00F64  6232             =         ORG   DSNWADSN+DSSIZ      Define area for save
 000F64                             6233             =DSAVTITL DS    H                   Title length
 000F66                             6234             =DSAVTIT  DS    CL42                Title text
 000F90                             6235             =DSAVSPA  DS    F                   Byte size for new data set
 000F94                             6236             =DSAVCNT  DS    H                   Line count for new data set
 000F96                             6237             =DSAVBLK  DS    H                   Block count for edit save
                                    6238             =DSAVSIZ  EQU   *-DSNWADSN          Size of work area for save
                                    6239             =*
                                    6240             =* DSN work area extension for CATALOG
 000F98                00F98 00F64  6241             =         ORG   DSNWADSN+DSSIZ
 000F64                             6242             =DCATUNIT DS    F                   Unit type for CATALOG
                                    6243             =DCATSIZ  EQU   *-DSNWADSN
                                    6244             =*
                                    6245             =* DSN work area extension for RENAME
 000F68                00F68 00F64  6246             =         ORG   DSNWADSN+DSSIZ      Define area for RENAME
 000F64                             6247             =DRENDSN  DS    CL44                Newname
 000F90                             6248             =DRENMNAM DS    CL8                 Member name
 000F98                             6249             =DRENCTRC DS    F                   Newname catalog return code
 000F9C                             6250             =DRENDSNL DS    H                   Newname length
 000F9E 00                          6251             =DRENPROT FLAG  ,
 DRENPROT.DRENISP  10 ONES          6255             =         FLAG  (DRENISP,X'10')     Dataset password protected
 000F9F 00                          6264             =DRENCFLG FLAG  ,
 DRENCFLG.DRENTODN 80 ONES          6268             =         FLAG  DRENTODN            "TO" keyword found
 DRENCFLG.DRENUNC  40 ONES          6273             =         FLAG  DRENUNC             Old DSN uncat attempted
 DRENCFLG.DRENCATF 20 ONES          6278             =         FLAG  DRENCATF            New DSN cat failed
 DRENCFLG.DRENUNCF 10 ONES          6283             =         FLAG  DRENUNCF            Old DSN uncat failed
1DSECTS   CP:       User Control Page                                                                                       Page   66
0Current Usings:  (CP,R11) (CV,R12)
0D-Loc  Object Code    Addr1 Addr2  Stmt Lv Lineno    Source Statement           (Hibal 5, Asmedit 3.3)  HLASM R4.0  2004/03/15 12.43
+_____  ______ ____    _____ _____  ____ __ ______    ______ _________
0DRENCFLG.DRENMBR  08 ONES          6288             =         FLAG  DRENMBR             This is rename of pds member
 000FA0                             6293             =DREN1OR  DS    CL2                 Newname 1st level override
 000FA2                             6294             =DREN2OR  DS    CL3                 Newname 2nd level override
                                    6295             =DRENSIZ  EQU   *-DSNWADSN          Size of work area for rename
 000FA5                00FA5 00FBC  6296             =         ORG   ,
                                    6297             =
                                    6298             =CPZERO   EQU   CPLOCALZ,*-CPLOCALZ,C'X'  Fields zeroed at cmd start
                                    6299=            =   ¿þþþþþþþþþþþþþþþþþþþþþþþþþþþþþþþþþþþþþþþþþþþþþþþþþþþþþþÜ
                                    6300=            =   Ÿ  Stuff that we don't need direct addressability to.  Ÿ
                                    6301=            =   ¾þþþþþþþþþþþþþþþþþþþþþþþþþþþþþþþþþþþþþþþþþþþþþþþþþþþþþþ»
                                    6302             =CPUSED   EQU   *-CPSTART           Actual size of CP
 000FBC                             6303             =         DS    (4096-CPUSED)X      Slop space
                                    6304             =CPINITL  EQU   *-CPINIT,,C'N'
                                    6305             =
                                    6306             =CPXSIZE  EQU   *-CPSTART           Total CP size
1DSECTS   CP:       User Control Page                                                                                       Page   67
0Current Usings:  (CP,R11) (CV,R12)
0D-Loc  Object Code    Addr1 Addr2  Stmt Lv Lineno    Source Statement           (Hibal 5, Asmedit 3.3)  HLASM R4.0  2004/03/15 12.43
+_____  ______ ____    _____ _____  ____ __ ______    ______ _________
0                                   6308=            =   ¿þþþþþþþþþþþþþþþþþþþþþþþþþþþþþÜ
                                    6309=            =   Ÿ  Flags for DESPOT callers.  Ÿ
                                    6310=            =   ¾þþþþþþþþþþþþþþþþþþþþþþþþþþþþþ»
                                    6311             =DESRTRN  EQU   X'80'               Return from despot
                                    6312             =DESNRTN  EQU   X'00'               Call cmdprt from despot
                                    6313             =LEXATRTN EQU   X'40'               Use locateex
                                    6314             =LXCATRTN EQU   X'60'               Use lxcate
                                    6315             =LOCATRTN EQU   X'00'               Use locate
                                    6316             =UNPRST   EQU   X'01'               Return unpressed from despot
                                    6317             =PREST    EQU   X'00'               Return pressed from despot
                                    6318             =DESABORT EQU   X'04'               Attention can abort range
                                    6319             =
                                    6320             =FRNGTYP  EQU   X'C0'               Range type bits
                                    6321             =*              x'00'               single line number range n
                                    6322             =*              x'40'               count range n(m)
                                    6323             =*              x'c0'               normal two line range n/m
                                    6324             =*
                                    6325             =TALOCODE EQU   32                  Talo rc for ntgdopn routine
                                    6326             =ABRTCODE EQU   36                  Abort rc for ntgdopn routine
                                    6327             =
                                    6328             =ENTL     EQU   44                  Open reg save size used in DISK
1DSECTS   TTYPE:  Terminal Type Information                                                                                 Page   68
0Current Usings:  (CP,R11) (CV,R12)
0D-Loc  Object Code    Addr1 Addr2  Stmt Lv Lineno    Source Statement           (Hibal 5, Asmedit 3.3)  HLASM R4.0  2004/03/15 12.43
+_____  ______ ____    _____ _____  ____ __ ______    ______ _________
0001000                             6330              TTYPE    NAME
                                    6335
                                    6336                       COPY  TTYPE
                                    6337=            =¿þþþþþþþþþþþþþþþþþþþþþþþþþþþþþþþþþþþþþþþþþþþþþþþþþþþþþþþþþþþþþþþþþþþþþÜ
                                    6338=            =Ÿ                                                                     Ÿ
                                    6339=            =Ÿ  Terminal Type Information                                          Ÿ
                                    6340=            =Ÿ                                                                     Ÿ
                                                      ¾þþþþþþþþþþþþþþþþþþþþþþþþþþþþþþþþþþþþþþþþþþþþþþþþþþþþþþþþþþþþþþþþþþþþþ»
0000000                00000 0010C  6341             =TTYPE    RECORD BEGIN
 000000                             6349  1          =TTYLINK    DS    A                   Next TTYPE ptr
                                    6350  1          =
 000004 00                          6351  1          =TTYFLAG    FLAG
 TTYFLAG.TTYFREL   80 ONES          6355  1          =           FLAG  TTYFREL             - Release this entry
                                    6360  1          =
 000005 00                          6361  1          =TTYTFLAG   FLAG
 TTYTFLAG.TTYFMOD  80 ONES          6365  1          =           FLAG  TTYFMOD             - Supported as a Model terminal
 TTYTFLAG.TTYFSAM  40 ONES          6370  1          =           FLAG  TTYFSAM             - Supported as a Samson terminal
 TTYTFLAG.TTYFMARK 20 ONES          6375  1          =           FLAG  TTYFMARK            - Always display marked rendition
 TTYTFLAG.TTYFSCR  10 ONES          6380  1          =           FLAG  TTYFSCR             - Terminal supports scrolling
 TTYTFLAG.TTYFQSCR 08 ONES          6385  1          =           FLAG  TTYFQSCR            - Terminal supports quick scroll
 TTYTFLAG.TTYFVTAM 04 ONES          6390  1          =           FLAG  TTYFVTAM            - VTAM/3270 type of terminal
 TTYTFLAG.TTYFCOLO 02 ONES          6395  1          =           FLAG  TTYFCOLOR           - This is a color terminal
                                    6400  1          =
 000006                             6401  1          =TTYUSE     DS    H                   Use count
                                    6402  1          =
 000008                             6403  1          =TTYHEI     DS    H                   Terminal height (no. of lines)
 00000A                             6404  1          =TTYWID     DS    H                   Terminal width  (no. of columns)
 00000C                             6405  1          =TTYAWID    DS    H                   Alternate terminal width
                                    6406  1          =
 000010                             6407  1          =TTYINITQ   DS    A                   Initialization text queue ptr
                                    6408  1          =
                                    6409  1          =TTYMAX#    EQU   6
 000014                             6410  1          =TTYNAME    DS    (TTYMAX#)CL8        Terminal name (primary is first)
                                    6411  1          =
 000044                             6412  1          =TTYTCLS    DS    CL8                 Generic terminal class
                                    6413  1          =
 00004C                             6414  1          =TTYNORM    DS    CL8                 Normal text
 000054                             6415  1          =TTYBOLD    DS    CL8                 Bold text
 00005C                             6416  1          =TTYSTAT    DS    CL8                 Status line
 000064                             6417  1          =TTYPF      DS    CL8                 PF key line
 00006C                             6418  1          =TTYPFHI    DS    CL8                 Highlighted PF key
 000074                             6419  1          =TTYMSG     DS    CL8                 Message text
 00007C                             6420  1          =TTYERR     DS    CL8                 Error text
 000084                             6421  1          =TTYNEW     DS    CL8                 New lines
 00008C                             6422  1          =TTYMARK    DS    CL8                 Marked lines
 000094                             6423  1          =TTYLNORM   DS    CL8                 Normal lineno
 00009C                             6424  1          =TTYLCOL    DS    CL8                 Collect lineno
 0000A4                             6425  1          =TTYLDIM    DS    CL8                 Dim lineno
 0000AC                             6426  1          =TTYLMARK   DS    CL8                 Marked lineno
 0000B4                             6427  1          =TTYLNEW    DS    CL8                 New lineno
 0000BC                             6428  1          =TTYOPT     DS    CL8                 Option text
 0000C4                             6429  1          =TTYDIM     DS    CL8                 Dim text
 0000CC                             6430  1          =TTY####3   DS    CL8
1DSECTS   TTYPE:  Terminal Type Information                                                                                 Page   69
0Current Usings:  (CP,R11) (CV,R12)
0D-Loc  Object Code    Addr1 Addr2  Stmt Lv Lineno    Source Statement           (Hibal 5, Asmedit 3.3)  HLASM R4.0  2004/03/15 12.43
+_____  ______ ____    _____ _____  ____ __ ______    ______ _________
00000D4                             6431  1          =TTYCOL     DS    CL8                 Column line
 0000DC                             6432  1          =TTYCOLT    DS    CL8                 Column line/tab position
 0000E4                             6433  1          =TTYCOLM    DS    CL8                 Column line/text past margin
 0000EC                             6434  1          =TTY####4   DS    CL8
 0000F4                             6435  1          =TTYSPELL   DS    CL8                 Misspelled word
 0000FC                             6436  1          =TTYCMD     DS    CL8                 Command line
 000104                             6437  1          =TTYBACK    DS    CL8                 Backround rendition
 00010C                0010C 0010C  6438             =         END
1DSECTS   SDSNBUF/SCATBUF:  SHOW DSNAMES/CATLG Mapping                                                                      Page   70
0Current Usings:  (CP,R11) (CV,R12)
0D-Loc  Object Code    Addr1 Addr2  Stmt Lv Lineno    Source Statement           (Hibal 5, Asmedit 3.3)  HLASM R4.0  2004/03/15 12.43
+_____  ______ ____    _____ _____  ____ __ ______    ______ _________
0000000                00000 00044  6448              SDSNBUF  DSECT
 000000                             6449              SDSNBUF  NAME
                                    6454                       SDSNBUF
 000000                             6455    01-SDSNB +SBUF     DS    0D                  output buffer for show dsnames
 000000                             6456    01-SDSNB +SBDSN    DS    CL44                dsname
 00002C                             6457    01-SDSNB +SBCRDT   DS    CL3                 creation date
 00002F                             6458    01-SDSNB +SBEXDT   DS    CL3                 last access date
 000032                             6459    01-SDSNB +SBNOEX   DS    CL1                 no. of extents
 000033                             6460    01-SDSNB +SBDSORG  DS    CL2                 DSORG
 000035                             6461    01-SDSNB +SBDSIND  DS    X                   Data set indicators
                                    6462    01-SDSNB +SBWSB    EQU   X'02'               - File written since last backup
 000036                             6463    01-SDSNB +SBRECFM  DS    CL1                 recfm
 000037                             6464    01-SDSNB +SBKEYL   DS    CL1                 key length
 000038                             6465    01-SDSNB +SBLRECL  DS    H                   lrecl
 00003A                             6466    01-SDSNB +SBBLKSZ  DS    H                   blksize
 00003C                             6467    01-SDSNB +SBLB     DS    0H,CL5              last block - ttrll
 000041                             6468    01-SDSNB +SBACCTG  DS    CL1                 accounted for flag
 000042                             6469    01-SDSNB +SPTRK    DS    H                   tracks alloc
                                    6470             +
                                    6471    01-SDSNB +SBSZ     EQU   *-SBUF              ** must be halfword multiple **
                                    6472
 000044                             6473              SCATBUF  NAME
                                    6478                       SCATBUF
 000044                00044 00000  6479    01-SCATB +         ORG   SBUF
 000000                             6480    01-SCATB +SCBUF    DS    0D                  output buffer for show catalog
 000000                             6481    01-SCATB +SCBCODE  DS    CL1                 type entry code
 000001                             6482    01-SCATB +SCBNM    DS    CL8                 index level name
 000009                             6483    01-SCATB +SCBNM2   DS    0CL8                other name for alias entry
 000009                             6484    01-SCATB +SCBVOL   DS    CL6                 volume name
 00000F                             6485    01-SCATB +SCBDEVCD DS    CL4                 Device codes
                                    6486             +**** following two fields must remain in order ****
 000013                             6487    01-SCATB +SCBMAX   DS    CL1                 max gdg names
 000014                             6488    01-SCATB +SCBNVOLS DS    H                   number of vols or gdg entries
 000016                             6489    01-SCATB +SCBSEQNO DS    H                   ds sequence number
                                    6490    01-SCATB +SCBSZ    EQU   *-SCBUF             ** must be halfword multiple **
1DSECTS   SIB:      Session Information Block                                                                               Page   71
0Current Usings:  (CP,R11) (CV,R12)
0D-Loc  Object Code    Addr1 Addr2  Stmt Lv Lineno    Source Statement           (Hibal 5, Asmedit 3.3)  HLASM R4.0  2004/03/15 12.43
+_____  ______ ____    _____ _____  ____ __ ______    ______ _________
0000018                             6492              SIB      NAME
                                    6497
 000000                00000 000FE  6498                       RECORD 'SIB'
 000000                             6509  1 03-SIB   +SIBSTART   DS    0F
 000000                             6510  1 03-SIB   +SIBID      DS    F                   Unique session number
 000004                             6511  1 03-SIB   +SIBNO      DS    H                   Session number
 000006                             6512  1 03-SIB   +SIBTMINC   DS    H                   No. minutes session was idle
                                    6513  1 03-SIB   +SIBIHDR    EQU   SIBSTART,*-SIBSTART,C'X'
                                    6514  1          +
 000008                             6515  1 03-SIB   +SIBFE      DS    CL8                 Front-end name
                                    6516  1          +
 000010                             6517  1 03-SIB   +SIBPORT    DS    CL8                 Port name
 000018                             6518  1 03-SIB   +SIBPINFO   DS    CL20                Port information
 00002C                             6519  1 03-SIB   +SIBPLOC    DS    CL20                Port location
 000040 00                          6520  1          +*
 SIBFL.SIBFDIAL    80 ONES
 SIBFL.SIBFSUN     40 ONES
 SIBFL.SIBFDIR     20 ONES
 SIBFL.SIBFGAND    10 ONES
 SIBFL.SIBFDUMB    08 ONES
 000041 00                          6550  1          +*
 SIBFL2.SIBFLEAS   80 ONES
 SIBFL2.SIBFTEL    40 ONES
 SIBFL2.SIBFTYM    20 ONES
 SIBFL2.SIBFRLIN   10 ONES
 000042 00                          6575  1          +*
 SIBFL3.SIBFPS     80 ONES
 SIBFL3.SIBFPTID   40 ONES
 SIBFL3.SIBFOP     20 ONES
 000043 00                          6595  1          +*
 SIBFL4.SIBFSTOP   80 ONES
 SIBFL4.SIBFDET    40 ONES
 SIBFL4.SIBFDUM    20 ONES
 000044 00                          6615  1          +*
 SIBFL5.SIBFDOWN   80 ONES
 SIBFL5.SIBFHU     40 ONES
 SIBFL5.SIBFERR    20 ONES
                                    6635  1          +*
 000045                             6636  1 03-SIB   +           DS    X                   Reserved
                                    6637  1 03-SIB   +SIBPIB     EQU   SIBPORT,*-SIBPORT,C'X'
                                    6638  1          +
 000048 00                          6639  1 03-SIB   +SIB1ST     DS    0F
 SIBTYPE.SIBTCONS  01 EQ
 SIBTYPE.SIBTASYN  02 EQ
 SIBTYPE.SIBTPDP   03 EQ
 SIBTYPE.SIBTVTAM  04 EQ
 SIBTYPE.SIBTVIRT  05 EQ
 SIBTYPE.SIBTNSC   06 EQ
 SIBTYPE.SIBTELF   07 EQ
 SIBTYPE.SIBTALF   08 EQ
                                    6724  1          +
 000049                             6725  1 03-SIB   +SIBTINFO   DS    XL2                 Terminal info flags
 00004B 00                          6726  1          +*
 SIBSTAT.SIBFDSC   80 ONES
1DSECTS   SIB:      Session Information Block                                                                               Page   72
0Current Usings:  (CP,R11) (CV,R12)
0D-Loc  Object Code    Addr1 Addr2  Stmt Lv Lineno    Source Statement           (Hibal 5, Asmedit 3.3)  HLASM R4.0  2004/03/15 12.43
+_____  ______ ____    _____ _____  ____ __ ______    ______ _________
0SIBSTAT.SIBFLGF   40 ONES
 SIBSTAT.SIBFSOF   20 ONES
 SIBSTAT.SIBFKL    10 ONES
 SIBSTAT.SIBFTO    08 ONES
 SIBSTAT.SIBFMT    04 ONES
 SIBSTAT.SIBFKEPT  02 ONES
                                    6766  1          +*
 00004C                             6767  1 03-SIB   +SIBNMSG    DS    H                   No. of async msgs waiting
                                    6768  1          +
 00004E                             6769  1 03-SIB   +SIBTETYP   DS    C                   SMF port type
 00004F                             6770  1 03-SIB   +           DS    X                   Reserved (was line-speed)
                                    6771  1          +
 000050                             6772  1 03-SIB   +SIBSUB     DS    CL8                 Current subsystem
                                    6773  1          +
 000058                             6774  1 03-SIB   +           DS    0F
 000058                             6775  1 03-SIB   +SIBVPGM    DS    CL8                 ORVYL program
 000060                             6776  1 03-SIB   +SIBVCPU    DS    F                   ORVYL CPU time used
 000064                             6777  1 03-SIB   +SIBVFLAG   DS    X                   ORVYL flags
                                    6778  1 03-SIB   +SIBVFRUN   EQU   X'80'               - Program is running (not paused)
                                    6779  1 03-SIB   +SIBVFATH   EQU   X'40'               - Program is authorized
 000065                             6780  1 03-SIB   +SIBVDIO    DS    XL3                 ORVYL Disk I/O
                                    6781  1 03-SIB   +SIBVINFO   EQU   SIBVPGM,*-SIBVPGM,C'X'
                                    6782  1          +
 000068                             6783  1 03-SIB   +SIBLCLCK   DS    XL8                 Tod clock at logon
                                    6784  1          +
                                    6785  1 03-SIB   +SIBACCT    EQU   *,5,C'C'            Account (uuugg)
 000070                             6786  1 03-SIB   +SIBUSER    DS    CL3                 .uuu
 000073                             6787  1 03-SIB   +SIBGRP     DS    CL2                 .gg
 000075                             6788  1 03-SIB   +SIBANO     DS    XL2                 .number
 000077 00                          6789  1          +*
 SIBSFLG.SIBSFNAT  80 ONES
 SIBSFLG.SIBSFNAR  40 ONES
 SIBSFLG.SIBSFPS   20 ONES
 SIBSFLG.SIBSFOP   10 ONES
 SIBSFLG.SIBSFSEC  08 ONES
 SIBSFLG.SIBSFPRT  04 ONES
 000078 00                          6824  1          +*
 SIBTACF.SIBFNST   80 ONES
 SIBTACF.SIBFNTM   40 ONES
 SIBTACF.SIBRSVX20 20 ONES
 SIBTACF.SIBRSVX10 10 ONES
 SIBTACF.SIBRSVX08 08 ONES
 SIBTACF.SIBRSVX04 04 ONES
 SIBTACF.SIBFNDAY  02 ONES
 SIBTACF.SIBRSVX01 01 ONES
                                    6869  1          +*
 000079                             6870  1 03-SIB   +           DS    X                   Reserved
 00007A 00                          6871  1          +*
 SIBKIFL.SIBFIVAL  80 ONES
 SIBKIFL.SIBFAPR   40 ONES
 SIBKIFL.SIBFSPR   20 ONES
 SIBKIFL.SIBFOPR   10 ONES
 SIBKIFL.SIBFSBM   08 ONES
 SIBKIFL.SIBFSUB   04 ONES
1DSECTS   SIB:      Session Information Block                                                                               Page   73
0Current Usings:  (CP,R11) (CV,R12)
0D-Loc  Object Code    Addr1 Addr2  Stmt Lv Lineno    Source Statement           (Hibal 5, Asmedit 3.3)  HLASM R4.0  2004/03/15 12.43
+_____  ______ ____    _____ _____  ____ __ ______    ______ _________
0SIBKIFL.SIBFADM   02 ONES
 SIBKIFL.SIBFPC    01 ONES
 00007B 00                          6916  1          +*
 SIBKAFL.SIBFAVAL  80 ONES
 SIBKAFL.SIBFR1    40 ONES
 SIBKAFL.SIBFR2    20 ONES
 SIBKAFL.SIBFR3    10 ONES
 SIBKAFL.SIBFTOK   08 ONES
                                    6946  1          +*
 00007C                             6947  1 03-SIB   +SIBASCBP   DS    A                   ASCB addr, if virtual session
                                    6948  1 03-SIB   +SIBSESS    EQU   SIBACCT,*-SIBACCT,C'X'
                                    6949  1 03-SIB   +SIBINFO    EQU   SIBSTART,*-SIBSTART,C'X'
                                    6950  1          +***
                                    6951  1          +***  Fields below here can be modified by the user program.
                                    6952  1          +***
 000080                             6953  1 03-SIB   +SIBOPST    DS    0F
 000080                             6954  1 03-SIB   +SIBUC      DS    H                   Update count
 000082                             6955  1 03-SIB   +SIBNAME    DS    CL20                User name
 000096                             6956  1 03-SIB   +SIBTID     DS    CL8                 Terminal id
 00009E 00                          6957  1 03-SIB   +SIBTCLS    DS    CL8                 Terminal class
 SIBTFLAG.SIBFMOD  80 ONES
 SIBTFLAG.SIBFSAM  40 ONES
 SIBTFLAG.SIBFALTD 20 ONES
                                    6977  1          +
 0000A7                             6978  1 03-SIB   +           DS    XL1                 Reserved
 0000A8 00                          6979  1          +*
 SIBQFLG.SIBFVFAST 80 ONES
 0000A9 00                          6989  1          +*
 0000AA 00                          6994  1          +*
 SIBUFLG.SIBFNMSG  80 ONES
 SIBUFLG.SIBFNCOM  40 ONES
 SIBUFLG.SIBFNBRK  20 ONES
 SIBUFLG.SIBFNTIM  10 ONES
 SIBUFLG.SIBFCLN   08 ONES
 SIBUFLG.SIBFDISP  04 ONES
 SIBUFLG.SIBFPERM  02 ONES
 SIBUFLG.SIBFTRAN  01 ONES
 0000AB 00                          7039  1          +*
 SIBUFLG2.SIBFTRC  80 ONES
 SIBUFLG2.SIBFKEEP 40 ONES
                                    7054  1 03-SIB   +SIBG       EQU   SIBSTART,*-SIBSTART,C'X'
                                    7055  1          +***
                                    7056  1          +***  Information below this line is considered "private" and
                                    7057  1          +***    the user can only sense it for his own session.
                                    7058  1          +***
 0000AC                             7059  1 03-SIB   +SIBPROJ    DS    CL8                 Project-id
 0000B4 00                          7060  1          +*
 SIBFLG.SIBFUPL    80 ONES
 SIBFLG.SIBFBACK   40 ONES
 SIBFLG.SIBFFAST   20 ONES
 SIBFLG.SIBFRSV8   10 ONES
 SIBFLG.SIBFPSP    08 ONES
 SIBFLG.SIBFXON    04 ONES
 SIBFLG.SIBFFILT   02 ONES
1DSECTS   SIB:      Session Information Block                                                                               Page   74
0Current Usings:  (CP,R11) (CV,R12)
0D-Loc  Object Code    Addr1 Addr2  Stmt Lv Lineno    Source Statement           (Hibal 5, Asmedit 3.3)  HLASM R4.0  2004/03/15 12.43
+_____  ______ ____    _____ _____  ____ __ ______    ______ _________
0SIBFLG.SIBFNECH   01 ONES
 0000B5 00                          7105  1          +*
 SIBFLG2.SIBFSAMFO 80 ONES
 SIBFLG2.SIBFERA   40 ONES
 SIBFLG2.SIBFNTYP  20 ONES
                                    7125  1          +*
 0000B6                             7126  1 03-SIB   +SIBINMX    DS    H                   Maximum input length allowed
 0000B8                             7127  1 03-SIB   +SIBOUMX    DS    H                   Maximum output length allowed
 0000BA                             7128  1 03-SIB   +SIBCHAR    DS    CL8                 Terminal translate table name
 0000C2                             7129  1 03-SIB   +SIBTABS    DS    XL16                Tabs
 0000D2 00                          7130  1          +*
 SIBOFLAG.SIBFPAR  80 ONES
 SIBOFLAG.SIBFEVEN 40 ONES
 SIBOFLAG.SIBFODD  20 ONES
 SIBOFLAG.SIBFMARK 10 ONES
 SIBOFLAG.SIBFQUIE 08 ONES
 0000D3                             7160  1 03-SIB   +           DS    X                   Reserved
 0000D4                             7161  1 03-SIB   +SIBWID     DS    H                   Terminal width, actual
 0000D6                             7162  1 03-SIB   +SIBHEIP    DS    H                   Terminal height, before pausing
 0000D8                             7163  1 03-SIB   +SIBHEI     DS    H                   Terminal height, actual
                                    7164  1          +
 0000DA                             7165  1 03-SIB   +SIBTTYPE   DS    CL8                 Terminal type
 0000E2                             7166  1 03-SIB   +           DS    XL2                 Reserved
 0000E4                             7167  1 03-SIB   +SIBIPADR   DS    F                   IP address for TCP/IP sessions
 0000E8                             7168  1 03-SIB   +           DS    XL2                 Reserved
                                    7169  1          +
 0000EA                             7170  1 03-SIB   +SIBIDMAX   DS    H                   Max no. of idle minutes allowed
                                    7171  1          +
 0000EC                             7172  1 03-SIB   +SIBALTWID   DS   H                   Alternate width (0=none)
 0000EE                             7173  1 03-SIB   +SIBALTHEI   DS   H                   Alternate height (0=none)
                                    7174  1          +
 0000F0                             7175  1 03-SIB   +SIBCRI     DS    2H                  CR idles
 0000F4                             7176  1 03-SIB   +SIBLFI     DS    H                   LF idles
 0000F6                             7177  1 03-SIB   +SIBHTI     DS    2H                  HT idles
 0000FA                             7178  1 03-SIB   +SIBCAI     DS    H                   Cursor-address idles
 0000FC                             7179  1 03-SIB   +SIBCSI     DS    H                   Clear-screen idles
                                    7180  1 03-SIB   +SIBIDLE    EQU   SIBCRI,*-SIBCRI,C'X'
                                    7181  1          +
                                    7182  1 03-SIB   +SIBOPT     EQU   SIBOPST,*-SIBOPST,C'X'
                                    7183  1          +
                                    7184  1 03-SIB   +SIB1       EQU   SIB1ST,*-SIB1ST,C'X'
                                    7185  1          +
 0000FE                000FE 000FE  7186    03-SIB   +SIB      EQU   SIBSTART,*-SIBSTART,C'X'
1DSECTS   MIB:      MILTEN Information Block                                                                                Page   75
0Current Usings:  (CP,R11) (CV,R12)
0D-Loc  Object Code    Addr1 Addr2  Stmt Lv Lineno    Source Statement           (Hibal 5, Asmedit 3.3)  HLASM R4.0  2004/03/15 12.43
+_____  ______ ____    _____ _____  ____ __ ______    ______ _________
0000018                             7197              MIB      NAME
                                    7202
 000000                00000 000FC  7203                       RECORD 'MIB'
 000000                             7214  1 03-MIB   +MIBSTART   DS    0D
 000000 D4C9D3E3C5D54040            7215  1 03-MIB   +MIBNAME    DC    CL8'MILTEN'         name (MILTEN/TESTMIL)
 000008 0000000000000000            7216  1 03-MIB   +MIBJOBNM   DC    XL8'00'             jobname
 000010 0000000000000000            7217  1 03-MIB   +MIBVERS    DC    XL80'00'            version text
                                    7218  1          +
 000060 00000000                    7219  1 03-MIB   +MIBCLCK    DC    F'0'                clock at start
 000064 00                          7220  1          +*
 MIBFLAG.MIBFSTOP  80 ONES
 000065 00                          7230  1 03-MIB   +           DC    X'00'               reserved
                                    7231  1          +
 000066 0000                              1          +
 000068 00000000                    7232  1 03-MIB   +MIBNIO     DC    F'0'                no. of I/O's
 00006C 00000000                    7233  1 03-MIB   +MIBNAPP    DC    F'0'                no. of appendage entries
                                    7234  1          +
 000070 00000000                    7235  1 03-MIB   +MIBTLSES   DC    F'0'                total no. of sessions
 000074 0000                        7236  1 03-MIB   +MIBCRSES   DC    H'0'                current no. of logged on users
 000076 0000                        7237  1 03-MIB   +MIBMXSES   DC    H'0'                maximum no. of logged on users
 000078 00000000                    7238  1 03-MIB   +MIBCKSES   DC    F'0'                clock at max users
                                    7239  1          +
 00007C 0000                        7240  1 03-MIB   +MIBNHIOT   DC    H'0'                No. of HALTIO subtasks
 00007E 0000                        7241  1 03-MIB   +MIBNFULQ   DC    H'0'                no. of subsys full-queues
                                    7242  1          +
 000080 0000                        7243  1 03-MIB   +MIBHQCUR   DC    H'0'                Current HALTIO queue depth
 000082 0000                        7244  1 03-MIB   +MIBHQMAX   DC    H'0'                Maximum HALTIO queue depth
 000084 0000                        7245  1 03-MIB   +MIBHQDEV   DC    H'0'                Current HALTIO unit address
                                    7246  1          +
 000086 0000                        7247  1 03-MIB   +MIBCRVIR   DC    H'0'                current no. of virtual front-ends
                                    7248  1          +
 000088 0000                        7249  1 03-MIB   +MIBNFAIL   DC    H'0'                no. of failsofts
 00008A 0000                        7250  1 03-MIB   +MIBNAPPF   DC    H'0'                no. of appendage failsofts
 00008C 00000000                    7251  1 03-MIB   +MIBFCLCK   DC    F'0'                clock at failsoft
 000090 0000000000000000            7252  1 03-MIB   +MIBFINFO   DC    XL64'00'            failsoft text
                                    7253  1          +
 0000D0 00000000                    7254  1 03-MIB   +MIBNLOWM   DC    F'0'                no. of low memory conditions
 0000D4 00000000                    7255  1 03-MIB   +MIBNNOM    DC    F'0'                no. of no memory conditions
                                    7256  1          +
 0000D8 00000000                    7257  1 03-MIB   +MIBFXCNT   DC    F'0'                no. of getfix requests
 0000DC 00000000                    7258  1 03-MIB   +MIBFXCUR   DC    F'0'                current fixed core usage
 0000E0 00000000                    7259  1 03-MIB   +MIBFXMAX   DC    F'0'                maximum fixed core usage
                                    7260  1          +
 0000E4 00000000                    7261  1 03-MIB   +MIBPGCNT   DC    F'0'                no. of getcore requests
 0000E8 00000000                    7262  1 03-MIB   +MIBPGCUR   DC    F'0'                current paged core usage
 0000EC 00000000                    7263  1 03-MIB   +MIBPGMAX   DC    F'0'                maximum paged core usage
                                    7264  1          +
 0000F0 00000000                    7265  1 03-MIB   +MIBCSCNT   DC    F'0'                no. of CSA getmains
 0000F4 00000000                    7266  1 03-MIB   +MIBCSCUR   DC    F'0'                current CSA core usage
 0000F8 00000000                    7267  1 03-MIB   +MIBCSMAX   DC    F'0'                maximum CSA core usage
 0000FC                000FC 000FC  7268    03-MIB   +MIB      EQU   MIBSTART,*-MIBSTART,C'X'
1DSECTS   FSB:      Front-end Status Block                                                                                  Page   76
0Current Usings:  (CP,R11) (CV,R12)
0D-Loc  Object Code    Addr1 Addr2  Stmt Lv Lineno    Source Statement           (Hibal 5, Asmedit 3.3)  HLASM R4.0  2004/03/15 12.43
+_____  ______ ____    _____ _____  ____ __ ______    ______ _________
0000018                             7279              FSB      NAME
                                    7284
                                    7285                       COPY  FSB
                                    7286             =*
                                    7287             =**  Front-End Status Block
                                    7288             =*
 000000                00000 00090  7289             =FSB      RECORD BEGIN
 000000                             7297  1          =FSBID      DS    H                   Front-end identifier
                                    7298  1          =
 000002 00                          7299  1          =FSBTYPE    FLAG
 FSBTYPE.FSBTCONS  01 EQ            7303  1          =           FLAG  (FSBTCONS,1,EQ)     - Console
 FSBTYPE.FSBTASYN  02 EQ            7313  1          =           FLAG  (FSBTASYN,2,EQ)     - Async
 FSBTYPE.FSBTPDP   03 EQ            7323  1          =           FLAG  (FSBTPDP,3,EQ)      - Pdp
 FSBTYPE.FSBTVTAM  04 EQ            7333  1          =           FLAG  (FSBTVTAM,4,EQ)     - Vtam
 FSBTYPE.FSBTVIRT  05 EQ            7343  1          =           FLAG  (FSBTVIRT,5,EQ)     - Virtual
 FSBTYPE.FSBTNSC   06 EQ            7353  1          =           FLAG  (FSBTNSC,6,EQ)      - Nsc
 FSBTYPE.FSBTELF   07 EQ            7363  1          =           FLAG  (FSBTELF,7,EQ)      - Elf
 FSBTYPE.FSBTALF   08 EQ            7373  1          =           FLAG  (FSBTALF,8,EQ)      - Alf
 FSBTYPE.FSBTECU   09 EQ            7383  1          =           FLAG  (FSBTECU,9,EQ)      - ECU
 FSBTYPE.FSBTMAX   09 EQ            7393  1          =           FLAG  (FSBTMAX,9,EQ)
                                    7403  1          =
 000003                             7404  1          =           DS    X                   Reserved
                                    7405  1          =
 000004                             7406  1          =FSBFEBP    DS    A                   Address of FEB
                                    7407  1          =
 000008                             7408  1          =FSBUC      DS    H                   Update count
 00000A                             7409  1          =FSBTMLIM   DS    H                   Notime limit during PEAK times
                                    7410  1          =
 00000C                             7411  1          =FSBNAME    DS    CL8                 Front-end name
 000014                             7412  1          =FSBINFO    DS    CL12                Front-end info (text)
                                    7413  1          =
 000020                             7414  1          =FSBMCLCK   DS    XL8                 Clock when message was set
 000028                             7415  1          =FSBMSG     DS    CL64                Front-end message
                                    7416  1          =
 000068 00                          7417  1          =FSBPFLG    FLAG
 FSBPFLG.FSBFPS    80 ONES          7421  1          =           FLAG  FSBFPS              - "Pseudo" front-end
 FSBPFLG.FSBFLEAS  40 ONES          7426  1          =           FLAG  FSBFLEAS            - Front-end is leased
 FSBPFLG.FSBFRLIN  20 ONES          7431  1          =           FLAG  FSBFRLIN            - Front-end belongs to rlin
                                    7436  1          =
 000069 00                          7437  1          =FSBPFLG2   FLAG
 FSBPFLG2.FSBFCLS  80 ONES          7441  1          =           FLAG  FSBFCLS             - Closed
 FSBPFLG2.FSBFDET  40 ONES          7446  1          =           FLAG  FSBFDET             - Detached
 FSBPFLG2.FSBFDOWN 20 ONES          7451  1          =           FLAG  FSBFDOWN            - Status: down
                                    7456  1          =
 00006A                             7457  1          =FSBQMAX    DS    H                   Maximum I/O queue size
                                    7458  1          =
 00006C                             7459  1          =FSBPCUR    DS    H                   Current no. of ports
 00006E                             7460  1          =FSBPMAX    DS    H                   Max no. of ports
                                    7461  1          =
 000070                             7462  1          =FSBSCLCK   DS    XL8                 Clock at start
                                    7463  1          =
 000078                             7464  1          =FSBSCUR    DS    H                   Current no. of sessions
 00007A                             7465  1          =FSBSMAX    DS    H                   Max no. of sessions
 00007C                             7466  1          =FSBSMCLK   DS    XL8                 Clock at max
1DSECTS   FSB:      Front-end Status Block                                                                                  Page   77
0Current Usings:  (CP,R11) (CV,R12)
0D-Loc  Object Code    Addr1 Addr2  Stmt Lv Lineno    Source Statement           (Hibal 5, Asmedit 3.3)  HLASM R4.0  2004/03/15 12.43
+_____  ______ ____    _____ _____  ____ __ ______    ______ _________
0000084                             7467  1          =FSBNSES    DS    F                   Total no. of sessions
                                    7468  1          =
 000088                             7469  1          =FSBNIO     DS    F                   Total no. of I/O's
 00008C                             7470  1          =FSBNHWE    DS    F                   Total no. of hw errors
                                    7471  1          =FSBBASIC   EQU   FSBUC,*-FSBUC,C'X'  ******
 000090                00090 00090  7472             =         END
1DSECTS   FDB:      Front-end Dependent Block                                                                               Page   78
0Current Usings:  (CP,R11) (CV,R12)
0D-Loc  Object Code    Addr1 Addr2  Stmt Lv Lineno    Source Statement           (Hibal 5, Asmedit 3.3)  HLASM R4.0  2004/03/15 12.43
+_____  ______ ____    _____ _____  ____ __ ______    ______ _________
0000018                             7482              FDB      NAME
                                    7487
                                    7488                       COPY  FDB
                                    7489             =*
                                    7490             =**  FRONT-END DEPENDENT BLOCK
                                    7491             =*
-                                   7493             =***  DEVICE CONTROLS:
                                    7494             =FDBCSNSF EQU   1                   - SENSE FRONT-END INFO
                                    7495             =FDBCSNSP EQU   2                   - SENSE PORT INFO
                                    7496             =FDBCMAX  EQU   2
                                    7497             =
                                    7498             =FDBPSETF EQU   101                 - SET FRONT-END  (PRIV'D)
                                    7499             =FDBPSETP EQU   102                 - SET PORT       (PRIV'D)
                                    7500             =FDBPMAX  EQU   102
-000000                00000 00010  7502             =FDB      RECORD BEGIN
                                    7510  1          =***  FORMAT OF REQUEST TO MILTEN...
 000000                             7511  1          =FDBT       DS    0F
                                    7512  1          =
 000000                             7513  1          =FDBTFE     DS    H                   FRONT-END ID
 000002                             7514  1          =FDBTDNO    DS    X                   DEVICE CONTROL NUMBER
 000003                             7515  1          =           DS    X                   RESERVED
                                    7516  1          =FDBTDATA   EQU   *
                                    7517  1          =*
                                    7518  1          =*  CONTROL 1:   SENSE FRONT-END INFO
 000004                00004 00004  7519  1          =           ORG   FDBTDATA
                                    7520  1          =FDBT1      EQU   FDBT,*-FDBT,C'X'
                                    7521  1          =*
                                    7522  1          =*  CONTROL 2:   SENSE PORT INFO
 000004                00004 00004  7523  1          =           ORG   FDBTDATA
 000004                             7524  1          =FDBT2P     DS    H                   PORT NUMBER
                                    7525  1          =FDBT2      EQU   FDBT,*-FDBT,C'X'
                                    7526  1          =*
                                    7527  1          =*  CONTROL 101: SET FRONT-END
 000006                00006 00004  7528  1          =           ORG   FDBTDATA
 000004 00                          7529  1          =FDBT101F   FLAG
 FDBT101F.FDBTFSTR 80 ONES          7533  1          =           FLAG  FDBTFSTR            - START
 FDBT101F.FDBTFSTP 40 ONES          7538  1          =           FLAG  FDBTFSTP            - STOP
 FDBT101F.FDBTFOPN 20 ONES          7543  1          =           FLAG  FDBTFOPN            - OPEN
 FDBT101F.FDBTFCLS 10 ONES          7548  1          =           FLAG  FDBTFCLS            - CLOSE
                                    7553  1          =FDBT101    EQU   FDBT,*-FDBT,C'X'
                                    7554  1          =*
                                    7555  1          =*  CONTROL 102: SET PORT
 000005                00005 00004  7556  1          =           ORG   FDBTDATA
 000004                             7557  1          =FDBT102P   DS    H                   PORT NUMBER
                                    7558  1          =
 000006 00                          7559  1          =FDBT102F   FLAG
 FDBT102F.FDBTPSTR 80 ONES          7563  1          =           FLAG  FDBTPSTR            - START
 FDBT102F.FDBTPSTP 40 ONES          7568  1          =           FLAG  FDBTPSTP            - STOP
                                    7573  1          =FDBT102    EQU   FDBT,*-FDBT,C'X'
1DSECTS   FDB:      Front-end Dependent Block                                                                               Page   79
0Current Usings:  (CP,R11) (CV,R12)
0D-Loc  Object Code    Addr1 Addr2  Stmt Lv Lineno    Source Statement           (Hibal 5, Asmedit 3.3)  HLASM R4.0  2004/03/15 12.43
+_____  ______ ____    _____ _____  ____ __ ______    ______ _________
0                                   7575  1          =***  FORMAT OF REQUEST FROM MILTEN...
 000007                00007 00000  7576  1          =           ORG   FDBT
 000000                             7577  1          =FDBF       DS    0F
                                    7578  1          =*
                                    7579  1          =*  CONTROL 1:   SENSE FRONT-END INFO
 000000                00000 00000  7580  1          =           ORG   FDBF
 000000                             7581  1          =           DS    2F                  RESERVED
 000008                             7582  1          =FDBFFTNO   DS    H                   NUMBER OF TRACE ENTRIES
 00000A                             7583  1          =FDBFFLEN   DS    H                   LENGTH OF A TRACE ENTRY
 00000C                             7584  1          =FDBFFTRC   DS    0X                  START OF TRACE ENTRIES
                                    7585  1          =FDBF1      EQU   FDBF,*-FDBF,C'X'
                                    7586  1          =*
                                    7587  1          =*  CONTROL 2:   SENSE PORT INFO
 00000C                0000C 00000  7588  1          =           ORG   FDBF
 000000                             7589  1          =           DS    2F                  RESERVED
 000008                             7590  1          =FDBFPTAD   DS    X                   TEST ADDRESS
 000009                             7591  1          =FDBFPCMD   DS    X                   CURRENT COMMAND
 00000A                             7592  1          =           DS    XL2                 RESERVED
 00000C                             7593  1          =FDBFPTNO   DS    H                   NUMBER OF TRACE ENTRIES
 00000E                             7594  1          =FDBFPLEN   DS    H                   LENGTH OF A TRACE ENTRY
 000010                             7595  1          =FDBFPTRC   DS    0X                  START OF TRACE ENTRIES
                                    7596  1          =FDBF2      EQU   FDBF,*-FDBF,C'X'
                                    7597  1          =*
                                    7598  1          =*  CONTROL 101: SET FRONT-END  (PRIV'D)
 000010                00010 00000  7599  1          =           ORG   FDBF
                                    7600  1          =FDBF101    EQU   FDBF,*-FDBF,C'X'
                                    7601  1          =*
                                    7602  1          =*  CONTROL 102: SET PORT       (PRIV'D)
 000000                00000 00000  7603  1          =           ORG   FDBF
                                    7604  1          =FDBF102    EQU   FDBF,*-FDBF,C'X'
                                    7605  1          =
 000000                00000 00010  7606             =         END
1DSECTS   CONSTRC:  Console Trace Entry Format                                                                              Page   80
0Current Usings:  (CP,R11) (CV,R12)
0D-Loc  Object Code    Addr1 Addr2  Stmt Lv Lineno    Source Statement           (Hibal 5, Asmedit 3.3)  HLASM R4.0  2004/03/15 12.43
+_____  ______ ____    _____ _____  ____ __ ______    ______ _________
0000018                             7616              CONSTRC  NAME
                                    7621
                                    7622                       COPY  CONSTRC
                                    7623             =*
                                    7624             =**  CONSOLE TRACE FORMAT
                                    7625             =*
 000000                00000 00036  7626             =CTRC     RECORD BEGIN
 000000                             7634  1          =CTRCCLCK   DS    D                   STCK CLOCK
                                    7635  1          =*
                                    7636  1          =*  IF PIBTRC...
 000008                             7637  1          =CTRCPTYP   DS    C                   TRACE TYPE (T=TO, F=FROM)
 000009                             7638  1          =           DS    X                   RESERVED
                                    7639  1          =CTRCP      EQU   CTRCCLCK,*-CTRCCLCK,C'X'
                                    7640  1          =
 00000A                0000A 00008  7641  1          =           ORG   CTRCCLCK+8
 000008                             7642  1          =CTRCNAME   DS    CL8                 TRACE NAME
 000010                             7643  1          =CTRCPNO    DS    H                   PORT NUMBER
                                    7644  1          =CTRCDATA   EQU   *
                                    7645  1          =*
                                    7646  1          =*  IF CTRCNAME = 'CONS'...
 000012                00012 00012  7647  1          =           ORG   CTRCDATA
 000014                             7648  1          =CTRCSID    DS    F                   SESSION ID
 000018                             7649  1          =CTRCSACC   DS    CL5                 SESSION UUUGG
 00001D                             7650  1          =CTRCCMD    DS    X                   PDBCMD
 00001E                             7651  1          =CTRCCPL    DS    XL2                 PDBCPL  (CONSPOST ONLY)
 000020                             7652  1          =CTRCTLEN   DS    H                   PDBLENG
 000022                             7653  1          =CTRCTEXT   DS    CL20                PDBTEXT
 000036                00036 00036  7654             =         END
1DSECTS   ASYNTRC:  ASYNC Trace Entry Format                                                                                Page   81
0Current Usings:  (CP,R11) (CV,R12)
0D-Loc  Object Code    Addr1 Addr2  Stmt Lv Lineno    Source Statement           (Hibal 5, Asmedit 3.3)  HLASM R4.0  2004/03/15 12.43
+_____  ______ ____    _____ _____  ____ __ ______    ______ _________
0000018                             7664              ASYNTRC  NAME
                                    7669
                                    7670                       COPY  ASYNTRC
                                    7671             =*
                                    7672             =**  ASYNC Channel Commands
                                    7673             =*
                                    7674             =ACENBL   EQU   X'27'               enable
                                    7675             =ACDSBL   EQU   X'2F'               disable
                                    7676             =ACNOP    EQU   X'03'               nop
                                    7677             =ACPREP   EQU   X'06'               prepare
                                    7678             =ACWR     EQU   X'01'               write
                                    7679             =ACRD     EQU   X'0A'               read inhibit (no timeout)
                                    7680             =ACRDT    EQU   X'02'               read
                                    7681             =ACBRK    EQU   X'0D'               break (pttc only)
-                                   7683             =*
                                    7684             =**  ASYNC Trace Format
                                    7685             =*
 000000                00000 00036  7686             =ATRC     RECORD BEGIN
 000000                             7694  1          =ATRCCLCK   DS    D                   STCK clock
                                    7695  1          =*
                                    7696  1          =*  if PIBTRC...
 000008                             7697  1          =ATRCPCMD   DS    X                   I/O command
 000009                             7698  1          =ATRCPCSW   DS    XL2                 CSW status bytes
 00000B                             7699  1          =ATRCPSNS   DS    X                   sense byte
 00000C                             7700  1          =           DS    XL4                 reserved
                                    7701  1          =ATRCP      EQU   ATRCCLCK,*-ATRCCLCK,C'X'
                                    7702  1          =
 000010                00010 00008  7703  1          =           ORG   ATRCCLCK+8
 000008                             7704  1          =ATRCNAME   DS    CL8                 trace name
 000010                             7705  1          =ATRCUNIT   DS    CL3                 unit address
 000013                             7706  1          =           DS    X                   reserved
                                    7707  1          =ATRCDATA   EQU   *
                                    7708  1          =*
                                    7709  1          =*  If ATRCNAME = 'ASYN'...
 000014                00014 00014  7710  1          =           ORG   ATRCDATA
 000014                             7711  1          =ATRCSID    DS    F                   session id
 000018                             7712  1          =ATRCSACC   DS    CL5                 session uuugg
 00001D                             7713  1          =ATRCCMD    DS    X                   pdbcmd
 00001E                             7714  1          =ATRCCPL    DS    XL2                 pdbcpl (asynpost only)
 000020                             7715  1          =ATRCTLEN   DS    H                   pdbleng
 000022                             7716  1          =ATRCTEXT   DS    CL20                pdbtext
                                    7717  1          =*
                                    7718  1          =*  If ATRCNAME = 'IO'...
 000036                00036 00014  7719  1          =           ORG   ATRCDATA
 000014                             7720  1          =ATRCEIOH   DS    X                   IOHALT return code
 000018                             7721  1          =           DS    0F
 000018                             7722  1          =ATRCECCW   DS    XL(8*2)             CCWs
                                    7723  1          =*
                                    7724  1          =*  If TRCNAME = 'APP'...
 000028                00028 00014  7725  1          =           ORG   ATRCDATA
 000014                             7726  1          =ATRCATYP   DS    X                   appendage type
 000015                             7727  1          =ATRCACOD   DS    X                   appendage code
1DSECTS   ASYNTRC:  ASYNC Trace Entry Format                                                                                Page   82
0Current Usings:  (CP,R11) (CV,R12)
0D-Loc  Object Code    Addr1 Addr2  Stmt Lv Lineno    Source Statement           (Hibal 5, Asmedit 3.3)  HLASM R4.0  2004/03/15 12.43
+_____  ______ ____    _____ _____  ____ __ ______    ______ _________
0000018                             7728  1          =           DS    0F
 000018                             7729  1          =ATRCAOCC   DS    XL8                 old CCW
 000020                             7730  1          =ATRCANCC   DS    XL8                 new CCW
 000028                             7731  1          =ATRCACSW   DS    XL2                 CSW status bytes
 00002A                             7732  1          =ATRCASNS   DS    X                   sense byte
 00002C                             7733  1          =ATRCACPL   DS    H                   completion flags
 00002E                             7734  1          =ATRCARC    DS    H                   return code
 000030                00030 00036  7735             =         END
1DSECTS   PDPTRC:   PDP Trace Entry Format                                                                                  Page   83
0Current Usings:  (CP,R11) (CV,R12)
0D-Loc  Object Code    Addr1 Addr2  Stmt Lv Lineno    Source Statement           (Hibal 5, Asmedit 3.3)  HLASM R4.0  2004/03/15 12.43
+_____  ______ ____    _____ _____  ____ __ ______    ______ _________
0000018                             7745              PDPTRC   NAME
                                    7750
                                    7751                       COPY  PDPTRC
                                    7752             =*
                                    7753             =**  PDP CHANNEL AND LOCAL COMMANDS
                                    7754             =*
                                    7755             =PCRDHDR  EQU   X'22'               Read header
                                    7756             =PCWRHDR  EQU   X'21'               Write header
                                    7757             =PCWRTABS EQU   X'31'               Write tabs
                                    7758             =PCWRTEXT EQU   X'41'               Write text
                                    7759             =
                                    7760             =PENBL    EQU   0                   ENABLE
                                    7761             =PDSBL    EQU   1                   DISABLE
                                    7762             =PBRK     EQU   2                   BREAK
                                    7763             =PWR      EQU   3                   WRITE
                                    7764             =PRD      EQU   4                   READ
                                    7765             =PLOAD    EQU   5                   LOAD
                                    7766             =PDUMP    EQU   6                   DUMP
                                    7767             =PPOLL    EQU   7                   POLL
                                    7768             =PSNS     EQU   X'80'               SENSE TERMINAL INFO
-                                   7770             =*
                                    7771             =**  PDP TRACE FORMAT
                                    7772             =*
 000000                00000 0003A  7773             =PTRC     RECORD BEGIN
 000000                             7781  1          =PTRCCLCK   DS    D                   STCK CLOCK
                                    7782  1          =*
                                    7783  1          =*  IF PIBTRC...
                                    7784  1          =PTRCPTYP   EQU   PTRCCLCK+7,1,C'C'   TRACE TYPE (T=TO, F=FROM)
 000008                             7785  1          =PTRCPHDR   DS    XL8                 PDP HEADER
                                    7786  1          =PTRCP      EQU   PTRCCLCK,*-PTRCCLCK,C'X'
                                    7787  1          =
 000010                00010 00008  7788  1          =           ORG   PTRCCLCK+8
 000008                             7789  1          =PTRCNAME   DS    CL8                 TRACE NAME
 000010                             7790  1          =PTRCPNAM   DS    CL8                 PORT NAME
                                    7791  1          =PTRCDATA   EQU   *
                                    7792  1          =*
                                    7793  1          =*  IF PTRCNAME = 'PDP'...
 000018                00018 00018  7794  1          =           ORG   PTRCDATA
 000018                             7795  1          =PTRCSID    DS    F                   SESSION ID
 00001C                             7796  1          =PTRCSACC   DS    CL5                 SESSION UUUGG
 000021                             7797  1          =PTRCCMD    DS    X                   PDBCMD
 000022                             7798  1          =PTRCCPL    DS    XL2                 PDBCPL  (PDPPOST ONLY)
 000024                             7799  1          =PTRCTLEN   DS    H                   PDBLENG
 000026                             7800  1          =PTRCTEXT   DS    CL20                PDBTEXT
                                    7801  1          =*
                                    7802  1          =*  IF PTRCNAME = 'HDR'...
 00003A                0003A 00018  7803  1          =           ORG   PTRCDATA
 000018                             7804  1          =PTRCHSIO   DS    X                   SIO CC
 000019                             7805  1          =           DS    X                   RESERVED
 00001A                             7806  1          =PTRCHCSW   DS    XL2                 CSW STATUS
 00001C                             7807  1          =PTRCHDR    DS    XL8                 PDP HEADER
 000024                00024 0003A  7808             =         END
1DSECTS   VFTRACE - Trace Record for MILTEN VTAM/SNA FEB                                                                    Page   84
0Current Usings:  (CP,R11) (CV,R12)
0D-Loc  Object Code    Addr1 Addr2  Stmt Lv Lineno    Source Statement           (Hibal 5, Asmedit 3.3)  HLASM R4.0  2004/03/15 12.43
+_____  ______ ____    _____ _____  ____ __ ______    ______ _________
0000000                00000 00020  7818              VFTRACE  RECORD BEGIN
                                    7826  1                      COPY VFTRACE
                                    7827  1          =*        VFTRACE                   MILTEN TRACE RECORD FOR VTAM/SNA FEB
                                    7828  1          =*VFT     IDENT 0296                14:50:17 10/22/80 (RTS)
                                    7829  1          =*
 000000                             7830  1          =VFTSTRT    DS    0F                  START OF TRACE RECORD
 000000                             7831  1          =VFTCLCK    DS    D                   STCK CLOCK
 000008                             7832  1          =VFTNAME    DS    CL8                 NAME OF EVENT
 000010                             7833  1          =VFTTYPE    DS    X                   TYPE OF ENTRY
                                    7834  1          =VFTOPCLS   EQS   VFTTYPE,4           FOR OPEN ACB | CLOSE ACB
 VFTTYPE.VFTOPCLS  EQ               7835  1 01-EQS   +VFTOPCLS   EQU   VFTTYPE,4,24
                                    7837  1          =VFTLTL     EQS   VFTTYPE,8           FOR LOSTTERM | TPEND | LOGON | ERR
 VFTTYPE.VFTLTL    EQ               7838  1 01-EQS   +VFTLTL     EQU   VFTTYPE,8,24
                                    7840  1          =VFTLMODE   EQS   VFTTYPE,12          FOR LOGMODE
 VFTTYPE.VFTLMODE  EQ               7841  1 01-EQS   +VFTLMODE   EQU   VFTTYPE,12,24
                                    7843  1          =
 000011                             7844  1          =VFTVFLG1   DS    X                   FROM FEB AT ENTRY
 000012                             7845  1          =VFTFVLG2   DS    X                         "
-000014                             7847  1          =VFTTEXT    DS    0F                  VARIABLE TEXT
                                    7848  1          =*
                                    7849  1          =*VFTOPCLS                          FOR OPEN ACB | CLOSE ACB
 000014                00014 00014  7850  1          =           ORG   VFTTEXT
 000014                             7851  1          =VFTOFLGS   DS    X                   ACBOFLGS
 000015                             7852  1          =VFTERFLG   DS    X                   ACBERFLGS
                                    7853  1          =*
                                    7854  1          =*VFTLTL                            FOR LOSTTERM | TPEND | LOGON | ERR
 000016                00016 00014  7855  1          =           ORG   VFTTEXT
 000014                             7856  1          =VFTPORTN   DS    CL8                 PORT NAME
 00001C                             7857  1          =VFTCODE    DS    X                   REASON CODE
 000020                             7858  1          =           DS    0F                  ROUND TO FULL WORD
                                    7859  1          =*
                                    7860  1          =*VFTLMODE                          FOR LOGMODE
 000020                00020 00014  7861  1          =           ORG   VFTTEXT
 000014                             7862  1          =VFTRTNCD   DS    X                   RPLRTNCD
 000015                             7863  1          =VFTFDBK2   DS    X                   RPLFDB2
 000016                             7864  1          =VFTOPT11   DS    X                   RPLOPT11
                                    7865  1          =
                                    7866  1          =VFT#       EQU   20                  NUMBER OF TRACE ENTRIES
 000017                00017 00020  7867                       END
1DSECTS   VPTRACE - Trace Record for MILTEN VTAM/SNA PIB                                                                    Page   85
0Current Usings:  (CP,R11) (CV,R12)
0D-Loc  Object Code    Addr1 Addr2  Stmt Lv Lineno    Source Statement           (Hibal 5, Asmedit 3.3)  HLASM R4.0  2004/03/15 12.43
+_____  ______ ____    _____ _____  ____ __ ______    ______ _________
0000000                00000 00020  7877              VPTRACE  RECORD BEGIN
                                    7885  1                      COPY VPTRACE
                                    7886  1          =*        VPTRACE                   MILTEN TRACE RECORD FOR VTAM/SNA PIB
                                    7887  1          =*VPT     IDENT 0302                16:40:38 10/28/80 (RTS)
                                    7888  1          =*
 000000                             7889  1          =VPTSTRT    DS    0F                  START OF TRACE RECORD
 000000                             7890  1          =VPTCLCK    DS    D                   STCK CLOCK
 000008                             7891  1          =VPTNAME    DS    CL8                 NAME OF EVENT
                                    7892  1          =
 000010                             7893  1          =VPTREQ     DS    X                   RPL REQ
 000011                             7894  1          =VPTSRTYP   DS    X                   RPL SRTYP
 000012                             7895  1          =VPTRTNCD   DS    X                   RPL RTNCD
 000013                             7896  1          =VPTFDBK2   DS    X                   RPL FDBK2
 000014                             7897  1          =VPTRH3     DS    X                   RPL RH3
 000015                             7898  1          =VPTCHN     DS    X                   RPL CHN (CHAIN)
 000016                             7899  1          =VPTSNF     DS    H                   SNA SEQ NUMBER FIELD
 000018                             7900  1          =VPTSTATE   DS    X                   SOFTWARE STATE CODE
 000019                             7901  1          =VPTFLGS    DS    XL3                 FLAGS
 00001C                             7902  1          =VPTSENS    DS    XL4                 SENSE BYTES
                                    7903  1          =VPTSIGNL   EQU   VPTSENS,4,C'X'      SIGNAL DATA
                                    7904  1          =VPTEND     EQU   *                   END OF TRACE RECORD
                                    7905  1          =
                                    7906  1          =VPT#       EQU   10                  NUMBER OF TRACE ENTRIES
 000020                00020 00020  7907                       END
1DSECTS   VIRTTRC:  VIRT Trace Entry Format                                                                                 Page   86
0Current Usings:  (CP,R11) (CV,R12)
0D-Loc  Object Code    Addr1 Addr2  Stmt Lv Lineno    Source Statement           (Hibal 5, Asmedit 3.3)  HLASM R4.0  2004/03/15 12.43
+_____  ______ ____    _____ _____  ____ __ ______    ______ _________
0000018                             7917              VIRTTRC  NAME
                                    7922
                                    7923                       COPY  VIRTTRC
                                    7924             =*
                                    7925             =**  VIRTUAL TRACE FORMAT
                                    7926             =*
 000000                00000 00052  7927             =VTRC     RECORD BEGIN
 000000                             7935  1          =VTRCCLCK   DS    D                   STCK CLOCK
                                    7936  1          =*
                                    7937  1          =*  IF PIBTRC...
 000008                             7938  1          =VTRCPTYP   DS    C                   TRACE TYPE (T=TO, F=FROM)
 000009                             7939  1          =           DS    X                   RESERVED
 00000A                             7940  1          =VTRCPRQS   DS    XL24                RQST
                                    7941  1          =VTRCP      EQU   VTRCCLCK,*-VTRCCLCK,C'X'
                                    7942  1          =
 000022                00022 00008  7943  1          =           ORG   VTRCCLCK+8
 000008                             7944  1          =VTRCNAME   DS    CL8                 TRACE NAME
 000010                             7945  1          =VTRCPNO    DS    H                   PORT NUMBER
                                    7946  1          =VTRCDATA   EQU   *
                                    7947  1          =*
                                    7948  1          =*  IF VTRCNAME = 'VIRT'...
 000012                00012 00012  7949  1          =           ORG   VTRCDATA
 000014                             7950  1          =VTRCSID    DS    F                   SESSION ID
 000018                             7951  1          =VTRCSACC   DS    CL5                 SESSION UUUGG
 00001D                             7952  1          =VTRCCMD    DS    X                   PDBCMD
 00001E                             7953  1          =VTRCCPL    DS    XL2                 PDBCPL  (VIRTPOST ONLY)
 000020                             7954  1          =VTRCTLEN   DS    H                   PDBLENG
 000022                             7955  1          =VTRCTEXT   DS    CL20                PDBTEXT
                                    7956  1          =*
                                    7957  1          =*  IF VTRCNAME = 'RQST'...
 000036                00036 00012  7958  1          =           ORG   VTRCDATA
 000012                             7959  1          =VTRCRQST   DS    XL64                RQST
 000052                00052 00052  7960             =         END
1DSECTS   PSB:      Port Status Block                                                                                       Page   87
0Current Usings:  (CP,R11) (CV,R12)
0D-Loc  Object Code    Addr1 Addr2  Stmt Lv Lineno    Source Statement           (Hibal 5, Asmedit 3.3)  HLASM R4.0  2004/03/15 12.43
+_____  ______ ____    _____ _____  ____ __ ______    ______ _________
0000018                             7970              PSB      NAME
                                    7975
                                    7976                       COPY  PSB
                                    7977             =*
                                    7978             =**  Port Status Block
                                    7979             =*
 000000                00000 00074  7980             =PSB      RECORD BEGIN
 000000                             7988  1          =PSBFEID    DS    H                   Front-end identifier
 000002                             7989  1          =PSBPNO     DS    H                   Port number
                                    7990  1          =
 000004 00                          7991  1          =PSBTTYPE   FLAG  ,                   Terminal type (copy of FEBTYPE)
 PSBTTYPE.PSBTCONS 01 EQ            7995  1          =           FLAG  (PSBTCONS,1,EQ)     - Console
 PSBTTYPE.PSBTASYN 02 EQ            8005  1          =           FLAG  (PSBTASYN,2,EQ)     - Async
 PSBTTYPE.PSBTPDP  03 EQ            8015  1          =           FLAG  (PSBTPDP,3,EQ)      - Pdp
 PSBTTYPE.PSBTVTAM 04 EQ            8025  1          =           FLAG  (PSBTVTAM,4,EQ)     - Vtam
 PSBTTYPE.PSBTVIRT 05 EQ            8035  1          =           FLAG  (PSBTVIRT,5,EQ)     - Virtual
 PSBTTYPE.PSBTNSC  06 EQ            8045  1          =           FLAG  (PSBTNSC,6,EQ)      - Nsc
 PSBTTYPE.PSBTELF  07 EQ            8055  1          =           FLAG  (PSBTELF,7,EQ)      - Elf
 PSBTTYPE.PSBTALF  08 EQ            8065  1          =           FLAG  (PSBTALF,8,EQ)      - Alf
 PSBTTYPE.PSBTECU  09 EQ            8075  1          =           FLAG  (PSBTECU,9,EQ)      - ECU
 PSBTTYPE.PSBTMAX  09 EQ            8085  1          =           FLAG  (PSBTMAX,9,EQ)
                                    8095  1          =
 000005                             8096  1          =           DS    XL3                 Reserved
                                    8097  1          =
 000008                             8098  1          =PSBPIBP    DS    A                   Address of PIB
                                    8099  1          =
 00000C                             8100  1          =PSBFENM    DS    CL8                 Front-end name
                                    8101  1          =
 000014                             8102  1          =PSBUC      DS    H                   Update count
                                    8103  1          =
 000016                             8104  1          =           DS    XL2                 Reserved
                                    8105  1          =
 000018                             8106  1          =PSBNAME    DS    CL8                 Port name
 000020                             8107  1          =PSBINFO    DS    CL20                Port information
 000034                             8108  1          =PSBLOC     DS    CL20                Port location
                                    8109  1          =
 000048 00                          8110  1          =PSBFLAG    FLAG
 PSBFLAG.PSBFDIAL  80 ONES          8114  1          =           FLAG  PSBFDIAL            - Dial-up
 PSBFLAG.PSBFSUN   40 ONES          8119  1          =           FLAG  PSBFSUN             - SUNet
 PSBFLAG.PSBFDIR   20 ONES          8124  1          =           FLAG  PSBFDIR             - Direct
 PSBFLAG.PSBFGAND  10 ONES          8129  1          =           FLAG  PSBFGAND            - Gandalf
 PSBFLAG.PSBFDUMB  08 ONES          8134  1          =           FLAG  PSBFDUMB            - Dumb front-end
                                    8139  1          =
 000049 00                          8140  1          =PSBFLAG2   FLAG
 PSBFLAG2.PSBFLEAS 80 ONES          8144  1          =           FLAG  PSBFLEAS            - Teased
 PSBFLAG2.PSBFTEL  40 ONES          8149  1          =           FLAG  PSBFTEL             - Telenet
 PSBFLAG2.PSBFTYM  20 ONES          8154  1          =           FLAG  PSBFTYM             - Tymnet
 PSBFLAG2.PSBFRLIN 10 ONES          8159  1          =           FLAG  PSBFRLIN            - Rlin
                                    8164  1          =
 00004A 00                          8165  1          =PSBFLAG3   FLAG
 PSBFLAG3.PSBFPS   80 ONES          8169  1          =           FLAG  PSBFPS              - "Pseudo" port
 PSBFLAG3.PSBFPTID 40 ONES          8174  1          =           FLAG  PSBFPTID            - Terminal id is pre-assigned
 PSBFLAG3.PSBFOP   20 ONES          8179  1          =           FLAG  PSBFOP              - Operator
                                    8184  1          =
1DSECTS   PSB:      Port Status Block                                                                                       Page   88
0Current Usings:  (CP,R11) (CV,R12)
0D-Loc  Object Code    Addr1 Addr2  Stmt Lv Lineno    Source Statement           (Hibal 5, Asmedit 3.3)  HLASM R4.0  2004/03/15 12.43
+_____  ______ ____    _____ _____  ____ __ ______    ______ _________
000004B 00                          8185  1          =PSBFLAG4   FLAG
 PSBFLAG4.PSBFSTOP 80 ONES          8189  1          =           FLAG  PSBFSTOP            - Stopped
 PSBFLAG4.PSBFDET  40 ONES          8194  1          =           FLAG  PSBFDET             - Detached
 PSBFLAG4.PSBFDUM  20 ONES          8199  1          =           FLAG  PSBFDUM             - Dummy
                                    8204  1          =
 00004C 00                          8205  1          =PSBFLAG5   FLAG
 PSBFLAG5.PSBFDOWN 80 ONES          8209  1          =           FLAG  PSBFDOWN            - Status: down
 PSBFLAG5.PSBFHU   40 ONES          8214  1          =           FLAG  PSBFHU              - Status: hung-up
 PSBFLAG5.PSBFERR  20 ONES          8219  1          =           FLAG  PSBFERR             - Status: serious error occurred
                                    8224  1          =
 00004D                             8225  1          =           DS    X                   Reserved
                                    8226  1          =
 00004E                             8227  1          =PSBSCUR    DS    H                   Current no. of sessions
 000050                             8228  1          =PSBSMAX    DS    H                   Max no. of sessions
 000052                             8229  1          =PSBSMCLK   DS    XL8                 Clock at max
 00005C                             8230  1          =PSBNSES    DS    F                   Total no. of sessions
                                    8231  1          =
 000060                             8232  1          =PSBNIO     DS    F                   Total no. of I/O's
 000064                             8233  1          =PSBNHWE    DS    F                   Total no. of hw errors
                                    8234  1          =
 000068                             8235  1          =           DS    3F                  Reserved
                                    8236  1          =PSBBASIC   EQU   PSBUC,*-PSBUC,C'X'  ******
 000074                00074 00074  8237             =         END
1DSECTS   SSB:      Subsystem Status Block                                                                                  Page   89
0Current Usings:  (CP,R11) (CV,R12)
0D-Loc  Object Code    Addr1 Addr2  Stmt Lv Lineno    Source Statement           (Hibal 5, Asmedit 3.3)  HLASM R4.0  2004/03/15 12.43
+_____  ______ ____    _____ _____  ____ __ ______    ______ _________
0000018                             8247              SSB      NAME
                                    8252
                                    8253                       COPY  SSB
                                    8254             =*
                                    8255             =**  SUBSYSTEM STATUS BLOCK
                                    8256             =*
 000000                00000 00038  8257             =SSB      RECORD BEGIN
 000000                             8265  1          =SSBID      DS    H                   SUBSYSTEM IDENTIFIER
 000002                             8266  1          =           DS    H                   RESERVED
                                    8267  1          =
 000004                             8268  1          =SSBNAME    DS    CL8                 SUBSYSTEM NAME
 00000C                             8269  1          =SSBJOBNM   DS    CL8                 SUBSYSTEM JOBNAME
 000014 00                          8270  1          =SSBFLAG    FLAG
 SSBFLAG.SSBFPRIV  80 ONES          8274  1          =           FLAG  SSBFPRIV            - PRIV'D SUBSYSTEM
                                    8279  1          =
 000015                             8280  1          =           DS    XL3                 RESERVED
                                    8281  1          =
 000018                             8282  1          =SSBSCLCK   DS    XL8                 CLOCK AT START
                                    8283  1          =
 000020                             8284  1          =SSBMAX     DS    H                   MAXIMUM NO. OF SESSIONS
 000022                             8285  1          =SSBCUR     DS    H                   CURRENT NO. OF SESSIONS
                                    8286  1          =
 000024                             8287  1          =SSBNIO     DS    F                   TOTAL NO. OF I/O'S
 000028                             8288  1          =SSBNCNTL   DS    F                   TOTAL NO. OF CONTROLS
 00002C                             8289  1          =SSBNSES    DS    F                   TOTAL NO. OF SESSIONS
 000030                             8290  1          =           DS    2F                  RESERVED
                                    8291  1          =SSBBASIC   EQU   SSBNAME,*-SSBNAME,C'X'  ******
 000038                00038 00038  8292             =         END
1DSECTS   HCMRSC:   JES Command Resource                                                                                    Page   90
0Current Usings:  (CP,R11) (CV,R12)
0D-Loc  Object Code    Addr1 Addr2  Stmt Lv Lineno    Source Statement           (Hibal 5, Asmedit 3.3)  HLASM R4.0  2004/03/15 12.43
+_____  ______ ____    _____ _____  ____ __ ______    ______ _________
0000018                             8302              HCMRSC   NAME
                                    8307
 000000                00000 00000  8308              HCMRSCD  DSECT
 000000                00000 00068  8309                       HCMRSC
 000000 00000000                    8320  1 02-RSCHD +HCM@NEXT     DC    A(0)              next resource on queue
 000004 00000000                    8321  1 02-RSCHD +HCM@PREV     DC    A(0)              previous resource on queue
 000008 00000000                    8322  1 02-RSCHD +HCM@JCB      DC    A(0)              address of owning jcb
 00000C 00000000                    8323  1 02-RSCHD +HCM$ECB      DC    A(0)              resource ecb
 000010 00000000                    8324  1 02-RSCHD +HCM#USE      DC    A(0)              no. of uses of resource
 000014 00                          8325  1          +*
 HCMFLAGS.HCM1ACTV 80 ONES
 HCMFLAGS.HCM1@ECB 40 ONES
 HCMFLAGS.HCM1ASYN 20 ONES
 000018                             8345  1 02-RSCHD +           DS    0F
 000018                             8347  1 02-PATH  +HCMPATH    DC    0F'0'
 000018                             8348  1 02-PATH  +HCMP       DC    0F'0'
 000018 00000000                    8350  1 03-DEFIN +HCMPMGC    DC    AL4(0)
 00001C 00000000                    8352  1 03-DEFIN +HCMPDJNM   DC    AL4(0)
 000020 E2E4C2E2E8E2E3D4            8354  1 03-DEFIN +HCMPMY     DC    CL8'SUBSYSTM'
 000028 C8C1E2D7C3D6D5E2            8356  1 03-DEFIN +HCMPYOU    DC    CL8'HASPCONS'
 000030 A0                          8358  1 03-DEFIN +HCMPMFL    DC    AL1(1*X'80'+0*X'40'+1*X'20')
                                    8359  1          +
                                    8360  1 02-PATH  +HCMPVER2    EQU  X'80'         CALLER IS USING VERSION 2
                                    8361  1 02-PATH  +HCMPMCTL    EQU  X'40'         CALLER ASKS TERMINATION CONTROL
                                    8362  1 02-PATH  +HCMPMNAM    EQU  X'20'         CALLER PROVIDES CALLEE NAME
                                    8363  1 02-PATH  +HCMPMDP1    EQU  X'10'         DUPLICATE TAGS FOUND: MY=PCBO, YOU=PCBA
                                    8364  1 02-PATH  +HCMPMDP2    EQU  X'08'         DUPLICATE TAGS FOUND: MY=PCBA, YOU=PCBO
                                    8365  1          +
 000031 000000                      8367  1 03-DEFIN +HCMPOECB   DC    AL3(0)
 000034 00000000                    8369  1 03-DEFIN +HCMPBUF    DC    AL4(0)
 000038 00000051                    8371  1 03-DEFIN +HCMPECBF   DC    AL4(HCMSFLG)
                                    8372  1          +
                                    8373  1 02-PATH  +HCMPFCLS    EQU   X'80'         I AM POSTED BECAUSE HE CLOSED
                                    8374  1 02-PATH  +HCMPFFQE    EQU   X'40'         I AM POSTED BECAUSE HIS FULL Q EMPTIED
                                    8375  1 02-PATH  +HCMPFNI     EQU   X'20'         I AM POSTED BECAUSE NEW INFO IN MY Q
                                    8376  1 02-PATH  +HCMPFDP     EQU   X'10'         I AM POSTED AT HIS DISCRETION
                                    8377  1 02-PATH  +HCMPFOPN    EQU   X'08'         I AM POSTED BECAUSE HE OPENED
                                    8378  1 02-PATH  +HCMPFCLC    EQU   X'04'         I AM POSTED BECAUSE MY CLOSE IS COMPLETE
                                    8379  1          +
 00003C C8E7C3C9                    8381  1 03-DEFIN +HCMPPASS   DC    CL4'HXCI'
 000040 0000000C                    8383  1 03-DEFIN +HCMPECB    DC    AL4(HCM$ECB)
 000044 00000000                    8385  1 03-DEFIN +HCMPEXIT   DC    AL4(0)
 000048 00000000                    8387  1 03-DEFIN +HCMPPINP   DC    XL4'0'
 00004C 00000000                    8389  1 03-DEFIN +HCMPRESV   DC    XL4'0'
                                    8390  1          +*
                                    8391  1          +*  VERSION 2 RETURN CODES
                                    8392  1          +*
                                    8393  1 02-PATH  +HCMPROK     EQU  0                       COMPLETE OK
                                    8394  1 02-PATH  +HCMPRIFC    EQU  4                       INVALID FUNCTION CODE
                                    8395  1 02-PATH  +HCMPRPMW    EQU  8                       INVALID PATH MAGIC WORD
                                    8396  1 02-PATH  +HCMPRBAF    EQU  12                      PARTNER'S BUFFER AREA FULL
                                    8397  1 02-PATH  +HCMPRNOP    EQU  16                      PARTNER NOT THERE
                                    8398  1 02-PATH  +HCMPRBOM    EQU  20                      BUFFER OVER PARTNER'S MAXIMUM
                                    8399  1 02-PATH  +HCMPRIBS    EQU  24                      RECEIVE BUFFER TOO SMALL
1DSECTS   HCMRSC:   JES Command Resource                                                                                    Page   91
0Current Usings:  (CP,R11) (CV,R12)
0D-Loc  Object Code    Addr1 Addr2  Stmt Lv Lineno    Source Statement           (Hibal 5, Asmedit 3.3)  HLASM R4.0  2004/03/15 12.43
+_____  ______ ____    _____ _____  ____ __ ______    ______ _________
0                                   8400  1 02-PATH  +HCMPRBPI    EQU  28                      INVALID BUFFER POINTER
                                    8401  1 02-PATH  +HCMPRIAD    EQU  32                      INVALID ADDRESS
                                    8402  1 02-PATH  +HCMPRES1    EQU  36                      RESERVED
                                    8403  1 02-PATH  +HCMPRES2    EQU  40                      RESERVED
                                    8404  1 02-PATH  +HCMPRES3    EQU  44                      RESERVED
                                    8405  1 02-PATH  +HCMPRES4    EQU  48                      RESERVED
                                    8406  1          +
                                    8407  1 02-PATH  +HCMPSIZE    EQU  *-HCMP        LENGTH OF PATH BLOCK
 000050 00                          8408  1 01-HCMRS +HCMFLG     DC    X'00'               Local copy of Suzan flag
 000051 00                          8409  1 01-HCMRS +HCMSFLG    DC    X'00'               Flag for Suzan post info
 000052 00                          8410  1 01-HCMRS +           DC    X'00'               Zero for MVC mask
 000053 00                          8411  1          +*
 HCMWFLG.HCMFOPN   80 ONES
 HCMWFLG.HCMFPND   40 ONES
 HCMWFLG.HCMFSENT  20 ONES
                                    8431  1          +*
 000058                             8432  1 01-HCMRS +HCMPTRS    DS    0D
 000058                             8433  1 01-HCMRS +HCMLOC     DS    F          [Order]  Location of text in suzan buf
 00005C                             8434  1 01-HCMRS +HCMLEN     DS    F          [Order]  Length of text in suzan buf
 000060                             8435  1 01-HCMRS +HCMINDEX   DS    H                   Index into fetch buffer
                                    8436  1 01-HCMRS +HCMWA      EQU   HCMPTRS,*-HCMPTRS,C'X'
 000068                00068 00068  8437    01-HCMRS +         DS    0D
1DSECTS   JES2 Buffer Format                                                                                                Page   92
0Current Usings:  (CP,R11) (CV,R12)
0D-Loc  Object Code    Addr1 Addr2  Stmt Lv Lineno    Source Statement           (Hibal 5, Asmedit 3.3)  HLASM R4.0  2004/03/15 12.43
+_____  ______ ____    _____ _____  ____ __ ______    ______ _________
0000000                             8448              $LRC     NAME
 000000                             8453              LRC      NAME
                                    8458
                                    8459              $$LRC    CSECT ,  (this keeps "$lrc" macro happy)
 000000                00000 00000  8460    01-00032 +$$LRC  $$CSECT
 000000                00000 00000  8461    01-00033 +$$$D0$$LRC LOCTR
 000000                00000 00000  8462    01-00034 +$$LRC    LOCTR
                                    8463
                                    8464                      $LRC
1DSECTS   HASP LOGICAL RECORD (LRC) DSECT                                                                                   Page   93
0Current Usings:  (CP,R11) (CV,R12)
0D-Loc  Object Code    Addr1 Addr2  Stmt Lv Lineno    Source Statement           (Hibal 5, Asmedit 3.3)  HLASM R4.0  2004/03/15 12.43
+_____  ______ ____    _____ _____  ____ __ ______    ______ _________
0000000                00000 00006  8466    01-$LRC  +LRCDSECT DSECT                     HASP LOGICAL RECORD DSECT
 000000                             8467    01-$LRC  +LRCTLENG DS    X                   LENGTH OF TEXT
 000001                             8468    01-$LRC  +LRCFLAG1 DS    B                   RECORD CHARACTERISTICS
 000002                             8469    01-$LRC  +LRCSEGL  DS    0HL2                LENGTH OF TEXT IN THIS SEGMENT
 000002                             8470    01-$LRC  +LRCLRECL DS    X                   ORIGINAL RECORD LENGTH
 000003                             8471    01-$LRC  +LRCTEXT  DS    0XL254              START OF TEXT (NO CARRIAGE CONTROL)
 000003                             8472    01-$LRC  +LRCCCTL  DS    X                   CARRIAGE CONTROL BYTE (OPTIONAL)
 000004                             8473    01-$LRC  +LRCSOUT  DS    0XL254              START OF TEXT (CARRIAGE CONTROL)
 000004                             8474    01-$LRC  +LRCSTEXT DS    0XL32767            NORMAL SPANNED RECORD START OF TEXT
 000004                             8475    01-$LRC  +LRCSRECL DS    HL2                 SPANNED RECORD LOGICAL RECORD LENGTH
 000006                             8476    01-$LRC  +LRCSFTXT DS    0XL32767            FIRST SPANNED RECORD START OF TEXT
                                    8477    01-$LRC  +LRCBFEND EQU   255                 LRCTLENG FOR END OF HASP DATA BLOCK
 000000                00000 00000  8479    02-00037 +$$LRC  $$CSECT
-
-                                   8481             +*        LRCFLAG1                                                    XX
-
                                    8483    01-$LRC  +LRC1CCTL EQU   B'10000000'         LRCCCTL CONTAINS CARRIAGE CONTROL
                                    8484    01-$LRC  +LRC1CTYP EQU   B'01100000'         CARRIAGE CONTROL TYPE
                                    8485    01-$LRC  +LRC1SPAN EQU   B'00010000'         TEXT IS SEGMENT OF A SPANNED RECORD
                                    8486    01-$LRC  +LRC1STYP EQU   B'00001110'         SPANNED RECORD TYPE
                                    8487    01-$LRC  +LRC1RSV7 EQU   B'00000001'         RESERVED
-                                   8489             +*        IF LRC1CCTL = 1 --                                          XX
0                                   8491    01-$LRC  +LRC1TYP0 EQU   B'00000000'         RESERVED
                                    8492    01-$LRC  +LRC1TMCH EQU   B'00100000'         MACHINE CARRIAGE CONTROL
                                    8493    01-$LRC  +LRC1TASA EQU   B'01000000'         ASA CARRIAGE COTNROL
                                    8494    01-$LRC  +LRC1TYP3 EQU   B'01100000'         RESERVED
0                                   8496             +*        IF LRC1CCTL = 0 --                                          XX
0                                   8498    01-$LRC  +LRC1RSV1 EQU   B'01000000'         RESERVED
                                    8499    01-$LRC  +LRC1RSV2 EQU   B'00100000'         RESERVED
-                                   8501             +*        IF LRC1SPAN = 1 --                                          XX
0                                   8503    01-$LRC  +LRC1SBGN EQU   B'00001000'         BEGINNING SEGMENT
                                    8504    01-$LRC  +LRC1SMID EQU   B'00000100'         MIDDLE SEGMENT
                                    8505    01-$LRC  +LRC1SEND EQU   B'00000010'         ENDING SEGMENT
0                                   8507             +*        IF LRC1SPAN = 0 --                                          XX
0                                   8509    01-$LRC  +LRC1INUL EQU   B'00001000'         TREAT RECORD AS NULL ON INPUT
                                    8510    01-$LRC  +LRC1ONUL EQU   B'00000100'         TREAT RECORD AS NULL ON OUTPUT
                                    8511    01-$LRC  +LRC1RSV6 EQU   B'00000010'         RESERVED
1DSECTS   JCB:      Job Control Block                                                                                       Page   94
0Current Usings:  (CP,R11) (CV,R12)
0Loc    Object Code    Addr1 Addr2  Stmt Lv Lineno    Source Statement           (Hibal 5, Asmedit 3.3)  HLASM R4.0  2004/03/15 12.43
+___    ______ ____    _____ _____  ____ __ ______    ______ _________
0000000                             8513              JCB      NAME
                                    8518
 000000                00000 000D0  8519              JCB      DSECT
                                    8520                       COPY  JCB
 000000                             8521             =JCBSTART DS    0F
 000000 00000000                    8522             =JCBQF    DC    A(0)                Next JCB ptr
 000004 00000000                    8523             =JCBQB    DC    A(0)                Previous JCB ptr
                                    8524             =
 000008 00000000                    8525             =JCBDSPP  DC    A(0)                JCB ptr for next dispatched user
                                    8526             =
 00000C 00000000                    8527             =JCBTIMID DC    A(0)                Timer id (if a timer is active)
 000010 00000000                    8528             =JCBTIMQL DC    A(0)                Ptr to next JCB on timer queue
                                    8529             =
 000014                             8530             =JCBCPX   DS    A                   CP ptr
 000018                             8531             =JCBSTKL  DS    A                   Current actual stack length
 00001C                             8532             =JCBSTKX  DS    XL8                 Current stack length, location
 000024                             8533             =JCBHEAPL DS    A                   Current actual heap length
 000028                             8534             =JCBHEAPX DS    XL8                 Current heap length, location
                                    8535             =
 000030 0000                        8536             =JCBNPG   DC    H'0'                Current no. of pages for user
 000032 0000                        8537             =JCB#PIO  DC    H'0'                Number of active page I/O's
                                    8538             =
                                    8539             =JCBFMAX# EQU   5,,C'N'             Maximum number of failsofts
 000034 0000                        8540             =JCBFCNT  DC    H'0'                No. of failsofts
 000036 0000                        8541             =         DC    H'0'                Reserved
                                    8542             =
 000038                             8543             =JCBSINP  DS    A                   SIN ptr (in ECSA)
 00003C 00000000                    8544             =         DC    F'0'                Reserved
                                    8545             =
 000040                             8546             =JCBPTA   DS    A                   Page A's page table ptr (or zero)
 000044                             8547             =JCBPTB   DS    A                   Page B's page table ptr (or zero)
                                    8548             =
 000048                             8549             =JCBSEQ   DS    H                   Line number
 00004A                             8550             =JCBACCT  DS    0CL5                Account
 00004A                             8551             =JCBUSER  DS    CL3                 .user (uuu)
 00004D                             8552             =JCBGRP   DS    CL2                 .group (gg)
 00004F                             8553             =JCBANO   DS    XL2                 .number (nnn)
 000052                             8554             =JCBSUC   DS    H                   SIB update count
                                    8555             =
 000058                             8556             =JCBPDBXL DS    D                   PDB loc,len in Suzan buffer
                                    8557=            =         ¿þþþþþþþþþþþþþþþþþþþþþþþþþþþþþþþþþþþþþþþþþþÜ
                                    8558=            =         Ÿ  JCBWFL and JCBWWFL must stay together.  Ÿ
                                    8559=            =         ¾þþþþþþþþþþþþþþþþþþþþþþþþþþþþþþþþþþþþþþþþþþ»
 000060 00                          8560             =JCBWFL   FLAG  ,                   Wait flags
 JCBWFL.JCBWFSO    80 ONES          8564             =         FLAG  JCBWFSO             - Waiting for signon
 JCBWFL.JCBWFT     40 ONES          8569             =         FLAG  JCBWFT              - Waiting for terminal
 JCBWFL.JCBWFD     20 ONES          8574             =         FLAG  JCBWFD              - Waiting for disk/jes
 JCBWFL.JCBWFRSC   10 ONES          8579             =         FLAG  JCBWFRSC            - Resource wait
 JCBWFL.JCBWFDSP   08 ONES          8584             =         FLAG  JCBWFDSP            - Waiting for user dispatch
 JCBWFL.JCBWFECB   04 ONES          8589             =         FLAG  JCBWFECB            - Waiting for ecb
 JCBWFL.JCBWFTM    02 ONES          8594             =         FLAG  JCBWFTM             - Waiting for timer
 JCBWFL.JCBWFERR   01 ONES          8599             =         FLAG  JCBWFERR            - Suspended (by failsoft)
                                    8604             =
 000061 00                          8605             =JCBWWFL  FLAG  ,                   Weak wait flags
1DSECTS   JCB:      Job Control Block                                                                                       Page   95
0Current Usings:  (CP,R11) (CV,R12)
0Loc    Object Code    Addr1 Addr2  Stmt Lv Lineno    Source Statement           (Hibal 5, Asmedit 3.3)  HLASM R4.0  2004/03/15 12.43
+___    ______ ____    _____ _____  ____ __ ______    ______ _________
0JCBWWFL.JCBWWFJ   80 ONES          8609             =         FLAG  JCBWWFJ             - Waiting for JES
 JCBWWFL.JCBWWFPT  40 ONES          8614             =         FLAG  JCBWWFPT            - Waiting for user path
 JCBWWFL.JCBWWFECB 20 ONES          8619             =         FLAG  JCBWWFECB           - Waiting for ecb
 JCBWWFL.JCBWWFGEN 10 ONES          8624             =         FLAG  JCBWWFGEN           - General wait
                                    8629             =JCBWFSIZ EQU   *-JCBWFL            Size of wait flags
                                    8630             =
 000062 00                          8631             =JCBAFL   FLAG
 JCBAFL.JCBAFALO   80 ONES          8635             =         FLAG  JCBAFALO            - Auto logoff
 JCBAFL.JCBFNATN   40 ONES          8640             =         FLAG  JCBFNATN            - Don't allow ATTNs
 JCBAFL.JCBFARB    20 ONES          8645             =         FLAG  JCBFARB             - Attn can't break rsc wait
 JCBAFL.JCBAPDSP   10 ONES          8650             =         FLAG  JCBAPDSP            - Pending dispatch, no attn
 JCBAFL.JCBFPATN   08 ONES          8655             =         FLAG  JCBFPATN            - Pending ATTN occurred
 JCBAFL.JCBAFRUN   04 ONES          8660             =         FLAG  JCBAFRUN            - This user wants to run
 JCBAFL.JCBFATTN   02 ONES          8665             =         FLAG  JCBFATTN            - Attention received
 JCBAFL.JCBFTINT   01 ONES          8670             =         FLAG  JCBFTINT            - Terminal I/O interruptible
                                    8675             =
 000063 00                          8676             =JCBBFL   FLAG
 JCBBFL.JCBBFNR    80 ONES          8680             =         FLAG  JCBBFNR             - No recovery for this user
 JCBBFL.JCBBFSIB   40 ONES          8685             =         FLAG  JCBBFSIB            - SIB has changed
 JCBBFL.JCBBFPS    20 ONES          8690             =         FLAG  JCBBFPS             - Pseudo-session
 JCBBFL.JCBFWINT   10 ONES          8695             =         FLAG  JCBFWINT            - Timer is interruptible
 JCBBFL.JCBFTBRK   08 ONES          8700             =         FLAG  JCBFTBRK            - Send break when timer fires
 JCBBFL.JCBFATTNFR 04 ONES          8705             =         FLAG  JCBFATTNFREE        - Attn freed user from rsc wait
 JCBBFL.JCBFBILLED 02 ONES          8710             =         FLAG  JCBFBILLED          - Final billing record written
                                    8715             =
 000064 00                          8716             =JCBRSCF1 FLAG
 JCBRSCF1.JCBRIOWA 80 ONES          8720             =         FLAG  JCBRIOWA            - I/O work area
 JCBRSCF1.JCBRHSPS 40 ONES          8725             =         FLAG  JCBRHSPS            - Jes submit path
 JCBRSCF1.JCBRHSPI 20 ONES          8730             =         FLAG  JCBRHSPI            - Jes command path
                                    8735             =
 000065 00                          8736             =JCBSFLG1 FLAG
 JCBSFLG1.JCBSFV   80 ONES          8740             =         FLAG  JCBSFV              - Has issued a VIEW command
 JCBSFLG1.JCBSFMIC 40 ONES          8745             =         FLAG  JCBSFMIC            - Currently in MICRO mode
                                    8750             =
 000066 0000
 000068 0000000000000000            8751             =         DC    D'0'                Reserved
                                    8752=            =         ¿þþþþþþþþþþþþþþþþþþþþþþþþþÜ
                                    8753=            =         Ÿ  Charging information.  Ÿ
                                    8754=            =         ¾þþþþþþþþþþþþþþþþþþþþþþþþþ»
 000070 00000000                    8755             =JCBUCEP  DC    A(0)                Current UCE entry ptr
 000074 00000000                    8756             =JCBUCEQH DC    A(0)                UCE queue head ptr
 000078 00000000                    8757             =JCBUCEQT DC    A(0)                UCE queue tail ptr
                                    8758             =
 00007C 00000000                    8759             =JCBWCPU  DC    F'0'                Total CPU time used
 000080 00000000                    8760             =JCBWIO   DC    F'0'                Total disk I/O's
 000084 00000000                    8761             =         DC    F'0'                Reserved
                                    8762             =
 000088                             8763             =JCBBILLX DS    0D
 000088 0000000000000000            8764             =JCBIECLK DC    D'0'                STCK clock at last check
 000090 00000000                    8765             =JCBITIO  DC    F'0'                Terminal I/Os at last check
 000094 00000000                    8766             =JCBVICPU DC    F'0'                ORVYL cpu at last check
 000098 00000000                    8767             =JCBVIDIO DC    F'0'                ORVYL I/Os at last check
 00009C 00000000                    8768             =JCBTIOL  DC    F'0'                Terminal I/Os at last check
 0000A0 00000000                    8769             =JCBTOT$  DC    F'0'                Total charges reported at logoff
1DSECTS   JCB:      Job Control Block                                                                                       Page   96
0Current Usings:  (CP,R11) (CV,R12)
0Loc    Object Code    Addr1 Addr2  Stmt Lv Lineno    Source Statement           (Hibal 5, Asmedit 3.3)  HLASM R4.0  2004/03/15 12.43
+___    ______ ____    _____ _____  ____ __ ______    ______ _________
00000A4 00000000                    8770             =         DC    F'0'                Reserved
                                    8771             =JCBBILL  EQU   JCBBILLX,*-JCBBILLX,C'X'
                                    8772             =
 0000A8 00000000                    8773             =JCBCTP   DC    F'0'                Counter record area pointer
 0000AC 00000000                    8774             =         DC    F'0'                Reserved
                                    8775             =*
                                    8776             =* jcbtemp is a bit of mem below 16M, used by many, share with care
 0000B0 0000000000000000            8777             =JCBTEMP  DC    4F'0'               below 16M line temp memory
                                    8778             =
 0000C0 0000000000000000            8779             =         DC    XL16'00'            Reserved
                                    8780             =
 0000D0                             8781             =JCBNEXT  DS    0F
1DSECTS   SIN:      Session Information                                                                                     Page   97
0Current Usings:  (CP,R11) (CV,R12)
0D-Loc  Object Code    Addr1 Addr2  Stmt Lv Lineno    Source Statement           (Hibal 5, Asmedit 3.3)  HLASM R4.0  2004/03/15 12.43
+_____  ______ ____    _____ _____  ____ __ ______    ______ _________
00000D0                             8783              SIN      NAME
                                    8788
 000000                00000 000E0  8789              SIN      DSECT
                                    8790                       COPY  SIN
                                    8791=            =         ¿þþþþþþþþþþþþþþþþþþþþþþþÜ
                                    8792=            =         Ÿ  Session Information  Ÿ
                                    8793=            =         ¾þþþþþþþþþþþþþþþþþþþþþþþ»
 000000                             8794             =         DS    CL4'SIN'            Self identification
 000004                             8795             =SINLEN   DS    H                   Total SIN length
                                    8796             =
 000006                             8797             =SINNO    DS    H                   Session number
 000008                             8798             =SINID    DS    F                   Unique session number
                                    8799             =
 00000C                             8800             =SINSUB   DS    CL8                 Current subsystem
 000014                             8801             =SINLCLCK DS    XL8                 Tod clock at logon
 00001C                             8802             =SINTIO   DS    F                   Number of terminal I/O's
                                    8803             =
                                    8804             =SINACCT  EQU   *,5,C'C'            Account (uuugg)
 000020                             8805             =SINUSER  DS    CL3                 .uuu
 000023                             8806             =SINGRP   DS    CL2                 .gg
 000025                             8807             =SINANO   DS    XL2                 .number
                                    8808             =
 000027                             8809             =         DS    XL3                 Reserved
                                    8810             =
 00002A                             8811             =SINUID   DS    CL20                User id
 00003E                             8812             =SINNAME  DS    CL20                User name
 000052                             8813             =SINSTAG  DS    CL16                Unique session tag
 000062                             8814             =         DS    CL4
                                    8815             =
 000066                             8816             =SINFE    DS    CL8                 Front-end name
 00006E                             8817             =SINPORT  DS    CL8                 Port name
                                    8818             =
 000078                             8819             =         DS    8F                  Reserved
                                    8820=            =         ¿þþþþþþþþþþþþþþþþþþþþþþþþþþþþþþÜ
                                    8821=            =         Ÿ  ORVYL Session Information.  Ÿ
                                                               ¾þþþþþþþþþþþþþþþþþþþþþþþþþþþþþþ»
                                    8822             =*
 000098                             8823             =SINVPGM  DS    CL8                 ORVYL program
 0000A0                             8824             =SINVCPU  DS    F                   ORVYL CPU time used
 0000A4                             8825             =SINVFLAG DS    X                   ORVYL flags
                                    8826             =SINVFRUN EQU   X'80'               - Program is running (not paused)
                                    8827             =SINVFATH EQU   X'40'               - Program is authorized
 0000A5                             8828             =SINVDIO  DS    XL3                 ORVYL disk I/O's
                                    8829             =SINVINFO EQU   SINVPGM,*-SINVPGM,C'X'
                                    8830             =*  The following fields are maintained by MILTEN to keep track
                                    8831             =*  of CPU and I/Os used by a previous ORVYL.  To get the total
                                    8832             =*  CPU time used by a session add SINVCPU+SINVOCPU, same for I/Os.
 0000A8                             8833             =SINVOCPU DS    F                   Old ORVYL CPU time
 0000AC                             8834             =SINVODIO DS    F                   Old ORVYL disk I/O's
1DSECTS   SIN:      Session Information                                                                                     Page   98
0Current Usings:  (CP,R11) (CV,R12)
0D-Loc  Object Code    Addr1 Addr2  Stmt Lv Lineno    Source Statement           (Hibal 5, Asmedit 3.3)  HLASM R4.0  2004/03/15 12.43
+_____  ______ ____    _____ _____  ____ __ ______    ______ _________
0                                   8835=            =         ¿þþþþþþþþþþþþþþþþþþþþþþþþþþþþþþþÜ
                                    8836=            =         Ÿ  WYLBUR Session Information.  Ÿ
                                    8837=            =         ¾þþþþþþþþþþþþþþþþþþþþþþþþþþþþþþþ»
 0000B0                             8838             =SINWCPU  DS    F                   WYLBUR CPU time used
 0000B4                             8839             =SINWCMD  DS    F                   WYLBUR commands executed
 0000B8                             8840             =SINWDIO  DS    F                   WYLBUR disk I/O's
 0000BC                             8841             =         DS    3F                  Reserved
                                    8842=            =         ¿þþþþþþþþþþþþþþþþþþþþþþþþþþþþþþþþÜ
                                    8843=            =         Ÿ  TESTWYL Session Information.  Ÿ
                                    8844=            =         ¾þþþþþþþþþþþþþþþþþþþþþþþþþþþþþþþþ»
 0000C8                             8845             =SINTWCPU DS    F                   TESTWYL CPU time used
 0000CC                             8846             =SINTWCMD DS    F                   TESTWYL commands executed
 0000D0                             8847             =SINTWDIO DS    F                   TESTWYL disk I/O's
 0000D4                             8848             =         DS    3F                  Reserved
1DSECTS   KWRRSC:   Password File Resource                                                                                  Page   99
0Current Usings:  (CP,R11) (CV,R12)
0D-Loc  Object Code    Addr1 Addr2  Stmt Lv Lineno    Source Statement           (Hibal 5, Asmedit 3.3)  HLASM R4.0  2004/03/15 12.43
+_____  ______ ____    _____ _____  ____ __ ______    ______ _________
00000E0                             8850              KWRRSC   NAME
                                    8855
 000000                00000 00000  8856              KWRRSCD  DSECT
 000000                00000 0021C  8857                       KWRRSC
 000000                             8866  1 01-KWRRS +KWRFRST    DS    0F
 000000                             8867  1 01-KWRRS +KWRLAST    DS    0F
                                    8868  1          +
 000000 00000000                    8871  1 02-RSCHD +KIO@NEXT     DC    A(0)              next resource on queue
 000004 00000000                    8872  1 02-RSCHD +KIO@PREV     DC    A(0)              previous resource on queue
 000008 00000000                    8873  1 02-RSCHD +KIO@JCB      DC    A(0)              address of owning jcb
 00000C 00000000                    8874  1 02-RSCHD +KIO$ECB      DC    A(0)              resource ecb
 000010 00000000                    8875  1 02-RSCHD +KIO#USE      DC    A(0)              no. of uses of resource
 000014 00                          8876  1          +*
 KIOFLAGS.KIO1ACTV 80 ONES
 KIOFLAGS.KIO1@ECB 40 ONES
 KIOFLAGS.KIO1ASYN 20 ONES
 000018                             8896  1 02-RSCHD +           DS    0F
                                    8897  1          +
 000018 00                          8898  1 01-KWRRS +KWFL       DC    X'00'               flags
                                    8899  1 01-KWRRS +KWFU       EQU   X'80'               - kw file in use
                                    8900  1 01-KWRRS +KWFW       EQU   X'40'               - kw file wanted
                                    8901  1          +
 000019 000000                            1          +
 00001C 00000024                    8902  1 01-KWRRS +KWLIST     DC    A(KWR)              parm list for svc
                                    8903  1 01-KWRRS +KWOP       EQU   KWLIST+0            opcode is first byte of kwlist
                                    8904  1          +
 000020                             8905  1 01-KWRRS +KWKWRID    DS    F                   record id returned from kwio
                                    8906  1          +
 000024                             8907  1 01-KWRRS +KWRST      DS    0F
                                    8909  1          +*
                                    8910  1          +*       Keyword Record
                                    8911  1          +*
 000024                             8912  1 02-KWR   +KWRSTART     DS  0F
 000024 E4E4E4                      8913  1 02-KWR   +KWRUSER      DC  C'UUU'              User
 000027 C7C7                        8914  1 02-KWR   +KWRGRP       DC  C'GG'               Group
                                    8915  1 02-KWR   +KWRACCT      EQU KWRUSER,*-KWRUSER,C'X'
                                    8916  1          +
                                    8917  1 02-KWR   +KWRDSTRT     EQU *
 000029 000000                      8918  1 02-KWR   +             DC  XL3'00'             Reserved
 00002C 0000                        8919  1 02-KWR   +KWRRJE       DC  H'0'                No. of jobs run
 00002E 0000                        8920  1 02-KWR   +KWRSPUSD     DC  H'0'                Disk space used
 000030 FFFF                        8921  1 02-KWR   +KWRSPMAX     DC  H'-1'               Disk space allowed
                                    8922  1          +
 000032 80                          8923  1 02-KWR   +KWRIFL       DC  X'80'               Initials flags
                                    8924  1 02-KWR   +KWRIFVAL      EQU  X'80'             - Valid user
                                    8925  1 02-KWR   +KWRIFAPR      EQU  X'40'             - ACCT privs
                                    8926  1 02-KWR   +KWRIFSPR      EQU  X'20'             - SYS privs
                                    8927  1 02-KWR   +KWRIFOPR      EQU  X'10'             - OPR privs
                                    8928  1 02-KWR   +KWRIFSBM      EQU  X'08'             - SUBMIT priv
                                    8929  1 02-KWR   +KWRIFSUB      EQU  X'04'             - SUBADMIN privs
                                    8930  1 02-KWR   +KWRIFADM      EQU  X'02'             - ADMIN privs
                                    8931  1 02-KWR   +KWRIFPC       EQU  X'01'             - PC privs
                                    8932  1          +
 000033 98                          8933  1 02-KWR   +KWRAFL       DC  X'98'               Account flags
1DSECTS   KWRRSC:   Password File Resource                                                                                  Page  100
0Current Usings:  (CP,R11) (CV,R12)
0D-Loc  Object Code    Addr1 Addr2  Stmt Lv Lineno    Source Statement           (Hibal 5, Asmedit 3.3)  HLASM R4.0  2004/03/15 12.43
+_____  ______ ____    _____ _____  ____ __ ______    ______ _________
0                                   8934  1 02-KWR   +KWRAFVAL      EQU  X'80'             - Valid acct (off when SUSPENDED)
                                    8935  1 02-KWR   +KWRAFTOK      EQU  X'08'             - Terminal usage permitted
                                    8936  1 02-KWR   +KWRAFZSV      EQU  X'02'             - Test recovery flag (not used)
                                    8937  1 02-KWR   +KWRAFASV      EQU  X'01'             - Recovery done for last session
                                    8938  1          +
 000034 6F6F6F                      8939  1 02-KWR   +KWRBIN       DC  C'???'              Bin
 000037 00                          8940  1 02-KWR   +KWRWRCT      DC  X'00'               Record rewrite count
 000038 000000                      8941  1 02-KWR   +KWRBGT       DC  XL3'00'             Account budget
 00003B 000000                      8942  1 02-KWR   +KWRBAL       DC  XL3'00'             Account year-to-date balance
 00003E 0000                        8943  1 02-KWR   +KWRLCP       DC  H'0'                Punch card limit -- in hundreds
 000040 0000                        8944  1 02-KWR   +KWRLLC       DC  H'0'                Line count limit -- in thousands
 000042 0000                        8945  1 02-KWR   +KWRLET       DC  H'0'                Execution time limit in seconds
                                    8946  1          +
 000044 84                          8947  1 02-KWR   +KWRBFL       DC  X'84'               Batch flags
                                    8948  1 02-KWR   +KWRBFVAL     EQU X'80'               - Valid for batch
                                    8949  1 02-KWR   +KWRBFIN      EQU X'40'               - No input setups allowed
                                    8950  1 02-KWR   +KWRBFOUT     EQU X'20'               - No output setups allowed
                                    8951  1 02-KWR   +KWRBFNON     EQU X'10'               - No non-standard priority allowed
                                    8952  1 02-KWR   +KWRBFE       EQU X'08'               - Class E only
                                    8953  1 02-KWR   +KWRBFP       EQU X'04'               - Class P permitted
                                    8954  1          +
 000045 D3D6C3C1D3404040            8955  1 02-KWR   +KWRDEST      DC  CL8'LOCAL'          Destination for output data
 00004D 6F6F6F6F                    8956  1 02-KWR   +KWRFORM      DC  CL4'????'           Default forms code
 000051 0000000000000000            8957  1 02-KWR   +KWRORV       DC  XL8'00'             Default ORVYL name
                                    8958  1          +
 000059 80                          8959  1 02-KWR   +KWRMACC      DC  X'80'               Machine access flags
                                    8960  1 02-KWR   +KWRFSYSA     EQU X'80'               - SYSA access allowed
                                    8961  1 02-KWR   +KWRFSYSB     EQU X'40'               - SYSB access allowed
                                    8962  1 02-KWR   +KWRFSYSC     EQU X'20'               - SYSC access allowed
                                    8963  1 02-KWR   +KWRFSYSD     EQU X'10'               - SYSD access allowed
                                    8964  1 02-KWR   +KWRFSYSE     EQU X'08'               - SYSE access allowed
                                    8965  1 02-KWR   +KWRFSYSF     EQU X'04'               - SYSF access allowed
                                    8966  1 02-KWR   +KWRFSYSG     EQU X'02'               - SYSG access allowed
                                    8967  1          +
 00005A 00                          8968  1 02-KWR   +KWRSFL       DC  X'00'               Status flags
                                    8969  1 02-KWR   +KWRSFKEP     EQU X'80'               - Kept mail waiting
                                    8970  1 02-KWR   +KWRSFMAI     EQU X'40'               - New mail waiting
                                    8971  1 02-KWR   +KWRSFMLQ     EQU X'20'               - New mail in MAILQnnn files
                                    8972  1          +
 00005B 02                          8973  1 02-KWR   +KWRJFL       DC  X'02'               Job flags
                                    8974  1 02-KWR   +KWRJFNUM     EQU X'80'               - Numbered job submission
                                    8975  1 02-KWR   +KWRJFFOR     EQU X'40'               - Force user id as job prefix
                                    8976  1 02-KWR   +KWRJFHOL     EQU X'10'               - Hold printed output
                                    8977  1 02-KWR   +KWRJFNOT     EQU X'08'               - Notify user
                                    8978  1 02-KWR   +KWRJFATH     EQU X'07'               - Job auth, as follows...
                                    8979  1 02-KWR   +KWRJFPUB     EQU X'04'                  Auth=public
                                    8980  1 02-KWR   +KWRJFCOM     EQU X'02'                  Auth=community
                                    8981  1 02-KWR   +KWRJFGRP     EQU X'01'                  Auth=group
                                    8982  1          +
 00005C 4040404040404040            8983  1 02-KWR   +KWRJPFX      DC  CL8' '              Users job prefix
 000064 0000                        8984  1 02-KWR   +KWRJNO       DC  H'0'                Users job count
                                    8985  1          +
 000066 0000                        8986  1 02-KWR   +KWRHRSAL     DC  H'0'                Connect hrs allowed (hrs/10)
 000068 0000                        8987  1 02-KWR   +KWRACCH      DC  H'0'                Connect hrs accounted (hrs/10)
1DSECTS   KWRRSC:   Password File Resource                                                                                  Page  101
0Current Usings:  (CP,R11) (CV,R12)
0D-Loc  Object Code    Addr1 Addr2  Stmt Lv Lineno    Source Statement           (Hibal 5, Asmedit 3.3)  HLASM R4.0  2004/03/15 12.43
+_____  ______ ____    _____ _____  ____ __ ______    ______ _________
000006A 0000                        8988  1 02-KWR   +           DC    H'0'                Reserved
                                    8989  1          +
 00006C 20                          8990  1 02-KWR   +KWRTACF      DC  X'20'               Type/account class flags
                                    8991  1 02-KWR   +KWRTNST      EQU X'80'               - No logoff statistics
                                    8992  1 02-KWR   +KWRTNTM      EQU X'40'               - No session timeouts (NOTIME)
                                    8993  1 02-KWR   +KWRTNDAY     EQU X'02'               - No daytime access allowed
                                    8994  1          +
 00006D 3C                          8995  1 02-KWR   +KWRTFL       DC  X'3C'               Timesharing flags
                                    8996  1          +*              X'80'               - Reserved
                                    8997  1          +*              X'40'               - Reserved
                                    8998  1 02-KWR   +KWRTFAN      EQU X'20'               - Auto news at logon
                                    8999  1 02-KWR   +KWRTFAM      EQU X'10'               - Auto mail at logon
                                    9000  1 02-KWR   +KWRTFAR      EQU X'08'               - Auto recovery at logon
                                    9001  1 02-KWR   +KWRTFAE      EQU X'04'               - Auto exec at logon
                                    9002  1 02-KWR   +KWRTFAL      EQU X'02'               - Auto ltime at logon
                                    9003  1 02-KWR   +KWRTFAK      EQU X'01'               - Auto ktime at logon
                                    9004  1          +
 00006E 00F0                        9005  1 02-KWR   +KWRNTDEF     DC  H'240'              Default notime minutes (0=nolim)
 000070 0000                        9006  1 02-KWR   +KWRNTMAX     DC  H'0'                Maximum notime minutes (0=nolim)
 000072 00000000                    9007  1 02-KWR   +KWRPFORM     DC  XL4'00'             Default PRINT job forms
 000076 0000                        9008  1 02-KWR   +KWRR1      DC    H'0'                Reserved
 000078 0000                        9009  1 02-KWR   +KWRR3      DC    H'0'                Reserved
 00007A 00                          9010  1 02-KWR   +KWRR4      DC    X'0'                Reserved
                                    9011  1          +
 00007B 00                          9012  1 02-KWR   +KWROFL       DC  X'00'               Online flags
                                    9013  1 02-KWR   +KWRFMULT     EQU X'80'               - Multiple sessions allowed
                                    9014  1 02-KWR   +KWRFMAIL     EQU X'40'               - Mail is allowed
                                    9015  1 02-KWR   +KWRFSEC      EQU X'20'               - Secure session (EXEC SECURE)
                                    9016  1 02-KWR   +KWRFMNPR     EQU X'08'               - XMultiple: multiple w/o prompt
                                    9017  1 02-KWR   +KWRFNPAS     EQU X'04'               - No logon password needed
                                    9018  1          +
 00007C 00000000                    9019  1 02-KWR   +KWRLTIM      DC  XL4'00'             Last logoff time(high 32 clck bits)
 000080 00000000                    9020  1 02-KWR   +KWRKTIM      DC  XL4'00'             Last time keyword changed (" ")
                                    9021  1          +
 000084 00                          9022  1 02-KWR   +KWRAC        DC  X'00'               Accounting flags
                                    9023  1          +
 000085 40                          9024  1 02-KWR   +KWRSOF       DC  C' '                Source of funds code
 000086 40                          9025  1 02-KWR   +KWRAR        DC  C' '                Accounts receivable code (if SOF=2)
                                    9026  1          +
 000087 40                          9027  1 02-KWR   +KWRSTAT      DC  C' '                Account status code
                                    9028  1 02-KWR   +KWRSEXP      EQU C'1'                - Expired
                                    9029  1 02-KWR   +KWRSCLS      EQU C'2'                - Closed
                                    9030  1 02-KWR   +KWRSOVB      EQU C'3'                - Over-budget
                                    9031  1 02-KWR   +KWRSUHL      EQU C'4'                - User hold
                                    9032  1          +
 000088 10                          9033  1 02-KWR   +KWRTFL2      DC  X'10'               Timesharing flags  (second byte)
                                    9034  1 02-KWR   +KWRTFAPE     EQU X'80'               - Auto pubexec at logon
                                    9035  1 02-KWR   +KWRTFML      EQU X'40'               - Ok to receive mail
                                    9036  1 02-KWR   +KWRTFANE     EQU X'10'               - Auto newexec at logon
                                    9037  1 02-KWR   +KWRTFMNOATTN     EQU  X'08'          - Ignore SHOW MAIL attn (NOATTN)
                                    9038  1          +
 000089 00                          9039  1 02-KWR   +KWRPFL       DC  X'00'               Privilege flags
                                    9040  1 02-KWR   +KWRFPCHK     EQU X'80'               - PCHECK privs
                                    9041  1          +
1DSECTS   KWRRSC:   Password File Resource                                                                                  Page  102
0Current Usings:  (CP,R11) (CV,R12)
0D-Loc  Object Code    Addr1 Addr2  Stmt Lv Lineno    Source Statement           (Hibal 5, Asmedit 3.3)  HLASM R4.0  2004/03/15 12.43
+_____  ______ ____    _____ _____  ____ __ ______    ______ _________
000008A 0000                        9042  1 02-KWR   +KWRHRSFR     DC  H'0'                Free connect hrs to date (hrs/10)
 00008C 0000                        9043  1 02-KWR   +KWRHRSUS     DC  H'0'                Hours used to date (hrs/10)
 00008E FFFF                        9044  1 02-KWR   +KWRDSKMX     DC  H'-1'               Disk kilobytes allowed
 000090 00000000                    9045  1 02-KWR   +KWRDSKUS     DC  F'0'                Disk bytes used
                                    9046  1          +
 000094 0000000000000000            9047  1 02-KWR   +KWRPASS      DC  XL8'00'             Password
 00009C 0000000000000000            9048  1 02-KWR   +KWRNAME      DC  XL20'00'            User's name
 0000B0 000000000000                9049  1 02-KWR   +KWRVOL       DC  XL6'00'             User's permanent volume
 0000B6 0000000000000000            9050  1 02-KWR   +KWRSYS       DC  XL8'00'             User's initial subsystem (WYLBUR)
 0000BE 0000000000000000            9051  1 02-KWR   +KWRCOMM      DC  XL20'00'            Comment for accounting office
                                    9052  1          +
 0000D2 00                          9053  1 02-KWR   +KWRMPRIM     DC  X'00'               Primary machine
                                    9054  1          +***  Flag definitions are the same as with KWRMACC above.  ***
                                    9055  1          +*
 0000D3 00                          9056  1 02-KWR   +KWRXCNT      DC  X'00'               Unsuccessful logon attempt count
 0000D4 00000000                    9057  1 02-KWR   +KWRXTIM      DC  XL4'00'             Last unsuccessful logon time
                                    9058  1          +
 0000D8 00000000                    9059  1 02-KWR   +KWRNEWDT     DC  F'0'                Date news was last read
                                    9060  1          +
 0000DC 00000000                    9061  1 02-KWR   +KWRCDATE     DC  F'0'                Date of charges update
 0000E0 000000                      9062  1 02-KWR   +KWRMTD       DC  XL3'0'              Account month-to-date balance
 0000E3 000000                      9063  1 02-KWR   +KWRPBAL      DC  XL3'0'              Account previous ytd charges
                                    9064  1          +
 0000E6 0000000000000000            9065  1 02-KWR   +KWRMFOR      DC  XL64'00'            Mail forwarding address
 000126 0000000000000000            9066  1 02-KWR   +KWRMTXT      DC  XL80'00'            Mail information text
                                    9067  1          +
 000176 0000000000000000            9068  1 02-KWR   +KWRCMD       DC  XL80'00'            First command to execute
 0001C6 0000000000000000            9069  1 02-KWR   +KWRLPORT     DC  XL20'00'            Last logoff port name
                                    9070  1          +
 0001DA 00000000                    9071  1 02-KWR   +KWRCRDT      DC  XL4'00'             Account creation date
                                    9072  1          +
 0001DE 0000                        9073  1 02-KWR   +KWRRENCT     DC  XL2'00'             No. of ORVYL RENAMEs (not used)
                                    9074  1          +
 0001E0 C7E4C5E2E3404040            9075  1 02-KWR   +KWRNETU      DC  CL16'GUEST'         Network user id (zeros=disabled)
 0001F0 D3C9D5C4E8404040            9076  1 02-KWR   +KWRNETH      DC  CL32'LINDY'         Network host name
                                    9077  1          +
 000210 0000000000000000            9078  1 02-KWR   +KWRLOCAL     DC  XL8'00'             For non-Stanford use (ISU!)
                                    9079  1 02-KWR   +KWRDATA      EQU KWRDSTRT,*-KWRDSTRT,C'X'
                                    9080  1          +
                                    9081  1 02-KWR   +KWREND       EQU *                   End of physical record
                                    9082  1          +
 000218 00                          9083  1 02-KWR   +KWRHFL       DC  X'00'               Status flags
                                    9084  1 02-KWR   +KWRHFCK      EQU X'80'               - Keyword checking in effect
                                    9085  1 02-KWR   +KWRHFUOK     EQU X'40'         Update successful--cannot occur with
                                    9086  1          +*                            kwrhferr or kwrhfful.  if kwrhfuok,
                                    9087  1          +*                            err, and ful are all 0, the record has
                                    9088  1          +*                            been changed since it was read.
                                    9089  1 02-KWR   +KWRHFERR     EQU X'20'               - I/O error reading keyword file
                                    9090  1 02-KWR   +KWRHFFUL     EQU X'10'               - No room to add user
                                    9091  1          +
 00021C                             9092  1 02-KWR   +           DS    0F
                                    9093  1 02-KWR   +KWRSIZE      EQU *-KWRSTART
                                    9094  1          +*
                                    9095  1          +*  Operation codes.
1DSECTS   KWRRSC:   Password File Resource                                                                                  Page  103
0Current Usings:  (CP,R11) (CV,R12)
0D-Loc  Object Code    Addr1 Addr2  Stmt Lv Lineno    Source Statement           (Hibal 5, Asmedit 3.3)  HLASM R4.0  2004/03/15 12.43
+_____  ______ ____    _____ _____  ____ __ ______    ______ _________
0                                   9096  1          +*
                                    9097  1 02-KWR   +KWRCWR        EQU  X'80'             Write
                                    9098  1 02-KWR   +KWRCRD        EQU  X'40'             Read
                                    9099  1 02-KWR   +KWRCDIE       EQU  X'FF'             Shutdown keyword routines
 00021C                0021C 0021C  9100    01-KWRRS +KWR      EQU   KWRST,*-KWRST,C'X'
1DSECTS   SUBRSC:   JES Submit Resource                                                                                     Page  104
0Current Usings:  (CP,R11) (CV,R12)
0D-Loc  Object Code    Addr1 Addr2  Stmt Lv Lineno    Source Statement           (Hibal 5, Asmedit 3.3)  HLASM R4.0  2004/03/15 12.43
+_____  ______ ____    _____ _____  ____ __ ______    ______ _________
0000000                             9111              SUBRSC   NAME
                                    9116
 000000                00000 00000  9117              SUBRSCD  DSECT
 000000                00000 0411C  9118                       SUBRSC
 000000                             9129  1 03-LABEL +SUB        DS    0H
 000000 00000000                    9130  1 02-RSCHD +SUB@NEXT     DC    A(0)              next resource on queue
 000004 00000000                    9131  1 02-RSCHD +SUB@PREV     DC    A(0)              previous resource on queue
 000008 00000000                    9132  1 02-RSCHD +SUB@JCB      DC    A(0)              address of owning jcb
 00000C 00000000                    9133  1 02-RSCHD +SUB$ECB      DC    A(0)              resource ecb
 000010 00000000                    9134  1 02-RSCHD +SUB#USE      DC    A(0)              no. of uses of resource
 000014 00                          9135  1          +*
 SUBFLAGS.SUB1ACTV 80 ONES
 SUBFLAGS.SUB1@ECB 40 ONES
 SUBFLAGS.SUB1ASYN 20 ONES
 000018                             9155  1 02-RSCHD +           DS    0F
                                    9156  1          +
 000018 D1C5E2D9C4D94040            9157  1 01-SUBRS +SUBNAME    DC    CL8'JESRDR'
                                    9158  1          +
 000020 00000000                    9159  1 01-SUBRS +SUBTCB     DC    A(0)                Submit subtask TCB ptr
                                    9160  1          +
 000024 00000000                    9161  1 01-SUBRS +SUBTECB    DC    A(0)                Termination ECB
 000028 00000000                    9162  1 01-SUBRS +SUBWECB    DC    A(0)                Subtask's ECB
                                    9163  1          +
 00002C 00000000                    9164  1 01-SUBRS +SUBRADDR   DC    A(0)                Address of this resource
                                    9165  1          +*                                    used as attach param list
                                    9166  1          +*
 000030                             9167  1 01-SUBRS +SUBTEMP    DS    CL8                 Work cell
 000038 00                          9168  1          +*
 SUBFLAG.SUBFEOJ   80 ONES
                                    9178  1          +*
 000039 00                                1          +
 00003A 0000                        9179  1 01-SUBRS +SUBJBNO    DC    H'0'                Jobno of job just submitted
                                    9180  1          +
 00003C                             9191  1 03-ACBVS +SUBACB     DS    0F
 00003C A0                          9192  1 03-ACBVS +           DC    X'A0' .                  ACB IDENTIFICATION
 00003D 10                          9193  1 03-ACBVS +           DC    AL1(16)                  ACB SUBTYPE             X04SVHS
 00003E 004C                        9194  1 03-ACBVS +           DC    AL2(76+0)         .      ACB LENGTH             X03004HS
 000040 00000000                    9195  1 03-ACBVS +           DC    A(0) .                   AMB LIST POINTER
 000044 00000000                    9196  1 03-ACBVS +           DC    A(0) .                   INTERFACE ROUTINE POINTER
 000048 92                          9197  1 03-ACBVS +           DC    B'10010010'              MACRF(1)                X04SVHS
 000049 00                          9198  1 03-ACBVS +           DC    B'00000000'              MACRF(2)                X04SVHS
                                    9199  1          +*                                       FOR NUMERIC IN PARENS  @YA41534
 00004A 00                          9200  1 03-ACBVS +           DC    AL1(0)       .           NO OF CONCURRENT        X04SVHS
                                    9201  1          +*                                       STRINGS FOR AIX PATH    X04SVHS
                                    9202  1          +*                                       FOR NUMERIC IN PARENS  @YA41534
 00004B 01                          9203  1 03-ACBVS +           DC    AL1(1)      .            NUMBER OF STRINGS       X04SVHS
                                    9204  1          +*                                       FOR NUMERIC IN PARENS  @YA41534
 00004C 0001                        9205  1 03-ACBVS +           DC    AL2(1)      .            NUMBER OF DATA BUFFERS
                                    9206  1          +*                                       FOR NUMERIC IN PARENS  @YA41534
 00004E 0000                        9207  1 03-ACBVS +           DC    AL2(0)      .            NUMBER OF INDEX BUFFERS
 000050 00                          9208  1 03-ACBVS +           DC    B'00000000'              MACRF(3)                X04SVHS
                                    9209  1          +*                                       FOR NUMERIC IN PARENS  @YA41534
 000051 00                          9210  1 03-ACBVS +           DC    AL1(0)                   SHARED RESOURCE POOL ID    @L1C
 000052 0000                        9211  1 03-ACBVS +           DC    AL2(0) .                 JES BUFFER POOL/NUMBER  X04SVHS
1DSECTS   SUBRSC:   JES Submit Resource                                                                                     Page  105
0Current Usings:  (CP,R11) (CV,R12)
0D-Loc  Object Code    Addr1 Addr2  Stmt Lv Lineno    Source Statement           (Hibal 5, Asmedit 3.3)  HLASM R4.0  2004/03/15 12.43
+_____  ______ ____    _____ _____  ____ __ ______    ______ _________
0                                   9212  1          +*                                       OF JOURNAL BUFFERS
 000054 80                          9213  1 03-ACBVS +           DC    X'80' .                  RECFM=A
 000055 00                          9214  1 03-ACBVS +           DC    B'00000000'              READ INTEGRITY OPTIONS     @L2C
 000056 0008                        9215  1 03-ACBVS +           DC    X'0008' .                DSORG=ACB
 000058 00000000                    9216  1 03-ACBVS +           DC    A(0)                                             X04SVHS
 00005C 00000000                    9217  1 03-ACBVS +           DC    A(0)       .             PASSWORD POINTER
 000060 00000000                    9218  1 03-ACBVS +           DC    A(0)      .              EXIT LIST POINTER
 000064 D1C5E2D9C4D94040            9219  1 03-ACBVS +           DC    CL8'JESRDR'  .           DDNAME
 00006C 02                          9220  1 03-ACBVS +           DC    B'00000010'              OFLAGS                     @LPC
 00006D 00                          9221  1 03-ACBVS +           DC    AL1(0) .                 ERFLAGS
 00006E 00                          9222  1 03-ACBVS +           DC    B'00000000'              INFLGS(1)               X04SVHS
 00006F 00                          9223  1 03-ACBVS +           DC    B'00000000'              INFLGS(2)               X04SVHS
 000070 00000000                    9224  1 03-ACBVS +           DC    A(0)     .               OPENJ JFCB POINTER
 000074 00004000                    9225  1 03-ACBVS +           DC    A(16384)                 BUFFER SPACE
 000078 0000                        9226  1 03-ACBVS +           DC    AL2(0)        .          BLOCK SIZE
 00007A 0000                        9227  1 03-ACBVS +           DC    AL2(0)      .            RECORD SIZE
 00007C 00000000                    9228  1 03-ACBVS +           DC    A(0) .                   USER WORKAREA POINTER
 000080 00000000                    9229  1 03-ACBVS +           DC    A(0)                     CONTROL BLOCK MANIPULATION
                                    9230  1          +*                                       WORKAREA POINTER
 000084 00000000                    9231  1 03-ACBVS +           DC    A(0) .                   PTR TO APPLICATION NAME  X03004
                                    9232  1          +
 000088                             9235  1 03-RPLVS +SUBRPL     DS    0F
 000088 00                          9236  1 03-RPLVS +           DC    AL1(0)                   RPL IDENTIFICATION
 000089 10                          9237  1 03-RPLVS +           DC    AL1(16)                  RPL SUBTYPE             X04SVHS
 00008A 00                          9238  1 03-RPLVS +           DC    AL1(0)                   RPL REQUEST TYPE
 00008B 4C                          9239  1 03-RPLVS +           DC    AL1(76)                  RPL LENGTH               X03004
 00008C 00000000                    9265  1 03-RPLVS +           DC    A(0) .                   POINTER TO PLACEHOLDER
 000090 00000000                    9266  1 03-RPLVS +           DC    A(0) .                   ECB
 000094 00                          9267  1 03-RPLVS +           DC    BL1'0' .                 STATUS BYTE
 000095 000000                      9268  1 03-RPLVS +           DC    XL3'0'                   FEEDBACK CODES
 000098 0000                        9269  1 03-RPLVS +           DC    AL2(0)       .           KEY LENGTH
 00009A 0000                        9270  1 03-RPLVS +           DC    AL2(0)        .          TRANSID                    @LAC
 00009C 00000000                    9271  1 03-RPLVS +           DC    A(0)                     POINTER TO CONTROL CHARACTER
 0000A0 0000003C                    9272  1 03-RPLVSC+           DC    A(SUBACB)
                                          1          +                         .                POINTER TO ACB
 0000A4 00000000                    9273  1 03-RPLVS +           DC    A(0) .                   POINTER TO TCB
 0000A8 00000000                    9274  1 03-RPLVS +           DC    A(0)     .               POINTER TO RECORD AREA
 0000AC 00000000                    9275  1 03-RPLVS +           DC    A(0)    .                POINTER TO ARGUMENT
 0000B0 20                          9276  1 03-RPLVS +           DC    B'00100000'     .        OPTCD BYTE 1
 0000B1 80                          9277  1 03-RPLVSC+           DC    B'10000000'
                                          1          +                            .            OPTCD BYTE 2
 0000B2 00                          9278  1 03-RPLVS +           DC    B'00000000'              OPTCD BYTE 3               @LAC
 0000B3 00                          9279  1 03-RPLVS +           DC    B'00000000'              OPTCD BYTE 4               @EAC
 0000B4 00000000                    9280  1 03-RPLVS +           DC    A(0)       .             POINTER TO NEXT RPL
 0000B8 00000000                    9281  1 03-RPLVS +           DC    A(0) .                   RESERVED FOR LOGICAL REC LEN
 0000BC 00004000                    9282  1 03-RPLVS +           DC    A(16384)    .            BUFFER LENGTH
                                    9283  1          +*                                       OPTCD BYTES 5-8          X03004
 0000C0 00                          9284  1 03-RPLVSC+           DC    B'00000000'
                                          1          +                            .            BYTE 5                  X04SVHS
 0000C1 00                          9285  1 03-RPLVSC+           DC    B'00000000'
                                          1          +                            .            BYTE 6                  X04SVHS
 0000C2 00                          9286  1 03-RPLVSC+           DC    B'00000000'
                                          1          +                            .            BYTE 7                  X04SVHS
 0000C3 00                          9287  1 03-RPLVSC+           DC    B'00000000'
1DSECTS   SUBRSC:   JES Submit Resource                                                                                     Page  106
0Current Usings:  (CP,R11) (CV,R12)
0D-Loc  Object Code    Addr1 Addr2  Stmt Lv Lineno    Source Statement           (Hibal 5, Asmedit 3.3)  HLASM R4.0  2004/03/15 12.43
+_____  ______ ____    _____ _____  ____ __ ______    ______ _________
0                                         1          +                            .            BYTE 8                  X04SVHS
 0000C4 0000000000000000            9288  1 03-RPLVS +           DC    XL8'0' .                 RBA
 0000CC 40                          9289  1 03-RPLVS +           DC    B'01000000'                                     @G40AKSL
 0000CD 00                          9290  1 03-RPLVS +           DC    AL1(0)                   ACTIVE INDICATOR
 0000CE 0000                        9291  1 03-RPLVS +           DC    AL2(0)       .           MAXIMUM ERROR MSG LENGTH
 0000D0 00000000                    9292  1 03-RPLVS +           DC    A(0) .                   RESERVED FOR MESSAGE AREA PTR
                                    9293  1          +
 0000D4 000000DC                    9335  1 03-IDACB +SUBTSCBL   DC    A(*+8)                  ADDRESS OF HEADER
 0000D8 800000EC                    9336  1 03-IDACB +           DC    A(SUBTSCBL+24+X'80000000')   ADDRESS OF LAST ELEMENT
 0000DC A0                          9337  1 03-IDACB +           DC    AL1(160)                BLOCK TYPE CODE
 0000DD 04                          9338  1 03-IDACB +           DC    AL1(4)                  FUNCTION TYPE CODE
 0000DE 0000                        9339  1 03-IDACB +           DC    AL2(0)                   HEADER FIELD VALUE
 0000E0 0000003C                    9340  1 03-IDACB +           DC    AL4(SUBACB)                  HEADER FIELD VALUE
 0000E4 00000000                    9341  1 03-IDACB +           DC    AL4(0)                   HEADER FIELD VALUE
 0000E8 00000000                    9342  1 03-IDACB +           DC    AL4(0)                   HEADER FIELD VALUE
 0000EC 001D                        9343  1 03-IDACB +           DC    AL2(29)                    ELEMENT ID
 0000EE 0000                        9344  1 03-IDACB +           DC    AL2(0)                  RESERVED                    @LQC
 0000F0 80000000                    9345  1 03-IDACBC+           DC    B'10000000000000000000000000000000'
                                          1          +                                         ELEMENT VALUE
 0000F4 00000100                    9379  1 03-IDACB +SUBMDCBL   DC    A(*+12)                 ADDRESS OF HEADER
 0000F8 00000108                    9380  1 03-IDACB +           DC    A(SUBMDCBL+20)          ELEMENT ADDRESS
 0000FC 80000110                    9381  1 03-IDACB +           DC    A(SUBMDCBL+28+X'80000000')   ADDRESS OF LAST ELEMENT
 000100 C0                          9382  1 03-IDACB +           DC    AL1(192)                BLOCK TYPE CODE
 000101 02                          9383  1 03-IDACB +           DC    AL1(2)                  FUNCTION TYPE CODE
 000102 0000                        9384  1 03-IDACB +           DC    AL2(0)                   HEADER FIELD VALUE
 000104 00000088                    9385  1 03-IDACB +           DC    AL4(SUBRPL)                  HEADER FIELD VALUE
 000108 002C                        9386  1 03-IDACB +           DC    AL2(44)                    ELEMENT ID
 00010A 0000                        9387  1 03-IDACB +           DC    AL2(0)                  RESERVED                    @LQC
 00010C 00000000                    9388  1 03-IDACB +           DC    A(0)                    ELEMENT VALUE
 000110 0035                        9389  1 03-IDACB +           DC    AL2(53)                    ELEMENT ID
 000112 0000                        9390  1 03-IDACB +           DC    AL2(0)                  RESERVED                    @LQC
 000114 00000000                    9391  1 03-IDACB +           DC    A(0)                    ELEMENT VALUE
 000118 0000                        9392  1 01-SUBRS +SUBBLEN    DC    H'0'                Current buffer length
 00011A                             9393  1 01-SUBRS +SUBBUFR    DS    XL16384             Working buffer
 00411C                0411C 0411C  9394    01-SUBRS +         DS    0F
1DSECTS   PFCB:     Page File Control Block                                                                                 Page  107
0Current Usings:  (CP,R11) (CV,R12)
0D-Loc  Object Code    Addr1 Addr2  Stmt Lv Lineno    Source Statement           (Hibal 5, Asmedit 3.3)  HLASM R4.0  2004/03/15 12.43
+_____  ______ ____    _____ _____  ____ __ ______    ______ _________
0000000                             9405              PFCB     NAME
                                    9410
 000000                00000 000A4  9411              PFCB     DSECT
                                    9412                       COPY  PFCB
 000000                             9413             =PFCBSTRT DS    0F                  Page File Control Block, 7/86
 000000 D7C6C3C2                    9414             =PFCBID   DC    C'PFCB'             Self identification
 000004 00000000                    9415             =PFCBNO   DC    F'0'                PFCB number
 000008 00000000                    9416             =PFCBNP   DC    A(0)                No. of pages
 00000C 00000000                    9417             =PFCBMP   DC    A(0)                Max. pages used
 000010 00000000                    9418             =PFCBCP   DC    A(0)                Current pages used
 000014 00000000                    9419             =PFCBRPT  DC    A(0)                Records/track
 000018 00000000                    9420             =PFCBUCBP DC    A(0)                UCB ptr
 00001C 00000000                    9421             =PFCBFPNO DC    F'0'                First pageno in this PFCB
 000020 00000000                    9422             =PFCBAPQH DC    A(0)                Available PT entry queue head
 000024 FFFFFFFFFFFFFFFF            9423             =         DC    3F'-1'
                                    9424             =
 000030 00000000                    9425             =PFCBNIO  DC    F'0'                No. of I/O's
 000034 0000000000000000            9426             =PFCBCLK  DC    XL8'00'             Total I/O wait time
                                    9427             =
 00003C 00000000                    9428             =PFCBPNIO DC    F'0'                Previous no. of I/O's
 000040 0000000000000000            9429             =PFCBPCLK DC    XL8'00'             Previous I/O wait time
                                    9430             =
 000048 0000                        9431             =PFCB#IOS DC    H'0'                I/O's per second       (Stats)
 00004A                             9432             =PFCB#IOT DS    H'0'                Milliseconds per page  (Stats)
                                    9433             =
 00004C FFFFFFFFFFFFFFFF            9434             =         DC    3F'-1'              Reserved
                                    9435             =
 000058 00                          9436             =PFCBFL   FLAG
 PFCBFL.PFCBFGND   80 ONES          9440             =         FLAG  PFCBFGND            - End of group
 PFCBFL.PFCBFRPS   40 ONES          9445             =         FLAG  PFCBFRPS            - File has RPS
                                    9450             =
 000059 000000                      9451             =         DC    XL3'00'             Reserved
                                    9452             =
                                    9453             =PFCBSECM EQU   19                  Max sector records for RPS
 00005C 0000000000000000            9454             =PFCBSECT DC    (PFCBSECM)X'00'     Define area for sector values
 000070                             9455             =PFCBDCBA DS    0F                  DCB area
                                    9456             =PFCBDCB  DCB   DDNAME=PAGE0,MACRF=(E),DEVD=DA,DSORG=DA
0                                   9459             +*                       DATA CONTROL BLOCK
                                    9460             +*
 000070                             9461    01-DCB   +PFCBDCB  DS    0F'0'          ORIGIN ON WORD BOUNDARY
 000070                00070 00074  9462    01-DCB   +         ORG   *+4            TO ORIGIN GENERATION
                                    9463             +*                       DIRECT ACCESS DEVICE INTERFACE
 000074 0000000000000000            9464    01-DCB   +         DC    BL12'0'        FDAD, DVTBL
 000080 00000000                    9465    01-DCB   +         DC    A(0)           KEYLEN, DEVT, TRBAL
                                    9466             +*                       COMMON ACCESS METHOD INTERFACE
 000084 00                          9467    01-DCB   +         DC    AL1(0)         BUFNO, NUMBER OF BUFFERS
 000085 000001                      9468    01-DCB   +         DC    AL3(1)         BUFCB, BUFFER POOL CONTROL BLOCK
 000088 0000                        9469    01-DCB   +         DC    AL2(0)         BUFL, BUFFER LENGTH
 00008A 2000                        9470    01-DCB   +         DC    BL2'0010000000000000' DSORG, DATA SET ORGANIZATION
 00008C 00000001                    9471    01-DCB   +         DC    A(1)           IOBAD FOR EXCP OR RESERVED
                                    9472             +*                       FOUNDATION EXTENSION
 000090 00                          9473    01-DCB   +         DC    BL1'00000000'  BFTEK, BFALN, DCBE INDICATORS
 000091 000001                      9474    01-DCB   +         DC    AL3(1)         EODAD (END OF DATA ROUTINE ADDRESS)
1DSECTS   PFCB:     Page File Control Block                                                                                 Page  108
0Current Usings:  (CP,R11) (CV,R12)
0D-Loc  Object Code    Addr1 Addr2  Stmt Lv Lineno    Source Statement           (Hibal 5, Asmedit 3.3)  HLASM R4.0  2004/03/15 12.43
+_____  ______ ____    _____ _____  ____ __ ______    ______ _________
0000094 00                          9475    01-DCB   +         DC    BL1'00000000'  RECFM (RECORD FORMAT)
 000095 000000                      9476    01-DCB   +         DC    AL3(0)         EXLST (EXIT LIST ADDRESS)
                                    9477             +*                       FOUNDATION BLOCK
 000098 D7C1C7C5F0404040            9478    01-DCB   +         DC    CL8'PAGE0'     DDNAME
 0000A0 02                          9479    01-DCB   +         DC    BL1'00000010'  OFLGS (OPEN FLAGS)
 0000A1 00                          9480    01-DCB   +         DC    BL1'00000000'  IFLGS (IOS FLAGS)
 0000A2 D004                        9481    01-DCB   +         DC    BL2'1101000000000100' MACR (MACRO FORMAT)
00000A4                             9483             =PFCBNEXT DS    0F
1DSECTS   RSCGROUP: Resource Group                                                                                          Page  109
0Current Usings:  (CP,R11) (CV,R12)
0D-Loc  Object Code    Addr1 Addr2  Stmt Lv Lineno    Source Statement           (Hibal 5, Asmedit 3.3)  HLASM R4.0  2004/03/15 12.43
+_____  ______ ____    _____ _____  ____ __ ______    ______ _________
00000A4                             9485              RSCGROUP NAME
                                    9490
                                    9491                       COPY  RSCGROUP
 000000                00000 0003C  9492             =RSCGROUP RECORD BEGIN
 000000 4040404040404040            9500  1          =RSGNAME    DC    CL8' '              resource group name
 000008 00000000                    9501  1          =RSG#AUSE   DC    F'0'                no. of use attempts
 00000C 0000                        9502  1          =RSG#FREE   DC    H'0'                no. of resources free
 00000E 0000                        9503  1          =RSG#ACTV   DC    H'0'                no. of resources in use
 000010 00000000                    9504  1          =RSG#IMFR   DC    F'0'                no. of with no wait required
 000014 00000000                    9505  1          =RSGQACFW   DC    A(0)                active resource forward chain
 000018 00000000                    9506  1          =RSGQACBK   DC    A(0)                active resource backward chain
 00001C 00000000                    9507  1          =RSGQFRFW   DC    A(0)                free resource forward chain
 000020 00000000                    9508  1          =RSGQFRBK   DC    A(0)                free resource backward chain
 000024 00000000                    9509  1          =RSG#WAIT   DC    F'0'                no. of waits for the resource
 000028 00000000                    9510  1          =RSG@POST   DC    A(0)                address of post routine
 00002C 00000000                    9511  1          =RSG@QUER   DC    A(0)                address of jcb queue routine
 000030 00000000                    9512  1          =RSGQJCFW   DC    A(0)                forward jcb queue
 000034 00000000                    9513  1          =RSGQJCBK   DC    A(0)                backward jcb queue
 000038 0000                        9514  1          =RSG#MXJC   DC    H'0'                max # jcbs ever queued
                                    9515  1          =
 00003A 00                          9516  1          =RSGWTYPE   DC    X'00'               resource wait type
                                    9517  1          =RSGWLONG   EQU   1                   this is a long wait
                                    9518  1          =RSGWTERM   EQU   2                   terminal wait
                                    9519  1          =RSGWRSC    EQU   3                   resource busy wait
                                    9520  1          =RSGWSHRT   EQU   4                   short i/o wait
                                    9521  1          =
 00003B 00                          9522  1          =RSGFLG1    FLAG  ,                   flag1
 RSGFLG1.RSG1ACTV  80 ONES          9526  1          =           FLAG  RSG1ACTV            - resource group is active
 RSGFLG1.RSG1QUED  40 ONES          9531  1          =           FLAG  RSG1QUED            - at least one jcb is queued
 RSGFLG1.RSG1ASYN  20 ONES          9536  1          =           FLAG  RSG1ASYN            - rsgroup is asynchronous
                                    9541  1          =RSGFLGSZ   EQU   *-RSGFLG1           size of flag area
 00003C                             9542  1          =           DS    0F
 00003C                0003C 0003C  9543             =         END
-
 000000                00000 00018  9553             =RESOURCE RECORD 'RSCHDR'           resource entry definition
 000000 00000000                    9564  1 03-RSCHD +RSC@NEXT     DC    A(0)              next resource on queue
 000004 00000000                    9565  1 03-RSCHD +RSC@PREV     DC    A(0)              previous resource on queue
 000008 00000000                    9566  1 03-RSCHD +RSC@JCB      DC    A(0)              address of owning jcb
 00000C 00000000                    9567  1 03-RSCHD +RSC$ECB      DC    A(0)              resource ecb
 000010 00000000                    9568  1 03-RSCHD +RSC#USE      DC    A(0)              no. of uses of resource
 000014 00                          9569  1          +*
 RSCFLAGS.RSC1ACTV 80 ONES
 RSCFLAGS.RSC1@ECB 40 ONES
 RSCFLAGS.RSC1ASYN 20 ONES
 000018                00018 00018  9589    03-RSCHD +         DS    0F
1DSECTS   SMFKWR:   KWR SMF Record Format                                                                                   Page  110
0Current Usings:  (CP,R11) (CV,R12)
0D-Loc  Object Code    Addr1 Addr2  Stmt Lv Lineno    Source Statement           (Hibal 5, Asmedit 3.3)  HLASM R4.0  2004/03/15 12.43
+_____  ______ ____    _____ _____  ____ __ ______    ______ _________
00000A4                             9600              SMFKWR   NAME
                                    9605
 000000                00000 000F4  9606              SMFKWRD  DSECT
                                    9607                       COPY  SMFKWR
                                    9608             =*  Type &wsmfkwr KWR accounting record...
 000000                             9609             =SMFKIFL  DS    X                   Copy of kwrifl
 000001                             9610             =SMFKAFL  DS    X                   Copy of kwrafl
 000002                             9611             =SMFRACCT DS    CL5                 Referenced account
                                    9612             =*  WYLBUR only...
 000007                             9613             =SMFWFL   DS    X                   WYLBUR flags
                                    9614             =SMFWMAST EQU   X'80'               - Set/show master
                                    9615             =SMFWKEY  EQU   X'40'               - Set keyword
                                    9616             =SMFWAUTH EQU   X'20'               - Authority correct
                                    9617             =*  (If SMFWAUTH is off, the request was not honored because
                                    9618             =*  the command required privs the issuer did not have.)
                                    9619             =SMFWOUT  EQU   X'10'               - Set output
                                    9620             =SMFWJOB  EQU   X'08'               - Set job
                                    9621             =SMFWAUTO EQU   X'08'                 Set auto
                                    9622             =SMFWNAME EQU   X'08'                 Set name
                                    9623             =SMFWMAIL EQU   X'04'                 Set mail
                                    9624             =SMFWSECL EQU   X'02'               - Security violation at logon
                                    9625             =SMFWSEC  EQU   X'01'               - Security violation
                                    9626             =
 000008                             9627             =SMFWLEN  DS    X                   Command length
 000009                             9628             =SMFWCMD  DS    CL235               Command text
1DSECTS   VOLUME:   Volume Table Entry                                                                                      Page  111
0Current Usings:  (CP,R11) (CV,R12)
0D-Loc  Object Code    Addr1 Addr2  Stmt Lv Lineno    Source Statement           (Hibal 5, Asmedit 3.3)  HLASM R4.0  2004/03/15 12.43
+_____  ______ ____    _____ _____  ____ __ ______    ______ _________
00000F4                             9630              VOLUME   NAME
                                    9635
                                    9636                       VOLUME DSECT=YES
 000000                00000 00044  9637    01-VOLUM +         DSECT
 000000                             9638    01-VOLUM +VTYPE    DS    CL2                 VOLUME TYPE CODE
 000002                             9639    01-VOLUM +VNAME    DS    CL6                 VOLUME NAME
                                    9640             +
 000008                             9641    01-VOLUM +VFLG1    DS    X                   VOLUME CHARACTERISTICS FLAG
                                    9642             +
                                    9643    01-VOLUM +VF1PRES  EQU   X'80'               VOLUME IS PERM. RES OR RESERVED
                                    9644    01-VOLUM +VF1AVAIL EQU   X'40'               VOLUME IS AVAILABLE FOR USE
                                    9645    01-VOLUM +VF1PRIV  EQU   X'20'               VOLUME IS ACCESS RESTRICTED
                                    9646    01-VOLUM +VF1PDA   EQU   X'10'               VOLUME IS PENDING DEALLOCATION
                                    9647    01-VOLUM +VF1CLR   EQU   X'08'               CLR VOLIST ENTRY AFTER DEALLOCATION
                                    9648    01-VOLUM +VF1AJCL  EQU   X'04'               VOLUME OVERRIDDEN IN JCL      BH6023
                                    9649    01-VOLUM +VF1MNTD  EQU   X'02'               VOLUME MOUNTED BY OPERATOR    BH6023
                                    9650    01-VOLUM +VF1ON    EQU   X'01'               VOLUME IS "ONLINE"            BH6036
                                    9651             +
 000009                             9652    01-VOLUM +VFLG2    DS    X                   SECOND FLAG BYTE              BH6023
                                    9653             +
                                    9654    01-VOLUM +VF2ALLO  EQU   X'80'               ALLOCATE WHEN YOU HAVE VOL    BH6023
                                    9655    01-VOLUM +VF2DALLO EQU   X'40'               DEALLOCATE WHEN HAVE VOL      BH6023
                                    9656    01-VOLUM +VF2QUIET EQU   X'20'               DO QUIET DEALLOCATION         BH6036
                                    9657    01-VOLUM +VF2ADACT EQU   X'10'               ALLO/DALLO ACTIVE             BH6062
                                    9658    01-VOLUM +VF2MOUNT EQU   X'08'               mount may be issued to fill req
 00000A                             9659    01-VOLUM +VFLG3    DS    X                   THIRD FLAG BYTE
                                    9660             +
                                    9661    01-VOLUM +VF3SHOW  EQU   X'80'               - DISPLAY IN "SHOW VOL" OUTPUT
                                    9662    01-VOLUM +VF3BKUP  EQU   X'40'               - Volume being backed up
                                    9663             +
 00000B                             9664    01-VOLUM +VOLONTIM DS    CL5                 - Back-online time
                                    9665             +*        STATISTICS SECTION
                                    9666             +*
 000010                             9667    01-VOLUM +VOLOPNS  DS    H                   NUMBER OF OPENS
 000014                             9668    01-VOLUM +VOLREADS DS    F                   NUMBER OF READS
 000018                             9669    01-VOLUM +VOLWRITS DS    F                   NUMBER OF WRITES
 00001C                             9670    01-VOLUM +VOLSPACE DS    H                   AMOUNT OF SPACE ON VOLUME
 00001E                             9671    01-VOLUM +VOLEXTN  DS    H                   NUMBER OF EXTENTS
 000020                             9672    01-VOLUM +VOLMAXSP DS    H                   MAX SPACE AVAILABLE
 000022                             9673    01-VOLUM +VOLPCFRE DS    H                   PERCENT FREE SPACE WANTED
                                    9674    01-VOLUM +VOLJUNK  EQU   VOLOPNS,*-VOLOPNS   DEFINE VOLUMES AREA           BH6036
                                    9675+            +         ¿þþþþþþþþþþþþþþþþþþþþþþþþþþþÜ
                                    9676+            +         Ÿ  CONTROL ADDRESS SECTION  Ÿ
                                    9677+            +         ¾þþþþþþþþþþþþþþþþþþþþþþþþþþþ»
 000024                             9678    01-VOLUM +VOLUCBAD DS    A                   UCB ADDRESS
 000028                             9679    01-VOLUM +VOLUSECT DS    H                   USE COUNT OF VOLUME           BH6036
 00002A                             9680    01-VOLUM +         DS    H                   EXTRA HALF WORD               BH6036
 00002C                             9681    01-VOLUM +         DS    A                   TIOT POINTER (DO NOT USE)
                                    9682+            +         ¿þþþþþþþþþþþþþþþþþþþþþþþþþþÜ
                                    9683+            +         Ÿ  ACCESS CONTROL SECTION  Ÿ
                                    9684+            +         ¾þþþþþþþþþþþþþþþþþþþþþþþþþþ»
 000030                             9685    01-VOLUM +VOLOWNF1 DS    X                   VOLUME OWNER FLAGS 1
 000031                             9686    01-VOLUM +VOLOWNF2 DS    X                   VOLUME OWNER FLAGS 2
 000032                             9687    01-VOLUM +VOLOWNER DS    CL16                VOLUME ACCESSOR LIST
1DSECTS   VOLUME:   Volume Table Entry                                                                                      Page  112
0Current Usings:  (CP,R11) (CV,R12)
0D-Loc  Object Code    Addr1 Addr2  Stmt Lv Lineno    Source Statement           (Hibal 5, Asmedit 3.3)  HLASM R4.0  2004/03/15 12.43
+_____  ______ ____    _____ _____  ____ __ ______    ______ _________
0000044                             9688    01-VOLUM +         DS    0F                  ROUND UP TO FULLWORD
                                    9689    01-VOLUM +VOLOWNR  EQU   VOLOWNF1,*-VOLOWNF1 DEFINE VOLUME ACCESS SECTION  BH6036
1DSECTS   HRB:      JES Reply Block                                                                                         Page  113
0Current Usings:  (CP,R11) (CV,R12)
0D-Loc  Object Code    Addr1 Addr2  Stmt Lv Lineno    Source Statement           (Hibal 5, Asmedit 3.3)  HLASM R4.0  2004/03/15 12.43
+_____  ______ ____    _____ _____  ____ __ ______    ______ _________
0000044                             9691              HRB      NAME
                                    9696
 000000                00000 00016  9697              HRBD     DSECT
                                    9698                       HRB
 000000                             9699    01-HRB   +HRB      DS    0H                  HASP EXTERNAL RESPONSE BLOCK
                                    9700             +*
                                    9701             +*        OUTPUT HALF OF EXTERNAL COMMAND INTERFACE THROUGH SUZAN
                                    9702             +*        USED BY WYLBUR AND BATCH JOBS.
                                    9703             +*
 000000                             9704    01-HRB   +HRBID    DS    H                   USER ID FIELD FROM COMMAND
 000002                             9705    01-HRB   +HRBLEN   DS    H                   RESPONSE TEXT LENGTH
                                    9706             +
 000004                             9707    01-HRB   +HRBFLAGS DS    X                   FLAG BYTE
                                    9708    01-HRB   +HRBERVRB EQU   X'80'               UNKNOWN VERB OR SET/SHOW OPTION
                                    9709    01-HRB   +HRBERSYN EQU   X'40'               SYNTAX ERROR/UNKNOWN KEYWORD
                                    9710    01-HRB   +HRBERSEM EQU   X'20'               SEMANTIC ERROR DETECTED
                                    9711    01-HRB   +HRBBUF   EQU   X'10'               FETCH BUFFER (0 -> MSG LINE)
                                    9712    01-HRB   +HRBLAST  EQU   X'08'               LAST HRB FOR CURRENT COMMAND
                                    9713    01-HRB   +HRBINFO  EQU   X'02'               ACCT & JOBID INFO PROVIDED
                                    9714    01-HRB   +HRBPRINT EQU   X'01'               BUFFER IS PRINT DATA
                                    9715             +
 000005                             9716    01-HRB   +HRBFLAG2 DS    X                   Flag byte #2
                                    9717    01-HRB   +HRBFOPTJ EQU   X'80'               - Fetch lines spooled with OPT=J
                                    9718    01-HRB   +HRBFENDP EQU   X'40'               - End of current print page
                                    9719    01-HRB   +HRBFMANL EQU   X'20'               - End of manual feed page
                                    9720             +
 000006                             9721    01-HRB   +         DS    XL3                 Reserved
 000009                             9722    01-HRB   +HRBACCT  DS    CL5                 BATCH JOB ACCT FOR LOC RESPONSE
 00000E                             9723    01-HRB   +HRBERRID DS    CL8                 ERROR ID
 000016                             9724    01-HRB   +HRBTEXT  DS    0X                  TEXT START
1DSECTS   DVTAREA:  DEVTYPE Return Area                                                                                     Page  114
0Current Usings:  (CP,R11) (CV,R12)
0D-Loc  Object Code    Addr1 Addr2  Stmt Lv Lineno    Source Statement           (Hibal 5, Asmedit 3.3)  HLASM R4.0  2004/03/15 12.43
+_____  ______ ____    _____ _____  ____ __ ______    ______ _________
0000016                             9726              DVTAREA  NAME
                                    9731
 000000                00000 00018  9732              DVTAREA  DSECT
                                    9733                       DVTAREA
 000000                             9734    01-DVTAR +$$$DVT   DS    0F
 000000                             9735    01-DVTAR +DVTDEVCD DS    F                   device code
                                    9736             +
                                    9737    01-DVTAR +DVTOPT   EQU   DVTDEVCD+1,1,C'X'   device options
                                    9738    01-DVTAR +DVTFRPS  EQU   X'10'               - RPS device
                                    9739    01-DVTAR +DVTFOFLO EQU   X'40'               - overflow capability
                                    9740             +
                                    9741    01-DVTAR +DVTCLASS EQU   DVTDEVCD+2,1,C'X'   device class
                                    9742    01-DVTAR +DVTCDUMM EQU   X'00'               - dummy
                                    9743    01-DVTAR +DVTCTAPE EQU   X'80'               - tape
                                    9744    01-DVTAR +DVTCCOMM EQU   X'40'               - communications
                                    9745    01-DVTAR +DVTCDA   EQU   X'20'               - direct access
                                    9746    01-DVTAR +DVTCTP   EQU   X'10'               - teleprocessing
                                    9747    01-DVTAR +DVTCUR   EQU   X'08'               - unit record
                                    9748    01-DVTAR +DVTCJES  EQU   X'01'               - JES (sysin or sysout)
                                    9749             +
                                    9750    01-DVTAR +DVTUTYPE EQU   DVTDEVCD+3,1,C'X'   unit type
                                    9751    01-DVTAR +DVT2301  EQU   X'02'               - 2301 drum
                                    9752    01-DVTAR +DVT23051 EQU   X'06'               - 2305 drum model 1
                                    9753    01-DVTAR +DVT23052 EQU   X'07'               - 2305 drum model 2
                                    9754    01-DVTAR +DVT2314  EQU   X'08'               - 2314/2319 disk
                                    9755    01-DVTAR +DVT3330  EQU   X'09'               - 3330 disk model I
                                    9756    01-DVTAR +DVT3350  EQU   X'0B'               - 3350 disk
                                    9757    01-DVTAR +DVT33301 EQU   X'0D'               - 3330 disk model II
                                    9758    01-DVTAR +DVT3380  EQU   X'0E'               - 3380 disk
                                    9759             +
 000004                             9760    01-DVTAR +DVTMXBLK DS    F                   max block size
                                    9761             +
 000008                             9762    01-DVTAR +DVTNUMC  DS    H                   number of cylinders
 00000A                             9763    01-DVTAR +DVTNUMT  DS    H                   number of tracks
                                    9764             +
 00000C                             9765    01-DVTAR +DVTTRKSZ DS    H                   track size
 00000E                             9766    01-DVTAR +DVTBLKO  DS    X                   keyed block overhead
 00000F                             9767    01-DVTAR +DVTLBLKO DS    X                   keyed block overhead (last)
                                    9768             +
 000010                             9769    01-DVTAR +DVTKEYO  DS    0X                  reduce overhead if no keys
 000010                             9770    01-DVTAR +DVTMODN  DS    X                   modulo factor, for modulo devices
 000011                             9771    01-DVTAR +DVTFLAG  DS    X                   flag byte
                                    9772    01-DVTAR +DVTFMOD  EQU   X'10'               - this is a modulo device (3380)
                                    9773    01-DVTAR +DVTFOHD  EQU   X'08'               - overhead is single half-word
                                    9774    01-DVTAR +DVTFTOL  EQU   X'01'               device needs tolerance factor
 000012                             9775    01-DVTAR +DVTTOL   DS    0H                  tolerance factor for device
 000012                             9776    01-DVTAR +DVTMODO  DS    H                   data overhead, for modulo devices
                                    9777             +*
                                    9778             +*  NOTE: DVTTOL is 512 for devices not having tolerance factor
                                    9779             +*        so DVTFTOL need not be checked before using DVTTOL.
                                    9780             +* NOTE2: Sorry Joe, DVTFTOL must now be checked, DEVTYPE now
                                    9781             +*        returns other info in that field for modulo devices
                                    9782             +*        like the 3380.
                                    9783             +*
1DSECTS   DVTAREA:  DEVTYPE Return Area                                                                                     Page  115
0Current Usings:  (CP,R11) (CV,R12)
0D-Loc  Object Code    Addr1 Addr2  Stmt Lv Lineno    Source Statement           (Hibal 5, Asmedit 3.3)  HLASM R4.0  2004/03/15 12.43
+_____  ______ ____    _____ _____  ____ __ ______    ______ _________
0000014                             9784    01-DVTAR +DVTRPSR0 DS    H                   R0 overhead for RPS
 000016                             9785    01-DVTAR +DVTRPSTS DS    X                   total number of sectors
 000017                             9786    01-DVTAR +DVTRPSDS DS    X                   number of data sectors
1DSECTS   PATH:     SUZAN Path                                                                                              Page  116
0Current Usings:  (CP,R11) (CV,R12)
0D-Loc  Object Code    Addr1 Addr2  Stmt Lv Lineno    Source Statement           (Hibal 5, Asmedit 3.3)  HLASM R4.0  2004/03/15 12.43
+_____  ______ ____    _____ _____  ____ __ ______    ______ _________
0000018                             9788              PATH     NAME
                                    9793
 000000                00000 00028  9794              PATHD    DSECT
                                    9795                       PATH
 000000                             9796    01-PATH  +PATH     DC    0F'0'
 000000 00000000                    9798    02-DEFIN +PATHMGC  DC    AL4(0)
 000004 00000000                    9800    02-DEFIN +PATHDJNM DC    AL4(0)
 000008 0000000000000000            9802    02-DEFIN +PATHMY   DC    XL8'0'
 000010 FFFFFFFFFFFFFFFF            9804    02-DEFIN +PATHYOU  DC    XL8'FFFFFFFFFFFFFFFF'
 000018 00000000                    9806    02-DEFIN +PATHECB  DC    AL4(0)
 00001C                0001C 00018  9807    01-PATH  +         ORG   *-4
 000018 00                          9809    02-DEFIN +PATHMFL  DC    AL1(0*X'80'+0*X'40'+0*X'20')
                                    9810             +
                                    9811    01-PATH  +PATHVER2  EQU  X'80'         CALLER IS USING VERSION 2
                                    9812    01-PATH  +PATHMCTL  EQU  X'40'         CALLER ASKS TERMINATION CONTROL
                                    9813    01-PATH  +PATHMNAM  EQU  X'20'         CALLER PROVIDES CALLEE NAME
                                    9814    01-PATH  +PATHMDP1  EQU  X'10'         DUPLICATE TAGS FOUND: MY=PCBO, YOU=PCBA
                                    9815    01-PATH  +PATHMDP2  EQU  X'08'         DUPLICATE TAGS FOUND: MY=PCBA, YOU=PCBO
                                    9816             +
 000019                00019 0001C  9817    01-PATH  +         ORG   ,
 00001C 00000000                    9819    02-DEFIN +PATHBUF  DC    AL4(0)
 000020 00000000                    9821    02-DEFIN +PATHECBF DC    AL4(0)
                                    9822             +
                                    9823    01-PATH  +PATHFCLS  EQU   X'80'         I AM POSTED BECAUSE HE CLOSED
                                    9824    01-PATH  +PATHFFQE  EQU   X'40'         I AM POSTED BECAUSE HIS FULL Q EMPTIED
                                    9825    01-PATH  +PATHFNI   EQU   X'20'         I AM POSTED BECAUSE NEW INFO IN MY Q
                                    9826    01-PATH  +PATHFDP   EQU   X'10'         I AM POSTED AT HIS DISCRETION
                                    9827    01-PATH  +PATHFOPN  EQU   X'08'         I AM POSTED BECAUSE HE OPENED
                                    9828    01-PATH  +PATHFCLC  EQU   X'04'         I AM POSTED BECAUSE MY CLOSE IS COMPLETE
                                    9829             +
 000024 00000000                    9831    02-DEFIN +PATHPASS DC    XL4'0'
                                    9832             +
                                    9833    01-PATH  +PATHSIZE  EQU  *-PATH        LENGTH OF PATH BLOCK
1DSECTS   PDB:      MILTEN Passed Data Buffer                                                                               Page  117
0Current Usings:  (CP,R11) (CV,R12)
0D-Loc  Object Code    Addr1 Addr2  Stmt Lv Lineno    Source Statement           (Hibal 5, Asmedit 3.3)  HLASM R4.0  2004/03/15 12.43
+_____  ______ ____    _____ _____  ____ __ ______    ______ _________
0000028                             9835              PDB      NAME
                                    9840
 000000                00000 00038  9841              PDB      DSECT
                                    9842                       PDB
                                    9843+            +         ¿þþþþþþþþþþþþþþþþþþþþþþÜ
                                    9844+            +         Ÿ  Passed Data Buffer  Ÿ
                                    9845+            +         ¾þþþþþþþþþþþþþþþþþþþþþþ»
 000000                             9846    01-PDB   +PDBSTRT  DC    0F'0'
 000000 0000                        9847    01-PDB   +PDBLENG  DC    H'0'                (Suzan RDW) Total PDB length
 000002 0000                        9848    01-PDB   +         DC    XL2'00'             (Suzan RDW)
                                    9849             +
 000004                             9850    01-PDB   +PDBDATA  DC    0F'0'               Start of PDB data
                                    9851             +
 000004 0000                        9852    01-PDB   +PDBLIN#  DC    H'0'                Session number
 000006 00                          9853    01-PDB   +PDBCMD   DC    X'00'               Command code
 000007 00                          9854    01-PDB   +PDBCMDFL DC    X'00'               Command code modifier flags
                                    9855             +
 000008                             9856    01-PDB   +PDBMOD   DS    0XL4                Mode flags
 000008 00                          9857    01-PDB   +PDBMODA  DC    X'00'               .a  (see moda)
 000009 00                          9858    01-PDB   +PDBMODB  DC    X'00'               .b  (see modb)
 00000A 00                          9859    01-PDB   +PDBMODC  DC    X'00'               .c  (see modc)
 00000B 00                          9860    01-PDB   +PDBMODD  DC    X'00'               .d  (see modd)
                                    9861             +
 00000C                             9862    01-PDB   +PDBCPL   DS    0XL2                Completion flags
 00000C 00                          9863    01-PDB   +PDBCPLA  DC    X'00'               .a  (see cpla)
 00000D 00                          9864    01-PDB   +PDBCPLB  DC    X'00'               .b  (see cplb)
                                    9865             +
 00000E 00                          9866    01-PDB   +PDBBYT1  DC    X'00'               Byte 1: used by control PDB
 00000F 00                          9867    01-PDB   +PDBBYT2  DC    X'00'               Byte 2: used by control PDB
                                    9868             +
 000010 00000000                    9869    01-PDB   +PDBSINP  DC    A(0)                Session info ptr (in CSA)
                                    9870    01-PDB   +PDBAWID  EQU   PDBSINP,4,C'F'      Session id for async write
                                    9871             +
 000014 4040404040404040            9872    01-PDB   +PDBVPGM  DC    CL8' '              ORVYL program name
 00001C 00000000                    9873    01-PDB   +PDBVCPU  DC    F'0'                ORVYL CPU time used
 000020 00                          9874    01-PDB   +PDBVFLAG DC    X'00'               ORVYL flags
                                    9875    01-PDB   +PDBVFRUN EQU   X'80'               - Program is running (not paused)
                                    9876    01-PDB   +PDBVFATH EQU   X'40'               - Program is authorized
 000021 000000                      9877    01-PDB   +PDBVDIO  DC    XL3'00'             ORVYL Disk I/O
                                    9878    01-PDB   +PDBVINFO EQU   PDBVPGM,*-PDBVPGM,C'X'
                                    9879             +
 000024 4040404040404040            9880    01-PDB   +PDBSYSNM DC    CL8' '              New/old subsys name (xctl, init)
                                    9881             +
 00002C 0000                        9882    01-PDB   +PDBSUC   DC    H'0'                SIB update count
 00002E 0000                        9883    01-PDB   +PDBOUTCT DC    H'0'                Output text count
 000030 0000                        9884    01-PDB   +PDBINCT  DC    H'0'                Maximum input allowed
 000032 0000                        9885    01-PDB   +PDBWC    DC    H'0'                Write count
 000034 0000                        9886    01-PDB   +PDBPC    DC    H'0'                Prompt count
 000036 0000                        9887    01-PDB   +PDBRC    DC    H'0'                Read count
                                    9888    01-PDB   +PDBORV   EQU   PDBINCT,*-PDBINCT,C'X'  Control info for ORVYL XCTLs
                                    9889    01-PDB   +PDBVRCTL EQU   X'01'               - ORVYL "read control" (SIFT)
                                    9890    01-PDB   +PDBOPT   EQU   PDBCMDFL,*-PDBCMDFL,C'X'  Option flags
                                    9891    01-PDB   +PDBHDR   EQU   PDBSTRT,*-PDBSTRT,C'X'  PDB header
 000038                             9892    01-PDB   +PDBTEXT  DS    0C                  Text field (variable length)
1DSECTS   PDB:      MILTEN Passed Data Buffer                                                                               Page  118
0Current Usings:  (CP,R11) (CV,R12)
0D-Loc  Object Code    Addr1 Addr2  Stmt Lv Lineno    Source Statement           (Hibal 5, Asmedit 3.3)  HLASM R4.0  2004/03/15 12.43
+_____  ______ ____    _____ _____  ____ __ ______    ______ _________
0                                   9893+            +         ¿þþþþþþþþþþþþþþþþþþþþþþþþþþþþÜ
                                    9894+            +         Ÿ  Control PDB information.  Ÿ
                                    9895+            +         ¾þþþþþþþþþþþþþþþþþþþþþþþþþþþþ»
                                    9896    01-PDB   +PDBCNO   EQU   PDBCMDFL,1,C'X'     Control number (to MILTEN)
                                    9897             +
                                    9898    01-PDB   +PDBCRET  EQU   PDBBYT1,1,C'X'      Return code (from MILTEN)
                                    9899    01-PDB   +PDBCROK  EQU   0                   - OK
                                    9900    01-PDB   +PDBCRPRV EQU   4                   - Privileged
                                    9901    01-PDB   +PDBCRBF  EQU   8                   - Bad format
                                    9902    01-PDB   +PDBCRBAD EQU   12                  - Unknown control
                                    9903             +
                                    9904    01-PDB   +PDBCMOD  EQU   PDBBYT2,1,C'X'      Rc modifier (depends on control)
                                    9905             +*
                                    9906             +*  PDB command codes:
                                    9907             +*
                                    9908             +*  global (to MILTEN)...
                                    9909    01-PDB   +TMILINIT EQU   33                  Subsystem init -- PDBCMDFL flags:
                                    9910    01-PDB   +INITFPRV EQU   X'80'               - Priv'd subsystem
                                    9911    01-PDB   +TMILMW   EQU   34                  not implemented
                                    9912    01-PDB   +TMILSTAT EQU   35                  not implemented
                                    9913             +*
                                    9914             +*  Line-related, synchronous commands (to MILTEN)...
                                    9915    01-PDB   +TMILEOS  EQU   64                  End-of-session -- PDBCMDFL flags:
                                    9916    01-PDB   +EOSALL   EQU   X'40'               - logoff this subsys and send alo
                                    9917    01-PDB   +EOSXCTL  EQU   X'20'               - logoff this subsys and xctl
                                    9918    01-PDB   +TMILWRIT EQU   65                  Terminal write
                                    9919    01-PDB   +TMILREAD EQU   66                  Terminal read
                                    9920    01-PDB   +TMILWTO  EQU   67                  MILTEN write-to-operator
                                    9921    01-PDB   +TMILSENS EQU   68                  Not implemented
                                    9922    01-PDB   +TMILNOP  EQU   69                  Check and respond
                                    9923    01-PDB   +MILAWR   EQU   70                  Asynchronous write
                                    9924    01-PDB   +TMILXCTL EQU   71                  Send text to another subsys
                                    9925    01-PDB   +TMILACCT EQU   72                  Session accounting data
                                    9926    01-PDB   +MILCNTL  EQU   73                  Control (PDBCMDFL has number)
                                    9927    01-PDB   +MILSOF   EQU   74                  Force logoff of user subsys's
                                    9928             +*  Line-related, asynchronous commands to MILTEN...
                                    9929    01-PDB   +TMILBRK  EQU   80                  Halt previous read
                                    9930             +*
                                    9931             +*  Command codes returned from MILTEN to subsystem...
                                    9932             +*
                                    9933             +*  Global, with (or as) response...
                                    9934    01-PDB   +FMILECHO EQU   32                  Not implemented
                                    9935    01-PDB   +FMILINIT EQU   33                  Subsystem initialization
                                    9936    01-PDB   +FMILSTAT EQU   35                  Not implemented
                                    9937    01-PDB   +FMILERR  EQU   36                  Prev. cmd was bad
                                    9938             +*  Global, asynchronous commands from MILTEN...
                                    9939    01-PDB   +FMILSTOP EQU   48                  Normal subsystem shutdown request
                                    9940    01-PDB   +FMILDUMP EQU   49                  Abend-with-dump request
                                    9941             +*  Line-related, synchronous responses or commands from MILTEN...
                                    9942    01-PDB   +FMILSOS  EQU   64                  Start-of-session (line logon)
                                    9943    01-PDB   +FMILWRIT EQU   65                  Response to tmilwrit
                                    9944    01-PDB   +FMILREAD EQU   66                  Response to tmilread
                                    9945    01-PDB   +FMILXCTL EQU   71                  Response to tmilxctl
                                    9946             +*  Line-related asynchronous commands from MILTEN...
1DSECTS   PDB:      MILTEN Passed Data Buffer                                                                               Page  119
0Current Usings:  (CP,R11) (CV,R12)
0D-Loc  Object Code    Addr1 Addr2  Stmt Lv Lineno    Source Statement           (Hibal 5, Asmedit 3.3)  HLASM R4.0  2004/03/15 12.43
+_____  ______ ____    _____ _____  ____ __ ______    ______ _________
0                                   9947    01-PDB   +FMILASYN EQU   80                  Asynchronous status in cpl flags
                                    9948    01-PDB   +FMILLGFI EQU   81                  Not implemented
                                    9949             +*
                                    9950             +*  PDB mode flags (to MILTEN)
                                    9951             +*
                                    9952    01-PDB   +MODARSV1 EQU   X'80'               - Reserved
                                    9953    01-PDB   +MODAFMIL EQU   X'40'               - Fake MILTEN in TXCTL (for WYLBUR)
                                    9954    01-PDB   +MODANMSG EQU   X'20'               - Reject (don't allow) messages
                                    9955    01-PDB   +MODACL   EQU   X'10'               - Clean (don't interleave msgs)
                                    9956    01-PDB   +MODABUF  EQU   X'08'               - Buffered I/O (rtns mult lines)
                                    9957    01-PDB   +MODADRAT EQU   X'04'               - Disallow attn on read
                                    9958             +
                                    9959    01-PDB   +MODBUPPR EQU   X'80'               - Use upper-case-only (read)
                                    9960    01-PDB   +MODBUPLO EQU   X'40'               - Use uplow (read)
                                    9961    01-PDB   +MODBDWAT EQU   X'20'               - Disallow attn on write
                                    9962    01-PDB   +MODBNNLA EQU   X'10'               - No stars or NL on read attn
                                    9963    01-PDB   +MODBSLOL EQU   X'08'               - Slow list (no tabs used on write)
                                    9964    01-PDB   +MODBNLF  EQU   X'04'               - No LF on read carriage-return
                                    9965    01-PDB   +MODBUFMT EQU   X'02'               - Unformatted (don't cvt <...>)
                                    9966    01-PDB   +MODBFOR  EQU   X'01'               - Force I/O (override quiet)
                                    9967             +
                                    9968    01-PDB   +MODCNCRS EQU   X'80'               - Don't re-position cursor (VTAM)
                                    9969    01-PDB   +MODCDSPL EQU   X'40'               - Display mode I/O
                                    9970    01-PDB   +MODCSTIB EQU   X'20'               - Suppress trailing input blanks
                                    9971    01-PDB   +MODCFSR  EQU   X'10'               - Full screen read
                                    9972    01-PDB   +MODCFSRU EQU   X'08'               - Full screen read unsolicited
                                    9973    01-PDB   +MODCNECH EQU   X'04'               - No echo
                                    9974    01-PDB   +MODCIMED EQU   X'02'               - Immediate mode (display I/O)
                                    9975    01-PDB   +MODCSTOB EQU   X'01'               - Suppress trailing output blanks
                                    9976             +
                                    9977    01-PDB   +MODDNPAU EQU   X'80'               - Don't stop at end of page
                                    9978    01-PDB   +MODDNPT  EQU   X'40'               - No read text allowed at p/p
                                    9979    01-PDB   +MODDTRAN EQU   X'20'               - Transparent I/O
                                    9980    01-PDB   +MODDNMOD EQU   X'10'               - Nomodel
                                    9981    01-PDB   +MODDNFLT EQU   X'08'               - No ctrl char filtering
                                    9982    01-PDB   +MODDXON  EQU   X'04'               - Send XON char for read
                                    9983    01-PDB   +MODDRUND EQU   X'02'               - Count rundown mode for read
                                    9984    01-PDB   +MODDNTYP EQU   X'01'               - No read typeahead
                                    9985             +*
                                    9986             +*  PDB control numbers (to MILTEN)
                                    9987             +*
                                    9988    01-PDB   +CTLSNSI  EQU   1                   - Sense session info
                                    9989    01-PDB   +CTLSETI  EQU   2                   - Set   session info
                                    9990    01-PDB   +CTLSNSP  EQU   3                   - Sense port info
                                    9991    01-PDB   +CTLSNSF  EQU   4                   - Sense front-end info
                                    9992    01-PDB   +CTLSNSD  EQU   5                   - Sense device dependent info
                                    9993    01-PDB   +CTLSNSS  EQU   6                   - Sense subsystem info
                                    9994    01-PDB   +CTLSNSA  EQU   7                   - Sense accounting info
                                    9995    01-PDB   +CTLSNSM  EQU   8                   - Sense MILTEN info
                                    9996    01-PDB   +CTLSNST  EQU   9                   - Sense symbol type
                                    9997    01-PDB   +CTLSNSMD EQU   10                  - Sense MILTEN device trace
                                    9998    01-PDB   +CTLMAX   EQU   10
                                    9999             +
                                   10000    01-PDB   +CTLPSETS EQU   101                 - Set session           (Priv'd)
1DSECTS   PDB:      MILTEN Passed Data Buffer                                                                               Page  120
0Current Usings:  (CP,R11) (CV,R12)
0D-Loc  Object Code    Addr1 Addr2  Stmt Lv Lineno    Source Statement           (Hibal 5, Asmedit 3.3)  HLASM R4.0  2004/03/15 12.43
+_____  ______ ____    _____ _____  ____ __ ______    ______ _________
0                                  10001    01-PDB   +CTLPSETO EQU   102                 - Set session options   (Priv'd)
                                   10002    01-PDB   +CTLPKILL EQU   103                 - Kill session          (Priv'd)
                                   10003    01-PDB   +CTLPSETP EQU   104                 - Set port              (Priv'd)
                                   10004    01-PDB   +CTLPSETF EQU   105                 - Set front-end         (Priv'd)
                                   10005    01-PDB   +CTLPSETD EQU   106                 - Set device dependent  (Priv'd)
                                   10006    01-PDB   +CTLPSETA EQU   107                 - Set accounting info   (Priv'd)
                                   10007    01-PDB   +CTLPDIE  EQU   108                 - MILTEN shutdown       (Priv'd)
                                   10008    01-PDB   +CTLPMAX  EQU   108
                                   10009             +*
                                   10010             +*  PDB completion flags (from MILTEN)
                                   10011             +*
                                   10012    01-PDB   +CPLAATTN EQU   X'80'               - Attn on read/write
                                   10013    01-PDB   +CPLAIOE  EQU   X'40'               - I/O error on read
                                   10014    01-PDB   +CPLAUST  EQU   X'20'               - Unset tab(s) on input
                                   10015    01-PDB   +CPLABRK  EQU   X'10'               - Read killed by break
                                   10016             +
                                   10017    01-PDB   +CPLBLGF  EQU   X'80'               - Terminal is logging off
                                   10018    01-PDB   +CPLBILT  EQU   X'40'               - Terminal can't do that
                                   10019    01-PDB   +CPLBIA   EQU   X'20'               - Idle attention (asynchronous)
                                   10020             +
1DSECTS   RQST:     MILTEN Request Header                                                                                   Page  121
0Current Usings:  (CP,R11) (CV,R12)
0D-Loc  Object Code    Addr1 Addr2  Stmt Lv Lineno    Source Statement           (Hibal 5, Asmedit 3.3)  HLASM R4.0  2004/03/15 12.43
+_____  ______ ____    _____ _____  ____ __ ______    ______ _________
0000038                            10022              RQST     NAME
                                   10027
 000000                00000 00012 10028              RQST     DSECT
                                   10029                       RQST
 000000                            10030    01-RQST  +RQSTLEN  DS    H                   TOTAL LENGTH      (SUZAN RDW)
 000002                            10031    01-RQST  +         DS    H                   RESERVED          (SUZAN RDW)
                                   10032             +
 000004                            10033    01-RQST  +RQSTRSV  DS    H                   RESERVED (MUST BE ZERO)
 000006                            10034    01-RQST  +RQSTPNO  DS    H                   PORT NUMBER
                                   10035             +
 000008                            10036    01-RQST  +RQSTCMD  DS    X                   COMMAND CODE (SEE "PDBCMD")
 000009                            10037    01-RQST  +RQSTCMFL  DS   X                   COMMAND FLAGS
                                   10038             +
 00000A                            10039    01-RQST  +RQSTMODB  DS   X                   PDBMODB
 00000B                            10040    01-RQST  +RQSTMODC  DS   X                   PDBMODC
                                   10041             +
 00000C                            10042    01-RQST  +RQSTCPL  DS    0XL2                COMPLETION FLAGS
 00000C                            10043    01-RQST  +RQSTCPLA  DS   X                   .A  (SEE "PDBCPLA")
 00000D                            10044    01-RQST  +RQSTCPLB  DS   X                   .B  (SEE "PDBCPLB")
                                   10045             +
 00000E                            10046    01-RQST  +RQSTOUCT  DS   H                   OUTPUT COUNT (FROM MILTEN)
 000010                            10047    01-RQST  +RQSTINCT  DS   H                   INPUT COUNT
                                   10048             +
                                   10049    01-RQST  +RQSTOPT  EQU   RQSTCMFL,*-RQSTCMFL,C'X'
                                   10050    01-RQST  +RQSTDATA  EQU  RQSTRSV,*-RQSTRSV,C'X'
                                   10051    01-RQST  +RQSTHDR  EQU   RQSTLEN,*-RQSTLEN,C'X'
                                   10052             +
 000012                            10053    01-RQST  +RQSTTEXT  DS   0X
1DSECTS   PCW:      SUZAN Path Command Word                                                                                 Page  122
0Current Usings:  (CP,R11) (CV,R12)
0D-Loc  Object Code    Addr1 Addr2  Stmt Lv Lineno    Source Statement           (Hibal 5, Asmedit 3.3)  HLASM R4.0  2004/03/15 12.43
+_____  ______ ____    _____ _____  ____ __ ______    ______ _________
0000012                            10055              PCW      NAME
                                   10060
 000000                00000 00008 10061              PCWD     DSECT
                                   10062                       PCW
                                   10063             +*  PATH COMMAND WORD                    OPERAND REQUIRED FOR:
                                   10064             +*                                  SNDD  RETMX,RETX  POST  STAT  OTHER
                                   10065             +*                               --------------------------------------
 000000                            10066    01-PCW   +PCW      DC    0F'0'
 000000                            10067    01-PCW   +PCWCMD   DS    0AL1     COMMAND       *        *       -     *     *
 000000 00000000                   10068    01-PCW   +PCWADDR  DC    AL4(0)   ADDRESS       *        *       -     -     *
 000004 0000                       10069    01-PCW   +PCWLEN   DC    AL2(0)   LENGTH        *        *       -     -     -
 000006 00                         10070    01-PCW   +PCWFLG   DC    AL1(0)   FLAGS         *        -       -     -     -
 000007 00                         10071    01-PCW   +         DC    AL1(0)   RESRVD
                                   10072             +*                               --------------------------------------
                                   10073    01-PCW   +PCWSIZE  EQU   *-PCW
                                   10074             +*
                                   10075             +*  COMMAND MNEMONICS                       MEANING OF OPERANDS:
                                   10076             +*                                      PCWADDR       PCWLEN    PCWFLG
                                   10077             +*                                    ----------------------------------
                                   10078    01-PCW   +CMDSNDX  EQU   X'01'   SEND           TRANSACTION      --        --
                                   10079             +*                      TRANSACTION    ADDRESS
                                   10080             +*
                                   10081    01-PCW   +CMDSNDD  EQU   X'02'   SEND           DATA ADDRESS  DATA       CHAIN
                                   10082             +*                      DATA                         LENGTH     FLAGS
                                   10083             +*
                                   10084    01-PCW   +CMDRETLF EQU   X'03'   LOCATE-FREE    ADDRESS OF       --        --
                                   10085             +*                      RETRIEVE       4 WORD AREA
                                   10086             +*
                                   10087    01-PCW   +CMDRETL  EQU   X'04'   LOCATE         ADDRESS OF       --        --
                                   10088             +*                      RETRIEVE       4 WORD AREA
                                   10089             +*
                                   10090    01-PCW   +CMDRETMX EQU   X'05'   RETRIEVE       ADDRESS OF    LENGTH OF    --
                                   10091             +*                      MULTIPLE       RECEIVE AREA  RECEIVE AREA
                                   10092             +*
                                   10093    01-PCW   +CMDRETX  EQU   X'06'   RETRIEVE       ADDRESS OF    LENGTH OF    --
                                   10094             +*                      SINGLE         RECEIVE AREA  RECEIVE AREA
                                   10095             +*
                                   10096    01-PCW   +CMDFREEX EQU   X'07'   FREE           RDW ADDRESS      --        --
                                   10097             +*                      TRANSACTION
                                   10098             +*
                                   10099    01-PCW   +CMDECB   EQU   X'08'   ECB FOR        ECB ADDRESS      --        --
                                   10100             +*                      POST (SVS)
                                   10101             +*
                                   10102    01-PCW   +CMDPOST  EQU   X'09'   POST HIM            --          --        --
                                   10103             +
                                   10104    01-PCW   +CMDSTAT  EQU   X'0A'   STATISTICS     ADDRESS OF       --        --
                                   10105             +*                      (SVS)          RECEIVE AREA
                                   10106             +*
                                   10107    01-PCW   +CMDPART  EQU   X'0B'   PARTNER INFO   ADDRESS OF    LENGTH OF    --
                                   10108             +*                      (MVS)          RECEIVE AREA  RECEIVE AREA
                                   10109             +*                                     --------------------------------
                                   10110    01-PCW   +CMDMAX   EQU   CMDPART
                                   10111             +*
                                   10112             +*  MASKS WHICH MAY BE ORED WITH PCWCMD:
1DSECTS   PCW:      SUZAN Path Command Word                                                                                 Page  123
0Current Usings:  (CP,R11) (CV,R12)
0D-Loc  Object Code    Addr1 Addr2  Stmt Lv Lineno    Source Statement           (Hibal 5, Asmedit 3.3)  HLASM R4.0  2004/03/15 12.43
+_____  ______ ____    _____ _____  ____ __ ______    ______ _________
0                                  10113             +*
                                   10114    01-PCW   +CMDEND   EQU   X'80'         END OF PCWLIST
                                   10115    01-PCW   +CMDSKIP  EQU   X'10'         DATA SKIP (FOR RETX, RETMX ONLY)
                                   10116    01-PCW   +CMDCLOS  EQU   X'C0'         CLOSE ME AFTER THIS COMMAND
                                   10117    01-PCW   +CMDCLOSC EQU   X'A0'         CLOSE MY CONTROLLEE AFTER THIS COMMAND
                                   10118             +*
                                   10119             +*  RETURN CODES
                                   10120             +*
                                   10121    01-PCW   +RCBDCMD  EQU   4             BAD COMMAND RETURN CODE.
                                   10122    01-PCW   +RCBADPID EQU   8             BAD PATHID ON CMD CALL
                                   10123    01-PCW   +RCSNDOVF EQU   12            OVERFLOW ON SEND COMMAND(S)
                                   10124    01-PCW   +RCNOPART EQU   16            PARTNER ISN'T THERE
                                   10125    01-PCW   +RCDCHNER EQU   20            DATACHAIN PAST SEND COMMANDS
                                   10126    01-PCW   +RCMOFLO  EQU   24            RETRIEVE-MOVE BUFFER TOO SMALL.
                                   10127    01-PCW   +RCFREXBD EQU   28            FREEX RECEIVED WITH NO LOCATE OUT
1DSECTS   RDW:      SUZAN RDW                                                                                               Page  124
0Current Usings:  (CP,R11) (CV,R12)
0D-Loc  Object Code    Addr1 Addr2  Stmt Lv Lineno    Source Statement           (Hibal 5, Asmedit 3.3)  HLASM R4.0  2004/03/15 12.43
+_____  ______ ____    _____ _____  ____ __ ______    ______ _________
0000008                            10129              RDW      NAME
                                   10134
 000000                00000 00008 10135              RDWD     DSECT
                                   10136                       RDW
 000000                            10137    01-RDW   +RDW      DS    0F                  Start of RDW
 000000                            10138    01-RDW   +RDWSZ    DS    H                   Length
 000002                            10139    01-RDW   +RDWUFL   DS    X                   User flags
                                   10140    01-RDW   +RDWONLY  EQU   X'00'  [Unused]     - Only segment
                                   10141    01-RDW   +RDWFRST  EQU   X'01'  [Unused]     - First of >1 segments
                                   10142    01-RDW   +RDWLAST  EQU   X'02'  [Unused]     - Last of >1 segments
                                   10143    01-RDW   +RDWMIDL  EQU   X'03'  [Unused]     - Middle of >1 segments
                                   10144             +
 000003                            10145    01-RDW   +RDWSFL   DS    X                   SVC flags
                                   10146    01-RDW   +RDWSFREE EQU   X'80'               - Located, cmdfreex freed it
                                   10147    01-RDW   +RDWSPAD  EQU   X'40'  [Unused]     - Padded to halfword multiple
                                   10148    01-RDW   +RDWSEOF  EQU   X'20'               - End of file, this controllee
                                   10149             +
                                   10150    01-RDW   +RDWSIZE  EQU   *-RDW               Size of RDW
1DSECTS   UTYPDEFN: User Type Definitions                                                                                   Page  125
0Current Usings:  (CP,R11) (CV,R12)
0D-Loc  Object Code    Addr1 Addr2  Stmt Lv Lineno    Source Statement           (Hibal 5, Asmedit 3.3)  HLASM R4.0  2004/03/15 12.43
+_____  ______ ____    _____ _____  ____ __ ______    ______ _________
0000004                            10152              UTYPDEFN NAME
                                   10157
                                   10158                       COPY  UTYPDEFN
                                   10159             =*
                                   10160             =*        SCIP USERTYPE DEFINITIONS
                                   10161             =*              SYMBOLICS FOR USE WITH HASPSERV MACRO, USERTYPE
                                   10162             =*              FUNCTION.
                                   10163             =*
                                   10164             =$USOPEN  EQU   X'01'               OPEN-SHOP - ACADEMIC, INSTR,
                                   10165             =*                                    RESEARCH, OUTSIDE USERS
                                   10166             =$USINTUS EQU   X'02'               INTERNAL - USER SERVICES
                                   10167             =*                                    (GROUP GA)
                                   10168             =$USINTMS EQU   X'04'               INTERNAL - OPS, ACCOUNTING, MISC.
                                   10169             =*                                    (GROUPS G,H)
                                   10170             =$USINTSY EQU   X'08'               INTERNAL - SYSTEMS
                                   10171             =*                                    (GROUPS GG,GS)
                                   10172             =$USADMIN EQU   X'10'               ADMINISTRATIVE USERS
                                   10173             =*                                    (GROUPS A,C,GE)
                                   10174             =$USSTC   EQU   X'20'               DIRECT STARTED TASK (MVS)
                                   10175             =
                                   10176             =$USRLIN  EQU   X'40'               RLIN
                                   10177             =*                                    (GROUPS B,Y,Z,HH)
                                   10178             =*
                                   10179             =$USINTAL EQU   $USINTUS+$USINTMS+$USINTSY+$USSTC  ALL INTERNAL GROUPS
                                   10180                       END   .
 000008                            10182    02-00641 +       $$LTORG
 000008                00008 00008 10183    02-00643 +$$$C1RDWD         LOCTR
 000008                00008 00008 10184    02-00644 +$$$D1RDWD         LOCTR
 000008                00008 00008 10185    02-00645 +$$$C1RDWD         LOCTR
                                   10186    01-00612 +       $$END

1DSECTS   Ordinary Symbol and Literal Cross Reference                                                                       Page  126
-Symbol   Length   Value     Id    R Type   Defn References                                  HLASM R4.0  2004/03/15 12.43
0$$$@R0        1 00000000 FFFFFFFE     J     705  1002
 $$$@R10       1 00000000 FFFFFFF4     J     835  1066
 $$$@R11       1 00000000 FFFFFFF3     J     848  1079
 $$$@R12       1 00000000 FFFFFFF2     J     861  1092
 $$$@R13       1 00000000 FFFFFFF1     J     874  1105
 $$$@R14       1 00000000 FFFFFFF0     J     887  1118
 $$$@R7        1 00000000 FFFFFFF7     J     796  1015
 $$$@R8        1 00000000 FFFFFFF6     J     809  1028   1040
 $$$@R9        1 00000000 FFFFFFF5     J     822  1053
 $$$C1RDWD
               1 00000008 FFFFFFC7     J   10183 10185
 $$$RATRC      1 00000000 FFFFFFE2     J    7688  7741   7741
 $$$RCTRC      1 00000000 FFFFFFE3     J    7628  7660   7660
 $$$RCV        1 00000000 FFFFFFEC     J    1411  2596   2596
 $$$RDEV       1 00000000 FFFFFFEA     J    4815  4860   4860
 $$$RFDB       1 00000000 FFFFFFE4     J    7504  7612   7612
 $$$RFSB       1 00000000 FFFFFFE5     J    7291  7478   7478
 $$$RHCMRSC
               1 00000000 FFFFFFDA     J    8312  8444   8444
 $$$RKWRRSC
               1 00000000 FFFFFFD5     J    8860  9107   9107
 $$$RNSCNCB
               1 00000000 FFFFFFED     J    1326  1399   1399
 $$$RPSB       1 00000000 FFFFFFDD     J    7982  8243   8243
 $$$RPTRC      1 00000000 FFFFFFE1     J    7775  7814   7814
 $$$RRESOURCE
               1 00000000 FFFFFFD0     J    9555  9596   9596
 $$$RRSCGROUP
               1 00000000 FFFFFFD1     J    9494  9549   9549
 $$$RSSB       1 00000000 FFFFFFDC     J    8259  8298   8298
 $$$RSUBRSC
               1 00000000 FFFFFFD3     J    9121  9401   9401
 $$$RTTYPE
               1 00000000 FFFFFFE9     J    6343  6444   6444
 $$$RUSERCVT
               1 00000000 FFFFFFEE     J    1171  1254   1254
 $$$RVFTRACE
               1 00000000 FFFFFFE0     J    7820  7873   7873
 $$$RVPTRACE
               1 00000000 FFFFFFDF     J    7879  7913   7913
 $$$RVTRC      1 00000000 FFFFFFDE     J    7929  7966   7966
 $$$SEGCB0
               4 00000050 FFFFFFEB     F    2632  2718   2718
 $$LRC         1 00000000 00000001     J    8460  8462   8479
 $USINTMS      1 00000004 FFFFFFC7 A   U   10168 10179
 $USINTSY      1 00000008 FFFFFFC7 A   U   10170 10179
 $USINTUS      1 00000002 FFFFFFC7 A   U   10166 10179
 $USSTC        1 00000020 FFFFFFC7 A   U   10174 10179
 ##$LRC        1 00000000 FFFFFFDB     U    8450  8451
 ##ASYNTRC
               1 00000018 FFFFFFE8     U    7666  7667
 ##CONSTRC
               1 00000018 FFFFFFE8     U    7618  7619
 ##CP          1 00000018 FFFFFFFF     U    2602  2603
 ##CV          1 00000018 FFFFFFFF     U    1405  1406
1DSECTS   Ordinary Symbol and Literal Cross Reference                                                                       Page  127
 ##DVTAREA
               1 00000016 FFFFFFCD     U    9728  9729
 ##FDB         1 00000018 FFFFFFE8     U    7484  7485
 ##FSB         1 00000018 FFFFFFE8     U    7281  7282
 ##HCMRSC      1 00000018 FFFFFFE8     U    8304  8305
 ##HRB         1 00000044 FFFFFFCE     U    9693  9694
 ##JCB         1 00000000 00000001     U    8515  8516
 ##KWRRSC      1 000000E0 FFFFFFD7     U    8852  8853
 ##LRC         1 00000000 FFFFFFDB     U    8455  8456
 ##MIB         1 00000018 FFFFFFE8     U    7199  7200
 ##PATH        1 00000018 FFFFFFCC     U    9790  9791
 ##PCW         1 00000012 FFFFFFC9     U   10057 10058
 ##PDB         1 00000028 FFFFFFCB     U    9837  9838
 ##PDPTRC      1 00000018 FFFFFFE8     U    7747  7748
 ##PFCB        1 00000000 FFFFFFD4     U    9407  9408
 ##PSB         1 00000018 FFFFFFE8     U    7972  7973
 ##RDW         1 00000008 FFFFFFC8     U   10131 10132
 ##RQST        1 00000038 FFFFFFCA     U   10024 10025
 ##RSCGROUP
               1 000000A4 FFFFFFD2     U    9487  9488
 ##RTNCODES
               1 00000000 FFFFFFFF     U    1260  1261
 ##SCANCB      1 00000018 FFFFFFFF     U    1315  1316
 ##SCATBUF
               1 00000044 FFFFFFE8     U    6475  6476
 ##SCIPCVT
               1 00000000 FFFFFFFF     U    1165  1166
 ##SDSNBUF
               1 00000000 FFFFFFE8     U    6451  6452
 ##SIB         1 00000018 FFFFFFE8     U    6494  6495
 ##SIN         1 000000D0 FFFFFFD8     U    8785  8786
 ##SMFKWR      1 000000A4 FFFFFFD2     U    9602  9603
 ##SSB         1 00000018 FFFFFFE8     U    8249  8250
 ##SUBRSC      1 00000000 FFFFFFD6     U    9113  9114
 ##TTYPE       1 00001000 FFFFFFEB     U    6332  6333
 ##USERCVT
               1 00000000 FFFFFFFF     U    1160  1161
 ##UTYPDEFN
               1 00000004 FFFFFFC7     U   10154 10155
 ##VIRTTRC
               1 00000018 FFFFFFE8     U    7919  7920
 ##VOLUME      1 000000F4 FFFFFFCF     U    9632  9633
 @RAR          0 00000000 FFFFFFF0     @    1119  2394   2402B
 @R0           0 00000000 FFFFFFFE     @     706   982U
 @R1           0 00000000 FFFFFFFD     @     719   978U  2400   2401
 @R10          0 00000000 FFFFFFF4     @     836   942U
 @R11          0 00000000 FFFFFFF3     @     849   938U
 @R12          0 00000000 FFFFFFF2     @     862   934U
 @R13          0 00000000 FFFFFFF1     @     875   930U
 @R14          0 00000000 FFFFFFF0     @     888   926U
 @R15          0 00000000 FFFFFFEF     @     901   922U
 @R2           0 00000000 FFFFFFFC     @     732   974U
 @R3           0 00000000 FFFFFFFB     @     745   970U
 @R4           0 00000000 FFFFFFFA     @     758   966U
 @R5           0 00000000 FFFFFFF9     @     771   962U
 @R6           0 00000000 FFFFFFF8     @     784   958U
 @R7           0 00000000 FFFFFFF7     @     797   954U
 @R8           0 00000000 FFFFFFF6     @     810   950U
 @R9           0 00000000 FFFFFFF5     @     823   946U
1DSECTS   Ordinary Symbol and Literal Cross Reference                                                                       Page  128
 ABSCENT       1 00000000 00000000 A   T    2410  2410
 ASCTBL        1 00000000 00000000 A   T    2418  2418
 ATRCCLCK      8 00000000 FFFFFFE2     D    7694  7701   7701   7703
 ATRCDATA      1 00000014 FFFFFFE2     U    7707  7710   7719   7725
 BLTBL         1 00000000 00000000 A   T    2420  2420
 CHECKIOB      1 00000000 00000000 A   T    2466  2466
 CMDPART       1 0000000B FFFFFFC8 A   U   10107 10110
 COMMAND       1 00000000 00000000 A   T    2406  2406
 COMMSEG       1 00000000 00000000 A   T    2407  2407
 CP            1 00000000 FFFFFFEB     J    2606  1136U  4861   6445
 CP#XSTK       1 00000010 FFFFFFEB A   U    4067  4068
 CPACFLG       1 000005D5 FFFFFFEB     R    4170  4174   4179   4184   4189   4194
 CPACFLN       4 000005C4 FFFFFFEB     F    4162  4197   4197
 CPAFLAG       1 000005C3 FFFFFFEB     R    4134  4138   4143   4148   4153
 CPANAME       8 00000588 FFFFFFEB     C    4116  4212   4212
 CPAUTFLG      1 000008A9 FFFFFFEB     R    4480  4484   4489   4494   4499
 CPCHFLAG      1 00000B68 FFFFFFEB     R    5107  5111
 CPDFLG        1 0000084C FFFFFFEB     R    4367  4371   4376   4381   4386   4391
 CPDFLG2       1 0000084D FFFFFFEB     R    4396  4400   4405   4410   4415   4420   4425
 CPEXFLG       1 00000758 FFFFFFEB     R    4236  4240
 CPEXFLG2      1 00000759 FFFFFFEB     R    4246  4255   4265
 CPEXFLG3      1 0000075A FFFFFFEB     R    4272  4276   4281
 CPEXTFLG      1 00000E28 FFFFFFEB     R    5918  5922   5927   5932   5937   5942   5947
 CPFABORT    128 00000D5A FFFFFFEB         5684  2370M  2370   2375M  2375
 CPFERROR     64 00000D5A FFFFFFEB         5689  2369M  2369   2374M  2374
 CPFNTEX       1 00000040 FFFFFFEB A   U    5536  5537
 CPFRDRNG      1 00000D88 FFFFFFEB     R    5804  5808   5813   5818   5823   5828   5833   5838
 CPFRDSRC      1 00000D89 FFFFFFEB     R    5843  5852   5862   5872
 CPFUNUM       1 00000080 FFFFFFEB A   U    5535  5537
 CPFXDFLG      1 000007E4 FFFFFFEB     R    4314  4318   4323
 CPGFLG1       1 00000474 FFFFFFEB     R    3677  3681   3686   3691   3696   3701   4031   4031
 CPGFLG10      1 0000047D FFFFFFEB     R    3914  3918   3923   3928   3933   3938   3943
 CPGFLG11      1 0000047E FFFFFFEB     R    3949  3953   3958
 CPGFLG12      1 0000047F FFFFFFEB     R    3964  3968   3973   3978
 CPGFLG13      1 00000480 FFFFFFEB     R    3984  3988
 CPGFLG14      1 00000481 FFFFFFEB     R    3994  3998   4003   4008   4013   4018
 CPGFLG4       1 00000477 FFFFFFEB     R    3730  3741   3750   3759   3768   3777
 CPGFLG5       1 00000478 FFFFFFEB     R    3783  3787   3792   3797   3802   3807   3812   3817   3822
 CPGFLG6       1 00000479 FFFFFFEB     R    3828  3832   3837   3842
 CPGFLG7       1 0000047A FFFFFFEB     R    3848  3852   3857   3862   3867
 CPGFLG8       1 0000047B FFFFFFEB     R    3873  3877   3882   3887   3892
 CPGFLG9       1 0000047C FFFFFFEB     R    3898  3902   3908
 CPINIT        1 00000174 FFFFFFEB     U    2847  6304
 CPJESFLG      1 000009E1 FFFFFFEB     R    4579  4583   4588   4593   4598   4603   4608   4613   4618
 CPJESFLY      1 000009FD FFFFFFEB     R    4629  4633   4638   4643
 CPJESHFL      1 000009E0 FFFFFFEB     R    4564  4568   4573   4652   4652
 CPLFLG10      1 00000D59 FFFFFFEB     R    5670  5674
 CPLFLG11      1 00000D5A FFFFFFEB     R    5680  5684   5689   5694   5699
 CPLFLG12      1 00000D5B FFFFFFEB     R    5705  5709
 CPLFLG14      1 00000D5C FFFFFFEB     R    5715  5719   5724   5729   5734   5739
 CPLFLG6       1 00000D55 FFFFFFEB     R    5545  5549   5554   5559   5564   5569   5574
 CPLFLG7       1 00000D56 FFFFFFEB     R    5580  5584   5589   5594   5599   5604
 CPLFLG8       1 00000D57 FFFFFFEB     R    5610  5614   5619   5624   5629
 CPLFLG9       1 00000D58 FFFFFFEB     R    5635  5639   5644   5649   5654   5659   5664
 CPLOCALZ      1 00000C48 FFFFFFEB     U    5137  6298   6298
 CPMFLG        1 0000084F FFFFFFEB     R    4434  4438
 CPMODFLG      1 00000C78 FFFFFFEB     R    5165  5169   5174   5179   5184   5189
 CPNAMELN      1 00000010 FFFFFFEB A   U    4060  4307
 CPNEDPFX     10 00000E29 FFFFFFEB     X    5951  5952   5953
1DSECTS   Ordinary Symbol and Literal Cross Reference                                                                       Page  129
 CPNUMFLG      1 00000C79 FFFFFFEB     R    5195  5207
 CPORVCMD      1 00000140 FFFFFFEB     R    2729  2733   2738   2743   2748   2753   2758   2763   2768   2773   2773
                                                  2824   2824
 CPORVFLG      1 00000149 FFFFFFEB     R    2780  2784   2789   2794   2799   2804   2809   2814   2819
 CPORVWF       1 00000150 FFFFFFEB     R    2832  2836
 CPOSCANX      4 00000CA8 FFFFFFEB     F    5364  5431   5431
 CPR          11 0000000B FFFFFFFF A   #    1073  1136U
 CPRACBAD     16 000001FC FFFFFFEB         2898  2932   2932   2933   2933
 CPRACF1       1 000001FC FFFFFFEB     R    2879  2883   2888   2893   2898   2903   2908   2913   2918   2934
 CPRACPSW     32 000001FC FFFFFFEB         2893  2931   2931   2933   2933
 CPRACUND     64 000001FC FFFFFFEB         2888  2931   2931   2932   2932
 CPRCVCUR      4 00000730 FFFFFFEB     A    4215  4217   4217
 CPRFLG        1 000008AA FFFFFFEB     R    4505  4509   4514   4519   4524   4529   4534
 CPS         254 00000344 FFFFFFEB     X    3649  3652   3653   3655   3655
 CPSACCT       5 000003B4 FFFFFFEB     C    3248  3411   3411
 CPSAMCOD      1 00000A22 FFFFFFEB     R    4701  4709   4719   4729   4738   4747   4756   4766   4775   4784
 CPSAMFLG      1 00000A21 FFFFFFEB     R    4661  4665   4670   4675   4680   4685   4690   4695   4806   4806
 CPSCNFLG      1 00000CD0 FFFFFFEB     R    5377  5388   5397   5408
 CPSCNF2       1 00000CD1 FFFFFFEB     R    5413  5417
 CPSCNMAX      1 00000014 FFFFFFEB A   U    5429  5430
 CPSCRI        2 00000434 FFFFFFEB     H    3638  3643   3643
 CPSEGCOD      1 00000050 FFFFFFEB     R    2635  2644   2654   2664   2674   2684   2694   2704
 CPSFL         1 00000384 FFFFFFEB     R    2986  2990   2995   3000   3005   3010
 CPSFLG        1 000003F8 FFFFFFEB     R    3526  3530   3535   3540   3545   3550   3555   3560   3565
 CPSFLG2       1 000003F9 FFFFFFEB     R    3571  3575   3580   3585
 CPSFL2        1 00000385 FFFFFFEB     R    3016  3020   3025   3030   3035
 CPSFL3        1 00000386 FFFFFFEB     R    3041  3045   3050   3055
 CPSFL4        1 00000387 FFFFFFEB     R    3061  3065   3070   3075
 CPSFL5        1 00000388 FFFFFFEB     R    3081  3085   3090   3095
 CPSKAFL       1 000003BF FFFFFFEB     R    3382  3386   3391   3396   3401   3406
 CPSKIFL       1 000003BE FFFFFFEB     R    3337  3341   3346   3351   3356   3361   3366   3371   3376
 CPSOF         1 000001F8 FFFFFFEB     X    2869  2871   2871
 CPSOFLAG      1 00000416 FFFFFFEB     R    3596  3600   3605   3610   3615   3620
 CPSOPST       4 000003C4 FFFFFFEB     F    3416  3645   3645
 CPSPORT       8 00000354 FFFFFFEB     C    2980  3100   3100
 CPSQFLG       1 000003EC FFFFFFEB     R    3445  3449
 CPSSFLG       1 000003BB FFFFFFEB     R    3255  3259   3264   3269   3274   3279   3284
 CPSSTART      4 00000344 FFFFFFEB     F    2972  2976   2976   3412   3412   3517   3517   3649   3649
 CPSSTAT       1 0000038F FFFFFFEB     R    3192  3196   3201   3206   3211   3216   3221   3226
 CPSTACF       1 000003BC FFFFFFEB     R    3290  3294   3299   3304   3309   3314   3319   3324   3329
 CPSTART       4 00000000 FFFFFFEB     C    2608  6302   6306
 CPSTFLAG      1 000003EA FFFFFFEB     R    3423  3427   3432   3437
 CPSTYPE       1 0000038C FFFFFFEB     R    3105  3114   3124   3134   3144   3154   3164   3174   3184
 CPSUFLG       1 000003EE FFFFFFEB     R    3460  3464   3469   3474   3479   3484   3489   3494   3499
 CPSUFLG2      1 000003EF FFFFFFEB     R    3505  3509   3514
 CPSVPGM       8 0000039C FFFFFFEB     C    3238  3244   3244
 CPS1ST        4 0000038C FFFFFFEB     F    3102  3647   3647
 CPTEMPP#      1 0000005F FFFFFFEB A   U    4555  4557
 CPTRMFL1      1 00000C7A FFFFFFEB     R    5213  5217   5222   5227   5351   5351
 CPTRMFL2      1 00000C7B FFFFFFEB     R    5233  5237   5242   5247   5252   5257   5262
 CPTRMFL3      1 00000C7C FFFFFFEB     R    5268  5272   5277   5282   5287   5292   5297   5302
 CPTRMFL4      1 00000C7D FFFFFFEB     R    5308  5312   5317   5322   5327   5332   5337   5342
 CPUSED        1 00000FBC FFFFFFEB A   U    6302  6303
 CPVACURS      8 00000AF0 FFFFFFEB     D    5080  5081   5082
 CPVCURS       8 00000AE0 FFFFFFEB     D    5074  5075   5076
 CPVFLAG       1 00000AC8 FFFFFFEB     R    4875  4879   4884   4889   4894   4899
 CPVFLAG2      1 00000AC9 FFFFFFEB     R    4905  4909   4914   4919   4924   4929   4934
 CPVFLAG3      1 00000ACA FFFFFFEB     R    4940  4944   4949   4954   4959   4964   4969
 CPVFLAG4      1 00000ACB FFFFFFEB     R    4975  4979   4984   4989
1DSECTS   Ordinary Symbol and Literal Cross Reference                                                                       Page  130
 CPVLFLAG      1 00000ACE FFFFFFEB     R    5044  5048   5053   5058
 CPVMODE       1 00000ACC FFFFFFEB     R    4997  5001   5006   5011   5016   5021   5026   5031   5036
 CPVTWID       2 00000AD0 FFFFFFEB     H    5064  5067   5067
 CPWK1         4 00000D60 FFFFFFEB     F    5748  5763   5786
 CPWK2         4 00000D64 FFFFFFEB     F    5749  5764   5778
 CPWK3         4 00000D68 FFFFFFEB     F    5750  5765   5779
 CPWK4         4 00000D6C FFFFFFEB     F    5751  5766   5780
 CPWK5         4 00000D70 FFFFFFEB     F    5752  5768   5773   5781
 CPWK6         4 00000D74 FFFFFFEB     F    5753  5769   5774   5782   5789   5791
 CPWK7         4 00000D78 FFFFFFEB     F    5754  5767   5783
 CPXFLAG       1 000007FD FFFFFFEB     R    4342  4346
 CPXSTATE      4 000007F8 FFFFFFEB     F    4336  4349   4349
 CTRCCLCK      8 00000000 FFFFFFE3     D    7634  7639   7639   7641
 CTRCDATA      1 00000012 FFFFFFE3     U    7644  7647
 CV         4016 00000000 FFFFFFEC     J    2596  1145U
 CVABSRTN      4 0000088C FFFFFFEC     V    2410  2385
 CVBRMSK       1 00000751 FFFFFFEC     X    2326  2327   2328
 CVCFLAG       1 00000A00 FFFFFFEC     R    2491  2495   2500   2505   2510   2515
 CVCHKST       8 000009F0 FFFFFFEC     D    2481  2571   2571
 CVCHKST2      8 00000E28 FFFFFFEC     D    2574  2577   2577
 CVCOMRTN      4 0000087C FFFFFFEC     V    2406  2376
 CVDBGFLG      1 000004CC FFFFFFEC     R    2180  2184
 CVENTBR       2 00000750 FFFFFFEC     I    2325  2326
 CVERROR       4 000007D6 FFFFFFEC     I    2374  2390B
 CVEXIRTN      4 0000077C FFFFFFEC     V    2354  2350
 CVFCHRKBPR
               8 000004C9 FFFFFFEC         2095  2111   2111
 CVFCHRKBSE
               4 000004C9 FFFFFFEC         2100  2111   2111
 CVFCHRKCPR
               2 000004C9 FFFFFFEC         2117  2133   2133
 CVFCHRKCSE
               1 000004C9 FFFFFFEC         2122  2133   2133
 CVFCHRUBPR
             128 000004C9 FFFFFFEC         2051  2067   2067
 CVFCHRUBSE
              64 000004C9 FFFFFFEC         2056  2067   2067
 CVFCHRUCPR
              32 000004C9 FFFFFFEC         2073  2089   2089
 CVFCHRUCSE
              16 000004C9 FFFFFFEC         2078  2089   2089
 CVFL          1 000004C4 FFFFFFEC     R    1847  1851   1856   1861   1866   1871   1876   1881   1886
 CVFL2         1 000004C5 FFFFFFEC     R    1892  1896   1901   1906   1911   1916   1921   1926   1931
 CVFL3         1 000004C6 FFFFFFEC     R    1937  1941   1946   1951   1956   1961   1966   1971   1976
 CVFL4         1 000004C7 FFFFFFEC     R    1982  1986   1991   1996   2001   2006   2011   2016
 CVFL5         1 000004C8 FFFFFFEC     R    2022  2026   2031   2036   2041
 CVFL6         1 000004C9 FFFFFFEC     R    2047  2051   2056   2068   2073   2078   2090   2095   2100   2112   2117
                                                  2122   2134
 CVHEAP#       1 00000200 FFFFFFEC A   U    1753  1754
 CVINVRTN      4 00000888 FFFFFFEC     V    2409  2379
 CVJESFLG      1 000004CA FFFFFFEC     R    2140  2144
 CVLNKRGS      4 00000780 FFFFFFEC     F    2356  2331M  2357
 CVLNKRTN      4 000007B0 FFFFFFEC     U    2357  2346M
 CVLOCK1       1 00000088 FFFFFFEC     R    1498  1502   1507
 CVLOCK2       1 00000089 FFFFFFEC     R    1512  1516
 CVLOCK3       1 0000008A FFFFFFEC     R    1521  1525
 CVLOCK4       1 0000008B FFFFFFEC     R    1530  1534
 CVLOGMOD      1 00000068 FFFFFFEC     R    1485  1489
 CVMACH        1 00000067 FFFFFFEC     R    1445  1449   1454   1459   1464   1469   1474   1479
1DSECTS   Ordinary Symbol and Literal Cross Reference                                                                       Page  131
 CVMILRTN      4 00000884 FFFFFFEC     V    2408  2388
 CVNOARTN      4 00000890 FFFFFFEC     V    2411  2382
 CVNWDATE      4 00000608 FFFFFFEC     F    2213  2217   2217
 CVNWMPG#      1 00000008 FFFFFFEC A   U    2215  2216
 CVPFXRTN      1 00000000 00000000 A   T    2354  2354
 CVPGFLAG      1 00000A01 FFFFFFEC     R    2521  2525   2530   2535
 CVPIOSZ       1 00004F80 FFFFFFEC A   U    1584  1586
 CVPPDBQH      4 0000009C FFFFFFEC     A    1542  1543
 CVPSFNO       1 000003E9 FFFFFFEC A   N    1706  1708
 CVPSLNO       1 000007CF FFFFFFEC A   N    1707  1708
 CVPXSZ        1 00000008 FFFFFFEC A   U    1585  1586
 CVR          12 0000000C FFFFFFFF A   #    1086  1145U
 CVRKEY        1 00000008 FFFFFFEC A   U    2279  2280
 CVSEGRTN      4 00000880 FFFFFFEC     V    2407  2371
 CVSTACK#      1 00000080 FFFFFFEC A   U    1745  1746
 CVSTART       4 00000000 FFFFFFEC     C    1418  2589
 CVTRC         4 00000768 FFFFFFEC     I    2346  2332B
 CVTRCRTN      4 00000778 FFFFFFEC     V    2353  2347
 CVUSFNO       1 00000001 FFFFFFEC A   N    1713  1715
 CVUSLNO       1 000003E7 FFFFFFEC A   N    1714  1715
 CVVOL#        1 00000005 FFFFFFEC A   U    2564  2565
 CVWTOFLG      1 000004CB FFFFFFEC     R    2150  2154   2159   2164   2169   2174
 DEBUGSG       1 00000000 00000000 A   T    2307  2307
 DEV          12 00000000 FFFFFFEA     J    4860  4868
 DEVMAX#       1 00000002 FFFFFFEB A   U    4811  4868
 DEVTYPE       1 00000001 FFFFFFEA     R    4828  4837   4847
 DOTTBL        1 00000000 00000000 A   T    2423  2423
 DRENCFLG      1 00000F9F FFFFFFEB     R    6266  6270   6275   6280   6285   6290
 DRENPROT      1 00000F9E FFFFFFEB     R    6253  6261
 DSNON        40 00000E90 FFFFFFEB     C    5986  5987
 DSNWADSN     44 00000E5C FFFFFFEB     C    5973  5974   5975   5976   5985   5993   6224   6230   6232   6238   6241
                                                  6243   6246   6295
 DSNWAF4       1 00000F37 FFFFFFEB     R    6041  6045   6050   6055   6060   6065   6070   6075   6080
 DSNWAF5       1 00000F38 FFFFFFEB     R    6086  6090   6095   6100   6105   6110   6115   6120   6125
 DSNWAF6       1 00000F39 FFFFFFEB     R    6131  6135   6140   6145   6150   6155   6160   6165   6170
 DSNWAF7       1 00000F3A FFFFFFEB     R    6176  6180   6185   6190   6195
 DSNXG         1 00000004 FFFFFFEB A   U    5978  5980
 DSNXGL        1 00000003 FFFFFFEB A   U    5979  5980
 DSNXU         1 00000007 FFFFFFEB A   U    5980  5982
 DSNXUL        1 00000004 FFFFFFEB A   U    5981  5982
 DSSIZ         1 00000108 FFFFFFEB A   U    6224  6232   6241   6246
 DVTDEVCD      4 00000000 FFFFFFCC     F    9735  9737   9741   9750
 EBCTBL        1 00000000 00000000 A   T    2419  2419
 EBCTBL7       1 00000000 00000000 A   T    2422  2422
 ECBLIST       1 00000000 00000000 A   T    2282  2282
 EPARTBL       1 00000000 00000000 A   T    2414  2414
 FDBF          4 00000000 FFFFFFE4     F    7577  7580   7585   7585   7588   7596   7596   7599   7600   7600   7603
                                                  7604   7604
 FDBT          4 00000000 FFFFFFE4     F    7511  7520   7520   7525   7525   7553   7553   7573   7573   7576
 FDBTDATA      1 00000004 FFFFFFE4     U    7516  7519   7523   7528   7556
 FDBT101F      1 00000004 FFFFFFE4     R    7531  7535   7540   7545   7550
 FDBT102F      1 00000006 FFFFFFE4     R    7561  7565   7570
 FSBPFLG       1 00000068 FFFFFFE5     R    7419  7423   7428   7433
 FSBPFLG2      1 00000069 FFFFFFE5     R    7439  7443   7448   7453
 FSBTYPE       1 00000002 FFFFFFE5     R    7301  7310   7320   7330   7340   7350   7360   7370   7380   7390   7400
 FSBUC         2 00000008 FFFFFFE5     H    7408  7471   7471
 HCM$ECB       4 0000000C FFFFFFDA     A    8323  8383
 HCMFLAGS      1 00000014 FFFFFFDA     R    8328  8332   8337   8342
 HCMP          4 00000018 FFFFFFDA     F    8348  8407
1DSECTS   Ordinary Symbol and Literal Cross Reference                                                                       Page  132
 HCMPTRS       8 00000058 FFFFFFDA     D    8432  8436   8436
 HCMRSCD       1 00000000 FFFFFFDB     J    8308  8445
 HCMSFLG       1 00000051 FFFFFFDA     X    8409  8371
 HCMWFLG       1 00000053 FFFFFFDA     R    8414  8418   8423   8428
 HIBAL         1 00000000 FFFFFFFF     J     691   707    720    733    746    759    772    785    798    811    824
                                                   837    850    863    876    889    902   1004   1017   1030   1042
                                                  1055   1068   1081   1094   1107   1120   1255   1400   2597
 HSPFMIL       1 00000080 FFFFFFEE A   U    1183  1187   1188
 HSPFORV       1 00000020 FFFFFFEE A   U    1185  1187
 HSPFORVR      1 00000010 FFFFFFEE A   U    1186  1188
 HSPFWYL       1 00000040 FFFFFFEE A   U    1184  1187   1188
 INVALID       1 00000000 00000000 A   T    2409  2409
 JCBAFL        1 00000062 FFFFFFD8     R    8633  8637   8642   8647   8652   8657   8662   8667   8672
 JCBBFL        1 00000063 FFFFFFD8     R    8678  8682   8687   8692   8697   8702   8707   8712
 JCBBILLX      8 00000088 FFFFFFD8     D    8763  8771   8771
 JCBRSCF1      1 00000064 FFFFFFD8     R    8718  8722   8727   8732
 JCBSFLG1      1 00000065 FFFFFFD8     R    8738  8742   8747
 JCBWFL        1 00000060 FFFFFFD8     R    8562  8566   8571   8576   8581   8586   8591   8596   8601   8629
 JCBWWFL       1 00000061 FFFFFFD8     R    8607  8611   8616   8621   8626
 KIOFLAGS      1 00000014 FFFFFFD5     R    8879  8883   8888   8893
 KWLIST        4 0000001C FFFFFFD5     A    8902  8903
 KWR         504 00000024 FFFFFFD5     X    9100  8902
 KWRDSTRT      1 00000029 FFFFFFD5     U    8917  9079   9079
 KWRRSCD       1 00000000 FFFFFFD6     J    8856  9108
 KWRST         4 00000024 FFFFFFD5     F    8907  9100   9100
 KWRSTART      4 00000024 FFFFFFD5     F    8912  9093
 KWRUSER       3 00000024 FFFFFFD5     C    8913  8915   8915
 LOWTBL        1 00000000 00000000 A   T    2417  2417
 MIBFLAG       1 00000064 FFFFFFE6     R    7223  7227
 MIBSTART      8 00000000 FFFFFFE6     D    7214  7268   7268
 MILERR        1 00000000 00000000 A   T    2408  2408
 NBLTBL        1 00000000 00000000 A   T    2421  2421
 NOACTION      1 00000000 00000000 A   T    2411  2411
 NPARTBL       1 00000000 00000000 A   T    2415  2415
 NSCNCB      176 00000000 FFFFFFED     J    1399  2721
 NSCNFLGS      1 00000008 FFFFFFED     R    1336  1340   1345
 NSCNTYPE      1 00000018 FFFFFFED     R    1354  1358   1363   1368   1373   1378
 PATH          4 00000000 FFFFFFCB     F    9796  9833
 PCW           4 00000000 FFFFFFC8     F   10066 10073
 PDBBYT1       1 0000000E FFFFFFCA     X    9866  9898
 PDBBYT2       1 0000000F FFFFFFCA     X    9867  9904
 PDBCMDFL      1 00000007 FFFFFFCA     X    9854  9890   9890   9896
 PDBINCT       2 00000030 FFFFFFCA     H    9884  9888   9888
 PDBSINP       4 00000010 FFFFFFCA     A    9869  9870
 PDBSTRT       4 00000000 FFFFFFCA     F    9846  9891   9891
 PDBVPGM       8 00000014 FFFFFFCA     C    9872  9878   9878
 PFCB          1 00000000 FFFFFFD2     J    9411  9550   9597
 PFCBFL        1 00000058 FFFFFFD2     R    9438  9442   9447
 PFCBSECM      1 00000013 FFFFFFD2 A   U    9453  9454
 PSBFLAG       1 00000048 FFFFFFDD     R    8112  8116   8121   8126   8131   8136
 PSBFLAG2      1 00000049 FFFFFFDD     R    8142  8146   8151   8156   8161
 PSBFLAG3      1 0000004A FFFFFFDD     R    8167  8171   8176   8181
 PSBFLAG4      1 0000004B FFFFFFDD     R    8187  8191   8196   8201
 PSBFLAG5      1 0000004C FFFFFFDD     R    8207  8211   8216   8221
 PSBTTYPE      1 00000004 FFFFFFDD     R    7993  8002   8012   8022   8032   8042   8052   8062   8072   8082   8092
 PSBUC         2 00000014 FFFFFFDD     H    8102  8236   8236
 PTRCCLCK      8 00000000 FFFFFFE1     D    7781  7784   7786   7786   7788
 PTRCDATA      1 00000018 FFFFFFE1     U    7791  7794   7803
 RAR          14 0000000E FFFFFFFF A   #    1112  2346   2347M  2348B  2350M  2351B  2371M  2372B  2376M  2377B  2379M
1DSECTS   Ordinary Symbol and Literal Cross Reference                                                                       Page  133
                                                  2380B  2382M  2383B  2385M  2386B  2388M  2389M  2389B  2395
 RDW           4 00000000 FFFFFFC7     F   10137 10150
 RQSTCMFL      1 00000009 FFFFFFC9     X   10037 10049  10049
 RQSTLEN       2 00000000 FFFFFFC9     H   10030 10051  10051
 RQSTRSV       2 00000004 FFFFFFC9     H   10033 10050  10050
 RSCFLAGS      1 00000014 FFFFFFD0     R    9572  9576   9581   9586
 RSGFLG1       1 0000003B FFFFFFD1     R    9524  9528   9533   9538   9541
 R0            0 00000000 FFFFFFFF A   #     699  2331   2400M
 R1            1 00000001 FFFFFFFF A   #     712  2394M  2395M  2401M
 R12          12 0000000C FFFFFFFF A   #     855  2357
 R14          14 0000000E FFFFFFFF A   #     881  2332M
 R15          15 0000000F FFFFFFFF A   #     894  2331
 R7            7 00000007 FFFFFFFF A   #     790  2324M  2324   2325B  2337B
 SBUF          8 00000000 FFFFFFE8     D    6455  6471   6479
 SCBUF         8 00000000 FFFFFFE8     D    6480  6490
 SDSNBUF       1 00000000 FFFFFFE8     J    6448  7194   7276   7479   7613   7661   7742   7815   7874   7914   7967
                                                  8244   8299
 SDSNQSZ       1 0000002C FFFFFFEB A   U    6227  6228   6229
 SIBACCT       5 00000070 FFFFFFE7     C    6785  6948   6948
 SIBCRI        2 000000F0 FFFFFFE7     H    7175  7180   7180
 SIBFL         1 00000040 FFFFFFE7     R    6523  6527   6532   6537   6542   6547
 SIBFLG        1 000000B4 FFFFFFE7     R    7063  7067   7072   7077   7082   7087   7092   7097   7102
 SIBFLG2       1 000000B5 FFFFFFE7     R    7108  7112   7117   7122
 SIBFL2        1 00000041 FFFFFFE7     R    6553  6557   6562   6567   6572
 SIBFL3        1 00000042 FFFFFFE7     R    6578  6582   6587   6592
 SIBFL4        1 00000043 FFFFFFE7     R    6598  6602   6607   6612
 SIBFL5        1 00000044 FFFFFFE7     R    6618  6622   6627   6632
 SIBKAFL       1 0000007B FFFFFFE7     R    6919  6923   6928   6933   6938   6943
 SIBKIFL       1 0000007A FFFFFFE7     R    6874  6878   6883   6888   6893   6898   6903   6908   6913
 SIBOFLAG      1 000000D2 FFFFFFE7     R    7133  7137   7142   7147   7152   7157
 SIBOPST       4 00000080 FFFFFFE7     F    6953  7182   7182
 SIBPORT       8 00000010 FFFFFFE7     C    6517  6637   6637
 SIBQFLG       1 000000A8 FFFFFFE7     R    6982  6986
 SIBSFLG       1 00000077 FFFFFFE7     R    6792  6796   6801   6806   6811   6816   6821
 SIBSTART      4 00000000 FFFFFFE7     F    6509  6513   6513   6949   6949   7054   7054   7186   7186
 SIBSTAT       1 0000004B FFFFFFE7     R    6729  6733   6738   6743   6748   6753   6758   6763
 SIBTACF       1 00000078 FFFFFFE7     R    6827  6831   6836   6841   6846   6851   6856   6861   6866
 SIBTFLAG      1 000000A6 FFFFFFE7     R    6960  6964   6969   6974
 SIBTYPE       1 00000048 FFFFFFE7     R    6642  6651   6661   6671   6681   6691   6701   6711   6721
 SIBUFLG       1 000000AA FFFFFFE7     R    6997  7001   7006   7011   7016   7021   7026   7031   7036
 SIBUFLG2      1 000000AB FFFFFFE7     R    7042  7046   7051
 SIBVPGM       8 00000058 FFFFFFE7     C    6775  6781   6781
 SIB1ST        4 00000048 FFFFFFE7     F    6639  7184   7184
 SINVPGM       8 00000098 FFFFFFD7     C    8823  8829   8829
 SSBFLAG       1 00000014 FFFFFFDC     R    8272  8276
 SSBNAME       8 00000004 FFFFFFDC     C    8268  8291   8291
 SUBACB        4 0000003C FFFFFFD3     F    9191  9272   9340
 SUBFLAG       1 00000038 FFFFFFD3     R    9171  9175
 SUBFLAGS      1 00000014 FFFFFFD3     R    9138  9142   9147   9152
 SUBMDCBL      4 000000F4 FFFFFFD3     A    9379  9380   9381
 SUBRPL        4 00000088 FFFFFFD3     F    9235  9385
 SUBRSCD       1 00000000 FFFFFFD4     J    9117  9402
 SUBTSCBL      4 000000D4 FFFFFFD3     A    9335  9336
 TRC           1 00000000 00000000 A   T    2353  2353
 TTYFLAG       1 00000004 FFFFFFE9     R    6353  6357
 TTYMAX#       1 00000006 FFFFFFE9 A   U    6409  6410
 TTYTFLAG      1 00000005 FFFFFFE9     R    6363  6367   6372   6377   6382   6387   6392   6397
 UPPTBL        1 00000000 00000000 A   T    2416  2416
 VFTTEXT       4 00000014 FFFFFFE0     F    7847  7850   7855   7861
1DSECTS   Ordinary Symbol and Literal Cross Reference                                                                       Page  134
 VFTTYPE       1 00000010 FFFFFFE0     X    7833  7835   7838   7841
 VOLOPNS       2 00000010 FFFFFFCE     H    9667  9674   9674
 VOLOWNF1      1 00000030 FFFFFFCE     X    9685  9689   9689
 VPTSENS       4 0000001C FFFFFFDF     X    7902  7903
 VTRCCLCK      8 00000000 FFFFFFDE     D    7935  7941   7941   7943
 VTRCDATA      1 00000012 FFFFFFDE     U    7946  7949   7958
 WTOSG         1 00000000 00000000 A   T    2313  2313

1DSECTS   Macro and Copy Code Source Summary                                                                                Page  135
- Con Source                                        Volume    Members                        HLASM R4.0  2004/03/15 12.43
0     PRIMARY INPUT                                           CSECT    DROP     END      EX       LTORG    NAME     POP
                                                              PRINT    PUSH     START    USING
   L1 WYL.GS.WYL.WYLBUR.MACLIB                      SYSB05    AINFO    ALLOPARM COLINFO  CP       CPLOCAL  CV
                                                              CVLOCAL  HCMRSC   JCB      KWRRSC   PFCB     RG
                                                              RSCGROUP RSCHDR   RTNCODES SCANCB   SCATBUF  SDSNBUF
                                                              SUBRSC   TTYPE    VOLUME   XTRACE
   L2 WYL.GG.SYS.MACLIB                             SYSB05    $BFLKUP  $BV      $CCLKUP  $LOR     $RGLKUP  $USLKUP
                                                              BEGIN    CSECT    DEFCC    DROP     END      EQS      EX
                                                              FLAG     GEN      HIBAL    IDENT    LABEL    LC
                                                              LTORG    POP      PRINT    PUSH     RECORD   REG      REGS
                                                              START    USING
   L3 SYS3.IS.MACLIB                                SYSB05    $LRC     ASYNTRC  CONSTRC  DEFINE   DVTAREA  FDB      FSB
                                                              HRB      KWR      MIB      PDB      PDPTRC   PSB      RQST
                                                              SEGCB    SIB      SIN      SMFKWR   SSB      SYSDEFN
                                                              VFTRACE  VIRTTRC  VPTRACE
   L4 SYS3.MACLIB                                   SYSB02    PATH     PCW      RDW      SCIPCVT  USERCVT  UTYPDEFN
   L5 SYS1.MACLIB                                   MVSBR9    ACB      ACBVS    DCB      IDACBACB IDACBOPT IDACBRPL
                                                              IDACB1   IDACB2   IDACB3   IDAVSACB IDAVSCB3 IDAVSOPT
                                                              IDAVSRPL IHB01    MODCB    RPL      RPLVS    TESTCB

1DSECTS   Dsect Cross Reference                                                                                             Page  136
-Dsect     Length      Id       Defn                                                         HLASM R4.0  2004/03/15 12.43
0$$$@R0   00000000  FFFFFFFE     705
 $$$@R1   00000000  FFFFFFFD     718
 $$$@R10  00000000  FFFFFFF4     835
 $$$@R11  00000000  FFFFFFF3     848
 $$$@R12  00000000  FFFFFFF2     861
 $$$@R13  00000000  FFFFFFF1     874
 $$$@R14  00000000  FFFFFFF0     887
 $$$@R15  00000000  FFFFFFEF     900
 $$$@R2   00000000  FFFFFFFC     731
 $$$@R3   00000000  FFFFFFFB     744
 $$$@R4   00000000  FFFFFFFA     757
 $$$@R5   00000000  FFFFFFF9     770
 $$$@R6   00000000  FFFFFFF8     783
 $$$@R7   00000000  FFFFFFF7     796
 $$$@R8   00000000  FFFFFFF6     809
 $$$@R9   00000000  FFFFFFF5     822
 $$$RATRC 00000036  FFFFFFE2    7688
 $$$RCTRC 00000036  FFFFFFE3    7628
 $$$RCV   00000FB0  FFFFFFEC    1411
 $$$RDEV  0000000C  FFFFFFEA    4815
 $$$RFDB  00000010  FFFFFFE4    7504
 $$$RFSB  00000090  FFFFFFE5    7291
 $$$RHCMRSC
          00000068  FFFFFFDA    8312
 $$$RKWRRSC
          0000021C  FFFFFFD5    8860
 $$$RNSCNCB
          000000B0  FFFFFFED    1326
 $$$RPSB  00000074  FFFFFFDD    7982
 $$$RPTRC 0000003A  FFFFFFE1    7775
 $$$RRESOURCE
          00000018  FFFFFFD0    9555
 $$$RRSCGROUP
          0000003C  FFFFFFD1    9494
 $$$RSSB  00000038  FFFFFFDC    8259
 $$$RSUBRSC
          0000411C  FFFFFFD3    9121
 $$$RTTYPE
          0000010C  FFFFFFE9    6343
 $$$RUSERCVT
          0000035F  FFFFFFEE    1171
 $$$RVFTRACE
          00000020  FFFFFFE0    7820
 $$$RVPTRACE
          00000020  FFFFFFDF    7879
 $$$RVTRC 00000052  FFFFFFDE    7929
 $$$R42   000000FE  FFFFFFE7    6500
 $$$R51   000000FC  FFFFFFE6    7205
 CP       00001000  FFFFFFEB    2606
 DVTAREA  00000018  FFFFFFCC    9732
 HCMRSCD  00000000  FFFFFFDB    8308
 HIBAL    00000018  FFFFFFFF     691
 HRBD     00000016  FFFFFFCD    9697
 JCB      000000D0  FFFFFFD8    8519
 KWRRSCD  00000000  FFFFFFD6    8856
1DSECTS   Dsect Cross Reference                                                                                             Page  137
 LRCDSECT 00000006  FFFFFFD9    8466
 PATHD    00000028  FFFFFFCB    9794
 PCWD     00000008  FFFFFFC8   10061
 PDB      00000038  FFFFFFCA    9841
 PFCB     000000A4  FFFFFFD2    9411
 RDWD     00000008  FFFFFFC7   10135
 RQST     00000012  FFFFFFC9   10028
 SDSNBUF  00000044  FFFFFFE8    6448
 SIN      000000E0  FFFFFFD7    8789
 SMFKWRD  000000F4  FFFFFFCF    9606
 SUBRSCD  00000000  FFFFFFD4    9117

1DSECTS   Using Map                                                                                                         Page  138
-                                                                                            HLASM R4.0  2004/03/15 12.43
   Stmt  -----Location----- Action ----------------Using----------------- Reg Max    Last  Label and Using Text
           Count      Id           Type          Value    Range     Id        Disp   Stmt
0   922  00000000  FFFFFFFF USING  ORDINARY    00000000 00001000 FFFFFFEF  15 000          @R15,15
    926  00000000  FFFFFFFF USING  ORDINARY    00000000 00001000 FFFFFFF0  14 002    2402  @R14,14
    930  00000000  FFFFFFFF USING  ORDINARY    00000000 00001000 FFFFFFF1  13 000          @R13,13
    934  00000000  FFFFFFFF USING  ORDINARY    00000000 00001000 FFFFFFF2  12 000          @R12,12
    938  00000000  FFFFFFFF USING  ORDINARY    00000000 00001000 FFFFFFF3  11 000          @R11,11
    942  00000000  FFFFFFFF USING  ORDINARY    00000000 00001000 FFFFFFF4  10 000          @R10,10
    946  00000000  FFFFFFFF USING  ORDINARY    00000000 00001000 FFFFFFF5   9 000          @R9,9
    950  00000000  FFFFFFFF USING  ORDINARY    00000000 00001000 FFFFFFF6   8 000          @R8,8
    954  00000000  FFFFFFFF USING  ORDINARY    00000000 00001000 FFFFFFF7   7 000          @R7,7
    958  00000000  FFFFFFFF USING  ORDINARY    00000000 00001000 FFFFFFF8   6 000          @R6,6
    962  00000000  FFFFFFFF USING  ORDINARY    00000000 00001000 FFFFFFF9   5 000          @R5,5
    966  00000000  FFFFFFFF USING  ORDINARY    00000000 00001000 FFFFFFFA   4 000          @R4,4
    970  00000000  FFFFFFFF USING  ORDINARY    00000000 00001000 FFFFFFFB   3 000          @R3,3
    974  00000000  FFFFFFFF USING  ORDINARY    00000000 00001000 FFFFFFFC   2 000          @R2,2
    978  00000000  FFFFFFFF USING  ORDINARY    00000000 00001000 FFFFFFFD   1 001    2401  @R1,1
    982  00000000  FFFFFFFF USING  ORDINARY    00000000 00001000 FFFFFFFE   0 000          @R0,0
    983  00000000  FFFFFFFF DROP                                            0              0
   1136  00000000  FFFFFFFF USING  ORDINARY    00000000 00001000 FFFFFFEB  11 D5A    2375  CP,CPR
   1145  00000000  FFFFFFFF USING  ORDINARY    00000000 00001000 FFFFFFEC  12 890    2390  CV,CVR

1         General Purpose Register Cross Reference                                                                          Page  139
- Register  References (M=modified, B=branch, U=USING, D=DROP, N=index)                      HLASM R4.0  2004/03/15 12.43
0    0(0)      982U   983D  2331   2399M  2399   2400M
     1(1)      978U  2331   2394M  2395M  2401M
     2(2)      974U  2331
     3(3)      970U  2331
     4(4)      966U  2331
     5(5)      962U  2331
     6(6)      958U  2331
     7(7)      954U  2324M  2324   2325B  2331   2337B
     8(8)      950U  2331
     9(9)      946U  2331
    10(A)      942U  2331
    11(B)      938U  1136U  2331
    12(C)      934U  1145U  2331
    13(D)      930U  2331
    14(E)      926U  2331   2332M  2346   2347M  2348B  2350M  2351B  2371M  2372B  2376M  2377B  2379M  2380B  2382M
              2383B  2385M  2386B  2388M  2389M  2389B  2395
    15(F)      922U  2331

1DSECTS   Diagnostic Cross Reference and Assembler Summary                                                                  Page  140
-                                                                                            HLASM R4.0  2004/03/15 12.43
0     No Statements Flagged in this Assembly
 HIGH LEVEL ASSEMBLER, 5696-234, RELEASE 4.0, PTF P72483
0SYSTEM: OS/390 02.10.00            JOBNAME: WYL#DSEC    STEPNAME: ASM        PROCSTEP: (NOPROC)
0Datasets Allocated for this Assembly
  Con DDname   Dataset Name                                 Volume  Member
   P1 SYSIN    WYL.GS.WYL.WYLBUR.SOURCE                     SYSB05  DSECTS
   L1 SYSLIB   WYL.GS.WYL.WYLBUR.MACLIB                     SYSB05
   L2          WYL.GG.SYS.MACLIB                            SYSB05
   L3          SYS3.IS.MACLIB                               SYSB05
   L4          SYS3.MACLIB                                  SYSB02
   L5          SYS1.MACLIB                                  MVSBR9
   L6          SYS1.MODGEN                                  MVSBR9
      SYSPRINT SYS04075.T124307.RA000.WYL#DSEC.PRINT.H01    SCR100
      SYSTERM  GG$SLP.WYL#DSEC.JOB03518.D0000101.?

    3668K allocated to Buffer Pool,         2269K would be required for this to be an In-Storage Assembly
     197 Primary Input Records Read        15721 Library Records Read                  0 Work File Reads
       0 ASMAOPT Records Read               9292 Primary Print Records Written         0 Work File Writes
       0 Punch Records Written                 0 ADATA Records Written
0Assembly Start Time: 12.43.09 Stop Time: 12.43.16 Processor Time: 00.00.01.6956
 Return Code 000
