1                        J E S 2  J O B  L O G  --  S Y S T E M  S Y S B  --  N O D E  R L G
0
 12.47.02 JOB03533 ---- MONDAY,    15 MAR 2004 ----
 12.47.02 JOB03533  ICH70001I GG$SLP   LAST ACCESS AT 12:46:44 ON MONDAY, MARCH 15, 2004
 12.47.02 JOB03533  $HASP373 WYL#ITES STARTED - INIT 9    - CLASS B - SYS SYSB
 12.47.02 JOB03533  ***  HCMD      STEP $$QUIET
 12.47.02 JOB03533  PUR * Q OUT MUL
 12.47.02 JOB03533  JOB 5396 WYL#ITES WILL BE PURGED
 12.47.03 JOB03533  WYL#ITES.$$QUIET .         RC=Zero TapeIO=0000 DiskIO=0000 CPU=  .01s Elapsed=22.20s
 12.47.08 JOB03533  WYL#ITES.ASM     .         RC=Zero TapeIO=0000 DiskIO=0551 CPU= 3.64s Elapsed=23.48s
 12.47.09 JOB03533  WYL#ITES.EDIT    .         RC=Zero TapeIO=0000 DiskIO=0224 CPU=  .68s Elapsed=28.66s
 12.47.09 JOB03533  WYL#ITES Ended.  Name=Assemble ITEST                 Total CPU= 4.33s Elapsed=22.20s
 12.47.09 JOB03533
 12.47.09 JOB03533  Execution charges   Priority=Standard   Block=Day
 12.47.09 JOB03533
 12.47.09 JOB03533  CPU Usage          80.06          $49.63   Standard Processing Unit Equivalent
 12.47.09 JOB03533                                   =======
 12.47.09 JOB03533                                    $49.63   Total Job execution charge
 12.47.09 JOB03533
 12.47.09 JOB03533  See back separator page for print charges
 12.47.09 JOB03533
 12.47.09 JOB03533  $HASP395 WYL#ITES ENDED  ASM=0, EDIT=0
1        1 //WYL#ITES JOB SLP$GG,'Assemble ITEST',TIME=4,REGION=4M                 JOB03533
           //*
           /*JOBPARM LINES=99,COPIES=1
           /*JOBPARM FORMS=3HOL,PFORMAT=LAND,CHARS=BD13,DUPLEX=YES,FLASH=BAR4
           //*
           /*JOBPARM NOTIFY=GG.SLP,HOLD=OUTPUT                                     WYLGEN
         2 //$$QUIET EXEC PGM=HCMDX,PARM='PUR * Q OUT MUL'
           //*
         3 //ASM    EXEC PGM=ASMA90,REGION=8M,
           //            PARM=('NORENT,TERM,FLAG(NOCONT),US(MAP,WARN(10)),NODECK',
           //            'LC(32767),XREF(SHORT),ESD,DXREF,NOOBJECT')
         4 //STEPLIB DD DSN=SYS3.IS.TESTASM,DISP=SHR
         5 //SYSLIB   DD  DSN=WYL.GS.WYL.WYLBUR.MACLIB,DISP=SHR
         6 //         DD  DSN=WYL.GG.SYS.MACLIB,DISP=SHR
         7 //         DD  DSN=SYS3.IS.MACLIB,DISP=SHR
         8 //         DD  DSN=SYS3.MACLIB,DISP=SHR
         9 //         DD  DSN=SYS1.MACLIB,DISP=SHR
        10 //         DD  DSN=SYS1.MODGEN,DISP=SHR
        11 //SYSUT1   DD DSN=&&SYSUT1,UNIT=VIO,DISP=(,DELETE),
           //            SPACE=(4088,(500,250),,CONTIG,ROUND)
        12 //SYSTERM  DD SYSOUT=T
        13 //SYSPRINT DD DSN=&&PRINT,UNIT=SYSDA,DISP=(,PASS),
           //            SPACE=(6650,(250,250),RLSE),
           //            DCB=(BLKSIZE=6650,LRECL=133,RECFM=FB)
        14 //SYSUDUMP DD SYSOUT=A
        15 //SYSIN    DD  DSN=WYL.GS.WYL.WYLBUR.SOURCE(ITEST),DISP=SHR
           //*
        16 //EDIT    EXEC PGM=ASMEDIT,TIME=2,REGION=4000K,
           //             PARM='STMT'
        17 //STEPLIB  DD  DSN=WYL.GG.SYS.LINKLIB,DISP=SHR
        18 //ASMOUT   DD  DSN=&PRINT,DISP=(OLD,DELETE)
        19 //SYSPRINT DD  SYSOUT=A
1 STMT NO. MESSAGE
 -
        11 IGD01010I STORCLAS= TEMP STORGROUP =
        11 IGD01010I STORGRP=VIO ASSIGNED.
        13 IGD01010I STORCLAS= TEMP STORGROUP =
        13 IGD01010I STORGRP=VIO ASSIGNED.
 ICH70001I GG$SLP   LAST ACCESS AT 12:46:44 ON MONDAY, MARCH 15, 2004
 IEF142I WYL#ITES $$QUIET - STEP WAS EXECUTED - COND CODE 0000
 *********************************************************************************
 *   WYL#ITES/$$QUIET /                    Return Code      Zero                 *
 *   Region used      260K (16K user + 244K system)                              *
 *   Extended region  9464K (4K user + 9460K system)                             *
 *                                                                               *
 *   Paging              In      Out                                             *
 *   Private <-> Aux      0        0       CPU time (TCB)   00:00:00.01          *
 *   Private <-> Exp      0        0       CPU time (SRB)   00:00:00.00          *
 *   VIO                  0        0       Elapsed time    917:40:50.76          *
 *   Common               0      ---                                             *
 *                                                                               *
 *                                                                               *
 *   CPU Usage          0.18         $0.11  Standard Processing Unit Equivalent  *
 *                                   $0.11  Total Step execution charge          *
 *                                                                               *
 *    I/O count  DDname   Type Addr           I/O count  DDname   Type Addr      *
 *                         *** No I/O for this step ***                          *
 *********************************************************************************
 IEF373I STEP/$$QUIET /START 2004075.1247
 IEF374I STEP/$$QUIET /STOP  2004075.1247 CPU    0MIN 00.01SEC SRB    0MIN 00.00SEC VIRT    16K SYS   244K EXT       4K SYS    9460K
 IEF236I ALLOC. FOR WYL#ITES ASM
 IEF237I 04DC ALLOCATED TO STEPLIB
 IEF237I 04DC ALLOCATED TO SYSLIB
 IEF237I 04DC ALLOCATED TO
 IEF237I 04DC ALLOCATED TO
 IEF237I 0402 ALLOCATED TO
 IEF237I 04A0 ALLOCATED TO
 IEF237I 04A0 ALLOCATED TO
 IGD101I SMS ALLOCATED TO DDNAME (SYSUT1  )
         DSN (SYS04075.T124702.RA000.WYL#ITES.SYSUT1.H01  )
         STORCLAS (TEMP) MGMTCLAS (        ) DATACLAS (        )
         VOL SER NOS= VIO
 IEF237I JES2 ALLOCATED TO SYSTERM
 IGD101I SMS ALLOCATED TO DDNAME (SYSPRINT)
         DSN (SYS04075.T124702.RA000.WYL#ITES.PRINT.H01   )
         STORCLAS (TEMP) MGMTCLAS (        ) DATACLAS (        )
         VOL SER NOS= SCR101
 IEF237I JES2 ALLOCATED TO SYSUDUMP
 IEF237I 04DC ALLOCATED TO SYSIN
 IEF142I WYL#ITES ASM - STEP WAS EXECUTED - COND CODE 0000
 IEF285I   SYS3.IS.TESTASM                              KEPT
 IEF285I   VOL SER NOS= SYSB05.
 IEF285I   WYL.GS.WYL.WYLBUR.MACLIB                     KEPT
 IEF285I   VOL SER NOS= SYSB05.
 IEF285I   WYL.GG.SYS.MACLIB                            KEPT
 IEF285I   VOL SER NOS= SYSB05.
 IEF285I   SYS3.IS.MACLIB                               KEPT
 IEF285I   VOL SER NOS= SYSB05.
 IEF285I   SYS3.MACLIB                                  KEPT
 IEF285I   VOL SER NOS= SYSB02.
 IEF285I   SYS1.MACLIB                                  KEPT
 IEF285I   VOL SER NOS= MVSBR9.
 IEF285I   SYS1.MODGEN                                  KEPT
 IEF285I   VOL SER NOS= MVSBR9.
 IGD105I SYS04075.T124702.RA000.WYL#ITES.SYSUT1.H01   DELETED,   DDNAME=SYSUT1
 IEF285I   GG$SLP.WYL#ITES.JOB03533.D0000101.?          SYSOUT
 IGD106I SYS04075.T124702.RA000.WYL#ITES.PRINT.H01    PASSED,    DDNAME=SYSPRINT
 IEF285I   GG$SLP.WYL#ITES.JOB03533.D0000102.?          SYSOUT
 IEF285I   WYL.GS.WYL.WYLBUR.SOURCE                     KEPT
 IEF285I   VOL SER NOS= SYSB05.
 *********************************************************************************
 *   WYL#ITES/ASM     /                    Return Code      Zero                 *
 *   Region used      4376K (4096K user + 280K system)                           *
 *   Extended region  10064K (412K user + 9652K system)                          *
 *                                                                               *
 *   Paging              In      Out                                             *
 *   Private <-> Aux      0        0       CPU time (TCB)   00:00:03.60          *
 *   Private <-> Exp      0        0       CPU time (SRB)   00:00:00.04          *
 *   VIO                  0        0       Elapsed time    917:40:49.48          *
 *   Common               0      ---                                             *
 *                                                                               *
 *                                                                               *
 *   CPU Usage         67.50        $41.85  Standard Processing Unit Equivalent  *
 *                                  $41.85  Total Step execution charge          *
 *                                                                               *
 *    I/O count  DDname   Type Addr           I/O count  DDname   Type Addr      *
 *           85  STEPLIB  Disk 04DC                 236  SYSLIB   Disk 04DC      *
 *            0  SYSLIB   Disk 04DC                   0  SYSLIB   Disk 04DC      *
 *            0  SYSLIB   Disk 0402                   0  SYSLIB   Disk 04A0      *
 *            0  SYSLIB   Disk 04A0                   0  SYSUT1   VIO  ----      *
 *            0  SYSTERM       ----                 221  SYSPRINT Disk 04E3      *
 *            0  SYSUDUMP      ----                   9  SYSIN    Disk 04DC      *
 *********************************************************************************
 IEF373I STEP/ASM     /START 2004075.1247
 IEF374I STEP/ASM     /STOP  2004075.1247 CPU    0MIN 03.60SEC SRB    0MIN 00.04SEC VIRT  4096K SYS   280K EXT     412K SYS    9652K
 IEF236I ALLOC. FOR WYL#ITES EDIT
 IEF237I 0402 ALLOCATED TO STEPLIB
 IGD103I SMS ALLOCATED TO DDNAME ASMOUT
 IEF237I JES2 ALLOCATED TO SYSPRINT
 IEF142I WYL#ITES EDIT - STEP WAS EXECUTED - COND CODE 0000
 IEF285I   WYL.GG.SYS.LINKLIB                           KEPT
 IEF285I   VOL SER NOS= SYSB02.
 IGD105I SYS04075.T124702.RA000.WYL#ITES.PRINT.H01    DELETED,   DDNAME=ASMOUT
 IEF285I   GG$SLP.WYL#ITES.JOB03533.D0000103.?          SYSOUT
 *********************************************************************************
 *   WYL#ITES/EDIT    /                    Return Code      Zero                 *
 *   Region used      380K (116K user + 264K system)                             *
 *   Extended region  9592K (4K user + 9588K system)                             *
 *                                                                               *
 *   Paging              In      Out                                             *
 *   Private <-> Aux      0        0       CPU time (TCB)   00:00:00.66          *
 *   Private <-> Exp      0        0       CPU time (SRB)   00:00:00.02          *
 *   VIO                  0        0       Elapsed time    917:40:44.30          *
 *   Common               0      ---                                             *
 *                                                                               *
 *                                                                               *
 *   CPU Usage         12.37         $7.66  Standard Processing Unit Equivalent  *
 *                                   $7.66  Total Step execution charge          *
 *                                                                               *
 *    I/O count  DDname   Type Addr           I/O count  DDname   Type Addr      *
 *            2  STEPLIB  Disk 0402                 222  ASMOUT   Disk 04E3      *
 *            0  SYSPRINT      ----                                              *
 *********************************************************************************
 IEF373I STEP/EDIT    /START 2004075.1247
 IEF374I STEP/EDIT    /STOP  2004075.1247 CPU    0MIN 00.66SEC SRB    0MIN 00.02SEC VIRT   116K SYS   264K EXT       4K SYS    9588K
 *********************************************************************************
 *                                                                               *
 *                      S t a n f o r d   U n i v e r s i t y                    *
 *                                                                               *
 *                              *** Job Summary ***                              *
 *                                                                               *
 *   System Id      SYSB                   Input time     12:39:20  Mar 15, 2004 *
 *                                                                               *
 *   System Release SP6.1.0                Start time     12:47:02  Mar 15, 2004 *
 *                                                                               *
 *   Job name       WYL#ITES               Stop  time     00:00:00  Mar 15, 2004 *
 *                                                                               *
 *   Account        SLP$GG                 Elapsed time  917:40:50.76            *
 *                                                                               *
 *   User Name      Assemble ITEST         CPU time       00:00:04.27            *
 *                                                                               *
 *   Job class      B                      SRB Time       00:00:00.06            *
 *                                                                               *
 *********************************************************************************
 IEF375I  JOB/WYL#ITES/START 2004075.1247
 IEF376I  JOB/WYL#ITES/STOP  2004075.1247 CPU    0MIN 04.27SEC SRB    0MIN 00.06SEC
1Assembler Done ITEST No Statements Flagged
1         High Level Assembler Option Summary                   (PTF P72483 )                                               Page    1
-                                                                                            HLASM R4.0  2004/03/15 12.47
0  No Overriding ASMAOPT Parameters
   Overriding Parameters-  NORENT,TERM,FLAG(NOCONT),US(MAP,WARN(10)),NODECK,LC(32767),XREF(SHORT),ESD,DXREF,NOOBJECT
   No Process Statements


   Options for this Assembly
0  NOADATA
     ALIGN
   NOASA
     BATCH
     CODEPAGE(047C)
   NOCOMPAT
   NODBCS
 3 NODECK
 3   DXREF
 3   ESD
   NOEXIT
 3   FLAG(0,ALIGN,NOCONT,NOIMPLEN,NOPAGE0,PUSH,RECORD,NOSUBSTR,USING0)
   NOFOLD
   NOGOFF
   NOINFO
     LANGUAGE(EN)
   NOLIBMAC
 3   LINECOUNT(32767)
     LIST(121)
     MXREF(SOURCE)
 3 NOOBJECT
     OPTABLE(UNI,NOLIST)
   NOPCONTROL
   NOPESTOP
   NOPROFILE
   NORA2
 3 NORENT
     RLD
     RXREF
     SIZE(MAX)
     SYSPARM()
 3   TERM(WIDE)
   NOTEST
     THREAD
   NOTRANSLATE
 3   USING(NOLIMIT,MAP,WARN(10))
 3   XREF(SHORT)

   No Overriding DD Names

1ITEST    External Symbol Dictionary                                                                                        Page    2
-Symbol   Type   Id     Address  Length     LD ID  Flags Alias-of                            HLASM R4.0  2004/03/15 12.47
0WYLITEST  SD 00000001 00000000 00004488             00
 ITES2010  LD          00000000           00000001
 WITEST    LD          00000066           00000001
 ITEST     LD          000000A6           00000001
 SEGCR     ER 00000002
 SEGWR     ER 00000003
 NOTVALID  ER 00000004

1ITEST    Test suite for 370 instructions                                                                                   Page    3
0Loc    Object Code    Addr1 Addr2  Stmt Lv Lineno    Source Statement                    (Asmedit 3.3)  HLASM R4.0  2004/03/15 12.47
+___    ______ ____    _____ _____  ____ __ ______    ______ _________
0                                      2              *******************************************************************
                                       3              *                                                                 *
                                       4              *     WYLBUR/370 - Release VI - Class I - Stanford Proprietary    *
                                       5              *                                                                 *
                                       6              *******************************************************************
                                       7                       HIBAL
                                     988
1ITEST    Test suite for 370 instructions                                                                                   Page    4
0D-Loc  Object Code    Addr1 Addr2  Stmt Lv Lineno    Source Statement           (Hibal 5, Asmedit 3.3)  HLASM R4.0  2004/03/15 12.47
+_____  ______ ____    _____ _____  ____ __ ______    ______ _________
0000000                00000 04488   990              WYLITEST CSECT
                                     994                       REGS  FSR,,,,,,,BR,(WAR,LSR),PAR,PBR,CPR,CVR,SPR,RAR
                                    1130
                                    1131              ITES     IDENT 2010                10:26:03 01/10/02  (SLP)
                                    1134             +
                                    1135    01-IDENT +         ENTRY ITES2010
                                    1136             +
 000000 16C9E3C5E2F2F0F1            1137    01-IDENT +ITES2010 DC    AL1(22),C'ITES2010,15MAR04,12:47'
                                    1138             +*
                                    1140              *
                                    1141                       SYSDEFN ,                 Define installation values
                                    1142
                                    1143                       PUSH  DSECTS
 USING  CP,R11                      1155             =         USING (CP),(CV)
 USING  CV,R12
 000017                00000 04488  1174             =         POP   PRINT
                                    6308
                                    6309                       MACRO
                                    6310              &L       MWRITE &M
                                    6311              &L       SETMSG &M
                                    6312                       ACALL MWRITE
                                    6313                       MEND
                                    6314              *
                                    6315              * this module contains 370 instructions.  they are tested
                                    6316              * for WTOC compatability.  instruction limitations are
                                    6317              * listed in lines starting with '* RESTRICTION'.  please
                                    6318              * do not use restricted forms of instructions within
                                    6319              * WYLBUR.  this module must run on all platforms, all
                                    6320              * restrictions should be noted.  please add comments and
                                    6321              * instruction tests as needed.
                                    6322              *
                                    6323              * note:
                                    6324              * all general purpose instructions are supported with the
                                    6325              * exception of CS, CDS, STCK, and TS.  no packed decimal
                                    6326              * instructions are supported other than ED and EDMK.  no
                                    6327              * floating point instructions are supported.  the general
                                    6328              * purpose instructions are restricted as indicated below.
                                    6329              * needless to say SVC instruction is not supported.
                                    6330              *
                                    6331              * restriction on coding style (ie. proc-pend style,
                                    6332              * base register must be r7, no V-cons other than
                                    6333              * VCALLs, strict use of scan macros) will be commented
                                    6334              * on later.  see CH or NIZ.
                                    6335              *
 000017                00000 04488  6336              WYLITEST CSECT
 000017 D6C840E8C5C1C84D            6338                       DC    C'OH YEAH(tm) !!!!'
0                                   6340                       AIF   (&$PCODE).CCODE
                                    6341                       AGO   .NOCCODE
                                    6342              .NOCCODE ANOP
                                    6343              *
                                    6344              *  MSG-WRITE - STANDARD ROUTINE
                                    6345              *
 000028 50E0 D000/9008_      00000  6346              MWRITE   PROC
 USING  *,R7
 000042 41F0 B050/58E0_      00050  6385                       TSEG  (R1),(R0),CR
1ITEST    (ITES2010) (12:47) (15MAR04) Test suite for 370 instructions                                                      Page    5
0Current Usings:  (*,R7) (CP,R11) (CV,R12)
0D-Loc  Object Code    Addr1 Addr2  Stmt Lv Lineno    Source Statement           (Hibal 5, Asmedit 3.3)  HLASM R4.0  2004/03/15 12.47
+_____  ______ ____    _____ _____  ____ __ ______    ______ _________
000004C 1B00/41F0 B050_             6409                       TWRITE
 000058 18D8/9808 D004_             6434                       PEND
 DROP   *,R7
                                    6454                       AGO   .IERDONE
                                    6455              .IERDONE ANOP
1ITEST    (ITES2010) (12:47) (15MAR04) ITEST ROUTINES                                                                       Page    6
0Current Usings:  (CP,R11) (CV,R12)
0Loc    Object Code    Addr1 Addr2  Stmt Lv Lineno    Source Statement           (Hibal 5, Asmedit 3.3)  HLASM R4.0  2004/03/15 12.47
+___    ______ ____    _____ _____  ____ __ ______    ______ _________
0                                   6458              *
                                    6459              **
                                    6460              **  TEST - entry point for 370 instruction test
                                    6461              **
                                    6462              **
                                    6463              *
 000066 50E0 D000/9008_      00000  6464              WITEST   XPROC ,
 USING  *,R7
 000080 9120 B3BE/4710_003BE        6504                       IF    ~CPSFSPR,'VCALL NOTVALID'
                                    6528              *
                                    6529              *
 00008E 58E0 7164/0DEE       001E4  6530                       ACALL ITEST
 000094 47F0 C7DE            007DE  6534                       B     CVNEXT
 000098 18D8/9808 D004_             6535                       PEND
 DROP   *,R7
                                    6555              *
                                    6556              *
                                    6557              *
                                    6558              *  TEST IBM 370 INSTRUCTIONS  (FOR WTOC)
                                    6559              *
                                    6560              *  NOTE:
                                    6561              *  BECAUSE TESTS ARE LONG WINDED, WE MUST DIVIDE INTO
                                    6562              *  SEVERAL ROUTINES FOR ADDRESSABILITY.
                                    6563              *
                                    6564              *
 000000                00000 00810  6565              ITESTWA  RECORD BEGIN
 000000                             6573  1           F1         DS    F
 000004                             6574  1           F2         DS    F
 000008                             6575  1           F3         DS    F
 00000C                             6576  1           F4         DS    F
 000010                             6577  1           BUF1       DS    CL1024
 000410                             6578  1           BUF2       DS    CL1024
 000810                00810 00810  6579                       END
                                    6588
 0000A6 50E0 D000/9008_      00000  6589              ITEST    XPROC  ITESTWA
 USING  *,R7
 USING  ITESTWA-(4+36),R8
                                    6640              *
                                    6641              * DO PRELIMINARY TESTS L, LH, ST, CLC, C
                                    6642              *
 0000C0 5810 7128            001E8  6643                       L     R1,=F'400001'
 0000C4 5910 712C/4780_      001EC  6644                       IF    (R1,NE,400001),BEGIN
 0000CC 4110 7110/4100_      001D0  6661  1                      MWRITE 'L FAILED'
 0000DA 47F0 70FC            001BC  6670  1                      EXIT  ITEST
 0000DE                             6673                       END
 0000DE 4810 7170            00230  6677                       LH    R1,=H'2001'
 0000E2 5910 7134/4780_      001F4  6678                       IF    (R1,NE,2001),BEGIN
 0000EA 4110 717C/4100_      0023C  6695  1                      MWRITE 'LH FAILED'
 0000F8 47F0 70FC            001BC  6704  1                      EXIT  ITEST
 0000FC                             6707                       END
 0000FC 5010 8028            00000  6711                       ST    R1,F1
 000100 D503 7138 8028_001F8 00000  6712                       IF    (F1,NE,2001),BEGIN
 00010A 4110 7185/4100_      00245  6730  1                      MWRITE 'ST FAILED'
 000118 47F0 70FC            001BC  6739  1                      EXIT  ITEST
1ITEST    (ITES2010) (12:47) (15MAR04) ITEST ROUTINES                                                                       Page    7
0Current Usings:  (*,R7) (ITESTWA-(4+36),R8) (CP,R11) (CV,R12)
0Loc    Object Code    Addr1 Addr2  Stmt Lv Lineno    Source Statement           (Hibal 5, Asmedit 3.3)  HLASM R4.0  2004/03/15 12.47
+___    ______ ____    _____ _____  ____ __ ______    ______ _________
000011C                             6742                       END
 00011C 5810 713C            001FC  6746                       L     R1,=X'F1F2F3F4'
 000120 5820 713C            001FC  6747                       L     R2,=X'F1F2F3F4'
 000124 5830 7140            00200  6748                       L     R3,=X'F3F4F5F6'
 000128 5010 8028            00000  6749                       ST    R1,F1
 00012C 5020 802C            00004  6750                       ST    R2,F2
 000130 5030 8030            00008  6751                       ST    R3,F3
 000134 D503 8028 802C 00000 00004  6752                       CLC   F1,F2
 00013A 4780 7090            00150  6753                       IF    NE,BEGIN
 00013E 4110 7172/4100_      00232  6764  1                      MWRITE 'CLC FAILED'
 00014C 47F0 70FC            001BC  6773  1                      EXIT  ITEST
 000150                             6776                       END
 000150 D503 8028 8030 00000 00008  6780                       CLC   F1,F3
 000156 4740 70AC            0016C  6781                       IF    NL,BEGIN
 00015A 4110 7172/4100_      00232  6792  1                      MWRITE 'CLC FAILED'
 000168 47F0 70FC            001BC  6801  1                      EXIT  ITEST
 00016C                             6804                       END
                                    6808              *
                                    6809              * DO STANDARD TESTS
                                    6810              *
 00016C 58E0 7144/0DEE       00204  6811                       ACALL DOTEST1
 000172 58E0 7148/0DEE       00208  6815                       ACALL DOTEST2
 000178 58E0 714C/0DEE       0020C  6819                       ACALL DOTEST3
 00017E 58E0 7150/0DEE       00210  6823                       ACALL DOTEST4
 000184 58E0 7154/0DEE       00214  6827                       ACALL DOTEST6
 00018A 58E0 7158/0DEE       00218  6831                       ACALL DOTEST7
 000190 58E0 715C/0DEE       0021C  6835                       ACALL DOTEST8
 000196 58E0 7160/0DEE       00220  6839                       ACALL DOTEST9
 00019C 58E0 7164/0DEE       00224  6843                       ACALL DOTEST10
 0001A2 58E0 7168/0DEE       00228  6847                       ACALL DOTEST11
 0001A8 58E0 716C/0DEE       0022C  6851                       ACALL DOTEST12
                                    6855
 0001AE 4110 718E/4100_      0024E  6856                       MWRITE 'All Done.'
                                    6865
 0001BC 18D8/9808 D004_             6866                       PEND
 DROP   ITESTWA-(4+36),R8
 DROP   *,R7
                                    6891
                                    6892                       QLTORG
1ITEST    (ITES2010) (12:47) (15MAR04) ITEST ROUTINES                                                                       Page    8
0Current Usings:  (CP,R11) (CV,R12)
0Loc    Object Code    Addr1 Addr2  Stmt Lv Lineno    Source Statement           (Hibal 5, Asmedit 3.3)  HLASM R4.0  2004/03/15 12.47
+___    ______ ____    _____ _____  ____ __ ______    ______ _________
0                                   6933              *
                                    6934              *  DO TESTS
                                    6935              *
 000258 50E0 D000/9008_      00000  6936              DOTEST1  PROC  ITESTWA
 USING  *,R7
 USING  ITESTWA-(4+36),R8
                                    6986              * AR
                                    6987              * RESTRICTION AR, A, AH - COND CODE NOT SET PROPERLY FOR OVERFLOW
                                    6988              * RESTRICTION AR, A, AH - OFERFLOW NOT PROCESSED CORRECTLY
 000272 5810 762E            008A0  6989                       L     R1,=F'1'
 000276 5820 7632            008A4  6990                       L     R2,=F'2'
 00027A 1A12                        6991                       AR    R1,R2
 00027C 47D0 7016/5910_      00288  6992                       IF    (NP,OR,(R1,NE,3)),BEGIN
 000288 4110 76C4/4100_      00936  7019  1                      MWRITE 'AR FAILED'
 000296                             7028                       END
 000296 5810 763E            008B0  7032                       L     R1,=F'-1'
 00029A 5820 7642            008B4  7033                       L     R2,=F'-2'
 00029E 1A12                        7034                       AR    R1,R2
 0002A0 47B0 703A/5910_      002AC  7035                       IF    (NL,OR,(R1,NE,-3)),BEGIN
 0002AC 4110 76C4/4100_      00936  7061  1                      MWRITE 'AR FAILED'
 0002BA                             7070                       END
 0002BA 5810 764A            008BC  7074                       L     R1,=F'4000011'
 0002BE 5820 764E            008C0  7075                       L     R2,=F'4000000'
 0002C2 1A12                        7076                       AR    R1,R2
 0002C4 47D0 705E/5910_      002D0  7077                       IF    (NP,OR,(R1,NE,8000011)),BEGIN
 0002D0 4110 76C4/4100_      00936  7104  1                      MWRITE 'AR FAILED'
 0002DE                             7113                       END
 0002DE 5810 764A            008BC  7117                       L     R1,=F'4000011'
 0002E2 5820 7656            008C8  7118                       L     R2,=F'-8000011'
 0002E6 1A12                        7119                       AR    R1,R2
 0002E8 47B0 7082/5910_      002F4  7120                       IF    (NL,OR,(R1,NE,-4000000)),BEGIN
 0002F4 4110 76C4/4100_      00936  7146  1                      MWRITE 'AR FAILED'
 000302                             7155                       END
 000302 5810 7656            008C8  7159                       L     R1,=F'-8000011'
 000306 5820 764A            008BC  7160                       L     R2,=F'4000011'
 00030A 1A12                        7161                       AR    R1,R2
 00030C 47B0 70A6/5910_      00318  7162                       IF    (NL,OR,(R1,NE,-4000000)),BEGIN
 000318 4110 76C4/4100_      00936  7188  1                      MWRITE 'AR FAILED'
 000326                             7197                       END
 000326 5810 765E            008D0  7201                       L     R1,=F'430030'
 00032A 5820 7662            008D4  7202                       L     R2,=F'-430030'
 00032E 1A12                        7203                       AR    R1,R2
 000330 4770 70CA/5910_      0033C  7204                       IF    (NZ,OR,(R1,NE,0)),BEGIN
 00033C 4110 76C4/4100_      00936  7231  1                      MWRITE 'AR FAILED'
 00034A                             7240                       END
                                    7244              * A
 00034A 5810 762E            008A0  7245                       L     R1,=F'1'
 00034E 5A10 7632            008A4  7246                       A     R1,=F'2'
 000352 47D0 70EC/5910_      0035E  7247                       IF    (NP,OR,(R1,NE,3)),BEGIN
 00035E 4110 761E/4100_      00890  7274  1                      MWRITE 'A FAILED'
 00036C                             7283                       END
 00036C 5810 763E            008B0  7287                       L     R1,=F'-1'
 000370 5A10 7642            008B4  7288                       A     R1,=F'-2'
 000374 47B0 710E/5910_      00380  7289                       IF    (NL,OR,(R1,NE,-3)),BEGIN
1ITEST    (ITES2010) (12:47) (15MAR04) ITEST ROUTINES                                                                       Page    9
0Current Usings:  (*,R7) (ITESTWA-(4+36),R8) (CP,R11) (CV,R12)
0Loc    Object Code    Addr1 Addr2  Stmt Lv Lineno    Source Statement           (Hibal 5, Asmedit 3.3)  HLASM R4.0  2004/03/15 12.47
+___    ______ ____    _____ _____  ____ __ ______    ______ _________
0000380 4110 761E/4100_      00890  7315  1                      MWRITE 'A FAILED'
 00038E                             7324                       END
 00038E 5810 764A            008BC  7328                       L     R1,=F'4000011'
 000392 5A10 764E            008C0  7329                       A     R1,=F'4000000'
 000396 47D0 7130/5910_      003A2  7330                       IF    (NP,OR,(R1,NE,8000011)),BEGIN
 0003A2 4110 761E/4100_      00890  7357  1                      MWRITE 'A FAILED'
 0003B0                             7366                       END
 0003B0 5810 764A            008BC  7370                       L     R1,=F'4000011'
 0003B4 5A10 7656            008C8  7371                       A     R1,=F'-8000011'
 0003B8 47B0 7152/5910_      003C4  7372                       IF    (NL,OR,(R1,NE,-4000000)),BEGIN
 0003C4 4110 761E/4100_      00890  7398  1                      MWRITE 'A FAILED'
 0003D2                             7407                       END
 0003D2 5810 7656            008C8  7411                       L     R1,=F'-8000011'
 0003D6 5A10 764A            008BC  7412                       A     R1,=F'4000011'
 0003DA 47B0 7174/5910_      003E6  7413                       IF    (NL,OR,(R1,NE,-4000000)),BEGIN
 0003E6 4110 761E/4100_      00890  7439  1                      MWRITE 'A FAILED'
 0003F4                             7448                       END
 0003F4 5810 765E            008D0  7452                       L     R1,=F'430030'
 0003F8 5A10 7662            008D4  7453                       A     R1,=F'-430030'
 0003FC 5910 7666/4780_      008D8  7454                       IF    (R1,NE,0),BEGIN
 000404 4110 761E/4100_      00890  7471  1                      MWRITE 'A FAILED'
 000412                             7480                       END
                                    7484              * AH
 000412 4810 769E            00910  7485                       LH    R1,=H'1'
 000416 4A10 76A0            00912  7486                       AH    R1,=H'2'
 00041A 47D0 71B4/5910_      00426  7487                       IF    (NP,OR,(R1,NE,3)),BEGIN
 000426 4110 76CD/4100_      0093F  7514  1                      MWRITE 'AH FAILED'
 000434                             7523                       END
 000434 4810 76A2            00914  7527                       LH    R1,=H'-1'
 000438 4A10 76A4            00916  7528                       AH    R1,=H'-2'
 00043C 47B0 71D6/5910_      00448  7529                       IF    (NL,OR,(R1,NE,-3)),BEGIN
 000448 4110 76CD/4100_      0093F  7555  1                      MWRITE 'AH FAILED'
 000456                             7564                       END
 000456 4810 76A6            00918  7568                       LH    R1,=H'4011'
 00045A 4A10 76A8            0091A  7569                       AH    R1,=H'4000'
 00045E 47D0 71F8/5910_      0046A  7570                       IF    (NP,OR,(R1,NE,8011)),BEGIN
 00046A 4110 76CD/4100_      0093F  7597  1                      MWRITE 'AH FAILED'
 000478                             7606                       END
 000478 4810 76A6            00918  7610                       LH    R1,=H'4011'
 00047C 4A10 76AA            0091C  7611                       AH    R1,=H'-8011'
 000480 47B0 721A/5910_      0048C  7612                       IF    (NL,OR,(R1,NE,-4000)),BEGIN
 00048C 4110 76CD/4100_      0093F  7638  1                      MWRITE 'AH FAILED'
 00049A                             7647                       END
 00049A 4810 76AA            0091C  7651                       LH    R1,=H'-8011'
 00049E 4A10 76A6            00918  7652                       AH    R1,=H'4011'
 0004A2 47B0 723C/5910_      004AE  7653                       IF    (NL,OR,(R1,NE,-4000)),BEGIN
 0004AE 4110 76CD/4100_      0093F  7679  1                      MWRITE 'AH FAILED'
 0004BC                             7688                       END
 0004BC 4810 76AC            0091E  7692                       LH    R1,=H'4330'
 0004C0 4A10 76AE            00920  7693                       AH    R1,=H'-4330'
 0004C4 4770 725E/5910_      004D0  7694                       IF    (NZ,OR,(R1,NE,0)),BEGIN
 0004D0 4110 76CD/4100_      0093F  7721  1                      MWRITE 'AH FAILED'
 0004DE                             7730                       END
                                    7734              * ALR
1ITEST    (ITES2010) (12:47) (15MAR04) ITEST ROUTINES                                                                       Page   10
0Current Usings:  (*,R7) (ITESTWA-(4+36),R8) (CP,R11) (CV,R12)
0Loc    Object Code    Addr1 Addr2  Stmt Lv Lineno    Source Statement           (Hibal 5, Asmedit 3.3)  HLASM R4.0  2004/03/15 12.47
+___    ______ ____    _____ _____  ____ __ ______    ______ _________
0                                   7735              * RESTRICTION ALR - CONDITION CODE NOT SET
 0004DE 5810 762E            008A0  7736                       L     R1,=F'1'
 0004E2 5820 7632            008A4  7737                       L     R2,=F'2'
 0004E6 1E12                        7738                       ALR   R1,R2
 0004E8 5910 7636/4780_      008A8  7739                       IF    (R1,NE,3),BEGIN
 0004F0 4110 76B0/4100_      00922  7756  1                      MWRITE 'ALR FAILED'
 0004FE                             7765                       END
 0004FE 5810 763E            008B0  7769                       L     R1,=F'-1'
 000502 5820 7642            008B4  7770                       L     R2,=F'-2'
 000506 1E12                        7771                       ALR   R1,R2
 000508 5910 7646/4780_      008B8  7772                       IF    (R1,NE,-3),BEGIN
 000510 4110 76B0/4100_      00922  7788  1                      MWRITE 'ALR FAILED'
 00051E                             7797                       END
 00051E 5810 764A            008BC  7801                       L     R1,=F'4000011'
 000522 5820 764E            008C0  7802                       L     R2,=F'4000000'
 000526 1E12                        7803                       ALR   R1,R2
 000528 5910 7652/4780_      008C4  7804                       IF    (R1,NE,8000011),BEGIN
 000530 4110 76B0/4100_      00922  7821  1                      MWRITE 'ALR FAILED'
 00053E                             7830                       END
 00053E 5810 764A            008BC  7834                       L     R1,=F'4000011'
 000542 5820 7656            008C8  7835                       L     R2,=F'-8000011'
 000546 1E12                        7836                       ALR   R1,R2
 000548 5910 765A/4780_      008CC  7837                       IF    (R1,NE,-4000000),BEGIN
 000550 4110 76B0/4100_      00922  7853  1                      MWRITE 'ALR FAILED'
 00055E                             7862                       END
 00055E 5810 7656            008C8  7866                       L     R1,=F'-8000011'
 000562 5820 764A            008BC  7867                       L     R2,=F'4000011'
 000566 1E12                        7868                       ALR   R1,R2
 000568 5910 765A/4780_      008CC  7869                       IF    (R1,NE,-4000000),BEGIN
 000570 4110 76B0/4100_      00922  7885  1                      MWRITE 'ALR FAILED'
 00057E                             7894                       END
 00057E 5810 765E            008D0  7898                       L     R1,=F'430030'
 000582 5820 7662            008D4  7899                       L     R2,=F'-430030'
 000586 1E12                        7900                       ALR   R1,R2
 000588 5910 7666/4780_      008D8  7901                       IF    (R1,NE,0),BEGIN
 000590 4110 76B0/4100_      00922  7918  1                      MWRITE 'ALR FAILED'
 00059E                             7927                       END
                                    7931              * AL
                                    7932              * RESTRICTION AL - CONDITION CODE NOT SET
 00059E 5810 762E            008A0  7933                       L     R1,=F'1'
 0005A2 5E10 7632            008A4  7934                       AL    R1,=F'2'
 0005A6 5910 7636/4780_      008A8  7935                       IF    (R1,NE,3),BEGIN
 0005AE 4110 76D6/4100_      00948  7952  1                      MWRITE 'AL FAILED'
 0005BC                             7961                       END
 0005BC 5810 763E            008B0  7965                       L     R1,=F'-1'
 0005C0 5E10 7642            008B4  7966                       AL    R1,=F'-2'
 0005C4 5910 7646/4780_      008B8  7967                       IF    (R1,NE,-3),BEGIN
 0005CC 4110 76D6/4100_      00948  7983  1                      MWRITE 'AL FAILED'
 0005DA                             7992                       END
 0005DA 5810 764A            008BC  7996                       L     R1,=F'4000011'
 0005DE 5E10 764E            008C0  7997                       AL    R1,=F'4000000'
 0005E2 5910 7652/4780_      008C4  7998                       IF    (R1,NE,8000011),BEGIN
 0005EA 4110 76D6/4100_      00948  8015  1                      MWRITE 'AL FAILED'
 0005F8                             8024                       END
1ITEST    (ITES2010) (12:47) (15MAR04) ITEST ROUTINES                                                                       Page   11
0Current Usings:  (*,R7) (ITESTWA-(4+36),R8) (CP,R11) (CV,R12)
0Loc    Object Code    Addr1 Addr2  Stmt Lv Lineno    Source Statement           (Hibal 5, Asmedit 3.3)  HLASM R4.0  2004/03/15 12.47
+___    ______ ____    _____ _____  ____ __ ______    ______ _________
00005F8 5810 764A            008BC  8028                       L     R1,=F'4000011'
 0005FC 5E10 7656            008C8  8029                       AL    R1,=F'-8000011'
 000600 5910 765A/4780_      008CC  8030                       IF    (R1,NE,-4000000),BEGIN
 000608 4110 76D6/4100_      00948  8046  1                      MWRITE 'AL FAILED'
 000616                             8055                       END
 000616 5810 7656            008C8  8059                       L     R1,=F'-8000011'
 00061A 5E10 764A            008BC  8060                       AL    R1,=F'4000011'
 00061E 5910 765A/4780_      008CC  8061                       IF    (R1,NE,-4000000),BEGIN
 000626 4110 76D6/4100_      00948  8077  1                      MWRITE 'AL FAILED'
 000634                             8086                       END
 000634 5810 765E            008D0  8090                       L     R1,=F'430030'
 000638 5E10 7662            008D4  8091                       AL    R1,=F'-430030'
 00063C 5910 7666/4780_      008D8  8092                       IF    (R1,NE,0),BEGIN
 000644 4110 76D6/4100_      00948  8109  1                      MWRITE 'AL FAILED'
 000652                             8118                       END
                                    8122              * NR
 000652 5810 7672            008E4  8123                       L     R1,=X'0000FFFF'
 000656 5820 7676            008E8  8124                       L     R2,=X'F0F0F0F0'
 00065A 1412                        8125                       NR    R1,R2
 00065C 4780 73F6/5910_      00668  8126                       IF    (Z,OR,(R1,NE,X'0000F0F0')),BEGIN
 000668 4110 76DF/4100_      00951  8153  1                      MWRITE 'NR FAILED'
 000676                             8162                       END
 000676 5810 767E            008F0  8166                       L     R1,=X'F0F00000'
 00067A 5820 7676            008E8  8167                       L     R2,=X'F0F0F0F0'
 00067E 1412                        8168                       NR    R1,R2
 000680 4780 741A/5910_      0068C  8169                       IF    (Z,OR,(R1,NE,X'F0F00000')),BEGIN
 00068C 4110 76DF/4100_      00951  8196  1                      MWRITE 'NR FAILED'
 00069A                             8205                       END
 00069A 5810 7672            008E4  8209                       L     R1,=X'0000FFFF'
 00069E 5820 767E            008F0  8210                       L     R2,=X'F0F00000'
 0006A2 1412                        8211                       NR    R1,R2
 0006A4 4770 743E/5910_      006B0  8212                       IF    (NZ,OR,(R1,NE,0)),BEGIN
 0006B0 4110 76DF/4100_      00951  8239  1                      MWRITE 'NR FAILED'
 0006BE                             8248                       END
                                    8252              * N
 0006BE 5810 7672            008E4  8253                       L     R1,=X'0000FFFF'
 0006C2 5410 7676            008E8  8254                       N     R1,=X'F0F0F0F0'
 0006C6 4780 7460/5910_      006D2  8255                       IF    (Z,OR,(R1,NE,X'0000F0F0')),BEGIN
 0006D2 4110 7626/4100_      00898  8282  1                      MWRITE 'N FAILED'
 0006E0                             8291                       END
 0006E0 5810 767E            008F0  8295                       L     R1,=X'F0F00000'
 0006E4 5410 7676            008E8  8296                       N     R1,=X'F0F0F0F0'
 0006E8 4780 7482/5910_      006F4  8297                       IF    (Z,OR,(R1,NE,X'F0F00000')),BEGIN
 0006F4 4110 7626/4100_      00898  8324  1                      MWRITE 'N FAILED'
 000702                             8333                       END
 000702 5810 7672            008E4  8337                       L     R1,=X'0000FFFF'
 000706 5410 767E            008F0  8338                       N     R1,=X'F0F00000'
 00070A 4770 74A4/5910_      00716  8339                       IF    (NZ,OR,(R1,NE,0)),BEGIN
 000716 4110 7626/4100_      00898  8366  1                      MWRITE 'N FAILED'
 000724                             8375                       END
                                    8379              * PRELIMINARY TEST MVI
 000724 5810 7686            008F8  8380                       L     R1,=F'0'
 000728 5010 8028            00000  8381                       ST    R1,F1
 00072C 920F 8028      00000        8382                       MVI   F1,X'0F'
1ITEST    (ITES2010) (12:47) (15MAR04) ITEST ROUTINES                                                                       Page   12
0Current Usings:  (*,R7) (ITESTWA-(4+36),R8) (CP,R11) (CV,R12)
0Loc    Object Code    Addr1 Addr2  Stmt Lv Lineno    Source Statement           (Hibal 5, Asmedit 3.3)  HLASM R4.0  2004/03/15 12.47
+___    ______ ____    _____ _____  ____ __ ______    ______ _________
0000730 5810 8028            00000  8383                       L     R1,F1
 000734 5910 768A/4780_      008FC  8384                       IF    (R1,NE,X'0F000000'),BEGIN
 00073C 4110 76BA/4100_      0092C  8401  1                      MWRITE 'MVI FAILED'
 00074A                             8410                       END
                                    8414              * NI
 00074A 5810 7686            008F8  8415                       L     R1,=F'0'
 00074E 5010 8028            00000  8416                       ST    R1,F1
 000752 920F 8028      00000        8417                       MVI   F1,X'0F'
 000756 9455 8028      00000        8418                       NI    F1,X'55'
 00075A 5810 8028            00000  8419                       L     R1,F1
 00075E 4780 74F8/5910_      0076A  8420                       IF    (Z,OR,(R1,NE,X'05000000')),BEGIN
 00076A 4110 76E8/4100_      0095A  8447  1                      MWRITE 'NI FAILED'
 000778                             8456                       END
 000778 92F0 8028      00000        8460                       MVI   F1,X'F0'
 00077C 94F1 8028      00000        8461                       NI    F1,X'F1'
 000780 5810 8028            00000  8462                       L     R1,F1
 000784 4780 751E/5910_      00790  8463                       IF    (Z,OR,(R1,NE,X'F0000000')),BEGIN
 000790 4110 76E8/4100_      0095A  8490  1                      MWRITE 'NI FAILED'
 00079E                             8499                       END
 00079E 92F0 8028      00000        8503                       MVI   F1,X'F0'
 0007A2 940F 8028      00000        8504                       NI    F1,X'0F'
 0007A6 5810 8028            00000  8505                       L     R1,F1
 0007AA 4770 7544/5910_      007B6  8506                       IF    (NZ,OR,(R1,NE,X'00000000')),BEGIN
 0007B6 4110 76E8/4100_      0095A  8533  1                      MWRITE 'NI FAILED'
 0007C4                             8542                       END
                                    8546              * NC
 0007C4 5810 7672            008E4  8547                       L     R1,=X'0000FFFF'
 0007C8 5010 8028            00000  8548                       ST    R1,F1
 0007CC 5820 7676            008E8  8549                       L     R2,=X'F0F0F0F0'
 0007D0 5020 802C            00004  8550                       ST    R2,F2
 0007D4 5830 7686            008F8  8551                       L     R3,=F'0'
 0007D8 5030 8030            00008  8552                       ST    R3,F3
 0007DC D403 8028 802C 00000 00004  8553                       NC    F1,F2
 0007E2 5810 8028            00000  8554                       L     R1,F1
 0007E6 4780 7580/5910_      007F2  8555                       IF    (Z,OR,(R1,NE,X'0000F0F0')),BEGIN
 0007F2 4110 76F1/4100_      00963  8582  1                      MWRITE 'NC FAILED'
 000800                             8591                       END
 000800 5820 802C            00004  8595                       L     R2,F2
 000804 5920 769A/4780_      0090C  8596                       IF    (R2,NE,X'F0F0F0F0'),BEGIN
 00080C 4110 76F1/4100_      00963  8613  1                      MWRITE 'NC FAILED'
 00081A                             8622                       END
 00081A 5810 767E            008F0  8626                       L     R1,=X'F0F00000'
 00081E 5010 8028            00000  8627                       ST    R1,F1
 000822 5820 7676            008E8  8628                       L     R2,=X'F0F0F0F0'
 000826 5020 802C            00004  8629                       ST    R2,F2
 00082A D403 8028 802C 00000 00004  8630                       NC    F1,F2
 000830 5810 8028            00000  8631                       L     R1,F1
 000834 4780 75CE/5910_      00840  8632                       IF    (Z,OR,(R1,NE,X'F0F00000')),BEGIN
 000840 4110 76F1/4100_      00963  8659  1                      MWRITE 'NC FAILED'
 00084E                             8668                       END
 00084E 5810 7672            008E4  8672                       L     R1,=X'0000FFFF'
 000852 5010 8028            00000  8673                       ST    R1,F1
 000856 5820 767E            008F0  8674                       L     R2,=X'F0F00000'
 00085A 5020 802C            00004  8675                       ST    R2,F2
1ITEST    (ITES2010) (12:47) (15MAR04) ITEST ROUTINES                                                                       Page   13
0Current Usings:  (*,R7) (ITESTWA-(4+36),R8) (CP,R11) (CV,R12)
0Loc    Object Code    Addr1 Addr2  Stmt Lv Lineno    Source Statement           (Hibal 5, Asmedit 3.3)  HLASM R4.0  2004/03/15 12.47
+___    ______ ____    _____ _____  ____ __ ______    ______ _________
000085E D403 8028 802C 00000 00004  8676                       NC    F1,F2
 000864 5810 8028            00000  8677                       L     R1,F1
 000868 4770 7602/5910_      00874  8678                       IF    (NZ,OR,(R1,NE,0)),BEGIN
 000874 4110 76F1/4100_      00963  8705  1                      MWRITE 'NC FAILED'
 000882                             8714                       END
 000882 18D8/9808 D004_             8718                       PEND
 DROP   ITESTWA-(4+36),R8
 DROP   *,R7
                                    8743
                                    8744                       QLTORG
                                    8803
 00096C 50E0 D000/9008_      00000  8804              DOTEST2  PROC  ITESTWA
 USING  *,R7
 USING  ITESTWA-(4+36),R8
                                    8854              *
                                    8855              *  BRANCH INSTRUCTIONS
                                    8856              *
                                    8857              * BALR
                                    8858              * RESTRICTION BALR - ONLY BALR Rn,0 ALLOWED, TREATED AS NO-OP
                                    8859              * RESTRICTION BALR - CALLS MUST BE DONE WITH ACALL/VCALL MACROS
 000986 0500                        8860                       BALR  R0,0
 000988 0560                        8861                       BALR  R6,0
                                    8862              * BAL
                                    8863              * RESTRICTION BAL - NOT ALLOWED
                                    8864              * RESTRICTION BAL - CALLS MUST BE DONE WITH LCALL MACRO
                                    8865              * RESTRICTION BAL - BAL FORM OF NO-OP NOT ALLOWED
0                                   8867              * BASR
                                    8868              * RESTRICTION BASR - ONLY BASR Rn,0 ALLOWED, TREATED AS NO-OP
                                    8869              * RESTRICTION BASR - CALLS MUST BE DONE WITH ACALL/VCALL MACROS
 00098A 0D00                        8870                       BASR  R0,0
 00098C 0D60                        8871                       BASR  R6,0
                                    8872              * BAS
                                    8873              * RESTRICTION BAS - NOT ALLOWED
                                    8874              * RESTRICTION BAS - CALLS MUST BE DONE WITH LCALL MACRO
                                    8875              * RESTRICTION BAS - BAS FORM OF NO-OP NOT ALLOWED
0                                   8877              * BASSM
                                    8878              * RESTRICTION BASSM - NOT ALLOWED
0                                   8880              * BSM
                                    8881              * RESTRICTION BSM - NOT ALLOWED
0                                   8883              * BCR
                                    8884              * RESTRICTION BCR - NOT ALLOWED
                                    8885              * NOTE: BCR R14 WAS TO BE TREATED AS 'RETURN', BUT THIS IS A
                                    8886              * POOR CHOICE SINCE THE PROC/PEND MODEL IS TO BE A STANDARD
0                                   8888              * BC
                                    8889              * RESTRICTION BC - R7 MUST BE BASE REGISTER
                                    8890              * RESTRICTION BC - R12 MAY BE USED WITH CV-LABEL EXIT
                                    8891              * RESTRICTION BC - BRANCH MUST BE LOCAL WITHIN CURRENT PROC
                                    8892              * RESTRICTION -- - ALL CODE MUST FALL WITHIN LOCAL PROCS
 00098E 5810 71D2            00B58  8893                       L     R1,=F'1'
1ITEST    (ITES2010) (12:47) (15MAR04) ITEST ROUTINES                                                                       Page   14
0Current Usings:  (*,R7) (ITESTWA-(4+36),R8) (CP,R11) (CV,R12)
0Loc    Object Code    Addr1 Addr2  Stmt Lv Lineno    Source Statement           (Hibal 5, Asmedit 3.3)  HLASM R4.0  2004/03/15 12.47
+___    ______ ____    _____ _____  ____ __ ______    ______ _________
0000992 1211                        8894                       LTR   R1,R1
 000994 4720 7020            009A6  8895                       IF    NH,BEGIN
 000998 4110 7232/4100_      00BB8  8906  1                      MWRITE 'BC FAILED'
 0009A6                             8915                       END
 0009A6 5810 71DA            00B60  8919                       L     R1,=F'0'
 0009AA 1211                        8920                       LTR   R1,R1
 0009AC 4780 7038            009BE  8921                       IF    NZ,BEGIN
 0009B0 4110 7232/4100_      00BB8  8932  1                      MWRITE 'BC FAILED'
 0009BE                             8941                       END
 0009BE 5810 71DE            00B64  8945                       L     R1,=F'-1'
 0009C2 1211                        8946                       LTR   R1,R1
 0009C4 4740 7050            009D6  8947                       IF    NL,BEGIN
 0009C8 4110 7232/4100_      00BB8  8958  1                      MWRITE 'BC FAILED'
 0009D6                             8967                       END
 0009D6 5810 71D2            00B58  8971                       L     R1,=F'1'
 0009DA 1211                        8972                       LTR   R1,R1
 0009DC 47D0 705A            009E0  8973                       IF    H,BEGIN
 0009E0                             8984                       END
 0009E0 705E/47F0 706C 009E0 009DE  8988                       ELSE  BEGIN
 0009E4 4110 7232/4100_      00BB8  8999  1                      MWRITE 'BC FAILED'
 0009F2                             9008                       END
 0009F2 5810 71DA            00B60  9012                       L     R1,=F'0'
 0009F6 1211                        9013                       LTR   R1,R1
 0009F8 4770 7076            009FC  9014                       IF    Z,BEGIN
 0009FC                             9025                       END
 0009FC 707A/47F0 7088 009FC 009FA  9029                       ELSE  BEGIN
 000A00 4110 7232/4100_      00BB8  9040  1                      MWRITE 'BC FAILED'
 000A0E                             9049                       END
 000A0E 5810 71DE            00B64  9053                       L     R1,=F'-1'
 000A12 1211                        9054                       LTR   R1,R1
 000A14 47B0 7092            00A18  9055                       IF    L,BEGIN
 000A18                             9066                       END
 000A18 7096/47F0 70A4 00A18 00A16  9070                       ELSE  BEGIN
 000A1C 4110 7232/4100_      00BB8  9081  1                      MWRITE 'BC FAILED'
 000A2A                             9090                       END
                                    9094              * BCTR
                                    9095              * RESTRICTION BCTR - ONLY ALLOWED BCTR Rn,0 - TREATED AS DECREMENT
 000A2A 5810 71E2            00B68  9096                       L     R1,=F'12'
 000A2E 0610                        9097                       BCTR  R1,0
 000A30 5910 71E6/4780_      00B6C  9098                       IF    (R1,NE,11),BEGIN
 000A38 4110 723B/4100_      00BC1  9115  1                      MWRITE 'BCTR FAILED'
 000A46                             9124                       END
                                    9128              * BCT
                                    9129              * RESTRICTION BCT - LABEL MUST BE R7 BASED AND WITHIN LOCAL PROC
 000A46 5810 71DA            00B60  9130                       L     R1,=F'0'
 000A4A 5860 71EA            00B70  9131                       L     R6,=F'6'
 000A4E                             9132              BCTLOOP  LABEL ,
 000A4E 4111 0001            00001  9134                       LA    R1,1(R1)
 000A52 4660 70C8            00A4E  9135                       BCT   R6,BCTLOOP
 000A56 5910 71EE/4770_      00B74  9136                       IF    ((R1,NE,6),OR,(R6,NE,0)),BEGIN
 000A66 4110 721E/4100_      00BA4  9169  1                      MWRITE 'BCT FAILED'
 000A74                             9178                       END
                                    9182              * BXH
                                    9183              * RESTRICTION BXH - LABEL MUST BE R7 BASED AND WITHIN LOCAL PROC
1ITEST    (ITES2010) (12:47) (15MAR04) ITEST ROUTINES                                                                       Page   15
0Current Usings:  (*,R7) (ITESTWA-(4+36),R8) (CP,R11) (CV,R12)
0Loc    Object Code    Addr1 Addr2  Stmt Lv Lineno    Source Statement           (Hibal 5, Asmedit 3.3)  HLASM R4.0  2004/03/15 12.47
+___    ______ ____    _____ _____  ____ __ ______    ______ _________
0000A74 5820 71DA            00B60  9184                       L     R2,=F'0'
 000A78 5830 71E2            00B68  9185                       L     R3,=F'12'
 000A7C 5840 71F6            00B7C  9186                       L     R4,=F'2'
 000A80 5850 71FA            00B80  9187                       L     R5,=F'20'
 000A84                             9188              BXHLOOP1 LABEL ,
 000A84 4122 0001            00001  9190                       LA    R2,1(R2)
 000A88 8634 710A            00A90  9191                       BXH   R3,R4,BXHDONE1
 000A8C 47F0 70FE            00A84  9192                       B     BXHLOOP1
 000A90                             9193              BXHDONE1 LABEL ,
 000A90 5920 71FE/4770_      00B84  9195                       IF    ((R2,NE,5),OR,(R3,NE,22)),BEGIN
 000AA0 4110 7228/4100_      00BAE  9228  1                      MWRITE 'BHX FAILED'
 000AAE                             9237                       END
 000AAE 5820 71DA            00B60  9241                       L     R2,=F'0'
 000AB2 5830 71E2            00B68  9242                       L     R3,=F'12'
 000AB6 5850 7206            00B8C  9243                       L     R5,=F'-4'
 000ABA                             9244              BXHLOOP2 LABEL ,
 000ABA 4122 0001            00001  9246                       LA    R2,1(R2)
 000ABE 8635 7134            00ABA  9247                       BXH   R3,R5,BXHLOOP2
 000AC2 5920 720A/4770_      00B90  9248                       IF    ((R2,NE,4),OR,(R3,NE,-4)),BEGIN
 000AD2 4110 7228/4100_      00BAE  9280  1                      MWRITE 'BHX FAILED'
 000AE0                             9289                       END
                                    9293              * BXLE
                                    9294              * RESTRICTION BXLE - LABEL MUST BE R7 BASED AND WITHIN LOCAL PROC
 000AE0 5820 71DA            00B60  9295                       L     R2,=F'0'
 000AE4 5830 71E2            00B68  9296                       L     R3,=F'12'
 000AE8 5840 71F6            00B7C  9297                       L     R4,=F'2'
 000AEC 5850 71FA            00B80  9298                       L     R5,=F'20'
 000AF0                             9299              BXLELOOP LABEL ,
 000AF0 4122 0001            00001  9301                       LA    R2,1(R2)
 000AF4 8734 716A            00AF0  9302                       BXLE  R3,R4,BXLELOOP
 000AF8 5920 71FE/4770_      00B84  9303                       IF    ((R2,NE,5),OR,(R3,NE,22)),BEGIN
 000B08 4110 7246/4100_      00BCC  9336  1                      MWRITE 'BXLE FAILED'
 000B16                             9345                       END
 000B16 5820 71DA            00B60  9349                       L     R2,=F'0'
 000B1A 5830 7212            00B98  9350                       L     R3,=F'-8'
 000B1E 5850 7216            00B9C  9351                       L     R5,=F'4'
 000B22                             9352              BXLELP2  LABEL ,
 000B22 4122 0001            00001  9354                       LA    R2,1(R2)
 000B26 8735 719C            00B22  9355                       BXLE  R3,R5,BXLELP2
 000B2A 5920 720A/4770_      00B90  9356                       IF    ((R2,NE,4),OR,(R3,NE,8)),BEGIN
 000B3A 4110 7246/4100_      00BCC  9389  1                      MWRITE 'BXLE FAILED'
 000B48                             9398                       END
                                    9402
 000B48 18D8/9808 D004_             9403                       PEND
 DROP   ITESTWA-(4+36),R8
 DROP   *,R7
                                    9428
                                    9429                       QLTORG
                                    9465
 000BD8 50E0 D000/9008_      00000  9466              DOTEST3  PROC  ITESTWA
 USING  *,R7
 USING  ITESTWA-(4+36),R8
                                    9516              *
                                    9517              * CR
1ITEST    (ITES2010) (12:47) (15MAR04) ITEST ROUTINES                                                                       Page   16
0Current Usings:  (*,R7) (ITESTWA-(4+36),R8) (CP,R11) (CV,R12)
0Loc    Object Code    Addr1 Addr2  Stmt Lv Lineno    Source Statement           (Hibal 5, Asmedit 3.3)  HLASM R4.0  2004/03/15 12.47
+___    ______ ____    _____ _____  ____ __ ______    ______ _________
0000BF2 5810 78A6            01498  9518                       L     R1,=F'1'
 000BF6 5820 78AA            0149C  9519                       L     R2,=F'2'
 000BFA 1912                        9520                       CR    R1,R2
 000BFC 4740 701C            00C0E  9521                       IF    (NL),BEGIN
 000C00 4110 79E6/4100_      015D8  9532  1                      MWRITE 'CR FAILED'
 000C0E                             9541                       END
 000C0E 5810 78B2            014A4  9545                       L     R1,=F'-1'
 000C12 5820 78B6            014A8  9546                       L     R2,=F'-2'
 000C16 1912                        9547                       CR    R1,R2
 000C18 4720 7038            00C2A  9548                       IF    (NH),BEGIN
 000C1C 4110 79E6/4100_      015D8  9559  1                      MWRITE 'CR FAILED'
 000C2A                             9568                       END
 000C2A 5810 78BA            014AC  9572                       L     R1,=F'4000011'
 000C2E 5820 78BE            014B0  9573                       L     R2,=F'4000000'
 000C32 1912                        9574                       CR    R1,R2
 000C34 4720 7054            00C46  9575                       IF    (NH),BEGIN
 000C38 4110 79E6/4100_      015D8  9586  1                      MWRITE 'CR FAILED'
 000C46                             9595                       END
 000C46 5810 78BA            014AC  9599                       L     R1,=F'4000011'
 000C4A 5820 78C2            014B4  9600                       L     R2,=F'-8000011'
 000C4E 1912                        9601                       CR    R1,R2
 000C50 4720 7070            00C62  9602                       IF    (NH),BEGIN
 000C54 4110 79E6/4100_      015D8  9613  1                      MWRITE 'CR FAILED'
 000C62                             9622                       END
 000C62 5810 78C2            014B4  9626                       L     R1,=F'-8000011'
 000C66 5820 78BA            014AC  9627                       L     R2,=F'4000011'
 000C6A 1912                        9628                       CR    R1,R2
 000C6C 4740 708C            00C7E  9629                       IF    (NL),BEGIN
 000C70 4110 79E6/4100_      015D8  9640  1                      MWRITE 'CR FAILED'
 000C7E                             9649                       END
 000C7E 5810 78C6            014B8  9653                       L     R1,=F'430030'
 000C82 5820 78C6            014B8  9654                       L     R2,=F'430030'
 000C86 1912                        9655                       CR    R1,R2
 000C88 4780 70A8            00C9A  9656                       IF    (NE),BEGIN
 000C8C 4110 79E6/4100_      015D8  9667  1                      MWRITE 'CR FAILED'
 000C9A                             9676                       END
 000C9A 5810 78CA            014BC  9680                       L     R1,=F'-30030'
 000C9E 5820 78CA            014BC  9681                       L     R2,=F'-30030'
 000CA2 1912                        9682                       CR    R1,R2
 000CA4 4780 70C4            00CB6  9683                       IF    (NE),BEGIN
 000CA8 4110 79E6/4100_      015D8  9694  1                      MWRITE 'CR FAILED'
 000CB6                             9703                       END
                                    9707              * C
 000CB6 5810 78A6            01498  9708                       L     R1,=F'1'
 000CBA 5910 78AA            0149C  9709                       C     R1,=F'2'
 000CBE 4740 70DE            00CD0  9710                       IF    (NL),BEGIN
 000CC2 4110 789E/4100_      01490  9721  1                      MWRITE 'C FAILED'
 000CD0                             9730                       END
 000CD0 5810 78B2            014A4  9734                       L     R1,=F'-1'
 000CD4 5910 78B6            014A8  9735                       C     R1,=F'-2'
 000CD8 4720 70F8            00CEA  9736                       IF    (NH),BEGIN
 000CDC 4110 789E/4100_      01490  9747  1                      MWRITE 'C FAILED'
 000CEA                             9756                       END
 000CEA 5810 78BA            014AC  9760                       L     R1,=F'4000011'
1ITEST    (ITES2010) (12:47) (15MAR04) ITEST ROUTINES                                                                       Page   17
0Current Usings:  (*,R7) (ITESTWA-(4+36),R8) (CP,R11) (CV,R12)
0Loc    Object Code    Addr1 Addr2  Stmt Lv Lineno    Source Statement           (Hibal 5, Asmedit 3.3)  HLASM R4.0  2004/03/15 12.47
+___    ______ ____    _____ _____  ____ __ ______    ______ _________
0000CEE 5910 78BE            014B0  9761                       C     R1,=F'4000000'
 000CF2 4720 7112            00D04  9762                       IF    (NH),BEGIN
 000CF6 4110 789E/4100_      01490  9773  1                      MWRITE 'C FAILED'
 000D04                             9782                       END
 000D04 5810 78BA            014AC  9786                       L     R1,=F'4000011'
 000D08 5910 78C2            014B4  9787                       C     R1,=F'-8000011'
 000D0C 4720 712C            00D1E  9788                       IF    (NH),BEGIN
 000D10 4110 789E/4100_      01490  9799  1                      MWRITE 'C FAILED'
 000D1E                             9808                       END
 000D1E 5810 78C2            014B4  9812                       L     R1,=F'-8000011'
 000D22 5910 78BA            014AC  9813                       C     R1,=F'4000011'
 000D26 4740 7146            00D38  9814                       IF    (NL),BEGIN
 000D2A 4110 789E/4100_      01490  9825  1                      MWRITE 'C FAILED'
 000D38                             9834                       END
 000D38 5810 78C6            014B8  9838                       L     R1,=F'430030'
 000D3C 5910 78C6            014B8  9839                       C     R1,=F'430030'
 000D40 4780 7160            00D52  9840                       IF    (NE),BEGIN
 000D44 4110 789E/4100_      01490  9851  1                      MWRITE 'C FAILED'
 000D52                             9860                       END
 000D52 5810 78CA            014BC  9864                       L     R1,=F'-30030'
 000D56 5910 78CA            014BC  9865                       C     R1,=F'-30030'
 000D5A 4780 717A            00D6C  9866                       IF    (NE),BEGIN
 000D5E 4110 789E/4100_      01490  9877  1                      MWRITE 'C FAILED'
 000D6C                             9886                       END
                                    9890              * CS
                                    9891              * RESTRICTIONS CS - NOT ALLOWED
0                                   9893              * CDS
                                    9894              * RESTRICTIONS CDS - NOT ALLOWED
0                                   9896              * CH
 000D6C 4810 7962            01554  9897                       LH    R1,=H'1'
 000D70 4910 7964            01556  9898                       CH    R1,=H'2'
 000D74 4740 7194            00D86  9899                       IF    (NL),BEGIN
 000D78 4110 79EF/4100_      015E1  9910  1                      MWRITE 'CH FAILED'
 000D86                             9919                       END
 000D86 4810 7966            01558  9923                       LH    R1,=H'-1'
 000D8A 4910 7968            0155A  9924                       CH    R1,=H'-2'
 000D8E 4720 71AE            00DA0  9925                       IF    (NH),BEGIN
 000D92 4110 79EF/4100_      015E1  9936  1                      MWRITE 'CH FAILED'
 000DA0                             9945                       END
 000DA0 4810 796A            0155C  9949                       LH    R1,=H'4011'
 000DA4 4910 796C            0155E  9950                       CH    R1,=H'4000'
 000DA8 4720 71C8            00DBA  9951                       IF    (NH),BEGIN
 000DAC 4110 79EF/4100_      015E1  9962  1                      MWRITE 'CH FAILED'
 000DBA                             9971                       END
 000DBA 4810 796A            0155C  9975                       LH    R1,=H'4011'
 000DBE 4910 796E            01560  9976                       CH    R1,=H'-8011'
 000DC2 4720 71E2            00DD4  9977                       IF    (NH),BEGIN
 000DC6 4110 79EF/4100_      015E1  9988  1                      MWRITE 'CH FAILED'
 000DD4                             9997                       END
 000DD4 4810 796E            01560 10001                       LH    R1,=H'-8011'
 000DD8 4910 796A            0155C 10002                       CH    R1,=H'4011'
 000DDC 4740 71FC            00DEE 10003                       IF    (NL),BEGIN
1ITEST    (ITES2010) (12:47) (15MAR04) ITEST ROUTINES                                                                       Page   18
0Current Usings:  (*,R7) (ITESTWA-(4+36),R8) (CP,R11) (CV,R12)
0Loc    Object Code    Addr1 Addr2  Stmt Lv Lineno    Source Statement           (Hibal 5, Asmedit 3.3)  HLASM R4.0  2004/03/15 12.47
+___    ______ ____    _____ _____  ____ __ ______    ______ _________
0000DE0 4110 79EF/4100_      015E1 10014  1                      MWRITE 'CH FAILED'
 000DEE                            10023                       END
 000DEE 4810 7970            01562 10027                       LH    R1,=H'4330'
 000DF2 4910 7970            01562 10028                       CH    R1,=H'4330'
 000DF6 4780 7216            00E08 10029                       IF    (NE),BEGIN
 000DFA 4110 79EF/4100_      015E1 10040  1                      MWRITE 'CH FAILED'
 000E08                            10049                       END
 000E08 4810 7972            01564 10053                       LH    R1,=H'-3030'
 000E0C 4910 7972            01564 10054                       CH    R1,=H'-3030'
 000E10 4780 7230            00E22 10055                       IF    (NE),BEGIN
 000E14 4110 79EF/4100_      015E1 10066  1                      MWRITE 'CH FAILED'
 000E22                            10075                       END
                                   10079              * CLR
 000E22 5810 78A6            01498 10080                       L     R1,=F'1'
 000E26 5820 78AA            0149C 10081                       L     R2,=F'2'
 000E2A 1512                       10082                       CLR   R1,R2
 000E2C 4740 724C            00E3E 10083                       IF    (NL),BEGIN
 000E30 4110 7974/4100_      01566 10094  1                      MWRITE 'CLR FAILED'
 000E3E                            10103                       END
 000E3E 5810 78B2            014A4 10107                       L     R1,=F'-1'
 000E42 5820 78B6            014A8 10108                       L     R2,=F'-2'
 000E46 1512                       10109                       CLR   R1,R2
 000E48 4720 7268            00E5A 10110                       IF    (NH),BEGIN
 000E4C 4110 7974/4100_      01566 10121  1                      MWRITE 'CLR FAILED'
 000E5A                            10130                       END
 000E5A 5810 78BA            014AC 10134                       L     R1,=F'4000011'
 000E5E 5820 78BE            014B0 10135                       L     R2,=F'4000000'
 000E62 1512                       10136                       CLR   R1,R2
 000E64 4720 7284            00E76 10137                       IF    (NH),BEGIN
 000E68 4110 7974/4100_      01566 10148  1                      MWRITE 'CLR FAILED'
 000E76                            10157                       END
 000E76 5810 78BA            014AC 10161                       L     R1,=F'4000011'
 000E7A 5820 78C2            014B4 10162                       L     R2,=F'-8000011'
 000E7E 1512                       10163                       CLR   R1,R2
 000E80 4740 72A0            00E92 10164                       IF    (NL),BEGIN
 000E84 4110 7974/4100_      01566 10175  1                      MWRITE 'CLR FAILED'
 000E92                            10184                       END
 000E92 5810 78C2            014B4 10188                       L     R1,=F'-8000011'
 000E96 5820 78BA            014AC 10189                       L     R2,=F'4000011'
 000E9A 1512                       10190                       CLR   R1,R2
 000E9C 4720 72BC            00EAE 10191                       IF    (NH),BEGIN
 000EA0 4110 7974/4100_      01566 10202  1                      MWRITE 'CLR FAILED'
 000EAE                            10211                       END
 000EAE 5810 78C6            014B8 10215                       L     R1,=F'430030'
 000EB2 5820 78C6            014B8 10216                       L     R2,=F'430030'
 000EB6 1512                       10217                       CLR   R1,R2
 000EB8 4780 72D8            00ECA 10218                       IF    (NE),BEGIN
 000EBC 4110 7974/4100_      01566 10229  1                      MWRITE 'CLR FAILED'
 000ECA                            10238                       END
 000ECA 5810 78CA            014BC 10242                       L     R1,=F'-30030'
 000ECE 5820 78CA            014BC 10243                       L     R2,=F'-30030'
 000ED2 1512                       10244                       CLR   R1,R2
 000ED4 4780 72F4            00EE6 10245                       IF    (NE),BEGIN
 000ED8 4110 7974/4100_      01566 10256  1                      MWRITE 'CLR FAILED'
1ITEST    (ITES2010) (12:47) (15MAR04) ITEST ROUTINES                                                                       Page   19
0Current Usings:  (*,R7) (ITESTWA-(4+36),R8) (CP,R11) (CV,R12)
0Loc    Object Code    Addr1 Addr2  Stmt Lv Lineno    Source Statement           (Hibal 5, Asmedit 3.3)  HLASM R4.0  2004/03/15 12.47
+___    ______ ____    _____ _____  ____ __ ______    ______ _________
0000EE6                            10265                       END
                                   10269              * CL
 000EE6 5810 78A6            01498 10270                       L     R1,=F'1'
 000EEA 5510 78AA            0149C 10271                       CL    R1,=F'2'
 000EEE 4740 730E            00F00 10272                       IF    (NL),BEGIN
 000EF2 4110 79F8/4100_      015EA 10283  1                      MWRITE 'CL FAILED'
 000F00                            10292                       END
 000F00 5810 78B2            014A4 10296                       L     R1,=F'-1'
 000F04 5510 78B6            014A8 10297                       CL    R1,=F'-2'
 000F08 4720 7328            00F1A 10298                       IF    (NH),BEGIN
 000F0C 4110 79F8/4100_      015EA 10309  1                      MWRITE 'CL FAILED'
 000F1A                            10318                       END
 000F1A 5810 78BA            014AC 10322                       L     R1,=F'4000011'
 000F1E 5510 78BE            014B0 10323                       CL    R1,=F'4000000'
 000F22 4720 7342            00F34 10324                       IF    (NH),BEGIN
 000F26 4110 79F8/4100_      015EA 10335  1                      MWRITE 'CL FAILED'
 000F34                            10344                       END
 000F34 5810 78BA            014AC 10348                       L     R1,=F'4000011'
 000F38 5510 78C2            014B4 10349                       CL    R1,=F'-8000011'
 000F3C 4740 735C            00F4E 10350                       IF    (NL),BEGIN
 000F40 4110 79F8/4100_      015EA 10361  1                      MWRITE 'CL FAILED'
 000F4E                            10370                       END
 000F4E 5810 78C2            014B4 10374                       L     R1,=F'-8000011'
 000F52 5510 78BA            014AC 10375                       CL    R1,=F'4000011'
 000F56 4720 7376            00F68 10376                       IF    (NH),BEGIN
 000F5A 4110 79F8/4100_      015EA 10387  1                      MWRITE 'CL FAILED'
 000F68                            10396                       END
 000F68 5810 78C6            014B8 10400                       L     R1,=F'430030'
 000F6C 5510 78C6            014B8 10401                       CL    R1,=F'430030'
 000F70 4780 7390            00F82 10402                       IF    (NE),BEGIN
 000F74 4110 79F8/4100_      015EA 10413  1                      MWRITE 'CL FAILED'
 000F82                            10422                       END
 000F82 5810 78CA            014BC 10426                       L     R1,=F'-30030'
 000F86 5510 78CA            014BC 10427                       CL    R1,=F'-30030'
 000F8A 4780 73AA            00F9C 10428                       IF    (NE),BEGIN
 000F8E 4110 79F8/4100_      015EA 10439  1                      MWRITE 'CL FAILED'
 000F9C                            10448                       END
                                   10452              * CLI
 000F9C 5810 78CE            014C0 10453                       L     R1,=F'0'
 000FA0 5010 8028            00000 10454                       ST    R1,F1
 000FA4 920F 8028      00000       10455                       MVI   F1,X'0F'
 000FA8 951F 8028      00000       10456                       CLI   F1,X'1F'
 000FAC 4740 73CC            00FBE 10457                       IF    (NL),BEGIN
 000FB0 4110 797E/4100_      01570 10468  1                      MWRITE 'CLI FAILED'
 000FBE                            10477                       END
 000FBE 920F 8028      00000       10481                       MVI   F1,X'0F'
 000FC2 95FF 8028      00000       10482                       CLI   F1,X'FF'
 000FC6 4740 73E6            00FD8 10483                       IF    (NL),BEGIN
 000FCA 4110 797E/4100_      01570 10494  1                      MWRITE 'CLI FAILED'
 000FD8                            10503                       END
 000FD8 92F2 8028      00000       10507                       MVI   F1,X'F2'
 000FDC 95F1 8028      00000       10508                       CLI   F1,X'F1'
 000FE0 4720 7400            00FF2 10509                       IF    (NH),BEGIN
 000FE4 4110 797E/4100_      01570 10520  1                      MWRITE 'CLI FAILED'
1ITEST    (ITES2010) (12:47) (15MAR04) ITEST ROUTINES                                                                       Page   20
0Current Usings:  (*,R7) (ITESTWA-(4+36),R8) (CP,R11) (CV,R12)
0Loc    Object Code    Addr1 Addr2  Stmt Lv Lineno    Source Statement           (Hibal 5, Asmedit 3.3)  HLASM R4.0  2004/03/15 12.47
+___    ______ ____    _____ _____  ____ __ ______    ______ _________
0000FF2                            10529                       END
 000FF2 92F2 8028      00000       10533                       MVI   F1,X'F2'
 000FF6 9501 8028      00000       10534                       CLI   F1,X'01'
 000FFA 4720 741A            0100C 10535                       IF    (NH),BEGIN
 000FFE 4110 797E/4100_      01570 10546  1                      MWRITE 'CLI FAILED'
 00100C                            10555                       END
 00100C 92FF 8028      00000       10559                       MVI   F1,X'FF'
 001010 95FF 8028      00000       10560                       CLI   F1,X'FF'
 001014 4780 7434            01026 10561                       IF    (NE),BEGIN
 001018 4110 797E/4100_      01570 10572  1                      MWRITE 'CLI FAILED'
 001026                            10581                       END
 001026 920F 8028      00000       10585                       MVI   F1,X'0F'
 00102A 950F 8028      00000       10586                       CLI   F1,X'0F'
 00102E 4780 744E            01040 10587                       IF    (NE),BEGIN
 001032 4110 797E/4100_      01570 10598  1                      MWRITE 'CLI FAILED'
 001040                            10607                       END
                                   10611              * PRELIMINARY TEST OF MVC
 001040 D209 8038 7988 00010 0157A 10612                       MVC   BUF1(10),=CL10'1234567890'
 001046 D209 8438 7992 00410 01584 10613                       MVC   BUF2(10),=CL10'0000123456'
 00104C 5810 8038            00010 10614                       L     R1,BUF1
 001050 5820 843C            00414 10615                       L     R2,BUF2+4
 001054 1912/4780 7476             10616                       IF    (R1,NE,R2),BEGIN
 00105A 4110 799C/4100_      0158E 10631  1                      MWRITE 'MVC FAILED'
 001068                            10640                       END
                                   10644              * CLC
 001068 D209 8038 79A6 00010 01598 10645                       MVC   BUF1(10),=CL10'0123456789'
 00106E D20D 8438 79B0 00410 015A2 10646                       MVC   BUF2(14),=CL14'12340123456789'
 001074 D509 8038 843C 00010 00414 10647                       CLC   BUF1(10),BUF2+4
 00107A 4780 749A            0108C 10648                       IF    NE,BEGIN
 00107E 4110 79BE/4100_      015B0 10659  1                      MWRITE 'CLC FAILED'
 00108C                            10668                       END
 00108C D509 8038 8438 00010 00410 10672                       CLC   BUF1(10),BUF2
 001092 4740 74B2            010A4 10673                       IF    NL,BEGIN
 001096 4110 79BE/4100_      015B0 10684  1                      MWRITE 'CLC FAILED'
 0010A4                            10693                       END
 0010A4 D509 8438 8038 00410 00010 10697                       CLC   BUF2(10),BUF1
 0010AA 4720 74CA            010BC 10698                       IF    NH,BEGIN
 0010AE 4110 79BE/4100_      015B0 10709  1                      MWRITE 'CLC FAILED'
 0010BC                            10718                       END
 0010BC D507 8039 8438 00011 00410 10722                       CLC   BUF1+1(8),BUF2
 0010C2 4720 74E2            010D4 10723                       IF    NH,BEGIN
 0010C6 4110 79BE/4100_      015B0 10734  1                      MWRITE 'CLC FAILED'
 0010D4                            10743                       END
 0010D4 D503 8039 8438 00011 00410 10747                       CLC   BUF1+1(4),BUF2
 0010DA 4780 74FA            010EC 10748                       IF    NE,BEGIN
 0010DE 4110 79BE/4100_      015B0 10759  1                      MWRITE 'CLC FAILED'
 0010EC                            10768                       END
                                   10772              * CLM
 0010EC 5810 78D2            014C4 10773                       L     R1,=X'FF00FF00'
 0010F0 5820 78D6            014C8 10774                       L     R2,=X'00FFFF00'
 0010F4 5830 78DA            014CC 10775                       L     R3,=X'FFFFFFFF'
 0010F8 5030 8028            00000 10776                       ST    R3,F1
 0010FC BD1A 8028            00000 10777                       CLM   R1,B'1010',F1
 001100 4780 7520            01112 10778                       IF    NE,BEGIN
1ITEST    (ITES2010) (12:47) (15MAR04) ITEST ROUTINES                                                                       Page   21
0Current Usings:  (*,R7) (ITESTWA-(4+36),R8) (CP,R11) (CV,R12)
0Loc    Object Code    Addr1 Addr2  Stmt Lv Lineno    Source Statement           (Hibal 5, Asmedit 3.3)  HLASM R4.0  2004/03/15 12.47
+___    ______ ____    _____ _____  ____ __ ______    ______ _________
0001104 4110 79C8/4100_      015BA 10789  1                      MWRITE 'CLM FAILED'
 001112                            10798                       END
 001112 BD26 8028            00000 10802                       CLM   R2,B'0110',F1
 001116 4780 7536            01128 10803                       IF    NE,BEGIN
 00111A 4110 79C8/4100_      015BA 10814  1                      MWRITE 'CLM FAILED'
 001128                            10823                       END
 001128 BD13 8028            00000 10827                       CLM   R1,B'0011',F1
 00112C 4740 754C            0113E 10828                       IF    NL,BEGIN
 001130 4110 79C8/4100_      015BA 10839  1                      MWRITE 'CLM FAILED'
 00113E                            10848                       END
 00113E 5810 78DE            014D0 10852                       L     R1,=X'01050102'
 001142 5820 78E2            014D4 10853                       L     R2,=X'00010203'
 001146 5830 78E6            014D8 10854                       L     R3,=X'01020304'
 00114A 5030 8028            00000 10855                       ST    R3,F1
 00114E BD19 8028            00000 10856                       CLM   R1,B'1001',F1
 001152 4780 7572            01164 10857                       IF    NE,BEGIN
 001156 4110 79C8/4100_      015BA 10868  1                      MWRITE 'CLM FAILED'
 001164                            10877                       END
 001164 BD26 8028            00000 10881                       CLM   R2,B'0110',F1
 001168 4780 7588            0117A 10882                       IF    NE,BEGIN
 00116C 4110 79C8/4100_      015BA 10893  1                      MWRITE 'CLM FAILED'
 00117A                            10902                       END
 00117A BD15 8028            00000 10906                       CLM   R1,B'0101',F1
 00117E 4720 759E            01190 10907                       IF    NH,BEGIN
 001182 4110 79C8/4100_      015BA 10918  1                      MWRITE 'CLM FAILED'
 001190                            10927                       END
 001190 BD23 8028            00000 10931                       CLM   R2,B'0011',F1
 001194 4720 75B4            011A6 10932                       IF    NH,BEGIN
 001198 4110 79C8/4100_      015BA 10943  1                      MWRITE 'CLM FAILED'
 0011A6                            10952                       END
                                   10956              * CLCL
 0011A6 D213 8038 78EA 00010 014DC 10957                       MVC   BUF1(20),=CL20'01234567890000000000'
 0011AC D213 8438 78EA 00410 014DC 10958                       MVC   BUF2(20),=CL20'01234567890000000000'
 0011B2 4120 8038            00010 10959                       LA    R2,BUF1
 0011B6 4130 0014            00014 10960                       LA    R3,20
 0011BA 4140 8438            00410 10961                       LA    R4,BUF2
 0011BE 4150 0014            00014 10962                       LA    R5,20
 0011C2 0F24                       10963                       CLCL  R2,R4
 0011C4 4770 75E6/5930_      011D8 10964                       IF    (NE,OR,(R3,NE,0),OR,(R5,NE,0)),BEGIN
 0011D8 4110 7A01/4100_      015F3 11005  1                      MWRITE 'CLCL FAILED'
 0011E6                            11014                       END
 0011E6 4130 804C            00024 11018                       LA    R3,BUF1+20
 0011EA 4150 844C            00424 11019                       LA    R5,BUF2+20
 0011EE 1923/4770 7608_            11020                       IF    ((R2,NE,R3),OR,(R4,NE,R5)),BEGIN
 0011FA 4110 7A01/4100_      015F3 11049  1                      MWRITE 'CLCL FAILED'
 001208                            11058                       END
 001208 4120 8038            00010 11062                       LA    R2,BUF1
 00120C 4130 0014            00014 11063                       LA    R3,20
 001210 4140 8438            00410 11064                       LA    R4,BUF2
 001214 4150 000A            0000A 11065                       LA    R5,10
 001218 5650 7902            014F4 11066                       O     R5,=X'F0000000'   COMMENT PAD = '0'
 00121C 0F24                       11067                       CLCL  R2,R4
 00121E 4770 7640/5930_      01232 11068                       IF    (NE,OR,(R3,NE,0),OR,(R5,NE,X'F0000000')),BEGIN
 001232 4110 7A01/4100_      015F3 11109  1                      MWRITE 'CLCL FAILED'
1ITEST    (ITES2010) (12:47) (15MAR04) ITEST ROUTINES                                                                       Page   22
0Current Usings:  (*,R7) (ITESTWA-(4+36),R8) (CP,R11) (CV,R12)
0Loc    Object Code    Addr1 Addr2  Stmt Lv Lineno    Source Statement           (Hibal 5, Asmedit 3.3)  HLASM R4.0  2004/03/15 12.47
+___    ______ ____    _____ _____  ____ __ ______    ______ _________
0001240                            11118                       END
 001240 4130 804C            00024 11122                       LA    R3,BUF1+20
 001244 4150 8442            0041A 11123                       LA    R5,BUF2+10
 001248 1923/4770 7662_            11124                       IF    ((R2,NE,R3),OR,(R4,NE,R5)),BEGIN
 001254 4110 7A01/4100_      015F3 11153  1                      MWRITE 'CLCL FAILED'
 001262                            11162                       END
 001262 4120 8038            00010 11166                       LA    R2,BUF1
 001266 4130 000A            0000A 11167                       LA    R3,10
 00126A 4140 8438            00410 11168                       LA    R4,BUF2
 00126E 4150 0014            00014 11169                       LA    R5,20
 001272 5650 7902            014F4 11170                       O     R5,=X'F0000000'   COMMENT PAD = '0'
 001276 0F24                       11171                       CLCL  R2,R4
 001278 4770 769A/5930_      0128C 11172                       IF    (NE,OR,(R3,NE,0),OR,(R5,NE,X'F0000000')),BEGIN
 00128C 4110 7A01/4100_      015F3 11213  1                      MWRITE 'CLCL FAILED'
 00129A                            11222                       END
 00129A 4130 8042            0001A 11226                       LA    R3,BUF1+10
 00129E 4150 844C            00424 11227                       LA    R5,BUF2+20
 0012A2 1923/4770 76BC_            11228                       IF    ((R2,NE,R3),OR,(R4,NE,R5)),BEGIN
 0012AE 4110 7A01/4100_      015F3 11257  1                      MWRITE 'CLCL FAILED'
 0012BC                            11266                       END
 0012BC D213 8038 790A 00010 014FC 11270                       MVC   BUF1(20),=CL20'0123456789000000000'
 0012C2 D213 8438 791E 00410 01510 11271                       MVC   BUF2(20),=CL20'0123456789999999999'
 0012C8 4120 8038            00010 11272                       LA    R2,BUF1
 0012CC 4130 0014            00014 11273                       LA    R3,20
 0012D0 4140 8438            00410 11274                       LA    R4,BUF2
 0012D4 4150 0014            00014 11275                       LA    R5,20
 0012D8 0F24                       11276                       CLCL  R2,R4
 0012DA 47B0 76FC/5930_      012EE 11277                       IF    (NL,OR,(R3,NE,10),OR,(R5,NE,10)),BEGIN
 0012EE 4110 7A01/4100_      015F3 11318  1                      MWRITE 'CLCL FAILED'
 0012FC                            11327                       END
 0012FC 4130 8042            0001A 11331                       LA    R3,BUF1+10
 001300 4150 8442            0041A 11332                       LA    R5,BUF2+10
 001304 1923/4770 771E_            11333                       IF    ((R2,NE,R3),OR,(R4,NE,R5)),BEGIN
 001310 4110 7A01/4100_      015F3 11362  1                      MWRITE 'CLCL FAILED'
 00131E                            11371                       END
 00131E 4120 8038            00010 11375                       LA    R2,BUF1
 001322 4130 0014            00014 11376                       LA    R3,20
 001326 4140 8438            00410 11377                       LA    R4,BUF2
 00132A 4150 0014            00014 11378                       LA    R5,20
 00132E 0F42                       11379                       CLCL  R4,R2
 001330 47D0 7752/5930_      01344 11380                       IF    (NH,OR,(R3,NE,10),OR,(R5,NE,10)),BEGIN
 001344 4110 7A01/4100_      015F3 11421  1                      MWRITE 'CLCL FAILED'
 001352                            11430                       END
 001352 4130 8042            0001A 11434                       LA    R3,BUF1+10
 001356 4150 8442            0041A 11435                       LA    R5,BUF2+10
 00135A 1923/4770 7774_            11436                       IF    ((R2,NE,R3),OR,(R4,NE,R5)),BEGIN
 001366 4110 7A01/4100_      015F3 11465  1                      MWRITE 'CLCL FAILED'
 001374                            11474                       END
 001374 4120 8038            00010 11478                       LA    R2,BUF1
 001378 4130 0005            00005 11479                       LA    R3,5
 00137C 4140 8438            00410 11480                       LA    R4,BUF2
 001380 4150 0014            00014 11481                       LA    R5,20
 001384 5650 7936            01528 11482                       O     R5,=X'F5000000'   COMMENT PAD = '6'
 001388 0F24                       11483                       CLCL  R2,R4
1ITEST    (ITES2010) (12:47) (15MAR04) ITEST ROUTINES                                                                       Page   23
0Current Usings:  (*,R7) (ITESTWA-(4+36),R8) (CP,R11) (CV,R12)
0Loc    Object Code    Addr1 Addr2  Stmt Lv Lineno    Source Statement           (Hibal 5, Asmedit 3.3)  HLASM R4.0  2004/03/15 12.47
+___    ______ ____    _____ _____  ____ __ ______    ______ _________
000138A 47B0 77AC/5930_      0139E 11484                       IF    (NL,OR,(R3,NE,0),OR,(R5,NE,X'F500000E')),BEGIN
 00139E 4110 7A01/4100_      015F3 11525  1                      MWRITE 'CLCL FAILED'
 0013AC                            11534                       END
 0013AC 4130 803D            00015 11538                       LA    R3,BUF1+5
 0013B0 4150 843E            00416 11539                       LA    R5,BUF2+6
 0013B4 1923/4770 77CE_            11540                       IF    ((R2,NE,R3),OR,(R4,NE,R5)),BEGIN
 0013C0 4110 7A01/4100_      015F3 11569  1                      MWRITE 'CLCL FAILED'
 0013CE                            11578                       END
                                   11582              * CVB
 0013CE 5810 78CE            014C0 11583                       L     R1,=F'0'
 0013D2 5820 793E            01530 11584                       L     R2,=X'0025594C'
 0013D6 5010 8028            00000 11585                       ST    R1,F1
 0013DA 5020 802C            00004 11586                       ST    R2,F2
 0013DE 4F10 8028            00000 11587                       CVB   R1,F1
 0013E2 5910 7942/4780_      01534 11588                       IF    (R1,NE,25594),BEGIN
 0013EA 4110 79D2/4100_      015C4 11605  1                      MWRITE 'CVB FAILED'
 0013F8                            11614                       END
 0013F8 5810 78CE            014C0 11618                       L     R1,=F'0'
 0013FC 5820 7946            01538 11619                       L     R2,=X'0025594D'
 001400 5010 8028            00000 11620                       ST    R1,F1
 001404 5020 802C            00004 11621                       ST    R2,F2
 001408 4F10 8028            00000 11622                       CVB   R1,F1
 00140C 5910 794A/4780_      0153C 11623                       IF    (R1,NE,-25594),BEGIN
 001414 4110 79D2/4100_      015C4 11639  1                      MWRITE 'CVB FAILED'
 001422                            11648                       END
                                   11652              * CVD
 001422 5810 794E            01540 11653                       L     R1,=F'234567890'
 001426 4E10 8028            00000 11654                       CVD   R1,F1
 00142A 5810 8028            00000 11655                       L     R1,F1
 00142E 5820 802C            00004 11656                       L     R2,F2
 001432 5910 7952/4770_      01544 11657                       IF    ((R1,NE,X'00000023'),OR,(R2,NE,X'4567890C')),BEGIN
 001442 4110 79DC/4100_      015CE 11690  1                      MWRITE 'CVD FAILED'
 001450                            11699                       END
 001450 5810 795A            0154C 11703                       L     R1,=F'-234567890'
 001454 4E10 8028            00000 11704                       CVD   R1,F1
 001458 5810 8028            00000 11705                       L     R1,F1
 00145C 5820 802C            00004 11706                       L     R2,F2
 001460 5910 7952/4770_      01544 11707                       IF    ((R1,NE,X'00000023'),OR,(R2,NE,X'4567890D')),BEGIN
 001470 4110 79DC/4100_      015CE 11740  1                      MWRITE 'CVD FAILED'
 00147E                            11749                       END
 00147E 18D8/9808 D004_            11753                       PEND
 DROP   ITESTWA-(4+36),R8
 DROP   *,R7
                                   11778
                                   11779                       QLTORG
                                   11851
 0015FE 50E0 D000/9008_      00000 11852              DOTEST4  PROC  ITESTWA
 USING  *,R7
 USING  ITESTWA-(4+36),R8
                                   11902              *
                                   11903              * DR
                                   11904              * RESTRICTION DR - NUMBER DIVIDED MUST BE SINGLE FULLWORD MAX
                                   11905              * RESTRICTION DR - NEGATIVE NUMBERS NOT PROPERLY HANDLED ON VAX
 001618 5800 77B8            01DD0 11906                       L     R0,=F'0'
1ITEST    (ITES2010) (12:47) (15MAR04) ITEST ROUTINES                                                                       Page   24
0Current Usings:  (*,R7) (ITESTWA-(4+36),R8) (CP,R11) (CV,R12)
0Loc    Object Code    Addr1 Addr2  Stmt Lv Lineno    Source Statement           (Hibal 5, Asmedit 3.3)  HLASM R4.0  2004/03/15 12.47
+___    ______ ____    _____ _____  ____ __ ______    ______ _________
000161C 5810 77BC            01DD4 11907                       L     R1,=F'43567898'
 001620 5820 77C0            01DD8 11908                       L     R2,=F'1000'
 001624 1D02                       11909                       DR    R0,R2
 001626 5900 77C4/4770_      01DDC 11910                       IF    ((R0,NE,898),OR,(R1,NE,43567)),BEGIN
 001636 4110 78D4/4100_      01EEC 11943  1                      MWRITE 'DR FAILED'
 001644                            11952                       END
 001644 5800 77B8            01DD0 11956                       L     R0,=F'0'
 001648 5810 77D0            01DE8 11957                       L     R1,=F'98'
 00164C 5820 77D4            01DEC 11958                       L     R2,=F'10900'
 001650 1D02                       11959                       DR    R0,R2
 001652 5900 77D8/4770_      01DF0 11960                       IF    ((R0,NE,98),OR,(R1,NE,0)),BEGIN
 001662 4110 78D4/4100_      01EEC 11993  1                      MWRITE 'DR FAILED'
 001670                            12002                       END
 001670 5800 77B8            01DD0 12006                       L     R0,=F'0'
 001674 5810 77E0            01DF8 12007                       L     R1,=F'435650000'
 001678 5820 77E4            01DFC 12008                       L     R2,=F'10000'
 00167C 1D02                       12009                       DR    R0,R2
 00167E 5900 77DC/4770_      01DF4 12010                       IF    ((R0,NE,0),OR,(R1,NE,43565)),BEGIN
 00168E 4110 78D4/4100_      01EEC 12043  1                      MWRITE 'DR FAILED'
 00169C                            12052                       END
 00169C 5800 77EC            01E04 12056                       L     R0,=F'-1'
 0016A0 5810 77F0            01E08 12057                       L     R1,=F'-435650000'
 0016A4 5820 77E4            01DFC 12058                       L     R2,=F'10000'
 0016A8 1D02                       12059                       DR    R0,R2
 0016AA 5900 77DC/4770_      01DF4 12060                       IF    ((R0,NE,0),OR,(R1,NE,-43565)),BEGIN
 0016BA 4110 78D4/4100_      01EEC 12092  1                      MWRITE 'DR FAILED'
 0016C8                            12101                       END
 0016C8 5800 77EC            01E04 12105                       L     R0,=F'-1'
 0016CC 5810 77F0            01E08 12106                       L     R1,=F'-435650000'
 0016D0 5820 77F8            01E10 12107                       L     R2,=F'-10000'
 0016D4 1D02                       12108                       DR    R0,R2
 0016D6 5900 77DC/4770_      01DF4 12109                       IF    ((R0,NE,0),OR,(R1,NE,43565)),BEGIN
 0016E6 4110 78D4/4100_      01EEC 12142  1                      MWRITE 'DR FAILED'
 0016F4                            12151                       END
                                   12155              * D
                                   12156              * RESTRICTION D - NUMBER DIVIDED MUST BE SINGLE FULLWORD MAX
                                   12157              * RESTRICTION D - NEGATIVE NUMBERS NOT PROPERLY HANDLED ON VAX
 0016F4 5800 77B8            01DD0 12158                       L     R0,=F'0'
 0016F8 5810 77BC            01DD4 12159                       L     R1,=F'43567898'
 0016FC 5D00 77C0            01DD8 12160                       D     R0,=F'1000'
 001700 5900 77C4/4770_      01DDC 12161                       IF    ((R0,NE,898),OR,(R1,NE,43567)),BEGIN
 001710 4110 77A8/4100_      01DC0 12194  1                      MWRITE 'D FAILED'
 00171E                            12203                       END
 00171E 5800 77B8            01DD0 12207                       L     R0,=F'0'
 001722 5810 77D0            01DE8 12208                       L     R1,=F'98'
 001726 5D00 77D4            01DEC 12209                       D     R0,=F'10900'
 00172A 5900 77D8/4770_      01DF0 12210                       IF    ((R0,NE,98),OR,(R1,NE,0)),BEGIN
 00173A 4110 77A8/4100_      01DC0 12243  1                      MWRITE 'D FAILED'
 001748                            12252                       END
 001748 5800 77B8            01DD0 12256                       L     R0,=F'0'
 00174C 5810 77E0            01DF8 12257                       L     R1,=F'435650000'
 001750 5D00 77E4            01DFC 12258                       D     R0,=F'10000'
 001754 5900 77DC/4770_      01DF4 12259                       IF    ((R0,NE,0),OR,(R1,NE,43565)),BEGIN
 001764 4110 77A8/4100_      01DC0 12292  1                      MWRITE 'D FAILED'
1ITEST    (ITES2010) (12:47) (15MAR04) ITEST ROUTINES                                                                       Page   25
0Current Usings:  (*,R7) (ITESTWA-(4+36),R8) (CP,R11) (CV,R12)
0Loc    Object Code    Addr1 Addr2  Stmt Lv Lineno    Source Statement           (Hibal 5, Asmedit 3.3)  HLASM R4.0  2004/03/15 12.47
+___    ______ ____    _____ _____  ____ __ ______    ______ _________
0001772                            12301                       END
 001772 5800 77EC            01E04 12305                       L     R0,=F'-1'
 001776 5810 77F0            01E08 12306                       L     R1,=F'-435650000'
 00177A 5D00 77E4            01DFC 12307                       D     R0,=F'10000'
 00177E 5900 77DC/4770_      01DF4 12308                       IF    ((R0,NE,0),OR,(R1,NE,-43565)),BEGIN
 00178E 4110 77A8/4100_      01DC0 12340  1                      MWRITE 'D FAILED'
 00179C                            12349                       END
 00179C 5800 77EC            01E04 12353                       L     R0,=F'-1'
 0017A0 5810 77F0            01E08 12354                       L     R1,=F'-435650000'
 0017A4 5D00 77F8            01E10 12355                       D     R0,=F'-10000'
 0017A8 5900 77DC/4770_      01DF4 12356                       IF    ((R0,NE,0),OR,(R1,NE,43565)),BEGIN
 0017B8 4110 77A8/4100_      01DC0 12389  1                      MWRITE 'D FAILED'
 0017C6                            12398                       END
                                   12402              * ED    (FROM POPS)
                                   12403              * RESTRICTIONS ED - ED SUPPORTED, BUT MINIMALLY TESTED
 0017C6 D20E 8038 78DD 00010 01EF5 12404                       MVC   BUF1(15),=XL15'4020206B2021204B202040C3D94040'
 0017CC D203 8438 77FC 00410 01E14 12405                       MVC   BUF2(4),=XL4'0257426C'
 0017D2 DE0C 8038 8438 00010 00410 12406                       ED    BUF1(13),BUF2
 0017D8 4720 71D2            017EA 12407                       IF    NH,BEGIN
 0017DC 4110 78EC/4100_      01F04 12418  1                      MWRITE 'ED FAILED'
 0017EA                            12427                       END
 0017EA D50E 8038 78F5 00010 01F0D 12431                       CLC   BUF1(15),=CL15'  2,574.26     '
 0017F0 4780 71EA            01802 12432                       IF    NE,BEGIN
 0017F4 4110 78EC/4100_      01F04 12443  1                      MWRITE 'ED FAILED'
 001802                            12452                       END
 001802 D20E 8038 78DD 00010 01EF5 12456                       MVC   BUF1(15),=XL15'4020206B2021204B202040C3D94040'
 001808 D203 8438 7800 00410 01E18 12457                       MVC   BUF2(4),=XL4'0000026D'
 00180E DE0C 8038 8438 00010 00410 12458                       ED    BUF1(13),BUF2
 001814 4740 720E            01826 12459                       IF    NL,BEGIN
 001818 4110 78EC/4100_      01F04 12470  1                      MWRITE 'ED FAILED'
 001826                            12479                       END
 001826 D50E 8038 7904 00010 01F1C 12483                       CLC   BUF1(15),=CL15'      0.26 CR  '
 00182C 4780 7226            0183E 12484                       IF    NE,BEGIN
 001830 4110 78EC/4100_      01F04 12495  1                      MWRITE 'ED FAILED'
 00183E                            12504                       END
                                   12508              * EDMK  (FROM POPS)
                                   12509              * RESTRICTIONS EDMK - EDMK SUPPORTED, BUT MINIMALLY TESTED
 00183E D20E 8038 78DD 00010 01EF5 12510                       MVC   BUF1(15),=XL15'4020206B2021204B202040C3D94040'
 001844 D203 8438 77FC 00410 01E14 12511                       MVC   BUF2(4),=XL4'0257426C'
 00184A 4110 803E            00016 12512                       LA    R1,BUF1+6
 00184E DF0C 8038 8438 00010 00410 12513                       EDMK  BUF1(13),BUF2
 001854 4720 724E            01866 12514                       IF    NH,BEGIN
 001858 4110 7913/4100_      01F2B 12525  1                      MWRITE 'EDMK FAILED'
 001866                            12534                       END
 001866 0610                       12538                       BCTR  R1,0
 001868 925B 1000      00000       12539                       MVI   0(R1),C'$'
 00186C D50E 8038 791E 00010 01F36 12540                       CLC   BUF1(15),=CL15' $2,574.26     '
 001872 4780 726C            01884 12541                       IF    NE,BEGIN
 001876 4110 7913/4100_      01F2B 12552  1                      MWRITE 'EDMK FAILED'
 001884                            12561                       END
 001884 D20E 8038 78DD 00010 01EF5 12565                       MVC   BUF1(15),=XL15'4020206B2021204B202040C3D94040'
 00188A D203 8438 7800 00410 01E18 12566                       MVC   BUF2(4),=XL4'0000026D'
 001890 4110 803E            00016 12567                       LA    R1,BUF1+6
 001894 DF0C 8038 8438 00010 00410 12568                       EDMK  BUF1(13),BUF2
1ITEST    (ITES2010) (12:47) (15MAR04) ITEST ROUTINES                                                                       Page   26
0Current Usings:  (*,R7) (ITESTWA-(4+36),R8) (CP,R11) (CV,R12)
0Loc    Object Code    Addr1 Addr2  Stmt Lv Lineno    Source Statement           (Hibal 5, Asmedit 3.3)  HLASM R4.0  2004/03/15 12.47
+___    ______ ____    _____ _____  ____ __ ______    ______ _________
000189A 4740 7294            018AC 12569                       IF    NL,BEGIN
 00189E 4110 7913/4100_      01F2B 12580  1                      MWRITE 'EDMK FAILED'
 0018AC                            12589                       END
 0018AC 0610                       12593                       BCTR  R1,0
 0018AE 925B 1000      00000       12594                       MVI   0(R1),C'$'
 0018B2 D50E 8038 792D 00010 01F45 12595                       CLC   BUF1(15),=CL15'     $0.26 CR  '
 0018B8 4780 72B2            018CA 12596                       IF    NE,BEGIN
 0018BC 4110 7913/4100_      01F2B 12607  1                      MWRITE 'EDMK FAILED'
 0018CA                            12616                       END
                                   12620              * XR
 0018CA 5810 7804            01E1C 12621                       L     R1,=X'0000FFFF'
 0018CE 5820 7808            01E20 12622                       L     R2,=X'F0F0F0F0'
 0018D2 1712                       12623                       XR    R1,R2
 0018D4 4780 72C8/5910_      018E0 12624                       IF    (Z,OR,(R1,NE,X'F0F00F0F')),BEGIN
 0018E0 4110 793C/4100_      01F54 12651  1                      MWRITE 'XR FAILED'
 0018EE                            12660                       END
 0018EE 5810 7810            01E28 12664                       L     R1,=X'F0F00000'
 0018F2 5820 7808            01E20 12665                       L     R2,=X'F0F0F0F0'
 0018F6 1712                       12666                       XR    R1,R2
 0018F8 4780 72EC/5910_      01904 12667                       IF    (Z,OR,(R1,NE,X'0000F0F0')),BEGIN
 001904 4110 793C/4100_      01F54 12694  1                      MWRITE 'XR FAILED'
 001912                            12703                       END
 001912 5810 7804            01E1C 12707                       L     R1,=X'0000FFFF'
 001916 5820 7810            01E28 12708                       L     R2,=X'F0F00000'
 00191A 1712                       12709                       XR    R1,R2
 00191C 4780 7310/5910_      01928 12710                       IF    (Z,OR,(R1,NE,X'F0F0FFFF')),BEGIN
 001928 4110 793C/4100_      01F54 12737  1                      MWRITE 'XR FAILED'
 001936                            12746                       END
 001936 5810 7804            01E1C 12750                       L     R1,=X'0000FFFF'
 00193A 5820 7804            01E1C 12751                       L     R2,=X'0000FFFF'
 00193E 1712                       12752                       XR    R1,R2
 001940 4770 7334/5910_      0194C 12753                       IF    (NZ,OR,(R1,NE,0)),BEGIN
 00194C 4110 793C/4100_      01F54 12780  1                      MWRITE 'XR FAILED'
 00195A                            12789                       END
                                   12793              * X
 00195A 5810 7804            01E1C 12794                       L     R1,=X'0000FFFF'
 00195E 5710 7808            01E20 12795                       X     R1,=X'F0F0F0F0'
 001962 4780 7356/5910_      0196E 12796                       IF    (Z,OR,(R1,NE,X'F0F00F0F')),BEGIN
 00196E 4110 77B0/4100_      01DC8 12823  1                      MWRITE 'X FAILED'
 00197C                            12832                       END
 00197C 5810 7810            01E28 12836                       L     R1,=X'F0F00000'
 001980 5710 7808            01E20 12837                       X     R1,=X'F0F0F0F0'
 001984 4780 7378/5910_      01990 12838                       IF    (Z,OR,(R1,NE,X'0000F0F0')),BEGIN
 001990 4110 77B0/4100_      01DC8 12865  1                      MWRITE 'X FAILED'
 00199E                            12874                       END
 00199E 5810 7804            01E1C 12878                       L     R1,=X'0000FFFF'
 0019A2 5710 7810            01E28 12879                       X     R1,=X'F0F00000'
 0019A6 4780 739A/5910_      019B2 12880                       IF    (Z,OR,(R1,NE,X'F0F0FFFF')),BEGIN
 0019B2 4110 77B0/4100_      01DC8 12907  1                      MWRITE 'X FAILED'
 0019C0                            12916                       END
 0019C0 5810 7804            01E1C 12920                       L     R1,=X'0000FFFF'
 0019C4 5710 7804            01E1C 12921                       X     R1,=X'0000FFFF'
 0019C8 4770 73BC/5910_      019D4 12922                       IF    (NZ,OR,(R1,NE,0)),BEGIN
 0019D4 4110 793C/4100_      01F54 12949  1                      MWRITE 'XR FAILED'
1ITEST    (ITES2010) (12:47) (15MAR04) ITEST ROUTINES                                                                       Page   27
0Current Usings:  (*,R7) (ITESTWA-(4+36),R8) (CP,R11) (CV,R12)
0Loc    Object Code    Addr1 Addr2  Stmt Lv Lineno    Source Statement           (Hibal 5, Asmedit 3.3)  HLASM R4.0  2004/03/15 12.47
+___    ______ ____    _____ _____  ____ __ ______    ______ _________
00019E2                            12958                       END
                                   12962              * XI
 0019E2 5810 77B8            01DD0 12963                       L     R1,=F'0'
 0019E6 5010 8028            00000 12964                       ST    R1,F1
 0019EA 92FF 8028      00000       12965                       MVI   F1,X'FF'
 0019EE 9755 8028      00000       12966                       XI    F1,X'55'
 0019F2 5810 8028            00000 12967                       L     R1,F1
 0019F6 4780 73EA/5910_      01A02 12968                       IF    (Z,OR,(R1,NE,X'AA000000')),BEGIN
 001A02 4110 7945/4100_      01F5D 12995  1                      MWRITE 'XI FAILED'
 001A10                            13004                       END
 001A10 92F0 8028      00000       13008                       MVI   F1,X'F0'
 001A14 97F1 8028      00000       13009                       XI    F1,X'F1'
 001A18 5810 8028            00000 13010                       L     R1,F1
 001A1C 4780 7410/5910_      01A28 13011                       IF    (Z,OR,(R1,NE,X'01000000')),BEGIN
 001A28 4110 7945/4100_      01F5D 13038  1                      MWRITE 'XI FAILED'
 001A36                            13047                       END
 001A36 92F0 8028      00000       13051                       MVI   F1,X'F0'
 001A3A 97F0 8028      00000       13052                       XI    F1,X'F0'
 001A3E 5810 8028            00000 13053                       L     R1,F1
 001A42 4770 7436/5910_      01A4E 13054                       IF    (NZ,OR,(R1,NE,X'00000000')),BEGIN
 001A4E 4110 7945/4100_      01F5D 13081  1                      MWRITE 'XI FAILED'
 001A5C                            13090                       END
                                   13094              * XC
 001A5C 5810 7804            01E1C 13095                       L     R1,=X'0000FFFF'
 001A60 5010 8028            00000 13096                       ST    R1,F1
 001A64 5820 7808            01E20 13097                       L     R2,=X'F0F0F0F0'
 001A68 5020 802C            00004 13098                       ST    R2,F2
 001A6C 5830 77B8            01DD0 13099                       L     R3,=F'0'
 001A70 5030 8030            00008 13100                       ST    R3,F3
 001A74 D703 8028 802C 00000 00004 13101                       XC    F1,F2
 001A7A 5810 8028            00000 13102                       L     R1,F1
 001A7E 4780 7472/5910_      01A8A 13103                       IF    (Z,OR,(R1,NE,X'F0F00F0F')),BEGIN
 001A8A 4110 794E/4100_      01F66 13130  1                      MWRITE 'XC FAILED'
 001A98                            13139                       END
 001A98 5820 802C            00004 13143                       L     R2,F2
 001A9C 5920 7828/4780_      01E40 13144                       IF    (R2,NE,X'F0F0F0F0'),BEGIN
 001AA4 4110 794E/4100_      01F66 13161  1                      MWRITE 'XC FAILED'
 001AB2                            13170                       END
 001AB2 5810 7810            01E28 13174                       L     R1,=X'F0F00000'
 001AB6 5010 8028            00000 13175                       ST    R1,F1
 001ABA 5820 7808            01E20 13176                       L     R2,=X'F0F0F0F0'
 001ABE 5020 802C            00004 13177                       ST    R2,F2
 001AC2 D703 8028 802C 00000 00004 13178                       XC    F1,F2
 001AC8 5810 8028            00000 13179                       L     R1,F1
 001ACC 4780 74C0/5910_      01AD8 13180                       IF    (Z,OR,(R1,NE,X'0000F0F0')),BEGIN
 001AD8 4110 794E/4100_      01F66 13207  1                      MWRITE 'XC FAILED'
 001AE6                            13216                       END
 001AE6 5810 782C            01E44 13220                       L     R1,=X'FF0000FF'
 001AEA 5010 8028            00000 13221                       ST    R1,F1
 001AEE 5820 782C            01E44 13222                       L     R2,=X'FF0000FF'
 001AF2 5020 802C            00004 13223                       ST    R2,F2
 001AF6 D703 8028 802C 00000 00004 13224                       XC    F1,F2
 001AFC 5810 8028            00000 13225                       L     R1,F1
 001B00 4770 74F4/5910_      01B0C 13226                       IF    (NZ,OR,(R1,NE,0)),BEGIN
1ITEST    (ITES2010) (12:47) (15MAR04) ITEST ROUTINES                                                                       Page   28
0Current Usings:  (*,R7) (ITESTWA-(4+36),R8) (CP,R11) (CV,R12)
0Loc    Object Code    Addr1 Addr2  Stmt Lv Lineno    Source Statement           (Hibal 5, Asmedit 3.3)  HLASM R4.0  2004/03/15 12.47
+___    ______ ____    _____ _____  ____ __ ______    ______ _________
0001B0C 4110 794E/4100_      01F66 13253  1                      MWRITE 'XC FAILED'
 001B1A                            13262                       END
                                   13266              * EX
                                   13267              * RESTRICTION EX - EX SUPPORTES ONLY MVC, CLC, TR, TRT, OC, NC, XC
                                   13268              * NOTE: OTHER EX TESTS IN TR, TRT CODE TESTS.
 001B1A D209 8038 78AC 00010 01EC4 13269                       MVC   BUF1(10),=CL10'0000000000'
 001B20 D209 8438 78B6 00410 01ECE 13270                       MVC   BUF2(10),=CL10'0123456789'
 001B26 5810 7830            01E48 13271                       L     R1,=X'000FF008'
 001B2A 0610/4410 797A_            13272                       DEX   R1,' MVC BUF1(0),BUF2 '
 001B30 D509 8038 78C0 00010 01ED8 13291                       CLC   BUF1(10),=CL10'0123456700'
 001B36 4780 7530            01B48 13292                       IF    NE,BEGIN
 001B3A 4110 7957/4100_      01F6F 13303  1                      MWRITE 'EX MVC FAILED'
 001B48                            13312                       END
 001B48 D209 8438 8038 00410 00010 13316                       MVC   BUF2(10),BUF1
 001B4E 5810 7834            01E4C 13317                       L     R1,=F'10'
 001B52 1211                       13318                       LTR   R1,R1
 001B54 0610/4410 7980_            13319                       DEX   R1,' CLC BUF1(0),BUF2 '
 001B5A 4780 7554            01B6C 13338                       IF    NE,BEGIN
 001B5E 4110 7964/4100_      01F7C 13349  1                      MWRITE 'EX CLC FAILED'
 001B6C                            13358                       END
 001B6C 92F0 8038      00010       13362                       MVI   BUF1,X'F0'
 001B70 920F 8438      00410       13363                       MVI   BUF2,X'0F'
 001B74 4110 0001            00001 13364                       LA    R1,1
 001B78 0610/4410 7986_            13365                       DEX   R1,' OC BUF1(0),BUF2 '
 001B7E 95FF 8038      00010       13384                       CLI   BUF1,X'FF'
 001B82 4780 757C            01B94 13385                       IF    NE,BEGIN
 001B86 4110 7838/4100_      01E50 13396  1                      MWRITE 'EX OC FAILED'
 001B94                            13405                       END
 001B94 5810 7844            01E5C 13409                       L     R1,=X'FF0FF000'
 001B98 5010 8038            00010 13410                       ST    R1,BUF1
 001B9C 5810 7848            01E60 13411                       L     R1,=X'0FF0F00F'
 001BA0 5010 8438            00410 13412                       ST    R1,BUF2
 001BA4 4110 0004            00004 13413                       LA    R1,4
 001BA8 0610/4410 798C_            13414                       DEX   R1,' NC BUF1(0),BUF2 '
 001BAE 5810 8038            00010 13433                       L     R1,BUF1
 001BB2 5910 784C/4780_      01E64 13434                       IF    (R1,NE,X'0F00F000'),BEGIN
 001BBA 4110 7850/4100_      01E68 13451  1                      MWRITE 'EX NC FAILED'
 001BC8                            13460                       END
 001BC8 5810 7844            01E5C 13464                       L     R1,=X'FF0FF000'
 001BCC 5010 8038            00010 13465                       ST    R1,BUF1
 001BD0 5810 7848            01E60 13466                       L     R1,=X'0FF0F00F'
 001BD4 5010 8438            00410 13467                       ST    R1,BUF2
 001BD8 4110 0004            00004 13468                       LA    R1,4
 001BDC 0610/4410 7992_            13469                       DEX   R1,' XC BUF1(0),BUF2 '
 001BE2 5810 8038            00010 13488                       L     R1,BUF1
 001BE6 5910 785C/4780_      01E74 13489                       IF    (R1,NE,X'F0FF000F'),BEGIN
 001BEE 4110 7860/4100_      01E78 13506  1                      MWRITE 'EX XC FAILED'
 001BFC                            13515                       END
                                   13519              * IC
 001BFC 5810 77B8            01DD0 13520                       L     R1,=F'0'
 001C00 92F2 8028      00000       13521                       MVI   F1,X'F2'
 001C04 4310 8028            00000 13522                       IC    R1,F1
 001C08 5910 786C/4780_      01E84 13523                       IF    (R1,NE,X'F2'),BEGIN
 001C10 4110 7971/4100_      01F89 13540  1                      MWRITE 'IC FAILED'
1ITEST    (ITES2010) (12:47) (15MAR04) ITEST ROUTINES                                                                       Page   29
0Current Usings:  (*,R7) (ITESTWA-(4+36),R8) (CP,R11) (CV,R12)
0Loc    Object Code    Addr1 Addr2  Stmt Lv Lineno    Source Statement           (Hibal 5, Asmedit 3.3)  HLASM R4.0  2004/03/15 12.47
+___    ______ ____    _____ _____  ____ __ ______    ______ _________
0001C1E                            13549                       END
 001C1E 5810 77B8            01DD0 13553                       L     R1,=F'0'
 001C22 9202 8028      00000       13554                       MVI   F1,X'02'
 001C26 4310 8028            00000 13555                       IC    R1,F1
 001C2A 5910 7870/4780_      01E88 13556                       IF    (R1,NE,X'02'),BEGIN
 001C32 4110 7971/4100_      01F89 13573  1                      MWRITE 'IC FAILED'
 001C40                            13582                       END
 001C40 5810 7874            01E8C 13586                       L     R1,=X'0F0F0000'
 001C44 92F2 8028      00000       13587                       MVI   F1,X'F2'
 001C48 4310 8028            00000 13588                       IC    R1,F1
 001C4C 5910 7878/4780_      01E90 13589                       IF    (R1,NE,X'0F0F00F2'),BEGIN
 001C54 4110 7971/4100_      01F89 13606  1                      MWRITE 'IC FAILED'
 001C62                            13615                       END
 001C62 5810 7874            01E8C 13619                       L     R1,=X'0F0F0000'
 001C66 9202 8028      00000       13620                       MVI   F1,X'02'
 001C6A 4310 8028            00000 13621                       IC    R1,F1
 001C6E 5910 787C/4780_      01E94 13622                       IF    (R1,NE,X'0F0F0002'),BEGIN
 001C76 4110 7971/4100_      01F89 13639  1                      MWRITE 'IC FAILED'
 001C84                            13648                       END
                                   13652              * ICM
 001C84 5810 7880            01E98 13653                       L     R1,=X'01020304'
 001C88 5010 8028            00000 13654                       ST    R1,F1
 001C8C 5810 77B8            01DD0 13655                       L     R1,=F'0'
 001C90 BF13 8028            00000 13656                       ICM   R1,B'0011',F1
 001C94 47D0 7688/5910_      01CA0 13657                       IF    (NH,OR,(R1,NE,X'00000102')),BEGIN
 001CA0 4110 78CA/4100_      01EE2 13684  1                      MWRITE 'ICM FAILED'
 001CAE                            13693                       END
 001CAE 5810 77B8            01DD0 13697                       L     R1,=F'0'
 001CB2 BF19 8028            00000 13698                       ICM   R1,B'1001',F1
 001CB6 47D0 76AA/5910_      01CC2 13699                       IF    (NH,OR,(R1,NE,X'01000002')),BEGIN
 001CC2 4110 78CA/4100_      01EE2 13726  1                      MWRITE 'ICM FAILED'
 001CD0                            13735                       END
 001CD0 5810 788C            01EA4 13739                       L     R1,=X'D0D0D0D0'
 001CD4 BF13 8028            00000 13740                       ICM   R1,B'0011',F1
 001CD8 47D0 76CC/5910_      01CE4 13741                       IF    (NH,OR,(R1,NE,X'D0D00102')),BEGIN
 001CE4 4110 78CA/4100_      01EE2 13768  1                      MWRITE 'ICM FAILED'
 001CF2                            13777                       END
 001CF2 5810 788C            01EA4 13781                       L     R1,=X'D0D0D0D0'
 001CF6 BF19 8028            00000 13782                       ICM   R1,B'1001',F1
 001CFA 47D0 76EE/5910_      01D06 13783                       IF    (NH,OR,(R1,NE,X'01D0D002')),BEGIN
 001D06 4110 78CA/4100_      01EE2 13810  1                      MWRITE 'ICM FAILED'
 001D14                            13819                       END
 001D14 5810 77B8            01DD0 13823                       L     R1,=F'0'
 001D18 BF17 8028            00000 13824                       ICM   R1,B'0111',F1
 001D1C 47D0 7710/5910_      01D28 13825                       IF    (NH,OR,(R1,NE,X'00010203')),BEGIN
 001D28 4110 78CA/4100_      01EE2 13852  1                      MWRITE 'ICM FAILED'
 001D36                            13861                       END
 001D36 5810 789C            01EB4 13865                       L     R1,=X'F0F1F2F3'
 001D3A 5010 8028            00000 13866                       ST    R1,F1
 001D3E 5810 77B8            01DD0 13867                       L     R1,=F'0'
 001D42 BF13 8028            00000 13868                       ICM   R1,B'0011',F1
 001D46 47B0 773A/5910_      01D52 13869                       IF    (NL,OR,(R1,NE,X'0000F0F1')),BEGIN
 001D52 4110 78CA/4100_      01EE2 13896  1                      MWRITE 'ICM FAILED'
 001D60                            13905                       END
1ITEST    (ITES2010) (12:47) (15MAR04) ITEST ROUTINES                                                                       Page   30
0Current Usings:  (*,R7) (ITESTWA-(4+36),R8) (CP,R11) (CV,R12)
0Loc    Object Code    Addr1 Addr2  Stmt Lv Lineno    Source Statement           (Hibal 5, Asmedit 3.3)  HLASM R4.0  2004/03/15 12.47
+___    ______ ____    _____ _____  ____ __ ______    ______ _________
0001D60 5810 788C            01EA4 13909                       L     R1,=X'D0D0D0D0'
 001D64 BF19 8028            00000 13910                       ICM   R1,B'1001',F1
 001D68 47B0 775C/5910_      01D74 13911                       IF    (NL,OR,(R1,NE,X'F0D0D0F1')),BEGIN
 001D74 4110 78CA/4100_      01EE2 13938  1                      MWRITE 'ICM FAILED'
 001D82                            13947                       END
 001D82 5810 77B8            01DD0 13951                       L     R1,=F'0'
 001D86 5010 8028            00000 13952                       ST    R1,F1
 001D8A 5810 788C            01EA4 13953                       L     R1,=X'D0D0D0D0'
 001D8E BF13 8028            00000 13954                       ICM   R1,B'0011',F1
 001D92 4770 7786/5910_      01D9E 13955                       IF    (NZ,OR,(R1,NE,X'D0D00000')),BEGIN
 001D9E 4110 78CA/4100_      01EE2 13982  1                      MWRITE 'ICM FAILED'
 001DAC                            13991                       END
 001DAC 18D8/9808 D004_            13995                       PEND
 DROP   ITESTWA-(4+36),R8
 DROP   *,R7
                                   14020
                                   14021                       QLTORG
                                   14108
 001FB0 50E0 D000/9008_      00000 14109              DOTEST5  PROC  ITESTWA
 USING  *,R7
 USING  ITESTWA-(4+36),R8
                                   14159              *
                                   14160              * LR
 001FCA 5810 74C6            02490 14161                       L     R1,=F'0'
 001FCE 1821                       14162                       LR    R2,R1
 001FD0 5920 74CA/4780_      02494 14163                       IF    (R2,NE,0),BEGIN
 001FD8 4110 754E/4100_      02518 14180  1                      MWRITE 'LR FAILED'
 001FE6                            14189                       END
 001FE6 5810 74D2            0249C 14193                       L     R1,=F'-123'
 001FEA 1821                       14194                       LR    R2,R1
 001FEC 5920 74D6/4780_      024A0 14195                       IF    (R2,NE,-123),BEGIN
 001FF4 4110 754E/4100_      02518 14211  1                      MWRITE 'LR FAILED'
 002002                            14220                       END
 002002 5810 74DA            024A4 14224                       L     R1,=F'400033'
 002006 1821                       14225                       LR    R2,R1
 002008 5920 74DE/4780_      024A8 14226                       IF    (R2,NE,400033),BEGIN
 002010 4110 754E/4100_      02518 14243  1                      MWRITE 'LR FAILED'
 00201E                            14252                       END
                                   14256              * L
 00201E 5810 74C6            02490 14257                       L     R1,=F'0'
 002022 5910 74CA/4780_      02494 14258                       IF    (R1,NE,0),BEGIN
 00202A 4110 74BE/4100_      02488 14275  1                      MWRITE 'L FAILED'
 002038                            14284                       END
 002038 5810 74D2            0249C 14288                       L     R1,=F'-123'
 00203C 5910 74D6/4780_      024A0 14289                       IF    (R1,NE,-123),BEGIN
 002044 4110 74BE/4100_      02488 14305  1                      MWRITE 'L FAILED'
 002052                            14314                       END
 002052 5810 74DA            024A4 14318                       L     R1,=F'400033'
 002056 5910 74DE/4780_      024A8 14319                       IF    (R1,NE,400033),BEGIN
 00205E 4110 74BE/4100_      02488 14336  1                      MWRITE 'L FAILED'
 00206C                            14345                       END
                                   14349              * LA
 00206C 5810 74C6            02490 14350                       L     R1,=F'0'
 002070 5910 74CA/4780_      02494 14351                       IF    (R1,NE,0),BEGIN
1ITEST    (ITES2010) (12:47) (15MAR04) ITEST ROUTINES                                                                       Page   31
0Current Usings:  (*,R7) (ITESTWA-(4+36),R8) (CP,R11) (CV,R12)
0Loc    Object Code    Addr1 Addr2  Stmt Lv Lineno    Source Statement           (Hibal 5, Asmedit 3.3)  HLASM R4.0  2004/03/15 12.47
+___    ______ ____    _____ _____  ____ __ ______    ______ _________
0002078 4110 7557/4100_      02521 14368  1                      MWRITE 'LA FAILED'
 002086                            14377                       END
 002086 4110 04D7            004D7 14381                       LA    R1,1239
 00208A 5910 74E2/4780_      024AC 14382                       IF    (R1,NE,1239),BEGIN
 002092 4110 7557/4100_      02521 14399  1                      MWRITE 'LA FAILED'
 0020A0                            14408                       END
 0020A0 5820 74E6            024B0 14412                       L     R2,=F'4980000'
 0020A4 5830 74EA            024B4 14413                       L     R3,=F'2000'
 0020A8 4112 300C            0000C 14414                       LA    R1,12(R2,R3)
 0020AC 5910 74EE/4780_      024B8 14415                       IF    (R1,NE,4982012),BEGIN
 0020B4 4110 7557/4100_      02521 14432  1                      MWRITE 'LA FAILED'
 0020C2                            14441                       END
 0020C2 4110 74E6            024B0 14445                       LA    R1,=F'4980000'
 0020C6 5821 0000            00000 14446                       L     R2,0(R1)
 0020CA 5920 74F2/4780_      024BC 14447                       IF    (R2,NE,4980000),BEGIN
 0020D2 4110 7557/4100_      02521 14464  1                      MWRITE 'LA FAILED'
 0020E0                            14473                       END
                                   14477              * LTR
 0020E0 5810 74C6            02490 14478                       L     R1,=F'0'
 0020E4 1211                       14479                       LTR   R1,R1
 0020E6 4770 7128/5910_      020F2 14480                       IF    (NZ,OR,(R1,NE,0)),BEGIN
 0020F2 4110 7526/4100_      024F0 14507  1                      MWRITE 'LTR FAILED'
 002100                            14516                       END
 002100 4110 0004            00004 14520                       LA    R1,4
 002104 1211                       14521                       LTR   R1,R1
 002106 47D0 7148/5910_      02112 14522                       IF    (NH,OR,(R1,NE,4)),BEGIN
 002112 4110 7526/4100_      024F0 14549  1                      MWRITE 'LTR FAILED'
 002120                            14558                       END
 002120 5810 74FA            024C4 14562                       L     R1,=F'-4'
 002124 1211                       14563                       LTR   R1,R1
 002126 47B0 7168/5910_      02132 14564                       IF    (NL,OR,(R1,NE,-4)),BEGIN
 002132 4110 7526/4100_      024F0 14590  1                      MWRITE 'LTR FAILED'
 002140                            14599                       END
 002140 5830 74C6            02490 14603                       L     R3,=F'0'
 002144 1213                       14604                       LTR   R1,R3
 002146 4770 7188/5910_      02152 14605                       IF    (NZ,OR,(R1,NE,0)),BEGIN
 002152 4110 7526/4100_      024F0 14632  1                      MWRITE 'LTR FAILED'
 002160                            14641                       END
 002160 4130 0004            00004 14645                       LA    R3,4
 002164 1213                       14646                       LTR   R1,R3
 002166 47D0 71A8/5910_      02172 14647                       IF    (NH,OR,(R1,NE,4)),BEGIN
 002172 4110 7526/4100_      024F0 14674  1                      MWRITE 'LTR FAILED'
 002180                            14683                       END
 002180 5830 74FA            024C4 14687                       L     R3,=F'-4'
 002184 1213                       14688                       LTR   R1,R3
 002186 47B0 71C8/5910_      02192 14689                       IF    (NL,OR,(R1,NE,-4)),BEGIN
 002192 4110 7526/4100_      024F0 14715  1                      MWRITE 'LTR FAILED'
 0021A0                            14724                       END
                                   14728              * LCR
 0021A0 5810 74C6            02490 14729                       L     R1,=F'0'
 0021A4 1311                       14730                       LCR   R1,R1
 0021A6 4770 71E8/5910_      021B2 14731                       IF    (NZ,OR,(R1,NE,0)),BEGIN
 0021B2 4110 7530/4100_      024FA 14758  1                      MWRITE 'LCR FAILED'
 0021C0                            14767                       END
1ITEST    (ITES2010) (12:47) (15MAR04) ITEST ROUTINES                                                                       Page   32
0Current Usings:  (*,R7) (ITESTWA-(4+36),R8) (CP,R11) (CV,R12)
0Loc    Object Code    Addr1 Addr2  Stmt Lv Lineno    Source Statement           (Hibal 5, Asmedit 3.3)  HLASM R4.0  2004/03/15 12.47
+___    ______ ____    _____ _____  ____ __ ______    ______ _________
00021C0 4110 0004            00004 14771                       LA    R1,4
 0021C4 1311                       14772                       LCR   R1,R1
 0021C6 47B0 7208/5910_      021D2 14773                       IF    (NL,OR,(R1,NE,-4)),BEGIN
 0021D2 4110 7530/4100_      024FA 14799  1                      MWRITE 'LCR FAILED'
 0021E0                            14808                       END
 0021E0 5810 74FA            024C4 14812                       L     R1,=F'-4'
 0021E4 1311                       14813                       LCR   R1,R1
 0021E6 47D0 7228/5910_      021F2 14814                       IF    (NH,OR,(R1,NE,4)),BEGIN
 0021F2 4110 7530/4100_      024FA 14841  1                      MWRITE 'LCR FAILED'
 002200                            14850                       END
 002200 5830 74C6            02490 14854                       L     R3,=F'0'
 002204 1313                       14855                       LCR   R1,R3
 002206 4770 7248/5910_      02212 14856                       IF    (NZ,OR,(R1,NE,0)),BEGIN
 002212 4110 7530/4100_      024FA 14883  1                      MWRITE 'LCR FAILED'
 002220                            14892                       END
 002220 4130 0004            00004 14896                       LA    R3,4
 002224 1313                       14897                       LCR   R1,R3
 002226 47B0 7268/5910_      02232 14898                       IF    (NL,OR,(R1,NE,-4)),BEGIN
 002232 4110 7530/4100_      024FA 14924  1                      MWRITE 'LCR FAILED'
 002240                            14933                       END
 002240 5830 74FA            024C4 14937                       L     R3,=F'-4'
 002244 1313                       14938                       LCR   R1,R3
 002246 47D0 7288/5910_      02252 14939                       IF    (NH,OR,(R1,NE,4)),BEGIN
 002252 4110 7530/4100_      024FA 14966  1                      MWRITE 'LCR FAILED'
 002260                            14975                       END
                                   14979              * LH
 002260 5810 7502            024CC 14980                       L     R1,=X'F0F0F0F0'
 002264 5010 8028            00000 14981                       ST    R1,F1
 002268 4810 802A            00002 14982                       LH    R1,F1+2
 00226C 5910 7506/4780_      024D0 14983                       IF    (R1,NE,X'FFFFF0F0'),BEGIN
 002274 4110 7560/4100_      0252A 15000  1                      MWRITE 'LH FAILED'
 002282                            15009                       END
 002282 5810 750A            024D4 15013                       L     R1,=X'00000F0F'
 002286 5010 8028            00000 15014                       ST    R1,F1
 00228A 4810 802A            00002 15015                       LH    R1,F1+2
 00228E 5910 750E/4780_      024D8 15016                       IF    (R1,NE,X'00000F0F'),BEGIN
 002296 4110 7560/4100_      0252A 15033  1                      MWRITE 'LH FAILED'
 0022A4                            15042                       END
                                   15046              * LM
 0022A4 5810 7502            024CC 15047                       L     R1,=X'F0F0F0F0'
 0022A8 5820 7512            024DC 15048                       L     R2,=X'00000012'
 0022AC 5830 7516            024E0 15049                       L     R3,=X'F2341234'
 0022B0 9013 8028            00000 15050                       STM   R1,R3,F1
 0022B4 9812 8028            00000 15051                       LM    R1,R2,F1
 0022B8 5910 751A/4770_      024E4 15052                       IF    ((R1,NE,X'F0F0F0F0'),OR,(R2,NE,X'00000012')),BEGIN
 0022C8 4110 7569/4100_      02533 15085  1                      MWRITE 'LM FAILED'
 0022D6                            15094                       END
 0022D6 9812 802C            00004 15098                       LM    R1,R2,F1+4
 0022DA 5910 751E/4770_      024E8 15099                       IF    ((R1,NE,X'00000012'),OR,(R2,NE,X'F2341234')),BEGIN
 0022EA 4110 7569/4100_      02533 15132  1                      MWRITE 'LM FAILED'
 0022F8                            15141                       END
                                   15145              * LNR
 0022F8 5810 74C6            02490 15146                       L     R1,=F'0'
 0022FC 1111                       15147                       LNR   R1,R1
1ITEST    (ITES2010) (12:47) (15MAR04) ITEST ROUTINES                                                                       Page   33
0Current Usings:  (*,R7) (ITESTWA-(4+36),R8) (CP,R11) (CV,R12)
0Loc    Object Code    Addr1 Addr2  Stmt Lv Lineno    Source Statement           (Hibal 5, Asmedit 3.3)  HLASM R4.0  2004/03/15 12.47
+___    ______ ____    _____ _____  ____ __ ______    ______ _________
00022FE 4770 7340/5910_      0230A 15148                       IF    (NZ,OR,(R1,NE,0)),BEGIN
 00230A 4110 753A/4100_      02504 15175  1                      MWRITE 'LNR FAILED'
 002318                            15184                       END
 002318 4110 0004            00004 15188                       LA    R1,4
 00231C 1111                       15189                       LNR   R1,R1
 00231E 47B0 7360/5910_      0232A 15190                       IF    (NL,OR,(R1,NE,-4)),BEGIN
 00232A 4110 753A/4100_      02504 15216  1                      MWRITE 'LNR FAILED'
 002338                            15225                       END
 002338 5810 74FA            024C4 15229                       L     R1,=F'-4'
 00233C 1111                       15230                       LNR   R1,R1
 00233E 47B0 7380/5910_      0234A 15231                       IF    (NL,OR,(R1,NE,-4)),BEGIN
 00234A 4110 753A/4100_      02504 15257  1                      MWRITE 'LNR FAILED'
 002358                            15266                       END
 002358 5830 74C6            02490 15270                       L     R3,=F'0'
 00235C 1113                       15271                       LNR   R1,R3
 00235E 4770 73A0/5910_      0236A 15272                       IF    (NZ,OR,(R1,NE,0)),BEGIN
 00236A 4110 753A/4100_      02504 15299  1                      MWRITE 'LNR FAILED'
 002378                            15308                       END
 002378 4130 0004            00004 15312                       LA    R3,4
 00237C 1113                       15313                       LNR   R1,R3
 00237E 47B0 73C0/5910_      0238A 15314                       IF    (NL,OR,(R1,NE,-4)),BEGIN
 00238A 4110 753A/4100_      02504 15340  1                      MWRITE 'LNR FAILED'
 002398                            15349                       END
 002398 5830 74FA            024C4 15353                       L     R3,=F'-4'
 00239C 1113                       15354                       LNR   R1,R3
 00239E 47B0 73E0/5910_      023AA 15355                       IF    (NL,OR,(R1,NE,-4)),BEGIN
 0023AA 4110 753A/4100_      02504 15381  1                      MWRITE 'LNR FAILED'
 0023B8                            15390                       END
                                   15394              * LPR
 0023B8 5810 74C6            02490 15395                       L     R1,=F'0'
 0023BC 1011                       15396                       LPR   R1,R1
 0023BE 4770 7400/5910_      023CA 15397                       IF    (NZ,OR,(R1,NE,0)),BEGIN
 0023CA 4110 7544/4100_      0250E 15424  1                      MWRITE 'LPR FAILED'
 0023D8                            15433                       END
 0023D8 4110 0004            00004 15437                       LA    R1,4
 0023DC 1011                       15438                       LPR   R1,R1
 0023DE 47D0 7420/5910_      023EA 15439                       IF    (NH,OR,(R1,NE,4)),BEGIN
 0023EA 4110 7544/4100_      0250E 15466  1                      MWRITE 'LPR FAILED'
 0023F8                            15475                       END
 0023F8 5810 74FA            024C4 15479                       L     R1,=F'-4'
 0023FC 1011                       15480                       LPR   R1,R1
 0023FE 47D0 7440/5910_      0240A 15481                       IF    (NH,OR,(R1,NE,4)),BEGIN
 00240A 4110 7544/4100_      0250E 15508  1                      MWRITE 'LPR FAILED'
 002418                            15517                       END
 002418 5830 74C6            02490 15521                       L     R3,=F'0'
 00241C 1013                       15522                       LPR   R1,R3
 00241E 4770 7460/5910_      0242A 15523                       IF    (NZ,OR,(R1,NE,0)),BEGIN
 00242A 4110 7544/4100_      0250E 15550  1                      MWRITE 'LPR FAILED'
 002438                            15559                       END
 002438 4130 0004            00004 15563                       LA    R3,4
 00243C 1013                       15564                       LPR   R1,R3
 00243E 47D0 7480/5910_      0244A 15565                       IF    (NH,OR,(R1,NE,4)),BEGIN
 00244A 4110 7544/4100_      0250E 15592  1                      MWRITE 'LPR FAILED'
 002458                            15601                       END
1ITEST    (ITES2010) (12:47) (15MAR04) ITEST ROUTINES                                                                       Page   34
0Current Usings:  (*,R7) (ITESTWA-(4+36),R8) (CP,R11) (CV,R12)
0Loc    Object Code    Addr1 Addr2  Stmt Lv Lineno    Source Statement           (Hibal 5, Asmedit 3.3)  HLASM R4.0  2004/03/15 12.47
+___    ______ ____    _____ _____  ____ __ ______    ______ _________
0002458 5830 74FA            024C4 15605                       L     R3,=F'-4'
 00245C 1013                       15606                       LPR   R1,R3
 00245E 47D0 74A0/5910_      0246A 15607                       IF    (NH,OR,(R1,NE,4)),BEGIN
 00246A 4110 7544/4100_      0250E 15634  1                      MWRITE 'LPR FAILED'
 002478                            15643                       END
 002478 18D8/9808 D004_            15647                       PEND
 DROP   ITESTWA-(4+36),R8
 DROP   *,R7
                                   15672
                                   15673                       QLTORG
                                   15718
 00253C 50E0 D000/9008_      00000 15719              DOTEST6  PROC  ITESTWA
 USING  *,R7
 USING  ITESTWA-(4+36),R8
                                   15769              *
                                   15770              * MVI
 002556 92FF 8028      00000       15771                       MVI   F1,X'FF'
 00255A 9200 8029      00001       15772                       MVI   F1+1,X'00'
 00255E 92D0 802A      00002       15773                       MVI   F1+2,X'D0'
 002562 9212 802B      00003       15774                       MVI   F1+3,X'12'
 002566 5810 8028            00000 15775                       L     R1,F1
 00256A 5910 739A/4780_      028F0 15776                       IF    (R1,NE,X'FF00D012'),BEGIN
 002572 4110 7446/4100_      0299C 15793  1                      MWRITE 'MVI FAILED'
 002580                            15802                       END
 002580 92FF 802B      00003       15806                       MVI   F1+3,X'FF'
 002584 9200 802A      00002       15807                       MVI   F1+2,X'00'
 002588 92D0 8029      00001       15808                       MVI   F1+1,X'D0'
 00258C 9212 8028      00000       15809                       MVI   F1+0,X'12'
 002590 5810 8028            00000 15810                       L     R1,F1
 002594 5910 73A2/4780_      028F8 15811                       IF    (R1,NE,X'12D000FF'),BEGIN
 00259C 4110 7446/4100_      0299C 15828  1                      MWRITE 'MVI FAILED'
 0025AA                            15837                       END
                                   15841              * MVC
 0025AA D213 8038 73A6 00010 028FC 15842                       MVC   BUF1(20),=CL20'12345678901234567890'
 0025B0 D213 8438 73BA 00410 02910 15843                       MVC   BUF2(20),=CL20'01234567890000000000'
 0025B6 D509 8038 8439 00010 00411 15844                       CLC   BUF1(10),BUF2+1
 0025BC 4780 7078            025CE 15845                       IF    NE,BEGIN
 0025C0 4110 7450/4100_      029A6 15856  1                      MWRITE 'MVC FAILED'
 0025CE                            15865                       END
 0025CE D50A 8041 8438 00019 00410 15869                       CLC   BUF1+9(11),BUF2
 0025D4 4780 7090            025E6 15870                       IF    NE,BEGIN
 0025D8 4110 7450/4100_      029A6 15881  1                      MWRITE 'MVC FAILED'
 0025E6                            15890                       END
 0025E6 92F0 8038      00010       15894                       MVI   BUF1,X'F0'
 0025EA D2FF 8039 8038 00011 00010 15895                       MVC   BUF1+1(256),BUF1
 0025F0 4120 8038            00010 15896                       LA    R2,BUF1
 0025F4 4130 0101            00101 15897                       LA    R3,257
 0025F8 5850 73CE            02924 15898                       L     R5,=X'F0000000'
 0025FC 0F24                       15899                       CLCL  R2,R4
 0025FE 4780 70BA            02610 15900                       IF    NE,BEGIN
 002602 4110 7450/4100_      029A6 15911  1                      MWRITE 'MVC FAILED'
 002610                            15920                       END
                                   15924              * MVCIN (FROM POPS)   (MVCIN NOT INSTALLED ON OUR MACHINE)
 002610 D20A 8038 7490 00010 029E6 15925                       MVC   BUF1(11),=XL11'C1C2C3C4C5C6C7C8C9CACB'
1ITEST    (ITES2010) (12:47) (15MAR04) ITEST ROUTINES                                                                       Page   35
0Current Usings:  (*,R7) (ITESTWA-(4+36),R8) (CP,R11) (CV,R12)
0Loc    Object Code    Addr1 Addr2  Stmt Lv Lineno    Source Statement           (Hibal 5, Asmedit 3.3)  HLASM R4.0  2004/03/15 12.47
+___    ______ ____    _____ _____  ____ __ ______    ______ _________
0002616 D208 8438 749B 00410 029F1 15926                       MVC   BUF2(9),=XL9'F1F2F3F4F5F6F7F8F9'
                                   15927              *        MVCIN BUF1(8),BUF2
 00261C D20A 8038 74A4 00010 029FA 15928                       MVC   BUF1(11),=XL11'F8F7F6F5F4F3F2F1C9CACB' *FAKE IT*
 002622 D50A 8038 74A4 00010 029FA 15929                       CLC   BUF1(11),=XL11'F8F7F6F5F4F3F2F1C9CACB'
 002628 4780 70E4            0263A 15930                       IF    NE,BEGIN
 00262C 4110 73D2/4100_      02928 15941  1                      MWRITE 'MVCIN FAILED'
 00263A                            15950                       END
                                   15954              * MVCL
                                   15955              * RESTRICTION MVCL - NO CC SET
 00263A D213 8438 73A6 00410 028FC 15956                       MVC   BUF2(20),=CL20'12345678901234567890'
 002640 4120 8038            00010 15957                       LA    R2,BUF1
 002644 4130 0014            00014 15958                       LA    R3,20
 002648 4140 8438            00410 15959                       LA    R4,BUF2
 00264C 5850 73DE            02934 15960                       L     R5,=X'4000000A'
 002650 0E24                       15961                       MVCL  R2,R4
 002652 D513 8038 73E2 00010 02938 15962                       CLC   BUF1(20),=CL20'1234567890          '
 002658 4780 7114            0266A 15963                       IF    NE,BEGIN
 00265C 4110 74AF/4100_      02A05 15974  1                      MWRITE 'MVCL FAILED'
 00266A                            15983                       END
 00266A 4120 8038            00010 15987                       LA    R2,BUF1
 00266E 4130 0014            00014 15988                       LA    R3,20
 002672 4140 8438            00410 15989                       LA    R4,BUF2
 002676 5850 73F6            0294C 15990                       L     R5,=X'40000014'
 00267A 0E24                       15991                       MVCL  R2,R4
 00267C D513 8038 73A6 00010 028FC 15992                       CLC   BUF1(20),=CL20'12345678901234567890'
 002682 4780 713E            02694 15993                       IF    NE,BEGIN
 002686 4110 74AF/4100_      02A05 16004  1                      MWRITE 'MVCL FAILED'
 002694                            16013                       END
 002694 4120 8038            00010 16017                       LA    R2,BUF1
 002698 4130 000A            0000A 16018                       LA    R3,10
 00269C 4140 8439            00411 16019                       LA    R4,BUF2+1
 0026A0 5850 73F6            0294C 16020                       L     R5,=X'40000014'
 0026A4 0E24                       16021                       MVCL  R2,R4
 0026A6 D513 8038 73FA 00010 02950 16022                       CLC   BUF1(20),=CL20'23456789011234567890'
 0026AC 4780 7168            026BE 16023                       IF    NE,BEGIN
 0026B0 4110 74AF/4100_      02A05 16034  1                      MWRITE 'MVCL FAILED'
 0026BE                            16043                       END
                                   16047              * MVN (FROM POPS)
 0026BE D205 8038 745A 00010 029B0 16048                       MVC   BUF1(6),=XL6'F0F1F2F3F4F5'
 0026C4 D203 8438 740E 00410 02964 16049                       MVC   BUF2(4),=XL4'C6C7C8C9'
 0026CA D103 8038 8438 00010 00410 16050                       MVN   BUF1(4),BUF2
 0026D0 D505 8038 7460 00010 029B6 16051                       CLC   BUF1(6),=XL6'F6F7F8F9F4F5'
 0026D6 4780 7192            026E8 16052                       IF    NE,BEGIN
 0026DA 4110 7466/4100_      029BC 16063  1                      MWRITE 'MVN FAILED'
 0026E8                            16072                       END
                                   16076              * MV0 (FROM POPS)
 0026E8 D203 8038 7412 00010 02968 16077                       MVC   BUF1(4),=XL4'7788990C'
 0026EE D203 8438 7416 00410 0296C 16078                       MVC   BUF2(4),=XL4'12345600'
 0026F4 F132 8038 8438 00010 00410 16079                       MVO   BUF1(4),BUF2(3)
 0026FA D503 8038 741A 00010 02970 16080                       CLC   BUF1(4),=XL4'0123456C'
 002700 4780 71BC            02712 16081                       IF    NE,BEGIN
 002704 4110 7470/4100_      029C6 16092  1                      MWRITE 'MVO FAILED'
 002712                            16101                       END
                                   16105              * MVZ (FROM POPS)
1ITEST    (ITES2010) (12:47) (15MAR04) ITEST ROUTINES                                                                       Page   36
0Current Usings:  (*,R7) (ITESTWA-(4+36),R8) (CP,R11) (CV,R12)
0Loc    Object Code    Addr1 Addr2  Stmt Lv Lineno    Source Statement           (Hibal 5, Asmedit 3.3)  HLASM R4.0  2004/03/15 12.47
+___    ______ ____    _____ _____  ____ __ ______    ______ _________
0002712 D205 8038 747A 00010 029D0 16106                       MVC   BUF1(6),=XL6'F1C2F3C4F5C6'
 002718 D304 8039 8038 00011 00010 16107                       MVZ   BUF1+1(5),BUF1
 00271E D505 8038 7480 00010 029D6 16108                       CLC   BUF1(6),=XL6'F1F2F3F4F5F6'
 002724 4780 71E0            02736 16109                       IF    NE,BEGIN
 002728 4110 7486/4100_      029DC 16120  1                      MWRITE 'MVZ FAILED'
 002736                            16129                       END
                                   16133              * MR
                                   16134              * RESTRICTION M - MULTIPLY RESULT MUST NOT OVERFLOW A FULLWORD
 002736 5800 741E            02974 16135                       L     R0,=F'0'
 00273A 5810 7422            02978 16136                       L     R1,=F'1000'
 00273E 5820 7426            0297C 16137                       L     R2,=F'100'
 002742 1C02                       16138                       MR    R0,R2
 002744 5900 742A/4770_      02980 16139                       IF    ((R0,NE,0),OR,(R1,NE,100000)),BEGIN
 002754 4110 74BA/4100_      02A10 16172  1                      MWRITE 'MR FAILED'
 002762                            16181                       END
 002762 5800 7422            02978 16185                       L     R0,=F'1000'
 002766 5810 7432            02988 16186                       L     R1,=F'100000'
 00276A 5820 7422            02978 16187                       L     R2,=F'1000'
 00276E 1C02                       16188                       MR    R0,R2
 002770 5900 742A/4770_      02980 16189                       IF    ((R0,NE,0),OR,(R1,NE,100000000)),BEGIN
 002780 4110 74BA/4100_      02A10 16222  1                      MWRITE 'MR FAILED'
 00278E                            16231                       END
 00278E 5800 743A            02990 16235                       L     R0,=F'-1000'
 002792 5810 743E            02994 16236                       L     R1,=F'-100000'
 002796 5820 7422            02978 16237                       L     R2,=F'1000'
 00279A 1C02                       16238                       MR    R0,R2
 00279C 5910 7442/4780_      02998 16239                       IF    (R1,NE,-100000000),BEGIN
 0027A4 4110 74BA/4100_      02A10 16255  1                      MWRITE 'MR FAILED'
 0027B2                            16264                       END
 0027B2 5800 743A            02990 16268                       L     R0,=F'-1000'
 0027B6 5810 743E            02994 16269                       L     R1,=F'-100000'
 0027BA 5820 743A            02990 16270                       L     R2,=F'-1000'
 0027BE 1C02                       16271                       MR    R0,R2
 0027C0 5900 742A/4770_      02980 16272                       IF    ((R0,NE,0),OR,(R1,NE,100000000)),BEGIN
 0027D0 4110 74BA/4100_      02A10 16305  1                      MWRITE 'MR FAILED'
 0027DE                            16314                       END
 0027DE 5800 7422            02978 16318                       L     R0,=F'1000'
 0027E2 5810 7432            02988 16319                       L     R1,=F'100000'
 0027E6 5820 741E            02974 16320                       L     R2,=F'0'
 0027EA 1C02                       16321                       MR    R0,R2
 0027EC 5900 742A/4770_      02980 16322                       IF    ((R0,NE,0),OR,(R1,NE,0)),BEGIN
 0027FC 4110 74BA/4100_      02A10 16355  1                      MWRITE 'MR FAILED'
 00280A                            16364                       END
                                   16368              * M
                                   16369              * RESTRICTION M - MULTIPLY RESULT MUST NOT OVERFLOW A FULLWORD
 00280A 5800 741E            02974 16370                       L     R0,=F'0'
 00280E 5810 7422            02978 16371                       L     R1,=F'1000'
 002812 5C00 7426            0297C 16372                       M     R0,=F'100'
 002816 5900 742A/4770_      02980 16373                       IF    ((R0,NE,0),OR,(R1,NE,100000)),BEGIN
 002826 4110 7392/4100_      028E8 16406  1                      MWRITE 'M FAILED'
 002834                            16415                       END
 002834 5800 7422            02978 16419                       L     R0,=F'1000'
 002838 5810 7432            02988 16420                       L     R1,=F'100000'
 00283C 5C00 7422            02978 16421                       M     R0,=F'1000'
1ITEST    (ITES2010) (12:47) (15MAR04) ITEST ROUTINES                                                                       Page   37
0Current Usings:  (*,R7) (ITESTWA-(4+36),R8) (CP,R11) (CV,R12)
0Loc    Object Code    Addr1 Addr2  Stmt Lv Lineno    Source Statement           (Hibal 5, Asmedit 3.3)  HLASM R4.0  2004/03/15 12.47
+___    ______ ____    _____ _____  ____ __ ______    ______ _________
0002840 5900 742A/4770_      02980 16422                       IF    ((R0,NE,0),OR,(R1,NE,100000000)),BEGIN
 002850 4110 7392/4100_      028E8 16455  1                      MWRITE 'M FAILED'
 00285E                            16464                       END
 00285E 5800 743A            02990 16468                       L     R0,=F'-1000'
 002862 5810 743E            02994 16469                       L     R1,=F'-100000'
 002866 5C00 7422            02978 16470                       M     R0,=F'1000'
 00286A 5910 7442/4780_      02998 16471                       IF    (R1,NE,-100000000),BEGIN
 002872 4110 7392/4100_      028E8 16487  1                      MWRITE 'M FAILED'
 002880                            16496                       END
 002880 5800 743A            02990 16500                       L     R0,=F'-1000'
 002884 5810 743E            02994 16501                       L     R1,=F'-100000'
 002888 5C00 743A            02990 16502                       M     R0,=F'-1000'
 00288C 5900 742A/4770_      02980 16503                       IF    ((R0,NE,0),OR,(R1,NE,100000000)),BEGIN
 00289C 4110 7392/4100_      028E8 16536  1                      MWRITE 'M FAILED'
 0028AA                            16545                       END
 0028AA 5800 7422            02978 16549                       L     R0,=F'1000'
 0028AE 5810 7432            02988 16550                       L     R1,=F'100000'
 0028B2 5C00 741E            02974 16551                       M     R0,=F'0'
 0028B6 5900 742A/4770_      02980 16552                       IF    ((R0,NE,0),OR,(R1,NE,0)),BEGIN
 0028C6 4110 7392/4100_      028E8 16585  1                      MWRITE 'M FAILED'
 0028D4                            16594                       END
 0028D4 18D8/9808 D004_            16598                       PEND
 DROP   ITESTWA-(4+36),R8
 DROP   *,R7
                                   16623
                                   16624                       QLTORG
                                   16676
 002A1A 50E0 D000/9008_      00000 16677              DOTEST7  PROC  ITESTWA
 USING  *,R7
 USING  ITESTWA-(4+36),R8
                                   16727              * OR
 002A34 5810 7244            02C78 16728                       L     R1,=X'0000FFFF'
 002A38 5820 7248            02C7C 16729                       L     R2,=X'F0F0F0F0'
 002A3C 1612                       16730                       OR    R1,R2
 002A3E 4780 7016/5910_      02A4A 16731                       IF    (Z,OR,(R1,NE,X'F0F0FFFF')),BEGIN
 002A4A 4110 727C/4100_      02CB0 16758  1                      MWRITE 'OR FAILED'
 002A58                            16767                       END
 002A58 5810 7254            02C88 16771                       L     R1,=X'F0F00000'
 002A5C 5820 7248            02C7C 16772                       L     R2,=X'F0F0F0F0'
 002A60 1612                       16773                       OR    R1,R2
 002A62 4780 703A/5910_      02A6E 16774                       IF    (Z,OR,(R1,NE,X'F0F0F0F0')),BEGIN
 002A6E 4110 727C/4100_      02CB0 16801  1                      MWRITE 'OR FAILED'
 002A7C                            16810                       END
 002A7C 5810 725C            02C90 16814                       L     R1,=X'00000000'
 002A80 5820 725C            02C90 16815                       L     R2,=X'00000000'
 002A84 1612                       16816                       OR    R1,R2
 002A86 4770 705E/5910_      02A92 16817                       IF    (NZ,OR,(R1,NE,0)),BEGIN
 002A92 4110 727C/4100_      02CB0 16844  1                      MWRITE 'OR FAILED'
 002AA0                            16853                       END
                                   16857              * 0
 002AA0 5810 7244            02C78 16858                       L     R1,=X'0000FFFF'
 002AA4 5610 7248            02C7C 16859                       O     R1,=X'F0F0F0F0'
 002AA8 4780 7080/5910_      02AB4 16860                       IF    (Z,OR,(R1,NE,X'F0F0FFFF')),BEGIN
 002AB4 4110 723C/4100_      02C70 16887  1                      MWRITE 'O FAILED'
1ITEST    (ITES2010) (12:47) (15MAR04) ITEST ROUTINES                                                                       Page   38
0Current Usings:  (*,R7) (ITESTWA-(4+36),R8) (CP,R11) (CV,R12)
0Loc    Object Code    Addr1 Addr2  Stmt Lv Lineno    Source Statement           (Hibal 5, Asmedit 3.3)  HLASM R4.0  2004/03/15 12.47
+___    ______ ____    _____ _____  ____ __ ______    ______ _________
0002AC2                            16896                       END
 002AC2 5810 7254            02C88 16900                       L     R1,=X'F0F00000'
 002AC6 5610 7248            02C7C 16901                       O     R1,=X'F0F0F0F0'
 002ACA 4780 70A2/5910_      02AD6 16902                       IF    (Z,OR,(R1,NE,X'F0F0F0F0')),BEGIN
 002AD6 4110 723C/4100_      02C70 16929  1                      MWRITE 'O FAILED'
 002AE4                            16938                       END
 002AE4 5810 725C            02C90 16942                       L     R1,=X'00000000'
 002AE8 5610 725C            02C90 16943                       O     R1,=X'00000000'
 002AEC 4770 70C4/5910_      02AF8 16944                       IF    (NZ,OR,(R1,NE,0)),BEGIN
 002AF8 4110 723C/4100_      02C70 16971  1                      MWRITE 'O FAILED'
 002B06                            16980                       END
                                   16984              * OI
 002B06 5810 7264            02C98 16985                       L     R1,=F'0'
 002B0A 5010 8028            00000 16986                       ST    R1,F1
 002B0E 920F 8028      00000       16987                       MVI   F1,X'0F'
 002B12 9655 8028      00000       16988                       OI    F1,X'55'
 002B16 5810 8028            00000 16989                       L     R1,F1
 002B1A 4780 70F2/5910_      02B26 16990                       IF    (Z,OR,(R1,NE,X'5F000000')),BEGIN
 002B26 4110 7285/4100_      02CB9 17017  1                      MWRITE 'OI FAILED'
 002B34                            17026                       END
 002B34 92F0 8028      00000       17030                       MVI   F1,X'F0'
 002B38 96F1 8028      00000       17031                       OI    F1,X'F1'
 002B3C 5810 8028            00000 17032                       L     R1,F1
 002B40 4780 7118/5910_      02B4C 17033                       IF    (Z,OR,(R1,NE,X'F1000000')),BEGIN
 002B4C 4110 7285/4100_      02CB9 17060  1                      MWRITE 'OI FAILED'
 002B5A                            17069                       END
 002B5A 9200 8028      00000       17073                       MVI   F1,X'00'
 002B5E 9600 8028      00000       17074                       OI    F1,X'00'
 002B62 5810 8028            00000 17075                       L     R1,F1
 002B66 4770 713E/5910_      02B72 17076                       IF    (NZ,OR,(R1,NE,X'00000000')),BEGIN
 002B72 4110 7285/4100_      02CB9 17103  1                      MWRITE 'OI FAILED'
 002B80                            17112                       END
                                   17116              * OC
 002B80 5810 7244            02C78 17117                       L     R1,=X'0000FFFF'
 002B84 5010 8028            00000 17118                       ST    R1,F1
 002B88 5820 7248            02C7C 17119                       L     R2,=X'F0F0F0F0'
 002B8C 5020 802C            00004 17120                       ST    R2,F2
 002B90 5830 7264            02C98 17121                       L     R3,=F'0'
 002B94 5030 8030            00008 17122                       ST    R3,F3
 002B98 D603 8028 802C 00000 00004 17123                       OC    F1,F2
 002B9E 5810 8028            00000 17124                       L     R1,F1
 002BA2 4780 717A/5910_      02BAE 17125                       IF    (Z,OR,(R1,NE,X'F0F0FFFF')),BEGIN
 002BAE 4110 728E/4100_      02CC2 17152  1                      MWRITE 'OC FAILED'
 002BBC                            17161                       END
 002BBC 5820 802C            00004 17165                       L     R2,F2
 002BC0 5920 7258/4780_      02C8C 17166                       IF    (R2,NE,X'F0F0F0F0'),BEGIN
 002BC8 4110 728E/4100_      02CC2 17183  1                      MWRITE 'OC FAILED'
 002BD6                            17192                       END
 002BD6 5810 7254            02C88 17196                       L     R1,=X'F0F00000'
 002BDA 5010 8028            00000 17197                       ST    R1,F1
 002BDE 5820 7248            02C7C 17198                       L     R2,=X'F0F0F0F0'
 002BE2 5020 802C            00004 17199                       ST    R2,F2
 002BE6 D603 8028 802C 00000 00004 17200                       OC    F1,F2
 002BEC 5810 8028            00000 17201                       L     R1,F1
1ITEST    (ITES2010) (12:47) (15MAR04) ITEST ROUTINES                                                                       Page   39
0Current Usings:  (*,R7) (ITESTWA-(4+36),R8) (CP,R11) (CV,R12)
0Loc    Object Code    Addr1 Addr2  Stmt Lv Lineno    Source Statement           (Hibal 5, Asmedit 3.3)  HLASM R4.0  2004/03/15 12.47
+___    ______ ____    _____ _____  ____ __ ______    ______ _________
0002BF0 4780 71C8/5910_      02BFC 17202                       IF    (Z,OR,(R1,NE,X'F0F0F0F0')),BEGIN
 002BFC 4110 728E/4100_      02CC2 17229  1                      MWRITE 'OC FAILED'
 002C0A                            17238                       END
 002C0A 5810 725C            02C90 17242                       L     R1,=X'00000000'
 002C0E 5010 8028            00000 17243                       ST    R1,F1
 002C12 5820 725C            02C90 17244                       L     R2,=X'00000000'
 002C16 5020 802C            00004 17245                       ST    R2,F2
 002C1A D603 8028 802C 00000 00004 17246                       OC    F1,F2
 002C20 5810 8028            00000 17247                       L     R1,F1
 002C24 4770 71FC/5910_      02C30 17248                       IF    (NZ,OR,(R1,NE,0)),BEGIN
 002C30 4110 728E/4100_      02CC2 17275  1                      MWRITE 'OC FAILED'
 002C3E                            17284                       END
                                   17288              * PACK (FROM POPS)
 002C3E D203 8038 7274 00010 02CA8 17289                       MVC   BUF1(4),=XL4'F1F2F3C4'
 002C44 F233 8038 8038 00010 00010 17290                       PACK  BUF1(4),BUF1(4)
 002C4A D503 8038 7278 00010 02CAC 17291                       CLC   BUF1(4),=XL4'0001234C'
 002C50 4780 722E            02C62 17292                       IF    NE,BEGIN
 002C54 4110 7297/4100_      02CCB 17303  1                      MWRITE 'PACK FAILED'
 002C62                            17312                       END
 002C62 18D8/9808 D004_            17316                       PEND
 DROP   ITESTWA-(4+36),R8
 DROP   *,R7
                                   17341
                                   17342                       QLTORG
                                   17373
 002CD6 50E0 D000/9008_      00000 17374              DOTEST8  PROC  ITESTWA
 USING  *,R7
 USING  ITESTWA-(4+36),R8
                                   17424              *
                                   17425              * SLDA
                                   17426              * RESTRICTION SLDA - OVERFLOW CC NEVER SET
 002CF0 5800 7718            03408 17427                       L     R0,=X'FFFFFFFF'
 002CF4 5810 771C            0340C 17428                       L     R1,=X'FFFFE070'
 002CF8 8F00 0030            00030 17429                       SLDA  R0,48
 002CFC 4740 701E            02D0E 17430                       IF    NL,BEGIN
 002D00 4110 7838/4100_      03528 17441  1                      MWRITE 'SLDA FAILED'
 002D0E                            17450                       END
 002D0E 5900 7724/4770_      03414 17454                       IF    ((R0,NE,X'E0700000'),OR,(R1,NE,0)),BEGIN
 002D1E 4110 7838/4100_      03528 17487  1                      MWRITE 'SLDA FAILED'
 002D2C                            17496                       END
 002D2C 5800 7718            03408 17500                       L     R0,=X'FFFFFFFF'
 002D30 5810 772C            0341C 17501                       L     R1,=X'C0506070'
 002D34 8F00 0020            00020 17502                       SLDA  R0,32
 002D38 4740 705A            02D4A 17503                       IF    NL,BEGIN
 002D3C 4110 7838/4100_      03528 17514  1                      MWRITE 'SLDA FAILED'
 002D4A                            17523                       END
 002D4A 5900 7730/4770_      03420 17527                       IF    ((R0,NE,X'C0506070'),OR,(R1,NE,0)),BEGIN
 002D5A 4110 7838/4100_      03528 17560  1                      MWRITE 'SLDA FAILED'
 002D68                            17569                       END
 002D68 5800 7734            03424 17573                       L     R0,=X'FF902030'
 002D6C 5810 7738            03428 17574                       L     R1,=X'40506070'
 002D70 8F00 0008            00008 17575                       SLDA  R0,8
 002D74 4740 7096            02D86 17576                       IF    NL,BEGIN
 002D78 4110 7838/4100_      03528 17587  1                      MWRITE 'SLDA FAILED'
1ITEST    (ITES2010) (12:47) (15MAR04) ITEST ROUTINES                                                                       Page   40
0Current Usings:  (*,R7) (ITESTWA-(4+36),R8) (CP,R11) (CV,R12)
0Loc    Object Code    Addr1 Addr2  Stmt Lv Lineno    Source Statement           (Hibal 5, Asmedit 3.3)  HLASM R4.0  2004/03/15 12.47
+___    ______ ____    _____ _____  ____ __ ______    ______ _________
0002D86                            17596                       END
 002D86 5900 773C/4770_      0342C 17600                       IF    ((R0,NE,X'90203040'),OR,(R1,NE,X'50607000')),BEGIN
 002D96 4110 7838/4100_      03528 17633  1                      MWRITE 'SLDA FAILED'
 002DA4                            17642                       END
 002DA4 5800 7744            03434 17646                       L     R0,=X'00000000'
 002DA8 5810 7748            03438 17647                       L     R1,=X'000076F7'
 002DAC 8F00 0030            00030 17648                       SLDA  R0,48
 002DB0 4720 70D2            02DC2 17649                       IF    NH,BEGIN
 002DB4 4110 7838/4100_      03528 17660  1                      MWRITE 'SLDA FAILED'
 002DC2                            17669                       END
 002DC2 5900 774C/4770_      0343C 17673                       IF    ((R0,NE,X'76F70000'),OR,(R1,NE,0)),BEGIN
 002DD2 4110 7838/4100_      03528 17706  1                      MWRITE 'SLDA FAILED'
 002DE0                            17715                       END
 002DE0 5800 7744            03434 17719                       L     R0,=X'00000000'
 002DE4 5810 7750            03440 17720                       L     R1,=X'74F5F6F7'
 002DE8 8F00 0020            00020 17721                       SLDA  R0,32
 002DEC 4720 710E            02DFE 17722                       IF    NH,BEGIN
 002DF0 4110 7838/4100_      03528 17733  1                      MWRITE 'SLDA FAILED'
 002DFE                            17742                       END
 002DFE 5900 7754/4770_      03444 17746                       IF    ((R0,NE,X'74F5F6F7'),OR,(R1,NE,0)),BEGIN
 002E0E 4110 7838/4100_      03528 17779  1                      MWRITE 'SLDA FAILED'
 002E1C                            17788                       END
 002E1C 5800 7758            03448 17792                       L     R0,=X'0071F2F3'
 002E20 5810 775C            0344C 17793                       L     R1,=X'F4F5F6F7'
 002E24 8F00 0008            00008 17794                       SLDA  R0,8
 002E28 4720 714A            02E3A 17795                       IF    NH,BEGIN
 002E2C 4110 7838/4100_      03528 17806  1                      MWRITE 'SLDA FAILED'
 002E3A                            17815                       END
 002E3A 5900 7760/4770_      03450 17819                       IF    ((R0,NE,X'71F2F3F4'),OR,(R1,NE,X'F5F6F700')),BEGIN
 002E4A 4110 7838/4100_      03528 17852  1                      MWRITE 'SLDA FAILED'
 002E58                            17861                       END
 002E58 5800 7744            03434 17865                       L     R0,=X'00000000'
 002E5C 5810 7744            03434 17866                       L     R1,=X'00000000'
 002E60 8F00 0030            00030 17867                       SLDA  R0,48
 002E64 4780 7186            02E76 17868                       IF    NZ,BEGIN
 002E68 4110 7838/4100_      03528 17879  1                      MWRITE 'SLDA FAILED'
 002E76                            17888                       END
                                   17892              * SLDL
 002E76 5800 7768            03458 17893                       L     R0,=X'F0102030'
 002E7A 5810 7738            03428 17894                       L     R1,=X'40506070'
 002E7E 8D00 0030            00030 17895                       SLDL  R0,48
 002E82 5900 776C/4770_      0345C 17896                       IF    ((R0,NE,X'60700000'),OR,(R1,NE,0)),BEGIN
 002E92 4110 7843/4100_      03533 17929  1                      MWRITE 'SLDL FAILED'
 002EA0                            17938                       END
 002EA0 5800 7768            03458 17942                       L     R0,=X'F0102030'
 002EA4 5810 7738            03428 17943                       L     R1,=X'40506070'
 002EA8 8D00 0020            00020 17944                       SLDL  R0,32
 002EAC 5900 7770/4770_      03460 17945                       IF    ((R0,NE,X'40506070'),OR,(R1,NE,0)),BEGIN
 002EBC 4110 7843/4100_      03533 17978  1                      MWRITE 'SLDL FAILED'
 002ECA                            17987                       END
 002ECA 5800 7768            03458 17991                       L     R0,=X'F0102030'
 002ECE 5810 7738            03428 17992                       L     R1,=X'40506070'
 002ED2 8D00 0008            00008 17993                       SLDL  R0,8
 002ED6 5900 7774/4770_      03464 17994                       IF    ((R0,NE,X'10203040'),OR,(R1,NE,X'50607000')),BEGIN
1ITEST    (ITES2010) (12:47) (15MAR04) ITEST ROUTINES                                                                       Page   41
0Current Usings:  (*,R7) (ITESTWA-(4+36),R8) (CP,R11) (CV,R12)
0Loc    Object Code    Addr1 Addr2  Stmt Lv Lineno    Source Statement           (Hibal 5, Asmedit 3.3)  HLASM R4.0  2004/03/15 12.47
+___    ______ ____    _____ _____  ____ __ ______    ______ _________
0002EE6 4110 7843/4100_      03533 18027  1                      MWRITE 'SLDL FAILED'
 002EF4                            18036                       END
 002EF4 5800 7778            03468 18040                       L     R0,=X'00F1F2F3'
 002EF8 5810 775C            0344C 18041                       L     R1,=X'F4F5F6F7'
 002EFC 8D00 0030            00030 18042                       SLDL  R0,48
 002F00 5900 777C/4770_      0346C 18043                       IF    ((R0,NE,X'F6F70000'),OR,(R1,NE,0)),BEGIN
 002F10 4110 7843/4100_      03533 18076  1                      MWRITE 'SLDL FAILED'
 002F1E                            18085                       END
 002F1E 5800 7778            03468 18089                       L     R0,=X'00F1F2F3'
 002F22 5810 775C            0344C 18090                       L     R1,=X'F4F5F6F7'
 002F26 8D00 0020            00020 18091                       SLDL  R0,32
 002F2A 5900 7780/4770_      03470 18092                       IF    ((R0,NE,X'F4F5F6F7'),OR,(R1,NE,0)),BEGIN
 002F3A 4110 7843/4100_      03533 18125  1                      MWRITE 'SLDL FAILED'
 002F48                            18134                       END
 002F48 5800 7778            03468 18138                       L     R0,=X'00F1F2F3'
 002F4C 5810 775C            0344C 18139                       L     R1,=X'F4F5F6F7'
 002F50 8D00 0008            00008 18140                       SLDL  R0,8
 002F54 5900 7784/4770_      03474 18141                       IF    ((R0,NE,X'F1F2F3F4'),OR,(R1,NE,X'F5F6F700')),BEGIN
 002F64 4110 7843/4100_      03533 18174  1                      MWRITE 'SLDL FAILED'
 002F72                            18183                       END
                                   18187              *  SLA
 002F72 5810 7788            03478 18188                       L     R1,=X'FFF90F0F'
 002F76 8B10 000C            0000C 18189                       SLA   R1,12
 002F7A 47B0 7296/5910_      02F86 18190                       IF    (NL,OR,(R1,NE,X'90F0F000')),BEGIN
 002F86 4110 7810/4100_      03500 18217  1                      MWRITE 'SLA FAILED'
 002F94                            18226                       END
 002F94 5810 7790            03480 18230                       L     R1,=X'FFFFF800'
 002F98 8B10 0014            00014 18231                       SLA   R1,20
 002F9C 47B0 72B8/5910_      02FA8 18232                       IF    (NL,OR,(R1,NE,X'80000000')),BEGIN
 002FA8 4110 7810/4100_      03500 18259  1                      MWRITE 'SLA FAILED'
 002FB6                            18268                       END
 002FB6 5810 7798            03488 18272                       L     R1,=X'0007000F'
 002FBA 8B10 000C            0000C 18273                       SLA   R1,12
 002FBE 47D0 72DA/5910_      02FCA 18274                       IF    (NH,OR,(R1,NE,X'7000F000')),BEGIN
 002FCA 4110 7810/4100_      03500 18301  1                      MWRITE 'SLA FAILED'
 002FD8                            18310                       END
 002FD8 5810 7744            03434 18314                       L     R1,=X'00000000'
 002FDC 8B10 0018            00018 18315                       SLA   R1,24
 002FE0 4770 72FC/5910_      02FEC 18316                       IF    (NZ,OR,(R1,NE,X'00000000')),BEGIN
 002FEC 4110 7810/4100_      03500 18343  1                      MWRITE 'SLA FAILED'
 002FFA                            18352                       END
                                   18356              *  SLL
 002FFA 5810 77A4            03494 18357                       L     R1,=X'80010F0F'
 002FFE 8910 000C            0000C 18358                       SLL   R1,12
 003002 5910 77A8/4780_      03498 18359                       IF    (R1,NE,X'10F0F000'),BEGIN
 00300A 4110 781A/4100_      0350A 18376  1                      MWRITE 'SLL FAILED'
 003018                            18385                       END
 003018 5810 77AC            0349C 18389                       L     R1,=X'F0000000'
 00301C 8910 0014            00014 18390                       SLL   R1,20
 003020 5910 77A0/4780_      03490 18391                       IF    (R1,NE,X'00000000'),BEGIN
 003028 4110 781A/4100_      0350A 18408  1                      MWRITE 'SLL FAILED'
 003036                            18417                       END
 003036 5810 77B0            034A0 18421                       L     R1,=X'0FFF000F'
 00303A 8910 000C            0000C 18422                       SLL   R1,12
1ITEST    (ITES2010) (12:47) (15MAR04) ITEST ROUTINES                                                                       Page   42
0Current Usings:  (*,R7) (ITESTWA-(4+36),R8) (CP,R11) (CV,R12)
0Loc    Object Code    Addr1 Addr2  Stmt Lv Lineno    Source Statement           (Hibal 5, Asmedit 3.3)  HLASM R4.0  2004/03/15 12.47
+___    ______ ____    _____ _____  ____ __ ______    ______ _________
000303E 5910 77B4/4780_      034A4 18423                       IF    (R1,NE,X'F000F000'),BEGIN
 003046 4110 781A/4100_      0350A 18440  1                      MWRITE 'SLL FAILED'
 003054                            18449                       END
 003054 5810 77B8            034A8 18453                       L     R1,=X'0F0F0F00'
 003058 8910 0018            00018 18454                       SLL   R1,24
 00305C 5910 77A0/4780_      03490 18455                       IF    (R1,NE,X'00000000'),BEGIN
 003064 4110 781A/4100_      0350A 18472  1                      MWRITE 'SLL FAILED'
 003072                            18481                       END
                                   18485              * SRDA
                                   18486              * RESTRICTION SRDA - OVERFLOW CC NEVER SET
 003072 5800 7768            03458 18487                       L     R0,=X'F0102030'
 003076 5810 7738            03428 18488                       L     R1,=X'40506070'
 00307A 8E00 0030            00030 18489                       SRDA  R0,48
 00307E 4740 73A0            03090 18490                       IF    NL,BEGIN
 003082 4110 784E/4100_      0353E 18501  1                      MWRITE 'SRDA FAILED'
 003090                            18510                       END
 003090 5900 77BC/4770_      034AC 18514                       IF    ((R0,NE,X'FFFFFFFF'),OR,(R1,NE,X'FFFFF010')),BEGIN
 0030A0 4110 784E/4100_      0353E 18547  1                      MWRITE 'SRDA FAILED'
 0030AE                            18556                       END
 0030AE 5800 7768            03458 18560                       L     R0,=X'F0102030'
 0030B2 5810 7738            03428 18561                       L     R1,=X'40506070'
 0030B6 8E00 0020            00020 18562                       SRDA  R0,32
 0030BA 4740 73DC            030CC 18563                       IF    NL,BEGIN
 0030BE 4110 784E/4100_      0353E 18574  1                      MWRITE 'SRDA FAILED'
 0030CC                            18583                       END
 0030CC 5900 77BC/4770_      034AC 18587                       IF    ((R0,NE,X'FFFFFFFF'),OR,(R1,NE,X'F0102030')),BEGIN
 0030DC 4110 784E/4100_      0353E 18620  1                      MWRITE 'SRDA FAILED'
 0030EA                            18629                       END
 0030EA 5800 7768            03458 18633                       L     R0,=X'F0102030'
 0030EE 5810 7738            03428 18634                       L     R1,=X'40506070'
 0030F2 8E00 0008            00008 18635                       SRDA  R0,8
 0030F6 4740 7418            03108 18636                       IF    NL,BEGIN
 0030FA 4110 784E/4100_      0353E 18647  1                      MWRITE 'SRDA FAILED'
 003108                            18656                       END
 003108 5900 77C8/4770_      034B8 18660                       IF    ((R0,NE,X'FFF01020'),OR,(R1,NE,X'30405060')),BEGIN
 003118 4110 784E/4100_      0353E 18693  1                      MWRITE 'SRDA FAILED'
 003126                            18702                       END
 003126 5800 7778            03468 18706                       L     R0,=X'00F1F2F3'
 00312A 5810 775C            0344C 18707                       L     R1,=X'F4F5F6F7'
 00312E 8E00 0030            00030 18708                       SRDA  R0,48
 003132 4720 7454            03144 18709                       IF    NH,BEGIN
 003136 4110 784E/4100_      0353E 18720  1                      MWRITE 'SRDA FAILED'
 003144                            18729                       END
 003144 5900 77A0/4770_      03490 18733                       IF    ((R0,NE,X'00000000'),OR,(R1,NE,X'000000F1')),BEGIN
 003154 4110 784E/4100_      0353E 18766  1                      MWRITE 'SRDA FAILED'
 003162                            18775                       END
 003162 5800 77D4            034C4 18779                       L     R0,=X'70F1F2F3'
 003166 5810 775C            0344C 18780                       L     R1,=X'F4F5F6F7'
 00316A 8E00 0020            00020 18781                       SRDA  R0,32
 00316E 4720 7490            03180 18782                       IF    NH,BEGIN
 003172 4110 784E/4100_      0353E 18793  1                      MWRITE 'SRDA FAILED'
 003180                            18802                       END
 003180 5900 77A0/4770_      03490 18806                       IF    ((R0,NE,X'00000000'),OR,(R1,NE,X'70F1F2F3')),BEGIN
 003190 4110 784E/4100_      0353E 18839  1                      MWRITE 'SRDA FAILED'
1ITEST    (ITES2010) (12:47) (15MAR04) ITEST ROUTINES                                                                       Page   43
0Current Usings:  (*,R7) (ITESTWA-(4+36),R8) (CP,R11) (CV,R12)
0Loc    Object Code    Addr1 Addr2  Stmt Lv Lineno    Source Statement           (Hibal 5, Asmedit 3.3)  HLASM R4.0  2004/03/15 12.47
+___    ______ ____    _____ _____  ____ __ ______    ______ _________
000319E                            18848                       END
 00319E 5800 7778            03468 18852                       L     R0,=X'00F1F2F3'
 0031A2 5810 775C            0344C 18853                       L     R1,=X'F4F5F6F7'
 0031A6 8E00 0008            00008 18854                       SRDA  R0,8
 0031AA 4720 74CC            031BC 18855                       IF    NH,BEGIN
 0031AE 4110 784E/4100_      0353E 18866  1                      MWRITE 'SRDA FAILED'
 0031BC                            18875                       END
 0031BC 5900 77DC/4770_      034CC 18879                       IF    ((R0,NE,X'0000F1F2'),OR,(R1,NE,X'F3F4F5F6')),BEGIN
 0031CC 4110 784E/4100_      0353E 18912  1                      MWRITE 'SRDA FAILED'
 0031DA                            18921                       END
 0031DA 5800 77E4            034D4 18925                       L     R0,=X'000000F0'
 0031DE 5810 77E8            034D8 18926                       L     R1,=X'000F0000'
 0031E2 8E00 0030            00030 18927                       SRDA  R0,48
 0031E6 4780 7508            031F8 18928                       IF    NZ,BEGIN
 0031EA 4110 784E/4100_      0353E 18939  1                      MWRITE 'SRDA FAILED'
 0031F8                            18948                       END
                                   18952              * SRDL
 0031F8 5800 7768            03458 18953                       L     R0,=X'F0102030'
 0031FC 5810 7738            03428 18954                       L     R1,=X'40506070'
 003200 8C00 0030            00030 18955                       SRDL  R0,48
 003204 5900 77A0/4770_      03490 18956                       IF    ((R0,NE,X'00000000'),OR,(R1,NE,X'0000F010')),BEGIN
 003214 4110 7859/4100_      03549 18989  1                      MWRITE 'SRDL FAILED'
 003222                            18998                       END
 003222 5800 7768            03458 19002                       L     R0,=X'F0102030'
 003226 5810 7738            03428 19003                       L     R1,=X'40506070'
 00322A 8C00 0020            00020 19004                       SRDL  R0,32
 00322E 5900 77A0/4770_      03490 19005                       IF    ((R0,NE,X'00000000'),OR,(R1,NE,X'F0102030')),BEGIN
 00323E 4110 7859/4100_      03549 19038  1                      MWRITE 'SRDL FAILED'
 00324C                            19047                       END
 00324C 5800 7768            03458 19051                       L     R0,=X'F0102030'
 003250 5810 7738            03428 19052                       L     R1,=X'40506070'
 003254 8C00 0008            00008 19053                       SRDL  R0,8
 003258 5900 77F0/4770_      034E0 19054                       IF    ((R0,NE,X'00F01020'),OR,(R1,NE,X'30405060')),BEGIN
 003268 4110 7859/4100_      03549 19087  1                      MWRITE 'SRDL FAILED'
 003276                            19096                       END
 003276 5800 7778            03468 19100                       L     R0,=X'00F1F2F3'
 00327A 5810 775C            0344C 19101                       L     R1,=X'F4F5F6F7'
 00327E 8C00 0030            00030 19102                       SRDL  R0,48
 003282 5900 77A0/4770_      03490 19103                       IF    ((R0,NE,X'00000000'),OR,(R1,NE,X'000000F1')),BEGIN
 003292 4110 7859/4100_      03549 19136  1                      MWRITE 'SRDL FAILED'
 0032A0                            19145                       END
 0032A0 5800 7778            03468 19149                       L     R0,=X'00F1F2F3'
 0032A4 5810 775C            0344C 19150                       L     R1,=X'F4F5F6F7'
 0032A8 8C00 0020            00020 19151                       SRDL  R0,32
 0032AC 5900 77A0/4770_      03490 19152                       IF    ((R0,NE,X'00000000'),OR,(R1,NE,X'00F1F2F3')),BEGIN
 0032BC 4110 7859/4100_      03549 19185  1                      MWRITE 'SRDL FAILED'
 0032CA                            19194                       END
 0032CA 5800 7778            03468 19198                       L     R0,=X'00F1F2F3'
 0032CE 5810 775C            0344C 19199                       L     R1,=X'F4F5F6F7'
 0032D2 8C00 0008            00008 19200                       SRDL  R0,8
 0032D6 5900 77DC/4770_      034CC 19201                       IF    ((R0,NE,X'0000F1F2'),OR,(R1,NE,X'F3F4F5F6')),BEGIN
 0032E6 4110 7859/4100_      03549 19234  1                      MWRITE 'SRDL FAILED'
 0032F4                            19243                       END
                                   19247              *  SRA
1ITEST    (ITES2010) (12:47) (15MAR04) ITEST ROUTINES                                                                       Page   44
0Current Usings:  (*,R7) (ITESTWA-(4+36),R8) (CP,R11) (CV,R12)
0Loc    Object Code    Addr1 Addr2  Stmt Lv Lineno    Source Statement           (Hibal 5, Asmedit 3.3)  HLASM R4.0  2004/03/15 12.47
+___    ______ ____    _____ _____  ____ __ ______    ______ _________
00032F4 5810 77A4            03494 19248                       L     R1,=X'80010F0F'
 0032F8 8A10 000C            0000C 19249                       SRA   R1,12
 0032FC 47B0 7618/5910_      03308 19250                       IF    (NL,OR,(R1,NE,X'FFF80010')),BEGIN
 003308 4110 7824/4100_      03514 19277  1                      MWRITE 'SRA FAILED'
 003316                            19286                       END
 003316 5810 77AC            0349C 19290                       L     R1,=X'F0000000'
 00331A 8A10 0014            00014 19291                       SRA   R1,20
 00331E 47B0 763A/5910_      0332A 19292                       IF    (NL,OR,(R1,NE,X'FFFFFF00')),BEGIN
 00332A 4110 7824/4100_      03514 19319  1                      MWRITE 'SRA FAILED'
 003338                            19328                       END
 003338 5810 77B0            034A0 19332                       L     R1,=X'0FFF000F'
 00333C 8A10 000C            0000C 19333                       SRA   R1,12
 003340 47D0 765C/5910_      0334C 19334                       IF    (NH,OR,(R1,NE,X'0000FFF0')),BEGIN
 00334C 4110 7824/4100_      03514 19361  1                      MWRITE 'SRA FAILED'
 00335A                            19370                       END
 00335A 5810 77B8            034A8 19374                       L     R1,=X'0F0F0F00'
 00335E 8A10 001C            0001C 19375                       SRA   R1,28
 003362 4770 767E/5910_      0336E 19376                       IF    (NZ,OR,(R1,NE,X'00000000')),BEGIN
 00336E 4110 7824/4100_      03514 19403  1                      MWRITE 'SRA FAILED'
 00337C                            19412                       END
                                   19416              *  SRL
 00337C 5810 77A4            03494 19417                       L     R1,=X'80010F0F'
 003380 8810 000C            0000C 19418                       SRL   R1,12
 003384 5910 7804/4780_      034F4 19419                       IF    (R1,NE,X'00080010'),BEGIN
 00338C 4110 782E/4100_      0351E 19436  1                      MWRITE 'SRL FAILED'
 00339A                            19445                       END
 00339A 5810 77AC            0349C 19449                       L     R1,=X'F0000000'
 00339E 8810 0014            00014 19450                       SRL   R1,20
 0033A2 5910 7808/4780_      034F8 19451                       IF    (R1,NE,X'00000F00'),BEGIN
 0033AA 4110 782E/4100_      0351E 19468  1                      MWRITE 'SRL FAILED'
 0033B8                            19477                       END
 0033B8 5810 77B0            034A0 19481                       L     R1,=X'0FFF000F'
 0033BC 8810 000C            0000C 19482                       SRL   R1,12
 0033C0 5910 7800/4780_      034F0 19483                       IF    (R1,NE,X'0000FFF0'),BEGIN
 0033C8 4110 782E/4100_      0351E 19500  1                      MWRITE 'SRL FAILED'
 0033D6                            19509                       END
 0033D6 5810 77B8            034A8 19513                       L     R1,=X'0F0F0F00'
 0033DA 8810 0018            00018 19514                       SRL   R1,24
 0033DE 5910 780C/4780_      034FC 19515                       IF    (R1,NE,X'0000000F'),BEGIN
 0033E6 4110 782E/4100_      0351E 19532  1                      MWRITE 'SRL FAILED'
 0033F4                            19541                       END
                                   19545
 0033F4 18D8/9808 D004_            19546                       PEND
 DROP   ITESTWA-(4+36),R8
 DROP   *,R7
                                   19571
                                   19572                       QLTORG
                                   19654
 003554 50E0 D000/9008_      00000 19655              DOTEST9  PROC  ITESTWA
 USING  *,R7
 USING  ITESTWA-(4+36),R8
                                   19705              *
                                   19706              * ST
 00356E 5810 774A            03CB8 19707                       L     R1,=F'-1'
1ITEST    (ITES2010) (12:47) (15MAR04) ITEST ROUTINES                                                                       Page   45
0Current Usings:  (*,R7) (ITESTWA-(4+36),R8) (CP,R11) (CV,R12)
0Loc    Object Code    Addr1 Addr2  Stmt Lv Lineno    Source Statement           (Hibal 5, Asmedit 3.3)  HLASM R4.0  2004/03/15 12.47
+___    ______ ____    _____ _____  ____ __ ______    ______ _________
0003572 5010 8028            00000 19708                       ST    R1,F1
 003576 5820 774E            03CBC 19709                       L     R2,=F'100000000'
 00357A 5020 802C            00004 19710                       ST    R2,F2
 00357E 5830 7752            03CC0 19711                       L     R3,=F'0'
 003582 5030 8030            00008 19712                       ST    R3,F3
 003586 D503 7756 8028_03CC4 00000 19713                       IF    ((F1,NE,-1),OR,(F2,NE,100000000),OR,(F3,NE,0)),BEGIN
 0035A4 4110 7834/4100_      03DA2 19763  1                      MWRITE 'ST FAILED'
 0035B2                            19772                       END
                                   19776              * STC
 0035B2 5810 7752            03CC0 19777                       L     R1,=F'0'
 0035B6 4210 8028            00000 19778                       STC   R1,F1
 0035BA 5810 774A            03CB8 19779                       L     R1,=F'-1'
 0035BE 4210 8029            00001 19780                       STC   R1,F1+1
 0035C2 5810 7762            03CD0 19781                       L     R1,=X'F0F0F0F0'
 0035C6 4210 802A            00002 19782                       STC   R1,F1+2
 0035CA 5810 7766            03CD4 19783                       L     R1,=X'0000000F'
 0035CE 4210 802B            00003 19784                       STC   R1,F1+3
 0035D2 D503 776A 8028_03CD8 00000 19785                       IF    (F1,NE,X'00FFF00F'),BEGIN
 0035DC 4110 77F6/4100_      03D64 19802  1                      MWRITE 'STC FAILED'
 0035EA                            19811                       END
                                   19815              * STCM
 0035EA 5830 776E            03CDC 19816                       L     R3,=X'F0F1F2F3'
 0035EE 5030 8028            00000 19817                       ST    R3,F1
 0035F2 BE33 8028            00000 19818                       STCM  R3,B'0011',F1
 0035F6 D503 8028 7772 00000 03CE0 19819                       CLC   F1(4),=XL4'F2F3F2F3'
 0035FC 4780 70A0            0360E 19820                       IF    NE,BEGIN
 003600 4110 783D/4100_      03DAB 19831  1                      MWRITE 'STCM FAILED'
 00360E                            19840                       END
 00360E 5930 7776/4780_      03CE4 19844                       IF    (R3,NE,X'F0F1F2F3'),BEGIN
 003616 4110 783D/4100_      03DAB 19861  1                      MWRITE 'STCM FAILED'
 003624                            19870                       END
 003624 5810 776E            03CDC 19874                       L     R1,=X'F0F1F2F3'
 003628 BE19 8028            00000 19875                       STCM  R1,B'1001',F1
 00362C D503 8028 777A 00000 03CE8 19876                       CLC   F1(4),=XL4'F0F3F2F3'
 003632 4780 70D6            03644 19877                       IF    NE,BEGIN
 003636 4110 783D/4100_      03DAB 19888  1                      MWRITE 'STCM FAILED'
 003644                            19897                       END
 003644 5810 776E            03CDC 19901                       L     R1,=X'F0F1F2F3'
 003648 BE1F 8028            00000 19902                       STCM  R1,B'1111',F1
 00364C D503 8028 777E 00000 03CEC 19903                       CLC   F1(4),=XL4'F0F1F2F3'
 003652 4780 70F6            03664 19904                       IF    NE,BEGIN
 003656 4110 783D/4100_      03DAB 19915  1                      MWRITE 'STCM FAILED'
 003664                            19924                       END
 003664 5810 7782            03CF0 19928                       L     R1,=X'01020304'
 003668 BE19 8028            00000 19929                       STCM  R1,B'1001',F1
 00366C D501 8028 7800 00000 03D6E 19930                       CLC   F1(2),=XL2'0104'
 003672 4780 7116            03684 19931                       IF    NE,BEGIN
 003676 4110 783D/4100_      03DAB 19942  1                      MWRITE 'STCM FAILED'
 003684                            19951                       END
                                   19955              * STH
 003684 5810 7786            03CF4 19956                       L     R1,=X'FF0000FF'
 003688 5010 8028            00000 19957                       ST    R1,F1
 00368C 4010 8028            00000 19958                       STH   R1,F1
 003690 D503 8028 778A 00000 03CF8 19959                       CLC   F1(4),=XL4'00FF00FF'
1ITEST    (ITES2010) (12:47) (15MAR04) ITEST ROUTINES                                                                       Page   46
0Current Usings:  (*,R7) (ITESTWA-(4+36),R8) (CP,R11) (CV,R12)
0Loc    Object Code    Addr1 Addr2  Stmt Lv Lineno    Source Statement           (Hibal 5, Asmedit 3.3)  HLASM R4.0  2004/03/15 12.47
+___    ______ ____    _____ _____  ____ __ ______    ______ _________
0003696 4780 713A            036A8 19960                       IF    NE,BEGIN
 00369A 4110 7802/4100_      03D70 19971  1                      MWRITE 'STH FAILED'
 0036A8                            19980                       END
 0036A8 5810 778E            03CFC 19984                       L     R1,=X'00FFFF00'
 0036AC 5010 8028            00000 19985                       ST    R1,F1
 0036B0 4010 8028            00000 19986                       STH   R1,F1
 0036B4 D503 8028 7792 00000 03D00 19987                       CLC   F1(4),=XL4'FF00FF00'
 0036BA 4780 715E            036CC 19988                       IF    NE,BEGIN
 0036BE 4110 7802/4100_      03D70 19999  1                      MWRITE 'STH FAILED'
 0036CC                            20008                       END
 0036CC 5810 7796            03D04 20012                       L     R1,=X'00000F00'
 0036D0 5010 8028            00000 20013                       ST    R1,F1
 0036D4 4010 8028            00000 20014                       STH   R1,F1
 0036D8 D503 8028 779A 00000 03D08 20015                       CLC   F1(4),=XL4'0F000F00'
 0036DE 4780 7182            036F0 20016                       IF    NE,BEGIN
 0036E2 4110 7802/4100_      03D70 20027  1                      MWRITE 'STH FAILED'
 0036F0                            20036                       END
                                   20040              * STM
 0036F0 5810 774A            03CB8 20041                       L     R1,=F'-1'
 0036F4 5820 7752            03CC0 20042                       L     R2,=F'0'
 0036F8 5830 774E            03CBC 20043                       L     R3,=F'100000000'
 0036FC 5840 779E            03D0C 20044                       L     R4,=F'-1000'
 003700 9014 8028            00000 20045                       STM   R1,R4,F1
 003704 D503 7756 8028_03CC4 00000 20046                       IF    ((F1,NE,-1),OR,(F2,NE,0)),BEGIN
 003718 4110 780C/4100_      03D7A 20081  1                      MWRITE 'STM FAILED'
 003726                            20090                       END
 003726 D503 775A 8030_03CC8 00008 20094                       IF    ((F3,NE,100000000),OR,(F4,NE,-1000)),BEGIN
 00373A 4110 780C/4100_      03D7A 20129  1                      MWRITE 'STM FAILED'
 003748                            20138                       END
 003748 9011 8028            00000 20142                       STM   R1,R1,F1
 00374C D503 7756 8028_03CC4 00000 20143                       IF    ((F1,NE,-1),OR,(F2,NE,0)),BEGIN
 003760 4110 780C/4100_      03D7A 20178  1                      MWRITE 'STM FAILED'
 00376E                            20187                       END
 00376E 5860 774A            03CB8 20191                       L     R6,=F'-1'
 003772 41E0 007B            0007B 20192                       LA    R14,123
 003776 41F0 04D2            004D2 20193                       LA    R15,1234
 00377A 1856                       20194                       LR    R5,R6
 00377C 5020 8038            00010 20195                       ST    R2,BUF1+0
 003780 5030 803C            00014 20196                       ST    R3,BUF1+4
 003784 5040 8040            00018 20197                       ST    R4,BUF1+8
 003788 5050 8044            0001C 20198                       ST    R5,BUF1+12
 00378C 5060 8048            00020 20199                       ST    R6,BUF1+16
 003790 5070 804C            00024 20200                       ST    R7,BUF1+20
 003794 5080 8050            00028 20201                       ST    R8,BUF1+24
 003798 5090 8054            0002C 20202                       ST    R9,BUF1+28
 00379C 50A0 8058            00030 20203                       ST    R10,BUF1+32
 0037A0 50B0 805C            00034 20204                       ST    R11,BUF1+36
 0037A4 50C0 8060            00038 20205                       ST    R12,BUF1+40
 0037A8 50D0 8064            0003C 20206                       ST    R13,BUF1+44
 0037AC 50E0 8068            00040 20207                       ST    R14,BUF1+48
 0037B0 50F0 806C            00044 20208                       ST    R15,BUF1+52
 0037B4 5000 8070            00048 20209                       ST    R0,BUF1+56
 0037B8 5010 8074            0004C 20210                       ST    R1,BUF1+60
 0037BC 9021 8438            00410 20211                       STM   R2,R1,BUF2
1ITEST    (ITES2010) (12:47) (15MAR04) ITEST ROUTINES                                                                       Page   47
0Current Usings:  (*,R7) (ITESTWA-(4+36),R8) (CP,R11) (CV,R12)
0Loc    Object Code    Addr1 Addr2  Stmt Lv Lineno    Source Statement           (Hibal 5, Asmedit 3.3)  HLASM R4.0  2004/03/15 12.47
+___    ______ ____    _____ _____  ____ __ ______    ______ _________
00037C0 D53F 8038 8438 00010 00410 20212                       CLC   BUF1(64),BUF2
 0037C6 4780 726A            037D8 20213                       IF    NE,BEGIN
 0037CA 4110 780C/4100_      03D7A 20224  1                      MWRITE 'STM FAILED'
 0037D8                            20233                       END
                                   20237              * SR
                                   20238              * RESTRICTION SR, S, SH - COND CODE NOT SET PROPERLY FOR OVERFLOW
                                   20239              * RESTRICTION SR, S, SH - OFERFLOW NOT PROCESSED CORRECTLY
 0037D8 5810 77A6            03D14 20240                       L     R1,=F'1001000'
 0037DC 5820 77AA            03D18 20241                       L     R2,=F'1000'
 0037E0 1B12                       20242                       SR    R1,R2
 0037E2 47D0 7280/5910_      037EE 20243                       IF    (NP,OR,(R1,NE,1000000)),BEGIN
 0037EE 4110 7848/4100_      03DB6 20270  1                      MWRITE 'SR FAILED'
 0037FC                            20279                       END
 0037FC 5810 77B2            03D20 20283                       L     R1,=F'1'
 003800 5820 77B6            03D24 20284                       L     R2,=F'-2'
 003804 1B12                       20285                       SR    R1,R2
 003806 47D0 72A4/5910_      03812 20286                       IF    (NP,OR,(R1,NE,3)),BEGIN
 003812 4110 7848/4100_      03DB6 20313  1                      MWRITE 'SR FAILED'
 003820                            20322                       END
 003820 5810 774A            03CB8 20326                       L     R1,=F'-1'
 003824 5820 77BE            03D2C 20327                       L     R2,=F'2'
 003828 1B12                       20328                       SR    R1,R2
 00382A 47B0 72C8/5910_      03836 20329                       IF    (NL,OR,(R1,NE,-3)),BEGIN
 003836 4110 7848/4100_      03DB6 20355  1                      MWRITE 'SR FAILED'
 003844                            20364                       END
 003844 5810 77C6            03D34 20368                       L     R1,=F'4000011'
 003848 5820 77CA            03D38 20369                       L     R2,=F'-4000000'
 00384C 1B12                       20370                       SR    R1,R2
 00384E 47D0 72EC/5910_      0385A 20371                       IF    (NP,OR,(R1,NE,8000011)),BEGIN
 00385A 4110 7848/4100_      03DB6 20398  1                      MWRITE 'SR FAILED'
 003868                            20407                       END
 003868 5810 77C6            03D34 20411                       L     R1,=F'4000011'
 00386C 5820 77D2            03D40 20412                       L     R2,=F'8000011'
 003870 1B12                       20413                       SR    R1,R2
 003872 47B0 7310/5910_      0387E 20414                       IF    (NL,OR,(R1,NE,-4000000)),BEGIN
 00387E 4110 7848/4100_      03DB6 20440  1                      MWRITE 'SR FAILED'
 00388C                            20449                       END
 00388C 5810 77D2            03D40 20453                       L     R1,=F'8000011'
 003890 5820 77C6            03D34 20454                       L     R2,=F'4000011'
 003894 1B12                       20455                       SR    R1,R2
 003896 47D0 7334/5910_      038A2 20456                       IF    (NP,OR,(R1,NE,4000000)),BEGIN
 0038A2 4110 7848/4100_      03DB6 20483  1                      MWRITE 'SR FAILED'
 0038B0                            20492                       END
 0038B0 5810 77DE            03D4C 20496                       L     R1,=F'430030'
 0038B4 5820 77DE            03D4C 20497                       L     R2,=F'430030'
 0038B8 1B12                       20498                       SR    R1,R2
 0038BA 4770 7358/5910_      038C6 20499                       IF    (NZ,OR,(R1,NE,0)),BEGIN
 0038C6 4110 7848/4100_      03DB6 20526  1                      MWRITE 'SR FAILED'
 0038D4                            20535                       END
 0038D4 5810 77DE            03D4C 20539                       L     R1,=F'430030'
 0038D8 1B11                       20540                       SR    R1,R1
 0038DA 4770 7378/5910_      038E6 20541                       IF    (NZ,OR,(R1,NE,0)),BEGIN
 0038E6 4110 7848/4100_      03DB6 20568  1                      MWRITE 'SR FAILED'
 0038F4                            20577                       END
1ITEST    (ITES2010) (12:47) (15MAR04) ITEST ROUTINES                                                                       Page   48
0Current Usings:  (*,R7) (ITESTWA-(4+36),R8) (CP,R11) (CV,R12)
0Loc    Object Code    Addr1 Addr2  Stmt Lv Lineno    Source Statement           (Hibal 5, Asmedit 3.3)  HLASM R4.0  2004/03/15 12.47
+___    ______ ____    _____ _____  ____ __ ______    ______ _________
0                                  20581              * S
 0038F4 5810 77A6            03D14 20582                       L     R1,=F'1001000'
 0038F8 5B10 77AA            03D18 20583                       S     R1,=F'1000'
 0038FC 47D0 739A/5910_      03908 20584                       IF    (NP,OR,(R1,NE,1000000)),BEGIN
 003908 4110 7848/4100_      03DB6 20611  1                      MWRITE 'SR FAILED'
 003916                            20620                       END
 003916 5810 77B2            03D20 20624                       L     R1,=F'1'
 00391A 5B10 77B6            03D24 20625                       S     R1,=F'-2'
 00391E 47D0 73BC/5910_      0392A 20626                       IF    (NP,OR,(R1,NE,3)),BEGIN
 00392A 4110 7742/4100_      03CB0 20653  1                      MWRITE 'S FAILED'
 003938                            20662                       END
 003938 5810 774A            03CB8 20666                       L     R1,=F'-1'
 00393C 5B10 77BE            03D2C 20667                       S     R1,=F'2'
 003940 47B0 73DE/5910_      0394C 20668                       IF    (NL,OR,(R1,NE,-3)),BEGIN
 00394C 4110 7742/4100_      03CB0 20694  1                      MWRITE 'S FAILED'
 00395A                            20703                       END
 00395A 5810 77C6            03D34 20707                       L     R1,=F'4000011'
 00395E 5B10 77CA            03D38 20708                       S     R1,=F'-4000000'
 003962 47D0 7400/5910_      0396E 20709                       IF    (NP,OR,(R1,NE,8000011)),BEGIN
 00396E 4110 7742/4100_      03CB0 20736  1                      MWRITE 'S FAILED'
 00397C                            20745                       END
 00397C 5810 77C6            03D34 20749                       L     R1,=F'4000011'
 003980 5B10 77D2            03D40 20750                       S     R1,=F'8000011'
 003984 47B0 7422/5910_      03990 20751                       IF    (NL,OR,(R1,NE,-4000000)),BEGIN
 003990 4110 7742/4100_      03CB0 20777  1                      MWRITE 'S FAILED'
 00399E                            20786                       END
 00399E 5810 77D2            03D40 20790                       L     R1,=F'8000011'
 0039A2 5B10 77C6            03D34 20791                       S     R1,=F'4000011'
 0039A6 47D0 7444/5910_      039B2 20792                       IF    (NP,OR,(R1,NE,4000000)),BEGIN
 0039B2 4110 7742/4100_      03CB0 20819  1                      MWRITE 'S FAILED'
 0039C0                            20828                       END
 0039C0 5810 77DE            03D4C 20832                       L     R1,=F'430030'
 0039C4 5B10 77DE            03D4C 20833                       S     R1,=F'430030'
 0039C8 5910 77E2/4780_      03D50 20834                       IF    (R1,NE,0),BEGIN
 0039D0 4110 7742/4100_      03CB0 20851  1                      MWRITE 'S FAILED'
 0039DE                            20860                       END
                                   20864              * SH
 0039DE 4810 7816            03D84 20865                       LH    R1,=H'10100'
 0039E2 4B10 7818            03D86 20866                       SH    R1,=H'100'
 0039E6 47D0 7484/5910_      039F2 20867                       IF    (NP,OR,(R1,NE,10000)),BEGIN
 0039F2 4110 7851/4100_      03DBF 20894  1                      MWRITE 'SH FAILED'
 003A00                            20903                       END
 003A00 4810 781A            03D88 20907                       LH    R1,=H'1'
 003A04 4B10 781C            03D8A 20908                       SH    R1,=H'-2'
 003A08 47D0 74A6/5910_      03A14 20909                       IF    (NP,OR,(R1,NE,3)),BEGIN
 003A14 4110 7851/4100_      03DBF 20936  1                      MWRITE 'SH FAILED'
 003A22                            20945                       END
 003A22 4810 781E            03D8C 20949                       LH    R1,=H'-1'
 003A26 4B10 7820            03D8E 20950                       SH    R1,=H'2'
 003A2A 47B0 74C8/5910_      03A36 20951                       IF    (NL,OR,(R1,NE,-3)),BEGIN
 003A36 4110 7851/4100_      03DBF 20977  1                      MWRITE 'SH FAILED'
 003A44                            20986                       END
 003A44 4810 7822            03D90 20990                       LH    R1,=H'4011'
 003A48 4B10 7824            03D92 20991                       SH    R1,=H'-4000'
1ITEST    (ITES2010) (12:47) (15MAR04) ITEST ROUTINES                                                                       Page   49
0Current Usings:  (*,R7) (ITESTWA-(4+36),R8) (CP,R11) (CV,R12)
0Loc    Object Code    Addr1 Addr2  Stmt Lv Lineno    Source Statement           (Hibal 5, Asmedit 3.3)  HLASM R4.0  2004/03/15 12.47
+___    ______ ____    _____ _____  ____ __ ______    ______ _________
0003A4C 47D0 74EA/5910_      03A58 20992                       IF    (NP,OR,(R1,NE,8011)),BEGIN
 003A58 4110 7851/4100_      03DBF 21019  1                      MWRITE 'SH FAILED'
 003A66                            21028                       END
 003A66 4810 7822            03D90 21032                       LH    R1,=H'4011'
 003A6A 4B10 7826            03D94 21033                       SH    R1,=H'8011'
 003A6E 47B0 750C/5910_      03A7A 21034                       IF    (NL,OR,(R1,NE,-4000)),BEGIN
 003A7A 4110 7851/4100_      03DBF 21060  1                      MWRITE 'SH FAILED'
 003A88                            21069                       END
 003A88 4810 7826            03D94 21073                       LH    R1,=H'8011'
 003A8C 4B10 7822            03D90 21074                       SH    R1,=H'4011'
 003A90 47D0 752E/5910_      03A9C 21075                       IF    (NP,OR,(R1,NE,4000)),BEGIN
 003A9C 4110 7851/4100_      03DBF 21102  1                      MWRITE 'SH FAILED'
 003AAA                            21111                       END
 003AAA 4810 7828            03D96 21115                       LH    R1,=H'4330'
 003AAE 4B10 7828            03D96 21116                       SH    R1,=H'4330'
 003AB2 4770 7550/5910_      03ABE 21117                       IF    (NZ,OR,(R1,NE,0)),BEGIN
 003ABE 4110 7851/4100_      03DBF 21144  1                      MWRITE 'SH FAILED'
 003ACC                            21153                       END
                                   21157              * SLR
                                   21158              * RESTRICTION SLR - CONDITION CODE NOT SET
 003ACC 5810 77A6            03D14 21159                       L     R1,=F'1001000'
 003AD0 5820 77AA            03D18 21160                       L     R2,=F'1000'
 003AD4 1F12                       21161                       SLR   R1,R2
 003AD6 5910 77AE/4780_      03D1C 21162                       IF    (R1,NE,1000000),BEGIN
 003ADE 4110 782A/4100_      03D98 21179  1                      MWRITE 'SLR FAILED'
 003AEC                            21188                       END
 003AEC 5810 77B2            03D20 21192                       L     R1,=F'1'
 003AF0 5820 77B6            03D24 21193                       L     R2,=F'-2'
 003AF4 1F12                       21194                       SLR   R1,R2
 003AF6 5910 77BA/4780_      03D28 21195                       IF    (R1,NE,3),BEGIN
 003AFE 4110 782A/4100_      03D98 21212  1                      MWRITE 'SLR FAILED'
 003B0C                            21221                       END
 003B0C 5810 774A            03CB8 21225                       L     R1,=F'-1'
 003B10 5820 77BE            03D2C 21226                       L     R2,=F'2'
 003B14 1F12                       21227                       SLR   R1,R2
 003B16 5910 77C2/4780_      03D30 21228                       IF    (R1,NE,-3),BEGIN
 003B1E 4110 782A/4100_      03D98 21244  1                      MWRITE 'SLR FAILED'
 003B2C                            21253                       END
 003B2C 5810 77C6            03D34 21257                       L     R1,=F'4000011'
 003B30 5820 77CA            03D38 21258                       L     R2,=F'-4000000'
 003B34 1F12                       21259                       SLR   R1,R2
 003B36 5910 77CE/4780_      03D3C 21260                       IF    (R1,NE,8000011),BEGIN
 003B3E 4110 782A/4100_      03D98 21277  1                      MWRITE 'SLR FAILED'
 003B4C                            21286                       END
 003B4C 5810 77C6            03D34 21290                       L     R1,=F'4000011'
 003B50 5820 77D2            03D40 21291                       L     R2,=F'8000011'
 003B54 1F12                       21292                       SLR   R1,R2
 003B56 5910 77D6/4780_      03D44 21293                       IF    (R1,NE,-4000000),BEGIN
 003B5E 4110 782A/4100_      03D98 21309  1                      MWRITE 'SLR FAILED'
 003B6C                            21318                       END
 003B6C 5810 77D2            03D40 21322                       L     R1,=F'8000011'
 003B70 5820 77C6            03D34 21323                       L     R2,=F'4000011'
 003B74 1F12                       21324                       SLR   R1,R2
 003B76 5910 77DA/4780_      03D48 21325                       IF    (R1,NE,4000000),BEGIN
1ITEST    (ITES2010) (12:47) (15MAR04) ITEST ROUTINES                                                                       Page   50
0Current Usings:  (*,R7) (ITESTWA-(4+36),R8) (CP,R11) (CV,R12)
0Loc    Object Code    Addr1 Addr2  Stmt Lv Lineno    Source Statement           (Hibal 5, Asmedit 3.3)  HLASM R4.0  2004/03/15 12.47
+___    ______ ____    _____ _____  ____ __ ______    ______ _________
0003B7E 4110 782A/4100_      03D98 21342  1                      MWRITE 'SLR FAILED'
 003B8C                            21351                       END
 003B8C 5810 77DE            03D4C 21355                       L     R1,=F'430030'
 003B90 5820 77DE            03D4C 21356                       L     R2,=F'430030'
 003B94 1F12                       21357                       SLR   R1,R2
 003B96 5910 77E2/4780_      03D50 21358                       IF    (R1,NE,0),BEGIN
 003B9E 4110 782A/4100_      03D98 21375  1                      MWRITE 'SLR FAILED'
 003BAC                            21384                       END
 003BAC 5810 77DE            03D4C 21388                       L     R1,=F'430030'
 003BB0 1F11                       21389                       SLR   R1,R1
 003BB2 5910 77E2/4780_      03D50 21390                       IF    (R1,NE,0),BEGIN
 003BBA 4110 782A/4100_      03D98 21407  1                      MWRITE 'SLR FAILED'
 003BC8                            21416                       END
                                   21420              * SL
                                   21421              * RESTRICTION SL - CONDITION CODE NOT SET
 003BC8 5810 77A6            03D14 21422                       L     R1,=F'1001000'
 003BCC 5F10 77AA            03D18 21423                       SL    R1,=F'1000'
 003BD0 5910 77AE/4780_      03D1C 21424                       IF    (R1,NE,1000000),BEGIN
 003BD8 4110 785A/4100_      03DC8 21441  1                      MWRITE 'SL FAILED'
 003BE6                            21450                       END
 003BE6 5810 77B2            03D20 21454                       L     R1,=F'1'
 003BEA 5F10 77B6            03D24 21455                       SL    R1,=F'-2'
 003BEE 5910 77BA/4780_      03D28 21456                       IF    (R1,NE,3),BEGIN
 003BF6 4110 785A/4100_      03DC8 21473  1                      MWRITE 'SL FAILED'
 003C04                            21482                       END
 003C04 5810 774A            03CB8 21486                       L     R1,=F'-1'
 003C08 5F10 77BE            03D2C 21487                       SL    R1,=F'2'
 003C0C 5910 77C2/4780_      03D30 21488                       IF    (R1,NE,-3),BEGIN
 003C14 4110 785A/4100_      03DC8 21504  1                      MWRITE 'SL FAILED'
 003C22                            21513                       END
 003C22 5810 77C6            03D34 21517                       L     R1,=F'4000011'
 003C26 5F10 77CA            03D38 21518                       SL    R1,=F'-4000000'
 003C2A 5910 77CE/4780_      03D3C 21519                       IF    (R1,NE,8000011),BEGIN
 003C32 4110 785A/4100_      03DC8 21536  1                      MWRITE 'SL FAILED'
 003C40                            21545                       END
 003C40 5810 77C6            03D34 21549                       L     R1,=F'4000011'
 003C44 5F10 77D2            03D40 21550                       SL    R1,=F'8000011'
 003C48 5910 77D6/4780_      03D44 21551                       IF    (R1,NE,-4000000),BEGIN
 003C50 4110 785A/4100_      03DC8 21567  1                      MWRITE 'SL FAILED'
 003C5E                            21576                       END
 003C5E 5810 77D2            03D40 21580                       L     R1,=F'8000011'
 003C62 5F10 77C6            03D34 21581                       SL    R1,=F'4000011'
 003C66 5910 77DA/4780_      03D48 21582                       IF    (R1,NE,4000000),BEGIN
 003C6E 4110 785A/4100_      03DC8 21599  1                      MWRITE 'SL FAILED'
 003C7C                            21608                       END
 003C7C 5810 77DE            03D4C 21612                       L     R1,=F'430030'
 003C80 5F10 77DE            03D4C 21613                       SL    R1,=F'430030'
 003C84 5910 77E2/4780_      03D50 21614                       IF    (R1,NE,0),BEGIN
 003C8C 4110 785A/4100_      03DC8 21631  1                      MWRITE 'SL FAILED'
 003C9A                            21640                       END
                                   21644
 003C9A 18D8/9808 D004_            21645                       PEND
 DROP   ITESTWA-(4+36),R8
 DROP   *,R7
1ITEST    (ITES2010) (12:47) (15MAR04) ITEST ROUTINES                                                                       Page   51
0Current Usings:  (CP,R11) (CV,R12)
0Loc    Object Code    Addr1 Addr2  Stmt Lv Lineno    Source Statement           (Hibal 5, Asmedit 3.3)  HLASM R4.0  2004/03/15 12.47
+___    ______ ____    _____ _____  ____ __ ______    ______ _________
0                                  21670
                                   21671                       QLTORG
                                   21748              *
                                   21749              *
 003DD2 50E0 D000/9008_      00000 21750              DOTEST10 PROC  ITESTWA
 USING  *,R7
 USING  ITESTWA-(4+36),R8
                                   21800              *
                                   21801              * TS
                                   21802              * RESTRICTIONS TS - NOT ALLOWED
0                                  21804              * TM
                                   21805              * RESTRICTION TM - CC FLAG BITS SET DO NOT MATCH IBM. BUT ALL TESTS
                                   21806              * RESTRICTION TM - AFTER A TM SHOULD WORK.  MIXED LOGIC SHOULD BE OK
                                   21807              * RESTRICTION TM - NOW BUT WAS ONCE FLAKEY.
                                   21808              *
 003DEC 5810 7584            04370 21809                       L     R1,=X'00000000'
 003DF0 5010 8028            00000 21810                       ST    R1,F1
 003DF4 5820 7588            04374 21811                       L     R2,=X'0F000000'
 003DF8 5020 802C            00004 21812                       ST    R2,F2
 003DFC 910F 802C      00004       21813                       TM    F2,X'0F'
 003E00 4710 7026            03E12 21814                       IF    NO,BEGIN
 003E04 4110 7612/4100_      043FE 21825  1                      MWRITE 'TM FAILED'
 003E12                            21834                       END
 003E12 9113 802C      00004       21838                       TM    F2,X'13'
 003E16 4740 703C            03E28 21839                       IF    NM,BEGIN
 003E1A 4110 7612/4100_      043FE 21850  1                      MWRITE 'TM FAILED'
 003E28                            21859                       END
 003E28 91F0 802C      00004       21863                       TM    F2,X'F0'
 003E2C 4780 7052            03E3E 21864                       IF    NZ,BEGIN
 003E30 4110 7612/4100_      043FE 21875  1                      MWRITE 'TM FAILED'
 003E3E                            21884                       END
 003E3E 9100 802C      00004       21888                       TM    F2,X'00'
 003E42 4780 7068            03E54 21889                       IF    NZ,BEGIN
 003E46 4110 7612/4100_      043FE 21900  1                      MWRITE 'TM FAILED'
 003E54                            21909                       END
 003E54 5810 7590            0437C 21913                       L     R1,=X'FFFFFFFF'
 003E58 5010 8028            00000 21914                       ST    R1,F1
 003E5C 5820 7594            04380 21915                       L     R2,=X'F0FFFFFF'
 003E60 5020 802C            00004 21916                       ST    R2,F2
 003E64 91F0 802C      00004       21917                       TM    F2,X'F0'
 003E68 4710 708E            03E7A 21918                       IF    NO,BEGIN
 003E6C 4110 7612/4100_      043FE 21929  1                      MWRITE 'TM FAILED'
 003E7A                            21938                       END
 003E7A 91F0 802C      00004       21942                       TM    F2,X'F0'
 003E7E 4770 70A4            03E90 21943                       IF    Z,BEGIN
 003E82 4110 7612/4100_      043FE 21954  1                      MWRITE 'TM FAILED'
 003E90                            21963                       END
 003E90 91F0 802C      00004       21967                       TM    F2,X'F0'
 003E94 47B0 70BA            03EA6 21968                       IF    M,BEGIN
 003E98 4110 7612/4100_      043FE 21979  1                      MWRITE 'TM FAILED'
 003EA6                            21988                       END
 003EA6 910F 802C      00004       21992                       TM    F2,X'0F'
 003EAA 47B0 70D0            03EBC 21993                       IF    M,BEGIN
1ITEST    (ITES2010) (12:47) (15MAR04) ITEST ROUTINES                                                                       Page   52
0Current Usings:  (*,R7) (ITESTWA-(4+36),R8) (CP,R11) (CV,R12)
0Loc    Object Code    Addr1 Addr2  Stmt Lv Lineno    Source Statement           (Hibal 5, Asmedit 3.3)  HLASM R4.0  2004/03/15 12.47
+___    ______ ____    _____ _____  ____ __ ______    ______ _________
0003EAE 4110 7612/4100_      043FE 22004  1                      MWRITE 'TM FAILED'
 003EBC                            22013                       END
 003EBC 9131 802C      00004       22017                       TM    F2,X'31'
 003EC0 4740 70E6            03ED2 22018                       IF    NM,BEGIN
 003EC4 4110 7612/4100_      043FE 22029  1                      MWRITE 'TM FAILED'
 003ED2                            22038                       END
 003ED2 910F 802C      00004       22042                       TM    F2,X'0F'
 003ED6 4780 70FC            03EE8 22043                       IF    NZ,BEGIN
 003EDA 4110 7612/4100_      043FE 22054  1                      MWRITE 'TM FAILED'
 003EE8                            22063                       END
 003EE8 9100 802C      00004       22067                       TM    F2,X'00'
 003EEC 4780 7112            03EFE 22068                       IF    NZ,BEGIN
 003EF0 4110 7612/4100_      043FE 22079  1                      MWRITE 'TM FAILED'
 003EFE                            22088                       END
 003EFE 5810 7590            0437C 22092                       L     R1,=X'FFFFFFFF'
 003F02 5010 8028            00000 22093                       ST    R1,F1
 003F06 5820 7594            04380 22094                       L     R2,=X'F0FFFFFF'
 003F0A 5020 802C            00004 22095                       ST    R2,F2
 003F0E 91C0 802C      00004       22096                       TM    F2,X'C0'
 003F12 47E0 712A            03F16 22097                       IF    O,BEGIN
 003F16                            22108                       END
 003F16 712E/47F0 713C 03F16 03F14 22112                       ELSE  BEGIN
 003F1A 4110 7612/4100_      043FE 22123  1                      MWRITE 'TM FAILED'
 003F28                            22132                       END
 003F28 9180 802C      00004       22136                       TM    F2,X'80'
 003F2C 4710 7152            03F3E 22137                       IF    NO,BEGIN
 003F30 4110 7612/4100_      043FE 22148  1                      MWRITE 'TM FAILED'
 003F3E                            22157                       END
 003F3E 9111 802C      00004       22161                       TM    F2,X'11'
 003F42 47B0 715A            03F46 22162                       IF    M,BEGIN
 003F46                            22173                       END
 003F46 715E/47F0 716C 03F46 03F44 22177                       ELSE  BEGIN
 003F4A 4110 7612/4100_      043FE 22188  1                      MWRITE 'TM FAILED'
 003F58                            22197                       END
 003F58 9101 802C      00004       22201                       TM    F2,X'01'
 003F5C 4780 7182            03F6E 22202                       IF    NZ,BEGIN
 003F60 4110 7612/4100_      043FE 22213  1                      MWRITE 'TM FAILED'
 003F6E                            22222                       END
                                   22226              * TR
 003F6E D20F 8038 7534 00010 04320 22227                       MVC   BUF1(16),=CL16'0123456789ABCDEF'
 003F74 D2EF 8048 8038 00020 00010 22228                       MVC   BUF1+16(256-16),BUF1
 003F7A D209 8438 75D4 00410 043C0 22229                       MVC   BUF2(10),=XL10'00010203040506070809'
 003F80 D209 8442 75DE 0041A 043CA 22230                       MVC   BUF2+10(10),=XL10'0A0B0C0D0E0F10111213'
 003F86 DC0F 8438 8038 00410 00010 22231                       TR    BUF2(16),BUF1
 003F8C D50F 8438 7534 00410 04320 22232                       CLC   BUF2(16),=CL16'0123456789ABCDEF'
 003F92 4780 71B8            03FA4 22233                       IF    NE,BEGIN
 003F96 4110 761B/4100_      04407 22244  1                      MWRITE 'TR FAILED'
 003FA4                            22253                       END
 003FA4 D503 8448 7598 00420 04384 22257                       CLC   BUF2+16(4),=XL4'10111213'
 003FAA 4780 71D0            03FBC 22258                       IF    NE,BEGIN
 003FAE 4110 761B/4100_      04407 22269  1                      MWRITE 'TR FAILED'
 003FBC                            22278                       END
 003FBC D209 8438 75E8 00410 043D4 22282                       MVC   BUF2(10),=XL10'40414243444546474849'
 003FC2 D209 8442 75F2 0041A 043DE 22283                       MVC   BUF2+10(10),=XL10'CACBCCCDCECFC0C1C2C3'
1ITEST    (ITES2010) (12:47) (15MAR04) ITEST ROUTINES                                                                       Page   53
0Current Usings:  (*,R7) (ITESTWA-(4+36),R8) (CP,R11) (CV,R12)
0Loc    Object Code    Addr1 Addr2  Stmt Lv Lineno    Source Statement           (Hibal 5, Asmedit 3.3)  HLASM R4.0  2004/03/15 12.47
+___    ______ ____    _____ _____  ____ __ ______    ______ _________
0003FC8 DC0F 8438 8038 00410 00010 22284                       TR    BUF2(16),BUF1
 003FCE D50F 8438 7534 00410 04320 22285                       CLC   BUF2(16),=CL16'0123456789ABCDEF'
 003FD4 4780 71FA            03FE6 22286                       IF    NE,BEGIN
 003FD8 4110 761B/4100_      04407 22297  1                      MWRITE 'TR FAILED'
 003FE6                            22306                       END
 003FE6 D503 8448 759C 00420 04388 22310                       CLC   BUF2+16(4),=XL4'C0C1C2C3'
 003FEC 4780 7212            03FFE 22311                       IF    NE,BEGIN
 003FF0 4110 761B/4100_      04407 22322  1                      MWRITE 'TR FAILED'
 003FFE                            22331                       END
 003FFE D209 8438 75E8 00410 043D4 22335                       MVC   BUF2(10),=XL10'40414243444546474849'
 004004 D209 8442 75F2 0041A 043DE 22336                       MVC   BUF2+10(10),=XL10'CACBCCCDCECFC0C1C2C3'
 00400A 4150 0210            00210 22337                       LA    R5,X'0210'
 00400E 0650/4450 763C_            22338                       DEX   R5,' TR    BUF2(0),BUF1  '
 004014 D50F 8438 7534 00410 04320 22357                       CLC   BUF2(16),=CL16'0123456789ABCDEF'
 00401A 4780 7240            0402C 22358                       IF    NE,BEGIN
 00401E 4110 75A0/4100_      0438C 22369  1                      MWRITE 'EX TR FAILED'
 00402C                            22378                       END
 00402C D503 8448 759C 00420 04388 22382                       CLC   BUF2+16(4),=XL4'C0C1C2C3'
 004032 4780 7258            04044 22383                       IF    NE,BEGIN
 004036 4110 75A0/4100_      0438C 22394  1                      MWRITE 'EX TR FAILED'
 004044                            22403                       END
                                   22407              * TRT
 004044 5800 75AC            04398 22408                       L     R0,=F'1234'
 004048 5810 75B0            0439C 22409                       L     R1,=F'2345'
 00404C 5820 75B4            043A0 22410                       L     R2,=F'3456'
 004050 9200 8038      00010       22411                       MVI   BUF1,X'00'
 004054 D2FE 8039 8038 00011 00010 22412                       MVC   BUF1+1(255),BUF1
 00405A D209 8128 75FC 00100 043E8 22413                       MVC   BUF1+C'0'(10),=CL10'0123456789'
 004060 D2FF 8138 8038 00110 00010 22414                       MVC   BUF1+256(256),BUF1
 004066 9200 8438      00410       22415                       MVI   BUF2,X'00'
 00406A D2FE 8439 8438 00411 00410 22416                       MVC   BUF2+1(255),BUF2
 004070 D20F 8438 7544 00410 04330 22417                       MVC   BUF2(16),=CL16'AAABAAABCCCDXXXZ'
 004076 D2FF 8538 8438 00510 00410 22418                       MVC   BUF2+256(256),BUF2
 00407C DD0F 8438 8038 00410 00010 22419                       TRT   BUF2(16),BUF1
 004082 4770 72AA/5900_      04096 22420                       IF    (NZ,OR,(R0,NE,1234),OR,(R1,NE,2345)),BEGIN
 004096 4110 7606/4100_      043F2 22461  1                      MWRITE 'TRT FAILED'
 0040A4                            22470                       END
 0040A4 5920 75C0/4780_      043AC 22474                       IF    (R2,NE,3456),BEGIN
 0040AC 4110 7606/4100_      043F2 22491  1                      MWRITE 'TRT FAILED'
 0040BA                            22500                       END
 0040BA D5FF 8038 8138 00010 00110 22504                       CLC   BUF1(256),BUF1+256
 0040C0 4780 72E6            040D2 22505                       IF    NE,BEGIN
 0040C4 4110 7606/4100_      043F2 22516  1                      MWRITE 'TRT FAILED'
 0040D2                            22525                       END
 0040D2 D5FF 8438 8538 00410 00510 22529                       CLC   BUF2(256),BUF2+256
 0040D8 4780 72FE            040EA 22530                       IF    NE,BEGIN
 0040DC 4110 7606/4100_      043F2 22541  1                      MWRITE 'TRT FAILED'
 0040EA                            22550                       END
 0040EA 5800 75AC            04398 22554                       L     R0,=F'1234'
 0040EE 5810 75B0            0439C 22555                       L     R1,=F'2345'
 0040F2 5820 75C4            043B0 22556                       L     R2,=X'0000F00F'
 0040F6 4130 8440            00418 22557                       LA    R3,BUF2+8
 0040FA 9200 8038      00010       22558                       MVI   BUF1,X'00'
 0040FE D2FE 8039 8038 00011 00010 22559                       MVC   BUF1+1(255),BUF1
1ITEST    (ITES2010) (12:47) (15MAR04) ITEST ROUTINES                                                                       Page   54
0Current Usings:  (*,R7) (ITESTWA-(4+36),R8) (CP,R11) (CV,R12)
0Loc    Object Code    Addr1 Addr2  Stmt Lv Lineno    Source Statement           (Hibal 5, Asmedit 3.3)  HLASM R4.0  2004/03/15 12.47
+___    ______ ____    _____ _____  ____ __ ______    ______ _________
0004104 D209 8128 75FC 00100 043E8 22560                       MVC   BUF1+C'0'(10),=CL10'0123456789'
 00410A D2FF 8138 8038 00110 00010 22561                       MVC   BUF1+256(256),BUF1
 004110 9200 8438      00410       22562                       MVI   BUF2,X'00'
 004114 D2FE 8439 8438 00411 00410 22563                       MVC   BUF2+1(255),BUF2
 00411A D20F 8438 7554 00410 04340 22564                       MVC   BUF2(16),=CL16'AAABAAAB11111111'
 004120 D2FF 8538 8438 00510 00410 22565                       MVC   BUF2+256(256),BUF2
 004126 DD0F 8438 8038 00410 00010 22566                       TRT   BUF2(16),BUF1
 00412C 47B0 7352/5900_      0413E 22567                       IF    (NL,OR,(R0,NE,1234),OR,(R1,NE,R3)),BEGIN
 00413E 4110 7606/4100_      043F2 22606  1                      MWRITE 'TRT FAILED'
 00414C                            22615                       END
 00414C 5920 75C8/4780_      043B4 22619                       IF    (R2,NE,X'0000F0F1'),BEGIN
 004154 4110 7606/4100_      043F2 22636  1                      MWRITE 'TRT FAILED'
 004162                            22645                       END
 004162 D5FF 8038 8138 00010 00110 22649                       CLC   BUF1(256),BUF1+256
 004168 4780 738E            0417A 22650                       IF    NE,BEGIN
 00416C 4110 7606/4100_      043F2 22661  1                      MWRITE 'TRT FAILED'
 00417A                            22670                       END
 00417A D5FF 8438 8538 00410 00510 22674                       CLC   BUF2(256),BUF2+256
 004180 4780 73A6            04192 22675                       IF    NE,BEGIN
 004184 4110 7606/4100_      043F2 22686  1                      MWRITE 'TRT FAILED'
 004192                            22695                       END
 004192 5800 75AC            04398 22699                       L     R0,=F'1234'
 004196 5810 75B0            0439C 22700                       L     R1,=F'2345'
 00419A 5820 75CC            043B8 22701                       L     R2,=X'00F0000F'
 00419E 4130 8447            0041F 22702                       LA    R3,BUF2+15
 0041A2 9200 8038      00010       22703                       MVI   BUF1,X'00'
 0041A6 D2FE 8039 8038 00011 00010 22704                       MVC   BUF1+1(255),BUF1
 0041AC D209 8128 75FC 00100 043E8 22705                       MVC   BUF1+C'0'(10),=CL10'0123456789'
 0041B2 D2FF 8138 8038 00110 00010 22706                       MVC   BUF1+256(256),BUF1
 0041B8 9200 8438      00410       22707                       MVI   BUF2,X'00'
 0041BC D2FE 8439 8438 00411 00410 22708                       MVC   BUF2+1(255),BUF2
 0041C2 D20F 8438 7564 00410 04350 22709                       MVC   BUF2(16),=CL16'AAABAAAB   XYYY9'
 0041C8 D2FF 8538 8438 00510 00410 22710                       MVC   BUF2+256(256),BUF2
 0041CE DD0F 8438 8038 00410 00010 22711                       TRT   BUF2(16),BUF1
 0041D4 47D0 73FA/5900_      041E6 22712                       IF    (NH,OR,(R0,NE,1234),OR,(R1,NE,R3)),BEGIN
 0041E6 4110 7606/4100_      043F2 22751  1                      MWRITE 'TRT FAILED'
 0041F4                            22760                       END
 0041F4 5920 75D0/4780_      043BC 22764                       IF    (R2,NE,X'00F000F9'),BEGIN
 0041FC 4110 7606/4100_      043F2 22781  1                      MWRITE 'TRT FAILED'
 00420A                            22790                       END
 00420A D5FF 8038 8138 00010 00110 22794                       CLC   BUF1(256),BUF1+256
 004210 4780 7436            04222 22795                       IF    NE,BEGIN
 004214 4110 7606/4100_      043F2 22806  1                      MWRITE 'TRT FAILED'
 004222                            22815                       END
 004222 D5FF 8438 8538 00410 00510 22819                       CLC   BUF2(256),BUF2+256
 004228 4780 744E            0423A 22820                       IF    NE,BEGIN
 00422C 4110 7606/4100_      043F2 22831  1                      MWRITE 'TRT FAILED'
 00423A                            22840                       END
 00423A 5800 75AC            04398 22844                       L     R0,=F'1234'
 00423E 5810 75B0            0439C 22845                       L     R1,=F'2345'
 004242 5820 75C4            043B0 22846                       L     R2,=X'0000F00F'
 004246 4130 8440            00418 22847                       LA    R3,BUF2+8
 00424A 9200 8038      00010       22848                       MVI   BUF1,X'00'
 00424E D2FE 8039 8038 00011 00010 22849                       MVC   BUF1+1(255),BUF1
1ITEST    (ITES2010) (12:47) (15MAR04) ITEST ROUTINES                                                                       Page   55
0Current Usings:  (*,R7) (ITESTWA-(4+36),R8) (CP,R11) (CV,R12)
0Loc    Object Code    Addr1 Addr2  Stmt Lv Lineno    Source Statement           (Hibal 5, Asmedit 3.3)  HLASM R4.0  2004/03/15 12.47
+___    ______ ____    _____ _____  ____ __ ______    ______ _________
0004254 D209 8128 75FC 00100 043E8 22850                       MVC   BUF1+C'0'(10),=CL10'0123456789'
 00425A D2FF 8138 8038 00110 00010 22851                       MVC   BUF1+256(256),BUF1
 004260 9200 8438      00410       22852                       MVI   BUF2,X'00'
 004264 D2FE 8439 8438 00411 00410 22853                       MVC   BUF2+1(255),BUF2
 00426A D20F 8438 7554 00410 04340 22854                       MVC   BUF2(16),=CL16'AAABAAAB11111111'
 004270 D2FF 8538 8438 00510 00410 22855                       MVC   BUF2+256(256),BUF2
 004276 4150 0010            00010 22856                       LA    R5,16
 00427A 1255                       22857                       LTR   R5,R5
 00427C 0650/4450 7642_            22858                       DEX   R5,' TRT   BUF2(0),BUF1 '
 004282 47B0 74A8/5900_      04294 22877                       IF    (NL,OR,(R0,NE,1234),OR,(R1,NE,R3)),BEGIN
 004294 4110 7624/4100_      04410 22916  1                      MWRITE 'EX TRT FAILED'
 0042A2                            22925                       END
 0042A2 5920 75C8/4780_      043B4 22929                       IF    (R2,NE,X'0000F0F1'),BEGIN
 0042AA 4110 7624/4100_      04410 22946  1                      MWRITE 'EX TRT FAILED'
 0042B8                            22955                       END
 0042B8 D5FF 8038 8138 00010 00110 22959                       CLC   BUF1(256),BUF1+256
 0042BE 4780 74E4            042D0 22960                       IF    NE,BEGIN
 0042C2 4110 7624/4100_      04410 22971  1                      MWRITE 'EX TRT FAILED'
 0042D0                            22980                       END
 0042D0 D5FF 8438 8538 00410 00510 22984                       CLC   BUF2(256),BUF2+256
 0042D6 4780 74FC            042E8 22985                       IF    NE,BEGIN
 0042DA 4110 7624/4100_      04410 22996  1                      MWRITE 'EX TRT FAILED'
 0042E8                            23005                       END
                                   23009              * UNPK   (FROM POPS)
 0042E8 D207 8038 7574 00010 04360 23010                       MVC   BUF1(8),=XL8'0000000000000000'
 0042EE D201 8438 7610 00410 043FC 23011                       MVC   BUF2(2),=XL2'123D'
 0042F4 F341 8038 8438 00010 00410 23012                       UNPK BUF1(5),BUF2(2)
 0042FA D507 8038 757C 00010 04368 23013                       CLC   BUF1(8),=XL8'F0F0F1F2D3000000'
 004300 4780 7526            04312 23014                       IF    NE,BEGIN
 004304 4110 7631/4100_      0441D 23025  1                      MWRITE 'UNPK FAILED'
 004312                            23034                       END
                                   23038
 004312 18D8/9808 D004_            23039                       PEND
 DROP   ITESTWA-(4+36),R8
 DROP   *,R7
                                   23064
                                   23065                       QLTORG
                                   23112              *
                                   23113              *
 004434 50E0 D000/9008_      00000 23114              DOTEST11 PROC  ITESTWA
 USING  *,R7
 USING  ITESTWA-(4+36),R8
                                   23164              *
                                   23165              *
 00444E 18D8/9808 D004_            23166                       PEND
 DROP   ITESTWA-(4+36),R8
 DROP   *,R7
                                   23191
                                   23192                       QLTORG
                                   23204              *
                                   23205              *
 004460 50E0 D000/9008_      00000 23206              DOTEST12 PROC  ITESTWA
 USING  *,R7
 USING  ITESTWA-(4+36),R8
1ITEST    (ITES2010) (12:47) (15MAR04) ITEST ROUTINES                                                                       Page   56
0Current Usings:  (*,R7) (ITESTWA-(4+36),R8) (CP,R11) (CV,R12)
0Loc    Object Code    Addr1 Addr2  Stmt Lv Lineno    Source Statement           (Hibal 5, Asmedit 3.3)  HLASM R4.0  2004/03/15 12.47
+___    ______ ____    _____ _____  ____ __ ______    ______ _________
0                                  23256              *
                                   23257              *
 00447A 18D8/9808 D004_            23258                       PEND
 DROP   ITESTWA-(4+36),R8
 DROP   *,R7
                                   23283
                                   23284                       QLTORG
                                   23296
 004488                04488 04488 23297                       END   .

1ITEST    (ITES2010) (12:47) (15MAR04) Relocation Dictionary                                                                Page   57
-   Pos.Id   Rel.Id   Flags    Address                                                       HLASM R4.0  2004/03/15 12.47
0  00000001 00000001    0C    000001E4
   00000001 00000001    0C    000001F0
   00000001 00000001    0C    00000204
   00000001 00000001    0C    00000208
   00000001 00000001    0C    0000020C
   00000001 00000001    0C    00000210
   00000001 00000001    0C    00000214
   00000001 00000001    0C    00000218
   00000001 00000001    0C    0000021C
   00000001 00000001    0C    00000220
   00000001 00000001    0C    00000224
   00000001 00000001    0C    00000228
   00000001 00000001    0C    0000022C
   00000001 00000001    0C    000008AC
   00000001 00000001    0C    00000B5C
   00000001 00000001    0C    000014A0
   00000001 00000001    0C    00001DE4
   00000001 00000001    0C    00002498
   00000001 00000001    0C    000028F4
   00000001 00000001    0C    00002C84
   00000001 00000001    0C    00003410
   00000001 00000001    0C    00003CCC
   00000001 00000001    0C    00004378
   00000001 00000002    1C    000001D8
   00000001 00000003    1C    000001DC
   00000001 00000004    1C    000001E0

1ITEST    (ITES2010) (12:47) (15MAR04) Ordinary Symbol and Literal Cross Reference                                          Page   58
-Symbol   Length   Value     Id    R Type   Defn References                                  HLASM R4.0  2004/03/15 12.47
0$$$@R0        1 00000000 FFFFFFFE     J     705  1007
 $$$@R10       1 00000000 FFFFFFF4     J     835  1071
 $$$@R11       1 00000000 FFFFFFF3     J     848  1084
 $$$@R12       1 00000000 FFFFFFF2     J     861  1097
 $$$@R13       1 00000000 FFFFFFF1     J     874  1110
 $$$@R14       1 00000000 FFFFFFF0     J     887  1123
 $$$@R7        1 00000000 FFFFFFF7     J     796  1020
 $$$@R8        1 00000000 FFFFFFF6     J     809  1033   1045
 $$$@R9        1 00000000 FFFFFFF5     J     822  1058
 $$$C1WYLITEST
               1 00000257 00000001     J    6927  6929
 $$$C10WYLITEST
               1 00003DD1 00000001     J   21743 21745  22355  22875
 $$$C11WYLITEST
               1 00004434 00000001     J   23107 23109
 $$$C12WYLITEST
               1 00004460 00000001     J   23199 23201
 $$$C13WYLITEST
               1 00004488 00000001     J   23291 23293
 $$$C14WYLITEST
               1 00004488 00000001     J   23300 23302
 $$$C2WYLITEST
               1 0000096C 00000001     J    8798  8800
 $$$C3WYLITEST
               1 00000BD7 00000001     J    9460  9462
 $$$C4WYLITEST
               1 000015FE 00000001     J   11846 11848  13289  13336  13382  13431  13486
 $$$C5WYLITEST
               1 00001FB0 00000001     J   14103 14105
 $$$C6WYLITEST
               1 0000253C 00000001     J   15713 15715
 $$$C7WYLITEST
               1 00002A19 00000001     J   16671 16673
 $$$C8WYLITEST
               1 00002CD6 00000001     J   17368 17370
 $$$C9WYLITEST
               1 00003554 00000001     J   19649 19651
 $$$D10WYLITEST
               1 00004428 00000001     J   21744 22344  22864
 $$$D4WYLITEST
               1 00001F92 00000001     J   11847 13278  13325  13371  13420  13475
 $$$RCP        1 00000000 FFFFFFEC     J    2454  4714   6188   6188
 $$$RCV        1 00000000 FFFFFFEE     J    1179  2364   2364
 $$$RDEV       1 00000000 FFFFFFEB     J    4668  4713   4713
 $$$RITESTWA
               1 00000000 FFFFFFE9     J    6567  6585   6585
 $$$RNSCNCB
               1 00000000 FFFFFFED     J    2375  2448   2448
 $$$RTTYPE
               1 00000000 FFFFFFEA     J    6199  6300   6300
 $$$SEGCB0
               4 00000050 FFFFFFEC     F    2485  2571   2571
 $$$Z9         4 00003CA8 00000001     F   21677 19757  20075  20172
 $$$100F       2 000005BC 00000001     H    7964  7947B
 $$$101F       2 000005DA 00000001     H    7995  7978B
1ITEST    (ITES2010) (12:47) (15MAR04) Ordinary Symbol and Literal Cross Reference                                          Page   59
 $$$102F       2 000005F8 00000001     H    8027  8010B
 $$$103F       2 00000616 00000001     H    8058  8041B
 $$$104F       2 00000634 00000001     H    8089  8072B
 $$$105F       2 00000652 00000001     H    8121  8104B
 $$$106F       2 00000676 00000001     H    8165  8148B
 $$$106T       2 00000668 00000001     H    8151  8136B
 $$$108F       2 0000069A 00000001     H    8208  8191B
 $$$108T       2 0000068C 00000001     H    8194  8179B
 $$$110F       2 000006BE 00000001     H    8251  8234B
 $$$110T       2 000006B0 00000001     H    8237  8222B
 $$$112F       2 000006E0 00000001     H    8294  8277B
 $$$112T       2 000006D2 00000001     H    8280  8265B
 $$$114F       2 00000702 00000001     H    8336  8319B
 $$$114T       2 000006F4 00000001     H    8322  8307B
 $$$116F       2 00000724 00000001     H    8378  8361B
 $$$116T       2 00000716 00000001     H    8364  8349B
 $$$118F       2 0000074A 00000001     H    8413  8396B
 $$$119F       2 00000778 00000001     H    8459  8442B
 $$$119T       2 0000076A 00000001     H    8445  8430B
 $$$121F       2 0000079E 00000001     H    8502  8485B
 $$$121T       2 00000790 00000001     H    8488  8473B
 $$$123F       2 000007C4 00000001     H    8545  8528B
 $$$123T       2 000007B6 00000001     H    8531  8516B
 $$$125F       2 00000800 00000001     H    8594  8577B
 $$$125T       2 000007F2 00000001     H    8580  8565B
 $$$127F       2 0000081A 00000001     H    8625  8608B
 $$$128F       2 0000084E 00000001     H    8671  8654B
 $$$128T       2 00000840 00000001     H    8657  8642B
 $$$130F       2 00000882 00000001     H    8717  8700B
 $$$130T       2 00000874 00000001     H    8703  8688B
 $$$132        1 00000860 00000001 A   U    8740  8737   8739
 $$$134B       1 00000986 00000001     X    8829  8836U
 $$$135F       2 000009A6 00000001     H    8918  8901B
 $$$136F       2 000009BE 00000001     H    8944  8927B
 $$$137F       2 000009D6 00000001     H    8970  8953B
 $$$138B       4 000009DC 00000001     I    8979  8990
 $$$138F       2 000009E0 00000001     H    8987  8979B  8989
 $$$139E       2 000009E4 00000001     H    8997  8991
 $$$139F       2 000009F2 00000001     H    9011  8993B
 $$$140B       4 000009F8 00000001     I    9020  9031
 $$$140F       2 000009FC 00000001     H    9028  9020B  9030
 $$$141E       2 00000A00 00000001     H    9038  9032
 $$$141F       2 00000A0E 00000001     H    9052  9034B
 $$$142B       4 00000A14 00000001     I    9061  9072
 $$$142F       2 00000A18 00000001     H    9069  9061B  9071
 $$$143E       2 00000A1C 00000001     H    9079  9073
 $$$143F       2 00000A2A 00000001     H    9093  9075B
 $$$144F       2 00000A46 00000001     H    9127  9110B
 $$$145F       2 00000A74 00000001     H    9181  9164B
 $$$145T       2 00000A66 00000001     H    9167  9152B
 $$$147F       2 00000AAE 00000001     H    9240  9223B
 $$$147T       2 00000AA0 00000001     H    9226  9211B
 $$$149F       2 00000AE0 00000001     H    9292  9275B
 $$$149T       2 00000AD2 00000001     H    9278  9264B
 $$$151F       2 00000B16 00000001     H    9348  9331B
 $$$151T       2 00000B08 00000001     H    9334  9319B
 $$$153F       2 00000B48 00000001     H    9401  9384B
 $$$153T       2 00000B3A 00000001     H    9387  9372B
 $$$155        1 00000860 00000001 A   U    9425  9422   9424
1ITEST    (ITES2010) (12:47) (15MAR04) Ordinary Symbol and Literal Cross Reference                                          Page   60
 $$$157B       1 00000BF2 00000001     X    9491  9498U
 $$$158F       2 00000C0E 00000001     H    9544  9527B
 $$$159F       2 00000C2A 00000001     H    9571  9554B
 $$$160F       2 00000C46 00000001     H    9598  9581B
 $$$161F       2 00000C62 00000001     H    9625  9608B
 $$$162F       2 00000C7E 00000001     H    9652  9635B
 $$$163F       2 00000C9A 00000001     H    9679  9662B
 $$$164F       2 00000CB6 00000001     H    9706  9689B
 $$$165F       2 00000CD0 00000001     H    9733  9716B
 $$$166F       2 00000CEA 00000001     H    9759  9742B
 $$$167F       2 00000D04 00000001     H    9785  9768B
 $$$168F       2 00000D1E 00000001     H    9811  9794B
 $$$169F       2 00000D38 00000001     H    9837  9820B
 $$$170F       2 00000D52 00000001     H    9863  9846B
 $$$171F       2 00000D6C 00000001     H    9889  9872B
 $$$172F       2 00000D86 00000001     H    9922  9905B
 $$$173F       2 00000DA0 00000001     H    9948  9931B
 $$$174F       2 00000DBA 00000001     H    9974  9957B
 $$$175F       2 00000DD4 00000001     H   10000  9983B
 $$$176F       2 00000DEE 00000001     H   10026 10009B
 $$$177F       2 00000E08 00000001     H   10052 10035B
 $$$178F       2 00000E22 00000001     H   10078 10061B
 $$$179F       2 00000E3E 00000001     H   10106 10089B
 $$$180F       2 00000E5A 00000001     H   10133 10116B
 $$$181F       2 00000E76 00000001     H   10160 10143B
 $$$182F       2 00000E92 00000001     H   10187 10170B
 $$$183F       2 00000EAE 00000001     H   10214 10197B
 $$$184F       2 00000ECA 00000001     H   10241 10224B
 $$$185F       2 00000EE6 00000001     H   10268 10251B
 $$$186F       2 00000F00 00000001     H   10295 10278B
 $$$187F       2 00000F1A 00000001     H   10321 10304B
 $$$188F       2 00000F34 00000001     H   10347 10330B
 $$$189F       2 00000F4E 00000001     H   10373 10356B
 $$$190F       2 00000F68 00000001     H   10399 10382B
 $$$191F       2 00000F82 00000001     H   10425 10408B
 $$$192F       2 00000F9C 00000001     H   10451 10434B
 $$$193F       2 00000FBE 00000001     H   10480 10463B
 $$$194F       2 00000FD8 00000001     H   10506 10489B
 $$$195F       2 00000FF2 00000001     H   10532 10515B
 $$$196F       2 0000100C 00000001     H   10558 10541B
 $$$197F       2 00001026 00000001     H   10584 10567B
 $$$198F       2 00001040 00000001     H   10610 10593B
 $$$199F       2 00001068 00000001     H   10643 10626B
 $$$200F       2 0000108C 00000001     H   10671 10654B
 $$$201F       2 000010A4 00000001     H   10696 10679B
 $$$202F       2 000010BC 00000001     H   10721 10704B
 $$$203F       2 000010D4 00000001     H   10746 10729B
 $$$204F       2 000010EC 00000001     H   10771 10754B
 $$$205F       2 00001112 00000001     H   10801 10784B
 $$$206F       2 00001128 00000001     H   10826 10809B
 $$$207F       2 0000113E 00000001     H   10851 10834B
 $$$208F       2 00001164 00000001     H   10880 10863B
 $$$209F       2 0000117A 00000001     H   10905 10888B
 $$$210F       2 00001190 00000001     H   10930 10913B
 $$$211F       2 000011A6 00000001     H   10955 10938B
 $$$212F       2 000011E6 00000001     H   11017 11000B
 $$$212T       2 000011D8 00000001     H   11003 10974B 10988B
 $$$215F       2 00001208 00000001     H   11061 11044B
 $$$215T       2 000011FA 00000001     H   11047 11034B
1ITEST    (ITES2010) (12:47) (15MAR04) Ordinary Symbol and Literal Cross Reference                                          Page   61
 $$$217F       2 00001240 00000001     H   11121 11104B
 $$$217T       2 00001232 00000001     H   11107 11078B 11092B
 $$$220F       2 00001262 00000001     H   11165 11148B
 $$$220T       2 00001254 00000001     H   11151 11138B
 $$$222F       2 0000129A 00000001     H   11225 11208B
 $$$222T       2 0000128C 00000001     H   11211 11182B 11196B
 $$$225F       2 000012BC 00000001     H   11269 11252B
 $$$225T       2 000012AE 00000001     H   11255 11242B
 $$$227F       2 000012FC 00000001     H   11330 11313B
 $$$227T       2 000012EE 00000001     H   11316 11287B 11301B
 $$$230F       2 0000131E 00000001     H   11374 11357B
 $$$230T       2 00001310 00000001     H   11360 11347B
 $$$232F       2 00001352 00000001     H   11433 11416B
 $$$232T       2 00001344 00000001     H   11419 11390B 11404B
 $$$235F       2 00001374 00000001     H   11477 11460B
 $$$235T       2 00001366 00000001     H   11463 11450B
 $$$237F       2 000013AC 00000001     H   11537 11520B
 $$$237T       2 0000139E 00000001     H   11523 11494B 11508B
 $$$240F       2 000013CE 00000001     H   11581 11564B
 $$$240T       2 000013C0 00000001     H   11567 11554B
 $$$242F       2 000013F8 00000001     H   11617 11600B
 $$$243F       2 00001422 00000001     H   11651 11634B
 $$$244F       2 00001450 00000001     H   11702 11685B
 $$$244T       2 00001442 00000001     H   11688 11673B
 $$$246F       2 0000147E 00000001     H   11752 11735B
 $$$246T       2 00001470 00000001     H   11738 11723B
 $$$248        1 00000860 00000001 A   U   11775 11772  11774
 $$$250B       1 00001618 00000001     X   11877 11884U
 $$$251F       2 00001644 00000001     H   11955 11938B
 $$$251T       2 00001636 00000001     H   11941 11926B
 $$$253F       2 00001670 00000001     H   12005 11988B
 $$$253T       2 00001662 00000001     H   11991 11976B
 $$$255F       2 0000169C 00000001     H   12055 12038B
 $$$255T       2 0000168E 00000001     H   12041 12026B
 $$$257F       2 000016C8 00000001     H   12104 12087B
 $$$257T       2 000016BA 00000001     H   12090 12076B
 $$$259F       2 000016F4 00000001     H   12154 12137B
 $$$259T       2 000016E6 00000001     H   12140 12125B
 $$$261F       2 0000171E 00000001     H   12206 12189B
 $$$261T       2 00001710 00000001     H   12192 12177B
 $$$263F       2 00001748 00000001     H   12255 12238B
 $$$263T       2 0000173A 00000001     H   12241 12226B
 $$$265F       2 00001772 00000001     H   12304 12287B
 $$$265T       2 00001764 00000001     H   12290 12275B
 $$$267F       2 0000179C 00000001     H   12352 12335B
 $$$267T       2 0000178E 00000001     H   12338 12324B
 $$$269F       2 000017C6 00000001     H   12401 12384B
 $$$269T       2 000017B8 00000001     H   12387 12372B
 $$$271F       2 000017EA 00000001     H   12430 12413B
 $$$272F       2 00001802 00000001     H   12455 12438B
 $$$273F       2 00001826 00000001     H   12482 12465B
 $$$274F       2 0000183E 00000001     H   12507 12490B
 $$$275F       2 00001866 00000001     H   12537 12520B
 $$$276F       2 00001884 00000001     H   12564 12547B
 $$$277F       2 000018AC 00000001     H   12592 12575B
 $$$278F       2 000018CA 00000001     H   12619 12602B
 $$$279F       2 000018EE 00000001     H   12663 12646B
 $$$279T       2 000018E0 00000001     H   12649 12634B
 $$$281F       2 00001912 00000001     H   12706 12689B
1ITEST    (ITES2010) (12:47) (15MAR04) Ordinary Symbol and Literal Cross Reference                                          Page   62
 $$$281T       2 00001904 00000001     H   12692 12677B
 $$$283F       2 00001936 00000001     H   12749 12732B
 $$$283T       2 00001928 00000001     H   12735 12720B
 $$$285F       2 0000195A 00000001     H   12792 12775B
 $$$285T       2 0000194C 00000001     H   12778 12763B
 $$$287F       2 0000197C 00000001     H   12835 12818B
 $$$287T       2 0000196E 00000001     H   12821 12806B
 $$$289F       2 0000199E 00000001     H   12877 12860B
 $$$289T       2 00001990 00000001     H   12863 12848B
 $$$291F       2 000019C0 00000001     H   12919 12902B
 $$$291T       2 000019B2 00000001     H   12905 12890B
 $$$293F       2 000019E2 00000001     H   12961 12944B
 $$$293T       2 000019D4 00000001     H   12947 12932B
 $$$295F       2 00001A10 00000001     H   13007 12990B
 $$$295T       2 00001A02 00000001     H   12993 12978B
 $$$297F       2 00001A36 00000001     H   13050 13033B
 $$$297T       2 00001A28 00000001     H   13036 13021B
 $$$299F       2 00001A5C 00000001     H   13093 13076B
 $$$299T       2 00001A4E 00000001     H   13079 13064B
 $$$301F       2 00001A98 00000001     H   13142 13125B
 $$$301T       2 00001A8A 00000001     H   13128 13113B
 $$$303F       2 00001AB2 00000001     H   13173 13156B
 $$$304F       2 00001AE6 00000001     H   13219 13202B
 $$$304T       2 00001AD8 00000001     H   13205 13190B
 $$$306F       2 00001B1A 00000001     H   13265 13248B
 $$$306T       2 00001B0C 00000001     H   13251 13236B
 $$$308        6 00001F92 00000001     I   13284 13276X
 $$$309        6 00001F92 00000001     I   13283 13284  13284
 $$$310F       2 00001B48 00000001     H   13315 13298B
 $$$311        6 00001F98 00000001     I   13331 13323X
 $$$312        6 00001F98 00000001     I   13330 13331  13331
 $$$313F       2 00001B6C 00000001     H   13361 13344B
 $$$314        6 00001F9E 00000001     I   13377 13369X
 $$$315        6 00001F9E 00000001     I   13376 13377  13377
 $$$316F       2 00001B94 00000001     H   13408 13391B
 $$$317        6 00001FA4 00000001     I   13426 13418X
 $$$318        6 00001FA4 00000001     I   13425 13426  13426
 $$$319F       2 00001BC8 00000001     H   13463 13446B
 $$$320        6 00001FAA 00000001     I   13481 13473X
 $$$321        6 00001FAA 00000001     I   13480 13481  13481
 $$$322F       2 00001BFC 00000001     H   13518 13501B
 $$$323F       2 00001C1E 00000001     H   13552 13535B
 $$$324F       2 00001C40 00000001     H   13585 13568B
 $$$325F       2 00001C62 00000001     H   13618 13601B
 $$$326F       2 00001C84 00000001     H   13651 13634B
 $$$327F       2 00001CAE 00000001     H   13696 13679B
 $$$327T       2 00001CA0 00000001     H   13682 13667B
 $$$329F       2 00001CD0 00000001     H   13738 13721B
 $$$329T       2 00001CC2 00000001     H   13724 13709B
 $$$331F       2 00001CF2 00000001     H   13780 13763B
 $$$331T       2 00001CE4 00000001     H   13766 13751B
 $$$333F       2 00001D14 00000001     H   13822 13805B
 $$$333T       2 00001D06 00000001     H   13808 13793B
 $$$335F       2 00001D36 00000001     H   13864 13847B
 $$$335T       2 00001D28 00000001     H   13850 13835B
 $$$337F       2 00001D60 00000001     H   13908 13891B
 $$$337T       2 00001D52 00000001     H   13894 13879B
 $$$339F       2 00001D82 00000001     H   13950 13933B
 $$$339T       2 00001D74 00000001     H   13936 13921B
1ITEST    (ITES2010) (12:47) (15MAR04) Ordinary Symbol and Literal Cross Reference                                          Page   63
 $$$341F       2 00001DAC 00000001     H   13994 13977B
 $$$341T       2 00001D9E 00000001     H   13980 13965B
 $$$343        1 00000860 00000001 A   U   14017 14014  14016
 $$$345B       1 00001FCA 00000001     X   14134 14141U
 $$$346F       2 00001FE6 00000001     H   14192 14175B
 $$$347F       2 00002002 00000001     H   14223 14206B
 $$$348F       2 0000201E 00000001     H   14255 14238B
 $$$349F       2 00002038 00000001     H   14287 14270B
 $$$350F       2 00002052 00000001     H   14317 14300B
 $$$351F       2 0000206C 00000001     H   14348 14331B
 $$$352F       2 00002086 00000001     H   14380 14363B
 $$$353F       2 000020A0 00000001     H   14411 14394B
 $$$354F       2 000020C2 00000001     H   14444 14427B
 $$$355F       2 000020E0 00000001     H   14476 14459B
 $$$356F       2 00002100 00000001     H   14519 14502B
 $$$356T       2 000020F2 00000001     H   14505 14490B
 $$$358F       2 00002120 00000001     H   14561 14544B
 $$$358T       2 00002112 00000001     H   14547 14532B
 $$$360F       2 00002140 00000001     H   14602 14585B
 $$$360T       2 00002132 00000001     H   14588 14574B
 $$$362F       2 00002160 00000001     H   14644 14627B
 $$$362T       2 00002152 00000001     H   14630 14615B
 $$$364F       2 00002180 00000001     H   14686 14669B
 $$$364T       2 00002172 00000001     H   14672 14657B
 $$$366F       2 000021A0 00000001     H   14727 14710B
 $$$366T       2 00002192 00000001     H   14713 14699B
 $$$368F       2 000021C0 00000001     H   14770 14753B
 $$$368T       2 000021B2 00000001     H   14756 14741B
 $$$370F       2 000021E0 00000001     H   14811 14794B
 $$$370T       2 000021D2 00000001     H   14797 14783B
 $$$372F       2 00002200 00000001     H   14853 14836B
 $$$372T       2 000021F2 00000001     H   14839 14824B
 $$$374F       2 00002220 00000001     H   14895 14878B
 $$$374T       2 00002212 00000001     H   14881 14866B
 $$$376F       2 00002240 00000001     H   14936 14919B
 $$$376T       2 00002232 00000001     H   14922 14908B
 $$$378F       2 00002260 00000001     H   14978 14961B
 $$$378T       2 00002252 00000001     H   14964 14949B
 $$$380F       2 00002282 00000001     H   15012 14995B
 $$$381F       2 000022A4 00000001     H   15045 15028B
 $$$382F       2 000022D6 00000001     H   15097 15080B
 $$$382T       2 000022C8 00000001     H   15083 15068B
 $$$384F       2 000022F8 00000001     H   15144 15127B
 $$$384T       2 000022EA 00000001     H   15130 15115B
 $$$386F       2 00002318 00000001     H   15187 15170B
 $$$386T       2 0000230A 00000001     H   15173 15158B
 $$$388F       2 00002338 00000001     H   15228 15211B
 $$$388T       2 0000232A 00000001     H   15214 15200B
 $$$390F       2 00002358 00000001     H   15269 15252B
 $$$390T       2 0000234A 00000001     H   15255 15241B
 $$$392F       2 00002378 00000001     H   15311 15294B
 $$$392T       2 0000236A 00000001     H   15297 15282B
 $$$394F       2 00002398 00000001     H   15352 15335B
 $$$394T       2 0000238A 00000001     H   15338 15324B
 $$$396F       2 000023B8 00000001     H   15393 15376B
 $$$396T       2 000023AA 00000001     H   15379 15365B
 $$$398F       2 000023D8 00000001     H   15436 15419B
 $$$398T       2 000023CA 00000001     H   15422 15407B
 $$$400F       2 000023F8 00000001     H   15478 15461B
1ITEST    (ITES2010) (12:47) (15MAR04) Ordinary Symbol and Literal Cross Reference                                          Page   64
 $$$400T       2 000023EA 00000001     H   15464 15449B
 $$$402F       2 00002418 00000001     H   15520 15503B
 $$$402T       2 0000240A 00000001     H   15506 15491B
 $$$404F       2 00002438 00000001     H   15562 15545B
 $$$404T       2 0000242A 00000001     H   15548 15533B
 $$$406F       2 00002458 00000001     H   15604 15587B
 $$$406T       2 0000244A 00000001     H   15590 15575B
 $$$408F       2 00002478 00000001     H   15646 15629B
 $$$408T       2 0000246A 00000001     H   15632 15617B
 $$$410        1 00000860 00000001 A   U   15669 15666  15668
 $$$412B       1 00002556 00000001     X   15744 15751U
 $$$413F       2 00002580 00000001     H   15805 15788B
 $$$414F       2 000025AA 00000001     H   15840 15823B
 $$$415F       2 000025CE 00000001     H   15868 15851B
 $$$416F       2 000025E6 00000001     H   15893 15876B
 $$$417F       2 00002610 00000001     H   15923 15906B
 $$$418F       2 0000263A 00000001     H   15953 15936B
 $$$419F       2 0000266A 00000001     H   15986 15969B
 $$$420F       2 00002694 00000001     H   16016 15999B
 $$$421F       2 000026BE 00000001     H   16046 16029B
 $$$422F       2 000026E8 00000001     H   16075 16058B
 $$$423F       2 00002712 00000001     H   16104 16087B
 $$$424F       2 00002736 00000001     H   16132 16115B
 $$$425F       2 00002762 00000001     H   16184 16167B
 $$$425T       2 00002754 00000001     H   16170 16155B
 $$$427F       2 0000278E 00000001     H   16234 16217B
 $$$427T       2 00002780 00000001     H   16220 16205B
 $$$429F       2 000027B2 00000001     H   16267 16250B
 $$$43B        1 00000042 00000001     X    6369  6376U
 $$$430F       2 000027DE 00000001     H   16317 16300B
 $$$430T       2 000027D0 00000001     H   16303 16288B
 $$$432F       2 0000280A 00000001     H   16367 16350B
 $$$432T       2 000027FC 00000001     H   16353 16338B
 $$$434F       2 00002834 00000001     H   16418 16401B
 $$$434T       2 00002826 00000001     H   16404 16389B
 $$$436F       2 0000285E 00000001     H   16467 16450B
 $$$436T       2 00002850 00000001     H   16453 16438B
 $$$438F       2 00002880 00000001     H   16499 16482B
 $$$439F       2 000028AA 00000001     H   16548 16531B
 $$$439T       2 0000289C 00000001     H   16534 16519B
 $$$44         1 00000050 00000001 A   U    6451  6448   6450
 $$$441F       2 000028D4 00000001     H   16597 16580B
 $$$441T       2 000028C6 00000001     H   16583 16568B
 $$$443        1 00000860 00000001 A   U   16620 16617  16619
 $$$445B       1 00002A34 00000001     X   16702 16709U
 $$$446F       2 00002A58 00000001     H   16770 16753B
 $$$446T       2 00002A4A 00000001     H   16756 16741B
 $$$448F       2 00002A7C 00000001     H   16813 16796B
 $$$448T       2 00002A6E 00000001     H   16799 16784B
 $$$450F       2 00002AA0 00000001     H   16856 16839B
 $$$450T       2 00002A92 00000001     H   16842 16827B
 $$$452F       2 00002AC2 00000001     H   16899 16882B
 $$$452T       2 00002AB4 00000001     H   16885 16870B
 $$$454F       2 00002AE4 00000001     H   16941 16924B
 $$$454T       2 00002AD6 00000001     H   16927 16912B
 $$$456F       2 00002B06 00000001     H   16983 16966B
 $$$456T       2 00002AF8 00000001     H   16969 16954B
 $$$458F       2 00002B34 00000001     H   17029 17012B
 $$$458T       2 00002B26 00000001     H   17015 17000B
1ITEST    (ITES2010) (12:47) (15MAR04) Ordinary Symbol and Literal Cross Reference                                          Page   65
 $$$46B        1 00000080 00000001     X    6488  6495U
 $$$460F       2 00002B5A 00000001     H   17072 17055B
 $$$460T       2 00002B4C 00000001     H   17058 17043B
 $$$462F       2 00002B80 00000001     H   17115 17098B
 $$$462T       2 00002B72 00000001     H   17101 17086B
 $$$464F       2 00002BBC 00000001     H   17164 17147B
 $$$464T       2 00002BAE 00000001     H   17150 17135B
 $$$466F       2 00002BD6 00000001     H   17195 17178B
 $$$467F       2 00002C0A 00000001     H   17241 17224B
 $$$467T       2 00002BFC 00000001     H   17227 17212B
 $$$469F       2 00002C3E 00000001     H   17287 17270B
 $$$469T       2 00002C30 00000001     H   17273 17258B
 $$$47F        2 0000008E 00000001     H    6527  6514B
 $$$471F       2 00002C62 00000001     H   17315 17298B
 $$$472        1 00000860 00000001 A   U   17338 17335  17337
 $$$474B       1 00002CF0 00000001     X   17399 17406U
 $$$475F       2 00002D0E 00000001     H   17453 17436B
 $$$476F       2 00002D2C 00000001     H   17499 17482B
 $$$476T       2 00002D1E 00000001     H   17485 17470B
 $$$478F       2 00002D4A 00000001     H   17526 17509B
 $$$479F       2 00002D68 00000001     H   17572 17555B
 $$$479T       2 00002D5A 00000001     H   17558 17543B
 $$$48         1 00000050 00000001 A   U    6552  6549   6551
 $$$481F       2 00002D86 00000001     H   17599 17582B
 $$$482F       2 00002DA4 00000001     H   17645 17628B
 $$$482T       2 00002D96 00000001     H   17631 17616B
 $$$484F       2 00002DC2 00000001     H   17672 17655B
 $$$485F       2 00002DE0 00000001     H   17718 17701B
 $$$485T       2 00002DD2 00000001     H   17704 17689B
 $$$487F       2 00002DFE 00000001     H   17745 17728B
 $$$488F       2 00002E1C 00000001     H   17791 17774B
 $$$488T       2 00002E0E 00000001     H   17777 17762B
 $$$49F        2 000001BC 00000001     H    6879  6672B  6706B  6741B  6775B  6803B
 $$$490F       2 00002E3A 00000001     H   17818 17801B
 $$$491F       2 00002E58 00000001     H   17864 17847B
 $$$491T       2 00002E4A 00000001     H   17850 17835B
 $$$493F       2 00002E76 00000001     H   17891 17874B
 $$$494F       2 00002EA0 00000001     H   17941 17924B
 $$$494T       2 00002E92 00000001     H   17927 17912B
 $$$496F       2 00002ECA 00000001     H   17990 17973B
 $$$496T       2 00002EBC 00000001     H   17976 17961B
 $$$498F       2 00002EF4 00000001     H   18039 18022B
 $$$498T       2 00002EE6 00000001     H   18025 18010B
 $$$50B        1 000000C0 00000001     X    6615  6622U
 $$$500F       2 00002F1E 00000001     H   18088 18071B
 $$$500T       2 00002F10 00000001     H   18074 18059B
 $$$502F       2 00002F48 00000001     H   18137 18120B
 $$$502T       2 00002F3A 00000001     H   18123 18108B
 $$$504F       2 00002F72 00000001     H   18186 18169B
 $$$504T       2 00002F64 00000001     H   18172 18157B
 $$$506F       2 00002F94 00000001     H   18229 18212B
 $$$506T       2 00002F86 00000001     H   18215 18200B
 $$$508F       2 00002FB6 00000001     H   18271 18254B
 $$$508T       2 00002FA8 00000001     H   18257 18242B
 $$$51F        2 000000DE 00000001     H    6676  6656B
 $$$510F       2 00002FD8 00000001     H   18313 18296B
 $$$510T       2 00002FCA 00000001     H   18299 18284B
 $$$512F       2 00002FFA 00000001     H   18355 18338B
 $$$512T       2 00002FEC 00000001     H   18341 18326B
1ITEST    (ITES2010) (12:47) (15MAR04) Ordinary Symbol and Literal Cross Reference                                          Page   66
 $$$514F       2 00003018 00000001     H   18388 18371B
 $$$515F       2 00003036 00000001     H   18420 18403B
 $$$516F       2 00003054 00000001     H   18452 18435B
 $$$517F       2 00003072 00000001     H   18484 18467B
 $$$518F       2 00003090 00000001     H   18513 18496B
 $$$519F       2 000030AE 00000001     H   18559 18542B
 $$$519T       2 000030A0 00000001     H   18545 18530B
 $$$52F        2 000000FC 00000001     H    6710  6690B
 $$$521F       2 000030CC 00000001     H   18586 18569B
 $$$522F       2 000030EA 00000001     H   18632 18615B
 $$$522T       2 000030DC 00000001     H   18618 18603B
 $$$524F       2 00003108 00000001     H   18659 18642B
 $$$525F       2 00003126 00000001     H   18705 18688B
 $$$525T       2 00003118 00000001     H   18691 18676B
 $$$527F       2 00003144 00000001     H   18732 18715B
 $$$528F       2 00003162 00000001     H   18778 18761B
 $$$528T       2 00003154 00000001     H   18764 18749B
 $$$53F        2 0000011C 00000001     H    6745  6725B
 $$$530F       2 00003180 00000001     H   18805 18788B
 $$$531F       2 0000319E 00000001     H   18851 18834B
 $$$531T       2 00003190 00000001     H   18837 18822B
 $$$533F       2 000031BC 00000001     H   18878 18861B
 $$$534F       2 000031DA 00000001     H   18924 18907B
 $$$534T       2 000031CC 00000001     H   18910 18895B
 $$$536F       2 000031F8 00000001     H   18951 18934B
 $$$537F       2 00003222 00000001     H   19001 18984B
 $$$537T       2 00003214 00000001     H   18987 18972B
 $$$539F       2 0000324C 00000001     H   19050 19033B
 $$$539T       2 0000323E 00000001     H   19036 19021B
 $$$54F        2 00000150 00000001     H    6779  6759B
 $$$541F       2 00003276 00000001     H   19099 19082B
 $$$541T       2 00003268 00000001     H   19085 19070B
 $$$543F       2 000032A0 00000001     H   19148 19131B
 $$$543T       2 00003292 00000001     H   19134 19119B
 $$$545F       2 000032CA 00000001     H   19197 19180B
 $$$545T       2 000032BC 00000001     H   19183 19168B
 $$$547F       2 000032F4 00000001     H   19246 19229B
 $$$547T       2 000032E6 00000001     H   19232 19217B
 $$$549F       2 00003316 00000001     H   19289 19272B
 $$$549T       2 00003308 00000001     H   19275 19260B
 $$$55F        2 0000016C 00000001     H    6807  6787B
 $$$551F       2 00003338 00000001     H   19331 19314B
 $$$551T       2 0000332A 00000001     H   19317 19302B
 $$$553F       2 0000335A 00000001     H   19373 19356B
 $$$553T       2 0000334C 00000001     H   19359 19344B
 $$$555F       2 0000337C 00000001     H   19415 19398B
 $$$555T       2 0000336E 00000001     H   19401 19386B
 $$$557F       2 0000339A 00000001     H   19448 19431B
 $$$558F       2 000033B8 00000001     H   19480 19463B
 $$$559F       2 000033D6 00000001     H   19512 19495B
 $$$56         1 00000860 00000001 A   U    6888  6885   6887
 $$$560F       2 000033F4 00000001     H   19544 19527B
 $$$561        1 00000860 00000001 A   U   19568 19565  19567
 $$$563B       1 0000356E 00000001     X   19680 19687U
 $$$564F       2 000035B2 00000001     H   19775 19758B
 $$$564T       2 000035A4 00000001     H   19761 19730B 19745B
 $$$567F       2 000035EA 00000001     H   19814 19797B
 $$$568F       2 0000360E 00000001     H   19843 19826B
 $$$569F       2 00003624 00000001     H   19873 19856B
1ITEST    (ITES2010) (12:47) (15MAR04) Ordinary Symbol and Literal Cross Reference                                          Page   67
 $$$570F       2 00003644 00000001     H   19900 19883B
 $$$571F       2 00003664 00000001     H   19927 19910B
 $$$572F       2 00003684 00000001     H   19954 19937B
 $$$573F       2 000036A8 00000001     H   19983 19966B
 $$$574F       2 000036CC 00000001     H   20011 19994B
 $$$575F       2 000036F0 00000001     H   20039 20022B
 $$$576F       2 00003726 00000001     H   20093 20076B
 $$$576T       2 00003718 00000001     H   20079 20063B
 $$$578F       2 00003748 00000001     H   20141 20124B
 $$$578T       2 0000373A 00000001     H   20127 20111B
 $$$58B        1 00000272 00000001     X    6961  6968U
 $$$580F       2 0000376E 00000001     H   20190 20173B
 $$$580T       2 00003760 00000001     H   20176 20160B
 $$$582F       2 000037D8 00000001     H   20236 20219B
 $$$583F       2 000037FC 00000001     H   20282 20265B
 $$$583T       2 000037EE 00000001     H   20268 20253B
 $$$585F       2 00003820 00000001     H   20325 20308B
 $$$585T       2 00003812 00000001     H   20311 20296B
 $$$587F       2 00003844 00000001     H   20367 20350B
 $$$587T       2 00003836 00000001     H   20353 20339B
 $$$589F       2 00003868 00000001     H   20410 20393B
 $$$589T       2 0000385A 00000001     H   20396 20381B
 $$$59F        2 00000296 00000001     H    7031  7014B
 $$$59T        2 00000288 00000001     H    7017  7002B
 $$$591F       2 0000388C 00000001     H   20452 20435B
 $$$591T       2 0000387E 00000001     H   20438 20424B
 $$$593F       2 000038B0 00000001     H   20495 20478B
 $$$593T       2 000038A2 00000001     H   20481 20466B
 $$$595F       2 000038D4 00000001     H   20538 20521B
 $$$595T       2 000038C6 00000001     H   20524 20509B
 $$$597F       2 000038F4 00000001     H   20580 20563B
 $$$597T       2 000038E6 00000001     H   20566 20551B
 $$$599F       2 00003916 00000001     H   20623 20606B
 $$$599T       2 00003908 00000001     H   20609 20594B
 $$$601F       2 00003938 00000001     H   20665 20648B
 $$$601T       2 0000392A 00000001     H   20651 20636B
 $$$603F       2 0000395A 00000001     H   20706 20689B
 $$$603T       2 0000394C 00000001     H   20692 20678B
 $$$605F       2 0000397C 00000001     H   20748 20731B
 $$$605T       2 0000396E 00000001     H   20734 20719B
 $$$607F       2 0000399E 00000001     H   20789 20772B
 $$$607T       2 00003990 00000001     H   20775 20761B
 $$$609F       2 000039C0 00000001     H   20831 20814B
 $$$609T       2 000039B2 00000001     H   20817 20802B
 $$$61F        2 000002BA 00000001     H    7073  7056B
 $$$61T        2 000002AC 00000001     H    7059  7045B
 $$$611F       2 000039DE 00000001     H   20863 20846B
 $$$612F       2 00003A00 00000001     H   20906 20889B
 $$$612T       2 000039F2 00000001     H   20892 20877B
 $$$614F       2 00003A22 00000001     H   20948 20931B
 $$$614T       2 00003A14 00000001     H   20934 20919B
 $$$616F       2 00003A44 00000001     H   20989 20972B
 $$$616T       2 00003A36 00000001     H   20975 20961B
 $$$618F       2 00003A66 00000001     H   21031 21014B
 $$$618T       2 00003A58 00000001     H   21017 21002B
 $$$620F       2 00003A88 00000001     H   21072 21055B
 $$$620T       2 00003A7A 00000001     H   21058 21044B
 $$$622F       2 00003AAA 00000001     H   21114 21097B
 $$$622T       2 00003A9C 00000001     H   21100 21085B
1ITEST    (ITES2010) (12:47) (15MAR04) Ordinary Symbol and Literal Cross Reference                                          Page   68
 $$$624F       2 00003ACC 00000001     H   21156 21139B
 $$$624T       2 00003ABE 00000001     H   21142 21127B
 $$$626F       2 00003AEC 00000001     H   21191 21174B
 $$$627F       2 00003B0C 00000001     H   21224 21207B
 $$$628F       2 00003B2C 00000001     H   21256 21239B
 $$$629F       2 00003B4C 00000001     H   21289 21272B
 $$$63F        2 000002DE 00000001     H    7116  7099B
 $$$63T        2 000002D0 00000001     H    7102  7087B
 $$$630F       2 00003B6C 00000001     H   21321 21304B
 $$$631F       2 00003B8C 00000001     H   21354 21337B
 $$$632F       2 00003BAC 00000001     H   21387 21370B
 $$$633F       2 00003BC8 00000001     H   21419 21402B
 $$$634F       2 00003BE6 00000001     H   21453 21436B
 $$$635F       2 00003C04 00000001     H   21485 21468B
 $$$636F       2 00003C22 00000001     H   21516 21499B
 $$$637F       2 00003C40 00000001     H   21548 21531B
 $$$638F       2 00003C5E 00000001     H   21579 21562B
 $$$639F       2 00003C7C 00000001     H   21611 21594B
 $$$640F       2 00003C9A 00000001     H   21643 21626B
 $$$641        1 00000860 00000001 A   U   21667 21664  21666
 $$$643B       1 00003DEC 00000001     X   21775 21782U
 $$$644F       2 00003E12 00000001     H   21837 21820B
 $$$645F       2 00003E28 00000001     H   21862 21845B
 $$$646F       2 00003E3E 00000001     H   21887 21870B
 $$$647F       2 00003E54 00000001     H   21912 21895B
 $$$648F       2 00003E7A 00000001     H   21941 21924B
 $$$649F       2 00003E90 00000001     H   21966 21949B
 $$$65F        2 00000302 00000001     H    7158  7141B
 $$$65T        2 000002F4 00000001     H    7144  7130B
 $$$650F       2 00003EA6 00000001     H   21991 21974B
 $$$651F       2 00003EBC 00000001     H   22016 21999B
 $$$652F       2 00003ED2 00000001     H   22041 22024B
 $$$653F       2 00003EE8 00000001     H   22066 22049B
 $$$654F       2 00003EFE 00000001     H   22091 22074B
 $$$655B       4 00003F12 00000001     I   22103 22114
 $$$655F       2 00003F16 00000001     H   22111 22103B 22113
 $$$656E       2 00003F1A 00000001     H   22121 22115
 $$$656F       2 00003F28 00000001     H   22135 22117B
 $$$657F       2 00003F3E 00000001     H   22160 22143B
 $$$658B       4 00003F42 00000001     I   22168 22179
 $$$658F       2 00003F46 00000001     H   22176 22168B 22178
 $$$659E       2 00003F4A 00000001     H   22186 22180
 $$$659F       2 00003F58 00000001     H   22200 22182B
 $$$660F       2 00003F6E 00000001     H   22225 22208B
 $$$661F       2 00003FA4 00000001     H   22256 22239B
 $$$662F       2 00003FBC 00000001     H   22281 22264B
 $$$663F       2 00003FE6 00000001     H   22309 22292B
 $$$664F       2 00003FFE 00000001     H   22334 22317B
 $$$665        6 00004428 00000001     I   22350 22342X
 $$$666        6 00004428 00000001     I   22349 22350  22350
 $$$667F       2 0000402C 00000001     H   22381 22364B
 $$$668F       2 00004044 00000001     H   22406 22389B
 $$$669F       2 000040A4 00000001     H   22473 22456B
 $$$669T       2 00004096 00000001     H   22459 22430B 22444B
 $$$67F        2 00000326 00000001     H    7200  7183B
 $$$67T        2 00000318 00000001     H    7186  7172B
 $$$672F       2 000040BA 00000001     H   22503 22486B
 $$$673F       2 000040D2 00000001     H   22528 22511B
 $$$674F       2 000040EA 00000001     H   22553 22536B
1ITEST    (ITES2010) (12:47) (15MAR04) Ordinary Symbol and Literal Cross Reference                                          Page   69
 $$$675F       2 0000414C 00000001     H   22618 22601B
 $$$675T       2 0000413E 00000001     H   22604 22577B 22591B
 $$$678F       2 00004162 00000001     H   22648 22631B
 $$$679F       2 0000417A 00000001     H   22673 22656B
 $$$680F       2 00004192 00000001     H   22698 22681B
 $$$681F       2 000041F4 00000001     H   22763 22746B
 $$$681T       2 000041E6 00000001     H   22749 22722B 22736B
 $$$684F       2 0000420A 00000001     H   22793 22776B
 $$$685F       2 00004222 00000001     H   22818 22801B
 $$$686F       2 0000423A 00000001     H   22843 22826B
 $$$687        6 0000442E 00000001     I   22870 22862X
 $$$688        6 0000442E 00000001     I   22869 22870  22870
 $$$689F       2 000042A2 00000001     H   22928 22911B
 $$$689T       2 00004294 00000001     H   22914 22887B 22901B
 $$$69F        2 0000034A 00000001     H    7243  7226B
 $$$69T        2 0000033C 00000001     H    7229  7214B
 $$$692F       2 000042B8 00000001     H   22958 22941B
 $$$693F       2 000042D0 00000001     H   22983 22966B
 $$$694F       2 000042E8 00000001     H   23008 22991B
 $$$695F       2 00004312 00000001     H   23037 23020B
 $$$696        1 00000860 00000001 A   U   23061 23058  23060
 $$$698B       1 0000444E 00000001     X   23139 23146U
 $$$699        1 00000860 00000001 A   U   23188 23185  23187
 $$$701B       1 0000447A 00000001     X   23231 23238U
 $$$702        1 00000860 00000001 A   U   23280 23277  23279
 $$$71F        2 0000036C 00000001     H    7286  7269B
 $$$71T        2 0000035E 00000001     H    7272  7257B
 $$$73F        2 0000038E 00000001     H    7327  7310B
 $$$73T        2 00000380 00000001     H    7313  7299B
 $$$75F        2 000003B0 00000001     H    7369  7352B
 $$$75T        2 000003A2 00000001     H    7355  7340B
 $$$77F        2 000003D2 00000001     H    7410  7393B
 $$$77T        2 000003C4 00000001     H    7396  7382B
 $$$79F        2 000003F4 00000001     H    7451  7434B
 $$$79T        2 000003E6 00000001     H    7437  7423B
 $$$81F        2 00000412 00000001     H    7483  7466B
 $$$82F        2 00000434 00000001     H    7526  7509B
 $$$82T        2 00000426 00000001     H    7512  7497B
 $$$84F        2 00000456 00000001     H    7567  7550B
 $$$84T        2 00000448 00000001     H    7553  7539B
 $$$86F        2 00000478 00000001     H    7609  7592B
 $$$86T        2 0000046A 00000001     H    7595  7580B
 $$$88F        2 0000049A 00000001     H    7650  7633B
 $$$88T        2 0000048C 00000001     H    7636  7622B
 $$$90F        2 000004BC 00000001     H    7691  7674B
 $$$90T        2 000004AE 00000001     H    7677  7663B
 $$$92F        2 000004DE 00000001     H    7733  7716B
 $$$92T        2 000004D0 00000001     H    7719  7704B
 $$$94F        2 000004FE 00000001     H    7768  7751B
 $$$95F        2 0000051E 00000001     H    7800  7783B
 $$$96F        2 0000053E 00000001     H    7833  7816B
 $$$97F        2 0000055E 00000001     H    7865  7848B
 $$$98F        2 0000057E 00000001     H    7897  7880B
 $$$99F        2 0000059E 00000001     H    7930  7913B
 @RAR          0 00000000 FFFFFFF0     @    1124  2162   2170B
 @R0           0 00000000 FFFFFFFE     @     706   982U
 @R1           0 00000000 FFFFFFFD     @     719   978U  2168   2169
 @R10          0 00000000 FFFFFFF4     @     836   942U
 @R11          0 00000000 FFFFFFF3     @     849   938U
1ITEST    (ITES2010) (12:47) (15MAR04) Ordinary Symbol and Literal Cross Reference                                          Page   70
 @R12          0 00000000 FFFFFFF2     @     862   934U
 @R13          0 00000000 FFFFFFF1     @     875   930U
 @R14          0 00000000 FFFFFFF0     @     888   926U
 @R15          0 00000000 FFFFFFEF     @     901   922U
 @R2           0 00000000 FFFFFFFC     @     732   974U
 @R3           0 00000000 FFFFFFFB     @     745   970U
 @R4           0 00000000 FFFFFFFA     @     758   966U
 @R5           0 00000000 FFFFFFF9     @     771   962U
 @R6           0 00000000 FFFFFFF8     @     784   958U
 @R7           0 00000000 FFFFFFF7     @     797   954U  6440U  6541U  6877U  8729U  9414U 11764U 14006U 15658U 16609U
                                                 17327U 19557U 21656U 23050U 23177U 23269U
 @R8           0 00000000 FFFFFFF6     @     810   950U  6872U  8724U  9409U 11759U 14001U 15653U 16604U 17322U 19552U
                                                 21651U 23045U 23172U 23264U
 @R9           0 00000000 FFFFFFF5     @     823   946U
 ABSCENT       1 00000000 00000000 A   T    2178  2178
 ASCTBL        1 00000000 00000000 A   T    2186  2186
 BCTLOOP       2 00000A4E 00000001     H    9133  9135B
 BLTBL         1 00000000 00000000 A   T    2188  2188
 BR            7 00000007 00000001 A   #    1014  6364M  6483M  6610M  6956M  8824M  9486M 11872M 14129M 15739M 16697M
                                                 17394M 19675M 21770M 23134M 23226M
 BUF1       1024 00000010 FFFFFFE9     C    6577 10612M 10614  10645M 10647  10672  10697  10722  10747  10957M 10959
                                                 11018  11062  11122  11166  11226  11270M 11272  11331  11375  11434
                                                 11478  11538  12404M 12406M 12431  12456M 12458M 12483  12510M 12512
                                                 12513M 12540  12565M 12567  12568M 12595  13269M 13283M 13291  13316
                                                 13330  13362M 13376M 13384  13410M 13425M 13433  13465M 13480M 13488
                                                 15842M 15844  15869  15894M 15895M 15895  15896  15925M 15928M 15929
                                                 15957  15962  15987  15992  16017  16022  16048M 16050M 16051  16077M
                                                 16079M 16080  16106M 16107M 16107  16108  17289M 17290M 17290  17291
                                                 20195M 20196M 20197M 20198M 20199M 20200M 20201M 20202M 20203M 20204M
                                                 20205M 20206M 20207M 20208M 20209M 20210M 20212  22227M 22228M 22228
                                                 22231  22284  22349  22411M 22412M 22412  22413M 22414M 22414  22419
                                                 22504  22504  22558M 22559M 22559  22560M 22561M 22561  22566  22649
                                                 22649  22703M 22704M 22704  22705M 22706M 22706  22711  22794  22794
                                                 22848M 22849M 22849  22850M 22851M 22851  22869  22959  22959  23010M
                                                 23012M 23013
 BUF2       1024 00000410 FFFFFFE9     C    6578 10613M 10615  10646M 10647  10672  10697  10722  10747  10958M 10961
                                                 11019  11064  11123  11168  11227  11271M 11274  11332  11377  11435
                                                 11480  11539  12405M 12406  12457M 12458  12511M 12513  12566M 12568
                                                 13270M 13283  13316M 13330  13363M 13376  13412M 13425  13467M 13480
                                                 15843M 15844  15869  15926M 15956M 15959  15989  16019  16049M 16050
                                                 16078M 16079  20211M 20212  22229M 22230M 22231M 22232  22257  22282M
                                                 22283M 22284M 22285  22310  22335M 22336M 22349M 22357  22382  22415M
                                                 22416M 22416  22417M 22418M 22418  22419  22529  22529  22557  22562M
                                                 22563M 22563  22564M 22565M 22565  22566  22674  22674  22702  22707M
                                                 22708M 22708  22709M 22710M 22710  22711  22819  22819  22847  22852M
                                                 22853M 22853  22854M 22855M 22855  22869  22984  22984  23011M 23012
 BXHDONE1      2 00000A90 00000001     H    9194  9191B
 BXHLOOP1      2 00000A84 00000001     H    9189  9192B
 BXHLOOP2      2 00000ABA 00000001     H    9245  9247B
 BXLELOOP      2 00000AF0 00000001     H    9300  9302B
 BXLELP2       2 00000B22 00000001     H    9353  9355B
 CHECKIOB      1 00000000 00000000 A   T    2234  2234
 COMMAND       1 00000000 00000000 A   T    2174  2174
 COMMSEG       1 00000000 00000000 A   T    2175  2175
 CP         4096 00000000 FFFFFFEC     J    6188  1163U
 CP#XSTK       1 00000010 FFFFFFEC A   U    3920  3921
 CPACFLG       1 000005D5 FFFFFFEC     R    4023  4027   4032   4037   4042   4047
 CPACFLN       4 000005C4 FFFFFFEC     F    4015  4050   4050
 CPAFLAG       1 000005C3 FFFFFFEC     R    3987  3991   3996   4001   4006
1ITEST    (ITES2010) (12:47) (15MAR04) Ordinary Symbol and Literal Cross Reference                                          Page   71
 CPANAME       8 00000588 FFFFFFEC     C    3969  4065   4065
 CPAUTFLG      1 000008A9 FFFFFFEC     R    4333  4337   4342   4347   4352
 CPCHFLAG      1 00000B68 FFFFFFEC     R    4960  4964
 CPDFLG        1 0000084C FFFFFFEC     R    4220  4224   4229   4234   4239   4244
 CPDFLG2       1 0000084D FFFFFFEC     R    4249  4253   4258   4263   4268   4273   4278
 CPEXFLG       1 00000758 FFFFFFEC     R    4089  4093
 CPEXFLG2      1 00000759 FFFFFFEC     R    4099  4108   4118
 CPEXFLG3      1 0000075A FFFFFFEC     R    4125  4129   4134
 CPEXTFLG      1 00000E28 FFFFFFEC     R    5771  5775   5780   5785   5790   5795   5800
 CPFABORT    128 00000D5A FFFFFFEC         5537  2138M  2138   2143M  2143
 CPFERROR     64 00000D5A FFFFFFEC         5542  2137M  2137   2142M  2142
 CPFNTEX       1 00000040 FFFFFFEC A   U    5389  5390
 CPFRDRNG      1 00000D88 FFFFFFEC     R    5657  5661   5666   5671   5676   5681   5686   5691
 CPFRDSRC      1 00000D89 FFFFFFEC     R    5696  5705   5715   5725
 CPFUNUM       1 00000080 FFFFFFEC A   U    5388  5390
 CPFXDFLG      1 000007E4 FFFFFFEC     R    4167  4171   4176
 CPGFLG1       1 00000474 FFFFFFEC     R    3530  3534   3539   3544   3549   3554   3884   3884
 CPGFLG10      1 0000047D FFFFFFEC     R    3767  3771   3776   3781   3786   3791   3796
 CPGFLG11      1 0000047E FFFFFFEC     R    3802  3806   3811
 CPGFLG12      1 0000047F FFFFFFEC     R    3817  3821   3826   3831
 CPGFLG13      1 00000480 FFFFFFEC     R    3837  3841
 CPGFLG14      1 00000481 FFFFFFEC     R    3847  3851   3856   3861   3866   3871
 CPGFLG4       1 00000477 FFFFFFEC     R    3583  3594   3603   3612   3621   3630
 CPGFLG5       1 00000478 FFFFFFEC     R    3636  3640   3645   3650   3655   3660   3665   3670   3675
 CPGFLG6       1 00000479 FFFFFFEC     R    3681  3685   3690   3695
 CPGFLG7       1 0000047A FFFFFFEC     R    3701  3705   3710   3715   3720
 CPGFLG8       1 0000047B FFFFFFEC     R    3726  3730   3735   3740   3745
 CPGFLG9       1 0000047C FFFFFFEC     R    3751  3755   3761
 CPINIT        1 00000174 FFFFFFEC     U    2700  6157
 CPJESFLG      1 000009E1 FFFFFFEC     R    4432  4436   4441   4446   4451   4456   4461   4466   4471
 CPJESFLY      1 000009FD FFFFFFEC     R    4482  4486   4491   4496
 CPJESHFL      1 000009E0 FFFFFFEC     R    4417  4421   4426   4505   4505
 CPLFLG10      1 00000D59 FFFFFFEC     R    5523  5527
 CPLFLG11      1 00000D5A FFFFFFEC     R    5533  5537   5542   5547   5552
 CPLFLG12      1 00000D5B FFFFFFEC     R    5558  5562
 CPLFLG14      1 00000D5C FFFFFFEC     R    5568  5572   5577   5582   5587   5592
 CPLFLG6       1 00000D55 FFFFFFEC     R    5398  5402   5407   5412   5417   5422   5427
 CPLFLG7       1 00000D56 FFFFFFEC     R    5433  5437   5442   5447   5452   5457
 CPLFLG8       1 00000D57 FFFFFFEC     R    5463  5467   5472   5477   5482
 CPLFLG9       1 00000D58 FFFFFFEC     R    5488  5492   5497   5502   5507   5512   5517
 CPLOCALZ      1 00000C48 FFFFFFEC     U    4990  6151   6151
 CPMFLG        1 0000084F FFFFFFEC     R    4287  4291
 CPMODFLG      1 00000C78 FFFFFFEC     R    5018  5022   5027   5032   5037   5042
 CPNAMELN      1 00000010 FFFFFFEC A   U    3913  4160
 CPNEDPFX     10 00000E29 FFFFFFEC     X    5804  5805   5806
 CPNUMFLG      1 00000C79 FFFFFFEC     R    5048  5060
 CPORVCMD      1 00000140 FFFFFFEC     R    2582  2586   2591   2596   2601   2606   2611   2616   2621   2626   2626
                                                  2677   2677
 CPORVFLG      1 00000149 FFFFFFEC     R    2633  2637   2642   2647   2652   2657   2662   2667   2672
 CPORVWF       1 00000150 FFFFFFEC     R    2685  2689
 CPOSCANX      4 00000CA8 FFFFFFEC     F    5217  5284   5284
 CPR          11 0000000B 00000001 A   #    1078  1163U
 CPRACBAD     16 000001FC FFFFFFEC         2751  2785   2785   2786   2786
 CPRACF1       1 000001FC FFFFFFEC     R    2732  2736   2741   2746   2751   2756   2761   2766   2771   2787
 CPRACPSW     32 000001FC FFFFFFEC         2746  2784   2784   2786   2786
 CPRACUND     64 000001FC FFFFFFEC         2741  2784   2784   2785   2785
 CPRCVCUR      4 00000730 FFFFFFEC     A    4068  4070   4070
 CPRFLG        1 000008AA FFFFFFEC     R    4358  4362   4367   4372   4377   4382   4387
 CPS         254 00000344 FFFFFFEC     X    3502  3505   3506   3508   3508
1ITEST    (ITES2010) (12:47) (15MAR04) Ordinary Symbol and Literal Cross Reference                                          Page   72
 CPSACCT       5 000003B4 FFFFFFEC     C    3101  3264   3264
 CPSAMCOD      1 00000A22 FFFFFFEC     R    4554  4562   4572   4582   4591   4600   4609   4619   4628   4637
 CPSAMFLG      1 00000A21 FFFFFFEC     R    4514  4518   4523   4528   4533   4538   4543   4548   4659   4659
 CPSCNFLG      1 00000CD0 FFFFFFEC     R    5230  5241   5250   5261
 CPSCNF2       1 00000CD1 FFFFFFEC     R    5266  5270
 CPSCNMAX      1 00000014 FFFFFFEC A   U    5282  5283
 CPSCRI        2 00000434 FFFFFFEC     H    3491  3496   3496
 CPSEG        60 00000050 FFFFFFEC     X    2571  6404   6429
 CPSEGCOD      1 00000050 FFFFFFEC     R    2488  2497   2507   2517   2527   2537   2547   2557
 CPSFL         1 00000384 FFFFFFEC     R    2839  2843   2848   2853   2858   2863
 CPSFLG        1 000003F8 FFFFFFEC     R    3379  3383   3388   3393   3398   3403   3408   3413   3418
 CPSFLG2       1 000003F9 FFFFFFEC     R    3424  3428   3433   3438
 CPSFL2        1 00000385 FFFFFFEC     R    2869  2873   2878   2883   2888
 CPSFL3        1 00000386 FFFFFFEC     R    2894  2898   2903   2908
 CPSFL4        1 00000387 FFFFFFEC     R    2914  2918   2923   2928
 CPSFL5        1 00000388 FFFFFFEC     R    2934  2938   2943   2948
 CPSFSPR      32 000003BE FFFFFFEC         3204  6513
 CPSKAFL       1 000003BF FFFFFFEC     R    3235  3239   3244   3249   3254   3259
 CPSKIFL       1 000003BE FFFFFFEC     R    3190  3194   3199   3204   3209   3214   3219   3224   3229
 CPSOF         1 000001F8 FFFFFFEC     X    2722  2724   2724
 CPSOFLAG      1 00000416 FFFFFFEC     R    3449  3453   3458   3463   3468   3473
 CPSOPST       4 000003C4 FFFFFFEC     F    3269  3498   3498
 CPSPORT       8 00000354 FFFFFFEC     C    2833  2953   2953
 CPSQFLG       1 000003EC FFFFFFEC     R    3298  3302
 CPSSFLG       1 000003BB FFFFFFEC     R    3108  3112   3117   3122   3127   3132   3137
 CPSSTART      4 00000344 FFFFFFEC     F    2825  2829   2829   3265   3265   3370   3370   3502   3502
 CPSSTAT       1 0000038F FFFFFFEC     R    3045  3049   3054   3059   3064   3069   3074   3079
 CPSTACF       1 000003BC FFFFFFEC     R    3143  3147   3152   3157   3162   3167   3172   3177   3182
 CPSTART       4 00000000 FFFFFFEC     C    2461  6155   6159
 CPSTFLAG      1 000003EA FFFFFFEC     R    3276  3280   3285   3290
 CPSTYPE       1 0000038C FFFFFFEC     R    2958  2967   2977   2987   2997   3007   3017   3027   3037
 CPSUFLG       1 000003EE FFFFFFEC     R    3313  3317   3322   3327   3332   3337   3342   3347   3352
 CPSUFLG2      1 000003EF FFFFFFEC     R    3358  3362   3367
 CPSVPGM       8 0000039C FFFFFFEC     C    3091  3097   3097
 CPS1ST        4 0000038C FFFFFFEC     F    2955  3500   3500
 CPTEMPP#      1 0000005F FFFFFFEC A   U    4408  4410
 CPTRMFL1      1 00000C7A FFFFFFEC     R    5066  5070   5075   5080   5204   5204
 CPTRMFL2      1 00000C7B FFFFFFEC     R    5086  5090   5095   5100   5105   5110   5115
 CPTRMFL3      1 00000C7C FFFFFFEC     R    5121  5125   5130   5135   5140   5145   5150   5155
 CPTRMFL4      1 00000C7D FFFFFFEC     R    5161  5165   5170   5175   5180   5185   5190   5195
 CPUSED        1 00000FBC FFFFFFEC A   U    6155  6156
 CPVACURS      8 00000AF0 FFFFFFEC     D    4933  4934   4935
 CPVCURS       8 00000AE0 FFFFFFEC     D    4927  4928   4929
 CPVFLAG       1 00000AC8 FFFFFFEC     R    4728  4732   4737   4742   4747   4752
 CPVFLAG2      1 00000AC9 FFFFFFEC     R    4758  4762   4767   4772   4777   4782   4787
 CPVFLAG3      1 00000ACA FFFFFFEC     R    4793  4797   4802   4807   4812   4817   4822
 CPVFLAG4      1 00000ACB FFFFFFEC     R    4828  4832   4837   4842
 CPVLFLAG      1 00000ACE FFFFFFEC     R    4897  4901   4906   4911
 CPVMODE       1 00000ACC FFFFFFEC     R    4850  4854   4859   4864   4869   4874   4879   4884   4889
 CPVTWID       2 00000AD0 FFFFFFEC     H    4917  4920   4920
 CPWK1         4 00000D60 FFFFFFEC     F    5601  5616   5639
 CPWK2         4 00000D64 FFFFFFEC     F    5602  5617   5631
 CPWK3         4 00000D68 FFFFFFEC     F    5603  5618   5632
 CPWK4         4 00000D6C FFFFFFEC     F    5604  5619   5633
 CPWK5         4 00000D70 FFFFFFEC     F    5605  5621   5626   5634
 CPWK6         4 00000D74 FFFFFFEC     F    5606  5622   5627   5635   5642   5644
 CPWK7         4 00000D78 FFFFFFEC     F    5607  5620   5636
 CPXFLAG       1 000007FD FFFFFFEC     R    4195  4199
 CPXSTATE      4 000007F8 FFFFFFEC     F    4189  4202   4202
1ITEST    (ITES2010) (12:47) (15MAR04) Ordinary Symbol and Literal Cross Reference                                          Page   73
 CV         4016 00000000 FFFFFFEE     J    2364  1172U
 CVABSRTN      4 0000088C FFFFFFEE     V    2178  2153
 CVBRMSK       1 00000751 FFFFFFEE     X    2094  2095   2096
 CVCFLAG       1 00000A00 FFFFFFEE     R    2259  2263   2268   2273   2278   2283
 CVCHKST       8 000009F0 FFFFFFEE     D    2249  2339   2339
 CVCHKST2      8 00000E28 FFFFFFEE     D    2342  2345   2345
 CVCOMRTN      4 0000087C FFFFFFEE     V    2174  2144
 CVDBGFLG      1 000004CC FFFFFFEE     R    1948  1952
 CVENT         4 0000074C FFFFFFEE     I    2092  6364B  6483B  6610B  6956B  8824B  9486B 11872B 14129B 15739B 16697B
                                                 17394B 19675B 21770B 23134B 23226B
 CVENTBR       2 00000750 FFFFFFEE     I    2093  2094
 CVERROR       4 000007D6 FFFFFFEE     I    2142  2158B
 CVEXIRTN      4 0000077C FFFFFFEE     V    2122  2118
 CVFCHRKBPR
               8 000004C9 FFFFFFEE         1863  1879   1879
 CVFCHRKBSE
               4 000004C9 FFFFFFEE         1868  1879   1879
 CVFCHRKCPR
               2 000004C9 FFFFFFEE         1885  1901   1901
 CVFCHRKCSE
               1 000004C9 FFFFFFEE         1890  1901   1901
 CVFCHRUBPR
             128 000004C9 FFFFFFEE         1819  1835   1835
 CVFCHRUBSE
              64 000004C9 FFFFFFEE         1824  1835   1835
 CVFCHRUCPR
              32 000004C9 FFFFFFEE         1841  1857   1857
 CVFCHRUCSE
              16 000004C9 FFFFFFEE         1846  1857   1857
 CVFL          1 000004C4 FFFFFFEE     R    1615  1619   1624   1629   1634   1639   1644   1649   1654
 CVFL2         1 000004C5 FFFFFFEE     R    1660  1664   1669   1674   1679   1684   1689   1694   1699
 CVFL3         1 000004C6 FFFFFFEE     R    1705  1709   1714   1719   1724   1729   1734   1739   1744
 CVFL4         1 000004C7 FFFFFFEE     R    1750  1754   1759   1764   1769   1774   1779   1784
 CVFL5         1 000004C8 FFFFFFEE     R    1790  1794   1799   1804   1809
 CVFL6         1 000004C9 FFFFFFEE     R    1815  1819   1824   1836   1841   1846   1858   1863   1868   1880   1885
                                                  1890   1902
 CVHEAP#       1 00000200 FFFFFFEE A   U    1521  1522
 CVINVRTN      4 00000888 FFFFFFEE     V    2177  2147
 CVJESFLG      1 000004CA FFFFFFEE     R    1908  1912
 CVLNKRGS      4 00000780 FFFFFFEE     F    2124  2099M  2125
 CVLNKRTN      4 000007B0 FFFFFFEE     U    2125  2114M
 CVLOCK1       1 00000088 FFFFFFEE     R    1266  1270   1275
 CVLOCK2       1 00000089 FFFFFFEE     R    1280  1284
 CVLOCK3       1 0000008A FFFFFFEE     R    1289  1293
 CVLOCK4       1 0000008B FFFFFFEE     R    1298  1302
 CVLOGMOD      1 00000068 FFFFFFEE     R    1253  1257
 CVMACH        1 00000067 FFFFFFEE     R    1213  1217   1222   1227   1232   1237   1242   1247
 CVMILRTN      4 00000884 FFFFFFEE     V    2176  2156
 CVNEXT        4 000007DE FFFFFFEE     I    2144  6534B
 CVNOARTN      4 00000890 FFFFFFEE     V    2179  2150
 CVNWDATE      4 00000608 FFFFFFEE     F    1981  1985   1985
 CVNWMPG#      1 00000008 FFFFFFEE A   U    1983  1984
 CVPFXRTN      1 00000000 00000000 A   T    2122  2122
 CVPGFLAG      1 00000A01 FFFFFFEE     R    2289  2293   2298   2303
 CVPIOSZ       1 00004F80 FFFFFFEE A   U    1352  1354
 CVPPDBQH      4 0000009C FFFFFFEE     A    1310  1311
 CVPSFNO       1 000003E9 FFFFFFEE A   N    1474  1476
 CVPSLNO       1 000007CF FFFFFFEE A   N    1475  1476
 CVPXSZ        1 00000008 FFFFFFEE A   U    1353  1354
1ITEST    (ITES2010) (12:47) (15MAR04) Ordinary Symbol and Literal Cross Reference                                          Page   74
 CVR          12 0000000C 00000001 A   #    1091  1172U
 CVRKEY        1 00000008 FFFFFFEE A   U    2047  2048
 CVSEGRTN      4 00000880 FFFFFFEE     V    2175  2139
 CVSTACK#      1 00000080 FFFFFFEE A   U    1513  1514
 CVSTART       4 00000000 FFFFFFEE     C    1186  2357
 CVTRC         4 00000768 FFFFFFEE     I    2114  2100B
 CVTRCRTN      4 00000778 FFFFFFEE     V    2121  2115
 CVUSFNO       1 00000001 FFFFFFEE A   N    1481  1483
 CVUSLNO       1 000003E7 FFFFFFEE A   N    1482  1483
 CVVOL#        1 00000005 FFFFFFEE A   U    2332  2333
 CVWTOFLG      1 000004CB FFFFFFEE     R    1918  1922   1927   1932   1937   1942
 DEBUGSG       1 00000000 00000000 A   T    2075  2075
 DEV          12 00000000 FFFFFFEB     J    4713  4721
 DEVMAX#       1 00000002 FFFFFFEC A   U    4664  4721
 DEVTYPE       1 00000001 FFFFFFEB     R    4681  4690   4700
 DOTEST1       2 00000258 00000001     H    6940  6911
 DOTEST10      2 00003DD2 00000001     H   21754  6919
 DOTEST11      2 00004434 00000001     H   23118  6920
 DOTEST12      2 00004460 00000001     H   23210  6921
 DOTEST2       2 0000096C 00000001     H    8808  6912
 DOTEST3       2 00000BD8 00000001     H    9470  6913
 DOTEST4       2 000015FE 00000001     H   11856  6914
 DOTEST6       2 0000253C 00000001     H   15723  6915
 DOTEST7       2 00002A1A 00000001     H   16681  6916
 DOTEST8       2 00002CD6 00000001     H   17378  6917
 DOTEST9       2 00003554 00000001     H   19659  6918
 DOTTBL        1 00000000 00000000 A   T    2191  2191
 DRENCFLG      1 00000F9F FFFFFFEC     R    6119  6123   6128   6133   6138   6143
 DRENPROT      1 00000F9E FFFFFFEC     R    6106  6114
 DSNON        40 00000E90 FFFFFFEC     C    5839  5840
 DSNWADSN     44 00000E5C FFFFFFEC     C    5826  5827   5828   5829   5838   5846   6077   6083   6085   6091   6094
                                                  6096   6099   6148
 DSNWAF4       1 00000F37 FFFFFFEC     R    5894  5898   5903   5908   5913   5918   5923   5928   5933
 DSNWAF5       1 00000F38 FFFFFFEC     R    5939  5943   5948   5953   5958   5963   5968   5973   5978
 DSNWAF6       1 00000F39 FFFFFFEC     R    5984  5988   5993   5998   6003   6008   6013   6018   6023
 DSNWAF7       1 00000F3A FFFFFFEC     R    6029  6033   6038   6043   6048
 DSNXG         1 00000004 FFFFFFEC A   U    5831  5833
 DSNXGL        1 00000003 FFFFFFEC A   U    5832  5833
 DSNXU         1 00000007 FFFFFFEC A   U    5833  5835
 DSNXUL        1 00000004 FFFFFFEC A   U    5834  5835
 DSSIZ         1 00000108 FFFFFFEC A   U    6077  6085   6094   6099
 EBCTBL        1 00000000 00000000 A   T    2187  2187
 EBCTBL7       1 00000000 00000000 A   T    2190  2190
 ECBLIST       1 00000000 00000000 A   T    2050  2050
 EPARTBL       1 00000000 00000000 A   T    2182  2182
 FSR           0 00000000 00000001 A   #    1001  6359   6448M  6478   6549M  6604   6885M  6950   8737M  8818   9422M
                                                  9480  11772M 11866  14014M 14123  15666M 15733  16617M 16691  17335M
                                                 17388  19565M 19669  21664M 21764  23058M 23128  23185M 23220  23277M
 F1            4 00000000 FFFFFFE9     F    6573  6711M  6724   6749M  6752   6780   8381M  8382M  8383   8416M  8417M
                                                  8418M  8419   8460M  8461M  8462   8503M  8504M  8505   8548M  8553M
                                                  8554   8627M  8630M  8631   8673M  8676M  8677  10454M 10455M 10456
                                                 10481M 10482  10507M 10508  10533M 10534  10559M 10560  10585M 10586
                                                 10776M 10777  10802  10827  10855M 10856  10881  10906  10931  11585M
                                                 11587  11620M 11622  11654M 11655  11704M 11705  12964M 12965M 12966M
                                                 12967  13008M 13009M 13010  13051M 13052M 13053  13096M 13101M 13102
                                                 13175M 13178M 13179  13221M 13224M 13225  13521M 13522  13554M 13555
                                                 13587M 13588  13620M 13621  13654M 13656  13698  13740  13782  13824
                                                 13866M 13868  13910  13952M 13954  14981M 14982  15014M 15015  15050M
                                                 15051  15098  15771M 15772M 15773M 15774M 15775  15806M 15807M 15808M
1ITEST    (ITES2010) (12:47) (15MAR04) Ordinary Symbol and Literal Cross Reference                                          Page   75
                                                 15809M 15810  16986M 16987M 16988M 16989  17030M 17031M 17032  17073M
                                                 17074M 17075  17118M 17123M 17124  17197M 17200M 17201  17243M 17246M
                                                 17247  19708M 19727  19778M 19780M 19782M 19784M 19796  19817M 19818M
                                                 19819  19875M 19876  19902M 19903  19929M 19930  19957M 19958M 19959
                                                 19985M 19986M 19987  20013M 20014M 20015  20045M 20060  20142M 20157
                                                 21810M 21914M 22093M
 F2            4 00000004 FFFFFFE9     F    6574  6750M  6752   8550M  8553   8595   8629M  8630   8675M  8676  11586M
                                                 11621M 11656  11706  13098M 13101  13143  13177M 13178  13223M 13224
                                                 17120M 17123  17165  17199M 17200  17245M 17246  19710M 19742  20075
                                                 20172  21812M 21813  21838  21863  21888  21916M 21917  21942  21967
                                                 21992  22017  22042  22067  22095M 22096  22136  22161  22201
 F3            4 00000008 FFFFFFE9     F    6575  6751M  6780   8552M 13100M 17122M 19712M 19757  20108
 F4            4 0000000C FFFFFFE9     F    6576 20123
 HIBAL         1 00000000 FFFFFFFF     J     691   707    720    733    746    759    772    785    798    811    824
                                                   837    850    863    876    889    902
 INVALID       1 00000000 00000000 A   T    2177  2177
 ITEST         2 000000A6 00000001     H    6594  6590   6903
 ITESTWA    2064 00000000 FFFFFFE9     J    6585  6607   6636U  6885   6887   6888   6953   6982U  8737   8739   8740
                                                  8821   8850U  9422   9424   9425   9483   9512U 11772  11774  11775
                                                 11869  11898U 14014  14016  14017  14126  14155U 15666  15668  15669
                                                 15736  15765U 16617  16619  16620  16694  16723U 17335  17337  17338
                                                 17391  17420U 19565  19567  19568  19672  19701U 21664  21666  21667
                                                 21767  21796U 23058  23060  23061  23131  23160U 23185  23187  23188
                                                 23223  23252U 23277  23279  23280
 ITES2010      1 00000000 00000001     R    1137  1135
 LOWTBL        1 00000000 00000000 A   T    2185  2185
 LSR           8 00000008 00000001 A   #    1039  6359   6448M  6478   6549M  6604   6885M  6950   8737M  8818   9422M
                                                  9480  11772M 11866  14014M 14123  15666M 15733  16617M 16691  17335M
                                                 17388  19565M 19669  21664M 21764  23058M 23128  23185M 23220  23277M
 MILERR        1 00000000 00000000 A   T    2176  2176
 MWRITE        2 00000028 00000001     H    6350  6906   8756   9437  11789  14035  15683  16633  17353  19581  21685
                                                 23080
 NBLTBL        1 00000000 00000000 A   T    2189  2189
 NOACTION      1 00000000 00000000 A   T    2179  2179
 NOTVALID      1 00000000 00000004     T    6902  6902
 NPARTBL       1 00000000 00000000 A   T    2183  2183
 NSCNCB      176 00000000 FFFFFFED     J    2448  2574
 NSCNFLGS      1 00000008 FFFFFFED     R    2385  2389   2394
 NSCNTYPE      1 00000018 FFFFFFED     R    2403  2407   2412   2417   2422   2427
 RAR          14 0000000E 00000001 A   #    1117  2114   2115M  2116B  2118M  2119B  2139M  2140B  2144M  2145B  2147M
                                                  2148B  2150M  2151B  2153M  2154B  2156M  2157M  2157B  2163   6356
                                                  6407M  6408M  6408B  6432M  6433M  6433B  6450M  6453B  6475   6522M
                                                  6523M  6523B  6532M  6533M  6533B  6551M  6554B  6601   6668M  6669M
                                                  6669B  6702M  6703M  6703B  6737M  6738M  6738B  6771M  6772M  6772B
                                                  6799M  6800M  6800B  6813M  6814M  6814B  6817M  6818M  6818B  6821M
                                                  6822M  6822B  6825M  6826M  6826B  6829M  6830M  6830B  6833M  6834M
                                                  6834B  6837M  6838M  6838B  6841M  6842M  6842B  6845M  6846M  6846B
                                                  6849M  6850M  6850B  6853M  6854M  6854B  6863M  6864M  6864B  6887M
                                                  6890B  6947   7026M  7027M  7027B  7068M  7069M  7069B  7111M  7112M
                                                  7112B  7153M  7154M  7154B  7195M  7196M  7196B  7238M  7239M  7239B
                                                  7281M  7282M  7282B  7322M  7323M  7323B  7364M  7365M  7365B  7405M
                                                  7406M  7406B  7446M  7447M  7447B  7478M  7479M  7479B  7521M  7522M
                                                  7522B  7562M  7563M  7563B  7604M  7605M  7605B  7645M  7646M  7646B
                                                  7686M  7687M  7687B  7728M  7729M  7729B  7763M  7764M  7764B  7795M
                                                  7796M  7796B  7828M  7829M  7829B  7860M  7861M  7861B  7892M  7893M
                                                  7893B  7925M  7926M  7926B  7959M  7960M  7960B  7990M  7991M  7991B
                                                  8022M  8023M  8023B  8053M  8054M  8054B  8084M  8085M  8085B  8116M
                                                  8117M  8117B  8160M  8161M  8161B  8203M  8204M  8204B  8246M  8247M
                                                  8247B  8289M  8290M  8290B  8331M  8332M  8332B  8373M  8374M  8374B
1ITEST    (ITES2010) (12:47) (15MAR04) Ordinary Symbol and Literal Cross Reference                                          Page   76
                                                  8408M  8409M  8409B  8454M  8455M  8455B  8497M  8498M  8498B  8540M
                                                  8541M  8541B  8589M  8590M  8590B  8620M  8621M  8621B  8666M  8667M
                                                  8667B  8712M  8713M  8713B  8739M  8742B  8815   8913M  8914M  8914B
                                                  8939M  8940M  8940B  8965M  8966M  8966B  9006M  9007M  9007B  9047M
                                                  9048M  9048B  9088M  9089M  9089B  9122M  9123M  9123B  9176M  9177M
                                                  9177B  9235M  9236M  9236B  9287M  9288M  9288B  9343M  9344M  9344B
                                                  9396M  9397M  9397B  9424M  9427B  9477   9539M  9540M  9540B  9566M
                                                  9567M  9567B  9593M  9594M  9594B  9620M  9621M  9621B  9647M  9648M
                                                  9648B  9674M  9675M  9675B  9701M  9702M  9702B  9728M  9729M  9729B
                                                  9754M  9755M  9755B  9780M  9781M  9781B  9806M  9807M  9807B  9832M
                                                  9833M  9833B  9858M  9859M  9859B  9884M  9885M  9885B  9917M  9918M
                                                  9918B  9943M  9944M  9944B  9969M  9970M  9970B  9995M  9996M  9996B
                                                 10021M 10022M 10022B 10047M 10048M 10048B 10073M 10074M 10074B 10101M
                                                 10102M 10102B 10128M 10129M 10129B 10155M 10156M 10156B 10182M 10183M
                                                 10183B 10209M 10210M 10210B 10236M 10237M 10237B 10263M 10264M 10264B
                                                 10290M 10291M 10291B 10316M 10317M 10317B 10342M 10343M 10343B 10368M
                                                 10369M 10369B 10394M 10395M 10395B 10420M 10421M 10421B 10446M 10447M
                                                 10447B 10475M 10476M 10476B 10501M 10502M 10502B 10527M 10528M 10528B
                                                 10553M 10554M 10554B 10579M 10580M 10580B 10605M 10606M 10606B 10638M
                                                 10639M 10639B 10666M 10667M 10667B 10691M 10692M 10692B 10716M 10717M
                                                 10717B 10741M 10742M 10742B 10766M 10767M 10767B 10796M 10797M 10797B
                                                 10821M 10822M 10822B 10846M 10847M 10847B 10875M 10876M 10876B 10900M
                                                 10901M 10901B 10925M 10926M 10926B 10950M 10951M 10951B 11012M 11013M
                                                 11013B 11056M 11057M 11057B 11116M 11117M 11117B 11160M 11161M 11161B
                                                 11220M 11221M 11221B 11264M 11265M 11265B 11325M 11326M 11326B 11369M
                                                 11370M 11370B 11428M 11429M 11429B 11472M 11473M 11473B 11532M 11533M
                                                 11533B 11576M 11577M 11577B 11612M 11613M 11613B 11646M 11647M 11647B
                                                 11697M 11698M 11698B 11747M 11748M 11748B 11774M 11777B 11863  11950M
                                                 11951M 11951B 12000M 12001M 12001B 12050M 12051M 12051B 12099M 12100M
                                                 12100B 12149M 12150M 12150B 12201M 12202M 12202B 12250M 12251M 12251B
                                                 12299M 12300M 12300B 12347M 12348M 12348B 12396M 12397M 12397B 12425M
                                                 12426M 12426B 12450M 12451M 12451B 12477M 12478M 12478B 12502M 12503M
                                                 12503B 12532M 12533M 12533B 12559M 12560M 12560B 12587M 12588M 12588B
                                                 12614M 12615M 12615B 12658M 12659M 12659B 12701M 12702M 12702B 12744M
                                                 12745M 12745B 12787M 12788M 12788B 12830M 12831M 12831B 12872M 12873M
                                                 12873B 12914M 12915M 12915B 12956M 12957M 12957B 13002M 13003M 13003B
                                                 13045M 13046M 13046B 13088M 13089M 13089B 13137M 13138M 13138B 13168M
                                                 13169M 13169B 13214M 13215M 13215B 13260M 13261M 13261B 13310M 13311M
                                                 13311B 13356M 13357M 13357B 13403M 13404M 13404B 13458M 13459M 13459B
                                                 13513M 13514M 13514B 13547M 13548M 13548B 13580M 13581M 13581B 13613M
                                                 13614M 13614B 13646M 13647M 13647B 13691M 13692M 13692B 13733M 13734M
                                                 13734B 13775M 13776M 13776B 13817M 13818M 13818B 13859M 13860M 13860B
                                                 13903M 13904M 13904B 13945M 13946M 13946B 13989M 13990M 13990B 14016M
                                                 14019B 14120  14187M 14188M 14188B 14218M 14219M 14219B 14250M 14251M
                                                 14251B 14282M 14283M 14283B 14312M 14313M 14313B 14343M 14344M 14344B
                                                 14375M 14376M 14376B 14406M 14407M 14407B 14439M 14440M 14440B 14471M
                                                 14472M 14472B 14514M 14515M 14515B 14556M 14557M 14557B 14597M 14598M
                                                 14598B 14639M 14640M 14640B 14681M 14682M 14682B 14722M 14723M 14723B
                                                 14765M 14766M 14766B 14806M 14807M 14807B 14848M 14849M 14849B 14890M
                                                 14891M 14891B 14931M 14932M 14932B 14973M 14974M 14974B 15007M 15008M
                                                 15008B 15040M 15041M 15041B 15092M 15093M 15093B 15139M 15140M 15140B
                                                 15182M 15183M 15183B 15223M 15224M 15224B 15264M 15265M 15265B 15306M
                                                 15307M 15307B 15347M 15348M 15348B 15388M 15389M 15389B 15431M 15432M
                                                 15432B 15473M 15474M 15474B 15515M 15516M 15516B 15557M 15558M 15558B
                                                 15599M 15600M 15600B 15641M 15642M 15642B 15668M 15671B 15730  15800M
                                                 15801M 15801B 15835M 15836M 15836B 15863M 15864M 15864B 15888M 15889M
                                                 15889B 15918M 15919M 15919B 15948M 15949M 15949B 15981M 15982M 15982B
                                                 16011M 16012M 16012B 16041M 16042M 16042B 16070M 16071M 16071B 16099M
                                                 16100M 16100B 16127M 16128M 16128B 16179M 16180M 16180B 16229M 16230M
1ITEST    (ITES2010) (12:47) (15MAR04) Ordinary Symbol and Literal Cross Reference                                          Page   77
                                                 16230B 16262M 16263M 16263B 16312M 16313M 16313B 16362M 16363M 16363B
                                                 16413M 16414M 16414B 16462M 16463M 16463B 16494M 16495M 16495B 16543M
                                                 16544M 16544B 16592M 16593M 16593B 16619M 16622B 16688  16765M 16766M
                                                 16766B 16808M 16809M 16809B 16851M 16852M 16852B 16894M 16895M 16895B
                                                 16936M 16937M 16937B 16978M 16979M 16979B 17024M 17025M 17025B 17067M
                                                 17068M 17068B 17110M 17111M 17111B 17159M 17160M 17160B 17190M 17191M
                                                 17191B 17236M 17237M 17237B 17282M 17283M 17283B 17310M 17311M 17311B
                                                 17337M 17340B 17385  17448M 17449M 17449B 17494M 17495M 17495B 17521M
                                                 17522M 17522B 17567M 17568M 17568B 17594M 17595M 17595B 17640M 17641M
                                                 17641B 17667M 17668M 17668B 17713M 17714M 17714B 17740M 17741M 17741B
                                                 17786M 17787M 17787B 17813M 17814M 17814B 17859M 17860M 17860B 17886M
                                                 17887M 17887B 17936M 17937M 17937B 17985M 17986M 17986B 18034M 18035M
                                                 18035B 18083M 18084M 18084B 18132M 18133M 18133B 18181M 18182M 18182B
                                                 18224M 18225M 18225B 18266M 18267M 18267B 18308M 18309M 18309B 18350M
                                                 18351M 18351B 18383M 18384M 18384B 18415M 18416M 18416B 18447M 18448M
                                                 18448B 18479M 18480M 18480B 18508M 18509M 18509B 18554M 18555M 18555B
                                                 18581M 18582M 18582B 18627M 18628M 18628B 18654M 18655M 18655B 18700M
                                                 18701M 18701B 18727M 18728M 18728B 18773M 18774M 18774B 18800M 18801M
                                                 18801B 18846M 18847M 18847B 18873M 18874M 18874B 18919M 18920M 18920B
                                                 18946M 18947M 18947B 18996M 18997M 18997B 19045M 19046M 19046B 19094M
                                                 19095M 19095B 19143M 19144M 19144B 19192M 19193M 19193B 19241M 19242M
                                                 19242B 19284M 19285M 19285B 19326M 19327M 19327B 19368M 19369M 19369B
                                                 19410M 19411M 19411B 19443M 19444M 19444B 19475M 19476M 19476B 19507M
                                                 19508M 19508B 19539M 19540M 19540B 19567M 19570B 19666  19770M 19771M
                                                 19771B 19809M 19810M 19810B 19838M 19839M 19839B 19868M 19869M 19869B
                                                 19895M 19896M 19896B 19922M 19923M 19923B 19949M 19950M 19950B 19978M
                                                 19979M 19979B 20006M 20007M 20007B 20034M 20035M 20035B 20088M 20089M
                                                 20089B 20136M 20137M 20137B 20185M 20186M 20186B 20231M 20232M 20232B
                                                 20277M 20278M 20278B 20320M 20321M 20321B 20362M 20363M 20363B 20405M
                                                 20406M 20406B 20447M 20448M 20448B 20490M 20491M 20491B 20533M 20534M
                                                 20534B 20575M 20576M 20576B 20618M 20619M 20619B 20660M 20661M 20661B
                                                 20701M 20702M 20702B 20743M 20744M 20744B 20784M 20785M 20785B 20826M
                                                 20827M 20827B 20858M 20859M 20859B 20901M 20902M 20902B 20943M 20944M
                                                 20944B 20984M 20985M 20985B 21026M 21027M 21027B 21067M 21068M 21068B
                                                 21109M 21110M 21110B 21151M 21152M 21152B 21186M 21187M 21187B 21219M
                                                 21220M 21220B 21251M 21252M 21252B 21284M 21285M 21285B 21316M 21317M
                                                 21317B 21349M 21350M 21350B 21382M 21383M 21383B 21414M 21415M 21415B
                                                 21448M 21449M 21449B 21480M 21481M 21481B 21511M 21512M 21512B 21543M
                                                 21544M 21544B 21574M 21575M 21575B 21606M 21607M 21607B 21638M 21639M
                                                 21639B 21666M 21669B 21761  21832M 21833M 21833B 21857M 21858M 21858B
                                                 21882M 21883M 21883B 21907M 21908M 21908B 21936M 21937M 21937B 21961M
                                                 21962M 21962B 21986M 21987M 21987B 22011M 22012M 22012B 22036M 22037M
                                                 22037B 22061M 22062M 22062B 22086M 22087M 22087B 22130M 22131M 22131B
                                                 22155M 22156M 22156B 22195M 22196M 22196B 22220M 22221M 22221B 22251M
                                                 22252M 22252B 22276M 22277M 22277B 22304M 22305M 22305B 22329M 22330M
                                                 22330B 22376M 22377M 22377B 22401M 22402M 22402B 22468M 22469M 22469B
                                                 22498M 22499M 22499B 22523M 22524M 22524B 22548M 22549M 22549B 22613M
                                                 22614M 22614B 22643M 22644M 22644B 22668M 22669M 22669B 22693M 22694M
                                                 22694B 22758M 22759M 22759B 22788M 22789M 22789B 22813M 22814M 22814B
                                                 22838M 22839M 22839B 22923M 22924M 22924B 22953M 22954M 22954B 22978M
                                                 22979M 22979B 23003M 23004M 23004B 23032M 23033M 23033B 23060M 23063B
                                                 23125  23187M 23190B 23217  23279M 23282B
 R0            0 00000000 FFFFFFFF A   #     699  2099   2168M  6421M  6421   6665M  6699M  6734M  6768M  6796M  6860M
                                                  7023M  7065M  7108M  7150M  7192M  7235M  7278M  7319M  7361M  7402M
                                                  7443M  7475M  7518M  7559M  7601M  7642M  7683M  7725M  7760M  7792M
                                                  7825M  7857M  7889M  7922M  7956M  7987M  8019M  8050M  8081M  8113M
                                                  8157M  8200M  8243M  8286M  8328M  8370M  8405M  8451M  8494M  8537M
                                                  8586M  8617M  8663M  8709M  8860M  8870M  8910M  8936M  8962M  9003M
                                                  9044M  9085M  9119M  9173M  9232M  9284M  9340M  9393M  9536M  9563M
1ITEST    (ITES2010) (12:47) (15MAR04) Ordinary Symbol and Literal Cross Reference                                          Page   78
                                                  9590M  9617M  9644M  9671M  9698M  9725M  9751M  9777M  9803M  9829M
                                                  9855M  9881M  9914M  9940M  9966M  9992M 10018M 10044M 10070M 10098M
                                                 10125M 10152M 10179M 10206M 10233M 10260M 10287M 10313M 10339M 10365M
                                                 10391M 10417M 10443M 10472M 10498M 10524M 10550M 10576M 10602M 10635M
                                                 10663M 10688M 10713M 10738M 10763M 10793M 10818M 10843M 10872M 10897M
                                                 10922M 10947M 11009M 11053M 11113M 11157M 11217M 11261M 11322M 11366M
                                                 11425M 11469M 11529M 11573M 11609M 11643M 11694M 11744M 11906M 11909M
                                                 11923  11947M 11956M 11959M 11973  11997M 12006M 12009M 12023  12047M
                                                 12056M 12059M 12073  12096M 12105M 12108M 12122  12146M 12158M 12160M
                                                 12174  12198M 12207M 12209M 12223  12247M 12256M 12258M 12272  12296M
                                                 12305M 12307M 12321  12344M 12353M 12355M 12369  12393M 12422M 12447M
                                                 12474M 12499M 12529M 12556M 12584M 12611M 12655M 12698M 12741M 12784M
                                                 12827M 12869M 12911M 12953M 12999M 13042M 13085M 13134M 13165M 13211M
                                                 13257M 13307M 13353M 13400M 13455M 13510M 13544M 13577M 13610M 13643M
                                                 13688M 13730M 13772M 13814M 13856M 13900M 13942M 13986M 14184M 14215M
                                                 14247M 14279M 14309M 14340M 14372M 14403M 14436M 14468M 14511M 14553M
                                                 14594M 14636M 14678M 14719M 14762M 14803M 14845M 14887M 14928M 14970M
                                                 15004M 15037M 15089M 15136M 15179M 15220M 15261M 15303M 15344M 15385M
                                                 15428M 15470M 15512M 15554M 15596M 15638M 15797M 15832M 15860M 15885M
                                                 15915M 15945M 15978M 16008M 16038M 16067M 16096M 16124M 16135M 16138M
                                                 16152  16176M 16185M 16188M 16202  16226M 16235M 16238M 16259M 16268M
                                                 16271M 16285  16309M 16318M 16321M 16335  16359M 16370M 16372M 16386
                                                 16410M 16419M 16421M 16435  16459M 16468M 16470M 16491M 16500M 16502M
                                                 16516  16540M 16549M 16551M 16565  16589M 16762M 16805M 16848M 16891M
                                                 16933M 16975M 17021M 17064M 17107M 17156M 17187M 17233M 17279M 17307M
                                                 17427M 17429M 17445M 17467  17491M 17500M 17502M 17518M 17540  17564M
                                                 17573M 17575M 17591M 17613  17637M 17646M 17648M 17664M 17686  17710M
                                                 17719M 17721M 17737M 17759  17783M 17792M 17794M 17810M 17832  17856M
                                                 17865M 17867M 17883M 17893M 17895M 17909  17933M 17942M 17944M 17958
                                                 17982M 17991M 17993M 18007  18031M 18040M 18042M 18056  18080M 18089M
                                                 18091M 18105  18129M 18138M 18140M 18154  18178M 18221M 18263M 18305M
                                                 18347M 18380M 18412M 18444M 18476M 18487M 18489M 18505M 18527  18551M
                                                 18560M 18562M 18578M 18600  18624M 18633M 18635M 18651M 18673  18697M
                                                 18706M 18708M 18724M 18746  18770M 18779M 18781M 18797M 18819  18843M
                                                 18852M 18854M 18870M 18892  18916M 18925M 18927M 18943M 18953M 18955M
                                                 18969  18993M 19002M 19004M 19018  19042M 19051M 19053M 19067  19091M
                                                 19100M 19102M 19116  19140M 19149M 19151M 19165  19189M 19198M 19200M
                                                 19214  19238M 19281M 19323M 19365M 19407M 19440M 19472M 19504M 19536M
                                                 19767M 19806M 19835M 19865M 19892M 19919M 19946M 19975M 20003M 20031M
                                                 20085M 20133M 20182M 20209  20228M 20274M 20317M 20359M 20402M 20444M
                                                 20487M 20530M 20572M 20615M 20657M 20698M 20740M 20781M 20823M 20855M
                                                 20898M 20940M 20981M 21023M 21064M 21106M 21148M 21183M 21216M 21248M
                                                 21281M 21313M 21346M 21379M 21411M 21445M 21477M 21508M 21540M 21571M
                                                 21603M 21635M 21829M 21854M 21879M 21904M 21933M 21958M 21983M 22008M
                                                 22033M 22058M 22083M 22127M 22152M 22192M 22217M 22248M 22273M 22301M
                                                 22326M 22373M 22398M 22408M 22441  22465M 22495M 22520M 22545M 22554M
                                                 22588  22610M 22640M 22665M 22690M 22699M 22733  22755M 22785M 22810M
                                                 22835M 22844M 22898  22920M 22950M 22975M 23000M 23029M
 R1            1 00000001 FFFFFFFF A   #     712  2162M  2163M  2169M  6643M  6655   6664M  6677M  6689   6698M  6711
                                                  6733M  6746M  6749   6767M  6795M  6859M  6989M  6991M  7013   7022M
                                                  7032M  7034M  7055   7064M  7074M  7076M  7098   7107M  7117M  7119M
                                                  7140   7149M  7159M  7161M  7182   7191M  7201M  7203M  7225   7234M
                                                  7245M  7246M  7268   7277M  7287M  7288M  7309   7318M  7328M  7329M
                                                  7351   7360M  7370M  7371M  7392   7401M  7411M  7412M  7433   7442M
                                                  7452M  7453M  7465   7474M  7485M  7486M  7508   7517M  7527M  7528M
                                                  7549   7558M  7568M  7569M  7591   7600M  7610M  7611M  7632   7641M
                                                  7651M  7652M  7673   7682M  7692M  7693M  7715   7724M  7736M  7738M
                                                  7750   7759M  7769M  7771M  7782   7791M  7801M  7803M  7815   7824M
                                                  7834M  7836M  7847   7856M  7866M  7868M  7879   7888M  7898M  7900M
1ITEST    (ITES2010) (12:47) (15MAR04) Ordinary Symbol and Literal Cross Reference                                          Page   79
                                                  7912   7921M  7933M  7934M  7946   7955M  7965M  7966M  7977   7986M
                                                  7996M  7997M  8009   8018M  8028M  8029M  8040   8049M  8059M  8060M
                                                  8071   8080M  8090M  8091M  8103   8112M  8123M  8125M  8147   8156M
                                                  8166M  8168M  8190   8199M  8209M  8211M  8233   8242M  8253M  8254M
                                                  8276   8285M  8295M  8296M  8318   8327M  8337M  8338M  8360   8369M
                                                  8380M  8381   8383M  8395   8404M  8415M  8416   8419M  8441   8450M
                                                  8462M  8484   8493M  8505M  8527   8536M  8547M  8548   8554M  8576
                                                  8585M  8616M  8626M  8627   8631M  8653   8662M  8672M  8673   8677M
                                                  8699   8708M  8893M  8894M  8894   8909M  8919M  8920M  8920   8935M
                                                  8945M  8946M  8946   8961M  8971M  8972M  8972   9002M  9012M  9013M
                                                  9013   9043M  9053M  9054M  9054   9084M  9096M  9097M  9109   9118M
                                                  9130M  9134M  9134   9149   9172M  9231M  9283M  9339M  9392M  9518M
                                                  9520   9535M  9545M  9547   9562M  9572M  9574   9589M  9599M  9601
                                                  9616M  9626M  9628   9643M  9653M  9655   9670M  9680M  9682   9697M
                                                  9708M  9709   9724M  9734M  9735   9750M  9760M  9761   9776M  9786M
                                                  9787   9802M  9812M  9813   9828M  9838M  9839   9854M  9864M  9865
                                                  9880M  9897M  9898   9913M  9923M  9924   9939M  9949M  9950   9965M
                                                  9975M  9976   9991M 10001M 10002  10017M 10027M 10028  10043M 10053M
                                                 10054  10069M 10080M 10082  10097M 10107M 10109  10124M 10134M 10136
                                                 10151M 10161M 10163  10178M 10188M 10190  10205M 10215M 10217  10232M
                                                 10242M 10244  10259M 10270M 10271  10286M 10296M 10297  10312M 10322M
                                                 10323  10338M 10348M 10349  10364M 10374M 10375  10390M 10400M 10401
                                                 10416M 10426M 10427  10442M 10453M 10454  10471M 10497M 10523M 10549M
                                                 10575M 10601M 10614M 10625  10634M 10662M 10687M 10712M 10737M 10762M
                                                 10773M 10777  10792M 10817M 10827  10842M 10852M 10856  10871M 10896M
                                                 10906  10921M 10946M 11008M 11052M 11112M 11156M 11216M 11260M 11321M
                                                 11365M 11424M 11468M 11528M 11572M 11583M 11585  11587M 11599  11608M
                                                 11618M 11620  11622M 11633  11642M 11653M 11654  11655M 11670  11693M
                                                 11703M 11704  11705M 11720  11743M 11907M 11937  11946M 11957M 11987
                                                 11996M 12007M 12037  12046M 12057M 12086  12095M 12106M 12136  12145M
                                                 12159M 12188  12197M 12208M 12237  12246M 12257M 12286  12295M 12306M
                                                 12334  12343M 12354M 12383  12392M 12421M 12446M 12473M 12498M 12512M
                                                 12528M 12538M 12539  12555M 12567M 12583M 12593M 12594  12610M 12621M
                                                 12623M 12645  12654M 12664M 12666M 12688  12697M 12707M 12709M 12731
                                                 12740M 12750M 12752M 12774  12783M 12794M 12795M 12817  12826M 12836M
                                                 12837M 12859  12868M 12878M 12879M 12901  12910M 12920M 12921M 12943
                                                 12952M 12963M 12964  12967M 12989  12998M 13010M 13032  13041M 13053M
                                                 13075  13084M 13095M 13096  13102M 13124  13133M 13164M 13174M 13175
                                                 13179M 13201  13210M 13220M 13221  13225M 13247  13256M 13271M 13274M
                                                 13276  13306M 13317M 13318M 13318  13321M 13323  13352M 13364M 13367M
                                                 13369  13399M 13409M 13410  13411M 13412  13413M 13416M 13418  13433M
                                                 13445  13454M 13464M 13465  13466M 13467  13468M 13471M 13473  13488M
                                                 13500  13509M 13520M 13522M 13534  13543M 13553M 13555M 13567  13576M
                                                 13586M 13588M 13600  13609M 13619M 13621M 13633  13642M 13653M 13654
                                                 13655M 13656M 13678  13687M 13697M 13698M 13720  13729M 13739M 13740M
                                                 13762  13771M 13781M 13782M 13804  13813M 13823M 13824M 13846  13855M
                                                 13865M 13866  13867M 13868M 13890  13899M 13909M 13910M 13932  13941M
                                                 13951M 13952  13953M 13954M 13976  13985M 14161M 14162  14183M 14193M
                                                 14194  14214M 14224M 14225  14246M 14257M 14269  14278M 14288M 14299
                                                 14308M 14318M 14330  14339M 14350M 14362  14371M 14381M 14393  14402M
                                                 14414M 14426  14435M 14445M 14446  14467M 14478M 14479M 14479  14501
                                                 14510M 14520M 14521M 14521  14543  14552M 14562M 14563M 14563  14584
                                                 14593M 14604M 14626  14635M 14646M 14668  14677M 14688M 14709  14718M
                                                 14729M 14730M 14730  14752  14761M 14771M 14772M 14772  14793  14802M
                                                 14812M 14813M 14813  14835  14844M 14855M 14877  14886M 14897M 14918
                                                 14927M 14938M 14960  14969M 14980M 14981  14982M 14994  15003M 15013M
                                                 15014  15015M 15027  15036M 15047M 15050  15051M 15065  15088M 15098M
                                                 15112  15135M 15146M 15147M 15147  15169  15178M 15188M 15189M 15189
                                                 15210  15219M 15229M 15230M 15230  15251  15260M 15271M 15293  15302M
1ITEST    (ITES2010) (12:47) (15MAR04) Ordinary Symbol and Literal Cross Reference                                          Page   80
                                                 15313M 15334  15343M 15354M 15375  15384M 15395M 15396M 15396  15418
                                                 15427M 15437M 15438M 15438  15460  15469M 15479M 15480M 15480  15502
                                                 15511M 15522M 15544  15553M 15564M 15586  15595M 15606M 15628  15637M
                                                 15775M 15787  15796M 15810M 15822  15831M 15859M 15884M 15914M 15944M
                                                 15977M 16007M 16037M 16066M 16095M 16123M 16136M 16166  16175M 16186M
                                                 16216  16225M 16236M 16249  16258M 16269M 16299  16308M 16319M 16349
                                                 16358M 16371M 16400  16409M 16420M 16449  16458M 16469M 16481  16490M
                                                 16501M 16530  16539M 16550M 16579  16588M 16728M 16730M 16752  16761M
                                                 16771M 16773M 16795  16804M 16814M 16816M 16838  16847M 16858M 16859M
                                                 16881  16890M 16900M 16901M 16923  16932M 16942M 16943M 16965  16974M
                                                 16985M 16986  16989M 17011  17020M 17032M 17054  17063M 17075M 17097
                                                 17106M 17117M 17118  17124M 17146  17155M 17186M 17196M 17197  17201M
                                                 17223  17232M 17242M 17243  17247M 17269  17278M 17306M 17428M 17444M
                                                 17481  17490M 17501M 17517M 17554  17563M 17574M 17590M 17627  17636M
                                                 17647M 17663M 17700  17709M 17720M 17736M 17773  17782M 17793M 17809M
                                                 17846  17855M 17866M 17882M 17894M 17923  17932M 17943M 17972  17981M
                                                 17992M 18021  18030M 18041M 18070  18079M 18090M 18119  18128M 18139M
                                                 18168  18177M 18188M 18189M 18211  18220M 18230M 18231M 18253  18262M
                                                 18272M 18273M 18295  18304M 18314M 18315M 18337  18346M 18357M 18358M
                                                 18370  18379M 18389M 18390M 18402  18411M 18421M 18422M 18434  18443M
                                                 18453M 18454M 18466  18475M 18488M 18504M 18541  18550M 18561M 18577M
                                                 18614  18623M 18634M 18650M 18687  18696M 18707M 18723M 18760  18769M
                                                 18780M 18796M 18833  18842M 18853M 18869M 18906  18915M 18926M 18942M
                                                 18954M 18983  18992M 19003M 19032  19041M 19052M 19081  19090M 19101M
                                                 19130  19139M 19150M 19179  19188M 19199M 19228  19237M 19248M 19249M
                                                 19271  19280M 19290M 19291M 19313  19322M 19332M 19333M 19355  19364M
                                                 19374M 19375M 19397  19406M 19417M 19418M 19430  19439M 19449M 19450M
                                                 19462  19471M 19481M 19482M 19494  19503M 19513M 19514M 19526  19535M
                                                 19707M 19708  19766M 19777M 19778  19779M 19780  19781M 19782  19783M
                                                 19784  19805M 19834M 19864M 19874M 19875  19891M 19901M 19902  19918M
                                                 19928M 19929  19945M 19956M 19957  19958  19974M 19984M 19985  19986
                                                 20002M 20012M 20013  20014  20030M 20041M 20045  20084M 20132M 20142
                                                 20142  20181M 20210  20211  20227M 20240M 20242M 20264  20273M 20283M
                                                 20285M 20307  20316M 20326M 20328M 20349  20358M 20368M 20370M 20392
                                                 20401M 20411M 20413M 20434  20443M 20453M 20455M 20477  20486M 20496M
                                                 20498M 20520  20529M 20539M 20540M 20540  20562  20571M 20582M 20583M
                                                 20605  20614M 20624M 20625M 20647  20656M 20666M 20667M 20688  20697M
                                                 20707M 20708M 20730  20739M 20749M 20750M 20771  20780M 20790M 20791M
                                                 20813  20822M 20832M 20833M 20845  20854M 20865M 20866M 20888  20897M
                                                 20907M 20908M 20930  20939M 20949M 20950M 20971  20980M 20990M 20991M
                                                 21013  21022M 21032M 21033M 21054  21063M 21073M 21074M 21096  21105M
                                                 21115M 21116M 21138  21147M 21159M 21161M 21173  21182M 21192M 21194M
                                                 21206  21215M 21225M 21227M 21238  21247M 21257M 21259M 21271  21280M
                                                 21290M 21292M 21303  21312M 21322M 21324M 21336  21345M 21355M 21357M
                                                 21369  21378M 21388M 21389M 21389  21401  21410M 21422M 21423M 21435
                                                 21444M 21454M 21455M 21467  21476M 21486M 21487M 21498  21507M 21517M
                                                 21518M 21530  21539M 21549M 21550M 21561  21570M 21580M 21581M 21593
                                                 21602M 21612M 21613M 21625  21634M 21809M 21810  21828M 21853M 21878M
                                                 21903M 21913M 21914  21932M 21957M 21982M 22007M 22032M 22057M 22082M
                                                 22092M 22093  22126M 22151M 22191M 22216M 22247M 22272M 22300M 22325M
                                                 22372M 22397M 22409M 22455  22464M 22494M 22519M 22544M 22555M 22600
                                                 22609M 22639M 22664M 22689M 22700M 22745  22754M 22784M 22809M 22834M
                                                 22845M 22910  22919M 22949M 22974M 22999M 23028M
 R10          10 0000000A FFFFFFFF A   #     829 20203
 R11          11 0000000B FFFFFFFF A   #     842 20204
 R12          12 0000000C FFFFFFFF A   #     855  2125  20205
 R13          13 0000000D FFFFFFFF A   #     868 20206
 R14          14 0000000E FFFFFFFF A   #     881  2100M 20192M 20207
 R15          15 0000000F FFFFFFFF A   #     894  2099   6404M  6429M  6452M  6452   6553M  6553   6889M  6889   8741M
1ITEST    (ITES2010) (12:47) (15MAR04) Ordinary Symbol and Literal Cross Reference                                          Page   81
                                                  8741   9426M  9426  11776M 11776  14018M 14018  15670M 15670  16621M
                                                 16621  17339M 17339  19569M 19569  20193M 20208  21668M 21668  23062M
                                                 23062  23189M 23189  23281M 23281
 R2            2 00000002 FFFFFFFF A   #     725  6747M  6750   6990M  6991   7033M  7034   7075M  7076   7118M  7119
                                                  7160M  7161   7202M  7203   7737M  7738   7770M  7771   7802M  7803
                                                  7835M  7836   7867M  7868   7899M  7900   8124M  8125   8167M  8168
                                                  8210M  8211   8549M  8550   8595M  8607   8628M  8629   8674M  8675
                                                  9184M  9190M  9190   9208   9241M  9246M  9246   9261   9295M  9301M
                                                  9301   9316   9349M  9354M  9354   9369   9519M  9520   9546M  9547
                                                  9573M  9574   9600M  9601   9627M  9628   9654M  9655   9681M  9682
                                                 10081M 10082  10108M 10109  10135M 10136  10162M 10163  10189M 10190
                                                 10216M 10217  10243M 10244  10615M 10625  10774M 10802  10853M 10881
                                                 10931  10959M 10963M 11031  11062M 11067M 11135  11166M 11171M 11239
                                                 11272M 11276M 11344  11375M 11379M 11447  11478M 11483M 11551  11584M
                                                 11586  11619M 11621  11656M 11684  11706M 11734  11908M 11909  11958M
                                                 11959  12008M 12009  12058M 12059  12107M 12108  12622M 12623  12665M
                                                 12666  12708M 12709  12751M 12752  13097M 13098  13143M 13155  13176M
                                                 13177  13222M 13223  14162M 14174  14194M 14205  14225M 14237  14412M
                                                 14414  14446M 14458  15048M 15051M 15079  15098M 15126  15896M 15899M
                                                 15957M 15961M 15987M 15991M 16017M 16021M 16137M 16138  16187M 16188
                                                 16237M 16238  16270M 16271  16320M 16321  16729M 16730  16772M 16773
                                                 16815M 16816  17119M 17120  17165M 17177  17198M 17199  17244M 17245
                                                 19709M 19710  20042M 20195  20211  20241M 20242  20284M 20285  20327M
                                                 20328  20369M 20370  20412M 20413  20454M 20455  20497M 20498  21160M
                                                 21161  21193M 21194  21226M 21227  21258M 21259  21291M 21292  21323M
                                                 21324  21356M 21357  21811M 21812  21915M 21916  22094M 22095  22410M
                                                 22485  22556M 22630  22701M 22775  22846M 22940
 R3            3 00000003 FFFFFFFF A   #     738  6748M  6751   8551M  8552   9185M  9191M  9222   9242M  9247M  9274
                                                  9296M  9302M  9330   9350M  9355M  9383  10775M 10776  10854M 10855
                                                 10960M 10985  11018M 11031  11063M 11089  11122M 11135  11167M 11193
                                                 11226M 11239  11273M 11298  11331M 11344  11376M 11401  11434M 11447
                                                 11479M 11505  11538M 11551  13099M 13100  14413M 14414  14603M 14604
                                                 14645M 14646  14687M 14688  14854M 14855  14896M 14897  14937M 14938
                                                 15049M 15050  15270M 15271  15312M 15313  15353M 15354  15521M 15522
                                                 15563M 15564  15605M 15606  15897M 15958M 15988M 16018M 17121M 17122
                                                 19711M 19712  19816M 19817  19818  19855  20043M 20196  22557M 22600
                                                 22702M 22745  22847M 22910
 R4            4 00000004 FFFFFFFF A   #     751  9186M  9191   9297M  9302  10961M 10963M 11043  11064M 11067M 11147
                                                 11168M 11171M 11251  11274M 11276M 11356  11377M 11379M 11459  11480M
                                                 11483M 11563  15899M 15959M 15961M 15989M 15991M 16019M 16021M 20044M
                                                 20045  20197
 R5            5 00000005 FFFFFFFF A   #     764  9187M  9243M  9247   9298M  9351M  9355  10962M 10999  11019M 11043
                                                 11065M 11066M 11103  11123M 11147  11169M 11170M 11207  11227M 11251
                                                 11275M 11312  11332M 11356  11378M 11415  11435M 11459  11481M 11482M
                                                 11519  11539M 11563  15898M 15960M 15990M 16020M 20194M 20198  22337M
                                                 22340M 22342  22856M 22857M 22857  22860M 22862
 R6            6 00000006 FFFFFFFF A   #     777  8861M  8871M  9131M  9135M  9163  20191M 20194  20199
 R7            7 00000007 FFFFFFFF A   #     790  2092M  2092   2093B  2105B 20200
 R8            8 00000008 FFFFFFFF A   #     803  6636U  6982U  8850U  9512U 11898U 14155U 15765U 16723U 17420U 19701U
                                                 20201  21796U 23160U 23252U
 R9            9 00000009 FFFFFFFF A   #     816 20202
 SDSNQSZ       1 0000002C FFFFFFEC A   U    6080  6081   6082
 SEGCR         1 00000000 00000002     T    6900  6900
 SEGWR         1 00000000 00000003     T    6901  6901
 SPR          13 0000000D 00000001 A   #    1104  6356   6359   6360   6361M  6361   6444M  6448   6450   6475   6478
                                                  6479   6480M  6480   6545M  6549   6551   6601   6604   6606   6607M
                                                  6607   6881M  6885   6887   6947   6950   6952   6953M  6953   8733M
                                                  8737   8739   8815   8818   8820   8821M  8821   9418M  9422   9424
                                                  9477   9480   9482   9483M  9483  11768M 11772  11774  11863  11866
1ITEST    (ITES2010) (12:47) (15MAR04) Ordinary Symbol and Literal Cross Reference                                          Page   82
                                                 11868  11869M 11869  14010M 14014  14016  14120  14123  14125  14126M
                                                 14126  15662M 15666  15668  15730  15733  15735  15736M 15736  16613M
                                                 16617  16619  16688  16691  16693  16694M 16694  17331M 17335  17337
                                                 17385  17388  17390  17391M 17391  19561M 19565  19567  19666  19669
                                                 19671  19672M 19672  21660M 21664  21666  21761  21764  21766  21767M
                                                 21767  23054M 23058  23060  23125  23128  23130  23131M 23131  23181M
                                                 23185  23187  23217  23220  23222  23223M 23223  23273M 23277  23279
 TRC           1 00000000 00000000 A   T    2121  2121
 TTYFLAG       1 00000004 FFFFFFEA     R    6209  6213
 TTYMAX#       1 00000006 FFFFFFEA A   U    6265  6266
 TTYTFLAG      1 00000005 FFFFFFEA     R    6219  6223   6228   6233   6238   6243   6248   6253
 UPPTBL        1 00000000 00000000 A   T    2184  2184
 WAR           8 00000008 00000001 A   #    1027  6360M  6444   6479M  6545   6606M  6881   6952M  8733   8820M  9418
                                                  9482M 11768  11868M 14010  14125M 15662  15735M 16613  16693M 17331
                                                 17390M 19561  19671M 21660  21766M 23054  23130M 23181  23222M 23273
 WITEST        2 00000066 00000001     H    6469  6465
 WTOSG         1 00000000 00000000 A   T    2081  2081
 WYLITEST      1 00000000 00000001     J     991   993   1009   1022   1035   1047   1060   1073   1086   1099   1112
                                                  1125   2365   2449   6189   6301   6306   6337   6586
 =A(-100000000)
               4 00002998 00000001     A   16656 16249  16481
 =A(-123)      4 000024A0 00000001     A   15685 14205  14299
 =A(-25594)
               4 0000153C 00000001     A   11816 11633
 =A(-3)        4 000008B8 00000001     A    8759  7055   7309   7549   7782   7977
 =A(-3)        4 00003D30 00000001     A   21710 20349  20688  20971  21238  21498
 =A(-4)        4 00000B94 00000001     A    9451  9274
 =A(-4)        4 000024C8 00000001     A   15695 14584  14709  14793  14918  15210  15251  15334  15375
 =A(-4000)
               4 000008E0 00000001     A    8769  7632   7673
 =A(-4000)
               4 00003D5C 00000001     A   21721 21054
 =A(-4000000)
               4 000008CC 00000001     A    8764  7140   7182   7392   7433   7847   7879   8040   8071
 =A(-4000000)
               4 00003D44 00000001     A   21715 20434  20771  21303  21561
 =A(-43565)
               4 00001E0C 00000001     A   14045 12086  12334
 =A(DOTEST1)
               4 00000204 00000001     A    6911  6813
 =A(DOTEST10)
               4 00000224 00000001     A    6919  6845
 =A(DOTEST11)
               4 00000228 00000001     A    6920  6849
 =A(DOTEST12)
               4 0000022C 00000001     A    6921  6853
 =A(DOTEST2)
               4 00000208 00000001     A    6912  6817
 =A(DOTEST3)
               4 0000020C 00000001     A    6913  6821
 =A(DOTEST4)
               4 00000210 00000001     A    6914  6825
 =A(DOTEST6)
               4 00000214 00000001     A    6915  6829
 =A(DOTEST7)
               4 00000218 00000001     A    6916  6833
 =A(DOTEST8)
               4 0000021C 00000001     A    6917  6837
 =A(DOTEST9)
1ITEST    (ITES2010) (12:47) (15MAR04) Ordinary Symbol and Literal Cross Reference                                          Page   83
               4 00000220 00000001     A    6918  6841
 =A(ITEST)
               4 000001E4 00000001     A    6903  6532
 =A(MWRITE)
               4 000001F0 00000001     A    6906  6668   6702   6737   6771   6799   6863
 =A(MWRITE)
               4 000008AC 00000001     A    8756  7026   7068   7111   7153   7195   7238   7281   7322   7364   7405
                                                  7446   7478   7521   7562   7604   7645   7686   7728   7763   7795
                                                  7828   7860   7892   7925   7959   7990   8022   8053   8084   8116
                                                  8160   8203   8246   8289   8331   8373   8408   8454   8497   8540
                                                  8589   8620   8666   8712
 =A(MWRITE)
               4 00000B5C 00000001     A    9437  8913   8939   8965   9006   9047   9088   9122   9176   9235   9287
                                                  9343   9396
 =A(MWRITE)
               4 000014A0 00000001     A   11789  9539   9566   9593   9620   9647   9674   9701   9728   9754   9780
                                                  9806   9832   9858   9884   9917   9943   9969   9995  10021  10047
                                                 10073  10101  10128  10155  10182  10209  10236  10263  10290  10316
                                                 10342  10368  10394  10420  10446  10475  10501  10527  10553  10579
                                                 10605  10638  10666  10691  10716  10741  10766  10796  10821  10846
                                                 10875  10900  10925  10950  11012  11056  11116  11160  11220  11264
                                                 11325  11369  11428  11472  11532  11576  11612  11646  11697  11747
 =A(MWRITE)
               4 00001DE4 00000001     A   14035 11950  12000  12050  12099  12149  12201  12250  12299  12347  12396
                                                 12425  12450  12477  12502  12532  12559  12587  12614  12658  12701
                                                 12744  12787  12830  12872  12914  12956  13002  13045  13088  13137
                                                 13168  13214  13260  13310  13356  13403  13458  13513  13547  13580
                                                 13613  13646  13691  13733  13775  13817  13859  13903  13945  13989
 =A(MWRITE)
               4 00002498 00000001     A   15683 14187  14218  14250  14282  14312  14343  14375  14406  14439  14471
                                                 14514  14556  14597  14639  14681  14722  14765  14806  14848  14890
                                                 14931  14973  15007  15040  15092  15139  15182  15223  15264  15306
                                                 15347  15388  15431  15473  15515  15557  15599  15641
 =A(MWRITE)
               4 000028F4 00000001     A   16633 15800  15835  15863  15888  15918  15948  15981  16011  16041  16070
                                                 16099  16127  16179  16229  16262  16312  16362  16413  16462  16494
                                                 16543  16592
 =A(MWRITE)
               4 00002C84 00000001     A   17353 16765  16808  16851  16894  16936  16978  17024  17067  17110  17159
                                                 17190  17236  17282  17310
 =A(MWRITE)
               4 00003410 00000001     A   19581 17448  17494  17521  17567  17594  17640  17667  17713  17740  17786
                                                 17813  17859  17886  17936  17985  18034  18083  18132  18181  18224
                                                 18266  18308  18350  18383  18415  18447  18479  18508  18554  18581
                                                 18627  18654  18700  18727  18773  18800  18846  18873  18919  18946
                                                 18996  19045  19094  19143  19192  19241  19284  19326  19368  19410
                                                 19443  19475  19507  19539
 =A(MWRITE)
               4 00003CCC 00000001     A   21685 19770  19809  19838  19868  19895  19922  19949  19978  20006  20034
                                                 20088  20136  20185  20231  20277  20320  20362  20405  20447  20490
                                                 20533  20575  20618  20660  20701  20743  20784  20826  20858  20901
                                                 20943  20984  21026  21067  21109  21151  21186  21219  21251  21284
                                                 21316  21349  21382  21414  21448  21480  21511  21543  21574  21606
                                                 21638
 =A(MWRITE)
               4 00004378 00000001     A   23080 21832  21857  21882  21907  21936  21961  21986  22011  22036  22061
                                                 22086  22130  22155  22195  22220  22251  22276  22304  22329  22376
                                                 22401  22468  22498  22523  22548  22613  22643  22668  22693  22758
                                                 22788  22813  22838  22923  22953  22978  23003  23032
1ITEST    (ITES2010) (12:47) (15MAR04) Ordinary Symbol and Literal Cross Reference                                          Page   84
 =A(X'AA000000')
               4 00001E34 00000001     A   14055 12989
 =A(X'C0506070')
               4 00003420 00000001     A   19585 17540
 =A(X'D0D00000')
               4 00001EC0 00000001     A   14084 13976
 =A(X'D0D00102')
               4 00001EA8 00000001     A   14078 13762
 =A(X'E0700000')
               4 00003414 00000001     A   19582 17467
 =A(X'FFFFFFFF')
               4 000034AC 00000001     A   19620 18527  18600
 =A(X'FFFFFF00')
               4 000034EC 00000001     A   19636 19313
 =A(X'FFFFF0F0')
               4 000024D0 00000001     A   15697 14994
 =A(X'FFFFF010')
               4 000034B0 00000001     A   19621 18541
 =A(X'FFF01020')
               4 000034B8 00000001     A   19623 18673
 =A(X'FFF80010')
               4 000034E8 00000001     A   19635 19271
 =A(X'FF00D012')
               4 000028F0 00000001     A   16632 15787
 =A(X'F0D0D0F1')
               4 00001EBC 00000001     A   14083 13932
 =A(X'F0FF000F')
               4 00001E74 00000001     A   14067 13500
 =A(X'F0F0FFFF')
               4 00001E30 00000001     A   14054 12731  12901
 =A(X'F0F0FFFF')
               4 00002C80 00000001     A   17352 16752  16881  17146
 =A(X'F0F0F0F0')
               4 0000090C 00000001     A    8780  8607
 =A(X'F0F0F0F0')
               4 00001E40 00000001     A   14058 13155
 =A(X'F0F0F0F0')
               4 000024E4 00000001     A   15702 15065
 =A(X'F0F0F0F0')
               4 00002C8C 00000001     A   17355 16795  16923  17177  17223
 =A(X'F0F00F0F')
               4 00001E24 00000001     A   14051 12645  12817  13124
 =A(X'F0F00000')
               4 000008F4 00000001     A    8774  8190   8318   8653
 =A(X'F0F1F2F3')
               4 00003CE4 00000001     A   21691 19855
 =A(X'F000F000')
               4 000034A4 00000001     A   19618 18434
 =A(X'F0000000')
               4 00000904 00000001     A    8778  8484
 =A(X'F0000000')
               4 000014F8 00000001     A   11807 11103  11207
 =A(X'F0102030')
               4 000034B4 00000001     A   19622 18614  19032
 =A(X'F1F2F3F4')
               4 00003474 00000001     A   19606 18154
 =A(X'F1000000')
               4 00002CA0 00000001     A   17360 17054
 =A(X'F2')
1ITEST    (ITES2010) (12:47) (15MAR04) Ordinary Symbol and Literal Cross Reference                                          Page   85
               4 00001E84 00000001     A   14069 13534
 =A(X'F2341234')
               4 000024EC 00000001     A   15704 15126
 =A(X'F3F4F5F6')
               4 000034D0 00000001     A   19629 18906  19228
 =A(X'F4F5F6F7')
               4 00003470 00000001     A   19605 18105
 =A(X'F5F6F700')
               4 00003454 00000001     A   19598 17846  18168
 =A(X'F500000E')
               4 0000152C 00000001     A   11812 11519
 =A(X'F6F70000')
               4 0000346C 00000001     A   19604 18056
 =A(X'0F0F00F2')
               4 00001E90 00000001     A   14072 13600
 =A(X'0F0F0002')
               4 00001E94 00000001     A   14073 13633
 =A(X'0F00F000')
               4 00001E64 00000001     A   14065 13445
 =A(X'0F000000')
               4 000008FC 00000001     A    8776  8395
 =A(X'00F000F9')
               4 000043BC 00000001     A   23095 22775
 =A(X'00F01020')
               4 000034E0 00000001     A   19633 19067
 =A(X'00F1F2F3')
               4 000034E4 00000001     A   19634 19179
 =A(X'0000FFF0')
               4 000034F0 00000001     A   19637 19355  19494
 =A(X'0000F0F0')
               4 000008EC 00000001     A    8772  8147   8276   8576
 =A(X'0000F0F0')
               4 00001E2C 00000001     A   14053 12688  12859  13201
 =A(X'0000F0F1')
               4 00001EB8 00000001     A   14082 13890
 =A(X'0000F0F1')
               4 000043B4 00000001     A   23093 22630  22940
 =A(X'0000F010')
               4 000034DC 00000001     A   19632 18983
 =A(X'0000F1F2')
               4 000034CC 00000001     A   19628 18892  19214
 =A(X'00000F0F')
               4 000024D8 00000001     A   15699 15027
 =A(X'00000F00')
               4 000034F8 00000001     A   19639 19462
 =A(X'000000F1')
               4 000034C0 00000001     A   19625 18760  19130
 =A(X'0000000F')
               4 000034FC 00000001     A   19640 19526
 =A(X'00000000')
               4 00000908 00000001     A    8779  8527
 =A(X'00000000')
               4 00001E3C 00000001     A   14057 13075
 =A(X'00000000')
               4 00002CA4 00000001     A   17361 17097
 =A(X'00000000')
               4 00003490 00000001     A   19613 18337  18402  18466  18746  18819  18969  19018  19116  19165  19397
 =A(X'00000012')
               4 000024E8 00000001     A   15703 15079  15112
1ITEST    (ITES2010) (12:47) (15MAR04) Ordinary Symbol and Literal Cross Reference                                          Page   86
 =A(X'00000023')
               4 00001544 00000001     A   11818 11670  11720
 =A(X'00000102')
               4 00001E9C 00000001     A   14075 13678
 =A(X'00010203')
               4 00001EB0 00000001     A   14080 13846
 =A(X'00080010')
               4 000034F4 00000001     A   19638 19430
 =A(X'01D0D002')
               4 00001EAC 00000001     A   14079 13804
 =A(X'01000000')
               4 00001E38 00000001     A   14056 13032
 =A(X'01000002')
               4 00001EA0 00000001     A   14076 13720
 =A(X'02')
               4 00001E88 00000001     A   14070 13567
 =A(X'05000000')
               4 00000900 00000001     A    8777  8441
 =A(X'10F0F000')
               4 00003498 00000001     A   19615 18370
 =A(X'10203040')
               4 00003464 00000001     A   19602 18007
 =A(X'12D000FF')
               4 000028F8 00000001     A   16634 15822
 =A(X'30405060')
               4 000034BC 00000001     A   19624 18687  19081
 =A(X'40506070')
               4 00003460 00000001     A   19601 17958
 =A(X'4567890C')
               4 00001548 00000001     A   11819 11684
 =A(X'4567890D')
               4 00001550 00000001     A   11821 11734
 =A(X'5F000000')
               4 00002C9C 00000001     A   17359 17011
 =A(X'50607000')
               4 00003430 00000001     A   19589 17627  18021
 =A(X'60700000')
               4 0000345C 00000001     A   19600 17909
 =A(X'70F1F2F3')
               4 000034C8 00000001     A   19627 18833
 =A(X'7000F000')
               4 0000348C 00000001     A   19612 18295
 =A(X'71F2F3F4')
               4 00003450 00000001     A   19597 17832
 =A(X'74F5F6F7')
               4 00003444 00000001     A   19594 17759
 =A(X'76F70000')
               4 0000343C 00000001     A   19592 17686
 =A(X'80000000')
               4 00003484 00000001     A   19610 18253
 =A(X'90F0F000')
               4 0000347C 00000001     A   19608 18211
 =A(X'90203040')
               4 0000342C 00000001     A   19588 17613
 =A(0)         4 000008D8 00000001     A    8767  7225   7465   7715   7912   8103   8233   8360   8699
 =A(0)         4 00000B78 00000001     A    9444  9163
 =A(0)         4 000014F0 00000001     A   11805 10985  10999  11089  11193  11505
 =A(0)         4 00001DF4 00000001     A   14039 11987  12023  12073  12122  12237  12272  12321  12369  12774  12943
                                                 13247
1ITEST    (ITES2010) (12:47) (15MAR04) Ordinary Symbol and Literal Cross Reference                                          Page   87
 =A(0)         4 00002494 00000001     A   15682 14174  14269  14362  14501  14626  14752  14877  15169  15293  15418
                                                 15544
 =A(0)         4 00002980 00000001     A   16650 16152  16202  16285  16335  16349  16386  16435  16516  16565  16579
 =A(0)         4 00002C94 00000001     A   17357 16838  16965  17269
 =A(0)         4 00003418 00000001     A   19583 17481  17554  17700  17773  17923  17972  18070  18119
 =A(0)         4 00003D50 00000001     A   21718 20520  20562  20845  21138  21369  21401  21625
 =A(10)        4 00001524 00000001     A   11810 11298  11312  11401  11415
 =A(10000)
               4 00003D54 00000001     A   21719 20888
 =A(100000)
               4 00002984 00000001     A   16651 16166  16400
 =A(1000000)
               4 00003D1C 00000001     A   21705 20264  20605  21173  21435
 =A(100000000)
               4 0000298C 00000001     A   16653 16216  16299  16449  16530
 =A(11)        4 00000B6C 00000001     A    9441  9109
 =A(1234)      4 000043A4 00000001     A   23089 22441  22588  22733  22898
 =A(1239)      4 000024AC 00000001     A   15688 14393
 =A(2001)      4 000001F4 00000001     A    6907  6689
 =A(22)        4 00000B88 00000001     A    9448  9222   9330
 =A(2345)      4 000043A8 00000001     A   23090 22455
 =A(25594)
               4 00001534 00000001     A   11814 11599
 =A(3)         4 000008A8 00000001     A    8755  7013   7268   7508   7750   7946
 =A(3)         4 00003D28 00000001     A   21708 20307  20647  20930  21206  21467
 =A(3456)      4 000043AC 00000001     A   23091 22485
 =A(4)         4 00000B90 00000001     A    9450  9261   9369
 =A(4)         4 000024C0 00000001     A   15693 14543  14668  14835  14960  15460  15502  15586  15628
 =A(4000)      4 00003D60 00000001     A   21722 21096
 =A(4000000)
               4 00003D48 00000001     A   21716 20477  20813  21336  21593
 =A(400001)
               4 000001EC 00000001     A    6905  6655
 =A(400033)
               4 000024A8 00000001     A   15687 14237  14330
 =A(43565)
               4 00001E00 00000001     A   14042 12037  12136  12286  12383
 =A(43567)
               4 00001DE0 00000001     A   14034 11937  12188
 =A(4980000)
               4 000024BC 00000001     A   15692 14458
 =A(4982012)
               4 000024B8 00000001     A   15691 14426
 =A(5)         4 00000B84 00000001     A    9447  9208   9316
 =A(6)         4 00000B74 00000001     A    9443  9149
 =A(8)         4 00000BA0 00000001     A    9454  9383
 =A(8000011)
               4 000008C4 00000001     A    8762  7098   7351   7815   8009
 =A(8000011)
               4 00003D3C 00000001     A   21713 20392  20730  21271  21530
 =A(8011)      4 000008DC 00000001     A    8768  7591
 =A(8011)      4 00003D58 00000001     A   21720 21013
 =A(898)       4 00001DDC 00000001     A   14033 11923  12174
 =A(98)        4 00001DF0 00000001     A   14038 11973  12223
 =AL4(-1)      4 00003CC4 00000001     R   21683 19727  20060  20157
 =AL4(-1000)
               4 00003D10 00000001     R   21702 20123
 =AL4(100000000)
               4 00003CC8 00000001     R   21684 19742  20108
1ITEST    (ITES2010) (12:47) (15MAR04) Ordinary Symbol and Literal Cross Reference                                          Page   88
 =AL4(2001)
               4 000001F8 00000001     R    6908  6724
 =C'A FAILED'
               8 00000890 00000001     C    8751  7277   7318   7360   7401   7442   7474
 =C'All Done.'
               9 0000024E 00000001     C    6926  6859
 =C'AH FAILED'
               9 0000093F 00000001     C    8793  7517   7558   7600   7641   7682   7724
 =C'AL FAILED'
               9 00000948 00000001     C    8794  7955   7986   8018   8049   8080   8112
 =C'ALR FAILED'
              10 00000922 00000001     C    8790  7759   7791   7824   7856   7888   7921
 =C'AR FAILED'
               9 00000936 00000001     C    8792  7022   7064   7107   7149   7191   7234
 =C'BC FAILED'
               9 00000BB8 00000001     C    9457  8909   8935   8961   9002   9043   9084
 =C'BCT FAILED'
              10 00000BA4 00000001     C    9455  9172
 =C'BCTR FAILED'
              11 00000BC1 00000001     C    9458  9118
 =C'BHX FAILED'
              10 00000BAE 00000001     C    9456  9231   9283
 =C'BXLE FAILED'
              11 00000BCC 00000001     C    9459  9339   9392
 =C'C FAILED'
               8 00001490 00000001     C   11786  9724   9750   9776   9802   9828   9854   9880
 =C'CH FAILED'
               9 000015E1 00000001     C   11843  9913   9939   9965   9991  10017  10043  10069
 =C'CL FAILED'
               9 000015EA 00000001     C   11844 10286  10312  10338  10364  10390  10416  10442
 =C'CLC FAILED'
              10 00000232 00000001     C    6923  6767   6795
 =C'CLC FAILED'
              10 000015B0 00000001     C   11838 10662  10687  10712  10737  10762
 =C'CLCL FAILED'
              11 000015F3 00000001     C   11845 11008  11052  11112  11156  11216  11260  11321  11365  11424  11468
                                                 11528  11572
 =C'CLI FAILED'
              10 00001570 00000001     C   11832 10471  10497  10523  10549  10575  10601
 =C'CLM FAILED'
              10 000015BA 00000001     C   11839 10792  10817  10842  10871  10896  10921  10946
 =C'CLR FAILED'
              10 00001566 00000001     C   11831 10097  10124  10151  10178  10205  10232  10259
 =C'CR FAILED'
               9 000015D8 00000001     C   11842  9535   9562   9589   9616   9643   9670   9697
 =C'CVB FAILED'
              10 000015C4 00000001     C   11840 11608  11642
 =C'CVD FAILED'
              10 000015CE 00000001     C   11841 11693  11743
 =C'D FAILED'
               8 00001DC0 00000001     C   14028 12197  12246  12295  12343  12392
 =C'DR FAILED'
               9 00001EEC 00000001     C   14089 11946  11996  12046  12095  12145
 =C'ED FAILED'
               9 00001F04 00000001     C   14091 12421  12446  12473  12498
 =C'EDMK FAILED'
              11 00001F2B 00000001     C   14094 12528  12555  12583  12610
 =C'EX CLC FAILED'
              13 00001F7C 00000001     C   14101 13352
1ITEST    (ITES2010) (12:47) (15MAR04) Ordinary Symbol and Literal Cross Reference                                          Page   89
 =C'EX MVC FAILED'
              13 00001F6F 00000001     C   14100 13306
 =C'EX NC FAILED'
              12 00001E68 00000001     C   14066 13454
 =C'EX OC FAILED'
              12 00001E50 00000001     C   14062 13399
 =C'EX TR FAILED'
              12 0000438C 00000001     C   23085 22372  22397
 =C'EX TRT FAILED'
              13 00004410 00000001     C   23105 22919  22949  22974  22999
 =C'EX XC FAILED'
              12 00001E78 00000001     C   14068 13509
 =C'IC FAILED'
               9 00001F89 00000001     C   14102 13543  13576  13609  13642
 =C'ICM FAILED'
              10 00001EE2 00000001     C   14088 13687  13729  13771  13813  13855  13899  13941  13985
 =C'L FAILED'
               8 000001D0 00000001     C    6899  6664
 =C'L FAILED'
               8 00002488 00000001     C   15680 14278  14308  14339
 =C'LA FAILED'
               9 00002521 00000001     C   15710 14371  14402  14435  14467
 =C'LCR FAILED'
              10 000024FA 00000001     C   15706 14761  14802  14844  14886  14927  14969
 =C'LH FAILED'
               9 0000023C 00000001     C    6924  6698
 =C'LH FAILED'
               9 0000252A 00000001     C   15711 15003  15036
 =C'LM FAILED'
               9 00002533 00000001     C   15712 15088  15135
 =C'LNR FAILED'
              10 00002504 00000001     C   15707 15178  15219  15260  15302  15343  15384
 =C'LPR FAILED'
              10 0000250E 00000001     C   15708 15427  15469  15511  15553  15595  15637
 =C'LR FAILED'
               9 00002518 00000001     C   15709 14183  14214  14246
 =C'LTR FAILED'
              10 000024F0 00000001     C   15705 14510  14552  14593  14635  14677  14718
 =C'M FAILED'
               8 000028E8 00000001     C   16631 16409  16458  16490  16539  16588
 =C'MR FAILED'
               9 00002A10 00000001     C   16670 16175  16225  16258  16308  16358
 =C'MVC FAILED'
              10 0000158E 00000001     C   11835 10634
 =C'MVC FAILED'
              10 000029A6 00000001     C   16658 15859  15884  15914
 =C'MVCIN FAILED'
              12 00002928 00000001     C   16638 15944
 =C'MVCL FAILED'
              11 00002A05 00000001     C   16669 15977  16007  16037
 =C'MVI FAILED'
              10 0000092C 00000001     C    8791  8404
 =C'MVI FAILED'
              10 0000299C 00000001     C   16657 15796  15831
 =C'MVN FAILED'
              10 000029BC 00000001     C   16661 16066
 =C'MVO FAILED'
              10 000029C6 00000001     C   16662 16095
 =C'MVZ FAILED'
1ITEST    (ITES2010) (12:47) (15MAR04) Ordinary Symbol and Literal Cross Reference                                          Page   90
              10 000029DC 00000001     C   16665 16123
 =C'N FAILED'
               8 00000898 00000001     C    8752  8285   8327   8369
 =C'NC FAILED'
               9 00000963 00000001     C    8797  8585   8616   8662   8708
 =C'NI FAILED'
               9 0000095A 00000001     C    8796  8450   8493   8536
 =C'NR FAILED'
               9 00000951 00000001     C    8795  8156   8199   8242
 =C'O FAILED'
               8 00002C70 00000001     C   17349 16890  16932  16974
 =C'OC FAILED'
               9 00002CC2 00000001     C   17366 17155  17186  17232  17278
 =C'OI FAILED'
               9 00002CB9 00000001     C   17365 17020  17063  17106
 =C'OR FAILED'
               9 00002CB0 00000001     C   17364 16761  16804  16847
 =C'PACK FAILED'
              11 00002CCB 00000001     C   17367 17306
 =C'S FAILED'
               8 00003CB0 00000001     C   21679 20656  20697  20739  20780  20822  20854
 =C'SH FAILED'
               9 00003DBF 00000001     C   21741 20897  20939  20980  21022  21063  21105  21147
 =C'SL FAILED'
               9 00003DC8 00000001     C   21742 21444  21476  21507  21539  21570  21602  21634
 =C'SLA FAILED'
              10 00003500 00000001     C   19641 18220  18262  18304  18346
 =C'SLDA FAILED'
              11 00003528 00000001     C   19645 17444  17490  17517  17563  17590  17636  17663  17709  17736  17782
                                                 17809  17855  17882
 =C'SLDL FAILED'
              11 00003533 00000001     C   19646 17932  17981  18030  18079  18128  18177
 =C'SLL FAILED'
              10 0000350A 00000001     C   19642 18379  18411  18443  18475
 =C'SLR FAILED'
              10 00003D98 00000001     C   21737 21182  21215  21247  21280  21312  21345  21378  21410
 =C'SR FAILED'
               9 00003DB6 00000001     C   21740 20273  20316  20358  20401  20443  20486  20529  20571  20614
 =C'SRA FAILED'
              10 00003514 00000001     C   19643 19280  19322  19364  19406
 =C'SRDA FAILED'
              11 0000353E 00000001     C   19647 18504  18550  18577  18623  18650  18696  18723  18769  18796  18842
                                                 18869  18915  18942
 =C'SRDL FAILED'
              11 00003549 00000001     C   19648 18992  19041  19090  19139  19188  19237
 =C'SRL FAILED'
              10 0000351E 00000001     C   19644 19439  19471  19503  19535
 =C'ST FAILED'
               9 00000245 00000001     C    6925  6733
 =C'ST FAILED'
               9 00003DA2 00000001     C   21738 19766
 =C'STC FAILED'
              10 00003D64 00000001     C   21723 19805
 =C'STCM FAILED'
              11 00003DAB 00000001     C   21739 19834  19864  19891  19918  19945
 =C'STH FAILED'
              10 00003D70 00000001     C   21725 19974  20002  20030
 =C'STM FAILED'
              10 00003D7A 00000001     C   21726 20084  20132  20181  20227
1ITEST    (ITES2010) (12:47) (15MAR04) Ordinary Symbol and Literal Cross Reference                                          Page   91
 =C'TM FAILED'
               9 000043FE 00000001     C   23103 21828  21853  21878  21903  21932  21957  21982  22007  22032  22057
                                                 22082  22126  22151  22191  22216
 =C'TR FAILED'
               9 00004407 00000001     C   23104 22247  22272  22300  22325
 =C'TRT FAILED'
              10 000043F2 00000001     C   23101 22464  22494  22519  22544  22609  22639  22664  22689  22754  22784
                                                 22809  22834
 =C'UNPK FAILED'
              11 0000441D 00000001     C   23106 23028
 =C'X FAILED'
               8 00001DC8 00000001     C   14029 12826  12868  12910
 =C'XC FAILED'
               9 00001F66 00000001     C   14099 13133  13164  13210  13256
 =C'XI FAILED'
               9 00001F5D 00000001     C   14098 12998  13041  13084
 =C'XR FAILED'
               9 00001F54 00000001     C   14097 12654  12697  12740  12783  12952
 =CL10'0000000000'
              10 00001EC4 00000001     C   14085 13269
 =CL10'0000123456'
              10 00001584 00000001     C   11834 10613
 =CL10'0123456700'
              10 00001ED8 00000001     C   14087 13291
 =CL10'0123456789'
              10 00001598 00000001     C   11836 10645
 =CL10'0123456789'
              10 00001ECE 00000001     C   14086 13270
 =CL10'0123456789'
              10 000043E8 00000001     C   23100 22413  22560  22705  22850
 =CL10'1234567890'
              10 0000157A 00000001     C   11833 10612
 =CL14'12340123456789'
              14 000015A2 00000001     C   11837 10646
 =CL15'      0.26 CR  '
              15 00001F1C 00000001     C   14093 12483
 =CL15'     $0.26 CR  '
              15 00001F45 00000001     C   14096 12595
 =CL15'  2,574.26     '
              15 00001F0D 00000001     C   14092 12431
 =CL15' $2,574.26     '
              15 00001F36 00000001     C   14095 12540
 =CL16'AAABAAAB   XYYY9'
              16 00004350 00000001     C   23075 22709
 =CL16'AAABAAABCCCDXXXZ'
              16 00004330 00000001     C   23073 22417
 =CL16'AAABAAAB11111111'
              16 00004340 00000001     C   23074 22564  22854
 =CL16'0123456789ABCDEF'
              16 00004320 00000001     C   23072 22227  22232  22285  22357
 =CL20'0123456789000000000'
              20 000014FC 00000001     C   11808 11270
 =CL20'01234567890000000000'
              20 000014DC 00000001     C   11804 10957  10958
 =CL20'01234567890000000000'
              20 00002910 00000001     C   16636 15843
 =CL20'0123456789999999999'
              20 00001510 00000001     C   11809 11271
 =CL20'1234567890          '
1ITEST    (ITES2010) (12:47) (15MAR04) Ordinary Symbol and Literal Cross Reference                                          Page   92
              20 00002938 00000001     C   16640 15962
 =CL20'12345678901234567890'
              20 000028FC 00000001     C   16635 15842  15956  15992
 =CL20'23456789011234567890'
              20 00002950 00000001     C   16642 16022
 =F'-1'        4 000008B0 00000001     F    8757  7032   7287   7769   7965
 =F'-1'        4 00000B64 00000001     F    9439  8945   9053
 =F'-1'        4 000014A4 00000001     F   11790  9545   9734  10107  10296
 =F'-1'        4 00001E04 00000001     F   14043 12056  12105  12305  12353
 =F'-1'        4 00003CB8 00000001     F   21680 19707  19779  20041  20191  20326  20666  21225  21486
 =F'-1000'
               4 00002990 00000001     F   16654 16235  16268  16270  16468  16500  16502
 =F'-1000'
               4 00003D0C 00000001     F   21701 20044
 =F'-10000'
               4 00001E10 00000001     F   14046 12107  12355
 =F'-100000'
               4 00002994 00000001     F   16655 16236  16269  16469  16501
 =F'-123'      4 0000249C 00000001     F   15684 14193  14288
 =F'-2'        4 000008B4 00000001     F    8758  7033   7288   7770   7966
 =F'-2'        4 000014A8 00000001     F   11791  9546   9735  10108  10297
 =F'-2'        4 00003D24 00000001     F   21707 20284  20625  21193  21455
 =F'-234567890'
               4 0000154C 00000001     F   11820 11703
 =F'-30030'
               4 000014BC 00000001     F   11796  9680   9681   9864   9865  10242  10243  10426  10427
 =F'-4'        4 00000B8C 00000001     F    9449  9243
 =F'-4'        4 000024C4 00000001     F   15694 14562  14687  14812  14937  15229  15353  15479  15605
 =F'-4000000'
               4 00003D38 00000001     F   21712 20369  20708  21258  21518
 =F'-430030'
               4 000008D4 00000001     F    8766  7202   7453   7899   8091
 =F'-435650000'
               4 00001E08 00000001     F   14044 12057  12106  12306  12354
 =F'-8'        4 00000B98 00000001     F    9452  9350
 =F'-8000011'
               4 000008C8 00000001     F    8763  7118   7159   7371   7411   7835   7866   8029   8059
 =F'-8000011'
               4 000014B4 00000001     F   11794  9600   9626   9787   9812  10162  10188  10349  10374
 =F'0'         4 000008F8 00000001     F    8775  8380   8415   8551
 =F'0'         4 00000B60 00000001     F    9438  8919   9012   9130   9184   9241   9295   9349
 =F'0'         4 000014C0 00000001     F   11797 10453  11583  11618
 =F'0'         4 00001DD0 00000001     F   14030 11906  11956  12006  12158  12207  12256  12963  13099  13520  13553
                                                 13655  13697  13823  13867  13951
 =F'0'         4 00002490 00000001     F   15681 14161  14257  14350  14478  14603  14729  14854  15146  15270  15395
                                                 15521
 =F'0'         4 00002974 00000001     F   16647 16135  16320  16370  16551
 =F'0'         4 00002C98 00000001     F   17358 16985  17121
 =F'0'         4 00003CC0 00000001     F   21682 19711  19777  20042
 =F'1'         4 000008A0 00000001     F    8753  6989   7245   7736   7933
 =F'1'         4 00000B58 00000001     F    9436  8893   8971
 =F'1'         4 00001498 00000001     F   11787  9518   9708  10080  10270
 =F'1'         4 00003D20 00000001     F   21706 20283  20624  21192  21454
 =F'10'        4 00001E4C 00000001     F   14061 13317
 =F'100'       4 0000297C 00000001     F   16649 16137  16372
 =F'1000'      4 00001DD8 00000001     F   14032 11908  12160
 =F'1000'      4 00002978 00000001     F   16648 16136  16185  16187  16237  16318  16371  16419  16421  16470  16549
 =F'1000'      4 00003D18 00000001     F   21704 20241  20583  21160  21423
 =F'10000'
1ITEST    (ITES2010) (12:47) (15MAR04) Ordinary Symbol and Literal Cross Reference                                          Page   93
               4 00001DFC 00000001     F   14041 12008  12058  12258  12307
 =F'100000'
               4 00002988 00000001     F   16652 16186  16319  16420  16550
 =F'100000000'
               4 00003CBC 00000001     F   21681 19709  20043
 =F'1001000'
               4 00003D14 00000001     F   21703 20240  20582  21159  21422
 =F'10900'
               4 00001DEC 00000001     F   14037 11958  12209
 =F'12'        4 00000B68 00000001     F    9440  9096   9185   9242   9296
 =F'1234'      4 00004398 00000001     F   23086 22408  22554  22699  22844
 =F'2'         4 000008A4 00000001     F    8754  6990   7246   7737   7934
 =F'2'         4 00000B7C 00000001     F    9445  9186   9297
 =F'2'         4 0000149C 00000001     F   11788  9519   9709  10081  10271
 =F'2'         4 00003D2C 00000001     F   21709 20327  20667  21226  21487
 =F'20'        4 00000B80 00000001     F    9446  9187   9298
 =F'2000'      4 000024B4 00000001     F   15690 14413
 =F'2345'      4 0000439C 00000001     F   23087 22409  22555  22700  22845
 =F'234567890'
               4 00001540 00000001     F   11817 11653
 =F'3456'      4 000043A0 00000001     F   23088 22410
 =F'4'         4 00000B9C 00000001     F    9453  9351
 =F'4000000'
               4 000008C0 00000001     F    8761  7075   7329   7802   7997
 =F'4000000'
               4 000014B0 00000001     F   11793  9573   9761  10135  10323
 =F'400001'
               4 000001E8 00000001     F    6904  6643
 =F'4000011'
               4 000008BC 00000001     F    8760  7074   7117   7160   7328   7370   7412   7801   7834   7867   7996
                                                  8028   8060
 =F'4000011'
               4 000014AC 00000001     F   11792  9572   9599   9627   9760   9786   9813  10134  10161  10189  10322
                                                 10348  10375
 =F'4000011'
               4 00003D34 00000001     F   21711 20368  20411  20454  20707  20749  20791  21257  21290  21323  21517
                                                 21549  21581
 =F'400033'
               4 000024A4 00000001     F   15686 14224  14318
 =F'430030'
               4 000008D0 00000001     F    8765  7201   7452   7898   8090
 =F'430030'
               4 000014B8 00000001     F   11795  9653   9654   9838   9839  10215  10216  10400  10401
 =F'430030'
               4 00003D4C 00000001     F   21717 20496  20497  20539  20832  20833  21355  21356  21388  21612  21613
 =F'435650000'
               4 00001DF8 00000001     F   14040 12007  12257
 =F'43567898'
               4 00001DD4 00000001     F   14031 11907  12159
 =F'4980000'
               4 000024B0 00000001     F   15689 14412  14445
 =F'6'         4 00000B70 00000001     F    9442  9131
 =F'8000011'
               4 00003D40 00000001     F   21714 20412  20453  20750  20790  21291  21322  21550  21580
 =F'98'        4 00001DE8 00000001     F   14036 11957  12208
 =H'-1'        2 00000914 00000001     H    8783  7527
 =H'-1'        2 00001558 00000001     H   11824  9923
 =H'-1'        2 00003D8C 00000001     H   21731 20949
 =H'-2'        2 00000916 00000001     H    8784  7528
1ITEST    (ITES2010) (12:47) (15MAR04) Ordinary Symbol and Literal Cross Reference                                          Page   94
 =H'-2'        2 0000155A 00000001     H   11825  9924
 =H'-2'        2 00003D8A 00000001     H   21730 20908
 =H'-3030'
               2 00001564 00000001     H   11830 10053  10054
 =H'-4000'
               2 00003D92 00000001     H   21734 20991
 =H'-4330'
               2 00000920 00000001     H    8789  7693
 =H'-8011'
               2 0000091C 00000001     H    8787  7611   7651
 =H'-8011'
               2 00001560 00000001     H   11828  9976  10001
 =H'1'         2 00000910 00000001     H    8781  7485
 =H'1'         2 00001554 00000001     H   11822  9897
 =H'1'         2 00003D88 00000001     H   21729 20907
 =H'100'       2 00003D86 00000001     H   21728 20866
 =H'10100'
               2 00003D84 00000001     H   21727 20865
 =H'2'         2 00000912 00000001     H    8782  7486
 =H'2'         2 00001556 00000001     H   11823  9898
 =H'2'         2 00003D8E 00000001     H   21732 20950
 =H'2001'      2 00000230 00000001     H    6922  6677
 =H'4000'      2 0000091A 00000001     H    8786  7569
 =H'4000'      2 0000155E 00000001     H   11827  9950
 =H'4011'      2 00000918 00000001     H    8785  7568   7610   7652
 =H'4011'      2 0000155C 00000001     H   11826  9949   9975  10002
 =H'4011'      2 00003D90 00000001     H   21733 20990  21032  21074
 =H'4330'      2 0000091E 00000001     H    8788  7692
 =H'4330'      2 00001562 00000001     H   11829 10027  10028
 =H'4330'      2 00003D96 00000001     H   21736 21115  21116
 =H'8011'      2 00003D94 00000001     H   21735 21033  21073
 =V(NOTVALID)
               4 000001E0 00000001     V    6902  6522
 =V(SEGCR)
               4 000001D8 00000001     V    6900  6407
 =V(SEGWR)
               4 000001DC 00000001     V    6901  6432
 =X'C0506070'
               4 0000341C 00000001     X   19584 17501
 =X'D0D0D0D0'
               4 00001EA4 00000001     X   14077 13739  13781  13909  13953
 =X'FFFFE070'
               4 0000340C 00000001     X   19580 17428
 =X'FFFFFFFF'
               4 000014CC 00000001     X   11800 10775
 =X'FFFFFFFF'
               4 00003408 00000001     X   19579 17427  17500
 =X'FFFFFFFF'
               4 0000437C 00000001     X   23081 21913  22092
 =X'FFFFF800'
               4 00003480 00000001     X   19609 18230
 =X'FFF90F0F'
               4 00003478 00000001     X   19607 18188
 =X'FF0FF000'
               4 00001E5C 00000001     X   14063 13409  13464
 =X'FF00FF00'
               4 000014C4 00000001     X   11798 10773
 =X'FF0000FF'
               4 00001E44 00000001     X   14059 13220  13222
1ITEST    (ITES2010) (12:47) (15MAR04) Ordinary Symbol and Literal Cross Reference                                          Page   95
 =X'FF0000FF'
               4 00003CF4 00000001     X   21695 19956
 =X'FF902030'
               4 00003424 00000001     X   19586 17573
 =X'F0FFFFFF'
               4 00004380 00000001     X   23082 21915  22094
 =X'F0F0F0F0'
               4 000008E8 00000001     X    8771  8124   8167   8254   8296   8549   8628
 =X'F0F0F0F0'
               4 00001E20 00000001     X   14050 12622  12665  12795  12837  13097  13176
 =X'F0F0F0F0'
               4 000024CC 00000001     X   15696 14980  15047
 =X'F0F0F0F0'
               4 00002C7C 00000001     X   17351 16729  16772  16859  16901  17119  17198
 =X'F0F0F0F0'
               4 00003CD0 00000001     X   21686 19781
 =X'F0F00000'
               4 000008F0 00000001     X    8773  8166   8210   8295   8338   8626   8674
 =X'F0F00000'
               4 00001E28 00000001     X   14052 12664  12708  12836  12879  13174
 =X'F0F00000'
               4 00002C88 00000001     X   17354 16771  16900  17196
 =X'F0F1F2F3'
               4 00001EB4 00000001     X   14081 13865
 =X'F0F1F2F3'
               4 00003CDC 00000001     X   21689 19816  19874  19901
 =X'F0000000'
               4 000014F4 00000001     X   11806 11066  11170
 =X'F0000000'
               4 00002924 00000001     X   16637 15898
 =X'F0000000'
               4 0000349C 00000001     X   19616 18389  19290  19449
 =X'F0102030'
               4 00003458 00000001     X   19599 17893  17942  17991  18487  18560  18633  18953  19002  19051
 =X'F1F2F3F4'
               4 000001FC 00000001     X    6909  6746   6747
 =X'F2341234'
               4 000024E0 00000001     X   15701 15049
 =X'F3F4F5F6'
               4 00000200 00000001     X    6910  6748
 =X'F4F5F6F7'
               4 0000344C 00000001     X   19596 17793  18041  18090  18139  18707  18780  18853  19101  19150  19199
 =X'F5000000'
               4 00001528 00000001     X   11811 11482
 =X'0FFF000F'
               4 000034A0 00000001     X   19617 18421  19332  19481
 =X'0FF0F00F'
               4 00001E60 00000001     X   14064 13411  13466
 =X'0F0F0F00'
               4 000034A8 00000001     X   19619 18453  19374  19513
 =X'0F0F0000'
               4 00001E8C 00000001     X   14071 13586  13619
 =X'0F000000'
               4 00004374 00000001     X   23079 21811
 =X'00FFFF00'
               4 000014C8 00000001     X   11799 10774
 =X'00FFFF00'
               4 00003CFC 00000001     X   21697 19984
 =X'00FFF00F'
1ITEST    (ITES2010) (12:47) (15MAR04) Ordinary Symbol and Literal Cross Reference                                          Page   96
               4 00003CD8 00000001     X   21688 19796
 =X'00F0000F'
               4 000043B8 00000001     X   23094 22701
 =X'00F1F2F3'
               4 00003468 00000001     X   19603 18040  18089  18138  18706  18852  19100  19149  19198
 =X'000FF008'
               4 00001E48 00000001     X   14060 13271
 =X'000F0000'
               4 000034D8 00000001     X   19631 18926
 =X'0000FFFF'
               4 000008E4 00000001     X    8770  8123   8209   8253   8337   8547   8672
 =X'0000FFFF'
               4 00001E1C 00000001     X   14049 12621  12707  12750  12751  12794  12878  12920  12921  13095
 =X'0000FFFF'
               4 00002C78 00000001     X   17350 16728  16858  17117
 =X'0000F00F'
               4 000043B0 00000001     X   23092 22556  22846
 =X'00000F0F'
               4 000024D4 00000001     X   15698 15013
 =X'00000F00'
               4 00003D04 00000001     X   21699 20012
 =X'000000F0'
               4 000034D4 00000001     X   19630 18925
 =X'0000000F'
               4 00003CD4 00000001     X   21687 19783
 =X'00000000'
               4 00002C90 00000001     X   17356 16814  16815  16942  16943  17242  17244
 =X'00000000'
               4 00003434 00000001     X   19590 17646  17719  17865  17866  18314
 =X'00000000'
               4 00004370 00000001     X   23078 21809
 =X'00000012'
               4 000024DC 00000001     X   15700 15048
 =X'000076F7'
               4 00003438 00000001     X   19591 17647
 =X'00010203'
               4 000014D4 00000001     X   11802 10853
 =X'0007000F'
               4 00003488 00000001     X   19611 18272
 =X'0025594C'
               4 00001530 00000001     X   11813 11584
 =X'0025594D'
               4 00001538 00000001     X   11815 11619
 =X'0071F2F3'
               4 00003448 00000001     X   19595 17792
 =X'01020304'
               4 000014D8 00000001     X   11803 10854
 =X'01020304'
               4 00001E98 00000001     X   14074 13653
 =X'01020304'
               4 00003CF0 00000001     X   21694 19928
 =X'01050102'
               4 000014D0 00000001     X   11801 10852
 =X'4000000A'
               4 00002934 00000001     X   16639 15960
 =X'40000014'
               4 0000294C 00000001     X   16641 15990  16020
 =X'40506070'
               4 00003428 00000001     X   19587 17574  17894  17943  17992  18488  18561  18634  18954  19003  19052
1ITEST    (ITES2010) (12:47) (15MAR04) Ordinary Symbol and Literal Cross Reference                                          Page   97
 =X'70F1F2F3'
               4 000034C4 00000001     X   19626 18779
 =X'74F5F6F7'
               4 00003440 00000001     X   19593 17720
 =X'80010F0F'
               4 00003494 00000001     X   19614 18357  19248  19417
 =XL10'CACBCCCDCECFC0C1C2C3'
              10 000043DE 00000001     X   23099 22283  22336
 =XL10'0A0B0C0D0E0F10111213'
              10 000043CA 00000001     X   23097 22230
 =XL10'00010203040506070809'
              10 000043C0 00000001     X   23096 22229
 =XL10'40414243444546474849'
              10 000043D4 00000001     X   23098 22282  22335
 =XL11'C1C2C3C4C5C6C7C8C9CACB'
              11 000029E6 00000001     X   16666 15925
 =XL11'F8F7F6F5F4F3F2F1C9CACB'
              11 000029FA 00000001     X   16668 15928  15929
 =XL15'4020206B2021204B202040C3D94040'
              15 00001EF5 00000001     X   14090 12404  12456  12510  12565
 =XL2'0104'
               2 00003D6E 00000001     X   21724 19930
 =XL2'123D'
               2 000043FC 00000001     X   23102 23011
 =XL4'C0C1C2C3'
               4 00004388 00000001     X   23084 22310  22382
 =XL4'C6C7C8C9'
               4 00002964 00000001     X   16643 16049
 =XL4'FF00FF00'
               4 00003D00 00000001     X   21698 19987
 =XL4'F0F1F2F3'
               4 00003CEC 00000001     X   21693 19903
 =XL4'F0F3F2F3'
               4 00003CE8 00000001     X   21692 19876
 =XL4'F1F2F3C4'
               4 00002CA8 00000001     X   17362 17289
 =XL4'F2F3F2F3'
               4 00003CE0 00000001     X   21690 19819
 =XL4'0F000F00'
               4 00003D08 00000001     X   21700 20015
 =XL4'00FF00FF'
               4 00003CF8 00000001     X   21696 19959
 =XL4'0000026D'
               4 00001E18 00000001     X   14048 12457  12566
 =XL4'0001234C'
               4 00002CAC 00000001     X   17363 17291
 =XL4'0123456C'
               4 00002970 00000001     X   16646 16080
 =XL4'0257426C'
               4 00001E14 00000001     X   14047 12405  12511
 =XL4'10111213'
               4 00004384 00000001     X   23083 22257
 =XL4'12345600'
               4 0000296C 00000001     X   16645 16078
 =XL4'7788990C'
               4 00002968 00000001     X   16644 16077
 =XL6'F0F1F2F3F4F5'
               6 000029B0 00000001     X   16659 16048
 =XL6'F1C2F3C4F5C6'
1ITEST    (ITES2010) (12:47) (15MAR04) Ordinary Symbol and Literal Cross Reference                                          Page   98
               6 000029D0 00000001     X   16663 16106
 =XL6'F1F2F3F4F5F6'
               6 000029D6 00000001     X   16664 16108
 =XL6'F6F7F8F9F4F5'
               6 000029B6 00000001     X   16660 16051
 =XL8'F0F0F1F2D3000000'
               8 00004368 00000001     X   23077 23013
 =XL8'0000000000000000'
               8 00004360 00000001     X   23076 23010
 =XL9'F1F2F3F4F5F6F7F8F9'
               9 000029F1 00000001     X   16667 15926

1ITEST    (ITES2010) (12:47) (15MAR04) Macro and Copy Code Source Summary                                                   Page   99
- Con Source                                        Volume    Members                        HLASM R4.0  2004/03/15 12.47
0     PRIMARY INPUT                                           CSECT    DROP     END      EX       LTORG    MWRITE   POP
                                                              PRINT    PUSH     START    USING
   L1 WYL.GS.WYL.WYLBUR.MACLIB                      SYSB05    AINFO    BASE     COLINFO  CONTROL  CP       CPLOCAL  CV
                                                              CVLOCAL  RG       SCANCB   TSEG     TTYPE    TWRITE
                                                              XTRACE
   L2 WYL.GG.SYS.MACLIB                             SYSB05    $BC      $BFLKUP  $BV      $CCLKUP  $CRS     $CSS     $L
                                                              $LA      $LBLAD   $LEXP    $LOR     $REL     $RGLKUP
                                                              $USLKUP  ACALL    BEGIN    COMPROC  CSECT    DATA
                                                              DEFCC    DEX      DROP     ELSE     END      EX       EXIT
                                                              FLAG     GEN      HIBAL    IDENT    IF       LABEL    LC
                                                              LS       LTORG    PEND     POP      PRINT    PROC     PUSH
                                                              QLTORG   RECORD   REG      REGS     SETMSG   START
                                                              USING    VCALL    WITH     XPROC
   L3 SYS3.IS.MACLIB                                SYSB05    SEG      SEGCB    SEGLD    SEGWR    SIB      SYSDEFN

1ITEST    (ITES2010) (12:47) (15MAR04) Dsect Cross Reference                                                                Page  100
-Dsect     Length      Id       Defn                                                         HLASM R4.0  2004/03/15 12.47
0$$$@R0   00000000  FFFFFFFE     705
 $$$@R1   00000000  FFFFFFFD     718
 $$$@R10  00000000  FFFFFFF4     835
 $$$@R11  00000000  FFFFFFF3     848
 $$$@R12  00000000  FFFFFFF2     861
 $$$@R13  00000000  FFFFFFF1     874
 $$$@R14  00000000  FFFFFFF0     887
 $$$@R15  00000000  FFFFFFEF     900
 $$$@R2   00000000  FFFFFFFC     731
 $$$@R3   00000000  FFFFFFFB     744
 $$$@R4   00000000  FFFFFFFA     757
 $$$@R5   00000000  FFFFFFF9     770
 $$$@R6   00000000  FFFFFFF8     783
 $$$@R7   00000000  FFFFFFF7     796
 $$$@R8   00000000  FFFFFFF6     809
 $$$@R9   00000000  FFFFFFF5     822
 $$$RCP   00001000  FFFFFFEC    2454
 $$$RCV   00000FB0  FFFFFFEE    1179
 $$$RDEV  0000000C  FFFFFFEB    4668
 $$$RITESTWA
          00000810  FFFFFFE9    6567
 $$$RNSCNCB
          000000B0  FFFFFFED    2375
 $$$RTTYPE
          0000010C  FFFFFFEA    6199
 HIBAL    00000000  FFFFFFFF     691

1ITEST    (ITES2010) (12:47) (15MAR04) Using Map                                                                            Page  101
-                                                                                            HLASM R4.0  2004/03/15 12.47
   Stmt  -----Location----- Action ----------------Using----------------- Reg Max    Last  Label and Using Text
           Count      Id           Type          Value    Range     Id        Disp   Stmt
0   922  00000000  FFFFFFFF USING  ORDINARY    00000000 00001000 FFFFFFEF  15 000          @R15,15
    926  00000000  FFFFFFFF USING  ORDINARY    00000000 00001000 FFFFFFF0  14 002    2170  @R14,14
    930  00000000  FFFFFFFF USING  ORDINARY    00000000 00001000 FFFFFFF1  13 000          @R13,13
    934  00000000  FFFFFFFF USING  ORDINARY    00000000 00001000 FFFFFFF2  12 000          @R12,12
    938  00000000  FFFFFFFF USING  ORDINARY    00000000 00001000 FFFFFFF3  11 000          @R11,11
    942  00000000  FFFFFFFF USING  ORDINARY    00000000 00001000 FFFFFFF4  10 000          @R10,10
    946  00000000  FFFFFFFF USING  ORDINARY    00000000 00001000 FFFFFFF5   9 000          @R9,9
    950  00000000  FFFFFFFF USING  ORDINARY    00000000 00001000 FFFFFFF6   8 000          @R8,8
    954  00000000  FFFFFFFF USING  ORDINARY    00000000 00001000 FFFFFFF7   7 000          @R7,7
    958  00000000  FFFFFFFF USING  ORDINARY    00000000 00001000 FFFFFFF8   6 000          @R6,6
    962  00000000  FFFFFFFF USING  ORDINARY    00000000 00001000 FFFFFFF9   5 000          @R5,5
    966  00000000  FFFFFFFF USING  ORDINARY    00000000 00001000 FFFFFFFA   4 000          @R4,4
    970  00000000  FFFFFFFF USING  ORDINARY    00000000 00001000 FFFFFFFB   3 000          @R3,3
    974  00000000  FFFFFFFF USING  ORDINARY    00000000 00001000 FFFFFFFC   2 000          @R2,2
    978  00000000  FFFFFFFF USING  ORDINARY    00000000 00001000 FFFFFFFD   1 001    2169  @R1,1
    982  00000000  FFFFFFFF USING  ORDINARY    00000000 00001000 FFFFFFFE   0 000          @R0,0
    983  00000000  FFFFFFFF DROP                                            0              0
   1163  00000017  00000001 USING  ORDINARY    00000000 00001000 FFFFFFEC  11 D5A    6513  CP,CPR
   1172  00000017  00000001 USING  ORDINARY    00000000 00001000 FFFFFFEE  12 890   23226  CV,CVR
   6376  00000042  00000001 USING  ORDINARY    00000042 00001000 00000001   7 19A    6432  $$$43B,7
   6440  00000058  00000001 USING  ORDINARY    00000000 00001000 FFFFFFF7   7 000          @R7,7
   6495  00000080  00000001 USING  ORDINARY    00000080 00001000 00000001   7 164    6532  $$$46B,7
   6541  00000098  00000001 USING  ORDINARY    00000000 00001000 FFFFFFF7   7 000          @R7,7
   6622  000000C0  00000001 USING  ORDINARY    000000C0 00001000 00000001   7 18E    6863  $$$50B,7
   6636  000000C0  00000001 USING  ORDINARY    FFFFFFD8 00001000 FFFFFFE9   8 030    6780  ITESTWA-(4+36),R8
   6872  000001BC  00000001 USING  ORDINARY    00000000 00001000 FFFFFFF6   8 000          @R8,8
   6877  000001BC  00000001 USING  ORDINARY    00000000 00001000 FFFFFFF7   7 000          @R7,7
   6968  00000272  00000001 USING  ORDINARY    00000272 00001000 00000001   7 6F1    8712  $$$58B,7
   6982  00000272  00000001 USING  ORDINARY    FFFFFFD8 00001000 FFFFFFE9   8 030    8677  ITESTWA-(4+36),R8
   8724  00000882  00000001 USING  ORDINARY    00000000 00001000 FFFFFFF6   8 000          @R8,8
   8729  00000882  00000001 USING  ORDINARY    00000000 00001000 FFFFFFF7   7 000          @R7,7
   8836  00000986  00000001 USING  ORDINARY    00000986 00001000 00000001   7 246    9396  $$$134B,7
   8850  00000986  00000001 USING  ORDINARY    FFFFFFD8 00001000 FFFFFFE9   8 000          ITESTWA-(4+36),R8
   9409  00000B48  00000001 USING  ORDINARY    00000000 00001000 FFFFFFF6   8 000          @R8,8
   9414  00000B48  00000001 USING  ORDINARY    00000000 00001000 FFFFFFF7   7 000          @R7,7
   9498  00000BF2  00000001 USING  ORDINARY    00000BF2 00001000 00000001   7 A01   11747  $$$157B,7
   9512  00000BF2  00000001 USING  ORDINARY    FFFFFFD8 00001000 FFFFFFE9   8 44C   11706  ITESTWA-(4+36),R8
  11759  0000147E  00000001 USING  ORDINARY    00000000 00001000 FFFFFFF6   8 000          @R8,8
  11764  0000147E  00000001 USING  ORDINARY    00000000 00001000 FFFFFFF7   7 000          @R7,7
  11884  00001618  00000001 USING  ORDINARY    00001618 00001000 00000001   7 992   13989  $$$250B,7
  11898  00001618  00000001 USING  ORDINARY    FFFFFFD8 00001000 FFFFFFE9   8 438   13954  ITESTWA-(4+36),R8
  14001  00001DAC  00000001 USING  ORDINARY    00000000 00001000 FFFFFFF6   8 000          @R8,8
  14006  00001DAC  00000001 USING  ORDINARY    00000000 00001000 FFFFFFF7   7 000          @R7,7
  14141  00001FCA  00000001 USING  ORDINARY    00001FCA 00001000 00000001   7 569   15641  $$$345B,7
  14155  00001FCA  00000001 USING  ORDINARY    FFFFFFD8 00001000 FFFFFFE9   8 02C   15098  ITESTWA-(4+36),R8
  15653  00002478  00000001 USING  ORDINARY    00000000 00001000 FFFFFFF6   8 000          @R8,8
  15658  00002478  00000001 USING  ORDINARY    00000000 00001000 FFFFFFF7   7 000          @R7,7
  15751  00002556  00000001 USING  ORDINARY    00002556 00001000 00000001   7 4BA   16592  $$$412B,7
  15765  00002556  00000001 USING  ORDINARY    FFFFFFD8 00001000 FFFFFFE9   8 439   16108  ITESTWA-(4+36),R8
  16604  000028D4  00000001 USING  ORDINARY    00000000 00001000 FFFFFFF6   8 000          @R8,8
  16609  000028D4  00000001 USING  ORDINARY    00000000 00001000 FFFFFFF7   7 000          @R7,7
  16709  00002A34  00000001 USING  ORDINARY    00002A34 00001000 00000001   7 297   17310  $$$445B,7
  16723  00002A34  00000001 USING  ORDINARY    FFFFFFD8 00001000 FFFFFFE9   8 038   17291  ITESTWA-(4+36),R8
1ITEST    (ITES2010) (12:47) (15MAR04) Using Map                                                                            Page  102
  17322  00002C62  00000001 USING  ORDINARY    00000000 00001000 FFFFFFF6   8 000          @R8,8
  17327  00002C62  00000001 USING  ORDINARY    00000000 00001000 FFFFFFF7   7 000          @R7,7
  17406  00002CF0  00000001 USING  ORDINARY    00002CF0 00001000 00000001   7 859   19539  $$$474B,7
  17420  00002CF0  00000001 USING  ORDINARY    FFFFFFD8 00001000 FFFFFFE9   8 000          ITESTWA-(4+36),R8
  19552  000033F4  00000001 USING  ORDINARY    00000000 00001000 FFFFFFF6   8 000          @R8,8
  19557  000033F4  00000001 USING  ORDINARY    00000000 00001000 FFFFFFF7   7 000          @R7,7
  19687  0000356E  00000001 USING  ORDINARY    0000356E 00001000 00000001   7 85A   21638  $$$563B,7
  19701  0000356E  00000001 USING  ORDINARY    FFFFFFD8 00001000 FFFFFFE9   8 438   20212  ITESTWA-(4+36),R8
  21651  00003C9A  00000001 USING  ORDINARY    00000000 00001000 FFFFFFF6   8 000          @R8,8
  21656  00003C9A  00000001 USING  ORDINARY    00000000 00001000 FFFFFFF7   7 000          @R7,7
  21782  00003DEC  00000001 USING  ORDINARY    00003DEC 00001000 00000001   7 642   23032  $$$643B,7
  21796  00003DEC  00000001 USING  ORDINARY    FFFFFFD8 00001000 FFFFFFE9   8 538   23013  ITESTWA-(4+36),R8
  23045  00004312  00000001 USING  ORDINARY    00000000 00001000 FFFFFFF6   8 000          @R8,8
  23050  00004312  00000001 USING  ORDINARY    00000000 00001000 FFFFFFF7   7 000          @R7,7
  23146  0000444E  00000001 USING  ORDINARY    0000444E 00001000 00000001   7 000          $$$698B,7
  23160  0000444E  00000001 USING  ORDINARY    FFFFFFD8 00001000 FFFFFFE9   8 000          ITESTWA-(4+36),R8
  23172  0000444E  00000001 USING  ORDINARY    00000000 00001000 FFFFFFF6   8 000          @R8,8
  23177  0000444E  00000001 USING  ORDINARY    00000000 00001000 FFFFFFF7   7 000          @R7,7
  23238  0000447A  00000001 USING  ORDINARY    0000447A 00001000 00000001   7 000          $$$701B,7
  23252  0000447A  00000001 USING  ORDINARY    FFFFFFD8 00001000 FFFFFFE9   8 000          ITESTWA-(4+36),R8
  23264  0000447A  00000001 USING  ORDINARY    00000000 00001000 FFFFFFF6   8 000          @R8,8
  23269  0000447A  00000001 USING  ORDINARY    00000000 00001000 FFFFFFF7   7 000          @R7,7

1         (ITES2010) (12:47) (15MAR04) General Purpose Register Cross Reference                                             Page  103
- Register  References (M=modified, B=branch, U=USING, D=DROP, N=index)                      HLASM R4.0  2004/03/15 12.47
0    0(0)      982U   983D  2099   2167M  2167   2168M  6359   6421M  6421   6448M  6478   6549M  6604   6665M  6699M
              6734M  6768M  6796M  6860M  6885M  6950   7023M  7065M  7108M  7150M  7192M  7235M  7278M  7319M  7361M
              7402M  7443M  7475M  7518M  7559M  7601M  7642M  7683M  7725M  7760M  7792M  7825M  7857M  7889M  7922M
              7956M  7987M  8019M  8050M  8081M  8113M  8157M  8200M  8243M  8286M  8328M  8370M  8405M  8451M  8494M
              8537M  8586M  8617M  8663M  8709M  8737M  8818   8860M  8870M  8910M  8936M  8962M  9003M  9044M  9085M
              9119M  9173M  9232M  9284M  9340M  9393M  9422M  9480   9536M  9563M  9590M  9617M  9644M  9671M  9698M
              9725M  9751M  9777M  9803M  9829M  9855M  9881M  9914M  9940M  9966M  9992M 10018M 10044M 10070M 10098M
             10125M 10152M 10179M 10206M 10233M 10260M 10287M 10313M 10339M 10365M 10391M 10417M 10443M 10472M 10498M
             10524M 10550M 10576M 10602M 10635M 10663M 10688M 10713M 10738M 10763M 10793M 10818M 10843M 10872M 10897M
             10922M 10947M 11009M 11053M 11113M 11157M 11217M 11261M 11322M 11366M 11425M 11469M 11529M 11573M 11609M
             11643M 11694M 11744M 11772M 11866  11906M 11909M 11923  11947M 11956M 11959M 11973  11997M 12006M 12009M
             12023  12047M 12056M 12059M 12073  12096M 12105M 12108M 12122  12146M 12158M 12160M 12174  12198M 12207M
             12209M 12223  12247M 12256M 12258M 12272  12296M 12305M 12307M 12321  12344M 12353M 12355M 12369  12393M
             12422M 12447M 12474M 12499M 12529M 12556M 12584M 12611M 12655M 12698M 12741M 12784M 12827M 12869M 12911M
             12953M 12999M 13042M 13085M 13134M 13165M 13211M 13257M 13307M 13353M 13400M 13455M 13510M 13544M 13577M
             13610M 13643M 13688M 13730M 13772M 13814M 13856M 13900M 13942M 13986M 14014M 14123  14184M 14215M 14247M
             14279M 14309M 14340M 14372M 14403M 14436M 14468M 14511M 14553M 14594M 14636M 14678M 14719M 14762M 14803M
             14845M 14887M 14928M 14970M 15004M 15037M 15089M 15136M 15179M 15220M 15261M 15303M 15344M 15385M 15428M
             15470M 15512M 15554M 15596M 15638M 15666M 15733  15797M 15832M 15860M 15885M 15915M 15945M 15978M 16008M
             16038M 16067M 16096M 16124M 16135M 16138M 16152  16176M 16185M 16188M 16202  16226M 16235M 16238M 16259M
             16268M 16271M 16285  16309M 16318M 16321M 16335  16359M 16370M 16372M 16386  16410M 16419M 16421M 16435
             16459M 16468M 16470M 16491M 16500M 16502M 16516  16540M 16549M 16551M 16565  16589M 16617M 16691  16762M
             16805M 16848M 16891M 16933M 16975M 17021M 17064M 17107M 17156M 17187M 17233M 17279M 17307M 17335M 17388
             17427M 17429M 17445M 17467  17491M 17500M 17502M 17518M 17540  17564M 17573M 17575M 17591M 17613  17637M
             17646M 17648M 17664M 17686  17710M 17719M 17721M 17737M 17759  17783M 17792M 17794M 17810M 17832  17856M
             17865M 17867M 17883M 17893M 17895M 17909  17933M 17942M 17944M 17958  17982M 17991M 17993M 18007  18031M
             18040M 18042M 18056  18080M 18089M 18091M 18105  18129M 18138M 18140M 18154  18178M 18221M 18263M 18305M
             18347M 18380M 18412M 18444M 18476M 18487M 18489M 18505M 18527  18551M 18560M 18562M 18578M 18600  18624M
             18633M 18635M 18651M 18673  18697M 18706M 18708M 18724M 18746  18770M 18779M 18781M 18797M 18819  18843M
             18852M 18854M 18870M 18892  18916M 18925M 18927M 18943M 18953M 18955M 18969  18993M 19002M 19004M 19018
             19042M 19051M 19053M 19067  19091M 19100M 19102M 19116  19140M 19149M 19151M 19165  19189M 19198M 19200M
             19214  19238M 19281M 19323M 19365M 19407M 19440M 19472M 19504M 19536M 19565M 19669  19767M 19806M 19835M
             19865M 19892M 19919M 19946M 19975M 20003M 20031M 20085M 20133M 20182M 20209  20211  20228M 20274M 20317M
             20359M 20402M 20444M 20487M 20530M 20572M 20615M 20657M 20698M 20740M 20781M 20823M 20855M 20898M 20940M
             20981M 21023M 21064M 21106M 21148M 21183M 21216M 21248M 21281M 21313M 21346M 21379M 21411M 21445M 21477M
             21508M 21540M 21571M 21603M 21635M 21664M 21764  21829M 21854M 21879M 21904M 21933M 21958M 21983M 22008M
             22033M 22058M 22083M 22127M 22152M 22192M 22217M 22248M 22273M 22301M 22326M 22373M 22398M 22408M 22441
             22465M 22495M 22520M 22545M 22554M 22588  22610M 22640M 22665M 22690M 22699M 22733  22755M 22785M 22810M
             22835M 22844M 22898  22920M 22950M 22975M 23000M 23029M 23058M 23128  23185M 23220  23277M
     1(1)      978U  2099   2162M  2163M  2169M  6359   6448M  6478   6549M  6604   6643M  6655   6664M  6677M  6689
              6698M  6711   6733M  6746M  6749   6767M  6795M  6859M  6885M  6950   6989M  6991M  7013   7022M  7032M
              7034M  7055   7064M  7074M  7076M  7098   7107M  7117M  7119M  7140   7149M  7159M  7161M  7182   7191M
              7201M  7203M  7225   7234M  7245M  7246M  7268   7277M  7287M  7288M  7309   7318M  7328M  7329M  7351
              7360M  7370M  7371M  7392   7401M  7411M  7412M  7433   7442M  7452M  7453M  7465   7474M  7485M  7486M
              7508   7517M  7527M  7528M  7549   7558M  7568M  7569M  7591   7600M  7610M  7611M  7632   7641M  7651M
              7652M  7673   7682M  7692M  7693M  7715   7724M  7736M  7738M  7750   7759M  7769M  7771M  7782   7791M
              7801M  7803M  7815   7824M  7834M  7836M  7847   7856M  7866M  7868M  7879   7888M  7898M  7900M  7912
              7921M  7933M  7934M  7946   7955M  7965M  7966M  7977   7986M  7996M  7997M  8009   8018M  8028M  8029M
              8040   8049M  8059M  8060M  8071   8080M  8090M  8091M  8103   8112M  8123M  8125M  8147   8156M  8166M
              8168M  8190   8199M  8209M  8211M  8233   8242M  8253M  8254M  8276   8285M  8295M  8296M  8318   8327M
              8337M  8338M  8360   8369M  8380M  8381   8383M  8395   8404M  8415M  8416   8419M  8441   8450M  8462M
              8484   8493M  8505M  8527   8536M  8547M  8548   8554M  8576   8585M  8616M  8626M  8627   8631M  8653
              8662M  8672M  8673   8677M  8699   8708M  8737M  8818   8893M  8894M  8894   8909M  8919M  8920M  8920
              8935M  8945M  8946M  8946   8961M  8971M  8972M  8972   9002M  9012M  9013M  9013   9043M  9053M  9054M
              9054   9084M  9096M  9097M  9109   9118M  9130M  9134M  9134N  9149   9172M  9231M  9283M  9339M  9392M
1         (ITES2010) (12:47) (15MAR04) General Purpose Register Cross Reference                                             Page  104
              9422M  9480   9518M  9520   9535M  9545M  9547   9562M  9572M  9574   9589M  9599M  9601   9616M  9626M
              9628   9643M  9653M  9655   9670M  9680M  9682   9697M  9708M  9709   9724M  9734M  9735   9750M  9760M
              9761   9776M  9786M  9787   9802M  9812M  9813   9828M  9838M  9839   9854M  9864M  9865   9880M  9897M
              9898   9913M  9923M  9924   9939M  9949M  9950   9965M  9975M  9976   9991M 10001M 10002  10017M 10027M
             10028  10043M 10053M 10054  10069M 10080M 10082  10097M 10107M 10109  10124M 10134M 10136  10151M 10161M
             10163  10178M 10188M 10190  10205M 10215M 10217  10232M 10242M 10244  10259M 10270M 10271  10286M 10296M
             10297  10312M 10322M 10323  10338M 10348M 10349  10364M 10374M 10375  10390M 10400M 10401  10416M 10426M
             10427  10442M 10453M 10454  10471M 10497M 10523M 10549M 10575M 10601M 10614M 10625  10634M 10662M 10687M
             10712M 10737M 10762M 10773M 10777  10792M 10817M 10827  10842M 10852M 10856  10871M 10896M 10906  10921M
             10946M 11008M 11052M 11112M 11156M 11216M 11260M 11321M 11365M 11424M 11468M 11528M 11572M 11583M 11585
             11587M 11599  11608M 11618M 11620  11622M 11633  11642M 11653M 11654  11655M 11670  11693M 11703M 11704
             11705M 11720  11743M 11772M 11866  11907M 11909M 11937  11946M 11957M 11959M 11987  11996M 12007M 12009M
             12037  12046M 12057M 12059M 12086  12095M 12106M 12108M 12136  12145M 12159M 12160M 12188  12197M 12208M
             12209M 12237  12246M 12257M 12258M 12286  12295M 12306M 12307M 12334  12343M 12354M 12355M 12383  12392M
             12421M 12446M 12473M 12498M 12512M 12513M 12528M 12538M 12539  12555M 12567M 12568M 12583M 12593M 12594
             12610M 12621M 12623M 12645  12654M 12664M 12666M 12688  12697M 12707M 12709M 12731  12740M 12750M 12752M
             12774  12783M 12794M 12795M 12817  12826M 12836M 12837M 12859  12868M 12878M 12879M 12901  12910M 12920M
             12921M 12943  12952M 12963M 12964  12967M 12989  12998M 13010M 13032  13041M 13053M 13075  13084M 13095M
             13096  13102M 13124  13133M 13164M 13174M 13175  13179M 13201  13210M 13220M 13221  13225M 13247  13256M
             13271M 13274M 13276  13306M 13317M 13318M 13318  13321M 13323  13352M 13364M 13367M 13369  13399M 13409M
             13410  13411M 13412  13413M 13416M 13418  13433M 13445  13454M 13464M 13465  13466M 13467  13468M 13471M
             13473  13488M 13500  13509M 13520M 13522M 13534  13543M 13553M 13555M 13567  13576M 13586M 13588M 13600
             13609M 13619M 13621M 13633  13642M 13653M 13654  13655M 13656M 13678  13687M 13697M 13698M 13720  13729M
             13739M 13740M 13762  13771M 13781M 13782M 13804  13813M 13823M 13824M 13846  13855M 13865M 13866  13867M
             13868M 13890  13899M 13909M 13910M 13932  13941M 13951M 13952  13953M 13954M 13976  13985M 14014M 14123
             14161M 14162  14183M 14193M 14194  14214M 14224M 14225  14246M 14257M 14269  14278M 14288M 14299  14308M
             14318M 14330  14339M 14350M 14362  14371M 14381M 14393  14402M 14414M 14426  14435M 14445M 14446N 14467M
             14478M 14479M 14479  14501  14510M 14520M 14521M 14521  14543  14552M 14562M 14563M 14563  14584  14593M
             14604M 14626  14635M 14646M 14668  14677M 14688M 14709  14718M 14729M 14730M 14730  14752  14761M 14771M
             14772M 14772  14793  14802M 14812M 14813M 14813  14835  14844M 14855M 14877  14886M 14897M 14918  14927M
             14938M 14960  14969M 14980M 14981  14982M 14994  15003M 15013M 15014  15015M 15027  15036M 15047M 15050
             15051M 15065  15088M 15098M 15112  15135M 15146M 15147M 15147  15169  15178M 15188M 15189M 15189  15210
             15219M 15229M 15230M 15230  15251  15260M 15271M 15293  15302M 15313M 15334  15343M 15354M 15375  15384M
             15395M 15396M 15396  15418  15427M 15437M 15438M 15438  15460  15469M 15479M 15480M 15480  15502  15511M
             15522M 15544  15553M 15564M 15586  15595M 15606M 15628  15637M 15666M 15733  15775M 15787  15796M 15810M
             15822  15831M 15859M 15884M 15914M 15944M 15977M 16007M 16037M 16066M 16095M 16123M 16136M 16138M 16166
             16175M 16186M 16188M 16216  16225M 16236M 16238M 16249  16258M 16269M 16271M 16299  16308M 16319M 16321M
             16349  16358M 16371M 16372M 16400  16409M 16420M 16421M 16449  16458M 16469M 16470M 16481  16490M 16501M
             16502M 16530  16539M 16550M 16551M 16579  16588M 16617M 16691  16728M 16730M 16752  16761M 16771M 16773M
             16795  16804M 16814M 16816M 16838  16847M 16858M 16859M 16881  16890M 16900M 16901M 16923  16932M 16942M
             16943M 16965  16974M 16985M 16986  16989M 17011  17020M 17032M 17054  17063M 17075M 17097  17106M 17117M
             17118  17124M 17146  17155M 17186M 17196M 17197  17201M 17223  17232M 17242M 17243  17247M 17269  17278M
             17306M 17335M 17388  17428M 17429M 17444M 17481  17490M 17501M 17502M 17517M 17554  17563M 17574M 17575M
             17590M 17627  17636M 17647M 17648M 17663M 17700  17709M 17720M 17721M 17736M 17773  17782M 17793M 17794M
             17809M 17846  17855M 17866M 17867M 17882M 17894M 17895M 17923  17932M 17943M 17944M 17972  17981M 17992M
             17993M 18021  18030M 18041M 18042M 18070  18079M 18090M 18091M 18119  18128M 18139M 18140M 18168  18177M
             18188M 18189M 18211  18220M 18230M 18231M 18253  18262M 18272M 18273M 18295  18304M 18314M 18315M 18337
             18346M 18357M 18358M 18370  18379M 18389M 18390M 18402  18411M 18421M 18422M 18434  18443M 18453M 18454M
             18466  18475M 18488M 18489M 18504M 18541  18550M 18561M 18562M 18577M 18614  18623M 18634M 18635M 18650M
             18687  18696M 18707M 18708M 18723M 18760  18769M 18780M 18781M 18796M 18833  18842M 18853M 18854M 18869M
             18906  18915M 18926M 18927M 18942M 18954M 18955M 18983  18992M 19003M 19004M 19032  19041M 19052M 19053M
             19081  19090M 19101M 19102M 19130  19139M 19150M 19151M 19179  19188M 19199M 19200M 19228  19237M 19248M
             19249M 19271  19280M 19290M 19291M 19313  19322M 19332M 19333M 19355  19364M 19374M 19375M 19397  19406M
             19417M 19418M 19430  19439M 19449M 19450M 19462  19471M 19481M 19482M 19494  19503M 19513M 19514M 19526
             19535M 19565M 19669  19707M 19708  19766M 19777M 19778  19779M 19780  19781M 19782  19783M 19784  19805M
             19834M 19864M 19874M 19875  19891M 19901M 19902  19918M 19928M 19929  19945M 19956M 19957  19958  19974M
             19984M 19985  19986  20002M 20012M 20013  20014  20030M 20041M 20045  20084M 20132M 20142  20181M 20210
             20211  20227M 20240M 20242M 20264  20273M 20283M 20285M 20307  20316M 20326M 20328M 20349  20358M 20368M
             20370M 20392  20401M 20411M 20413M 20434  20443M 20453M 20455M 20477  20486M 20496M 20498M 20520  20529M
1         (ITES2010) (12:47) (15MAR04) General Purpose Register Cross Reference                                             Page  105
             20539M 20540M 20540  20562  20571M 20582M 20583M 20605  20614M 20624M 20625M 20647  20656M 20666M 20667M
             20688  20697M 20707M 20708M 20730  20739M 20749M 20750M 20771  20780M 20790M 20791M 20813  20822M 20832M
             20833M 20845  20854M 20865M 20866M 20888  20897M 20907M 20908M 20930  20939M 20949M 20950M 20971  20980M
             20990M 20991M 21013  21022M 21032M 21033M 21054  21063M 21073M 21074M 21096  21105M 21115M 21116M 21138
             21147M 21159M 21161M 21173  21182M 21192M 21194M 21206  21215M 21225M 21227M 21238  21247M 21257M 21259M
             21271  21280M 21290M 21292M 21303  21312M 21322M 21324M 21336  21345M 21355M 21357M 21369  21378M 21388M
             21389M 21389  21401  21410M 21422M 21423M 21435  21444M 21454M 21455M 21467  21476M 21486M 21487M 21498
             21507M 21517M 21518M 21530  21539M 21549M 21550M 21561  21570M 21580M 21581M 21593  21602M 21612M 21613M
             21625  21634M 21664M 21764  21809M 21810  21828M 21853M 21878M 21903M 21913M 21914  21932M 21957M 21982M
             22007M 22032M 22057M 22082M 22092M 22093  22126M 22151M 22191M 22216M 22247M 22272M 22300M 22325M 22372M
             22397M 22409M 22419M 22455  22464M 22494M 22519M 22544M 22555M 22566M 22600  22609M 22639M 22664M 22689M
             22700M 22711M 22745  22754M 22784M 22809M 22834M 22845M 22869M 22910  22919M 22949M 22974M 22999M 23028M
             23058M 23128  23185M 23220  23277M
     2(2)      974U  2099   6359   6448M  6478   6549M  6604   6747M  6750   6885M  6950   6990M  6991   7033M  7034
              7075M  7076   7118M  7119   7160M  7161   7202M  7203   7737M  7738   7770M  7771   7802M  7803   7835M
              7836   7867M  7868   7899M  7900   8124M  8125   8167M  8168   8210M  8211   8549M  8550   8595M  8607
              8628M  8629   8674M  8675   8737M  8818   9184M  9190M  9190N  9208   9241M  9246M  9246N  9261   9295M
              9301M  9301N  9316   9349M  9354M  9354N  9369   9422M  9480   9519M  9520   9546M  9547   9573M  9574
              9600M  9601   9627M  9628   9654M  9655   9681M  9682  10081M 10082  10108M 10109  10135M 10136  10162M
             10163  10189M 10190  10216M 10217  10243M 10244  10615M 10625  10774M 10802  10853M 10881  10931  10959M
             10963M 11031  11062M 11067M 11135  11166M 11171M 11239  11272M 11276M 11344  11375M 11379M 11447  11478M
             11483M 11551  11584M 11586  11619M 11621  11656M 11684  11706M 11734  11772M 11866  11908M 11909  11958M
             11959  12008M 12009  12058M 12059  12107M 12108  12622M 12623  12665M 12666  12708M 12709  12751M 12752
             13097M 13098  13143M 13155  13176M 13177  13222M 13223  14014M 14123  14162M 14174  14194M 14205  14225M
             14237  14412M 14414N 14446M 14458  15048M 15050  15051M 15079  15098M 15126  15666M 15733  15896M 15899M
             15957M 15961M 15987M 15991M 16017M 16021M 16137M 16138  16187M 16188  16237M 16238  16270M 16271  16320M
             16321  16617M 16691  16729M 16730  16772M 16773  16815M 16816  17119M 17120  17165M 17177  17198M 17199
             17244M 17245  17335M 17388  19565M 19669  19709M 19710  20042M 20045  20195  20211  20241M 20242  20284M
             20285  20327M 20328  20369M 20370  20412M 20413  20454M 20455  20497M 20498  21160M 21161  21193M 21194
             21226M 21227  21258M 21259  21291M 21292  21323M 21324  21356M 21357  21664M 21764  21811M 21812  21915M
             21916  22094M 22095  22410M 22419M 22485  22556M 22566M 22630  22701M 22711M 22775  22846M 22869M 22940
             23058M 23128  23185M 23220  23277M
     3(3)      970U  2099   6359   6448M  6478   6549M  6604   6748M  6751   6885M  6950   8551M  8552   8737M  8818
              9185M  9191M  9222   9242M  9247M  9274   9296M  9302M  9330   9350M  9355M  9383   9422M  9480  10775M
             10776  10854M 10855  10960M 10963M 10985  11018M 11031  11063M 11067M 11089  11122M 11135  11167M 11171M
             11193  11226M 11239  11273M 11276M 11298  11331M 11344  11376M 11379M 11401  11434M 11447  11479M 11483M
             11505  11538M 11551  11772M 11866  13099M 13100  14014M 14123  14413M 14414  14603M 14604  14645M 14646
             14687M 14688  14854M 14855  14896M 14897  14937M 14938  15049M 15050  15270M 15271  15312M 15313  15353M
             15354  15521M 15522  15563M 15564  15605M 15606  15666M 15733  15897M 15899M 15958M 15961M 15988M 15991M
             16018M 16021M 16617M 16691  17121M 17122  17335M 17388  19565M 19669  19711M 19712  19816M 19817  19818
             19855  20043M 20045  20196  20211  21664M 21764  22557M 22600  22702M 22745  22847M 22910  23058M 23128
             23185M 23220  23277M
     4(4)      966U  2099   6359   6448M  6478   6549M  6604   6885M  6950   8737M  8818   9186M  9191   9297M  9302
              9422M  9480  10961M 10963M 11043  11064M 11067M 11147  11168M 11171M 11251  11274M 11276M 11356  11377M
             11379M 11459  11480M 11483M 11563  11772M 11866  14014M 14123  15666M 15733  15899M 15959M 15961M 15989M
             15991M 16019M 16021M 16617M 16691  17335M 17388  19565M 19669  20044M 20045  20197  20211  21664M 21764
             23058M 23128  23185M 23220  23277M
     5(5)      962U  2099   6359   6448M  6478   6549M  6604   6885M  6950   8737M  8818   9187M  9191   9243M  9247
              9298M  9302   9351M  9355   9422M  9480  10962M 10963M 10999  11019M 11043  11065M 11066M 11067M 11103
             11123M 11147  11169M 11170M 11171M 11207  11227M 11251  11275M 11276M 11312  11332M 11356  11378M 11379M
             11415  11435M 11459  11481M 11482M 11483M 11519  11539M 11563  11772M 11866  14014M 14123  15666M 15733
             15898M 15899M 15960M 15961M 15990M 15991M 16020M 16021M 16617M 16691  17335M 17388  19565M 19669  20194M
             20198  20211  21664M 21764  22337M 22340M 22342  22856M 22857M 22857  22860M 22862  23058M 23128  23185M
             23220  23277M
     6(6)      958U  2099   6359   6448M  6478   6549M  6604   6885M  6950   8737M  8818   8861M  8871M  9131M  9135M
              9163   9422M  9480  11772M 11866  14014M 14123  15666M 15733  16617M 16691  17335M 17388  19565M 19669
             20191M 20194  20199  20211  21664M 21764  23058M 23128  23185M 23220  23277M
     7(7)      954U  2092M  2092   2093B  2099   2105B  6359   6364M  6376U  6440U  6448M  6478   6483M  6495U  6541U
              6549M  6604   6610M  6622U  6877U  6885M  6950   6956M  6968U  8729U  8737M  8818   8824M  8836U  9414U
1         (ITES2010) (12:47) (15MAR04) General Purpose Register Cross Reference                                             Page  106
              9422M  9480   9486M  9498U 11764U 11772M 11866  11872M 11884U 14006U 14014M 14123  14129M 14141U 15658U
             15666M 15733  15739M 15751U 16609U 16617M 16691  16697M 16709U 17327U 17335M 17388  17394M 17406U 19557U
             19565M 19669  19675M 19687U 20200  20211  21656U 21664M 21764  21770M 21782U 23050U 23058M 23128  23134M
             23146U 23177U 23185M 23220  23226M 23238U 23269U 23277M
     8(8)      950U  2099   6359   6360M  6444   6448M  6478   6479M  6545   6549M  6604   6606M  6636U  6872U  6881
              6885M  6950   6952M  6982U  8724U  8733   8737M  8818   8820M  8850U  9409U  9418   9422M  9480   9482M
              9512U 11759U 11768  11772M 11866  11868M 11898U 14001U 14010  14014M 14123  14125M 14155U 15653U 15662
             15666M 15733  15735M 15765U 16604U 16613  16617M 16691  16693M 16723U 17322U 17331  17335M 17388  17390M
             17420U 19552U 19561  19565M 19669  19671M 19701U 20201  20211  21651U 21660  21664M 21764  21766M 21796U
             23045U 23054  23058M 23128  23130M 23160U 23172U 23181  23185M 23220  23222M 23252U 23264U 23273  23277M
     9(9)      946U  2099  20202  20211
    10(A)      942U  2099  20203  20211
    11(B)      938U  1163U  2099  20204  20211
    12(C)      934U  1172U  2099  20205  20211
    13(D)      930U  2099   6356   6359   6360   6361M  6361   6444M  6448   6450   6475   6478   6479   6480M  6480
              6545M  6549   6551   6601   6604   6606   6607M  6607   6881M  6885   6887   6947   6950   6952   6953M
              6953   8733M  8737   8739   8815   8818   8820   8821M  8821   9418M  9422   9424   9477   9480   9482
              9483M  9483  11768M 11772  11774  11863  11866  11868  11869M 11869  14010M 14014  14016  14120  14123
             14125  14126M 14126  15662M 15666  15668  15730  15733  15735  15736M 15736  16613M 16617  16619  16688
             16691  16693  16694M 16694  17331M 17335  17337  17385  17388  17390  17391M 17391  19561M 19565  19567
             19666  19669  19671  19672M 19672  20206  20211  21660M 21664  21666  21761  21764  21766  21767M 21767
             23054M 23058  23060  23125  23128  23130  23131M 23131  23181M 23185  23187  23217  23220  23222  23223M
             23223  23273M 23277  23279
    14(E)      926U  2099   2100M  2114   2115M  2116B  2118M  2119B  2139M  2140B  2144M  2145B  2147M  2148B  2150M
              2151B  2153M  2154B  2156M  2157M  2157B  2163   6356   6407M  6408M  6408B  6432M  6433M  6433B  6450M
              6453B  6475   6522M  6523M  6523B  6532M  6533M  6533B  6551M  6554B  6601   6668M  6669M  6669B  6702M
              6703M  6703B  6737M  6738M  6738B  6771M  6772M  6772B  6799M  6800M  6800B  6813M  6814M  6814B  6817M
              6818M  6818B  6821M  6822M  6822B  6825M  6826M  6826B  6829M  6830M  6830B  6833M  6834M  6834B  6837M
              6838M  6838B  6841M  6842M  6842B  6845M  6846M  6846B  6849M  6850M  6850B  6853M  6854M  6854B  6863M
              6864M  6864B  6887M  6890B  6947   7026M  7027M  7027B  7068M  7069M  7069B  7111M  7112M  7112B  7153M
              7154M  7154B  7195M  7196M  7196B  7238M  7239M  7239B  7281M  7282M  7282B  7322M  7323M  7323B  7364M
              7365M  7365B  7405M  7406M  7406B  7446M  7447M  7447B  7478M  7479M  7479B  7521M  7522M  7522B  7562M
              7563M  7563B  7604M  7605M  7605B  7645M  7646M  7646B  7686M  7687M  7687B  7728M  7729M  7729B  7763M
              7764M  7764B  7795M  7796M  7796B  7828M  7829M  7829B  7860M  7861M  7861B  7892M  7893M  7893B  7925M
              7926M  7926B  7959M  7960M  7960B  7990M  7991M  7991B  8022M  8023M  8023B  8053M  8054M  8054B  8084M
              8085M  8085B  8116M  8117M  8117B  8160M  8161M  8161B  8203M  8204M  8204B  8246M  8247M  8247B  8289M
              8290M  8290B  8331M  8332M  8332B  8373M  8374M  8374B  8408M  8409M  8409B  8454M  8455M  8455B  8497M
              8498M  8498B  8540M  8541M  8541B  8589M  8590M  8590B  8620M  8621M  8621B  8666M  8667M  8667B  8712M
              8713M  8713B  8739M  8742B  8815   8913M  8914M  8914B  8939M  8940M  8940B  8965M  8966M  8966B  9006M
              9007M  9007B  9047M  9048M  9048B  9088M  9089M  9089B  9122M  9123M  9123B  9176M  9177M  9177B  9235M
              9236M  9236B  9287M  9288M  9288B  9343M  9344M  9344B  9396M  9397M  9397B  9424M  9427B  9477   9539M
              9540M  9540B  9566M  9567M  9567B  9593M  9594M  9594B  9620M  9621M  9621B  9647M  9648M  9648B  9674M
              9675M  9675B  9701M  9702M  9702B  9728M  9729M  9729B  9754M  9755M  9755B  9780M  9781M  9781B  9806M
              9807M  9807B  9832M  9833M  9833B  9858M  9859M  9859B  9884M  9885M  9885B  9917M  9918M  9918B  9943M
              9944M  9944B  9969M  9970M  9970B  9995M  9996M  9996B 10021M 10022M 10022B 10047M 10048M 10048B 10073M
             10074M 10074B 10101M 10102M 10102B 10128M 10129M 10129B 10155M 10156M 10156B 10182M 10183M 10183B 10209M
             10210M 10210B 10236M 10237M 10237B 10263M 10264M 10264B 10290M 10291M 10291B 10316M 10317M 10317B 10342M
             10343M 10343B 10368M 10369M 10369B 10394M 10395M 10395B 10420M 10421M 10421B 10446M 10447M 10447B 10475M
             10476M 10476B 10501M 10502M 10502B 10527M 10528M 10528B 10553M 10554M 10554B 10579M 10580M 10580B 10605M
             10606M 10606B 10638M 10639M 10639B 10666M 10667M 10667B 10691M 10692M 10692B 10716M 10717M 10717B 10741M
             10742M 10742B 10766M 10767M 10767B 10796M 10797M 10797B 10821M 10822M 10822B 10846M 10847M 10847B 10875M
             10876M 10876B 10900M 10901M 10901B 10925M 10926M 10926B 10950M 10951M 10951B 11012M 11013M 11013B 11056M
             11057M 11057B 11116M 11117M 11117B 11160M 11161M 11161B 11220M 11221M 11221B 11264M 11265M 11265B 11325M
             11326M 11326B 11369M 11370M 11370B 11428M 11429M 11429B 11472M 11473M 11473B 11532M 11533M 11533B 11576M
             11577M 11577B 11612M 11613M 11613B 11646M 11647M 11647B 11697M 11698M 11698B 11747M 11748M 11748B 11774M
             11777B 11863  11950M 11951M 11951B 12000M 12001M 12001B 12050M 12051M 12051B 12099M 12100M 12100B 12149M
             12150M 12150B 12201M 12202M 12202B 12250M 12251M 12251B 12299M 12300M 12300B 12347M 12348M 12348B 12396M
             12397M 12397B 12425M 12426M 12426B 12450M 12451M 12451B 12477M 12478M 12478B 12502M 12503M 12503B 12532M
             12533M 12533B 12559M 12560M 12560B 12587M 12588M 12588B 12614M 12615M 12615B 12658M 12659M 12659B 12701M
1         (ITES2010) (12:47) (15MAR04) General Purpose Register Cross Reference                                             Page  107
             12702M 12702B 12744M 12745M 12745B 12787M 12788M 12788B 12830M 12831M 12831B 12872M 12873M 12873B 12914M
             12915M 12915B 12956M 12957M 12957B 13002M 13003M 13003B 13045M 13046M 13046B 13088M 13089M 13089B 13137M
             13138M 13138B 13168M 13169M 13169B 13214M 13215M 13215B 13260M 13261M 13261B 13310M 13311M 13311B 13356M
             13357M 13357B 13403M 13404M 13404B 13458M 13459M 13459B 13513M 13514M 13514B 13547M 13548M 13548B 13580M
             13581M 13581B 13613M 13614M 13614B 13646M 13647M 13647B 13691M 13692M 13692B 13733M 13734M 13734B 13775M
             13776M 13776B 13817M 13818M 13818B 13859M 13860M 13860B 13903M 13904M 13904B 13945M 13946M 13946B 13989M
             13990M 13990B 14016M 14019B 14120  14187M 14188M 14188B 14218M 14219M 14219B 14250M 14251M 14251B 14282M
             14283M 14283B 14312M 14313M 14313B 14343M 14344M 14344B 14375M 14376M 14376B 14406M 14407M 14407B 14439M
             14440M 14440B 14471M 14472M 14472B 14514M 14515M 14515B 14556M 14557M 14557B 14597M 14598M 14598B 14639M
             14640M 14640B 14681M 14682M 14682B 14722M 14723M 14723B 14765M 14766M 14766B 14806M 14807M 14807B 14848M
             14849M 14849B 14890M 14891M 14891B 14931M 14932M 14932B 14973M 14974M 14974B 15007M 15008M 15008B 15040M
             15041M 15041B 15092M 15093M 15093B 15139M 15140M 15140B 15182M 15183M 15183B 15223M 15224M 15224B 15264M
             15265M 15265B 15306M 15307M 15307B 15347M 15348M 15348B 15388M 15389M 15389B 15431M 15432M 15432B 15473M
             15474M 15474B 15515M 15516M 15516B 15557M 15558M 15558B 15599M 15600M 15600B 15641M 15642M 15642B 15668M
             15671B 15730  15800M 15801M 15801B 15835M 15836M 15836B 15863M 15864M 15864B 15888M 15889M 15889B 15918M
             15919M 15919B 15948M 15949M 15949B 15981M 15982M 15982B 16011M 16012M 16012B 16041M 16042M 16042B 16070M
             16071M 16071B 16099M 16100M 16100B 16127M 16128M 16128B 16179M 16180M 16180B 16229M 16230M 16230B 16262M
             16263M 16263B 16312M 16313M 16313B 16362M 16363M 16363B 16413M 16414M 16414B 16462M 16463M 16463B 16494M
             16495M 16495B 16543M 16544M 16544B 16592M 16593M 16593B 16619M 16622B 16688  16765M 16766M 16766B 16808M
             16809M 16809B 16851M 16852M 16852B 16894M 16895M 16895B 16936M 16937M 16937B 16978M 16979M 16979B 17024M
             17025M 17025B 17067M 17068M 17068B 17110M 17111M 17111B 17159M 17160M 17160B 17190M 17191M 17191B 17236M
             17237M 17237B 17282M 17283M 17283B 17310M 17311M 17311B 17337M 17340B 17385  17448M 17449M 17449B 17494M
             17495M 17495B 17521M 17522M 17522B 17567M 17568M 17568B 17594M 17595M 17595B 17640M 17641M 17641B 17667M
             17668M 17668B 17713M 17714M 17714B 17740M 17741M 17741B 17786M 17787M 17787B 17813M 17814M 17814B 17859M
             17860M 17860B 17886M 17887M 17887B 17936M 17937M 17937B 17985M 17986M 17986B 18034M 18035M 18035B 18083M
             18084M 18084B 18132M 18133M 18133B 18181M 18182M 18182B 18224M 18225M 18225B 18266M 18267M 18267B 18308M
             18309M 18309B 18350M 18351M 18351B 18383M 18384M 18384B 18415M 18416M 18416B 18447M 18448M 18448B 18479M
             18480M 18480B 18508M 18509M 18509B 18554M 18555M 18555B 18581M 18582M 18582B 18627M 18628M 18628B 18654M
             18655M 18655B 18700M 18701M 18701B 18727M 18728M 18728B 18773M 18774M 18774B 18800M 18801M 18801B 18846M
             18847M 18847B 18873M 18874M 18874B 18919M 18920M 18920B 18946M 18947M 18947B 18996M 18997M 18997B 19045M
             19046M 19046B 19094M 19095M 19095B 19143M 19144M 19144B 19192M 19193M 19193B 19241M 19242M 19242B 19284M
             19285M 19285B 19326M 19327M 19327B 19368M 19369M 19369B 19410M 19411M 19411B 19443M 19444M 19444B 19475M
             19476M 19476B 19507M 19508M 19508B 19539M 19540M 19540B 19567M 19570B 19666  19770M 19771M 19771B 19809M
             19810M 19810B 19838M 19839M 19839B 19868M 19869M 19869B 19895M 19896M 19896B 19922M 19923M 19923B 19949M
             19950M 19950B 19978M 19979M 19979B 20006M 20007M 20007B 20034M 20035M 20035B 20088M 20089M 20089B 20136M
             20137M 20137B 20185M 20186M 20186B 20192M 20207  20211  20231M 20232M 20232B 20277M 20278M 20278B 20320M
             20321M 20321B 20362M 20363M 20363B 20405M 20406M 20406B 20447M 20448M 20448B 20490M 20491M 20491B 20533M
             20534M 20534B 20575M 20576M 20576B 20618M 20619M 20619B 20660M 20661M 20661B 20701M 20702M 20702B 20743M
             20744M 20744B 20784M 20785M 20785B 20826M 20827M 20827B 20858M 20859M 20859B 20901M 20902M 20902B 20943M
             20944M 20944B 20984M 20985M 20985B 21026M 21027M 21027B 21067M 21068M 21068B 21109M 21110M 21110B 21151M
             21152M 21152B 21186M 21187M 21187B 21219M 21220M 21220B 21251M 21252M 21252B 21284M 21285M 21285B 21316M
             21317M 21317B 21349M 21350M 21350B 21382M 21383M 21383B 21414M 21415M 21415B 21448M 21449M 21449B 21480M
             21481M 21481B 21511M 21512M 21512B 21543M 21544M 21544B 21574M 21575M 21575B 21606M 21607M 21607B 21638M
             21639M 21639B 21666M 21669B 21761  21832M 21833M 21833B 21857M 21858M 21858B 21882M 21883M 21883B 21907M
             21908M 21908B 21936M 21937M 21937B 21961M 21962M 21962B 21986M 21987M 21987B 22011M 22012M 22012B 22036M
             22037M 22037B 22061M 22062M 22062B 22086M 22087M 22087B 22130M 22131M 22131B 22155M 22156M 22156B 22195M
             22196M 22196B 22220M 22221M 22221B 22251M 22252M 22252B 22276M 22277M 22277B 22304M 22305M 22305B 22329M
             22330M 22330B 22376M 22377M 22377B 22401M 22402M 22402B 22468M 22469M 22469B 22498M 22499M 22499B 22523M
             22524M 22524B 22548M 22549M 22549B 22613M 22614M 22614B 22643M 22644M 22644B 22668M 22669M 22669B 22693M
             22694M 22694B 22758M 22759M 22759B 22788M 22789M 22789B 22813M 22814M 22814B 22838M 22839M 22839B 22923M
             22924M 22924B 22953M 22954M 22954B 22978M 22979M 22979B 23003M 23004M 23004B 23032M 23033M 23033B 23060M
             23063B 23125  23187M 23190B 23217  23279M 23282B
    15(F)      922U  2099   6404M  6429M  6452M  6452   6553M  6553   6889M  6889   8741M  8741   9426M  9426  11776M
             11776  14018M 14018  15670M 15670  16621M 16621  17339M 17339  19569M 19569  20193M 20208  20211  21668M
             21668  23062M 23062  23189M 23189  23281M 23281

1ITEST    (ITES2010) (12:47) (15MAR04) Diagnostic Cross Reference and Assembler Summary                                     Page  108
-                                                                                            HLASM R4.0  2004/03/15 12.47
0     No Statements Flagged in this Assembly
 HIGH LEVEL ASSEMBLER, 5696-234, RELEASE 4.0, PTF P72483
0SYSTEM: OS/390 02.10.00            JOBNAME: WYL#ITES    STEPNAME: ASM        PROCSTEP: (NOPROC)
0Datasets Allocated for this Assembly
  Con DDname   Dataset Name                                 Volume  Member
   P1 SYSIN    WYL.GS.WYL.WYLBUR.SOURCE                     SYSB05  ITEST
   L1 SYSLIB   WYL.GS.WYL.WYLBUR.MACLIB                     SYSB05
   L2          WYL.GG.SYS.MACLIB                            SYSB05
   L3          SYS3.IS.MACLIB                               SYSB05
   L4          SYS3.MACLIB                                  SYSB02
   L5          SYS1.MACLIB                                  MVSBR9
   L6          SYS1.MODGEN                                  MVSBR9
      SYSPRINT SYS04075.T124702.RA000.WYL#ITES.PRINT.H01    SCR101
      SYSTERM  GG$SLP.WYL#ITES.JOB03533.D0000101.?

    3668K allocated to Buffer Pool,         2805K would be required for this to be an In-Storage Assembly
    2717 Primary Input Records Read         5617 Library Records Read                  0 Work File Reads
       0 ASMAOPT Records Read              11007 Primary Print Records Written         0 Work File Writes
       0 Punch Records Written                 0 ADATA Records Written
0Assembly Start Time: 12.47.03 Stop Time: 12.47.08 Processor Time: 00.00.03.5025
 Return Code 000
